
Source Code


000002:                                                                                                  ## Copyright:   Public domain.
000003:                                                                                                  ## Filename:    INTER-BANK_COMMUNICATION.agc
000004:                                                                                                  ## Purpose:     A log section of Zerlina 56, the final revision of
000005:                                                                                                  ##              Don Eyles's offline development program for the variable
000006:                                                                                                  ##              guidance period servicer. It also includes a new P66 with LPD
000007:                                                                                                  ##              (Landing Point Designator) capability, based on an idea of John
000008:                                                                                                  ##              Young's. Neither of these advanced features were actually flown,
000009:                                                                                                  ##              but Zerlina was also the birthplace of other big improvements to
000010:                                                                                                  ##              Luminary including the terrain model and new (Luminary 1E)
000011:                                                                                                  ##              analog display programs. Zerlina was branched off of Luminary 145,
000012:                                                                                                  ##              and revision 56 includes all changes up to and including Luminary
000013:                                                                                                  ##              183. It is therefore quite close to the Apollo 14 program,
000014:                                                                                                  ##              Luminary 178, where not modified with new features.
000015:                                                                                                  ## Reference:   pp. 989-992
000016:                                                                                                  ## Assembler:   yaYUL
000017:                                                                                                  ## Contact:     Ron Burkey <info@sandroid.org>.
000018:                                                                                                  ## Website:     www.ibiblio.org/apollo/index.html
000019:                                                                                                  ## Mod history: 2017-07-28 MAS  Created from Luminary 210.
000020:                                                                                                  ##              2017-08-27 MAS  Updated for Zerlina 56.
000021:


000023:                                                                                                  #           THE FOLLOWING ROUTINE CAN BE USED TO CALL A SUBROUTINE IN ANOTHER BANK. IN THE BANKCALL VERSION, THE
000024:                                                                                                  #  CADR OF THE SUBROUTINE IMMEDIATELY FOLLOWS THE  TC BANKCALL  INSTRUCTION, WITH C(A) AND C(L) PRESERVED.
000025:
000026:    4616                                           BLOCK    02
000027:    4616                                           COUNT*   $$/BANK
000028:    4616           52134        BANKCALL           DXCH     BUF2                                  #  SAVE INCOMING A,L.
000029:    4617           50002                           INDEX    Q                                     #  PICK UP CADR.
000030:    4620           30000                           CA       0
000031:    4621           24002                           INCR     Q                                     #  SO WE RETURN TO THE LOC. AFTER THE CADR.
000032:
000033:                                                                                                  #           SWCALL IS IDENTICAL TO BANKCALL, EXCEPT THAT THE CADR ARRIVES IN A.
000034:
000035:    4622           54001        SWCALL             TS       L
000036:    4623           22004                           LXCH     FBANK                                 #  SWITCH BANKS, SAVING RETURN.
000037:    4624           75012                           MASK     LOW10                                 #  GET SUB-ADDRESS OF CADR.
000038:    4625           56002                           XCH      Q                                     #  A,L NOW CONTAINS DP RETURN.
000039:    4626           52134                           DXCH     BUF2                                  #  RESTORING INPUTS IF THIS IS A BANKCALL.
000040:    4627           50002                           INDEX    Q
000041:    4630           02000                           TC       10000                                 #  SETTING Q TO SWRETURN.
000042:
000043:    4631           56134        SWRETURN           XCH      BUF2       +1                         #  COMES HERE TO RETURN TO CALLER. C(A,L)
000044:    4632           56004                           XCH      FBANK                                 #  ARE PRESERVED FOR RETURN.
000045:    4633           56134                           XCH      BUF2       +1
000046:    4634           00133                           TC       BUF2
000047:
000048:                                                                                                  #           THE FOLLOWING ROUTINE CAN BE USED AS A UNILATERAL JUMP WITH C(A,L) PRESERVED AND THE CADR IMMEDIATELY
000049:                                                                                                  #  FOLLOWING THE TC POSTJUMP INSTRUCTION.
000050:
000051:    4635           56002        POSTJUMP           XCH      Q                                     #  SAVE INCOMING C(A).
000052:    4636           50000                           INDEX    A                                     #  GET CADR.
000053:    4637           30000                           CA       0
000054:
000055:                                                                                                  #           BANKJUMP IS THE SAME AS POSTJUMP, EXCEPT THAT THE CADR ARRIVES IN A.
000056:
000057:    4640           54004        BANKJUMP           TS       FBANK
000058:    4641           75012                           MASK     LOW10
000059:    4642           56002                           XCH      Q                                     #  RESTORING INPUT C(A) IF THIS WAS A
000060:    4643           50002        Q+10000            INDEX    Q                                     #  POSTJUMP.
000061:    4644           12000        PRIO12             TCF      10000                                 #  PRIO12 = TCF   10000 = 12000
000062:


000064:                                                                                                  #           THE FOLLOWING ROUTINE GETS THE RETURN CADR SAVED BY SWCALL OR BANKCALL AND LEAVES IT IN A.
000065:
000066:    4645           35012        MAKECADR           CAF      LOW10
000067:    4646           70133                           MASK     BUF2
000068:    4647           60134                           AD       BUF2       +1
000069:    4650           00002                           TC       Q
000070:
000071:
000072:    4651           54135        SUPDACAL           TS       MPTEMP
000073:    4652           56004                           XCH      FBANK                                 #  SET FBANK FOR DATA.
000074:    4653           00006                           EXTEND
000075:    4654           04007                           ROR      SUPERBNK                              #  SAVE FBANK IN BITS 15-11, AND
000076:    4655           56135                           XCH      MPTEMP                                #   SUPERBANK IN BITS  7-5.
000077:    4656           75012                           MASK     LOW10
000078:    4657           56001                           XCH      L                                     #  SAVE REL. ADR. IN BANK, FETCH SUPERBITS.
000079:    4660           00004                           INHINT                                         #  BECAUSE RUPT DOES NOT SAVE SUPERBANK.
000080:    4661           00006                           EXTEND
000081:    4662           01007                           WRITE    SUPERBNK                              #  SET SUPERBANK FOR DATA.
000082:    4663           50001                           INDEX    L
000083:    4664           32000                           CA       10000                                 #  PINBALL (FIX MEM DISP) PREVENTS DCA HERE
000084:    4665           56135                           XCH      MPTEMP                                #  SAVE 1ST WD, FETCH OLD FBANK AND SBANK.
000085:    4666           00006                           EXTEND
000086:    4667           01007                           WRITE    SUPERBNK                              #  RESTORE SUPERBANK.
000087:    4670           00003                           RELINT
000088:    4671           54004                           TS       FBANK                                 #  RESTORE FBANK.
000089:    4672           30135                           CA       MPTEMP                                #  RECOVER FIRST WORD OF DATA.
000090:    4673           00002                           RETURN                                         #  24 WDS. DATACALL 516 MU, SUPDACAL 432 MU
000091:


000093:                                                                                                  #           THE FOLLOWING ROUTINES ARE IDENTICAL TO BANKCALL AND SWCALL EXCEPT THAT THEY ARE USED IN INTERRUPT.
000094:
000095:    4674           52073        IBNKCALL           DXCH     RUPTREG3                              #  USES RUPTREG3,4 FOR DP RETURN ADDRESS.
000096:    4675           50002                           INDEX    Q
000097:    4676           30000                           CAF      0
000098:    4677           24002                           INCR     Q
000099:
000100:    4700           54001        ISWCALLL           TS       L
000101:    4701           22004                           LXCH     FBANK
000102:    4702           75012                           MASK     LOW10
000103:    4703           56002                           XCH      Q
000104:    4704           52073                           DXCH     RUPTREG3
000105:    4705           50002                           INDEX    Q
000106:    4706           02000                           TC       10000
000107:
000108:    4707           56073        ISWRETRN           XCH      RUPTREG4
000109:    4710           56004                           XCH      FBANK
000110:    4711           56073                           XCH      RUPTREG4
000111:    4712           00072                           TC       RUPTREG3
000112:
000113:                                                                                                  #  2. USPRCADR ACCESSES INTERPRETIVE CODING IN OTHER THAN THE USER'S FBANK. THE CALLING SEQUENCE IS AS FOLLOWS:
000114:
000115:                                                                                                  #                                          L        TC     USPRCADR
000116:                                                                                                  #                                          L+1      CADR   INTPRETX        INTPRETX IS THE INTERPRETIVE CODING
000117:                                                                                                  #                                                                          RETURN IS TO L+2
000118:
000119:
000120:    4713           54164        USPRCADR           TS       LOC                                   #  SAVE A
000121:    4714           34744                           CA       BIT8
000122:    4715           54023                           TS       EDOP                                  #  EXIT INSTRUCTION TO EDOP
000123:    4716           30006                           CA       BBANK
000124:    4717           54165                           TS       BANKSET                               #  USER'S BBANK TO BANKSET
000125:    4720           50002                           INDEX    Q
000126:    4721           30000                           CA       0
000127:    4722           54004                           TS       FBANK                                 #  INTERPRETIVE BANK TO FBANK
000128:    4723           75012                           MASK     LOW10                                 #  YIELDS INTERPRETIVE RELATIVE ADDRESS
000129:    4724           56002                           XCH      Q                                     #  INTERPRETIVE ADDRESS TO Q, FETCHING L+1
000130:    4725           56164                           XCH      LOC                                   #  L+1 TO LOC, RETRIEVING ORIGINAL A
000131:    4726           14643                           TCF      Q+10000
000132:


000134:                                                                                                  #  THERE ARE FOUR POSSIBLE SETTINGS FOR CHANNEL 07. (CHANNEL 07 CONTAINS THE SUPERBANK SETTING.)
000135:                                                                                                  #                                            PSEUDO-FIXED     OCTAL PSEUDO
000136:                                                                                                  #  SUPERBANK     SETTING     S-REG. VALUE    BANK NUMBERS     ADDRESSES
000137:                                                                                                  #  ----------    -------     ------------    ------------      ------------
000138:
000139:                                                                                                  #  SUPERBANK 3     0XX       2000 - 3777        30 - 37       70000 - 107777   (WHERE XX CAN BE ANYTHING AND
000140:                                                                                                  #                                                                              WILL USUALLY BE SEEN AS 11)
000141:                                                                                                  #  SUPERBANK 4     100       2000 - 3777        40 - 47       110000 - 127777  (AS FAR AS IT CAN BE SEEN,
000142:                                                                                                  #                                                                              ONLY BANKS 40-43 WILL EVER BE
000143:                                                                                                  #                                                                              AND ARE PRESENTLY AVAILABLE)
000144:                                                                                                  #  SUPERBANK 5     101       2000 - 3777        50 - 57       130000 - 147777  (PRESENTLY NOT AVAILABLE TO
000145:                                                                                                  #                                                                              THE USER)
000146:                                                                                                  #  SUPERBANK 6     110       2000 - 3777        60 - 67       150000 - 167777  (PRESENTLY NOT AVAILABLE TO
000147:                                                                                                  #                                                                              THE USER)
000148:                                                                                                  #  ***  THIS ROUTINE MAYBE CALLED BY ANY PROGRAM LOCATED IN BANKS 00 - 27.  I.E., NO PROGRAM LIVING IN ANY
000149:                                                                                                  #  SUPERBANK SHOULD USE SUPERSW.  ***
000150:
000151:                                                                                                  #  SUPERSW MAYBE CALLED IN THIS FASHION:
000152:
000153:                                                                                                  #           CAF    ABBCON          WHERE  --  ABBCON   BBCON  SOMETHIN  --
000154:                                                                                                  #           TCR    SUPERSW         (THE SUPERBNK BITS ARE IN THE BBCON)
000155:                                                                                                  #           ...      ...
000156:                                                                                                  #            .        .
000157:                                                                                                  #            .        .
000158:
000159:                                                                                                  #  OR IN THIS FASHION :
000160:
000161:                                                                                                  #           CAF    SUPERSET        WHERE SUPERSET IS ONE OF THE FOUR AVAILABLE
000162:                                                                                                  #           TCR    SUPERSW         SUPERBANK BIT CONSTANTS:
000163:                                                                                                  #           ...      ...                                   SUPER011 OCTAL  60
000164:                                                                                                  #            .        .                                    SUPER100 OCTAL 100
000165:                                                                                                  #            .        .                                    SUPER101 OCTAL 120
000166:                                                                                                  #                                                          SUPER110 OCTAL 140
000167:
000168:    4727           00006        SUPERSW            EXTEND
000169:    4730           01007                           WRITE    SUPERBNK                              #  WRITE BITS 7-6-5 OF THE ACCUMULATOR INTO
000170:                                                                                                  #  CHANNEL 07
000171:    4731           00002                           TC       Q                                     #  TC TO INSTRUCTION FOLLOWING
000172:                                                                                                  #    TC  SUPERSW
000173:

End of include-file INTER-BANK_COMMUNICATION.agc.  Parent file is MAIN.agc


