
Source Code


000002:                                                                                                  ## Copyright:   Public domain.
000003:                                                                                                  ## Filename:    INTERPRETER.agc
000004:                                                                                                  ## Purpose:     A log section of Zerlina 56, the final revision of
000005:                                                                                                  ##              Don Eyles's offline development program for the variable
000006:                                                                                                  ##              guidance period servicer. It also includes a new P66 with LPD
000007:                                                                                                  ##              (Landing Point Designator) capability, based on an idea of John
000008:                                                                                                  ##              Young's. Neither of these advanced features were actually flown,
000009:                                                                                                  ##              but Zerlina was also the birthplace of other big improvements to
000010:                                                                                                  ##              Luminary including the terrain model and new (Luminary 1E)
000011:                                                                                                  ##              analog display programs. Zerlina was branched off of Luminary 145,
000012:                                                                                                  ##              and revision 56 includes all changes up to and including Luminary
000013:                                                                                                  ##              183. It is therefore quite close to the Apollo 14 program,
000014:                                                                                                  ##              Luminary 178, where not modified with new features.
000015:                                                                                                  ## Reference:   pp. 993-1085
000016:                                                                                                  ## Assembler:   yaYUL
000017:                                                                                                  ## Contact:     Ron Burkey <info@sandroid.org>.
000018:                                                                                                  ## Website:     www.ibiblio.org/apollo/index.html
000019:                                                                                                  ## Mod history: 2017-07-28 MAS  Created from Luminary 210.
000020:                                                                                                  ##              2017-08-28 RSB  Completed transcribing through page 1032.  Pages
000021:                                                                                                  ##                              1033-1085 remain.
000022:                                                                                                  ##              2017-08-29 RSB  Completed remainder of transcription.
000023:                                                                                                  ##              2021-05-30 ABS  B5TOBB -> B5TOB8
000024:


000026:                                                                                                  #  SECTION 1  DISPATCHER
000027:
000028:                                                                                                  #           ENTRY TO THE INTERPRETER. INTPRET SETS LOC TO THE FIRST  INSTRUCTION, BANKSET TO THE BBANK OF THE
000029:                                                                                                  #  OBJECT INTERPRETIVE PROGRAM, AND INTBIT15 TO THE BIT15 CONTENTS OF FBANK. INTERPRETIVE PROGRAMS MAY BE IN
000030:                                                                                                  #  VIRTUALLY ALL BANKS PRESENT UNDER ANY SUPER-BANK SETTING, WITH THE RESTRICTION THAT PROGRAMS IN HIGH BANKS
000031:                                                                                                  #  (BIT15 OF FBANK = 1) DO NOT REFER TO LOWBANKS, AND VICE-VERSA. THE INTERPRETER DOES NOT SWITCH SUPERBANKS.
000032:                                                                                                  #  E-BANK SWITCHING OCCURS WHENEVER GENERAL ERASABLE (100 - 3777) IS ADDRESSED.
000033:
000034:    6051                                           BLOCK    03
000035:
000036:    6051                                           COUNT*   $$/INTER
000037:    6051           00003        INTPRET            RELINT
000038:    6052           00006                           EXTEND                                         #  SET LOC TO THE WORD FOLLOWING THE TC.
000039:    6053           22164                           QXCH     LOC
000040:
000041:    6054           30006                 +2        CA       BBANK                                 #  INTERPRETIVE BRANCHES FINISH HERE.
000042:    6055           54165                           TS       BANKSET
000043:    6056           74735                           MASK     BIT15                                 #  GET 15TH BIT FOR INDEXABLE ADDRESSES.
000044:    6057           54115                           TS       INTBIT15
000045:
000046:    6060           54023                           TS       EDOP                                  #  MAKE SURE NO INSTRUCTIONS LEFT OVER
000047:
000048:    6061           16102                           TCF      NEWOPS                                #  PICK UP OP CODE PAIR AND BEGIN.
000049:
000050:
000051:    6062           22006        INTRSM             LXCH     BBANK                                 #  RESUME SUSPENDED INTERPRETIVE JOB
000052:    6063           16054                           TCF      INTPRET    +3
000053:                                                                                                  #           DLOAD LOADS MPAC, MPAC +1, LEAVING ZERO IN MPAC +2.
000054:
000055:    6064           00006        DLOAD              EXTEND
000056:    6065           50116                           INDEX    ADDRWD
000057:    6066           30001                           DCA      0                                     #  LOAD DP C(C(ADDRWD)) INTO MPAC,MPAX +1
000058:    6067           52155        SLOAD2             DXCH     MPAC
000059:    6070           34755                           CAF      ZERO                                  #  ZERO MPAC +2
000060:


000062:                                                                                                  #           AT THE END OF MOST INSTRUCTIONS, CONTROL IS GIVEN TO DANZIG TO DISPATCH THE NEXT OPERATION.
000063:
000064:    6071           54156                           TS       MPAC       +2                         #  AND DECLARE DP MODE
000065:
000066:    6072           54163        NEWMODE            TS       MODE                                  #  PROLOGUE FOR MODE-CHANGING INSTRUCTIONS.
000067:
000068:    6073           30165        DANZIG             CA       BANKSET                               #  SET BBANK BEFORE TESTING NEWJOB SO THAT
000069:    6074           54006                           TS       BBANK                                 #  IT MAY BE SAVED DIRECTLY BY CHANJOB.
000070:
000071:    6075           10023        NOIBNKSW           CCS      EDOP                                  #  SEE IF AN ORDER CODE IS LEFT OVER FROM
000072:    6076           16111                           TCF      OPJUMP                                #  THE LAST PAIR RETRIEVED. IF SO, EXECUTE.
000073:                                                                                                  #  EDOP IS SET TO ZERO ON ITS RE-EDITING.
000074:
000075:    6077           10067                           CCS      NEWJOB                                #  SEE IF A JOB OF HIGHER PRIORITY IS
000076:    6100           15126                           TCF      CHANG2                                #  PRESENT, AND IF SO, CHANGE JOBS.
000077:
000078:    6101           24164                           INCR     LOC                                   #  ADVANCE THE LOCATION COUNTER.
000079:                                                                                                  #           ITRACE (1) REFERS TO "NEWOPS".
000080:    6102           50164        NEWOPS             INDEX    LOC                                   #  ENTRY TO BEGIN BY PICKING OP CODE PAIR.
000081:    6103           30000                           CA       0                                     #  MAY BE AN OPCODE PAIR OR A STORE CODE.
000082:    6104           10000                           CCS      A                                     #  TEST SIGN AND GET DABS(A).
000083:    6105           16374                           TCF      DOSTORE                               #  PROCESS STORE CODE.
000084:
000085:    6106           00177        LOW7               OCT      177
000086:
000087:    6107           54023                           TS       EDOP                                  #  OP CODE PAIR. LEAVE THE OTHER IN EDOP
000088:    6110           76106                           MASK     LOW7                                  #  WHERE  CCS EDOP  WILL HONOR IT NEXT.
000089:
000090:    6111           54020        OPJUMP             TS       CYR                                   #  LOWWD ENTERS HERE IF A RIGHT-HAND OP
000091:    6112           10020                           CCS      CYR                                   #  CODE IS TO BE PROCESSED. TEST PREFICES.
000092:    6113           16261                           TCF      OPJUMP2                               #  TEST SECOND PREFIX BIT.
000093:
000094:    6114           16755                           TCF      EXIT                                  #  +0 OP CODE IS EXIT.
000095:


000097:                                                                                                  #           PROCESS ADDRESSES WHICH MAY BE DIRECT, INDEXED, OR REFERENCE THE PUSHDOWN LIST.
000098:
000099:    6115           74753        ADDRESS            MASK     BIT1                                  #  SEE IF ADDRESS IS INDEXED. CYR CONTAINED
000100:    6116           10000                           CCS      A                                     #  400XX, SO BIT 1 IS NOW AS IT WAS IN CYR.
000101:    6117           16160                           TCF      INDEX                                 #  FORM INDEXED ADDRESS.
000102:
000103:    6120           50164        DIRADRES           INDEX    LOC                                   #  LOOK AHEAD TO NEXT WORD TO SEE IF
000104:    6121           40001        OCT40001           CS       1                                     #  ADDRESS IS GIVEN.
000105:    6122           10000                           CCS      A
000106:    6123           16227                           TCF      PUSHUP                                #  IF NOT.
000107:
000108:    6124           77773        NEG4               DEC      -4         B-14
000109:
000110:    6125           24164                           INCR     LOC                                   #  IF SO, TO SHOW WE PICKED UP A WORD.
000111:    6126           54116                           TS       ADDRWD
000112:


000114:                                                                                                  #           FINAL DIGESTION OF DIRECT ADDRESSES OF OP CODES WITH 01 PREFIX IS DONE HERE. IN EACH CASE, THE
000115:                                                                                                  #  REQUIRED 12-BIT SUB-ADDRESS IS LEFT IN ADDRWD, WITH ANY REQUIRED E OR F BANK SWITCHING DONE. ADDRESSES LESS
000116:                                                                                                  #  THAN 45D ARE TAKEN TO BE RELATIVE TO THE WORK AREA. THE OP CODE IS NOW IN BITS 1-5 OF CYR WITH BIT 14 = 1.
000117:
000118:    6127           66263                           AD       -ENDVAC                               #  SEE IF ADDRESS RELATIVE TO WORK AREA.
000119:    6130           10000                           CCS      A
000120:    6131           67755                           AD       -ENDERAS                              #  IF NOT, SEE IF IN GENERAL ERASABLE.
000121:    6132           16137                           TCF      IERASTST
000122:
000123:    6133           30120        NETZERO            CA       FIXLOC                                #  IF SO, LEAVE THE MODIFIED ADDRESS IN
000124:    6134           26116                           ADS      ADDRWD                                #  ADDRWD AND DISPATCH.
000125:    6135           50020        ITR15              INDEX    CYR                                   #  THIS INDEX MAKES THE NEXT INSTRUCTION
000126:    6136           76305                           7        INDJUMP    -1                         #  TCF INDJUMP + OP, EDITING CYR.
000127:
000128:    6137           00006        IERASTST           EXTEND
000129:    6140           66150                           BZMF     GEADDR                                #  GO PROCESS GENERAL-ERASABLE ADDRESS.
000130:
000131:    6141           75012                           MASK     LOW10                                 #  FIXED BANK ADDRESS. RESTORE AND ADD B15.
000132:    6142           65012                           AD       LOW10                                 #  SWITCH BANKS AND LEAVE SUBADDRESS IN
000133:    6143           56116                           XCH      ADDRWD                                #  ADDRWD FOR OPERAND RETRIEVAL. (THIS
000134:    6144           60115                           AD       INTBIT15                              #  METHOD PRECLUDES USE OF THE LAST
000135:    6145           54004                           TS       FBANK                                 #  LOCATION IN EACH FBANK.)
000136:    6146           50020        ITR12              INDEX    CYR
000137:    6147           76305                           7        INDJUMP    -1
000138:
000139:    6150           74357        GEADDR             MASK     LOW8
000140:    6151           65007                           AD       OCT1400
000141:    6152           56116                           XCH      ADDRWD
000142:    6153           54003                           TS       EBANK
000143:    6154           50020        ITR10              INDEX    CYR
000144:    6155           76305                           7        INDJUMP    -1
000145:


000147:                                                                                                  #           THE FOLLOWING ROUTINE PROCESSES INTERPRETIVE INDEXED ADDRESSES. AN INTERPRETER INDEX REGISTER MAY
000148:                                                                                                  #  CONTAIN THE ADDRESS OF ANY ERASABLE REGISTER (0-42 BEING RELATIVE TO THE VAC AREA) OR ANY INTERPRETIVE PROGRAM
000149:                                                                                                  #  BANK, OR ANY INTEGER IN THAT RANGE.
000150:
000151:    6156           37745        DODLOAD*           CAF      DLOAD*                                #  STODL* COMES HERE TO PROCESS LOAD ADR.
000152:    6157           54020                           TS       CYR                                   #  (STOVL* ENTERS HERE).
000153:
000154:    6160           30120        INDEX              CA       FIXLOC                                #  SET UP INDEX LOCATION.
000155:    6161           54130                           TS       INDEXLOC
000156:    6162           24164                           INCR     LOC                                   #  (ADDRESS ALWAYS GIVEN).
000157:    6163           50164                           INDEX    LOC
000158:    6164           40000                           CS       0
000159:    6165           10000                           CCS      A                                     #  INDEX 2 IF ADDRESS STORED COMPLEMENTED.
000160:    6166           24130                           INCR     INDEXLOC
000161:    6167           16170                           NOOP
000162:
000163:    6170           54116                           TS       ADDRWD                                #  14 BIT ADDRESS TO ADDRWD.
000164:    6171           77754                           MASK     HIGH4                                 #  IF ADDRESS GREATER THAN 2K, ADD INTBIT15
000165:    6172           00006                           EXTEND
000166:    6173           16176                           BZF      INDEX2
000167:    6174           30115                           CA       INTBIT15
000168:    6175           26116                           ADS      ADDRWD
000169:
000170:    6176           50130        INDEX2             INDEX    INDEXLOC
000171:    6177           40046                           CS       X1
000172:    6200           26116                           ADS      ADDRWD                                #  DO AUGMENT, IGNORING AND CORRECTING OVF.
000173:
000174:    6201           77756                           MASK     HIGH9                                 #  SEE IF ADDRESS IS IN WORK AREA.
000175:    6202           00006                           EXTEND
000176:    6203           16216                           BZF      INDWORK
000177:    6204           77754                           MASK     HIGH4                                 #  SEE IF IN FIXED BANK.
000178:    6205           00006                           EXTEND
000179:    6206           16220                           BZF      INDERASE
000180:
000181:    6207           30116                           CA       ADDRWD                                #  IN FIXED - SWITCH BANKS AND CREATE
000182:    6210           54004                           TS       FBANK                                 #  SUB-ADDRESS.
000183:    6211           75012                           MASK     LOW10
000184:    6212           64741                           AD       2K
000185:    6213           54116                           TS       ADDRWD
000186:    6214           50020        ITR11              INDEX    CYR
000187:    6215           36305                           3        INDJUMP    -1
000188:
000189:    6216           30120        INDWORK            CA       FIXLOC                                #  MAKE ADDRWD RELATIVE TO WORK AREA.
000190:    6217           16224                           TCF      ITR13      -1
000191:
000192:    6220           35007        INDERASE           CA       OCT1400
000193:    6221           56116                           XCH      ADDRWD
000194:    6222           54003                           TS       EBANK
000195:    6223           74357                           MASK     LOW8
000196:    6224           26116                 -1        ADS      ADDRWD


000198:    6225           50020        ITR13              INDEX    CYR
000199:    6226           36305                           3        INDJUMP    -1
000200:


000202:                                                                                                  #           PUSH-UP ROUTINES. WHEN NO OPERAND ADDRESS IS GIVEN, THE APPROPRIATE OPERAND IS TAKEN FROM THE PUSH-DOWN
000203:                                                                                                  #  LIST. IN MOST CASES THE MODE OF THE RESULT (VECTOR OR SCALAR) OF THE LAST ARITHMETIC OPERATION PERFORMED
000204:                                                                                                  #  IS THE SAME AS THE TYPE OF OPERAND DESIRED (ALL ADD/SUBTRACT ETC.). EXCEPTIONS TO THIS GENERAL RULE ARE LISTED
000205:                                                                                                  #  BELOW (NOTE THAT IN EVERY CASE THE MODE REGISTER IS LEFT INTACT):
000206:
000207:                                                                                                  #           1.  VXSC AND V/SC WANT THE OPPOSITE TYPE OF OPERAND, E.G., IF THE LAST OPERATION YIELDED A VECTOR
000208:                                                                                                  #  RESULT, VXSC WANTS A SCALAR.
000209:
000210:                                                                                                  #           2.  THE LOAD CODES SHOULD LOAD THE ACCUMULATOR INDEPENDENT OF THE RESULT OF THE LAST OPERATION. THIS
000211:                                                                                                  #  INCLUDES VLOAD, DLOAD, TLOAD, PDDL, AND PDVL (NO PUSHUP WITH SLOAD).
000212:
000213:                                                                                                  #           3.  SOME ARITHMETIC OPERATIONS REQUIRE A STANDARD TYPE OF OPERAND REGARDLESS OF THE PREVIOUS OPERATION.
000214:                                                                                                  #  THIS INCLUDES SIGN WANTING DP AND TAD REQUIRING TP.
000215:
000216:    6227           34360        PUSHUP             CAF      OCT23                                 #  IF THE LOW 5 BITS OF CYR ARE LESS THAN
000217:    6230           70020                           MASK     CYR                                   #  20, THIS OP REQUIRES SPECIAL ATTENTION.
000218:    6231           66234                           AD       -OCT10                                #  (NO -0).
000219:    6232           10000                           CCS      A
000220:    6233           16245                           TCF      REGUP                                 #  FOR ALL CODES GREATER THAN OCT 7.
000221:
000222:    6234           77767        -OCT10             OCT      -10
000223:
000224:    6235           66124                           AD       NEG4                                  #  WE NOW HAVE 7 - OP CODE(MOD4). SEE IF
000225:    6236           10000                           CCS      A                                     #  THE OP CODE (MOD4) IS THREE (REVERSE).
000226:    6237           50000                           INDEX    A                                     #  NO - THE MODE IS DEFINITE. PICK UP THE
000227:    6240           46256                           CS       NO.WDS
000228:    6241           16247                           TCF      REGUP      +2
000229:
000230:    6242           50163                           INDEX    MODE                                  #  FOR VXSC AND V/SC WE WANT THE REQUIRED
000231:    6243           46254                           CS       REVCNT                                #  PUSHLOC DECREMENT WITHOUT CHANGING THE
000232:    6244           16247                           TCF      REGUP      +2                         #  MODE AT THIS TIME.
000233:
000234:    6245           50163        REGUP              INDEX    MODE                                  #  MOST ALL OP CODES PUSHUP HERE.
000235:    6246           46256                           CS       NO.WDS
000236:    6247           26166                 +2        ADS      PUSHLOC
000237:    6250           54116                           TS       ADDRWD
000238:    6251           50020        ITR14              INDEX    CYR
000239:    6252           76305                           7        INDJUMP    -1                         #  (THE INDEX MAKES THIS A TCF.)
000240:
000241:    6253           00002                           OCT      2                                     #  REVERSE PUSHUP DECREMENT. VECTOR TAKES 2
000242:    6254           00006        REVCNT             OCT      6                                     #  WORDS, SCALAR TAKES 6.
000243:    6255           00006                           OCT      6
000244:    6256           00002        NO.WDS             OCT      2                                     #  CONVENTIONAL DECREMENT IS 6 WORDS VECTOR
000245:    6257           00003        OCTAL3             OCT      3                                     #  2 IN DP, AND 3 IN TP.
000246:    6260           00006                           OCT      6
000247:


000249:                                                                                                  #           TEST THE SECOND PREFIX BIT TO SEE IF THIS IS A MISCELLANEOUS OR A UNARY/SHORT SHIFT OPERATION.
000250:
000251:    6261           10020        OPJUMP2            CCS      CYR                                   #  TEST SECOND PREFIX BIT.
000252:    6262           16275                           TCF      OPJUMP3                               #  TEST THIRD BIT TO SEE IF UNARY OR SHIFT.
000253:
000254:    6263           77722        -ENDVAC            DEC      -45        B-14
000255:
000256:                                                                                                  #           THE FOLLOWING ROUTINE PROCESSES ADDRESSES OF SUFFIX CLASS 10. THEY ARE BASICALLY WORK AREA ADDRESSES
000257:                                                                                                  #  IN THE RANGE 0 - 52, ERASABLE ECADR CONSTANTS FROM 100 - 3777, AND FCADRS ABOVE THAT. ALL 15 BITS ARE AVAILABLE
000258:                                                                                                  #  IN CONTRAST TO SUFFIX 1, IN WHICH ONLY THE LOW ORDER 14 ARE AVAILABLE.
000259:
000260:    6264           24164        15BITADR           INCR     LOC                                   #  (ENTRY HERE FROM STCALL).
000261:    6265           50164                           INDEX    LOC                                   #  PICK UP ADDRESS WORD.
000262:    6266           30000                           CA       0
000263:    6267           54117                           TS       POLISH                                #  WE MAY NEED A SUBADDRESS LATER.
000264:
000265:    6270           35013                           CAF      LOW7+2K                               #  THESE INSTRUCTIONS ARE IN BANK 1.
000266:    6271           54004                           TS       FBANK
000267:    6272           70020                           MASK     CYR
000268:    6273           50000        ITR7               INDEX    A
000269:    6274           16346                           TCF      MISCJUMP
000270:


000272:                                                                                                  #           COMPLETE THE DISPATCHING OF UNARY AND SHORT SHIFT OPERATIONS.
000273:
000274:    6275           54004        OPJUMP3            TS       FBANK                                 #  CALL IN BANK 0 (BITS 11-15 OF A ARE 0.)
000275:                                                                                                  #           ITRACE (6) REFERS TO "OPJUMP3".
000276:    6276           10020                           CCS      CYR                                   #  TEST THIRD PREFIX BIT.
000277:    6277           50000                           INDEX    A                                     #  THE DECREMENTED UNARY CODE IS IN BITS
000278:    6300           12000                           TCF      UNAJUMP                               #  1-4 OF A (ZERO, EXIT, HAS BEEN DETECTED)
000279:
000280:    6301           10163                           CCS      MODE                                  #  ITS A SHORT SHIFT CODE. SEE IF PRESENT
000281:    6302           12017                           TCF      SHORTT                                #  SCALAR OR VECTOR.
000282:    6303           12017                           TCF      SHORTT
000283:    6304           12121                           TCF      SHORTV                                #  CALLS THE APPROPRIATE ROUTINE.
000284:
000285:    6305     4350               FBANKMSK           EQUALS   BANKMASK
000286:    6305           00122        LVBUF              ADRES    VBUF
000287:


000289:                                                                                                  #           THE FOLLOWING IS THE JUMP TABLE FOR OP CODES WHICH MAY HAVE INDEXABLE ADDRESSES OR MAY PUSH UP.
000290:
000291:    6306           16517        INDJUMP            TCF      VLOAD                                 #  00 - LOAD MPAC WITH A VECTOR.
000292:    6307           17103                           TCF      TAD                                   #  01 - TRIPLE PRECISION ADD TO MPAC.
000293:    6310           17667                           TCF      SIGN                                  #  02 - COMPLEMENT MPAC (V OR SC) IF X NEG.
000294:    6311           17413                           TCF      VXSC                                  #  03 - VECTOR TIMES SCALAR.
000295:    6312           16715                           TCF      CGOTO                                 #  04 - COMPUTED GO TO.
000296:    6313           16502                           TCF      TLOAD                                 #  05 - LOAD MPAC WITH TRIPLE PRECISION.
000297:    6314           16064                           TCF      DLOAD                                 #  06 - LOAD MPAC WITH A DP SCALAR.
000298:    6315           17636                           TCF      V/SC                                  #  07 - VECTOR DIVIDED BY SCALAR.
000299:
000300:    6316           16513                           TCF      SLOAD                                 #  10 - LOAD MPAC IN SINGLE PRECISION.
000301:    6317           16632                           TCF      SSP                                   #  11 - SET SINGLE PRECISION INTO X.
000302:    6320           16535                           TCF      PDDL                                  #  12 - PUSH DOWN MPAC AND RE-LOAD IN DP.
000303:    6321           17346                           TCF      MXV                                   #  13 - MATRIX POST-MULTIPLIED BY VECTOR.
000304:    6322           16571                           TCF      PDVL                                  #  14 - PUSH DOWN AND VECTOR LOAD.
000305:    6323           16640                           TCF      CCALL                                 #  15 - COMPUTED CALL.
000306:    6324           17351                           TCF      VXM                                   #  16 - MATRIX PRE-MULTIPLIED BY VECTOR.
000307:    6325           17630                           TCF      TSLC                                  #  17 - NORMALIZE MPAC (SCALAR ONLY).
000308:
000309:    6326           17606                           TCF      DMPR                                  #  20 - DP MULTIPLY AND ROUND.
000310:    6327           17611                           TCF      DDV                                   #  21 - DP DIVIDE BY.
000311:    6330           17615                           TCF      BDDV                                  #  22 - DP DIVIDE INTO.
000312:    6331           17633                           TCF      GSHIFT                                #  23 - GENERAL SHIFT INSTRUCTION.
000313:    6332           16763                           TCF      VAD                                   #  24 - VECTOR ADD.
000314:    6333           16761                           TCF      VSU                                   #  25 - VECTOR SUBTRACT.
000315:    6334           17050                           TCF      BVSU                                  #  26 - VECTOR SUBTRACT FROM.
000316:    6335           17343                           TCF      DOT                                   #  27 - VECTOR DOT PRODUCT.
000317:
000318:    6336           17472                           TCF      VXV                                   #  30 - VECTOR CROSS PRODUCT.
000319:    6337           17437                           TCF      VPROJ                                 #  31 - VECTOR PROJECTION.
000320:    6340           17017                           TCF      DSU                                   #  32 - DP SUBTRACT.
000321:    6341           17074                           TCF      BDSU                                  #  33 - DP SUBTRACT FROM.
000322:    6342           17007                           TCF      DAD                                   #  34 - DP ADD.
000323:    6343           16343                           TCF      +0                                    #  35 - AVAILABLE
000324:    6344           17604                           TCF      DMP1                                  #  36 - DP MULTIPLY.
000325:    6345           17625                           TCF      SETPD                                 #  37 - SET PUSH DOWN POINTER (DIRECT ONLY)
000326:
000327:                                                                                                  #  CODES 10 AND 14 MUST NOT PUSH UP. CODE 04 MAY BE USED FOR VECTOR DECLARE BEFORE PUSHUP IF DESIRED.
000328:


000330:                                                                                                  #           THE FOLLOWING JUMP TABLE APPLIES TO INDEX, BRANCH, AND MISCELLANEOUS INSTRUCTIONS.
000331:
000332:    6346           12350        MISCJUMP           TCF      AXT                                   #  00 - ADDRESS TO INDEX TRUE.
000333:    6347           12355                           TCF      AXC                                   #  01 - ADDRESS TO INDEX COMPLEMENTED.
000334:    6350           12360                           TCF      LXA                                   #  02 - LOAD INDEX FROM ERASABLE.
000335:    6351           12364                           TCF      LXC                                   #  03 - LOAD INDEX FROM COMPLEMENT OF ERAS.
000336:    6352           12370                           TCF      SXA                                   #  04 - STORE INDEX IN ERASABLE.
000337:    6353           12376                           TCF      XCHX                                  #  05 - EXCHANGE INDEX WITH ERASABLE.
000338:    6354           12412                           TCF      INCR                                  #  06 - INCREMENT INDEX REGISTER.
000339:    6355           12421                           TCF      TIX                                   #  07 - TRANSFER ON INDEX.
000340:
000341:    6356           12404                           TCF      XAD                                   #  10 - INDEX REGISTER ADD FROM ERASABLE.
000342:    6357           12415                           TCF      XSU                                   #  11 - INDEX SUBTRACT FROM ERASABLE.
000343:    6360           12473                           TCF      BZE/GOTO                              #  12 - BRANCH ZERO AND GOTO.
000344:    6361           12500                           TCF      BPL/BMN                               #  13 - BRANCH PLUS AND BRANCH MINUS.
000345:    6362           12453                           TCF      RTB/BHIZ                              #  14 - RETURN TO BASIC AND BRANCH HI ZERO.
000346:    6363           12513                           TCF      CALL/ITA                              #  15 - CALL AND STORE QPRET.
000347:    6364           12522                           TCF      SW/                                   #  16 - SWITCH INSTRUCTIONS AND AVAILABLE.
000348:    6365           12463                           TCF      BOV(B)                                #  17 - BRANCH ON OVERFLOW TO BASIC OR INT.
000349:


000351:                                                                                                  #           THE FOLLOWING JUMP TABLE APPIES TO UNARY INSTRUCTIONS.
000352:
000353:    6366                                           COUNT*   $$/INTER
000354: 00,2000                                           BANK     0                                     #  00 - EXIT - DETECTED EARLIER.
000355: 00,2000           13207        UNAJUMP            TCF      SQRT                                  #  01 - SQUARE ROOT.
000356: 00,2001           13530                           TCF      SINE                                  #  02 - SIN.
000357: 00,2002           13517                           TCF      COSINE                                #  03 - COS.
000358: 00,2003           13610                           TCF      ARCSIN                                #  04 - ARC SIN.
000359: 00,2004           13612                           TCF      ARCCOS                                #  05 - ARC COS.
000360: 00,2005           13174                           TCF      DSQ                                   #  06 - DP SQUARE.
000361: 00,2006           12116                           TCF      ROUND                                 #  07 - ROUND TO DP.
000362:
000363: 00,2007           17702                           TCF      COMP                                  #  10 - COMPLEMENT VECTOR OR SCALAR.
000364: 00,2010           13232                           TCF      VDEF                                  #  11 - VECTOR DEFINE.
000365: 00,2011           13023                           TCF      UNIT                                  #  12 - UNIT VECTOR.
000366: 00,2012           13176                           TCF      ABVALABS                              #  13 - LENGTH OF VECTOR OR MAG OF SCALAR.
000367: 00,2013           13245                           TCF      VSQ                                   #  14 - SQUARE OF LENGTH OF VECTOR.
000368: 00,2014           16366                           TCF      STADR                                 #  15 - PUSH UP ON STORE CODE.
000369: 00,2015           13274                           TCF      RVQ                                   #  16 - RETURN VIA QPRET.
000370: 00,2016           13247                           TCF      PUSH                                  #  17 - PUSH MPAC DOWN.
000371:


000373:                                                                                                  #  SECTION 2  LOAD AND STORE PACKAGE.
000374:
000375:                                                                                                  #           A SET OF EIGHT STORE CODES IS PROVIDED AS THE PRIMARY METHOD OF STORING THE MULTI-PURPOSE
000376:                                                                                                  #  ACCUMULATOR (MPAC). IF IN THE DANZIG SECTION LOC REFERS TO AN ALGEBRAICALLY POSITIVE WORD, IT IS TAKEN AS A
000377:                                                                                                  #  STORE CODE WITH A CORRESPONDING ERASABLE ADDRESS. MOST OF THESE CODES ARE TWO ADDRESS, SPECIFYING THAT THE WORD
000378:                                                                                                  #  FOLLOWING THE STORE CODE IS TO BE USED AS AN ADDRESS FROM WHICH TO RE-LOAD MPAC. FOUR OPTIONS ARE AVAILABLE:
000379:
000380:                                                                                                  #           1. STORE               STORE MPAC. THE E ADDRESS MAY BE INDEXED.
000381:                                                                                                  #           2. STODL               STORE MPAC AND RE-LOAD IT IN DP WITH THE NEXT ADDRESS (THE LOAD MAY BE INDEXED).
000382:                                                                                                  #           3. STOVL               STORE MPAC AND RE-LOAD A VECTOR (AS ABOVE).
000383:                                                                                                  #           4. STCALL              STORE AND DO A CALL (BOTH ADDRESSES MUST BE DIRECT HERE).
000384:
000385:                                                                                                  #           STODL AND STOVL WILL TAKE FROM THE PUSH-DOWN LIST IF NO LOAD ADDRESS IS GIVEN.
000386:
000387:    6366                                           BLOCK    3
000388:
000389:    6366                                           COUNT*   $$/INTER
000390:    6366           30165        STADR              CA       BANKSET                               #  THE STADR CODE (PUSHUP UP ON STORE
000391:    6367           54004                           TS       FBANK                                 #  ADDRESS) ENTERS HERE.
000392:    6370           24164                           INCR     LOC
000393:    6371           50164        ITR1               INDEX    LOC                                   #  THE STORECODE WAS STORED COMPLEMENTED TO
000394:    6372           40000                           CS       0                                     #  MAKE IT LOOK LIKE AN OPCODE PAIR.
000395:    6373           67761                           AD       NEGONE                                #  (YUL CANT REMOVE 1 BECAUSE OF EARLY CCS)
000396:
000397:    6374           54116        DOSTORE            TS       ADDRWD
000398:    6375           74356                           MASK     LOW11                                 #  ENTRY FROM DISPATCHER. SAVE THE ERASABLE
000399:    6376           56116                           XCH      ADDRWD                                #  ADDRESS AND JUMP ON THE STORE CODE NO.
000400:    6377           77734                           MASK     B12T14
000401:    6400           00006                           EXTEND
000402:    6401           74747                           MP       BIT5                                  #  EACH TRANSFER VECTOR ENTRY IS TWO WORDS.
000403:    6402           50000        ITR0               INDEX    A
000404:    6403           16404                           TCF      STORJUMP
000405:


000407:                                                                                                  #           STORE CODE JUMP TABLE. CALLS THE APPROPRIATE STORING ROUTINE AND EXITS TO DANZIG OR TO ADDRESS WITH
000408:                                                                                                  #  A SUPPLIED OPERATION CODE.
000409:
000410:                                                                                                  #           STORE STORE,1 AND STORE,2 RETURN TO DANZIG, THUS RESETTING THE EBANK TO ITS STATE AT INTPRET.
000411:
000412:    6404           06434        STORJUMP           TC       STORE                                 #  STORE.
000413:    6405           16073                           TCF      DANZIG                                #  PICK UP NEW OP CODE(S).
000414:    6406           06426                           TC       STORE,1
000415:    6407           16073                           TCF      DANZIG
000416:    6410           06431                           TC       STORE,2
000417:    6411           16073                           TCF      DANZIG
000418:
000419:    6412           06434                           TC       STORE                                 #  STODL.
000420:    6413           16472                           TCF      DODLOAD
000421:
000422:    6414           06434                           TC       STORE                                 #  STODL WITH INDEXED LOAD ADDRESS.
000423:    6415           16156                           TCF      DODLOAD*
000424:
000425:    6416           06434                           TC       STORE                                 #  STOVL.
000426:    6417           16475                           TCF      DOVLOAD
000427:
000428:    6420           06434                           TC       STORE                                 #  STOVL WITH INDEXED LOAD ADDRESS.
000429:    6421           16500                           TCF      DOVLOAD*
000430:    6422           06434                           TC       STORE                                 #  STOTC.
000431:    6423           34766                           CAF      CALLCODE
000432:    6424           54020                           TS       CYR
000433:    6425           16264                           TCF      15BITADR                              #  GET A 15 BIT ADDRESS.
000434:


000436:                                                                                                  #           STORE CODE ADDRESS PROCESSOR.
000437:
000438:    6426           50120        STORE,1            INDEX    FIXLOC
000439:    6427           40046                           CS       X1
000440:    6430           16433                           TCF      PRESTORE
000441:
000442:    6431           50120        STORE,2            INDEX    FIXLOC
000443:    6432           40047                           CS       X2
000444:    6433           26116        PRESTORE           ADS      ADDRWD                                #  RESULTANT ADDRESS IS IN ERASABLE.
000445:
000446:    6434           40116        STORE              CS       ADDRWD
000447:    6435           64772                           AD       DEC45
000448:    6436           10000                           CCS      A                                     #  DOES THE ADDRESS POINT TO THE WORK AREA?
000449:    6437           30120                           CA       FIXLOC                                #  YES.
000450:    6440           16445                           TCF      AHEAD5
000451:    6441           35007                           CA       OCT1400                               #  NO.  SET EBANK & MAKE UP SUBADDRESS.
000452:    6442           56116                           XCH      ADDRWD
000453:    6443           54003                           TS       EBANK
000454:    6444           74357                           MASK     LOW8
000455:    6445           26116        AHEAD5             ADS      ADDRWD
000456:


000458:                                                                                                  #           STORING ROUTINES. STORE DP, TP, OR VECTOR AS INDICATED BY MODE.
000459:
000460:    6446           00006        STARTSTO           EXTEND                                         #  MPAC,+1 MUST BE STORED IN ANY EVENT.
000461:                                                                                                  #           ITRACE (5) REFERS TO "STARTSTO".
000462:    6447           30155                           DCA      MPAC
000463:    6450           50116                           INDEX    ADDRWD
000464:    6451           52001                           DXCH     0
000465:
000466:    6452           10163                           CCS      MODE
000467:    6453           16466                           TCF      TSTORE
000468:    6454           00002                           TC       Q
000469:
000470:    6455           00006        VSTORE             EXTEND
000471:    6456           30160                           DCA      MPAC       +3
000472:    6457           50116                           INDEX    ADDRWD
000473:    6460           52003                           DXCH     2
000474:
000475:    6461           00006                           EXTEND
000476:    6462           30162                           DCA      MPAC       +5
000477:    6463           50116                           INDEX    ADDRWD
000478:    6464           52005                           DXCH     4
000479:    6465           00002                           TC       Q
000480:
000481:    6466           30156        TSTORE             CA       MPAC       +2
000482:    6467           50116                           INDEX    ADDRWD
000483:    6470           54002                           TS       2
000484:    6471           00002                           TC       Q
000485:


000487:                                                                                                  #           ROUTINES TO BEGIN PROCESSING OF THE SECOND ADDRESS ASSOCIATED WITH ALL STORE-TYPE CODES EXCEPT STORE
000488:                                                                                                  #  ITSELF.
000489:
000490:    6472           37744        DODLOAD            CAF      DLOADCOD
000491:    6473           54020                           TS       CYR
000492:    6474           16120                           TCF      DIRADRES                              #  GO GET A DIRECT ADDRESS.
000493:
000494:    6475           34735        DOVLOAD            CAF      VLOADCOD
000495:    6476           54020                           TS       CYR
000496:    6477           16120                           TCF      DIRADRES
000497:
000498:    6500           36121        DOVLOAD*           CAF      VLOAD*
000499:    6501           16157                           TCF      DODLOAD*   +1                         #  PROLOGUE TO INDEX ROUTINE.
000500:


000502:                                                                                                  #           THE FOLLOWING LOAD INSTRUCTIONS ARE PROVIDED FOR LOADING THE MULTI-PURPOSE ACCUMULATOR MPAC.
000503:
000504:    6502           50116        TLOAD              INDEX    ADDRWD
000505:    6503           30002                           CA       2                                     #  LOAD A TRIPLE PRECISION ARGUMENT INTO
000506:    6504           54156                           TS       MPAC       +2                         #  THE FIRST THREE MPAC REGISTERS, WITH THE
000507:    6505           00006                           EXTEND                                         #  CONTENTS OF THE OTHER FOUR IRRELEVANT.
000508:    6506           50116                           INDEX    ADDRWD
000509:    6507           30001                           DCA      0
000510:    6510           52155                           DXCH     MPAC
000511:    6511           34753        TMODE              CAF      ONE
000512:    6512           16072                           TCF      NEWMODE                               #  DECLARE TRIPLE PRECISION MODE.
000513:
000514:    6513           22007        SLOAD              ZL                                             #  LOAD A SINGLE PRECISION NUMBER INTO
000515:    6514           50116                           INDEX    ADDRWD                                #  MPAC, SETTING MPAC+1,2 TO ZERO. THE
000516:    6515           30000                           CA       0                                     #  CONTENTS OF THE REMAINING MPAC REGISTERS
000517:    6516           16067                           TCF      SLOAD2                                #  ARE IRRELEVANT.
000518:
000519:    6517           00006        VLOAD              EXTEND                                         #  LOAD A DOUBLE PRECISION VECTOR INTO
000520:    6520           50116                           INDEX    ADDRWD                                #  MPAC,+1, MPAC+3,4, AND MPAC+5,6. THE
000521:    6521           30001                           DCA      0                                     #  CONTENTS OF MPAC +2 ARE IRRELEVANT.
000522:    6522           52155                           DXCH     MPAC
000523:
000524:    6523           00006        ENDVLOAD           EXTEND                                         #  PDVL COMES HERE TO FINISH UP FOR DP, TP.
000525:    6524           50116                           INDEX    ADDRWD
000526:    6525           30003                           DCA      2
000527:    6526           52160                           DXCH     MPAC       +3
000528:
000529:    6527           00006                 +4        EXTEND                                         #  TPDVL FINISHES HERE.
000530:    6530           50116                           INDEX    ADDRWD
000531:    6531           30005                           DCA      4
000532:    6532           52162                           DXCH     MPAC       +5
000533:
000534:    6533           44753        VMODE              CS       ONE                                   #  DECLARE VECTOR MODE.
000535:    6534           16072                           TCF      NEWMODE
000536:


000538:                                                                                                  #           THE FOLLOWING INSTRUCTIONS ARE PROVIDED FOR STORING OPERANDS IN THE PUSHDOWN LIST:
000539:
000540:                                                                                                  #           1.  PUSH               PUSHDOWN AND NO LOAD.
000541:                                                                                                  #           2.  PDDL               PUSHDOWN AND DOUBLE PRECISION LOAD.
000542:                                                                                                  #           3.  PDVL               PUSHDOWN AND VECTOR LOAD.
000543:
000544:    6535           00006        PDDL               EXTEND
000545:    6536           50116                           INDEX    ADDRWD                                #  LOAD MPAC,+1, PUSHING THE FORMER
000546:    6537           30001                           DCA      0                                     #  CONTENTS DOWN.
000547:    6540           52155                           DXCH     MPAC
000548:    6541           50166                           INDEX    PUSHLOC
000549:    6542           52001                           DXCH     0
000550:
000551:    6543           50163                           INDEX    MODE                                  #  ADVANCE THE PUSHDOWN POINTER APPRO-
000552:    6544           36256                           CAF      NO.WDS                                #  PRIATELY.
000553:    6545           26166                           ADS      PUSHLOC
000554:
000555:    6546           10163                           CCS      MODE
000556:    6547           16564                           TCF      ENDTPUSH
000557:    6550           16562                           TCF      ENDDPUSH
000558:
000559:    6551           54163                           TS       MODE                                  #  NOW DP.
000560:    6552           54156        ENDVPUSH           TS       MPAC       +2
000561:    6553           52160                           DXCH     MPAC       +3                         #  PUSH DOWN THE REST OF THE VECTOR HERE.
000562:    6554           50166                           INDEX    PUSHLOC
000563:    6555           51775                           DXCH     0          -4
000564:
000565:    6556           52162                           DXCH     MPAC       +5
000566:    6557           50166                           INDEX    PUSHLOC
000567:    6560           51777                           DXCH     0          -2
000568:
000569:    6561           16073                           TCF      DANZIG
000570:
000571:    6562           54156        ENDDPUSH           TS       MPAC       +2                         #  SET MPAC +2 TO ZERO AND EXIT ON DP.
000572:    6563           16073                           TCF      DANZIG
000573:
000574:    6564           54163        ENDTPUSH           TS       MODE
000575:    6565           56156                           XCH      MPAC       +2                         #  ON TRIPLE, SET MPAC +2 TO ZERO, PUSHING
000576:    6566           50166                 +2        INDEX    PUSHLOC                               #  DOWN THE OLD CONTENTS
000577:    6567           53777                           TS       0          -1
000578:    6570           16073                           TCF      DANZIG
000579:


000581:                                                                                                  #           PDVL - PUSHDOWN AND VECTOR LOAD.
000582:
000583:    6571           00006        PDVL               EXTEND                                         #  RELOAD MPAC AND PUSH DOWN ITS CONTENTS.
000584:    6572           50116                           INDEX    ADDRWD
000585:    6573           30001                           DCA      0
000586:    6574           52155                           DXCH     MPAC
000587:    6575           50166                           INDEX    PUSHLOC
000588:    6576           52001                           DXCH     0
000589:
000590:    6577           50163                           INDEX    MODE                                  #  ADVANCE THE PUSHDOWN POINTER.
000591:    6600           36256                           CAF      NO.WDS
000592:    6601           26166                           ADS      PUSHLOC
000593:
000594:    6602           10163                           CCS      MODE                                  #  TEST PAST MODE.
000595:    6603           16622                           TCF      TPDVL
000596:    6604           16523                           TCF      ENDVLOAD                              #  JUST LOAD LAST FOUR REGISTERS ON DP.
000597:
000598:    6605           00006        VPDVL              EXTEND                                         #  PUSHDOWN AND RE-LOAD LAST TWO COMPONENTS
000599:    6606           50116                           INDEX    ADDRWD
000600:    6607           30003                           DCA      2
000601:    6610           52160                           DXCH     MPAC       +3
000602:    6611           50166                           INDEX    PUSHLOC
000603:    6612           51775                           DXCH     0          -4
000604:
000605:    6613           00006                           EXTEND
000606:    6614           50116                           INDEX    ADDRWD
000607:    6615           30005                           DCA      4
000608:    6616           52162                           DXCH     MPAC       +5
000609:    6617           50166                           INDEX    PUSHLOC
000610:    6620           51777                           DXCH     0          -2
000611:
000612:    6621           16073                           TCF      DANZIG
000613:
000614:    6622           00006        TPDVL              EXTEND                                         #  ON TP, WE MUST LOAD THE Y COMPONENT
000615:    6623           50116                           INDEX    ADDRWD                                #  BEFORE STORING MPAC +2 INCASE THIS IS A
000616:    6624           30003                           DCA      2                                     #  PUSHUP.
000617:    6625           52160                           DXCH     MPAC       +3
000618:
000619:    6626           30156                           CA       MPAC       +2
000620:    6627           50166                           INDEX    PUSHLOC                               #  IN DP.
000621:    6630           53777                           TS       0          -1
000622:    6631           16527                           TCF      ENDVLOAD   +4
000623:
000624:                                                                                                  #           SSP (STORE SINGLE PRECISION) IS EXECUTED HERE.
000625:
000626:    6632           24164        SSP                INCR     LOC                                   #  PICK UP THE WORD FOLLOWING THE GIVEN
000627:    6633           50164                           INDEX    LOC                                   #  ADDRESS AND STORE IT AT X.
000628:    6634           30000                           CA       0
000629:    6635           50116        STORE1             INDEX    ADDRWD                                #  SOME INDEX AND MISCELLANEOUS OPS END
000630:    6636           54000                           TS       0                                     #  HERE.


000632:    6637           16073                           TCF      DANZIG
000633:


000635:                                                                                                  #  SEQUENCE CHANGING AND SUBROUTINE CALLING OPTIONS.
000636:
000637:                                                                                                  #           THE FOLLOWING OPERATIONS ARE AVAILABLE FOR SEQUENCING CHANGING, BRANCHING, AND CALLING SUBROUTINES:
000638:
000639:                                                                                                  #           1.  GOTO               GO TO.
000640:                                                                                                  #           2.  CALL               CALL SUBROUTINE SETTING QPRET.
000641:                                                                                                  #           3.  CGOTO              COMPUTED GO TO.
000642:                                                                                                  #           4.  CCALL              COMPUTED CALL.
000643:                                                                                                  #           7.  BPL                BRANCH IF MPAC POSITIVE OR ZERO.
000644:                                                                                                  #           8.  BZE                BRANCH IF MPAC ZERO.
000645:                                                                                                  #           9.  BMN                BRANCH IF MPAC NEGATIVE NON-ZERO.
000646:
000647:    6640           24164        CCALL              INCR     LOC                                   #  MAINTAIN LOC FOR QPRET COMPUTATION.
000648:    6641           50164                           INDEX    LOC
000649:    6642           30000                           CAF      0                                     #  GET BASE ADDRESS OF CADR LIST.
000650:    6643           50116                           INDEX    ADDRWD
000651:    6644           60000                           AD       0                                     #  ADD INCREMENT.
000652:    6645           54004                           TS       FBANK                                 #  SELECT DESIRED CADR.
000653:    6646           75012                           MASK     LOW10
000654:    6647           50000                           INDEX    A
000655:    6650           32000                           CAF      10000
000656:    6651           54117                           TS       POLISH
000657:
000658:    6652           30165        CALL               CA       BANKSET                               #  FOR ANY OF THE CALL OPTIONS, MAKE UP THE
000659:    6653           74350                           MASK     BANKMASK                              #  ADDRESS OF THE NEXT OP-CODE PAIR/STORE
000660:    6654           64350                           AD       BANKMASK                              #  CODE AND LEAVE IT IN QPRET.  NOTE THAT
000661:    6655           60164                           AD       LOC                                   #  BANKMASK = -(2000 - 1).
000662:    6656           50120                           INDEX    FIXLOC
000663:    6657           54052                           TS       QPRET
000664:
000665:    6660           30117        GOTO               CA       POLISH                                #  BASIC BRANCHING SEQUENCE.
000666:    6661           77754                 +1        MASK     HIGH4
000667:    6662           00006                           EXTEND
000668:    6663           16674                           BZF      GOTOERS                               #  SEE IF ADDRESS POINTS TO FIXED OR ERAS.
000669:    6664           30165                 +4        CA       BANKSET                               #  SET EBANK PART OF BBANK. NEXT, SET UP
000670:    6665           54006                           TS       BBANK                                 #  FBANK. THE COMBINATION IS PICKED UP &
000671:    6666           30117                           CA       POLISH                                #  PUT INTO BANKSET AT INTPRET +2.
000672:    6667           54004                           TS       FBANK
000673:    6670           75012                           MASK     LOW10
000674:    6671           64741                           AD       2K
000675:    6672           54164                           TS       LOC
000676:    6673           16054                           TCF      INTPRET    +3
000677:
000678:    6674  E3,1400                                  EBANK=   1400                                  #  SO YUL DOESN'T CUSS THE "CA 1400" BELOW.
000679:
000680:    6674           30117        GOTOERS            CA       POLISH                                #  THE GIVEN ADDRESS IS IN ERASABLE - SEE
000681:    6675           66263                           AD       -ENDVAC                               #  IF RELATIVE TO THE WORK AREA.
000682:    6676           10000                           CCS      A
000683:    6677           30117                           CA       POLISH                                #  GENERAL ERASABLE.
000684:    6700           16707                           TCF      GOTOGE
000685:


000687:    6701           30120                           CA       FIXLOC                                #  WORK AREA.
000688:    6702           60117                           AD       POLISH
000689:    6703           50000                           INDEX    A                                     #  USE THE GIVEN ADDRESS AS THE ADDRESS OF
000690:    6704           30000                           CA       0                                     #  THE BRANCH ADDRESS.
000691:    6705           54117                           TS       POLISH
000692:    6706           16661                           TCF      GOTO       +1                         #  ALLOWS ARBITRARY INDIRECTNESS LEVELS.
000693:
000694:    6707           54003        GOTOGE             TS       EBANK
000695:    6710           74357                           MASK     LOW8
000696:    6711           50000                           INDEX    A                                     #  USE THE GIVEN ADDRESS AS THE ADDRESS OF
000697:    6712           31400                           CA       1400                                  #  THE BRANCH ADDRESS.
000698:    6713           54117                           TS       POLISH
000699:    6714           16661                           TCF      GOTO       +1
000700:
000701:    6715           50164        CGOTO              INDEX    LOC                                   #  COMPUTED GO TO. PICK UP ADDRESS OF CADR
000702:    6716           30001                           CA       1                                     #  LIST.
000703:    6717           50116                           INDEX    ADDRWD                                #  ADD MODIFIER.
000704:    6720           60000                           AD       0
000705:    6721           54004                           TS       FBANK                                 #  SELECT GOTO ADDRESS.
000706:    6722           75012                           MASK     LOW10
000707:    6723           50000                           INDEX    A
000708:    6724           32000                           CA       10000
000709:    6725           54117                           TS       POLISH
000710:    6726           16661                           TCF      GOTO       +1                         #  WITH ADDRESS IN A.
000711:
000712:    6727           30165        SWBRANCH           CA       BANKSET                               #  SWITCH INSTRUCTIONS WHICH ELECT TO
000713:    6730           54004                           TS       FBANK                                 #  BRANCH COME HERE TO DO SO.
000714:    6731           50164                           INDEX    LOC
000715:    6732           30001                           CA       1
000716:    6733           54117                           TS       POLISH
000717:    6734           16661                           TCF      GOTO       +1
000718:


000720:                                                                                                  #           TRIPLE PRECISION BRANCHING ROUTINE. IF CALLING TC IS AT L, RETURN IS AS FOLLOWS:
000721:
000722:                                                                                                  #           L+1  IF MPAC IS GREATER THAN ZERO.
000723:                                                                                                  #           L+2  IF MPAC IS EQUAL TO +0 OR -0.
000724:                                                                                                  #           L+3  IF MPAC IS LESS THAN ZERO.
000725:
000726:    6735           10154        BRANCH             CCS      MPAC
000727:    6736           00002                           TC       Q
000728:    6737           16741                           TCF      +2                                    #  ON ZERO.
000729:    6740           16753                           TCF      NEG
000730:
000731:    6741           10155                           CCS      MPAC       +1
000732:    6742           00002                           TC       Q
000733:    6743           16745                           TCF      +2
000734:    6744           16753                           TCF      NEG
000735:
000736:    6745           10156                           CCS      MPAC       +2
000737:    6746           00002                           TC       Q
000738:    6747           16751                           TCF      +2
000739:    6750           16753                           TCF      NEG
000740:
000741:    6751           50002        Q+1                INDEX    Q
000742:    6752           00001                           TC       1
000743:
000744:    6753           50002        NEG                INDEX    Q                                     #  IF FIRST NON-ZERO REGISTER WAS NEGATIVE.
000745:    6754           00002                           TC       2
000746:
000747:
000748:    6755     6753               Q+2                =        NEG
000749:
000750:                                                                                                  #           ITRACE (3) REFERS TO "EXIT".
000751:    6755           30165        EXIT               CA       BANKSET                               #  RESTORE USER'S BANK SETTING, AND LEAVE
000752:    6756           54006                           TS       BBANK                                 #  INTERPRETIVE MODE.
000753:    6757           50164                           INDEX    LOC
000754:    6760           00001                           TC       1
000755:


000757:                                                                                                  #  SECTION 3 - ADD/SUBTRACT PACKAGE.
000758:
000759:                                                                                                  #           THE FOLLOWING OPERATIONS ARE PROVIDED FOR ADDING TO AND SUBTRACTING FROM THE MULTI-PURPOSE ACCUMULATOR
000760:                                                                                                  #  MPAC:
000761:
000762:                                                                                                  #           1.  DAD                DOUBLE PRECISION ADD.
000763:                                                                                                  #           2.  DSU                DOUBLE PRECISION SUBTRACT.
000764:                                                                                                  #           3.  BDSU               DOUBLE PRECISION SUBTRACT FROM.
000765:
000766:                                                                                                  #           4.  TAD                TRIPLE PRECISION ADD.
000767:
000768:                                                                                                  #           5.  VAD                VECTOR ADD.
000769:                                                                                                  #           6.  VSU                VECTOR SUBTRACT.
000770:                                                                                                  #           7.  BVSU               VECTOR SUBTRACT FROM.
000771:
000772:                                                                                                  #  THE INTERPRETIVE OVERFLOW INDICATOR OVFIND IS SET NON-ZERO IF OVERFLOW OCCURS IN ANY OF THE ABOVE.
000773:
000774:    6761           34735        VSU                CAF      BIT15                                 #  CHANGES 0 TO DCS.
000775:    6762           16764                           TCF      +2
000776:
000777:    6763           34355        VAD                CAF      PRIO30                                #  CHANGES 0 TO DCA.
000778:    6764           26116                           ADS      ADDRWD
000779:    6765           00006                           EXTEND
000780:    6766           50116                           INDEX    ADDRWD
000781:    6767           00003                           READ     HISCALAR                              #  DCA  2   OR   DCS  2
000782:    6770           20160                           DAS      MPAC       +3
000783:    6771           00006                           EXTEND                                         #  CHECK OVERFLOW.
000784:    6772           16774                           BZF      +2
000785:    6773           07026                           TC       OVERFLWY
000786:
000787:    6774           00006                           EXTEND
000788:    6775           50116                           INDEX    ADDRWD
000789:    6776           00005                           READ     CHAN5                                 #  DCA  4  OR  DCS  4
000790:    6777           20162                           DAS      MPAC       +5
000791:    7000           00006                           EXTEND
000792:    7001           17003                           BZF      +2
000793:    7002           07023                           TC       OVERFLWZ
000794:
000795:    7003           00006                           EXTEND
000796:    7004           50116                           INDEX    ADDRWD
000797:    7005           00001                           READ     LCHAN                                 #  DCA  0  OR  DCS  0
000798:    7006           17012                           TCF      ENDVXV
000799:
000800:    7007           00006        DAD                EXTEND
000801:    7010           50116                           INDEX    ADDRWD
000802:    7011           30001                           DCA      0
000803:    7012           20155        ENDVXV             DAS      MPAC                                  #  VXV FINISHES HERE.
000804:    7013           00006                           EXTEND
000805:    7014           16073                           BZF      DANZIG
000806:


000808:    7015           07031        SETOVF             TC       OVERFLOW
000809:    7016           16073                           TCF      DANZIG
000810:


000812:    7017           00006        DSU                EXTEND
000813:    7020           50116                           INDEX    ADDRWD
000814:    7021           40001                           DCS      0
000815:    7022           17012                           TCF      ENDVXV
000816:
000817:    7023           54001        OVERFLWZ           TS       L                                     #  ENTRY FOR THIRD COMPONENT.
000818:    7024           34756                           CAF      FIVE
000819:    7025           17030                           TCF      +3
000820:
000821:    7026           54001        OVERFLWY           TS       L                                     #  ENTRY FOR SECOND COMPONENT.
000822:    7027           36257                           CAF      THREE
000823:    7030           56001                           XCH      L
000824:
000825:    7031           50000        OVERFLOW           INDEX    A                                     #  ENTRY FOR 1ST COMP OR DP (L=0).
000826:    7032           44734                           CS       LIMITS                                #  PICK UP POSMAX OR NEGMAX.
000827:    7033           54130                           TS       BUF
000828:    7034           00006                           EXTEND
000829:    7035           24000                           AUG      A                                     #  FORCE OVERFLOW.
000830:    7036           50001                           INDEX    L
000831:    7037           26155                           ADS      MPAC       +1
000832:    7040           54007                           TS       7
000833:    7041           34755                           CAF      ZERO
000834:    7042           60130                           AD       BUF
000835:    7043           50001                           INDEX    L
000836:    7044           26154                           ADS      MPAC
000837:    7045           54007                           TS       7
000838:    7046           00002                           TC       Q                                     #  NO OVERFLOW EXIT.
000839:    7047           17164                           TCF      SETOVF2                               #  SET OVFIND AND EXIT.
000840:
000841:    7050           00006        BVSU               EXTEND
000842:    7051           50116                           INDEX    ADDRWD
000843:    7052           30003                           DCA      2
000844:    7053           52160                           DXCH     MPAC       +3
000845:    7054           00006                           EXTEND
000846:    7055           40001                           DCOM
000847:    7056           20160                           DAS      MPAC       +3
000848:    7057           00006                           EXTEND
000849:    7060           17062                           BZF      +2
000850:    7061           07026                           TC       OVERFLWY
000851:
000852:    7062           00006                           EXTEND
000853:    7063           50116                           INDEX    ADDRWD
000854:    7064           30005                           DCA      4
000855:    7065           52162                           DXCH     MPAC       +5
000856:    7066           00006                           EXTEND
000857:    7067           40001                           DCOM
000858:    7070           20162                           DAS      MPAC       +5
000859:    7071           00006                           EXTEND
000860:    7072           17074                           BZF      +2
000861:    7073           07023                           TC       OVERFLWZ
000862:


000864:    7074           00006        BDSU               EXTEND
000865:    7075           50116                           INDEX    ADDRWD
000866:    7076           30001                           DCA      0
000867:    7077           52155                           DXCH     MPAC
000868:    7100           00006                           EXTEND
000869:    7101           40001                           DCOM
000870:    7102           17012                           TCF      ENDVXV
000871:


000873:                                                                                                  #           TRIPLE PRECISION ADD ROUTINE.
000874:
000875:    7103           00006        TAD                EXTEND
000876:    7104           50116                           INDEX    ADDRWD
000877:    7105           30002                           DCA      1                                     #  ADD MINOR PARTS FIRST.
000878:    7106           20156                           DAS      MPAC       +1
000879:    7107           50116                           INDEX    ADDRWD
000880:    7110           60000                           AD       0
000881:    7111           60154                           AD       MPAC
000882:    7112           54154                           TS       MPAC
000883:    7113           16073                           TCF      DANZIG
000884:
000885:    7114           17015                           TCF      SETOVF                                #  SET OVFIND IF SUCH OCCURS.
000886:


000888:                                                                                                  #  ARITHMETIC SUBROUTINES REQUIRED IN FIXED-FIXED.
000889:
000890:                                                                                                  #           1.  DMPSUB     DOUBLE PRECISION MULTIPLY. MULTIPLY THE CONTENTS OF MPAC,+1 BY THE DP WORD WHOSE ADDRESS
000891:                                                                                                  #                          IS IN ADDRWD AND LEAVE A TRIPLE PRECISION RESULT IN MPAC.
000892:                                                                                                  #           2.  ROUNDSUB   ROUND THE TRIPLE PRECISON CONTENTS OF MPAC TO DOUBLE PRECISION.
000893:                                                                                                  #           3.  DOTSUB     TAKE THE DOT PRODUCT OF THE VECTOR IN MPAC AND THE VECTOR WHOSE ADDRESS IS IN ADDRWD
000894:                                                                                                  #                          AND LEAVE THE TRIPLE PRECISION RESULT IN MPAC.
000895:                                                                                                  #           4.  POLY       USING THE CONTENTS OF MPAC AS A DP ARGUMENT, EVALUATE THE POLYNOMIAL WHOSE DEGREE AND
000896:                                                                                                  #                          COEFFICIENTS IMMEDIATELY FOLLOW THE TC POLY INSTRUCTION (SEE ROUTINE FOR DETAILS.)
000897:
000898:
000899:    7115           50002        DMP                INDEX    Q                                     #  BASIC SUBROUTINE FOR USE BY PINBALL, ETC
000900:    7116           30000                           CAF      0                                     #  ADRES OF ARGUMENT FOLLOWS  TC DMP  .
000901:    7117           24002                           INCR     Q
000902:    7120           54116                 -1        TS       ADDRWD                                #  (PROLOGUE FOR SETTING ADDRWD.)
000903:
000904:    7121           50116        DMPSUB             INDEX    ADDRWD                                #  GET MINOR PART OF OPERAND AT C(ADDRWD).
000905:    7122           30001                           CA       1
000906:    7123           54156                           TS       MPAC       +2                         #  THIS WORKS FOR SQUARING MPAC AS WELL.
000907:    7124           34755                           CAF      ZERO                                  #  SET MPAC +1 TO ZERO SO WE CAN ACCUMULATE
000908:    7125           56155                           XCH      MPAC       +1                         #  THE PARTIAL PRODUCTS WITH DAS
000909:    7126           54135                           TS       MPTEMP                                #  INSTRUCTIONS.
000910:    7127           00006                           EXTEND
000911:    7130           70156                           MP       MPAC       +2                         #  MINOR OF MPAC X MINOR OF C(ADDRWD).
000912:
000913:    7131           56156                           XCH      MPAC       +2                         #  DISCARD MINOR PART OF ABOVE RESULT AND
000914:    7132           00006                           EXTEND                                         #  FORM MAJOR OF MPAC X MINOR OF C(ADDRWD).
000915:    7133           70154                           MP       MPAC
000916:    7134           20156                           DAS      MPAC       +1                         #  GUARANTEED NO OVERFLOW.
000917:
000918:    7135           50116                           INDEX    ADDRWD                                #  GET MAJOR PART OF ARGUMENT AT C(ADDRWD).
000919:    7136           30000                           CA       0
000920:    7137           56135                           XCH      MPTEMP                                #  SAVE AND BRING OUT MINOR OF MPAC.
000921:    7140           00006        DMPSUB2            EXTEND
000922:    7141           70135                           MP       MPTEMP                                #  MAJOR OF C(ADDRWD) X MINOR OF MPAC.
000923:    7142           20156                           DAS      MPAC       +1                         #  ACCUMULATE, SETTING A TO NET OVERFLOW.
000924:
000925:    7143           56154                           XCH      MPAC                                  #  SETTING MPAC TO 0 OR +-1.
000926:    7144           00006                           EXTEND
000927:    7145           70135                           MP       MPTEMP                                #  MAJOR OF MPAC X MAJOR OF C(ADDRWD).
000928:    7146           20155                           DAS      MPAC                                  #  GUARANTEED NO OVERFLOW.
000929:    7147           00002                           TC       Q                                     #  49 MCT = .573 MS. INCLUDING RETURN.
000930:


000932:                                                                                                  #           ROUND MPAC TO DOUBLE PRECISION, SETTING OVFIND ON THE RARE EVENT OF OVERFLOW.
000933:
000934:    7150           34755        ROUNDSUB           CAF      ZERO                                  #  SET MPAC +2 = 0 FOR SCALARS AND CHANGE
000935:    7151           54163                 +1        TS       MODE                                  #  MODE TO DP.
000936:
000937:    7152           56156        VROUND             XCH      MPAC       +2                         #  BUT WE NEEDNT TAKE THE TIME FOR VECTORS.
000938:    7153           60000                           DOUBLE
000939:    7154           54001                           TS       L
000940:    7155           00002                           TC       Q
000941:
000942:    7156           60155                           AD       MPAC       +1                         #  ADD ROUNDING BIT IF MPAC +2 WAS GREATER
000943:    7157           54155                           TS       MPAC       +1                         #  THAN .5 IN MAGNITUDE.
000944:    7160           00002                           TC       Q
000945:
000946:    7161           60154                           AD       MPAC                                  #  PROPAGATE INTERFLOW.
000947:    7162           54154                           TS       MPAC
000948:    7163           00002                           TC       Q
000949:
000950:    7164           54121        SETOVF2            TS       OVFIND                                #  (RARE).
000951:    7165           00002                           TC       Q
000952:


000954:                                                                                                  #           THE DOT PRODUCT SUBROUTINE USUALLY FORMS THE DOT PRODUCT OF THE VECTOR IN MPAC WITH A STANDARD SIX
000955:                                                                                                  #  REGISTER VECTOR WHOSE ADDRESS IS IN ADDRWD. IN THIS CASE C(DOTINC) ARE SET TO 2. VXM, HOWEVER, SETS C(DOTINC) TO
000956:                                                                                                  #  6 SO THAT DOTSUB DOTS MPAC WITH A COLUMN VECTOR OF THE MATRIX IN QUESTION IN THIS CASE.
000957:
000958:    7166           34752        PREDOT             CAF      TWO                                   #  PROLOGUE TO SET DOTINC TO 2.
000959:    7167           54136                           TS       DOTINC
000960:
000961:    7170           00006        DOTSUB             EXTEND
000962:    7171           22137                           QXCH     DOTRET                                #  SAVE RETURN.
000963:    7172           07121                           TC       DMPSUB                                #  DOT X COMPONENTS.
000964:    7173           52160                           DXCH     MPAC       +3                         #  POSITION Y COMPONENT OF MPAC FOR
000965:    7174           52155                           DXCH     MPAC                                  #  MULTIPLICATION WHILE SAVING RESULT IN
000966:    7175           52131                           DXCH     BUF                                   #  THREE WORD BUFFER, BUF.
000967:    7176           30156                           CA       MPAC       +2
000968:    7177           54132                           TS       BUF        +2
000969:
000970:    7200           30136                           CA       DOTINC                                #  ADVANCE ADDRWD TO Y COMPONENT OF
000971:    7201           26116                           ADS      ADDRWD                                #  OTHER ARGUMENT.
000972:    7202           07121                           TC       DMPSUB
000973:    7203           52156                           DXCH     MPAC       +1                         #  ACCUMULATE PARTIAL PRODUCTS.
000974:    7204           20132                           DAS      BUF        +1
000975:    7205           60154                           AD       MPAC
000976:    7206           60130                           AD       BUF
000977:    7207           54130                           TS       BUF
000978:    7210           17212                           TCF      +2
000979:    7211           54121                           TS       OVFIND                                #  IF OVERFLOW OCCURS.
000980:
000981:    7212           52162                           DXCH     MPAC       +5                         #  MULTIPLY Z COMPONENTS.
000982:    7213           52155                           DXCH     MPAC
000983:    7214           30136                           CA       DOTINC
000984:    7215           26116                           ADS      ADDRWD
000985:    7216           07121                           TC       DMPSUB
000986:    7217           52132        ENDDOT             DXCH     BUF        +1                         #  LEAVE FINAL ACCUMULATION IN MPAC.
000987:    7220           20156                           DAS      MPAC       +1
000988:    7221           60154                           AD       MPAC
000989:    7222           60130                           AD       BUF
000990:    7223           54154                           TS       MPAC
000991:    7224           00137                           TC       DOTRET
000992:
000993:    7225           07031                           TC       OVERFLOW                              #  ON OVERFLOW HERE.
000994:    7226           00137                           TC       DOTRET
000995:


000997:                                                                                                  #  DOUBLE PRECISION POLYNOMIAL EVALUATOR
000998:
000999:                                                                                                  #                                     N        N-1
001000:                                                                                                  #           THIS ROUTINE EVALUATES A X  + A   X    + ... + A X + A  LEAVING THE DP RESULT IN MPAC ON EXIT.
001001:                                                                                                  #                                   N      N-1              1     0
001002:
001003:                                                                                                  #  THE ROUTINE HAS TWO ENTRIES
001004:
001005:                                                                                                  #           1. ENTRY THRU POWRSERS. THE COEFFICIENTS MAY BE EITHER IN FIXED OR ERASABLE, THE CALL IS BY
001006:                                                                                                  #              TC POWRSERS, AND THE RETURN IS TO LOC(TC POWRSERS)+1. THE ENTERING DATA MUST BE AS FOLLOWS
001007:
001008:                                                                                                  #                                          A        SP     LOC-3           ADDRESS FOR REFERENCING COEF TABLE
001009:                                                                                                  #                                          L        SP     N-1             N IS THE DEGREE OF THE POWER SERIES
001010:                                                                                                  #                                          MPAC     DP     X               ARGUMENT
001011:
001012:                                                                                                  #                                          LOC-2N   DP     A(0)
001013:                                                                                                  #                                                   ...
001014:                                                                                                  #                                          LOC      DP     A(N)
001015:
001016:                                                                                                  #           2. ENTRY THRU POLY. THE CALL TO POLY AND THE ENTERING DATA MUST BE AS FOLLOWS
001017:
001018:                                                                                                  #                                          MPAC     DP     X               ARGUMENT
001019:
001020:                                                                                                  #                                          LOC      TC     POLY
001021:                                                                                                  #                                          LOC+1    SP     N-1
001022:                                                                                                  #                                          LOC+2    DP     A(0)
001023:                                                                                                  #                                                   ...
001024:                                                                                                  #                                          LOC+2N+2 DP     A(N)            RETURN IS TO LOC+2N+4
001025:
001026:    7227           00006        POWRSERS           EXTEND
001027:    7230           22141                           QXCH     POLYRET                               #  RETURN ADDRESS
001028:    7231           54117                           TS       POLISH                                #  POWER SERIES ADDRESS
001029:    7232           22140                           LXCH     POLYCNT                               #  N-1 TO COUNTER
001030:    7233           17244                           TCF      POLYCOM                               #  SKIP SET UP BY POLY
001031:
001032:    7234           50002        POLY               INDEX    Q
001033:    7235           30000                           CAF      0
001034:    7236           54140                           TS       POLYCNT                               #  N-1 TO COUNTER
001035:    7237           60000                           DOUBLE
001036:    7240           60002                           AD       Q
001037:    7241           54117                           TS       POLISH                                #  L(A(N))-3 TO POLISH
001038:    7242           64756                           AD       FIVE
001039:    7243           54141                           TS       POLYRET                               #  STORE RETURN ADDRESS
001040:
001041:    7244           36305        POLYCOM            CAF      LVBUF                                 #  INCOMING X WILL BE MOVED TO VBUF, SO
001042:    7245           54116                           TS       ADDRWD                                #  SET ADDRWD SO DMPSUB WILL MPY BY VBUF.
001043:
001044:    7246           00006                           EXTEND
001045:    7247           50117                           INDEX    POLISH
001046:    7250           30004                           DCA      3
001047:


001049:    7251           52155                           DXCH     MPAC                                  #  LOAD A(N) INTO MPAC,
001050:    7252           52123                           DXCH     VBUF                                  #  SAVING X IN VBUF
001051:    7253           17257                           TCF      POLY2
001052:
001053:    7254           54140        POLYLOOP           TS       POLYCNT                               #  SAVE DECREMENTED LOOP COUNTER
001054:    7255           44752                           CS       TWO
001055:    7256           26117                           ADS      POLISH                                #  REGRESS COEFFICIENT POINTER
001056:
001057:    7257           07121        POLY2              TC       DMPSUB                                #  MULTIPLY BY X
001058:    7260           00006                           EXTEND
001059:    7261           50117                           INDEX    POLISH
001060:    7262           30002                           DCA      1                                     #  ADD IN NEXT COEFFICIENT
001061:    7263           20155                           DAS      MPAC                                  #  USERS RESPONSIBILITY TO ASSURE NO OVFLOW
001062:
001063:    7264           10140                           CCS      POLYCNT
001064:    7265           17254                           TCF      POLYLOOP
001065:    7266           00141                           TC       POLYRET                               #  RETURN CALLER
001066:


001068:                                                                                                  #           MISCELLANEOUS MULTI-PRECISION ROUTINES REQUIRED IN FIXED-FIXED BUT NOT USED BY THE INTERPRETER.
001069:
001070:    7267           34755        DPAGREE            CAF      ZERO                                  #  DOUBLE PRECISION ENTRY -
001071:    7270           54156                           TS       MPAC       +2                         #  ZERO LOW-ORDER WORD
001072:
001073:    7271           22002        TPAGREE            LXCH     Q                                     #  FORCE SIGN AGREEMENT AMONG THE TRIPLE
001074:    7272           06735                           TC       BRANCH                                #  PRECISION CONTENTS OF MPAC.  RETURNING
001075:    7273           17277                           TCF      ARG+                                  #  WITH SIGNUM OF THE INPUT IN A.
001076:    7274           17317                           TCF      ARGZERO
001077:
001078:    7275           44733                           CS       POSMAX                                #  IF NEGATIVE.
001079:    7276           17300                           TCF      +2
001080:
001081:    7277           34733        ARG+               CAF      POSMAX
001082:    7300           54002                           TS       Q
001083:    7301           00006                           EXTEND
001084:    7302           24000                           AUG      A                                     #  FORMS +-1.0.
001085:    7303           60156                           AD       MPAC       +2
001086:    7304           54156                           TS       MPAC       +2
001087:    7305           34755                           CAF      ZERO
001088:    7306           60002                           AD       Q
001089:    7307           60155                           AD       MPAC       +1
001090:    7310           54155                           TS       MPAC       +1
001091:    7311           34755                           CAF      ZERO
001092:    7312           60002                           AD       Q                                     #  Q STILL HAS POSMAX OR NEGMAX IN IT.
001093:    7313           60154                           AD       MPAC
001094:    7314           54154        ARGZERO2           TS       MPAC                                  #  ALWAYS SKIPPING UNLESS ARGZERO.
001095:    7315           54155                           TS       MPAC       +1
001096:    7316           00001                           TC       L                                     #  RETURN VIA L.
001097:
001098:    7317           54156        ARGZERO            TS       MPAC       +2                         #  SET ALL THREE MPAC REGISTERS TO ZERO.
001099:    7320           17314                           TCF      ARGZERO2
001100:
001101:                                                                                                  #           SHORTMP MULTIPLIES THE TP CONTENTS OF MPAC BY THE SINGLE PRECISION NUMBER ARRIVING IN A.
001102:
001103:    7321           54135        SHORTMP            TS       MPTEMP
001104:    7322           00006                           EXTEND
001105:    7323           70156                           MP       MPAC       +2
001106:    7324           54156                           TS       MPAC       +2
001107:    7325           34755        SHORTMP2           CAF      ZERO                                  #  SO SUBSEQUENT DAS WILL WORK.
001108:    7326           56155                           XCH      MPAC       +1
001109:    7327           17140                           TCF      DMPSUB2
001110:


001112:                                                                                                  #         DMPNSUB MULTIPLIES THE DP FRACTION ARRIVING IN MPAC BY THE SP
001113:                                                                                                  #  INTEGER ARRIVING IN A.  THE DP PRODUCT DEPARTS BOTH IN MPAC AND IN
001114:                                                                                                  #  A AND L.  NOTE THAT DMPNSUB NORMALLY INCREASES THE MAGNITUDE OF THE
001115:                                                                                                  #  CONTENTS OF MPAC.  THE CUSTOMER MUST INSURE THAT B(A) X B(MPAC,MPAC+1)
001116:                                                                                                  #  AND B(A) X B(MPAC) ARE LESS THAN 1 IN MAGNITUDE, WHERE B, AS IS OBVIOUS,
001117:                                                                                                  #  INDICATES THE ARRIVING CONTENTS.
001118:
001119:    7330           54135        DMPNSUB            TS       DMPNTEMP
001120:    7331           00006                           EXTEND
001121:    7332           70155                           MP       MPAC       +1
001122:    7333           52155                           DXCH     MPAC                                  #  LOW PRODUCT TO MPAC, HIGH FACTOR TO A
001123:    7334           00006                           EXTEND
001124:    7335           70135                           MP       DMPNTEMP
001125:    7336           30001                           CA       L
001126:    7337           26154                           ADS      MPAC                                  #  COMPLETING THE PRODUCT IN MPAC
001127:    7340           00006                           EXTEND
001128:    7341           30155                           DCA      MPAC                                  #  BRINGING THE PRODUCT INTO A AND L
001129:    7342           00002                           TC       Q
001130:


001132:                                                                                                  #  MISCELLANEOUS VECTOR OPERATIONS. INCLUDED HERE ARE THE FOLLOWING:
001133:
001134:                                                                                                  #           1.  DOT                DP VECTOR DOT PRODUCT.
001135:                                                                                                  #           2.  VXV                DP VECTOR CROSS PRODUCT.
001136:                                                                                                  #           3.  VXSC               DP VECTOR TIMES SCALAR.
001137:                                                                                                  #           4.  V/SC               DP VECTOR DIVIDED BY SCALAR.
001138:                                                                                                  #           5.  VPROJ              DP VECTOR PROJECTION. ( (MPAC.X)MPAC ).
001139:                                                                                                  #           6.  VXM                DP VECTOR POST-MULTIPLIED BY MATRIX.
001140:                                                                                                  #           7.  MXV                DP VECTOR PRE-MULTIPLIED BY MATRIX.
001141:
001142:    7343           07166        DOT                TC       PREDOT                                #  DO THE DOT PRODUCT AND EXIT, CHANGING
001143:    7344           34755        DMODE              CAF      ZERO                                  #  THE MODE TO DP SCALAR.
001144:    7345           16072                           TCF      NEWMODE
001145:
001146:
001147:    7346           34752        MXV                CAF      TWO                                   #  SET UP MATINC AND DOTINC FOR ROW
001148:    7347           54140                           TS       MATINC                                #  VECTORS.
001149:    7350           17354                           TCF      VXM/MXV                               #  GO TO COMMON PORTION.
001150:
001151:    7351           44363        VXM                CS       TEN                                   #  SET MATINC AND DOTINC TO REFER TO MATRIX
001152:    7352           54140                           TS       MATINC                                #  AS THREE COLUMN VECTORS.
001153:    7353           36254                           CAF      SIX
001154:


001156:                                                                                                  #           COMMON PORTION OF MXV AND VXM.
001157:
001158:    7354           54136        VXM/MXV            TS       DOTINC
001159:                                                                                                  #           ITRACE (2) REFERS TO "VXM/MXV".
001160:    7355           07544                           TC       MPACVBUF                              #  SAVE VECTOR IN MPAC FOR FURTHER USE.
001161:
001162:    7356           07170                           TC       DOTSUB                                #  GO DOT TO GET X COMPONENT OF ANSWER.
001163:    7357           00006                           EXTEND
001164:    7360           30123                           DCA      VBUF                                  #  MOVE MPAC VECTOR BACK INTO MPAC, SAVING
001165:    7361           52155                           DXCH     MPAC                                  #  NEW X COMPONENT IN BUF2.
001166:    7362           52134                           DXCH     BUF2
001167:    7363           00006                           EXTEND
001168:    7364           30125                           DCA      VBUF       +2
001169:    7365           52160                           DXCH     MPAC       +3
001170:    7366           00006                           EXTEND
001171:    7367           30127                           DCA      VBUF       +4
001172:    7370           52162                           DXCH     MPAC       +5
001173:    7371           30140                           CA       MATINC                                #  INITIALIZE ADDRWD FOR NEXT DOT PRODUCT.
001174:    7372           26116                           ADS      ADDRWD                                #  FORMS BASE ADDRESS OF NEXT COLUMN(ROW).
001175:
001176:    7373           07170                           TC       DOTSUB
001177:    7374           52123                           DXCH     VBUF                                  #  MOVE GIVEN VECTOR BACK TO MPAC, SAVING Y
001178:    7375           52155                           DXCH     MPAC                                  #  COMPONENT OF ANSWER IN VBUF +2.
001179:    7376           52125                           DXCH     VBUF       +2
001180:    7377           52160                           DXCH     MPAC       +3
001181:    7400           52127                           DXCH     VBUF       +4
001182:    7401           52162                           DXCH     MPAC       +5
001183:    7402           30140                           CA       MATINC                                #  FORM ADDRESS OF LAST COLUMN OR ROW.
001184:    7403           26116                           ADS      ADDRWD
001185:
001186:    7404           07170                           TC       DOTSUB
001187:    7405           52134                           DXCH     BUF2                                  #  ANSWER NOW COMPLETE. PUT COMPONENTS INTO
001188:    7406           52155                           DXCH     MPAC                                  #  PROPER MPAC REGISTERS.
001189:    7407           52162                           DXCH     MPAC       +5
001190:    7410           52125                           DXCH     VBUF       +2
001191:    7411           52160                           DXCH     MPAC       +3
001192:    7412           16073                           TCF      DANZIG                                #  EXIT.
001193:


001195:                                                                                                  #           VXSC - VECTOR TIMES SCALAR.
001196:
001197:    7413           10163        VXSC               CCS      MODE                                  #  TEST PRESENT MODE.
001198:    7414           17442                           TCF      DVXSC                                 #  SEPARATE ROUTINE WHEN SCALAR IS IN MPAC.
001199:    7415           17442                           TCF      DVXSC
001200:
001201:    7416           07121        VVXSC              TC       DMPSUB                                #  COMPUTE X COMPONENT
001202:    7417           07152                           TC       VROUND                                #  AND ROUND IT.
001203:    7420           52160                           DXCH     MPAC       +3                         #  PUT Y COMPONENT INTO MPAC SAVING MPAC IN
001204:    7421           52155                           DXCH     MPAC                                  #  MPAC +3.
001205:    7422           52160                           DXCH     MPAC       +3
001206:
001207:    7423           07121                           TC       DMPSUB                                #  DO SAME FOR Y AND Z COMPONENTS.
001208:    7424           07152                           TC       VROUND
001209:    7425           52162                           DXCH     MPAC       +5
001210:    7426           52155                           DXCH     MPAC
001211:    7427           52162                           DXCH     MPAC       +5
001212:
001213:    7430           07121                           TC       DMPSUB
001214:    7431           07152                           TC       VROUND
001215:    7432           52155        VROTATEX           DXCH     MPAC                                  #  EXIT USED TO RESTORE MPAC AFTER THIS
001216:    7433           52162                           DXCH     MPAC       +5                         #  TYPE OF ROTATION. CALLED BY VECTOR SHIFT
001217:    7434           52160                           DXCH     MPAC       +3                         #  RIGHT, V/SC, ETC.
001218:    7435           52155                           DXCH     MPAC
001219:    7436           16073                           TCF      DANZIG
001220:


001222:                                                                                                  #           DP VECTOR PROJECTION ROUTINE.
001223:
001224:    7437           07166        VPROJ              TC       PREDOT                                #  (MPAC.X)MPAC IS COMPUTED AND LEFT IN
001225:    7440           44751                           CS       FOUR                                  #  MPAC. DO DOT AND FALL INTO DVXSC.
001226:    7441           26116                           ADS      ADDRWD
001227:
001228:                                                                                                  #           VXSC WHEN SCALAR ARRIVES IN MPAC AND VECTOR IS AT X.
001229:
001230:    7442           00006        DVXSC              EXTEND                                         #  SAVE SCALAR IN MPAC +3 AND GET X
001231:    7443           30155                           DCA      MPAC                                  #  COMPONENT OF ANSWER.
001232:    7444           52160                           DXCH     MPAC       +3
001233:    7445           07121                           TC       DMPSUB
001234:    7446           07152                           TC       VROUND
001235:
001236:    7447           34752                           CAF      TWO                                   #  ADVANCE ADDRWD TO Y COMPONENT OF X.
001237:    7450           26116                           ADS      ADDRWD
001238:    7451           00006                           EXTEND
001239:    7452           30160                           DCA      MPAC       +3                         #  PUT SCALAR BACK INTO MPAC AND SAVE
001240:    7453           52155                           DXCH     MPAC                                  #  X RESULT IN MPAC +5.
001241:    7454           52162                           DXCH     MPAC       +5
001242:    7455           07121                           TC       DMPSUB
001243:    7456           07152                           TC       VROUND
001244:
001245:    7457           34752                           CAF      TWO
001246:    7460           26116                           ADS      ADDRWD                                #  TO Z COMPONENT.
001247:    7461           52160                           DXCH     MPAC       +3                         #  BRING SCALAR BACK, PUTTING Y RESULT IN
001248:    7462           52155                           DXCH     MPAC                                  #  THE PROPER PLACE.
001249:    7463           52160                           DXCH     MPAC       +3
001250:    7464           07121                           TC       DMPSUB
001251:    7465           07152                           TC       VROUND
001252:
001253:    7466           52155                           DXCH     MPAC                                  #  PUT Z COMPONENT IN PROPER PLACE, ALSO
001254:    7467           52162                           DXCH     MPAC       +5                         #  POSITIONING X.
001255:    7470           52155                           DXCH     MPAC
001256:
001257:    7471           16533                           TCF      VMODE                                 #  MODE HAS CHANGED TO VECTOR.
001258:


001260:                                                                                                  #           THE VECTOR CROSS PRODUCT ROUTINE CALCULATES (X M -X M ,X M -X M ,X M -X M ) WHERE M IS THE VECTOR IN
001261:                                                                                                  #                                                         3 2  2 3  1 3  3 1  2 1  1 2
001262:                                                                                                  #  MPAC AND X THE VECTOR AT THE GIVEN ADDRESS.
001263:
001264:    7472           00006        VXV                EXTEND
001265:    7473           30162                           DCA      MPAC       +5                         #  FORM UP M3X1, LEAVING M1 IN VBUF.
001266:    7474           52155                           DXCH     MPAC
001267:    7475           52123                           DXCH     VBUF
001268:    7476           07121                           TC       DMPSUB                                #  BY X1.
001269:
001270:    7477           00006                           EXTEND
001271:    7500           40160                           DCS      MPAC       +3                         #  CALCULATE -X1M2, SAVING X1M3 IN VBUF +2.
001272:    7501           52155                           DXCH     MPAC
001273:    7502           52125                           DXCH     VBUF       +2
001274:    7503           07121                           TC       DMPSUB
001275:
001276:    7504           34752                           CAF      TWO                                   #  ADVANCE ADDRWD TO X2.
001277:    7505           26116                           ADS      ADDRWD
001278:    7506           00006                           EXTEND
001279:    7507           40162                           DCS      MPAC       +5                         #  PREPARE TO GET -X2M3, SAVING -X1M2 IN
001280:    7510           52155                           DXCH     MPAC                                  #  MPAC +5.
001281:    7511           52162                           DXCH     MPAC       +5
001282:    7512           07121                           TC       DMPSUB
001283:
001284:    7513           00006                           EXTEND
001285:    7514           30123                           DCA      VBUF                                  #  GET X2M1, SAVING -X2M3 IN VBUF +4.
001286:    7515           52155                           DXCH     MPAC
001287:    7516           52127                           DXCH     VBUF       +4
001288:    7517           07121                           TC       DMPSUB
001289:
001290:    7520           34752                           CAF      TWO                                   #  ADVANCE ADDRWD TO X3.
001291:    7521           26116                           ADS      ADDRWD
001292:    7522           00006                           EXTEND
001293:    7523           40123                           DCS      VBUF                                  #  GET -X3M1, ADDING X2M1 TO MPAC +5 TO
001294:    7524           52155                           DXCH     MPAC                                  #  COMPLETE THE Z COMPONENT OF THE ANSWER.
001295:    7525           20162                           DAS      MPAC       +5
001296:
001297:    7526           00006                           EXTEND
001298:    7527           17531                           BZF      +2
001299:    7530           07023                           TC       OVERFLWZ
001300:
001301:    7531           07121                           TC       DMPSUB
001302:    7532           52125                           DXCH     VBUF       +2                         #  MOVE X1M3 TO MPAC +3 SETTING UP FOR X3M2
001303:    7533           52160                           DXCH     MPAC       +3                         #  AND ADD -X3M1 TO MPAC +3 TO COMPLETE THE
001304:    7534           52155                           DXCH     MPAC                                  #  Y COMPONENT OF THE RESULT.
001305:    7535           20160                           DAS      MPAC       +3
001306:
001307:    7536           00006                           EXTEND
001308:    7537           17541                           BZF      +2


001310:    7540           07026                           TC       OVERFLWY
001311:
001312:    7541           07121                           TC       DMPSUB
001313:    7542           52127                           DXCH     VBUF       +4                         #  GO ADD -X2M3 TO X3M2 TO COMPLETE THE X
001314:    7543           17012                           TCF      ENDVXV                                #  COMPONENT (TAIL END OF DAD).
001315:
001316:                                                                                                  #           THE MPACVBUF SUBROUTINE SAVES THE VECTOR IN MPAC IN VBUF WITHOUT CLOBBERING MPAC.
001317:
001318:    7544           00006        MPACVBUF           EXTEND                                         #  CALLED BY MXV, VXM, AND UNIT.
001319:    7545           30155                           DCA      MPAC
001320:    7546           52123                           DXCH     VBUF
001321:    7547           00006                           EXTEND
001322:    7550           30160                           DCA      MPAC       +3
001323:    7551           52125                           DXCH     VBUF       +2
001324:    7552           00006                           EXTEND
001325:    7553           30162                           DCA      MPAC       +5
001326:    7554           52127                           DXCH     VBUF       +4
001327:    7555           00002                           TC       Q                                     #  RETURN TO CALLER.
001328:
001329:
001330:                                                                                                  #           DOUBLE PRECISION SIGN AGREE ROUTINE. ARRIVE WITH INPUT IN A+L. OUTPUT IS IN A + L.
001331:
001332:    7556           10000        ALSIGNAG           CCS      A                                     #  TEST UPPER PART.
001333:    7557           17563                           TCF      UPPOS                                 #  IT IS POSITIVE
001334:    7560           00002                           TC       Q                                     #  ZERO
001335:    7561           17573                           TCF      UPNEG                                 #  NEGATIVE
001336:    7562           00002                           TC       Q                                     #  ZERO
001337:
001338:    7563           56001        UPPOS              XCH      L                                     #  SAVE DECREMENTED UPPER PART.
001339:    7564           64736                           AD       HALF
001340:    7565           64736                           AD       HALF
001341:    7566           54000                           TS       A                                     #  SKIPS ON OVERFLOW
001342:    7567           17571                           TCF      +2
001343:    7570           24001                           INCR     L                                     #  RESTORE UPPER TO ROIGINAL VALUE
001344:    7571           56001                           XCH      L                                     #  SWAP A + L BACK.
001345:    7572           00002                           TC       Q
001346:
001347:    7573           56001        UPNEG              XCH      L                                     #  SAVE COMPLEMENTED + DECREMENTED UPPER PT
001348:    7574           64735                           AD       NEGMAX
001349:    7575           67761                           AD       NEGONE
001350:    7576           54000                           TS       A
001351:    7577           17601                           TCF      +2                                    #  DONT INCREMENT IF NO OVERFLOW.
001352:    7600           24001                           INCR     L
001353:    7601           56001                           XCH      L
001354:    7602           40000                           COM                                            #  MAKE NEGATIVE AGAIN.
001355:    7603           00002                           TC       Q
001356:


001358:                                                                                                  #           INTERPRETIVE INSTRUCTIONS WHOSE EXECUTION CONSISTS OF PRINCIPALLY CALLING SUBROUTINES.
001359:
001360:    7604           07121        DMP1               TC       DMPSUB                                #  DMP INSTRUCTION.
001361:    7605           16073                           TCF      DANZIG
001362:
001363:    7606           07121        DMPR               TC       DMPSUB
001364:    7607           07151                           TC       ROUNDSUB   +1                         #  (C(A) = +0).
001365:    7610           16073                           TCF      DANZIG
001366:
001367:    7611           00006        DDV                EXTEND
001368:    7612           50116                           INDEX    ADDRWD                                #  MOVE DIVIDEND INTO BUF.
001369:    7613           30001                           DCA      0
001370:    7614           17621                           TCF      BDDV       +4
001371:
001372:    7615           00006        BDDV               EXTEND                                         #  MOVE DIVISOR INTO MPAC SAVING MPAC, THE
001373:    7616           50116                           INDEX    ADDRWD                                #  DIVIDEND, IN BUF.
001374:    7617           30001                           DCA      0
001375:    7620           52155                           DXCH     MPAC
001376:    7621           52131                 +4        DXCH     BUF
001377:    7622           34755                           CAF      ZERO                                  #  DIVIDE ROUTINES IN BANK 0.
001378:    7623           54004                           TS       FBANK
001379:    7624           12353                           TCF      DDV/BDDV
001380:
001381:    7625           30116        SETPD              CA       ADDRWD                                #  MUST SET TO WORK AREA, OR EBANK TROUBLE.
001382:    7626           54166                           TS       PUSHLOC
001383:    7627           16075                           TCF      NOIBNKSW                              #  NO FBANK SWITCH REQUIRED.
001384:
001385:    7630           34755        TSLC               CAF      ZERO                                  #  SHIFTING ROUTINES LOCATED IN BANK 00.
001386:    7631           54004                           TS       FBANK
001387:    7632           12172                           TCF      TSLC2
001388:
001389:    7633           36106        GSHIFT             CAF      LOW7                                  #  USED AS MASK AT GENSHIFT. THIS PROCESSES
001390:    7634           54004                           TS       FBANK                                 #  ANY SHIFT INSTRUCTION (EXCEPT TSLC) WITH
001391:    7635           12214                           TCF      GENSHIFT                              #  AN ADDRESS (ROUTINES IN BANK 0).
001392:


001394:                                                                                                  #           THE FOLLOWING IS THE PROLOGUE TO V/SC. IF THE PRESENT MODE IS VECTOR, IT SAVES THE SCALAR AT X IN BUF
001395:                                                                                                  #  AND CALLS THE V/SC ROUTINE IN BANK 0. IF THE PRESENT MODE IS SCALAR, IT MOVES THE VECTOR AT X INTO MPAC, SAVING
001396:                                                                                                  #  THE SCALAR IN MPAC IN BUF BEFORE CALLING THE V/SC ROUTINE IN BANK 0.
001397:
001398:    7636           10163        V/SC               CCS      MODE
001399:    7637           17650                           TCF      DV/SC                                 #  MOVE VECTOR INTO MPAC.
001400:    7640           17650                           TCF      DV/SC
001401:
001402:    7641           00006        VV/SC              EXTEND
001403:    7642           50116                           INDEX    ADDRWD
001404:    7643           30001                           DCA      0
001405:    7644           52131        V/SC1              DXCH     BUF                                   #  IN BOTH CASES, VECTOR IS NOW IN MPAC AND
001406:    7645           34755                           CAF      ZERO                                  #  SCALAR IN BUF.
001407:    7646           54004                           TS       FBANK
001408:    7647           12654                           TCF      V/SC2
001409:
001410:    7650           00006        DV/SC              EXTEND
001411:    7651           50116                           INDEX    ADDRWD
001412:    7652           30003                           DCA      2
001413:    7653           52160                           DXCH     MPAC       +3
001414:    7654           00006                           EXTEND
001415:    7655           50116                           INDEX    ADDRWD
001416:    7656           30005                           DCA      4
001417:    7657           52162                           DXCH     MPAC       +5
001418:
001419:    7660           44753                           CS       ONE                                   #  CHANGE MODE TO VECTOR.
001420:    7661           54163                           TS       MODE
001421:
001422:    7662           00006                           EXTEND
001423:    7663           50116                           INDEX    ADDRWD
001424:    7664           30001                           DCA      0
001425:    7665           52155                           DXCH     MPAC
001426:    7666           17644                           TCF      V/SC1                                 #  FINISH PROLOGUE AT COMMON SECTION.
001427:


001429:                                                                                                  #           SIGN AND COMPLEMENT INSTRUCTIONS.
001430:
001431:    7667           50116        SIGN               INDEX    ADDRWD                                #  CALL COMP INSTRUCTION IF WORD AT X IS
001432:    7670           10000                           CCS      0                                     #  NEGATIVE NON-ZERO.
001433:    7671           16073                           TCF      DANZIG
001434:    7672           17674                           TCF      +2
001435:    7673           17702                           TCF      COMP                                  #  DO THE COMPLEMENT.
001436:
001437:    7674           50116                           INDEX    ADDRWD
001438:    7675           10001        CCSL               CCS      1
001439:    7676           16073                           TCF      DANZIG
001440:    7677           16073                           TCF      DANZIG
001441:    7700           17702                           TCF      COMP
001442:    7701           16073                           TCF      DANZIG
001443:    7702           00006        COMP               EXTEND                                         #  COMPLEMENT DP MPAC IN EVERY CASE.
001444:    7703           40155                           DCS      MPAC
001445:    7704           52155                           DXCH     MPAC
001446:
001447:    7705           10163                           CCS      MODE                                  #  EITHER COMPLEMENT MPAC +3 OR THE REST OF
001448:    7706           17717                           TCF      DCOMP                                 #  THE VECTOR ACCUMULATOR.
001449:    7707           17717                           TCF      DCOMP
001450:
001451:    7710           00006                           EXTEND                                         #  VECTOR COMPLEMENT.
001452:    7711           40160                           DCS      MPAC       +3
001453:    7712           52160                           DXCH     MPAC       +3
001454:    7713           00006                           EXTEND
001455:    7714           40162                           DCS      MPAC       +5
001456:    7715           52162                           DXCH     MPAC       +5
001457:    7716           16073                           TCF      DANZIG
001458:
001459:    7717           40156        DCOMP              CS       MPAC       +2
001460:    7720           54156                           TS       MPAC       +2
001461:    7721           16073                           TCF      DANZIG
001462:


001464:                                                                                                  #           THE FOLLOWING SHORT SHIFT CODES REQUIRE NO ADDRESS WORD:
001465:
001466:                                                                                                  #           1.  SR1 TO SR4         SCALAR SHIFT RIGHT.
001467:                                                                                                  #           2.  SR1R TO SR4R       SCALAR SHIFT RIGHT AND ROUND.
001468:                                                                                                  #           3.  SL1 TO SL4         SCALAR SHIFT LEFT.
001469:                                                                                                  #           4.  SL1R TO SL4R       SCALAR SHIFT LEFT AND ROUND.
001470:
001471:                                                                                                  #           5.  VSR1 TO VSR8       VECTOR SHIFT RIGHT (ALWAYS ROUNDS).
001472:                                                                                                  #           6.  VSL1 TO VSL8       VECTOR SHIFT LEFT (NEVER ROUNDS).
001473:
001474:                                                                                                  #           THE FOLLOWING CODES REQUIRE AN ADDRESS WHICH MAY BE INDEXED:*
001475:
001476:                                                                                                  #           1.  SR                 SCALAR SHIFT RIGHT.
001477:                                                                                                  #           2.  SRR                SCALAR SHIFT RIGHT AND ROUND.
001478:                                                                                                  #           3.  SL                 SCALAR SHIFT LEFT.
001479:                                                                                                  #           4.  SLR                SCALAR SHIFT LEFT AND ROUND.
001480:
001481:                                                                                                  #           5.  VSR                VECTOR SHIFT RIGHT.
001482:                                                                                                  #           6.  VSL                VECTOR SHIFT LEFT.
001483:
001484:                                                                                                  #  *  IF THE ADDRESS IS INDEXED, AND THE INDEX MODIFICATION RESULTS IN A NEGATIVE SHIFT COUNT, A SHIFT OF THE
001485:                                                                                                  #  ABSOLUTE VALUE OF THE COUNT IS DONE IN THE OPPOSITE DIRECTION.
001486:
001487:
001488: 00,2017                                           BANK     00
001489:
001490: 00,2017                                           COUNT*   $$/INTER
001491: 00,2017           36254        SHORTT             CAF      SIX                                   #  SCALAR SHORT SHIFTS COME HERE. THE SHIFT
001492: 00,2020           70020                           MASK     CYR                                   #  COUNT-1 IS NOW IN BITS 2-3 OF CYR. THE
001493: 00,2021           54021                           TS       SR                                    #  ROUNDING BIT IS IN BIT1 AT THIS POINT.
001494:
001495: 00,2022           10020                           CCS      CYR                                   #  SEE IF RIGHT OR LEFT SHIFT DESIRED.
001496: 00,2023           12101                           TCF      TSSL                                  #  SHIFT LEFT.
001497:
001498: 00,2024           00024        SRDDV              DEC      20         B-14                       #  MPTEMP SETTING FOR SR BEFORE DDV.
001499:
001500: 00,2025           50021        TSSR               INDEX    SR                                    #  GET SHIFTING BIT.
001501: 00,2026           34736                           CAF      BIT14
001502: 00,2027           54135                           TS       MPTEMP
001503:
001504: 00,2030           10020                           CCS      CYR                                   #  SEE IF A ROUND IS DESIRED.
001505: 00,2031           02050        RIGHTR             TC       MPACSRND                              #  YES - SHIFT RIGHT AND ROUND.
001506: 00,2032           16072                           TCF      NEWMODE                               #  SET MODE TO DP (C(A) = 0).
001507: 00,2033           30135        MPACSHR            CA       MPTEMP                                #  DO A TRIPLE PRECISION SHIFT RIGHT.
001508: 00,2034           00006                           EXTEND
001509: 00,2035           70156                           MP       MPAC       +2
001510: 00,2036           54156                 +3        TS       MPAC       +2                         #  (EXIT FROM SQRT AND ABVAL).
001511: 00,2037           30135                           CA       MPTEMP
001512: 00,2040           00006                           EXTEND
001513: 00,2041           70154                           MP       MPAC                                  #  SHIFT MAJOR PART INTO A,L AND PLACE IN


001515: 00,2042           52155                           DXCH     MPAC                                  #  MPAC,+1.
001516: 00,2043           30135                           CA       MPTEMP
001517: 00,2044           00006                           EXTEND
001518: 00,2045           70001                           MP       L                                     #  ORIGINAL C(MPAC +1).
001519: 00,2046           20156                           DAS      MPAC       +1                         #  GUARANTEED NO OVERFLOW.
001520: 00,2047           16073                           TCF      DANZIG
001521:
001522:                                                                                                  #           MPAC SHIFT RIGHT AND ROUND SUBROUTINES.
001523:
001524: 00,2050           30156        MPACSRND           CA       MPAC       +2                         #  WE HAVE TO DO ALL THREE MULTIPLIES SINCE
001525: 00,2051           00006                           EXTEND                                         #  MPAC +1 AND MPAC +2 MIGHT HAVE SIGN
001526: 00,2052           70135                           MP       MPTEMP                                #  DISAGREEMENT WITH A SHIFT RIGHT OF 1.
001527: 00,2053           56155                           XCH      MPAC       +1
001528: 00,2054           00006                           EXTEND
001529: 00,2055           70135                           MP       MPTEMP
001530: 00,2056           56155                           XCH      MPAC       +1                         #  TRIAL MINOR PART.
001531: 00,2057           60001                           AD       L
001532:
001533: 00,2060           60000        VSHR2              DOUBLE                                         #  (FINISH VECTOR COMPONENT SHIFT RIGHT
001534: 00,2061           54156                           TS       MPAC       +2                         #  AND ROUND.
001535: 00,2062           12064                           TCF      +2
001536: 00,2063           26155                           ADS      MPAC       +1                         #  GUARANTEED NO OVERFLOW.
001537:
001538: 00,2064           34755                           CAF      ZERO
001539: 00,2065           54156                           TS       MPAC       +2
001540: 00,2066           56154                           XCH      MPAC                                  #  SETTING TO ZERO SO FOLLOWING DAS WORKS.
001541: 00,2067           00006                           EXTEND
001542: 00,2070           70135                           MP       MPTEMP
001543: 00,2071           20155                           DAS      MPAC                                  #  AGAIN NO OVERFLOW.
001544: 00,2072           00002                           TC       Q
001545:
001546: 00,2073           30135        VSHRRND            CA       MPTEMP                                #  ENTRY TO SHIFT RIGHT AND ROUND MPAC WHEN
001547: 00,2074           00006                           EXTEND                                         #  MPAC CONTAINS A VECTOR COMPONENT.
001548: 00,2075           70155                           MP       MPAC       +1
001549: 00,2076           54155                           TS       MPAC       +1
001550: 00,2077           56001                           XCH      L
001551: 00,2100           12060                           TCF      VSHR2                                 #  GO ADD ONE IF NECESSARY AND FINISH.
001552:


001554:                                                                                                  #           ROUTINE FOR SHORT SCALAR SHIFT LEFT (AND MAYBE ROUND).
001555:
001556: 00,2101           30021        TSSL               CA       SR                                    #  GET SHIFT COUNT FOR SR.
001557: 00,2102           54135                 +1        TS       MPTEMP
001558:
001559: 00,2103           00006                 +2        EXTEND                                         #  ENTRY HERE FROM SL FOR SCALARS.
001560: 00,2104           30156                           DCA      MPAC       +1                         #  SHIFTING LEFT ONE PLACE AT A TIME IS
001561: 00,2105           20156                           DAS      MPAC       +1                         #  FASTER THAN DOING THE WHOLE SHIFT WITH
001562: 00,2106           60154                           AD       MPAC                                  #  MULTIPLIES ASSUMING THAT FREQUENCY OF
001563: 00,2107           60154                           AD       MPAC                                  #  SHIFT COUNTS GOES DOWN RAPIDLY AS A
001564: 00,2110           54154                           TS       MPAC                                  #  FUNCTION OF THEIR MAGNITUDE.
001565: 00,2111           12113                           TCF      +2
001566: 00,2112           54121                           TS       OVFIND                                #  OVERFLOW. (LEAVES OVERFLOW-CORRECTED
001567:                                                                                                  #  RESULT ANYWAY).
001568: 00,2113           10135                           CCS      MPTEMP                                #  LOOP ON DECREMENTED SHIFT COUNT.
001569: 00,2114           12102                           TCF      TSSL       +1
001570:
001571: 00,2115           10020                           CCS      CYR                                   #  SEE IF ROUND WANTED.
001572: 00,2116           07150        ROUND              TC       ROUNDSUB                              #  YES - ROUND AND EXIT.
001573: 00,2117           16073                           TCF      DANZIG                                #  SL LEAVES A ZERO IN CYR FOR NO ROUND.
001574: 00,2120           16073                           TCF      DANZIG                                #  NO - EXIT IMMEDIATL
001575:


001577:                                                                                                  #  VECTOR SHIFTING ROUTINES.
001578:
001579: 00,2121           34757        SHORTV             CAF      LOW3                                  #  SAVE 3 BIT SHIFT COUNT - 1 WITHOUT
001580: 00,2122           70020                           MASK     CYR                                   #  EDITING CYR.
001581: 00,2123           54135                           TS       MPTEMP
001582: 00,2124           10020                           CCS      CYR                                   #  SEE IF LEFT OR RIGHT SHIFT.
001583: 00,2125           12145                           TCF      VSSL                                  #  VECTOR SHIFT LEFT.
001584: 00,2126           00176        OCT176             OCT      176                                   #  USED IN PROCESSED SHIFTS WITH - COUNT.
001585:
001586: 00,2127           50135        VSSR               INDEX    MPTEMP                                #  (ENTRY FROM SR). PICK UP SHIFTING BIT.
001587: 00,2130           34736                           CAF      BIT14                                 #  MPTEMP CONTAINS THE SHIFT COUNT - 1.
001588: 00,2131           54135                           TS       MPTEMP
001589: 00,2132           02073                           TC       VSHRRND                               #  SHIFT X COMPONENT.
001590:
001591: 00,2133           52155                           DXCH     MPAC                                  #  SWAP X AND Y COMPONENTS.
001592: 00,2134           52160                           DXCH     MPAC       +3
001593: 00,2135           52155                           DXCH     MPAC
001594: 00,2136           02073                           TC       VSHRRND                               #  SHIFT Y COMPONENT.
001595:
001596: 00,2137           52155                           DXCH     MPAC                                  #  SWAP Y AND Z COMPONENTS.
001597: 00,2140           52162                           DXCH     MPAC       +5
001598: 00,2141           52155                           DXCH     MPAC
001599: 00,2142           02073                           TC       VSHRRND                               #  SHIFT Z COMPONENT.
001600:
001601: 00,2143           17432                           TCF      VROTATEX                              #  RESTORE COMPONENTS TO PROPER PLACES.
001602:


001604:                                                                                                  #  VECTOR SHIFT LEFT - DONE ONE PLACE AT A TIME.
001605:
001606: 00,2144           54135                 -1        TS       MPTEMP                                #  SHIFTING LOOP.
001607:
001608: 00,2145           00006        VSSL               EXTEND
001609: 00,2146           30155                           DCA      MPAC
001610: 00,2147           20155                           DAS      MPAC
001611: 00,2150           00006                           EXTEND
001612: 00,2151           12153                           BZF      +2
001613: 00,2152           07031                           TC       OVERFLOW
001614:
001615: 00,2153           00006                           EXTEND
001616: 00,2154           30160                           DCA      MPAC       +3
001617: 00,2155           20160                           DAS      MPAC       +3
001618: 00,2156           00006                           EXTEND
001619: 00,2157           12161                           BZF      +2
001620: 00,2160           07026                           TC       OVERFLWY
001621:
001622: 00,2161           00006                           EXTEND
001623: 00,2162           30162                           DCA      MPAC       +5
001624: 00,2163           20162                           DAS      MPAC       +5
001625: 00,2164           00006                           EXTEND
001626: 00,2165           12167                           BZF      +2
001627: 00,2166           07023                           TC       OVERFLWZ
001628:
001629: 00,2167           10135                           CCS      MPTEMP                                #  LOOP ON DECREMENTED SHIFT COUNTER.
001630: 00,2170           12144                           TCF      VSSL       -1
001631: 00,2171           16073                           TCF      DANZIG                                #  EXIT.
001632:


001634:                                                                                                  #           TSLC - TRIPLE SHIFT LEFT AND COUNT. SHIFTS MPAC LEFT UNTIL GREATER THAN .5 IN MAGNITUDE, LEAVING
001635:                                                                                                  #  THE COMPLEMENT OF THE NUMBER OF SHIFTS REQUIRED IN X.
001636:
001637: 00,2172           54135        TSLC2              TS       MPTEMP                                #  START BY ZEROING SHIFT COUNT (IN A NOW).
001638: 00,2173           06735                           TC       BRANCH                                #  EXIT WITH NO SHIFTING IF ARGUMENT ZERO.
001639: 00,2174           12176                           TCF      +2
001640: 00,2175           12212                           TCF      ENDTSLC                               #  STORES ZERO SHIFT COUNT IN THIS CASE.
001641:
001642: 00,2176           07271                           TC       TPAGREE                               #  MAY CAUSE UPSHIFT OF ONE EXTRA PLACE.
001643:
001644: 00,2177           30154                           CA       MPAC                                  #  BEGIN NORMALIZATION LOOP.
001645: 00,2200           12207                           TCF      TSLCTEST
001646:
001647: 00,2201           24135        TSLCLOOP           INCR     MPTEMP                                #  INCREMENT SHIFT COUNTER.
001648: 00,2202           00006                           EXTEND
001649: 00,2203           30156                           DCA      MPAC       +1
001650: 00,2204           20156                           DAS      MPAC       +1
001651: 00,2205           60154                           AD       MPAC
001652: 00,2206           26154                           ADS      MPAC
001653: 00,2207           60000        TSLCTEST           DOUBLE                                         #  SEE IF (ANOTHER) SHIFT IS REQUIRED.
001654: 00,2210           54000                           OVSK
001655: 00,2211           12201                           TCF      TSLCLOOP                              #  YES - INCREMENT COUNT AND SHIFT AGAIN.
001656:
001657: 00,2212           40135        ENDTSLC            CS       MPTEMP
001658: 00,2213           16635                           TCF      STORE1                                #  STORE SHIFT COUNT AND RETURN TO DANZIG.
001659:


001661:                                                                                                  #           THE FOLLOWING ROUTINES PROCESSES THE GENERAL SHIFT INSTRUCTIONS SR, SRR, SL, AND SLR.
001662:                                                                                                  #  THE GIVEN ADDRESS IS DECODED AS FOLLOWS:
001663:
001664:                                                                                                  #           BITS 1-7    SHIFT COUNT (SUBADDRESS) LESS THAN 125 DECIMAL.
001665:                                                                                                  #           BIT 8       PSEUDO SIGN BIT (DETECTS CHANGE IN SIGN IN INDEXED SHIFTS).
001666:                                                                                                  #           BIT 9       0 FOR LEFT SHIFT, AND 1 FOR RIGHT SHIFT.
001667:                                                                                                  #           BIT 10      1 FOR TERMINAL ROUND ON SCALAR SHIFTS, 0 OTHERWISE.
001668:                                                                                                  #           BITS 11-13  0.
001669:                                                                                                  #           BIT 14      1.
001670:                                                                                                  #           BIT 15      0.
001671:
001672:                                                                                                  #  THE ABOVE ENCODING IS DONE BY THE YUL SYSTEM.
001673:
001674:
001675: 00,2214           70116        GENSHIFT           MASK     ADDRWD                                #  GET SHIFT COUNT, TESTING FOR ZERO.
001676: 00,2215           10000                           CCS      A                                     #  (ARRIVES WITH C(A) = LOW7).
001677: 00,2216           12224                           TCF      GENSHFT2                              #  IF NON-ZERO, PROCEED WITH DECREMENTED CT
001678:
001679: 00,2217           34742                           CAF      BIT10                                 #  ZERO SHIFT COUNT. NO SHIFTS NEEDED BUT
001680: 00,2220           70116                           MASK     ADDRWD                                #  WE MIGHT HAVE TO ROUND MPAC ON SLR AND
001681: 00,2221           10000                           CCS      A                                     #  SRR (SCALAR ONLY).
001682: 00,2222           07150                           TC       ROUNDSUB
001683: 00,2223           16073                           TCF      DANZIG
001684:
001685: 00,2224           54135        GENSHFT2           TS       MPTEMP                                #  DECREMENTED SHIFT COUNT TO MPTEMP.
001686: 00,2225           34744                           CAF      BIT8                                  #  TEST MEANING OF LOW SEVEN BIT COUNT IN
001687: 00,2226           00006                           EXTEND                                         #  MPTEMP NOW.
001688: 00,2227           70116                           MP       ADDRWD
001689: 00,2230           76257                           MASK     LOW2                                  #  JUMPS ON SHIFT DIRECTION (BIT8) AND
001690: 00,2231           50000                           INDEX    A
001691: 00,2232           12233                           TCF      +1                                    #  ORIGINAL SHIFT DIRECTION (BIT 9).
001692: 00,2233           12332                           TCF      RIGHT-                                #  NEGATIVE SHIFT COUNT FOR SL OR SLR.
001693: 00,2234           12342                           TCF      LEFT                                  #  SL OR SLR.
001694: 00,2235           12336                           TCF      LEFT-                                 #  NEGATIVE SHIFT COUNT WITH SR OR SRR.
001695:


001697:                                                                                                  #           GENERAL SHIFT RIGHT.
001698:
001699: 00,2236           10163        RIGHT              CCS      MODE                                  #  SEE IF VECTOR OR SCALAR.
001700: 00,2237           12277                           TCF      GENSCR
001701: 00,2240           12277                           TCF      GENSCR
001702:
001703: 00,2241           30135                           CA       MPTEMP                                #  SEE IF SHIFT COUNT LESS THAN 14D.
001704: 00,2242           63733        VRIGHT2            AD       NEG12
001705: 00,2243           00006                           EXTEND
001706: 00,2244           62127                           BZMF     VSSR                                  #  IF SO, BRANCH AND SHIFT IMMEDIATELY.
001707:
001708: 00,2245           67761                           AD       NEGONE                                #  IF NOT, REDUCE MPTEMP BY A TOTAL OF 14,
001709: 00,2246           54135                           TS       MPTEMP                                #  AND DO A SHIFT RIGHT AND ROUND BY 14.
001710: 00,2247           34755                           CAF      ZERO                                  #  THE ROUND AT THIS STAGE MAY INTRODUCE A
001711: 00,2250           54001                           TS       L                                     #  ONE BIT ERROR IN A SHIFT RIGHT 15D.
001712: 00,2251           56154                           XCH      MPAC
001713: 00,2252           56155                           XCH      MPAC       +1
001714: 00,2253           02272                           TC       SETROUND                              #  X COMPONENT NOW SHIFTED, SO MAKE UP THE
001715: 00,2254           20155                           DAS      MPAC                                  #  ROUNDING QUANTITY (0 IN A AND 0 OR +-1
001716:                                                                                                  #  IN L).
001717: 00,2255           56157                           XCH      MPAC       +3                         #  REPEAT THE ABOVE PROCESS FOR Y AND Z.
001718: 00,2256           56160                           XCH      MPAC       +4
001719: 00,2257           02272                           TC       SETROUND
001720: 00,2260           20160                           DAS      MPAC       +3                         #  NO OVERFLOW ON THESE ADDS.
001721:
001722: 00,2261           56161                           XCH      MPAC       +5
001723: 00,2262           56162                           XCH      MPAC       +6
001724: 00,2263           02272                           TC       SETROUND
001725: 00,2264           20162                           DAS      MPAC       +5
001726:
001727: 00,2265           10135                           CCS      MPTEMP                                #  SEE IF DONE, DOING FINAL DECREMENT.
001728: 00,2266           54135                           TS       MPTEMP
001729: 00,2267           12242                           TCF      VRIGHT2
001730: 00,2270           04604        BIASLO             DEC      .2974      B-1                        #  SQRT CONSTANT
001731:
001732: 00,2271           16073                           TCF      DANZIG
001733:
001734: 00,2272           60000        SETROUND           DOUBLE                                         #  MAKES UP ROUNDING QUANTITY FROM ARRIVING
001735: 00,2273           54156                           TS       MPAC       +2                         #  C(A). L IS ZERO INITIALLY.
001736: 00,2274           34755                           CAF      ZERO
001737: 00,2275           56001                           XCH      L
001738: 00,2276           00002                           TC       Q                                     #  RETURN AND DO THE DAS, RESETTING L TO 0.
001739:


001741:                                                                                                  #           PROCESS SR AND SRR FOR SCALARS.
001742:
001743: 00,2277           30135        GENSCR             CA       MPTEMP                                #  SEE IF THE ORIGINAL SHIFT COUNT WAS LESS
001744: 00,2300           63733                 +1        AD       NEG12                                 #  THAN 14D.
001745: 00,2301           00006                           EXTEND
001746: 00,2302           62322                           BZMF     DOSSHFT                               #  DO THE SHIFT IMMEDIATELY IF SO.
001747:
001748: 00,2303           67761                 +4        AD       NEGONE                                #  IF NOT, DECREMENT SHIFT COUNT BY 14D AND
001749: 00,2304           54135                           TS       MPTEMP                                #  SHIFT MPAC RIGHT 14 PLACES.
001750: 00,2305           34755                           CAF      ZERO
001751: 00,2306           56154                           XCH      MPAC
001752: 00,2307           56155                           XCH      MPAC       +1
001753: 00,2310           54156                           TS       MPAC       +2
001754: 00,2311           10135                           CCS      MPTEMP                                #  SEE IF FINISHED, DO FINAL DECREMENT.
001755: 00,2312           54135                           TS       MPTEMP
001756: 00,2313           02300                           TC       GENSCR     +1
001757: 00,2314           22650        SLOPEHI            DEC      .5884                                 #  SQRT CONSTANT.
001758: 00,2315           34742                           CAF      BIT10                                 #  FINISHED WITH SHIFT. SEE IF ROUND
001759: 00,2316           70116                           MASK     ADDRWD                                #  WANTED.
001760: 00,2317           10000                           CCS      A
001761: 00,2320           07150                           TC       ROUNDSUB
001762: 00,2321           16073                           TCF      DANZIG                                #  DO SO AND/OR EXIT.
001763:
001764: 00,2322           50135        DOSSHFT            INDEX    MPTEMP                                #  PICK UP SHIFTING BIT.
001765: 00,2323           34736                           CAF      BIT14
001766: 00,2324           54135                           TS       MPTEMP
001767: 00,2325           34742                           CAF      BIT10                                 #  SEE IF TERMINAL ROUND DESIRED.
001768: 00,2326           70116                           MASK     ADDRWD
001769: 00,2327           10000                           CCS      A
001770: 00,2330           12031                           TCF      RIGHTR                                #  YES.
001771: 00,2331           12033                           TCF      MPACSHR                               #  JUST SHIFT RIGHT.
001772:


001774:                                                                                                  #           PROCESS THE RIGHT- (SL(R) WITH A NEGATIVE COUNT), LEFT-, AND LEFT OPTIONS.
001775:
001776: 00,2332           40135        RIGHT-             CS       MPTEMP                                #  GET ABSOLUTE VALUE - 1 OF SHIFT COUNT
001777: 00,2333           62126                           AD       OCT176                                #  UNDERSTANDING THAT BIT8 (PSEUDO-SIGN)
001778: 00,2334           54135                           TS       MPTEMP                                #  WAS 1 INITIALLY.
001779: 00,2335           12236                           TCF      RIGHT                                 #  DO NORMAL SHIFT RIGHT.
001780:
001781: 00,2336           42126        LEFT-              CS       OCT176                                #  SAME PROLOGUE TO LEFT FOR INDEXED RIGHT
001782: 00,2337           60135                           AD       MPTEMP                                #  SHIFTS WHOSE NET SHIFT COUNT IS NEGATIVE
001783: 00,2340           40000                           COM
001784: 00,2341           54135                           TS       MPTEMP
001785:
001786: 00,2342           10163        LEFT               CCS      MODE                                  #  SINCE LEFT SHIFTING IS SONE ONE PLACE AT
001787: 00,2343           12346                           TCF      GENSCL                                #  A TIME, NO COMPARISON WITH 14 NEED BE
001788: 00,2344           12346                           TCF      GENSCL                                #  DONE. FOR SCALARS, SEE IF TERMINAL ROUND
001789: 00,2345           12145                           TCF      VSSL                                  #  DESIRED. FOR VECTORS, SHIFT IMMEDIATELY.
001790:
001791: 00,2346           40116        GENSCL             CS       ADDRWD                                #  PUT ROUNDING BIT (BIT 10 OF ADDRWD)INTO
001792: 00,2347           00006                           EXTEND                                         #  BIT 15 OF CYR WHERE THE ROUNDING BIT OF
001793: 00,2350           74746                           MP       BIT6                                  #  A SHORT SHIFT LEFT WOULD BE
001794: 00,2351           54020                           TS       CYR
001795: 00,2352           12103                           TCF      TSSL       +2                         #  DO THE SHIFT.
001796:


001798:                                                                                                  #           SCALAR DIVISION INSTRUCTIONS, DDV AND BDDV, ARE EXECUTED HERE. AT THIS POINT, THE DIVIDEND IS IN MPAC
001799:                                                                                                  #  AND THE DIVISOR IN BUF.
001800:
001801: 00,2353           44753        DDV/BDDV           CS       ONE                                   #  INITIALIZATION.
001802: 00,2354           54136                           TS       DVSIGN                                #  +-1 FOR POSITIVE QUOTIENT - -0 FOR NEG.
001803: 00,2355           54137                           TS       DVNORMCT                              #  DIVIDEND NORMALIZATION COUNT.
001804: 00,2356           54140                           TS       MAXDVSW                               #  NEAR-ONE DIVIDE FLAG.
001805:
001806: 00,2357           10130                           CCS      BUF                                   #  FORCE BUF POSITIVE WITH THE MAJOR PART
001807: 00,2360           12516                           TCF      BUFPOS                                #  NON-ZERO.
001808: 00,2361           12363                           TCF      +2
001809: 00,2362           12531                           TCF      BUFNEG
001810:
001811: 00,2363           54156        BUFZERO            TS       MPAC       +2                         #  ZERO THIS.
001812: 00,2364           07271                           TC       TPAGREE                               #  FORCE SIGN AGREEMENT BEFORE OVERFLOW
001813:
001814: 00,2365           10154                           CCS      MPAC                                  #  TEST TO SEE IF MPAC NON-ZERO.  (TOO BIG)
001815: 00,2366           12414                           TCF      OVF+                                  #  MAJOR PART OF DIVIDEND IS POSITIVE NON-0
001816: 00,2367           12371                           TCF      +2
001817: 00,2370           12413                           TCF      OVF+       -1                         #  MAJOR PART OF DIVIDEND IS NEG. NON-ZERO
001818:
001819: 00,2371           56131                           XCH      BUF        +1                         #  SHIFT DIVIDEND AND DIVISOR LEFT 14.
001820: 00,2372           56130                           XCH      BUF
001821: 00,2373           56155                           XCH      MPAC       +1
001822: 00,2374           56154                           XCH      MPAC
001823: 00,2375           10130                           CCS      BUF                                   #  TRY AGAIN ON FORMER MINOR PART.
001824: 00,2376           12422                           TCF      BUF+
001825: 00,2377           12401                           TCF      +2                                    #  OVERFLOW ON ZERO DIVISOR.
001826: 00,2400           12416                           TCF      BUF-
001827:
001828: 00,2401           40154                           CS       MPAC                                  #  SIGN OF MPAC DETERMINES SIGN OF RESULT.
001829: 00,2402           00006        SGNDVOVF           EXTEND
001830: 00,2403           62405                           BZMF     +2
001831: 00,2404           24136                           INCR     DVSIGN                                #  NEGMAX IN MPAC PERHAPS.
001832: 00,2405           34733        DVOVF              CAF      POSMAX                                #  ON DIVISION OVERFLOW OF ANY SORT, SET
001833: 00,2406           54154                           TS       MPAC                                  #  SET DP MPAC TO +-POSMAX.
001834: 00,2407           02630                           TC       FINALDV    +3
001835: 00,2410           34753                           CAF      ONE                                   #  SET OVERFLOW INDICATOR AND EXIT.
001836: 00,2411           54121                           TS       OVFIND
001837: 00,2412           06073                           TC       DANZIG
001838:
001839: 00,2413           24136                 -1        INCR     DVSIGN
001840: 00,2414           40131        OVF+               CS       BUF        +1                         #  LOAD LOWER ORDER PART OF DIVISOR.
001841: 00,2415           12402                           TCF      SGNDVOVF                              #  GET SIGN OF RESULT.
001842:
001843: 00,2416           00006        BUF-               EXTEND                                         #  IF BUF IS NEGATIVE, COMPLEMENT IT AND
001844: 00,2417           40131                           DCS      BUF                                   #  MAINTAIN DVSIGN FOR FINAL QUOTIENT SIGN.
001845: 00,2420           52131                           DXCH     BUF
001846: 00,2421           24136                           INCR     DVSIGN                                #  NOW -0.
001847:


001849: 00,2422           10154        BUF+               CCS      MPAC                                  #  FORCE MPAC POSITIVE, CHECKING FOR ZERO
001850: 00,2423           12437                           TCF      MPAC+                                 #  DIVIDEND IN THE PROCESS.
001851: 00,2424           12426                           TCF      +2
001852: 00,2425           12433                           TCF      MPAC-
001853: 00,2426           10155                           CCS      MPAC       +1
001854: 00,2427           12437                           TCF      MPAC+
001855: 00,2430           16073                           TCF      DANZIG                                #  EXIT IMMEDIATELY ON ZERO DIVIDEND.
001856: 00,2431           12433                           TCF      MPAC-
001857: 00,2432           16073                           TCF      DANZIG
001858:
001859: 00,2433           00006        MPAC-              EXTEND                                         #  FORCE MPAC POSITIVE AS BUF IN BUF-.
001860: 00,2434           40155                           DCS      MPAC
001861: 00,2435           52155                           DXCH     MPAC
001862: 00,2436           24136                           INCR     DVSIGN                                #  NOW +1 OR -0.
001863:


001865: 00,2437           40154        MPAC+              CS       MPAC                                  #  CHECK FOR DIVISION OVERFLOW. IF THE
001866: 00,2440           67761                           AD       NEGONE                                #  MAJOR PART OF THE DIVIDEND IS LESS THAN
001867: 00,2441           60130                           AD       BUF                                   #  THE MAJOR PART OF THE DIVISOR BY AT
001868: 00,2442           10000                           CCS      A                                     #  LEAST TWO, WE CAN PROCEED IMMEDIATELY
001869: 00,2443           12505                           TCF      DVNORM                                #  WITHOUT NORMALIZATION PRODUCING A DVMAX.
001870: 00,2444           60001        -1/2+2             OCT      60001                                 #  USED IN SQRTSUB.
001871:
001872: 00,2445           12446                           TCF      +1                                    #  IF THE ABOVE DOES NOT HOLD, FORCE SIGN
001873: 00,2446           34736                           CAF      HALF                                  #  AGREEMENT IN NUMERATOR AND DENOMINATOR
001874: 00,2447           60000                           DOUBLE                                         #  TO FACILITATE OVERFLOW AND NEAR-ONE
001875: 00,2450           60155                           AD       MPAC       +1                         #  CHECKING.
001876: 00,2451           54155                           TS       MPAC       +1
001877: 00,2452           34755                           CAF      ZERO
001878: 00,2453           64733                           AD       POSMAX
001879: 00,2454           26154                           ADS      MPAC
001880:
001881: 00,2455           34736                           CAF      HALF                                  #  SAME FOR BUF.
001882: 00,2456           60000                           DOUBLE
001883: 00,2457           60131                           AD       BUF        +1
001884: 00,2460           54131                           TS       BUF        +1
001885: 00,2461           34755                           CAF      ZERO
001886: 00,2462           64733                           AD       POSMAX
001887: 00,2463           26130                           ADS      BUF
001888:
001889: 00,2464           40154                           CS       MPAC                                  #  CHECK MAGNITUDE OF SIGN-CORRECTED
001890: 00,2465           60130                           AD       BUF                                   #  OPERANDS.
001891: 00,2466           10000                           CCS      A
001892: 00,2467           12505                           TCF      DVNORM                                #  DIVIDE OK - WILL NOT BECOME MAXDV CASE.
001893: 00,2470           00133        LBUF2              ADRES    BUF2
001894: 00,2471           12405                           TCF      DVOVF                                 #  DIVISOR NOT LESS THAN DIVIDEND - OVF.
001895:
001896: 00,2472           54140                           TS       MAXDVSW                               #  IF THE MAJOR PARTS OF THE DIVIDEND AND
001897: 00,2473           40155                           CS       MPAC       +1                         #  DIVISOR ARE EQUAL, A SPECIAL APPROXIMA-
001898: 00,2474           60131                           AD       BUF        +1                         #  TION IS USED (PROVIDED THE DIVISION IS
001899: 00,2475           00006                           EXTEND                                         #  POSSIBLE, OF COURSE).
001900: 00,2476           62405                           BZMF     DVOVF
001901: 00,2477           12505                           TCF      DVNORM                                #  IF NO OVERFLOW.
001902:


001904: 00,2500           00006        BUFNORM            EXTEND                                         #  ADD -1 TO AUGMENT SHIFT COUNT AND SHIFT
001905: 00,2501           24137                           AUG      DVNORMCT                              #  LEFT ONE PLACE.
001906: 00,2502           00006                           EXTEND
001907: 00,2503           30131                           DCA      BUF
001908: 00,2504           20131                           DAS      BUF
001909:
001910: 00,2505           30130        DVNORM             CA       BUF                                   #  SEE IF DIVISOR NORMALIZED YET.
001911: 00,2506           60000                           DOUBLE
001912: 00,2507           54000                           OVSK
001913: 00,2510           12500                           TCF      BUFNORM                               #  NO - SHIFT LEFT ONE AND TRY AGAIN.
001914:
001915: 00,2511           52155                           DXCH     MPAC                                  #  CALL DIVIDEND NORMALIZATION SEQUENCE
001916: 00,2512           50137                           INDEX    DVNORMCT                              #  PRIOR TO DOING THE DIVIDE.
001917: 00,2513           02565                           TC       MAXTEST
001918:
001919: 00,2514           54156                           TS       MPAC       +2                         #  RETURNS WITH DIVISION DONE AND C(A) = 0.
001920: 00,2515           16073                           TCF      DANZIG
001921:
001922: 00,2516           10000        BUFPOS             CCS      A
001923: 00,2517           12422                           TCF      BUF+                                  #  TO BUF+ IF BUF IS GREATER THAN +1.
001924:
001925: 00,2520           40131                           CS       BUF        +1                         #  IF BUF IS +1, FORCING SIGN AGREEMENT
001926: 00,2521           00006                           EXTEND                                         #  MAY CAUSE BUF TO BECOME ZERO.
001927: 00,2522           62422                           BZMF     BUF+                                  #  BRANCH IF SIGNS AGREE.
001928:
001929: 00,2523           34736                           CA       HALF                                  #  SIGNS DISAGREE.  FORCE AGREEMENT.
001930: 00,2524           60000                 +6        DOUBLE
001931: 00,2525           26131                           ADS      BUF        +1
001932: 00,2526           34755                           CA       ZERO
001933: 00,2527           54130                           TS       BUF
001934: 00,2530           12363                           TCF      BUFZERO
001935:
001936: 00,2531           10000        BUFNEG             CCS      A
001937: 00,2532           12416                           TCF      BUF-                                  #  TO BUF- IF BUF IS LESS THAN -1.
001938:
001939: 00,2533           30131                           CA       BUF        +1                         #  IF BUF IS -1, FORCING SIGN AGREEMENT
001940: 00,2534           00006                           EXTEND                                         #  MAY CAUSE BUF TO BECOME ZERO.
001941: 00,2535           62416                           BZMF     BUF-                                  #  BRANCH IF SIGNS AGREE.
001942:
001943: 00,2536           44736                           CS       HALF                                  #  SIGNS DISAGREE.  FORCE AGREEMENT.
001944: 00,2537           12524                           TCF      BUFPOS     +6
001945:


001947:                                                                                                  #           THE FOLLOWING ARE PROLOGUES TO SHIFT THE DIVIDEND ARRIVING IN A AND L BEFORE THE DIVIDE.
001948:
001949: 00,2540           22021                 -21D      LXCH     SR                                    #  SPECIAL PROLOGUE FOR UNIT WHEN THE
001950: 00,2541           00006                           EXTEND                                         #  LENGTH OF THE ARGUMENT WAS NOT LESS THAN
001951: 00,2542           74736                           MP       HALF                                  #  .5. IN THIS CASE, EACH COMPONENT MUST BE
001952: 00,2543           56001                           XCH      L                                     #  SHIFTED RIGHT ONE TO PRODUCE A HALF-UNIT
001953: 00,2544           60021                           AD       SR                                    #  VECTOR.
001954: 00,2545           56001                           XCH      L
001955: 00,2546           12571                           TCF      GENDDV     +1                         #  WITH DP DIVIDEND IN A,L.
001956:
001957: 00,2547           20001                           DDOUBL                                         #  PROLOGUE WHICH NORMALIZES THE DIVIDEND
001958: 00,2550           20001                           DDOUBL                                         #  WHEN IT IS KNOWN THAT NO DIVISION
001959: 00,2551           20001                           DDOUBL                                         #  OVERFLOW WILL OCCUR.
001960: 00,2552           20001                           DDOUBL
001961: 00,2553           20001                           DDOUBL
001962: 00,2554           20001                           DDOUBL
001963: 00,2555           20001                           DDOUBL
001964: 00,2556           20001                           DDOUBL
001965: 00,2557           20001                           DDOUBL
001966: 00,2560           20001                           DDOUBL
001967: 00,2561           20001                           DDOUBL
001968: 00,2562           20001                           DDOUBL
001969: 00,2563           20001                           DDOUBL
001970: 00,2564           52155                           DXCH     MPAC
001971:
001972: 00,2565           10140        MAXTEST            CCS      MAXDVSW                               #  0 IF MAJORS MIGHT BE =, -1 OTHERWISE.
001973: 00,2566           06552        BIASHI             DEC      .4192      B-1                        #  SQRT CONSTANTS
001974:
001975: 00,2567           12642                           TCF      MAXDV                                 #  CHECK TO SEE IF THEY ARE NOW EQUAL.
001976:


001978:                                                                                                  #           THE FOLLOWING IS A GENERAL PURPOSE DOUBLE PRECISION DIVISION ROUTINE. IT DIVIDES MPAC BY BUF AND LEAVES
001979:                                                                                                  #  THE RESULT IN MPAC. THE FOLLOWING CONDITIONS MUST BE SATISFIED:
001980:
001981:                                                                                                  #           1.  THE DIVISOR (BUF) MUST BE POSITIVE AND NOT LESS THAN .5.
001982:
001983:                                                                                                  #           2.  THE DIVIDEND (MPAC) MUST BE POSITIVE WITH THE MAJOR PART OF MPAC STRICTLY LESS THAN THAT OF BUF
001984:                                                                                                  #  (A SPECIAL APPROXIMATION, MAXDV, IS USED WHEN THE MAJOR PARTS ARE EQUAL).
001985:
001986:                                                                                                  #           UNDERSTANDING THAT A/B = Q + S(R/B) WHERE S = 2(-14) AND Q AND R ARE QUOTIENT AND REMAINDER, RESPEC-
001987:                                                                                                  #  TIVELY, THE FOLLOWING APPROXIMATION IS OBTAINED BY MULTIPLYING ABOVE AND BELOW BY C - SD AND NEGLECTING TERMS OF
001988:                                                                                                  #  ORDER S-SQUARED (POSSIBLY INTRODUCING ERROR INTO THE LOW TWO BITS OF THE RESULT). SIGN AGREEMENT IS UNNECESSARY.
001989:
001990:                                                                                                  #           A + SB .      (R - QD)                                             A + SB
001991:                                                                                                  #           ------ = Q + S(------) WHERE Q AND R ARE QUOTIENT AND REMAINDER OF ------ RESPECTIVELY.
001992:                                                                                                  #           C + SD        (  C   )                                               C
001993:
001994:
001995: 00,2570           52155        GENDDV             DXCH     MPAC                                  #  WE NEED A AND B ONLY FOR FIRST DV.
001996: 00,2571           00006                 +1        EXTEND                                         #  (SPECIAL UNIT PROLOGUE ENTERS HERE).
001997: 00,2572           10130                           DV       BUF                                   #  A NOW CONTAINS Q AND L, R.
001998: 00,2573           52155                           DXCH     MPAC
001999:
002000: 00,2574           40154                           CS       MPAC                                  #  FORM DIVIDEND FOR MINOR PART OF RESULT.
002001: 00,2575           00006                           EXTEND
002002: 00,2576           70131                           MP       BUF        +1
002003: 00,2577           60155                           AD       MPAC       +1                         #  OVERFLOW AT THIS POINT IS POSITIVE SINCE
002004: 00,2600           54000                           OVSK                                           #  R IS POSITIVE IN EVERY CASE.
002005: 00,2601           12606                           TCF      +5
002006:
002007: 00,2602           00006                           EXTEND                                         #  OVERFLOW CAN BE REMOVED BY SUBTRACTING C
002008: 00,2603           60130                           SU       BUF                                   #  (BUF) ONCE SINCE R IS ALWAYS LESS THAN C
002009: 00,2604           24154                           INCR     MPAC                                  #  IN THIS CASE. INCR COMPENSATES SUBTRACT.
002010: 00,2605           12610                           TCF      +DOWN                                 #  (SINCE C(A) IS STILL POSITIVE).
002011:
002012: 00,2606           00006                 +5        EXTEND                                         #  C(A) CAN BE MADE LESS THAN C IN MAGNI-
002013: 00,2607           62620                           BZMF     -UP                                   #  TUDE BY DIMINISHING IT BY C (SINCE C IS
002014:                                                                                                  #  NOT LESS THAN .5) UNLESS C(A) = 0.
002015:


002017: 00,2610           00006        +DOWN              EXTEND
002018: 00,2611           60130                           SU       BUF                                   #  IF POSITIVE, REDUCE ONLY IF NECESSARY
002019: 00,2612           00006                           EXTEND                                         #  SINCE THE COMPENSATING INCR MIGHT CAUSE
002020: 00,2613           12616                           BZF      +3                                    #  OVERFLOW.
002021: 00,2614           00006                           EXTEND                                         #  DONT SUBTRACT UNLESS RESULT IS POSITIVE
002022: 00,2615           62624                           BZMF     ENDMAXDV                              #  OR ZERO.
002023:
002024: 00,2616           24154                 +3        INCR     MPAC                                  #  KEEP SUBTRACT HERE AND COMPENSATE.
002025: 00,2617           12625                           TCF      FINALDV
002026:
002027: 00,2620           00006        -UP                EXTEND                                         #  IF ZERO, SET MINOR PART OF RESULT TO
002028: 00,2621           12630                           BZF      FINALDV    +3                         #  ZERO.
002029:
002030: 00,2622           00006                           EXTEND                                         #  IF NEGATIVE, ADD C TO A, SUBTRACTING ONE
002031: 00,2623           26154                           DIM      MPAC                                  #  TO COMPENSATE. DIM IS OK HERE SINCE THE
002032: 00,2624           60130        ENDMAXDV           AD       BUF                                   #  MAJOR PART NEVER GOES NEGATIVE.
002033:


002035: 00,2625           22007        FINALDV            ZL                                             #  DO DV TO OBTAIN MINOR PART OF RESULT.
002036: 00,2626           00006                           EXTEND
002037: 00,2627           10130                           DV       BUF
002038: 00,2630           54155                 +3        TS       MPAC       +1
002039:
002040: 00,2631           10136                           CCS      DVSIGN                                #  LEAVE RESULT POSITIVE UNLESS C(DVSIGN)=
002041: 00,2632           00002                           TC       Q                                     #  -0.
002042: 00,2633           00002                           TC       Q
002043: 00,2634           00002                           TC       Q
002044:
002045: 00,2635           00006                           EXTEND
002046: 00,2636           40155                           DCS      MPAC
002047: 00,2637           52155                           DXCH     MPAC
002048: 00,2640           34755                           CAF      ZERO                                  #  SO WE ALWAYS RETURN WITH C(A) = 0.
002049: 00,2641           00002                           TC       Q
002050:


002052:                                                                                                  #           IF THE MAJOR PARTS OF THE DIVISOR AND DIVIDEND ARE EQUAL, BUT THE MINOR PARTS ARE SUCH THAT THE
002053:                                                                                                  #  DIVIDEND IS STRICTLY LESS THAN THE DIVISOR IN MAGNITUDE, THE FOLLOWING APPROXIMATION IS USED. THE ASSUMPTIONS
002054:                                                                                                  #  ARE THE SAME AS THE GENERAL ROUTINE WITH THE ADDITION THAT SIGN AGREEMENT IS NECESSARY (B, C, & D POSITIVE).
002055:
002056:                                                                                                  #                  C + SB .          (C + B - D)
002057:                                                                                                  #                  ------ = 37777 + S(---------)
002058:                                                                                                  #                  C + SD            (    C    )
002059:
002060:                                                                                                  #           THE DIVISION MAY BE PERFORMED IMMEDIATELY SINCE B IS STRICTLY LESS THAN D AND C IS NOT LESS THAN .5.
002061:
002062: 00,2642           40154        MAXDV              CS       MPAC                                  #  SEE IF MAXDV CASE STILL HOLDS AFTER
002063: 00,2643           60130                           AD       BUF                                   #  NORMALIZATION.
002064: 00,2644           00006                           EXTEND
002065: 00,2645           12647                           BZF      +2
002066: 00,2646           12570                           TCF      GENDDV                                #  MPAC NOW LESS THAN BUF - DIVIDE AS USUAL
002067:
002068: 00,2647           34733                 +2        CAF      POSMAX                                #  SET MAJOR PART OF RESULT.
002069: 00,2650           54154                           TS       MPAC
002070:
002071: 00,2651           40131                           CS       BUF        +1                         #  FORM DIVIDEND OF MINOR PART OF RESULT.
002072: 00,2652           60155                           AD       MPAC       +1
002073: 00,2653           12624                           TCF      ENDMAXDV                              #  GO ADD C AND DO DIVIDE, ATTACHING SIGN
002074:                                                                                                  #  BEFORE EXITING.
002075:


002077:                                                                                                  #           VECTOR DIVIDED BY SCALAR, V/SC, IS EXECUTED HERE. THE VECTOR IS NOW IN MPAC WITH SCALAR IN BUF.
002078:
002079: 00,2654           44753        V/SC2              CS       ONE                                   #  INITIALIZE DIVIDEND NORMALIZATION COUNT
002080: 00,2655           54137                           TS       DVNORMCT                              #  AND DIVISION SIGN REGISTER.
002081: 00,2656           54127                           TS       VBUF       +5
002082:
002083: 00,2657           03010                           TC       VECAGREE                              #  FORCE SIGN AGREEMENT IN VECTOR
002084:
002085: 00,2660           52131                           DXCH     BUF
002086: 00,2661           07556                           TC       ALSIGNAG                              #  SIGN AGREE BUF
002087: 00,2662           52131                           DXCH     BUF
002088: 00,2663           10130                           CCS      BUF                                   #  FORCE DIVISOR POSITIVE WITH MAJOR PART
002089: 00,2664           12721                           TCF      /BUF+                                 #  NON-ZERO (IF POSSIBLE).
002090: 00,2665           12667                           TCF      +2
002091: 00,2666           12715                           TCF      /BUF-
002092:
002093: 00,2667           56131                           XCH      BUF        +1                         #  SHIFT VECTOR AND SCALAR LEFT 14.
002094: 00,2670           56130                           XCH      BUF
002095: 00,2671           56155                           XCH      MPAC       +1
002096: 00,2672           56154                           XCH      MPAC
002097: 00,2673           00006                           EXTEND                                         #  CHECK FOR OVERFLOW IN EACH CASE.
002098: 00,2674           12676                           BZF      +2
002099: 00,2675           12405                           TCF      DVOVF
002100:
002101: 00,2676           56160                           XCH      MPAC       +4
002102: 00,2677           56157                           XCH      MPAC       +3
002103: 00,2700           00006                           EXTEND
002104: 00,2701           12703                           BZF      +2
002105: 00,2702           12405                           TCF      DVOVF
002106:
002107: 00,2703           56162                           XCH      MPAC       +6
002108: 00,2704           56161                           XCH      MPAC       +5
002109: 00,2705           00006                           EXTEND
002110: 00,2706           12710                           BZF      +2
002111: 00,2707           12405                           TCF      DVOVF
002112:
002113: 00,2710           10130                           CCS      BUF
002114: 00,2711           12721                           TCF      /BUF+
002115: 00,2712           12405                           TCF      DVOVF                                 #  ZERO DIVISOR - OVERFLOW.
002116: 00,2713           12715                           TCF      /BUF-
002117: 00,2714           12405                           TCF      DVOVF
002118:
002119: 00,2715           00006        /BUF-              EXTEND                                         #  ON NEGATIVE, COMPLEMENT BUF AND MAINTAIN
002120: 00,2716           40131                           DCS      BUF                                   #  DVSIGN IN VBUF +5.
002121: 00,2717           52131                           DXCH     BUF
002122: 00,2720           24127                           INCR     VBUF       +5
002123:


002125: 00,2721           00006        /BUF+              EXTEND
002126: 00,2722           30131                           DCA      BUF                                   #  LEAVE ABS(ORIG DIVISOR) IN BUF2
002127: 00,2723           52134                           DXCH     BUF2                                  #  FOR OVERFLOW TESTING
002128: 00,2724           12732                           TCF      /NORM                                 #  NORMALIZE DIVISOR IN BUF.
002129:
002130: 00,2725           00006        /NORM2             EXTEND                                         #  IF LESS THAN .5, AUGMENT DVNORMCT AND
002131: 00,2726           24137                           AUG      DVNORMCT                              #  DOUBLE DIVISOR.
002132: 00,2727           00006                           EXTEND
002133: 00,2730           30131                           DCA      BUF
002134: 00,2731           20131                           DAS      BUF
002135:
002136: 00,2732           30130        /NORM              CA       BUF                                   #  SEE IF DIVISOR NORMALIZED.
002137: 00,2733           60000                           DOUBLE
002138: 00,2734           54000                           OVSK
002139: 00,2735           12725                           TCF      /NORM2                                #  DOUBLE AND TRY AGAIN IF NOT.
002140:
002141: 00,2736           02750                           TC       V/SCDV                                #  DO X COMPONENT DIVIDE.
002142: 00,2737           52160                           DXCH     MPAC       +3                         #  SUPPLY ARGUMENTS IN USUAL SEQUENCE.
002143: 00,2740           52155                           DXCH     MPAC
002144: 00,2741           52160                           DXCH     MPAC       +3
002145:
002146: 00,2742           02750                           TC       V/SCDV                                #  Y COMPONENT.
002147: 00,2743           52162                           DXCH     MPAC       +5
002148: 00,2744           52155                           DXCH     MPAC
002149: 00,2745           52162                           DXCH     MPAC       +5
002150:
002151: 00,2746           02750                           TC       V/SCDV                                #  Z COMPONENT.
002152: 00,2747           17432                           TCF      VROTATEX                              #  GO RE-ARRANGE COMPONENTS BEFORE EXIT.
002153:


002155:                                                                                                  #           SUBROUTINE USED BY V/SC TO DIVIDE VECTOR COMPONENT IN MPAC,+1 BY THE SCALAR GIVEN IN BUF.
002156:
002157: 00,2750           30127        V/SCDV             CA       VBUF       +5                         #  REFLECTS SIGN OF SCALAR.
002158: 00,2751           54136                           TS       DVSIGN
002159:
002160: 00,2752           10154                           CCS      MPAC                                  #  FORCE MPAC POSITIVE, EXITING ON ZERO.
002161: 00,2753           12767                           TCF      /MPAC+
002162: 00,2754           12756                           TCF      +2
002163: 00,2755           12763                           TCF      /MPAC-
002164:
002165: 00,2756           10155                           CCS      MPAC       +1
002166: 00,2757           12767                           TCF      /MPAC+
002167: 00,2760           00002                           TC       Q
002168: 00,2761           12763                           TCF      /MPAC-
002169: 00,2762           00002                           TC       Q
002170:
002171: 00,2763           00006        /MPAC-             EXTEND                                         #  USUAL COMPLEMENTING AND SETTING OF SIGN.
002172: 00,2764           40155                           DCS      MPAC
002173: 00,2765           52155                           DXCH     MPAC
002174: 00,2766           24136                           INCR     DVSIGN
002175:
002176: 00,2767           44753        /MPAC+             CS       ONE                                   #  INITIALIZE NEAR-ONE SWITCH.
002177: 00,2770           54140                           TS       MAXDVSW
002178:
002179: 00,2771           40154                           CS       MPAC                                  #  CHECK POSSIBLE OVERFLOW.
002180: 00,2772           60133                           AD       BUF2                                  #  UNNORMALIZED INPUT DIVISOR.
002181: 00,2773           10000                           CCS      A
002182: 00,2774           13004                           TCF      DDVCALL                               #  NOT NEAR-ONE
002183: 00,2775           12777                           TCF      +2                                    #  +0 IS JUST POSSIBLE
002184: 00,2776           12405                           TCF      DVOVF                                 #  NO HOPE
002185: 00,2777           54140                           TS       MAXDVSW                               #  SIGNAL POSSIBLE NEAR-ONE CASE
002186: 00,3000           40155                           CS       MPAC       +1                         #  SEE IF DIVISION CAN BE DONE
002187: 00,3001           60134                           AD       BUF2       +1
002188: 00,3002           00006                           EXTEND
002189: 00,3003           62405                           BZMF     DVOVF
002190:
002191: 00,3004           52155        DDVCALL            DXCH     MPAC                                  #  CALL PRE-DIVIDE NORMALIZATION.
002192: 00,3005           50137                           INDEX    DVNORMCT
002193: 00,3006           12565                           TCF      MAXTEST
002194:


002196: 00,3007           32506        SLOPELO            DEC      .8324
002197:
002198: 00,3010           56002        VECAGREE           XCH      Q                                     #  SAVE Q IN A
002199: 00,3011           52155                           DXCH     MPAC
002200: 00,3012           07556                           TC       ALSIGNAG                              #  SIGNAGREE MPAC
002201: 00,3013           52155                           DXCH     MPAC
002202: 00,3014           52160                           DXCH     MPAC       +3
002203: 00,3015           07556                           TC       ALSIGNAG                              #  SIGN AGREE MPAC +3
002204: 00,3016           52160                           DXCH     MPAC       +3
002205: 00,3017           52162                           DXCH     MPAC       +5
002206: 00,3020           07556                           TC       ALSIGNAG                              #  SIGNAGREE MPAC +5
002207: 00,3021           52162                           DXCH     MPAC       +5
002208: 00,3022           00000                           TC       A
002209:


002211:                                                                                                  #           THE FOLLOWING ROUTINE EXECUTES THE UNIT INSTRUCTION, WHICH TAKES THE UNIT OF THE VECTOR IN MPAC.
002212:
002213: 00,3023           03010        UNIT               TC       VECAGREE                              #  FORCE SIGN AGREEMENT IN VECTOR
002214: 00,3024           07544                           TC       MPACVBUF                              #  SAVE ARGUMENT IN VBUF
002215: 00,3025           34755                           CAF      ZERO                                  #  MUST SENSE OVERFLOW IN FOLLOWING DOT.
002216: 00,3026           56121                           XCH      OVFIND
002217: 00,3027           54141                           TS       TEM1
002218: 00,3030           03317                           TC       VSQSUB                                #  DOT MPAC WITH ITSELF.
002219: 00,3031           30141                           CA       TEM1
002220: 00,3032           56121                           XCH      OVFIND
002221: 00,3033           00006                           EXTEND
002222: 00,3034           13036                           BZF      +2
002223: 00,3035           12405                           TCF      DVOVF
002224: 00,3036           00006                           EXTEND
002225: 00,3037           30155                           DCA      MPAC                                  #  LEAVE THE SQUARE OF THE LENGTH OF THE
002226: 00,3040           50120                           INDEX    FIXLOC                                #  ARGUMENT IN LVSQUARE.
002227: 00,3041           52043                           DXCH     LVSQUARE
002228:
002229: 00,3042           03343                           TC       SQRTSUB                               #  GO TAKE THE NORMALIZED SQUARE ROOT.
002230:
002231: 00,3043           10154                           CCS      MPAC                                  #  CHECK FOR UNIT OVERFLOW.
002232: 00,3044           13051                           TCF      +5                                    #  MPAC IS NOT LESS THAN .5 UNLESS
002233: 00,3045           54001                           TS       L
002234: 00,3046           50120                           INDEX    FIXLOC
002235: 00,3047           52045                           DXCH     LV
002236: 00,3050           12405                           TCF      DVOVF                                 #  INPUT TO SQRTSUB WAS 0.
002237:
002238: 00,3051           44317                           CS       FOURTEEN                              #  SEE IF THE INPUT WAS SO SMALL THE THE
002239: 00,3052           60135                           AD       MPTEMP                                #  FIRST TWO REGISTERS OF THE SQUARE WERE 0
002240: 00,3053           10000                           CCS      A
002241: 00,3054           40000                           COM                                            #  IF SO, SAVE THE NEGATIVE OF THE SHIFT
002242: 00,3055           13133                           TCF      SMALL                                 #  COUNT -15D.
002243:
002244: 00,3056           13065                           TCF      LARGE                                 #  (THIS IS USUALLY THE CASE.)
002245:
002246: 00,3057           44761                           CS       THIRTEEN                              #  IF THE SHIFT COUNT WAS EXACTLY 14, SET
002247: 00,3060           54135                           TS       MPTEMP                                #  THE PRE-DIVIDE NORM COUNT TO -13D.
002248:
002249: 00,3061           30154                           CA       MPAC                                  #  SHIFT THE LENGTH RIGHT 14 BEFORE STORING
002250: 00,3062           54001        SMALL2             TS       L                                     #  (SMALL EXITS TO THIS POINT).
002251: 00,3063           34755                           CAF      ZERO
002252: 00,3064           13112                           TCF      LARGE2                                #  GO TO STORE LENGTH AND PROCEED.
002253:
002254: 00,3065           10135        LARGE              CCS      MPTEMP                                #  MOST ALL CASES COME HERE.
002255: 00,3066           13074                           TCF      LARGE3                                #  SEE IF NO NORMALIZATION WAS REQUIRED BY
002256:
002257: 00,3067           42024                           CS       SRDDV                                 #  SQRT, AND IF SO, SET UP FOR A SHIFT
002258: 00,3070           54135                           TS       MPTEMP                                #  RIGHT 1 BEFORE DIVIDING TO PRODUCE
002259: 00,3071           00006                           EXTEND                                         #  THE DESIRED HALF UNIT VECTOR.
002260: 00,3072           30155                           DCA      MPAC


002262: 00,3073           13112                           TCF      LARGE2
002263:


002265: 00,3074           40000        LARGE3             COM                                            #  LEAVE NEGATIVE OF SHIFT COUNT-1 FOR
002266: 00,3075           54135                           TS       MPTEMP                                #  PREDIVIDE LEFT SHIFT.
002267:
002268: 00,3076           40000                           COM                                            #  PICK UP REQUIRED SHIFTING BIT TO UNNORM-
002269: 00,3077           50000                           INDEX    A                                     #  ALIZE THE SQRT RESULT.
002270: 00,3100           34736                           CAF      BIT14
002271: 00,3101           54130                           TS       BUF
002272: 00,3102           00006                           EXTEND
002273: 00,3103           70155                           MP       MPAC       +1
002274: 00,3104           56130                           XCH      BUF
002275: 00,3105           00006                           EXTEND                                         #  (UNNORMALIZE THE SQRT FOR LV).
002276: 00,3106           70154                           MP       MPAC
002277: 00,3107           56001                           XCH      L
002278: 00,3110           60130                           AD       BUF
002279: 00,3111           56001                           XCH      L
002280:
002281: 00,3112           50120        LARGE2             INDEX    FIXLOC
002282: 00,3113           52045                           DXCH     LV                                    #  LENGTH NOW STORED IN WORK AREA.
002283:
002284: 00,3114           44753                           CS       ONE
002285: 00,3115           54140                           TS       MAXDVSW                               #  NO MAXDV CASES IN UNIT.
002286:
002287: 00,3116           52123                           DXCH     VBUF                                  #  PREPARE X COMPONENT FOR DIVIDE, SETTING
002288: 00,3117           52155                           DXCH     MPAC                                  #  LENGTH OF VECTOR AS DIVISOR IN BUF.
002289: 00,3120           52131                           DXCH     BUF
002290: 00,3121           03151                           TC       UNITDV
002291:
002292: 00,3122           52125                           DXCH     VBUF       +2                         #  DO Y AND Z IN USUAL FASHION SO WE CAN
002293: 00,3123           52155                           DXCH     MPAC                                  #  EXIT THROUGH VROTATEX.
002294: 00,3124           52160                           DXCH     MPAC       +3
002295: 00,3125           03151                           TC       UNITDV
002296:
002297: 00,3126           52127                           DXCH     VBUF       +4
002298: 00,3127           52155                           DXCH     MPAC
002299: 00,3130           52162                           DXCH     MPAC       +5
002300: 00,3131           03151                           TC       UNITDV
002301: 00,3132           17432                           TCF      VROTATEX                              #  AND EXIT.
002302:


002304:                                                                                                  #           IF THE LENGTH OF THE ARGUMENT VECTOR WAS LESS THAN 2(-28), EACH COMPONENT MUST BE SHIFTED LEFT AT LEAST
002305:                                                                                                  #  14 PLACES BEFORE THE DIVIDE. NOTE THAT IN THIS CASE, THE MAJOR PART OF EACH COMPONENT IS ZERO.
002306:
002307: 00,3133           54135        SMALL              TS       MPTEMP                                #  NEGATIVE OF PRE-DIVIDE SHIFT COUNT.
002308:
002309: 00,3134           34755                           CAF      ZERO                                  #  SHIFT EACH COMPONENT LEFT 14.
002310: 00,3135           56123                           XCH      VBUF       +1
002311: 00,3136           56122                           XCH      VBUF
002312: 00,3137           56125                           XCH      VBUF       +3
002313: 00,3140           56124                           XCH      VBUF       +2
002314: 00,3141           56127                           XCH      VBUF       +5
002315: 00,3142           56126                           XCH      VBUF       +4
002316:
002317: 00,3143           40135                           CS       MPTEMP
002318: 00,3144           50000                           INDEX    A
002319: 00,3145           34736                           CAF      BIT14
002320: 00,3146           00006                           EXTEND
002321: 00,3147           70154                           MP       MPAC
002322: 00,3150           13062                           TCF      SMALL2
002323:
002324: 00,3151     4761               THIRTEEN           =        OCT15
002325: 00,3151     4317               FOURTEEN           =        OCT16
002326: 00,3151     4317               OCT16              =        R1D1
002327:


002329:                                                                                                  #           THE FOLLOWING ROUTINE SETS UP THE CALL TO THE DIVIDE ROUTINES.
002330:
002331: 00,3151           10154        UNITDV             CCS      MPAC                                  #  FORCE MPAC POSITIVE IF POSSIBLE, SETTING
002332: 00,3152           13170                           TCF      UMPAC+                                #  DVSIGN ACCORDING TO THE SIGN OF MPAC
002333: 00,3153           13155                           TCF      +2                                    #  SINCE THE DIVISOR IS ALWAYS POSITIVE
002334: 00,3154           13162                           TCF      UMPAC-                                #  HERE.
002335:
002336: 00,3155           10155                           CCS      MPAC       +1
002337: 00,3156           13170                           TCF      UMPAC+
002338: 00,3157           00002                           TC       Q                                     #  EXIT IMMEDIATELY ON ZERO.
002339: 00,3160           13162                           TCF      UMPAC-
002340: 00,3161           00002                           TC       Q
002341:
002342: 00,3162           44755        UMPAC-             CS       ZERO                                  #  IF NEGATIVE, SET -0 IN DVSIGN FOR FINAL
002343: 00,3163           54136                           TS       DVSIGN                                #  COMPLEMENT.
002344: 00,3164           00006                           EXTEND
002345: 00,3165           40155                           DCS      MPAC                                  #  PICK UP ABSOLUTE VALUE OF ARG AND JUMP.
002346: 00,3166           50135                           INDEX    MPTEMP
002347: 00,3167           12564                           TCF      MAXTEST    -1
002348:
002349: 00,3170           54136        UMPAC+             TS       DVSIGN                                #  SET DVSIGN FOR POSITIVE QUOTIENT.
002350: 00,3171           52155                           DXCH     MPAC
002351: 00,3172           50135                           INDEX    MPTEMP
002352: 00,3173           12564                           TCF      MAXTEST    -1
002353:


002355:                                                                                                  #           MISCELLANEOUS UNARY OPERATIONS.
002356:
002357: 00,3174           03300        DSQ                TC       DSQSUB                                #  SQUARE THE DP CONTENTS OF MPAC.
002358: 00,3175           16073                           TCF      DANZIG
002359:
002360: 00,3176           10163        ABVALABS           CCS      MODE                                  #  ABVAL OR ABS INSTRUCTION.
002361: 00,3177           13226                           TCF      ABS                                   #  DO ABS ON SCALAR.
002362: 00,3200           13226                           TCF      ABS
002363:
002364: 00,3201           03317        ABVAL              TC       VSQSUB                                #  DOT MPAC WITH ITSELF.
002365: 00,3202           22163                           LXCH     MODE                                  #  MODE IS NOW DP (L ZERO AFTER DAS).
002366:
002367: 00,3203           00006                           EXTEND                                         #  STORE SQUARE OF LENGTH IN WORK AREA.
002368: 00,3204           30155                           DCA      MPAC
002369: 00,3205           50120                           INDEX    FIXLOC
002370: 00,3206           52043                           DXCH     LVSQUARE
002371:


002373:                                                                                                  #  PROGRAM DESCRIPTION- SUBROUTINE SQRT
002374:                                                                                                  #  FUNCTIONAL DESCRIPTION-DOUBLE PRECISION SQUARE ROOT ROUTINE
002375:                                                                                                  #      THIS PROGRAM TAKES THE SQUARE ROOT OF THE 27 OR 28 MOST SIGNIFICANT BITS IN THE TRIPLE PRECISION SET OF
002376:                                                                                                  #      NUMBERS-MPAC,MPAC+1,AND MPAC+2.  THE ROOT IS RETURNED DOUBLE        PRECISION IN MPAC AND MPAC+1.
002377:                                                                                                  #  WARNING- THIS SUBROUTINE USES A TRIPLE PRECISION INPUT. THE PROGRAMMER  MUST ASSURE THE CONTENTS OF MPAC+2
002378:                                                                                                  #      ESPECIALLY IF THE CONTENTS OF MPAC IS SMALL OR ZERO.  FOR DETAILS SEE STG MEMO NO.949.
002379:                                                                                                  #  CALLING SEQUENCE- IN INTERPRETIVE MODE I.E., FOLLOWING TC  INTPRET,SQRT   NO ADDRESS IS ALLOWED
002380:                                                                                                  #  INPUT SCALING  THE BINARY POINT IS ASSUMED TO THE RIGHT OF BIT 15. THE  ANSWER IS RETURNED WITH THE SAME SCALING
002381:                                                                                                  #  SUBROUTINES- GENSCR,MPACSHR, SQRTSUB,ABORT
002382:                                                                                                  #  ABORT EXIT MODE- ABORTS ON NEGATIVE INPUT -1.2X10E-4 (77775  OCTAL)     OR LESS.
002383:                                                                                                  #      DISPLAYS ERROR CODE 1302
002384:                                                                                                  #                  TC   ABORT
002385:                                                                                                  #                  OCT  1302
002386:                                                                                                  #  DEBRIS -  LOCATIONS BUF,MPTEMP,ADDRWD ARE USED
002387: 00,3207           03343        SQRT               TC       SQRTSUB                               #  TAKE THE SQUARE ROOT OF MPAC.
002388: 00,3210           10135                           CCS      MPTEMP                                #  RETURNED NORMALIZED SQUARE ROOT. SEE IF
002389: 00,3211           13213                           TCF      +2                                    #  ANY UN-NORMALIZATION REQUIRED AND EXIT
002390: 00,3212           16073                           TCF      DANZIG                                #  IF NOT.
002391:
002392: 00,3213           63733                           AD       NEG12                                 #  A RIGHT SHIFT OF MORE THAN 13 COULD BE
002393: 00,3214           00006                           EXTEND                                         #  REQUIRED IF INPUT WAS ZERO IN MPAC,+1.
002394: 00,3215           63221                           BZMF     SQRTSHFT                              #  GOES HERE IN MOST CASES.
002395: 00,3216           22007                           ZL                                             #  IF A LONG SHIFT IS REQUIRED, GO TO
002396: 00,3217           22116                           LXCH     ADDRWD                                #  GENERAL RIGHT SHIFT ROUTINES.
002397: 00,3220           12303                           TCF      GENSCR     +4                         #  ADDRWD WAS ZERO TO PREVENT ROUND.
002398:
002399: 00,3221           50135        SQRTSHFT           INDEX    MPTEMP                                #  SELECT SHIFTING BIT AND EXIT THROUGH
002400: 00,3222           34735                           CAF      BIT15                                 #  SHIFT ROUTINES.
002401: 00,3223           54135                           TS       MPTEMP
002402: 00,3224           34755                           CAF      ZERO                                  #  TO ZERO MPAC +2 IN THE PROCESS.
002403: 00,3225           12036                           TCF      MPACSHR    +3
002404:
002405: 00,3226           06735        ABS                TC       BRANCH                                #  TEST SIGN OF MPAC AND COMPLEMENT IF
002406: 00,3227           16073                           TCF      DANZIG
002407: 00,3230           16073                           TCF      DANZIG
002408: 00,3231           17702                           TCF      COMP
002409:


002411: 00,3232           44751        VDEF               CS       FOUR                                  #  VECTOR DEFINE - ESSENTIALLY TREATS
002412: 00,3233           26166                           ADS      PUSHLOC                               #  SCALAR IN MPAC AS X COMPONENT, PUSHES UP
002413: 00,3234           00006                           EXTEND                                         #  FOR Y AND THEN AGAIN FOR Z.
002414: 00,3235           50000                           INDEX    A
002415: 00,3236           30003                           DCA      2
002416: 00,3237           52160                           DXCH     MPAC       +3
002417: 00,3240           00006                           EXTEND
002418: 00,3241           50166                           INDEX    PUSHLOC
002419: 00,3242           30001                           DCA      0
002420: 00,3243           52162                           DXCH     MPAC       +5
002421: 00,3244           16533                           TCF      VMODE                                 #  MODE IS NON VECTOR.
002422:
002423: 00,3245           03317        VSQ                TC       VSQSUB                                #  DOT MPAC WITH ITSELF.
002424: 00,3246           17344                           TCF      DMODE                                 #  MODE IS NOW DP.
002425:
002426: 00,3247           00006        PUSH               EXTEND                                         #  PUSH DOWN MPAC LEAVING IT LOADED.
002427: 00,3250           30155                           DCA      MPAC
002428: 00,3251           50166                           INDEX    PUSHLOC                               #  PUSH DOWN FIRST TWO REGISTERS IN EACH
002429: 00,3252           52001                           DXCH     0
002430:
002431: 00,3253           50163                           INDEX    MODE                                  #  INCREMENT PUSHDOWN POINTER.
002432: 00,3254           36256                           CAF      NO.WDS
002433: 00,3255           26166                           ADS      PUSHLOC
002434:
002435: 00,3256           10163                           CCS      MODE
002436: 00,3257           13272                           TCF      TPUSH                                 #  PUSH DOWN MPAC +2.
002437: 00,3260           16073                           TCF      DANZIG                                #  DONE FOR DP.
002438:
002439: 00,3261           00006                           EXTEND                                         #  ON VECTOR, PUSH DOWN Y AND Z COMPONENTS.
002440: 00,3262           30160                           DCA      MPAC       +3
002441: 00,3263           50166                           INDEX    PUSHLOC
002442: 00,3264           51775                           DXCH     0          -4
002443: 00,3265           00006                           EXTEND
002444: 00,3266           30162                           DCA      MPAC       +5
002445: 00,3267           50166                           INDEX    PUSHLOC
002446: 00,3270           51777                           DXCH     0          -2
002447: 00,3271           16073                           TCF      DANZIG
002448:
002449: 00,3272           30156        TPUSH              CA       MPAC       +2
002450: 00,3273           16566                           TCF      ENDTPUSH   +2
002451:
002452: 00,3274           50120        RVQ                INDEX    FIXLOC                                #  RVQ - RETURN IVA QPRET.
002453: 00,3275           30052                           CA       QPRET
002454: 00,3276           54117                           TS       POLISH
002455: 00,3277           16664                           TCF      GOTO       +4                         #  (ASSUME QPRET POINTS TO FIXED ONLY.)
002456:


002458:                                                                                                  #           THE FOLLOWING SUBROUTINES ARE USED IN SQUARING MPAC, IN BOTH THE SCALAR AND VECTOR SENSE. THEY ARE
002459:                                                                                                  #  SPECIAL CASES OF DMPSUB AND DOTSUB, PUT IN TO SAVE SOME TIME.
002460:
002461: 00,3300           30155        DSQSUB             CA       MPAC       +1                         #  SQUARES THE SCALAR CONTENTS OF MPAC.
002462: 00,3301           00006                           EXTEND
002463: 00,3302           70000                           SQUARE
002464: 00,3303           54156                           TS       MPAC       +2
002465: 00,3304           34755                           CAF      ZERO                                  #  FORM 2(CROSS TERM).
002466: 00,3305           56155                           XCH      MPAC       +1
002467: 00,3306           00006                           EXTEND
002468: 00,3307           70154                           MP       MPAC
002469: 00,3310           20001                           DDOUBL                                         #  AND MAYBE OVERFLOW.
002470: 00,3311           20156                           DAS      MPAC       +1                         #  AND SET A TO NET OVERFLOW.
002471: 00,3312           56154                           XCH      MPAC
002472: 00,3313           00006                           EXTEND
002473: 00,3314           70000                           SQUARE
002474: 00,3315           20155                           DAS      MPAC
002475: 00,3316           00002                           TC       Q
002476:
002477: 00,3317           00006        VSQSUB             EXTEND                                         #  DOTS THE VECTOR IN MPAC WITH ITSELF.
002478: 00,3320           22137                           QXCH     DOTRET
002479: 00,3321           03300                           TC       DSQSUB                                #  SQUARE THE X COMPONENT.
002480: 00,3322           52160                           DXCH     MPAC       +3
002481: 00,3323           52155                           DXCH     MPAC
002482: 00,3324           52131                           DXCH     BUF                                   #  SO WE CAN END IN DOTSUB.
002483: 00,3325           30156                           CA       MPAC       +2
002484: 00,3326           54132                           TS       BUF        +2
002485:
002486: 00,3327           03300                           TC       DSQSUB                                #  SQUARE Y COMPONENT.
002487: 00,3330           52156                           DXCH     MPAC       +1
002488: 00,3331           20132                           DAS      BUF        +1
002489: 00,3332           60154                           AD       MPAC
002490: 00,3333           60130                           AD       BUF
002491: 00,3334           54130                           TS       BUF
002492: 00,3335           13337                           TCF      +2
002493: 00,3336           54121                           TS       OVFIND                                #  IF OVERFLOW.
002494:
002495: 00,3337           52162                           DXCH     MPAC       +5
002496: 00,3340           52155                           DXCH     MPAC
002497: 00,3341           03300                           TC       DSQSUB                                #  SQUARE Z COMPONENT.
002498: 00,3342           17217                           TCF      ENDDOT                                #  END AS IN DOTSUB.
002499:


002501:                                                                                                  #           DOUBLE PRECISION SQUARE ROOT ROUTINE. TAKE THE SQUARE ROOT OF THE TRIPLE PRECISION (MPAC +2 USED ONLY
002502:                                                                                                  #  IN NORMALIZATION) CONTENTS OF MPAC AND LEAVE THE NORMALIZED RESULT IN MPAC (C(MPAC) GREATER THAN OR EQUAL TO
002503:                                                                                                  #  .5). THE RIGHT SHIFT COUNT (TO UNNORMALIZE) IS LEFT IN MPTEMP.
002504:
002505: 00,3343           34755        SQRTSUB            CAF      ZERO                                  #  START BY ZEROING RIGHT SHIFT COUNT.
002506: 00,3344           54135                           TS       MPTEMP
002507:
002508: 00,3345           10154                           CCS      MPAC                                  #  CHECK FOR POSITIVE ARGUMENT, SHIFTING
002509: 00,3346           13405                           TCF      SMPAC+                                #  FIRST SIGNIFICANT MPAC REGISTER INTO
002510: 00,3347           13351                           TCF      +2                                    #  MPAC ITSELF.
002511: 00,3350           13373                           TCF      SQRTNEG                               #  SEE IF MAG OF ARGUMENT LESS THAN 10(-4).
002512:
002513: 00,3351           56156                           XCH      MPAC       +2                         #  MPAC IS ZERO - SHIFT LEFT 14.
002514: 00,3352           56155                           XCH      MPAC       +1
002515: 00,3353           54154                           TS       MPAC
002516: 00,3354           34757                           CAF      SEVEN                                 #  AUGMENT RIGHT SHIFT COUNTER.
002517: 00,3355           54135                           TS       MPTEMP
002518:
002519: 00,3356           10154                           CCS      MPAC                                  #  SEE IF MPAC NOW PNZ.
002520: 00,3357           13405                           TCF      SMPAC+
002521: 00,3360           13362                           TCF      +2
002522: 00,3361           13376                           TCF      ZEROANS                               #  NEGATIVE BUT LESS THAN 10(-4) IN MAG.
002523:
002524: 00,3362           56155                           XCH      MPAC       +1                         #  ZERO - SHIFT LEFT 14 AGAIN.
002525: 00,3363           54154                           TS       MPAC
002526: 00,3364           34757                           CAF      SEVEN                                 #  AUGMENT RIGHT SHIFT COUNTER.
002527: 00,3365           26135                           ADS      MPTEMP
002528:
002529: 00,3366           10154                           CCS      MPAC
002530: 00,3367           13405                           TCF      SMPAC+
002531: 00,3370           00002                           TC       Q                                     #  SQRT(0) = 0.
002532: 00,3371           13376                           TCF      ZEROANS
002533: 00,3372           13453                           TCF      FIXROOT                               #  DO NOT LEAVE SQRTSUB WITH -0 IN MPAC.
002534:
002535: 00,3373           10000        SQRTNEG            CCS      A                                     #  ARGUMENT IS NEGATIVE, BUT SEE IF SIGN-
002536: 00,3374           13402                           TCF      SQRTABRT                              #  CORRECTED ARGUMENT IS LESS THAN 10(-4)
002537:
002538: 00,3375           10155                           CCS      MPAC       +1                         #  IN MAGNITUDE. IF SO, CALL ANSWER ZERO.
002539: 00,3376           34755        ZEROANS            CAF      ZERO                                  #  FORCE ANSWER TO ZERO HERE.
002540: 00,3377           13453                           TCF      FIXROOT
002541: 00,3400           13402                           TCF      SQRTABRT
002542: 00,3401           13453                           TCF      FIXROOT
002543:
002544: 00,3402           52165        SQRTABRT           DXCH     LOC
002545: 00,3403           05727                           TC       POODOO1
002546: 00,3404           21302                           OCT      21302
002547:
002548: 00,3405           62444        SMPAC+             AD       -1/2+2                                #  SEE IF ARGUMENT GREATER THAN OR EQUAL TO


002550: 00,3406           00006                           EXTEND                                         #  .5.
002551: 00,3407           63456                           BZMF     SRTEST                                #  IF SO, SEE IF LESS THAN .25.
002552:
002553: 00,3410           52155                           DXCH     MPAC                                  #  WE WILL TAKE THE SQUARE ROOT OF MPAC/2.
002554: 00,3411           22021                           LXCH     SR                                    #  SHIFT RIGHT 1 AND GO TO THE SQRT ROUTINE
002555: 00,3412           00006                           EXTEND
002556: 00,3413           74736                           MP       HALF
002557: 00,3414           52155                           DXCH     MPAC
002558: 00,3415           56021                           XCH      SR
002559: 00,3416           26155                           ADS      MPAC       +1                         #  GUARANTEED NO OVERFLOW.
002560:
002561: 00,3417           32314        ARGHI              CAF      SLOPEHI                               #  ARGUMENT BETWEEN .25 AND .5. GET A
002562: 00,3420           00006                           EXTEND                                         #  LINEAR APPROXIMATION FOR THIS RANGE.
002563: 00,3421           70154                           MP       MPAC
002564: 00,3422           62566                           AD       BIASHI                                #  X0/2 = (MPAC/2)(SLOPEHI) + BIASHI/2.
002565:
002566: 00,3423           54130                 +4        TS       BUF                                   #  X0/2 (ARGLO ENTERS HERE).
002567: 00,3424           30154                           CA       MPAC                                  #  SINGLE-PRECISION THROUGHOUT.
002568: 00,3425           22007                           ZL
002569: 00,3426           00006                           EXTEND
002570: 00,3427           10130                           DV       BUF                                   #  (MPAC/2)/(X0/2)
002571: 00,3430           00006                           EXTEND
002572: 00,3431           74736                           MP       HALF
002573: 00,3432           26130                           ADS      BUF                                   #  X1 = X0/2 + .5(MPAC/2)/(X0/2).
002574:
002575: 00,3433           00006                           EXTEND
002576: 00,3434           74736                           MP       HALF                                  #  FORM UP X1/2.
002577: 00,3435           52155                           DXCH     MPAC                                  #  SAVE AND BRING OUT ARGUMENT.
002578: 00,3436           00006                           EXTEND                                         #  TAKE DP QUOTIENT WITH X1.
002579: 00,3437           10130                           DV       BUF
002580: 00,3440           54131                           TS       BUF        +1                         #  SAVE MAJOR PART OF QUOTIENT.
002581: 00,3441           34755                           CAF      ZERO                                  #  FORM MINOR PART OF QUOTIENT USING
002582: 00,3442           56001                           XCH      L                                     #  (REMAINDER,0).
002583: 00,3443           00006                           EXTEND
002584: 00,3444           10130                           DV       BUF
002585: 00,3445           54001                           TS       L                                     #  IN PREPARATION FOR DAS.
002586: 00,3446           30131                           CA       BUF        +1
002587: 00,3447           20155                           DAS      MPAC                                  #  X2 = X1/2 + (MPAC/2)X1
002588:
002589: 00,3450           00006                           EXTEND                                         #  OVERFLOWS IF ARG. NEAR POSMAX.
002590: 00,3451           13455                           BZF      TCQBNK00
002591: 00,3452           34733                           CAF      POSMAX
002592: 00,3453           54154        FIXROOT            TS       MPAC
002593: 00,3454           54155                           TS       MPAC       +1
002594: 00,3455           00002        TCQBNK00           TC       Q                                     #  RETURN TO CALLER TO UNNORMALIZE, ETC.
002595:


002597: 00,3456           64737        SRTEST             AD       QUARTER                               #  ARGUMENT WAS LESS THAN .5, SEE IF LESS
002598: 00,3457           00006                           EXTEND                                         #  THAN .25.
002599: 00,3460           63502                           BZMF     SQRTNORM                              #  IF SO, BEGIN NORMALIZATION.
002600:
002601: 00,3461           52155                           DXCH     MPAC                                  #  IF BETWEEN .5 AND .25, SHIFT RIGHT 1 AND
002602: 00,3462           22021                           LXCH     SR                                    #  START AT ARGLO.
002603: 00,3463           00006                           EXTEND
002604: 00,3464           74736                           MP       HALF
002605: 00,3465           52155                           DXCH     MPAC
002606: 00,3466           56021                           XCH      SR
002607: 00,3467           26155                           ADS      MPAC       +1                         #  NO OVERFLOW.
002608:
002609: 00,3470           33007        ARGLO              CAF      SLOPELO                               #  (NORMALIZED) ARGUMENT BETWEEN .125 AND
002610: 00,3471           00006                           EXTEND                                         #  .25
002611: 00,3472           70154                           MP       MPAC
002612: 00,3473           62270                           AD       BIASLO
002613: 00,3474           13423                           TCF      ARGHI      +4                         #  BEGIN SQUARE ROOT.
002614:
002615: 00,3475           00006        SQRTNM2            EXTEND                                         #  SHIFT LEFT 2 AND INCREMENT RIGHT SHIFT
002616: 00,3476           30156                           DCA      MPAC       +1                         #  COUNT (FOR TERMINAL UNNORMALIZATION).
002617: 00,3477           20156                           DAS      MPAC       +1
002618: 00,3500           60154                           AD       MPAC
002619: 00,3501           26154                           ADS      MPAC                                  #  (NO OVERFLOW).
002620:
002621: 00,3502           24135        SQRTNORM           INCR     MPTEMP                                #  FIRST TIME THROUGH, JUST SHIFT LEFT 1
002622: 00,3503           00006                           EXTEND                                         #  (PUTS IN EFFECTIVE RIGHT SHIFT SINCE
002623: 00,3504           30156                           DCA      MPAC       +1                         #  WE WANT MPAC/2).
002624: 00,3505           20156                           DAS      MPAC       +1
002625: 00,3506           60154                           AD       MPAC
002626: 00,3507           26154                           ADS      MPAC                                  #  (AGAIN NO OVERFLOW).
002627: 00,3510           60000                           DOUBLE
002628: 00,3511           54022                           TS       CYL
002629:
002630: 00,3512           10022        NORMTEST           CCS      CYL                                   #  SEE IF ARGUMENT NOW NORMALIZED AT
002631: 00,3513           10022                           CCS      CYL                                   #  GREATER THAN .125.
002632: 00,3514           13475                           TCF      SQRTNM2                               #  NO - SHIFT LEFT 2 MORE AND TRY AGAIN.
002633: 00,3515           13417                           TCF      ARGHI                                 #  YES - NOW BETWEEN .5 AND .25.
002634: 00,3516           13470                           TCF      ARGLO                                 #  ARGUMENT NOW BETWEEN .25 AND .125.
002635:


002637:                                                                                                  #  TRIGONOMETRIC FUNCTION PACKAGE.
002638:
002639:                                                                                                  #           THE FOLLOWING TRIGONOMETRIC FUNCTIONS ARE AVAILABLE AS INTERPRETIVE OPERATIONS:
002640:
002641:                                                                                                  #           1.  SIN                COMPUTES (1/2)SINE(2 PI MPAC).
002642:                                                                                                  #           2.  COS                COMPUTES (1/2)COSINE(2 PI MPAC).
002643:
002644:                                                                                                  #           3.  ASIN               COMPUTES (1/2PI)ARCSINE(2 MPAC).
002645:                                                                                                  #           4.  ACOS               COMPUTES (1/2PI)ARCCOSINE(2 MPAC).
002646:
002647:                                                                                                  #  SIN-ASIN AND COS-ACOS ARE MUTUALLY INVERSE, IE SIN(ASIN(X)) = X.
002648:
002649: 00,3517           06735        COSINE             TC       BRANCH                                #  FINDS COSINE USING THE IDENTITY
002650: 00,3520           13523                           TCF      +3                                    #  COS(X) = SIN(PI/2 - ABS(X)).
002651: 00,3521           13526                           TCF      PRESINE
002652: 00,3522           13526                           TCF      PRESINE
002653:
002654: 00,3523           00006                 +3        EXTEND
002655: 00,3524           40155                           DCS      MPAC
002656: 00,3525           52155                           DXCH     MPAC
002657:
002658: 00,3526           34737        PRESINE            CAF      QUARTER                               #  PI/2 SCALED.
002659: 00,3527           26154                           ADS      MPAC
002660:
002661:
002662: 00,3530           52155        SINE               DXCH     MPAC                                  #  DOUBLE ARGUMENT.
002663: 00,3531           20001                           DDOUBL
002664: 00,3532           54000                           OVSK                                           #  SEE IF OVERFLOW PRESENT.
002665: 00,3533           13536                           TCF      +3                                    #  IF NOT, ARGUMENT OK AS IS.
002666:
002667: 00,3534           00006                           EXTEND                                         #  IF SO, WE LOST (OR GAINED) PI, SO
002668: 00,3535           40001                           DCOM                                           #  COMPLEMENT MPAC USING THE IDENTITY
002669:                                                                                                  #  SIN(X-(+)PI) = SIN(-X).
002670: 00,3536           52155                 +3        DXCH     MPAC
002671: 00,3537           30154                           CA       MPAC                                  #  SEE IF ARGUMENT GREATER THAN .5 IN
002672: 00,3540           60000                           DOUBLE                                         #  MAGNITUDE. IF SO, REDUCE IT TO LESS THAN
002673: 00,3541           54001                           TS       L                                     #  .5 (+-PI/2 SCALED) AS FOLLOWS:
002674: 00,3542           13553                           TCF      SN1
002675:
002676: 00,3543           50000                           INDEX    A                                     #  IF POSITIVE, FORM PI - X, IF NEGATIVE
002677: 00,3544           34735                           CAF      NEG1/2     +1                         #  USE -PI - X.
002678: 00,3545           60000                           DOUBLE
002679: 00,3546           00006                           EXTEND
002680: 00,3547           60154                           SU       MPAC                                  #  GUARANTEED NO OVERFLOW.
002681: 00,3550           54154                           TS       MPAC
002682: 00,3551           40155                           CS       MPAC       +1
002683: 00,3552           54155                           TS       MPAC       +1
002684:


002686: 00,3553           00006        SN1                EXTEND                                         #  SET UP TO EVALUATE HASTINGS POLYNOMIAL
002687: 00,3554           30155                           DCA      MPAC
002688: 00,3555           52134                           DXCH     BUF2
002689: 00,3556           03300                           TC       DSQSUB                                #  SQUARE MPAC.
002690:
002691: 00,3557           07234                           TC       POLY                                  #  EVALUATE FOURTH ORDER POLYNOMIAL.
002692: 00,3560           00003                           DEC      3          B-14
002693: 00,3561           14441 37325                     2DEC     +.3926990796
002694:
002695: 00,3563           53250 60764                     2DEC     -.6459637111
002696:
002697: 00,3565           12146 21276                     2DEC     +.318758717
002698:
002699: 00,3567           75466 71471                     2DEC     -.074780249
002700:
002701: 00,3571           00236 32757                     2DEC     +.009694988
002702:
002703:
002704: 00,3573           32470                           CAF      LBUF2                                 #  MULTIPLY BY ARGUMENT AND SHIFT LEFT 2.
002705: 00,3574           07120                           TC       DMPSUB     -1
002706:
002707: 00,3575           00006                           EXTEND
002708: 00,3576           30156                           DCA      MPAC       +1
002709: 00,3577           20156                           DAS      MPAC       +1
002710: 00,3600           60154                           AD       MPAC
002711: 00,3601           26154                           ADS      MPAC                                  #  NEITHER SHIFT OVERFLOWS.
002712: 00,3602           00006                           EXTEND
002713: 00,3603           30156                           DCA      MPAC       +1
002714: 00,3604           20156                           DAS      MPAC       +1
002715: 00,3605           60154                           AD       MPAC
002716: 00,3606           26154                           ADS      MPAC
002717: 00,3607           16073                           TCF      DANZIG
002718:


002720:                                                                                                  #           ARCSIN/ARCCOS ROUTINE.
002721:
002722: 00,3610           33631        ARCSIN             CAF      LASINEX                               #  COMPUTE ARCSIN BY USING THE IDENTITY
002723: 00,3611           13613                           TCF      +2                                    #  ARCSIN(X) = PI/2 - ARCCOS(X).
002724:
002725: 00,3612           33713        ARCCOS             CAF      LDANZIG                               #  (EXITS IMMEDIATELY).
002726: 00,3613           54136                           TS       ESCAPE
002727: 00,3614           06735                           TC       BRANCH                                #  TEST SIGN OF INPUT.
002728: 00,3615           13625                           TCF      ACOSST                                #  START IMMEDIATELY IF POSITIVE.
002729: 00,3616           13731                           TCF      ACOSZERO                              #  ARCCOS(0) = PI/2 = .25.
002730: 00,3617           00006                           EXTEND                                         #  IF NEGATIVE, USE THE IDENTITY
002731: 00,3620           40155                           DCS      MPAC                                  #  ARCCOS(X) = PI - ARCCOS(-X), FORCING
002732: 00,3621           52155                           DXCH     MPAC                                  #  ARGUMENT POSITIVE.
002733: 00,3622           33734                           CAF      TCSUBTR                               #  SET EXIT  TO DO ABOVE BEFORE
002734: 00,3623           56136                           XCH      ESCAPE                                #  ARCSIN/ARCCOS CONSIDERATIONS.
002735: 00,3624           54137                           TS       ESCAPE2
002736:
002737: 00,3625           44736        ACOSST             CS       HALF                                  #  TEST MAGNITUDE OF INPUT.
002738: 00,3626           60154                           AD       MPAC
002739: 00,3627           10000                           CCS      A
002740: 00,3630           13721                           TCF      ACOSOVF                               #  THIS IS PROBABLY AN OVERFLOW CASE.
002741:
002742: 00,3631           13707        LASINEX            TCF      ASINEX
002743:
002744: 00,3632           13642                           TCF      ACOSST2                               #  NO OVERFLOW - PROCEED.
002745:
002746: 00,3633           10155                           CCS      MPAC       +1                         #  IF MAJOR PART IS .5, CALL ANSWER 0
002747: 00,3634           34755                           CAF      ZERO                                  #  UNLESS MINOR PART NEGATIVE.
002748: 00,3635           13637                           TCF      ACOS=0
002749:
002750: 00,3636           13642                           TCF      ACOSST2
002751:
002752: 00,3637           54155        ACOS=0             TS       MPAC       +1
002753: 00,3640           54154                           TS       MPAC
002754: 00,3641           00136                           TC       ESCAPE
002755:
002756: 00,3642           00006        ACOSST2            EXTEND                                         #  NOW THAT ARGUMENT IS IN PROPER RANGE,
002757: 00,3643           40155                           DCS      MPAC                                  #  BEGIN COMPUTATION. USE HASTINGS
002758: 00,3644           64736                           AD       HALF                                  #  APPROXIMATION ARCCOS(X) = SQRT(1-X)P(X)
002759: 00,3645           52155                           DXCH     MPAC                                  #  IN A SCALED VERSION WHERE P(X) IS A
002760: 00,3646           52134                           DXCH     BUF2                                  #  SEVENTH ORDER POLYNOMIAL.
002761:
002762: 00,3647           03343                           TC       SQRTSUB                               #  RETURNS WITH NORMALIZED SQUARE ROOT.
002763:
002764: 00,3650           10135                           CCS      MPTEMP                                #  SEE IF UN-NORMALIZATION REQUIRED.
002765: 00,3651           13714                           TCF      ACOSSHR                               #  IF SO.
002766:


002768: 00,3652           52155        ACOS3              DXCH     MPAC                                  #  SET UP FOR POLYNOMIAL EVALUATION.
002769: 00,3653           52134                           DXCH     BUF2
002770: 00,3654           52155                           DXCH     MPAC
002771:
002772: 00,3655           07234                           TC       POLY
002773: 00,3656           00006                           DEC      6          B-14
002774: 00,3657           13240 23630                     2DEC     +.353553385                            #  COEFFICIENTS ARE C 2(+I)/PISQRT(2) WHERE
002775:
002776: 00,3661           74721 47775                     2DEC*    -.0483017006 B+1*                       #                    I
002777:
002778: 00,3663           02440 20237                     2DEC*    +.0200273085 B+2*                       #       WHERE C STANDS FOR ORIGINAL COEFFS.
002779:
002780: 00,3665           75067 70742                     2DEC*    -.0112931863 B+3*
002781:
002782: 00,3667           03436 26756                     2DEC*    +.00695311612 B+4*
002783:
002784: 00,3671           74037 57640                     2DEC*    -.00384617957 B+5*
002785:
002786: 00,3673           03046 07143                     2DEC*    +.001501297736 B+6*
002787:
002788: 00,3675           76654 42244                     2DEC*    -.000284160334 B+7*
002789:
002790:
002791: 00,3677           32470                           CAF      LBUF2                                 #  DO FINAL MULTIPLY AND GO TO ANY
002792: 00,3700           07120                           TC       DMPSUB     -1                         #  EPILOGUE SEQUENCES.
002793: 00,3701           00136                           TC       ESCAPE
002794:
002795: 00,3702           00006        SUBTR              EXTEND                                         #  EPILOGUE FOR NEGATIVE INPUTS TO ARCCOS.
002796: 00,3703           40155                           DCS      MPAC
002797: 00,3704           64736                           AD       HALF                                  #  FORMS PI - ARCCOS(-X) = ARCCOS(X).
002798: 00,3705           52155                           DXCH     MPAC
002799: 00,3706           00137                           TC       ESCAPE2                               #  GO TO POSSIBLE ARCSIN EPILOGUE.
002800:
002801: 00,3707           00006        ASINEX             EXTEND
002802: 00,3710           40155                           DCS      MPAC                                  #  ARCSIN EPILOGUE - GET ARCSIN(X)
002803: 00,3711           64737                           AD       QUARTER                               #  = PI/2 - ARCCOS(X).
002804: 00,3712           52155                           DXCH     MPAC
002805: 00,3713           16073        LDANZIG            TCF      DANZIG
002806:


002808: 00,3714           50000        ACOSSHR            INDEX    A                                     #  THE SHIFT RIGHT IS LESS THAN 14 SINCE
002809: 00,3715           34736                           CAF      BIT14                                 #  THE INPUT WAS NON-ZERO DP.
002810: 00,3716           54135                           TS       MPTEMP
002811: 00,3717           02073                           TC       VSHRRND                               #  DP SHIFT RIGHT AND ROUND.
002812: 00,3720           13652                           TCF      ACOS3                                 #  PROCEED.
002813:
002814: 00,3721           00006        ACOSOVF            EXTEND                                         #  IF MAJOR PART WAS ONLY 1 MORE THAN .5,
002815: 00,3722           13637                           BZF      ACOS=0                                #  CALL ANSWER ZERO.
002816:
002817: 00,3723           00006        ACOSABRT           EXTEND                                         #  IF OVERFLOW, CALL ANSWER ZERO BUT
002818: 00,3724           30165                           DCA      LOC                                   #  SOUND AN ALARM.
002819: 00,3725           05733                           TC       ALARM1
002820: 00,3726           01301                           OCT      1301
002821:
002822: 00,3727           34755                           CAF      ZERO
002823: 00,3730           13637                           TCF      ACOS=0
002824:
002825: 00,3731           34737        ACOSZERO           CAF      QUARTER                               #  ACOS(0) = PI/2.
002826: 00,3732           13640                           TCF      ACOS=0     +1                         #  SET MPAC AND EXIT VIA ESCAPE.
002827:
002828: 00,3733           77763        NEG12              DEC      -12        B-14
002829: 00,3734           13702        TCSUBTR            TCF      SUBTR
002830:


002832:                                                                                                  #           THE FOLLOWING INSTRUCTIONS ARE AVAILABLE FOR SETTING, MODIFYING, AND BRANCHING ON INDEX REGISTERS:
002833:
002834:                                                                                                  #           1.  AXT                ADDRESS TO INDEX TRUE.
002835:                                                                                                  #           1.  AXC                ADDRESS TO INDEX COMPLEMENTED.
002836:                                                                                                  #           3.  LXA                LOAD INDEX FROM ERASABLE.
002837:                                                                                                  #           4.  LXC                LOAD INDEX COMPLEMENTED FROM ERASABLE.
002838:                                                                                                  #           5.  SXA                STORE INDEX IN ERASABLE.
002839:                                                                                                  #           6.  XCHX               EXCHANGE INDEX REIGSTER WITH ERASABLE.
002840:
002841:                                                                                                  #           7.  INCR               INCREMENT INDEX REGISTER.
002842:                                                                                                  #           8.  XAD                ERASABLE ADD TO INDEX REGISTER.
002843:                                                                                                  #           9.  XSU                ERASABLE SUBTRACT FROM INDEX REGISTER.
002844:
002845:                                                                                                  #          10.  TIX                BRANCH ON INDEX REGISTER AND DECREMENT.
002846:
002847: 01,2350                                           BANK     01
002848:
002849: 01,2350                                           COUNT*   $$/INTER
002850: 01,2350           02445        AXT                TC       TAGSUB                                #  SELECT APPROPRIATE INDEX REGISTER.
002851: 01,2351           30117                           CA       POLISH
002852: 01,2352           50130        XSTORE             INDEX    INDEXLOC                              #  CONTAINS C(FIXLOC) OR C(FIXLOC)+1.
002853: 01,2353           54046                           TS       X1
002854: 01,2354           16073                           TCF      DANZIG
002855:
002856: 01,2355           02445        AXC                TC       TAGSUB
002857: 01,2356           40117                           CS       POLISH
002858: 01,2357           02352                           TC       XSTORE
002859:
002860: 01,2360           02433        LXA                TC       15ADRERS                              #  LOAD INDEX REGISTER FROM ERASABLE.
002861: 01,2361           50117                           INDEX    POLISH
002862: 01,2362           30000                           CA       0
002863: 01,2363           12352                           TCF      XSTORE
002864:
002865: 01,2364           02433        LXC                TC       15ADRERS                              #  LOAD NDX REG FROM ERASABLE COMPLEMENTED.
002866: 01,2365           50117                           INDEX    POLISH
002867: 01,2366           40000                           CS       0
002868: 01,2367           12352                           TCF      XSTORE
002869:
002870: 01,2370           02433        SXA                TC       15ADRERS                              #  STORE INDEX REGISTER IN ERASABLE.
002871: 01,2371           50130                           INDEX    INDEXLOC
002872: 01,2372           30046                           CA       X1
002873: 01,2373           50117        MSTORE1            INDEX    POLISH
002874: 01,2374           54000                           TS       0
002875: 01,2375           16073                           TCF      DANZIG
002876:


002878: 01,2376           02433        XCHX               TC       15ADRERS                              #  EXCHANGE INDEX REGISTER WITH ERASABLE.
002879: 01,2377           50117                           INDEX    POLISH
002880: 01,2400           30000                           CA       0
002881: 01,2401           50130                           INDEX    INDEXLOC
002882: 01,2402           56046                           XCH      X1
002883: 01,2403           12373                           TCF      MSTORE1
002884:
002885: 01,2404           02433        XAD                TC       15ADRERS                              #  ADD ERASABLE TO INDEX REGISTER.
002886: 01,2405           50117                           INDEX    POLISH
002887: 01,2406           30000                           CA       0
002888: 01,2407           50130        XAD2               INDEX    INDEXLOC
002889: 01,2410           26046                           ADS      X1                                    #  IGNORING OVERFLOWS.
002890: 01,2411           16073                           TCF      DANZIG
002891:
002892: 01,2412           02445        INCR               TC       TAGSUB                                #  INCREMENT INDEX REGISTER.
002893: 01,2413           30117                           CA       POLISH
002894: 01,2414           12407                           TCF      XAD2
002895:
002896: 01,2415           02433        XSU                TC       15ADRERS                              #  SUBTRACT ERASABLE FROM INDEX REGISTER.
002897: 01,2416           50117                           INDEX    POLISH
002898: 01,2417           40000                           CS       0
002899: 01,2420           12407                           TCF      XAD2
002900:
002901: 01,2421           02445        TIX                TC       TAGSUB                                #  BRANCH AND DECREMENT ON INDEX.
002902: 01,2422           50130                           INDEX    INDEXLOC
002903: 01,2423           40050                           CS       S1
002904: 01,2424           50130                           INDEX    INDEXLOC
002905: 01,2425           60046                           AD       X1
002906: 01,2426           00006                           EXTEND                                         #  NO OPERATION IF DECREMENTED INDEX IS
002907: 01,2427           66073                           BZMF     DANZIG                                #  NEGATIVE OR ZERO.
002908:
002909: 01,2430           50130        DOTIXBR            INDEX    INDEXLOC
002910: 01,2431           56046                           XCH      X1                                    #  IGNORING OVERFLOWS.
002911:
002912: 01,2432           16660                           TCF      GOTO                                  #  DO THE BRANCH USING THE CADR IN POLISH.
002913:


002915:                                                                                                  #           SUBROUTINE TO CONVERT AN ERASABLE ADDRESS (11 BITS) TO AN EBANK SETTING AND SUBADDRESS.
002916:
002917: 01,2433           40117        15ADRERS           CS       POLISH
002918: 01,2434           64772                           AD       DEC45
002919: 01,2435           10000                           CCS      A                                     #  DOES THE ADDRESS POINT TO THE WORK AREA?
002920: 01,2436           30120                           CA       FIXLOC                                #  YES.  ADD FIXLOC.  EBANK OK AS IS.
002921: 01,2437           12444                           TCF      +5
002922:
002923: 01,2440           35007                           CA       OCT1400                               #  NO.  SET EBANK & MAKE UP SUBADDRESS.
002924: 01,2441           56117                           XCH      POLISH
002925: 01,2442           54003                           TS       EBANK
002926: 01,2443           74357                           MASK     LOW8
002927: 01,2444           26117                 +5        ADS      POLISH                                #  FALL INTO TAGSUB, AND RETURN VIA Q.
002928:
002929:                                                                                                  #           SUBROUTINE WHICH SETS THE ADDRESS OF THE SPECIFIED INDEX IN INDEXLOC. (ACTUALLY, THE ADDRESS -38D.)
002930:
002931: 01,2445           30120        TAGSUB             CA       FIXLOC
002932: 01,2446           54130                           TS       INDEXLOC
002933:
002934: 01,2447           10020                           CCS      CYR                                   #  BIT 15 SPECIFIES INDEX.
002935: 01,2450           24130                           INCR     INDEXLOC                              #  0 MEANS USE X2.
002936: 01,2451           00002                           TC       Q
002937: 01,2452           00002                           TC       Q                                     #  1 FOR X1.
002938:


002940:                                                                                                  #           MISCELLANEOUS OPERATION CODES WITH DIRECT ADDRESSES. INCLUDED HERE ARE:
002941:
002942:                                                                                                  #           1.  ITA                STORE QPRET (RETURN ADDRESS) IN ERASABLE.
002943:                                                                                                  #           2.  CALL               CALL A SUBROUTINE, LEAVING RETURN IN QPRET.
002944:                                                                                                  #           3.  RTB                RETURN TO BASIC LANGUAGE AT THE GIVEN ADDRESS.
002945:                                                                                                  #           4.  BHIZ               BRANCH IF THE HIGH ORDER OF MPAC IS ZERO (SINGLE PRECISION).
002946:                                                                                                  #           5.  BOV                BRANCH ON OVERFLOW.
002947:                                                                                                  #           6.  GOTO               SIMPLE SEQUENCE CHANGE.
002948:
002949: 01,2453           10020        RTB/BHIZ           CCS      CYR
002950: 01,2454           30117        RTB                CA       POLISH
002951: 01,2455           04621                           TC       SWCALL     -1                         #  SO A "TC Q" FROM ROUTINE LEADS TO DANZIG
002952:
002953: 01,2456           10154        BHIZ               CCS      MPAC
002954: 01,2457           16073                           TCF      DANZIG
002955: 01,2460           16660                           TCF      GOTO
002956: 01,2461           16073                           TCF      DANZIG
002957: 01,2462           16660                           TCF      GOTO
002958:
002959: 01,2463           10121        BOV(B)             CCS      OVFIND                                #  BRANCH ON OVERFLOW TO BASIC OR INTERP.
002960: 01,2464           12466                           TCF      +2
002961: 01,2465           16073                           TCF      DANZIG
002962: 01,2466           54121                           TS       OVFIND
002963: 01,2467           10020                           CCS      CYR
002964: 01,2470           12454                           TCF      RTB                                   #  IF BASIC.
002965: 01,2471           00360        B5TOB8             OCT      360
002966: 01,2472           16660                           TCF      GOTO
002967:


002969: 01,2473           10020        BZE/GOTO           CCS      CYR                                   #  SEE WHICH OP-CODE IS DESIRED.
002970: 01,2474           06735                           TC       BRANCH                                #  DO BZE.
002971: 01,2475           16073                           TCF      DANZIG
002972: 01,2476           16660                           TCF      GOTO                                  #  DO GOTO.
002973: 01,2477           16073                           TCF      DANZIG
002974:
002975: 01,2500           10020        BPL/BMN            CCS      CYR
002976: 01,2501           12507                           TCF      BPL
002977: 01,2502           12000        5B10               DEC      5          B+10                       #  SHIFTS OP CODE IN SWITCH INSTRUCTION ADR
002978:
002979: 01,2503           06735                           TC       BRANCH                                #  DO BMN.
002980: 01,2504           16073                           TCF      DANZIG
002981: 01,2505           16073                           TCF      DANZIG
002982: 01,2506           16660                           TCF      GOTO                                  #  ONLY IF NNZ.
002983:
002984: 01,2507           06735        BPL                TC       BRANCH
002985: 01,2510           16660                           TCF      GOTO                                  #  IF POSITIVE OR ZERO.
002986: 01,2511           16660                           TCF      GOTO
002987: 01,2512           16073                           TCF      DANZIG
002988:
002989: 01,2513           10020        CALL/ITA           CCS      CYR
002990: 01,2514           16652                           TCF      CALL
002991:
002992: 01,2515           05706                           TC       CCSHOLE
002993: 01,2516           02433                           TC       15ADRERS                              #  STORE QPRET. (TAGSUB AFTER 15ADRERS IS
002994: 01,2517           50120                           INDEX    FIXLOC                                #  SLOW IN THIS CASE, BUT SAVES STORAGE.)
002995: 01,2520           30052                           CA       QPRET
002996: 01,2521           12373                           TCF      MSTORE1
002997:


002999:                                                                                                  #           THE FOLLOWING OPERATIONS ARE AVAILABLE FOR ALTERING AND TESTING INTERPRETIVE SWITCHES:
003000:
003001:                                                                                                  #  00       BONSET                 SET A SWITCH AND DO A GOTO IF IT WAS ON.
003002:                                                                                                  #  01       SETGO                  SET A SWITCH AND DO A GOTO.
003003:                                                                                                  #  02       BOFSET                 SET A SWITCH AND DO A GOTO IF IT WAS OFF
003004:                                                                                                  #  03       SET                    SET A SWITCH.
003005:
003006:                                                                                                  #  04       BONINV                 INVERT A SWITCH AND BRANCH IF IT WAS ON.
003007:                                                                                                  #  05       INVGO                  INVERT A SWITCH AND DO A GOTO.
003008:                                                                                                  #  06       BOFINV                 INVERT A SWITCH AND BRANCH IF IT WAS OFF
003009:                                                                                                  #  07       INVERT                 INVERT A SWITCH.
003010:
003011:                                                                                                  #  10       BONCLR                 CLEAR A SWITCH AND BRANCH IF IT WAS ON.
003012:                                                                                                  #  11       CLRGO                  CLEAR A SWITCH AND DO A GOTO.
003013:                                                                                                  #  12       BOFCLR                 CLEAR A SWITCH AND BRANCH IF IT WAS OFF.
003014:                                                                                                  #  13       CLEAR                  CLEAR A SWITCH.
003015:
003016:                                                                                                  #  14       BON                    BRANCH IF A SWITCH WAS ON.
003017:                                                                                                  #  16       BOFF                   BRANCH IF A SWITCH WAS OFF.
003018:
003019:
003020:                                                                                                  #           THE ADDRESS SUPPLIED WITH THE SWITCH INSTRUCTION IS INTERPRETED AS FOLLOWS:
003021:
003022:                                                                                                  #           BITS 1-4    SWITCH BIT NUMBER (1-15).
003023:                                                                                                  #           BITS 5-8    SWITCH OPERATION NUMBER.
003024:                                                                                                  #           BITS 9-     SWITCH WORD NUMBER (UP TO 64 SWITCH WORDS).
003025:
003026:                                                                                                  #           THE ADDRESS ITSELF IS MADE UP BY THE YUL SYSTEM ASSEMBLER. THE BRANCH INSTRUCTIONS REQUIRE TWO
003027:                                                                                                  #  ADDRESSES, THE SECOND TAKEN AS THE DIRECT (OR INDIRECT IF IN ERASABLE) ADDRESS OF THE BRANCH.
003028:
003029:
003030: 01,2522           34762        SWITCHES           CAF      LOW4                                  #  LEAVE THE SWITCH BIT IN  SWBIT  .
003031: 01,2523           70117                           MASK     POLISH
003032: 01,2524           50000                           INDEX    A
003033: 01,2525           34735                           CAF      BIT15                                 #  (NUMBER FROM LEFT TO RIGHT.)
003034: 01,2526           54131                           TS       SWBIT
003035:
003036: 01,2527           34745                           CAF      BIT7                                  #  LEAVE THE SWITCH NUMBER IN SWWORD.
003037: 01,2530           00006                           EXTEND
003038: 01,2531           70117                           MP       POLISH
003039: 01,2532           54130                           TS       SWWORD
003040:
003041: 01,2533           00004                           INHINT                                         #  DURING SWITCH CHANGE SO RUPT CAN USE TOO
003042: 01,2534           50000                           INDEX    A                                     #  LEAVE THE SWITCH WORD ITSELF IN L.
003043: 01,2535           30074                           CA       STATE
003044: 01,2536           54002                           TS       Q                                     #  Q WILL BE USED AS A CHANNEL.


003046: 01,2537           34741                           CAF      BIT11
003047: 01,2540           00006                           EXTEND                                         #  DISPATCH SWITCH BIT OPERATION AS IN BITS
003048: 01,2541           70117                           MP       POLISH                                #  7-8 OF POLISH.
003049: 01,2542           72602                           MASK     B3TOB4                                #  GETS 4X2-BIT CODE.
003050: 01,2543           50000                           INDEX    A
003051: 01,2544           12545                           TCF      +1
003052:
003053: 01,2545           30131                 +1        CA       SWBIT                                 #  00 - SET SWITCH IN QUESTION.
003054: 01,2546           00006                           EXTEND
003055: 01,2547           04002                           ROR      QCHAN
003056: 01,2550           12557                           TCF      SWSTORE
003057:
003058: 01,2551           30131                 +5        CA       SWBIT                                 #  01 - INVERT SWITCH.
003059: 01,2552           00006                           EXTEND
003060: 01,2553           06002                           RXOR     QCHAN
003061: 01,2554           12557                           TCF      SWSTORE
003062:
003063: 01,2555           40131                 +9D       CS       SWBIT                                 #  10 - CLEAR.
003064: 01,2556           70002                           MASK     Q
003065: 01,2557           50130        SWSTORE            INDEX    SWWORD
003066: 01,2560           54074                           TS       STATE                                 #  NEW SWITCH WORD.
003067:


003069: 01,2561           00003                 +13D      RELINT                                         #  11 - NOOP.
003070: 01,2562           34737                           CAF      BIT13
003071: 01,2563           00006                           EXTEND                                         #  DISPATCH SEQUCE CHANGING OR BRANCHING
003072: 01,2564           70117                           MP       POLISH                                #  CODE.
003073: 01,2565           72602                           MASK     B3TOB4
003074: 01,2566           50000                           INDEX    A
003075: 01,2567           12570                           TCF      +1                                    #  ORIGINALLY STORED IN BITS 5-6.
003076:
003077: 01,2570           40002                 +1        CS       Q                                     #  00 - BRANCH IF ON.
003078: 01,2571           70131        TEST               MASK     SWBIT
003079: 01,2572           10000                           CCS      A
003080: 01,2573           12603                           TCF      SWSKIP
003081:
003082: 01,2574           16727                 +5        TCF      SWBRANCH                              #  01 - GO TO.
003083:
003084: 01,2575           12603                           TCF      SWSKIP                                #  HERE ONLY ON BIT 15.
003085:
003086: 01,2576           05706                           TC       CCSHOLE
003087: 01,2577           05706                           TC       CCSHOLE
003088:
003089: 01,2600           30002                 +9D       CA       Q                                     #  10 - BRANCH IF OFF.
003090: 01,2601           12571                           TCF      TEST
003091:
003092: 01,2602           00014        B3TOB4             OCT      0014
003093: 01,2603           24164        SWSKIP             INCR     LOC
003094:
003095: 01,2604  01,2522               SW/                EQUALS   SWITCHES
003096:
003097: 01,2604           16073                 +13D      TCF      DANZIG                                #  11 - NOOP.

End of include-file INTERPRETER.agc.  Parent file is MAIN.agc


