
Source Code


000002:                                                                                                  ## Copyright:   Public domain.
000003:                                                                                                  ## Filename:    KALMAN_FILTER.agc
000004:                                                                                                  ## Purpose:     A log section of Zerlina 56, the final revision of
000005:                                                                                                  ##              Don Eyles's offline development program for the variable
000006:                                                                                                  ##              guidance period servicer. It also includes a new P66 with LPD
000007:                                                                                                  ##              (Landing Point Designator) capability, based on an idea of John
000008:                                                                                                  ##              Young's. Neither of these advanced features were actually flown,
000009:                                                                                                  ##              but Zerlina was also the birthplace of other big improvements to
000010:                                                                                                  ##              Luminary including the terrain model and new (Luminary 1E)
000011:                                                                                                  ##              analog display programs. Zerlina was branched off of Luminary 145,
000012:                                                                                                  ##              and revision 56 includes all changes up to and including Luminary
000013:                                                                                                  ##              183. It is therefore quite close to the Apollo 14 program,
000014:                                                                                                  ##              Luminary 178, where not modified with new features.
000015:                                                                                                  ## Reference:   pp. 1458-1459
000016:                                                                                                  ## Assembler:   yaYUL
000017:                                                                                                  ## Contact:     Ron Burkey <info@sandroid.org>.
000018:                                                                                                  ## Website:     www.ibiblio.org/apollo/index.html
000019:                                                                                                  ## Mod history: 2017-07-28 MAS  Created from Luminary 210.
000020:                                                                                                  ##              2017-08-29 RSB  Transcribed.
000021:


000023: 17,3777  E6,1522                                  EBANK=   NO.UJETS
000024: 16,3644                                           BANK     16
000025: 16,2000                                           SETLOC   DAPS1
000026: 16,2000                                           BANK
000027:
000028: 16,3644                                           COUNT*   $$/DAP
000029:
000030: 16,3644           34752        RATELOOP           CA       TWO
000031: 16,3645           55743                           TS       DAPTEMP6
000032: 16,3646           60000                           DOUBLE
000033: 16,3647           54002                           TS       Q
000034: 16,3650           51743                           INDEX    DAPTEMP6
000035: 16,3651           11524                           CCS      TJP
000036: 16,3652           13654                           TCF      +2
000037: 16,3653           13673                           TCF      LOOPRATE
000038: 16,3654           63734                           AD       -100MST6
000039: 16,3655           00006                           EXTEND
000040: 16,3656           63712                           BZMF     SMALLTJU
000041: 16,3657           51743                           INDEX    DAPTEMP6
000042: 16,3660           11524                           CCS      TJP
000043: 16,3661           33734                           CA       -100MST6
000044: 16,3662           13664                           TCF      +2
000045: 16,3663           43734                           CS       -100MST6
000046: 16,3664           51743                           INDEX    DAPTEMP6
000047: 16,3665           27524                           ADS      TJP
000048: 16,3666           51743                           INDEX    DAPTEMP6
000049: 16,3667           11524                           CCS      TJP
000050: 16,3670           43620                           CS       -100MS                                #  0.1 AT 1
000051: 16,3671           13673                           TCF      +2
000052: 16,3672           33620                           CA       -100MS
000053: 16,3673           00006        LOOPRATE           EXTEND
000054: 16,3674           51743                           INDEX    DAPTEMP6
000055: 16,3675           71521                           MP       NO.PJETS
000056: 16,3676           30001                           CA       L
000057: 16,3677           51743                           INDEX    DAPTEMP6
000058: 16,3700           55736                           TS       DAPTEMP1                              #  SIGNED TORQUE AT 1 JET-SEC FOR FILTER
000059: 16,3701           00006                           EXTEND
000060: 16,3702           74742                           MP       BIT10                                 #  RESCALE TO 32; ONE BIT ABOUT 2 JET-MSEC
000061: 16,3703           00006                           EXTEND
000062: 16,3704           63735                           BZMF     NEGTORK
000063: 16,3705           50002        STORTORK           INDEX    Q                                     #  INCREMENT DOWNLIST REGISTER.
000064: 16,3706           27513                           ADS      DOWNTORK                              #    NOTE: NOT INITIALIZED; OVERFLOWS.
000065:
000066: 16,3707           11743                           CCS      DAPTEMP6
000067: 16,3710           13645                           TCF      RATELOOP   +1
000068: 16,3711           13721                           TCF      ROTORQUE
000069: 16,3712           34755        SMALLTJU           CA       ZERO
000070: 16,3713           51743                           INDEX    DAPTEMP6
000071: 16,3714           57524                           XCH      TJP
000072: 16,3715           00006                           EXTEND


000074: 16,3716           74760                           MP       ELEVEN                                #  10.24 PLUS
000075: 16,3717           30001                           CA       L
000076: 16,3720           13673                           TCF      LOOPRATE
000077: 16,3721           31737        ROTORQUE           CA       DAPTEMP2
000078: 16,3722           61740                           AD       DAPTEMP3
000079: 16,3723           00006                           EXTEND
000080: 16,3724           71532                           MP       1JACCR
000081: 16,3725           55746                           TS       JETRATER
000082: 16,3726           41740                           CS       DAPTEMP3
000083: 16,3727           61737                           AD       DAPTEMP2
000084: 16,3730           00006                           EXTEND
000085: 16,3731           71531                           MP       1JACCQ
000086: 16,3732           55745                           TS       JETRATEQ
000087: 16,3733           12316                           TCF      BACKP
000088: 16,3734           77537        -100MST6           DEC      -160       B-14
000089:
000090: 16,3735           40000        NEGTORK            COM
000091: 16,3736           24002                           INCR     Q
000092: 16,3737           13705                           TCF      STORTORK
000093:

End of include-file KALMAN_FILTER.agc.  Parent file is MAIN.agc


