
Source Code


000002:                                                                                                  ## Copyright:   Public domain.
000003:                                                                                                  ## Filename:    LANDING_ANALOG_DISPLAYS.agc
000004:                                                                                                  ## Purpose:     A log section of Zerlina 56, the final revision of
000005:                                                                                                  ##              Don Eyles's offline development program for the variable
000006:                                                                                                  ##              guidance period servicer. It also includes a new P66 with LPD
000007:                                                                                                  ##              (Landing Point Designator) capability, based on an idea of John
000008:                                                                                                  ##              Young's. Neither of these advanced features were actually flown,
000009:                                                                                                  ##              but Zerlina was also the birthplace of other big improvements to
000010:                                                                                                  ##              Luminary including the terrain model and new (Luminary 1E)
000011:                                                                                                  ##              analog display programs. Zerlina was branched off of Luminary 145,
000012:                                                                                                  ##              and revision 56 includes all changes up to and including Luminary
000013:                                                                                                  ##              183. It is therefore quite close to the Apollo 14 program,
000014:                                                                                                  ##              Luminary 178, where not modified with new features.
000015:                                                                                                  ## Reference:   pp. 890-898
000016:                                                                                                  ## Assembler:   yaYUL
000017:                                                                                                  ## Contact:     Ron Burkey <info@sandroid.org>.
000018:                                                                                                  ## Website:     www.ibiblio.org/apollo/index.html
000019:                                                                                                  ## Mod history: 2017-07-28 MAS  Created from Luminary 210.
000020:                                                                                                  ##              2017-08-19 MAS  Updated for Zerlina 56.
000021:


000023:                                                                                                  #  ****************************************************************************************************************
000024:                                                                                                  #  LANADISP:  DISPLAY INERTIAL DATA ROUTINE FOR DESCENT AND ABORTS                            THIS VERSION BY EYLES
000025:                                                                                                  #  ****************************************************************************************************************
000026:
000027: 21,2334                                           BANK     21
000028: 21,2000                                           SETLOC   R10
000029: 21,2000                                           BANK
000030:
000031: 21,2334  E7,1777                                  EBANK=   END-E7
000032: 21,2334                                           COUNT*   $$/R10
000033:
000034:                                                                                                  #  ************************************************************************
000035:                                                                                                  #  COMPUTE ALTITUDE AND ALTITUDE-RATE
000036:                                                                                                  #  ************************************************************************
000037: 21,2334           31722        LANADISP           CA       RUNITX                                #  COMPUTE RADIAL VELOCITY
000038: 21,2335           00006                           EXTEND
000039: 21,2336           71726                           MP       VVECTX
000040: 21,2337           53735                           DXCH     ALTRATE
000041: 21,2340           31722                           CA       RUNITX                                #  COMPUTE THE MORE SENSITIVE TERM IN DP
000042: 21,2341           00006                           EXTEND
000043: 21,2342           71727                           MP       VVECTX     +1
000044: 21,2343           54001                           TS       L
000045: 21,2344           34755                           CAF      ZERO
000046: 21,2345           21735                           DAS      ALTRATE
000047: 21,2346           31723                           CA       RUNITY                                #  NOTE:  WITH NORMAL DESCENT IMU ALIGNMENT
000048: 21,2347           00006                           EXTEND                                         #    THIS TERM IS ALWAYS ZERO, BUT ALTRATE
000049: 21,2350           71730                           MP       VVECTY                                #    CAN BE DISPLAYED DURING ASCENT TOO
000050: 21,2351           21735                           DAS      ALTRATE
000051: 21,2352           31724                           CA       RUNITZ
000052: 21,2353           00006                           EXTEND
000053: 21,2354           71732                           MP       VVECTZ
000054: 21,2355           21735                           DAS      ALTRATE
000055:
000056: 21,2356           31721                           CA       DALTRATE                              #  COMPENSATE FOR CHANGE IN DIRECTION OF R
000057: 21,2357           00006                           EXTEND
000058: 21,2360           71725                           MP       DT
000059: 21,2361           21735                           DAS      ALTRATE                               #  ALTRATE IN UNITS OF 2(5) M/CS
000060:
000061: 21,2362           00006                           EXTEND
000062: 21,2363           31735                           DCA      ALTRATE
000063: 21,2364           52064                           DXCH     ALTRTEMP
000064: 21,2365           00006                           EXTEND
000065: 21,2366           31720                           DCA      HDOTLAD
000066: 21,2367           20064                           DAS      ALTRTEMP                              #  AVERAGE ALTRATE IN UNITS OF 2(4) M/CS
000067:
000068:                                                                                                  #  THE FOLLOWING COMPUTATION FAILS IF DT EXCEEDS 20.47 SECONDS (UNLIKELY).
000069:
000070: 21,2370           31725                           CA       DT
000071: 21,2371           00006                           EXTEND


000073: 21,2372           74750                           MP       BIT4
000074: 21,2373           30001                           CA       L                                     #  FETCH DT FROM L IN UNITS OF 2(11) CS
000075: 21,2374           00006                           EXTEND
000076: 21,2375           70063                           MP       ALTRTEMP
000077: 21,2376           53737                           DXCH     ALTITUDE
000078: 21,2377           00006                           EXTEND
000079: 21,2400           31716                           DCA      HCALCLAD
000080: 21,2401           21737                           DAS      ALTITUDE                              #  ALTITUDE IN UNITS OF 2(15) METERS
000081:
000082:                                                                                                  #  ************************************************************************
000083:                                                                                                  #  SEND OUT ALTITUDE-RATE IF POSSIBLE
000084:                                                                                                  #  ************************************************************************
000085:
000086: 21,2402           34746        LANACONT           CAF      BIT6                                  #  IS THE METER MODE SWITCH IN PGNCS?
000087: 21,2403           00006                           EXTEND
000088: 21,2404           02030                           RAND     CHAN30
000089: 21,2405           10000                           CCS      A
000090: 21,2406           12725                           TCF      DISPRSET                              #  NO:   GO RESET
000091:
000092: 21,2407           40075                           CS       FLAGWRD1                              #  YES:  IS INITIALIZATION IN ORDER?
000093: 21,2410           74736                           MASK     DIDFLBIT
000094: 21,2411           10000                           CCS      A
000095: 21,2412           12700                           TCF      DISPINIT                              #  YES:  THEN GO DO IT
000096:
000097: 21,2413           34752                           CAF      BIT2                                  #  NO:   ARE RR ERROR COUNTERS ENABLED?
000098: 21,2414           00006                           EXTEND
000099: 21,2415           02012                           RAND     CHAN12
000100: 21,2416           00006                           EXTEND
000101: 21,2417           12725                           BZF      DISPRSET                              #  NO:   REINITIALIZE DISPLAYS
000102:
000103: 21,2420           00006        ALTRROUT           EXTEND                                         #  YES:  SIGNIFY ALTITUDE-RATE (BIT2 IN A)
000104: 21,2421           05014                           WOR      CHAN14
000105:
000106: 21,2422           00006                           EXTEND
000107: 21,2423           31735                           DCA      ALTRATE
000108: 21,2424           20001                           DDOUBL                                         #  RESCALE ALTRATE TO UNITS OF 2(2) M/CS
000109: 21,2425           20001                           DDOUBL
000110: 21,2426           20001                           DDOUBL
000111: 21,2427           00006                           EXTEND
000112: 21,2430           72004                           MP       ALTRCONV                              #  RESCALE TO UNITS OF .5 F/S/BIT
000113:
000114: 21,2431           56001                           XCH      L                                     #  ROUND TO NEAREST .5 F/S
000115: 21,2432           60000                           DOUBLE
000116: 21,2433           54002                           TS       Q
000117: 21,2434           34755                           CAF      ZERO
000118: 21,2435           26001                           ADS      L
000119:
000120: 21,2436           64735                           AD       NEGMAX
000121: 21,2437           54001                           TS       L
000122: 21,2440           12443                           TCF      +3


000124: 21,2441           60001                           AD       L
000125: 21,2442           40000                           COM
000126: 21,2443           56060                 +3        XCH      ALTM
000127:
000128: 21,2444           34751                           CAF      BIT3
000129: 21,2445           00006                           EXTEND
000130: 21,2446           05014                           WOR      CHAN14
000131:
000132: 21,2447           35752                           CA       TWELVE                                #  PAUSE 12 CS FOR ALTRATE TO BE READ OUT
000133: 21,2450           05235                           TC       VARDELAY                              #    (MUST BE > 100 MS TO WORK ON THE LMS)
000134:
000135: 21,2451           44752        ALTROUT            CS       BIT2                                  #  SIGNIFY ALTITUDE
000136: 21,2452           00006                           EXTEND
000137: 21,2453           03014                           WAND     CHAN14
000138:
000139: 21,2454           31737                           CA       ALTITUDE   +1
000140: 21,2455           00006                           EXTEND
000141: 21,2456           72005                           MP       ALTCONV
000142: 21,2457           54001                           TS       L
000143: 21,2460           34755                           CAF      ZERO
000144: 21,2461           52064                           DXCH     ALTTEMP
000145: 21,2462           31736                           CA       ALTITUDE
000146: 21,2463           00006                           EXTEND
000147: 21,2464           72005                           MP       ALTCONV
000148: 21,2465           20064                           DAS      ALTTEMP                               #  ALTITUDE IN UNITS OF 9.380 FEET/BIT
000149:
000150: 21,2466           52064                           DXCH     ALTTEMP
000151: 21,2467           20001                           DDOUBL
000152: 21,2470           20001                           DDOUBL                                         #  RESCALE TO UNITS OF 2.345 FEET/BIT
000153: 21,2471           54000                           OVSK
000154: 21,2472           12476                           TCF      +4                                    #  NO OVERFLOW:  -38420 < ALTITUDE < +38420
000155:
000156: 21,2473           74733                           MASK     POSMAX                                #  RESET OVERFLOW
000157: 21,2474           64735                           AD       BIT15
000158: 21,2475           12502                           TCF      +5
000159:
000160: 21,2476           10000                 +4        CCS      A                                     #  APPLY LOWER LIMIT OF POSITIVE ZERO
000161: 21,2477           64753                           AD       ONE
000162: 21,2500           12502                           TCF      +2
000163: 21,2501           34755                           CAF      ZERO
000164:
000165: 21,2502           56060                 +5        XCH      ALTM
000166: 21,2503           34751                           CAF      BIT3
000167: 21,2504           00006                           EXTEND
000168: 21,2505           05014                           WOR      CHAN14
000169:
000170:                                                                                                  #  ************************************************************************
000171:                                                                                                  #  SEND OUT FORWARD AND LATERAL VELOCITIES
000172:                                                                                                  #  ************************************************************************
000173:


000175: 21,2506           02565                           TC       CROSCOMP                              #  FIRST CALL SUBROUTINE TO COMPUTE THEM
000176:
000177: 21,2507           34742                           CAF      BIT10                                 #  1/32 TO ITEMP2 FOR USE AS DIVISOR BELOW
000178: 21,2510           54062                           TS       ITEMP2
000179:
000180: 21,2511           32001                           CAF      MAXVEL                                #  LIMIT COMMAND TO 198.645 F/S
000181: 21,2512           22070                           LXCH     FORVTEMP
000182: 21,2513           02745                           TC       LADLIMIT
000183: 21,2514           22071                           LXCH     FORVTEMP   +1
000184: 21,2515           00006                           EXTEND                                         #  RESCALE TO UNITS OF ONE M/CS
000185: 21,2516           10062                           DV       ITEMP2
000186: 21,2517           00006                           EXTEND                                         #  RESCALE TO UNITS OF .5571 F/S/BIT
000187: 21,2520           72003                           MP       VELCONV
000188: 21,2521           56001                           XCH      L                                     #  ROUND TO NEAREST .5571 F/S
000189: 21,2522           60000                           DOUBLE
000190: 21,2523           54002                           TS       Q
000191: 21,2524           12526                           TCF      FORVOUT
000192: 21,2525           26001                           ADS      L
000193: 21,2526           41741        FORVOUT            CS       FORVMETR                              #  SUBTRACT METER INDICATOR TO GET CHANGE
000194: 21,2527           26001                           ADS      L
000195: 21,2530           32002                           CA       MAXDBITS
000196: 21,2531           02745                           TC       LADLIMIT                              #  LIMIT CHANGE TO ABOUT 300 F/S
000197: 21,2532           64754                           AD       NEG0
000198: 21,2533           54054                           TS       CDUSCMD
000199: 21,2534           27741                           ADS      FORVMETR                              #  UPDATE METER INDICATOR
000200:
000201: 21,2535           32001                           CAF      MAXVEL                                #  LIMIT COMMAND TO 198.645 F/S
000202: 21,2536           22072                           LXCH     LATVEL
000203: 21,2537           02745                           TC       LADLIMIT
000204: 21,2540           22073                           LXCH     LATVEL     +1
000205: 21,2541           00006                           EXTEND                                         #  RESCALE TO UNITS OF ONE M/CS
000206: 21,2542           10062                           DV       ITEMP2
000207: 21,2543           00006                           EXTEND                                         #  RESCALE TO UNITS OF .5571 F/S/BIT
000208: 21,2544           72003                           MP       VELCONV
000209: 21,2545           56001                           XCH      L                                     #  ROUND TO NEAREST .5571 F/S
000210: 21,2546           60000                           DOUBLE
000211: 21,2547           54002                           TS       Q
000212: 21,2550           12552                           TCF      LATVOUT
000213: 21,2551           26001                           ADS      L
000214: 21,2552           41740        LATVOUT            CS       LATVMETR                              #  SUBTRACT METER INDICATOR TO GET CHANGE
000215: 21,2553           26001                           ADS      L
000216: 21,2554           32002                           CAF      MAXDBITS
000217: 21,2555           02745                           TC       LADLIMIT                              #  LIMIT CHANGE TO ABOUT 300 F/S
000218: 21,2556           64754                           AD       NEG0
000219: 21,2557           54053                           TS       CDUTCMD
000220: 21,2560           27740                           ADS      LATVMETR                              #  UPDATE METER INDICATOR
000221:
000222: 21,2561           35020                           CAF      BITSET                                #  SET DRIVE BITS
000223: 21,2562           00006                           EXTEND
000224: 21,2563           05014                           WOR      CHAN14
000225:


000227: 21,2564           05272        LANADEND           TC       TASKOVER
000228:
000229:                                                                                                  #  ************************************************************************
000230:                                                                                                  #  SUBROUTINE TO COMPUTE FORWARD AND LATERAL VELOCITIES
000231:                                                                                                  #  ************************************************************************
000232:
000233:                                                                                                  #      THE SCALARS VHY AND VHZ, COMPUTED NEXT, ARE THE VELOCITIES ALONG UNIT VECTORS UHYP AND UHZP. UHYP NORMAL
000234:                                                                                                  #  TO THE PRE-PDI ORBITAL PLANE, UHZP IN TURN NORMAL TO UHYP AND THE POSITION VECTOR.  NOW SINCE FOR THE "LANDING
000235:                                                                                                  #  ALIGNMENT" OF THE IMU THE STABLE-MEMBER Y-AXIS IS DEFINED THE SAME WAY AS UHYP, VVECTY IS PRECISELY VHY.
000236:                                                                                                  #  FURTHERMORE, THE Y-TERM OF THE VHZ COMPUTATION DROPS OUT, AND THE FOLLOWING USEFUL EQUALITIES BECOME TRUE:
000237:                                                                                                  #  UHZPX = - RUNITZ AND UHZPZ = RUNITX.  DRAW A PICTURE TO BE CONVINCED.
000238:
000239:                                                                                                  #      NOTE THAT IN THIS VERSION CROSS-POINTER DISPLAYS ARE OUTPUT DURING ASCENT AND ABORTS AS WELL AS DESCENT.
000240:
000241: 21,2565           40074        CROSCOMP           CS       FLAGWRD0                              #  IS R10FLAG SET TO INDICATE ASCENT?
000242: 21,2566           74752                           MASK     R10FLBIT
000243: 21,2567           00006                           EXTEND
000244: 21,2570           12667                           BZF      APSLAD                                #  YES:  DISPLAY LATVEL IN INERTIAL AXES
000245:
000246: 21,2571           41724                           CS       RUNITZ                                #  NO:   COMPUTE DOWNRANGE VELOCITY
000247: 21,2572           00006                           EXTEND
000248: 21,2573           71726                           MP       VVECTX
000249: 21,2574           52066                           DXCH     VHZ
000250: 21,2575           31722                           CA       RUNITX
000251: 21,2576           00006                           EXTEND
000252: 21,2577           71732                           MP       VVECTZ
000253: 21,2600           20066                           DAS      VHZ
000254: 21,2601           31722                           CA       RUNITX                                #  COMPUTE THE MORE SENSITIVE TERM IN DP
000255: 21,2602           00006                           EXTEND
000256: 21,2603           71733                           MP       VVECTZ     +1
000257: 21,2604           54001                           TS       L
000258: 21,2605           34755                           CAF      ZERO
000259: 21,2606           20066                           DAS      VHZ                                   #  VHZ IN UNITS OF 2(5) M/CS
000260:
000261: 21,2607           00006                           EXTEND
000262: 21,2610           31731                           DCA      VVECTY
000263: 21,2611           52064                           DXCH     VHY                                   #  VHY IN UNITS OF 2(5) M/CS
000264:
000265: 21,2612           35015                           CAF      EBANK6                                #  SWITCH TO DAP EBANK
000266: 21,2613           54003                           TS       EBANK
000267: 21,2614  E6,1417                                  EBANK=   M22
000268:
000269: 21,2614           31420                           CA       M32                                   #  COS(AOG)
000270: 21,2615           00006                           EXTEND
000271: 21,2616           70065                           MP       VHZ
000272: 21,2617           52071                           DXCH     FORVTEMP
000273: 21,2620           41417                           CS       M22                                   #  SIN(AOG)
000274: 21,2621           00006                           EXTEND
000275: 21,2622           70063                           MP       VHY
000276: 21,2623           20071                           DAS      FORVTEMP
000277:


000279: 21,2624           31420                           CA       M32                                   #  COS(AOG)
000280: 21,2625           00006                           EXTEND
000281: 21,2626           70066                           MP       VHZ        +1
000282: 21,2627           54062                           TS       ITEMP2
000283: 21,2630           41417                           CS       M22                                   #  SIN(AOG)
000284: 21,2631           00006                           EXTEND
000285: 21,2632           70064                           MP       VHY        +1
000286: 21,2633           60062                           AD       ITEMP2
000287: 21,2634           54001                           TS       L
000288: 21,2635           34755                           CAF      ZERO
000289: 21,2636           20071                           DAS      FORVTEMP                              #  FORWARD VELOCITY IN UNITS OF 2(5) M/CS
000290:
000291: 21,2637           31417                           CA       M22                                   #  SIN(AOG)
000292: 21,2640           00006                           EXTEND
000293: 21,2641           70065                           MP       VHZ
000294: 21,2642           52073                           DXCH     LATVEL
000295: 21,2643           31420                           CA       M32                                   #  COS(AOG)
000296: 21,2644           00006                           EXTEND
000297: 21,2645           70063                           MP       VHY
000298: 21,2646           20073                           DAS      LATVEL
000299:
000300: 21,2647           31417                           CA       M22                                   #  SIN(AOG)
000301: 21,2650           00006                           EXTEND
000302: 21,2651           70066                           MP       VHZ        +1
000303: 21,2652           54062                           TS       ITEMP2
000304: 21,2653           31420                           CA       M32                                   #  COS(AOG)
000305: 21,2654           00006                           EXTEND
000306: 21,2655           70064                           MP       VHY        +1
000307: 21,2656           60062                           AD       ITEMP2
000308: 21,2657           54001                           TS       L
000309: 21,2660           34755                           CAF      ZERO
000310: 21,2661           20073                           DAS      LATVEL                                #  LATERAL VELOCITY IN UNITS OF 2(5) M/CS
000311:
000312: 21,2662           24006                           INCR     BBANK                                 #  RETURN TO SERVICER EBANK
000313: 21,2663  E7,1717                                  EBANK=   HDOTLAD
000314:
000315: 21,2663           00006        CROSSOUT           EXTEND                                         #  MOVE FORVTEMP TO FORVEL FOR DSKY DISPLAY
000316: 21,2664           30071                           DCA      FORVTEMP
000317: 21,2665           53743                           DXCH     FORVEL
000318:
000319: 21,2666           00002                           TC       Q
000320:
000321: 21,2667           54070        APSLAD             TS       FORVTEMP                              #  DURING ASCENT AND ABORTS COME HERE TO
000322: 21,2670           54071                           TS       FORVTEMP   +1                         #    DISPLAY LATVEL = SM Y-AXIS VELOCITY
000323:
000324: 21,2671           00006                           EXTEND
000325: 21,2672           31731                           DCA      VVECTY
000326: 21,2673           52073                           DXCH     LATVEL
000327: 21,2674           00006                           EXTEND                                         #  ADD SURFACE VELOCITY BACK IN SO APS
000328: 21,2675           31712                           DCA      VSURFACE   +2                         #    LATVEL DISPLAY WILL BE IN TRUE


000330: 21,2676           20073                           DAS      LATVEL                                #    STABLE-MEMBER COORDINATES
000331:
000332: 21,2677           12663                           TCF      CROSSOUT                              #  REJOIN THE MAINSTREAM
000333:
000334:                                                                                                  #  ************************************************************************
000335:                                                                                                  #  LANDING ANALOG DISPLAYS INITIALIZATION
000336:                                                                                                  #  ************************************************************************
000337:
000338: 21,2700           02565        DISPINIT           TC       CROSCOMP                              #  FIRST COMPUTE BUT NOT OUTPUT VELOCITIES
000339:
000340: 21,2701           40075                           CS       FLAGWRD1                              #  SET DIDFLAG
000341: 21,2702           74736                           MASK     DIDFLBIT
000342: 21,2703           26075                           ADS      FLAGWRD1
000343:
000344: 21,2704           34744                           CAF      BIT8                                  #  SET DISPLAY INERTIAL DATA OUTBIT
000345: 21,2705           00006                           EXTEND
000346: 21,2706           05012                           WOR      CHAN12
000347:
000348: 21,2707           44755                           CS       ZERO                                  #  ZERO METER INDICATORS
000349: 21,2710           55740                           TS       LATVMETR
000350: 21,2711           55741                           TS       FORVMETR
000351:
000352: 21,2712           34750                           CAF      BIT4                                  #  SET UP TASK TO FINISH INITIALIZATION
000353: 21,2713           05204                           TC       TWIDDLE
000354: 21,2714           02716                           ADRES    INTLZE
000355: 21,2715           12564                           TCF      LANADEND
000356:
000357: 21,2716           34752        INTLZE             CAF      BIT2                                  #  ENABLE RR ERROR COUNTER
000358: 21,2717           00006                           EXTEND
000359: 21,2720           05012                           WOR      CHAN12
000360:
000361: 21,2721           41300                           CS       IMODES33                              #  SET INERTIAL DATA FLAG
000362: 21,2722           74744                           MASK     BIT8
000363: 21,2723           27300                           ADS      IMODES33
000364: 21,2724           05272                           TC       TASKOVER
000365:
000366:                                                                                                  #  ************************************************************************
000367:                                                                                                  #  LANDING ANALOG DISPLAYS RESET ROUTINE
000368:                                                                                                  #  ************************************************************************
000369:
000370: 21,2725           02565        DISPRSET           TC       CROSCOMP                              #  FIRST COMPUTE BUT NOT OUTPUT VELOCITIES
000371:
000372: 21,2726           44736                 +1        CS       DIDFLBIT                              #  RESET DIDFLAG
000373: 21,2727           70075                           MASK     FLAGWRD1
000374: 21,2730           54075                           TS       FLAGWRD1
000375:
000376: 21,2731           34744                           CAF      BIT8                                  #  WAS INERTIAL DATA JUST DISPLAYED?
000377: 21,2732           71300                           MASK     IMODES33
000378: 21,2733           10000                           CCS      A
000379: 21,2734           34752                           CAF      BIT2                                  #  YES:  DISABLE RR ERROR COUNTER AND


000381: 21,2735           64744                           AD       BIT8                                  #  NO:   RESET DISPLAY INERTIAL DATA OUTBIT
000382: 21,2736           40000                           COM
000383: 21,2737           00006                           EXTEND
000384: 21,2740           03012                           WAND     CHAN12
000385:
000386: 21,2741           44744                           CS       BIT8
000387: 21,2742           71300                           MASK     IMODES33
000388: 21,2743           55300                           TS       IMODES33
000389: 21,2744           12564                           TCF      LANADEND
000390:
000391:                                                                                                  #  ************************************************************************
000392:                                                                                                  #  CONSTANTS FOR LANDING ANALOG DISPLAYS
000393:                                                                                                  #  ************************************************************************
000394:
000395:                                                                                                  #  CONSTANTS ON A-CARDS ARE FOUND IN THE CONTROLLED CONSTANTS SECTION
000396:
000397:
000398:                                                                                                  #  LANAKPIP        DEC             .0512                 SCALES PIPAS TO UNITS OF 2(5) M/CS
000399:
000400:
000401:                                                                                                  #  MAXVEL          OCT             00466                 198.645 F/S IN UNITS OF 2(5) M/CS
000402:
000403:
000404:                                                                                                  #  MAXDBITS        OCT             01034                 ABOUT 300 F/S
000405:
000406:
000407:                                                                                                  #  VELCONV         DEC             .03594                SCALES VEL AT ONE M/CS TO .5571 F/S/BIT
000408:
000409:
000410:                                                                                                  #  ALTRCONV        DEC             .16020                SCALES ALTR AT 2(2) M/CS TO .5 F/S/BIT
000411:
000412:
000413:                                                                                                  #  ALTCONV         DEC             .69954                SCALES ALTITUDE AT 2(15) M TO 9.38 F/BIT
000414:
000415:
000416: 21,2745     5020               BITSET             =        PRIO6                                 #  CROSS-POINTER DRIVE BITS
000417:
000418:                                                                                                  #  ************************************************************************
000419:                                                                                                  #  SUBROUTINES
000420:                                                                                                  #  ************************************************************************
000421:
000422: 21,2745           54061        LADLIMIT           TS       ITEMP1
000423: 21,2746           34755                           CAF      ZERO
000424: 21,2747           00006                           EXTEND
000425: 21,2750           10061                           DV       ITEMP1
000426: 21,2751           10000                           CCS      A
000427: 21,2752           22061                           LXCH     ITEMP1
000428: 21,2753           12755                           TCF      +2
000429: 21,2754           12757                           TCF      +3


000431: 21,2755           30001                           CA       L
000432: 21,2756           00002                           TC       Q
000433: 21,2757           40061                           CS       ITEMP1
000434: 21,2760           00002                           TC       Q
000435:
000436: 21,2761           56061        NORMPIP            XCH      ITEMP1
000437: 21,2762           30061                           CA       ITEMP1
000438: 21,2763           74736                           MASK     BIT14
000439: 21,2764           00006                           EXTEND
000440: 21,2765           12772                           BZF      +5
000441: 21,2766           30061                           CA       ITEMP1
000442: 21,2767           64734                           AD       NEG1/2
000443: 21,2770           64734                           AD       NEG1/2
000444: 21,2771           12775                           TCF      +4
000445: 21,2772           30061                 +5        CA       ITEMP1
000446: 21,2773           64736                           AD       HALF
000447: 21,2774           64736                           AD       HALF
000448: 21,2775           22007                 +4        ZL
000449: 21,2776           56001                           XCH      L
000450: 21,2777           56001                           XCH      L
000451: 21,3000           00002                           TC       Q
000452:
000453:                                                                                                  #  ************************************************************************
000454:                                                                                                  #  THE END OF THE LANDING ANALOG DISPLAYS
000455:                                                                                                  #  ************************************************************************

End of include-file LANDING_ANALOG_DISPLAYS.agc.  Parent file is MAIN.agc


