
Source Code


000002:                                                                                                  ## Copyright:   Public domain.
000003:                                                                                                  ## Filename:    LEM_GEOMETRY.agc
000004:                                                                                                  ## Purpose:     A log section of Zerlina 56, the final revision of
000005:                                                                                                  ##              Don Eyles's offline development program for the variable
000006:                                                                                                  ##              guidance period servicer. It also includes a new P66 with LPD
000007:                                                                                                  ##              (Landing Point Designator) capability, based on an idea of John
000008:                                                                                                  ##              Young's. Neither of these advanced features were actually flown,
000009:                                                                                                  ##              but Zerlina was also the birthplace of other big improvements to
000010:                                                                                                  ##              Luminary including the terrain model and new (Luminary 1E)
000011:                                                                                                  ##              analog display programs. Zerlina was branched off of Luminary 145,
000012:                                                                                                  ##              and revision 56 includes all changes up to and including Luminary
000013:                                                                                                  ##              183. It is therefore quite close to the Apollo 14 program,
000014:                                                                                                  ##              Luminary 178, where not modified with new features.
000015:                                                                                                  ## Reference:   pp. 325-330
000016:                                                                                                  ## Assembler:   yaYUL
000017:                                                                                                  ## Contact:     Ron Burkey <info@sandroid.org>.
000018:                                                                                                  ## Website:     www.ibiblio.org/apollo/index.html
000019:                                                                                                  ## Mod history: 2017-07-28 MAS  Created from Luminary 210.
000020:                                                                                                  ##              2017-08-21 RSB  Transcribed.
000021:                                                                                                  ##              2021-05-30 ABS  Marker comment for page 332 -> 325
000022:


000024: 23,2041                                           BANK     23
000025: 13,2000                                           SETLOC   LEMGEOM
000026: 13,2000                                           BANK
000027:
000028: 13,2070  30,2000                                  SBANK=   LOWSUPER
000029: 13,2070  E5,1642                                  EBANK=   XSM
000030:
000031:                                                                                                  #  THESE TWO ROUTINES COMPUTE THE ACTUAL STATE VECTOR FOR LM,CSM BY ADDING
000032:                                                                                                  #  THE CONIC R,V AND THE DEVIATIONSR,V. THE STATE VECTORS ARE CONVERTED TO
000033:                                                                                                  #  METERS B-29 AND METERS/CSEC B-7 AND STORED APPROPRIATELY IN RN,VN OR
000034:                                                                                                  #  R-OTHER , V-OTHER FOR DOWNLINK. THE ROUTINES NAMES ARE SWITCHED IN THE
000035:                                                                                                  #  OTHER VEHICLES COMPUTER.
000036:
000037:                                                                                                  #  INPUT
000038:                                                                                                  #    STATE VECTOR IN TEMPORARY STORAGE AREA
000039:                                                                                                  #    IF STATE VECTOR IS SCALED POS B27 AND VEL B5
000040:                                                                                                  #       SET X2 TO +2
000041:                                                                                                  #    IF STATE VECTOR IS SCALED POS B29 AND VEL B7
000042:                                                                                                  #       SET X2 TO 0
000043:
000044:                                                                                                  #  OUTPUT
000045:                                                                                                  #    R(T) IN RN, V(T) IN VN, T IN PIPTIME
000046:                                                                                                  #  OR
000047:                                                                                                  #    R(T) IN R-OTHER, V(T) IN V-OTHER   (T IS DEFINED BY T-OTHER)
000048:
000049: 13,2070                                           COUNT*   $$/GEOM
000050: 13,2070           43414        SVDWN2             BOF      RVQ                                   #  SW=1=AVETOMID DOING W-MATRIX INTEG.
000051: 13,2071           04756                                    AVEMIDSW
000052: 13,2072           26073                                    +1
000053: 13,2073           53775                           VLOAD    VSL*
000054: 13,2074           01521                                    TDELTAV
000055: 13,2075           57605                                    0          -7,2
000056: 13,2076           53655                           VAD      VSL*
000057: 13,2077           01535                                    RCV
000058: 13,2100           57576                                    0,2
000059: 13,2101           25220                           STOVL    RN
000060: 13,2102           01527                                    TNUV
000061: 13,2103           53257                           VSL*     VAD
000062: 13,2104           57602                                    0          -4,2
000063: 13,2105           01543                                    VCV
000064: 13,2106           77657                           VSL*
000065: 13,2107           57576                                    0,2
000066: 13,2110           15226                           STODL    VN
000067: 13,2111           01517                                    TET
000068: 13,2112           01234                           STORE    PIPTIME
000069: 13,2113           77616                           RVQ
000070:


000072: 13,2114           53775        SVDWN1             VLOAD    VSL*
000073: 13,2115           01521                                    TDELTAV
000074: 13,2116           57605                                    0          -7,2
000075: 13,2117           53655                           VAD      VSL*
000076: 13,2120           01535                                    RCV
000077: 13,2121           57576                                    0,2
000078: 13,2122           25716                           STOVL    R-OTHER
000079: 13,2123           01527                                    TNUV
000080: 13,2124           53257                           VSL*     VAD
000081: 13,2125           57602                                    0          -4,2
000082: 13,2126           01543                                    VCV
000083: 13,2127           77657                           VSL*
000084: 13,2130           57576                                    0,2
000085: 13,2131           01724                           STORE    V-OTHER
000086: 13,2132           77616                           RVQ
000087:


000089:                                                                                                  #           THE FOLLOWING ROUTINE TAKES A HALF UNIT TARGET VECTOR REFERRED TO NAV BASE COORDINATES AND FINDS BOTH
000090:                                                                                                  #  GIMBAL ORIENTATIONS AT WHICH THE RR MIGHT SIGHT THE TARGET. THE GIMBAL ANGLES CORRESPONDING TO THE PRESENT MODE
000091:                                                                                                  #  ARE LEFT IN MODEA AND THOSE WHICH WOULD BE USED AFTER A REMODE IN MODEB. THIS ROUTINE ASSUMES MODE 1 IS TRUNNION
000092:                                                                                                  #  ANGLE LESS THAN 90 DEGS IN ABS VALUE WITH ARBITRARY SHAFT, WITH A CORRESPONDING DEFINITION FOR MODE 2. MODE
000093:                                                                                                  #  SELECTION AND LIMIT CHECKING ARE DONE ELSEWHERE.
000094:
000095:                                                                                                  #           THE MODE 1 CONFIGURATION IS CALCULATED FROM THE VECTOR AND THEN MODE 2 IS FOUND USING THE RELATIONS
000096:
000097:                                                                                                  #           S(2) = 180 + S(1)
000098:                                                                                                  #           T(2) = 180 - T(1)
000099:
000100:                                                                                                  #      THE VECTOR ARRIVES IN MPAC WHERE TRG*SMNG OR *SMNB* WILL HAVE LEFT IT.
000101:
000102: 13,2133           00041        RRANGLES           STORE    32D
000103: 13,2134           57545                           DLOAD    DCOMP                                 #  SINCE WE WILL FIND THE MODE 1 SHAFT
000104: 13,2135           00043                                    34D                                   #  ANGLE LATER, WE CAN FIND THE MODE 1
000105: 13,2136           67401                           SETPD    ASIN                                  #  TRUNNION BY SIMPLY TAKING THE ARCSIN OF
000106: 13,2137           00001                                    0                                     #  THE Y COMPONENT, THE ASIN GIVING AN
000107: 13,2140           44206                           PUSH     BDSU                                  #  ANSWER WHOSE ABS VAL IS LESS THAN 90 DEG
000108: 13,2141           24005                                    LODPHALF
000109: 13,2142           14005                           STODL    4                                     #  MODE 2 TRUNNION TO 4.
000110:
000111: 13,2143           24007                                    LO6ZEROS
000112: 13,2144           24043                           STOVL    34D                                   #  UNIT THE PROJECTION OF THE VECTOR
000113: 13,2145           00041                                    32D                                   #    IN THE X-Z PLANE
000114: 13,2146           41056                           UNIT     BOVB                                  #  IF OVERFLOW,TARGET VECTOR IS ALONG Y
000115: 13,2147           52412                                    LUNDESCH                              #  CALL FOR MANEUVER UNLESS ON LUNAR SURF
000116: 13,2150           14041                           STODL    32D                                   #  PROJECTION VECTOR.
000117: 13,2151           00041                                    32D
000118: 13,2152           44142                           SR1      STQ
000119: 13,2153           00051                                    S2
000120: 13,2154           14023                           STODL    SINTH                                 #  USE ARCTRIG SINCE SHAFT COULD BE ARB.
000121: 13,2155           00045                                    36D
000122: 13,2156           77742                           SR1
000123: 13,2157           34021                           STCALL   COSTH
000124: 13,2160           47316                                    ARCTRIG
000125:


000127: 13,2161           43206                           PUSH     DAD                                   #  MODE 1 SHAFT TO 2.
000128: 13,2162           24005                                    LODPHALF
000129: 13,2163           24007                           STOVL    6
000130: 13,2164           00005                                    4
000131: 13,2165           77634                           RTB                                            #  FIND MODE 2 CDU ANGLES.
000132: 13,2166           21617                                    2V1STO2S
000133: 13,2167           25111                           STOVL    MODEB
000134: 13,2170           00001                                    0
000135: 13,2171           77634                           RTB                                            #  MODE 1 ANGLES TO MODE A.
000136: 13,2172           21617                                    2V1STO2S
000137: 13,2173           01107                           STORE    MODEA
000138: 13,2174           77776                           EXIT
000139:
000140: 13,2175           40110                           CS       RADMODES                              #  SWAP MODEA AND MODEB IF RR IN MODE 2.
000141: 13,2176           74740                           MASK     ANTENBIT
000142: 13,2177           10000                           CCS      A
000143: 13,2200           12204                           TCF      +4
000144:
000145: 13,2201           53107                           DXCH     MODEA
000146: 13,2202           53111                           DXCH     MODEB
000147: 13,2203           53107                           DXCH     MODEA
000148:
000149: 13,2204           06051                           TC       INTPRET
000150: 13,2205           77650                           GOTO
000151: 13,2206           00051                                    S2
000152:


000154:                                                                                                  #  GIVEN RR TRUNNION AND SHAFT (T,S) IN TANGNB,+1,FIND THE ASSOCIATED
000155:                                                                                                  #  LINE OF SIGHT IN NAV BASE AXES.  THE HALF UNIT VECTOR, .5(SIN(S)COS(T),
000156:                                                                                                  #  -SIN(T),COS(S)COS(T)) IS LEFT IN MPAC AND 32D.
000157:
000158: 23,2000                                           SETLOC   INFLIGHT
000159: 23,2000                                           BANK
000160:
000161: 23,2041                                           COUNT*   $$/GEOM
000162:
000163: 23,2041           47135        RRNB               SLOAD    RTB
000164: 23,2042           03753                                    TANGNB
000165: 23,2043           21560                                    CDULOGIC
000166: 23,2044           41401                           SETPD    PUSH                                  #  TRUNNION ANGLE TO 0
000167: 23,2045           00001                                    0
000168: 23,2046           57556                           SIN      DCOMP
000169: 23,2047           14043                           STODL    34D                                   #  Y COMPONENT
000170:
000171: 23,2050           41546                           COS      PUSH                                  #  .5 COS(T) TO 0
000172: 23,2051           47135                           SLOAD    RTB
000173: 23,2052           03754                                    TANGNB     +1
000174: 23,2053           21560                                    CDULOGIC
000175: 23,2054           71406        RRNB1              PUSH     COS                                   #  SHAFT ANGLE TO 2
000176: 23,2055           72405                           DMP      SL1
000177: 23,2056           00001                                    0
000178: 23,2057           14045                           STODL    36D                                   #  Z COMPONENT
000179:
000180: 23,2060           41356                           SIN      DMP
000181: 23,2061           77752                           SL1
000182: 23,2062           24041                           STOVL    32D
000183: 23,2063           00041                                    32D
000184: 23,2064           77616                           RVQ
000185:
000186:                                                                                                  #  THIS ENTRY TO RRNB REQUIRES THE TRUNNION AND SHAFT ANGLES IN MPAC AND MPAC +1 RESPECTIVELY
000187:
000188: 23,2065           14025        RRNBMPAC           STODL    20D                                   #  SAVE SHAFT CDU IN 21.
000189: 23,2066           00155                                    MPAC                                  #  SET MODE TO DP.  (THE PRECEEDING STORE
000190:                                                                                                  #  MAY BE DP, TP OR VECTOR.)
000191: 23,2067           40234                           RTB      SETPD
000192: 23,2070           21560                                    CDULOGIC
000193: 23,2071           00001                                    0
000194: 23,2072           73406                           PUSH     SIN                                   #  TRUNNION ANGLE TO 0
000195: 23,2073           77676                           DCOMP
000196: 23,2074           14043                           STODL    34D                                   #  Y COMPONENT
000197: 23,2075           41546                           COS      PUSH                                  #  .5COS(T) TO 0
000198: 23,2076           47135                           SLOAD    RTB                                   #  PICK UP CDU'S.
000199: 23,2077           00026                                    21D
000200: 23,2100           21560                                    CDULOGIC
000201: 23,2101           77650                           GOTO
000202: 23,2102           46054                                    RRNB1


End of include-file LEM_GEOMETRY.agc.  Parent file is MAIN.agc


