
Source Code


000002:                                                                                                  ## Copyright:   Public domain.
000003:                                                                                                  ## Filename:    LUNAR_LANDING_GUIDANCE_EQUATIONS.agc
000004:                                                                                                  ## Purpose:     A log section of Zerlina 56, the final revision of
000005:                                                                                                  ##              Don Eyles's offline development program for the variable
000006:                                                                                                  ##              guidance period servicer. It also includes a new P66 with LPD
000007:                                                                                                  ##              (Landing Point Designator) capability, based on an idea of John
000008:                                                                                                  ##              Young's. Neither of these advanced features were actually flown,
000009:                                                                                                  ##              but Zerlina was also the birthplace of other big improvements to
000010:                                                                                                  ##              Luminary including the terrain model and new (Luminary 1E)
000011:                                                                                                  ##              analog display programs. Zerlina was branched off of Luminary 145,
000012:                                                                                                  ##              and revision 56 includes all changes up to and including Luminary
000013:                                                                                                  ##              183. It is therefore quite close to the Apollo 14 program,
000014:                                                                                                  ##              Luminary 178, where not modified with new features.
000015:                                                                                                  ## Reference:   pp. 784-821
000016:                                                                                                  ## Assembler:   yaYUL
000017:                                                                                                  ## Contact:     Ron Burkey <info@sandroid.org>.
000018:                                                                                                  ## Website:     www.ibiblio.org/apollo/index.html
000019:                                                                                                  ## Mod history: 2017-07-28 MAS  Created from Luminary 210.
000020:                                                                                                  ##              2017-08-05 MAS  Transcribed for Zerlina 56. This section was
000021:                                                                                                  ##                              largely rewritten to support P66 LPD and the
000022:                                                                                                  ##                              variable servicer.
000023:                                                                                                  ##              2017-08-06 MAS  Fixed a comment transcription error (MODULE
000024:                                                                                                  ##                              where MODULO should have been).
000025:                                                                                                  ##              2017-08-19 MAS  Corrected a few transcription errors.
000026:                                                                                                  ##              2017-08-24 MAS  Fixed a branch target and a few incorrect
000027:                                                                                                  ##                              instructions.
000028:


000030:                                                                                                  #  ****************************************************************************************************************
000031:                                                                                                  #  GUIDANCE FOR LANDING ON THE MOON                                    BY EYLES EXCEPT P66HZ AND ROOTPSRS BY KLUMPP
000032:                                                                                                  #  ****************************************************************************************************************
000033:
000034: 31,2361  E7,1621                                  EBANK=   E2DPS
000035:
000036: 31,2361                                           COUNT*   $$/F2DPS
000037:
000038:                                                                                                  #  ****************************************************************************************************************
000039:                                                                                                  #  LUNAR LANDING FLIGHT SEQUENCE TABLES
000040:                                                                                                  #  ****************************************************************************************************************
000041:
000042:                                                                                                  #  FLIGHT SEQUENCE TABLES ARE ARRANGED BY FUNCTION.   THEY ARE REFERENCED USING AS AN INDEX THE REGISTER WCHPHASE:
000043:
000044:                                                                                                  #                                                   WCHPHASE  =  -1  --->  IGNALG
000045:                                                                                                  #                                                   WCHPHASE  =   0  --->  BRAKQUAD
000046:                                                                                                  #                                                   WCHPHASE  =   1  --->  APPRQUAD
000047:                                                                                                  #                                                   WCHPHASE  =   2  --->  VERTICAL
000048:
000049:                                                                                                  #  ****************************************************************************************************************
000050:
000051:                                                                                                  #  ROUTINES FOR STARTING NEW GUIDANCE PHASES:
000052:
000053: 31,2361           12461                           TCF      TTFINCR                               #  IGNALG
000054: 31,2362           12461        NEWPHASE           TCF      TTFINCR                               #  BRAKQUAD
000055: 31,2363           12442                           TCF      STARTP64                              #  APPRQUAD
000056: 31,2364           13361                           TCF      ENDLLJOB                              #  VERTICAL  (A BRANCH RARELY IF EVER USED)
000057:
000058:
000059:                                                                                                  #  PRE-GUIDANCE COMPUTATIONS:
000060:
000061: 31,2365           12653                           TCF      CALCRGVG                              #  IGNALG
000062: 31,2366           12663        PREGUIDE           TCF      RGVGCALC                              #  BRAKQUAD
000063: 31,2367           12542                           TCF      REDESIG                               #  APPRQUAD
000064:
000065:
000066:                                                                                                  #  GUIDANCE EQUATIONS:
000067:
000068: 31,2370           12717                           TCF      TTF/8CL                               #  IGNALG
000069: 31,2371           12717        WHATGUID           TCF      TTF/8CL                               #  BRAKQUAD
000070: 31,2372           12717                           TCF      TTF/8CL                               #  APPRQUAD
000071:
000072:
000073:                                                                                                  #  POST GUIDANCE EQUATION COMPUTATIONS:
000074:
000075: 31,2373           13121                           TCF      CGCALC                                #  IGNALG
000076: 31,2374           13106        AFTRGUID           TCF      EXTLOGIC                              #  BRAKQUAD
000077: 31,2375           13106                           TCF      EXTLOGIC                              #  APPRQUAD
000078:


000080:                                                                                                  #  WINDOW VECTOR COMPUTATIONS:
000081:
000082: 31,2376           13171                           TCF      EXGSUB                                #  IGNALG
000083: 31,2377           13212        WHATEXIT           TCF      EXBRAK                                #  BRAKQUAD
000084: 31,2400           13220                           TCF      EXNORM                                #  APPRQUAD
000085:
000086:
000087:                                                                                                  #  DISPLAY ROUTINES:
000088:
000089: 31,2401           13341        WHATDISP           TCF      P63DISPS                              #  BRAKQUAD
000090: 31,2402           13363                           TCF      P64DISPS                              #  APPRQUAD
000091:
000092:
000093:                                                                                                  #  ALARM ROUTINE FOR TTF COMPUTATION:
000094:
000095: 31,2403           13641                           TCF      1406POO                               #  IGNALG
000096: 31,2404           13643        WHATALM            TCF      1406ALM                               #  BRAKQUAD
000097: 31,2405           13643                           TCF      1406ALM                               #  APPRQUAD
000098:
000099:
000100:                                                                                                  #  INDICES FOR REFERENCING TARGET PARAMETERS:
000101:
000102: 31,2406           00000                           OCT      0                                     #  IGNALG
000103: 31,2407           00000        TARGTDEX           OCT      0                                     #  BRAKQUAD
000104: 31,2410           00002                           OCT      2                                     #  APPRQUAD
000105:
000106:                                                                                                  #  ****************************************************************************************************************
000107:                                                                                                  #  ENTRY POINTS:   ?GUIDSUB FOR THE IGNITION ALGORITHM, LUNLAND FOR SERVOUT
000108:                                                                                                  #  ****************************************************************************************************************
000109:
000110:                                                                                                  #  IGNITION ALGORITHM ENTRY:  DELIVERS N PASSES OF QUADRATIC QUIDANCE
000111:
000112: 31,2411           77776        ?GUIDSUB           EXIT
000113: 31,2412           34752                           CAF      TWO                                   #  N = 3
000114: 31,2413           55647                           TS       NGUIDSUB
000115: 31,2414           12424                           TCF      PASSINIT
000116:
000117: 31,2415           55647        GUIDSUB            TS       NGUIDSUB                              #  ON SUCEEDING PASSES SKIP TTFINCR
000118: 31,2416           12653                           TCF      CALCRGVG
000119:
000120:                                                                                                  #  NORMAL ENTRY:  CONTROL COMES HERE FROM SERVOUT
000121:
000122: 31,2417           06042        LUNLAND            TC       SERVCHNG
000123: 31,2420           30101                           CA       FLAGWRD5                              #  HAS THROTTLE-UP COME YET?
000124: 31,2421           74744                           MASK     ZOOMBIT
000125: 31,2422           00006                           EXTEND
000126: 31,2423           13331                           BZF      DISPEXIT                              #  NO:   DO P63 DISPLAYS BUT NO GUIDANCE
000127:
000128:                                                                                                  #  ****************************************************************************************************************


000130:                                                                                                  #  INITIALIZATION FOR THIS PASS
000131:                                                                                                  #  ****************************************************************************************************************
000132:
000133: 31,2424           00006        PASSINIT           EXTEND
000134: 31,2425           31625                           DCA      TPIP
000135: 31,2426           53555                           DXCH     TPIPOLD
000136:
000137: 31,2427           06042                           TC       FASTCHNG
000138:
000139: 31,2430           00006                           EXTEND
000140: 31,2431           31557                           DCA      PIPTIME1
000141: 31,2432           53625                           DXCH     TPIP
000142:
000143: 31,2433           00006                           EXTEND
000144: 31,2434           31643                           DCA      TTF/8
000145: 31,2435           53551                           DXCH     TTF/8TMP
000146:
000147: 31,2436           11623                           CCS      FLPASS0
000148: 31,2437           12461                           TCF      TTFINCR
000149:
000150: 31,2440           51346        BRSPOT1            INDEX    WCHPHASE
000151: 31,2441           12362                           TCF      NEWPHASE
000152:
000153:                                                                                                  #  ****************************************************************************************************************
000154:                                                                                                  #  ROUTINES TO START NEW PHASES
000155:                                                                                                  #  ****************************************************************************************************************
000156:
000157: 31,2442           05322        STARTP64           TC       NEWMODEX
000158: 31,2443           00100                           DEC      64         B-14
000159: 31,2444           31425                           CA       DELTTFAP                              #  AUGMENT TTF/8
000160: 31,2445           27550                           ADS      TTF/8TMP
000161: 31,2446           00004                           INHINT
000162: 31,2447           06022                           TC       C13STALL
000163: 31,2450           34740                           CA       BIT12                                 #  ENABLE RUPT10
000164: 31,2451           00006                           EXTEND
000165: 31,2452           05013                           WOR      CHAN13
000166: 31,2453           33663                           CAF      P64DB
000167: 31,2454           55343                           TS       DB
000168: 31,2455           31315                           CA       LRWH1
000169: 31,2456           55421                           TS       LRWH
000170:
000171: 31,2457           05527                           TC       DOWNFLAG                              #  INITIALIZE REDESIGNATION FLAG
000172: 31,2460           00143                           ADRES    REDFLAG
000173:
000174:                                                                                                  #                                              (CONTINUE TO TTFINCR)
000175:
000176:                                                                                                  #  ****************************************************************************************************************
000177:                                                                                                  #  INCREMENT TTF/8, UPDATE LAND FOR LUNAR ROTATION, DO OTHER USEFUL THINGS
000178:                                                                                                  #  ****************************************************************************************************************
000179:


000181:                                                                                                  #             TTFINCR COMPUTATIONS ARE AS FOLLOWS:-
000182:
000183:                                                                                                  #                       TTF/8 UPDATED FOR TIME SINCE LAST PASS:
000184:
000185:                                                                                                  #                                  TTF/8 = TTF/8 + (TPIP - TPIPOLD)/8
000186:
000187:                                                                                                  #                       LANDING SITE VECTOR UPDATED FOR LUNAR ROTATION:
000188:
000189:                                                                                                  #                                  -                  -      -                      -
000190:                                                                                                  #                                  LAND = /LAND/ UNIT(LAND - LAND(TPIP - TPIPOLD) * WM)
000191:
000192:                                                                                                  #                       SLANT RANGE TO LANDING SITE, FOR DISPLAY:
000193:
000194:                                                                                                  #                                                   -      -
000195:                                                                                                  #                                  RANGEDSP = ABVAL(LAND - R)
000196:
000197: 31,2461           06051        TTFINCR            TC       INTPRET
000198: 31,2462           45345                           DLOAD    DSU
000199: 31,2463           03625                                    TPIP
000200: 31,2464           03555                                    TPIPOLD
000201: 31,2465           41461                           SLR      PUSH                                  #  SHIFT SCALES DELTA TIME TO 2(17) CSECS
000202: 31,2466           21214                                    11D
000203: 31,2467           47361                           VXSC     VXV
000204: 31,2470           03635                                    LAND
000205: 31,2471           02316                                    WM
000206: 31,2472           47045                           BVSU     RTB
000207: 31,2473           03635                                    LAND
000208: 31,2474           21710                                    NORMUNIT
000209: 31,2475           76561                           VXSC     VSL1
000210: 31,2476           02324                                    /LAND/
000211: 31,2477           17543                           STODL    LANDTEMP
000212: 31,2500           77776                           EXIT
000213:
000214: 31,2501           52155                           DXCH     MPAC
000215: 31,2502           21551                           DAS      TTF/8TMP                              #  NOW HAVE INCREMENTED TTF/8 IN TTF/8TMP
000216:
000217: 31,2503           06042                           TC       FASTCHNG
000218:
000219: 31,2504           00006                           EXTEND
000220: 31,2505           31551                           DCA      TTF/8TMP
000221: 31,2506           53643                           DXCH     TTF/8
000222:
000223: 31,2507           03563                           TC       TDISPSET
000224:
000225: 31,2510           37730                           CAF      PRIO31                                #  TEMPORARILY OVER-PRIO CHARIN
000226: 31,2511           05146                           TC       PRIOCHNG
000227:
000228: 31,2512           06051                           TC       INTPRET
000229: 31,2513           53375                           VLOAD    VAD                                   #  ADD IN CORRECTION FROM NOUN 69
000230: 31,2514           03543                                    LANDTEMP


000232: 31,2515           02613                                    DLAND
000233: 31,2516           03635                           STORE    LAND
000234: 31,2517           77646                           ABVAL                                          #  RECOMPUTE /LAND/
000235: 31,2520           02324                           STORE    /LAND/
000236: 31,2521           77776                           EXIT
000237:
000238: 31,2522           06042                           TC       FASTCHNG                              #  SINCE REDESIG MAY CHANGE LANDTEMP
000239:
000240: 31,2523           35014                           CAF      EBANK5
000241: 31,2524  E5,1612                                  EBANK=   DLAND
000242: 31,2524           54003                           TS       EBANK
000243: 31,2525           34755                           CAF      ZERO                                  #  ZERO N 69 REGISTERS
000244: 31,2526           55612                           TS       DLAND
000245: 31,2527           55613                           TS       DLAND      +1
000246: 31,2530           55614                           TS       DLAND      +2
000247: 31,2531           55615                           TS       DLAND      +3
000248: 31,2532           55616                           TS       DLAND      +4
000249: 31,2533           55617                           TS       DLAND      +5
000250: 31,2534           35016                           CAF      EBANK7
000251: 31,2535  E7,1666                                  EBANK=   TREDES
000252: 31,2535           54003                           TS       EBANK
000253:
000254: 31,2536           34736                           CAF      PRIO20
000255: 31,2537           05146                           TC       PRIOCHNG
000256:
000257: 31,2540           51346        BRSPOT2            INDEX    WCHPHASE
000258: 31,2541           12366                           TCF      PREGUIDE
000259:
000260:                                                                                                  #  ****************************************************************************************************************
000261:                                                                                                  #  LANDING SITE PERTURBATION EQUATIONS
000262:                                                                                                  #  ****************************************************************************************************************
000263:
000264: 31,2542           30102        REDESIG            CA       FLAGWRD6                              #  IS REDFLAG SET?
000265: 31,2543           74746                           MASK     REDFLBIT
000266: 31,2544           00006                           EXTEND
000267: 31,2545           12663                           BZF      RGVGCALC                              #  NO:   SKIP REDESIGNATION LOGIC
000268:
000269: 31,2546           31666                           CA       TREDES                                #  YES:  HAS TREDES REACHED ZERO?
000270: 31,2547           00006                           EXTEND
000271: 31,2550           12663                           BZF      RGVGCALC                              #  YES:  SKIP REDESIGNATION LOGIC
000272:
000273: 31,2551           00004                           INHINT
000274: 31,2552           31644                           CA       ELCOUNT1
000275: 31,2553           55552                           TS       ELCOUNT
000276: 31,2554           31645                           CA       AZCOUNT1
000277: 31,2555           55553                           TS       AZCOUNT
000278: 31,2556           06042                           TC       FASTCHNG
000279:
000280: 31,2557           34755                           CA       ZERO
000281: 31,2560           55644                           TS       ELCOUNT1


000283: 31,2561           55645                           TS       AZCOUNT1
000284:
000285: 31,2562           31552                           CA       ELCOUNT                               #  COMPUTE ELEVATION INCREMENT IN RADIANS
000286: 31,2563           00006                           EXTEND
000287: 31,2564           73666                           MP       ELEACH
000288: 31,2565           56001                           XCH      L                                     #  SHIFT LEFT 14, A BEING ZERO AFTER THE MP
000289: 31,2566           50120                           INDEX    FIXLOC
000290: 31,2567           52015                           DXCH     12D
000291:
000292: 31,2570           31553                           CA       AZCOUNT                               #  COMPUTE AZIMUTH INCREMENT IN RADIANS
000293: 31,2571           00006                           EXTEND
000294: 31,2572           73666                           MP       AZEACH
000295: 31,2573           56001                           XCH      L                                     #  SHIFT LEFT 14, A BEING ZERO AFTER THE MP
000296: 31,2574           50120                           INDEX    FIXLOC
000297: 31,2575           52017                           DXCH     14D
000298:
000299: 31,2576           30120                           CA       FIXLOC                                #  SET PD TO 0
000300: 31,2577           54166                           TS       PUSHLOC
000301:
000302: 31,2600           06051                           TC       INTPRET
000303: 31,2601           52375                           VLOAD    VSU
000304: 31,2602           03635                                    LAND
000305: 31,2603           03517                                    R                                     #                  -      -
000306: 31,2604           41434                           RTB      PUSH                                  #  PUSH DOWN UNIT (LAND - R)
000307: 31,2605           21710                                    NORMUNIT
000308: 31,2606           76435                           VXV      VSL1
000309: 31,2607           02145                                    YNBPIP                                #                     -          -      -
000310: 31,2610           65361                           VXSC     PDDL                                  #  PUSH DOWN - ELINCR(YNB * UNIT(LAND - R))
000311: 31,2611           00015                                    12D
000312: 31,2612           00017                                    14D
000313: 31,2613           52361                           VXSC     VSU
000314: 31,2614           02145                                    YNBPIP
000315: 31,2615           41455                           VAD      PUSH                                  #  RESULTING VECTOR IS 1/2 REAL SIZE
000316:
000317: 31,2616           45345                           DLOAD    DSU                                   #  MAKE SURE REDESIGNATION IS NOT
000318: 31,2617           00001                                    0                                     #    TOO CLOSE TO THE HORIZON
000319: 31,2620           05662                                    DEPRCRIT
000320: 31,2621           71240                           BMN      DLOAD
000321: 31,2622           62625                                    REDES1
000322: 31,2623           05662                                    DEPRCRIT
000323: 31,2624           00001                           STORE    0
000324: 31,2625           45345        REDES1             DLOAD    DSU
000325: 31,2626           03635                                    LAND
000326: 31,2627           03517                                    R
000327: 31,2630           74271                           DDV      VXSC
000328: 31,2631           00001                                    0
000329: 31,2632           53455                           VAD      UNIT
000330: 31,2633           03517                                    R
000331: 31,2634           76561                           VXSC     VSL1
000332: 31,2635           02324                                    /LAND/


000334: 31,2636           03543                           STORE    LANDTEMP
000335: 31,2637           77776                           EXIT                                           #  LOOKANGL WILL BE COMPUTED AT RGVGCALC
000336:
000337: 31,2640           06042                           TC       FASTCHNG
000338:
000339: 31,2641           00006                           EXTEND
000340: 31,2642           31543                           DCA      LANDTEMP
000341: 31,2643           53635                           DXCH     LAND
000342: 31,2644           00006                           EXTEND
000343: 31,2645           31545                           DCA      LANDTEMP   +2
000344: 31,2646           53637                           DXCH     LAND       +2
000345: 31,2647           00006                           EXTEND
000346: 31,2650           31547                           DCA      LANDTEMP   +4
000347: 31,2651           53641                           DXCH     LAND       +4
000348:
000349: 31,2652           12663                           TCF      RGVGCALC
000350:
000351:                                                                                                  #  ****************************************************************************************************************
000352:                                                                                                  #  COMPUTE STATE IN GUIDANCE COORDINATES
000353:                                                                                                  #  ****************************************************************************************************************
000354:
000355:                                                                                                  #             RGVGCALC COMPUTATIONS ARE AS FOLLOWS:-
000356:
000357:                                                                                                  #                      VELOCITY RELATIVE TO THE SURFACE:
000358:
000359:                                                                                                  #                                  -         -   -   -
000360:                                                                                                  #                                  ANGTERM = V + R * WM
000361:
000362:                                                                                                  #                      STATE IN GUIDANCE COORDINATES:
000363:
000364:                                                                                                  #                                  -     *   -   -
000365:                                                                                                  #                                  RGU = CG (R - LAND)
000366:
000367:                                                                                                  #                                  -     *   -   -    -
000368:                                                                                                  #                                  VGU = CG (V - WM * R)
000369:
000370:                                                                                                  #                      DEPRESSION ANGLE FOR DISPLAY:
000371:
000372:                                                                                                  #                                                         -   -     -
000373:                                                                                                  #                                  LOOKANGL = ARCSIN(UNIT(R - LAND).XMBPIP)
000374:
000375: 31,2653           06051        CALCRGVG           TC       INTPRET                               #  IN IGNALG, COMPUTE V FROM INTEGRATION
000376: 31,2654           64375                           VLOAD    MXV                                   #    OUTPUT AND TRIM CORRECTION TERM
000377: 31,2655           00025                                    VATT1                                 #    COMPUTED LAST PASS AND LEFT IN UNFC/2
000378: 31,2656           01732                                    REFSMMAT
000379: 31,2657           53362                           VSR1     VAD
000380: 31,2660           03253                                    UNFC/2
000381: 31,2661           03525                           STORE    V
000382: 31,2662           77776                           EXIT
000383:


000385: 31,2663           06051        RGVGCALC           TC       INTPRET                               #  ENTER HERE TO RECOMPUTE RG AND VG
000386: 31,2664           47375                           VLOAD    VXV
000387: 31,2665           03517                                    R
000388: 31,2666           02316                                    WM
000389: 31,2667           70455                           VAD      VSR2                                  #  RESCALE TO UNITS OF 2(9) M/CS
000390: 31,2670           03525                                    V
000391: 31,2671           02254                           STORE    ANGTERM
000392: 31,2672           77721                           MXV
000393: 31,2673           02561                                    CG                                    #  NO SHIFT SINCE ANGTERM IS DOUBLE SIZED
000394: 31,2674           27627                           STOVL    VGU
000395: 31,2675           03517                                    R                                     #            -   -
000396: 31,2676           41451                           VSU      PUSH                                  #  PUSH DOWN R - LAND
000397: 31,2677           03635                                    LAND
000398: 31,2700           76521                           MXV      VSL1
000399: 31,2701           02561                                    CG
000400: 31,2702           16605                           STODL    RGU
000401: 31,2703           00162                                    MPAC       +5
000402: 31,2704           26603                           STOVL    RANGEDSP                              #  SM Z-AXIS RANGE FOR DISPLAY IN N68
000403: 31,2705           50234                           RTB      DOT                                   #  NOW IN MPAC IS SINE(LOOKANGL)/4
000404: 31,2706           21710                                    NORMUNIT
000405: 31,2707           02137                                    XNBPIP
000406: 31,2710           77776                           EXIT
000407:
000408: 31,2711           30120                           CA       FIXLOC                                #  RESET PUSH DOWN POINTER
000409: 31,2712           54166                           TS       PUSHLOC
000410:
000411: 31,2713           04616                           TC       BANKCALL                              #  CALL LPDFVSUB TO PREPARE R1 DISPLAY
000412: 31,2714           63570                           CADR     LPDFVSUB
000413:
000414: 31,2715           51346        BRSPOT3            INDEX    WCHPHASE
000415: 31,2716           12371                           TCF      WHATGUID
000416:
000417:                                                                                                  #  ****************************************************************************************************************
000418:                                                                                                  #  TTF/8 COMPUTATION
000419:                                                                                                  #  ****************************************************************************************************************
000420:
000421: 31,2717           03556        TTF/8CL            TC       INTPRETX
000422: 31,2720           77743                           DLOAD*
000423: 31,2721           02443                                    JDG2TTF,1
000424: 31,2722           23567                           STODL*   TABLTTF    +6                         #  A(3) = 8 JDG  TO TABLTTF
000425: 31,2723           02437                                    ADG2TTF,1                             #              2
000426: 31,2724           17565                           STODL    TABLTTF    +4                         #  A(2) = 6 ADG  TO TABLTTF
000427: 31,2725           03633                                    VGU        +4                         #              2
000428: 31,2726           42605                           DMP      DAD*
000429: 31,2727           05660                                    3/4DP
000430: 31,2730           02433                                    VDG2TTF,1
000431: 31,2731           23563                           STODL*   TABLTTF    +2                         #  A(1) = (6 VGU  + 18 VDG )/8 TO TABLTTF
000432: 31,2732           02407                                    RDG        +4,1                       #               2         2
000433: 31,2733           41225                           DSU      DMP
000434: 31,2734           02611                                    RGU        +4


000436: 31,2735           05656                                    3/8DP
000437: 31,2736           03561                           STORE    TABLTTF                               #  A(0) = -24(RGU  - RDG )/64 TO TABLTTF
000438: 31,2737           77776                           EXIT                                           #                2      2
000439:
000440: 31,2740           34744                           CA       BIT8
000441: 31,2741           55570                           TS       TABLTTF    +10                        #  FRACTIONAL PRECISION FOR TTF TO TABLE
000442:
000443: 31,2742           00006                           EXTEND
000444: 31,2743           31643                           DCA      TTF/8
000445: 31,2744           52155                           DXCH     MPAC                                  #  LOADS TTF/8 (INITIAL GUESS) INTO MPAC
000446: 31,2745           34752                           CAF      TWO                                   #  DEGREE - ONE
000447: 31,2746           54001                           TS       L
000448: 31,2747           33661                           CAF      TABLTTFL
000449: 31,2750           03413                           TC       ROOTPSRS                              #  YIELDS TTF/8 IN MPAC
000450: 31,2751           51346                           INDEX    WCHPHASE
000451: 31,2752           12404                           TCF      WHATALM
000452:
000453: 31,2753           00006                           EXTEND                                         #  GOOD RETURN
000454: 31,2754           30155                           DCA      MPAC                                  #  FETCH TTF/8 KEEPING IT IN MPAC
000455: 31,2755           53643                           DXCH     TTF/8                                 #  CORRECTED TTF/8
000456:
000457: 31,2756           03563                           TC       TDISPSET
000458:
000459:                                                                                                  #                                               (CONTINUE TO QUADGUID)
000460:
000461:
000462:                                                                                                  #  ****************************************************************************************************************
000463:                                                                                                  #  MAIN GUIDANCE EQUATION
000464:                                                                                                  #  ****************************************************************************************************************
000465:
000466:                                                                                                  #                       AS PUBLISHED:-
000467:
000468:                                                                                                  #                                                -     -        -     -
000469:                                                                                                  #                                  -     -     6(VDG + VG)   12(RDG - RG)
000470:                                                                                                  #                                  ACG = ADG + ----------- + ------------
000471:                                                                                                  #                                                  TTF         (TTF)(TTF)
000472:
000473:                                                                                                  #                       AS HERE PROGRAMMED:-
000474:
000475:                                                                                                  #                                              -     -
000476:                                                                                                  #                                       3 (1/4(RDG - RG)   -     - )
000477:                                                                                                  #                                       - (------------- + VDG + VG)
000478:                                                                                                  #                                 -     4 (    TTF/8               )   -
000479:                                                                                                  #                                 ACG = ---------------------------- + ADG
000480:                                                                                                  #                                                  TTF/8
000481:
000482: 31,2757           41642        QUADGUID           CS       TTF/8
000483: 31,2760           61426                           AD       LEADTIME                              #  LEADTIME IS A NEGATIVE NUMBER
000484: 31,2761           64733                           AD       POSMAX                                #  SAFEGUARD THE COMPUTATIONS THAT FOLLOW
000485: 31,2762           54001                           TS       L                                     #    BY FORCING -TTF+LEADTIME > OR = ZERO


000487: 31,2763           40001                           CS       L
000488: 31,2764           60001                           AD       L
000489: 31,2765           22007                           ZL
000490: 31,2766           00006                           EXTEND
000491: 31,2767           11642                           DV       TTF/8
000492: 31,2770           54130                           TS       BUF                                   #  - RATIO OF LAG-DIMINISHED TTF TO TTF
000493: 31,2771           00006                           EXTEND
000494: 31,2772           70000                           SQUARE
000495: 31,2773           54131                           TS       BUF        +1
000496: 31,2774           60130                           AD       BUF
000497: 31,2775           56131                           XCH      BUF        +1                         #  RATIO SQUARED - RATIO
000498: 31,2776           60131                           AD       BUF        +1
000499: 31,2777           54154                           TS       MPAC                                  #  COEFFICIENT FOR VGU TERM
000500: 31,3000           60131                           AD       BUF        +1
000501: 31,3001           50120                           INDEX    FIXLOC
000502: 31,3002           54032                           TS       26D                                   #  COEFFICIENT FOR RDG-RGU TERM
000503: 31,3003           60131                           AD       BUF        +1
000504: 31,3004           50120                           INDEX    FIXLOC
000505: 31,3005           54034                           TS       28D                                   #  COEFFICIENT FOR VDG TERM
000506: 31,3006           60130                           AD       BUF
000507: 31,3007           64733                           AD       POSMAX
000508: 31,3010           60131                           AD       BUF        +1
000509: 31,3011           60131                           AD       BUF        +1
000510: 31,3012           50120                           INDEX    FIXLOC
000511: 31,3013           54036                           TS       30D                                   #  COEFFICIENT FOR ADG TERM
000512:
000513: 31,3014           34755                           CAF      ZERO
000514: 31,3015           54163                           TS       MODE
000515:
000516: 31,3016           03556                           TC       INTPRETX
000517: 31,3017           65361                           VXSC     PDDL
000518: 31,3020           03627                                    VGU
000519: 31,3021           00035                                    28D
000520: 31,3022           47157                           VXSC*    RTB
000521: 31,3023           02413                                    VDG,1
000522: 31,3024           63543                                    ZEROMID
000523: 31,3025           47113                           PDVL*    RTB
000524: 31,3026           02403                                    RDG,1
000525: 31,3027           63543                                    ZEROMID
000526: 31,3030           70251                           VSU      V/SC
000527: 31,3031           02605                                    RGU
000528: 31,3032           03643                                    TTF/8
000529: 31,3033           74342                           VSR2     VXSC
000530: 31,3034           00033                                    26D
000531: 31,3035           53255                           VAD      VAD
000532: 31,3036           74341                           V/SC     VXSC
000533: 31,3037           03643                                    TTF/8
000534: 31,3040           05660                                    3/4DP
000535: 31,3041           73725                           PDDL     VXSC*
000536: 31,3042           00037                                    30D


000538: 31,3043           02423                                    ADG,1
000539: 31,3044           53234                           RTB      VAD
000540: 31,3045           63543                                    ZEROMID
000541: 31,3046           76505        AFCCALC1           VXM      VSL1                                  #  VERTGUID COMES HERE
000542: 31,3047           02561                                    CG
000543: 31,3050           70515                           PDVL     VSR2                                  #  RESCALE G TO UNITS OF 2(-4) M/CS/CS
000544: 31,3051           01236                                    G
000545: 31,3052           45445                           BVSU     STADR
000546: 31,3053           74524                           STORE    UNFC/2                                #  UNFC/2 NEED NOT BE UNITIZED
000547: 31,3054           77646                           ABVAL
000548: 31,3055           17464        AFCCALC2           STODL    /AFC/                                 #  MAGNITUDE OF AFC FOR THROTTLE
000549: 31,3056           03253                                    UNFC/2                                #  VERTICAL COMPONENT
000550: 31,3057           65316                           DSQ      PDDL
000551: 31,3060           03255                                    UNFC/2     +2                         #  OUT-OF-PLANE
000552: 31,3061           65316                           DSQ      PDDL
000553: 31,3062           05650                                    HIGHESTF
000554: 31,3063           63471                           DDV      DSQ
000555: 31,3064           01246                                    MASS                                  #                         2     2      2
000556: 31,3065           45225                           DSU      DSU                                   #  AMAXHORIZ = SQRT(ATOTAL  - A   -  A  )
000557: 31,3066           71244                           BPL      DLOAD                                 #                              1      0
000558: 31,3067           63071                                    AFCCALC3
000559: 31,3070           06520                                    ZEROVECS
000560: 31,3071           43366        AFCCALC3           SQRT     DAD
000561: 31,3072           03257                                    UNFC/2     +4
000562: 31,3073           44244                           BPL      BDSU
000563: 31,3074           63077                                    AFCCLEND
000564: 31,3075           03257                                    UNFC/2     +4
000565: 31,3076           03257                           STORE    UNFC/2     +4
000566: 31,3077           77776        AFCCLEND           EXIT
000567: 31,3100           06042                           TC       FASTCHNG
000568:
000569: 31,3101           31346                           CA       WCHPHASE                              #  PREPARE FOR PHASE SWITCHING LOGIC
000570: 31,3102           55621                           TS       WCHPHOLD
000571: 31,3103           25623                           INCR     FLPASS0                               #  INCREMENT PASS COUNTER
000572:
000573: 31,3104           51346        BRSPOT4            INDEX    WCHPHASE
000574: 31,3105           12374                           TCF      AFTRGUID
000575:
000576:                                                                                                  #  ****************************************************************************************************************
000577:                                                                                                  #  NEW PHASE NOW?
000578:                                                                                                  #  ****************************************************************************************************************
000579:
000580: 31,3106           51346        EXTLOGIC           INDEX    WCHPHASE                              #  IS TTF NEARER ZERO THAN CRITERION?
000581: 31,3107           31423                           CA       TENDBRAK
000582: 31,3110           61642                           AD       TTF/8
000583: 31,3111           00006                           EXTEND
000584: 31,3112           63121                           BZMF     CGCALC                                #  NO
000585:
000586: 31,3113           06042                           TC       FASTCHNG                              #  YES:  INCREMENT WCHPHASE, ZERO FLPASS0
000587:


000589: 31,3114           31621                           CA       WCHPHOLD
000590: 31,3115           64753                           AD       ONE
000591: 31,3116           55346                           TS       WCHPHASE
000592: 31,3117           34755                           CAF      ZERO
000593: 31,3120           55623                           TS       FLPASS0
000594:
000595:                                                                                                  #                                              (CONTINUE TO CGCALC)
000596:
000597:                                                                                                  #  ***************************************************************************************************************
000598:                                                                                                  #  ERECT GUIDANCE-STABLE MEMBER TRANSFORMATION MATRIX
000599:                                                                                                  #  ***************************************************************************************************************
000600:
000601: 31,3121           35014        CGCALC             CAF      EBANK5
000602: 31,3122           54003                           TS       EBANK
000603: 31,3123  E5,1453                                  EBANK=   TCGIBRAK
000604: 31,3123           00006                           EXTEND
000605: 31,3124           51346                           INDEX    WCHPHASE
000606: 31,3125           52407                           INDEX    TARGTDEX
000607: 31,3126           31453                           DCA      TCGFBRAK
000608: 31,3127           24006                           INCR     BBANK
000609: 31,3130           24006                           INCR     BBANK
000610: 31,3131  E7,1642                                  EBANK=   TTF/8
000611: 31,3131           61642                           AD       TTF/8
000612: 31,3132           56001                           XCH      L
000613: 31,3133           61642                           AD       TTF/8
000614: 31,3134           10000                           CCS      A
000615: 31,3135           10001                           CCS      L
000616: 31,3136           13167                           TCF      EXITSPOT
000617: 31,3137           13167                           TCF      EXITSPOT
000618: 31,3140           13141                           NOOP
000619:
000620: 31,3141           03556                           TC       INTPRETX
000621: 31,3142           53575                           VLOAD    UNIT
000622: 31,3143           03635                                    LAND
000623: 31,3144           16561                           STODL    CG
000624: 31,3145           03643                                    TTF/8
000625: 31,3146           74203                           DMP*     VXSC
000626: 31,3147           02447                                    GAINBRAK,1                            #  NUMERO MYSTERIOSO
000627: 31,3150           02254                                    ANGTERM
000628: 31,3151           77655                           VAD
000629: 31,3152           03635                                    LAND
000630: 31,3153           47051                           VSU      RTB
000631: 31,3154           03517                                    R
000632: 31,3155           21710                                    NORMUNIT
000633: 31,3156           47035                           VXV      RTB
000634: 31,3157           03635                                    LAND
000635: 31,3160           21710                                    NORMUNIT
000636: 31,3161           26567                           STOVL    CG         +6                         #  SECOND ROW
000637: 31,3162           02561                                    CG
000638: 31,3163           76435                           VXV      VSL1


000640: 31,3164           02567                                    CG         +6
000641: 31,3165           02575                           STORE    CG         +14
000642: 31,3166           77776                           EXIT
000643:
000644: 31,3167           51621        EXITSPOT           INDEX    WCHPHOLD
000645: 31,3170           12377                           TCF      WHATEXIT
000646:
000647:                                                                                                  #  ****************************************************************************************************************
000648:                                                                                                  #  ROUTINES FOR EXITING FROM LANDING GUIDANCE
000649:                                                                                                  #  ****************************************************************************************************************
000650:
000651:                                                                                                  #  1.       EXGSUB IS THE RETURN WHEN GUIDSUB IS CALLED BY THE IGNITION ALGORITHM.
000652:
000653:                                                                                                  #  2.       EXBRAK IN THE EXIT USED DURING THE BRAKING PHASE.   IN THIS CASE UNIT(R) IS THE WINDOW POINTING VECTOR.
000654:
000655:                                                                                                  #  3.       EXNORM IS THE EXIT USED AT OTHER TIMES DURING THE BURN.
000656:
000657:                                                                                                  #           (EXOVFLOW IS A SUBROUTINE OF EXBRAK AND EXNORM CALLED WHEN OVERFLOW OCCURRED ANYWHERE IN GUIDANCE.)
000658:
000659: 31,3171           06051        EXGSUB             TC       INTPRET                               #  COMPUTE TRIM VELOCITY CORRECTION TERM
000660: 31,3172           47175                           VLOAD    RTB
000661: 31,3173           03253                                    UNFC/2
000662: 31,3174           21710                                    NORMUNIT
000663: 31,3175           74361                           VXSC     VXSC
000664: 31,3176           03423                                    ZOOMTIME
000665: 31,3177           22001                                    TRIMACCL
000666: 31,3200           03253                           STORE    UNFC/2
000667: 31,3201           77776                           EXIT
000668:
000669: 31,3202           11647                           CCS      NGUIDSUB
000670: 31,3203           12415                           TCF      GUIDSUB
000671: 31,3204           11646                           CCS      NIGNLOOP
000672: 31,3205           13210                           TCF      +3
000673: 31,3206           05600                           TC       ALARM
000674: 31,3207           01412                           OCT      01412
000675:
000676: 31,3210           04635                 +3        TC       POSTJUMP
000677: 31,3211           64532                           CADR     DDUMCALC
000678:
000679: 31,3212           06051        EXBRAK             TC       INTPRET
000680: 31,3213           77775                           VLOAD
000681: 31,3214           03535                                    UNIT/R/
000682: 31,3215           03261                           STORE    UNWC/2
000683: 31,3216           77776                           EXIT
000684: 31,3217           13274                           TCF      STEER?
000685:
000686: 31,3220           06051        EXNORM             TC       INTPRET
000687: 31,3221           52375                           VLOAD    VSU
000688: 31,3222           03635                                    LAND
000689: 31,3223           03517                                    R


000691: 31,3224           77634                           RTB
000692: 31,3225           21710                                    NORMUNIT
000693: 31,3226           03261                           STORE    UNWC/2                                #  UNIT(LAND - R) IS TENTATIVE CHOICE
000694: 31,3227           50235                           VXV      DOT
000695: 31,3230           02137                                    XNBPIP
000696: 31,3231           02567                                    CG         +6
000697: 31,3232           77776                           EXIT                                           #  WITH PROJ IN MPAC 1/8 REAL SIZE
000698:
000699: 31,3233           40154                           CS       MPAC                                  #  GET COEFFICIENT FOR CG +14
000700: 31,3234           63667                           AD       PROJMAX
000701: 31,3235           64733                           AD       POSMAX
000702: 31,3236           54130                           TS       BUF
000703: 31,3237           40130                           CS       BUF
000704: 31,3240           26130                           ADS      BUF                                   #  RESULT IS 0 IF PROJMAX - PROJ NEGATIVE
000705:
000706: 31,3241           43670                           CS       PROJMIN                               #  GET COEFFICIENT FOR UNIT(LAND - R)
000707: 31,3242           60154                           AD       MPAC
000708: 31,3243           64733                           AD       POSMAX
000709: 31,3244           54131                           TS       BUF        +1
000710: 31,3245           40131                           CS       BUF        +1
000711: 31,3246           26131                           ADS      BUF        +1                         #  RESULT IS 0 IF PROJ - PROJMIN NEGATIVE
000712:
000713: 31,3247           34751                           CAF      FOUR
000714: 31,3250           76254        UNWCLOOP           MASK     SIX
000715: 31,3251           54002                           TS       Q
000716: 31,3252           35014                           CA       EBANK5
000717: 31,3253           54003                           TS       EBANK
000718: 31,3254  E5,1560                                  EBANK=   CG
000719: 31,3254           30130                           CA       BUF
000720: 31,3255           00006                           EXTEND
000721: 31,3256           50002                           INDEX    Q
000722: 31,3257           71574                           MP       CG         +14
000723: 31,3260           24006                           INCR     BBANK
000724: 31,3261  E6,1660                                  EBANK=   UNWC/2
000725: 31,3261           50002                           INDEX    Q
000726: 31,3262           53661                           DXCH     UNWC/2
000727: 31,3263           00006                           EXTEND
000728: 31,3264           70131                           MP       BUF        +1
000729: 31,3265           50002                           INDEX    Q
000730: 31,3266           21661                           DAS      UNWC/2
000731: 31,3267           10002                           CCS      Q
000732: 31,3270           13250                           TCF      UNWCLOOP
000733:
000734: 31,3271           31773                           CA       AZBIAS                                #  SET OUTER GIMBAL
000735: 31,3272           55677                           TS       OGABIAS                               #    ANGLE BIAS FOR WINDOW BENDING
000736:
000737: 31,3273           24006                           INCR     BBANK
000738: 31,3274  E7,1612                                  EBANK=   PIF
000739:
000740: 31,3274           30121        STEER?             CA       OVFIND                                #  OVERFLOW?


000742: 31,3275           00006                           EXTEND
000743: 31,3276           13301                           BZF      STEERSW?                              #  NO:   CHECK STEERSW
000744:
000745: 31,3277           03646                           TC       OVFDESC                               #  YES:  ISSUE ALARM AND SKIP COMMANDS
000746: 31,3300           13331                           TCF      DISPEXIT
000747:
000748: 31,3301           40076        STEERSW?           CS       FLAGWRD2                              #  IS STEERSW UP?
000749: 31,3302           74741                           MASK     STEERBIT
000750: 31,3303           00006                           EXTEND
000751: 31,3304           13312                           BZF      THRTCALL                              #  YES:  ISSUE GUIDANCE COMMANDS
000752:
000753: 31,3305           00004        RATESTOP           INHINT                                         #  NO
000754: 31,3306           04674                           TC       IBNKCALL
000755: 31,3307           40166                           FCADR    STOPRATE
000756: 31,3310           00003                           RELINT
000757: 31,3311           13331                           TCF      DISPEXIT
000758:
000759: 31,3312  31,3312               GDUMP1             =        THRTCALL
000760:
000761: 31,3312           05332        THRTCALL           TC       CHECKMM                               #  HAS MODE CHANGED TO 66 SINCE CONTROL WAS
000762: 31,3313           00102                           DEC      66         B-14                       #    TRANSFERRED TO LUNLAND FROM SERVICER?
000763: 31,3314           13316                           TCF      +2
000764: 31,3315           13331                           TCF      DISPEXIT                              #  YES:  SKIP COMMANDS
000765:
000766: 31,3316           02150                           TC       THROTTLE                              #  NO
000767: 31,3317           06042                           TC       FASTCHNG
000768:
000769: 31,3320           31465                           CA       FCODD
000770: 31,3321           55620                           TS       FCOLD
000771:
000772: 31,3322           00006                           EXTEND
000773: 31,3323           31617                           DCA      FWEIGHT1
000774: 31,3324           53611                           DXCH     FWEIGHT
000775:
000776: 31,3325           06051                           TC       INTPRET
000777: 31,3326           77624                           CALL
000778: 31,3327           61073                                    FINDCDUW   -2
000779: 31,3330           77776                           EXIT
000780:
000781:                                                                                                  #                                              (CONTINUE TO DISPEXIT)
000782:
000783:
000784:                                                                                                  #  ****************************************************************************************************************
000785:                                                                                                  #  GUIDANCE LOOP DISPLAYS
000786:                                                                                                  #  ****************************************************************************************************************
000787:
000788: 31,3331           40104        DISPEXIT           CS       FLAGWRD8                              #  NO DISPLAYS THIS PASS IF FLUNDISP IS SET
000789: 31,3332           74742                           MASK     FLUNDBIT
000790: 31,3333           00006                           EXTEND


000792: 31,3334           13361                           BZF      ENDLLJOB
000793:
000794: 31,3335           37723                           CAF      PRIO23                                #  RAISE PRIORITY TEMPORARILY SO DISPLAY
000795: 31,3336           05146                           TC       PRIOCHNG                              #    RESPONSES WILL NOT WAIT FOR SERVICER
000796:
000797: 31,3337           51621                           INDEX    WCHPHOLD
000798: 31,3340           12401                           TCF      WHATDISP
000799:
000800: 31,3341           40107        P63DISPS           CS       FLGWRD11                              #  HAVE LR UPDATES BEEN PERMITTED?
000801: 31,3342           74744                           MASK     LRINHBIT
000802: 31,3343           00006                           EXTEND
000803: 31,3344           13354                           BZF      N63STAT                               #  YES:  DO STATIC DISPLAY
000804:
000805: 31,3345           33671                           CAF      V06N63                                #  NO:   FLASH NOUN 63, CORRECT RESPONSE IS
000806: 31,3346           04616                           TC       BANKCALL                              #          V57E WHICH STOPS THE FLASHING
000807: 31,3347           20463                           CADR     REFLASHR
000808: 31,3350           05155                           TC       ENDOFJOB                              #  TERMINATE  IGNORE AND KEEP FLASHING
000809: 31,3351           05155                           TC       ENDOFJOB                              #  PROCEED    IGNORE AND KEEP FLASHING
000810: 31,3352           05155                           TC       ENDOFJOB                              #  ENTER      IGNORE AND KEEP FLASHING
000811:
000812: 31,3353           13357                           TCF      LOWRPRIO
000813:
000814: 31,3354           33671        N63STAT            CAF      V06N63
000815: 31,3355           04616        DISPCOMN           TC       BANKCALL
000816: 31,3356           20471                           CADR     REGODSPR
000817:
000818: 31,3357           34736        LOWRPRIO           CAF      PRIO20
000819: 31,3360           05146                           TC       PRIOCHNG
000820: 31,3361           04635        ENDLLJOB           TC       POSTJUMP                              #  RETURN CONTROL TO THE START OF SERVICER
000821: 31,3362           66102                           CADR     PIPCYCLE
000822:
000823: 31,3363           31666        P64DISPS           CA       TREDES                                #  HAS TREDES REACHED ZERO?
000824: 31,3364           00006                           EXTEND
000825: 31,3365           13407                           BZF      RED-OVER                              #  YES:  CLEAR REDESIGNATION FLAG
000826:
000827: 31,3366           40102                           CS       FLAGWRD6                              #  NO:   IS REDFLAG SET?
000828: 31,3367           74746                           MASK     REDFLBIT
000829: 31,3370           00006                           EXTEND
000830: 31,3371           13411                           BZF      REDES-OK                              #  YES:  DO STATIC DISPLAY
000831:
000832: 31,3372           33672                           CAF      V06N64                                #  NO:   USE FLASHING DISPLAY
000833: 31,3373           04616                           TC       BANKCALL
000834: 31,3374           20463                           CADR     REFLASHR
000835: 31,3375           05155                           TC       ENDOFJOB                              #  TERMINATE  IGNORE AND KEEP FLASHING
000836: 31,3376           13401                           TCF      P64CEED                               #  PROCEED    PERMIT REDESIGNATIONS
000837: 31,3377           05155                           TC       ENDOFJOB                              #  ENTER      IGNORE AND KEEP FLASHING
000838:
000839: 31,3400           13357                           TCF      LOWRPRIO
000840:
000841: 31,3401           34755        P64CEED            CAF      ZERO


000843: 31,3402           55644                           TS       ELCOUNT1
000844: 31,3403           55645                           TS       AZCOUNT1
000845:
000846: 31,3404           05515                           TC       UPFLAG                                #  ENABLE REDESIGNATION LOGIC
000847: 31,3405           00143                           ADRES    REDFLAG
000848:
000849: 31,3406           15155                           TCF      ENDOFJOB
000850:
000851: 31,3407           05527        RED-OVER           TC       DOWNFLAG
000852: 31,3410           00143                           ADRES    REDFLAG
000853: 31,3411           33672        REDES-OK           CAF      V06N64
000854: 31,3412           13355                           TCF      DISPCOMN
000855:
000856:
000857:                                                                                                  #  ****************************************************************************************************************
000858:                                                                                                  #  VERTICAL AND HORIZONTAL GUIDANCE FOR P66
000859:                                                                                                  #  ****************************************************************************************************************
000860:
000861: 32,2000                                           SETLOC   P66LOC
000862: 32,2000                                           BANK
000863: 32,2714  E5,1527                                  EBANK=   TAURODL
000864: 32,2714                                           COUNT*   $$/F2DPS
000865:
000866:                                                                                                  #  ********************************
000867:                                                                                                  #  DATA TRANSFER AND PIPA READING
000868:                                                                                                  #  ********************************
000869:
000870:                                                                                                  #      FIRST, PAD-LOADS FROM THE W-MATRIX AREA ARE MOVED INTO TEMPORARIES FOR USE WHENE BANK IS SET TO 7.
000871:                                                                                                  #  THESE TRANSFERS ARE AS FOLLOWS:
000872:
000873:                                                                                                  #                                  VERCRIT        --->  VBUF     +1
000874:                                                                                                  #                                  TAURODL        --->  VBUF     +2
000875:                                                                                                  #                                  TAURODB        --->  VBUF     +3
000876:                                                                                                  #                                  MINFORCE       --->  VBUF     +4
000877:                                                                                                  #                                  MAXFORCE       --->  VBUF     +5
000878:                                                                                                  #                                  RODSCALE       --->  MPAC     +5
000879:                                                                                                  #                                  ROHZSCAL       --->  MPAC     +6
000880:
000881: 32,2714           31531        P66JOB             CA       VERCRIT                               #  VERCRIT
000882: 32,2715           54123                           TS       VBUF       +1
000883: 32,2716           00006                           EXTEND
000884: 32,2717           31530                           DCA      TAURODL                               #  TAURODL AND TAURODB
000885: 32,2720           52125                           DXCH     VBUF       +2
000886: 32,2721           00006                           EXTEND
000887: 32,2722           31533                           DCA      MINFORCE                              #  MINFORCE AND MAXFORCE
000888: 32,2723           52127                           DXCH     VBUF       +4
000889: 32,2724           00006                           EXTEND
000890: 32,2725           31526                           DCA      RODSCALE                              #  RODSCALE AND ROHZSCAL
000891: 32,2726           52162                           DXCH     MPAC       +5
000892:


000894:                                                                                                  #      ONE OTHER CHORE CAN BE DONE NOW TO MINIMIZE THE TIME BETWEEN READING PIPAX AND PUTTING OUT A THROTTLE
000895:                                                                                                  #  COMMAND:  THE COMPUTATION OF THE PRODUCT OF COS(AIG) AND COS(AMG).
000896:
000897: 32,2727           00004        P66INH             INHINT                                         #  INHINT LASTS TILL AFTER THROTTLE COMMAND
000898:
000899: 32,2730           30033                           CA       CDUY
000900: 32,2731           05032                           TC       SPCOS
000901: 32,2732           54122                           TS       VBUF
000902: 32,2733           30034                           CA       CDUZ
000903: 32,2734           05032                           TC       SPCOS
000904: 32,2735           00006                           EXTEND
000905: 32,2736           70122                           MP       VBUF
000906: 32,2737           54160                           TS       MPAC       +4                         #  PRODUCT OF COSINES SCALED FULL-SIZE
000907:
000908: 32,2740           24006                           INCR     BBANK                                 #  START P66JOB IN E5, SWITCH NOW TO E6
000909: 32,2741  E6,1774                                  EBANK=   END-E6
000910:
000911:                                                                                                  #      THE FOLLOWING CODING REFERS THE X-PIPA READING TO THE CENTER OF MASS OF THE SPACECRAFT BY SUBTRACTING
000912:                                                                                                  #  THOSE PIPA COUNTS PRODUCED BY VERTICAL IMU MOTION RELATIVE TO THE CENTER-OF-MASS.  THE SPACECRAFT X-AXIS IS
000913:                                                                                                  #  ASSUMED TO BE APPROXIMATELY VERTICAL (PARALLEL TO THE SM X-AXIS).  THE EQUATION IS:
000914:
000915:                                                                                                  #                                  P66PIPX = PIPAX - OMEGAQ RIMUZ
000916:
000917:                                                                                                  #  WHERE OMEGAQ IS THE ATTITUDE-RATE ABOUT THE Q (Y) AXIS AND RIMUZ IS THE Z-COORDINATE OF THE IMU.
000918:
000919: 32,2741           41422                           CS       OMEGAQ
000920:
000921: 32,2742           24006                           INCR     BBANK                                 #  SWITCH FINALLY INTO E7
000922: 32,2743  E7,1777                                  EBANK=   END-E7
000923:
000924: 32,2743           00006                           EXTEND
000925: 32,2744           73520                           MP       RIMUZ
000926: 32,2745           56001                           XCH      L                                     #  ROUND BEFORE ADDING TO PIPAX
000927: 32,2746           60000                           DOUBLE
000928: 32,2747           54002                           TS       Q                                     #  SKIP ON OVERFLOW WITH C(A) = +1 OR -1
000929: 32,2750           34755                           CAF      ZERO                                  #    DEPENDING ON THE SIGN OF THE OVERFLOW
000930: 32,2751           60001                           AD       L
000931:
000932: 32,2752           60037                           AD       PIPAX
000933: 32,2753           55755                           TS       P66PIPX
000934:
000935: 32,2754           00006                           EXTEND                                         #  READ FINE-SCALED TIME FOR FP COMPUTATION
000936: 32,2755           00004                           READ     LOSCALAR
000937: 32,2756           55754                           TS       P66TPIP                               #  TIME IN UNITS OF 2(9) M/CS
000938:
000939: 32,2757           00006                           EXTEND                                         #  SET GTCTIME AS TIME-TAG FOR FC
000940: 32,2760           30025                           DCA      TIME2
000941: 32,2761           53671                           DXCH     GTCTIME                               #  TIME IN UNITS OF 2(28) CS
000942:
000943:                                                                                                  #  ********************************


000945:                                                                                                  #  PROGRAM INITIALIZATION
000946:                                                                                                  #  ********************************
000947:
000948:                                                                                                  #      THE FIRST TIME P66JOB IS EXECUTED P66 HAS NOT YET BEEN INITIALIZED.   THIS IS INDICATED BY THE FACT THAT
000949:                                                                                                  #  MODREG CONTAINS SOMETHING OTHER THAN 66.  IN THIS CASE P66JOB BEGINS BY INITIALIZING ITSELF.
000950:
000951: 32,2762           41010                           CS       MODREG                                #  HAS P66 BEEN INITIALIZED YET?
000952: 32,2763           62770                           AD       MM66
000953: 32,2764           00006                           EXTEND
000954: 32,2765           13001                           BZF      P66MAIN                               #  YES
000955:
000956: 32,2766           03507                           TC       P66CHNG                               #  NO:   THEN INITIALIZE IT
000957:
000958: 32,2767           05322                           TC       NEWMODEX                              #  SWITCH MODE LIGHTS TO 66
000959: 32,2770           00102        MM66               DEC      66         B-14
000960:
000961: 32,2771           44755                           CS       ZERO                                  #  CANCEL LEFT OVER P64 THROTTLE COMMAND
000962: 32,2772           54055                           TS       THRUST                                #    (DON'T EVER LOAD THRUST WITH +0)
000963:
000964: 32,2773           36257                           CAF      THREE                                 #  SET HZCOUNT FOR P66DISPS IN 3/4
000965: 32,2774           55753                           TS       HZCOUNT                               #    SECOND AND P66HZ IN 1 1/4 SECOND
000966:
000967: 32,2775           03501                           TC       ZEROVHZC                              #  SET VHZC TO ZERO, RETURN WITH C(A) = +0
000968:
000969: 32,2776           55610                           TS       FWEIGHT                               #  ZERO FWEIGHT LEFT OVER FROM P64
000970: 32,2777           55611                           TS       FWEIGHT    +1
000971:
000972: 32,3000           13272                           TCF      ENDROD                                #  WAIT BEFORE EXECUTING P66ROD
000973:
000974:                                                                                                  #  ********************************
000975:                                                                                                  #  VERTICAL (ROD) CONTROL EQUATION
000976:                                                                                                  #  ********************************
000977:
000978:                                                                                                  #      HERE VVECTX IS RECOMPUTED TO MINIMIZE THE GUIDANCE LAG BETWEEN THE SAMPLING OF PIPA DATA AND THE
000979:                                                                                                  #  OUTPUT OF COMMANDS.  THIS LEAVES THE VECTOR VVECT NON-HOMOGENEOUS, BUT THIS IS UNIMPORTANT SINCE THE VERTICAL
000980:                                                                                                  #  AND HORIZONTAL CHANNELS ARE SEPARATE.
000981:
000982: 32,3001           00006        P66MAIN            EXTEND
000983: 32,3002           41710                           DCS      VSURFACE
000984: 32,3003           53727                           DXCH     VVECTX
000985: 32,3004           00006                           EXTEND
000986: 32,3005           31525                           DCA      V
000987: 32,3006           20001                           DDOUBL
000988: 32,3007           20001                           DDOUBL
000989: 32,3010           21727                           DAS      VVECTX
000990:
000991: 32,3011           41234                           CS       PIPTIME    +1
000992: 32,3012           61671                           AD       GTCTIME    +1
000993: 32,3013           64736                           AD       HALF
000994: 32,3014           64736                           AD       HALF


000996: 32,3015           57725                           XCH      DT
000997:
000998: 32,3016           41254                           CS       PIPAXOLD
000999: 32,3017           61755                           AD       P66PIPX
001000: 32,3020           04616                           TC       BANKCALL
001001: 32,3021           42761                           CADR     NORMPIP
001002: 32,3022           00006                           EXTEND
001003: 32,3023           73516                           MP       P66KPIP
001004: 32,3024           21727                           DAS      VVECTX
001005:
001006: 32,3025           41704                           CS       BIASACCX
001007: 32,3026           61701                           AD       GRAVACCX
001008: 32,3027           00006                           EXTEND
001009: 32,3030           71725                           MP       DT
001010: 32,3031           21727                           DAS      VVECTX                                #  VVECTX IN UNITS OF 2(5) M/CS
001011:
001012:                                                                                                  #  UPDATE VDGVERT ACCORDING TO ROD CLICKS.
001013:
001014: 32,3032           34755                           CAF      ZERO
001015: 32,3033           57744                           XCH      RODCOUNT                              #  RESTART BETWEEN NOW AND THE UPDATE OF
001016: 32,3034           00006                           EXTEND                                         #    VDGVERT COULD CAUSE LOSS OF ROD CLICKS
001017: 32,3035           70161                           MP       MPAC       +5
001018: 32,3036           30001                           CA       L
001019: 32,3037           00006                           EXTEND
001020: 32,3040           74745                           MP       BIT7
001021: 32,3041           21746                           DAS      VDGVERT                               #  VDGVERT IN UNITS OF 2(5) M/CS
001022:
001023: 32,3042           34747        MANTHRT?           CAF      BIT5                                  #  ARE WE IN AUTO THROTTLE?
001024: 32,3043           00006                           EXTEND
001025: 32,3044           02030                           RAND     CHAN30
001026: 32,3045           00006                           EXTEND
001027: 32,3046           13053                           BZF      ERRCOMP                               #  YES
001028:
001029: 32,3047           00006                           EXTEND                                         #  NO:   RESET VDGVERT TO CURRENT VVECTX
001030: 32,3050           31727                           DCA      VVECTX
001031: 32,3051           53746                           DXCH     VDGVERT
001032: 32,3052           13272                           TCF      ENDROD
001033:
001034:                                                                                                  #      THE DECISION WHETHER TO EXECUTE THE P66ROD EQUATION IS MADE EVERY 1/4 SECOND ON THE FOLLOWING BASIS:  IF
001035:                                                                                                  #  VELOCITY ERROR ALONG THE SM X-AXIS EXCEEDS VERCRIT IN MAGNITUDE, DO P66ROD.  OTHERWISE, DO P66ROD EVERY TAU
001036:                                                                                                  #  (SPECIFICALLY TAUROD ROUNDED TO THE NEAREST 1/4 SECOND).
001037:
001038: 32,3053           00006        ERRCOMP            EXTEND                                         #  COMPUTE VERTICAL (SM X-AXIS) VEL ERROR
001039: 32,3054           41727                           DCS      VVECTX
001040: 32,3055           52155                           DXCH     MPAC
001041: 32,3056           00006                           EXTEND
001042: 32,3057           31746                           DCA      VDGVERT
001043: 32,3060           20155                           DAS      MPAC                                  #  VDGVERT - VVECTX IN UNITS OF 2(5) M/CS
001044:
001045: 32,3061           07271                           TC       TPAGREE                               #  SIGN-AGREE MPAC (ABSOLUTELY NECESSARY)
001046:


001048: 32,3062           41756                           CS       OP66TPIP                              #  COMPUTE TIME SINCE LAST RODCOMP
001049: 32,3063           61754                           AD       P66TPIP
001050: 32,3064           64736                           AD       HALF
001051: 32,3065           64736                           AD       HALF
001052: 32,3066           56157                           XCH      MPAC       +3                         #  TIME SINCE LAST P66ROD, UNITS OF 2(9) CS
001053:
001054: 32,3067           43522                           CS       P66PMIN                               #  HAS IT BEEN LESS THAN P66PMIN?
001055: 32,3070           60157                           AD       MPAC       +3
001056: 32,3071           00006                           EXTEND
001057: 32,3072           63276                           BZMF     MOREP66?                              #  YES:  NO P66ROD THIS PASS
001058:
001059: 32,3073           22154                           LXCH     MPAC                                  #  NO:   LIMIT ERROR TO ABOUT 9.57 M/S
001060: 32,3074           34773                           CAF      DEC48
001061: 32,3075           04616                           TC       BANKCALL
001062: 32,3076           61713                           CADR     LIMITSUB
001063: 32,3077           54154                           TS       MPAC                                  #  PUT IT BACK IN MPAC
001064:
001065: 32,3100           00006                           EXTEND                                         #  IS |VDGVERT - VVECTX| < VERCRIT?
001066: 32,3101           30155                           DCA      MPAC
001067: 32,3102           00006                           EXTEND
001068: 32,3103           10123                           DV       VBUF       +1
001069: 32,3104           00006                           EXTEND
001070: 32,3105           13110                           BZF      ERRFAIL
001071:
001072: 32,3106           30124                           CA       VBUF       +2                         #  NO:   DO ROD COMPUTATION USING TAURODL
001073: 32,3107           13120                           TCF      P66ROD
001074:
001075: 32,3110           30157        ERRFAIL            CA       MPAC       +3                         #  YES:  HAS IT BEEN ABOUT OLDTAU
001076: 32,3111           00006                           EXTEND                                         #          SINCE THE LAST P66ROD?
001077: 32,3112           74742                           MP       BIT10
001078: 32,3113           65752                           AD       TWELVE
001079: 32,3114           61761                           AD       -OLDTAU
001080: 32,3115           00006                           EXTEND
001081: 32,3116           63276                           BZMF     MOREP66?                              #  NO:   NO P66ROD THIS PASS
001082:
001083: 32,3117           30125                           CA       VBUF       +3                         #  YES:  DO ROD COMPUTATION USING TAURODB
001084:
001085: 32,3120           55760        P66ROD             TS       TAU
001086: 32,3121           52155                           DXCH     MPAC
001087: 32,3122           00006                           EXTEND
001088: 32,3123           11760                           DV       TAU                                   #  TOTAL A DESIRED, UNITS OF 2(-9) M/CS/CS
001089:
001090: 32,3124           00006                           EXTEND                                         #  SUBTRACT AWAY GRAVITY
001091: 32,3125           61701                           SU       GRAVACCX
001092: 32,3126           00006                           EXTEND                                         #  RESCALE TO UNITS OF 2(-4) M/CS/CS
001093: 32,3127           74742                           MP       BIT10
001094: 32,3130           04616                           TC       BANKCALL
001095: 32,3131           62337                           CADR     MASSMULT
001096: 32,3132           00006                           EXTEND                                         #  DIVIDE BY COS(AIG) COS(AMG)
001097: 32,3133           10160                           DV       MPAC       +4
001098:


001100: 32,3134           00006                           EXTEND                                         #  APPLY LOWER LIMIT OF MINFORCE (VBUF +4)
001101: 32,3135           60126                           SU       VBUF       +4
001102: 32,3136           64733                           AD       POSMAX
001103: 32,3137           54001                           TS       L
001104: 32,3140           40001                           CS       L
001105: 32,3141           60001                           AD       L
001106: 32,3142           60126                           AD       VBUF       +4
001107:
001108: 32,3143           54001                           TS       L                                     #  APPLY UPPER LIMIT OF MAXFORCE (VBUF +5)
001109: 32,3144           30127                           CA       VBUF       +5
001110: 32,3145           04616                           TC       BANKCALL
001111: 32,3146           61713                           CADR     LIMITSUB
001112: 32,3147           55615                           TS       FC                                    #  THRUST DESIRED
001113:
001114: 32,3150           41755                           CS       P66PIPX                               #  COMPUTE MINUS PRESENT THRUST LEVEL
001115: 32,3151           61757                           AD       OP66PIPX
001116: 32,3152           04616                           TC       BANKCALL
001117: 32,3153           42761                           CADR     NORMPIP
001118: 32,3154           00006                           EXTEND                                         #  RESCALE TO UNITS OF 1 M/CS
001119: 32,3155           73517                           MP       P66KPIPB
001120: 32,3156           20001                           DDOUBL
001121: 32,3157           00006                           EXTEND                                         #  DIVIDE BY TIME IN UNITS OF 2(9) CS TO
001122: 32,3160           10157                           DV       MPAC       +3                         #    GET ACC IN UNITS OF 2(-9) M/CS/CS
001123: 32,3161           61704                           AD       BIASACCX                              #  ADD IN PIPA BIAS PSEUDO-ACCELERATION
001124:
001125: 32,3162           00006                           EXTEND                                         #  RESCALE TO UNITS OF 2(-4) M/CS/CS
001126: 32,3163           74742                           MP       BIT10
001127: 32,3164           04616                           TC       BANKCALL
001128: 32,3165           62337                           CADR     MASSMULT
001129: 32,3166           55467                           TS       FP
001130:
001131: 32,3167           00006                           EXTEND
001132: 32,3170           41611                           DCS      FWEIGHT
001133: 32,3171           00006                           EXTEND
001134: 32,3172           10157                           DV       MPAC       +3
001135: 32,3173           27467                           ADS      FP                                    #  MINUS THRUST ALONG THE SM X-AXIS
001136:
001137: 32,3174           22007                           ZL
001138: 32,3175           00006                           EXTEND                                         #  DIVIDE BY COS(AIG) COS(AMG)
001139: 32,3176           10160                           DV       MPAC       +4
001140:
001141: 32,3177           55467                           TS       FP                                    #  MINUS PRESENT THRUST
001142:
001143: 32,3200           61615                           AD       FC
001144: 32,3201           54001                           TS       L                                     #  LIMIT PIF TO WHAT CAN BE READ OUT
001145: 32,3202           33522                           CAF      P66PMIN                               #    (LOSCALAR AND THRUST BOTH 3200 PPS)
001146: 32,3203           04616                           TC       BANKCALL
001147: 32,3204           61713                           CADR     LIMITSUB
001148:
001149: 32,3205           04616                           TC       BANKCALL                              #  GO TO THROTTLE WITH PIF IN A


001151: 32,3206           62144                           CADR     P66THROT
001152:
001153: 32,3207           00003        P66REL             RELINT
001154:
001155: 32,3210           53617                           DXCH     FWEIGHT1                              #  SCALE FWEIGHT FOR USE NEXT PASS
001156: 32,3211           52155                           DXCH     MPAC
001157: 32,3212           30160                           CA       MPAC       +4                         #  FIRST TAKE OUT THE ATTITUDE EFFECT
001158: 32,3213           07321                           TC       SHORTMP
001159: 32,3214           33526                           CAF      2SECS(9)
001160: 32,3215           07321                           TC       SHORTMP
001161: 32,3216           52155                           DXCH     MPAC
001162: 32,3217           53617                           DXCH     FWEIGHT1                              #  TRANSFERRED TO FWEIGHT LATER
001163:
001164:                                                                                                  #      UPDATE VHZC (Y AND Z COMPONENTS) ACCORDING TO HAND CONTROLLER DEFLECTIONS.  IT IS ASSUMED THAT THE PLANE OF
001165:                                                                                                  #  THE SM Y AND Z AXES IS PARALLEL TO THE LOCAL SURFACE, AS IT WILL BE IN P66 FOR THE NORMAL "LANDING ALIGNMENT".
001166:
001167: 32,3220           34755                           CAF      ZERO
001168: 32,3221           57645                           XCH      AZCOUNT1                              #  RESTART BETWEEN NOW AND THE UPDATE OF
001169: 32,3222           00006                           EXTEND                                         #    VHZC COULD CAUSE LOSS OF ROHZ CLICKS
001170: 32,3223           70162                           MP       MPAC       +6
001171: 32,3224           22130                           LXCH     BUF                                   #  AZCOUNT1.ROHZCAL IN UNITS OF 2(-3) M/CS
001172:
001173: 32,3225           34755                           CAF      ZERO
001174: 32,3226           57644                           XCH      ELCOUNT1                              #  RESTART BETWEEN NOW AND THE UPDATE OF
001175: 32,3227           00006                           EXTEND                                         #    VHZC COULD CAUSE LOSS OF ROHZ CLICKS
001176: 32,3230           70162                           MP       MPAC       +6
001177: 32,3231           22131                           LXCH     BUF        +1                         #  ELCOUNT1.ROHZSCAL IN UNITS OF 2(-3) M/CS
001178:
001179: 32,3232           35015                           CAF      EBANK6
001180: 32,3233           54003                           TS       EBANK
001181: 32,3234  E6,1774                                  EBANK=   END-E6
001182:
001183: 32,3234           30130                           CA       BUF
001184: 32,3235           00006                           EXTEND
001185: 32,3236           71420                           MP       M32                                   #  COS(AOG)
001186: 32,3237           54002                           TS       Q
001187: 32,3240           40131                           CS       BUF        +1
001188: 32,3241           00006                           EXTEND
001189: 32,3242           71417                           MP       M22                                   #  SIN(AOG)
001190: 32,3243           60002                           AD       Q
001191: 32,3244           00006                           EXTEND
001192: 32,3245           74745                           MP       BIT7
001193: 32,3246           52155                           DXCH     MPAC                                  #  INCREMENT FOR VHZCY, UNITS OF 2(5) M/CS
001194:
001195: 32,3247           30130                           CA       BUF
001196: 32,3250           00006                           EXTEND
001197: 32,3251           71417                           MP       M22                                   #  SIN(AOG)
001198: 32,3252           56131                           XCH      BUF        +1
001199: 32,3253           00006                           EXTEND
001200: 32,3254           71420                           MP       M32                                   #  COS(AOG)


001202: 32,3255           60131                           AD       BUF        +1
001203: 32,3256           00006                           EXTEND
001204: 32,3257           74745                           MP       BIT7                                  #  INCREMENT FOR VHZCZ, UNITS OF 2(5) M/CS
001205:
001206: 32,3260           24006                           INCR     BBANK
001207: 32,3261  E7,1777                                  EBANK=   END-E7
001208:
001209: 32,3261           21752                           DAS      VHZC       +4                         #  UPDATE VHZCZ
001210: 32,3262           52155                           DXCH     MPAC
001211: 32,3263           21750                           DAS      VHZC       +2                         #  UPDATE VHZCY
001212:
001213: 32,3264           03507                           TC       P66CHNG
001214:
001215: 32,3265           00006                           EXTEND                                         #  STORE FWEIGHT FOR USE NEXT PASS
001216: 32,3266           31617                           DCA      FWEIGHT1
001217: 32,3267           53611                           DXCH     FWEIGHT
001218:
001219: 32,3270           41760                           CS       TAU                                   #  STORE MINUS TAU FOR TEST NEXT PASS
001220: 32,3271           55761                           TS       -OLDTAU
001221:
001222: 32,3272           03507        ENDROD             TC       P66CHNG
001223:
001224: 32,3273           00006                           EXTEND                                         #  STORE TIME AND PIPX FOR NEXT PASS
001225: 32,3274           31755                           DCA      P66TPIP
001226: 32,3275           53757                           DXCH     OP66TPIP
001227:
001228:                                                                                                  #  ********************************
001229:                                                                                                  #  ANY MORE WORK THIS PASS?
001230:                                                                                                  #  ********************************
001231:
001232: 32,3276           00006        MOREP66?           EXTEND                                         #  TERMINATE P66JOB RESTART PROTECTION
001233: 32,3277           34755                           DCA      NEG0
001234: 32,3300           52756                           DXCH     -PHASE3
001235:
001236:                                                                                                  #      NOTE:  A RESTART BETWEEN NOW AND THE END OF THE JOB WILL CAUSE THE LOSS OF THE REMAINDER OF THE JOB.  BUT
001237:                                                                                                  #  THIS DOES NOT MATTER.  SINCE HZCOUNT IS NOT INCREMENTED UNTIL THE END OF THE JOB, THE FIRST P66JOB AFTER THE
001238:                                                                                                  #  RESTART WILL REPEAT AND COMPLETE THE COMPUTATIONS STARTED HERE.
001239:
001240: 32,3301           37722                           CAF      PRIO22
001241: 32,3302           05146                           TC       PRIOCHNG
001242:
001243: 32,3303           37723                           CAF      PRIO23
001244: 32,3304           05146                           TC       PRIOCHNG
001245:
001246:                                                                                                  #      THE DESISION WHETHER TO EXECUTE THE P66 HORIZONTAL CONTROL EQUATION IS MADE EVERY 1/4 SECOND ON THE
001247:                                                                                                  #  FOLLOWING BASIS:  IF MODE HAS BEEN SWITCHED FROM ATTITUDE-HOLD TO AUTO BETWEEN THE MOST RECENT FINDCDUW AND
001248:                                                                                                  #  NOW, DO P66HZ IMMEDIATELY.  OTHERWISE, DO P66HZ EVERY TWO SECONDS (WHICH COULD BE CHANGED TO ONE SECOND), AND
001249:                                                                                                  #  DO P65DISPS EVERY ONE SECOND, STAGGERED FROM P66HZ.
001250:
001251: 32,3305           30120                           CA       FIXLOC                                #  ZERO PUSHDOWN POINTER


001253: 32,3306           54166                           TS       PUSHLOC
001254:
001255: 32,3307           35015                           CAF      EBANK6                                #  SWITCH TO E6 FOR FLPAUTNO
001256: 32,3310           54003                           TS       EBANK
001257: 32,3311  E6,1774                                  EBANK=   END-E6
001258:
001259: 32,3311           34736                           CAF      BIT14                                 #  IS MODE IN AUTO?
001260: 32,3312           00006                           EXTEND
001261: 32,3313           02031                           RAND     CHAN31
001262: 32,3314           00006                           EXTEND
001263: 32,3315           13322                           BZF      CHKFPAUT                              #  YES:  GO CHECK FLPAUTNO
001264:
001265: 32,3316           55651                           TS       FLPAUTNO                              #  NO:   SET FLPAUTNO TO INDICATE ATT-HOLD,
001266: 32,3317           24006                           INCR     BBANK                                 #          RETURN TO E7, AND ZERO VHZC
001267: 32,3320           03501                           TC       ZEROVHZC
001268: 32,3321           13330                           TCF      HZTIME?
001269:
001270: 32,3322           31651        CHKFPAUT           CA       FLPAUTNO                              #  WAS MODE IN AUTO LAST FINDCDUW?
001271: 32,3323           24006                           INCR     BBANK
001272: 32,3324  E7,1777                                  EBANK=   END-E7
001273: 32,3324           00006                           EXTEND
001274: 32,3325           13330                           BZF      HZTIME?                               #  YES
001275:
001276: 32,3326           03501                           TC       ZEROVHZC                              #  NO:   MODE JUST SWITCHED SO ZERO VHZC
001277: 32,3327           55753                           TS       HZCOUNT                               #          AND HZCOUNT FOR IMMEDIATE P66HZ
001278:
001279: 32,3330           31753        HZTIME?            CA       HZCOUNT                               #  DOES HZCOUNT = 0 MODULO 8?
001280: 32,3331           74757                           MASK     SEVEN
001281: 32,3332           00006                           EXTEND
001282: 32,3333           13342                           BZF      P66HZ                                 #  YES:  DO HORIZONTAL CONTROL EQUATION
001283:
001284: 32,3334           76257                           MASK     THREE                                 #  NO:   DOES HZCOUNT = 2 MODULO 4?
001285: 32,3335           67760                           AD       NEG2
001286: 32,3336           00006                           EXTEND
001287: 32,3337           13417                           BZF      P66DISPS                              #  YES:  GO COMPUTE DISPLAYS
001288:
001289: 32,3340           25753        END66JOB           INCR     HZCOUNT                               #  NO:   INCREMENT HZCOUNT, TERMINATE JOB:
001290: 32,3341           05155                           TC       ENDOFJOB                              #          P66HZ COMES HERE TOO
001291:
001292:                                                                                                  #  ********************************
001293:                                                                                                  #  HORIZONTAL CONTROL EQUATION
001294:                                                                                                  #  ********************************
001295:
001296: 32,3342           06051        P66HZ              TC       INTPRET
001297: 32,3343           63345                           DLOAD    PDVL
001298: 32,3344           02477                                    AHZLIM
001299: 32,3345           03253                                    UNFC/2
001300: 32,3346           63361                           VXSC     PDVL
001301: 32,3347           02476                                    QHZ
001302: 32,3350           03727                                    VVECTX


001304: 32,3351           77645                           BVSU
001305: 32,3352           03746                                    VHZC
001306: 32,3353           52341                           V/SC     VSU
001307: 32,3354           02475                                    TAUHZ
001308: 32,3355           47034                           RTB      RTB                                   #  ZERO X-COMPONENT AND UNITIZE
001309: 32,3356           63537                                    ZEROMPAC
001310: 32,3357           21706                                    NORMUNX1
001311: 32,3360           53725                           PDDL     SL*                                   #  CORRECT MAGNITUDE FOR NORMUNX1 SHIFT
001312: 32,3361           00045                                    36D
001313: 32,3362           20201                                    0,1
001314: 32,3363           74234                           RTB      VXSC                                  #  LIMIT MAGNITUDE TO AHZLIM
001315: 32,3364           63547                                    MPACLIM
001316: 32,3365           77776                           EXIT
001317:
001318: 32,3366           33521                           CA       GHZ                                   #  X-COMPONENT = GRAVITY
001319: 32,3367           54154                           TS       MPAC
001320:
001321: 32,3370           30121                           CA       OVFIND                                #  ANY INTERPRETIVE OVERFLOW?
001322: 32,3371           00006                           EXTEND
001323: 32,3372           13376                           BZF      ENGARM?                               #  NO:   CONTINUE CHECKING
001324:
001325: 32,3373           04616                           TC       BANKCALL                              #  YES:  ISSUE ALARM BUT NO COMMANDS
001326: 32,3374           63646                           FCADR    OVFDESC
001327: 32,3375           13340                           TCF      END66JOB
001328:
001329: 32,3376           34751        ENGARM?            CAF      BIT3                                  #  IS ENGINE-ARM SWITCH ON?
001330: 32,3377           00006                           EXTEND
001331: 32,3400           02030                           RAND     CHAN30
001332: 32,3401           00006                           EXTEND
001333: 32,3402           13412                           BZF      CDUWHZ                                #  YES:  LIMIT AND ISSUE COMMANDS
001334:
001335: 32,3403           40074                           CS       FLAGWRD0                              #  NO:   HAS ASTRONAUT RESPONDED TO P06N60?
001336: 32,3404           74753                           MASK     P66PROBT
001337: 32,3405           00006                           EXTEND
001338: 32,3406           13412                           BZF      CDUWHZ                                #  NO:   LIMIT AND ISSUE COMMANDS
001339:
001340: 32,3407           33515                           CA       IDLADR                                #  YES:  PREVENT RCS JET FIRINGS
001341: 32,3410           55263                           TS       T5ADR
001342: 32,3411           13340                           TCF      END66JOB
001343:
001344: 32,3412           06051        CDUWHZ             TC       INTPRET
001345: 32,3413           37253                           STCALL   UNFC/2                                #  MUST STORE FOR SUCCEEDING PASS
001346: 32,3414           61075                                    FINDCDUW
001347: 32,3415           77776                           EXIT
001348:
001349: 32,3416           13340                           TCF      END66JOB
001350:
001351:                                                                                                  #  ********************************
001352:                                                                                                  #  P66 DISPLAY COMPUTATIONS
001353:                                                                                                  #  ********************************


001355: 32,3417           06051        P66DISPS           TC       INTPRET
001356: 32,3420           41345                           DLOAD    DMP                                   #  AHZLIM.TAUHZ TO PD 0 FOR MPACLIM BELOW
001357: 32,3421           02477                                    AHZLIM
001358: 32,3422           02475                                    TAUHZ
001359: 32,3423           47115                           PDVL     RTB
001360: 32,3424           03727                                    VVECTX
001361: 32,3425           63537                                    ZEROMPAC
001362: 32,3426           65234                           RTB      PDDL
001363: 32,3427           21706                                    NORMUNX1
001364: 32,3430           00045                                    36D
001365: 32,3431           41457                           SL*      PUSH
001366: 32,3432           20201                                    0,1
001367: 32,3433           00045                           STORE    36D
001368: 32,3434           63434                           RTB      DSQ
001369: 32,3435           63547                                    MPACLIM
001370: 32,3436           65352                           SL1      PDDL
001371: 32,3437           43316                           DSQ      DAD
001372: 32,3440           65271                           DDV      PDDL
001373: 32,3441           02477                                    AHZLIM


001375: 32,3442           02500                                    TEXTRA
001376: 32,3443           43205                           DMP      DAD
001377: 32,3444           00045                                    36D
001378: 32,3445           74276                           DCOMP    VXSC
001379: 32,3446           65345                           DLOAD    PDDL                                  #  PUSH DOWN Z AND Y COMPS FOR VDEF BELOW
001380: 32,3447           00162                                    MPAC       +5
001381: 32,3450           00160                                    MPAC       +3
001382: 32,3451           43325                           PDDL     DAD                                   #  COMPUTE X-COMP AS ALTITUDE CORRECTED
001383: 32,3452           03737                                    ALTITUDE
001384: 32,3453           25524                                    DALTEYE
001385: 32,3454           53466                           VDEF     UNIT                                  #  FORM UNIT VECTOR FROM SITE TO EYE IN SM
001386: 32,3455           45034                           RTB      CALL                                  #    COORDINATES AND CONVERT TO NB
001387: 32,3456           47613                                    QTPROLOG
001388: 32,3457           47676                                    *SMNB*
001389: 32,3460           77562                           VSR1     EXIT                                  #  EXIT WITH SINE(LOOKANGL)/4 IN MPAC
001390:
001391: 32,3461           04616                           TC       BANKCALL                              #  LPDFVSUB TAKES IT FROM THERE
001392: 32,3462           63570                           CADR     LPDFVSUB
001393:
001394: 32,3463           25753        UNDISP?            INCR     HZCOUNT
001395: 32,3464           40104                           CS       FLAGWRD8                              #  NO DISPLAYS THIS PASS IF FLUNDISP SET
001396: 32,3465           74742                           MASK     FLUNDBIT
001397: 32,3466           00006                           EXTEND


001399: 32,3467           13340                           BZF      END66JOB
001400:
001401: 32,3470           05165        VERTDISP           TC       VACRLEAS
001402: 32,3471           33525                           CAF      V06N60
001403: 32,3472           04616                           TC       BANKCALL
001404: 32,3473           20460                           CADR     REFLASH
001405: 32,3474           05155                           TC       ENDOFJOB                              #  TERMINATE  IGNORE AND KEEP FLASHING
001406: 32,3475           13476                           TCF      STOPFIRE                              #  PROCEED    GO TERMINATE P66HZ OUTPUTS


001408: 32,3476           05527        STOPFIRE           TC       DOWNFLAG                              #  ENTER      TERMINATE P66HZ OUTPUTS
001409: 32,3477           00016                           ADRES    P66PROFL
001410: 32,3500           15155                           TCF      ENDOFJOB
001411:
001412:                                                                                                  #  ********************************
001413:                                                                                                  #  P66JOB SUBROUTINES
001414:                                                                                                  #  ********************************
001415:
001416: 32,3501           34755        ZEROVHZC           CAF      ZERO                                  #  THE X-COMPONENT OF VHZC NEVER MATTERS,
001417: 32,3502           55747                           TS       VHZC       +2                         #    AND BESIDES IT OVERLAPS VDGVERT
001418: 32,3503           55750                           TS       VHZC       +3
001419: 32,3504           55751                           TS       VHZC       +4
001420: 32,3505           55752                           TS       VHZC       +5
001421: 32,3506           00002                           TC       Q
001422:


001432:
001433: 32,3507  E3,1442                                  EBANK=   PHSNAME3
001434: 32,3507           35007        P66CHNG            CAF      EBANK3
001435: 32,3510           56003                           XCH      EBANK
001436: 32,3511           52002                           DXCH     L
001437: 32,3512           55442                           TS       PHSNAME3
001438: 32,3513           22003                           LXCH     EBANK
001439: 32,3514           00000                           TC       A
001440:
001441: 32,3515  E7,1647                                  EBANK=   ELVIRA
001442:
001443:                                                                                                  #  ********************************
001444:                                                                                                  #  P66JOB CONSTANTS
001445:                                                                                                  #  ********************************
001446:
001447: 32,3515           02024        IDLADR             GENADR   DAPIDLER
001448:
001449: 32,3516           01507        P66KPIP            DEC      .0512                                 #  SCALES PIPAS TO UNITS OF 2(5) M/CS
001450:
001451: 32,3517           32156        P66KPIPB           DEC      .8192
001452:
001453: 32,3520           00143        RIMUZ              DEC      99.486     B-14                       #  1.2667 M IN UNITS (180/PI 45) 2(14) CM
001454:
001455: 32,3521           00053        GHZ                DEC      +1.62292   E-4        B+4             #            LUNAR GRAVITY
001456:
001457: 32,3522           02260        P66PMIN            DEC      37.5       B-9
001458:
001459: 32,3523           00002 20000  DALTEYE            2DEC     5          B-15                       #  ROUGH DISTANCE FROM EYE TO LR ANTENNA
001460:


001462: 32,3525           01474        V06N60             VN       0660
001463:
001464: 32,3526     4773               DEC48              =        SUPER011
001465:
001466: 32,3526           14400        2SECS(9)           DEC      200        B-9
001467:
001468:                                                                                                  #  ****************************************************************************************************************
001469:                                                                                                  #  REDESIGNATOR TRAP
001470:                                                                                                  #  ****************************************************************************************************************
001471:
001472: 23,2000                                           SETLOC   RODTRAP
001473: 23,2000                                           BANK
001474:
001475: 23,2453                                           COUNT*   $$/F2DPS
001476:
001477: 23,2453           56016        PITFALL            XCH      BANKRUPT
001478: 23,2454           00006                           EXTEND
001479: 23,2455           22012                           QXCH     QRUPT
001480:
001481: 23,2456           44745                           CS       BIT7                                  #  ARE WE IN P64 OR P66?
001482: 23,2457           61010                           AD       MODREG
001483: 23,2460           10000                           CCS      A
001484: 23,2461           77743                           MASK     OCT37776
001485: 23,2462           10000                           CCS      A
001486: 23,2463           05301                           TC       RESUME                                #  NO:   RESUME IMMEDIATELY
001487:
001488: 23,2464           00006                           EXTEND                                         #  YES
001489: 23,2465           00031                           READ     CHAN31
001490: 23,2466           40000                           COM
001491: 23,2467           72500                           MASK     ALL4BITS
001492: 23,2470           55647                           TS       ELVIRA
001493: 23,2471           34752                           CAF      TWO
001494: 23,2472           55646                           TS       ZERLINA
001495: 23,2473           34756                           CAF      FIVE
001496: 23,2474           05214                           TC       WAITLIST
001497: 23,2475  E7,1646                                  EBANK=   ZERLINA
001498: 23,2475           02305 22067                     2CADR    REDESMON
001499:
001500: 23,2477           15301                           TCF      RESUME
001501:
001502:
001503: 23,2500           00063        ALL4BITS           OCT      00063
001504:
001505:
001506:                                                                                                  #  REDESIGNATION MONITOR  (INITIATED BY PITFALL)


001508: 11,2000                                           SETLOC   F2DPS*11
001509: 11,2000                                           BANK
001510: 11,2302                                           COUNT*   $$/F2DPS
001511:
001512: 11,2302           55646        PREMON1            TS       ZERLINA
001513: 11,2303           34757        PREMON2            CAF      SEVEN
001514: 11,2304           05235                           TC       VARDELAY
001515: 11,2305           00006        REDESMON           EXTEND
001516: 11,2306           00031                           READ     31
001517: 11,2307           40000                           COM
001518: 11,2310           72365                           MASK     OCT00063
001519: 11,2311           57647                           XCH      ELVIRA
001520: 11,2312           54001                           TS       L
001521: 11,2313           11647                           CCS      ELVIRA                                #  DO ANY BITS APPEAR THIS PASS?
001522: 11,2314           12303                           TCF      PREMON2                               #    Y: CONTINUE MONITOR
001523:
001524: 11,2315           10001                           CCS      L                                     #    N: ANY LAST PASS?
001525: 11,2316           12326                           TCF      COUNT'EM                              #       Y: COUNT 'EM, RESET RUPT, TERMINATE
001526: 11,2317           11646                           CCS      ZERLINA                               #       N: HAS ZERLINA REACHED ZERO YET?
001527: 11,2320           12302                           TCF      PREMON1                               #       N: DIMINISH ZERLINA, CONTINUE
001528: 11,2321           06022        RESETRPT           TC       C13STALL                              #       Y: RESET RUPT, TERMINATE
001529: 11,2322           34740                           CAF      BIT12
001530: 11,2323           00006                           EXTEND
001531: 11,2324           05013                           WOR      CHAN13
001532: 11,2325           15272                           TCF      TASKOVER
001533:
001534: 11,2326           34737        COUNT'EM           CAF      BIT13                                 #  ARE WE IN ATTITUDE-HOLD?
001535: 11,2327           00006                           EXTEND
001536: 11,2330           02031                           RAND     CHAN31
001537: 11,2331           00006                           EXTEND
001538: 11,2332           12321                           BZF      RESETRPT
001539:
001540: 11,2333           34742                           CAF      BIT10                                 #  NO:   DOES AGS HAVE CONTROL?
001541: 11,2334           00006                           EXTEND
001542: 11,2335           02030                           RAND     CHAN30
001543: 11,2336           10000                           CCS      A
001544: 11,2337           12321                           TCF      RESETRPT
001545:
001546: 11,2340           30001                           CA       L                                     #  NO
001547: 11,2341           74746                           MASK     -AZBIT
001548: 11,2342           10000                           CCS      A
001549: 11,2343           44753        -AZ                CS       ONE
001550: 11,2344           27645                           ADS      AZCOUNT1
001551: 11,2345           30001                           CA       L
001552: 11,2346           74747                           MASK     +AZBIT
001553: 11,2347           10000                           CCS      A
001554: 11,2350           34753        +AZ                CA       ONE
001555: 11,2351           27645                           ADS      AZCOUNT1
001556: 11,2352           30001                           CA       L
001557: 11,2353           74753                           MASK     -ELBIT


001559: 11,2354           10000                           CCS      A
001560: 11,2355           44753        -EL                CS       ONE
001561: 11,2356           27644                           ADS      ELCOUNT1
001562: 11,2357           30001                           CA       L
001563: 11,2360           74752                           MASK     +ELBIT
001564: 11,2361           10000                           CCS      A
001565: 11,2362           34753        +EL                CA       ONE
001566: 11,2363           27644                           ADS      ELCOUNT1
001567: 11,2364           12321                           TCF      RESETRPT
001568:
001569:                                                                                                  #  THESE EQUIVALENCIES ARE BASED ON GSOP CHAPTER 4, REVISION 16 OF P64LM
001570:
001571:
001572: 11,2365     4752               +ELBIT             =        BIT2                                  #  -PITCH
001573:
001574:
001575: 11,2365     4753               -ELBIT             =        BIT1                                  #  +PITCH
001576:
001577:
001578: 11,2365     4747               +AZBIT             =        BIT5
001579:
001580:
001581: 11,2365     4746               -AZBIT             =        BIT6
001582:
001583:
001584: 11,2365           00063        OCT00063           OCT      00063
001585:
001586:
001587:                                                                                                  #  ****************************************************************************************************************
001588:                                                                                                  #  R.O.D. TRAP
001589:                                                                                                  #  ****************************************************************************************************************
001590:
001591: 23,2000                                           SETLOC   RODTRAP
001592: 23,2000                                           BANK
001593: 23,2501                                           COUNT*   $$/F2DPS
001594:
001595: 23,2501           74745        DESCBITS           MASK     BIT7                                  #  COME HERE FROM MARKRUPT CODING WITH BIT
001596: 23,2502           10000                           CCS      A                                     #    7 OR 6 OF CHANNEL 16 IN A: BIT 7 MEANS
001597: 23,2503           44752                           CS       TWO                                   #    - RATE INCREMENT, BIT 6 + INCREMENT
001598: 23,2504           64753                           AD       ONE
001599: 23,2505           27744                           ADS      RODCOUNT
001600: 23,2506           15301                           TCF      RESUME                                #  TRAP IS RESET WHEN SWITCH IS RELEASED
001601:
001602:
001603: 31,3413                                           BANK     31
001604: 31,2000                                           SETLOC   F2DPS*31
001605: 31,2000                                           BANK
001606:
001607: 31,3413                                           COUNT*   $$/F2DPS
001608:


001610:                                                                                                  #  ****************************************************************************************************************
001611:                                                                                                  #  DOUBLE PRECISION ROOT FINDER SUBROUTINE (BY ALLAN KLUMPP)
001612:                                                                                                  #  ****************************************************************************************************************
001613:
001614:                                                                                                  #                                                          N        N-1
001615:                                                                                                  #           ROOTPSRS FINDS ONE ROOT OF THE POWER SERIES A X  + A   X    + ... + A X + A
001616:                                                                                                  #                                                        N      N-1              1     0
001617:
001618:                                                                                                  #  USING NEWTON'S METHOD STARTING WITH AN INITIAL GUESS FOR THE ROOT. THE ENTERING DATA MUST BE AS FOLLOWS:
001619:
001620:                                                                                                  #                                          A        SP     LOC-3           ADRES FOR REFERENCING PWR COF TABL
001621:                                                                                                  #                                          L        SP     N-1             N IS THE DEGREE OF THE POWER SERIES
001622:                                                                                                  #                                          MPAC     DP     X               INITIAL GUESS FOR ROOT
001623:
001624:                                                                                                  #                                          LOC-2N   DP     A(0)
001625:                                                                                                  #                                                   ...
001626:                                                                                                  #                                          LOC      DP     A(N)
001627:                                                                                                  #                                          LOC+2    SP     PRECROOT        PREC RQD OF ROOT (AS FRACT OF 1ST GUESS)
001628:
001629:                                                                                                  #  THE DP RESULT IS LEFT IN MPAC UPON EXIT, AND A SP COUNT OF THE ITERATIONS TO CONVERGENCE IS LEFT IN MPAC+2.
001630:                                                                                                  #  RETURN IS NORMALLY TO LOC(TC ROOTPSRS)+3.   IF ROOTPSRS FAILS TO CONVERGE IN 8 PASSES, RETURN IS TO LOC+1 AND
001631:                                                                                                  #  OUTPUTS ARE NOT TO BE TRUSTED.
001632:
001633:                                                                                                  #           PRECAUTION: ROOTPSRS MAKES NO CHECKS FOR OVERFLOW OR FOR IMPROPER USAGE. IMPROPER USAGE COULD
001634:                                                                                                  #  PRECLUDE CONVERGENCE OR REQUIRE EXCESSIVE ITERATIONS. AS A SPECIFIC EXAMPLE, ROOTPSRS FORMS A DERIVATIVE
001635:                                                                                                  #  COEFFICIENT TABLE BY MULTIPLYING EACH A(I) BY I, WHERE I RANGES FROM 1 TO N. IF AN ELEMENT OF THE DERIVATIVE
001636:                                                                                                  #  COEFFICIENT TABLE = 1 OR > 1 IN MAGNITUDE, ONLY THE EXCESS IS RETAINED. ROOTPSRS MAY CONVERGE ON THE CORRECT
001637:                                                                                                  #  ROOT NONETHELESS, BUT IT MAY TAKE AN EXCESSIVE NUMBER OF ITERATIONS. THEREFORE THE USER SHOULD RECOGNIZE:
001638:
001639:                                                                                                  #  1. USER'S RESPONSIBILITY TO ASSURE THAT I X A(I) < 1 IN MAGNITUDE FOR ALL I.
001640:
001641:                                                                                                  #  2. USER'S RESPONSIBILITY TO ASSURE OVERFLOW WILL NOT OCCUR IN EVALUATING EITHER THE RESIDUAL OR THE DERIVATIVE
001642:                                                                                                  #     POWER SERIES.   THIS OVERFLOW WOULD BE PRODUCED BY SUBROUTINE POWRSERS, CALLED BY ROOTPSRS, AND MIGHT NOT
001643:                                                                                                  #     PRECLUDE EVENTUAL CONVERGENCE.
001644:
001645:                                                                                                  #  3. AT PRESENT, ERASABLE LOCATIONS ARE RESERVED ONLY FOR N UP TO 5.   AN N IN EXCESS OF 5 WILL PRODUCE CHAOS.
001646:                                                                                                  #     ALL ERASABLES USED BY ROOTPSRS ARE UNSWITCHED LOCATED IN THE REGION FROM MPAC-33 OCT TO MPAC+7.
001647:
001648:                                                                                                  #  4. THE ITERATION COUNT RETURNED IN MPAC+2 MAY BE USED TO DETECT ABNORMAL PERFORMANCE.
001649:
001650:                                                                                                  #  STORE ENTERING DATA, INITLIZE ERASABLES
001651:
001652: 31,3413           00006        ROOTPSRS           EXTEND
001653: 31,3414           22132                           QXCH     RETROOT                               #  RETURN ADRES
001654: 31,3415           54117                           TS       PWRPTR                                #  PWR TABL POINTER
001655: 31,3416           52160                           DXCH     MPAC       +3                         #  PWR TABL ADRES, N-1
001656: 31,3417           33536                           CA       DERTABLL
001657: 31,3420           54141                           TS       DERPTR                                #  DER TABL POINTER
001658: 31,3421           54161                           TS       MPAC       +5                         #  DER TABL ADRES
001659: 31,3422           10160                           CCS      MPAC       +4                         #  NO POWER SERIES OF DEGREE 1 OR LESS


001661: 31,3423           54162                           TS       MPAC       +6                         #  N-2
001662: 31,3424           34755                           CA       ZERO                                  #  MODE USED AS ITERATION COUNTER. MODE
001663: 31,3425           54163                           TS       MODE                                  #  MUST BE POS SO ABS WON'T COMP MPAC+3 ETC
001664:
001665:                                                                                                  #  COMPUTE CRITERION TO STOP ITERATING
001666:
001667: 31,3426           00006                           EXTEND
001668: 31,3427           30155                           DCA      MPAC                                  #  FETCH ROOT GUESS, KEEPING IT IN MPAC
001669: 31,3430           52127                           DXCH     ROOTPS                                #  AND IN ROOTPS
001670: 31,3431           50157                           INDEX    MPAC       +3                         #  PWR TABL ADRES
001671: 31,3432           30005                           CA       5                                     #  PRECROOT TO A
001672: 31,3433           07321                           TC       SHORTMP                               #  YIELDS DP PRODUCT IN MPAC
001673: 31,3434           04713                           TC       USPRCADR
001674: 31,3435           01226                           CADR     ABS                                   #  YIELDS ABVAL OF CRITERION ON DX IN MPAC
001675: 31,3436           52155                           DXCH     MPAC
001676: 31,3437           52125                           DXCH     DXCRIT                                #  CRITERION
001677:
001678:                                                                                                  #  SET UP DER COF TABL
001679:
001680: 31,3440           00006                           EXTEND
001681: 31,3441           50117                           INDEX    PWRPTR
001682: 31,3442           30004                           DCA      3
001683: 31,3443           52155                           DXCH     MPAC                                  #  A(N) TO MPAC
001684:
001685: 31,3444           30160                           CA       MPAC       +4                         #  N-1 TO A
001686:
001687: 31,3445           54140        DERCLOOP           TS       PWRCNT                                #  LOOP COUNTER
001688: 31,3446           64753                           AD       ONE
001689: 31,3447           07330                           TC       DMPNSUB                               #  YIELDS DERCOF = I X A(I) IN MPAC
001690: 31,3450           00006                           EXTEND
001691: 31,3451           50117                           INDEX    PWRPTR
001692: 31,3452           30002                           DCA      1
001693: 31,3453           52155                           DXCH     MPAC                                  #  A(I-1) TO MPAC, FETCHING DERCOF
001694: 31,3454           50141                           INDEX    DERPTR
001695: 31,3455           52004                           DXCH     3                                     #  DERCOF TO DER TABL
001696: 31,3456           44752                           CS       TWO
001697: 31,3457           26117                           ADS      PWRPTR                                #  DECREMENT PWR POINTER
001698: 31,3460           44752                           CS       TWO
001699: 31,3461           26141                           ADS      DERPTR                                #  DECREMENT DER POINTER
001700: 31,3462           10140                           CCS      PWRCNT
001701: 31,3463           13445                           TCF      DERCLOOP
001702:
001703:                                                                                                  #  CONVERGE ON ROOT
001704:
001705: 31,3464           00006        ROOTLOOP           EXTEND
001706: 31,3465           30127                           DCA      ROOTPS                                #  FETCH CURRENT ROOT
001707: 31,3466           52155                           DXCH     MPAC                                  #  LEAVE IN MPAC
001708: 31,3467           00006                           EXTEND
001709: 31,3470           30162                           DCA      MPAC       +5                         #  LOAD A, L WITH DER TABL ADRES, N-2
001710: 31,3471           07227                           TC       POWRSERS                              #  YIELDS DERIVATIVE IN MPAC
001711:


001713: 31,3472           00006                           EXTEND
001714: 31,3473           30127                           DCA      ROOTPS
001715: 31,3474           52155                           DXCH     MPAC                                  #  CURRENT ROOT TO MPAC, FETCHING DERIVTIVE
001716: 31,3475           52131                           DXCH     BUF                                   #  LEAVE DERIVATIVE IN BUF AS DIVISOR
001717: 31,3476           00006                           EXTEND
001718: 31,3477           30160                           DCA      MPAC       +3                         #  LOAD A, L WITH PWR TABL ADRES, N-1
001719: 31,3500           07227                           TC       POWRSERS                              #  YIELDS RESIDUAL IN MPAC
001720:
001721: 31,3501           04713                           TC       USPRCADR
001722: 31,3502           00353                           CADR     DDV/BDDV                              #  YIELDS -DX IN MPAC
001723:
001724: 31,3503           00006                           EXTEND
001725: 31,3504           40155                           DCS      MPAC                                  #  FETCH DX, LEAVING -DX IN MPAC
001726: 31,3505           20127                           DAS      ROOTPS                                #  CORRECTED ROOT NOW IN ROOTPS
001727:
001728: 31,3506           04713                           TC       USPRCADR
001729: 31,3507           01226                           CADR     ABS                                   #  YIELDS ABS(DX) IN MPAC
001730: 31,3510           00006                           EXTEND
001731: 31,3511           40125                           DCS      DXCRIT
001732: 31,3512           20155                           DAS      MPAC                                  #  ABS(DX)-ABS(DXCRIT) IN MPAC
001733:
001734: 31,3513           30163                           CA       MODE
001735: 31,3514           74750                           MASK     BIT4                                  #  KLUMPP SAYS GIVE UP AFTER EIGHT PASSES
001736: 31,3515           10000                           CCS      A
001737: 31,3516           00132        BADROOT            TC       RETROOT
001738:
001739: 31,3517           24163                           INCR     MODE                                  #  INCREMENT ITERATION COUNTER
001740: 31,3520           10154                           CCS      MPAC                                  #  TEST HI ORDER DX
001741: 31,3521           13464                           TCF      ROOTLOOP
001742: 31,3522           13524                           TCF      TESTLODX
001743: 31,3523           13530                           TCF      ROOTSTOR
001744: 31,3524           10155        TESTLODX           CCS      MPAC       +1                         #  TEST LO ORDER DX
001745: 31,3525           13464                           TCF      ROOTLOOP
001746: 31,3526           13530                           TCF      ROOTSTOR
001747: 31,3527           13530                           TCF      ROOTSTOR
001748: 31,3530           52127        ROOTSTOR           DXCH     ROOTPS
001749: 31,3531           52155                           DXCH     MPAC
001750: 31,3532           30163                           CA       MODE
001751: 31,3533           54156                           TS       MPAC       +2                         #  STORE SP ITERATION COUNT IN MPAC+2
001752: 31,3534           50132                           INDEX    RETROOT
001753: 31,3535           10002                           TCF      2
001754:
001755: 31,3536           00147        DERTABLL           ADRES    DERCOFN    -3
001756:
001757:
001758:                                                                                                  #  ****************************************************************************************************************
001759:                                                                                                  #  TRASHY LITTLE SUBROUTINES
001760:                                                                                                  #  ****************************************************************************************************************
001761:
001762: 31,3537           34755        ZEROMPAC           CAF      ZERO                                  #  ROUTINE TO ZERO THE FIRST COMPONENT


001764: 31,3540           54154                           TS       MPAC                                  #    OF A VECTOR IN MPAC.   "TCF DANZIG"
001765: 31,3541           54155                           TS       MPAC       +1                         #    COULD BE A "TC Q" AT THE EXPENSE OF
001766: 31,3542           16073                           TCF      DANZIG                                #    A TINY AMOUNT OF TIME.
001767:
001768: 31,3543           34755        ZEROMID            CAF      ZERO                                  #  ROUTINE TO ZERO THE MIDDLE COMPONENT
001769: 31,3544           54157                           TS       MPAC       +3                         #    OF A VECTOR IN MPAC.   "TCF DANZIG"
001770: 31,3545           54160                           TS       MPAC       +4                         #    COULD BE A "TC Q" AT THE EXPENSE OF
001771: 31,3546           16073                           TCF      DANZIG                                #    A TINY AMOUNT OF TIME.
001772:
001773:
001774: 31,3547           22154        MPACLIM            LXCH     MPAC                                  #  THIS SUBROUTINE LIMITS THE CONTENTS OF
001775: 31,3550           50120                           INDEX    FIXLOC                                #    MPAC TO THE SP CONTENTS OF PD 0
001776: 31,3551           30000                           CA       0
001777: 31,3552           04616                           TC       BANKCALL
001778: 31,3553           61713                           CADR     LIMITSUB
001779: 31,3554           54154                           TS       MPAC
001780: 31,3555           16073                           TCF      DANZIG
001781:
001782: 31,3556           51346        INTPRETX           INDEX    WCHPHASE                              #  SET X1 ON THE WAY TO THE INTERPRETER
001783: 31,3557           42407                           CS       TARGTDEX
001784: 31,3560           50120                           INDEX    FIXLOC
001785: 31,3561           54046                           TS       X1
001786: 31,3562           16051                           TCF      INTPRET
001787:
001788:
001789: 31,3563           31642        TDISPSET           CA       TTF/8
001790: 31,3564           00006                           EXTEND
001791: 31,3565           74750                           MP       TSCALINV
001792: 31,3566           53476                           DXCH     TTFDISP
001793:
001794: 31,3567           00002                           TC       Q
001795:
001796: 31,3570           04645        LPDFVSUB           TC       MAKECADR
001797: 31,3571           54161                           TS       MPAC       +5
001798:
001799: 31,3572           52155                           DXCH     MPAC
001800: 31,3573           20001                           DDOUBL
001801: 31,3574           04616                           TC       BANKCALL
001802: 31,3575           61656                           CADR     SPARCSIN   -1
001803: 31,3576           63637                           AD       1/2DEG
001804: 31,3577           61353                           AD       ELBIAS
001805: 31,3600           00006                           EXTEND
001806: 31,3601           73636                           MP       180DEGS
001807: 31,3602           55667                           TS       LOOKANGL
001808:
001809: 31,3603           00006                           EXTEND                                         #  HERE IF LOOKANGL IS NOT BETWEEN ZERO AND
001810: 31,3604           63611                           BZMF     +5                                    #    75 IT IS SET TO 99 FOR DISPLAY
001811: 31,3605           43634                           CS       DEC75
001812: 31,3606           61667                           AD       LOOKANGL
001813: 31,3607           00006                           EXTEND


001815: 31,3610           63613                           BZMF     +3
001816: 31,3611           33635                 +5        CAF      DEC99
001817: 31,3612           55667                           TS       LOOKANGL
001818:
001819: 31,3613           00006                 +3        EXTEND                                         #  RESCALE FORVEL TO 1 F/S/BIT
001820: 31,3614           31743                           DCA      FORVEL
001821: 31,3615           52155                           DXCH     MPAC
001822: 31,3616           33640                           CAF      FVSCALE
001823: 31,3617           07321                           TC       SHORTMP
001824: 31,3620           30155                           CA       MPAC       +1                         #  ROUND TO NEAREST F/S
001825: 31,3621           60000                           DOUBLE
001826: 31,3622           54002                           TS       Q
001827: 31,3623           34755                           CAF      ZERO
001828: 31,3624           26154                           ADS      MPAC
001829:
001830: 31,3625           22154                           LXCH     MPAC                                  #  TRUNCATE AT 99 F/S
001831: 31,3626           33635                           CAF      DEC99
001832: 31,3627           04616                           TC       BANKCALL
001833: 31,3630           61713                           CADR     LIMITSUB
001834: 31,3631           55666                           TS       FORVDSKY
001835:
001836: 31,3632           30161                           CA       MPAC       +5
001837: 31,3633           04640                           TC       BANKJUMP
001838:
001839: 31,3634           00113        DEC75              DEC      75         B-14
001840:
001841:
001842: 31,3635           00143        DEC99              DEC      99         B-14
001843:
001844:
001845: 31,3636           00264        180DEGS            DEC      180        B-14
001846:
001847:
001848: 31,3637           00056        1/2DEG             DEC      .00278
001849:
001850:
001851: 31,3640           24403        FVSCALE            DEC      328.084    B-9                        #  SCALES 2(5) M/CS TO 1 F/S/BIT
001852:
001853:
001854: 31,3641           05653        1406POO            TC       POODOO
001855: 31,3642           21406                           OCT      21406
001856: 31,3643           05600        1406ALM            TC       ALARM
001857: 31,3644           01406                           OCT      01406
001858: 31,3645           13305                           TCF      RATESTOP
001859:
001860: 31,3646           00006        OVFDESC            EXTEND
001861: 31,3647           23456                           QXCH     OVFRET
001862:
001863: 31,3650           05600                           TC       ALARM
001864: 31,3651           01410                           OCT      01410
001865:


001867: 31,3652           00004                           INHINT                                         #  MUST USE INHINT, IBNKCALL, RELINT
001868: 31,3653           04674                           TC       IBNKCALL                              #  BECAUSE DAP COULD INTERRUPT STOPRATE AND
001869: 31,3654           40166                           FCADR    STOPRATE                              #  BECAUSE WE COME FROM P66HZ VIA BANKCALL
001870: 31,3655           00003                           RELINT
001871:
001872: 31,3656           34755                           CA       ZERO
001873: 31,3657           54121                           TS       OVFIND
001874:
001875: 31,3660           01456                           TC       OVFRET
001876:
001877:                                                                                                  #  ****************************************************************************************************************
001878:                                                                                                  #  SPECIALIZED "PHASCHNG" SUBROUTINE
001879:                                                                                                  #  ****************************************************************************************************************
001880:
001881: 31,3661     6042               FASTCHNG           =        SERVCHNG
001882:
001883:                                                                                                  #  ****************************************************************************************************************
001884:                                                                                                  #  PARAMETER TABLE INDIRECT ADDRESSES
001885:                                                                                                  #  ****************************************************************************************************************
001886:
001887: 31,3661  E5,1402               RDG                =        RBRFGX
001888: 31,3661  E5,1412               VDG                =        VBRFGX
001889: 31,3661  E5,1422               ADG                =        ABRFGX
001890: 31,3661  E5,1432               VDG2TTF            =        VBRFG*
001891: 31,3661  E5,1436               ADG2TTF            =        ABRFG*
001892: 31,3661  E5,1442               JDG2TTF            =        JBRFG*
001893:
001894:                                                                                                  #  ****************************************************************************************************************
001895:                                                                                                  #  LUNAR LANDING CONSTANTS
001896:                                                                                                  #  ***************************************************************************************************************
001897:
001898: 31,3661           01563        TABLTTFL           ADRES    TABLTTF    +3                         #  ADDRESS FOR REFERENCING TTF TABLE
001899:
001900:
001901: 31,3662     4740               TTFSCALE           =        BIT12
001902:
001903:
001904: 31,3662     4750               TSCALINV           =        BIT4
001905:
001906:
001907: 31,3662           77630        -DEC103            DEC      -103       B-14
001908:
001909:
001910: 31,3663           00155        P64DB              OCT      00155                                 #  0.3 DEGREES SCALED AT CDU SCALING
001911:
001912:
001913: 31,3664           00143        +DEC99             DEC      +99        B-14
001914:
001915:
001916: 31,3665           75340        TREDESCL           DEC      -.08
001917:


001919: 31,3666           00436        ELEACH             DEC      .01746                                #  ONE DEGREE
001920:
001921:
001922: 31,3667  31,3666               AZEACH             =        ELEACH                                #  ONE DEGREE
001923:
001924: 31,3667           01542        PROJMAX            DEC      .42262     B-3                        #  SIN(25')/8 TO COMPARE WITH PROJ
001925:
001926:
001927: 31,3670           01022        PROJMIN            DEC      .25882     B-3                        #  SIN(15')/8 TO COMPARE WITH PROJ
001928:
001929:
001930: 31,3671           01477        V06N63             VN       0663                                  #  P63
001931:
001932: 31,3672           01500        V06N64             VN       0664                                  #  P64
001933:
001934: 22,3647                                           BANK     22
001935: 22,2000                                           SETLOC   LANDCNST
001936: 22,2000                                           BANK
001937: 22,3647                                           COUNT*   $$/F2DPS
001938:
001939: 22,3647           00021 14161  HIGHESTF           2DEC     4.34546769 B-12
001940:
001941: 22,3651           01440 00000  GSCALE             2DEC     100        B-11
001942:
001943: 22,3653           12525 12525  2/3DP              2DEC     .333333333
001944:
001945: 22,3655           14000 00000  3/8DP              2DEC     .375
001946:
001947: 22,3657           30000 00000  3/4DP              2DEC     .750
001948:
001949: 22,3661           77534 45074  DEPRCRIT           2DEC     -.02       B-1
001950:
001951:                                                                                                  #  ****************************************************************************************************************
001952:                                                                                                  #  ****************************************************************************************************************

End of include-file LUNAR_LANDING_GUIDANCE_EQUATIONS.agc.  Parent file is MAIN.agc


