
Source Code


000002:                                                                                                  ## Copyright:   Public domain.
000003:                                                                                                  ## Filename:    MEASUREMENT_INCORPORATION.agc
000004:                                                                                                  ## Purpose:     A log section of Zerlina 56, the final revision of
000005:                                                                                                  ##              Don Eyles's offline development program for the variable
000006:                                                                                                  ##              guidance period servicer. It also includes a new P66 with LPD
000007:                                                                                                  ##              (Landing Point Designator) capability, based on an idea of John
000008:                                                                                                  ##              Young's. Neither of these advanced features were actually flown,
000009:                                                                                                  ##              but Zerlina was also the birthplace of other big improvements to
000010:                                                                                                  ##              Luminary including the terrain model and new (Luminary 1E)
000011:                                                                                                  ##              analog display programs. Zerlina was branched off of Luminary 145,
000012:                                                                                                  ##              and revision 56 includes all changes up to and including Luminary
000013:                                                                                                  ##              183. It is therefore quite close to the Apollo 14 program,
000014:                                                                                                  ##              Luminary 178, where not modified with new features.
000015:                                                                                                  ## Reference:   pp. 1140-1149
000016:                                                                                                  ## Assembler:   yaYUL
000017:                                                                                                  ## Contact:     Ron Burkey <info@sandroid.org>.
000018:                                                                                                  ## Website:     www.ibiblio.org/apollo/index.html
000019:                                                                                                  ## Mod history: 2017-07-28 MAS  Created from Luminary 210.
000020:                                                                                                  ##              2017-08-28 MAS  Updated for Zerlina 56.
000021:


000023:                                                                                                  #   INCORP1--PERFORMS THE SIX DIMENSIONAL STATE VECTOR DEVIATION FOR POSITI
000024:                                                                                                  #  ON AND VELOCITY OR THE NINE DIMENSIONAL DEVIATION OF POSITION,VELOCITY,A
000025:                                                                                                  #  ND RADAR OR LANDMARK BIAS.THE OUTPUT OF THE BVECTOR ROUTINE ALONG WITH T
000026:                                                                                                  #  HE ERROR TRANSITION MATRIX(W) ARE USED AS INPUT TO THE ROUTINE.THE DEVIA
000027:                                                                                                  #  TION IS OBTAINED BY COMPUTING AN ESTIMATED TRACKING MEASUREMENT FROM THE
000028:                                                                                                  #  CURRENT STATE VECTOR AND COMPARING IT WITH AN ACTUAL TRACKING MEASUREMEN
000029:                                                                                                  #  T AND APPLYING A STATISTICAL WEIGHTING VECTOR.
000030:                                                                                                  #  INPUT
000031:                                                                                                  #     DMENFLG = 0 6DIMENSIONAL BVECTOR  1= 9DIMENSIONAL
000032:                                                                                                  #            W = ERROR TRANSITION MATRIX 6X6 OR 9X9
000033:                                                                                                  #     VARIANCE = VARIANCE (SCALAR)
000034:                                                                                                  #       DELTAQ = MEASURED DEVIATION(SCALAR)
000035:                                                                                                  #      BVECTOR = 6 OR 9 DIMENSIONAL BVECTOR
000036:
000037:                                                                                                  #  OUTPUT
000038:                                                                                                  #       DELTAX = STATE VECTOR DEVIATIONS 6 OR 9 DIMENSIONAL
000039:                                                                                                  #           ZI = VECTOR USED FOR THE INCORPORATION 6 OR 9 DIMENSIONAL
000040:                                                                                                  #      GAMMA = SCALAR
000041:                                                                                                  #      OMEGA = OMEGA WEIGHTING VECTOR 6 OR 9 DIMENTIONAL
000042:                                                                                                  #  CALLING SEQUENCE
000043:                                                                                                  #     L  CALL INCORP1
000044:
000045:                                                                                                  #  NORMAL EXIT
000046:
000047:                                                                                                  #     L+1 OF CALLING SEQUENCE
000048:
000049: 37,3654                                           BANK     37
000050: 23,2000                                           SETLOC   MEASINC
000051: 23,2000                                           BANK
000052:
000053: 23,2527                                           COUNT*   $$/INCOR
000054:
000055: 23,2527  E5,1400                                  EBANK=   W
000056:
000057: 23,2527           77620        INCORP1            STQ
000058: 23,2530           02767                                    EGRESS
000059: 23,2531           66370                           AXT,1    SSP
000060: 23,2532           00066                                    54D
000061: 23,2533           00051                                    S1
000062: 23,2534           00022                                    18D                                   #  IX1 = 54  S1= 18
000063: 23,2535           66374                           AXT,2    SSP
000064: 23,2536           00022                                    18D
000065: 23,2537           00052                                    S2
000066: 23,2540           00006                                    6                                     #  IX2 = 18  S2=6
000067: 23,2541           63775        Z123               VLOAD    MXV*
000068: 23,2542           03525                                    BVECTOR                               #  BVECTOR (0)
000069: 23,2543           02467                                    W          +54D,1
000070: 23,2544           12665                           STORE    ZI         +18D,2
000071: 23,2545           77775                           VLOAD
000072: 23,2546           03533                                    BVECTOR    +6                         #  BVECTOR (1)


000074: 23,2547           52717                           MXV*     VAD*
000075: 23,2550           02555                                    W          +108D,1
000076: 23,2551           75112                                    ZI         +18D,2
000077: 23,2552           12665                           STORE    ZI         +18D,2
000078: 23,2553           77775                           VLOAD
000079: 23,2554           03541                                    BVECTOR    +12D                       #  BVECTOR (2)
000080: 23,2555           52717                           MXV*     VAD*
000081: 23,2556           02643                                    W          +162D,1
000082: 23,2557           75112                                    ZI         +18D,2                     #  B(0)*W+B(1)*(W+54)+B(2)*(W+108)FIRST PAS
000083: 23,2560           12665                           STORE    ZI         +18D,2                     #  ZI THEN Z2 THEN Z3
000084: 23,2561           77700                           TIX,1
000085: 23,2562           46563                                    INCOR1
000086: 23,2563           43104        INCOR1             TIX,2    BON
000087: 23,2564           46541                                    Z123                                  #  LOOP FOR Z1,Z2,Z3
000088: 23,2565           02706                                    DMENFLG
000089: 23,2566           46572                                    INCOR1A
000090: 23,2567           77775                           VLOAD
000091: 23,2570           06520                                    ZEROVECS
000092: 23,2571           02657                           STORE    ZI         +12D
000093: 23,2572           77201        INCOR1A            SETPD    VLOAD
000094: 23,2573           00001                                    0
000095: 23,2574           02643                                    ZI
000096: 23,2575           47036                           VSQ      RTB
000097: 23,2576           21615                                    TPMODE
000098: 23,2577           47515                           PDVL     VSQ
000099: 23,2600           02651                                    ZI         +6
000100: 23,2601           76234                           RTB      TAD
000101: 23,2602           21615                                    TPMODE
000102: 23,2603           47515                           PDVL     VSQ
000103: 23,2604           02657                                    ZI         +12D
000104: 23,2605           76234                           RTB      TAD
000105: 23,2606           21615                                    TPMODE
000106: 23,2607           77171                           TAD      AXT,2
000107: 23,2610           02707                                    VARIANCE
000108: 23,2611           00000                                    0
000109: 23,2612           02665                           STORE    TRIPA                                 #  ZI*2 + Z2*2 + Z3*2 + VARIANCE
000110: 23,2613           40151                           TLOAD    BOV
000111: 23,2614           02707                                    VARIANCE                              #  CLEAR OVFIND
000112: 23,2615           46616                                    +1
000113: 23,2616           02670                           STORE    TEMPVAR                               #  TEMP STORAGE FOR VARIANCE
000114: 23,2617           77654                           BZE
000115: 23,2620           46627                                    INCOR1C
000116: 23,2621           40112        INCOR1B            SL2      BOV
000117: 23,2622           46627                                    INCOR1C
000118: 23,2623           02670                           STORE    TEMPVAR
000119: 23,2624           52114                           INCR,2   GOTO
000120: 23,2625           00001                           DEC      1          B-14
000121: 23,2626           46621                                    INCOR1B
000122: 23,2627           61551        INCOR1C            TLOAD    ROUND
000123: 23,2630           02665                                    TRIPA


000125: 23,2631           75405                           DMP      SQRT
000126: 23,2632           02670                                    TEMPVAR
000127: 23,2633           76257                           SL*      TAD
000128: 23,2634           57576                                    0,2
000129: 23,2635           02665                                    TRIPA
000130: 23,2636           63101                           NORM     INCR,2
000131: 23,2637           00050                                    X2
000132: 23,2640           77775                           DEC      -2         B-14
000133: 23,2641           77134                           SXA,2    AXT,2
000134: 23,2642           02102                                    NORMGAM                               #  NORMALIZATION COUNT -2 FOR GAMMA
000135: 23,2643           00242                                    162D
000136: 23,2644           40265                           BDDV     SETPD
000137: 23,2645           06510                                    DP1/4TH
000138: 23,2646           00001                                    0
000139: 23,2647           03500                           STORE    GAMMA
000140: 23,2650           60351                           TLOAD    NORM
000141: 23,2651           02665                                    TRIPA
000142: 23,2652           00047                                    X1
000143: 23,2653           65345                           DLOAD    PDDL                                  #  PD 0-1 = NORM (A)
000144: 23,2654           00155                                    MPAC
000145: 23,2655           03547                                    DELTAQ
000146: 23,2656           77701                           NORM
000147: 23,2657           00051                                    S1
000148: 23,2660           70460                           XSU,1    SR1
000149: 23,2661           00050                                    S1
000150: 23,2662           41471                           DDV      PUSH                                  #  PD 0-1 = DELTAQ/A
000151: 23,2663           77650                           GOTO
000152: 23,2664           45663                                    NEWZCOMP
000153: 23,2665           77731                 -3        SSP
000154: 23,2666           00052                                    S2
000155: 23,2667           00066                                    54D
000156: 23,2670           60775        INCOR2             VLOAD    VXM*                                  #  COMPUTE OMEGA1,2,3
000157: 23,2671           02643                                    ZI
000158: 23,2672           75134                                    W          +162D,2
000159: 23,2673           77206                           PUSH     VLOAD
000160: 23,2674           02651                                    ZI         +6
000161: 23,2675           53303                           VXM*     VAD
000162: 23,2676           75112                                    W          +180D,2
000163: 23,2677           77206                           PUSH     VLOAD
000164: 23,2700           02657                                    ZI         +12D
000165: 23,2701           53303                           VXM*     VAD
000166: 23,2702           75070                                    W          +198D,2
000167: 23,2703           61006                           PUSH     TIX,2                                 #  PD 2-7=OMEGA1,8-13=OMEGA2,14-19=OMEGA3
000168: 23,2704           46670                                    INCOR2
000169: 23,2705           45575                           VLOAD    STADR
000170: 23,2706           74260                           STORE    OMEGA      +12D
000171: 23,2707           45575                           VLOAD    STADR
000172: 23,2710           74266                           STORE    OMEGA      +6
000173: 23,2711           45575                           VLOAD    STADR
000174: 23,2712           74274                           STORE    OMEGA


000176: 23,2713           77214                           BON      VLOAD
000177: 23,2714           02706                                    DMENFLG
000178: 23,2715           46720                                    INCOR2AB
000179: 23,2716           06520                                    ZEROVECS
000180: 23,2717           03517                           STORE    OMEGA      +12D
000181: 23,2720           66374        INCOR2AB           AXT,2    SSP
000182: 23,2721           00022                                    18D
000183: 23,2722           00052                                    S2
000184: 23,2723           00006                                    6
000185: 23,2724           77773        INCOR3             VLOAD*
000186: 23,2725           74252                                    OMEGA      +18D,2
000187: 23,2726           53761                           VXSC     VSL*
000188: 23,2727           00001                                    0                                     #  DELTAQ/A
000189: 23,2730           20201                                    0,1
000190: 23,2731           12707                           STORE    DELTAX     +18D,2
000191: 23,2732           77304                           TIX,2    VLOAD
000192: 23,2733           46724                                    INCOR3
000193: 23,2734           02673                                    DELTAX     +6
000194: 23,2735           77732                           VSL3
000195: 23,2736           02673                           STORE    DELTAX     +6
000196: 23,2737           77650                           GOTO
000197: 23,2740           02767                                    EGRESS
000198:


000200:                                                                                                  #   INCORP2 -INCORPORATES THE COMPUTED STATE VECTOR DEVIATIONS INTO THE
000201:                                                                                                  #  ESTIMATED STATE VECTOR. THE STATE VECTOR UPDATED MAY BE FOR EITHER THE
000202:                                                                                                  #  LEM OR THE CSM.DETERMINED BY FLAG VEHUPFLG.(ZERO = LEM) (1 = CSM)
000203:                                                                                                  #  INPUT
000204:                                                                                                  #     PERMANENT STATE VECTOR FOR EITHER THE LEM OR CSM
000205:                                                                                                  #     VEHUPFLG = UPDATE VEHICLE 0=LEM  1=CSM
000206:                                                                                                  #     W =        ERROR TRANSITION MATRIX
000207:                                                                                                  #     DELTAX  =  COMPUTED STATE VECTOR DEVIATIONS
000208:                                                                                                  #     DMENFLG =  SIZE OF W MATRIX (ZERO =6X6) (1=9X9)
000209:                                                                                                  #     GAMMA   =  SCALAR FOR INCORPORATION
000210:                                                                                                  #     ZI      =  VECTOR USED IN INCORPORATION
000211:                                                                                                  #     OMEGA  =  WEIGHTING VECTOR
000212:
000213:                                                                                                  #  OUTPUT
000214:                                                                                                  #     UPDATED PERMANENT STATE VECTOR
000215:
000216:                                                                                                  #  CALLING SEQUENCE
000217:                                                                                                  #     L  CALL INCORP2
000218:
000219:                                                                                                  #  NORMAL EXIT
000220:                                                                                                  #     L+1 OF CALLING SEQUENCE
000221:
000222: 23,2000                                           SETLOC   MEASINC1
000223: 23,2000                                           BANK
000224:
000225: 23,2741                                           COUNT*   $$/INCOR
000226:
000227: 23,2741           45020        INCORP2            STQ      CALL
000228: 23,2742           02767                                    EGRESS
000229: 23,2743           27410                                    INTSTALL
000230: 23,2744           74375                           VLOAD    VXSC                                  #  CALC. GAMMA * OMEGA1,2,3
000231: 23,2745           03503                                    OMEGA
000232: 23,2746           03500                                    GAMMA
000233: 23,2747           26713                           STOVL    OMEGAM1
000234: 23,2750           03511                                    OMEGA      +6
000235: 23,2751           77761                           VXSC
000236: 23,2752           03500                                    GAMMA
000237: 23,2753           26721                           STOVL    OMEGAM2
000238: 23,2754           03517                                    OMEGA      +12D
000239: 23,2755           77761                           VXSC
000240: 23,2756           03500                                    GAMMA
000241: 23,2757           02727                           STORE    OMEGAM3
000242: 23,2760           77776                           EXIT
000243: 23,2761           33242                           CAF      54DD                                  #  INITIAL IX 1 SETTING FOR W MATRIX
000244: 23,2762           55315                           TS       WIXA
000245: 23,2763           55316                           TS       WIXB
000246: 23,2764           34755                           CAF      ZERO
000247: 23,2765           55317                           TS       ZIXA                                  #  INITIAL IX 2 SETTING FOR Z COMPONENT
000248: 23,2766           55320                           TS       ZIXB
000249: 23,2767           05364        FAZA               TC       PHASCHNG


000251: 23,2770           04022                           OCT      04022
000252: 23,2771           05515                           TC       UPFLAG
000253: 23,2772           00236                           ADRES    REINTFLG
000254: 23,2773           31316        FAZA1              CA       WIXB                                  #  START FIRST PHASE OF INCORP2
000255: 23,2774           55315                           TS       WIXA                                  #   TO UPDATE 6 OR 9 DIM. W MATRIX IN TEMP
000256: 23,2775           31320                           CA       ZIXB
000257: 23,2776           55317                           TS       ZIXA
000258: 23,2777           06051                           TC       INTPRET
000259: 23,3000           73150                           LXA,1    LXA,2
000260: 23,3001           01315                                    WIXA
000261: 23,3002           01317                                    ZIXA
000262: 23,3003           70731                           SSP      DLOAD*
000263: 23,3004           00051                                    S1
000264: 23,3005           00006                                    6
000265: 23,3006           75134                                    ZI,2
000266: 23,3007           60276                           DCOMP    NORM                                  #  CALC UPPER 3X9 PARTITION OF W MATRIX
000267: 23,3010           00052                                    S2
000268: 23,3011           65161                           VXSC     XCHX,2
000269: 23,3012           02713                                    OMEGAM1
000270: 23,3013           00051                                    S2
000271: 23,3014           57144                           LXC,2    XAD,2
000272: 23,3015           00047                                    X2
000273: 23,3016           02102                                    NORMGAM
000274: 23,3017           65057                           VSL*     XCHX,2
000275: 23,3020           57576                                    0,2
000276: 23,3021           00051                                    S2
000277: 23,3022           77653                           VAD*
000278: 23,3023           02467                                    W          +54D,1
000279: 23,3024           02735                           STORE    HOLDW
000280: 23,3025           57543                           DLOAD*   DCOMP                                 #  CALC MIDDLE 3X9 PARTITION OF W MATRIX
000281: 23,3026           75134                                    ZI,2
000282: 23,3027           74301                           NORM     VXSC
000283: 23,3030           00052                                    S2
000284: 23,3031           02721                                    OMEGAM2
000285: 23,3032           71124                           XCHX,2   LXC,2
000286: 23,3033           00051                                    S2
000287: 23,3034           00047                                    X2
000288: 23,3035           53674                           XAD,2    VSL*
000289: 23,3036           02102                                    NORMGAM
000290: 23,3037           57576                                    0,2
000291: 23,3040           52724                           XCHX,2   VAD*
000292: 23,3041           00051                                    S2
000293: 23,3042           02555                                    W          +108D,1
000294: 23,3043           02743                           STORE    HOLDW      +6
000295: 23,3044           77614                           BOFF
000296: 23,3045           02746                                    DMENFLG                               #  BRANCH IF 6 DIMENSIONAL
000297: 23,3046           47066                                    FAZB
000298: 23,3047           57543                           DLOAD*   DCOMP                                 #  CALC LOWER 3X9 PARTITION OF W MATRIX
000299: 23,3050           75134                                    ZI,2
000300: 23,3051           74301                           NORM     VXSC


000302: 23,3052           00052                                    S2
000303: 23,3053           02727                                    OMEGAM3
000304: 23,3054           71124                           XCHX,2   LXC,2
000305: 23,3055           00051                                    S2
000306: 23,3056           00047                                    X2
000307: 23,3057           53674                           XAD,2    VSL*
000308: 23,3060           02102                                    NORMGAM
000309: 23,3061           57576                                    0,2
000310: 23,3062           52724                           XCHX,2   VAD*
000311: 23,3063           00051                                    S2
000312: 23,3064           02643                                    W          +162D,1
000313: 23,3065           02751                           STORE    HOLDW      +12D
000314: 23,3066           77624        FAZB               CALL
000315: 23,3067           11216                                    GRP2PC
000316: 23,3070           77776                           EXIT
000317: 23,3071           31315        FAZB1              CA       WIXA                                  #  START 2ND PHASE OF INCORP2 TO TRANSFER
000318: 23,3072           63243                           AD       6DD                                   #      TEMP REG TO PERM W MATRIX
000319: 23,3073           55316                           TS       WIXB
000320: 23,3074           31317                           CA       ZIXA
000321: 23,3075           67760                           AD       MINUS2
000322: 23,3076           55320                           TS       ZIXB
000323: 23,3077           06051                           TC       INTPRET
000324: 23,3100           66350                           LXA,1    SSP
000325: 23,3101           01315                                    WIXA
000326: 23,3102           00051                                    S1
000327: 23,3103           00006                                    6
000328: 23,3104           77775                           VLOAD
000329: 23,3105           02735                                    HOLDW
000330: 23,3106           06467                           STORE    W          +54D,1
000331: 23,3107           77775                           VLOAD
000332: 23,3110           02743                                    HOLDW      +6
000333: 23,3111           06555                           STORE    W          +108D,1
000334: 23,3112           77214                           BOFF     VLOAD
000335: 23,3113           02746                                    DMENFLG
000336: 23,3114           47124                                    FAZB5
000337: 23,3115           02751                                    HOLDW      +12D
000338: 23,3116           06643                           STORE    W          +162D,1
000339: 23,3117           52100        FAZB2              TIX,1    GOTO
000340: 23,3120           47122                                    +2
000341: 23,3121           47132                                    FAZC                                  #  DONE WITH W MATRIX. UPDATE STATE VECTOR
000342: 23,3122           77634                           RTB
000343: 23,3123           46767                                    FAZA
000344: 23,3124           43335        FAZB5              SLOAD    DAD
000345: 23,3125           01321                                    ZIXB
000346: 23,3126           07245                                    12DD
000347: 23,3127           52030                           BHIZ     GOTO
000348: 23,3130           47132                                    FAZC
000349: 23,3131           47117                                    FAZB2
000350: 23,3132           77624        FAZC               CALL
000351: 23,3133           11216                                    GRP2PC


000353: 23,3134           53375                           VLOAD    VAD                                   #  START 3RD PHASE OF INCORP2
000354: 23,3135           01701                                    X789                                  #  7TH,8TH,9TH,COMPONENT OF STATE VECTOR
000355: 23,3136           02701                                    DELTAX     +12D                       #  INCORPORATION FOR X789
000356: 23,3137           03472                           STORE    TX789
000357: 23,3140           47014                           BON      RTB
000358: 23,3141           00707                                    VEHUPFLG
000359: 23,3142           47232                                    DOCSM
000360: 23,3143           26767                                    MOVEPLEM
000361: 23,3144           77004        FAZAB              BOVB     AXT,2
000362: 23,3145           57735                                    TCDANZIG
000363: 23,3146           00000                                    0
000364: 23,3147           77014                           BOFF     AXT,2
000365: 23,3150           04344                                    MOONTHIS
000366: 23,3151           47153                                    +2
000367: 23,3152           00002                                    2
000368: 23,3153           53775                           VLOAD    VSR*
000369: 23,3154           02665                                    DELTAX                                #  B27 IF MOON ORBIT, B29 IF EARTH
000370: 23,3155           57205                                    0          -7,2
000371: 23,3156           40055                           VAD      BOV
000372: 23,3157           01521                                    TDELTAV
000373: 23,3160           47172                                    FAZAB1
000374: 23,3161           25521                           STOVL    TDELTAV
000375: 23,3162           02673                                    DELTAX     +6                         #  B5 IF MOON ORBIT, B7 IF EARTH
000376: 23,3163           53257                           VSR*     VAD
000377: 23,3164           57202                                    0          -4,2
000378: 23,3165           01527                                    TNUV
000379: 23,3166           77600                           BOV
000380: 23,3167           47176                                    FAZAB2
000381: 23,3170           35527                           STCALL   TNUV
000382: 23,3171           47205                                    FAZAB3
000383: 23,3172           53375        FAZAB1             VLOAD    VAD
000384: 23,3173           01535                                    RCV
000385: 23,3174           02665                                    DELTAX
000386: 23,3175           01535                           STORE    RCV
000387: 23,3176           53375        FAZAB2             VLOAD    VAD
000388: 23,3177           01543                                    VCV
000389: 23,3200           02673                                    DELTAX     +6
000390: 23,3201           01543                           STORE    VCV
000391: 23,3202           45134                           SXA,2    CALL
000392: 23,3203           02030                                    PBODY
000393: 23,3204           27671                                    RECTIFY
000394: 23,3205           77624        FAZAB3             CALL
000395: 23,3206           11216                                    GRP2PC
000396: 23,3207           47014                           BON      RTB
000397: 23,3210           00707                                    VEHUPFLG
000398: 23,3211           47235                                    DOCSM1
000399: 23,3212           26746                                    MOVEALEM
000400: 23,3213           77624                           CALL
000401: 23,3214           26070                                    SVDWN2                                #  STORE DOWNLINK STATE VECTOR
000402: 23,3215           77624        FAZAB4             CALL


000404: 23,3216           11216                                    GRP2PC                                #  PHASE CHANGE
000405: 23,3217           77214                           BOFF     VLOAD
000406: 23,3220           02746                                    DMENFLG
000407: 23,3221           47224                                    FAZAB5                                #  6 DIMENSIONAL
000408: 23,3222           03472                                    TX789                                 #  9 DIMENSIONAL
000409: 23,3223           01701                           STORE    X789
000410: 23,3224           66150        FAZAB5             LXA,1    SXA,1
000411: 23,3225           02767                                    EGRESS
000412: 23,3226           00052                                    QPRET
000413: 23,3227           77776                           EXIT
000414: 23,3230           04635                           TC       POSTJUMP                              #  EXIT
000415: 23,3231           27421                           CADR     INTWAKE
000416: 23,3232           52034        DOCSM              RTB      GOTO
000417: 23,3233           26722                                    MOVEPCSM
000418: 23,3234           47144                                    FAZAB
000419: 23,3235           45034        DOCSM1             RTB      CALL
000420: 23,3236           26673                                    MOVEACSM
000421: 23,3237           26114                                    SVDWN1                                #  STORE DOWNLINK STATE VECTOR
000422: 23,3240           77650                           GOTO
000423: 23,3241           47215                                    FAZAB4
000424: 23,3242  23,2517               ZEROD              =        ZEROVECS
000425: 23,3242           00066        54DD               DEC      54         B-14
000426: 23,3243           77771        6DD                DEC      -6         B-14
000427: 23,3244           00014        12DD               DEC      12         B-14
000428: 22,2000                                           SETLOC   RENDEZ
000429: 22,2000                                           BANK
000430: 22,3663                                           COUNT*   $$/INCOR
000431:
000432: 22,3663           51575        NEWZCOMP           VLOAD    ABVAL
000433: 22,3664           02643                                    ZI
000434: 22,3665           24045                           STOVL    NORMZI
000435: 22,3666           02651                                    ZI         +6
000436: 22,3667           41446                           ABVAL    PUSH
000437: 22,3670           50025                           DSU      BMN
000438: 22,3671           00045                                    NORMZI
000439: 22,3672           45675                                    +3
000440: 22,3673           45545                           DLOAD    STADR
000441: 22,3674           77732                           STORE    NORMZI
000442: 22,3675           51575                           VLOAD    ABVAL
000443: 22,3676           02657                                    ZI         +12D
000444: 22,3677           45206                           PUSH     DSU
000445: 22,3700           00045                                    NORMZI
000446: 22,3701           71240                           BMN      DLOAD
000447: 22,3702           45705                                    +3
000448: 22,3703           77626                           STADR
000449: 22,3704           77732                           STORE    NORMZI                                #  LARGEST ABVAL
000450: 22,3705           66145                           DLOAD    SXA,1
000451: 22,3706           00045                                    NORMZI
000452: 22,3707           00044                                    NORMZI                                #  SAVE X1
000453: 22,3710           62101                           NORM     INCR,1


000455: 22,3711           00047                                    X1
000456: 22,3712           00002                           DEC      2          B-14
000457: 22,3713           53775                           VLOAD    VSL*
000458: 22,3714           02643                                    ZI
000459: 22,3715           20201                                    0,1
000460: 22,3716           26643                           STOVL    ZI
000461: 22,3717           02651                                    ZI         +6
000462: 22,3720           77657                           VSL*
000463: 22,3721           20201                                    0,1
000464: 22,3722           26651                           STOVL    ZI         +6
000465: 22,3723           02657                                    ZI         +12D
000466: 22,3724           66057                           VSL*     SXA,1
000467: 22,3725           20201                                    0,1
000468: 22,3726           00045                                    NORMZI     +1                         #  SAVE SHIFT
000469: 22,3727           02657                           STORE    ZI         +12D
000470: 22,3730           54150                           LXA,1    XSU,1
000471: 22,3731           02102                                    NORMGAM
000472: 22,3732           00045                                    NORMZI     +1
000473: 22,3733           77660                           XSU,1
000474: 22,3734           00045                                    NORMZI     +1
000475: 22,3735           70130                           SXA,1    LXC,1
000476: 22,3736           02102                                    NORMGAM
000477: 22,3737           00045                                    NORMZI     +1
000478: 22,3740           40270                           XAD,1    SETPD
000479: 22,3741           00044                                    NORMZI
000480: 22,3742           00003                                    2D
000481: 22,3743           77650                           GOTO
000482: 22,3744           46665                                    INCOR2     -3
000483: 22,3745                        NORMZI             =        36D

End of include-file MEASUREMENT_INCORPORATION.agc.  Parent file is MAIN.agc


