
Source Code


000002:                                                                                                  ## Copyright:   Public domain.
000003:                                                                                                  ## Filename:    P20-P25.agc
000004:                                                                                                  ## Purpose:     A log section of Zerlina 56, the final revision of
000005:                                                                                                  ##              Don Eyles's offline development program for the variable
000006:                                                                                                  ##              guidance period servicer. It also includes a new P66 with LPD
000007:                                                                                                  ##              (Landing Point Designator) capability, based on an idea of John
000008:                                                                                                  ##              Young's. Neither of these advanced features were actually flown,
000009:                                                                                                  ##              but Zerlina was also the birthplace of other big improvements to
000010:                                                                                                  ##              Luminary including the terrain model and new (Luminary 1E)
000011:                                                                                                  ##              analog display programs. Zerlina was branched off of Luminary 145,
000012:                                                                                                  ##              and revision 56 includes all changes up to and including Luminary
000013:                                                                                                  ##              183. It is therefore quite close to the Apollo 14 program,
000014:                                                                                                  ##              Luminary 178, where not modified with new features.
000015:                                                                                                  ## Reference:   pp. 500-611
000016:                                                                                                  ## Assembler:   yaYUL
000017:                                                                                                  ## Contact:     Ron Burkey <info@sandroid.org>.
000018:                                                                                                  ## Website:     www.ibiblio.org/apollo/index.html
000019:                                                                                                  ## Mod history: 2017-07-28 MAS  Created from Luminary 210.
000020:                                                                                                  ##              2017-08-20 MAS  Began updates for Zerlina 56.
000021:                                                                                                  ##              2017-08-22 MAS  Completed updating for Zerlina.
000022:


000024:                                                                                                  #  RENDEZVOUS NAVIGATION PROGRAM 20
000025:                                                                                                  #  PROGRAM DESCRIPTION
000026:                                                                                                  #  MOD NO - 2
000027:                                                                                                  #  BY  P. VOLANTE
000028:                                                                                                  #  FUNCTIONAL DESCRIPTION
000029:
000030:                                                                                                  #    THE PURPOSE OF THIS PROGRAM IS TO CONTROL THE RENDEZVOUS RADAR FROM
000031:                                                                                                  #  STARTUP THROUGH ACQUISITION AND LOCKON TO THE CSM AND TO UPDATE EITHER
000032:                                                                                                  #  THE LM OR CSM STATE VECTOR (AS SPECIFIED BY THE ASTRONAUT BY DSKY ENTRY)
000033:                                                                                                  #  ON THE BASIS OF THE RR TRACKING DATA.
000034:                                                                                                  #  CALLING SEQUENCE -
000035:
000036:                                                                                                  #  ASTRONAUT REQUEST THROUGH DSKY V37E20E
000037:                                                                                                  #  SUBROUTINES CALLED
000038:                                                                                                  #    R02BOTH (IMU STATUS CHECK)               FLAGUP
000039:                                                                                                  #    GOFLASH (PINBALL-DISPLAY)                FLAGDOWN
000040:                                                                                                  #    R23LEM  (MANUAL ACQUISITION)             BANKCALL
000041:                                                                                                  #    LS201   (LOS DETERMINATION)              TASKOVER
000042:                                                                                                  #    LS202   (RANGE LIMIT TEST)
000043:                                                                                                  #    R61LEM  (PREFERRED TRACKING ATTITUDE)
000044:                                                                                                  #    R21LEM  (RR DESIGNATE)                   ENDOFJOB
000045:                                                                                                  #    R22LEM  (DATA READ)                      GOPERF1
000046:                                                                                                  #    R31LEM  (RENDEZVOUS PARAMETER DISPLAY)
000047:                                                                                                  #    PRIOLARM (PRIORITY DISPLAY)
000048:                                                                                                  #  NORMAL EXIT MODES-
000049:                                                                                                  #    P20 MAY BE TERMINATED IN TWO WAYS-ASTRONAUT SELECTION OF IDLING
000050:                                                                                                  #  PROGRAM (P00) BY KEYING V37E00E OR BY KEYING IN V56E
000051:                                                                                                  #  ALARM OR ABORT EXIT MODES-
000052:                                                                                                  #    RANGE GREATER THAN 400 NM DISPLAY
000053:                                                                                                  #  OUTPUT
000054:                                                                                                  #    TRKMKCNT = NO OF RENDEZVOUS TRACKING MARKS TAKEN (COUNTER)
000055:                                                                                                  #  ERASABLE INITIALIZATION REQUIRED
000056:                                                                                                  #  FLAGS SET + RESET
000057:                                                                                                  #    SRCHOPT,RNDVZFLG,ACMODFLG,VEHUPFLG,UPDATFLG,TRACKFLG,
000058:                                                                                                  #  DEBRIS
000059:                                                                                                  #    CENTRALS-A,Q,L
000060: 25,2053  30,2000                                  SBANK=   LOWSUPER                              #  FOR LOW 2CADR'S.
000061:
000062: 33,2031                                           BANK     33
000063: 24,2000                                           SETLOC   P20S
000064: 24,2000                                           BANK
000065:
000066: 24,2000  E7,1456                                  EBANK=   LOSCOUNT
000067: 24,2000                                           COUNT*   $$/P20
000068: 24,2000  24,2000               PROG22             =        PROG20
000069: 24,2000           05340        PROG20             TC       2PHSCHNG
000070: 24,2001           00004                           OCT      4
000071: 24,2002           05022                           OCT      05022
000072: 24,2003           26000                           OCT      26000                                 #  PRIORITY 26
000073: 24,2004           02752                           TC       LUNSFCHK                              #  CHECK IF ON LUNAR SURFACE


000075: 24,2005           02007                           TC       ORBCHGO                               #  YES
000076: 24,2006           02036                           TC       PROG20A    -2                         #  NO - CONTINUE WITH P20
000077: 24,2007           05515        ORBCHGO            TC       UPFLAG                                #  SET VEHUPFLG - CSM STATE
000078: 24,2010           00026                           ADRES    VEHUPFLG                              #  VECTOR TO BE UPDATED
000079: 24,2011           34753                           CAF      ONE                                   #  SET R2 FOR OPTION CSM WILL NOT
000080: 24,2012           55144                           TS       OPTION2                               #  CHANGE PRESENT ORBIT
000081: 24,2013           34363                           CAF      OCT00012
000082: 24,2014           04616                           TC       BANKCALL                              #  DISPLAY ASSUMED CSM ORBIT OPTION
000083: 24,2015           20634                           CADR     GOPERF4
000084: 24,2016           06001                           TC       GOTOPOOH                              #  TERMINATE
000085: 24,2017           02021                           TC       ORBCHG1                               #  PROCEED VALUE OF ASSUMED OPTION OK
000086: 24,2020           02013                           TC       -5                                    #  R2 LOADED THRU DSKY
000087: 24,2021           44753        ORBCHG1            CS       ONE
000088: 24,2022           61144                           AD       OPTION2
000089: 24,2023           00006                           EXTEND
000090: 24,2024           12040                           BZF      PROG20A
000091: 24,2025           32367                           CAF      V06N33*
000092: 24,2026           04616                           TC       BANKCALL                              #  FLASH VERB-NOUN TO REQUEST ESTIMATED
000093: 24,2027           20477                           CADR     GOFLASH                               #  TIME OF LAUNCH
000094: 24,2030           06001                           TC       GOTOPOOH                              #  TERMINATE
000095: 24,2031           02033                           TC       ORBCHG2                               #  PROCEED VALUES OK
000096: 24,2032           02025                           TC       -5                                    #  TIME LOADED THRU DSKY
000097: 24,2033           06051        ORBCHG2            TC       INTPRET
000098: 24,2034           77650                           GOTO
000099: 24,2035           77113                                    ORBCHG3
000100: 32,2217                                           BANK     32
000101: 37,2000                                           SETLOC   P20S4
000102: 37,2000                                           BANK
000103: 37,3113                                           COUNT*   $$/P20
000104:
000105: 37,3113           77624        ORBCHG3            CALL
000106: 37,3114           27410                                    INTSTALL
000107: 37,3115           77745                           DLOAD
000108: 37,3116           03442                                    TIG
000109: 37,3117           03661                           STORE    LNCHTM
000110: 37,3120           00041                           STORE    TDEC1                                 #  ESTIMATED LAUNCH TIME
000111: 37,3121           43014                           CLEAR    CLEAR
000112: 37,3122           01674                                    VINTFLAG                              #  LM INTEGRATION
000113: 37,3123           01673                                    INTYPFLG                              #  PRECISION - ENCKE
000114: 37,3124           43014                           CLEAR    CLEAR
000115: 37,3125           01676                                    DIM0FLAG                              #  NO W-MATRIX
000116: 37,3126           01675                                    D6OR9FLG
000117: 37,3127           77624                           CALL
000118: 37,3130           27133                                    INTEGRV                               #  PLANETARY INERTIAL ORIENTATION
000119: 37,3131           77624                           CALL
000120: 37,3132           11216                                    GRP2PC
000121: 37,3133           77775                           VLOAD
000122: 37,3134           00017                                    RATT1
000123: 37,3135           17631                           STODL    RSUBL                                 #  SAVE LM POSITION
000124: 37,3136           00015                                    TAT


000126: 37,3137           34041                           STCALL   TDEC1
000127: 37,3140           27410                                    INTSTALL
000128: 37,3141           43014                           SET      CLEAR
000129: 37,3142           01474                                    VINTFLAG                              #  CSM INTEGRATION
000130: 37,3143           01673                                    INTYPFLG
000131: 37,3144           43014                           CLEAR    BOFF
000132: 37,3145           01676                                    DIM0FLAG
000133: 37,3146           02756                                    RENDWFLG                              #  W MATRIX VALID
000134: 37,3147           77153                                    NOWMATX                               #  NO
000135: 37,3150           43014                           SET      SET                                   #  YES - SET FOR W MATRIX
000136: 37,3151           01476                                    DIM0FLAG
000137: 37,3152           01475                                    D6OR9FLG
000138: 37,3153           77624        NOWMATX            CALL
000139: 37,3154           27133                                    INTEGRV                               #  CSM INTEGRATION
000140: 37,3155           77624                           CALL
000141: 37,3156           11216                                    GRP2PC
000142: 37,3157           77775                           VLOAD
000143: 37,3160           00025                                    VATT1
000144: 37,3161           25757                           STOVL    VSUBC                                 #  SAVE CSM VELOCITY
000145: 37,3162           00017                                    RATT1
000146: 37,3163           01101                           STORE    RSUBC                                 #  SAVE CSM POSITION
000147: 37,3164           53435                           VXV      UNIT                                  #  COMPUTE NORMAL TO CSM ORBITAL PLANE
000148: 37,3165           01757                                    VSUBC                                 #  NSUB1=UNIT(R(CM) CROSS V(CM)
000149: 37,3166           24025                           STOVL    20D                                   #  SAVE NSUB1
000150: 37,3167           03631                                    RSUBL                                 #  COMPUTE ESTIMATED ORBITAL
000151: 37,3170           53435                           VXV      UNIT                                  #  PLANE CHANGE
000152: 37,3171           00025                                    20D                                   #  UCSM = UNIT(R(LM) CROSS NSUB1)
000153: 37,3172           27637                           STOVL    UCSM
000154: 37,3173           01101                                    RSUBC                                 #  COMPUTE ANGLE BETWEEN UCSM
000155: 37,3174           50256                           UNIT     DOT                                   #  AND RSUBC
000156: 37,3175           03637                                    UCSM                                  #  COS A = UCSM DOT UNIT (R(CM))
000157: 37,3176           77752                           SL1
000158: 37,3177           02732                           STORE    CSTH                                  #  SAVE DOE TIME-THETA SUBROUTINE
000159: 37,3200           44316                           DSQ      BDSU                                  #  COMPUTE SINE A
000160: 37,3201           06510                                    ONEB-2
000161: 37,3202           77766                           SQRT
000162: 37,3203           26730                           STOVL    SNTH                                  #  SAVE FOR TIME-THETA SUBROUTINE
000163: 37,3204           01101                                    RSUBC                                 #  POSITION OF CSM AT EST. LAUNCH
000164: 37,3205           26655                           STOVL    RVEC                                  #  TIME FOR TIME-THETA   B-27
000165: 37,3206           01757                                    VSUBC                                 #  VELOCITY OF CSM AT EST. LAUNCH
000166: 37,3207           77676                           VCOMP
000167: 37,3210           02744                           STORE    VVEC                                  #  TIME FOR TIME THETA   B-5
000168: 37,3211           45014                           CLEAR    CALL
000169: 37,3212           03666                                    RVSW
000170: 37,3213           24732                                    TIMETHET
000171: 37,3214           77676                           VCOMP
000172: 37,3215           03645                           STORE    NEWVEL                                #  TERMINAL VELOCITY OF CSM
000173: 37,3216           77745                           DLOAD
000174: 37,3217           00037                                    T
000175: 37,3220           27663                           STOVL    TRANSTM                               #  TRANSFER TIME


000177: 37,3221           03645                                    NEWVEL
000178: 37,3222           77646                           ABVAL
000179: 37,3223           24025                           STOVL    20D
000180: 37,3224           00001                                    0D
000181: 37,3225           03653                           STORE    NEWPOS                                #  TERMINAL POSITION OF CSM
000182: 37,3226           53435                           VXV      UNIT                                  #  COMPUTE NORMAL TO CSM ORBITAL PLANE
000183: 37,3227           03631                                    RSUBL                                 #  NSUB2 = UNIT(NEWPOS CROSS R(LM))
000184: 37,3230           53435                           VXV      UNIT                                  #  ROTATE TERMINAL VEL INTO DESIRED
000185: 37,3231           03653                                    NEWPOS                                #  ORBITAL PLANE
000186: 37,3232           76561                           VXSC     VSL1                                  #  VSUBC = ABVAL(NEWVEL) $ UNIT( NSUB2
000187: 37,3233           00025                                    20D
000188: 37,3234           37665                           STCALL   NCSMVEL                               #  NEW CSM VELOCITY
000189: 37,3235           11216                                    GRP2PC
000190: 37,3236           77624                           CALL
000191: 37,3237           27410                                    INTSTALL
000192: 37,3240           44345                           DLOAD    BDSU
000193: 37,3241           03663                                    TRANSTM                               #  LAUNCH TIME - TRANSFER TIME
000194: 37,3242           03661                                    LNCHTM
000195: 37,3243           25517                           STOVL    TET
000196: 37,3244           03653                                    NEWPOS
000197: 37,3245           01535                           STORE    RCV
000198: 37,3246           25503                           STOVL    RRECT
000199: 37,3247           03665                                    NCSMVEL
000200: 37,3250           35511                           STCALL   VRECT
000201: 37,3251           27705                                    MINIRECT
000202: 37,3252           45174                           AXT,2    CALL
000203: 37,3253           00002                                    2
000204: 37,3254           26660                                    ATOPCSM
000205: 37,3255           77624                           CALL
000206: 37,3256           27417                                    INTWAKE0
000207: 37,3257           77776                           EXIT
000208: 37,3260           04616                           TC       BANKCALL
000209: 37,3261           50040                           CADR     PROG20A
000210: 24,2036                                           BANK     24
000211: 24,2000                                           SETLOC   P20S
000212: 24,2000                                           BANK
000213: 24,2036                                           COUNT*   $$/P20
000214:
000215: 24,2036           05527                           TC       DOWNFLAG                              #  RESET VEHUPFLG- LM STATE VECTOR
000216: 24,2037           00026                           ADRES    VEHUPFLG                              #  TO BE UPDATED
000217: 24,2040           04616        PROG20A            TC       BANKCALL
000218: 24,2041           11241                           CADR     R02BOTH
000219: 24,2042           05515                           TC       UPFLAG
000220: 24,2043           00027                           ADRES    UPDATFLG                              #  SET UPDATE FLAG
000221: 24,2044           05515                           TC       UPFLAG
000222: 24,2045           00031                           ADRES    TRACKFLG                              #  SET TRACK FLAG
000223: 24,2046           05515                           TC       UPFLAG
000224: 24,2047           00010                           ADRES    RNDVZFLG                              #  SET RENDEZVOUS FLAG
000225: 24,2050           05527                           TC       DOWNFLAG
000226: 24,2051           00037                           ADRES    SRCHOPTN                              #  INSURE SEARCH OPTION OFF


000228: 24,2052           05527                           TC       DOWNFLAG                              #  ALSO MANUAL ACQUISITION FLAG RESET
000229: 24,2053           00040                           ADRES    ACMODFLG
000230: 24,2054           05527                           TC       DOWNFLAG                              #  TURN OFF R04FLAG TO ENSURE GETTING
000231: 24,2055           00063                           ADRES    R04FLAG                               #  ALARM 521 IF CANT READ RADAR
000232: 24,2056           05527                           TC       DOWNFLAG                              #  ENSURE R25 GIMBAL MONITOR IS ENABLED
000233: 24,2057           00126                           ADRES    NORRMON                               #  (RESET NORRMON FLAG)
000234: 24,2060           05527                           TC       DOWNFLAG                              #  RESET LOS BEING COMPUTED FLAG
000235: 24,2061           00041                           ADRES    LOSCMFLG
000236: 24,2062           06011                           TC       CLRADMOD
000237: 24,2063           05515                           TC       UPFLAG
000238: 24,2064           00005                           ADRES    FSPASFLG                              #  SET FIRST PASS FLAG FOR ALARM
000239: 24,2065           05364        P20LEM1            TC       PHASCHNG
000240: 24,2066           04022                           OCT      04022
000241: 24,2067           34755                           CAF      ZERO                                  #  ZERO MARK COUNTER
000242: 24,2070           55462                           TS       MARKCTR
000243: 24,2071           06051        P20LEM2            TC       INTPRET                               #  LOS DETERMINATION ROUTINE
000244: 24,2072           77634                           RTB
000245: 24,2073           21555                                    LOADTIME
000246: 24,2074           34041                           STCALL   TDEC1
000247: 24,2075           51340                                    LPS20.1
000248: 24,2076           77624                           CALL
000249: 24,2077           53633                                    LPS20.2                               #  TEST RANGE R/UTINE
000250: 24,2100           77776                           EXIT
000251: 24,2101           50154                           INDEX    MPAC
000252: 24,2102           02103                           TC       +1
000253: 24,2103           02167                           TC       P20LEMA                               #  NORMAL RETURN WITHIN 400 N M
000254: 24,2104           06051        526ALARM           TC       INTPRET
000255: 24,2105           53575                           VLOAD    UNIT
000256: 24,2106           00025                                    RRANGE
000257: 24,2107           72441                           DOT      SL1
000258: 24,2110           00017                                    VELLOS
000259: 24,2111           16216                           STODL    RRATE                                 #  RANGE RATE FOR NOUN 54 B-7
000260: 24,2112           00045                                    36D
000261: 24,2113           51025                           DSU      BPL                                   #  IF RANGE>999.99,DISPLAY 999.99
000262: 24,2114           10372                                    999.99NM
000263: 24,2115           50142                                    TOOBIG
000264: 24,2116           77745                           DLOAD
000265: 24,2117           00045                                    36D
000266: 24,2120           16214        526ALRM1           STODL    RANGE                                 #   RANGE FOR NOUN 54 B-29
000267: 24,2121           06520                                    ZEROVECS
000268: 24,2122           02220                           STORE    RTHETA                                #  ZERO THETA FOR NOUN 54
000269: 24,2123           43014                           BOFF     BOFF
000270: 24,2124           00345                                    FSPASFLG                              #  FIRST PASS
000271: 24,2125           50155                                    P20LEMC5                              #  NO
000272: 24,2126           04347                                    SURFFLAG                              #  ON LUNAR SURFACE
000273: 24,2127           50147                                    ALRMLT                                #  NO
000274: 24,2130           51145                           DLOAD    BPL
000275: 24,2131           02216                                    RRATE
000276: 24,2132           50145                                    ENDRN
000277: 24,2133           77776                           EXIT                                           #  YES
000278:


000280: 24,2134           05364                           TC       PHASCHNG                              #  IN CASE OF RESTART
000281: 24,2135           04022                           OCT      04022                                 #  REACTIVATE DISPLAY
000282: 24,2136           32373                           CAF      V16N5420
000283: 24,2137           04616                           TC       BANKCALL                              #  TURN ON V16N54 - DISPLAY
000284: 24,2140           20452                           CADR     GODSPR                                #  RANGE AND RANGE RATE
000285: 24,2141           02156                           TC       P20LEM5
000286:
000287:
000288: 24,2142           52145        TOOBIG             DLOAD    GOTO
000289: 24,2143           10372                                    999.99NM
000290: 24,2144           50120                                    526ALRM1
000291:
000292: 24,2145           77776        ENDRN              EXIT
000293: 24,2146           06025                           TC       GOTOV56
000294:
000295: 24,2147           77776        ALRMLT             EXIT
000296: 24,2150           05364                           TC       PHASCHNG
000297: 24,2151           04022                           OCT      04022
000298: 24,2152           05600                           TC       ALARM                                 #  TURN ON ALARM LIGHT P20
000299: 24,2153           00526                           OCT      526
000300: 24,2154           02156                           TC       P20LEM5
000301: 24,2155           77776        P20LEMC5           EXIT
000302: 24,2156           05527        P20LEM5            TC       DOWNFLAG
000303: 24,2157           00005                           ADRES    FSPASFLG
000304: 24,2160           32370                           CAF      500DEC                                #  WAIT 5SECS
000305: 24,2161           04616                           TC       BANKCALL
000306: 24,2162           01736                           CADR     DELAYJOB
000307: 24,2163           02071                           TC       P20LEM2
000308:
000309:
000310: 24,2164           04616        P20LEM3            TC       BANKCALL
000311: 24,2165           20457                           CADR     CLEANDSP
000312:
000313:
000314: 24,2166           02175                           TC       P20LEMB
000315: 24,2167           05364        P20LEMA            TC       PHASCHNG
000316: 24,2170           04022                           OCT      04022
000317: 24,2171           02752                           TC       LUNSFCHK                              #  CHECK LUNAR SURFACE FLAG (P22 FLAG)
000318: 24,2172           02164                           TC       P20LEM3
000319: 24,2173           04616                           TC       BANKCALL
000320: 24,2174           46116                           CADR     R61LEM                                #  PREFERRED TRACKING ATTITUDE ROUTINE
000321: 24,2175           05364        P20LEMB            TC       PHASCHNG
000322: 24,2176           05022                           OCT      05022                                 #  RESTART AT PRIORITY 10 TO ALLOW V37
000323: 24,2177           10000                           OCT      10000                                 #  REQUESTED PROGRAM TO RUN FIRST
000324: 24,2200           37726                           CAF      PRIO26                                #  RESTORE PRIORITY 26
000325: 24,2201           05146                           TC       PRIOCHNG
000326: 24,2202           30075                           CA       FLAGWRD1                              #  IS THE TRACK FLAG SET
000327: 24,2203           74747                           MASK     TRACKBIT
000328: 24,2204           00006                           EXTEND
000329: 24,2205           12310                           BZF      P20LEMWT                              #   BRANCH - NO - WAIT FOR IT TO BE SET
000330:


000332: 24,2206           34752        P20LEMB7           CAF      BIT2                                  #  IS RR AUTO MODE DISCRETE PRESENT
000333: 24,2207           00006                           EXTEND
000334: 24,2210           02033                           RAND     CHAN33
000335: 24,2211           00006                           EXTEND
000336: 24,2212           12246                           BZF      P20LEMB3                              #  YES - DO AUTOMATIC ACQUISITION (R21)
000337:
000338:
000339: 24,2213           46007        P20LEMB5           CS       OCT24                                 #  RADAR NOT IN AUTO CHECK IF
000340: 24,2214           61010                           AD       MODREG                                #  MAJOR MODE IS 20
000341: 24,2215           00006                           EXTEND
000342: 24,2216           12231                           BZF      P20LEMB6                              #  BRANCH - YES-OK TO DO PLEASE PERFORM
000343:
000344:
000345: 24,2217           67760                           AD       NEG2                                  #  ALSO CHECK FOR P22
000346: 24,2220           00006                           EXTEND
000347: 24,2221           12231                           BZF      P20LEMB6                              #  BRANCH - YES OK TO DO PLEASE PERFORM
000348: 24,2222           32365                           CAF      ALRM514                               #  TRACK FLAG SET-FLASH PRIORITY ALARM 514-
000349: 24,2223           04616                           TC       BANKCALL                              #  RADAR GOES OUT OF AUTO MODE WHILE IN USE
000350: 24,2224           21544                           CADR     PRIOLARM
000351: 24,2225           06025                           TC       GOTOV56                               #  TERMINATE EXITS VIA V56
000352: 24,2226           02175                           TC       P20LEMB                               #  PROCEED AND ENTER BOTH GO BACK
000353: 24,2227           02175                           TC       P20LEMB                               #  TO CHECK AUTO MODE AGAIN
000354: 24,2230           05155                           TC       ENDOFJOB
000355: 24,2231           32364        P20LEMB6           CAF      OCT201                                #  REQUEST RR AUTO MODE SELECTION
000356: 24,2232           04616                           TC       BANKCALL
000357: 24,2233           20624                           CADR     GOPERF1
000358: 24,2234           06025                           TC       GOTOV56                               #  TERMINATE EXITS P20 VIA V56 CODING
000359: 24,2235           02175                           TC       P20LEMB                               #  PROCEED CHECKS AUTO MODE DISCRETE AGAIN
000360: 24,2236           02752                           TC       LUNSFCHK                              #  ENTER INDICATES MANUAL ACQUISITION (R23)
000361: 24,2237           02244                           TC       P20LEMB2                              #  YES - R23 NOT ALLOWED-TURN ON OPR ERROR
000362: 24,2240           03221                           TC       R23LEM                                #  NO - DO MANUAL ACQUISITION
000363:
000364:
000365: 24,2241           05515        P20LEMB1           TC       UPFLAG                                #  RETURN FROM R23 - LOCKON ACHIEVED
000366: 24,2242           00040                           ADRES    ACMODFLG                              #  SET MANUAL FLAG AND GO BACK TO CHECK
000367: 24,2243           02175                           TC       P20LEMB                               #  RR AUTO MODE
000368:
000369:
000370: 24,2244           04364        P20LEMB2           TC       FALTON                                #  TURNS ON OPERATOR ERROR LIGHT ON DSKY
000371: 24,2245           02175                           TC       P20LEMB                               #  AND GOES BACK TO CHECK AUTO MODE
000372:
000373:
000374: 24,2246           40110        P20LEMB3           CS       RADMODES                              #  ARE RR CDUS BEING ZEROED
000375: 24,2247           74737                           MASK     RCDU0BIT
000376: 24,2250           00006                           EXTEND
000377: 24,2251           12263                           BZF      P20LEMB4                              #  BRANCH - YES - WAIT
000378: 24,2252           34355                           CAF      BIT13-14                              #  IS SEARCH OR MANUAL ACQUISITION FLAG SET
000379: 24,2253           70076                           MASK     FLAGWRD2
000380: 24,2254           00006                           EXTEND
000381: 24,2255           12267                           BZF      P20LEMC3                              #  ZERO MEANS AUTOMATIC RR ACQUISTION


000383: 24,2256           05527                           TC       DOWNFLAG                              #  RESET TO AUTO MODE
000384: 24,2257           00037                           ADRES    SRCHOPTN
000385: 24,2260           05527                           TC       DOWNFLAG
000386: 24,2261           00040                           ADRES    ACMODFLG
000387: 24,2262           02310                           TC       P20LEMWT                              #  WAIT 2.5 SECONDS THEN GO TO RR DATA READ
000388:
000389:
000390: 24,2263           32362        P20LEMB4           CAF      250DEC
000391: 24,2264           04616                           TC       BANKCALL                              #  WAIT 2.5 SECONDS WHILE RR CDUS ARE BEING
000392: 24,2265           01736                           CADR     DELAYJOB                              #  ZEROED-THEN GO BACK AND CHECK AGAIN
000393: 24,2266           02246                           TC       P20LEMB3
000394:
000395:
000396: 24,2267           06051        P20LEMC3           TC       INTPRET
000397: 24,2270           77634                           RTB
000398: 24,2271           21555                                    LOADTIME
000399: 24,2272           34041                           STCALL   TDEC1
000400: 24,2273           50374                                    UPPSV
000401: 24,2274           77776        P20LEMC4           EXIT
000402: 24,2275           05364        P20LEMC            TC       PHASCHNG
000403: 24,2276           04022                           OCT      04022
000404: 24,2277           30074                           CAE      FLAGWRD0                              #  IS THE RENDEZVOUS FLAG SET
000405: 24,2300           74745                           MASK     RNDVZBIT
000406: 24,2301           00006                           EXTEND
000407: 24,2302           15155                           BZF      ENDOFJOB                              #  NO - EXIT P20
000408: 24,2303           30075                           CAE      FLAGWRD1                              #  IS TRACK FLAG SET  (BIT 5 FLAGWORD 1)
000409: 24,2304           74747                           MASK     TRACKBIT
000410: 24,2305           00006                           EXTEND
000411: 24,2306           12342                           BZF      P20LEMD                               #  BRANCH-TRACK FLAG NOT ON-WAIT 15 SECONDS
000412: 24,2307           02757        P20LEMF            TC       R21LEM
000413:
000414:
000415: 24,2310           32362        P20LEMWT           CAF      250DEC
000416: 24,2311           05204                           TC       TWIDDLE                               #  USE INSTEAD OF WAITLIST SINCE SAME BANK
000417: 24,2312           02322                           ADRES    P20LEMC1                              #  WAIT 2.5 SECONDS
000418: 24,2313           30075                           CAE      FLAGWRD1                              #  IS TRACK FLAG SET
000419: 24,2314           74747                           MASK     TRACKBIT
000420: 24,2315           00006                           EXTEND
000421: 24,2316           15155                           BZF      ENDOFJOB                              #  NO-EXIT WITHOUT DOING 2.7 PHASE CHANGE
000422: 24,2317           05364        P20LMWT1           TC       PHASCHNG
000423: 24,2320           40072                           OCT      40072
000424: 24,2321           05155                           TC       ENDOFJOB
000425:
000426:
000427: 24,2322           30074        P20LEMC1           CAE      FLAGWRD0                              #  IS RENDEZVOUS FLAG SET
000428: 24,2323           74745                           MASK     RNDVZBIT
000429: 24,2324           00006                           EXTEND
000430: 24,2325           15272                           BZF      TASKOVER                              #  NO - EXIT P20/R22
000431: 24,2326           30075                           CAE      FLAGWRD1                              #  IS TRACK FLAG SET
000432: 24,2327           74747                           MASK     TRACKBIT


000434: 24,2330           00006                           EXTEND
000435: 24,2331           12337                           BZF      P20LEMC2                              #  NO-DONT SCHEDULE R22 JOB
000436: 24,2332           37726                           CAF      PRIO26                                #  YES-SCHEDULE R22 JOB (RR DATA READ)
000437: 24,2333           05105                           TC       FINDVAC
000438: 24,2334  E7,1456                                  EBANK=   LOSCOUNT
000439: 24,2334           02713 50067                     2CADR    R22LEM42
000440:
000441: 24,2336           05272                           TC       TASKOVER
000442:
000443:
000444: 24,2337           05232        P20LEMC2           TC       FIXDELAY                              #  TRACK FLAG NOT SET ,WAIT 15 SECONDS
000445: 24,2340           02734                           DEC      1500       B-14                       #  AND CHECK AGAIN
000446:
000447: 24,2341           02322                           TC       P20LEMC1
000448:
000449: 24,2342           32751        P20LEMD            CAF      1500DEC
000450: 24,2343           05204                           TC       TWIDDLE                               #  WAITLIST FOR 15 SECONDS
000451: 24,2344           02346                           ADRES    P20LEMD1
000452: 24,2345           05155                           TC       ENDOFJOB
000453:
000454:
000455: 24,2346           30075        P20LEMD1           CAE      FLAGWRD1                              #  IS TRACK FLAG SET
000456: 24,2347           74747                           MASK     TRACKBIT
000457: 24,2350           10000                           CCS      A
000458: 24,2351           12355                           TCF      P20LEMD2                              #  YES-SCHEDULE DESIGNATE JOB
000459: 24,2352           05232                           TC       FIXDELAY                              #  NO-WAIT 15 SECONDS
000460: 24,2353           02734                           DEC      1500       B-14
000461: 24,2354           02346                           TC       P20LEMD1
000462:
000463:
000464: 24,2355           37726        P20LEMD2           CAF      PRIO26                                #  SCHEDULE JOB TO DO R21
000465: 24,2356           05105                           TC       FINDVAC
000466: 24,2357  E7,1456                                  EBANK=   LOSCOUNT
000467: 24,2357           02267 50067                     2CADR    P20LEMC3                              #  START AT PERM. MEMORY INTEGRATION
000468:
000469: 24,2361           05272                           TC       TASKOVER
000470:
000471:
000472: 24,2362           00372        250DEC             DEC      250        B-14
000473: 24,2363           00526        ALRM526            OCT      00526
000474: 24,2364           00201        OCT201             OCT      00201
000475: 24,2365           00514        ALRM514            OCT      514
000476: 24,2366           00074        MAXTRIES           DEC      60         B-14
000477: 24,2367     4363               OCT00012           EQUALS   BINCON
000478: 24,2367  23,2507               ONEB-2             EQUALS   DP1/4TH
000479: 24,2367           01441        V06N33*            VN       0633
000480: 24,2370           00764        500DEC             DEC      500        B-14
000481: 24,2371           00070 20447  999.99NM           2DEC     1851982    B-29
000482:
000483: 24,2373           04066        V16N5420           VN       1654
000484:


000486: 24,2374           45020        UPPSV              STQ      CALL                                  #  UPDATES PERMANENT STATE VECTORS
000487: 24,2375           01755                                    LS21X                                 #   TO PRESENT TIME
000488: 24,2376           27410                                    INTSTALL
000489: 24,2377           77624                           CALL
000490: 24,2400           26643                                    SETIFLGS
000491: 24,2401           43014                           BOF      SET                                   #  IF W-MATRIX INVALID,DONT INTEGRATE IT
000492: 24,2402           02756                                    RENDWFLG
000493: 24,2403           50414                                    UPPSV1
000494: 24,2404           01476                                    DIM0FLAG                              #  SET DIMOFLAG TO INTEGRATE W-MATRIX
000495: 24,2405           43014                           BON      SET
000496: 24,2406           04307                                    SURFFLAG                              #  IF ON LUNAR SURFACE W IS 6X6
000497: 24,2407           50411                                    UPPSV5
000498: 24,2410           01475                                    D6OR9FLG                              #  OTHERWISE 9X9
000499: 24,2411           77614        UPPSV5             BOF
000500: 24,2412           00747                                    VEHUPFLG
000501: 24,2413           50446                                    UPPSV3
000502: 24,2414           77614        UPPSV1             SET
000503: 24,2415           01474                                    VINTFLAG
000504: 24,2416           77624                           CALL
000505: 24,2417           27133                                    INTEGRV
000506: 24,2420           77624                           CALL                                           #  GROUP 2 PHASE CHANGE
000507: 24,2421           11216                                    GRP2PC                                #  TO PROTECT INTEGRATION
000508: 24,2422           77624                           CALL
000509: 24,2423           27410                                    INTSTALL
000510: 24,2424           43145                           DLOAD    CLEAR                                 #  GET TETCSM TO STORE IN TDEC FOR LM INT.
000511: 24,2425           01571                                    TETCSM
000512: 24,2426           01674                                    VINTFLAG
000513: 24,2427           77624        UPPSV4             CALL                                           #  INTEGRATE OTHER VEHICLE
000514: 24,2430           26643                                    SETIFLGS                              #   WITHOUT W-MATRIX
000515: 24,2431           34041                           STCALL   TDEC1
000516: 24,2432           27133                                    INTEGRV
000517: 24,2433           77214                           BOFF     VLOAD
000518: 24,2434           04347                                    SURFFLAG
000519: 24,2435           50274                                    P20LEMC4
000520: 24,2436           01661                                    RCVLEM
000521: 24,2437           77742                           VSR2
000522: 24,2440           26343                           STOVL    LMPOS
000523: 24,2441           01667                                    VCVLEM
000524: 24,2442           77742                           VSR2
000525: 24,2443           02351                           STORE    LMVEL
000526: 24,2444           77650                           GOTO
000527: 24,2445           01755                                    LS21X
000528:
000529:
000530: 24,2446           45014        UPPSV3             CLEAR    CALL
000531: 24,2447           01674                                    VINTFLAG
000532: 24,2450           27133                                    INTEGRV
000533: 24,2451           77624                           CALL
000534: 24,2452           11216                                    GRP2PC
000535: 24,2453           77624                           CALL


000537: 24,2454           27410                                    INTSTALL
000538: 24,2455           71214                           SET      DLOAD
000539: 24,2456           01474                                    VINTFLAG
000540: 24,2457           01643                                    TETLEM                                #  GET TETLEM TO STORE IN TDEC FOR CSM INT.
000541: 24,2460           77650                           GOTO
000542: 24,2461           50427                                    UPPSV4
000543:
000544:
000545: 24,2462  E7,1456                                  EBANK=   LOSCOUNT
000546: 24,2462                                           COUNT*   $$/P22
000547:


000549:                                                                                                  #  PROGRAM DESCRIPTION
000550:                                                                                                  #  PREFERRED TRACKING ATTITUDE PROGRAM P25
000551:                                                                                                  #  MOD NO - 3
000552:                                                                                                  #  BY  P. VOLANTE
000553:                                                                                                  #  FUNCTIONAL DESCRIPTION
000554:
000555:                                                                                                  #    THE PURPOSE OF THIS PROGRAM IS TO COMPUTE THE PREFERRED TRACKING
000556:                                                                                                  #  ATTITUDE OF THE LM TO CONTINUOUSLY POINT THE LM TRACKING BEACON AT THE
000557:                                                                                                  #  CSM AND TO PERFORM THE MANEUVER TO THE PREFERRED TRACKING ATTITUDE AND
000558:                                                                                                  #  CONTINUOUSLY MAINTAIN THIS ATTITUDE WITHIN PRESCRIBED LIMITS
000559:                                                                                                  #  CALLING SEQUENCE -
000560:                                                                                                  #    ASTRONAUT REQUEST THROUGH DSKY V37E25E
000561:                                                                                                  #  SUBROUTINES CALLED -
000562:                                                                                                  #    BANKCALL                      FLAGUP
000563:                                                                                                  #    R02BOTH  (IMU STATUS CHECK)   ENDOFJOB
000564:                                                                                                  #    R61LEM   (PREF TRK ATT ROUT)  WAITLIST
000565:                                                                                                  #    TASKOVER                      FINDVAC
000566:                                                                                                  #  NORMAL EXIT MODES  -
000567:                                                                                                  #    P25 MAY BE TERMINATED IN TWO WAYS-ASTRONAUT SELECTION OF IDLING
000568:                                                                                                  #  PROGRAM(P00) BY KEYING V37E00E OR BY KEYING IN V56E
000569:                                                                                                  #  ALARM OR ABORT EXIT MODES -
000570:                                                                                                  #    NONE
000571:                                                                                                  #  OUTPUT
000572:                                                                                                  #  ERASABLE INITIALIZATION REQUIRED
000573:                                                                                                  #  FLAGS SET + RESET
000574:                                                                                                  #    TRACKFLG,P25FLAG
000575:                                                                                                  #  DEBRIS
000576:                                                                                                  #    NONE
000577: 24,2462  E7,1456                                  EBANK=   LOSCOUNT
000578: 24,2462                                           COUNT*   $$/P25
000579: 24,2462           05340        PROG25             TC       2PHSCHNG
000580: 24,2463           00004                           OCT      4                                     #  MAKE GROUP 4 INACTIVE (VERB 37)
000581: 24,2464           05022                           OCT      05022
000582: 24,2465           26000                           OCT      26000                                 #  PRIORITY 26
000583:
000584: 24,2466           04616                           TC       BANKCALL
000585: 24,2467           11241                           CADR     R02BOTH                               #  IMU STATUS CHECK
000586: 24,2470           05515                           TC       UPFLAG
000587: 24,2471           00031                           ADRES    TRACKFLG                              #  SET TRACK FLAG
000588: 24,2472           05515                           TC       UPFLAG
000589: 24,2473           00006                           ADRES    P25FLAG                               #  SET P25FLAG
000590: 24,2474           05527                           TC       DOWNFLAG
000591: 24,2475           00010                           ADRES    RNDVZFLG
000592: 24,2476           05364        P25LEM1            TC       PHASCHNG
000593: 24,2477           04022                           OCT      04022
000594: 24,2500           34743                           CAF      P25FLBIT
000595: 24,2501           70074                           MASK     STATE                                 #  IS P25FLAG SET
000596: 24,2502           00006                           EXTEND
000597: 24,2503           15155                           BZF      ENDOFJOB
000598: 24,2504           34747                           CAF      TRACKBIT                              #  IS TRACKFLAG SET?


000600: 24,2505           70075                           MASK     STATE      +1
000601: 24,2506           00006                           EXTEND
000602: 24,2507           12515                           BZF      P25LMWT1                              #  NO-SKIP PHASE CHANGE AND WAIT 1 MINUTE
000603: 24,2510           34757                           CAF      SEVEN                                 #  CALL R65 - FINE PREFERRED
000604: 24,2511           55745                           TS       R65CNTR
000605: 24,2512           04616                           TC       BANKCALL                              #  TRACKING ATTITUDE ROUTINE
000606: 24,2513           46123                           CADR     R65LEM
000607: 24,2514           02476                           TC       P25LEM1                               #  THEN GO CHECK FLAGS
000608: 24,2515           32526        P25LMWT1           CAF      60SCNDS
000609: 24,2516           05204                           TC       TWIDDLE                               #  WAIT ONE MINUTE THEN CHECK AGAIN
000610: 24,2517           02521                           ADRES    P25LEM2
000611: 24,2520           05155                           TC       ENDOFJOB
000612: 24,2521           35024        P25LEM2            CAF      PRIO14
000613: 24,2522           05105                           TC       FINDVAC
000614: 24,2523  E7,1456                                  EBANK=   LOSCOUNT
000615: 24,2523           02476 50067                     2CADR    P25LEM1
000616:
000617: 24,2525           05272                           TC       TASKOVER
000618: 24,2526           13560        60SCNDS            DEC      6000       B-14
000619:


000621:                                                                                                  #  DATA READ ROUTINE 22 (LEM)
000622:                                                                                                  #  PROGRAM DESCRIPTION
000623:                                                                                                  #  MOD NO - 2
000624:                                                                                                  #  BY P VOLANTE
000625:                                                                                                  #  FUNCTIONAL DESCRIPTION
000626:
000627:                                                                                                  #    TO PROCESS AUTOMATIC RR MARK DATA TO UPDATE THE STATE VECTOR OF EITHER
000628:                                                                                                  #  LM OR CSM AS DEFINED IN THE RENDEZVOUS NAVIGATION PROGRAM (P20)
000629:                                                                                                  #  CALLING SEQUENCE -
000630:                                                                                                  #           TC     BANKCALL
000631:                                                                                                  #           CADR   R22LEM
000632:                                                                                                  #  SUBROUTINES CALLED -
000633:                                                                                                  #    LSR22.1           GOFLASH        WAITLIST
000634:                                                                                                  #    LSR22.2           PRIOLARM       BANKCALL
000635:                                                                                                  #    LSR22.3           R61LEM
000636:                                                                                                  #  NORMAL EXIT MODES-
000637:                                                                                                  #    R22 WILL CONTINUE TO RECYCLE,UPDATING STATE VECTORS WITH RADAR DATA
000638:                                                                                                  #  UNTIL P20 CEASES TO OPERATE (RENDEZVOUS FLAG SET TO ZERO) AT WHICH TIME
000639:                                                                                                  #  R22 WILL TERMINATE SELF.
000640:                                                                                                  #  ALARM OR ABORT EXIT MODES-
000641:                                                                                                  #    PRIORITY ALARM
000642:                                                                                                  #  PRIORITY ALARM 525 LOS NOT WITHIN 3 DEGREE LIMIT
000643:                                                                                                  #  OUTPUT
000644:                                                                                                  #    SEE OUTPUT FROM LSR22.3
000645:                                                                                                  #  ERASABLE INITIALIZATION REQUIRED
000646:                                                                                                  #    SEE LSR22.1,LSR22.2,LSR22.3
000647:                                                                                                  #  FLAGS SET + RESET
000648:                                                                                                  #    NOANGFLG
000649:                                                                                                  #  DEBRIS
000650:                                                                                                  #    SEE LSR22.1,LSR22.2,LSR22.3
000651: 24,2527  E7,1737                                  EBANK=   LRS22.1X
000652: 24,2527                                           COUNT*   $$/R22
000653: 24,2527           05364        R22LEM             TC       PHASCHNG
000654: 24,2530           04022                           OCT      04022
000655: 24,2531           34745                           CAF      RNDVZBIT                              #  IS RENDESVOUS FLAG SET?
000656: 24,2532           70074                           MASK     STATE
000657: 24,2533           00006                           EXTEND
000658: 24,2534           15155                           BZF      ENDOFJOB                              #  NO-EXIT R22 AND P20
000659: 24,2535           34747                           CAF      TRACKBIT                              #  IS TRACKFLAG SET?
000660: 24,2536           70075                           MASK     STATE      +1
000661: 24,2537           00006                           EXTEND
000662: 24,2540           12722                           BZF      R22WAIT                               #  NO WAIT
000663: 24,2541           34736        R22LEM12           CAF      BIT14                                 #  IS RR AUTO TRACK ENABLE DISCRETE STILL
000664: 24,2542           00006                           EXTEND                                         #  ON (A MONITOR REPOSITION BY R25 CLEARSIT
000665: 24,2543           02012                           RAND     CHAN12
000666: 24,2544           00006                           EXTEND
000667: 24,2545           12167                           BZF      P20LEMA                               #  NO - RETURN TO P20
000668: 24,2546           34752                           CAF      BIT2                                  #  YES
000669: 24,2547           00006                           EXTEND                                         #  IS RR AUTO MODE DISCRETE PRESENT
000670: 24,2550           02033                           RAND     CHAN33


000672: 24,2551           00006                           EXTEND
000673: 24,2552           12554                           BZF      +2                                    #  YES CONTINUE
000674: 24,2553           02213                           TC       P20LEMB5                              #  NO - SET IT
000675: 24,2554           40110                           CS       RADMODES                              #  ARE RR CDUS BEING ZEROED
000676: 24,2555           74737                           MASK     RCDU0BIT
000677: 24,2556           00006                           EXTEND
000678: 24,2557           12713                           BZF      R22LEM42                              #  CDUS BEING ZEROED
000679: 24,2560           05364                           TC       PHASCHNG                              #  IF A RESTART OCCURS,AN EXTRA RADAR
000680: 24,2561           00152                           OCT      00152                                 #  READING IS TAKEN,SO BAD DATA ISN'T USED
000681: 24,2562           04616                           TC       BANKCALL                              #  YES READ DATA + CALCULATE LOS
000682: 24,2563           64217                           CADR     LRS22.1                               #  DATA READ SUBROUTINE
000683: 24,2564           50154                           INDEX    MPAC
000684: 24,2565           02566                           TC       +1
000685: 24,2566           02607                           TC       R22LEM2                               #  NORMAL RETURN (GOOD DATA)
000686: 24,2567           02275                           TC       P20LEMC                               #  COULD NOT READ RADAR-TRY TO REDESIGNATE
000687: 24,2570           32746                           CAF      ALRM525                               #  RR LOS NOT WITHIN 3 DEGREES (ALARM)
000688: 24,2571           04616                           TC       BANKCALL
000689: 24,2572           21544                           CADR     PRIOLARM
000690: 24,2573           06025                           TC       GOTOV56                               #  TERMINATE EXITS P20 VIA V56 CODING
000691: 24,2574           02577                           TC       R22LEM1                               #  PROC (DISPLAY DELTA THETA)
000692: 24,2575           02570                           TC       -5                                    #  ENTER(ILLEGAL OPTION)
000693: 24,2576           05155                           TC       ENDOFJOB
000694:
000695:
000696: 24,2577           05364        R22LEM1            TC       PHASCHNG
000697: 24,2600           04022                           OCT      04022
000698: 24,2601           32747                           CAF      V06N05                                #  DISPLAY DELTA THETA
000699: 24,2602           04616                           TC       BANKCALL
000700: 24,2603           20510                           CADR     PRIODSP
000701: 24,2604           06025                           TC       GOTOV56                               #  TERMINATE EXITS P20 VIA V56 CODING
000702: 24,2605           02607                           TC       R22LEM2                               #  PROC (OK CONTINUE)
000703: 24,2606           02275                           TC       P20LEMC                               #  ENTER(RECYCLE)
000704: 24,2607           05364        R22LEM2            TC       PHASCHNG
000705: 24,2610           04022                           OCT      04022
000706: 24,2611           02752                           TC       LUNSFCHK                              #  CHECK IF ON LUNAR SURFACE (P22FLAG SET)
000707: 24,2612           02627                           TC       R22LEM3                               #  YES-BYPASS FLAG CHECKS AND LRS22.2
000708: 24,2613           30075                           CA       FLAGWRD1                              #  IS TRACK FLAG SET
000709: 24,2614           74747                           MASK     TRACKBIT
000710: 24,2615           00006                           EXTEND
000711: 24,2616           12722                           BZF      R22WAIT                               #  NO - WAIT
000712: 24,2617           04616                           TC       BANKCALL                              #  YES
000713: 24,2620           51417                           CADR     LRS22.2                               #  CHECKS RR BORESIGHT WITHIN 30 DEG OF +Z
000714: 24,2621           50154                           INDEX    MPAC
000715: 24,2622           02623                           TC       +1
000716: 24,2623           02627                           TC       R22LEM3                               #  NORMAL RETURN(LOS WITHIN 30  OF Z-AXIS)
000717: 24,2624           04616                           TC       BANKCALL
000718: 24,2625           46116                           CADR     R61LEM
000719: 24,2626           02722                           TC       R22WAIT                               #  NOT WITHIN 30 DEG OF Z-AXIS
000720: 24,2627           40075        R22LEM3            CS       FLAGWRD1                              #  SHOULD WE BYPASS STATE VECTOR UPDATE
000721: 24,2630           74746                           MASK     NOUPFBIT                              #  (IS NOUPDATE FLAG SET?)


000723: 24,2631           00006                           EXTEND
000724: 24,2632           12713                           BZF      R22LEM42                              #  BRANCH-YES
000725: 24,2633           30075                           CA       FLAGWRD1                              #  IS UPDATE FLAG SET
000726: 24,2634           74745                           MASK     UPDATBIT
000727: 24,2635           00006                           EXTEND
000728: 24,2636           12713                           BZF      R22LEM42                              #  UPDATE FLAG NOT SET
000729: 24,2637           37726                           CAF      PRIO26                                #  INSURE HIGH PRIO IN RESTART
000730: 24,2640           55055                           TS       PHSPRDT2
000731:
000732: 24,2641           06051                           TC       INTPRET
000733: 24,2642           77650                           GOTO
000734: 24,2643           54420                                    LSR22.3
000735: 24,2644           77776        R22LEM93           EXIT                                           #  NORMAL EXIT FROM LSR22.3
000736: 24,2645           05364                           TC       PHASCHNG                              #  PHASE CHANGE TO PROTECT AGAINST
000737: 24,2646           04022                           OCT      04022                                 #  CONFLICT WITH GRP2PC ERASEABLE
000738: 24,2647           12706                           TCF      R22LEM44
000739: 24,2650           77776        R22LEM96           EXIT
000740: 24,2651           34755                           CAF      ZERO                                  #  SET N49FLAG = ZERO TO INDICATE
000741: 24,2652           55746                           TS       N49FLAG                               #  V06 N49 DISPLAY HASNT BEEN ANSWERED
000742: 24,2653           05364                           TC       PHASCHNG
000743: 24,2654           04022                           OCT      04022                                 #  TO PROTECT DISPLAY
000744: 24,2655           37727                           CAF      PRIO27                                #  PROTECT DISPLAY
000745: 24,2656           05072                           TC       NOVAC
000746: 24,2657  E7,1746                                  EBANK=   N49FLAG
000747: 24,2657           02727 50067                     2CADR    N49DSP
000748:
000749: 24,2661           06051                           TC       INTPRET
000750: 24,2662           77735                           SLOAD
000751: 24,2663           03747                                    N49FLAG
000752: 24,2664           50054                           BZE      BMN                                   #  LOOP TO CHECK IF FLAG
000753: 24,2665           50662                                    -3                                    #  SETTING CHANGED-BRANCH - NO
000754: 24,2666           50674                                    R22LEM7                               #  PROCEED
000755: 24,2667           77650                           GOTO                                           #  DISPLAY ANSWERED BY RECYCLE-INCORPORATE
000756: 24,2670           03675                                    LGRET                                 #        NEXT MEASUREMENT
000757: 24,2671           44752        V34TON49           CS       TWO
000758: 24,2672           55746                           TS       N49FLAG
000759: 24,2673           05155                           TC       ENDOFJOB
000760: 24,2674           77776        R22LEM7            EXIT
000761: 24,2675           31746                           CA       N49FLAG                               #  WAS ANSWER TO DISPLAY PRO OR TERM
000762: 24,2676           64752                           AD       TWO
000763: 24,2677           00006                           EXTEND
000764: 24,2700           12527                           BZF      R22LEM                                #  BRANCH - TERM - TAKE ANOTHER RR READING
000765: 24,2701           06051                           TC       INTPRET
000766: 24,2702           77624                           CALL
000767: 24,2703           11216                                    GRP2PC                                #  PHASE CHANGE AND
000768: 24,2704           77650                           GOTO                                           #  GO TO INCORPORATE DATA.
000769: 24,2705           55433                                    ASTOK
000770: 24,2706           25462        R22LEM44           INCR     MARKCTR                               #  INCREMENT COUNT OF MARKS INCORPORATED.
000771: 24,2707           02752                           TC       LUNSFCHK                              #  ARE WE ON LUNAR SURFACE
000772: 24,2710           02724                           TC       R22LEM46                              #  YES - WAIT 2 SECONDS


000774: 24,2711           34756                           CA       FIVE                                  #  NOT ON LUNAR SURFACE
000775: 24,2712           02716                           TC       R22LEM45                              #  R65COUNTER = 5
000776: 24,2713           02752        R22LEM42           TC       LUNSFCHK                              #  CHECK IF ON LUNAR SURFACE (P22FLAG SET)
000777: 24,2714           02724                           TC       R22LEM46                              #  YES - WAIT 2 SECONDS
000778: 24,2715           34752                           CA       TWO                                   #  NO-SET R65COUNTER = 2
000779: 24,2716           55745        R22LEM45           TS       R65CNTR
000780: 24,2717           04616                           TC       BANKCALL
000781: 24,2720           46123                           CADR     R65LEM                                #  FINE PREFERRED TRACKING ATTITUDE
000782: 24,2721           02527                           TC       R22LEM
000783: 24,2722           32751        R22WAIT            CAF      1500DEC
000784: 24,2723           02311                           TC       P20LEMWT   +1
000785:
000786:
000787: 24,2724           04616        R22LEM46           TC       BANKCALL
000788: 24,2725           01735                           CADR     2SECDELY                              #  WAIT 2 SECONDS AND TAKE ANOTHER MARK
000789: 24,2726           02527                           TC       R22LEM
000790:
000791: 24,2727           32750        N49DSP             CAF      V06N49NB
000792: 24,2730           04616                           TC       BANKCALL                              #  EXCESSIVE STATE VECTOR UPDATE - FLASH
000793: 24,2731           20510                           CADR     PRIODSP                               #  VERB 06 NOUN 49 R1=DELTA R, R2=DELTA V
000794: 24,2732           02671                           TC       V34TON49                              #  TERMINATE - SET N49FLAG = -2
000795: 24,2733           44753                           CS       ONE                                   #  PROCEED - N49FLAG = -1
000796: 24,2734           55746                           TS       N49FLAG                               #  RECYCLE - N49FLAG = + VALUE
000797: 24,2735           05155                           TC       ENDOFJOB
000798: 24,2736           05364        R22RSTRT           TC       PHASCHNG                              #  IF A RESTART OCCURS WHILE READING RADAR
000799: 24,2737           00152                           OCT      00152                                 #  COME HERE TO TAKE A RANGE-RATE READING
000800: 24,2740           04616                           TC       BANKCALL                              #  WHICH ISNT USED TO PREVENT TAKING A BAD
000801: 24,2741           53070                           CADR     RRRDOT                                #  READING AND TRYING TO INCORPORATE THE
000802: 24,2742           04616                           TC       BANKCALL                              #  BAD DATA
000803: 24,2743           17713                           CADR     RADSTALL                              #  WAIT FOR READ COMPLETE
000804: 24,2744           02275                           TC       P20LEMC                               #  COULD NOT READ RADAR-TRY TO REDESIGNATE
000805: 24,2745           02527                           TC       R22LEM                                #  READ SUCCESSFUL-CONTINUE AT R22
000806:
000807:
000808: 24,2746           00525        ALRM525            OCT      00525
000809: 24,2747           01405        V06N05             VN       00605
000810: 24,2750           01461        V06N49NB           VN       00649
000811: 24,2751           02734        1500DEC            DEC      1500       B-14
000812:                                                                                                  #  LUNSFCHK-CLOSED SUBROUTINE TO CHECK IF ON LUNAR SURFACE (P22FLAG)
000813:                                                                                                  #           RETURNS TO CALLER +1 IF P22FLAG SET
000814:                                                                                                  #                   TO CALLER +2 IF P22FLAG NOT SET
000815:
000816:
000817: 24,2752                                           COUNT*   $$/P22
000818: 24,2752           40104        LUNSFCHK           CS       FLAGWRD8                              #  CHECK IF ON LUNAR SURFACE
000819: 24,2753           74744                           MASK     SURFFBIT                              #  IS SURFFLAG SET?
000820: 24,2754           10000                           CCS      A                                     #  BRANCH - P22FLAG SET
000821: 24,2755           24002                           INCR     Q                                     #  NOT SET
000822: 24,2756           00002                           TC       Q                                     #  RETURN
000823:


000825:                                                                                                  #  RR DESIGNATE ROUTINE (R21LEM)
000826:                                                                                                  #  PROGRAM DESCRIPTION
000827:                                                                                                  #  MOD NO - 2
000828:                                                                                                  #  BY P VOLANTE
000829:                                                                                                  #  FUNCTIONAL DESCRIPTION
000830:
000831:                                                                                                  #    TO POINT THE RENDEZVOUS RADAR AT THE CSM UNTIL AUTOMATIC ACQUISITION
000832:                                                                                                  #  OF THE CSM IS ACCOMPLISHED BY THE RADAR. ROUTINE IS CALLED BY P20.
000833:                                                                                                  #  CALLING SEQUENCE -
000834:                                                                                                  #           TC     BANKCALL
000835:                                                                                                  #           CADR   R21LEM
000836:                                                                                                  #  SUBROUTINES CALLED -
000837:                                                                                                  #    FINDVAC        FLAGUP           ENDOFJOB        PRIOLARM
000838:                                                                                                  #    NOVAC          INTPRET          LPS20.1         PHASCHNG
000839:                                                                                                  #    WAITLIST       JOBSLEEP         JOBWAKE         FLAGDOWN
000840:                                                                                                  #    TASKOVER       BANKCALL         RADSTALL        RRDESSM
000841:                                                                                                  #  NORMAL EXIT MODES
000842:                                                                                                  #    WHEN LOCK-ON IS ACHIEVED,BRANCH WILL BE TO P20 WHERE R22 (DATA READ
000843:                                                                                                  #  WILL BE SELECTED OR A NEED FOR A MANEUVER(BRANCH TO P20LEMA)
000844:                                                                                                  #  ALARM OR ABORT EXIT MODES-
000845:                                                                                                  #    PRIORITY ALARM 503 WHEN LOCK-ON HASN:T BEEN ACHIEVED AFTER 30SECS -
000846:                                                                                                  #  THIS REQUIRES ASTRONAUT INTERFACE- SELECTION OF SEARCH OPTION OF
000847:                                                                                                  #  ACQUISITION
000848:                                                                                                  #  OUTPUT
000849:                                                                                                  #    SEE LPS20.1,RRDESSM
000850:                                                                                                  #  ERASABLE INITIALIZATION REQUIRED
000851:                                                                                                  #    RRTARGET,RADMODES ARE USED BY LPS20.1 AND RRDESSM
000852:                                                                                                  #  FLAGS SET + RESET
000853:                                                                                                  #    LOSCMFLG      LOKONSW
000854:                                                                                                  #  DEBRIS
000855:                                                                                                  #    SEE LPS20.1,RRDESSM
000856: 24,2757  E7,1456                                  EBANK=   LOSCOUNT
000857: 24,2757                                           COUNT*   $$/R21
000858: 24,2757           44736        R21LEM             CS       BIT14                                 #  REMOVE RR SELF TRACK ENABLE
000859: 24,2760           00006                           EXTEND
000860: 24,2761           03012                           WAND     CHAN12
000861: 24,2762           02752                           TC       LUNSFCHK
000862: 24,2763           02770                           TC       R21LEM5
000863: 24,2764           34755                           CAF      ZERO                                  #       COMMAND ANTENNA TO MODE CENTER
000864: 24,2765           55106                           TS       TANG                                  #  IF NOT ON SURFACE-MODE 1-(T=0,S=0)
000865: 24,2766           55107                           TS       TANG       +1
000866: 24,2767           03000                           TC       R21LEM6
000867: 24,2770           34740        R21LEM5            CAF      BIT12
000868: 24,2771           70110                           MASK     RADMODES
000869: 24,2772           10000                           CCS      A
000870: 24,2773           03010                           TC       R21LEM10
000871: 24,2774           34735                           CAF      BIT15
000872: 24,2775           55106                           TS       TANG
000873: 24,2776           44736                           CS       HALF
000874: 24,2777           55107                           TS       TANG       +1


000876: 24,3000           05527        R21LEM6            TC       DOWNFLAG
000877: 24,3001           00012                           ADRES    LOKONSW
000878: 24,3002           04616                           TC       BANKCALL
000879: 24,3003           52466                           CADR     RRDESNB
000880: 24,3004           03005                           TC       +1
000881: 24,3005           04616                           TC       BANKCALL
000882: 24,3006           17713                           CADR     RADSTALL
000883: 24,3007           03043                           TC       R21-503                               #  BAD RETURN FROM DESIGNATE -ISSUE ALARM
000884: 24,3010           05515        R21LEM10           TC       UPFLAG
000885: 24,3011           00041                           ADRES    LOSCMFLG                              #  EVERY FOURTH PASS THRU DODES
000886: 24,3012           32366                           CAF      MAXTRIES                              #  ALLOW 60 PASSES (APPROX 45 SECONDS)
000887: 24,3013           55113                           TS       DESCOUNT                              #  TO DESIGNATE AND LOCK ON
000888: 24,3014           36257        R21LEM2            CAF      THREE
000889: 24,3015           55456                           TS       LOSCOUNT
000890: 24,3016           06051        R21LEM1            TC       INTPRET
000891: 24,3017           43234                           RTB      DAD
000892: 24,3020           21555                                    LOADTIME
000893: 24,3021           11204                                    HALFSEC                               #  EXTRAPOLATE TO PRESENT TIME + .5 SEC.
000894: 24,3022           34041                           STCALL   TDEC1                                 #  LOS DETERMINATION ROUTINE
000895: 24,3023           51340                                    LPS20.1
000896: 24,3024           77776                           EXIT
000897: 24,3025           05515        R21LEM3            TC       UPFLAG                                #  SET LOKONSW TO RADAR-ON DESIRED
000898: 24,3026           00012                           ADRES    LOKONSW
000899: 24,3027           05527                           TC       DOWNFLAG
000900: 24,3030           00126                           ADRES    NORRMON
000901: 24,3031           06051                           TC       INTPRET
000902: 24,3032           77624                           CALL                                           #  INPUT (RRTARGET UPDATED BY LPS20.1)
000903: 24,3033           52364                                    RRDESSM                               #  DESIGNATE ROUTINE
000904: 24,3034           77776                           EXIT
000905: 24,3035           03064                           TC       R21LEM4                               #  LOS NOT IN MODE 2 COVERAGE
000906:                                                                                                  #  ON LUNAR SURFACE
000907: 24,3036           02167                           TC       P20LEMA                               #  VEHICLE MANEUVER REQUIRED.
000908: 24,3037           04616                           TC       BANKCALL                              #  NO VEHICLE MANEUVER REQUIRED
000909: 24,3040           17713                           CADR     RADSTALL                              #  WAIT FOR DESIGNATE COMPLETE - LOCKON OR
000910: 24,3041           03043                           TC       +2                                    #  BADEND-LOCKON NOT ACHIEVED IN 60 TRIES
000911: 24,3042           03052                           TC       R21END                                #  EXIT ROUTINE RETURN TO P20 (LOCK-ON)
000912: 24,3043           33062        R21-503            CAF      ALRM503                               #  ISSUE ALARM 503
000913: 24,3044           04616                           TC       BANKCALL
000914: 24,3045           21544                           CADR     PRIOLARM
000915: 24,3046           06025                           TC       GOTOV56                               #  TERMINATE EXITS P20 VIA V56 CODING
000916: 24,3047           03057                           TC       R21SRCH                               #  PROC
000917: 24,3050           02267                           TC       P20LEMC3
000918: 24,3051           05155                           TC       ENDOFJOB
000919: 24,3052           05527        R21END             TC       DOWNFLAG
000920: 24,3053           00041                           ADRES    LOSCMFLG                              #  RESET LOSCMFLG
000921: 24,3054           02752                           TC       LUNSFCHK                              #  ARE WE ON LUNAR SURFACE
000922: 24,3055           02310                           TC       P20LEMWT                              #  YES - BYPASS V 50 N 72 DISPLAY
000923: 24,3056           03205                           TC       R21DISP                               #  PUT UP VERIFY MAIN LOBE LOCKON DISPLAY
000924: 24,3057           05364        R21SRCH            TC       PHASCHNG
000925: 24,3060           04022                           OCT      04022


000927: 24,3061           03272                           TC       R24LEM                                #  SEARCH ROUTINE
000928: 24,3062           00503        ALRM503            OCT      00503
000929: 24,3063           00527        ALRM527            OCT      527
000930:
000931:
000932: 24,3064           32366        R21LEM4            CAF      MAXTRIES                              #  SET UP COUNTER FOR
000933: 24,3065           55423                           TS       REPOSCNT                              #  60 PASSES (APPROX 600 SECS.)
000934: 24,3066           05515                           TC       UPFLAG
000935: 24,3067           00005                           ADRES    FSPASFLG                              #  SET FIRST TIME FLAG
000936: 24,3070           05527                           TC       DOWNFLAG                              #  RESET LOS BEING
000937: 24,3071           00041                           ADRES    LOSCMFLG                              #  COMPUTED FLAG
000938: 24,3072           06051                           TC       INTPRET
000939: 24,3073           77634        R21LEM12           RTB
000940: 24,3074           21555                                    LOADTIME
000941: 24,3075           77615        R21LEM00           DAD
000942: 24,3076           11202                                    TENSEC                                #  TIME T = T + 10 SECS.
000943: 24,3077           03425                           STORE    REPOSTM                               #  SAVE FOR LONGCALL AND UPPSV
000944: 24,3100           34041                           STCALL   TDEC1
000945: 24,3101           51340                                    LPS20.1                               #  COMPUTE LOS AT TIME T
000946: 24,3102           77624                           CALL
000947: 24,3103           52364                                    RRDESSM
000948: 24,3104           77776                           EXIT
000949: 24,3105           03117                           TC       R21LEM13                              #  LOS NOT IN MODE 2 COVERAGE
000950: 24,3106           05155                           TC       ENDOFJOB                              #  VEHICLE MANEUVER REQUIRED
000951: 24,3107           06032                           TC       KILLTASK
000952: 24,3110           52564                           CADR     BEGDES
000953: 24,3111           06051                           TC       INTPRET
000954: 24,3112           43014                           BOF      CLRGO
000955: 24,3113           00345                                    FSPASFLG                              #  FIRST TIME THRU REPOSITION
000956: 24,3114           51127                                    R21LEM8                               #  NO-GO TO CONTINUOUS DESIGNATE
000957: 24,3115           00225                                    FSPASFLG                              #  YES-RESET FIRST TIME FLAG
000958: 24,3116           51124                                    R21LEM50
000959: 24,3117           11423        R21LEM13           CCS      REPOSCNT                              #  HAVE WE TRIED 60 TIMES?
000960: 24,3120           03122                           TC       R21LEM7                               #  NO-ADD 10 SECS. RECOMPUTE LOS
000961: 24,3121           03171                           TC       R21LEM11                              #  YES-PUT OUT ALARM 530
000962: 24,3122           55423        R21LEM7            TS       REPOSCNT
000963: 24,3123           06051                           TC       INTPRET
000964: 24,3124           52145        R21LEM50           DLOAD    GOTO
000965: 24,3125           03425                                    REPOSTM
000966: 24,3126           51075                                    R21LEM00
000967: 24,3127           77745        R21LEM8            DLOAD
000968: 24,3130           03425                                    REPOSTM
000969: 24,3131           34041                           STCALL   TDEC1
000970: 24,3132           50374                                    UPPSV
000971: 24,3133           77776                           EXIT
000972: 24,3134           05515                           TC       UPFLAG                                #  SET RADMODES BIT 15 FOR
000973: 24,3135           00264                           ADRES    CDESFLAG                              #  CONTINUOUS DESIGNATION
000974: 24,3136           05527                           TC       DOWNFLAG
000975: 24,3137           00012                           ADRES    LOKONSW
000976: 24,3140           05515                           TC       UPFLAG


000978: 24,3141           00126                           ADRES    NORRMON
000979: 24,3142           04616                           TC       BANKCALL
000980: 24,3143           52466                           CADR     RRDESNB
000981: 24,3144           03145                           TC       +1
000982: 24,3145           06051                           TC       INTPRET
000983: 24,3146           44234                           RTB      BDSU
000984: 24,3147           21555                                    LOADTIME                              #  COMPUTE DELTA TIME
000985: 24,3150           03425                                    REPOSTM                               #  FOR LONGCALL
000986: 24,3151           03427                           STORE    DELTATM
000987: 24,3152           77776                           EXIT
000988: 24,3153           00006                           EXTEND
000989: 24,3154           31427                           DCA      DELTATM
000990: 24,3155           05310                           TC       LONGCALL
000991: 24,3156  E7,1456                                  EBANK=   LOSCOUNT
000992: 24,3156           03161 50067                     2CADR    R21LEM9
000993:
000994: 24,3160           05155                           TC       ENDOFJOB
000995: 24,3161           06032        R21LEM9            TC       KILLTASK
000996: 24,3162           52573                           CADR     STDESIG
000997: 24,3163           06011                           TC       CLRADMOD
000998: 24,3164           37726                           CAF      PRIO26
000999: 24,3165           05105                           TC       FINDVAC
001000: 24,3166  E7,1456                                  EBANK=   LOSCOUNT
001001: 24,3166           03010 50067                     2CADR    R21LEM10
001002:
001003: 24,3170           05272                           TC       TASKOVER
001004: 24,3171           33200        R21LEM11           CAF      ALRM530                               #  ALARM 530-LOS NOT IN COVERAGE
001005: 24,3172           04616                           TC       BANKCALL                              #  AFTER TRYING TO DESIGNATE FOR
001006: 24,3173           21544                           CADR     PRIOLARM                              #  600 SECS.
001007: 24,3174           06025                           TC       GOTOV56
001008: 24,3175           06025                           TC       GOTOV56
001009: 24,3176           06025                           TC       GOTOV56
001010: 24,3177           05155                           TC       ENDOFJOB
001011: 24,3200           00530        ALRM530            OCT      00530
001012: 24,3201           00000 01750  TENSEC             2DEC     1000       B-28
001013:
001014: 24,3203           00000 00062  HALFSEC            2DEC     50         B-28
001015:
001016: 24,3205           05364        R21DISP            TC       PHASCHNG
001017: 24,3206           04022                           OCT      04022
001018: 24,3207           33220                           CAF      V06N72PV                              #  FLASH V 50 N 72 - PLEASE PERFORM RR
001019: 24,3210           04616                           TC       BANKCALL                              #  MAIN LOBE LOCKON VERIFICATION
001020: 24,3211           20711                           CADR     GOPERF2R
001021: 24,3212           06025                           TC       GOTOV56                               #  TERMINATE EXITS VIA V 56
001022: 24,3213           02310                           TC       P20LEMWT                              #  PROCEED CONTINUES TO R22
001023: 24,3214           03207                           TC       -5                                    #  ENTER ILLEGAL
001024: 24,3215           34745                           CAF      BIT7
001025: 24,3216           05475                           TC       LINUS                                 #  SET BITS TO MAKE THIS A PRIORITY DISPLAY
001026: 24,3217           05155                           TC       ENDOFJOB


001028: 24,3220           01510        V06N72PV           VN       00672
001029:


001031:                                                                                                  #  MANUAL ACQUISITION ROUTINE R23LEM
001032:                                                                                                  #  PROGRAM DESCRIPTION
001033:                                                                                                  #  MOD NO - 2
001034:                                                                                                  #  BY P VOLANTE
001035:                                                                                                  #  FUNCTIONAL DESCRIPTION
001036:
001037:                                                                                                  #    TO ACQUIRE THE CSM BY MANUAL OPERATION OF THE RENDEZVOUS RADAR
001038:                                                                                                  #  CALLING SEQUENCE -
001039:                                                                                                  #           TC     R23LEM
001040:                                                                                                  #  SUBROUTINES CALLED
001041:                                                                                                  #    BANKCALL        R61LEM
001042:                                                                                                  #    SETMINDB        GOPERF1
001043:                                                                                                  #  NORMAL EXIT MODES -
001044:                                                                                                  #    IN RESPONSE TO THE GOPERF1 ,SELECTION OF ENTER WILL RECYCLE R23
001045:                                                                                                  #                               ,SELECTION OF PROC  WILL CONTINUE R23
001046:                                                                                                  #                               ,SELECTION OF TERM  WILL TERMINATE R23 +P20
001047:                                                                                                  #  ALARM OR ABORT EXIT MODES -
001048:                                                                                                  #    SEE NORMAL EXIT MODES ABOVE
001049:                                                                                                  #  OUTPUT
001050:                                                                                                  #    N.A.
001051:                                                                                                  #  ERASABLE INITIALIZATION REQUIRED-
001052:                                                                                                  #    ACMODFLG MUST BE SET TO 1 (MANUAL MODE)
001053: 24,3221     1142                                  EBANK=   GENRET
001054: 24,3221                                           COUNT*   $$/R23
001055: 24,3221           05515        R23LEM             TC       UPFLAG                                #  SET NO ANGLE MONITOR FLAG
001056: 24,3222           00126                           ADRES    NORRMON
001057: 24,3223           00004                           INHINT
001058: 24,3224           04674                           TC       IBNKCALL                              #  SELECT MINIMUM DEADBAND
001059: 24,3225           40141                           CADR     SETMINDB
001060: 24,3226           00003                           RELINT
001061: 24,3227           34736        R23LEM1            CAF      BIT14                                 #  ENABLE TRACKER
001062: 24,3230           00006                           EXTEND
001063: 24,3231           05012                           WOR      CHAN12
001064: 24,3232           33271                           CAF      OCT205
001065: 24,3233           04616                           TC       BANKCALL
001066: 24,3234           20624                           CADR     GOPERF1
001067: 24,3235           03262                           TC       R23LEM2                               #  TERMINATE
001068: 24,3236           03240                           TC       R23LEM11                              #  PROCEDE
001069: 24,3237           03265                           TC       R23LEM3                               #  ENTER- DO ANOTHER MANUVER
001070: 24,3240           00004        R23LEM11           INHINT
001071: 24,3241           04523                           TC       RRLIMCHK                              #  YES - CHECK IF ANTENNA IS WITHIN LIMITS
001072: 24,3242           00035                           ADRES    CDUT
001073: 24,3243           03252                           TC       OUTOFLIM                              #  NOT WITHIN LIMITS
001074: 24,3244           04674                           TC       IBNKCALL                              #  RESTORE DEADBAND TO
001075: 24,3245           40115                           CADR     RESTORDB                              #  ASTRONAUT SELECTED VALUE
001076: 24,3246           00003                           RELINT
001077: 24,3247           05527                           TC       DOWNFLAG                              #  CLEAR NO ANGLE MONITOR FLAG
001078: 24,3250           00126                           ADRES    NORRMON
001079: 24,3251           02241                           TC       P20LEMB1                              #  RADAR IS LOCKED ON CONTINUE IN P20
001080: 24,3252           00003        OUTOFLIM           RELINT


001082: 24,3253           33270                           CAF      OCT501PV
001083: 24,3254           04616                           TC       BANKCALL                              #  ISSUE ALARM - RR ANTENNA NOT WITHIN
001084: 24,3255           21544                           CADR     PRIOLARM                              #  LIMITS
001085: 24,3256           03262                           TC       R23LEM2                               #  TERMINATE - EXIT R23 TO R00 (GO TO POOH)
001086: 24,3257           03253                           TC       OUTOFLIM   +1                         #  PROCEED ILLEGAL
001087: 24,3260           03265                           TC       R23LEM3                               #  RECYCLE- DO ANOTHER MANUVER
001088: 24,3261           05155                           TC       ENDOFJOB
001089: 24,3262           05527        R23LEM2            TC       DOWNFLAG                              #  CLEAR NO ANGLE MONITOR FLAG
001090: 24,3263           00126                           ADRES    NORRMON
001091: 24,3264           06025                           TC       GOTOV56                               #  AND EXIT VIA V56
001092: 24,3265           04616        R23LEM3            TC       BANKCALL
001093: 24,3266           46116                           CADR     R61LEM
001094: 24,3267           03227                           TC       R23LEM1
001095:
001096:
001097: 24,3270           00501        OCT501PV           OCT      501
001098: 24,3271           00205        OCT205             OCT      205
001099:


001101:                                                                                                  #  SEARCH ROUTINE R24LEM
001102:                                                                                                  #  PROGRAM DESCRIPTION
001103:                                                                                                  #  MOD NO - 2
001104:                                                                                                  #  BY  P. VOLANTE
001105:                                                                                                  #  FUNCTIONAL DESCRIPTION
001106:
001107:                                                                                                  #    TO ACQUIRE THE CSM BY A SEARCH PATTERN WHEN THE RENDEZVOUS RADAR HAS
001108:                                                                                                  #  FAILED TO ACQUIRE THE CSM IN THE AUTOMATIC TRACKING MODE AND TO ALLOW
001109:                                                                                                  #  THE ASTRONAUT TO CONFIRM THAT REACQUISITION HAS NOT BEEN BY SIDELOBE.
001110:                                                                                                  #  CALLING SEQUENCE
001111:                                                                                                  #           CAF    PRIONN
001112:                                                                                                  #           TC     FINDVAC
001113:                                                                                                  #           EBANK= DATAGOOD
001114:                                                                                                  #           2CADR  R24LEM
001115:                                                                                                  #  SUBROUTINES CALLED
001116:                                                                                                  #    FLAGUP        FLAGDOWN      BANKCALL
001117:                                                                                                  #    R61LEM        GOFLASHR      FINDVAC
001118:                                                                                                  #    ENDOFJOB      NOVAC         LSR24.1
001119:                                                                                                  #  NORMAL EXIT MODES-
001120:                                                                                                  #    ASTRONAUT RESPONSE TO DISPLAY OF OMEGA AND DATAGOOD.HE CAN EITHER
001121:                                                                                                  #  REJECT BY TERMINATING (SEARCH OPTION AND RESELECTING P20) OR ACCEPT BY
001122:                                                                                                  #  PROCEEDING (EXIT ROUTINE AND RETURN TO AUTO MODE IN P20)
001123:                                                                                                  #  ALARM OR ABORT EXIT MODES-
001124:                                                                                                  #    SEE NORMAL EXIT MODES ABOVE
001125:                                                                                                  #  OUTPUT -
001126:                                                                                                  #    SEE OUTPUT FROM LSR24.1 + R61LEM
001127:                                                                                                  #  ERASABLE INITIALIZATION REQUIRED
001128:                                                                                                  #    SEE INPUT FOR LSR24.1
001129:                                                                                                  #  FLAGS SET + RESET
001130:                                                                                                  #    SRCHOPT,ACMODFLG
001131: 24,3272  E7,1733                                  EBANK=   DATAGOOD
001132: 24,3272                                           COUNT*   $$/R24
001133: 24,3272           05515        R24LEM             TC       UPFLAG
001134: 24,3273           00037                           ADRES    SRCHOPTN                              #  SET SRCHOPT FLAG
001135: 24,3274           05527                           TC       DOWNFLAG                              #  RESET LOS BEING COMPUTED FLAG TO MAKE
001136: 24,3275           00041                           ADRES    LOSCMFLG                              #  SURE DODES DOESN'T GO TO R21
001137: 24,3276           34755        R24LEM1            CAF      ZERO
001138: 24,3277           55733                           TS       DATAGOOD                              #  ZERO OUT DATA INDICATOR
001139: 24,3300           55734                           TS       OMEGAD                                #  ZERO OMEGA DISPLAY REGS
001140: 24,3301           55735                           TS       OMEGAD     +1                         #  ZERO OMEGA DISPLAY REGS
001141: 24,3302           05364        R24LEM2            TC       PHASCHNG
001142: 24,3303           04022                           OCT      04022
001143: 24,3304           33337                           CAF      V16N80
001144: 24,3305           04616                           TC       BANKCALL
001145: 24,3306           20505                           CADR     PRIODSPR
001146: 24,3307           06025                           TC       GOTOV56
001147: 24,3310           03314                           TC       R24END                                #  PROCEED EXIT R24 TO P20LEM1
001148:
001149:
001150: 24,3311           03320                           TC       R24LEM3                               #  RECYCLE - CALL R61 TO MANEUVER S/C


001152: 24,3312           04616                           TC       BANKCALL
001153: 24,3313           55444                           CADR     LRS24.1
001154: 24,3314           06032        R24END             TC       KILLTASK
001155: 24,3315           55645                           CADR     CALLDGCH
001156: 24,3316           06011                           TC       CLRADMOD                              #  CLEAR BITS 10 & 15 OF RADMODES.
001157: 24,3317           12065                           TCF      P20LEM1                               #  AND GO TO 400 MI. RANGE CHECK IN P20.
001158:
001159:    6011                                           BLOCK    3
001160:    6000                                           SETLOC   FFTAG6
001161:    6000                                           BANK
001162:    6011                                           COUNT*   $$/R24
001163:
001164:    6011           46021        CLRADMOD           CS       BIT10+15
001165:    6012           00004                           INHINT
001166:    6013           70110                           MASK     RADMODES
001167:    6014           54110                           TS       RADMODES
001168:    6015           44752                           CS       BIT2                                  #  DISABLE RR ERROR COUNTERS
001169:    6016           00006                           EXTEND
001170:    6017           03012                           WAND     CHAN12                                #  USER WILL RELINT
001171:
001172:    6020           00002                           TC       Q
001173:
001174:
001175:    6021           41000        BIT10+15           OCT      41000
001176: 24,3320                                           BANK     24
001177: 24,2000                                           SETLOC   P20S
001178: 24,2000                                           BANK
001179: 24,3320                                           COUNT*   $$/R24
001180:
001181: 24,3320           05364        R24LEM3            TC       PHASCHNG
001182: 24,3321           04022                           OCT      04022
001183: 24,3322           06032                           TC       KILLTASK
001184: 24,3323           55645                           CADR     CALLDGCH                              #  KILL WAITLIST FOR NEXT POINT IN PATTERN
001185: 24,3324           06011                           TC       CLRADMOD                              #  CLEAR BITS 10 + 15 OF RADMODES
001186: 24,3325           34774                           CAF      .5SEC
001187: 24,3326           04616                           TC       BANKCALL                              #  WAIT FOR DESIGNATE LOOP TO DIE
001188: 24,3327           01736                           CADR     DELAYJOB
001189: 24,3330           02752                           TC       LUNSFCHK                              #  CHECK IF ON LUNAR SURFACE
001190: 24,3331           03334                           TC       R24LEM4                               #  YES-DONT DO ATTITUDE MANEUVER
001191: 24,3332           04616                           TC       BANKCALL                              #  CALL R61 TO DO PREFERRED TRACKING
001192: 24,3333           46116                           CADR     R61LEM                                #  ATTITUDE MANEUVER
001193: 24,3334           34755        R24LEM4            CAF      ZERO                                  #  ZERO OUT RADCADR (WHICH WAS SET BY
001194: 24,3335           55303                           TS       RADCADR                               #  ENDRADAR WHEN DESIGNATE STOPPED) SO THAT
001195:                                                                                                  #  RRDESSM  WILL RETURN TO CALLER
001196: 24,3336           03302                           TC       R24LEM2                               #  AND GO BACK TO PUT UP V16 N80 DISPLAY
001197:
001198:
001199: 24,3337           04120        V16N80             VN       01680
001200:


001202:                                                                                                  #  PREFERRED TRACKING ATTITUDE ROUTINE R61LEM
001203:                                                                                                  #  PROGRAM DESCRIPTION
001204:                                                                                                  #  MOD NO : 3                      DATE : 4-11-67
001205:                                                                                                  #  MOD BY : P VOLANTE  SDC
001206:
001207:
001208:                                                                                                  #  FUNCTIONAL DESCRIPTION-
001209:                                                                                                  #    TO COMPUTE THE PREFERRED TRACKING ATTITUDE OF THE LM TO ENABLE RR
001210:                                                                                                  #  TRACKING OF THE CSM AND TO PERFORM THE MANEUVER TO THE PREFERRED
001211:                                                                                                  #  ATTITUDE.
001212:                                                                                                  #  CALLING SEQUENCE-
001213:                                                                                                  #           TC     BANKCALL
001214:                                                                                                  #           CADR   R61LEM
001215:                                                                                                  #  SUBROUTINES CALLED
001216:                                                                                                  #      LPS20.1       VECPOINT
001217:                                                                                                  #      KALCMAN3
001218:
001219:
001220:                                                                                                  #  NORMAL EXIT MODES-
001221:                                                                                                  #    NORMAL RETURN IS TO CALLER + 1
001222:                                                                                                  #  ALARM OR ABORT EXIT MODES-
001223:                                                                                                  #    TERMINATE P20 + R61 BY BRANCHING TO P20END IF BOTH TRACKFLAG +
001224:                                                                                                  #  RENDEZVOUS FLAG ARE NOT SET.
001225:                                                                                                  #  OUTPUT -
001226:                                                                                                  #    SEE OUTPUT FOR LPS20.1 + ATTITUDE MANEUVER ROUTINE (R60)
001227:                                                                                                  #  ERASABLE INITIALIZATION REQUIRED
001228:                                                                                                  #    GENRET USED TO SAVE Q FOR RETURN
001229:                                                                                                  #  FLAGS SET + RESET
001230:                                                                                                  #    3AXISFLG
001231:                                                                                                  #  DEBRIS
001232:                                                                                                  #    SEE SUBROUTINES
001233: 23,2000                                           SETLOC   R61
001234: 23,2000                                           BANK
001235: 23,2116  E7,1456                                  EBANK=   LOSCOUNT
001236: 23,2116                                           COUNT*   $$/R61
001237: 23,2116           04645        R61LEM             TC       MAKECADR
001238: 23,2117           55142                           TS       GENRET
001239: 23,2120           05515                           TC       UPFLAG                                #  SET R61 FLAG
001240: 23,2121           00024                           ADRES    R61FLAG
001241: 23,2122           02150                           TC       R61C+L02
001242: 23,2123           04645        R65LEM             TC       MAKECADR
001243: 23,2124           55142                           TS       GENRET
001244: 23,2125           05527                           TC       DOWNFLAG                              #  RESET R61 FLAG
001245: 23,2126           00024                           ADRES    R61FLAG
001246: 23,2127           34736                           CA       BIT14                                 #  RESET AGS CODE WORD (=20000).  DON'T USE
001247: 23,2130           55073                           TS       AGSCODE                               #    PGNCS DOWNLINKED RADAR DATA.
001248: 23,2131           34750        R61C+L01           CAF      BIT4                                  #  BYPASS RADAR READING IF DATA
001249: 23,2132           00006                           EXTEND                                         #  GOOD NOT PRESENT
001250: 23,2133           02033                           RAND     CHAN33
001251: 23,2134           10000                           CCS      A


001253: 23,2135           12150                           TCF      R61C+L02                              #  NO DATA GOOD
001254: 23,2136           04616                           TC       BANKCALL                              #  READ RR RANGE AND RDOT
001255: 23,2137           53070                           CADR     RRRDOT                                #   EVERY R65 PASS (3 TIMES
001256: 23,2140           04616                           TC       BANKCALL                              #   BEFORE FIRST MARK, ONCE
001257: 23,2141           17713                           CADR     RADSTALL                              #   DURING ANY MARK PROCESSING,
001258: 23,2142           12143                           NOOP
001259: 23,2143           04616                           TC       BANKCALL
001260: 23,2144           53072                           CADR     RRRANGE
001261: 23,2145           04616                           TC       BANKCALL
001262: 23,2146           17713                           CADR     RADSTALL
001263: 23,2147           12150                           NOOP
001264: 23,2150           34747        R61C+L02           CAF      TRACKBIT                              #  TRACKFLAG
001265: 23,2151           70075                           MASK     STATE      +1
001266: 23,2152           00006                           EXTEND
001267: 23,2153           12312                           BZF      R65WAIT                               #  NOT SET
001268: 23,2154           06051        R61C+L03           TC       INTPRET
001269: 23,2155           77775                           VLOAD
001270: 23,2156           06512                                    HIUNITZ
001271: 23,2157           03765                           STORE    SCAXIS                                #  TRACK AXIS UNIT VECTOR
001272: 23,2160           43234        R61LEM1            RTB      DAD
001273: 23,2161           21555                                    LOADTIME                              #  EXTRAPOLATE FORWARD TO CENTER
001274: 23,2162           15714                                    3SECONDS                              #  SIX SECOND PERIOD.
001275: 23,2163           34041                           STCALL   TDEC1
001276: 23,2164           51340                                    LPS20.1                               #  LOS DETERMINATION + VEH ATTITUDE
001277: 23,2165           77775                           VLOAD
001278: 23,2166           01101                                    RRTARGET
001279: 23,2167           03773                           STORE    POINTVSM
001280: 23,2170           45034                           RTB      CALL                                  #     GET DESIRED CDU'S FOR VECPNT1
001281: 23,2171           46320                                    READCDUD
001282: 23,2172           56032                                    VECPNT1                               #  COMPUTES FINAL ANGLES FROM PRESENT CDUDS
001283: 23,2173           00322                           STORE    CPHI                                  #  STORE FINAL ANGLES - CPHI,CTHETA,CPSI
001284: 23,2174           77776                           EXIT
001285: 23,2175           05364                           TC       PHASCHNG
001286: 23,2176           04022                           OCT      04022
001287: 23,2177           34747                           CAF      TRACKBIT                              #   IS TRACK FLAG SET
001288: 23,2200           70075                           MASK     FLAGWRD1
001289: 23,2201           00006                           EXTEND
001290: 23,2202           12312                           BZF      R65WAIT
001291: 23,2203           04616                           TC       BANKCALL
001292: 23,2204           54263                           CADR     G+N,AUTO                              #  CHECK FOR AUTO MODE
001293: 23,2205           10000                           CCS      A
001294: 23,2206           02300                           TC       R61C+L04                              #  NOT IN AUTO
001295: 23,2207           06051                           TC       INTPRET
001296: 23,2210           45175                           VLOAD    CALL
001297: 23,2211           01101                                    RRTARGET
001298: 23,2212           47653                                    CDU*SMNB
001299: 23,2213           45345                           DLOAD    DSU                                   #  GET PHI - ARCCOS OF Z-COMPONENT OF LOS
001300: 23,2214           00162                                    MPAC       +5
001301: 23,2215           06316                                    COS15DEG
001302: 23,2216           77440        R61LEM2            BMN      EXIT                                  #  BRANCH - PHI > 15 DEGREES


001304: 23,2217           46234                                    R61C+L05                              #  PHI GRE 10DEG
001305: 23,2220  E6,1634                                  EBANK=   CDUXD
001306: 23,2220           35015                           CAF      EBANK6
001307: 23,2221           54003                           TS       EBANK
001308: 23,2222           00004                           INHINT
001309: 23,2223           00006                           EXTEND
001310: 23,2224           30322                           DCA      CPHI
001311: 23,2225           53635                           DXCH     CDUXD
001312: 23,2226           30323                           CA       CPSI
001313: 23,2227           55636                           TS       CDUZD
001314: 23,2230           00003                           RELINT
001315: 23,2231  E7,1456                                  EBANK=   LOSCOUNT
001316: 23,2231           35016                           CAF      EBANK7
001317: 23,2232           54003                           TS       EBANK
001318: 23,2233           02257                           TC       R61C+L06
001319: 23,2234           77776        R61C+L05           EXIT
001320: 23,2235           00004                           INHINT
001321: 23,2236           04674                           TC       IBNKCALL
001322: 23,2237           40154                           FCADR    ZATTEROR
001323: 23,2240           04674                           TC       IBNKCALL
001324: 23,2241           40141                           FCADR    SETMINDB                              #  REDUCE ATTITUDE ERROR
001325: 23,2242           05527                           TC       DOWNFLAG
001326: 23,2243           00124                           ADRES    3AXISFLG
001327: 23,2244           05515                           TC       UPFLAG
001328: 23,2245           00077                           ADRES    PDSPFLAG                              #  SET PRIORITY DISPLAY FLAG
001329: 23,2246           04616                           TC       BANKCALL
001330: 23,2247           54125                           CADR     R60LEM
001331: 23,2250           00004                           INHINT
001332: 23,2251           04674                           TC       IBNKCALL
001333: 23,2252           40115                           FCADR    RESTORDB
001334: 23,2253           05364                           TC       PHASCHNG
001335: 23,2254           04022                           OCT      04022
001336: 23,2255           05527                           TC       DOWNFLAG
001337: 23,2256           00077                           ADRES    PDSPFLAG                              #  RESET PRIORITY DISPLAY FLAG
001338: 23,2257           30075        R61C+L06           CA       FLAGWRD1
001339: 23,2260           74742                           MASK     R61FLBIT
001340: 23,2261           10000                           CCS      A
001341: 23,2262           02303                           TC       R61C+L4
001342: 23,2263           11745                           CCS      R65CNTR
001343: 23,2264           02266                           TC       +2
001344: 23,2265           02303                           TC       R61C+L4                               #  R65CNTR = 0 - EXIT ROUTINE
001345: 23,2266           55745                           TS       R65CNTR
001346: 23,2267           32317                           CAF      06SEC
001347: 23,2270           05204                           TC       TWIDDLE
001348: 23,2271           02273                           ADRES    R61C+L2
001349: 23,2272           05155                           TC       ENDOFJOB
001350: 23,2273           37726        R61C+L2            CAF      PRIO26
001351: 23,2274           05105                           TC       FINDVAC
001352: 23,2275  E7,1456                                  EBANK=   LOSCOUNT
001353: 23,2275           02131 46067                     2CADR    R61C+L01
001354:


001356: 23,2277           05272                           TC       TASKOVER
001357: 23,2300           04616        R61C+L04           TC       BANKCALL                              #  TO CONVERT ANGLES TO FDAI
001358: 23,2301           54274                           CADR     BALLANGS
001359: 23,2302           02257                           TC       R61C+L06
001360: 23,2303           31142        R61C+L4            CAE      GENRET
001361: 23,2304           14640                           TCF      BANKJUMP                              #  EXIT R61
001362: 23,2305           32314        R61C+L1            CAF      BIT7+9PV                              #  IS RENDEZVOUS OR P25FLAG SET
001363: 23,2306           70074                           MASK     STATE
001364: 23,2307           00006                           EXTEND
001365: 23,2310           15155                           BZF      ENDOFJOB                              #  NO-EXIT ROUTINE AND PROGRAM.
001366: 23,2311           02257                           TC       R61C+L06                              #  YES EXIT ROUTINE
001367: 23,2312           04635        R65WAIT            TC       POSTJUMP
001368: 23,2313           50310                           CADR     P20LEMWT
001369:
001370:
001371: 23,2314           00500        BIT7+9PV           OCT      00500
001372: 23,2315           17350 34602  COS15DEG           2DEC     0.96593    B-1
001373:
001374: 23,2317           01130        06SEC              DEC      600        B-14
001375: 23,2320                        PHI                EQUALS   20D
001376: 23,2320           00004        READCDUD           INHINT                                         #  READS DESIRED CDU'S AND STORES IN
001377: 23,2321           35015                           CAF      EBANK6                                #  MPAC TP EXITS WITH MODE SET TO TP
001378: 23,2322           56003                           XCH      EBANK
001379: 23,2323           54070                           TS       RUPTREG1
001380: 23,2324  E6,1634                                  EBANK=   CDUXD
001381: 23,2324           31634                           CA       CDUXD
001382: 23,2325           54154                           TS       MPAC
001383: 23,2326           00006                           EXTEND
001384: 23,2327           31636                           DCA      CDUYD
001385: 23,2330           52156                           DXCH     MPAC       +1
001386: 23,2331           30070                           CA       RUPTREG1
001387: 23,2332           54003                           TS       EBANK
001388: 23,2333           00003                           RELINT
001389: 23,2334           16511                           TCF      TMODE
001390:    4512                                           BLOCK    02
001391:    4000                                           SETLOC   RADARFF
001392:    4000                                           BANK
001393:
001394:    4512  E7,1456                                  EBANK=   LOSCOUNT
001395:    4512                                           COUNT*   $$/RRSUB
001396:


001398:                                                                                                  #  THE FOLLOWING SUBROUTINE RETURNS TO CALLER + 2 IF THE ABSOLUTE VALUE OF VALUE OF C(A) IS GREATER THAN THE
001399:                                                                                                  #  NEGATIVE OF THE NUMBER AT CALLER +1. OTHERWISE IT RETURNS TO CALLER +3. MAY BE CALLED IN RUPT OR UNDER EXEC.
001400:
001401:    4512           00006        MAGSUB             EXTEND
001402:    4513           64515                           BZMF     +2
001403:    4514           14516                           TCF      +2
001404:    4515           40000                           COM
001405:
001406:    4516           50002                           INDEX    Q
001407:    4517           60000                           AD       0
001408:    4520           00006                           EXTEND
001409:    4521           66753                           BZMF     Q+2                                   #  ABS(A) <= CONST GO TO L+3
001410:    4522           16751                           TCF      Q+1                                   #  ABS(A) >  CONST GO TO L+2
001411:


001413:                                                                                                  #  PROGRAM NAME_  RRLIMCHK                                                  ARE IN THE LIMITS OF THE CURRENT MODE.
001414:
001415:                                                                                                  #  FUNCTIONAL DESCRIPTION_
001416:                                                                                                  #  RRLIMCHK CHECKS RR DESIRED GIMBAL ANGLES TO SEE IF THEY ARE WITHIN
001417:                                                                                                  #  THE LIMITS OF THE CURRENT MODE. INITIALLY THE DESIRED TRUNNION AND
001418:                                                                                                  #  SHAFT ANGLES ARE STORED IN ITEMP1 AND ITEMP2. THE CURRENT RR
001419:                                                                                                  #  ANTENNAE MODE (RADMODES BIT 12) IS CHECKED WHICH IS = 0 FOR
001420:                                                                                                  #  MODE 1 AND =1 FOR MODE 2.
001421:                                                                                                  #  MODE 1 - THE TRUNNION ANGLE IS CHECKED AT MAGSUB TO SEE IF IT IS
001422:                                                                                                  #  BETWEEN -55 AND +55 DEGREES. IF NOT, RETURN TO L +2. IF WITHIN LIMITS,
001423:                                                                                                  #  THE SHAFT ANGLE IS CHECKED TO SEE IF IT IS BETWEEN -70 AND +59 DEGREES.
001424:                                                                                                  #  IF NOT, RETURN TO L +2. IF IN LIMITS, RETURN TO L +3.
001425:                                                                                                  #  MODE 2 - THE SHAFT ANGLE IS CHECKED AT MAGSUB TO SEE IF IT IS
001426:                                                                                                  #  BETWEEN -139 AND -25 DEGREES. IF NOT, RETURN TO L +2. IF WITHIN
001427:                                                                                                  #  LIMITS, THE TRUNNION ANGLE IS CHECKED TO SEE IF IT IS BETWEEN +125
001428:                                                                                                  #  AND -125 (+235) DEGREES. IF NOT, RETURN TO L +2. IF IN LIMITS, RETURN
001429:                                                                                                  #  TO L +3.
001430:
001431:                                                                                                  #  CALLING SEQUENCE:
001432:                                                                                                  #  L  TC  RRLIMCHK (WITH INTERRUPT INHIBITED)
001433:                                                                                                  #  L +1  ADRES T,S   (DESIRED TRUNNION ANGLE ADDRESS)
001434:
001435:                                                                                                  #  ERASABLE INITIALIZATION REQUIRED:
001436:                                                                                                  #  RADMODES, MODEA, MODEB (OR DESIRED TRUNNION AND SHAFT
001437:                                                                                                  #  ANGLES ELSEWHERE IN CONSECUTIVE LOCATIONS - UNSWITCHED ERASABLE OR
001438:                                                                                                  #  CURRENT EBANK).
001439:
001440:                                                                                                  #  SUBROUTINES CALLED_  MAGSUB
001441:
001442:                                                                                                  #  JOBS OR TASKS INITIATED_  NONE
001443:
001444:                                                                                                  #  ALARMS_  NONE
001445:
001446:                                                                                                  #  EXIT_  L + 2 (EITHER OR BOTH ANGLES NOT WITHIN LIMITS OF CURRENT MODE)
001447:                                                                                                  #  L + 3 (BOTH ANGLES WITHIN LIMITS OF CURRENT MODE)
001448:
001449:    4523           00006        RRLIMCHK           EXTEND
001450:    4524           50002                           INDEX    Q
001451:    4525           50000                           INDEX    0
001452:    4526           30001                           DCA      0
001453:    4527           24002                           INCR     Q
001454:    4530           52062                           DXCH     ITEMP1
001455:    4531           22002                           LXCH     Q                                     #  L(CALLER +2) TO L.
001456:
001457:    4532           34740                           CAF      ANTENBIT                              #  SEE WHICH MODE RR IS IN.
001458:    4533           70110                           MASK     RADMODES
001459:    4534           10000                           CCS      A
001460:    4535           14550                           TCF      MODE2CHK
001461:
001462:    4536           30061                           CA       ITEMP1                                #  MODE 1 IS DEFINED AS


001464:    4537           04512                           TC       MAGSUB                                #      1. ABS(T) L 55 DEGS.
001465:    4540           66161                           DEC      -.30555                               #      2. ABS(S + 5.5 DEGS) L 64.5 DEGS
001466:    4541           00001                           TC       L                                     #          (SHAFT LIMITS AT +59, -70 DEGS)
001467:
001468:    4542           34562                           CAF      5.5DEGS
001469:    4543           60062                           AD       ITEMP2                                #  S
001470:    4544           04512                           TC       MAGSUB
001471:    4545           64420                           DEC      -.35833                               #  64.5 DEGS
001472:    4546           00001                           TC       L
001473:    4547           04560                           TC       RRLIMOK                               #  IN LIMITS.
001474:
001475:    4550           34563        MODE2CHK           CAF      82DEGS                                #  MODE 2 IS DEFINED AS
001476:    4551           60062                           AD       ITEMP2                                #      1. ABS(T) G 125 DEGS.
001477:    4552           04512                           TC       MAGSUB                                #      2. ABS(S + 82 DEGS) L 57 DEGS
001478:    4553           65673                           DEC      -.31667                               #          (SHAFT LIMITS AT -25, -139 DEGS)
001479:    4554           00001                           TC       L
001480:
001481:    4555           30061                           CA       ITEMP1
001482:    4556           04512                           TC       MAGSUB
001483:    4557           51615                           DEC      -.69444                               #  125 DEGS
001484:
001485:    4560           50001        RRLIMOK            INDEX    L
001486:    4561           00001                           TC       L                                     #  ( = TC 1)
001487:
001488:    4562           00765        5.5DEGS            DEC      .03056
001489:    4563           16450        82DEGS             DEC      .45556
001490:


001492:                                                                                                  #  PROGRAM NAME_  SETTRKF                                                  . IF EITHER:
001493:
001494:                                                                                                  #  FUNCTIONAL DESCRIPTION_
001495:                                                                                                  #  SETTRKF UPDATES THE TRACKER FAIL LAMP ON THE DSKY.                      HER THE ALT OR VEL INFORMATION.
001496:                                                                                                  #  INITIALLY THE LAMP TEST FLAG (IMODES33 BIT 1) IS CHECKED.
001497:                                                                                                  #  IF A LAMP TEST IS IN PROGRESS, THE PROGRAM EXITS TO L +1.
001498:                                                                                                  #  IF NO LAMP TEST THE FOLLOWING IS CHECKED SEQUENTIALLY_
001499:                                                                                                  #  1) RR CDU:S BEING ZEROED, RR CDU OK, AND RR NOT IN
001500:                                                                                                  #  AUTO MODE (RADMODES BITS 13, 7, 2).
001501:                                                                                                  #  2) LR VEL DATA FAIL AND NO LR POS DATA (RADMODES BITS
001502:                                                                                                  #  8,5)
001503:                                                                                                  #  3) NO RR DATA (RADMODES BIT 4)
001504:                                                                                                  #  THE ABSENCE OF ALL THREE SIMULTANEOUSLY IN (1), THE PRESENCE OF BOTH
001505:                                                                                                  #  IN (2), AND THE PRESENCE OF (3) RESULTS IN EITHER THE TRACKER FAIL
001506:                                                                                                  #  LAMP (DSPTAB +11D BIT 8) BEING TURNED ON OR LEFT ON. OTHERWISE,
001507:                                                                                                  #  THE TRACKER FAIL LAMP IS TURNED OFF OR IS LEFT OFF. THEREFORE, THE
001508:                                                                                                  #  TRACKER FAIL LAMP IS TURNED ON IF_
001509:                                                                                                  #  A ) RR CDU FAILED WITH RR IN AUTO MODE AND RR CDU:S NOT BEING ZEROED.
001510:                                                                                                  #  B) N SAMPLES OF LR DATA COULD NOT BE TAKEN IN 2N TRIES WITH
001511:                                                                                                  #  EITHER THE ALT OR VEL INFORMATION
001512:                                                                                                  #  C) N SAMPLES OF RR DATA COULD NOT BE OBTAINED FROM 2N TRIES
001513:                                                                                                  #  WITH EITHER THE AL
001514:
001515:                                                                                                  #  CALLING SEQUENCE:
001516:                                                                                                  #  L  TC  SETTRKF
001517:
001518:                                                                                                  #  ERASABLE INITIALIZATION REQUIRED: IMODES33, RADMODES, DSPTAB +11D
001519:                                                                                                  #  SUBROUTINES CALLED_  NONE
001520:
001521:                                                                                                  #  JOBS OR TASKS INITIATED_  NONE
001522:
001523:                                                                                                  #  ALARMS_  TRACKER FAIL LAMP
001524:
001525:                                                                                                  #  EXIT_  L +1 (ALWAYS)                                                         ED.
001526:
001527:    4564           34753        SETTRKF            CAF      BIT1                                  #  NO ACTION IF DURING LAMP TEST.
001528:    4565           71300                           MASK     IMODES33
001529:    4566           10000                           CCS      A
001530:    4567           00002                           TC       Q
001531:
001532:    4570           34744        RRTRKF             CA       BIT8
001533:    4571           54001                           TS       L
001534:
001535:    4572           34615                           CAF      13,7,2                                #  SEE IF CDU FAILED.
001536:    4573           70110                           MASK     RADMODES
001537:    4574           00006                           EXTEND
001538:    4575           14601                           BZF      TRKFLON                               #  CONDITION 3 ABOVE.
001539:
001540:    4576           34750        RRCHECK            CAF      RRDATABT                              #  SEE IF RR DATA FAILED.
001541:    4577           70110                           MASK     RADMODES


001543:    4600           10000                           CCS      A
001544:    4601           30001        TRKFLON            CA       L
001545:    4602           61035                           AD       DSPTAB     +11D                       #  HALF ADD DESIRED AND PRESENT STATES.
001546:    4603           70001                           MASK     L
001547:    4604           00006                           EXTEND
001548:    4605           16754                           BZF      TCQ                                   #  NO CHANGE.
001549:
001550:    4606           31035        FLIP               CA       DSPTAB     +11D                       #  CANT USE LXCH DSPTAB +11D (RESTART PROB)
001551:    4607           00006                           EXTEND
001552:    4610           06001                           RXOR     LCHAN
001553:    4611           74733                           MASK     POSMAX
001554:    4612           64735                           AD       BIT15
001555:    4613           55035                           TS       DSPTAB     +11D
001556:    4614           00002                           TC       Q
001557:
001558:    4615           10102        13,7,2             OCT      10102
001559:    4616                        ENDRMODF           EQUALS
001560:


001562:                                                                                                  #  PROGRAM NAME_  RRTURNON
001563:
001564:                                                                                                  #  FUNCTIONAL DESCRIPTION_
001565:
001566:                                                                                                  #  RRTURNON IS THE TURN-ON SEQUENCE WHICH, ALONG WITH
001567:                                                                                                  #  RRZEROSB, ZEROS THE CDU:S AND DETERMINES THE RR MODE.
001568:                                                                                                  #  INITIALLY, CONTROL IS TRANSFERRED TO RRZEROSB FOR THE
001569:                                                                                                  #  ACTUAL TURN-ON SEQUENCE. UPON RETURN THE PROGRAM
001570:                                                                                                  #  WAITS 1 SECOND BEFORE REMOVING THE TURN-ON FLAG
001571:                                                                                                  #  (RADMODES BIT1) SO THE REPOSITION ROUTINE WON:T
001572:                                                                                                  #  INITIATE PROGRAM ALARM 00501. A CHECK IS THEN MADE
001573:                                                                                                  #  TO SEE IF A PROGRAM IS USING THE RR (STATE BIT 7). IF
001574:                                                                                                  #  SO, THE PROGRAM EXITS TO ENDRADAR SO THAT THE RR CDU
001575:                                                                                                  #  FAIL FLAG (RADMODES BIT 7) CAN BE CHECKED BEFORE
001576:                                                                                                  #  RETURNING TO THE WAITING PROGRAM. IF NOT, THE PROGRAM EXITS
001577:                                                                                                  #  TO TASKOVER.
001578:
001579:                                                                                                  #  CALLING SEQUENCE: WAITLIST TASK FROM RRAUTCHK IF THE RR POWER ON AUTO
001580:                                                                                                  #  BIT (CHAN 33 BIT 2) CHANGES TO 0 AND NO PROGRAM WAS USING
001581:                                                                                                  #  THE RR (STATE BIT 7).
001582:
001583:                                                                                                  #  ERASABLE INITIALIZATION REQUIRED:
001584:                                                                                                  #  RADMODES, STATE
001585:
001586:                                                                                                  #  SUBROUTINES CALLED_  RRZEROSB, FIXDELAY, TASKOVER, ENDRADAR
001587:
001588:                                                                                                  #  JOBS OR TASKS INITIATED_
001589:                                                                                                  #  NONE
001590:
001591:                                                                                                  #  ALARMS_  NONE (SEE RRZEROSB)
001592:
001593:                                                                                                  #  EXIT_  TASKOVER, ENDRADAR (WAITING PROGRAM)
001594:
001595: 24,3340                                           BANK     24
001596: 25,2000                                           SETLOC   P20S1
001597: 25,2000                                           BANK
001598:
001599: 25,2053  E7,1456                                  EBANK=   LOSCOUNT
001600: 25,2053                                           COUNT*   $$/RSUB
001601: 25,2053           02062        RRTURNON           TC       RRZEROSB
001602: 25,2054           05232                           TC       FIXDELAY                              #  WAIT 1 SEC BEFORE REMOVING TURN ON FLAG
001603: 25,2055           00144                           DEC      100        B-14                       #  SO A MONITOR REPOSITION WONT ALARM.
001604: 25,2056           44753                           CS       TURNONBT
001605: 25,2057           70110                           MASK     RADMODES
001606: 25,2060           54110                           TS       RADMODES
001607: 25,2061           15272                           TCF      TASKOVER
001608:


001610:                                                                                                  #  PROGRAM NAME_  RRZEROSB
001611:
001612:                                                                                                  #  FUNCTIONAL DESCRIPTION_
001613:                                                                                                  #  RRZEROSB IS A CLOSED SUBROUTINE TO ZERO THE RR CDU:S,
001614:                                                                                                  #  DETERMINE THE RR MODE, AND TURNS ON THE TRACKER FAIL
001615:                                                                                                  #  LAMP IF REQUIRED. INITIALLY THE RR CDU ZERO BIT (CHAN 12
001616:                                                                                                  #  BIT 1) IS SET. FOLLOWING A 20 MILLISECOND WAIT, THE LGC
001617:                                                                                                  #  RR CDU COUNTERS (OPTY, OPTX) ARE SET = 0 AFTER
001618:                                                                                                  #  WHICH THE RR CDU ZERO DISCRETE (CHAN 12 BIT 1) IS
001619:                                                                                                  #  REMOVED. A 4 SECOND WAIT IS SET TO ALL THE RR CDU:S
001620:                                                                                                  #  TO REPEAT THE ACTUAL TRUNNION AND SHAFT ANGLES. THE
001621:                                                                                                  #  RR CDU ZERO FLAG (RADMODES BIT 13) IS REMOVED. THE
001622:                                                                                                  #  CONTENTS OF OPTY IS THEN CHECKED TO SEE IF THE TRUNNION
001623:                                                                                                  #  ANGLE IS LESS THAN 90 DEGREES. IF NOT, BIT 12 OF
001624:                                                                                                  #  RADMODES IS SET = 1 TO INDICATE RR ANTENNA MODE 2.
001625:                                                                                                  #  IF LESS THAN 90 DEGREES, BIT 12 OF RADMODES IS SET = 0 TO
001626:                                                                                                  #  INDICATE RR ANTENNA MODE 1. SETTRKF IS THEN CALLED TO
001627:                                                                                                  #  SEE IF THE TRACKER FAIL LAMP SHOULD BE TURNED ON.
001628:
001629:                                                                                                  #  CALLING SEQUENCE: L  TC  RRZEROSB (FROM RRTURNON AND RRZERO)
001630:                                                                                                  #  ERASABLE INITIALIZATION REQUIRED:
001631:                                                                                                  #  RADMODES (BIT 13 SET), DSPTAB +11D
001632:
001633:                                                                                                  #  SUBROUTINES CALLED_  FIXDELAY, MAGSUB, SETTRKF
001634:
001635:                                                                                                  #  JOBS OR TASKS INITIATED_
001636:                                                                                                  #  NONE
001637:
001638:                                                                                                  #  ALARMS_  TRACKER FAIL
001639:
001640:                                                                                                  #  EXIT_  L +1 (ALWAYS)
001641:
001642: 25,2062           00006        RRZEROSB           EXTEND
001643: 25,2063           23312                           QXCH     RRRET
001644: 25,2064           34753                           CAF      BIT1                                  #  BIT 13 OF RADMODES MUST BE SET BEFORE
001645: 25,2065           00006                           EXTEND                                         #  COMING HERE.
001646: 25,2066           05012                           WOR      CHAN12                                #  TURN ON ZERO RR CDU
001647: 25,2067           05232                           TC       FIXDELAY
001648: 25,2070           00002                           DEC      2          B-14
001649:
001650: 25,2071           34755                           CAF      ZERO
001651: 25,2072           54035                           TS       CDUT
001652: 25,2073           54036                           TS       CDUS
001653: 25,2074           44753                           CS       ONE                                   #  REMOVE ZEROING BIT.
001654: 25,2075           00006                           EXTEND
001655: 25,2076           03012                           WAND     CHAN12
001656: 25,2077           05232                           TC       FIXDELAY
001657: 25,2100           01750                           DEC      1000       B-14                       #  RESET FAIL INHIBIT IN 10 SECS - D.281
001658:
001659: 25,2101           44737                           CS       RCDU0BIT                              #  REMOVE ZEROING IN PROCESS BIT.


001661: 25,2102           70110                           MASK     RADMODES
001662: 25,2103           54110                           TS       RADMODES
001663:
001664: 25,2104           30035                           CA       CDUT
001665: 25,2105           04512                           TC       MAGSUB
001666: 25,2106           57777                           DEC      -.5
001667: 25,2107           12112                           TCF      +3                                    #  IF MODE 2.
001668:
001669: 25,2110           34755                           CAF      ZERO
001670: 25,2111           12113                           TCF      +2
001671: 25,2112           34740                           CAF      ANTENBIT
001672: 25,2113           56110                           XCH      RADMODES
001673: 25,2114           77753                           MASK     -BIT12
001674: 25,2115           26110                           ADS      RADMODES
001675:
001676: 25,2116           04564                           TC       SETTRKF                               #  TRACKER LAMP MIGHT GO ON NOW.
001677:
001678: 25,2117           01312                           TC       RRRET                                 #  DONE.
001679:
001680: 25,2120     7753               -BIT12             EQUALS   -1/8                                  #  IN SPROOT
001681:


001683:                                                                                                  #  PROGRAM NAME_  DORREPOS
001684:                                                                                                  #  FUNCTIONAL DESCRIPTION_
001685:                                                                                                  #  DORREPOS IS A SEQUENCE OF TASKS TO DRIVE THE RENDEZVOUS RADAR
001686:                                                                                                  #  TO A SAFE POSITION. INITIALLY SETRRECR IS CALLED WHERE THE RR
001687:                                                                                                  #  ERROR COUNTERS (CHAN 12 BIT 2) ARE ENABLED AND LASTYCMD
001688:                                                                                                  #  AND LASTXCMD SET = 0 TO INDICATE THE DIFFERENCE BETWEEN THE
001689:                                                                                                  #  DESIRED STATE AND PRESENT STATE OF THE COMMANDS. THE RR
001690:                                                                                                  #  TURN-ON FLAG (RADMODES BIT 1) IS CHECKED AND IF NOT PRESENT,
001691:                                                                                                  #  PROGRAM ALARM 00501 IS REQUESTED BEFORE CONTINUING. IN EITHER
001692:                                                                                                  #  CASE, FOLLOWING A 20 MILLISECOND WAIT THE PROGRAM CHECKS THE CURRENT
001693:                                                                                                  #  RR ANTENNA MODE (RADMODES BIT 12). RRTONLY IS THEN CALLED
001694:                                                                                                  #  TO DRIVE THE TRUNNION ANGLE TO 0 DEGREES IF IN MODE 1 AND TO 180
001695:                                                                                                  #  DEGREES IF IN MODE 2. UPON RETURN, THE CURRENT RR ANTENNA
001696:                                                                                                  #  MODE (RADMODES BIT 12) IS AGAIN CHECKED. RRSONLY IS THEN
001697:                                                                                                  #  CALLED TO DRIVE THE SHAFT ANGLE TO 0 DEGREES IF IN MODE 1 AND TO
001698:                                                                                                  #  -90 DEGREES IF IN MODE 2. IF DURING RRTONLY OR RRSONLY A
001699:                                                                                                  #  REMODE HAS BEEN REQUESTED (RADMODES BIT 14), AND ALWAYS
001700:                                                                                                  #  FOLLOWING COMPLETION OF RRSONLY, CONTROL IS TRANSFERRED TO
001701:                                                                                                  #  REPOSRPT. HERE THE REPOSITION FLAG (RADMODES BIT 11) IS
001702:                                                                                                  #  REMOVED. A CHECK IS THEN MADE ON THE DESIGNATE FLAG (RADMODES
001703:                                                                                                  #  BIT 10). IF PRESENT, CONTROL IS TRANSFERRED TO BEGDES. IF NOT PRESENT
001704:                                                                                                  #  INDICATING NO FURTHER ANTENNA CONTROL REQUIRED, THE RR ERROR
001705:                                                                                                  #  COUNTER BIT (CHAN 12 BIT 2) IS REMOVED AND THE ROUTINE EXITS TO
001706:                                                                                                  #  TASKOVER.
001707:
001708:                                                                                                  #  CALLING SEQUENCE:
001709:                                                                                                  #  WAITLIST CALL FROM RRGIMON IF TRUNNION AND SHAFT CDU ANGLES
001710:                                                                                                  #  NOT WITHIN LIMITS OF CURRENT MODE.
001711:
001712:                                                                                                  #  ERASABLE INITIALIZATION REQUIRED:
001713:                                                                                                  #  RADMODES
001714:
001715:                                                                                                  #  SUBROUTINES CALLED_
001716:                                                                                                  #  RRTONLY, RRSONLY, BEGDES (EXIT)
001717:
001718:                                                                                                  #  JOBS OR TASKS INITIATED_
001719:                                                                                                  #  NONE
001720:
001721:                                                                                                  #  ALARMS-  NONE
001722:
001723:                                                                                                  #  EXIT_  TASKOVER, BEGDES
001724:
001725: 25,2120           02147        DORREPOS           TC       SETRRECR                              #  SET UP RR CDU ERROR COUNTERS.
001726:
001727:                                                                                                  #  ALARM 501 DELETED IN DANCE 279 PER PCR 97.
001728:
001729: 25,2121           05232                           TC       FIXDELAY
001730: 25,2122           00002                           DEC      2          B-14
001731:
001732: 25,2123           34740                           CAF      ANTENBIT                              #  MANEUVER TRUNNION ANGLE TO NOMINAL POS.


001734: 25,2124           70110                           MASK     RADMODES
001735: 25,2125           10000                           CCS      A
001736: 25,2126           34735                           CAF      BIT15                                 #  0 FOR MODE 1 AND 180 FOR MODE 2.
001737: 25,2127           02232                           TC       RRTONLY
001738:
001739: 25,2130           34740                           CAF      ANTENBIT                              #  NOW PUT SHAFT IN RIGHT POSITION
001740: 25,2131           70110                           MASK     RADMODES
001741: 25,2132           10000                           CCS      A
001742: 25,2133           44736                           CS       HALF                                  #  -90 FOR MODE 2.
001743: 25,2134           02235                           TC       RRSONLY
001744:
001745: 25,2135           44741        REPOSRPT           CS       REPOSBIT                              #  RETURNS HERE FROM RR1AXIS IF REMODE
001746:                                                                                                  #  REQUESTED DURING REPOSITION.
001747: 25,2136           70110                           MASK     RADMODES                              #  REMOVE REPOSITION BIT.
001748: 25,2137           54110                           TS       RADMODES
001749: 25,2140           74742                           MASK     DESIGBIT                              #  SEE IF SOMEONE IS WAITING TO DESIGNATE.
001750: 25,2141           10000                           CCS      A
001751: 25,2142           12564                           TCF      BEGDES
001752: 25,2143           44752                           CS       BIT2                                  #  IF NO FURTHER ANTENNA CONTROL REQUIRED,
001753: 25,2144           00006                           EXTEND                                         #  REMOVE ERROR COUNTER ENABLE.
001754: 25,2145           03012                           WAND     CHAN12
001755: 25,2146           15272                           TCF      TASKOVER
001756:
001757: 25,2147           34752        SETRRECR           CAF      BIT2                                  #  SET UP RR ERROR COUNTERS.
001758: 25,2150           00006                           EXTEND
001759: 25,2151           02012                           RAND     CHAN12
001760: 25,2152           10000                           CCS      A                                     #  DO NOT CLEAR LAST COMMAND IF
001761: 25,2153           00002                           TC       Q                                     #  ERROR COUNTERS ARE ENABLED.
001762:
001763: 25,2154           54112                           TS       LASTYCMD
001764: 25,2155           54113                           TS       LASTXCMD
001765: 25,2156           34752                           CAF      BIT2
001766: 25,2157           00006                           EXTEND
001767: 25,2160           05012                           WOR      CHAN12                                #  ENABLE RR CDU ERROR COUNTERS.
001768: 25,2161           00002                           TC       Q


001770:                                                                                                  #  PROGRAM NAME_  REMODE                                                   IVES SHAFT TO -45, AND FINALLY DRIVES
001771:
001772:                                                                                                  #  FUNCTIONAL DESCRIPTION_                                                 S DONE WITH SINGLE AXIS ROTATIONS (SEE
001773:                                                                                                  #  REMODE IS THE GENERAL REMODING SUBROUTINE. IT DRIVES THE
001774:                                                                                                  #  TRUNNION ANGLE TO 0 DEGREES IF THE CURRENT MODE IS MODE 1,
001775:                                                                                                  #  180 DEGREES FOR MODE 2, THEN DRIVES THE SHAFT ANGLE TO -45
001776:                                                                                                  #  DEGREES, AND FINALLY DRIVES THE TRUNNION ANGLE TO -130 DEGREES,
001777:                                                                                                  #  TO PLACE THE RR IN MODE 2, -50 DEGREES FOR MODE 1, BEFORE
001778:                                                                                                  #  INITIATING 2-AXIS CONTROL. ALL REMODING IS DONE WITH SINGLE
001779:                                                                                                  #  AXIS ROTATIONS (RR1AXIS). INITIALLY THE RR ANTENNA MODE FLAG
001780:                                                                                                  #  (RADMODES BIT 12) IS CHECKED. CONTROL IS THEN TRANSFERRED TO
001781:                                                                                                  #  RRTONLY TO DRIVE THR TRUNNION ANGLE TO 0 DEGREES IF IN MODE 1
001782:                                                                                                  #  OR 180 DEGREES IF IN MODE 2. RRSONLY IS THEN CALLED TO DRIVE
001783:                                                                                                  #  THE SHAFT ANGLE TO -45 DEGREES. THE RR ANTENNA MODE FLAG
001784:                                                                                                  #  (RADMODES BIT 12) IS CHECKED AGAIN. CONTROL IS AGAIN
001785:                                                                                                  #  TRANSFERRED TO RRTONLY TO DRIVE THE TRUNNION ANGLE TO -130
001786:                                                                                                  #  DEGREES TO PLACE THE RR IN MODE 2 IF CURRENTLY IN MODE 1 OR TO
001787:                                                                                                  #  -50 DEGREES IF IN MODE 2 TO PLACE THE RR IN MODE 1. RMODINV
001788:                                                                                                  #  IS THEN CALLED TO SET RADMODES BIT 12 TO INDICATE THE NEW
001789:                                                                                                  #  RR ANTENNA MODE. THE REMODE FLAG (RADMODES BIT 14)
001790:                                                                                                  #  IS REMOVED TO INDICATE THAT REMODING IS COMPLETE. THE PROGRAM
001791:                                                                                                  #  THEN EXITS TO STDESIG TO BEGIN 2-AXIS CONTROL.
001792:
001793:                                                                                                  #  CALLING SEQUENCE:
001794:                                                                                                  #  FROM BEGDES WHEN REMODE FLAG (RADMODES BIT 14) IS SET.
001795:                                                                                                  #  THIS FLAG MAY BE SET IN RRDESSM AND RRDESNB IF RRLIMCHK
001796:                                                                                                  #  DETERMINES THAT THE DESIRED ANGLES ARE WITHIN THE LIMITS OF THE
001797:                                                                                                  #  OTHER MODE.
001798:
001799:                                                                                                  #  ERASABLE INITIALIZATION REQUIRED:
001800:                                                                                                  #  RADMODES
001801:
001802:                                                                                                  #  SUBROUTINES CALLED_
001803:                                                                                                  #  RRTONLY, RRSONLY, RMODINV (ACTUALLY PART OF)
001804:
001805:                                                                                                  #  JOBS OR TASKS INITIATED_
001806:                                                                                                  #  NONE
001807:
001808:                                                                                                  #  ALARMS_  NONE
001809:
001810:                                                                                                  #  EXIT_  STDESIG
001811:
001812: 25,2162           34740        REMODE             CAF      ANTENBIT                              #  DRIVE TRUNNION TO 0 (180)
001813: 25,2163           70110                           MASK     RADMODES                              #  (ERROR COUNTER ALREADY ENABLED)
001814: 25,2164           10000                           CCS      A
001815: 25,2165           34735                           CAF      BIT15
001816: 25,2166           02232                           TC       RRTONLY
001817:
001818: 25,2167           37752                           CAF      -45DEGSR
001819: 25,2170           02235                           TC       RRSONLY


001821: 25,2171           40110                           CS       RADMODES
001822: 25,2172           74740                           MASK     ANTENBIT
001823: 25,2173           10000                           CCS      A
001824: 25,2174           32223                           CAF      -80DEGSR                              #  GO TO T = -130 (-50).
001825: 25,2175           62222                           AD       -50DEGSR
001826: 25,2176           02232                           TC       RRTONLY
001827:
001828: 25,2177           40110                           CS       RADMODES
001829: 25,2200           74740                           MASK     ANTENBIT
001830: 25,2201           10000                           CCS      A
001831: 25,2202           34735                           CAF      BIT15                                 #  GO TO T = -180 (+0).
001832: 25,2203           02232                           TC       RRTONLY
001833:
001834: 25,2204           40110                           CS       RADMODES                              #  GO TO S = -90 (+0).
001835: 25,2205           74740                           MASK     ANTENBIT
001836: 25,2206           10000                           CCS      A
001837: 25,2207           44736                           CS       HALF
001838: 25,2210           02235                           TC       RRSONLY
001839:
001840: 25,2211           02224                           TC       RMODINV
001841:
001842: 25,2212           44736                           CS       REMODBIT                              #  END OF REMODE.
001843: 25,2213           70110                           MASK     RADMODES
001844: 25,2214           54110                           TS       RADMODES
001845:
001846: 25,2215           34742                           CAF      DESIGBIT                              #  WAS REMODE CALLED DURING DESIGNATE?
001847: 25,2216           70110                           MASK     RADMODES                              #  (BIT10 RADMODES = 1)
001848: 25,2217           00006                           EXTEND
001849: 25,2220           13623                           BZF      RGOODEND                              #  NO-RETURN TO CALLER WAITING IN RADSTALL
001850: 25,2221           02573                           TC       STDESIG                               #  YES - RETURN TO DESIGNATE
001851: 25,2222     7752               -45DEGSR           =        13,14,15
001852: 25,2222           67070        -50DEGSR           DEC      -.27778
001853: 25,2223           61615        -80DEGSR           DEC      -.44444
001854:
001855: 25,2224           22110        RMODINV            LXCH     RADMODES                              #  INVERT THE MODE STATUS.
001856: 25,2225           34740                           CAF      ANTENBIT
001857: 25,2226           00006                           EXTEND
001858: 25,2227           06001                           RXOR     LCHAN
001859: 25,2230           54110                           TS       RADMODES
001860: 25,2231           00002                           TC       Q
001861:


001863:                                                                                                  #  PROGRAM NAMES_  RRTONLY, RRSONLY
001864:
001865:                                                                                                  #  FUNCTIONAL DESCRIPTION_
001866:                                                                                                  #  RRTONLY AND RRSONLY ARE SUBROUTINES FOR DOING SINGLE AXIS
001867:                                                                                                  #  RR MANEUVERS FOR REMODE AND REPOSITION. IT DRIVES TO
001868:                                                                                                  #  WITHIN 1 DEGREE. INITIALLY, AT RR1AX2, THE REMODE AND REPOSITION
001869:                                                                                                  #  FLAGS (RADMODES BITS 14, 11) ARE CHECKED. IF BOTH EXIST,
001870:                                                                                                  #  THE PROGRAM EXITS TO REPOSRPT (SEE DORREPOS). THIS INDICATES
001871:                                                                                                  #  THAT SOMEONE POSSIBLY REQUESTED A DESIGNATE (RADMODES BIT 10)
001872:                                                                                                  #  WHICH REQUIRES A REMODE (RADMODES BIT 14) AND THAT A
001873:                                                                                                  #  REPOSITION IS IN PROGRESS (RADMODES BIT 11). IF NONE
001874:                                                                                                  #  OR ONLY ONE OF THE FLAGS EXIST, REMODE OR REPOSITION, MAGSUB
001875:                                                                                                  #  IS CALLED TO SEE IF THE APPROPRIATE ANGLE IS WITHIN 1 DEGREE. IF YES,
001876:                                                                                                  #  CONTROL RETURNS TO THE CALLING ROUTINE. IF NOT, CONTROL IS
001877:                                                                                                  #  TRANSFERRED TO RROUT FOR SINGLE AXIS MANEUVERS WITH THE OTHER
001878:                                                                                                  #  ANGLE SET = 0. FOLLOWING A .5 SECOND WAIT, THE ABOVE PROCEDURE IS
001879:                                                                                                  #  REPEATED.
001880:
001881:                                                                                                  #  CALLING SEQUENCE: L-1 CAF *ANGLE*  (DESIRED ANGLE SCALED PI)
001882:                                                                                                  #  L  TC  RRTONLY (TRUNNION ONLY)
001883:                                                                                                  #  RRSONLY (SHAFT ONLY)
001884:                                                                                                  #  RRTONLY IS CALLED BY PREPOS29;
001885:                                                                                                  #  RRTONLY AND RRSONLY ARE CALLED BY DORREPOS AND REMODE
001886:
001887:                                                                                                  #  ERASABLE INITIALIZATION REQUIRED:
001888:                                                                                                  #  C(A) = DESIRED ANGLE, RADMODES
001889:
001890:                                                                                                  #  SUBROUTINES CALLED_
001891:                                                                                                  #  FIXDELAY, REPOSRPT, MAGSUB, RROUT
001892:
001893:                                                                                                  #  JOBS OR TASKS INITIATED_
001894:                                                                                                  #  NONE
001895:
001896:                                                                                                  #  ALARMS_  NONE
001897:
001898:                                                                                                  #  EXIT_  REPOSRPT (REMODE AND REPOSITION FLAGS PRESENT - RADMODES
001899:                                                                                                  #  BITS 14, 11)
001900:                                                                                                  #  L+1  (ANGLE WITHIN ONE DEGREE OR RR OUT OF AUTO MODE)
001901:
001902: 25,2232           55313        RRTONLY            TS       RDES                                  #  DESIRED TRUNION ANGLE.
001903: 25,2233           34755                           CAF      ZERO
001904: 25,2234           12237                           TCF      RR1AXIS
001905:
001906: 25,2235           55313        RRSONLY            TS       RDES                                  #  SHAFT COMMANDS ARE UNRESOLVED SINCE THIS
001907: 25,2236           34753                           CAF      ONE                                   #  ROUTINE ENTERED ONLY WHEN T = 0 OR 180.
001908:
001909: 25,2237           55314        RR1AXIS            TS       RRINDEX
001910: 25,2240           00006                           EXTEND
001911: 25,2241           23312                           QXCH     RRRET
001912: 25,2242           12245                           TCF      RR1AX2
001913:


001915: 25,2243           05232        NXTRR1AX           TC       FIXDELAY
001916: 25,2244           00062                           DEC      50         B-14                       #  2 SAMPLES PER SECOND.
001917:
001918: 25,2245           40110        RR1AX2             CS       RADMODES                              #  IF SOMEONE REQUESTES AS DESIGNATE WHICH
001919: 25,2246           77722                           MASK     PRIO22                                #  REQUIRES A REMODE AND A REPOSITION IS IN
001920: 25,2247           00006                           EXTEND                                         #  PROGRESS, INTERRUPT IT AND START THE
001921: 25,2250           12135                           BZF      REPOSRPT                              #  REMODE IMMEDIATELY.
001922:
001923: 25,2251           31313                           CA       RDES
001924: 25,2252           00006                           EXTEND
001925: 25,2253           51314                           INDEX    RRINDEX
001926: 25,2254           20035                           MSU      CDUT
001927: 25,2255           54061                           TS       ITEMP1                                #  SAVE ERROR SIGNAL.
001928: 25,2256           00006                           EXTEND
001929: 25,2257           72276                           MP       RRSPGAIN                              #  TRIES TO NULL .7 OF ERROR OVER NEXT .5
001930: 25,2260           54001                           TS       L
001931: 25,2261           30110                           CA       RADMODES
001932: 25,2262           74752                           MASK     AUTOMBIT
001933: 25,2263           56061                           XCH      ITEMP1                                #  STORE RR-OUT-OF-AUTO-MODE BIT.
001934: 25,2264           04512                           TC       MAGSUB                                #  SEE IF WITHIN ONE DEGREE.
001935: 25,2265           77644                           DEC      -.00555                               #  SCALED IN HALF-REVS.
001936:
001937: 25,2266           10061                           CCS      ITEMP1                                #  NO.  IF RR OUT OF AUTO MODE, EXIT.
001938: 25,2267           01312                           TC       RRRET                                 #  RETURN TO CALLER.
001939:
001940: 25,2270           11314                           CCS      RRINDEX                               #  COMMAND FOR OTHER AXIS IS ZERO.
001941: 25,2271           12273                           TCF      +2                                    #  SETTING A TO 0.
001942: 25,2272           56001                           XCH      L
001943: 25,2273           53352                           DXCH     TRUNNCMD
001944: 25,2274           02277                           TC       RROUT
001945:
001946: 25,2275           12243                           TCF      NXTRR1AX                              #  COME BACK IN .5 SECONDS.
001947:
001948: 25,2276           22715        RRSPGAIN           DEC      .59062                                #  NULL .7 ERROR IN .5 SEC.
001949:


001951:                                                                                                  #  PROGRAM NAME_  RROUT                                                    RROR COUNTER SCALING. RROUT LIMITS THEM
001952:
001953:                                                                                                  #  FUNCTIONAL DESCRIPTION_
001954:                                                                                                  #  RROUT RECEIVES RR GYRO COMMANDS IN TANG, TANG +1 IN RR
001955:                                                                                                  #  ERROR COUNTER SCALING. RROUT THEN LIMITS THEM AND
001956:                                                                                                  #  GENERATES COMMANDS TO THE CDU TO ADJUST THE ERROR COUNTERS
001957:                                                                                                  #  TO THE DESIRED VALUES. INITIALLY MAGSUB CHECKS THE MAGNITUDE OF
001958:                                                                                                  #  THE COMMAND (SHAFT ON 1ST PASS) TO SEE IF IT IS GREATER THAN
001959:                                                                                                  #  384 PULSES. IF NOT, CONTROL IS TRANSFERRED TO RROUTLIM TO
001960:                                                                                                  #  LIMIT THE COMMAND TO +384 OR -384 PULSES. THE DIFFERENCE IS
001961:                                                                                                  #  THEN CALCULATED BETWEEN THE DESIRED STATE AND THE PRESENT STATE OF
001962:                                                                                                  #  THE ERROR COUNTER AS RECORDED IN LASTYCMD AND LASTXCMD.
001963:                                                                                                  #  THE RESULT IS STORED IN OPTXCMD (1ST PASS) AND OPTYCMD (2ND
001964:                                                                                                  #  PASS). FOLLOWING THE SECOND PASS, FOR THE TRUNNION COMMAND, THE
001965:                                                                                                  #  OCDUT AND OCDUS ERROR COUNTER DRIVE BITS (CHAN 14 BITS 12, 11)
001966:                                                                                                  #  ARE SET. THIS PROGRAM THEN EXITS TO THE CALLING PROGRAM.
001967:
001968:                                                                                                  #  CALLING SEQUENCE:
001969:                                                                                                  #  L TC RROUT (WITH RUPT INHIBITED) RROUT IS CALLED BY
001970:                                                                                                  #  RRTONLY, RRSONLY, AND DODES
001971:
001972:                                                                                                  #  ERASABLE INITIALIZATION REQUIRED:
001973:                                                                                                  #  TANG, TANG +1 (DESIRED COMMANDS), LASTYCMD, LASTXCMD
001974:                                                                                                  #  (1ST PASS = 0), RR ERROR COUNTER ENABLE SET (CHAN 12 BIT 2).
001975:
001976:                                                                                                  #  SUBROUTINES CALLED_
001977:                                                                                                  #  MAGSUB
001978:
001979:                                                                                                  #  JOBS OR TASKS INITIATED_
001980:                                                                                                  #  NONE
001981:
001982:                                                                                                  #  ALARMS_  NONE
001983:
001984:                                                                                                  #  EXIT_  L+1 (ALWAYS)                                                     SIRED VALUES. RUPT MUST BE INHIBITED.
001985:
001986: 25,2277           22002        RROUT              LXCH     Q                                     #  SAVE RETURN.
001987: 25,2300           34753                           CAF      ONE                                   #  LOOP TWICE.
001988: 25,2301           54062        RROUT2             TS       ITEMP2
001989: 25,2302           50000                           INDEX    A
001990: 25,2303           31351                           CA       TRUNNCMD
001991: 25,2304           54061                           TS       ITEMP1                                #  SAVE SIGN OF COMMAND FOR LIMITING.
001992:
001993: 25,2305           04512                           TC       MAGSUB                                #  SEE IF WITHIN LMITS.
001994: 25,2306           77177        -RRLIMIT           DEC      -384       B-14
001995: 25,2307           12326                           TCF      RROUTLIM                              #  LIMIT COMMAND TO MAG OF 384.
001996:
001997: 25,2310           30061        SETRRCTR           CA       ITEMP1                                #  COUNT OUT DIFFERENCE BETWEEN DESIRED
001998: 25,2311           50062                           INDEX    ITEMP2                                #  STATE AND PRESENT STATE AS RECORDED IN
001999: 25,2312           56112                           XCH      LASTYCMD                              #  LASTYCMD AND LASTXCMD
002000: 25,2313           40000                           COM


002002: 25,2314           60061                           AD       ITEMP1
002003: 25,2315           64754                           AD       NEG0                                  #  PREVENT +0 IN OUTCOUNTER
002004: 25,2316           50062                           INDEX    ITEMP2
002005: 25,2317           54053                           TS       CDUTCMD
002006:
002007: 25,2320           10062                           CCS      ITEMP2                                #  PROCESS BOTH INPUTS.
002008: 25,2321           12301                           TCF      RROUT2
002009:
002010: 25,2322           35020                           CAF      PRIO6                                 #  ENABLE COUNTERS.
002011: 25,2323           00006                           EXTEND
002012: 25,2324           05014                           WOR      CHAN14                                #  PUT ON CDU DRIVES S AND T
002013: 25,2325           00001                           TC       L                                     #  RETURN.
002014:
002015: 25,2326           10061        RROUTLIM           CCS      ITEMP1                                #  LIMIT COMMAND TO ABS VAL OF 384.
002016: 25,2327           42306                           CS       -RRLIMIT
002017: 25,2330           12332                           TCF      +2
002018: 25,2331           32306                           CA       -RRLIMIT
002019: 25,2332           54061                           TS       ITEMP1
002020: 25,2333           12311                           TCF      SETRRCTR   +1
002021:


002023:                                                                                                  #           ROUTINE TO ZERO THE RR CDUS AND DETERMINE THE ANTENNA MODE.
002024:
002025: 25,2334           32363        RRZERO             CAF      BIT11+1                               #  SEE IF MONITOR REPOSITION OR NOT IN AUTO
002026: 25,2335           70110                           MASK     RADMODES                              #  IF SO, DONT RE-ZERO CDUS.
002027: 25,2336           10000                           CCS      A
002028: 25,2337           13537                           TCF      RADNOOP                               #  (IMMEDIATE TASK TO RGOODEND).
002029:
002030: 25,2340           00004                           INHINT
002031: 25,2341           44737                           CS       RCDU0BIT                              #  SET FLAG TO SHOW ZEROING IN PROGRESS.
002032: 25,2342           70110                           MASK     RADMODES
002033: 25,2343           64737                           AD       RCDU0BIT
002034: 25,2344           54110                           TS       RADMODES
002035:
002036: 25,2345           34753                           CAF      ONE
002037: 25,2346           05214                           TC       WAITLIST
002038: 25,2347  E7,1456                                  EBANK=   LOSCOUNT
002039: 25,2347           02361 52067                     2CADR    RRZ2
002040:
002041:
002042: 25,2351           40110                           CS       RADMODES                              #  SEE IF IN AUTO MODE.
002043: 25,2352           74752                           MASK     AUTOMBIT
002044: 25,2353           10000                           CCS      A
002045: 25,2354           12357                           TCF      ROADBACK
002046: 25,2355           05600                           TC       ALARM                                 #  AUTO DISCRETE NOT PRESENT - TRYING
002047: 25,2356           00510                           OCT      510
002048: 25,2357           00003        ROADBACK           RELINT
002049: 25,2360           14631                           TCF      SWRETURN
002050:
002051: 25,2361           02062        RRZ2               TC       RRZEROSB                              #  COMMON TO TURNON AND RRZERO.
002052: 25,2362           13614                           TCF      ENDRADAR
002053:
002054: 25,2363           02001        BIT11+1            OCT      02001
002055:


002057:                                                                                                  #  PROGRAM NAME_  RRDESSM                                                  R (HALF-UNIT) IN RRTARGET. REMODES IF
002058:
002059:                                                                                                  #  FUNCTIONAL DESCRIPTION_
002060:                                                                                                  #  THIS INTERPRETIVE ROUTINE WILL DESIGNATE, IF DESIRED ANGLES ARE
002061:                                                                                                  #  WITHIN THE LIMITS OF EITHER MODE, TO A LINE-OF SIGHT (LOS) VECTOR
002062:                                                                                                  #  (HALF-UNIT) KNOWN WITH RESPECT TO THE STABLE MEMBER PRESENT
002063:                                                                                                  #  ORIENTATION. INITIALLY THE IMU CDU:S ARE READ AND CONTROL
002064:                                                                                                  #  TRANSFERRED TO SMNB TO TRANSFORM THE LOS VECTOR FROM STABLE
002065:                                                                                                  #  MEMBER TO NAVIGATION BASE COORDINATES (SEE STG MEMO -699)
002066:                                                                                                  #  RRANGLES IS THEN CALLED TO CALCULATE THE RR GIMBAL ANGLES,
002067:                                                                                                  #  TRUNNION AND SHAFT, FOR BOTH THE PRESENT AND ALTERNATE MODE.
002068:                                                                                                  #  RRLIMCHK IS CALLED TO SEE IF THE ANGLES CALCULATED FOR THE
002069:                                                                                                  #  PRESENT MODE ARE WITHIN LIMITS. IF WITHIN LIMITS, THE RETURN
002070:                                                                                                  #  LOCATION IS INCREMENTED, INASMUCH AS NO VEHICLE MANEUVER IS
002071:                                                                                                  #  REQUIRED, BEFORE EXITING TO STARTDES. IF NOT WITHIN LIMITS OF THE
002072:                                                                                                  #  CURRENT MODE, TRYSWS IS CALLED. FOLLOWING INVERTING OF THE RR
002073:                                                                                                  #  ANTENNA MODE FLAG (RADMODES BIT 12), RRLIMCHK IS CALLED
002074:                                                                                                  #  TO SEE IF THE ANGLES CALCULATED FOR THE ALTERNATE MODE ARE WITHIN
002075:                                                                                                  #  LIMITS. IF YES, THE RR ANTENNA MODE FLAG IS AGAIN INVERTED,
002076:                                                                                                  #  THE REMODE FLAG (RADMODES BIT 14) SET, AND THE RETURN LOCATION
002077:                                                                                                  #  INCREMENTED, TO INDICATE NO VEHICLE MANEUVER IS REQUIRED, BEFORE
002078:                                                                                                  #  EXITING TO STARTDES. IF THESE ANGLES ARE NOT WITHIN LIMITS
002079:                                                                                                  #  OF THE ALTERNATE MODE, THE RR ANTENNA MODE FLAG (RADMODES
002080:                                                                                                  #  BIT 12) IS INVERTED BEFORE RETURNING DIRECTLY TO THE CALLING PROGRAM
002081:                                                                                                  #  TO INDICATE THAT A VEHICLE MANEUVER IS REQUIRED.
002082:
002083:                                                                                                  #  CALLING SEQUENCE:
002084:                                                                                                  #  L  STCALL  RRTARGET  (LOS HALF-UNIT VECTOR IN SM COORDINATES)
002085:                                                                                                  #  L+1  RRDESSM
002086:                                                                                                  #  L+2  BASIC  (VEHICLE MANEUVER REQUIRED)
002087:                                                                                                  #  L+3  BASIC  (NO VEHICLE MANEUVER REQUIRED)
002088:
002089:                                                                                                  #  ERASABLE INITIALIZATION REQUIRED:
002090:                                                                                                  #  RRTARGET, RADMODES
002091:
002092:                                                                                                  #  SUBROUTINES CALLED_
002093:                                                                                                  #  READCDUS, SMNB, RRANGLES, RRLIMCHK, TRYSWS (ACTUALLY
002094:                                                                                                  #  PART OF), RMODINV
002095:
002096:                                                                                                  #  JOBS OR TASKS INITIATED_
002097:                                                                                                  #  NONE
002098:
002099:                                                                                                  #  ALARMS_  NONE
002100:
002101:                                                                                                  #  EXIT_  L+2 (NEITHER SET OF ANGLES ARE WITHIN LIMITS OF RELATED MODE)
002102:                                                                                                  #  STARTDES (DESIGNATE POSSIBLE AT PRESENT VEHICLE ATTITUDE-RETURNS
002103:                                                                                                  #  TO L+3 FROM STARTDES)                                                   CAN BE DONE IN PRESENT VEH ATTITUDE.
002104:
002105: 25,2364           43020        RRDESSM            STQ      CLEAR
002106: 25,2365           01112                                    DESRET


002108: 25,2366           00271                                    RRNBSW
002109: 25,2367           77624                           CALL                                           #  COMPUTES SINES AND COSINES, ORDER Y Z X
002110: 25,2370           47535                                    CDUTRIG
002111: 25,2371           45175                           VLOAD    CALL                                  #  LOAD VECTOR AND CALL TRANSFORMATION
002112: 25,2372           01101                                    RRTARGET
002113: 25,2373           47676                                    *SMNB*
002114:
002115: 25,2374           77624                           CALL                                           #  GET RR GIMBAL ANGLES IN PRESENT AND
002116: 25,2375           26133                                    RRANGLES                              #  ALTERNATE MODE.
002117: 25,2376           77776                           EXIT
002118:
002119: 25,2377           00004                           INHINT
002120: 25,2400           04523                           TC       RRLIMCHK
002121: 25,2401           01106                           ADRES    MODEA                                 #  CONFIGURATION FOR CURRENT MODE.
002122: 25,2402           02405                           TC       +3                                    #  NOT IN CURRENT MODE
002123: 25,2403           25112        OKDESSM            INCR     DESRET                                #  INCREMENT SAYS NO VEHICLE MANEUVER REQ.
002124: 25,2404           02423                           TC       STARTDES                              #  SHOW DESIGNATE REQUIRED
002125: 25,2405           40104                           CS       FLAGWRD8
002126: 25,2406           74744                           MASK     SURFFBIT                              #  CHECK IF ON LUNAR SURFACE (SURFFLAG=P22F
002127: 25,2407           00006                           EXTEND
002128: 25,2410           12447                           BZF      NORDSTAL                              #  BRANCH-YES-CANNOT DESIGNATE IN MODE 2
002129: 25,2411           02452                           TC       TRYSWS
002130:
002131:
002132: 25,2412           40104        LUNDESCH           CS       FLAGWRD8                              #  OVERFLOW RETURN FROM RRANGLES
002133: 25,2413           74744                           MASK     SURFFBIT                              #  CHECK IF ON LUNAR SURFACE
002134: 25,2414           00006                           EXTEND
002135: 25,2415           12447                           BZF      NORDSTAL                              #  BRANCH-YES-RETURN TO CALLER - ALARM 527
002136: 25,2416           30074                           CA       STATE
002137: 25,2417           74745                           MASK     RNDVZBIT
002138: 25,2420           10000                           CCS      A                                     #  TEST RNDVZFLG.
002139: 25,2421           02462                           TC       NODESSM                               #  NOT ON MOON-CALL FOR ATTITUDE MANEUVER
002140: 25,2422           15155                           TCF      ENDOFJOB                              #  ...BUT NOT IN R29.
002141:


002143:                                                                                                  #  PROGRAM NAME_  STARTDES                                                 STORED AS A HALF-UNIT VECTOR IN RRTARGET
002144:
002145:                                                                                                  #  FUNCTIONAL DESCRIPTION_                                                 CKON IS DESIRED. BIT14 OF RADMODES IS
002146:                                                                                                  #  STARTDES IS ENTERED WHEN WE ARE READY TO BEGIN DESIGNATION.             OR REPOSITION OPERATION. IN THIS
002147:                                                                                                  #  BIT 14 OF RADMODES IS ALREADY SET IF A REMODE IS REQUIRED.              THE REPOSITION WILL BE INTERRUPTED.
002148:                                                                                                  #  AT THIS TIME, THE RR ANTENNA MAY BE IN A REPOSITION                     GINS.
002149:                                                                                                  #  OPERATION. IN THIS CASE, IF A REMODE IS REQUIRED IT MAY HAVE
002150:                                                                                                  #  ALREADY BEGUN BUT IN ANY CASE THE REPOSITION WILL BE INTERRUPTED.
002151:                                                                                                  #  OTHERWISE, THE REPOSITION WILL BE COMPLETED BEFORE 2-AXIS
002152:                                                                                                  #  DESIGNATION BEGINS. INITIALLY DESCOUNT IS SET = 60 TO INDICATE
002153:                                                                                                  #  THAT 30 SECONDS WILL BE ALLOWED FOR THE RR DATA GOOD INBIT
002154:                                                                                                  #  (CHAN 33 BIT 4) IF LOCK-ON IS DESIRED (STATE BIT 5). BIT 10
002155:                                                                                                  #  OF RADMODES IS SET TO SHOW THAT A DESIGNATE IS REQUIRED.
002156:                                                                                                  #  THE REPOSITION FLAG (RADMODES BIT 11) IS CHECKED. IF SET,
002157:                                                                                                  #  THE PROGRAM EXITS TO L+3 OF THE CALLING PROGRAM (SEE RRDESSM
002158:                                                                                                  #  AND RRDESNB). THE PROGRAM WILL BEGIN DESIGNATING TO THE DESIRED
002159:                                                                                                  #  ANGLES FOLLOWING THE REPOSITION OR REMODE IF ONE WAS
002160:                                                                                                  #  REQUESTED. IF THE REPOSITION FLAG IS NOT SET, SETRRECR IS CALLED
002161:                                                                                                  #  WHICH SETS THE RR ERROR COUNTER ENABLE BIT (CHAN 12 BIT 2)
002162:                                                                                                  #  AND SETS LASTYCMD AND LASTXCMD = 0 TO INDICATE THE
002163:                                                                                                  #  DIFFERENCE BETWEEN THE PRESENT AND DESIRED STATE OF THE ERROR
002164:                                                                                                  #  COUNTERS. A 20 MILLISECOND WAITLIST CALL IS SET FOR BEGDES
002165:                                                                                                  #  AFTER WHICH THE PROGRAM EXITS TO L+3 OF THE CALLING PROGRAM.
002166:
002167:                                                                                                  #  CALLING SEQUENCE:
002168:                                                                                                  #  FROM RRDESSM AND RRDESNB WHEN ANGLES WITHIN LIMITS.
002169:
002170:                                                                                                  #  ERASABLE INITIALIZATION REQUIRED:
002171:                                                                                                  #  RADMODES, (SEE DODES)
002172:
002173:                                                                                                  #  SUBROUTINES CALLED_
002174:                                                                                                  #  SETRRECR, WAITLIST
002175:
002176:                                                                                                  #  JOBS OR TASKS INITIATED_
002177:                                                                                                  #  BEGDES
002178:
002179:                                                                                                  #  ALARMS_  NONE
002180:
002181:                                                                                                  #  EXIT_  L+3 OF CALLING PROGRAM (SEE RRDESSM)
002182:                                                                                                  #  L+2 OF CALLING PROGRAM (SEE RRDESNB)
002183:
002184: 25,2423           25112        STARTDES           INCR     DESRET
002185: 25,2424           40110                           CS       RADMODES
002186: 25,2425           74742                           MASK     DESIGBIT
002187: 25,2426           26110                           ADS      RADMODES
002188: 25,2427           74741                           MASK     REPOSBIT                              #  SEE IF REPOSITIONING IN PROGRESS.
002189: 25,2430           10000                           CCS      A
002190: 25,2431           12437                           TCF      DESRETRN                              #  ECTR ALREADY SET UP.
002191:
002192: 25,2432           02147                           TC       SETRRECR                              #  SET UP ERROR COUNTERS.


002194: 25,2433           34752                           CAF      TWO
002195: 25,2434           05214                           TC       WAITLIST
002196: 25,2435  E7,1456                                  EBANK=   LOSCOUNT
002197: 25,2435           02564 52067                     2CADR    BEGDES
002198:
002199:
002200: 25,2437           31303        DESRETRN           CA       RADCADR                               #  FIRST PASS THRU DESIGNATE
002201: 25,2440           00006                           EXTEND
002202: 25,2441           12443                           BZF      DESRTRN                               #  YES   SET EXIT
002203: 25,2442           05155                           TC       ENDOFJOB                              #  NO
002204: 25,2443           00003        DESRTRN            RELINT
002205: 25,2444           25112                           INCR     DESRET
002206: 25,2445           31112                           CA       DESRET
002207: 25,2446           14640                           TCF      BANKJUMP
002208:
002209:
002210: 25,2447           34755        NORDSTAL           CAF      ZERO                                  #  ZERO RADCADR TO WIPE  OUT ANYONE
002211: 25,2450           55303                           TS       RADCADR                               #  WAITING IN RADSTALL SINCE WE ARE NOW
002212: 25,2451           12443                           TCF      DESRTRN                               #  RETURNING TO P20 AND MAY DO NEW RADSTALL
002213:


002215:                                                                                                  #           SEE IF RRDESSM CAN BE ACCOMPLISHED AFTER A REMODE.
002216:
002217: 25,2452           02224        TRYSWS             TC       RMODINV                               #  (NOTE RUPT INHIBIT)
002218: 25,2453           04523                           TC       RRLIMCHK                              #  TRY DIFFERENT MODE.
002219: 25,2454           01110                           ADRES    MODEB
002220: 25,2455           12462                           TCF      NODESSM                               #  VEHICLE MANEUVER REQUIRED.
002221:
002222: 25,2456           02224                           TC       RMODINV                               #  RESET BIT12
002223: 25,2457           34736                           CAF      REMODBIT                              #  SET FLAG FOR REMODE.
002224: 25,2460           26110                           ADS      RADMODES
002225:
002226: 25,2461           12403                           TCF      OKDESSM
002227:
002228: 25,2462           02224        NODESSM            TC       RMODINV                               #  RE-INVERT MODE AND RETURN
002229: 25,2463           25112                           INCR     DESRET                                #  TO CALLER +2
002230: 25,2464           12447                           TCF      NORDSTAL
002231:
002232: 25,2465           00074        MAXTRYS            DEC      60         B-14
002233:


002235:                                                                                                  #           DESIGNATE TO SPECIFIC RR GIMBAL ANGLES (INDEPENDENT OF VEHICLE MOTION). ENTER WITH DESIRED ANGLES IN
002236:                                                                                                  #  TANG AND TANG +1.
002237:
002238: 25,2466           04645        RRDESNB            TC       MAKECADR
002239: 25,2467           55112                           TS       DESRET
002240:
002241: 25,2470           05527                           TC       DOWNFLAG                              #  RESET FLAG TO PREVENT DODES FROM GOING
002242: 25,2471           00041                           ADRES    LOSCMFLG                              #  BACK TO R21
002243: 25,2472           32465                           CA       MAXTRYS                               #  SET TIME LIMIT COUNTER
002244: 25,2473           55113                           TS       DESCOUNT                              #  FOR DESIGNATE
002245: 25,2474           00004                           INHINT                                         #  SEE IF CURRENT MODE OK.
002246: 25,2475           02531                           TC       RRLIMNB                               #  DO SPECIAL V41 LIMIT CHECK
002247: 25,2476           01106                           ADRES    TANG
002248: 25,2477           12514                           TCF      TRYSWN                                #  SEE IF IN OTHER MODE.
002249:
002250: 25,2500           00003        OKDESNB            RELINT
002251: 25,2501           00006                           EXTEND
002252: 25,2502           31107                           DCA      TANG
002253: 25,2503           53753                           DXCH     TANGNB
002254: 25,2504           06051                           TC       INTPRET
002255:
002256: 25,2505           77624                           CALL                                           #  GET LOS IN NB COORDS.
002257: 25,2506           46041                                    RRNB
002258: 25,2507           01101                           STORE    RRTARGET
002259:
002260: 25,2510           77414                           SET      EXIT
002261: 25,2511           00071                                    RRNBSW
002262:
002263: 25,2512           00004                           INHINT
002264: 25,2513           12424                           TCF      STARTDES   +1
002265: 25,2514           02224        TRYSWN             TC       RMODINV                               #  SEE IF OTHER MODE WILL DO.
002266: 25,2515           02531                           TC       RRLIMNB                               #  DO SPECIAL V41 LIMIT CHECK
002267: 25,2516           01106                           ADRES    TANG
002268: 25,2517           12524                           TCF      NODESNB                               #  NOT POSSIBLE.
002269:
002270: 25,2520           02224                           TC       RMODINV
002271: 25,2521           34736                           CAF      REMODBIT                              #  CALL FOR REMODE.
002272: 25,2522           26110                           ADS      RADMODES
002273: 25,2523           12500                           TCF      OKDESNB
002274:
002275: 25,2524           02224        NODESNB            TC       RMODINV                               #  REINVERT MODE BIT.
002276: 25,2525           05600                           TC       ALARM                                 #  BAD INPUT ANGLES.
002277: 25,2526           00502                           OCT      502
002278: 25,2527           06011                           TC       CLRADMOD
002279: 25,2530           05155                           TC       ENDOFJOB                              #  AVOID 503 ALARM.
002280:
002281: 25,2531           50002        RRLIMNB            INDEX    Q                                     #  THIS ROUTINE IS IDENTICAL TO RRLIMCHK
002282: 25,2532           30000                           CAF      0                                     #  EXCEPT THAT THE MODE 1 SHAFT LOWER
002283: 25,2533           24002                           INCR     Q                                     #  LIMIT IS -85 INSTEAD OF -70 DEGREES
002284: 25,2534           00006                           EXTEND


002286: 25,2535           50000                           INDEX    A                                     #  READ GIMBAL ANGLES INTO ITEMP STORAGE
002287: 25,2536           30001                           DCA      0
002288: 25,2537           52062                           DXCH     ITEMP1
002289: 25,2540           22002                           LXCH     Q                                     #  L(CALLER +2) TO L
002290:
002291: 25,2541           34740                           CAF      ANTENBIT                              #  SEE WHICH MODE RR IS IN.
002292: 25,2542           70110                           MASK     RADMODES
002293: 25,2543           10000                           CCS      A
002294: 25,2544           14550                           TCF      MODE2CHK                              #  MODE 2 CAN USE RRLIMCHK CODING
002295: 25,2545           30061                           CA       ITEMP1
002296: 25,2546           04512                           TC       MAGSUB                                #  MODE 1 IS DEFINED AS
002297: 25,2547           66161                           DEC      -.30555                               #    1. ABS(T) L 55 DEGS
002298: 25,2550           00001                           TC       L                                     #    2  SHAFT LIMITS AT +59, -85 DEGS
002299:
002300: 25,2551           30062                           CA       ITEMP2                                #  LOAD SHAFT ANGLE
002301: 25,2552           00006                           EXTEND
002302: 25,2553           62561                           BZMF     NEGSHAFT                              #  IF NEGATIVE SHAFT ANGLE, ADD 20.5 DEGS
002303: 25,2554           64562                           AD       5.5DEGS
002304: 25,2555           04512        SHAFTLIM           TC       MAGSUB
002305: 25,2556           64420                           DEC      -.35833                               #  64.5 DEGREES
002306: 25,2557           00001                           TC       L                                     #  NOT IN LIMITS
002307: 25,2560           04560                           TC       RRLIMOK                               #  IN LIMITS
002308: 25,2561           62563        NEGSHAFT           AD       20.5DEGS                              #  MAKE NEGATIVE SHAFT LIMIT -85 DEGREES
002309: 25,2562           12555                           TCF      SHAFTLIM
002310:
002311:
002312: 25,2563           03512        20.5DEGS           DEC      .11389
002313:


002315:                                                                                                  #  PROGRAM NAME_  BEGDES
002316:
002317:                                                                                                  #  FUNCTIONAL DESCRIPTION_
002318:                                                                                                  #  BEGDES CHECKS VARIOUS DESIGNATE REQUESTS AND REQUESTS THE
002319:                                                                                                  #  ACTUAL RR DESIGNATION. INITIALLY A CHECK IS MADE TO SEE IF A
002320:                                                                                                  #  REMODE (RADMODES BIT 14) IS REQUESTED OR IN PROGRESS. IF SO,
002321:                                                                                                  #  CONTROL IS TRANSFERRED TO STDESIG AFTER ROUTINE REMODE IS
002322:                                                                                                  #  EXECUTED. IF NO REMODE, STDESIG IS IMMEDIATELY CALLED WHERE
002323:                                                                                                  #  FIRST THE REPOSITION FLAG (RADMODES BIT 11) IS CHECKED. IF
002324:                                                                                                  #  PRESENT, THE DESIGNATE FLAG (RADMODES BIT 10) IS REMOVED
002325:                                                                                                  #  AFTER WHICH THE PROGRAM EXITS TO RDBADEND. IF THE REPOSITION
002326:                                                                                                  #  FLAG IS NOT PRESENT, THE CONTINUOUS DESIGNATE FLAG (RADMODES
002327:                                                                                                  #  BIT 15) IS CHECKED. IF PRESENT, ON EXECUTIVE CALL IS IMMEDIATELY
002328:                                                                                                  #  MADE FOR DODES AFTER WHICH A .5 SECOND WAIT IS INITIATED BEFORE
002329:                                                                                                  #  REPEATING AT STDESIG. IF THE RR SEARCH ROUTINE (LRS24.1) IS DESIGNATING
002330:                                                                                                  #  TO A NEW POINT (NEWPTFLG SET) THE CURRENT DESIGNATE TASK IS TERMINATED.
002331:                                                                                                  #  IF CONTINUOUS DESIGNATE IS NOT WANTED, THE DESIGNATE FLAG (RADMODES
002332:                                                                                                  #  BIT 10) IS CHECKED. IF NOT PRESENT, THE PROGRAM EXITS TO ENDRADAR TO
002333:                                                                                                  #  CHECK RR CDU FAIL BEFORE RETURNING TO THE CALLING PROGRAM. IF DESIGNATE
002334:                                                                                                  #  IS STILL REQUIRED, DESCOUNT IS CHECKED TO SEE IF THE 30 SECONDS HAS
002335:                                                                                                  #  EXPIRED BEFORE RECEIVING THE RR DATA GOOD (CHAN 33 BIT 4)
002336:                                                                                                  #  SIGNAL. IF OUT OF TIME, PROGRAM ALARM 00503 IS REQUESTED, THE
002337:                                                                                                  #  RR AUTO TRACKER ENABLE AND RR ERROR COUNTER ENABLE
002338:                                                                                                  #  (CHAN 12 BITS 14,2) BITS REMOVED, AND THE DESIGNATE FLAG
002339:                                                                                                  #  (RADMODES BIT 10) REMOVED BEFORE EXITING TO RDBADEND. IF
002340:                                                                                                  #  TIME HAS NOT EXPIRED, DESCOUNT IS DECREMENTED, THE
002341:                                                                                                  #  EXECUTIVE CALL MADE FOR DODES, AND A .5 SECOND WAIT INITIATED
002342:                                                                                                  #  BEFORE REPEATING THIS PROCEDURE AT STDESIG.
002343:
002344:                                                                                                  #  CALLING SEQUENCE:
002345:                                                                                                  #  WAITLIST CALL FROM STARTDES
002346:                                                                                                  #  TCF BEGDES FROM DORREPOS
002347:                                                                                                  #  TC STDESIG RETURNING, FROM REMODE
002348:
002349:                                                                                                  #  ERASABLE INITIALIZATION REQUIRED:
002350:                                                                                                  #  DESCOUNT, RADMODES
002351:
002352:                                                                                                  #  SUBROUTINES CALLED_
002353:                                                                                                  #  ENDRADAR, FINDVAC
002354:
002355:                                                                                                  #  JOBS OR TASKS INITIATED_  DODES
002356:
002357:                                                                                                  #  ALARMS_  PROGRAM ALARM 00503 (30 SECONDS HAVE EXPIRED) WITH NO RR DATA
002358:                                                                                                  #  GOOD (CHAN 33 BIT 4) RECEIVED WHEN LOCK-ON (STATE BIT 5) WAS REQUESTED.
002359:
002360:                                                                                                  #  EXIT_  TASKOVER (SEARCH PATTERN DESIGNATING TO NEW POINT)
002361:                                                                                                  #  ENDRADAR (NO DESIGNATE - RADMODES BIT 10)
002362:                                                                                                  #  RDBADEND (REPOSITION OR 30 SECONDS EXPIRED)
002363:
002364: 25,2564           40110        BEGDES             CS       RADMODES


002366: 25,2565           74736                           MASK     REMODBIT
002367: 25,2566           10000                           CCS      A
002368: 25,2567           02573                           TC       STDESIG
002369: 25,2570           02162                           TC       REMODE
002370: 25,2571           05232        DESLOOP            TC       FIXDELAY                              #  2 SAMPLES PER SECOND.
002371: 25,2572           00062                           DEC      50         B-14
002372:
002373: 25,2573           34741        STDESIG            CAF      REPOSBIT
002374: 25,2574           70110                           MASK     RADMODES                              #  SEE IF GIMBAL LIMIT MONITOR HAS FOUND US
002375: 25,2575           10000                           CCS      A                                     #  OUT OF BOUNDS. IF SO, THIS BIT SHOWS A
002376: 25,2576           12614                           TCF      BADDES                                #  REPOSITION TO BE IN PROGRESS.
002377:
002378: 25,2577           10110                           CCS      RADMODES                              #  SEE IF CONTINUOUS DESIGNATE WANTED.
002379: 25,2600           12603                           TCF      +3                                    #  IF SO, DONT CHECK BIT 10 TO SEE IF IN
002380: 25,2601           12603                           TCF      +2                                    #  LIMITS BUT GO RIGHT TO FINDVAC ENTRY.
002381: 25,2602           12620                           TCF      MOREDES    +1
002382:
002383: 25,2603           40110                           CS       RADMODES                              #  IF NON-CONTINUOUS, SEE IF END OF
002384: 25,2604           74742                           MASK     DESIGBIT                              #  PROBLEM (DATA GOOD IF LOCK-ON WANTED OR
002385: 25,2605           10000                           CCS      A                                     #  WITHIN LIMITS IF NOT). IF SO, EXIT AFTER
002386: 25,2606           13614                           TCF      ENDRADAR                              #  CHECKING RR CDU FAIL.
002387:
002388: 25,2607           11113        STDESIG1           CCS      DESCOUNT                              #  SEE IF THE TINE LIMIT HAS EXPIRED
002389: 25,2610           12617                           TCF      MOREDES
002390:
002391: 25,2611           42625                           CS       B14+B2                                #  IF OUT OF TIME, REMOVE ECR ENABLE + TRKR
002392: 25,2612           00006                           EXTEND
002393: 25,2613           03012                           WAND     CHAN12
002394: 25,2614           05527        BADDES             TC       DOWNFLAG
002395: 25,2615           00271                           ADRES    DESIGFLG
002396: 25,2616           13630                           TCF      RDBADEND
002397:
002398: 25,2617           55113        MOREDES            TS       DESCOUNT
002399: 25,2620           37726                           CAF      PRIO26                                #  UPDATE GYRO TORQUE COMMANDS.
002400: 25,2621           05105                           TC       FINDVAC
002401: 25,2622  E7,1456                                  EBANK=   LOSCOUNT
002402: 25,2622           02626 52067                     2CADR    DODES
002403:
002404:
002405: 25,2624           12571                           TCF      DESLOOP
002406:
002407: 25,2625           20002        B14+B2             OCT      20002
002408:


002410:                                                                                                  #  PROGRAM NAME_  DODES
002411:
002412:                                                                                                  #  FUNCTIONAL DESCRIPTION_
002413:                                                                                                  #  DODES CALCULATES AND REQUESTS ISSUANCE OF RR GYRO TORQUE
002414:                                                                                                  #  COMMANDS. INITIALLY THE CURRENT RR CDU ANGLES ARE STORED AND
002415:                                                                                                  #  THE LOS HALF-UNIT VECTOR TRANSFORMED FROM STABLE MEMBER TO
002416:                                                                                                  #  NAVIGATION BASE COORDINATES VIA SMNB IF NECESSARY. THE
002417:                                                                                                  #  SHAFT AND TRUNNION COMMANDS ARE THEN CALCULATED AS FOLLOWS_
002418:                                                                                                  #  + SHAFT = LOS  . (COS(S), 0, -SIN (S)) (DOT PRODUCT)
002419:                                                                                                  #  -TRUNNION = LOS  . (SIN (T) SIN (S), COS (T), SIN (T) COS (S) )
002420:                                                                                                  #  THE SIGN OF THE SHAFT COMMAND IS THEN REVERSED IF IN MODE 2
002421:                                                                                                  #  (RADMODES BIT 12) BECAUSE A RELAY IN THE RR REVERSES THE
002422:                                                                                                  #  POLARITY OF THE COMMAND. AT RRSCALUP EACH COMMAND IS
002423:                                                                                                  #  SCALED AND IF EITHER, OR BOTH, OF THE COMMANDS IS GREATER THAN
002424:                                                                                                  #  .5 DEGREES, MPAC +1 IS SET POSITIVE. IF A CONTINUOUS DESIGNATE
002425:                                                                                                  #  (RADMODES BIT 15) IS DESIRED AND THE SEARCH ROUTINE IS NOT OPERATING,
002426:                                                                                                  #  THE RR AUTO TRACKER ENABLE BIT (CHAN 12 BIT 14) IS CLEARED AND RROUT
002427:                                                                                                  #  CALLED TO PUT OUT THE COMMANDS PROVIDED NO REPOSITION (RADMODES BIT 11)
002428:                                                                                                  #  IS IN PROGRESS. IF A CONTINUOUS DESIGNATE AND THE SEARCH ROUTINE IS
002429:                                                                                                  #  OPERATING (SRCHOPT FLAG SET) THE TRACK ENABLE IS NOT CLEARED. IF NO
002430:                                                                                                  #  CONTINUOUS DESIGNATE AND BOTH COMMANDS ARE NOT LESS THAN .5 DEGREES AS
002431:                                                                                                  #  INDICATED BY MPAC +1, THE RR AUTO TRACKER ENABLE BIT (CHAN 12 BIT 14) IS
002432:                                                                                                  #  CLEARED AND RROUT CALLED TO PUT OUT THE COMMANDS PROVIDED NO REPOSITION
002433:                                                                                                  #  (RADMODES BIT 11) IS IN PROGRESS. IF BOTH COMMANDS ARE LESS THAN .5
002434:                                                                                                  #  DEGREES AS INDICATED BY MPAC+1, THE RR AUTO TRACKER ENABLE BIT
002435:                                                                                                  #  (CHAN 12 BIT 14) IS CLEARED AND RROUT CALLED TO PUT OUT THE
002436:                                                                                                  #  COMMANDS PROVIDED NO REPOSITION (RADMODES BIT 11) IS IN
002437:                                                                                                  #  PROGRESS. IF BOTH COMMANDS ARE LESS THAN .5 DEGREES, THE
002438:                                                                                                  #  LOCK-ON FLAG (STATE BIT 5) IS CHECKED. IF NOT PRESENT, THE
002439:                                                                                                  #  DESIGNATE FLAG (RADMODES BIT 10) IS CLEARED, THE RR ERROR
002440:                                                                                                  #  COUNTER ENABLE BIT (CHAN 12 BIT 2) IS CLEARED, AND ENDOFJOB
002441:                                                                                                  #  CALLED. IF LOCK-ON IS DESIRED, THE RR AUTO TRACKER (CHAN 12
002442:                                                                                                  #  BIT 14) IS ENABLED FOLLOWED BY A CHECK OF THE RECEIPT OF THE
002443:                                                                                                  #  RR DATA GOOD (CHAN 33 BIT 4) SIGNAL. IF RR DATA GOOD
002444:                                                                                                  #  PRESENT, THE DESIGNATE FLAG (RADMODES BIT 10) IS CLEARED,
002445:                                                                                                  #  THE RR ERROR COUNTER ENABLE BIT (CHAN 12 BIT 2) IS CLEARED,
002446:                                                                                                  #  AND ENDOFJOB CALLED. IF RR DATA GOOD IS NOT PRESENT, RROUT
002447:                                                                                                  #  IS CALLED TO PUT OUT THE COMMANDS PROVIDED NO REPOSITION
002448:                                                                                                  #  (RADMODES BIT 11) IS IN PROGRESS AFTER WHICH THE JOB IS TERMINATED
002449:                                                                                                  #  VIA ENDOFJOB.
002450:
002451:                                                                                                  #  CALLING SEQUENCE:
002452:                                                                                                  #  EXECUTIVE CALL EVERY .5 SECONDS FROM BEGDES.
002453:
002454:                                                                                                  #  ERASABLE INITIALIZATION REQUIRED:
002455:                                                                                                  #  RRTARGET (HALF-UNIT LOS VECTOR IN EITHER SM OR NB COORDINATES),
002456:                                                                                                  #  LOKONSW (STATE BIT 5), RRNBSW (STATE BIT 6), RADMODES
002457:
002458:                                                                                                  #  SUBROUTINES CALLED_
002459:                                                                                                  #  READCDUS, SMNB, CDULOGIC, MAGSUB, RROUT
002460:


002462:                                                                                                  #  JOBS OR TASKS INITIATED_
002463:                                                                                                  #  NONE
002464:
002465:                                                                                                  #  ALARMS_  NONE
002466:
002467:                                                                                                  #  EXIT_  ENDOFJOB (ALWAYS)
002468:
002469: 25,2626           00006        DODES              EXTEND
002470: 25,2627           30036                           DCA      CDUT
002471: 25,2630           53107                           DXCH     TANG
002472:
002473: 25,2631           06051                           TC       INTPRET
002474:
002475: 25,2632           77201                           SETPD    VLOAD
002476: 25,2633           00001                                    0
002477: 25,2634           01101                                    RRTARGET
002478: 25,2635           74214                           BON      VXSC
002479: 25,2636           00311                                    RRNBSW
002480: 25,2637           52647                                    DONBRD                                #  TARGET IN NAV-BASE COORDINATES
002481: 25,2640           01765                                    MLOSV                                 #  MULTIPLY UNIT LOS BY MAGNITUDE
002482: 25,2641           63372                           VSL1     PDVL
002483: 25,2642           01757                                    LOSVEL
002484: 25,2643           53361                           VXSC     VAD                                   #  ADD ONE SECOND RELATIVE VELOCITY TO LOS
002485: 25,2644           13057                                    MCTOMS
002486: 25,2645           45056                           UNIT     CALL
002487: 25,2646           47653                                    CDU*SMNB
002488:
002489: 25,2647           14041        DONBRD             STODL    32D
002490: 25,2650           01110                                    TANG       +1
002491: 25,2651           41434                           RTB      PUSH                                  #  SHAFT COMMAND = V(32D).(COS(S), 0,
002492: 25,2652           21560                                    CDULOGIC                              #       (-SIN(S)).
002493: 25,2653           65356                           SIN      PDDL                                  #  SIN(S) TO 0 AND COS(S) TO 2.
002494: 25,2654           41546                           COS      PUSH
002495: 25,2655           65205                           DMP      PDDL
002496: 25,2656           00041                                    32D
002497: 25,2657           00045                                    36D
002498: 25,2660           44205                           DMP      BDSU
002499: 25,2661           00001                                    0
002500: 25,2662           77626                           STADR
002501: 25,2663           76667                           STORE    TANG       +1                         #  SHAFT COMMAND
002502:
002503: 25,2664           47135                           SLOAD    RTB
002504: 25,2665           01107                                    TANG
002505: 25,2666           21560                                    CDULOGIC
002506: 25,2667           71406                           PUSH     COS                                   #  COS(T) TO 4.
002507: 25,2670           73525                           PDDL     SIN
002508: 25,2671           41206                           PUSH     DMP                                   #  SIN(T) TO 6.
002509: 25,2672           00003                                    2
002510: 25,2673           65352                           SL1      PDDL                                  #  DEFINE VECTOR U = (SIN(T)SIN(S))
002511: 25,2674           00005                                    4                                     #                    (COS(T)      )


002513: 25,2675           41325                           PDDL     DMP                                   #                    (SIN(T)COS(S))
002514: 25,2676           00007                                    6
002515: 25,2677           00001                                    0
002516: 25,2700           55552                           SL1      VDEF
002517: 25,2701           77441                           DOT      EXIT                                  #  DOT U WITH LOS TO GET TRUNNION COMMAND.
002518: 25,2702           00041                                    32D
002519:


002521:                                                                                                  #           AT THIS POINT WE HAVE A ROTATION VECTOR IN DISH AXES LYING IN THE TS PLANE. CONVERT THIS TO A
002522:                                                                                                  #  COMMANDED RATE AND ENABLE THE TRACKER IF WE ARE WITHIN .5 DEGREES OF THE TARGET.
002523:
002524: 25,2703           40154                           CS       MPAC                                  #  DOT WAS NEGATIVE OF DESIRED ANGLE.
002525: 25,2704           00006                           EXTEND
002526: 25,2705           73053                           MP       RDESGAIN                              #  SCALING ON INPUT ANGLE WAS 4 RADIANS.
002527: 25,2706           55351                           TS       TRUNNCMD                              #  TRUNNION COMMAND FOR RROUT
002528: 25,2707           40110                           CS       RADMODES                              #  A RELAY IN THE RR REVERSES POLARITY OF
002529: 25,2710           74740                           MASK     BIT12                                 #  THE SHAFT COMMANDS IN MODE 2 SO THAT A
002530: 25,2711           00006                           EXTEND                                         #  POSITIVE TORQUE APPLIED TO THE SHAFT
002531: 25,2712           12715                           BZF      +3                                    #  GYRO CAUSES A POSITIVE CHANGE IN THE
002532: 25,2713           31107                           CA       TANG       +1                         #  SHAFT ANGLE. COMPENSATE FOR THIS SWITCH
002533: 25,2714           12716                           TCF      +2                                    #  BY CHANGING THE POLARITY OF OUR COMMAND.
002534: 25,2715           41107                 +3        CS       TANG       +1
002535: 25,2716           00006                           EXTEND
002536: 25,2717           73053                           MP       RDESGAIN                              #  SCALING ON INPUT ANGLE WAS 4 RADIANS.
002537: 25,2720           55352                           TS       SHAFTCMD                              #  SHAFT COMMAND FOR RROUT
002538: 25,2721           06051                           TC       INTPRET
002539:
002540: 25,2722           41345                           DLOAD    DMP
002541: 25,2723           00003                                    2                                     #  COS(S).
002542: 25,2724           00005                                    4                                     #  COS(T).
002543: 25,2725           65352                           SL1      PDDL                                  #  Z COMPONENT OF URR.
002544: 25,2726           65276                           DCOMP    PDDL                                  #  Y COMPONENT = -SIN(T).
002545: 25,2727           00001                                    0                                     #  SIN(S).
002546: 25,2730           72405                           DMP      SL1
002547: 25,2731           00005                                    4                                     #  COS(T).
002548: 25,2732           43066                           VDEF     BON                                   #  FORM URR IN NB AXES.
002549: 25,2733           00311                                    RRNBSW                                #  BYPASS NBSM CONVERSION IN VERB 41.
002550: 25,2734           52737                                    +3
002551: 25,2735           77624                           CALL
002552: 25,2736           47700                                    *NBSM*                                #  GET URR IN SM AXES.
002553: 25,2737           77441                           DOT      EXIT
002554: 25,2740           01101                                    RRTARGET                              #  GET COSINE OF ANGLE BETWEEN RR AND LOS.
002555:
002556: 25,2741           00006                           EXTEND
002557: 25,2742           43055                           DCS      COS1/2DG
002558: 25,2743           20155                           DAS      MPAC                                  #  DIFFERENCE OF COSINES, SCALED B-2.
002559: 25,2744           10154                           CCS      MPAC
002560: 25,2745           34755                           CA       ZERO                                  #  IF COS ERROR BIGGER, ERROR IS SMALLER.
002561: 25,2746           12750                           TCF      +2
002562: 25,2747           34753                           CA       ONE
002563: 25,2750           54155                           TS       MPAC       +1                         #  ZERO IF RR IS POINTED OK, ONE IF NOT.


002565:                                                                                                  #           SEE IF TRACKER SHOULD BE ENABLED OR DISABLED.
002566:
002567: 25,2751           10110                           CCS      RADMODES                              #  IF CONTINUOUS DESIGNATE WANTED, PUT OUT
002568: 25,2752           12755                           TCF      SIGNLCHK                              #  COMMANDS WITHOUT CHECKING MAGNITUDE OF
002569: 25,2753           12755                           TCF      SIGNLCHK                              #  ERROR SIGNALS
002570: 25,2754           13005                           TCF      DORROUT
002571: 25,2755           10155        SIGNLCHK           CCS      MPAC       +1                         #  SEE IF BOTH AXES WERE WITHIN .5 DEGS.
002572: 25,2756           12766                           TCF      DGOODCHK
002573: 25,2757           40074                           CS       STATE                                 #  IF WITHIN LIMITS AND NO LOCK-ON WANTED,
002574: 25,2760           74747                           MASK     LOKONBIT                              #  PROBLEM IS FINISHED.
002575: 25,2761           10000                           CCS      A
002576: 25,2762           12773                           TCF      RRDESDUN
002577:
002578: 25,2763           34736                           CAF      BIT14                                 #  ENABLE THE TRACKER.
002579: 25,2764           00006                           EXTEND
002580: 25,2765           05012                           WOR      CHAN12
002581:
002582: 25,2766           34750        DGOODCHK           CAF      BIT4                                  #  SEE IF DATA GOOD RECEIVED YET
002583: 25,2767           00006                           EXTEND
002584: 25,2770           02033                           RAND     CHAN33
002585: 25,2771           10000                           CCS      A
002586: 25,2772           13005                           TCF      DORROUT
002587:
002588: 25,2773           44742        RRDESDUN           CS       BIT10                                 #  WHEN PROBLEM DONE, REMOVE BIT 10 SO NEXT
002589: 25,2774           70110                           MASK     RADMODES                              #  WAITLIST TASK WE WILL GO TO RGOODEND.
002590: 25,2775           00004                           INHINT
002591: 25,2776           54110                           TS       RADMODES
002592:
002593: 25,2777           05527                           TC       DOWNFLAG                              #  RESET LOSCMFLG TO PREVENT A
002594: 25,3000           00041                           ADRES    LOSCMFLG                              #  RECOMPUTATION OF LOS AFTER DATA GOOD
002595: 25,3001           44752                           CS       BIT2                                  #  TURN OFF ENABLE RR ERROR COUNTER
002596: 25,3002           00006                           EXTEND
002597: 25,3003           03012                           WAND     CHAN12
002598: 25,3004           15155                           TCF      ENDOFJOB                              #  WITH ECTR DISABLED.
002599:
002600: 25,3005           30076        DORROUT            CA       FLAGWRD2                              #  IF BOTH LOSCMFLAG AND SEARCH FLAG ARE
002601: 25,3006           77724                           MASK     BIT12,14                              #  ZERO, BYPASS VELOCITY ADJUSTMENT TO LOS
002602: 25,3007           00006                           EXTEND
002603: 25,3010           13027                           BZF      NOTP20
002604: 25,3011           06051                           TC       INTPRET
002605: 25,3012           74375                           VLOAD    VXSC                                  #  MULTIPLY UNIT LOS BY MAGNITUDE
002606: 25,3013           01101                                    RRTARGET
002607: 25,3014           01765                                    MLOSV
002608: 25,3015           41572                           VSL1     PUSH
002609: 25,3016           74375                           VLOAD    VXSC                                  #  ADD .5 SEC. OF VELOCITY
002610: 25,3017           01757                                    LOSVEL                                #  TO LOS VECTOR
002611: 25,3020           13057                                    MCTOMS
002612: 25,3021           53362                           VSR1     VAD
002613: 25,3022           77656                           UNIT
002614: 25,3023           15101                           STODL    RRTARGET                              #  STORE VELOCITY-CORRECTED LOS (UNIT)


002616: 25,3024           00045                                    36D
002617: 25,3025           01765                           STORE    MLOSV                                 #  AND STORE MAGNITUDE
002618: 25,3026           77776                           EXIT
002619: 25,3027           00004        NOTP20             INHINT
002620: 25,3030           40110                           CS       RADMODES                              #  PUT OUT COMMAND UNLESS MONITOR
002621: 25,3031           74741                           MASK     REPOSBIT                              #  REPOSITION HAS TAKEN OVER.
002622: 25,3032           10000                           CCS      A
002623: 25,3033           02277                           TC       RROUT
002624:
002625: 25,3034           30076                           CA       FLAGWRD2
002626: 25,3035           74740                           MASK     LOSCMBIT                              #  IF LOSCMFLG NOT SET, DON'T TEST
002627: 25,3036           00006                           EXTEND                                         #  LOS COUNTER
002628: 25,3037           15155                           BZF      ENDOFJOB
002629: 25,3040           11456                           CCS      LOSCOUNT                              #  TEST LOS COUNTER TO SEE IF TIME TO GET
002630: 25,3041           03051                           TC       DODESEND                              #  A NEW LOS
002631: 25,3042           06032                           TC       KILLTASK                              #  YES - KILL TASK WHICH SCHEDULES DODES
002632: 25,3043           52573                           CADR     DESLOOP    +2
002633: 25,3044           00003                           RELINT
002634: 25,3045           10067                           CCS      NEWJOB
002635: 25,3046           05122                           TC       CHANG1
002636: 25,3047           04616                           TC       BANKCALL
002637: 25,3050           51014                           CADR     R21LEM2
002638:
002639:
002640: 25,3051           55456        DODESEND           TS       LOSCOUNT
002641: 25,3052           05155                           TC       ENDOFJOB
002642:
002643:
002644: 25,3053           21122        RDESGAIN           DEC      .53624                                #  TRIES TO NULL .5 ERROR IN .5 SEC.
002645: 25,3054     7724               BIT12,14           EQUALS   PRIO24                                #  OCT 24000
002646: 25,3054           07777 33005  COS1/2DG           2DEC     .999961923 B-2                        #  COSINE OF 0.5 DEGREES.
002647:
002648: 25,3056           00310 00000  MCTOMS             2DEC     100        B-13
002649:


002651:                                                                                                  #  RADAR READ INITIALIZATION
002652:
002653:                                                                                                  #  THE FOLLOWING ROUTINES MUST BE CALLED BY BANKCALL
002654:
002655: 25,3060           03074        LRALT              TC       INITREAD
002656: 25,3061           00017        ALLREAD            OCT      17
002657:
002658: 25,3062           03074        LRVELZ             TC       INITREAD
002659: 25,3063           00016                           OCT      16
002660:
002661: 25,3064           03074        LRVELY             TC       INITREAD
002662: 25,3065           00015                           OCT      15
002663:
002664: 25,3066           03074        LRVELX             TC       INITREAD
002665: 25,3067           00014                           OCT      14
002666:
002667: 25,3070           03074        RRRDOT             TC       INITREAD
002668: 25,3071           00012                           OCT      12
002669:
002670: 25,3072           03074        RRRANGE            TC       INITREAD
002671: 25,3073           00011                           OCT      11
002672:
002673:
002674: 25,3074           00004        INITREAD           INHINT
002675: 25,3075           50002                           INDEX    Q
002676: 25,3076           30000                           CA       0
002677: 25,3077           03106                           TC       PRERADAR
002678: 25,3100           34751                           CA       BIT3
002679: 25,3101           55105                           TS       TIMEHOLD   +1                         #  MIDPOINT OF READ IS ABOUT 40 MS AFTER
002680: 25,3102           00006                           EXTEND                                         #  START OF READ
002681: 25,3103           30025                           DCA      TIME2
002682: 25,3104           21105                           DAS      TIMEHOLD
002683:
002684: 25,3105           12357                           TCF      ROADBACK
002685:
002686:
002687: 25,3106           55077        PRERADAR           TS       RADUSE                                #  INDICATE RADAR READ ROUTINES IN USE.
002688: 25,3107           34755                           CA       ZERO
002689: 25,3110           55110                           TS       NSAMP
002690: 25,3111           55100                           TS       SAMPLSUM
002691: 25,3112           55101                           TS       SAMPLSUM   +1
002692: 25,3113           55104                           TS       TIMEHOLD
002693:
002694: 25,3114           33134                           CA       DGBITS
002695: 25,3115           00006                           EXTEND
002696: 25,3116           02033                           RAND     CHAN33
002697: 25,3117           55112                           TS       OLDATAGD
002698:
002699: 25,3120           43134                           CS       DGBITS                                #  RESET DATA GOOD BITS OF RADMODES
002700: 25,3121           70110                           MASK     RADMODES


002702: 25,3122           54110                           TS       RADMODES
002703:
002704: 25,3123           43061                           CS       ALLREAD
002705: 25,3124           00006                           EXTEND
002706: 25,3125           03013                           WAND     CHAN13                                #  CLEAR ALL RADAR BITS PRIOR TO READ
002707:
002708: 25,3126           00006                           EXTEND
002709: 25,3127           22070                           QXCH     RUPTREG1
002710:
002711: 25,3130           31077                           CA       RADUSE
002712: 25,3131           04674                           TC       IBNKCALL
002713: 25,3132           36000                           CADR     RADSTART
002714: 25,3133           00070                           TC       RUPTREG1
002715:
002716:
002717: 25,3134           00230        DGBITS             OCT      230                                   #  POSITION OF DATA GOOD BITS IN CHANNEL 33
002718: 25,3135           00014        VBITS              OCT      14                                    #  VSELECT = 0 BEFORE X READ
002719: 25,3136           00016                           OCT      16                                    #  VSELECT = 1 BEFORE Z READ
002720: 25,3137           00015                           OCT      15                                    #  VSELECT = 2 BEFORE Y READ
002721:
002722:
002723: 25,3140           40107        R12READ            CS       FLGWRD11
002724: 25,3141           74742                           MASK     NOLRRBIT                              #  IF NOLRREAD FLAG IS SET , BYPASS R12
002725: 25,3142           00006                           EXTEND
002726: 25,3143           15272                           BZF      TASKOVER
002727:
002728: 25,3144           51462                           INDEX    VSELECT
002729: 25,3145           33135                           CA       VBITS
002730: 25,3146           03106                           TC       PRERADAR
002731: 25,3147           36254                           CA       SIX                                   #  RADAR RUPT USES THIS FOR R12 READ
002732: 25,3150           55110                           TS       NSAMP


002734: 25,3151           36010                           CAF      OCT31                                 #  SET UP RDGIMS FOR MIDPOINT OF LR READ
002735: 25,3152           05214                           TC       WAITLIST
002736: 25,3153  E4,1643                                  EBANK=   LRTIME
002737: 25,3153           03570 76064                     2CADR    RDGIMS
002738:
002739: 25,3155           05272                           TC       TASKOVER
002740:


002742:                                                                                                  #  RADAR RUPT READER (R20)
002743:
002744:                                                                                                  #  THIS ROUTINE, WHICH IS INITIATED BY A RADAR RUPT, PROCESSES THE RADAR DATA AND UPDATES THE APPROPRIATE
002745:                                                                                                  #  DSKY LIGHTS.
002746:
002747: 25,2000                                           SETLOC   RADARUPT
002748: 25,2000                                           BANK
002749:
002750: 25,3156                                           COUNT*   $$/RRUPT
002751:
002752: 25,3156  E7,1453                                  EBANK=   TTOGO
002753:
002754: 25,3156           00006        RADAREAD           EXTEND                                         #  CONTINUATION OF INTERRUPT LEAD-IN.
002755: 25,3157           04007                           ROR      SUPERBNK                              #  SUPERBNK MUST BE SAVED BECAUSE RUPT
002756: 25,3160           54016                           TS       BANKRUPT                              #  MAY EXIT VIA TASKOVER.
002757: 25,3161           00006                           EXTEND
002758: 25,3162           22012                           QXCH     QRUPT
002759:
002760:
002761: 25,3163           34757                           CA       SEVEN                                 #  READ AND STORE RADAR SELECT BITS
002762: 25,3164           00006                           EXTEND
002763: 25,3165           02013                           RAND     CHAN13
002764: 25,3166           55332                           TS       RADBITS
002765:
002766: 25,3167           00006                           EXTEND                                         #  IF RADAR SELECT BITS ARE ZERO, ALARM
002767: 25,3170           13176                           BZF      BADRUPT                               #  WITHOUT READING DATA
002768:
002769: 25,3171           30046                           CA       RNRAD                                 #  STORE RAW DATA FOR DOWNLINK.
002770: 25,3172           51332                           INDEX    RADBITS
002771: 25,3173           55327                           TS       DNRRANGE   -1
002772:
002773: 25,3174           11077                           CCS      RADUSE                                #  IF RADUSE IS ZERO, THIS IS A BAD RUPT
002774: 25,3175           13202                           TCF      WHICHRAD
002775:
002776: 25,3176           55077        BADRUPT            TS       RADUSE
002777: 25,3177           05600                           TC       ALARM
002778: 25,3200           00520                           OCT      520
002779: 25,3201           05301                           TC       RESUME
002780:
002781: 25,3202           46257        WHICHRAD           CS       THREE                                 #  IF RADBITS IS LESS THAN THREE,
002782: 25,3203           61332                           AD       RADBITS                               #  THE RENDEZVOUS RADAR IS BEING READ.
002783: 25,3204           00006                           EXTEND
002784: 25,3205           63272                           BZMF     RENDRAD
002785:
002786: 25,3206           40101        LANDRAD            CS       FLAGWRD5                              #  THE LANDING RADAR IS BEING READ
002787: 25,3207           74741                           MASK     R77FLBIT
002788: 25,3210           00006                           EXTEND                                         #  IF R77 IS RUNNING, EXIT HERE
002789: 25,3211           13252                           BZF      R77EXIT
002790:
002791: 25,3212           44757                           CS       SEVEN                                 #  IF RADBITS IS SEVEN, THE LANDING


002793: 25,3213           61332                           AD       RADBITS                               #  RADAR ALITUDE IS BEING READ
002794: 25,3214           00006                           EXTEND
002795: 25,3215           13266                           BZF      LRHEIGHT
002796:
002797: 25,3216           34733        LRSPEED            CA       POSMAX                                #  DECODE THE 15 BIT READING AND
002798: 25,3217           70046                           MASK     RNRAD                                 #  SUBTRACT THE BIAS.
002799: 25,3220           62000                           AD       LVELBIAS
002800: 25,3221           54064                           TS       ITEMP4
002801: 25,3222           54001                           TS       L
002802: 25,3223           30046                           CA       RNRAD
002803: 25,3224           60000                           DOUBLE
002804: 25,3225           74753                           MASK     BIT1
002805: 25,3226           54063                           TS       ITEMP3
002806: 25,3227           21101                           DAS      SAMPLSUM                              #  ACCUMULATE THE READING
002807:
002808: 25,3230           34744                           CA       BIT8                                  #  VOLOCITY DATA GOOD BIT
002809: 25,3231           54061        DGCHECK            TS       ITEMP1
002810: 25,3232           33134        DGCHECK2           CA       DGBITS                                #  UPDATE THE STATUS OF THE DATA GOOD BITS
002811: 25,3233           00006                           EXTEND
002812: 25,3234           02033                           RAND     CHAN33
002813: 25,3235           57112                           XCH      OLDATAGD
002814: 25,3236           70061                           MASK     ITEMP1
002815: 25,3237           54001                           TS       L                                     #  OLD STATUS
002816: 25,3240           30061                           CA       ITEMP1
002817: 25,3241           71112                           MASK     OLDATAGD                              #  CURRENT STATUS
002818: 25,3242           60001                           AD       L
002819: 25,3243           10000                           CCS      A                                     #  BOTH SHOULD BE ZERO
002820: 25,3244           13255                           TCF      BADRAD                                #  DATA GOOD NOT PRESENT
002821:
002822: 25,3245           11110        GOODRAD            CCS      NSAMP                                 #  TEST FOR R12
002823: 25,3246           13402                           TCF      R12EXIT
002824:
002825: 25,3247           52064                           DXCH     ITEMP3                                #  STORE DATA FOR CALLING ROUTINE
002826: 25,3250           53101                           DXCH     SAMPLSUM
002827: 25,3251           03647                           TC       RADLITES                              #  UPDATE DSKY LIGHTS.
002828:
002829: 25,3252           34755        R77EXIT            CA       ZERO                                  #  ZERO RADUSE
002830: 25,3253           55077                           TS       RADUSE
002831: 25,3254           03621                           TC       RGOODEND   -2
002832:
002833:
002834: 25,3255           40110        BADRAD             CS       RADMODES                              #  UPDATE RADMODES BIT ONLY IF DATA BAD
002835: 25,3256           70061                           MASK     ITEMP1
002836: 25,3257           26110                           ADS      RADMODES
002837:
002838: 25,3260           11110                           CCS      NSAMP                                 #  TEST FOR R12
002839: 25,3261           13402                           TCF      R12EXIT
002840:
002841: 25,3262           03647                           TC       RADLITES                              #  UPDATE DSKY LIGHTS
002842: 25,3263           34755        RRBADEND           CA       ZERO                                  #  ZERO RADUSE


002844: 25,3264           55077                           TS       RADUSE
002845: 25,3265           03626                           TC       RDBADEND   -2
002846:
002847:
002848: 25,3266           34747        LRHEIGHT           CA       BIT5                                  #  DATA GOOD BIT FOR ALTITUDE
002849: 25,3267           54061                           TS       ITEMP1
002850: 25,3270           34743                           CA       BIT9                                  #  LO SCALE BIT FOR LR
002851: 25,3271           03315                           TC       SCALECHK
002852:
002853: 25,3272           00006        RENDRAD            EXTEND
002854: 25,3273           31454                           DCA      TTOGO                                 #  LOAD TIME TO TIG
002855: 25,3274           53272                           DXCH     TTOTIG                                #  FOR R65 RADAR READING.
002856:
002857: 25,3275           34741                           CA       REPOSBIT                              #  MAKE SURE ANTENNA HAS NOT
002858: 25,3276           70110                           MASK     RADMODES                              #  GONE OUT OF LIMITS.
002859: 25,3277           10000                           CCS      A
002860: 25,3300           13263                           TCF      RRBADEND
002861:
002862: 25,3301           40110                           CS       RADMODES                              #  BE SURE RR CDU HASN'T FAILED.
002863: 25,3302           74745                           MASK     RCDUFBIT
002864: 25,3303           10000                           CCS      A
002865: 25,3304           13263                           TCF      RRBADEND
002866:
002867: 25,3305           34750                           CA       BIT4                                  #  DATA GOOD BIT FOR RR
002868: 25,3306           54061                           TS       ITEMP1
002869:
002870: 25,3307           34753                           CA       BIT1                                  #  TEST FOR RANGE OR RANGE RATE
002871: 25,3310           71332                           MASK     RADBITS
002872: 25,3311           54002                           TS       Q                                     #  SAVE FOR LATER TESTING
002873: 25,3312           00006                           EXTEND
002874: 25,3313           13324                           BZF      RADIN                                 #  IF ROOT, READ DATA
002875:
002876: 25,3314           34751                           CA       BIT3                                  #  LO SCALE BIT FOR RR.
002877: 25,3315           54001        SCALECHK           TS       L
002878: 25,3316           30110                           CA       RADMODES                              #  TEST THE SCALE BIT SPECIFIED IN L
002879: 25,3317           00006                           EXTEND                                         #  TO SEE IF IT IS THE SMAE AS LAST
002880: 25,3320           06033                           RXOR     CHAN33                                #  TIME.
002881: 25,3321           70001                           MASK     L                                     #  IF BIT IS THE SMAE IN RADMODES AND
002882: 25,3322           10000                           CCS      A                                     #  CHAN33, THEN A WILL BE ZERO
002883: 25,3323           03363                           TC       SCALCHNG                              #  SCALE CHANGED
002884:
002885: 25,3324           34733        RADIN              CA       POSMAX                                #  UNPACK 15 BIT RADAR READING
002886: 25,3325           70046                           MASK     RNRAD
002887: 25,3326           54064                           TS       ITEMP4
002888:
002889: 25,3327           30046                           CA       RNRAD
002890: 25,3330           60000                           DOUBLE
002891: 25,3331           74753                           MASK     BIT1
002892: 25,3332           54063                           TS       ITEMP3
002893:


002895: 25,3333           10002                           CCS      Q                                     #  TEST FOR RR RANGE RATE (Q = 0)
002896: 25,3334           13341                           TCF      SCALADJ                               #  RANGE OR LR HEIGHT . TEST SCALE
002897:
002898: 25,3335           00006                           EXTEND                                         #  RR RANGE RATE - SUBTRACT BIAS
002899: 25,3336           42002                           DCS      RDOTBIAS
002900: 25,3337           20064        DASAMPL            DAS      ITEMP3
002901: 25,3340           13232                           TCF      DGCHECK2                              #  TEST DATA GOOD
002902:
002903: 25,3341           30110        SCALADJ            CA       RADMODES                              #  TEST SCALE BIT
002904: 25,3342           70001                           MASK     L
002905: 25,3343           00006                           EXTEND
002906: 25,3344           13232                           BZF      DGCHECK2                              #  LO SCALE
002907:
002908: 25,3345           74751                           MASK     BIT3                                  #  HI SCALE - TEST FOR LR
002909: 25,3346           00006                           EXTEND                                         #  IF BIT3 = 0,THEN IT IS LR
002910: 25,3347           13356                           BZF      LRSCK
002911:
002912: 25,3350           52064                           DXCH     ITEMP3                                #  RESCALE RR DATA TO LO SCALING
002913: 25,3351           20001                           DDOUBL                                         #  MULTIPLY BY 8.
002914: 25,3352           20001                           DDOUBL
002915: 25,3353           20001                           DDOUBL
002916: 25,3354           52064                           DXCH     ITEMP3
002917: 25,3355           13232                           TCF      DGCHECK2
002918:
002919: 25,3356           00006        LRSCK              EXTEND                                         #  RESCALE LR DATA TO LO SCALING
002920: 25,3357           30064                           DCA      ITEMP3                                #  MULTIPLY BY 5.
002921: 25,3360           20001                           DDOUBL
002922: 25,3361           20001                           DDOUBL
002923: 25,3362           13337                           TCF      DASAMPL
002924:
002925:
002926: 25,3363           30110        SCALCHNG           CA       RADMODES
002927: 25,3364           00006                           EXTEND                                         #  INVERT SCALE BIT IN RADMODES
002928: 25,3365           06001                           RXOR     LCHAN
002929: 25,3366           54110                           TS       RADMODES
002930:
002931: 25,3367           11110                           CCS      NSAMP                                 #  TEST FOR R12
002932: 25,3370           13400                           TCF      R12SCHNG
002933:
002934: 25,3371           05515                           TC       UPFLAG                                #  SET RNGSCFLG FOR LRS24.1
002935: 25,3372           00120                           ADRES    RNGSCFLG
002936:
002937: 25,3373           33134                           CA       DGBITS                                #  UPDATE DATA GOOD BITS
002938: 25,3374           00006                           EXTEND
002939: 25,3375           02033                           RAND     CHAN33
002940: 25,3376           55112                           TS       OLDATAGD
002941: 25,3377           13263                           TCF      RRBADEND
002942:
002943:
002944: 25,3400           55110        R12SCHNG           TS       NSAMP                                 #  UPDATE NSAMP AND IGNORE READING.


002946: 25,3401           13413                           TCF      READVEL
002947:
002948: 25,3402           55110        R12EXIT            TS       NSAMP                                 #  UPDATE NSAMP
002949: 25,3403           00006                           EXTEND
002950: 25,3404           13444                           BZF      STORVEL
002951:
002952: 25,3405           67757                           AD       NEG3
002953: 25,3406           00006                           EXTEND
002954: 25,3407           13424                           BZF      STORALT
002955:
002956: 25,3410           67761                           AD       NEGONE
002957: 25,3411           00006                           EXTEND
002958: 25,3412           13422                           BZF      READALT
002959: 25,3413           44757        READVEL            CS       SEVEN
002960: 25,3414           00006                           EXTEND
002961: 25,3415           03013                           WAND     CHAN13
002962: 25,3416           31077                           CA       RADUSE
002963: 25,3417           04674        READALT2           TC       IBNKCALL
002964: 25,3420           36000                           CADR     RADSTART
002965: 25,3421           05301                           TC       RESUME
002966:
002967:
002968: 25,3422           33061        READALT            CA       ALLREAD                               #  SET UP LR ALTITUDE READ
002969: 25,3423           13417                           TCF      READALT2
002970:
002971: 25,3424           52064        STORALT            DXCH     ITEMP3
002972: 25,3425           53655                           DXCH     HMEAS                                 #  STORE ALT IN HMEAS
002973:
002974: 25,3426           40110                           CS       RADMODES                              #  TEST DATA GOOD
002975: 25,3427           74747                           MASK     BIT5
002976: 25,3430           00006                           EXTEND
002977: 25,3431           13441                           BZF      HBAD                                  #  DATA GOOD NOT PRESENT
002978:
002979: 25,3432           11677                           CCS      STILBADH                              #  IF DATA JUST GOOD,OR IG RESTART JUST
002980: 25,3433           13442                           TCF      HSTILBAD                              #  OCCURRED,WAIT
002981:
002982: 25,3434           40107                           CS       FLGWRD11                              #  SET FLAG FORR12.
002983: 25,3435           74750                           MASK     RNGEDBIT                              #  (CANNOT USE UPFLAG BECAUSE ITEMP1 IS
002984: 25,3436           26107                           ADS      FLGWRD11                              #    DESTROYED)
002985: 25,3437           03647        ALTEXIT            TC       RADLITES
002986: 25,3440           13413                           TCF      READVEL
002987:
002988: 25,3441           34752        HBAD               CA       TWO                                   #  SET STILBADH FOR FOUR SECOND DELAY
002989: 25,3442           55677        HSTILBAD           TS       STILBADH
002990: 25,3443           13437                           TCF      ALTEXIT
002991:
002992: 25,3444           40110        STORVEL            CS       RADMODES                              #  TEST DATA GOOD
002993: 25,3445           74744                           MASK     BIT8
002994: 25,3446           00006                           EXTEND
002995: 25,3447           13513                           BZF      VBAD                                  #  DATA GOOD NOT PRESENT
002996:


002998: 25,3450           11700                           CCS      STILBADV
002999: 25,3451           13514                           TCF      VSTILBAD
003000:
003001: 25,3452           40107                           CS       FLGWRD11                              #  DATA IS GOOD, SET FLAG FOR R12
003002: 25,3453           74745                           MASK     VELDABIT                              #  (CANNOT USE UPFLAG BECAUSE ITEMP1 IS
003003: 25,3454           26107                           ADS      FLGWRD11                              #    DESTROYED)
003004: 25,3455           11462        R12DL              CCS      VSELECT                               #  UPDATE VSELECT
003005: 25,3456           13460                           TCF      +2
003006: 25,3457           34752                           CA       TWO
003007: 25,3460           55462                           TS       VSELECT
003008:
003009: 25,3461           53101                           DXCH     SAMPLSUM                              #  STORE VEL DATA IN VMEAS
003010: 25,3462           53653                           DXCH     VMEAS
003011:
003012: 25,3463           00006                           EXTEND
003013: 25,3464           31655                           DCA      HMEAS                                 #  STORE HMEAS FOR DOWNLINK
003014: 25,3465           53771                           DXCH     HMEASDL
003015:


003018: 25,3466           34741                           CAF      EBANK4
003019: 25,3467           54003                           TS       EBANK
003020: 25,3470  E4,1643                                  EBANK=   LRTIME
003021:
003022: 25,3470           00006                           EXTEND
003023: 25,3471           31647                           DCA      LRYCDU
003024: 25,3472           52062                           DXCH     ITEMP1
003025:
003026: 25,3473           31645                           CA       LRXCDU
003027: 25,3474           54063                           TS       ITEMP3
003028:
003029: 25,3475           00006                           EXTEND
003030: 25,3476           31644                           DCA      LRTIME
003031:
003032: 25,3477           24006                           INCR     BBANK
003033: 25,3500           24006                           INCR     BBANK
003034: 25,3501           24006                           INCR     BBANK
003035: 25,3502  E7,1772                                  EBANK=   LRTIMEDL
003036:
003037: 25,3502           53773                           DXCH     LRTIMEDL
003038:
003039: 25,3503           52062                           DXCH     ITEMP1
003040: 25,3504           53460                           DXCH     AIG
003041:
003042: 25,3505           30063                           CA       ITEMP3
003043: 25,3506           55461                           TS       AOG
003044:
003045: 25,3507           03647                           TC       RADLITES                              #  UPDATE DSKY VEL LIGHT
003046: 25,3510           34755                           CA       ZERO
003047: 25,3511           55077                           TS       RADUSE
003048: 25,3512           05301                           TC       RESUME
003049:


003051: 25,3513           34752        VBAD               CA       TWO
003052: 25,3514           55700        VSTILBAD           TS       STILBADV
003053: 25,3515           13455                           TCF      R12DL
003054:


003056:                                                                                                  #           CODING TO PROTECT CHANNEL 13 WILL RADAR READ IS IN CRITICAL PERIOD
003057:
003058:
003059: 17,2000                                           SETLOC   C13BANK
003060: 17,2000                                           BANK
003061:
003062: 17,2000           54002        RADSTART           TS       Q
003063: 17,2001           00006                 +1        EXTEND
003064: 17,2002           00004                           READ     LOSCALAR                              #  READ PRESENT TIME
003065: 17,2003           54001                           TS       L
003066:
003067: 17,2004           74346                           MASK     LOW5                                  #  ONLY THE LOW 5 BITS MATTER
003068: 17,2005           40000                           COM
003069: 17,2006           64746                           AD       BIT6                                  #  COMPUTE DELTA TIME TO NEXT T5 TICK
003070: 17,2007           74346                           MASK     LOW5
003071: 17,2010           55270                           TS       RADDEL
003072:
003073: 17,2011           67760                           AD       NEG2                                  #  IF A TICKING OF T5 IS NEAR, WAIT UNTIL
003074: 17,2012           00006                           EXTEND                                         #  IT HAS TICKED.  THE MAX DELAY HERE WILL
003075: 17,2013           62001                           BZMF     RADSTART   +1                         #  BE 937.5 MICROSECONDS
003076:
003077: 17,2014           30002                           CA       Q
003078: 17,2015           00006                           EXTEND                                         #  IT IS SAFE TO SET THE ACTIVITY BIT NOW
003079: 17,2016           05013                           WOR      CHAN13                                #  BECAUSE OF THE ABOVE LOOP
003080:
003081: 17,2017           40001                           CS       L
003082: 17,2020           55267                           TS       RADTIME                               #  SAVE NEGATIVE TIME OF READ
003083: 17,2021           04707                           TC       ISWRETRN
003084:
003085:
003086: 17,2022           55266        C13STAL1           TS       C13FSAV
003087:
003088: 17,2023           34750                           CA       BIT4
003089: 17,2024           00006                           EXTEND
003090: 17,2025           02013                           RAND     CHAN13
003091: 17,2026           00006                           EXTEND
003092: 17,2027           12050                           BZF      TCQSTAL                               #  IF NO RADAR ACTIVITY, RETURN
003093:
003094: 17,2030           12031        C13SLOOP           NOOP                                           #  *** NECESSARY TO PREVENT A TC TRAP ***
003095: 17,2031           00006                           EXTEND
003096: 17,2032           00004                           READ     LOSCALAR
003097: 17,2033           61267                           AD       RADTIME                               #  COMPUTE DELTA T SINCE LAST RADAR READ
003098: 17,2034           64736                           AD       HALF
003099: 17,2035           64736                           AD       HALF                                  #  CORRECT FOR TIME OVERFLOW
003100: 17,2036           56001                           XCH      L
003101:
003102: 17,2037           32053                           CA       90MSCALR
003103: 17,2040           61270                           AD       RADDEL
003104: 17,2041           00006                           EXTEND
003105: 17,2042           60001                           SU       L


003107: 17,2043           00006                           EXTEND
003108: 17,2044           62050                           BZMF     TCQSTAL                               #  FORBIDDEN  ZONE IS PAST, RETURN
003109:
003110: 17,2045           62054                           AD       -DTSCALR
003111: 17,2046           00006                           EXTEND
003112: 17,2047           62030                           BZMF     C13SLOOP                              #  IN THE FORBIDDEN PERIOD, LOOP UNTIL O.K.
003113:
003114: 17,2050           22002        TCQSTAL            LXCH     Q                                     #  ALL IS WELL, RETURN
003115: 17,2051           31266                           CA       C13FSAV
003116: 17,2052           52005                           DTCF
003117:
003118: 17,2053           00440        90MSCALR           OCT      440                                   #  90 MILLISEC IN SCALAR
003119: 17,2054           77754        -DTSCALR           OCT      77754                                 #  -5.9375 MS IN SCALAR
003120:
003121:    6000                                           SETLOC   FFTAG6
003122:    6000                                           BANK
003123:
003124:    6022           37736        C13STALL           CAF      PRIO36                                #  PRIO36 = 36000 = FCADR (17,2000)
003125:    6023           56004                           XCH      FBANK
003126:    6024           12022                           TCF      C13STAL1
003127:


003129:                                                                                                  #  THIS ROUTINE CHANGES THE LR POSITION, AND CHECKS THAT IT GOT THERE.
003130:
003131: 25,3516                                           BANK     25
003132: 25,2000                                           SETLOC   P20S1
003133: 25,2000                                           BANK
003134: 25,3516                                           COUNT*   $$/RSUB
003135: 25,3516           00004        LRPOS2             INHINT
003136:
003137: 25,3517           40110                           CS       RADMODES
003138: 25,3520           74746                           MASK     LRPOSBIT                              #  SHOW DESIRED LR POSITION IS 2
003139: 25,3521           26110                           ADS      RADMODES
003140:
003141: 25,3522           34745                           CAF      BIT7
003142: 25,3523           00006                           EXTEND
003143: 25,3524           02033                           RAND     CHAN33                                #  SEE IF ALREADY THERE.
003144: 25,3525           00006                           EXTEND
003145: 25,3526           13537                           BZF      RADNOOP
003146:
003147: 25,3527           34737                           CAF      BIT13
003148: 25,3530           00006                           EXTEND
003149: 25,3531           05012                           WOR      CHAN12                                #  COMMAND TO POSITION 2
003150: 25,3532           33572                           CAF      6SECS                                 #  START SCANNING FOR INBIT AFTER 7 SECS.
003151: 25,3533           05214                           TC       WAITLIST
003152: 25,3534  E7,1456                                  EBANK=   LOSCOUNT
003153: 25,3534           03570 52067                     2CADR    LRPOSCAN
003154:
003155: 25,3536           02357                           TC       ROADBACK
003156:
003157: 25,3537           34753        RADNOOP            CAF      ONE                                   #  NO FURTHER ACTION REQUESTED
003158: 25,3540           05214                           TC       WAITLIST
003159: 25,3541  E7,1456                                  EBANK=   LOSCOUNT
003160: 25,3541           03623 52067                     2CADR    RGOODEND
003161:
003162: 25,3543           02357                           TC       ROADBACK
003163:
003164: 25,3544           55077        LRPOSNXT           TS       SAMPLIM
003165: 25,3545           05232                           TC       FIXDELAY                              #  SCAN ONCE PER SECOND 5 TIMES MAX AFTER
003166: 25,3546           00144                           DEC      100        B-14                       #  INITIAL DELAY OF 7 SECONDS.
003167:
003168: 25,3547           34745                           CAF      BIT7                                  #  SEE IF LR POS2 IS ON
003169: 25,3550           00006                           EXTEND
003170: 25,3551           02033                           RAND     CHAN33
003171: 25,3552           00006                           EXTEND
003172: 25,3553           13562                           BZF      LASTLRDT                              #  IF THERE, WAIT FINAL SECOND FOR BOUNCE.
003173:
003174: 25,3554           11077                           CCS      SAMPLIM                               #  SEE IF MAX TIME UP.
003175: 25,3555           13544                           TCF      LRPOSNXT
003176:
003177: 25,3556           44737                           CS       BIT13                                 #  IF TIME UP, DISABLE COMMAND AND ALARM.
003178: 25,3557           00006                           EXTEND


003180: 25,3560           03012                           WAND     CHAN12
003181: 25,3561           13630                           TCF      RDBADEND
003182:
003183: 25,3562           35000        LASTLRDT           CA       2SECS                                 #  WAIT TWO SECONDS AFTER RECEIPT OF INBIT
003184: 25,3563           05235                           TC       VARDELAY                              #  TO WAIT FOR ANTENNA BOUNCE TO DIE OUT.
003185:
003186: 25,3564           44737                           CS       BIT13                                 #  REMOVE COMMAND
003187: 25,3565           00006                           EXTEND
003188: 25,3566           03012                           WAND     CHAN12
003189: 25,3567           13623                           TCF      RGOODEND
003190:
003191: 25,3570           34751        LRPOSCAN           CAF      FOUR
003192: 25,3571           13544                           TCF      LRPOSNXT
003193: 25,3572           01130        6SECS              DEC      600        B-14
003194:
003195: 25,3573           04616        LRP2COMM           TC       BANKCALL
003196: 25,3574           53516                           CADR     LRPOS2
003197: 25,3575           04616                           TC       BANKCALL
003198: 25,3576           17713                           CADR     RADSTALL
003199: 25,3577           03601                           TC       LP2ALM
003200: 25,3600           13612                           TCF      GOPINNER
003201:
003202: 25,3601           05600        LP2ALM             TC       ALARM
003203: 25,3602           00523                           OCT      523
003204: 25,3603           13612                           TCF      GOPINNER
003205:
003206: 25,3604           35016        V59GP63            CA       EBANK7
003207: 25,3605           54003                           TS       EBANK
003208: 25,3606  E7,1427                                  EBANK=   RPCRTIME
003209: 25,3606           34733                           CA       POSMAX
003210: 25,3607           55427                           TS       RPCRTIME
003211: 25,3610           44736                           CS       BIT14
003212: 25,3611           55430                           TS       RPCRTQSW
003213: 25,3612           04635        GOPINNER           TC       POSTJUMP
003214: 25,3613           21051                           CADR     PINBRNCH
003215:


003217:                                                                                                  #           SEQUENCES TO TERMINATE RR OPERATIONS.
003218:
003219: 25,3614           34745        ENDRADAR           CAF      RCDUFBIT                              #  PROLOG TO CHECK RR CDU FAIL BEFORE END.
003220: 25,3615           70110                           MASK     RADMODES
003221: 25,3616           10000                           CCS      A
003222: 25,3617           13623                           TCF      RGOODEND
003223: 25,3620           13630                           TCF      RDBADEND
003224: 25,3621           44755                 -2        CS       ZERO                                  #  RGOODEND WHEN NOT UNDER WAITLIST CONTROL
003225: 25,3622           54332                           TS       RUPTAGN
003226:
003227: 25,3623           34752        RGOODEND           CAF      TWO
003228: 25,3624           04635                           TC       POSTJUMP
003229: 25,3625           17664                           CADR     GOODEND
003230:
003231: 25,3626           44755                 -2        CS       ZERO                                  #  RDBADEND WHEN NOT UNDER WAITLIST.
003232: 25,3627           54332                           TS       RUPTAGN
003233: 25,3630           34752        RDBADEND           CAF      TWO
003234: 25,3631           04635                           TC       POSTJUMP
003235: 25,3632           17661                           CADR     BADEND
003236:
003237: 25,3633     6257               BIN3               EQUALS   THREE
003238:


003240:                                                                                                  #  PROGRAM NAME_ LPS20.1 VECTOR EXTRAPOLATION AND LOS COMPUTATION
003241:                                                                                                  #  MOD. NO.  2      BY  J.D. COYNE    SDC    DATE   12-7-66
003242:
003243:
003244:                                                                                                  #  FUNCTIONAL DESCRIPTION_
003245:
003246:                                                                                                  #  1) EXTRAPOLATE THE LEM AND CSM VECTORS IN ACCORDANCE WITH THE TIME REFERED TO IN CALLER + 1.
003247:                                                                                                  #  2) COMPUTES THE LOS VECTOR TO THE CSM, CONVERTS IT TO STABLE MEMBER COORDINATES AND STORES IT IN RRTARGET.
003248:                                                                                                  #  3) COMPUTES THE MAGNITUDE OF THE LOS VECTOR AND STORES IT IN MLOSV
003249:
003250:
003251:                                                                                                  #  CALLING SEQUENCE       CALL
003252:                                                                                                  #                                LPS20.1
003253:
003254:                                                                                                  #  SUBROUTINES CALLED_
003255:
003256:                                                                                                  #  LEMPREC,CSMPREC
003257:
003258:
003259:                                                                                                  #  NORMAL EXIT_ RETURN TO CALLER + 2
003260:
003261:
003262:                                                                                                  #  ERROR EXITS_ NONE
003263:
003264:
003265:                                                                                                  #  ALARMS_ NONE
003266:
003267:
003268:                                                                                                  #  OUTPUT_
003269:
003270:                                                                                                  #  LOS VECTOR (HALF UNIT) IN SM COORDINATES STORED IN RRTARGET
003271:                                                                                                  #  MAGNITUDE OF THE LOS VECTOR (METERS SCALED B-29) STORED IN MSLOV
003272:                                                                                                  #  RRNBSW CLEARED
003273:
003274:
003275:                                                                                                  #  INITIALIZED ERASEABLE
003276:
003277:                                                                                                  #  TDEC1 MUST CONTAIN THE TIME FOR EXTRAPOLATION
003278:                                                                                                  #  SEE ORBITAL INTEGRATION ROUTINE
003279:
003280:
003281:                                                                                                  #  DEBRIS_
003282:
003283:                                                                                                  #  MPAC DESTROYED BY THIS ROUTINE
003284:
003285: 23,2335                                           BANK     23
003286: 24,2000                                           SETLOC   P20S
003287: 24,2000                                           BANK


003289: 24,3340                                           COUNT*   $$/LPS20
003290:
003291: 24,3340           43020        LPS20.1            STQ      BOFF
003292: 24,3341           01755                                    LS21X
003293: 24,3342           01343                                    LOSCMFLG                              #  LOSCMFLG = 0 MEANS NOT CALLED BY R21
003294: 24,3343           51347                                    LMINT                                 #  SO CALL LEMCONIC TO GET LM STATE
003295: 24,3344           77614                           BON                                            #  IF IN R21 AND ON LUNAR SURFACE
003296: 24,3345           04307                                    SURFFLAG                              #  DON'T CALL LEMCONIC
003297: 24,3346           51357                                    CSMINT
003298: 24,3347           77624        LMINT              CALL
003299: 24,3350           27077                                    LEMCONIC                              #  EXTRAPOLATE LEM
003300: 24,3351           77775                           VLOAD
003301: 24,3352           00001                                    RATT
003302: 24,3353           26343                           STOVL    LMPOS                                 #  SAVE LM POSITION B-29
003303: 24,3354           00007                                    VATT
003304: 24,3355           16351                           STODL    LMVEL                                 #  SAVE LM VELOCITY B-7
003305: 24,3356           00015                                    TAT
003306: 24,3357           34041        CSMINT             STCALL   TDEC1
003307: 24,3360           27065                                    CSMCONIC                              #   EXTRAPOLATE CSM
003308: 24,3361           52375                           VLOAD    VSU                                   #  COMPUTE RELATIVE VELOCITY V(CSM) - V(LM)
003309: 24,3362           00007                                    VATT
003310: 24,3363           02351                                    LMVEL
003311: 24,3364           00017                           STORE    VELLOS
003312: 24,3365           76521                           MXV      VSL1
003313: 24,3366           01732                                    REFSMMAT
003314: 24,3367           77776                           EXIT
003315: 24,3370           06032                           TC       KILLTASK                              #  KILL THE TASK WHICH CALLS DODES SINCE
003316: 24,3371           52573                           CADR     DESLOOP    +2                         #  STORING INTO ERASEABLES DODES USES
003317: 24,3372           06051                           TC       INTPRET
003318: 24,3373           25757                           STOVL    LOSVEL
003319: 24,3374           00001                                    RATT
003320: 24,3375           43051                           VSU      BOFF
003321: 24,3376           02343                                    LMPOS
003322: 24,3377           00350                                    RNDVZFLG
003323: 24,3400           51405                                    NOTSHIFT
003324: 24,3401           00025                           STORE    RRANGE                                #  RANGE FOR POSSIBLE ALARM B-29
003325: 24,3402           54204                           BOVB     VSL
003326: 24,3403           57735                                    TCDANZIG
003327: 24,3404           20212                                    9D
003328: 24,3405           41056        NOTSHIFT           UNIT     BOVB                                  #  IF OVERFLOW , RANGE MUST BE GREATER
003329: 24,3406           50104                                    526ALARM                              #  THAN 400 N. M.
003330: 24,3407           76521                           MXV      VSL1
003331: 24,3410           01732                                    REFSMMAT                              #  CONVERT TO STABLE MEMBER
003332: 24,3411           15101                           STODL    RRTARGET
003333: 24,3412           00045                                    36D                                   #  SAVE MAGNITUDE OF LOS VECTOR FOR
003334: 24,3413           01765                           STORE    MLOSV                                 #  VELOCITY CORRECTION IN DESIGNATE
003335: 24,3414           77614                           CLRGO
003336: 24,3415           00231                                    RRNBSW
003337: 24,3416           01755                                    LS21X
003338: 24,3417                        RRANGE             EQUALS   20D


003340: 24,3417                        VELLOS             EQUALS   14D
003341:


003343:                                                                                                  #  PROGRAM NAME : LPS20.2 400 N. MI. RANGE CHECK
003344:                                                                                                  #  MOD. NO. 2   BY J.D. COYNE   SDC    DATE  12-7-66
003345:
003346:
003347:                                                                                                  #  FUNCTIONAL DESCRIPTION_
003348:
003349:                                                                                                  #  COMPARES THE MAGNITUDE OF THE LOS VECTOR TO 400 NM
003350:
003351:
003352:                                                                                                  #  CALLING SEQUENCE       CALL
003353:                                                                                                  #                                LPS20.2
003354:
003355:
003356:                                                                                                  #  SUBROUTINES CALLED_ NONE
003357:
003358:
003359:                                                                                                  #  NORMAL EXIT _ RETURN TO CALLER +1, MPAC EQ 0 (RANGE 400NM OR LESS.)
003360:
003361:
003362:                                                                                                  #  ERROR EXITS _ RETURN TO CALLER +1, MPAC EQ 1 (RANGE GREATER THAN 400NM)
003363:
003364:
003365:                                                                                                  #  ALARMS_ NONE
003366:
003367:
003368:                                                                                                  #  OUTPUT_ NONE
003369:
003370:
003371:                                                                                                  #  INITIALIZED ERASEABLE_
003372:
003373:                                                                                                  #  PDL 36D MUST CONTAIN THE MAGNITUDE OF THE VECTOR
003374:                                                                                                  #  DEBRIS
003375:
003376:                                                                                                  #  MPAC DESTROYED BY THIS ROUTINE
003377:
003378: 25,2000                                           SETLOC   P20S1
003379: 25,2000                                           BANK
003380: 25,3633                                           COUNT*   $$/LPS20
003381:
003382: 25,3633           45345        LPS20.2            DLOAD    DSU
003383: 25,3634           01765                                    MLOSV                                 #  MAGNITUDE OF LOS
003384: 25,3635           13646                                    FHNM                                  #  OVER 400NM  _
003385: 25,3636           77644                           BPL
003386: 25,3637           53642                                    TOFAR
003387: 25,3640           43535                           SLOAD    RVQ
003388: 25,3641           06520                                    ZERO/SP
003389: 25,3642           43535        TOFAR              SLOAD    RVQ
003390: 25,3643           13645                                    ONE/SP
003391: 25,3644           00001        ONE/SP             DEC      1          B-14


003393: 25,3645           26467 00000  FHNM               2DEC     740800     B-20                       #  400 NAUTICAL MILES IN METERS B-20
003394:


003396:                                                                                                  #  PROGRAM NAME: LRS22.1 (DATA READ SUBROUTINE 1)
003397:                                                                                                  #  MOD. NO.: 1       BY:  P. VOLANTE  SDC           DATE:  11-15-66
003398:
003399:
003400:                                                                                                  #  FUNCTIONAL DESCRIPTION
003401:
003402:                                                                                                  #  1) READS RENDEZVOUS RADAR RANGE AND RANGE-RATE,TRUNION AND SHAFT ANGLES,THREE CDU VALUES AND TIME. CONVERTS THIS
003403:                                                                                                  #  DATA AND LEAVES IT FOR THE MEASUREMENT INCORPORATION ROUTINE (LSR22.3). CHECKS FOR THE RR DATA GOOD DISCRETE,FOR
003404:                                                                                                  #  RR REPOSITION AND RR CDU FAIL
003405:
003406:                                                                                                  #  2) COMPARES RADAR LOS WITH LOS COMPUTED FROM STATE VECTORS TO SEE IF THEY ARE WITHIN THREE DEGREES
003407:
003408:
003409:                                                                                                  #  CALLING SEQUENCE: BANKCALL FOR LRS22.1
003410:
003411:
003412:                                                                                                  #  SUBROUTINES CALLED:
003413:
003414:                                                                                                  #         RRRDOT   LPS20.1
003415:                                                                                                  #         RRRANGE  BANKCALL
003416:                                                                                                  #         RADSTALL CDULOGIC
003417:                                                                                                  #         RRNB     SMNB
003418:                                                                                                  #  NORMAL EXIT: RETURN TO CALLER+1 WITH MPAC SET TO +0
003419:
003420:
003421:                                                                                                  #  ERROR EXITS: RETURN TO CALLER+1 WITH ERROR CODE STORED IN MPAC AS FOLLOWS:
003422:
003423:                                                                                                  #               00001-ERROR EXIT 1-RR DATA NO GOOD (NO RR DATA GOOD DISCRETE OR RR CDU FAIL OR RR REPOSITION)
003424:                                                                                                  #               00002-ERROR EXIT 2-RR LOS NOT WITHIN THREE DEGREES OF LOS COMPUTED FROM STATE VECTORS
003425:
003426:
003427:                                                                                                  #  ALARMS:  521-COULD NOT READ RADAR DATA (RR DATA GOOD DISCRETE NOT PRESENT BEFORE AND AFTER READING THE RADAR)
003428:                                                                                                  #   (THIS ALARM IS ISSUED BY THE RADAREAD SUBROUTINE WHICH IS ENTERED FROM A RADARUPT)
003429:
003430:
003431:                                                                                                  #  OUTPUT: RRLOSVEC- THE RR LINE-OF-SIGHT VECTOR(USED BY LRS22.2)-A HALF-UNIT VECTOR
003432:                                                                                                  #          RM- THE RR RANGE READING(TO THE CSM) DP, IN METERS SCALED B-29(USED BY LRS22.2 AND LRS22.3)
003433:
003434:                                                                                                  #     ALL OF THE FOLLOWING OUTPUTS ARE USED BY LRS22.3:
003435:
003436:                                                                                                  #          RDOTM- THE RR RANGE-RATE READING,DP, IN METERS PER CENTISECOND, SCALED B-7
003437:                                                                                                  #          RRTRUN-RR TRUNION ANGLE,DP,IN REVOLUTIONS,SCALED B0
003438:                                                                                                  #          RRSHAFT-RR SHAFT ANGLE,DP,IN REVOLUTIONS,SCALED B0
003439:                                                                                                  #          AIG,AMG,AOG-THE CDU ANGLES,THREE SP WORDS
003440:                                                                                                  #          MKTIME-THE TIME OF THE RR READING,DP,IN CENTISECONDS
003441:
003442:
003443:                                                                                                  #  ERASABLE INITIALIZATION REQUIRED:
003444:
003445:                                                                                                  #     RNRAD,THE RADAR READ COUNTER FROM WHICH IS OBTAINED:


003447:                                                                                                  #      1)RR RANGE SCALED 9.38 FT. PER BIT ON THE LOW SCALE AND 75.04 FT. PER BIT ON THE HIGH SCALE
003448:                                                                                                  #      2)RR RANGE RATE,SCALED .6278 FT./SEC. PER BIT
003449:
003450:                                                                                                  #     THE CDU ANGLES FROM CDUX,CDUY,CDUZ AND TIME1 AND TIME2
003451:
003452:
003453:                                                                                                  #  DEBRIS:  LRS22.1X,A,L,Q,PUSHLIST
003454:
003455:
003456: 32,2217                                           BANK     32
003457: 32,2000                                           SETLOC   LRS22
003458: 32,2000                                           BANK
003459: 32,2217                                           COUNT*   $$/LRS22
003460:
003461: 32,2217           04645        LRS22.1            TC       MAKECADR
003462: 32,2220           55737                           TS       LRS22.1X
003463: 32,2221           05527                           TC       DOWNFLAG
003464: 32,2222           00120                           ADRES    RNGSCFLG
003465: 32,2223           00004                           INHINT
003466: 32,2224           34751                           CAF      BIT3
003467: 32,2225           00006                           EXTEND                                         #  GET RR RANGE SCALE
003468: 32,2226           02033                           RAND     CHAN33                                #  FROM CHANNEL 33 BIT 3
003469: 32,2227           54001                           TS       L
003470: 32,2230           44751                           CS       RRRSBIT
003471: 32,2231           70110                           MASK     RADMODES
003472: 32,2232           60001                           AD       L
003473: 32,2233           54110                           TS       RADMODES
003474: 32,2234           00003                           RELINT
003475: 32,2235           04616        READRDOT           TC       BANKCALL
003476: 32,2236           53070                           CADR     RRRDOT                                #  READ RANGE-RATE (ONE SAMPLE)
003477: 32,2237           04616                           TC       BANKCALL
003478: 32,2240           17713                           CADR     RADSTALL                              #  WAIT FOR DATA READ COMPLETION
003479: 32,2241           12402                           TCF      EREXIT1                               #  COULD NOT READ RADAR-ERROR EXIT 1
003480:
003481: 32,2242           00004                           INHINT                                         #  NO INTERRUPTS WHILE READING TIME AND CDU
003482: 32,2243           53105                           DXCH     TIMEHOLD                              #  SET MARK TIME EQUAL TO THE MID-POINT
003483: 32,2244           52162                           DXCH     MPAC       +5                         #  TEMP BUFFER FOR DOWNLINK
003484: 32,2245           53101                           DXCH     SAMPLSUM                              #  SAVE RANGE-RATE READING
003485: 32,2246           53747                           DXCH     RDOTMSAV
003486: 32,2247           00006                           EXTEND
003487: 32,2250           30034                           DCA      CDUY                                  #  SAVE ICDU ANGLES
003488: 32,2251           52160                           DXCH     MPAC       +3                         #  TEMP BUFFER FOR DOWNLINK
003489: 32,2252           30032                           CA       CDUX
003490: 32,2253           54156                           TS       MPAC       +2                         #  TEMP BUFFER FOR DOWNLINK
003491: 32,2254           00006                           EXTEND
003492: 32,2255           30025                           DCA      TIME2                                 #   SAVE TIME
003493: 32,2256           52155                           DXCH     MPAC                                  #  SAVE TIME OF CDY READINGS IN MPAC
003494: 32,2257           00006                           EXTEND
003495: 32,2260           30036                           DCA      CDUT                                  #  SAVE TRUNION AND SHAFT ANGLES FOR RRNB
003496: 32,2261           53107                           DXCH     TANG


003498: 32,2262           00003                           RELINT
003499: 32,2263           04616                           TC       BANKCALL
003500: 32,2264           53072                           CADR     RRRANGE                               #  READ RR RANGE (ONE SAMPLE)
003501: 32,2265           04616                           TC       BANKCALL
003502: 32,2266           17713                           CADR     RADSTALL                              #  WAIT FOR READ COMPLETE
003503: 32,2267           02376                           TC       CHEXERR                               #  CHECK FOR ERRORS DURING READ
003504: 32,2270           00004                           INHINT                                         #  COPY CYCLE FOR MARK DATA ON DOWNLINK
003505: 32,2271           00006                           EXTEND
003506: 32,2272           31331                           DCA      DNRRANGE                              #  RANGE,RANGE RATE (RAW DATA)
003507: 32,2273           53761                           DXCH     RANGRDOT
003508: 32,2274           52162                           DXCH     MPAC       +5
003509: 32,2275           53755                           DXCH     MKTIME                                #  MARK TIME
003510: 32,2276           52160                           DXCH     MPAC       +3
003511: 32,2277           53460                           DXCH     AIG                                   #  CDUY, CDUZ
003512: 32,2300           00006                           EXTEND
003513: 32,2301           31107                           DCA      TANG                                  #  PRESERVE TANG
003514: 32,2302           53753                           DXCH     TANGNB                                #  TRUNNION AND SHAFT ANGLES
003515: 32,2303           30156                           CA       MPAC       +2
003516: 32,2304           55461                           TS       AOG                                   #  CDUX
003517: 32,2305           40110                           CS       FLGWRD12                              #  IS RR READING HIGH SCALE
003518: 32,2306           74751                           MASK     RRRSBIT
003519: 32,2307           10000                           CCS      A
003520: 32,2310           34733                           CA       POSMAX                                #  NO- LOW SCALE (SET CONFIG) AGSCODE=17777
003521: 32,2311           67750                           AD       -BIT14                                #  YES- HI SCALE (SET CONFIG) AGSCODE=57777
003522: 32,2312           55073                           TS       AGSCODE                               #  SET AGS CODE WORD
003523: 32,2313           06051                           TC       INTPRET
003524: 32,2314           14025                           STODL    20D                                   #  SAVE TIME OF CDU READINGS IN 20D
003525: 32,2315           03747                                    RDOTMSAV                              #  CONVERT ROOT UNITS AND SCALING
003526: 32,2316           57261                           SL       DMPR                                  #  START WITH READING SCALED B-28, -.6278
003527: 32,2317           20217                                    14D                                   #  FT./SECOND PER BIT
003528: 32,2320           24002                                    RDOTCONV                              #  END WITH METERS/CENTISECOND, B-7
003529: 32,2321           03751                           STORE    RDOTM
003530: 32,2322           47135                           SLOAD    RTB
003531: 32,2323           01107                                    TANG                                  #  GET TRUNION ANGLE
003532: 32,2324           21560                                    CDULOGIC                              #  CONVERT TO DP ONES COMP. IN REVOLUTIONS
003533: 32,2325           03734                           STORE    RRTRUN                                #  AND SAVE FOR TMI ROUTINE (LSR22.3)
003534: 32,2326           47135                           SLOAD    RTB
003535: 32,2327           01110                                    TANG       +1                         #  DITTO FOR SHAFT ANGLE
003536: 32,2330           21560                                    CDULOGIC
003537: 32,2331           17736                           STODL    RRSHAFT
003538: 32,2332           01101                                    SAMPLSUM
003539: 32,2333           66405                           DMP      SL2R                                  #  CONVERT UNITS AND SCALING OF RANGE
003540: 32,2334           24004                                    RANGCONV                              #  PER BIT, END WITH METERS,SCALED -29
003541: 32,2335           37757                           STCALL   RM
003542: 32,2336           46041                                    RRNB                                  #  COMPUTE RADAR LOS USING RRNB
003543: 32,2337           17741                           STODL    RRBORSIT                              #  AND SAVE
003544: 32,2340           00025                                    20D
003545: 32,2341           34041                           STCALL   TDEC1                                 #  GET STATE VECTOR LOS AT TIME OF CDU READ
003546: 32,2342           51340                                    LPS20.1
003547: 32,2343           77776                           EXIT


003549: 32,2344           31457                           CA       AIG                                   #  STORE IMU CDU ANGLES AT MARKTIME
003550: 32,2345           54765                           TS       CDUSPOT                               #  IN CDUSPOT FOR TRG*SMNB
003551: 32,2346           31460                           CA       AMG
003552: 32,2347           54767                           TS       CDUSPOT    +2
003553: 32,2350           31461                           CA       AOG
003554: 32,2351           54771                           TS       CDUSPOT    +4
003555: 32,2352           06051                           TC       INTPRET
003556: 32,2353           45175                           VLOAD    CALL                                  #  LOAD VECTOR AND CALL TRANSFORMATION
003557: 32,2354           01101                                    RRTARGET
003558: 32,2355           47656                                    TRG*SMNB                              #  ROTATE LOS AT MARKTIME FROM SM TO NB.
003559: 32,2356           77641                           DOT                                            #  DOT WITH RADAR LOS TO GET ANGLE
003560: 32,2357           03741                                    RRBORSIT
003561: 32,2360           65552                           SL1      ACOS                                  #  BETWEEN THEM
003562: 32,2361           01045                           STORE    DSPTEM1                               #  STORE FOR POSSIBLE DISPLAY
003563: 32,2362           50025                           DSU      BMN                                   #  IS IT LESS THAN 3 DEGREES
003564: 32,2363           24406                                    THREEDEG
003565: 32,2364           64371                                    NORMEXIT                              #  YES-NORMAL EXIT
003566:
003567: 32,2365           77776                           EXIT                                           #  ERROR EXIT 2
003568: 32,2366           34752                           CAF      BIT2                                  #  SET ERROR CODE
003569: 32,2367           54154                           TS       MPAC
003570: 32,2370           12374                           TCF      OUT22.1
003571:
003572: 32,2371           77776        NORMEXIT           EXIT                                           #  NORMAL EXIT-SET MPAC EQUAL ZERO
003573: 32,2372           34755                           CAF      ZERO
003574: 32,2373           54154                           TS       MPAC
003575: 32,2374           31737        OUT22.1            CAE      LRS22.1X                              #  EXIT FROM LRS22.1
003576: 32,2375           04640                           TC       BANKJUMP
003577: 32,2376           30101        CHEXERR            CAE      FLAGWRD5
003578: 32,2377           74742                           MASK     RNGSCBIT
003579: 32,2400           10000                           CCS      A                                     #  CHECK IF RANGE SCALE CHANGED
003580: 32,2401           12235                           TCF      READRDOT                              #  YES-TAKE ANOTHER READING
003581:
003582: 32,2402           34753        EREXIT1            CA       BIT1                                  #  SET ERROR CODE
003583: 32,2403           54154                           TS       MPAC
003584: 32,2404           02374                           TC       OUT22.1
003585: 32,2405           00210 21042  THREEDEG           2DEC     .008333333                            #  THREE DEGREES,SCALED  REVS,B0
003586:


003588:                                                                                                  #  PROGRAM NAME - LRS22.2 (DATA READ SUBROUTINE 2)
003589:
003590:
003591:                                                                                                  #  MOD. NO. : 1       BY: P VOLANTE  SDC           DATE  4-11-67
003592:
003593:                                                                                                  #  FUNCTIONAL DESCRIPTION-
003594:


003596:                                                                                                  #     2) CHECKS IF THE RR LOS (I.E. THE RADAR BORESIGHT VECTOR) IS WITHIN 30 DEGREES OF THE LM +Z AXIS
003597:
003598:
003599:                                                                                                  #  CALLING SEQUENCE- BANKCALL FOR LRS22.2
003600:
003601:
003602:                                                                                                  #  SUBROUTINES CALLED: G+N,AUTO   SETMAXDB
003603:                                                                                                  #  NORMAL EXIT - RETURN TO CALLER WITH MPAC SET TO +0 (VIA SWRETURN)
003604:
003605:
003606:                                                                                                  #  ERROR EXIT - RETURN TO CALLER WITH MPAC SET TO 00001 -RADAR LOS NOT WITHIN 30 DEGREES OF LM +Z AXIS
003607:
003608:
003609:                                                                                                  #  ALARMS - NONE                                                            IN THE AUTO MODE
003610:
003611:
003612:                                                                                                  #  ERASABLE INITIALIZATION REQUIRED -
003613:                                                                                                  #       RRLOSVEC - THE RR LINE-OF-SIGHT VECTOR-A HALF UNIT VECTOR COMPUTED BY LRS22.1
003614:                                                                                                  #       RM - RR RANGE, METERS B-29, FROM LRS22.1
003615:                                                                                                  #       BIT 14 CHANNEL 31 -INDICATES AUTOPILOT IS IN AUTO MODE
003616:
003617:
003618:                                                                                                  #  DEBRIS -  A,L,Q MPAC -PUSHLIST AND PUSHLOC ARE NOT CHANGED BY THIS ROUTINE
003619:
003620:
003621: 24,2000                                           SETLOC   P20S
003622: 24,2000                                           BANK
003623: 24,3417           04645        LRS22.2            TC       MAKECADR
003624: 24,3420           55737                           TS       LRS22.1X
003625: 24,3421           06051                           TC       INTPRET
003626:                                                                                                  #  CHECK IF RR LOS IS WITHIN 30 DEG OF
003627: 24,3422           65545        30DEGCHK           DLOAD    ACOS                                  #  THE SPACECRAFT +Z AXIS
003628: 24,3423           03745                                    RRBORSIT   +4                         #  BY TAKING ARCCOS OF Z-COMP. OF THE RR
003629:                                                                                                  #  LOS VECTOR,A HALF UNIT VECTOR
003630:                                                                                                  #  IN NAV BASE AXES)
003631: 24,3424           50025                           DSU      BMN
003632: 24,3425           11441                                    30DEG
003633: 24,3426           51433                                    OKEXIT                                #  NORMAL EXIT-WITHIN 30 DEG.
003634: 24,3427           77776                           EXIT                                           #  ERROR EXIT-NOT WITHIN 30 DEG.
003635: 24,3430           34753                           CAF      BIT1                                  #  SET ERROR CODE IN MPAC
003636: 24,3431           54154                           TS       MPAC
003637: 24,3432           13436                           TCF      OUT22.2
003638: 24,3433           77776        OKEXIT             EXIT                                           #  NORMAL EXIT-SET MPAC = ZERO
003639:


003641: 24,3434           34755                           CAF      ZERO
003642: 24,3435           54154                           TS       MPAC
003643: 24,3436           31737        OUT22.2            CAE      LRS22.1X
003644: 24,3437           04640                           TC       BANKJUMP
003645:
003646:
003647: 24,3440           02525 12525  30DEG              2DEC     .083333333                            #  THIRTY DEGREES,SCALED REVS,B0
003648:


003650:                                                                                                  #  PROGRAM NAME - LSR22.3                                                  DATE - 29 MAY 1967
003651:                                                                                                  #  MOD. NO 3                                                               LOG SECTION - P20-25
003652:                                                                                                  #  MOD. BY - DANFORTH                                                      ASSEMBLY LEMP20S REV 10
003653:
003654:                                                                                                  #  FUNCTIONAL DESCRIPTION
003655:
003656:                                                                                                  #  THIS ROUTINE COMPUTES THE B-VECTORS AND DELTA Q FOR EACH OF THE QUANTITIES MEASURED BY THE RENDEZVOUS
003657:                                                                                                  #  RADAR.(RANGE,RANGE RATE,SHAFT AND TRUNNION ANGLES). THE ROUTINE CALLS THE INCORP1 AND INCORP2 ROUTINES
003658:                                                                                                  #  WHICH COMPUTE THE DEVIATIONS AND CORRECT THE STATE VECTOR.
003659:
003660:                                                                                                  #  CALLING SEQUENCE
003661:                                                                                                  #  THIS ROUTINE IS PART OF P20 RENDEZVOUS NAVIGATION FOR THE LM COMPUTER O NLY. THE ROUTINE IS ENTERED FROM
003662:                                                                                                  #  R22LEM  ONLY AND RETURNS DIRECTLY TO R22LEM  FOLLOWING SUCCESSFUL INCORPORATION OF MEASURED DATA. IF THE
003663:                                                                                                  #  COMPUTED STATE VECTOR DEVIATIONS EXCEED THE MAXIMUM PERMITTED. THE ROUTINE RETURNS TO R22LEM  TO DISPLAY
003664:                                                                                                  #  THE DEVIATIONS. IF THE ASTRONAUT ACCEPTS THE DATA R22LEM  RETURNS TO    LSR22.3 TO INCORPORATE THE
003665:                                                                                                  #  DEVIATIONS INTO THE STATE VECTOR. IF THE ASTRONAUT REJECTS THE DEVIATIONS, NO MORE MEASUREMENTS ARE
003666:                                                                                                  #  PROCESSED FOR THIS MARK,I.E.,R22LEM  GETS THE NEXT MARK.
003667:
003668:
003669:                                                                                                  #  SUBROUTINES CALLED
003670:                                                                                                  #   WLINIT     LGCUPDTE     INTEGRV     INCORP1     ARCTAN
003671:                                                                                                  #   GETULC     RARARANG     INCORP2     NBSM        INTSTALL
003672:
003673:                                                                                                  #  OUTPUT
003674:                                                                                                  #   CORRECTED LM OR CSM STATE VECTOR (PERMANENT)
003675:                                                                                                  #   NUMBER OF MARKS INCORPORATED IN MARKCTR
003676:                                                                                                  #   MAGNITUDE OF POSITION DEVIATION (FOR DISPLAY) IN R22DISP METERS B-29
003677:                                                                                                  #   MAGNITUDE OF VELOCITY DEVIATION (FOR DISPLAY) IN R22DISP +2 M/CSEC B-7
003678:                                                                                                  #   UPDATED W-MATRIX
003679:
003680:
003681:                                                                                                  #  ERASABLE INITIALIZATION REQUIRED
003682:                                                                                                  #   LM AND CSM STATE VECTORS
003683:                                                                                                  #   W-MATRIX
003684:                                                                                                  #   MARK TIME IN MKTIME
003685:                                                                                                  #   RADAR RANGE IN RM METERS B-29
003686:                                                                                                  #         RANGE RATE IN RDOTM METERS/CSES B-7
003687:                                                                                                  #         SHAFT ANGLE IN RRSHAFT REVS.B0
003688:                                                                                                  #         TRUNNION ANGLE IN RRTRUN REVS. B0
003689:                                                                                                  #   GIMBAL ANGLES  INNER IN AIG
003690:                                                                                                  #                  MIDDLE IN AMG
003691:                                                                                                  #                  OUTER IN AOG
003692:                                                                                                  #   REFSMMAT
003693:                                                                                                  #   RENDWFLG
003694:                                                                                                  #   NOANGFLG
003695:                                                                                                  #   VEHUPFLG
003696:
003697:                                                                                                  #  DEBRIS
003698:                                                                                                  #   PUSHLIST--ALL
003699:                                                                                                  #   MX, MY, MZ  (VECTORS)


003701:                                                                                                  #   ULC,RXZ,SINTHETA,LGRET,RDRET,BVECTOR,W.IND,X78T
003702:
003703:
003704: 13,2207                                           BANK     13
003705: 26,2000                                           SETLOC   P20S3
003706: 26,2000                                           BANK
003707:
003708: 26,2420  E7,1456                                  EBANK=   LOSCOUNT
003709: 26,2420                                           COUNT*   $$/LSR22
003710: 26,2420           77624        LSR22.3            CALL
003711: 26,2421           11216                                    GRP2PC
003712: 26,2422           43014                           BON      SET
003713: 26,2423           04307                                    SURFFLAG                              #  ARE WE ON LUNAR SURFACE
003714: 26,2424           55202                                    LSR22.4                               #  YES
003715: 26,2425           02466                                    DMENFLG
003716: 26,2426           45014                           BOFF     CALL
003717: 26,2427           00747                                    VEHUPFLG
003718: 26,2430           54462                                    DOLEM
003719: 26,2431           27410                                    INTSTALL
003720: 26,2432           45014                           CLEAR    CALL                                  #  LM PRECISION INTEGRATION
003721: 26,2433           01674                                    VINTFLAG
003722: 26,2434           26643                                    SETIFLGS
003723: 26,2435           77624                           CALL
003724: 26,2436           55244                                    INTGRCAL
003725: 26,2437           77624                           CALL
003726: 26,2440           11216                                    GRP2PC
003727: 26,2441           77624                           CALL
003728: 26,2442           27410                                    INTSTALL
003729: 26,2443           43014                           CLEAR    BOFF
003730: 26,2444           01676                                    DIM0FLAG
003731: 26,2445           02756                                    RENDWFLG
003732: 26,2446           54452                                    NOTWCSM
003733: 26,2447           43014                           SET      SET                                   #  CSM WITH W-MATRIX INTEGRATION
003734: 26,2450           01476                                    DIM0FLAG
003735: 26,2451           01475                                    D6OR9FLG
003736: 26,2452           43014        NOTWCSM            SET      CLEAR
003737: 26,2453           01474                                    VINTFLAG
003738: 26,2454           01673                                    INTYPFLG
003739: 26,2455           45014                           SET      CALL
003740: 26,2456           01472                                    STATEFLG
003741: 26,2457           55244                                    INTGRCAL
003742: 26,2460           77650                           GOTO
003743: 26,2461           54512                                    MARKTEST
003744: 26,2462           77624        DOLEM              CALL
003745: 26,2463           27410                                    INTSTALL
003746: 26,2464           45014                           SET      CALL
003747: 26,2465           01474                                    VINTFLAG
003748: 26,2466           26643                                    SETIFLGS
003749: 26,2467           77624                           CALL
003750: 26,2470           55244                                    INTGRCAL


003752: 26,2471           77624                           CALL
003753: 26,2472           11216                                    GRP2PC
003754: 26,2473           77624                           CALL
003755: 26,2474           27410                                    INTSTALL
003756: 26,2475           43014                           CLEAR    BOFF
003757: 26,2476           01676                                    DIM0FLAG
003758: 26,2477           02756                                    RENDWFLG
003759: 26,2500           54504                                    NOTWLEM
003760: 26,2501           43014                           SET      SET                                   #  LM WITH W-MATRIX INTEGRATION
003761: 26,2502           01476                                    DIM0FLAG
003762: 26,2503           01475                                    D6OR9FLG
003763: 26,2504           43014        NOTWLEM            CLEAR    CLEAR
003764: 26,2505           01673                                    INTYPFLG
003765: 26,2506           01674                                    VINTFLAG
003766: 26,2507           45014                           SET      CALL
003767: 26,2510           01472                                    STATEFLG
003768: 26,2511           55244                                    INTGRCAL
003769: 26,2512           45014        MARKTEST           BON      CALL                                  #  HAS W-MATRIX BEEN INVALIDATED
003770: 26,2513           02716                                    RENDWFLG                              #  HAS W-MATRIX BEEN INVALIDATED
003771: 26,2514           54516                                    RANGEBQ
003772: 26,2515           55253                                    WLINIT                                #  YES-REINITIALIZE
003773: 26,2516           77414        RANGEBQ            BON      EXIT                                  #  DON'T CALL R65 IF ON SURFACE
003774: 26,2517           04307                                    SURFFLAG
003775: 26,2520           54526                                    RANGEBQ1
003776: 26,2521           34755                           CA       ZERO
003777: 26,2522           55745                           TS       R65CNTR
003778: 26,2523           04616                           TC       BANKCALL
003779: 26,2524           46123                           CADR     R65LEM
003780: 26,2525           06051                           TC       INTPRET
003781: 26,2526           43174        RANGEBQ1           AXT,2    BON                                   #   CLEAR X2
003782: 26,2527           00000                                    0
003783: 26,2530           04304                                    LMOONFLG                              #  IS MOON SPHERE OF INFLUENCE
003784: 26,2531           54534                                    SETX2                                 #  YES. STORE ZERO IN SCALSHFT REGISTER
003785: 26,2532           77714                           INCR,2
003786: 26,2533           00002                                    2
003787: 26,2534           45134        SETX2              SXA,2    CALL
003788: 26,2535           03720                                    SCALSHFT                              #  0-MOON. 2-EARTH
003789: 26,2536           11216                                    GRP2PC
003790: 26,2537           66170                           AXT,1    SXA,1                                 #  STORE RANGE CODE (1) FOR R3 IN NOUN 49
003791: 26,2540           00001                                    1
003792: 26,2541           01353                                    WHCHREAD
003793: 26,2542           54335                           SLOAD    SR                                    #  GET SINGLE PRECISION RVARMIN (B-12)
003794: 26,2543           01773                                    RVARMIN                               #  SHIFT TO TRIPLE PRECISION    (B-40)
003795: 26,2544           20635                                    28D
003796: 26,2545           77634                           RTB
003797: 26,2546           21615                                    TPMODE                                #  AND SAVE  IN 20D
003798: 26,2547           00025                           STORE    20D
003799: 26,2550           77624                           CALL                                           #  BEGIN COMPUTING THE B-VECTORS,DELTAQ
003800: 26,2551           55335                                    GETULC                                #  B-VECTORS FOR RANGE
003801: 26,2552           57414                           BON      VCOMP                                 #  B0, COMP. IF LM BEING CORRECTED


003803: 26,2553           00707                                    VEHUPFLG
003804: 26,2554           54555                                    +1
003805: 26,2555           27525                           STOVL    BVECTOR
003806: 26,2556           06520                                    ZEROVECS
003807: 26,2557           03533                           STORE    BVECTOR    +6                         #  B1
003808: 26,2560           17541                           STODL    BVECTOR    +12D                       #  B2
003809: 26,2561           00045                                    36D
003810: 26,2562           44257                           SRR*     BDSU
003811: 26,2563           56174                                    2,2                                   #  SHIFT FROM EARTH/MOON SPHERE TO B-29
003812: 26,2564           03757                                    RM                                    #  RM - (MAGNITUDE RCSM-RLM)
003813: 26,2565           77657                           SLR*
003814: 26,2566           56574                                    2,2                                   #  SHIFT TO EARTH/MOON SPHERE
003815: 26,2567           17547                           STODL    DELTAQ                                #  EARTH B-29. MOON B-27
003816: 26,2570           00045                                    36D                                   #  RLC  B-29/B-27
003817: 26,2571           63501                           NORM     DSQ                                   #  NORMALIZE AND SQUARE
003818: 26,2572           00047                                    X1
003819: 26,2573           53605                           DMP      SR*
003820: 26,2574           01767                                    RANGEVAR                              #  MULTIPLY BY RANGEVAR(B12) THEN
003821: 26,2575           20577                                    0          -2,1                       #  UNNORMALIZE
003822: 26,2576           53657                           SR*      SR*
003823: 26,2577           20601                                    0,1
003824: 26,2600           57176                                    0,2
003825: 26,2601           47057                           SR*      RTB
003826: 26,2602           57176                                    0,2
003827: 26,2603           21615                                    TPMODE
003828: 26,2604           02707                           STORE    VARIANCE                              #  B-40
003829: 26,2605           76276                           DCOMP    TAD
003830: 26,2606           00025                                    20D                                   #    B-40
003831: 26,2607           72240                           BMN      TLOAD
003832: 26,2610           54613                                    QOK
003833: 26,2611           00025                                    20D                                   #    B-40
003834: 26,2612           02707                           STORE    VARIANCE
003835: 26,2613           77624        QOK                CALL
003836: 26,2614           55403                                    LGCUPDTE
003837:
003838: 26,2615           45131                           SSP      CALL
003839: 26,2616           01354                                    WHCHREAD
003840: 26,2617           00002                           DEC      2          B-14                       #  STORE R-RATE CODE (2) FOR R3 IN NOUN 49
003841: 26,2620           11216                                    GRP2PC
003842: 26,2621           77624                           CALL                                           #  B-VECTOR,DELTAQ FOR RANGE RATE
003843: 26,2622           55335                                    GETULC
003844: 26,2623           53725                           PDDL     SR*                                   #  GET RLC SCALED B-29/B-27
003845: 26,2624           00045                                    36D                                   #  AND SHIFT TO B-23
003846: 26,2625           57202                                    0          -4,2
003847: 26,2626           24045                           STOVL    36D                                   #  THEN STORE BACK IN 36D
003848: 26,2627           57414                           BON      VCOMP                                 #  B1, COMP. IF LM BEING CORRECTED
003849: 26,2630           00707                                    VEHUPFLG
003850: 26,2631           54632                                    +1
003851: 26,2632           77761                           VXSC
003852: 26,2633           00045                                    36D                                   #  B1 = RLC  (B-24/B-22)


003854: 26,2634           27533                           STOVL    BVECTOR    +6
003855: 26,2635           01653                                    NUVLEM
003856: 26,2636           53257                           VSR*     VAD
003857: 26,2637           57170                                    6,2                                   #  SHIFT FOR EARTH/MOON SPHERE
003858: 26,2640           01667                                    VCVLEM                                #  EARTH B-7. MOON B-5
003859: 26,2641           53715                           PDVL     VSR*                                  #  VL TO PD6
003860: 26,2642           01601                                    NUVCSM
003861: 26,2643           57170                                    6,2                                   #  SHIFT FOR EARTH/MOON SPHERE
003862: 26,2644           52255                           VAD      VSU
003863: 26,2645           01615                                    VCVCSM
003864: 26,2646           50315                           PDVL     DOT                                   #  VC - VL = VLC TO PD6
003865: 26,2647           00001                                    0
003866: 26,2650           00007                                    6
003867: 26,2651           53606                           PUSH     SRR*                                  #  RDOT B-8/B-6 TO PD12
003868: 26,2652           56174                                    2,2                                   #  SHIFT FROM EARTH/MOON SPHERE TO B-8
003869: 26,2653           57316                           DSQ      DMPR                                  #  RDOT**2 B-16 X RATEVAR B12
003870: 26,2654           01771                                    RATEVAR
003871: 26,2655           02707                           STORE    VARIANCE
003872: 26,2656           54335                           SLOAD    SR
003873: 26,2657           01774                                    VVARMIN                               #  GET SINGLE PRECISION VVARMIN (B+12)
003874: 26,2660           20621                                    16D                                   #  SHIFT TO DP (B -4)
003875: 26,2661           00031                           STORE    24D                                   #  AND SAVE IN 24D
003876: 26,2662           50025                           DSU      BMN                                   #  IS MIN. VARIANCE > COMPUTED VARIANCE
003877: 26,2663           02707                                    VARIANCE
003878: 26,2664           54670                                    VOK                                   #  BRANCH - NO
003879: 26,2665           77745                           DLOAD                                          #  YES - USE MINIMUM VARIANCE
003880: 26,2666           00031                                    24D
003881: 26,2667           02707                           STORE    VARIANCE
003882: 26,2670           60545        VOK                DLOAD    SR2                                   #  RDOT(PD12) FROM B-8/B-6
003883: 26,2671           53725                           PDDL     SLR*                                  #  TO B-10/B-8
003884: 26,2672           03751                                    RDOTM                                 #  SHIFT TO EARTH/MOON SPHERE
003885: 26,2673           56577                                    0          -1,2                       #  B-7 TO B-10/B-8
003886: 26,2674           77625                           DSU
003887: 26,2675           77675                           DMPR
003888: 26,2676           00045                                    36D
003889: 26,2677           27547                           STOVL    DELTAQ                                #    B-33
003890: 26,2700           00001                                    0                                     #  NOW GET B0
003891: 26,2701           47235                           VXV      VXV                                   #  (ULC X VLC) X ULC
003892: 26,2702           57414                           BON      VCOMP                                 #  B0, COMP. IF LM BEING CORRECTED
003893: 26,2703           00707                                    VEHUPFLG
003894: 26,2704           54705                                    +1
003895: 26,2705           77657                           VSR*
003896: 26,2706           57200                                    0          -2,2                       #  SCALED B-5
003897: 26,2707           27525                           STOVL    BVECTOR
003898: 26,2710           06520                                    ZEROVECS
003899: 26,2711           00025                           STORE    20D                                   #  ZERO OUT 20 TO 25 IN PUSHLIST
003900: 26,2712           27541                           STOVL    BVECTOR    +12D
003901: 26,2713           03525                                    BVECTOR
003902: 26,2714           60246                           ABVAL    NORM                                  #  LOAD B0, GET MAGNITUDE AND NORMALIZE
003903: 26,2715           00025                                    20D                                   #  SHIFT COUNT IN 20D


003905: 26,2716           51575                           VLOAD    ABVAL
003906: 26,2717           03533                                    BVECTOR    +6D                        #  LOAD B1, GET MAGNITUDE AND NORMALIZE
003907: 26,2720           71301                           NORM     DLOAD
003908: 26,2721           00027                                    22D                                   #  SHIFT COUNT IN 22D
003909: 26,2722           00027                                    22D                                   #  FIND WHICH SHIFT IS SMALLER
003910: 26,2723           50025                           DSU      BMN                                   #  BRANCH- B0 HAS SMALLER SHIFT COUNT
003911: 26,2724           00025                                    20D
003912: 26,2725           54731                                    VOK1
003913: 26,2726           52150                           LXA,1    GOTO
003914: 26,2727           00026                                    22D                                   #  LOAD X2 WITH THE SMALLER SHIFT COUNT
003915: 26,2730           54733                                    VOK2
003916: 26,2731           77750        VOK1               LXA,1
003917: 26,2732           00024                                    20D
003918: 26,2733           53775        VOK2               VLOAD    VSL*                                  #  THEN ADJUST B0,B1,DELTAQ AND VARIANCE
003919: 26,2734           03525                                    BVECTOR                               #  WITH THIS SHIFT COUNT
003920: 26,2735           20201                                    0,1
003921: 26,2736           27525                           STOVL    BVECTOR
003922: 26,2737           03533                                    BVECTOR    +6
003923: 26,2740           77657                           VSL*
003924: 26,2741           20201                                    0,1
003925: 26,2742           17533                           STODL    BVECTOR    +6
003926: 26,2743           03547                                    DELTAQ
003927: 26,2744           77657                           SL*
003928: 26,2745           20201                                    0,1
003929: 26,2746           03547                           STORE    DELTAQ
003930: 26,2747           53745                           DLOAD    SL*                                   #  GET RLC AND ADJUST FOR SCALE SHIFT
003931: 26,2750           00045                                    36D
003932: 26,2751           20200                                    0          -1,1
003933: 26,2752           41316                           DSQ      DMP                                   #  MULTIPLY RLC**2 BY VARIANCE
003934: 26,2753           02707                                    VARIANCE
003935: 26,2754           47012                           SL4      RTB                                   #  SHIFT TO CONFORM TO BVECTORS AND DELTAQ
003936: 26,2755           21615                                    TPMODE
003937: 26,2756           36707                           STCALL   VARIANCE                              #  AND STORE TP VARIANCE
003938: 26,2757           55403                                    LGCUPDTE
003939:
003940: 26,2760           77624                           CALL
003941: 26,2761           11216                                    GRP2PC
003942: 26,2762           77414                           BON      EXIT                                  #  ARE ANGLES TO BE DONE
003943: 26,2763           04307                                    SURFFLAG
003944: 26,2764           55200                                    RENDEND                               #  NO
003945: 26,2765  E7,1457                                  EBANK=   AIG
003946: 26,2765           33334        MXMYMZ             CAF      AIGBANK
003947: 26,2766           54006                           TS       BBANK
003948: 26,2767           31457                           CA       AIG                                   #  YES, COMPUTE  MX, MY, MZ
003949: 26,2770           54765                           TS       CDUSPOT
003950: 26,2771           31460                           CA       AMG
003951: 26,2772           54767                           TS       CDUSPOT    +2
003952: 26,2773           31461                           CA       AOG
003953: 26,2774           54771                           TS       CDUSPOT    +4                         #  GIMBL ANGLES NOW IN CDUSPOT FOR TRG*NBSM
003954: 26,2775           06051                           TC       INTPRET


003956: 26,2776           45175                           VLOAD    CALL
003957: 26,2777           06516                                    UNITX
003958: 26,3000           47671                                    TRG*NBSM
003959: 26,3001           76505                           VXM      VSL1
003960: 26,3002           01732                                    REFSMMAT
003961: 26,3003           27677                           STOVL    MX
003962: 26,3004           06514                                    UNITY
003963: 26,3005           77624                           CALL
003964: 26,3006           47700                                    *NBSM*
003965: 26,3007           76505                           VXM      VSL1
003966: 26,3010           01732                                    REFSMMAT
003967: 26,3011           27705                           STOVL    MY
003968: 26,3012           06512                                    UNITZ
003969: 26,3013           77624                           CALL
003970: 26,3014           47700                                    *NBSM*
003971: 26,3015           76505                           VXM      VSL1
003972: 26,3016           01732                                    REFSMMAT
003973: 26,3017           37713        SHAFTBQ            STCALL   MZ
003974: 26,3020           55363                                    RADARANG
003975: 26,3021           77331                           SSP      VLOAD                                 #  STORE SHAFT CODE (3) FOR R3 IN NOUN 49
003976: 26,3022           01354                                    WHCHREAD
003977: 26,3023           00003                           DEC      3          B-14
003978: 26,3024           03724                                    ULC
003979: 26,3025           72441                           DOT      SL1
003980: 26,3026           03677                                    MX
003981: 26,3027           24023                           STOVL    SINTH                                 #  18D
003982: 26,3030           03724                                    ULC
003983: 26,3031           72441                           DOT      SL1
003984: 26,3032           03713                                    MZ
003985: 26,3033           34021                           STCALL   COSTH                                 #  16D
003986: 26,3034           26506                                    ARCTAN
003987: 26,3035           41221                           BDSU     DMP
003988: 26,3036           03736                                    RRSHAFT
003989: 26,3037           15443                                    2PI/8
003990: 26,3040           41472                           SL3R     PUSH
003991: 26,3041           52545                           DLOAD    SL3
003992: 26,3042           01701                                    X789
003993: 26,3043           44257                           SRR*     BDSU                                  #  SHIFT FROM -5/-3 TO B0
003994: 26,3044           56176                                    0,2
003995: 26,3045           53605                           DMP      SRR*
003996: 26,3046           03722                                    RXZ
003997: 26,3047           21601                                    0,1                                   #  SHIFT TO EARTH/MOON SPHERE
003998: 26,3050           27547                           STOVL    DELTAQ                                #  EARTH B-29. MOON B-27
003999: 26,3051           03724                                    ULC
004000: 26,3052           76435                           VXV      VSL1
004001: 26,3053           03705                                    MY
004002: 26,3054           77656                           UNIT
004003: 26,3055           57414                           BOFF     VCOMP                                 #  B0, COMP. IF CSM BEING CORRECTED
004004: 26,3056           00747                                    VEHUPFLG
004005: 26,3057           55060                                    +1


004007: 26,3060           27525                           STOVL    BVECTOR
004008: 26,3061           06520                                    ZEROVECS
004009: 26,3062           03533                           STORE    BVECTOR    +6
004010: 26,3063           17541                           STODL    BVECTOR    +12D
004011: 26,3064           03722                                    RXZ
004012: 26,3065           53657                           SR*      SRR*                                  #  SHIFT FROM EARTH/MOON SPHERE TO B-25
004013: 26,3066           20577                                    0          -2,1
004014: 26,3067           56176                                    0,2
004015: 26,3070           03541                           STORE    BVECTOR    +12D
004016: 26,3071           77735                           SLOAD
004017: 26,3072           02011                                    SHAFTVAR
004018: 26,3073           41215                           DAD      DMP
004019: 26,3074           15440                                    IMUVAR                                #  RAD**2 B12
004020: 26,3075           03722                                    RXZ
004021: 26,3076           41257                           SRR*     DMP
004022: 26,3077           21601                                    0,1                                   #  SHIFT TO EARTH/MOON SPHERE
004023: 26,3100           03722                                    RXZ
004024: 26,3101           53657                           SR*      SR*
004025: 26,3102           20577                                    0          -2,1
004026: 26,3103           57176                                    0,2
004027: 26,3104           47057                           SR*      RTB
004028: 26,3105           57176                                    0,2
004029: 26,3106           21615                                    TPMODE                                #  STORE VARIANCE TRIPLE PRECISION
004030: 26,3107           36707                           STCALL   VARIANCE                              #  B-40
004031: 26,3110           55403                                    LGCUPDTE
004032:
004033: 26,3111           77624                           CALL
004034: 26,3112           11216                                    GRP2PC
004035: 26,3113           77624        TRUNBQ             CALL
004036: 26,3114           55363                                    RADARANG
004037: 26,3115           77331                           SSP      VLOAD                                 #  STORE TRUNNION CODE (4) FOR R3 IN N49
004038: 26,3116           01354                                    WHCHREAD
004039: 26,3117           00004                           DEC      4          B-14
004040: 26,3120           03724                                    ULC
004041: 26,3121           76435                           VXV      VSL1
004042: 26,3122           03705                                    MY
004043: 26,3123           76435                           VXV      VSL1                                  #  (ULC X MY) X ULC
004044: 26,3124           03724                                    ULC
004045: 26,3125           57414                           BOFF     VCOMP                                 #  B0, COMP. IF CSM BEING CORRECTED
004046: 26,3126           00747                                    VEHUPFLG
004047: 26,3127           55130                                    +1
004048: 26,3130           27525                           STOVL    BVECTOR
004049: 26,3131           06520                                    ZEROVECS
004050: 26,3132           03533                           STORE    BVECTOR    +6
004051: 26,3133           17541                           STODL    BVECTOR    +12D
004052: 26,3134           03722                                    RXZ
004053: 26,3135           53657                           SR*      SRR*                                  #  SHIFT FROM EARTH/MOON SPHERE TO B-25
004054: 26,3136           20577                                    0          -2,1
004055: 26,3137           56176                                    0,2
004056: 26,3140           03543                           STORE    BVECTOR    +14D


004058: 26,3141           77735                           SLOAD
004059: 26,3142           02012                                    TRUNVAR
004060: 26,3143           41215                           DAD      DMP
004061: 26,3144           15440                                    IMUVAR
004062: 26,3145           03722                                    RXZ
004063: 26,3146           41257                           SRR*     DMP
004064: 26,3147           21601                                    0,1                                   #  SHIFT TO EARTH/MOON SPHERE
004065: 26,3150           03722                                    RXZ
004066: 26,3151           53657                           SR*      SR*
004067: 26,3152           20577                                    0          -2,1
004068: 26,3153           57176                                    0,2
004069: 26,3154           47057                           SR*      RTB
004070: 26,3155           57176                                    0,2
004071: 26,3156           21615                                    TPMODE                                #  STORE VARIANCE TRIPLE PRECISION
004072: 26,3157           16707                           STODL    VARIANCE
004073: 26,3160           03732                                    SINTHETA
004074: 26,3161           44336                           ASIN     BDSU                                  #  SIN  THETA IN PD6
004075: 26,3162           03734                                    RRTRUN
004076: 26,3163           56405                           DMP      SL3R
004077: 26,3164           15443                                    2PI/8
004078: 26,3165           52525                           PDDL     SL3
004079: 26,3166           01703                                    X789       +2
004080: 26,3167           44257                           SRR*     BDSU                                  #  SHIFT FROM -5/-3 TO B0
004081: 26,3170           56176                                    0,2
004082: 26,3171           53605                           DMP      SRR*
004083: 26,3172           03722                                    RXZ
004084: 26,3173           21601                                    0,1
004085: 26,3174           37547                           STCALL   DELTAQ                                #  EARTH B-29. MOON B-27
004086: 26,3175           55403                                    LGCUPDTE
004087: 26,3176           77624                           CALL
004088: 26,3177           11216                                    GRP2PC
004089: 26,3200           77650        RENDEND            GOTO
004090: 26,3201           50644                                    R22LEM93
004091:                                                                                                  #  FUNCTIONAL DESCRIPTION
004092:
004093:                                                                                                  #  LSR22.4 IS THE ENTRY TO PERFORM LUNAR SURFACE NAVIGATION FOR THE LM
004094:                                                                                                  #  COMPUTER ONLY. THIS ROUTINE COMPUTES THE B-VECTORS AND DELTA Q FOR RANGE
004095:                                                                                                  #  AND RANGE RATE MEASURED BY THE RENDEZVOUS RADAR
004096:
004097:                                                                                                  #  SUBROUTINES CALLED
004098:                                                                                                  #   INSTALL   LGCUPDTE  INCORP1   RP-TO-R
004099:                                                                                                  #   INTEGRV   GETULC    INCORP2
004100:
004101:                                                                                                  #  OUTPUT
004102:                                                                                                  #   CORRECTED CSM STATE VECTOR (PERMANENT)
004103:                                                                                                  #   NUMBER OF MARKS INCORPORATED IN MARKCTR
004104:                                                                                                  #   MAGNITUDE OF POSITION DEVIATION (FOR DISPLAY) IN R22DISP METERS B-29
004105:                                                                                                  #   MAGNITUDE OF VELOCITY DEVIATION (FOR DISPLAY) IN R22DISP +2 M/CSEC B-7
004106:                                                                                                  #   UPDATED W-MATRIX
004107:


004109:                                                                                                  #  ERASABLE INITIALIZATION REQUIRED
004110:                                                                                                  #   LM AND CSM STATE VECTORS
004111:                                                                                                  #   W-MATRIX
004112:                                                                                                  #   MARK TIME IN MKTIME
004113:                                                                                                  #   RADAR RANGE IN RM METERS B-29
004114:                                                                                                  #         RANGE RATE IN RDOTM METERS/CSEC B-7
004115:                                                                                                  #   VEHUPFLG
004116:
004117:
004118: 26,3202           77624        LSR22.4            CALL
004119: 26,3203           27410                                    INTSTALL
004120: 26,3204           43014                           SET      CLEAR
004121: 26,3205           01472                                    STATEFLG
004122: 26,3206           01674                                    VINTFLAG                              #  CALL TO GET LM POS + VEL IN REF COORD.
004123: 26,3207           77624                           CALL
004124: 26,3210           55244                                    INTGRCAL
004125: 26,3211           77624                           CALL
004126: 26,3212           11216                                    GRP2PC
004127: 26,3213           45014                           CLEAR    CALL
004128: 26,3214           02666                                    DMENFLG                               #  SET MATRIX SIZE TO 6X6 FOR INCORP
004129: 26,3215           27410                                    INTSTALL
004130: 26,3216           46145                           DLOAD    BHIZ                                  #  IS THIS FIRST TIME THROUGH
004131: 26,3217           03463                                    MARKCTR
004132: 26,3220           55233                                    INITWMX6                              #  YES. INITIALIZE 6X6 W-MATRIX
004133: 26,3221           43014                           CLEAR    SET
004134: 26,3222           01675                                    D6OR9FLG
004135: 26,3223           01476                                    DIM0FLAG
004136: 26,3224           43014                           SET      CLEAR
004137: 26,3225           01474                                    VINTFLAG
004138: 26,3226           01673                                    INTYPFLG
004139: 26,3227           77624                           CALL
004140: 26,3230           55244                                    INTGRCAL
004141: 26,3231           77650                           GOTO
004142: 26,3232           54516                                    RANGEBQ
004143:
004144: 26,3233           77624        INITWMX6           CALL
004145: 26,3234           55253                                    WLINIT                                #  INITIALIZE W-MATRIX
004146: 26,3235           45014                           SET      CALL
004147: 26,3236           01474                                    VINTFLAG
004148: 26,3237           26643                                    SETIFLGS
004149: 26,3240           77624                           CALL
004150: 26,3241           55244                                    INTGRCAL
004151: 26,3242           77650                           GOTO
004152: 26,3243           54516                                    RANGEBQ
004153:
004154:                                                                                                  #  THIS ROUTINE CLEARS RFINAL (DP) AND CALLS INTEGRV
004155:
004156: 26,3244           71220        INTGRCAL           STQ      DLOAD
004157: 26,3245           03675                                    IGRET
004158: 26,3246           03755                                    MKTIME


004160: 26,3247           34041                           STCALL   TDEC1
004161: 26,3250           27133                                    INTEGRV
004162: 26,3251           77650                           GOTO
004163: 26,3252           03675                                    IGRET
004164:
004165:                                                                                                  #  THIS ROUTINE INITIALIZES THE W-MATRIX BY ZEROING ALL W THEN SETTING
004166:                                                                                                  #  DIAGONAL ELEMENTS TO INITIAL STORED VALUES.
004167:
004168: 26,3253  E5,1400                                  EBANK=   W
004169: 26,3253           77776        WLINIT             EXIT
004170: 26,3254           33333                           CAF      WBANK
004171: 26,3255           54006                           TS       BBANK
004172: 26,3256           33441                           CAF      WSIZE
004173: 26,3257           54130                           TS       W.IND
004174: 26,3260           34755                           CAF      ZERO
004175: 26,3261           50130                           INDEX    W.IND
004176: 26,3262           55400                           TS       W
004177: 26,3263           10130                           CCS      W.IND
004178: 26,3264           03257                           TC       -5
004179: 26,3265           33334                           CAF      AIGBANK                               #  RESTORE EBANK 7
004180: 26,3266           54006                           TS       BBANK
004181: 26,3267           06051                           TC       INTPRET
004182: 26,3270           67214                           BON      SLOAD                                 #  IF ON LUNAR SURFACE,INITIALIZE WITH
004183: 26,3271           04307                                    SURFFLAG                              #  WSURFPOS AND WSURFVEL INSTEAD OF
004184: 26,3272           55276                                    WLSRFPOS                              #  WRENDPOS AND WRENDVEL
004185: 26,3273           02001                                    WRENDPOS
004186: 26,3274           77650                           GOTO
004187: 26,3275           55300                                    WPOSTORE
004188: 26,3276           77735        WLSRFPOS           SLOAD
004189: 26,3277           02007                                    WSURFPOS
004190: 26,3300           77661        WPOSTORE           SR                                             #  SHIFT TO B-19 SCALE
004191: 26,3301           20606                                    5
004192: 26,3302           02401                           STORE    W
004193: 26,3303           02411                           STORE    W          +8D
004194: 26,3304           02421                           STORE    W          +16D
004195: 26,3305           67214                           BON      SLOAD
004196: 26,3306           04307                                    SURFFLAG
004197: 26,3307           55313                                    WLSRFVEL
004198: 26,3310           02002                                    WRENDVEL
004199: 26,3311           77650                           GOTO
004200: 26,3312           55315                                    WVELSTOR
004201: 26,3313           77735        WLSRFVEL           SLOAD
004202: 26,3314           02010                                    WSURFVEL
004203: 26,3315           02511        WVELSTOR           STORE    W          +72D
004204: 26,3316           02521                           STORE    W          +80D
004205: 26,3317           02531                           STORE    W          +88D
004206: 26,3320           77735                           SLOAD
004207: 26,3321           02003                                    WSHAFT
004208: 26,3322           02621                           STORE    W          +144D
004209: 26,3323           77735                           SLOAD


004211: 26,3324           02004                                    WTRUN
004212: 26,3325           02631                           STORE    W          +152D
004213: 26,3326           66214                           SET      SSP                                   #  SET RENDWFLG - W-MATRIX VALID
004214: 26,3327           02476                                    RENDWFLG
004215: 26,3330           03463                                    MARKCTR                               #  SET MARK COUNTER EQUAL ZERO
004216: 26,3331           00000                                    0
004217: 26,3332           77616                           RVQ
004218:
004219: 26,3333  E5,1400                                  EBANK=   W
004220: 26,3333           54065        WBANK              BBCON    WLINIT
004221: 26,3334  E7,1457                                  EBANK=   AIG
004222: 26,3334           54067        AIGBANK            BBCON    LSR22.3
004223:
004224:                                                                                                  #  GETULC
004225:
004226:                                                                                                  #  THIS SUBROUTINE COMPUTES THE RELATIVE POSITION VECTOR BETWEEN THE CSM
004227:                                                                                                  #  AND THE LM, LEAVING THE UNIT VECTOR IN THE PUSHLIST AND MPAC AND THE
004228:                                                                                                  #  MAGNITUDE IN 36D.
004229:
004230: 26,3335           77201        GETULC             SETPD    VLOAD
004231: 26,3336           00001                                    0
004232: 26,3337           01645                                    DELTALEM
004233: 26,3340           77754                           LXA,2
004234: 26,3341           03720                                    SCALSHFT                              #  LOAD X2 WITH SCALE SHIFT
004235: 26,3342           53257                           VSR*     VAD
004236: 26,3343           57165                                    9D,2                                  #  SHIFT FOR EARTH/MOON SPHERE
004237: 26,3344           01661                                    RCVLEM
004238: 26,3345           53715                           PDVL     VSR*
004239: 26,3346           01573                                    DELTACSM
004240: 26,3347           57165                                    9D,2                                  #  SHIFT FOR EARTH/MOON SPHERE
004241: 26,3350           52255                           VAD      VSU
004242: 26,3351           01607                                    RCVCSM
004243: 26,3352           41434                           RTB      PUSH                                  #  USE NORMUNIT TO PRESERVE ACCURACY
004244: 26,3353           21706                                    NORMUNX1
004245: 26,3354           17724                           STODL    ULC
004246: 26,3355           00045                                    36D
004247: 26,3356           77657                           SL*                                            #  ADJUST MAGNITUDE FROM NORMUNIT
004248: 26,3357           20201                                    0,1
004249: 26,3360           24045                           STOVL    36D                                   #  ULC IN PD0 AND MPAC,RLC IN 36D
004250: 26,3361           03724                                    ULC
004251: 26,3362           77616                           RVQ
004252:                                                                                                  #  RADARANG
004253:
004254:                                                                                                  #  THIS SUBROUTINE COMPUTES SINTHETA = -ULC DOT MY
004255:                                                                                                  #  RXZ = (SQRT (1-SINTHETA**2))RLC
004256:                                                                                                  #  OUTPUT
004257:                                                                                                  #   ULC IN ULC, PD0
004258:                                                                                                  #   RLC  IN PD36D
004259:                                                                                                  #   SIN THETA IN SINTHETA AND PD6
004260:                                                                                                  #   RXZ NORM IN RXZ (N IN X1)


004262: 26,3363           45020        RADARANG           STQ      CALL
004263: 26,3364           03675                                    RDRET
004264: 26,3365           55335                                    GETULC
004265: 26,3366           50276                           VCOMP    DOT
004266: 26,3367           03705                                    MY
004267: 26,3370           41572                           SL1R     PUSH                                  #  SIN THETA TO PD6
004268: 26,3371           03732                           STORE    SINTHETA
004269: 26,3372           44316                           DSQ      BDSU
004270: 26,3373           06510                                    DP1/4TH                               #  1 - (SIN THETA)**2
004271: 26,3374           41366                           SQRT     DMP
004272: 26,3375           00045                                    36D
004273: 26,3376           60352                           SL1      NORM
004274: 26,3377           00047                                    X1                                    #  SET SHIFT COUNTER IN X1
004275: 26,3400           03722                           STORE    RXZ
004276: 26,3401           77650                           GOTO                                           #  EXIT
004277: 26,3402           03675                                    RDRET
004278: 26,3403           45020        LGCUPDTE           STQ      CALL
004279: 26,3404           03675                                    LGRET
004280: 26,3405           46527                                    INCORP1
004281: 26,3406           51575                           VLOAD    ABVAL
004282: 26,3407           02673                                    DELTAX     +6
004283: 26,3410           53754                           LXA,2    SRR*
004284: 26,3411           03720                                    SCALSHFT                              #  0-MOON. 2-EARTH
004285: 26,3412           56174                                    2,2                                   #  SET VEL DISPLAY TO B-7
004286: 26,3413           24317                           STOVL    R22DISP    +2
004287: 26,3414           02665                                    DELTAX
004288: 26,3415           53646                           ABVAL    SRR*
004289: 26,3416           56174                                    2,2                                   #  SET POS DISPLAY TO B-29
004290: 26,3417           00315                           STORE    R22DISP
004291: 26,3420           54335                           SLOAD    SR
004292: 26,3421           02005                                    RMAX
004293: 26,3422           20613                                    10D
004294: 26,3423           50025                           DSU      BMN
004295: 26,3424           00315                                    R22DISP
004296: 26,3425           50650                                    R22LEM96                              #  GO DISPLAY
004297: 26,3426           45335                           SLOAD    DSU
004298: 26,3427           02006                                    VMAX
004299: 26,3430           00317                                    R22DISP    +2                         #  VMAX MINUS VEL. DEVIATION
004300: 26,3431           77640                           BMN
004301: 26,3432           50650                                    R22LEM96                              #  GO DISPLAY
004302: 26,3433           77624        ASTOK              CALL
004303: 26,3434           46741                                    INCORP2
004304: 26,3435           77650                           GOTO
004305: 26,3436           03675                                    LGRET
004306: 26,3437           00103 03370  IMUVAR             2DEC     E-6        B12                        #  RAD**2
004307:
004308: 26,3441           00241        WSIZE              DEC      161        B-14
004309: 26,3442           31103 36652  2PI/8              2DEC     3.141592653 B-2
004310:
004311: 26,3444  E7,1456                                  EBANK=   LOSCOUNT
004312:


004314:                                                                                                  #  PROGRAM NAME LRS24.1   RR SEARCH ROUTINE
004315:                                                                                                  #  MOD NO  0        BY  P VOLANTE  SDC          DATE 1-15-67
004316:
004317:
004318:                                                                                                  #  FUNCTIONAL DESCRIPTION
004319:
004320:                                                                                                  #  DRIVES THE RENDEZVOUS RADAR IN A HEXAGONAL SEARCH PATTERN ABOUT THE LOS TO THE CSM (COMPUTED FROM THE CSM AND LM
004321:                                                                                                  #  STATE VECTORS) CHECKING FOR THE DATA GOOD DISCRETE AND MONITORING THE ANGLE BETWEEN THE RADAR BORESIGHT AND THE
004322:                                                                                                  #  LM +Z AXIS. IF THIS ANGLE EXCEEDS 30 DEGREES THE PREFERRED TRACKING ATTITUDE ROUTINE IS CALLED TO PERFORM AN
004323:                                                                                                  #  ATTITUDE MANEUVER.
004324:
004325:
004326:                                                                                                  #  CALLING SEQUENCE - BANKCALL FOR LRS24.1
004327:
004328:
004329:                                                                                                  #  SUBROUTINES CALLED
004330:
004331:                                                                                                  #        LEMCONIC      R61LEM
004332:                                                                                                  #        CSMCONIC      RRDESSM
004333:                                                                                                  #        JOBDELAY      FLAGDOWN
004334:                                                                                                  #        WAITLIST      FLAGUP
004335:                                                                                                  #        RRNB          BANKCALL
004336:
004337:
004338:                                                                                                  #  EXIT  - TO ENDOFJOB WHEN THE SEARCH FLAG (SRCHOPT) IS NOT SET
004339:
004340:
004341:                                                                                                  #  OUTPUT
004342:
004343:                                                                                                  #      DATAGOOD (SP)-FOR DISPLAY IN R1- 00000 INDICATES NO LOCKON
004344:                                                                                                  #                                       11111 INDICATES LOCKON ACHIEVED
004345:                                                                                                  #      OMEGAD   (SP)-FOR DISPLAY IN R2- ANGLE BETWEEN RR BORESIGHT VECTOR AND THE SPACECRAFT +Z AXIS
004346:
004347:                                                                                                  #  ERASABLE INITIALIZATION REQUIRED
004348:                                                                                                  #     SEARCH FLAG MUST BE SET
004349:                                                                                                  #     LM AND CSM STATE VECTORS AND REFSMMAT MATRIX
004350:                                                                                                  #  DEBRIS
004351:
004352:                                                                                                  #     RLMSRCH      UXVECT
004353:                                                                                                  #     VXRLM        UYVECT
004354:                                                                                                  #     LOSDESRD     NSRCHPNT
004355:                                                                                                  #     DATAGOOD     OMEGAD
004356:                                                                                                  #     MPAC         PUSHLIST
004357:
004358:
004359: 26,3444                                           COUNT*   $$/LRS24
004360: 26,3444           34755        LRS24.1            CAF      ZERO
004361: 26,3445           55736                           TS       NSRCHPNT                              #  SET SEARCH PATTERN POINT COUNTER TO ZERO
004362: 26,3446           34736        CHKSRCH            CAF      BIT14                                 #  ISSUE AUTO TRACK ENABLE TO RADAR
004363: 26,3447           00006                           EXTEND


004365: 26,3450           05012                           WOR      CHAN12
004366: 26,3451           34736                           CAF      SRCHOBIT                              #  CHECK IF SEARCH STILL REQUESTED
004367: 26,3452           70076                           MASK     FLAGWRD2                              #  (SRCHOPT FLAG SET)
004368: 26,3453           00006                           EXTEND
004369: 26,3454           15155                           BZF      ENDOFJOB                              #  NO-TERMINATE JOB
004370:
004371:
004372: 26,3455           33715                           CAF      6SECONDS                              #  SCHEDULE TASK TO DRIVE RADAR TO NEXT PT.
004373: 26,3456           00004                           INHINT
004374: 26,3457           05214                           TC       WAITLIST                              #  IN 6 SECONDS
004375: 26,3460  E7,1456                                  EBANK=   LOSCOUNT
004376: 26,3460           03645 54067                     2CADR    CALLDGCH
004377:
004378: 26,3462           00003                           RELINT
004379: 26,3463           40110                           CS       RADMODES                              #  IS REMODE IN PROGRESS
004380: 26,3464           74736                           MASK     REMODBIT
004381: 26,3465           00006                           EXTEND
004382: 26,3466           15155                           BZF      ENDOFJOB                              #  YES- WAIT SIX SECONDS
004383: 26,3467           06051                           TC       INTPRET
004384:
004385: 26,3470           43234                           RTB      DAD                                   #  COMPUTE LOS AT PRESENT TIME + 1.5 SEC.
004386: 26,3471           21555                                    LOADTIME
004387: 26,3472           15717                                    1.5SECS
004388: 26,3473           34041        LRS24.11           STCALL   TDEC1
004389: 26,3474           27077                                    LEMCONIC                              #  EXTRAPOLATE LM STATE VECTOR
004390: 26,3475           77775                           VLOAD
004391: 26,3476           00001                                    RATT
004392: 26,3477           27676                           STOVL    RLMSRCH                               #  SAVE LEM POSITION
004393: 26,3500           00007                                    VATT
004394: 26,3501           17740                           STODL    SAVLEMV                               #  SAVE LEM VELOCITY
004395: 26,3502           00015                                    TAT
004396: 26,3503           34041                           STCALL   TDEC1                                 #  EXTRAPOLATE CSM STATE VECTOR
004397: 26,3504           27065                                    CSMCONIC                              #  EXTRAPOLATE CSM STATE VECTOR
004398: 26,3505           52375                           VLOAD    VSU                                   #  LOS VECTOR = R(CSM)-R(LM)
004399: 26,3506           00001                                    RATT
004400: 26,3507           03676                                    RLMSRCH
004401: 26,3510           77656                           UNIT
004402: 26,3511           27712                           STOVL    LOSDESRD                              #  STORE DESIRED LOS
004403: 26,3512           00007                                    VATT                                  #  COMPUTE UNIT(V(CM) CROSS R(CM))
004404: 26,3513           47256                           UNIT     VXV
004405: 26,3514           00001                                    RATT
004406: 26,3515           77656                           UNIT
004407: 26,3516           03704                           STORE    VXRCM
004408: 26,3517           52375                           VLOAD    VSU
004409: 26,3520           00007                                    VATT
004410: 26,3521           03740                                    SAVLEMV
004411: 26,3522           76521                           MXV      VSL1                                  #  CONVERT FROM REFERENCE TO STABLE MEMBER
004412: 26,3523           01732                                    REFSMMAT
004413: 26,3524           03740                           STORE    SAVLEMV                               #  VLC = V(CSM) - V(LM)
004414: 26,3525           53135                           SLOAD    BZE                                   #  CHECK IF N=0


004416: 26,3526           03737                                    NSRCHPNT
004417: 26,3527           55640                                    DESGLOS                               #  YES-DESIGNATE ALONG LOS
004418: 26,3530           53025                           DSU      BZE                                   #  IS N=1
004419: 26,3531           15713                                    ONEOCT                                #  YES-CALCULATE X AND Y AXES OF
004420: 26,3532           55625                                    CALCXY                                #  SEARCH PATTERN COORDINATE SYSTEM
004421: 26,3533           77775                           VLOAD                                          #  NO-ROTATE X-Y AXES TO NEXT SEARCH POINT
004422: 26,3534           03720                                    UXVECT
004423: 26,3535           24015                           STOVL    UXVECTPR                              #  SAVE ORIGINAL X AND Y VECTORS
004424: 26,3536           03726                                    UYVECT                                #  UXPRIME = ORIGINAL UX
004425: 26,3537           00023                           STORE    UYVECTPR                              #  UYPRIME = ORIGINAL UY
004426: 26,3540           77761                           VXSC
004427: 26,3541           15707                                    SIN60DEG                              #  UX =(COS 60)UXPR +(SIN 60)UYPR
004428: 26,3542           27720                           STOVL    UXVECT
004429: 26,3543           00015                                    UXVECTPR
004430: 26,3544           53361                           VXSC     VAD
004431: 26,3545           06516                                    COS60DEG
004432: 26,3546           03720                                    UXVECT
004433: 26,3547           77656                           UNIT
004434: 26,3550           27720                           STOVL    UXVECT
004435: 26,3551           00015                                    UXVECTPR                              #  UY=(-SIN60)UXPR +(COS 60)UYPR
004436: 26,3552           77761                           VXSC
004437: 26,3553           15707                                    SIN60DEG
004438: 26,3554           27726                           STOVL    UYVECT
004439: 26,3555           00023                                    UYVECTPR
004440: 26,3556           52361                           VXSC     VSU
004441: 26,3557           06516                                    COS60DEG
004442: 26,3560           03726                                    UYVECT
004443: 26,3561           77656                           UNIT
004444: 26,3562           03726                           STORE    UYVECT
004445: 26,3563           53361        OFFCALC            VXSC     VAD                                   #  OFFSET VECTOR = K(UY)
004446: 26,3564           15711                                    OFFSTFAC                              #  LOS VECTOR + OFFSET VECTOR DEFINES
004447: 26,3565           03712                                    LOSDESRD                              #  DESIRED POINT IN SEARCH PATTERN
004448: 26,3566           64256                           UNIT     MXV
004449: 26,3567           01732                                    REFSMMAT                              #  CONVERT TO STABLE MEMBER COORDINATES
004450: 26,3570           77772                           VSL1
004451: 26,3571           25101        CONTDESG           STOVL    RRTARGET
004452: 26,3572           03740                                    SAVLEMV
004453: 26,3573           01757                           STORE    LOSVEL
004454: 26,3574           77776                           EXIT
004455: 26,3575           00004                           INHINT
004456: 26,3576           06032                           TC       KILLTASK                              #  KILL ANY PRESENTLY WAITLISTED TASK
004457: 26,3577           52573                           CADR     DESLOOP    +2                         #  WHICH WOULD DESIGNATE TO THE LAST
004458:                                                                                                  #  POINT IN THE PATTERN
004459: 26,3600           44735        CONTDES2           CS       CDESBIT
004460: 26,3601           70110                           MASK     RADMODES                              #  SET BIT 15 OF RADMODES TO INDICATE
004461: 26,3602           64735                           AD       CDESBIT                               #  A CONTINUOUS DESIGNATE WANTED.
004462: 26,3603           54110                           TS       RADMODES
004463: 26,3604           06051                           TC       INTPRET
004464:
004465: 26,3605           77624                           CALL


004467: 26,3606           52364                                    RRDESSM                               #  DESIGNATE RADAR TO RRTARGET VECTOR
004468:
004469: 26,3607           77776                           EXIT
004470: 26,3610           03677                           TC       LIMALARM                              #  LOS NOT IN MODE 2 COVERAGE (P22)
004471: 26,3611           03677                           TC       LIMALARM                              #  VEHICLE MANEUVER REQUIRED (P20)
004472:
004473:
004474:                                                                                                  #  COMPUTE OMEGA,ANGLE  BETWEEN RR LOS AND
004475:                                                                                                  #  SPACECRAFT +Z AXIS
004476: 26,3612           00006        OMEGCALC           EXTEND
004477: 26,3613           30036                           DCA      CDUT
004478: 26,3614           53753                           DXCH     TANGNB
004479: 26,3615           06051                           TC       INTPRET
004480: 26,3616           77624                           CALL
004481: 26,3617           46041                                    RRNB
004482: 26,3620           65545                           DLOAD    ACOS                                  #  OMEGA IS ARCCOSINE OF Z-COMPONENT OF
004483: 26,3621           00045                                    36D                                   #  VECTOR COMPUTED BY RRNB (LEFT AT 32D)
004484: 26,3622           03735                           STORE    OMEGDISP                              #  STORE FOR DISPLAY IN R2
004485: 26,3623           77776                           EXIT
004486: 26,3624           05155                           TC       ENDOFJOB
004487:


004489:                                                                                                  #  CALCULATE X AND Y VECTORS FOR SEARCH PATTERN COORDINATE SYSTEM
004490:
004491:
004492: 26,3625           47375        CALCXY             VLOAD    VXV
004493: 26,3626           03704                                    VXRCM
004494: 26,3627           03712                                    LOSDESRD
004495: 26,3630           77656                           UNIT
004496: 26,3631           27720                           STOVL    UXVECT                                #  UX = (VLM X RLM)X LOS
004497: 26,3632           03712                                    LOSDESRD
004498: 26,3633           53435                           VXV      UNIT
004499: 26,3634           03720                                    UXVECT
004500: 26,3635           03726                           STORE    UYVECT                                #  UY = LOS X UX
004501: 26,3636           77650                           GOTO
004502: 26,3637           55563                                    OFFCALC
004503:
004504:
004505: 26,3640           64375        DESGLOS            VLOAD    MXV                                   #  WHEN N= 0,DESIGNATE ALONG LOS
004506: 26,3641           03712                                    LOSDESRD
004507: 26,3642           01732                                    REFSMMAT                              #  CONVERT LOS FROM REFERENCE TO SM COORDS
004508: 26,3643           52172                           VSL1     GOTO
004509: 26,3644           55571                                    CONTDESG
004510:
004511:
004512: 26,3645           30074        CALLDGCH           CAE      FLAGWRD0                              #  IS RENDEZVOUS FLAG SET
004513: 26,3646           74745                           MASK     RNDVZBIT
004514: 26,3647           00006                           EXTEND
004515: 26,3650           15272                           BZF      TASKOVER                              #  NO-EXIT R24
004516: 26,3651           37725                           CAF      PRIO25                                #  YES -SCHEDULE JOB TO DRIVE RADAR TO NEXT
004517: 26,3652           05105                           TC       FINDVAC                               #  POINT IN SEARCH PATTERN
004518: 26,3653  E7,1675                                  EBANK=   RLMSRCH
004519: 26,3653           03656 54067                     2CADR    DATGDCHK
004520:
004521: 26,3655           05272                           TC       TASKOVER
004522:
004523:
004524: 26,3656           34750        DATGDCHK           CAF      BIT4
004525: 26,3657           00006                           EXTEND                                         #  CHECK IF DATA GOOD DISCRETE PRESENT
004526: 26,3660           02033                           RAND     CHAN33
004527: 26,3661           00006                           EXTEND
004528: 26,3662           13671                           BZF      STORE1S                               #  YES- GO TO STORE 11111 FOR DISPLAY IN R1
004529: 26,3663           46254                           CS       SIX
004530: 26,3664           61736                           AD       NSRCHPNT                              #  IS N GREATER THAN 6
004531: 26,3665           00006                           EXTEND
004532: 26,3666           13444                           BZF      LRS24.1                               #  YES - RESET N = 0 AND START AROUND AGAIN
004533: 26,3667           25736                           INCR     NSRCHPNT                              #  NO-SET N = N+1 AN GO TO
004534: 26,3670           13446                           TCF      CHKSRCH                               #  NEXT POINT IN PATTERN
004535:
004536:
004537: 26,3671           33705        STORE1S            CAF      ALL1S                                 #  STORE 11111 FOR DISPLAY IN R1
004538: 26,3672           55733                           TS       DATAGOOD


004540: 26,3673           00004                           INHINT
004541: 26,3674           06032                           TC       KILLTASK                              #  DELETE DESIGNATE TASK FROM
004542: 26,3675           52573                           CADR     DESLOOP    +2                         #  WAITLIST USING KILLTASK
004543: 26,3676           05155                           TC       ENDOFJOB
004544:
004545: 26,3677           05600        LIMALARM           TC       ALARM                                 #  ISSUE ALARM 527-LOS NOT IN MODE2
004546: 26,3700           00527                           OCT      527                                   #  COVERAGE IN P22 OR VEHICLE MANEUVER
004547: 26,3701           00004                           INHINT                                         #  REQUIRED IN P20
004548: 26,3702           06032                           TC       KILLTASK                              #  KILL WAITLIST CALL FOR NEXT
004549: 26,3703           55645                           CADR     CALLDGCH                              #  POINT IN SEARCH PATTERN
004550: 26,3704           05155                           TC       ENDOFJOB
004551:
004552:
004553: 26,3705           25547        ALL1S              DEC      11111      B-14
004554: 26,3706           33555 01106  SIN60DEG           2DEC     .86603
004555:
004556: 26,3710  23,2515               COS60DEG           =        DPHALF                                #  (2DEC   .50)
004557: 26,3710                        UXVECTPR           EQUALS   12D                                   #  PREVIOUS
004558: 26,3710                        UYVECTPR           EQUALS   18D
004559: 26,3710                        RLMUNIT            EQUALS   12D
004560: 26,3710           01642 11045  OFFSTFAC           2DEC     0.05678                               #  TANGENT OF 3.25 DEGREES
004561:
004562: 26,3712           00001        ONEOCT             OCT      00001                                 #  **** NOTE-THESE TWO CONSTANTS MUST ****
004563: 26,3713           00000 00454  3SECONDS           2DEC     300        B-28                       #  **** BE IN THIS ORDER BECAUSE      ****
004564:
004565:                                                                                                  #  **** ONEOCT NEEDS A LOWER ORDER    ****
004566:                                                                                                  #  **** WORD OF ZEROES                ****
004567: 26,3715           01130        6SECONDS           DEC      600        B-14
004568: 26,3716           00000 00226  1.5SECS            2DEC     150        B-28
004569:
004570: 26,3720  23,2517               ZERO/SP            EQUALS   HI6ZEROS
004571:    4616                                           BLOCK    02
004572:    6000                                           SETLOC   FFTAG5
004573:    6000                                           BANK
004574:    6025                                           COUNT*   $$/P20
004575:    6025           00006        GOTOV56            EXTEND                                         #  P20 TERMINATES BY GOTOV56 INSTEAD OF
004576:    6026           36031                           DCA      VB56CADR                              #  GOTOPOOH
004577:    6027           15176                           TCF      SUPDXCHZ
004578:    6030  E7,1471                                  EBANK=   WHOCARES
004579:    6030           03013 66107  VB56CADR           2CADR    TRMTRACK
004580:


004582:                                                                                                  #  W-MATRIX MONITOR
004583:
004584: 31,2007                                           BANK     31
004585: 31,2000                                           SETLOC   VB67
004586: 31,2000                                           BANK
004587: 31,2007                                           COUNT*   $$/EXTVB
004588:
004589: 31,2007  E4,1571                                  EBANK=   WWPOS
004590:
004591: 31,2007           06051        V67CALL            TC       INTPRET
004592: 31,2010           77624                           CALL
004593: 31,2011           62120                                    V67WW
004594: 31,2012           77776                           EXIT
004595: 31,2013           00006                           EXTEND                                         #  SAVE THE PRESENT N99 VALUES FOR
004596: 31,2014           31572                           DCA      WWPOS                                 #  COMPARISON AFTER THE DISPLAY
004597: 31,2015           53600                           DXCH     WWBIAS     +2
004598: 31,2016           00006                           EXTEND
004599: 31,2017           31574                           DCA      WWVEL
004600: 31,2020           53602                           DXCH     WWBIAS     +4
004601: 31,2021           00006                           EXTEND
004602: 31,2022           31576                           DCA      WWBIAS
004603: 31,2023           53604                           DXCH     WWBIAS     +6
004604: 31,2024           32143        V06N99DS           CAF      V06N99
004605: 31,2025           04616                           TC       BANKCALL
004606: 31,2026           20334                           CADR     GOXDSPF
004607: 31,2027           15503                           TCF      ENDEXT
004608: 31,2030           12032                           TCF      V6N99PRO
004609: 31,2031           12024                           TCF      V06N99DS
004610: 31,2032           22007        V6N99PRO           ZL
004611: 31,2033           34756                           CA       FIVE
004612: 31,2034           54002        N99LOOP            TS       Q
004613: 31,2035           50002                           INDEX    Q
004614: 31,2036           41571                           CS       WWPOS
004615: 31,2037           50002                           INDEX    Q
004616: 31,2040           61577                           AD       WWPOS      +6
004617: 31,2041           26001                           ADS      L
004618: 31,2042           10002                           CCS      Q                                     #  THE SUM OF ALL DIFFERENCES MUST BE ZERO.
004619: 31,2043           12034                           TCF      N99LOOP
004620: 31,2044           22000                           LXCH     A
004621: 31,2045           00006                           EXTEND
004622: 31,2046           12051                           BZF      V06N9933
004623: 31,2047           05515                           TC       UPFLAG
004624: 31,2050           00160                           ADRES    V67FLAG
004625:
004626: 31,2051           06051        V06N9933           TC       INTPRET
004627: 31,2052           77414                           BON      EXIT
004628: 31,2053           03707                                    V67FLAG
004629: 31,2054           62056                                    +2
004630: 31,2055           15503                           TCF      ENDEXT
004631: 31,2056           77745                           DLOAD


004633: 31,2057           02172                                    WWPOS
004634: 31,2060           72412                           SL4      SL1
004635: 31,2061           14001                           STODL    0D
004636: 31,2062           02174                                    WWVEL
004637: 31,2063           14003                           STODL    2D
004638: 31,2064           02176                                    WWBIAS
004639: 31,2065           77661                           SL                                             #  SHIFT FROM NOUN SCALING (B-5) TO
004640: 31,2066           20213                                    10D                                   #  INTERNAL SCALING (B+5)
004641: 31,2067           00005                           STORE    4D
004642: 31,2070           72014                           BON      LXA,1
004643: 31,2071           04307                                    SURFFLAG
004644: 31,2072           62102                                    V67SURF
004645: 31,2073           00000                                    0D
004646: 31,2074           72130                           SXA,1    LXA,1
004647: 31,2075           02000                                    WRENDPOS
004648: 31,2076           00002                                    2D
004649: 31,2077           52130                           SXA,1    GOTO
004650: 31,2100           02001                                    WRENDVEL
004651: 31,2101           62110                                    V67CLRF
004652: 31,2102           66150        V67SURF            LXA,1    SXA,1
004653: 31,2103           00000                                    0D
004654: 31,2104           02006                                    WSURFPOS
004655: 31,2105           66150                           LXA,1    SXA,1
004656: 31,2106           00002                                    2D
004657: 31,2107           02007                                    WSURFVEL
004658: 31,2110           66150        V67CLRF            LXA,1    SXA,1
004659: 31,2111           00004                                    4D
004660: 31,2112           02003                                    WTRUN
004661: 31,2113           77730                           SXA,1
004662: 31,2114           02002                                    WSHAFT
004663: 31,2115           77414                           CLEAR    EXIT
004664: 31,2116           02676                                    RENDWFLG
004665: 31,2117           15503                           TCF      ENDEXT
004666: 31,2120           40020        V67WW              STQ      BOV
004667: 31,2121           00051                                    S2
004668: 31,2122           62123                                    +1
004669: 31,2123           45014                           CLEAR    CALL
004670: 31,2124           03667                                    V67FLAG
004671: 31,2125           27410                                    INTSTALL
004672: 31,2126           71331                           SSP      DLOAD
004673: 31,2127           00051                                    S1
004674: 31,2130           00006                           DEC      6          B-14
004675: 31,2131           06520                                    ZEROVECS
004676: 31,2132           02172                           STORE    WWPOS
004677: 31,2133           02174                           STORE    WWVEL
004678: 31,2134           02176                           STORE    WWBIAS
004679: 31,2135           77770                           AXT,1
004680: 31,2136           00066                           DEC      54         B-14
004681: 31,2137           47573        NXPOSVEL           VLOAD*   VSQ
004682: 31,2140           02467                                    W          +54D,1


004684: 31,2141           77650                           GOTO
004685: 31,2142           60002                                    ADDPOS
004686: 31,2143           01543        V06N99             VN       0699
004687:
004688: 30,2000                                           SETLOC   VB67A
004689: 30,2000                                           BANK
004690: 30,2002                                           COUNT*   $$/EXTVB
004691:
004692: 30,2002           77615        ADDPOS             DAD
004693: 30,2003           02172                                    WWPOS
004694: 30,2004           02172                           STORE    WWPOS
004695: 30,2005           47573                           VLOAD*   VSQ
004696: 30,2006           02555                                    W          +108D,1
004697: 30,2007           77615                           DAD
004698: 30,2010           02174                                    WWVEL
004699: 30,2011           02174                           STORE    WWVEL
004700: 30,2012           47573                           VLOAD*   VSQ
004701: 30,2013           02643                                    W          +162D,1
004702: 30,2014           77615                           DAD
004703: 30,2015           02176                                    WWBIAS
004704: 30,2016           02176                           STORE    WWBIAS
004705: 30,2017           75500                           TIX,1    SQRT
004706: 30,2020           62137                                    NXPOSVEL
004707: 30,2021           77661                           SR                                             #  SHIFT FROM INTERNAL SCALING (B+5) TO
004708: 30,2022           20613                                    10D                                   #  NOUN SCALING (B-5)
004709: 30,2023           16176                           STODL    WWBIAS
004710: 30,2024           02174                                    WWVEL
004711: 30,2025           77766                           SQRT
004712: 30,2026           16174                           STODL    WWVEL
004713: 30,2027           02172                                    WWPOS
004714: 30,2030           77766                           SQRT
004715: 30,2031           02172                           STORE    WWPOS
004716: 30,2032           52000                           BOV      GOTO
004717: 30,2033           60035                                    +2
004718: 30,2034           60042                                    V67XXX
004719: 30,2035           77745                           DLOAD
004720: 30,2036           06526                                    DPPOSMAX
004721: 30,2037           02172                           STORE    WWPOS
004722: 30,2040           02174                           STORE    WWVEL
004723: 30,2041           02176                           STORE    WWBIAS
004724: 30,2042           45345        V67XXX             DLOAD    DSU
004725: 30,2043           02172                                    WWPOS
004726: 30,2044           20060                                    FT99999
004727: 30,2045           71240                           BMN      DLOAD
004728: 30,2046           60051                                    +3
004729: 30,2047           20060                                    FT99999
004730: 30,2050           02172                           STORE    WWPOS
004731: 30,2051           66150                           LXA,1    SXA,1
004732: 30,2052           00051                                    S2
004733: 30,2053           00052                                    QPRET


004735: 30,2054           77776                           EXIT
004736: 30,2055           04635                           TC       POSTJUMP
004737: 30,2056           27421                           CADR     INTWAKE
004738:
004739: 30,2057           01670 17000  FT99999            2DEC     30479      B-19
004740:


004742: 25,3647                                           BANK     25
004743: 25,2000                                           SETLOC   RADARUPT
004744: 25,2000                                           BANK
004745: 25,3647                                           COUNT*   $$/RRUPT
004746:
004747: 25,3647  E7,1456                                  EBANK=   LOSCOUNT
004748:
004749: 25,3647           44747        RADLITES           CS       BIT5
004750: 25,3650           60061                           AD       ITEMP1
004751: 25,3651           10000                           CCS      A
004752: 25,3652           44753                           CS       ONE
004753: 25,3653           13703                           TCF      VLIGHT
004754:
004755: 25,3654           14570                           TCF      RRTRKF
004756:
004757: 25,3655           54065        HLIGHT             TS       ITEMP5                                #  ZERO ITEMP5 FOR H INDEX
004758:
004759: 25,3656           34747                           CA       HLITE
004760: 25,3657           54001                           TS       L
004761:
004762: 25,3660           34747                           CA       LRALTBIT
004763: 25,3661           70110        BOTHLITS           MASK     RADMODES
004764: 25,3662           10000                           CCS      A
004765: 25,3663           13675                           TCF      ONLITES
004766:
004767: 25,3664           30107                           CA       FLGWRD11
004768: 25,3665           50065                           INDEX    ITEMP5
004769: 25,3666           74753                           MASK     HFLSHBIT
004770: 25,3667           10000                           CCS      A
004771: 25,3670           14570                           TCF      RRTRKF
004772:
004773: 25,3671           00006        LITIT              EXTEND
004774: 25,3672           22066                           QXCH     ITEMP6
004775: 25,3673           04602                           TC       TRKFLON    +1
004776:
004777: 25,3674           00066                           TC       ITEMP6
004778:
004779: 25,3675           50065        ONLITES            INDEX    ITEMP5
004780: 25,3676           44753                           CS       HFLSHBIT
004781: 25,3677           70107                           MASK     FLGWRD11
004782: 25,3700           54107                           TS       FLGWRD11
004783:
004784: 25,3701           30001                           CA       L
004785: 25,3702           13671                           TCF      LITIT
004786: 25,3703           54065        VLIGHT             TS       ITEMP5
004787: 25,3704           34751                           CA       VLITE
004788: 25,3705           54001                           TS       L
004789: 25,3706           34744                           CA       BIT8
004790: 25,3707           13661                           TCF      BOTHLITS
004791:


004793: 25,3710     4747               HLITE              EQUALS   BIT5
004794: 25,3710     4751               VLITE              EQUALS   BIT3

End of include-file P20-P25.agc.  Parent file is MAIN.agc


