
Source Code


000002:                                                                                                  ## Copyright:   Public domain.
000003:                                                                                                  ## Filename:    P30,P37.agc
000004:                                                                                                  ## Purpose:     A log section of Zerlina 56, the final revision of
000005:                                                                                                  ##              Don Eyles's offline development program for the variable
000006:                                                                                                  ##              guidance period servicer. It also includes a new P66 with LPD
000007:                                                                                                  ##              (Landing Point Designator) capability, based on an idea of John
000008:                                                                                                  ##              Young's. Neither of these advanced features were actually flown,
000009:                                                                                                  ##              but Zerlina was also the birthplace of other big improvements to
000010:                                                                                                  ##              Luminary including the terrain model and new (Luminary 1E)
000011:                                                                                                  ##              analog display programs. Zerlina was branched off of Luminary 145,
000012:                                                                                                  ##              and revision 56 includes all changes up to and including Luminary
000013:                                                                                                  ##              183. It is therefore quite close to the Apollo 14 program,
000014:                                                                                                  ##              Luminary 178, where not modified with new features.
000015:                                                                                                  ## Reference:   pp. 612-615
000016:                                                                                                  ## Assembler:   yaYUL
000017:                                                                                                  ## Contact:     Ron Burkey <info@sandroid.org>.
000018:                                                                                                  ## Website:     www.ibiblio.org/apollo/index.html
000019:                                                                                                  ## Mod history: 2017-07-28 MAS  Created from Luminary 210.
000020:                                                                                                  ##              2017-08-23 RSB  Transcribed.
000021:


000023:                                                                                                  #  PROGRAM DESCRIPTION  P30    DATE 3-6-67
000024:
000025:                                                                                                  #  MOD.1  BY RAMA AIYAWAR
000026:                                                                                                  #  FUNCTIONAL DESCRIPTION
000027:                                                                                                  #     ACCEPT ASTRONAUT INPUTS OF TIG,DELV(LV)
000028:                                                                                                  #     CALL IMU STATUS CHECK ROUTINE (R02)
000029:                                                                                                  #     DISPLAY TIME TO GO, APOGEE, PERIGEE, DELV(MAG), MGA AT IGN
000030:                                                                                                  #     REQUEST BURN PROGRAM
000031:
000032:                                                                                                  #  CALLING SEQUENCE VIA JOB FROM V37
000033:
000034:                                                                                                  #  EXIT VIA V37 CALL OR TO GOTOPOOH (V34E)
000035:
000036:                                                                                                  #  SUBROUTINE CALLS-FLAGUP, PHASCHNG, BANKCALL, ENDOFJOB, GOFLASH, GOFLASHR
000037:                                                                                                  #                   GOPERF3R, INTPRET, BLANKET, GOTOPOOH, R02BOTH, S30.1,
000038:                                                                                                  #                   TTG/N35, MIDGIM, DISPMGA
000039:
000040:                                                                                                  #  ERASABLE INITIALIZATION- STATE VECTOR
000041:
000042:                                                                                                  #  OUTPUT-RINIT, VINIT, +MGA, VTIG, RTIG, DELVSIN, DELVSAB, DELVSLV, HAPO,
000043:                                                                                                  #         HPER, TTOGO
000044:
000045:                                                                                                  #  DEBRIS- A, L, MPAC, PUSHLIST
000046:
000047: 32,2407                                           BANK     32
000048: 35,2000                                           SETLOC   P30S
000049: 35,2000                                           BANK
000050: 35,2000  E4,1643                                  EBANK=   +MGA
000051: 35,2000                                           COUNT*   $$/P30
000052: 35,2000           05515        P30                TC       UPFLAG                                #  SET UPDATE FLAG
000053: 35,2001           00027                           ADRES    UPDATFLG
000054: 35,2002           05515                           TC       UPFLAG                                #  SET TRACK FLAG
000055: 35,2003           00031                           ADRES    TRACKFLG
000056:
000057: 35,2004           32032        P30N33             CAF      V06N33                                #  T OF IGN
000058: 35,2005           03627                           TC       VNPOOH                                #  RETURNS ON PROCEED, POOH ON TERMINATE
000059:
000060: 35,2006           33644                           CAF      V06N81                                #  DISPLAY DELTA V (LV)
000061: 35,2007           03627                           TC       VNPOOH                                #      REDISPLAY ON RECYCLE
000062:
000063: 35,2010           05527                           TC       DOWNFLAG                              #  RESET UPDATE FLAG
000064: 35,2011           00027                           ADRES    UPDATFLG
000065: 35,2012           06051                           TC       INTPRET
000066: 35,2013           77624                           CALL
000067: 35,2014           70060                                    S30.1
000068: 35,2015           43014                           SET      SET
000069: 35,2016           00470                                    UPDATFLG
000070: 35,2017           01067                                    XDELVFLG
000071: 35,2020           77776                           EXIT
000072: 35,2021           32033        PARAM30            CAF      V06N42                                #  DISPLAY APOGEE,PERIGEE ,DELTA V
000073:


000075: 35,2022           03627                           TC       VNPOOH
000076:
000077: 35,2023           06051                           TC       INTPRET
000078: 35,2024           77614                           SET
000079: 35,2025           01071                                    FINALFLG
000080: 35,2026           77624        REVN1645           CALL
000081: 35,2027           73523                                    VN1645
000082: 35,2030           77650                           GOTO                                           #  COMES HERE ON RECYCLE RESPONSE
000083: 35,2031           72026                                    REVN1645
000084:
000085: 35,2032           01441        V06N33             VN       0633
000086: 35,2033           01452        V06N42             VN       0642
000087:


000089:                                                                                                  #  PROGRAM DESCRIPTION S30.1      DATE 9NOV66
000090:
000091:                                                                                                  #  MOD NO 1        LOG SECTION  P30,P37
000092:                                                                                                  #  MOD  BY  RAMA AIYAWAR **
000093:                                                                                                  #  FUNCTIONAL DESCRIPTION
000094:                                                                                                  #           BASED ON STORED TARGET PARAMETERS(R OF IGNITION(RTIG),V OF
000095:                                                                                                  #           IGNITION(VTIG),TIME OF IGNITION (TIG)),COMPUTE PERIGEE ALTITUDE
000096:                                                                                                  #           APOGEE ALTITUDE AND DELTAV REQUIRED(DELVSIN).
000097:                                                                                                  #  CALLING SEQUENCE
000098:                                                                                                  #      L    CALL
000099:                                                                                                  #      L+1         S30.1
000100:                                                                                                  #  NORMAL EXIT MODE
000101:                                                                                                  #      AT L+2 OR CALLING SEQUENCE (GOTO L+2)
000102:                                                                                                  #  SUBROUTINES CALLED
000103:                                                                                                  #           LEMPREC
000104:                                                                                                  #           PERIAPO
000105:                                                                                                  #  ALARM OR ABORT EXIT MODES
000106:                                                                                                  #                  NONE
000107:                                                                                                  #  ERASABLE INITIALIZATION REQUIRED
000108:                                                                                                  #           TIG       TIME OF IGNITION                   DP     B28CS
000109:                                                                                                  #           DELVSLV   SPECIFIED DELTA-V IN LOCAL VERT.
000110:                                                                                                  #                     COORDS. OF ACTIVE VEHICLE AT
000111:                                                                                                  #                  TIME OF IGNITION      VECTOR  B+7  METERS/CS
000112:                                                                                                  #  OUTPUT
000113:                                                                                                  #           RTIG   POSITION AT TIG       VECTOR  B+29 METERS
000114:                                                                                                  #           VTIG   VELOCITY AT TIG       VECTOR  B+29 METERS/CS
000115:                                                                                                  #           PDL 4D APOGEE ALTITUDE       DP      B+29 M ,  B+27 METERS.
000116:                                                                                                  #           HAPO   APOGEE ALTITUDE       DP      B+29 METERS
000117:                                                                                                  #           PDL 8D PERIGEE ALTITUDE      DP      B+29 M ,  B+27 METERS.
000118:                                                                                                  #           HPER   PERIGEE ALTITUDE      DP      B+29 METERS
000119:                                                                                                  #           DELVSIN   SPECIFIED DELTA-V IN INERTIAL
000120:                                                                                                  #                     COORD. OF ACTIVE VEHICLE AT
000121:                                                                                                  #                  TIME OF IGNITION      VECTOR  B+7  METERS/CS
000122:                                                                                                  #           DELVSAB MAG. OF DELVSIN      VECTOR  B+7  METERS/CS
000123:                                                                                                  #  DEBRIS QTEMP    TEMP. ERASABLE
000124:                                                                                                  #         QPRET,MPAC
000125:                                                                                                  #         PUSHLIST
000126:
000127: 34,2000                                           SETLOC   P30S1
000128: 34,2000                                           BANK
000129:
000130: 34,2060                                           COUNT*   $$/S30S
000131:
000132: 34,2060           71220        S30.1              STQ      DLOAD
000133: 34,2061           03632                                    QTEMP
000134: 34,2062           03442                                    TIG                                   #  TIME IGNITION SCALED AT 2(+28)CS
000135: 34,2063           34041                           STCALL   TDEC1
000136: 34,2064           27056                                    LEMPREC                               #  ENCKE ROUTINE FOR LEM
000137:
000138: 34,2065           67175                           VLOAD    SXA,2
000139:


000141: 34,2066           00001                                    RATT
000142: 34,2067           02777                                    RTX2
000143: 34,2070           03642                           STORE    RTIG                                  #  RADIUS VECTOR AT IGNITION TIME
000144: 34,2071           57456                           UNIT     VCOMP
000145: 34,2072           27656                           STOVL    DELVSIN                               #  ZRF/LV IN DELVSIN SCALED AT 2
000146: 34,2073           00007                                    VATT                                  #  VELOCITY VECTOR AT TIG, SCALED 2(7) M/CS
000147: 34,2074           03650                           STORE    VTIG
000148: 34,2075           53435                           VXV      UNIT
000149: 34,2076           03642                                    RTIG
000150: 34,2077           66001                           SETPD    SXA,1
000151: 34,2100           00001                                    0
000152: 34,2101           02776                                    RTX1
000153: 34,2102           47206                           PUSH     VXV                                   #  YRF/LV PDL 0  SCALED AT 2
000154: 34,2103           03656                                    DELVSIN
000155: 34,2104           63372                           VSL1     PDVL
000156: 34,2105           63315                           PDVL     PDVL                                  #  YRF/LV PDL 6   SCALED AT 2
000157: 34,2106           03656                                    DELVSIN                               #  ZRF/LV PDL 12D SCALED AT 2
000158: 34,2107           03434                                    DELVSLV
000159: 34,2110           76505                           VXM      VSL1
000160: 34,2111           00001                                    0
000161: 34,2112           03656                           STORE    DELVSIN                               #  DELTAV IN INERT. COOR. SCALED TO B+7M/CS
000162: 34,2113           77646                           ABVAL
000163: 34,2114           27664                           STOVL    DELVSAB                               #  DELTA V MAG.
000164: 34,2115           03642                                    RTIG                                  #  (FOR PERIAPO)
000165: 34,2116           53315                           PDVL     VAD                                   #  VREQUIRED = VTIG + DELVSIN (FOR PERIAPO)
000166: 34,2117           03650                                    VTIG
000167: 34,2120           03656                                    DELVSIN
000168: 34,2121           77624                           CALL
000169: 34,2122           46337                                    PERIAPO1
000170: 34,2123           77624                           CALL
000171: 34,2124           46447                                    SHIFTR1                               #  RESCALE IF NEEDED
000172: 34,2125           77624                           CALL                                           #  LIMIT DISPLAY TO 9999.9 N. MI.
000173: 34,2126           45636                                    MAXCHK
000174: 34,2127           16312                           STODL    HPER                                  #  PERIGEE ALT 2(29) METERS, FOR DISPLAY
000175: 34,2130           00005                                    4D
000176: 34,2131           77624                           CALL
000177: 34,2132           46447                                    SHIFTR1                               #  RESCALE IF NEEDED
000178: 34,2133           77624                           CALL                                           #  LIMIT DISPLAY TO 9999.9 N. MI.
000179: 34,2134           45636                                    MAXCHK
000180: 34,2135           36310                           STCALL   HAPO                                  #  APOGEE  ALT 2(29) METERS, FOR DISPLAY
000181: 34,2136           03632                                    QTEMP

End of include-file P30,P37.agc.  Parent file is MAIN.agc


