
Source Code


000002:                                                                                                  ## Copyright:   Public domain.
000003:                                                                                                  ## Filename:    P40-P47.agc
000004:                                                                                                  ## Purpose:     A log section of Zerlina 56, the final revision of
000005:                                                                                                  ##              Don Eyles's offline development program for the variable
000006:                                                                                                  ##              guidance period servicer. It also includes a new P66 with LPD
000007:                                                                                                  ##              (Landing Point Designator) capability, based on an idea of John
000008:                                                                                                  ##              Young's. Neither of these advanced features were actually flown,
000009:                                                                                                  ##              but Zerlina was also the birthplace of other big improvements to
000010:                                                                                                  ##              Luminary including the terrain model and new (Luminary 1E)
000011:                                                                                                  ##              analog display programs. Zerlina was branched off of Luminary 145,
000012:                                                                                                  ##              and revision 56 includes all changes up to and including Luminary
000013:                                                                                                  ##              183. It is therefore quite close to the Apollo 14 program,
000014:                                                                                                  ##              Luminary 178, where not modified with new features.
000015:                                                                                                  ## Reference:   pp. 738-770
000016:                                                                                                  ## Assembler:   yaYUL
000017:                                                                                                  ## Contact:     Ron Burkey <info@sandroid.org>.
000018:                                                                                                  ## Website:     www.ibiblio.org/apollo/index.html
000019:                                                                                                  ## Mod history: 2017-07-28 MAS  Created from Luminary 210.
000020:                                                                                                  ##              2017-08-16 RSB  Fixed comment typo identified in AP11ROPE.
000021:                                                                                                  ##              2017-08-26 MAS  Updated for Zerlina 56.
000022:                                                                                                  ##              2021-05-30 ABS  TGDCALC -> TGOCALC
000023:


000025:                                                                                                  #  PROGRAM DESCRIPTION  P40BOTH    DECEMBER 22, 1966
000026:                                                                                                  #  MOD 03 BY PETER ADLER           MARCH 3, 1967
000027:                                                                                                  #  CALLED VIA JOB FROM V37E
000028:
000029:                                                                                                  #  FUNCTIONAL DESCRIPTION
000030:
000031:                                                                                                  #           1)  TO COMPUTE A PREFERRED IMU ORIENTATION AND A PREFERRED VEHICLE ATTITUDE FOR A LM DPS
000032:                                                                                                  #               THRUSTING MANEUVER.
000033:


000035:
000036:                                                                                                  #           3)  TO DO THE VEHICLE MANEUVER TO THE THRUSTING ATTITUDE.
000037:
000038:                                                                                                  #           4)  TO CONTROL THE PGNCS DURING COUNTDOWN, IGNITION, THRUSTING, AND THRUST TERMINATION OF A
000039:                                                                                                  #               PGNCS CONTROLLED DPS MANEUVER.
000040:
000041:                                                                                                  #           5)  IN POSTBURN--ZERO RENDEZVOUS COUNTER, MAINTAIN VG CALCULATIONS FOR POSSIBLE RCS MANEUVER,
000042:                                                                                                  #                            SET MAXIMUM DEADBAND IN DAP, RESET STEERLAW CSTEER TO ZERO.
000043:
000044:                                                                                                  #           NOTE:  P42, WHICH IS IN THIS LOG SECTION, DOES THE SAME FOR AN APS BURN, AND P41 DOES 1-3 FOR
000045:                                                                                                  #                  RCS PLUS DISPLAYS PARAMETERS FOR MANUAL CONTROL.
000046:
000047:                                                                                                  #  SUBROUTINES USED
000048:
000049:                                                                                                  #           R02      IMU STATUS CHECK
000050:                                                                                                  #           S40.1    COMPUTATION OF THRUST DIRECTION
000051:                                                                                                  #           S40.13   LENGTH OF BURN
000052:                                                                                                  #           S40.2,3  PREFERRED IMU ORIENATTION
000053:                                                                                                  #           S40.8    X PRODUCT STEERING
000054:                                                                                                  #           S40.9    LAMBERT VTOGAIN
000055:                                                                                                  #           R60LEM   ATTITUDE MANEUVER
000056:                                                                                                  #           LEMPREC  EXTRAPOLATE STATE VECTOR
000057:                                                                                                  #           PREREAD  AVERAGE G, SERVICER
000058:                                                                                                  #           ALLCOAST DAP COASTING INITIALIZATION
000059:                                                                                                  #           CLOKTASK ERGO CLOCKJOB--COUNT DOWN
000060:                                                                                                  #           PHASCHNG, INTPRET, FLAGUP, FLAGDOWN, WAITLIST, LONGCALL, GOFLASH, GOFLASHR, GOPERF1, ALARM,
000061:                                                                                                  #           PRIOLARM, GOTOPOOH, ENDOFJOB, BANKCALL, SETMAXDB, SETMINDB, CHECKMM, FLATOUT, OUTFLAT,
000062:                                                                                                  #           KILLTASK, SGNAGREE, TPAGREE, ETC.
000063:
000064:                                                                                                  #  RESTARTS VIA GROUP 4
000065:
000066:                                                                                                  #  DISPLAYS
000067:
000068:                                                                                                  #           V50N25  203 A/P TO PGNCS, AUTO THROTTLE MODE, AUTO ATTITUDE CONTROL
000069:                                                                                                  #           V06N40  TTI, VG, DELTAVM (DISPLAYED ONCE/SECOND BY CLOKTASK)
000070:                                                                                                  #           V50N99  PLEASE PERFORM ENGINE ON ENABLE
000071:                                                                                                  #           V06N40  TG (TIME TO GO TO CUTOFF), VG, DELTAVM--ONCE/SECOND
000072:                                                                                                  #           V16N40  FINAL VALUES OF TG, VG, DELTAVM
000073:                                                                                                  #           V16N85  COMP OF VG (BODY AXES) FOR POSS. RCS MANUAL MANEUVER
000074:                                                                                                  #           V05N09  POSSIBLE ALARMS
000075:                                                                                                  #           V50N07  PLEASE SELECT P00
000076:


000078:                                                                                                  #           VIA R30
000079:
000080:                                                                                                  #           V06N44  HAPO, PERI, TFF
000081:                                                                                                  #           V06N35  TIME TO PERIGEE, HMS
000082:
000083:                                                                                                  #  ALARM OR ABORT EXIT MODES
000084:
000085:                                                                                                  #           PROGRAM ALARM, FLASHING DISPLAY OF ALARM CODE 1706 IF P40 SELECTED WITH DESCENT UNIT STAGED.
000086:                                                                                                  #           V34E (TERMINATE) IS THE ONLY RESPONSE ACCEPTED. TC GOTOPOOH.
000087:
000088:                                                                                                  #           PROGRAM ALARM, FLASH CODE 1703:  TIG LESS THAN 45 SECS AWAY.  V34E=  GOTOPOOH OR V33E=  SLIP
000089:                                                                                                  #           TIG BY 45 SECS.
000090:
000091:                                                                                                  #  ERASABLE INITIALIZATION
000092:                                                                                                  #  DEBRIS
000093:                                                                                                  #  OUTPUT
000094:
000095:                                                                                                  #           SEE SUBROUTINES E.G.:  S40.1, S40.2,3, S40.13, S40.8, S40.9, TRIMGIMB
000096:                                                                                                  #           XDELVFLG = 1 FOR EXT DELV COMPUTATION
000097:                                                                                                  #                    = 0 FOR AIMPT (LAMBERT) COMP
000098:
000099: 27,2246                                           COUNT*   $$/P40
000100: 27,2246  E7,1455                                  EBANK=   WHICH
000101:
000102: 36,3146                                           BANK     36
000103: 36,2000                                           SETLOC   P40S
000104: 36,2000                                           BANK
000105:
000106: 36,3146           05364        P40LM              TC       PHASCHNG
000107: 36,3147           04024                           OCT      04024
000108:
000109: 36,3150           33132                           CAF      P40ADRES                              #  INITIALIZATION FOR BURNBABY.
000110: 36,3151           55455                           TS       WHICH
000111:
000112: 36,3152           30106                           CA       FLGWRD10
000113: 36,3153           74737                           MASK     APSFLBIT
000114: 36,3154           10000                           CCS      A
000115: 36,3155           13120                           TCF      P40ALM
000116: 36,3156           04616                           TC       BANKCALL                              #  GO DO IMU STATUS CHECK ROUTINE.
000117: 36,3157           11241                           CADR     R02BOTH
000118:
000119: 36,3160           40111                           CS       DAPBOOLS                              #  INITIALIZE DVMON
000120: 36,3161           74737                           MASK     CSMDOCKD
000121: 36,3162           10000                           CCS      A
000122: 36,3163           32022                           CAF      THRESH1
000123: 36,3164           62023                           AD       THRESH3
000124: 36,3165           55251                           TS       DVTHRUSH
000125: 36,3166           34751                           CAF      FOUR
000126: 36,3167           55513                           TS       DVCNTR


000128: 36,3170           06051                           TC       INTPRET                               #  LOAD CONSTANTS FOR DPS BURN
000129: 36,3171           43175                           VLOAD    CLEAR                                 #  LOAD F, MDOT, TDECAY
000130: 36,3172           34001                                    FDPS
000131: 36,3173           02663                                    NOTHROTL
000132: 36,3174           03735                           STORE    F
000133: 36,3175           77735                           SLOAD
000134: 36,3176           26002                                    DPSVEX
000135: 36,3177           70476        P40IN              DCOMP    SR1
000136: 36,3200           37743                           STCALL   VEX                                   #  LOAD EXHAUST VELOCITY FOR TGO COMP.
000137: 36,3201           56246                                    S40.1                                 #  COMPUTES UT AND VGTIG
000138: 36,3202           77624                           CALL
000139: 36,3203           56413                                    S40.2,3                               #  COMPUTES PREFERRED IMU ORIENTATION
000140: 36,3204           77776                           EXIT
000141:
000142: 36,3205           00004                           INHINT
000143: 36,3206           04674                           TC       IBNKCALL
000144: 36,3207           40143                           CADR     PFLITEDB                              #  ZERO ATTITUDE ERRORS, SET DB TO ONE DEG.
000145:
000146: 36,3210           03212                           TC       P40SXT4
000147:
000148:                                                                                                  #                                               ***********************
000149: 36,3211           12130                           TCF      BURNBABY
000150:                                                                                                  #                                               ***********************
000151:
000152: 36,3212           00006        P40SXT4            EXTEND
000153: 36,3213           23141                           QXCH     P40/RET
000154: 36,3214           00003        P41MANU            RELINT
000155:
000156: 36,3215           05527                           TC       DOWNFLAG                              #  CLEAR 3AXISFLG -- R60 WILL USE VECPOINT.
000157: 36,3216           00124                           ADRES    3AXISFLG
000158:
000159: 36,3217           04616                           TC       BANKCALL
000160: 36,3220           54125                           CADR     R60LEM                                #  DO ATTITUDE MANEUVER ROUTINE
000161: 36,3221           01141                           TC       P40/RET
000162:
000163:
000164: 36,3222  E7,1462                                  EBANK=   TRKMKCNT
000165: 36,3222           30005        POSTBURN           CA       Z
000166: 36,3223           55162                           TS       DISPDEX
000167: 36,3224           00006                           EXTEND
000168: 36,3225           32060                           DCA      ACADN85
000169: 36,3226           53253                           DXCH     AVEGEXIT
000170: 36,3227           33751                           CAF      V16N40
000171: 36,3230           04616                           TC       BANKCALL
000172: 36,3231           20636                           CADR     GOFLASHR
000173: 36,3232           03255                           TC       TERM40
000174: 36,3233           13240                           TCF      TIGNOW
000175: 36,3234           03222                           TC       POSTBURN
000176:


000178: 36,3235           05364        P40PHS1            TC       PHASCHNG
000179: 36,3236           00014                           OCT      00014
000180: 36,3237           15155                           TCF      ENDOFJOB
000181:
000182: 36,3240           00004        TIGNOW             INHINT
000183: 36,3241           04674                           TC       IBNKCALL
000184: 36,3242           40154                           CADR     ZATTEROR
000185: 36,3243           04674                           TC       IBNKCALL
000186: 36,3244           40141                           CADR     SETMINDB
000187: 36,3245           00003                           RELINT
000188: 36,3246           33752                           CAF      V16N85B
000189: 36,3247           04616                           TC       BANKCALL
000190: 36,3250           20463                           CADR     REFLASHR
000191: 36,3251           03255                           TC       TERM40
000192: 36,3252           13255                           TCF      TERM40
000193: 36,3253           03246                           TC       -5
000194:
000195: 36,3254           13235                           TCF      P40PHS1
000196:
000197: 36,3255           00006        TERM40             EXTEND
000198: 36,3256           32110                           DCA      SERVCADR
000199: 36,3257           53253                           DXCH     AVEGEXIT
000200: 36,3260           34755                           CAF      ZERO
000201: 36,3261           55462                           TS       TRKMKCNT                              #       ZERO RENDZVS CNTERS
000202: 36,3262           30005                           CA       Z
000203: 36,3263           55162                           TS       DISPDEX
000204: 36,3264           00004                           INHINT
000205: 36,3265           04674                           TC       IBNKCALL
000206: 36,3266           40115                           CADR     RESTORDB
000207: 36,3267           00003                           RELINT
000208: 36,3270           06001                           TC       GOTOPOOH
000209:
000210: 36,3271  E7,1455                                  EBANK=   WHICH
000211: 36,3271                                           COUNT*   $$/P41
000212: 36,3271           33133        P41LM              CAF      P41ADRES                              #  INITIALIZATION FOR BURNBABY
000213: 36,3272           55455                           TS       WHICH
000214:
000215: 36,3273           04616                           TC       BANKCALL
000216: 36,3274           11241                           CADR     R02BOTH
000217:
000218: 36,3275           34755                           CA       ZERO                                  #  ZERO DVTOTAL FOR NOUN 40 DISPLAY
000219: 36,3276           55507                           TS       DVTOTAL
000220: 36,3277           55510                           TS       DVTOTAL    +1
000221: 36,3300           35017                           CAF      PRIO5
000222: 36,3301           55162                           TS       DISPDEX                               #  FOR SAFETY
000223: 36,3302           05105                           TC       FINDVAC
000224: 36,3303  E7,1700                                  EBANK=   VGPREV
000225: 36,3303           03366 74067                     2CADR    DYNMDISP
000226:
000227: 36,3305           05340                           TC       2PHSCHNG


000229: 36,3306           00116                           OCT      00116                                 #  GROUP 6 RESTART AT FKP5RST, PRIO 17
000230: 36,3307           04024                           OCT      04024                                 #  GROUP 4 RESTART HERE, PRIO 13
000231:
000232: 36,3310           06051                           TC       INTPRET                               #  BOTH LM
000233: 36,3311           71214                           BON      DLOAD                                 #  IF NJETSFLAG IS SET, LOAD 2 JET F
000234: 36,3312           00700                                    NJETSFLG
000235: 36,3313           75317                                    P41FJET1
000236: 36,3314           34017                                    FRCS4                                 #  IF NJETSFLAG IS CLEAR, LOAD 4 JET F
000237:
000238: 36,3315           37735        P41FJET            STCALL   F
000239: 36,3316           75322                                    P41IN
000240:
000241: 36,3317           77745        P41FJET1           DLOAD
000242: 36,3320           34021                                    FRCS2
000243: 36,3321           03735                           STORE    F
000244:
000245: 36,3322           77624        P41IN              CALL
000246: 36,3323           56246                                    S40.1                                 #  BOTH
000247: 36,3324           77624        P41NORM            CALL
000248: 36,3325           56413                                    S40.2,3                               #  CALCULATE PREFERRED IMU ORIENTATION AND
000249: 36,3326           77776                           EXIT                                           #  SET PFRATFLG.
000250:
000251: 36,3327           00004                           INHINT
000252: 36,3330           04674                           TC       IBNKCALL
000253: 36,3331           40154                           CADR     ZATTEROR                              #  ZERO ATTITUDE ERRORS
000254: 36,3332           04674                           TC       IBNKCALL
000255: 36,3333           40141                           CADR     SETMINDB                              #  SET 0.3 DEGREE DEADBAND
000256: 36,3334           03212                           TC       P40SXT4
000257:
000258: 36,3335           06051                           TC       INTPRET
000259: 36,3336           45175                           VLOAD    CALL                                  #  TRANSFORM VELOCITY-TO-BE-GAINED AT TIG
000260: 36,3337           03701                                    VGTIG                                 #  FROM REFERENCE COORDINATES TO LM BODY-
000261: 36,3340           57266                                    S41.1                                 #  AXIS COORDINATES FOR V16N85 DISPLAY.
000262: 36,3341           03502                           STORE    VGBODY                                #  (SCALED AT 2 (+7) METERS/CENTISECOND)
000263: 36,3342           77776                           EXIT
000264:
000265: 36,3343           33752                           CAF      V16N85B
000266: 36,3344           04616                           TC       BANKCALL
000267: 36,3345           20447                           CADR     GODSPRET
000268:
000269:
000270: 36,3346           05340                           TC       2PHSCHNG
000271: 36,3347           00076                           OCT      00076                                 #  GROUP 6 RESTARTS AT REDO6.7
000272: 36,3350           04024                           OCT      04024                                 #  GROUP 4 RESTARTS HERE
000273:
000274:                                                                                                  #                                               ***********************
000275: 36,3351           12137                           TCF      B*RNB*B*
000276:                                                                                                  #                                               ***********************
000277:


000279: 36,3352           34777        BLNKWAIT           CAF      1SEC
000280: 36,3353           04616                           TC       BANKCALL
000281: 36,3354           01736                           CADR     DELAYJOB
000282:
000283: 36,3355           31162        REDO6.7            CA       DISPDEX                               #  ON A RESTART, DO NOT PUT UP DISPLAY IF
000284: 36,3356           64752                           AD       TWO                                   #  BLANKING (BETWEEN TIG-35 AND TIG-30)
000285:                                                                                                  #                                               ***********************
000286:
000287: 36,3357           00006                           EXTEND
000288: 36,3360           13352                           BZF      BLNKWAIT
000289:
000290: 36,3361           33752                           CAF      V16N85B
000291: 36,3362           04616                           TC       BANKCALL
000292: 36,3363           20447                           CADR     GODSPRET
000293:
000294: 36,3364           35017        FKP5RST            CAF      PRIO5
000295: 36,3365           05146                           TC       PRIOCHNG
000296:
000297: 36,3366           31162        DYNMDISP           CA       DISPDEX                               #  A NON-POSITIVE DISPDEX INDICATES PAST
000298: 36,3367           00006                           EXTEND                                         #  TIG-35, SO SERVICER WILL BE DOING THE
000299: 36,3370           65155                           BZMF     ENDOFJOB                              #  UPDATING OF NOUN 85. STOP DYNMDISP.
000300: 36,3371           00006                           EXTEND
000301: 36,3372           41442                           DCS      TIG
000302: 36,3373           53454                           DXCH     TTOGO                                 #  UPDATE TFI DISPLAY (NOUN 40)
000303: 36,3374           00006                           EXTEND
000304: 36,3375           30025                           DCA      TIME2
000305: 36,3376           21454                           DAS      TTOGO
000306: 36,3377           06051                           TC       INTPRET
000307: 36,3400           45175                           VLOAD    CALL
000308: 36,3401           03701                                    VGPREV
000309: 36,3402           57266                                    S41.1                                 #  CONVERT VG FROM REF TO BODY
000310: 36,3403           03502                           STORE    VGBODY
000311: 36,3404           77776                           EXIT
000312: 36,3405           34777                           CAF      1SEC
000313: 36,3406           04616                           TC       BANKCALL
000314: 36,3407           01736                           CADR     DELAYJOB
000315: 36,3410           13366                           TCF      DYNMDISP                              #  RECYCLE ONCE A SECOND
000316:
000317:
000318: 36,3411                                           COUNT    $$/P41
000319: 32,2407                                           BANK     32
000320: 32,2000                                           SETLOC   P40S4
000321: 32,2000                                           BANK
000322:
000323: 32,2407           06051        CALCN85            TC       INTPRET
000324: 32,2410           77624                           CALL
000325: 32,2411           75611                                    UPDATEVG
000326: 32,2412           45175                           VLOAD    CALL
000327: 32,2413           03701                                    VGPREV


000329: 32,2414           57266                                    S41.1
000330: 32,2415           03502                           STORE    VGBODY
000331: 32,2416           77776                           EXIT
000332: 32,2417           04635                           TC       POSTJUMP
000333: 32,2420           66102                           CADR     SERVEXIT
000334:
000335: 36,3411                                           BANK     36
000336: 36,2000                                           SETLOC   P40S
000337: 36,2000                                           BANK
000338:
000339: 36,3411                                           COUNT*   $$/P42
000340: 36,3411  E7,1455                                  EBANK=   WHICH
000341:
000342: 36,3411           05364        P42LM              TC       PHASCHNG
000343: 36,3412           04024                           OCT      04024
000344:
000345: 36,3413           33134                           CAF      P42ADRES                              #  INITIALIZATION FOR BURNBABY.
000346: 36,3414           55455                           TS       WHICH
000347:
000348: 36,3415           40106                           CS       FLGWRD10
000349: 36,3416           74737                           MASK     APSFLBIT
000350: 36,3417           10000                           CCS      A
000351: 36,3420           03120                           TC       P40ALM
000352: 36,3421           04616        P42STAGE           TC       BANKCALL
000353: 36,3422           11241                           CADR     R02BOTH
000354: 36,3423           36000                           CAF      THRESH2                               #  INITIALIZE DVMON
000355: 36,3424           55251                           TS       DVTHRUSH
000356: 36,3425           34751                           CAF      FOUR
000357: 36,3426           55513                           TS       DVCNTR
000358:
000359: 36,3427           06051                           TC       INTPRET
000360: 36,3430           77214                           SET      VLOAD                                 #  LOAD FAPS, MDOTAPS, AND ATDECAY INTO
000361: 36,3431           01072                                    AVFLAG                                #  F, MDOT, AND TDECAY BY VECTOR LOAD.
000362: 36,3432           34007                                    FAPS
000363: 36,3433           03735                           STORE    F
000364: 36,3434           52135                           SLOAD    GOTO
000365: 36,3435           26001                                    APSVEX
000366: 36,3436           75177                                    P40IN
000367:
000368: 36,3437  E7,1455                                  EBANK=   WHICH
000369:
000370: 36,3437                                           COUNT*   $$/P47
000371: 36,3437           04616        P47LM              TC       BANKCALL
000372: 36,3440           11241                           CADR     R02BOTH
000373: 36,3441           06051                           TC       INTPRET
000374: 36,3442           77624                           CALRB
000375: 36,3443           27547                                    MIDTOAV2
000376:
000377: 36,3444           30155                           CA       MPAC       +1
000378: 36,3445           05204                           TC       TWIDDLE


000380: 36,3446           03450                           ADRES    STARTP47
000381:
000382: 36,3447           15155                           TCF      ENDOFJOB
000383:
000384: 36,3450           05364        STARTP47           TC       PHASCHNG
000385: 36,3451           05014                           OCT      05014
000386: 36,3452           77777                           OCT      77777
000387:
000388: 36,3453           00006                           EXTEND
000389: 36,3454           33755                           DCA      ACADN83
000390: 36,3455           53253                           DXCH     AVEGEXIT
000391: 36,3456           34736                           CAF      PRIO20
000392: 36,3457           05105                           TC       FINDVAC
000393: 36,3460  E7,1622                                  EBANK=   DELVIMU
000394: 36,3460           03513 74067                     2CADR    P47BODY
000395:
000396: 36,3462           12344                           TCF      REDO4.2                               #  CHECKS PHASE 5 AND GOES TO PREREAD
000397:                                                                                                  #  SEE TIG-30 IN BURNBABY.
000398:
000399: 36,3463           06051        CALCN83            TC       INTPRET
000400: 36,3464           53375                           VLOAD    VAD
000401: 36,3465           03502                                    DELVCTL
000402: 36,3466           03525                                    DELVREF
000403: 36,3467           03656                           STORE    DELVSIN                               #  TEMP STORAGE FOR RESTARTS
000404: 36,3470           77624                           CALL
000405: 36,3471           57266                                    S41.1
000406: 36,3472           03623                           STORE    DELVIMU
000407: 36,3473           77776                           EXIT
000408: 36,3474           06042                           TC       SERVCHNG
000409: 36,3475           06051                           TC       INTPRET
000410: 36,3476           77775                           VLOAD
000411: 36,3477           03656                                    DELVSIN
000412: 36,3500           03502                           STORE    DELVCTL
000413: 36,3501           77776                           EXIT
000414:
000415: 36,3502           04635                           TC       POSTJUMP
000416: 36,3503           66102                           CADR     SERVEXIT
000417:
000418: 36,3504           33753        P47BOD             CAF      V1683
000419: 36,3505           04616                           TC       BANKCALL
000420: 36,3506           20636                           CADR     GOFLASHR
000421: 36,3507           06001                           TC       GOTOPOOH
000422: 36,3510           06001                           TC       GOTOPOOH
000423:
000424: 36,3511           13513                           TCF      P47BODY
000425:
000426: 36,3512           13235                           TCF      P40PHS1
000427:
000428: 36,3513           06051        P47BODY            TC       INTPRET
000429: 36,3514           77775                           VLOAD


000431: 36,3515           06520                                    HI6ZEROS
000432: 36,3516           03623                           STORE    DELVIMU
000433: 36,3517           03502                           STORE    DELVCTL
000434: 36,3520           77776                           EXIT
000435: 36,3521           03504                           TC       P47BOD
000436:
000437: 36,3522                                           COUNT*   $$/P40
000438: 36,3522           31515        IMPLBURN           CA       TGO        +1
000439: 36,3523           03735                           TC       GETDT
000440: 36,3524           05204                           TC       TWIDDLE
000441: 36,3525           03542                           ADRES    ENGOFTSK
000442: 36,3526           05527                           TC       DOWNFLAG                              #  TURN OFF IGNFLAG
000443: 36,3527           00153                           ADRES    IGNFLAG
000444: 36,3530           05527                           TC       DOWNFLAG                              #  TURN OFF ASTNFLG
000445: 36,3531           00154                           ADRES    ASTNFLAG
000446: 36,3532           05527                           TC       DOWNFLAG                              #  TURN OFF IMPULSW
000447: 36,3533           00044                           ADRES    IMPULSW
000448: 36,3534           05364                           TC       PHASCHNG                              #  RESTART PROTECT ENGOFTSK (ENGINOFF)
000449: 36,3535           40114                           OCT      40114
000450:
000451: 36,3536           05232                           TC       FIXDELAY                              #  WAIT HALF A SECOND
000452: 36,3537           00062                           DEC      50         B-14
000453:
000454: 36,3540           02652                           TC       NOULLAGE                              #  TURN OFF ULLAGE
000455:
000456: 36,3541           05272                           TC       TASKOVER
000457:
000458: 36,3542           04674        ENGOFTSK           TC       IBNKCALL                              #  THIS CODING ALLOWS ENGINOFF ET AL TO BE
000459: 36,3543           75545                           CADR     ENGINOFF                              #  USED BOTH BY WAITLIST AND BY TC IBNKCALL
000460: 36,3544           05272                           TC       TASKOVER
000461:
000462: 36,3545           34644        ENGINOFF           CAF      PRIO12                                #  MUST BE LOWER PRIO THAN CLOCKJOB
000463: 36,3546           05105                           TC       FINDVAC
000464: 36,3547  E7,1462                                  EBANK=   TRKMKCNT
000465: 36,3547           03222 74067                     2CADR    POSTBURN
000466:
000467:
000468: 36,3551           34753        ENGINOF2           CAF      BIT1
000469: 36,3552           05214                           TC       WAITLIST
000470: 36,3553  E6,1422                                  EBANK=   OMEGAQ
000471: 36,3553           03606 74066                     2CADR    COASTSET
000472:
000473: 36,3555           40103        ENGINOF1           CS       FLAGWRD7                              #  SET THE IDLE BIT.
000474: 36,3556           74745                           MASK     IDLEFBIT
000475: 36,3557           26103                           ADS      FLAGWRD7
000476:
000477: 36,3560           02652                           TC       NOULLAGE
000478:
000479: 36,3561           00006        ENGINOF4           EXTEND
000480: 36,3562           30025                           DCA      TIME2


000482: 36,3563           53342                           DXCH     TEVENT
000483:
000484: 36,3564           44745        ENGINOF3           CS       ENGONBIT                              #  INSURE ENGONFLG IS CLEAR.
000485: 36,3565           70101                           MASK     FLAGWRD5
000486: 36,3566           54101                           TS       FLAGWRD5
000487: 36,3567           44355                           CS       PRIO30                                #  ENGINOF3 IS USED AS A PRE-ENGINE ARM
000488: 36,3570           00006                           EXTEND                                         #  SUBROUTINE.
000489: 36,3571           02011                           RAND     DSALMOUT
000490: 36,3572           64736                           AD       PRIO20                                #  TURN OFF THE ENGINE - DPS OR APS
000491: 36,3573           00006                           EXTEND
000492: 36,3574           01011                           WRITE    DSALMOUT
000493:
000494: 36,3575           40111                           CS       DAPBOOLS                              #  TURN OFF TRIM GIMBAL
000495: 36,3576           74736                           MASK     USEQRJTS
000496: 36,3577           26111                           ADS      DAPBOOLS
000497:
000498: 36,3600           44737                           CS       HIRTHROT                              #  ZERO AUTO-THROTTLE WHENEVER THE ENGINE
000499: 36,3601           54055                           TS       THRUST                                #  IS TURNED OFF.
000500: 36,3602           34750                           CAF      BIT4                                  #  THE HARDWARE DOES SO ONLY WHEN THE
000501: 36,3603           00006                           EXTEND                                         #  ENGINE IS DISARMED.
000502: 36,3604           05014                           WOR      CHAN14
000503:
000504: 36,3605           04707                           TC       ISWRETRN
000505: 36,3606           04674        COASTSET           TC       IBNKCALL                              #  DO DAP COASTING INITIALIZATION
000506: 36,3607           40205                           CADR     ALLCOAST
000507: 36,3610           05272                           TC       TASKOVER
000508:
000509: 36,3611  E6,1422                                  EBANK=   OMEGAQ
000510: 36,3611           45020        UPDATEVG           STQ      CALL
000511: 36,3612           03665                                    QTEMP1
000512: 36,3613           56447                                    S40.8                                 #  X-PRODUCT STEERING
000513: 36,3614           43014        S40RET             BON      BON                                   #  WILL RETURN HERE FROM S40.8
000514: 36,3615           01307                                    XDELVFLG
000515: 36,3616           03665                                    QTEMP1
000516: 36,3617           03705                                    NORMSW
000517: 36,3620           75633                                    180SETUP
000518: 36,3621           45345                           DLOAD    DSU
000519: 36,3622           01234                                    PIPTIME
000520: 36,3623           03763                                    TIGSAVE
000521: 36,3624           50025                           DSU      BMN
000522: 36,3625           03432                                    TNEWA
000523: 36,3626           75656                                    GETRANS
000524: 36,3627           43345                           DLOAD    DAD
000525: 36,3630           03763                                    TIGSAVE
000526: 36,3631           03432                                    TNEWA
000527: 36,3632           03765                           STORE    TIGSAVEP
000528: 36,3633           77776        180SETUP           EXIT
000529: 36,3634           10754                           CCS      PHASE2
000530: 36,3635           13663                           TCF      NO.9
000531: 36,3636           34737                           CAF      PRIO10


000533: 36,3637           00004                           INHINT
000534: 36,3640           05105                           TC       FINDVAC
000535: 36,3641  E7,1706                                  EBANK=   VG
000536: 36,3641           02706 56067                     2CADR    S40.9                                 #  LAMBERT VTOGAIN
000537:
000538: 36,3643           05340                           TC       2PHSCHNG
000539: 36,3644           00172                           OCT      00172                                 #  2.17SPOT FOR S40.9
000540: 36,3645           04025                           OCT      04025
000541: 36,3646           06051        ENDSTEER           TC       INTPRET
000542: 36,3647           77745                           DLOAD
000543: 36,3650           03765                                    TIGSAVEP
000544: 36,3651           27763                           STOVL    TIGSAVE
000545: 36,3652           01220                                    RN
000546: 36,3653           26314                           STOVL    RINIT
000547: 36,3654           01226                                    VN
000548: 36,3655           02322                           STORE    VINIT
000549: 36,3656           45345        GETRANS            DLOAD    DSU
000550: 36,3657           03631                                    TPASS4
000551: 36,3660           01234                                    PIPTIME
000552: 36,3661           37452                           STCALL   DELLT4
000553: 36,3662           03665                                    QTEMP1
000554:
000555: 36,3663           06051        NO.9               TC       INTPRET
000556: 36,3664           77650                           GOTO
000557: 36,3665           03665                                    QTEMP1
000558: 36,3666           06051        STEERING           TC       INTPRET
000559:
000560: 36,3667           77624                           CALL
000561: 36,3670           75611                                    UPDATEVG
000562: 36,3671           77776                           EXIT
000563:
000564: 36,3672  E7,1513                                  EBANK=   DVCNTR
000565: 36,3672           00004        NSTEER             INHINT
000566: 36,3673           35016                           CA       EBANK7
000567: 36,3674           54003                           TS       EBANK
000568: 36,3675           40076                           CS       FLAGWRD2                              #  CHECK IMPULSE SWITCH.  IT IS SET EITHER
000569: 36,3676           74743                           MASK     IMPULBIT                              #  BY S40.13 IF TBURN<6 SECS OR BY S40.8 IF
000570: 36,3677           10000                           CCS      A                                     #  STEERING IS ALMOST DONE.
000571:
000572: 36,3700           13705                           TCF      +5                                    #  IMPULSW = 0    EXIT
000573: 36,3701           40103                           CS       FLAGWRD7                              #  IMPULSW = 1    WHY?  CHECK IDLEFLAG
000574: 36,3702           74745                           MASK     IDLEFBIT                              #      (IDLEFLAG = 0 --> DVMON ON)
000575: 36,3703           10000                           CCS      A
000576: 36,3704           13707                           TCF      +3                                    #  DVMON ON-->THRUSTING-->IMPULSW VIA S40.8
000577: 36,3705           04635        GOPIPCYC           TC       POSTJUMP                              #  DVMON OFF-->IMPULSW ON VIA S40.13-->EXIT
000578: 36,3706           66102                           CADR     PIPCYCLE
000579:
000580: 36,3707           04674                           TC       IBNKCALL
000581: 36,3710           40166                           CADR     STOPRATE
000582:


000584: 36,3711           05527                           TC       DOWNFLAG                              #  TURN OFF IMPULSW
000585: 36,3712           00044                           ADRES    IMPULSW
000586:
000587: 36,3713           05515                           TC       UPFLAG
000588: 36,3714           00161                           ADRES    IDLEFLAG                              #  TURN OFF DVMON
000589:
000590: 36,3715           00004                           INHINT
000591: 36,3716           00006                           EXTEND
000592: 36,3717           31442                           DCA      TIG
000593: 36,3720           52155                           DXCH     MPAC
000594: 36,3721           00006                           EXTEND
000595: 36,3722           40025                           DCS      TIME2
000596: 36,3723           20155                           DAS      MPAC
000597: 36,3724           07271                           TC       TPAGREE
000598: 36,3725           30155                           CAE      MPAC       +1
000599: 36,3726           03735                           TC       GETDT
000600: 36,3727           05204                           TC       TWIDDLE
000601: 36,3730           03542                           ADRES    ENGOFTSK
000602: 36,3731           05340                           TC       2PHSCHNG
000603: 36,3732           40114                           OCT      40114                                 #  ENGOFTSK (ENGINOFF)
000604: 36,3733           04025                           OCT      04025
000605: 36,3734           13705                           TCF      GOPIPCYC
000606:
000607: 36,3735           10000        GETDT              CCS      A
000608: 36,3736           13741                           TCF      +3
000609: 36,3737           13741                           TCF      +2
000610: 36,3740           34755                           CAF      ZERO
000611: 36,3741           64753                           AD       ONE
000612: 36,3742           56001                           XCH      L
000613: 36,3743           34755                           CAF      ZERO
000614: 36,3744           53515                           DXCH     TGO
000615: 36,3745           31515                           CA       TGO        +1
000616: 36,3746           00002                           TC       Q
000617:
000618:
000619:                                                                                                  #  ************************************************************************
000620:
000621: 36,3747           00000        5SECDP             OCT      00000                                 #  DON'T MOVE FROM JUST BEFORE 5SEC
000622: 36,3750           00764        5SEC               DEC      500        B-14
000623: 36,3751           04050        V16N40             VN       1640
000624: 36,3752           04125        V16N85B            VN       1685
000625: 36,3753           04123        V1683              VN       1683
000626: 36,3754     4777               SEC01              =        1SEC
000627: 36,3754  36,2057               ACADN85            =        P41TABLE   +2
000628:
000629: 36,3754  E7,1622                                  EBANK=   DELVIMU
000630: 36,3754           03463 74067  ACADN83            2CADR    CALCN83
000631:
000632:                                                                                                  #  *************************************************
000633:


000635:                                                                                                  #  PROGRAM DESCRIPTION S40.1       DATE15NOV66
000636:                                                                                                  #  MOD N02         LOG SECTION  P40-P47
000637:                                                                                                  #  MOD BY ZELDIN AND ADAPTED BY TALAYCO
000638:                                                                                                  #  FUNCTIONAL DESCRIPTION
000639:                                                                                                  #           COMPUTE INITIAL THRUST DIRECTION(UT) AND INITIAL VALUE OF VG
000640:                                                                                                  #           VECTOR(VGTIG).
000641:                                                                                                  #  CALLING SEQUENCE
000642:                                                                                                  #         L CALL
000643:                                                                                                  #       L+1        S40.1
000644:                                                                                                  #  NORMAL EXIT MODE
000645:                                                                                                  #           AT L+2 OF CALLING SEQUENCE (GOTO L+2)  NORMAL RETURN OR
000646:                                                                                                  #           ERROR RETURN IF NOSOFLAG =1
000647:                                                                                                  #  SUBROUTINES CALLED
000648:                                                                                                  #           LEMPREC
000649:                                                                                                  #           INITVEL
000650:                                                                                                  #           CALCGRAV
000651:                                                                                                  #           MIDGIM
000652:                                                                                                  #  ALARM OR ABORT EXIT MODES
000653:                                                                                                  #       L+2 OF CALLING SEQUENCE,UNSOLVABLE CONIC IF NOSOFLAG=1
000654:                                                                                                  #  ERASABLE INITIALIZATION REQUIRED
000655:                                                                                                  #                  WEIGHT/G  ANTICIPATED VEHICLE MASS         DP  B16KGM
000656:                                                                                                  #           XDELVFLG       1=DELTA-V MANEUVER,0=AIMPT STEER
000657:                                                                                                  #            F         THRUST FOR ENGINE USED
000658:                                                                                                  #        IF DELTA-V MANEUVER
000659:                                                                                                  #           DELVSIN   SPECIFIED DELTA-V REQUIRED IN
000660:                                                                                                  #                     INERTIAL COORDS. OF ACTIVE VEHICLE
000661:                                                                                                  #                     AT TIME OF IGNITION                 VECTOR B7M/CS
000662:                                                                                                  #           DELVSAB   MAG. OF DELVSIN                     DP     B7M/CS
000663:                                                                                                  #           RTIG      POSITION AT TIME OF IGNITION       VECTOR B29M
000664:                                                                                                  #           VTIG      VELOCITY AT TIME OF IGNITION       VECTOR B7M/CS
000665:                                                                                                  #        IF AIMPT STEER
000666:                                                                                                  #           TIG       TIME OF IGNITION                    DP     B28CS
000667:                                                                                                  #           RTARG     POSITION TARGET TIME               VECTOR B29M
000668:                                                                                                  #           CSTEER    C FOR STEER LAW                     DP     B2
000669:                                                                                                  #           DLTARG    TARGET TIME-IGNITION TIME          DP     B28CS
000670:                                                                                                  #  OUTPUT
000671:                                                                                                  #        UT           DESIRED THRUST DIRECTION            VECT. B2M/(CS.CS)
000672:                                                                                                  #        VGTIG        INITIAL VALUE OF VELOCITY
000673:                                                                                                  #                     TO BE GAINED (INERT. COORD.)        VECTOR B7M/CS
000674:                                                                                                  #        DELVLVC      VGTIG IN LOC. VERT. COORDS.                B7M/CS
000675:                                                                                                  #           BDT   V REQUIRED AT TIG -V REQUIRED AT (TIG-2SEC)
000676:                                                                                                  #           -GDT  FOR S40.13                                   VECT  B7M/CS
000677:                                                                                                  #        RTIG         CALC IN S40.1B(AIMPT) FOR S40.2,3  VECTOR B29M
000678:                                                                                                  #                     POSITION AT TIME OF IGNITION
000679:                                                                                                  #  DEBRIS      QTEMP1
000680:                                                                                                  #        MPAC, QPRET
000681:                                                                                                  #        PUSHLIST
000682: 14,2347                                           BANK     14
000683: 27,2000                                           SETLOC   P40S1
000684: 27,2000                                           BANK
000685:


000687: 27,2246                                           COUNT*   $$/S40.1
000688: 27,2246           71220        S40.1              STQ      DLOAD
000689: 27,2247           03632                                    QTEMP
000690: 27,2250           03442                                    TIG
000691: 27,2251           03763                           STORE    TIGSAVE
000692: 27,2252           77614        DELVTEST           BOFF
000693: 27,2253           01347                                    XDELVFLG
000694: 27,2254           56336                                    S40.1B
000695: 27,2255           77201        CALCTHET           SETPD    VLOAD
000696: 27,2256           00001                                    0
000697: 27,2257           03650                                    VTIG
000698: 27,2260           02322                           STORE    VINIT
000699: 27,2261           53435                           VXV      UNIT
000700: 27,2262           03642                                    RTIG
000701: 27,2263           27673                           STOVL    UT                                    #  UP IN UT
000702: 27,2264           03642                                    RTIG
000703: 27,2265           02314                           STORE    RINIT
000704: 27,2266           65236                           VSQ      PDDL
000705: 27,2267           00045                                    36D
000706: 27,2270           56205                           DMP      DDV
000707: 27,2271           16412                                    THETACON
000708: 27,2272           41205                           DMP      DMP
000709: 27,2273           03664                                    DELVSAB
000710: 27,2274           01246                                    WEIGHT/G
000711: 27,2275           77671                           DDV
000712: 27,2276           03735                                    F
000713: 27,2277           24017                           STOVL    14D
000714: 27,2300           03656                                    DELVSIN
000715:
000716: 27,2301           74241                           DOT      VXSC
000717: 27,2302           03673                                    UT
000718: 27,2303           03673                                    UT
000719: 27,2304           41552                           VSL2     PUSH                                  #  (DELTAV.UP)UP SCALED AT 2(+7) P.D.L. 0
000720: 27,2305           65245                           BVSU     PDDL                                  #  DELTA VP SCALED AT 2(+7) P.D.L. 6
000721: 27,2306           03656                                    DELVSIN
000722: 27,2307           00017                                    14D
000723: 27,2310           63356                           SIN      PDVL
000724: 27,2311           00007                                    6D
000725: 27,2312           53435                           VXV      UNIT
000726: 27,2313           03673                                    UT
000727: 27,2314           45561                           VXSC     STADR
000728: 27,2315           50076                           STOVL    VGTIG                                 #  UNIT(VPXUP)SIN(THETAT/2) IN VGTIG.
000729: 27,2316           65256                           UNIT     PDDL                                  #  UNIT(DELTA VP) IN P.D.L. 6
000730: 27,2317           00017                                    14D
000731: 27,2320           74346                           COS      VXSC
000732: 27,2321           74255                           VAD      VXSC
000733: 27,2322           03701                                    VGTIG
000734: 27,2323           00045                                    36D
000735: 27,2324           53352                           VSL2     VAD
000736: 27,2325           77626                           STADR


000738: 27,2326           74076                           STORE    VGTIG                                 #  VG IGNITION SCALED AT 2(+7)M/CS
000739:
000740: 27,2327           77656                           UNIT
000741: 27,2330           27673                           STOVL    UT                                    #  THRUST DIRECTION SCALED AT 2(+1)
000742: 27,2331           03701                                    VGTIG
000743: 27,2332           45006                           PUSH     CALL
000744: 27,2333           15741                                    GET.LVC                               #  VGTIG IN LV COOR AT 2(+7) M/CS IN DELVLVC
000745: 27,2334           77650                           GOTO
000746: 27,2335           03632                                    QTEMP
000747: 27,2336           77745        S40.1B             DLOAD
000748: 27,2337           03442                                    TIG
000749: 27,2340           00041                           STORE    TDEC1
000750: 27,2341           77621                           BDSU
000751: 27,2342           03631                                    TPASS4
000752: 27,2343           37452                           STCALL   DELLT4                                #  INTERCEPT TIME - TIG.
000753: 27,2344           27056                                    LEMPREC
000754: 27,2345           40375                           VLOAD    SETPD                                 #  LOAD STATE VECTOR AT TIG FOR INITVEL.
000755: 27,2346           00001                                    RATT
000756: 27,2347           00001                                    0
000757: 27,2350           03642                           STORE    RTIG
000758: 27,2351           02314                           STORE    RINIT
000759: 27,2352           77656                           UNIT
000760: 27,2353           27535                           STOVL    UNIT/R/
000761: 27,2354           00007                                    VATT
000762: 27,2355           03650                           STORE    VTIG
000763: 27,2356           02322                           STORE    VINIT
000764: 27,2357           65345                           DLOAD    PDDL                                  #  NUMIT = 0
000765: 27,2360           06520                                    ZEROVECS
000766: 27,2361           16406                                    EPS1
000767: 27,2362           43214                           BOFF     DAD
000768: 27,2363           03745                                    NORMSW
000769: 27,2364           56366                                    SMALLEPS
000770: 27,2365           16410                                    EPS2                                  #  EPSILON4 = 10 DEGREES OR 45 DEGREES.
000771: 27,2366           66006        SMALLEPS           PUSH     SXA,1
000772: 27,2367           02776                                    RTX1
000773: 27,2370           45134                           SXA,2    CALL
000774: 27,2371           02777                                    RTX2
000775: 27,2372           22000                                    INITVEL
000776: 27,2373           41575                           VLOAD    PUSH
000777: 27,2374           02357                                    DELVEET3                              #  VGTIG = VR - VN.
000778: 27,2375           03701                           STORE    VGTIG
000779: 27,2376           77656                           UNIT                                           #  UT = UNIT (VGTIG)
000780: 27,2377           17673                           STODL    UT
000781: 27,2400           00045                                    36D
000782: 27,2401           37664                           STCALL   VGDISP                                #  CONVERT VGTIG (IN PUSHLIST ) TO LOCAL
000783: 27,2402           15741                                    GET.LVC                               #  VERTICAL COORDINATES.
000784: 27,2403           77650                           GOTO
000785: 27,2404           03632                                    QTEMP
000786:
000787: 27,2405           00707 03434  EPS1               2DEC*    2.777777778 E-2*                       #  10 DEGREES AT 1 REVOLUTION.
000788:


000790: 27,2407           03070 34344  EPS2               2DEC*    9.722222222 E-2*                       #  35 DEGREES AT 1 REVOLUTION.
000791:
000792: 27,2411           00024 13714  THETACON           2DEC     .31830989  B-8
000793:


000795:                                                                                                  #  SUBROUTINE NAME: S40.2,3        MOD. NO. 3 DATE: APRIL 4, 1967
000796:
000797:                                                                                                  #  MODIFICATION BY: JONATHAN D. ADDELSTON (ADAMS ASSOCIATES)
000798:
000799:                                                                                                  #  MOD. NO. 4:  JULY 18, 1967:  PETER ADLER (MIT/IL)
000800:
000801:                                                                                                  #  MOD. NO. 5:  OCTOBER 18, 1967:  PETER ADLER (MIT/IL)
000802:
000803:                                                                                                  #  ORIGINALLY BY: SAYDEAN ZELDIN (MIT INSTRUMENTATION LAB) AND RICHARD TALAYCO (SYSTEM DEVELOPMENT CORP)
000804:
000805:                                                                                                  #  S40.2,3 COMPUTES "POINTVSM" WHICH IS THE HALF-UNIT DESIRED THRUST VECTOR IN STABLE-MEMBER COORDINATES FROM "UT"
000806:                                                                                                  #  WHICH IS THE SAME VECTOR IN REFERENCE COORDINATES.  IT DETERMINES THE CORRECT VALUES FOR "SCAXIS" USING THE +X
000807:                                                                                                  #  AXIS FOR DPS, APS, AND RCS BURNS.  THE "WINGS-LEVEL HEADS-UP" LM ORIENTATION IS THEN COMPUTED IN REFERENCE
000808:                                                                                                  #  COORDINATES.  THESE VECTORS ALSO DEFINE THE "PREFERRED IMU ORIENTATION".  UPON COMPLETION OF THIS CALCULATION,
000809:                                                                                                  #  THE "PREFERRED ATTITUDE COMPUTED" FLAG IS SET (PFRATFLG).
000810:
000811:
000812:                                                                                                  #  CALLING SEQUENCE:
000813:                                                                                                  #                                          L        CALL                   INTERPRETIVE CALL.
000814:                                                                                                  #                                          L +1            S40.2,3
000815:                                                                                                  #                                          L +2    (RETURN)                GIMBAL ANGLE VECTOR IN MPAC.
000816:
000817:                                                                                                  #  SUBROUTINES CALLED:  NONE.
000818:
000819:                                                                                                  #  NORMAL RETURN:  L +2 (SEE CALLING SEQUENCE ABOVE).
000820:
000821:                                                                                                  #  ALARM/ABORT MODES:  NONE.
000822:
000823:                                                                                                  #  INPUT:
000824:
000825:                                                                                                  #           1. REFSMMAT            MATRIX FROM REFERENCE TO STABLE-MEMBER COORDINATES SCALED AT 2.
000826:                                                                                                  #           2. UT                  HALF-UNIT DESIRED THRUST DIRECTION.
000827:                                                                                                  #           3. RTIG                POSITION AT TIG IN REFERENCE COORDINATES.
000828:
000829:                                                                                                  #  OUTPUT:
000830:
000831:                                                                                                  #           1. : XSCREF :          WINGS-LEVEL HEADS-UP LM ORIENTATION
000832:                                                                                                  #              : YSCREF :          IN REFERENCE COORDINATES
000833:                                                                                                  #              : ZSCREF :          (PREFERRED IMU ORIENTATION).
000834:                                                                                                  #           2. POINTVSM            DESIRED THRUST DIRECTION IN STABLE-MEMBER COORDINATES.
000835:                                                                                                  #           3. SCAXIS              HALF-UNIT OF AXIS TO ALIGN IN STABLE-MEMBER COORDINATES.
000836:                                                                                                  #           4. PFRATFLG            INTERPRETIVE FLAG.  ON:  PREFERRED ORIENTATION COMPUTED; OFF:  NOT COMPUTED.
000837:
000838:                                                                                                  #  DEBRIS:  NONE.
000839:


000841: 27,2413                                           COUNT*   $$/S40.2
000842: 27,2413           77775        S40.2,3            VLOAD                                          #  UT: DESIRED THRUST DIRECTION (HALF-UNIT)
000843: 27,2414           03673                                    UT                                    #  (PUT INTO TOP OF PUSH-DOWN-LIST.)
000844: 27,2415           76521                           MXV      VSL1                                  #  TRANSFORM THRUST DIRECTION TO STABLE-
000845: 27,2416           01732                                    REFSMMAT                              #  MEMBER FROM REFERENCE COORDS (RESCALE).
000846: 27,2417           27773                           STOVL    POINTVSM                              #  SAVE FOR "VECPOINT" ROUTINE (LEMMANU).
000847: 27,2420           06516                                    UNITX                                 #  SCAXIS SET TO +X, FOR P40 AND P42 AND
000848: 27,2421           27765                           STOVL    SCAXIS                                #  FOR P41 IF RCS NOT -X,+Y,-Y,+Z,-Z.
000849:
000850: 27,2422           03673                                    UT                                    #  ASSUME +X BURN ALWAYS, EVEN FOR RCS.
000851: 27,2423           03607        PLUSX              STORE    XSCREF                                #  XSCREF = UT (DESIRED THRUST DIRECTION.)
000852: 27,2424           53435                           VXV      UNIT                                  #  RTIG = POSITION AT TIME-OF-IGNITION.
000853: 27,2425           03642                                    RTIG                                  #  YSCREF = UNIT(UT X RTIG)
000854: 27,2426           46125                           PDDL     BHIZ
000855: 27,2427           00045                                    36D                                   #  TEST MAGNITUDE OF UT X RTIG
000856: 27,2430           56441                                    FIXY                                  #  IF SMALL, USE UT X VTIG AS YSC
000857: 27,2431           45575        STORY              VLOAD    STADR
000858: 27,2432           74162                           STORE    YSCREF
000859: 27,2433           76435                           VXV      VSL1                                  #  COMPUTE (YSCREF X XSCREF),BUT FOR A
000860: 27,2434           03607                                    XSCREF                                #  RIGHT HANDED SYSTEM, NEED (X CROSS Y).
000861: 27,2435           77676                           VCOMP                                          #  ZSCREF = - (YSCREF X XSCREF)
000862: 27,2436           03623                           STORE    ZSCREF                                #         = + (XSCREF X YSCREF)
000863:
000864: 27,2437           43414                           SET      RVQ
000865: 27,2440           01073                                    PFRATFLG
000866: 27,2441           47375        FIXY               VLOAD    VXV                                   #  IN THIS CASE,
000867: 27,2442           03607                                    XSCREF                                #  YSCREF = UNIT(XSCREF X VTIG)
000868: 27,2443           03650                                    VTIG
000869: 27,2444           41456                           UNIT     PUSH
000870: 27,2445           77650                           GOTO
000871: 27,2446           56431                                    STORY
000872:


000874:                                                                                                  #  SUBROUTINE S40.8
000875:
000876:                                                                                                  #  MODIFIED APRIL 3, 1968  BY  PETER ADLER   MIT/IL
000877:
000878:                                                                                                  #  DESCRIPTION
000879:
000880:                                                                                                  #       S40.8 UPDATES THE VELOCITY-TO-BE-GAINED VECTOR, VG, (AND FOR LAMBERT TARGETTED BURNS ALSO EXTRAPOLATES VG
000881:                                                                                                  #  USING THE BDT VECTOR)  COMPUTES THE TIME FOR ISSUING THE ENGINE OFF COMMAND, TGO, AND CALLS THE ROUTINE
000882:                                                                                                  #  "FINDCDUW", WHICH GENERATES THE STEERING COMMANDS FOR THE DAP.
000883:
000884:                                                                                                  #  CALLING SEQUENCE
000885:
000886:                                                                                                  #  L-1      CALL
000887:                                                                                                  #  L               S40.8
000888:                                                                                                  #  L+1                      INTERPRETIVE RETURN
000889:
000890:                                                                                                  #  ALARM
000891:
000892:                                                                                                  #       IF VG . DELVREF IS NEGATIVE (VG AND DELVREF OVER 90 DEGREES APART), BYPASS TGO AND STEERING COMPUTATIONS
000893:                                                                                                  #  AND SET ALARM 1407.  RETURN TO CALLER NORMALLY.
000894:
000895:                                                                                                  #  INPUT AND INITIALIZATION
000896:
000897:                                                                                                  #  VGPREV          REFERENCE       2(7) M/CS
000898:                                                                                                  #  DELVREF         REFERENCE       2(7) M/CS
000899:                                                                                                  #  BDT             REFERENCE       2(7) M/CS
000900:                                                                                                  #  TDECAY          TAIL-OFF TIME   2(28)  CS
000901:                                                                                                  #  XDELVFLG        1 = EXTERNAL DELTA-V;  0 = LAMBERT (AIMPOINT)
000902:                                                                                                  #  STEERSW         1 = DO STEERING AND TGO COMPUTATIONS; 0 = VG UPDATE ONLY
000903:                                                                                                  #  FIRSTFLG        1 = GONE TO LAMBERT AT LEAST ONCE;  0 = HAVEN'T GONE TO LAMBERT YET
000904:
000905:                                                                                                  #  NOTE:  VGTIG EQUALS VGPREV
000906:
000907:                                                                                                  #  OUTPUT
000908:
000909:                                                                                                  #  STEERSW         SEE INPUT
000910:                                                                                                  #  IMPULSW         1 = ENGINE OFF IN TGO CENTISECONDS;  0 = CONTINUE BURN
000911:                                                                                                  #  TGO             TIME TO CUT-OFF 2(28)   CS
000912:                                                                                                  #  SEE FINDCDUW FOR STEERING OUTPUTS.
000913:
000914:                                                                                                  #  SUBROUTINE CALLED
000915:
000916:                                                                                                  #       FINDCDUW
000917:
000918:                                                                                                  #  DEBRIS
000919:
000920:                                                                                                  #       MPACS, PUSHLIST
000921:
000922: 27,2447                                           COUNT*   $$/S40.8


000924: 27,2447           77614        S40.8              BOF                                            #  GENERATE VR IF NOT EXTERNAL DELTA-V BURN
000925: 27,2450           01347                                    XDELVFLG
000926: 27,2451           56730                                    RASTEER1
000927: 27,2452           52375                           VLOAD    VSU
000928: 27,2453           03701                                    VGPREV
000929: 27,2454           03525                                    DELVREF
000930: 27,2455           03707        VGAIN*             STORE    VG                                    #  VELOCITY TO BE GAINED SCALED AT (7)M/CS
000931: 27,2456           76521                           MXV      VSL1
000932: 27,2457           01732                                    REFSMMAT
000933: 27,2460           03253                           STORE    UNFC/2
000934: 27,2461           51575        BDTOK              VLOAD    ABVAL
000935: 27,2462           03707                                    VG
000936: 27,2463           03664                           STORE    VGDISP
000937: 27,2464           77776                           EXIT
000938: 27,2465           06042                           TC       SERVCHNG
000939: 27,2466           06051                           TC       INTPRET
000940: 27,2467           77201        TGOCALC            SETPD    VLOAD
000941: 27,2470           00001                                    0
000942: 27,2471           03707                                    VG
000943: 27,2472           27701                           STOVL    VGPREV
000944: 27,2473           03525                                    DELVREF
000945: 27,2474           57414                           BOFF     VCOMP
000946: 27,2475           01344                                    STEERSW
000947: 27,2476           75614                                    S40RET                                #  LOCATION FOLLOWING CALL TO S40.8
000948: 27,2477           77656                           UNIT
000949: 27,2500           41441                           DOT      PUSH
000950: 27,2501           03707                                    VG
000951: 27,2502           56244                           BPL      DDV
000952: 27,2503           51634                                    ALARMIT                               #  DELV IS MORE THAN 90 DEGREES FROM VG.
000953: 27,2504           03743                                    VEX
000954: 27,2505           41215                           DAD      DMP
000955: 27,2506           06516                                    DPHALF
000956: 27,2507           56261                           SR       DDV
000957: 27,2510           20613                                    10D
000958: 27,2511           00045                                    36D
000959: 27,2512           43205                           DMP      DAD
000960: 27,2513           16532                                    -FOURDT
000961: 27,2514           03741                                    TDECAY
000962: 27,2515           03515                           STORE    TGO
000963: 27,2516           77615                           DAD
000964: 27,2517           01234                                    PIPTIME
000965: 27,2520           17442                           STODL    TIG
000966: 27,2521           03515                                    TGO
000967: 27,2522           51025                           DSU      BPL
000968: 27,2523           16534                                    FOURSECS                              #  400 CS
000969: 27,2524           51640                                    GOFIND                                #  CALL TO FINDCDUW -2
000970: 27,2525           43014                           SET      CLRGO
000971: 27,2526           01066                                    IMPULSW
000972: 27,2527           01224                                    STEERSW
000973: 27,2530           75614                                    S40RET                                #  LOCATION FOLLOWING CALL TO S40.8
000974:


000976: 24,3634                                           BANK     24
000977: 24,2000                                           SETLOC   S40BNK
000978: 24,2000                                           BANK
000979:
000980: 24,3634           77776        ALARMIT            EXIT
000981: 24,3635           05600                           TC       ALARM
000982: 24,3636           01407                           OCT      01407                                 #  SKIP TGO COMPUTATION BUT CALL FINDCDUW.
000983: 24,3637           06051                           TC       INTPRET
000984: 24,3640           77624        GOFIND             CALL
000985: 24,3641           61073                                    FINDCDUW   -2
000986: 24,3642           77650                           GOTO
000987: 24,3643           75614                                    S40RET                                #  LOCATION FOLLOWING CALL TO S40.8
000988:
000989: 27,2531                                           BANK     27
000990: 27,2000                                           SETLOC   P40S1
000991: 27,2000                                           BANK
000992:
000993: 27,2531           77715 77777  -FOURDT            2DEC     -800       B-18                       #  -4 (200 CS.)  B (-18)
000994:
000995: 27,2533           00000 00620  FOURSECS           2DEC     400        B-28                       #  400 CS SCALED AT 2(+28) CS
000996:
000997: 27,2535  E7,1742               2VEXHUST           =        VEX
000998:


001000:                                                                                                  #  NAME     S40.13 - TIMEBURN
001001:                                                                                                  #  FUNCTION        (1) DETERMINE WHETHER A GIVEN COMBINATION OF VELOCITY TO
001002:                                                                                                  #                  BE GAINED AND ENGINE CHOICE RESULT IN A BURN TIME
001003:                                                                                                  #                  SUFFICIENT TO ALLOW STEERING AT THE VEHICLE DURING THE
001004:                                                                                                  #                  BURN
001005:                                                                                                  #                  (2) THE MAGNITUDE OF THE RESULTING BURN TIME -- IF IT
001006:                                                                                                  #                  IS SHORT --  AND THE ASSOCIATED TIME OF THE ENGINE OFF
001007:                                                                                                  #                  SIGNAL
001008:                                                                                                  #  CALLING SEQUENCE  VIA FINDVAC AS A NEW JOB
001009:                                                                                                  #  INPUT           VGTIG VELOCITY TO BE GAINED VECTOR (METERS/CS) AT +7
001010:                                                                                                  #                  WEIGHT/G MASS OF VEHICLE IN KGM AT +16
001011:                                                                                                  #                  F  APS ENGINE THRUST IN M.NEWTONS AT +7
001012:                                                                                                  #                  AND ALSO FOR RCS ENGINE
001013:                                                                                                  #                  MDOT RATE OF DECREASE OF VEHICLE MASS DURING ENGINE
001014:                                                                                                  #                  BURN IN KILOGRAMS/CS  AT +3 . THIS SCALING MAY
001015:                                                                                                  #                  REQUIRE MODIFICATION FOR SATURN BURNS.
001016:                                                                                                  #           ENG1FLAG     SWITCH TO DECIDE WHETHER APS OR DPS ENGINE IS USED
001017:                                                                                                  #                   =0   DPS
001018:                                                                                                  #                   =1   APS
001019:                                                                                                  #  OUTPUT          IMPULSW  ZERO FOR STEERING
001020:                                                                                                  #                           ONE FOR ATTITUDE HOLD
001021:                                                                                                  #                  NOTHROTL  ZERO FOR THROTTLING
001022:                                                                                                  #                            ONE  TO INHIBIT THROTTLING
001023:                                                                                                  #                  TGO  TIME TO BURN IN CS
001024:                                                                                                  #           THE QUANTITY M.NEWTON = 10000 NEWTONS WILL BE USED TO EXPRESS
001025:                                                                                                  #                  FORCE
001026:
001027: 27,2535  E7,1514                                  EBANK=   TGO
001028: 27,2535                                           COUNT*   $$/40.13
001029: 27,2535           06051        S40.13             TC       INTPRET
001030: 27,2536           43001                           SETPD    CLEAR
001031: 27,2537           00001                                    00D
001032: 27,2540           01266                                    IMPULSW                               #  ASSUME NO STEERING UNTIL FOUND OTHERWISE
001033: 27,2541           51575                           VLOAD    ABVAL
001034: 27,2542           03701                                    VGTIG                                 #  VELOCITY TO BE GAINED AT +7
001035: 27,2543           41325                           PDDL     DMP                                   #  00D = MAG OF VGTIG AT +7
001036: 27,2544           16705                                    6.5SECS                               #  CORRECT VG FOR 6.5 SECONDS OF ULLAGE
001037: 27,2545           34017                                    FRCS4                                 #  ASSUME 4 JET ULLAGE
001038: 27,2546           72471                           DDV      SL1                                   #  SCALE
001039: 27,2547           01246                                    WEIGHT/G
001040: 27,2550           41421                           BDSU     PUSH
001041: 27,2551           43014                           BOFF     SET
001042: 27,2552           05342                                    APSFLAG
001043: 27,2553           56623                                    S40.13D                               #  FOR DPS ENGINE
001044: 27,2554           02463                                    NOTHROTL
001045: 27,2555           56345                           DLOAD    DDV                                   #  00D = MAG OF VGTIG CORRECTED
001046: 27,2556           16001                                    K1VAL                                 #  M.NEWTONS-CS AT +24
001047: 27,2557           01246                                    WEIGHT/G
001048: 27,2560           50021                           BDSU     BMN


001050: 27,2561           00001                                    00D
001051: 27,2562           56605                                    S40.131                               #  TGO LESS THAN 100 CS
001052: 27,2563           41325                           PDDL     DMP                                   #  02D = TEMP1 AT +7
001053: 27,2564           03737                                    MDOT
001054:
001055:                                                                                                  #  MDOT REPRESENTS THE RATE OF DECREASE OF VEHICLE MASS DURING ENGINE
001056:                                                                                                  #  BURN IN KILOGRAMS/CS .  WHEN  SATURN IS USED , THE SCALING MAY
001057:                                                                                                  #  REQUIRE ADJUSTMENT
001058:
001059: 27,2565           16675                                    3.5SEC                                #  350 CS AT +14
001060: 27,2566           65221                           BDSU     PDDL
001061: 27,2567           01246                                    WEIGHT/G
001062: 27,2570           03735                                    F
001063: 27,2571           60405                           DMP      SR2                                   #  SCALE
001064: 27,2572           16677                                    5SECS
001065: 27,2573           41471                           DDV      PUSH                                  #  04D = TEMP2
001066: 27,2574           51021                           BDSU     BPL
001067: 27,2575           00003                                    02D
001068: 27,2576           56623                                    S40.13D
001069: 27,2577           55345                           DLOAD    BDDV
001070: 27,2600           43205                           DMP      DAD
001071: 27,2601           16677                                    5SECS
001072: 27,2602           16673                                    1SEC2D                                #  100 CS AT +14
001073: 27,2603           77650                           GOTO
001074: 27,2604           56613                                    S40.132
001075: 27,2605           41345        S40.131            DLOAD    DMP
001076: 27,2606           01246                                    WEIGHT/G
001077: 27,2607           41542                           SR1      PUSH
001078: 27,2610           56215                           DAD      DDV
001079: 27,2611           16003                                    K2VAL                                 #  M.NEWTON CS AT +24
001080: 27,2612           16005                                    K3VAL                                 #  M.NEWTON CS AT +10
001081: 27,2613           77414        S40.132            SET      EXIT
001082: 27,2614           01066                                    IMPULSW
001083: 27,2615           07271        S40.132*           TC       TPAGREE
001084: 27,2616           30154                           CA       MPAC
001085: 27,2617           56001                           XCH      L
001086: 27,2620           34755                           CA       ZERO
001087: 27,2621           53515                           DXCH     TGO
001088: 27,2622           12645                           TCF      S40.134
001089:
001090: 27,2623           41345        S40.13D            DLOAD    DMP                                   #  FOR DPS ENGINE
001091: 27,2624           00001                                    00D
001092: 27,2625           01246                                    WEIGHT/G
001093: 27,2626           43006                           PUSH     BON
001094: 27,2627           05302                                    APSFLAG
001095: 27,2630           56666                                    APSTGO
001096: 27,2631           43071                           DDV      CLEAR
001097: 27,2632           16007                                    S40.136
001098: 27,2633           02663                                    NOTHROTL
001099: 27,2634           41400                           BOV      PUSH


001101: 27,2635           56650                                    S40.130V
001102: 27,2636           51025        S40.137            DSU      BPL
001103: 27,2637           16701                                    6SEC                                  #  600.0 CS AT +14
001104: 27,2640           56656                                    S40.138
001105: 27,2641           52015                           DAD      GOTO
001106: 27,2642           16701                                    6SEC
001107: 27,2643           56613                                    S40.132
001108: 27,2644           77776        S40.133            EXIT
001109: 27,2645           05364        S40.134            TC       PHASCHNG
001110: 27,2646           00003                           OCT      00003
001111: 27,2647           05155                           TC       ENDOFJOB
001112: 27,2650           40545        S40.130V           DLOAD    SR4                                   #  RECOMPUTE TGO IN TIME2 UNITS
001113: 27,2651           77671                           DDV
001114: 27,2652           16011                                    S40.136_                              #  S40.136 SHIFTED LEFT 10
001115: 27,2653           03515                           STORE    TGO
001116: 27,2654           77776                           EXIT
001117: 27,2655           12645                           TCF      S40.134                               #  REJOIN COMMON CODING FOR RESTART PROTECT
001118:
001119: 27,2656           51025        S40.138            DSU      BPL
001120: 27,2657           16703                                    89SECS
001121: 27,2660           56663                                    STORETGO
001122: 27,2661           77614                           SET
001123: 27,2662           02463                                    NOTHROTL
001124: 27,2663           77745        STORETGO           DLOAD                                          #  LOAD TGO AT 2(14)
001125: 27,2664           77776                           EXIT
001126: 27,2665           12615                           TCF      S40.132*
001127:
001128: 27,2666           62471        APSTGO             DDV      SL2
001129: 27,2667           34007                                    FAPS
001130: 27,2670           77650                           GOTO
001131: 27,2671           56664                                    STORETGO   +1
001132: 27,2672           00144 00000  1SEC2D             2DEC     100.0      B-14                       #  100.0 CS AT +14
001133:
001134: 27,2674           01274 00000  3.5SEC             2DEC     350.0      B-13                       #  350 CS AT +13
001135:
001136: 27,2676           00764 00000  5SECS              2DEC     500.0      B-14                       #  500.0 CS AT +14
001137:
001138: 27,2700           01130 00000  6SEC               2DEC     600.0      B-14                       #  600.0 CS AT +14
001139:
001140: 27,2702           21304 00000  89SECS             2DEC     8900.0     B-14
001141:
001142: 27,2704           00121 10000  6.5SECS            2DEC     650.       B-17                       #  ASSUME 6.5 SECONDS OF ULLAGE
001143:
001144:                                                                                                  #  FUNCTION    (1) GENERATES REQUIRED VELOCITY AND VELOCITY-TO-BE-GAINED
001145:                                                                                                  #              VECTORS FOR USE DURING AIMPOINT MANEUVERS EVERY TWO
001146:                                                                                                  #              COMPUTATION CYCLES (4 SECONDS).
001147:                                                                                                  #              (2) UPDATES THE B VECTOR WHICH IS USED IN THE FINAL
001148:                                                                                                  #              CALCULATION OF EXTRAPOLATING THE VELOCITY-TO-BE-GAINED
001149:                                                                                                  #              THROUGH ONE 2-SECOND INTERVAL INTO THE FUTURE.
001150:                                                                                                  #  CALLING SEQ VIA FINDVAC AS NEW JOB.


001152:                                                                                                  #  INPUT       RN       - ACTIVE VEHICLE RADIUS VECTOR IN METERS AT +29.
001153:                                                                                                  #              VN       - ACTIVE VEHICLE VELOCITY VECTOR IN METERS/CS AT +7
001154:                                                                                                  #              VRPREV   - LAST COMPUTED VELOCITY REQUIRED VECTOR IN
001155:                                                                                                  #                         METERS/CS AT +7.
001156:                                                                                                  #              TIG      - TIME OF IGNITION IN CS AT +28.
001157:                                                                                                  #              DLTARG   - COMPUTATION CYCLE INTERVAL = 200 CS AT +28.
001158:                                                                                                  #              PIPTIME  - TIME OF RN AND VN IN CS AT +28.
001159:                                                                                                  #              GDT/2    - HALF OF VELOCITY GAINED IN DELTA T TIME DUE TO
001160:                                                                                                  #                         ACCERERATION OF GRAVITY IN METERS/CS AT +7.
001161:                                                                                                  #              DELVREF  - CHANGE IN VELOCITY DURING LAST 2 SEC IN
001162:                                                                                                  #                         METERS/CS AT +7.
001163:                                                                                                  #  OUTPUT      VGPREV   - VELOCITY TO BE GAINED VECTOR IN METERS/CS AT +7.
001164:                                                                                                  #              VGDISP   - MAG OF VGPREV FOR DISPLAY PURPOSES.
001165:                                                                                                  #              VRPREV   - VELOCITY REQUIRED VECTOR IN METERS/CS AT +7.
001166:                                                                                                  #              BDT      - B VECTOR IN METERS/CS AT +7.
001167:                                                                                                  #  SUBROUTINES USED  -  INITVEL
001168: 27,2706  E7,1700                                  EBANK=   VGPREV
001169: 27,2706                                           COUNT*   $$/S40.9
001170: 27,2706           06051        S40.9              TC       INTPRET
001171: 27,2707           77601                           SETPD
001172: 27,2710           00001                                    00D
001173: 27,2711           71214                           SET      DLOAD
001174: 27,2712           01072                                    AVFLAG                                #  SET AVFLAG FOR LEM ACTIVE
001175: 27,2713           06520                                    HI6ZEROS
001176: 27,2714           77725                           PDDL
001177: 27,2715           16406                                    EPS1
001178: 27,2716           43214                           BOFF     DAD                                   #  EPSILON4 = 10 OR 45 DEGREES.
001179: 27,2717           03745                                    NORMSW
001180: 27,2720           56722                                    EPSSMALL
001181: 27,2721           16410                                    EPS2
001182: 27,2722           45006        EPSSMALL           PUSH     CALL
001183: 27,2723           22002                                    HAVEGUES
001184: 27,2724           77776        ENDS40.9           EXIT
001185: 27,2725           05364                           TC       PHASCHNG
001186: 27,2726           00002                           OCT      2
001187: 27,2727           15155                           TCF      ENDOFJOB
001188:
001189:
001190: 27,2730           51575        RASTEER1           VLOAD    ABVAL
001191: 27,2731           01220                                    RN
001192: 27,2732           53744                           LXC,2    SL*
001193: 27,2733           02777                                    RTX2
001194: 27,2734           57576                                    0,2
001195: 27,2735           27715                           STOVL    RMAG
001196: 27,2736           03444                                    RTARG
001197: 27,2737           47051                           VSU      RTB
001198: 27,2740           01220                                    RN
001199: 27,2741           21706                                    NORMUNX1
001200: 27,2742           17656                           STODL    IC
001201: 27,2743           00045                                    36D                                   #  C(36D) = ABVAL(C)


001203: 27,2744           53674                           XAD,2    SL*
001204: 27,2745           00046                                    X1
001205: 27,2746           57576                                    0,2
001206: 27,2747           00037                           STORE    30D
001207: 27,2750           41301                           NORM     DMP
001208: 27,2751           00050                                    X2
001209: 27,2752           03715                                    RMAG
001210: 27,2753           57101                           NORM     XAD,2
001211: 27,2754           00047                                    X1
001212: 27,2755           00046                                    X1
001213: 27,2756           77734                           SXA,2
001214: 27,2757           03766                                    MUSCALE
001215: 27,2760           17725                           STODL    R1C                                   #                          2(+58 -X)
001216: 27,2761           00037                                    30D
001217: 27,2762           65342                           SR1      PDDL
001218: 27,2763           03715                                    RMAG
001219: 27,2764           65342                           SR1      PDDL
001220: 27,2765           03723                                    RTMAG
001221: 27,2766           43342                           SR1      DAD
001222: 27,2767           45415                           DAD      STADR
001223: 27,2770           74044                           STORE    SS                                    #  SS = (R1 + R2 +C )/2
001224: 27,2771           41225                           DSU      DMP
001225: 27,2772           00037                                    30D
001226: 27,2773           03721                                    MU/A
001227: 27,2774           77621                           BDSU
001228: 27,2775           03717                                    MUASTEER
001229: 27,2776           45325                           PDDL     DSU
001230: 27,2777           03733                                    SS
001231: 27,3000           03715                                    RMAG
001232: 27,3001           70501                           NORM     SR1
001233: 27,3002           00047                                    X1
001234: 27,3003           41271                           DDV      DMP
001235: 27,3004           03725                                    R1C
001236: 27,3005           53664                           XSU,2    SL*
001237: 27,3006           00046                                    X1
001238: 27,3007           57575                                    1,2
001239: 27,3010           77754                           LXA,2
001240: 27,3011           03766                                    MUSCALE
001241: 27,3012           75366                           SQRT     SIGN
001242: 27,3013           02673                                    GEOMSGN
001243: 27,3014           00041                           STORE    32D                                   #  + OR - A
001244: 27,3015           41345                           DLOAD    DMP
001245: 27,3016           03733                                    SS
001246: 27,3017           03721                                    MU/A
001247: 27,3020           77621                           BDSU
001248: 27,3021           03717                                    MUASTEER
001249: 27,3022           45325                           PDDL     DSU
001250: 27,3023           03733                                    SS
001251: 27,3024           03723                                    RTMAG
001252: 27,3025           70501                           NORM     SR1


001254: 27,3026           00047                                    X1
001255: 27,3027           41271                           DDV      DMP
001256: 27,3030           03725                                    R1C
001257: 27,3031           53664                           XSU,2    SL*
001258: 27,3032           00046                                    X1
001259: 27,3033           57575                                    1,2
001260: 27,3034           65366                           SQRT     PDDL                                  #  -B (NO SIGN)
001261: 27,3035           03733                                    SS
001262: 27,3036           56225                           DSU      DDV
001263: 27,3037           00037                                    30D
001264: 27,3040           03733                                    SS
001265: 27,3041           41566                           SQRT     PUSH
001266: 27,3042           67542                           SR1      ASIN
001267: 27,3043           65205                           DMP      PDDL
001268: 27,3044           17215                                    2PI+3
001269: 27,3045           56325                           PDDL     DDV
001270: 27,3046           00037                                    30D
001271: 27,3047           03733                                    SS
001272: 27,3050           77600                           BOV
001273: 27,3051           57052                                    +1
001274: 27,3052           41366                           SQRT     DMP
001275: 27,3053           44242                           SR3      BDSU
001276: 27,3054           65365                           SIGN     PDDL
001277: 27,3055           02673                                    GEOMSGN
001278: 27,3056           17215                                    2PI+3
001279: 27,3057           45302                           SR2      DSU
001280: 27,3060           65205                           DMP      PDDL
001281: 27,3061           03733                                    SS
001282: 27,3062           03733                                    SS
001283: 27,3063           75442                           SR3      SQRT
001284: 27,3064           77605                           DMP
001285: 27,3065           52525                           PDDL     SL3
001286: 27,3066           03717                                    MUASTEER
001287: 27,3067           55366                           SQRT     BDDV
001288: 27,3070           43225                           DSU      DAD
001289: 27,3071           03631                                    TPASS4
001290: 27,3072           01234                                    PIPTIME
001291: 27,3073           14037                           STODL    30D
001292: 27,3074           77765                           SIGN
001293: 27,3075           00037                                    30D                                   #  B WITH SIGN
001294: 27,3076           00037                           STORE    30D
001295: 27,3077           77214                           BON      VLOAD
001296: 27,3100           03705                                    NORMSW
001297: 27,3101           57122                                    180MESS
001298: 27,3102           03656                                    IC
001299: 27,3103           53451                           VSU      UNIT
001300: 27,3104           03535                                    UNIT/R/
001301: 27,3105           63361                           VXSC     PDVL
001302: 27,3106           00037                                    30D
001303: 27,3107           03656                                    IC


001305: 27,3110           53455                           VAD      UNIT
001306: 27,3111           03535                                    UNIT/R/
001307: 27,3112           53361        GETVRVG1           VXSC     VAD
001308: 27,3113           00041                                    32D
001309: 27,3114           53744        GETVRVG2           LXC,2    VSR*
001310: 27,3115           02777                                    RTX2
001311: 27,3116           57177                                    0          -1,2
001312: 27,3117           02330                           STORE    VIPRIME
001313: 27,3120           77650                           GOTO
001314: 27,3121           57165                                    ASTREND    -2
001315: 27,3122           50375        180MESS            VLOAD    DOT
001316: 27,3123           03656                                    IC
001317: 27,3124           03535                                    UNIT/R/
001318: 27,3125           77240                           BMN      VLOAD
001319: 27,3126           57145                                    NEGPROD
001320: 27,3127           03656                                    IC
001321: 27,3130           63362                           VSR1     PDVL
001322: 27,3131           03535                                    UNIT/R/
001323: 27,3132           53362                           VSR1     VAD
001324: 27,3133           77656                           UNIT
001325: 27,3134           57406                           PUSH     VCOMP                                 #  FOR A
001326: 27,3135           75235                           VXV      SIGN
001327: 27,3136           02674                                    UN
001328: 27,3137           02673                                    GEOMSGN
001329: 27,3140           74256                           UNIT     VXSC
001330: 27,3141           00037                                    30D
001331: 27,3142           77715                           PDVL                                           #  UNIT(IC-IR)     +-B
001332: 27,3143           77650                           GOTO
001333: 27,3144           57112                                    GETVRVG1
001334: 27,3145           74575        NEGPROD            VLOAD    VSR1
001335: 27,3146           03535                                    UNIT/R/
001336: 27,3147           74515                           PDVL     VSR1
001337: 27,3150           03656                                    IC
001338: 27,3151           53451                           VSU      UNIT
001339: 27,3152           77606                           PUSH
001340: 27,3153           75235                           VXV      SIGN
001341: 27,3154           02674                                    UN                                    #  FOR B
001342: 27,3155           02673                                    GEOMSGN
001343: 27,3156           74256                           UNIT     VXSC
001344: 27,3157           00041                                    32D
001345: 27,3160           77715                           PDVL
001346: 27,3161           53361                           VXSC     VAD
001347: 27,3162           00037                                    30D
001348: 27,3163           77650                           GOTO
001349: 27,3164           57114                                    GETVRVG2
001350: 27,3165           77651                           VSU
001351: 27,3166           03551                                    VN1
001352: 27,3167           02357        ASTREND            STORE    DELVEET3
001353: 27,3170           53135        FIRSTTME           SLOAD    BZE
001354: 27,3171           03000                                    RTX2


001356: 27,3172           57176                                    GETGOBL
001357: 27,3173           52175                           VLOAD    GOTO                                  #  NO OBLATENESS COMP IF IN MOON SPHERE
001358: 27,3174           02357                                    DELVEET3
001359: 27,3175           57211                                    NOGOBL
001360: 27,3176           53575        GETGOBL            VLOAD    UNIT                                  #  CALCULATE OBLATENESS TERM.
001361: 27,3177           01220                                    RN
001362: 27,3200           45345                           DLOAD    DSU
001363: 27,3201           01234                                    PIPTIME                               #               2
001364: 27,3202           03512                                    GOBLTIME                              #  G    = -(MU/R )(UNITGOBL)(T - TIG)
001365: 27,3203           56205                           DMP      DDV                                   #   OBL
001366: 27,3204           16023                                    EARTHMU
001367: 27,3205           00043                                    34D                                   #  34D = /RN/ (2) FROM UNIT OPERATION.
001368: 27,3206           53361                           VXSC     VAD
001369: 27,3207           03517                                    UNITGOBL
001370: 27,3210           02357                                    DELVEET3                              #   OUTPUT FROM INITVEL  VG = VR - VN
001371: 27,3211           02357        NOGOBL             STORE    DELVEET3                              #  VG = VR + GOBL - VN
001372: 27,3212           77650                           GOTO
001373: 27,3213           56455                                    VGAIN*
001374:
001375:
001376: 27,3214           31103 36652  2PI+3              2DEC     3.141592653 B-2
001377:
001378:


001380:                                                                                                  #  TRIMGIMB      (FORMERLY S40.6)
001381:                                                                                                  #  MOD 0     24 FEB 67     PETER ADLER
001382:                                                                                                  #  FUNCTION:
001383:                                                                                                  #           TRIMS DPS ENGINE TO MINIMIZE THRUST/CG OFFSET. ENGINE IS GIMBALLED TO FULL + PITCH AND + ROLL (TO LOCK)
001384:                                                                                                  #           FOR REFERENCE AND IS THEN BROUGHT BACK TO TRIM POSITION BY RUNNING FOR THE PROPER TIMES (TO BE
001385:                                                                                                  #           SPECIFIED BY GAEC) IN - PITCH AND - ROLL.
001386:                                                                                                  #  CALLING SEQUENCE:
001387:                                                                                                  #           VIA WAITLIST FROM R03
001388:                                                                                                  #  INPUT:
001389:                                                                                                  #           PITTIME     TIME TO RUN FROM FULL + PITCH TO TRIM  (CS)
001390:                                                                                                  #           ROLLTIME    TIME TO RUN FROM FULL + ROLL  TO TRIM  (CS)
001391:                                                                                                  #  SUBROUTINES USED:
001392:                                                                                                  #           WAITLIST, FIXDELAY, VARDELAY, FLAGUP, FLAGDOWN, NOVAC
001393:
001394: 27,3216                                           COUNT*   $$/S40.6
001395: 27,3216  E6,1401                                  EBANK=   ROLLTIME                              #  OCTAL MASKS:  PRIO5=05000 EBANK5=02400
001396:
001397: 27,3216           05527        TRIMGIMB           TC       DOWNFLAG                              #  GMBDRVSW FLAG IS SET WHEN EITHER ROLL OR
001398: 27,3217           00137                           ADRES    GMBDRVSW                              #  PITCH IS COMPLETED, WHICHEVER IS FIRST.
001399:
001400: 27,3220           45017                           CS       PRIO5                                 #  TURN OFF - PITCH, - ROLL, IF ON.
001401: 27,3221           00006                           EXTEND
001402: 27,3222           03012                           WAND     CHAN12
001403: 27,3223           35014                           CAF      EBANK5                                #  TURN ON + PITCH, + ROLL.
001404: 27,3224           00006                           EXTEND
001405: 27,3225           05012                           WOR      CHAN12
001406: 27,3226           05232                           TC       FIXDELAY                              #  WAIT ONE MINUTE TO MAKE SURE ENGINE IS
001407: 27,3227           13560                           DEC      6000       B-14                       #  AT FULL + PITCH AND FULL + ROLL
001408: 27,3230           45014                           CS       EBANK5                                #  TURN OFF + PITCH, + ROLL.
001409: 27,3231           00006                           EXTEND
001410: 27,3232           03012                           WAND     CHAN12
001411: 27,3233           35017                           CAF      PRIO5                                 #  TURN ON - PITCH, - ROLL.
001412: 27,3234           00006                           EXTEND
001413: 27,3235           05012                           WOR      CHAN12
001414: 27,3236           31402                           CAE      PITTIME                               #  GET TIME TO SHUT OFF - PITCH AND SET UP
001415: 27,3237           05204                           TC       TWIDDLE                               #  TWIDDLE-TASK TO TURN IT OFF THEN
001416: 27,3240           03257                           ADRES    PITCHOFF
001417:
001418: 27,3241           31401                           CAE      ROLLTIME                              #  GET TIME TO SHUT OFF - ROLL AND GO AWAY
001419: 27,3242           05235                           TC       VARDELAY                              #  UNTIL THEN
001420: 27,3243           44740                           CS       BIT12
001421: 27,3244           00006                           EXTEND
001422: 27,3245           03012                           WAND     CHAN12                                #  SHUT OFF ROLL
001423: 27,3246           30102        ROLLOVER           CA       FLAGWRD6                              #  IF HERE INLINE (ROLL DONE) IS PITCH DONE
001424: 27,3247           74742                           MASK     GMBDRBIT                              #  IF HERE FROM PITCHOFF, IS ROLL DONE?
001425: 27,3250           00006                           EXTEND
001426: 27,3251           13263                           BZF      PITCHOFF   +4                         #  NO.  SET FLAG, ROLL OR PITCH DONE.
001427: 27,3252           34737                           CAF      PRIO10                                #  RETURN TO R03
001428: 27,3253           05072                           TC       NOVAC
001429: 27,3254  E7,1471                                  EBANK=   WHOCARES


001431: 27,3254           02330 02067                     2CADR    TRIMDONE
001432:
001433: 27,3256           05272                           TC       TASKOVER
001434: 27,3257           44742        PITCHOFF           CS       BIT10
001435: 27,3260           00006                           EXTEND
001436: 27,3261           03012                           WAND     CHAN12                                #  SHUT OFF PITCH
001437: 27,3262           13246                           TCF      ROLLOVER                              #  SEE IF ROLL HAS FINISHED ALSO.
001438: 27,3263           05515                           TC       UPFLAG                                #  ROLL DONE; OR PITCH DONE; BUT NOT BOTH.
001439: 27,3264           00137                           ADRES    GMBDRVSW
001440: 27,3265           05272                           TC       TASKOVER
001441:


001443:                                                                                                  #  SUBROUTINE NAME: S41.1          MOD. NO. 0  DATE: FEBRUARY 28, 1967
001444:
001445:                                                                                                  #                          MOD. NO. 1  DATE: JANUARY 23, 1968: BY PETER ADLER (MIT/IL)
001446:
001447:                                                                                                  #  AUTHOR: JONATHAN D. ADDELSTON (ADAMS ASSOCIATES)
001448:
001449:                                                                                                  #  S41.1 PERFORMS THE COORDINATE SYSTEM TRANFORMATION FROM THE REFERENCE FRAME TO THE BODY OF THE LM.
001450:                                                                                                  #  SPECIFICALLY, IT IS USED TO TRANSFORM A VELOCITY (SCALED AT 2(+7) METERS/CENTISECOND) FROM REFERENCE TO LM AXIS
001451:                                                                                                  #  COORDINATES.  FIRST THE VECTOR IS TRANSFORMED TO THE STABLE MEMBER COORDINATES BY THE MATRIX REFSMMAT.  THIS
001452:                                                                                                  #  LEAVES THE VECTOR IN MPAC, SCALED AT 2(+8) METERS/CENTISECOND.  THEN
001453:                                                                                                  #  THE SUBROUTINE CDUTRIG IS CALLED TO SET UP THE DOUBLE-PRECISION CDU VECTOR ALONG WITH ITS SINES AND COSINES.
001454:                                                                                                  #  THE VECTOR IS THEN TRANSFORMED FROM STABLE MEMBER COORDINATES TO SPACECRAFT (OR LM) COORDINATES BY THE
001455:                                                                                                  #  SUBROUTINE *SMNB*.  FINALLY( THE VECTOR IS RESCALED TO 2(+7) METERS/CENTISECOND, AND CONTROL IS RETURNED TO THE
001456:                                                                                                  #  CALLER WITH C(MPAC) = VELOCITY(LM).
001457:
001458:
001459:                                                                                                  #  CALLING SEQUENCE:
001460:                                                                                                  #                                          L        VLOAD  CALL
001461:                                                                                                  #                                          L +1            VELOCITY(REF)   SCALED AT 2(+7)M/CS IN REFERENCE COORDS.
001462:                                                                                                  #                                          L +2            S41.1
001463:                                                                                                  #                                          L +3     STORE  VELOCITY(LM)    SCALED AT 2(+7)M/CS IN LM BODY AXIS SYS.
001464:
001465:                                                                                                  #  SUBROUTINES CALLED:
001466:
001467:                                                                                                  #           1.  CDUTRIG,
001468:                                                                                                  #                  WHICH CALLS CDULOGIC.
001469:                                                                                                  #           2.  *SMNB*
001470:
001471:                                                                                                  #  NORMAL RETURN: L +3 (SEE CALLING SEQUENCE, ABOVE.)
001472:
001473:                                                                                                  #  ALARM/ABORT MODES: NONE.
001474:
001475:                                                                                                  #  RESTART PROTECTION: NONE.
001476:


001478:                                                                                                  #  INPUT:
001479:
001480:                                                                                                  #           1.  REFSMMAT.
001481:                                                                                                  #           2.  CDUX, CDUY, CDUZ.
001482:                                                                                                  #           3.  VELOCITY (REF) IN MPAC.
001483:
001484:                                                                                                  #  OUTPUT:
001485:
001486:                                                                                                  #           1.  CDUSPOT:  DOUBLE PRECISION CDU VECTOR, ORDERED Y,Z,X.
001487:                                                                                                  #           2.  SINCDU:   HALF SINES OF CDUSPOT COMPONENTS.
001488:                                                                                                  #           3.  COSCDU:   HALF COSINES OF CDUSPOT COMPONENTS.
001489:                                                                                                  #           4.  MPAC:     VELOCITY(LM) (SCALED AT 2(+7) METERS/CENTISECOND)
001490:
001491:                                                                                                  #  DEBRIS: NONE.
001492:
001493:                                                                                                  #  CHECKOUT STATUS:  CODED.
001494:
001495: 27,3266                                           COUNT*   $$/S41.1
001496: 27,3266           76521        S41.1              MXV      VSL1                                  #  CONVERT VECTOR IN MPAC FROM REF AT 2(+7)
001497: 27,3267           01732                                    REFSMMAT                              #  TO SM AND RESCALE DUE TO HALFUNIT MATRIX
001498: 27,3270           77650                           GOTO                                           #  CONVERT TO BODY AT 2(+7) USING PRESENT
001499: 27,3271           47653                                    CDU*SMNB                              #  CDU ANGLES.  CDU*SMNB WILL RETURN
001500:                                                                                                  #  VIA RVQ TO THE CALLER OF S41.1

End of include-file P40-P47.agc.  Parent file is MAIN.agc


