
Source Code


000002:                                                                                                  ## Copyright:   Public domain.
000003:                                                                                                  ## Filename:    PHASE_TABLE_MAINTENANCE.agc
000004:                                                                                                  ## Purpose:     A log section of Zerlina 56, the final revision of
000005:                                                                                                  ##              Don Eyles's offline development program for the variable
000006:                                                                                                  ##              guidance period servicer. It also includes a new P66 with LPD
000007:                                                                                                  ##              (Landing Point Designator) capability, based on an idea of John
000008:                                                                                                  ##              Young's. Neither of these advanced features were actually flown,
000009:                                                                                                  ##              but Zerlina was also the birthplace of other big improvements to
000010:                                                                                                  ##              Luminary including the terrain model and new (Luminary 1E)
000011:                                                                                                  ##              analog display programs. Zerlina was branched off of Luminary 145,
000012:                                                                                                  ##              and revision 56 includes all changes up to and including Luminary
000013:                                                                                                  ##              183. It is therefore quite close to the Apollo 14 program,
000014:                                                                                                  ##              Luminary 178, where not modified with new features.
000015:                                                                                                  ## Reference:   pp. 1283-1291
000016:                                                                                                  ## Assembler:   yaYUL
000017:                                                                                                  ## Contact:     Ron Burkey <info@sandroid.org>.
000018:                                                                                                  ## Website:     www.ibiblio.org/apollo/index.html
000019:                                                                                                  ## Mod history: 2017-07-28 MAS  Created from Luminary 210.
000020:                                                                                                  ##              2017-08-20 MAS  Updated for Zerlina 56.
000021:


000023:                                                                                                  #           SUBROUTINE TO UPDATE THE PROGRAM NUMBER DISPLAY ON THE DSKY.
000024:
000025: 43,3723                                           COUNT*   $$/PHASE
000026:    5322                                           BLOCK    02
000027:    4000                                           SETLOC   FFTAG1
000028:    4000                                           BANK
000029:
000030:    5322           50002        NEWMODEX           INDEX    Q                                     #  UPDATE MODREG. ENTRY FOR MODE IN FIXED.
000031:    5323           30000                           CAF      0
000032:    5324           24002                           INCR     Q
000033:
000034:    5325           55010        NEWMODEA           TS       MODREG                                #  ENTRY FOR MODE IN A.
000035:    5326           35331        MMDSPLAY           CAF      +3                                    #  DISPLAY MAJOR MODE.
000036:    5327           22006        PREBJUMP           LXCH     BBANK                                 #  PUTS BBANK IN L
000037:    5330           14640                           TCF      BANKJUMP                              #  PUTS Q INTO A
000038:    5331           20213                           CADR     SETUPDSP
000039:
000040:                                                                                                  #           RETURN TO CALLER +3 IF MODE = THAT AT CALLER +1. OTHERWISE RETURN TO CALLER +2.
000041:
000042:    5332           50002        CHECKMM            INDEX    Q
000043:    5333           40000                           CS       0
000044:    5334           61010                           AD       MODREG
000045:    5335           00006                           EXTEND
000046:    5336           16753                           BZF      Q+2
000047:    5337           16751                           TCF      Q+1                                   #  NO MATCH
000048:
000049:    5340     6754               TCQ                =        Q+2        +1
000050:
000051: 14,3775                                           BANK     14
000052: 10,2000                                           SETLOC   PHASETAB
000053: 10,2000                                           BANK
000054:
000055: 10,2213                                           COUNT*   $$/PHASE
000056: 10,2213           00004        SETUPDSP           INHINT
000057: 10,2214           52071                           DXCH     RUPTREG1                              #  SAVE CALLER-S RETURN 2CADR
000058: 10,2215           34355                           CAF      PRIO30                                #    EITHER A TASK OR JOB CAN COME TO
000059: 10,2216           05072                           TC       NOVAC                                 #    NEWMODE X
000060: 10,2217     1010                                  EBANK=   MODREG
000061: 10,2217           03574 60102                     2CADR    DSPMMJOB
000062:
000063: 10,2221           52071                           DXCH     RUPTREG1
000064: 10,2222           00003                           RELINT
000065: 10,2223           52006                           DXCH     Z                                     #  RETURN
000066:
000067: 10,2224  40,3574               DSPMMJOB           EQUALS   DSPMMJB
000068:
000069:
000070:    5340                                           BLOCK    02
000071:    4000                                           SETLOC   FFTAG1
000072:    4000                                           BANK


000074:                                                                                                  #  PHASCHNG IS THE MAIN WAY OF MAKING PHASE CHANGES FOR RESTARTS.  THERE ARE THREE FORMS OF PHASCHNG, KNOWN AS TYPE
000075:                                                                                                  #  A, TYPE B, AND TYPE C. THEY ARE ALL CALLED AS FOLLOWS, WHERE OCT XXXXX   CONTAINS THE PHASE INFORMATION,
000076:
000077:                                                                                                  #                                                   TC     PHASCHNG
000078:                                                                                                  #                                                   OCT    XXXXX
000079:
000080:                                                                                                  #  TYPE A IS CONCERNED WITH FIXED PHASE CHANGES, THAT IS, PHASE INFORMATIONTHAT IS STORED PERMANENTLY.  THESE
000081:                                                                                                  #  OPTIONS ARE, WHERE G STANDS FOR A GROUP AND .X FOR THE PHASE,
000082:
000083:                                                                                                  #                  G.0             INACTIVE, WILLNOT PERMIT A GROUP G RESTART
000084:                                                                                                  #                  G.1             WILL CAUSE THE LAST DISPLAY TO BE REACTIVATED, USED MAINLY IN MANNED FLIGHTS
000085:                                                                                                  #                  G.EVEN          A DOUBLE TABLE RESTART, CAN CAUSE ANY COMBINATION OF TWO JOBS, TASKS, AND/OR
000086:                                                                                                  #                                  LONGCALL TO BE RESTARTED.
000087:                                                                                                  #                  G.ODD NOT .1    A SINGLE TABLE RESTART, CAN CAUSE EITHER A JOB, TASK, OR LONGCALL RESTART
000088:
000089:                                                                                                  #  THIS INFORMATION IS PUT INTO THE OCTAL WORD AFTER TC PHASCHNG AS FOLLOWS
000090:
000091:                                                                                                  #                  TL0 00P PPP PPP GGG                                     ,
000092:
000093:                                                                                                  #  WHERE EACH LETTER OR NUMBER STANDS FOR A BIT.  THE G:S STAND FOR THE GROUP, OCTAL 1 - 7, THE P:S FOR THE PHASE,
000094:                                                                                                  #  OCTAL 0 - 127.  0:S MUST BE 0.              IF ONE WISHES TO HAVE THE TBASE OF GROUP G TO BE SET AT THIS TIME,
000095:                                                                                                  #  T IS SET TO 1, OTHERWISE IT IS SET TO 0.  SIMIARLY IF ONE WISHES TO SET LONGBASE, THEN L IS SET TO 1, OTHERWISE
000096:                                                                                                  #  IT IS SET TO 0.  SOME EXAMPLES,
000097:
000098:                                                                                                  #                                                   TC     PHASCHNG        THIS WILL CAUSE GROUP 3 TOBE SET TO 0,
000099:                                                                                                  #                                                   OCT    00003           MAKING GROUP 3 INACTIVE
000100:
000101:                                                                                                  #                                                   TC     PHASCHNG        IF A RESTART OCCURS THIS WOULD CAUSE
000102:                                                                                                  #                                                   OCT    00012           GROUP 2 TO RESTART THE LAST DISPLAY
000103:
000104:                                                                                                  #                                                   TC     PHASCHNG        THIS SETS THE TBASE OF GROUP 4 AND IN
000105:                                                                                                  #                                                   OCT    40064           CASE OF A RESTART WOULD START UP THE TWO
000106:                                                                                                  #                                                                          THINGS LOCATED IN THE DOUBLE 4.6 RESTART
000107:                                                                                                  #                                                                          LOCATION
000108:                                                                                                  #                                                   TC     PHASCHNG        THIS SETS LONGBASE AND UPON A RESTART
000109:                                                                                                  #                                                   OCT    20135           CAUSES 5.13 TO BE RESTARTED  (SINCE
000110:                                                                                                  #                                                                          LONGBASE WAS SET THIS SINGLE ENTRY
000111:                                                                                                  #                                                                          SHOULD BE A LONGCALL)
000112:                                                                                                  #                                                   TC     PHASCHNG        SINCE BOTH TBASE4 AND LONGBASE ARE SET,
000113:                                                                                                  #                                                   OCT    60124           4.12 SHOULD CONTAIN BOTH A TASK AND A
000114:                                                                                                  #                                                                          LONGCALL TO BE RESTARTED
000115:
000116:                                                                                                  #  TYPE C PHASCHNG CONTAINS THE VARIABLE TYPE OF PHASCHNG INFORMATION. INSTEAD OF THE INFORMATION BEING IN A
000117:                                                                                                  #  PERMANENT FORM, ONE STORES THE DESIRED RESTART INFORMATION IN A VARIABKE LOCATION. THE BITS ARE AS FOLLOWS,
000118:
000119:                                                                                                  #                  TL0 1AD XXX CJW GGG
000120:
000121:                                                                                                  #  WHERE EACH LETTER OR NUMBER STANDS FOR A BIT.  THE G:S STAND FOR THE GROUP, OCTAL 1 - 7.  IF THE RESTART IS TO
000122:                                                                                                  #  BE BY WAITLIST, W IS SET TO 1, IF IT IS A JOB, J IS SET TO 1, IF IT IS A LONGCALL, C IS SET TO 1. ONLY ONE OF
000123:                                                                                                  #  THESE THREE BIT S MAY BE SET.  X:S ARE IGNORED  1 MUST BE 1, AND 0 MUST  BE 0.  AGAIN T STANDS FOR THE TBASE,


000125:                                                                                                  #  AND L FOR LONGBASE.  THE BITS A AND D ARE CONCERNED WITH THE VARIABLE INFORMATION. IF D IS SET TO 1, A PRIORITY
000126:                                                                                                  #  OR DELTA TIME WILL BE READ FROM THE NEXT LOCATION AFTER THE OCTAL INFORMATION, IF THIS IS TO BE INDIRECT, THAT
000127:                                                                                                  #  IS, THE NAME OF A LOCATION COMT+INING THE INFORMATION (DELTA TIME ONLY), THEN THIS IS GIVEN AS THE -GENADR OF
000128:                                                                                                  #  THAT LOCATION WHICH CONTAINS THE DELTA TIME.  IF THE OLD PRIORITY OR DELTA TIME IS TO BE USED, THAT WHICH IS
000129:                                                                                                  #  ALREADY IN THE VARIABLE STORAGE, THEN D IS SET TO 0. NEXT THE A BIT IS USED.  IF IT IS SET TO 0, THE ADDRESS
000130:                                                                                                  #  THAT WOULD BE RESTARTED DURING A RESTART IS THE NEXT LOCATION AFTER THE  PHASE INFORMATION, THAT IS, EITHER
000131:                                                                                                  #  (TC PHASCHNG) +2 OR +3, DEPENDING ON WHETHER D HAD BEEN SET OR NOT.  IF A IS SET TO 1, THEN THE ADDRESS THAT
000132:                                                                                                  #  WOULD BE RESTARTED IS THE 2CADR THAT IS READ FROM THE NEXT TWO LOCATIONS.  EXAMPLES,
000133:
000134:                                                                                                  #                                          AD       TC     PHASCHNG        THIS WOULD CAUSE LOCATION AD +3 TO BE
000135:                                                                                                  #                                          AD+1     OCT    05023           RESTARTED BY GROUP THREE WITHA PRIORITY
000136:                                                                                                  #                                          AD+2     OCT    23000           OF 23.  NOTE UPON RETURNING IT WOULD
000137:                                                                                                  #                                          AD+3                            ALSO GO TO AD+3
000138:
000139:                                                                                                  #                                          AD       TC     PHASCHNG        GROUP  1 WOULD CAUSE CAUSE CALLCALL TO
000140:                                                                                                  #                                          AD+1     OCT    27441           BE STARTED AS A LONGCALL FROM THE TIME
000141:                                                                                                  #                                          AD+2    -GENADR DELTIME         STORED IN LONGBASE (LONGBASE WAS SET) BY
000142:                                                                                                  #                                          AD+3     2CADR  CALLCALL        A DELTATIME STORED IN DELTIME.  THE
000143:                                                                                                  #                                          AD+4                            BBCON OF THE 2CADR SHOULD CONTAIN THE E
000144:                                                                                                  #                                          AD+5                            BANK OF DELTIME. PHASCHNG RETURNS TO
000145:                                                                                                  #                                                                          LOCATION AD+5
000146:
000147:                                                                                                  #  NOTE THAT IF A VARIABLE PRIORITY IS GIVEN FOR A JOB, THE JOB WILL BE RESTARTED AS A NOVAC IF THE PRIORITY IS
000148:                                                                                                  #  NEGATIVE, AS A FINDVAC IF THE PRIORITY IS POSITIVE.
000149:
000150:
000151:                                                                                                  #  TYPE B PHASCHNG IS A COMBINATION OF VARIABLE AND FIXED PHASE CHANGES. IT WILL START UP A JOB AS INDICATED
000152:                                                                                                  #  BELOW AND ALSO START UP ONE FIXED RESTART, THAT IS EITHER AN G.1 OR  A G.ODD OR THE FIRST ENTRY OF G.EVEN
000153:                                                                                                  #  DOUBLE ENTRY.  THE BIT INFORMATION IS AS FOLLOWS,
000154:
000155:                                                                                                  #                  TL1 DAP PPP PPP GGG
000156:
000157:                                                                                                  #  WHERE EACH LETTER OR NUMBER STANDS FOR A BIT.  THE G:S STAND FOR THE GROUP, OCTAL 1 - 7. THE P:S FOR THE FIXED
000158:                                                                                                  #  PHASE INFORMATION, OCTAL 0 - 127. 1 MUST BE 1.  AND AGAIN T STANDS FOR THE TBASE AND L FOR LONGBASE. D THIS
000159:                                                                                                  #  TIME STANDS ONLY FOR PRIORITY SINCE THIS WILL BE CONSIDERED A JOB, AND IT MUST BE GIVEN DIRECTLY IF GIVEN.
000160:                                                                                                  #  AGAIN A STANDS FOR THE ADDRESS OF THE LOCATION TO BE RESTARTED, 1 IF THE 2CADR IS GIVEN , OR 0 IF IT IS TO BE
000161:                                                                                                  #  THE NEXT LOCATION.(THE RETURN LOCATION OF PHASCHNG) EXAMPLES,
000162:
000163:                                                                                                  #                                          AD       TC     PHASCHNG        TBASE IS SET AND ARESTART CAUSE GROUP 3
000164:                                                                                                  #                                          AD+1     OCT    56043           TO START THE JOB AJOBAJOB WITH PRIORITY
000165:                                                                                                  #                                          AD+2     OCT    31000           31 AND THE FIRST ENTRY OF 3.4SPOT(WE CAN
000166:                                                                                                  #                                          AD+3     2CADR  AJOBAJOB        ASSUME IT IS A TASK SINCE WE SET TBASE3)
000167:                                                                                                  #                                          AD+4                            UPON RETURN FROM PHASCHNG CONTROL WOULD
000168:                                                                                                  #                                          AD+5                            GO TO AD+5
000169:
000170:                                                                                                  #                                          AD       TC     PHASCHNG        UPON A RESTART THE LAST DISPLAY WOULD BE
000171:                                                                                                  #                                          AD+1     OCT    10015           RESTARTED AND A JOB WITH THE PREVIOUSLY
000172:                                                                                                  #                                          AD+2                            STORED PRIORITY WOULD BE BEGUN AT AD+2
000173:                                                                                                  #                                                                          BY MEANS OF GROUP 5
000174:


000176:                                                                                                  #  THE NOVAC-FINDVAC CHOICE FOR JOBS HOLDS HERE ALSO - NEGATIVE PRIORITY CAUSES A NOVAC CALL, POSITIVE A FINDVAC.
000177:
000178:
000179:                                                                                                  #  SUMMARY OF BITS
000180:
000181:                                                                                                  #  TYPE A          TL0 00P PPP PPP GGG
000182:
000183:                                                                                                  #  TYPE B          TL1 DAP PPP PPP GGG
000184:
000185:                                                                                                  #  TYPE C          TL0 1AD XXX CJW GGG
000186:


000188:                                                                                                  #  2PHSCHNG IS USED WHEN ONE WISHES TO START UP A GROUP OR CHANGE A GROUP WHILE UNDER THE CONTROL OF A DIFFERENT
000189:                                                                                                  #  GROUP. FOR EXAMPLE, CHANGE THE PHASE OF GROUP 3 WHILE THE PORTION OF THE PROGRAM IS UNDER GROUP 5. ALL 2PHSCHNG
000190:                                                                                                  #  CALLS ARE MADE IN THE FOLLOWING MANNER,
000191:
000192:                                                                                                  #                                                   TC     2PHSCHNG
000193:                                                                                                  #                                                   OCT    XXXXX
000194:                                                                                                  #                                                   OCT    YYYYY
000195:
000196:                                                                                                  #  WHERE OCT XXXXX MUST BE OF TYPE A AND OCT YYYYY MAY BE OF EITHER TYPE A OR TYPE B OR TYPEC.  THERE IS ONE
000197:                                                                                                  #  DIFFERENCE --- NOTE- IF LONGBASE IS TO BE SET THIS INFORMATION IS GIVEN IN THE OCT YYYYY INFORMATION, IT WILL
000198:                                                                                                  #  BE DISREGARDED IF GIVEN WITH THE OCT XXXXX INFORMATION. A COUPLE OF EXAMPLES MAY HELP,
000199:
000200:                                                                                                  #                                          AD       TC     2PHSCHNG        SET TBASE3 AND IF A RESTART OCCURS START
000201:                                                                                                  #                                          AD+1     OCT    40083           THE TWO ENTRIES IN 3.8 TABLE LOCATION
000202:                                                                                                  #                                          AD+2     OCT    05025           THIS IS OF TYPE C, SET THE JOB TO BE
000203:                                                                                                  #                                          AD+3     OCT    18000           TO BE LOCATION AD+4, WITH A PRIORITY 18,
000204:                                                                                                  #                                          AD+4                            FOR GROUP 5 PHASE INFORMATION
000205:
000206:    5340                                           COUNT*   $$/PHASE
000207:    5340           00004        2PHSCHNG           INHINT                                         #  THE ENTRY FOR A DOUBLE PHASE CHANGE
000208:    5341           50002                           NDX      Q
000209:    5342           30000                           CA       0
000210:    5343           24002                           INCR     Q
000211:    5344           54072                           TS       TEMPP2
000212:
000213:    5345           74757                           MASK     OCT7
000214:    5346           60000                           DOUBLE
000215:    5347           54071                           TS       TEMPG2
000216:
000217:    5350           30072                           CA       TEMPP2
000218:    5351           75030                           MASK     OCT17770                              #  NEED ONLY 1770, BUT WHY GET A NEW CONST.
000219:    5352           00006                           EXTEND
000220:    5353           74740                           MP       BIT12
000221:    5354           56072                           XCH      TEMPP2
000222:
000223:    5355           74735                           MASK     BIT15
000224:    5356           54066                           TS       TEMPSW2                               #  INDICATES WHETHER TO SET TBASE OR NOT
000225:
000226:    5357           50002                           INDEX    Q
000227:    5360           30000                           CA       0
000228:    5361           24002                           INCR     Q
000229:    5362           54065                           TS       TEMPSW
000230:
000231:    5363           15374                           TCF      PHASJUMP
000232:
000233:    5364           00004        PHASCHNG           INHINT                                         #  NORMAL PHASCHNG ENTRY POINT.
000234:    5365           50002                           INDEX    Q
000235:    5366           30000                           CA       0
000236:    5367           24002                           INCR     Q
000237:    5370           00004        PHSCHNGA           INHINT                                         #  FIRST OCTAL PARAMETER IN A.


000239:    5371           54065                           TS       TEMPSW
000240:    5372           34753                           CA       ONE
000241:    5373           54066                           TS       TEMPSW2
000242:    5374           00006        PHASJUMP           EXTEND
000243:    5375           35400                           DCA      ADRPCHN2                              #  OFF TO SWITCHED BANK
000244:    5376           52006                           DTCB
000245:
000246:    5377  E3,1400                                  EBANK=   LST1
000247:    5377           02224 20103  ADRPCHN2           2CADR    PHSCHNG2
000248:
000249:
000250:
000251:    5401           22073        ONEORTWO           LXCH     TEMPBBCN
000252:    5402           22006                           LXCH     BBANK
000253:    5403           22073                           LXCH     TEMPBBCN
000254:
000255:    5404           75024                           MASK     OCT14000                              #  SEE WHAT KIND OF PHASE CHANGE IT IS
000256:    5405           10000                           CCS      A
000257:    5406           17762                           TCF      CHECKB                                #   IT IS OF TYPE :B:
000258:
000259:    5407           30062                           CA       TEMPP
000260:    5410           74745                           MASK     BIT7
000261:    5411           10000                           CCS      A                                     #   SHALL WE USE THE OLD PRIORITY
000262:    5412           15434                           TCF      GETPRIO                               #   NO GET A NEW PRIORITY (OR DELTA T)
000263:
000264:    5413           50061        OLDPRIO            NDX      TEMPG                                 #   USE THE OLD PRIORITY (OR DELTA T)
000265:    5414           31051                           CA       PHSPRDT1   -2
000266:    5415           54070                           TS       TEMPPR
000267:
000268:    5416           30062        CON1               CA       TEMPP                                 #  SEE IF A 2CADR IS GIVEN
000269:    5417           74744                           MASK     BIT8
000270:    5420           10000                           CCS      A
000271:    5421           15440                           TCF      GETNEWNM
000272:
000273:    5422           30002                           CA       Q
000274:    5423           54063                           TS       TEMPNM
000275:    5424           30006                           CA       BB
000276:    5425           00006                           EXTEND                                         #  PICK UP USERS SUPERBANK
000277:    5426           04007                           ROR      SUPERBNK
000278:    5427           54064                           TS       TEMPBB
000279:
000280:    5430           35433        TOCON2             CA       CON2ADR                               #  BACK TO SWITCHED BANK
000281:    5431           22073                           LXCH     TEMPBBCN
000282:    5432           52006                           DTCB
000283:
000284:    5433           02312        CON2ADR            GENADR   CON2
000285:
000286:    5434           50002        GETPRIO            NDX      Q                                     #  DON:T CARE IF DIRECT OR INDIRECT
000287:    5435           30000                           CA       0                                     #  LEAVE THAT DECISION TO RESTARTS
000288:    5436           24002                           INCR     Q                                     #  OBTAIN RETURN ADDRESS


000290:    5437           15415                           TCF      CON1       -1
000291:
000292:    5440           00006        GETNEWNM           EXTEND
000293:    5441           50002                           INDEX    Q
000294:    5442           30001                           DCA      0
000295:    5443           52064                           DXCH     TEMPNM
000296:    5444           34752                           CA       TWO
000297:    5445           26002                           ADS      Q                                     #  OBTAIN RETURN ADDRESS
000298:
000299:    5446           15430                           TCF      TOCON2
000300:
000301:    5447     5024               OCT14000           EQUALS   PRIO14
000302:    5447     0061               TEMPG              EQUALS   ITEMP1
000303:    5447     0062               TEMPP              EQUALS   ITEMP2
000304:    5447     0063               TEMPNM             EQUALS   ITEMP3
000305:    5447     0064               TEMPBB             EQUALS   ITEMP4
000306:    5447     0065               TEMPSW             EQUALS   ITEMP5
000307:    5447     0066               TEMPSW2            EQUALS   ITEMP6
000308:    5447     0070               TEMPPR             EQUALS   RUPTREG1
000309:    5447     0071               TEMPG2             EQUALS   RUPTREG2
000310:    5447     0072               TEMPP2             EQUALS   RUPTREG3
000311:
000312:    5447     0073               TEMPBBCN           EQUALS   RUPTREG4
000313:    5447  0000006               BB                 EQUALS   BBANK
000314:
000315:
000316: 14,3775                                           BANK     14
000317: 10,2000                                           SETLOC   PHASETAB
000318: 10,2000                                           BANK
000319:
000320: 10,2224  E3,1436                                  EBANK=   PHSNAME1
000321: 10,2224                                           COUNT*   $$/PHASE
000322: 10,2224           22073        PHSCHNG2           LXCH     TEMPBBCN
000323: 10,2225           30065                           CA       TEMPSW
000324: 10,2226           74757                           MASK     OCT7
000325: 10,2227           60000                           DOUBLE
000326: 10,2230           54061                           TS       TEMPG
000327:
000328: 10,2231           30065                           CA       TEMPSW
000329: 10,2232           75030                           MASK     OCT17770
000330: 10,2233           00006                           EXTEND
000331: 10,2234           74740                           MP       BIT12
000332: 10,2235           54062                           TS       TEMPP
000333:
000334: 10,2236           30065                           CA       TEMPSW
000335: 10,2237           74101                           MASK     OCT60000
000336: 10,2240           56065                           XCH      TEMPSW
000337: 10,2241           75024                           MASK     OCT14000
000338: 10,2242           10000                           CCS      A


000340: 10,2243           15401                           TCF      ONEORTWO
000341:
000342: 10,2244           30062                           CA       TEMPP                                 #  START STORING THE PHASE INFORMATION
000343: 10,2245           50061                           NDX      TEMPG
000344: 10,2246           54750                           TS       PHASE1     -2
000345:
000346: 10,2247           10066        BELOW1             CCS      TEMPSW2                               #  IS IT A PHASCHNG OR A 2PHSCHNG
000347: 10,2250           12264                           TCF      BELOW2                                #  IT:S A PHASCHNG
000348:
000349: 10,2251           12252                           TCF      +1                                    #  IT:S A 2PHSCHNG
000350: 10,2252           40072                           CS       TEMPP2
000351: 10,2253           22072                           LXCH     TEMPP2
000352: 10,2254           50071                           NDX      TEMPG2
000353: 10,2255           52750                           DXCH     -PHASE1    -2
000354:
000355: 10,2256           10066                           CCS      TEMPSW2
000356: 10,2257           12260                           NOOP                                           #  CAN:T GET HERE
000357: 10,2260           12264                           TCF      BELOW2
000358:
000359: 10,2261           40025                           CS       TIME1
000360: 10,2262           50071                           NDX      TEMPG2
000361: 10,2263           55050                           TS       TBASE1     -2
000362:
000363: 10,2264           10065        BELOW2             CCS      TEMPSW                                #  SEE IF WE SHOULD SET TBASE OR LONGBASE
000364: 10,2265           12300                           TCF      BELOW3                                #  SET LONGBASE ONLY
000365: 10,2266           12303                           TCF      BELOW4                                #  SET NEITHER
000366:
000367: 10,2267           40025                           CS       TIME1                                 #  SET TBASE TO BEGIN WITH
000368: 10,2270           50061                           NDX      TEMPG
000369: 10,2271           55050                           TS       TBASE1     -2
000370:
000371: 10,2272           30065                           CA       TEMPSW                                #   SHALL WE NOW SET LONGBASE
000372: 10,2273           62276                           AD       BIT14COM
000373: 10,2274           10000                           CCS      A
000374: 10,2275           12276                           NOOP                                           #  ***** CANT GET HERE *****
000375: 10,2276           17777        BIT14COM           OCT      17777                                 #  ***** CANT GET HERE *****
000376: 10,2277           12303                           TCF      BELOW4                                #  NO WE NEED ONLY SET TBASE
000377:
000378: 10,2300           00006        BELOW3             EXTEND                                         #  SET LONGBASE
000379: 10,2301           30025                           DCA      TIME2
000380: 10,2302           53151                           DXCH     LONGBASE
000381:
000382: 10,2303           40062        BELOW4             CS       TEMPP                                 #  AND STORE THE FINAL PART OF THE PHASE
000383: 10,2304           50061                           NDX      TEMPG
000384: 10,2305           54747                           TS       -PHASE1    -2
000385:
000386: 10,2306           30002                           CA       Q
000387: 10,2307           22073                           LXCH     TEMPBBCN
000388: 10,2310           00003                           RELINT
000389: 10,2311           52006                           DTCB


000391: 10,2312           22073        CON2               LXCH     TEMPBBCN
000392:
000393: 10,2313           30062                           CA       TEMPP
000394: 10,2314           50061                           NDX      TEMPG
000395: 10,2315           54750                           TS       PHASE1     -2
000396:
000397: 10,2316           30070                           CA       TEMPPR
000398: 10,2317           50061                           NDX      TEMPG
000399: 10,2320           55051                           TS       PHSPRDT1   -2
000400:
000401: 10,2321           00006                           EXTEND
000402: 10,2322           30064                           DCA      TEMPNM
000403: 10,2323           50061                           NDX      TEMPG
000404: 10,2324           53435                           DXCH     PHSNAME1   -2
000405:
000406: 10,2325           12247                           TCF      BELOW1
000407:
000408:    7762                                           BLOCK    03
000409:    6000                                           SETLOC   FFTAG6
000410:    6000                                           BANK
000411:
000412:    7762                                           COUNT*   $$/PHASE
000413:    7762           74740        CHECKB             MASK     BIT12                                 #  SINCE THIS IS OF TYPE B, THIS BIT SHOULD
000414:    7763           10000                           CCS      A                                     #   BE HERE IF WE ARE TO GET A NEW PRIORITY
000415:    7764           15434                           TCF      GETPRIO                               #  IT IS, SO GET NEW PRIORITY
000416:
000417:    7765           15413                           TCF      OLDPRIO                               #  IT ISN:T, USE THE OLD PRIORITY

End of include-file PHASE_TABLE_MAINTENANCE.agc.  Parent file is MAIN.agc


