
Source Code


000002:                                                                                                  ## Copyright:   Public domain.
000003:                                                                                                  ## Filename:    PINBALL_GAME__BUTTONS_AND_LIGHTS.agc
000004:                                                                                                  ## Purpose:     A log section of Zerlina 56, the final revision of
000005:                                                                                                  ##              Don Eyles's offline development program for the variable
000006:                                                                                                  ##              guidance period servicer. It also includes a new P66 with LPD
000007:                                                                                                  ##              (Landing Point Designator) capability, based on an idea of John
000008:                                                                                                  ##              Young's. Neither of these advanced features were actually flown,
000009:                                                                                                  ##              but Zerlina was also the birthplace of other big improvements to
000010:                                                                                                  ##              Luminary including the terrain model and new (Luminary 1E)
000011:                                                                                                  ##              analog display programs. Zerlina was branched off of Luminary 145,
000012:                                                                                                  ##              and revision 56 includes all changes up to and including Luminary
000013:                                                                                                  ##              183. It is therefore quite close to the Apollo 14 program,
000014:                                                                                                  ##              Luminary 178, where not modified with new features.
000015:                                                                                                  ## Reference:   pp. 395-479
000016:                                                                                                  ## Assembler:   yaYUL
000017:                                                                                                  ## Contact:     Ron Burkey <info@sandroid.org>.
000018:                                                                                                  ## Website:     www.ibiblio.org/apollo/index.html
000019:                                                                                                  ## Mod history: 2017-07-28 MAS  Created from Luminary 210.
000020:                                                                                                  ##              2017-08-20 MAS  Updated for Zerlina 56.
000021:


000023:                                                                                                  #  PROGRAM NAME - KEYBOARD AND DISPLAY PROGRAM
000024:                                                                                                  #  MOD NO - 4      DATE - 27 APRIL 1967      ASSEMBLY - PINDANCE REV 18
000025:                                                                                                  #  MOD BY - FILENE
000026:                                                                                                  #  LOG SECTION - PINBALL GAME BUTTONS AND LIGHTS
000027:
000028:                                                                                                  #  FUNCTIONAL DESCRIPTION-
000029:
000030:                                                                                                  #     THE KEYBOARD AND DISPLAY SYSTEM PROGRAM OPERATES UNDER EXECUTIVE
000031:                                                                                                  #  CONTROL AND PROCESSES INFORMATION EXCHANGED BETWEEN THE AGC AND THE
000032:                                                                                                  #  COMPUTER OPERATOR.  THE INPUTS TO THE PROGRAM ARE FROM THE KEYBOARD,
000033:                                                                                                  #  FROM INTERNAL PROGRAMS, AND FROM THE UPLINK.
000034:                                                                                                  #     THE LANGUAGE OF COMMUNICATION WITH THE PROGRAM IS A PAIR OF WORDS
000035:                                                                                                  #  KNOWN AS VERB AND NOUN.  EACH OF THESE IS REPRESENTED BY A 2 CHARACTER
000036:                                                                                                  #  DECIMAL NUMBER.  THE VERB CODE INDICATES WHAT ACTION IS TO BE TAKEN, THE
000037:                                                                                                  #  NOUN CODE INDICATES TO WHAT THIS ACTION IS APPLIED.  NOUNS USUALLY
000038:                                                                                                  #  REFER TO A GROUP OF ERASABLE REGISTERS.
000039:
000040:                                                                                                  #  VERBS ARE GROUPED INTO DISPLAYS, LOADS, MONITORS (DISPLAYS THAT ARE
000041:                                                                                                  #  UPDATED ONCE PER SECOND), SPECIAL FUNCTIONS, AND EXTENDED VERBS(THESE
000042:                                                                                                  #  ARE OUTSIDE OF THE DOMAIN OF PINBALL AND CAN BE FOUND UNDER LOG SECTION
000043:                                                                                                  #  :EXTENDED VERBS:).
000044:                                                                                                  #  A LIST OF VERBS AND NOUNS IS GIVEN IN LOG SECTION :ASSEMBLY AND
000045:                                                                                                  #  OPERATION INFORMATION:.
000046:
000047:
000048:                                                                                                  #  CALLING SEQUENCES-
000049:
000050:                                                                                                  #  KEYBOARD:
000051:                                                                                                  #     EACH DEPRESSION OF A KEYBOARD BUTTON ACTIVATES INTERRUPT KEYRUPT1
000052:                                                                                                  #  AND PLACES THE 5 BIT KEY CODE INTO CHANNEL 15.  KEYRUPT1 PLACES THE KEY
000053:                                                                                                  #  CODE INTO MPAC, ENTERS AN EXECUTIVE REQUEST FOR THE KEYBOARD AND DISPLAY
000054:                                                                                                  #  PROGRAM (AT :CHARIN:), AND EXECUTES A RESUME.
000055:
000056:                                                                                                  #  UPLINK:
000057:                                                                                                  #     EACH WORD RECEIVED BY THE UPLINK ACTIVATES INTERRUPT UPRUPT WHICH
000058:                                                                                                  #  PLACES THE 5 BIT KEY CODE INTO MPAC, ENTERS AN EXECUTIVE REQUEST FOR THE
000059:                                                                                                  #  KEYBOARD AND DISPLAY PROGRAM (AT:CHARIN:) AND EXECUTES A RESUME.
000060:
000061:                                                                                                  #  INTERNAL PROGRAMS:
000062:                                                                                                  #     INTERNAL PROGRAMS CALL PINBALL AT :NVSUB: WITH THE DESIRED VERB/NOUN
000063:                                                                                                  #  CODE IN A (LOW 7 BITS FOR NOUN, NEXT 7 BITS FOR VERB).  DETAILS
000064:                                                                                                  #  DESCRIBED ON REMARKS CARDS JUST BEFORE :NVSUB: AND :NVSBWAIT: (SEE
000065:                                                                                                  #  SYMBOL TABLE FOR PAGE NUMBERS).
000066:
000067:
000068:                                                                                                  #  NORMAL EXIT MODES-
000069:
000070:                                                                                                  #     IF PINBALL WAS CALLED BY EXTERNAL ACTION, THERE ARE FOUR EXITS:
000071:                                                                                                  #           1) ALL BUT (2), (3), AND (4) EXIT DIRECTLY TO ENDOFJOB.
000072:                                                                                                  #           2) EXTENDED VERBS GO TO THE EXTENDED VERB FAN AS PART OF THE


000074:                                                                                                  #              PINBALL EXECUTIVE JOB WITH PRIORITY 30000.  IT IS THE
000075:                                                                                                  #              RESPONSIBILITY OF THE EXTENDED VERB CALLED TO EVENTUALLY
000076:                                                                                                  #              CHANGE PRIORITY (IF NECESSARY) AND DO AN ENDOFJOB.
000077:                                                                                                  #              ALSO PINBALL IS A NOVAC JOB. EBANK SET FOR COMMON.
000078:                                                                                                  #           3) VERB 37. CHANGE OF PROGRAM (MAJOR MODE) CALLS :V37: IN THE
000079:                                                                                                  #              SERVICE ROUTINES AS PART OF THE PINBALL EXEC JOB WITH PRIO
000080:                                                                                                  #              30000.  THE NEW PROGRAM CODE (MAJOR MODE) IS LEFT IN A.
000081:                                                                                                  #           4) KEY RELEASE BUTTON CALLS :PINBRNCH: IN THE DISPLAY INTERFACE
000082:                                                                                                  #              ROUTINES AS PART OF THE PINBALL EXEC JOB WITH PRIO 30000 IF
000083:                                                                                                  #              THE KEY RELEASE LIGHT IS OFF AND :CADRSTOR: IS NOT +0.
000084:
000085:                                                                                                  #     IF PINBALL WAS CALLED BY INTERNAL PROGRAMS, EXIT FROM PINBALL IS BACK
000086:                                                                                                  #  TO CALLING ROUTINE.  DETAILS DESCRIBED IN REMARKS CARDS JUST BEFORE
000087:                                                                                                  #  :NVSUB: AND :NVSBWAIT: (SEE SYMBOL TABLE FOR PAGE NUMBERS).
000088:
000089:
000090:                                                                                                  #  ALARM OR ABORT EXIT MODES-
000091:
000092:                                                                                                  #  EXTERNAL INITIATION:
000093:                                                                                                  #     IF SOME IMPROPER SEQUENCE OF KEY CODES IS DETECTED, THE OPERATOR
000094:                                                                                                  #  ERROR LIGHT IS TURNED ON AND EXIT IS TO :ENDOFJOB:.
000095:
000096:                                                                                                  #  INTERNAL PROGRAM INITIATION:
000097:                                                                                                  #     IF AN ILLEGAL V/N COMBINATION IS ATTEMPTED, AN ABORT IS CAUSED
000098:                                                                                                  #  (WITH OCTAL 01501).
000099:                                                                                                  #     IF A SECOND ATTEMPT IS MADE TO GO TO SLEEP IN PINBALL, AN ABORT IS
000100:                                                                                                  #  CAUSED (WITH OCTAL 01206). THERE ARE TWO WAYS TO GO TO SLEEP IN PINBALL:
000101:                                                                                                  #           1) ENDIDLE OR DATAWAIT.
000102:                                                                                                  #           2) NVSBWAIT, PRENVBSY, OR NVSUBUSY.
000103:
000104:                                                                                                  #  CONDITIONS LEADING TO THE ABOVE ARE DESCRIBED IN FORTHCOMING MIT/IL
000105:                                                                                                  #  E-REPORT DESCRIBING KEYBOARD AND DISPLAY OPERATION FOR 278.
000106:
000107:
000108:                                                                                                  #  OUTPUT-
000109:
000110:                                                                                                  #     INFORMATION TO BE SENT TO THE DISPLAY PANEL IS LEFT IN THE :DSPTAB:
000111:                                                                                                  #  BUFFERS REGISTERS (UNDER EXEC CONTROL).  :DSPOUT: (A PART OF T4RUPT)
000112:                                                                                                  #  HANDLES THE PLACING OF THE :DSPTAB: INFORMATION INTO OUTPUT CHANNEL 10
000113:                                                                                                  #  IN INTERRUPT.
000114:
000115:
000116:                                                                                                  #  ERASABLE INITIALIZATION-
000117:
000118:                                                                                                  #     FRESH START AND RESTART INITIALIZE THE NECESSARY E REGISTERS FOR
000119:                                                                                                  #  PINBALL IN :STARTSUB:.   REGISTERS ARE:  DSPTAB BUFFER, CADRSTOR,
000120:                                                                                                  #  REQRET, CLPASS, DSPLOCK, MONSAVE, MONSAVE1, VERBREG, NOUNREG, DSPLIST,
000121:                                                                                                  #  DSPCOUNT, NOUT.
000122:
000123:                                                                                                  #  A COMPLETE LIST OF ALL THE ERASABLES (BOTH RESERVED AND TEMPORARIES) FOR


000125:                                                                                                  #  PINBALL IS GIVEN BELOW.
000126:
000127:
000128:                                                                                                  #  THE FOLLOWING ARE OF GENERAL INTEREST-
000129:
000130:                                                                                                  #     REMARKS CARDS PRECEDE THE REFERENCED SYMBOL DEFINITION.  SEE SYMBOL
000131:                                                                                                  #  TABLE TO FIND APPROPRIATE PAGE NUMBERS.
000132:
000133:                                                                                                  #     NVSUB   CALLING POINT FOR INTERNAL USE OF PINBALL.
000134:                                                                                                  #               OF RELATED INTEREST   NVSBWAIT
000135:                                                                                                  #                                     NVSUBUSY
000136:                                                                                                  #                                     PRENVBSY
000137:
000138:                                                                                                  #     ENDIDLE   ROUTINE FOR INTERNAL PROGRAMS WISHING TO GO TO SLEEP WHILE
000139:                                                                                                  #               AWAITING OPERATORS RESPONSE.
000140:
000141:                                                                                                  #     DSPMM   ROUTINE BY WHICH AN INTERNAL PROGRAM MAY DISPLAY A DECIMAL
000142:                                                                                                  #             PROGRAM CODE (MAJOR MODE) IN THE PROGRAM (MAJOR MODE) LIGHTS.
000143:                                                                                                  #             (DSPMM DOES NOT DISPLAY DIRECTLY BUT ENTERS EXEC REQUEST
000144:                                                                                                  #             FOR DSPMMJB WITH PRIO 30000 AND RETURNS TO CALLER.)
000145:
000146:                                                                                                  #     BLANKSUB   ROUTINE BY WHICH AN INTERNAL PROGRAM MAY BLANK ANY
000147:                                                                                                  #                COMBINATION OF THE DISPLAY REGISTERS R1, R2, R3.
000148:
000149:                                                                                                  #     JAMTERM   ROUTINES BY WHICH AN INTERNAL PROGRAM MAY PERFORM THE
000150:                                                                                                  #     JAMPROC   TERMINATE (V 34) OR PROCEED (V 33) FUNCTION.
000151:
000152:                                                                                                  #     MONITOR   VERBS FOR PERIODIC ( 1 PER SEC) DISPLAY.
000153:
000154:                                                                                                  #     PLEASE PERFORM, PLEASE MARK SITUATIONS
000155:                                                                                                  #                  REMARKS DESCRIBING HOW AN INTERNAL ROUTINE SHOULD HANDLE
000156:                                                                                                  #                  THESE SITUATIONS CAN BE FOUND JUST BEFORE :NVSUB: (SEE
000157:                                                                                                  #                  SYMBOL TABLE FOR PAGE NUMBER).
000158:
000159:                                                                                                  #     THE NOUN TABLE FORMAT IS DESCRIBED ON A PAGE OF REMARKS CARDS JUST
000160:                                                                                                  #     BEFORE :DSPABC: (SEE SYMBOL TABLE FOR PAGE NUMBER).
000161:
000162:                                                                                                  #     THE NOUN TABLES THEMSELVES ARE FOUND IN LOG SECTION :PINBALL NOUN
000163:                                                                                                  #     TABLES:.
000164:
000165:
000166:                                                                                                  #  FOR FURTHER DETAILS ABOUT OPERATION OF THE KEYBOARD AND DISPLAY SYSTEM
000167:                                                                                                  #  PROGRAM, SEE THE MISSION PLAN AND/OR MIT/IL E-2129
000168:                                                                                                  #  DESCRIBING KEYBOARD AND DISPLAY OPERATION FOR 278.


000171:
000172:
000173:                                                                                                  #  THE FOLLOWING QUOTATION IS PROVIDED THROUGH THE COURTESY OF THE AUTHORS.
000174:
000175:                                                                                                  #        ::IT WILL BE PROVED TO THY FACE THAT THOU HAST MEN ABOUT THEE THAT
000176:                                                                                                  #  USUALLY TALK OF A NOUN AND A VERB, AND SUCH ABOMINABLE WORDS AS NO


000178:                                                                                                  #  CHRISTIAN EAR CAN ENDURE TO HEAR.::
000179:
000180:                                                                                                  #                       HENRY 6, ACT 2, SCENE 4
000181:
000182:
000183:                                                                                                  #  THE FOLLOWING ASSIGNMENTS FOR PINBALL ARE MADE ELSEWHERE
000184:
000185:
000186:                                                                                                  #  RESERVED FOR PINBALL EXECUTIVE ACTION
000187:
000188:                                                                                                  #  DSPCOUNT ERASE                  DISPLAY POSITION INDICATOR
000189:                                                                                                  #  DECBRNCH ERASE                  +DEC, - DEC, OCT INDICATOR
000190:                                                                                                  #  VERBREG  ERASE                  VERB CODE
000191:                                                                                                  #  NOUNREG  ERASE                  NOUN CODE
000192:                                                                                                  #  XREG     ERASE                  R1 INPUT BUFFER
000193:                                                                                                  #  YREG     ERASE                  R2 INPUT BUFFER
000194:                                                                                                  #  ZREG     ERASE                  R3 INPUT BUFFER
000195:                                                                                                  #  XREGLP   ERASE                  LO PART OF XREG (FOR DEC CONV ONLY)
000196:                                                                                                  #  YREGLP   ERASE                  LO PART OF YREG (FOR DEC CONV ONLY)
000197:                                                                                                  #  HITEMOUT =      YREGLP          TEMP FOR DISPLAY OF HRS, MIN, SEC
000198:                                                                                                  #                                           MUST = LOTEMOUT-1.
000199:                                                                                                  #  ZREGLP   ERASE                  LO PART OF ZREG (FOR DEC CONV ONLY)
000200:                                                                                                  #  LOTEMOUT =      ZREGLP          TEMP FOR DISPLAY OF HRS, MIN, SEC
000201:                                                                                                  #                                           MUST = HITEMOUT+1.
000202:                                                                                                  #  MODREG   ERASE                  MODE CODE
000203:                                                                                                  #  DSPLOCK  ERASE                  KEYBOARD/SUBROUTINE CALL INTERLOCK
000204:                                                                                                  #  REQRET   ERASE                  RETURN REGISTER FOR LOAD
000205:                                                                                                  #  LOADSTAT ERASE                  STATUS INDICATOR FOR LOADTST
000206:                                                                                                  #  CLPASS   ERASE                  PASS INDICATOR CLEAR
000207:                                                                                                  #  NOUT     ERASE                  ACTIVITY COUNTER FOR DSPTAB
000208:                                                                                                  #  NOUNCADR ERASE                  MACHINE CADR FOR NOUN
000209:                                                                                                  #  MONSAVE  ERASE                  N/V CODE FOR MONITOR. (= MONSAVE1-1)
000210:                                                                                                  #  MONSAVE1 ERASE                  NOUNCADR FOR MONITOR(MATBS) =MONSAVE +1
000211:                                                                                                  #  MONSAVE2 ERASE                  NVMONOPT OPTIONS
000212:                                                                                                  #  DSPTAB   ERASE          +13D    0-10,DISPLAY PANEL BUFFER.11-13,C RELAYS
000213:                                                                                                  #  CADRSTOR ERASE                  ENDIDLE STORAGE
000214:                                                                                                  #  NVQTEM   ERASE                  NVSUB STORAGE FOR CALLING ADDRESS
000215:                                                                                                  #                                  MUST = NVBNKTEM-1
000216:                                                                                                  #  NVBNKTEM ERASE                  NVSUB STORAGE FOR CALLING BANK
000217:                                                                                                  #                                  MUST = NVQTEM+1
000218:                                                                                                  #  VERBSAVE ERASE                  NEEDED FOR RECYCLE
000219:                                                                                                  #  DSPLIST  ERASE                  WAITING REG FOR DSP SYST INTERNAL USE
000220:                                                                                                  #  EXTVBACT REASE                  EXTENDED VERB ACTIVITY INTERLOCK
000221:                                                                                                  #  DSPTEM1  ERASE          +2      BUFFER STORAGE AREA 1 (MOSTLY FOR TIME)
000222:                                                                                                  #  DSPTEM2  ERASE          +2      BUFFER STORAGE AREA 2 (MOSTLY FOR DEG)
000223:                                                                                                  #  END OF ERASABLES RESERVED FOR PINBALL EXECUTIVE ACTION
000224:
000225:
000226:                                                                                                  #  TEMPORARIES FOR PINBALL EXECUTIVE ACTION


000228:                                                                                                  #  DSEXIT   =      INTB15+         RETURN FOR DSPIN
000229:                                                                                                  #  EXITEM   =      INTB15+         RETURN FOR SCALE FACTOR ROUTINE SELECT
000230:                                                                                                  #  BLANKRET =      INTB15+         RETURN FOR 2BLANK
000231:
000232:                                                                                                  #  WRDRET   =      INTBIT15        RETURN FOR 5BLANK
000233:                                                                                                  #  WDRET    =      INTBIT15        RETURN FOR DSPWD
000234:                                                                                                  #  DECRET   =      INTBIT15        RETURN FOR PUTCOM(DEC LOAD)
000235:                                                                                                  #  21/22REG =      INTBIT15        TEMP FOR CHARIN
000236:
000237:                                                                                                  #  UPDATRET =      POLISH          RETURN FOR UPDATNN, UPDATVB
000238:                                                                                                  #  CHAR     =      POLISH          TEMP FOR CHARIN
000239:                                                                                                  #  ERCNT    =      POLISH          COUNTER FOR ERROR LIGHT RESET
000240:                                                                                                  #  DECOUNT  =      POLISH          COUNTER FOR SCALING AND DISPLAY (DEC)
000241:
000242:                                                                                                  #  SGNON    =      VBUF            TEMP FOR +,- ON
000243:                                                                                                  #  NOUNTEM  =      VBUF            COUNTER FOR MIXNOUN FETCH
000244:                                                                                                  #  DISTEM   =      VBUF            COUNTER FOR OCTAL DISPLAY VERBS
000245:                                                                                                  #  DECTEM   =      VBUF            COUNTER FOR FETCH (DEC DISPLAY VERBS)
000246:
000247:                                                                                                  #  SGNOFF   =      VBUF    +1      TEMP FOR +,- ON
000248:                                                                                                  #  NVTEMP   =      VBUF    +1      TEMP FOR NVSUB
000249:                                                                                                  #  SFTEMP1  =      VBUF    +1      STORAGE FOR SF CONST HI PART(=SFTEMP2-1)
000250:                                                                                                  #  HITEMIN  =      VBUF    +1      TEMP FOR LOAD OF HRS, MIN, SEC
000251:                                                                                                  #                                           MUST = LOTEMIN-1.
000252:                                                                                                  #  CODE     =      VBUF    +2      FOR DSPIN
000253:                                                                                                  #  SFTEMP2  =      VBUF    +2      STORAGE FOR SF CONST LO PART(=SFTEMP1+1)
000254:                                                                                                  #  LOTEMIN  =      VBUF    +2      TEMP FOR LOAD OF HRS, MIN, SEC
000255:                                                                                                  #                                           MUST = HITEMIN+1.
000256:                                                                                                  #  MIXTEMP  =      VBUF    +3      FOR MIXNOUN DATA
000257:                                                                                                  #  SIGNRET  =      VBUF    +3      RETURN FOR +,- ON
000258:
000259:                                                                                                  #  ALSO MIXTEMP+1 = VBUF+4, MIXTEMP+2 = VBUF+5.
000260:
000261:                                                                                                  #  ENTRET   =      DOTINC          EXIT FROM ENTER
000262:
000263:                                                                                                  #  WDCNT    =      DOTRET          CHAR COUNTER FOR DSPWD
000264:                                                                                                  #  INREL    =      DOTRET          INPUT BUFFER SELECTOR ( X,Y,Z, REG )
000265:
000266:                                                                                                  #  DSPMMTEM =      MATINC          DSPCOUNT SAVE FOR DSPMM
000267:                                                                                                  #  MIXBR    =      MATINC          INDICATOR FOR MIXED OR NORMAL NOUN
000268:
000269:                                                                                                  #  TEM1     ERASE                  EXEC TEMP
000270:                                                                                                  #  DSREL    =      TEM1            REL ADDRESS FOR DSPIN
000271:
000272:                                                                                                  #  TEM2     ERASE                  EXEC TEMP
000273:                                                                                                  #  DSMAG    =      TEM2            MAGNITUDE STORE FOR DSPIN
000274:                                                                                                  #  IDADDTEM =      TEM2            MIXNOUN INDIRECT ADDRESS STORAGE
000275:
000276:                                                                                                  #  TEM3     ERASE                  EXEC TEMP
000277:                                                                                                  #  COUNT    =      TEM3            FOR DSPIN
000278:


000280:                                                                                                  #  TEM4     ERASE                  EXEC TEMP
000281:                                                                                                  #  LSTPTR   =      TEM4            LIST POINTER FOR GRABUSY
000282:                                                                                                  #  RELRET   =      TEM4            RETURN FOR RELDSP
000283:                                                                                                  #  FREERET  =      TEM4            RETURN FOR FREEDSP
000284:                                                                                                  #  DSPWDRET =      TEM4            RETURN FOR DSPSIGN
000285:                                                                                                  #  SEPSCRET =      TEM4            RETURN FOR SEPSEC
000286:                                                                                                  #  SEPMNRET =      TEM4            RETURN FOR SEPMIN
000287:
000288:                                                                                                  #  TEM5     ERASE                  EXEC TEMP
000289:                                                                                                  #  NOUNADD  =      TEM5            TEMP STORAGE FOR NOUN ADDRESS
000290:
000291:                                                                                                  #  NNADTEM  ERASE                  TEMP FOR NOUN ADDRESS TABLE ENTRY
000292:                                                                                                  #  NNTYPTEM ERASE                  TEMP FOR NOUN TYPE TABLE ENTRY
000293:                                                                                                  #  IDAD1TEM ERASE                  TEMP FOR INDIR ADRESS TABLE ENTRY(MIXNN)
000294:                                                                                                  #                                  MUST = IDAD2TEM-1, = IDAD3TEM-2.
000295:                                                                                                  #  IDAD2TEM ERASE                  TEMP FOR INDIR ADRESS TABLE ENTRY(MIXNN)
000296:                                                                                                  #                                  MUST = IDAD1TEM+1, = IDAD3TEM-1.
000297:                                                                                                  #  IDAD3TEM ERASE                  TEMP FOR INDIR ADRESS TABLE ENTRY(MIXNN)
000298:                                                                                                  #                                  MUST = IDAD1TEM+2, = IDAD2TEM+1.
000299:                                                                                                  #  RUTMXTEM ERASE                  TEMP FOR SF ROUT TABLE ENTRY(MIXNN ONLY)
000300:                                                                                                  #  END OF TEMPORARIES FOR PINBALL EXECUTIVE ACTION
000301:
000302:
000303:                                                                                                  #  ADDITIONAL TEMPORARIES FOR PINBALL EXECUTIVE ACTION
000304:
000305:                                                                                                  #  MPAC, THRU MPAC +6
000306:                                                                                                  #  BUF, +1, +2
000307:                                                                                                  #  BUF2, +1, +2
000308:                                                                                                  #  MPTEMP
000309:                                                                                                  #  ADDRWD
000310:                                                                                                  #    END OF ADDITIONAL TEMPS FOR PINBALL EXEC ACTION
000311:
000312:
000313:                                                                                                  #  RESERVED FOR PINBALL INTERRUPT ACTION
000314:
000315:                                                                                                  #  DSPCNT   ERASE                  COUNTER FOR DSPOUT
000316:                                                                                                  #  UPLOCK   ERASE                  BIT1 = UPLINK INTERLOCK (ACTIVATED BY
000317:                                                                                                  #                                                                          RECEPTION OF A BAD MESSAGE IN UPLINK)
000318:                                                                                                  #  END OF ERASABLES RESERVED FOR PINBALL INTERRUPT ACTION
000319:
000320:
000321:                                                                                                  #  TEMPORARIES FOR PINBALL INTERRUPT ACTION
000322:
000323:                                                                                                  #  KEYTEMP1 =      WAITEXIT        TEMP FOR KEYRUPT, UPRUPT
000324:                                                                                                  #  DSRUPTEM =      WAITEXIT        TEMP FOR DSPOUT
000325:                                                                                                  #  KEYTEMP2 =      RUPTAGN         TEMP FOR KEYRUPT, UPRUPT
000326:                                                                                                  #  END OF TEMPORARIES FOR PINBALL INTERRUPT ACTION
000327:


000329:                                                                                                  #  THE INPUT CODES ASSUMED FOR THE KEYBOARD ARE,
000330:                                                                                                  #  0        10000
000331:                                                                                                  #  1        00001
000332:                                                                                                  #  9        01001
000333:                                                                                                  #  VERB     10001
000334:                                                                                                  #  ERROR RES10010
000335:                                                                                                  #  KEY RLSE 11001
000336:                                                                                                  #  +        11010
000337:                                                                                                  #  -        11011
000338:                                                                                                  #  ENTER    11100
000339:                                                                                                  #  CLEAR    11110
000340:                                                                                                  #  NOUN     11111


000342:
000343:
000344:                                                                                                  #  OUTPUT FORMAT FOR DISPLAY PANEL. SET OUT0 TO  AAAABCCCCCDDDDD.
000345:                                                                                                  #  A-S SELECT A RELAYWORD. THIS DETERMINES WHICH PAIR OF CHARACTERS ARE
000346:                                                                                                  #  ENERGIZED.
000347:                                                                                                  #  B FOR SPECIAL RELAYS SUCH AS SIGNS ETC.
000348:                                                                                                  #  C-S  5 BIT RELAY CODE FOR LEFT CHAR OF PAIR SELECTED BY RELAYWORD
000349:                                                                                                  #  D-S  5 BIT RELAY CODE FOR RIGHTCHAR OF PAIR SELECTED BY RELAYWORD.
000350:
000351:                                                                                                  #  THE PANEL APPEARS AS FOLLOWS,
000352:                                                                                                  #  MD1    MD2                         (MAJOR MODE)
000353:                                                                                                  #  VD1    VD2 (VERB)    ND1    ND2    (NOUN)
000354:                                                                                                  #  R1D1   R1D2   R1D3   R1D4   R1D5   (R1)
000355:                                                                                                  #  R2D1   R2D2   R2D3   R2D4   R2D5   (R2)
000356:                                                                                                  #  R3D1   R3D2   R3D3   R3D4   R3D5   (R3)
000357:
000358:                                                                                                  #  EACH OF THESE IS GIVEN A DSPCOUNT NUMBER FOR USE WITHIN COMPUTATION ONLY
000359:                                                                                                  #  MD1   25     R2D1    11       ALL ARE OCTAL
000360:                                                                                                  #  MD2   24     R2D2    10
000361:                                                                                                  #  VD1   23     R2D3    7
000362:                                                                                                  #  VD2   22     R2D4    6
000363:                                                                                                  #  ND1   21     R2D5    5
000364:                                                                                                  #  ND2   20     R3D1    4
000365:                                                                                                  #  R1D1  16     R3D2    3
000366:                                                                                                  #  R1D2  15     R3D3    2
000367:                                                                                                  #  R1D3  14     R3D4    1
000368:                                                                                                  #  R1D4  13     R3D5    0
000369:                                                                                                  #  R1D5  12
000370:
000371:
000372:                                                                                                  #  THERE IS AN 11 REGISTER TABLE (DSPTAB) FOR THE DISPLAY PANEL.
000373:
000374:                                                                                                  #  DSPTAB RELAYWD       BIT11     BITS 10-6     BITS 5-1
000375:                                                                                                  #  RELADD
000376:                                                                                                  #  10     1011                    MD1  (25)     MD2  (24)
000377:                                                                                                  #  9      1010                    VD1  (23)     VD2  (22)
000378:                                                                                                  #  8      1001                    ND1  (21)     ND2  (20)
000379:                                                                                                  #  7      1000                                  R1D1 (16)


000381:                                                                                                  #  6      0111          +R1       R1D2 (15)     R1D3 (14)
000382:                                                                                                  #  5      0110          -R1       R1D4 (13)     R1D5 (12)
000383:                                                                                                  #  4      0101          +R2       R2D1 (11)     R2D2 (10)
000384:                                                                                                  #  3      0100          -R2       R2D3 (7)      R2D4 (6)
000385:                                                                                                  #  2      0011                    R2D5 (5)      R3D1 (4)
000386:                                                                                                  #  1      0010          +R3       R3D2 (3)      R3D3 (2)
000387:                                                                                                  #  0      0001          -R3       R3D4 (1)      R3D5 (0)
000388:                                                                                                  #         0000   NO RELAYWORD
000389:
000390:
000391:                                                                                                  #  THE 5 BIT OUTPUT RELAY CODES ARE:
000392:                                                                                                  #  BLANK      00000
000393:                                                                                                  #  0          10101
000394:                                                                                                  #  1          00011
000395:                                                                                                  #  2          11001
000396:                                                                                                  #  3          11011
000397:                                                                                                  #  4          01111
000398:                                                                                                  #  5          11110
000399:                                                                                                  #  6          11100
000400:                                                                                                  #  7          10011
000401:                                                                                                  #  8          11101
000402:                                                                                                  #  9          11111
000403:
000404:
000405:                                                                                                  #  OUTPUT BITS USED BY PINBALL:
000406:
000407:                                                                                                  #             KEY RELEASE LIGHT    - BIT 5 OF CHANNEL 11
000408:                                                                                                  #             VERB/NOUN FLASH      - BIT 6 OF CHANNEL 11
000409:                                                                                                  #             OPERATOR ERROR LIGHT - BIT 7 OF CHANNEL 11
000410:


000412:                                                                                                  #  START OF EXECUTIVE SECTION OF PINBALL
000413: 40,2057                                           BANK     40
000414: 40,2000                                           SETLOC   PINBALL1
000415: 40,2000                                           BANK
000416:
000417: 40,2057                                           COUNT*   $$/PIN
000418: 40,2057           34753        CHARIN             CAF      ONE                                   #  BLOCK DISPLAY SYST
000419: 40,2060           57011                           XCH      DSPLOCK                               #  MAKE DSP SYST BUSY, BUT SAVE OLD
000420: 40,2061           54115                           TS       21/22REG                              #  C(DSPLOCK) FOR ERROR LIGHT RESET.
000421: 40,2062           11041                           CCS      CADRSTOR                              #  ALL KEYS EXCEPT ER TURN ON KR LITE IF
000422: 40,2063           02065                           TC       +2                                    #  CADRSTOR IS FULL.  THIS REMINDS OPERATOR
000423: 40,2064           02072                           TC       CHARIN2                               #  TO RE-ESTABLISH A FLASHING DISPLAY
000424: 40,2065           42136                           CS       ELRCODE1                              #  WHICH HE HAS OBSCURED WITH DISPLAYS OF
000425: 40,2066           60154                           AD       MPAC                                  #  HIS OWN (SEE REMARKS PRECEDING ROUTINE
000426: 40,2067           00006                           EXTEND                                         #  VBRELDSP).
000427: 40,2070           12072                           BZF      CHARIN2
000428: 40,2071           04374                           TC       RELDSPON
000429: 40,2072           56154        CHARIN2            XCH      MPAC
000430: 40,2073           54117                           TS       CHAR
000431: 40,2074           50000                           INDEX    A
000432: 40,2075           02076                           TC       +1                                    #  INPUT CODE     FUNCTION
000433: 40,2076           03465                           TC       CHARALRM                              #  0
000434: 40,2077           02155                           TC       NUM                                   #  1
000435: 40,2100           02155                           TC       NUM                                   #  2
000436: 40,2101           02155                           TC       NUM                                   #  3
000437: 40,2102           02155                           TC       NUM                                   #  4
000438: 40,2103           02155                           TC       NUM                                   #  5
000439: 40,2104           02155                           TC       NUM                                   #  6
000440: 40,2105           02155                           TC       NUM                                   #  7
000441: 40,2106           02141                           TC       89TEST                                #  10                 8
000442: 40,2107           02141                           TC       89TEST                                #  11                 9
000443: 40,2110           03465                           TC       CHARALRM                              #  12
000444: 40,2111           03465                           TC       CHARALRM                              #  13
000445: 40,2112           03465                           TC       CHARALRM                              #  14
000446: 40,2113           03465                           TC       CHARALRM                              #  15
000447: 40,2114           03465                           TC       CHARALRM                              #  16
000448: 40,2115           03465                           TC       CHARALRM                              #  17
000449: 40,2116           02153                           TC       NUM        -2                         #  20                 0
000450: 40,2117           02343                           TC       VERB                                  #  21                 VERB
000451: 40,2120           03643                           TC       ERROR                                 #  22                 ERROR LIGHT RESET
000452: 40,2121           03465                           TC       CHARALRM                              #  23
000453: 40,2122           03465                           TC       CHARALRM                              #  24
000454: 40,2123           03465                           TC       CHARALRM                              #  25
000455: 40,2124           03465                           TC       CHARALRM                              #  26
000456: 40,2125           03465                           TC       CHARALRM                              #  27
000457: 40,2126           03465                           TC       CHARALRM                              #  30
000458: 40,2127           03521                           TC       VBRELDSP                              #  31                 KEY RELEASE
000459: 40,2130           02376                           TC       POSGN                                 #  32                 +


000461: 40,2131           02363                           TC       NEGSGN                                #  33                 -
000462: 40,2132           02137                           TC       ENTERJMP                              #  34                 ENTER
000463: 40,2133           03465                           TC       CHARALRM                              #  35
000464: 40,2134           02456                           TC       CLEAR                                 #  36                 CLEAR
000465: 40,2135           02357                           TC       NOUN                                  #  37                 NOUN
000466:
000467:
000468: 40,2136           00022        ELRCODE1           OCT      22
000469: 40,2137           04635        ENTERJMP           TC       POSTJUMP
000470: 40,2140           62022                           CADR     ENTER
000471:
000472: 40,2141           10776        89TEST             CCS      DSPCOUNT
000473: 40,2142           02146                           TC       +4                                    #  +
000474: 40,2143           02146                           TC       +3                                    #  +0
000475: 40,2144           05155                           TC       ENDOFJOB                              #  - BLOCK DATA IN IF DSPCOUNT IS - OR -0
000476: 40,2145           05155                           TC       ENDOFJOB                              #  -0
000477: 40,2146           36257                           CAF      THREE
000478: 40,2147           70777                           MASK     DECBRNCH
000479: 40,2150           10000                           CCS      A
000480: 40,2151           02155                           TC       NUM                                   #  IF DECBRNCH IS +, 8 OR 9 OK
000481: 40,2152           03465                           TC       CHARALRM                              #  IF DECBRNCH IS +0, REJECT 8 OR 9
000482:
000483:
000484:                                                                                                  #  NUM ASSEMBLES OCTAL 3 BITS AT A TIME. FOR DECIMAL IT CONVERTS INCOMING
000485:                                                                                                  #  WORD AS A FRACTION, KEEPING RESULTS TO DP.
000486:                                                                                                  #  OCTAL RESULTS ARE LEFT IN XREG, YREG, OR ZREG. HI PART OF DEC IN XREG,
000487:                                                                                                  #  YREG, ZREG. THE LOW PARTS IN XREGLP, YREGLP, OR ZREGLP)
000488:                                                                                                  #  DECBRNCH IS LEFT AT +0 FOR OCT, +1 FOR + DEC, +2 FOR - DEC.
000489:                                                                                                  #  IF DSPCOUNT WAS LEFT -, NO MORE DATA IS ACCEPTED.
000490:
000491: 40,2153           34755                           CAF      ZERO
000492: 40,2154           54117                           TS       CHAR
000493: 40,2155           10776        NUM                CCS      DSPCOUNT
000494: 40,2156           02162                           TC       +4                                    #  +
000495: 40,2157           02162                           TC       +3                                    #  +0
000496: 40,2160           02161                           TC       +1                                    #  -BLOCK DATA IN IF DSPCOUNT IS -
000497: 40,2161           05155                           TC       ENDOFJOB                              #  -0
000498: 40,2162           02313                           TC       GETINREL
000499: 40,2163           11014                           CCS      CLPASS                                #  IF CLPASS IS + OR +0, MAKE IT +0.
000500: 40,2164           34755                           CAF      ZERO
000501: 40,2165           55014                           TS       CLPASS
000502: 40,2166           02167                           TC       +1
000503: 40,2167           50117                           INDEX    CHAR
000504: 40,2170           34066                           CAF      RELTAB
000505: 40,2171           74346                           MASK     LOW5
000506: 40,2172           54124                           TS       CODE
000507: 40,2173           30776                           CA       DSPCOUNT
000508: 40,2174           54143                           TS       COUNT
000509: 40,2175           03353                           TC       DSPIN
000510: 40,2176           36257                           CAF      THREE


000512: 40,2177           70777                           MASK     DECBRNCH
000513: 40,2200           10000                           CCS      A                                     #  +0, OCTAL.  +1, + DEC.  +2, - DEC.
000514: 40,2201           02212                           TC       DECTOBIN                              #  +
000515: 40,2202           50137                           INDEX    INREL                                 #  +0 OCTAL
000516: 40,2203           57000                           XCH      VERBREG
000517: 40,2204           54022                           TS       CYL
000518: 40,2205           40022                           CS       CYL
000519: 40,2206           40022                           CS       CYL
000520: 40,2207           56022                           XCH      CYL
000521: 40,2210           60117                           AD       CHAR
000522: 40,2211           02227                           TC       ENDNMTST
000523: 40,2212           50137        DECTOBIN           INDEX    INREL
000524: 40,2213           57000                           XCH      VERBREG
000525: 40,2214           54154                           TS       MPAC                                  #  SUM X 2EXP-14 IN MPAC
000526: 40,2215           34755                           CAF      ZERO
000527: 40,2216           54155                           TS       MPAC       +1
000528: 40,2217           34363                           CAF      TEN                                   #  10 X 2EXP-14
000529: 40,2220           07321                           TC       SHORTMP                               #  10SUM X 2EXP-28 IN MPAC, MPAC+1
000530: 40,2221           56155                           XCH      MPAC       +1
000531: 40,2222           60117                           AD       CHAR
000532: 40,2223           54155                           TS       MPAC       +1
000533: 40,2224           02227                           TC       ENDNMTST                              #  NO OF
000534: 40,2225           26154                           ADS      MPAC                                  #  OF MUST BE 5TH CHAR
000535: 40,2226           02245                           TC       DECCEND
000536: 40,2227           50137        ENDNMTST           INDEX    INREL
000537: 40,2230           55000                           TS       VERBREG
000538: 40,2231           40776                           CS       DSPCOUNT
000539: 40,2232           50137                           INDEX    INREL
000540: 40,2233           62304                           AD       CRITCON
000541: 40,2234           00006                           EXTEND
000542: 40,2235           12237                           BZF      ENDNUM                                #  -0, DSPCOUNT = CRITCON
000543: 40,2236           02301                           TC       MORNUM                                #  - , DSPCOUNT G/ CRITCON
000544: 40,2237           36257        ENDNUM             CAF      THREE
000545: 40,2240           70777                           MASK     DECBRNCH
000546: 40,2241           10000                           CCS      A
000547: 40,2242           02245                           TC       DECCEND
000548: 40,2243           40776        ENDALL             CS       DSPCOUNT                              #  BLOCK NUMIN BY PLACING DSPCOUNT
000549: 40,2244           02302                           TC       MORNUM     +1                         #  NEGATIVELY
000550: 40,2245           04616        DECCEND            TC       BANKCALL
000551: 40,2246           60250                           CADR     DECEND
000552: 40,2247           02243                           TC       ENDALL
000553: 40,2250           44753        DECEND             CS       ONE
000554: 40,2251           60137                           AD       INREL
000555: 40,2252           00006                           EXTEND
000556: 40,2253           62243                           BZMF     ENDALL                                #  IF INREL=0,1(VBREG,NNREG), LEAVE WHOLE
000557: 40,2254           02313                           TC       GETINREL
000558: 40,2255           50137                           INDEX    INREL
000559: 40,2256           31000                           CA       VERBREG
000560: 40,2257           54155                           TS       MPAC       +1
000561: 40,2260           07115                           TC       DMP                                   #  IF INREL=2,3,4(R1,R2,R3),CONVERT TO FRAC


000563:                                                                                                  #  MULT SUM X 2EXP-28 IN MPAC, MPAC+1 BY
000564: 40,2261           02311                           ADRES    DECON                                 #  2EXP14/10EXP5. GIVES(SUM/10EXP5)X2EXP-14
000565: 40,2262           36257                           CAF      THREE                                 #  IN MPAC, +1, +2.
000566: 40,2263           70777                           MASK     DECBRNCH
000567: 40,2264           50000                           INDEX    A
000568: 40,2265           02265                           TC       +0
000569: 40,2266           02272                           TC       +DECSGN
000570: 40,2267           00006                           EXTEND                                         #  - CASE
000571: 40,2270           40156                           DCS      MPAC       +1
000572: 40,2271           52156                           DXCH     MPAC       +1
000573: 40,2272           56156        +DECSGN            XCH      MPAC       +2
000574: 40,2273           50137                           INDEX    INREL
000575: 40,2274           55003                           TS       XREGLP     -2
000576: 40,2275           56155                           XCH      MPAC       +1
000577: 40,2276           50137                           INDEX    INREL
000578: 40,2277           55000                           TS       VERBREG
000579: 40,2300           04631                           TC       SWRETURN
000580: 40,2301           10776        MORNUM             CCS      DSPCOUNT                              #  DECREMENT DSPCOUNT
000581: 40,2302           54776                           TS       DSPCOUNT
000582: 40,2303           05155                           TC       ENDOFJOB
000583:
000584: 40,2304           00022        CRITCON            OCT      22                                    #  (DEC 18)
000585: 40,2305           00020                           OCT      20                                    #  (DEC 16)
000586: 40,2306           00012                           OCT      12                                    #  (DEC 10)
000587: 40,2307           00005                           OCT      5
000588: 40,2310           00000                           OCT      0
000589:
000590: 40,2311           05174 13261  DECON              2DEC     E-5        B14                        #  2EXP14/10EXP5 = .16384 DEC
000591:
000592:
000593:
000594:                                                                                                  #  GETINREL GETS PROPER DATA REG REL ADDRESS FOR CURRENT C(DSPCOUNT) AND
000595:                                                                                                  #  PUTS IN INTO INREL. +0 VERBREG, 1 NOUNREG, 2 XREG, 3 YREG, 4 ZREG.
000596:
000597: 40,2313           50776        GETINREL           INDEX    DSPCOUNT
000598: 40,2314           32317                           CAF      INRELTAB
000599: 40,2315           54137                           TS       INREL                                 #  (A TEMP, REG)
000600: 40,2316           00002                           TC       Q
000601:
000602: 40,2317           00004        INRELTAB           OCT      4                                     #  R3D5 (DSPCOUNT = 0)
000603: 40,2320           00004                           OCT      4                                     #  R3D4           =(1)
000604: 40,2321           00004                           OCT      4                                     #  R3D3           =(2)
000605: 40,2322           00004                           OCT      4                                     #  R3D2           =(3)
000606: 40,2323           00004                           OCT      4                                     #  R3D1           =(4)
000607: 40,2324           00003                           OCT      3                                     #  R2D5           =(5)
000608: 40,2325           00003                           OCT      3                                     #  R2D4           =(6)
000609: 40,2326           00003                           OCT      3                                     #  R2D3           =(7)
000610: 40,2327           00003                           OCT      3                                     #  R2D2           =(8D)
000611: 40,2330           00003                           OCT      3                                     #  R2D1           =(9D)
000612: 40,2331           00002                           OCT      2                                     #  R1D5           =(10D)


000614: 40,2332           00002                           OCT      2                                     #  R1D4           =(11D)
000615: 40,2333           00002                           OCT      2                                     #  R1D3           =(12D)
000616: 40,2334           00002                           OCT      2                                     #  R1D2           =(13D)
000617: 40,2335           00002                           OCT      2                                     #  R1D1           =(14D)
000618: 40,2336           05706                           TC       CCSHOLE                               #  NO DSPCOUNT NUMBER = 15D
000619: 40,2337           00001                           OCT      1                                     #  ND2            =(16D)
000620: 40,2340           00001                           OCT      1                                     #  ND1            =(17D)
000621: 40,2341           00000                           OCT      0                                     #  VD2            =(18D)
000622: 40,2342           00000                           OCT      0                                     #  VD1            =(19D)
000623:
000624:
000625: 40,2343           34755        VERB               CAF      ZERO
000626: 40,2344           55000                           TS       VERBREG
000627: 40,2345           34360                           CAF      VD1
000628: 40,2346           54776        NVCOM              TS       DSPCOUNT
000629: 40,2347           02570                           TC       2BLANK
000630: 40,2350           34753                           CAF      ONE
000631: 40,2351           54777                           TS       DECBRNCH                              #  SET FOR DEC V/N CODE
000632: 40,2352           34755                           CAF      ZERO
000633: 40,2353           55012                           TS       REQRET                                #  SET FOR ENTPAS0
000634: 40,2354           34217                           CAF      ENDINST                               #  IF DSPALARM OCCURS BEFORE FIRST ENTPAS0
000635: 40,2355           54136                           TS       ENTRET                                #  OR NVSUB, ENTRET MUST ALREADY BE SET
000636:                                                                                                  #  TO TC ENDOFJOB
000637: 40,2356           05155                           TC       ENDOFJOB
000638: 40,2357           34755        NOUN               CAF      ZERO
000639: 40,2360           55001                           TS       NOUNREG
000640: 40,2361           34361                           CAF      ND1                                   #  ND1, OCT 21 (DEC 17)
000641: 40,2362           02346                           TC       NVCOM
000642:
000643:
000644: 40,2363           02435        NEGSGN             TC       SIGNTEST
000645: 40,2364           02422                           TC       -ON
000646: 40,2365           34752                           CAF      TWO
000647: 40,2366           50137        BOTHSGN            INDEX    INREL                                 #  SET DEC COMP BIT TO 1 (IN DECBRNCH)
000648: 40,2367           64745                           AD       BIT7                                  #  BIT 5 FOR R1,  BIT 4 FOR R2,
000649: 40,2370           26777                           ADS      DECBRNCH                              #  BIT 3 FOR R3.
000650: 40,2371           11014        FIXCLPAS           CCS      CLPASS                                #  IF CLPASS IS + OR +0, MAKE IT +0.
000651: 40,2372           34755                           CAF      ZERO
000652: 40,2373           55014                           TS       CLPASS
000653: 40,2374           02375                           TC       +1
000654: 40,2375           05155                           TC       ENDOFJOB
000655:
000656: 40,2376           02435        POSGN              TC       SIGNTEST
000657: 40,2377           02402                           TC       +ON
000658: 40,2400           34753                           CAF      ONE
000659: 40,2401           02366                           TC       BOTHSGN
000660:
000661: 40,2402           22002        +ON                LXCH     Q
000662: 40,2403           02313                           TC       GETINREL
000663: 40,2404           50137                           INDEX    INREL


000665: 40,2405           32430                           CAF      SGNTAB     -2
000666: 40,2406           54123                           TS       SGNOFF
000667: 40,2407           64753                           AD       ONE
000668: 40,2410           54122                           TS       SGNON
000669: 40,2411           34755        SGNCOM             CAF      ZERO
000670: 40,2412           54124                           TS       CODE
000671: 40,2413           56123                           XCH      SGNOFF
000672: 40,2414           03435                           TC       11DSPIN
000673: 40,2415           34741                           CAF      BIT11
000674: 40,2416           54124                           TS       CODE
000675: 40,2417           56122                           XCH      SGNON
000676: 40,2420           03435                           TC       11DSPIN
000677: 40,2421           00001                           TC       L
000678: 40,2422           22002        -ON                LXCH     Q
000679: 40,2423           02313                           TC       GETINREL
000680: 40,2424           50137                           INDEX    INREL
000681: 40,2425           32430                           CAF      SGNTAB     -2
000682: 40,2426           54122                           TS       SGNON
000683: 40,2427           64753                           AD       ONE
000684: 40,2430           54123                           TS       SGNOFF
000685: 40,2431           02411                           TC       SGNCOM
000686:
000687: 40,2432           00005        SGNTAB             OCT      5                                     #  -R1
000688: 40,2433           00003                           OCT      3                                     #  -R2
000689: 40,2434           00000                           OCT      0                                     #  -R3
000690:
000691:
000692: 40,2435           22002        SIGNTEST           LXCH     Q                                     #  ALLOWS +,- ONLY WHEN DSPCOUNT=R1D1,
000693: 40,2436           36257                           CAF      THREE                                 #  R2D1, OR R3D1. ALLOWS ONLY FIRST OF
000694: 40,2437           70777                           MASK     DECBRNCH                              #  CONSECUTIVE +/- CHARACTERS.
000695: 40,2440           10000                           CCS      A                                     #  IF LOW2 BITS OF DECBRNCH NOT= 0, SIGN
000696: 40,2441           05155                           TC       ENDOFJOB                              #  FOR THIS WORD ALREADY IN. REJECT.
000697: 40,2442           44317                           CS       R1D1
000698: 40,2443           02451                           TC       SGNTST1
000699: 40,2444           44320                           CS       R2D1
000700: 40,2445           02451                           TC       SGNTST1
000701: 40,2446           44321                           CS       R3D1
000702: 40,2447           02451                           TC       SGNTST1
000703: 40,2450           05155                           TC       ENDOFJOB                              #  NO MATCH FOUND. SIGN ILLEGAL
000704: 40,2451           60776        SGNTST1            AD       DSPCOUNT
000705: 40,2452           00006                           EXTEND
000706: 40,2453           12455                           BZF      +2                                    #  MATCH FOUND
000707: 40,2454           00002                           TC       Q
000708: 40,2455           00001                           TC       L                                     #  SIGN LEGAL
000709:
000710:
000711:                                                                                                  #  CLEAR BLANKS WHICH R1, R2, R3 IS CURRENT OR LAST TO BE DISPLAYED(PERTINE
000712:                                                                                                  #  NT XREG,YREG,ZREG IS CLEARED). SUCCESSIVE CLEARS TAKE CARE OF EACH RX
000713:                                                                                                  #  L/ RC UNTIL R1 IS DONE. THEN NO FURTHER ACTION


000715:                                                                                                  #  THE SINGLE COMPONENT LOAD VERBS ALLOW ONLY THE SINGLE RC THAT IS
000716:                                                                                                  #  APPROPRIATE TO BE CLEARED.
000717:
000718:                                                                                                  #  CLPASS   +0  PASS0, CAN BE BACKED UP
000719:                                                                                                  #           +NZ  HIPASS, CAN BE BACKED UP
000720:                                                                                                  #           -NZ  PASS0, CANNOT BE BACKED UP
000721:
000722: 40,2456           10776        CLEAR              CCS      DSPCOUNT
000723: 40,2457           64753                           AD       ONE
000724: 40,2460           02462                           TC       +2
000725: 40,2461           64753                           AD       ONE
000726: 40,2462           50000                           INDEX    A                                     #  DO NOT CHANGE DSPCOUNT BECAUSE MAY LATER
000727: 40,2463           32317                           CAF      INRELTAB                              #  FAIL LEGALTST.
000728: 40,2464           54137                           TS       INREL                                 #  MUST SET INREL, EVEN FOR HIPASS.
000729: 40,2465           11014                           CCS      CLPASS
000730: 40,2466           02474                           TC       CLPASHI                               #  +
000731: 40,2467           02471                           TC       +2                                    #  +0    IF CLPASS IS +0 OR -, IT IS PASS0
000732: 40,2470           02471                           TC       +1                                    #  -
000733: 40,2471           30137                           CA       INREL
000734: 40,2472           02516                           TC       LEGALTST
000735: 40,2473           02511                           TC       CLEAR1
000736: 40,2474           10137        CLPASHI            CCS      INREL
000737: 40,2475           54137                           TS       INREL
000738: 40,2476           02516                           TC       LEGALTST
000739: 40,2477           32566                           CAF      DOUBLK     +2                         #  +3 TO - NUMBER. BACKS DATA REQUESTS.
000740: 40,2500           27012                           ADS      REQRET
000741: 40,2501           30137                           CA       INREL
000742: 40,2502           54125                           TS       MIXTEMP                               #  TEMP STORAGE FOR INREL
000743: 40,2503           00006                           EXTEND
000744: 40,2504           27000                           DIM      VERBREG                               #  DECREMENT VERB AND RE-DISPLAY
000745: 40,2505           04616                           TC       BANKCALL
000746: 40,2506           62367                           CADR     UPDATVB
000747: 40,2507           30125                           CA       MIXTEMP
000748: 40,2510           54137                           TS       INREL                                 #  RESTORE INREL
000749: 40,2511           02514        CLEAR1             TC       CLR5
000750: 40,2512           25014                           INCR     CLPASS                                #  ONLY IF CLPASS IS + OR +0,
000751: 40,2513           05155                           TC       ENDOFJOB                              #  SET FOR HIGHER PASS.
000752: 40,2514           22002        CLR5               LXCH     Q                                     #  USES 5BLANK  BUT AVOIDS ITS TC GETINREL
000753: 40,2515           02527                           TC       5BLANK     +2
000754: 40,2516           67760        LEGALTST           AD       NEG2
000755: 40,2517           10000                           CCS      A
000756: 40,2520           00002                           TC       Q                                     #  LEGAL  INREL G/ 2
000757: 40,2521           05706                           TC       CCSHOLE
000758: 40,2522           05155                           TC       ENDOFJOB                              #  ILLEGAL   INREL= 0,1
000759: 40,2523           00002                           TC       Q                                     #  LEGAL    INREL = 2
000760:
000761:
000762:                                                                                                  #  5BLANK BLANKS 5 CHAR DISPLAY WORD IN R1, R2, OR R3. IT ALSO ZEROES XREG,
000763:                                                                                                  #  YREG, OR ZREG.PLACE ANY + DSPCOUNT NUMBER FOR PERTINENT RC INTO DSPCOUNT
000764:                                                                                                  #  DSPCOUNT IS LEFT SET TO LEFT MOST DSP NUMB FOR RC JUST BLANKED.
000765:


000767: 40,2524           54776                           TS       DSPCOUNT                              #  NEEDED FOR BLANKSUB
000768: 40,2525           22002        5BLANK             LXCH     Q
000769: 40,2526           02313                           TC       GETINREL
000770: 40,2527           34755                           CAF      ZERO
000771: 40,2530           50137                           INDEX    INREL
000772: 40,2531           55000                           TS       VERBREG                               #  ZERO X, Y, Z REG.
000773: 40,2532           50137                           INDEX    INREL
000774: 40,2533           55003                           TS       XREGLP     -2
000775: 40,2534           54124                           TS       CODE
000776: 40,2535           50137                           INDEX    INREL                                 #  ZERO PERTINENT DEC COMP BIT.
000777: 40,2536           44745                           CS       BIT7                                  #  PROTECT OTHERS
000778: 40,2537           70777                           MASK     DECBRNCH
000779: 40,2540           72567                           MASK     BRNCHCON                              #  ZERO LOW 2 BITS.
000780: 40,2541           54777                           TS       DECBRNCH
000781: 40,2542           50137                           INDEX    INREL
000782: 40,2543           32557                           CAF      SINBLANK   -2                         #  BLANK ISOLATED CHAR SEPARATELY
000783: 40,2544           54143                           TS       COUNT
000784: 40,2545           03353                           TC       DSPIN
000785: 40,2546           50137        5BLANK1            INDEX    INREL
000786: 40,2547           32562                           CAF      DOUBLK     -2
000787: 40,2550           54776                           TS       DSPCOUNT
000788: 40,2551           02570                           TC       2BLANK
000789: 40,2552           44752                           CS       TWO
000790: 40,2553           26776                           ADS      DSPCOUNT
000791: 40,2554           02570                           TC       2BLANK
000792: 40,2555           50137                           INDEX    INREL
000793: 40,2556           34315                           CAF      R1D1       -2
000794: 40,2557           54776                           TS       DSPCOUNT                              #  SET DSPCOUNT TO LEFT MOST DSP NUMBER
000795: 40,2560           00001                           TC       L                                     #  OF REG. JUST BLANKED
000796:
000797: 40,2561           00016        SINBLANK           OCT      16                                    #  DEC 14
000798: 40,2562           00005                           OCT      5
000799: 40,2563           00004                           OCT      4
000800: 40,2564           00015        DOUBLK             OCT      15                                    #  DEC 13
000801: 40,2565           00011                           OCT      11                                    #  DEC 9
000802: 40,2566           00003                           OCT      3
000803:
000804: 40,2567           77774        BRNCHCON           OCT      77774
000805:
000806:                                                                                                  #  2BLANK BLANKS TWO CHAR. PLACE DSP NUMBER OF LEFT CHAR  OF THE PAIR INTO
000807:                                                                                                  #  DSPCOUNT. THIS NUMBER IS LEFT IN DSPCOUNT
000808:
000809: 40,2570           30776        2BLANK             CA       DSPCOUNT
000810: 40,2571           54021                           TS       SR
000811: 40,2572           42603                           CS       BLANKCON
000812: 40,2573           00004                           INHINT
000813: 40,2574           50021                           INDEX    SR
000814: 40,2575           57022                           XCH      DSPTAB
000815: 40,2576           00006                           EXTEND
000816: 40,2577           62601                           BZMF     +2                                    #  IF OLD CONTENTS -, NOUT OK


000818: 40,2600           25015                           INCR     NOUT                                  #  IF OLD CONTENTS +, +1 TO NOUT
000819: 40,2601           00003                           RELINT                                         #  IF -,NOUT OK
000820: 40,2602           00002                           TC       Q
000821: 40,2603           04000        BLANKCON           OCT      4000
000822:


000824:                                                                                                  #  ENTER PASS 0 IS THE EXECUTE FUNCTION. HIGHER ORDER ENTERS ARE TO LOAD
000825:                                                                                                  #  DATA. THE SIGN OF REQRET DETERMINES THE PASS, + FOR PASS 0,- FOR HIGHER
000826:                                                                                                  #  PASSES.
000827:
000828:
000829:                                                                                                  #  MACHINE CADR TO BE SPECIFIED (MCTBS) NOUNS DESIRE AN ECADR TO BE LOADED
000830:                                                                                                  #  WHEN USED WITH LOAD VERBS, MONITOR VERBS, OR DISPLAY VERBS (EXCEPT
000831:                                                                                                  #  VERB = FIXED MEMORY DISPLAY, WHICH REQUIRES AN FCADR).
000832:
000833:
000834: 41,2020                                           BANK     41
000835: 41,2000                                           SETLOC   PINBALL2
000836: 41,2000                                           BANK
000837:
000838: 41,2020                                           COUNT*   $$/PIN
000839: 41,2020           03604        NVSUBB             TC       NVSUB1                                #  STANDARD LEAD INS. DONT MOVE.
000840: 41,2021           03045        LOADLV1            TC       LOADLV
000841:                                                                                                  #  END OF STANDARD LEAD INS.
000842:
000843:
000844: 41,2022           34755        ENTER              CAF      ZERO
000845: 41,2023           55014                           TS       CLPASS
000846: 41,2024           34217                           CAF      ENDINST
000847: 41,2025           54136                           TS       ENTRET
000848: 41,2026           11012                           CCS      REQRET
000849: 41,2027           02062                           TC       ENTPAS0                               #  IF +, PASS 0
000850: 41,2030           02062                           TC       ENTPAS0                               #  IF +, PASS 0
000851: 41,2031           02032                           TC       +1                                    #  IF -, NOT PASS 0
000852: 41,2032           32060        ENTPASHI           CAF      MMADREF
000853: 41,2033           61012                           AD       REQRET                                #  IF L/ 2 CHAR IN FOR MM CODE, ALARM
000854: 41,2034           00006                           EXTEND                                         #  AND RECYCLE(DECIDE AT MMCHANG+1).
000855: 41,2035           12047                           BZF      ACCEPTWD
000856: 41,2036           36257                           CAF      THREE                                 #  IF DEC, L/5 CHAR IN FOR DATA MUST BE
000857: 41,2037           70777                           MASK     DECBRNCH                              #  SCALED (DECEND); IF 5 CHAR IN, DATA
000858: 41,2040           10000                           CCS      A                                     #  HAS ALREADY BEEN SCALED. ANY NUMBER
000859: 41,2041           02043                           TC       +2                                    #  OF DECIMAL CHARACTERS ARE ACCEPTABLE.SCR
000860: 41,2042           02047                           TC       ACCEPTWD                              #  OCTAL. ANY NUMBER OF CHAR OK.
000861: 41,2043           10776                           CCS      DSPCOUNT
000862: 41,2044           02053                           TC       LT5
000863: 41,2045           02053                           TC       LT5
000864: 41,2046           02047                           TC       +1                                    #  5 CHAR IN (DSPCOUNT IS -)
000865: 41,2047           41012        ACCEPTWD           CS       REQRET                                #  5 CHAR IN (DSPCOUNT IS -)
000866: 41,2050           55012                           TS       REQRET                                #  SET REQRET +.
000867: 41,2051           04433                           TC       FLASHOFF
000868: 41,2052           01012                           TC       REQRET
000869:
000870: 41,2053           34755        LT5                CAF      ZERO
000871: 41,2054           54154                           TS       MPAC
000872: 41,2055           04616                           TC       BANKCALL
000873: 41,2056           60254                           CADR     DECEND     +4


000875: 41,2057           02047                           TC       ACCEPTWD
000876: 41,2060     0136               ENTEXIT            =        ENTRET
000877:
000878: 41,2060           03471        MMADREF            ADRES    MMCHANG    +1                         #  ASSUMES TC REQMM AT MMCHANG.
000879:
000880: 41,2061           00034        LOWVERB            DEC      28         B-14                       #  LOWER VERB THAT AVOIDS NOUN TEST.
000881:
000882: 41,2062           34755        ENTPAS0            CAF      ZERO                                  #   NOUN VERB SUB ENTERS HERE
000883: 41,2063           54777                           TS       DECBRNCH
000884: 41,2064           44360                           CS       VD1                                   #  BLOCK FURTHER NUM CHAR, SO THAT STRAY
000885: 41,2065           54776                           TS       DSPCOUNT                              #  CHAR DO NOT GET INTO VERB OR NOUN LTS.
000886: 41,2066           41000        TESTVB             CS       VERBREG                               #  IF VERB IS G/E LOWVB, SKIP NOUN TEST.
000887: 41,2067           55040                           TS       VERBSAVE                              #  SAVE VERB FOR POSSIBLE RECYCLE.
000888: 41,2070           62061                           AD       LOWVERB                               #  LOWVERB - VB
000889: 41,2071           00006                           EXTEND
000890: 41,2072           62160                           BZMF     VERBFAN                               #  VERB G/E LOWVERB
000891: 41,2073           00006        TESTNN             EXTEND                                         #  VERB L/ LOWVERB
000892: 41,2074           32141                           DCA      LODNNLOC                              #  SWITCH BANKS TO NOUN TABLE READING
000893: 41,2075           52006                           DXCH     Z                                     #  ROUTINE.
000894: 41,2076           50140                           INDEX    MIXBR
000895: 41,2077           02077                           TC       +0
000896: 41,2100           02102                           TC       +2                                    #  NORMAL
000897: 41,2101           02246                           TC       MIXNOUN                               #  MIXED
000898: 41,2102           10146                           CCS      NNADTEM                               #  NORMAL
000899: 41,2103           02156                           TC       VERBFAN    -2                         #       NORMAL IF +
000900: 41,2104           02400                           TC       GODSPALM                              #  NOT IN USE   IF +0
000901: 41,2105           02111                           TC       REQADD                                #  SPECIFY MACHINE CADR IF -
000902: 41,2106           25016                           INCR     NOUNCADR                              #  AUGMENT MACHINE CADR IF -0
000903: 41,2107           04311                           TC       SETNADD                               #  ECADR FROM NOUNCADR. SETS EB, NOUNADD.
000904: 41,2110           02145                           TC       INTMCTBS   +2
000905: 41,2111           34735        REQADD             CAF      BIT15                                 #  SET CLPASS FOR PASS0 ONLY
000906: 41,2112           55014                           TS       CLPASS
000907: 41,2113           44217                           CS       ENDINST                               #  TEST IF REACHED HERE FROM INTERNAL OR
000908: 41,2114           60136                           AD       ENTEXIT                               #              FROM EXTERNAL
000909: 41,2115           00006                           EXTEND
000910: 41,2116           12120                           BZF      +2                                    #  EXTERNAL MACH CADR TO BE SPECIFIED
000911: 41,2117           02143                           TC       INTMCTBS
000912: 41,2120           02336                           TC       REQDATZ                               #  EXTERNAL MACH CADR TO BE SPECIFIED
000913: 41,2121           10777                           CCS      DECBRNCH                              #  ALARM AND RECYCLE IF DECIMAL USED
000914: 41,2122           04145                           TC       ALMCYCLE                              #  FOR MCTBS.
000915: 41,2123           44360                           CS       VD1                                   #  OCTAL USED  OK
000916: 41,2124           54776                           TS       DSPCOUNT                              #  BLOCK NUM CHAR IN
000917: 41,2125           11041                           CCS      CADRSTOR
000918: 41,2126           02131                           TC       +3                                    #  EXTERNAL MCTBS DISPLAY WILL LEAVE FLASH
000919: 41,2127           02132                           TC       USEADD                                #  ON IF ENDIDLE NOT = +0.
000920: 41,2130           02131                           TC       +1
000921: 41,2131           04427                           TC       FLASHON
000922: 41,2132           57004        USEADD             XCH      ZREG
000923: 41,2133           04303                           TC       SETNCADR                              #  ECADR INTO NOUNCADR. SET EB, NOUNADD.
000924: 41,2134           00006                           EXTEND


000926: 41,2135           32141                           DCA      LODNNLOC                              #  SWITCH BANKS TO NOUN TABLE READING
000927: 41,2136           52006                           DXCH     Z                                     #  ROUTINE.
000928: 41,2137           02160                           TC       VERBFAN
000929:
000930: 41,2140     0776                                  EBANK=   DSPCOUNT
000931: 41,2140           02101 64101  LODNNLOC           2CADR    LODNNTAB
000932:
000933:
000934: 41,2142           77772        NEG5               OCT      77772
000935:
000936: 41,2143           30156        INTMCTBS           CA       MPAC       +2                         #  INTERNAL MACH CADR TO BE SPECIFIED.
000937: 41,2144           04303                           TC       SETNCADR                              #  ECADR INTO NOUNCADR. SET EB, NOUNADD.
000938: 41,2145           44756                           CS       FIVE                                  #  NVSUB CALL LEFT CADR IN MPAC+2 FOR MACH
000939: 41,2146           61000                           AD       VERBREG                               #  CADR TO BE SPECIFIED.
000940: 41,2147           00006                           EXTEND
000941: 41,2150           12160                           BZF      VERBFAN                               #  DONT DISPLAY CADR IF VB = 05.
000942: 41,2151           34321                           CAF      R3D1                                  #  VB NOT = 05. DISPLAY CADR.
000943: 41,2152           54776                           TS       DSPCOUNT
000944: 41,2153           31016                           CA       NOUNCADR
000945: 41,2154           03435                           TC       DSPOCTWD
000946: 41,2155           02160                           TC       VERBFAN
000947:
000948: 41,2156           64753                           AD       ONE
000949: 41,2157           04303                           TC       SETNCADR                              #  ECADR INTO NOUNCADR. SETS EB, NOUNADD.
000950: 41,2160           42172        VERBFAN            CS       LST2CON
000951: 41,2161           61000                           AD       VERBREG                               #  VERB-LST2CON
000952: 41,2162           10000                           CCS      A
000953: 41,2163           64753                           AD       ONE                                   #  VERB G/ LST2CON
000954: 41,2164           02166                           TC       +2
000955: 41,2165           02173                           TC       VBFANDIR                              #  VERB L/ LST2CON
000956: 41,2166           54154                           TS       MPAC
000957: 41,2167           04457                           TC       RELDSP                                #  RELEASE DISPLAY SYST
000958: 41,2170           04635                           TC       POSTJUMP                              #  GO TO GOEXTVB WITH VB-40 IN MPAC.
000959: 41,2171           66000                           CADR     GOEXTVB
000960: 41,2172           00050        LST2CON            DEC      40         B-14                       #  FIRST LIST2 VERB (EXTENDED VERB)
000961:
000962: 41,2173           51000        VBFANDIR           INDEX    VERBREG
000963: 41,2174           32176                           CAF      VERBTAB
000964: 41,2175           04640                           TC       BANKJUMP
000965:
000966: 41,2176           62400        VERBTAB            CADR     GODSPALM                              #  VB00 ILLEGAL
000967: 41,2177           62414                           CADR     DSPA                                  #  VB01 DISPLAY OCT COMP 1 (R1)
000968: 41,2200           62422                           CADR     DSPB                                  #  VB02 DISPLAY OCT COMP 2 (R1)
000969: 41,2201           62427                           CADR     DSPC                                  #  VB03 DISPLAY OCT COMP 3 (R1)
000970: 41,2202           62407                           CADR     DSPAB                                 #  VB04 DISPLAY OCT COMP 1,2 (R1,R2)
000971: 41,2203           62402                           CADR     DSPABC                                #  VB05 DISPLAY OCT COMP 1,2,3 (R1,R2,R3)
000972: 41,2204           62552                           CADR     DECDSP                                #  VB06 DECIMAL DISPLAY
000973: 41,2205           61026                           CADR     DSPDPDEC                              #  VB07 DP DECIMAL DISPLAY (R1,R2)
000974: 41,2206           62400                           CADR     GODSPALM                              #  VB08 SPARE
000975: 41,2207           62400                           CADR     GODSPALM                              #  VB09 SPARE


000977: 41,2210           61451                           CADR     DSPALARM                              #  VB10 SPARE
000978: 41,2211           63302                           CADR     MONITOR                               #  VB11 MONITOR OCT COMP 1 (R1)
000979: 41,2212           63302                           CADR     MONITOR                               #  VB12 MONITOR OCT COMP 2 (R1)
000980: 41,2213           63302                           CADR     MONITOR                               #  VB13 MONITOR OCT COMP 3 (R1)
000981: 41,2214           63302                           CADR     MONITOR                               #  VB14 MONITOR OCT COMP 1,2 (R1,R2)
000982: 41,2215           63302                           CADR     MONITOR                               #  VB15 MONITOR OCT COMP 1,2,3 (R1,R2,R3)
000983: 41,2216           63302                           CADR     MONITOR                               #  VB16 MONITOR DECIMAL
000984: 41,2217           63302                           CADR     MONITOR                               #  VB17 MONITOR DP DEC  (R1,R2)
000985: 41,2220           62400                           CADR     GODSPALM                              #  VB18 SPARE
000986: 41,2221           62400                           CADR     GODSPALM                              #  VB19 SPARE
000987: 41,2222           62400                           CADR     GODSPALM                              #  VB20 SPARE
000988: 41,2223           63002                           CADR     ALOAD                                 #  VB21 LOAD COMP 1 (R1)
000989: 41,2224           63013                           CADR     BLOAD                                 #  VB22 LOAD COMP 2 (R2)
000990: 41,2225           63030                           CADR     CLOAD                                 #  VB23 LOAD COMP 3 (R3)
000991: 41,2226           62753                           CADR     ABLOAD                                #  VB24 LOAD COMP 1,2 (R1,R2)
000992: 41,2227           62647                           CADR     ABCLOAD                               #  VB25 LOAD COMP 1,2,3 (R1,R2,R3)
000993: 41,2230           62400                           CADR     GODSPALM                              #  VB26 SPARE
000994: 41,2231           63425                           CADR     DSPFMEM                               #  VB27 FIXED MEMORY DISPLAY
000995:                                                                                                  #  THE FOLLOWING VERBS MAKE NO NOUN TEST
000996: 41,2232           62400                           CADR     GODSPALM                              #  VB28 SPARE
000997: 41,2233           62400                           CADR     GODSPALM                              #  VB29 SPARE
000998: 41,2234           63526        REQEXLOC           CADR     VBRQEXEC                              #  VB30 REQUEST EXECUTIVE
000999: 41,2235           63552                           CADR     VBRQWAIT                              #  VB31 REQUEST WAITLIST
001000: 41,2236           61516                           CADR     VBRESEQ                               #  VB32 RESEQUENCE
001001: 41,2237           61473                           CADR     VBPROC                                #  VB33 PROCEED WITHOUT DATA
001002: 41,2240           61501                           CADR     VBTERM                                #  VB34 TERMINATE CURRENT TEST OR LOAD REQ
001003: 41,2241           63653                           CADR     VBTSTLTS                              #  VB35 TEST LIGHTS
001004: 41,2242           12464                           CADR     SLAP1                                 #  VB36 FRESH START
001005: 41,2243           63470                           CADR     MMCHANG                               #  VB37 CHANGE MAJOR MODE
001006: 41,2244           62400                           CADR     GODSPALM                              #  VB38 SPARE
001007: 41,2245           62400                           CADR     GODSPALM                              #  VB39 SPARE
001008:
001009:
001010:                                                                                                  #  THE LIST2 VERBFAN IS LOCATED IN THE EXTENDED VERB BANK.
001011:


001013:                                                                                                  #  NNADTAB CONTAINS A RELATIVE ADDRESS, IDADDREL(IN LOW 10 BITS), REFERRING
001014:                                                                                                  #  TO WHERE 3 CONSECUTIVE ADDRESSES ARE STORED (IN IDADDTAB).
001015:                                                                                                  #  MIXNOUN GETS DATA AND STORES IN MIXTEMP,+1,+2. IT SETS NOUNADD FOR
001016:                                                                                                  #   MIXTEMP.
001017:
001018: 41,2246           10146        MIXNOUN            CCS      NNADTEM
001019: 41,2247           02253                           TC       +4                                    #  +  IN USE
001020: 41,2250           02400                           TC       GODSPALM                              #  +0  NOT IN USE
001021: 41,2251           02253                           TC       +2                                    #  -  IN USE
001022: 41,2252           02253                           TC       +1                                    #  -0  IN USE
001023: 41,2253           46254                           CS       SIX
001024: 41,2254           61000                           AD       VERBREG
001025: 41,2255           00006                           EXTEND
001026: 41,2256           62260                           BZMF     +2                                    #  VERB L/E 6
001027: 41,2257           02160                           TC       VERBFAN                               #  AVOID MIXNOUN SWAP IF VB NOT = DISPLAY
001028: 41,2260           34752                           CAF      TWO
001029: 41,2261           54117        MIXNN1             TS       DECOUNT
001030: 41,2262           62305                           AD       MIXAD
001031: 41,2263           54145                           TS       NOUNADD                               #  SET NOUNADD TO MIXTEMP + K
001032: 41,2264           50117                           INDEX    DECOUNT                               #  GET IDADDTAB ENTRY FOR COMPONENT K
001033: 41,2265           30150                           CA       IDAD1TEM                              #  OF NOUN.
001034: 41,2266           54122                           TS       NOUNTEM
001035:                                                                                                  #  TEST FOR DP(FOR OCT DISPLAY). IF SO, GET
001036:                                                                                                  #    MINOR PART ONLY.
001037: 41,2267           03104                           TC       SFRUTMIX                              #  GET SF ROUT NUMBER IN A
001038: 41,2270           02306                           TC       DPTEST
001039: 41,2271           02273                           TC       MIXNN2                                #  NO DP
001040: 41,2272           24122                           INCR     NOUNTEM                               #  DP  GET MINOR PART
001041: 41,2273           30122        MIXNN2             CA       NOUNTEM
001042: 41,2274           74356                           MASK     LOW11                                 #  ESUBK (NO DP)  OR (ESUBK)+1    FOR DP
001043: 41,2275           04313                           TC       SETEBANK                              #  SET EBANK, LEAVE EADRES IN A.
001044: 41,2276           50000                           INDEX    A                                     #  PICK UP C(ESUBK)  NOT DP
001045: 41,2277           30000                           CA       0                                     #  OR C((ESUBK)+1)  FOR DP MINOR PART
001046: 41,2300           50145                           INDEX    NOUNADD
001047: 41,2301           56000                           XCH      0                                     #  STORE IN MIXTEM + K
001048: 41,2302           10117                           CCS      DECOUNT
001049: 41,2303           02261                           TC       MIXNN1
001050: 41,2304           02160                           TC       VERBFAN
001051:
001052: 41,2305           00125        MIXAD              TC       MIXTEMP
001053:
001054:
001055:                                                                                                  #  DPTEST   ENTER WITH SF ROUT NUMBER IN A.
001056:                                                                                                  #           RETURNS TO L+1 IF NO DP.
001057:                                                                                                  #           RETURNS TO L+2 IF DP.
001058:
001059: 41,2306           50000        DPTEST             INDEX    A
001060: 41,2307           12310                           TCF      +1
001061: 41,2310           00002                           TC       Q                                     #  OCTAL ONLY  NO DP
001062: 41,2311           00002                           TC       Q                                     #  FRACT NO DP


001064: 41,2312           00002                           TC       Q                                     #  DEG  NO DP
001065: 41,2313           00002                           TC       Q                                     #  ARITH  NO DP
001066: 41,2314           12330                           TCF      DPTEST1                               #  DP1OUT
001067: 41,2315           12330                           TCF      DPTEST1                               #  DP2OUT
001068: 41,2316           00002                           TC       Q                                     #  LRPOSOUT  NO DP (DATA IN CHANNEL 33)
001069: 41,2317           12330                           TCF      DPTEST1                               #  DP3OUT
001070: 41,2320           00002                           TC       Q                                     #  HMS   NO DP
001071: 41,2321           00002                           TC       Q                                     #  M/S   NO DP
001072: 41,2322           12330                           TCF      DPTEST1                               #  DP4OUT
001073: 41,2323           00002                           TC       Q                                     #  ARITH1   NO DP
001074: 41,2324           00002                           TC       Q                                     #  2INTOUT  NO DP TO GET HI PART IN MPAC
001075: 41,2325           00002                           TC       Q                                     #  360-CDU   NO DP
001076: 41,2326           00002                           TC       Q                                     #  RRANGOUT  NO DP
001077: 41,2327           00002                           TC       Q                                     #  RRDOTOUT  NO DP
001078: 41,2330           50002        DPTEST1            INDEX    Q
001079: 41,2331           00001                           TC       1                                     #  RETURN TO L+2
001080:
001081:
001082: 41,2332           34317        REQDATX            CAF      R1D1
001083: 41,2333           12337                           TCF      REQCOM
001084: 41,2334           34320        REQDATY            CAF      R2D1
001085: 41,2335           12337                           TCF      REQCOM
001086: 41,2336           34321        REQDATZ            CAF      R3D1
001087: 41,2337           54776        REQCOM             TS       DSPCOUNT
001088: 41,2340           40002                           CS       Q
001089: 41,2341           55012                           TS       REQRET
001090: 41,2342           04616                           TC       BANKCALL
001091: 41,2343           60525                           CADR     5BLANK
001092: 41,2344           04427                           TC       FLASHON
001093: 41,2345           00136        ENDRQDAT           TC       ENTEXIT
001094:
001095: 41,2346           55001                           TS       NOUNREG
001096: 41,2347           56002        UPDATNN            XCH      Q
001097: 41,2350           54117                           TS       UPDATRET
001098: 41,2351           00006                           EXTEND
001099: 41,2352           32141                           DCA      LODNNLOC                              #  SWITCH BANKS TO NOUN TABLE READING
001100: 41,2353           52006                           DXCH     Z                                     #  ROUTINE.
001101: 41,2354           10146                           CCS      NNADTEM
001102: 41,2355           64753                           AD       ONE                                   #  NORMAL
001103: 41,2356           12361                           TCF      PUTADD
001104: 41,2357           12362                           TCF      PUTADD     +1                         #  MCTBS  DONT CHANGE NOUNADD
001105: 41,2360           12362                           TCF      PUTADD     +1                         #  MCTBI  DONT CHANGE NOUNADD
001106: 41,2361           04303        PUTADD             TC       SETNCADR                              #  ECADR INTO NOUNCADR. SETS EB, NOUNADD.
001107: 41,2362           34361                           CAF      ND1
001108: 41,2363           54776                           TS       DSPCOUNT
001109: 41,2364           31001                           CA       NOUNREG
001110: 41,2365           12374                           TCF      UPDAT1
001111:
001112: 41,2366           55000                           TS       VERBREG
001113: 41,2367           56002        UPDATVB            XCH      Q


001115: 41,2370           54117                           TS       UPDATRET
001116: 41,2371           34360                           CAF      VD1
001117: 41,2372           54776                           TS       DSPCOUNT
001118: 41,2373           31000                           CA       VERBREG
001119: 41,2374           04635        UPDAT1             TC       POSTJUMP                              #  CANT USE SWCALL TO GO TO DSPDECVN,SINCE
001120: 41,2375           61350                           CADR     GOVNUPDT                              #  UPDATVB CAN ITSELF BE CALLED BY SWCALL.
001121: 41,2376           00117                           TC       UPDATRET
001122:
001123:
001124: 41,2377           04145        GOALMCYC           TC       ALMCYCLE                              #  NEEDED BECAUSE BANKJUMP CANT HANDLE F/F.
001125:
001126:
001127: 41,2400           04635        GODSPALM           TC       POSTJUMP
001128: 41,2401           61451                           CADR     DSPALARM
001129:


001131:                                                                                                  #           NOUN   TABLES
001132:                                                                                                  #  NOUN CODE L/40, NORMAL NOUN CASE.  NOUN CODE G/E 40, MIXED NOUN CASE.
001133:                                                                                                  #  FOR NORMAL CASE, NNADTAB CONTAINS ONE       ECADR     FOR EACH NOUN.
001134:                                                                                                  #  +0 INDICATES NOUN NOT USED.   - ENTRY INDICATES MACHINE CADR(E OR F) TO
001135:                                                                                                  #  BE SPECIFIED. -1 INDICATES CHANNEL TO BE SPECIFIED. -0 INDICATES AUGMENT
001136:                                                                                                  #  OF LAST MACHINE CADR SUPPLIED.
001137:
001138:                                                                                                  #  FOR MIXED CASE, NNADTAB CONTAINS ONE INDIRECT ADDRESS(IDADDREL) IN LOW
001139:                                                                                                  #  10 BITS, AND THE COMPONENT CODE NUMBER IN THE HIGH 5 BITS.
001140:
001141:                                                                                                  #  NNTYPTAB IS A PACKED TABLE OF THE FORM MMMMMNNNNNPPPPP.
001142:
001143:                                                                                                  #  FOR THE NORMAL CASE, M-S ARE THE COMPONENT CODE NUMBER.
001144:                                                                                                  #                       N-S ARE THE SF ROUTINE CODE NUMBER.
001145:                                                                                                  #                       P-S ARE THE SF CONSTANT CODE NUMBER.
001146:
001147:                                                                                                  #  MIXED CASE,M-S ARE THE SF CONSTANT3 CODE NUMBER     3 COMPONENT CASE
001148:                                                                                                  #             N-S ARE THE SF CONSTANT2 CODE NUMBER
001149:                                                                                                  #             P-S ARE THE SF CONSTANT1 CODE NUMBER
001150:                                                                                                  #             N-S ARE THE SF CONSTANT2 CODE NUMBER     2 COMPONENT CASE
001151:                                                                                                  #             P-S ARE THE SF CONSTANT1 CODE NUMBER
001152:                                                                                                  #             P-S ARE THE SF CONSTANT1 CODE NUMBER      1 COMPONENT CASE
001153:
001154:                                                                                                  #  THERE IS ALSO AN INDIRECT ADDRESS TABLE(IDADDTAB) FOR MIXED CASE ONLY.
001155:                                                                                                  #  EACH ENTRY CONTAINS ONE ECADR.    IDADDREL IS THE RELATIVE ADDRESS OF
001156:                                                                                                  #  THE FIRST OF THESE ENTRIES.
001157:                                                                                                  #  THERE IS ONE ENTRY IN THIS TABLE FOR EACH COMPONENT OF A MIXED NOUN
001158:                                                                                                  #  THEY ARE LISTED IN ORDER OF ASCENDING K.
001159:
001160:                                                                                                  #  THERE IS ALSO A SCALE FACTOR ROUTINE NUMBER TABLE( RUTMXTAB ) FOR MIXED
001161:                                                                                                  #  CASE ONLY. THERE IS ONE ENTRY PER MIXED NOUN. THE FORM IS,
001162:                                                                                                  #        QQQQQRRRRRSSSSS
001163:                                                                                                  #  Q-S ARE THE SF ROUTINE 3 CODE NUMBER     3 COMPONENT CASE
001164:                                                                                                  #  R-S ARE THE SF ROUTINE 2 CODE NUMBER
001165:                                                                                                  #  S-S ARE THE SF ROUTINE 1 CODE NUMBER
001166:                                                                                                  #  R-S ARE THE SF ROUTINE 2 CODE NUMBER     2 COMPONENT CASE
001167:                                                                                                  #  S-S ARE THE SF ROUTINE 1 CODE NUMBER
001168:
001169:
001170:                                                                                                  #  IN OCTAL DISPLAY AND LOAD (OCT OR DEC) VERBS, EXCLUDE USE OF VERBS WHOSE
001171:                                                                                                  #  COMPONENT NUMBER IS GREATER THAN THE NUMBER OF COMPONENTS IN NOUN.
001172:                                                                                                  #  (ALL MACHINE ADDRESS TO BE SPECIFIED NOUNS ARE 3 COMPONENT.)
001173:
001174:
001175:                                                                                                  #  IN MULTI-COMPONENT LOAD VERBS, NO MIXING OF OCTAL AND DECIMAL DATA
001176:                                                                                                  #  COMPONENT WORDS IS ALLOWED. ALARM IF VIOLATION.
001177:
001178:                                                                                                  #  IN DECIMAL LOADS OF DATA, 5 NUMERICAL CHARACTERS MUST BE KEYED IN
001179:                                                                                                  #  BEFORE EACH ENTER. IF NOT, ALARM.
001180:


001182:                                                                                                  #           DISPLAY  VERBS
001183: 41,2402           44752        DSPABC             CS       TWO
001184: 41,2403           02453                           TC       COMPTEST
001185: 41,2404           50145                           INDEX    NOUNADD
001186: 41,2405           40002                           CS       2
001187: 41,2406           56132                           XCH      BUF        +2
001188: 41,2407           44753        DSPAB              CS       ONE
001189: 41,2410           02453                           TC       COMPTEST
001190: 41,2411           50145                           INDEX    NOUNADD
001191: 41,2412           40001                           CS       1
001192: 41,2413           56131                           XCH      BUF        +1
001193: 41,2414           02472        DSPA               TC       DECTEST
001194: 41,2415           02515                           TC       TSTFORDP
001195: 41,2416           50145                           INDEX    NOUNADD
001196: 41,2417           40000                           CS       0
001197: 41,2420           56130        DSPCOM1            XCH      BUF
001198: 41,2421           02434                           TC       DSPCOM2
001199: 41,2422           44753        DSPB               CS       ONE
001200: 41,2423           02466                           TC       DCOMPTST
001201: 41,2424           50145                           INDEX    NOUNADD
001202: 41,2425           40001                           CS       1
001203: 41,2426           02420                           TC       DSPCOM1
001204: 41,2427           44752        DSPC               CS       TWO
001205: 41,2430           02466                           TC       DCOMPTST
001206: 41,2431           50145                           INDEX    NOUNADD
001207: 41,2432           40002                           CS       2
001208: 41,2433           02420                           TC       DSPCOM1
001209: 41,2434           44752        DSPCOM2            CS       TWO                                   #  A  B  C  AB  ABC
001210: 41,2435           61000                           AD       VERBREG                               #  -1 -0 +1 +2  +3   IN A
001211: 41,2436           10000                           CCS      A                                     #  +0 +0 +0 +1  +2    IN A AFTER CCS
001212: 41,2437           02442                           TC       DSPCOM3
001213: 41,2440           00136                           TC       ENTEXIT
001214: 41,2441           02442                           TC       +1
001215: 41,2442           54122        DSPCOM3            TS       DISTEM                                #  +0,+1,+2 INTO DISTEM
001216: 41,2443           50000                           INDEX    A
001217: 41,2444           34317                           CAF      R1D1
001218: 41,2445           54776                           TS       DSPCOUNT
001219: 41,2446           50122                           INDEX    DISTEM
001220: 41,2447           40130                           CS       BUF
001221: 41,2450           03435                           TC       DSPOCTWD
001222: 41,2451           56122                           XCH      DISTEM
001223: 41,2452           02436                           TC       DSPCOM2    +2
001224:
001225:                                                                                                  #  COMPTEST ALARMS IF COMPONENT NUMBER OF VERB(LOAD OR OCT DISPLAY) IS
001226:                                                                                                  #  GREATER THAN THE HIGHEST COMPONENT NUMBER OF NOUN.
001227: 41,2453           54123        COMPTEST           TS       SFTEMP1                               #  - VERB COMP
001228: 41,2454           22002                           LXCH     Q
001229: 41,2455           02544        COMPTST1           TC       GETCOMP
001230: 41,2456           04331                           TC       LEFT5
001231: 41,2457           76257                           MASK     THREE                                 #  NOUN COMP


001233: 41,2460           60123                           AD       SFTEMP1                               #  NOUN COMP - VERB COMP
001234: 41,2461           10000                           CCS      A
001235: 41,2462           00001                           TC       L                                     #  NOUN COMP G/ VERB COMP
001236: 41,2463           05706                           TC       CCSHOLE
001237: 41,2464           02400                           TC       GODSPALM                              #  NOUN COMP L/ VERB COMP
001238: 41,2465           00001        NDCMPTST           TC       L                                     #  NOUN COMP = VERB COMP
001239:
001240:
001241:                                                                                                  #  DCOMPTST ALARMS IF DECIMAL ONLY BIT (BIT4 OF COMP CODE NUMBER) = 1.
001242:                                                                                                  #  IF NOT, IT PERFORMS REGULAR COMPTEST.
001243: 41,2466           54123        DCOMPTST           TS       SFTEMP1                               #  - VERB COMP
001244: 41,2467           22002                           LXCH     Q
001245: 41,2470           02472                           TC       DECTEST
001246: 41,2471           02455                           TC       COMPTST1
001247:
001248: 41,2472           00006        DECTEST            EXTEND                                         #  ALARMS IF DEC ONLY BIT = 1 (BIT4 OF COMP
001249: 41,2473           22156                           QXCH     MPAC       +2                         #  CODE NUMBER). RETURNS IF NOT.
001250: 41,2474           02544                           TC       GETCOMP
001251: 41,2475           74736                           MASK     BIT14
001252: 41,2476           10000                           CCS      A
001253: 41,2477           02400                           TC       GODSPALM
001254: 41,2500           00156                           TC       MPAC       +2
001255:
001256:
001257: 41,2501           22002        DCTSTCYC           LXCH     Q                                     #  ALARMS AND RECYCLES IF DEC ONLY BIT = 1
001258: 41,2502           02544                           TC       GETCOMP                               #  ( BIT4 OF COMP CODE NUMBER). RETURNS
001259: 41,2503           74736                           MASK     BIT14                                 #  IF NOT.  USED BY LOAD VERBS.
001260: 41,2504           10000                           CCS      A
001261: 41,2505           04145                           TC       ALMCYCLE
001262: 41,2506           00001                           TC       L
001263:
001264:
001265:                                                                                                  #  NOUNTEST ALARMS IF NO-LOAD BIT (BIT5 OF COMP CODE NUMBER) = 1.
001266:                                                                                                  #  IF NOT, IT RETURNS.
001267: 41,2507           22002        NOUNTEST           LXCH     Q
001268: 41,2510           02544                           TC       GETCOMP
001269: 41,2511           10000                           CCS      A
001270: 41,2512           00001                           TC       L
001271: 41,2513           00001                           TC       L
001272: 41,2514           02400                           TC       GODSPALM
001273:
001274:
001275: 41,2515           22002        TSTFORDP           LXCH     Q                                     #  TEST FOR DP. IF SO, GET MINOR PART ONLY.
001276: 41,2516           30146                           CA       NNADTEM
001277: 41,2517           64753                           AD       ONE                                   #  IF NNADTEM = -1, CHANNEL TO BE SPECIFIED
001278: 41,2520           00006                           EXTEND
001279: 41,2521           12533                           BZF      CHANDSP
001280: 41,2522           50140                           INDEX    MIXBR
001281: 41,2523           02523                           TC       +0
001282: 41,2524           02526                           TC       +2                                    #  NORMAL


001284: 41,2525           00001                           TC       L                                     #  MIXED CASE ALREADY HANDLED IN MIXNOUN
001285: 41,2526           03076                           TC       SFRUTNOR
001286: 41,2527           02306                           TC       DPTEST
001287: 41,2530           00001                           TC       L                                     #  NO DP
001288: 41,2531           24145                           INCR     NOUNADD                               #  DP    E+1 INTO NOUNADD FOR MINOR PART.
001289: 41,2532           00001                           TC       L
001290:
001291:
001292: 41,2533           31016        CHANDSP            CA       NOUNCADR
001293: 41,2534           75004                           MASK     LOW9
001294: 41,2535           00006                           EXTEND
001295: 41,2536           50000                           INDEX    A
001296: 41,2537           00000                           READ     0
001297: 41,2540           40000                           CS       A
001298: 41,2541           12420                           TCF      DSPCOM1
001299:
001300:
001301: 41,2542           00147        COMPICK            ADRES    NNTYPTEM
001302: 41,2543           00146                           ADRES    NNADTEM
001303:
001304: 41,2544           50140        GETCOMP            INDEX    MIXBR                                 #  NORMAL                MIXED
001305: 41,2545           32541                           CAF      COMPICK    -1                         #  ADRES NNTYPTEM        ADRES NNADTEM
001306: 41,2546           50000                           INDEX    A
001307: 41,2547           30000                           CA       0                                     #  C(NNTYPTEM)           C(NNADTEM)
001308: 41,2550           74350                           MASK     HI5                                   #  GET HI5 OF NNTYPTAB(NORM)OF NNADTAB(MIX)
001309: 41,2551           00002                           TC       Q
001310:
001311:
001312: 41,2552           02544        DECDSP             TC       GETCOMP
001313: 41,2553           04331                           TC       LEFT5
001314: 41,2554           76257                           MASK     THREE
001315: 41,2555           54117                           TS       DECOUNT                               #  COMP NUMBER INTO DECOUNT
001316: 41,2556           54122        DSPDCGET           TS       DECTEM                                #  PICKS UP DATA
001317: 41,2557           60145                           AD       NOUNADD                               #  DECTEM  1COMP +0, 2COMP +1, 3COMP +2
001318: 41,2560           50000                           INDEX    A
001319: 41,2561           40000                           CS       0
001320: 41,2562           50122                           INDEX    DECTEM
001321: 41,2563           57002                           XCH      XREG                                  #  CANT USE BUF SINCE DMP USES IT.
001322: 41,2564           10122                           CCS      DECTEM
001323: 41,2565           02556                           TC       DSPDCGET                              #  MORE TO GET
001324: 41,2566           34755        DSPDCPUT           CAF      ZERO                                  #  DISPLAYS DATA
001325: 41,2567           54155                           TS       MPAC       +1                         #  DECOUNT 1COMP +0, 2COMP +1, 3COMP +2
001326: 41,2570           54156                           TS       MPAC       +2
001327: 41,2571           50117                           INDEX    DECOUNT
001328: 41,2572           34317                           CAF      R1D1
001329: 41,2573           54776                           TS       DSPCOUNT
001330: 41,2574           50117                           INDEX    DECOUNT
001331: 41,2575           41002                           CS       XREG
001332: 41,2576           54154                           TS       MPAC
001333: 41,2577           03117                           TC       SFCONUM                               #  2X( SF CON NUMB ) IN A


001335: 41,2600           54123                           TS       SFTEMP1
001336: 41,2601           00006                           EXTEND                                         #  SWITCH BANKS TO SF CONSTANT TABLE
001337: 41,2602           32614                           DCA      GTSFOUTL                              #     READING ROUTINE.
001338: 41,2603           52006                           DXCH     Z                                     #  LOADS SFTEMP1, SFTEMP2.
001339: 41,2604           50140                           INDEX    MIXBR
001340: 41,2605           02605                           TC       +0
001341: 41,2606           02611                           TC       DSPSFNOR
001342: 41,2607           03104                           TC       SFRUTMIX
001343: 41,2610           02624                           TC       DECDSP3
001344:
001345: 41,2611           03076        DSPSFNOR           TC       SFRUTNOR
001346: 41,2612           02624                           TC       DECDSP3
001347:
001348: 41,2613     0776                                  EBANK=   DSPCOUNT
001349: 41,2613           02137 64101  GTSFOUTL           2CADR    GTSFOUT
001350:
001351:
001352:
001353: 41,2615           04616        DSPDCEND           TC       BANKCALL                              #  ALL SFOUT ROUTINES END HERE
001354: 41,2616           61263                           CADR     DSPDECWD
001355: 41,2617           10117                           CCS      DECOUNT
001356: 41,2620           02622                           TC       +2
001357: 41,2621           00136                           TC       ENTEXIT
001358: 41,2622           54117                           TS       DECOUNT
001359: 41,2623           02566                           TC       DSPDCPUT                              #  MORE TO DISPLAY
001360:
001361:
001362: 41,2624           50000        DECDSP3            INDEX    A
001363: 41,2625           32627                           CAF      SFOUTABR
001364: 41,2626           04640                           TC       BANKJUMP
001365:
001366: 41,2627           61447        SFOUTABR           CADR     PREDSPAL                              #  ALARM IF DEC DISP WITH OCTAL ONLY NOUN
001367: 41,2630           62615                           CADR     DSPDCEND
001368: 41,2631           60604                           CADR     DEGOUTSF
001369: 41,2632           60726                           CADR     ARTOUTSF
001370: 41,2633           60737                           CADR     DP1OUTSF
001371: 41,2634           60744                           CADR     DP2OUTSF
001372: 41,2635           60624                           CADR     LRPOSOUT
001373: 41,2636           60746                           CADR     DP3OUTSF
001374: 41,2637           65236                           CADR     HMSOUT
001375: 41,2640           65311                           CADR     M/SOUT
001376: 41,2641           60744                           CADR     DP2OUTSF
001377: 41,2642           60733                           CADR     AROUT1SF
001378: 41,2643           60761                           CADR     2INTOUT
001379: 41,2644           60612                           CADR     360-CDUO
001380: 41,2645           60634                           CADR     RRANGOUT
001381: 41,2646           60651                           CADR     RRDOTOUT
001382: 41,2647                        ENDRTOUT           EQUALS
001383:


001385:                                                                                                  #          THE FOLLOWING IS ATYPICAL SF ROUTINE . IT USES MPAC. LEAVES RESU
001386:                                                                                                  #  LTS IN MPAC, MPAC+1. ENDS WITH TC DSPDCEND
001387:
001388:
001389: 40,2604                                           SETLOC   BLANKCON   +1
001390:
001391: 40,2604                                           COUNT*   $$/PIN
001392:                                                                                                  #     DEGOUTSF SCALES BY .18 THE LOW 14 BITS OF ANGLE , ADDING .18 FOR
001393:                                                                                                  #  NUMBERS IN THE NEGATIVE (AGC) RANGE.
001394:
001395: 40,2604           34755        DEGOUTSF           CAF      ZERO
001396: 40,2605           54156                           TS       MPAC       +2                         #  SET INDEX FOR FULL SCALE
001397: 40,2606           02701                           TC       FIXRANGE
001398: 40,2607           02611                           TC       +2                                    #  NO AUGMENT NEEDED (SFTEMP1 AND 2 ARE 0)
001399: 40,2610           02674                           TC       SETAUG                                #  SET AUGMENTER ACCORDING TO C(MPAC +2)
001400: 40,2611           02712                           TC       DEGCOM
001401:
001402:                                                                                                  #  360-CDUO COMPUTES 360 - CDU ANGLE IN MPAC, STORES RESULT IN MPAC AND
001403:                                                                                                  #  GOES TO DEGOUTSF.
001404:
001405: 40,2612           02614        360-CDUO           TC       360-CDU
001406: 40,2613           02604                           TC       DEGOUTSF
001407:
001408: 40,2614           30154        360-CDU            CA       MPAC
001409: 40,2615           74733                           MASK     POSMAX                                #  IF ANGLE IS 0 OR 180 DEGREES, DO NOTHING
001410: 40,2616           00006                           EXTEND
001411: 40,2617           12623                           BZF      360-CDUE
001412: 40,2620           40154                           CS       MPAC                                  #  COMPUTE 360 DEGREES MINUS ANGLE
001413: 40,2621           64753                           AD       ONE
001414: 40,2622           54154                           TS       MPAC
001415: 40,2623           00002        360-CDUE           TC       Q
001416:
001417:                                                                                                  #  LRPOSOUT DISPLAYS +0,1,2,OR 3 (WHOLE) FOR CHANNEL 33,BITS 7-6 = 11,10,
001418:                                                                                                  #  01,00 RESPECTIVELY.
001419:
001420: 40,2624           00006        LRPOSOUT           EXTEND
001421: 40,2625           00033                           READ     CHAN33
001422: 40,2626           00006                           EXTEND
001423: 40,2627           74742                           MP       BIT10                                 #  BITS 7-6 TO BITS 2-1
001424: 40,2630           40000                           COM
001425: 40,2631           76257                           MASK     THREE
001426: 40,2632           54154                           TS       MPAC
001427: 40,2633           02726                           TC       ARTOUTSF                              #  DISPLAY AS WHOLE
001428:
001429:                                                                                                  #  RRANGOUT AND RRDOTOUT CONVERT RR RANGE AND RANGE RATE FROM SP 15 BIT
001430:                                                                                                  #  MAGNITUDE TO DP AND THEN SCALE FOR DISPLAY.
001431:
001432: 40,2634           02664        RRANGOUT           TC       RRSPTODP                              #  CONVERT TO DP.
001433: 40,2635           40110                           CS       RADMODES                              #  BIT 3 OF FLAG12 = HI SCALE
001434: 40,2636           74751                           MASK     BIT3


001436: 40,2637           10000                           CCS      A
001437: 40,2640           02646                           TC       SCALELO                               #  DATA IS IN LO SCALE.
001438: 40,2641           52155                           DXCH     MPAC                                  #  DATA IS IN HI SCALE, MP BY 8.
001439: 40,2642           20001                           DAS      A
001440: 40,2643           20001                           DAS      A
001441: 40,2644           20001                           DAS      A
001442: 40,2645           52155                           DXCH     MPAC
001443: 40,2646           07115        SCALELO            TC       DMP                                   #  SCALE FOR DISPLAY,
001444: 40,2647           00123                           ADRES    SFTEMP1
001445: 40,2650           02740                           TC       L14/OUT                               #  AND GO TO ARITHDP1.
001446:
001447: 40,2651           02664        RRDOTOUT           TC       RRSPTODP                              #  CONVERT TO DP.
001448: 40,2652           00006                           EXTEND
001449: 40,2653           42663                           DCS      BIASRDOT                              #  SUBTRACT BIAS OF 17000 COUNTS.
001450: 40,2654           20155                           DAS      MPAC
001451: 40,2655           34363                           CAF      TEN                                   #  MULTIPLY DATA BY TEN TO DISPLAY TENTHS
001452: 40,2656           07321                           TC       SHORTMP                               #    FPS - (ATTEMPT TO MULTIPLY DISPLAY
001453: 40,2657           52156                           DXCH     MPAC       +1                         #           SF BY TEN PRODUCED SF GREATER
001454: 40,2660           52155                           DXCH     MPAC                                  #           THAN 16383)
001455: 40,2661           02646                           TC       SCALELO                               #  SCALE FOR DISPLAY.
001456: 40,2662           00001 01150  BIASRDOT           2DEC     17000      B-28
001457:
001458:
001459: 40,2664           34733        RRSPTODP           CAF      POSMAX                                #  CONVERT SP 15 BIT MAG TO DP.
001460: 40,2665           70154                           MASK     MPAC
001461: 40,2666           54155                           TS       MPAC       +1
001462: 40,2667           30154                           CA       MPAC
001463: 40,2670           60000                           DOUBLE
001464: 40,2671           74753                           MASK     BIT1
001465: 40,2672           54154                           TS       MPAC
001466: 40,2673           00002                           TC       Q
001467:
001468: 40,2674           00006        SETAUG             EXTEND                                         #  LOADS SFTEMP1 AND SFTEMP2 WITH THE
001469: 40,2675           50156                           INDEX    MPAC       +2                         #  DP AUGMENTER CONSTANT
001470: 40,2676           32723                           DCA      DEGTAB
001471: 40,2677           52124                           DXCH     SFTEMP1
001472: 40,2700           00002                           TC       Q
001473:
001474: 40,2701           10154        FIXRANGE           CCS      MPAC                                  #  IF MPAC IS + RETURN TO L+1
001475: 40,2702           00002                           TC       Q                                     #  IF MPAC IS - RETURN TO L+2 AFTER
001476: 40,2703           00002                           TC       Q                                     #  MASKING OUT THE SIGN BIT
001477: 40,2704           12705                           TCF      +1
001478: 40,2705           44735                           CS       BIT15
001479: 40,2706           70154                           MASK     MPAC
001480: 40,2707           54154                           TS       MPAC
001481: 40,2710           50002                           INDEX    Q
001482: 40,2711           00001                           TC       1
001483:
001484: 40,2712           00006        DEGCOM             EXTEND                                         #  LOADS MULTIPLIER , DOES SHORTMP, AND
001485: 40,2713           50156                           INDEX    MPAC       +2                         #  ADDS AUGMENTER.


001487: 40,2714           32723                           DCA      DEGTAB
001488: 40,2715           52155                           DXCH     MPAC                                  #  ADJUSTED ANGLE IN A
001489: 40,2716           07321                           TC       SHORTMP
001490: 40,2717           52124                           DXCH     SFTEMP1
001491: 40,2720           20155                           DAS      MPAC
001492: 40,2721           02731                           TC       SCOUTEND
001493:
001494:
001495: 40,2722           05605        DEGTAB             OCT      05605                                 #  HI PART OF     .18
001496: 40,2723           03656                           OCT      03656                                 #  LOW PART OF    .18
001497: 40,2724           16314                           OCT      16314                                 #  HI PART OF     .45
001498: 40,2725           31463                           OCT      31463                                 #  LO PART OF     .45
001499:
001500: 40,2726           52124        ARTOUTSF           DXCH     SFTEMP1                               #  ASSUMES POINT AT LEFT OF DP SFCON
001501: 40,2727           52155                           DXCH     MPAC
001502: 40,2730           04415                           TC       PRSHRTMP                              #  IF C(A) = -0, SHORTMP FAILS TO GIVE -0.
001503: 40,2731           04635        SCOUTEND           TC       POSTJUMP
001504: 40,2732           62615                           CADR     DSPDCEND
001505:
001506: 40,2733           52124        AROUT1SF           DXCH     SFTEMP1                               #  ASSUMES POINT BETWEEN HI AND LO PARTS OF
001507: 40,2734           52155                           DXCH     MPAC                                  #  DP SFCON. SHIFTS RESULTS LEFT 14, BY
001508: 40,2735           04415                           TC       PRSHRTMP                              #  TAKING RESULTS FROM MPAC+1, MPAC+2.
001509: 40,2736           02740                           TC       L14/OUT
001510:
001511:
001512: 40,2737           02752        DP1OUTSF           TC       DPOUT                                 #  SCALES MPAC, MPAC +1 BY DP SCALE FACTOR
001513: 40,2740           56156        L14/OUT            XCH      MPAC       +2                         #  IN SFTEMP1, SFTEMP2. THEN SCALE RESULT
001514: 40,2741           56155                           XCH      MPAC       +1                         #  BY B14.
001515: 40,2742           54154                           TS       MPAC
001516: 40,2743           02731                           TC       SCOUTEND
001517:
001518:
001519: 40,2744           02752        DP2OUTSF           TC       DPOUT                                 #  SCALES MPAC , MPAC +1 BY DP SCALE FACTOR
001520: 40,2745           02731                           TC       SCOUTEND
001521:
001522:
001523: 40,2746           02752        DP3OUTSF           TC       DPOUT                                 #  ASSUMES POINT BETWEEN BITS 7-8 OF HIGH
001524: 40,2747           36254                           CAF      SIX                                   #  LEFT BY 7, ROUNDS MPAC+2 INTO MPAC+1.
001525: 40,2750           03210                           TC       TPLEFTN                               #  SHIFT LEFT 7.
001526: 40,2751           02731                           TC       SCOUTEND
001527:
001528:
001529: 40,2752     0162               MPAC+6             =        MPAC       +6                         #  USE MPAC +6 INSTEAD OF OVFIND
001530:
001531: 40,2752           56002        DPOUT              XCH      Q
001532: 40,2753           54162                           TS       MPAC+6
001533: 40,2754           03004                           TC       READLO                                #  GET FRESH DATA FOR BOTH HI AND LO.
001534: 40,2755           07271                           TC       TPAGREE                               #  MAKE DP DATA AGREE
001535: 40,2756           07115                           TC       DMP
001536: 40,2757           00123                           ADRES    SFTEMP1


001538: 40,2760           00162                           TC       MPAC+6
001539:                                                                                                  #  THE FOLLOWING ROUTINE DISPLAYS TWO CONTIGUOUS SP POSITIVE INTEGERS
001540:                                                                                                  #  AS TWO POSITIVE DECIMAL INTEGERS IN RXD1-RXD2 AND RXD4-RXD5 (RXD3 IS
001541:                                                                                                  #  BLANKED). THE INTEGER IN THE LOWER NUMBERED ADDRESS IS DISPLAYED IN
001542:                                                                                                  #  RXD1-RXD2.
001543:
001544: 40,2761           02525        2INTOUT            TC       5BLANK                                #  TO BLANK RXD3
001545: 40,2762           40154                           CS       MPAC                                  #  FIRST TURN ON THE APPROPRIATE SIGN
001546: 40,2763           00006                           EXTEND
001547: 40,2764           62770                           BZMF     +4
001548: 40,2765           02422                           TC       -ON
001549: 40,2766           40154                           CS       MPAC
001550: 40,2767           12772                           TCF      +3
001551: 40,2770           02402                 +4        TC       +ON
001552: 40,2771           30154                           CA       MPAC
001553: 40,2772           03337                 +3        TC       DSPDECVN
001554: 40,2773           46257                           CS       THREE
001555: 40,2774           50117                           INDEX    DECOUNT
001556: 40,2775           64317                           AD       R1D1                                  #  RXD4
001557: 40,2776           54776                           TS       DSPCOUNT
001558: 40,2777           03004                           TC       READLO                                #  GET 2ND INTEGER
001559: 40,3000           30155                           CA       MPAC       +1
001560: 40,3001           03337                           TC       DSPDECVN                              #  DISPLAY 2ND INTEGER (LIKE VERB AND NOUN)
001561: 40,3002           04635                           TC       POSTJUMP
001562: 40,3003           62617                           CADR     DSPDCEND   +2
001563:
001564:
001565:                                                                                                  #  READLO PICKS UP FRESH DATA FOR BOTH HI AND LO AND LEAVES IT IN
001566:                                                                                                  #  MPAC, MPAC+1. THIS IS NEEDED FOR TIME DISPLAY. IT ZEROES MPAC+2, BUT
001567:                                                                                                  #  DOES NOT FORCE TPAGREE.
001568:
001569: 40,3004           56002        READLO             XCH      Q
001570: 40,3005           54144                           TS       TEM4
001571: 40,3006           50140                           INDEX    MIXBR
001572: 40,3007           03007                           TC       +0
001573: 40,3010           03024                           TC       RDLONOR
001574: 40,3011           50117                           INDEX    DECOUNT
001575: 40,3012           30150                           CA       IDAD1TEM                              #  GET IDADDTAB ENTRY FOR COMP K OF NOUN.
001576: 40,3013           74356                           MASK     LOW11                                 #  E SUBK
001577: 40,3014           04313                           TC       SETEBANK                              #  SET EB, LEAVE EADRES IN A.
001578: 40,3015           00006        READLO1            EXTEND                                         #  MIXED         NORMAL
001579: 40,3016           50000                           INDEX    A                                     #  C(ESUBK)      C(E)
001580: 40,3017           30001                           DCA      0                                     #  C((E SUBK)+1)      C(E+1)
001581: 40,3020           52155                           DXCH     MPAC
001582: 40,3021           34755                           CAF      ZERO
001583: 40,3022           54156                           TS       MPAC       +2
001584: 40,3023           00144                           TC       TEM4
001585:
001586: 40,3024           30145        RDLONOR            CA       NOUNADD                               #  E
001587: 40,3025           03015        ENDRDLO            TC       READLO1
001588:


001590: 42,3236                                           BANK     42
001591: 42,2000                                           SETLOC   PINBALL3
001592: 42,2000                                           BANK
001593:
001594: 42,3236                                           COUNT*   $$/PIN
001595: 42,3236           04616        HMSOUT             TC       BANKCALL                              #  READ FRESH DATA FOR HI AND LO INTO MPAC,
001596: 42,3237           61004                           CADR     READLO                                #  MPAC+1.
001597: 42,3240           07271                           TC       TPAGREE                               #  MAKE DP DATA AGREE
001598: 42,3241           03425                           TC       SEPSECNR                              #  LEAVE FRACT SEC/60 IN MPAC, MPAC+1.LEAVE
001599:                                                                                                  #  WHOLE MIN IN BIT13 OF LOTEMOUT AND ABOVE
001600: 42,3242           07115                           TC       DMP                                   #  USE ONLY FRACT SEC/60 MOD 60
001601: 42,3243           03277                           ADRES    SECON2                                #  MULT BY .06
001602: 42,3244           34321                           CAF      R3D1                                  #  GIVES CENTI-SEC/10EXP5 MOD 60
001603: 42,3245           54776                           TS       DSPCOUNT
001604: 42,3246           04616                           TC       BANKCALL                              #  DISPLAY SEC MOD 60
001605: 42,3247           61263                           CADR     DSPDECWD
001606: 42,3250           03443                           TC       SEPMIN                                #  REMOVE REST OF SECONDS
001607: 42,3251           33301                           CAF      MINCON2                               #  LEAVE FRACT MIN/60 IN MPAC+1. LEAVE
001608: 42,3252           56154                           XCH      MPAC                                  #  WHOLE HOURS IN MPAC.
001609: 42,3253           55006                           TS       HITEMOUT                              #  SAVE WHOLE HOURS.
001610: 42,3254           33302                           CAF      MINCON2    +1
001611: 42,3255           56155                           XCH      MPAC       +1                         #  USE ONLY FRACT MIN/60 MOD 60
001612: 42,3256           04415                           TC       PRSHRTMP                              #  IF C(A) = -0, SHORTMP FAILS TO GIVE -0.
001613:                                                                                                  #  MULT BY .0006
001614: 42,3257           34320                           CAF      R2D1                                  #  GIVES MIN/10EXP5 MOD 60
001615: 42,3260           54776                           TS       DSPCOUNT
001616: 42,3261           04616                           TC       BANKCALL                              #  DISPLAY MIN MOD 60
001617: 42,3262           61263                           CADR     DSPDECWD
001618: 42,3263           00006                           EXTEND                                         #  MINUTES, SECONDS HAVE BEEN REMOVED
001619: 42,3264           33306                           DCA      HRCON1
001620: 42,3265           52155                           DXCH     MPAC
001621: 42,3266           31006                           CA       HITEMOUT                              #  USE WHOLE HOURS
001622: 42,3267           04415                           TC       PRSHRTMP                              #  IF C(A) = -0, SHORTMP FAILS TO GIVE -0.
001623:                                                                                                  #  MULT BY .16384
001624: 42,3270           34317                           CAF      R1D1                                  #  GIVES HOURS/10EXP5
001625: 42,3271           54776                           TS       DSPCOUNT
001626: 42,3272           04616                           TC       BANKCALL                              #  USE REGULAR DSPDECWD, WITH ROUND OFF.
001627: 42,3273           61263                           CADR     DSPDECWD
001628: 42,3274           00136                           TC       ENTEXIT
001629:
001630: 42,3275           25660 31742  SECON1             2DEC*    1.666666666 E-4        B12*            #  2EXP12/6000
001631:
001632: 42,3277           01727        SECON2             OCT      01727                                 #  .06 FOR SECONDS DISPLAY
001633: 42,3300           01217                           OCT      01217
001634: 42,3301           00011        MINCON2            OCT      00011                                 #  .0006 FOR MINUTES DISLPAY
001635: 42,3302           32445                           OCT      32445
001636: 42,3303           02104        MINCON1            OCT      02104                                 #  .066..66 UPPED BY 2EXP-28
001637: 42,3304           10422                           OCT      10422
001638: 42,3305           05174 13261  HRCON1             2DEC     .16384
001639:


001641: 42,3307           00000                           OCT      00000
001642: 42,3310           00062        RNDCON             OCT      00062                                 #  .5 SEC
001643:
001644:
001645: 42,3311           04616        M/SOUT             TC       BANKCALL                              #  READ FRESH DATA FOR HI AND LO INTO MPAC,
001646: 42,3312           61004                           CADR     READLO                                #  MPAC+1.
001647: 42,3313           07271                           TC       TPAGREE                               #  MAKE DP DATA AGREE
001648: 42,3314           10154                           CCS      MPAC                                  #  IF MAG OF (MPAC, MPAC+1) G/ 59 M 59 S,
001649: 42,3315           03317                           TC       +2                                    #  DISPLAY 59B59, WITH PROPER SIGN.
001650: 42,3316           03350                           TC       M/SNORM                               #  MPAC = +0. L/ 59M58.5S
001651: 42,3317           63405                           AD       M/SCON1                               #  - HI PART OF (59M58.5S) +1  FOR CCS
001652: 42,3320           10000                           CCS      A                                     #  MAG OF MPAC - HI PART OF (59M58.5S)
001653: 42,3321           03334                           TC       M/SLIMIT                              #  G/ 59M58.5S
001654: 42,3322           03350                           TC       M/SNORM                               #  ORIGINAL MPAC = -0. L/ 59M58.5S
001655: 42,3323           03350                           TC       M/SNORM                               #  L/ 59M58.5S
001656: 42,3324           10155                           CCS      MPAC       +1                         #  MAG OF MPAC = HI PART OF 59M58.5S
001657: 42,3325           03327                           TC       +2
001658: 42,3326           03350                           TC       M/SNORM                               #  MPAC+1 = +0. L/ 59M58.5S
001659: 42,3327           63406                           AD       M/SCON2                               #  - LO PART OF (59M58.5S) +1  FOR CCS
001660: 42,3330           10000                           CCS      A                                     #  MAG OF MPAC+1 - LO PART OF (59M58.5S)
001661: 42,3331           03334                           TC       M/SLIMIT                              #  G/ 59M58.5S
001662: 42,3332           03350                           TC       M/SNORM                               #  ORIGINAL MPAC+1 = -0. L/ 59M58.5S
001663: 42,3333           03350                           TC       M/SNORM                               #  L/ 59M58.5S
001664: 42,3334           10154        M/SLIMIT           CCS      MPAC                                  #  = 59M58.5S    LIMIT
001665: 42,3335           33410                           CAF      M/SCON3                               #  MPAC CANNOT BE +/- 0 AT THIS POINT.
001666: 42,3336           03345                           TC       +LIMIT                                #  FORCE MPAC, MPAC+1 TO +/- 59M59.5S
001667: 42,3337           43410                           CS       M/SCON3
001668: 42,3340           54154                           TS       MPAC                                  #  WILL DISPLAY 59M59S IN DSPDECNR
001669: 42,3341           43411                           CS       M/SCON3    +1
001670: 42,3342           54155        LIMITCOM           TS       MPAC       +1
001671: 42,3343           33407                           CAF      NORMADR                               #  SET RETURN TO M/SNORM+1.
001672: 42,3344           03426                           TC       SEPSECNR   +1
001673: 42,3345           54154        +LIMIT             TS       MPAC
001674: 42,3346           33411                           CAF      M/SCON3    +1
001675: 42,3347           03342                           TC       LIMITCOM
001676: 42,3350           03412        M/SNORM            TC       SEPSEC                                #  LEAVE FRACT SEC/60 IN MPAC,MPAC+1. LEAVE
001677:                                                                                                  #  WHOLE MIN IN BIT13 OF LOTEMOUT AND ABOVE
001678: 42,3351           33403                           CAF      HISECON                               #  USE ONLY FRACT SEC/60 MOD 60
001679: 42,3352           07321                           TC       SHORTMP                               #  MULT BY .6 + 2EXP-14
001680: 42,3353           46257                           CS       THREE                                 #  GIVES SEC/100 MOD 60
001681: 42,3354           26776                           ADS      DSPCOUNT                              #  DSPCOUNT ALREADY SET TO RXD1
001682: 42,3355           04616                           TC       BANKCALL                              #  DISPLAY SEC MOD 60 IN D4D5.
001683: 42,3356           61317                           CADR     DSPDC2NR
001684: 42,3357           34755                           CAF      ZERO
001685: 42,3360           54124                           TS       CODE
001686: 42,3361           44752                           CS       TWO
001687: 42,3362           50117                           INDEX    DECOUNT
001688: 42,3363           64317                           AD       R1D1                                  #  RXD3
001689: 42,3364           54143                           TS       COUNT
001690: 42,3365           04616                           TC       BANKCALL                              #  BLANK MIDDLE CHAR


001692: 42,3366           61353                           CADR     DSPIN
001693: 42,3367           03443                           TC       SEPMIN                                #  REMOVE REST OF SECONDS
001694: 42,3370           56155                           XCH      MPAC       +1                         #  LEAVE FRACT MIN/60 IN MPAC+1
001695: 42,3371           00006                           EXTEND                                         #  USE ONLY FRACT MIN/60 MOD 60
001696: 42,3372           73404                           MP       HIMINCON                              #  MULT BY .6 + 2EXP-7
001697: 42,3373           52155                           DXCH     MPAC                                  #  GIVES MIN/100 MOD 60
001698: 42,3374           50117                           INDEX    DECOUNT
001699: 42,3375           34317                           CAF      R1D1                                  #  RXD1
001700: 42,3376           54776                           TS       DSPCOUNT
001701: 42,3377           04616                           TC       BANKCALL                              #  DISPLAY MIN MOD 60 IN D1D2.
001702: 42,3400           61317                           CADR     DSPDC2NR
001703: 42,3401           04635                           TC       POSTJUMP
001704: 42,3402           62617                           CADR     DSPDCEND   +2
001705:
001706: 42,3403           23147        HISECON            OCT      23147                                 #  .6 + 2EXP-14
001707: 42,3404           23346        HIMINCON           OCT      23346                                 #  .6 + 2EXP-7
001708:
001709: 42,3405           77753        M/SCON1            OCT      77753                                 #  - HI PART OF (59M58.5S) +1
001710: 42,3406           41126        M/SCON2            OCT      41126                                 #  - LO PART OF (59M58.5S) +1
001711: 42,3407           03351        NORMADR            ADRES    M/SNORM    +1
001712: 42,3410           00025        M/SCON3            OCT      00025                                 #  59M 59.5S
001713: 42,3411           37016                           OCT      37016
001714:
001715:
001716: 42,3412           10155        SEPSEC             CCS      MPAC       +1                         #  IF +, ROUND BY ADDING .5 SEC
001717: 42,3413           13422                           TCF      POSEC                                 #  IF -, ROUND BY SUBTRACTING .5 SEC
001718: 42,3414           13422                           TCF      POSEC                                 #  FINDS TIME IN MPAC, MPAC+1
001719: 42,3415           13416                           TCF      +1                                    #  ROUNDS OFF BY +/- .5 SEC
001720: 42,3416           00006                           EXTEND                                         #  LEAVES WHOLE MIN IN BIT13 OF
001721: 42,3417           43310                           DCS      RNDCON     -1                         #  LOTEMOUT AND ABOVE.
001722: 42,3420           20155        SEPSEC1            DAS      MPAC                                  #  LEAVES FRACT SEC/60 IN MPAC, MPAC+1.
001723: 42,3421           13425                           TCF      SEPSECNR
001724: 42,3422           00006        POSEC              EXTEND
001725: 42,3423           33310                           DCA      RNDCON     -1
001726: 42,3424           13420                           TCF      SEPSEC1
001727: 42,3425           56002        SEPSECNR           XCH      Q                                     #  THIS ENTRY AVOIDS ROUNDING BY .5 SEC
001728: 42,3426           54144                           TS       SEPSCRET
001729: 42,3427           07115                           TC       DMP                                   #  MULT BY 2EXP12/6000
001730: 42,3430           03275                           ADRES    SECON1                                #  GIVES FRACT SEC/60 IN BIT12 OF MPAC+1
001731: 42,3431           00006                           EXTEND                                         #  AND BELOW.
001732: 42,3432           30155                           DCA      MPAC                                  #  SAVE MINUTES AND HOURS
001733: 42,3433           53007                           DXCH     HITEMOUT
001734: 42,3434           04404                           TC       TPSL1
001735: 42,3435           04404                           TC       TPSL1                                 #  GIVES FRACT SEC/60 IN MPAC+1, MPAC+2.
001736: 42,3436           34755                           CAF      ZERO
001737: 42,3437           56156                           XCH      MPAC       +2                         #  LEAVE FRACT SEC/60 IN MPAC, MPAC+1.
001738: 42,3440           56155                           XCH      MPAC       +1
001739: 42,3441           56154                           XCH      MPAC
001740: 42,3442           00144                           TC       SEPSCRET
001741:


001743: 42,3443           56002        SEPMIN             XCH      Q                                     #  FINDS WHOLE MINUTES IN BIT13
001744: 42,3444           54144                           TS       SEPMNRET                              #  OF LOTEMOUT AND ABOVE.
001745: 42,3445           31007                           CA       LOTEMOUT                              #  REMOVES REST OF SECONDS.
001746: 42,3446           00006                           EXTEND                                         #  LEAVES FRACT MIN/60 IN MPAC+1.
001747: 42,3447           74751                           MP       BIT3                                  #  LEAVES WHOLE HOURS IN MPAC.
001748: 42,3450           00006                           EXTEND                                         #  SR 12, THROW AWAY LP.
001749: 42,3451           74737                           MP       BIT13                                 #  SR 2, TAKE FROM LP. = SL 12.
001750: 42,3452           22155                           LXCH     MPAC       +1                         #  THIS FORCES BITS 12-1 TO 0 IF +,
001751:                                                                                                  #  FORCES BITS 12-1 TO 1 IF -.
001752: 42,3453           31006                           CA       HITEMOUT
001753: 42,3454           54154                           TS       MPAC
001754: 42,3455           07115                           TC       DMP                                   #  MULT BY 1/15
001755: 42,3456           03303                           ADRES    MINCON1                               #  GIVES FRACT MIN/60 IN MPAC+1.
001756: 42,3457           00144        ENDSPMIN           TC       SEPMNRET                              #  GIVES WHOLE HOURS IN MPAC.
001757:
001758:
001759:                                                                                                  #  THIS IS A SPECIAL PURPOSE VERB FOR DISPLAYING A DOUBLE PRECISION AGC
001760:                                                                                                  #  WORD AS 10 DECIMAL DIGITS ON THE AGC DISPLAY PANEL.  IT CAN BE USED WITH
001761:                                                                                                  #  ANY NOUN, EXCEPT MIXED NOUNS. IT DISPLAYS THE CONTENTS
001762:                                                                                                  #  OF THE REGISTER NOUNADD IS POINTING TO .  IF USED WITH NOUNS WHICH ARE
001763:                                                                                                  #  INHERENTLY NOT DP SUCH AS THE CDU COUNTERS THE DISPLAY WILL BE GARBAGE.
001764:                                                                                                  #  DISPLAY IS IN R1 AND R2 ONLY WITH THE SIGN IN R1.
001765:
001766:
001767: 40,3026                                           SETLOC   ENDRDLO    +1
001768:
001769: 40,3026                                           COUNT*   $$/PIN
001770: 40,3026           50140        DSPDPDEC           INDEX    MIXBR
001771: 40,3027           03027                           TC       +0
001772: 40,3030           03032                           TC       +2                                    #  NORMAL NOUN
001773: 40,3031           03451                           TC       DSPALARM
001774: 40,3032           00006                           EXTEND
001775: 40,3033           50145                           INDEX    NOUNADD
001776: 40,3034           30001                           DCA      0
001777: 40,3035           52155                           DXCH     MPAC
001778: 40,3036           34317                           CAF      R1D1
001779: 40,3037           54776                           TS       DSPCOUNT
001780: 40,3040           34755                           CAF      ZERO
001781: 40,3041           54156                           TS       MPAC       +2
001782: 40,3042           07271                           TC       TPAGREE
001783: 40,3043           03324                           TC       DSP2DEC
001784: 40,3044           00136        ENDDPDEC           TC       ENTEXIT
001785:


001787:                                                                                                  #  LOAD VERBS           IF ALARM CONDITION IS DETECTED DURING EXECUTE,
001788:                                                                                                  #  CHECK FAIL LIGHT IS TURNED ON AND ENDOFJOB. IF ALARM CONDITION IS
001789:                                                                                                  #  DETECTED DURING ENTER OF DATA, CHECK FAIL IS TURNED ON AND IT RECYCLES
001790:                                                                                                  #  TO EXECUTE  OF ORIGINAL LOAD VERB. RECYCLE CAUSED BY  1) DECIMAL MACHINE
001791:                                                                                                  #  CADR  2) MIXTURE OF OCTAL/DECIMAL DATA  3) OCTAL DATA INTO DECIMAL
001792:                                                                                                  #  ONLY NOUN  4) DEC DATA INTO OCT ONLY NOUN  5) DATA TOO LARGE FOR SCALE
001793:                                                                                                  #  6) FEWER THAN 3 DATA WORDS LOADED FOR HRS, MIN, SEC NOUN.8(2)-(6) ALARM
001794:                                                                                                  #  AND RECYCLE OCCUR AT FINAL ENTER OF SET. (1) ALARM AND RECYCLE OCCUR AT
001795:                                                                                                  #  ENTER OF CADR.
001796:
001797:
001798: 41,2647                                           SETLOC   ENDRTOUT
001799:
001800: 41,2647                                           COUNT*   $$/PIN
001801: 41,2647           44752        ABCLOAD            CS       TWO
001802: 41,2650           02453                           TC       COMPTEST
001803: 41,2651           02507                           TC       NOUNTEST                              #  TEST IF NOUN CAN BE LOADED.
001804: 41,2652           33056                           CAF      VBSP1LD
001805: 41,2653           02366                           TC       UPDATVB    -1
001806: 41,2654           02332                           TC       REQDATX
001807: 41,2655           33057                           CAF      VBSP2LD
001808: 41,2656           02366                           TC       UPDATVB    -1
001809: 41,2657           02334                           TC       REQDATY
001810: 41,2660           33060                           CAF      VBSP3LD
001811: 41,2661           02366                           TC       UPDATVB    -1
001812: 41,2662           02336                           TC       REQDATZ
001813:
001814:
001815: 41,2663           46254        PUTXYZ             CS       SIX                                   #  TEST THAT THE 3 DATA WORDS LOADED ARE
001816: 41,2664           03061                           TC       ALLDC/OC                              #  ALL DEC OR ALL OCT.
001817: 41,2665           00006                           EXTEND
001818: 41,2666           32141                           DCA      LODNNLOC                              #  SWITCH BANKS TO NOUN TABLE READING
001819: 41,2667           52006                           DXCH     Z                                     #  ROUTINE.
001820: 41,2670           34755                           CAF      ZERO                                  #  X COMP
001821: 41,2671           03145                           TC       PUTCOM
001822: 41,2672           50145                           INDEX    NOUNADD
001823: 41,2673           54000                           TS       0
001824: 41,2674           34753                           CAF      ONE                                   #  Y COMP
001825: 41,2675           03145                           TC       PUTCOM
001826: 41,2676           50145                           INDEX    NOUNADD
001827: 41,2677           54001                           TS       1
001828: 41,2700           34752                           CAF      TWO                                   #  Z COMP
001829: 41,2701           03145                           TC       PUTCOM
001830: 41,2702           50145                           INDEX    NOUNADD
001831: 41,2703           54002                           TS       2
001832: 41,2704           44757                           CS       SEVEN                                 #  IF NOUN 7 HAS JUST BEEN LOADED, SET
001833: 41,2705           61001                           AD       NOUNREG                               #   FLAG BITS AS SPECIFIED.
001834: 41,2706           00006                           EXTEND
001835: 41,2707           12711                           BZF      +2
001836: 41,2710           03045                           TC       LOADLV


001838: 41,2711           00004                           INHINT
001839: 41,2712           44763                           CS       OCT30                                 #  IS IT A CHANNEL (30 OR UNDER)
001840: 41,2713           61002                           AD       XREG
001841: 41,2714           00006                           EXTEND
001842: 41,2715           62725                           BZMF     CHANBITS                              #  YES
001843:
001844: 41,2716           31002                           CA       XREG                                  #  ECADR OF ERASABLE CELL
001845: 41,2717           04304                           TC       SETNCADR   +1                         #  SET EBANK, NOUNADD
001846:
001847: 41,2720           50145                           INDEX    NOUNADD
001848: 41,2721           30000                           CA       0
001849: 41,2722           54001                           TS       L
001850: 41,2723           34753                           CAF      ONE
001851: 41,2724           55002                           TS       XREG                                  #  MAKE IT LOOK LIKE A CHANNEL FOR A WHILE
001852:
001853: 41,2725           64361        CHANBITS           AD       OCT21
001854: 41,2726           00006                           EXTEND
001855: 41,2727           12751                           BZF      BITSOFF2                              #  DONT TOUCH CHAN7 (SUPERBANK)
001856:
001857: 41,2730           31004                           CA       ZREG
001858: 41,2731           00006                           EXTEND
001859: 41,2732           62740                           BZMF     BITSOFF                               #  R3 IS ZERO FOR OFF, NONZERO FOR ON
001860:
001861: 41,2733           31003                           CA       YREG
001862: 41,2734           00006                           EXTEND
001863: 41,2735           51002                           INDEX    XREG
001864: 41,2736           05000                           WOR      0
001865: 41,2737           12744                           TCF      BITSOFF1
001866:
001867: 41,2740           41003        BITSOFF            CS       YREG
001868: 41,2741           00006                           EXTEND
001869: 41,2742           51002                           INDEX    XREG
001870: 41,2743           03000                           WAND     0
001871:
001872: 41,2744           11002        BITSOFF1           CCS      XREG                                  #  WAS IT REALLY A CHANNEL
001873: 41,2745           10000                           CCS      A
001874: 41,2746           12751                           TCF      BITSOFF2                              #  YES
001875:
001876: 41,2747           50145                           INDEX    NOUNADD
001877: 41,2750           22000                           LXCH     0
001878:
001879: 41,2751           00003        BITSOFF2           RELINT
001880: 41,2752           03045                           TC       LOADLV
001881:
001882: 41,2753     4763               OCT30              =        BITS4&5
001883: 41,2753           44753        ABLOAD             CS       ONE
001884: 41,2754           02453                           TC       COMPTEST
001885: 41,2755           02507                           TC       NOUNTEST                              #  TEST IF NOUN CAN BE LOADED.
001886: 41,2756           33056                           CAF      VBSP1LD
001887: 41,2757           02366                           TC       UPDATVB    -1


001889: 41,2760           02332                           TC       REQDATX
001890: 41,2761           33057                           CAF      VBSP2LD
001891: 41,2762           02366                           TC       UPDATVB    -1
001892: 41,2763           02334                           TC       REQDATY
001893: 41,2764           44756        PUTXY              CS       FIVE                                  #  TEST THAT THE 2 DATA WORDS LOADED ARE
001894: 41,2765           03061                           TC       ALLDC/OC                              #  ALL DEC OR ALL OCT.
001895: 41,2766           00006                           EXTEND
001896: 41,2767           32141                           DCA      LODNNLOC                              #  SWITCH BANKS TO NOUN TABLE READING
001897: 41,2770           52006                           DXCH     Z                                     #  ROUTINE.
001898: 41,2771           34755                           CAF      ZERO                                  #  X COMP
001899: 41,2772           03145                           TC       PUTCOM
001900: 41,2773           50145                           INDEX    NOUNADD
001901: 41,2774           54000                           TS       0
001902: 41,2775           34753                           CAF      ONE                                   #  Y COMP
001903: 41,2776           03145                           TC       PUTCOM
001904: 41,2777           50145                           INDEX    NOUNADD
001905: 41,3000           54001                           TS       1
001906: 41,3001           03045                           TC       LOADLV
001907:
001908: 41,3002           02332        ALOAD              TC       REQDATX
001909: 41,3003           00006                           EXTEND
001910: 41,3004           32141                           DCA      LODNNLOC                              #  SWITCH BANKS TO NOUN TABLE READING
001911: 41,3005           52006                           DXCH     Z                                     #  ROUTINE.
001912: 41,3006           34755                           CAF      ZERO                                  #  X COMP
001913: 41,3007           03145                           TC       PUTCOM
001914: 41,3010           50145                           INDEX    NOUNADD
001915: 41,3011           54000                           TS       0
001916: 41,3012           03045                           TC       LOADLV
001917:
001918: 41,3013           44753        BLOAD              CS       ONE
001919: 41,3014           02453                           TC       COMPTEST
001920: 41,3015           34735                           CAF      BIT15                                 #  SET CLPASS FOR PASS0 ONLY
001921: 41,3016           55014                           TS       CLPASS
001922: 41,3017           02334                           TC       REQDATY
001923: 41,3020           00006                           EXTEND
001924: 41,3021           32141                           DCA      LODNNLOC                              #  SWITCH BANKS TO NOUN TABLE READING
001925: 41,3022           52006                           DXCH     Z                                     #  ROUTINE.
001926: 41,3023           34753                           CAF      ONE
001927: 41,3024           03145                           TC       PUTCOM
001928: 41,3025           50145                           INDEX    NOUNADD
001929: 41,3026           54001                           TS       1
001930: 41,3027           03045                           TC       LOADLV
001931:
001932: 41,3030           44752        CLOAD              CS       TWO
001933: 41,3031           02453                           TC       COMPTEST
001934: 41,3032           34735                           CAF      BIT15                                 #  SET CLPASS FOR PASS0 ONLY
001935: 41,3033           55014                           TS       CLPASS
001936: 41,3034           02336                           TC       REQDATZ
001937: 41,3035           00006                           EXTEND
001938: 41,3036           32141                           DCA      LODNNLOC                              #  SWITCH BANKS TO NOUN TABLE READING


001940: 41,3037           52006                           DXCH     Z                                     #  ROUTINE.
001941: 41,3040           34752                           CAF      TWO
001942: 41,3041           03145                           TC       PUTCOM
001943: 41,3042           50145                           INDEX    NOUNADD
001944: 41,3043           54002                           TS       2
001945: 41,3044           03045                           TC       LOADLV
001946:
001947: 41,3045           34755        LOADLV             CAF      ZERO
001948: 41,3046           54777                           TS       DECBRNCH
001949: 41,3047           44755                           CS       ZERO
001950: 41,3050           55013                           TS       LOADSTAT
001951: 41,3051           04457                           TC       RELDSP                                #  RELEASE FOR PRIORITY DISPLAY PROBLEM.
001952: 41,3052           44360                           CS       VD1                                   #  TO BLOCK NUMERICAL CHARACTERS AND
001953: 41,3053           54776                           TS       DSPCOUNT                              #  CLEARS AFTER A COMPLETED LOAD
001954: 41,3054           04635                           TC       POSTJUMP                              #  AFTER COMPLETED LOAD, GO TO RECALTST
001955: 41,3055           61607                           CADR     RECALTST                              #  TO SEE IF THERE IS RECALL FROM ENDIDLE.
001956:
001957: 41,3056           00025        VBSP1LD            DEC      21         B-14                       #  VB21 = ALOAD
001958: 41,3057           00026        VBSP2LD            DEC      22         B-14                       #  VB22 = BLOAD
001959: 41,3060           00027        VBSP3LD            DEC      23         B-14                       #  VB23 = CLOAD
001960:
001961:
001962: 41,3061           54117        ALLDC/OC           TS       DECOUNT                               #  TESTS THAT DATA WORDS LOADED ARE EITHER
001963: 41,3062           40777                           CS       DECBRNCH                              #  ALL DEC OR ALL OCT. ALARMS IF NOT.
001964: 41,3063           54021                           TS       SR
001965: 41,3064           40021                           CS       SR
001966: 41,3065           40021                           CS       SR                                    #  SHIFTED RIGHT 2
001967: 41,3066           10000                           CCS      A                                     #  DEC COMP BITS IN LOW 3
001968: 41,3067           13071                           TCF      +2                                    #  SOME ONES IN LOW 3
001969: 41,3070           00002                           TC       Q                                     #  ALL ZEROS. ALL OCTAL.  OK
001970: 41,3071           60117                           AD       DECOUNT                               #  DEC COMP = 7 FOR 3COMP, =6 FOR 2COMP
001971: 41,3072           00006                           EXTEND                                         #  (BUT IT HAS BEEN DECREMENTED BY CCS)
001972: 41,3073           13075                           BZF      +2                                    #  MUST MATCH 6 FOR 3COMP, 5 FOR 2COMP.
001973: 41,3074           04145                           TC       ALMCYCLE                              #  ALARM AND RECYCLE.
001974: 41,3075           00002        GOQ                TC       Q                                     #  ALL REQUIRED ARE DEC. OK
001975:
001976:
001977: 41,3076           56002        SFRUTNOR           XCH      Q                                     #  GETS SF ROUTINE NUMBER FOR NORMAL CASE
001978: 41,3077           54114                           TS       EXITEM                                #  CANT USE L FOR RETURN. TSTFORDP USES L.
001979: 41,3100           34347                           CAF      MID5
001980: 41,3101           70147                           MASK     NNTYPTEM
001981: 41,3102           04322                           TC       RIGHT5
001982: 41,3103           00114                           TC       EXITEM                                #  SF ROUTINE NUMBER IN A
001983:
001984: 41,3104           56002        SFRUTMIX           XCH      Q                                     #  GETS SF ROUTINE NUMBER FOR MIXED CASE
001985: 41,3105           54114                           TS       EXITEM
001986: 41,3106           50117                           INDEX    DECOUNT
001987: 41,3107           33136                           CAF      DISPLACE                              #  PUT TC GOQ, TC RIGHT5, OR TC LEFT5 IN L
001988: 41,3110           54001                           TS       L
001989: 41,3111           50117                           INDEX    DECOUNT


001991: 41,3112           34346                           CAF      LOW5                                  #  LOW5, MID5, OR HI5 IN A
001992: 41,3113           70153                           MASK     RUTMXTEM                              #  GET HI5, MID5, OR LOW5 OF RUTMXTAB ENTRY
001993: 41,3114           50001                           INDEX    L
001994: 41,3115           00000                           TC       0
001995:                                                                                                  #  DO TC GOQ(DECOUNT=0), DO TC RIGHT5(DECOUNT=1), DO TC LEFT5(DECOUNT=2).
001996: 41,3116           00114        SFRET1             TC       EXITEM                                #  SF ROUTINE NUMBER IN A
001997:
001998: 41,3117           56002        SFCONUM            XCH      Q                                     #  GETS 2X( SF CONSTANT NUMBER)
001999: 41,3120           54114                           TS       EXITEM
002000: 41,3121           50140                           INDEX    MIXBR
002001: 41,3122           03122                           TC       +0
002002: 41,3123           03141                           TC       CONUMNOR                              #  NORMAL NOUN
002003: 41,3124           50117                           INDEX    DECOUNT                               #  MIXED NOUN
002004: 41,3125           33136                           CAF      DISPLACE
002005: 41,3126           54001                           TS       L                                     #  PUT TC GOQ, TC RIGHT5, OR TC LEFT5 IN L
002006: 41,3127           50117                           INDEX    DECOUNT
002007: 41,3130           34346                           CAF      LOW5
002008: 41,3131           70147                           MASK     NNTYPTEM
002009: 41,3132           50001                           INDEX    L
002010: 41,3133           00000                           TC       0
002011:                                                                                                  #  DO TC GOQ(DECOUNT=0), DO TC RIGHT5(DECOUNT=1), DO TC LEFT5(DECOUNT=2).
002012: 41,3134           60000        SFRET              DOUBLE                                         #  2X(SF CONSTANT NUMBER ) IN A
002013: 41,3135           00114                           TC       EXITEM
002014:
002015: 41,3136           03075        DISPLACE           TC       GOQ
002016: 41,3137           04322                           TC       RIGHT5
002017: 41,3140           04331                           TC       LEFT5
002018:
002019: 41,3141           34346        CONUMNOR           CAF      LOW5                                  #  NORMAL NOUN ALWAYS GETS LOW 5 OF
002020: 41,3142           70147                           MASK     NNTYPTEM                              #  NNTYPTAB FOR SF CONUM.
002021: 41,3143           60000                           DOUBLE
002022: 41,3144           00114                           TC       EXITEM                                #  2X( SF CONSTANT NUMBER) IN A
002023:
002024:
002025: 41,3145           54117        PUTCOM             TS       DECOUNT
002026: 41,3146           56002                           XCH      Q
002027: 41,3147           54115                           TS       DECRET
002028: 41,3150           34755                           CAF      ZERO
002029: 41,3151           54162                           TS       MPAC+6
002030: 41,3152           50117                           INDEX    DECOUNT
002031: 41,3153           57005                           XCH      XREGLP
002032: 41,3154           54155                           TS       MPAC       +1
002033: 41,3155           50117                           INDEX    DECOUNT
002034: 41,3156           57002                           XCH      XREG
002035: 41,3157           54154                           TS       MPAC
002036: 41,3160           50140                           INDEX    MIXBR
002037: 41,3161           03161                           TC       +0
002038: 41,3162           03207                           TC       PUTNORM                               #  NORMAL NOUN
002039:                                                                                                  #  IF MIXNOUN, PLACE ADDRESS FOR COMPONENT K INTO NOUNADD, SET EBANK BITS.
002040: 41,3163           50117                           INDEX    DECOUNT                               #  GET IDADDTAB ENTRY FOR COMPONENT K


002042: 41,3164           30150                           CA       IDAD1TEM                              #          OF NOUN.
002043: 41,3165           74356                           MASK     LOW11                                 #  (ECADR)SUBK FOR CURRENT COMP OF NOUN
002044: 41,3166           04303                           TC       SETNCADR                              #  ECADR INTO NOUNCADR. SETS EB, NOUNADD.
002045: 41,3167           00006                           EXTEND                                         #  C(NOUNADD) IN A UPON RETURN
002046: 41,3170           60117                           SU       DECOUNT                               #  PLACE (ESUBK)-K INTO NOUNADD
002047: 41,3171           54145                           TS       NOUNADD
002048: 41,3172           10777                           CCS      DECBRNCH
002049: 41,3173           03244                           TC       PUTDECSF                              #  +  DEC
002050: 41,3174           02501                           TC       DCTSTCYC                              #  +0 OCTAL
002051: 41,3175           03104                           TC       SFRUTMIX                              #  TEST IF DEC ONLY BIT = 1. IF SO,
002052: 41,3176           02306                           TC       DPTEST                                #  ALARM AND RECYCLE. IF NOT, CONTINUE.
002053: 41,3177           03225                           TC       PUTCOM2                               #  NO DP
002054:                                                                                                  #  TEST FOR DP SCALE FOR OCT LOAD. IF SO,
002055:                                                                                                  #  +0 INTO MAJOR PART. SET NOUNADD FOR
002056:                                                                                                  #  LOADING OCTAL WORD INTO MINOR PART.
002057: 41,3200           24145        PUTDPCOM           INCR     NOUNADD                               #  DP  (ESUBK)-K+1  OR  E+1
002058: 41,3201           30145                           CA       NOUNADD                               #  NOUNADD NOW SET FOR MINOR PART
002059: 41,3202           26117                           ADS      DECOUNT                               #  (ESUBK)+1  OR  E+1  INTO DECOUNT
002060: 41,3203           34755                           CAF      ZERO                                  #  NOUNADD SET FOR MINOR PART
002061: 41,3204           50117                           INDEX    DECOUNT
002062: 41,3205           53777                           TS       0          -1                         #  ZERO MAJOR PART(ESUBK OR E)
002063: 41,3206           03225                           TC       PUTCOM2
002064:
002065: 41,3207           04311        PUTNORM            TC       SETNADD                               #  ECADR FROM NOUNCADR. SETS EB, NOUNADD.
002066: 41,3210           10777                           CCS      DECBRNCH
002067: 41,3211           03244                           TC       PUTDECSF                              #  +  DEC
002068: 41,3212           02501                           TC       DCTSTCYC                              #  +0 OCTAL
002069: 41,3213           03076                           TC       SFRUTNOR                              #  TEST IF DEC ONLY BIT = 1. IF SO,
002070: 41,3214           02306                           TC       DPTEST                                #  ALARM AND RECYCLE. IF NOT, CONTINUE.
002071: 41,3215           03221                           TC       PUTCOM2    -4                         #  NO DP
002072: 41,3216           34755                           CAF      ZERO                                  #  DP
002073: 41,3217           54117                           TS       DECOUNT
002074: 41,3220           03200                           TC       PUTDPCOM
002075:
002076: 41,3221           30146                           CA       NNADTEM
002077: 41,3222           64753                           AD       ONE                                   #  IF NNADTEM = -1, CHANNEL TO BE SPECIFIED
002078: 41,3223           00006                           EXTEND
002079: 41,3224           13231                           BZF      CHANLOAD
002080: 41,3225           56154        PUTCOM2            XCH      MPAC
002081: 41,3226           00115                           TC       DECRET
002082:
002083: 41,3227     0776                                  EBANK=   DSPCOUNT
002084: 41,3227           02145 64101  GTSFINLC           2CADR    GTSFIN
002085:
002086:
002087:
002088: 41,3231           44757        CHANLOAD           CS       SEVEN                                 #  DONT LOAD CHAN 7. (IT = SUPERBANK).
002089: 41,3232           61016                           AD       NOUNCADR
002090: 41,3233           00006                           EXTEND
002091: 41,3234           13045                           BZF      LOADLV


002093: 41,3235           31016                           CA       NOUNCADR
002094: 41,3236           75004                           MASK     LOW9
002095: 41,3237           56154                           XCH      MPAC
002096: 41,3240           00006                           EXTEND
002097: 41,3241           50154                           INDEX    MPAC
002098: 41,3242           01000                           WRITE    0
002099: 41,3243           03045                           TC       LOADLV
002100:
002101:
002102:                                                                                                  #  PUTDECSF FINDS MIXBR AND DECOUNT STILL SET FROM PUTCOM
002103:
002104: 41,3244           03117        PUTDECSF           TC       SFCONUM                               #  2X(SF CON NUMB) IN A
002105: 41,3245           54123                           TS       SFTEMP1
002106: 41,3246           00006                           EXTEND                                         #  SWITCH BANKS TO SF CONSTANT TABLE
002107: 41,3247           33230                           DCA      GTSFINLC                              #  READING ROUTINE.
002108: 41,3250           52006                           DXCH     Z                                     #  LOADS SFTEMP1, SFTEMP2.
002109: 41,3251           50140                           INDEX    MIXBR
002110: 41,3252           03252                           TC       +0
002111: 41,3253           03256                           TC       PUTSFNOR
002112: 41,3254           03104                           TC       SFRUTMIX
002113: 41,3255           03257                           TC       PUTDCSF2
002114: 41,3256           03076        PUTSFNOR           TC       SFRUTNOR
002115:
002116: 41,3257           50000        PUTDCSF2           INDEX    A
002117: 41,3260           33262                           CAF      SFINTABR
002118: 41,3261           04640                           TC       BANKJUMP                              #  SWITCH BANKS FOR EXPANSHION ROOM
002119: 41,3262           62377        SFINTABR           CADR     GOALMCYC                              #  ALARM AND RECYCLE IF DEC LOAD
002120:                                                                                                  #  WITH OCTAL ONLY NOUN.
002121: 41,3263           61143                           CADR     BINROUND
002122: 41,3264           61045                           CADR     DEGINSF
002123: 41,3265           61133                           CADR     ARTHINSF
002124: 41,3266           61151                           CADR     DPINSF
002125: 41,3267           61176                           CADR     DPINSF2
002126: 41,3270           61451                           CADR     DSPALARM                              #  LRPOSOUT CANT BE LOADED.
002127: 41,3271           61151                           CADR     DPINSF                                #  SAME AS ARITHDP1
002128: 41,3272           65460                           CADR     HMSIN
002129: 41,3273           61451                           CADR     DSPALARM                              #  MIN/SEC CANT BE LOADED.
002130: 41,3274           61203                           CADR     DPINSF4
002131: 41,3275           61146                           CADR     ARTIN1SF
002132: 41,3276           61451                           CADR     DSPALARM                              #  2INTOUT CANT BE LOADED.
002133: 41,3277           61045                           CADR     DEGINSF                               #  TESTS AT END FOR 360-CDU
002134: 41,3300           61451                           CADR     DSPALARM                              #  RRANGOUT CANT BE LOADED.
002135: 41,3301           61451                           CADR     DSPALARM                              #  RRDOTOUT CANT BE LOADED.
002136: 41,3302                        ENDRUTIN           EQUALS
002137:
002138:                                                                                                  #  SCALE FACTORS FOR THOSE ROUTINES NEEDING THEM ARE AVAILABLE IN SFTEMP1.
002139:                                                                                                  #  ALL SFIN ROUTINES USE MPAC MPAC+1. LEAVE RESULT IN A. END WITH TC DECRET
002140:


002142: 40,3045                                           SETLOC   ENDDPDEC   +1
002143:
002144: 40,3045                                           COUNT*   $$/PIN
002145:                                                                                                  #  DEGINSF APPLIES 1000/180 = 5.55555(10) = 5.43434(8)
002146:
002147: 40,3045           07115        DEGINSF            TC       DMP                                   #  SF ROUTINE FOR DEC DEGREES
002148: 40,3046           03131                           ADRES    DEGCON1                               #  MULT BY 5.5  5(10)X2EXP-3
002149: 40,3047           10155                           CCS      MPAC       +1                         #  THIS ROUNDS OFF MPAC+1 BEFORE SHIFT
002150: 40,3050           34741                           CAF      BIT11                                 #  LEFT 3, AND CAUSES 360.00 TO OF/UF
002151: 40,3051           03053                           TC       +2                                    #  WHEN SHIFTED LEFT AND ALARM.
002152: 40,3052           44741                           CS       BIT11
002153: 40,3053           60155                           AD       MPAC       +1
002154: 40,3054           03222                           TC       2ROUND     +2
002155: 40,3055           04404                           TC       TPSL1                                 #  LEFT 1
002156: 40,3056           04404        DEGINSF2           TC       TPSL1                                 #  LEFT 2
002157: 40,3057           03231                           TC       TESTOFUF
002158: 40,3060           04404                           TC       TPSL1                                 #  RETURNS IF NO OF/UF (LEFT3)
002159: 40,3061           10154                           CCS      MPAC
002160: 40,3062           03066                           TC       SIGNFIX                               #  IF+, GO TO SIGNFIX
002161: 40,3063           03066                           TC       SIGNFIX                               #  IF +0, GO TO SIGNFIX
002162: 40,3064           40000                           COM                                            #  IF - , USE -MAGNITUDE +1
002163: 40,3065           54154                           TS       MPAC                                  #  IF -0, USE +0
002164: 40,3066           10162        SIGNFIX            CCS      MPAC+6
002165: 40,3067           03125                           TC       SGNTO1                                #  IF OVERFLOW
002166: 40,3070           03100                           TC       ENDSCALE                              #  NO OVERFLOW/UNDERFLOW
002167: 40,3071           10154                           CCS      MPAC                                  #  IF UF FORCE SIGN TO 0 EXCEPT -180
002168: 40,3072           05706                           TC       CCSHOLE
002169: 40,3073           03123                           TC       NEG180
002170: 40,3074           03075                           TC       +1
002171: 40,3075           56154                           XCH      MPAC
002172: 40,3076           74733                           MASK     POSMAX
002173: 40,3077           54154                           TS       MPAC
002174: 40,3100           50140        ENDSCALE           INDEX    MIXBR                                 #  IF ROUTINE NO. IS NOT CDU DEGREES,
002175: 40,3101           03101                           TC       +0                                    #   THEN THIS IS 360 - CDU DEGREES
002176: 40,3102           03105                           TC       +3                                    #   AND ANGLE IN MPAC MUST BE REPLACED
002177: 40,3103           03115                           TC       SFMIXCAL                              #   BY 360 DEGREES MINUS ITSELF.
002178: 40,3104           03106        MIXBACK            TC       +2
002179: 40,3105           03120                           TC       SFNORCAL
002180: 40,3106           40000        NORBACK            CS       A
002181: 40,3107           64752                           AD       BIT2
002182: 40,3110           00006                           EXTEND
002183: 40,3111           13113                           BZF      +2
002184: 40,3112           02614                           TC       360-CDU
002185: 40,3113           04635        ENDSCAL1           TC       POSTJUMP
002186: 40,3114           63225                           CADR     PUTCOM2
002187:
002188: 40,3115           04616        SFMIXCAL           TC       BANKCALL
002189: 40,3116           63104                           CADR     SFRUTMIX
002190: 40,3117           03104                           TC       MIXBACK
002191:


002193: 40,3120           04616        SFNORCAL           TC       BANKCALL
002194: 40,3121           63076                           CADR     SFRUTNOR
002195: 40,3122           03106                           TC       NORBACK
002196:
002197: 40,3123           44733        NEG180             CS       POSMAX
002198: 40,3124           03077                           TC       ENDSCALE   -1
002199:
002200: 40,3125           40154        SGNTO1             CS       MPAC                                  #  IF OF FORCE SIGN TO 1
002201: 40,3126           74733                           MASK     POSMAX
002202: 40,3127           40000                           CS       A
002203: 40,3130           03077                           TC       ENDSCALE   -1
002204:
002205: 40,3131           26161 30707  DEGCON1            2DEC     5.555555555 B-3
002206:
002207:
002208: 40,3133           07115        ARTHINSF           TC       DMP                                   #  SCALES MPAC, +1 BY SFTEMP1, SFTEMP2.
002209: 40,3134           00123                           ADRES    SFTEMP1                               #  ASSUMES POINT BETWEEN HI AND LO PARTS
002210: 40,3135           56156                           XCH      MPAC       +2                         #  OF SFCON. SHIFTS RESULTS LEFT BY 14.
002211: 40,3136           56155                           XCH      MPAC       +1                         #  (BY TAKING RESULTS FROM MPAC+1, MPAC+2)
002212: 40,3137           56154                           XCH      MPAC
002213: 40,3140           00006                           EXTEND
002214: 40,3141           13143                           BZF      BINROUND
002215: 40,3142           04145                           TC       ALMCYCLE                              #  TOO LARGE A LOAD. ALARM AND RECYCLE.
002216: 40,3143           03220        BINROUND           TC       2ROUND
002217: 40,3144           03231                           TC       TESTOFUF
002218: 40,3145           03113                           TC       ENDSCAL1                              #  RETURNS IF NO OF/UF
002219:
002220: 40,3146           07115        ARTIN1SF           TC       DMP                                   #  SCALES MPAC, +1 BY SFTEMP1, SFTEMP2.
002221: 40,3147           00123                           ADRES    SFTEMP1                               #  ROUNDS MPAC+1 INTO MPAC.
002222: 40,3150           03143                           TC       BINROUND
002223:
002224:
002225: 40,3151           07115        DPINSF             TC       DMP                                   #  SCALES MPAC, MPAC +1 BY SFTEMP1,
002226: 40,3152           00123                           ADRES    SFTEMP1                               #  SFTEMP2.  STORES LOW PART OF RESULT
002227: 40,3153           56156                           XCH      MPAC       +2                         #  IN (E SUBK) +1 OR E+1
002228: 40,3154           60000                           DOUBLE
002229: 40,3155           54156                           TS       MPAC       +2
002230: 40,3156           34755                           CAF      ZERO
002231: 40,3157           60155                           AD       MPAC       +1
002232: 40,3160           03222                           TC       2ROUND     +2
002233: 40,3161           03231                           TC       TESTOFUF
002234: 40,3162           50140                           INDEX    MIXBR                                 #  RETURNS IF NO OF/UF
002235: 40,3163           03163                           TC       +0
002236: 40,3164           03174                           TC       DPINORM
002237: 40,3165           30117                           CA       DECOUNT                               #  MIXEDNOUN
002238: 40,3166           60145        DPINCOM            AD       NOUNADD                               #      MIXED               NORMAL
002239: 40,3167           54002                           TS       Q                                     #    E SUBK            E
002240: 40,3170           56155                           XCH      MPAC       +1
002241: 40,3171           50002                           INDEX    Q
002242: 40,3172           54001                           TS       1                                     #  PLACE LOW PART IN


002244: 40,3173           03113                           TC       ENDSCAL1                              #  (E SUBK) +1    MIXED
002245:
002246: 40,3174           34755        DPINORM            CAF      ZERO                                  #  E +1         NORMAL
002247: 40,3175           03166                           TC       DPINCOM
002248:
002249:
002250: 40,3176           07115        DPINSF2            TC       DMP                                   #  ASSUMES POINT BETWEEN BITS 7-8 OF HIGH
002251: 40,3177           00123                           ADRES    SFTEMP1                               #  PART OF SF CONST. DPINSF2 SHIFTS RESULTS
002252: 40,3200           36254                           CAF      SIX                                   #  LEFT BY 7, ROUNDS MPAC+2 INTO MPAC+1
002253: 40,3201           03210                           TC       TPLEFTN                               #  SHIFT LEFT 7.
002254: 40,3202           03153                           TC       DPINSF     +2
002255:
002256:
002257: 40,3203           07115        DPINSF4            TC       DMP                                   #  ASSUMES POINT BETWEEN BITS 11-12 OF HIGH
002258: 40,3204           00123                           ADRES    SFTEMP1                               #  PART OF SF CONST. DPINSF2 SHIFTS RESULTS
002259: 40,3205           34752                           CAF      TWO                                   #  LEFT BY 3, ROUNDS MPAC+2 INTO MPAC+1.
002260: 40,3206           03210                           TC       TPLEFTN                               #  SHIFT LEFT 3.
002261: 40,3207           03153                           TC       DPINSF     +2
002262:
002263:
002264: 40,3210           56002        TPLEFTN            XCH      Q                                     #  SHIFTS MPAC, +1, +2 LEFT N. SETS OVFIND
002265: 40,3211           54124                           TS       SFTEMP2                               #  TO +1 FOR OF, -1 FOR UF.
002266: 40,3212           56002                           XCH      Q                                     #  CALL WITH N-1 IN A.
002267: 40,3213           54123        LEFTNCOM           TS       SFTEMP1                               #      LOOP TIME .37 MSEC.
002268: 40,3214           04404                           TC       TPSL1
002269: 40,3215           10123                           CCS      SFTEMP1
002270: 40,3216           03213                           TC       LEFTNCOM
002271: 40,3217           00124                           TC       SFTEMP2
002272:
002273:
002274: 40,3220           56155        2ROUND             XCH      MPAC       +1
002275: 40,3221           60000                           DOUBLE
002276: 40,3222           54155                           TS       MPAC       +1
002277: 40,3223           00002                           TC       Q                                     #  IF MPAC+1 DOES NOT OF/UF
002278: 40,3224           60154                           AD       MPAC
002279: 40,3225           54154                           TS       MPAC
002280: 40,3226           00002                           TC       Q                                     #  IF MPAC DOES NOT OF/UF
002281: 40,3227           54162                           TS       MPAC+6
002282: 40,3230           00002        2RNDEND            TC       Q
002283:
002284:
002285: 40,3231           10162        TESTOFUF           CCS      MPAC+6                                #  RETURNS IF NO OF/UF
002286: 40,3232           04145                           TC       ALMCYCLE                              #  OF   ALARM AND RECYCLE.
002287: 40,3233           00002                           TC       Q
002288: 40,3234           04145                           TC       ALMCYCLE                              #  UF   ALARM AND RECYCLE.
002289:
002290:
002291: 42,3460                                           SETLOC   ENDSPMIN   +1
002292:
002293: 42,3460                                           COUNT*   $$/PIN


002295: 42,3460           03601        HMSIN              TC       ALL3DEC                               #  IF ALL 3 WORDS WERE NOT LOADED, ALARM.
002296: 42,3461           07115                           TC       DMP                                   #  XREG, XREGLP (=HOURS) WERE ALREADY PUT
002297: 42,3462           03542                           ADRES    WHOLECON                              #  INTO MPAC, MPAC+1.
002298: 42,3463           03551                           TC       RND/TST                               #  ROUND OFF TO WHOLE HRS IN MPAC+1.
002299: 42,3464           34755                           CAF      ZERO                                  #  ALARM IF MPAC NON ZERO (G/ 16383 ).
002300: 42,3465           54156                           TS       MPAC       +2
002301: 42,3466           33544                           CAF      HRCON
002302: 42,3467           54154                           TS       MPAC
002303: 42,3470           33545                           CAF      HRCON      +1
002304: 42,3471           56155                           XCH      MPAC       +1
002305: 42,3472           07321                           TC       SHORTMP
002306: 42,3473           03562                           TC       MPACTST                               #  ALARM IF MPAC NON ZERO (G/ 745)
002307: 42,3474           52156                           DXCH     MPAC       +1                         #  STORE HOURS CONTRIBUTION
002308: 42,3475           52124                           DXCH     HITEMIN
002309: 42,3476           31003                           CA       YREG                                  #  PUT YREG, YREGLP INTO MPAC, +1.
002310: 42,3477           23006                           LXCH     YREGLP
002311: 42,3500           52155                           DXCH     MPAC
002312: 42,3501           07115                           TC       DMP
002313: 42,3502           03542                           ADRES    WHOLECON
002314: 42,3503           03551                           TC       RND/TST                               #  ROUND OFF TO WHOLE MIN IN MPAC+1
002315: 42,3504           43547                           CS       59MIN                                 #  ALARM IF MPAC NON ZERO (G/16383)
002316: 42,3505           03567                           TC       SIZETST                               #  ALARM IF MPAC+1 G/ 59MIN
002317: 42,3506           56155                           XCH      MPAC       +1
002318: 42,3507           00006                           EXTEND
002319: 42,3510           73546                           MP       MINCON                                #  LEAVES MINUTES CONTRIBUTION IN A,L
002320: 42,3511           20124                           DAS      HITEMIN                               #  ADD IN MINUTES CONTRIBUTION
002321: 42,3512           00006                           EXTEND                                         #  IF THIS DAS OVERFLOWS, G/ 745HR,39MIN
002322: 42,3513           13515                           BZF      +2
002323: 42,3514           04145                           TC       ALMCYCLE
002324: 42,3515           31004                           CA       ZREG                                  #  PUT ZREG, ZREGLP INTO MPAC, +1.
002325: 42,3516           23007                           LXCH     ZREGLP
002326: 42,3517           52155                           DXCH     MPAC
002327: 42,3520           07115                           TC       DMP
002328: 42,3521           03542                           ADRES    WHOLECON
002329: 42,3522           03551                           TC       RND/TST                               #  ROUND OFF TO WHOLE CENTI-SEC IN MPAC+1
002330: 42,3523           43550                           CS       59.99SEC                              #  ALARM IF MPAC NON ZERO (G/163.83 SEC)
002331: 42,3524           03567                           TC       SIZETST                               #  ALARM IF MPAC+1 G/59.99 SEC
002332: 42,3525           52124                           DXCH     HITEMIN                               #  ADD IN SECONDS CONTRIBUTION
002333: 42,3526           20155                           DAS      MPAC                                  #  IF THIS DAS OVERFLOWS,
002334: 42,3527           00006                           EXTEND                                         #  G/ 745 HR, 39 MIN, 14.55 SEC.
002335: 42,3530           13532                           BZF      +2
002336: 42,3531           04145                           TC       ALMCYCLE                              #  ALARM AND RECYCLE
002337: 42,3532           34755                           CAF      ZERO
002338: 42,3533           54156                           TS       MPAC       +2
002339: 42,3534           07271                           TC       TPAGREE
002340: 42,3535           52155                           DXCH     MPAC
002341: 42,3536           50145                           INDEX    NOUNADD
002342: 42,3537           52001                           DXCH     0
002343: 42,3540           04635                           TC       POSTJUMP
002344: 42,3541           63045                           CADR     LOADLV
002345:


002347: 42,3542           00006        WHOLECON           OCT      00006                                 #  (10EXP5/2EXP14)2EXP14
002348: 42,3543           03240                           OCT      03240
002349: 42,3544           00025        HRCON              OCT      00025                                 #  1 HOUR IN CENTI-SEC
002350: 42,3545           37100                           OCT      37100
002351: 42,3546           13560        MINCON             OCT      13560                                 #  1 MINUTE IN CENTI-SEC
002352: 42,3547           00073        59MIN              OCT      00073                                 #  59 AS WHOLE
002353: 42,3550           13557        59.99SEC           OCT      13557                                 #  5999 CENTI-SEC
002354:
002355:
002356: 42,3551           56156        RND/TST            XCH      MPAC       +2                         #  ROUNDS MPAC+2 INTO MPAC+1.
002357: 42,3552           60000                           DOUBLE                                         #  ALARMS IF MPAC NOT 0
002358: 42,3553           54156                           TS       MPAC       +2
002359: 42,3554           34755                           CAF      ZERO
002360: 42,3555           60155                           AD       MPAC       +1
002361: 42,3556           54155                           TS       MPAC       +1
002362: 42,3557           34755                           CAF      ZERO
002363: 42,3560           60154                           AD       MPAC                                  #  CANT OVFLOW
002364: 42,3561           56154                           XCH      MPAC
002365: 42,3562           10154        MPACTST            CCS      MPAC                                  #  ALARM IF MPAC NON ZERO
002366: 42,3563           04145                           TC       ALMCYCLE                              #  ALARM AND RECYCLE.
002367: 42,3564           00002                           TC       Q
002368: 42,3565           04145                           TC       ALMCYCLE                              #  ALARM AND RECYCLE.
002369: 42,3566           00002                           TC       Q
002370:
002371: 42,3567           54156        SIZETST            TS       MPAC       +2                         #  CALLED WITH - CON IN A
002372: 42,3570           10155                           CCS      MPAC       +1                         #  GET MAG OF MPAC+1
002373: 42,3571           64753                           AD       ONE
002374: 42,3572           13574                           TCF      +2
002375: 42,3573           64753                           AD       ONE
002376: 42,3574           60156                           AD       MPAC       +2
002377: 42,3575           00006                           EXTEND                                         #  MAG OF MPAC+1 - CON
002378: 42,3576           63600                           BZMF     +2
002379: 42,3577           04145                           TC       ALMCYCLE                              #  MAG OF MPAC+1 G/ CON. ALARM AND RECYCLE.
002380: 42,3600           00002                           TC       Q                                     #  MAG OF MPAC+1 L/= CON
002381:
002382:
002383:                                                                                                  #  ALL3DEC TESTS THAT ALL 3 WORDS ARE LOADED IN DEC (FOR HMSIN).
002384:                                                                                                  #  ALARM IF NOT.( TEST THAT BITS 3,4,5 OF DECBRNCH ARE ALL = 1)
002385: 42,3601           43606        ALL3DEC            CS       OCT34BAR                              #  GET BITS 3,4,5 IN A
002386: 42,3602           70777                           MASK     DECBRNCH                              #  GET BITS 3,4,5 OF DECBRNCH IN A
002387: 42,3603           63606                           AD       OCT34BAR                              #  BITS 3,4,5 OF DECBRNCH MUST ALL = 1
002388: 42,3604           10000                           CCS      A
002389: 42,3605           03611                           TC       FORCEV25
002390: 42,3606           77743        OCT34BAR           OCT      77743
002391: 42,3607           03611                           TC       FORCEV25
002392: 42,3610           00002                           TC       Q
002393:
002394:
002395: 42,3611           46010        FORCEV25           CS       OCT31                                 #  FORCE VERB 25 TO BE EXECUTED BY RECYCLE
002396: 42,3612           55040                           TS       VERBSAVE                              #   IN CASE OPERATOR EXECUTED A LOWER LOAD


002398: 42,3613           04145                           TC       ALMCYCLE                              #   VERB.  ALARM AND RECYCLE.
002399: 42,3614                        ENDHMSS            EQUALS
002400:


002402:                                                                                                  #  MONITOR ALLOWS OTHER KEYBOARD ACTIVITY. IT IS ENDED BY VERB TERMINATE,
002403:                                                                                                  #  VERB PROCEED WITHOUT DATA, VERB RESEQUENCE,
002404:                                                                                                  #  ANOTHER MONITOR, OR ANY NVSUB CALL THAT PASSES THE DSPLOCK (PROVIDED
002405:                                                                                                  #  THAT THE OPERATOR HAS SOMEHOW ALLOWED THE ENDING OF A MONITOR WHICH
002406:                                                                                                  #  HE HAS INITIATED THROUGH THE KEYBOARD).
002407:
002408:                                                                                                  #  MONITOR ACTION IS SUSPENDED, BUT NOT ENDED, BY ANY KEYBOARD ACTION,
002409:                                                                                                  #  EXCEPT ERROR LIGHT RESET. IT BEGINS AGAIN WHEN KEY RELEASE IS PERFORMED.
002410:                                                                                                  #  MONITOR SAVES THE NOUN AND APPROPRIATE DISPLAY VERB IN MONSAVE. IT SAVES
002411:                                                                                                  #  NOUNCADR IN MONSAVE1, IF NOUN = MACHINE CADR TO BE SPECIFIED. BIT 15 OF
002412:                                                                                                  #  MONSAVE1 IS THE KILL MONITOR SIGNAL (KILLER BIT). BIT 14 OF MONSAVE1
002413:                                                                                                  #  INDICATES THE CURRENT MONITOR WAS EXTERNALLY INITIATED (EXTERNAL
002414:                                                                                                  #  MONITOR BIT). IT IS TURNED OFF BY RELDSP AND KILMONON.
002415:
002416:                                                                                                  #  MONSAVE INDICATES IF MONITOR IS ON(+=ON, +0=OFF)
002417:                                                                                                  #  IF MONSAVE IS +, MONITOR ENTERS NO REQUEST, BUT TURNS KILLER BIT OFF.
002418:                                                                                                  #  IF MONSAVE IS +0, MONITOR ENTERS REQUEST AND TURNS KILLER BIT OFF.
002419:
002420:                                                                                                  #  NVSUB (IF EXTERNAL MONITOR BIT IS OFF), VB=PROCEED WITHOUT DATA,
002421:                                                                                                  #  VB=RESEQUENCE, AND VB=TERMINATE TURN KILL MONITOR BIT ON.
002422:
002423:                                                                                                  #  IF KILLER BIT IS ON, MONREQ ENTERS NO FURTHER REQUESTS, ZEROS MONSAVE
002424:                                                                                                  #  AND MONSAVE1 (TURNING OFF KILLER BIT AND EXTERNAL MONITOR BIT).
002425:
002426:                                                                                                  #  MONITOR DOSENT TEST FOR MATBS SINCE NVSUB CAN HANDLE INTERNAL MATBS NOW
002427: 41,3302                                           SETLOC   ENDRUTIN
002428:
002429: 41,3302                                           COUNT*   $$/PIN
002430: 41,3302           43311        MONITOR            CS       BIT15/14
002431: 41,3303           71016                           MASK     NOUNCADR
002432: 41,3304           54155        MONIT1             TS       MPAC       +1                         #  TEMP STORAGE
002433: 41,3305           40136                           CS       ENTEXIT
002434: 41,3306           64217                           AD       ENDINST
002435: 41,3307           10000                           CCS      A
002436: 41,3310           03317                           TC       MONIT2
002437: 41,3311           60000        BIT15/14           OCT      60000
002438: 41,3312           03317                           TC       MONIT2
002439: 41,3313           34736                           CAF      BIT14                                 #  EXTERNALLY INITIATED MONITOR,
002440: 41,3314           26155                           ADS      MPAC       +1                         #  SET BIT 14 FOR MONSAVE1.
002441: 41,3315           34755                           CAF      ZERO
002442: 41,3316           55021                           TS       MONSAVE2                              #  ZERO NVMONOPT OPTIONS
002443: 41,3317           36106        MONIT2             CAF      LOW7
002444: 41,3320           71000                           MASK     VERBREG
002445: 41,3321           04331                           TC       LEFT5
002446: 41,3322           54022                           TS       CYL
002447: 41,3323           40022                           CS       CYL
002448: 41,3324           56022                           XCH      CYL
002449: 41,3325           61001                           AD       NOUNREG
002450: 41,3326           54154                           TS       MPAC                                  #  TEMP STORAGE
002451: 41,3327           34755                           CAF      ZERO


002453: 41,3330           55011                           TS       DSPLOCK                               #  +0 INTO DSPLOCK SO MONITOR CAN RUN.
002454: 41,3331           11041                           CCS      CADRSTOR                              #  TURN OFF KR LITE IF CADRSTOR AND DSPLIST
002455: 41,3332           03334                           TC       +2                                    #  ARE BOTH EMPTY. (LITE COMES ON IF NEW
002456: 41,3333           04502                           TC       RELDSP1                               #  MONITOR IS KEYED IN OVER OLD MONITOR.)
002457: 41,3334           00004                           INHINT
002458: 41,3335           11017                           CCS      MONSAVE
002459: 41,3336           03343                           TC       +5                                    #  IF MONSAVE WAS +, NO REQUEST
002460: 41,3337           34753                           CAF      ONE                                   #  IF MONSAVE WAS 0, REQUEST MONREQ
002461: 41,3340           05214                           TC       WAITLIST
002462: 41,3341     0776                                  EBANK=   DSPCOUNT
002463: 41,3341           03347 62101                     2CADR    MONREQ
002464:
002465: 41,3343           52155                           DXCH     MPAC                                  #  PLACE MONITOR VERB AND NOUN INTO MONSAVE
002466: 41,3344           53020                           DXCH     MONSAVE                               #  ZERO THE KILL MONITOR BIT
002467: 41,3345           00003                           RELINT                                         #  SET UP EXTERNAL MONITOR BIT
002468: 41,3346           00136                           TC       ENTRET
002469:
002470:
002471: 41,3347           04400        MONREQ             TC       LODSAMPT                              #  CALLED BY WAITLIST
002472: 41,3350           11020                           CCS      MONSAVE1                              #  TIME IS SNATCHED IN RUPT FOR NOUN 65
002473: 41,3351           03355                           TC       +4                                    #  IF KILLER BIT = 0, ENTER REQUESTS
002474: 41,3352           03355                           TC       +3                                    #  IF KILLER BIT = 0, ENTER REQUESTS
002475: 41,3353           03366                           TC       KILLMON                               #  IF KILLER BIT = 1, NO REQUESTS
002476: 41,3354           03366                           TC       KILLMON                               #  IF KILLER BIT = 1, NO REQUESTS
002477: 41,3355           33372                           CAF      MONDEL
002478: 41,3356           05214                           TC       WAITLIST                              #  ENTER WAITLIST REQUEST FOR MONREQ
002479: 41,3357     0776                                  EBANK=   DSPCOUNT
002480: 41,3357           03347 62101                     2CADR    MONREQ
002481:
002482: 41,3361           34355                           CAF      CHRPRIO
002483: 41,3362           05072                           TC       NOVAC                                 #  ENTER EXEC REQUEST FOR MONDO
002484: 41,3363     0776                                  EBANK=   DSPCOUNT
002485: 41,3363           03373 62101                     2CADR    MONDO
002486:
002487: 41,3365           05272                           TC       TASKOVER
002488:
002489: 41,3366           34755        KILLMON            CAF      ZERO                                  #  ZERO MONSAVE AND TURN KILLER BIT OFF
002490: 41,3367           55017                           TS       MONSAVE
002491: 41,3370           55020                           TS       MONSAVE1                              #  TURN OFF KILL MONITOR BIT.
002492: 41,3371           05272                           TC       TASKOVER                              #  TURN OFF EXTERNAL MONITOR BIT.
002493: 41,3372           00144        MONDEL             OCT      144                                   #  FOR 1 SEC MONITOR INTERVALS
002494:
002495:
002496: 41,3373           11020        MONDO              CCS      MONSAVE1                              #  CALLED BY EXEC
002497: 41,3374           03400                           TC       +4                                    #  IF KILLER BIT = 0, CONTINUE
002498: 41,3375           03400                           TC       +3                                    #  IF KILLER BIT = 0, CONTINUE
002499: 41,3376           05155                           TC       ENDOFJOB                              #  IN CASE TERMINATE CAME SINCE LAST MONREQ
002500: 41,3377           05155                           TC       ENDOFJOB                              #  IN CASE TERMINATE CAME SINCE LAST MONREQ
002501: 41,3400           11011                           CCS      DSPLOCK
002502: 41,3401           03423                           TC       MONBUSY                               #  NVSUB IS BUSY


002504: 41,3402           36106                           CAF      LOW7
002505: 41,3403           71017                           MASK     MONSAVE
002506: 41,3404           02346                           TC       UPDATNN    -1                         #  PLACE NOUN INTO NOUNREG AND DISPLAY IT
002507: 41,3405           34144                           CAF      MID7
002508: 41,3406           71017                           MASK     MONSAVE                               #  CHANGE MONITOR VERB TO DISPLAY VERB
002509: 41,3407           63421                           AD       MONREF                                #  -DEC10, STARTING IN BIT8
002510: 41,3410           54023                           TS       EDOP                                  #  RIGHT 7
002511: 41,3411           30023                           CA       EDOP
002512: 41,3412           55000                           TS       VERBREG
002513: 41,3413           33422                           CAF      MONBACK                               #  SET RETURN TO PASTEVB AFTER DATA DISPLAY
002514: 41,3414           54136                           TS       ENTRET
002515: 41,3415           43311                           CS       BIT15/14
002516: 41,3416           71020                           MASK     MONSAVE1                              #  PUT ECADR INTO MPAC +2. INTMCTBS WILL
002517: 41,3417           54156                           TS       MPAC       +2                         #  DISPLAY IT AND SET NOUNCADR, NOUNADD,
002518: 41,3420           02073        ENDMONDO           TC       TESTNN                                #  EBANK.
002519:
002520:    4124                                           BLOCK    2
002521:
002522:    4000                                           SETLOC   FFTAG8
002523:    4000                                           BANK
002524:
002525:    4124                                           COUNT*   $$/PIN
002526:    4124           34144        PASTEVB            CAF      MID7
002527:    4125           71021                           MASK     MONSAVE2                              #  NVMONOPT PASTE OPTION
002528:    4126           00006                           EXTEND
002529:    4127           14131                           BZF      +2
002530:    4130           04132                           TC       PASTEOPT                              #  PASTE PLEASE VERB FOR NVMONOPT
002531:    4131           31017                           CA       MONSAVE                               #  PASTE MONITOR VERB - PASTE OPTION IS 0
002532:    4132           54023        PASTEOPT           TS       EDOP                                  #  RIGHT 7
002533:    4133           30023                           CA       EDOP                                  #  PLACE MONITOR VERB OR PLEASE VERB INTO
002534:    4134           04616                           TC       BANKCALL                              #   VERBREG AND DISPLAY IT.
002535:    4135           62366                           CADR     UPDATVB    -1
002536:    4136           34755                           CAF      ZERO                                  #  ZERO REQRET SO THAT PASTED VERBS CAN
002537:    4137           55012                           TS       REQRET                                #   BE EXECUTED BY OPERATOR.
002538:    4140           31021                           CA       MONSAVE2
002539:    4141           04255                           TC       BLANKSUB                              #  PROCESS NVMONOPT BLANK OPTION IF ANY
002540:    4142           04143                           TC       +1
002541:    4143           05155        ENDPASTE           TC       ENDOFJOB
002542:
002543:    4144           37600        MID7               OCT      37600
002544:
002545:
002546: 41,3421                                           SETLOC   ENDMONDO   +1
002547: 41,3421                                           COUNT*   $$/PIN
002548: 41,3421           75377        MONREF             OCT      75377                                 #  -DEC10, STARTING IN BIT8
002549: 41,3422           04124        MONBACK            ADRES    PASTEVB
002550:
002551: 41,3423           04374        MONBUSY            TC       RELDSPON                              #  TURN KEY RELEASE LIGHT
002552: 41,3424           05155                           TC       ENDOFJOB


002554:                                                                                                  #  DSPFMEM IS USED TO DISPLAY (IN OCTAL) ANY FIXED REGISTER.
002555:                                                                                                  #  IT IS USED WITH NOUN = MACHINE CADR TO BE SPECIFIED. THE FCADR OF THE
002556:                                                                                                  #  DESIRED LOCATION IS THEN PUNCHED IN. IT HANDLES F/F ( FCADR 4000-7777)
002557:
002558:                                                                                                  #  FOR BANKS L/E 27, THIS IS ENOUGH.
002559:
002560:                                                                                                  #  FOR BANKS G/E 30, THE THIRD COMPONENT OF NOUN 26 (PRIO, ADRES, BBCON)
002561:                                                                                                  #  MUST BE PRELOADED WITH THE DESIRED SUPERBANK BITS (BITS 5,6,7).
002562:                                                                                                  #           V23N26 SHOULD BE USED.
002563:
002564:                                                                                                  #  SUMMARY
002565:                                                                                                  #  FOR BANKS L/E 27,                          V27N01E(FCADR)E
002566:                                                                                                  #  FOR BANKS G/E 30,    V23N26E(SUPERBITS)E   V27N01E(FCADR)E
002567:
002568: 41,3425           34317        DSPFMEM            CAF      R1D1                                  #  IF F/F, DATACALL USES BANK 02 OR 03.
002569: 41,3426           54776                           TS       DSPCOUNT
002570: 41,3427           31046                           CA       DSPTEM1    +2                         #  SUPERBANK BITS WERE PRELOADED INTO
002571: 41,3430           54001                           TS       L                                     #  3RD COMPONENT OF NOUN 26.
002572: 41,3431           31016                           CA       NOUNCADR                              #  ORIGINAL FCADR LOADED STILL IN NOUNCADR.
002573: 41,3432           04651                           TC       SUPDACAL                              #  CALL WITH FCADR IN A, SUPERBITS IN L.
002574: 41,3433           03435                           TC       DSPOCTWD
002575: 41,3434           05155        ENDSPF             TC       ENDOFJOB
002576:


002578:                                                                                                  #  WORD DISPLAY ROUTINES
002579: 40,3235                                           SETLOC   TESTOFUF   +4
002580: 40,3235                                           COUNT*   $$/PIN
002581: 40,3235           56002        DSPSIGN            XCH      Q
002582: 40,3236           54144                           TS       DSPWDRET
002583: 40,3237           10154                           CCS      MPAC
002584: 40,3240           03250                           TC       +8D
002585: 40,3241           03250                           TC       +7
002586: 40,3242           64753                           AD       ONE
002587: 40,3243           54154                           TS       MPAC
002588: 40,3244           02422                           TC       -ON
002589: 40,3245           40155                           CS       MPAC       +1
002590: 40,3246           54155                           TS       MPAC       +1
002591: 40,3247           00144                           TC       DSPWDRET
002592: 40,3250           02402                           TC       +ON
002593: 40,3251           00144                           TC       DSPWDRET
002594:
002595: 40,3252           00006        DSPRND             EXTEND                                         #  ROUND BY 5 EXP-6
002596: 40,3253           33316                           DCA      DECROUND   -1
002597: 40,3254           20155                           DAS      MPAC
002598: 40,3255           00006                           EXTEND
002599: 40,3256           13262                           BZF      +4
002600: 40,3257           00006                           EXTEND
002601: 40,3260           34733                           DCA      DPOSMAX
002602: 40,3261           52155                           DXCH     MPAC
002603: 40,3262           00002                           TC       Q
002604:
002605:                                                                                                  #  DSPDECWD CONVERTS C( MPAC, MPAC+1) INTO A SIGN AND 5 CHAR DECIMAL
002606:                                                                                                  #  STARTING IN LOC SPECIFIED IN DSPCOUNT. IT ROUNDS BY 5 EXP-6.
002607:
002608: 40,3263           56002        DSPDECWD           XCH      Q
002609: 40,3264           54115                           TS       WDRET
002610: 40,3265           03235                           TC       DSPSIGN
002611: 40,3266           03252                           TC       DSPRND
002612: 40,3267           34751                           CAF      FOUR
002613: 40,3270           54137        DSPDCWD1           TS       WDCNT
002614: 40,3271           34363                           CAF      BINCON
002615: 40,3272           07321                           TC       SHORTMP
002616: 40,3273           50154        TRACE1             INDEX    MPAC
002617: 40,3274           34066                           CAF      RELTAB
002618: 40,3275           74346                           MASK     LOW5
002619: 40,3276           54124                           TS       CODE
002620: 40,3277           34755                           CAF      ZERO
002621: 40,3300           56156                           XCH      MPAC       +2
002622: 40,3301           56155                           XCH      MPAC       +1
002623: 40,3302           54154                           TS       MPAC
002624: 40,3303           56776                           XCH      DSPCOUNT
002625: 40,3304           54143        TRACE1S            TS       COUNT
002626: 40,3305           10000                           CCS      A                                     #  DECREMENT DSPCOUNT EXCEPT AT +0


002628: 40,3306           54776                           TS       DSPCOUNT
002629: 40,3307           03353                           TC       DSPIN
002630: 40,3310           10137                           CCS      WDCNT
002631: 40,3311           03270                           TC       DSPDCWD1
002632: 40,3312           44360                           CS       VD1
002633: 40,3313           54776                           TS       DSPCOUNT
002634: 40,3314           00115                           TC       WDRET
002635:
002636: 40,3315           00000                           OCT      00000
002637: 40,3316           02476        DECROUND           OCT      02476
002638:
002639:                                                                                                  #  DSPDECNR CONVERTS C( MPAC,MPAC+1) INTO A SIGN AND 5 CHAR DECIMAL
002640:                                                                                                  #  STARTING IN LOC SPECIFIED IN DSPCOUNT. IT DOES NOT ROUND
002641:


002644:                                                                                                  # DSPDECNR       XCH     Q
002645:                                                                                                  #                TS      WDRET
002646:                                                                                                  #                TC      DSPSIGN
002647:                                                                                                  #                TC      DSPDCWD1 -1
002648:
002649:                                                                                                  #  DSPDC2NR CONVERTS C( MPAC,MPAC+1) INTO A SIGN AND 2 CHAR DECIMAL
002650:                                                                                                  #  STARTING IN LOC SPECIFIED IN DSPCOUNT. IT DOES NOT ROUND
002651:
002652: 40,3317           56002        DSPDC2NR           XCH      Q
002653: 40,3320           54115                           TS       WDRET
002654: 40,3321           03235                           TC       DSPSIGN
002655: 40,3322           34753                           CAF      ONE
002656: 40,3323           03270                           TC       DSPDCWD1
002657:
002658:
002659:                                                                                                  #  DSP2DEC CONVERTS C(MPAC) AND C(MPAC+1) INTO A SIGN AND 10 CHAR DECIMAL
002660:                                                                                                  #  STARTING IN THE LOC SPECIFIED IN DSPCOUNT.
002661:
002662: 40,3324           56002        DSP2DEC            XCH      Q
002663: 40,3325           54115                           TS       WDRET
002664: 40,3326           34755                           CAF      ZERO
002665: 40,3327           54124                           TS       CODE
002666: 40,3330           36257                           CAF      THREE
002667: 40,3331           03435                           TC       11DSPIN                               #  -R2 OFF
002668: 40,3332           34751                           CAF      FOUR
002669: 40,3333           03435                           TC       11DSPIN                               #  +R2 OFF
002670: 40,3334           03235                           TC       DSPSIGN
002671: 40,3335           34320                           CAF      R2D1
002672: 40,3336           03270        END2DEC            TC       DSPDCWD1
002673:
002674:
002675:                                                                                                  #  DSPDECVN DISPLAYS C(A) UPON ENTRY AS A 2 CHAR DECIMAL BEGINNING IN THE
002676:                                                                                                  #  DSP LOC SPECIFIED IN DSPCOUNT.
002677:                                                                                                  #  C(A) SHOULD BE IN FORM N X 2EXP-14. THIS IS SCALED TO FORM N/100 BEFORE
002678:                                                                                                  #  DISPLAY CONVERSION.
002679:


002681: 40,3337           00006        DSPDECVN           EXTEND
002682: 40,3340           73347                           MP       VNDSPCON                              #  MULT BY .01
002683: 40,3341           22154                           LXCH     MPAC                                  #  TAKE RESULTS FROM L.(MULT BY 2EXP14).
002684: 40,3342           34755                           CAF      ZERO
002685: 40,3343           54155                           TS       MPAC       +1
002686: 40,3344           56002                           XCH      Q
002687: 40,3345           54115                           TS       WDRET
002688: 40,3346           03322                           TC       DSPDC2NR   +3                         #  NO SIGN, NO ROUND, 2 CHAR
002689:
002690: 40,3347           00244        VNDSPCON           OCT      00244                                 #  .01 ROUNDED UP
002691:
002692:
002693: 40,3350           03337        GOVNUPDT           TC       DSPDECVN                              #  THIS IS NOT FOR GENERAL USE. REALLY PART
002694: 40,3351           04635                           TC       POSTJUMP                              #  OF UPDATVB.
002695: 40,3352           62376                           CADR     UPDAT1     +2
002696:
002697: 40,3353                        ENDECVN            EQUALS
002698:
002699:
002700: 41,3435                                           SETLOC   ENDSPF     +1
002701: 41,3435                                           COUNT*   $$/PIN
002702:                                                                                                  #  DSPOCTWD DISPLAYS C(A) UPON ENTRY AS A 5 CHAR OCT STARTING IN THE DSP
002703:                                                                                                  #  CHAR SPECIFIED IN DSPCOUNT. IT STOPS AFTER 5 CHAR HAVE BEEN DISPLAYED.
002704:
002705: 41,3435           54022        DSPOCTWD           TS       CYL
002706: 41,3436           56002                           XCH      Q
002707: 41,3437           54115                           TS       WDRET                                 #  MUST USE SAME RETURN AS DSP2BIT.
002708: 41,3440           34736                           CAF      BIT14                                 #  TO BLANK SIGNS
002709: 41,3441           26776                           ADS      DSPCOUNT
002710: 41,3442           34751                           CAF      FOUR
002711: 41,3443           54137        WDAGAIN            TS       WDCNT
002712: 41,3444           40022                           CS       CYL
002713: 41,3445           40022                           CS       CYL
002714: 41,3446           40022                           CS       CYL
002715: 41,3447           40000                           CS       A
002716: 41,3450           74757                           MASK     DSPMSK
002717: 41,3451           50000                           INDEX    A
002718: 41,3452           34066                           CAF      RELTAB
002719: 41,3453           74346                           MASK     LOW5
002720: 41,3454           54124                           TS       CODE
002721: 41,3455           56776                           XCH      DSPCOUNT
002722: 41,3456           54143                           TS       COUNT
002723: 41,3457           10000                           CCS      A                                     #  DECREMENT DSPCOUNT EXCEPT AT +0
002724: 41,3460           54776                           TS       DSPCOUNT
002725: 41,3461           04635                           TC       POSTJUMP
002726: 41,3462           61443                           CADR     DSPOCTIN
002727: 41,3463           10137        OCTBACK            CCS      WDCNT
002728: 41,3464           03443                           TC       WDAGAIN                               #  +
002729: 41,3465           44360        DSPLV              CS       VD1                                   #  TO BLOCK NUMERICAL CHARACTERS, CLEARS,
002730: 41,3466           54776                           TS       DSPCOUNT                              #  AND SIGNS AFTER A COMPLETED DISPLAY.


002732: 41,3467           00115                           TC       WDRET
002733:
002734: 41,3470     4757               DSPMSK             =        SEVEN
002735:
002736:
002737:                                                                                                  #  FOR DSPIN PLACE 0/25 OCT INTO COUNT, 5 BIT RELAY CODE INTO CODE. BOTH
002738:                                                                                                  #  ARE DESTROYED. IF BIT14 OF COUNT IS 1, SIGN IS BLANKED WITH LEFT CHAR.
002739:                                                                                                  #  FOR DSPIN1 PLACE 0,1 INTO BIT11 OF CODE, 2 INTO COUNT, REL ADDRESS OF
002740:                                                                                                  #  DSPTAB ENTRY INTO DSREL.
002741:
002742: 40,3353                                           SETLOC   ENDECVN
002743:
002744: 40,3353                                           COUNT*   $$/PIN
002745: 40,3353           56002        DSPIN              XCH      Q                                     #  CANT USE L FOR RETURN, SINCE MANY OF THE
002746: 40,3354           54114                           TS       DSEXIT                                #  ROUTINES CALLING DSPIN USE L AS RETURN.
002747: 40,3355           34346                           CAF      LOW5
002748: 40,3356           70143                           MASK     COUNT
002749: 40,3357           54021                           TS       SR
002750: 40,3360           56021                           XCH      SR
002751: 40,3361           54141                           TS       DSREL
002752: 40,3362           34753                           CAF      BIT1
002753: 40,3363           70143                           MASK     COUNT
002754: 40,3364           10000                           CCS      A
002755: 40,3365           03367                           TC       +2                                    #  LEFT IF COUNT IS ODD
002756: 40,3366           03377                           TC       DSPIN1     -1                         #  RIGHT IF COUNT IS EVEN
002757: 40,3367           56124                           XCH      CODE
002758: 40,3370           04340                           TC       SLEFT5                                #  DOES NOT USE CYL
002759: 40,3371           54124                           TS       CODE
002760: 40,3372           34736                           CAF      BIT14
002761: 40,3373           70143                           MASK     COUNT
002762: 40,3374           10000                           CCS      A
002763: 40,3375           34752                           CAF      TWO                                   #  BIT14 = 1, BLANK SIGN
002764: 40,3376           64753                           AD       ONE                                   #  BIT14 = 0, LEAVE SIGN ALONE
002765: 40,3377           54143                           TS       COUNT                                 #  +0 INTO COUNT FOR RIGHT
002766:                                                                                                  #  +1 INTO COUNT FOR LEFT(SIGN LEFT ALONE)
002767:                                                                                                  #  +3 INTO COUNT FOR LEFT(TO BLANK SIGN)
002768: 40,3400           00004        DSPIN1             INHINT
002769: 40,3401           50141                           INDEX    DSREL
002770: 40,3402           11022                           CCS      DSPTAB
002771: 40,3403           03405                           TC       +2                                    #  IF +
002772: 40,3404           05706                           TC       CCSHOLE
002773: 40,3405           64753                           AD       ONE                                   #  IF-
002774: 40,3406           54142                           TS       DSMAG
002775: 40,3407           50143                           INDEX    COUNT
002776: 40,3410           73431                           MASK     DSMSK
002777: 40,3411           00006                           EXTEND
002778: 40,3412           60124                           SU       CODE
002779: 40,3413           00006                           EXTEND
002780: 40,3414           13427                           BZF      DSLV                                  #  SAME
002781: 40,3415           50143        DFRNT              INDEX    COUNT


002783: 40,3416           43431                           CS       DSMSK                                 #  MASK WITH 77740,76037,75777, OR 74037
002784: 40,3417           70142                           MASK     DSMAG
002785: 40,3420           60124                           AD       CODE
002786: 40,3421           40000                           CS       A
002787: 40,3422           50141                           INDEX    DSREL
002788: 40,3423           57022                           XCH      DSPTAB
002789: 40,3424           00006                           EXTEND
002790: 40,3425           63427                           BZMF     DSLV                                  #  DSPTAB ENTRY WAS -
002791: 40,3426           25015                           INCR     NOUT                                  #  DSPTAB ENTRY WAS +
002792: 40,3427           00003        DSLV               RELINT
002793: 40,3430           00114                           TC       DSEXIT
002794:
002795: 40,3431           00037        DSMSK              OCT      37
002796: 40,3432           01740                           OCT      1740
002797: 40,3433           02000                           OCT      2000
002798: 40,3434           03740                           OCT      3740
002799:
002800:
002801:                                                                                                  #  FOR 11DSPIN, PUT REL ADDRESSS OF DSPTAB ENTRY INTO A, 1 IN BIT11 OR 0 IN
002802:                                                                                                  #  BIT11 OF CODE.
002803:
002804: 40,3435           54141        11DSPIN            TS       DSREL
002805: 40,3436           34752                           CAF      TWO
002806: 40,3437           54143                           TS       COUNT
002807: 40,3440           56002                           XCH      Q                                     #  MUST USE SAME RETURN AS DSPIN
002808: 40,3441           54114                           TS       DSEXIT
002809: 40,3442           03400                           TC       DSPIN1
002810:
002811:
002812: 40,3443           03353        DSPOCTIN           TC       DSPIN                                 #  SO DSPOCTWD DOESNT USE SWCALL
002813: 40,3444           33446                           CAF      +2
002814: 40,3445           04640                           TC       BANKJUMP
002815: 40,3446           63463        ENDSPOCT           CADR     OCTBACK
002816:
002817:
002818:                                                                                                  #  DSPALARM FINDS TC NVSUBEND IN ENTRET FOR NVSUB INITIATED ROUTINES.
002819:                                                                                                  #  ABORT WITH 01501.
002820:                                                                                                  #  DSPALARM FINDS TC ENDOFJOB IN ENTRET FOR KEYBOARD INITIATED ROUTINES.
002821:                                                                                                  #  DO TC ENTRET.
002822:
002823: 40,3447           44360        PREDSPAL           CS       VD1
002824: 40,3450           54776                           TS       DSPCOUNT
002825: 40,3451           43472        DSPALARM           CS       NVSBENDL
002826: 40,3452           60136                           AD       ENTEXIT
002827: 40,3453           00006                           EXTEND
002828: 40,3454           13467                           BZF      CHARALRM   +2
002829: 40,3455           43471                           CS       MONADR                                #  IF THIS IS A MONITOR, KILL IT
002830: 40,3456           60136                           AD       ENTEXIT
002831: 40,3457           00006                           EXTEND
002832: 40,3460           13462                           BZF      +2


002834: 40,3461           03465                           TC       CHARALRM
002835: 40,3462           04204                           TC       KILMONON
002836: 40,3463           04364                           TC       FALTON
002837: 40,3464           04124                           TC       PASTEVB                               #  PUT MONITOR VERB BACK IN VERBREG
002838: 40,3465           04364        CHARALRM           TC       FALTON                                #  NOT NVSUB INITIATED. TURN ON OPR ERROR
002839: 40,3466           05155                           TC       ENDOFJOB
002840: 40,3467           05653                           TC       POODOO
002841: 40,3470           21501                           OCT      21501
002842: 40,3471           04124        MONADR             GENADR   PASTEVB
002843: 40,3472           04202        NVSBENDL           TC       NVSUBEND
002844:
002845:
002846:                                                                                                  #  ALMCYCLE TURNS ON CHECK FAIL LIGHT, REDISPLAYS THE ORIGINAL VERB THAT
002847:                                                                                                  #  WAS EXECUTED, AND RECYCLES TO EXECUTE THE ORIGINAL VERB/NOUN COMBINATION
002848:                                                                                                  #  THAT WAS LAST EXECUTED. USED FOR BAD DATA DURING LOAD VERBS AND BY
002849:                                                                                                  #  MCTBS. ALSO BY MMCHANG IF 2 NUMERICAL CHARACTERS WERE NOT PUNCHED IN
002850:                                                                                                  #  FOR MM CODE.
002851:
002852:    4145                                           SETLOC   MID7       +1
002853:    4145                                           COUNT*   $$/PIN
002854:    4145           04364        ALMCYCLE           TC       FALTON                                #  TURN ON CHECK FAIL LIGHT.
002855:    4146           41040                           CS       VERBSAVE                              #  GET ORIGINAL VERB THAT WAS EXECUTED
002856:    4147           55012                           TS       REQRET                                #  SET FOR ENTPAS0
002857:    4150           04616                           TC       BANKCALL                              #  PUTS ORIGINAL VERB INTO VERBREG AND
002858:    4151           62366                           CADR     UPDATVB    -1                         #  DISPLAYS IT IN VERB LIGHTS.
002859:    4152           04635                           TC       POSTJUMP
002860:    4153           62022        ENDALM             CADR     ENTER
002861:
002862:
002863:                                                                                                  #  MMCHANG USES NOUN DISPLAY UNTIL ENTER. THEN IT USES MODE DISP.
002864:                                                                                                  #  IT GOES TO MODROUT WITH THE NEW M M CODE IN A, BUT NOT DISPLAYED IN
002865:                                                                                                  #  MM LIGHTS.
002866:                                                                                                  #  IT DEMANDS 2 NUMERICAL CHARACTERS BE PUNCHED IN FOR NEW MM CODE.
002867:                                                                                                  #  IF NOT, IT RECYCLES.
002868:
002869: 41,3470                                           SETLOC   DSPLV      +3
002870: 41,3470                                           COUNT*   $$/PIN
002871: 41,3470           03512        MMCHANG            TC       REQMM                                 #  ENTPASHI ASSUMES THE TC REQMM AT MMCHANG
002872:                                                                                                  #  IF THIS MOVES AT ALL, MUST CHANGE
002873:                                                                                                  #  MMADREF AT ENTPASHI.
002874: 41,3471           34747                           CAF      BIT5                                  #  OCT20 = ND2.
002875: 41,3472           60776                           AD       DSPCOUNT                              #  DSPCOUNT MUST = -ND2.
002876: 41,3473           00006                           EXTEND                                         #  DEMAND THAT 2 NUM CHAR WERE PUNCHED IN.
002877: 41,3474           13476                           BZF      +2
002878: 41,3475           04145                           TC       ALMCYCLE                              #  DSPCOUNT NOT= -ND2. ALARM AND RECYCLE.
002879: 41,3476           34755                           CAF      ZERO                                  #  DSPCOUNT = -ND2.
002880: 41,3477           57001                           XCH      NOUNREG
002881: 41,3500           54154                           TS       MPAC
002882: 41,3501           34361                           CAF      ND1
002883: 41,3502           54776                           TS       DSPCOUNT


002885: 41,3503           04616                           TC       BANKCALL
002886: 41,3504           60570                           CADR     2BLANK
002887: 41,3505           44360                           CS       VD1                                   #  BLOCK NUM CHAR IN
002888: 41,3506           54776                           TS       DSPCOUNT
002889: 41,3507           30154                           CA       MPAC
002890: 41,3510           04635                           TC       POSTJUMP
002891: 41,3511           10040                           CADR     MODROUTB                              #  GO THRU STANDARD LOC.
002892:
002893:
002894: 41,3512  04,2040               MODROUTB           =        V37
002895: 41,3512           40002        REQMM              CS       Q
002896: 41,3513           55012                           TS       REQRET
002897: 41,3514           34361                           CAF      ND1
002898: 41,3515           54776                           TS       DSPCOUNT
002899: 41,3516           34755                           CAF      ZERO
002900: 41,3517           55001                           TS       NOUNREG
002901: 41,3520           04616                           TC       BANKCALL
002902: 41,3521           60570                           CADR     2BLANK
002903: 41,3522           04427                           TC       FLASHON
002904: 41,3523           34753                           CAF      ONE
002905: 41,3524           54777                           TS       DECBRNCH                              #  SET FOR DEC
002906: 41,3525           00136                           TC       ENTEXIT
002907:
002908:
002909:                                                                                                  #  VBRQEXEC ENTERS REQUEST TO EXEC     FOR ANY ADDRESS WITH ANY PRIORITY.
002910:                                                                                                  #  IT DOES ENDOFJOB AFTER ENTERING REQUEST. DISPLAY SYST IS RELEASED.
002911:                                                                                                  #  IT ASSUMES NOUN 26 HAS BEEN PRELOADED WITH
002912:                                                                                                  #  COMPONENT 1  PRIORITY(BITS 10-14) BIT1=0 FOR NOVAC, BIT1=1 FOR FINDVAC.
002913:                                                                                                  #  COMPONENT 2  JOB ADRES (12 BIT )
002914:                                                                                                  #  COMPONENT 3  BBCON
002915:
002916: 41,3526           34753        VBRQEXEC           CAF      BIT1
002917: 41,3527           71044                           MASK     DSPTEM1
002918: 41,3530           10000                           CCS      A
002919: 41,3531           03550                           TC       SETVAC                                #  IF BIT1 = 1, FINDVAC
002920: 41,3532           34351                           CAF      TCNOVAC                               #  IF BIT1 = 0, NOVAC
002921: 41,3533           54154        REQEX1             TS       MPAC                                  #  TC NOVAC  OR  TC FINDVAC INTO MPAC
002922: 41,3534           44753                           CS       BIT1
002923: 41,3535           71044                           MASK     DSPTEM1
002924: 41,3536           54160                           TS       MPAC       +4                         #  PRIO INTO MPAC+4 AS A TEMP
002925: 41,3537           04457        REQUESTC           TC       RELDSP
002926: 41,3540           34217                           CA       ENDINST
002927: 41,3541           54157                           TS       MPAC       +3                         #  TC ENDOFJOB INTO MPAC+3
002928: 41,3542           00006                           EXTEND
002929: 41,3543           31046                           DCA      DSPTEM1    +1                         #  JOB ADRES INTO MPAC+1
002930: 41,3544           52156                           DXCH     MPAC       +1                         #  BBCON INTO MPAC+2
002931: 41,3545           30160                           CA       MPAC       +4                         #  PRIO IN A
002932: 41,3546           00004                           INHINT
002933: 41,3547           00154                           TC       MPAC
002934:


002936: 41,3550           34354        SETVAC             CAF      TCFINDVC
002937: 41,3551           03533                           TC       REQEX1
002938:
002939:                                                                                                  #  VBRQWAIT ENTERS REQUEST TO WAITLIST FOR ANY ADDRESS WITH ANY DELAY.
002940:                                                                                                  #  IT DOES ENDOFJOB AFTER ENTERING REQUEST.DISPLAY SYST IS RELEASED.
002941:                                                                                                  #  IT ASSUMES NOUN 26 HAS BEEN PRELOADED WITH
002942:                                                                                                  #  COMPONENT 1  DELAY (LOW BITS)
002943:                                                                                                  #  COMPONENT 2  TASK ADRES (12 BIT)
002944:                                                                                                  #  COMPONENT 3  BBCON
002945:
002946: 41,3552           34352        VBRQWAIT           CAF      TCWAIT
002947: 41,3553           54154                           TS       MPAC                                  #  TC WAITLIST INTO MPAC
002948: 41,3554           31044                           CA       DSPTEM1                               #  TIME DELAY
002949: 41,3555           03536        ENDRQWT            TC       REQUESTC   -1
002950:
002951:                                                                                                  #  REQUESTC WILL PUT TASK ADRES INTO MPAC+1, BBCON INTO MPAC+2,
002952:                                                                                                  #  TC ENDOFJOB INTO MPAC+3. IT WILL TAKE TIME DELAY OUT OF MPAC+4 AND
002953:                                                                                                  #  LEAVE IT IN A, INHINT AND TC MPAC.
002954:
002955:
002956: 40,3473                                           SETLOC   NVSBENDL   +1
002957: 40,3473                                           COUNT*   $$/PIN
002958: 40,3473           34753        VBPROC             CAF      ONE                                   #  PROCEED WITHOUT DATA
002959: 40,3474           55013                           TS       LOADSTAT
002960: 40,3475           04204                           TC       KILMONON                              #  TURN ON KILL MONITOR BIT
002961: 40,3476           04457                           TC       RELDSP
002962: 40,3477           04433                           TC       FLASHOFF
002963: 40,3500           03607                           TC       RECALTST                              #  SEE IF THERE IS ANY RECALL FROM ENDIDLE
002964:
002965:
002966: 40,3501           44753        VBTERM             CS       ONE
002967: 40,3502           03474                           TC       VBPROC     +1                         #  TERM VERB SETS LOADSTAT NEG
002968:
002969:
002970:                                                                                                  #  PROCKEY PERFORMS THE SAME FUNCTION AS VBPROC.  IT MUST BE CALLED UNDER
002971:                                                                                                  #  EXECUTIVE CONTROL, WITH CHRPRIO.
002972: 40,3503           41000        PROCKEY            CS       VERBREG                               #  DONT ALLOW PROCEED DURING LOAD.
002973: 40,3504           63520                           AD       VBSP2LD*                              #  DEC 22
002974: 40,3505           00006                           EXTEND
002975: 40,3506           26000                           DIM      A
002976: 40,3507           00006                           EXTEND
002977: 40,3510           13465                           BZF      CHARALRM
002978: 40,3511           34755        PROCKEY1           CAF      ZERO                                  #  SET REQRET FOR ENTER PASS 0.
002979: 40,3512           55012                           TS       REQRET
002980: 40,3513           44360                           CS       VD1                                   #  BLOCK NUMERICAL CHARACTERS, SIGNS, CLEAR
002981: 40,3514           54776                           TS       DSPCOUNT
002982: 40,3515           03473                           TC       VBPROC
002983:
002984:
002985:                                                                                                  #  VBRESEQ WAKES ENDIDLE AT SAME LINE AS FINAL ENTER OF LOAD (L+3).


002987:                                                                                                  #  (MAIN USE IS INTENDED AS RESPONSE TO INTERNALLY INITIATED FLASHING
002988:                                                                                                  #   DISPLAYS IN ENDIDLE. SHOULD NOT BE USED WITH LOAD VERBS,PLEASE PERFORM,
002989:                                                                                                  #   OR PLEASE MARK VERBS BECAUSE THEY ALREADY USE L+3 IN ANOTHER CONTEXT.)
002990:
002991: 40,3516           44755        VBRESEQ            CS       ZERO                                  #  MAKE IT LOOK LIKE DATA IN.
002992: 40,3517           03474                           TC       VBPROC     +1
002993:
002994:
002995: 40,3520           00026        VBSP2LD*           DEC      22         B-14                       #  VB22 = BLOAD
002996:
002997:                                                                                                  #  FLASH IS TURNED OFF BY PROCEED WITHOUT DATA, TERMINATE, RESEQUENCE,
002998:                                                                                                  #  END OF LOAD.
002999:


003001:                                                                                                  #  KEY RELEASE ROUTINE
003002:
003003:                                                                                                  #  THIS ROUTINE ALWAYS TURNS OFF THE UPACT LIGHT AND ALWAYS CLEARS DSPLOCK.
003004:
003005:                                                                                                  #  THE HIGHEST PRIORITY FUNCTION OF THE KEY RELEASE BUTTON IS THE
003006:                                                                                                  #  UNSUSPENDING OF A SUSPENDED MONITOR WHICH WAS EXTERNALLY INITIATED.
003007:                                                                                                  #  THIS FUNCTION IS ACCOMPLISHED BY CLEARING DSPLOCK AND TURNING OFF
003008:                                                                                                  #  THE KEY RELEASE LIGHT IF BOTH DSPLIST AND CADRSTOR ARE EMPTY.
003009:
003010:                                                                                                  #  IF NO SUCH MONITOR EXISTS, THEN RELDSP IS EXECUTED TO CLEAR DSPLOCK
003011:                                                                                                  #  AND THE EXTERNAL MONITOR BIT (FREEING THE DISPLAY SYSTEM FOR INTERNAL
003012:                                                                                                  #  USE), TURN OFF THE KEY RELEASE LIGHT, AND WAKE UP ANY JOB IN DSPLIST.
003013:
003014:                                                                                                  #  IN ADDITION IF THERE IS A JOB IN ENDIDLE, THEN CONTROL IS TRANSFERRED
003015:                                                                                                  #  TO PINBRNCH (IN DISPLAY INTERFACE ROUTINE) TO RE-EXECUTE THE SERIES OF
003016:                                                                                                  #  NVSUB CALLS ETC. THAT PRECEDED THE ENDIDLE CALL STILL AWAITING RESPONSE.
003017:                                                                                                  #  THIS FEATURE IS INTENDED FOR USE WHEN THE OPERATOR HAS BEEN REQUESTED TO
003018:                                                                                                  #  RESPOND TO SOME INTERNAL ACTION THAT USED ENDIDLE, BUT HE HAS WRITTEN
003019:                                                                                                  #  OVER THE INFORMATION ON THE DISPLAY PANEL BY SOME DISPLAYS OF HIS OWN
003020:                                                                                                  #  INITIATION WHICH DO NOT SERVE AS RESPONSES. HITTING KEY RLSE WILL
003021:                                                                                                  #  RE-ESTABLISH THE DISPLAYS TO THE STATE THEY WERE IN BEFORE HE OBSCURED
003022:                                                                                                  #  THEM, SO THAT HE CAN SEE THE WAITING REQUEST.  THIS WORKS ONLY FOR
003023:                                                                                                  #  INTERNAL PROGRAMS THAT USED ENDIDLE THROUGH MARGARETS DISPLAY
003024:                                                                                                  #  SUBROUTINES.
003025:
003026: 40,3521           44751        VBRELDSP           CS       BIT3
003027: 40,3522           00006                           EXTEND
003028: 40,3523           03011                           WAND     DSALMOUT                              #  TURN OFF UPACT LITE
003029: 40,3524           10115                           CCS      21/22REG                              #  OLD DSPLOCK
003030: 40,3525           34736                           CAF      BIT14
003031: 40,3526           71020                           MASK     MONSAVE1                              #  EXTERNAL MONITOR BIT (EMB)
003032: 40,3527           10000                           CCS      A
003033: 40,3530           03537                           TC       UNSUSPEN                              #  OLD DSPLOCK AND EMB BOTH 1, UNSUSPEND.
003034: 40,3531           04457        TSTLTS4            TC       RELDSP                                #  NOT UNSUSPENDING EXTERNAL MONITOR,
003035: 40,3532           11041                           CCS      CADRSTOR                              #   RELEASE DISPLAY SYSTEM AND
003036: 40,3533           03535                           TC       +2                                    #   DO RE-ESTABLISH IF CADRSTOR IS FULL.
003037: 40,3534           05155                           TC       ENDOFJOB
003038: 40,3535           04635                           TC       POSTJUMP
003039: 40,3536           21051                           CADR     PINBRNCH
003040: 40,3537           34755        UNSUSPEN           CAF      ZERO                                  #  EXTERNAL MONITOR IS SUSPENDED,
003041: 40,3540           55011                           TS       DSPLOCK                               #   JUST UNSUSPEND IT BY CLEARING DSPLOCK.
003042: 40,3541           11041                           CCS      CADRSTOR                              #   TURN KEY RELEASE LIGHT OFF IF BOTH
003043: 40,3542           05155                           TC       ENDOFJOB                              #   CADRSTOR AND DSPLIST ARE EMPTY.
003044: 40,3543           04502                           TC       RELDSP1
003045: 40,3544           05155                           TC       ENDOFJOB
003046:
003047: 40,3545                        ENDRELDS           EQUALS
003048:


003050:                                                                                                  #  NVSUB IS USED FOR SUB ROUTINE CALLS FROM WITHIN COMPUTER. IT CAN BE
003051:                                                                                                  #  USED TO CALL THE COMBINATION OF ANY DISPLAY, LOAD, OR MONITOR VERB
003052:                                                                                                  #  TOGETHER WITH ANY NOUN AVAILABLE TO THE KEYBOARD.
003053:                                                                                                  #  PLACE 0VVVVVVVNNNNNNN INTO A.
003054:                                                                                                  #  V-S ARE THE 7 BIT VERB CODE.  N-S ARE THE 7 BIT NOUN CODE.
003055:
003056:                                                                                                  #  IF NVSUB IS CALLED WITH THE FOLLOWING NEGATIVE NUMBERS (RATHER THAN THE
003057:                                                                                                  #  VERB-NOUN CODE) IN A, THEN THE DISPLAY IS BLANKED AS FOLLOWS-
003058:                                                                                                  #   -4 FULL BLANK, -3 LEAVE MODE, -2 LEAVE MODE AND VERB, -1 BLANK R-S ONLY
003059:
003060:                                                                                                  #  NVSUB CAN BE USED WITH MACH CADR TO BE SPEC BY PLACING THE CADR INTO
003061:                                                                                                  #  MPAC+2 BEFORE THE STANDARD NVSUB CALL.
003062:
003063:                                                                                                  #   NVSUB RETURNS TO 2+ CALLING LOC AFTER PERFORMING TASK, IF DISPLAY
003064:                                                                                                  #  SYSTEM IS AVAILABLE. THE NEW NOUN AND VERB CODES ARE DISPLAYED.
003065:                                                                                                  #  IF V:S =0, THE NEW NOUN CODE IS DISPLAYED ONLY(RETURN WITH NO FURTHER
003066:                                                                                                  #  ACTION). IF N-S =0, THE NEW VERB CODE IS DISPLAYED ONLY(RETURN WITH NO
003067:                                                                                                  #  FURTHER ACTION).
003068:
003069:                                                                                                  #  IT RETURNS TO 1+ CALLING LOC WITHOUT PERFORMING TASK, IF DISPLAY
003070:                                                                                                  #  SYSTEM IS BLOCKED (NOTHING IS DISPLAYED IN THIS CASE).
003071:                                                                                                  #  IT DOES TC ABORT (WITH OCT 01501) IF IT ENCOUNTERS A DISPLAY PROGRAM
003072:                                                                                                  #  ALARM CONDITION BEFORE RETURN TO CALLER.
003073:
003074:                                                                                                  #  THE DISPLAY SYSTEM IS BLOCKED BY THE DEPRESSION OF ANY
003075:                                                                                                  #  KEY, EXCEPT ERROR LIGHT RESET
003076:                                                                                                  #  IT IS RELEASED BY THE KEY RELEASE BUTTON, ALL EXTENDED VERBS,
003077:                                                                                                  #  PROCEED WITHOUT DATA, TERMINATE, RESEQUENCE, INITIALIZE EXECUTIVE,
003078:                                                                                                  #  RECALL PART OF RECALTST IF ENDIDLE WAS USED,
003079:                                                                                                  #  VB = REQUEST EXECUTIVE, VB = REQUEST WAITLIST,
003080:                                                                                                  #  MONITOR SET UP.
003081:
003082:                                                                                                  #  THE DISPLAY SYSTEM IS ALSO BLOCKED BY THE EXTERNAL MONITOR BIT, WHICH
003083:                                                                                                  #  INDICATES AN EXTERNALLY INITIATED MONITOR IS RUNNING (SEE MONITOR)
003084:
003085:                                                                                                  #  A NVSUB CALL THAT PASSES DSPLOCK AND THE EXTERNAL MONITOR BIT ENDS OLD
003086:                                                                                                  #  MONITOR.
003087:
003088:                                                                                                  #  DSPLOCK IS THE INTERLOCK FOR USE OF KEYBOARD AND DISPLAY SYSTEM WHICH
003089:                                                                                                  #  LOCKS OUT INTERNAL USE WHENEVER THERE IS EXTERNAL KEYBOARD ACTION.
003090:
003091:                                                                                                  #  NVSUB SHOULD BE USED TWICE IN SUCCESSION FOR :PLEASE PERFORM: SITUATIONS
003092:                                                                                                  #  (SIMILARLY FOR PLEASE MARK). FIRST PLACE THE CODED NUMBER FOR WHAT
003093:                                                                                                  #  ACTION IS DESIRED OF OPERATOR INTO THE REGISTERS REFERRED TO BY THE
003094:                                                                                                  #  :CHECKLIST: NOUN. GO TO NVSUB WITH A DISPLAY VERB AND THE :CHECKLIST:
003095:                                                                                                  #  NOUN. GO TO NVSUB AGAIN WITH THE :PLEASE PERFORM: VERB AND ZEROS IN THE
003096:                                                                                                  #  LOW 7 BITS. THIS :PASTES UP: THE :PLEASE PERFORM: VERB INTO THE VERB
003097:                                                                                                  #  LIGHTS.
003098:
003099:                                                                                                  #  NVMONOPT IS AN ENTRY SIMILAR TO NVSUB, BUT REQUIRING AN ADDITIONAL


003101:                                                                                                  #  PARAMETER IN L. IT SHOULD BE USED ONLY WITH A MONITOR VERB-NOUN CODE IN
003102:                                                                                                  #  A. AFTER EACH MONITOR DISPLAY A *PLEASE* VERB WILL BE PASTED IN THE VERB
003103:                                                                                                  #  LIGHTS OR DATA WILL BE BLANKED (OR BOTH) ACCORDING TO THE OPTIONS
003104:                                                                                                  #  SPECIFIED IN L. IF BITS 8-14 OF L ARE OTHER THAN ZERO, THEN THEY WILL
003105:                                                                                                  #  BE INTERPRETED AS A VERB CODE AND PASTED IN THE VERB LIGHTS. (THIS VERB
003106:                                                                                                  #  CODE SHOULD DESIGNATE ONE OF THE *PLEASE* VERBS.) IF BITS 1-3 OF L ARE
003107:                                                                                                  #  OTHER THAN ZERO, THEN THEY WILL BE USED TO BLANK DATA BY BEING FED TO
003108:                                                                                                  #  BLANKSUB. IF NVMONOPT IS USED WITH A VERB OTHER THAN A MONITOR VERB,
003109:                                                                                                  #  THE PARAMETER IN L HAS NO EFFECT.
003110:
003111:                                                                                                  #  NVSUB IN FIXED-FIXED PLACES 2+CALLING LOC INTO NVQTEM, TC NVSUBEND INTO
003112:                                                                                                  #  ENTRET. (THIS WILL RESTORE OLD CALLING BANK BITS)
003113:
003114:    4154                                           SETLOC   ENDALM     +1
003115:
003116:    4154                                           COUNT*   $$/PIN
003117:    4154           22007        NVSUB              LXCH     7                                     #  ZERO NVMONOPT OPTIONS
003118:    4155           54123        NVMONOPT           TS       NVTEMP
003119:    4156           34736                           CAF      BIT14
003120:    4157           71020                           MASK     MONSAVE1                              #  EXTERNAL MONITOR BIT
003121:    4160           61011                           AD       DSPLOCK
003122:    4161           10000                           CCS      A
003123:    4162           00002                           TC       Q                                     #  DSP SYST BLOCKED. RET TO 1+ CALLING LOC
003124:    4163           34753                           CAF      ONE                                   #  DSP SYST AVAILABLE
003125:    4164           60002        NVSBCOM            AD       Q
003126:    4165           55036                           TS       NVQTEM                                #  2+ CALLING LOC INTO NVQTEM
003127:    4166           23021                           LXCH     MONSAVE2                              #  STORE NVMONOPT OPTIONS
003128:    4167           04204                           TC       KILMONON                              #  TURN ON KILL MONITOR BIT
003129:    4170           34201        NVSUBCOM           CAF      NVSBBBNK
003130:
003131:    4171           56006                           XCH      BBANK
003132:    4172           00006                           EXTEND                                         #  SAVE OLD SUPERBITS
003133:    4173           04007                           ROR      SUPERBNK
003134:    4174           55037                           TS       NVBNKTEM
003135:    4175           34201                           CAF      PINSUPBT
003136:    4176           00006                           EXTEND
003137:    4177           01007                           WRITE    SUPERBNK
003138:    4200           02020                           TC       NVSUBB                                #  GO TO NVSUB1 THRU STANDARD LOC
003139:    4201     0776                                  EBANK=   DSPCOUNT
003140:    4201           62101        NVSBBBNK           BBCON    NVSUB1
003141:
003142:    4202     4201               PINSUPBT           =        NVSBBBNK                              #  CONTAINS THE PINBALL SUPERBITS.
003143:
003144:    4202           53037        NVSUBEND           DXCH     NVQTEM                                #  NVBNKTEM MUST = NVQTEM+1
003145:    4203           05176                           TC       SUPDXCHZ                              #  DTCB WITH SUPERBIT SWITCHING
003146:
003147: 41,3556                                           SETLOC   ENDRQWT    +1
003148:
003149: 41,3556                                           COUNT*   $$/PIN
003150:                                                                                                  #  BLANKDSP BLANKS DISPLAY ACCORDING TO OPTION NUMBER IN NVTEMP AS FOLLOWS


003152:                                                                                                  #   -4 FULL BLANK, -3 LEAVE MODE, -2 LEAVE MODE AND VERB, -1 BLANK R-S ONLY
003153:
003154: 41,3556           64757        BLANKDSP           AD       SEVEN                                 #  7,8,9,OR 10 (A HAD 0,1,2,OR 3)
003155: 41,3557           00004                           INHINT
003156: 41,3560           54124                           TS       CODE                                  #  BLANK SPECIFIED DSPTABS
003157: 41,3561           44740                           CS       BIT12
003158: 41,3562           50124                           INDEX    CODE
003159: 41,3563           57022                           XCH      DSPTAB
003160: 41,3564           10000                           CCS      A
003161: 41,3565           25015                           INCR     NOUT
003162: 41,3566           03567                           TC       +1
003163: 41,3567           10124                           CCS      CODE
003164: 41,3570           03560                           TC       BLANKDSP   +2
003165: 41,3571           00003                           RELINT
003166: 41,3572           50123                           INDEX    NVTEMP
003167: 41,3573           03600                           TC       +5
003168: 41,3574           03575                           TC       +1                                    #  NVTEMP HAS -4 (NEVER TOUCH MODREG)
003169: 41,3575           55000                           TS       VERBREG                               #             -3
003170: 41,3576           55001                           TS       NOUNREG                               #             -2
003171: 41,3577           55014                           TS       CLPASS                                #             -1
003172: 41,3600           44360                           CS       VD1
003173: 41,3601           54776                           TS       DSPCOUNT
003174: 41,3602           04433                           TC       FLASHOFF                              #  PROTECT AGAINST INVISIBLE FLASH
003175: 41,3603           03626                           TC       ENTSET     -2                         #  ZEROS REQRET
003176:
003177: 41,3604           33630        NVSUB1             CAF      ENTSET                                #  IN BANK
003178: 41,3605           54136                           TS       ENTRET                                #  SET RETURN TO NVSUBEND
003179: 41,3606           10123                           CCS      NVTEMP                                #  WHAT NOW
003180: 41,3607           03613                           TC       +4                                    #  NORMAL NVSUB CALL (EXECUTE VN OR PASTE)
003181: 41,3610           02400                           TC       GODSPALM
003182: 41,3611           03556                           TC       BLANKDSP                              #  BLANK DISPLAY AS SPECIFIED
003183: 41,3612           02400                           TC       GODSPALM
003184: 41,3613           36106                           CAF      LOW7
003185: 41,3614           70123                           MASK     NVTEMP
003186: 41,3615           54157                           TS       MPAC       +3                         #  TEMP FOR NOUN (CANT USE MPAC. DSPDECVN
003187: 41,3616           30123                           CA       NVTEMP                                #                  USES MPAC, +1, +2
003188: 41,3617           54023                           TS       EDOP                                  #  RIGHT 7
003189: 41,3620           30023                           CA       EDOP
003190: 41,3621           54160                           TS       MPAC       +4                         #  TEMP FOR VERB (CANT USE MPAC+1. DSPDECVN
003191:                                                                                                  #                 USES MPAC, +1, +2).
003192: 41,3622           10157                           CCS      MPAC       +3                         #  TEST NOUN
003193: 41,3623           03631                           TC       NVSUB2                                #  IF NOUN NOT +0, GO ON
003194: 41,3624           30160                           CA       MPAC       +4
003195: 41,3625           02366                           TC       UPDATVB    -1                         #  IF NOUN = +0, DISPLAY VERB . THEN RETURN
003196: 41,3626           34755                           CAF      ZERO                                  #  ZERO REQRET SO THAT PASTED VERBS CAN
003197: 41,3627           55012                           TS       REQRET                                #  BE EXECUTED BY OPERATOR.
003198: 41,3630           04202        ENTSET             TC       NVSUBEND
003199: 41,3631           10160        NVSUB2             CCS      MPAC       +4                         #  TEST VERB
003200: 41,3632           03636                           TC       +4                                    #  IF VERB NOT +0, GO ON
003201: 41,3633           30157                           CA       MPAC       +3


003203: 41,3634           02346                           TC       UPDATNN    -1                         #  IF VERB = +0, DISPLAY NOUN. THEN RETURN
003204: 41,3635           04202                           TC       NVSUBEND
003205: 41,3636           30156                           CA       MPAC       +2                         #  TEMP FOR MACH CADR TO BE SPEC. (DSPDECVN
003206: 41,3637           54161                           TS       MPAC       +5                         #               USES MPAC, +1, +2)
003207: 41,3640           30160                           CA       MPAC       +4
003208: 41,3641           02366                           TC       UPDATVB    -1                         #  IF BOTH NOUN AND VERB NOT +0, DISPLAY
003209: 41,3642           30157                           CA       MPAC       +3                         #  BOTH AND GO TO ENTPAS0.
003210: 41,3643           02346                           TC       UPDATNN    -1
003211: 41,3644           34755                           CAF      ZERO
003212: 41,3645           55013                           TS       LOADSTAT                              #  SET FOR WAITING FOR DATA CONDITION
003213: 41,3646           55014                           TS       CLPASS
003214: 41,3647           55012                           TS       REQRET                                #  SET REQRET FOR PASS 0.
003215: 41,3650           30161                           CA       MPAC       +5                         #  RESTORES MACH CADR TO BE SPEC TO MPAC+2
003216: 41,3651           54156                           TS       MPAC       +2                         #  FOR USE IN INTMCTBS (IN ENTPAS0).
003217: 41,3652           02062        ENDNVSB1           TC       ENTPAS0
003218:
003219:
003220:                                                                                                  #  IF INTERNAL MACH CADR TO BE SPECIFIED, MPAC+2 WILL BE PLACED INTO
003221:                                                                                                  #  NOUNCADR IN ENTPAS0 (INTMCTBS ).
003222:
003223:
003224:    4204                                           SETLOC   NVSUBEND   +2
003225:    4204                                           COUNT*   $$/PIN
003226:                                                                                                  #  FORCE BIT 15 OF MONSAVE1 TO 1.
003227:    4204           34735        KILMONON           CAF      BIT15                                 #     THIS IS THE KILL MONITOR BIT.
003228:    4205           55020                           TS       MONSAVE1                              #  TURN OFF BIT 14, THE EXTERNAL
003229:                                                                                                  #   MONITOR BIT.
003230:    4206           00002                           TC       Q
003231:
003232:
003233:                                                                                                  #  LOADSTAT  +0 INACTIVE(WAITING FOR DATA). SET BY NVSUB
003234:                                                                                                  #            +1  PROCEED NO DATA. SET BY SPECIAL VERB
003235:                                                                                                  #           -1 TERMINATE   SET BY SPECIAL VERB
003236:                                                                                                  #           -0    DATA IN      SET BY END OF LOAD ROUTINE
003237:                                                                                                  #              OR RESEQUENCE   SET BY VERB 32
003238:
003239:
003240:                                                                                                  #  L  TC ENDIDLE  (FIXED FIXED)
003241:                                                                                                  #  ROUTINES THAT REQUEST LOADS THROUGH NVSUB SHOULD USE ENDIDLE WHILE
003242:                                                                                                  #  WAITING FOR THE DATA TO BE LOADED. ENDIDLE PUTS CURRENT JOB TO SLEEP.
003243:                                                                                                  #  ENDIDLE CANNOT BE CALLED FROM ERASABLE OR F/F MEMORY,
003244:                                                                                                  #  SINCE JOBSLEEP AND JOBWAKE CAN HANDLE ONLY FIXED BANKS.
003245:                                                                                                  #  RECALTST TESTS LOADSTAT AND WAKES JOB UP TO,
003246:                                                                                                  #  L+1      FOR TERMINATE
003247:                                                                                                  #  L+2      FOR PROCEED WITHOUT DATA
003248:                                                                                                  #  L+3      FOR DATA IN, OR RESEQUENCE
003249:                                                                                                  #  IT DOES NOTHING IF LOADSTAT INDICATES WAITING FOR DATA.
003250:
003251:
003252:                                                                                                  #  ENDIDLE ABORTS (WITH CODE 01206) IF A SECOND JOB ATTEMPTS TO GO TO SLEEP


003254:                                                                                                  #  IN PINBALL. IN PARTICULAR, IF AN ATTEMPT IS MADE TO GO TO ENDIDLE WHEN
003255:                                                                                                  #  1) CADRSTOR NOT= +0. THIS IS THE CASE WHERE THE CAPACITY OF ENDIDLE IS
003256:                                                                                                  #  EXCEEDED. (+-NZ INDICATE A JOB IS ALREADY ASLEEP DUE TO ENDIDLE.)
003257:                                                                                                  #  2) DSPLIST NOT= +0. THIS INDICATES A JOB IS ALREADY ASLEEP DUE TO
003258:                                                                                                  #  NVSUBUSY.
003259:
003260:    4207           22002        ENDIDLE            LXCH     Q                                     #  RETURN ADDRESS INTO L.
003261:    4210           04220                           TC       ISCADR+0                              #  ABORT IF CADRSTOR NOT= +0
003262:    4211           04224                           TC       ISLIST+0                              #  ABORT IF DSPLIST NOT= +0
003263:    4212           30001                           CA       L                                     #  DONT SET DSPLOCK TO 1 SO CAN USE
003264:    4213           75012                           MASK     LOW10                                 #  ENDIDLE WITH NVSUB INITIATED MONITOR.
003265:    4214           60004                           AD       FBANK                                 #  SAME STRATEGY FOR CADR AS MAKECADR.
003266:    4215           55041                           TS       CADRSTOR
003267:    4216           05133                           TC       JOBSLEEP
003268:
003269:
003270:    4217           05155        ENDINST            TC       ENDOFJOB
003271:
003272:
003273:    4220           11041        ISCADR+0           CCS      CADRSTOR                              #  ABORTS (CODE 01206) IF CADRSTOR NOT= +0.
003274:    4221           04227                           TC       DSPABORT                              #  RETURNS IF CADRSTOR = +0.
003275:    4222           00002                           TC       Q
003276:    4223           04227                           TC       DSPABORT
003277:
003278:    4224           11042        ISLIST+0           CCS      DSPLIST                               #  ABORTS (CODE 01206) IF DSPLIST NOT= +0.
003279:    4225           04227                           TC       DSPABORT                              #  RETURNS IF DSPLIST = +0.
003280:    4226           00002                           TC       Q
003281:    4227           05635        DSPABORT           TC       BAILOUT
003282:    4230           31206                           OCT      31206
003283:
003284:                                                                                                  #  JAMTERM ALLOWS PROGRAMS TO PERFORM THE TERMINATE FUNCTION.
003285:                                                                                                  #  IT DOES ENDOFJOB.
003286:
003287:    4231           34201        JAMTERM            CAF      PINSUPBT
003288:    4232           00006                           EXTEND
003289:    4233           01007                           WRITE    SUPERBNK
003290:    4234           34242                           CAF      34DEC
003291:    4235           55012                           TS       REQRET                                #  LEAVE ENTER SET FOR ENTPASS0.
003292:    4236           44360                           CS       VD1
003293:    4237           54776                           TS       DSPCOUNT
003294:    4240           04635                           TC       POSTJUMP
003295:    4241           61501                           CADR     VBTERM
003296:
003297:    4242           00042        34DEC              DEC      34         B-14
003298:
003299:
003300:                                                                                                  #  JAMPROC ALLOWS PROGRAMS TO PERFORM THE PROCEED/PROCEED WITHOUT DATA
003301:                                                                                                  #  FUNCTION. IT DOES ENDOFJOB.
003302:
003303:    4243           34201        JAMPROC            CAF      PINSUPBT


003305:    4244           00006                           EXTEND
003306:    4245           01007                           WRITE    SUPERBNK
003307:    4246           34254                           CAF      33DEC
003308:    4247           55012                           TS       REQRET                                #  LEAVE ENTER SET FOR ENTPASS0.
003309:    4250           44360                           CS       VD1
003310:    4251           54776                           TS       DSPCOUNT
003311:    4252           04635                           TC       POSTJUMP
003312:    4253           61473                           CADR     VBPROC
003313:
003314:    4254           00041        33DEC              DEC      33         B-14
003315:
003316:
003317:                                                                                                  #  BLANKSUB BLANKS ANY COMBINATION OF R1, R2, R3.
003318:                                                                                                  #  CALL WITH BLANKING CODE IN A.
003319:                                                                                                  #  BIT1=1 BLANKS R1, BIT2=1 BLANKS R2, BIT3=1 BLANKS R3.
003320:                                                                                                  #  ANY COMBINATION OF THESE BITS IS ACCEPTED.
003321:
003322:                                                                                                  #  DSPCOUNT IS RESTORED TO STATE IT WAS IN BEFORE BLANKSUB WAS EXECUTED.
003323:
003324:    4255           74757        BLANKSUB           MASK     SEVEN
003325:    4256           54123                           TS       NVTEMP                                #  STORE BLANKING CODE IN NVTEMP.
003326:    4257           34736                           CAF      BIT14
003327:    4260           71020                           MASK     MONSAVE1                              #  EXTERNAL MONITOR BIT
003328:    4261           61011                           AD       DSPLOCK
003329:    4262           10000                           CCS      A
003330:    4263           00002                           TC       Q                                     #  DSP SYST BLOCKED. RET TO 1+ CALLING LOC
003331:    4264           24002                           INCR     Q                                     #  DSP SYST AVAILABLE
003332:                                                                                                  #  SET RETURN FOR 2+ CALLING LOC
003333:    4265           10123                           CCS      NVTEMP
003334:    4266           14270                           TCF      +2
003335:    4267           00002                           TC       Q                                     #  NOTHING TO BLANK. RET TO 2+ CALLING LOC
003336:    4270           22002                           LXCH     Q                                     #  SET RETURN FOR 2 + CALLING LOC
003337:    4271           34302                           CAF      BLNKBBNK
003338:    4272           56006                           XCH      BBANK
003339:    4273           00006                           EXTEND
003340:    4274           04007                           ROR      SUPERBNK                              #  SAVE OLD SUPERBITS.
003341:    4275           52131                           DXCH     BUF
003342:    4276           34201                           CAF      PINSUPBT
003343:    4277           00006                           EXTEND
003344:    4300           01007                           WRITE    SUPERBNK
003345:    4301           03545                           TC       BLNKSUB1
003346:
003347:    4302     0776                                  EBANK=   DSPCOUNT
003348:    4302           60101        BLNKBBNK           BBCON    BLNKSUB1
003349:    4303                        ENDBLFF            EQUALS
003350:
003351: 40,3545                                           SETLOC   ENDRELDS
003352: 40,3545                                           COUNT*   $$/PIN
003353: 40,3545           30776        BLNKSUB1           CA       DSPCOUNT                              #  SAVE OLD DSPCOUNT FOR LATER RESTORATION
003354: 40,3546           54132                           TS       BUF        +2


003356: 40,3547           34753                           CAF      BIT1                                  #  TEST BIT1. SEE IF R1 TO BE BLANKED.
003357: 40,3550           03567                           TC       TESTBIT
003358: 40,3551           34317                           CAF      R1D1
003359: 40,3552           02524                           TC       5BLANK     -1
003360: 40,3553           34752                           CAF      BIT2                                  #  TEST BIT 2. SEE IF R2 TO BE BLANKED.
003361: 40,3554           03567                           TC       TESTBIT
003362: 40,3555           34320                           CAF      R2D1
003363: 40,3556           02524                           TC       5BLANK     -1
003364: 40,3557           34751                           CAF      BIT3                                  #  TEST BIT3. SEE IF R3 TO BE BLANKED.
003365: 40,3560           03567                           TC       TESTBIT
003366: 40,3561           34321                           CAF      R3D1
003367: 40,3562           02524                           TC       5BLANK     -1
003368: 40,3563           30132                           CA       BUF        +2                         #  RESTORE DSPCOUNT TO STATE IT HAD
003369: 40,3564           54776                           TS       DSPCOUNT                              #       BEFORE BLANKSUB.
003370: 40,3565           52131                           DXCH     BUF                                   #  CALL L+2 DIRECTLY.
003371: 40,3566           05177                           TC       SUPDXCHZ   +1                         #  DTCB WITH SUPERBIT SWITCHING
003372:
003373: 40,3567           70123        TESTBIT            MASK     NVTEMP                                #  NVTEMP CONTAINS BLANKING CODE.
003374: 40,3570           10000                           CCS      A
003375: 40,3571           00002                           TC       Q                                     #  IF CURRENT BIT = 1, RETURN TO L+1.
003376: 40,3572           50002                           INDEX    Q                                     #  IF CURRENT BIT = 0, RETURN TO L+3.
003377: 40,3573           00002                           TC       2
003378:
003379: 40,3574                        ENDBSUB1           EQUALS
003380:
003381:
003382:                                                                                                  #  DSPMM DOES NOT DISPLAY MODREG DIRECTLY. IT PUTS IN EXEC REQUEST WITH
003383:                                                                                                  #  PRIO 30000 FOR DSPMMJB AND RETURNS TO CALLER.
003384:
003385:                                                                                                  #  IF MODREG CONTAINS -0, DSPMMJB BLANKS THE MODE LIGHTS.
003386:
003387:                                                                                                  #  DSPMM MUST BE IN BANK 27 OR LOWER, SO IT CAN BE CALLED VIA BANKCALL.
003388:
003389: 07,2661                                           BANK     7
003390: 04,2000                                           SETLOC   PINBALL4
003391: 04,2000                                           BANK
003392:
003393: 04,2630                                           COUNT*   $$/PIN
003394: 04,2630           56002        DSPMM              XCH      Q
003395: 04,2631           54154                           TS       MPAC
003396: 04,2632           00004                           INHINT
003397: 04,2633           34355                           CAF      CHRPRIO
003398: 04,2634           05072                           TC       NOVAC
003399: 04,2635     0776                                  EBANK=   DSPCOUNT
003400: 04,2635           03574 60101                     2CADR    DSPMMJB
003401:
003402: 04,2637           00003                           RELINT
003403: 04,2640           00154        ENDSPMM            TC       MPAC
003404:
003405:                                                                                                  #  DSPMM  PLACE MAJOR MODE CODE INTO MODREG
003406:


003408: 40,3574                                           SETLOC   ENDBSUB1
003409:
003410: 40,3574                                           COUNT*   $$/PIN
003411: 40,3574           34362        DSPMMJB            CAF      MD1                                   #  GETS HERE THRU DSPMM
003412: 40,3575           56776                           XCH      DSPCOUNT
003413: 40,3576           54140                           TS       DSPMMTEM                              #  SAVE DSPCOUNT
003414: 40,3577           11010                           CCS      MODREG
003415: 40,3600           64753                           AD       ONE
003416: 40,3601           03337                           TC       DSPDECVN                              #  IF MODREG IS + OR +0, DISPLAY MODREG
003417: 40,3602           03604                           TC       +2                                    #  IF MODREG IS -NZ, DO NOTHING
003418: 40,3603           02570                           TC       2BLANK                                #  IF MODREG IS -0, BLANK MM
003419: 40,3604           56140                           XCH      DSPMMTEM                              #  RESTORE DSPCOUNT
003420: 40,3605           54776                           TS       DSPCOUNT
003421: 40,3606           05155                           TC       ENDOFJOB
003422:
003423:
003424:                                                                                                  #  RECALTST IS ENTERED DIRECTLY AFTER DATA IS LOADED (OR RESEQUENCE VERB IS
003425:                                                                                                  #  EXECUTED), TERMINATE VERB IS EXECUTED, OR PROCEED WITHOUT DATA VERB IS
003426:                                                                                                  #  EXECUTED. IT WAKES UP JOB THAT DID TC ENDIDLE.
003427:
003428:                                                                                                  #  IF CADRSTOR NOT= +0, IT PUTS +0 INTO DSPLOCK, AND TURNS OFF KEY RLSE
003429:                                                                                                  #  LIGHT IF DSPLIST IS EMPTY (LEAVES KEY RLSE LIGHT ALONE IF NOT EMPTY).
003430:
003431: 40,3607           11041        RECALTST           CCS      CADRSTOR
003432: 40,3610           03612                           TC       RECAL1
003433: 40,3611           05155                           TC       ENDOFJOB                              #  NORMAL EXIT IF KEYBOARD INITIATED
003434: 40,3612           34755        RECAL1             CAF      ZERO
003435: 40,3613           57041                           XCH      CADRSTOR
003436: 40,3614           00004                           INHINT
003437: 40,3615           05137                           TC       JOBWAKE
003438: 40,3616           11013                           CCS      LOADSTAT
003439: 40,3617           03641                           TC       DOPROC                                #  + PROCEED WITHOUT DATA
003440: 40,3620           05155                           TC       ENDOFJOB                              #  PATHALOGICAL CASE EXIT
003441: 40,3621           03637                           TC       DOTERM                                #  -   TERMINATE
003442: 40,3622           34752                           CAF      TWO                                   #  -0 DATA IN OR RESEQUENCE
003443: 40,3623           50064        RECAL2             INDEX    LOCCTR
003444: 40,3624           60164                           AD       LOC                                   #  LOC IS + FOR BASIC JOBS
003445: 40,3625           50064                           INDEX    LOCCTR
003446: 40,3626           54164                           TS       LOC
003447: 40,3627           31001                           CA       NOUNREG                               #  SAVE VERB IN MPAC, NOUN IN MPAC+1 AT
003448: 40,3630           54001                           TS       L                                     #  TIME OF RESPONSE TO ENDIDLE FOR
003449: 40,3631           31000                           CA       VERBREG                               #  POSSIBLE LATER TESTING BY JOB THAT HAS
003450: 40,3632           50064                           INDEX    LOCCTR                                #  BEEN WAKED UP.
003451: 40,3633           52155                           DXCH     MPAC
003452: 40,3634           00003                           RELINT
003453: 40,3635           04457        RECAL3             TC       RELDSP
003454: 40,3636           05155                           TC       ENDOFJOB
003455:
003456: 40,3637           34755        DOTERM             CAF      ZERO
003457: 40,3640           03623                           TC       RECAL2
003458:


003460: 40,3641           34753        DOPROC             CAF      ONE
003461: 40,3642           03623                           TC       RECAL2
003462:


003464:                                                                                                  #  MISCELLANEOUS SERVICE ROUTINES IN FIXED/FIXED
003465:
003466:    4303                                           SETLOC   ENDBLFF
003467:
003468:    4303                                           COUNT*   $$/PIN
003469:                                                                                                  #  SETNCADR       E CADR ARRIVES IN A. IT IS STORED IN NOUNCADR. EBANK BITS
003470:                                                                                                  #                 ARE SET. E ADRES IS DERIVED AND PUT INTO NOUNADD.
003471:
003472:    4303           55016        SETNCADR           TS       NOUNCADR                              #  STORE ECADR
003473:    4304           54003                           TS       EBANK                                 #  SET EBANK BITS
003474:    4305           74357                           MASK     LOW8
003475:    4306           65007                           AD       OCT1400
003476:    4307           54145                           TS       NOUNADD                               #  PUT E ADRES INTO NOUNADD
003477:    4310           00002                           TC       Q
003478:
003479:
003480:                                                                                                  #  SETNADD        GETS E CADR FROM NOUNCADR, SETS EBANK BITS, DERIVES
003481:                                                                                                  #                 E ADRES AND PUTS IT INTO NOUNADD.
003482:
003483:    4311           31016        SETNADD            CA       NOUNCADR
003484:    4312           14304                           TCF      SETNCADR   +1
003485:
003486:                                                                                                  #  SETEBANK       E CADR ARRIVES IN A. EBANK BITS ARE SET. E ADRES IS
003487:                                                                                                  #                 DERIVED AND LEFT IN A.
003488:
003489:    4313           54003        SETEBANK           TS       EBANK                                 #  SET EBANK BITS
003490:    4314           74357                           MASK     LOW8
003491:    4315           65007                           AD       OCT1400                               #  E ADRES LEFT IN A
003492:    4316           00002                           TC       Q
003493:
003494:
003495:    4317           00016        R1D1               OCT      16                                    #  THESE 3 CONSTANTS FORM A PACKED TABLE.
003496:    4320           00011        R2D1               OCT      11                                    #  DONT SEPARATE.
003497:    4321           00004        R3D1               OCT      4
003498:
003499:    4322           54020        RIGHT5             TS       CYR
003500:    4323           40020                           CS       CYR
003501:    4324           40020                           CS       CYR
003502:    4325           40020                           CS       CYR
003503:    4326           40020                           CS       CYR
003504:    4327           56020                           XCH      CYR
003505:    4330           00002                           TC       Q
003506:
003507:    4331           54022        LEFT5              TS       CYL
003508:    4332           40022                           CS       CYL
003509:    4333           40022                           CS       CYL
003510:    4334           40022                           CS       CYL
003511:    4335           40022                           CS       CYL


003513:    4336           56022                           XCH      CYL
003514:    4337           00002                           TC       Q
003515:
003516:    4340           60000        SLEFT5             DOUBLE
003517:    4341           60000                           DOUBLE
003518:    4342           60000                           DOUBLE
003519:    4343           60000                           DOUBLE
003520:    4344           60000                           DOUBLE
003521:    4345           00002                           TC       Q
003522:
003523:
003524:    4346           00037        LOW5               OCT      37                                    #  THESE 3 CONSTANTS FORM A PACKED TABLE.
003525:    4347           01740        MID5               OCT      1740                                  #  DONT SEPARATE.
003526:    4350           76000        HI5                OCT      76000                                 #  MUST STAY HERE
003527:
003528:    4351           05072        TCNOVAC            TC       NOVAC
003529:    4352           05214        TCWAIT             TC       WAITLIST
003530:    4353           05272        TCTSKOVR           TC       TASKOVER
003531:    4354           05105        TCFINDVC           TC       FINDVAC
003532:
003533:
003534:    4355           30000        CHRPRIO            OCT      30000                                 #  EXEC PRIORITY OF CHARIN
003535:
003536:
003537:    4356           03777        LOW11              OCT      3777
003538:    4357     4356               B12-1              EQUALS   LOW11
003539:    4357           00377        LOW8               OCT      377
003540:
003541:
003542:    4360           00023        VD1                OCT      23                                    #  THESE 3 CONSTANTS FORM A PACKED TABLE.
003543:    4361           00021        ND1                OCT      21                                    #  DONT SEPARATE.
003544:    4362           00025        MD1                OCT      25
003545:
003546:    4363           00012        BINCON             DEC      10         B-14
003547:
003548:    4364           34745        FALTON             CA       BIT7                                  #  TURN ON OPERATOR ERROR LIGHT
003549:    4365           00006                           EXTEND
003550:    4366           05011                           WOR      DSALMOUT                              #  BIT 7 OF CHANNEL 11
003551:    4367           00002                           TC       Q
003552:
003553:    4370           44745        FALTOF             CS       BIT7                                  #  TURN OFF OPERATOR ERROR LIGHT
003554:    4371           00006                           EXTEND
003555:    4372           03011                           WAND     DSALMOUT                              #  BIT 7 OF CHANNEL 11
003556:    4373           00002                           TC       Q
003557:
003558:    4374           34747        RELDSPON           CAF      BIT5                                  #  TURN ON KEY RELEASE LIGHT
003559:    4375           00006                           EXTEND
003560:    4376           05011                           WOR      DSALMOUT                              #  BIT 5 OF CHANNEL 11
003561:    4377           00002                           TC       Q
003562:


003564:    4400           00006        LODSAMPT           EXTEND
003565:    4401           30025                           DCA      TIME2
003566:    4402           52014                           DXCH     SAMPTIME
003567:    4403           00002                           TC       Q
003568:
003569:
003570:    4404           00006        TPSL1              EXTEND                                         #  SHIFTS MPAC, +1, +2 LEFT 1
003571:    4405           30156                           DCA      MPAC       +1                         #  LEAVES OVFIND SET TO +/- 1 FOR OF/UF
003572:    4406           20156                           DAS      MPAC       +1
003573:    4407           60154                           AD       MPAC
003574:    4410           26154                           ADS      MPAC
003575:    4411           54007                           TS       7                                     #  TS A DOES NOT CHANGE A ON OF/UF.
003576:    4412           00002                           TC       Q                                     #  NO NET OF/UF
003577:    4413           54162                           TS       MPAC+6                                #  MPAC +6 SET TO +/-1 FOR OF/UF
003578:    4414           00002                           TC       Q
003579:
003580:
003581:                                                                                                  #  IF MPAC, +1 ARE EACH +NZ OR +0 AND C(A)=-0, SHORTMP WRONGLY GIVES +0.
003582:                                                                                                  #  IF MPAC, +1 ARE EACH -NZ OR -0 AND C(A)=+0, SHORTMP WRONGLY GIVES +0.
003583:                                                                                                  #  PRSHRTMP FIXES FIRST CASE ONLY, BY MERELY TESTING C(A) AND IF IT = -0,
003584:                                                                                                  #  SETTING RESULT TO -0.
003585:                                                                                                  #   (DO NOT USE PRSHRTMP UNLESS MPAC, +1 ARE EACH +NZ OR +0, AS THEY ARE
003586:                                                                                                  #   WHEN THEY CONTAIN TH E SF CONSTANTS.)
003587:
003588:    4415           54135        PRSHRTMP           TS       MPTEMP
003589:    4416           10000                           CCS      A
003590:    4417           30135                           CA       MPTEMP                                #  C(A) +, DO REGULAR SHORTMP
003591:    4420           17322                           TCF      SHORTMP    +1                         #  C(A) +0, DO REGULAR SHORTMP
003592:    4421           14417                           TCF      -2                                    #  C(A) -, DO REGULAR SHORTMP
003593:    4422           44755                           CS       ZERO                                  #  C(A) -0, FORCE RESULT TO -0 AND RETURN.
003594:    4423           54154                           TS       MPAC
003595:    4424           54155                           TS       MPAC       +1
003596:    4425           54156                           TS       MPAC       +2
003597:    4426           00002                           TC       Q
003598:
003599:
003600:    4427           34746        FLASHON            CAF      BIT6                                  #  TURN ON V/N FLASH
003601:    4430           00006                           EXTEND                                         #  BIT 6 OF CHANNEL 11
003602:    4431           05011                           WOR      DSALMOUT
003603:    4432           00002                           TC       Q
003604:
003605:
003606:    4433           44746        FLASHOFF           CS       BIT6                                  #  TURN OFF V/N FLASH
003607:    4434           00006                           EXTEND
003608:    4435           03011                           WAND     DSALMOUT                              #  BIT 6 OF CHANNEL 11
003609:    4436           00002                           TC       Q
003610:


003612:                                                                                                  #  INTERNAL USE OF KEYBOARD AND DISPLAY PROGRAM
003613:
003614:                                                                                                  #  USER MUST SCHEDULE CALLS TO NVSUB SO THAT THERE IS NO CONFLICT OF USE OR
003615:                                                                                                  #  CONFUSION TO OPERATOR. THE OLD GRABLOCK (INTERNAL/INTERNAL INTERLOCK)
003616:                                                                                                  #  HAS BEEN REMOVED AND THE INTERNAL USER NO LONGER HAS THE PROTECTION THIS
003617:                                                                                                  #  OFFERED.
003618:
003619:                                                                                                  #  THERE ARE TWO WAYS A JOB CAN BE PUT TO SLEEP BY THE KEYBOARD + DISPLAY
003620:                                                                                                  #  PROGRAM.    1) BY ENDIDLE
003621:                                                                                                  #              2) BY NVSUBUSY
003622:                                                                                                  #  THE BASIC CONVENTION IS THAT ONLY ONE JOB WILL BE PERMITTED ASLEEP VIA
003623:                                                                                                  #  THE KEYBOARD + DISPLAY PROGRAM AT A TIME. IF A JOB ATTEMPTS TO GO TO
003624:                                                                                                  #  SLEEP BY MEANS OF (1) OR (2) AND THERE IS ALREADY A JOB ASLEEP THAT WAS
003625:                                                                                                  #  PUT TO SLEEP BY (1) OR (2), THEN AN ABORT IS CAUSED.
003626:
003627:
003628:                                                                                                  #  THE CALLING SEQUENCE FOR NVSUB IS
003629:                                                                                                  #           CAF    V/N
003630:                                                                                                  #  L        TC     NVSUB
003631:                                                                                                  #  L+1      RETURN HERE IF OPERATOR HAS INTERVENED
003632:                                                                                                  #  L+2      RETURN HERE AFTER EXECUTION
003633:
003634:
003635:                                                                                                  #        A ROUTINE CALLED  NVSUBUSY IS PROVIDED (USE IS OPTIONAL)  TO PUT
003636:                                                                                                  #  YOUR JOB TO SLEEP UNTIL THE OPERATOR RELEASES THE KEYBOARD + DISPLAY
003637:                                                                                                  #  SYSTEM. NVSUBUSY ALSO TURNS ON THE KEY RELEASE LIGHT.
003638:                                                                                                  #  NVSUBUSY CANNOT BE CALLED FROM ERASABLE OR F/F MEMORY,
003639:                                                                                                  #  SINCE JOBSLEEP AND JOBWAKE CAN HANDLE ONLY FIXED BANKS.
003640:
003641:
003642:                                                                                                  #         THE CALLING SEQUENCE IS
003643:                                                                                                  #           CAF    WAKEFCADR
003644:                                                                                                  #           TC     NVSUBUSY
003645:
003646:
003647:                                                                                                  #  .
003648:
003649:
003650:                                                                                                  #  NVSUBUSY IS INTENDED FOR USE WHEN AN INTERNAL PROGRAM FINDS THE OPERATOR
003651:                                                                                                  #  IS USING THE KEYBOARD + DISPLAY PROGRAM (BY HIS OWN INITIATION). IT IS
003652:                                                                                                  #  NOT INTENDED FOR USE WHEN ONE INTERNAL PROGRAM FINDS ANOTHER INTERNAL
003653:                                                                                                  #  PROGRAM USING THE KEYBOARD + DISPLAY PROGRAM.
003654:
003655:
003656:                                                                                                  #  NVSUBUSY ABORTS (WITH CODE 01206) IF A SECOND JOB ATTEMPTS TO GO TO
003657:                                                                                                  #  SLEEP IN PINBALL. IN PARTICULAR, IF AN ATTEMPT IS MADE TO GO TO NVSUBUSY
003658:                                                                                                  #  WHEN
003659:                                                                                                  #  1) DSPLIST NOT= +0. THIS IS THE CASE WHERE THE CAPACITY OF THE DSPLIST
003660:                                                                                                  #     IS EXCEEDED.
003661:                                                                                                  #  2) CADRSTOR NOT= +0. THIS INDICATES THAT A JOB IS ALREADY USING


003663:                                                                                                  #  ENDIDLE. (+-NZ INDICATE A JOB IS ALREADY ASLEEP DUE TO ENDIDLE.)
003664:
003665:    4437           44444        PRENVBSY           CS       2K+3                                  #  SPECIAL ENTRANCE FOR ROUTINES IN FIXED
003666:    4440           60002                           AD       Q                                     #  BANKS ONLY DESIRING THE FCADR OF(LOC
003667:    4441           60004                           AD       FBANK                                 #  FROM WHICH THE TC PRENVBSY WAS DONE) -2
003668:    4442           04635        NVSUBUSY           TC       POSTJUMP                              #  TO BE ENTERED.
003669:    4443           10641                           CADR     NVSUBSY1
003670:    4444           02003        2K+3               OCT      2003
003671:
003672:                                                                                                  #  NVSUBSY1 MUST BE IN BANK 27 OR LOWER, SO IT WILL PUT CALLER TO SLEEP
003673:                                                                                                  #  WITH HIS PROPER SUPERBITS.
003674:
003675: 04,2641                                           SETLOC   ENDSPMM    +1
003676: 04,2641                                           COUNT*   $$/PIN
003677: 04,2641           54001        NVSUBSY1           TS       L
003678: 04,2642           04220                           TC       ISCADR+0                              #  ABORT IF CADRSTOR NOT= +0.
003679: 04,2643           04224                           TC       ISLIST+0                              #  ABORT IF DSPLIST NOT= +0.
003680: 04,2644           04374                           TC       RELDSPON
003681: 04,2645           30001                           CA       L
003682: 04,2646           55042                           TS       DSPLIST
003683: 04,2647           05133        ENDNVBSY           TC       JOBSLEEP
003684:
003685:
003686:                                                                                                  #  NVSBWAIT IS A SPECIAL ENTRANCE FOR ROUTINES IN FIXED BANKS ONLY. IF
003687:                                                                                                  #  SYSTEM IS NOT BUSY, IT EXECUTES V/N AND RETURNS TO L+1 (L= LOC FROM
003688:                                                                                                  #  WHICH THE TC NVSBWAIT WAS DONE). IF SYSTEM IS BUSY, IT PUTS CALLING JOB
003689:                                                                                                  #  TO SLEEP WITH L-1 GOING INTO LIST FOR EVENTUAL WAKING UP WHEN SYSTEM
003690:                                                                                                  #  IS NOT BUSY.
003691:
003692:    4445                                           SETLOC   NVSUBUSY   +3
003693:    4445                                           COUNT*   $$/PIN
003694:    4445           22007        NVSBWAIT           LXCH     7                                     #  ZERO NVMONOPT OPTIONS
003695:    4446           54123                           TS       NVTEMP
003696:    4447           34736                           CAF      BIT14
003697:    4450           71020                           MASK     MONSAVE1                              #  EXTERNAL MONITOR BIT
003698:    4451           61011                           AD       DSPLOCK
003699:    4452           10000                           CCS      A
003700:    4453           14455                           TCF      NVSBWT1                               #  BUSY
003701:    4454           14164                           TCF      NVSBCOM                               #  FREE. NVSUB WILL SAVE L+1 FOR RETURN
003702:                                                                                                  #  AFTER EXECUTION.
003703:    4455           24002        NVSBWT1            INCR     Q                                     #  L+2. PRENVBSY WILL PUT L-1 INTO LIST AND
003704:    4456           14437                           TCF      PRENVBSY                              #  GO TO SLEEP.
003705:
003706:
003707:                                                                                                  #  RELDSP IS USED BY VBPROC, VBTERM, VBRQEXEC, VBRQWAIT, VBRELDSP, EXTENDED
003708:                                                                                                  #  VERB DISPATCHER, VBRESEQ, RECALTST.
003709:                                                                                                  #  RELDSP1 IS USED BY MONITOR SET UP, VBRELDSP.
003710:    4457           56002        RELDSP             XCH      Q                                     #  SET DSPLOCK TO +0, TURN RELDSP LIGHT
003711:    4460           54144                           TS       RELRET                                #  OFF,  SEARCH DSPLIST
003712:    4461           44736                           CS       BIT14


003714:    4462           00004                           INHINT
003715:    4463           71020                           MASK     MONSAVE1
003716:    4464           55020                           TS       MONSAVE1                              #  TURN OFF EXTERNAL MONITOR BIT
003717:    4465           11042                           CCS      DSPLIST
003718:    4466           04470                           TC       +2
003719:    4467           04473                           TC       RELDSP2                               #  LIST EMPTY
003720:    4470           34755                           CAF      ZERO
003721:    4471           57042                           XCH      DSPLIST
003722:    4472           05137                           TC       JOBWAKE
003723:    4473           00003        RELDSP2            RELINT
003724:    4474           44747                           CS       BIT5                                  #  TURN OFF KEY RELEASE LIGHT
003725:    4475           00006                           EXTEND                                         #  (BIT 5 OF CHANNEL 11)
003726:    4476           03011                           WAND     DSALMOUT
003727:    4477           34755                           CAF      ZERO
003728:    4500           55011                           TS       DSPLOCK
003729:    4501           00144                           TC       RELRET
003730:    4502           56002        RELDSP1            XCH      Q                                     #  SET DSPLOCK TO +0. NO DSPLIST SEARCH.
003731:    4503           54144                           TS       RELRET                                #  TURN KEY RLSE LIGHT OFF IF DSPLIST IS
003732:                                                                                                  #  EMPTY. LEAVE KEY RLSE LIGHT ALONE IF
003733:                                                                                                  #  DSPLIST IS NOT EMPTY.
003734:    4504           11042                           CCS      DSPLIST
003735:    4505           04507                           TC       +2                                    #  +  NOT EMPTY. LEAVE KEY RLSE LIGHT ALONE
003736:    4506           04473                           TC       RELDSP2                               #  +0 EMPTY. TURN OFF KEY RLSE LIGHT
003737:    4507           34755                           CAF      ZERO                                  #  -  NOT EMPTY. LEAVE KEY RLSE LIGHT ALONE
003738:    4510           55011                           TS       DSPLOCK
003739:    4511           00144                           TC       RELRET
003740:
003741:
003742:    4512                        ENDPINBF           EQUALS
003743:


003745:                                                                                                  #  PINTEST IS NEEDED FOR AUTO CHECK OF PINBALL.
003746:
003747:    4512  43,2002               PINTEST            EQUALS   LST2FAN
003748:


003750:                                                                                                  #  VBTSTLTS TURNS ON ALL DISPLAY PANEL LIGHTS. AFTER 5 SEC, IT TURNS
003751:                                                                                                  #  OFF THE CAUTION AND STATUS LIGHTS.
003752:
003753: 41,3653                                           SETLOC   ENDNVSB1   +1
003754:
003755: 41,3653                                           COUNT*   $$/PIN
003756: 41,3653           00004        VBTSTLTS           INHINT
003757: 41,3654           04616                           TC       BANKCALL                              #  OPP ERR IF NOT IN POO
003758: 41,3655           66121                           CADR     CHKPOOH
003759: 41,3656           44753                           CS       BIT1                                  #  SET BIT 1 OF IMODES33 SO IMUMON WONT
003760: 41,3657           71300                           MASK     IMODES33                              #  TURN OUT ANY LAMPS.
003761: 41,3660           64753                           AD       BIT1
003762: 41,3661           55300                           TS       IMODES33
003763:
003764: 41,3662           33721                           CAF      TSTCON1                               #  TURN ON UPLINK ACTIVITY, TEMP, KEY RLSE,
003765: 41,3663           00006                           EXTEND                                         #  V/N FLASH, OPERATOR ERROR.
003766: 41,3664           05011                           WOR      DSALMOUT
003767: 41,3665           33722                           CAF      TSTCON2                               #  TURN ON NO ATT, GIMBAL LOCK, TRACKER,
003768: 41,3666           55035                           TS       DSPTAB     +11D                       #  PROG ALM.
003769: 41,3667           06022                           TC       C13STALL
003770: 41,3670           34742                           CAF      BIT10                                 #  TURN ON TEST ALARM OUTBIT
003771: 41,3671           00006                           EXTEND
003772: 41,3672           05013                           WOR      CHAN13
003773: 41,3673           34363                           CAF      TEN
003774: 41,3674           54117        TSTLTS1            TS       ERCNT
003775: 41,3675           43717                           CS       FULLDSP
003776: 41,3676           50117                           INDEX    ERCNT
003777: 41,3677           55022                           TS       DSPTAB
003778: 41,3700           10117                           CCS      ERCNT
003779: 41,3701           03674                           TC       TSTLTS1
003780: 41,3702           43720                           CS       FULLDSP1
003781: 41,3703           55023                           TS       DSPTAB     +1                         #  TURN ON 3 PLUS SIGNS
003782: 41,3704           55026                           TS       DSPTAB     +4
003783: 41,3705           55030                           TS       DSPTAB     +6
003784: 41,3706           34760                           CAF      ELEVEN
003785: 41,3707           55015                           TS       NOUT
003786: 41,3710           00003                           RELINT
003787: 41,3711           33724                           CAF      SHOLTS
003788: 41,3712           00004                           INHINT
003789: 41,3713           05214                           TC       WAITLIST
003790: 41,3714     1022                                  EBANK=   DSPTAB
003791: 41,3714           03725 62102                     2CADR    TSTLTS2
003792:
003793: 41,3716           05155                           TC       ENDOFJOB                              #  DSPLOCK IS LEFT BUSY (FROM KEYBOARD
003794:                                                                                                  #  ACTION) UNTIL TSTLTS3 TO INSURE THAT
003795:                                                                                                  #  LIGHTS TEST WILL BE SEEN.
003796:
003797:
003798: 41,3717           05675        FULLDSP            OCT      05675                                 #  DISPLAY ALL 8:S
003799: 41,3720           07675        FULLDSP1           OCT      07675                                 #  DISPLAY ALL 8:S AND +
003800:


003802: 41,3721           00175        TSTCON1            OCT      00175
003803:                                                                                                  #  UPLINK ACTIVITY, TEMP, KEY RLSE,
003804:                                                                                                  #  V/N FLASH, OPERATOR ERROR.
003805: 41,3722           40674        TSTCON2            OCT      40674                                 #  DSPTAB+11D BITS 3,4,5,6,8,9. LR LITES,
003806:                                                                                                  #  NO ATT, GIMBAL LOCK, TRACKER, PROG ALM.
003807: 41,3723           00115        TSTCON3            OCT      0115                                  #  CHAN 11  BITS 1, 3, 4, 7.
003808:                                                                                                  #  UPLINK ACTIVITY, TEMP, OPERATOR ERROR.
003809: 41,3724           00764        SHOLTS             OCT      764                                   #  5 SEC
003810:
003811:
003812: 41,3725           34355        TSTLTS2            CAF      CHRPRIO                               #  CALLED BY WAITLIST
003813: 41,3726           05072                           TC       NOVAC
003814: 41,3727     1022                                  EBANK=   DSPTAB
003815: 41,3727           03732 62102                     2CADR    TSTLTS3
003816:
003817: 41,3731           05272                           TC       TASKOVER
003818:
003819:
003820: 41,3732           43723        TSTLTS3            CS       TSTCON3                               #  CALLED BY EXECUTIVE
003821: 41,3733           00004                           INHINT
003822: 41,3734           00006                           EXTEND                                         #  TURN OFF  UPLINK ACTIVITY, TEMP,
003823: 41,3735           03011                           WAND     DSALMOUT                              #  OPERATOR ERROR.
003824: 41,3736           06022                           TC       C13STALL
003825: 41,3737           44742                           CS       BIT10                                 #  TURN OFF TEST ALARM OUTBIT
003826: 41,3740           00006                           EXTEND
003827: 41,3741           03013                           WAND     CHAN13
003828: 41,3742           34750                           CAF      BIT4                                  #  MAKE NO ATT FOLLOW BIT 4 OF CHANNEL 12
003829: 41,3743           00006                           EXTEND                                         #    (NO ATT LIGHT ON IF IN COARSE ALIGN)
003830: 41,3744           02012                           RAND     CHAN12
003831: 41,3745           64735                           AD       BIT15                                 #  TURN OFF AUTO, HOLD, FREE, SPARE,
003832: 41,3746           55035                           TS       DSPTAB     +11D                       #  GIMBAL LOCK, SPARE, TRACKER, PROG ALM
003833: 41,3747           43772                           CS       13-11,1                               #  SET BITS TO INDICATE ALL LAMPS OUT. TEST
003834: 41,3750           71300                           MASK     IMODES33                              #  LIGHTS COMPLETE.
003835: 41,3751           65026                           AD       PRIO16
003836: 41,3752           55300                           TS       IMODES33
003837:
003838: 41,3753           43774                           CS       OCT55000
003839: 41,3754           71277                           MASK     IMODES30
003840: 41,3755           65025                           AD       PRIO15                                #  15000.
003841: 41,3756           55277                           TS       IMODES30
003842:
003843: 41,3757           43773                           CS       RFAILS2
003844: 41,3760           70110                           MASK     RADMODES
003845: 41,3761           64745                           AD       RCDUFBIT
003846: 41,3762           54110                           TS       RADMODES
003847:
003848: 41,3763           00003                           RELINT
003849:
003850: 41,3764           04616                           TC       BANKCALL                              #  REDISPLAY C(MODREG)
003851: 41,3765           10630                           CADR     DSPMM


003853: 41,3766           04204                           TC       KILMONON                              #  TURN ON KILL MONITOR BIT.
003854: 41,3767           04433                           TC       FLASHOFF                              #  TURN OFF V/N FLASH.
003855: 41,3770           04635                           TC       POSTJUMP                              #  DOES RELDSP AND GOES TO PINBRNCH IF
003856: 41,3771           61531                           CADR     TSTLTS4                               #   ENDIDLE IS AWAITING OPERATOR RESPONSE.
003857: 41,3772           16001        13-11,1            OCT      16001
003858: 41,3773           00330        RFAILS2            OCT      330                                   #  RADAR CDU AND DATA FAIL FLAGS.
003859: 41,3774           55000        OCT55000           OCT      55000
003860: 41,3775                        ENDPINS2           EQUALS
003861:


003863:                                                                                                  #  ERROR LIGHT RESET (RSET) TURNS OFF,
003864:                                                                                                  #  UPLINK ACTIVITY, AUTO, HOLD, FREE, OPERATOR ERROR,
003865:                                                                                                  #  PROG ALM, TRACKER FAIL.
003866:                                                                                                  #  LEAVES GIMBAL LOCK AND NO ATT ALONE.
003867:                                                                                                  #  IT ALSO ZEROES THE :TEST ALARM: OUT BIT, WHICH TURNS OFF STBY,RESTART.
003868:                                                                                                  #  IT ALSO SETS :CAUTION RESET: TO 1.
003869:                                                                                                  #  IT ALSO FORCES BIT 12 OF ALL DSPTAB ENTRIES TO 1.
003870:
003871: 40,3643                                           SETLOC   DOPROC     +2
003872: 40,3643                                           COUNT*   $$/PIN
003873: 40,3643           56115        ERROR              XCH      21/22REG                              #  RESTORE ORIGINAL C(DSPLOCK). THUS ERROR
003874: 40,3644           55011                           TS       DSPLOCK                               #  LIGHT RESET LEAVES DSPLOCK UNCHANGED.
003875: 40,3645           00004                           INHINT
003876: 40,3646           34742                           CAF      BIT10                                 #  TURN ON :CAUTION RESET: OUTBIT
003877: 40,3647           00006                           EXTEND
003878: 40,3650           05011                           WOR      DSALMOUT                              #  BIT10 CHAN 11
003879: 40,3651           33732                           CAF      GL+NOATT                              #  LEAVE GIMBAL LOCK, NO ATT INTACT,
003880: 40,3652           71035                           MASK     DSPTAB     +11D                       #  TURNING OFF AUTO, HOLD, FREE,
003881: 40,3653           64735                           AD       BIT15                                 #  PROG ALARM, AND TRACKER.
003882: 40,3654           55035                           TS       DSPTAB     +11D
003883: 40,3655           45026                           CS       PRIO16                                #  RESET FAIL BITS WHICH GENERATE PROG
003884: 40,3656           71300                           MASK     IMODES33                              #  ALARM SO THAT IF THE FAILURE STILL
003885: 40,3657           65026                           AD       PRIO16                                #  EXISTS, THE ALARM WILL COME BACK.
003886: 40,3660           55300                           TS       IMODES33
003887: 40,3661           44742                           CS       BIT10
003888: 40,3662           71277                           MASK     IMODES30
003889: 40,3663           64742                           AD       BIT10
003890: 40,3664           55277                           TS       IMODES30
003891:
003892: 40,3665           43731                           CS       RFAILS
003893: 40,3666           70110                           MASK     RADMODES
003894: 40,3667           64745                           AD       RCDUFBIT
003895: 40,3670           54110                           TS       RADMODES
003896:
003897: 40,3671           06022                           TC       C13STALL
003898: 40,3672           44742                           CS       BIT10                                 #  TURN OFF :TEST ALARM: OUTBIT.
003899: 40,3673           00006                           EXTEND
003900: 40,3674           03013                           WAND     CHAN13
003901: 40,3675           43730                           CS       ERCON                                 #  TURN OFF UPLINK ACTIVITY,
003902: 40,3676           00006                           EXTEND                                         #  OPERATOR ERROR.
003903: 40,3677           03011                           WAND     DSALMOUT
003904: 40,3700           34363        TSTAB              CAF      BINCON                                #  (DEC 10)
003905: 40,3701           54117                           TS       ERCNT                                 #  ERCNT = COUNT
003906: 40,3702           00004                           INHINT
003907: 40,3703           50117                           INDEX    ERCNT
003908: 40,3704           11022                           CCS      DSPTAB
003909: 40,3705           64753                           AD       ONE
003910: 40,3706           03713                           TC       ERPLUS
003911: 40,3707           64753                           AD       ONE
003912: 40,3710           40000        ERMINUS            CS       A


003914: 40,3711           73733                           MASK     NOTBIT12
003915: 40,3712           03716                           TC       ERCOM
003916: 40,3713           40000        ERPLUS             CS       A
003917: 40,3714           73733                           MASK     NOTBIT12
003918: 40,3715           40000                           CS       A                                     #  MIGHT WANT TO RESET CLPASS, DECBRNCH,
003919: 40,3716           50117        ERCOM              INDEX    ERCNT                                 #  ETC.
003920: 40,3717           55022                           TS       DSPTAB
003921: 40,3720           00003                           RELINT
003922: 40,3721           10117                           CCS      ERCNT
003923: 40,3722           03701                           TC       TSTAB      +1
003924: 40,3723           34755                           CAF      ZERO
003925: 40,3724           54375                           TS       FAILREG
003926: 40,3725           54376                           TS       FAILREG    +1
003927: 40,3726           55357                           TS       SFAIL
003928: 40,3727           05155                           TC       ENDOFJOB
003929:
003930: 40,3730           00104        ERCON              OCT      104                                   #  CHAN 11 BITS 3,7.
003931:                                                                                                  #  UPLINK ACTIVITY, AND OPERATOR ERROR.
003932: 40,3731           00330        RFAILS             OCT      330                                   #  RADAR CDU AND DATA FAIL FLAGS.
003933: 40,3732           00050        GL+NOATT           OCT      00050                                 #  NO ATT AND GIMBAL LOCK LAMPS
003934: 40,3733           73777        NOTBIT12           OCT      73777
003935:
003936:
003937: 40,3734                        ENDPINS1           EQUALS
003938:
003939:
003940: 40,3734  30,2000                                  SBANK=   LOWSUPER

End of include-file PINBALL_GAME__BUTTONS_AND_LIGHTS.agc.  Parent file is MAIN.agc


