
Source Code


000002:                                                                                                  ## Copyright:   Public domain.
000003:                                                                                                  ## Filename:    PINBALL_NOUN_TABLES.agc
000004:                                                                                                  ## Purpose:     A log section of Zerlina 56, the final revision of
000005:                                                                                                  ##              Don Eyles's offline development program for the variable
000006:                                                                                                  ##              guidance period servicer. It also includes a new P66 with LPD
000007:                                                                                                  ##              (Landing Point Designator) capability, based on an idea of John
000008:                                                                                                  ##              Young's. Neither of these advanced features were actually flown,
000009:                                                                                                  ##              but Zerlina was also the birthplace of other big improvements to
000010:                                                                                                  ##              Luminary including the terrain model and new (Luminary 1E)
000011:                                                                                                  ##              analog display programs. Zerlina was branched off of Luminary 145,
000012:                                                                                                  ##              and revision 56 includes all changes up to and including Luminary
000013:                                                                                                  ##              183. It is therefore quite close to the Apollo 14 program,
000014:                                                                                                  ##              Luminary 178, where not modified with new features.
000015:                                                                                                  ## Reference:   pp. 306-324
000016:                                                                                                  ## Assembler:   yaYUL
000017:                                                                                                  ## Contact:     Ron Burkey <info@sandroid.org>.
000018:                                                                                                  ## Website:     www.ibiblio.org/apollo/index.html
000019:                                                                                                  ## Mod history: 2017-07-28 MAS  Created from Luminary 210.
000020:                                                                                                  ##              2017-08-19 MAS  Updated for Zerlina 56.
000021:


000023:                                                                                                  #  THE FOLLOWING REFERS TO THE NOUN TABLES
000024:
000025:
000026:                                                                                                  #  COMPONENT CODE NUMBER           INTERPRETATION
000027:
000028:                                                                                                  #  00000                           1 COMPONENT
000029:                                                                                                  #  00001                           2 COMPONENT
000030:                                                                                                  #  00010                           3 COMPONENT
000031:                                                                                                  #  X1XXX                           BIT4 = 1. DECIMAL ONLY
000032:                                                                                                  #  1XXXX                           BIT5 = 1. NO LOAD
000033:                                                                                                  #  END OF COMPONENT CODE NUMBERS
000034:
000035:
000036:                                                                                                  #  SF ROUTINE CODE NUMBER          INTERPRETATION
000037:
000038:                                                                                                  #  00000    OCTAL ONLY
000039:                                                                                                  #  00001    STRAIGHT FRACTIONAL
000040:                                                                                                  #  00010    CDU DEGREES (XXX.XX)
000041:                                                                                                  #  00011    ARITHMETIC SF
000042:                                                                                                  #  00100    ARITH DP1   OUT(MULT BY 2EXP14 AT END)    IN(STRAIGHT)
000043:                                                                                                  #  00101    ARITH DP2   OUT(STRAIGHT)                 IN(SL 7 AT END)
000044:                                                                                                  #  00110    LANDING RADAR POSITION (+0000X)
000045:                                                                                                  #  00111    ARITH DP3   OUT ( SL 7 AT END)       IN ( STRAIGHT)
000046:                                                                                                  #  01000    WHOLE HOURS IN R1, WHOLE MINUTES (MOD 60) IN R2,
000047:                                                                                                  #              SECONDS (MOD 60) 0XX.XX IN R3. *** ALARMS IF USED WITH OCTAL
000048:                                                                                                  #  01001    MINUTES (MOD 60) IN D1D2, D3 BLANK, SECONDS (MOD 60) IN D4D5
000049:                                                                                                  #                          LIMITS TO 59B59 IF MAG EXCEEDS THIS VALUE.
000050:                                                                                                  #                          ALARMS IF USED WITH OCTAL  ********  IN (ALARM)
000051:                                                                                                  #  01010    ARITH DP4   OUT (STRAIGHT)                  IN (SL 3 AT END)
000052:                                                                                                  #  01011    ARITH1 SF   OUT(MULT BY 2EXP14 AT END)    IN(STRAIGHT)
000053:                                                                                                  #  01100    2 INTEGERS IN D1D2, D4D5, D3 BLANK.
000054:                                                                                                  #                          ALARMS IF USED WITH OCTAL  ********  IN (ALARM)
000055:                                                                                                  #  01101    360-CDU DEGREES (XXX.XX)
000056:                                                                                                  #  01110    RR RANGE       15 BIT MAG TO DP, THEN SCALE *******  IN (ALARM)
000057:                                                                                                  #  01111    RR RANGE RATE  15 BIT MAG TO DP, THEN SCALE *******  IN (ALARM)
000058:                                                                                                  #  END OF SF ROUTINE CODE NUMBERS
000059:
000060:
000061:                                                                                                  #  SF CONSTANT CODE NUMBER         INTERPRETATION
000062:
000063:                                                                                                  #  00000                           WHOLE                       USE ARITH
000064:                                                                                                  #  00000                           DP TIME SEC (XXX.XX SEC)    USE ARITHDP1
000065:                                                                                                  #  00000                           LR POSITION (+0000X)     USE LR POSITION
000066:                                                                                                  #  00001                           SPARE
000067:                                                                                                  #  00010                           CDU DEGREES              USE CDU DEGREES
000068:                                                                                                  #  00010                           360-CDU DEGREES      USE 360-CDU DEGREES
000069:                                                                                                  #  00011                           DP DEGREES (90) XX.XXX DEG  USE ARITHDP3
000070:                                                                                                  #  00100                           DP DEGREES (360) XXX.XX DEG USE ARITHDP4
000071:                                                                                                  #  00101                           DEGREES (180) XXX.XX DEG    USE ARITH
000072:                                                                                                  #  00101                           OPTICAL TRACKER AZIMUTH ANGLE(XXX.XXDEG)


000074:                                                                                                  #                                                              USE ARITHDP1
000075:                                                                                                  #  00110                           WEIGHT2 (XXXXX. LBS)        USE ARITH1
000076:                                                                                                  #  00111                           POSITION5 (XXX.XX NAUTICAL MILES)
000077:                                                                                                  #                                                              USE ARITHDP1
000078:                                                                                                  #  01000                           POSITION4 (XXXX.X NAUTICAL MILES)
000079:                                                                                                  #                                                              USE ARITHDP3
000080:                                                                                                  #  01001                           VELOCITY2 (XXXXX. FT/SEC)   USE ARITHDP4
000081:                                                                                                  #  01010                           VELOCITY3 (XXXX.X FT/SEC)   USE ARITHDP3
000082:                                                                                                  #  01011                           ELEVATION DEGREES(89.999MAX) USE ARITH
000083:                                                                                                  #  01100                           RENDEZVOUS RADAR RANGE (XXX.XX NAUT MI)
000084:                                                                                                  #                                                              USE RR RANGE
000085:                                                                                                  #  01101                           RENDEZVOUS RADAR RANGE RATE(XXXX.XFT/SEC
000086:                                                                                                  #                                                         USE RR RANGE RATE
000087:                                                                                                  #  01110                           LANDING RADAR ALTITUDE(XXXXX.FEET)
000088:                                                                                                  #                                                              USE ARITHDP1
000089:                                                                                                  #  01111                           INITIAL/FINAL ALTITUDE(XXXXX.FEET)
000090:                                                                                                  #                                                              USE ARITHDP1
000091:                                                                                                  #  10000                           ALTITUDE RATE (XXXXX.FT/SEC)   USE ARITH
000092:                                                                                                  #  10001                           FORWARD/LATERAL VELOCITY(XXXXX.FEET/SEC)
000093:                                                                                                  #                                                                 USE ARITH
000094:                                                                                                  #  10010                           ROTATIONAL HAND CONTROLLER ANGLE RATES
000095:                                                                                                  #                                        XXXXX.DEG/SEC            USE ARITH
000096:                                                                                                  #  10011                           LANDING RADAR VELX(XXXXX.FEET/SEC)
000097:                                                                                                  #                                                              USE ARITHDP1
000098:                                                                                                  #  10100                           LANDING RADAR VELY(XXXXX.FEET/SEC)
000099:                                                                                                  #                                                              USE ARITHDP1
000100:                                                                                                  #  10101                           LANDING RADAR VELZ(XXXXX.FEET/SEC)
000101:                                                                                                  #                                                              USE ARITHDP1
000102:                                                                                                  #  10110                           POSITION7 (XXXX.X NAUT MI)  USE ARITHDP4
000103:                                                                                                  #  10111                           TRIM DEGREES2 (XXX.XX DEG)  USE ARITH
000104:                                                                                                  #  11000                           COMPUTED ALTITUDE (XXXXX. FEET)
000105:                                                                                                  #                                                              USE ARITHDP1
000106:                                                                                                  #  11001                           DP DEGREES (XXXX.X DEG)     USE ARITHDP3
000107:                                                                                                  #  11010                           POSITION9 (XXXXX. FT)       USE ARITHDP3
000108:                                                                                                  #  11011                           VELOCITY4 (XXXX.X FT/SEC)   USE ARITHDP2
000109:                                                                                                  #  11100                           RADIANS (XX.XXX RADIANS)    USE ARITHDP4
000110:                                                                                                  #  11101                           VELOCITY5 (XXXX.X FT/SEC)   USE ARITHDP3


000112:                                                                                                  #  11110                           COMPUTED ALTITUDE 2 (XXXXX. FEET)
000113:                                                                                                  #                                                              USE ARITHDP3
000114:                                                                                                  #  END OF SF CONSTANT CODE NUMBERS
000115:
000116:
000117:                                                                                                  #  FOR GREATER THAN SINGLE PRECISION SCALES, PUT ADDRESS OF MAJOR PART INTO
000118:                                                                                                  #  NOUN TABLES.
000119:                                                                                                  #  OCTAL LOADS PLACE +0 INTO MAJOR PART, DATA INTO MINOR PART.
000120:                                                                                                  #  OCTAL DISPLAYS SHOW MINOR PART ONLY.
000121:                                                                                                  #  TO GET AT BOTH MAJOR AND MINOR PARTS(IN OCTAL), USE NOUN 01.
000122:
000123:
000124:                                                                                                  #  A NOUN MAY BE DECLARED :DECIMAL ONLY: BY MAKING BIT4=1 OF ITS COMPONENT


000126:                                                                                                  #  CODE NUMBER. IF THIS NOUN IS USED WITH ANY OCTAL DISPLAY VERB, OR IF
000127:                                                                                                  #  DATA IS LOADED IN OCTAL, IT ALARMS.
000128:
000129:                                                                                                  #  IN LOADING AN :HOURS, MINUTES, SECONDS: NOUN, ALL 3 WORDS MUST BE
000130:                                                                                                  #  LOADED, OR ALARM.
000131:                                                                                                  #  ALARM IF AN ATTEMPT IS MADE TO LOAD :SPLIT MINUTES/SECONDS: (MMBSS).
000132:                                                                                                  #  THIS IS USED FOR DISPLAY ONLY.
000133:


000135:                                                                                                  #  THE FOLLOWING ROUTINES ARE FOR READING THE NOUN TABLES AND THE SF TABLES
000136:                                                                                                  #  (WHICH ARE IN A SEPARATE BANK FROM THE REST OF PINBALL). THESE READING
000137:                                                                                                  #  ROUTINES ARE IN THE SAME BANK AS THE TABLES. THEY ARE CALLED BY DXCH Z.
000138:
000139:
000140:                                                                                                  #  LODNNTAB LOADS NNADTEM WITH THE NNADTAB ENTRY, NNTYPTEM WITH THE
000141:                                                                                                  #  NNTYPTAB ENTRY. IF THE NOUN IS MIXED, IDAD1TEM IS LOADED WITH THE FIRST
000142:                                                                                                  #  IDADDTAB ENTRY, IDAD2TEM THE SECOND IDADDTAB ENTRY, IDAD3TEM THE THIRD
000143:                                                                                                  #  IDADDTAB ENTRY, RUTMXTEM WITH THE RUTMXTAB ENTRY. MIXBR IS SET FOR
000144:                                                                                                  #  MIXED OR NORMAL NOUN.
000145:
000146: 06,3271                                           BANK     6
000147: 42,2000                                           SETLOC   PINBALL3
000148: 42,2000                                           BANK
000149: 42,2101                                           COUNT*   $$/NOUNS
000150: 42,2101           52152        LODNNTAB           DXCH     IDAD2TEM                              #  SAVE RETURN INFO IN IDAD2TEM, IDAD3TEM.
000151: 42,2102           51001                           INDEX    NOUNREG
000152: 42,2103           32152                           CAF      NNADTAB
000153: 42,2104           54146                           TS       NNADTEM
000154: 42,2105           51001                           INDEX    NOUNREG
000155: 42,2106           32316                           CAF      NNTYPTAB
000156: 42,2107           54147                           TS       NNTYPTEM
000157: 42,2110           41001                           CS       NOUNREG
000158: 42,2111           64771                           AD       MIXCON
000159: 42,2112           00006                           EXTEND
000160: 42,2113           62117                           BZMF     LODMIXNN                              #  NOUN NUMBER G/E FIRST MIXED NOUN
000161: 42,2114           34753                           CAF      ONE                                   #  NOUN NUMBER L/ FIRST MIXED NOUN
000162: 42,2115           54140                           TS       MIXBR                                 #  NORMAL.  +1 INTO MIXBR.
000163: 42,2116           02135                           TC       LODNLV
000164: 42,2117           34752        LODMIXNN           CAF      TWO                                   #  MIXED.  +2 INTO MIXBR.
000165: 42,2120           54140                           TS       MIXBR
000166: 42,2121           51001                           INDEX    NOUNREG
000167: 42,2122           33072                           CAF      RUTMXTAB   -40D                       #  FIRST MIXED NOUN = 40.
000168: 42,2123           54153                           TS       RUTMXTEM
000169: 42,2124           35012                           CAF      LOW10
000170: 42,2125           70146                           MASK     NNADTEM
000171: 42,2126           54002                           TS       Q                                     #  TEMP
000172: 42,2127           50000                           INDEX    A
000173: 42,2130           32656                           CAF      IDADDTAB
000174: 42,2131           54150                           TS       IDAD1TEM                              #  LOAD IDAD1TEM WITH FIRST IDADDTAB ENTRY
000175: 42,2132           00006                           EXTEND
000176: 42,2133           50002                           INDEX    Q                                     #  LOAD IDAD2TEM WITH 2ND IDADDTAB ENTRY
000177: 42,2134           32660                           DCA      IDADDTAB   +1                         #  LOAD IDAD3TEM WITH 3RD IDADDTAB ENTRY.
000178: 42,2135           52152        LODNLV             DXCH     IDAD2TEM                              #  PUT RETURN INFO INTO A, L.
000179: 42,2136           52006                           DXCH     Z
000180:
000181: 42,2137     4771               MIXCON             =        OCT50                                 #  (DEC 40)
000182:                                                                                                  #  GTSFOUT LOADS SFTEMP1, SFTEMP2 WITH THE DP SFOUTAB ENTRIES.
000183:
000184: 42,2137           52124        GTSFOUT            DXCH     SFTEMP1                               #  2X(SFCONUM) ARRIVES IN SFTEMP1.


000186: 42,2140           00006                           EXTEND
000187: 42,2141           50000                           INDEX    A
000188: 42,2142           32561                           DCA      SFOUTAB
000189: 42,2143           52124        SFCOM              DXCH     SFTEMP1
000190: 42,2144           52006                           DXCH     Z
000191:
000192:
000193:                                                                                                  #  GTSFIN LOADS SFTEMP1, SFTEMP2 WITH THE DP SFINTAB ENTRIES.
000194:
000195: 42,2145           52124        GTSFIN             DXCH     SFTEMP1                               #  2X(SFCONUM) ARRIVES IN SFTEMP1.
000196: 42,2146           00006                           EXTEND
000197: 42,2147           50000                           INDEX    A
000198: 42,2150           32463                           DCA      SFINTAB
000199: 42,2151           12143                           TCF      SFCOM
000200:
000201:
000202:                                                                                                  #  NN  NORMAL NOUNS
000203: 42,2152           00000        NNADTAB            OCT      00000                                 #  00 NOT IN USE
000204: 42,2153           40000                           OCT      40000                                 #  01 SPECIFY MACHINE ADDRESS (FRACTIONAL)
000205: 42,2154           40000                           OCT      40000                                 #  02 SPECIFY MACHINE ADDRESS (WHOLE)
000206: 42,2155           40000                           OCT      40000                                 #  03 SPECIFY MACHINE ADDRESS (DEGREES)
000207: 42,2156           01044                           ECADR    DSPTEM1                               #  04 ANGULAR ERROR/DIFFERENCE
000208: 42,2157           01044                           ECADR    DSPTEM1                               #  05 ANGULAR ERROR/DIFFERENCE
000209: 42,2160           01143                           ECADR    OPTION1                               #  06 OPTION CODE
000210: 42,2161           01002                           ECADR    XREG                                  #  07 ECADR OF WORD TO BE MODIFIED
000211:                                                                                                  #     ONES FOR BITS TO BE MODIFIED
000212:                                                                                                  #     1 TO SET OR 0 TO RESET SELECTED BITS
000213: 42,2162           01363                           ECADR    ALMCADR                               #  08 ALARM DATA
000214: 42,2163           00375                           ECADR    FAILREG                               #  09 ALARM CODES
000215: 42,2164           77776                           OCT      77776                                 #  10 CHANNEL TO BE SPECIFIED
000216: 42,2165           03633                           ECADR    TCSI                                  #  11 TIG OF CSI (HRS,MIN,SEC)
000217: 42,2166           01050                           ECADR    OPTIONX                               #  12 OPTION CODE
000218:                                                                                                  #        (USED BY EXTENDED VERBS ONLY)
000219: 42,2167           01774                           ECADR    TCDH                                  #  13 TIG OF CDH (HRS,MIN,SEC)
000220: 42,2170           01050                           ECADR    DSPTEMX                               #  14 CHECKLIST
000221:                                                                                                  #        (USED BY EXTENDED VERBS ONLY)
000222: 42,2171           77777                           OCT      77777                                 #  15 INCREMENT MACHINE ADDRESS
000223: 42,2172           01050                           ECADR    DSPTEMX                               #  16 TIME OF EVENT (HRS,MIN,SEC)
000224: 42,2173           00000                           OCT      00000                                 #  17 SPARE
000225: 42,2174           02335                           ECADR    FDAIX                                 #  18 AUTO MANEUVER BALL ANGLES
000226: 42,2175           00000                           OCT      00000                                 #  19 SPARE
000227: 42,2176           00032                           ECADR    CDUX                                  #  20 ICDU ANGLES
000228: 42,2177           00037                           ECADR    PIPAX                                 #  21 PIPAS
000229: 42,2200           00321                           ECADR    THETAD                                #  22 NEW ICDU ANGLES
000230: 42,2201           00000                           OCT      00000                                 #  23 SPARE
000231: 42,2202           01050                           ECADR    DSPTEM2    +1                         #  24 DELTA TIME FOR AGC CLOCK(HRS,MIN,SEC)
000232: 42,2203           01044                           ECADR    DSPTEM1                               #  25 CHECKLIST
000233:                                                                                                  #        (USED WITH PLEASE PERFORM ONLY)
000234: 42,2204           01044                           ECADR    DSPTEM1                               #  26 PRIO/DELAY, ADRES, BBCON
000235: 42,2205           01362                           ECADR    SMODE                                 #  27 SELF TEST ON/OFF SWITCH


000237: 42,2206           00000                           OCT      00000                                 #  28 SPARE
000238: 42,2207           00000                           OCT      00000                                 #  29 SPARE
000239: 42,2210           00000                           OCT      0                                     #  30 SPARE
000240: 42,2211           00000                           OCT      0                                     #  31 SPARE
000241: 42,2212           02133                           ECADR    -TPER                                 #  32 TIME TO PERIGEE (HRS,MIN,SEC)
000242: 42,2213           03441                           ECADR    TIG                                   #  33 TIME OF IGNITION (HRS,MIN(SEC)
000243: 42,2214           01044                           ECADR    DSPTEM1                               #  34 TIME OF EVENT (HRS,MIN,SEC)
000244: 42,2215           03453                           ECADR    TTOGO                                 #  35 TIME TO GO TO EVENT (HRS,MIN,SEC)
000245: 42,2216           00024                           ECADR    TIME2                                 #  36 TIME OF AGC CLOCK (HRS,MIN,SEC)
000246: 42,2217           03635                           ECADR    TTPI                                  #  37 TIG OF TPI (HRS,MIN,SEC)
000247: 42,2220           01516                           ECADR    TET                                   #  38 TIME OF STATE BEING INTEGRATED
000248: 42,2221           00000                           OCT      00000                                 #  39 SPARE
000249:                                                                                                  #  END OF NNADTAB FOR NORMAL NOUNS
000250:
000251:
000252:                                                                                                  #  NN  MIXED NOUNS
000253: 42,2222           64000                           OCT      64000                                 #  40 TIME TO IGNITION/CUTOFF
000254:                                                                                                  #     VG
000255:                                                                                                  #     DELTA V (ACCUMULATED)
000256: 42,2223           02003                           OCT      02003                                 #  41 TARGET  AZIMUTH
000257:                                                                                                  #             ELEVATION
000258: 42,2224           24006                           OCT      24006                                 #  42 APOGEE
000259:                                                                                                  #     PERIGEE
000260:                                                                                                  #     DELTA V (REQUIRED)
000261: 42,2225           24011                           OCT      24011                                 #  43 LATITUDE
000262:                                                                                                  #     LONGITUDE
000263:                                                                                                  #     ALTITUDE
000264: 42,2226           64014                           OCT      64014                                 #  44 APOGEE
000265:                                                                                                  #     PERIGEE
000266:                                                                                                  #     TFF
000267: 42,2227           64017                           OCT      64017                                 #  45 MARKS
000268:                                                                                                  #     TTI OF NEXT BURN
000269:                                                                                                  #     MGA
000270: 42,2230           00022                           OCT      00022                                 #  46 AUTOPILOT CONFIGURATION
000271: 42,2231           22025                           OCT      22025                                 #  47 LEM WEIGHT
000272:                                                                                                  #     CSM WEIGHT
000273: 42,2232           22030                           OCT      22030                                 #  48 GIMBAL PITCH TRIM
000274:                                                                                                  #     GIMBAL ROLL TRIM
000275: 42,2233           24033                           OCT      24033                                 #  49 DELTA R
000276:                                                                                                  #     DELTA V
000277:                                                                                                  #     RADAR DATA SOURCE CODE
000278: 42,2234           00000                           OCT      0                                     #  50 SPARE
000279: 42,2235           22041                           OCT      22041                                 #  51 S-BAND ANTENNA PITCH
000280:                                                                                                  #                    YAW
000281: 42,2236           00044                           OCT      00044                                 #  52 CENTRAL ANGLE OF ACTIVE VEHICLE
000282: 42,2237           00000                           OCT      00000                                 #  53 SPARE
000283: 42,2240           24052                           OCT      24052                                 #  54 RANGE
000284:                                                                                                  #     RANGE RATE
000285:                                                                                                  #     THETA
000286: 42,2241           24055                           OCT      24055                                 #  55 NO. OF APSIDAL CROSSINGS


000288:                                                                                                  #     ELEVATION ANGLE
000289:                                                                                                  #     CENTRAL ANGLE
000290: 42,2242           02060                           OCT      02060                                 #  56 RR LOS AZIMUTH
000291:                                                                                                  #            ELEVATION
000292: 42,2243           00000                           OCT      00000                                 #  57 SPARE
000293: 42,2244           24066                           OCT      24066                                 #  58 PERIGEE ALT
000294:                                                                                                  #     DELTA V TPI
000295:                                                                                                  #     DELTA V TPF
000296: 42,2245           24071                           OCT      24071                                 #  59 DELTA VELOCITY LOS


000298: 42,2246           64074                           OCT      64074                                 #  60 FORWARD VELOCITY - LPD ANGLE
000299:                                                                                                  #     ALTITUDE RATE
000300:                                                                                                  #     COMPUTED ALTITUDE
000301: 42,2247           64077                           OCT      64077                                 #  61 TIME TO GO IN BRAKING PHASE
000302:                                                                                                  #     TIME TO IGNITION
000303:                                                                                                  #     CROSS RANGE DISTANCE
000304: 42,2250           64102                           OCT      64102                                 #  62 ABSOLUTE VALUE OF VELOCITY
000305:                                                                                                  #     TIME TO IGNITION
000306:                                                                                                  #     DELTA V (ACCUMULATEDj


000308: 42,2251           64105                           OCT      64105                                 #  63 LR ALTITUDE MINUS COMPUTED ALTITUDE
000309:                                                                                                  #     ALTITUDE RATE
000310:                                                                                                  #     COMPUTED ALTITUDE
000311: 42,2252           64110                           OCT      64110                                 #  64 TIME LEFT FOR REDESIGNATION-LPD ANGLE
000312:                                                                                                  #     ALTITUDE RATE
000313:                                                                                                  #     COMPUTED ALTITUDE
000314: 42,2253           24113                           OCT      24113                                 #  65 SAMPLED AGC TIME (HRS,MIN,SEC)
000315:                                                                                                  #     (FETCHED IN INTERRUPT)
000316: 42,2254           62116                           OCT      62116                                 #  66 LR RANGE
000317:                                                                                                  #        POSITION
000318: 42,2255           04121                           OCT      04121                                 #  67 LRVX
000319:                                                                                                  #     LRVY
000320:                                                                                                  #     LRVZ


000322: 42,2256           64124                           OCT      64124                                 #  68 SM Z-AXIS RANGE TO LANDING SITE
000323:                                                                                                  #     TIME TO GO IN BRAKING PHASE


000325:                                                                                                  #     ABSOLUTE VALUE OF VELOCITY
000326: 42,2257           24127                           OCT      24127                                 #  69 LANDING SITE CORRECTION, Z-COMPONENT
000327:                                                                                                  #     LANDING SITE CORRECTION, Y-COMPONENT
000328:                                                                                                  #     LANDING SITE CORRECTION, X-COMPONENT
000329: 42,2260           04132                           OCT      04132                                 #  70 AOT DETENT CODE/STAR CODE
000330: 42,2261           04135                           OCT      04135                                 #  71 AOT DETENT CODE/STAR CODE
000331: 42,2262           02140                           OCT      02140                                 #  72 RR  360 - TRUNNION ANGLE
000332:                                                                                                  #         SHAFT ANGLE
000333: 42,2263           02143                           OCT      02143                                 #  73 NEW RR  360 - TRUNNION ANGLE
000334:                                                                                                  #                   SHAFT ANGLE
000335: 42,2264           64146                           OCT      64146                                 #  74 TIME TO IGNITION
000336:                                                                                                  #     YAWAFTER VEHICLE RISE
000337:                                                                                                  #     PITCH AFTER VEHICLE RISE
000338: 42,2265           64151                           OCT      64151                                 #  75 DELTA ALTITUDE CDH
000339:                                                                                                  #     DELTA TIME (CDH-CSI OR TPI-CDH)
000340:                                                                                                  #     DELTA TIME (TPI-CDH OR TPI-NOMTPI)
000341: 42,2266           24154                           OCT      24154                                 #  76 DESIRED HORIZONTAL VELOCITY


000343:                                                                                                  #     DESIRED RADIAL VELOCITY
000344:                                                                                                  #     CROSS-RANGE DISTANCE
000345: 42,2267           62157                           OCT      62157                                 #  77 TIME TO ENGINE CUTOFF
000346:                                                                                                  #     VELOCITY NORMAL TO CSM PLANE
000347: 42,2270           64162                           OCT      64162                                 #  78 RR RANGE
000348:                                                                                                  #        RANGE RATE
000349:                                                                                                  #     TIME FROM IGNITION
000350: 42,2271           24165                           OCT      24165                                 #  79 CURSOR ANGLE
000351:                                                                                                  #     SPIRAL ANGLE
000352:                                                                                                  #     POSITION CODE
000353: 42,2272           02170                           OCT      02170                                 #  80 DATA INDICATOR
000354:                                                                                                  #     OMEGA
000355: 42,2273           24173                           OCT      24173                                 #  81 DELTA V (LV)
000356: 42,2274           24176                           OCT      24176                                 #  82 DELTA V (LV)
000357: 42,2275           24201                           OCT      24201                                 #  83 DELTA V (BODY)
000358: 42,2276           24204                           OCT      24204                                 #  84 DELTA V (OTHER VEHICLE)
000359: 42,2277           24207                           OCT      24207                                 #  85 VG (BODY)
000360: 42,2300           24212                           OCT      24212                                 #  86 VG (LV)
000361: 42,2301           02215                           OCT      02215                                 #  87 BACKUP OPTICS LOS AZIMUTH
000362:                                                                                                  #                       ELEVATION
000363: 42,2302           24220                           OCT      24220                                 #  88 HALF UNIT SUN OR PLANET VECTOR
000364: 42,2303           24223                           OCT      24223                                 #  89 LANDMARK LATITUDE
000365:                                                                                                  #              LONGITUDE/2
000366:                                                                                                  #              ALTITUDE
000367: 42,2304           24226                           OCT      24226                                 #  90 Y
000368:                                                                                                  #     Y DOT
000369:                                                                                                  #     PSI
000370: 42,2305           04231                           OCT      04231                                 #  91 ALTITUDE
000371:                                                                                                  #     VELOCITY
000372:                                                                                                  #     FLIGHT PATH ANGLE
000373: 42,2306           04234                           OCT      04234                                 #  92 PCT FTP(10.5KLB) AT PRESENT THRUST
000374:                                                                                                  #     ALTITUDE RATE


000376:                                                                                                  #     COMPUTED ALTITUDE
000377: 42,2307           04237                           OCT      04237                                 #  93 DELTA GYRO ANGLES


000379: 42,2310           64242                           OCT      64242                                 #  94 VGX (BODY)
000380:                                                                                                  #     ALTITUDE RATE
000381:                                                                                                  #     COMPUTED ALTITUDE
000382: 42,2311           00000                           OCT      0                                     #  95 SPARE
000383: 42,2312           00000                           OCT      0                                     #  96 SPARE
000384: 42,2313           04253                           OCT      04253                                 #  97 SYSTEM TEST INPUTS
000385: 42,2314           04256                           OCT      04256                                 #  98 SYSTEM TEST RESULTS
000386: 42,2315           24261                           OCT      24261                                 #  99 RMS IN POSITION
000387:                                                                                                  #     RMS IN VELOCITY
000388:                                                                                                  #     RMS IN BIAS
000389:                                                                                                  #  END OF NNADTAB FOR MIXED NOUNS
000390:
000391:
000392:                                                                                                  #  NN        NORMAL NOUNS
000393: 42,2316           00000        NNTYPTAB           OCT      00000                                 #  00 NOT IN USE
000394: 42,2317           04040                           OCT      04040                                 #  01 3COMP  FRACTIONAL


000396: 42,2320           04140                           OCT      04140                                 #  02 3COMP  WHOLE
000397: 42,2321           04102                           OCT      04102                                 #  03 3COMP  CDU DEGREES
000398: 42,2322           00504                           OCT      00504                                 #  04 1COMP  DPDEG(360)
000399: 42,2323           00504                           OCT      00504                                 #  05 1COMP  DPDEG(360)
000400: 42,2324           04000                           OCT      04000                                 #  06 3COMP  OCTAL ONLY
000401: 42,2325           04000                           OCT      04000                                 #  07 3COMP  OCTAL ONLY
000402: 42,2326           04000                           OCT      04000                                 #  08 3COMP  OCTAL ONLY
000403: 42,2327           04000                           OCT      04000                                 #  09 3COMP  OCTAL ONLY
000404: 42,2330           00000                           OCT      00000                                 #  10 1COMP  OCTAL ONLY
000405: 42,2331           24400                           OCT      24400                                 #  11 3COMP  HMS (DEC ONLY)
000406: 42,2332           02000                           OCT      02000                                 #  12 2COMP  OCTAL ONLY
000407: 42,2333           24400                           OCT      24400                                 #  13 3COMP  HMS (DEC ONLY)
000408: 42,2334           04140                           OCT      04140                                 #  14 3COMP  WHOLE
000409: 42,2335           00000                           OCT      00000                                 #  15 1COMP  OCTAL ONLY
000410: 42,2336           24400                           OCT      24400                                 #  16 3COMP  HMS (DEC ONLY)
000411: 42,2337           00000                           OCT      0                                     #  17       SPARE
000412: 42,2340           04102                           OCT      04102                                 #  18 3COMP  CDU DEG
000413: 42,2341           00000                           OCT      00000                                 #  19        SPARE
000414: 42,2342           04102                           OCT      04102                                 #  20 3COMP  CDU DEGREES
000415: 42,2343           04140                           OCT      04140                                 #  21 3COMP  WHOLE
000416: 42,2344           04102                           OCT      04102                                 #  22 3COMP  CDU DEGREES
000417: 42,2345           00000                           OCT      00000                                 #  23        SPARE
000418: 42,2346           24400                           OCT      24400                                 #  24 3COMP  HMS (DEC ONLY)
000419: 42,2347           04140                           OCT      04140                                 #  25 3COMP  WHOLE
000420: 42,2350           04000                           OCT      04000                                 #  26 3COMP  OCTAL ONLY
000421: 42,2351           00140                           OCT      00140                                 #  27 1COMP  WHOLE
000422: 42,2352           00000                           OCT      00000                                 #  28        SPARE
000423: 42,2353           00000                           OCT      00000                                 #  29        SPARE
000424: 42,2354           00000                           OCT      0                                     #  30 SPARE
000425: 42,2355           00000                           OCT      0                                     #  31 SPARE
000426: 42,2356           24400                           OCT      24400                                 #  32 3COMP  HMS (DEC ONLY)
000427: 42,2357           24400                           OCT      24400                                 #  33 3COMP  HMS (DEC ONLY)
000428: 42,2360           24400                           OCT      24400                                 #  34 3COMP  HMS (DEC ONLY)
000429: 42,2361           24400                           OCT      24400                                 #  35 3COMP  HMS (DEC ONLY)
000430: 42,2362           24400                           OCT      24400                                 #  36 3COMP  HMS (DEC ONLY)
000431: 42,2363           24400                           OCT      24400                                 #  37 3COMP  HMS (DEC ONLY)
000432: 42,2364           24400                           OCT      24400                                 #  38 3COMP  HMS (DEC ONLY)
000433: 42,2365           00000                           OCT      00000                                 #  39        SPARE
000434:                                                                                                  #  END OF NNTYPTAB FOR NORMAL NOUNS
000435:
000436:
000437:                                                                                                  #  NN   MIXED NOUNS
000438: 42,2366           24500                           OCT      24500                                 #  40 3COMP  MIN/SEC, VEL3, VEL3
000439:                                                                                                  #            (NO LOAD, DEC ONLY)
000440: 42,2367           00542                           OCT      00542                                 #  41 2COMP  CDU DEG, ELEV DEG
000441: 42,2370           24410                           OCT      24410                                 #  42 3COMP  POS4, POS4, VEL3
000442:                                                                                                  #            (DEC ONLY)
000443: 42,2371           20204                           OCT      20204                                 #  43 3COMP  DPDEG(360), DPDEG(360), POS4
000444:                                                                                                  #            (DEC ONLY)
000445: 42,2372           00410                           OCT      00410                                 #  44 3COMP  POS4, POS4, MIN/SEC


000447:                                                                                                  #            (NO LOAD, DEC ONLY)
000448: 42,2373           10000                           OCT      10000                                 #  45 3COMP  WHOLE, MIN/SEC, DPDEG(360)
000449:                                                                                                  #            (NO LOAD, DEC ONLY)
000450: 42,2374           00000                           OCT      00000                                 #  46 2COMP  OCTAL ONLY
000451: 42,2375           00306                           OCT      00306                                 #  47 2COMP WEIGHT2 FOR EACH
000452:                                                                                                  #            (DEC ONLY)
000453: 42,2376           01367                           OCT      01367                                 #  48 2COMP  TRIM DEG2 FOR EACH
000454:                                                                                                  #            (DEC ONLY)
000455: 42,2377           00507                           OCT      00507                                 #  49 3COMP  POS5, VEL3, WHOLE
000456:                                                                                                  #            (DEC ONLY)
000457: 42,2400           00000                           OCT      0                                     #  50        SPARE
000458: 42,2401           00204                           OCT      00204                                 #  51 2COMP  DPDEG(360), DPDEG(360)
000459:                                                                                                  #            (DEC ONLY)
000460: 42,2402           00004                           OCT      00004                                 #  52 1COMP  DPDEG(360)
000461: 42,2403           00000                           OCT      00000                                 #  53        SPARE
000462: 42,2404           10507                           OCT      10507                                 #  54 3COMP  POS5, VEL3, DPDEG(360)
000463:                                                                                                  #            (DEC ONLY)
000464: 42,2405           10200                           OCT      10200                                 #  55 3COMP  WHOLE, DPDEG(360), DPDEG(360)
000465:                                                                                                  #            (DEC ONLY)
000466: 42,2406           00204                           OCT      00204                                 #  56 2COMP  DPDEG(360), DPDEG(360)
000467: 42,2407           00000                           OCT      00000                                 #  57        SPARE
000468:                                                                                                  #            (DEC ONLY)
000469: 42,2410           24510                           OCT      24510                                 #  58 3COMP  POS4, VEL3, VEL3
000470:                                                                                                  #            (DEC ONLY)
000471: 42,2411           24512                           OCT      24512                                 #  59 3COMP  VEL3 FOR EACH
000472:                                                                                                  #            (DEC ONLY)


000474: 42,2412           75640                           OCT      75640                                 #  60 3COMP  2INT, VEL5, COMP ALT 2
000475:                                                                                                  #            (DEC ONLY)
000476: 42,2413           54000                           OCT      54000                                 #  61 3COMP  MIN/SEC, MIN/SEC, POS7
000477:                                                                                                  #            (NO LOAD, DEC ONLY)
000478: 42,2414           24012                           OCT      24012                                 #  62 3COMP  VEL3, MIN/SEC, VEL3
000479:                                                                                                  #            (NO LOAD, DEC ONLY)


000481: 42,2415           60530                           OCT      60530                                 #  63 3COMP  COMP ALT, VEL3, COMP ALT
000482:                                                                                                  #            (DEC ONLY)
000483: 42,2416           60500                           OCT      60500                                 #  64 3COMP  2INT, VEL3, COMP ALT
000484:                                                                                                  #            (NO LOAD, DEC ONLY)
000485: 42,2417           00000                           OCT      00000                                 #  65 3COMP  HMS (DEC ONLY)
000486: 42,2420           00016                           OCT      00016                                 #  66 2COMP  LANDING RADAR ALT, POSITION
000487:                                                                                                  #            (NO LOAD, DEC ONLY)
000488: 42,2421           53223                           OCT      53223                                 #  67 3COMP LANDING RADAR VELX, Y, Z


000490: 42,2422           24026                           OCT      24026                                 #  68 3COMP  POS7, MIN/SEC, VEL3
000491:                                                                                                  #            (NO LOAD, DEC ONLY)
000492: 42,2423           61430                           OCT      61430                                 #  69 3COMP  COMP ALT, COMP ALT, COMP ALT
000493:                                                                                                  #            (DEC ONLY)
000494: 42,2424           00000                           OCT      0                                     #  70 3COMP  OCTAL ONLY FOR EACH
000495: 42,2425           00000                           OCT      0                                     #  71 3COMP  OCTAL ONLY FOR EACH
000496: 42,2426           00102                           OCT      00102                                 #  72 2COMP  360-CDU DEG, CDU DEG
000497: 42,2427           00102                           OCT      00102                                 #  73 2COMP  360-CDU DEG, CDU DEG
000498: 42,2430           10200                           OCT      10200                                 #  74 3COMP  MIN/SEC, DPDEG(360),DPDEG(360)
000499:                                                                                                  #            (NO LOAD, DEC ONLY)


000501: 42,2431           00010                           OCT      00010                                 #  75 3COMP  POS4, MIN/SEC, MIN/SEC
000502:                                                                                                  #            (NO LOAD, DEC ONLY)
000503: 42,2432           20512                           OCT      20512                                 #  76 3COMP  VEL3, VEL3, POS4
000504:                                                                                                  #            (DEC ONLY)
000505: 42,2433           00500                           OCT      00500                                 #  77 2COMP  MIN/SEC, VEL3
000506:                                                                                                  #            (NO LOAD, DEC ONLY)
000507: 42,2434           00654                           OCT      00654                                 #  78 3COMP  RR RANGE, RR RANGE RATE, M/S
000508:                                                                                                  #            (NO LOAD, DEC ONLY)
000509: 42,2435           00102                           OCT      00102                                 #  79 3COMP  CDU DEG, CDU DEG, WHOLE
000510:                                                                                                  #            (DEC ONLY)
000511: 42,2436           00200                           OCT      00200                                 #  80 2COMP  WHOLE, DPDEG(360)
000512: 42,2437           24512                           OCT      24512                                 #  81 3COMP  VEL3 FOR EACH
000513:                                                                                                  #            (DEC ONLY)
000514: 42,2440           24512                           OCT      24512                                 #  82 3COMP  VEL3 FOR EACH
000515:                                                                                                  #            (DEC ONLY)
000516: 42,2441           24512                           OCT      24512                                 #  83 3COMP  VEL3 FOR EACH
000517:                                                                                                  #            (DEC ONLY)
000518: 42,2442           24512                           OCT      24512                                 #  84 3COMP  VEL3 FOR EACH
000519:                                                                                                  #            (DEC ONLY)
000520: 42,2443           24512                           OCT      24512                                 #  85 3COMP  VEL3 FOR EACH
000521:                                                                                                  #            (DEC ONLY)
000522: 42,2444           24512                           OCT      24512                                 #  86 3COMP  VEL3 FOR EACH
000523:                                                                                                  #            (DEC ONLY)
000524: 42,2445           00102                           OCT      00102                                 #  87 2COMP  CDU DEG FOR EACH
000525: 42,2446           00000                           OCT      0                                     #  88 3COMP  FRAC FOR EACH
000526:                                                                                                  #             (DEC ONLY)
000527: 42,2447           16143                           OCT      16143                                 #  89 3COMP  DPDEG(90), DPDEG(90), POS5
000528:                                                                                                  #            (DEC ONLY)
000529: 42,2450           10507                           OCT      10507                                 #  90 3COMP  POS5, VEL3, DPDEG(360)
000530:                                                                                                  #            (DEC ONLY)
000531: 42,2451           10450                           OCT      10450                                 #  91 3COMP  POS4, VEL2, DPDEG(360)
000532: 42,2452           60500                           OCT      60500                                 #  92 3COMP  WHOLE, VEL3, COMP ALT
000533: 42,2453           06143                           OCT      06143                                 #  93 3COMP  DPDEG(90) FOR EACH


000535: 42,2454           60512                           OCT      60512                                 #  94 3COMP  VEL3, VEL3, COMP ALT
000536: 42,2455           00000                           OCT      0                                     #  95        SPARE
000537: 42,2456           00000                           OCT      0                                     #  96        SPARE
000538: 42,2457           00000                           OCT      00000                                 #  97 3COMP  WHOLE FOR EACH
000539: 42,2460           00000                           OCT      00000                                 #  98 3COMP  WHOLE, FRAC, WHOLE
000540: 42,2461           71572                           OCT      71572                                 #  99 3COMP  POS9, VEL4, RADIANS
000541:                                                                                                  #            (DEC ONLY)
000542:                                                                                                  #  END OF NNTYPTAB FOR MIXED NOUNS
000543:
000544:
000545: 42,2462           00006        SFINTAB            OCT      00006                                 #  WHOLE, DP TIME (SEC)
000546: 42,2463           03240                           OCT      03240
000547: 42,2464           00000                           OCT      00000                                 #  SPARE
000548: 42,2465           00000                           OCT      00000
000549: 42,2466           00000                           OCT      00000                                 #  CDU DEGREES, 360-CDU DEGREES
000550: 42,2467           00000                           OCT      00000                                 #      (SFCONS IN DEGINSF)
000551: 42,2470           10707                           OCT      10707                                 #  DP DEGREES (90)


000553: 42,2471           03435                           OCT      03435                                 #          UPPED BY 1
000554: 42,2472           13070                           OCT      13070                                 #  DP DEGREES (360)(POINT BETWN BITS 11-12)
000555: 42,2473           34345                           OCT      34345                                 #          UPPED BY 1
000556: 42,2474           00005                           OCT      00005                                 #  DEGREES (180)
000557: 42,2475           21616                           OCT      21616
000558: 42,2476           26113                           OCT      26113                                 #  WEIGHT2
000559: 42,2477           31713                           OCT      31713
000560: 42,2500           00070                           OCT      00070                                 #  POSITION5
000561: 42,2501           20460                           OCT      20460
000562: 42,2502           01065                           OCT      01065                                 #  POSITION4
000563: 42,2503           05740                           OCT      05740
000564: 42,2504           11414                           OCT      11414                                 #  VELOCITY2       (POINT BETWN BITS 11-12)
000565: 42,2505           31463                           OCT      31463
000566: 42,2506           07475                           OCT      07475                                 #  VELOCITY3
000567: 42,2507           16051                           OCT      16051
000568: 42,2510           00001                           OCT      00001                                 #  ELEVATION DEGREES
000569: 42,2511           03434                           OCT      03434
000570: 42,2512           00047                           OCT      00047                                 #  RENDEZVOUS RADAR RANGE
000571: 42,2513           21135                           OCT      21135
000572: 42,2514           77766                           OCT      77766                                 #  RENDEZVOUS RADAR RANGE RATE
000573: 42,2515           50711                           OCT      50711
000574: 42,2516           00005 25006                     2DEC*    .9267840599 E5         B-28*           #  LANDING RADAR ALTITUDE
000575:
000576: 42,2520           00002                           OCT      00002                                 #  INITIAL/FINAL ALTITUDE
000577: 42,2521           23224                           OCT      23224
000578: 42,2522           00014                           OCT      00014                                 #  ALTITUDE RATE
000579: 42,2523           06500                           OCT      06500
000580: 42,2524           00001 03036                     2DEC*    1.79500987 E4         B-28*           #  FORWARD/LATERAL VELOCITY
000581:
000582: 42,2526           04256                           OCT      04256                                 #  ROT HAND CONT ANGLE RATE
000583: 42,2527           07071                           OCT      07071
000584: 42,2530           77766 60557                     2DEC*    -1.552795030 E5         B-28*           #  LANDING RADAR VELX
000585:
000586: 42,2532           00005 01114                     2DEC*    .8250825087 E5         B-28*           #  LANDING RADAR VELY
000587:
000588: 42,2534           00007 01247                     2DEC*    1.153668673 E5         B-28*           #  LANDING RADAR VELZ
000589:
000590: 42,2536           04324                           OCT      04324                                 #  POSITION7
000591: 42,2537           27600                           OCT      27600
000592: 42,2540           00036                           OCT      00036                                 #  TRIM DEGREES2
000593: 42,2541           20440                           OCT      20440
000594: 42,2542           00035                           OCT      00035                                 #  COMPUTED ALTITUDE
000595: 42,2543           30400                           OCT      30400
000596: 42,2544           23420                           OCT      23420                                 #  DP DEGREES
000597: 42,2545           00000                           OCT      00000
000598: 42,2546           01670 20000                     2DEC     30480      B-19                       #  POSITION 9
000599:
000600: 42,2550           07475 16051                     2DEC     30.48      B-7                        #  VELOCITY4
000601:
000602: 42,2552           14400 00000                     2DEC     100        B-8                        #  RADIANS
000603:


000605: 42,2554           36365 30244                     2DEC     .3048      E2         B-5             #  VELOCITY5
000606:


000608: 42,2556           35610 00000                     2DEC     .3048      E5         B-15            #  COMPUTED ALTITUDE 2
000609:
000610:                                                                                                  #  END OF SFINTAB
000611:
000612:
000613: 42,2560           05174        SFOUTAB            OCT      05174                                 #  WHOLE, DP TIME (SEC)
000614: 42,2561           13261                           OCT      13261
000615: 42,2562           00000                           OCT      00000                                 #  SPARE
000616: 42,2563           00000                           OCT      00000
000617: 42,2564           00000                           OCT      00000                                 #  CDU DEGREES, 360-CDU DEGREES
000618: 42,2565           00000                           OCT      00000                                 #      (SFCONS IN DEGOUTSF, 360-CDUO)
000619: 42,2566           00714                           OCT      00714                                 #  DP DEGREES (90) (POINT BETWN BITS 7-8)
000620: 42,2567           31463                           OCT      31463
000621: 42,2570           13412                           OCT      13412                                 #  DP DEGREES (360)
000622: 42,2571           07534                           OCT      07534
000623: 42,2572           05605                           OCT      05605                                 #  DEGREES (180)
000624: 42,2573           03656                           OCT      03656
000625: 42,2574           00001                           OCT      00001                                 #  WEIGHT2
000626: 42,2575           16170                           OCT      16170
000627: 42,2576           00441                           OCT      00441                                 #  POSITION5
000628: 42,2577           34306                           OCT      34306
000629: 42,2600           07176                           OCT      07176                                 #  POSITION4       (POINT BETWN BITS 7-8)
000630: 42,2601           21603                           OCT      21603
000631: 42,2602           15340                           OCT      15340                                 #  VELOCITY2
000632: 42,2603           15340                           OCT      15340
000633: 42,2604           01031                           OCT      01031                                 #  VELOCITY3       (POINT BETWN BITS 7-8)
000634: 42,2605           21032                           OCT      21032
000635: 42,2606           34631                           OCT      34631                                 #  ELEVATION DEGREES
000636: 42,2607           23146                           OCT      23146
000637: 42,2610           00636                           OCT      00636                                 #  RENDEZVOUS RADAR RANGE
000638: 42,2611           14552                           OCT      14552
000639: 42,2612           74552                           OCT      74552                                 #  RENDEZVOUS RADAR RANGE RATE
000640: 42,2613           70307                           OCT      70307
000641: 42,2614           05520 15312                     2DEC     1.079      E-5        B14             #  LANDING RADAR ALTITUDE
000642:
000643: 42,2616           14226                           OCT      14226                                 #  INITIAL/FINAL ALTITUDE
000644: 42,2617           31757                           OCT      31757
000645: 42,2620           02476                           OCT      02476                                 #  ALTITUDE RATE
000646: 42,2621           05531                           OCT      05531
000647: 42,2622           35152 21203                     2DEC     5.571      E-5        B14             #  FORWARD/LATERAL VELOCITY
000648:
000649: 42,2624           00007                           OCT      00007                                 #  ROT HAND CONT ANGLE RATE
000650: 42,2625           13734                           OCT      13734
000651: 42,2626           74477 50643                     2DEC     -.6440     E-5        B14             #  LANDING RADAR VELX
000652:
000653: 42,2630           06265 16004                     2DEC     1.212      E-5        B14             #  LANDING RADAR VELY
000654:
000655: 42,2632           04426 31433                     2DEC     .8668      E-5        B14             #  LANDING RADAR VELZ
000656:


000658: 42,2634           34772                           OCT      34772                                 #  POSITION7
000659: 42,2635           07016                           OCT      07016
000660: 42,2636           01030                           OCT      01030                                 #  TRIM DEGREES2
000661: 42,2637           33675                           OCT      33675
000662: 42,2640           01046                           OCT      01046                                 #  COMPUTED ALTITUDE
000663: 42,2641           15700                           OCT      15700
000664: 42,2642           00321                           OCT      00321                                 #  DP DEGREES
000665: 42,2643           26706                           OCT      26706
000666: 42,2644           04231 27400                     2DEC     17.2010499 B-7                        #  POSITION 9
000667:
000668: 42,2646           01031 21032                     2DEC     .032808399                            #  VELOCITY4
000669:
000670: 42,2650           12172 34122                     2DEC     .32                                   #  RADIANS
000671:


000673: 42,2652           00206 14206                     2DEC*    3.280839896 E-2        B-2             #  VELOCITY5
000674:


000676: 42,2654           00211 23360                     2DEC*    3.280839896 E-5        B8              #  COMPUTED ALTITUDE 2
000677:
000678:                                                                                                  #  END OF SFOUTAB
000679:
000680:
000681:                                                                                                  #  NN  SF CONSTANT               SF ROUTINE
000682:
000683: 42,2656           03453        IDADDTAB           ECADR    TTOGO                                 #  40 MIN/SEC                          M/S
000684: 42,2657           03663                           ECADR    VGDISP                                #  40 VEL3                             DP3
000685: 42,2660           03507                           ECADR    DVTOTAL                               #  40 VEL3                             DP3
000686: 42,2661           01044                           ECADR    DSPTEM1                               #  41 CDU DEG                          CDU
000687: 42,2662           01045                           ECADR    DSPTEM1    +1                         #  41 ELEV DEG                         ARTH
000688: 42,2663           00000                           OCT      0                                     #  41 SPARE COMPONENT
000689: 42,2664           02307                           ECADR    HAPO                                  #  42 POS4                             DP3
000690: 42,2665           02311                           ECADR    HPER                                  #  42 POS4                             DP3
000691: 42,2666           03663                           ECADR    VGDISP                                #  42 VEL3                             DP3
000692: 42,2667           01117                           ECADR    LAT                                   #  43 DPDEG(360)                       DP4
000693: 42,2670           01121                           ECADR    LONG                                  #  43 DPDEG(360)                       DP4
000694: 42,2671           01123                           ECADR    ALT                                   #  43 POS4                             DP3
000695: 42,2672           02112                           ECADR    HAPOX                                 #  44 POS4                             DP3
000696: 42,2673           02114                           ECADR    HPERX                                 #  44 POS4                             DP3
000697: 42,2674           02131                           ECADR    TFF                                   #  44 MIN/SEC                          M/S
000698: 42,2675           03462                           ECADR    TRKMKCNT                              #  45 WHOLE                            ARTH
000699: 42,2676           03453                           ECADR    TTOGO                                 #  45 MIN/SEC                          M/S
000700: 42,2677           02243                           ECADR    +MGA                                  #  45 DPDEG(360)                       DP4
000701: 42,2700           01340                           ECADR    DAPDATR1                              #  46 OCTAL ONLY                       OCT
000702: 42,2701           00000                           OCT      0                                     #  46 SPARE COMPONENT
000703: 42,2702           00000                           OCT      0                                     #  46 SPARE COMPONENT
000704: 42,2703           01326                           ECADR    LEMMASS                               #  47 WEIGHT2                         ARTH1
000705: 42,2704           01327                           ECADR    CSMMASS                               #  47 WEIGHT2                         ARTH1
000706: 42,2705           00000                           OCT      0                                     #  47 SPARE COMPONENT
000707: 42,2706           03002                           ECADR    PITTIME                               #  48 TRIM DEG2                        ARTH
000708: 42,2707           03001                           ECADR    ROLLTIME                              #  48 TRIM DEG2                        ARTH
000709: 42,2710           00000                           OCT      0                                     #  48 SPARE COMPONENT


000711: 42,2711           00314                           ECADR    R22DISP                               #  49 POS5                             DP1
000712: 42,2712           00316                           ECADR    R22DISP    +2                         #  49 VEL3                             DP3
000713: 42,2713           01353                           ECADR    WHCHREAD                              #  49 WHOLE                            ARTH
000714: 42,2714           00000                           OCT      0                                     #  50 SPARE
000715: 42,2715           00000                           OCT      0                                     #  50 SPARE
000716: 42,2716           00000                           OCT      0                                     #  50 SPARE
000717: 42,2717           02171                           ECADR    ALPHASB                               #  51 DPDEG(360)                       DP4
000718: 42,2720           02173                           ECADR    BETASB                                #  51 DPDEG(360)                       DP4
000719: 42,2721           00000                           OCT      0                                     #  51 SPARE COMPONENT
000720: 42,2722           01753                           ECADR    ACTCENT                               #  52 DPDEG(360)                       DP4
000721: 42,2723           00000                           OCT      00000                                 #  52 SPARE COMPONENT
000722: 42,2724           00000                           OCT      00000                                 #  52 SPARE COMPONENT
000723: 42,2725           00000                           OCT      00000                                 #  53 SPARE
000724: 42,2726           00000                           OCT      00000                                 #  53
000725: 42,2727           00000                           OCT      00000                                 #  53
000726: 42,2730           02213                           ECADR    RANGE                                 #  54 POS5                             DP1
000727: 42,2731           02215                           ECADR    RRATE                                 #  54 VEL3                             DP3
000728: 42,2732           02217                           ECADR    RTHETA                                #  54 DPDEG(360)                       DP4
000729: 42,2733           03466                           ECADR    NN                                    #  55 WHOLE                            ARTH
000730: 42,2734           02247                           ECADR    ELEV                                  #  55 DPDEG(360)                       DP4
000731: 42,2735           03620                           ECADR    CENTANG                               #  55 DPDEG(360)                       DP4
000732: 42,2736           02171                           ECADR    RR-AZ                                 #  56 DPDEG(360)                       DP4
000733: 42,2737           02173                           ECADR    RR-ELEV                               #  56 DPDEG(360)                       DP4
000734: 42,2740           00000                           OCT      0                                     #  56 SPARE COMPONENT
000735: 42,2741           00000                           OCT      0                                     #  57 SPARE
000736: 42,2742           00000                           OCT      0                                     #  57 SPARE
000737: 42,2743           00000                           OCT      0                                     #  57 SPARE
000738: 42,2744           03605                           ECADR    POSTTPI                               #  58 POS4                             DP3
000739: 42,2745           03575                           ECADR    DELVTPI                               #  58 VEL3                             DP3
000740: 42,2746           02340                           ECADR    DELVTPF                               #  58 VEL3                             DP3
000741: 42,2747           02273                           ECADR    DVLOS                                 #  59 VEL3                             DP3
000742: 42,2750           02275                           ECADR    DVLOS      +2                         #  59 VEL3                             DP3
000743: 42,2751           02277                           ECADR    DVLOS      +4                         #  59 VEL3                             DP3


000745: 42,2752           03666                           ECADR    FUNNYDSP                              #  60 2INT                             2INT
000746: 42,2753           03734                           ECADR    ALTRATE                               #  60 VEL5                             DP3
000747: 42,2754           03736                           ECADR    ALTITUDE                              #  60 COMP ALT 2                       DP3
000748: 42,2755           03475                           ECADR    TTFDISP                               #  61 MIN/SEC                          M/S
000749: 42,2756           03453                           ECADR    TTOGO                                 #  61 MIN/SEC                          M/S
000750: 42,2757           02602                           ECADR    OUTOFPLN                              #  61 POS7                             DP4
000751: 42,2760           03471                           ECADR    ABVEL                                 #  62 VEL3                             DP3
000752: 42,2761           03453                           ECADR    TTOGO                                 #  62 MIN/SEC                          M/S
000753: 42,2762           03507                           ECADR    DVTOTAL                               #  62 VEL3                             DP3


000755: 42,2763           03664                           ECADR    DELTAH                                #  63 COMP ALT                         DP1
000756: 42,2764           03473                           ECADR    HDOTDISP                              #  63 VEL3                             DP3


000758: 42,2765           03532                           ECADR    HCALC                                 #  63 COMP ALT                         DP1
000759: 42,2766           03666                           ECADR    FUNNYDSP                              #  64 2INT                             2INT
000760: 42,2767           03473                           ECADR    HDOTDISP                              #  64 VEL3                             DP3
000761: 42,2770           03532                           ECADR    HCALC                                 #  64 COMP ALT                         DP1
000762: 42,2771           00013                           ECADR    SAMPTIME                              #  65 HMS (MIXED ONLY TO KEEP CODE 65) HMS
000763: 42,2772           00013                           ECADR    SAMPTIME                              #  65 HMS                              HMS


000765: 42,2773           00013                           ECADR    SAMPTIME                              #  65 HMS                              HMS
000766: 42,2774           02177                           ECADR    RSTACK     +6                         #  66 LANDING RADAR ALT                DP1
000767: 42,2775           00000                           OCT      0                                     #  66 LR POSITION                     LRPOS
000768: 42,2776           00000                           OCT      0                                     #  66 SPARE COMPONENT
000769: 42,2777           02171                           ECADR    RSTACK                                #  67 LANDING RADAR VELX               DP1
000770: 42,3000           02173                           ECADR    RSTACK     +2                         #  67 LANDING RADAR VELY               DP1
000771: 42,3001           02175                           ECADR    RSTACK     +4                         #  67 LANDING RADAR VELZ               DP1
000772: 42,3002           02602                           ECADR    RANGEDSP                              #  68 POS7                             DP4
000773: 42,3003           03475                           ECADR    TTFDISP                               #  68 MIN/SEC                          M/S


000775: 42,3004           03471                           ECADR    ABVEL                                 #  68 VEL3                             DP3
000776: 42,3005           02616                           ECADR    DLANDZ                                #  69 COMP ALT                         DP1
000777: 42,3006           02614                           ECADR    DLANDY                                #  69 COMP ALT                         DP1
000778: 42,3007           02612                           ECADR    DLANDX                                #  69 COMP ALT                         DP1
000779: 42,3010           00734                           ECADR    AOTCODE                               #  70 OCTAL ONLY                       OCT
000780: 42,3011           00735                           ECADR    AOTCODE    +1                         #  70 OCTAL ONLY                       OCT
000781: 42,3012           00736                           ECADR    AOTCODE    +2                         #  70 OCTAL ONLY                       OCT
000782: 42,3013           00734                           ECADR    AOTCODE                               #  71 OCTAL ONLY                       OCT
000783: 42,3014           00735                           ECADR    AOTCODE    +1                         #  71 OCTAL ONLY                       OCT
000784: 42,3015           00736                           ECADR    AOTCODE    +2                         #  71 OCTAL ONLY                       OCT
000785: 42,3016           00035                           ECADR    CDUT                                  #  72 360-CDU DEG                   360-CDU
000786: 42,3017           00036                           ECADR    CDUS                                  #  72 CDU DEG                          CDU
000787: 42,3020           00000                           OCT      0                                     #  72 SPARE COMPONENT
000788: 42,3021           01106                           ECADR    TANG                                  #  73 360-CDU DEG                   360-CDU
000789: 42,3022           01107                           ECADR    TANG       +1                         #  73 CDU DEG                          CDU
000790: 42,3023           00000                           OCT      0                                     #  73 SPARE COMPONENT
000791: 42,3024           03453                           ECADR    TTOGO                                 #  74 MIN/SEC                          M/S
000792: 42,3025           02353                           ECADR    YAW                                   #  74 DPDEG(360)                       DP4
000793: 42,3026           02355                           ECADR    PITCH                                 #  74 DPDEG(360)                       DP4
000794: 42,3027           03577                           ECADR    DIFFALT                               #  75 POS4                             DP3
000795: 42,3030           02243                           ECADR    T1TOT2                                #  75 MIN/SEC
000796: 42,3031           02245                           ECADR    T2TOT3                                #  75 MIN/SEC                          M/S
000797: 42,3032           02267                           ECADR    ZDOTD                                 #  76 VEL3                             DP3
000798: 42,3033           02263                           ECADR    RDOTD                                 #  76 VEL3                             DP3
000799: 42,3034           03642                           ECADR    XRANGE                                #  76 POS4                             DP3
000800: 42,3035           03453                           ECADR    TTOGO                                 #  77 MIN/SEC                          M/S
000801: 42,3036           02301                           ECADR    YDOT                                  #  77 VEL3                             DP3
000802: 42,3037           00000                           OCT      0                                     #  77 SPARE COMPONENT
000803: 42,3040           01330                           ECADR    DNRRANGE                              #  78 RR RANGE                     RR RANGE
000804: 42,3041           01331                           ECADR    DNRRDOT                               #  78 RR RANGE RATE           RR RANGE RATE
000805: 42,3042           01271                           ECADR    TTOTIG                                #  78 MIN/SEC                           M/S
000806: 42,3043           01235                           ECADR    CURSOR                                #  79 CDU DEG                          CDU
000807: 42,3044           01236                           ECADR    SPIRAL                                #  79 CDU DEG                          CDU
000808: 42,3045           01241                           ECADR    POSCODE                               #  79 WHOLE                            ARTH
000809: 42,3046           03733                           ECADR    DATAGOOD                              #  80 WHOLE                            ARTH
000810: 42,3047           03734                           ECADR    OMEGAD                                #  80 DPDEG(360)                       DP4
000811: 42,3050           00000                           OCT      0                                     #  80 SPARE COMPONENT
000812: 42,3051           03433                           ECADR    DELVLVC                               #  81 VEL3                             DP3
000813: 42,3052           03435                           ECADR    DELVLVC    +2                         #  81 VEL3                             DP3
000814: 42,3053           03437                           ECADR    DELVLVC    +4                         #  81 VEL3                             DP3
000815: 42,3054           03433                           ECADR    DELVLVC                               #  82 VEL3                             DP3


000817: 42,3055           03435                           ECADR    DELVLVC    +2                         #  82 VEL3                             DP3
000818: 42,3056           03437                           ECADR    DELVLVC    +4                         #  82 VEL3                             DP3
000819: 42,3057           03622                           ECADR    DELVIMU                               #  83 VEL3                             DP3
000820: 42,3060           03624                           ECADR    DELVIMU    +2                         #  83 VEL3                             DP3
000821: 42,3061           03626                           ECADR    DELVIMU    +4                         #  83 VEL3                             DP3
000822: 42,3062           01252                           ECADR    DELVOV                                #  84 VEL3                             DP3
000823: 42,3063           01254                           ECADR    DELVOV     +2                         #  84 VEL3                             DP3
000824: 42,3064           01256                           ECADR    DELVOV     +4                         #  84 VEL3                             DP3
000825: 42,3065           03501                           ECADR    VGBODY                                #  85 VEL3                             DP3
000826: 42,3066           03503                           ECADR    VGBODY     +2                         #  85 VEL3                             DP3
000827: 42,3067           03505                           ECADR    VGBODY     +4                         #  85 VEL3                             DP3
000828: 42,3070           03433                           ECADR    DELVLVC                               #  86 VEL3                             DP3
000829: 42,3071           03435                           ECADR    DELVLVC    +2                         #  86 VEL3                             DP3
000830: 42,3072           03437                           ECADR    DELVLVC    +4                         #  86 VEL3                             DP3
000831: 42,3073           01344                           ECADR    AZ                                    #  87 CDU DEG                          CDU
000832: 42,3074           01345                           ECADR    EL                                    #  87 CDU DEG                          CDU
000833: 42,3075           00000                           OCT      0                                     #  87 SPARE COMPONENT
000834: 42,3076           02706                           ECADR    STARAD                                #  88 FRAC                             FRAC
000835: 42,3077           02710                           ECADR    STARAD     +2                         #  88 FRAC                             FRAC
000836: 42,3100           02712                           ECADR    STARAD     +4                         #  88 FRAC                             FRAC
000837: 42,3101           02706                           ECADR    LANDLAT                               #  89 DPDEG(90)                        DP3
000838: 42,3102           02710                           ECADR    LANDLONG                              #  89 DPDEG(90)                        DP3
000839: 42,3103           02712                           ECADR    LANDALT                               #  89 POS5                             DP1
000840: 42,3104           02171                           ECADR    YLEM                                  #  90 POS5                              DP1
000841: 42,3105           02173                           ECADR    YDOTLEM                               #  90  VEL3                             DP3
000842: 42,3106           02175                           ECADR    PHILEM                                #  90 DPDEG(360)                        DP4
000843: 42,3107           03715                           ECADR    P21ALT                                #  91 POS4                             DP3
000844: 42,3110           03711                           ECADR    P21VEL                                #  91 VEL2                             DP4
000845: 42,3111           03713                           ECADR    P21GAM                                #  91 DPDEG(360)                       DP4
000846: 42,3112           03672                           ECADR    THRDISP                               #  92 WHOLE                            ARTH
000847: 42,3113           03473                           ECADR    HDOTDISP                              #  92 VEL3                             DP3


000849: 42,3114           03532                           ECADR    HCALC                                 #  92 COMP ALT                         DP1
000850: 42,3115           02737                           ECADR    OGC                                   #  93 DPDEG(90)                        DP3
000851: 42,3116           02741                           ECADR    OGC        +2                         #  93 DPDEG(90)                        DP3
000852: 42,3117           02743                           ECADR    OGC        +4                         #  93 DPDEG(90)                        DP3


000854: 42,3120           03501                           ECADR    VGBODY                                #  94 VEL3                             DP3
000855: 42,3121           03473                           ECADR    HDOTDISP                              #  94 VEL3                             DP3
000856: 42,3122           03532                           ECADR    HCALC                                 #  94 COMP ALT                         DP1
000857: 42,3123           00000                           OCT      0                                     #  95 SPARE
000858: 42,3124           00000                           OCT      0                                     #  95 SPARE
000859: 42,3125           00000                           OCT      0                                     #  95 SPARE
000860: 42,3126           00000                           OCT      0                                     #  96 SPARE
000861: 42,3127           00000                           OCT      0                                     #  96 SPARE
000862: 42,3130           00000                           OCT      0                                     #  96 SPARE
000863: 42,3131           01044                           ECADR    DSPTEM1                               #  97 WHOLE                            ARTH
000864: 42,3132           01045                           ECADR    DSPTEM1    +1                         #  97 WHOLE                            ARTH
000865: 42,3133           01046                           ECADR    DSPTEM1    +2                         #  97 WHOLE                            ARTH
000866: 42,3134           01047                           ECADR    DSPTEM2                               #  98 WHOLE                            ARTH
000867: 42,3135           01050                           ECADR    DSPTEM2    +1                         #  98 FRAC                             FRAC
000868: 42,3136           01051                           ECADR    DSPTEM2    +2                         #  98 WHOLE                            ARTH


000870: 42,3137           02171                           ECADR    WWPOS                                 #  99 POS9                             DP3
000871: 42,3140           02173                           ECADR    WWVEL                                 #  99 VEL4                             DP2
000872: 42,3141           02175                           ECADR    WWBIAS                                #  99 RADIANS                          DP4
000873:                                                                                                  #  END OF IDADDTAB
000874:
000875:
000876:                                                                                                  #  NN  SF ROUTINES
000877:
000878: 42,3142           16351        RUTMXTAB           OCT      16351                                 #  40 M/S, DP3, DP3
000879: 42,3143           00142                           OCT      00142                                 #  41 CDU, ARTH
000880: 42,3144           16347                           OCT      16347                                 #  42 DP3, DP3, DP3
000881: 42,3145           16512                           OCT      16512                                 #  43 DP4, DP4, DP3
000882: 42,3146           22347                           OCT      22347                                 #  44 DP3, DP3, M/S
000883: 42,3147           24443                           OCT      24443                                 #  45 ARTH, M/S, DP4
000884: 42,3150           00000                           OCT      00000                                 #  46 OCT
000885: 42,3151           00553                           OCT      00553                                 #  47 ARITH1, ARITH1
000886: 42,3152           00143                           OCT      00143                                 #  48 ARTH, ARTH
000887: 42,3153           06347                           OCT      06347                                 #  49 DP3, DP3, ARTH
000888: 42,3154           00000                           OCT      0                                     #  50 SPARE
000889: 42,3155           00512                           OCT      00512                                 #  51 DP4, DP4
000890: 42,3156           00012                           OCT      00012                                 #  52 DP4
000891: 42,3157           00000                           OCT      00000                                 #  53 SPARE
000892: 42,3160           24344                           OCT      24344                                 #  54 DP1, DP3, DP4
000893: 42,3161           24503                           OCT      24503                                 #  55 ARTH, DP4 , DP4
000894: 42,3162           00512                           OCT      00512                                 #  56 DP4, DP4
000895: 42,3163           00000                           OCT      0                                     #  57 SPARE
000896: 42,3164           16347                           OCT      16347                                 #  58 DP3, DP3, DP3
000897: 42,3165           16347                           OCT      16347                                 #  59 DP3, DP3, DP3


000899: 42,3166           16354                           OCT      16354                                 #  60 2INT, DP3, DP3
000900: 42,3167           24451                           OCT      24451                                 #  61 M/S, M/S, DP4
000901: 42,3170           16447                           OCT      16447                                 #  62 DP3, M/S, DP3


000903: 42,3171           10344                           OCT      10344                                 #  63 DP1, DP3, DP1
000904: 42,3172           10354                           OCT      10354                                 #  64 2INT, DP3, DP1
000905: 42,3173           20410                           OCT      20410                                 #  65 HMS, HMS, HMS
000906: 42,3174           00304                           OCT      00304                                 #  66 DP1, LRPOS
000907: 42,3175           10204                           OCT      10204                                 #  67 DP1, DP1, DP1


000909: 42,3176           16452                           OCT      16452                                 #  68 DP4, M/S, DP3
000910: 42,3177           10204                           OCT      10204                                 #  69 DP1, DP1, DP1
000911: 42,3200           00000                           OCT      0                                     #  70 OCT, OCT, OCT
000912: 42,3201           00000                           OCT      0                                     #  71 OCT, OCT, OCT
000913: 42,3202           00115                           OCT      00115                                 #  72 360-CDU, CDU
000914: 42,3203           00115                           OCT      00115                                 #  73 360-CDU, CDU
000915: 42,3204           24511                           OCT      24511                                 #  74M/S, DP4,DP4
000916: 42,3205           22447                           OCT      22447                                 #  75 DP3, M/S, M/S
000917: 42,3206           16347                           OCT      16347                                 #  76 DP3, DP3, DP3
000918: 42,3207           00351                           OCT      00351                                 #  77 M/S, DP3
000919: 42,3210           22756                           OCT      22756                                 #  78 RR RANGE, RR RANGE RATE, M/S
000920: 42,3211           06102                           OCT      06102                                 #  79 CDU, CDU, ARTH
000921: 42,3212           00503                           OCT      00503                                 #  80 ARTH, DP4
000922: 42,3213           16347                           OCT      16347                                 #  81 DP3, DP3, DP3


000924: 42,3214           16347                           OCT      16347                                 #  82 DP3, DP3, DP3
000925: 42,3215           16347                           OCT      16347                                 #  83 DP3, DP3, DP3
000926: 42,3216           16347                           OCT      16347                                 #  84 DP3, DP3, DP3
000927: 42,3217           16347                           OCT      16347                                 #  85 DP3, DP3, DP3
000928: 42,3220           16347                           OCT      16347                                 #  86 DP3, DP3, DP3
000929: 42,3221           00102                           OCT      00102                                 #  87 CDU, CDU
000930: 42,3222           02041                           OCT      02041                                 #  88 FRAC FOR EACH
000931: 42,3223           10347                           OCT      10347                                 #  89 DP3, DP3, DP1
000932: 42,3224           24344                           OCT      24344                                 #  90 DP1, DP3, DP4
000933: 42,3225           24507                           OCT      24507                                 #  91 DP3, DP4, DP4
000934: 42,3226           10343                           OCT      10343                                 #  92 ARTH, DP3, DP1
000935: 42,3227           16347                           OCT      16347                                 #  93 DP3, DP3, DP3


000937: 42,3230           10347                           OCT      10347                                 #  94 DP3, DP3, DP1
000938: 42,3231           00000                           OCT      0                                     #  95 SPARE
000939: 42,3232           00000                           OCT      0                                     #  96 SPARE
000940: 42,3233           06143                           OCT      06143                                 #  97 ARTH, ARTH, ARTH
000941: 42,3234           06043                           OCT      06043                                 #  98 ARTH, FRAC, ARTH
000942: 42,3235           24247                           OCT      24247                                 #  99 DP3, DP2, DP4
000943:                                                                                                  #  END OF RUTMXTAB
000944:
000945:
000946: 42,3236  30,2000                                  SBANK=   LOWSUPER

End of include-file PINBALL_NOUN_TABLES.agc.  Parent file is MAIN.agc


