
Source Code


000002:                                                                                                  ## Copyright:   Public domain.
000003:                                                                                                  ## Filename:    RCS_FAILURE_MONITOR.agc
000004:                                                                                                  ## Purpose:     A log section of Zerlina 56, the final revision of
000005:                                                                                                  ##              Don Eyles's offline development program for the variable
000006:                                                                                                  ##              guidance period servicer. It also includes a new P66 with LPD
000007:                                                                                                  ##              (Landing Point Designator) capability, based on an idea of John
000008:                                                                                                  ##              Young's. Neither of these advanced features were actually flown,
000009:                                                                                                  ##              but Zerlina was also the birthplace of other big improvements to
000010:                                                                                                  ##              Luminary including the terrain model and new (Luminary 1E)
000011:                                                                                                  ##              analog display programs. Zerlina was branched off of Luminary 145,
000012:                                                                                                  ##              and revision 56 includes all changes up to and including Luminary
000013:                                                                                                  ##              183. It is therefore quite close to the Apollo 14 program,
000014:                                                                                                  ##              Luminary 178, where not modified with new features.
000015:                                                                                                  ## Reference:   pp. 196-198
000016:                                                                                                  ## Assembler:   yaYUL
000017:                                                                                                  ## Contact:     Ron Burkey <info@sandroid.org>.
000018:                                                                                                  ## Website:     www.ibiblio.org/apollo/index.html
000019:                                                                                                  ## Mod history: 2017-07-28 MAS  Created from Luminary 210.
000020:                                                                                                  ##              2017-08-18 RSB  Transcribed.
000021:


000023:                                                                                                  #  PROGRAM DESCRIPTION
000024:
000025:                                                                                                  #  AUTHOR: J S MILLER
000026:
000027:                                                                                                  #  MODIFIED 6 MARCH 1968 BY P S WEISSMAN TO SET UP JOB FOR 1/ACCS WHEN THE MASKS ARE CHANGED.
000028:
000029:                                                                                                  #       THIS ROUTINE IS ATTACHED TO T4RUPT, AND IS ENTERED EVERY 480 MS.  ITS FUNCTION IS TO EXAMINE THE LOW 8 BITS
000030:                                                                                                  #  OF CHANNEL 32 TO SEE IF ANY ISOLATION-VALVE CLOSURE BITS HAVE APPEARED OR DISAPPEARED (THE CREW IS WARNED OF JET
000031:                                                                                                  #  FAILURES BY LAMPS LIT BY THE GRUMMAN FAILURE-DETECTION CIRCUITRY; THEY MAY RESPOND BY OPERATING SWITCHES WHICH
000032:                                                                                                  #  ISOLATE PAIRS OF JETS FROM THE PROPELLANT TANKS AND SET BITS IN CHANNEL 32).  IN THE EVENT THAT CHANNEL 32 BITS
000033:                                                                                                  #  DIFFER FROM 'PVALVEST', THE RECORD OF ACTIONS TAKEN BY THIS ROUTINE, THE APPROPRIATE BITS IN 'CH5MASK' &
000034:                                                                                                  #  'CH6MASK', USED BY THE DAP JET-SELECTION LOGIC, ARE UPDATED, AS IS 'PVALVEST'.  TO SPEED UP & SHORTEN THE
000035:                                                                                                  #  ROUTINE, NO MORE THAN ONE CHANGE IS ACCEPTED PER ENTRY.  THE HIGHEST-NUMBERED BIT IN CHANNEL 32 WHICH REQUIRES
000036:                                                                                                  #  ACTION IS THE ONE PROCESSED.
000037:
000038:                                                                                                  #       THE CODING IN THE FAILURE MONITOR HAS BEEN WRITTEN SO AS TO HAVE ALMOST COMPLETE RESTART PROTECTION.  FOR
000039:                                                                                                  #  EXAMPLE, NO ASSUMPTION IS MADE WHEN SETTING A 'CH5MASK' BIT TO 1 THAT THE PREVIOUS STATE IS 0, ALTHOUGH IT OF
000040:                                                                                                  #  COURSE SHOULD BE.  ONE CASE WHICH MAY BE SEEN TO EVADE PROTECTION IS THE OCCURRENCE OF A RESTART AFTER UPDATING
000041:                                                                                                  #  ONE OR BOTH DAP MASK-WORDS BUT BEFORE UPDATING 'PVALVEST', COUPLED WITH A CHANGE IN THE VALVE-BIT BACK TO ITS
000042:                                                                                                  #  FORMER STATE.  THE CONSEQUENCE OF THIS IS THAT THE NEXT ENTRY WOULD NOT SEE THE CHANGE INCOMPLETELY INCORP-
000043:                                                                                                  #  ORATED BY THE LAST PASS (BECAUSE IT WENT AWAY AT JUST THE RIGHT TIME), BUT THE DAP MASK-WORDS WILL BE INCORRECT.
000044:                                                                                                  #  THIS COMBINATION OF EVENTS SEEMS QUITE REMOTE, BUT NOT IMPOSSIBLE UNLESS THE CREW OPERATES THE SWITCHES AT HALF-
000045:                                                                                                  #  SECOND INTERVALS OR LONGER.  IN ANY EVENT, A DISAGREEMENT BETWEEN REALITY AND THE DAP MASKS WILL BE CURED IF
000046:                                                                                                  #  THE MISINTERPRETED SWITCH IS REVERSED AND THEN RESTORED TO ITS CORRECT POSITION (SLOWLY).
000047:
000048:                                                                                                  #  CALLING SEQUENCE:
000049:
000050:                                                                                                  #           TCF    RCSMONIT        (IN INTERRUPT MODE, EVERY 480 MS.)
000051:
000052:                                                                                                  #  EXIT:  TCF  RCSMONEX  (ALL PATHS EXIT VIA SUCH AN INSTRUCTION)
000053: 06,3164     5301               RCSMONEX           EQUALS   RESUME
000054:
000055:                                                                                                  #  ERASABLE INITIALIZATION REQUIRED:
000056:
000057:                                                                                                  #           VIA FRESH START:  PVALVEST          = +0  (ALL JETS ENABLED)
000058:                                                                                                  #                             CH5MASK, CH6MASK  = +0  (ALL JETS OK)
000059:
000060:                                                                                                  #  OUTPUT:  CH5MASK & CH6MASK UPDATED  (1'S WHERE JETS NOT TO BE USED, IN CHANNEL 5 & 6 FORMAT)
000061:                                                                                                  #           PVALTEST UPDATED  (1,S WHEN VALVE CLOSURES HAVE BEEN TRANSLATED INTO CH5MASK & CH6MASK; CHAN 32 FORMAT)
000062:                                                                                                  #           JOB TO DO 1/ACCS.
000063:
000064:                                                                                                  #  DEBRIS:  A, L, Q AND DEBRIS OF NOVAC.
000065:
000066:                                                                                                  #  SUBROUTINE CALLED:  NOVAC.
000067:
000068: 06,3164     1257                                  EBANK=   CH5MASK
000069:
000070: 23,2000                                           BANK     23
000071: 06,2000                                           SETLOC   RCSMONT
000072: 06,2000                                           BANK
000073:


000075: 06,3164                                           COUNT*   $$/T4RCS
000076:
000077: 06,3164  06,3164               RCSMONIT           EQUALS   RCSMON
000078:
000079: 06,3164           44755        RCSMON             CS       ZERO
000080: 06,3165           00006                           EXTEND
000081: 06,3166           06032                           RXOR     CHAN32                                #  PICK UP + INVERT INVERTED CHANNEL 32.
000082: 06,3167           74357                           MASK     LOW8                                  #  KEEP JET-FAIL BITS ONLY.
000083: 06,3170           54002                           TS       Q
000084:
000085: 06,3171           41273                           CS       PVALVEST                              #        -   -
000086: 06,3172           70002                           MASK     Q                                     #  FORM PC + PC.
000087: 06,3173           54001                           TS       L                                     #    (P = PREVIOUS ISOLATION VALVE STATE,
000088: 06,3174           40002                           CS       Q                                     #     C = CURRENT VALVE STATE (CH 32)).
000089: 06,3175           71273                           MASK     PVALVEST
000090: 06,3176           26001                           ADS      L                                     #  RESULT NZ INDICATES ACTION REQUIRED.
000091:
000092: 06,3177           00006                           EXTEND
000093: 06,3200           15301                           BZF      RCSMONEX                              #  QUIT IF NO ACTION REQUIRED.
000094:
000095: 06,3201           00006                           EXTEND
000096: 06,3202           74745                           MP       BIT7                                  #  MOVE BITS 8 - 1 OF A TO 14 - 7 OF L.
000097: 06,3203           56001                           XCH      L                                     #  ZERO TO L IN THE PROCESS.
000098:
000099: 06,3204           24001                 -3        INCR     L
000100: 06,3205           60000                           DOUBLE                                         #  BOUND TO GET OVERFLOW IN THIS LOOP,
000101: 06,3206           54000                           OVSK                                           #  SINCE WE ASSURED INITIAL NZ IN A.
000102: 06,3207           13204                           TCF      -3
000103:
000104: 06,3210           50001                           INDEX    L
000105: 06,3211           34743                           CA       BIT8       -1                         #  SAVE THE RELEVANT BIT (8 - 1).
000106: 06,3212           54002                           TS       Q
000107: 06,3213           71273                           MASK     PVALVEST                              #  LOOK AT PREVIOUS VALVE STATE BIT.
000108: 06,3214           10000                           CCS      A
000109: 06,3215           13231                           TCF      VOPENED                               #  THE VALVE HAS JUST BEEN OPENED.
000110:
000111: 06,3216           41257                           CS       CH5MASK                               #  THE VALVE HAS JUST BEEN CLOSED.
000112: 06,3217           50001                           INDEX    L
000113: 06,3220           73250                           MASK     5FAILTAB
000114: 06,3221           27257                           ADS      CH5MASK                               #  SET INHIBIT BIT FOR CHANNEL 5 JET.
000115:
000116: 06,3222           41260                           CS       CH6MASK
000117: 06,3223           50001                           INDEX    L
000118: 06,3224           73260                           MASK     6FAILTAB
000119: 06,3225           27260                           ADS      CH6MASK                               #  SET INGIBIT BIT FOR CHANNEL 6 JET.
000120:
000121: 06,3226           30002                           CA       Q
000122: 06,3227           27273                           ADS      PVALVEST                              #  RECORD ACTION TAKEN.
000123:
000124: 06,3230           13244                           TCF      1/ACCFIX                              #  SET UP 1/ACCJOB AND EXIT.
000125:


000127: 06,3231           50001        VOPENED            INDEX    L                                     #  A VALVE HAS JUST BEEN OPENED.
000128: 06,3232           43250                           CS       5FAILTAB
000129: 06,3233           71257                           MASK     CH5MASK
000130: 06,3234           55257                           TS       CH5MASK                               #  REMOVE INHIBIT BIT FOR CHANNEL 5 JET.
000131:
000132: 06,3235           50001                           INDEX    L
000133: 06,3236           43260                           CS       6FAILTAB
000134: 06,3237           71260                           MASK     CH6MASK
000135: 06,3240           55260                           TS       CH6MASK                               #  REMOVE INHIBIT BIT FOR CHANNEL 6 JET.
000136:
000137: 06,3241           40002                           CS       Q
000138: 06,3242           71273                           MASK     PVALVEST
000139: 06,3243           55273                           TS       PVALVEST                              #  RECORD ACTION TAKEN.
000140:
000141: 06,3244           37727        1/ACCFIX           CAF      PRIO27                                #  SET UP 1/ACCS SO THAT THE SWITCH CURVES
000142: 06,3245           05072                           TC       NOVAC                                 #    FOR TJETLAW CAN BE MODIFIED IF CH5MASK
000143: 06,3246  E6,1536                                  EBANK=   AOSQ                                  #    HAS BEEN ALTERED.
000144: 06,3246           03555 42106                     2CADR    1/ACCJOB
000145:
000146: 06,3250           15301                           TCF      RCSMONEX                              #  EXIT.
000147:
000148: 06,3251                        5FAILTAB           EQUALS   -1                                    #  CH 5 JET BIT CORRESPONDING TO CH 32 BIT:
000149: 06,3251           00040                           OCT      00040                                 #  8
000150: 06,3252           00020                           OCT      00020                                 #  7
000151: 06,3253           00100                           OCT      00100                                 #  6
000152: 06,3254           00200                           OCT      00200                                 #  5
000153: 06,3255           00010                           OCT      00010                                 #  4
000154: 06,3256           00001                           OCT      00001                                 #  3
000155: 06,3257           00004                           OCT      00004                                 #  2
000156: 06,3260           00002                           OCT      00002                                 #  1
000157:
000158: 06,3261                        6FAILTAB           EQUALS   -1                                    #  CH 6 JET BIT CORRESPONDING TO CH 32 BIT:
000159: 06,3261           00010                           OCT      00010                                 #  8
000160: 06,3262           00020                           OCT      00020                                 #  7
000161: 06,3263           00004                           OCT      00004                                 #  6
000162: 06,3264           00200                           OCT      00200                                 #  5
000163: 06,3265           00001                           OCT      00001                                 #  4
000164: 06,3266           00002                           OCT      00002                                 #  3
000165: 06,3267           00040                           OCT      00040                                 #  2
000166: 06,3270           00100                           OCT      00100                                 #  1

End of include-file RCS_FAILURE_MONITOR.agc.  Parent file is MAIN.agc


