
Source Code


000002:                                                                                                  ## Copyright:   Public domain.
000003:                                                                                                  ## Filename:    RESTART_TABLES.agc
000004:                                                                                                  ## Purpose:     A log section of Zerlina 56, the final revision of
000005:                                                                                                  ##              Don Eyles's offline development program for the variable
000006:                                                                                                  ##              guidance period servicer. It also includes a new P66 with LPD
000007:                                                                                                  ##              (Landing Point Designator) capability, based on an idea of John
000008:                                                                                                  ##              Young's. Neither of these advanced features were actually flown,
000009:                                                                                                  ##              but Zerlina was also the birthplace of other big improvements to
000010:                                                                                                  ##              Luminary including the terrain model and new (Luminary 1E)
000011:                                                                                                  ##              analog display programs. Zerlina was branched off of Luminary 145,
000012:                                                                                                  ##              and revision 56 includes all changes up to and including Luminary
000013:                                                                                                  ##              183. It is therefore quite close to the Apollo 14 program,
000014:                                                                                                  ##              Luminary 178, where not modified with new features.
000015:                                                                                                  ## Reference:   pp. 245-250
000016:                                                                                                  ## Assembler:   yaYUL
000017:                                                                                                  ## Contact:     Ron Burkey <info@sandroid.org>.
000018:                                                                                                  ## Website:     www.ibiblio.org/apollo/index.html
000019:                                                                                                  ## Mod history: 2017-07-28 MAS  Created from Luminary 210.
000020:                                                                                                  ##              2017-08-21 RSB  Transcribed.
000021:


000023:                                                                                                  #  RESTART TABLES
000024:
000025:                                                                                                  #  ------------------
000026:
000027:                                                                                                  #  THERE ARE TWO FORMS OF RESTART TABLES FOR EACH GROUP.  THEY ARE KNOWN AS THE EVEN RESTART TABLES AND THE ODD
000028:                                                                                                  #  RESTART TABLES.  THE ODD TABLES HAVE ONLY ONE ENTRY OF THREE LOCATIONS WHILE THE EVEN TABLES HAVE TWO ENTRIES
000029:                                                                                                  #  EACH USING THREE LOCATIONS. THE INFORMATION AS TO WHETHER IT IS A JOB, WAITLIST, OR A LONGCALL IS GIVEN BY THE
000030:                                                                                                  #  WAY THINGS ARE PUT INTO THE TABLES.
000031:                                                                                                  #       A JOB HAS ITS PRIORITY STORED IN PRDTTAB OF THE CORRECT PHASE SPOT - A POSITIVE PRIORITY INDICATES A
000032:                                                                                                  #  FINDVAC JOB, A NEGATIVE PRIORITY A NOVAC.  THE 2CADR OF THE JOB IS STORED IN THE CADRTAB.
000033:                                                                                                  #  FOR EXAMPLE,
000034:
000035:                                                                                                  #                                          5.7SPOT  OCT    23000
000036:                                                                                                  #                                                   2CADR  SOMEJOB
000037:
000038:                                                                                                  #  A RESTART OF GROUP 5 WITH PHASE SEVEN WOULD THEN CAUSE SOMEJOB TO BE RESTARTED AS A FINDVAC WITH PRIORITY 23.
000039:
000040:                                                                                                  #                                          5.5SPOT  OCT    -23000
000041:                                                                                                  #                                                   2CADR  ANYJOB
000042:
000043:                                                                                                  #  HERE A RESTART OF GROUP 5 WITH PHASE 7 WOULD CAUSE ANYJOB TO BE RESTARTED AS A NOVAC WITH PRIORITY 23.
000044:                                                                                                  #  A LONGCALL HAS ITS GENADR OF ITS 2CADR STORED NEGATIVELY AND ITS BBCON STORED POSITIVELY.  IN ITS PRDTTAB IS
000045:                                                                                                  #  PLACED THE LOCATION OF A DP REGISTER THAT CONTAINS THE DELTA TIME THAT LONGCALL HAD BEEN ORIGINALLY STARTED
000046:                                                                                                  #  WITH.  EXAMPLE,
000047:
000048:                                                                                                  #                                          3.6SPOT  GENADR DELTAT
000049:                                                                                                  #                                                  -GENADR LONGTASK
000050:                                                                                                  #                                                   BBCON  LONGTASK
000051:
000052:                                                                                                  #                                                   OCT    31000
000053:                                                                                                  #                                                   2CADR  JOBAGAIN
000054:
000055:                                                                                                  #  THIS WOULD START UP LONGTASK AT THE APPROPRIATE TIME, OR IMMEDIATELY IF THE TIME HAD ALREADY PASSED. IT SHOULD
000056:                                                                                                  #  BE NOTED THAT IF DELTAT IS IN A SWITCHED E BANK, THIS INFORMATOIN SHOULD BE IN THE BBCON OFTHE 2CADR OF THE
000057:                                                                                                  #  TASK.  FROM ABOVE, WE SEE THAT THE SECOND PART OF THIS PHASE WOULD BE STARTED AS A JOB WITH A PRIORITY OF 31.
000058:
000059:                                                                                                  #  WAITLIST CALLS ARE IDENTIFIED BY THE FACT THAT THEIR 2CADR IS STORED NEGATIVELY. IF PRDTTAB OF THE PHASE SPOT
000060:                                                                                                  #  IS POSITIVE, THEN IT CONTAINS THE DELTA TIME, IF PRDTTAB IS NEGATIVE THEN IT IS THE -GENADR OF AN ERASABLE
000061:                                                                                                  #  LOCATION CONTAINING THE DELTA TIME, THAT IS, THE TIME IS STORED INDIRECTLY.  IT SHOULD BE NOTED AS ABOVE, THAT
000062:                                                                                                  #  IF THE TIME IS STORED INDIRECTLY, THE BBCON MUST CONTAIN THE NECESSARY E BANK INFORMATION IF APPLICABLE.  WITH
000063:                                                                                                  #  WAITLIST WE HAVE ONE FURTHER OPTION, IF -0 IS STORED IN PRDTTAB, IT WILL CAUSE AN IMMEDIATE RESTART OF THE
000064:                                                                                                  #  TASK.  EXAMPLES,
000065:
000066:                                                                                                  #                                                   OCT    77777           THIS WILL CAUSE AN IMMEDIATE RESTART
000067:                                                                                                  #                                                  -2CADR  ATASK           OF THE TASK :ATASK:
000068:                                                                                                  #
000069:                                                                                                  #                                                   DEC    200             IF THE TIME OF THE 2 SECONDS SINCE DUMMY
000070:                                                                                                  #                                                  -2CADR  DUMMY           WAS PUT ON WAITLIST IS UP, IT WILL BEGIN
000071:                                                                                                  #                                                                          IN 10 MS, OTHERWISE IT WILL BEGIN WHEN
000072:                                                                                                  #                                                                          IT NORMALLY WOULD HAVE BEGUN.


000074:                                                                                                  #                                                  -GENADR DTIME           WHERE DTIME CONTAINS THE DELTA TIME
000075:                                                                                                  #                                                  -2CADR  TASKTASK        OTHERWISE THIS IS AS ABOVE
000076:
000077:                                                                                                  #  *****    NOW THE TABLES THEMSELVES *****
000078:
000079: 01,2002                                           BANK     01
000080: 01,2000                                           SETLOC   RESTART
000081: 01,2000                                           BANK
000082:
000083: 01,2002                        PRDTTAB            EQUALS   12000                                 #  USED TO FIND THE PRIORITY OR DELTATIME
000084: 01,2002                        CADRTAB            EQUALS   12001                                 #  THIS AND THE NEXT RELATIVE LOC CONTAIN
000085:                                                                                                  #  RESTART 2CADR
000086:
000087: 01,2002                                           COUNT*   $$/RSTAB                              #  TABLES IN BANK 1.
000088: 01,2002           00010        SIZETAB            TC       1.2SPOT    -12006
000089: 01,2003           00020                           TC       1.3SPOT    -12004
000090: 01,2004           00010                           TC       2.2SPOT    -12006
000091: 01,2005           00026                           TC       2.3SPOT    -12004
000092: 01,2006           00010                           TC       3.2SPOT    -12006
000093: 01,2007           00056                           TC       3.3SPOT    -12004
000094: 01,2010           00062                           TC       4.2SPOT    -12006
000095: 01,2011           00072                           TC       4.3SPOT    -12004
000096: 01,2012           00145                           TC       5.2SPOT    -12006
000097: 01,2013           00163                           TC       5.3SPOT    -12004
000098: 01,2014           00010                           TC       6.2SPOT    -12006
000099: 01,2015           00174                           TC       6.3SPOT    -12004
000100: 01,2016           21000        1.2SPOT            OCT      21000                                 #  A DUMMY EXAMPLE TO BE REPLACED AS SOON
000101: 01,2017     0074                                  EBANK=   STATE
000102: 01,2017           05155 04060                     2CADR    ENDOFJOB                              #  AS THERE IS A LEGITIMATE 1.2SPOT
000103:
000104: 01,2021           00144                           DEC      100        B-14
000105: 01,2022     0074                                  EBANK=   STATE
000106: 01,2022           05272 04060                     2CADR    TASKOVER
000107:
000108:                                                                                                  #  ANY MORE GROUP 1.EVEN RESTART VALUES SHOULD GO HERE
000109:
000110: 01,2024           76300        1.3SPOT            -GENADR  SAVET-30
000111: 01,2025  E7,1513                                  EBANK=   DVCNTR
000112: 01,2025           75427 03710                     -2CADR   ULLGTASK
000113:
000114: 01,2027           32000        1.5SPOT            OCT      32000
000115: 01,2030  E7,1654                                  EBANK=   HMEAS
000116: 01,2030           03550 76067                     2CADR    REREPOS
000117:
000118:                                                                                                  #  ANY MORE GROUP 1.ODD RESTART VALUES SHOULD GO HERE
000119:
000120: 01,2032  01,2016               2.2SPOT            EQUALS   1.2SPOT
000121:                                                                                                  #  ANY MORE GROUP 2.EVEN RESTART VALUES SHOULD GO HERE
000122:
000123: 01,2032           02627        2.3SPOT            GENADR   600SECS


000125: 01,2033           75175                           -GENADR  STATEINT
000126: 01,2034  E3,1554                                  EBANK=   RRECTCSM
000127: 01,2034           26063                           BBCON    STATEINT
000128:
000129: 01,2035           05000        2.5SPOT            OCT      05000
000130: 01,2036  E3,1554                                  EBANK=   RRECTCSM
000131: 01,2036           02611 26063                     2CADR    STATINT1
000132:
000133: 01,2040           02734        2.7SPOT            DEC      1500       B-14
000134: 01,2041  E7,1456                                  EBANK=   LOSCOUNT
000135: 01,2041           75455 27710                     -2CADR   P20LEMC1
000136:
000137: 01,2043           14000        2.11SPOT           OCT      14000
000138: 01,2044  E7,1762                                  EBANK=   P21TIME
000139: 01,2044           02476 50067                     2CADR    P25LEM1
000140:
000141: 01,2046           10000        2.13SPOT           OCT      10000
000142: 01,2047  E7,1456                                  EBANK=   LOSCOUNT
000143: 01,2047           02225 54067                     2CADR    RELINUS
000144:
000145: 01,2051           26000        2.15SPOT           OCT      26000
000146: 01,2052  E7,1456                                  EBANK=   LOSCOUNT
000147: 01,2052           02736 50067                     2CADR    R22RSTRT
000148:
000149: 01,2054           77777        2.17SPOT           OCT      77777
000150: 01,2055  E7,1700                                  EBANK=   VGPREV
000151: 01,2055           75436 03710                     -2CADR   REDO2.17
000152:
000153: 01,2057           00031        2.21SPOT           DEC      25         B-14
000154: 01,2060  E7,1513                                  EBANK=   DVCNTR
000155: 01,2060           75722 35710                     -2CADR   R10,R11
000156:
000157:                                                                                                  #  ANY MORE GROUP 2.ODD RESTART VALUES SHOULD GO HERE.
000158:
000159: 01,2062  01,2016               3.2SPOT            EQUALS   1.2SPOT
000160:                                                                                                  #  ANY MORE GROUP 3.EVEN RESTART VALUES SHOULD GO HERE
000161:
000162: 01,2062           76355        3.3SPOT            -GENADR  ZOOMTIME
000163: 01,2063  E7,1513                                  EBANK=   DVCNTR
000164: 01,2063           74102 05710                     -2CADR   ZOOM
000165:
000166: 01,2065           20000        3.5SPOT            OCT      20000
000167: 01,2066  E7,1453                                  EBANK=   TTOGO
000168: 01,2066           02535 56067                     2CADR    S40.13
000169:
000170:                                                                                                  #  ANY MORE GROUP 3.ODD RESTART VALUES SHOULD GO HERE
000171:
000172: 01,2070           04704        4.2SPOT            DEC      2500       B-14
000173: 01,2071  E7,1453                                  EBANK=   TTOGO


000175: 01,2071           75423 03710                     -2CADR   TIG-5
000176:
000177: 01,2073           77777                           OCT      77777
000178: 01,2074  E7,1453                                  EBANK=   TTOGO
000179: 01,2074           75433 03710                     -2CADR   REDO4.2
000180:
000181:                                                                                                  #  ANY MORE GROUP 4.EVEN RESTART VALUES SHOULD GO HERE
000182:
000183: 01,2076           25000        4.3SPOT            OCT      25000
000184: 01,2077  E7,1513                                  EBANK=   DVCNTR
000185: 01,2077           03527 64067                     2CADR    GOABORT
000186:
000187: 01,2101           00062        4.5SPOT            DEC      50         B-14
000188: 01,2102  E7,1453                                  EBANK=   TTOGO
000189: 01,2102           75216 03710                     -2CADR   ULLAGOFF
000190:
000191: 01,2104           00764        4.7SPOT            DEC      500        B-14
000192: 01,2105  E7,1513                                  EBANK=   DVCNTR
000193: 01,2105           75370 03710                     -2CADR   TIG-0
000194:
000195: 01,2107           76262        4.11SPOT           -GENADR  TGO        +1
000196: 01,2110  E7,1513                                  EBANK=   DVCNTR
000197: 01,2110           74235 03710                     -2CADR   ENGOFTSK
000198:
000199: 01,2112           12000        4.13SPOT           OCT      12000
000200: 01,2113  E7,1462                                  EBANK=   TRKMKCNT
000201: 01,2113           03222 74067                     2CADR    POSTBURN
000202:
000203: 01,2115           00764        4.15SPOT           DEC      500        B-14
000204: 01,2116  E7,1453                                  EBANK=   TTOGO
000205: 01,2116           75477 03710                     -2CADR   TIG-30
000206:
000207: 01,2120           77777        4.17SPOT           OCT      77777
000208: 01,2121  E7,1513                                  EBANK=   DVCNTR
000209: 01,2121           75423 03710                     -2CADR   TIG-5
000210:
000211: 01,2123           13000        4.21SPOT           OCT      13000
000212: 01,2124  E5,1730                                  EBANK=   STAR
000213: 01,2124           03012 30065                     2CADR    R51.1      +1
000214:
000215: 01,2126           77777        4.23SPOT           OCT      77777
000216: 01,2127  E7,1513                                  EBANK=   DVCNTR
000217: 01,2127           75344 03710                     -2CADR   IGNITION
000218:
000219: 01,2131           01477        4.25SPOT           GENADR   SAVET-30
000220: 01,2132           75535                           -GENADR  TIG-35
000221: 01,2133  E7,1477                                  EBANK=   SAVET-30
000222: 01,2133           74067                           BBCON    TIG-35
000223:


000225: 01,2134           52777        4.27SPOT           OCT      52777
000226: 01,2135  E7,1513                                  EBANK=   DVCNTR
000227: 01,2135           02007 42067                     2CADR    P70A
000228:
000229: 01,2137           52777        4.31SPOT           OCT      52777
000230: 01,2140  E7,1513                                  EBANK=   DVCNTR
000231: 01,2140           02012 42067                     2CADR    P71A
000232:
000233: 01,2142           46777        4.33SPOT           OCT      46777
000234: 01,2143  E7,1513                                  EBANK=   DVCNTR
000235: 01,2143           02024 10067                     2CADR    GOPOOFIX
000236:
000237: 01,2145           46777        4.35SPOT           OCT      46777
000238: 01,2146  E7,1513                                  EBANK=   DVCNTR
000239: 01,2146           05666 04067                     2CADR    GOPOODOO
000240:
000241: 01,2150           52777        4.37SPOT           OCT      52777
000242: 01,2151  E7,1455                                  EBANK=   WHICH
000243: 01,2151           02570 74067                     2CADR    COMFAIL
000244:
000245:                                                                                                  #  ANY MORE 4.ODD RESTART VALUES SHOULD GO HERE.
000246:
000247: 01,2153           22000        5.2SPOT            OCT      22000
000248: 01,2154  E7,1513                                  EBANK=   DVCNTR
000249: 01,2154           02037 66067                     2CADR    NORMLIZE
000250:
000251: 01,2156           00310                           DEC      200        B-14
000252: 01,2157  E7,1513                                  EBANK=   DVCNTR
000253: 01,2157           72505 73710                     -2CADR   REREADAC
000254:
000255: 01,2161           00310        5.4SPOT            DEC      200        B-14
000256: 01,2162  E7,1513                                  EBANK=   DVCNTR
000257: 01,2162           72505 73710                     -2CADR   REREADAC
000258:
000259: 01,2164           20000                           OCT      20000
000260: 01,2165  E7,1513                                  EBANK=   DVCNTR
000261: 01,2165           02203 66067                     2CADR    SERVICER
000262:
000263:                                                                                                  #  ANY MORE GROUP 5.EVEN RESTART VALUES SHOULD GO HERE
000264:
000265: 01,2167           00310        5.3SPOT            DEC      200        B-14
000266: 01,2170  E7,1513                                  EBANK=   DVCNTR
000267: 01,2170           72505 73710                     -2CADR   REREADAC
000268:
000269: 01,2172           77777        5.5SPOT            OCT      77777
000270: 01,2173  E7,1513                                  EBANK=   DVCNTR
000271: 01,2173           72505 73710                     -2CADR   REDO5.5
000272:


000274: 01,2175           77777        5.7SPOT            OCT      77777
000275: 01,2176  E7,1513                                  EBANK=   DVCNTR
000276: 01,2176           74105 07710                     -2CADR   BIBIBIAS
000277:
000278:                                                                                                  #  ANY MORE GROUP 5.ODD RESTART VALUES SHOULD GO HERE
000279:
000280: 01,2200  01,2016               6.2SPOT            EQUALS   1.2SPOT
000281: 01,2200           00144        6.3SPOT            DEC      100        B-14
000282: 01,2201  E7,1441                                  EBANK=   TIG
000283: 01,2201           75061 03710                     -2CADR   CLOKTASK
000284:
000285: 01,2203           30000        6.5SPOT            OCT      30000                                 #  PROTECT INCREMENTING OF TIME2,TIME1 BY
000286: 01,2204  E3,1706                                  EBANK=   TEPHEM                                #  P27(UPDATE PROGRAM) VIA V70 OR V73.
000287: 01,2204           03605 10063                     2CADR    TIMEDIDR
000288:
000289: 01,2206           17000        6.7SPOT            OCT      17000
000290: 01,2207  E7,1700                                  EBANK=   VGPREV
000291: 01,2207           03355 74067                     2CADR    REDO6.7
000292:
000293: 01,2211           17000        6.11SPOT           OCT      17000
000294: 01,2212  E7,1700                                  EBANK=   VGPREV
000295: 01,2212           03364 74067                     2CADR    FKP5RST
000296:

End of include-file RESTART_TABLES.agc.  Parent file is MAIN.agc


