
Source Code


000002:                                                                                                  ## Copyright:   Public domain.
000003:                                                                                                  ## Filename:    RTB_OP_CODES.agc
000004:                                                                                                  ## Purpose:     A log section of Zerlina 56, the final revision of
000005:                                                                                                  ##              Don Eyles's offline development program for the variable
000006:                                                                                                  ##              guidance period servicer. It also includes a new P66 with LPD
000007:                                                                                                  ##              (Landing Point Designator) capability, based on an idea of John
000008:                                                                                                  ##              Young's. Neither of these advanced features were actually flown,
000009:                                                                                                  ##              but Zerlina was also the birthplace of other big improvements to
000010:                                                                                                  ##              Luminary including the terrain model and new (Luminary 1E)
000011:                                                                                                  ##              analog display programs. Zerlina was branched off of Luminary 145,
000012:                                                                                                  ##              and revision 56 includes all changes up to and including Luminary
000013:                                                                                                  ##              183. It is therefore quite close to the Apollo 14 program,
000014:                                                                                                  ##              Luminary 178, where not modified with new features.
000015:                                                                                                  ## Reference:   pp. 1385-1390
000016:                                                                                                  ## Assembler:   yaYUL
000017:                                                                                                  ## Contact:     Ron Burkey <info@sandroid.org>.
000018:                                                                                                  ## Website:     www.ibiblio.org/apollo/index.html
000019:                                                                                                  ## Mod history: 2017-07-28 MAS  Created from Luminary 210.
000020:                                                                                                  ##              2017-08-19 MAS  Updated for Zerlina 56.
000021:


000023: 22,3745                                           BANK     22
000024: 10,2000                                           SETLOC   RTBCODES
000025: 10,2000                                           BANK
000026:
000027: 10,3555  E5,1664                                  EBANK=   XNB
000028: 10,3555                                           COUNT*   $$/RTB
000029:
000030:                                                                                                  #           LOAD TIME2, TIME1 INTO MPAC:
000031:
000032: 10,3555           00006        LOADTIME           EXTEND
000033: 10,3556           30025                           DCA      TIME2
000034: 10,3557           16067                           TCF      SLOAD2
000035:
000036:                                                                                                  #           CONVERT THE SINGLE PRECISION 2'S COMPLEMENT NUMBER ARRIVING IN MPAC (SCALED IN HALF-REVOLUTIONS) TO A
000037:                                                                                                  #  DP 1'S COMPLEMENT NUMBER SCALED IN REVOLUTIONS.
000038:
000039: 10,3560           10154        CDULOGIC           CCS      MPAC
000040: 10,3561           34755                           CAF      ZERO
000041: 10,3562           13565                           TCF      +3
000042: 10,3563           13564                           NOOP
000043: 10,3564           44736                           CS       HALF
000044:
000045: 10,3565           54155                           TS       MPAC       +1
000046: 10,3566           34755                           CAF      ZERO
000047: 10,3567           56154                           XCH      MPAC
000048: 10,3570           00006                           EXTEND
000049: 10,3571           74736                           MP       HALF
000050: 10,3572           20155                           DAS      MPAC
000051: 10,3573           16073                           TCF      DANZIG                                #  MODE IS ALREADY AT DOUBLE-PRECISION
000052:
000053:                                                                                                  #           FORCE TP SIGN AGREEMENT IN MPAC:
000054:
000055: 10,3574           07271        SGNAGREE           TC       TPAGREE
000056: 10,3575           16073                           TCF      DANZIG
000057:
000058:                                                                                                  #           CONVERT THE DP 1'S COMPLEMENT ANGLE SCALED IN REVOLUTIONS TO A SINGLE PRECISION 2'S COMPLEMENT ANGLE
000059:                                                                                                  #  SCALED IN HALF-REVOLUTIONS.
000060:
000061: 10,3576           03626        1STO2S             TC       1TO2SUB
000062: 10,3577           34755                           CAF      ZERO
000063: 10,3600           54155                           TS       MPAC       +1
000064: 10,3601           16072                           TCF      NEWMODE
000065:
000066:                                                                                                  #           DO 1STO2S ON A VECTOR OF ANGLES:
000067:
000068: 10,3602           03626        V1STO2S            TC       1TO2SUB                               #  ANSWER ARRIVES IN A AND MPAC.
000069:
000070: 10,3603           52162                           DXCH     MPAC       +5
000071: 10,3604           52155                           DXCH     MPAC
000072: 10,3605           03626                           TC       1TO2SUB


000074: 10,3606           54156                           TS       MPAC       +2
000075:
000076: 10,3607           52160                           DXCH     MPAC       +3
000077: 10,3610           52155                           DXCH     MPAC
000078: 10,3611           03626                           TC       1TO2SUB
000079: 10,3612           54155                           TS       MPAC       +1
000080:
000081: 10,3613           30161                           CA       MPAC       +5
000082: 10,3614           54154                           TS       MPAC
000083:
000084: 10,3615           34753        TPMODE             CAF      ONE                                   #  MODE IS TP.
000085: 10,3616           16072                           TCF      NEWMODE
000086:
000087:                                                                                                  #           V1STO2S FOR 2 COMPONENT VECTOR. USED BY RR.
000088:
000089: 10,3617           03626        2V1STO2S           TC       1TO2SUB
000090: 10,3620           52160                           DXCH     MPAC       +3
000091: 10,3621           52155                           DXCH     MPAC
000092: 10,3622           03626                           TC       1TO2SUB
000093: 10,3623           54001                           TS       L
000094: 10,3624           30157                           CA       MPAC       +3
000095: 10,3625           16067                           TCF      SLOAD2
000096:
000097:                                                                                                  #           SUBROUTINE TO DO DOUBLING AND 1'S TO 2'S CONVERSION:
000098:
000099: 10,3626           52155        1TO2SUB            DXCH     MPAC                                  #  FINAL MPAC +1 UNSPECIFIED.
000100: 10,3627           20001                           DDOUBL
000101: 10,3630           10000                           CCS      A
000102: 10,3631           64753                           AD       ONE
000103: 10,3632           13634                           TCF      +2
000104: 10,3633           40000                           COM                                            #  THIS WAS REVERSE OF MSU.
000105:
000106: 10,3634           54154                           TS       MPAC                                  #  AND SKIP ON OVERFLOW.
000107: 10,3635           00002                           TC       Q
000108:
000109: 10,3636           50000                           INDEX    A                                     #  OVERFLOW UNCORRECT AND IN MSU.
000110: 10,3637           34734                           CAF      LIMITS
000111: 10,3640           26154                           ADS      MPAC
000112: 10,3641           00002                           TC       Q
000113:
000114:                                                                                                  #           THE FOLLOWING ROUTINE INCREMENTS IN 2S COMPLEMENT THE REGISTER WHOSE ADDRESS IS IN BUF BY THE 1S COMPL.
000115:                                                                                                  #  QUANTITY FOUND IN TEM2. THIS MAY BE USED TO INCREMENT DESIRED IMU AND OPTICS CDU ANGLES OR ANY OTHER 2S COMPL.
000116:                                                                                                  #  (+0 UNEQUAL TO -0) QUANTITY. MAY BE CALLED BY BANKCALL/SWCALL.
000117:
000118: 10,3642           54142        CDUINC             TS       TEM2                                  #  1S COMPL.QUANT. ARRIVES IN ACC. STORE IT
000119: 10,3643           50130                           INDEX    BUF
000120: 10,3644           10000                           CCS      0                                     #  CHANGE 2S COMPL. ANGLE(IN BUF)INTO 1S
000121: 10,3645           64753                           AD       ONE
000122: 10,3646           13652                           TCF      +4
000123: 10,3647           64753                           AD       ONE


000125: 10,3650           64753                           AD       ONE                                   #  OVERFLOW HERE IF 2S COMPL. IS 180 DEG.
000126: 10,3651           40000                           COM
000127:
000128: 10,3652           60142                           AD       TEM2                                  #  SULT MOVES FROM 2ND TO 3D QUAD.(OR BACK)
000129: 10,3653           10000                           CCS      A                                     #  BACK TO 2S COMPL.
000130: 10,3654           64753                           AD       ONE
000131: 10,3655           13657                           TCF      +2
000132: 10,3656           40000                           COM
000133: 10,3657           54142                           TS       TEM2                                  #  STORE 14BIT QUANTITY WITH PRESENT SIGN
000134: 10,3660           13664                           TCF      +4
000135: 10,3661           50000                           INDEX    A                                     #   SIGN.
000136: 10,3662           34734                           CAF      LIMITS                                #  FIX IT,BY ADDING IN 37777 OR 40000
000137: 10,3663           60142                           AD       TEM2
000138:
000139: 10,3664           50130                           INDEX    BUF
000140: 10,3665           54000                           TS       0                                     #  STORE NEW ANGLE IN 2S COMPLEMENT.
000141: 10,3666           00002                           TC       Q
000142:


000144:                                                                                                  #           RTB TO TORQUE GYROS, EXCEPT FOR THE CALL TO IMUSTALL. ECADR OF COMMANDS ARRIVES IN X1.
000145:
000146: 10,3667           50120        PULSEIMU           INDEX    FIXLOC                                #  ADDRESS OF GYRO COMMANDS SHOULD BE IN X1
000147: 10,3670           30046                           CA       X1
000148: 10,3671           04616                           TC       BANKCALL
000149: 10,3672           17270                           CADR     IMUPULSE
000150: 10,3673           16073                           TCF      DANZIG
000151:


000153:                                                                                                  #           THE SUBROUTINE  SIGNMPAC  SETS C(MPAC, MPAC +1) TO SIGN(MPAC).
000154:                                                                                                  #  FOR THIS, ONLY THE CONTENTS OF MPAC ARE EXAMINED.    ALSO +0 YIELDS POSMAX AND -0 YIELDS NEGMAX.
000155:
000156:                                                                                                  #  ENTRY MAY BE BY EITHER OF THE FOLLOWING:
000157:
000158:                                                                                                  #  1.       LIMIT THE SIZE OF MPAC ON INTERPRETIVE OVERFLOW:
000159:                                                                                                  #  ENTRY:          BOVB
000160:                                                                                                  #                         SIGNMPAC
000161:
000162:                                                                                                  #  2.       GENERATE IN MPAC THE SIGNUM FUNCTION OF MPAC:
000163:                                                                                                  #  ENTRY:          RTB
000164:                                                                                                  #                         SIGNMPAC
000165:
000166:                                                                                                  #  IN EITHER CASE, RETURN IS TO  THE NEXT INTERPRETIVE INSTRUCTION IN THE CALLING SEQUENCE.
000167:
000168: 10,3674           00006        SIGNMPAC           EXTEND
000169: 10,3675           34733                           DCA      DPOSMAX
000170: 10,3676           52155                           DXCH     MPAC
000171: 10,3677           10000                           CCS      A
000172: 10,3700           34755        DPMODE             CAF      ZERO                                  #  SETS MPAC +2 TO ZERO IN THE PROCESS
000173: 10,3701           16071                           TCF      SLOAD2     +2
000174: 10,3702           13703                           TCF      +1
000175: 10,3703           00006                           EXTEND
000176: 10,3704           44733                           DCS      DPOSMAX
000177: 10,3705           16067                           TCF      SLOAD2
000178:
000179:                                                                                                  #      RTB OP CODE NORMUNIT IS LIKE INTERPRETIVE INSTRUCTION UNIT, EXCEPT THAT IT CAN BE DEPENDED ON NOT TO BLOW
000180:                                                                                                  #  UP WHEN THE VECTOR BEING UNITIZED IS VERY SMALL -- IT WILL BLOW UP WHEN ALL COMPONENTS ARE ZERO.   IF NORMUNIT
000181:                                                                                                  #  IS USED AND THE UPPER ORDER HALVES OF ALL COMPONENTS ARE ZERO, THE MAGNITUDE RETURNED IN 36D WILL BE TOO LARGE
000182:                                                                                                  #  BY A FACTOR OF 2(13) AND THE SQUARED MAGNITUDE RETURNED AT 34D WILL BE TOO BIG BY A FACTOR OF 2(26).
000183:
000184: 10,3706           34753        NORMUNX1           CAF      ONE
000185: 10,3707           13711                           TCF      NORMUNIT   +1
000186: 10,3710           34755        NORMUNIT           CAF      ZERO
000187: 10,3711           60120                           AD       FIXLOC
000188: 10,3712           54156                           TS       MPAC       +2
000189: 10,3713           04616                           TC       BANKCALL                              #  GET SIGN AGREEMENT IN ALL COMPONENTS
000190: 10,3714           01010                           CADR     VECAGREE
000191: 10,3715           10154                           CCS      MPAC
000192: 10,3716           13752                           TCF      NOSHIFT
000193: 10,3717           13721                           TCF      +2
000194: 10,3720           13752                           TCF      NOSHIFT
000195: 10,3721           10157                           CCS      MPAC       +3
000196: 10,3722           13752                           TCF      NOSHIFT
000197: 10,3723           13725                           TCF      +2
000198: 10,3724           13752                           TCF      NOSHIFT
000199: 10,3725           10161                           CCS      MPAC       +5
000200: 10,3726           13752                           TCF      NOSHIFT
000201: 10,3727           13731                           TCF      +2
000202: 10,3730           13752                           TCF      NOSHIFT


000204: 10,3731           30155                           CA       MPAC       +1                         #  SHIFT ALL COMPONENTS LEFT 13
000205: 10,3732           00006                           EXTEND
000206: 10,3733           74736                           MP       BIT14
000207: 10,3734           20155                           DAS      MPAC                                  #  DAS GAINS A LITTLE ACCURACY
000208: 10,3735           30160                           CA       MPAC       +4
000209: 10,3736           00006                           EXTEND
000210: 10,3737           74736                           MP       BIT14
000211: 10,3740           20160                           DAS      MPAC       +3
000212: 10,3741           30162                           CA       MPAC       +6
000213: 10,3742           00006                           EXTEND
000214: 10,3743           74736                           MP       BIT14
000215: 10,3744           20162                           DAS      MPAC       +5
000216: 10,3745           34761                           CAF      THIRTEEN
000217: 10,3746           50156                           INDEX    MPAC       +2
000218: 10,3747           54045                           TS       37D
000219: 10,3750           04635        OFFTUNIT           TC       POSTJUMP
000220: 10,3751           01024                           CADR     UNIT       +1                         #  SKIP THE "TC VECAGREE" DONE AT UNIT
000221:
000222:
000223: 10,3752           34755        NOSHIFT            CAF      ZERO
000224: 10,3753           13746                           TCF      OFFTUNIT   -2
000225:
000226:
000227:                                                                                                  #   RTB  VECSGNAG   ...FORCES SIGN AGREEMENT OF VECTOR IN MPAC.
000228:
000229: 10,3754           04616        VECSGNAG           TC       BANKCALL
000230: 10,3755           01010                           CADR     VECAGREE
000231: 10,3756           06073                           TC       DANZIG

End of include-file RTB_OP_CODES.agc.  Parent file is MAIN.agc


