
Source Code


000002:                                                                                                  ## Copyright:   Public domain.
000003:                                                                                                  ## Filename:    S-BAND_ANTENNA_FOR_LM.agc
000004:                                                                                                  ## Purpose:     A log section of Zerlina 56, the final revision of
000005:                                                                                                  ##              Don Eyles's offline development program for the variable
000006:                                                                                                  ##              guidance period servicer. It also includes a new P66 with LPD
000007:                                                                                                  ##              (Landing Point Designator) capability, based on an idea of John
000008:                                                                                                  ##              Young's. Neither of these advanced features were actually flown,
000009:                                                                                                  ##              but Zerlina was also the birthplace of other big improvements to
000010:                                                                                                  ##              Luminary including the terrain model and new (Luminary 1E)
000011:                                                                                                  ##              analog display programs. Zerlina was branched off of Luminary 145,
000012:                                                                                                  ##              and revision 56 includes all changes up to and including Luminary
000013:                                                                                                  ##              183. It is therefore quite close to the Apollo 14 program,
000014:                                                                                                  ##              Luminary 178, where not modified with new features.
000015:                                                                                                  ## Reference:   pp. 494-497
000016:                                                                                                  ## Assembler:   yaYUL
000017:                                                                                                  ## Contact:     Ron Burkey <info@sandroid.org>.
000018:                                                                                                  ## Website:     www.ibiblio.org/apollo/index.html
000019:                                                                                                  ## Mod history: 2017-07-28 MAS  Created from Luminary 210.
000020:                                                                                                  ##              2017-08-20 MAS  Updated for Zerlina 56.
000021:


000023:                                                                                                  #  SUBROUTINE NAME: R05 - S-BAND ANTENNA FOR LM
000024:
000025:                                                                                                  #  MOD0 BY T. JAMES
000026:                                                                                                  #  MOD1 BY P. SHAKIR
000027:
000028:                                                                                                  #  FUNCTIONAL DESCRIPTION
000029:
000030:                                                                                                  #      THE S-BAND ANTENNA ROUTINE, R05, COMPUTES AND DISPLAYS THE PITCH AND
000031:                                                                                                  #  YAW ANTENNA GIMBAL ANGLES REQUIRED TO POINT THE LM STEERABLE ANTENNA
000032:                                                                                                  #  TOWARD THE CENTER OF THE EARTH. THIS ROUTINE IS SELECTED BY THE ASTRO-
000033:                                                                                                  #  NAUT VIA DSKY ENTRY DURING COASTING FLIGHT OR WHEN THE LM IS ON THE MOON
000034:                                                                                                  #  SURFACE. THE EARTH OR MOON REFERENCE COORDINATE SYSTEM IS USED DEPENDING
000035:                                                                                                  #  ON WHETHER THE LM IS ABOUT TO ENTER OR HAS ALREADY ENTERED THE MOON
000036:                                                                                                  #  SPHERE OF INFLUENCE, RESPECTIVELY.  CAN BE CALLED ANY TIME EXCEPT WHEN
000037:                                                                                                  #  ANOTHER EXTENDED VERB IS IN USE. DISPLAY IS MEANINGLESS WITH IMU OFF.
000038:
000039:                                                                                                  #  TO CALL SUBROUTINE, ASTRONAUT KEYS IN V 64 E
000040:
000041:                                                                                                  #  SUBROUTINES CALLED-
000042:
000043:                                                                                                  #      INTPRET
000044:                                                                                                  #      LOADTIME
000045:                                                                                                  #      LEMCONIC
000046:                                                                                                  #      LUNPOS
000047:                                                                                                  #      CDUTRIG
000048:                                                                                                  #      *SMNB*
000049:                                                                                                  #      BANKCALL
000050:                                                                                                  #      B5OFF
000051:                                                                                                  #      ENDOFJOB
000052:                                                                                                  #      BLANKET
000053:
000054:                                                                                                  #  RETURNS WITH
000055:
000056:                                                                                                  #      PITCH ANGLE IN PITCHANG  REV. B0
000057:                                                                                                  #      YAW ANGLE IN YAWANG  REV. B0
000058:
000059:                                                                                                  #  ERASABLES USED
000060:
000061:                                                                                                  #      PITCHANG
000062:                                                                                                  #      YAWANG
000063:                                                                                                  #      RLM
000064:                                                                                                  #      VAC AREA
000065:
000066: 41,3775                                           BANK     41
000067: 42,2000                                           SETLOC   SBAND
000068: 42,2000                                           BANK
000069:
000070: 42,3614  E7,1471                                  EBANK=   WHOCARES
000071: 42,3614                                           COUNT*   $$/R05
000072: 42,3614           06051        SBANDANT           TC       INTPRET


000074: 42,3615           47001                           SETPD    RTB
000075: 42,3616           00001                                    0D
000076: 42,3617           21555                                    LOADTIME                              #  PICK UP CURRENT TIME
000077: 42,3620           34041                           STCALL   TDEC1                                 #  ADVANCE INTEGRATION TO TIME IN TDEC1
000078: 42,3621           27077                                    LEMCONIC                              #  USING CONIC INTEGRATION
000079: 42,3622           46135                           SLOAD    BHIZ
000080: 42,3623           00050                                    X2                                    #  X2 =0 EARTH SPHERE, X2 =2 MOON SPHERE
000081: 42,3624           65642                                    CONV4
000082: 42,3625           77775                           VLOAD
000083: 42,3626           00001                                    RATT
000084: 42,3627           16176                           STODL    RLM
000085: 42,3630           00015                                    TAT
000086: 42,3631           77624        CONV3              CALL
000087: 42,3632           33660                                    LUNPOS                                #  UNIT POSITION VECTOR FROM EARTH TO MOON
000088: 42,3633           74375                           VLOAD    VXSC
000089: 42,3634           02723                                    VMOON
000090: 42,3635           24001                                    REMDIST                               #  MEAN DISTANCE FROM EARTH TO MOON
000091: 42,3636           53372                           VSL1     VAD
000092: 42,3637           02176                                    RLM
000093: 42,3640           77650                           GOTO
000094: 42,3641           65644                                    CONV5
000095: 42,3642           77775        CONV4              VLOAD
000096: 42,3643           00001                                    RATT                                  #  UE = -UNIT(RATT)  EARTH SPHERE
000097: 42,3644           53401        CONV5              SETPD    UNIT                                  #  UE = -UNIT((REM)(UEM) + RL)  MOON SPHERE
000098: 42,3645           00001                                    0D                                    #  SET PL POINTER TO 0
000099: 42,3646           45076                           VCOMP    CALL
000100: 42,3647           47535                                    CDUTRIG                               #  COMPUTE SINES AND COSINES OF CDU ANGLES
000101: 42,3650           76521                           MXV      VSL1                                  #  TRANSFORM REF. COORDINATE SYSTEM TO
000102: 42,3651           01732                                    REFSMMAT                              #  STABLE MEMBER  B-1 X B-1 X B+1 = B-1
000103: 42,3652           71206                           PUSH     DLOAD                                 #  8D
000104: 42,3653           06520                                    HI6ZEROS
000105: 42,3654           02172                           STORE    PITCHANG
000106: 42,3655           26174                           STOVL    YAWANG                                #  ZERO OUT ANGLES
000107: 42,3656           77624                           CALL
000108: 42,3657           47676                                    *SMNB*
000109: 42,3660           16176                           STODL    RLM                                   #  PRE-MULTIPLY RLM BY (NBSA) MATRIX(B0)
000110: 42,3661           02200                                    RLM        +2
000111: 42,3662           45206                           PUSH     DSU
000112: 42,3663           02176                                    RLM
000113: 42,3664           77605                           DMP
000114: 42,3665           25775                                    1OVSQRT2
000115: 42,3666           16200                           STODL    RLM        +2
000116: 42,3667           41215                           DAD      DMP
000117: 42,3670           02176                                    RLM
000118: 42,3671           25775                                    1OVSQRT2
000119: 42,3672           26176                           STOVL    RLM                                   #  R  B-1
000120: 42,3673           02176                                    RLM
000121: 42,3674           63256                           UNIT     PDVL
000122: 42,3675           02176                                    RLM
000123: 42,3676           72431                           VPROJ    VSL2                                  #  PROJECTION OF R ONTO LM XZ PLANE


000125: 42,3677           06514                                    HIUNITY
000126: 42,3700           40045                           BVSU     BOV                                   #  CLEAR OVERFLOW INDICATOR IF ON
000127: 42,3701           02176                                    RLM
000128: 42,3702           65703                                    COVCNV
000129: 42,3703           40056        COVCNV             UNIT     BOV                                   #  EXIT ON OVERFLOW
000130: 42,3704           65751                                    SBANDEX
000131: 42,3705           47206                           PUSH     VXV                                   #  URP VECTOR  B-1
000132: 42,3706           06512                                    HIUNITZ
000133: 42,3707           57572                           VSL1     VCOMP                                 #  UZ X URP = -(URP X UZ)
000134: 42,3710           02176                           STORE    RLM                                   #  X VEC  B-1
000135: 42,3711           63241                           DOT      PDVL                                  #  SGN(X.UY) UNSCALED
000136: 42,3712           06514                                    HIUNITY
000137: 42,3713           02176                                    RLM
000138: 42,3714           75246                           ABVAL    SIGN
000139: 42,3715           77736                           ASIN                                           #  ASIN((SGN(X.UY))ABV(X)) REV B0
000140: 42,3716           26172                           STOVL    PITCHANG
000141: 42,3717           00007                                    URP
000142: 42,3720           51041                           DOT      BPL
000143: 42,3721           06512                                    HIUNITZ
000144: 42,3722           65727                                    NOADJUST                              #  YES, -90 TO +90
000145: 42,3723           45345                           DLOAD    DSU
000146: 42,3724           06516                                    HIDPHALF
000147: 42,3725           02172                                    PITCHANG
000148: 42,3726           02172                           STORE    PITCHANG
000149: 42,3727           47375        NOADJUST           VLOAD    VXV
000150: 42,3730           00001                                    UR                                    #  Z = (UR X URP)
000151: 42,3731           00007                                    URP
000152: 42,3732           77772                           VSL1
000153: 42,3733           16176                           STODL    RLM                                   #  Z VEC  B-1
000154: 42,3734           02172                                    PITCHANG
000155: 42,3735           74356                           SIN      VXSC
000156: 42,3736           06512                                    HIUNITZ
000157: 42,3737           71525                           PDDL     COS
000158: 42,3740           02172                                    PITCHANG
000159: 42,3741           52361                           VXSC     VSU
000160: 42,3742           06516                                    HIUNITX                               #  (UX COS ALPHA) - (UZ SIN ALPHA)
000161: 42,3743           63241                           DOT      PDVL                                  #  YAW.Z
000162: 42,3744           02176                                    RLM
000163: 42,3745           02176                                    RLM
000164: 42,3746           75246                           ABVAL    SIGN
000165: 42,3747           77736                           ASIN
000166: 42,3750           02174                           STORE    YAWANG
000167: 42,3751           77776        SBANDEX            EXIT
000168: 42,3752           31043                           CA       EXTVBACT
000169: 42,3753           74747                           MASK     BIT5                                  #  IS BIT5 STILL ON
000170: 42,3754           00006                           EXTEND
000171: 42,3755           15503                           BZF      ENDEXT                                #  NO
000172: 42,3756           35017                           CAF      PRIO5
000173: 42,3757           05146                           TC       PRIOCHNG
000174: 42,3760           33773                           CAF      V06N51                                #  DISPLAY ANGLES
000175:


000177: 42,3761           04616                           TC       BANKCALL
000178: 42,3762           20353                           CADR     GOMARKFR
000179: 42,3763           05574                           TC       B5OFF                                 #  TERMINATE
000180: 42,3764           05574                           TC       B5OFF                                 #  PROCEED
000181: 42,3765           05155                           TC       ENDOFJOB                              #  RECYCLE
000182: 42,3766           34751                           CAF      BIT3                                  #  IMMEDIATE RETURN
000183: 42,3767           05475                           TC       BLANKET                               #  BLANK R3
000184: 42,3770           34740                           CAF      PRIO4
000185: 42,3771           05146                           TC       PRIOCHNG
000186: 42,3772           03614                           TC       SBANDANT                              #  YES, CONTINUE DISPLAYING ANGLES.
000187: 42,3773           01463        V06N51             VN       0651
000188: 42,3774           26501 07463  1OVSQRT2           2DEC     .7071067815                            #  1/SQRT(2)
000189:
000190: 42,3776                        UR                 EQUALS   0D
000191: 42,3776                        URP                EQUALS   6D
000192: 42,3776  30,2000                                  SBANK=   LOWSUPER

End of include-file S-BAND_ANTENNA_FOR_LM.agc.  Parent file is MAIN.agc


