
Source Code


000002:                                                                                                  ## Copyright:   Public domain.
000003:                                                                                                  ## Filename:    SERVICE_ROUTINES.agc
000004:                                                                                                  ## Purpose:     A log section of Zerlina 56, the final revision of
000005:                                                                                                  ##              Don Eyles's offline development program for the variable
000006:                                                                                                  ##              guidance period servicer. It also includes a new P66 with LPD
000007:                                                                                                  ##              (Landing Point Designator) capability, based on an idea of John
000008:                                                                                                  ##              Young's. Neither of these advanced features were actually flown,
000009:                                                                                                  ##              but Zerlina was also the birthplace of other big improvements to
000010:                                                                                                  ##              Luminary including the terrain model and new (Luminary 1E)
000011:                                                                                                  ##              analog display programs. Zerlina was branched off of Luminary 145,
000012:                                                                                                  ##              and revision 56 includes all changes up to and including Luminary
000013:                                                                                                  ##              183. It is therefore quite close to the Apollo 14 program,
000014:                                                                                                  ##              Luminary 178, where not modified with new features.
000015:                                                                                                  ## Reference:   pp. 1362-1368
000016:                                                                                                  ## Assembler:   yaYUL
000017:                                                                                                  ## Contact:     Ron Burkey <info@sandroid.org>.
000018:                                                                                                  ## Website:     www.ibiblio.org/apollo/index.html
000019:                                                                                                  ## Mod history: 2017-07-28 MAS  Created from Luminary 210.
000020:                                                                                                  ##              2017-08-29 MAS  Updated for Zerlina 56.
000021:


000023: 10,3526                                           BANK     10
000024: 10,2000                                           SETLOC   DISPLAYS
000025: 10,2000                                           BANK
000026: 10,3526                                           COUNT*   $$/DSPLA
000027:
000028: 10,3526           00004        UPENT2             INHINT
000029: 10,3527           75661                           MASK     OCT77770
000030: 10,3530           54001                           TS       L
000031: 10,3531           40100                           CS       FLAGWRD4
000032: 10,3532           70001                           MASK     L
000033: 10,3533           26100                           ADS      FLAGWRD4
000034: 10,3534           00003        JOIN               RELINT
000035: 10,3535           16751                           TCF      Q+1
000036:
000037: 10,3536           00004        DOWNENT2           INHINT
000038: 10,3537           75661                           MASK     OCT77770
000039: 10,3540           40000                           COM
000040: 10,3541           70100                           MASK     FLAGWRD4
000041: 10,3542           54100                           TS       FLAGWRD4
000042: 10,3543           13534                           TCF      JOIN
000043:
000044: 10,3544     4757               OCT7               EQUALS   SEVEN
000045:


000047:                                                                                                  #      UPFLAG AND DOWNFLAG ARE ENTIRELY GENERAL FLAG SETTING AND CLEARING SUBROUTINES.   USING THEM, WHETHER OR
000048:                                                                                                  #  NOT IN INTERRUPT, ONE MAY SET OR CLEAR ANY SINGLE, NAMED BIT IN ANY ERASABLE REGISTER, SUBJECT OF COURSE TO
000049:                                                                                                  #  EBANK SETTING.   A "NAMED" BIT, AS THE WORD IS USED HERE, IS ANY BIT WITH A NAME FORMALLY ASSIGNED BY THE YUL
000050:                                                                                                  #  ASSEMBLER.
000051:
000052:                                                                                                  #      AT PRESENT THE ONLY NAMED BITS ARE THOSE IN THE FLAGWORDS.   ASSEMBLER CHANGES WILL MAKE IT POSSIBLE TO
000053:                                                                                                  #  NAME ANY BIT IN ERASABLE MEMORY.
000054:
000055:                                                                                                  #      CALLING SEQUENCES ARE AS FOLLOWS:-
000056:
000057:                                                                                                  #                      TC     UPFLAG                    TC     DOWNFLAG
000058:                                                                                                  #                      ADRES  NAME OF FLAG              ADRES  NAME OF FLAG
000059:
000060:                                                                                                  #      RETURN IS TO THE LOCATION FOLLOWING THE "ADRES" ABOUT .58 MS AFTER THE "TC".
000061:
000062:                                                                                                  #      UPON RETURN A CONTAINS THE CURRENT FLAGWRD SETTING.
000063:
000064:    5515                                           BLOCK    02
000065:    4000                                           SETLOC   FFTAG1
000066:    4000                                           BANK
000067:    5515                                           COUNT*   $$/FLAG
000068:
000069:    5515           30002        UPFLAG             CA       Q
000070:    5516           05533                           TC       DEBIT
000071:    5517           40000                           COM                                            #  +(15 - BIT)
000072:    5520           00006                           EXTEND
000073:    5521           04001                           ROR      LCHAN                                 #  SET BIT
000074:    5522           50061        COMFLAG            INDEX    ITEMP1
000075:    5523           54074                           TS       FLAGWRD0
000076:    5524           22063                           LXCH     ITEMP3
000077:    5525           00003                           RELINT
000078:    5526           00001                           TC       L
000079:
000080:
000081:    5527           30002        DOWNFLAG           CA       Q
000082:    5530           05533                           TC       DEBIT
000083:    5531           70001                           MASK     L                                     #  RESET BIT
000084:    5532           15522                           TCF      COMFLAG
000085:
000086:
000087:    5533           64753        DEBIT              AD       ONE                                   #  GET DE BITS
000088:    5534           00004                           INHINT
000089:    5535           54063                           TS       ITEMP3
000090:    5536           34762                           CA       LOW4                                  #  DEC15
000091:    5537           54061                           TS       ITEMP1
000092:    5540           50063                           INDEX    ITEMP3
000093:    5541           27777                           CA       0          -1                         #  ADRES
000094:    5542           54001                           TS       L
000095:    5543           34755                           CA       ZERO


000097:    5544           00006                           EXTEND
000098:    5545           10061                           DV       ITEMP1                                #  A = FLAGWRD, L = (15 - BIT)
000099:    5546           52062                           DXCH     ITEMP1
000100:    5547           50061                           INDEX    ITEMP1
000101:    5550           30074                           CA       FLAGWRD0
000102:    5551           54001                           TS       L                                     #  CURRENT STATE
000103:    5552           50062                           INDEX    ITEMP2
000104:    5553           44735                           CS       BIT15                                 #  -(15 - BIT)
000105:    5554           00002                           TC       Q
000106:


000108:                                                                                                  #  DELAYJOB- A GENERAL ROUTINE TO DELAY A JOB A SPECIFIC AMOUNT OF TIME BEFORE PICKING UP AGAIN.
000109:
000110:                                                                                                  #  ENTRANCE REQUIREMENTS...
000111:                                                                                                  #                                                   CAF    DT              DELAY JOB FOR DT CENTISECS
000112:                                                                                                  #                                                   TC     BANKCALL
000113:                                                                                                  #                                                   CADR   DELAYJOB
000114:
000115: 06,3772                                           BANK     06
000116: 00,2000                                           SETLOC   DLAYJOB
000117: 00,2000                                           BANK
000118:
000119:                                                                                                  #  THIS MUST REMAIN IN BANK 0 *****************************************
000120: 00,3735                                           COUNT*   $$/DELAY
000121: 00,3735           35000        2SECDELY           CAF      2SECS
000122: 00,3736           00004        DELAYJOB           INHINT
000123: 00,3737           54002                           TS       Q                                     #  STORE DELAY DT IN Q FOR DLY -1 IN
000124:
000125: 00,3740           34752                           CAF      DELAYNUM                              #  WAITLIST
000126: 00,3741           54070        DELLOOP            TS       RUPTREG1
000127: 00,3742           50000                           INDEX    A
000128: 00,3743           31323                           CA       DELAYLOC                              #  IS THIS DELAYLOC AVAILABLE
000129: 00,3744           00006                           EXTEND
000130: 00,3745           13753                           BZF      OK2DELAY                              #  YES
000131:
000132: 00,3746           10070                           CCS      RUPTREG1                              #  NO, TRY NEXT DELAYLOC
000133: 00,3747           13741                           TCF      DELLOOP
000134:
000135: 00,3750           52134                           DXCH     BUF2
000136: 00,3751           05717                           TC       BAILOUT1                              #  NO AVAILABLE LOCS.
000137: 00,3752           31104                           OCT      31104
000138:
000139: 00,3753           33773        OK2DELAY           CA       TCSLEEP                               #  SET WAITLIST IMMEDIATE RETURN
000140: 00,3754           54061                           TS       WAITEXIT
000141:
000142: 00,3755           30004                           CA       FBANK
000143: 00,3756           60070                           AD       RUPTREG1                              #  STORE BBANK FOR TASK CALL
000144: 00,3757           54001                           TS       L
000145:
000146: 00,3760           33774                           CAF      WAKECAD                               #  STORE CADR FOR TASK CALL
000147: 00,3761           15222                           TCF      DLY2       -1                         #  DLY IS IN WAITLIST ROUTINE
000148:
000149: 00,3762           04645        TCGETCAD           TC       MAKECADR                              #  GET CALLERS FCADR
000150:
000151: 00,3763           50070                           INDEX    RUPTREG1
000152: 00,3764           55323                           TS       DELAYLOC                              #  SAVE DELAY CADRS
000153:
000154: 00,3765           05133                           TC       JOBSLEEP
000155:
000156: 00,3766           34755        WAKER              CAF      ZERO
000157: 00,3767           50006                           INDEX    BBANK
000158:


000160: 00,3770           57323                           XCH      DELAYLOC                              #  MAKE DELAYLOC AVAILABLE
000161: 00,3771           05137                           TC       JOBWAKE
000162:
000163: 00,3772           05272                           TC       TASKOVER
000164:
000165: 00,3773           03760        TCSLEEP            GENADR   TCGETCAD   -2
000166: 00,3774           03766        WAKECAD            GENADR   WAKER
000167:


000169:                                                                                                  #  GENTRAN, A BLOCK TRANSFER ROUTINE.
000170:
000171:                                                                                                  #  WRITTEN BY D. EYLES
000172:                                                                                                  #  MOD 1 BY KERNAN                                                         UTILITYM REV 17 11/18/67
000173:
000174:                                                                                                  #  MOD 2 BY SCHULENBERG  (REMOVE RELINT)   SKIPPER REV 4 2/28/68
000175:
000176:                                                                                                  #           THIS ROUTINE IS USEFULL FOR TRANSFERING N CONSECUTIVE ERASABLE OR FIXED QUANTITIES TO SOME OTHER N
000177:                                                                                                  #  CONSECUTIVE ERASABLE LOCATIONS.  IF BOTH BLOCKS OF DATA ARE IN SWITCHABLE EBANKS, THEY MUST BE IN THE SAME ONE.
000178:
000179:                                                                                                  #           GENTRAN IS CALLABLE IN A JOB AS WELL AS A RUPT.  THE CALLING SEQUENCE IS:
000180:
000181:                                                                                                  #                                          I        CA     N-1             # OF QUANTITIES MINUS ONE.
000182:                                                                                                  #                                          I +1     TC     GENTRAN         IN FIXED-FIXED.
000183:                                                                                                  #                                          I +2     ADRES  L               STARTING ADRES OF DATA TO BE MOVED.
000184:                                                                                                  #                                          I +3     ADRES  M               STARTING ADRES OF DUPLICATION BLOCK.
000185:                                                                                                  #                                          I +4                            RETURNS HERE.
000186:
000187:                                                                                                  #           GENTRAN TAKES 25 MCT'S (300 MICROSECONDS) PER ITEM + 5 MCT'S (60 MICS) FOR ENTERING AND EXITING.
000188:
000189:                                                                                                  #           A, L AND ITEMP1 ARE NOT PRESERVED.
000190:
000191:    5555                                           BLOCK    02
000192:    4000                                           SETLOC   FFTAG4
000193:    4000                                           BANK
000194:
000195:    5555     0061                                  EBANK=   ITEMP1
000196:
000197:    5555                                           COUNT*   $$/TRAN
000198:
000199:    5555           00004        GENTRAN            INHINT
000200:    5556           54061                           TS       ITEMP1                                #  SAVE N-1.
000201:    5557           50002                           INDEX    Q                                     #  C(Q) = ADRES L.
000202:    5560           60000                           AD       0                                     #  ADRES (L + N - 1).
000203:    5561           50000                           INDEX    A
000204:    5562           30000                           CA       0                                     #  C(ABOVE).
000205:    5563           54001                           TS       L                                     #  SAVE DATA.
000206:    5564           30061                           CA       ITEMP1
000207:    5565           50002                           INDEX    Q
000208:    5566           60001                           AD       1                                     #  ADRES (M + N - 1).
000209:    5567           50000                           INDEX    A
000210:    5570           22000                           LXCH     0                                     #  STUFF IT.
000211:    5571           10061                           CCS      ITEMP1                                #  LOOP UNTIL N-1 = 0.
000212:    5572           15556                           TCF      GENTRAN    +1
000213:    5573           16753                           TCF      Q+2                                   #  RETURN TO CALLER.
000214:


000216:                                                                                                  #  B5OFF   ZERO BIT 5 OF EXTVBACT, WHICH IS SET BY TESTXACT.
000217:
000218:                                                                                                  #           MAY BE USED AS NEEDED BY ANY EXTENDED VERB WHICH HAS DONE TESTXACT
000219:
000220:    5574                                           COUNT*   $$/EXTVB
000221:
000222:    5574           44747        B5OFF              CS       BIT5
000223:    5575           71043                           MASK     EXTVBACT
000224:    5576           55043                           TS       EXTVBACT
000225:    5577           05155                           TC       ENDOFJOB

End of include-file SERVICE_ROUTINES.agc.  Parent file is MAIN.agc


