
Source Code


000002:                                                                                                  ## Copyright:   Public domain.
000003:                                                                                                  ## Filename:    SINGLE_PRECISION_SUBROUTINES.agc
000004:                                                                                                  ## Purpose:     A log section of Zerlina 56, the final revision of
000005:                                                                                                  ##              Don Eyles's offline development program for the variable
000006:                                                                                                  ##              guidance period servicer. It also includes a new P66 with LPD
000007:                                                                                                  ##              (Landing Point Designator) capability, based on an idea of John
000008:                                                                                                  ##              Young's. Neither of these advanced features were actually flown,
000009:                                                                                                  ##              but Zerlina was also the birthplace of other big improvements to
000010:                                                                                                  ##              Luminary including the terrain model and new (Luminary 1E)
000011:                                                                                                  ##              analog display programs. Zerlina was branched off of Luminary 145,
000012:                                                                                                  ##              and revision 56 includes all changes up to and including Luminary
000013:                                                                                                  ##              183. It is therefore quite close to the Apollo 14 program,
000014:                                                                                                  ##              Luminary 178, where not modified with new features.
000015:                                                                                                  ## Reference:   p.  1093
000016:                                                                                                  ## Assembler:   yaYUL
000017:                                                                                                  ## Contact:     Ron Burkey <info@sandroid.org>.
000018:                                                                                                  ## Website:     www.ibiblio.org/apollo/index.html
000019:                                                                                                  ## Mod history: 2017-07-28 MAS  Created from Luminary 210.
000020:                                                                                                  ##              2017-08-28 MAS  Updated for Zerlina 56.
000021:


000023:    5032                                           BLOCK    02
000024:                                                                                                  #  SINGLE PRECISION SINE AND COSINE
000025:
000026:    5032                                           COUNT*   $$/INTER
000027:    5032           64736        SPCOS              AD       HALF                                  #  ARGUMENTS SCALED AT PI
000028:    5033           55075        SPSIN              TS       TEMK
000029:    5034           15036                           TCF      SPT
000030:    5035           41075                           CS       TEMK
000031:    5036           60000        SPT                DOUBLE
000032:    5037           55075                           TS       TEMK
000033:    5040           15051                           TCF      POLLEY
000034:    5041           57075                           XCH      TEMK
000035:    5042           51075                           INDEX    TEMK
000036:    5043           64734                           AD       LIMITS
000037:    5044           40000                           COM
000038:    5045           61075                           AD       TEMK
000039:    5046           55075                           TS       TEMK
000040:    5047           15051                           TCF      POLLEY
000041:    5050           15067                           TCF      ARG90
000042:    5051           00006        POLLEY             EXTEND
000043:    5052           71075                           MP       TEMK
000044:    5053           55076                           TS       SQ
000045:    5054           00006                           EXTEND
000046:    5055           75005                           MP       C5/2
000047:    5056           67751                           AD       C3/2
000048:    5057           00006                           EXTEND
000049:    5060           71076                           MP       SQ
000050:    5061           67731                           AD       C1/2
000051:    5062           00006                           EXTEND
000052:    5063           71075                           MP       TEMK
000053:    5064           20001                           DDOUBL
000054:    5065           55075                           TS       TEMK
000055:    5066           00002                           TC       Q
000056:    5067           50000        ARG90              INDEX    A
000057:    5070           44734                           CS       LIMITS
000058:    5071           00002                           TC       Q                                     #  RESULT SCALED AT 1

End of include-file SINGLE_PRECISION_SUBROUTINES.agc.  Parent file is MAIN.agc


