
Source Code


000002:                                                                                                  ## Copyright:   Public domain.
000003:                                                                                                  ## Filename:    SPS_BACK-UP_RCS_CONTROL.agc
000004:                                                                                                  ## Purpose:     A log section of Zerlina 56, the final revision of
000005:                                                                                                  ##              Don Eyles's offline development program for the variable
000006:                                                                                                  ##              guidance period servicer. It also includes a new P66 with LPD
000007:                                                                                                  ##              (Landing Point Designator) capability, based on an idea of John
000008:                                                                                                  ##              Young's. Neither of these advanced features were actually flown,
000009:                                                                                                  ##              but Zerlina was also the birthplace of other big improvements to
000010:                                                                                                  ##              Luminary including the terrain model and new (Luminary 1E)
000011:                                                                                                  ##              analog display programs. Zerlina was branched off of Luminary 145,
000012:                                                                                                  ##              and revision 56 includes all changes up to and including Luminary
000013:                                                                                                  ##              183. It is therefore quite close to the Apollo 14 program,
000014:                                                                                                  ##              Luminary 178, where not modified with new features.
000015:                                                                                                  ## Reference:   pp. 1495-1498
000016:                                                                                                  ## Assembler:   yaYUL
000017:                                                                                                  ## Contact:     Ron Burkey <info@sandroid.org>.
000018:                                                                                                  ## Website:     www.ibiblio.org/apollo/index.html
000019:                                                                                                  ## Mod history: 2017-07-28 MAS  Created from Luminary 210.
000020:                                                                                                  ##              2017-08-29 RSB  Transcribed.
000021:


000023:                                                                                                  #  PROGRAM NAME:  SPSRCS
000024:
000025:                                                                                                  #  AUTHOR:  EDGAR M. OSHIKA (AC ELECTRONICS)
000026:
000027:                                                                                                  #  MODIFIED:  TO RETURN TO ALL AXES VIA Q BY P.S.WEISSMAN, OCT 7, 1968
000028:
000029:                                                                                                  #  MODIFIED TO IMPROVE BENDING STABILITY BY G.KALAN,FEB.14,1969
000030:                                                                                                  #  FUNCTIONAL DESCRIPTION:
000031:
000032:                                                                                                  #  THIS PROGRAM CONTROLS THE FIRING OF ALL RCS JETS IN THE DOCKED CONFIGURATION ACCORDING TO THE FOLLOWING PHASE
000033:                                                                                                  #  PLANE LOGIC.
000034:
000035:                                                                                                  #  1. JET SENSE TEST (SPSRCS)
000036:
000037:                                                                                                  #  IF JETS ARE FIRING NEGATIVELY,SET OLDSENSE NEGATIVE AND CONTINUE
000038:                                                                                                  #  IF JETS ARE FIRING POSITIVELY,SET OLDSENSE POSITIVE AND CONTINUE
000039:                                                                                                  #  IF JETS ARE NOT FIRING,SET OLDSENSE TO ZERO AND GO TO OUTER RATE LIMIT  TEST
000040:
000041:                                                                                                  #  2. RATE DEAD BAND TEST
000042:
000043:                                                                                                  #  IF JETS ARE FIRING NEGATIVELY AND RATE IS GREATER THAN TARGET RATE,LEAVE
000044:                                                                                                  #  JETS ON AND GO TO INHIBITION LOGIC. OTHERWISE,CONTINUE.
000045:                                                                                                  #  IF JETS ARE FIRING POSITIVELY AND RATE IS   LESS  THAN TARGET RATE,LEAVE
000046:                                                                                                  #  JETS ON AND GO TO INHIBITION LOGIC. OTHERWISE,CONTINUE.
000047:
000048:                                                                                                  #  3. OUTER RATE LIMIT TEST (SPSSTART)
000049:
000050:                                                                                                  #  IF MAGNITUDE OF EDOT IS GREATER THAN 1.73 DEG/SEC SET JET FIRING TIME
000051:                                                                                                  #   TO REDUCE RATE AND GO TO INHIBITION LOGIC. OTHERWISE,CONTINUE.
000052:
000053:                                                                                                  #  4. COAST ZONE TEST
000054:
000055:                                                                                                  #  IF STATE (E,EDOT) IS BELOW LINE  E + 4 X EDOT > -1.4 DEG  AND EDOT IS LESS THAN 1.30 DEG/SEC SET JET TIME POSI-
000056:                                                                                                  #  TIVE AND CONTINUE. OTHERWISE,SET JET FIRING TIME TO ZERO AND CONTINUE.
000057:                                                                                                  #  IF STATE IS ABOVE LINE  E + 4X EDOT > +1.4 DEG AND EDOT IS GREATER THAN -1.30 DEG/SEC, SET JET TIME NEGATIVE
000058:                                                                                                  #  AND CONTINUE. OTHERWISE,SET JET FIRING TIME TO ZERO AND CONTINUE.
000059:
000060:                                                                                                  #  5. INHIBITION LOGIC
000061:
000062:                                                                                                  #  IF OLDSENSE IS NON-ZERO:
000063:                                                                                                  #        A) RETURN IF JET TIME HAS SAME SIGN AS OLDSENSE
000064:                                                                                                  #        B) SET INHIBITION COUNTER*AND RETURN IF JET TIME IS ZERO
000065:                                                                                                  #        C) SET INHIBITION COUNTER,*SET JET TIME TO ZERO AND RETURN IF SIGN
000066:                                                                                                  #           OF JET TIME IS OPPOSITE TO THAT OF OLDSENSE
000067:
000068:                                                                                                  #  IF OLDSENSE IS ZERO:
000069:                                                                                                  #        A) RETURN IF INHIBITION COUNTER IS NOT POSITIVE
000070:                                                                                                  #        B) SET JET TIME TO ZERO AND RETURN IF INHIBITION COUNTER IS POSITIVE
000071:                                                                                                  #  *NOTE: INHIBITION COUNTERS CAN BE SET TO 4 OR 10 FOR THE P,AND UV AXES,
000072:                                                                                                  #  RESPECTIVELY,IN SPSRCS. THEY ARE DECREMENTED BY ONE AT THE BEGINNING OF


000074:                                                                                                  #  EACH DAP PASS.
000075:
000076:                                                                                                  #  THE MINIMUM PULSE WIDTH OF THIS CONTROLLER IS DETERMINED BY THE REPETITION  RATE AT WHICH THIS ROUTINE IS CALLED
000077:                                                                                                  #  AND IS NOMINALLY 100 MS FOR ALL AXES IN DRIFTING FLIGHT.   DURING POWERED FLIGHT THE MINIMUM IS 100 MS FOR THE
000078:                                                                                                  #  P AXIS AND 200 MS FOR THE CONTROL OF THE U AND V AXES.
000079:
000080:                                                                                                  #  CALLING SEQUENCE:
000081:
000082:                                                                                                  #           INHINT
000083:                                                                                                  #                      TC     IBNKCALL
000084:                                                                                                  #                      CADR   SPSRCS
000085:
000086:
000087:                                                                                                  #  EXIT:
000088:                                                                                                  #           TC     Q
000089:                                                                                                  #  ALARM/ABORT MODE:    NONE
000090:
000091:                                                                                                  #  SUBROUTINES CALLED:    NONE
000092:
000093:                                                                                                  #  INPUT:      E,EDOT
000094:                                                                                                  #              TJP, TJV, TJU                   TJ MUST NOT BE NEGATIVE ZERO
000095:
000096:                                                                                                  #  OUTPUT:     TJP, TJV, TJU
000097:
000098:
000099: 21,3560                                           BANK     21
000100: 21,2000                                           SETLOC   DAPS4
000101: 21,2000                                           BANK
000102:
000103: 21,3560                                           COUNT*   $$/DAPBU
000104:
000105: 21,3560  E6,1525                                  EBANK=   TJU
000106: 21,3560           00632        RATELIM2           OCT      00632                                 #  1.125 DEG/SEC
000107: 21,3561           34736        POSTHRST           CA       HALF
000108:
000109: 21,3562           51505                           NDX      AXISCTR
000110: 21,3563           55525                           TS       TJU
000111: 21,3564           11744                           CCS      OLDSENSE
000112: 21,3565           13605                           TCF      POSCHECK                              #  JETS FIRING POSITIVELY
000113: 21,3566           13610                           TCF      CTRCHECK                              #  JETS OFF. CHECK INHIBITION CTR
000114: 21,3567           51505        NEGCHECK           INDEX    AXISCTR                               #  JETS FIRING NEGATIVELY
000115: 21,3570           41525                           CS       TJU
000116: 21,3571           10000                           CCS      A
000117: 21,3572           00002                           TC       Q                                     #  RETURN
000118: 21,3573           13575                           TCF      +2
000119: 21,3574           13575                           TCF      +1                                    #  JETS COMMANDED OFF.SET CTR AND RETURN
000120: 21,3575           51505        SETCTR             INDEX    AXISCTR                               #  JET FIRING REVERSAL COMMANDED. SET CTR,
000121: 21,3576           33617                           CA       UTIME                                 #  SET JET TIME TO ZERO,AND RETURN


000123: 21,3577           51505                           INDEX    AXISCTR
000124: 21,3600           55767                           TS       UJETCTR
000125: 21,3601           34755        ZAPTJ              CA       ZERO
000126: 21,3602           51505                           INDEX    AXISCTR
000127: 21,3603           55525                           TS       TJU
000128: 21,3604           00002                           TC       Q
000129: 21,3605           51505        POSCHECK           INDEX    AXISCTR
000130: 21,3606           31525                           CA       TJU
000131: 21,3607           13571                           TCF      NEGCHECK   +2
000132: 21,3610           51505        CTRCHECK           INDEX    AXISCTR                               #  CHECK JET INHIBITION COUNTER
000133: 21,3611           11767                           CCS      UJETCTR
000134: 21,3612           13614                           TCF      +2
000135: 21,3613           00002                           TC       Q                                     #  CTR IS NOT POSITIVE. RETURN
000136: 21,3614           13601                           TCF      ZAPTJ                                 #  CTR IS POSITIVE.INHIBIT FIRINGS
000137: 21,3615           00002                           TC       Q                                     #  CTR IS NOT POSITIVE.RETURN
000138: 21,3616           00004                           OCT      00004
000139: 21,3617           00012        UTIME              OCT      00012
000140: 21,3620           00012                           OCT      00012
000141: 21,3621           44753        NEGFIRE            CS       ONE                                   #  JETS FIRING NEGATIVELY
000142: 21,3622           55744                           TS       OLDSENSE
000143: 21,3623           31427                           CA       EDOT
000144: 21,3624           13630                           TCF      +4
000145: 21,3625           34753        PLUSFIRE           CA       ONE
000146: 21,3626           55744                           TS       OLDSENSE
000147: 21,3627           41427                           CS       EDOT                                  #  RATE DEAD BAND TEST
000148: 21,3630           22000                           LXCH     A
000149: 21,3631           40111                           CS       DAPBOOLS                              #  IF DRIFTBIT = 1, USE ZERO TARGET RATE
000150: 21,3632           74744                           MASK     DRIFTBIT                              #  IF DRIFTBIT = 0, USE 0.10 RATE TARGET
000151: 21,3633           10000                           CCS      A
000152: 21,3634           34767                           CA       RATEDB1
000153: 21,3635           60001                           AD       L
000154: 21,3636           00006                           EXTEND
000155: 21,3637           63647                           BZMF     SPSSTART
000156: 21,3640           13564                           TCF      POSTHRST   +3
000157:
000158: 21,3641           51505        SPSRCS             INDEX    AXISCTR                               #  JET SENSE TEST
000159: 21,3642           11525                           CCS      TJU
000160: 21,3643           13625                           TCF      PLUSFIRE                              #  JETS FIRING POSITIVELY
000161: 21,3644           13646                           TCF      +2
000162: 21,3645           13621                           TCF      NEGFIRE                               #  JETS FIRING NEGATIVELY
000163: 21,3646           55744                           TS       OLDSENSE                              #  JETS OFF
000164: 21,3647           31427        SPSSTART           CA       EDOT                                  #  OUTER RATE LIMIT TEST
000165: 21,3650           00006                           EXTEND
000166: 21,3651           74766                           MP       RATELIM1
000167: 21,3652           10000                           CCS      A
000168: 21,3653           13672                           TCF      NEGTHRST                              #  OUTER RATE LIMIT EXCEEDED
000169: 21,3654           13656                           TCF      +2
000170: 21,3655           13561                           TCF      POSTHRST                              #  OUTER RATE LIMIT EXCEEDED
000171: 21,3656           31427                           CA       EDOT                                  #  COAST ZONE TEST
000172: 21,3657           61751                           AD       E


000174: 21,3660           00006                           EXTEND
000175: 21,3661           71411                           MP       DKDB                                  #  PAD LOADED DEADBAND. FRESHSTART: 1.4 DEG
000176: 21,3662           00006                           EXTEND
000177: 21,3663           13700                           BZF      TJZERO
000178:
000179: 21,3664           00006                           EXTEND
000180: 21,3665           63674                           BZMF     +7
000181: 21,3666           31427                           CA       EDOT
000182: 21,3667           63560                           AD       RATELIM2
000183: 21,3670           00006                           EXTEND
000184: 21,3671           63700                           BZMF     TJZERO
000185: 21,3672           44736        NEGTHRST           CS       HALF
000186: 21,3673           13562                           TCF      POSTHRST   +1
000187: 21,3674           43560                 +7        CS       RATELIM2
000188: 21,3675           61427                           AD       EDOT
000189: 21,3676           00006                           EXTEND
000190: 21,3677           63561                           BZMF     POSTHRST
000191: 21,3700           34755        TJZERO             CA       ZERO
000192: 21,3701           13562                           TCF      POSTHRST   +1
000193:
000194:
000195: 21,3702     4766               RATELIM1           =        CALLCODE                              #  = 00032, CORRESPONDING TO 1.73 DEG/SEC
000196: 21,3702     4767               RATEDB1            =        TBUILDFX                              #   = 00045, CORRESPONDS TO 0.101 DEG/SEC

End of include-file SPS_BACK-UP_RCS_CONTROL.agc.  Parent file is MAIN.agc


