
Source Code


000002:                                                                                                  ## Copyright:   Public domain.
000003:                                                                                                  ## Filename:    SYSTEM_TEST_STANDARD_LEAD_INS.agc
000004:                                                                                                  ## Purpose:     A log section of Zerlina 56, the final revision of
000005:                                                                                                  ##              Don Eyles's offline development program for the variable
000006:                                                                                                  ##              guidance period servicer. It also includes a new P66 with LPD
000007:                                                                                                  ##              (Landing Point Designator) capability, based on an idea of John
000008:                                                                                                  ##              Young's. Neither of these advanced features were actually flown,
000009:                                                                                                  ##              but Zerlina was also the birthplace of other big improvements to
000010:                                                                                                  ##              Luminary including the terrain model and new (Luminary 1E)
000011:                                                                                                  ##              analog display programs. Zerlina was branched off of Luminary 145,
000012:                                                                                                  ##              and revision 56 includes all changes up to and including Luminary
000013:                                                                                                  ##              183. It is therefore quite close to the Apollo 14 program,
000014:                                                                                                  ##              Luminary 178, where not modified with new features.
000015:                                                                                                  ## Reference:   pp. 375-377
000016:                                                                                                  ## Assembler:   yaYUL
000017:                                                                                                  ## Contact:     Ron Burkey <info@sandroid.org>.
000018:                                                                                                  ## Website:     www.ibiblio.org/apollo/index.html
000019:                                                                                                  ## Mod history: 2017-07-28 MAS  Created from Luminary 210.
000020:                                                                                                  ##              2017-08-22 RSB  Transcribed.
000021:


000023: 22,3242  E5,1642                                  EBANK=   XSM
000024:
000025: 33,2031                                           BANK     33
000026: 04,2000                                           SETLOC   E/PROG
000027: 04,2000                                           BANK
000028:
000029: 04,2570                                           COUNT*   $$/P07
000030:
000031:                                                                                                  #           SPECIAL PROGRAMS TO EASE THE PANGS OF ERASABLE MEMORY PROGRAMS.
000032:
000033:                                                                                                  #  E/BKCALL   FOR DOING BANKCALLS FROM AND RETURNING TO ERASABLE.
000034:
000035:                                                                                                  #           THIS ROUTINE IS CALLABLE FROM ERASABLE OR FIXED.  LIKE BANKCALL, HOWEVER, SWITCHING BETWEEN S3 AND S4
000036:                                                                                                  #  IS NOT POSSIBLE.
000037:
000038:                                                                                                  #           THE CALLING SEQUENCE IS:
000039:
000040:                                                                                                  #                                                   TC     BANKCALL
000041:                                                                                                  #                                                   CADR   E/BKCALL
000042:                                                                                                  #                                                   CADR   ROUTINE         WHERE YOU WANT TO GO IN FIXED.
000043:                                                                                                  #                                                   RETURN HERE FROM DISPLAY TERMINATE, BAD STALL OR TC Q.
000044:                                                                                                  #                                                   RETURN HERE FROM DISPLAY PROCEED OR GOOD RETURN FROM STALL.
000045:                                                                                                  #                                                   RETURN HERE FROM DISPLAY ENTER OR RECYCLE.
000046:
000047:                                                                                                  #           THIS ROUTINE REQUIRES TWO ERASABLES (EBUF2, +1) IN UNSWITCHED WHICH ARE UNSHARED BY INTERRUPTS AND
000048:                                                                                                  #  OTHER EMEMORY PROGRAMS.
000049:
000050:                                                                                                  #           A + L ARE PRESERVED THROUGH BANKCALL AND E/BKCALL.
000051:
000052: 04,2570           52134        E/BKCALL           DXCH     BUF2                                  #  SAVE A,L AND GET DP RETURN.
000053: 04,2571           53167                           DXCH     EBUF2                                 #  SAVE DP RETURN.
000054: 04,2572           25166                           INCR     EBUF2                                 #  RETURN +1 BECAUSE DOUBLE CADR.
000055: 04,2573           30006                           CA       BBANK
000056: 04,2574           75012                           MASK     LOW10                                 #  GET CURRENT EBANK.  (SBANK SOMEDAY)
000057: 04,2575           27167                           ADS      EBUF2      +1                         #  FORM BBCON.  (WAS FBANK)
000058: 04,2576           51166                           NDX      EBUF2
000059: 04,2577           27777                           CA       0          -1                         #  GET CADR OF ROUTINE.
000060: 04,2600           04622                           TC       SWCALL                                #  GO TO ROUTINE, SETTING Q TO SWRETURN
000061:                                                                                                  #  AND RESTORING A + L.
000062: 04,2601           02605                           TC       +4                                    #  TX Q, V34, OR BAD STALL RETURN.
000063: 04,2602           02604                           TC       +2                                    #  PROCEED OR GOOD STALL RETURN.
000064: 04,2603           25166                           INCR     EBUF2                                 #  ENTER OR RECYCLE RETURN.
000065: 04,2604           25166                           INCR     EBUF2
000066: 04,2605           53167        E/SWITCH           DXCH     EBUF2
000067: 04,2606           52006                           DTCB
000068:


000070:                                                                                                  #  E/CALL          FOR CALLING A FIXED MEMORY INTERPRETIVE SUBROUTINE FROM ERASABLE AND RETURNING TO ERASABLE.
000071:
000072:                                                                                                  #           THE CALLING SEQUENCE IS...
000073:
000074:                                                                                                  #                                                   RTB
000075:                                                                                                  #                                                          E/CALL
000076:                                                                                                  #                                                   CADR   ROUTINE         THE INTERPRETIVE SUBROUTINE YOU WANT.
000077:                                                                                                  #                                                                          RETURNS HERE IN INTERPRETIVE.
000078:
000079: 04,2607           22164        E/CALL             LXCH     LOC                                   #  ADRES -1 OF CADR.
000080: 04,2610           50001                           INDEX    L
000081: 04,2611           30001                           CA       L                                     #  CADR IN A.
000082: 04,2612           24001                           INCR     L
000083: 04,2613           24001                           INCR     L                                     #  RETURN ADRES IN L.
000084: 04,2614           53167                           DXCH     EBUF2                                 #  STORE CADR AND RETURN.
000085: 04,2615           06051                           TC       INTPRET
000086: 04,2616           77624                           CALL
000087: 04,2617           01166                                    EBUF2                                 #  INDIRECTLY EXECUTE ROUTINE.  IT MUST
000088: 04,2620           77776                           EXIT                                           #  LEAVE VIA RVQ OR EQUIVALENT.
000089: 04,2621           23167                           LXCH     EBUF2      +1                         #  PICK UP RETURN.
000090: 04,2622           16053                           TCF      INTPRET    +2                         #  SET LOC AND RETURN TO CALLER.
000091:


000093:                                                                                                  #  E/JOBWAK        FOR WAKING UP ERASABLE MEMORY JOBS.
000094:
000095:                                                                                                  #           THIS ROUTINE MUST BE CALLED IN INTERRUPT OR WITH INTERRUPTS INHIBITED.
000096:
000097:                                                                                                  #           THE CALLING SEQUENCE IS:
000098:
000099:                                                                                                  #                                                   INHINT
000100:                                                                                                  #                                                     .
000101:                                                                                                  #                                                     .
000102:                                                                                                  #                                                   CA     WAKEADR         ADDRESS OF SLEEPING JOB
000103:                                                                                                  #                                                   TC     IBNKCALL
000104:                                                                                                  #                                                   CADR   E/JOBWAK
000105:                                                                                                  #                                                     .                    RETURNS HERE
000106:                                                                                                  #                                                     .
000107:                                                                                                  #                                                     .
000108:                                                                                                  #                                                   RELINT                 IF YOU DID AN INHINT.
000109:
000110: 33,2031                                           BANK     33
000111: 04,2000                                           SETLOC   E/PROG
000112: 04,2000                                           BANK
000113:
000114: 04,2623                                           COUNT*   $$/P07
000115:
000116: 04,2623           05137        E/JOBWAK           TC       JOBWAKE                               #  ARRIVE IWTH ADRES IN A.
000117: 04,2624           44741                           CS       BIT11
000118: 04,2625           50064                           NDX      LOCCTR
000119: 04,2626           26164                           ADS      LOC                                   #  KNOCK FIXED MEMORY BIT OUT OF ADRES.
000120: 04,2627           00072                           TC       RUPTREG3                              #  RETURN
000121:

End of include-file SYSTEM_TEST_STANDARD_LEAD_INS.agc.  Parent file is MAIN.agc


