
Source Code


000002:                                                                                                  ## Copyright:   Public domain.
000003:                                                                                                  ## Filename:    T6-RUPT_PROGRAMS.agc
000004:                                                                                                  ## Purpose:     A log section of Zerlina 56, the final revision of
000005:                                                                                                  ##              Don Eyles's offline development program for the variable
000006:                                                                                                  ##              guidance period servicer. It also includes a new P66 with LPD
000007:                                                                                                  ##              (Landing Point Designator) capability, based on an idea of John
000008:                                                                                                  ##              Young's. Neither of these advanced features were actually flown,
000009:                                                                                                  ##              but Zerlina was also the birthplace of other big improvements to
000010:                                                                                                  ##              Luminary including the terrain model and new (Luminary 1E)
000011:                                                                                                  ##              analog display programs. Zerlina was branched off of Luminary 145,
000012:                                                                                                  ##              and revision 56 includes all changes up to and including Luminary
000013:                                                                                                  ##              183. It is therefore quite close to the Apollo 14 program,
000014:                                                                                                  ##              Luminary 178, where not modified with new features.
000015:                                                                                                  ## Reference:   pp. 1391-1393
000016:                                                                                                  ## Assembler:   yaYUL
000017:                                                                                                  ## Contact:     Ron Burkey <info@sandroid.org>.
000018:                                                                                                  ## Website:     www.ibiblio.org/apollo/index.html
000019:                                                                                                  ## Mod history: 2017-07-28 MAS  Created from Luminary 210.
000020:                                                                                                  ##              2017-08-29 MAS  Updated for Zerlina 56.
000021:


000023:                                                                                                  #  PROGRAM NAMES:  (1) T6JOBCHK      MOD. NO. 5    OCTOBER 2, 1967
000024:                                                                                                  #                 (2) DOT6RUPT
000025:
000026:                                                                                                  #  MODIFICATION BY: LOWELL G HULL (A.C.ELECTRONICS)
000027:                                                                                                  #  THESE PROGRAMS ENABLE THE LM DAP TO CONTROL THE THRUST TIMES OF THE REACTION CONTROL SYSTEM JETS BY USING TIME6.
000028:                                                                                                  #  SINCE THE LM DAP MAINTAINS EXCLUSIVE CONTROL OVER TIME6 AND ITS INTERRUPTS, THE FOLLOWING CONVENTIONS HAVE BEEN
000029:                                                                                                  #  ESTABLISHED AND MUST NOT BE TAMPERED WITH:
000030:                                                                                                  #           1. NO NUMBER IS EVER PLACED INTO TIME6 EXCEPT BY LM DAP.
000031:                                                                                                  #           2. NO PROGRAM OTHER THAN LM DAP ENABLES THE TIME6 COUNTER.
000032:                                                                                                  #           3. TO USE TIME6, THE FOLLOWING SEQUENCE IS ALWAYS EMPLOYED:
000033:                                                                                                  #                  A. A POSITIVE (NON-ZERO) NUMBER IS STORED IN TIME6.
000034:                                                                                                  #                  B. THE TIME6 CLOCK IS ENABLED.
000035:                                                                                                  #                  C. TIME6 IS INTERROGATED AND IS:
000036:                                                                                                  #                         I. NEVER FOUND NEGATIVE(NON-ZERO) OR +0.
000037:                                                                                                  #                        II. SOMETIMES FOUND POSITIVE(BETWEEN 1 AND 240D) INDICATING THAT IT IS ACTIVE.
000038:                                                                                                  #                       III. SOMETIMES FOUND POSMAX INDICATING THAT IT IS INACTIVE AND NOT ENABLED.
000039:                                                                                                  #                        IV. SOMETIMES FOUND NEGATIVE ZERO INDICATING THAT:
000040:                                                                                                  #                                A. A T6RUPT IS ABOUT TO OCCUR AT THE NEXT DINC, OR
000041:                                                                                                  #                                B. A T6RUPT IS WAITING IN THE PRIORITY CHAIN, OR
000042:                                                                                                  #                                C. A T6RUPT IS IN PROCESS NOW.
000043:                                                                                                  #           4) ALL PROGRAMS WHICH OPERATE IN EITHER INTERRUPT MODE OR WITH INTERRUPT INHIBITED MUST CALL T6JOBCHK
000044:                                                                                                  #              EVERY 5 MILLISECONDS TO PROCESS A POSSIBLE WAITING T6RUPT BEFORE IT CAN BE HONORED BY THE HARDWARE.
000045:
000046:                                                                                                  #          (5. PROGRAM JTLST, IN Q,R-AXES, HANDLES THE INPUT LIST.)
000047:                                                                                                  #  T6JOBCHK CALLING SEQUENCE:
000048:
000049:                                                                                                  #                                          L        TC     T6JOBCHK
000050:                                                                                                  #                                          L +1    (RETURN)
000051:
000052:                                                                                                  #  DOT6RUPT CALLING SEQUENCE:
000053:
000054:                                                                                                  #                                                   DXCH   ARUPT           T6RUPT LEAD IN AT LOCATION 4004.
000055:                                                                                                  #                                                   EXTEND
000056:                                                                                                  #                                                   DCA    T6ADR
000057:                                                                                                  #                                                   DTCB
000058:
000059:                                                                                                  #  SUBROUTINES CALLED: DOT6RUPT CALLS T6JOBCHK.
000060:
000061:                                                                                                  #  NORMAL EXIT MODES: T6JOBCHK RETURNS TO L +1.
000062:                                                                                                  #                     DOT6RUPT TRANSFERS CONTROL TO RESUME.
000063:
000064:                                                                                                  #  ALARM/ABORT MODES: NONE.
000065:
000066:                                                                                                  #  INPUT: TIME6    NXT6ADR      OUTPUT: TIME6     NXT6ADR     CHANNEL 5
000067:                                                                                                  #         T6NEXT   T6NEXT +1            T6NEXT    T6NEXT +1   CHANNEL 6
000068:                                                                                                  #         T6FURTHA T6FURTHA +1          T6FURTHA  T6FURTHA +1 BIT15/CH13
000069:                                                                                                  #  DEBRIS: T6JOBCHK CLOBBERS A.  DOT6RUPT CLOBBERS NOTHING.
000070:
000071:
000072:    5754                                           BLOCK    02


000074: 17,2055                                           BANK     17
000075: 17,2000                                           SETLOC   DAPS2
000076: 17,2000                                           BANK
000077: 17,2055  E6,1466                                  EBANK=   T6NEXT
000078: 17,2055                                           COUNT*   $$/DAPT6
000079:
000080: 17,2055           10031        T6JOBCHK           CCS      TIME6                                 #  CHECK TIME6 FOR WAITING T6RUPT:
000081: 17,2056           00002                           TC       Q                                     #  NONE: CLOCK COUTING DOWN.
000082: 17,2057           05706                           TC       CCSHOLE
000083: 17,2060           05706                           TC       CCSHOLE
000084:                                                                                                  #  CONTROL PASSES TO T6JOB ONLY WHEN C(TIME6) = -0 (I.E. WHEN A T6RUPT MUST BE PROCESSED).
000085:
000086: 17,2061           34733        T6JOB              CA       POSMAX
000087: 17,2062           22007                           ZL
000088: 17,2063           53471                           DXCH     T6FURTHA
000089: 17,2064           53467                           DXCH     T6NEXT
000090: 17,2065           23465                           LXCH     NXT6ADR
000091: 17,2066           54031                           TS       TIME6
000092:
000093: 17,2067           67737                           AD       PRIO37
000094: 17,2070           54000                           TS       A
000095: 17,2071           12075                           TCF      ENABLET6
000096: 17,2072           34733                           CA       POSMAX
000097: 17,2073           54031                           TS       TIME6
000098: 17,2074           12115                           TCF      GOCH56
000099: 17,2075           00006        ENABLET6           EXTEND
000100: 17,2076           23265                           QXCH     C13QSAV
000101: 17,2077           22070                           LXCH     RUPTREG1
000102: 17,2100           06022                           TC       C13STALL
000103: 17,2101           00006                           EXTEND
000104: 17,2102           23265                           QXCH     C13QSAV
000105: 17,2103           22070                           LXCH     RUPTREG1
000106: 17,2104           34735                           CAF      BIT15
000107: 17,2105           00006                           EXTEND
000108: 17,2106           05013                           WOR      CHAN13
000109: 17,2107           31466                           CA       T6NEXT
000110: 17,2110           67737                           AD       PRIO37
000111: 17,2111           54000                           TS       A
000112: 17,2112           12115                           TCF      GOCH56
000113: 17,2113           34733                           CA       POSMAX
000114: 17,2114           55466                           TS       T6NEXT
000115: 17,2115           50001        GOCH56             INDEX    L
000116: 17,2116           15754                           TCF      WRITEP     -1
000117:
000118:    5754                                           BLOCK    02
000119:    4000                                           SETLOC   FFTAG9
000120:    4000                                           BANK
000121:    5754  E6,1634                                  EBANK=   CDUXD
000122:    5754                                           COUNT*   $$/DAPT6


000124:    5754           31472                           CA       NEXTP
000125:    5755           00006        WRITEP             EXTEND
000126:    5756           01006                           WRITE    CHAN6
000127:    5757           00002                           TC       Q
000128:
000129:    5760           31473                           CA       NEXTU
000130:    5761           54001        WRITEU             TS       L
000131:    5762           45775                           CS       00314OCT
000132:    5763           00006                           EXTEND
000133:    5764           02005                           RAND     CHAN5
000134:    5765           60001                           AD       L
000135:    5766           00006                           EXTEND
000136:    5767           01005                           WRITE    CHAN5
000137:    5770           00002                           TC       Q
000138:
000139:    5771           31474                           CA       NEXTV
000140:    5772           54001        WRITEV             TS       L
000141:    5773           35775                           CA       00314OCT
000142:    5774           15763                           TCF      -9D
000143:    5775           00314        00314OCT           OCT      00314
000144:
000145: 17,2117                                           BANK     17
000146: 17,2000                                           SETLOC   DAPS2
000147: 17,2000                                           BANK
000148:
000149: 17,2117  E6,1466                                  EBANK=   T6NEXT
000150: 17,2117                                           COUNT*   $$/DAPT6
000151:
000152: 17,2117           22016        DOT6RUPT           LXCH     BANKRUPT                              #  (INTERRUPT LEAD INS CONTINUED)
000153: 17,2120           00006                           EXTEND
000154: 17,2121           22012                           QXCH     QRUPT
000155:
000156: 17,2122           02055                           TC       T6JOBCHK                              #  CALL T6JOBCHK.
000157:
000158: 17,2123           15301                           TCF      RESUME                                #  END TIME6 INTERRUPT PROCESSOR.

End of include-file T6-RUPT_PROGRAMS.agc.  Parent file is MAIN.agc


