
Source Code


000002:                                                                                                  ## Copyright:   Public domain.
000003:                                                                                                  ## Filename:    TAGS_FOR_RELATIVE_SETLOC_AND_BLANK_BANK_CARDS.agc
000004:                                                                                                  ## Purpose:     A log section of Zerlina 56, the final revision of
000005:                                                                                                  ##              Don Eyles's offline development program for the variable
000006:                                                                                                  ##              guidance period servicer. It also includes a new P66 with LPD
000007:                                                                                                  ##              (Landing Point Designator) capability, based on an idea of John
000008:                                                                                                  ##              Young's. Neither of these advanced features were actually flown,
000009:                                                                                                  ##              but Zerlina was also the birthplace of other big improvements to
000010:                                                                                                  ##              Luminary including the terrain model and new (Luminary 1E)
000011:                                                                                                  ##              analog display programs. Zerlina was branched off of Luminary 145,
000012:                                                                                                  ##              and revision 56 includes all changes up to and including Luminary
000013:                                                                                                  ##              183. It is therefore quite close to the Apollo 14 program,
000014:                                                                                                  ##              Luminary 178, where not modified with new features.
000015:                                                                                                  ## Reference:   pp. 28-37
000016:                                                                                                  ## Assembler:   yaYUL
000017:                                                                                                  ## Contact:     Ron Burkey <info@sandroid.org>.
000018:                                                                                                  ## Website:     www.ibiblio.org/apollo/index.html
000019:                                                                                                  ## Mod history: 2017-07-28 MAS  Created from Luminary 210.
000020:                                                                                                  ##              2017-08-12 MAS  Updated for Zerlina 56.
000021:


000023: ???????                                           COUNT    BANKSUM
000024:                                                                                                  #           MODULE 1 CONTAINS BANKS 0 THROUGH 5
000025:
000026:    4000                                           BLOCK    02
000027:    4000                        RADARFF            EQUALS
000028:    4000                        FFTAG1             EQUALS
000029:    4000                        FFTAG2             EQUALS
000030:    4000                        FFTAG3             EQUALS
000031:    4000                        FFTAG4             EQUALS
000032:    4000                        FFTAG7             EQUALS
000033:    4000                        FFTAG8             EQUALS
000034:    4000                        FFTAG9             EQUALS
000035:    4000                        FFTAG10            EQUALS
000036:    4000                        FFTAG11            EQUALS
000037:    4000                        FFTAG12            EQUALS
000038:    4000                        FFTAG13            EQUALS
000039:    4000                                           BNKSUM   02
000040:
000041:
000042:    6000                                           BLOCK    03
000043:    6000                        FFSERV             EQUALS
000044:    6000                        FFTAG5             EQUALS
000045:    6000                        FFTAG6             EQUALS
000046:    6000                                           BNKSUM   03
000047:
000048:
000049: 00,2000                                           BANK     00
000050: 00,2000                        DLAYJOB            EQUALS
000051: 00,2000                                           BNKSUM   00
000052:
000053:
000054: 01,2000                                           BANK     01
000055: 01,2000                        RESTART            EQUALS
000056: 01,2000                        LOADDAP1           EQUALS
000057: 01,2000                                           BNKSUM   01
000058:
000059:
000060: 04,2000                                           BANK     04
000061: 04,2000                        ORBITAL3           EQUALS
000062: 04,2000                        R02                EQUALS
000063: 04,2000                        VERB37             EQUALS
000064: 04,2000                        PINBALL4           EQUALS
000065: 04,2000                        CONICS1            EQUALS
000066: 04,2000                        KEYRUPT            EQUALS
000067: 04,2000                        R36LM              EQUALS
000068: 04,2000                        UPDATE2            EQUALS
000069: 04,2000                        E/PROG             EQUALS


000071: 04,2000                        AOTMARK2           EQUALS
000072: 04,2000                                           BNKSUM   04
000073:
000074:
000075: 05,2000                                           BANK     05
000076: 05,2000                        FRANDRES           EQUALS
000077: 05,2000                        DOWNTELM           EQUALS
000078: 05,2000                        ABORTS1            EQUALS
000079: 05,2000                        EPHEM1             EQUALS
000080: 05,2000                        ASENT3             EQUALS
000081: 05,2000                                           BNKSUM   05
000082:
000083:
000084:                                                                                                  #           MODULE 2 CONTAINS BANKS 6 THROUGH 13
000085:
000086: 06,2000                                           BANK     06
000087: 06,2000                        IMUCOMP            EQUALS
000088: 06,2000                        T4RUP              EQUALS
000089: 06,2000                        RCSMONT            EQUALS
000090: 06,2000                        MIDDGIM            EQUALS
000091: 06,2000                        EARTHLOC           EQUALS
000092: 06,2000                                           BNKSUM   06
000093:
000094:
000095: 07,2000                                           BANK     07
000096: 07,2000                        AOTMARK1           EQUALS
000097: 07,2000                        MODESW             EQUALS
000098: 07,2000                        ASENT2             EQUALS
000099: 07,2000                                           BNKSUM   07
000100:
000101:
000102: 10,2000                                           BANK     10
000103: 10,2000                        RTBCODES           EQUALS
000104: 10,2000                        DISPLAYS           EQUALS
000105: 10,2000                        PHASETAB           EQUALS
000106: 10,2000                        FLESHLOC           EQUALS
000107: 10,2000                        SLCTMU             EQUALS
000108: 10,2000                                           BNKSUM   10
000109:
000110:
000111: 11,2000                                           BANK     11
000112: 11,2000                        ORBITAL            EQUALS
000113: 11,2000                        F2DPS*11           EQUALS
000114: 11,2000                        INTVEL             EQUALS
000115: 11,2000                                           BNKSUM   11
000116:
000117:


000119: 12,2000                                           BANK     12
000120: 12,2000                        CONICS             EQUALS
000121: 12,2000                        ORBITAL1           EQUALS
000122: 12,2000                        INTPRET2           EQUALS
000123: 12,2000                                           BNKSUM   12
000124:
000125:
000126: 13,2000                                           BANK     13
000127: 13,2000                        LATLONG            EQUALS
000128: 13,2000                        INTINIT            EQUALS
000129: 13,2000                        LEMGEOM            EQUALS
000130: 13,2000                        P76LOC             EQUALS
000131: 13,2000                        ORBITAL2           EQUALS
000132: 13,2000                        ABTFLGS            EQUALS
000133: 13,2000                                           BNKSUM   13
000134:
000135:


000137:                                                                                                  #           MODULE 3 CONTAINS BANKS 14 THROUGH 21
000138:
000139: 14,2000                                           BANK     14
000140: 14,2000                        P50S1              EQUALS
000141: 14,2000                        STARTAB            EQUALS
000142: 14,2000                        ASENT4             EQUALS
000143: 14,2000                                           BNKSUM   14
000144:
000145:
000146: 15,2000                                           BANK     15
000147: 15,2000                        P50S               EQUALS
000148: 15,2000                        EPHEM              EQUALS
000149: 15,2000                        RRLEADIN           EQUALS
000150: 15,2000                                           BNKSUM   15
000151:
000152:
000153: 16,2000                                           BANK     16
000154: 16,2000                        DAPS1              EQUALS
000155: 16,2000                                           BNKSUM   16
000156:
000157:
000158: 17,2000                                           BANK     17
000159: 17,2000                        DAPS2              EQUALS
000160: 17,2000                        C13BANK            EQUALS
000161: 17,2000                                           BNKSUM   17
000162:
000163:
000164: 20,2000                                           BANK     20
000165: 20,2000                        DAPS3              EQUALS
000166: 20,2000                        LOADDAP            EQUALS
000167: 20,2000                                           BNKSUM   20
000168:
000169:
000170: 21,2000                                           BANK     21
000171: 21,2000                        DAPS4              EQUALS
000172: 21,2000                        R10                EQUALS
000173: 21,2000                        R11                EQUALS
000174: 21,2000                                           BNKSUM   21
000175:
000176:


000178:                                                                                                  #           MODULE 4 CONTAINS BANKS 22 THROUGH 27
000179:
000180: 22,2000                                           BANK     22
000181: 22,2000                        KALCMON1           EQUALS
000182: 22,2000                        KALCMON2           EQUALS
000183: 22,2000                        R30LOC             EQUALS
000184: 22,2000                        RENDEZ             EQUALS
000185: 22,2000                        LANDCNST           EQUALS
000186: 22,2000                                           BNKSUM   22
000187:
000188:
000189: 23,2000                                           BANK     23
000190: 23,2000                        POWFLITE           EQUALS
000191: 23,2000                        POWFLIT1           EQUALS
000192: 23,2000                        INFLIGHT           EQUALS
000193: 23,2000                        APOPERI            EQUALS
000194: 23,2000                        R61                EQUALS
000195: 23,2000                        R62                EQUALS
000196: 23,2000                        INTPRET1           EQUALS
000197: 23,2000                        MEASINC            EQUALS
000198: 23,2000                        MEASINC1           EQUALS
000199: 23,2000                        EXTVB1             EQUALS
000200: 23,2000                        P12A               EQUALS
000201: 23,2000                        NORMLIZ            EQUALS
000202: 23,2000                        ASENT7             EQUALS
000203: 23,2000                        RODTRAP            EQUALS
000204: 23,2000                                           BNKSUM   23
000205:
000206:
000207: 24,2000                                           BANK     24
000208: 24,2000                        PLANTIN            EQUALS
000209: 24,2000                        P20S               EQUALS
000210: 24,2000                        S40BNK             EQUALS
000211: 24,2000                                           BNKSUM   24
000212:
000213:
000214: 25,2000                                           BANK     25
000215: 25,2000                        P20S1              EQUALS
000216: 25,2000                        P20S2              EQUALS
000217: 25,2000                        RADARUPT           EQUALS
000218: 25,2000                        DRSAMP             EQUALS
000219: 25,2000                        PLANTIN3           EQUALS
000220: 25,2000                                           BNKSUM   25
000221:
000222:


000224: 26,2000                                           BANK     26
000225: 26,2000                        P20S3              EQUALS
000226: 26,2000                        BAWLANGS           EQUALS
000227: 26,2000                        MANUVER            EQUALS
000228: 26,2000                        MANUVER1           EQUALS
000229: 26,2000                        PLANTIN1           EQUALS
000230: 26,2000                        PLANTIN2           EQUALS
000231: 26,2000                                           BNKSUM   26
000232:
000233:
000234: 27,2000                                           BANK     27
000235: 27,2000                        TOF-FF             EQUALS
000236: 27,2000                        TOF-FF1            EQUALS
000237: 27,2000                        P40S1              EQUALS
000238: 27,2000                        VECPT              EQUALS
000239: 27,2000                        ASENT1             EQUALS
000240: 27,2000                                           BNKSUM   27
000241:
000242:


000244:                                                                                                  #           MODULE 5 CONTAINS BANKS 30 THROUGH 35
000245:
000246: 30,2000                                           BANK     30
000247: 30,2000                        LOWSUPER           EQUALS
000248: 30,2000                        P12                EQUALS
000249: 30,2000                        ASENT              EQUALS
000250: 30,2000                        FCDUW              EQUALS
000251: 30,2000                        FLOGSUB            EQUALS
000252: 30,2000                        VB67A              EQUALS
000253: 30,2000                        ASENT5             EQUALS
000254: 30,2000                                           BNKSUM   30
000255:
000256:
000257: 31,2000                                           BANK     31
000258: 31,2000                        FTHROT             EQUALS
000259: 31,2000                        F2DPS*31           EQUALS
000260: 31,2000                        VB67               EQUALS
000261: 31,2000                                           BNKSUM   31
000262:
000263:
000264: 32,2000                                           BANK     32
000265: 32,2000                        F2DPS*32           EQUALS
000266: 32,2000                        ABORTS             EQUALS
000267: 32,2000                        LRS22              EQUALS
000268: 32,2000                        P66LOC             EQUALS
000269: 32,2000                        R47                EQUALS
000270: 32,2000                        P40S4              EQUALS
000271: 32,2000                                           BNKSUM   32
000272:
000273:
000274: 33,2000                                           BANK     33
000275: 33,2000                        SERVICES           EQUALS
000276: 33,2000                        R29/SERV           EQUALS
000277: 33,2000                        ASENT6             EQUALS
000278: 33,2000                                           BNKSUM   33
000279:
000280:
000281: 34,2000                                           BANK     34
000282: 34,2000                        ASENT8             EQUALS
000283: 34,2000                        P30S1              EQUALS
000284: 34,2000                        CSI/CDH1           EQUALS
000285: 34,2000                        ASCFILT            EQUALS
000286: 34,2000                        R12STUFF           EQUALS
000287: 34,2000                        SERV1              EQUALS
000288: 34,2000                        F2DPS*34           EQUALS
000289: 34,2000                                           BNKSUM   34
000290:
000291:


000293: 35,2000                                           BANK     35
000294: 35,2000                        CSI/CDH            EQUALS
000295: 35,2000                        P30S               EQUALS
000296: 35,2000                        P40S3              EQUALS
000297: 35,2000                        P40S2              EQUALS
000298: 35,2000                                           BNKSUM   35
000299:
000300:


000302:                                                                                                  #           MODULE 6 CONTAINS BANKS 36 THROUGH 43
000303:
000304: 36,2000                                           BANK     36
000305: 36,2000                        P40S               EQUALS
000306: 36,2000                                           BNKSUM   36
000307:
000308:
000309: 37,2000                                           BANK     37
000310: 37,2000                        P05P06             EQUALS
000311: 37,2000                        P20S4              EQUALS
000312: 37,2000                        IMU2               EQUALS
000313: 37,2000                        IMU4               EQUALS
000314: 37,2000                        R31                EQUALS
000315: 37,2000                        IMUSUPER           EQUALS
000316: 37,2000                        SERV2              EQUALS
000317: 37,2000                                           BNKSUM   37
000318:
000319:
000320: 40,2000                                           BANK     40
000321: 40,2000                        PINBALL1           EQUALS
000322: 40,2000                        SELFSUPR           EQUALS
000323: 40,2000                        PINSUPER           EQUALS
000324: 40,2000                        R31LOC             EQUALS
000325: 40,2000                                           BNKSUM   40
000326:
000327:
000328: 41,2000                                           BANK     41
000329: 41,2000                        PINBALL2           EQUALS
000330: 41,2000                                           BNKSUM   41
000331:
000332:
000333: 42,2000                                           BANK     42
000334: 42,2000                        SBAND              EQUALS
000335: 42,2000                        PINBALL3           EQUALS
000336: 42,2000                                           BNKSUM   42
000337:
000338:
000339: 43,2000                                           BANK     43
000340: 43,2000                        EXTVERBS           EQUALS
000341: 43,2000                        SELFCHEC           EQUALS
000342:
000343: 43,2000                                           BNKSUM   43
000344:
000345:


000347: 43,2000  23,2517               HI6ZEROS           EQUALS   ZEROVECS                              #  ZERO VECTOR ALWAYS IN HIGH MEMORY
000348: 43,2000  12,2006               LO6ZEROS           EQUALS   ZEROVEC                               #  ZERO VECTOR ALWAYS IN LOW MEMORY
000349: 43,2000  23,2515               HIDPHALF           EQUALS   UNITX
000350: 43,2000  12,2004               LODPHALF           EQUALS   XUNIT
000351: 43,2000  23,2507               HIDP1/4            EQUALS   DP1/4TH
000352: 43,2000  04,3010               LODP1/4            EQUALS   D1/4                                  #  2DEC .25
000353: 43,2000  23,2515               HIUNITX            EQUALS   UNITX
000354: 43,2000  23,2513               HIUNITY            EQUALS   UNITY
000355: 43,2000  23,2511               HIUNITZ            EQUALS   UNITZ
000356: 43,2000  12,2004               LOUNITX            EQUALS   XUNIT                                 #  2DEC .5
000357: 43,2000  12,2002               LOUNITY            EQUALS   YUNIT                                 #  2DEC 0
000358: 43,2000  12,2000               LOUNITZ            EQUALS   ZUNIT                                 #  2DEC 0
000359:
000360:
000361:
000362: 43,2000  22,3541               DELRSPL            EQUALS   SPLRET                                #  COL PGM, ALSO CALLED BY R30 IN LUMINARY
000363:                                                                                                  #  ROPE-SPECIFIC ASSIGNS OBVIATING NEED TO CHECK COMPUTER FLAG IN         DETERMINING INTEGRATION AREA ENTRIES.
000364:
000365: 43,2000  13,2733               ATOPTHIS           EQUALS   ATOPLEM
000366: 43,2000  13,2660               ATOPOTH            EQUALS   ATOPCSM
000367: 43,2000  13,3042               OTHPREC            EQUALS   CSMPREC
000368: 43,2000  0000174               MOONTHIS           EQUALS   LMOONFLG
000369: 43,2000  0000173               MOONOTH            EQUALS   CMOONFLG
000370: 43,2000  13,2746               MOVATHIS           EQUALS   MOVEALEM
000371: 43,2000  12,2017               RMM                =        LODPMAX
000372: 43,2000  12,2021               RME                =        LODPMAX1
000373: 43,2000  13,3056               THISPREC           EQUALS   LEMPREC
000374: 43,2000  23,2511               THISAXIS           =        UNITZ
000375: 43,2000  23,2511               NB1NB2             EQUALS   THISAXIS                              #  FOR R31
000376: 43,2000     5011               ERASID             EQUALS   BITS2-10                              #  DOWNLINK ERASABLE DUMP ID
000377: 43,2000     4752               DELAYNUM           EQUALS   TWO

End of include-file TAGS_FOR_RELATIVE_SETLOC_AND_BLANK_BANK_CARDS.agc.  Parent file is MAIN.agc


