
Source Code


000002:                                                                                                  ## Copyright:   Public domain.
000003:                                                                                                  ## Filename:    THROTTLE_CONTROL_ROUTINES.agc
000004:                                                                                                  ## Purpose:     A log section of Zerlina 56, the final revision of
000005:                                                                                                  ##              Don Eyles's offline development program for the variable
000006:                                                                                                  ##              guidance period servicer. It also includes a new P66 with LPD
000007:                                                                                                  ##              (Landing Point Designator) capability, based on an idea of John
000008:                                                                                                  ##              Young's. Neither of these advanced features were actually flown,
000009:                                                                                                  ##              but Zerlina was also the birthplace of other big improvements to
000010:                                                                                                  ##              Luminary including the terrain model and new (Luminary 1E)
000011:                                                                                                  ##              analog display programs. Zerlina was branched off of Luminary 145,
000012:                                                                                                  ##              and revision 56 includes all changes up to and including Luminary
000013:                                                                                                  ##              183. It is therefore quite close to the Apollo 14 program,
000014:                                                                                                  ##              Luminary 178, where not modified with new features.
000015:                                                                                                  ## Reference:   pp. 779-783
000016:                                                                                                  ## Assembler:   yaYUL
000017:                                                                                                  ## Contact:     Ron Burkey <info@sandroid.org>.
000018:                                                                                                  ## Website:     www.ibiblio.org/apollo/index.html
000019:                                                                                                  ## Mod history: 2017-07-28 MAS  Created from Luminary 210.
000020:                                                                                                  ##              2017-08-19 MAS  Updated for Zerlina 56.
000021:                                                                                                  ##              2017-08-24 MAS  Corrected some instructions related to storing to PIF.
000022:


000024:                                                                                                  #  T  *  *  *  *  *  *  *  *  *  *  *  *  *  *  *  *  *  *  *  *  *  *  *  *  *  *  *  *  *  *  *  *  *  *  E
000025:                                                                                                  #   H  *  *  *  *  *  *  *  *  *  *  *  *  *  *  *  *  *  *  *  *  *  *  *  *  *  *  *  *  *  *  *  *  *  *  Y
000026:                                                                                                  #    R  *  *  *  *  *  *  *  *  *  *  *  *  *  *  *  *  *  *  *  *  *  *  *  *  *  *  *  *  *  *  *  *  *  *  L
000027:                                                                                                  #     O  *  *  *  *  *  *  *  *  *  *  *  *  *  *  *  *  *  *  *  *  *  *  *  *  *  *  *  *  *  *  *  *  *  *  E
000028:                                                                                                  #      T  *  *  *  *  *  *  *  *  *  *  *  *  *  *  *  *  *  *  *  *  *  *  *  *  *  *  *  *  *  *  *  *  *  *  S
000029:
000030: 31,2000                                           SETLOC   FTHROT
000031: 31,2000                                           BANK
000032: 31,2144                                           COUNT*   $$/THROT
000033: 31,2144  E7,1612                                  EBANK=   PIF
000034:
000035:                                                                                                  #      ENTER HERE FROM P66ROD WITH PIF IN A.
000036:
000037: 31,2144           00006        P66THROT           EXTEND
000038: 31,2145           23607                           QXCH     RTNHOLD
000039: 31,2146           55612                           TS       PIF
000040: 31,2147           12250                           TCF      DOITP66
000041:
000042:                                                                                                  #      ENTER HERE IN P63 AND P64.  FIRST COMPUTE FP (PRESENT THRUST) AND FC (DESIRED THRUST) IN OUTPUT BIT UNITS.
000043:
000044: 31,2150           31247        THROTTLE           CA       ABDELV                                #  COMPUTE PRESENT ACCELERATION IN UNITS OF
000045: 31,2151           00006                           EXTEND                                         #    2(-4) M/CS/CS, SAVING SERVICER TROUBLE
000046: 31,2152           72356                           MP       /AF/CNST
000047: 31,2153           00006                           EXTEND
000048: 31,2154           23607                           QXCH     RTNHOLD
000049: 31,2155           02337        AFDUMP             TC       MASSMULT
000050: 31,2156           53470                           DXCH     FP                                    #  FP = PRESENT THRUST
000051: 31,2157           00006                           EXTEND
000052: 31,2160           31611                           DCA      FWEIGHT
000053: 31,2161           21470                           DAS      FP
000054: 31,2162           53470                           DXCH     FP
000055: 31,2163           00006                           EXTEND
000056: 31,2164           75000                           MP       2SECS
000057: 31,2165           00006                           EXTEND
000058: 31,2166           11243                           DV       PGUIDE
000059: 31,2167           55467                           TS       FP
000060:
000061: 31,2170           00006                           EXTEND
000062: 31,2171           31464                           DCA      /AFC/
000063: 31,2172           02337                           TC       MASSMULT
000064: 31,2173           00004                           INHINT                                         #  PREVENT A DOWNRUPT
000065: 31,2174           55615                           TS       FC                                    #  FC = THRUST DESIRED BY GUIDANCE
000066: 31,2175           53466                           DXCH     FCODD                                 #  FCODD = WHAT IT IS GOING TO GET
000067:
000068:
000069: 31,2176           00006                           EXTEND
000070: 31,2177           31234                           DCA      PIPTIME
000071: 31,2200           53671                           DXCH     GTCTIME                               #  DOWNLINK TIME AGREEMENT
000072: 31,2201           00003                           RELINT
000073:


000075:                                                                                                  #      THIS LOGIC DETERMINES THE THROTTLING IN THE REGION 10% - 94%.   THE MANUAL THROTTLE, NOMINALLY SET AT
000076:                                                                                                  #  MINIMUM BY THE ASTRONAUT, PROVIDES THE LOWER BOUND.   A STOP IN THE THROTTLE HARDWARE PROVIDES THE UPPER.
000077:
000078: 31,2202           35014        WHERETO            CA       EBANK5                                #  INITIALIZE L*WCR*T AND H*GHCR*T FROM
000079: 31,2203           54003                           TS       EBANK                                 #    PAD LOADED ERASABLES IN W-MATRIX
000080: 31,2204  E5,1472                                  EBANK=   LOWCRIT
000081: 31,2204           00006                           EXTEND
000082: 31,2205           31473                           DCA      LOWCRIT
000083: 31,2206           52131                           DXCH     L*WCR*T
000084: 31,2207           35016                           CA       EBANK7
000085: 31,2210           54003                           TS       EBANK
000086: 31,2211  E7,1612                                  EBANK=   PIF
000087: 31,2211           44755                           CS       ZERO                                  #  INITIALIZE PIFPSET
000088: 31,2212           55606                           TS       PIFPSET
000089: 31,2213           40131                           CS       H*GHCR*T
000090: 31,2214           61620                           AD       FCOLD
000091: 31,2215           00006                           EXTEND
000092: 31,2216           62230                           BZMF     LOWFCOLD                              #  BRANCH IF FCOLD < OR = HIGHCRIT
000093: 31,2217           40130                           CS       L*WCR*T
000094: 31,2220           61465                           AD       FCODD
000095: 31,2221           00006                           EXTEND
000096: 31,2222           62225                           BZMF     FCOMPSET                              #  BRANCH IF FC < OR = LOWCRIT
000097: 31,2223           31467                           CA       FP                                    #  SEE NOTE 1
000098: 31,2224           12235                           TCF      FLATOUT1
000099:
000100: 31,2225           42002        FCOMPSET           CS       FMAXODD                               #  SEE NOTE 2
000101: 31,2226           61467                           AD       FP
000102: 31,2227           12237                           TCF      FLATOUT2
000103:
000104: 31,2230           40131        LOWFCOLD           CS       H*GHCR*T
000105: 31,2231           61465                           AD       FCODD
000106: 31,2232           00006                           EXTEND
000107: 31,2233           62240                           BZMF     DOPIF                                 #  BRANCH IF FC < OR = HIGHCRIT
000108:
000109: 31,2234           32003                           CA       FMAXPOS                               #  NO:   THROTTLE-UP
000110: 31,2235           57465        FLATOUT1           XCH      FCODD
000111: 31,2236           34737                           CA       FEXTRA
000112: 31,2237           55606        FLATOUT2           TS       PIFPSET
000113:
000114:                                                                                                  #                                          NOTE 1   FC IS SET EQUAL TO FP SO PIF WILL BE ZERO.   THIS IS DESIRABLE
000115:                                                                                                  #                                                   AS THERE IS ACTUALLY NO THROTTLE CHANGE.
000116:
000117:                                                                                                  #                                          NOTE 2   HERE, SINCE WE ARE ABOUT TO RETURN TO THE THROTTLEABLE REGION
000118:                                                                                                  #                                                   (BELOW 55%) THE QUANTITY -(FMAXODD - FP) IS COMPUTED AND PUT
000119:                                                                                                  #                                                   INTO PIFPSET TO COMPENSATE FOR THE DIFFERENCE BETWEEN THE
000120:                                                                                                  #                                                   NUMBER OF BITS CORRESPONDING TO FULL THROTTLE (FMAXODD) AND THE
000121:                                                                                                  #                                                   NUMBER CORRESPONDING TO ACTUAL THRUST (FP).   THUS THE TOTAL
000122:                                                                                                  #                                                   THROTTLE COMMAND PIF = FC - FP -(FMAXODD - FP) = FC - FMAXODD.
000123:
000124: 31,2240           41467        DOPIF              CS       FP                                    #  COMPUTE PIF AND LIMIT IT TO 4096 BITS


000126: 31,2241           61465                           AD       FCODD                                 #    SO FWEIGHT COMPUTATION CAN'T OVERFLOW
000127: 31,2242           54001                           TS       L
000128: 31,2243           34737                           CAF      BIT13
000129: 31,2244           04616                           TC       BANKCALL
000130: 31,2245           61713                           CADR     LIMITSUB
000131:
000132: 31,2246           55612        DOIT               TS       PIF
000133: 31,2247           61606                           AD       PIFPSET                               #  ADD IN PIFPSET, WITHOUT CHANGING PIF
000134: 31,2250           57606        DOITP66            XCH      PIFPSET                               #  STASH IT IN PIFPSET FOR A MOMENT
000135: 31,2251           34742                           CAF      BIT10                                 #  DOES PGNCS HAVE CONTROL?
000136: 31,2252           00006                           EXTEND
000137: 31,2253           02030                           RAND     CHAN30
000138: 31,2254           10000                           CCS      A
000139: 31,2255           12332                           TCF      ZILCH                                 #  NO:   AGS, DARN IT, ZERO AUTO-THROTTLE
000140: 31,2256           31606                           CA       PIFPSET                               #  YES:  RETRIEVE OUTPUT AND PRESS ON
000141: 31,2257           55614        THROTOUT           TS       PSEUDO55
000142: 31,2260           54055                           TS       THRUST
000143: 31,2261           34750                           CAF      BIT4
000144: 31,2262           00006                           EXTEND
000145: 31,2263           05014                           WOR      CHAN14
000146:
000147:                                                                                                  #      SINCE /AF/ IS NOT AN INSTANTANEOUS ACCELERATION, BUT RATHER AN "AVERAGE" OF THE ACCELERATION LEVELS DURING
000148:                                                                                                  #  THE PRECEEDING PIPA INTERVAL, AND SINCE FP IS COMPUTED DIRECTLY FROM /AF/, FP IN ORDER TO CORRESPOND TO THE
000149:                                                                                                  #  ACTUAL THRUST LEVEL AT THE END OF THE INTERVAL MUST BE WEIGHTED BY
000150:
000151:                                                                                                  #                                    PIF(PPROCESS + TL)     PIF /PIF/
000152:                                                                                                  #                          FWEIGHT = ------------------ + -------------
000153:                                                                                                  #                                          PGUID          2 PGUID FRATE
000154:
000155:                                                                                                  #  WHERE PPROCESS IS THE TIME BETWEEN PIPA READING AND THE START OF THROTTLING, PGUID IS THE GUIDANCE PERIOD, AND
000156:                                                                                                  #  FRATE IS THE THROTTLING RATE (32 UNITS PER CENTISECOND).  PGUID IS EITHER 1 OR 2 SECONDS. THE "TL" IN THE
000157:                                                                                                  #  FIRST TERM REPRESENTS THE ENGINE'S RESPONSE LAG.   HERE FWEIGHT IS COMPUTED FOR USE NEXT PASS.
000158:
000159: 31,2264           32360                           CAF      8SECS
000160: 31,2265           54002                           TS       Q
000161: 31,2266           00006                           EXTEND
000162: 31,2267           74747                           MP       BIT5
000163: 31,2270           22131                           LXCH     BUF        +1
000164: 31,2271           41671                           CS       GTCTIME    +1                         #  TIME AT LAST PIPA READING.
000165: 31,2272           60025                           AD       TIME1


000167: 31,2273           62004                           AD       THROTLAG                              #  COMPENSATE FOR ENGINE RESPONSE LAG
000168: 31,2274           75004                           MASK     LOW9                                  #  MAKE SURE SMALL AND POSITIVE
000169: 31,2275           22007                           ZL
000170: 31,2276           00006                           EXTEND
000171: 31,2277           10002                           DV       Q
000172: 31,2300           00006                           EXTEND
000173: 31,2301           71612                           MP       PIF
000174: 31,2302           20001                           DDOUBL
000175: 31,2303           20001                           DDOUBL
000176: 31,2304           53617                           DXCH     FWEIGHT1


000178: 31,2305           11612                           CCS      PIF
000179: 31,2306           64753                           AD       ONE
000180: 31,2307           12311                           TCF      +2
000181: 31,2310           64753                           AD       ONE
000182: 31,2311           00006                           EXTEND
000183: 31,2312           71612                           MP       PIF
000184: 31,2313           00006                           EXTEND
000185: 31,2314           10131                           DV       BUF        +1
000186: 31,2315           27616                           ADS      FWEIGHT1
000187:                                                                                                  #      COMPUTE DESIRED THRUST FOR DISPLAY AS A PERCENTAGE OF 10500 POUNDS.
000188:
000189: 31,2316           31615                           CA       FC
000190: 31,2317           00006                           EXTEND
000191: 31,2320           72357                           MP       100/3727
000192: 31,2321           55672                           TS       THRDISP                               #  FOR DISPLAY IN  N92
000193:
000194: 31,2322           01607        THDUMP             TC       RTNHOLD
000195:
000196:
000197:                                                                                                  #      FLATOUT THROTTLES UP THE DESCENT ENGINE, AND IS CALLED AS A BASIC SUBROUTINE.
000198:
000199: 31,2323           34737        FLATOUT            CAF      BIT13                                 #  4096 PULSES
000200: 31,2324           55606        WHATOUT            TS       PIFPSET                               #  USE PIFPSET SO FWEIGHT WILL BE ZERO
000201: 31,2325           44755                           CS       ZERO
000202: 31,2326           55620                           TS       FCOLD
000203: 31,2327           00006                           EXTEND
000204: 31,2330           23607                           QXCH     RTNHOLD
000205: 31,2331           12246                           TCF      DOIT
000206:
000207:
000208:                                                                                                  #      DO WHAT HAS TO BE DONE WHEN AGS HAS CONTROL.
000209:
000210: 31,2332           44755        ZILCH              CS       ZERO                                  #  COME HERE WHEN IN AGS TO ZERO THE AUTO-
000211: 31,2333           55612                           TS       PIF                                   #    THROTTLE.  FIRST SET PIF AND FC SO THE
000212: 31,2334           55615                           TS       FC                                    #    FWEIGHT AND N92 DISPLAY COMPUTATIONS
000213: 31,2335           44737                           CS       FEXTRA                                #    WILL COME OUT RIGHTER.  THEN GRAB A
000214: 31,2336           12257                           TCF      THROTOUT                              #    BATCH OF NEG BITS AND RETURN.
000215:
000216:                                                                                                  #      MASSMULT SCALES ACCELERATION, ARRIVING IN A AND L IN UNITS OF 2(-4) M/CS/CS, TO FORCE IN PULSE UNITS.
000217:
000218: 31,2337           52155        MASSMULT           DXCH     MPAC
000219: 31,2340           00006                 +1        EXTEND
000220: 31,2341           22130                           QXCH     BUF
000221: 31,2342           07115                           TC       DMP
000222: 31,2343           01245                           ADRES    MASS
000223: 31,2344           07115                           TC       DMP                                   #  LEAVES PROPERLY SCALED FORCE IM MPAC
000224: 31,2345           02005                           ADRES    SCALEFAC
000225: 31,2346           07271                           TC       TPAGREE
000226: 31,2347           30154                           CA       MPAC
000227: 31,2350           00006                           EXTEND


000229: 31,2351           12354                           BZF      +3
000230: 31,2352           34733                           CAF      POSMAX
000231: 31,2353           00130                           TC       BUF
000232: 31,2354           52156                           DXCH     MPAC       +1
000233: 31,2355           00130                           TC       BUF
000234:
000235:
000236:                                                                                                  #            CONSTANTS:-
000237:
000238: 31,2356     4737               FEXTRA             =        BIT13                                 #  FEXT        +5.13309020 E+4
000239:
000240: 31,2356           04143        /AF/CNST           DEC      .13107
000241:
000242: 31,2357           00670        100/3727           DEC      .02683
000243:
000244: 31,2360           01440        8SECS              DEC      +800       B-14
000245:
000246:                                                                                                  #  *  *  *  *  *  *  *  *  *  *  *  *  *  *  *  *  *  *  *  *  *  *  *  *  *  *  *  *  *  *  *  *  *  *  *  *  *
000247:                                                                                                  #   *  *  *  *  *  *  *  *  *  *  *  *  *  *  *  *  *  *  *  *  *  *  *  *  *  *  *  *  *  *  *  *  *  *  *  *  *
000248:                                                                                                  #    *  *  *  *  *  *  *  *  *  *  *  *  *  *  *  *  *  *  *  *  *  *  *  *
000249:
000250:                                                                                                  #    *  *  *  *  *  *  *  *  *  *  *  *  *

End of include-file THROTTLE_CONTROL_ROUTINES.agc.  Parent file is MAIN.agc


