
Source Code


000002:                                                                                                  ## Copyright:   Public domain.
000003:                                                                                                  ## Filename:    TIME_OF_FREE_FALL.agc
000004:                                                                                                  ## Purpose:     A log section of Zerlina 56, the final revision of
000005:                                                                                                  ##              Don Eyles's offline development program for the variable
000006:                                                                                                  ##              guidance period servicer. It also includes a new P66 with LPD
000007:                                                                                                  ##              (Landing Point Designator) capability, based on an idea of John
000008:                                                                                                  ##              Young's. Neither of these advanced features were actually flown,
000009:                                                                                                  ##              but Zerlina was also the birthplace of other big improvements to
000010:                                                                                                  ##              Luminary including the terrain model and new (Luminary 1E)
000011:                                                                                                  ##              analog display programs. Zerlina was branched off of Luminary 145,
000012:                                                                                                  ##              and revision 56 includes all changes up to and including Luminary
000013:                                                                                                  ##              183. It is therefore quite close to the Apollo 14 program,
000014:                                                                                                  ##              Luminary 178, where not modified with new features.
000015:                                                                                                  ## Reference:   pp. 1257-1272
000016:                                                                                                  ## Assembler:   yaYUL
000017:                                                                                                  ## Contact:     Ron Burkey <info@sandroid.org>.
000018:                                                                                                  ## Website:     www.ibiblio.org/apollo/index.html
000019:                                                                                                  ## Mod history: 2017-07-28 MAS  Created from Luminary 210.
000020:                                                                                                  ##              2017-08-29 RSB  Transcribed.
000021:


000023:                                                                                                  #           THE TFF SUBROUTINES MAY BE USED IN EITHER EARTH OR MOON CENTERED COORDINATES. THE TFF ROUTINES NEVER
000024:                                                                                                  #  KNOW WHICH ORIGIN APPLIES. IT IS THE USER WHO KNOWS, AND WHO SUPPLIES  RONE, VONE AND 1/SQRT(MU)  AT THE
000025:                                                                                                  #  APPROPRIATE SCALE LEVEL FOR THE PROPER PRIMARY BODY.
000026:
000027:                                                                                                  #           EARTH ORIGIN           POSITION      -29       METERS
000028:                                                                                                  #                                  VELOCITY      -7        METERS/CENTISECOND
000029:                                                                                                  #                                  1/SQRT(MU)    +17       SQRT(CS SQ/METERS CUBED)
000030:
000031:                                                                                                  #           MOON ORIGIN            POSITION      -27       METERS
000032:                                                                                                  #                                  VELOCITY      -5        METERS/CENTISECONDS
000033:                                                                                                  #                                  1/SQRT(MU)    +14       SQRT(CS SQ/METERS CUBED)
000034:
000035:                                                                                                  #  ALL DATA PROVIDED TO AND RECEIVED FROM ANY TFF SUBROUTINE WILL BE AT ONE OF THE LEVELS ABOVE. IN ALL CASES,
000036:                                                                                                  #  THE FREE FALL TIME IS RETURNED IN CENTISECONDS AT (-28). PROGRAM  TFF/CONIC  WILL GENERATE VONE/RTMU  AND
000037:                                                                                                  #  LEAVE IT IN  VONE' AT (+10) IF EARTH ORIGIN AND (+9) IF MOON ORIGIN.
000038:                                                                                                  #           THE USER MUST STORE THE STATE VECTOR IN  RONE, VONE  AND MU IN  THE FORM 1/SQRT(MU) IN  TFF/RTMU
000039:                                                                                                  #  AT THE PROPER SCALE BEFORE CALLING  TFF/CONIC. SINCE  RONE, VONE  ARE IN THE EXTENDED VERB STORAGE AREA,
000040:                                                                                                  #  THE USER MUST ALSO LOCK OUT THE EXTENDED VERBS, AND RELEASE THEM WHEN FINISHED.
000041:                                                                                                  #           PROGRAMS     CALC/TFF  AND  CALC/TPER  ASSUME THAT THE TERMINAL RADIUS IS LESS THAN THE PRESENT
000042:                                                                                                  #  RADIUS. THIS RESTRICTION CAN BE REMOVED BY A  15 W CODING CHANGE, BUT AT PRESENT IT IS NOT DEEMED NECESSARY.
000043:
000044:                                                                                                  #           THE FOLLOWING ERASABLE QUANTITIES ARE USED BY THE TFF ROUTINES, AND ARE LOCATED IN THE PUSH LIST.
000045:
000046:                                                                                                  #  BELOW      E:   IS USED FOR EARTH ORIGIN SCALE
000047:                                                                                                  #             M:   IS USED FOR MOON  ORIGIN SCALE
000048:
000049:                                                                                                  # TFFSW          =       119D       BIT1      0 = CALCTFF        1 = CALCTPER
000050: 10,2213                        TFFDELQ            =        10D                                   #             Q2-Q1              E: (-16)  M: (-15)
000051: 10,2213                        RMAG1              =        12D                                   #             ABVAL(RN)  M       E: (-29)  M: (-27)
000052:                                                                                                  # RPER           =       14D                  PERIGEE RADIUS M   E: (-29)  M: (-27)
000053: 10,2213                        TFFQ1              =        14D                                   #             R.V / SQRT(MUE)    E: (-16)  M: (-15)
000054:                                                                                                  # SDELF/2                                     SIN(THETA) /2
000055: 10,2213                        CDELF/2            =        14D                                   #             COS(THETA) /2
000056:                                                                                                  # RAPO           =       16D                  APOGEE RADIUS  M   E: (-29)  M: (-27)
000057: 10,2213                        NRTERM             =        16D                                   #             TERMINAL RADIUS M  E: (-29+NR)
000058:                                                                                                  #                                M: (-27+NR)
000059: 10,2213                        RTERM              =        18D                                   #             TERMINAL RADIUS M  E: (-29)  M: (-27)
000060: 10,2213                        TFFVSQ             =        20D                                   #             -(V SQUARED/MU)  1/M  E: (20)  M: (18)
000061: 10,2213                        TFF1/ALF           =        22D                                   #             SEMI MAJ AXIS  M  E: (-22-2 NA)
000062:                                                                                                  #                               M: (-20-2 NA)
000063: 10,2213                        TFFRTALF           =        24D                                   #             SQRT(ALFA)  E: (10+NA)  M: (9+NA)
000064: 10,2213                        TFFALFA            =        26D                                   #             ALFA  1/M   E: (26-NR)  M: (24-NR)
000065: 10,2213                        TFFNP              =        28D                                   #             SEMI LATUS RECTUM  M  E: (-38+2 NR)
000066:                                                                                                  #                                   M: (-36+2 NR)
000067: 10,2213                        TFF/RTMU           =        30D                                   #             1/SQRT(MU)         E: (17)   M: (14)
000068: 10,2213                        NRMAG              =        32D                                   #             PRESENT RADIUS  M  E: (-29+NR)
000069:                                                                                                  #                                M: (-27+NR)
000070: 10,2213                        TFFX               =        34D
000071: 10,2213                        TFFTEM             =        36D                                   #             TEMPORARY
000072:


000074:                                                                                                  #                                           REGISTERS S1, S2 ARE UNTOUCHED BY ANY TFF SUBROUTINE
000075:                                                                                                  #                                           INDEX REGISTERS X1, X2 ARE USED BY ALL TFF SUBROUTINES. THEY ARE ESTAB-
000076:                                                                                                  #                                           LISHED IN TFF/CONIC AND MUST BE PRESERVED BETWEEN CALLS TO SUBSEQUENT
000077:                                                                                                  #                                           SUBROUTINES.
000078:                                                                                                  #                                           -NR                             C(X1) = NORM COUNT OF RMAG
000079:                                                                                                  #                                           -NA                             C(X2)= NORM COUNT OF SQRT(ABS(ALFA))
000080:


000082:
000083:
000084:                                                                                                  #  SUBROUTINE NAME:     TFFCONIC                                           DATE:    01.29.67
000085:                                                                                                  #  MOD NO:  0                                                              LOG SECTION:    TIME OF FREE FALL
000086:                                                                                                  #  MOD BY:  RR BAIRNSFATHER
000087:                                                                                                  #  MOD NO:  1           MOD BY:  RR BAIRNSFATHER      DATE:  11 APR 67
000088:                                                                                                  #  MOD NO:  2           MOD BY:  RR BAIRNSFATHER      DATE:  21 NOV 67     ADD MOON MU.
000089:                                                                                                  #  MOD NO:  3           MOD BY:  RR BAIRNSFATHER      DATE:  21 MAR 68     ACCEPT DIFFERENT EARTH/MOON SCALES
000090:                                                                                                  #  FUNCTIONAL DESCRIPTION:      THIS SUBROUTINE IS CALLED TO COMPUTE THOSE CONIC PARAMETERS REQUIRED BY THE TFF
000091:                                                                                                  #           SUBROUTINES AND TO ESTABLISH THEM IN THE PUSH LIST AREA. THE PARAMETERS ARE LISTED UNDER OUTPUT.
000092:                                                                                                  #           THE EQUATIONS ARE
000093:                                                                                                  #                  -   -  -
000094:                                                                                                  #                  H = RN*VN                                               ANGULAR MOMENTUM
000095:                                                                                                  #                        - -
000096:                                                                                                  #                  LCP = H.H / MU                                          SEMI LATUS RECTUM
000097:                                                                                                  #                                -  -
000098:                                                                                                  #                  ALFA = 2/RN - VN.VN / MU                                RECIPROCAL SEMI MAJ AXIS, SIGNED
000099:
000100:                                                                                                  #           AND ALFA IS POS FOR ELLIPTIC  ORBITS
000101:                                                                                                  #                        0  FOR PARABOLIC ORBITS
000102:                                                                                                  #                       NEG FOR HYPERBOLIC ORBITS.
000103:                                                                                                  #           SUBROUTINE ALSO COMPUTES AND SAVES  RMAG.
000104:                                                                                                  #  CALLING SEQUENCE:
000105:                                                                                                  #           TFFCONIC  EXPECTS CALLER TO ENTER WITH CORRECT GRAVITATIONAL CONSTANT IN MPAC, IN THE FORM
000106:                                                                                                  #           1/SQRT(MU). PROGRAM WILL SAVE IN  TFF/RTMU  . THE SCALE IS DETERMINED BY WHETHER EARTH OR MOON
000107:                                                                                                  #           ORIGIN IS USED.  THE CALLER MUST LOCK OUT THE EXTENDED VERBS BEFORE PROVIDING STATE VECTOR IN RONE,
000108:                                                                                                  #           VONE  AT PROPER SCALE. THE EXTENDED VERBS MUST BE RESTORED WHEN THE CALLER IS FINISHED USING THE
000109:                                                                                                  #           TFF ROUTINES.
000110:                                                                                                  #           ENTRY POINT  TFFCONMU  EXPECTS THAT  TFF/RTMU  IS ALREADY LOADED.
000111:                                                                                                  #           TO SPECIFY MU:      DLOAD  CALL                IF MU ALREADY STORED:    CALL
000112:                                                                                                  #                                      YOURMU       1/RTMU   E: (17)  M: (14)              TFFCONMU
000113:                                                                                                  #                                      TFFCONIC
000114:                                                                                                  #           PUSHLOC = PDL+0, ARBITRARY IF LEQ 18D
000115:
000116:                                                                                                  #  SUBROUTINES CALLED:  NONE
000117:                                                                                                  #  NORMAL EXIT MODES:   RVQ
000118:                                                                                                  #  ALARMS:  NONE
000119:                                                                                                  #  OUTPUT:  THE FOLLOWING ARE STORED IN THE PUSH LIST AREA.
000120:                                                                                                  #           RMAG1  E:(-29) M:(-27) M  RN, PRESENT RADIUS LENGTH.
000121:                                                                                                  #           NRMAG  E: (-29+NR)     M  RMAG, NORMALIZED
000122:                                                                                                  #                  M: (-27+NR)
000123:                                                                                                  #           X1                     -NR, NORM COUNT
000124:                                                                                                  #           TFFNP  E: (-38+2NR)    M  LCP, SEMI LATUS RECTUM, WEIGHTED BY NR.       FOR VGAMCALC
000125:                                                                                                  #                  M: (-36+2NR)
000126:                                                                                                  #           TFF/RTMU  E:(17)  M:(14)       1/SQRT(MU)
000127:                                                                                                  #           TFFVSQ E:(20)  M:(18)  1/M   -(V SQ/MU): PRESENT VELOCITY,NORMLIZED.    FOR VGAMCALC
000128:                                                                                                  #           TFFALFA  E: (26-NR)    1/M   ALFA, WEIGHTED BY NR
000129:                                                                                                  #                    M: (24-NR)
000130:                                                                                                  #           TFFRTALF  E: (10+NA)   SQRT(ALFA), NORMALIZED
000131:                                                                                                  #                     M: (9+NA)


000133:                                                                                                  #           X2                     -NA, NORM COUNT
000134:                                                                                                  #           TFF1/ALF  E: (-22-2NA) SIGNED SEMI MAJ AXIS, WEIGHTED BY NA
000135:                                                                                                  #                     M: (-20-2NA)
000136:                                                                                                  #           PUSHLOC AT PDL+0
000137:                                                                                                  #           THE FOLLOWING  IS STORED IN GENERAL ERASABLE
000138:                                                                                                  #           VONE'  E:(10)  M:(9)   V/RT(MU), NORMALIZED VELOCITY
000139:                                                                                                  #  ERASABLE INITIALIZATION REQUIRED:
000140:                                                                                                  #           RONE   E:(-29)  M:(-27)  M      STATE VECTOR                   LEFT BY CALLER
000141:                                                                                                  #           VONE   E:(-7)   M:(-5)   M/CS   STATE VECTOR                   LEFT BY CALLER
000142:                                                                                                  #           TFF/RTMU  E:(17)  M:(14)      1/RT(CS SQ/M CUBE)               IF ENTER VIA  TFFCONMU.
000143:                                                                                                  #  DEBRIS:  QPRET,    PDL+0 ... PDL+3
000144:
000145:
000146: 33,3766                                           BANK     33
000147: 27,2000                                           SETLOC   TOF-FF
000148: 27,2000                                           BANK
000149:
000150: 27,3342                                           COUNT*   $$/TFF
000151:
000152: 27,3342           00037        TFFCONIC           STORE    TFF/RTMU                              #  1/SQRT(MU)       E: (17)   M: (14)
000153:
000154: 27,3343           53575        TFFCONMU           VLOAD    UNIT                                  #  COME HERE WITH TFFRTMU LOADED.
000155: 27,3344           02200                                    RONE                                  #  SAVED RN.  M     E: (-29)  M: (-27)
000156: 27,3345           77725                           PDDL                                           #  UR/2 TO PDL+0, +5
000157: 27,3346           00045                                    36D                                   #  MAGNITUDE
000158: 27,3347           00015                           STORE    RMAG1                                 #  M    E: (-29)   M: (-27)
000159:
000160: 27,3350           77701                           NORM
000161: 27,3351           00047                                    X1                                    #  -NR
000162: 27,3352           24041                           STOVL    NRMAG                                 #  RMAG  M   E: (-29+NR)  M: (-27+NR)
000163: 27,3353           02206                                    VONE                                  #  SAVED VN.  M/CS   E: (-7)   M: (-5)
000164: 27,3354           77761                           VXSC
000165: 27,3355           00037                                    TFF/RTMU                              #  E: (17)   M: (14)
000166: 27,3356           02161                           STORE    VONE'                                 #  VN/SQRT(MU)   E: (10)   M: (9)
000167:
000168: 27,3357           47361                           VXSC     VXV
000169: 27,3360           00041                                    NRMAG                                 #  E: (-29+NR)  M: (-27+NR)
000170:                                                                                                  #  UR/2 FROM PDL
000171: 27,3361           47572                           VSL1     VSQ                                   #  BEFORE:  E:(-19+NR)  M:(-18+NR)
000172: 27,3362           14035                           STODL    TFFNP                                 #  LC P  M   E:(-38+2NR)  M:(-36+2NR)
000173:                                                                                                  #  SAVE ALSO FOR VGAMCALC
000174: 27,3363           06510                                    TFF1/4
000175: 27,3364           63271                           DDV      PDVL                                  #  (2/RMAG)  1/M   E:(26-NR)   M:(24-NR)
000176: 27,3365           00041                                    NRMAG                                 #  RMAG  M   E:(-29+NR)  M:(-27+NR)
000177: 27,3366           02161                                    VONE'                                 #  SAVED VN.   E: (10)   M: (9)
000178: 27,3367           57436                           VSQ      DCOMP                                 #  KEEP MPAC+2 HONEST FOR SQRT.
000179: 27,3370           00025                           STORE    TFFVSQ                                #  -(V SQ/MU)   E:(20)   M:(18)
000180:                                                                                                  #  SAVE FOR VGAMCALC
000181: 27,3371           43257                           SR*      DAD


000183: 27,3372           20573                                    0          -6,1                       #  GET -VSQ/MU   E:(26-NR)   M:(24-NR)
000184: 27,3373           77626                           STADR
000185:                                                                                                  #  2/RMAG   FROM PDL+2
000186: 27,3374           77744                           STORE    TFFALFA                               #  ALFA  1/M   E:(26-NR)   M:(24-NR)
000187: 27,3375           41457                           SL*      PUSH                                  #  TEMP SAVE ALFA    E:(20)   M:(18)
000188: 27,3376           20173                                    0          -6,1
000189: 27,3377           75446                           ABS      SQRT                                  #  E:(10)   M:(9)
000190: 27,3400           77701                           NORM
000191: 27,3401           00050                                    X2                                    #  X2 = -NA
000192: 27,3402           00031                           STORE    TFFRTALF                              #  SQRT( ABS(ALFA) )  E:(10+NA)   M:(9+NA)
000193: 27,3403           75316                           DSQ      SIGN                                  #  NOT SO ACCURATE, BUT OK
000194:                                                                                                  #  ALFA FROM PDL+2   E:(20)   M:(18)
000195: 27,3404           55254                           BZE      BDDV                                  #  SET 1/ALFA =0, TO SHOW SMALL ALFA
000196: 27,3405           57407                                    +2
000197: 27,3406           06510                                    TFF1/4
000198: 27,3407           00027                 +2        STORE    TFF1/ALF                              #  1/ALFA   E:(-22-2 NA)   M:(-20-2 NA)
000199: 27,3410           77616        DUMPCNIC           RVQ
000200:
000201:                                                                                                  #                          39 W
000202:


000204:                                                                                                  #  SUBROUTINE NAME:     TFFRP/RA                                           DATE:  01.17.67
000205:                                                                                                  #  MOD NO:  0                                                              LOG SECTION:    TIME OF FREE FALL
000206:                                                                                                  #  MOD BY:  RR BAIRNSFATHER
000207:                                                                                                  #  MOD NO:  1           MOD BY:  RR BAIRNSFATHER      DATE:  11 APR 67
000208:                                                                                                  #  MOD NO:  2           MOD BY:  RR BAIRNSFATHER      DATE:  21 MAR 68     ACCEPT DIFFERENT EARTH/MOON SCALES
000209:                                                                                                  #                                                                          ALSO IMPROVE ACCURACY OF RAPO.
000210:                                                                                                  #  FUNCTIONAL DESCRIPTION:         USED BY CALCTPER AND TFF DISPLAYS TO CALCULATE PERIGEE RADIUS AND ALSO
000211:                                                                                                  #           APOGEE RADIUS FOR A GENERAL CONIC.
000212:                                                                                                  #           PROGRAM GIVES PERIGEE RADIUS AS               APOGEE RADIUS IS GIVEN BY
000213:                                                                                                  #                  RP = P /(1+E)                                 RA = (1+E) / ALFA
000214:                                                                                                  #           WHERE   2
000215:                                                                                                  #                  E  = 1 - P ALFA
000216:                                                                                                  #           IF RA IS NEGATIVE OR SHOWS DIVIDE OVERFLOW, THEN RA = POSMAX BECAUSE
000217:                                                                                                  #                  1. APOGEE RADIUS IS NOT MEANINGFUL FOR HYPERBOLA
000218:                                                                                                  #                  2. APOGEE RADIUS IS NOT DEFINED FOR PARABOLA
000219:                                                                                                  #                  3. APOGEE RADIUS EXCEEDS THE SCALING FOR ELLIPSE.
000220:                                                                                                  #           THIS SUBROUTINE REQUIRES THE SIGNED  RECIPROCAL SEMI MAJ AXIS,  ALFA,  AND SEMI LATUS RECTUM AS DATA.
000221:                                                                                                  #  CALLING SEQUENCE:  CALL
000222:                                                                                                  #                            TFFRP/RA
000223:                                                                                                  #           PUSHLOC = PDL+0, ARBITRARY IF LEQ 10D
000224:                                                                                                  #           C(MPAC) UNSPECIFIED
000225:
000226:                                                                                                  #  SUBROUTINES CALLED:  NONE
000227:                                                                                                  #  NORMAL EXIT MODE:    RVQ
000228:                                                                                                  #           IF ELLIPSE, WITHIN NORMAL SCALING, RAPO IS CORRECT.
000229:                                                                                                  #           OTHERWISE, RAPO = POSMAX.
000230:                                                                                                  #  ALARMS:  NONE
000231:                                                                                                  #  OUTPUT:  STORED IN PUSH LIST AREA. SCALE OF OUTPUT AGREES WITH DATA SUPPLIED TO  TFF/CONIC.
000232:                                                                                                  #           RPER   E:(-29)  M:(-27)  M     PERIGEE RADIUS                  DESTROYED BY CALCTFF/CALCTPER, TFFTRIG.
000233:                                                                                                  #           RAPO   E:(-29)  M:(-27)  M     APOGEE  RADIUS                  WILL BE DESTROYED BY CALCTFF/CALCTPER
000234:                                                                                                  #           PUSHLOC AT PDL+0
000235:                                                                                                  #  ERASABLE INITIALIZATION REQUIRED:
000236:                                                                                                  #           TFFALFA E:(26-NR)      M   1/SEMI MAJ AXIS                     LEFT BY TFFCONIC
000237:                                                                                                  #                   M:(24-NR)
000238:                                                                                                  #           TFFNP  E: (-38+2NR)    M  LC P, SEMI LATUS RECTUM              LEFT BY TFFCONIC
000239:                                                                                                  #                  M: (-36+2NR)
000240:                                                                                                  #           X1                     -NR, NORM COUNT OF RMAG                 LEFT BY TFFCONIC
000241:                                                                                                  #           X2                     -NA, NORM COUNT OF ALFA                 LEFT BY TFFCONIC
000242:                                                                                                  #  DEBRIS:  QPRET,    PDL+0 ... PDL+1
000243:


000245: 27,3411                        RAPO               =        16D                                   #  APOGEE RADIUS  M  E:(-29)  M:(-27)
000246: 27,3411                        RPER               =        14D                                   #  PERIGEE RADIUS  M  E:(-29)  M:(-27)
000247:
000248: 27,3411           41345        TFFRP/RA           DLOAD    DMP
000249: 27,3412           00033                                    TFFALFA                               #  ALFA  1/M  E:(26-NR)   M:(24-NR)
000250: 27,3413           00035                                    TFFNP                                 #  LC P  M   E:(-38+2NR)   M:(-36+2NR)
000251: 27,3414           57457                           SR*      DCOMP                                 #  ALFA P (-12+NR)
000252: 27,3415           20571                                    0          -8D,1                      #  ALFA P  (-4)
000253: 27,3416           51415                           DAD      ABS                                   #  (DCOMP GIVES VALID TP RESULT FOR SQRT)
000254:                                                                                                  #  (ABS PROTECTS SQRT IF E IS VERY NEAR 0)
000255: 27,3417           17747                                    DP2(-4)
000256: 27,3420           43366                           SQRT     DAD                                   #  E SQ = (1- P ALFA)   (-4)
000257: 27,3421           06510                                    TFF1/4
000258: 27,3422           55206                           PUSH     BDDV                                  #  (1+E)  (-2)  TO PDL+0
000259: 27,3423           00035                                    TFFNP                                 #  LCP  M E:(-38+2NR)   M:(-36+2NR)
000260: 27,3424           53657                           SR*      SR*                                   #  (DOES SR THEN SL TO AVOID OVFL)
000261: 27,3425           20601                                    0,1                                   #  X1=-NR
000262: 27,3426           20572                                    0          -7,1                       #  (EFFECTIVE SL)
000263: 27,3427           14017                           STODL    RPER                                  #  PERIGEE RADIUS  M   E:(-29)   M:(-27)
000264:                                                                                                  #  (1+E)  (-2)   FROM PDL+0
000265: 27,3430           41005                           DMP      BOVB
000266: 27,3431           00027                                    TFF1/ALF                              #  E:(-22-2NA)  M:(-20-2NA)
000267: 27,3432           57735                                    TCDANZIG                              #  CLEAR OVFIND, IF ON.
000268: 27,3433           53654                           BZE      SL*
000269: 27,3434           57443                                    MAXRA                                 #  SET POSMAX, IF ALFA=0
000270: 27,3435           57603                                    0          -5,2                       #  -5+NA
000271: 27,3436           40057                           SL*      BOV
000272: 27,3437           57576                                    0,2
000273: 27,3440           57443                                    MAXRA                                 #  SET POSMAX IF OVFL.
000274: 27,3441           77644                           BPL                                            #  CONTINUE WITH VALID RAPO.
000275: 27,3442           57445                                    +3
000276: 27,3443           77745        MAXRA              DLOAD                                          #  RAPO CALC IS NOT VALID. SET RAPO =
000277: 27,3444           17753                                    NEARONE                               #  POSMAX AS A TAG.
000278: 27,3445           00021                 +3        STORE    RAPO                                  #  APOGEE RADIUS  M   E:(-29)   M:(-27)
000279: 27,3446           77616        DUMPRPRA           RVQ
000280:
000281:                                                                                                  #                          30 W
000282:


000284:                                                                                                  #  SUBROUTINE NAME:     CALCTPER  /  CALCTFF                               DATE:    01.29.67
000285:                                                                                                  #  MOD NO:  0                                                              LOG SECTION:    TIME OF FREE FALL
000286:                                                                                                  #  MOD BY:  RR BAIRNSFATHER
000287:                                                                                                  #  MOD NO:  1           MOD BY:  RR BAIRNSFATHER      DATE:  21 MAR 67
000288:                                                                                                  #  MOD NO:  2           MOD BY:  RR BAIRNSFATHER      DATE:  14 APR 67
000289:                                                                                                  #  MOD NO:  3           MOD BY:  RR BAIRNSFATHER      DATE:  8JUL 67       NEAR EARTH MUE AND NEG TFF (GONEPAST)
000290:                                                                                                  #  MOD NO:  4           MOD BY:  RR BAIRNSFATHER      DATE:  21 NOV 67     ADD VARIABLE MU.
000291:                                                                                                  #  MOD NO:  5           MOD BY:  RR BAIRNSFATHER      DATE:  21 MAR 68     ACCEPT DIFFERENT EARTH/MOON SCALES
000292:                                                                                                  #  FUNCTIONAL DESCRIPTION:      PROGRAM CALCULATES THE FREE-FALL TIME OF FLIGHT FROM PRESENT POSITION  RN  AND
000293:                                                                                                  #           VELOCITY  VN  TO A RADIUS LENGTH SPECIFIED BY  RTERM  , SUPPLIED BY THE USER. THE POSITION VECTOR
000294:                                                                                                  #           RN  MAY BE ON EITHER SIDE OF THE CONIC, BUT  RTERM  IS CONSIDERED ON THE INBOUND SIDE.
000295:                                                                                                  #           THE EQUATIONS ARE
000296:
000297:                                                                                                  #                  Q2 = -SQRT(RTERM (2-RTERM ALFA) - LCP)    (INBOUND SIDE))        LEQ +- LCE/SQRT(ALFA)
000298:                                                                                                  #                       -  -
000299:                                                                                                  #                  Q1 = RN.VN / SQRT(MU)                                            LEQ +- LCE/SQRT(ALFA)
000300:
000301:                                                                                                  #                  Z = NUM / DEN                                                    LEQ +- 1/SQRT(ALFA)
000302:
000303:                                                                                                  #           WHERE, IF INBOUND
000304:                                                                                                  #                  NUM = RTERM - RN                                                 LEQ +- 2 LCE/ALFA
000305:                                                                                                  #                  DEN = Q2+Q1                                                      LEQ +- 2 LCE/SQRT(ALFA)
000306:
000307:                                                                                                  #           AND, IF OUTBOUND
000308:                                                                                                  #                  NUM = Q2-Q1                                                      LEQ +- 2 LCE/SQRT(ALFA)
000309:                                                                                                  #                  DEN = 2 - ALFA (RTERM + RN) .                                    LEQ +- 2 LCE
000310:
000311:                                                                                                  #           IF     ALFA ZZ  <  1.0               (FOR ALL CONICS EXCEPT ELLIPSES HAVING ABS(DEL ECC ANOM) G 90 DEG)
000312:
000313:                                                                                                  #           THEN   X = ALFA Z Z
000314:                                                                                                  #           AND    TFF = (RTERM +RN -2 ZZ T(X) ) Z/SQRT(MU)
000315:
000316:                                                                                                  #                  EXCEPT IF ALFA PNZ, AND IF TFF NEG,
000317:                                                                                                  #                  THEN   TFF = 2 PI /(ALFA SQRT(ALFA)) + TFF
000318:
000319:                                                                                                  #           OR IF  ALFA ZZ  GEQ  1.0             (FOR ELLIPSES HAVING ABS(DEL ECC ANOM) GEQ 90 DEG)
000320:
000321:                                                                                                  #           THEN   X = 1/ALFA Z Z
000322:                                                                                                  #           AND    TFF = (PI/SQRT(ALFA) -Q2 +Q1 +2(X T(X) -1) /ALFA Z) /ALFA SQRT(MU)
000323:
000324:                                                                                                  #           WHERE  T(X) IS A POLYNOMIAL APPROXIMATION TO THE SERIES
000325:                                                                                                  #                             2     3                        2
000326:                                                                                                  #                  1/3 -X/5 +X /7 -X /9 ...                (X   <  1.0)
000327:
000328:                                                                                                  #  CALLING SEQUENCE:  TIME TO RTERM                           TIME TO PERIGEE
000329:                                                                                                  #                     CALL                                    CALL
000330:                                                                                                  #                            CALCTFF                                 CALCTPER
000331:                                                                                                  #                     C(MPAC) = TERMNL RAD  M                 C(MPAC) = PERIGEE RAD  M
000332:                                                                                                  #           FOR EITHER,   E: (-29)    M: (-27)
000333:                                                                                                  #           FOR EITHER, PUSHLOC = PDL+0, ARBITRARY IF LEQ 8D.
000334:


000336:                                                                                                  #  SUBROUTINES CALLED:  T(X),  VIA RTB
000337:                                                                                                  #  NORMAL EXIT MODE:  RVQ
000338:                                                                                                  #           HOWEVER, PROGRAM EXITS WITH ONE OF THE FOLLOWING VALUES FOR TFF (-28) CS  IN MPAC. USER MUST STORE.
000339:                                                                                                  #                  A.  TFF= FLIGHT TIME. NORMAL CASE FOR POSITIVE FLIGHT TIME LESS THAN ONE ORBITAL PERIOD.
000340:                                                                                                  #                  B.  (THIS OPTION IS NO LONGER USED.)
000341:                                                                                                  #                  C.  TFF = POSMAX.  THIS INDICATES THAT THE CONIC FROM THE PRESENT POSITION WILL NOT RETURN TO
000342:                                                                                                  #                      THE SPECIFIED ALTITUDE.  ALSO INDICATES OUTBOUND PARABOLA OR HYPERBOLA.
000343:                                                                                                  #  OUTPUT:  C(MPAC)  (-28)  CS     TIME OF FLIGHT, OR TIME TO PERIGEE
000344:                                                                                                  #           TFFX    (0)            X,                                      LEFT FOR ENTRY DISPLAY TFF ROUTINES
000345:                                                                                                  #           NRTERM  E: (-29+NR)    M  RTERM, WEIGHTED BY NR                LEFT FOR ENTRY DISPLAY TFF ROUTINES
000346:                                                                                                  #                   M: (-27+NR)
000347:                                                                                                  #           TFFTEM  E: (-59+2NR)   LCP Z Z SGN(SDELF)                      LEFT FOR ENTRY DISPLAY TFF ROUTINES
000348:                                                                                                  #                   M: (-55+2NR)   LCP /ALFA SGN(SDELF)                    LEFT FOR ENTRY DISPLAY TFF ROUTINES
000349:                                                                                                  #           NOTE:  TFFTEM = PDL 36D AND WILL BE DESTROYED BY .:UNIT:.
000350:                                                                                                  #           RMAG1  E:(-29)  M:(-27)  PDL 12 NOT TOUCHED.
000351:                                                                                                  #           TFFQ1  E:(-16)  M:(-15)  PDL 14D
000352:                                                                                                  #           TFFDELQ E:(-16) M:(-15)  PDL 10D
000353:                                                                                                  #           PUSHLOC AT PDL+0
000354:                                                                                                  #  ERASABLE INITIALIZATION REQUIRED:
000355:                                                                                                  #           RONE   E:(-29)  M:(-27)  M   STATE VECTOR                      LEFT BY USER
000356:                                                                                                  #           VONE'  E:(+10)  M:(+9)   VN/SQRT(MU)                           LEFT BY TFF/CONIC
000357:                                                                                                  #           RMAG1  E:(-29)  M:(-27)  PRESENT RADIUS,  M                    LEFT BY TFFCONIC
000358:                                                                                                  #           C(MPAC)E:(-29)  M:(-27)  RTERM, TERMINAL RADIUS LENGTH, M      LEFT BY USER
000359:
000360:                                                                                                  #           THE FOLLOWING ARE STORED IN THE PUSH LIST AREA.
000361:                                                                                                  #           TFF/RTMU  E:(17)  M:(14)  1/SQRT(MU)                           LEFT BY TFFCONIC.
000362:                                                                                                  #           NRMAG  E: (-29+NR)  M  RMAG, NORMALIZED                        LEFT BY TFFCONIC
000363:                                                                                                  #                  M: (-27+NR)
000364:                                                                                                  #           X1                     -NR, NORM COUNT                         LEFT BY TFFCONIC
000365:                                                                                                  #           TFFNP  E: (-38+2NR)  M   LCP, SEMI LATUS RECTUM, WEIGHT  NR    LEFT BY TFFCONIC
000366:                                                                                                  #                  M: (-36+2NR)
000367:                                                                                                  #           TFFALFA  E: (26-NR)    1/M  ALFA, WEIGHT  NR                   LEFT BY TFFCONIC
000368:                                                                                                  #                    M: (24-NR)
000369:                                                                                                  #           TFFRTALF  E:(10+NA)    SQRT(ALFA), NORMALIZED                  LEFT BY TFFCONIC
000370:                                                                                                  #                     M:(9+NA)
000371:                                                                                                  #           X2                     -NA, NORM COUNT                         LEFT BY TFFCONIC
000372:                                                                                                  #           TFF1/ALF  E: (-22-2NA)  SIGNED SEMIMAJ AXIS, WEIGHTED BY NA    LEFT BY TFFCONIC
000373:                                                                                                  #                     M: (-20-2NA)
000374:                                                                                                  #  DEBRIS:  QPRET,   PDL+0 ... PDL+3
000375:                                                                                                  #           RTERM  E:(-29)  M:(-27)  RTERM, TERMINAL RADIUS LENGTH
000376:                                                                                                  #           RAPO   E:(-29)  M:(-27)  PDL 16D  (=NRTERM)
000377:                                                                                                  #           RPER   E:(-29)  M:(-27)  PDL 14D   (=TFFQ1)
000378:


000380: 27,3447           77614        CALCTPER           SETGO                                          #  ENTER WITH RPER  IN MPAC
000381: 27,3450           03436                                    TFFSW
000382: 27,3451           57454                                    +3
000383: 27,3452           77614        CALCTFF            CLEAR                                          #  ENTER WITH RTERM IN MPAC
000384: 27,3453           03676                                    TFFSW
000385: 27,3454           00023                 +3        STORE    RTERM                                 #  E: (-29)  M: (-27)
000386: 27,3455           77657                           SL*
000387: 27,3456           20201                                    0,1                                   #  X1=-NR
000388: 27,3457           00021                           STORE    NRTERM                                #  RTERM  E: (-29+NR)  M: (-27+NR)
000389: 27,3460           44205                           DMP      BDSU
000390: 27,3461           00033                                    TFFALFA                               #  ALFA  E: (26-NR)  M: (24-NR)
000391: 27,3462           06510                                    TFF1/4
000392: 27,3463           41206                           PUSH     DMP                                   #  (2-ALFA RTERM)  (-3)  TO PDL+0
000393: 27,3464           00021                                    NRTERM                                #  E: (-29+NR)  M: (-27+NR)
000394: 27,3465           53725                           PDDL     SR*                                   #  RTERM(2-ALFA RTERM) TO PDL+2
000395:                                                                                                  #  E: (-32+NR)   M: (-30+NR)
000396: 27,3466           00035                                    TFFNP                                 #  LC P  E:(-38+2NR)  M:(-36+2NR)
000397: 27,3467           20573                                    0          -6,1                       #  X1 = -NR
000398: 27,3470           43276                           DCOMP    DAD                                   #  DUE TO SHIFTS, KEEP PRECISION FOR SQRT
000399:                                                                                                  #  RTERM(2-ALFA RTERM) FROM PDL+2
000400:                                                                                                  #  E: (-32+NR)  M: (-30+NR)
000401: 27,3471           77657                           SR*                                            #  LEAVE  E: (-32)  M: (-30)
000402: 27,3472           20601                                    0,1                                   #  X1 = -NR
000403: 27,3473           71214                           BOFF     DLOAD                                 #  CHECK TFF / TPER SWITCH
000404: 27,3474           03756                                    TFFSW
000405: 27,3475           57477                                    +2                                    #  IF TFF, CONTINUE
000406: 27,3476           06520                                    TFFZEROS                              #  IF TPER, SET Q2 = 0
000407: 27,3477           75440                 +2        BMN      SQRT                                  #  E: (-16)  M: (-15)
000408:
000409: 27,3500           57632                                    MAXTFF1                               #  NO FREE FALL CONIC TO RTERM FROM HERE
000410:                                                                                                  #  RESET PDL, SET TFF=POSMAX, AND EXIT.
000411:
000412: 27,3501           41076                           DCOMP    BOVB                                  #  RT IS ON INBOUND SIDE.  ASSURE OVFIND=0
000413: 27,3502           57735                                    TCDANZIG                              #  ANY PORT IN A STORM.
000414: 27,3503           24045                           STOVL    TFFTEM                                #  Q2   E: (-16)  M: (-15)
000415: 27,3504           02161                                    VONE'                                 #  VN/SQRT(MU) E: (10)  M: (9)
000416: 27,3505           52441                           DOT      SL3
000417: 27,3506           02200                                    RONE                                  #  SAVED RN.  E: (-29)  M: (-27)
000418: 27,3507           00017                           STORE    TFFQ1                                 #  Q1, SAVE FOR GONEPAST TEST.
000419:                                                                                                  #  E: (-16)  M: (-15)
000420: 27,3510           44240                           BMN      BDSU
000421: 27,3511           57532                                    INBOUND                               #  USE ALTERNATE Z
000422: 27,3512           00045                                    TFFTEM                                #  Q2  E: (-16)  M: (-15)
000423:
000424:                                                                                                  #                                          OUTBOUND Z CALC CONTINUES HERE
000425:
000426: 27,3513           14043                           STODL    TFFX                                  #  NUM=Q2-Q1  E: (-16)  M: (-15)
000427: 27,3514           00033                                    TFFALFA                               #  ALFA  E: (26-NR)  M: (24-NR)
000428: 27,3515           44205                           DMP      BDSU


000430: 27,3516           00041                                    NRMAG                                 #  RMAG  E: (-29+NR)  M: (-27+NR)
000431:                                                                                                  #  (2-RTERM ALFA)  (-3) FROM PDL+0
000432: 27,3517           51406        SAVEDEN            PUSH     ABS                                   #  DEN TO PDL+0  E: (-3) OR (-16)
000433:                                                                                                  #                M: (-3) OR (-15)
000434: 27,3520           40015                           DAD      BOV                                   #  INDETERMINANCY TEST
000435: 27,3521           17741                                    LIM(-22)                              #  =1.0-B(-22)
000436: 27,3522           57543                                    TFFXTEST                              #  GO IF DEN >/= B(-22)
000437: 27,3523           65345                           DLOAD    PDDL                                  #  SET DEN=0  OTHERWISE
000438: 27,3524           06520                                    TFFZEROS
000439:                                                                                                  #  XCH ZERO WITH PDL+0
000440: 27,3525           57545                           DLOAD    DCOMP
000441: 27,3526           00033                                    TFFALFA                               #  ALFA  E: (26-NR)  M: (24-NR)
000442: 27,3527           71240                           BMN      DLOAD                                 #  FOR TPER: Z INDET AT DELE/2=0 AND 90.
000443: 27,3530           57637                                    TFFEL1                                #  ASSUME 90, AND LEAVE 0 IN PDL: 1/Z=D/N
000444:
000445:                                                                                                  #  Z INDET. AT PERIGEE FOR PARAB OR HYPERB.
000446: 27,3531           77616        DUMPTFF1           RVQ                                            #  RETURN  TFF =0
000447:
000448:                                                                                                  #                                          INBOUND Z CALC CONTINUES HERE
000449: 27,3532           77745        INBOUND            DLOAD                                          #  RESET PDL+0
000450: 27,3533           45345                           DLOAD    DSU                                   #  ALTERNATE Z CALC
000451: 27,3534           00023                                    RTERM                                 #  E: (-29)  M: (-27)
000452: 27,3535           00015                                    RMAG1                                 #  E: (-29)  M: (-27)
000453: 27,3536           14043                           STODL    TFFX                                  #  NUM=RTERM-RN  E: (-29)  M: (-27)
000454: 27,3537           00045                                    TFFTEM                                #  Q2  E: (-16)  M: (-15)
000455: 27,3540           52015                           DAD      GOTO
000456: 27,3541           00017                                    TFFQ1                                 #  Q1  E: (-16)  M: (-15)
000457: 27,3542           57517                                    SAVEDEN                               #  DEN = Q2+Q1   E: (-16)  M: (-15)
000458:
000459: 27,3543           65215        TFFXTEST           DAD      PDDL                                  #   (ABS(DEN) TO PDL+2))  E: (-3) OR (-16)
000460:                                                                                                  #                         M: (-3) OR (-15)
000461: 27,3544           17743                                    DP(-22)                               #  RESTORE ABS(DEN) TO MPAC
000462: 27,3545           00043                                    TFFX                                  #  NUM E:(-16) OR (-29)  M:(-15) OR (-27)
000463: 27,3546           53605                           DMP      SR*
000464: 27,3547           00031                                    TFFRTALF                              #  SQRT(ALFA)  E: (10+NA)  M: (9+NA)
000465: 27,3550           57201                                    0          -3,2                       #  X2=-NA
000466: 27,3551           77671                           DDV                                            #  C(MPAC) =NUM SQRT(ALFA)  E:(-3) OR (-16)
000467:                                                                                                  #                           M:(-3) OR (-15)
000468:                                                                                                  #  ABS(DEN) FROM PDL+2  E:(-3) OR (-16)
000469:                                                                                                  #                       M:(-3) OR (-15)
000470: 27,3552           40145                           DLOAD    BOV                                   #  (THE DLOAD IS SHARED WITH TFFELL)
000471: 27,3553           00043                                    TFFX                                  #  NUM  E: (-16) OR (-29)  M:(-15) OR (-27)
000472: 27,3554           57635                                    TFFELL                                #  USE EQN FOR DELE GEQ 90, LEQ -90
000473:
000474:                                                                                                  #                                          OTHERWISE, CONTINUE FOR GENERAL CONIC FOR TFF EQN
000475:
000476: 27,3555           45471                           DDV      STADR
000477:                                                                                                  #  DEN FROM PDL+0   E: (-3) OR (-16)
000478:                                                                                                  #                   M: (-3) OR (-15)
000479: 27,3556           77732                           STORE    TFFTEM                                #  Z  SAVE FOR SIGN OF SDELF.


000481:                                                                                                  #  E: (-13)  M: (-12)
000482: 27,3557           63406                           PUSH     DSQ                                   #  Z TO PDL+0
000483: 27,3560           41206                           PUSH     DMP                                   #  Z SQ TO PDL+2  E: (-26)  M: (-24)
000484: 27,3561           00035                                    TFFNP                                 #  LC P  E: (-38+2NR)  M: (-36+2NR)
000485: 27,3562           75261                           SL       SIGN
000486: 27,3563           20206                                    5
000487: 27,3564           00045                                    TFFTEM                                #  AFFIX SIGN FOR SDELF (ENTRY DISPLAY)
000488: 27,3565           14045                           STODL    TFFTEM                                #  P ZSQ  E: (-59+2NR)  M: (-55+2NR)
000489:                                                                                                  #  (ARG IS USED IN TFF/TRIG)
000490:                                                                                                  #  ZSQ FROM PDL+2   E: (-26)  M: (-24)
000491: 27,3566           41206                           PUSH     DMP                                   #  RESTORE PUSH LOC
000492: 27,3567           00033                                    TFFALFA                               #  ALFA  E: (26-NR)  M: (24-NR)
000493: 27,3570           77657                           SL*
000494: 27,3571           20201                                    0,1                                   #  X1=-NR
000495: 27,3572           00043                           STORE    TFFX                                  #  X
000496: 27,3573           41234                           RTB      DMP
000497: 27,3574           57717                                    T(X)                                  #   POLY
000498:                                                                                                  #  ZSQ FROM PDL+2  E: (-26)  M: (-24)
000499: 27,3575           44302                           SR2      BDSU                                  #  2 ZSQ T(X)  E: (-29)  M: (-27)
000500: 27,3576           00023                                    RTERM                                 #  RTERM  E: (-29)  M: (-27)
000501: 27,3577           41215                           DAD      DMP
000502: 27,3600           00015                                    RMAG1                                 #  E: (-29)  M: (-27)
000503:                                                                                                  #  Z FROM PDL+0  E: (-13)  M: (-12)
000504: 27,3601           51042                           SR3      BPL                                   #  TFF SQRT(MU)   E: (-45)  M: (-42)
000505: 27,3602           57623                                    ENDTFF                                #  (NO PUSH UP)
000506: 27,3603           75206                           PUSH     SIGN                                  #  TFF SQRT(MU)  TO PDL+0
000507: 27,3604           00017                                    TFFQ1                                 #  Q1 FOR GONEPAST TEST
000508: 27,3605           71244                           BPL      DLOAD                                 #  GONE PAST ?
000509: 27,3606           57627                                    NEGTFF                                #  YES. TFF < 0 .
000510: 27,3607           00027                                    TFF1/ALF                              #  1/ALFA  E: (-22-2NA)  M: (-20-2NA)
000511: 27,3610           51076                           DCOMP    BPL                                   #  ALFA > 0 ?
000512: 27,3611           57627                                    NEGTFF                                #  NO. TFF IS NEGATIVE.
000513:
000514:                                                                                                  #                                          CORRECT FOR ORBITAL PERIOD.
000515:
000516: 27,3612           77676                           DCOMP                                          #  YES. CORRECT FOR ORB PERIOD.
000517: 27,3613           56205                           DMP      DDV
000518: 27,3614           17737                                    PI/16                                 #  2 PI (-5)
000519: 27,3615           00031                                    TFFRTALF                              #  SQRT(ALFA)  E: (10+NA)  M: (9+NA)
000520: 27,3616           53657                           SL*      SL*
000521: 27,3617           57602                                    0          -4,2                       #  X2=-NA
000522: 27,3620           57602                                    0          -4,2
000523: 27,3621           43257                           SL*      DAD
000524: 27,3622           57576                                    0,2
000525:                                                                                                  #  TFF SQRT(MU) FROM PDL+0  E:(-45) M:(-42)
000526: 27,3623           40005        ENDTFF             DMP      BOV                                   #  TFF SQRT(MU) IN MPAC     E:(-45) M:(-42)
000527: 27,3624           00037                                    TFF/RTMU                              #  E: (17)  M: (14)
000528: 27,3625           57633                                    MAXTFF                                #  SET POSMAX IF OVFL.
000529:
000530: 27,3626           77616        DUMPTFF2           RVQ                                            #  RETURN  TFF   (-28) CS IN MPAC.
000531:


000533: 27,3627           77745        NEGTFF             DLOAD
000534:                                                                                                  #  TFF SQRT(MU)  FROM PDL+0, NEGATIVE.
000535: 27,3630           77650                           GOTO
000536: 27,3631           57623                                    ENDTFF
000537:
000538: 27,3632           77745        MAXTFF1            DLOAD                                          #  RESET PDL
000539: 27,3633           43545        MAXTFF             DLOAD    RVQ
000540: 27,3634           17753                                    NEARONE
000541:
000542:                                                                                                  #  TIME OF FLIGHT ELLIPSE WHEN DEL (ECCENTRIC ANOM) GEQ 90 AND LEQ -90.
000543:
000544:                                                                                                  #  NUM FROM TFFX.  E: (-16) OR (-29)
000545:                                                                                                  #                  M: (-15) OR (-27)
000546: 27,3635           77712        TFFELL             SL2                                            #  NUM  E:(-14) OR (-27)  M:(-13) OR (-25)
000547: 27,3636           41465                           BDDV     PUSH                                  #  TEMP SAVE D/N IN PDL+0
000548:                                                                                                  #  DEN FROM PDL+0 E:(-3)/( 16) M:(-3)/(-15)
000549:                                                                                                  #  N/D TO PDL+0  E: (11)  M: (10)
000550: 27,3637           45345        TFFEL1             DLOAD    DSU                                   #  (ENTER WITH D/N=0 IN PDL+0)
000551: 27,3640           00045                                    TFFTEM                                #  Q2  E: (-16)  M: (-15)
000552: 27,3641           00017                                    TFFQ1                                 #  Q1  E: (-16)  M: (-15)
000553: 27,3642           14013                           STODL    TFFDELQ                               #  Q2-Q1  E: (-16)  M: (-15)
000554:                                                                                                  #  D/N FROM PDL+0
000555: 27,3643           77626                           STADR
000556: 27,3644           77732                           STORE    TFFTEM                                #  D/N  E: (11)  M: (10)
000557: 27,3645           53605                           DMP      SL*
000558: 27,3646           00027                                    TFF1/ALF                              #  1/ALFA E: (-22-2NA)  M: (-20-2NA)
000559: 27,3647           57576                                    0,2                                   #  1/ALFA Z  E: (-11-NA)  M: (-10-NA)
000560: 27,3650           41206                           PUSH     DMP                                   #  TO PDL+0
000561: 27,3651           00045                                    TFFTEM                                #  1/Z  E: (11)  M: (10)
000562: 27,3652           41057                           SL*      BOVB
000563: 27,3653           57576                                    0,2                                   #  X2= -NA
000564: 27,3654           21674                                    SIGNMPAC                              #  IN CASE X= 1.0, CONTINUE
000565: 27,3655           00043                           STORE    TFFX                                  #  X=1/ALFA ZSQ
000566: 27,3656           41234                           RTB      DMP
000567: 27,3657           57717                                    T(X)                                  #  POLY
000568: 27,3660           00043                                    TFFX
000569: 27,3661           45242                           SR3      DSU
000570: 27,3662           17745                                    DP2(-3)
000571: 27,3663           41405                           DMP      PUSH                                  #  2(X T(X)-1) /Z ALFA  E: (-15-NA)
000572:                                                                                                  #                       M: (-14-NA)
000573:                                                                                                  #  1/ALFA Z FROM PDL+0  E: (-11-NA)
000574:                                                                                                  #                       M: (-10-NA)
000575: 27,3664           41345                           DLOAD    DMP                                   #  GET SIGN FOR SDELF
000576: 27,3665           00045                                    TFFTEM                                #  1/Z  E: (11)  M: (10)
000577: 27,3666           00015                                    RMAG1                                 #  E: (-29)  M: (-27)
000578: 27,3667           43312                           SL2      DAD
000579: 27,3670           00017                                    TFFQ1                                 #  Q1  E: (-16)  M: (-15)
000580: 27,3671           14045                           STODL    TFFTEM                                #  (Q1+R 1/Z)  =SGN OF SDELF E:(-16) M:(-15
000581: 27,3672           00035                                    TFFNP                                 #  LC P E: (-38+2NR) M: (-36+2NR)
000582: 27,3673           53605                           DMP      SL*                                   #  CALC FOR ARG FOR TFF/TRIG.


000584: 27,3674           00027                                    TFF1/ALF                              #  1/ALFA   E:(-22-2NA)  M:(-20-2NA)
000585: 27,3675           57575                                    1,2                                   #  X2=-NA
000586: 27,3676           53765                           SIGN     SL*
000587: 27,3677           00045                                    TFFTEM                                #  AFFIX SIGN FOR SDELF
000588: 27,3700           57576                                    0,2
000589: 27,3701           14045                           STODL    TFFTEM                                #  P/ALFA  E:(-59+2NR)  M:(-55+2NR)
000590:                                                                                                  #  (ARG FOR USE IN TFF/TRIG)
000591: 27,3702           00027                                    TFF1/ALF                              #  1/ALFA E:(-22-2NA)  M:(-20-2NA)
000592: 27,3703           41366                           SQRT     DMP
000593: 27,3704           17737                                    PI/16                                 #  PI (-4)
000594: 27,3705           77615                           DAD
000595:                                                                                                  #  2(XT(X)-1)/Z ALFA FROM PDL E:(-15-NA)
000596:                                                                                                  #                             M:(-14-NA)
000597: 27,3706           45257                           SL*      DSU
000598: 27,3707           57577                                    0          -1,2
000599: 27,3710           00013                                    TFFDELQ                               #  Q2-Q1  E: (-16)  M: (-15)
000600: 27,3711           53605                           DMP      SL*
000601: 27,3712           00027                                    TFF1/ALF                              #  1/ALFA  E:(-22-2NA)  M:(-20-2NA)
000602: 27,3713           57601                                    0          -3,2
000603: 27,3714           52057                           SL*      GOTO
000604: 27,3715           57602                                    0          -4,2
000605: 27,3716           57623                                    ENDTFF                                #  TFF SQRT(MU) IN MPAC E:(-45) M:(-42)
000606:


000608:                                                                                                  #  PROGRAM NAME:      T(X)                                                 DATE:    01.17.67
000609:                                                                                                  #  MOD NO:  0                                                              LOG SECTION:    TIME OF FREE FALL
000610:                                                                                                  #  MOD BY:  RR BAIRNSFATHER
000611:                                                                                                  #  FUNCTIONAL DESCRIPTION:      THE POLYNOMIAL T(X) IS USED BY TIME OF FLIGHT SUBROUTINES  CALCTFF AND
000612:                                                                                                  #           CALCTPER TO APPROXIMATE THE SERIES
000613:                                                                                                  #                             2     3
000614:                                                                                                  #                  1/3 -X/5 +X /7 -X /9 ...
000615:
000616:                                                                                                  #           WHERE  X = ALFA Z Z       IF ALFA Z Z  LEQ 1
000617:                                                                                                  #                  X = 1/(ALFA Z Z )  IF ALFA Z Z   G  1
000618:
000619:                                                                                                  #           ALSO   X IS NEG FOR HYPERBOLIC ORBITS
000620:                                                                                                  #                  X = 0 FOR PARABOLIC ORBITS
000621:                                                                                                  #                  X IS POSITIVE FOR ELLIPTIC ORBITS
000622:                                                                                                  #           FOR FLIGHT 278, THE POLYNOMIAL  T(X) IS FITTED OVER THE RANGE  (0,+1)  AND HAS A MAXIMUM
000623:                                                                                                  #           DEVIATION FROM THE SERIES OF  2 E-5       (T(X) IS A CHEBYCHEV  TYPE FIT AND WAS OBTAINED USING
000624:                                                                                                  #           MAC PROGRAM AUTCURFIT294RRB  AND IS VALID TO THE SAME TOLERANCE OVER THE RANGE  (-.08,+1). )
000625:                                                                                                  #  CALLING SEQUENCE:  RTB
000626:                                                                                                  #                            T(X)
000627:                                                                                                  #           C(MPAC) = X
000628:
000629:                                                                                                  #  SUBROUTINES CALLED:  NONE
000630:                                                                                                  #  NORMAL EXIT MODE:    TC   DANZIG
000631:                                                                                                  #  ALARMS:  NONE
000632:                                                                                                  #  OUTPUT:  C(MPAC) = T(X)
000633:                                                                                                  #  ERASABLE INITIALIZATION REQUIRED:
000634:                                                                                                  #           C(MPAC)  =  X
000635:                                                                                                  #  DEBRIS:  NONE
000636:
000637: 27,3717           07234        T(X)               TC       POLY
000638: 27,3720           00004                           DEC      4          B-14                       #  N-1
000639: 27,3721           12525 12525                     2DEC     3.333333333 E-1
000640:
000641: 27,3723           71463 57703                     2DEC*    -1.999819135 E-1*
000642:
000643: 27,3725           04423 17645                     2DEC*    1.418148467 E-1*
000644:
000645: 27,3727           74604 43667                     2DEC*    -1.01310997 E-1*
000646:
000647: 27,3731           01626 37256                     2DEC*    5.609004986 E-2*
000648:
000649: 27,3733           77404 52071                     2DEC*    -1.536156925 E-2*
000650:
000651: 27,3735           06073        ENDT(X)            TC       DANZIG
000652:
000653: 27,3736  27,3735               TCDANZIG           =        ENDT(X)
000654:


000656:                                                                                                  #  TFF CONSTANTS
000657:
000658: 32,3733                                           BANK     32
000659:
000660: 27,2000                                           SETLOC   TOF-FF1
000661: 27,2000                                           BANK
000662:
000663:                                                                                                  #                             NOTE _  NOTE _ ADJUSTED MUE FOR NEAR EARTH TRAJ.
000664:
000665:                                                                                                  # MUE            =       3.990 815 471 E10  M CUBE/CS SQ
000666:                                                                                                  # RTMUE          =       1.997702549 E5 B-18*     MODIFIED EARTH MU
000667:
000668:                                                                                                  #                             NOTE _  NOTE _ ADJUSTED MUE FOR NEAR EARTH TRAJ.
000669:
000670:                                                                                                  # MUM            =       4.902 778  E8     M CUBE /CS SQ
000671:
000672:                                                                                                  # RTMUM          2DEC*   2.21422176 E4 B-18*
000673: 27,3736           06220 37553  PI/16              2DEC     3.141592653 B-4
000674:
000675: 27,3740           37777 37700  LIM(-22)           2OCT     3777737700                            #  1.0 -B(-22)
000676:
000677: 27,3742           00000 00100  DP(-22)            2OCT     0000000100                            #  B(-22)
000678:
000679: 27,3744           04000 00000  DP2(-3)            2DEC     1          B-3
000680:
000681: 27,3746           02000 00000  DP2(-4)            2DEC     1          B-4                        #  1/16
000682:
000683:                                                                                                  # RPAD1          2DEC    6373338 B-29      M  (-29)   =20 909 901.57 FT
000684:
000685: 27,3750  23,2335               RPAD1              =        RPAD
000686:
000687: 27,3750           00305 11205  R300K              2DEC     6464778    B-29                       #  (-29) M
000688:
000689: 27,3752           37777 37777  NEARONE            2DEC     .999999999
000690:
000691: 27,3754  23,2517               TFFZEROS           EQUALS   HI6ZEROS
000692: 27,3754  23,2507               TFF1/4             EQUALS   HIDP1/4
000693:

End of include-file TIME_OF_FREE_FALL.agc.  Parent file is MAIN.agc


