
Source Code


000002:                                                                                                  ## Copyright:   Public domain.
000003:                                                                                                  ## Filename:    TRIM_GIMBAL_CONTROL_SYSTEM.agc
000004:                                                                                                  ## Purpose:     A log section of Zerlina 56, the final revision of
000005:                                                                                                  ##              Don Eyles's offline development program for the variable
000006:                                                                                                  ##              guidance period servicer. It also includes a new P66 with LPD
000007:                                                                                                  ##              (Landing Point Designator) capability, based on an idea of John
000008:                                                                                                  ##              Young's. Neither of these advanced features were actually flown,
000009:                                                                                                  ##              but Zerlina was also the birthplace of other big improvements to
000010:                                                                                                  ##              Luminary including the terrain model and new (Luminary 1E)
000011:                                                                                                  ##              analog display programs. Zerlina was branched off of Luminary 145,
000012:                                                                                                  ##              and revision 56 includes all changes up to and including Luminary
000013:                                                                                                  ##              183. It is therefore quite close to the Apollo 14 program,
000014:                                                                                                  ##              Luminary 178, where not modified with new features.
000015:                                                                                                  ## Reference:   pp. 1460-1472
000016:                                                                                                  ## Assembler:   yaYUL
000017:                                                                                                  ## Contact:     Ron Burkey <info@sandroid.org>.
000018:                                                                                                  ## Website:     www.ibiblio.org/apollo/index.html
000019:                                                                                                  ## Mod history: 2017-07-28 MAS  Created from Luminary 210.
000020:                                                                                                  ##              2017-08-29 MAS  Updated for Zerlina 56.
000021:


000023: 21,3001                                           BANK     21
000024: 21,3001  E6,1450                                  EBANK=   QDIFF
000025: 21,2000                                           SETLOC   DAPS4
000026: 21,2000                                           BANK
000027:
000028: 21,3001                                           COUNT*   $$/DAPGT
000029:
000030:                                                                                                  #  CONTROL REACHES THIS POINT UNDER EITHER OF THE FOLLOWING TWO CONDITIONS ONCE THE DESCENT ENGINE AND THE DIGITAL
000031:                                                                                                  #  AUTOPILOT ARE BOTH ON:
000032:                                                                                                  #           A) THE TRIM GIMBAL CONTROL LAW WAS ON DURING THE PREVIOUS Q,R-AXIS TIME5 INTERRUPT (OR THE DAPIDLER
000033:                                                                                                  #              INITIALIZATION WAS SET FOR TRIM GIMBAL CONTROL AND THIS IS THE FIRST PASS), OR
000034:                                                                                                  #           B) THE Q,R-AXES RCS AUTOPILOT DETERMINED THAT THE VEHICLE WAS ENTERING (OR HAD JUST ENTERED) A COAST
000035:                                                                                                  #              ZONE WITH A SMALL OFFSET ANGULAR ACCELERATION.
000036:
000037:                                                                                                  #  GTS IS THE ENTRY TO THE GIMBAL TRIM SYSTEM FOR CONTROLLING ATTITUDE ERRORS AND RATES AS WELL AS ACCELERATIONS.
000038:
000039: 21,3001           37761        GTS                CAF      NEGONE                                #  MAKE THE NEXT PASS THROUGH THE DAP BE
000040: 21,3002           55630                           TS       COTROLER                              #    THROUGH RCS CONTROL,
000041: 21,3003           34751                           CAF      FOUR                                  #    AND ENSURE THAT IT IS NOT A SKIP.
000042: 21,3004           55534                           TS       SKIPU
000043: 21,3005           55535                           TS       SKIPV
000044:
000045: 21,3006           34752                           CAF      TWO
000046: 21,3007           55632                           TS       INGTS                                 #  SET INDICATOR OF GTS CONTROL POSITIVE.
000047: 21,3010           55631                           TS       QGIMTIMR                              #  SET TIMERS TO 200 MSEC TO AVOID BOTH
000048: 21,3011           55633                           TS       RGIMTIMR                              #  RUNAWAY AND INTERFERENCE BY NULLING.
000049:
000050:                                                                                                  #  THE DRIVE SETTING ALGORITHM
000051:
000052:                                                                                                  #  DEL = SGN(OMEGA + ALPHA*ABS(ALPHA)/(2*K))
000053:
000054:                                                                                                  #                                              2               1/2                  2       3/2
000055:                                                                                                  #  NEGUSUM = ERROR*K + ALPHA*(DEL*OMEGA + ALPHA /(3*K)) + DEL*K   (DEL*OMEGA + ALPHA /(2*K))
000056:
000057:                                                                                                  #  DRIVE = -SGN(NEGUSUM)
000058:
000059: 21,3012           30021                           CA       SR                                    #  SAVE THE SR.  SHIFT IT LEFT TO CORRECT
000060: 21,3013           60000                           AD       A                                     #  FOR THE RIGHT SHIFT DUE TO EDITING.
000061: 21,3014           55505                           TS       SAVESR
000062:
000063: 21,3015           34752        GTSGO+DN           CAF      TWO                                   #  SET INDEXER FOR R-AXIS CALCULATIONS.
000064: 21,3016           13020                           TCF      GOQTRIMG   +1
000065:
000066: 21,3017           34755        GOQTRIMG           CAF      ZERO                                  #  SET INDEXER FOR Q-AXIS CALCULATIONS
000067: 21,3020           55747                           TS       QRCNTR
000068:
000069: 21,3021           51747                           INDEX    QRCNTR                                #  AOS SCALED AT PI/2
000070: 21,3022           31536                           CA       AOSQ
000071: 21,3023           00006                           EXTEND
000072: 21,3024           74752                           MP       BIT2                                  #  RESCALE AOS TO PI/4
000073:


000075: 21,3025           00006                           EXTEND
000076: 21,3026           13032                           BZF      GTSQAXIS   -3                         #  USE FULL SCALE FOR LARGER AOS ESTIMATES.
000077:
000078: 21,3027           50000                           INDEX    A
000079: 21,3030           44734                           CS       LIMITS                                #  LIMITS +1 CONTAINS NEGMAX.
000080: 21,3031           56001                           XCH      L                                     #  LIMITS -1 CONTAINS POSMAX.
000081:
000082: 21,3032           11747                           CCS      QRCNTR                                #  PICK UP RATE FOR THIS AXIS.  RATE CELLS
000083: 21,3033           50000                           INDEX    A                                     #  ARE ADJACENT, NOT SEPARATED.  AT PI/4
000084: 21,3034           31436                           CA       EDOTQ
000085: 21,3035           53743        GTSQAXIS           DXCH     WCENTRAL
000086:
000087: 21,3036           51747                           INDEX    QRCNTR                                #  COLLECT K FOR THIS AXIS
000088: 21,3037           31504                           CA       KQ
000089: 21,3040           55740                           TS       KCENTRAL
000090:
000091: 21,3041           00006                           EXTEND                                         #  CONTROL AUTHORITY  ZERO.  AVOID DRIVING
000092: 21,3042           13500                           BZF      POSDRIVE   +1                         #  ENGINE BELL TO THE STOPS.
000093:
000094: 21,3043           51747                           INDEX    QRCNTR                                #  QDIFF, RDIFF ARE STORED IN D.P.
000095: 21,3044           31450                           CAE      QDIFF
000096:
000097: 21,3045           00006        ALGORTHM           EXTEND                                         #  Q(R)DIFF IS THETA (ERROR) SCALED AT PI.
000098: 21,3046           71740                           MP       KCENTRAL                              #  FORM K*ERROR AT PI(2)/2(8), IN D.P.
000099: 21,3047           23736                           LXCH     K2THETA
000100: 21,3050           00006                           EXTEND
000101: 21,3051           74747                           MP       BIT5                                  #  RESCALE TO 4*PI(2)
000102: 21,3052           53737                           DXCH     K2THETA
000103: 21,3053           00006                           EXTEND
000104: 21,3054           74747                           MP       BIT5                                  #  FIRST TERM OF NEGUSUM IN K2THETA.
000105: 21,3055           27737                           ADS      K2THETA    +1                         #  NO CARRY NEEDED    D.P. AT 4*PI(2)
000106:
000107: 21,3056           41743                           CS       ACENTRAL                              #  FORM ALPHA(2)/(2*K) AT 16*PI, IN D.P.,
000108: 21,3057           00006                           EXTEND                                         #  LIMITING QUOTIENT TO AVOID OVERFLOW.
000109: 21,3060           74736                           MP       BIT14                                 #  -ALPHA/2 IN A, SCALED AT PI/4
000110: 21,3061           00006                           EXTEND
000111: 21,3062           71743                           MP       ACENTRAL                              #  -ALPHA(2)/2 IN A,L, SCALED AT PI(2)/16
000112: 21,3063           61740                           AD       KCENTRAL
000113: 21,3064           00006                           EXTEND
000114: 21,3065           63102                           BZMF     HUGEQUOT                              #  K-ALPHA(2)/2 SHOULD BE PNZ FO DIVISION
000115:
000116: 21,3066           00006                           EXTEND
000117: 21,3067           40001                           DCS      A                                     #  ALPHA(2)/2 - K
000118: 21,3070           61740                           AD       KCENTRAL
000119: 21,3071           00006                           EXTEND
000120: 21,3072           11740                           DV       KCENTRAL                              #  HIGH ORDER OF QUOTIENT.
000121: 21,3073           57745                           XCH      A2CNTRAL
000122: 21,3074           30001                           CA       L                                     #  SHIFT UP THE REMAINDER.
000123: 21,3075           22007                           LXCH     7                                     #  ZERO LOW-ORDER DIVIDEND.
000124: 21,3076           00006                           EXTEND


000126: 21,3077           11740                           DV       KCENTRAL
000127: 21,3100           57746                           XCH      A2CNTRAL   +1                         #  QUOTIENT STORED AT 16*PI, D.P.
000128: 21,3101           13105                           TCF      HAVEQUOT
000129:
000130: 21,3102           34733        HUGEQUOT           CA       POSMAX
000131: 21,3103           54001                           TS       L
000132: 21,3104           53746                           DXCH     A2CNTRAL                              #  LIMITED QUOTIENT STORED AT 16*PI, D.P.
000133:
000134: 21,3105           31742        HAVEQUOT           CA       WCENTRAL
000135: 21,3106           00006                           EXTEND
000136: 21,3107           74743                           MP       BIT9                                  #  RESCALE OMEGA AT 16*PI IN D.P.
000137: 21,3110           53742                           DXCH     K2CNTRAL                              #  LOWER WORD OVERLAYS OMEGA IN WCENTRAL
000138:
000139: 21,3111           00006                           EXTEND
000140: 21,3112           31742                           DCA      K2CNTRAL
000141: 21,3113           53751                           DXCH     FUNCTION
000142:
000143: 21,3114           31743                           CA       ACENTRAL                              #  GET ALPHA*ABS(ALPHA)/(2*K)
000144: 21,3115           00006                           EXTEND
000145: 21,3116           63122                           BZMF     +4
000146:
000147: 21,3117           00006                           EXTEND
000148: 21,3120           31746                           DCA      A2CNTRAL
000149: 21,3121           13124                           TCF      +3
000150:
000151: 21,3122           00006                           EXTEND
000152: 21,3123           41746                           DCS      A2CNTRAL
000153:
000154: 21,3124           21751                           DAS      FUNCTION                              #  OMEGA + ALPHA*ABS(ALPHA)/2*K) AT 16*PI
000155:
000156: 21,3125           11750                           CCS      FUNCTION                              #  DEL = +1 FOR FUNCT1 GREATER THAN ZERO.
000157: 21,3126           13132                           TCF      POSFNCT1                              #  OTHERWISE DEL = -1
000158: 21,3127           13131                           TCF      +2
000159: 21,3130           13134                           TCF      NEGFNCT1
000160:
000161: 21,3131           11751                           CCS      FUNCTION   +1                         #  USE LOW ORDER WORD SINCE HIGH IS ZERO
000162: 21,3132           34753        POSFNCT1           CAF      BIT1
000163: 21,3133           13135                           TCF      +2
000164: 21,3134           44753        NEGFNCT1           CS       BIT1
000165: 21,3135           55744                           TS       DEL
000166:
000167: 21,3136           11744                           CCS      DEL                                   #  REPLACE OMEGA BY DEL*OMEGA
000168: 21,3137           13151                           TCF      FUNCT2                                #  POSITIVE DEL VALUE.  PROCEED.
000169: 21,3140           13142                           TCF      DEFUNCT
000170: 21,3141           13146                           TCF      NEGFNCT2
000171:
000172: 21,3142           55741        DEFUNCT            TS       K2CNTRAL
000173: 21,3143           55742                           TS       K2CNTRAL   +1
000174: 21,3144           13151                           TCF      FUNCT2
000175:


000177: 21,3145           65252        NEG1/3             DEC      -.33333
000178:
000179: 21,3146           00006        NEGFNCT2           EXTEND
000180: 21,3147           41742                           DCS      K2CNTRAL
000181: 21,3150           53742                           DXCH     K2CNTRAL
000182:
000183: 21,3151           00006        FUNCT2             EXTEND
000184: 21,3152           31746                           DCA      A2CNTRAL
000185: 21,3153           21742                           DAS      K2CNTRAL                              #  DEL*OMEGA + ALPHA(2)/(2*K) AT 16*PI,D.P.
000186:
000187: 21,3154           31745        FUNCT3             CA       A2CNTRAL
000188: 21,3155           00006                           EXTEND
000189: 21,3156           73145                           MP       NEG1/3
000190: 21,3157           53746                           DXCH     A2CNTRAL
000191: 21,3160           30001                           CA       L
000192: 21,3161           00006                           EXTEND
000193: 21,3162           73145                           MP       NEG1/3
000194: 21,3163           27746                           ADS      A2CNTRAL   +1
000195: 21,3164           54001                           TS       L
000196: 21,3165           13167                           TCF      +2                                    #  A2CNTRAL NOW CONTAINS  -ALPHA(2)/(6*K),
000197: 21,3166           27745                           ADS      A2CNTRAL                              #  SCALED AT 16*PI, IN D.P.
000198:
000199: 21,3167           00006                           EXTEND
000200: 21,3170           31742                           DCA      K2CNTRAL                              #  DEL*OMEGA + ALPHA(2)/(3*K) IN A2CNTRAL,
000201: 21,3171           21746                           DAS      A2CNTRAL                              #  SCALED AT 16*PI, D.P.
000202:
000203: 21,3172           31745                           CA       A2CNTRAL
000204: 21,3173           00006                           EXTEND
000205: 21,3174           71743                           MP       ACENTRAL
000206: 21,3175           21737                           DAS      K2THETA
000207: 21,3176           31746                           CA       A2CNTRAL   +1
000208: 21,3177           00006                           EXTEND
000209: 21,3200           71743                           MP       ACENTRAL                              #  ACENTRAL MAY NOW BE OVERLAID.
000210: 21,3201           27737                           ADS      K2THETA    +1
000211: 21,3202           54001                           TS       L
000212: 21,3203           13205                           TCF      +2                                    #  TWO TERMS OF NEGUSUM ACCUMULATED, SO FAR
000213: 21,3204           27736                           ADS      K2THETA                               #  SCALED AT 4*PI(2), IN D.P.
000214:
000215: 21,3205           31741        GETROOT            CA       K2CNTRAL                              #  K*(DEL*OMEGA + ALPHA(2)/(2*K)) IS THE
000216: 21,3206           00006                           EXTEND                                         #  TERM FOR WHICH A SQUARE ROOT IS NEEDED.
000217: 21,3207           71740                           MP       KCENTRAL                              #  K AT PI/2(8)
000218: 21,3210           53751                           DXCH     FUNCTION
000219: 21,3211           31742                           CA       K2CNTRAL   +1
000220: 21,3212           00006                           EXTEND
000221: 21,3213           71740                           MP       KCENTRAL
000222: 21,3214           27751                           ADS      FUNCTION   +1
000223: 21,3215           54001                           TS       L
000224: 21,3216           13220                           TCF      +2
000225: 21,3217           27750                           ADS      FUNCTION                              #  DESIRED TERM IN FUNCTION, AT PI(2)/16


000227: 21,3220           11744                           CCS      DEL
000228: 21,3221           13426                           TCF      RSTOFGTS
000229: 21,3222           13470                           TCF      NEGUSUM
000230: 21,3223           13225                           TCF      NEGATE
000231: 21,3224           13470                           TCF      NEGUSUM
000232:
000233: 21,3225           00006        NEGATE             EXTEND
000234: 21,3226           41742                           DCS      K2CNTRAL
000235: 21,3227           53742                           DXCH     K2CNTRAL
000236: 21,3230           13426                           TCF      RSTOFGTS
000237:
000238: 16,3740                                           BANK     16
000239: 16,3740  E6,1501                                  EBANK=   NEGUQ
000240: 16,2000                                           SETLOC   DAPS1
000241: 16,2000                                           BANK
000242:
000243:                                                                                                  #  THE WRCHN12 SUBROUTINE SETS BITS 9,10,11,12 OF CHANNEL 12 ON THE BASIS OF THE CONTENTS OF NEGUQ,NEGUR WHICH ARE
000244:                                                                                                  #  THE NEGATIVES OF THE DESIRED ACCELERATION CHANGES.  ACDT+C12 SETS Q(R)ACCDOT TO REFLECT THE NEW DRIVES.
000245:
000246:                                                                                                  #  WARNING:  ACDT+C12 AND WRCHN12 MUST BE CALLED WITH INTERRUPT INHIBITED.
000247:
000248: 16,3740           07400        BGIM               OCTAL    07400
000249: 16,3741     0066               CHNL12             EQUALS   ITEMP6
000250: 16,3741           41501        ACDT+C12           CS       NEGUQ
000251: 16,3742           00006                           EXTEND                                         #  GIMBAL DRIVE REQUESTS.
000252: 16,3743           71507                           MP       ACCDOTQ
000253: 16,3744           23510                           LXCH     QACCDOT
000254: 16,3745           41503                           CS       NEGUR
000255: 16,3746           00006                           EXTEND
000256: 16,3747           71511                           MP       ACCDOTR
000257: 16,3750           23512                           LXCH     RACCDOT
000258:
000259: 16,3751           11501                           CCS      NEGUQ
000260: 16,3752           34742                           CAF      BIT10
000261: 16,3753           13755                           TCF      +2
000262: 16,3754           34743                           CAF      BIT9
000263: 16,3755           54066                           TS       CHNL12
000264:
000265: 16,3756           11503                           CCS      NEGUR
000266: 16,3757           34740                           CAF      BIT12
000267: 16,3760           13762                           TCF      +2
000268: 16,3761           34741                           CAF      BIT11
000269: 16,3762           26066                           ADS      CHNL12                                #  (STORED RESULT NOT USED AT PRESENT)
000270:
000271: 16,3763           43740                           CS       BGIM
000272: 16,3764           00006                           EXTEND
000273: 16,3765           02012                           RAND     CHAN12
000274: 16,3766           60066                           AD       CHNL12
000275: 16,3767           00006                           EXTEND
000276: 16,3770           01012                           WRITE    CHAN12
000277:


000279: 16,3771           44747                           CS       CALLGMBL                              #  TURN OFF REQUEST FOR ACDT+C12 EXECUTION.
000280: 16,3772           71262                           MASK     RCSFLAGS
000281: 16,3773           55262                           TS       RCSFLAGS
000282:
000283: 16,3774           00002                           TC       Q                                     #  RETURN TO CALLER.
000284:
000285: 21,3231                                           BANK     21
000286: 21,3231  E6,1450                                  EBANK=   QDIFF
000287: 21,2000                                           SETLOC   DAPS4
000288: 21,2000                                           BANK
000289:


000291:                                                                                                  #  SUBROUTINE TIMEGMBL:  MOD 0,  OCTOBER 1967, CRAIG WORK
000292:
000293:                                                                                                  #  TIMEGMBL COMPUTES THE DRIVE TIME NEEDED FOR THE TRIM GIMBAL TO POSITION THE DESCENT ENGINE NOZZLE SO AS TO NULL
000294:                                                                                                  #  THE OFFSET ANGULAR ACCELERATION ABOUT THE Q (OR R) AXIS.  INSTEAD OF USING AOSQ(R), TIMEGMBL USES .4*AOSQ(R),
000295:                                                                                                  #  SCALED AT PI/8.                         FOR EACH AXIS, THE DRIVE TIME IS COMPUTED AS ABS(ALPHA/ACCDOT).  A ZERO
000296:                                                                                                  #  ALPHA OR ACCDOT OR A ZERO QUOTIENT TURNS OFF THE GIMBAL DRIVE IMMEDIATELY.  OTHERWISE, THE GIMBAL IS TURNED ON
000297:                                                                                                  #  DRIVING IN THE CORRECT DIRECTION. THE Q(R)GIMTIMR IS SET TO TERMINATE THE DRIVE AND Q(R)ACCDOT
000298:                                                                                                  #  IS STORED TO REFLECT THE NEW ACCELERATION DERIVATIVE.  NEGUQ(R) WILL CONTAIN +1,+0,-1 FOR A Q(R)ACCDOT VALUE
000299:                                                                                                  #  WHICH IS NEGATIVE, ZERO, OR POSITIVE.
000300:
000301:                                                                                                  #  INPUTS:  AOSQ,AOSR, SCALED AT P1/2, AND ACCDOTQ, ACCDOTR AT PI/2(7).    PI/2(7).
000302:
000303:                                                                                                  #  OUTPUTS:   NEW GIMBAL DRIVE BITS IN CHANNEL 12,NEGUQ,NEGUR,QACCDOT AND RACCDOT, THE LAST SCALED AT PI/2(7).
000304:                                                                                                  #             Q(R)GIMTIMR WILL BE SET TO TIME AND TERMINATE GIMBAL DRIVE(S)
000305:
000306:                                                                                                  #  DEBRIS:  A,L,Q, ITEMPS 2,3,6, RUPTREG2 AND ACDT+C12 DEBRIS.
000307:
000308:                                                                                                  #  EXITS:  VIA TC Q.
000309:
000310:                                                                                                  #  ALARMS, ABORTS, :  NONE
000311:
000312:                                                                                                  #  SUBROUTINES:  ACDT+C12, IBNKCALL
000313:
000314:                                                                                                  #  WARNING:  THIS SUBROUTINE WRITES INTO CHANNEL 12 AND USES THE ITEMPS.  THEREFORE IT MAY ONLY BE CALLED WITH
000315:                                                                                                  #  INTERRUPT INHIBITED.
000316:
000317:                                                                                                  #  ERASABLE STORAGE CONFIGURATION (NEEDED BY THE INDEXING METHODS):
000318:
000319:                                                                                                  #                                          NEGUQ    ERASE    +2            NEGATIVE OF Q-AXIS GIMBAL DRIVE
000320:                                                                                                  #                                          (SPWORD) EQUALS  NEGUQ +1       ANY S.P. ERASABLE NUMBER, NOW THRSTCMD
000321:                                                                                                  #                                          NEGUR    EQUALS  NEGUQ +2       NEGATIVE OF R-AXIS GIMBAL DRIVE
000322:
000323:                                                                                                  #                                          ACCDOTQ  ERASE    +2            Q-JERK TERM SCALED AT PI/2(7) RAD/SEC(3)
000324:                                                                                                  #                                          (SPWORD) EQUALS  ACCDOTQ +1     ANY S.P. ERASABLE NUMBER  NOW QACCDOT
000325:                                                                                                  #                                          ACCDOTR  EQUALS  ACCDOTQ +2     R-JERK TERM SCALED AT PI/2(7) RAD/SEC(3)
000326:                                                                                                  #                                                                          ACCDOTQ,ACCDOTR ARE MAGNITUDES.
000327:                                                                                                  #                                          AOSQ     ERASE   +4             Q-AXIS ACC.,D.P. AT PI/2 R/SEC(2)
000328:                                                                                                  #                                          AOSR     EQUALS  AOSQ +2        R-AXIS ACCELERATION SCALED AT PI/2 R/S2
000329:
000330: 21,3231     0066               QRNDXER            EQUALS   ITEMP6
000331: 21,3231           23146        OCT23146           OCTAL    23146                                 #  DECIMAL .6
000332: 21,3232     0063               NZACCDOT           EQUALS   ITEMP3
000333:
000334: 21,3232           34753        TIMEGMBL           CAF      ONE                                   #  INITIALIZE ALLOWGTS.
000335: 21,3233           55502                           TS       ALLOWGTS
000336:
000337: 21,3234           34752                           CAF      TWO                                   #  SET UP LOOP FOR R AXIS.
000338: 21,3235           22002                           LXCH     Q                                     #  SAVE RETURN ADDRESS.
000339: 21,3236           22071                           LXCH     RUPTREG2


000341: 21,3237           13241                           TCF      +2
000342: 21,3240           34755        TIMQGMBL           CAF      ZERO                                  #  NOW DO THE Q-AXIS
000343: 21,3241           54066                           TS       QRNDXER
000344: 21,3242           50066                           INDEX    QRNDXER
000345: 21,3243           31507                           CA       ACCDOTQ                               #  ACCDOT IS PRESUMED TO BE AT PI/2(7).
000346: 21,3244           00006                           EXTEND
000347: 21,3245           63315                           BZMF     TGOFFNOW                              #  IS ACCDOT LESS THAN OR EQUAL TO 0?
000348: 21,3246           54063                           TS       NZACCDOT                              #  NO.  STORE NON-ZERO, POSITIVE ACCDOT.
000349:
000350: 21,3247           50066        ALPHATRY           INDEX    QRNDXER
000351: 21,3250           41536                           CS       AOSQ
000352: 21,3251           00006                           EXTEND
000353: 21,3252           13315                           BZF      TGOFFNOW                              #  IS ALPHA ZERO?
000354:
000355: 21,3253           54002                           TS       Q                                     #  SAVE A COPY OF  -AOS.
000356: 21,3254           00006                           EXTEND                                         #  NO.  RESCALE FOR TIMEGMBL USE.
000357: 21,3255           73231                           MP       OCT23146                              #  OCTAL 23146 IS DECIMAL .6
000358: 21,3256           60002                           AD       Q                                     #  -1.6*AOS AT PI/2 = -.4*AOS AT PI/8.
000359: 21,3257           54001                           TS       L                                     #  WAS THERE OVERFLOW?
000360: 21,3260           13265                           TCF      SETNEGU                               #  NO.  COMPUTE DRIVE TIME.
000361:
000362: 21,3261           40000                           CS       A                                     #  RECOVER  -SGN(AOS) IN THE A REGISTER.
000363: 21,3262           50066                           INDEX    QRNDXER                               #  YES.  START DRIVE WITHOUT WAITLIST.
000364: 21,3263           57501                           XCH      NEGUQ
000365: 21,3264           13321                           TCF      NOTALLOW                              #  KNOCK DOWN THE ALLOWGTS FLAG.
000366:
000367: 21,3265           00006        SETNEGU            EXTEND
000368: 21,3266           63273                           BZMF     POSALPH
000369:
000370: 21,3267           40000                           COM
000371: 21,3270           54062                           TS       ITEMP2                                #  STORE  -ABS(.4*AOS) SCALED AT PI/8.
000372: 21,3271           44753                           CS       BIT1
000373: 21,3272           13275                           TCF      POSALPH    +2
000374: 21,3273           54062        POSALPH            TS       ITEMP2                                #  STORE  -ABS(.4*AOS) SCALED AT PI/8.
000375: 21,3274           34753                           CA       BIT1
000376: 21,3275           50066                 +2        INDEX    QRNDXER                               #  SGN(AOS) INTO NEGU
000377: 21,3276           55501                           TS       NEGUQ                                 #  STORE SGN(APLHA) AS NEGU
000378:
000379: 21,3277           30063                           CA       NZACCDOT
000380: 21,3300           00006                           EXTEND
000381: 21,3301           74740                           MP       BIT12                                 #  2*ACCDOT, SCALED AT PI/8.
000382: 21,3302           60062                           AD       ITEMP2                                #  -ABS(ALPHA) + 2*ACCDOT, AT PI/8.
000383: 21,3303           00006                           EXTEND
000384: 21,3304           63321                           BZMF     NOTALLOW                              #  IS DRIVE TIME MORE THAN TWO SECONDS?
000385: 21,3305           40062                           CS       ITEMP2                                #  NO.  COMPUTE DRIVE TIME.
000386: 21,3306           00006                           EXTEND                                         #  ABS(ALPHA) AT PI/8.
000387: 21,3307           73342                           MP       OCT00240                              #  DECIMAL 10/1024
000388: 21,3310           00006                           EXTEND                                         #  QUOTIENT IS DRIVE TIME AT WAITLIST.
000389: 21,3311           10063                           DV       NZACCDOT                              #  ABS(ALPHA)/ACCDOT AT 2(14)/100
000390:


000392: 21,3312           00006                           EXTEND
000393: 21,3313           13315                           BZF      TGOFFNOW                              #  DRIVE TIME MUST BE GREATER THAN ZERO.
000394:
000395: 21,3314           13327                           TCF      DRIVEON
000396:
000397: 21,3315           34755        TGOFFNOW           CAF      ZERO                                  #  TURN OFF GIMBAL NOW.
000398: 21,3316           50066                           INDEX    QRNDXER
000399: 21,3317           55501                           TS       NEGUQ
000400:
000401: 21,3320           13331                           TCF      DONEYET
000402:
000403: 21,3321           36010        NOTALLOW           CAF      OCT31
000404: 21,3322           50066                           INDEX    QRNDXER
000405: 21,3323           55631                           TS       QGIMTIMR
000406: 21,3324           34755                           CAF      ZERO                                  #  DRIVE TIME IS MORE THAN 2 SECONDS, SO
000407: 21,3325           55502                           TS       ALLOWGTS                              #  DO NOT PERMIT FURTHER GTS ATTITUDE-RATE
000408:                                                                                                  #  CONTROL UNTIL AOSTASK APPROVES.
000409: 21,3326           13331                           TCF      DONEYET                               #  NO WAITLIST CALL IS MADE.
000410:
000411: 21,3327           50066        DRIVEON            INDEX    QRNDXER
000412: 21,3330           55631                           TS       QGIMTIMR                              #  CHOOSE Q OR R AXIS.
000413:
000414: 21,3331           10066        DONEYET            CCS      QRNDXER
000415: 21,3332           13240                           TCF      TIMQGMBL
000416:
000417: 21,3333           52073                           DXCH     RUPTREG3                              #  PROTECT IBNKCALL ERASABLES.  ACDT+C12
000418: 21,3334           52063                           DXCH     ITEMP2                                #  LEAVES ITEMPS2,3 ALONE.
000419:
000420: 21,3335           04674                           TC       IBNKCALL                              #  TURN OF CHANNEL BITS, SET Q(R)ACCDOTS.
000421: 21,3336           35741                           CADR     ACDT+C12
000422:
000423: 21,3337           52063                           DXCH     ITEMP2                                #  RESTORE ERASABLES FOR IBNKCALL.
000424: 21,3340           52073                           DXCH     RUPTREG3
000425:
000426: 21,3341           00071                           TC       RUPTREG2                              #  RETURN TO CALLER.
000427:
000428: 21,3342           00240        OCT00240           OCTAL    00240                                 #  DECIMAL 10/1024
000429:


000431:                                                                                                  #  THE FOLLOWING SECTION IS A CONTINUATION OF THE TRIM GIMBAL CONTROL FROM THE LAST GTS ENTRY. THE QUANTITY NEGUSUM
000432:                                                                                                  #  IS COMPUTED FOR EACH AXIS (Q,R), .707*DEL*FUNCTION(3/2) + K2THETA = NEGUSUM.  NEW DRIVES ARE ENTERED TO CH 12.
000433:
000434:                                                                                                  #  THE SUBROUTINE GTSQRT ACCEPTS A DOUBLE PRECISION VALUE IN FUNCTION, FUNCTION +1 AND RETURNS A SINGLE-PRECISION
000435:                                                                                                  #  SQUARE ROOT OF THE FOURTEEN MOST SIGNIFICANT BITS OF THE ARGUMENT.  ALSO, THE CELL SHFTFLAG CONTAINS A BINARY
000436:                                                                                                  #  EXPONENT S, SUCH THAT THE SQUARE ROOT (RETURNED IN THE A REGISTER) MUST BE SHIFTED RIGHT (MULTIPLIED BY 2 TO THE
000437:                                                                                                  #  POWER (-S)) IN ORDER TO BE THE TRUE SQUARE ROOT OF THE FOURTEEN MOST SIGNIFICANT BITS OF FUNCTION, FUNCTION +1.
000438:                                                                                                  #  SQUARE ROOT ERROR IS NOT MORE THAN 2 IN THE 14TH SIGNIFICANT BIT.  CELLS CLOBBERED ARE A,L,SHFTFLAG,ININDEX,
000439:                                                                                                  #  HALFARG,SCRATCH,SR,FUNCTION, FUNCTION +1.  GTSQRT IS CALLED BY TC GTSQRT AND RETURNS VIA TC Q OR TC FUNCTION +1.
000440:                                                                                                  #  ZERO OR NEGATIVE ARGUMENTS YIELD ZERO FOR SQUARE ROOTS.
000441:
000442: 21,3343           11750        GTSQRT             CCS      FUNCTION
000443: 21,3344           13362                           TCF      GOODARG                               #  FUNCTION IS POSITIVE.  TAKE SQUARE ROOT.
000444: 21,3345           13347                           TCF      +2                                    #  HIGH ORDER WORD IS ZERO.  TRY THE LOWER.
000445: 21,3346           13353                           TCF      ZEROOT                                #  NEGATIVE.  USE ZERO FOR 1/2 POWER.
000446:
000447: 21,3347           31751                           CA       FUNCTION   +1
000448: 21,3350           00006                           EXTEND
000449: 21,3351           63353                           BZMF     ZEROOT
000450:
000451: 21,3352           13356                           TCF      ZEROHIGH                              #  PROCEED.
000452: 21,3353           34755        ZEROOT             CA       ZERO
000453: 21,3354           55740                           TS       SHFTFLAG
000454: 21,3355           00002                           TC       Q
000455:
000456: 21,3356           57750        ZEROHIGH           XCH      FUNCTION                              #  14 MOST SIGNIFICANT BITS ARE IN THE
000457: 21,3357           57751                           XCH      FUNCTION   +1                         #  LOWER WORD.  EXCHANGE THEM.
000458: 21,3360           34757                           CA       SEVEN
000459: 21,3361           13363                           TCF      GOODARG    +1
000460:
000461: 21,3362           34755        GOODARG            CA       ZERO
000462: 21,3363           55740                           TS       SHFTFLAG
000463: 21,3364           35752                           CA       TWELVE                                #  INITIALIZE THE SCALING LOOP.
000464: 21,3365           55743                           TS       ININDEX
000465: 21,3366           13375                           TCF      SCALLOOP
000466:
000467: 21,3367           31750        SCALSTRT           CA       FUNCTION
000468: 21,3370           13411                           TCF      SCALDONE
000469:
000470: 21,3371           37760        MULBUSH            CA       NEG2                                  #  IF ARG IS NOT LESS THAN 1/4, INDEX IS
000471: 21,3372           27743                           ADS      ININDEX                               #  ZERO, INDICATING NO SHIFT NEEDED.
000472: 21,3373           00006                           EXTEND                                         #  BRANCH IF ARG IS NOT LESS THAN 1/4.
000473: 21,3374           63367                           BZMF     SCALSTRT                              #  OTHERWISE COMPARE ARG WITH A REFERENCE
000474:                                                                                                  #  WHICH IS 4 TIMES LARGER THAN THE LAST.
000475: 21,3375           41750        SCALLOOP           CS       FUNCTION
000476: 21,3376           51743                           INDEX    ININDEX
000477: 21,3377           64735                           AD       BIT15                                 #  REFERENCE MAGNITUDE LESS OR EQUAL TO 1/4
000478: 21,3400           00006                           EXTEND
000479: 21,3401           63371                           BZMF     MULBUSH                               #  IF ARG IS NOT LESS THAN REFERENCE, GO
000480:                                                                                                  #  AROUND THE MULBERRY BUSH ONCE MORE.
000481:


000483: 21,3402           51743                           INDEX    ININDEX
000484: 21,3403           34735                           CA       BIT15                                 #  THIS IS THE SCALE MAGNITUDE
000485: 21,3404           57746                           XCH      HALFARG                               #  2**(-ININDEX) IS THE SHIFT DIVISOR.
000486: 21,3405           00006                           EXTEND                                         #  RESCALE ARGUMENT.
000487: 21,3406           31751                           DCA      FUNCTION
000488: 21,3407           00006                           EXTEND
000489: 21,3410           11746                           DV       HALFARG
000490:                                                                                                  #  ININDEX AND SHFTFLAG PRESERVE INFO FOR
000491:
000492:                                                                                                  #  RESCALING AFTER ROOT PROCESS.
000493: 21,3411           00006        SCALDONE           EXTEND
000494: 21,3412           23751                           QXCH     FUNCTION   +1                         #  SAVE Q FOR RETURN
000495: 21,3413           00006                           EXTEND
000496: 21,3414           74736                           MP       BIT14
000497: 21,3415           55746                           TS       HALFARG
000498: 21,3416           74737                           MASK     BIT13
000499: 21,3417           10000                           CCS      A
000500: 21,3420           33536                           CA       OCT11276
000501: 21,3421           63534                           AD       ROOTHALF                              #  INITIAL GUESS IS ROOT 1/2 OR POSMAX
000502:
000503: 21,3422           03540                           TC       ROOTCYCL
000504: 21,3423           03540                           TC       ROOTCYCL
000505: 21,3424           03540                           TC       ROOTCYCL
000506:
000507: 21,3425           01751                           TC       FUNCTION   +1
000508:
000509:                                                                                                  #  ****************************************************************************************************************
000510:
000511:
000512: 21,3426           03343        RSTOFGTS           TC       GTSQRT
000513: 21,3427           57741        PRODUCT            XCH      K2CNTRAL
000514: 21,3430           00006                           EXTEND
000515: 21,3431           71741                           MP       K2CNTRAL
000516: 21,3432           53742                           DXCH     K2CNTRAL
000517: 21,3433           00006                           EXTEND                                         #              THE PRODUCT OF
000518: 21,3434           70001                           MP       L                                     #   1/2                   2       1/2
000519: 21,3435           27742                           ADS      K2CNTRAL   +1                         #  K   *(DEL*OMEGA + ALPHA /(2*K))
000520: 21,3436           54001                           TS       L                                     #                  AND
000521: 21,3437           13441                           TCF      +2                                    #                         2
000522: 21,3440           27741                           ADS      K2CNTRAL                              #   DEL*(DEL*OMEGA + ALPHA /(2*K)) NOW IN
000523:                                                                                                  #  K2CNTRAL
000524:
000525: 21,3441           31743        DOSHIFT            CA       ININDEX
000526: 21,3442           00006                           EXTEND                                         #  MULTIPLY IN THE FACTOR 2(-S), RETURNED
000527: 21,3443           74736                           MP       BIT14                                 #  BY THE GTSQRT SUBROUTINE
000528: 21,3444           27740                           ADS      SHFTFLAG
000529: 21,3445           00006                           EXTEND
000530: 21,3446           13465                           BZF      ADDITIN
000531: 21,3447           51740                           INDEX    SHFTFLAG
000532: 21,3450           34735                           CA       BIT15


000534: 21,3451           57741                           XCH      K2CNTRAL
000535: 21,3452           00006                           EXTEND
000536: 21,3453           71741                           MP       K2CNTRAL
000537: 21,3454           21737                           DAS      K2THETA
000538: 21,3455           57741                           XCH      K2CNTRAL
000539: 21,3456           00006                           EXTEND
000540: 21,3457           71742                           MP       K2CNTRAL   +1
000541: 21,3460           27737                           ADS      K2THETA    +1
000542: 21,3461           54001                           TS       L
000543: 21,3462           13464                           TCF      +2
000544: 21,3463           27736                           ADS      K2THETA
000545:
000546: 21,3464           13470                           TCF      NEGUSUM
000547:
000548: 21,3465           00006        ADDITIN            EXTEND
000549: 21,3466           31742                           DCA      K2CNTRAL
000550: 21,3467           21737                           DAS      K2THETA                               #  NOW ADD IN THE K2THETA TERM.
000551: 21,3470           11736        NEGUSUM            CCS      K2THETA                               #  TEST SIGN OF HIGH ORDER PART.
000552: 21,3471           13475                           TCF      NEGDRIVE
000553: 21,3472           13474                           TCF      +2
000554: 21,3473           13477                           TCF      POSDRIVE
000555:
000556: 21,3474           11737                           CCS      K2THETA    +1                         #  SIGN TEST FOR LOW ORDER PART.
000557: 21,3475           34753        NEGDRIVE           CA       BIT1
000558: 21,3476           13500                           TCF      +2                                    #  STOP GIMBAL DRIVE FOR A ZERO NEGUSUM.
000559: 21,3477           44753        POSDRIVE           CS       BIT1
000560: 21,3500           54001                           TS       L                                     #  SAVE FOR DRIVE REVERSAL TEST.
000561: 21,3501           51747                           INDEX    QRCNTR
000562: 21,3502           57501                           XCH      NEGUQ
000563:
000564: 21,3503           00006                           EXTEND
000565: 21,3504           70001                           MP       L                                     #  MULTIPLY OLD NEGU AND NEW NEGU.
000566: 21,3505           10001                           CCS      L
000567: 21,3506           13523                           TCF      LOUPE                                 #  NON-ZERO GIMBAL DRIVE BEING CONTINUED.
000568:
000569: 21,3507           13520                           TCF      ZEROLOUP                              #  NO REVERSAL PROBLEM HERE.
000570:
000571: 21,3510           13512                           TCF      REVERSAL                              #  NON-ZERO GIMBAL DRIVE BEING REVERSED.
000572: 21,3511           13520                           TCF      ZEROLOUP                              #  NO REVERSAL PROBLEM HERE.
000573:
000574: 21,3512           51747        REVERSAL           INDEX    QRCNTR                                #  A ZERO-DRIVE PAUSE IS NEEDED HERE.  ZERO
000575: 21,3513           55510                           TS       QACCDOT                               #  IS IN A REGISTER FROM CCS ON (-1).
000576: 21,3514           51747                           INDEX    QRCNTR
000577: 21,3515           43535                           CS       GMBLBITA
000578: 21,3516           00006                           EXTEND
000579: 21,3517           03012                           WAND     CHAN12
000580:
000581: 21,3520           41262        ZEROLOUP           CS       RCSFLAGS                              #  SET UP REQUEST FOR ACDT+C12 CALL.
000582: 21,3521           74747                           MASK     CALLGMBL
000583: 21,3522           27262                           ADS      RCSFLAGS
000584:


000586: 21,3523           11747        LOUPE              CCS      QRCNTR                                #  HAVE BOTH AXES BEEN PROCESSED?
000587: 21,3524           13017                           TCF      GOQTRIMG                              #  NO.  DO Q AXIS NEXT.
000588:
000589: 21,3525           31505                           CA       SAVESR                                #  RESTORE THE SR
000590: 21,3526           54021                           TS       SR
000591:
000592: 21,3527           00006        GOCLOSE            EXTEND                                         #  TERMINATE THE JASK.
000593: 21,3530           33533                           DCA      CLOSEADR
000594: 21,3531           52006                           DTCB
000595:
000596: 21,3532  E6,1536                                  EBANK=   AOSQ
000597: 21,3532           03270 36106  CLOSEADR           2CADR    CLOSEOUT                              #  TERMINATE THE JASK.
000598:
000599: 21,3534     5752               TWELVE             EQUALS   OCT14
000600: 21,3534           26501        ROOTHALF           OCTAL    26501                                 #  SQUARE ROOT OF 1/2
000601: 21,3535           01400        GMBLBITA           OCTAL    01400                                 #  INDEXED WRT GMBLBITB   DO NOT MOVE******
000602: 21,3536           11276        OCT11276           OCTAL    11276                                 #  POSMAX - ROOTHALF
000603: 21,3537           06000        GMBLBITB           OCTAL    06000                                 #  INDEXED WRT GMBLBITA   DO NOT MOVE******
000604:
000605:                                                                                                  #  SUBROUTINE ROOTCYCL:  BY CRAIG WORK,3 APRIL 68
000606:                                                                                                  #  ROOTCYCL IS A SUBROUTINE WHICH EXECUTES ONE NEWTON SQUARE ROOT ALGORITHM ITERATION.  THE INITIAL GUESS AT THE
000607:                                                                                                  #  SQUARE ROOT IS PRESUMED TO BE IN THE A REGISTER AND ONE-HALF THE SQUARE IS TAKEN FROM HALFARG.  THE NEW APPROXI-
000608:                                                                                                  #  MATION TO THE SQUARE ROOT IS RETURNED IN THE A REGISTER.  DEBRIS:   A,L,SR,SCRATCH.  ROOTCYCL IS CALLED FROM
000609:                                                                                                  #  LOCATION (LOC) BY A TC ROOTCYCL, AND RETURNS (TC Q) TO LOC +1.
000610:
000611:                                                                                                  #  WARNING:  IF THE INITIAL GUESS IS NOT GREATER THAN THE SQUARE, DIVIDE OR ADD OVERFLOW IS A REAL POSSIBILITY.
000612:
000613: 21,3540           55745        ROOTCYCL           TS       SCRATCH                               #  STORE X
000614: 21,3541           54021                           TS       SR                                    #  X/2 NOW IN SR
000615: 21,3542           31746                           CA       HALFARG                               #  ARG/2 IN THE A REG
000616: 21,3543           22007                           ZL                                             #  PREPARE FOR DIVISION
000617: 21,3544           00006                           EXTEND
000618: 21,3545           11745                           DV       SCRATCH                               #  (ARG/X)/2
000619: 21,3546           60021                           AD       SR                                    #  (X + ARG/X)/2 IN THE A REG
000620: 21,3547           00002                           TC       Q

End of include-file TRIM_GIMBAL_CONTROL_SYSTEM.agc.  Parent file is MAIN.agc


