
Source Code


000002:                                                                                                  ## Copyright:   Public domain.
000003:                                                                                                  ## Filename:    WAITLIST.agc
000004:                                                                                                  ## Purpose:     A log section of Zerlina 56, the final revision of
000005:                                                                                                  ##              Don Eyles's offline development program for the variable
000006:                                                                                                  ##              guidance period servicer. It also includes a new P66 with LPD
000007:                                                                                                  ##              (Landing Point Designator) capability, based on an idea of John
000008:                                                                                                  ##              Young's. Neither of these advanced features were actually flown,
000009:                                                                                                  ##              but Zerlina was also the birthplace of other big improvements to
000010:                                                                                                  ##              Luminary including the terrain model and new (Luminary 1E)
000011:                                                                                                  ##              analog display programs. Zerlina was branched off of Luminary 145,
000012:                                                                                                  ##              and revision 56 includes all changes up to and including Luminary
000013:                                                                                                  ##              183. It is therefore quite close to the Apollo 14 program,
000014:                                                                                                  ##              Luminary 178, where not modified with new features.
000015:                                                                                                  ## Reference:   pp. 1108-1123
000016:                                                                                                  ## Assembler:   yaYUL
000017:                                                                                                  ## Contact:     Ron Burkey <info@sandroid.org>.
000018:                                                                                                  ## Website:     www.ibiblio.org/apollo/index.html
000019:                                                                                                  ## Mod history: 2017-07-28 MAS  Created from Luminary 210.
000020:                                                                                                  ##              2017-08-28 MAS  Updated for Zerlina 56.
000021:


000023:                                                                                                  #  PROGRAM DESCRIPTION                                                                     DATE - 10 OCTOBER 1966
000024:                                                                                                  #  MOD NO - 2                                                                              LOG SECTION - WAITLIST
000025:                                                                                                  #  MOD BY - MILLER   (DTMAX INCREASED TO 162.5 SEC)                                        ASSEMBLY SUNBURST REV 5
000026:                                                                                                  #  MOD 3 BY KERNAN  (INHINT INSERTED AT WAITLIST)  2/28/68 SKIPPER REV 4
000027:
000028:                                                                                                  #  MOD 4BY KERNAN (TWIDDLE IN 54)  3/28/68 SKIPPER REV 13.
000029:
000030:
000031:                                                                                                  #  FUNCTIONAL DESCRIPTION-
000032:                                                                                                  #          PART OF A SECTION OF PROGRAMS,-WAITLIST, TASKOVER, T3RUPT, USED  TO CALL A PROGRAM, (CALLED A TASK),
000033:                                                                                                  #     WHICH IS TO BEGIN IN C(A) CENTISECONDS.  WAITLIST UPDATES TIME3, LST1 AND LST2. THE MEANING OF THESE LISTS
000034:                                                                                                  #     FOLLOW.
000035:
000036:                                                                                                  #                  C(TIME3)  = 16384 -(T1-T) CENTISECONDS, (T=PRESENT TIME, T1-TIME FOR TASK1)
000037:
000038:
000039:                                                                                                  #                               C(LST1)    = -(T2-T1)+1
000040:                                                                                                  #                               C(LST1 +1) = -(T3-T2)+1
000041:                                                                                                  #                               C(LST1 +2) = -(T4-T3)+1
000042:                                                                                                  #                                          .
000043:                                                                                                  #                                          .
000044:                                                                                                  #                               C(LST1 +6) = -(T8-T7)+1
000045:                                                                                                  #                               C(LST1 +7) = -(T9-T8)+1
000046:
000047:                                                                                                  #                               C(LST2)    = 2CADR OF TASK1
000048:                                                                                                  #                               C(LST2 +2) = 2CADR OF TASK2
000049:                                                                                                  #                                          .
000050:                                                                                                  #                                          .
000051:                                                                                                  #                               C(LST2 +14)= 2CADR OF TASK8
000052:                                                                                                  #                               C(LST2 +16)= 2CADR OF TASK9
000053:
000054:                                                                                                  #  WARNINGS-
000055:                                                                                                  #  --------
000056:                                                                                                  #               1) 1 <= C(A) <= 16250D (1 CENTISECOND TO 162.5 SEC)
000057:                                                                                                  #               2) 9 TASKS MAXIMUM
000058:                                                                                                  #               3) TASKS CALLED UNDER INTERRUPT INHIBITED
000059:                                                                                                  #               4) TASKS END BY TC TASKOVER
000060:
000061:                                                                                                  #  CALLING SEQUENCE-
000062:
000063:                                                                                                  #               L-1    CA     DELTAT   (TIME IN CENTISECONDS TO TASK START)
000064:                                                                                                  #               L      TC     WAITLIST
000065:                                                                                                  #               L+1    2CADR  DESIRED TASK
000066:                                                                                                  #               L+2    (MINOR OF 2CADR)
000067:                                                                                                  #               L+3    RELINT          (RETURNS HERE)
000068:
000069:                                                                                                  #  TWIDDLE -
000070:                                                                                                  #  -------
000071:                                                                                                  #               TWIDDLE IS FOR USE WHEN THE TASK BEING SET UP IS IN THE SAME EBANK AND FBANK AS THE USER.   IN
000072:                                                                                                  #               SUCH CASES, IT IMPROVES UPON WAITLIST BY ELIMINATING THE NEED FOR THE BBCON HALF OF THE 2CADR,


000074:                                                                                                  #               SAVING A WORD.   TWIDDLE IS LIKE WAITLIST IN EVERY RESPECT EXCEPT CALLING SEQUENCE, TO WIT-
000075:
000076:                                                                                                  #               L-1    CA     DELTAT
000077:                                                                                                  #               L      TC     TWIDDLE
000078:                                                                                                  #               L+1    ADRES  DESIRED TASK
000079:                                                                                                  #               L+2    RELINT               (RETURNS HERE)
000080:
000081:                                                                                                  #  NORMAL EXIT MODES-
000082:
000083:                                                                                                  #               AT L+3 OF CALLING SEQUENCE
000084:
000085:                                                                                                  #  ALARM OR ABORT EXIT MODES-
000086:
000087:                                                                                                  #               TC     ABORT
000088:                                                                                                  #               OCT    1203   (WAITLIST OVERFLOW - TOO MANY TASKS)
000089:
000090:                                                                                                  #  ERASABLE INITIALIZATION REQUIRED-
000091:
000092:                                                                                                  #               ACCOMPLISHED BY FRESH START,--LST2,..., LST2 +16 =ENDTASK
000093:                                                                                                  #                                             LST1,..., LST1 +7  =NEG1/2
000094:
000095:                                                                                                  #  OUTPUT--
000096:
000097:                                                                                                  #               LST1 AND LST2 UPDATED WITH NEW TASK AND ASSOCIATED TIME.
000098:
000099:                                                                                                  #  DEBRIS-
000100:
000101:                                                                                                  #               CENTRALS- A,Q,L
000102:                                                                                                  #               OTHER   - WAITEXIT, WAITADR, WAITTEMP, WAITBANK
000103:                                                                                                  #  DETAILED ANALYSIS OF TIMING-
000104:
000105:                                                                                                  #          CONTROL WILL NOT BE RETURNED TO THE SPECIFIED ADDRESS (2CADR)   IN EXACTLY DELTA T CENTISECONDS.
000106:                                                                                                  #     THE APPROXIMATE TIME MAY BE CALCULATED AS FOLLOWS
000107:
000108:                                                                                                  #               LET TO = THE TIME OF THE TC WAITLIST
000109:                                                                                                  #               LET TS = TO +147U + COUNTER INCREMENTS (SET UP TIME)
000110:                                                                                                  #               LET X  = TS -(100TS)/100  (VARIANCE FROM COUNTERS)
000111:                                                                                                  #               LET Y  = LENGTH OF TIME OF INHIBIT INTERRUPT AFTER T3RUPT
000112:                                                                                                  #               LET Z  = LENGTH OF TIME TO PROCESS TASKS WHICH ARE DUE THIS T3RUPT BUT DISPATCHED EARLIER.
000113:                                                                                                  #     (Z=0, USUALLY)
000114:                                                                                                  #               LET DELTD = THE ACTUAL TIME TAKEN TO GIVE CONTROL TO 2CADR
000115:                                                                                                  #            THEN   DELTD = TS+DELTA T -X +Y +Z +1.05MS* +COUNTERS*
000116:                                                                                                  #     *-THE TIME TAKEN BY WAITLIST ITSELF AND THE COUNTER TICKING DURING THIS WAITLIST TIME.
000117:
000118:
000119:                                                                                                  #          IN SHORT, THE ACTUAL TIME TO RETURN CONTROL TO A 2CADR IS AUGMENTED BY THE TIME TO SET UP THE TASK:S
000120:                                                                                                  #     INTERRUPT, ALL COUNTERS TICKING, THE T3RUPT PROCESSING TIME, THE WAITLIST PROCESSING TIME AND THE POSSIBILITY
000121:                                                                                                  #     OF OTHER TASKS INHIBITING THE INTERRUPT.
000122:
000123:
000124:    5204                                           BLOCK    02


000126:    5204  E3,1400                                  EBANK=   LST1                                  #  TASK  LISTS IN SWITCHED E BANK.
000127:
000128:    5204                                           COUNT*   $$/WAIT
000129:    5204           00004        TWIDDLE            INHINT
000130:    5205           54001                           TS       L                                     #  SAVE DELAY TIME IN L
000131:    5206           34733                           CA       POSMAX
000132:    5207           26002                           ADS      Q                                     #  CREATING OVERFLOW AND Q-1 IN Q
000133:    5210           30006                           CA       BBANK
000134:    5211           00006                           EXTEND
000135:    5212           04007                           ROR      SUPERBNK
000136:    5213           56001                           XCH      L
000137:
000138:    5214           00004        WAITLIST           INHINT
000139:    5215           56002                           XCH      Q                                     #  SAVE DELTA T IN Q AND RETURN IN
000140:    5216           54061                           TS       WAITEXIT                              #  WAITEXIT.
000141:    5217           00006                           EXTEND
000142:    5220           50061                           INDEX    WAITEXIT                              #  IF TWIDDLING, THE TS SKIPS TO HERE
000143:    5221           30001                           DCA      0                                     #  PICK UP 2CADR OF TASK.
000144:    5222           54063                 -1        TS       WAITADR                               #  BBCON WILL REMAIN IN L
000145:    5223           35231        DLY2               CAF      WAITBB                                #  ENTRY FROM FIXDELAY AND VARDELAY.
000146:    5224           56006                           XCH      BBANK
000147:    5225           13234                           TCF      WAIT2
000148:
000149:                                                                                                  #           RETURN TO CALLER AFTER TASK INSERTION:
000150:
000151:    5226           52062        LVWTLIST           DXCH     WAITEXIT
000152:    5227           64752                           AD       TWO
000153:    5230           52006                           DTCB
000154:
000155:    5231  E3,1400                                  EBANK=   LST1
000156:    5231           02063        WAITBB             BBCON    WAIT2
000157:
000158:                                                                                                  #           RETURN TO CALLER +2 AFTER WAITING DT SPECIFIED AT CALLER +1.
000159:
000160:    5232           50002        FIXDELAY           INDEX    Q                                     #  BOTH ROUTINES MUST BE CALLED UNDER
000161:    5233           30000                           CAF      0                                     #  WAITLIST CONTROL AND TERMINATE THE TASK
000162:    5234           24002                           INCR     Q                                     #  IN WHICH THEY WERE CALLED.
000163:
000164:                                                                                                  #           RETURN TO CALLER +1 AFTER WAITING THE DT AS ARRIVING IN A.
000165:
000166:    5235           56002        VARDELAY           XCH      Q                                     #  DT TO Q. TASK ADRES TO WAITADR.
000167:    5236           54063                           TS       WAITADR
000168:    5237           30006                           CA       BBANK                                 #  BBANK IS SAVED DURING DELAY.
000169:    5240           00006                           EXTEND
000170:    5241           04007                           ROR      SUPERBNK                              #  ADD SBANK TO BBCON.
000171:    5242           54001                           TS       L
000172:    5243           35246                           CAF      DELAYEX
000173:    5244           54061                           TS       WAITEXIT                              #  GO TO TASKOVER AFTER TASK ENTRY.
000174:    5245           15223                           TCF      DLY2
000175:


000177:    5246           15270        DELAYEX            TCF      TASKOVER   -2                         #  RETURNS TO TASKOVER
000178:


000180:                                                                                                  #  ENDTASK MUST BE ENTERED IN FIXED-FIXED SO IT IS DISTINGUISHABLE BY ITS ADRES ALONE.
000181:
000182:    5247  E3,1400                                  EBANK=   LST1
000183:    5247           72526 73714  ENDTASK            -2CADR   SVCT3
000184:
000185:
000186:    5251           10076        SVCT3              CCS      FLAGWRD2                              #  DRIFT FLAG
000187:    5252           15272                           TCF      TASKOVER
000188:    5253           15272                           TCF      TASKOVER
000189:    5254           15255                           TCF      +1
000190:
000191:    5255           11301        CKIMUSE            CCS      IMUCADR                               #  DON'T DO NBDONLY IF SOMEONE ELSE IS IN
000192:    5256           15267                           TCF      SVCT3X                                #  IMUSTALL.
000193:    5257           15262                           TCF      +3
000194:    5260           15267                           TCF      SVCT3X
000195:    5261           15267                           TCF      SVCT3X
000196:
000197:    5262           37735                 +3        CAF      PRIO35                                #  COMPENSATE FOR NBD COEFFICIENTS ONLY.
000198:    5263           05072                           TC       NOVAC                                 #      ENABLE EVERY 81.93 SECONDS
000199:    5264  E3,1460                                  EBANK=   NBDX
000200:    5264           03563 14063                     2CADR    NBDONLY
000201:
000202:    5266           15272                           TCF      TASKOVER
000203:
000204:    5267           05232        SVCT3X             TC       FIXDELAY                              #  DELAY MAX OF 2 TIMES FOR IMUZERO.
000205:    5270           00764                           DEC      500        B-14
000206:    5271           05251                           TC       SVCT3                                 #  CHECK DRIFT FLAG AGAIN.
000207:


000209:                                                                                                  #           BEGIN TASK INSERTION.
000210:
000211: 01,3234                                           BANK     01
000212: 01,3234                                           COUNT*   $$/WAIT
000213: 01,3234           54062        WAIT2              TS       WAITBANK                              #  BBANK OF CALLING PROGRAM.
000214: 01,3235           30002                           CA       Q
000215: 01,3236           00006                           EXTEND
000216: 01,3237           63525                           BZMF     WAITPOOH
000217:
000218: 01,3240           40026                           CS       TIME3
000219: 01,3241           64744                           AD       BIT8                                  #  BIT 8 = OCT 200
000220: 01,3242           10000                           CCS      A                                     #  TEST 200 - C(TIME3).  IF POSITIVE,
000221:                                                                                                  #                                        IT MEANS THAT TIME3 OVERFLOW HAS OCCURRED PRIOR TO CS  TIME3 AND THAT
000222:                                                                                                  #                                        C(TIME3) = T - T1, INSTEAD OF 1.0 - (T1 - T).  THE FOLLOWING FOUR
000223:                                                                                                  #                                        ORDERS SET C(A) = TD - T1 + 1 IN EITHER CASE.
000224:
000225: 01,3243           66121                           AD       OCT40001                              #  OVERFLOW HAS OCCURRED.  SET C(A) =
000226: 01,3244           40000                           CS       A                                     #  T - T1 + 1.0 - 201
000227:
000228:                                                                                                  #  NORMAL CASE (C(A) NNZ) YIELDS SAME C(A):  -( -(1.0-(T1-T)) + 200) - 1
000229:
000230: 01,3245           63373                           AD       OCT40201
000231: 01,3246           60002                           AD       Q                                     #  RESULT = TD - T1 + 1.
000232:
000233: 01,3247           10000                           CCS      A                                     #  TEST TD - T1 + 1
000234:
000235: 01,3250           61400                           AD       LST1                                  #  IF TD - T1 POS, GO TO WTLST5 WITH
000236: 01,3251           13313                           TCF      WTLST5                                #  C(A) = (TD - T1) + C(LST1) = TD-T2+1
000237:
000238: 01,3252           13253                           NOOP
000239: 01,3253           40002                           CS       Q
000240:
000241:                                                                                                  #  NOTE THAT THIS PROGRAM SECTION IS NEVER ENTERED WHEN T-T1 G/E -1,
000242:                                                                                                  #  SINCE TD-T1+1 = (TD-T) + (T-T1+1), AND DELTA T = TD-T G/E +1 .  (G/E
000243:                                                                                                  #  SYMBOL MEANS GREATER THAN OR EQUAL TO).  THUS THERE NEED BE NO CON-
000244:                                                                                                  #  CERN OVER A PREVIOUS OR IMMINENT OVERFLOW OF TIME3 HERE.
000245:
000246: 01,3254           64736                           AD       POS1/2                                #  WHEN TD IS NEXT, FORM QUANTITY
000247: 01,3255           64736                           AD       POS1/2                                #    1.0 - DELTA T = 1.0 - (TD - T)
000248: 01,3256           56026                           XCH      TIME3
000249: 01,3257           64735                           AD       NEGMAX
000250: 01,3260           60002                           AD       Q                                     #  1.0 - DELTAT T NOW COMPLETE.
000251: 01,3261           00006                           EXTEND                                         #  ZERO INDEX Q.
000252: 01,3262           22007                           QXCH     7                                     #  (ZQ)
000253:


000255: 01,3263           57400        WTLST4             XCH      LST1
000256: 01,3264           57401                           XCH      LST1       +1
000257: 01,3265           57402                           XCH      LST1       +2
000258: 01,3266           57403                           XCH      LST1       +3
000259: 01,3267           57404                           XCH      LST1       +4
000260: 01,3270           57405                           XCH      LST1       +5
000261: 01,3271           57406                           XCH      LST1       +6
000262: 01,3272           57407                           XCH      LST1       +7
000263:
000264: 01,3273           30063                           CA       WAITADR                               #  (MINOR PART OF TASK CADR HAS BEEN IN L.)
000265: 01,3274           50002                           INDEX    Q
000266: 01,3275           13276                           TCF      +1
000267:
000268: 01,3276           53411                           DXCH     LST2
000269: 01,3277           53413                           DXCH     LST2       +2
000270: 01,3300           53415                           DXCH     LST2       +4
000271: 01,3301           53417                           DXCH     LST2       +6
000272: 01,3302           53421                           DXCH     LST2       +8D
000273: 01,3303           53423                           DXCH     LST2       +10D                       #  AT END, CHECK THAT C(LST2+10) IS STD
000274: 01,3304           53425                           DXCH     LST2       +12D
000275: 01,3305           53427                           DXCH     LST2       +14D
000276: 01,3306           53431                           DXCH     LST2       +16D
000277: 01,3307           65247                           AD       ENDTASK                               #    END ITEM, AS CHECK FOR EXCEEDING
000278:                                                                                                  #    THE LENGTH OF THE LIST.
000279: 01,3310           00006                           EXTEND                                         #  DUMMY TASK ADRES SHOULD BE IN FIXED-
000280: 01,3311           15226                           BZF      LVWTLIST                              #  FIXED SO ITS ADRES ALONE DISTINGUISHES
000281: 01,3312           13366                           TCF      WTABORT                               #  IT.
000282:


000284: 01,3313           10000        WTLST5             CCS      A                                     #  TEST  TD - T2 + 1
000285: 01,3314           61401                           AD       LST1       +1
000286: 01,3315           13321                           TCF      +4
000287: 01,3316           64753                           AD       ONE
000288: 01,3317           03377                           TC       WTLST2
000289: 01,3320           00001                           OCT      1
000290:
000291: 01,3321           10000                 +4        CCS      A                                     #  TEST  TD - T3 + 1
000292: 01,3322           61402                           AD       LST1       +2
000293: 01,3323           13327                           TCF      +4
000294: 01,3324           64753                           AD       ONE
000295: 01,3325           03377                           TC       WTLST2
000296: 01,3326           00002                           OCT      2
000297:
000298: 01,3327           10000                 +4        CCS      A                                     #  TEST  TD - T4 + 1
000299: 01,3330           61403                           AD       LST1       +3
000300: 01,3331           13335                           TCF      +4
000301: 01,3332           64753                           AD       ONE
000302: 01,3333           03377                           TC       WTLST2
000303: 01,3334           00003                           OCT      3
000304:
000305: 01,3335           10000                 +4        CCS      A                                     #  TEST  TD - T5 + 1
000306: 01,3336           61404                           AD       LST1       +4
000307: 01,3337           13343                           TCF      +4
000308: 01,3340           64753                           AD       ONE
000309: 01,3341           03377                           TC       WTLST2
000310: 01,3342           00004                           OCT      4
000311:
000312: 01,3343           10000                 +4        CCS      A                                     #  TEST  TD - T6 + 1
000313: 01,3344           61405                           AD       LST1       +5
000314: 01,3345           13351                           TCF      +4
000315: 01,3346           64753                           AD       ONE
000316: 01,3347           03377                           TC       WTLST2
000317: 01,3350           00005                           OCT      5
000318:
000319: 01,3351           10000                 +4        CCS      A                                     #  TEST  TD - T7 + 1
000320: 01,3352           61406                           AD       LST1       +6
000321: 01,3353           13357                           TCF      +4
000322: 01,3354           64753                           AD       ONE
000323: 01,3355           03377                           TC       WTLST2
000324: 01,3356           00006                           OCT      6
000325:


000327: 01,3357           10000                 +4        CCS      A
000328: 01,3360           61407                           AD       LST1       +7
000329: 01,3361           13365                           TCF      +4
000330: 01,3362           64753                           AD       ONE
000331: 01,3363           03377                           TC       WTLST2
000332: 01,3364           00007                           OCT      7
000333:
000334: 01,3365           10000                 +4        CCS      A
000335: 01,3366           03374        WTABORT            TC       FILLED
000336: 01,3367           13370                           NOOP                                           #  CAN'T GET HERE
000337: 01,3370           64753                           AD       ONE
000338: 01,3371           03377                           TC       WTLST2
000339: 01,3372           00010                           OCT      10
000340:
000341: 01,3373           40201        OCT40201           OCT      40201
000342:


000344: 01,3374           52062        FILLED             DXCH     WAITEXIT
000345: 01,3375           05717                           TC       BAILOUT1                              #  NO ROOM IN THE INN
000346: 01,3376           31203                           OCT      31203
000347:


000349:                                                                                                  #  THE ENTRY TO WTLST2 JUST PRECEDING OCT  N  IS FOR T  LE TD LE T   -1.
000350:                                                                                                  #                                                     N           N+1
000351:
000352:                                                                                                  #  (LE MEANS LESS THAN OR EQUAL TO).  AT ENTRY, C(A) = -(TD - T   + 1)
000353:                                                                                                  #                                                              N+1
000354:
000355:                                                                                                  #  THE LST1 ENTRY -(T   - T +1) IS TO BE REPLACED BY -(TD - T + 1), AND
000356:                                                                                                  #                    N+1   N                                 N
000357:
000358:                                                                                                  #  THE ENTRY -(T   - TD + 1) IS TO BE INSERTED IMMEDIATELY FOLLOWING.
000359:                                                                                                  #               N+1
000360:
000361: 01,3377           54064        WTLST2             TS       WAITTEMP                              #      C(A) = -(TD - T   + 1)
000362: 01,3400           50002                           INDEX    Q
000363: 01,3401           30000                           CAF      0
000364: 01,3402           54002                           TS       Q                                     #  INDEX VALUE INTO Q.
000365:
000366: 01,3403           34753                           CAF      ONE
000367: 01,3404           60064                           AD       WAITTEMP
000368: 01,3405           50002                           INDEX    Q                                     #  C(A) = -(TD - T ) + 1.
000369: 01,3406           27377                           ADS      LST1       -1                         #                 N
000370:
000371: 01,3407           40064                           CS       WAITTEMP
000372: 01,3410           50002                           INDEX    Q
000373: 01,3411           13263                           TCF      WTLST4
000374:
000375:                                                                                                  #  C(TIME3) = 1.0 - (T1 - T)
000376:
000377:                                                                                                  #  C(LST1  ) = - (T2 - T1) + 1
000378:                                                                                                  #  C(LST1+1) = - (T3 - T2) + 1
000379:                                                                                                  #  C(LST1+2) = - (T4 - T3) + 1
000380:                                                                                                  #  C(LST1+3) = - (T5 - T4) + 1
000381:                                                                                                  #  C(LST1+4) = - (T6 - T5) + 1
000382:
000383:                                                                                                  #  C(LST2   ) = 2CADR  TASK1
000384:                                                                                                  #  C(LST2+2 ) = 2CADR  TASK2
000385:                                                                                                  #  C(LST2+4 ) = 2CADR  TASK3
000386:                                                                                                  #  C(LST2+6 ) = 2CADR  TASK4
000387:                                                                                                  #  C(LST2+8 ) = 2CADR  TASK5
000388:                                                                                                  #  C(LST2+10) = 2CADR  TASK6
000389:


000391:                                                                                                  #           ENTERS HERE ON T3 RUPT TO DISPATCH WAITLISTED TASK.
000392:
000393: 01,3412           00006        T3RUPT             EXTEND
000394: 01,3413           04007                           ROR      SUPERBNK                              #  READ CURRENT SUPERBANK VALUE AND
000395: 01,3414           54016                           TS       BANKRUPT                              #  SAVE WITH E AND F BANK VALUES.
000396: 01,3415           00006                           EXTEND
000397: 01,3416           22012                           QXCH     QRUPT
000398:
000399: 01,3417           34734        T3RUPT2            CAF      NEG1/2                                #  DISPATCH WAITLIST TASK.
000400: 01,3420           57407                           XCH      LST1       +7
000401: 01,3421           57406                           XCH      LST1       +6
000402: 01,3422           57405                           XCH      LST1       +5
000403: 01,3423           57404                           XCH      LST1       +4                         #  1.  MOVE UP LST1 CONTENTS, ENTERING
000404: 01,3424           57403                           XCH      LST1       +3                         #      A VALUE OF 1/2 +1 AT THE BOTTOM
000405: 01,3425           57402                           XCH      LST1       +2                         #      FOR T6-T5, CORRESPONDING TO THE
000406: 01,3426           57401                           XCH      LST1       +1                         #      INTERVAL 81.91 SEC FOR ENDTASK.
000407: 01,3427           57400                           XCH      LST1
000408: 01,3430           64733                           AD       POSMAX                                #  2. SET T3 = 1.0 - T2 -T USING LIST 1.
000409: 01,3431           26026                           ADS      TIME3                                 #  SO T3 WONT TICK DURING UPDATE.
000410: 01,3432           54332                           TS       RUPTAGN
000411: 01,3433           44755                           CS       ZERO
000412: 01,3434           54332                           TS       RUPTAGN                               #  SETS RUPTAGN TO +1 ON OVERFLOW.
000413:
000414: 01,3435           00006                           EXTEND                                         #  DISPATCH TASK.
000415: 01,3436           45250                           DCS      ENDTASK
000416: 01,3437           53431                           DXCH     LST2       +16D
000417: 01,3440           53427                           DXCH     LST2       +14D
000418: 01,3441           53425                           DXCH     LST2       +12D
000419: 01,3442           53423                           DXCH     LST2       +10D
000420: 01,3443           53421                           DXCH     LST2       +8D
000421: 01,3444           53417                           DXCH     LST2       +6
000422: 01,3445           53415                           DXCH     LST2       +4
000423: 01,3446           53413                           DXCH     LST2       +2
000424: 01,3447           53411                           DXCH     LST2
000425:
000426: 01,3450           56001                           XCH      L
000427: 01,3451           00006                           EXTEND
000428: 01,3452           01007                           WRITE    SUPERBNK                              #  SET SUPERBANK FROM BBCON OF 2CADR
000429: 01,3453           56001                           XCH      L                                     #  RESTORE TO L FOR DXCH Z.
000430: 01,3454           52006                           DTCB
000431:


000433:                                                                                                  #           RETURN, AFTER EXECUTION OF T3 OVERFLOW TASK:
000434:
000435:    5272                                           BLOCK    02
000436:    5272                                           COUNT*   $$/WAIT
000437:    5272           10332        TASKOVER           CCS      RUPTAGN                               #  IF +1 RETURN TO T3RUPT, IF -0 RESUME.
000438:    5273           35231                           CAF      WAITBB
000439:    5274           54006                           TS       BBANK
000440:    5275           13417                           TCF      T3RUPT2                               #  DISPATCH NEXT TASK IF IT WAS DUE.
000441:
000442:    5276           30016                           CA       BANKRUPT
000443:    5277           00006                           EXTEND
000444:    5300           01007                           WRITE    SUPERBNK                              #  RESTORE SUPERBANK BEFORE RESUME IS DONE
000445:
000446:    5301           00006        RESUME             EXTEND
000447:    5302           22012                           QXCH     QRUPT
000448:    5303           30016        NOQRSM             CA       BANKRUPT
000449:    5304           56006                           XCH      BBANK
000450:    5305           52011        NOQBRSM            DXCH     ARUPT
000451:    5306           00003                           RELINT
000452:    5307           50017                           RESUME
000453:


000455:                                                                                                  #  LONGCALL
000456:
000457:                                                                                                  #  PROGRAM DESCRIPTION                                  DATE- 17 MARCH 1967
000458:                                                                                                  #  PROGRAM WRITTEN BY W.H. VANDEVER                    LOG SECTION WAITLIST
000459:                                                                                                  #  MOD BY- R. MELANSON TO ADD DOCUMENTATION       ASSEMBLY SUNDISK REV. 100
000460:
000461:                                                                                                  #  FUNCTIONAL DESCRIPTION-
000462:                                                                                                  #  LONGCALL IS CALLED WITH THE DELTA TIME ARRIVING IN A,L SCALED AS TIME2,TIME1 WITH THE 2CADR OF THE TASK
000463:                                                                                                  #  IMMEDIATELY FOLLOWING THE TC LONGCALL.  FOR EXAMPLE, IT MIGHT BE DONE AS FOLLOWS WHERE TIMELOC IS THE NAME OF
000464:                                                                                                  #  A DP REGISTER CONTAINING A DELTA TIME AND WHERE TASKTODO IS THE NAME OF THE LOCATION AT WHICH LONGCALL IS TO
000465:                                                                                                  #  START
000466:
000467:                                                                                                  #  CALLING SEQUENCE-
000468:                                                                                                  #                                                   EXTEND
000469:                                                                                                  #                                                   DCA    TIMELOC
000470:                                                                                                  #                                                   TC     LONGCALL
000471:                                                                                                  #                                                   2CADR  TASKTODO
000472:
000473:                                                                                                  #  NORMAL EXIT MODE-
000474:                                                                                                  #     1). TC    WAITLIST
000475:                                                                                                  #     2). DTCB  (TO L+3 OF CALLING ROUTINE 1ST PASS THRU LONGCYCL)
000476:                                                                                                  #     3). DTCB  (TO TASKOVER ON SUBSEQUENT PASSES THRU LONGCYCL)
000477:
000478:                                                                                                  #  ALARM OR ABORT EXIT MODE-
000479:                                                                                                  #     NONE
000480:
000481:                                                                                                  #  OUTPUT-
000482:                                                                                                  #     LONGTIME AND LONGTIME+1 = DELTA TIME
000483:                                                                                                  #     LONGEXIT AND LONGEXIT+1 = RETURN 2CADR
000484:                                                                                                  #     LONGCADR AND LONGCADR+1 = TASK 2CADR
000485:                                                                                                  #     A = SINGLE PRECISION TIME FOR WAITLIST
000486:
000487:                                                                                                  #  ERASABLE INITIALIZATION-
000488:                                                                                                  #     A = MOST SIGNIFICANT PART OF DELTA TIME
000489:                                                                                                  #     L = LEAST SIGNIFICANT PART OF DELTA TIME
000490:                                                                                                  #     Q = ADDRESS OF 2CADR TASK VALUE
000491:
000492:                                                                                                  #  DEBRIS-
000493:                                                                                                  #     A,Q,L
000494:                                                                                                  #     LONGCADR AND LONGCADR+1
000495:                                                                                                  #     LONGEXIT AND LONGEXIT+1
000496:                                                                                                  #     LONGTIME AND LONGTIME+1
000497:
000498:                                                                                                  #  *** THE FOLLOWING IS TO BE IN FIXED-FIXED AND UNSWITCHED ERRASIBLE ***
000499:
000500:    5310                                           BLOCK    02
000501:    5310  E3,1400                                  EBANK=   LST1
000502:    5310           53153        LONGCALL           DXCH     LONGTIME                              #  OBTAIN THE DELTA TIME
000503:
000504:    5311           00006                           EXTEND                                         #  OBTAIN THE 2CADR


000506:    5312           50002                           NDX      Q
000507:    5313           30001                           DCA      0
000508:    5314           53147                           DXCH     LONGCADR
000509:
000510:    5315           00006                           EXTEND                                         #  NOW GO TO THE APPROPRIATE SWITCHED BANK
000511:    5316           35321                           DCA      LGCL2CDR                              #  FOR THE REST OF LONGCALL
000512:    5317           52006                           DTCB
000513:
000514:    5320  E3,1400                                  EBANK=   LST1
000515:    5320           03455 02063  LGCL2CDR           2CADR    LNGCALL2
000516:
000517:                                                                                                  #  *** THE FOLLOWING MAY BE IN A SWITCHED BANK, INCLUDING ITS ERASABLE ***
000518:
000519: 01,3455                                           BANK     01
000520: 01,3455                                           COUNT*   $$/WAIT
000521: 01,3455           23435        LNGCALL2           LXCH     LONGEXIT   +1                         #  SAVE THE CORRECT BB FOR RETURN
000522: 01,3456           34752                           CA       TWO                                   #  OBTAIN THE RETURN ADDRESS
000523: 01,3457           26002                           ADS      Q
000524: 01,3460           55434                           TS       LONGEXIT
000525:
000526: 01,3461           31152                           CA       LONGTIME                              #  CHECK FOR LEGITIMATE DELTA-TIME
000527: 01,3462           10000                           CCS      A
000528: 01,3463           13471                           TCF      LONGCYCL                              #  HI-ORDER OK --> ALL IS OK.
000529: 01,3464           13466                           TCF      +2                                    #  HI-ORDER ZERO --> CHECK LO-ORDER.
000530: 01,3465           13523                           TCF      LONGPOOH                              #  HI-ORDER NEG. --> NEG. DT
000531: 01,3466           31153                 +2        CA       LONGTIME   +1                         #  CHECK LO-ORDER FOR ZERO OR NEGATIVE.
000532: 01,3467           00006                           EXTEND
000533: 01,3470           63523                           BZMF     LONGPOOH                              #  BAD DELTA-TIME.  ABORT
000534:
000535:                                                                                                  #           *** WAITLIST TASK LONGCYCL ***
000536: 01,3471           00006        LONGCYCL           EXTEND                                         #  CAN WE SUCCESFULLY TAKE ABOUT 1.25
000537: 01,3472           43503                           DCS      DPBIT14                               #  MINUTES OFF OF LONGTIME
000538: 01,3473           21153                           DAS      LONGTIME
000539:
000540: 01,3474           11153                           CCS      LONGTIME   +1                         #  THE REASONIBG BEHIND THIS PART IS
000541: 01,3475           13513                           TCF      MUCHTIME                              #  INVOLVED, TAKING INTO ACCOUNT THAT THE
000542:                                                                                                  #  WORDS MAY NOT BE SIGNED CORRECTED (DP
000543:                                                                                                  #  BASIC INSTRUCTIONS
000544:                                                                                                  #  DO NOT SIGN CORRECT) AND THAT WE SUBTRAC
000545:                                                                                                  #  TED BIT14 (1 OVER HALF THE POS. VALUE
000546:                                                                                                  #  REPRESENTIBLE IN SINGLE WORD)
000547: 01,3476           13477                           NOOP                                           #  CAN:T GET HERE    **********
000548: 01,3477           13500                           TCF      +1
000549: 01,3500           11152                           CCS      LONGTIME
000550: 01,3501           13513                           TCF      MUCHTIME
000551: 01,3502           00000        DPBIT14            OCT      00000
000552: 01,3503           20000                           OCT      20000
000553:                                                                                                  #  LONGCALL
000554:


000556: 01,3504           34736        LASTTIME           CA       BIT14                                 #  GET BACK THE CORRECT DELTA TFOR WAITLIST
000557: 01,3505           27153                           ADS      LONGTIME   +1
000558: 01,3506           05204                           TC       TWIDDLE
000559: 01,3507  E3,1400                                  EBANK=   LST1
000560: 01,3507           03520                           ADRES    GETCADR
000561: 01,3510           33522        LONGRTRN           CA       TSKOVCDR                              #  SET IT UP SO THAT ONLY THE FIRST EXIT IS
000562: 01,3511           53435                           DXCH     LONGEXIT                              #  TO THE CALLER OF LONGCALL
000563: 01,3512           52006                           DTCB                                           #  THE REST ARE TO TASKOVER
000564:
000565: 01,3513           34736        MUCHTIME           CA       BIT14                                 #  WE HAVE OVER OUR ABOUT 1.25 MINUTES
000566: 01,3514           05214                           TC       WAITLIST                              #  SO SET UP FOR ANOTHER CYCLE THROUGH HERE
000567: 01,3515  E3,1400                                  EBANK=   LST1
000568: 01,3515           03471 02063                     2CADR    LONGCYCL
000569:
000570:
000571: 01,3517           13510                           TCF      LONGRTRN                              #  NOW EXIT PROPERLY
000572:
000573:                                                                                                  #           *** WAITLIST TASK GETCADR ***
000574: 01,3520           53147        GETCADR            DXCH     LONGCADR                              #  GET THE LONGCALL THAT WE WISHED TO START
000575: 01,3521           15176                           TCF      SUPDXCHZ                              #  AND TRANSFER CONTROL
000576: 01,3522           05272        TSKOVCDR           GENADR   TASKOVER
000577: 01,3523           53435        LONGPOOH           DXCH     LONGEXIT
000578: 01,3524           13526                           TCF      +2
000579: 01,3525           52062        WAITPOOH           DXCH     WAITEXIT
000580: 01,3526           05727                 +2        TC       POODOO1
000581: 01,3527           21204                           OCT      21204

End of include-file WAITLIST.agc.  Parent file is MAIN.agc


