
Source Code


000002:                                                                                                  ## Copyright:   Public domain.
000003:                                                                                                  ## Filename:    ALARM_AND_ABORT.agc
000004:                                                                                                  ## Purpose:     A section of the reconstructed source code for Luminary 130.
000005:                                                                                                  ##              This was the original program released for the Apollo 13 LM,
000006:                                                                                                  ##              although several more revisions would follow. It has been
000007:                                                                                                  ##              reconstructed from a listing of Luminary 131, from which it
000008:                                                                                                  ##              differs on only two lines in P70-P71. The difference is
000009:                                                                                                  ##              described in detail in Luminary memo #129, which was used
000010:                                                                                                  ##              to perform the reconstruction. This file is intended to be a
000011:                                                                                                  ##              faithful reconstruction, except that the code format has been
000012:                                                                                                  ##              changed to conform to the requirements of the yaYUL assembler
000013:                                                                                                  ##              rather than the original YUL assembler.
000014:                                                                                                  ## Reference:   pp. 1373-1377
000015:                                                                                                  ## Contact:     Ron Burkey <info@sandroid.org>.
000016:                                                                                                  ## Website:     www.ibiblio.org/apollo/index.html
000017:                                                                                                  ## Mod history: 06/07/03 RSB.   Began transcribing.
000018:                                                                                                  ##              05/14/05 RSB    Corrected website reference above.
000019:                                                                                                  ##              2010-10-25 JL   Indentation fixes.
000020:                                                                                                  ##              2011-06-07 JL   Removed workarounds.
000021:                                                                                                  ##              2017-01-06 RSB  Page numbers now agree with those on the
000022:                                                                                                  ##                              original hardcopy, as opposed to the PDF page
000023:                                                                                                  ##                              numbers in 1701.pdf.
000024:                                                                                                  ##              2017-02-28 RSB  Proofed comment text using octopus/ProoferComments.
000025:                                                                                                  ##              2017-03-10 RSB  Comment-text fixes noted in proofing Luminary 116.
000026:                                                                                                  ##              2018-09-04 MAS  Copied from Luminary 131 for Luminary 130.
000027:


000029:                                                                                                  #  THE FOLLOWING SUBROUTINE MAY BE CALLED TO DISPLAY A NON-ABORTIVE ALARM CONDITION.  IT MAY BE CALLED
000030:                                                                                                  #  EITHER IN INTERRUPT OR UNDER EXECUTIVE CONTROL.
000031:
000032:                                                                                                  #  CALLING SEQUENCE IS AS FOLLOWS:
000033:                                                                                                  #                TC      ALARM
000034:                                                                                                  #                OCT     AAANN           ALARM NO. NN IN GENERAL AREA AAA.
000035:                                                                                                  #                                        (RETURNS HERE)
000036:
000037:    5567                                           BLOCK    02
000038:    4000                                           SETLOC   FFTAG7
000039:    4000                                           BANK
000040:
000041:    5567     0375                                  EBANK=   FAILREG
000042:
000043:    5567                                           COUNT*   $$/ALARM
000044:
000045:                                                                                                  #  ALARM TURNS ON THE PROGRAM ALARM LIGHT, BUT DOES NOT DISPLAY.
000046:
000047:    5567           00004        ALARM              INHINT
000048:
000049:    5570           30002                           CA       Q
000050:    5571           55363        ALARM2             TS       ALMCADR
000051:    5572           50002                           INDEX    Q
000052:    5573           30000                           CA       0
000053:    5574           54001        BORTENT            TS       L
000054:
000055:    5575           30006        PRIOENT            CA       BBANK
000056:    5576           00006                 +1        EXTEND
000057:    5577           04007                           ROR      SUPERBNK                              #  ADD SUPER BITS.
000058:    5600           55364                           TS       ALMCADR    +1
000059:
000060:    5601           30002        LARMENT            CA       Q                                     #  STORE RETURN FOR ALARM
000061:    5602           54061                           TS       ITEMP1
000062:
000063:    5603           10375        CHKFAIL1           CCS      FAILREG                               #  IS ANYTHING IN FAILREG
000064:    5604           15610                           TCF      CHKFAIL2                              #  YES TRY NEXT REG
000065:    5605           30001                           CA       L
000066:    5606           54375                           TS       FAILREG
000067:    5607           15614                           TCF      PROGLARM                              #  TURN ALARM LIGHT ON FOR FIRST ALARM
000068:
000069:    5610           10376        CHKFAIL2           CCS      FAILREG    +1
000070:    5611           15614                           TCF      PROGLARM
000071:    5612           30001                           CA       L
000072:    5613           54376                           TS       FAILREG    +1
000073:
000074:    5614           22377        PROGLARM           LXCH     FAILREG    +2                         #  STORE AS "MOST RECENT" ALARM CODE
000075:
000076:    5615           41035                           CS       DSPTAB     +11D                       #  TURN ON PROGRAM ALARM IF OFF
000077:    5616           75632                           MASK     OCT40400
000078:    5617           27035                           ADS      DSPTAB     +11D
000079:


000081:    5620           56061        MULTEXIT           XCH      ITEMP1                                #  OBTAIN RETURN ADDRESS IN A
000082:    5621           00003                           RELINT
000083:    5622           50000                           INDEX    A
000084:    5623           00001                           TC       1
000085:
000086:                                                                                                  #  PRIOLARM DISPLAYS V05N09 VIA PRIODSPR WITH 3 RETURNS TO THE USER FROM THE ASTRONAUT AT CALL LOC +1,+2,+3 AND
000087:                                                                                                  #  AN IMMEDIATE RETURN TO THE USER AT CALL LOC +4.  EXAMPLE FOLLOWS,
000088:                                                                                                  #                CAF     OCTXX           ALARM CODE
000089:                                                                                                  #                TC      BANKCALL
000090:                                                                                                  #                CADR    PRIOLARM
000091:                                                                                                  #                ...     ...
000092:                                                                                                  #                ...     ...
000093:                                                                                                  #                ...     ...             ASTRONAUT RETURN
000094:                                                                                                  #                TC      PHASCHNG        IMMEDIATE RETURN TO USER.  RESTART
000095:                                                                                                  #                OCT     X.1             PHASE CHANGE FOR PRIO DISPLAY
000096:
000097: 10,3563                                           BANK     10
000098: 10,2000                                           SETLOC   DISPLAYS
000099: 10,2000                                           BANK
000100:
000101: 10,3563                                           COUNT*   $$/DSPLA
000102: 10,3563           00004        PRIOLARM           INHINT                                         #  * * * KEEP IN DISPLAY ROUTINES BANK
000103: 10,3564           54001                           TS       L                                     #  SAVE ALARM CODE
000104:
000105: 10,3565           30133                           CA       BUF2                                  #  2 CADR OF PRIOLARM USER
000106: 10,3566           55363                           TS       ALMCADR
000107: 10,3567           30134                           CA       BUF2       +1
000108: 10,3570           05576                           TC       PRIOENT    +1                         #  * LEAVE L ALONE
000109: 10,3571           77467        -2SEC              DEC      -200       B-14                       #  *** DONT MOVE
000110: 10,3572           35006                           CAF      V05N09
000111: 10,3573           12505                           TCF      PRIODSPR
000112:
000113:    5624                                           BLOCK    02
000114:    4000                                           SETLOC   FFTAG7
000115:    4000                                           BANK
000116:
000117:    5624                                           COUNT*   $$/ALARM
000118:    5624           00004        BAILOUT            INHINT
000119:    5625           30002                           CA       Q
000120:    5626           55363                           TS       ALMCADR
000121:
000122:    5627           50002                           INDEX    Q
000123:    5630           30000                           CAF      0
000124:    5631           05574                           TC       BORTENT
000125:    5632           40400        OCT40400           OCT      40400
000126:
000127:    5633           00004                           INHINT
000128:    5634           34752        WHIMPER            CA       TWO
000129:    5635           60005                           AD       Z


000131:    5636           54017                           TS       BRUPT
000132:    5637           50017                           RESUME
000133:    5640           04635                           TC       POSTJUMP                              #  RESUME SENDS CONTROL HERE
000134:    5641           12763                           CADR     ENEMA
000135:    5642           00004        POODOO             INHINT
000136:    5643           30002                           CA       Q
000137:    5644           55363        ABORT2             TS       ALMCADR
000138:    5645           50002                           INDEX    Q
000139:    5646           30000                           CAF      0
000140:    5647           05574                           TC       BORTENT
000141:    5650           77770        OCT77770           OCT      77770                                 #  DON'T MOVE
000142:
000143:    5651           34765                           CAF      OCT35                                 #  4.35SPOT FOR GOPOODOO
000144:    5652           54001                           TS       L
000145:    5653           40000                           COM
000146:    5654           52760                           DXCH     -PHASE4
000147:    5655           00004        GOPOODOO           INHINT
000148:    5656           04616                           TC       BANKCALL                              #  RESET STATEFLG, REINTFLG, AND NODOFLAG.
000149:    5657           27746                           CADR     FLAGS
000150:    5660           30103                           CA       FLAGWRD7                              #  IS SERVICER CURRENTLY IN OPERATION?
000151:    5661           74746                           MASK     V37FLBIT
000152:    5662           10000                           CCS      A
000153:    5663           15671                           TCF      STRTIDLE
000154:    5664           04616                           TC       BANKCALL                              #  TERMINATE GRPS 1, 3, 5, AND 6
000155:    5665           12650                           CADR     V37KLEAN
000156:    5666           04616                           TC       BANKCALL                              #  TERMINATE GRPS 2, 4, 1, 3, 5, AND 6
000157:    5667           12641                           CADR     MR.KLEAN                              #        (I.E., GRP 4 LAST)
000158:    5670           15634                           TCF      WHIMPER
000159:    5671           35733        STRTIDLE           CAF      BBSERVDL
000160:    5672           04727                           TC       SUPERSW
000161:    5673           04616                           TC       BANKCALL                              #  PUT SERVICER INTO ITS "GROUND" STATE
000162:    5674           57322                           CADR     SERVIDLE                              #  AND PROCEED TO GOTOPOOH.
000163:    5675           00004        CCSHOLE            INHINT
000164:    5676           30002                           CA       Q
000165:    5677           05644                           TC       ABORT2
000166:    5700           21103        OCT21103           OCT      21103
000167:    5701           00004        CURTAINS           INHINT
000168:    5702           30002                           CA       Q
000169:    5703           05571                           TC       ALARM2
000170:    5704           00217        OCT217             OCT      00217
000171:    5705           01363                           TC       ALMCADR                               #  RETURN TO USER
000172:
000173:    5706           00004        BAILOUT1           INHINT
000174:    5707           53364                           DXCH     ALMCADR
000175:    5710           35732                           CAF      ADR40400
000176:    5711           54061        BOTHABRT           TS       ITEMP1
000177:    5712           50002                           INDEX    Q
000178:    5713           30000                           CAF      0
000179:    5714           54001                           TS       L
000180:    5715           15603                           TCF      CHKFAIL1
000181:


000183:    5716           00004        POODOO1            INHINT
000184:    5717           53364                           DXCH     ALMCADR
000185:    5720           35731                           CAF      ADR77770
000186:    5721           15711                           TCF      BOTHABRT
000187:
000188:    5722           00004        ALARM1             INHINT
000189:    5723           53364                           DXCH     ALMCADR
000190:    5724           00004        ALMNCADR           INHINT
000191:    5725           50002                           INDEX    Q
000192:    5726           30000                           CA       0
000193:    5727           54001                           TS       L
000194:    5730           15601                           TCF      LARMENT
000195:
000196:    5731           15650        ADR77770           TCF      OCT77770
000197:    5732           15632        ADR40400           TCF      OCT40400
000198:    5733     5155               DOALARM            EQUALS   ENDOFJOB
000199:    5733  E7,1515                                  EBANK=   DVCNTR
000200:    5733           56067        BBSERVDL           BBCON    SERVIDLE
000201:
000202:                                                                                                  #  CALLING SEQUENCE FOR VARALARM
000203:                                                                                                  #                CAF     (ALARM)
000204:                                                                                                  #                TC      VARALARM
000205:
000206:                                                                                                  #  VARALARM TURNS ON PROGRAM ALARM LIGHT BUT DOES NOT DISPLAY
000207:
000208:    5734           00004        VARALARM           INHINT
000209:
000210:    5735           54001                           TS       L                                     #  SAVE USERS ALARM CODE
000211:
000212:    5736           30002                           CA       Q                                     #  SAVE USERS Q
000213:    5737           55363                           TS       ALMCADR
000214:
000215:    5740           05575                           TC       PRIOENT
000216:    5741           00014        OCT14              OCT      14                                    #  DONT MOVE
000217:
000218:    5742           01363                           TC       ALMCADR                               #  RETURN TO USER
000219:
000220:    5743     5634               ABORT              EQUALS   WHIMPER
000221: 13,3746                                           BANK     13
000222: 13,2000                                           SETLOC   ABTFLGS
000223: 13,2000                                           BANK
000224: 13,3746                                           COUNT*   $$/ALARM
000225:
000226: 13,3746           44747        FLAGS              CS       STATEBIT
000227: 13,3747           70077                           MASK     FLAGWRD3
000228: 13,3750           54077                           TS       FLAGWRD3
000229: 13,3751           44745                           CS       REINTBIT
000230: 13,3752           70106                           MASK     FLGWRD10
000231: 13,3753           54106                           TS       FLGWRD10
000232: 13,3754           44753                           CS       NODOBIT
000233: 13,3755           70076                           MASK     FLAGWRD2
000234:


000236: 13,3756           54076                           TS       FLAGWRD2
000237: 13,3757           00002                           TC       Q
000238:
000239:

End of include-file ALARM_AND_ABORT.agc.  Parent file is MAIN.agc


