
Source Code


000002:                                                                                                  ## Copyright:   Public domain.
000003:                                                                                                  ## Filename:    DAP_INTERFACE_SUBROUTINES.agc
000004:                                                                                                  ## Purpose:     A section of the reconstructed source code for Luminary 130.
000005:                                                                                                  ##              This was the original program released for the Apollo 13 LM,
000006:                                                                                                  ##              although several more revisions would follow. It has been
000007:                                                                                                  ##              reconstructed from a listing of Luminary 131, from which it
000008:                                                                                                  ##              differs on only two lines in P70-P71. The difference is
000009:                                                                                                  ##              described in detail in Luminary memo #129, which was used
000010:                                                                                                  ##              to perform the reconstruction. This file is intended to be a
000011:                                                                                                  ##              faithful reconstruction, except that the code format has been
000012:                                                                                                  ##              changed to conform to the requirements of the yaYUL assembler
000013:                                                                                                  ##              rather than the original YUL assembler.
000014:                                                                                                  ## Reference:   pp. 1398-1401
000015:                                                                                                  ## Contact:     Ron Burkey <info@sandroid.org>.
000016:                                                                                                  ## Website:     www.ibiblio.org/apollo/index.html
000017:                                                                                                  ## Mod history: 06/07/03 RSB.   Began transcribing.
000018:                                                                                                  ##              05/14/05 RSB    Corrected website reference above.
000019:                                                                                                  ##              2010-10-25 JL   Indentation fixes.
000020:                                                                                                  ##              2017-01-06 RSB  Page numbers now agree with those on the
000021:                                                                                                  ##                              original hardcopy, as opposed to the PDF page
000022:                                                                                                  ##                              numbers in 1701.pdf.
000023:                                                                                                  ##              2017-02-28 RSB  Proofed comment text using octopus/ProoferComments.
000024:                                                                                                  ##              2017-03-01 RSB  Fixed lingering comment-text typos.
000025:                                                                                                  ##              2017-03-10 RSB  Comment-text fixes noted in proofing Luminary 116.
000026:                                                                                                  ##              2018-09-04 MAS  Copied from Luminary 131 for Luminary 130.
000027:


000029: 20,2115                                           BANK     20
000030: 20,2000                                           SETLOC   DAPS3
000031: 20,2000                                           BANK
000032:
000033: 20,2115  E6,1634                                  EBANK=   CDUXD
000034: 20,2115                                           COUNT*   $$/DAPIF
000035:
000036:                                                                                                  #  MOD 0         DATE    11/15/66        BY GEORGE W. CHERRY
000037:                                                                                                  #  MOD 1                  1/23/67        MODIFICATION BY PETER ADLER
000038:
000039:                                                                                                  #  FUNCTIONAL DESCRIPTION
000040:                                                                                                  #        HEREIN ARE A COLLECTION OF SUBROUTINES WHICH ALLOW MISSION CONTROL PROGRAMS TO CONTROL THE MODE
000041:                                                                                                  #        AND INTERFACE WITH THE DAP.
000042:
000043:                                                                                                  #  CALLING SEQUENCES
000044:                                                                                                  #        IN INTERRUPT OR WITH INTERRUPT INHIBITED
000045:                                                                                                  #                TC      IBNKCALL
000046:                                                                                                  #                FCADR   ROUTINE
000047:                                                                                                  #        IN A JOB WITHOUT INTERRUPT INHIBITED
000048:                                                                                                  #                INHINT
000049:                                                                                                  #                TC      IBNKCALL
000050:                                                                                                  #                FCADR   ROUTINE
000051:                                                                                                  #                RELINT
000052:
000053:                                                                                                  #  OUTPUT
000054:                                                                                                  #        SEE INDIVIDUAL ROUTINES BELOW
000055:
000056:                                                                                                  #  DEBRIS
000057:                                                                                                  #        A, L, AND SOMETIMES MDUETEMP                                    ODE     NOT IN PULSES MODE
000058:


000060:                                                                                                  #  SUBROUTINE NAMES:
000061:                                                                                                  #        SETMAXDB, SETMINDB, RESTORDB, PFLITEDB
000062:                                                                                                  #  MODIFIED:     30 JANUARY 1968 BY P S WEISSMAN TO CREATE RESTORDB.
000063:                                                                                                  #  MODIFIED:     1 MARCH 1968 BY P S WEISSMAN TO SAVE EBANK AND CREATE PFLITEDB
000064:
000065:                                                                                                  #  FUNCTIONAL DESCRIPTION:
000066:                                                                                                  #        SETMAXDB - SET DEADBAND TO 5.0 DEGREES
000067:                                                                                                  #        SETMINDB - SET DEADBAND TO 0.3 DEGREE
000068:                                                                                                  #        RESTORDB - SET DEADBAND TO .3, 1, OR 5 ACCORDING TO BITS 4 AND 5 OF DAPBOOLS
000069:                                                                                                  #        PFLITEDB - SET DEADBAND TO 1.0 DEGREE AND ZERO THE COMMANDED ATTITUDE CHANGE AND COMMANDED RATE
000070:
000071:                                                                                                  #        ALL ENTRIES SET UP A NOVAC JOB TO DO 1/ACCS SO THAT THE TJETLAW SWITCH CURVES ARE POSITIONED TO
000072:                                                                                                  #        REFLECT THE NEW DEADBAND.  IT SHOULD BE NOTED THAT THE DEADBAND REFERS TO THE ATTITUDE IN THE P-, U-, AND V-AXES.
000073:
000074:                                                                                                  #  SUBROUTINE CALLED:    NOVAC
000075:
000076:                                                                                                  #  CALLING SEQUENCE:     SAME AS ABOVE
000077:                                                                                                  #                        OR      TC RESTORDB +1    FROM ALLCOAST
000078:
000079:                                                                                                  #  DEBRIS:               A, L, Q, RUPTREG1, (ITEMPS IN NOVAC)
000080:
000081: 20,2115           30111        RESTORDB           CAE      DAPBOOLS                              #  DETERMINE CREW-SELECTED DEADBAND.
000082: 20,2116           74747                           MASK     DBSLECT2                              #  CHECK FOR MAX DB (5 DEG)
000083: 20,2117           00006                           EXTEND
000084: 20,2120           12122                           BZF      +2
000085: 20,2121           12130                           TCF      SETMAXDB                              #  BIT5 DAPBOOLS IS SET - CREW WANTS 5 DEG
000086: 20,2122           30111                           CAE      DAPBOOLS
000087: 20,2123           74750                           MASK     DBSELECT                              #  CHECK FOR 1 DEG DEADBAND SELECTION
000088: 20,2124           00006                           EXTEND
000089: 20,2125           12141                           BZF      SETMINDB
000090:
000091: 20,2126           32153                           CAF      POWERDB                               #  BIT4 DAPBOOLS IS SET - CREW WANTS 1 DEG
000092: 20,2127           12131                           TCF      SETMAXDB   +1
000093: 20,2130           32152        SETMAXDB           CAF      WIDEDB                                #  SET 5 DEGREE DEADBAND.
000094: 20,2131           55343                 +1        TS       DB
000095:
000096: 20,2132           00006                           EXTEND                                         #  SET UP JOB TO RE-POSITION SWITCH CURVES.
000097: 20,2133           22070                           QXCH     RUPTREG1
000098: 20,2134           37720        CALLACCS           CAF      PRIO27
000099: 20,2135           05072                           TC       NOVAC
000100: 20,2136  E6,1536                                  EBANK=   AOSQ
000101: 20,2136           03652 42106                     2CADR    1/ACCJOB
000102:
000103: 20,2140           00070                           TC       RUPTREG1                              #  RETURN TO CALLER.
000104:
000105: 20,2141           32151        SETMINDB           CAF      NARROWDB                              #  SET 0.3 DEGREE DEADBAND.
000106: 20,2142           12131                           TCF      SETMAXDB   +1
000107:


000109: 20,2143           00006        PFLITEDB           EXTEND                                         #  THE RETURN FROM CALLACCS IS TO RUPTREG1.
000110: 20,2144           22070                           QXCH     RUPTREG1
000111: 20,2145           02154                           TC       ZATTEROR                              #  ZERO THE ERRORS AND COMMANDED RATES.
000112: 20,2146           32153                           CAF      POWERDB                               #  SET DB TO 1.0 DEG.
000113: 20,2147           55343                           TS       DB
000114: 20,2150           12134                           TCF      CALLACCS                              #  SET UP 1/ACCS AND RETURN TO CALLER.
000115: 20,2151           00155        NARROWDB           OCTAL    00155                                 #  0.3 DEGREE SCALED AT 45.
000116: 20,2152           03434        WIDEDB             OCTAL    03434                                 #  5.0 DEGREES SCALED AT 45.
000117: 20,2153           00554        POWERDB            DEC      .02222                                #  1.0 DEGREE SCALED AT 45.
000118:
000119: 20,2154           35015        ZATTEROR           CAF      EBANK6
000120: 20,2155           56003                           XCH      EBANK
000121: 20,2156           54001                           TS       L                                     #  SAVE CALLERS EBANK IN L.
000122: 20,2157           30032                           CAE      CDUX
000123: 20,2160           55634                           TS       CDUXD
000124: 20,2161           30033                           CAE      CDUY
000125: 20,2162           55635                           TS       CDUYD
000126: 20,2163           30034                           CAE      CDUZ
000127: 20,2164           55636                           TS       CDUZD
000128: 20,2165           12171                           TCF      STOPRATE   +3
000129:
000130: 20,2166           35015        STOPRATE           CAF      EBANK6
000131: 20,2167           56003                           XCH      EBANK
000132: 20,2170           54001                           TS       L                                     #  SAVE CALLERS EBANK IN L.
000133: 20,2171           34755                 +3        CAF      ZERO
000134: 20,2172           55642                           TS       OMEGAPD
000135: 20,2173           55643                           TS       OMEGAQD
000136: 20,2174           55644                           TS       OMEGARD
000137: 20,2175           55637                           TS       DELCDUX
000138: 20,2176           55640                           TS       DELCDUY
000139: 20,2177           55641                           TS       DELCDUZ
000140: 20,2200           55274                           TS       DELPEROR
000141: 20,2201           55275                           TS       DELQEROR
000142: 20,2202           55276                           TS       DELREROR
000143: 20,2203           22003                           LXCH     EBANK                                 #  RESTORE CALLERS EBANK.
000144: 20,2204           00002                           TC       Q
000145:
000146:                                                                                                  #  SUBROUTINE NAME:      ALLCOAST
000147:                                                                                                  #  WILL BE CALLED BY FRESH STARTS AND ENGINE OFF ROUTINES.               .
000148:
000149:                                                                                                  #  CALLING SEQUENCE:     (SAME AS ABOVE)
000150:
000151:                                                                                                  #  EXIT:                 RETURN TO Q.
000152:
000153:                                                                                                  #  SUBROUTINES CALLED:   STOPRATE, RESTORDB, NOVAC
000154:
000155:                                                                                                  #  ZERO:                 (FOR ALL AXES) AOS, ALPHA, AOSTERM, OMEGAD, DELCDU, DELEROR


000157:
000158:                                                                                                  #  OUTPUT:               DRIFTBIT/DAPBOOLS, DB, JOB TO DO 1/ACCS
000159:
000160:                                                                                                  #  DEBRIS:               A, L, Q, RUPTREG1, RUPTREG2, (ITEMPS IN NOVAC)
000161:
000162: 20,2205           00006        ALLCOAST           EXTEND                                         #  SAVE Q FOR RETURN
000163: 20,2206           22071                           QXCH     RUPTREG2
000164: 20,2207           02166                           TC       STOPRATE                              #  CLEAR RATE INTERFACE.  RETURN WITH A=0
000165: 20,2210           22003                           LXCH     EBANK                                 #  AND L=EBANK6.  SAVE CALLERS EBANK.
000166: 20,2211           55536                           TS       AOSQ
000167: 20,2212           55537                           TS       AOSQ       +1
000168: 20,2213           55540                           TS       AOSR
000169: 20,2214           55541                           TS       AOSR       +1
000170: 20,2215           55424                           TS       ALPHAQ                                #  FOR DOWNLIST.
000171: 20,2216           55425                           TS       ALPHAR
000172: 20,2217           55544                           TS       AOSQTERM
000173: 20,2220           55545                           TS       AOSRTERM
000174: 20,2221           22003                           LXCH     EBANK                                 #  RESTORE EBANK (EBANK6 NO LONGER NEEDED)
000175:
000176: 20,2222           40111                           CS       DAPBOOLS                              #  SET UP DRIFTBIT
000177: 20,2223           74744                           MASK     DRIFTBIT
000178: 20,2224           26111                           ADS      DAPBOOLS
000179: 20,2225           02116                           TC       RESTORDB   +1                         #  RESTORE DEADBANK TO CREW-SELECTED VALUE.
000180:
000181: 20,2226           00071                           TC       RUPTREG2                              #  RETURN.
000182:
000183:
000184:

End of include-file DAP_INTERFACE_SUBROUTINES.agc.  Parent file is MAIN.agc


