
Source Code


000002:                                                                                                  ## Copyright:   Public domain.
000003:                                                                                                  ## Filename:    DISPLAY_INTERFACE_ROUTINES.agc
000004:                                                                                                  ## Purpose:     A section of the reconstructed source code for Luminary 130.
000005:                                                                                                  ##              This was the original program released for the Apollo 13 LM,
000006:                                                                                                  ##              although several more revisions would follow. It has been
000007:                                                                                                  ##              reconstructed from a listing of Luminary 131, from which it
000008:                                                                                                  ##              differs on only two lines in P70-P71. The difference is
000009:                                                                                                  ##              described in detail in Luminary memo #129, which was used
000010:                                                                                                  ##              to perform the reconstruction. This file is intended to be a
000011:                                                                                                  ##              faithful reconstruction, except that the code format has been
000012:                                                                                                  ##              changed to conform to the requirements of the yaYUL assembler
000013:                                                                                                  ##              rather than the original YUL assembler.
000014:                                                                                                  ## Reference:   pp. 1333-1365
000015:                                                                                                  ## Contact:     Ron Burkey <info@sandroid.org>.
000016:                                                                                                  ## Website:     www.ibiblio.org/apollo/index.html
000017:                                                                                                  ## Mod history: 06/06/03 RSB.   Began transcribing.
000018:                                                                                                  ##              05/14/05 RSB.   Corrected website reference above.
000019:                                                                                                  ##              2010-10-25 JL   Indentation fixes.
000020:                                                                                                  ##              2011-05-07 JL   Removed workaround.
000021:                                                                                                  ##              2017-01-06 RSB  Page numbers now agree with those on the
000022:                                                                                                  ##                              original hardcopy, as opposed to the PDF page
000023:                                                                                                  ##                              numbers in 1701.pdf.
000024:                                                                                                  ##              2017-02-27 RSB  Proofed comment text using octopus/ProoferComments.
000025:                                                                                                  ##              2017-03-01 RSB  Fixed lingering comment-text typos.
000026:                                                                                                  ##              2017-03-13 RSB  Comment-text fixes noted in proofing Luminary 116.
000027:                                                                                                  ##              2017-03-15 RSB  Comment-text fixes identified in 5-way
000028:                                                                                                  ##                              side-by-side diff of Luminary 69/99/116/131/210.
000029:                                                                                                  ##              2018-09-04 MAS  Copied from Luminary 131 for Luminary 130.
000030:


000032:                                                                                                  #  DISPLAYS CAN BE CLASSIFIED INTO THE FOLLOWING CATEGORIES -
000033:                                                                                                  #        1.  PRIORITY DISPLAYS - DISPLAYS WHICH TAKE PRIORITY OVER ALL OTHER DISPLAYS.  USUALLY THESE DISPLAYS ARE SENT
000034:                                                                                                  #            OUT UNDER CRITICAL ALARM CONDITIONS.
000035:                                                                                                  #        2.  EXTENDED VERB DISPLAYS - ALL EXTENDED VERBS AND MARK ROUTINES SHOULD USE EXTENDED VERB (MARK) DISPLAYS.
000036:                                                                                                  #        3.  NORMAL DISPLAYS - ALL MISSION PROGRAM DISPLAYS WHICH INTERFACE WITH THE ASTRONAUT DURING THE NORMAL
000037:                                                                                                  #            SEQUENCE OF EVENTS.
000038:                                                                                                  #        4.  MISC. DISPLAYS - ALL DISPLAYS NOT HANDLED BY THE DISPLAY INTERFACE ROUTINES.  THESE INCLUDE SUCH DISPLAYS AS
000039:                                                                                                  #            MM DISPLAYS AND SPECIAL PURPOSE DISPLAYS HANDLED BY PINBALL.
000040:                                                                                                  #        5.  ASTRONAUT INITIATED DISPLAYS - ALL DISPLAYS INITIATED EXTERNALLY.
000041:
000042:                                                                                                  #  THE FOLLOWING TERMS ARE USED TO DESCRIBE THE STATUS OF DISPLAYS -
000043:                                                                                                  #        1.  ACTIVE - THE DISPLAY WHICH IS (1) BEING DISPLAYED TO THE ASTRONAUT AND WAITING FOR A RESPONSE OR
000044:                                                                                                  #            (2) WAITING FIRST IN LINE FOR THE ASTRONAUT TO FINISH USING THE DSKY OR (3) BEING DISPLAYED ON THE DSKY
000045:                                                                                                  #            BUT NOT WAITING FOR A RESPONSE.
000046:                                                                                                  #        2.  INACTIVE - A DISPLAY WHICH HAS (1) BEEN ACTIVE BUT WAS INTERRUPTED BY A DISPLAY OF HIGHER PRIORITY,
000047:                                                                                                  #            (2) BEEN PUT INTO THE WAITING LIST AT TIME IT WAS REQUESTED DUE TO THE FACT A HIGHER PRIORITY DISPLAY
000048:                                                                                                  #            WAS ALREADY GOING, (3) BEEN INTERRUPTED BY THE ASTRONAUT (CALLED A PINBRANCH CONDITION, SINCE THIS TYPE
000049:                                                                                                  #            OF INACTIVE DISPLAY IS USUALLY REACTIVATED ONLY BY PINBALL) OR (4) A DISPLAY WHICH HAS FINISHED BUT STILL
000050:                                                                                                  #            HAS INFO SAVED FOR RESTART PURPOSES.
000051:
000052:                                                                                                  #  DISPLAY PRIORITIES WORK AS FOLLOWS -
000053:                                                                                                  #        INTERRUPTS -
000054:                                                                                                  #                1.  THE ASTRONAUT CAN INTERRUPT ANY DISPLAY WITH AN EXTERNAL DISPLAY REQUEST.
000055:                                                                                                  #                2.  INTERNAL DISPLAYS CAN NOT BE SENT OUT WHEN THE ASTRONAUT IS USING THE DSKY.
000056:                                                                                                  #                3.  PRIORITY DISPLAYS INTERRUPT ALL OTHER TYPES OF INTERNAL DISPLAYS.  A PRIORITY DISPLAY INTERRUPTING ANOTHER
000057:                                                                                                  #                    PRIORITY DISPLAY WILL CAUSE AN ABORT UNLESS BIT14 IS SET FOR THE LINUS ROUTINE.
000058:                                                                                                  #                4.  A MARK DISPLAY INTERRUPTS ANY NORMAL DISPLAY.
000059:                                                                                                  #                5.  A MARK THAT INTERRUPTS A MARK COMPLETELY REPLACES IT.
000060:
000061:                                                                                                  #        ORDER OF WAITING DISPLAYS -
000062:                                                                                                  #                1.  ASTRONAUT EXTERNAL USE
000063:                                                                                                  #                2.  PRIORITY
000064:                                                                                                  #                3.  INTERRUPTED MARK
000065:                                                                                                  #                4.  INTERRUPTED NORMAL
000066:                                                                                                  #                5.  MARK TO BE REQUESTED (SEE DESCRIPTION OF ENDMARK)
000067:                                                                                                  #                6.  MARK WAITING
000068:                                                                                                  #                7.  NORMAL WAITING
000069:


000071:                                                                                                  #  THE DISPLAY ROUTINES ARE INTENDED TO SERVE AS AN INTERFACE BETWEEN THE USER AND PINBALL.  THE
000072:                                                                                                  #  FOLLOWING STATEMENTS CAN BE MADE ABOUT NORMAL DISPLAYS AND PRIORITY DISPLAYS (A DESCRIPTION OF MARK ROUTINES
000073:                                                                                                  #  WILL FOLLOW LATER):
000074:                                                                                                  #        1.  ALL ROUTINES THAT END IN R HAVE AN IMMEDIATE RETURN TO THE USER.  FOR ALL FLASHING DISPLAYS THIS RETURN
000075:                                                                                                  #            IS TO THE USERS CALL CADR +4.  FOR THE ONLY NON FLASHING IMMEDIATE RETURN DISPLAY (GODSPR) THIS RETURN
000076:                                                                                                  #            IS TO THE USERS CALLING LOC +1.
000077:                                                                                                  #        2.  ALL ROUTINES NOT ENDING IN R DO NOT DO AN IMMEDIATE RETURN TO THE USER.
000078:                                                                                                  #        3.  ALL ROUTINES THAT END IN R START A SEPARATE JOB (MAKEPLAY) WITH USERS JOB PRIORITY.
000079:                                                                                                  #        4.  ALL ROUTINES NOT ENDING IN R BRANCH DIRECTLY TO MAKEPLAY WHICH MAKES THESE DISPLAYS A PART OF THE
000080:                                                                                                  #            USERS JOB.
000081:                                                                                                  #        5.  ALL DISPLAY ROUTINES ARE CALLED VIA BANKCALL.
000082:                                                                                                  #        6.  TO RESTART A DISPLAY THE USER WILL GENERALLY USE A PHASE OF ONE WITH DESIRED RESTART GROUP (SEE
000083:                                                                                                  #            DESCRIPTION OF RESTARTS).
000084:                                                                                                  #        7.  ALL FLASHING DISPLAYS HAVE 3 RETURNS TO THE USER FROM ASTRONAUT RESPONSES.  A TERMINATE (V34) BRANCHES
000085:                                                                                                  #            TO THE USERS CALL CADR +1.  A PROCEED (V33) BRANCHES TO THE USERS CALL CADR +2.  AN ENTER OR RECYCLE
000086:                                                                                                  #            (V32) BRANCHES TO THE USERS CALL CADR +3.
000087:                                                                                                  #        8.  ALL ROUTINES MUST BE USED UNDER EXECUTIVE CONTROL.
000088:
000089:                                                                                                  #  A DESCRIPTION OF EACH ROUTINE WITH AN EXAMPLE FOLLOWS:
000090:                                                                                                  #        GODSP IS USED TO DISPLAY A VERB NOUN ARRIVING IN A.  NO RETURN IS MADE TO THE USER.
000091:                                                                                                  #                1.  GODSP IS NOT RESTARTABLE
000092:                                                                                                  #                2.  A VERB PASTE WITH GODSP ALWAYS TURNS ON THE FLASH.
000093:                                                                                                  #                                CAF     VXXNYY
000094:                                                                                                  #                                TC      BANKCALL
000095:                                                                                                  #                                CADR    GODSP
000096:                                                                                                  #                        VXXNYY  OCT     0XXYY
000097:                                                                                                  #        GODSPR IS THE SAME AS GODSP ONLY RETURN IS TO THE USER.
000098:                                                                                                  #                                CAF     VXXNYY
000099:                                                                                                  #                                TC      BANKCALL
000100:                                                                                                  #                                CADR    GODSPR
000101:                                                                                                  #                                ...     ...             IMMEDIATE RETURN OF GODSPR
000102:                                                                                                  #        GOFLASH DISPLAYS A FLASHING VERB NOUN WITH NO IMMEDIATE RETURN TO THE USER.  3 RETURNS ARE POSSIBLE FROM
000103:                                                                                                  #        THE ASTRONAUT (SEE NO. 7 ABOVE).
000104:                                                                                                  #                                CAF     VXXNYY          VXX NYY WILL BE A FLASHING VERB NOUN.
000105:                                                                                                  #                                TC      BANKCALL
000106:                                                                                                  #                                CADR    GOFLASH
000107:                                                                                                  #                                ...     ...             TERMINATE RETURN
000108:                                                                                                  #                                ...     ...             PROCEED RETURN
000109:                                                                                                  #                                ...     ...             ENTER OR RECYCLE RETURN
000110:                                                                                                  #        GOPERF1 IS ENTERED WITH DESIRED CHECKLIST VALUE IN A.  GOPERF1 WILL DISPLAY THIS VALUE IN R1 BY MEANS OF A


000112:                                                                                                  #        V01 N25.  A FLASHING PLEASE PERFORM ON CHECKLIST (V50 N25) IS THEN DISPLAYED.  NO IMMEDIATE RETURN IS MADE TO
000113:                                                                                                  #        USER (SEE NO. 7 ABOVE).
000114:                                                                                                  #        GOPERF1 BLANKS REGISTERS R2 AND R3
000115:                                                                                                  #                                CAF     OCTXX           CODE FOR CHECKLIST VALUE XX
000116:                                                                                                  #                                TC      BANKCALL
000117:                                                                                                  #                                CADR    GOPERF1
000118:                                                                                                  #                                ...     ...             TERMINATE RETURN
000119:                                                                                                  #                                ...     ...             PROCEED RETURN
000120:                                                                                                  #                                ...     ...             ENTER RETURN
000121:                                                                                                  #        GOPERF2 IS ENTERED WITH A VARIABLE NOUN AND V01 (V00 FOR N10 OR N11) IN A.  GOPERF2 WILL FIRST DISPLAY THE
000122:                                                                                                  #        REQUESTED NOUN BY MEANS OF A V01NYY OR A V00NYY.  PLEASE PERFORM ON NOUN (V50 NYY) THEN BECOMES A FLASHING
000123:                                                                                                  #        DISPLAY.  NO IMMEDIATE RETURN IS MADE TO THE USER (SEE NO. 7 ABOVE).
000124:                                                                                                  #        GOPERF2 DOES NOT BLANK ANY REGISTERS
000125:                                                                                                  #                                CAF     VXXNYY          VARIABLE NOUN YY. XX=00 OR 01.
000126:                                                                                                  #                                TC      BANKCALL
000127:                                                                                                  #                                CADR    GOPERF2
000128:                                                                                                  #                                ...     ...             TERMINATE RETURN
000129:                                                                                                  #                                ...     ...             PROCEED RETURN
000130:                                                                                                  #                                ...     ...             ENTER RETURN
000131:                                                                                                  #        GOPERF3 IS USED FOR A PLEASE PERFORM ON A PROGRAM NUMBER.  THE DESIRED PROGRAM NO. IS ENTERED IN A.  GOPERF3
000132:                                                                                                  #        DISPLAYS THE NO. BY MEANS OF A V06 N07 FOLLOWED BY A FLASHING V50 N07 FOR A PLEASE PERFORM.  NO IMMEDIATE RETURN
000133:                                                                                                  #        IS MADE TO THE USER (SEE NO. 7 ABOVE).
000134:                                                                                                  #        GOPERF3 BLANKS REGISTERS R2 AND R3
000135:                                                                                                  #                                CAF     DECXX           REQUEST PERFORM ON PXX
000136:                                                                                                  #                                TC      BANKCALL
000137:                                                                                                  #                                CADR    GOPERF3
000138:                                                                                                  #                                ...     ...             TERMINATE RETURN
000139:                                                                                                  #                                ...     ...             PROCEED RETURN
000140:                                                                                                  #                                ...     ...             ENTER RETURN
000141:                                                                                                  #        GOPERF4 IS USED FOR A PLEASE PERFORM ON AN OPTION.  THE DESIRED OPTION IS ENTERED IN A AND STORED IN OPTION1.
000142:                                                                                                  #        GOPERF4 DISPLAYS R1 AND R2 BY MEANS OF A V04N06 FOLLOWED BY A FLASHING V50N06 FOR A PLEASE PERFORM.  NO
000143:                                                                                                  #        IMMEDIATE RETURN IS MADE TO THE USER (SEE NO. 7 ABOVE).
000144:
000145:                                                                                                  #                                CAF     OCTXX           REQUEST PERFORM ON OPTION XX
000146:                                                                                                  #                                TC      BANKCALL
000147:                                                                                                  #                                CADR    GOPERF4
000148:                                                                                                  #                                ...     ...             TERMINATE RETURN
000149:                                                                                                  #                                ...     ...             PROCEED RETURN
000150:                                                                                                  #                                ...     ...             ENTER RETURN
000151:
000152:                                                                                                  #        GOPERF4 BLANKS REGISTER R3
000153:


000155:                                                                                                  #        GODSPRET IS USED TO DISPLAY A VERB NOUN ARRIVING IN A WITH A RETURN TO THE USER AFTER THE DISPLAY HAS BEEN SENT
000156:                                                                                                  #        OUT.
000157:                                                                                                  #                                CAF     VXXNYY
000158:                                                                                                  #                                TC      BANKCALL
000159:                                                                                                  #                                CADR    GODSPRET
000160:                                                                                                  #                                ...     ...             RETURN TO USER
000161:                                                                                                  #        REGODSP IS USED TO DISPLAY A VERB NOUN ARRIVING IN A.  REGODSP IS THE SAME AS GODSP ONLY REGODSP REPLACES ANY
000162:                                                                                                  #        ACTIVE NORMAL DISPLAY IF ONE WAS ACTIVE.
000163:                                                                                                  #                                CAF     VXXNYY
000164:                                                                                                  #                                TC      BANKCALL
000165:                                                                                                  #                                CADR    REGODSP
000166:                                                                                                  #        REFLASH IS THE SAME AS GOFLASH ONLY REFLASH REPLACES ANY ACTIVE NORMAL DISPLAY IF ONE WAS ACTIVE.
000167:                                                                                                  #                                CAF     VXXNYY          VXX NYY WILL BE A FLASHING VERB NOUN
000168:                                                                                                  #                                TC      BANKCALL
000169:                                                                                                  #                                CADR    REFLASH
000170:                                                                                                  #                                ...     ...             TERMINATE RETURN
000171:                                                                                                  #                                ...     ...             PROCEED RETURN
000172:                                                                                                  #                                ...     ...             ENTER RETURN
000173:                                                                                                  #        GOFLASHR IS SAME AS GOFLASH ONLY AN IMMEDIATE RETURN IS MADE TO THE USERS CALL CADR +4.
000174:                                                                                                  #                                CAF     VXXNYY
000175:                                                                                                  #                                TC      BANKCALL
000176:                                                                                                  #                                CADR    GOFLASHR
000177:                                                                                                  #                                ...     ...             TERMINATE RETURN
000178:                                                                                                  #                                ...     ...             PROCEED RETURN
000179:                                                                                                  #                                ...     ...             ENTER OR RECYCLE RETURN
000180:                                                                                                  #                                ...     ...             IMMEDIATE RETURN FROM GOFLASHR
000181:                                                                                                  #        GOPERF1R IS THE SAME AS GOPERF1 ONLY GOPERF1R HAS AN IMMEDIATE RETURN TO USERS CALL CADR +4.
000182:                                                                                                  #        GOPERF1R BLANKS REGISTERS R2 AND R3
000183:                                                                                                  #                                CAF     OCTXX           CODE FOR CHECKLIST VALUE XX.
000184:                                                                                                  #                                TC      BANKCALL
000185:                                                                                                  #                                CADR    GOPERF1R
000186:                                                                                                  #                                ...     ...             TERMINATE RETURN
000187:                                                                                                  #                                ...     ...             PROCEED RETURN
000188:                                                                                                  #                                ...     ...             ENTER RETURN
000189:                                                                                                  #                                ...     ...             IMMEDIATE RETURN FROM GOPERF1R
000190:                                                                                                  #        GOPERF2R IS THE SAME AS GOPERF2 ONLY AN IMMEDIATE RETURN IS MADE TO USERS CALL CADR +4.


000192:                                                                                                  #        GOPERF2R DOES NOT BLANK ANY REGISTERS
000193:                                                                                                  #                                CAF     VXXNYY          VARIABLE NOUN YY REQUESTED.  XX=00 OR 01
000194:                                                                                                  #                                TC      BANKCALL
000195:                                                                                                  #                                CADR    GOPERF2R
000196:                                                                                                  #                                ...     ...             TERMINATE RETURN
000197:                                                                                                  #                                ...     ...             PROCEED RETURN
000198:                                                                                                  #                                ...     ...             ENTER RETURN
000199:                                                                                                  #                                ...     ...             IMMEDIATE RETURN HERE FROM GOPERF2R
000200:                                                                                                  #        GOPERF3R IS THE SAME AS GOPERF3 ONLY AN IMMEDIATE RETURN IS MADE TO USERS CALL CADR +4.
000201:                                                                                                  #        GOPERF3R BLANKS REGISTERS R2 AND R3
000202:                                                                                                  #                                CAF     PROGXX          PERFORM PROGRAM XX
000203:                                                                                                  #                                TC      BANKCALL
000204:                                                                                                  #                                CADR    GOPERF3R
000205:                                                                                                  #                                ...     ...             TERMINATE RETURN
000206:                                                                                                  #                                ...     ...             PROCEED RETURN
000207:                                                                                                  #                                ...     ...             ENTER RETURN
000208:                                                                                                  #                                ...     ...             GOPERF3R IMMEDIATELY RETURNS HERE
000209:
000210:                                                                                                  #        GOPERF4R IS THE SAME AS GOPERF4 ONLY AN IMMEDIATE RETURN IS MADE TO USERS CALL CADR +4.
000211:
000212:                                                                                                  #                                CAF     OCTXX           REQUEST PERFORM ON OPTIONXX
000213:                                                                                                  #                                TC      BANKCALL
000214:                                                                                                  #                                CADR    GOPERF4R
000215:                                                                                                  #                                ...     ...             TERMINATE RETURN
000216:                                                                                                  #                                ...     ...             PROCEED RETURN
000217:                                                                                                  #                                ...     ...             ENTER RETURN
000218:                                                                                                  #                                ...     ...             IMMEDIATE RETURN TO USER
000219:
000220:                                                                                                  #        GOPERF4R BLANKS REGISTER R3
000221:
000222:                                                                                                  #        REFLASHR IS THE SAME AS REFLASH ONLY AN IMMEDIATE RETURN IS MADE TO THE USERS CALL CADR +4.
000223:                                                                                                  #                                CAF     VXXNYY          VXX NYY WILL BE A FLASHING VERB NOUN
000224:                                                                                                  #                                TC      BANKCALL
000225:                                                                                                  #                                CADR    REFLASHR
000226:                                                                                                  #                                ...     ...             TERMINATE RETURN
000227:                                                                                                  #                                ...     ...             PROCEED RETURN
000228:                                                                                                  #                                ...     ...             ENTER RETURN
000229:                                                                                                  #                                ...     ...             IMMEDIATE RETURN TO USER
000230:                                                                                                  #        REGODSPR IS THE SAME AS REGODSP ONLY A RETURN (IMMEDIATE) IS MADE TO THE USER.


000232:                                                                                                  #                                CAF     VXXNYY
000233:                                                                                                  #                                TC      BANKCALL
000234:                                                                                                  #                                CADR    REGODSPR
000235:                                                                                                  #                                ...     ...             IMMEDIATE RETURN TO USER


000237:                                                                                                  #        GOMARK IS USED TO DISPLAY A MARK VERB NOUN ARRIVING IN A.  NO RETURN IS MADE TO THE USER.
000238:                                                                                                  #        GOXDSP = GOMARK
000239:                                                                                                  #                                CAF     VXXNYY          VXXNYY CONTAINS VERB AND NOUN
000240:                                                                                                  #                                TC      BANKCALL
000241:                                                                                                  #                                CADR    GOMARK          OTHER EXTENDED VERBS USE CADR GOXDSP
000242:                                                                                                  #        GOMARKR IS THE SAME AS GOMARK ONLY RETURN IS TO THE USER.
000243:                                                                                                  #        GOXDSPR = GOMARKR
000244:                                                                                                  #                                CAF     VXXNYY
000245:                                                                                                  #                                TC      BANKCALL
000246:                                                                                                  #                                CADR    GOMARKR         OTHER EXTENDED VERBS USE CADR GOXDSPR
000247:                                                                                                  #                                ...     ...             IMMEDIATE RETURN OF GOMARKR
000248:                                                                                                  #        GOMARKF DISPLAYS A FLASHING MARK VERB NOUN WITH NO IMMEDIATE RETURN TO THE USER.  3 RETURNS ARE POSSIBLE FROM
000249:                                                                                                  #        THE ASTRONAUT (SEE NO. 7 ABOVE).
000250:                                                                                                  #        GOXDSPF = GOMARKF
000251:                                                                                                  #                                CAF     VXXNYY          VXXNYY WILL BE A FLASHING MARK VERB NOUN
000252:                                                                                                  #                                TC      BANKCALL
000253:                                                                                                  #                                CADR    GOMARKF         OTHER EXTENDED VERBS USE CADR GOXDSPF
000254:                                                                                                  #                                ...     ...             TERMINATE RETURN
000255:                                                                                                  #                                ...     ...             PROCEED RETURN
000256:                                                                                                  #                                ...     ...             ENTER OR RECYCLE RETURN
000257:
000258:                                                                                                  #        GOMARKFR IS THE SAME AS GOMARKF ONLY AN IMMEDIATE RETURN IS MADE TO THE USER CALL CADR +4.
000259:
000260:                                                                                                  #        GOXDSPFR = GOMARKFR
000261:
000262:                                                                                                  #                                CAF     VXXNYY          FLASHING MARK VERB NOUN
000263:                                                                                                  #                                TC      BANKCALL
000264:                                                                                                  #                                CADR    GOMARKFR        OTHER EXTENDED VERBS USE CADR GOXDSPFR
000265:                                                                                                  #                                ...     ...             TERMINATE RETURN
000266:                                                                                                  #                                ...     ...             PROCEED RETURN
000267:                                                                                                  #                                ...     ...             ENTER OR RECYCLE RETURN
000268:
000269:                                                                                                  #                                ...     ...             IMMEDIATE RETURN TO THE USER
000270:                                                                                                  #        GOMARK1 IS USED FOR A PLEASE PERFORM ON A MARK REQUEST WITH ONLY 1 ASTRONAUT RETURN TO THE USER.  NO IMMEDIATE
000271:                                                                                                  #        RETURN IS MADE.  THE DESIRED MARK PLEASE PERFORM VERB AND DESIRED NOUN IS ENTERED IN A.  GOMARK1 DISPLAYS R1, R2, R
000272:                                                                                                  #        MEANS OF A V05NYY FOLLOWED BY A FLASHING V5XNYY FOR A PLEASE PERFORM.  THE ASTRONAUT WILL RESPOND WITH A MARK
000273:                                                                                                  #        OR MARK REJECT OR AN ENTER.  THE ENTER IS THE ONLY ASTRONAUT RESPONSE THAT WILL COME BACK TO THE USER.
000274:                                                                                                  #                                CAF     V5XNYY          X=1,2,3,4       Y=NOUN
000275:                                                                                                  #                                TC      BANKCALL


000277:                                                                                                  #                                CADR    GOMARK1
000278:                                                                                                  #                                ...     ...             ENTER RETURN
000279:                                                                                                  #        *** IF BLANKING DESIRED ON NON R ROUTINES, NOTIFY DISPLAYER.
000280:
000281:                                                                                                  #        GOMARK1R IS THE SAME AS A GOMARK1 ONLY AN IMMEDIATE RETURN IS MADE TO THE USERS CALL CADR +2.
000282:                                                                                                  #                                CAF     V5XNYY          X=1,2,3,4       YY=NOUN
000283:                                                                                                  #                                TC      BANKCALL
000284:                                                                                                  #                                CADR    GOMARK1R
000285:                                                                                                  #                                ...     ...             ASTRONAUT ENTER RETURN
000286:                                                                                                  #                                ...     ...             IMMEDIATE RETURN TO USER
000287:                                                                                                  #        GOMARK2 IS THE SAME AS GOMARK1 ONLY 3 RETURNS ARE MADE TO THE USER FROM THE ASTRONAUT.
000288:                                                                                                  #                                CAF     V5XNYY          X=1,2,3,4       YY=NOUN
000289:                                                                                                  #                                TC      BANKCALL
000290:                                                                                                  #                                CADR    GOMARK2
000291:                                                                                                  #                                ...     ...             TERMINATE RETURN
000292:                                                                                                  #                                ...     ...             PROCEED RETURN
000293:                                                                                                  #                                ...     ...             ENTER RETURN
000294:                                                                                                  #        GOMARK2R IS THE SAME AS GOMARK1R ONLY 3 ASTRONAUT RETURNS ARE MADE TO THE USER.
000295:                                                                                                  #                                CAF     V5XNYY          X=0,1,2,3,4     YY=NOUN
000296:                                                                                                  #                                TC      BANKCALL
000297:                                                                                                  #                                CADR    GOMARK2R
000298:                                                                                                  #                                ...     ...             TERMINATE RETURN
000299:                                                                                                  #                                ...     ...             PROCEED RETURN
000300:                                                                                                  #                                ...     ...             ENTER RETURN
000301:                                                                                                  #                                ...     ...             IMMEDIATE RETURN TO THE USER
000302:                                                                                                  #        GOMARK3 IS USED FOR A PLEASE PERFORM ON A MARK REQUEST WITH A 3 COMP. DEC DISPLAY.  THE DESIRED MARK PLEASE
000303:                                                                                                  #        PERFORM VERB AND NOUN ARE ENTERED IN A.  GOMARK3 DISPLAYS R1, R2, R3 BY MEANS OF A V06NYY FOLLOWED BY A FLASHING
000304:                                                                                                  #        V5XNYY FOR A PLEASE PERFORM.  GOMARK3 HAS 3 ASTRONAUT RETURNS TO THE USER WITH NO IMMEDIATE RETURN.
000305:                                                                                                  #                                CAF     V5XNYY          X=1,2,3,4       YY=NOUN
000306:                                                                                                  #                                TC      BANKCALL
000307:                                                                                                  #                                CADR    GOMARK3
000308:                                                                                                  #                                ...     ...             TERMINATE RETURN
000309:                                                                                                  #                                ...     ...             PROCEED RETURN
000310:                                                                                                  #                                ...     ...             ENTER RETURN
000311:                                                                                                  #        GOMARK4 IS THE SAME AS GOMARK3 ONLY R2 AND R3 ARE BLANKED AND R1 IS DISPLAYED IN OCTAL.
000312:                                                                                                  #                                CAF     V5XNYY          X=1,2,3,4       YY=NOUN
000313:                                                                                                  #                                TC      BANKCALL
000314:                                                                                                  #                                CADR    GOMARK4
000315:                                                                                                  #                                ...     ...             TERMINATE RETURN
000316:                                                                                                  #                                ...     ...             PROCEED RETURN


000318:                                                                                                  #                        ...     ...                     ENTER RETURN
000319:                                                                                                  #        EXDSPRET IS USED TO DISPLAY A VERB NOUN ARRIVING IN A WITH A RETURN MADE TO THE USER AFTER THE DISPLAY HAS BEEN
000320:                                                                                                  #        SENT OUT.
000321:                                                                                                  #                                CAF     VXXNYY
000322:                                                                                                  #                                TC      BANKCALL
000323:                                                                                                  #                                CADR    EXDSPRET
000324:                                                                                                  #                                ...     ...             RETURN TO USER
000325:                                                                                                  #        KLEENEX CLEANS OUT ALL MARK DISPLAYS (ACTIVE AND INACTIVE). A RETURN IS MADE TO THE USER AFTER THE MARK DISPLAYS
000326:                                                                                                  #        HAVE BEEN CLEANED OUT.
000327:                                                                                                  #                                TC      BANKCALL
000328:                                                                                                  #                                CADR    KLEENEX
000329:                                                                                                  #                                ...     ...             RETURN TO USER
000330:                                                                                                  #        MARKBRAN IS A SPECIAL PURPOSE ROUTINE USED FOR SAVING JOB VAC AREAS (SEE DESCRIPTION OF MARKBRAN BELOW).
000331:                                                                                                  #                                TC      BANKCALL
000332:                                                                                                  #                                CADR    MARKBRAN
000333:                                                                                                  #                                ...     ...             BAD RETURN IF MARK DISPLAY NOT ACTIVE
000334:                                                                                                  #                                                        (GOOD RETURN TO IMMEDIATE RETURN LOC OF
000335:                                                                                                  #                                                        LAST FLASHING MARK R ROUTINE)
000336:                                                                                                  #        PINBRNCH REESTABLISHES THE LAST ACTIVE FLASHING DISPLAY.  IF THERE IS NO ACTIVE FLASHING DISPLAY, THE DSKY IS
000337:                                                                                                  #        BLANKED AND CONTROL IS SENT TO ENDOFJOB.
000338:                                                                                                  #                                TC      POSTJUMP
000339:                                                                                                  #                                CADR    PINBRNCH
000340:                                                                                                  #        PRIODSP IS USED AS A PRIORITY DISPLAY.  IT WILL DISPLAY A GOFLASH TYPE DISPLAY WITH THREE POSSIBLE RETURNS FROM
000341:                                                                                                  #        THE ASTRONAUT (SEE NO. 7 ABOVE).
000342:                                                                                                  #        THE MAIN PURPOSE OF PRIODSP IS TO REPLACE THE PRESENT DISPLAY WITH A DISPLAY OF HIGHER PRIORITY AND TO
000343:                                                                                                  #        PROVIDE A MEANS FOR RESTORING THE OLD DISPLAY WHEN THE PRIORITY DISPLAY
000344:                                                                                                  #        IS RESPONDED TO BY THE ASTRONAUT.
000345:                                                                                                  #        THE FORMER DISPLAY IS RESTORED BY AN AUTOMATIC BRANCH TO WAKE UP THE DISPLAY THAT WAS INTERRUPTED BY THE
000346:                                                                                                  #        PRIO DISPLAY.
000347:                                                                                                  #                                CAF     VXXNYY          VXXNYY WILL BE A FLASHING VERB NOUN
000348:                                                                                                  #                                TC      BANKCALL
000349:                                                                                                  #                                CADR    PRIODSP
000350:                                                                                                  #                                ...     ...             TERMINATE RETURN
000351:                                                                                                  #                                ...     ...             PROCEED RETURN


000353:                                                                                                  #                                ...     ...             ENTER OR RECYCLE RETURN
000354:                                                                                                  #        PRIODSPR IS THE SAME AS PRIODSP ONLY AN IMMEDIATE RETURN IS MADE TO THE USERS CALL CADR +4.
000355:                                                                                                  #                                CAF     VXXNYY          VXXNYY WILL BE A FLASHING VERB NOUN
000356:                                                                                                  #                                TC      BANKCALL
000357:                                                                                                  #                                CADR    PRIODSPR
000358:                                                                                                  #                                ...     ...             TERMINATE RETURN
000359:                                                                                                  #                                ...     ...             PROCEED RETURN
000360:                                                                                                  #                                ...     ...             ENTER OR RECYCLE RETURN
000361:                                                                                                  #                                ...     ...             IMMEDIATE RETURN
000362:                                                                                                  #        PRIOLARM DOES A V05N09 PRIODSPR.
000363:
000364:                                                                                                  #        CLEANDSP CLEANS OUT ALL NORMAL DISPLAYS (ACTIVE AND INACTIVE).  A RETURN IS MADE TO THE USER AFTER NORMAL
000365:                                                                                                  #        DISPLAYS ARE CLEANED OUT.
000366:                                                                                                  #                                TC      BANKCALL
000367:                                                                                                  #                                CADR    CLEANDSP
000368:                                                                                                  #                                ...     ...             RETURN TO USER


000370:
000371:                                                                                                  #  GENERAL INFORMATION
000372:                                                                                                  #  ------- -----------
000373:
000374:                                                                                                  #  ALARM OR ABORT EXIT MODES--
000375:                                                                                                  #        PRIOBORT        TC      ABORT
000376:                                                                                                  #                        OCT     1502
000377:
000378:                                                                                                  #        PRIOBORT IS BRANCED TO WHEN (1) A NORMAL DISPLAY IS REQUESTED AND ANOTHER NORMAL DISPLAY IS ALREADY ACTIVE
000379:                                                                                                  #        (REFLASH AND REGODSP ARE EXCEPTIONS) OR (2) A PRIORITY DISPLAY IS REQUESTED WHEN ANOTHER PRIORITY DISPLAY IS
000380:                                                                                                  #        ALREADY ACTIVE (A PRIORITY WITH LINUS BIT14 IS AN EXCEPTION).
000381:
000382:                                                                                                  #  ERASABLE INITIALIZATION REQUIRED--
000383:                                                                                                  #        ACCOMPLISHED BY FRESH START -   1.  FLAGWRD4 (USED EXCLUSIVELY BY DISPLAY INTERFACE ROUTINES)
000384:                                                                                                  #                                        2.  NVSAVE = NORMAL VERB AND NOUN REGISTER.
000385:                                                                                                  #                                        3.  EBANKTEM = NORMAL INACTIVE FLAGWORD (ALSO CONTAINS NORMALS EBANK).
000386:                                                                                                  #                                        5.  R1SAVE = MARKBRAN CONTROL WORD
000387:                                                                                                  #                                        4.  RESTREG = PRIORITY 30 AND SUPERBANK 3.
000388:
000389:                                                                                                  #  OUTPUT--
000390:                                                                                                  #        NVWORD = PRIO VERB AND NOUN
000391:                                                                                                  #        NVWORD +1 (MARKNV) = MARK VERB AND NOUN
000392:                                                                                                  #        NVWORD +2 (NVSAVE) = NORMAL VERB AND NOUN
000393:
000394:                                                                                                  #        DSPFLG (EBANKSAV) = PRIO FLAGWORD (INCLUDING EBANK)
000395:                                                                                                  #        DSPFLG +1 (MARKEBAN) = MARK FLAGWORD (INCLUDING EBANK)
000396:                                                                                                  #        DSPFLG +2 (EBANKTEM) = NORMAL FLAGWORD (INCLUDIG EBANK)
000397:
000398:                                                                                                  #        CADRFLSH = PRIO USERS CALL CADR +1 LOCATION
000399:                                                                                                  #        CADRFLSH +1 (MARKFLSH) = MARK USERS CALL CADR +1 LOCATION
000400:                                                                                                  #        CADRFLSH +2 (TEMPFLSH) = NORMAL USERS CALL CADR +1 LOCATION
000401:
000402:                                                                                                  #        PRIOTIME = TIME EACH PRIO REQUEST FIRST SENT OUT
000403:                                                                                                  #        OPTION1 = DESIRED OPTION FROM GOPERF4
000404:                                                                                                  #        FLAGWRD4 = BIT INFO FOR CONTROL OF ALL DISPLAY ROUTINES
000405:                                                                                                  #        DSPTEM1 = R1 INFO FOR ASTRONAUT FROM PERFORM DISPLAYS (NORMAL)
000406:
000407:                                                                                                  #  SUBROUTINES USED-- NVSUB, FLAGUP, FLAGDOWN, ENDOFJOB, BLANKSUB, ABORT, JOBWAKE, JOBSLEEP, FINDVAC, PRIOCHNG,
000408:                                                                                                  #        JAMTERM, NVSUBUSY, FLASHON, ENDIDLE, CHANG1, BANKJUMP, MAKECADR, NOVAC,
000409:
000410:                                                                                                  #  DEBRIS-- (STORED INTO)
000411:                                                                                                  #        TEMPORARY TEMPORARIES - A, Q, L, MPAC +2, MPAC +3, MPAC +4, MPAC +5, MPAC +6, RUPTREG2, RUPTREG3, CYL,
000412:                                                                                                  #                EBANK, RUPTREG4, LOC, BANKSET, MODE, MPAC, MPAC +1          4, FACEREG
000413:                                                                                                  #        ERASABES (SHARED AND USED WITH OTHER PROGRAMS) CADRSTOR, DSPLIST, LOC, DSPTEM1, OPTION1
000414:
000415:                                                                                                  #        ERASABLES (USED ONLY BY DISPLAY ROUTINES) - NVWORD,+1,+2, DSPFLG,+1,+2, CADRFLSH,+1,+2, PRIOTIME, FLAGWRD4,


000417:                                                                                                  #                R1SAVE, MARK2PAC,
000418:
000419:                                                                                                  #  DEBRIS-- (USED BUT NOT STORED INTO) - NOUNREG, VERBREG, LOCCTR, MONSAVE1
000420:
000421:                                                                                                  #  FLAGWORD DESCRIPTIONS--
000422:                                                                                                  #        FLAGWRD4 - SEE DESCRIPTION UNDER LOG SECTION ERASABLE ASSIGNMENTS
000423:
000424:                                                                                                  #        DSPFLG, DSPFLG+1, DSPFLG +2-
000425:                                                                                                  #        ----------------------------
000426:                                                                                                  #        BITS 1  BLANK R1
000427:                                                                                                  #             2  BLANK R2
000428:                                                                                                  #             3  BLANK R3
000429:                                                                                                  #             4  FLASHING DISPLAY REQUESTED
000430:                                                                                                  #             5  PERFORM DISPLAY REQUESTED
000431:                                                                                                  #             6  -----                   EXDSPRET                GODSPRET
000432:                                                                                                  #             7  PRIO DISPLAY            -----                   -----
000433:                                                                                                  #             8  -----                   DEC MARK PERFORM        -----
000434:                                                                                                  #             9  EBANK
000435:                                                                                                  #            10  EBANK
000436:                                                                                                  #            11  EBANK
000437:                                                                                                  #            12  -----                   -----                   V99PASTE
000438:                                                                                                  #            13  2ND PART OF PERFORM
000439:                                                                                                  #            15  REFLASH OR REDO         -----                   REFLASH OR REDO
000440:                                                                                                  #            15  -----                   MARK REQUEST            -----
000441:
000442:                                                                                                  #  RESTARTING DISPLAYS--
000443:
000444:                                                                                                  #  RULES FOR THE DSKY OPERATOR--
000445:                                                                                                  #        1.  PROCEED AND TERMINATE SERVE AS RESPONSES TO REQUESTS FOR OPERATOR RESPONSE (FLASHING V/N).  AS LONG
000446:                                                                                                  #            AS THERE IS ANY REQUEST AWAITING OPERATOR RESPONSE, ANY USE OF PROCEED OR TERMINATE WILL SERVE AS
000447:                                                                                                  #            RESPONSES TO THAT REQUEST.  CARE SHOULD BE EXERCISED IN ATTEMPTING TO KILL AN OPERATOR INITIATED MONITOR
000448:                                                                                                  #            WITH PROCEED AND TERMINATE FOR THIS REASON.
000449:                                                                                                  #        2.  THE ASTRONAUT MUST RESPOND TO A PRIORITY DISPLAY NO             SOONER THAN 2 SECONDS FROM THE TIME THE
000450:                                                                                                  #            PROGRAM SENT OUT THE REQUEST FOR OPERATOR RESPONSE (THE ASTRONAUT WOULD SEE THIS DISPLAY FOR LESS TIME
000451:                                                                                                  #            DUE TO TIME IT TAKES TO GET DISPLAY SENT OUT.)  IF THE ASTRONAUT RESPONDS TOO SOON, THE PRIORITY DISPLAY
000452:                                                                                                  #            IS SENT OUT AGAIN -- AND AGAIN UNTIL AN ACCUMULATED 2 SECS       FROM THE TIME THE FIRST PRIORITY DISPLAY
000453:                                                                                                  #            OUT.  THE SAME 2 SEC. DELAY WILL OCCUR AT 163.84 SECS OR IN ANY MULTIPLE OF THAT TIME DUE TO PROGRAM
000454:                                                                                                  #            CONSIDERATION.
000455:                                                                                                  #        3.  KEY RELEASE BUTTON -
000456:                                                                                                  #            A)  IF THE KEY RELEASE LIGHT IS ON, IT SIMPLY RELEASES THE KEYBOARD AND DISPLAY FOR INTERNAL USE.
000457:                                                                                                  #            B)  IF THE KEY RELEASE LIGHT IS OFF, AND IF SOME REQUEST FOR OPERATOR RESPONSE (FLASHING V/N) IS STILL
000458:                                                                                                  #                AWAITING RESPONSE THEN IT RE-ESTABLISHES THE DISPLAYS THAT ORIGINALLY REQUESTED RESPONSE.
000459:                                                                                                  #            IF AN OPERATOR WANTS THEREFORE TO RE-ESTABLISH BUT CONDITION (A) IS ENCOUNTERED, A SECOND DEPRESSION OF
000460:                                                                                                  #            KEY RELEASE BUTTON MAY BE NECESSARY.
000461:                                                                                                  #        4.  IT IS IMPORTANT TO ANSWER ALL REQUESTS FOR OPERATOR RESPONSE.
000462:                                                                                                  #        5.  IT IS ALWAYS GOOD PRACTICE TO TERMINATE AN EXTENDED VERB BEFORE ASKING FOR ANOTHER ONE OR THE SAME ONE
000463:                                                                                                  #            OVER AGAIN.
000464:
000465:                                                                                                  #  SPECIAL CONSIDERATIONS--


000467:                                                                                                  #        1.  MPAC +2 SAVED ONLY IN MARK DISPLAYS
000468:                                                                                                  #        2.  GODSP(R), REGODSP(R), GOMARK(R) ALWAYS TURN ON THE FLASH IF ENTERED WITH A PASTE VERB REQUEST.
000469:                                                                                                  #        3.  ALL NORMAL DISPLAYS ARE RESTARTABLE EXCEPT GODSP(R), REGODSP(R)
000470:                                                                                                  #        4.  ALL EXTENDED VERBS WITH DISPLAYS SHOULD START WITH A TC TESTXACT AND FINISH WITH A TC ENDEXT.
000471:                                                                                                  #        5.  GODSP(R) AND REGODSP(R) MUST BE IN THE SAME EBANK AND SUPERBANK AS THE LAST NORMAL DISPLAY RESTARTED
000472:                                                                                                  #            BY A .1 RESTART PHASE CHANGE.
000473:                                                                                                  #        6.  IN ORDER TO SET UP A NON DISPLAY .1 RESTART POINT, THE USER MUST MAKE CERTAIN THAT RESTREG CONTAINS THE
000474:                                                                                                  #            CORRECT PRIORITY AND SUPERBANK AND THAT EBANKTEM CONTAINS THE CO
000475:                                                                                                  #        7.  IF CLEANDSP IS RESTARTED VIA A .1 PHASE CHANGE, CAF ZERO SHOULD BE EXECUTED BEFORE THE TC BANKCALL.
000476:


000478:                                                                                                  #  CALLING SEQUENCE FOR BLANKING
000479:                                                                                                  #                CAF     BITX            X=1,2,3 BLANK R1,R2,R3 RESPECTIVELY
000480:                                                                                                  #                TC      BLANKET
000481:                                                                                                  #                ...     ...             RETURN TO USER HERE
000482:                                                                                                  #  IN ORDER TO USE BLANKET CORRECTLY THE USER MUST USE A DISPLAY ROUTINE THAT ENDS IN R FIRST FOLLOWED BY THE CALL
000483:                                                                                                  #  TO BLANKET AT THE IMMEDIATE RETURN LOC.
000484:    5464                                           BLOCK    02
000485:    4000                                           SETLOC   FFTAG4
000486:    4000                                           BANK
000487:
000488:    5464                                           COUNT*   $$/DSPLA
000489:    5464           54162        BLANKET            TS       MPAC       +6
000490:    5465           40160                           CS       PLAYTEM4
000491:    5466           70162                           MASK     MPAC       +6
000492:    5467           50161                           INDEX    MPAC       +5
000493:    5470           26160                           ADS      PLAYTEM4
000494:
000495:    5471           00002                           TC       Q
000496:
000497:    5472           04635        ENDMARK            TC       POSTJUMP
000498:    5473           20326                           CADR     MARKEND
000499:
000500:    5474           34755        CLEARMRK           CAF      ZERO
000501:    5475           55043                           TS       EXTVBACT
000502:
000503:    5476           00004                 +2        INHINT
000504:    5477           44753                           CS       XDSPBIT
000505:    5500           70100                           MASK     FLAGWRD4
000506:    5501           54100                           TS       FLAGWRD4
000507:
000508:    5502           00003                           RELINT
000509:    5503           00002                           TC       Q
000510:
000511:                                                                                                  #  *** ALL EXTENDED VERB ROUTINES THAT HAVE AT LEAST ONE FLASHING DISPLAY MUST TCF ENDMARK OR TCF ENDEXT WHEN
000512:                                                                                                  #  FINISHED.
000513:
000514: 10,2326                                           BANK     10
000515: 10,2000                                           SETLOC   DISPLAYS
000516: 10,2000                                           BANK
000517:
000518: 10,2326                                           COUNT*   $$/DSPLA
000519:
000520:                                                                                                  #  NTERONLY IS USED TO DIFFERENTIATE THE MARK ROUTINE WITH ONLY ONE RETURN TO THE USER FROM THE MARKING ROUTINE WIT
000521:                                                                                                  #  3 RETURNS TO THE USER.  THIS ROUTINE IS ONLY USED BY GOMARK1 AND GOMARK1R.
000522:
000523: 10,2326           05474        MARKEND            TC       CLEARMRK
000524: 10,2327           13422                           TCF      MARKOVER
000525:
000526: 10,2330           54155        GOMARK             TS       PLAYTEM1                              #  ENTRANCE FOR MARK GODSP
000527:


000529: 10,2331           34735        GOMARS             CAF      BIT15                                 #  BIT15 SET FOR ALL MARK REQUESTS
000530: 10,2332           12501                           TCF      GOFLASH2
000531:
000532: 10,2333           34755        KLEENEX            CAF      ZERO                                  #  CLEAN OUT EXTENDED VERBS
000533: 10,2334           54155        GOMARKF            TS       PLAYTEM1                              #  ENTRANCE FOR MARK GOFLASH
000534:
000535: 10,2335           33032                           CAF      MARKFMSK                              #  MARK, FLASH
000536: 10,2336           12501                           TCF      GOFLASH2
000537:
000538: 10,2337           54155        GOMARK2            TS       PLAYTEM1                              #  MARK GOPERFS-3 AST. RETURNS
000539: 10,2340           33521        MARKFORM           CAF      MPERFMSK                              #  MARK, PERFORM, FLASH
000540: 10,2341           12501                           TCF      GOFLASH2
000541:
000542: 10,2342           54155        GOMARK3            TS       PLAYTEM1                              #  USED FOR 3COMP DECIMAL PERFORM
000543: 10,2343           33506                           CAF      MARK3MSK
000544: 10,2344           12501                           TCF      GOFLASH2
000545:
000546: 10,2345           54155        GOMARK4            TS       PLAYTEM1
000547: 10,2346           33507                           CAF      MARK4MSK                              #  MARK,PERFORM,FLASH,BLANK
000548: 10,2347           12501                           TCF      GOFLASH2
000549:
000550: 10,2350           54155        GOMARKR            TS       PLAYTEM1                              #  ENTR+NCE FOR MARK GODSPR
000551:
000552: 10,2351           34735                           CAF      BIT15
000553: 10,2352           12454                           TCF      GODSPR2
000554:
000555: 10,2353           54155        GOMARKFR           TS       PLAYTEM1                              #  ENTRANCE FOR MARK GOFLASHR
000556:
000557: 10,2354           33032                           CAF      MARKFMSK
000558: 10,2355           12640                           TCF      GODSPRS
000559:
000560: 10,2356           54155        GOMARK2R           TS       PLAYTEM1                              #  MARK GOPERFS-3 AST. RETS+ IMMEDIATE RET.
000561: 10,2357           33521                           CAF      MPERFMSK                              #  MARK, PERFORM, FLASH
000562: 10,2360           12640                           TCF      GODSPRS
000563:
000564: 10,2361           65023                 -1        AD       PRIO13
000565: 10,2362           54155        GOMARK3R           TS       PLAYTEM1
000566: 10,2363           33506                           CAF      MARK3MSK
000567: 10,2364           12640                           TCF      GODSPRS
000568:
000569: 10,2365           34753        MAKEMARK           CAF      ONE
000570: 10,2366           02736                           TC       COPIES
000571:
000572: 10,2367           30100                           CA       FLAGWRD4                              #  IS NORM OR PRIO BUSY OR WAITING
000573: 10,2370           73522                           MASK     OCT34300
000574: 10,2371           10000                           CCS      A
000575: 10,2372           12430                           TCF      CHKPRIO
000576:
000577: 10,2373           30100                           CA       FLAGWRD4                              #  IS MARK SLEEPING DUE TO ASTRO BUSY
000578: 10,2374           74743                           MASK     MRKNVBIT
000579:


000581: 10,2375           00006                           EXTEND
000582: 10,2376           12400                           BZF      MARKPLAY                              #  NO
000583:
000584: 10,2377           15155                           TCF      ENDOFJOB
000585:
000586: 10,2400           00004        MARKPLAY           INHINT
000587: 10,2401           44756                           CS       FIVE                                  #  RESET MARK OVER NORM, SET MARK
000588: 10,2402           70100                           MASK     FLAGWRD4
000589: 10,2403           64753                           AD       ONE
000590: 10,2404           54100                           TS       FLAGWRD4
000591: 10,2405           00003                           RELINT
000592:
000593: 10,2406           41070        GOGOMARK           CS       MARKFLAG                              #  PERFORM
000594: 10,2407           74747                           MASK     BIT5
000595: 10,2410           10000                           CCS      A
000596: 10,2411           12414                           TCF      MARKCOP
000597: 10,2412           40370                           CS       MARKNV
000598: 10,2413           54370                           TS       MARKNV
000599:
000600: 10,2414           34753        MARKCOP            CAF      ONE                                   #  MARK INDEX
000601: 10,2415           12617                           TCF      PRIOPLAY
000602:
000603: 10,2416           30165        COPYTOGO           CA       MPAC2SAV
000604: 10,2417           54156                           TS       MPAC       +2
000605:
000606: 10,2420           50164        COPYPACS           INDEX    COPINDEX
000607: 10,2421           33532                           CAF      PRIOOCT
000608: 10,2422           54162                           TS       GENMASK
000609:
000610: 10,2423           50164                           INDEX    COPINDEX
000611: 10,2424           31067                           CAF      EBANKSAV
000612: 10,2425           54160                           TS       TEMPOR2                               #  ACTIVE EBANK AND FLAG
000613:
000614: 10,2426           54003                           TS       EBANK
000615:
000616: 10,2427           00002                           TC       Q
000617:
000618:                                                                                                  #  PINCHEK CHECKS TO SEE IF THE CURRENT MARK REQUEST IS MADE BY THE ASTRONAUT WHILE INTERRUPTING A GOPLAY DISPLAY
000619:                                                                                                  #  (A NORMAL OR A PRIO).  IF THE ASTRONAUT TRIES TO MARK DURING A PRIO, THE CHECK FAIL LIGHT GOES ON AND THE MARK
000620:                                                                                                  #  REQUEST IS ENDED.  IF HE TRIES TO MARK DURING A NORM, THE MARK IS ALLOWED.  IN THIS CASE THE NORM IS PUT TO SLEEP
000621:                                                                                                  #  UNTIL ALL MARKING IS FINISHED.
000622:
000623:                                                                                                  #  IF THE MARK REQUEST COMES FROM THE PROGRAM DURING A TIME THE ASTRONAUT IS NOT INTERRUPTING A NORMAL OR A
000624:                                                                                                  #  PRIO, THE MARK REQUEST IS PUT TO SLEEP UNTIL THE +RESENT ACTIVE DISPLAY IS RESPONDED TO BY THE ASTRONAUT.
000625:
000626: 10,2430           30100        CHKPRIO            CA       FLAGWRD4                              #  MARK ATTEMPT DURING PRIO
000627: 10,2431           73255                           MASK     OCT24100
000628: 10,2432           10000                           CCS      A
000629: 10,2433           13455                           TCF      MARSLEEP
000630:


000632: 10,2434           40100                           CS       FLAGWRD4
000633: 10,2435           74751                           MASK     MKOVBIT                               #  SET MARK OVER NORM
000634: 10,2436           00004                           INHINT
000635: 10,2437           26100                           ADS      FLAGWRD4
000636:
000637: 10,2440           12535                           TCF      SETNORM
000638:
000639: 10,2441           30370        MARKPERF           CA       MARKNV
000640: 10,2442           74144                           MASK     VERBMASK
000641: 10,2443           13121                           TCF      NV50DSP
000642:
000643: 10,2444           54155        GODSP              TS       PLAYTEM1
000644:
000645: 10,2445           34755        GODSP2             CAF      ZERO
000646: 10,2446           12501                           TCF      GOFLASH2
000647:
000648: 10,2447           54155        GODSPRET           TS       PLAYTEM1                              #  ENTRANCE FOR A GODSP WITH A PASTE
000649:
000650: 10,2450           34746                           CAF      BIT6                                  #  SET BIT6 TO GO BACK TO USER AFTER NVSUB
000651: 10,2451           12501                           TCF      GOFLASH2
000652:
000653: 10,2452           54155        GODSPR             TS       PLAYTEM1
000654:
000655: 10,2453           34755        GODSPR1            CAF      ZERO
000656: 10,2454           54160        GODSPR2            TS       PLAYTEM4
000657:
000658: 10,2455           34755                           CAF      ZERO                                  #  * DONT MOVE
000659: 10,2456           12642                           TCF      GODSPRS1
000660:
000661:                                                                                                  #  CLEANDSP IS USED FOR CLEARING OUT A NORMAL DISPLAY THAT IS PRESENTLY ACTIVE OR A NORMAL DISPLAY THAT IS
000662:                                                                                                  #  SET UP TO BE STARTED OR RESTARTED.
000663:
000664:                                                                                                  #  NORMALLY THE USER WILL NOT NEED TO USE THIS ROUTINE SINCE A NEW NORMAL DISPLAY AUTOMATICALLY CLEARS OUT AN
000665:                                                                                                  #  OLD DISPLAY.
000666:
000667:                                                                                                  #  CALLING SEQUENCE FOR CLEANDSP -
000668:
000669:                                                                                                  #                TC      BANKCALL
000670:                                                                                                  #                CADR    CLEANDSP
000671:
000672: 10,2457           34755        CLEANDSP           CAF      ZERO
000673: 10,2460           54155        REFLASH            TS       PLAYTEM1
000674:
000675: 10,2461           33505                           CAF      REDOMASK                              #  FLASH AND PERMIT
000676: 10,2462           12501                           TCF      GOFLASH2
000677:
000678: 10,2463           54155        REFLASHR           TS       PLAYTEM1
000679:
000680: 10,2464           33505                           CAF      REDOMASK                              #  FLASH AND PERMIT
000681: 10,2465           12640                           TCF      GODSPRS
000682:


000684: 10,2466           54155        REGODSP            TS       PLAYTEM1
000685:
000686: 10,2467           34736                           CAF      BIT14
000687: 10,2470           12501                           TCF      GOFLASH2
000688:
000689: 10,2471           54155        REGODSPR           TS       PLAYTEM1
000690:
000691: 10,2472           34736                           CAF      BIT14
000692: 10,2473           12454                           TCF      GODSPR2
000693:
000694: 10,2474           54155        CLOCPLAY           TS       PLAYTEM1
000695: 10,2475           33544                           CAF      CLOCKCON
000696: 10,2476           12501                           TCF      GOFLASH2
000697:
000698: 10,2477           54155        GOFLASH            TS       PLAYTEM1
000699:
000700: 10,2500           34750                           CAF      BIT4                                  #  LEAVE ONLY FLASH BIT SET
000701: 10,2501           54160        GOFLASH2           TS       PLAYTEM4
000702:
000703: 10,2502           02723                           TC       SAVELOCS
000704:
000705: 10,2503           00003                           RELINT
000706:
000707: 10,2504           12547                           TCF      MAKEPLAY                              #  BRANCH DIRECT WITH NO SEPARATE JOB CALL
000708:
000709: 10,2505           54155        PRIODSPR           TS       PLAYTEM1
000710:
000711: 10,2506           33524                           CAF      BITS7+4
000712: 10,2507           12640                           TCF      GODSPRS
000713:
000714: 10,2510           54155        PRIODSP            TS       PLAYTEM1
000715:
000716: 10,2511           33524        SETPRIO            CAF      BITS7+4
000717: 10,2512           12501                           TCF      GOFLASH2
000718:
000719: 10,2513           34755        MAKEPRIO           CAF      ZERO
000720: 10,2514           54164                           TS       COPINDEX
000721:
000722: 10,2515           03375                           TC       LINUSCHR
000723: 10,2516           12523                           TCF      HIPRIO                                #  LINUS RETURN
000724: 10,2517           30100                           CA       FLAGWRD4
000725: 10,2520           73543                           MASK     OCT20100                              #  IS PRIO IN ENDIDLE OR BUSY
000726: 10,2521           10000                           CCS      A
000727: 10,2522           12576                           TCF      PRIOBORT                              #  YES, ABORT
000728:
000729: 10,2523           30100        HIPRIO             CA       FLAGWRD4                              #  MARK ACTIVE
000730: 10,2524           75632                           MASK     OCT40400
000731: 10,2525           00006                           EXTEND
000732: 10,2526           12531                           BZF      ASKIFNRM                              #  NO
000733:


000735: 10,2527           34755        SETMARK            CAF      ZERO
000736: 10,2530           12775                           TCF      JOBXCHS
000737:
000738: 10,2531           30100        ASKIFNRM           CA       FLAGWRD4                              #  NORMAL ACTIVE
000739: 10,2532           73541                           MASK     OCT10200                              #  BITS 13+8
000740: 10,2533           00006                           EXTEND
000741: 10,2534           12537                           BZF      OKTOCOPY                              #  NO
000742:
000743: 10,2535           34753        SETNORM            CAF      ONE
000744: 10,2536           12775                           TCF      JOBXCHS
000745:
000746: 10,2537           02735        OKTOCOPY           TC       COPYNORM
000747: 10,2540           03206                           TC       WITCHONE
000748:
000749: 10,2541           05137                           TC       JOBWAKE
000750:
000751: 10,2542           03223                           TC       XCHTOEND
000752:
000753: 10,2543           30025        REDOPRIO           CA       TIME1                                 #  SAVE TIME PRIODSP SENT OUT
000754: 10,2544           55164                           TS       PRIOTIME
000755:
000756: 10,2545           34755        KEEPPRIO           CAF      ZERO                                  #  START UP PRIO DISPLAY
000757: 10,2546           12617                           TCF      PRIOPLAY
000758:
000759: 10,2547           30167        MAKEPLAY           CA       PRIORITY                              #  SAVE USERS PRIORITY
000760: 10,2550           77730                           MASK     PRIO37
000761: 10,2551           54163                           TS       USERPRIO
000762:
000763: 10,2552           37724                           CAF      PRIO33                                #  RAISE PRIORITY FOR FAST JOBS AFTER WAKE
000764: 10,2553           05146                           TC       PRIOCHNG
000765:
000766: 10,2554           30160                           CA       PLAYTEM4                              #  IS IT MARK OR PRIO OR NORM
000767: 10,2555           73523                           MASK     BITS15+7
000768: 10,2556           10000                           CCS      A
000769: 10,2557           12513                           TCF      MAKEPRIO                              #  ITS PRIO
000770: 10,2560           12562                           TCF      IFLEGAL
000771: 10,2561           12365                           TCF      MAKEMARK                              #  ITS MARK
000772:
000773: 10,2562           34752        IFLEGAL            CAF      TWO
000774: 10,2563           54164                           TS       COPINDEX
000775:
000776: 10,2564           03375                           TC       LINUSCHR
000777:
000778: 10,2565           12600                           TCF      OKTOPLAY                              #  LINUS RETURN
000779: 10,2566           41071                           CS       EBANKTEM
000780: 10,2567           74750                           MASK     BIT4
000781: 10,2570           10000                           CCS      A
000782: 10,2571           12600                           TCF      OKTOPLAY                              #  NO
000783:
000784: 10,2572           30100                           CA       FLAGWRD4                              #  WAS NORM ASLEEP


000786: 10,2573           73514                           MASK     NBUSMASK                              #  ARE ANY NORMS ASLEEP
000787: 10,2574           00006                           EXTEND
000788: 10,2575           12600                           BZF      OKTOPLAY                              #  NO
000789:
000790: 10,2576           05624        PRIOBORT           TC       BAILOUT
000791: 10,2577           31502                           OCT      31502
000792:
000793: 10,2600           02737        OKTOPLAY           TC       COPIES2
000794:
000795: 10,2601           30163                           CA       USERPRIO
000796: 10,2602           00006                           EXTEND
000797: 10,2603           04007                           ROR      SUPERBNK
000798: 10,2604           54366                           TS       RESTREG
000799:
000800: 10,2605           30100                           CA       FLAGWRD4                              #  PRIO OR MARK GOING
000801: 10,2606           73515                           MASK     PMMASK
000802: 10,2607           10000                           CCS      A
000803: 10,2610           12755                           TCF      GOSLEEPS                              #  YES
000804:
000805: 10,2611           12613                           TCF      +2
000806: 10,2612           12755                           TCF      GOSLEEPS                              #  MARK GOING
000807:
000808:                                                                                                  #  COULD PUT NORM BUSY CHECK HERE TO SAVE TIME
000809:
000810: 10,2613           03206                           TC       WITCHONE                              #  IS IT NVSUB BUSY, ENDIDLE OR NOONE
000811: 10,2614           05137                           TC       JOBWAKE
000812:
000813: 10,2615           03223                           TC       XCHTOEND
000814:
000815: 10,2616           34752        PLAYJUM1           CAF      TWO
000816: 10,2617           54164        PRIOPLAY           TS       COPINDEX
000817:
000818: 10,2620           13071                           TCF      GOPLAY
000819:
000820: 10,2621           54155        EXDSPRET           TS       PLAYTEM1
000821:
000822: 10,2622           37737                           CAF      BIT15+6
000823: 10,2623           12501                           TCF      GOFLASH2
000824:
000825: 10,2624           55044        GOPERF1            TS       NORMTEM1                              #  STORE DESIRED CHECKLIST VALUE
000826: 10,2625           33477                           CAF      V01N25                                #  USED TO DISPLAY CHECKLIST VALUE IN R1
000827:
000828: 10,2626           54155        GOPERFS            TS       PLAYTEM1
000829:
000830: 10,2627           33476                           CAF      PERFMASK                              #  LEAVE ONLY FLASH, PERFORM, BLANKING
000831: 10,2630           12501                           TCF      GOFLASH2
000832:
000833: 10,2631           54155        GOPERF2            TS       PLAYTEM1                              #  DESIRED VERB-NOUN TO DISPLAY R1,R2,R3
000834:
000835: 10,2632           33502                           CAF      PERF2MSK
000836: 10,2633           12501                           TCF      GOFLASH2
000837:


000839: 10,2634           02716        GOPERF4            TC       PURRS4
000840:
000841: 10,2635           12501                           TCF      GOFLASH2
000842:
000843: 10,2636           54155        GOFLASHR           TS       PLAYTEM1
000844:
000845: 10,2637           34750                           CAF      BIT4                                  #  LEAVE ONLY FLASH BIT SET
000846: 10,2640           54160        GODSPRS            TS       PLAYTEM4
000847:
000848: 10,2641           36250                           CAF      THREE
000849:
000850: 10,2642           00004        GODSPRS1           INHINT                                         #  IMMEDIATE RETURN IS CALL CADR +4
000851: 10,2643           54072                           TS       RUPTREG3
000852:
000853: 10,2644           30167                           CA       PRIORITY                              #  MAKE DISPLAY ONE HIGHER THAN USER
000854: 10,2645           77730                           MASK     PRIO37
000855: 10,2646           54063                           TS       NEWPRIO
000856:
000857: 10,2647           30160                           CA       PLAYTEM4                              #  IS THIS A FLASHING R DISPLAY
000858: 10,2650           74750                           MASK     BIT4
000859: 10,2651           10000                           CCS      A
000860: 10,2652           12660                           TCF      VACDSP                                #  YES, MAKE DSPLAY JOB A VAC
000861: 10,2653           30063                           CA       NEWPRIO                               #  NO, MAKE DSPLAY JOB A NOVAC
000862: 10,2654           05072                           TC       NOVAC
000863: 10,2655  E7,1471                                  EBANK=   WHOCARES
000864: 10,2655           02547 20067                     2CADR    MAKEPLAY
000865:
000866: 10,2657           12666                           TCF      BOTHJOBS
000867:
000868: 10,2660           30006        VACDSP             CA       BBANK
000869: 10,2661           00006                           EXTEND
000870: 10,2662           04007                           ROR      SUPERBNK
000871: 10,2663           54001                           TS       L
000872: 10,2664           33540                           CAF      MAKEGEN
000873: 10,2665           05116                           TC       SPVAC
000874:
000875: 10,2666           02723        BOTHJOBS           TC       SAVELOCS                              #  COPY TEMPS INTO PERMANENT REGISTERS
000876:
000877: 10,2667           00006                           EXTEND                                         #  SAVE NVWORD AND USERS MPAC +2
000878: 10,2670           30156                           DCA      MPAC       +1
000879: 10,2671           50064                           INDEX    LOCCTR
000880: 10,2672           52156                           DXCH     MPAC       +1
000881:
000882: 10,2673           00006                           EXTEND                                         #  SAVE USERS CADR, FLAGS AND EBANK
000883: 10,2674           30160                           DCA      MPAC       +3
000884: 10,2675           50064                           INDEX    LOCCTR
000885: 10,2676           52160                           DXCH     MPAC       +3
000886:
000887: 10,2677           30064                           CA       LOCCTR
000888: 10,2700           54161                           TS       MPAC       +5


000890: 10,2701           02730                           TC       SAVELOCR
000891: 10,2702           00003                           RELINT
000892:
000893: 10,2703           14640                           TCF      BANKJUMP                              #  CALL CADR +4
000894:
000895: 10,2704           55044        GOPERF1R           TS       NORMTEM1                              #  DESIRED CHECKLIST VALUE
000896:
000897: 10,2705           33477                           CAF      V01N25                                #  DISPLAYS CHECKLIST VALUE IN R1
000898:
000899: 10,2706           54155        GOPERFRS           TS       PLAYTEM1
000900:
000901: 10,2707           33476                           CAF      PERFMASK                              #  LEAVE ONLY FLASH, PERFORM, BLANKING
000902: 10,2710           12640                           TCF      GODSPRS
000903:
000904: 10,2711           54155        GOPERF2R           TS       PLAYTEM1                              #  DESIRED VERB-NOUN TO DISPLAY R1,R2,R3
000905:
000906: 10,2712           33502                           CAF      PERF2MSK
000907: 10,2713           12640                           TCF      GODSPRS
000908:
000909: 10,2714           02716        GOPERF4R           TC       PURRS4
000910:
000911: 10,2715           12640                           TCF      GODSPRS
000912:
000913: 10,2716           55143        PURRS4             TS       OPTION1                               #  DESIRED OPTION CODE
000914:
000915: 10,2717           33503                           CAF      V04N06
000916: 10,2720           54155                           TS       PLAYTEM1
000917:
000918: 10,2721           33504                           CAF      PERF4MSK                              #  FLASH, PERFORM AND BLANK R3
000919: 10,2722           00002                           TC       Q
000920:
000921: 10,2723           00004        SAVELOCS           INHINT
000922:
000923: 10,2724           43513                           CS       OCT3400                               #  EBANK BITS
000924: 10,2725           70160                           MASK     PLAYTEM4
000925: 10,2726           60003                           AD       EBANK
000926: 10,2727           54160                           TS       PLAYTEM4
000927:
000928: 10,2730           22002        SAVELOCR           LXCH     Q
000929:
000930: 10,2731           04645                           TC       MAKECADR
000931: 10,2732           54157                           TS       PLAYTEM3
000932:
000933: 10,2733           60072                           AD       RUPTREG3                              #  NOT USED FOR NON R ROUTINES
000934: 10,2734           00001                           TC       L
000935:
000936: 10,2735           34755        COPYNORM           CAF      ZERO
000937: 10,2736           54164        COPIES             TS       COPINDEX
000938: 10,2737           00004        COPIES2            INHINT
000939: 10,2740           30160                           CA       PLAYTEM4                              #  FLAGWORD
000940:


000942: 10,2741           50164                           INDEX    COPINDEX
000943: 10,2742           55067                           TS       EBANKSAV                              #  EQUIV TO DSPFLG
000944:
000945: 10,2743           73531                           MASK     CADRMASK                              #  FLASH AND GODSPRET
000946: 10,2744           00006                           EXTEND
000947: 10,2745           12751                           BZF      SKIPADD
000948:
000949: 10,2746           30157                           CA       PLAYTEM3
000950: 10,2747           50164                           INDEX    COPINDEX
000951: 10,2750           54372                           TS       CADRFLSH
000952:
000953: 10,2751           30155        SKIPADD            CA       PLAYTEM1                              #  VERB NOUN
000954: 10,2752           50164                           INDEX    COPINDEX
000955: 10,2753           54367                           TS       NVWORD
000956:
000957: 10,2754           13232                           TCF      RELINTQ
000958:
000959: 10,2755           50164        GOSLEEPS           INDEX    COPINDEX
000960: 10,2756           33532                           CA       PRIOOCT
000961: 10,2757           72761                           MASK     WAITMASK
000962: 10,2760           03545                           TC       UPENT2
000963: 10,2761           03004        WAITMASK           OCT      3004
000964: 10,2762           44753                           CS       ONE
000965: 10,2763           60164                           AD       COPINDEX
000966: 10,2764           54154                           TS       FACEREG
000967:
000968: 10,2765           50154        XCHSLEEP           INDEX    FACEREG
000969: 10,2766           33511                           CAF      WAKECADR
000970: 10,2767           00004                           INHINT
000971: 10,2770           05137                           TC       JOBWAKE                               #  FIND CADR IN JOB AREA
000972:
000973: 10,2771           03223                           TC       XCHTOEND                              #  CAUSES AWAKENED JOB TO GO TO ENDOFJOB
000974:
000975: 10,2772           50154                           INDEX    FACEREG                               #  REPLACE SAME CADR BUT NEW JOB AREA
000976: 10,2773           33511                           CAF      WAKECADR
000977: 10,2774           15133                           TCF      JOBSLEEP
000978:
000979: 10,2775           54154        JOBXCHS            TS       FACEREG                               #  CONTROLS TYPE OF DISPLAY PUT TO SLEEP
000980: 10,2776           03206                           TC       WITCHONE
000981: 10,2777           05137                           TC       JOBWAKE
000982: 10,3000           30154                           CA       FACEREG
000983: 10,3001           50064                           INDEX    LOCCTR
000984: 10,3002           54154                           TS       FACEREG
000985:
000986: 10,3003           33016                           CAF      XCHQADD
000987: 10,3004           03224                           TC       XCHNYLOC
000988:
000989: 10,3005           50154                           INDEX    FACEREG
000990: 10,3006           33533                           CA       MARKOCT
000991: 10,3007           73535                           MASK     IDLESLEP
000992:


000994: 10,3010           03555                           TC       DOWNENT2
000995: 10,3011           74004        IDLEMASK           OCT      74004                                 #  * DONT MOVE
000996:
000997: 10,3012           50154                           INDEX    FACEREG                               #  BIT SHOWS PRIO INTERRUPTED NORM OR MARK
000998: 10,3013           34747                           CA       BIT5                                  #  BIT5 FOR MARK, BIT4 FOR NORMAL
000999: 10,3014           64751                           AD       FOUR
001000: 10,3015           03545                           TC       UPENT2                                #  FLAG ROUTINE DOES RELINT
001001: 10,3016           02765        XCHQADD            GENADR   XCHSLEEP                              #  * DONT MOVE
001002: 10,3017           30100                           CA       FLAGWRD4
001003: 10,3020           74751                           MASK     MKOVBIT                               #  MARK OVER NORM?
001004: 10,3021           10000                           CCS      A
001005: 10,3022           02400        GENMARK            TC       MARKPLAY                              #  USED AS GENADR FOR JOBWAKE
001006: 10,3023           12537                           TCF      OKTOCOPY
001007:
001008: 10,3024           34755        MARKWAKE           CAF      ZERO
001009: 10,3025           54160        WAKEPLAY           TS       TEMPOR2
001010:
001011: 10,3026           50160                           INDEX    TEMPOR2
001012: 10,3027           33525                           CA       BITS5+11
001013: 10,3030           64751                           AD       FOUR
001014: 10,3031           03555                           TC       DOWNENT2
001015: 10,3032           40010        MARKFMSK           OCT      40010                                 #  *** DONT MOVE
001016:
001017: 10,3033           50160                           INDEX    TEMPOR2
001018: 10,3034           33511                           CAF      WAKECADR
001019: 10,3035           00004                           INHINT
001020: 10,3036           05137                           TC       JOBWAKE
001021:
001022: 10,3037           13336                           TCF      ENDRET
001023:
001024:                                                                                                  #  ALL .1 RESTARTS BRANCH DIRECTLY TO INITDSP.  NORMAL DISPLAYS ARE THE ONLY DISPLAYS ALLOWED TO USE .1 RESTARTS
001025:                                                                                                  #  INITDSP FIRST RESTORES THE EBANK AND THE SUPERBANK TO THE MOST RECENT NORMAL EBANK AND SUPERBANK.
001026:
001027:                                                                                                  #  IF THE MOST RECENT NORMAL DISPLAY REQUEST WAS NOT FINISHED, CONTROL IS SENT BACK TO THE LAST NORMAL USER.
001028:                                                                                                  #  OTHERWISE THE NORMAL DISPLAY SET UP IN THE NORMAL DISPLAY REGS IS STARTED UP IMMEDIATELY.
001029:
001030: 10,3040           31071        INITDSP            CA       EBANKTEM                              #  RESTORE MOST RECECT NORMAL EBANK
001031: 10,3041           54003                           TS       EBANK
001032:
001033: 10,3042           30366                           CA       RESTREG                               #  SUPERBANK AND JOB PRIORITY
001034: 10,3043           04727                           TC       SUPERSW                               #  RESTORE SUPERBANK
001035:
001036: 10,3044           77730                           MASK     PRIO37
001037: 10,3045           05146                           TC       PRIOCHNG
001038:
001039: 10,3046           46250                           CS       THREE
001040: 10,3047           60374                           AD       TEMPFLSH
001041: 10,3050           14640                           TCF      BANKJUMP
001042:
001043: 10,3051           00003        PINBRNCH           RELINT                                         #  FOR GOPIN USERS
001044: 10,3052           31072                           CA       MARK2PAC                              #  NEEDED TO SAVE MPAC +2 FOR MARK USERS


001046: 10,3053           54156                           TS       MPAC       +2                         #  ONLY
001047:
001048: 10,3054           30100                           CA       FLAGWRD4                              #  PINBRANCH CONDITION
001049: 10,3055           77743                           MASK     PINMASK
001050: 10,3056           10000                           CCS      A
001051: 10,3057           13062                           TCF      +3
001052: 10,3060           13472                           TCF      ERASER                                #  ** NOTHING IN ENDIDLE
001053: 10,3061           12400                           TCF      MARKPLAY
001054:
001055: 10,3062           05504        NORMBNCH           TC       UPFLAG                                #  SET PINBRANCH BIT
001056: 10,3063           00105                           ADRES    PINBRFLG
001057:
001058: 10,3064           34736                           CAF      PRIODBIT                              #  PRIO INTERRUPTED
001059: 10,3065           70100                           MASK     FLAGWRD4
001060: 10,3066           10000                           CCS      A
001061: 10,3067           12545                           TCF      KEEPPRIO
001062:
001063: 10,3070           12616                           TCF      PLAYJUM1
001064:
001065: 10,3071           02420        NVDSP              TC       COPYPACS
001066:
001067: 10,3072           30160                           CA       TEMPOR2                               #  SET UP BLANK BITS FOR NVMONOPT IN CASE
001068: 10,3073           74757                           MASK     SEVEN                                 #  USER REQUESTS BLANKING MONITOR
001069: 10,3074           54001                           TS       L
001070:
001071: 10,3075           44737                           CS       BIT13
001072: 10,3076           50164                           INDEX    COPINDEX
001073: 10,3077           71067                           MASK     DSPFLG
001074: 10,3100           50164                           INDEX    COPINDEX
001075: 10,3101           55067                           TS       DSPFLG
001076:
001077: 10,3102           74744                           MASK     BIT8                                  #  BIT8 SET IF DEC MARK PERFORM DISPLAY
001078: 10,3103           54141                           TS       TEM1
001079:
001080: 10,3104           30156                           CA       MPAC       +2
001081: 10,3105           54165                           TS       MPAC2SAV
001082:
001083: 10,3106           55072                           TS       MARK2PAC                              #  * FOR DISK ONLY *
001084: 10,3107           50164                           INDEX    COPINDEX
001085: 10,3110           10367                           CCS      NVWORD
001086: 10,3111           13120                           TCF      NVDSP1
001087: 10,3112           13234                           TCF      CLEANEND
001088: 10,3113           40370                           CS       MARKNV
001089: 10,3114           54370                           TS       MARKNV                                #  IN CASE MARKPLAY AWAKENED AFTER SLEEPING
001090: 10,3115           76077                           MASK     LOW7
001091: 10,3116           63516                           AD       V05N00M1
001092: 10,3117           60141                           AD       TEM1
001093: 10,3120           64753        NVDSP1             AD       ONE
001094: 10,3121           04155        NV50DSP            TC       NVMONOPT
001095: 10,3122           13246                           TCF      REST                                  #  IF BUSY
001096:


001098: 10,3123           04433                           TC       FLASHOFF                              #  IN CASE OF EXTENDED VERB NON FLASH
001099:
001100: 10,3124           02416                           TC       COPYTOGO                              #  MPACS DESTROYED BY NVSUB
001101: 10,3125           05516                           TC       DOWNFLAG                              #  UNSET SLEEPING BITS
001102: 10,3126           00102                           ADRES    MRKNVFLG
001103: 10,3127           05516                           TC       DOWNFLAG
001104: 10,3130           00103                           ADRES    NRMNVFLG
001105: 10,3131           05516                           TC       DOWNFLAG
001106: 10,3132           00104                           ADRES    PRONVFLG
001107: 10,3133           30160        BLANKCHK           CA       TEMPOR2                               #  BLANK BITS 1,2,3 IF SET
001108: 10,3134           04255                           TC       BLANKSUB
001109: 10,3135           13071                           TCF      NVDSP
001110: 10,3136           34747        PERFCHEK           CAF      BIT5                                  #  BIT5 FOR PERFORM
001111: 10,3137           70160                           MASK     TEMPOR2
001112: 10,3140           10000                           CCS      A                                     #  IS THIS A GOPERF DISPLAY
001113: 10,3141           13164                           TCF      1STOR2ND                              #  YES
001114:
001115: 10,3142           34750        GOANIDLE           CAF      BIT4
001116: 10,3143           70160                           MASK     TEMPOR2
001117: 10,3144           10000                           CCS      A
001118: 10,3145           13261                           TCF      FLASHSUB                              #  IT IS
001119:
001120: 10,3146           40160                           CS       TEMPOR2                               #  IS THIS A GODSPRET
001121: 10,3147           74746                           MASK     BIT6
001122: 10,3150           10000                           CCS      A
001123: 10,3151           13156                           TCF      ISITN00
001124:
001125: 10,3152           50164                           INDEX    COPINDEX
001126: 10,3153           30372                           CA       CADRFLSH
001127: 10,3154           54157                           TS       MPAC       +3
001128: 10,3155           13354                           TCF      ENDIT
001129:
001130: 10,3156           50164        ISITN00            INDEX    COPINDEX                              #  IS THIS A PASTE
001131: 10,3157           30367                           CA       NVWORD
001132: 10,3160           76077                           MASK     LOW7                                  #  CHECK MADE FOR PINBRNCH AND PRIO ON MARK
001133: 10,3161           00006                           EXTEND
001134: 10,3162           13261                           BZF      FLASHSUB                              #  YES, ASSUME PASTE ALWAYS ON FLASH
001135:
001136: 10,3163           15155                           TCF      ENDOFJOB                              #  NOT FLASH, NOT GOPERF, THERFORE EXIT
001137:
001138: 10,3164           30160        1STOR2ND           CA       TEMPOR2
001139: 10,3165           74737                           MASK     BIT13
001140: 10,3166           10000                           CCS      A
001141: 10,3167           13142                           TCF      GOANIDLE                              #  SECOND
001142:
001143: 10,3170           34737                           CA       BIT13
001144: 10,3171           50164                           INDEX    COPINDEX
001145: 10,3172           27067                           ADS      DSPFLG
001146:
001147: 10,3173           22007                           ZL


001149: 10,3174           00006                           EXTEND                                         #  IS IT MARK
001150: 10,3175           62441                           BZMF     MARKPERF                              #  YES
001151:
001152: 10,3176           74740                           MASK     BIT12
001153: 10,3177           00006                           EXTEND
001154: 10,3200           13204                           BZF      V50PASTE
001155: 10,3201           41066                           CS       NVWORD1                               #  NVOWRD1= -0 IS V97.  NVWORD1= -400 IS V99
001156: 10,3202           63542                           AD       V97N00
001157: 10,3203           13121                           TCF      NV50DSP
001158: 10,3204           33501        V50PASTE           CAF      V50N00
001159: 10,3205           13121                           TCF      NV50DSP                               #  DISPLAY SECOND PART OF GOPERF
001160:
001161: 10,3206           44747        WITCHONE           CS       BIT5                                  #  TURN OFF KEY RELEASE LIGHT
001162: 10,3207           00006                           EXTEND
001163: 10,3210           03011                           WAND     DSALMOUT
001164:
001165: 10,3211           30100                           CA       FLAGWRD4
001166: 10,3212           73517                           MASK     NVBUSMSK                              #  IS IT NVSUB ASLEEP
001167: 10,3213           10000                           CCS      A
001168: 10,3214           34753                           CAF      ONE
001169: 10,3215           54001                           TS       L
001170: 10,3216           34755                           CAF      ZERO
001171: 10,3217           50001                           INDEX    L
001172: 10,3220           57041                           XCH      CADRSTOR
001173:
001174: 10,3221           00004                           INHINT
001175: 10,3222           00002                           TC       Q
001176:
001177: 10,3223           34217        XCHTOEND           CAF      ENDINST                               #  TC ENDOFJOB REPLACES GENADR IN LOC FOR
001178: 10,3224           56064        XCHNYLOC           XCH      LOCCTR                                #  WAS THIS ADDRESS SLEEPING
001179: 10,3225           00006                           EXTEND
001180: 10,3226           63232                           BZMF     RELINTQ                               #  NO
001181: 10,3227           56064                           XCH      LOCCTR                                #  YES
001182: 10,3230           50064                           INDEX    LOCCTR
001183: 10,3231           54164                           TS       LOC
001184:
001185: 10,3232           00003        RELINTQ            RELINT
001186: 10,3233           00002                           TC       Q                                     #  BACK TO USER
001187:
001188: 10,3234           37723        CLEANEND           CAF      PRIO32                                #  ONE LOWER THAN DISPLAYS SLEEPING
001189: 10,3235           05105                           TC       FINDVAC
001190: 10,3236     0371                                  EBANK=   NVSAVE
001191: 10,3236           04231 04060                     2CADR    JAMTERM
001192:
001193: 10,3240           13262                           TCF      FLASHSUB   +1
001194:
001195: 10,3241           30100        ISITPRIO           CA       FLAGWRD4
001196: 10,3242           73267                           MASK     ITISMASK                              #  IS PINBRFLG, MARKIDFLG SET
001197: 10,3243           00006                           EXTEND


001199: 10,3244           12576                           BZF      PRIOBORT
001200: 10,3245           15155                           TCF      ENDOFJOB
001201:
001202: 10,3246           11041        REST               CCS      CADRSTOR                              #  IS SOMEONE IN ENDIDLE
001203: 10,3247           15155                           TCF      ENDOFJOB                              #  YES
001204: 10,3250           13252                           TCF      RESTSLEP
001205:
001206: 10,3251           15155                           TCF      ENDOFJOB
001207:
001208: 10,3252           30162        RESTSLEP           CA       GENMASK                               #  SET NVSLEEP BITS
001209: 10,3253           73520                           MASK     ASTROMSK
001210: 10,3254           03545                           TC       UPENT2
001211: 10,3255           24100        OCT24100           OCT      24100                                 #  *** DONT MOVE
001212:
001213: 10,3256           50164                           INDEX    COPINDEX
001214: 10,3257           33510                           CAF      NVCADR
001215: 10,3260           04442                           TC       NVSUBUSY                              #  BUSY OR ABORT IF ILLEGAL
001216:
001217: 10,3261           04427        FLASHSUB           TC       FLASHON
001218:
001219: 10,3262           30164                           CA       COPINDEX                              #  COPINDEX DESTROYED BY ENDIDLE
001220: 10,3263           54157                           TS       COPMPAC
001221:
001222: 10,3264           30162                           CA       GENMASK
001223: 10,3265           73011                           MASK     IDLEMASK
001224: 10,3266           03545                           TC       UPENT2
001225: 10,3267           40040        ITISMASK           OCT      40040                                 #  *** ENDIDLE ALLOW *** DONT MOVE
001226:
001227: 10,3270           31073                           CA       R1SAVE                                #  IS THIS A REPEAT AND RETURN DISPLAY
001228: 10,3271           50164                           INDEX    COPINDEX
001229: 10,3272           74751                           MASK     BIT3
001230: 10,3273           10000                           CCS      A
001231: 10,3274           13361                           TCF      UNSETR1                               #  YES
001232:
001233: 10,3275           11041                           CCS      CADRSTOR                              #  SEE IF SOMEONE ALREADY IN ENDIDLE
001234: 10,3276           13241                           TCF      ISITPRIO
001235: 10,3277           13301                           TCF      +2
001236: 10,3300           13241                           TCF      ISITPRIO
001237:
001238: 10,3301           04207                           TC       ENDIDLE
001239: 10,3302           13373        IDLERET1           TCF      TERMATE
001240:
001241: 10,3303           13412                           TCF      PROCEED                               #  ENDIDLE RETURNS HERE ON PROCEED
001242:
001243: 10,3304           43527                           CS       LOWLOAD
001244: 10,3305           60154                           AD       MPAC                                  #  VERBREG
001245: 10,3306           00006                           EXTEND
001246: 10,3307           26000                           DIM      A
001247: 10,3310           00006                           EXTEND
001248: 10,3311           13462                           BZF      LOADITIS                              #  V21 OR V22 OR V23 ON DSKY
001249:


001251: 10,3312           34752        OKTOENT            CAF      TWO
001252: 10,3313           54161        ENDOUT             TS       OUTHERE
001253:
001254: 10,3314           30100                           CA       FLAGWRD4                              #  CHECK NATURE OF ENDIDLE RETURN
001255: 10,3315           74101                           MASK     OCT60000
001256: 10,3316           10000                           CCS      A
001257: 10,3317           13322                           TCF      TIMECHEK                              #  PRIO ENDIDLE RETURN
001258: 10,3320           13430                           TCF      NORMRET                               #  NORMAL ENDIDLE RETURN
001259: 10,3321           13414                           TCF      MARKRET                               #  MARK ENDIDLE RETURN
001260:
001261: 10,3322           40025        TIMECHEK           CS       TIME1
001262: 10,3323           61164                           AD       PRIOTIME
001263: 10,3324           10000                           CCS      A
001264: 10,3325           40000                           COM
001265: 10,3326           67734                           AD       OCT37776
001266: 10,3327           64753                           AD       ONE
001267: 10,3330           63571                           AD       -2SEC
001268: 10,3331           00006                           EXTEND
001269: 10,3332           62545                           BZMF     KEEPPRIO
001270:
001271: 10,3333           13430                           TCF      NORMRET
001272:
001273: 10,3334           34753        NORMWAKE           CAF      ONE
001274: 10,3335           13025                           TCF      WAKEPLAY
001275:
001276: 10,3336           10161        ENDRET             CCS      OUTHERE
001277: 10,3337           64753                           AD       ONE
001278: 10,3340           13342                           TCF      +2                                    #  NORMAL ENDIDLE EXIT
001279: 10,3341           15155                           TCF      ENDOFJOB
001280: 10,3342           50157                           INDEX    COPMPAC
001281: 10,3343           60372                           AD       CADRFLSH
001282: 10,3344           54157                           TS       MPAC       +3
001283:
001284: 10,3345           30162                           CA       GENMASK                               #  REMOVE ENDIDLE AND PINBRANCH BITS
001285: 10,3346           73350                           MASK     PINIDMSK
001286: 10,3347           03555                           TC       DOWNENT2
001287: 10,3350           74044        PINIDMSK           OCT      74044                                 #  *** DONT MOVE
001288:
001289: 10,3351           46250                           CS       THREE                                 #  BLANK EVERYTHING EXCEPT MM
001290: 10,3352           04154                           TC       NVSUB
001291: 10,3353           13354                           TCF      +1
001292:
001293: 10,3354           30163        ENDIT              CA       USERPRIO                              #  RETURN TO USERS PRIORITY
001294: 10,3355           77730                           MASK     PRIO37
001295: 10,3356           05146                           TC       PRIOCHNG
001296: 10,3357           30157                           CA       MPAC       +3
001297: 10,3360           14640                           TCF      BANKJUMP
001298:
001299: 10,3361           50164        UNSETR1            INDEX    COPINDEX                              #  RESET REPEAT AND RETURN REQUEST
001300: 10,3362           44751                           CS       BIT3


001302: 10,3363           71073                           MASK     R1SAVE
001303: 10,3364           55073                           TS       R1SAVE
001304:
001305: 10,3365           34755                           CAF      ZERO                                  #  *** 205 ONLY MARKBRAN USERS IN
001306: 10,3366           04727                           TC       SUPERSW                               #  SUPERBANK 0
001307:
001308: 10,3367           36250                 -1        CAF      THREE                                 #  RETURN TO USERS IMMEDIATE RETURN LOC
001309: 10,3370           50164        IMMEDRET           INDEX    COPINDEX
001310: 10,3371           60372                           AD       CADRFLSH
001311: 10,3372           14640                           TCF      BANKJUMP
001312:
001313: 10,3373           34755        TERMATE            CAF      ZERO                                  #  ASTRONAUT TERMINATE (V34) RETURNS TO
001314: 10,3374           13313                           TCF      ENDOUT
001315:
001316: 10,3375           40160        LINUSCHR           CS       PLAYTEM4                              #  IS THIS A LINUS
001317: 10,3376           74736                           MASK     BIT14
001318: 10,3377           10000                           CCS      A
001319: 10,3400           16742                           TCF      Q+1                                   #  NO
001320: 10,3401           40157                           CS       PLAYTEM3                              #  YES, IS IT ALREADY IN ENDIDLE
001321: 10,3402           50164                           INDEX    COPINDEX
001322: 10,3403           60372                           AD       CADRFLSH
001323: 10,3404           00006                           EXTEND
001324: 10,3405           13407                           BZF      +2                                    #  YES
001325:
001326: 10,3406           00002                           TC       Q                                     #  NO
001327: 10,3407           11011                           CCS      DSPLOCK                               #  IS THE ASTRONAUT BUSY
001328: 10,3410           05155                           TC       ENDOFJOB                              #  END THE NEW DISPLAY, ITS ALREADY ACTIVE
001329: 10,3411           00002                           TC       Q
001330:
001331:                                                                                                  #  MORE LOGIC COULD BE INCORPORATED HERE TO MAKE SURE A RECYCLE IS A RECYCLAND CONVERSLY THAT A LOAD IS A LOAD.
001332:
001333: 10,3412           34753        PROCEED            CAF      ONE                                   #  ASTRONAUT PROCEED (V33) RETURNS
001334: 10,3413           13313                           TCF      ENDOUT
001335:
001336:                                                                                                  #  LASTPLAY CHECKS TO SEE IF (1) THE LAST NORMAL DISPLAY WAS EITHER INTERRUPTED BY A PRIO OR A MARK (MARK
001337:                                                                                                  #  COULD ONLY HAPPEN DURING PINBRANCH) OR IF (2) THE LAST NORMAL DISPLAY WAS REQUESTED WHILE A HIGHER PRIORITY
001338:                                                                                                  #  DISPLAY WAS GOING RESULTING IN THE NORMAL BEING PUT TO SLEEP.
001339:
001340:                                                                                                  #  IF EITHER OF THE ABOVE 2 CONDITIONS EXISTS, THE NORMAL DISPLAY IS AWAKENED TO GO TO PLAYJUM1 WHICH STARTS
001341:                                                                                                  #  UP THE MOST RECENT VALID NORMAL DISPLAY.  IF THESE 2 CONDITIONS DO NOT EXIST, CONTROL GOES TO PLAYJUM1 WHICH IS
001342:                                                                                                  #  STARTED IMMEDIATELY WITH THE ASSUMPTION THAT THE MOST RECENT NORMAL DISPLAY IS ALREADY IN-ENDIDLE (DURING A
001343:                                                                                                  #  PINBRANCH) OR THAT A RESTART HAS OCCURRED AND THE DISPLAY CAN BE STARTED AS A .1 RESTART.
001344:
001345: 10,3414           46245        MARKRET            CS       SIX
001346: 10,3415           70100                           MASK     FLAGWRD4
001347: 10,3416           00004                           INHINT                                         #  *** MAY MOVE DISPLAY FLAGWORD OUT OF
001348: 10,3417           54100                           TS       FLAGWRD4
001349:
001350: 10,3420           00003                           RELINT                                         #  INHINT REALM
001351: 10,3421           13336                           TCF      ENDRET
001352:


001354: 10,3422           37752        MARKOVER           CAF      MINUS1                                #  RUPTREG2 IS - MEANS ENDOFJOB TO ENDRET
001355: 10,3423           54161                           TS       OUTHERE
001356:
001357: 10,3424           30100                           CA       FLAGWRD4                              #  IS ENDIDFLG SET
001358: 10,3425           74355                           MASK     PRIO30                                #  IS NORMAL OR PRIO IN ENDIDLE
001359: 10,3426           10000                           CCS      A
001360: 10,3427           13062                           TCF      NORMBNCH
001361:
001362: 10,3430           30100        NORMRET            CA       FLAGWRD4                              #  IS MARK SLEEPING
001363: 10,3431           73525                           MASK     BITS5+11                              #  OR WAITING
001364: 10,3432           10000                           CCS      A
001365: 10,3433           13024                           TCF      MARKWAKE
001366:
001367: 10,3434           30100                           CA       FLAGWRD4                              #  NO
001368: 10,3435           73526                           MASK     BITS4+10                              #  IS NORMAL INTERRUPTED OR WAITING
001369: 10,3436           10000                           CCS      A
001370: 10,3437           13334                           TCF      NORMWAKE                              #  YES
001371:
001372: 10,3440           31071                           CA       EBANKTEM                              #  NO, WAS IT A FLASH REQUEST
001373: 10,3441           74771                           MASK     OCT50                                 #  OR A GODSPRET
001374: 10,3442           10000                           CCS      A
001375: 10,3443           13336                           TCF      ENDRET                                #  YES
001376: 10,3444           30371                           CA       NVSAVE
001377: 10,3445           00006                           EXTEND
001378: 10,3446           13336                           BZF      ENDRET
001379:
001380: 10,3447           35025                           CAF      PRIO15
001381: 10,3450           00004                           INHINT
001382: 10,3451           05072                           TC       NOVAC
001383: 10,3452     0367                                  EBANK=   NVWORD
001384: 10,3452           02616 20060                     2CADR    PLAYJUM1
001385:
001386: 10,3454           13336                           TCF      ENDRET
001387:
001388: 10,3455           30100        MARSLEEP           CA       FLAGWRD4                              #  IS MARK ALREADY IN
001389: 10,3456           73525                           MASK     BITS5+11
001390: 10,3457           10000                           CCS      A
001391: 10,3460           15155                           TCF      ENDOFJOB                              #  YES
001392: 10,3461           12755                           TCF      GOSLEEPS
001393:
001394: 10,3462           50157        LOADITIS           INDEX    COPMPAC
001395: 10,3463           30367                           CA       NVWORD
001396: 10,3464           76077                           MASK     LOW7
001397: 10,3465           40000                           COM
001398: 10,3466           60155                           AD       MPAC       +1                         #  NOUNREG
001399: 10,3467           00006                           EXTEND
001400: 10,3470           13312                           BZF      OKTOENT                               #  NO, THEN LOAD IS VALID
001401: 10,3471           13051                           TCF      PINBRNCH                              #  YES, ACCEPT LOAD BUT ASK FOR LAST AGAIN
001402:


001404: 10,3472           46250        ERASER             CS       THREE                                 #  BLANK EVERYTHING EXCEPT MM
001405: 10,3473           04154                           TC       NVSUB
001406: 10,3474           15155                           TCF      ENDOFJOB
001407: 10,3475           15155                           TCF      ENDOFJOB
001408:
001409: 10,3476           00036        PERFMASK           OCT      0036                                  #  FLASH, PERFORM, BLANK R2 AND R3
001410: 10,3477           00231        V01N25             VN       00125
001411: 10,3500           01407        V06N07             VN       00607                                 #  GOPERF3 VN DISPLAY BEFORE V50
001412: 10,3501           14400        V50N00             VN       5000
001413: 10,3502           00030        PERF2MSK           OCT      00030                                 #  FLASH, PERFORM
001414: 10,3503           01006        V04N06             VN       00406
001415: 10,3504           00014        PERF4MSK           OCT      14                                    #  FLASH, BLANK R3
001416: 10,3505  10,3051               GOAGIN             EQUALS   PINBRNCH
001417: 10,3505           20010        REDOMASK           OCT      20010                                 #  BITS 4 AND 14
001418: 10,3506           40230        MARK3MSK           OCT      40230                                 #  MARK, DECIMAL NOUN, PERFORM, FLASH
001419: 10,3507           40036        MARK4MSK           OCT      40036                                 #  MARK, PERFORM, FLASH, BLANK 2 AND 3
001420: 10,3510           20543        NVCADR             CADR     REDOPRIO
001421: 10,3511           20400        WAKECADR           CADR     MARKPLAY
001422: 10,3512           20616                           CADR     PLAYJUM1
001423:
001424: 10,3513           03400        OCT3400            OCT      3400                                  #  EBANK MASK
001425: 10,3514           11210        NBUSMASK           OCT      11210
001426: 10,3515           66521        PMMASK             OCT      66521
001427: 10,3516     4144               VERBMASK           =        MID7                                  #  (OCT 37600)
001428: 10,3516           01177        V05N00M1           OCT      1177                                  #  V05 MINUS ONE
001429: 10,3517  10,2330               GOXDSP             EQUALS   GOMARK
001430: 10,3517  10,2350               GOXDSPR            EQUALS   GOMARKR
001431: 10,3517  10,2334               GOXDSPF            EQUALS   GOMARKF
001432: 10,3517  10,2353               GOXDSPFR           EQUALS   GOMARKFR
001433: 10,3517     5472               ENDEXT             EQUALS   ENDMARK
001434: 10,3517     0165               MPAC2SAV           EQUALS   BANKSET
001435: 10,3517           00700        NVBUSMSK           OCT      700
001436: 10,3520           00704        ASTROMSK           OCT      704
001437: 10,3521           40030        MPERFMSK           OCT      40030                                 #  BIT 15,5,4 FOR MARK,PERFORM,FLASH
001438: 10,3522           34300        OCT34300           OCT      34300
001439: 10,3523           40100        BITS15+7           OCT      40100
001440: 10,3524           00110        BITS7+4            OCT      110
001441: 10,3525     1067               DSPFLG             EQUALS   EBANKSAV
001442: 10,3525     1070               MARKFLAG           EQUALS   MARKEBAN
001443: 10,3525     1071               SAVEFLAG           EQUALS   EBANKTEM
001444: 10,3525           02020        BITS5+11           OCT      2020                                  #  * DONT MOVE
001445: 10,3526           01010        BITS4+10           OCT      1010                                  #  * DONT MOVE
001446: 10,3527           00026        LOWLOAD            DEC      22         B-14
001447: 10,3530           77730        BUSYMASK           OCT      77730
001448: 10,3531           00050        CADRMASK           OCT      50
001449: 10,3532     7743               PINMASK            EQUALS   13,14,15
001450: 10,3532  10,3071               GOPLAY             EQUALS   NVDSP
001451:                                                                                                  # PRIOSAVE       EQUALS  R1SAVE
001452: 10,3532     0157               COPMPAC            EQUALS   MPAC       +3
001453: 10,3532     0160               TEMPOR2            EQUALS   MPAC       +4
001454:


001456: 10,3532     0161               OUTHERE            EQUALS   MPAC       +5
001457: 10,3532     0164               COPINDEX           EQUALS   LOC
001458: 10,3532     0163               USERPRIO           EQUALS   MODE
001459: 10,3532     0162               GENMASK            EQUALS   MPAC       +6
001460: 10,3532           20144        PRIOOCT            OCT      20144                                 #  PRIO
001461: 10,3533           42424        MARKOCT            OCT      42424                                 #  MARK
001462: 10,3534           11254                           OCT      11254                                 #  NORM
001463:
001464: 10,3535           74704        IDLESLEP           OCT      74704
001465: 10,3536           67777        OCT67777           OCT      67777
001466: 10,3537     5464               LINUS              EQUALS   BLANKET
001467: 10,3537     0154               FACEREG            EQUALS   MPAC
001468: 10,3537     0155               PLAYTEM1           EQUALS   MPAC       +1
001469: 10,3537     0157               PLAYTEM3           EQUALS   MPAC       +3
001470: 10,3537     0160               PLAYTEM4           EQUALS   MPAC       +4
001471: 10,3537           40420        OCT40420           OCT      40420
001472: 10,3540           02547        MAKEGEN            GENADR   MAKEPLAY
001473: 10,3541           10200        OCT10200           OCT      10200
001474: 10,3542           30200        V97N00             VN       09700                                 #  PASTE FOR V97 OR V99
001475: 10,3543           20100        OCT20100           OCT      20100
001476: 10,3544           24030        CLOCKCON           OCT      24030                                 #  FLASH, PERFORM, V99 OR V97 PASTE, REFLASH

End of include-file DISPLAY_INTERFACE_ROUTINES.agc.  Parent file is MAIN.agc


