
Source Code


000002:                                                                                                  ## Copyright:   Public domain.
000003:                                                                                                  ## Filename:    ERASABLE_ASSIGNMENTS.agc
000004:                                                                                                  ## Purpose:     A section of the reconstructed source code for Luminary 130.
000005:                                                                                                  ##              This was the original program released for the Apollo 13 LM,
000006:                                                                                                  ##              although several more revisions would follow. It has been
000007:                                                                                                  ##              reconstructed from a listing of Luminary 131, from which it
000008:                                                                                                  ##              differs on only two lines in P70-P71. The difference is
000009:                                                                                                  ##              described in detail in Luminary memo #129, which was used
000010:                                                                                                  ##              to perform the reconstruction. This file is intended to be a
000011:                                                                                                  ##              faithful reconstruction, except that the code format has been
000012:                                                                                                  ##              changed to conform to the requirements of the yaYUL assembler
000013:                                                                                                  ##              rather than the original YUL assembler.
000014:                                                                                                  ## Reference:   pp. 90-154
000015:                                                                                                  ## Contact:     Ron Burkey <info@sandroid.org>.
000016:                                                                                                  ## Website:     www.ibiblio.org/apollo/index.html
000017:                                                                                                  ## Mod history: 04/23/03 RSB.   Began.
000018:                                                                                                  ##              05/04/03 RSB.   Draft finished.
000019:                                                                                                  ##              05/14/05 RSB    Corrected website reference above.
000020:                                                                                                  ##              2010-08-24 JL   Added missing page number.
000021:                                                                                                  ##              2017-01-06 RSB  Page numbers now agree with those on the
000022:                                                                                                  ##                              original hardcopy, as opposed to the PDF page
000023:                                                                                                  ##                              numbers in 1701.pdf.
000024:                                                                                                  ##              2017-02-12 RSB  Proofed comment text using octopus/ProoferComments.
000025:                                                                                                  ##              2017-02-28 RSB  Fixed lingering typos.
000026:                                                                                                  ##              2017-03-11 MAS  Corrected errors found during transcription of Luminary 116.
000027:                                                                                                  ##              2017-03-13 RSB  Comment-text fixes noted in proofing Luminary 116.
000028:                                                                                                  ##              2017-03-15 RSB  Comment-text fixes identified in 5-way
000029:                                                                                                  ##                              side-by-side diff of Luminary 69/99/116/131/210.
000030:                                                                                                  ##              2018-09-04 MAS  Copied from Luminary 131 for Luminary 130.
000031:


000033:                                                                                                  #  CONVENTIONS AND NOTATIONS UTILIZED FOR ERASABLE ASSIGNMENTS.
000034:
000035:                                                                                                  #        EQUALS  IS USED IN TWO WAYS.  IT IS OFTEN USED TO CHAIN A GROUP
000036:                                                                                                  #                OF ASSIGNMENTS SO THAT THE GROUP MAY BE MOVED WITH THE
000037:                                                                                                  #                CHANGING OF ONLY ONE CARD.  EXAMPLE.
000038:
000039:                                                                                                  #                                        X       EQUALS  START
000040:                                                                                                  #                                        Y       EQUALS  X       +SIZE.X
000041:                                                                                                  #                                        Z       EQUALS  Y       +SIZE.Y
000042:
000043:                                                                                                  #                (X, Y, AND Z ARE CONSECUTIVE AND BEGIN AT START.        )
000044:                                                                                                  #                (SIZE.X AND SIZE.Y ARE THE RESPECTIVE SIZES OF X AND Y,
000045:                                                                                                  #                USUALLY NUMERIC, IE. 1, 2, 6, 18D ETC.                  )
000046:
000047:                                                                                                  #        EQUALS  OFTEN IMPLIES THE SHARING OF REGISTERS (DIFFERENT NAMES
000048:                                                                                                  #                AND DIFFERENT DATA).  EXAMPLE.
000049:
000050:                                                                                                  #                        X       EQUALS  Y
000051:
000052:                                                                                                  #        =       MEANS THAT MULTIPLE NAMES HAVE BEEN GIVEN TO THE SAME DATA.
000053:                                                                                                  #                (THIS IS LOGICAL EQUIVALENCE, NOT SHARING)  EXAMPLE.
000054:
000055:                                                                                                  #                        X       =       Y
000056:
000057:                                                                                                  #        THE SIZE AND UTILIZATION OF AN ERASABLE ARE OFTEN INCLUDED IN
000058:                                                                                                  #        THE COMMENTS IN THE FOLLOWING FORM.  M(SIZE)N.
000059:
000060:                                                                                                  #                M       REFERS TO THE MOBILITY OF THE ASSIGNMENT.
000061:                                                                                                  #                        B       MEANS THAT THE SYMBOL IS REFERENCED BY BASIC
000062:                                                                                                  #                                INSTRUCTIONS AND THUS IS E-BANK SENSITIVE.
000063:                                                                                                  #                        I       MEANS THAT THE SYMBOL IS REFERENCED ONLY BY
000064:                                                                                                  #                                INTERPRETIVE INSTRUCTIONS, AND IS THUS E-BANK
000065:                                                                                                  #                                INSENSITIVE AND MAY APPEAR IN ANY E-BANK.
000066:
000067:                                                                                                  #                SIZE    IS THE NUMBER OF REGISTERS INCLUDED BY THE SYMBOL.
000068:
000069:                                                                                                  #                N       INDICATES THE NATURE OR PERMANENCE OF THE CONTENTS.
000070:                                                                                                  #                        PL      MEANS THAT THE CONTENTS ARE PAD LOADED.
000071:                                                                                                  #                        DSP     MEANS THAT THE REGISTER IS USED FOR A DISPLAY.
000072:                                                                                                  #                        PRM     MEANS THAT THE REGISTER IS PERMANENT, IE. IT
000073:                                                                                                  #                                IS USED DURING THE ENTIRE MISSION FOR ONE
000074:                                                                                                  #                                PURPOSE AND CANNOT BE SHARED.
000075:                                                                                                  #                        TMP     MEANS THAT THE REGISTER IS USED TEMPORARILY OR
000076:                                                                                                  #                                IS A SCRATCH REGISTER FOR THE ROUTINE TO WHICH
000077:                                                                                                  #                                IT IS ASSIGNED.  THAT IS, IT NEED NOT BE SET
000078:                                                                                                  #                                PRIOR TO INVOCATION OF THE ROUTINE NOR DOES IT
000079:                                                                                                  #                                CONTAIN USEFUL OUTPUT TO ANOTHER ROUTINE.  THUS


000081:                                                                                                  #                                IT MAY BE SHARED WITHANY OTHER ROUTINE WHICH
000082:                                                                                                  #                                IS NOT ACTIVE IN PARALLEL.
000083:                                                                                                  #                        IN      MEANS INPUT TO THE ROUTINE AND IT IS PROBABLY
000084:                                                                                                  #                                TEMPORARY FOR A HIGHER-LEVEL ROUTINE/PROGRAM.
000085:                                                                                                  #                        OUT     MEANS OUTPUT FROM THE ROUTINE, PROBABLY
000086:                                                                                                  #                                TEMPORARY FOR A HIGHER-LEVEL ROUTINE/PROGRAM.
000087:


000089:                                                                                                  #  SPECIAL REGISTERS.
000090:
000091: 26,2022                        A                  EQUALS   0
000092: 26,2022                        L                  EQUALS   1                                     #  L AND Q ARE BOTH CHANNELS AND REGISTERS.
000093: 26,2022                        Q                  EQUALS   2
000094: 26,2022                        EBANK              EQUALS   3
000095: 26,2022                        FBANK              EQUALS   4
000096: 26,2022                        Z                  EQUALS   5                                     #  ADJACENT TO FBANK AND BBANK FOR DXCH Z
000097: 26,2022                        BBANK              EQUALS   6                                     #  (DTCB) AND DXCH FBANK (DTCF).
000098:                                                                                                  #  REGISTER 7 IS A ZERO-SOURCE, USED BY ZL.
000099:
000100: 26,2022                        ARUPT              EQUALS   10                                    #  INTERRUPT STORAGE.
000101: 26,2022                        LRUPT              EQUALS   11
000102: 26,2022                        QRUPT              EQUALS   12
000103: 26,2022                        SAMPTIME           EQUALS   13                                    #  SAMPLED TIME 1 & 2.
000104: 26,2022                        ZRUPT              EQUALS   15                                    #  (13 AND 14 ARE SPARES.)
000105: 26,2022                        BANKRUPT           EQUALS   16                                    #  USUALLY HOLDS FBANK OR BBANK.
000106: 26,2022                        BRUPT              EQUALS   17                                    #  RESUME ADDRESS AS WELL.
000107:
000108: 26,2022                        CYR                EQUALS   20
000109: 26,2022                        SR                 EQUALS   21
000110: 26,2022                        CYL                EQUALS   22
000111: 26,2022                        EDOP               EQUALS   23                                    #  EDITS INTERPRETIVE OPERATION CODE PAIRS.
000112:
000113: 26,2022                        TIME2              EQUALS   24
000114: 26,2022                        TIME1              EQUALS   25
000115: 26,2022                        TIME3              EQUALS   26
000116: 26,2022                        TIME4              EQUALS   27
000117: 26,2022                        TIME5              EQUALS   30
000118: 26,2022                        TIME6              EQUALS   31
000119: 26,2022                        CDUX               EQUALS   32
000120: 26,2022                        CDUY               EQUALS   33
000121: 26,2022                        CDUZ               EQUALS   34
000122: 26,2022                        CDUT               EQUALS   35                                    #  REND RADAR TRUNNION CDU
000123: 26,2022                        CDUS               EQUALS   36                                    #  REND RADAR SHAFT CDU
000124: 26,2022                        PIPAX              EQUALS   37
000125: 26,2022                        PIPAY              EQUALS   40
000126: 26,2022                        PIPAZ              EQUALS   41
000127: 26,2022                        Q-RHCCTR           EQUALS   42                                    #  RHC COUNTER REGISTERS
000128: 26,2022                        P-RHCCTR           EQUALS   43
000129: 26,2022                        R-RHCCTR           EQUALS   44
000130: 26,2022                        INLINK             EQUALS   45
000131: 26,2022                        RNRAD              EQUALS   46
000132: 26,2022                        GYROCMD            EQUALS   47
000133: 26,2022                        CDUXCMD            EQUALS   50
000134: 26,2022                        CDUYCMD            EQUALS   51
000135: 26,2022                        CDUZCMD            EQUALS   52
000136: 26,2022                        CDUTCMD            EQUALS   53                                    #  RADAR TRUNNION COMMAND
000137: 26,2022                        CDUSCMD            EQUALS   54                                    #  RADAR SHAFT COMMAND


000139: 26,2022                        THRUST             EQUALS   55
000140: 26,2022                        LEMONM             EQUALS   56
000141: 26,2022                        OUTLINK            EQUALS   57
000142: 26,2022                        ALTM               EQUALS   60
000143:
000144:                                                                                                  #  INTERPRETIVE REGISTERS ADDRESSED RELATIVE TO VAC AREA.
000145:
000146: 26,2022                        LVSQUARE           EQUALS   34D                                   #  SQUARE OF VECTOR INPUT TO ABVAL AND UNIT
000147: 26,2022                        LV                 EQUALS   36D                                   #  LENGTH OF VECTOR INPUT TO UNIT.
000148: 26,2022                        X1                 EQUALS   38D                                   #  INTERPRETIVE SPECIAL REGISTERS RELATIVE
000149: 26,2022                        X2                 EQUALS   39D                                   #  TO THE WORK AREA.
000150: 26,2022                        S1                 EQUALS   40D
000151: 26,2022                        S2                 EQUALS   41D
000152: 26,2022                        QPRET              EQUALS   42D
000153:
000154:                                                                                                  #  INPUT/OUTPUT CHANNELS
000155:
000156:                                                                                                  #  *** CHANNEL ZERO IS TO BE USED IN AN INDEXED OPERATION ONLY. ***
000157: 26,2022  0000001               LCHAN              EQUALS   L
000158: 26,2022  0000002               QCHAN              EQUALS   Q
000159: 26,2022                        HISCALAR           EQUALS   3
000160: 26,2022                        LOSCALAR           EQUALS   4
000161: 26,2022                        CHAN5              EQUALS   5
000162: 26,2022                        CHAN6              EQUALS   6
000163: 26,2022                        SUPERBNK           EQUALS   7                                     #  SUPER-BANK.
000164: 26,2022                        OUT0               EQUALS   10
000165: 26,2022                        DSALMOUT           EQUALS   11
000166: 26,2022                        CHAN12             EQUALS   12
000167: 26,2022                        CHAN13             EQUALS   13
000168: 26,2022                        CHAN14             EQUALS   14
000169: 26,2022                        MNKEYIN            EQUALS   15
000170: 26,2022                        NAVKEYIN           EQUALS   16
000171: 26,2022                        CHAN30             EQUALS   30
000172: 26,2022                        CHAN31             EQUALS   31
000173: 26,2022                        CHAN32             EQUALS   32
000174: 26,2022                        CHAN33             EQUALS   33
000175: 26,2022                        DNTM1              EQUALS   34
000176: 26,2022                        DNTM2              EQUALS   35
000177:
000178:                                                                                                  #  END OF CHANNEL ASSIGNMENTS
000179:


000181:                                                                                                  #  INTERPRETIVE SWITCH BIT ASSIGNMENTS
000182:
000183:                                                                                                  #        ** FLAGWORDS AND BITS NOW ASSIGNED AND DEFINED IN THEIR OWN LOG SECTION. **
000184:


000186:                                                                                                  #  GENERAL ERASABLE ASSIGNMENTS.
000187:
000188:    0061                                           SETLOC   61
000189:                                                                                                  #  INTERRUPT TEMPORARY STORAGE POOL.     (11D)
000190:
000191:                                                                                                  #  (ITEMP1 THROUGH RUPTREG4)
000192:
000193:                                                                                                  #  ANY OF THESE MAY BE USED AS TEMPORARIES DURING INTERRUPT OR WITH INTERRUPT INHIBITED. THE ITEMP SERIES
000194:                                                                                                  #  IS USED DURING CALLS TO THE EXECUTIVE AND WAITLIST - THE RUPTREGS ARE NOT.
000195:
000196:    0061                        ITEMP1             ERASE
000197:    0062     0061               WAITEXIT           EQUALS   ITEMP1
000198:    0062     0061               EXECTEM1           EQUALS   ITEMP1
000199:
000200:    0062                        ITEMP2             ERASE
000201:    0063     0062               WAITBANK           EQUALS   ITEMP2
000202:    0063     0062               EXECTEM2           EQUALS   ITEMP2
000203:
000204:    0063                        ITEMP3             ERASE
000205:    0064     0063               RUPTSTOR           EQUALS   ITEMP3
000206:    0064     0063               WAITADR            EQUALS   ITEMP3
000207:    0064     0063               NEWPRIO            EQUALS   ITEMP3
000208:
000209:    0064                        ITEMP4             ERASE
000210:    0065     0064               LOCCTR             EQUALS   ITEMP4
000211:    0065     0064               WAITTEMP           EQUALS   ITEMP4
000212:
000213:    0065                        ITEMP5             ERASE
000214:    0066     0065               NEWLOC             EQUALS   ITEMP5
000215:
000216:    0066                        ITEMP6             ERASE
000217:                                                                                                  # NEWLOC+1       EQUALS  ITEMP6          DP ADDRESS.
000218:
000219:    0067                                           SETLOC   67
000220:    0067                        NEWJOB             ERASE                                          #  MUST BE AT LOC 67 DUE TO WIRING.
000221:
000222:    0070                        RUPTREG1           ERASE
000223:    0071                        RUPTREG2           ERASE
000224:    0072                        RUPTREG3           ERASE
000225:    0073                        RUPTREG4           ERASE
000226:    0074     0073               KEYTEMP1           EQUALS   RUPTREG4
000227:    0074     0073               DSRUPTEM           EQUALS   RUPTREG4
000228:
000229:                                                                                                  #  FLAGWORD RESERVATIONS.                (16D)
000230:
000231:    0074                        STATE              ERASE    +15D                                  #  FLAGWORD REGISTERS.
000232:
000233:                                                                                                  #  P25 RADAR STORAGE.  (MAY BE UNSHARED IN E7)  (TEMP OVERLAY)  (2D)  OVERLAYS FLGWRD 14 & 15


000235:    0114     0112               LASTYCMD           EQUALS   STATE      +14D                       #  B(1)PRM       THESE ARE CALLED BY T4RUPT
000236:    0114     0113               LASTXCMD           EQUALS   LASTYCMD   +1                         #  B(1)PRM       THEY MUST BE CONTIGUOUS, Y FIRST
000237:
000238:                                                                                                  #  EXEC TEMPORARIES WHICH MAY BE USED BETWEEN CCS NEWJOBS. (32D) (INTB15+ THROUGH RUPTMXTM)
000239:    0114                        INTB15+            ERASE                                          #  REFLECTS 15TH BIT OF INDEXABLE ADDRESSES
000240:    0115     0114               DSEXIT             =        INTB15+                               #  RETURN FOR DSPIN
000241:    0115     0114               EXITEM             =        INTB15+                               #  RETURN FOR SCALE FACTOR ROUTINE SELECT
000242:    0115     0114               BLANKRET           =        INTB15+                               #  RETURN FOR 2BLANK
000243:
000244:    0115                        INTBIT15           ERASE                                          #  SIMILAR TO ABOVE.
000245:    0116     0115               WRDRET             =        INTBIT15                              #  RETURN FOR 5BLANK
000246:    0116     0115               WDRET              =        INTBIT15                              #  RETURN FOR DSPWD
000247:    0116     0115               DECRET             =        INTBIT15                              #  RETURN FOR PUTCOM(DEC LOAD)
000248:    0116     0115               21/22REG           =        INTBIT15                              #  TEMP FOR CHARIN
000249:
000250:                                                                                                  #  THE REGISTERS BETWEEN ADDRWD AND PRIORITY MUST STAY IN THE FOLLOWING ORDER FOR INTERPRETIVE TRACE.
000251:
000252:    0116                        ADDRWD             ERASE                                          #  12 BIT INTERPRETIVE OPERAND SUB-ADDRESS.
000253:    0117                        POLISH             ERASE                                          #  HOLDS CADR MADE FROM POLISH ADDRESS.
000254:    0120     0117               UPDATRET           =        POLISH                                #  RETURN FOR UPDATNN, UPDATVB
000255:    0120     0117               CHAR               =        POLISH                                #  TEMP FOR CHARIN
000256:    0120     0117               ERCNT              =        POLISH                                #  COUNTER FOR ERROR LIGHT RESET
000257:    0120     0117               DECOUNT            =        POLISH                                #  COUNTER FOR SCALING AND DISPLAY (DEC)
000258:
000259:    0120                        FIXLOC             ERASE                                          #  WORK AREA ADDRESS.
000260:    0121                        OVFIND             ERASE                                          #  SET NON-ZERO ON OVERFLOW.
000261:
000262:    0122                        VBUF               ERASE    +5                                    #  TEMPORARY STORAGE USED FOR VECTORS.
000263:    0130     0122               SGNON              =        VBUF                                  #  TEMP FOR +,- ON
000264:    0130     0122               NOUNTEM            =        VBUF                                  #  COUNTER FOR MIXNOUN FETCH
000265:    0130     0122               DISTEM             =        VBUF                                  #  COUNTER FOR OCTAL DISPLAY VERBS
000266:    0130     0122               DECTEM             =        VBUF                                  #  COUNTER FOR FETCH (DEC DISPLAY VERBS)
000267:
000268:    0130     0123               SGNOFF             =        VBUF       +1                         #  TEMP FOR +,- ON
000269:    0130     0123               NVTEMP             =        VBUF       +1                         #  TEMP FOR NVSUB
000270:    0130     0123               SFTEMP1            =        VBUF       +1                         #  STORAGE FOR SF CONST HI PART (=SFTEMP2-1)
000271:    0130     0123               HITEMIN            =        VBUF       +1                         #  TEMP FOR LOAD OF HRS,MIN,SEC
000272:                                                                                                  #  MUST = LOTEMIN-1.
000273:
000274:    0130     0124               CODE               =        VBUF       +2                         #  FOR DSPIN
000275:    0130     0124               SFTEMP2            =        VBUF       +2                         #  STORAGE FOR SF CONST LO PART (=SFTEMP1+1)
000276:    0130     0124               LOTEMIN            =        VBUF       +2                         #  TEMP FOR LOAD OF HRS,MIN,SEC
000277:                                                                                                  #  MUST = HITEMIN+1.
000278:
000279:    0130     0125               MIXTEMP            =        VBUF       +3                         #  FOR MIXNOUN DATA
000280:    0130     0125               SIGNRET            =        VBUF       +3                         #  RETURN FOR +,- ON
000281:
000282:                                                                                                  #  ALSO MIXTEMP+1 = VBUF+4, MIXTEMP+2 = VBUF+5.
000283:
000284:    0130                        BUF                ERASE    +2                                    #  TEMPORARY SCALAR STORAGE.


000286:    0133                        BUF2               ERASE    +1
000287:    0135     0130               INDEXLOC           EQUALS   BUF                                   #  CONTAINS ADDRESS OF SPECIFIED INDEX.
000288:    0135     0130               SWWORD             EQUALS   BUF                                   #  ADDRESS OF SWITCH WORD.
000289:    0135     0131               SWBIT              EQUALS   BUF        +1                         #  SWITCH BIT WITHIN SWITCH WORD.
000290:    0135                        MPTEMP             ERASE                                          #  TEMPORARY USED IN MULTIPLY AND SHIFT.
000291:    0136     0135               DMPNTEMP           =        MPTEMP                                #  DMPSUB TEMPORARY
000292:    0136                        DOTINC             ERASE                                          #  COMPONENT INCREMENT FOR DOT SUBROUTINE.
000293:    0137     0136               DVSIGN             EQUALS   DOTINC                                #  DETERMINES SIGN OF DDV RESULT.
000294:    0137     0136               ESCAPE             EQUALS   DOTINC                                #  USED IN ARCSIN/ARCCOS.
000295:    0137     0136               ENTRET             =        DOTINC                                #  EXIT FROM ENTER
000296:
000297:    0137                        DOTRET             ERASE                                          #  RETURN FROM DOT SUBROUTINE.
000298:    0140     0137               DVNORMCT           EQUALS   DOTRET                                #  DIVIDEND NORMALIZATION COUNT IN DDV.
000299:    0140     0137               ESCAPE2            EQUALS   DOTRET                                #  ALTERNATE ARCSIN/ARCCOS SWITCH.
000300:    0140     0137               WDCNT              =        DOTRET                                #  CHAR COUNTER FOR DSPWD
000301:    0140     0137               INREL              =        DOTRET                                #  INPUT BUFFER SELECTOR ( X,Y,Z, REG )
000302:
000303:    0140                        MATINC             ERASE                                          #  VECTOR INCREMENT IN MXV AND VXM.
000304:    0141     0140               MAXDVSW            EQUALS   MATINC                                #  +0 IF DP QUOTIENT IS NEAR ONE - ELSE -1.
000305:    0141     0140               POLYCNT            EQUALS   MATINC                                #  POLYNOMIAL LOOP COUNTER
000306:    0141     0140               DSPMMTEM           =        MATINC                                #  DSPCOUNT SAVE FOR DSPMM
000307:    0141     0140               MIXBR              =        MATINC                                #  INDICATOR FOR MIXED OR NORMAL NOUN
000308:
000309:    0141                        TEM1               ERASE                                          #  EXEC TEMP
000310:    0142     0141               POLYRET            =        TEM1
000311:    0142     0141               DSREL              =        TEM1                                  #  REL ADDRESS FOR DSPIN
000312:
000313:    0142                        TEM2               ERASE                                          #  EXEC TEMP
000314:    0143     0142               DSMAG              =        TEM2                                  #  MAGNITUDE STORE FOR DSPIN
000315:    0143     0142               IDADDTEM           =        TEM2                                  #  MIXNOUN INDIRECT ADDRESS STORAGE
000316:
000317:    0143                        TEM3               ERASE                                          #  EXEC TEMP
000318:    0144     0143               COUNT              =        TEM3                                  #  FOR DSPIN
000319:
000320:    0144                        TEM4               ERASE                                          #  EXEC TEMP
000321:    0145     0144               LSTPTR             =        TEM4                                  #  LIST POINTER FOR GRABUSY
000322:    0145     0144               RELRET             =        TEM4                                  #  RETURN FOR RELDSP
000323:    0145     0144               FREERET            =        TEM4                                  #  RETURN FOR FREEDSP
000324:    0145     0144               DSPWDRET           =        TEM4                                  #  RETURN FOR DSPSIGN
000325:    0145     0144               SEPSCRET           =        TEM4                                  #  RETURN FOR SEPSEC
000326:    0145     0144               SEPMNRET           =        TEM4                                  #  RETURN FOR SEPMIN
000327:
000328:    0145                        TEM5               ERASE                                          #  EXEC TEMP
000329:    0146     0145               NOUNADD            =        TEM5                                  #  TEMP STORAGE FOR NOUN ADDRESS
000330:
000331:    0146                        NNADTEM            ERASE                                          #  TEMP FOR NOUN ADDRESS TABLE ENTRY
000332:    0147                        NNTYPTEM           ERASE                                          #  TEMP FOR NOUN TYPE TABLE ENTRY
000333:    0150                        IDAD1TEM           ERASE                                          #  TEMP FOR INDIR ADRESS TABLE ENTRY (MIXNN)
000334:                                                                                                  #  MUST = IDAD2TEM-1, = IDAD3TEM-2.
000335:    0151                        IDAD2TEM           ERASE                                          #  TEMP FOR INDIR ADRESS TABLE ENTRY (MIXNN)


000337:                                                                                                  #  MUST = IDAD1TEM+1, = IDAD3TEM-1.
000338:    0152                        IDAD3TEM           ERASE                                          #  TEMP FOR INDIR ADRESS TABLE ENTRY (MIXNN)
000339:                                                                                                  #  MUST = IDAD1TEM+2, = IDAD2TEM+1.
000340:    0153                        RUTMXTEM           ERASE                                          #  TEMP FOR SF ROUT TABLE ENTRY (MIXNN ONLY)
000341:
000342:                                                                                                  #  AX*SR*T STORAGE.                      (6D)
000343:    0154     0142               DEXDEX             EQUALS   TEM2                                  #  B(1)TMP
000344:    0154     0143               DEX1               EQUALS   TEM3                                  #  B(1)TMP
000345:    0154     0144               DEX2               EQUALS   TEM4                                  #  B(1)TMP
000346:    0154     0145               RTNSAVER           EQUALS   TEM5                                  #  B(1)TMP
000347:    0154     0157               TERM1TMP           EQUALS   MPAC       +3                         #  B(2)TMP
000348:
000349:    0154     0143               DEXI               =        DEX1
000350:
000351:                                                                                                  #  THE FOLLOWING 10 REGISTERS ARE USED FOR TEMPORARY STORAGE OF THE DERIVATIVE COEFFICIENT TABLE OF
000352:                                                                                                  #  SUBROUTINE ROOTPSRS.  THEY MUST REMAIN WITHOUT INTERFERENCE WITH ITS SUBROUTINES WHICH ARE POWRSERS (POLY),
000353:                                                                                                  #  DMPSUB, DMPNSUB, SHORTMP, DDV/BDDV, ABS, AND USPRCADR.
000354:
000355:    0154     0142               DERCOF-8           =        MPAC       -12                        #  ROOTPSRS DER COF N-4 HI ORDER
000356:    0154     0143               DERCOF-7           =        MPAC       -11                        #  ROOTPSRS DER COF N-4 LO ORDER
000357:    0154     0144               DERCOF-6           =        MPAC       -10                        #  ROOTPSRS DER COF N-3 HI ORDER
000358:    0154     0145               DERCOF-5           =        MPAC       -7                         #  ROOTPSRS DER COF N-3 LO ORDER
000359:    0154     0146               DERCOF-4           =        MPAC       -6                         #  ROOTPSRS DER COF N-2 HI ORDER
000360:    0154     0147               DERCOF-3           =        MPAC       -5                         #  ROOTPSRS DER COF N-2 LO ORDER
000361:    0154     0150               DERCOF-2           =        MPAC       -4                         #  ROOTPSRS DER COF N-1 HI ORDER
000362:    0154     0151               DERCOF-1           =        MPAC       -3                         #  ROOTPSRS DER COF N-1 LO ORDER
000363:    0154     0152               DERCOFN            =        MPAC       -2                         #  ROOTPSRS DER COF N HI ORDER
000364:    0154     0153               DERCOF+1           =        MPAC       -1                         #  ROOTPSRS DER COF N LO ORDER
000365:
000366:    0154     0117               PWRPTR             =        POLISH                                #  ROOTPSRS POWER TABLE POINTER
000367:    0154     0124               DXCRIT             =        VBUF       +2                         #  ROOTPSRS CRITERION FOR ENDING ITERS HI
000368:    0154     0125               DXCRIT+1           =        VBUF       +3                         #  ROOTPSRS CRITERION FOR ENDING ITERS LO
000369:    0154     0126               ROOTPS             =        VBUF       +4                         #  ROOTPSRS ROOT HI ORDER
000370:    0154     0127               ROOTPS+1           =        VBUF       +5                         #  ROOTPSRS ROOT LO ORDER
000371:    0154     0132               RETROOT            =        BUF        +2                         #  ROOTPSRS RETURN ADDRESS OF USER
000372:    0154     0140               PWRCNT             =        MATINC                                #  ROOTPSRS DER TABLE LOOP COUNTER
000373:    0154     0141               DERPTR             =        TEM1                                  #  ROOTPSRS DER TABLE POINTER
000374:


000376:                                                                                                  #  DYNAMICALLY ALLOCATED CORE SETS FOR JOBS.     (84D)
000377:
000378:    0154                        MPAC               ERASE    +6                                    #  MULTI-PURPOSE ACCUMULATOR.
000379:    0163                        MODE               ERASE                                          #  +1 FOR TP, +0 FOR DP, OR -1 FOR VECTOR.
000380:    0164                        LOC                ERASE                                          #  LOCATION ASSOCIATED WITH JOB.
000381:    0165                        BANKSET            ERASE                                          #  USUALLY CONTAINS BBANK SETTING.
000382:    0166                        PUSHLOC            ERASE                                          #  WORD OF PACKED INTERPRETIVE PARAMETERS.
000383:    0167                        PRIORITY           ERASE                                          #  PRIORITY OF PRESENT JOB AND WORK AREA.
000384:
000385:    0170                                           ERASE    +83D                                  #  EIGHT SETS OF 12 REGISTERS EACH
000386:
000387:                                                                                                  #  INCORP STORAGE:  R22 (N29)    (SHARES WITH FOLLOWING SECTION)         (4D)
000388:
000389:    0314     0314               R22DISP            EQUALS   TIME2SAV                              #  I(4) N49 DISPLAY OF DELTA R AND DELTA V
000390:
000391:                                                                                                  #  STANDBY VERB ERASABLES.  REDOCTR BEFORE THETADS.      (14D)
000392:
000393:    0314                        TIME2SAV           ERASE    +1
000394:    0316                        SCALSAVE           ERASE    +1
000395:    0320                        REDOCTR            ERASE                                          #  CONTAINS NUMBER OF RESTARTS
000396:    0321                        THETAD             ERASE    +2
000397:    0324     0321               CPHI               =        THETAD                                #  O     DESIRED GIMBAL ANGLES
000398:    0324     0322               CTHETA             =        THETAD     +1                         #  I     FOR
000399:    0324     0323               CPSI               =        THETAD     +2                         #  M     MANEUVER.
000400:    0324                        DELV               ERASE    +5
000401:    0332     0324               DELVX              =        DELV
000402:    0332     0326               DELVY              =        DELV       +2
000403:    0332     0330               DELVZ              =        DELV       +4
000404:
000405:                                                                                                  #  WAITLIST REPEAT FLAG                          (1D)
000406:
000407:    0332                        RUPTAGN            ERASE
000408:    0333     0332               KEYTEMP2           =        RUPTAGN                               #  TEMP FOR KEYRUPT, UPRUPT
000409:
000410:                                                                                                  #  DOWNLINK STORAGE.                             (27D)
000411:
000412:    0333     0333               DNLSTADR           EQUALS   DNLSTCOD
000413:
000414:    0333                        DNLSTCOD           ERASE                                          #  B(1)PRM DOWNLIINK LIST CODE
000415:    0334                        LDATALST           ERASE    +25D                                  #        (26D)
000416:    0366     0335               DNTMGOTO           EQUALS   LDATALST   +1                         #  B(1)
000417:    0366     0336               TMINDEX            EQUALS   DNTMGOTO   +1                         #  B(1)
000418:    0366     0336               DUMPLOC            EQUALS   TMINDEX                               #  CONTAINS ECADR OF AGC DP WORD BEING DUMP
000419:                                                                                                  #  ED AND COUNT OF COMPLETE DUMPS ALREADY S
000420:                                                                                                  #  ENT.
000421:    0366     0337               DNQ                EQUALS   TMINDEX    +1                         #  B(1)


000423:    0366     0340               DNTMBUFF           EQUALS   DNQ        +1                         #  B(22)PRM DOWNLINK SNAPSHOT BUFFER
000424:
000425:                                                                                                  #  UNSWITCHED FOR DISPLAY INTERFACE ROUTINES.    (10D) FIVE MORE IN EBANK 2
000426:
000427:    0366                        RESTREG            ERASE                                          #  B(1)PRM FOR DISPLAY RESTARTS
000428:    0367                        NVWORD             ERASE
000429:    0370                        MARKNV             ERASE
000430:    0371                        NVSAVE             ERASE
000431:                                                                                                  #  (RETAIN THE ORDER OF CADRFLSH TO FAILREG +2 FOR DOWNLINK PURPOSES)
000432:    0372                        CADRFLSH           ERASE
000433:    0373                        CADRMARK           ERASE
000434:    0374                        TEMPFLSH           ERASE
000435:    0375                        FAILREG            ERASE    +2                                    #  B(3)PRM 3 ALARM CODE REGISTERS
000436:
000437:                                                                                                  #  VAC AREAS. -BE CAREFUL OF PLACEMENT-          (220D)
000438:
000439:    0400                        VAC1USE            ERASE
000440:    0401                        VAC1               ERASE    +42D
000441:    0454                        VAC2USE            ERASE
000442:    0455                        VAC2               ERASE    +42D
000443:    0530                        VAC3USE            ERASE
000444:    0531                        VAC3               ERASE    +42D
000445:    0604                        VAC4USE            ERASE
000446:    0605                        VAC4               ERASE    +42D
000447:    0660                        VAC5USE            ERASE
000448:    0661                        VAC5               ERASE    +42D
000449:
000450:                                                                                                  #  STARALIGN ERASABLES.                          (13D)
000451:
000452:    0734                        STARCODE           ERASE                                          #  (1)
000453:    0735     0734               AOTCODE            =        STARCODE
000454:    0735                        STARALGN           ERASE    +11D
000455:    0751     0735               SINCDU             =        STARALGN
000456:    0751     0743               COSCDU             =        STARALGN   +6
000457:
000458:    0751     0741               SINCDUX            =        SINCDU     +4
000459:    0751     0735               SINCDUY            =        SINCDU
000460:    0751     0737               SINCDUZ            =        SINCDU     +2
000461:    0751     0747               COSCDUX            =        COSCDU     +4
000462:    0751     0743               COSCDUY            =        COSCDU
000463:    0751     0745               COSCDUZ            =        COSCDU     +2
000464:
000465:                                                                                                  #  PHASE TABLE AND RESTART COUNTERS.             (12D)
000466:
000467:    0751                        -PHASE1            ERASE
000468:    0752                        PHASE1             ERASE
000469:    0753                        -PHASE2            ERASE


000471:    0754                        PHASE2             ERASE
000472:    0755                        -PHASE3            ERASE
000473:    0756                        PHASE3             ERASE
000474:    0757                        -PHASE4            ERASE
000475:    0760                        PHASE4             ERASE
000476:    0761                        -PHASE5            ERASE
000477:    0762                        PHASE5             ERASE
000478:    0763                        -PHASE6            ERASE
000479:    0764                        PHASE6             ERASE
000480:
000481:                                                                                                  #  A**SR*T STORAGE.                              (6D)
000482:
000483:    0765                        CDUSPOT            ERASE    +5                                    #  B(6)
000484:
000485:    0773     0765               CDUSPOTY           =        CDUSPOT
000486:    0773     0767               CDUSPOTZ           =        CDUSPOT    +2
000487:    0773     0771               CDUSPOTX           =        CDUSPOT    +4
000488:
000489:                                                                                                  #  VERB 37 STORAGE.                              (2D)
000490:
000491:    0773                        MINDEX             ERASE                                          #  B(1)TMP INDEX FOR MAJOR MODE
000492:    0774                        MMNUMBER           ERASE                                          #  B(1)TMP MAJOR MODE REQUESTED BY V37
000493:
000494:                                                                                                  #  PINBALL INTERRUPT ACTION.                     (1D)
000495:
000496:    0775                        DSPCNT             ERASE                                          #  B(1)PRM COUNTER FOR DSPOUT.
000497:
000498:                                                                                                  #  PINBALL EXECUTIVE ACTION                      (44D)
000499:
000500:    0776                        DSPCOUNT           ERASE                                          #  DISPLAY POSITION INDICATOR.
000501:    0777                        DECBRNCH           ERASE                                          #  +DEC, -DEC, OCT INDICATOR
000502:    1000                        VERBREG            ERASE                                          #  VERB CODE
000503:    1001                        NOUNREG            ERASE                                          #  NOUN CODE
000504:    1002                        XREG               ERASE                                          #  R1 INPUT BUFFER
000505:    1003                        YREG               ERASE                                          #  R2 INPUT BUFFER
000506:    1004                        ZREG               ERASE                                          #  R3 INPUT BUFFER
000507:    1005                        XREGLP             ERASE                                          #  LO PART OF XREG (FOR DEC CONV ONLY)
000508:    1006                        YREGLP             ERASE                                          #  LO PART OF YREG (FOR DEC CONV ONLY)
000509:    1007     1006               HITEMOUT           =        YREGLP                                #  TEMP FOR DISPLAY OF HRS,MIN,SEC
000510:                                                                                                  #  MUST = LOTEMOUT-1.
000511:    1007                        ZREGLP             ERASE                                          #  LO PART OF ZREG (FOR DEC CONV ONLY)
000512:    1010     1007               LOTEMOUT           =        ZREGLP                                #  TEMP FOR DISPLAY OF HRS,MIN,SEC
000513:                                                                                                  #  MUST = HITEMOUT+1.
000514:    1010                        MODREG             ERASE                                          #  MODE CODE
000515:    1011                        DSPLOCK            ERASE                                          #  KEYBOARD/SUBROUTINE CALL INTERLOCK
000516:    1012                        REQRET             ERASE                                          #  RETURN REGISTER FOR LOAD


000518:    1013                        LOADSTAT           ERASE                                          #  STATUS INDICATOR FOR LOADTST
000519:    1014                        CLPASS             ERASE                                          #  PASS INDICATOR CLEAR
000520:    1015                        NOUT               ERASE                                          #  ACTIVITY COUNTER FOR DSPTAB
000521:    1016                        NOUNCADR           ERASE                                          #  MACHINE CADR FOR NOUN
000522:    1017                        MONSAVE            ERASE                                          #  N/V CODE FOR MONITOR. (= MONSAVE1-1)
000523:    1020                        MONSAVE1           ERASE                                          #  NOUNCADR FOR MONITOR (MATBS) = MONSAVE +1
000524:    1021                        MONSAVE2           ERASE                                          #  NVMONOPT OPTIONS
000525:    1022                        DSPTAB             ERASE    +11D                                  #  0-10D, DISPLAY PANEL BUFF.  11D, C/S LTS.
000526:    1036                        NVQTEM             ERASE                                          #  NVSUB STORAGE FOR CALLING ADDRESS
000527:                                                                                                  #  MUST = NVBNKTEM-1
000528:    1037                        NVBNKTEM           ERASE                                          #  NVSUB STORAGE FOR CALLING BANK
000529:                                                                                                  #  MUST = NVQTEM+1
000530:    1040                        VERBSAVE           ERASE                                          #  NEEDED FOR RECYCLE
000531:    1041                        CADRSTOR           ERASE                                          #  ENDIDLE STORAGE
000532:    1042                        DSPLIST            ERASE                                          #  WAITING REG FOR DSP SYST INTERNAL USE
000533:    1043                        EXTVBACT           ERASE                                          #  EXTENDED VERB ACTIVITY INTERLOCK
000534:    1044                        DSPTEM1            ERASE    +2                                    #  BUFFER STORAGE AREA 1 (MOSTLY FOR TIME)
000535:    1047                        DSPTEM2            ERASE    +2                                    #  BUFFER STORAGE AREA 2 (MOSTLY FOR DEG)
000536:
000537:    1052     1050               DSPTEMX            EQUALS   DSPTEM2    +1                         #  B(2) S-S DISPLAY BUFFER FOR EXT. VERBS
000538:    1052     1044               NORMTEM1           EQUALS   DSPTEM1                               #  B(3)DSP NORMAL DISPLAY REGISTERS.
000539:
000540:                                                                                                  #  DISPLAY FOR EXTENDED VERBS (V82, R04 (V62), V41 (N72) )       (2D)
000541:
000542:    1052     1050               OPTIONX            EQUALS   DSPTEMX                               #  (2) EXTENDED VERB OPTION CODE
000543:
000544:                                                                                                  #  TBASES AND PHSPRDT S.                         (12D)
000545:
000546:    1052                        TBASE1             ERASE
000547:    1053                        PHSPRDT1           ERASE
000548:    1054                        TBASE2             ERASE
000549:    1055                        PHSPRDT2           ERASE
000550:    1056                        TBASE3             ERASE
000551:    1057                        PHSPRDT3           ERASE
000552:    1060                        TBASE4             ERASE
000553:    1061                        PHSPRDT4           ERASE
000554:    1062                        TBASE5             ERASE
000555:    1063                        PHSPRDT5           ERASE
000556:    1064                        TBASE6             ERASE
000557:    1065                        PHSPRDT6           ERASE
000558:
000559:                                                                                                  #  UNSWITCHED FOR DISPLAY INTERFACE ROUTINES.    (6D)
000560:    1066                        NVWORD1            ERASE                                          #  B(1) PROBABLY FOR DISPLAY DURING SERVICER
000561:    1067                        EBANKSAV           ERASE


000563:    1070                        MARKEBAN           ERASE
000564:    1071                        EBANKTEM           ERASE
000565:    1072                        MARK2PAC           ERASE
000566:    1073                        R1SAVE             ERASE
000567:
000568:                                                                                                  #  IMU COMPENSATION UNSWITCHED ERASABLE.         (1D)
000569:
000570:    1074                        1/PIPADT           ERASE
000571:
000572:                                                                                                  #  SINGLE PRECISION SUBROUTINE TEMPORARIES.      (2D)
000573:
000574:    1075                        TEMK               ERASE                                          #  (1)
000575:    1076                        SQ                 ERASE                                          #  (1)
000576:
000577:                                                                                                  #  UNSWITCHED RADAR ERASABLE                     (13D)
000578:
000579:    1077                        SAMPLIM            ERASE
000580:    1100                        SAMPLSUM           ERASE    +3
000581:    1104                        TIMEHOLD           ERASE    +1
000582:    1106     1100               RRTARGET           EQUALS   SAMPLSUM                              #  HALF U IT VECTOR IN SM OR NB AXES.
000583:    1106                        TANG               ERASE    +1                                    #  DESIRE  TRUNNION AND SHAFT ANGLES.
000584:    1110     1106               MODEA              EQUALS   TANG
000585:    1110                        MODEB              ERASE    +1                                    #  DODES  LOBBERS TANG +2.
000586:    1112     1110               NSAMP              EQUALS   MODEB
000587:    1112                        DESRET             ERASE
000588:    1113     1112               OLDATAGD           EQUALS   DESRET                                #  USED I  DATA READING ROUTINES.
000589:    1113                        DESCOUNT           ERASE
000590:
000591:                                                                                                  #  ******   P22  ******                          (6D)
000592:
000593:    1114     1100               RSUBC              EQUALS   RRTARGET                              #  I(6) S-S CSM POSITION VECTOR
000594:


000596:                                                                                                  #  UNSWITCHED FOR ORBIT INTEGRATION.             (21D)
000597:
000598:    1114                        TDEC               ERASE    +20D                                  #  I(2)
000599:    1141     1116               COLREG             EQUALS   TDEC       +2                         #  I(1)
000600:    1141     1117               LAT                EQUALS   COLREG     +1                         #  I(2)
000601:    1141     1121               LONG               EQUALS   LAT        +2                         #  I(2)
000602:    1141     1123               ALT                EQUALS   LONG       +2                         #  I(2)
000603:    1141     1125               YV                 EQUALS   ALT        +2                         #  I(6)
000604:    1141     1133               ZV                 EQUALS   YV         +6                         #  I(6)
000605:
000606:                                                                                                  #  MISCELLANEOUS UNSWITCHED.                     (20D)
000607:
000608:    1141                        P40/RET            ERASE                                          #  (WILL BE PUT IN E6 WHEN THERE IS ROOM)
000609:    1142                        GENRET             ERASE                                          #  B(1) R61 RETURN CADR.
000610:    1143                        OPTION1            ERASE                                          #  B(1) NOUN 06 USES THIS
000611:    1144                        OPTION2            ERASE                                          #  B(1) NOUN 06 USES THIS
000612:    1145                        OPTION3            ERASE                                          #  B(1) NOUN 06 USES THIS
000613:    1146                        LONGCADR           ERASE    +1                                    #  B(2) LONGCALL REGISTER
000614:    1150                        LONGBASE           ERASE    +1
000615:    1152                        LONGTIME           ERASE    +1                                    #  B(2) LONGCALL REGISTER
000616:    1154                        CDUTEMPX           ERASE                                          #  B(1)TMP
000617:    1155                        CDUTEMPY           ERASE                                          #  B(1)TMP
000618:    1156                        CDUTEMPZ           ERASE                                          #  B(1)TMP
000619:    1157                        PIPATMPX           ERASE                                          #  B(1)TMP
000620:    1160                        PIPATMPY           ERASE                                          #  B(1)TMP
000621:    1161                        PIPATMPZ           ERASE                                          #  B(1)TMP
000622:
000623:    1162                        DISPDEX            ERASE                                          #  B(1)
000624:    1163                        TEMPR60            ERASE                                          #  B(1)
000625:    1164                        PRIOTIME           ERASE                                          #  B(1)
000626:
000627:                                                                                                  #  P27 (UPDATE PROGRAM) STORAGE.                 (26D)
000628:
000629:    1165                        UPVERBSV           ERASE                                          #  B(1) UPDATE VERB ATTEMPTED.
000630:    1166                        UPTEMP             ERASE    +24D                                  #  B(1)TMP SCRATCH
000631:    1217     1166               INTWAK1Q           EQUALS   UPTEMP                                #  (BORROWS UPTEMP REGISTERS)
000632:                                                                                                  #  RETAIN THE ORDER OF COMPNUMB THRU UPBUFF +19D FOR DOWNLINK PURPOSES.
000633:    1217     1167               COMPNUMB           EQUALS   UPTEMP     +1                         #  B(1)TMP NUMBER OF ITEMS TO BE UPLINKED
000634:    1217     1170               UPOLDMOD           EQUALS   COMPNUMB   +1                         #  B(1)TMP INTERRUPTED PROGRAM MM
000635:    1217     1171               UPVERB             EQUALS   UPOLDMOD   +1                         #  B(1)TMP VERB NUMBER
000636:    1217     1172               UPCOUNT            EQUALS   UPVERB     +1                         #  B(1)TMP UPBUFF INDEX
000637:    1217     1173               UPBUFF             EQUALS   UPCOUNT    +1                         #  B(20D)
000638:
000639:                                                                                                  #  SPECIAL DEFINITION FOR SYSTEM TEST ERASABLE PGMS.     (2D)
000640:
000641:    1217     1166               EBUF2              EQUALS   UPTEMP                                #  B(2) FOR EXCLUSIVE USE OF SYSTEM TEST
000642:


000644:                                                                                                  #  PERM STATE VECTORS FOR BOOST AND DOWNLINK-WHOLE MISSION-      (14D)
000645:
000646:    1217                        RN                 ERASE    +5                                    #  B(6)PRM
000647:    1225                        VN                 ERASE    +5                                    #  B(6)PRM
000648:    1233                        PIPTIME            ERASE    +1                                    #  B(2)PRM (MUST BE FOLLOWED BY GDT/2)
000649:
000650:                                                                                                  #  SERVICER   -MUST FOLLOW PIPTIME-      (18D)
000651:
000652:    1235                        GDT/2              ERASE    +17D                                  #  B(6)TMP       ** MUST FOLLOW PIPTIME **
000653:    1257     1243               MASS               EQUALS   GDT/2      +6                         #  B(2)
000654:    1257     1243               WEIGHT/G           =        MASS
000655:    1257     1245               ABDELV             EQUALS   MASS       +2                         #  ALCMANU STORAGE)
000656:    1257     1246               PGUIDE             EQUALS   ABDELV     +1                         #  (2)
000657:    1257     1250               DVTHRUSH           EQUALS   PGUIDE     +2                         #  (1)
000658:    1257     1251               AVEGEXIT           EQUALS   DVTHRUSH   +1                         #  (2)
000659:    1257     1251               AVGEXIT            =        AVEGEXIT
000660:    1257     1253               TEMX               EQUALS   AVEGEXIT   +2                         #  (1)
000661:    1257     1254               TEMY               EQUALS   TEMX       +1                         #  (1)
000662:    1257     1255               TEMZ               EQUALS   TEMY       +1                         #  (1)
000663:    1257     1256               PIPAGE             EQUALS   TEMZ       +1                         #  B(1)
000664:
000665:                                                                                                  #  PERMANENT LEM DAP STORAGE.                    (6D)
000666:
000667:    1257                        CH5MASK            ERASE                                          #  B(1)PRM
000668:    1260                        CH6MASK            ERASE                                          #  B(1)PRM JET FAILURE MASK.
000669:    1261                        SPNDX              ERASE                                          #  B(1)
000670:    1262                        RCSFLAGS           ERASE                                          #  AUTOPILOT FLAG WORD
000671:                                                                                                  #  BIT ASSIGNMENTS:
000672:                                                                                                  #   1) ALTERYZ SWITCH (ZEROOR1)
000673:                                                                                                  #   2) NEEDLER SWITCH
000674:                                                                                                  #   3) NEEDLER SWITCH
000675:                                                                                                  #   4) NEEDLER SWITCH
000676:                                                                                                  #   5) NEEDLER SWITCH
000677:                                                                                                  #   9) JUST-IN-DETENT SWITCH
000678:                                                                                                  #  10) PBIT - MANUAL CONTROL SWITCH
000679:                                                                                                  #  11) QRBIT - MANUAL CONTROL SWITCH
000680:                                                                                                  #  12) PSKIP CONTROL (PJUMPADR)
000681:                                                                                                  #  13) 1/ACCJOB CONTROL (ACCSET)
000682:    1263                        T5ADR              ERASE    +1                                    #  GENADR OF NEXT LM DAP T5RUPT. * 2CADR *
000683:                                                                                                  #  BBCON OF NEXT LM DAP T5RUPT.    2CADR
000684:
000685:                                                                                                  #  ERASABLES FOR RADAR READ PROTECTION (C13STALL)        (4D)
000686:
000687:    1265                        C13QSAV            ERASE                                          #  B(1) QSAVE FOR C13STALL USERS.
000688:    1266                        C13FSAV            ERASE                                          #  B(1) FBANK SAVE FOR C13STALL.
000689:    1267                        RADTIME            ERASE                                          #  B(1) NEG. TIME OF SCALAR READ.


000691:    1270                        RADDEL             ERASE                                          #  B(1) DELTA TIME FROM SCALAR READ TO T5.
000692:
000693:                                                                                                  #  RADAREAD STORAGE                              (2D)
000694:
000695:    1271                        TTOTIG             ERASE    +1                                    #  B(2) LATEST ESTIMATE OF TIME TO IGNITION
000696:
000697:                                                                                                  #  RCS FAILURE MONITOR STORAGE                   (1)
000698:
000699:    1273                        PVALVEST           ERASE                                          #  B(1)PRM
000700:
000701:                                                                                                  #  KALCMANU/DAP INTERFACE.                       (3D)
000702:
000703:    1274                        DELPEROR           ERASE                                          #  B(1)PRM COMMAND LAGS.
000704:    1275                        DELQEROR           ERASE                                          #  B(1)PRM
000705:    1276                        DELREROR           ERASE                                          #  B(1)PRM
000706:
000707:                                                                                                  #  MODE SWITCHING ERASABLE.                      (9D)
000708:
000709:                                                                                                  #  RETAIN THE ORDER OF IMODES30 AND IMODES33 FOR DOWNLINK PURPOSES.
000710:    1277                        IMODES30           ERASE                                          #  B(1)
000711:    1300                        IMODES33           ERASE
000712:    1301                        MODECADR           ERASE    +2                                    #  B(3)PRM
000713:    1304     1301               IMUCADR            EQUALS   MODECADR
000714:    1304     1302               OPTCADR            EQUALS   MODECADR   +1
000715:    1304     1303               RADCADR            EQUALS   MODECADR   +2
000716:    1304                        ATTCADR            ERASE    +2                                    #  B(3)PRM
000717:    1307     1306               ATTPRIO            =        ATTCADR    +2
000718:    1307                        MARKSTAT           ERASE
000719:
000720:                                                                                                  #  T4RUPT ERASABLE.                              (2D)
000721:
000722:    1310                        DSRUPTSW           ERASE
000723:    1311                        LGYRO              ERASE                                          #  (1)
000724:
000725:                                                                                                  #  RENDEZVOUS RADAR TASK STORAGE                 (3D)
000726:
000727:    1312                        RRRET              ERASE    +2D                                   #  B(1)TMP       P20'S, PERHAPS R29 & R12
000728:    1315     1313               RDES               EQUALS   RRRET      +1                         #  B(1)TMP
000729:    1315     1314               RRINDEX            EQUALS   RDES       +1                         #  B(1)TMP
000730:
000731:                                                                                                  #  MEASINC                                       (4D)
000732:
000733:    1315                        WIXA               ERASE                                          #  B(1)
000734:    1316                        WIXB               ERASE                                          #  B(1)
000735:    1317                        ZIXA               ERASE                                          #  B(1)


000737:    1320                        ZIXB               ERASE                                          #  B(1)
000738:
000739:                                                                                                  #  AGS DUMMY ID WORD.                            (1D)
000740:
000741:    1321                        AGSWORD            ERASE
000742:
000743:                                                                                                  #  SOME MISCELLANEOUS UNSWITCHED.                (6D)
000744:
000745:    1322                        RATEINDX           ERASE                                          #  (1) USED BY KALCMANU
000746:    1323                        DELAYLOC           ERASE    +2
000747:    1326                        LEMMASS            ERASE                                          #  KEEP CONTIGUOUS W. CSMMASS  (1) EACH
000748:    1327                        CSMMASS            ERASE
000749:
000750:                                                                                                  #  LESS IS MORE.
000751:
000752:                                                                                                  #             RENDEZVOUS AND LANDING RADAR DOWNLINK STORAGE.     (7D)
000753:
000754:                                                                                                  #                (NORMALLY USED DURING P20, BUT MAY ALSO)
000755:                                                                                                  #                (BE REQUIRED FOR THE V62 SPURIOUS TEST.)
000756:
000757:                                                                                                  #                     (PLEASE KEEP IN THIS ORDER)
000758:
000759:    1330                        DNRRANGE           ERASE    +6                                    #  B(1)TMP
000760:    1337     1331               DNRRDOT            EQUALS   DNRRANGE   +1                         #  B(1)TMP
000761:    1337     1332               DNINDEX            EQUALS   DNRRDOT    +1                         #  B(1)TMP
000762:    1337     1333               DNLRVELX           EQUALS   DNINDEX    +1                         #  B(1)TMP
000763:    1337     1334               DNLRVELY           EQUALS   DNLRVELX   +1                         #  B(1)TMP
000764:    1337     1335               DNLRVELZ           EQUALS   DNLRVELY   +1                         #  B(1)TMP
000765:    1337     1336               DNLRALT            EQUALS   DNLRVELZ   +1                         #  B(1)TMP
000766:
000767:                                                                                                  #  INCORPORATION UNSWITCHED.                     (2D)
000768:
000769:    1337     1256               W.IND              EQUALS   PIPAGE                                #  B(1)
000770:    1337     1257               W.INDI             EQUALS   W.IND      +1                         #  I(1)
000771:
000772:                                                                                                  #  SUBROUTINE BALLANGS OF R60.                   (1D)
000773:
000774:    1337                        BALLEXIT           ERASE                                          #  B(1) SAVE LOCATION FOR BALLINGS SUBR EXIT
000775:
000776:                                                                                                  #  SOME LEM DAP STORAGE.                         (4D)
000777:
000778:    1340                        DAPDATR1           ERASE                                          #  B(1)DSP DAP CONFIG.
000779:    1341                        TEVENT             ERASE    +1                                    #  B(2)DSP
000780:    1343                        DB                 ERASE                                          #  B(1)TMP DEAD BAND.
000781:
000782:                                                                                                  #  NOUN 87                                       (2D)


000784:    1344                        AZ                 ERASE    +1D                                   #  B(1) AZ AND EL MUST BE CONTIGUOUS
000785:    1346     1345               EL                 EQUALS   AZ         +1D                        #  B(1)
000786:
000787:                                                                                                  #  P63, P64, P65, P66, AND P67.                  (1D)
000788:
000789:    1346                        WCHPHASE           ERASE                                          #  B(1)
000790:
000791:                                                                                                  #  PADLOADS FOR R2 LUNAR POTENTIAL MODEL.        (2D)
000792:
000793:    1347                        E3J22R2M           ERASE                                          #  I(1)
000794:    1350                        E32C31RM           ERASE                                          #  I(1)
000795:
000796:                                                                                                  #  PADLOADS FOR R12 DOPPLER COMPENSATION         (3D)
000797:
000798:    1351                        RADSKAL            ERASE    +1                                    #  LR ALT DOPPLER BIAS: 2T/LAMBDA SCALED
000799:                                                                                                  #  AT 1/(2(7) M/CS)
000800:    1353                        SKALSKAL           ERASE                                          #  LR ALT SCALE FACTOR RATIO: .2 NOM
000801:
000802:                                                                                                  #  ERASABLES FOR TRUNNION AND SHAFT COMMANDS     (2D)
000803:
000804:    1354                        TRUNNCMD           ERASE                                          #  *** THESE TWO ERASABLES ***
000805:    1355                        SHAFTCMD           ERASE                                          #  *** MUST BE IN ORDER ***
000806:
000807:                                                                                                  #  ERASABLE FOR REGISTER 3 OF NOUN 49            (1D)
000808:
000809:    1356                        WHCHREAD           ERASE                                          #  B(1)TMP MEASUREMENT BEING PROCESSED.
000810:
000811:                                                                                                  #  LANDING PADLOAD                               (1D)
000812:
000813:    1357     1356               ELBIAS             EQUALS   WHCHREAD                              #  B(1) PL LPD ELEVATION BIAS. PI RADIANS.
000814:
000815:    1357                        END-UE             EQUALS   1377
000816:
000817:                                                                                                  #  SELF-CHECK ASSIGNMENTS.                       (17D)
000818:
000819:                                                                                                  #                         (DO NOT MOVE, S-C IS ADDRESS SENSITIVE)
000820:
000821:    1357                        SELFERAS           ERASE    1357       -          1377            #  *** MUST NOT BE MOVED ***
000822:    1357     1357               SFAIL              EQUALS   SELFERAS                              #  B(1)
000823:    1357     1360               ERESTORE           EQUALS   SFAIL      +1                         #  B(1)
000824:    1357     1361               SELFRET            EQUALS   ERESTORE   +1                         #  B(1) RETURN
000825:    1357     1362               SMODE              EQUALS   SELFRET    +1                         #  B(1)
000826:    1357     1363               ALMCADR            EQUALS   SMODE      +1                         #  B(2) ALARM-ABORT USER'S 2CADR
000827:    1357     1365               ERCOUNT            EQUALS   ALMCADR    +2                         #  B(1)


000829:    1357     1366               SCOUNT             EQUALS   ERCOUNT    +1                         #  B(3)
000830:    1357     1371               SKEEP1             EQUALS   SCOUNT     +3                         #  B(1)
000831:    1357     1372               SKEEP2             EQUALS   SKEEP1     +1                         #  B(1)
000832:    1357     1373               SKEEP3             EQUALS   SKEEP2     +1                         #  B(1)
000833:    1357     1374               SKEEP4             EQUALS   SKEEP3     +1                         #  B(1)
000834:    1357     1375               SKEEP5             EQUALS   SKEEP4     +1                         #  B(1)
000835:    1357     1376               SKEEP6             EQUALS   SKEEP5     +1                         #  B(1)
000836:    1357     1377               SKEEP7             EQUALS   SKEEP6     +1                         #  B(1)
000837:


000839:                                                                                                  #  EBANK-3 ASSIGNMENTS
000840:
000841: E3,1400                                           SETLOC   1400
000842:
000843:                                                                                                  #  WAITLIST TASK LISTS.                          (26D)
000844:
000845: E3,1400                        LST1               ERASE    +7                                    #  B(8D)PRM DELTA T S.
000846: E3,1410                        LST2               ERASE    +17D                                  #  B(18D)PRM TASK 2CADR ADDRESSES.
000847:
000848:                                                                                                  #  RESTART STORAGE.                              (2D)
000849:
000850: E3,1432                        RSBBQ              ERASE    +1                                    #  B(2)PRM SAVE BB AND Q FOR RESTARTS.
000851:
000852:                                                                                                  #  MORE LONGCALL STORAGE.  (MUST BE IN LST1 S BANK.      (2D)
000853:
000854: E3,1434                        LONGEXIT           ERASE    +1                                    #  B(2)TMP MAY BE SELDOM OVERLAYED.
000855:
000856:                                                                                                  #  PHASE-CHANGE LISTS PART II.                   (12D)
000857:
000858:
000859: E3,1436                        PHSNAME1           ERASE                                          #  B(1)PRM
000860: E3,1437                        PHSBB1             ERASE                                          #  B(1)PRM
000861: E3,1440                        PHSNAME2           ERASE                                          #  B(1)PRM
000862: E3,1441                        PHSBB2             ERASE                                          #  B(1)PRM
000863: E3,1442                        PHSNAME3           ERASE                                          #  B(1)PRM
000864: E3,1443                        PHSBB3             ERASE                                          #  B(1)PRM
000865: E3,1444                        PHSNAME4           ERASE                                          #  B(1)PRM
000866: E3,1445                        PHSBB4             ERASE                                          #  B(1)PRM
000867: E3,1446                        PHSNAME5           ERASE                                          #  B(1)PRM
000868: E3,1447                        PHSBB5             ERASE                                          #  B(1)PRM
000869: E3,1450                        PHSNAME6           ERASE                                          #  B(1)PRM
000870: E3,1451                        PHSBB6             ERASE                                          #  B(1)PRM
000871:
000872:                                                                                                  #  IMU COMPENSATION PARAMETERS.                  (22D)
000873:
000874: E3,1452                        PBIASX             ERASE                                          #  B(1) PIPA BIAS, PIPA SCALE FACTR TERMS
000875: E3,1453  E3,1452               PIPABIAS           =        PBIASX                                #      INTERMIXED.
000876: E3,1453                        PIPASCFX           ERASE
000877: E3,1454  E3,1453               PIPASCF            =        PIPASCFX
000878: E3,1454                        PBIASY             ERASE
000879: E3,1455                        PIPASCFY           ERASE
000880: E3,1456                        PBIASZ             ERASE
000881: E3,1457                        PIPASCFZ           ERASE
000882:
000883: E3,1460                        NBDX               ERASE                                          #  GYRO BIAS DRIFTS
000884: E3,1461                        NBDY               ERASE
000885: E3,1462                        NBDZ               ERASE
000886:


000888: E3,1463                        ADIAX              ERASE                                          #  ACCELERATION SENSITIVE DRIFT ALONG THE
000889: E3,1464                        ADIAY              ERASE                                          #  INPUT AXIS
000890: E3,1465                        ADIAZ              ERASE
000891:
000892: E3,1466                        ADSRAX             ERASE                                          #  ACCELERATION SENSITIVE DRIFT ALONG THE
000893: E3,1467                        ADSRAY             ERASE                                          #  SPIN REFERENCE AXIS
000894: E3,1470                        ADSRAZ             ERASE
000895:
000896: E3,1471                        GCOMP              ERASE    +5                                    #  CONTAINS COMPENSATING TORQUES
000897:
000898: E3,1477  E3,1471               COMMAND            EQUALS   GCOMP
000899: E3,1477  E3,1474               CDUIND             EQUALS   GCOMP      +3
000900:
000901: E3,1477                        GCOMPSW            ERASE
000902:
000903:                                                                                                  #  STATE VECTORS FOR ORBIT INTEGRATION.          (44D)
000904:
000905:                                                                                                  #                (DIFEQCNT THRU XKEP MUST BE IN SAME
000906:                                                                                                  #                EBANK AS RRECTCSM, RRECTLEM ETC
000907:                                                                                                  #                BECAUSE THE COPY-CYCLES (ATOPCSM,
000908:                                                                                                  #                PTOACSM ETC) ARE EXECUTED IN BASIC.
000909:                                                                                                  #                ALL OTHER REFERENCES TO THIS GROUP
000910:                                                                                                  #                ARE BY INTERPRETIVE INSTRUCTIONS.)
000911:
000912:
000913: E3,1500                        DIFEQCNT           ERASE    +43D                                  #  B(1)
000914:                                                                                                  #  (UPSVFLAG...XKEP MUST BE KEPT IN ORDER)
000915: E3,1554  E3,1501               UPSVFLAG           EQUALS   DIFEQCNT   +1                         #  B(1)
000916: E3,1554  E3,1502               RRECT              EQUALS   UPSVFLAG   +1                         #  B(6)
000917: E3,1554  E3,1510               VRECT              EQUALS   RRECT      +6                         #  B(6)
000918: E3,1554  E3,1516               TET                EQUALS   VRECT      +6                         #  B(2)
000919: E3,1554  E3,1520               TDELTAV            EQUALS   TET        +2                         #  B(6)
000920: E3,1554  E3,1526               TNUV               EQUALS   TDELTAV    +6                         #  B(6)
000921: E3,1554  E3,1534               RCV                EQUALS   TNUV       +6                         #  B(6)
000922: E3,1554  E3,1542               VCV                EQUALS   RCV        +6                         #  B(6)
000923: E3,1554  E3,1550               TC                 EQUALS   VCV        +6                         #  B(2)
000924: E3,1554  E3,1552               XKEP               EQUALS   TC         +2                         #  B(2)
000925:
000926:                                                                                                  #  PERMANENT STATE VECTORS AND TIMES.            (99D)
000927:
000928:                                                                                                  #  (DO NOT OVERLAY WITH ANYTHING AFTER BOOST)
000929:
000930:                                                                                                  #  (RRECTCSM...XKEPCSM MUST BE KEPT IN THIS ORDER)
000931:
000932: E3,1554                        RRECTCSM           ERASE    +5                                    #  B(6)PRM CSM VARIABLES.
000933: E3,1562  E3,1554               RRECTOTH           =        RRECTCSM
000934: E3,1562                        VRECTCSM           ERASE    +5                                    #  B(6)PRM


000936: E3,1570                        TETCSM             ERASE    +1                                    #  B(2)PRM
000937: E3,1572  E3,1570               TETOTHER           =        TETCSM
000938: E3,1572                        DELTACSM           ERASE    +5                                    #  B(6)PRM
000939: E3,1600                        NUVCSM             ERASE    +5                                    #  B(6)PRM
000940: E3,1606                        RCVCSM             ERASE    +5                                    #  B(6)PRM
000941: E3,1614                        VCVCSM             ERASE    +5                                    #  B(6)PRM
000942: E3,1622                        TCCSM              ERASE    +1                                    #  B(2)PRM
000943: E3,1624                        XKEPCSM            ERASE    +1                                    #  B(2)PRM
000944:
000945:                                                                                                  #  (RRECTLEM...XKEPLEM MUST BE KEPT IN THIS ORDER)
000946:
000947: E3,1626                        RRECTLEM           ERASE    +5                                    #  B(6)PRM LEM VARIABLES
000948: E3,1634  E3,1626               RRECTHIS           =        RRECTLEM
000949: E3,1634                        VRECTLEM           ERASE    +5                                    #  B(6)PRM
000950: E3,1642                        TETLEM             ERASE    +1                                    #  B(2)PRM
000951: E3,1644  E3,1642               TETTHIS            =        TETLEM
000952: E3,1644                        DELTALEM           ERASE    +5                                    #  B(6)PRM
000953: E3,1652                        NUVLEM             ERASE    +5                                    #  B(6)PRM
000954: E3,1660                        RCVLEM             ERASE    +5                                    #  B(6)PRM
000955: E3,1666                        VCVLEM             ERASE    +5                                    #  B(6)PRM
000956: E3,1674                        TCLEM              ERASE    +1                                    #  B(2)PRM
000957: E3,1676                        XKEPLEM            ERASE    +1                                    #  B(2)PRM
000958:
000959: E3,1700                        X789               ERASE    +5
000960: E3,1706                        TEPHEM             ERASE    +2
000961: E3,1711                        AZO                ERASE    +1
000962: E3,1713                        -AYO               ERASE    +1
000963: E3,1715                        AXO                ERASE    +1
000964:
000965:                                                                                                  #  STATE VECTORS FOR DOWNLINK.                   (12D)
000966:
000967: E3,1717                        R-OTHER            ERASE    +5                                    #  B(6)PRM POS VECT (OTHER VECH) FOR DNLINK
000968: E3,1725                        V-OTHER            ERASE    +5                                    #  B(6)PRM VEL VECT (OTHER VECH) FOR DNLINK
000969:
000970: E3,1733  E3,1570               T-OTHER            =        TETCSM                                #              TIME (OTHER VECH) FOR DNLINK
000971:
000972:                                                                                                  #  REFSMMAT.                                     (18D)
000973:
000974: E3,1733                        REFSMMAT           ERASE    +17D                                  #  I(18D)PRM
000975:
000976:                                                                                                  #  ACTIVE VEHICLE CENTANG.  MUST BE DISPLAYED ANYTIME (ALMOST.)  (2D)
000977:
000978: E3,1755                        ACTCENT            ERASE    +1                                    #  I(2) S-S CENTRAL ANGLE BETWEEN ACTIVE
000979:                                                                                                  #  VEHICLE AT TPI TIG AND TARGET VECTOR.
000980:
000981:                                                                                                  #  **** USED IN CONICSEX (PLAN INERT ORIENT) ****


000983: E3,1757  E3,1706               TIMSUBO            EQUALS   TEPHEM                                #  CSEC B-42 (TRIPLE PRECISION)
000984:
000985:                                                                                                  #  LPS20.1 STORAGE       -ALL ARE PRM -          (9D)
000986:
000987: E3,1757                        LS21X              ERASE                                          #  I(1)
000988: E3,1760                        LOSVEL             ERASE    +5                                    #  I(6)
000989: E3,1766                        MLOSV              ERASE    +1                                    #  I(2) MAGNITUDE OF LOS, METERS B-29
000990:
000991:                                                                                                  #  ***** P22 ***** (OVERLAYS LPS 20.1 STORAGE)   (6D)
000992: E3,1770  E3,1760               VSUBC              EQUALS   LOSVEL                                #  I(6) S-S CSM VELOCITY VECTOR
000993:
000994:                                                                                                  #  PADLOADED ERASABLES FOR P20/P22               (6D)
000995:
000996: E3,1770                        RANGEVAR           ERASE    +1                                    #  I(2) RR RANGE ERROR VARIANCE
000997: E3,1772                        RATEVAR            ERASE    +1                                    #  I(2) RR RANGE-RATE ERROR VARIANCE
000998: E3,1774                        RVARMIN            ERASE                                          #  I(1) MINIMUM RANGE ERROR VARIANCE
000999: E3,1775                        VVARMIN            ERASE                                          #  I(1) MINIMUM RANGE-RATE ERROR VARIANCE
001000:
001001:                                                                                                  #  P32-P33 STORAGE                               (2D)
001002:
Warning:  May overflow memory bank.
001003: E3,1776                        TCDH               ERASE    +1                                    #  I(2) T2 CDH TIME IN CS. (ALSO DOWNLINKED
001004:
001005: E3,1777                        END-E3             EQUALS   1777                                  #  ** LAST LOCATION USED IN E3 **
001006:


001008:                                                                                                  #  EBANK-4 ASSIGNMENTS
001009:
001010: E4,1400                                           SETLOC   2000
001011:
001012:                                                                                                  #  E4 IS, FOR THE MOST PART RESERVED FOR PAD LOADED AND UNSHARABLE ERASE.
001013:
001014: E4,1400                        AMEMORY            EQUALS
001015:
001016:                                                                                                  #  P20 STORAGE.  -PAD LOADED-                    (6D)
001017:
001018: E4,1400                        WRENDPOS           ERASE                                          #  B(1)PL        KM*2(-7)
001019: E4,1401                        WRENDVEL           ERASE                                          #  B(1)PL        KM(-1/2)*2(11)
001020: E4,1402                        WSHAFT             ERASE                                          #  B(1)PL        KM*2(-7)
001021: E4,1403                        WTRUN              ERASE                                          #  B(1)PL        KM*2(-7)
001022: E4,1404                        RMAX               ERASE                                          #  B(1)PL        METERS*2(-19)
001023: E4,1405                        VMAX               ERASE                                          #  B(1)PL        M/CSEC*2(-7)
001024:
001025:                                                                                                  #  LUNAR SURFACE NAVIGATION                      (2D)
001026:
001027: E4,1406                        WSURFPOS           ERASE                                          #  B(1)PL
001028: E4,1407                        WSURFVEL           ERASE                                          #  B(1)PL
001029:
001030:                                                                                                  #  P22 STORAGE.  -PAD LOADED-                    (2D)
001031:
001032: E4,1410                        SHAFTVAR           ERASE                                          #  B(1)PL        RAD SQ*2(12)
001033: E4,1411                        TRUNVAR            ERASE                                          #  B(1)PL        RAD SQ*2(10)
001034:
001035:                                                                                                  #  CONISEX STORAGE.-PAD LOADED-                  (6D)
001036:
001037: E4,1412                        504LM              ERASE    +5                                    #  I(6) MOON LIBRATION VECTOR
001038:
001039:                                                                                                  #  V47 (R47) AGS INITIALIZATION STORAGE. -PAD LOADED-    (2D)
001040:
001041: E4,1420                        AGSK               ERASE    +1
001042:
001043:                                                                                                  #  LUNAR LANDING STORAGE.  -PAD LOADED-          (6D)
001044:
001045: E4,1422                        RLS                ERASE    +5                                    #  I(6) LANDING SITE VECTOR -MOON REF
001046:
001047:                                                                                                  #  INTEGRATION STORAGE.                          (102D)
001048:
001049: E4,1430                        PBODY              ERASE    +101D                                 #  I(1)


001051: E4,1576  E4,1431               ALPHAV             EQUALS   PBODY      +1                         #  I(6)
001052: E4,1576  E4,1437               BETAV              EQUALS   ALPHAV     +6                         #  I(6)
001053: E4,1576  E4,1445               PHIV               EQUALS   BETAV      +6                         #  I(6)
001054: E4,1576  E4,1453               PSIV               EQUALS   PHIV       +6                         #  I(6)
001055: E4,1576  E4,1461               FV                 EQUALS   PSIV       +6                         #  I(6)    PERTURBING ACCELERATIONS
001056: E4,1576  E4,1467               ALPHAM             EQUALS   FV         +6                         #  I(2)
001057: E4,1576  E4,1471               BETAM              EQUALS   ALPHAM     +2                         #  I(2)
001058: E4,1576  E4,1473               TAU.               EQUALS   BETAM      +2                         #  I(2)
001059: E4,1576  E4,1475               DT/2               EQUALS   TAU.       +2                         #  I(2)
001060: E4,1576  E4,1477               H                  EQUALS   DT/2       +2                         #  I(2)
001061: E4,1576  E4,1501               GMODE              EQUALS   H          +2                         #  I(1)
001062: E4,1576  E4,1502               IRETURN            EQUALS   GMODE      +1                         #  I(1)
001063: E4,1576  E4,1503               NORMGAM            EQUALS   IRETURN    +1                         #  I(1)
001064: E4,1576  E4,1504               RPQV               EQUALS   NORMGAM    +1
001065: E4,1576  E4,1512               ORIGEX             EQUALS   RPQV       +6                         #  I(1)
001066: E4,1576  E4,1512               KEPRTN             EQUALS   ORIGEX                                #  I(1)
001067: E4,1576  E4,1513               RQVV               EQUALS   ORIGEX     +1                         #  I(6)
001068: E4,1576  E4,1521               RPSV               EQUALS   RQVV       +6                         #  I(6)
001069: E4,1576  E4,1527               XKEPNEW            EQUALS   RPSV       +6                         #  I(2)
001070: E4,1576  E4,1531               VECTAB             EQUALS   XKEPNEW    +2                         #  I(36D)
001071: E4,1576  E4,1574               VECTABND           EQUALS   VECTAB     +35D                       #  END MARK
001072:
001073:                                                                                                  #  THESE PROBABLY CAN SHARE MID-COURSE VARIABLES.        (6D)
001074:
001075: E4,1576  E4,1537               VACX               EQUALS   VECTAB     +6                         #  I(2)
001076: E4,1576  E4,1541               VACY               EQUALS   VACX       +2                         #  I(2)
001077: E4,1576  E4,1543               VACZ               EQUALS   VACY       +2                         #  I(2)
001078:
001079:                                                                                                  #  SERVICER STORAGE (USED BY ALL POWERED FLIGHT PROGS.)  (18D)
001080:
001081: E4,1576  E4,1545               XNBPIP             EQUALS   VECTAB     +12D                       #  I(6)
001082: E4,1576  E4,1553               YNBPIP             EQUALS   XNBPIP     +6                         #  I(6)
001083: E4,1576  E4,1561               ZNBPIP             EQUALS   YNBPIP     +6                         #  I(6)
001084:
001085:                                                                                                  #  SOME VERB 82 STORAGE                          (4D)
001086:
001087: E4,1576  E4,1517               HAPOX              EQUALS   RQVV       +4                         #  I(2)
001088: E4,1576  E4,1521               HPERX              EQUALS   HAPOX      +2                         #  I(2)
001089:
001090:                                                                                                  #  V82 STORAGE                                   (6D)
001091:
001092: E4,1576  E4,1567               VONE'              EQUALS   VECTAB     +30D                       #  I(6)TMP  NORMAL VELOCITY VONE / SQRT. MU
001093:
001094:                                                                                                  #  R31 (V83) STORAGE. -SHARES WITH INTEGRATION STORAGE-  (28D)
001095:


001097: E4,1576  E4,1504               BASETHV            EQUALS   RPQV                                  #  I(6) BASE VEL VECTOR THIS VEH
001098:
001099: E4,1576  E4,1513               BASETIME           EQUALS   RQVV                                  #  I(2) TIME ASSOC WITH BASE VECS
001100: E4,1576  E4,1515               ORIG               EQUALS   RQVV       +2                         #  I(1) =0 FOR EARTH     =2 FOR MOON
001101: E4,1576  E4,1516               STATEXIT           EQUALS   RQVV       +3                         #  I(1) STQ ADDRESS FOR STATEXTP
001102: E4,1576  E4,1517               BASEOTV            EQUALS   RQVV       +4                         #  I(6) BASE VEL VECTOR OTHER VEH
001103:
001104: E4,1576  E4,1537               BASEOTP            EQUALS   VECTAB     +6                         #  I(6) BASE POS VECTOR OTHER VEH
001105:
001106: E4,1576  E4,1567               BASETHP            EQUALS   VECTAB     +30D                       #  I(6) BASE POS VECTOR THIS VEH
001107:
001108:                                                                                                  #  KEPLER STORAGE. (KEPLER IS CALLED BY PRECISION INTEGRATION AND (2D)
001109:                                                                                                  #  CONICS)
001110:
001111: E4,1576                        EPSILONT           ERASE    +1                                    #  I(2)
001112:
001113:                                                                                                  #  VERB 83 STORAGE.                              (18D)
001114:
001115: E4,1600                        RANGE              ERASE    +17D                                  #  I(2)DSP NOUN 54 DISTANCE TO OPTICAL SUBJ
001116: E4,1622  E4,1602               RRATE              EQUALS   RANGE      +2                         #  I(2)DSP NOUN 54 RATE OF APPROACH.
001117: E4,1622  E4,1604               RTHETA             EQUALS   RRATE      +2                         #  I(2)DSP NOUN 54.
001118: E4,1622  E4,1606               RONE               EQUALS   RTHETA     +2                         #  I(6)TMP VECTOR STORAGE.  (SCRATCH)
001119: E4,1622  E4,1614               VONE               EQUALS   RONE       +6                         #  I(6)TMP VECTOR STORAGE.  (SCRATCH)
001120:
001121:                                                                                                  #  VERB 67 STORAGE
001122:
001123: E4,1622  E4,1600               WWPOS              =        RANGE                                 #  NOUN 99 (V67)
001124: E4,1622  E4,1602               WWVEL              =        RRATE                                 #  NOUN 99 (V67)
001125: E4,1622  E4,1604               WWBIAS             =        RTHETA                                #  NOUN 99 (V67)
001126:
001127:                                                                                                  #  V82 STORAGE.  (CANNOT OVERLAY RONE OR VONE)   (11D) TWO SEPARATE LOCATIONS
001128:
001129: E4,1622  E4,1537               V82FLAGS           EQUALS   VECTAB     +6                         #  (1) FOR V82 BITS.
001130: E4,1622  E4,1540               TFF                EQUALS   V82FLAGS   +1                         #  I(2)
001131: E4,1622  E4,1542               -TPER              EQUALS   TFF        +2                         #  I(2)
001132:
001133: E4,1622  E4,1600               HPERMIN            EQUALS   RANGE                                 #  I(2) SET TO 300KFT OR 35KFT FOR SR30.1
001134: E4,1622  E4,1602               RPADTEM            EQUALS   HPERMIN    +2                         #  I(2) PAD OR LANDING RADIUS FOR SR30.1
001135: E4,1622  E4,1604               TSTART82           EQUALS   RPADTEM    +2                         #  I(2) TEMP TIME STORAGE FOR V82.
001136:
001137:                                                                                                  #  VARIOUS DISPLAY REGISTERS                     (6D) NOUN 84; P76


001139: E4,1622                        DELVOV             ERASE    +5D                                   #  (6)
001140:
001141:                                                                                                  #  ALIGNMENT PLANETARY-INERTIAL TRANSFORMATION STORAGE.          (18D)
001142:
001143:                                                                                                  #                UNSHARED WHILE LM ON LUNAR SURFACE.
001144:
001145: E4,1630                        GSAV               ERASE    +17D                                  #  I(6)
001146: E4,1652  E4,1636               YNBSAV             EQUALS   GSAV       +6                         #  I(6)
001147: E4,1652  E4,1644               ZNBSAV             EQUALS   YNBSAV     +6                         #  I(6)
001148:
001149:                                                                                                  #  KALCMANU STORAGE. CAN OVERLAY GSAV.           (18D)
001150:
001151: E4,1652  E4,1630               MFS                EQUALS   GSAV                                  #  I(18)
001152: E4,1652  E4,1630               MFI                EQUALS   MFS                                   #  I
001153: E4,1652  E4,1630               KEL                EQUALS   MFS                                   #  I(18)
001154: E4,1652  E4,1630               E01                EQUALS   MFS                                   #  I(6)
001155: E4,1652  E4,1636               E02                EQUALS   E01        +6                         #  I(6)
001156:
001157:                                                                                                  #  LR VEL BEAM VECTORS.                          (26D)
001158:
001159:                                                                                                  #  CAN OVERLAY GSAV WITH CARE, USED DURING POWERED DESCENT ONLY.
001160:
001161: E4,1652  E4,1630               VZBEAMNB           EQUALS   GSAV                                  #  I(6) LR VELOCITY BEAMS IN NB COORDS.
001162: E4,1652  E4,1636               VYBEAMNB           EQUALS   VZBEAMNB   +6                         #  I(6)
001163: E4,1652  E4,1644               VXBEAMNB           EQUALS   VYBEAMNB   +6                         #  I(6) PRESERVE Z,Y,X ORDER.
001164:
001165: E4,1652  E4,1652               LRVTIME            =        VXBEAMNB   +6                         #  B(2) LR
001166: E4,1652  E4,1654               LRXCDU             =        LRVTIME    +2                         #  B(1) LR
001167: E4,1652  E4,1655               LRYCDU             =        LRXCDU     +1                         #  B(1) LR
001168: E4,1652  E4,1656               LRZCDU             =        LRYCDU     +1                         #  B(1) LR
001169: E4,1652  E4,1657               PIPTEM             =        LRZCDU     +1                         #  B(3) LR
001170:
001171:                                                                                                  #  P32-P35, P72-P75 STORAGE.                     (40D)
001172:
001173: E4,1652                        T1TOT2             ERASE    +1                                    #  (2)   TIME FROM CSI TO CDH
001174: E4,1654                        T2TOT3             ERASE    +1                                    #  (2)
001175: E4,1656                        ELEV               ERASE    +1                                    #  (2)
001176: E4,1660                        UP1                ERASE    +5                                    #  (6)
001177: E4,1666                        DELVEET1           ERASE    +5                                    #  I(6)  DV CSI IN REF
001178: E4,1674                        DELVEET2           ERASE    +5                                    #  I(6)  DV CSH IN REF
001179: E4,1702                        RACT1              ERASE    +5                                    #  (6)   POS VEC OF ACTIVE AT CSI TIME
001180: E4,1710                        RACT2              ERASE    +5                                    #  (6)   POS VEC OF ACTIVE AT CDH TIME


001182: E4,1716                        RTSR1/MU           ERASE    +1                                    #  (2)   SQ ROOT 1/MU STORAGE
001183: E4,1720                        RTMU               ERASE    +1                                    #  (2)   MU STORAGE
001184:
001185:                                                                                                  #  (THE FOLLOWING ERASABLES OVERLAY PORTIONS OF THE PREVIOUS SECTION)
001186:
001187: E4,1722  E4,1652               +MGA               EQUALS   T1TOT2                                #  (2) S-S + MID GIM ANGL TO DELVEET3
001188:
001189: E4,1722  E4,1660               UNRM               EQUALS   UP1                                   #  I(6) S-S
001190:
001191: E4,1722  E4,1702               DVLOS              EQUALS   RACT1                                 #  I(6) S-S DELTA VELOCITY, LOS COORD-DISPLA
001192: E4,1722  E4,1710               ULOS               EQUALS   RACT2                                 #  I(6) S-S UNIT LINE OF SIGHT VECTOR
001193:
001194: E4,1722  E4,1716               NOMTPI             EQUALS   RTSR1/MU                              #  (2) S-S NOMINAL TPI TIME FOR RECYCLE
001195:
001196:                                                                                                  #  SOME P30 STORAGE.                             (4D)
001197:
001198: E4,1722  E4,1716               HAPO               EQUALS   RTSR1/MU                              #  I(2)
001199: E4,1722  E4,1720               HPER               EQUALS   HAPO       +2                         #  I(2)
001200:
001201:                                                                                                  #  THE FOLLOWING ARE ERASABLE LOADS DURING A PERFORMANCE TEST.
001202:
001203: E4,1722  E4,1400               TRANSM1            =        WRENDPOS                              #  E4,1400
001204: E4,1722  E4,1422               ALFDK              =        TRANSM1    +18D
001205:
001206:                                                                                                  #  ******* THE FOLLOWING SECTIONS OVERLAY V83 AND DISPLAY STORAGE *******
001207:
001208:                                                                                                  #  V47 (R47) AGS INITIALIZATION PROGRAM STORAGE.  (OVERLAYS V83) (14D)
001209:
001210: E4,1722  E4,1600               AGSBUFF            EQUALS   RANGE                                 #  B(14D)
001211: E4,1722  E4,1615               AGSBUFFE           EQUALS   AGSBUFF    +13D                       #  ENDMARK
001212:
001213:                                                                                                  #  R36 OUT-OF-PLANE RENDEZVOUS DISPLAY STORAGE.  (OVERLAYS V83)  (12D)
001214:
001215: E4,1722  E4,1606               RPASS36            EQUALS   RONE                                  #  I(6) S-S
001216: E4,1722  E4,1614               UNP36              EQUALS   RPASS36    +6                         #  I(6) S-S
001217:
001218:                                                                                                  #  S-BAND ANTENNA GIMBAL ANGLES.  DISPLAYED BY R05 (V64).  (OVERLAYS V83)        (10D)
001219:                                                                                                  #                        (OPERATES DURING P00 ONLY)


001221: E4,1722  E4,1600               ALPHASB            EQUALS   RANGE                                 #  B(2)DSP NOUN 51.  PITCH ANGLE.
001222: E4,1722  E4,1602               BETASB             EQUALS   ALPHASB    +2                         #  B(2)DSP NOUN 51.  YAW ANGLE.
001223: E4,1722  E4,1604               RLM                EQUALS   BETASB     +2                         #  I(6)S S/C POSITION VECTOR.
001224:
001225:                                                                                                  #  **** USED IN S-BAND ANTENNA FOR LM ****
001226:
001227: E4,1722  E4,1602               YAWANG             EQUALS   BETASB
001228: E4,1722  E4,1600               PITCHANG           EQUALS   ALPHASB
001229:
001230:                                                                                                  #  NOUN 56 DATA - COMPUTED AND DISPLAYED BY VERB 85.     (4)
001231:
001232: E4,1722  E4,1600               RR-AZ              EQUALS   PITCHANG                              #  I(2) ANGLE BETWEEN LOS AND X-Z PLANE.
001233: E4,1722  E4,1602               RR-ELEV            EQUALS   RR-AZ      +2                         #  I(2) ANGLE BETWEEN LOS AND Y-Z PLANE.
001234:
001235:                                                                                                  #  R04 (V62) RADAR TEST STORAGE.                 (8D)
001236:                                                                                                  #  R04 IS RESTRICTED TO P00.
001237:
001238: E4,1722  E4,1600               RSTACK             EQUALS   RANGE                                 #  B(8) BUFFER FOR R04 NOUNS.
001239:
001240:                                                                                                  #  INITVEL STORAGE.  ALSO USED BY P31, P34, P35, P74, P75, P10, P11, MIDGIM, S40.1 AND S40.9.    (18D)
001241:
001242:                                                                                                  #                (POSSIBLY RINIT & VINIT CAN OVERLAY DELVEET1 & 2 ABOVE)
001243:
001244: E4,1722                        RINIT              ERASE    +5                                    #  I(6) ACTIVE VEHICLE POSITION
001245: E4,1730                        VINIT              ERASE    +5                                    #  I(6) ACTIVE VEHICLE VELOCITY
001246: E4,1736                        VIPRIME            ERASE    +5                                    #  I(6) NEW VEL REQUIRED AT INITIAL RADIUS.
001247:
001248:                                                                                                  #  VARIOUS DISPLAY REGISTERS.  BALLANGS          (3D)
001249:
001250: E4,1744                        FDAIX              ERASE                                          #  I(1)
001251: E4,1745                        FDAIY              ERASE                                          #  I(1)
001252: E4,1746                        FDAIZ              ERASE                                          #  I(1)
001253:
001254:                                                                                                  #  P34-P35 STORAGE.  DOWNLINKED.                 (2D)
001255:
001256: E4,1747                        DELVTPF            ERASE    +1                                    #  I(2) DELTA V FOR TPF
001257:
001258:                                                                                                  #  LPS20.1 STORAGE.  CALLED BY R65.              (12D)
001259:
001260: E4,1751                        LMPOS              ERASE    +5                                    #  I(6)TEMP.  STORAGE FOR LM POS. VECTOR.
001261: E4,1757                        LMVEL              ERASE    +5                                    #  I(6)TEMP.  STORAGE FOR LM VEL. VECTOR.
001262:
001263:                                                                                                  #  INITVEL STORAGE.  ALSO USED BY P31,34,35,74,75,S40.1 AND DOWNLINKED.  (6D)
001264:
001265: E4,1765                        DELVEET3           ERASE    +5                                    #  I(6) DELTA V IN INERTIAL COORDINATES.
001266:


001268:                                                                                                  #  SOME R04(V63)-R77 STORAGE.                    (6D)
001269:
001270: E4,1773                        RTSTDEX            ERASE                                          #  B(1)
001271: E4,1774                        RTSTMAX            ERASE                                          #  B(1)
001272: E4,1775                        RTSTBASE           ERASE                                          #  B(1)
001273: E4,1776                        RTSTLOC            ERASE                                          #  B(1)
Warning:  Next code may overflow storage.
001274: E4,1777                        RSAMPDT            ERASE                                          #  B(1)
001275: E4,1777  E4,1575               RFAILCNT           EQUALS   PBODY      +101D                      #  B(1)
001276:
001277: E4,1777                        END-E4             EQUALS                                         #  FIRST UNUSED LOCATION IN E4
001278:
001279:                                                                                                  #  SECOND DPS GUIDANCE (LUNAR LANDING)  (OVERLAY P32-35, INITVEL)        (12D)
001280:
001281: E4,1777  E4,1664               ANGTERM            EQUALS   PIPTEM     +5                         #  I(6) GUIDANCE
001282: E4,1777  E4,1672               HBEAMNB            EQUALS   ANGTERM    +6                         #  I(6) LANDING RADAR
001283:
001284:                                                                                                  #  R12 DOWNLINK QUANTITIES                       (5D)
001285:
001286: E4,1777  E4,1734               LRXCDUDL           EQUALS   /LAND/     +2                         #  B(1) LANDING RADAR DOWNLINK
001287: E4,1777  E4,1735               LRYCDUDL           EQUALS   LRXCDUDL   +1                         #  B(1) LANDING RADAR DOWNLINK
001288: E4,1777  E4,1736               LRZCDUDL           EQUALS   LRYCDUDL   +1                         #  B(1) LANDING RADAR DOWNLINK
001289: E4,1777  E4,1737               LRVTIMDL           EQUALS   LRZCDUDL   +1                         #  B(2) LANDING RADAR DOWNLINK
001290:
001291:                                                                                                  #  ASCENT GUIDANCE FOR LUNAR LANDING             (54D)
001292:
001293: E4,1777  E4,1662               AT                 EQUALS   PIPTEM     +3                         #  I(2)TMP ENGINE DATA -- THRUST ACC*2(9)
001294: E4,1777  E4,1664               VE                 EQUALS   AT         +2                         #  I(2)TMP EXHAUST VELOCITY * 2(7)M/CS.
001295: E4,1777  E4,1666               TTO                EQUALS   VE         +2                         #  I(2)TMP TAILOFF TIME * 2(17)CS.
001296: E4,1777  E4,1670               TBUP               EQUALS   TTO        +2                         #  I(2)TMP (M/MDOT) * 2(17)CS.
001297: E4,1777  E4,1672               RDOTD              EQUALS   TBUP       +2                         #  I(2)TMP TARGET VELOCITY COMPONENTS
001298: E4,1777  E4,1674               YDOTD              EQUALS   RDOTD      +2                         #  I(2)TMP SCALING IS 2(7)M/CS.
001299: E4,1777  E4,1676               ZDOTD              EQUALS   YDOTD      +2                         #  I(2)TMP
001300:
001301: E4,1777  E4,1700               /R/MAG             EQUALS   ZDOTD      +2                         #  I(2)TMP
001302: E4,1777  E4,1702               LAXIS              EQUALS   /R/MAG     +2                         #  I(6)TMP
001303: E4,1777  E7,1725               ZAXIS1             =        UHZP
001304: E4,1777  E7,1473               RDOT               =        HDOTDISP
001305: E4,1777  E4,1710               YDOT               =        LAXIS      +6                         #  I(2)TMP VEL. NORMAL TO REF. PLANE*2(-7)
001306: E4,1777  E4,1712               ZDOT               EQUALS   YDOT       +2                         #  I(2)TMP  DOWN RANGE VEL * 2(-7).
001307: E4,1777  E4,1714               GEFF               EQUALS   ZDOT       +2                         #  I(2)TMP  EFFECTIVE GRAVITY
001308:
001309:                                                                                                  #  THESE TWO GROUPS OF ASCENT GUIDANCE ARE SPLIT BY THE ASCENT-DESCENT SERVICER SECTION FOLLOWING THIS SECTION
001310:
001311: E4,1777  E4,1734               Y                  EQUALS   /LAND/     +2                         #  I(2)TMP OUT-OF-PLANE DIST *2(24)M
001312: E4,1777  E4,1736               DRDOT              EQUALS   Y          +2                         #  I(2)TMP RDOTD - RDOT


001314: E4,1777  E4,1740               DYDOT              EQUALS   DRDOT      +2                         #  I(2)TMP YDOTD - YDOT
001315: E4,1777  E4,1742               DZDOT              EQUALS   DYDOT      +2                         #  I(2)TMP ZDOTD - ZDOT
001316: E4,1777  E4,1744               PCONS              EQUALS   DZDOT      +2                         #  I(2)TMP CONSTANT IN ATR EQUATION
001317: E4,1777  E4,1746               YCONS              EQUALS   PCONS      +2                         #  I(2)TMP CONSTANT IN ATY EQUATION
001318: E4,1777  E4,1750               PRATE              EQUALS   YCONS      +2                         #  I(2)TMP RATE COEFF. IN ATR EQUATION
001319: E4,1777  E4,1752               YRATE              EQUALS   PRATE      +2                         #  I(2)TMP RATE COEFF. IN ATY EQUATION
001320: E4,1777  E4,1754               ATY                EQUALS   YRATE      +2                         #  I(2)TMP OUT-OF-PLANE THRUST COMP. *2(9)
001321: E4,1777  E4,1756               ATR                EQUALS   ATY        +2                         #  I(2)TMP RADIAL THRUST COMP. * 2(9)
001322: E4,1777  E4,1760               ATP                EQUALS   ATR        +2                         #  I(2)TMP DOWN-RANGE THRUST COMP
001323: E4,1777  E4,1762               YAW                EQUALS   ATP        +2                         #  I(2)TMP
001324: E4,1777  E4,1764               PITCH              EQUALS   YAW        +2                         #  I(2)RMP
001325:
001326:                                                                                                  #  SERVICER FOR LUNAR ASCENT AND DESCENT         (14D)
001327:
001328: E4,1777  E4,1716               G(CSM)             EQUALS   GEFF       +2                         #  I(6)  FOR UPDATE OF COMMAND MODULE STATE
001329: E4,1777  E3,1717               R(CSM)             EQUALS   R-OTHER                               #        VECTORS BY LEM; ANALOGS OF GDT/2,
001330: E4,1777  E3,1725               V(CSM)             EQUALS   V-OTHER                               #        R, AND V, RESPECTIVELY OF THE CSM
001331: E4,1777  E4,1724               WM                 EQUALS   G(CSM)     +6                         #  I(6)TMP - LUNAR ROTATION VECTOR (SM)
001332: E4,1777  E4,1732               /LAND/             EQUALS   WM         +6                         #  B(2) LUNAR RADIUS AT LANDING SITE
001333:


001335:                                                                                                  #  EBANK-5 ASSIGNMENTS
001336:
001337: E5,1400                                           SETLOC   2400
001338:
001339:                                                                                                  #  W-MATRIX.  ESSENTIALLY UNSHARABLE.            (162D)
001340:
001341: E5,1400                        W                  ERASE    +161D
001342: E5,1642  E5,1642               ENDW               EQUALS   W          +162D
001343:
001344:                                                                                                  #  ******* OVERLAY NUMBER 1 IN EBANK 5 *******
001345:
001346:                                                                                                  #          W-MATRIX PADLOADS                     (124D)
001347:
001348:                                                                                                  #  PLEASE RETAIN THE ORDER OF TLAND THRU JAPFG
001349:
001350: E5,1642  E5,1400               TLAND              EQUALS   W                                     #  I(2)  NOMINAL TIME OF LANDING
001351: E5,1642  E5,1402               RBRFG              EQUALS   TLAND      +2                         #  I(6) BRAKING
001352: E5,1642  E5,1410               VBRFG              EQUALS   RBRFG      +6                         #  I(6)      PHASE
001353: E5,1642  E5,1416               ABRFG              EQUALS   VBRFG      +6                         #  I(6)           TARGET
001354: E5,1642  E5,1424               VBRFG*             EQUALS   ABRFG      +6                         #  I(2)                PARAMETERS:
001355: E5,1642  E5,1426               ABRFG*             EQUALS   VBRFG*     +2                         #  I(2)                     HIGH
001356: E5,1642  E5,1430               JBRFG*             EQUALS   ABRFG*     +2                         #  I(2)                          GATE
001357: E5,1642  E5,1432               GAINBRAK           EQUALS   JBRFG*     +2                         #  B(2)
001358: E5,1642  E5,1434               TCGFBRAK           EQUALS   GAINBRAK   +2                         #  B(1)
001359: E5,1642  E5,1435               TCGIBRAK           EQUALS   TCGFBRAK   +1                         #  B(1)
001360: E5,1642  E5,1436               RAPFG              EQUALS   TCGIBRAK   +1                         #  I(6) APPROACH
001361: E5,1642  E5,1444               VAPFG              EQUALS   RAPFG      +6                         #  I(6)      PHASE
001362: E5,1642  E5,1452               AAPFG              EQUALS   VAPFG      +6                         #  I(6)           TARGET
001363: E5,1642  E5,1460               VAPFG*             EQUALS   AAPFG      +6                         #  I(2)                PARAMETERS:
001364: E5,1642  E5,1462               AAPFG*             EQUALS   VAPFG*     +2                         #  I(2)                     LOW
001365: E5,1642  E5,1464               JAPFG*             EQUALS   AAPFG*     +2                         #  I(2)                          GATE
001366: E5,1642  E5,1466               GAINAPPR           EQUALS   JAPFG*     +2                         #  B(2)
001367: E5,1642  E5,1470               TCGFAPPR           EQUALS   GAINAPPR   +2                         #  B(1)
001368: E5,1642  E5,1471               TCGIAPPR           EQUALS   TCGFAPPR   +1                         #  B(1)
001369: E5,1642  E5,1472               VIGN               EQUALS   TCGIAPPR   +1                         #  I(2)  DESIRED SPEED FOR IGNITION
001370: E5,1642  E5,1474               RIGNX              EQUALS   VIGN       +2                         #  I(2)  DESIRED 'ALTITUDE' FOR IGNITION
001371: E5,1642  E5,1476               RIGNZ              EQUALS   RIGNX      +2                         #  I(2)  DESIRED GROUND RANGE FOR IGNITION
001372: E5,1642  E5,1500               KIGNX/B4           EQUALS   RIGNZ      +2                         #  I(2)
001373: E5,1642  E5,1502               KIGNY/B8           EQUALS   KIGNX/B4   +2                         #  I(2)
001374: E5,1642  E5,1504               KIGNV/B4           EQUALS   KIGNY/B8   +2                         #  I(2)
001375: E5,1642  E5,1506               LOWCRIT            EQUALS   KIGNV/B4   +2                         #  B(1) (HIGHCRIT MUST FOLLOW LOWCRIT)
001376: E5,1642  E5,1507               HIGHCRIT           EQUALS   LOWCRIT    +1                         #  B(1)
001377: E5,1642  E5,1510               V2FG               EQUALS   HIGHCRIT   +1                         #  I(6) DESIRED VELOCITY FOR P65.
001378: E5,1642  E5,1516               TAUVERT            EQUALS   V2FG       +6                         #  I(2) TIME CONSTANT FOR P65 VEL. NULLING.
001379: E5,1642  E5,1520               DELQFIX            EQUALS   TAUVERT    +2                         #  I(2) LR ALTITUDE DATA REASONABLE PARM.
001380: E5,1642  E5,1522               LRALPHA            EQUALS   DELQFIX    +2                         #  B(1) POS1 X ROTATION          * MUST *


001382: E5,1642  E5,1523               LRBETA1            EQUALS   LRALPHA    +1                         #  B(1) POS1 Y ROTATION          *  BE  *
001383: E5,1642  E5,1524               LRALPHA2           EQUALS   LRBETA1    +1                         #  B(1) POS2 X ROTATION          *  IN  *
001384: E5,1642  E5,1525               LRBETA2            EQUALS   LRALPHA2   +1                         #  B(1) POS2 Y ROTATION          * ORDER*
001385: E5,1642  E5,1526               LRVMAX             EQUALS   LRBETA2    +1                         #  B(1) LR VEL WEIGHTING FUNCTIONS
001386: E5,1642  E5,1527               LRVF               EQUALS   LRVMAX     +1                         #  B(1) LR VEL WEIGHTING FUNCTIONS
001387: E5,1642  E5,1530               LRWVZ              EQUALS   LRVF       +1                         #  B(1) LR VEL WEIGH ING FUNCTIONS
001388: E5,1642  E5,1531               LRWVY              EQUALS   LRWVZ      +1                         #  B(1) LR VEL WEIGH ING FUNCTIONS
001389: E5,1642  E5,1532               LRWVX              EQUALS   LRWVY      +1                         #  B(1) LR VEL WEIGH ING FUNCTIONS
001390: E5,1642  E5,1533               LRWVFZ             EQUALS   LRWVX      +1                         #  B(1) LR VEL WEIGH ING FUNCTIONS
001391: E5,1642  E5,1534               LRWVFY             EQUALS   LRWVFZ     +1                         #  B(1) LR VEL WEIG  ING FUNC IONS
001392: E5,1642  E5,1535               LRWVFX             EQUALS   LRWVFY     +1                         #  B(1) LR VEL WEIG  ING FUNC IONS
001393: E5,1642  E5,1536               LRWVFF             EQUALS   LRWVFX     +1                         #  B(1) LR VEL WEIG  ING FUNC IONS
001394:
001395: E5,1642     0130               ABVEL*             EQUALS   BUF                                   #  B(1) LR TEMP
001396: E5,1642     0131               VSELECT*           EQUALS   BUF        +1                         #  B(1) LR TEMP
001397:
001398: E5,1642  E5,1537               RODSCALE           EQUALS   LRWVFF     +1                         #  I(1) CLICK SCALE FACTOR FOR ROD
001399: E5,1642  E5,1540               TAUROD             EQUALS   RODSCALE   +1                         #  I(2) TIME CONSTANT FOR R.O.D.
001400: E5,1642  E5,1542               LAG/TAU            EQUALS   TAUROD     +2                         #  I(2) LAG TIME DIVIDED BY TAUROD (P66)
001401: E5,1642  E5,1544               MINFORCE           EQUALS   LAG/TAU    +2                         #  I(2) MINIMUM FORCE P66 WILL COMMAND.
001402: E5,1642  E5,1546               MAXFORCE           EQUALS   MINFORCE   +2                         #  I(2) MAXIMUM FORCE P66 WILL COMMAND.
001403: E5,1642  E5,1550               J1PARM             EQUALS   MAXFORCE   +2                         #  I(2) PARAMETER SET #1:
001404: E5,1642  E5,1552               K1PARM             EQUALS   J1PARM     +2                         #  I(2)      ABORT ORBIT SEMI-MAJOR AXIS COMP
001405: E5,1642  E5,1554               J2PARM             EQUALS   K1PARM     +2                         #  I(2) PARAMETER SET #2:
001406: E5,1642  E5,1556               K2PARM             EQUALS   J2PARM     +2                         #  I(2)      ABORT ORBIT SEMI-MAJOR AXIS COMP
001407: E5,1642  E5,1560               THETCRIT           EQUALS   K2PARM     +2                         #  I(2) CENTRAL ANGLE SWITCHING CRITERION.
001408: E5,1642  E5,1562               RAMIN              EQUALS   THETCRIT   +2                         #  I(2) MINIMUM ALLOWABLE APOLUNE.
001409: E5,1642  E5,1564               YLIM               EQUALS   RAMIN      +2                         #  I(2) MAXIMUM CROSS-RANGE DIST. IN ABORTS
001410: E5,1642  E5,1566               ABTRDOT            EQUALS   YLIM       +2                         #  I(2) DESIRED RADIAL VEL. FOR ABORTS.
001411: E5,1642  E5,1570               COSTHET1           EQUALS   ABTRDOT    +2                         #  I(2) COS OF CONE 1 ANGLE FOR ABORTS
001412: E5,1642  E5,1572               COSTHET2           EQUALS   COSTHET1   +2                         #  I(2) COS OF CONE 2 ANGLE FOR ABORTS.
001413:
001414:                                                                                                  #  SOME VARIABLES FOR SECOND DPS GUIDANCE        (38D)
001415:
001416: E5,1642  E5,1574               CG                 EQUALS   COSTHET2   +2                         #  I(18D) GUIDANCE
001417: E5,1642  E5,1616               RANGEDSP           EQUALS   CG         +18D                       #  B(2) DISPLAY
001418: E5,1642  E5,1616               OUTOFPLN           EQUALS   RANGEDSP                              #  *** OUTOFPLN CAN OVERLAY RANGEDSP ***
001419: E5,1642  E5,1620               R60VSAVE           EQUALS   OUTOFPLN   +2                         #  I(6)TMP SAVES VALUE OF POINTVSM THRU R51
001420: E5,1642  E5,1626               RGU                EQUALS   R60VSAVE   +6                         #  I(6) UNSHARED FOR DOWNLINK
001421: E5,1642  E5,1634               DLAND              EQUALS   RGU        +6                         #  I(6) LANDING SITE CORRECTION SM FRAME
001422: E5,1642  E5,1634               DLANDX             EQUALS   DLAND
001423: E5,1642  E5,1636               DLANDY             EQUALS   DLAND      +2
001424: E5,1642  E5,1640               DLANDZ             EQUALS   DLAND      +4
001425: E5,1642  E5,1620               VBIAS              EQUALS   R60VSAVE                              #  I(6) PIPA BIAS EQUIV. VELOCITY VECTOR.
001426: E5,1642  E5,1620               JPARM              EQUALS   R60VSAVE                              #  I(2) JPARM WILL EQUAL J1PARM OR J2PARM.
001427: E5,1642  E5,1622               KPARM              EQUALS   JPARM      +2                         #  I(2) KPARM WILL EQUAL K1PARM OR K2PARM
001428: E5,1642  E5,1624               RP                 EQUALS   KPARM      +2                         #  I(2) PREDICTED BURNOUT RADIUS-M*2(-24)
001429: E5,1642     0130               L*WCR*T            =        BUF
001430: E5,1642     0131               H*GHCR*T           =        BUF        +1
001431:


001433:                                                                                                  #  ALIGNMENT/SYSTEST/CALCSMSC COMMON STORAGE.    (36D)
001434:
001435: E5,1642  E5,1642               XSM                EQUALS   ENDW                                  #  B(6)
001436: E5,1642  E5,1650               YSM                EQUALS   XSM        +6                         #  B(6)
001437: E5,1642  E5,1656               ZSM                EQUALS   YSM        +6                         #  B(6)
001438:
001439: E5,1642  E5,1664               XDC                EQUALS   ZSM        +6                         #  B(6)
001440: E5,1642  E5,1672               YDC                EQUALS   XDC        +6                         #  B(6)
001441: E5,1642  E5,1700               ZDC                EQUALS   YDC        +6                         #  B(6)
001442:
001443: E5,1642  E5,1664               XNB                =        XDC
001444: E5,1642  E5,1672               YNB                =        YDC
001445: E5,1642  E5,1700               ZNB                =        ZDC
001446:
001447:                                                                                                  #  OVERLAYS WITHIN ALIGNMENT/SYSTEST/CALCSMSC COMMON STORAGE.    (4D)
001448:
001449: E5,1642  E5,1644               -COSB              EQUALS   XSM        +2                         #  (2)TMP
001450: E5,1642  E5,1646               SING               EQUALS   -COSB      +2                         #  (2)TMP
001451:
001452:                                                                                                  #  MORE OVERLAYS TO ALIGNMENT/SYSTEST (THESE ARE P52)    (6D)
001453:
001454: E5,1642  E5,1706               LANDLAT            EQUALS   STARAD                                #  (2) LATITUDE, LONGITUDE
001455: E5,1642  E5,1710               LANDLONG           EQUALS   LANDLAT    +2                         #  (2)   AND ALTITUDE
001456: E5,1642  E5,1712               LANDALT            EQUALS   LANDLONG   +2                         #  (2)   OF LANDING SITE
001457:
001458:                                                                                                  #  ALIGNMENT/SYSTEST COMMON STORAGE.             (31D)
001459:
001460: E5,1642  E5,1706               STARAD             EQUALS   ZDC        +6                         #  I(18D)TMP
001461: E5,1642  E5,1730               STAR               EQUALS   STARAD     +18D                       #  I(6)
001462: E5,1642  E5,1736               GCTR               EQUALS   STAR       +6                         #  B(1)
001463: E5,1642  E5,1737               OGC                EQUALS   GCTR       +1                         #  I(2)
001464: E5,1642  E5,1741               IGC                EQUALS   OGC        +2                         #  I(2)
001465: E5,1642  E5,1743               MGC                EQUALS   IGC        +2                         #  I(2)
001466:
001467:                                                                                                  #  P57 ALIGNMENT (OVERLAY OF ALIGNMENT/SYSTEST COMMON STORAGE)   (12D)
001468:
001469: E5,1642  E5,1706               GACC               =        STARAD                                #  (6) SS
001470: E5,1642  E5,1714               GOUT               =        STARAD     +6                         #  (6) SS
001471:
001472:                                                                                                  #  OVERLAYS WITHIN ALIGNMENT/SYSTEST COMMON STORAGE      (24D)
001473:
001474: E5,1642  E5,1706               VEARTH             EQUALS   STARAD                                #  (6)TMP
001475: E5,1642  E5,1714               VSUN               EQUALS   VEARTH     +6                         #  (6)TMP
001476: E5,1642  E5,1722               VMOON              EQUALS   VSUN       +6                         #  (6)TMP


001478: E5,1642  E5,1730               SAX                EQUALS   VMOON      +6                         #  (6)TMP
001479:
001480:                                                                                                  #  P50'S, R50'S Q STORES.                        (2D)
001481:
001482: E5,1642  E5,1745               QMIN               EQUALS   MGC        +2                         #  B(1)TMP
001483: E5,1642  E5,1746               QMAJ               EQUALS   QMIN       +1                         #  B(1)TMP
001484:
001485:                                                                                                  #  **** USED IN P50S **** (SCATTERED OVERLAYS)
001486:
001487: E5,1642  E5,1706               XSCI               EQUALS   STARAD
001488: E5,1642  E5,1714               YSCI               EQUALS   XSCI       +6
001489: E5,1642  E5,1714               ZSCI               EQUALS   YSCI
001490: E5,1642  E5,1706               CULTRIX            EQUALS   VEARTH                                #  VEARTH, VSUN, VMOON
001491:
001492:                                                                                                  #  ALIGNMENT STORAGE.                            (23D)
001493:
001494: E5,1642  E5,1747               OGCT               EQUALS   QMAJ       +1                         #  I(6)
001495: E5,1642  E5,1755               BESTI              EQUALS   OGCT       +6                         #  I(1)
001496: E5,1642  E5,1756               BESTJ              EQUALS   BESTI      +1
001497: E5,1642  E5,1757               STARIND            EQUALS   BESTJ      +1
001498:                                                                                                  #  RETAIN THE ORDER OF STARSAV1 TO STARSAV2 +5 FOR DOWNLINK PURPOSES.
001499: E5,1642  E5,1760               STARSAV1           EQUALS   STARIND    +1                         #  I(6)
001500: E5,1642  E5,1766               STARSAV2           EQUALS   STARSAV1   +6                         #  I(6)
001501: E5,1642  E5,1774               TALIGN             EQUALS   STARSAV2   +6                         #  B(2) TIME OF IMU ALIGNMENT (DOWNLINKED)
001502:
001503:                                                                                                  #  P32-35 + SERVICER                             (2D)
001504:
001505: E5,1642  E5,1776               RTX1               EQUALS   TALIGN     +2                         #  I(1) X1       -2 EARTH, -10 MOON
001506: E5,1642  E5,1777               RTX2               EQUALS   RTX1       +1                         #  I(1) X2       0 EARTH, 2 MOON
001507:
001508: E5,1642                        ZPRIME             =        22D
001509: E5,1642                        PDA                =        22D
001510: E5,1642                        COSTH              =        16D
001511: E5,1642                        SINTH              =        18D
001512: E5,1642                        THETA              =        20D
001513: E5,1642                        STARM              =        32D
001514:


001516:                                                                                                  #  ******* OVERLAY NUMBER 2 IN EBANK 5 *******
001517:
001518:                                                                                                  #  CONICS ROUTINE STORAGE.                       (85D)
001519:
001520: E5,1642  E5,1642               DELX               EQUALS   ENDW                                  #  I(2)TMP
001521: E5,1642  E5,1644               DELT               EQUALS   DELX       +2                         #  I(2)TMP
001522: E5,1642  E5,1646               URRECT             EQUALS   DELT       +2                         #  I(6)TMP
001523: E5,1642                        RCNORM             EQUALS   34D                                   #  I(2)TMP
001524: E5,1642  E3,1552               XPREV              EQUALS   XKEP                                  #  I(2)TMP
001525: E5,1642  E5,1654               R1VEC              EQUALS   URRECT     +6                         #  I(6)TMP
001526: E5,1642  E5,1662               R2VEC              EQUALS   R1VEC      +6                         #  I(6)TMP
001527: E5,1642  E5,1670               TDESIRED           EQUALS   R2VEC      +6                         #  I(2)TMP
001528: E5,1642  E5,1672               GEOMSGN            EQUALS   TDESIRED   +2                         #  I(1)TMP
001529: E5,1642  E5,1673               UN                 EQUALS   GEOMSGN    +1                         #  I(6)TMP
001530: E5,1642  E5,1701               VTARGTAG           EQUALS   UN         +6                         #  I(1)TMP
001531: E5,1642  E5,1702               VTARGET            EQUALS   VTARGTAG   +1                         #  I(6)TMP
001532: E5,1642  E5,1710               RTNLAMB            EQUALS   VTARGET    +6                         #  I(1)TMP
001533: E5,1642  E5,1711               U2                 EQUALS   RTNLAMB    +1                         #  I(6)TMP
001534: E5,1642  E5,1717               MAGVEC2            EQUALS   U2         +6                         #  I(2)TMP
001535: E5,1642  E5,1721               UR1                EQUALS   MAGVEC2    +2                         #  I(6)TMP
001536: E5,1642  E5,1727               SNTH               EQUALS   UR1        +6                         #  I(2)TMP
001537: E5,1642  E5,1731               CSTH               EQUALS   SNTH       +2                         #  I(2)TMP
001538: E5,1642  E5,1733               1-CSTH             EQUALS   CSTH       +2                         #  I(2)TMP
001539: E5,1642  E5,1735               CSTH-RHO           EQUALS   1-CSTH     +2                         #  I(2)TMP
001540: E5,1642  E5,1737               P                  EQUALS   CSTH-RHO   +2                         #  I(2)TMP
001541: E5,1642  E5,1741               R1A                EQUALS   P          +2                         #  I(2)TMP
001542: E5,1642  E5,1654               RVEC               EQUALS   R1VEC                                 #  I(6)TMP
001543: E5,1642  E5,1743               VVEC               EQUALS   R1A        +2                         #  I(6)TMP
001544: E5,1642  E5,1710               RTNTT              EQUALS   RTNLAMB                               #  I(1)TMP
001545: E5,1642  E5,1751               ECC                EQUALS   VVEC       +6                         #  I(2)TMP
001546: E5,1642  E5,1710               RTNTR              EQUALS   RTNLAMB                               #  I(1)TMP
001547: E5,1642  E5,1710               RTNAPSE            EQUALS   RTNLAMB                               #  I(1)TMP
001548: E5,1642  E5,1717               R2                 EQUALS   MAGVEC2                               #  I(2)TMP
001549: E5,1642  E5,1753               RTNPRM             EQUALS   ECC        +2                         #  I(1)TMP
001550: E5,1642  E5,1754               SGNRDOT            EQUALS   RTNPRM     +1                         #  I(1)TMP
001551: E5,1642  E5,1755               RDESIRED           EQUALS   SGNRDOT    +1                         #  I(2)TMP
001552: E5,1642  E5,1757               DELDEP             EQUALS   RDESIRED   +2                         #  I(2)TMP
001553: E5,1642  E5,1761               DEPREV             EQUALS   DELDEP     +2                         #  I(2)TMP
001554: E5,1642  E5,1757               TERRLAMB           EQUALS   DELDEP                                #  I(2)TMP
001555: E5,1642  E5,1761               TPREV              EQUALS   DEPREV                                #  I(2)TMP
001556: E5,1642  E5,1763               EPSILONL           EQUALS   DEPREV     +2                         #  I(2)TMP
001557: E5,1642  E5,1765               COGA               EQUALS   EPSILONL   +2                         #  I(2)  COTAN OF INITIAL FLIGHT PATH ANGLE.
001558: E5,1642  E5,1765               INDEP              EQUALS   COGA                                  #        USED BY SUBROUTINE 'ITERATOR'.
001559:


001561:                                                                                                  #  ******* OVERLAY NUMBER 3 IN EBANK 5 *******
001562:
001563:                                                                                                  #  INCORP STORAGE.                               (18D)
001564:
001565: E5,1642  E5,1642               ZI                 EQUALS   ENDW                                  #  I(18)TMP
001566:
001567:                                                                                                  #  INCORP/L SR22.3 STORAGE.                      (21D)
001568:
001569: E5,1642  E5,1664               DELTAX             EQUALS   ZI         +18D                       #  I(18)
001570: E5,1642  E5,1706               VARIANCE           EQUALS   DELTAX     +18D                       #  I(3)
001571:
001572:                                                                                                  #  MEASUREMENT INCORPORATION -R22- STORAGE.      (49D)
001573:
001574: E5,1642  E5,1711               GRP2SVQ            EQUALS   VARIANCE   +3                         #  I(1)TMP QSAVE FOR RESTARTS
001575: E5,1642  E5,1712               OMEGAM1            EQUALS   GRP2SVQ    +1                         #  I(6)
001576: E5,1642  E5,1720               OMEGAM2            EQUALS   OMEGAM1    +6                         #  I(6)
001577: E5,1642  E5,1726               OMEGAM3            EQUALS   OMEGAM2    +6                         #  I(6)
001578: E5,1642  E5,1734               HOLDW              EQUALS   OMEGAM3    +6                         #  I(18)
001579: E5,1642  E5,1756               TDPOS              EQUALS   HOLDW      +18D                       #  I(6)
001580: E5,1642  E5,1764               TDVEL              EQUALS   TDPOS      +6                         #  I(6)
001581:
001582: E5,1642  E5,1664               TRIPA              EQUALS   DELTAX                                #  I(3)TMP
001583: E5,1642  E5,1667               TEMPVAR            EQUALS   TRIPA      +3                         #  I(3)TMP
001584:
001585:                                                                                                  #  INCORPORATION/INTEGRATION Q STORAGE.          (1D)
001586:
001587: E5,1642  E5,1772               EGRESS             EQUALS   TDVEL      +6                         #  I(1)
001588:
001589:                                                                                                  #  P30/P31 STORAGE.                              (1D) AND ONE OVERLAY
001590:
001591: E5,1642  E5,1773               P30EXIT            EQUALS   EGRESS     +1                         #  B(1)TMP
001592:
001593: E5,1642  E5,1773               ORIGIN             EQUALS   P30EXIT                               #  I(1)TMP INDEX DURING INITVEL
001594:


001596:                                                                                                  #  SYSTEM TEST ERASABLES.  CAN OVERLAY W MATRIX. (127D)
001597:
001598:                                                                                                  #  ******* OVERLAY NUMBER 0 IN EBANK 5 *******
001599:
001600: E5,1642  E5,1400               AZIMUTH            EQUALS   W                                     #  2
001601: E5,1642  E5,1402               LATITUDE           EQUALS   AZIMUTH    +2                         #  2
001602: E5,1642  E5,1404               ERVECTOR           EQUALS   LATITUDE   +2                         #  6
001603: E5,1642  E5,1412               LENGTHOT           EQUALS   ERVECTOR   +6                         #  1
001604: E5,1642  E5,1413               LOSVEC             EQUALS   LENGTHOT   +1                         #  6
001605: E5,1642  E5,1414               NDXCTR             EQUALS   LOSVEC     +1                         #  1
001606: E5,1642  E5,1415               PIPINDEX           EQUALS   NDXCTR     +1                         #  1
001607: E5,1642  E5,1416               POSITON            EQUALS   PIPINDEX   +1                         #  1
001608: E5,1642  E5,1417               QPLACE             EQUALS   POSITON    +1                         #  1
001609: E5,1642  E5,1420               QPLACES            EQUALS   QPLACE     +1                         #  1
001610: E5,1642  E5,1421               SOUTHDR            EQUALS   QPLACES    +1                         #  7
001611: E5,1642  E5,1430               TEMPTIME           EQUALS   SOUTHDR    +7                         #  2
001612: E5,1642  E5,1432               TMARK              EQUALS   TEMPTIME   +2                         #  2
001613: E5,1642  E5,1434               GENPL              EQUALS   TMARK      +2
001614: E5,1642  E5,1434               CDUTIMEI           =        GENPL
001615: E5,1642  E5,1436               CDUTIMEF           =        GENPL      +2
001616: E5,1642  E5,1440               CDUDANG            =        GENPL      +4
001617: E5,1642  E5,1441               CDUREADF           =        GENPL      +5
001618: E5,1642  E5,1442               CDUREADI           =        GENPL      +6
001619: E5,1642  E5,1443               CDULIMIT           =        GENPL      +7
001620:
001621: E5,1642  E5,1440               TEMPADD            =        GENPL      +4
001622: E5,1642  E5,1441               TEMP               =        GENPL      +5
001623: E5,1642  E5,1442               NOBITS             =        GENPL      +6
001624: E5,1642  E5,1443               CHAN               =        GENPL      +7
001625:
001626: E5,1642  E5,1444               LOS1               =        GENPL      +8D
001627: E5,1642  E5,1452               LOS2               =        GENPL      +14D
001628:
001629: E5,1642  E5,1460               CALCDIR            EQUALS   GENPL      +20D
001630: E5,1642  E5,1461               CDUFLAG            EQUALS   GENPL      +21D
001631: E5,1642  E5,1462               GYTOBETQ           EQUALS   GENPL      +22D
001632: E5,1642  E5,1463               OPTNREG            EQUALS   GENPL      +23D
001633: E5,1642  E5,1464               SAVE               EQUALS   GENPL      +24D                       #  THREE ONSEC LOC
001634: E5,1642  E5,1467               SFCONST1           EQUALS   GENPL      +27D
001635: E5,1642  E5,1470               TIMER              EQUALS   GENPL      +28D
001636:
001637: E5,1642  E5,1472               DATAPL             EQUALS   GENPL      +30D
001638: E5,1642  E5,1434               RDSP               EQUALS   GENPL                                 #  FIX LA ER     POSSIBLY KEEP1
001639: E5,1642  E5,1534               MASKREG            EQUALS   GENPL      +64D
001640: E5,1642  E5,1536               CDUNDX             EQUALS   GENPL      +66D
001641: E5,1642  E5,1537               RESULTCT           EQUALS   GENPL      +67D
001642: E5,1642  E5,1542               COUNTPL            EQUALS   GENPL      +70D
001643:
001644: E5,1642  E5,1543               CDUANG             EQUALS   GENPL      +71D


001646: E5,1642  E5,1434               AINLA              =        GENPL                                 #  110 DE  OR 156 OCT LOCATIONS
001647:
001648: E5,1642  E5,1434               WANGO              EQUALS   AINLA                                 #  VERT E ATE
001649: E5,1642  E5,1436               WANGI              EQUALS   AINLA      +2D                        #  HORIZO TAL ERATE
001650: E5,1642  E5,1440               WANGT              EQUALS   AINLA      +4D                        #  T
001651: E5,1642  E5,1440               TORQNDX            =        WANGT
001652: E5,1642  E5,1442               DRIFTT             EQUALS   AINLA      +6D
001653: E5,1642  E5,1444               ALX1S              EQUALS   AINLA      +8D
001654: E5,1642  E5,1445               CMPX1              EQUALS   AINLA      +9D                        #  IND
001655: E5,1642  E5,1446               ALK                EQUALS   AINLA      +10D                       #  GAINS
001656: E5,1642  E5,1462               VLAUNS             EQUALS   AINLA      +22D
001657: E5,1642  E5,1464               WPLATO             EQUALS   AINLA      +24D
001658: E5,1642  E5,1470               INTY               EQUALS   AINLA      +28D                       #  SOUTH  IP INTE
001659: E5,1642  E5,1472               ANGZ               EQUALS   AINLA      +30D                       #  EAST A IS
001660: E5,1642  E5,1474               INTZ               EQUALS   AINLA      +32D                       #  EAST P P I
001661: E5,1642  E5,1476               ANGY               EQUALS   AINLA      +34D                       #  SOUTH
001662: E5,1642  E5,1500               ANGX               EQUALS   AINLA      +36D                       #  VE
001663: E5,1642  E5,1502               DRIFTO             EQUALS   AINLA      +38D                       #  VERT
001664: E5,1642  E5,1504               DRIFTI             EQUALS   AINLA      +40D                       #  SOU
001665: E5,1642  E5,1510               VLAUN              EQUALS   AINLA      +44D
001666: E5,1642  E5,1512               ACCWD              EQUALS   AINLA      +46D
001667: E5,1642  E5,1520               POSNV              EQUALS   AINLA      +52D
001668: E5,1642  E5,1522               DPIPAY             EQUALS   AINLA      +54D                       #  SOUTH
001669: E5,1642  E5,1526               DPIPAZ             EQUALS   AINLA      +58D                       #  NORTH  IP INCREMENT
001670: E5,1642  E5,1530               ALTIM              EQUALS   AINLA      +60D
001671: E5,1642  E5,1531               ALTIMS             EQUALS   AINLA      +61D                       #  INDEX
001672: E5,1642  E5,1532               ALDK               EQUALS   AINLA      +62D                       #  TIME  ONSTAN
001673: E5,1642  E5,1550               DELM               EQUALS   AINLA      +76D
001674: E5,1642  E5,1560               WPLATI             EQUALS   AINLA      +84D
001675: E5,1642  E5,1562               GEOCOMPS           EQUALS   AINLA      +86D
001676: E5,1642  E5,1563               ERCOMP             EQUALS   AINLA      +87D
001677: E5,1642  E5,1571               ZERONDX            EQUALS   AINLA      +93D
001678:
001679: E5,1642  E5,1452               THETAN             =        ALK        +4
001680: E5,1642  E5,1460               FILDELV            EQUALS   THETAN     +6                         #  AGS ALIGNMENT STORAGE
001681: E5,1642  E5,1462               INTVEC             EQUALS   FILDELV    +2
001682: E5,1642  E5,1572               1SECXT             =        AINLA      +94D
001683: E5,1642  E5,1573               ASECXT             =        AINLA      +95D
001684: E5,1642  E5,1574               PERFDLAY           EQUALS   AINLA      +96D                       #  B(2) DELAY TIME BEF. START DRIFT MEASURE
001685: E5,1642  E5,1576               OVFLOWCK           EQUALS   AINLA      +98D                       #  (1) SET MEANS OVERFLOW IN IMU PERF TEST
001686:                                                                                                  #      AND CAUSES TERMINATION
001687:
001688: E5,1642  E5,1774               END-E5             EQUALS   STARSAV2   +6                         #  *** FIRST FREE LOCATION IN E5 ***
001689:


001691:                                                                                                  #  EBANK-6 ASSIGNMENTS.
001692:
001693: E6,1400                                           SETLOC   3000
001694:
001695:                                                                                                  #  DAP PAD-LOADED DATA.                          (10D)
001696:
001697:                                                                                                  #  ALL OF THE FOLLOWING EXCEPT PITTIME AND ROLLTIME ARE INITIALIZED IN FRESH START TO PERMIT IMMEDIATE USE OF DAP
001698:
001699: E6,1400                        HIASCENT           ERASE                                          #  (1) MASS AFTER STAGING, SCALE AT B16 KG.
001700: E6,1401                        ROLLTIME           ERASE                                          #  (1) TIME TO TRIM Z GIMBAL IN R03, CSEC.
001701: E6,1402                        PITTIME            ERASE                                          #  (1) TIME TO TRIM Y GIMBAL IN R03, CSEC.
001702: E6,1403                        DKTRAP             ERASE                                          #  (1) DAP STATE            (POSSIBLE 77001
001703: E6,1404                        DKOMEGAN           ERASE                                          #  (1)   ESTIMATOR PARA-      (VALUES 00012
001704: E6,1405                        DKKAOSN            ERASE                                          #  (1)     METERS FOR THE             00074
001705: E6,1406                        LMTRAP             ERASE                                          #  (1)       DOCKED AND               77001
001706: E6,1407                        LMOMEGAN           ERASE                                          #  (1)         LEM-ALONE CASES        00000
001707: E6,1410                        LMKAOSN            ERASE                                          #  (1)           RESPECTIVELY         00074
001708: E6,1411                        DKDB               ERASE                                          #  (1) WIDTH OF DEADBAND FOR DOCKED RCS
001709:                                                                                                  #      AUTOPILOT (DB=1.4DEG IN FRESH START)
001710:                                                                                                  #      DEADBAND = PI/DKDB RAD.
001711:
001712:                                                                                                  #  PADLOADS FOR INITIALIZATION OF DAP BIAS ACCELERATION (AT P12 IGNITION)        (2D)
001713:
001714: E6,1412                        IGNAOSQ            ERASE                                          #  B(1)PL
001715: E6,1413                        IGNAOSR            ERASE                                          #  B(1)PL
001716:
001717:                                                                                                  #  AXIS TRANSFORMATION MATRIX - GIMBAL TO PILOT AXES:    (5D)
001718:
001719: E6,1414                        M11                ERASE                                          #  SCALED AT 1
001720: E6,1415                        M21                ERASE                                          #  SCALED AT 1
001721: E6,1416                        M31                ERASE
001722: E6,1417                        M22                ERASE                                          #  SCALED AT 1.
001723: E6,1420                        M32                ERASE                                          #  SCALED AT 1.
001724:
001725:                                                                                                  #  ANGLE MEASUREMENTS.                                   (31D)
001726:
001727: E6,1421                        OMEGAP             ERASE    +4                                    #  BODY-AXIS ROT. RATES SCALED AT PI/4 AND
001728: E6,1426  E6,1422               OMEGAQ             EQUALS   OMEGAP     +1                         #  BODY-AXIS ACCELERATIONS SCALED AT PI/8
001729: E6,1426  E6,1423               OMEGAR             EQUALS   OMEGAP     +2
001730:                                                                                                  #  RETAIN THE ORDER OF ALPHAQ AND ALPHAR FOR DOWNLINK PURPOSES.
001731: E6,1426  E6,1424               ALPHAQ             EQUALS   OMEGAP     +3
001732: E6,1426  E6,1425               ALPHAR             EQUALS   OMEGAP     +4
001733: E6,1426                        OMEGAU             ERASE    +1
001734: E6,1430  E6,1427               OMEGAV             =        OMEGAU     +1
001735:
001736: E6,1430                        TRAPEDP            ERASE    +5
001737: E6,1436  E6,1431               TRAPEDQ            =        TRAPEDP    +1
001738: E6,1436  E6,1432               TRAPEDR            =        TRAPEDP    +2
001739: E6,1436  E6,1433               NPTRAPS            =        TRAPEDP    +3


001741: E6,1436  E6,1434               NQTRAPS            =        TRAPEDP    +4
001742: E6,1436  E6,1435               NRTRAPS            =        TRAPEDP    +5
001743: E6,1436  E6,1427               EDOTP              =        EDOT
001744: E6,1436                        EDOTQ              ERASE    +1
001745: E6,1440  E6,1437               EDOTR              =        EDOTQ      +1                         #  MANY SHARING NAMES
001746: E6,1440  E6,1436               QRATEDIF           EQUALS   EDOTQ                                 #  ALTERNATIVE NAMES:
001747: E6,1440  E6,1437               RRATEDIF           EQUALS   EDOTR                                 #  DELETE WHEN NO. OF REFERENCES = 0
001748:
001749: E6,1440  E6,1426               URATEDIF           EQUALS   OMEGAU
001750: E6,1440  E6,1427               VRATEDIF           EQUALS   OMEGAV
001751: E6,1440                        OLDXFORP           ERASE    +2                                    #  STORED CDU READINGS FOR STATE
001752: E6,1443  E6,1441               OLDYFORP           EQUALS   OLDXFORP   +1                         #  DERIVATIONS: SCALED AT PI RADIANS (2'S)
001753: E6,1443  E6,1442               OLDZFORQ           EQUALS   OLDXFORP   +2
001754:
001755:                                                                                                  #  RATE-COMMAND AND MINIMUM IMPULSE MODES
001756:
001757: E6,1443                        CH31TEMP           ERASE
001758: E6,1444                        STIKSENS           ERASE
001759: E6,1445                        TCP                ERASE
001760: E6,1446                        DXERROR            ERASE    +5
001761: E6,1454  E6,1450               DYERROR            EQUALS   DXERROR    +2
001762: E6,1454  E6,1452               DZERROR            EQUALS   DXERROR    +4
001763: E6,1454                        PLAST              ERASE
001764: E6,1455                        QLAST              ERASE
001765: E6,1456                        RLAST              ERASE
001766: E6,1457                        TCQR               ERASE
001767:
001768:                                                                                                  #  OTHER VARIABLES.                              (5D)
001769:
001770: E6,1460                        OLDPMIN            ERASE                                          #  THESE THREE USED IN MIN IMPULSE MODE.
001771: E6,1461                        OLDQRMIN           ERASE
001772: E6,1462  E6,1736               TEMP31             EQUALS   DAPTEMP1
001773:
001774: E6,1462                        SAVEHAND           ERASE    +1
001775: E6,1464                        PERROR             ERASE
001776: E6,1465  E6,1450               QERROR             EQUALS   DYERROR
001777: E6,1465  E6,1452               RERROR             EQUALS   DZERROR
001778:
001779:                                                                                                  #  JET STATE CHANGE VARIABLES- TIME (TOFJTCHG), JET BITS WRITTEN NOW     (10D)
001780:                                                                                                  #    (JTSONNOW), AND JET BITS WRITTEN AT T6 RUPT (JTSATCHG).
001781:
001782: E6,1465                        NXT6ADR            ERASE
001783: E6,1466                        T6NEXT             ERASE    +1
001784: E6,1470                        T6FURTHA           ERASE    +1
001785: E6,1472                        NEXTP              ERASE    +2
001786: E6,1475  E6,1473               NEXTU              =        NEXTP      +1
001787: E6,1475  E6,1474               NEXTV              =        NEXTP      +2
001788: E6,1475                        -2JETLIM           ERASE    +1                                    #  RATE COMMAND 4-JET RATE DIFFERENCE LIMIT
001789: E6,1477  E6,1476               -RATEDB            EQUALS   -2JETLIM   +1                         #  AND RATE DEADBAND FOR ASCENT OR DESCENT
001790:
001791: E6,1477  E6,1476               TARGETDB           EQUALS   -RATEDB                               #  MAN. CONTROL TARGET DB COMPLEMENT.
001792:
001793:                                                                                                  #       *** Q,R AXIS ERASABLES ***               (3)


001795: E6,1477     4742               PBIT               EQUALS   BIT10
001796: E6,1477     4741               QRBIT              EQUALS   BIT11
001797: E6,1477  E6,1750               UERROR             EQUALS   DAPTREG5                              #  U,V-AXES ATT ERROR FOR RCS CONTROL LAWS
001798: E6,1477  E6,1751               VERROR             =        UERROR     +1
001799: E6,1477                        RETJADR            ERASE
001800: E6,1500  E6,1741               TEMPNUM            EQUALS   DAPTEMP4
001801: E6,1500  E6,1742               NUMBERT            EQUALS   DAPTEMP5
001802: E6,1500  E6,1743               ROTINDEX           EQUALS   DAPTEMP6
001803: E6,1500  E6,1736               ROTEMP1            EQUALS   DAPTEMP1
001804: E6,1500  E6,1737               ROTEMP2            EQUALS   DAPTEMP2
001805: E6,1500  E6,1740               POLYTEMP           EQUALS   DAPTEMP3
001806: E6,1500                        SENSETYP           ERASE
001807: E6,1501  E6,1736               ABSTJ              EQUALS   DAPTEMP1                              #  ABS VALUE OF JET-FIRING TIME
001808: E6,1501  E6,1736               ABSEDOTP           EQUALS   DAPTEMP1
001809:
001810: E6,1501  E6,1747               DPSBURN            EQUALS   DAPTREG4                              #  USED WITH SNUFFBIT.  VERY TEMPORARY.
001811:


001813:                                                                                                  #  TRIM GIMBAL CONTROL LAW ERASABLES:                    (11D)
001814:
001815: E6,1501  E6,1736               GTSTEMPS           EQUALS   DAPTEMP1                              #  GTS IS PART OF THE JASK.
001816: E6,1501  E6,1740               SHFTFLAG           EQUALS   GTSTEMPS   +2                         #  COUNT BITS FOR GTSQRT SHIFTING.
001817: E6,1501  E6,1743               ININDEX            EQUALS   GTSTEMPS   +5                         #  INDEX FOR SHIFT LOOP IN GTSQRT.
001818:
001819: E6,1501  E6,1505               SAVESR             EQUALS   AXISCTR                               #  CANNOT BE A DAPTEMP - GTS USES THEM ALL.
001820:
001821: E6,1501  E6,1745               SCRATCH            EQUALS   GTSTEMPS   +7                         #  ROOTCYCL ERASABLE
001822: E6,1501  E6,1746               HALFARG            EQUALS   GTSTEMPS   +8D                        #  ROOTCYCL ERASABLE.
001823:
001824: E6,1501  E6,1736               K2THETA            EQUALS   GTSTEMPS                              #  D.P., K*ERROR, NEGUSUM
001825: E6,1501  E6,1740               KCENTRAL           EQUALS   GTSTEMPS   +2                         #  S.P., K FROM KQ OR KRDAP, AT PI/2(8)
001826: E6,1501  E6,1741               K2CNTRAL           EQUALS   GTSTEMPS   +3                         #  D.P., GTS SCRATCH CELLS.
001827: E6,1501  E6,1742               WCENTRAL           EQUALS   GTSTEMPS   +4                         #  S.P., OMEGA, AT PI/4 RAD/SEC
001828: E6,1501  E6,1743               ACENTRAL           EQUALS   GTSTEMPS   +5                         #  S.P., ALPHA, AT PI/4 RAD/SEC(2)
001829: E6,1501  E6,1744               DEL                EQUALS   GTSTEMPS   +6                         #  S.P., SGN FUNCTION VALUE.
001830: E6,1501  E6,1745               A2CNTRAL           EQUALS   GTSTEMPS   +7                         #  D.P., GTS SCRATCH CELLS.
001831: E6,1501  E6,1747               QRCNTR             EQUALS   GTSTEMPS   +9D                        #  S.P., INDEX FOR GTS LOOP THROUGH Q,R AXES
001832: E6,1501  E6,1750               FUNCTION           EQUALS   GTSTEMPS   +10D                       #  D.P., ARGUMENT FOR GRSQRT, SCRATCH FOR GTS
001833:
001834: E6,1501                        NEGUQ              ERASE    +2                                    #  NEGATIVE OF Q-AXIS GIMBAL DRIVE
001835:                                                                                                  #                        NEGUQ +1        DEFINED AND USED ELSEWHERE
001836: E6,1504  E6,1503               NEGUR              EQUALS   NEGUQ      +2                         #  NEGATIVE OF R-AXIS GIMBAL DRIVE
001837:
001838: E6,1504                        KQ                 ERASE    +2                                    #  S.P., JERK TERM FOR GTS, AT PI/2(8)
001839: E6,1507  E6,1505               AXISCTR            EQUALS   KQ         +1
001840: E6,1507  E6,1506               KRDAP              EQUALS   KQ         +2                         #  .3 ACCDOTR SCALED AT PI/2(8)
001841:
001842: E6,1507                        ACCDOTQ            ERASE    +3                                    #  Q-JERK SCALED AT PI/2(7) UNSIGNED
001843: E6,1513  E6,1510               QACCDOT            EQUALS   ACCDOTQ    +1                         #  Q-JERK SCALED AT PI/2(7) SIGNED
001844: E6,1513  E6,1511               ACCDOTR            EQUALS   ACCDOTQ    +2                         #  R-JERK SCALED AT PI/2(7) UNSIGNED
001845: E6,1513  E6,1512               RACCDOT            EQUALS   ACCDOTQ    +3                         #  R-JERK SCALED AT PI/2(7) SIGNED
001846:
001847: E6,1513  E6,1450               QDIFF              EQUALS   QERROR                                #  ATTITUDE ERRORS:
001848: E6,1513  E6,1452               RDIFF              EQUALS   RERROR                                #  SCALED AT PI RADIANS
001849:
001850:                                                                                                  #  TORQUE VECTOR RECONSTRUCTION VARIABLES:       (17D)
001851:
001852: E6,1513  E6,1744               JETRATE            EQUALS   DAPTREG1
001853: E6,1513  E6,1745               JETRATEQ           EQUALS   JETRATE    +1                         #  THE LAST CONTROL SAMPLE PERIOD OF 100 MS
001854: E6,1513  E6,1746               JETRATER           EQUALS   JETRATE    +2                         #  SCALED AT PI/4 RADIANS/SECOND
001855:
001856: E6,1513                        DOWNTORK           ERASE    +5                                    #  ACCUMULATED JET TORQUE COMMANDED ABOUT
001857: E6,1521  E6,1513               POSTORKP           EQUALS   DOWNTORK                              #        +,-P, +,-U, +,-V RESPECTIVELY.
001858: E6,1521  E6,1514               NETTOTKP           EQUALS   DOWNTORK   +1                         #        EMPLOYED EXCLUSIVELY FOR DOWNLIST.
001859: E6,1521  E6,1515               POSTORKU           EQUALS   DOWNTORK   +2                         #        NOT INITIALIZED:  PERMITTED TO OVERFLOW


001861: E6,1521  E6,1516               NEGTORKU           EQUALS   DOWNTORK   +3                         #        SCALED AT 32 JET-SEC, OR ABOUT 2.0 JET-
001862: E6,1521  E6,1517               POSTORKV           EQUALS   DOWNTORK   +4                         #        MSEC PER BIT.
001863: E6,1521  E6,1520               NEGTORKV           EQUALS   DOWNTORK   +5
001864:
001865: E6,1521                        NO.PJETS           ERASE    +2
001866: E6,1524  E6,1522               NO.UJETS           =        NO.PJETS   +1
001867: E6,1524  E6,1523               NO.VJETS           =        NO.UJETS   +1
001868: E6,1524                        TJP                ERASE    +2
001869: E6,1527  E6,1525               TJU                =        TJP        +1
001870: E6,1527  E6,1526               TJV                =        TJP        +2
001871:
001872: E6,1527                        L,PVT-CG           ERASE
001873: E6,1530                        1JACC              ERASE    +3
001874: E6,1534  E6,1531               1JACCQ             EQUALS   1JACC      +1                         #  SCALED AT PI/4 RADIANS/SECOND
001875: E6,1534  E6,1532               1JACCR             EQUALS   1JACC      +2
001876: E6,1534  E6,1533               1JACCU             EQUALS   1JACC      +3                         #  FOR U,V-AXES THE SCALE FACTOR IS DIFF:
001877:                                                                                                  #  SCALED AT PI/2 RADIANS/SECOND (FOR ASC)
001878:
001879:                                                                                                  #  ASCENT VARIABLES:                             (10D)
001880:
001881: E6,1534                        SKIPU              ERASE    +1
001882: E6,1536  E6,1535               SKIPV              =        SKIPU      +1
001883:
001884:                                                                                                  #  THE FOLLOWING LM DAP ERASABLES ARE ZEROED IN THE STARTDAP SECTION OF THE DAPIDLER PROGRAM AND THE COASTASC
001885:                                                                                                  #  SECTION OF THE AOSTASK.  THE ORDER MUST BE PRESERVED FOR THE INDEXING METHODS WHICH ARE EMPLOYED IN THOSE
001886:                                                                                                  #  SECTIONS AND ELSEWHERE.
001887:
001888: E6,1536                        AOSQ               ERASE    +5                                    #  OFFSET ACC. ESTIMATES, UPDATED IN D.P.,
001889: E6,1544  E6,1540               AOSR               EQUALS   AOSQ       +2                         #  AND SCALED AT PI/2.
001890: E6,1544  E6,1542               AOSU               EQUALS   AOSQ       +4                         #  UV-AXES OFFSET ACC. FROMED BY VECTOR
001891: E6,1544  E6,1543               AOSV               EQUALS   AOSQ       +5                         #  ADDITION OF Q,R. AT PI/2 RAD/SEC(2).
001892:
001893: E6,1544                        AOSQTERM           ERASE    +1                                    #  (.1-.05K)AOS
001894: E6,1546  E6,1545               AOSRTERM           EQUALS   AOSQTERM   +1                         #  SCALED AT PI/4 RADIANS/SECOND.
001895:
001896:                                                                                                  #  FOR TJET LAW SUBROUTINE:                      (TEMPS ONLY)
001897:
001898:                                                                                                  # NUMBERT        EQUALS  DAPTEMP5        DEFINED IN QRAXIS.
001899: E6,1546  E6,1736               EDOTSQ             EQUALS   DAPTEMP1
001900: E6,1546  E6,1737               ROTSENSE           EQUALS   DAPTEMP2
001901: E6,1546  E6,1740               FIREFCT            EQUALS   DAPTEMP3                              #  LOOKED AT BY PAXIS.
001902: E6,1546  E6,1741               TTOAXIS            EQUALS   DAPTEMP4
001903: E6,1546  E6,1743               ADRSDIF2           EQUALS   DAPTEMP6
001904: E6,1546  E6,1744               HOLDQ              EQUALS   DAPTREG1
001905: E6,1546  E6,1745               ADRSDIF1           EQUALS   DAPTREG2
001906: E6,1546  E6,1746               HH                 EQUALS   DAPTREG3                              #  DOUBLE PRECISION
001907:                                                                                                  #  HH +1         EQUALS  DAPTREG4
001908: E6,1546  E6,1751               E                  EQUALS   DAPTREG6                              #  TIME SHARE WITH VERROR
001909: E6,1546  E6,1427               EDOT               EQUALS   OMEGAV
001910:
001911:                                                                                                  #  INPUT TO TJET LAW (PERMANENT ERASABLES).      (48D)
001912:


001914: E6,1546  E6,1525               TJETU              =        TJU                                   #  EQUATE NAMES.  INDEXED BY -1, 0, +1.
001915: E6,1546                        BLOCKTOP           ERASE    +47D
001916: E6,1626  E6,1566               1/ANET1            =        BLOCKTOP   +16D                       #  THESE 8 PARAMETERS ARE SET UP BY 1/ACCS
001917: E6,1626  E6,1567               1/ANET2            =        1/ANET1    +1                         #  FOR MINIMUM JETS ABOUT THE U-AXIS WHEN
001918: E6,1626  E6,1572               1/ACOAST           =        1/ANET1    +4                         #  EDOT IS POSITIVE.  TJETLAW INDEXES BY
001919: E6,1626  E6,1574               ACCFCTZ1           =        1/ANET1    +6                         #  ADRSDIFF FROM THESE REGISTERS TO PICK UP
001920: E6,1626  E6,1575               ACCFCTZ5           =        1/ANET1    +7                         #  PARAMETERS FOR THE PROPER AXIS, NUMBER
001921: E6,1626  E6,1600               FIREDB             =        1/ANET1    +10D                       #  OF JETS AND SIGN OF EDOT.  THERE ARE 48
001922: E6,1626  E6,1602               COASTDB            =        1/ANET1    +12D                       #  REGISTERS IN ALL IN THIS BLOCK.
001923: E6,1626  E6,1604               AXISDIST           =        1/ANET1    +14D                       #  FOUR NOT REFERENCED (P-AXIS) ARE FILLED
001924:                                                                                                  #  IN BY THE FOLLOWING:
001925: E6,1626  E6,1546               ACCSWU             =        BLOCKTOP                              #  SET BY 1/ACCS TO SHOW WHETHER MAXIMUM
001926: E6,1626  E6,1547               ACCSWV             =        ACCSWU     +1                         #  JETS ARE REQUIRED BECAUSE OF AOS.
001927: E6,1626  E6,1554               FLAT               =        BLOCKTOP   +6                         #  WIDTH OF MINIMUM IMPULSE ZONE.
001928: E6,1626  E6,1555               ZONE3LIM           =        BLOCKTOP   +7                         #  HEIGHT OF MINIMUM IMPULSE ZONE (AT 4 SEC)
001929:
001930: E6,1626                        COEFFQ             ERASE    +1                                    #  COEFFQ AND COEFFR ARE USED IN ROT-TOUV
001931: E6,1630  E6,1627               COEFFR             EQUALS   COEFFQ     +1                         #  TO RESOLVE Q,R COMPONENTS INTO U,V COMP.
001932:
001933:                                                                                                  #  VARIABLES FOR GTS-QRAXIS CONTROL EXCHANGE.    (4)
001934:
001935: E6,1630  E6,1502               ALLOWGTS           EQUALS   NEGUQ      +1                         #  INSERT INTO UNUSED LOCATION
001936: E6,1630                        COTROLER           ERASE                                          #  INDICATES WHICH CONTROL SYSTEM TO USE.
001937: E6,1631                        QGIMTIMR           ERASE    +2                                    #  Q-GIMBAL DRIVE ITMER, DECISECONDS.
001938: E6,1634  E6,1632               INGTS              EQUALS   QGIMTIMR   +1                         #  INDICATOR OF CURRENT GTS CONTROL.
001939: E6,1634  E6,1633               RGIMTIMR           EQUALS   QGIMTIMR   +2                         #  R-GIMBAL DRIVE TIMER, DECISECONDS.
001940:
001941:                                                                                                  #  PLEASE RETAIN THE ORDER OF CDUXD THRU CDUZD FOR DOWNLINK PURPOSES.
001942:
001943:                                                                                                  #  KALCMANU:DAP INTERFACE.                       (9D)
001944:
001945: E6,1634                        CDUXD              ERASE    +2                                    #  CDU DESIRED REGISTERS:
001946: E6,1637  E6,1635               CDUYD              EQUALS   CDUXD      +1                         #  SCALED AT PI RADIANS (180 DEGREES)
001947: E6,1637  E6,1636               CDUZD              EQUALS   CDUXD      +2                         #  (STORE IN 2S COMPLEMENT)
001948:
001949: E6,1637                        DELCDUX            ERASE    +2                                    #  NEGATIVE OF DESIRED 100MS CDU INCREMENT:
001950: E6,1642  E6,1640               DELCDUY            EQUALS   DELCDUX    +1                         #  SCALED AT PI RADIANS (180 DEGREES)
001951: E6,1642  E6,1641               DELCDUZ            EQUALS   DELCDUX    +2                         #  (STORE IN 2S COMPLEMENT)
001952:
001953:                                                                                                  #  RETAIN THE ORDER OF OMEGAPD TO OMEGARD FOR DOWNLINK PURPOSES.
001954:
001955: E6,1642                        OMEGAPD            ERASE    +2                                    #  ATTITUDE MANEUVER DESIRED RATES:
001956: E6,1645  E6,1643               OMEGAQD            EQUALS   OMEGAPD    +1                         #  (NOT EXPLICITLY REFERENCED IN GTS CNTRL)
001957: E6,1645  E6,1644               OMEGARD            EQUALS   OMEGAPD    +2                         #  SCALED AT PI/4 RADIANS/SECOND
001958:
001959:                                                                                                  #  KALCMANU STORAGE.                             (24D)
001960:
001961: E6,1645                        MIS                ERASE    +23D                                  #  I(18D)
001962: E6,1675  E6,1667               COF                EQUALS   MIS        +18D                       #  I(6)
001963:


001965:                                                                                                  #  KALCMANU STORAGE.                             (33D)
001966: E6,1675                        BCDU               ERASE    +30D                                  #  B(3)
001967: E6,1734  E6,1700               KSPNDX             EQUALS   BCDU       +3                         #  B(1)
001968: E6,1734  E6,1701               KDPNDX             EQUALS   KSPNDX     +1                         #  B(1)
001969:
001970: E6,1734  E6,1702               TMIS               EQUALS   KDPNDX     +1                         #  I(18) MUST BE IN SAME BANK AS RCS DAP
001971: E6,1734  E6,1724               COFSKEW            EQUALS   TMIS       +18D                       #  I(6) MUST BE IN SAME BANK AS RCS DAP
001972: E6,1734  E6,1732               CAM                EQUALS   COFSKEW    +6                         #  I(2) MUST BE IN SAME BANK AS RCS DAP
001973:
001974: E6,1734                        AM                 ERASE    +1                                    #  I(2) THIS WAS ONCE IN E5 OVERLAYING OGC
001975:
001976:                                                                                                  #  FIRST-ORDER OVERLAYS IN KALCMANU              (25D)
001977: E6,1736  E6,1702               KV1                EQUALS   TMIS                                  #  I(6)
001978: E6,1736  E6,1702               MFISYM             EQUALS   TMIS                                  #  I
001979: E6,1736  E6,1702               TMFI               EQUALS   TMIS                                  #  I
001980: E6,1736  E6,1702               NCDU               EQUALS   TMIS                                  #  B
001981: E6,1736  E6,1705               NEXTIME            EQUALS   TMIS       +3                         #  B
001982: E6,1736  E6,1706               TTEMP              EQUALS   TMIS       +4                         #  B
001983: E6,1736  E6,1710               KV2                EQUALS   TMIS       +6                         #  I(6)
001984: E6,1736  E6,1710               BIASTEMP           EQUALS   TMIS       +6                         #  B
001985: E6,1736  E6,1716               KV3                EQUALS   TMIS       +12D                       #  I(6)
001986: E6,1736  E6,1716               OGF                EQUALS   TMIS       +12D                       #  I
001987:
001988: E6,1736  E6,1724               BRATE              EQUALS   COFSKEW                               #  B
001989: E6,1736  E6,1724               IG                 EQUALS   COFSKEW                               #  I
001990:
001991: E6,1736  E6,1732               TM                 EQUALS   CAM                                   #  B
001992:
001993:                                                                                                  #  SECOND-ORDER OVERLAYS IN KALCMANU             (24D)
001994:
001995: E6,1736  E6,1702               K1                 =        KV1
001996: E6,1736  E6,1710               K2                 =        KV2
001997: E6,1736  E6,1716               K3                 =        KV3
001998: E6,1736  E6,1702               P21                EQUALS   KV1                                   #  I(2)
001999: E6,1736  E6,1704               D21                EQUALS   KV1        +2                         #  I(2)
002000: E6,1736  E6,1706               G21                EQUALS   KV1        +4                         #  I(2)
002001: E6,1736  E6,1710               C2SQP              EQUALS   KV2                                   #  I(2)
002002: E6,1736  E6,1712               C2SQM              EQUALS   KV2        +2                         #  I(2)
002003: E6,1736  E6,1714               C2PP               EQUALS   KV2        +4                         #  I(2)
002004: E6,1736  E6,1716               C2MP               EQUALS   KV3                                   #  I(2)
002005: E6,1736  E6,1720               C1PP               EQUALS   KV3        +2                         #  I(2)
002006: E6,1736  E6,1722               C1MP               EQUALS   KV3        +4                         #  I(2)
002007:
002008: E6,1736  E6,1724               VECQTEMP           =        COFSKEW


002010: E6,1736  E6,1634               DCDU               =        CDUXD
002011: E6,1736  E6,1637               DELDCDU            =        DELCDUX
002012: E6,1736  E6,1640               DELDCDU1           =        DELCDUY
002013: E6,1736  E6,1641               DELDCDU2           =        DELCDUZ
002014:
002015:                                                                                                  #  *  *  *  *  *  *  *  *  *  *  *  *  *  *  *  *  *  *  *  *  *  *  *  *
002016:
002017:                                                                                                  #  STORAGE FOR FINDCDUW
002018:
002019:                                                                                                  #  OVERLAYING KALCMANU STORAGE:                  (27D)
002020:
002021: E6,1736  E6,1645               ECDUW              EQUALS   MIS
002022: E6,1736  E6,1645               ECDUWUSR           EQUALS   ECDUW                                 #  B(1)TMP
002023: E6,1736  E6,1646               QCDUWUSR           EQUALS   ECDUWUSR   +1                         #  I(1)TMP
002024: E6,1736  E6,1647               NDXCDUW            EQUALS   QCDUWUSR   +1                         #  B(1)TMP
002025: E6,1736  E6,1650               FLAGOODW           EQUALS   NDXCDUW    +1                         #  B(1)TMP
002026: E6,1736  E6,1651               FLPAUTNO           EQUALS   FLAGOODW   +1                         #  B(1)TMP
002027: E6,1736  E6,1652               UNFC/2             EQUALS   FLPAUTNO   +1                         #  I(6)IN
002028: E6,1736  E6,1660               UNWC/2             EQUALS   UNFC/2     +6                         #  I(6)IN
002029: E6,1736  E6,1666               UNFV/2             EQUALS   UNWC/2     +6                         #  I(6) S-S
002030: E6,1736  E6,1666               UNFVX/2            =        UNFV/2
002031: E6,1736  E6,1670               UNFVY/2            =        UNFV/2     +2
002032: E6,1736  E6,1672               UNFVZ/2            =        UNFV/2     +4
002033: E6,1736  E6,1674               -DELGMB            EQUALS   UNFV/2     +6                         #  B(3)TMP
002034: E6,1736  E6,1677               OGABIAS            EQUALS   -DELGMB    +3                         #  B(1)IN
002035:
002036:                                                                                                  #  DEFINED IN THE WORK AREA:                     (18D)
002037:
002038: E6,1736                        UNX/2              =        0
002039: E6,1736                        UNY/2              =        6
002040: E6,1736                        UNZ/2              =        14
002041:
002042:                                                                                                  #  END OF FINDCDUW ERASABLES
002043:
002044:                                                                                                  #  *  *  *  *  *  *  *  *  *  *  *  *  *  *  *  *  *  *  *  *  *  *  *  *
002045:
002046:                                                                                                  #  * * * * * * * * * * * * * * * * * * * * * * * * * * * * * * * * * * * *
002047:
002048:                                                                                                  #  STORAGE FOR P57
002049:
002050:                                                                                                  #  OVERLAYING KALCMANU AND FINDCDUW STORAGE:     (12D)
002051:
002052: E6,1736  E6,1645               VEC1               EQUALS   MIS                                   #  I(6)TMP
002053: E6,1736  E6,1653               VEC2               EQUALS   VEC1       +6                         #  I(6)TMP
002054:
002055:                                                                                                  #  END OF P57 ERASABLES
002056:
002057:                                                                                                  #  * * * * * * * * * * * * * * * * * * * * * * * * * * * * * * * * * * * *
002058:


002060:                                                                                                  #  THE FOLLOWING ARE THE DAP REPLACEMENTS FOR THE ITEMPS AND RUPTREGS, NEEDED BECAUSE DAP IS NOW A TOB,JASK,JAB,TOSK
002061:                                                                                                  #  ... ANYWAY, THE DAP CAN NOW BE INTERRUPTED.   (18D)
002062:
002063: E6,1736                        DAPTEMP1           ERASE    +17D
002064: E6,1760  E6,1737               DAPTEMP2           EQUALS   DAPTEMP1   +1
002065: E6,1760  E6,1740               DAPTEMP3           EQUALS   DAPTEMP1   +2
002066: E6,1760  E6,1741               DAPTEMP4           EQUALS   DAPTEMP1   +3
002067: E6,1760  E6,1742               DAPTEMP5           EQUALS   DAPTEMP1   +4
002068: E6,1760  E6,1743               DAPTEMP6           EQUALS   DAPTEMP1   +5
002069: E6,1760  E6,1744               DAPTREG1           EQUALS   DAPTEMP1   +6
002070: E6,1760  E6,1745               DAPTREG2           EQUALS   DAPTEMP1   +7
002071: E6,1760  E6,1746               DAPTREG3           EQUALS   DAPTEMP1   +8D
002072: E6,1760  E6,1747               DAPTREG4           EQUALS   DAPTEMP1   +9D
002073: E6,1760  E6,1750               DAPTREG5           EQUALS   DAPTEMP1   +10D
002074: E6,1760  E6,1751               DAPTREG6           EQUALS   DAPTEMP1   +11D
002075:
002076: E6,1760  E6,1752               DAPARUPT           EQUALS   DAPTEMP1   +12D
002077: E6,1760  E6,1753               DAPLRUPT           EQUALS   DAPARUPT   +1
002078: E6,1760  E6,1754               DAPBQRPT           EQUALS   DAPARUPT   +2
002079: E6,1760  E6,1756               DAPZRUPT           EQUALS   DAPARUPT   +4
002080:                                                                                                  #  (DAPZRUPT IS ALSO JASK-IN-PROGRESS FLAG)
002081:
002082:                                                                                                  #  NEEDLER (ATTITUDE ERROR EIGHT BALL DISPLAY) STORAGE.  (6D)
002083:
002084: E6,1760     0061               T5TEMP             EQUALS   ITEMP1
002085: E6,1760     0063               DINDX              EQUALS   ITEMP3
002086: E6,1760                        AK                 ERASE    +2                                    #  NEEDLER ATTITUDE INPUTS, SCALED AT 180
002087: E6,1763  E6,1761               AK1                EQUALS   AK         +1                         #  DEGREES.  P,Q,R AXES IN AK,AK1,AK2.
002088: E6,1763  E6,1762               AK2                EQUALS   AK         +2
002089:
002090: E6,1763                        EDRIVEX            ERASE    +2                                    #  NEEDLER DISPLAY REGS AT 1800 DEGREES.
002091: E6,1766  E6,1764               EDRIVEY            EQUALS   EDRIVEX    +1                         #  SO THAT 384 BITS REPRESENT 42 3/16 DEG.
002092: E6,1766  E6,1765               EDRIVEZ            EQUALS   EDRIVEX    +2
002093:
002094:                                                                                                  #  DOCKED JET INHIBITION COUNTERS                (3D)
002095:
002096: E6,1766                        PJETCTR            ERASE    +2
002097: E6,1771  E6,1767               UJETCTR            EQUALS   PJETCTR    +1
002098: E6,1771  E6,1770               VJETCTR            EQUALS   PJETCTR    +2
002099:
002100:                                                                                                  #  LANDING PADLOADS                              (3D)
002101:
002102: E6,1771                        VELBIAS            ERASE    +1                                    #  B(2) PL BIAS VALUE FOR VELOCITY
002103:                                                                                                  #  REASONABILITY TEST, 2(6)M/CS.
002104: E6,1773                        AZBIAS             ERASE                                          #  B(1) PL LPD AZIMUTH BIAS, UNITS - PI RAD
002105:


002107: E6,1774  E6,1774               END-E6             EQUALS   AZBIAS     +1                         #  NEXT AVAILABLE E6 LOCATION
002108:


002110:                                                                                                  #  EBANK-7 ASSIGNMENTS
002111:
002112: E7,1400                                           SETLOC   3400
002113:
002114:                                                                                                  #  P35 CONSTANTS.        -PAD LOADED-            (4D)
002115:
002116: E7,1400                        ATIGINC            ERASE    +1                                    #  B(2)PL        *MUST BE AT 1400 FOR SYSTEMSTEST
002117: E7,1402                        PTIGINC            ERASE    +1                                    #  B(2)PL
002118:
002119:                                                                                                  #  AOTMARK STORAGE.      -PAD LOADED-            (12D)
002120:
002121: E7,1404                        AOTAZ              ERASE    +5                                    #  B(6)PL
002122: E7,1412                        AOTEL              ERASE    +5                                    #  B(6)PL
002123:
002124:                                                                                                  #  LANDING RADAR.        -PAD LOADED-            (2D)
002125:
002126: E7,1420                        LRHMAX             ERASE                                          #  B(1)
002127: E7,1421                        LRWH               ERASE                                          #  B(1)
002128:
002129:                                                                                                  #  THROTTLE STORAGE.     -PAD LOADED-            (1D)
002130:
002131: E7,1422                        ZOOMTIME           ERASE                                          #  B(1)PL TIME OF DPS THROTTLE-UP COMMAND
002132:
002133:                                                                                                  #  P63 AND P64 CONSTANTS.        -PAD LOADED-    (4D)
002134:
002135: E7,1423                        TENDBRAK           ERASE                                          #  B(1) LANDING PHASE SWITCHING CRITERION
002136: E7,1424                        TENDAPPR           ERASE                                          #  B(1) LANDING PHASE SWITCHING CRITERION
002137: E7,1425                        DELTTFAP           ERASE                                          #  B(1) INCREMENT ADDED TO TTF/8 WHEN
002138:                                                                                                  #        SWITCHING FROM P63 TO P64
002139: E7,1426                        LEADTIME           ERASE                                          #  B(1) TIME INCREMENT SPECIFYING HOW MUCH
002140:                                                                                                  #        GUIDANCE IS PROJECTED FORWARD.
002141:
002142:                                                                                                  #  LANDING RADAR         -PAD LOADED-            (2D)
002143:
002144: E7,1427                        RPCRTIME           ERASE                                          #  B(1) REPOSITIONING CRITERION (TIME)
002145: E7,1430                        RPCRTQSW           ERASE                                          #  B(1) REPOSITIONING CRITERION (ANGLE)
002146:
002147:                                                                                                  #  ASTEER                -PAD LOADED-            (2D)
002148:
002149: E7,1431                        TNEWA              ERASE    +1                                    #  I(2)PL LAMBERT CYCLE PERIOD
002150:
002151:                                                                                                  #  P22 STORAGE  - OVERLAYS LANDING PADLOADS -    (5D)


002153: E7,1433  E7,1423               REPOSCNT           EQUALS   TENDBRAK                              #  B(1)TMP COUNTS NUMBER OF PASSES THROUGH
002154:                                                                                                  #          REPOSITION ROUTINE.
002155: E7,1433  E7,1424               REPOSTM            EQUALS   REPOSCNT   +1                         #  I(2)TMP PRESENT TIME PLUS INCREMENTS OF
002156:                                                                                                  #          TEN SECONDS.
002157: E7,1433  E7,1426               DELTATM            EQUALS   REPOSTM    +2                         #  I(2)TMP TIME INTERVAL FOR RUNNING
002158:                                                                                                  #          DESIGNATE TASK.
002159:
002160:                                                                                                  #  *** RETAIN THE ORDER OF DELVSLV, TIG, RTARG, DELLT4 FOR UPDATE. ***
002161:
002162:                                                                                                  #  P32-35 P72-75 STORAGE.                        (6D)
002163:
002164: E7,1433                        DELVLVC            ERASE    +5                                    #  I(6) DELTA VELOCITY - LOCAL VERTICAL COO
002165: E7,1441  E7,1433               DELVSLV            =        DELVLVC                               #  (TEMP STORAGE OF SAME VECTOR)   -RDINATE
002166:
002167:                                                                                                  #  P30-P40 INTERFACE UNSHARED.                   (2D)
002168:
002169: E7,1441                        TIG                ERASE    +1                                    #  B(2)
002170:
002171:                                                                                                  #  INITVEL STORAGE.  ALSO USED BY P34,35,74,75,10,11 OTHERS      (8D)
002172:
002173: E7,1443                        RTARG              ERASE    +5                                    #  I(6) TARGET VECTOR
002174: E7,1451                        DELLT4             ERASE    +1                                    #  I(2) TIME DIFFERENCE
002175:
002176:                                                                                                  #  P30-P40 INTERFACE UNSHARED.                   (3D)
002177:
002178: E7,1453                        TTOGO              ERASE    +1                                    #  B(2)
002179: E7,1455  E7,1453               TFI                EQUALS   TTOGO
002180: E7,1455                        WHICH              ERASE                                          #  B(1)
002181:
002182:                                                                                                  #  *** R21 ***                                   (1D)
002183:
002184: E7,1456                        LOSCOUNT           ERASE                                          #  B(1)
002185:
002186:                                                                                                  #  LSR22.3 (RENDEZVOUS NAVIGATION) STORAGE.      (4D)
002187:
002188:                                                                                                  #  RETAIN THE ORDER OF AIG TO TRKMKCNT FOR DOWNLINK PURPOSES.
002189:
002190: E7,1457                        AIG                ERASE                                          #  B(1)OUT GIMGAL ANGLES
002191: E7,1460                        AMG                ERASE                                          #  B(1)OUT (MUST BE
002192: E7,1461                        AOG                ERASE                                          #  B(1)OUT CONSECUTIVE)
002193:
002194: E7,1462                        TRKMKCNT           ERASE                                          #  B(1)TMP TEMPORARY MARK STORAGE.
002195: E7,1463  E7,1462               MARKCTR            =        TRKMKCNT
002196:


002198:                                                                                                  #  P32-P35, P72-P75 STORAGE.  -PERMANENT-        (6)
002199:
002200: E7,1463                        NORMEX             ERASE                                          #  B(1)PRM SAVE FOR Q
002201: E7,1464                        QSAVED             ERASE                                          #  B(1)PRM SAVE FOR Q
002202: E7,1465                        RTRN               ERASE                                          #  B(1)PRM SAVE FOR Q
002203: E7,1466                        NN                 ERASE    +1                                    #  B(2)
002204: E7,1470                        SUBEXIT            ERASE                                          #  B(1)PRM SAVE Q
002205:
002206: E7,1471                        E7OVERLA           EQUALS                                         #  START OF E7 OVERLAYS.
002207: E7,1471  E7,1471               WHOCARES           EQUALS   E7OVERLA                              #  DUMMY FOR EBANK INSENSITIVE 2CADRS
002208:
002209:                                                                                                  #  LUNAR LANDING OVERLAYS                        (6D)
002210:
002211: E7,1471  E7,1463               /AFC/              EQUALS   NORMEX                                #  B(2)TMP THROTTLE
002212: E7,1471  E7,1465               FCODD              EQUALS   /AFC/      +2                         #  B(2)TMP THROTTLE
002213: E7,1471  E7,1467               FP                 EQUALS   FCODD      +2                         #  B(2)TMP THROTTLE
002214:
002215:                                                                                                  #  ERASABLES FOR P64: OVERLAY OF RTARG           (4D)
002216:
002217: E7,1471  E7,1443               ZERLINA            EQUALS   RTARG                                 #  B(1) P64
002218: E7,1471  E7,1444               ELVIRA             EQUALS   ZERLINA    +1                         #  B(1) P64
002219: E7,1471  E7,1445               AZINCR1            EQUALS   ELVIRA     +1                         #  B(1) P64
002220: E7,1471  E7,1446               ELINCR1            EQUALS   AZINCR1    +1                         #  B(1) P64
002221:


002223:                                                                                                  #  ******* OVERLAY NUMBER 0 IN EBANK 7 *******
002224:
002225:                                                                                                  #  RENDEZVOUS GUIDANCE STORAGE -P32....P35-      (89D)
002226:
002227: E7,1471  E7,1611               TSTRT              EQUALS   DELDV                                 #  MIDCOURSE START TIME
002228: E7,1471  E7,1573               TDEC2              EQUALS   DELVCSI                               #  TEMP STORAGE FOR INTEGRATION TIME INPUT
002229: E7,1471  E7,1575               KT                 EQUALS   DELVTPI                               #  TEMP STORAGE FOR MIDCOURSE DELTA TIME
002230: E7,1471                        VACT1              ERASE    +5D                                   #  VELOCITY VECTOR OF ACTIVE AT CSI TIME
002231: E7,1477                        RPASS1             ERASE    +5D                                   #  POSITION VECTOR OF PASSIVE AT CSI TIME
002232: E7,1505                        VPASS1             ERASE    +5D                                   #  VELOCITY VECTOR OF PASSIVE AT CSI TIME
002233: E7,1513                        VACT2              ERASE    +5D                                   #  VELOCITY VECTOR OF ACTIVE AT CDH TIME
002234: E7,1521                        RPASS2             ERASE    +5D                                   #  POSITION VECTOR OF PASSIVE AT CDH TIME
002235: E7,1527                        VPASS2             ERASE    +5D                                   #  VELOCITY VECTOR OF PASSIVE AT CDH TIME
002236: E7,1535                        RACT3              ERASE    +5D                                   #  POSITION VECTOR OF ACTIVE AT TPI TIME
002237: E7,1543                        VACT3              ERASE    +5D                                   #  VELOCITY VECTOR OF ACTIVE AT TPI TIME
002238: E7,1551                        RPASS3             ERASE    +5D                                   #  POSITION VECTOR OF PASSIVE AT TPI TIME
002239: E7,1557                        VPASS3             ERASE    +5D                                   #  VELOCITY VECTOR OF PASSIVE AT TPI TIME
002240: E7,1565                        VACT4              ERASE    +5D                                   #  VELOCITY VECTOR OF ACTIVE AT INTERCEPT
002241: E7,1573  E7,1543               UNVEC              EQUALS   VACT3                                 #  CDHMVR UNIT VECTOR TEMP STORAGE.
002242: E7,1573                        DELVCSI            ERASE    +1D                                   #  THRUST VALUE AT CSI
002243: E7,1575                        DELVTPI            ERASE    +1D                                   #  THRUST VALUE AT TPI OR MID
002244: E7,1577  E7,1575               DELVMID            EQUALS   DELVTPI
002245: E7,1577                        DIFFALT            ERASE    +1D                                   #  ALT DIFFERENCE AT CDH
002246: E7,1601                        POSTCSI            ERASE    +1                                    #  PERIGEE ALTITUDE AFTER CSI MANEUVER
002247: E7,1603                        POSTCDH            ERASE    +1                                    #  PERIGEE ALTITUDE AFTER CDH MANEUVER
002248: E7,1605                        POSTTPI            ERASE    +1                                    #  PERIGEE ALTITUDE AFTER TPI MANEUVER
002249: E7,1607  E7,1605               LOOPCT             EQUALS   POSTTPI                               #  CSI NEWTON ITERATION COUNTER
002250: E7,1607  E7,1603               HAFPA1             EQUALS   POSTCDH                               #  HALF PERIOD
002251: E7,1607                        GAMPREV            ERASE    +1                                    #  PREVIOUS GAMMA
002252: E7,1611  E7,1575               DVPREV             EQUALS   DELVTPI                               #  PREVIOUS DELVCSI
002253: E7,1611                        DELDV              ERASE    +1D
002254: E7,1613                        CSIALRM            ERASE    +1                                    #  FIRST SOLUTION ALARM
002255: E7,1615                        VERBNOUN           ERASE
002256: E7,1616  E7,1613               TITER              EQUALS   CSIALRM                               #  ITERATION COUNTER
002257: E7,1616                        RDOTV              ERASE    +1
002258: E7,1620  E7,1505               VAPREC             EQUALS   VPASS1                                #  I(6) S-S PREC VEC FOR NOM TPI TIME (ACT V
002259: E7,1620  E7,1477               RAPREC             EQUALS   RPASS1                                #  I(6) S-S PREC VEC FOR NOM TPI TIME (ACT V
002260: E7,1620  E7,1527               VPPREC             EQUALS   VPASS2                                #  I(6) S-S PREC VEC FOR NOM TPI TIME (PASS
002261: E7,1620  E7,1521               RPPREC             EQUALS   RPASS2                                #  I(6) S-S PREC VEC FOR NOM TPI TIME (PASS
002262: E7,1620  E7,1575               DELEL              EQUALS   DELVTPI                               #  I(2) S-S
002263: E7,1620  E7,1611               DELTEE             EQUALS   DELDV                                 #  I(2) S-S
002264: E7,1620  E7,1573               SECMAX             EQUALS   DELVCSI                               #  I(2) S-S MAX STOP SIZE FOR ROUTINE
002265: E7,1620  E7,1605               DELTEEO            EQUALS   POSTTPI                               #  I(2) S-S BACK VALUES OF DELTA TIME
002266: E7,1620                        CENTANG            ERASE    +1                                    #  I(2) S-S CENTRAL ANGLE COVERED (TPI-TPF)
002267:


002269:                                                                                                  #  SOME P47 STORAGE                              (6D)
002270:
002271: E7,1622                        DELVIMU            ERASE    +5                                    #  I(6)DSP NOUN 83 FOR P47 DELTA V (IMU)
002272:
002273:                                                                                                  #  P30-P40 COMMON STORAGE.                       (3D)
002274:
002275: E7,1630                        TPASS4             ERASE    +1                                    #  INTERCEPT TIME
002276: E7,1632                        QTEMP              ERASE                                          #  I(1)TMP COMMON RETURN SAVE REGISTER.
002277:
002278:                                                                                                  #  P32,33,34 STORAGE.                            (6D)
002279:
002280: E7,1633                        TCSI               ERASE    +1                                    #  B(2)TMP CSI TIME IN CENTISECONDS
002281: E7,1635                        TTPI               ERASE    +1                                    #  B(2)TMP TPI TIME IN CENTISECONDS
002282: E7,1637                        TTPIO              ERASE    +1                                    #  B(2)TMP TTPI STORAGE FOR RECYCLE
002283:
002284:                                                                                                  #  P30,P40 INTERFACE.                            (21D)
002285:
002286: E7,1641                        RTIG               ERASE    +19D                                  #  I(6)TMP
002287: E7,1665  E7,1647               VTIG               EQUALS   RTIG       +6                         #  I(6)TMP
002288: E7,1665  E7,1655               DELVSIN            EQUALS   VTIG       +6                         #  I(6)TMP
002289: E7,1665  E7,1663               DELVSAB            EQUALS   DELVSIN    +6                         #  I(2)TMP
002290: E7,1665  E7,1663               VGDISP             =        DELVSAB
002291:
002292: E7,1665                        QTEMP1             ERASE                                          #  I(1)TMP HOLDS RETURN.
002293: E7,1666  E7,1665               RGEXIT             EQUALS   QTEMP1                                #  SAVE Q
002294: E7,1666  E7,1665               SAVQR52            EQUALS   QTEMP1
002295:
002296:                                                                                                  #  INITVEL STORAGE.  (IN OVERLAY 0 AND OVERLAY 1.        (2D)
002297:                                                                                                  #        (CALLS LAMBERT, CONIC SUBROUTINES)
002298:
002299: E7,1666  E7,1565               VTPRIME            EQUALS   VACT4                                 #  TOTAL VELOCITY AT DESIRED RADIUS
002300: E7,1666  E7,1616               ITCTR              EQUALS   RDOTV                                 #  ITERATION COUNTER
002301: E7,1666                        COZY4              ERASE    +1                                    #  COS OF ANGLE WHEN ROTATION STARTS
002302: E7,1670  E7,1611               X1INPUT            EQUALS   DELDV                                 #  X1 TEMP STORAGE
002303: E7,1670  E7,1607               INTIME             EQUALS   GAMPREV                               #  TIME OF RINIT
002304:
002305:                                                                                                  #  PERIAPO STORAGE. (2D)                         (2D)
002306:
002307: E7,1670                        XXXALT             ERASE    +1                                    #  RADIUS TO LAUNCH PAD OR LANDING SIGHT
002308:
002309: E7,1672  E7,1672               END-IN/M           EQUALS   XXXALT     +2                         #  NEXT AVAIL ERASABLE AFTER INITVEL/MIDGIM
002310:


002312:                                                                                                  #  S40.1 STORAGE.                                (12D)
002313:
002314: E7,1672                        UT                 ERASE    +11D                                  #  I(6) THRUST DIRECTION
002315: E7,1706  E7,1700               VGTIG              EQUALS   UT         +6                         #  I(6)OUT
002316: E7,1706  E7,1700               VGPREV             =        VGTIG
002317:
002318:                                                                                                  #  ASTEER STORAGE.                               (22D)
002319:
002320: E7,1706                        VG                 ERASE    +21D                                  #  I(6)
002321: E7,1734  E7,1714               RMAG               EQUALS   VG         +6                         #  I(2)
002322: E7,1734  E7,1716               MUASTEER           EQUALS   RMAG       +2                         #  I(2)
002323: E7,1734  E7,1720               MU/A               EQUALS   MUASTEER   +2                         #  I(2)
002324: E7,1734  E7,1722               RTMAG              EQUALS   MU/A       +2                         #  I(2)
002325: E7,1734  E7,1724               R1C                EQUALS   RTMAG      +2                         #  I(6)
002326: E7,1734  E7,1732               SS                 EQUALS   R1C        +6                         #  I(2)
002327:
002328: E7,1734  E7,1655               IC                 =        DELVSIN
002329: E7,1734  E7,1762               TIGSAVE            =        P21TIME
002330: E7,1734  E7,1764               TIGSAVEP           =        SCAXIS
002331: E7,1734  E7,1766               MUSCALE            =        SCAXIS     +2
002332:
002333:                                                                                                  #  P40 STORAGE.                                  (6D)
002334:
002335:                                                                                                  #  F, MDOT, AND TDECAY MUST BE CONTIGUOUS FOR VLOAD.
002336:
002337: E7,1734                        F                  ERASE    +5                                    #  I(2)TMP S40.1 GENERATES THIS FOR S40.3
002338: E7,1742  E7,1736               MDOT               EQUALS   F          +2                         #  I(2)TMP MASS CHNG RATE, KG/CS AT 2**3.
002339: E7,1742  E7,1740               TDECAY             EQUALS   MDOT       +2                         #  I(2)IN DELTA-T TAILOFF, (2**28)CS.
002340: E7,1742                        VEX                ERASE    +1                                    #  I(2) EXHAUST VELOCITY FOR TGO COMPUTAT'N
002341:
002342:                                                                                                  #  MIDTOAV1(2) STORAGE.  (CALLED BY P40,P41,P42)         (1D)
002343:
002344: E7,1744                        IRETURN1           ERASE                                          #  B(1) RETURN FROM MIDTOAV1 AND 2
002345:


002347:                                                                                                  #  ******* OVERLAY NUMBER 1 IN EBANK 7 *******
002348:
002349:                                                                                                  #  INITVEL (CALLED BY P34,35,38,39,10,11,S40.9,S40.1)    (6D)
002350:
002351: E7,1745  E7,1471               RTARG1             EQUALS   VACT1                                 #  I(6)S TEMP STORAGE OF RTARG
002352:
002353:                                                                                                  #  P35-P40 INTERFACE.                            (6D)
002354:
002355: E7,1745  E7,1505               VPASS4             EQUALS   VPASS1                                #  I(6)TMP VELOCITY OF PASSIVE AT INTERCEPT
002356:
002357:                                                                                                  #  LAT-LONG TEMPORARIES.  CAN OVERLAY WITH S40.1         (3D)
002358:
002359: E7,1745  E7,1672               ERADM              EQUALS   UT                                    #  I(2)
002360: E7,1745  E7,1674               INCORPEX           EQUALS   ERADM      +2                         #  I(1)
002361:
002362:                                                                                                  #  LRS24.1 STORAGE.  (CAN SHARE WITH P30'S)              (40D)
002363:
002364: E7,1745  E7,1675               RLMSRCH            EQUALS   INCORPEX   +1                         #  I(6)TMP LM POSITION VECTOR
002365: E7,1745  E7,1703               VXRCM              EQUALS   RLMSRCH    +6                         #  I(6)    CM V X R VECTOR
002366: E7,1745  E7,1711               LOSDESRD           EQUALS   VXRCM      +6                         #  I(6)    DESIRED LOS VECTOR
002367: E7,1745  E7,1717               UXVECT             EQUALS   LOSDESRD   +6                         #  I(6)    X-AXIS SRCH PATTERN COORDS
002368: E7,1745  E7,1725               UYVECT             EQUALS   UXVECT     +6                         #  I(6)    Y-AXIS SRCH PATTERN COORDS
002369: E7,1745  E7,1733               DATAGOOD           EQUALS   UYVECT     +6                         #  B(1)DSP FOR R1 - ALL 1-S WHEN LOCKON
002370: E7,1745  E7,1734               OMEGDISP           EQUALS   DATAGOOD   +1                         #  B(2)    ANGLE OMEGA DISPLAYED IN R2
002371: E7,1745  E7,1734               OMEGAD             =        OMEGDISP                              #          PINBALL DEFINITION.
002372: E7,1745  E7,1736               NSRCHPNT           EQUALS   OMEGDISP   +2                         #  B(1)TMP SEARCH PATTERN POINT COUNTER.
002373: E7,1745  E7,1737               SAVLEMV            EQUALS   NSRCHPNT   +1                         #  I(6)S-S SAVES LOSVEL
002374:


002376:                                                                                                  #  ******* OVERLAY NUMBER 2 IN EBANK 7 *******
002377:
002378:                                                                                                  #  INCORP STORAGE IN E7.                         (47D)
002379:
002380: E7,1745  E7,1471               TX789              EQUALS   E7OVERLA                              #  I(6)
002381: E7,1745  E7,1477               GAMMA              EQUALS   TX789      +6                         #  I(3)
002382: E7,1745  E7,1502               OMEGA              EQUALS   GAMMA      +3                         #  I(18)
002383: E7,1745  E7,1524               BVECTOR            EQUALS   OMEGA      +18D                       #  I(18)
002384: E7,1745  E7,1546               DELTAQ             EQUALS   BVECTOR    +18D                       #  I(2)
002385:
002386:                                                                                                  #  AOTMARK STORAGE                               (3D)
002387:
002388: E7,1745  E7,1550               MARKCNTR           EQUALS   DELTAQ     +2                         #  I(1)
002389: E7,1745  E7,1551               XYMARK             EQUALS   MARKCNTR   +1                         #  B(1)
002390: E7,1745  E7,1552               MKDEX              EQUALS   XYMARK     +1                         #  B(1)TMP INDEX FOR AOTMARK
002391:
002392:                                                                                                  #  PLANET STORAGE.                               (8D)
002393:
002394: E7,1745  E7,1553               PLANVEC            EQUALS   MKDEX      +1                         #  (6) REFER VECTOR OF PLANET
002395: E7,1745  E7,1561               TSIGHT             EQUALS   PLANVEC    +6                         #  (2) TIME OF MARK OR EST TIME OF MARK
002396:
002397:                                                                                                  #  LRS22.3 STORAGE.  (CAN SHARE WITH P30'S AND OVERLAY LRS24.1   (30D).
002398:
002399: E7,1745  E7,1675               LGRET              EQUALS   RLMSRCH                               #  I(1)TMP
002400: E7,1745  E7,1675               RDRET              EQUALS   LGRET                                 #  B(1) TEMP RETURN.
002401: E7,1745  E7,1675               IGRET              EQUALS   LGRET                                 #  B(1) TEMP RETURN.
002402: E7,1745  E7,1676               MX                 EQUALS   RDRET      +1                         #  I(6)
002403: E7,1745  E7,1704               MY                 EQUALS   MX         +6                         #  I(6)
002404: E7,1745  E7,1712               MZ                 EQUALS   MY         +6                         #  I(6)
002405: E7,1745  E7,1676               E0                 EQUALS   MX                                    #  I(2)
002406: E7,1745  E7,1700               E1                 EQUALS   MX         +2                         #  I(2)
002407: E7,1745  E7,1702               E2                 EQUALS   MX         +4                         #  I(2)
002408: E7,1745  E7,1704               E3                 EQUALS   E2         +2                         #  I(2)
002409: E7,1745  E7,1720               SCALSHFT           EQUALS   MZ         +6                         #  B(1) SCALE SHIFT FOR EARTH/MOON
002410: E7,1745  E7,1721               RXZ                EQUALS   SCALSHFT   +1                         #  I(2)
002411: E7,1745  E7,1723               ULC                EQUALS   RXZ        +2                         #  I(6)
002412: E7,1745  E7,1731               SINTHETA           EQUALS   ULC        +6                         #  I(2)
002413:
002414:                                                                                                  #  ***** IN OVERLAY ONE *****
002415:
002416: E7,1745  E7,1746               N49FLAG            EQUALS   RDOTMSAV                              #  B(1)S FLAG INDICATING V0649 RESPONSE
002417:
002418:                                                                                                  #  LRS22.1 STORAGE.  (MUST NOT SHARE WITH P30'S)         (13D)
002419:
002420:                                                                                                  #  (OUTPUTS ARE TO LRS22.3)
002421:


002423: E7,1745  E7,1733               RRTRUN             EQUALS   SINTHETA   +2                         #  B(2)OUT RR TRUNION ANGLE
002424: E7,1745  E7,1735               RRSHAFT            EQUALS   RRTRUN     +2                         #  B(2)OUT RR SHAFT ANGLE
002425: E7,1745  E7,1737               LRS22.1X           EQUALS   RRSHAFT    +2                         #  B(1)TMP
002426: E7,1745  E7,1740               RRBORSIT           EQUALS   LRS22.1X   +1                         #  I(6)TMP RADAR BORESIGHT VECTOR.
002427: E7,1745  E7,1746               RDOTMSAV           EQUALS   RRBORSIT   +6                         #  B(2)S RR RANGE-RATE (FPS)
002428:
002429:                                                                                                  #  LRS22.1 (SAME AS PREVIOUS SECTION) ALSO DOWNLINK FOR RR (R29)         (10D) CANNOT SHARE WITH L.A.D.
002430:
002431: E7,1745  E7,1750               RDOTM              EQUALS   RDOTMSAV   +2                         #  B(2)OUT RANGE-RATE READING
002432: E7,1745  E7,1752               TANGNB             EQUALS   RDOTM      +2                         #  B(2)TMP RR GIMBAL ANGLES
002433:                                                                                                  #  RETAIN THE ORDER OF MKTIME TO RM FOR DOWNLINK PURPOSES
002434: E7,1745  E7,1754               MKTIME             EQUALS   TANGNB     +2                         #  B(2)OUT TIME OF RR READING
002435: E7,1745  E7,1756               RM                 EQUALS   MKTIME     +2                         #  I(2)OUT RANGE READING
002436: E7,1745  E7,1760               RANGRDOT           EQUALS   RM         +2                         #  B(2) DOWNLINKED RAW RANGE AND RRATE
002437:
002438:                                                                                                  #  LANDING OVERLAY                               (1D)
002439:
002440: E7,1745  E7,1750               THRDISP            EQUALS   RDOTM                                 #  B(1) PERCENT OF FTP I 10,500 LBS.
002441:
002442:                                                                                                  #  R61LEM - PREFERRED TRACKING ATTITUDE ROUTINE **IN OVERLAY ONE*
002443:                                                                                                  #  (CALLED BY P20, R22LEM, LSR22.3)              (1D)
002444:
002445: E7,1745  E7,1745               R65CNTR            EQUALS   RRBORSIT   +5                         #  B(1)SS COUNT NUMBER OF TIMES PREFERRED
002446:                                                                                                  #         TRACKING ROUTINE IS TO CYCLE
002447:
002448:                                                                                                  #  P21 STORAGE                                   (2D)
002449:
002450: E7,1745  E7,1762               P21TIME            EQUALS   RANGRDOT   +2                         #  I(2)TMP
002451:
002452:                                                                                                  #  KALCMANU, VECPOINT STORAGE.  CALLED BY R63, R61, R65.         (12D)
002453:
002454: E7,1745  E7,1764               SCAXIS             EQUALS   P21TIME    +2                         #  I(6)
002455: E7,1745  E7,1772               POINTVSM           EQUALS   SCAXIS     +6                         #  I(6)
002456:


002458:
002459:                                                                                                  #  ******* OVERLAY NUMBER 3 IN EBANK 7 *******
002460:
002461:                                                                                                  #  SERVICER STORAGE                              (6D)
002462:
002463: E7,1745  E7,1471               ABVEL              EQUALS   E7OVERLA                              #  B(2) DISPLAY
002464: E7,1745  E7,1473               HDOTDISP           EQUALS   ABVEL      +2                         #  B(2) DISPLAY
002465: E7,1745  E7,1475               TTFDISP            EQUALS   HDOTDISP   +2                         #  B(2) DISPLAY
002466:
002467:                                                                                                  #  BURN PROG STORAGE.                            (2D)
002468:
002469: E7,1745  E7,1477               SAVET-30           EQUALS   TTFDISP    +2                         #  B(2)TMP TIG-30 RESTART
002470:
002471:                                                                                                  #  SERVICER STORAGE.                             (69D)
002472:
002473: E7,1745  E7,1501               VGBODY             EQUALS   SAVET-30   +2                         #  B(6)OUT SET.BY S41.1 VG LEM, SC.COORDS
002474: E7,1745  E7,1501               DELVCTL            =        VGBODY
002475: E7,1745  E7,1507               DVTOTAL            EQUALS   VGBODY     +6                         #  B(2) DISPLAY NOUN
002476: E7,1745  E7,1511               GOBLTIME           EQUALS   DVTOTAL    +2                         #  B(2) NOMINAL TIG FOR CALC. OF GOBLATE.
002477: E7,1745  E7,1513               ABDVCONV           EQUALS   GOBLTIME   +2                         #  I(2)
002478: E7,1745  E7,1515               DVCNTR             EQUALS   ABDVCONV   +2                         #  B(1)
002479: E7,1745  E7,1516               TGO                EQUALS   DVCNTR     +1                         #  B(2)
002480: E7,1745  E7,1520               R                  EQUALS   TGO        +2                         #  I(6)
002481: E7,1745  E7,1520               UNITGOBL           EQUALS   R                                     #  I(6)
002482: E7,1745  E7,1526               V                  EQUALS   R          +6
002483: E7,1745  E7,1526               DELVREF            EQUALS   V                                     #  I(6)
002484: E7,1745  E7,1534               HCALC              EQUALS   DELVREF    +6                         #  B(2) LR
002485: E7,1745  E7,1536               UNIT/R/            EQUALS   HCALC      +2                         #  I(6)
002486:
002487:                                                                                                  #  (THE FOLLOWING SERVICER ERASABLES CAN BE SHARED WITH SECOND DPS GUIDANCE STORAGE)
002488:
002489: E7,1745  E7,1544               RN1                EQUALS   UNIT/R/    +6                         #  B(6)
002490: E7,1745  E7,1552               VN1                EQUALS   RN1        +6                         #  I(6)          ( IN ORDER )
002491: E7,1745  E7,1560               PIPTIME1           EQUALS   VN1        +6                         #  B(2)          (    FOR   )
002492: E7,1745  E7,1562               GDT1/2             EQUALS   PIPTIME1   +2                         #  I(6)          (   COPY   )
002493: E7,1745  E7,1570               MASS1              EQUALS   GDT1/2     +6                         #  I(2)          (   CYCLE  )
002494: E7,1745  E7,1572               R1S                EQUALS   MASS1      +2                         #  I(6)
002495: E7,1745  E7,1600               V1S                EQUALS   R1S        +6                         #  I(6)
002496:
002497:                                                                                                  #  ALIGNMENT/S40.2.3 COMMON STORAGE.             (18D)
002498:
002499: E7,1745  E7,1606               XSMD               EQUALS   V1S        +6                         #  I(6)
002500: E7,1745  E7,1614               YSMD               EQUALS   XSMD       +6                         #  I(6)
002501: E7,1745  E7,1622               ZSMD               EQUALS   YSMD       +6                         #  I(6)
002502:
002503: E7,1745  E7,1606               XSCREF             =        XSMD
002504: E7,1745  E7,1614               YSCREF             =        YSMD


002506: E7,1745  E7,1622               ZSCREF             =        ZSMD
002507:
002508: E7,1745  E7,1630               END-ALIG           EQUALS   ZSMD       +6                         #  NEXT AVAIL ERASABLE AFTER ALIGN/S40.2,3
002509:
002510:                                                                                                  #  ****** P22 ******                             (24D)
002511:
002512: E7,1745  E7,1630               RSUBL              EQUALS   END-ALIG                              #  I(6)S-S       LM POSITION VECTOR
002513: E7,1745  E7,1636               UCSM               EQUALS   RSUBL      +6                         #  I(6)S-S       VECTOR U
002514: E7,1745  E7,1644               NEWVEL             EQUALS   UCSM       +6                         #  I(6)S-S       TERMINAL VELOCITY VECTOR
002515: E7,1745  E7,1652               NEWPOS             EQUALS   NEWVEL     +6                         #  I(6)S-S       TERMINAL POSITION VECTOR
002516: E7,1745  E7,1660               LNCHTM             EQUALS   NEWPOS     +6                         #  I(2)S-S       EST. LAUNCH TIME FOR LEM
002517: E7,1745  E7,1662               TRANSTM            EQUALS   LNCHTM     +2                         #  I(2)S-S       TRANSFER TIME
002518: E7,1745  E7,1664               NCSMVEL            EQUALS   TRANSTM    +2                         #  I(6)S-S       NEW CSM VELOCITY
002519:
002520:                                                                                                  #  ***** P21 *****                               (18D)
002521:
002522: E7,1745     1162               P21ORIG            =        DISPDEX
002523: E7,1745  E7,1675               P21BASER           EQUALS   RLMSRCH                               #  I(6)TMP
002524: E7,1745  E7,1703               P21BASEV           EQUALS   P21BASER   +6                         #  I(6)TMP
002525: E7,1745  E7,1711               P21VEL             EQUALS   P21BASEV   +6                         #  I(2)TMP       *** NOUN 91 ***
002526: E7,1745  E7,1713               P21GAM             EQUALS   P21VEL     +2                         #  I(2)TMP       *** NOUN 91 ***
002527: E7,1745  E7,1715               P21ALT             EQUALS   P21GAM     +2                         #  I(2)TMP       *** NOUN 91 ***
002528:


002530:                                                                                                  #  ******* OVERLAY NUMBER 4 IN EBANK 7 *******
002531:
002532:                                                                                                  #  VARIABLES FOR SECOND DPS GUIDANCE (THE LUNAR LANDING)         (80D)
002533:
002534:                                                                                                  #  THESE ERASABLES MAY BE SHARED WITH CARE
002535:
002536: E7,1745  E7,1544               OURTEMPS           =        RN1                                   #  OVERLAY LAST PART OF SERVICER
002537: E7,1745  E7,1544               LANDTEMP           =        OURTEMPS                              #  B(6)  GUIDANCE
002538: E7,1745  E7,1552               TTF/8TMP           =        LANDTEMP   +6                         #  B(2)  GUIDANCE
002539: E7,1745  E7,1554               ELINCR             =        TTF/8TMP   +2                         #  B(2)  GUIDANCE
002540: E7,1745  E7,1556               AZINCR             =        ELINCR     +2                         #  B(2)  GUIDANCE
002541: E7,1745  E7,1560               KEEP-2             =        AZINCR     +2                         #  B(2)  TO PREVENT PIPTIME1 OVERLAY
002542: E7,1745  E7,1562               TABLTTF            =        KEEP-2     +2                         #  B(2)  GUIDANCE
002543: E7,1745  E7,1573               TPIPOLD            =        TABLTTF    +9D                        #  B(2)  GUIDANCE
002544: E7,1745  E7,1621               E2DPS              EQUALS   OURPERMS
002545:
002546:                                                                                                  #  THESE ERASABLES MUST NOT OVERLAY GOBLTIME OR SERVICER
002547:
002548: E7,1745  E7,1606               PIFPSET            =        XSMD                                  #  B(1)  THROTTLE
002549: E7,1745  E7,1607               RTNHOLD            =        PIFPSET    +1                         #  B(1)  THROTTLE
002550: E7,1745  E7,1610               FWEIGHT            =        RTNHOLD    +1                         #  B(2)  THROTTLE
002551: E7,1745  E7,1612               PIF                =        FWEIGHT    +2                         #  B(2)  THROTTLE
002552: E7,1745  E7,1614               PSEUDO55           =        PIF        +2                         #  B(1)  THROTTLE DOWNLINK
002553: E7,1745  E7,1615               FC                 =        PSEUDO55   +1                         #  B(2)  THROTTLE
002554: E7,1745  E7,1617               TTHROT             =        FC         +2                         #  B(1)  THROTTLE
002555: E7,1745  E7,1620               FCOLD              =        TTHROT     +1                         #  B(1)  THROTTLE
002556:
002557:                                                                                                  #  THESE ERASABLES SHOULD NOT BE SHARED DURING P63, P64, P65, P66, P67
002558:
002559: E7,1745  E7,1621               OURPERMS           =        FCOLD      +1                         #  MUSTN'T OVERLAY OURTEMPS OR SERVICER
002560: E7,1745  E7,1621               WCHPHOLD           =        OURPERMS                              #  B(1)  GUIDANCE
002561: E7,1745  E7,1622               FILLER             =        WCHPHOLD   +1
002562: E7,1745  E7,1623               FLPASS0            =        FILLER     +1                         #  B(1)  GUIDANCE
002563: E7,1745  E7,1624               TPIP               =        FLPASS0    +1                         #  B(2)
002564: E7,1745  E7,1626               VGU                =        TPIP       +2                         #  B(6)  GUIDANCE
002565: E7,1745  E7,1634               LAND               =        VGU        +6                         #  B(6)  GUIDANCE        CONTIGUOUS
002566: E7,1745  E7,1642               TTF/8              =        LAND       +6                         #  B(2)  GUIDANCE        CONTIGUOUS
002567: E7,1745  E7,1644               ELIDUMMY           =        TTF/8      +2                         #  (1)   DUMMY FOR ELINCR1
002568: E7,1745  E7,1645               AZIDUMMY           =        ELIDUMMY   +1                         #  (1)   DUMMY FOR AZINCR1
002569: E7,1745  E7,1646               ZERDUMMY           =        AZIDUMMY   +1                         #  (1)   DUMMY FOR ZERLINA
002570: E7,1745  E7,1647               ELVDUMMY           =        ZERDUMMY   +1                         #  (1)   DUMMY FOR ELVIRA
002571: E7,1745  E7,1650               LRADRET            =        ELVDUMMY   +1                         #  B(1)  LR
002572: E7,1745  E7,1651               VSELECT            =        LRADRET    +1                         #  B(1)  LR
002573: E7,1745  E7,1652               VMEAS              =        VSELECT    +1                         #  B(2)  LR
002574: E7,1745  E7,1654               HMEAS              =        VMEAS      +2                         #  B(2)  LR
002575: E7,1745  E7,1656               VN2                =        HMEAS      +2                         #  B(6)  LR


002577: E7,1745  E7,1656               GNUR               =        VN2                                   #  B(6)  LR
002578: E7,1745  E7,1656               GNUV               =        VN2                                   #  B(6)  LR
002579: E7,1745  E7,1656               LRADRET1           =        VN2                                   #  B(1)  LR
002580: E7,1745  E7,1664               DELTAH             =        VN2        +6                         #  B(2)  DISPLAY
002581: E7,1745  E7,1666               FUNNYDSP           =        DELTAH     +2                         #  B(2)  DISPLAY
002582: E7,1745  E7,1670               EOURPERM           EQUALS   FUNNYDSP   +2                         #  NEXT AVAILABLE ERASABLE AFTER OURPERMS
002583:
002584:                                                                                                  #  (ERASABLES WHICH OVERLAY THE ABOVE BLOCK)
002585:
002586: E7,1745  E7,1644               VDGVERT            =        ELIDUMMY                              #  B(2)  P65,P66
002587: E7,1745  E7,1646               NIGNLOOP           =        ZERDUMMY                              #  B(1)  IGNALG
002588: E7,1745  E7,1647               NGUIDSUB           =        ELVDUMMY                              #  B(1)  IGNALG
002589: E7,1745  E7,1647               WCHVERT            =        ELVDUMMY                              #  B(1)  P65,P66,P67
002590: E7,1745  E7,1666               FUELNEED           =        FUNNYDSP                              #  B(1)  DISPLAY
002591: E7,1745  E7,1666               TREDES             =        FUNNYDSP                              #  B(1)  DISPLAY
002592: E7,1745  E7,1667               LOOKANGL           =        FUNNYDSP   +1                         #  B(1)  DISPLAY
002593:
002594:                                                                                                  #  ERASABLES CONVENIENTLY DEFINABLE IN THE WORK AREA
002595:
002596: E7,1745                        PROJ               =        18D                                   #  I(2)  GUIDANCE
002597: E7,1745                        UNLRB/2            =        20D                                   #  I(6)  GUIDANCE (DURING P64 ONLY)
002598: E7,1745                        UNLR/2             =        20D                                   #  I(6)  GUIDANCE
002599:
002600:                                                                                                  #  THE END OF THE LUNAR LANDING ERASABLES
002601:
002602:                                                                                                  #  R12 (FOR LUNAR LANDING)                       (6D)
002603:
002604: E7,1745  E7,1670               LRLCTR             EQUALS   EOURPERM                              #  B(1) LR DATA TEST
002605: E7,1745  E7,1671               LRRCTR             EQUALS   LRLCTR     +1                         #  B(1)
002606: E7,1745  E7,1672               LRMCTR             EQUALS   LRRCTR     +1                         #  B(1)
002607: E7,1745  E7,1673               LRSCTR             EQUALS   LRMCTR     +1                         #  B(1)
002608: E7,1745  E7,1674               STILBADH           EQUALS   LRSCTR     +1                         #  B(1)
002609: E7,1745  E7,1675               STILBADV           EQUALS   STILBADH   +1                         #  B(1)
002610:
002611:                                                                                                  #  LANDING ANALOGS DISPLAY STORAGE.              (40D)
002612:
002613: E7,1745  E7,1676               LATVMETR           EQUALS   STILBADV   +1                         #  B(1)PRM LATVEL MONITOR METER (AN ORDER)
002614: E7,1745  E7,1677               FORVMETR           EQUALS   LATVMETR   +1                         #  B(1)PRM FORVEL MONITOR METER (-ED PAIR)
002615: E7,1745  E7,1700               LATVEL             EQUALS   FORVMETR   +1                         #  B(1)PRM LATERAL VELOCITY (AN ORDER)
002616: E7,1745  E7,1701               FORVEL             EQUALS   LATVEL     +1                         #  B(1)PRM FORWARD VELOCITY (-ED PAIR)
002617: E7,1745  E7,1702               TRAKLATV           EQUALS   FORVEL     +1                         #  B(1)PRM MONITOR FLG 4 LATVEL (AN ORDER)
002618: E7,1745  E7,1703               TRAKFWDV           EQUALS   TRAKLATV   +1                         #  B(1)PRM MONIT. FLAG FOR FORVEL (ED PAIR)
002619: E7,1745  E7,1704               VHY                EQUALS   TRAKFWDV   +1                         #  B(1)PRM VHY=VMP.UHYP (AN ORDER)


002621: E7,1745  E7,1705               VHZ                EQUALS   VHY        +1                         #  B(1)PRM VHZ=VMP.UHZP (-ED PAIR)
002622: E7,1745  E7,1706               VVECT              EQUALS   VHZ        +1                         #  B(3)PRM UPDATED S.P. VELOCITY VECTOR
002623: E7,1745  E7,1711               ALTRATE            EQUALS   VVECT      +3                         #  B(1)PRM ALTITUDE RATE IN BIT UNITS
002624: E7,1745  E7,1712               ALTSAVE            EQUALS   ALTRATE    +1                         #  B(2)PRM ALTITUDE IN BIT UNITS
002625: E7,1745  E7,1714               LADQSAVE           EQUALS   ALTSAVE    +2                         #  B(1)PRM SAVE Q IN LANDISP
002626: E7,1745  E7,1715               DT                 EQUALS   LADQSAVE   +1                         #  B(1)PRM TIME 1 MINUS (PIPTIME +1)
002627: E7,1745  E7,1716               DALTRATE           EQUALS   DT         +1                         #  B(1)PRM ALTITUDE RATE ERROR CORRECTION
002628: E7,1745  E7,1717               UHYP               EQUALS   DALTRATE   +1                         #  B(6)PRM SM UNIT VECTOR
002629: E7,1745  E7,1717               QAXIS              =        UHYP
002630: E7,1745  E7,1725               UHZP               EQUALS   UHYP       +6                         #  B(6)PRM SM UNIT VECTOR
002631: E7,1745  E7,1733               DELVS              EQUALS   UHZP       +6                         #  B(6)PRM DELVS = WMXR
002632: E7,1745  E7,1741               ALTBITS            EQUALS   DELVS      +6                         #  B(2)PRM ALTITUDE IN BIT UNITS, 2.34 FT/BT
002633: E7,1745  E7,1743               RUNIT              EQUALS   ALTBITS    +2                         #  B(3)PRM SM HALF-UNIT R VECTOR
002634: E7,1745  E7,1745               LASTLADW           EQUALS   RUNIT      +2                         #  ONLY A TAG TO SIGNIFY LAST L.A.D. WORD
002635:
002636:                                                                                                  #  P66 ERASABLES (R.O.D.)                        (1D)
002637:
002638: E7,1745  E7,1746               RODCOUNT           EQUALS   RUNIT      +3
002639:
002640:                                                                                                  #  P66 ERASABLES (R.O.D.)                        (14D)
002641:
002642: E7,1745  E7,1756               RODSCAL1           EQUALS   RM                                    #  B(1)
002643: E7,1745  E7,1757               LASTTPIP           EQUALS   RODSCAL1   +1                         #  I(2)
002644: E7,1745  E7,1761               THISTPIP           EQUALS   LASTTPIP   +2                         #  B(2)
002645: E7,1745  E7,1763               OLDPIPAX           EQUALS   THISTPIP   +2                         #  B(1)
002646: E7,1745  E7,1764               OLDPIPAY           EQUALS   OLDPIPAX   +1                         #  B(1)
002647: E7,1745  E7,1765               OLDPIPAZ           EQUALS   OLDPIPAY   +1                         #  B(1)
002648: E7,1745  E7,1766               DELVROD            EQUALS   OLDPIPAZ   +1                         #  B(6)
002649:
002650:                                                                                                  #  NOUN 63 COMPONENT                             (2D)
002651:
002652: E7,1745  E7,1774               HCALC1             EQUALS   DELVROD    +6                         #  I(2)
002653:


002655:                                                                                                  #  ******* OVERLAY NUMBER 5 IN EBANK 7 *******
002656:
002657:                                                                                                  #  ASCENT GUIDANCE ERASABLES.                    (21D)
002658:
002659: E7,1745  E7,1630               RCO                EQUALS   END-ALIG                              #  I(2)TMP TARGET RADIUS AND OUT-OF-PLANE
002660: E7,1745  E7,1632               YCO                EQUALS   RCO        +2                         #  I(2)TMP DISTANCE, SCALED AT 2(24).
002661: E7,1745  E7,1634               1/DV1              EQUALS   YCO        +2                         #  B(2)TMP ATMAG
002662: E7,1745  E7,1636               1/DV2              EQUALS   1/DV1      +2                         #  B(2)TMP ATMAG
002663: E7,1745  E7,1640               1/DV3              EQUALS   1/DV2      +2                         #  B(2)TMP ATMAG
002664: E7,1745  E7,1642               XRANGE             EQUALS   1/DV3      +2                         #  B(2)TMP
002665: E7,1745  E7,1644               ENGOFFDT           EQUALS   XRANGE     +2                         #  B(1)TMP
002666: E7,1745  E7,1645               VGVECT             EQUALS   ENGOFFDT   +1                         #  I(6)OUT VELOCITY-TO-BE-GAINED
002667: E7,1745  E7,1653               TXO                EQUALS   VGVECT     +6                         #  I(2)TMP TIME AT WHICH X-AXIS OVERRIDE
002668:                                                                                                  #  IS ALLOWED.
002669:
002670:                                                                                                  #  END OF THE ASCENT GUIDANCE ERASABLES.
002671:
002672:                                                                                                  #  THE FOLLOWING CARDS KEEP THE ASSEMBLER HAPPY UNTIL THE SYMBOLS ARE DELETED FROM THE PINBALL NOUN TABLES.
002673:
002674: E7,1745  E7,1745               END-E7.0           EQUALS   IRETURN1   +1                         #  FIRST UNUSED LOCATION IN E7 OVERLAY 0
002675: E7,1745  E7,1747               END-E7.1           EQUALS   N49FLAG    +1                         #  FIRST UNUSED LOCATION IN E7 OVERLAY 1
002676: E7,1745     4000               END-E7.2           EQUALS   POINTVSM   +6                         #  FIRST UNUSED LOCATION IN E7 OVERLAY 2
002677: E7,1745  E7,1630               END-E7.3           EQUALS   END-ALIG                              #  FIRST UNUSED LOCATION IN E7 OVERLAY 3
002678: E7,1745                        END-E7.4           EQUALS   3777                                  #  ** LAST LOCATION USED IN E7 OVERLAY 4 **
002679: E7,1745  E7,1655               END-E7.5           EQUALS   TXO        +2                         #  FIRST UNUSED LOCATION IN E7 OVERLAY 5
002680: E7,1745                        END-E7             EQUALS   3777                                  #  ** LAST LOCATION USED IN E7 **
002681:

End of include-file ERASABLE_ASSIGNMENTS.agc.  Parent file is MAIN.agc


