
Source Code


000002:                                                                                                  ## Copyright:   Public domain.
000003:                                                                                                  ## Filename:    FLAGWORD_ASSIGNMENTS.agc
000004:                                                                                                  ## Purpose:     A section of the reconstructed source code for Luminary 130.
000005:                                                                                                  ##              This was the original program released for the Apollo 13 LM,
000006:                                                                                                  ##              although several more revisions would follow. It has been
000007:                                                                                                  ##              reconstructed from a listing of Luminary 131, from which it
000008:                                                                                                  ##              differs on only two lines in P70-P71. The difference is
000009:                                                                                                  ##              described in detail in Luminary memo #129, which was used
000010:                                                                                                  ##              to perform the reconstruction. This file is intended to be a
000011:                                                                                                  ##              faithful reconstruction, except that the code format has been
000012:                                                                                                  ##              changed to conform to the requirements of the yaYUL assembler
000013:                                                                                                  ##              rather than the original YUL assembler.
000014:                                                                                                  ## Reference:   pp. 61-88
000015:                                                                                                  ## Contact:     Ron Burkey <info@sandroid.org>.
000016:                                                                                                  ## Website:     www.ibiblio.org/apollo/index.html
000017:                                                                                                  ## Mod history: 04/23/03 RSB.   Began.
000018:                                                                                                  ##              05/14/05 RSB    Corrected website reference above.
000019:                                                                                                  ##              05/17/09 RSB    Backported some Luminary 099 fixes pointed
000020:                                                                                                  ##                              out by Onno Hommes.
000021:                                                                                                  ##              2017-01-06 RSB  Page numbers now agree with those on the
000022:                                                                                                  ##                              original hardcopy, as opposed to the PDF page
000023:                                                                                                  ##                              numbers in 1701.pdf.
000024:                                                                                                  ##              2017-02-12 RSB  Proofed comment text using octopus/ProoferComments.
000025:                                                                                                  ##              2017-02-28 RSB  Fixed lingering typos.
000026:                                                                                                  ##              2017-03-02 RSB  Fixed comment-text bugs found whilst proofing
000027:                                                                                                  ##                              Luminary 116.  Also, P00HFLAG --> POOHFLAG, and
000028:                                                                                                  ##                              P00HBIT --> POOHBIT.
000029:                                                                                                  ##              2017-08-14 MAS  Fixed typos found while transcribing Zerlina 56.
000030:                                                                                                  ##              2018-09-04 MAS  Copied from Luminary 131 for Luminary 130.
000031:                                                                                                  ##              2021-05-30 ABS  Added empty page 89 fpr SUBRO output.
000032:


000034:                                                                                                  #  FLAGWORDS 0-11        ARE DOWNLINKED AND CAN BE SET AND CLEARED BY UP-FLAG AND DOWN-FLAG INSTRUCTIONS IN THE
000035:                                                                                                  #                        INTERPRETER.  THESE WERE PREVIOUSLY LISTED UNDER "INTERPRETIVE SWITCH BIT ASSIGNMENTS" IN
000036:                                                                                                  #                        THE ERASABLE LOG SECTION.  FLAGWORDS 12 & 13 WEREPREVIOUSLY RADMODES AND DAPBOOLS AND
000037:                                                                                                  #                        ARE STILL DOWNLINKED UNDER THOSE NAMES.
000038:
000039:                                                                                                  #  ALPHABETICAL LIST OF FLAGWORDS
000040:
000041:                                                                                                  #  9             25              41                      61      COLUMN NO.
000042:                                                                                                  #  FLAGWORD      DEC. NUMBER     BIT AND FLAG            BIT NAME
000043:
000044:                                                                                                  #  ABTTGFLG      143             BIT 7 FLAG 9            ABTTGBIT
000045:                                                                                                  #  ACCOKFLG      207             BIT 3  FLAG 13          ACCSOKAY
000046:                                                                                                  #  ACC4-2FL      199             BIT 11 FLAG 13          ACC4OR2X
000047:                                                                                                  #  ACMODFLG      032             BIT 13 FLAG 2           ACMODBIT
000048:                                                                                                  #  ALTSCALE      186             BIT 9  FLAG 12          ALTSCBIT
000049:                                                                                                  #  ANTENFLG      183             BIT 12 FLAG 12          ANTENBIT
000050:                                                                                                  #  AORBSFLG      085             BIT 5 FLAG 5            AORBSYST
000051:                                                                                                  #  AORBTFLG      200             BIT 10 FLAG 13          AORBTRAN
000052:
000053:                                                                                                  #  APSESW        130             BIT 5  FLAG 8           APSESBIT
000054:                                                                                                  #  APSFLAG       152             BIT 13 FLAG 10          APSFLBIT
000055:                                                                                                  #  ASTNFLAG      108             BIT 12 FLAG 7           ASTNBIT
000056:                                                                                                  #  ATTFLAG       104             BIT 1  FLAG 6           ATTFLBIT
000057:                                                                                                  #  AUTOMODE      193             BIT 2  FLAG 12          AUTOMBIT
000058:                                                                                                  #  AUTR1FLG      209             BIT 1  FLAG 13          AUTRATE1
000059:                                                                                                  #  AUTR2FLG      208             BIT 2  FLAG 13          AUTRATE2
000060:                                                                                                  #  AUXFLAG       103             BIT 2  FLAG 6           AUXFLBIT
000061:                                                                                                  #  AVEGFLAG      115             BIT 5  FLAG 7           AVEGFBIT
000062:                                                                                                  #  AVEMIDSW      149             BIT 1  FLAG 9           AVEMDBIT
000063:                                                                                                  #  AVFLAG        040             BIT 5  FLAG 2           AVFLBIT
000064:                                                                                                  #  CALCMAN2      043             BIT 2  FLAG 2           CALC2BIT
000065:                                                                                                  #  CALCMAN3      042             BIT 3  FLAG 2           CALC3BIT
000066:
000067:                                                                                                  #  CDESFLAG      180             BIT 15 FLAG 12          CDESBIT
000068:                                                                                                  #  CMOONFLG      123             BIT 12 FLAG 8           CMOONBIT
000069:                                                                                                  #  COGAFLAG      131             BIT 4  FLAG 8           COGAFBIT
000070:                                                                                                  #  CSMDKFLG      197             BIT 13 FLAG 13          CSMDOCKD
000071:                                                                                                  #  CULTFLAG      053             BIT 7  FLAG 3           CULTBIT
000072:                                                                                                  #  DAPBOOLS                      FLGWRD13
000073:                                                                                                  #  DBSELFLG      206             BIT 4  FLAG 13          DBSELECT
000074:                                                                                                  #  DBSL2FLG      205             BIT 5 FLAG 13           DBSLECT2
000075:                                                                                                  #  DESIGFLG      185             BIT 10 FLAG 12          DESIGBIT
000076:                                                                                                  #  DIDFLAG       016             BIT 14 FLAG             DIDFLBIT
000077:                                                                                                  #  DIMOFLAG      059             BIT 1  FLAG 3           DIMOBIT
000078:                                                                                                  #  DMENFLG       081             BIT 9  FLAG 5           DMENFBIT


000080:                                                                                                  #  DRIFTDFL      202             BIT 8 FLAG 13           DRIFTBIT
000081:                                                                                                  #  DRIFTFLG      030             BIT 15 FLAG 2           DRFTBIT
000082:                                                                                                  #  DSKYFLAG      075             BIT 15 FLAG 5           DSKYFBIT
000083:                                                                                                  #  D6OR9FLG      058             BIT 2 FLAG 3            D6OR9BIT
000084:                                                                                                  #  ENGONFLG      083             BIT 7 FLAG 5            ENGONBIT
000085:                                                                                                  #  ERADFLAG      017             BIT 13 FLAG 1           ERADFBIT
000086:                                                                                                  #  ETPIFLAG      038             BIT 7 FLAG 2            ETPIBIT
000087:                                                                                                  #  FINALFLG      039             BIT 6 FLAG 2            FINALBIT
000088:                                                                                                  #  FLAGWRD0      (000-014)       (STATE +0)
000089:                                                                                                  #  FLAGWRD1      (015-029)       (STATE +1)
000090:                                                                                                  #  FLAGWRD2      (030-044)       (STATE +2)
000091:                                                                                                  #  FLAGWRD3      (045-059)       (STATE +3)
000092:                                                                                                  #  FLAGWRD4      (060-074)       (STATE +4)
000093:                                                                                                  #  FLAGWRD5      (075-089)       (STATE +5)
000094:                                                                                                  #  FLAGWRD6      (090-104)       (STATE +6)
000095:                                                                                                  #  FLAGWRD7      (105-119)       (STATE +7)
000096:                                                                                                  #  FLAGWRD8      (120-134)       (STATE +8D)
000097:                                                                                                  #  FLAGWRD9      (135-149)       (STATE +9D)
000098:                                                                                                  #  FLAP          142             BIT 8 FLAG 9            FLAPBIT
000099:                                                                                                  #  FLGWRD10      (150-164)       (STATE +10D)
000100:                                                                                                  #  FLGWRD11      (165-179)       (STATE +11D)
000101:                                                                                                  #  FLGWRD12      (180-194)       (STATE +12D)
000102:                                                                                                  #  FLGWRD13      (195-209)       (STATE +13D)
000103:                                                                                                  #  FLPC          138             BIT 12 FLAG 9           FLPCBIT
000104:                                                                                                  #  FLPI          139             BIT 11 FLAG 9           FLPIBIT
000105:                                                                                                  #  FLRCS         149             BIT 10 FLAG 9           FLRCSBIT
000106:                                                                                                  #  FLUNDISP      125             BIT 10 FLAG 8           FLUNDBIT
000107:                                                                                                  #  FLVR          136             BIT 14 FLAG 9           FLVRBIT
000108:                                                                                                  #  FREEFLAG      012             BIT 3 FLAG 0            FREEFBIT
000109:                                                                                                  #  FSPASFLG      005             BIT 10 FLAG 0           FSPASBIT
000110:                                                                                                  #  GLOKFAIL      046             BIT 14 FLAG 3           GLOKFBIT
000111:                                                                                                  #  GMBDRVSW      095             BIT 10 FLAG 6           GMBDRBIT
000112:                                                                                                  #  GUESSW        028             BIT 2 FLAG 1            GUESSBIT
000113:                                                                                                  #  HFLSHFLG      179             BIT 1 FLAG 11           HFLSHBIT
000114:                                                                                                  #  IDLEFLAG      113             BIT 7 FLAG 7            IDLEFBIT
000115:                                                                                                  #  IGNFLAG       107             BIT 13 FLAG 7           IGNFLBIT
000116:                                                                                                  #  IMPULSW       036             BIT 9 FLAG 2            IMPULBIT
000117:                                                                                                  #  IMUSE         007             BIT 8 FLAG 0            IMUSEBIT
000118:                                                                                                  #  INFINFLG      128             BIT 7 FLAG 8            INFINBIT
000119:                                                                                                  #  INITALGN      133             BIT 2 FLAG 8            INITABIT
000120:                                                                                                  #  INTFLAG       151             BIT 14 FLAG 10          INTFLBIT
000121:                                                                                                  #  INTYPFLG      056             BIT 4 FLAG 3            INTYPBIT
000122:                                                                                                  #  ITSWICH       105             BIT 15 FLAG 7           ITSWBIT
000123:                                                                                                  #  JSWITCH       001             BIT 14 FLAG 0           JSWCHBIT
000124:
000125:                                                                                                  #  LETABORT      141             BIT 9  FLAG 9           LETABBIT
000126:                                                                                                  #  LMOONFLG      124             BIT 11 FLAG 8           LMOONBIT
000127:                                                                                                  #  LOKONSW       010             BIT 5  FLAG 0           LOKONBIT
000128:                                                                                                  #  LOSCMFLG      033             BIT 12 FLAG 2           LOSCMBIT
000129:                                                                                                  #  LPOS2FLG      174             BIT 6 FLAG 11           LPOS2BIT
000130:                                                                                                  #  LRALTFLG      190             BIT 5  FLAG 12          LRALTBIT


000132:                                                                                                  #  LRBYPASS      165             BIT 15 FLAG 11          LRBYBIT
000133:                                                                                                  #  LRINH         172             BIT 8 FLAG 11           LRINHBIT
000134:                                                                                                  #  LRPOSFLG      189             BIT 6 FLAG 12           LRPOSBIT
000135:                                                                                                  #  LRVELFLG      187             BIT 8 FLAG 12           LRVELBIT
000136:                                                                                                  #  LUNAFLAG      048             BIT 12 FLAG 3           LUNABIT
000137:                                                                                                  #  MANUFLAG      106             BIT 14 FLAG 7           MANUFBIT
000138:                                                                                                  #  MGLVFLAG      088             BIT 2 FLAG 5            MGLVFBIT
000139:                                                                                                  #  MIDAVFLG      148             BIT 2 FLAG 9            MIDAVBIT
000140:                                                                                                  #  MIDFLAG       002             BIT 13 FLAG 0           MIDFLBIT
000141:                                                                                                  #  MID1FLAG      147             BIT 3 FLAG 9            MID1BIT
000142:                                                                                                  #  MKOVFLAG      072             BIT 3 FLAG 4            MKOVBIT
000143:                                                                                                  #  MOONFLAG      003             BIT 12 FLAG 0           MOONBIT
000144:                                                                                                  #  MRKIDFLG      060             BIT 15 FLAG 4           MRKIDBIT
000145:                                                                                                  #  MRKNVFLG      066             BIT 9 FLAG 4            MRKNVBIT
000146:                                                                                                  #  MRUPTFLG      070             BIT 5 FLAG 4            MRUPTBIT
000147:                                                                                                  #  MUNFLAG       097             BIT 8 FLAG 6            MUNFLBIT
000148:                                                                                                  #  MWAITFLG      064             BIT 11 FLAG 4           MWAITBIT
000149:                                                                                                  #  NEEDLFLG      011             BIT 4 FLAG 0            NEEDLBIT
000150:                                                                                                  #  NEED2FLG      000             BIT 15 FLAG 0           NEED2BIT
000151:                                                                                                  #  NEWIFLG       122             BIT 13 FLAG 8           NEWIBIT
000152:                                                                                                  #  NJETSFLG      015             BIT 15 FLAG             NJETSBIT
000153:                                                                                                  #  NODOFLAG      044             BIT 1 FLAG 2            NODOBIT
000154:                                                                                                  #  NOLRREAD      170             BIT 10 FLAG 11          NOLRRBIT
000155:                                                                                                  #  NORMSW        110             BIT 10 FLAG 7           NORMSBIT
000156:                                                                                                  #  NORRMON       086             BIT 4 FLAG 5            NORRMBIT
000157:                                                                                                  #  NOR29FLG      049             BIT 11 FLAG 3           NR29FBIT
000158:                                                                                                  #  NOTHROTL      078             BIT 12 FLAG 5           NOTHRBIT
000159:                                                                                                  #  NOUPFLAG      024             BIT 6 FLAG 1            NOUPFBIT
000160:                                                                                                  #  NO511FLG      177             BIT 3 FLAG 11           NO511BIT
000161:                                                                                                  #  NRMNVFLG      067             BIT 8 FLAG 4            NRMNVBIT
000162:                                                                                                  #  NRMIDFLG      062             BIT 13 FLAG 4           NRMIDBIT
000163:                                                                                                  #  NRUPTFLG      071             BIT 4 FLAG 4            NRUPTBIT
000164:                                                                                                  #  NTARGFLG      102             BIT 3 FLAG 6            NTARGBIT
000165:                                                                                                  #  NWAITFLG      065             BIT 10 FLAG 4           NWAITBIT
000166:                                                                                                  #  OLDESFLG      014             BIT 1 FLAG 0            OLDESBIT
000167:                                                                                                  #  ORBWFLAG      054             BIT 6 FLAG 3            ORBWFBIT
000168:                                                                                                  #  ORDERSW       129             BIT 6 FLAG 8            ORDERBIT
000169:                                                                                                  #  OURRCFLG      198             BIT 12 FLAG 13          OURRCBIT
000170:                                                                                                  #  PDSPFLAG      063             BIT 12 FLAG 4           PDSPFBIT
000171:                                                                                                  #  PFRATFLG      041             BIT 4 FLAG 2            PFRATBIT
000172:                                                                                                  #  PINBRFLG      069             BIT 6 FLAG 4            PINBRBIT
000173:                                                                                                  #  POOHFLAG      045             BIT 15 FLAG 3           POOHBIT
000174:                                                                                                  #  PRECIFLG      052             BIT 8 FLAG 3            PRECIBIT
000175:                                                                                                  #  PRIODFLG      061             BIT 14 FLAG 1           PRIODBIT
000176:                                                                                                  #  PRONVFLG      068             BIT 7 FLAG 4            PRONVBIT
000177:                                                                                                  #  PSTHIGAT      169             BIT 11 FLAG 11          PSTHIBIT
000178:                                                                                                  #  PULSEFLG      195             BIT 15 FLAG 13          PULSES
000179:                                                                                                  #  P21FLAG       004             BIT 11 FLAG 0           P21FLBIT
000180:                                                                                                  #  P25FLAG       006             BIT 9 FLAG 0            P25FLBIT
000181:                                                                                                  #  P7071FLG      137             BIT 13 FLAG 9           P7071BIT


000183:                                                                                                  #  QUITFLAG      145             BIT 5 FLAG 9            QUITBIT
000184:                                                                                                  #  RADMODES                      FLGWRD12
000185:                                                                                                  #  RASFLAG                       FLGWRD10
000186:                                                                                                  #  RCDUFAIL      188             BIT 7 FLAG 12           RCDUFBIT
000187:                                                                                                  #  RCDU0FLG      182             BIT 13 FLAG 12          RCDU0BIT
000188:                                                                                                  #  READRFLG      051             BIT 9 FLAG 3            READRBIT        EQUIVALENT FLAG NAME:  R04FLAG
000189:                                                                                                  #  READVEL       175             BIT 5 FLAG 11           READVBIT
000190:                                                                                                  #  REDFLAG       099             BIT 6 FLAG 6            REDFLBIT
000191:                                                                                                  #  REFSMFLG      047             BIT 13 FLAG 3           REFSMBIT
000192:                                                                                                  #  REINTFLG      158             BIT 7 FLAG 10           REINTBIT
000193:                                                                                                  #  REMODFLG      181             BIT 14 FLAG 12          REMODBIT
000194:                                                                                                  #  RENDWFLG      089             BIT 1 FLAG 5            RENDWBIT
000195:                                                                                                  #  REPOSMON      184             BIT 11 FLAG 12          REPOSBIT
000196:                                                                                                  #  RHCSCFLG      203             BIT 7 FLAG 13           RHCSCALE
000197:                                                                                                  #  RNDVZFLG      008             BIT 7 FLAG 0            RNDVZBIT
000198:                                                                                                  #  RNGEDATA      176             BIT 4 FLAG 11           RNGEDBIT
000199:                                                                                                  #  RNGSCFLG      080             BIT 10 FLAG 5           RNGSCBIT
000200:                                                                                                  #  RODFLAG       018             BIT 12 FLAG 1           RODFLBIT
000201:                                                                                                  #  ROTFLAG       144             BIT 6 FLAG 9            ROTFLBIT
000202:                                                                                                  #  RPQFLAG       120             BIT 15 FLAG 8           RPQFLBIT
000203:                                                                                                  #  RRDATAFL      191             BIT 4 FLAG 12           RRDATABT
000204:                                                                                                  #  RRNBSW        009             BIT 6 FLAG 0            RRNBBIT
000205:                                                                                                  #  RRRSFLAG      192             BIT 3 FLAG 12           RRRSBIT
000206:                                                                                                  #  RVSW          111             BIT 9 FLAG 7            RVSWBIT
000207:                                                                                                  #  R04FLAG       051             BIT 9 FLAG 3            R04FLBIT        EQUIVALENT FLAG NAME:  READRFLG
000208:                                                                                                  #  R10FLAG       013             BIT 2 FLAG 0            R10FLBIT
000209:                                                                                                  #  R61FLAG       020             BIT 10 FLAG 1           R61FLBIT
000210:                                                                                                  #  R77FLAG       079             BIT 11 FLAG 5           R77FLBIT
000211:                                                                                                  #  SLOPESW       027             BIT 3 FLAG 1            SLOPEBIT
000212:                                                                                                  #  SNUFFER       077             BIT 13 FLAG 5           SNUFFBIT
000213:                                                                                                  #  SOLNSW        087             BIT 3 FLAG 5            SOLNSBIT
000214:                                                                                                  #  SRCHOPTN      031             BIT 14 FLAG 2           SRCHOBIT
000215:                                                                                                  #  STATEFLG      055             BIT 5 FLAG 3            STATEBIT
000216:                                                                                                  #  STEERSW       034             BIT 11 FLAG 2           STEERBIT
000217:                                                                                                  #  SURFFLAG      127             BIT 8 FLAG 8            SURFFBIT
000218:                                                                                                  #  SWANDISP      109             BIT 11 FLAG 7           SWANDBIT
000219:                                                                                                  #  S32.1F1       090             BIT 15 FLAG 6           S32BIT1
000220:                                                                                                  #  S32.1F2       092             BIT 14 FLAG 6           S32BIT2
000221:                                                                                                  #  S32.1F3A      092             BIT 13 FLAG 6           S32BIT3A
000222:                                                                                                  #  S32.1S3B      093             BIT 12 FLAG 6           S32BIT3B
000223:                                                                                                  #  TFFSW         119             BIT 1 FLAG 7            TFFSWBIT
000224:                                                                                                  #  TRACKFLG      025             BIT 5 FLAG 1            TRACKBIT
000225:                                                                                                  #  TURNONFL      194             BIT 1 FLAG 12           TURNONBT
000226:                                                                                                  #  ULLAGFLG      204             BIT 6 FLAG 13           ULLAGER
000227:                                                                                                  #  UPDATFLG      023             BIT 7 FLAG 1            UPDATBIT
000228:                                                                                                  #  UPLOCKFL      116             BIT 4 FLAG 7            UPLOCBIT
000229:                                                                                                  #  USEQRFLG      196             BIT 14 FLAG 13          USEQRJTS
000230:                                                                                                  #  VEHUPFLG      022             BIT 8 FLAG 1            VEHUPBIT
000231:                                                                                                  #  VELDATA       173             BIT 7 FLAG 11           VELDABIT
000232:                                                                                                  #  VERIFLAG      117             BIT 3 FLAG 7            VERIFBIT


000234:                                                                                                  #  VFLAG         050             BIT 10 FLAG 3           VFLAGBIT
000235:                                                                                                  #  VFLSHFLG      178             BIT 2 FLAG 11           VFLSHBIT
000236:                                                                                                  #  VINTFLAG      057             BIT 3 FLAG 3            VINTFBIT
000237:                                                                                                  #  VXINH         168             BIT 12 FLAG 11          VXINHBIT
000238:                                                                                                  #  V37FLAG       114             BIT 6 FLAG 7            V37FLBIT
000239:                                                                                                  #  V67FLAG       112             BIT 8 FLAG 7            V67FLBIT
000240:                                                                                                  #  V82EMFLG      118             BIT 2 FLAG 7            V82EMBIT
000241:                                                                                                  #  XDELVFLG      037             BIT 8 FLAG 2            XDELVBIT
000242:                                                                                                  #  XDSPFLAG      074             BIT 1 FLAG 4            XDSPBIT
000243:                                                                                                  #  XORFLG        171             BIT 9 FLAG 11           XORFLBIT
000244:                                                                                                  #  XOVINFLG      201             BIT 9 FLAG 13           XOVINHIB
000245:                                                                                                  #  ZOOMFLAG      082             BIT 8 FLAG 5            ZOOMBIT
000246:                                                                                                  #  3AXISFLG      084             BIT 6 FLAG 5            3AXISBIT
000247:                                                                                                  #  360SW         134             BIT 1 FLAG 8            360SWBIT
000248:
000249:                                                                                                  #  ASSIGNMENT AND DESCRIPTION OF FLAGWORDS
000250:
000251: 26,2022     0074               FLAGWRD0           =        STATE      +0                         #  (000-014)
000252:
000253:                                                                                                  #        (SET)                   (RESET)
000254:
000255:                                                                                                  #  BIT 15 FLAG 0 (S)
000256: 26,2022                        NEED2FLG           =        000D                                  #        DISPLAY DAP RATES       CHECK BIT 4 OF THIS
000257: 26,2022     4735               NEED2BIT           =        BIT15                                 #        ON FDAI NEEDLES.        WORD FOR DISPLAY
000258:                                                                                                  #                                MODES (1 OR 2).
000259:
000260:                                                                                                  #  BIT 14 FLAG 0 (S)
000261: 26,2022                        JSWITCH            =        001D                                  #        INTEGRATION OF W        INTEGRATION OF STATE
000262: 26,2022     4736               JSWCHBIT           =        BIT14                                 #        MATRIX                  VECTOR
000263:
000264:                                                                                                  #  BIT 13 FLAG 0 (S)
000265: 26,2022                        MIDFLAG            =        002D                                  #        INTEGRATION WITH        INTEGRATION WITHOUT
000266:                                                                                                  #        SECONDARY BODY AND      SOLAR PERTURBATIONS
000267: 26,2022     4737               MIDFLBIT           =        BIT13                                 #        SOLAR PERTURBATIONS
000268:
000269:                                                                                                  #  BIT 12 FLAG 0 (L)
000270: 26,2022                        MOONFLAG           =        003D                                  #        MOON IS SPHERE OF       EARTH IS SPHERE OF
000271: 26,2022     4740               MOONBIT            =        BIT12                                 #        INFLUENCE               INFLUENCE
000272:
000273:                                                                                                  #  BIT 11 FLAG 0
000274: 26,2022                        P21FLAG            =        004D                                  #        USE BASE VECTORS        1ST PASS -- CALC-
000275: 26,2022     4741               P21FLBIT           =        BIT11                                 #        ALREADY CALCULATED      ULATE BASE VECTORS
000276:


000278:                                                                                                  #  BIT 10 FLAG 0
000279: 26,2022                        FSPASFLG           =        005D                                  #        FIRST PASS THROUGH      NOT FIRST PASS THRU
000280: 26,2022     4742               FSPASBIT           =        BIT10                                 #        REPOSITION ROUTINE      REPOSITION ROUTINE
000281:
000282:                                                                                                  #  BIT 9 FLAG 0  (S)
000283: 26,2022                        P25FLAG            =        006D                                  #        P25 OPERATING           P25 NOT OPERATING
000284: 26,2022     4743               P25FLBIT           =        BIT9
000285:
000286:                                                                                                  #  BIT 8 FLAG 0  (S)
000287: 26,2022                        IMUSE              =        007D                                  #        IMU IN USE              IMU NOT IN USE
000288: 26,2022     4744               IMUSEBIT           =        BIT8
000289:
000290:                                                                                                  #  BIT 7 FLAG 0  (S)
000291: 26,2022                        RNDVZFLG           =        008D                                  #        P20 RUNNING (RADAR      P20 NOT RUNNING
000292: 26,2022     4745               RNDVZBIT           =        BIT7                                  #        IN USE)
000293:
000294:                                                                                                  #  BIT 6 FLAG 0  (S)
000295: 26,2022                        RRNBSW             =        009D                                  #        RADAR TARGET IN RADAR TARGET IN
000296: 26,2022     4746               RRNBBIT            =        BIT6                                  #        NB COORDINATES  SM COORDINATES
000297:
000298:                                                                                                  #  BIT 5 FLAG 0  (S)
000299: 26,2022                        LOKONSW            =        010D                                  #        RADAR LOCK-ON           RADAR LOCK-ON NOT
000300: 26,2022     4747               LOKONBIT           =        BIT5                                  #        DESIRED                 DESIRED
000301:
000302:                                                                                                  #  BIT 4 FLAG 0  (S)
000303: 26,2022                        NEEDLFLG           =        011D                                  #        TOTAL ATTITUDE  A/P FOLLOWING
000304: 26,2022     4750               NEEDLBIT           =        BIT4                                  #        ERROR DISPLAYED ERROR DISPLAYED
000305:
000306:                                                                                                  #  BIT 3 FLAG 0
000307: 26,2022                        FREEFLAG           =        012D                                  #  (USED BY P51-53 TEMP IN MANY DIFFERENT
000308:                                                                                                  #  ROUTINES & BY LUNAR + SOLAR EPHEMERIDES)
000309: 26,2022     4751               FREEFBIT           =        BIT3
000310:
000311:                                                                                                  #  BIT 2 FLAG 0
000312: 26,2022                        R10FLAG            =        013D                                  #        R10 OUTPUTS DATA TO     BESIDES OUTPUT WHEN
000313: 26,2022     4752               R10FLBIT           =        BIT2                                  #        ALTITUDE & ALTITUDE     SET, R10 ALSO OUTPUT
000314:                                                                                                  #        RATE METERS ONLY        TO FORWARD & LATERAL
000315:                                                                                                  #                                VELOCITY CROSSPOINTR
000316:
000317:                                                                                                  #  BIT 1 FLAG 0  (L)
000318: 26,2022                        OLDESFLG           =        014D                                  #        R29 GYRO CMD LOOP       R29 GYRO CMD LOOP


000320: 26,2022     4753               OLDESBIT           =        BIT1                                  #        REQUESTED               NOT REQUESTED
000321:
000322: 26,2022     0075               FLAGWRD1           =        STATE      +1                         #  (015-029)
000323:
000324:                                                                                                  #        (SET)                   (RESET)
000325:
000326:                                                                                                  #  BIT 15 FLAG 1 (S)
000327: 26,2022                        NJETSFLG           =        015D                                  #        TWO JET RCS BURN        FOUR JET RCS BURN
000328: 26,2022     4735               NJETSBIT           =        BIT15
000329:
000330:                                                                                                  #  BIT 14 FLAG 1 (L)
000331: 26,2022                        DIDFLAG            =        016D                                  #        INERTIAL DATA IS        PERFORM DATA DISPLAY
000332: 26,2022     4736               DIDFLBIT           =        BIT14                                 #        AVAILABLE               INITIALIZATION FUNCS
000333:
000334:                                                                                                  #  BIT 13 FLAG 1 (S)
000335: 26,2022                        ERADFLAG           =        017D                                  #        COMPUTE REARTH          USE CONSTANT REARTH
000336: 26,2022     4737               ERADFBIT           =        BIT13                                 #        FISCHER ELLIPSOID       PAD RADIUS
000337:
000338:                                                                                                  #  BIT 12 FLAG 1
000339: 26,2022                        RODFLAG            =        018D                                  #        IF IN P66, NORMAL       IF IN P66, RE-INIT-
000340: 26,2022     4740               RODFLBIT           =        BIT12                                 #        OPERATION CONTINUES.    IALIZATION IS PER-
000341:                                                                                                  #        RESTART CLEARS FLAG     FORMED AND FLAG IS
000342:
000343:                                                                                                  #  BIT 11 FLAG 1
000344:                                                                                                  #                =       019D
000345:                                                                                                  #                =       BIT11
000346:
000347:                                                                                                  #  BIT 10 FLAG 1 (L)
000348: 26,2022                        R61FLAG            =        020D                                  #        RUN R61 LEM             RUN R65 LEM
000349: 26,2022     4742               R61FLBIT           =        BIT10
000350:
000351:                                                                                                  #  BIT 9 FLAG 1
000352:                                                                                                  #                =       021D
000353:                                                                                                  #                =       BIT9
000354:
000355:                                                                                                  #  BIT 8 FLAG 1  (S)
000356: 26,2022                        VEHUPFLG           =        022D                                  #        CSM STATE VECTOR        LEM STATE VECTOR
000357: 26,2022     4744               VEHUPBIT           =        BIT8                                  #        BEING UPDATED           BEING UPDATED
000358:
000359:                                                                                                  #  BIT 7 FLAG 1  (S)
000360: 26,2022                        UPDATFLG           =        023D                                  #        UPDATING BY MARKS       UPDATING BY MARKS
000361: 26,2022     4745               UPDATBIT           =        BIT7                                  #        ALLOWED                 NOT ALLOWED
000362:


000364:                                                                                                  #  BIT 6 FLAG 1  (S)
000365: 26,2022                        NOUPFLAG           =        024D                                  #        NEITHER CSM             EITHER STATE
000366:                                                                                                  #        NOR LM STATE VECTOR     VECTOR MAY BE
000367: 26,2022     4746               NOUPFBIT           =        BIT6                                  #        MAY BE UPDATED          UPDATED
000368:
000369:                                                                                                  #  BIT 5 FLAG 1  (S)
000370: 26,2022                        TRACKFLG           =        025D                                  #        TRACKING ALLOWED        TRACKING NOT ALLOWED
000371: 26,2022     4747               TRACKBIT           =        BIT5
000372:
000373:                                                                                                  #  BIT 4 FLAG 1
000374:                                                                                                  #                =       026D
000375:                                                                                                  #                =       BIT4
000376:
000377:                                                                                                  #  BIT 3 FLAG 1  (S)
000378: 26,2022                        SLOPESW            =        027D                                  #        ITERATE WITH BIAS       ITERATE WITH REGULAR
000379:                                                                                                  #        METHOD IN ITERATOR      FALSI METHOD IN
000380: 26,2022     4751               SLOPEBIT           =        BIT3                                  #                                ITERATOR
000381:
000382:                                                                                                  #  BIT 2 FLAG 1  (S)
000383: 26,2022                        GUESSW             =        028D                                  #        NO STARTING VALUE       STARTING VALUE FOR
000384: 26,2022     4752               GUESSBIT           =        BIT2                                  #        FOR ITERATION           ITERATION EXISTS
000385:
000386:                                                                                                  #  BIT 1 FLAG 1
000387:                                                                                                  #                =       029D
000388:
000389: 26,2022     0076               FLAGWRD2           =        STATE      +2                         #  (030-044)
000390:
000391:                                                                                                  #        (SET)                   (RESET)
000392:
000393:                                                                                                  #  BIT 15 FLAG 2 (S)
000394: 26,2022                        DRIFTFLG           =        030D                                  #        T3RUPT CALLS GYRO       T3RUPT DOES NO GYRO
000395: 26,2022     4735               DRFTBIT            =        BIT15                                 #        COMPENSATION            COMPENSATION
000396:
000397:                                                                                                  #  BIT 14 FLAG 2 (S)
000398: 26,2022                        SRCHOPTN           =        031D                                  #        RADAR IN AUTOMATIC      RADAR NOT IN AUTO-
000399: 26,2022     4736               SRCHOBIT           =        BIT14                                 #        SEARCH OPTION (R24)     MATIC SEARCH OPTION
000400:
000401:                                                                                                  #  BIT 13 FLAG 2 (S)
000402: 26,2022                        ACMODFLG           =        032D                                  #        MANUAL ACQUISITION      AUTO ACQUISITION
000403: 26,2022     4737               ACMODBIT           =        BIT13                                 #        BY RENDESVOUS RADAR     BY RENDESVOUS RADAR
000404:


000406:                                                                                                  #  BIT 12 FLAG 2 (S)
000407: 26,2022                        LOSCMFLG           =        033D                                  #        LINE OF SIGHT BEING     LINE OF SIGHT NOT
000408:                                                                                                  #        COMPUTED (R21)          BEING COMPUTED
000409: 26,2022     4740               LOSCMBIT           =        BIT12
000410:                                                                                                  #        IN R29 (L): RR GYRO     IN R29 (L): RR GYRO
000411:                                                                                                  #        CMD LOOP RUNNING        CMD LOOP OFF
000412:
000413:                                                                                                  #  BIT 11 FLAG 2 (S)
000414: 26,2022                        STEERSW            =        034D                                  #        SUFFICIENT THRUST       INSUFFICIENT THRUST
000415: 26,2022     4741               STEERBIT           =        BIT11                                 #        IS PRESENT              IS PRESENT
000416:
000417:                                                                                                  #  BIT 10 FLAG 2 (S)
000418: 26,2022                                           =        035D
000419: 26,2022                                           =        BIT10
000420:
000421:                                                                                                  #  BIT 9 FLAG 2 (S)
000422: 26,2022                        IMPULSW            =        036D                                  #        MINIMUM IMPULSE         STEERING BURN (NO
000423:                                                                                                  #        BURN (CUTOFF TIME       CUTOFF TIME YET
000424: 26,2022     4743               IMPULBIT           =        BIT9                                  #        SPECIFIED)              AVAILABLE)
000425:
000426:                                                                                                  #  BIT 8 FLAG 2 (S)
000427: 26,2022                        XDELVFLG           =        037D                                  #        EXTERNAL DELTAV VG      LAMBERT (AIMPOINT)
000428: 26,2022     4744               XDELVBIT           =        BIT8                                  #        COMPUTATION             VG COMPUTATION
000429:
000430:                                                                                                  #  BIT 7 FLAG 2 (S)
000431: 26,2022                        ETPIFLAG           =        038D                                  #        ELEVATION ANGLE         TPI TIME SUPPLIED
000432:                                                                                                  #        SUPPLIED FOR            FOR P34,74 TO COMPUT
000433: 26,2022     4745               ETPIBIT            =        BIT7                                  #        P34,74                  ELEVATION
000434:
000435:                                                                                                  #  BIT 6 FLAG 2 (S)
000436: 26,2022                        FINALFLG           =        039D                                  #        LAST PASS THROUGH       INTERIM PASS THROUGH
000437:                                                                                                  #        RENDEZVOUS PROGRAM      RENDEZVOUS PROGRAM
000438: 26,2022     4746               FINALBIT           =        BIT6                                  #        COMPUTATIONS            COMPUTATIONS
000439:
000440:                                                                                                  #  BIT 5 FLAG 2 (S)
000441: 26,2022                        AVFLAG             =        040D                                  #        LEM IS ACTIVE           CSM IS ACTIVE
000442: 26,2022     4747               AVFLBIT            =        BIT5                                  #        VEHICLE                 VEHICLE
000443:
000444:                                                                                                  #  BIT 4 FLAG 2 (S)
000445: 26,2022                        PFRATFLG           =        041D                                  #        PREFERRED ATTITUDE      PREFERRED ATTITUDE
000446: 26,2022     4750               PFRATBIT           =        BIT4                                  #        COMPUTED                NOT COMPUTED
000447:


000449:                                                                                                  #  BIT 3 FLAG 2 (S)
000450: 26,2022                        CALCMAN3           =        042D                                  #        NO FINAL ROLL           FINAL ROLL IS
000451: 26,2022     4751               CALC3BIT           =        BIT3                                  #                                NECESSARY
000452:
000453:                                                                                                  #  BIT 2 FLAG 2 (S)
000454: 26,2022                        CALCMAN2           =        043D                                  #        PERFORM MANEUVER        BYPASS STARTING
000455: 26,2022     4752               CALC2BIT           =        BIT2                                  #        STARTING PROCEDURE      PROCEDURE
000456:
000457:                                                                                                  #  BIT 1 FLAG 2 (S)
000458: 26,2022                        NODOFLAG           =        044D                                  #        V37 NOT PERMITTED       V37 PERMITTED
000459: 26,2022     4753               NODOBIT            =        BIT1
000460:
000461: 26,2022     0077               FLAGWRD3           =        STATE      +3                         #  (045-059)
000462:
000463:                                                                                                  #        (SET)                   (RESET)
000464:
000465:                                                                                                  #  BIT 15 FLAG 3
000466: 26,2022                        POOHFLAG           =        045D                                  #        INHIBIT BACKWARDS       ALLOW BACKWARDS
000467: 26,2022     4735               POOHBIT            =        BIT15                                 #        INTEGRATION             INTEGRATION
000468:
000469:                                                                                                  #  BIT 14 FLAG 3 (S)
000470: 26,2022                        GLOKFAIL           =        046D                                  #        GIMBAL LOCK HAS         NOT IN GIMBAL LOCK
000471: 26,2022     4736               GLOKFBIT           =        BIT14                                 #        OCCURRED
000472:
000473:                                                                                                  #  BIT 13 FLAG 3 *** PROTECTED FROM FRESH START ***
000474: 26,2022                        REFSMFLG           =        047D                                  #        REFSMMAT GOOD           REFSMMAT NO GOOD
000475: 26,2022     4737               REFSMBIT           =        BIT13
000476:
000477:                                                                                                  #  BIT 12 FLAG 3 (S)
000478: 26,2022                        LUNAFLAG           =        048D                                  #        LUNAR LAT-LONG          EARTH LAT-LONG
000479: 26,2022     4740               LUNABIT            =        BIT12
000480:
000481:                                                                                                  #  BIT 11 FLAG 3 (L)
000482: 26,2022                        NOR29FLG           =        049D                                  #        R29 NOT ALLOWED         R29 ALOWED (RR DES-
000483: 26,2022     4741               NR29FBIT           =        BIT11                                 #                                IGNATE, POWERED FLT)
000484:
000485:                                                                                                  #  BIT 10 FLAG 3 (S)
000486: 26,2022                        VFLAG              =        050D                                  #        LESS THAN TWO STARS     TWO STARS IN FIELD
000487: 26,2022     4742               VFLAGBIT           =        BIT10                                 #        IN FIELD OF VIEW        OF VIEW
000488:
000489:                                                                                                  #  BIT 9 FLAG 3  (S)


000491: 26,2022                        R04FLAG            =        051D                                  #        ALARM 521               ALARM 521 ALLOWED
000492:                                                                                                  #        SUPPRESSED
000493: 26,2022     4743               R04FLBIT           =        BIT9
000494:
000495:                                                                                                  #  BIT 9 FLAG 3  (L)
000496: 26,2022  0000063               READRFLG           =        R04FLAG                               #        READING RR DATA         NOT READING RR DATA
000497: 26,2022     4743               READRBIT           =        BIT9                                  #        PURSUANT TO R29         PURSUANT TO R29
000498:
000499:                                                                                                  #  BIT 8 FLAG 3  (S)
000500: 26,2022                        PRECIFLG           =        052D                                  #        NORMAL INTEGRATION      ENGAGES 4-TIME STEP
000501:                                                                                                  #        IN POO                  (POO) LOGIC IN INTE-
000502: 26,2022     4744               PRECIBIT           =        BIT8                                  #                                GRATION
000503:
000504:                                                                                                  #  BIT 7 FLAG 3  (S)
000505: 26,2022                        CULTFLAG           =        053D                                  #        STAR OCCULTED           STAR NOT OCCULTED
000506: 26,2022     4745               CULTBIT            =        BIT7
000507:
000508:                                                                                                  #  BIT 6 FLAG 3  (S)
000509: 26,2022                        ORBWFLAG           =        054D                                  #        W MATRIX VALID FOR      W MATRIX INVALID FOR
000510: 26,2022     4746               ORBWFBIT           =        BIT6                                  #        ORBITAL NAVIGATION      ORBITAL NAVIGATION
000511:
000512:                                                                                                  #  BIT 5 FLAG 3  (S)
000513: 26,2022                        STATEFLG           =        055D                                  #        PERMANENT STATE         PERMANENT STATE
000514: 26,2022     4747               STATEBIT           =        BIT5                                  #        VECTOR UPDATED          VECTOR NOT UPDATED
000515:
000516:                                                                                                  #  BIT 4 FLAG 3  (S)
000517: 26,2022                        INTYPFLG           =        056D                                  #        CONIC INTEGRATION       ENCKE INTEGRATION
000518: 26,2022     4750               INTYPBIT           =        BIT4
000519:
000520:                                                                                                  #  BIT 3 FLAG 3  (S)
000521: 26,2022                        VINTFLAG           =        057D                                  #        CSM STATE VECTOR        LEM STATE VECTOR
000522: 26,2022     4751               VINTFBIT           =        BIT3                                  #        BEING INTEGRATED        BEING INTEGRATED
000523:
000524:                                                                                                  #  BIT 2 FLAG 3 (S)
000525: 26,2022                        D6OR9FLG           =        058D                                  #        DIMENSION OF W IS 9     DIMENSION OF W IS 6
000526: 26,2022     4752               D6OR9BIT           =        BIT2                                  #        FOR INTEGRATION         FOR INTEGRATION
000527:
000528:                                                                                                  #  BIT 1 FLAG 3  (S)
000529: 26,2022                        DIM0FLAG           =        059D                                  #        W MATRIX IS TO BE       W MATRIX IS NOT TO
000530: 26,2022     4753               DIM0BIT            =        BIT1                                  #        USED                    BE USED
000531:


000533: 26,2022     0100               FLAGWRD4           =        STATE      +4                         #  (060-074)
000534:
000535:                                                                                                  #        (SET)                   (RESET)
000536:
000537:                                                                                                  #  BIT 15 FLAG 4 (S)
000538: 26,2022                        MRKIDFLG           =        060D                                  #        MARK DISPLAY IN         NO MARK DISPLAY IN
000539: 26,2022     4735               MRKIDBIT           =        BIT15                                 #        ENDIDLE                 ENDIDLE
000540:
000541:                                                                                                  #  BIT 14 FLAG 4 (S)
000542: 26,2022                        PRIODFLG           =        061D                                  #        PRIORITY DISPLAY IN     NO PRIORITY DISPLAY
000543: 26,2022     4736               PRIODBIT           =        BIT14                                 #        ENDIDLE                 IN ENDIDLE
000544:
000545:                                                                                                  #  BIT 13 FLAG 4 (S)
000546: 26,2022                        NRMIDFLG           =        062D                                  #        NORMAL DISPLAY IN       NO NORMAL DISPLAY
000547: 26,2022     4737               NRMIDBIT           =        BIT13                                 #        ENDIDLE                 IN ENDIDLE
000548:
000549:                                                                                                  #  BIT 12 FLAG 4 (S)
000550: 26,2022                        PDSPFLAG           =        063D                                  #        P20 SETS SO AS TO       LEAVE AS NORMAL DISP
000551:                                                                                                  #        TURN A NORMAL DIS-
000552: 26,2022     4740               PDSPFBIT           =        BIT12                                 #        PLAY INTO A PRIORITY
000553:                                                                                                  #        DISPLAY IN R60
000554:
000555:                                                                                                  #  BIT 11 FLAG 4 (S)
000556: 26,2022                        MWAITFLG           =        064D                                  #        HIGHER PRIORITY         NO HIGHER PRIORITY
000557:                                                                                                  #        DISPLAY OPERATING       DISPLAY OPERATING
000558: 26,2022     4741               MWAITBIT           =        BIT11                                 #        WHEN MARK DISPLAY       WHEN MARK DISPLAY
000559:                                                                                                  #        INITIATED               INITIATED
000560:
000561:                                                                                                  #  BIT 10 FLAG 4 (S)
000562: 26,2022                        NWAITFLG           =        065D                                  #        HIGHER PRIORITY         NO HIGHER PRIORITY
000563:                                                                                                  #        DISPLAY OPERATING       DISPLAY OPERATING
000564: 26,2022     4742               NWAITBIT           =        BIT10                                 #        WHEN NORMAL             WHEN NORMAL DISPLAY
000565:                                                                                                  #        DISPLAY INITIATED       INITIATED
000566:
000567:                                                                                                  #  BIT 9 FLAG 4  (S)
000568: 26,2022                        MRKNVFLG           =        066D                                  #        ASTRONAUT USING         ASTRONAUT NOT USING
000569:                                                                                                  #        KEYBOARD WHEN MARK      KEYBOARD WHEN MARK
000570: 26,2022     4743               MRKNVBIT           =        BIT9                                  #        DISPLAY INITIATED       DISPLAY INITIATED
000571:
000572:                                                                                                  #  BIT 8 FLAG 4  (S)
000573: 26,2022                        NRMNVFLG           =        067D                                  #        ASTRONAUT USING         ASTRONAUT NOT USING
000574:                                                                                                  #        KEYBOARD WHEN           KEYBOARD WHEN
000575: 26,2022     4744               NRMNVBIT           =        BIT8                                  #        NORMAL DISPLAY          NORMAL DISPLAY
000576:                                                                                                  #        INITIATED               INITIATED
000577:


000579:                                                                                                  #  BIT 7 FLAG 4  (S)
000580: 26,2022                        PRONVFLG           =        068D                                  #        ASTRONAUT USING         ASTRONAUT NOT USING
000581:                                                                                                  #        KEYBOARD WHEN           KEYBOARD WHEN
000582: 26,2022     4745               PRONVBIT           =        BIT7                                  #        PRIORITY DISPLAY        PRIORITY DISPLAY
000583:                                                                                                  #        INITIATED               INITIATED
000584:
000585:                                                                                                  #  BIT 6 FLAG 4  (S)
000586: 26,2022                        PINBRFLG           =        069D                                  #        ASTRONAUT HAS           ASTRONAUT HAS NOT
000587:                                                                                                  #        INTERFERED WITH         INTERFERED WITH
000588: 26,2022     4746               PINBRBIT           =        BIT6                                  #        EXISTING DISPLAY        EXISTING DISPLAY
000589:
000590:                                                                                                  #  BIT 5 FLAG 4  (S)
000591: 26,2022                        MRUPTFLG           =        070D                                  #        MARK DISPLAY            MARK DISPLAY NOT
000592:                                                                                                  #        INTERRUPTED BY          INTERRUPTED BY
000593: 26,2022     4747               MRUPTBIT           =        BIT5                                  #        PRIORITY DISPLAY        PRIORITY DISPLAY
000594:
000595:                                                                                                  #  BIT 4 FLAG 4  (S)
000596: 26,2022                        NRUPTFLG           =        071D                                  #        NORMAL DISPLAY          NORMAL DISPLAY NOT
000597:                                                                                                  #        INTERRUPTED BY          INTERRUPTED BY
000598: 26,2022     4750               NRUPTBIT           =        BIT4                                  #        PRIORITY OR MARK        PRIORITY OR MARK
000599:                                                                                                  #        DISPLAY                 DISPLAY
000600:
000601:                                                                                                  #  BIT 3 FLAG 4  (S)
000602: 26,2022                        MKOVFLAG           =        072D                                  #        MARK DISPLAY OVER       NO MARK DISPLAY OVER
000603: 26,2022     4751               MKOVBIT            =        BIT3                                  #        NORMAL                  NORMAL
000604:
000605:                                                                                                  #  BIT 2 FLAG 4
000606:                                                                                                  #                =       073D
000607:
000608:                                                                                                  #  BIT 1 FLAG 4  (S)
000609: 26,2022                        XDSPFLAG           =        074D                                  #        MARK DISPLAY NOT        NO SPECIAL MARK
000610: 26,2022     4753               XDSPBIT            =        BIT1                                  #        TO BE INTERRUPTED       INFORMATION
000611:
000612: 26,2022     0101               FLAGWRD5           =        STATE      +5                         #  (075-089)
000613:
000614:                                                                                                  #        (SET)                   (RESET)
000615:
000616:                                                                                                  #  BIT 15 FLAG 5 (S)
000617: 26,2022                        DSKYFLAG           =        075D                                  #        DISPLAYS SENT TO        NO DISPLAYS TO DSKY
000618: 26,2022     4735               DSKYFBIT           =        BIT15                                 #        DSKY
000619:
000620:                                                                                                  #  BIT 14 FLAG 5
000621:                                                                                                  #                =       076D
000622:                                                                                                  #                =       BIT14
000623:


000625:                                                                                                  #  BIT 13 FLAG 5 (S,L)
000626: 26,2022                        SNUFFER            =        077D                                  #        U,V JETS DISABLED       U,V JETS ENABLED
000627:                                                                                                  #        DURING DPS              DURING DPS
000628: 26,2022     4737               SNUFFBIT           =        BIT13                                 #        BURNS (V65)             BURNS (V75)
000629:
000630:                                                                                                  #  BIT 12 FLAG 5 (S)
000631: 26,2022                        NOTHROTL           =        078D                                  #        INHIBIT FULL            PERMIT FULL THROTTLE
000632: 26,2022     4740               NOTHRBIT           =        BIT12                                 #        THROTTLE
000633:
000634:                                                                                                  #  BIT 11 FLAG 5 (S,L)
000635: 26,2022                        R77FLAG            =        079D                                  #        R77 IS ON,              R77 IS NOT ON.
000636:                                                                                                  #        SUPPRESS ALL RADAR
000637:                                                                                                  #        ALARMS AND TRACKER
000638: 26,2022     4741               R77FLBIT           =        BIT11                                 #        FAILS
000639:
000640:                                                                                                  #  BIT 10 FLAG 5 (S)
000641: 26,2022                        RNGSCFLG           =        080D                                  #        SCALE CHANGE HAS        NO SCALE CHANGE HAS
000642:                                                                                                  #        OCCURRED DURING         OCCURRED DURING
000643: 26,2022     4742               RNGSCBIT           =        BIT10                                 #        RR READING              RR READING
000644:
000645:                                                                                                  #  BIT 9 FLAG 5  (S)
000646: 26,2022                        DMENFLG            =        081D                                  #        DIMENSION OF W IS 9     DIMENSION OF W IS 6
000647: 26,2022     4743               DMENFBIT           =        BIT9                                  #        FOR INCORPORATION       FOR INCORPORATION
000648:
000649:                                                                                                  #  BIT 8 FLAG 5  (S)
000650: 26,2022                        ZOOMFLAG           =        082D                                  #        THROTTLE-UP HAS         THROTTLE-UP HAS NOT
000651: 26,2022     4744               ZOOMBIT            =        BIT8                                  #        OCCURRED IN P63.        YET OCCURRED IN P63.
000652:
000653:                                                                                                  #  BIT 7 FLAG 5  (S)
000654: 26,2022                        ENGONFLG           =        083D                                  #        ENGINE TURNED ON        ENGINE TURNED OFF
000655: 26,2022     4745               ENGONBIT           =        BIT7                                  #
000656:
000657:                                                                                                  #  BIT 6 FLAG 5  (S)
000658: 26,2022                        3AXISFLG           =        084D                                  #        MANEUVER SPECIFIED      MANEUVER SPECIFIED
000659:                                                                                                  #        BY THREE AXES           BY ONE AXIS; R60
000660: 26,2022     4746               3AXISBIT           =        BIT6                                  #                                CALLS VECPOINT.
000661:
000662:                                                                                                  #  BIT 5 FLAG 5
000663: 26,2022                        AORBSFLG           =        085D                                  #        PREFER PAXIS JET        PREFER PAXIS JET
000664: 26,2022     4747               AORBSYST           =        BIT5                                  #        PAIRS 7,15 AND 8,16     PAIRS 4,12 AND 3,11
000665:


000667:                                                                                                  #  BIT 4 FLAG 5  (S)
000668: 26,2022                        NORRMON            =        086D                                  #        BYPASS RR GIMBAL        PERFORM
000669: 26,2022     4750               NORRMBIT           =        BIT4                                  #        MONITOR                 RR GIMBAL MONITOR
000670:
000671:                                                                                                  #  BIT 3 FLAG 5  (S)
000672: 26,2022                        SOLNSW             =        087D                                  #        LAMBERT DOES NOT        LAMBERT CONVERGES OR
000673:                                                                                                  #        CONVERGE,OR TIME-RAD    TIME-RADIUS NON
000674: 26,2022     4751               SOLNSBIT           =        BIT3                                  #        NEARLY CIRCULAR         CIRCULAR
000675:
000676:                                                                                                  #  BIT 2 FLAG 5  (S)
000677: 26,2022                        MGLVFLAG           =        088D                                  #        LOCAL VERTICAL          MIDDLE GIMBAL ANGLE
000678:                                                                                                  #        COORDINATES             COMPUTED
000679: 26,2022     4752               MGLVFBIT           =        BIT2                                  #        COMPUTED
000680:
000681:                                                                                                  #  BIT 1 FLAG 5  (S)
000682: 26,2022                        RENDWFLG           =        089D                                  #        W MATRIX VALID          W MATRIX INVALID
000683:                                                                                                  #        FOR RENDEZVOUS          FOR RENDEZVOUS
000684: 26,2022     4753               RENDWBIT           =        BIT1                                  #        NAVIGATION              NAVIGATION
000685:
000686: 26,2022     0102               FLAGWRD6           =        STATE      +6                         #  (090-104)
000687:
000688:                                                                                                  #        (SET)                   (RESET)
000689:
000690:                                                                                                  #  BIT 15 FLAG 6 (S)
000691: 26,2022                        S32.1F1            =        090D                                  #        DELTA V AT CSI TIME     DVT1 LESS THEN MAX
000692: 26,2022     4735               S32BIT1            =        BIT15                                 #        ONE EXCEEDS MAX
000693:
000694:                                                                                                  #  BIT 14 FLAG 6 (S)
000695: 26,2022                        S32.1F2            =        091D                                  #        FIRST PASS OF           REITERATION OF
000696: 26,2022     4736               S32BIT2            =        BIT14                                 #        NEWTON ITERATION        NEWTON
000697:
000698:                                                                                                  #  BIT 13 FLAG 6 (S)
000699: 26,2022                        S32.1F3A           =        092D                                  #  BIT 13 AND BIT 12 FUNCTION AS AN ORDERED
000700: 26,2022     4737               S32BIT3A           =        BIT13                                 #  PAIR (13,12) INDICATING THE POSSIBLE OC-
000701:                                                                                                  #  CURRANCE OF 2NEWTON ITERATIONS FOR S32.1
000702:                                                                                                  #  IN THE PROGRAM IN THE FOLLOWING ORDER:
000703:                                                                                                  #  BIT 12 FLAG 6                                   (0,1) (I.E.BIT 13 RESET, BIT 12 SET)
000704: 26,2022                        S32.1F3B           =        093D                                  #       = FIRST NEWTON ITERATION BEING DONE
000705: 26,2022     4740               S32BIT3B           =        BIT12                                 #  (0,0)= FIRST PASS OF SECOND NEWT.ITERAT.
000706:                                                                                                  #  (1,1)= 50 FT/SEC STAGE OF SEC. NEWT.ITER
000707:                                                                                                  #  (1,0)= REMAINDER OF SECOND NEWTON ITERA.
000708:


000710:                                                                                                  #  BIT 11 FLAG 6 (S)
000711:
000712:                                                                                                  #  BIT 10 FLAG 6 (S)
000713: 26,2022                        GMBDRVSW           =        095D                                  #        TRIMGIMB OVER           TRIMGIMB NOT OVER
000714: 26,2022     4742               GMBDRBIT           =        BIT10                                 #
000715:
000716:                                                                                                  #  BIT 9 FLAG 6
000717:                                                                                                  #                =       096D
000718:                                                                                                  #                =       BIT9
000719:
000720:                                                                                                  #  BIT 8 FLAG 6  (S)
000721: 26,2022                        MUNFLAG            =        097D                                  #        SERVICER CALLS          SERVICER CALLS
000722: 26,2022     4744               MUNFLBIT           =        BIT8                                  #        MUNRVG                  CALCRVG
000723:
000724:                                                                                                  #  BIT 7 FLAG 6  (L)
000725: 26,2022                                           =        098D
000726: 26,2022                                           =        BIT7
000727:
000728:                                                                                                  #  BIT 6 FLAG 6  (L)
000729: 26,2022                        REDFLAG            =        099D                                  #        LANDING SITE            LANDING SITE
000730:                                                                                                  #        REDESIGNATION           REDESIGNATION NOT
000731: 26,2022     4746               REDFLBIT           =        BIT6                                  #        PERMITTED               PERMITTED
000732:
000733:                                                                                                  #  BIT 5 FLAG 6
000734:                                                                                                  #                =       100D
000735:
000736:                                                                                                  #  BIT 4 FLAG 6
000737:                                                                                                  #                =       101D
000738:
000739:                                                                                                  #  BIT 3 FLAG 6  (S)
000740: 26,2022                        NTARGFLG           =        102D                                  #        ASTRONAUT DID           ASTRONAUT DID NOT
000741:                                                                                                  #        OVERWRITE DELTA         OVERWRITE DELTA
000742: 26,2022     4751               NTARGBIT           =        BIT3                                  #        VELOCITY AT TPI         VELOCITY
000743:                                                                                                  #        OR TPM (P34,35)
000744:
000745:                                                                                                  #  BIT 2 FLAG 6
000746: 26,2022                        AUXFLAG            =        103D                                  #        PROVIDING IDLEFLAG      SERVICER WILL SKIP
000747: 26,2022     4752               AUXFLBIT           =        BIT2                                  #        IS NOT SET, SERV-       DVMON ON ITS NEXT
000748:                                                                                                  #        ICER WILL EXERCISE      PASS EVEN IF THE
000749:                                                                                                  #        DVMON ON ITS NEXT       IDLEFLAG IS NOT SET.
000750:                                                                                                  #        PASS.                   IT WILL THEN SET
000751:                                                                                                  #                                AUXFLAG.
000752:


000754:                                                                                                  #  BIT 1 FLAG 6  (L)
000755: 26,2022                        ATTFLAG            =        104D                                  #        LEM ATTITUDE EXISTS     NO LEM ATTITUDE
000756:                                                                                                  #        IN MOON-FIXED           AVAILABLE IN MOON-
000757: 26,2022     4753               ATTFLBIT           =        BIT1                                  #        COORDINATES             FIXED COORDINATES
000758:
000759: 26,2022     0103               FLAGWRD7           =        STATE      +7                         #  (105-119)
000760:
000761:                                                                                                  #        (SET)                   (RESET)
000762:
000763:                                                                                                  #  BIT 15 FLAG 7 (S)
000764: 26,2022                        ITSWICH            =        105D                                  #        P34;TPI TIME TO BE      TPI HAS BEEN
000765: 26,2022     4735               ITSWBIT            =        BIT15                                 #        COMPUTED                COMPUTED
000766:
000767:                                                                                                  #  BIT 14 FLAG 7 (S)
000768: 26,2022                        MANUFLAG           =        106D                                  #        ATTITUDE MANEUVER       NO ATTITUDE MANEUVER
000769:                                                                                                  #        GOING DURING RR         DURING RR SEARCH
000770: 26,2022     4736               MANUFBIT           =        BIT14                                 #        SEARCH
000771:
000772:                                                                                                  #  BIT 13 FLAG 7 (S)
000773: 26,2022                        IGNFLAG            =        107D                                  #        TIG HAS ARRIVED         TIG HAS NOT ARRIVED
000774: 26,2022     4737               IGNFLBIT           =        BIT13                                 #
000775:
000776:                                                                                                  #  BIT 12 FLAG 7 (S)
000777: 26,2022                        ASTNFLAG           =        108D                                  #        ASTRONAUT HAS           ASTRONAUT HAS NOT
000778: 26,2022     4740               ASTNBIT            =        BIT12                                 #        OKAYED IGNITION         OKAYED IGNITION
000779:
000780:                                                                                                  #  BIT 11 FLAG 7 (L)
000781: 26,2022                        SWANDISP           =        109D                                  #        LANDING ANALOG          LANDING ANALOG
000782: 26,2022     4741               SWANDBIT           =        BIT11                                 #        DISPLAYS ENABLED        DISPLAYS SUPPRESSED
000783:
000784:                                                                                                  #  BIT 10 FLAG 7 (S)
000785: 26,2022                        NORMSW             =        110D                                  #        UNIT NORMAL INPUT       LAMBERT COMPUTES ITS
000786: 26,2022     4742               NORMSBIT           =        BIT10                                 #        TO LAMBERT              OWN UNIT NORMAL
000787:
000788:                                                                                                  #  BIT 9 FLAG 7  (S)
000789: 26,2022                        RVSW               =        111D                                  #        DO NOT COMPUTE          COMPUTE FINAL STATE
000790:                                                                                                  #        FINAL STATE VECTOR      VECTOR IN TIME-THETA
000791: 26,2022     4743               RVSWBIT            =        BIT9                                  #        IN TIME-THETA
000792:
000793:                                                                                                  #  BIT 8 FLAG 7  (S)
000794: 26,2022                        V67FLAG            =        112D                                  #        ASTRONAUT OVERWRITE     ASTRONAUT DOES NOT
000795:                                                                                                  #        W-MATRIX INITIAL        OVERWRITE W-MATRIX


000797: 26,2022     4744               V67FLBIT           =        BIT8                                  #        VALUES                  INITIAL VALUES
000798:
000799:                                                                                                  #  BIT 7 FLAG 7  (S)
000800: 26,2022                        IDLEFLAG           =        113D                                  #        NO DV MONITOR           CONNECT DV MONITOR
000801: 26,2022     4745               IDLEFBIT           =        BIT7                                  #
000802:
000803:                                                                                                  #  BIT 6 FLAG 7  (S)
000804: 26,2022                        V37FLAG            =        114D                                  #        AVERAGEG (SERVICER)     AVERAGEG (SERVICER)
000805: 26,2022     4746               V37FLBIT           =        BIT6                                  #        RUNNING                 OFF
000806:
000807:                                                                                                  #  BIT 5 FLAG 7  (S)
000808: 26,2022                        AVEGFLAG           =        115D                                  #        AVERAGEG (SERVICER)     AVERAGEG (SERVICER)
000809: 26,2022     4747               AVEGFBIT           =        BIT5                                  #        DESIRED                 NOT DESIRED
000810:
000811:                                                                                                  #  BIT 4 FLAG 7  (S)
000812: 26,2022                        UPLOCKFL           =        116D                                  #        K-KBAR-K FAIL           NO K-KBAR-K FAIL
000813: 26,2022     4750               UPLOCBIT           =        BIT4                                  #
000814:
000815:                                                                                                  #  BIT 3 FLAG 7  (S)
000816: 26,2022                        VERIFLAG           =        117D                                  #  CHANGED WHEN V33E OCCURS AT END OF P27
000817: 26,2022     4751               VERIFBIT           =        BIT3                                  #
000818:
000819:                                                                                                  #  BIT 2 FLAG 7  (L,C)
000820: 26,2022                        V82EMFLG           =        118D                                  #        MOON VICINITY           EARTH VICINITY
000821: 26,2022     4752               V82EMBIT           =        BIT2                                  #
000822:
000823:                                                                                                  #  BIT 1 FLAG 7  (S)
000824: 26,2022                        TFFSW              =        119D                                  #        CALCULATE TPERIGEE      CALCULATE TFF
000825: 26,2022     4753               TFFSWBIT           =        BIT1                                  #
000826:
000827: 26,2022     0104               FLAGWRD8           =        STATE      +8D                        #  (120-134)
000828:
000829:                                                                                                  #        (SET)                   (RESET)
000830:
000831:                                                                                                  #  BIT 15 FLAG 8 (S)
000832: 26,2022                        RPQFLAG            =        120D                                  #        RPQ NOT COMPUTED        RPQ COMPUTED
000833:                                                                                                  #        (RPQ = VECTOR BE-
000834: 26,2022     4735               RPQFLBIT           =        BIT15                                 #        TWEEN SECONDARY BODY
000835:                                                                                                  #        AND PRIMARY BODY
000836:
000837:                                                                                                  #  BIT 14 FLAG 8


000839:                                                                                                  #                =       121D
000840:                                                                                                  #                =       BIT14
000841:
000842:                                                                                                  #  BIT 13 FLAG 8 (S)
000843: 26,2022                        NEWIFLG            =        122D                                  #        FIRST PASS THROUGH      SUCCEEDING ITERATION
000844: 26,2022     4737               NEWIBIT            =        BIT13                                 #        INTEGRATION             OF INTEGRATION
000845:
000846:                                                                                                  #  BIT 12 FLAG 8 *** PROTECTED FROM FRESH START ***
000847: 26,2022                        CMOONFLG           =        123D                                  #        PERMANENT CSM STATE     PERMANENT CSM STATE
000848: 26,2022     4740               CMOONBIT           =        BIT12                                 #        IN LUNAR SPHERE         IN EARTH SPHERE
000849:
000850:                                                                                                  #  BIT 11 FLAG 8 *** PROTECTED FROM FRESH START ***
000851: 26,2022                        LMOONFLG           =        124D                                  #        PERMANENT LM STATE      PERMANENT LM STATE
000852: 26,2022     4741               LMOONBIT           =        BIT11                                 #        IN LUNAR SPHERE         IN EARTH SPHERE
000853:
000854:                                                                                                  #  BIT 10 FLAG 8 (L)
000855: 26,2022                        FLUNDISP           =        125D                                  #        CURRENT GUIDANCE        CURRENT GUIDANCE
000856: 26,2022     4742               FLUNDBIT           =        BIT10                                 #        DISPLAYS INHIBITED      DISPLAYS PERMITTED
000857:
000858:                                                                                                  #  BIT 9 FLAG 8  (L)
000859:                                                                                                  #                =       126D
000860:                                                                                                  #                =       BIT9
000861:
000862:                                                                                                  #  BIT 8 FLAG 8  *** PROTECTED FROM FRESH START ***
000863: 26,2022                        SURFFLAG           =        127D                                  #        LM ON LUNAR SURFACE     LM NOT ON LUNAR
000864: 26,2022     4744               SURFFBIT           =        BIT8                                  #                                SURFACE
000865:
000866:                                                                                                  #  BIT 7 FLAG 8  (S)
000867: 26,2022                        INFINFLG           =        128D                                  #        NO CONIC SOLUTION       CONIC SOLUTION
000868:                                                                                                  #        (CLOSURE THROUGH        EXISTS
000869: 26,2022     4745               INFINBIT           =        BIT7                                  #        INFINITY REQUIRED)
000870:
000871:                                                                                                  #  BIT 6 FLAG 8  (S)
000872: 26,2022                        ORDERSW            =        129D                                  #        ITERATOR USES 2ND       ITERATOR USES 1ST
000873: 26,2022     4746               ORDERBIT           =        BIT6                                  #        ORDER MINIMUM MODE      ORDER STANDARD MODE
000874:
000875:                                                                                                  #  BIT 5 FLAG 8  (S)
000876: 26,2022                        APSESW             =        130D                                  #        RDESIRED OUTSIDE        RDESIRED INSIDE
000877:                                                                                                  #        PERICENTER-APOCENTER    PERICENTER-APOCENTER
000878: 26,2022     4747               APSESBIT           =        BIT5                                  #        RANGE IN TIME-RADI      RANGE IN TIME-RADIUS
000879:


000881:                                                                                                  #  BIT 4 FLAG 8  (S)
000882: 26,2022                        COGAFLAG           =        131D                                  #        NO CONIC SOLUTION -     CONIC SOLUTION
000883:                                                                                                  #        TOO CLOSE TO RECTI-     EXISTS (COGA DOES NOT
000884: 26,2022     4750               COGAFBIT           =        BIT4                                  #        LINEAR (COGA OVRFLWS)   OVERFLOW)
000885:
000886:                                                                                                  #  BIT 3 FLAG 8
000887:                                                                                                  #                =       132D
000888:
000889:                                                                                                  #  BIT 2 FLAG 8  (L)
000890: 26,2022                        INITALGN           =        133D                                  #        INITIAL PASS THRU       SECOND PASS THRU P57
000891: 26,2022     4752               INITABIT           =        BIT2                                  #        P57                     (CHECK RESET-MILLARD)
000892:
000893:                                                                                                  #  BIT 1 FLAG 8  (S)
000894: 26,2022                        360SW              =        134D                                  #        TRANSFER ANGLE NEAR     TRANSFER ANGLE NOT
000895: 26,2022     4753               360SWBIT           =        BIT1                                  #        360 DEGREES             NEAR 360 DEGREES
000896:
000897: 26,2022     0105               FLAGWRD9           =        STATE      +9D                        #  (135-149)
000898:
000899:                                                                                                  #        (SET)                   (RESET)
000900:
000901:                                                                                                  #  BIT 15 FLAG 9
000902:                                                                                                  #                =       135D
000903:                                                                                                  #                =       BIT15
000904:
000905:                                                                                                  #  BIT 14 FLAG 9 (L)
000906: 26,2022                        FLVR               =        136D                                  #        VERTICAL RISE           NON-VERTICAL RISE
000907: 26,2022     4736               FLVRBIT            =        BIT14                                 #        (ASCENT GUIDANCE)
000908:
000909:                                                                                                  #  BIT 13 FLAG 9
000910: 26,2022                        P7071FLG           =        137D                                  #        P70 OR P71 IS USING     P12 IS USING THE
000911: 26,2022     4737               P7071BIT           =        BIT13                                 #        ASCENT GUID. EQS.       ASCENT GUID. EQS.
000912:
000913:                                                                                                  #  BIT 12 FLAG 9 (L)
000914: 26,2022                        FLPC               =        138D                                  #        NO POSITION CONTROL     POSITION CONTROL
000915: 26,2022     4740               FLPCBIT            =        BIT12                                 #        (ASCENT GUIDANCE)
000916:
000917:                                                                                                  #  BIT 11 FLAG 9 (L)
000918: 26,2022                        FLPI               =        139D                                  #        PRE-IGNITION PHASE      REGULAR GUIDANCE
000919: 26,2022     4741               FLPIBIT            =        BIT11                                 #        (ASCENT GUIDANCE)
000920:
000921:                                                                                                  #  BIT 10 FLAG 9 (L)
000922: 26,2022                        FLRCS              =        140D                                  #        RCS INJECTION MODE      MAIN ENGINE MODE


000924: 26,2022     4742               FLRCSBIT           =        BIT10                                 #        (ASCENT GUIDANCE)
000925:
000926:                                                                                                  #  BIT 9 FLAG 9  (L)
000927: 26,2022                        LETABORT           =        141D                                  #        ABORT PROGRAMS          ABORT PROGRAMS
000928: 26,2022     4743               LETABBIT           =        BIT9                                  #        ARE ENABLED             ARE NOT ENABLED
000929:
000930:                                                                                                  #  BIT 8 FLAG 9  (L)
000931: 26,2022                        FLAP               =        142D                                  #        APS CONTINUED ABORT     APS ABORT IS NOT A
000932:                                                                                                  #        AFTER DPS STAGING       CONTINUATION
000933: 26,2022     4744               FLAPBIT            =        BIT8                                  #        (ASCENT GUIDANCE)
000934:
000935:                                                                                                  #  BIT 7 FLAG 9  (L)
000936: 26,2022                        ABTTGFLG           =        143D                                  #        J2,K2 PARAMETERS        J1,K1 PARAMETERS
000937: 26,2022     4745               ABTTGBIT           =        BIT7                                  #        USED FOR ABORT          USED FOR ABORT
000938:                                                                                                  #        TARGETING               TARGETING
000939:
000940:                                                                                                  #  BIT 6 FLAG 9  (L)
000941: 26,2022                        ROTFLAG            =        144D                                  #        P70 AND P71 WILL        P70 AND P71 WILL NOT
000942: 26,2022     4746               ROTFLBIT           =        BIT6                                  #        FORCE VEHICLE           FORCE VEHICLE
000943:                                                                                                  #        ROTATION IN THE         ROTATION IN THE
000944:                                                                                                  #        PREFERRED DIRECTION.    PREFERRED DIRECTION
000945:
000946:                                                                                                  #  BIT 5 FLAG 9  (S)
000947: 26,2022                        QUITFLAG           =        145D                                  #        DISCONTINUE INTEGR.     CONTINUE INTEGRATION
000948: 26,2022     4747               QUITBIT            =        BIT5                                  #
000949:
000950:                                                                                                  #  BIT 4 FLAG 9
000951:                                                                                                  #                =       146D
000952:                                                                                                  #                =       BIT4
000953:
000954:                                                                                                  #  BIT 3 FLAG 9  (L)
000955: 26,2022                        MID1FLAG           =        147D                                  #        INTEGRATE TO TDEC       INTEGRATE TO THE
000956: 26,2022     4751               MID1FBIT           =        BIT3                                  #                                THEN-PRESENT TIME
000957:
000958:                                                                                                  #  BIT 2 FLAG 9  (L)
000959: 26,2022                        MIDAVFLG           =        148D                                  #        INTEGRATION ENTERED     INTEGRATION WAS
000960:                                                                                                  #        FROM ONE OF MIDTOAV     NOT ENTERED VIA
000961: 26,2022     4752               MIDAVBIT           =        BIT2                                  #        PORTALS                 MIDTOAV
000962:
000963:                                                                                                  #  BIT 1 FLAG 9  (S)
000964: 26,2022                        AVEMIDSW           =        149D                                  #        AVETOMID CALLING        NO AVETOMID W INTEGR
000965:                                                                                                  #        FOR W.MATRIX INTEGR     ALLOW SET UP RN,VN,
000966: 26,2022     4753               AVEMDBIT           =        BIT1                                  #        DONT WRITE OVER RN,     PIPTIME
000967:                                                                                                  #        VN,PIPTIME
000968:


000970: 26,2022     0106               RASFLAG            EQUALS   FLGWRD10                              #  WAS ONLY AN INSTALL-ERASTALL FLAG
000971:
000972: 26,2022     0106               FLGWRD10           =        STATE      +10D                       #  (150-164)
000973:
000974:                                                                                                  #        (SET)                   (RESET)
000975:
000976:                                                                                                  #  BIT 15 FLAG 10
000977:                                                                                                  #                =       150D
000978:
000979:                                                                                                  #  BIT 14 FLAG 10 (L,C)
000980: 26,2022                        INTFLAG            =        151D                                  #        INTEGRATION IN          INTEGRATION NOT IN
000981: 26,2022     4736               INTFLBIT           =        BIT14                                 #        PROGRESS                PROGRESS
000982:
000983:                                                                                                  #  BIT 13 FLAG 10 (S,L)
000984: 26,2022                        APSFLAG            =        152D                                  #        ASCENT STAGE            DESCENT STAGE
000985: 26,2022     4737               APSFLBIT           =        BIT13                                 #        *** PROTECTED FROM FRESH START ***
000986:
000987:                                                                                                  #  BIT 12 FLAG 10
000988:                                                                                                  #                =       153D
000989:
000990:                                                                                                  #  BIT 11 FLAG 10
000991:                                                                                                  #                =       154D
000992:
000993:                                                                                                  #  BIT 10 FLAG 10
000994:                                                                                                  #                =       155D
000995:
000996:                                                                                                  #  BIT 9 FLAG 10
000997:                                                                                                  #                =       156D
000998:
000999:                                                                                                  #  BIT 8 FLAG 10
001000:                                                                                                  #                =       157D
001001:
001002:                                                                                                  #  BIT 7 FLAG 10 (L,C)
001003: 26,2022                        REINTFLG           =        158D                                  #        INTEGRATION ROUTINE     INTEGRATION ROUTINE
001004: 26,2022     4745               REINTBIT           =        BIT7                                  #        TO BE RESTARTED         NOT TO BE RESTARTED
001005:
001006:                                                                                                  #  BIT 6 FLAG 10
001007:                                                                                                  #                =       159D


001009:
001010:                                                                                                  #  BIT 5 FLAG 10
001011:                                                                                                  #                =       160D
001012:
001013:                                                                                                  #  BIT 4 FLAG 10
001014:                                                                                                  #                =       161D
001015:
001016:                                                                                                  #  BIT 3 FLAG 10
001017:                                                                                                  #                =       162D
001018:
001019:                                                                                                  #  BIT 2 FLAG 10
001020:                                                                                                  #                =       163D
001021:
001022:                                                                                                  #  BIT 1 FLAG 10
001023:                                                                                                  #                =       164D
001024:
001025: 26,2022     0107               FLGWRD11           =        STATE      +11D                       #  (165-179)
001026:
001027:                                                                                                  #        (SET)                   (RESET)
001028:
001029:                                                                                                  #  BIT 15 FLAG 11 (L)(R12)
001030: 26,2022                        LRBYPASS           =        165D                                  #        BYPASS ALL LANDING      DO NOT BYPASS LR
001031: 26,2022     4735               LRBYBIT            =        BIT15                                 #        RADAR UPDATES           UPDATES
001032:
001033:                                                                                                  #  BIT 14 FLAG 11
001034:                                                                                                  #                =       166D
001035:                                                                                                  #                =       BIT14
001036:
001037:                                                                                                  #  = BIT 13 FLAG 11
001038:                                                                                                  #                =       167D
001039:                                                                                                  #                =       BIT13
001040:
001041:                                                                                                  #  BIT 12 FLAG 11 (L)(R12)
001042: 26,2022                        VXINH              =        168D                                  #        IF Z VELOCITY DATA      UPDATE X AXIS
001043:                                                                                                  #        UNREASONABLE,           VELOCITY
001044: 26,2022     4740               VXINHBIT           =        BIT12                                 #        BYPASS X VELOCITY
001045:                                                                                                  #        UPDATE ON NEXT PASS
001046:


001048:                                                                                                  #  BIT 11 FLAG 11 (L)(R12)
001049: 26,2022                        PSTHIGAT           =        169D                                  #        PAST HIGATE             PREHIGATE
001050: 26,2022     4741               PSTHIBIT           =        BIT11                                 #
001051:
001052:                                                                                                  #  BIT 10 FLAG 11 (L)(R12)
001053: 26,2022                        NOLRREAD           =        170D                                  #        LANDING RADAR           LR NOT REPOSITIONING
001054:                                                                                                  #        REPOSITIONING;
001055: 26,2022     4742               NOLRRBIT           =        BIT10                                 #        BYPASS UPDATE
001056:
001057:                                                                                                  #  BIT 9 FLAG 11 (L)(R12)
001058: 26,2022                        XORFLG             =        171D                                  #        BELOW LIMIT             ABOVE LIMIT DO
001059:                                                                                                  #        INHIBIT X AXIS          NOT INHIBIT
001060: 26,2022     4743               XORFLBIT           =        BIT9                                  #        OVERRIDE
001061:
001062:                                                                                                  #  BIT 8 FLAG 11
001063: 26,2022                        LRINH              =        172D                                  #        LANDING RADAR UP-       LR UPDATES INHIBITED
001064: 26,2022     4744               LRINHBIT           =        BIT8                                  #        DATES PERMITTED         BY ASTRONAUT
001065:                                                                                                  #        BY ASTRONAUT
001066:
001067:                                                                                                  #  BIT 7 FLAG 11 (L)(R12)
001068: 26,2022                        VELDATA            =        173D                                  #        LR VELOCITY             LR VELOCITY MEASURE
001069: 26,2022     4745               VELDABIT           =        BIT7                                  #        MEASUREMENT MADE        NOT MADE
001070:
001071:                                                                                                  #  BIT 6 FLAG 11 (L)(R12)
001072: 26,2022                        LPOS2FLG           =        174D                                  #        USE LR POSITION 2       USE LR POSITION 1
001073: 26,2022     4746               LPOS2BIT           =        BIT6                                  #        TRANSFORMATION          TRANSFORMATION
001074:
001075:                                                                                                  #  BIT 5 FLAG 11 (L)(R12)
001076: 26,2022                        READVEL            =        175D                                  #        OK TO READ LR           DO NOT READ LR
001077: 26,2022     4747               READVBIT           =        BIT5                                  #        VELOCITY DATA           VELOCITY DATA
001078:
001079:                                                                                                  #  BIT 4 FLAG 11 (L)(R12)
001080: 26,2022                        RNGEDATA           =        176D                                  #        LR ALTITUDE             LR ALTITUDE MEASURE
001081: 26,2022     4750               RNGEDBIT           =        BIT4                                  #        MEASUREMENT MADE        NOT MADE
001082:
001083:                                                                                                  #  BIT 3 FLAG 11
001084: 26,2022                        NO511FLG           =        177D                                  #        DO NOT TEST LR          TEST LR ANTENNA
001085: 26,2022     4751               NO511BIT           =        BIT3                                  #        ANTENNA POS IN R12      POS IN R12
001086:
001087:                                                                                                  #  BIT 2 FLAG 11 (L)(R12)
001088: 26,2022                        VFLSHFLG           =        178D                                  #        LR VELOCITY FAIL        LR VEL FAIL LAMP


001090:                                                                                                  #        LAMP SHOULD BE          SHOULDN'T FLASH
001091: 26,2022     4752               VFLSHBIT           =        BIT2                                  #        FLASHING
001092:
001093:                                                                                                  #  BIT 1 FLAG 11 (L)(R12)
001094: 26,2022                        HFLSHFLG           =        179D                                  #        LR ALTITUDE FAIL        LR ALTITUDE FAIL
001095: 26,2022     4753               HFLSHBIT           =        BIT1                                  #        LAMP SHOULD BE          LAMP SHOULD NOT BE
001096:                                                                                                  #        FLASHING                FLASHING
001097:
001098: 26,2022     0110               RADMODES           EQUALS   FLGWRD12                              #  RADAR FLAG WORD
001099:
001100: 26,2022     0110               FLGWRD12           =        STATE      +12D                       #  (180-194)     WAS RADMODES
001101:
001102:                                                                                                  #        (SET)                   (RESET)
001103:
001104:                                                                                                  #  BIT 15 FLAG 12
001105: 26,2022                        CDESFLAG           =        180D                                  #        CONTINUOUS DESIG-       LGC CHECKS FOR LOCK-
001106: 26,2022     4735               CDESBIT            =        BIT15                                 #        NATE. LGC COMMANDS      ON WHEN ANTENNA
001107:                                                                                                  #        RR REGARDLESS OF        BEING DESIGNATED
001108:                                                                                                  #        LOCK-ON
001109:
001110:                                                                                                  #  BIT 14 FLAG 12
001111: 26,2022                        REMODFLG           =        181D                                  #        CHANGE IN ANTENNA       NO REMODE REQUESTED
001112: 26,2022     4736               REMODBIT           =        BIT14                                 #        MODE BEEN REQUESTED     OR OCCURRING
001113:                                                                                                  #        I.E., REMODE
001114:
001115:                                                                                                  #  BIT 13 FLAG 12
001116: 26,2022                        RCDU0FLG           =        182D                                  #        RR CDU'S BEING          RR CDU'S NOT BEING
001117: 26,2022     4737               RCDU0BIT           =        BIT13                                 #        ZEROED                  ZEROED
001118:
001119:                                                                                                  #  BIT 12 FLAG 12
001120: 26,2022                        ANTENFLG           =        183D                                  #        RR ANTENNA MODE IS      RR ANTENNA IN MODE 1
001121: 26,2022     4740               ANTENBIT           =        BIT12                                 #        MODE 2
001122:
001123:                                                                                                  #  BIT 11 FLAG 12
001124: 26,2022                        REPOSMON           =        184D                                  #        REPOSITION MONITOR.     NO REPOSITION TAKING
001125: 26,2022     4741               REPOSBIT           =        BIT11                                 #        RR REPOSITION IS        PLACE
001126:                                                                                                  #        TAKING PLACE
001127:
001128:                                                                                                  #  BIT 10 FLAG 12
001129: 26,2022                        DESIGFLG           =        185D                                  #        RR DESIGNATE            RR DESIGNATE NOT
001130: 26,2022     4742               DESIGBIT           =        BIT10                                 #        REQUESTED OR IN         REQUESTED OR IN
001131:                                                                                                  #        PROGRESS                PROGRESS
001132:


001134:                                                                                                  #  BIT 9 FLAG 12
001135: 26,2022                        ALTSCALE           =        186D                                  #        LR ALTITUDE READING     LR ALTITUDE READING
001136: 26,2022     4743               ALTSCBIT           =        BIT9                                  #        IS ON HIGH SCALE        IS ON LOW SCALE
001137:
001138:                                                                                                  #  BIT 8 FLAG 12
001139: 26,2022                        LRVELFLG           =        187D                                  #        LR VELOCITY DATA        NO LR VELOCITY DATA
001140: 26,2022     4744               LRVELBIT           =        BIT8                                  #        FAIL                    FAIL
001141:
001142:                                                                                                  #  BIT 7 FLAG 12
001143: 26,2022                        RCDUFAIL           =        188D                                  #        RR CDU FAIL HAS         RR CDU FAIL OCCURRED
001144: 26,2022     4745               RCDUFBIT           =        BIT7                                  #        NOT OCCURRED
001145:
001146:                                                                                                  #  BIT 6 FLAG 12
001147: 26,2022                        LRPOSFLG           =        189D                                  #        LANDING RADAR           LR POSITION 1
001148: 26,2022     4746               LRPOSBIT           =        BIT6                                  #        POSITION 2
001149:
001150:                                                                                                  #  BIT 5 FLAG 12
001151: 26,2022                        LRALTFLG           =        190D                                  #        LR ALTITUDE DATA        NO LR ALTITUDE DATA
001152: 26,2022     4747               LRALTBIT           =        BIT5                                  #        FAIL.  COULD NOT BE     FAIL
001153:                                                                                                  #        READ SUCCESSFULLY.
001154:
001155:                                                                                                  #  BIT 4 FLAG 12
001156: 26,2022                        RRDATAFL           =        191D                                  #        RR DATA FAIL.           NO RR DATA FAIL.
001157: 26,2022     4750               RRDATABT           =        BIT4                                  #        DATA COULD NOT BE
001158:                                                                                                  #        READ SUCCESSFULLY
001159:
001160:                                                                                                  #  BIT 3 FLAG 12
001161: 26,2022                        RRRSFLAG           =        192D                                  #        RR RANGE READING        RR RANGE READING ON
001162: 26,2022     4751               RRRSBIT            =        BIT3                                  #        ON THE HIGH SCALE       THE LOW SCALE
001163:
001164:                                                                                                  #  BIT 2 FLAG 12
001165: 26,2022                        AUTOMODE           =        193D                                  #        RR NOT IN AUTO MODE.    RR IN AUTO MODE
001166: 26,2022     4752               AUTOMBIT           =        BIT2                                  #        AUTO MODE DISCRETE
001167:                                                                                                  #        IS NOT PRESENT
001168:
001169:                                                                                                  #  BIT 1 FLAG 12
001170: 26,2022                        TURNONFL           =        194D                                  #        RR TURN-ON SEQUENCE     NO RR TURN-ON
001171: 26,2022     4753               TURNONBT           =        BIT1                                  #        IN PROGRESS.  (ZERO     SEQUENCE IN PROGRESS
001172:                                                                                                  #        CDU'S, FIX ANTENNA
001173:                                                                                                  #        MODE)
001174:


001176: 26,2022     0111               DAPBOOLS           EQUALS   FLGWRD13                              #  DIGITAL AUTOPILOT FLAGWORD
001177:
001178: 26,2022     0111               FLGWRD13           =        STATE      +13D                       #  (195-209)     WAS DAPBOOLS
001179:
001180:                                                                                                  #        (SET)                   (RESET)
001181:
001182:                                                                                                  #  BIT 15 FLAG 13
001183: 26,2022                        PULSEFLG           =        195D                                  #        MINIMUM IMPULSE         NOT IN MINIMUM
001184: 26,2022     4735               PULSES             =        BIT15                                 #        COMMAND MODE IN         IMPULSE COMMAND MODE
001185:                                                                                                  #        "ATT HOLD" (V76)        (V77)
001186:
001187:                                                                                                  #  BIT 14 FLAG 13
001188: 26,2022                        USEQRFLG           =        196D                                  #        GIMBAL UNUSABLE.        TRIM GIMBAL MAY BE
001189: 26,2022     4736               USEQRJTS           =        BIT14                                 #        USE JETS ONLY.          USED.
001190:
001191:                                                                                                  #  BIT 13 FLAG 13
001192: 26,2022                        CSMDKFLG           =        197D                                  #        CSM DOCKED.  USE        CSM NOT DOCKED TO LM
001193: 26,2022     4737               CSMDOCKD           =        BIT13                                 #        BACKUP DAP
001194:
001195:                                                                                                  #  BIT 12 FLAG 13
001196: 26,2022                        OURRCFLG           =        198D                                  #        CURRENT DAP PASS        CURRENT DAP PASS IS
001197: 26,2022     4740               OURRCBIT           =        BIT12                                 #        IS RATE COMMAND         NOT RATE COMMAND
001198:
001199:                                                                                                  #  BIT 11 FLAG 13
001200: 26,2022                        ACC4-2FL           =        199D                                  #        4 JET X-AXIS TRANS-     2 JET X-AXIS TRANS-
001201: 26,2022     4741               ACC4OR2X           =        BIT11                                 #        LATION REQUESTED        LATION REQUESTED
001202:
001203:                                                                                                  #  BIT 10 FLAG 13
001204: 26,2022                        AORBTFLG           =        200D                                  #        B SYSTEM FOR X-         A SYSTEM FOR X-
001205: 26,2022     4742               AORBTRAN           =        BIT10                                 #        TRANSLATION             TRANSLATION PREFER'D
001206:
001207:                                                                                                  #  BIT 9 FLAG 13
001208: 26,2022                        XOVINFLG           =        201D                                  #        X-AXIS OVERRIDE         X-AXIS OVERRIDE OKAY
001209: 26,2022     4743               XOVINHIB           =        BIT9                                  #        LOCKED OUT
001210:
001211:                                                                                                  #  BIT 8 FLAG 13
001212: 26,2022                        DRIFTDFL           =        202D                                  #        ASSUME 0 OFFSET         USE OFFSET ACCELERA-
001213: 26,2022     4744               DRIFTBIT           =        BIT8                                  #        DRIFTING FLIGHT.        TION ESTIMATE
001214:


001216:                                                                                                  #  BIT 7 FLAG 13
001217: 26,2022                        RHCSCFLG           =        203D                                  #        NORMAL RHC SCALING      FINE RHC SCALING
001218: 26,2022     4745               RHCSCALE           =        BIT7                                  #        REQUESTED               REQUESTED
001219:
001220:                                                                                                  #  BIT 6 FLAG 13
001221: 26,2022                        ULLAGFLG           =        204D                                  #        ULLAGE REQUEST BY       NO INTERNAL ULLAGE
001222: 26,2022     4746               ULLAGER            =        BIT6                                  #        MISSION PROGRAM         REQUEST
001223:
001224:                                                                                                  #  BIT 5 FLAG 13
001225: 26,2022                        DBSL2FLG           =        205D                                  #        5 DEG DEADBAND          1 OR .3 DEG DEADBAND
001226: 26,2022     4747               DBSLECT2           =        BIT5                                  #        SELECTED BY CREW        SELECTED BY CREW
001227:                                                                                                  #                                (SEE BIT4 DAPBOOLS)
001228:
001229:                                                                                                  #  BIT 4 FLAG 13
001230: 26,2022                        DBSELFLG           =        206D                                  #        1 DEG DEADBAND          MIN DB SELECTED BY
001231: 26,2022     4750               DBSELECT           =        BIT4                                  #        SELECTED BY CREW        CREW (0.3 DEG)
001232:
001233:                                                                                                  #  BIT 3 FLAG 13
001234: 26,2022                        ACCOKFLG           =        207D                                  #        CONTROL AUTHORITY       RESTART OR FRESH ST.
001235: 26,2022     4751               ACCSOKAY           =        BIT3                                  #        VALUES FROM 1/ACCS      SINCE LAST 1/ACCS;
001236:                                                                                                  #        USABLE                  OUTPUTS SUSPECT.
001237:
001238:                                                                                                  #  BIT 2 FLAG 13
001239: 26,2022                        AUTR2FLG           =        208D                                  #  THESE FLAGS ARE USED TOGETHER TO INDICAT
001240: 26,2022     4752               AUTRATE2           =        BIT2                                  #  ASTRONAUT-CHOSEN KALCMANU MANEUVER RATES
001241:                                                                                                  #  (0,0)=(BIT2,BIT1)=    0.2 DEG/SEC
001242:                                                                                                  #  (0,1)=                0.5 DEG/SEC
001243:                                                                                                  #  BIT 1 FLAG 13
001244: 26,2022                        AUTR1FLG           =        209D                                  #  (1,0)=                2.0 DEG/SEC
001245: 26,2022     4753               AUTRATE1           =        BIT1                                  #  (1,1)=               10.0 DEG/SEC
001246:


001249:

End of include-file FLAGWORD_ASSIGNMENTS.agc.  Parent file is MAIN.agc


