
Source Code


000002:                                                                                                  ## Copyright:   Public domain.
000003:                                                                                                  ## Filename:    FLAGWORD_ASSIGNMENTS.agc
000004:                                                                                                  ## Purpose:     A section of the reconstructed source code for Luminary 130.
000005:                                                                                                  ##              This was the original program released for the Apollo 13 LM,
000006:                                                                                                  ##              although several more revisions would follow. It has been
000007:                                                                                                  ##              reconstructed from a listing of Luminary 131, from which it
000008:                                                                                                  ##              differs on only two lines in P70-P71. The difference is
000009:                                                                                                  ##              described in detail in Luminary memo #129, which was used
000010:                                                                                                  ##              to perform the reconstruction. This file is intended to be a
000011:                                                                                                  ##              faithful reconstruction, except that the code format has been
000012:                                                                                                  ##              changed to conform to the requirements of the yaYUL assembler
000013:                                                                                                  ##              rather than the original YUL assembler.
000014:                                                                                                  ## Reference:   pp. 61-88
000015:                                                                                                  ## Contact:     Ron Burkey <info@sandroid.org>.
000016:                                                                                                  ## Website:     www.ibiblio.org/apollo/index.html
000017:                                                                                                  ## Mod history: 04/23/03 RSB.   Began.
000018:                                                                                                  ##              05/14/05 RSB    Corrected website reference above.
000019:                                                                                                  ##              05/17/09 RSB    Backported some Luminary 099 fixes pointed
000020:                                                                                                  ##                              out by Onno Hommes.
000021:                                                                                                  ##              2017-01-06 RSB  Page numbers now agree with those on the
000022:                                                                                                  ##                              original hardcopy, as opposed to the PDF page
000023:                                                                                                  ##                              numbers in 1701.pdf.
000024:                                                                                                  ##              2017-02-12 RSB  Proofed comment text using octopus/ProoferComments.
000025:                                                                                                  ##              2017-02-28 RSB  Fixed lingering typos.
000026:                                                                                                  ##              2017-03-02 RSB  Fixed comment-text bugs found whilst proofing
000027:                                                                                                  ##                              Luminary 116.  Also, P00HFLAG --> POOHFLAG, and
000028:                                                                                                  ##                              P00HBIT --> POOHBIT.
000029:                                                                                                  ##              2017-08-14 MAS  Fixed typos found while transcribing Zerlina 56.
000030:                                                                                                  ##              2018-09-04 MAS  Copied from Luminary 131 for Luminary 130.
000031:


000033:                                                                                                  #  FLAGWORDS 0-11        ARE DOWNLINKED AND CAN BE SET AND CLEARED BY UP-FLAG AND DOWN-FLAG INSTRUCTIONS IN THE
000034:                                                                                                  #                        INTERPRETER.  THESE WERE PREVIOUSLY LISTED UNDER "INTERPRETIVE SWITCH BIT ASSIGNMENTS" IN
000035:                                                                                                  #                        THE ERASABLE LOG SECTION.  FLAGWORDS 12 & 13 WEREPREVIOUSLY RADMODES AND DAPBOOLS AND
000036:                                                                                                  #                        ARE STILL DOWNLINKED UNDER THOSE NAMES.
000037:
000038:                                                                                                  #  ALPHABETICAL LIST OF FLAGWORDS
000039:
000040:                                                                                                  #  9             25              41                      61      COLUMN NO.
000041:                                                                                                  #  FLAGWORD      DEC. NUMBER     BIT AND FLAG            BIT NAME
000042:
000043:                                                                                                  #  ABTTGFLG      143             BIT 7 FLAG 9            ABTTGBIT
000044:                                                                                                  #  ACCOKFLG      207             BIT 3  FLAG 13          ACCSOKAY
000045:                                                                                                  #  ACC4-2FL      199             BIT 11 FLAG 13          ACC4OR2X
000046:                                                                                                  #  ACMODFLG      032             BIT 13 FLAG 2           ACMODBIT
000047:                                                                                                  #  ALTSCALE      186             BIT 9  FLAG 12          ALTSCBIT
000048:                                                                                                  #  ANTENFLG      183             BIT 12 FLAG 12          ANTENBIT
000049:                                                                                                  #  AORBSFLG      085             BIT 5 FLAG 5            AORBSYST
000050:                                                                                                  #  AORBTFLG      200             BIT 10 FLAG 13          AORBTRAN
000051:
000052:                                                                                                  #  APSESW        130             BIT 5  FLAG 8           APSESBIT
000053:                                                                                                  #  APSFLAG       152             BIT 13 FLAG 10          APSFLBIT
000054:                                                                                                  #  ASTNFLAG      108             BIT 12 FLAG 7           ASTNBIT
000055:                                                                                                  #  ATTFLAG       104             BIT 1  FLAG 6           ATTFLBIT
000056:                                                                                                  #  AUTOMODE      193             BIT 2  FLAG 12          AUTOMBIT
000057:                                                                                                  #  AUTR1FLG      209             BIT 1  FLAG 13          AUTRATE1
000058:                                                                                                  #  AUTR2FLG      208             BIT 2  FLAG 13          AUTRATE2
000059:                                                                                                  #  AUXFLAG       103             BIT 2  FLAG 6           AUXFLBIT
000060:                                                                                                  #  AVEGFLAG      115             BIT 5  FLAG 7           AVEGFBIT
000061:                                                                                                  #  AVEMIDSW      149             BIT 1  FLAG 9           AVEMDBIT
000062:                                                                                                  #  AVFLAG        040             BIT 5  FLAG 2           AVFLBIT
000063:                                                                                                  #  CALCMAN2      043             BIT 2  FLAG 2           CALC2BIT
000064:                                                                                                  #  CALCMAN3      042             BIT 3  FLAG 2           CALC3BIT
000065:
000066:                                                                                                  #  CDESFLAG      180             BIT 15 FLAG 12          CDESBIT
000067:                                                                                                  #  CMOONFLG      123             BIT 12 FLAG 8           CMOONBIT
000068:                                                                                                  #  COGAFLAG      131             BIT 4  FLAG 8           COGAFBIT
000069:                                                                                                  #  CSMDKFLG      197             BIT 13 FLAG 13          CSMDOCKD
000070:                                                                                                  #  CULTFLAG      053             BIT 7  FLAG 3           CULTBIT
000071:                                                                                                  #  DAPBOOLS                      FLGWRD13
000072:                                                                                                  #  DBSELFLG      206             BIT 4  FLAG 13          DBSELECT
000073:                                                                                                  #  DBSL2FLG      205             BIT 5 FLAG 13           DBSLECT2
000074:                                                                                                  #  DESIGFLG      185             BIT 10 FLAG 12          DESIGBIT
000075:                                                                                                  #  DIDFLAG       016             BIT 14 FLAG             DIDFLBIT
000076:                                                                                                  #  DIMOFLAG      059             BIT 1  FLAG 3           DIMOBIT
000077:                                                                                                  #  DMENFLG       081             BIT 9  FLAG 5           DMENFBIT


000079:                                                                                                  #  DRIFTDFL      202             BIT 8 FLAG 13           DRIFTBIT
000080:                                                                                                  #  DRIFTFLG      030             BIT 15 FLAG 2           DRFTBIT
000081:                                                                                                  #  DSKYFLAG      075             BIT 15 FLAG 5           DSKYFBIT
000082:                                                                                                  #  D6OR9FLG      058             BIT 2 FLAG 3            D6OR9BIT
000083:                                                                                                  #  ENGONFLG      083             BIT 7 FLAG 5            ENGONBIT
000084:                                                                                                  #  ERADFLAG      017             BIT 13 FLAG 1           ERADFBIT
000085:                                                                                                  #  ETPIFLAG      038             BIT 7 FLAG 2            ETPIBIT
000086:                                                                                                  #  FINALFLG      039             BIT 6 FLAG 2            FINALBIT
000087:                                                                                                  #  FLAGWRD0      (000-014)       (STATE +0)
000088:                                                                                                  #  FLAGWRD1      (015-029)       (STATE +1)
000089:                                                                                                  #  FLAGWRD2      (030-044)       (STATE +2)
000090:                                                                                                  #  FLAGWRD3      (045-059)       (STATE +3)
000091:                                                                                                  #  FLAGWRD4      (060-074)       (STATE +4)
000092:                                                                                                  #  FLAGWRD5      (075-089)       (STATE +5)
000093:                                                                                                  #  FLAGWRD6      (090-104)       (STATE +6)
000094:                                                                                                  #  FLAGWRD7      (105-119)       (STATE +7)
000095:                                                                                                  #  FLAGWRD8      (120-134)       (STATE +8D)
000096:                                                                                                  #  FLAGWRD9      (135-149)       (STATE +9D)
000097:                                                                                                  #  FLAP          142             BIT 8 FLAG 9            FLAPBIT
000098:                                                                                                  #  FLGWRD10      (150-164)       (STATE +10D)
000099:                                                                                                  #  FLGWRD11      (165-179)       (STATE +11D)
000100:                                                                                                  #  FLGWRD12      (180-194)       (STATE +12D)
000101:                                                                                                  #  FLGWRD13      (195-209)       (STATE +13D)
000102:                                                                                                  #  FLPC          138             BIT 12 FLAG 9           FLPCBIT
000103:                                                                                                  #  FLPI          139             BIT 11 FLAG 9           FLPIBIT
000104:                                                                                                  #  FLRCS         149             BIT 10 FLAG 9           FLRCSBIT
000105:                                                                                                  #  FLUNDISP      125             BIT 10 FLAG 8           FLUNDBIT
000106:                                                                                                  #  FLVR          136             BIT 14 FLAG 9           FLVRBIT
000107:                                                                                                  #  FREEFLAG      012             BIT 3 FLAG 0            FREEFBIT
000108:                                                                                                  #  FSPASFLG      005             BIT 10 FLAG 0           FSPASBIT
000109:                                                                                                  #  GLOKFAIL      046             BIT 14 FLAG 3           GLOKFBIT
000110:                                                                                                  #  GMBDRVSW      095             BIT 10 FLAG 6           GMBDRBIT
000111:                                                                                                  #  GUESSW        028             BIT 2 FLAG 1            GUESSBIT
000112:                                                                                                  #  HFLSHFLG      179             BIT 1 FLAG 11           HFLSHBIT
000113:                                                                                                  #  IDLEFLAG      113             BIT 7 FLAG 7            IDLEFBIT
000114:                                                                                                  #  IGNFLAG       107             BIT 13 FLAG 7           IGNFLBIT
000115:                                                                                                  #  IMPULSW       036             BIT 9 FLAG 2            IMPULBIT
000116:                                                                                                  #  IMUSE         007             BIT 8 FLAG 0            IMUSEBIT
000117:                                                                                                  #  INFINFLG      128             BIT 7 FLAG 8            INFINBIT
000118:                                                                                                  #  INITALGN      133             BIT 2 FLAG 8            INITABIT
000119:                                                                                                  #  INTFLAG       151             BIT 14 FLAG 10          INTFLBIT
000120:                                                                                                  #  INTYPFLG      056             BIT 4 FLAG 3            INTYPBIT
000121:                                                                                                  #  ITSWICH       105             BIT 15 FLAG 7           ITSWBIT
000122:                                                                                                  #  JSWITCH       001             BIT 14 FLAG 0           JSWCHBIT
000123:
000124:                                                                                                  #  LETABORT      141             BIT 9  FLAG 9           LETABBIT
000125:                                                                                                  #  LMOONFLG      124             BIT 11 FLAG 8           LMOONBIT
000126:                                                                                                  #  LOKONSW       010             BIT 5  FLAG 0           LOKONBIT
000127:                                                                                                  #  LOSCMFLG      033             BIT 12 FLAG 2           LOSCMBIT
000128:                                                                                                  #  LPOS2FLG      174             BIT 6 FLAG 11           LPOS2BIT
000129:                                                                                                  #  LRALTFLG      190             BIT 5  FLAG 12          LRALTBIT


000131:                                                                                                  #  LRBYPASS      165             BIT 15 FLAG 11          LRBYBIT
000132:                                                                                                  #  LRINH         172             BIT 8 FLAG 11           LRINHBIT
000133:                                                                                                  #  LRPOSFLG      189             BIT 6 FLAG 12           LRPOSBIT
000134:                                                                                                  #  LRVELFLG      187             BIT 8 FLAG 12           LRVELBIT
000135:                                                                                                  #  LUNAFLAG      048             BIT 12 FLAG 3           LUNABIT
000136:                                                                                                  #  MANUFLAG      106             BIT 14 FLAG 7           MANUFBIT
000137:                                                                                                  #  MGLVFLAG      088             BIT 2 FLAG 5            MGLVFBIT
000138:                                                                                                  #  MIDAVFLG      148             BIT 2 FLAG 9            MIDAVBIT
000139:                                                                                                  #  MIDFLAG       002             BIT 13 FLAG 0           MIDFLBIT
000140:                                                                                                  #  MID1FLAG      147             BIT 3 FLAG 9            MID1BIT
000141:                                                                                                  #  MKOVFLAG      072             BIT 3 FLAG 4            MKOVBIT
000142:                                                                                                  #  MOONFLAG      003             BIT 12 FLAG 0           MOONBIT
000143:                                                                                                  #  MRKIDFLG      060             BIT 15 FLAG 4           MRKIDBIT
000144:                                                                                                  #  MRKNVFLG      066             BIT 9 FLAG 4            MRKNVBIT
000145:                                                                                                  #  MRUPTFLG      070             BIT 5 FLAG 4            MRUPTBIT
000146:                                                                                                  #  MUNFLAG       097             BIT 8 FLAG 6            MUNFLBIT
000147:                                                                                                  #  MWAITFLG      064             BIT 11 FLAG 4           MWAITBIT
000148:                                                                                                  #  NEEDLFLG      011             BIT 4 FLAG 0            NEEDLBIT
000149:                                                                                                  #  NEED2FLG      000             BIT 15 FLAG 0           NEED2BIT
000150:                                                                                                  #  NEWIFLG       122             BIT 13 FLAG 8           NEWIBIT
000151:                                                                                                  #  NJETSFLG      015             BIT 15 FLAG             NJETSBIT
000152:                                                                                                  #  NODOFLAG      044             BIT 1 FLAG 2            NODOBIT
000153:                                                                                                  #  NOLRREAD      170             BIT 10 FLAG 11          NOLRRBIT
000154:                                                                                                  #  NORMSW        110             BIT 10 FLAG 7           NORMSBIT
000155:                                                                                                  #  NORRMON       086             BIT 4 FLAG 5            NORRMBIT
000156:                                                                                                  #  NOR29FLG      049             BIT 11 FLAG 3           NR29FBIT
000157:                                                                                                  #  NOTHROTL      078             BIT 12 FLAG 5           NOTHRBIT
000158:                                                                                                  #  NOUPFLAG      024             BIT 6 FLAG 1            NOUPFBIT
000159:                                                                                                  #  NO511FLG      177             BIT 3 FLAG 11           NO511BIT
000160:                                                                                                  #  NRMNVFLG      067             BIT 8 FLAG 4            NRMNVBIT
000161:                                                                                                  #  NRMIDFLG      062             BIT 13 FLAG 4           NRMIDBIT
000162:                                                                                                  #  NRUPTFLG      071             BIT 4 FLAG 4            NRUPTBIT
000163:                                                                                                  #  NTARGFLG      102             BIT 3 FLAG 6            NTARGBIT
000164:                                                                                                  #  NWAITFLG      065             BIT 10 FLAG 4           NWAITBIT
000165:                                                                                                  #  OLDESFLG      014             BIT 1 FLAG 0            OLDESBIT
000166:                                                                                                  #  ORBWFLAG      054             BIT 6 FLAG 3            ORBWFBIT
000167:                                                                                                  #  ORDERSW       129             BIT 6 FLAG 8            ORDERBIT
000168:                                                                                                  #  OURRCFLG      198             BIT 12 FLAG 13          OURRCBIT
000169:                                                                                                  #  PDSPFLAG      063             BIT 12 FLAG 4           PDSPFBIT
000170:                                                                                                  #  PFRATFLG      041             BIT 4 FLAG 2            PFRATBIT
000171:                                                                                                  #  PINBRFLG      069             BIT 6 FLAG 4            PINBRBIT
000172:                                                                                                  #  POOHFLAG      045             BIT 15 FLAG 3           POOHBIT
000173:                                                                                                  #  PRECIFLG      052             BIT 8 FLAG 3            PRECIBIT
000174:                                                                                                  #  PRIODFLG      061             BIT 14 FLAG 1           PRIODBIT
000175:                                                                                                  #  PRONVFLG      068             BIT 7 FLAG 4            PRONVBIT
000176:                                                                                                  #  PSTHIGAT      169             BIT 11 FLAG 11          PSTHIBIT
000177:                                                                                                  #  PULSEFLG      195             BIT 15 FLAG 13          PULSES
000178:                                                                                                  #  P21FLAG       004             BIT 11 FLAG 0           P21FLBIT
000179:                                                                                                  #  P25FLAG       006             BIT 9 FLAG 0            P25FLBIT
000180:                                                                                                  #  P7071FLG      137             BIT 13 FLAG 9           P7071BIT


000182:                                                                                                  #  QUITFLAG      145             BIT 5 FLAG 9            QUITBIT
000183:                                                                                                  #  RADMODES                      FLGWRD12
000184:                                                                                                  #  RASFLAG                       FLGWRD10
000185:                                                                                                  #  RCDUFAIL      188             BIT 7 FLAG 12           RCDUFBIT
000186:                                                                                                  #  RCDU0FLG      182             BIT 13 FLAG 12          RCDU0BIT
000187:                                                                                                  #  READRFLG      051             BIT 9 FLAG 3            READRBIT        EQUIVALENT FLAG NAME:  R04FLAG
000188:                                                                                                  #  READVEL       175             BIT 5 FLAG 11           READVBIT
000189:                                                                                                  #  REDFLAG       099             BIT 6 FLAG 6            REDFLBIT
000190:                                                                                                  #  REFSMFLG      047             BIT 13 FLAG 3           REFSMBIT
000191:                                                                                                  #  REINTFLG      158             BIT 7 FLAG 10           REINTBIT
000192:                                                                                                  #  REMODFLG      181             BIT 14 FLAG 12          REMODBIT
000193:                                                                                                  #  RENDWFLG      089             BIT 1 FLAG 5            RENDWBIT
000194:                                                                                                  #  REPOSMON      184             BIT 11 FLAG 12          REPOSBIT
000195:                                                                                                  #  RHCSCFLG      203             BIT 7 FLAG 13           RHCSCALE
000196:                                                                                                  #  RNDVZFLG      008             BIT 7 FLAG 0            RNDVZBIT
000197:                                                                                                  #  RNGEDATA      176             BIT 4 FLAG 11           RNGEDBIT
000198:                                                                                                  #  RNGSCFLG      080             BIT 10 FLAG 5           RNGSCBIT
000199:                                                                                                  #  RODFLAG       018             BIT 12 FLAG 1           RODFLBIT
000200:                                                                                                  #  ROTFLAG       144             BIT 6 FLAG 9            ROTFLBIT
000201:                                                                                                  #  RPQFLAG       120             BIT 15 FLAG 8           RPQFLBIT
000202:                                                                                                  #  RRDATAFL      191             BIT 4 FLAG 12           RRDATABT
000203:                                                                                                  #  RRNBSW        009             BIT 6 FLAG 0            RRNBBIT
000204:                                                                                                  #  RRRSFLAG      192             BIT 3 FLAG 12           RRRSBIT
000205:                                                                                                  #  RVSW          111             BIT 9 FLAG 7            RVSWBIT
000206:                                                                                                  #  R04FLAG       051             BIT 9 FLAG 3            R04FLBIT        EQUIVALENT FLAG NAME:  READRFLG
000207:                                                                                                  #  R10FLAG       013             BIT 2 FLAG 0            R10FLBIT
000208:                                                                                                  #  R61FLAG       020             BIT 10 FLAG 1           R61FLBIT
000209:                                                                                                  #  R77FLAG       079             BIT 11 FLAG 5           R77FLBIT
000210:                                                                                                  #  SLOPESW       027             BIT 3 FLAG 1            SLOPEBIT
000211:                                                                                                  #  SNUFFER       077             BIT 13 FLAG 5           SNUFFBIT
000212:                                                                                                  #  SOLNSW        087             BIT 3 FLAG 5            SOLNSBIT
000213:                                                                                                  #  SRCHOPTN      031             BIT 14 FLAG 2           SRCHOBIT
000214:                                                                                                  #  STATEFLG      055             BIT 5 FLAG 3            STATEBIT
000215:                                                                                                  #  STEERSW       034             BIT 11 FLAG 2           STEERBIT
000216:                                                                                                  #  SURFFLAG      127             BIT 8 FLAG 8            SURFFBIT
000217:                                                                                                  #  SWANDISP      109             BIT 11 FLAG 7           SWANDBIT
000218:                                                                                                  #  S32.1F1       090             BIT 15 FLAG 6           S32BIT1
000219:                                                                                                  #  S32.1F2       092             BIT 14 FLAG 6           S32BIT2
000220:                                                                                                  #  S32.1F3A      092             BIT 13 FLAG 6           S32BIT3A
000221:                                                                                                  #  S32.1S3B      093             BIT 12 FLAG 6           S32BIT3B
000222:                                                                                                  #  TFFSW         119             BIT 1 FLAG 7            TFFSWBIT
000223:                                                                                                  #  TRACKFLG      025             BIT 5 FLAG 1            TRACKBIT
000224:                                                                                                  #  TURNONFL      194             BIT 1 FLAG 12           TURNONBT
000225:                                                                                                  #  ULLAGFLG      204             BIT 6 FLAG 13           ULLAGER
000226:                                                                                                  #  UPDATFLG      023             BIT 7 FLAG 1            UPDATBIT
000227:                                                                                                  #  UPLOCKFL      116             BIT 4 FLAG 7            UPLOCBIT
000228:                                                                                                  #  USEQRFLG      196             BIT 14 FLAG 13          USEQRJTS
000229:                                                                                                  #  VEHUPFLG      022             BIT 8 FLAG 1            VEHUPBIT
000230:                                                                                                  #  VELDATA       173             BIT 7 FLAG 11           VELDABIT
000231:                                                                                                  #  VERIFLAG      117             BIT 3 FLAG 7            VERIFBIT


000233:                                                                                                  #  VFLAG         050             BIT 10 FLAG 3           VFLAGBIT
000234:                                                                                                  #  VFLSHFLG      178             BIT 2 FLAG 11           VFLSHBIT
000235:                                                                                                  #  VINTFLAG      057             BIT 3 FLAG 3            VINTFBIT
000236:                                                                                                  #  VXINH         168             BIT 12 FLAG 11          VXINHBIT
000237:                                                                                                  #  V37FLAG       114             BIT 6 FLAG 7            V37FLBIT
000238:                                                                                                  #  V67FLAG       112             BIT 8 FLAG 7            V67FLBIT
000239:                                                                                                  #  V82EMFLG      118             BIT 2 FLAG 7            V82EMBIT
000240:                                                                                                  #  XDELVFLG      037             BIT 8 FLAG 2            XDELVBIT
000241:                                                                                                  #  XDSPFLAG      074             BIT 1 FLAG 4            XDSPBIT
000242:                                                                                                  #  XORFLG        171             BIT 9 FLAG 11           XORFLBIT
000243:                                                                                                  #  XOVINFLG      201             BIT 9 FLAG 13           XOVINHIB
000244:                                                                                                  #  ZOOMFLAG      082             BIT 8 FLAG 5            ZOOMBIT
000245:                                                                                                  #  3AXISFLG      084             BIT 6 FLAG 5            3AXISBIT
000246:                                                                                                  #  360SW         134             BIT 1 FLAG 8            360SWBIT
000247:
000248:                                                                                                  #  ASSIGNMENT AND DESCRIPTION OF FLAGWORDS
000249:
000250: 26,2022     0074               FLAGWRD0           =        STATE      +0                         #  (000-014)
000251:
000252:                                                                                                  #        (SET)                   (RESET)
000253:
000254:                                                                                                  #  BIT 15 FLAG 0 (S)
000255: 26,2022                        NEED2FLG           =        000D                                  #        DISPLAY DAP RATES       CHECK BIT 4 OF THIS
000256: 26,2022     4735               NEED2BIT           =        BIT15                                 #        ON FDAI NEEDLES.        WORD FOR DISPLAY
000257:                                                                                                  #                                MODES (1 OR 2).
000258:
000259:                                                                                                  #  BIT 14 FLAG 0 (S)
000260: 26,2022                        JSWITCH            =        001D                                  #        INTEGRATION OF W        INTEGRATION OF STATE
000261: 26,2022     4736               JSWCHBIT           =        BIT14                                 #        MATRIX                  VECTOR
000262:
000263:                                                                                                  #  BIT 13 FLAG 0 (S)
000264: 26,2022                        MIDFLAG            =        002D                                  #        INTEGRATION WITH        INTEGRATION WITHOUT
000265:                                                                                                  #        SECONDARY BODY AND      SOLAR PERTURBATIONS
000266: 26,2022     4737               MIDFLBIT           =        BIT13                                 #        SOLAR PERTURBATIONS
000267:
000268:                                                                                                  #  BIT 12 FLAG 0 (L)
000269: 26,2022                        MOONFLAG           =        003D                                  #        MOON IS SPHERE OF       EARTH IS SPHERE OF
000270: 26,2022     4740               MOONBIT            =        BIT12                                 #        INFLUENCE               INFLUENCE
000271:
000272:                                                                                                  #  BIT 11 FLAG 0
000273: 26,2022                        P21FLAG            =        004D                                  #        USE BASE VECTORS        1ST PASS -- CALC-
000274: 26,2022     4741               P21FLBIT           =        BIT11                                 #        ALREADY CALCULATED      ULATE BASE VECTORS
000275:


000277:                                                                                                  #  BIT 10 FLAG 0
000278: 26,2022                        FSPASFLG           =        005D                                  #        FIRST PASS THROUGH      NOT FIRST PASS THRU
000279: 26,2022     4742               FSPASBIT           =        BIT10                                 #        REPOSITION ROUTINE      REPOSITION ROUTINE
000280:
000281:                                                                                                  #  BIT 9 FLAG 0  (S)
000282: 26,2022                        P25FLAG            =        006D                                  #        P25 OPERATING           P25 NOT OPERATING
000283: 26,2022     4743               P25FLBIT           =        BIT9
000284:
000285:                                                                                                  #  BIT 8 FLAG 0  (S)
000286: 26,2022                        IMUSE              =        007D                                  #        IMU IN USE              IMU NOT IN USE
000287: 26,2022     4744               IMUSEBIT           =        BIT8
000288:
000289:                                                                                                  #  BIT 7 FLAG 0  (S)
000290: 26,2022                        RNDVZFLG           =        008D                                  #        P20 RUNNING (RADAR      P20 NOT RUNNING
000291: 26,2022     4745               RNDVZBIT           =        BIT7                                  #        IN USE)
000292:
000293:                                                                                                  #  BIT 6 FLAG 0  (S)
000294: 26,2022                        RRNBSW             =        009D                                  #        RADAR TARGET IN RADAR TARGET IN
000295: 26,2022     4746               RRNBBIT            =        BIT6                                  #        NB COORDINATES  SM COORDINATES
000296:
000297:                                                                                                  #  BIT 5 FLAG 0  (S)
000298: 26,2022                        LOKONSW            =        010D                                  #        RADAR LOCK-ON           RADAR LOCK-ON NOT
000299: 26,2022     4747               LOKONBIT           =        BIT5                                  #        DESIRED                 DESIRED
000300:
000301:                                                                                                  #  BIT 4 FLAG 0  (S)
000302: 26,2022                        NEEDLFLG           =        011D                                  #        TOTAL ATTITUDE  A/P FOLLOWING
000303: 26,2022     4750               NEEDLBIT           =        BIT4                                  #        ERROR DISPLAYED ERROR DISPLAYED
000304:
000305:                                                                                                  #  BIT 3 FLAG 0
000306: 26,2022                        FREEFLAG           =        012D                                  #  (USED BY P51-53 TEMP IN MANY DIFFERENT
000307:                                                                                                  #  ROUTINES & BY LUNAR + SOLAR EPHEMERIDES)
000308: 26,2022     4751               FREEFBIT           =        BIT3
000309:
000310:                                                                                                  #  BIT 2 FLAG 0
000311: 26,2022                        R10FLAG            =        013D                                  #        R10 OUTPUTS DATA TO     BESIDES OUTPUT WHEN
000312: 26,2022     4752               R10FLBIT           =        BIT2                                  #        ALTITUDE & ALTITUDE     SET, R10 ALSO OUTPUT
000313:                                                                                                  #        RATE METERS ONLY        TO FORWARD & LATERAL
000314:                                                                                                  #                                VELOCITY CROSSPOINTR
000315:
000316:                                                                                                  #  BIT 1 FLAG 0  (L)
000317: 26,2022                        OLDESFLG           =        014D                                  #        R29 GYRO CMD LOOP       R29 GYRO CMD LOOP


000319: 26,2022     4753               OLDESBIT           =        BIT1                                  #        REQUESTED               NOT REQUESTED
000320:
000321: 26,2022     0075               FLAGWRD1           =        STATE      +1                         #  (015-029)
000322:
000323:                                                                                                  #        (SET)                   (RESET)
000324:
000325:                                                                                                  #  BIT 15 FLAG 1 (S)
000326: 26,2022                        NJETSFLG           =        015D                                  #        TWO JET RCS BURN        FOUR JET RCS BURN
000327: 26,2022     4735               NJETSBIT           =        BIT15
000328:
000329:                                                                                                  #  BIT 14 FLAG 1 (L)
000330: 26,2022                        DIDFLAG            =        016D                                  #        INERTIAL DATA IS        PERFORM DATA DISPLAY
000331: 26,2022     4736               DIDFLBIT           =        BIT14                                 #        AVAILABLE               INITIALIZATION FUNCS
000332:
000333:                                                                                                  #  BIT 13 FLAG 1 (S)
000334: 26,2022                        ERADFLAG           =        017D                                  #        COMPUTE REARTH          USE CONSTANT REARTH
000335: 26,2022     4737               ERADFBIT           =        BIT13                                 #        FISCHER ELLIPSOID       PAD RADIUS
000336:
000337:                                                                                                  #  BIT 12 FLAG 1
000338: 26,2022                        RODFLAG            =        018D                                  #        IF IN P66, NORMAL       IF IN P66, RE-INIT-
000339: 26,2022     4740               RODFLBIT           =        BIT12                                 #        OPERATION CONTINUES.    IALIZATION IS PER-
000340:                                                                                                  #        RESTART CLEARS FLAG     FORMED AND FLAG IS
000341:
000342:                                                                                                  #  BIT 11 FLAG 1
000343:                                                                                                  #                =       019D
000344:                                                                                                  #                =       BIT11
000345:
000346:                                                                                                  #  BIT 10 FLAG 1 (L)
000347: 26,2022                        R61FLAG            =        020D                                  #        RUN R61 LEM             RUN R65 LEM
000348: 26,2022     4742               R61FLBIT           =        BIT10
000349:
000350:                                                                                                  #  BIT 9 FLAG 1
000351:                                                                                                  #                =       021D
000352:                                                                                                  #                =       BIT9
000353:
000354:                                                                                                  #  BIT 8 FLAG 1  (S)
000355: 26,2022                        VEHUPFLG           =        022D                                  #        CSM STATE VECTOR        LEM STATE VECTOR
000356: 26,2022     4744               VEHUPBIT           =        BIT8                                  #        BEING UPDATED           BEING UPDATED
000357:
000358:                                                                                                  #  BIT 7 FLAG 1  (S)
000359: 26,2022                        UPDATFLG           =        023D                                  #        UPDATING BY MARKS       UPDATING BY MARKS
000360: 26,2022     4745               UPDATBIT           =        BIT7                                  #        ALLOWED                 NOT ALLOWED
000361:


000363:                                                                                                  #  BIT 6 FLAG 1  (S)
000364: 26,2022                        NOUPFLAG           =        024D                                  #        NEITHER CSM             EITHER STATE
000365:                                                                                                  #        NOR LM STATE VECTOR     VECTOR MAY BE
000366: 26,2022     4746               NOUPFBIT           =        BIT6                                  #        MAY BE UPDATED          UPDATED
000367:
000368:                                                                                                  #  BIT 5 FLAG 1  (S)
000369: 26,2022                        TRACKFLG           =        025D                                  #        TRACKING ALLOWED        TRACKING NOT ALLOWED
000370: 26,2022     4747               TRACKBIT           =        BIT5
000371:
000372:                                                                                                  #  BIT 4 FLAG 1
000373:                                                                                                  #                =       026D
000374:                                                                                                  #                =       BIT4
000375:
000376:                                                                                                  #  BIT 3 FLAG 1  (S)
000377: 26,2022                        SLOPESW            =        027D                                  #        ITERATE WITH BIAS       ITERATE WITH REGULAR
000378:                                                                                                  #        METHOD IN ITERATOR      FALSI METHOD IN
000379: 26,2022     4751               SLOPEBIT           =        BIT3                                  #                                ITERATOR
000380:
000381:                                                                                                  #  BIT 2 FLAG 1  (S)
000382: 26,2022                        GUESSW             =        028D                                  #        NO STARTING VALUE       STARTING VALUE FOR
000383: 26,2022     4752               GUESSBIT           =        BIT2                                  #        FOR ITERATION           ITERATION EXISTS
000384:
000385:                                                                                                  #  BIT 1 FLAG 1
000386:                                                                                                  #                =       029D
000387:
000388: 26,2022     0076               FLAGWRD2           =        STATE      +2                         #  (030-044)
000389:
000390:                                                                                                  #        (SET)                   (RESET)
000391:
000392:                                                                                                  #  BIT 15 FLAG 2 (S)
000393: 26,2022                        DRIFTFLG           =        030D                                  #        T3RUPT CALLS GYRO       T3RUPT DOES NO GYRO
000394: 26,2022     4735               DRFTBIT            =        BIT15                                 #        COMPENSATION            COMPENSATION
000395:
000396:                                                                                                  #  BIT 14 FLAG 2 (S)
000397: 26,2022                        SRCHOPTN           =        031D                                  #        RADAR IN AUTOMATIC      RADAR NOT IN AUTO-
000398: 26,2022     4736               SRCHOBIT           =        BIT14                                 #        SEARCH OPTION (R24)     MATIC SEARCH OPTION
000399:
000400:                                                                                                  #  BIT 13 FLAG 2 (S)
000401: 26,2022                        ACMODFLG           =        032D                                  #        MANUAL ACQUISITION      AUTO ACQUISITION
000402: 26,2022     4737               ACMODBIT           =        BIT13                                 #        BY RENDESVOUS RADAR     BY RENDESVOUS RADAR
000403:


000405:                                                                                                  #  BIT 12 FLAG 2 (S)
000406: 26,2022                        LOSCMFLG           =        033D                                  #        LINE OF SIGHT BEING     LINE OF SIGHT NOT
000407:                                                                                                  #        COMPUTED (R21)          BEING COMPUTED
000408: 26,2022     4740               LOSCMBIT           =        BIT12
000409:                                                                                                  #        IN R29 (L): RR GYRO     IN R29 (L): RR GYRO
000410:                                                                                                  #        CMD LOOP RUNNING        CMD LOOP OFF
000411:
000412:                                                                                                  #  BIT 11 FLAG 2 (S)
000413: 26,2022                        STEERSW            =        034D                                  #        SUFFICIENT THRUST       INSUFFICIENT THRUST
000414: 26,2022     4741               STEERBIT           =        BIT11                                 #        IS PRESENT              IS PRESENT
000415:
000416:                                                                                                  #  BIT 10 FLAG 2 (S)
000417: 26,2022                                           =        035D
000418: 26,2022                                           =        BIT10
000419:
000420:                                                                                                  #  BIT 9 FLAG 2 (S)
000421: 26,2022                        IMPULSW            =        036D                                  #        MINIMUM IMPULSE         STEERING BURN (NO
000422:                                                                                                  #        BURN (CUTOFF TIME       CUTOFF TIME YET
000423: 26,2022     4743               IMPULBIT           =        BIT9                                  #        SPECIFIED)              AVAILABLE)
000424:
000425:                                                                                                  #  BIT 8 FLAG 2 (S)
000426: 26,2022                        XDELVFLG           =        037D                                  #        EXTERNAL DELTAV VG      LAMBERT (AIMPOINT)
000427: 26,2022     4744               XDELVBIT           =        BIT8                                  #        COMPUTATION             VG COMPUTATION
000428:
000429:                                                                                                  #  BIT 7 FLAG 2 (S)
000430: 26,2022                        ETPIFLAG           =        038D                                  #        ELEVATION ANGLE         TPI TIME SUPPLIED
000431:                                                                                                  #        SUPPLIED FOR            FOR P34,74 TO COMPUT
000432: 26,2022     4745               ETPIBIT            =        BIT7                                  #        P34,74                  ELEVATION
000433:
000434:                                                                                                  #  BIT 6 FLAG 2 (S)
000435: 26,2022                        FINALFLG           =        039D                                  #        LAST PASS THROUGH       INTERIM PASS THROUGH
000436:                                                                                                  #        RENDEZVOUS PROGRAM      RENDEZVOUS PROGRAM
000437: 26,2022     4746               FINALBIT           =        BIT6                                  #        COMPUTATIONS            COMPUTATIONS
000438:
000439:                                                                                                  #  BIT 5 FLAG 2 (S)
000440: 26,2022                        AVFLAG             =        040D                                  #        LEM IS ACTIVE           CSM IS ACTIVE
000441: 26,2022     4747               AVFLBIT            =        BIT5                                  #        VEHICLE                 VEHICLE
000442:
000443:                                                                                                  #  BIT 4 FLAG 2 (S)
000444: 26,2022                        PFRATFLG           =        041D                                  #        PREFERRED ATTITUDE      PREFERRED ATTITUDE
000445: 26,2022     4750               PFRATBIT           =        BIT4                                  #        COMPUTED                NOT COMPUTED
000446:


000448:                                                                                                  #  BIT 3 FLAG 2 (S)
000449: 26,2022                        CALCMAN3           =        042D                                  #        NO FINAL ROLL           FINAL ROLL IS
000450: 26,2022     4751               CALC3BIT           =        BIT3                                  #                                NECESSARY
000451:
000452:                                                                                                  #  BIT 2 FLAG 2 (S)
000453: 26,2022                        CALCMAN2           =        043D                                  #        PERFORM MANEUVER        BYPASS STARTING
000454: 26,2022     4752               CALC2BIT           =        BIT2                                  #        STARTING PROCEDURE      PROCEDURE
000455:
000456:                                                                                                  #  BIT 1 FLAG 2 (S)
000457: 26,2022                        NODOFLAG           =        044D                                  #        V37 NOT PERMITTED       V37 PERMITTED
000458: 26,2022     4753               NODOBIT            =        BIT1
000459:
000460: 26,2022     0077               FLAGWRD3           =        STATE      +3                         #  (045-059)
000461:
000462:                                                                                                  #        (SET)                   (RESET)
000463:
000464:                                                                                                  #  BIT 15 FLAG 3
000465: 26,2022                        POOHFLAG           =        045D                                  #        INHIBIT BACKWARDS       ALLOW BACKWARDS
000466: 26,2022     4735               POOHBIT            =        BIT15                                 #        INTEGRATION             INTEGRATION
000467:
000468:                                                                                                  #  BIT 14 FLAG 3 (S)
000469: 26,2022                        GLOKFAIL           =        046D                                  #        GIMBAL LOCK HAS         NOT IN GIMBAL LOCK
000470: 26,2022     4736               GLOKFBIT           =        BIT14                                 #        OCCURRED
000471:
000472:                                                                                                  #  BIT 13 FLAG 3 *** PROTECTED FROM FRESH START ***
000473: 26,2022                        REFSMFLG           =        047D                                  #        REFSMMAT GOOD           REFSMMAT NO GOOD
000474: 26,2022     4737               REFSMBIT           =        BIT13
000475:
000476:                                                                                                  #  BIT 12 FLAG 3 (S)
000477: 26,2022                        LUNAFLAG           =        048D                                  #        LUNAR LAT-LONG          EARTH LAT-LONG
000478: 26,2022     4740               LUNABIT            =        BIT12
000479:
000480:                                                                                                  #  BIT 11 FLAG 3 (L)
000481: 26,2022                        NOR29FLG           =        049D                                  #        R29 NOT ALLOWED         R29 ALOWED (RR DES-
000482: 26,2022     4741               NR29FBIT           =        BIT11                                 #                                IGNATE, POWERED FLT)
000483:
000484:                                                                                                  #  BIT 10 FLAG 3 (S)
000485: 26,2022                        VFLAG              =        050D                                  #        LESS THAN TWO STARS     TWO STARS IN FIELD
000486: 26,2022     4742               VFLAGBIT           =        BIT10                                 #        IN FIELD OF VIEW        OF VIEW
000487:
000488:                                                                                                  #  BIT 9 FLAG 3  (S)


000490: 26,2022                        R04FLAG            =        051D                                  #        ALARM 521               ALARM 521 ALLOWED
000491:                                                                                                  #        SUPPRESSED
000492: 26,2022     4743               R04FLBIT           =        BIT9
000493:
000494:                                                                                                  #  BIT 9 FLAG 3  (L)
000495: 26,2022  0000063               READRFLG           =        R04FLAG                               #        READING RR DATA         NOT READING RR DATA
000496: 26,2022     4743               READRBIT           =        BIT9                                  #        PURSUANT TO R29         PURSUANT TO R29
000497:
000498:                                                                                                  #  BIT 8 FLAG 3  (S)
000499: 26,2022                        PRECIFLG           =        052D                                  #        NORMAL INTEGRATION      ENGAGES 4-TIME STEP
000500:                                                                                                  #        IN POO                  (POO) LOGIC IN INTE-
000501: 26,2022     4744               PRECIBIT           =        BIT8                                  #                                GRATION
000502:
000503:                                                                                                  #  BIT 7 FLAG 3  (S)
000504: 26,2022                        CULTFLAG           =        053D                                  #        STAR OCCULTED           STAR NOT OCCULTED
000505: 26,2022     4745               CULTBIT            =        BIT7
000506:
000507:                                                                                                  #  BIT 6 FLAG 3  (S)
000508: 26,2022                        ORBWFLAG           =        054D                                  #        W MATRIX VALID FOR      W MATRIX INVALID FOR
000509: 26,2022     4746               ORBWFBIT           =        BIT6                                  #        ORBITAL NAVIGATION      ORBITAL NAVIGATION
000510:
000511:                                                                                                  #  BIT 5 FLAG 3  (S)
000512: 26,2022                        STATEFLG           =        055D                                  #        PERMANENT STATE         PERMANENT STATE
000513: 26,2022     4747               STATEBIT           =        BIT5                                  #        VECTOR UPDATED          VECTOR NOT UPDATED
000514:
000515:                                                                                                  #  BIT 4 FLAG 3  (S)
000516: 26,2022                        INTYPFLG           =        056D                                  #        CONIC INTEGRATION       ENCKE INTEGRATION
000517: 26,2022     4750               INTYPBIT           =        BIT4
000518:
000519:                                                                                                  #  BIT 3 FLAG 3  (S)
000520: 26,2022                        VINTFLAG           =        057D                                  #        CSM STATE VECTOR        LEM STATE VECTOR
000521: 26,2022     4751               VINTFBIT           =        BIT3                                  #        BEING INTEGRATED        BEING INTEGRATED
000522:
000523:                                                                                                  #  BIT 2 FLAG 3 (S)
000524: 26,2022                        D6OR9FLG           =        058D                                  #        DIMENSION OF W IS 9     DIMENSION OF W IS 6
000525: 26,2022     4752               D6OR9BIT           =        BIT2                                  #        FOR INTEGRATION         FOR INTEGRATION
000526:
000527:                                                                                                  #  BIT 1 FLAG 3  (S)
000528: 26,2022                        DIM0FLAG           =        059D                                  #        W MATRIX IS TO BE       W MATRIX IS NOT TO
000529: 26,2022     4753               DIM0BIT            =        BIT1                                  #        USED                    BE USED
000530:


000532: 26,2022     0100               FLAGWRD4           =        STATE      +4                         #  (060-074)
000533:
000534:                                                                                                  #        (SET)                   (RESET)
000535:
000536:                                                                                                  #  BIT 15 FLAG 4 (S)
000537: 26,2022                        MRKIDFLG           =        060D                                  #        MARK DISPLAY IN         NO MARK DISPLAY IN
000538: 26,2022     4735               MRKIDBIT           =        BIT15                                 #        ENDIDLE                 ENDIDLE
000539:
000540:                                                                                                  #  BIT 14 FLAG 4 (S)
000541: 26,2022                        PRIODFLG           =        061D                                  #        PRIORITY DISPLAY IN     NO PRIORITY DISPLAY
000542: 26,2022     4736               PRIODBIT           =        BIT14                                 #        ENDIDLE                 IN ENDIDLE
000543:
000544:                                                                                                  #  BIT 13 FLAG 4 (S)
000545: 26,2022                        NRMIDFLG           =        062D                                  #        NORMAL DISPLAY IN       NO NORMAL DISPLAY
000546: 26,2022     4737               NRMIDBIT           =        BIT13                                 #        ENDIDLE                 IN ENDIDLE
000547:
000548:                                                                                                  #  BIT 12 FLAG 4 (S)
000549: 26,2022                        PDSPFLAG           =        063D                                  #        P20 SETS SO AS TO       LEAVE AS NORMAL DISP
000550:                                                                                                  #        TURN A NORMAL DIS-
000551: 26,2022     4740               PDSPFBIT           =        BIT12                                 #        PLAY INTO A PRIORITY
000552:                                                                                                  #        DISPLAY IN R60
000553:
000554:                                                                                                  #  BIT 11 FLAG 4 (S)
000555: 26,2022                        MWAITFLG           =        064D                                  #        HIGHER PRIORITY         NO HIGHER PRIORITY
000556:                                                                                                  #        DISPLAY OPERATING       DISPLAY OPERATING
000557: 26,2022     4741               MWAITBIT           =        BIT11                                 #        WHEN MARK DISPLAY       WHEN MARK DISPLAY
000558:                                                                                                  #        INITIATED               INITIATED
000559:
000560:                                                                                                  #  BIT 10 FLAG 4 (S)
000561: 26,2022                        NWAITFLG           =        065D                                  #        HIGHER PRIORITY         NO HIGHER PRIORITY
000562:                                                                                                  #        DISPLAY OPERATING       DISPLAY OPERATING
000563: 26,2022     4742               NWAITBIT           =        BIT10                                 #        WHEN NORMAL             WHEN NORMAL DISPLAY
000564:                                                                                                  #        DISPLAY INITIATED       INITIATED
000565:
000566:                                                                                                  #  BIT 9 FLAG 4  (S)
000567: 26,2022                        MRKNVFLG           =        066D                                  #        ASTRONAUT USING         ASTRONAUT NOT USING
000568:                                                                                                  #        KEYBOARD WHEN MARK      KEYBOARD WHEN MARK
000569: 26,2022     4743               MRKNVBIT           =        BIT9                                  #        DISPLAY INITIATED       DISPLAY INITIATED
000570:
000571:                                                                                                  #  BIT 8 FLAG 4  (S)
000572: 26,2022                        NRMNVFLG           =        067D                                  #        ASTRONAUT USING         ASTRONAUT NOT USING
000573:                                                                                                  #        KEYBOARD WHEN           KEYBOARD WHEN
000574: 26,2022     4744               NRMNVBIT           =        BIT8                                  #        NORMAL DISPLAY          NORMAL DISPLAY
000575:                                                                                                  #        INITIATED               INITIATED
000576:


000578:                                                                                                  #  BIT 7 FLAG 4  (S)
000579: 26,2022                        PRONVFLG           =        068D                                  #        ASTRONAUT USING         ASTRONAUT NOT USING
000580:                                                                                                  #        KEYBOARD WHEN           KEYBOARD WHEN
000581: 26,2022     4745               PRONVBIT           =        BIT7                                  #        PRIORITY DISPLAY        PRIORITY DISPLAY
000582:                                                                                                  #        INITIATED               INITIATED
000583:
000584:                                                                                                  #  BIT 6 FLAG 4  (S)
000585: 26,2022                        PINBRFLG           =        069D                                  #        ASTRONAUT HAS           ASTRONAUT HAS NOT
000586:                                                                                                  #        INTERFERED WITH         INTERFERED WITH
000587: 26,2022     4746               PINBRBIT           =        BIT6                                  #        EXISTING DISPLAY        EXISTING DISPLAY
000588:
000589:                                                                                                  #  BIT 5 FLAG 4  (S)
000590: 26,2022                        MRUPTFLG           =        070D                                  #        MARK DISPLAY            MARK DISPLAY NOT
000591:                                                                                                  #        INTERRUPTED BY          INTERRUPTED BY
000592: 26,2022     4747               MRUPTBIT           =        BIT5                                  #        PRIORITY DISPLAY        PRIORITY DISPLAY
000593:
000594:                                                                                                  #  BIT 4 FLAG 4  (S)
000595: 26,2022                        NRUPTFLG           =        071D                                  #        NORMAL DISPLAY          NORMAL DISPLAY NOT
000596:                                                                                                  #        INTERRUPTED BY          INTERRUPTED BY
000597: 26,2022     4750               NRUPTBIT           =        BIT4                                  #        PRIORITY OR MARK        PRIORITY OR MARK
000598:                                                                                                  #        DISPLAY                 DISPLAY
000599:
000600:                                                                                                  #  BIT 3 FLAG 4  (S)
000601: 26,2022                        MKOVFLAG           =        072D                                  #        MARK DISPLAY OVER       NO MARK DISPLAY OVER
000602: 26,2022     4751               MKOVBIT            =        BIT3                                  #        NORMAL                  NORMAL
000603:
000604:                                                                                                  #  BIT 2 FLAG 4
000605:                                                                                                  #                =       073D
000606:
000607:                                                                                                  #  BIT 1 FLAG 4  (S)
000608: 26,2022                        XDSPFLAG           =        074D                                  #        MARK DISPLAY NOT        NO SPECIAL MARK
000609: 26,2022     4753               XDSPBIT            =        BIT1                                  #        TO BE INTERRUPTED       INFORMATION
000610:
000611: 26,2022     0101               FLAGWRD5           =        STATE      +5                         #  (075-089)
000612:
000613:                                                                                                  #        (SET)                   (RESET)
000614:
000615:                                                                                                  #  BIT 15 FLAG 5 (S)
000616: 26,2022                        DSKYFLAG           =        075D                                  #        DISPLAYS SENT TO        NO DISPLAYS TO DSKY
000617: 26,2022     4735               DSKYFBIT           =        BIT15                                 #        DSKY
000618:
000619:                                                                                                  #  BIT 14 FLAG 5
000620:                                                                                                  #                =       076D
000621:                                                                                                  #                =       BIT14
000622:


000624:                                                                                                  #  BIT 13 FLAG 5 (S,L)
000625: 26,2022                        SNUFFER            =        077D                                  #        U,V JETS DISABLED       U,V JETS ENABLED
000626:                                                                                                  #        DURING DPS              DURING DPS
000627: 26,2022     4737               SNUFFBIT           =        BIT13                                 #        BURNS (V65)             BURNS (V75)
000628:
000629:                                                                                                  #  BIT 12 FLAG 5 (S)
000630: 26,2022                        NOTHROTL           =        078D                                  #        INHIBIT FULL            PERMIT FULL THROTTLE
000631: 26,2022     4740               NOTHRBIT           =        BIT12                                 #        THROTTLE
000632:
000633:                                                                                                  #  BIT 11 FLAG 5 (S,L)
000634: 26,2022                        R77FLAG            =        079D                                  #        R77 IS ON,              R77 IS NOT ON.
000635:                                                                                                  #        SUPPRESS ALL RADAR
000636:                                                                                                  #        ALARMS AND TRACKER
000637: 26,2022     4741               R77FLBIT           =        BIT11                                 #        FAILS
000638:
000639:                                                                                                  #  BIT 10 FLAG 5 (S)
000640: 26,2022                        RNGSCFLG           =        080D                                  #        SCALE CHANGE HAS        NO SCALE CHANGE HAS
000641:                                                                                                  #        OCCURRED DURING         OCCURRED DURING
000642: 26,2022     4742               RNGSCBIT           =        BIT10                                 #        RR READING              RR READING
000643:
000644:                                                                                                  #  BIT 9 FLAG 5  (S)
000645: 26,2022                        DMENFLG            =        081D                                  #        DIMENSION OF W IS 9     DIMENSION OF W IS 6
000646: 26,2022     4743               DMENFBIT           =        BIT9                                  #        FOR INCORPORATION       FOR INCORPORATION
000647:
000648:                                                                                                  #  BIT 8 FLAG 5  (S)
000649: 26,2022                        ZOOMFLAG           =        082D                                  #        THROTTLE-UP HAS         THROTTLE-UP HAS NOT
000650: 26,2022     4744               ZOOMBIT            =        BIT8                                  #        OCCURRED IN P63.        YET OCCURRED IN P63.
000651:
000652:                                                                                                  #  BIT 7 FLAG 5  (S)
000653: 26,2022                        ENGONFLG           =        083D                                  #        ENGINE TURNED ON        ENGINE TURNED OFF
000654: 26,2022     4745               ENGONBIT           =        BIT7                                  #
000655:
000656:                                                                                                  #  BIT 6 FLAG 5  (S)
000657: 26,2022                        3AXISFLG           =        084D                                  #        MANEUVER SPECIFIED      MANEUVER SPECIFIED
000658:                                                                                                  #        BY THREE AXES           BY ONE AXIS; R60
000659: 26,2022     4746               3AXISBIT           =        BIT6                                  #                                CALLS VECPOINT.
000660:
000661:                                                                                                  #  BIT 5 FLAG 5
000662: 26,2022                        AORBSFLG           =        085D                                  #        PREFER PAXIS JET        PREFER PAXIS JET
000663: 26,2022     4747               AORBSYST           =        BIT5                                  #        PAIRS 7,15 AND 8,16     PAIRS 4,12 AND 3,11
000664:


000666:                                                                                                  #  BIT 4 FLAG 5  (S)
000667: 26,2022                        NORRMON            =        086D                                  #        BYPASS RR GIMBAL        PERFORM
000668: 26,2022     4750               NORRMBIT           =        BIT4                                  #        MONITOR                 RR GIMBAL MONITOR
000669:
000670:                                                                                                  #  BIT 3 FLAG 5  (S)
000671: 26,2022                        SOLNSW             =        087D                                  #        LAMBERT DOES NOT        LAMBERT CONVERGES OR
000672:                                                                                                  #        CONVERGE,OR TIME-RAD    TIME-RADIUS NON
000673: 26,2022     4751               SOLNSBIT           =        BIT3                                  #        NEARLY CIRCULAR         CIRCULAR
000674:
000675:                                                                                                  #  BIT 2 FLAG 5  (S)
000676: 26,2022                        MGLVFLAG           =        088D                                  #        LOCAL VERTICAL          MIDDLE GIMBAL ANGLE
000677:                                                                                                  #        COORDINATES             COMPUTED
000678: 26,2022     4752               MGLVFBIT           =        BIT2                                  #        COMPUTED
000679:
000680:                                                                                                  #  BIT 1 FLAG 5  (S)
000681: 26,2022                        RENDWFLG           =        089D                                  #        W MATRIX VALID          W MATRIX INVALID
000682:                                                                                                  #        FOR RENDEZVOUS          FOR RENDEZVOUS
000683: 26,2022     4753               RENDWBIT           =        BIT1                                  #        NAVIGATION              NAVIGATION
000684:
000685: 26,2022     0102               FLAGWRD6           =        STATE      +6                         #  (090-104)
000686:
000687:                                                                                                  #        (SET)                   (RESET)
000688:
000689:                                                                                                  #  BIT 15 FLAG 6 (S)
000690: 26,2022                        S32.1F1            =        090D                                  #        DELTA V AT CSI TIME     DVT1 LESS THEN MAX
000691: 26,2022     4735               S32BIT1            =        BIT15                                 #        ONE EXCEEDS MAX
000692:
000693:                                                                                                  #  BIT 14 FLAG 6 (S)
000694: 26,2022                        S32.1F2            =        091D                                  #        FIRST PASS OF           REITERATION OF
000695: 26,2022     4736               S32BIT2            =        BIT14                                 #        NEWTON ITERATION        NEWTON
000696:
000697:                                                                                                  #  BIT 13 FLAG 6 (S)
000698: 26,2022                        S32.1F3A           =        092D                                  #  BIT 13 AND BIT 12 FUNCTION AS AN ORDERED
000699: 26,2022     4737               S32BIT3A           =        BIT13                                 #  PAIR (13,12) INDICATING THE POSSIBLE OC-
000700:                                                                                                  #  CURRANCE OF 2NEWTON ITERATIONS FOR S32.1
000701:                                                                                                  #  IN THE PROGRAM IN THE FOLLOWING ORDER:
000702:                                                                                                  #  BIT 12 FLAG 6                                   (0,1) (I.E.BIT 13 RESET, BIT 12 SET)
000703: 26,2022                        S32.1F3B           =        093D                                  #       = FIRST NEWTON ITERATION BEING DONE
000704: 26,2022     4740               S32BIT3B           =        BIT12                                 #  (0,0)= FIRST PASS OF SECOND NEWT.ITERAT.
000705:                                                                                                  #  (1,1)= 50 FT/SEC STAGE OF SEC. NEWT.ITER
000706:                                                                                                  #  (1,0)= REMAINDER OF SECOND NEWTON ITERA.
000707:


000709:                                                                                                  #  BIT 11 FLAG 6 (S)
000710:
000711:                                                                                                  #  BIT 10 FLAG 6 (S)
000712: 26,2022                        GMBDRVSW           =        095D                                  #        TRIMGIMB OVER           TRIMGIMB NOT OVER
000713: 26,2022     4742               GMBDRBIT           =        BIT10                                 #
000714:
000715:                                                                                                  #  BIT 9 FLAG 6
000716:                                                                                                  #                =       096D
000717:                                                                                                  #                =       BIT9
000718:
000719:                                                                                                  #  BIT 8 FLAG 6  (S)
000720: 26,2022                        MUNFLAG            =        097D                                  #        SERVICER CALLS          SERVICER CALLS
000721: 26,2022     4744               MUNFLBIT           =        BIT8                                  #        MUNRVG                  CALCRVG
000722:
000723:                                                                                                  #  BIT 7 FLAG 6  (L)
000724: 26,2022                                           =        098D
000725: 26,2022                                           =        BIT7
000726:
000727:                                                                                                  #  BIT 6 FLAG 6  (L)
000728: 26,2022                        REDFLAG            =        099D                                  #        LANDING SITE            LANDING SITE
000729:                                                                                                  #        REDESIGNATION           REDESIGNATION NOT
000730: 26,2022     4746               REDFLBIT           =        BIT6                                  #        PERMITTED               PERMITTED
000731:
000732:                                                                                                  #  BIT 5 FLAG 6
000733:                                                                                                  #                =       100D
000734:
000735:                                                                                                  #  BIT 4 FLAG 6
000736:                                                                                                  #                =       101D
000737:
000738:                                                                                                  #  BIT 3 FLAG 6  (S)
000739: 26,2022                        NTARGFLG           =        102D                                  #        ASTRONAUT DID           ASTRONAUT DID NOT
000740:                                                                                                  #        OVERWRITE DELTA         OVERWRITE DELTA
000741: 26,2022     4751               NTARGBIT           =        BIT3                                  #        VELOCITY AT TPI         VELOCITY
000742:                                                                                                  #        OR TPM (P34,35)
000743:
000744:                                                                                                  #  BIT 2 FLAG 6
000745: 26,2022                        AUXFLAG            =        103D                                  #        PROVIDING IDLEFLAG      SERVICER WILL SKIP
000746: 26,2022     4752               AUXFLBIT           =        BIT2                                  #        IS NOT SET, SERV-       DVMON ON ITS NEXT
000747:                                                                                                  #        ICER WILL EXERCISE      PASS EVEN IF THE
000748:                                                                                                  #        DVMON ON ITS NEXT       IDLEFLAG IS NOT SET.
000749:                                                                                                  #        PASS.                   IT WILL THEN SET
000750:                                                                                                  #                                AUXFLAG.
000751:


000753:                                                                                                  #  BIT 1 FLAG 6  (L)
000754: 26,2022                        ATTFLAG            =        104D                                  #        LEM ATTITUDE EXISTS     NO LEM ATTITUDE
000755:                                                                                                  #        IN MOON-FIXED           AVAILABLE IN MOON-
000756: 26,2022     4753               ATTFLBIT           =        BIT1                                  #        COORDINATES             FIXED COORDINATES
000757:
000758: 26,2022     0103               FLAGWRD7           =        STATE      +7                         #  (105-119)
000759:
000760:                                                                                                  #        (SET)                   (RESET)
000761:
000762:                                                                                                  #  BIT 15 FLAG 7 (S)
000763: 26,2022                        ITSWICH            =        105D                                  #        P34;TPI TIME TO BE      TPI HAS BEEN
000764: 26,2022     4735               ITSWBIT            =        BIT15                                 #        COMPUTED                COMPUTED
000765:
000766:                                                                                                  #  BIT 14 FLAG 7 (S)
000767: 26,2022                        MANUFLAG           =        106D                                  #        ATTITUDE MANEUVER       NO ATTITUDE MANEUVER
000768:                                                                                                  #        GOING DURING RR         DURING RR SEARCH
000769: 26,2022     4736               MANUFBIT           =        BIT14                                 #        SEARCH
000770:
000771:                                                                                                  #  BIT 13 FLAG 7 (S)
000772: 26,2022                        IGNFLAG            =        107D                                  #        TIG HAS ARRIVED         TIG HAS NOT ARRIVED
000773: 26,2022     4737               IGNFLBIT           =        BIT13                                 #
000774:
000775:                                                                                                  #  BIT 12 FLAG 7 (S)
000776: 26,2022                        ASTNFLAG           =        108D                                  #        ASTRONAUT HAS           ASTRONAUT HAS NOT
000777: 26,2022     4740               ASTNBIT            =        BIT12                                 #        OKAYED IGNITION         OKAYED IGNITION
000778:
000779:                                                                                                  #  BIT 11 FLAG 7 (L)
000780: 26,2022                        SWANDISP           =        109D                                  #        LANDING ANALOG          LANDING ANALOG
000781: 26,2022     4741               SWANDBIT           =        BIT11                                 #        DISPLAYS ENABLED        DISPLAYS SUPPRESSED
000782:
000783:                                                                                                  #  BIT 10 FLAG 7 (S)
000784: 26,2022                        NORMSW             =        110D                                  #        UNIT NORMAL INPUT       LAMBERT COMPUTES ITS
000785: 26,2022     4742               NORMSBIT           =        BIT10                                 #        TO LAMBERT              OWN UNIT NORMAL
000786:
000787:                                                                                                  #  BIT 9 FLAG 7  (S)
000788: 26,2022                        RVSW               =        111D                                  #        DO NOT COMPUTE          COMPUTE FINAL STATE
000789:                                                                                                  #        FINAL STATE VECTOR      VECTOR IN TIME-THETA
000790: 26,2022     4743               RVSWBIT            =        BIT9                                  #        IN TIME-THETA
000791:
000792:                                                                                                  #  BIT 8 FLAG 7  (S)
000793: 26,2022                        V67FLAG            =        112D                                  #        ASTRONAUT OVERWRITE     ASTRONAUT DOES NOT
000794:                                                                                                  #        W-MATRIX INITIAL        OVERWRITE W-MATRIX


000796: 26,2022     4744               V67FLBIT           =        BIT8                                  #        VALUES                  INITIAL VALUES
000797:
000798:                                                                                                  #  BIT 7 FLAG 7  (S)
000799: 26,2022                        IDLEFLAG           =        113D                                  #        NO DV MONITOR           CONNECT DV MONITOR
000800: 26,2022     4745               IDLEFBIT           =        BIT7                                  #
000801:
000802:                                                                                                  #  BIT 6 FLAG 7  (S)
000803: 26,2022                        V37FLAG            =        114D                                  #        AVERAGEG (SERVICER)     AVERAGEG (SERVICER)
000804: 26,2022     4746               V37FLBIT           =        BIT6                                  #        RUNNING                 OFF
000805:
000806:                                                                                                  #  BIT 5 FLAG 7  (S)
000807: 26,2022                        AVEGFLAG           =        115D                                  #        AVERAGEG (SERVICER)     AVERAGEG (SERVICER)
000808: 26,2022     4747               AVEGFBIT           =        BIT5                                  #        DESIRED                 NOT DESIRED
000809:
000810:                                                                                                  #  BIT 4 FLAG 7  (S)
000811: 26,2022                        UPLOCKFL           =        116D                                  #        K-KBAR-K FAIL           NO K-KBAR-K FAIL
000812: 26,2022     4750               UPLOCBIT           =        BIT4                                  #
000813:
000814:                                                                                                  #  BIT 3 FLAG 7  (S)
000815: 26,2022                        VERIFLAG           =        117D                                  #  CHANGED WHEN V33E OCCURS AT END OF P27
000816: 26,2022     4751               VERIFBIT           =        BIT3                                  #
000817:
000818:                                                                                                  #  BIT 2 FLAG 7  (L,C)
000819: 26,2022                        V82EMFLG           =        118D                                  #        MOON VICINITY           EARTH VICINITY
000820: 26,2022     4752               V82EMBIT           =        BIT2                                  #
000821:
000822:                                                                                                  #  BIT 1 FLAG 7  (S)
000823: 26,2022                        TFFSW              =        119D                                  #        CALCULATE TPERIGEE      CALCULATE TFF
000824: 26,2022     4753               TFFSWBIT           =        BIT1                                  #
000825:
000826: 26,2022     0104               FLAGWRD8           =        STATE      +8D                        #  (120-134)
000827:
000828:                                                                                                  #        (SET)                   (RESET)
000829:
000830:                                                                                                  #  BIT 15 FLAG 8 (S)
000831: 26,2022                        RPQFLAG            =        120D                                  #        RPQ NOT COMPUTED        RPQ COMPUTED
000832:                                                                                                  #        (RPQ = VECTOR BE-
000833: 26,2022     4735               RPQFLBIT           =        BIT15                                 #        TWEEN SECONDARY BODY
000834:                                                                                                  #        AND PRIMARY BODY
000835:
000836:                                                                                                  #  BIT 14 FLAG 8


000838:                                                                                                  #                =       121D
000839:                                                                                                  #                =       BIT14
000840:
000841:                                                                                                  #  BIT 13 FLAG 8 (S)
000842: 26,2022                        NEWIFLG            =        122D                                  #        FIRST PASS THROUGH      SUCCEEDING ITERATION
000843: 26,2022     4737               NEWIBIT            =        BIT13                                 #        INTEGRATION             OF INTEGRATION
000844:
000845:                                                                                                  #  BIT 12 FLAG 8 *** PROTECTED FROM FRESH START ***
000846: 26,2022                        CMOONFLG           =        123D                                  #        PERMANENT CSM STATE     PERMANENT CSM STATE
000847: 26,2022     4740               CMOONBIT           =        BIT12                                 #        IN LUNAR SPHERE         IN EARTH SPHERE
000848:
000849:                                                                                                  #  BIT 11 FLAG 8 *** PROTECTED FROM FRESH START ***
000850: 26,2022                        LMOONFLG           =        124D                                  #        PERMANENT LM STATE      PERMANENT LM STATE
000851: 26,2022     4741               LMOONBIT           =        BIT11                                 #        IN LUNAR SPHERE         IN EARTH SPHERE
000852:
000853:                                                                                                  #  BIT 10 FLAG 8 (L)
000854: 26,2022                        FLUNDISP           =        125D                                  #        CURRENT GUIDANCE        CURRENT GUIDANCE
000855: 26,2022     4742               FLUNDBIT           =        BIT10                                 #        DISPLAYS INHIBITED      DISPLAYS PERMITTED
000856:
000857:                                                                                                  #  BIT 9 FLAG 8  (L)
000858:                                                                                                  #                =       126D
000859:                                                                                                  #                =       BIT9
000860:
000861:                                                                                                  #  BIT 8 FLAG 8  *** PROTECTED FROM FRESH START ***
000862: 26,2022                        SURFFLAG           =        127D                                  #        LM ON LUNAR SURFACE     LM NOT ON LUNAR
000863: 26,2022     4744               SURFFBIT           =        BIT8                                  #                                SURFACE
000864:
000865:                                                                                                  #  BIT 7 FLAG 8  (S)
000866: 26,2022                        INFINFLG           =        128D                                  #        NO CONIC SOLUTION       CONIC SOLUTION
000867:                                                                                                  #        (CLOSURE THROUGH        EXISTS
000868: 26,2022     4745               INFINBIT           =        BIT7                                  #        INFINITY REQUIRED)
000869:
000870:                                                                                                  #  BIT 6 FLAG 8  (S)
000871: 26,2022                        ORDERSW            =        129D                                  #        ITERATOR USES 2ND       ITERATOR USES 1ST
000872: 26,2022     4746               ORDERBIT           =        BIT6                                  #        ORDER MINIMUM MODE      ORDER STANDARD MODE
000873:
000874:                                                                                                  #  BIT 5 FLAG 8  (S)
000875: 26,2022                        APSESW             =        130D                                  #        RDESIRED OUTSIDE        RDESIRED INSIDE
000876:                                                                                                  #        PERICENTER-APOCENTER    PERICENTER-APOCENTER
000877: 26,2022     4747               APSESBIT           =        BIT5                                  #        RANGE IN TIME-RADI      RANGE IN TIME-RADIUS
000878:


000880:                                                                                                  #  BIT 4 FLAG 8  (S)
000881: 26,2022                        COGAFLAG           =        131D                                  #        NO CONIC SOLUTION -     CONIC SOLUTION
000882:                                                                                                  #        TOO CLOSE TO RECTI-     EXISTS (COGA DOES NOT
000883: 26,2022     4750               COGAFBIT           =        BIT4                                  #        LINEAR (COGA OVRFLWS)   OVERFLOW)
000884:
000885:                                                                                                  #  BIT 3 FLAG 8
000886:                                                                                                  #                =       132D
000887:
000888:                                                                                                  #  BIT 2 FLAG 8  (L)
000889: 26,2022                        INITALGN           =        133D                                  #        INITIAL PASS THRU       SECOND PASS THRU P57
000890: 26,2022     4752               INITABIT           =        BIT2                                  #        P57                     (CHECK RESET-MILLARD)
000891:
000892:                                                                                                  #  BIT 1 FLAG 8  (S)
000893: 26,2022                        360SW              =        134D                                  #        TRANSFER ANGLE NEAR     TRANSFER ANGLE NOT
000894: 26,2022     4753               360SWBIT           =        BIT1                                  #        360 DEGREES             NEAR 360 DEGREES
000895:
000896: 26,2022     0105               FLAGWRD9           =        STATE      +9D                        #  (135-149)
000897:
000898:                                                                                                  #        (SET)                   (RESET)
000899:
000900:                                                                                                  #  BIT 15 FLAG 9
000901:                                                                                                  #                =       135D
000902:                                                                                                  #                =       BIT15
000903:
000904:                                                                                                  #  BIT 14 FLAG 9 (L)
000905: 26,2022                        FLVR               =        136D                                  #        VERTICAL RISE           NON-VERTICAL RISE
000906: 26,2022     4736               FLVRBIT            =        BIT14                                 #        (ASCENT GUIDANCE)
000907:
000908:                                                                                                  #  BIT 13 FLAG 9
000909: 26,2022                        P7071FLG           =        137D                                  #        P70 OR P71 IS USING     P12 IS USING THE
000910: 26,2022     4737               P7071BIT           =        BIT13                                 #        ASCENT GUID. EQS.       ASCENT GUID. EQS.
000911:
000912:                                                                                                  #  BIT 12 FLAG 9 (L)
000913: 26,2022                        FLPC               =        138D                                  #        NO POSITION CONTROL     POSITION CONTROL
000914: 26,2022     4740               FLPCBIT            =        BIT12                                 #        (ASCENT GUIDANCE)
000915:
000916:                                                                                                  #  BIT 11 FLAG 9 (L)
000917: 26,2022                        FLPI               =        139D                                  #        PRE-IGNITION PHASE      REGULAR GUIDANCE
000918: 26,2022     4741               FLPIBIT            =        BIT11                                 #        (ASCENT GUIDANCE)
000919:
000920:                                                                                                  #  BIT 10 FLAG 9 (L)
000921: 26,2022                        FLRCS              =        140D                                  #        RCS INJECTION MODE      MAIN ENGINE MODE


000923: 26,2022     4742               FLRCSBIT           =        BIT10                                 #        (ASCENT GUIDANCE)
000924:
000925:                                                                                                  #  BIT 9 FLAG 9  (L)
000926: 26,2022                        LETABORT           =        141D                                  #        ABORT PROGRAMS          ABORT PROGRAMS
000927: 26,2022     4743               LETABBIT           =        BIT9                                  #        ARE ENABLED             ARE NOT ENABLED
000928:
000929:                                                                                                  #  BIT 8 FLAG 9  (L)
000930: 26,2022                        FLAP               =        142D                                  #        APS CONTINUED ABORT     APS ABORT IS NOT A
000931:                                                                                                  #        AFTER DPS STAGING       CONTINUATION
000932: 26,2022     4744               FLAPBIT            =        BIT8                                  #        (ASCENT GUIDANCE)
000933:
000934:                                                                                                  #  BIT 7 FLAG 9  (L)
000935: 26,2022                        ABTTGFLG           =        143D                                  #        J2,K2 PARAMETERS        J1,K1 PARAMETERS
000936: 26,2022     4745               ABTTGBIT           =        BIT7                                  #        USED FOR ABORT          USED FOR ABORT
000937:                                                                                                  #        TARGETING               TARGETING
000938:
000939:                                                                                                  #  BIT 6 FLAG 9  (L)
000940: 26,2022                        ROTFLAG            =        144D                                  #        P70 AND P71 WILL        P70 AND P71 WILL NOT
000941: 26,2022     4746               ROTFLBIT           =        BIT6                                  #        FORCE VEHICLE           FORCE VEHICLE
000942:                                                                                                  #        ROTATION IN THE         ROTATION IN THE
000943:                                                                                                  #        PREFERRED DIRECTION.    PREFERRED DIRECTION
000944:
000945:                                                                                                  #  BIT 5 FLAG 9  (S)
000946: 26,2022                        QUITFLAG           =        145D                                  #        DISCONTINUE INTEGR.     CONTINUE INTEGRATION
000947: 26,2022     4747               QUITBIT            =        BIT5                                  #
000948:
000949:                                                                                                  #  BIT 4 FLAG 9
000950:                                                                                                  #                =       146D
000951:                                                                                                  #                =       BIT4
000952:
000953:                                                                                                  #  BIT 3 FLAG 9  (L)
000954: 26,2022                        MID1FLAG           =        147D                                  #        INTEGRATE TO TDEC       INTEGRATE TO THE
000955: 26,2022     4751               MID1FBIT           =        BIT3                                  #                                THEN-PRESENT TIME
000956:
000957:                                                                                                  #  BIT 2 FLAG 9  (L)
000958: 26,2022                        MIDAVFLG           =        148D                                  #        INTEGRATION ENTERED     INTEGRATION WAS
000959:                                                                                                  #        FROM ONE OF MIDTOAV     NOT ENTERED VIA
000960: 26,2022     4752               MIDAVBIT           =        BIT2                                  #        PORTALS                 MIDTOAV
000961:
000962:                                                                                                  #  BIT 1 FLAG 9  (S)
000963: 26,2022                        AVEMIDSW           =        149D                                  #        AVETOMID CALLING        NO AVETOMID W INTEGR
000964:                                                                                                  #        FOR W.MATRIX INTEGR     ALLOW SET UP RN,VN,
000965: 26,2022     4753               AVEMDBIT           =        BIT1                                  #        DONT WRITE OVER RN,     PIPTIME
000966:                                                                                                  #        VN,PIPTIME
000967:


000969: 26,2022     0106               RASFLAG            EQUALS   FLGWRD10                              #  WAS ONLY AN INSTALL-ERASTALL FLAG
000970:
000971: 26,2022     0106               FLGWRD10           =        STATE      +10D                       #  (150-164)
000972:
000973:                                                                                                  #        (SET)                   (RESET)
000974:
000975:                                                                                                  #  BIT 15 FLAG 10
000976:                                                                                                  #                =       150D
000977:
000978:                                                                                                  #  BIT 14 FLAG 10 (L,C)
000979: 26,2022                        INTFLAG            =        151D                                  #        INTEGRATION IN          INTEGRATION NOT IN
000980: 26,2022     4736               INTFLBIT           =        BIT14                                 #        PROGRESS                PROGRESS
000981:
000982:                                                                                                  #  BIT 13 FLAG 10 (S,L)
000983: 26,2022                        APSFLAG            =        152D                                  #        ASCENT STAGE            DESCENT STAGE
000984: 26,2022     4737               APSFLBIT           =        BIT13                                 #        *** PROTECTED FROM FRESH START ***
000985:
000986:                                                                                                  #  BIT 12 FLAG 10
000987:                                                                                                  #                =       153D
000988:
000989:                                                                                                  #  BIT 11 FLAG 10
000990:                                                                                                  #                =       154D
000991:
000992:                                                                                                  #  BIT 10 FLAG 10
000993:                                                                                                  #                =       155D
000994:
000995:                                                                                                  #  BIT 9 FLAG 10
000996:                                                                                                  #                =       156D
000997:
000998:                                                                                                  #  BIT 8 FLAG 10
000999:                                                                                                  #                =       157D
001000:
001001:                                                                                                  #  BIT 7 FLAG 10 (L,C)
001002: 26,2022                        REINTFLG           =        158D                                  #        INTEGRATION ROUTINE     INTEGRATION ROUTINE
001003: 26,2022     4745               REINTBIT           =        BIT7                                  #        TO BE RESTARTED         NOT TO BE RESTARTED
001004:
001005:                                                                                                  #  BIT 6 FLAG 10
001006:                                                                                                  #                =       159D


001008:
001009:                                                                                                  #  BIT 5 FLAG 10
001010:                                                                                                  #                =       160D
001011:
001012:                                                                                                  #  BIT 4 FLAG 10
001013:                                                                                                  #                =       161D
001014:
001015:                                                                                                  #  BIT 3 FLAG 10
001016:                                                                                                  #                =       162D
001017:
001018:                                                                                                  #  BIT 2 FLAG 10
001019:                                                                                                  #                =       163D
001020:
001021:                                                                                                  #  BIT 1 FLAG 10
001022:                                                                                                  #                =       164D
001023:
001024: 26,2022     0107               FLGWRD11           =        STATE      +11D                       #  (165-179)
001025:
001026:                                                                                                  #        (SET)                   (RESET)
001027:
001028:                                                                                                  #  BIT 15 FLAG 11 (L)(R12)
001029: 26,2022                        LRBYPASS           =        165D                                  #        BYPASS ALL LANDING      DO NOT BYPASS LR
001030: 26,2022     4735               LRBYBIT            =        BIT15                                 #        RADAR UPDATES           UPDATES
001031:
001032:                                                                                                  #  BIT 14 FLAG 11
001033:                                                                                                  #                =       166D
001034:                                                                                                  #                =       BIT14
001035:
001036:                                                                                                  #  = BIT 13 FLAG 11
001037:                                                                                                  #                =       167D
001038:                                                                                                  #                =       BIT13
001039:
001040:                                                                                                  #  BIT 12 FLAG 11 (L)(R12)
001041: 26,2022                        VXINH              =        168D                                  #        IF Z VELOCITY DATA      UPDATE X AXIS
001042:                                                                                                  #        UNREASONABLE,           VELOCITY
001043: 26,2022     4740               VXINHBIT           =        BIT12                                 #        BYPASS X VELOCITY
001044:                                                                                                  #        UPDATE ON NEXT PASS
001045:


001047:                                                                                                  #  BIT 11 FLAG 11 (L)(R12)
001048: 26,2022                        PSTHIGAT           =        169D                                  #        PAST HIGATE             PREHIGATE
001049: 26,2022     4741               PSTHIBIT           =        BIT11                                 #
001050:
001051:                                                                                                  #  BIT 10 FLAG 11 (L)(R12)
001052: 26,2022                        NOLRREAD           =        170D                                  #        LANDING RADAR           LR NOT REPOSITIONING
001053:                                                                                                  #        REPOSITIONING;
001054: 26,2022     4742               NOLRRBIT           =        BIT10                                 #        BYPASS UPDATE
001055:
001056:                                                                                                  #  BIT 9 FLAG 11 (L)(R12)
001057: 26,2022                        XORFLG             =        171D                                  #        BELOW LIMIT             ABOVE LIMIT DO
001058:                                                                                                  #        INHIBIT X AXIS          NOT INHIBIT
001059: 26,2022     4743               XORFLBIT           =        BIT9                                  #        OVERRIDE
001060:
001061:                                                                                                  #  BIT 8 FLAG 11
001062: 26,2022                        LRINH              =        172D                                  #        LANDING RADAR UP-       LR UPDATES INHIBITED
001063: 26,2022     4744               LRINHBIT           =        BIT8                                  #        DATES PERMITTED         BY ASTRONAUT
001064:                                                                                                  #        BY ASTRONAUT
001065:
001066:                                                                                                  #  BIT 7 FLAG 11 (L)(R12)
001067: 26,2022                        VELDATA            =        173D                                  #        LR VELOCITY             LR VELOCITY MEASURE
001068: 26,2022     4745               VELDABIT           =        BIT7                                  #        MEASUREMENT MADE        NOT MADE
001069:
001070:                                                                                                  #  BIT 6 FLAG 11 (L)(R12)
001071: 26,2022                        LPOS2FLG           =        174D                                  #        USE LR POSITION 2       USE LR POSITION 1
001072: 26,2022     4746               LPOS2BIT           =        BIT6                                  #        TRANSFORMATION          TRANSFORMATION
001073:
001074:                                                                                                  #  BIT 5 FLAG 11 (L)(R12)
001075: 26,2022                        READVEL            =        175D                                  #        OK TO READ LR           DO NOT READ LR
001076: 26,2022     4747               READVBIT           =        BIT5                                  #        VELOCITY DATA           VELOCITY DATA
001077:
001078:                                                                                                  #  BIT 4 FLAG 11 (L)(R12)
001079: 26,2022                        RNGEDATA           =        176D                                  #        LR ALTITUDE             LR ALTITUDE MEASURE
001080: 26,2022     4750               RNGEDBIT           =        BIT4                                  #        MEASUREMENT MADE        NOT MADE
001081:
001082:                                                                                                  #  BIT 3 FLAG 11
001083: 26,2022                        NO511FLG           =        177D                                  #        DO NOT TEST LR          TEST LR ANTENNA
001084: 26,2022     4751               NO511BIT           =        BIT3                                  #        ANTENNA POS IN R12      POS IN R12
001085:
001086:                                                                                                  #  BIT 2 FLAG 11 (L)(R12)
001087: 26,2022                        VFLSHFLG           =        178D                                  #        LR VELOCITY FAIL        LR VEL FAIL LAMP


001089:                                                                                                  #        LAMP SHOULD BE          SHOULDN'T FLASH
001090: 26,2022     4752               VFLSHBIT           =        BIT2                                  #        FLASHING
001091:
001092:                                                                                                  #  BIT 1 FLAG 11 (L)(R12)
001093: 26,2022                        HFLSHFLG           =        179D                                  #        LR ALTITUDE FAIL        LR ALTITUDE FAIL
001094: 26,2022     4753               HFLSHBIT           =        BIT1                                  #        LAMP SHOULD BE          LAMP SHOULD NOT BE
001095:                                                                                                  #        FLASHING                FLASHING
001096:
001097: 26,2022     0110               RADMODES           EQUALS   FLGWRD12                              #  RADAR FLAG WORD
001098:
001099: 26,2022     0110               FLGWRD12           =        STATE      +12D                       #  (180-194)     WAS RADMODES
001100:
001101:                                                                                                  #        (SET)                   (RESET)
001102:
001103:                                                                                                  #  BIT 15 FLAG 12
001104: 26,2022                        CDESFLAG           =        180D                                  #        CONTINUOUS DESIG-       LGC CHECKS FOR LOCK-
001105: 26,2022     4735               CDESBIT            =        BIT15                                 #        NATE. LGC COMMANDS      ON WHEN ANTENNA
001106:                                                                                                  #        RR REGARDLESS OF        BEING DESIGNATED
001107:                                                                                                  #        LOCK-ON
001108:
001109:                                                                                                  #  BIT 14 FLAG 12
001110: 26,2022                        REMODFLG           =        181D                                  #        CHANGE IN ANTENNA       NO REMODE REQUESTED
001111: 26,2022     4736               REMODBIT           =        BIT14                                 #        MODE BEEN REQUESTED     OR OCCURRING
001112:                                                                                                  #        I.E., REMODE
001113:
001114:                                                                                                  #  BIT 13 FLAG 12
001115: 26,2022                        RCDU0FLG           =        182D                                  #        RR CDU'S BEING          RR CDU'S NOT BEING
001116: 26,2022     4737               RCDU0BIT           =        BIT13                                 #        ZEROED                  ZEROED
001117:
001118:                                                                                                  #  BIT 12 FLAG 12
001119: 26,2022                        ANTENFLG           =        183D                                  #        RR ANTENNA MODE IS      RR ANTENNA IN MODE 1
001120: 26,2022     4740               ANTENBIT           =        BIT12                                 #        MODE 2
001121:
001122:                                                                                                  #  BIT 11 FLAG 12
001123: 26,2022                        REPOSMON           =        184D                                  #        REPOSITION MONITOR.     NO REPOSITION TAKING
001124: 26,2022     4741               REPOSBIT           =        BIT11                                 #        RR REPOSITION IS        PLACE
001125:                                                                                                  #        TAKING PLACE
001126:
001127:                                                                                                  #  BIT 10 FLAG 12
001128: 26,2022                        DESIGFLG           =        185D                                  #        RR DESIGNATE            RR DESIGNATE NOT
001129: 26,2022     4742               DESIGBIT           =        BIT10                                 #        REQUESTED OR IN         REQUESTED OR IN
001130:                                                                                                  #        PROGRESS                PROGRESS
001131:


001133:                                                                                                  #  BIT 9 FLAG 12
001134: 26,2022                        ALTSCALE           =        186D                                  #        LR ALTITUDE READING     LR ALTITUDE READING
001135: 26,2022     4743               ALTSCBIT           =        BIT9                                  #        IS ON HIGH SCALE        IS ON LOW SCALE
001136:
001137:                                                                                                  #  BIT 8 FLAG 12
001138: 26,2022                        LRVELFLG           =        187D                                  #        LR VELOCITY DATA        NO LR VELOCITY DATA
001139: 26,2022     4744               LRVELBIT           =        BIT8                                  #        FAIL                    FAIL
001140:
001141:                                                                                                  #  BIT 7 FLAG 12
001142: 26,2022                        RCDUFAIL           =        188D                                  #        RR CDU FAIL HAS         RR CDU FAIL OCCURRED
001143: 26,2022     4745               RCDUFBIT           =        BIT7                                  #        NOT OCCURRED
001144:
001145:                                                                                                  #  BIT 6 FLAG 12
001146: 26,2022                        LRPOSFLG           =        189D                                  #        LANDING RADAR           LR POSITION 1
001147: 26,2022     4746               LRPOSBIT           =        BIT6                                  #        POSITION 2
001148:
001149:                                                                                                  #  BIT 5 FLAG 12
001150: 26,2022                        LRALTFLG           =        190D                                  #        LR ALTITUDE DATA        NO LR ALTITUDE DATA
001151: 26,2022     4747               LRALTBIT           =        BIT5                                  #        FAIL.  COULD NOT BE     FAIL
001152:                                                                                                  #        READ SUCCESSFULLY.
001153:
001154:                                                                                                  #  BIT 4 FLAG 12
001155: 26,2022                        RRDATAFL           =        191D                                  #        RR DATA FAIL.           NO RR DATA FAIL.
001156: 26,2022     4750               RRDATABT           =        BIT4                                  #        DATA COULD NOT BE
001157:                                                                                                  #        READ SUCCESSFULLY
001158:
001159:                                                                                                  #  BIT 3 FLAG 12
001160: 26,2022                        RRRSFLAG           =        192D                                  #        RR RANGE READING        RR RANGE READING ON
001161: 26,2022     4751               RRRSBIT            =        BIT3                                  #        ON THE HIGH SCALE       THE LOW SCALE
001162:
001163:                                                                                                  #  BIT 2 FLAG 12
001164: 26,2022                        AUTOMODE           =        193D                                  #        RR NOT IN AUTO MODE.    RR IN AUTO MODE
001165: 26,2022     4752               AUTOMBIT           =        BIT2                                  #        AUTO MODE DISCRETE
001166:                                                                                                  #        IS NOT PRESENT
001167:
001168:                                                                                                  #  BIT 1 FLAG 12
001169: 26,2022                        TURNONFL           =        194D                                  #        RR TURN-ON SEQUENCE     NO RR TURN-ON
001170: 26,2022     4753               TURNONBT           =        BIT1                                  #        IN PROGRESS.  (ZERO     SEQUENCE IN PROGRESS
001171:                                                                                                  #        CDU'S, FIX ANTENNA
001172:                                                                                                  #        MODE)
001173:


001175: 26,2022     0111               DAPBOOLS           EQUALS   FLGWRD13                              #  DIGITAL AUTOPILOT FLAGWORD
001176:
001177: 26,2022     0111               FLGWRD13           =        STATE      +13D                       #  (195-209)     WAS DAPBOOLS
001178:
001179:                                                                                                  #        (SET)                   (RESET)
001180:
001181:                                                                                                  #  BIT 15 FLAG 13
001182: 26,2022                        PULSEFLG           =        195D                                  #        MINIMUM IMPULSE         NOT IN MINIMUM
001183: 26,2022     4735               PULSES             =        BIT15                                 #        COMMAND MODE IN         IMPULSE COMMAND MODE
001184:                                                                                                  #        "ATT HOLD" (V76)        (V77)
001185:
001186:                                                                                                  #  BIT 14 FLAG 13
001187: 26,2022                        USEQRFLG           =        196D                                  #        GIMBAL UNUSABLE.        TRIM GIMBAL MAY BE
001188: 26,2022     4736               USEQRJTS           =        BIT14                                 #        USE JETS ONLY.          USED.
001189:
001190:                                                                                                  #  BIT 13 FLAG 13
001191: 26,2022                        CSMDKFLG           =        197D                                  #        CSM DOCKED.  USE        CSM NOT DOCKED TO LM
001192: 26,2022     4737               CSMDOCKD           =        BIT13                                 #        BACKUP DAP
001193:
001194:                                                                                                  #  BIT 12 FLAG 13
001195: 26,2022                        OURRCFLG           =        198D                                  #        CURRENT DAP PASS        CURRENT DAP PASS IS
001196: 26,2022     4740               OURRCBIT           =        BIT12                                 #        IS RATE COMMAND         NOT RATE COMMAND
001197:
001198:                                                                                                  #  BIT 11 FLAG 13
001199: 26,2022                        ACC4-2FL           =        199D                                  #        4 JET X-AXIS TRANS-     2 JET X-AXIS TRANS-
001200: 26,2022     4741               ACC4OR2X           =        BIT11                                 #        LATION REQUESTED        LATION REQUESTED
001201:
001202:                                                                                                  #  BIT 10 FLAG 13
001203: 26,2022                        AORBTFLG           =        200D                                  #        B SYSTEM FOR X-         A SYSTEM FOR X-
001204: 26,2022     4742               AORBTRAN           =        BIT10                                 #        TRANSLATION             TRANSLATION PREFER'D
001205:
001206:                                                                                                  #  BIT 9 FLAG 13
001207: 26,2022                        XOVINFLG           =        201D                                  #        X-AXIS OVERRIDE         X-AXIS OVERRIDE OKAY
001208: 26,2022     4743               XOVINHIB           =        BIT9                                  #        LOCKED OUT
001209:
001210:                                                                                                  #  BIT 8 FLAG 13
001211: 26,2022                        DRIFTDFL           =        202D                                  #        ASSUME 0 OFFSET         USE OFFSET ACCELERA-
001212: 26,2022     4744               DRIFTBIT           =        BIT8                                  #        DRIFTING FLIGHT.        TION ESTIMATE
001213:


001215:                                                                                                  #  BIT 7 FLAG 13
001216: 26,2022                        RHCSCFLG           =        203D                                  #        NORMAL RHC SCALING      FINE RHC SCALING
001217: 26,2022     4745               RHCSCALE           =        BIT7                                  #        REQUESTED               REQUESTED
001218:
001219:                                                                                                  #  BIT 6 FLAG 13
001220: 26,2022                        ULLAGFLG           =        204D                                  #        ULLAGE REQUEST BY       NO INTERNAL ULLAGE
001221: 26,2022     4746               ULLAGER            =        BIT6                                  #        MISSION PROGRAM         REQUEST
001222:
001223:                                                                                                  #  BIT 5 FLAG 13
001224: 26,2022                        DBSL2FLG           =        205D                                  #        5 DEG DEADBAND          1 OR .3 DEG DEADBAND
001225: 26,2022     4747               DBSLECT2           =        BIT5                                  #        SELECTED BY CREW        SELECTED BY CREW
001226:                                                                                                  #                                (SEE BIT4 DAPBOOLS)
001227:
001228:                                                                                                  #  BIT 4 FLAG 13
001229: 26,2022                        DBSELFLG           =        206D                                  #        1 DEG DEADBAND          MIN DB SELECTED BY
001230: 26,2022     4750               DBSELECT           =        BIT4                                  #        SELECTED BY CREW        CREW (0.3 DEG)
001231:
001232:                                                                                                  #  BIT 3 FLAG 13
001233: 26,2022                        ACCOKFLG           =        207D                                  #        CONTROL AUTHORITY       RESTART OR FRESH ST.
001234: 26,2022     4751               ACCSOKAY           =        BIT3                                  #        VALUES FROM 1/ACCS      SINCE LAST 1/ACCS;
001235:                                                                                                  #        USABLE                  OUTPUTS SUSPECT.
001236:
001237:                                                                                                  #  BIT 2 FLAG 13
001238: 26,2022                        AUTR2FLG           =        208D                                  #  THESE FLAGS ARE USED TOGETHER TO INDICAT
001239: 26,2022     4752               AUTRATE2           =        BIT2                                  #  ASTRONAUT-CHOSEN KALCMANU MANEUVER RATES
001240:                                                                                                  #  (0,0)=(BIT2,BIT1)=    0.2 DEG/SEC
001241:                                                                                                  #  (0,1)=                0.5 DEG/SEC
001242:                                                                                                  #  BIT 1 FLAG 13
001243: 26,2022                        AUTR1FLG           =        209D                                  #  (1,0)=                2.0 DEG/SEC
001244: 26,2022     4753               AUTRATE1           =        BIT1                                  #  (1,1)=               10.0 DEG/SEC
001245:
001246:

End of include-file FLAGWORD_ASSIGNMENTS.agc.  Parent file is MAIN.agc


