
Source Code


000002:                                                                                                  ## Copyright:   Public domain.
000003:                                                                                                  ## Filename:    FRESH_START_AND_RESTART.agc
000004:                                                                                                  ## Purpose:     A section of the reconstructed source code for Luminary 130.
000005:                                                                                                  ##              This was the original program released for the Apollo 13 LM,
000006:                                                                                                  ##              although several more revisions would follow. It has been
000007:                                                                                                  ##              reconstructed from a listing of Luminary 131, from which it
000008:                                                                                                  ##              differs on only two lines in P70-P71. The difference is
000009:                                                                                                  ##              described in detail in Luminary memo #129, which was used
000010:                                                                                                  ##              to perform the reconstruction. This file is intended to be a
000011:                                                                                                  ##              faithful reconstruction, except that the code format has been
000012:                                                                                                  ##              changed to conform to the requirements of the yaYUL assembler
000013:                                                                                                  ##              rather than the original YUL assembler.
000014:                                                                                                  ## Reference:   pp. 213-238
000015:                                                                                                  ## Contact:     Ron Burkey <info@sandroid.org>.
000016:                                                                                                  ## Website:     www.ibiblio.org/apollo/index.html
000017:                                                                                                  ## Mod history: 05/06/03 RSB.   Began transcribing.
000018:                                                                                                  ##              05/14/05 RSB    Corrected website reference above.
000019:                                                                                                  ##              2010-10-25 JL   Added missing # to comment. Indentation fixes.
000020:                                                                                                  ##              2017-01-06 RSB  Page numbers now agree with those on the
000021:                                                                                                  ##                              original harcopy, as opposed to the PDF page
000022:                                                                                                  ##                              numbers in 1701.pdf.
000023:                                                                                                  ##              2017-02-22 RSB  Proofed comment text using octopus/ProoferComments.
000024:                                                                                                  ##                              Changed P00H to POOH.
000025:                                                                                                  ##              2017-02-28 RSB  Fixed lingering typos.
000026:                                                                                                  ##              2017-03-02 RSB  P00HFLAG --> POOHFLAG.
000027:                                                                                                  ##              2017-03-13 RSB  Comment-text fixes noted in proofing Luminary 116.
000028:                                                                                                  ##                              GOP00FIX -> GOPOOFIX.
000029:                                                                                                  ##              2017-08-15 RSB  Comment-text fixes identified in proofing vs AP11ROPE.
000030:                                                                                                  ##              2017-08-19 MAS  Fixed label errors found transcribing Zerlina 56.
000031:                                                                                                  ##              2018-09-04 MAS  Copied from Luminary 131 for Luminary 130.
000032:                                                                                                  ##              2021-05-30 ABS  00 -> OO in various symbol names.
000033:                                                                                                  ##                              CANTROD -> CANTROO
000034:


000036: 10,2000                                           BANK     10
000037: 05,2000                                           SETLOC   FRANDRES
000038: 05,2000                                           BANK
000039:
000040: 05,2447  E3,1400                                  EBANK=   LST1
000041:
000042: 05,2447                                           COUNT*   $$/START                              #  FRESH AND RESTART
000043: 05,2447           00004        SLAP1              INHINT                                         #  FRESH START.  COMES HERE FROM PINBALL.
000044: 05,2450           03105                           TC       STARTSUB                              #  SUBROUTINE DOES MOST OF THE WORK.
000045:
000046: 05,2451           12456        STARTSW            TCF      SKIPSIM                               #  PATCH....TCF STARTSIM...FOR SIMULATION
000047: 05,2452           34736        STARTSIM           CAF      BIT14
000048: 05,2453           05105                           TC       FINDVAC
000049: 05,2454           77777        SIM2CADR           OCT      77777                                 #  PATCH 2CADR (AND EBANK DESIGNATION) OF
000050: 05,2455           77777                           OCT      77777                                 #  SIMULATION START ADDRESS.
000051:
000052: 05,2456           31035        SKIPSIM            CA       DSPTAB     +11D                       #  TURN OFF ALL DSPTAB +11D LAMPS
000053: 05,2457           74771                           MASK     BITS4&6                               #  EXCEPT THE GIMBAL LOCK & NO ATT ONLY ON
000054: 05,2460           64735                           AD       BIT15                                 #  REQUESTED FRESH START.
000055: 05,2461           55035                           TS       DSPTAB     +11D
000056:
000057: 05,2462           34755                           CA       ZERO
000058: 05,2463           55365                           TS       ERCOUNT
000059: 05,2464           54375                           TS       FAILREG
000060: 05,2465           54376                           TS       FAILREG    +1
000061: 05,2466           54377                           TS       FAILREG    +2
000062: 05,2467           54320                           TS       REDOCTR
000063:
000064: 05,2470           44644                           CS       PRIO12
000065: 05,2471           55310                           TS       DSRUPTSW
000066:
000067: 05,2472           34736        DOFSTART           CAF      BIT14                                 #  INSURE ENGINE IS OFF.
000068: 05,2473           00006                           EXTEND
000069: 05,2474           01011                           WRITE    DSALMOUT
000070: 05,2475           44755                           CS       ZERO
000071: 05,2476           54055                           TS       THRUST
000072:
000073: 05,2477           34751        DOFSTRT1           CAF      FOUR
000074: 05,2500           55262                           TS       RCSFLAGS                              #  INITIALIZE ATTITUDE ERROR DISPLAYS.
000075: 05,2501           34355                           CA       PRIO30
000076: 05,2502           54366                           TS       RESTREG                               #  SUPER BANK PRIORITY FOR DISPLAYS.
000077:
000078: 05,2503           34755                           CA       ZERO
000079: 05,2504           55245                           TS       ABDELV                                #  DAP INITIALIZATION
000080: 05,2505           54371                           TS       NVSAVE
000081: 05,2506           55071                           TS       EBANKTEM
000082: 05,2507           55257                           TS       CH5MASK
000083: 05,2510           55260                           TS       CH6MASK
000084: 05,2511           55273                           TS       PVALVEST                              #  FOR RCS FAILURE MONITOR


000086: 05,2512           55360                           TS       ERESTORE                              #  ***** MUST NOT BE REMOVED FROM DOFSTART
000087: 05,2513           55362                           TS       SMODE                                 #  ***** MUST NOT BE REMOVED FROM DOFSTART
000088: 05,2514           54333                           TS       DNLSTCOD                              #  SELECT POO DOWNLIST
000089: 05,2515           55321                           TS       AGSWORD                               #  ALLOW AGS INITIALIZATION
000090: 05,2516           55501                           TS       UPSVFLAG                              #  ZERO UPDATE STATE VECTOR REQUEST FLAGWRD
000091: 05,2517           00006                           EXTEND
000092: 05,2520           01005                           WRITE    CHAN5                                 #  TURN OFF RCS JETS.
000093: 05,2521           00006                           EXTEND
000094: 05,2522           01006                           WRITE    CHAN6                                 #  TURN OFF RCS JETS.
000095: 05,2523           00006                           EXTEND
000096: 05,2524           01012                           WRITE    CHAN12
000097: 05,2525           00006                           EXTEND
000098: 05,2526           01013                           WRITE    CHAN13
000099: 05,2527           00006                           EXTEND
000100: 05,2530           01014                           WRITE    CHAN14
000101: 05,2531           41035                           CS       DSPTAB     +11D
000102: 05,2532           74771                           MASK     BITS4&6
000103: 05,2533           10000                           CCS      A
000104: 05,2534           02540                           TC       +4
000105: 05,2535           34771                           CA       BITS4&6
000106: 05,2536           00006                           EXTEND                                         #  THE IMU WAS IN COARSE ALIGN IN GIMBAL
000107: 05,2537           05012                           WOR      CHAN12                                #  LOCK, SO PUT IT BACK INTO COARSE ALIGN.
000108: 05,2540           02641                 +4        TC       MR.KLEAN
000109:
000110: 05,2541           44755                           CS       ZERO
000111: 05,2542           55010                           TS       MODREG
000112:
000113: 05,2543           33373                           CAF      IM30INIF                              #  FRESH START IMU INITIALIZATION.
000114: 05,2544           55277                           TS       IMODES30
000115:
000116: 05,2545           33065                           CAF      MAXDB
000117: 05,2546           55343                           TS       DB
000118: 05,2547           34751                           CAF      FOUR
000119: 05,2550           55322                           TS       RATEINDX                              #  INITIALIZE KALCMANU RATE
000120: 05,2551           33061                           CA       BOOLSTRT
000121: 05,2552           54111                           TS       DAPBOOLS
000122: 05,2553           35015                           CAF      EBANK6
000123: 05,2554           54003                           TS       EBANK
000124: 05,2555  E6,1400                                  EBANK=   HIASCENT
000125:
000126: 05,2555           33056                           CA       STIKSTRT
000127: 05,2556           55444                           TS       STIKSENS
000128: 05,2557           33057                           CA       RATESTRT
000129: 05,2560           55476                           TS       -RATEDB
000130: 05,2561           32000                           CAF      FULLAPS                               #  INITIALIZE MAXIMUM ASCENT MASS FOR USE
000131: 05,2562           55400                           TS       HIASCENT                              #    BY 1/ACCS UNTIL THE PAD LOAD IS DONE.
000132: 05,2563           33062                           CA       77001OCT                              #      LOAD DAP FILTER GAINS PAD LOAD
000133: 05,2564           55403                           TS       DKTRAP                                #        TO BEST PRESENT ESTIMATE OF GOODIES
000134: 05,2565           55406                           TS       LMTRAP                                #  .14 DEG
000135: 05,2566           33063                           CA       60DEC


000137: 05,2567           55405                           TS       DKKAOSN
000138: 05,2570           55410                           TS       LMKAOSN                               #  6 SEC GAIN FOR ALPHA
000139: 05,2571           34755                           CA       ZERO
000140: 05,2572           55407                           TS       LMOMEGAN                              #  UNITY GAIN
000141: 05,2573           34363                           CA       TEN
000142: 05,2574           55404                           TS       DKOMEGAN                              #  1 SEC GAIN FOR OMEGA
000143: 05,2575           34744                           CAF      BIT8                                  #  SET DOCKED DB TO 1.4 DEG.  MAY OVERWRITE
000144: 05,2576           55411                           TS       DKDB                                  #        WITH PAD LOAD.
000145: 05,2577           35026                           CAF      IM33INIT
000146: 05,2600           64746                           AD       BIT6                                  #  KEEP BOTH DAP AND ERROR-NEEDLES DISPLAY
000147: 05,2601           55300                           TS       IMODES33                              #        OFF UNTIL ICDU ZERO IS FINISHED.
000148:
000149: 05,2602           00006                           EXTEND                                         #  INITIALIZE SWITCHES ONLY ON FRESH START.
000150: 05,2603           33400                           DCA      SWINIT
000151: 05,2604           52075                           DXCH     STATE
000152: 05,2605           33401                           CA       SWINIT     +2
000153: 05,2606           54076                           TS       STATE      +2
000154: 05,2607           34737                           CA       REFSMBIT                              #  DO NOT ALTER REFSMFLG ON FRESH START.
000155: 05,2610           70077                           MASK     STATE      +3
000156: 05,2611           63402                           AD       SWINIT     +3
000157: 05,2612           54077                           TS       STATE      +3
000158: 05,2613           00006                           EXTEND
000159: 05,2614           33404                           DCA      SWINIT     +4
000160: 05,2615           52101                           DXCH     STATE      +4
000161: 05,2616           00006                           EXTEND
000162: 05,2617           33406                           DCA      SWINIT     +6
000163: 05,2620           52103                           DXCH     STATE      +6
000164: 05,2621           34744                           CA       SURFFBIT                              #  DO NOT ALTER  SURFFLAG ON FRESH START.
000165: 05,2622           64740                           AD       CMOONBIT                              #                CMOONFLG
000166: 05,2623           64741                           AD       LMOONBIT                              #                LMOONFLG
000167: 05,2624           70104                           MASK     STATE      +8D
000168: 05,2625           63407                           AD       SWINIT     +8D
000169: 05,2626           54104                           TS       STATE      +8D
000170: 05,2627           33410                           CA       SWINIT     +9D
000171: 05,2630           54105                           TS       STATE      +9D
000172: 05,2631           34737                           CA       APSFLBIT                              #  DO NOT ALTER APSFLAG ON FRESH START.
000173: 05,2632           70106                           MASK     STATE      +10D
000174: 05,2633           63411                           AD       SWINIT     +10D
000175: 05,2634           54106                           TS       STATE      +10D
000176: 05,2635           33412                           CAF      SWINIT     +11D
000177: 05,2636           54107                           TS       STATE      +11D
000178:
000179: 05,2637           04635        ENDRSTRT           TC       POSTJUMP                              #  NOW IN ANOTHER BANK.
000180: 05,2640           03211                           CADR     DUMMYJOB   +2                         #  PICKS UP AT RELINT.   (DONT ZERO NEWJOB)
000181:
000182: 05,2641           00004        MR.KLEAN           INHINT
000183: 05,2642           00006                           EXTEND
000184: 05,2643           34755                           DCA      NEG0
000185: 05,2644           52754                           DXCH     -PHASE2
000186:


000188: 05,2645           00006        POOKLEAN           EXTEND
000189: 05,2646           34755                           DCA      NEG0
000190: 05,2647           52760                           DXCH     -PHASE4
000191: 05,2650           00006        V37KLEAN           EXTEND
000192: 05,2651           34755                           DCA      NEG0
000193: 05,2652           52762                           DXCH     -PHASE5
000194: 05,2653           00006        ABTKLEAN           EXTEND
000195: 05,2654           34755                           DCA      NEG0
000196: 05,2655           52756                           DXCH     -PHASE3
000197: 05,2656           00006                           EXTEND
000198: 05,2657           34755                           DCA      NEG0
000199: 05,2660           52752                           DXCH     -PHASE1
000200: 05,2661           00006                           EXTEND
000201: 05,2662           34755                           DCA      NEG0
000202: 05,2663           52764                           DXCH     -PHASE6
000203: 05,2664           00002                           TC       Q
000204:


000206:                                                                                                  #  COMES HERE FROM LOCATION 4000, GOJAM. RESTART ANY PROGRAMS WHICH MAY HAVE BEEN RUNNING AT THE TIME
000207:
000208: 05,2665  E3,1400                                  EBANK=   LST1
000209: 05,2665           24320        GOPROG             INCR     REDOCTR                               #  ADVANCE RESTART COUNTER.
000210:
000211: 05,2666           22002                           LXCH     Q
000212: 05,2667           00006                           EXTEND
000213: 05,2670           04007                           ROR      SUPERBNK
000214: 05,2671           53433                           DXCH     RSBBQ
000215: 05,2672           31035                           CA       DSPTAB     +11D
000216: 05,2673           74750                           MASK     BIT4
000217: 05,2674           00006                           EXTEND
000218: 05,2675           12701                           BZF      +4
000219: 05,2676           64746                           AD       BIT6                                  #  SET ERROR COUNTER ENABLE
000220: 05,2677           00006                           EXTEND


000222: 05,2700           05012                           WOR      CHAN12                                #  ISS WAS IN COARS ALIGN SO GO BACK TO
000223: 05,2701           03066        BUTTONS            TC       LIGHTSET
000224:
000225:                                                                                                  #  ERASCHK TEMPORARILY STORES THE CONTENTS OF TWO ERASABLE LOCATIONS, X
000226:                                                                                                  #  AND X+1 INTO SKEEP5 AND SKEEP6.  IT ALSO STORES X INTO SKEEP7 AND
000227:                                                                                                  #  ERESTORE.  IF ERASCHK IS INTERRUPTED BY A RESTART, C(ERESTORE) SHOULD
000228:                                                                                                  #  EQUAL C(SKEEP7), AND BE A + NUMBER LESS THAN 2000 OCT.  OTHERWISE
000229:                                                                                                  #  C(ERESTORE) SHOULD EQUAL +0.
000230:
000231: 05,2702           34350                           CAF      HI5
000232: 05,2703           71360                           MASK     ERESTORE
000233: 05,2704           00006                           EXTEND
000234: 05,2705           12707                           BZF      +2                                    #  IF ERESTORE NOT = +0 OR +N LESS THAN 2K,
000235: 05,2706           13103                           TCF      NONAVKEY   +3                         #  DO FRESH START - E MEMORY MIGHT BE BAD
000236: 05,2707           41360                           CS       ERESTORE
000237: 05,2710           00006                           EXTEND
000238: 05,2711           12726                           BZF      DORSTART                              #  = +0 CONTINUE WITH RESTART.
000239: 05,2712           61377                           AD       SKEEP7
000240: 05,2713           00006                           EXTEND
000241: 05,2714           12716                           BZF      +2                                    #  = SKEEP7, RESTORE E MEMORY.
000242: 05,2715           13103                           TCF      NONAVKEY   +3                         #  DO FRESH START - E MEMORY MIGHT BE BAD
000243: 05,2716           31374                           CA       SKEEP4
000244: 05,2717           54003                           TS       EBANK                                 #  EBANK OF E MEMORY THAT WAS UNDER TEST.
000245: 05,2720           00006                           EXTEND                                         #  (NOT DXCH SINCE THIS MIGHT HAPPEN AGAIN)
000246: 05,2721           31376                           DCA      SKEEP5
000247: 05,2722           51377                           INDEX    SKEEP7
000248: 05,2723           52001                           DXCH     0000                                  #  E MEMORY RESTORED.
000249: 05,2724           34755                           CA       ZERO
000250: 05,2725           55360                           TS       ERESTORE
000251: 05,2726           03105        DORSTART           TC       STARTSUB                              #  DO INITIALIZATION AFTER ERASE RESTORE.
000252:
000253: 05,2727           44736        SETINFL            CS       INTFLBIT
000254: 05,2730           70106                           MASK     FLGWRD10
000255: 05,2731           54106                           TS       FLGWRD10


000257: 05,2732           33375                           CA       9,6,4                                 #  LEAVE PROG ALARM, GIMBAL LOCK, NO ATT
000258: 05,2733           71035                           MASK     DSPTAB     +11D                       #  LAMPS INTACT ON HARDWARE RESTART
000259: 05,2734           64735                           AD       BIT15
000260: 05,2735           57035                           XCH      DSPTAB     +11D
000261: 05,2736           33361                           CAF      IFAILINH                              #  LEAVE IMU FAILURE INHIBITS INTACT ON
000262: 05,2737           71277                           MASK     IMODES30                              #  HARDWARE RESTART. RESET ALL FAILURE
000263: 05,2740           63374                           AD       IM30INIR                              #  CODES.
000264: 05,2741           55277                           TS       IMODES30
000265:
000266: 05,2742           31321                           CA       AGSWORD                               #  BE SURE OF CORRECT DOWNLIST
000267: 05,2743           54333                           TS       DNLSTCOD
000268:
000269: 05,2744           34750                           CA       BIT4                                  #  TURN ON THROTTLE COUNTER
000270: 05,2745           00006                           EXTEND
000271: 05,2746           05014                           WOR      CHAN14                                #  TURN ON THRUST DRIVE
000272: 05,2747           40101                           CS       FLAGWRD5
000273: 05,2750           74745                           MASK     ENGONBIT
000274: 05,2751           10000                           CCS      A
000275: 05,2752           12757                           TCF      +5
000276: 05,2753           34737                           CAF      BIT13
000277: 05,2754           00006                           EXTEND
000278: 05,2755           05011                           WOR      DSALMOUT                              #  TURN ENGINE ON
000279: 05,2756           12773                           TCF      GOPROG3
000280: 05,2757           34736                 +5        CAF      BIT14
000281: 05,2760           00006                           EXTEND
000282: 05,2761           05011                           WOR      DSALMOUT                              #  TURN ENGINE OFF.
000283: 05,2762           12773                           TCF      GOPROG3
000284:
000285: 05,2763           00004        ENEMA              INHINT
000286: 05,2764           03114                           TC       STARTSB1
000287: 05,2765           12767                           TCF      GOPROG2A
000288: 05,2766           03157        GOPROG2            TC       STARTSB2
000289: 05,2767           03066        GOPROG2A           TC       LIGHTSET
000290: 05,2770           43064                           CS       RSFLGBTS                              #  CLEAR BITS 7 AND 14.
000291: 05,2771           70106                           MASK     FLGWRD10
000292: 05,2772           54106                           TS       FLGWRD10
000293:
000294: 05,2773           34756        GOPROG3            CAF      NUMGRPS                               #  VERIFY PHASE TABLE AGREEMENTS
000295: 05,2774           54161        PCLOOP             TS       MPAC       +5
000296: 05,2775           60000                           DOUBLE
000297: 05,2776           00006                           EXTEND
000298: 05,2777           50000                           INDEX    A
000299: 05,3000           30752                           DCA      -PHASE1                               #  COMPLEMENT INTO A, DIRECT INTO L.
000300: 05,3001           00006                           EXTEND
000301: 05,3002           06001                           RXOR     LCHAN                                 #  RESULT MUST BE -0 FOR AGREEMENT.
000302: 05,3003           10000                           CCS      A
000303: 05,3004           13052                           TCF      PTBAD                                 #  RESTART FAILURE.
000304: 05,3005           13052                           TCF      PTBAD
000305: 05,3006           13052                           TCF      PTBAD


000307: 05,3007           10161                           CCS      MPAC       +5                         #  PROCESS ALL RESTART GROUPS.
000308: 05,3010           12774                           TCF      PCLOOP
000309:
000310: 05,3011           54162                           TS       MPAC       +6                         #  SET TO +0.
000311: 05,3012           05315                           TC       MMDSPLAY                              #  DISPLAY MAJOR MODE
000312:
000313: 05,3013           00004                           INHINT                                         #  RELINT DONE IN MMDSPLAY
000314:
000315: 05,3014           44736                           CS       DIDFLBIT                              #  CLEAR DIDFLAG IN ORDER TO FORCE R10 TO
000316: 05,3015           70075                           MASK     FLAGWRD1                              #  RE-INITIALIZE ITSELF IF IT HAD BEEN
000317: 05,3016           54075                           TS       FLAGWRD1                              #  OPERATING AT THE TIME OF THE RESTART.
000318:
000319: 05,3017           44740                           CS       RODFLBIT                              #  CLEAR RODFLAG.  IF P66 IS IN OPERATION
000320: 05,3020           70075                           MASK     FLAGWRD1                              #        IT WILL RE-INITIALIZE ITSELF AND
000321: 05,3021           54075                           TS       FLAGWRD1                              #        CONTINUE.
000322:
000323: 05,3022           44741                           CS       P21FLBIT                              #  CLEAR P21 FLAG SO THAT P21 WILL COMPUTE
000324: 05,3023           70074                           MASK     FLAGWRD0                              #  NEW BASE STATE VECTORS.
000325: 05,3024           54074                           TS       FLAGWRD0
000326:
000327: 05,3025           34756                           CAF      NUMGRPS                               #  SEE IF ANY GROUPS RUNNING.
000328: 05,3026           54161        NXTRST             TS       MPAC       +5
000329: 05,3027           60000                           DOUBLE
000330: 05,3030           50000                           INDEX    A
000331: 05,3031           10752                           CCS      PHASE1
000332: 05,3032           13034                           TCF      PACTIVE                               #  PNZ - GROUP ACTIVE.
000333: 05,3033           13041                           TCF      PINACT                                #  +0 - GROUP NOT RUNNING.
000334:
000335: 05,3034           54154        PACTIVE            TS       MPAC
000336: 05,3035           24154                           INCR     MPAC                                  #  ABS OF PHASE.
000337: 05,3036           24162                           INCR     MPAC       +6                         #  INDICATE GROUP DEMANDS PRESENT.
000338: 05,3037           33060                           CA       RACTCADR
000339: 05,3040           04622                           TC       SWCALL                                #  MUST RETURN TO SWRETURN.
000340:
000341: 05,3041           10161        PINACT             CCS      MPAC       +5                         #  PROCESS ALL RESTART GROUPS.
000342: 05,3042           13026                           TCF      NXTRST
000343:
000344: 05,3043           10162                           CCS      MPAC       +6                         #  NO, CHECK PHASE ACTIVITY FLAG
000345: 05,3044           12637                           TCF      ENDRSTRT                              #  PHASE ACTIVE
000346: 05,3045           34735                           CAF      BIT15                                 #  IS MODE -0
000347: 05,3046           71010                           MASK     MODREG
000348: 05,3047           00006                           EXTEND
000349: 05,3050           16001                           BZF      GOTOPOOH                              #  NO
000350: 05,3051           12637                           TCF      ENDRSTRT                              #  YES
000351: 05,3052           05567        PTBAD              TC       ALARM                                 #  SET ALARM TO SHOW PHASE TABLE FAILURE.
000352: 05,3053           01107                           OCT      1107
000353:
000354: 05,3054           12477                           TCF      DOFSTRT1
000355:
000356:                                                                                                  #  ******** ****** ******


000358:                                                                                                  #  DO NOT USE GOPROG2 OR ENEMA WITHOUT CONSULTING POOH PEOPLE
000359:
000360: 05,3055     4737               OCT10000           =        BIT13
000361: 05,3055     4355               OCT30000           =        PRIO30
000362: 05,3055           07777        OCT7777            OCT      7777
000363: 05,3056           32321        STIKSTRT           DEC      0.825268                              #  20 D/S MAXIMUM COMMANDED RATE
000364: 05,3057           77445        RATESTRT           DEC      -218       B-14
000365: 05,3060           03527        RACTCADR           CADR     RESTARTS
000366: 05,3061           21322        BOOLSTRT           OCT      21322
000367: 05,3062           77001        77001OCT           OCT      77001                                 #  .14 DEG SCALED AT 4.5 DEG
000368: 05,3063           00074        60DEC              DEC      60         B-14
000369: 05,3064           20100        RSFLGBTS           OCT      20100
000370: 05,3065           03434        MAXDB              OCTAL    03434                                 #  5 DEG ATTITUDE DEADBAND, SCALED AT 45.
000371:
000372: 05,3066           34747        LIGHTSET           CAF      BIT5                                  #  CHECK FOR MARK REJECT AND ERROR RESET
000373: 05,3067           00006                           EXTEND
000374: 05,3070           02016                           RAND     NAVKEYIN
000375: 05,3071           00006                           EXTEND
000376: 05,3072           13100                           BZF      NONAVKEY                              #  NO MARK REJECT
000377: 05,3073           00006                           EXTEND
000378: 05,3074           00015                           READ     MNKEYIN                               #  CHECK IF KEYS 2M AND 5M ON
000379: 05,3075           63372                           AD       -ELR                                  #  MAIN DSKY KEYCODE (BITS 1-5)
000380: 05,3076           00006                           EXTEND
000381: 05,3077           13101                           BZF      +2
000382:
000383: 05,3100           00002        NONAVKEY           TC       Q
000384:
000385: 05,3101           03105                           TC       STARTSUB
000386: 05,3102           12472                           TCF      DOFSTART
000387: 05,3103           03105                 +3        TC       STARTSUB
000388: 05,3104           12477                           TCF      DOFSTRT1                              #  DO FRESH START BUT DON'T TOUCH ENGINE
000389:


000391:                                                                                                  #  INITIALIZATION COMMON TO BOTH FRESH START AND RESTART.
000392:
000393: 05,3105  E6,1536                                  EBANK=   AOSQ
000394: 05,3105           33362        STARTSUB           CAF      LDNPHAS1                              #  SET POINTER SO NEXT 20MS DOWNRUPT WILL
000395: 05,3106           54335                           TS       DNTMGOTO                              #  CAUSE THE CURRENT DOWNLIST TO BE
000396:                                                                                                  #  INTERRUPTED AND START SENDING FROM THE
000397:                                                                                                  #  BEGINNING OF THE CURRENT DOWNLIST.
000398: 05,3107           34746                           CAF      BIT6
000399: 05,3110           00006                           EXTEND
000400: 05,3111           02033                           RAND     CHAN33
000401: 05,3112           63376                           AD       RMODINIT
000402: 05,3113           54110                           TS       RADMODES
000403:
000404: 05,3114           34733        STARTSB1           CAF      POSMAX
000405: 05,3115           54026                           TS       TIME3
000406: 05,3116           67751                           AD       MINUS2
000407: 05,3117           54027                           TS       TIME4
000408: 05,3120           67752                           AD       NEGONE
000409: 05,3121           54030                           TS       TIME5
000410:
000411: 05,3122           35015                           CAF      EBANK6
000412: 05,3123           54003                           TS       EBANK
000413:
000414: 05,3124           44737                           CS       BIT13                                 #  CAUSE DAPIDLER TO CALL 1/ACCS
000415: 05,3125           71262                           MASK     RCSFLAGS
000416: 05,3126           55262                           TS       RCSFLAGS                              #  ZERO BIT 13
000417: 05,3127           34733                           CAF      POSMAX                                #  DISABLE TIME6 CLOCK.  JUST IN CASE A T6
000418: 05,3130           55466                           TS       T6NEXT                                #        RUPT IS ALREADY IN THE PRIORITY CHAIN,
000419: 05,3131           00006                           EXTEND                                         #        ENSURE THAT IT'S INPUTS WILL RENDER IT
000420: 05,3132           03013                           WAND     CHAN13                                #        INEFFECTUAL.
000421: 05,3133           34755                           CAF      ZERO
000422: 05,3134           55465                           TS       NXT6ADR
000423: 05,3135           55472                           TS       NEXTP
000424:
000425: 05,3136           44751                           CS       ACCSOKAY
000426: 05,3137           70111                           MASK     DAPBOOLS
000427: 05,3140           54111                           TS       DAPBOOLS
000428:
000429: 05,3141           00006                           EXTEND                                         #  SET T5RUPT FOR DAPIDLER PROGRAM.
000430: 05,3142           33360                           DCA      IDLEADR
000431: 05,3143           53264                           DXCH     T5ADR
000432:
000433: 05,3144           40107                           CS       FLGWRD11                              #  IF R12 IS PERMITTED, ENSURE THAT NEXT
000434: 05,3145           74735                           MASK     LRBYBIT                               #        RADAR READS ARE NOT USED
000435: 05,3146           00006                           EXTEND
000436: 05,3147           13157                           BZF      STARTSB2                              #  R12 OFF
000437:
000438: 05,3150           24006                           INCR     BBANK                                 #  SET EBANK TO 7
000439: 05,3151  E7,1674                                  EBANK=   STILBADH
000440: 05,3151           11674                           CCS      STILBADH                              #  IF STILBADH>0, NEXT READ WILL BE IGNORED


000442: 05,3152           13154                           TCF      +2
000443: 05,3153           25674                           INCR     STILBADH                              #  SET STILBADH TO IGNORE NEXT READ
000444:
000445: 05,3154           11675                 +2        CCS      STILBADV
000446: 05,3155           13157                           TCF      STARTSB2                              #  IF STILBADV>0, NEXT READ WILL BE IGNORED
000447: 05,3156           25675                           INCR     STILBADV                              #  SET STILBADV TO IGNORE NEXT READ
000448:
000449: 05,3157           33371        STARTSB2           CAF      OCT30001                              #  DURING SOFTWARE RESTART, DO NOT DISTURB
000450: 05,3160           00006                           EXTEND                                         #  ENGINE ON, OFF AND ISS WARNING.
000451: 05,3161           03011                           WAND     DSALMOUT
000452:
000453: 05,3162           44743                           CS       READRBIT                              #  CLEAR READRFLG FOR R29.
000454: 05,3163           70077                           MASK     FLAGWRD3
000455: 05,3164           54077                           TS       FLAGWRD3
000456:
000457: 05,3165           40077                           CS       FLAGWRD3                              #  DURING SOFTWARE RESTART, CLEAR TURNON,
000458: 05,3166           74741                           MASK     NR29FBIT                              #  REPOSITION, CDU ZERO AND REMODE BITS
000459: 05,3167           00006                           EXTEND                                         #  IN RADMODES, SINCE TASKS ASSOCIATED
000460: 05,3170           13172                           BZF      +2                                    #  WITH THESE BITS HAVE BEEN KILLED
000461: 05,3171           34742                           CAF      BIT10                                 #  ALSO IF R29 HAD BEEN REQUESTED,
000462: 05,3172           63365                           AD       OCT32001                              #  (NOR29FLG = 0) CLEAR BIT 10 RADMODES
000463: 05,3173           40000                           COM                                            #  TO MAKE R29 FORGET IT HAD STARTED
000464: 05,3174           70110                           MASK     RADMODES                              #  DESIGNATING
000465: 05,3175           54110                           TS       RADMODES
000466: 05,3176           33367                           CAF      OCT27470                              #  DURING SOFTWARE RESTART, DO NOT DISTURB
000467: 05,3177           00006                           EXTEND                                         #  IMU FLAGS.  (COURSE ALIGN ENABLE, ZERO
000468: 05,3200           03012                           WAND     CHAN12                                #  IMU CDUS, ENABLE IMU COUNTER) AND GIMBAL
000469:                                                                                                  #  TRIM DRIVES.  LEAVE RR LOCKON ENABLE
000470:                                                                                                  #  ALONE.
000471:
000472: 05,3201           44750                           CS       NORRMBIT                              #  ENABLE R25.
000473: 05,3202           70101                           MASK     FLAGWRD5
000474: 05,3203           54101                           TS       FLAGWRD5
000475:
000476: 05,3204           44741                           CS       R77FLBIT                              #  CLEAR R77FLAG
000477: 05,3205           70101                           MASK     FLAGWRD5
000478: 05,3206           54101                           TS       FLAGWRD5
000479: 05,3207           33370                           CAF      OCT74160                              #  DURING SOFTWARE RESTART, DO NOT DUSTURB
000480: 05,3210           00006                           EXTEND                                         #  TELEMETRY FLAGS, RESET TRAP FLAGS, AND
000481: 05,3211           03013                           WAND     CHAN13                                #  ENABLE T6RUPT FLAG.
000482:
000483: 05,3212           34740                           CAF      BIT12                                 #  REENABLE RUPT10 (RUPT QUICKLY
000484: 05,3213           00006                           EXTEND                                         #        RESUMES EXCEPT DURING P64)
000485: 05,3214           05013                           WOR      CHAN13
000486:
000487: 05,3215           34746                           CAF      BIT6                                  #  DURING SOFTWARE RESTART, DO NOT DISTURB
000488: 05,3216           00006                           EXTEND                                         #  GYRO ENABLE FLAG.
000489: 05,3217           03014                           WAND     CHAN14
000490:
000491: 05,3220  E3,1400                                  EBANK=   LST1


000493: 05,3220           35007                           CAF      STARTEB
000494: 05,3221           54003                           TS       EBANK                                 #  SET FOR E3
000495:
000496: 05,3222           34734                           CAF      NEG1/2                                #  INITIALIZE WAITLIST DELTA-TS.
000497: 05,3223           55407                           TS       LST1       +7
000498: 05,3224           55406                           TS       LST1       +6
000499: 05,3225           55405                           TS       LST1       +5
000500: 05,3226           55404                           TS       LST1       +4
000501: 05,3227           55403                           TS       LST1       +3
000502: 05,3230           55402                           TS       LST1       +2
000503: 05,3231           55401                           TS       LST1       +1
000504: 05,3232           55400                           TS       LST1
000505:
000506: 05,3233           45236                           CS       ENDTASK
000507: 05,3234           55410                           TS       LST2
000508: 05,3235           55412                           TS       LST2       +2
000509: 05,3236           55414                           TS       LST2       +4
000510: 05,3237           55416                           TS       LST2       +6
000511: 05,3240           55420                           TS       LST2       +8D
000512: 05,3241           55422                           TS       LST2       +10D
000513: 05,3242           55424                           TS       LST2       +12D
000514: 05,3243           55426                           TS       LST2       +14D
000515: 05,3244           55430                           TS       LST2       +16D
000516: 05,3245           45237                           CS       ENDTASK    +1
000517: 05,3246           55411                           TS       LST2       +1
000518: 05,3247           55413                           TS       LST2       +3
000519: 05,3250           55415                           TS       LST2       +5
000520: 05,3251           55417                           TS       LST2       +7
000521: 05,3252           55421                           TS       LST2       +9D
000522: 05,3253           55423                           TS       LST2       +11D
000523: 05,3254           55425                           TS       LST2       +13D
000524: 05,3255           55427                           TS       LST2       +15D
000525: 05,3256           55431                           TS       LST2       +17D
000526:
000527: 05,3257           44755                           CS       ZERO                                  #  MAKE ALL EXECUTIVE REGISTER SETS
000528: 05,3260           54167                           TS       PRIORITY                              #  AVAILABLE.
000529: 05,3261           54203                           TS       PRIORITY   +12D
000530: 05,3262           54217                           TS       PRIORITY   +24D
000531: 05,3263           54233                           TS       PRIORITY   +36D
000532: 05,3264           54247                           TS       PRIORITY   +48D
000533: 05,3265           54263                           TS       PRIORITY   +60D
000534: 05,3266           54277                           TS       PRIORITY   +72D
000535: 05,3267           54313                           TS       PRIORITY   +84D
000536:
000537: 05,3270           55310                           TS       DSRUPTSW
000538: 05,3271           54067                           TS       NEWJOB                                #  SHOWS NO ACTIVE JOBS.
000539:
000540: 05,3272           33364                           CAF      VAC1ADRC                              #  MAKE ALL VAC AREAS AVAILABLE.
000541: 05,3273           54400                           TS       VAC1USE
000542: 05,3274           63366                           AD       LTHVACA


000544: 05,3275           54454                           TS       VAC2USE
000545: 05,3276           63366                           AD       LTHVACA
000546: 05,3277           54530                           TS       VAC3USE
000547: 05,3300           63366                           AD       LTHVACA
000548: 05,3301           54604                           TS       VAC4USE
000549: 05,3302           63366                           AD       LTHVACA
000550: 05,3303           54660                           TS       VAC5USE
000551:
000552: 05,3304           34363                           CAF      TEN
000553: 05,3305           54154        DSPOFF             TS       MPAC                                  #  R1,R2,R3).
000554: 05,3306           44740                           CS       BIT12
000555: 05,3307           50154                           INDEX    MPAC
000556: 05,3310           55022                           TS       DSPTAB
000557: 05,3311           10154                           CCS      MPAC
000558: 05,3312           13305                           TCF      DSPOFF
000559:
000560: 05,3313           55323                           TS       DELAYLOC
000561: 05,3314           55324                           TS       DELAYLOC   +1
000562: 05,3315           55325                           TS       DELAYLOC   +2
000563: 05,3316           55073                           TS       R1SAVE
000564: 05,3317           54045                           TS       INLINK
000565: 05,3320           54775                           TS       DSPCNT
000566: 05,3321           55041                           TS       CADRSTOR
000567: 05,3322           55012                           TS       REQRET
000568: 05,3323           55014                           TS       CLPASS
000569: 05,3324           55011                           TS       DSPLOCK
000570: 05,3325           55017                           TS       MONSAVE                               #  KILL MONITOR
000571: 05,3326           55020                           TS       MONSAVE1
000572: 05,3327           55000                           TS       VERBREG
000573: 05,3330           55001                           TS       NOUNREG
000574: 05,3331           55042                           TS       DSPLIST
000575: 05,3332           55307                           TS       MARKSTAT
000576: 05,3333           55043                           TS       EXTVBACT                              #  MAKE EXTENDED VERBS AVAILABLE
000577: 05,3334           55301                           TS       IMUCADR
000578: 05,3335           55302                           TS       OPTCADR
000579: 05,3336           55303                           TS       RADCADR
000580: 05,3337           55304                           TS       ATTCADR
000581: 05,3340           55311                           TS       LGYRO
000582: 05,3341           54100                           TS       FLAGWRD4                              #  KILL INTERFACE DISPLAYS
000583: 05,3342           34760                           CAF      NOUTCON
000584: 05,3343           55015                           TS       NOUT
000585:
000586: 05,3344           44753                           CS       ONE
000587: 05,3345           55077                           TS       SAMPLIM
000588: 05,3346           34746                           CAF      BIT6
000589: 05,3347           71300                           MASK     IMODES33                              #  LEAVE BIT 6 UNCHANGED
000590: 05,3350           65026                           AD       IM33INIT                              #  NO PIP OR TM FAILS.BIT6=0 IN THIS WORD.
000591: 05,3351           55300                           TS       IMODES33
000592:
000593: 05,3352           33363                           CAF      LESCHK                                #  SELF CHECK GO-TO REGISTER.


000595: 05,3353           55361                           TS       SELFRET
000596:
000597: 05,3354           44360                           CS       VD1
000598: 05,3355           54776                           TS       DSPCOUNT
000599:
000600: 05,3356           00002                           TC       Q
000601: 05,3357  E6,1536                                  EBANK=   AOSQ
000602: 05,3357           02024 34066  IDLEADR            2CADR    DAPIDLER
000603:
000604: 05,3361           00435        IFAILINH           OCT      435
000605: 05,3362           03522        LDNPHAS1           GENADR   DNPHASE1
000606: 05,3363           03363        LESCHK             GENADR   SELFCHK
000607: 05,3364           00400        VAC1ADRC           ADRES    VAC1USE
000608: 05,3365           32001        OCT32001           OCT      32001
000609: 05,3366           00054        LTHVACA            DEC      44         B-14
000610:
000611: 05,3367           27470        OCT27470           OCT      27470
000612: 05,3370           74160        OCT74160           OCT      74160
000613: 05,3371           30001        OCT30001           OCT      30001
000614: 05,3372     5007               STARTEB            EQUALS   EBANK3
000615: 05,3372     4756               NUMGRPS            EQUALS   FIVE
000616: 05,3372           77755        -ELR               OCT      -22                                   #  -ERROR LIGHT RESET KEY CODE.
000617: 05,3373           37411        IM30INIF           OCT      37411                                 #  INHIBITS IMU FAIL FOR 5 SEC AND PIP ISSW
000618: 05,3374           37000        IM30INIR           OCT      37000
000619: 05,3375     5026               IM33INIT           =        PRIO16                                #  NO PIP OR TM FAIL SIGNALS.
000620: 05,3375           00450        9,6,4              OCT      450
000621: 05,3376           00102        RMODINIT           OCT      00102
000622: 05,3377           00000        SWINIT             OCT      0
000623: 05,3400           00000                           OCT      0
000624: 05,3401           00000                           OCT      0
000625: 05,3402           02000                           OCT      02000                                 #  BIT 11 = NOR29FLG
000626: 05,3403           00000                           OCT      0
000627: 05,3404           00000                           OCT      0
000628: 05,3405           00000                           OCT      0
000629: 05,3406           00100                           OCT      00100
000630:
000631: 05,3407           00000                           OCT      0
000632: 05,3410           00000                           OCT      0
000633: 05,3411           00000                           OCT      0
000634: 05,3412           40000                           OCT      40000                                 #  BIT 15 = LRBYPASS.
000635:


000637:                                                                                                  #  PROGRAM NAME          GOTOPOOH                ASSEMBLY SUNDANCE
000638:                                                                                                  #  LOG SECTION           FRESH START AND RESTART
000639:
000640:                                                                                                  #  FUNCTIONAL DESCRIPTION
000641:
000642:                                                                                                  #        FLASH V 37 ON DSKY %MM CHANGE REQUEST "
000643:
000644:                                                                                                  #  INPUT/OUTPUT INFORMATION
000645:
000646:                                                                                                  #        A. CALLING SEQUENCE                     TC GOTOPOOH
000647:                                                                                                  #        B. ERASABLE INITIALIZATION              NONE
000648:                                                                                                  #        C. OUTPUT FLASH V 37 ON DSKY
000649:                                                                                                  #        D. DEBRIS                               L
000650:
000651:                                                                                                  #  PROGRAM ANALYSIS
000652:
000653:                                                                                                  #        A. SUBROUTINES CALLED                   PRIODSPR, LINUS
000654:                                                                                                  #        B. NORMAL EXIT                          TCF ENDOFJOB
000655:                                                                                                  #        C. ALARM AND ABORT EXITS                NONE
000656:
000657:    6001                                           BLOCK    03
000658:    6000                                           SETLOC   FFTAG5
000659:    6000                                           BANK
000660:
000661:    6001                                           COUNT*   $$/P00
000662:    6001           34764        GOTOPOOH           CAF      OCT33                                 #  4.33 SPOT FOR GOPOOFIX
000663:    6002           54001                           TS       L
000664:    6003           40000                           COM
000665:    6004           52760                           DXCH     -PHASE4
000666:
000667:    6005           04635                           TC       POSTJUMP
000668:    6006           10024                           CADR     GOPOOFIX
000669:    6007           00024        OCT24              MM       20         B-14
000670:    6010           00031        OCT31              MM       25         B-14
000671:
000672: 20,2004                                           BANK     20
000673: 04,2000                                           SETLOC   VERB37
000674: 04,2000                                           BANK
000675:
000676: 04,2024                                           COUNT*   $$/P00                                #  VERB 37 AND P00 IN BANK 4.
000677: 04,2024           05516        GOPOOFIX           TC       DOWNFLAG                              #  ALLOW X-AXIS OVERRIDE
000678: 04,2025           00311                           ADRES    XOVINFLG
000679:
000680: 04,2026           05516                           TC       DOWNFLAG                              #  INSURE THAT ULLAGE IS OFF
000681: 04,2027           00314                           ADRES    ULLAGFLG


000683: 04,2030           05476                           TC       CLEARMRK   +2                         #  RELEASE MARK DISPLAY SYSTEM.
000684: 04,2031           32037                           CAF      V37N99
000685: 04,2032           04616                           TC       BANKCALL
000686: 04,2033           20477                           CADR     GOFLASH
000687: 04,2034           12031                           TCF      -3
000688: 04,2035           12031                           TCF      -4
000689: 04,2036           12031                           TCF      -5
000690:
000691: 04,2037           11343        V37N99             VN       3799
000692:


000694:                                                                                                  #  PROGRAM NAME          V37                     ASSEMBLY SUNDANCE
000695:
000696:                                                                                                  #  LOG SECTION           FRESH START AND RESTART
000697:
000698:                                                                                                  #  FUNCTIONAL DESCRIPTION
000699:
000700:                                                                                                  #        1. CHECK IF NEW PROGRAM ALLOWED.  IF BIT 1 OF FLAGWRD2 (NODOFLAG) IS SET, AN ALARM 1520 IS CALLED.
000701:                                                                                                  #        2. CHECK FOR VALIDITY OF PROGRAM SELECTED.  IF AN INVALID PROGRAM IS SELECTED, THE OPERATOR ERROR LIGHT IS
000702:                                                                                                  #           SET AND CURRENT ACTIVITY, IF ANY, CONTINUES.
000703:                                                                                                  #        3. SERVICER IS TERMINATED IF IT HAS BEEN RUNNING.
000704:                                                                                                  #        4. INSTALL IS EXECUTED TO AVOID INTERRUPTING INTEGRATION.
000705:                                                                                                  #        5. THE ENGINE IS TURNED OFF AND THE DAP IS INITIALIZED FOR COAST.
000706:                                                                                                  #        6. TRACK AND UPDATE FLAGS ARE SET TO ZERO.
000707:                                                                                                  #        7. DISPLAY SYSTEM IS RELEASED.
000708:                                                                                                  #        8. THE FOLLOWING ARE PERFORMED FOR EACH OF THE THREE CASES.
000709:                                                                                                  #                A. PROGRAM SELECTED IS P00.
000710:                                                                                                  #                        1. RENDEZVOUS AND P25 FLAGS ARE RESET.  (KILL P20 AND P25)
000711:                                                                                                  #                        2. STATINT1 IS SCHEDULED BY SETTING RESTART GROUP 2.
000712:                                                                                                  #                        3. MAJOR MODE 00 IS STORED IN THE MODE REGISTER (MODREG).
000713:                                                                                                  #                        4. SUPERBANK 3 IS SELECTED.
000714:                                                                                                  #                        5. NODOFLAG IS RESET.
000715:                                                                                                  #                        6. ALL RESTART GROUPS EXCEPT GROUP2 ARE CLEARED. CONTROL IS TRANSFERRED TO RESTART PROGRAM (GOPROG2)
000716:                                                                                                  #                           WHICH CAUSES ALL CURRENT ACTIVITY TO BE DISCONTINUED AND A 9 MINUTE INTEGRATION CYCLE TO BE
000717:                                                                                                  #                           INITIATED.
000718:                                                                                                  #                B. PROGRAM SELECTED IS P20 OR P25.
000719:                                                                                                  #                        1. IF THE CURRENT MAJOR MODE IS THE SAME AS THE SELECTED NEWPROGRAM, THE PROGRAM IS RE-INITIALIZED
000720:                                                                                                  #                           VIA V37XEQ, ALL RESTART GROUPS, EXCEPT GROUP 4 ARE CLEARED.
000721:                                                                                                  #                        2. IF THE CURRENT MAJOR MODE IS NOT EQUAL TO THE NEW REQUEST, A CHECK IS MADE TO SEE IF THE REQUEST-
000722:                                                                                                  #                           ED MAJOR MODE HAS BEEN RUNNING IN THE BACKGROUND,
000723:                                                                                                  #                           AND IF IT HAS, NO NEW PROGRAM IS SCHEDULED, THE EXISTING
000724:                                                                                                  #                           P20 OR P25 IS RESTARTED TO CONTINUE, AND ITS MM IS SET.
000725:                                                                                                  #                        3. CONTROL IS TRANSFERRED TO GOPROG2.
000726:                                                                                                  #                C. PROGRAM SELECTED IS NEITHER P00, P20, NOR P25
000727:                                                                                                  #                        1. V37XEQ IS SCHEDULED (AS A JOB) BY SETTING RESTART GROUP 4
000728:                                                                                                  #                        2. ALL CURRENT ACTIVITY EXCEPT RENDEZVOUS AND TRACKING IS DISCONTINUED BY CLEARING ALL RESTART
000729:                                                                                                  #                           GROUPS.  IF THE RENDEZVOUS OR THE P25 FLAG IS ON, GROUP2 IS NOT CLEARED, ALLOWING THESE PROGRAMS
000730:                                                                                                  #                           TO CONTINUE.
000731:
000732:                                                                                                  #  INPUT/OUTPUT INFORMATION
000733:
000734:                                                                                                  #        A. CALLING SEQUENCE
000735:                                                                                                  #                CONTROL IS DIRECTED TO V37 BY THE VERBFAN ROUTINE.
000736:                                                                                                  #                VERBFAN GOES TO C(VERBTAB+C(VERBREG)). VERB 37 = MMCHANG.
000737:                                                                                                  #                MMCHANG EXECUTES A   TC POSTJUMP, CADR V37.
000738:
000739:                                                                                                  #        B. ERASABLE INITIALIZATION              NONE
000740:
000741:                                                                                                  #        C. OUTPUT


000743:                                                                                                  #                MAJOR MODE CHANGE
000744:
000745:                                                                                                  #        D. DEBRIS
000746:                                                                                                  #                MMNUMBER, MPAC +1, MINDEX, BASETEMP +C(MINDEX), FLAGWRD0, FLAGWRD1, FLAGWRD2, MODREG, GOLOC -1,
000747:                                                                                                  #                GOLOC, GOLOC +1, GOLOC +2, BASETEMP, -PHASE2, PHASE2, -PHASE4
000748:
000749:                                                                                                  #  PROGRAM ANALYSIS
000750:
000751:                                                                                                  #        A. SUBROUTINES CALLED
000752:                                                                                                  #                ALARM, RELDSP, PINBRNCH, INTSTALL, ENGINOF2, ALLCOAST, V37KLEAN, GOPROG2, FALTON, FINDVAC, SUPERSW,
000753:                                                                                                  #                DSPMM
000754:
000755:                                                                                                  #        B. NORMAL EXIT                          TC ENDOFJOB
000756:
000757:                                                                                                  #        C. ALARMS                               1520 (MAJOR MODE CHANGE NOT PERMITTED)
000758:
000759: 04,2040           54774        V37                TS       MMNUMBER                              #  SAVE MAJOR MODE
000760: 04,2041           34355                           CAF      PRIO30                                #  RESTART AT PINBALL PRIORITY
000761: 04,2042           54366                           TS       RESTREG
000762:
000763: 04,2043           31277                           CA       IMODES30                              #  IS IMU BEINB INITIALIZED
000764: 04,2044           74746                           MASK     BIT6
000765: 04,2045           10000                           CCS      A
000766: 04,2046           12065                           TCF      CANTROO
000767:
000768: 04,2047           40774                           CS       MMNUMBER                              #  IS P70 REQUESTED?
000769: 04,2050           62403                           AD       DEC70
000770: 04,2051           00006                           EXTEND
000771: 04,2052           12376                           BZF      SETUP70                               #  YES
000772: 04,2053           64753                           AD       ONE                                   #  IS P71 REQUESTED?
000773: 04,2054           00006                           EXTEND
000774: 04,2055           12375                           BZF      SETUP71                               #  YES
000775:
000776: 04,2056           30774                           CA       MMNUMBER                              #  IS NEW REQUEST POO
000777: 04,2057           00006                           EXTEND
000778: 04,2060           12107                           BZF      ISSERVON                              #  YES, CHECK SERVICER STATUS
000779:
000780: 04,2061           40076                           CS       FLAGWRD2                              #  NO, IS NODO V37 FLAG SET
000781: 04,2062           74753                           MASK     NODOBIT
000782: 04,2063           10000                           CCS      A
000783: 04,2064           12072                           TCF      CHECKTAB                              #  NO
000784: 04,2065           05567        CANTROO            TC       ALARM
000785: 04,2066           01520                           OCT      1520
000786:
000787: 04,2067           04457        V37BAD             TC       RELDSP                                #  RELEASES DISPLAY FROM ASTRONAUT
000788:
000789: 04,2070           04635                           TC       POSTJUMP                              #  BRING BACK LAST NORMAL DISPLAY IF THERE
000790: 04,2071           21051                           CADR     PINBRNCH                              #  WAS ONE.  OTHERWISE DO AN EOJ.
000791:
000792: 04,2072           32470        CHECKTAB           CA       NOV37MM                               #  INDEX FOR MM TABLES.
000793:


000795: 04,2073           54155        AGAINMM            TS       MPAC       +1
000796: 04,2074           50155                           NDX      MPAC       +1
000797: 04,2075           32437                           CA       PREMM1                                #  OBTAIN WHICH MM THIS IS FOR
000798: 04,2076           76077                           MASK     LOW7
000799: 04,2077           40000                           COM
000800: 04,2100           60774                           AD       MMNUMBER
000801: 04,2101           10000                           CCS      A
000802: 04,2102           10155                           CCS      MPAC       +1                         #  IF GR, SEE IF ANY MORE IN LIST
000803: 04,2103           12073                           TCF      AGAINMM                               #  YES, GET NEXT ONE
000804: 04,2104           12326                           TCF      V37NONO                               #  LAST TIME OR PASSED MM
000805:
000806: 04,2105           30155                           CA       MPAC       +1
000807: 04,2106           54773                           TS       MINDEX                                #  SAVE INDEX FOR LATER
000808:
000809: 04,2107           40103        ISSERVON           CS       FLAGWRD7                              #  V37 FLAG SET - I.E. IS SERVICER GOING
000810: 04,2110           74746                           MASK     V37FLBIT
000811: 04,2111           10000                           CCS      A
000812: 04,2112           12132                           TCF      CANV37                                #  NO
000813:
000814: 04,2113           05516                           TC       DOWNFLAG                              #  YES, TURN OFF THE AVERAGE FLAG AND
000815: 04,2114           00163                           ADRES    AVEGFLAG                              #  WAIT FOR SERVICER TO RETURN TO V37RET.
000816:
000817: 04,2115           15155                           TCF      ENDOFJOB
000818:
000819: 04,2116           40074        V37RET             CS       FLAGWRD0                              #  IS P20 OR P22 RUNNING?
000820: 04,2117           74745                           MASK     RNDVZBIT
000821: 04,2120           10000                           CCS      A
000822: 04,2121           12123                           TCF      +2                                    #  NO. CHECK FOR P25.
000823: 04,2122           12130                           TCF      2.7SPT                                #  YES. DO 2.7SPOT
000824: 04,2123           40074                           CS       FLAGWRD0                              #  IS P25 RUNNING?
000825: 04,2124           74743                           MASK     P25FLBIT
000826: 04,2125           10000                           CCS      A
000827: 04,2126           32372        2.0SPT             CA       OCT37667
000828: 04,2127           64747        2.11SPT            AD       BIT5
000829: 04,2130           62373        2.7SPT             AD       OCT40072
000830: 04,2131           05357                           TC       PHSCHNGA
000831:
000832: 04,2132           34755        CANV37             CAF      ZERO
000833: 04,2133           00006                           EXTEND
000834: 04,2134           01007                           WRITE    SUPERBNK
000835:
000836: 04,2135           32371                           CAF      ROOAD
000837: 04,2136           54374                           TS       TEMPFLSH
000838:
000839: 04,2137           05353                           TC       PHASCHNG
000840: 04,2140           00014                           OCT      14
000841:
000842: 04,2141           06042        ROO                TC       INTPRET
000843:
000844: 04,2142           77624                           CALL                                           #  WAIT FOR INTEGRATION TO FINISH


000846: 04,2143           27410                                    INTSTALL
000847: 04,2144           77776        DUMMYAD            EXIT
000848:
000849: 04,2145           05516                           TC       DOWNFLAG
000850: 04,2146           00124                           ADRES    3AXISFLG                              #  RESET 3-AXIS FLAG
000851:
000852: 04,2147           05516                           TC       DOWNFLAG
000853: 04,2150           00055                           ADRES    POOHFLAG
000854:
000855: 04,2151           34735                           CAF      LRBYBIT                               #  CLEAN UP THE R12 FLAGWORD.
000856: 04,2152           54107                           TS       FLGWRD11
000857:
000858: 04,2153           05516                           TC       DOWNFLAG                              #  INSURE THAT THE R04FLAG IS CLEAR.
000859: 04,2154           00063                           ADRES    R04FLAG
000860:
000861: 04,2155           05516                           TC       DOWNFLAG
000862: 04,2156           00056                           ADRES    GLOKFAIL                              #  FLAGWORD 3 BIT 14
000863:
000864: 04,2157           05516                           TC       DOWNFLAG                              #  INSURE MUNFLAG IS CLEAR.
000865: 04,2160           00141                           ADRES    MUNFLAG
000866:
000867: 04,2161           05516                           TC       DOWNFLAG                              #  RESET ABORT TARGETING FLAG (USE
000868: 04,2162           00217                           ADRES    ABTTGFLG                              #        PARAMETERS J1 AND KU)
000869:
000870: 04,2163           05516                           TC       DOWNFLAG                              #  ALLOW X-AXIS OVERRIDE.
000871: 04,2164           00311                           ADRES    XOVINFLG
000872: 04,2165           10774                           CCS      MMNUMBER                              #  IS THIS A POOH REQUEST
000873: 04,2166           12314                           TCF      NOUVEAU                               #  NO, PICK UP NEW PROGRAM
000874:
000875: 04,2167           04457        POOH               TC       RELDSP                                #  RELEASE DISPLAY SYSTEM
000876:
000877: 04,2170           35017                           CAF      PRIO5                                 #  SET VARIABLE RESTART PRIORITY FOR
000878: 04,2171           55055                           TS       PHSPRDT2                              #  P00 INTEGRATION.
000879:
000880: 04,2172           06011                           TC       CLRADMOD                              #  CLRADMOD DOES AN INHINT.
000881:
000882: 04,2173           44753                           CS       NODOBIT                               #  TURN OFF NODOFLAG.
000883: 04,2174           70076                           MASK     FLAGWRD2
000884: 04,2175           54076                           TS       FLAGWRD2
000885:
000886: 04,2176           34756                           CA       FIVE                                  #  SET RESTART FOR STATEINT1
000887: 04,2177           54001                           TS       L
000888: 04,2200           40000                           COM
000889: 04,2201           52754                           DXCH     -PHASE2
000890:
000891: 04,2202           42374                           CS       OCT700                                #  TURN OFF P20, P25, IMU IN USE FLAG
000892: 04,2203           70074                           MASK     FLAGWRD0
000893: 04,2204           54074                           TS       FLAGWRD0                              #                         RENDFLG
000894:
000895: 04,2205           34755                           CAF      DNLADP00


000897: 04,2206           54333        SEUDOPOO           TS       DNLSTCOD                              #  SET UP APPROPRIATE DOWNLIST CODE
000898: 04,2207           55321                           TS       AGSWORD                               #    (CURRENT LIST WILL BE COMPLETED BEFORE
000899:                                                                                                  #      NEW ONE IS STARTED)
000900:
000901: 04,2210           04674                           TC       IBNKCALL
000902: 04,2211           75561                           CADR     ENGINOF1
000903:
000904: 04,2212           04674                           TC       IBNKCALL                              #  INSURE ALLCOAST.
000905: 04,2213           40205                           CADR     ALLCOAST                              #  DOES A RESTORDB.
000906:
000907: 04,2214           44775                           CS       OCT120                                #  TURN OFF TRACK, UPDATE FLAGS
000908: 04,2215           55071                           TS       EBANKTEM
000909: 04,2216           70075                           MASK     FLAGWRD1
000910: 04,2217           54075                           TS       FLAGWRD1
000911:
000912: 04,2220           04674                           TC       IBNKCALL                              #  KILL GROUPS 1,3,5,6
000913: 04,2221           12650                           CADR     V37KLEAN
000914:
000915: 04,2222           10774                           CCS      MMNUMBER                              #  IS IT POOH
000916: 04,2223           12232                           TCF      RENDVOO                               #  NO
000917: 04,2224           04674        GOMOD              TC       IBNKCALL                              #  REDUNDANT EXCEPT FOR GROUP 4
000918: 04,2225           12645                           CADR     POOKLEAN
000919:
000920: 04,2226           30774                           CA       MMNUMBER
000921: 04,2227           55010                           TS       MODREG
000922:
000923: 04,2230           04635        GOGOPROG           TC       POSTJUMP
000924: 04,2231           12766                           CADR     GOPROG2
000925:
000926: 04,2232           41010        RENDVOO            CS       MODREG                                #  IS CURRENT PROGRAM 22
000927: 04,2233           62332                           AD       OCT26
000928: 04,2234           00006                           EXTEND
000929: 04,2235           12254                           BZF      RESET22                               #  YES - CLEAR RENDEZVOUS FLAG
000930:
000931: 04,2236           40774                           CS       MMNUMBER                              #  IS NEW PROGRAM P22
000932: 04,2237           62332                           AD       OCT26
000933: 04,2240           00006                           EXTEND
000934: 04,2241           12254                           BZF      RESET22
000935:
000936: 04,2242           67751                           AD       NEG2                                  #  IS NEW PROGRAM = P20 OR P25
000937: 04,2243           00006                           EXTEND
000938: 04,2244           12266                           BZF      RENDNOO                               #  YES
000939: 04,2245           64756                           AD       FIVE                                  #  25
000940: 04,2246           00006                           EXTEND
000941: 04,2247           12266                           BZF      RENDNOO                               #  YES
000942:
000943: 04,2250           32330                           CA       OCT500                                #  NO, IS EITHER P20 OR P25 RUNNING
000944: 04,2251           70074                           MASK     FLAGWRD0
000945: 04,2252           10000                           CCS      A


000947: 04,2253           12263                           TCF      POOFIZZ                               #  YES, LEAVE GROUP 2 TO PICK UP P20 OR P25
000948:
000949: 04,2254           42374        RESET22            CS       OCT700                                #  CLEAR RENDEZVOUS, P25
000950: 04,2255           70074                           MASK     FLAGWRD0                              #  AND IMU IN USE FLAGS
000951: 04,2256           54074                           TS       FLAGWRD0
000952: 04,2257           06011                           TC       CLRADMOD
000953:
000954: 04,2260           00006        KILL2              EXTEND                                         #  NO, KILL 2
000955: 04,2261           34755                           DCA      NEG0
000956: 04,2262           52754                           DXCH     -PHASE2
000957:
000958: 04,2263           32370        POOFIZZ            CAF      V37QCAD                               #  RESTART POINT FOR V37XEQ
000959: 04,2264           54374                           TS       TEMPFLSH
000960:
000961: 04,2265           12230                           TCF      GOGOPROG
000962:
000963: 04,2266           41010        RENDNOO            CS       MODREG
000964: 04,2267           66007                           AD       OCT24
000965: 04,2270           00006                           EXTEND
000966: 04,2271           12260                           BZF      KILL2                                 #  P20 OR P25 ON TOP OF P20 OR P25 -
000967:
000968: 04,2272           64756                           AD       FIVE
000969: 04,2273           00006                           EXTEND
000970: 04,2274           12260                           BZF      KILL2
000971:
000972: 04,2275           32330                           CA       OCT500
000973: 04,2276           70074                           MASK     FLAGWRD0
000974: 04,2277           60774                           AD       MMNUMBER
000975: 04,2300           40000                           COM
000976: 04,2301           62333                           AD       P20REG                                #  IS IT 20 AND IS RENDEZVOUS FLAG ON
000977: 04,2302           00006                           EXTEND
000978: 04,2303           12310                           BZF      STATQUO                               #  YES
000979: 04,2304           62331                           AD       OCT305                                #  IS IT 25 AND IS P25 BIT ON
000980: 04,2305           00006                           EXTEND
000981: 04,2306           12310                           BZF      STATQUO                               #  YES, LEAVE AS IS
000982: 04,2307           12260                           TCF      KILL2
000983:
000984: 04,2310           40075        STATQUO            CS       FLAGWRD1                              #  SET TRACKFLAG
000985: 04,2311           74775                           MASK     OCT120                                #        UPDATE FLAG
000986: 04,2312           26075                           ADS      FLAGWRD1
000987:
000988: 04,2313           12224                           TCF      GOMOD
000989:
000990: 04,2314           32330        NOUVEAU            CAF      OCT500                                #  IS P20 OR P25 FLAG SET
000991: 04,2315           70074                           MASK     FLAGWRD0
000992: 04,2316           10000                           CCS      A
000993: 04,2317           12322                           TCF      +3                                    #  YES
000994: 04,2320           05516                           TC       DOWNFLAG                              #  NO, RESET IMUINUSE FLAG
000995: 04,2321           00007                           ADRES    IMUSE


000997: 04,2322           50773                           INDEX    MINDEX
000998: 04,2323           32471                           CAF      DNLADMM1                              #  OBTAIN APPROPRIATE DOWNLIST ADDRESS
000999:
001000: 04,2324           00004                           INHINT
001001: 04,2325           12206                           TCF      SEUDOPOO
001002:
001003: 04,2326           04364        V37NONO            TC       FALTON                                #  COME HERE IF MM REQUESTED DOESNT EXIST
001004:
001005: 04,2327           12067                           TCF      V37BAD
001006:
001007: 04,2330     4750               OCT00010           EQUALS   BIT4
001008: 04,2330           00500        OCT500             OCT      500                                   #  BITS 7 AND 9
001009: 04,2331           00305        OCT305             OCT      305
001010: 04,2332           00026        OCT26              OCT      26
001011: 04,2333           00124        P20REG             OCT      124
001012:
001013: 04,2334           00004        V37XEQ             INHINT
001014: 04,2335           50773                           INDEX    MINDEX
001015: 04,2336           32437                           CAF      PREMM1                                #  OBTAIN PRIO, EBANK, AND MM
001016: 04,2337           55057                           TS       MMTEMP
001017: 04,2340           54020                           TS       CYR                                   #  SHIFT RIGHT TO BITS 14-10
001018:
001019: 04,2341           30020                           CA       CYR
001020: 04,2342           77730                           MASK     PRIO37
001021: 04,2343           55061                           TS       PHSPRDT4                              #  PRESET GROUP 4 RESTART PRIORITY
001022: 04,2344           54063                           TS       NEWPRIO                               #  STORE PRIO FOR SPVAC
001023:
001024: 04,2345           31057                           CA       MMTEMP                                #  OBTAIN EBANK - BITS 8, 9, 10 OF MMTEMP.
001025: 04,2346           00006                           EXTEND
001026: 04,2347           74744                           MP       BIT8
001027: 04,2350           74757                           MASK     LOW3
001028: 04,2351           54001                           TS       L
001029:
001030: 04,2352           50773                           INDEX    MINDEX
001031: 04,2353           32406                           CAF      FCADRMM1
001032: 04,2354           55060                           TS       BASETEMP                              #  MAKE BBCON BY ADDING HI5 OF FCADR
001033: 04,2355           74350                           MASK     HI5
001034: 04,2356           26001                           ADS      L
001035:
001036: 04,2357           31060                           CA       BASETEMP                              #  OBTAIN GENADR PORTION OF 2CADR.
001037: 04,2360           75012                           MASK     LOW10
001038: 04,2361           64741                           AD       BIT11
001039:
001040: 04,2362           05116                           TC       SPVAC
001041:
001042: 04,2363           31057        V37XEQC            CA       MMTEMP                                #  UPON RETURN FROM FINDVAC PLACE THE
001043: 04,2364           76077                           MASK     LOW7                                  #  NEW MM IN MODREG (THE LOW 7 BITS OF
001044: 04,2365           05314                           TC       NEWMODEA                              #  PHSPRDT1)
001045:
001046: 04,2366           04457                           TC       RELDSP                                #  RELEASE DISPLAY


001048: 04,2367           05155                           TC       ENDOFJOB                              #  AND EXIT
001049:
001050: 04,2370     5650               NEG7               EQUALS   OCT77770
001051:
001052: 04,2370     1057               MMTEMP             EQUALS   PHSPRDT3
001053: 04,2370     1060               BASETEMP           EQUALS   TBASE4
001054: 04,2370           10337        V37QCAD            CADR     V37XEQ     +3
001055: 04,2371           10144        ROOAD              CADR     DUMMYAD
001056: 04,2372           37667        OCT37667           OCT      37667
001057: 04,2373           40072        OCT40072           OCT      40072
001058: 04,2374           00700        OCT700             OCT      700
001059:
001060: 04,2375           36250        SETUP71            CAF      THREE
001061: 04,2376           54002        SETUP70            TS       Q
001062: 04,2377           00006                           EXTEND
001063: 04,2400           32405                           DCA      P70CADR
001064: 04,2401           60002                           AD       Q
001065: 04,2402           52006                           DTCB
001066:
001067: 04,2403           00106        DEC70              DEC      70         B-14
001068: 04,2404  E7,1520                                  EBANK=   R
001069: 04,2404           02067 42067  P70CADR            2CADR    P70
001070:
001071:                                                                                                  #  FOR VERB 37 TWO TABLES ARE MAINTAINED.  EACH TABLE HAS AN ENTRY FOR EACH
001072:                                                                                                  #  MAJOR MODE THAT CAN BE STARTED FROM THE KEYBOARD.  THE ENTRIES ARE PUT
001073:                                                                                                  #  INTO THE TABLE WITH THE ENTRY FOR THE HIGHEST MAJOR MODE COMING FIRST,
001074:                                                                                                  #  TO THE LOWEST MAJOR MODE WHICH IS THE LAST ENTRY IN EACH TABLE.
001075:
001076:                                                                                                  #  THE FCADRMM TABLE CONTAINS THE FCADR OF THE STARTING JOB OF
001077:                                                                                                  #  THE MAJOR MODE.  FOR EXAMPLE,
001078:
001079:                                                                                                  #        FCADRMM1        FCADR   P79             START OF P 79
001080:                                                                                                  #                        FCADR   PROG18          START OF P 18
001081:                                                                                                  #                        FCADR   P01             START OF P 01
001082:
001083:                                                                                                  #  NOTE,         THE FIRST ENTRY MUST BE LABLED FCADRMM1.
001084:                                                                                                  #  ----
001085:
001086: 04,2406           26207        FCADRMM1           FCADR    P76
001087: 04,2407           72641                           FCADR    P75
001088: 04,2410           72457                           FCADR    P74
001089: 04,2411           72225                           FCADR    P73
001090: 04,2412           72036                           FCADR    P72
001091: 04,2413           71271                           FCADR    LANDJUNK
001092: 04,2414           65000                           FCADR    P63LM
001093: 04,2415           33277                           FCADR    P57
001094: 04,2416           32050                           FCADR    PROG52
001095: 04,2417           31421                           FCADR    P51
001096: 04,2420           75442                           FCADR    P47LM


001098: 04,2421           75414                           FCADR    P42LM
001099: 04,2422           75276                           FCADR    P41LM
001100: 04,2423           75153                           FCADR    P40LM
001101: 04,2424           72635                           FCADR    P35
001102: 04,2425           72455                           FCADR    P34
001103: 04,2426           72223                           FCADR    P33
001104: 04,2427           72034                           FCADR    P32
001105: 04,2430           72000                           FCADR    P30
001106: 04,2431           50400                           FCADR    PROG25
001107: 04,2432           50000                           FCADR    PROG22
001108: 04,2433           51506                           FCADR    PROG21
001109: 04,2434           50000                           FCADR    PROG20
001110: 04,2435           60061                           FCADR    P12LM
001111: 04,2436           77652                           FCADR    P06
001112:
001113:                                                                                                  #  THE PREMM TABLE CONTAINS THE E-BANK, MAJOR MODE, AND PRIORITY
001114:                                                                                                  #  INFORMATION, IT IS IN THE FOLLOWING FORM,
001115:
001116:                                                                                                  #        PPP PPE EEM MMM MMM
001117:
001118:                                                                                                  #        WHERE THE       7 M BITS CONTAIN THE MAJOR MODE NUMBER
001119:                                                                                                  #                        3 E BITS CONTAIN THE E-BANK NUMBER
001120:                                                                                                  #                        5 P BITS CONTAIN THE PRIORITY AT WHICH THE JOB IS
001121:                                                                                                  #                            TO BE STARTED
001122:
001123:                                                                                                  #        FOR EXAMPLE,
001124:
001125:                                                                                                  #                PREMM1          OCT     67213           PRIORITY        33
001126:                                                                                                  #                                                        E-BANK           5
001127:                                                                                                  #                                                        MAJOR MODE      11
001128:                                                                                                  #                                OCT     25437           PRIORITY        12
001129:                                                                                                  #                                                        E-BANK           6
001130:                                                                                                  #                                                        MAJOR MODE      31
001131:
001132:                                                                                                  #  NOTE,     THE FIRST ENTRY MUST BE LABELED PREMM1
001133:
001134: 04,2437           27714        PREMM1             OCT      27714                                 #  MM 76         EBANK 7         PRIO 13
001135: 04,2440           27713                           OCT      27713                                 #  MM 75         EBANK 7         PRIO 13
001136: 04,2441           27712                           OCT      27712                                 #  MM 74         EBANK 7         PRIO 13
001137: 04,2442           27711                           OCT      27711                                 #  MM 73         EBANK 7         PRIO 13
001138: 04,2443           27710                           OCT      27710                                 #  MM 72         EBANK 7         PRIO 13
001139: 04,2444           27704                           OCT      27704                                 #  MM 68         EBANK 7         PRIO 13
001140: 04,2445           27677                           OCT      27677                                 #  MM 63         EBANK 7         PRIO 13
001141: 04,2446           27271                           OCT      27271                                 #  MM 57         EBANK 5         PRIO 13
001142: 04,2447           27264                           OCT      27264                                 #  MM 52         EBANK 5         PRIO 13
001143: 04,2450           27263                           OCT      27263                                 #  MM 51         EBANK 5         PRIO 13
001144: 04,2451           27657                           OCT      27657                                 #  MM 47         EBANK 7         PRIO 13
001145: 04,2452           27652                           OCT      27652                                 #  MM 42         EBANK 7         PRIO 13
001146: 04,2453           27651                           OCT      27651                                 #  MM 41         EBANK 7         PRIO 13
001147: 04,2454           27650                           OCT      27650                                 #  MM 40         EBANK 7         PRIO 13
001148: 04,2455           27643                           OCT      27643                                 #  MM 35         EBANK 7         PRIO 13
001149: 04,2456           27642                           OCT      27642                                 #  MM 34         EBANK 7         PRIO 13


001151: 04,2457           27641                           OCT      27641                                 #  MM 33         EBANK 7         PRIO 13
001152: 04,2460           27640                           OCT      27640                                 #  MM 32         EBANK 7         PRIO 13
001153: 04,2461           27636                           OCT      27636                                 #  MM 30         EBANK 7         PRIO 13
001154: 04,2462           27631                           OCT      27631                                 #  MM 25         EBANK 7         PRIO 13
001155: 04,2463           27626                           OCT      27626                                 #  MM 22         EBANK 7         PRIO 13
001156: 04,2464           27625                           OCT      27625                                 #  MM 21         EBANK 7         PRIO 13
001157: 04,2465           27624                           OCT      27624                                 #  MM 20         EBANK 7         PRIO 13
001158: 04,2466           27614                           OCT      27614                                 #  MM 12         EBANK 7         PRIO 13
001159: 04,2467           27006                           OCT      27006                                 #  MM 06         EBANK 4         PRIO 13
001160:
001161:                                                                                                  #  NOTE,         THE FOLLOWING CONSTANT IS THE NUMBER OF ENTRIES IN EACH OF
001162:                                                                                                  #  ----          THE ABOVE LISTS-1(IE, THE NUMBER OF MAJOR MODES(EXCEPT P00)
001163:                                                                                                  #                THAT CAN BE CALLED FROM THE KEYBOARD MINUS ONE)
001164:
001165: 04,2470           00030        NOV37MM            DEC      24         B-14                       #  MM'S -1
001166:
001167: 04,2471           00002        DNLADMM1           ADRES    RENDEZVU                              #  P76
001168: 04,2472           00002                           ADRES    RENDEZVU                              #  P75
001169: 04,2473           00002                           ADRES    RENDEZVU                              #  P74
001170: 04,2474           00002                           ADRES    RENDEZVU                              #  P73
001171: 04,2475           00002                           ADRES    RENDEZVU                              #  P72
001172: 04,2476           00004                           ADRES    DESASCNT                              #  P68
001173: 04,2477           00004                           ADRES    DESASCNT                              #  P63
001174: 04,2500           00005                           ADRES    LUNRSALN                              #  P57
001175: 04,2501           00000                           ADRES    COSTALIN                              #  P52
001176: 04,2502           00000                           ADRES    COSTALIN                              #  P51
001177: 04,2503           00003                           ADRES    ORBMANUV                              #  P47
001178: 04,2504           00003                           ADRES    ORBMANUV                              #  P42
001179: 04,2505           00003                           ADRES    ORBMANUV                              #  P41
001180: 04,2506           00003                           ADRES    ORBMANUV                              #  P40
001181: 04,2507           00002                           ADRES    RENDEZVU                              #  P35
001182: 04,2510           00002                           ADRES    RENDEZVU                              #  P34
001183: 04,2511           00002                           ADRES    RENDEZVU                              #  P33
001184: 04,2512           00002                           ADRES    RENDEZVU                              #  P32
001185: 04,2513           00002                           ADRES    RENDEZVU                              #  P30
001186: 04,2514           00002                           ADRES    RENDEZVU                              #  P25
001187: 04,2515           00005                           ADRES    LUNRSALN                              #  P22
001188: 04,2516           00002                           ADRES    RENDEZVU                              #  P21
001189: 04,2517           00002                           ADRES    RENDEZVU                              #  P20
001190: 04,2520           00004                           ADRES    DESASCNT                              #  P12
001191: 04,2521           00000                           ADRES    COSTALIN                              #  P06
001192:
001193: 04,2522     4755               DNLADP00           =        ZERO
001194: 04,2522                        COSTALIN           =        0
001195: 04,2522                        AGSUPDAT           =        1
001196: 04,2522                        RENDEZVU           =        2
001197: 04,2522                        ORBMANUV           =        3
001198: 04,2522                        DESASCNT           =        4
001199: 04,2522                        LUNRSALN           =        5
001200:
001201: 13,2026                                           BANK     13
001202: 13,2000                                           SETLOC   INTINIT
001203: 13,2000                                           BANK
001204:


001206: 13,2026                                           COUNT*   $$/INTIN
001207:
001208: 13,2026  E3,1554                                  EBANK=   RRECTCSM
001209:
001210:                                                                                                  #  THIS ROUTINE DOES THE POO INTEGRATION
001211:
001212: 13,2026           43014        STATEUP            SET      BOF                                   #  EXTRAPOLATE CM STATE VECTOR
001213: 13,2027           01474                                    VINTFLAG
001214: 13,2030           04347                                    SURFFLAG                              #  ALSO 6X6 W-MATRIX IF LM ON LUNAR
001215: 13,2031           26036                                    DOINT                                 #        SURFACE AND W-MATRIX VALID
001216: 13,2032           43014                           BOF      SET                                   #        FOR RENDEZVOUS NAVIGATION.
001217: 13,2033           02756                                    RENDWFLG
001218: 13,2034           26036                                    DOINT
001219: 13,2035           01476                                    DIM0FLAG
001220: 13,2036           45014        DOINT              CLEAR    CALL
001221: 13,2037           01667                                    PRECIFLG                              #  ENGAGES 4-TIME STEP LOGIC IN INTEGRATION
001222: 13,2040           27133                                    INTEGRV                               #  WHEN MODREG = 0
001223:
001224: 13,2041           71214                           BON      DLOAD
001225: 13,2042           04307                                    SURFFLAG
001226: 13,2043           26063                                    NO-INT
001227: 13,2044           01571                                    TETCSM
001228: 13,2045           34041                           STCALL   TDEC1
001229: 13,2046           27410                                    INTSTALL
001230: 13,2047           45014                           CLEAR    CALL                                  #  EXTRAPOLATE LM STATE VECTOR
001231: 13,2050           01674                                    VINTFLAG
001232: 13,2051           26643                                    SETIFLGS
001233: 13,2052           77614                           BOF                                            #  ALSO 9X9 W-MATRIX IF W IS VALID
001234: 13,2053           02756                                    RENDWFLG
001235: 13,2054           26060                                    DOINT2
001236: 13,2055           43014                           SET      SET
001237: 13,2056           01476                                    DIM0FLAG
001238: 13,2057           01475                                    D6OR9FLG
001239: 13,2060           45014        DOINT2             SET      CALL
001240: 13,2061           01467                                    PRECIFLG                              #  DISENGAGE 4 TIME STEP LOGIC IN INTEG.
001241: 13,2062           27133                                    INTEGRV
001242: 13,2063           77614        NO-INT             CLRGO
001243: 13,2064           01236                                    NODOFLAG
001244: 13,2065           26631                                    ENDINT
001245:
001246:                                                                                                  #  THISVINT IS CALLED BY MIDTOAV1 AND 2
001247:
001248: 13,2066           43414        THISVINT           CLEAR    RVQ
001249: 13,2067           01674                                    VINTFLAG
001250:
001251:

End of include-file FRESH_START_AND_RESTART.agc.  Parent file is MAIN.agc


