
Source Code


000002:                                                                                                  ## Copyright:   Public domain.
000003:                                                                                                  ## Filename:    GIMBAL_LOCK_AVOIDANCE.agc
000004:                                                                                                  ## Purpose:     A section of the reconstructed source code for Luminary 130.
000005:                                                                                                  ##              This was the original program released for the Apollo 13 LM,
000006:                                                                                                  ##              although several more revisions would follow. It has been
000007:                                                                                                  ##              reconstructed from a listing of Luminary 131, from which it
000008:                                                                                                  ##              differs on only two lines in P70-P71. The difference is
000009:                                                                                                  ##              described in detail in Luminary memo #129, which was used
000010:                                                                                                  ##              to perform the reconstruction. This file is intended to be a
000011:                                                                                                  ##              faithful reconstruction, except that the code format has been
000012:                                                                                                  ##              changed to conform to the requirements of the yaYUL assembler
000013:                                                                                                  ##              rather than the original YUL assembler.
000014:                                                                                                  ## Reference:   p. 366
000015:                                                                                                  ## Contact:     Ron Burkey <info@sandroid.org>.
000016:                                                                                                  ## Website:     www.ibiblio.org/apollo/index.html
000017:                                                                                                  ## Mod history: 05/11/03 RSB.   Began transcribing.
000018:                                                                                                  ##              05/14/05 RSB    Corrected website reference above.
000019:                                                                                                  ##              2017-01-06 RSB  Page numbers now agree with those on the
000020:                                                                                                  ##                              original harcopy, as opposed to the PDF page
000021:                                                                                                  ##                              numbers in 1701.pdf.
000022:                                                                                                  ##              2017-02-23 RSB  Proofed comment text using octopus/ProoferComments.
000023:                                                                                                  ##              2017-08-22 RSB  Fixed comment-text typo identified in ZERLINA 56.
000024:                                                                                                  ##              2018-09-04 MAS  Copied from Luminary 131 for Luminary 130.
000025:


000027: 15,2050                                           BANK     15
000028:
000029: 22,2000                                           SETLOC   KALCMON1
000030: 22,2000                                           BANK
000031:
000032:                                                                                                  #  DETECTING GIMBAL LOCK
000033: 22,2744  22,2744               LOCSKIRT           EQUALS   NOGIMLOC
000034:
000035: 22,2744           77614        NOGIMLOC           SET
000036: 22,2745           01074                                    CALCMAN3
000037: 22,2746           70740        WCALC              LXC,1    DLOAD*
000038: 22,2747           01322                                    RATEINDX                              #  CHOOSE THE DESIRED MANEUVER RATE
000039: 22,2750           04772                                    ARATE,1                               #  FROM A LIST OF FOUR
000040: 22,2751           45002                           SR4      CALL                                  #  COMPUTE THE INCREMENTAL ROTATION MATRIX
000041: 22,2752           44527                                    DELCOMP                               #  DEL CORRESPONDING TO A 1 SEC ROTATION
000042:                                                                                                  #  ABOUT COF
000043: 22,2753           74343                           DLOAD*   VXSC
000044: 22,2754           04772                                    ARATE,1
000045: 22,2755           03270                                    COF
000046: 22,2756           17325                           STODL    BRATE                                 #  COMPONENT MANEUVER RATES 45 DEG/SEC
000047: 22,2757           03335                                    AM
000048: 22,2760           55605                           DMP      DDV*
000049: 22,2761           05002                                    ANGLTIME
000050: 22,2762           04772                                    ARATE,1
000051: 22,2763           77661                           SR
000052: 22,2764           20606                                    5
000053: 22,2765           03333                           STORE    TM                                    #  MANEUVER EXECUTION TIME SCALED AS T2
000054: 22,2766           77614                           SETGO
000055: 22,2767           01035                                    CALCMAN2                              #  0(OFF) = CONTINUE MANEUVER
000056: 22,2770           45010                                    NEWANGL    +1                         #  1(ON) = START MANEUVER
000057:
000058:                                                                                                  #  THE FOUR SELECTABLE FREE FALL MANEUVER RATES SELECTED BY
000059:                                                                                                  #  LOADING RATEINDX WITH 0, 2, 4, 6, RESPECTIVELY
000060:
000061: 22,2771           00221 24255  ARATE              2DEC     .0088888888                            #  = 0.2 DEG/SEC                 $ 22.5 DEG/SEC
000062: 22,2773           00554 02660                     2DEC     .0222222222                            #  = 0.5 DEG/SEC                 $ 22.5 DEG/SEC
000063: 22,2775           02660 13301                     2DEC     .0888888888                            #  = 2.0 DEG/SEC                 $ 22.5 DEG/SEC
000064: 22,2777           16161 30707                     2DEC     .4444444444                            #  = 10.0 DEG/SEC                $ 22.5 DEG/SEC
000065:
000066: 22,3001           00003 04000  ANGLTIME           2DEC     .0001907349                            #  = 100B-19 FUDGE FACTOR TO CONVERT
000067:                                                                                                  #  MANEUVER ANGLE TO MANEUVER TIME
000068:
000069:

End of include-file GIMBAL_LOCK_AVOIDANCE.agc.  Parent file is MAIN.agc


