
Source Code


000002:                                                                                                  ## Copyright:   Public domain.
000003:                                                                                                  ## Filename:    INFLIGHT_ALIGNMENT_ROUTINES.agc
000004:                                                                                                  ## Purpose:     A section of the reconstructed source code for Luminary 130.
000005:                                                                                                  ##              This was the original program released for the Apollo 13 LM,
000006:                                                                                                  ##              although several more revisions would follow. It has been
000007:                                                                                                  ##              reconstructed from a listing of Luminary 131, from which it
000008:                                                                                                  ##              differs on only two lines in P70-P71. The difference is
000009:                                                                                                  ##              described in detail in Luminary memo #129, which was used
000010:                                                                                                  ##              to perform the reconstruction. This file is intended to be a
000011:                                                                                                  ##              faithful reconstruction, except that the code format has been
000012:                                                                                                  ##              changed to conform to the requirements of the yaYUL assembler
000013:                                                                                                  ##              rather than the original YUL assembler.
000014:                                                                                                  ## Reference:   pp. 1241-1250
000015:                                                                                                  ## Contact:     Ron Burkey <info@sandroid.org>.
000016:                                                                                                  ## Website:     www.ibiblio.org/apollo/index.html
000017:                                                                                                  ## Mod history: 06/03/03 RSB.   Began transcribing.
000018:                                                                                                  ##              05/14/05 RSB.   Corrected website reference above.
000019:                                                                                                  ##              2017-01-06 RSB  Page numbers now agree with those on the
000020:                                                                                                  ##                              original hardcopy, as opposed to the PDF page
000021:                                                                                                  ##                              numbers in 1701.pdf.
000022:                                                                                                  ##              2017-02-27 RSB  Proofed comment text using octopus/ProoferComments.
000023:                                                                                                  ##              2017-03-17 RSB  Comment-text fixes identified in diff'ing
000024:                                                                                                  ##                              Luminary 99 vs Comanche 55.
000025:                                                                                                  ##              2018-09-04 MAS  Copied from Luminary 131 for Luminary 130.
000026:


000028: 22,3773                                           BANK     22
000029: 23,2000                                           SETLOC   INFLIGHT
000030: 23,2000                                           BANK
000031:
000032: 23,3251  E5,1642                                  EBANK=   XSM
000033:
000034:                                                                                                  #  CALCGTA COMPUTES THE GYRO TORQUE ANGLES REQUIRED TO BRING THE STABLE MEMBER INTO THE DESIRED ORIENTATION.
000035:
000036:                                                                                                  #  THE INPUT IS THE DESIRED STABLE MEMBER COORDINATES REFERRED TO PRESENT STABLE MEMBER COORDINATES.  THE THREE
000037:                                                                                                  #  HALF-UNIT VECTORS ARE STORED AT XDC, YDC, AND ZDC.
000038:
000039:                                                                                                  #  THE OUTPUTS ARE THE THREE GYRO TORQUING ANGLES TO BE APPLIED TO THE Y, Z, AND X GYROS AND ARE STORED DP AT IGC,
000040:                                                                                                  #  MGC, AND OGC RESPECTIVELY.
000041:
000042: 23,3251                                           COUNT*   $$/INFLT
000043: 23,3251           71220        CALCGTA            ITA      DLOAD                                 #  PUSHDOWN 00-03, 16D-27D, 34D-37D
000044: 23,3252           00051                                    S2                                    #  XDC = (XD1 XD2 XD3)
000045: 23,3253           02665                                    XDC                                   #  YDC = (YD1 YD2 YD3)
000046: 23,3254           65325                           PDDL     PDDL                                  #  ZDC = (ZD1 ZD2 ZD3)
000047: 23,3255           06524                                    HI6ZEROS
000048: 23,3256           02671                                    XDC        +4
000049: 23,3257           55476                           DCOMP    VDEF
000050: 23,3260           77656                           UNIT
000051: 23,3261           14027                           STODL    ZPRIME                                #  ZP = UNIT(-XD3 0 XD1) = (ZP1 ZP2 ZP3)
000052: 23,3262           00027                                    ZPRIME
000053:
000054: 23,3263           77742                           SR1
000055: 23,3264           14023                           STODL    SINTH                                 #  SIN(IGC) = ZP1
000056: 23,3265           00033                                    ZPRIME     +4
000057: 23,3266           77742                           SR1
000058: 23,3267           34021                           STCALL   COSTH                                 #  COS(IGC) = ZP3
000059: 23,3270           47322                                    ARCTRIG
000060:
000061: 23,3271           16742                           STODL    IGC                                   #  Y GYRO TORQUING ANGLE   FRACTION OF REV.
000062: 23,3272           02667                                    XDC        +2
000063: 23,3273           77742                           SR1
000064: 23,3274           14023                           STODL    SINTH                                 #  SIN(MGC) = XD2
000065: 23,3275           00027                                    ZPRIME
000066:
000067: 23,3276           65205                           DMP      PDDL
000068: 23,3277           02671                                    XDC        +4                         #  PD00 = (ZP1)(XD3)
000069: 23,3300           00033                                    ZPRIME     +4
000070:
000071: 23,3301           45205                           DMP      DSU
000072: 23,3302           02665                                    XDC                                   #  MPAC = (ZP3)(XD1)
000073: 23,3303           77626                           STADR
000074: 23,3304           43756                           STCALL   COSTH                                 #  COS(MGC) = MPAC - PD00
000075: 23,3305           47322                                    ARCTRIG


000077: 23,3306           26744                           STOVL    MGC                                   #  Z GYRO TORQUING ANGLE   FRACTION OF REV.
000078: 23,3307           00027                                    ZPRIME
000079: 23,3310           77641                           DOT
000080: 23,3311           02701                                    ZDC
000081: 23,3312           24021                           STOVL    COSTH                                 #  COS(OGC) = ZP . ZDC
000082: 23,3313           00027                                    ZPRIME
000083: 23,3314           77641                           DOT
000084: 23,3315           02673                                    YDC
000085: 23,3316           34023                           STCALL   SINTH                                 #  SIN(OGC) = ZP . YDC
000086: 23,3317           47322                                    ARCTRIG
000087:
000088: 23,3320           36740                           STCALL   OGC                                   #  X GYRO TORQUING ANGLE   FRACTION OF REV.
000089: 23,3321           00051                                    S2
000090:


000092:                                                                                                  #  ARCTRIG COMPUTES AN ANGLE GIVEN THE SINE AND COSINE OF THIS ANGLE.
000093:
000094:                                                                                                  #  THE INPUTS ARE SIN/4 AND COS/4 STORED DP AT SINTH AND COSTH.
000095:
000096:                                                                                                  #  THE OUTPUT IS THE CALCULATED ANGLE BETWEEN +.5 AND -.5 REVOLUTIONS AND STORED AT THETA.  THE OUTPUT IS ALSO
000097:                                                                                                  #  AVAILABLE AT MPAC.
000098:
000099: 23,3322           51545        ARCTRIG            DLOAD    ABS                                   #  PUSHDOWN  16D-21D
000100: 23,3323           00023                                    SINTH
000101: 23,3324           50025                           DSU      BMN
000102: 23,3325           07536                                    QTSN45                                #  ABS(SIN/4) - SIN(45)/4
000103: 23,3326           47335                                    TRIG1                                 #  IF (-45,45) OR (135,-135)
000104:
000105: 23,3327           72545                           DLOAD    SL1                                   #  (45,135) OR (-135,-45)
000106: 23,3330           00021                                    COSTH
000107: 23,3331           75326                           ACOS     SIGN
000108: 23,3332           00023                                    SINTH
000109: 23,3333           00025                           STORE    THETA                                 #  X = ARCCOS(COS) WITH SIGN(SIN)
000110: 23,3334           77616                           RVQ
000111:
000112: 23,3335           72545        TRIG1              DLOAD    SL1                                   #  (-45,45) OR (135,-135)
000113: 23,3336           00023                                    SINTH
000114: 23,3337           77736                           ASIN
000115: 23,3340           14025                           STODL    THETA                                 #  X = ARCSIN(SIN) WITH SIGN(SIN)
000116: 23,3341           00021                                    COSTH
000117: 23,3342           77640                           BMN
000118: 23,3343           47346                                    TRIG2                                 #  IF (135,-135)
000119:
000120: 23,3344           43545                           DLOAD    RVQ
000121: 23,3345           00025                                    THETA                                 #  X = ARCSIN(SIN)   (-45,45)
000122:
000123: 23,3346           75345        TRIG2              DLOAD    SIGN                                  #  (135,-135)
000124: 23,3347           06522                                    HIDPHALF
000125: 23,3350           00023                                    SINTH
000126: 23,3351           77625                           DSU
000127: 23,3352           00025                                    THETA
000128: 23,3353           00025                           STORE    THETA                                 #  X = .5 WITH SIGN(SIN) - ARCSIN(SIN)
000129: 23,3354           77616                           RVQ                                            #        (+) - (+) OR (-) - (-)
000130:


000132:                                                                                                  #  SMNB, NBSM, AND AXISROT, WHICH USED TO APPEAR HERE, HAVE BEEN
000133:                                                                                                  #  COMBINED IN A ROUTINE CALLED AX*SR*T, WHICH APPEARS AMONG THE POWERED
000134:                                                                                                  #  FLIGHT SUBROUTINES.
000135:


000137:                                                                                                  #  CALCGA COMPUTES THE CDU DRIVING ANGLES REQUIRED TO BRING THE STABLE MEMBER INTO THE DESIRED ORIENTATION.
000138:
000139:                                                                                                  #  THE INPUTS ARE  1) THE NAVIGATION BASE COORDINATES REFERRED TO ANY COORDINATE SYSTEM.  THE THREE HALF-UNIT
000140:                                                                                                  #  VECTORS ARE STORED AT XNB, YNB, AND ZNB.  2) THE DESIRED STABLE MEMBER COORDINATES REFERRED TO THE SAME
000141:                                                                                                  #  COORDINATE SYSTEM ARE STORED AT XSM, YSM, AND ZSM.
000142:
000143:                                                                                                  #  THE OUTPUTS ARE THE THREE CDU DRIVING ANGLES AND ARE STORED SP AT THETAD, THETAD +1, AND THETAD +2.
000144:
000145: 23,3355           77601        CALCGA             SETPD                                          #  PUSHDOWN 00-05, 16D-21D, 34D-37D
000146: 23,3356           00001                                    0
000147: 23,3357           47375                           VLOAD    VXV
000148: 23,3360           02665                                    XNB                                   #  XNB = OGA (OUTER GIMBAL AXIS)
000149: 23,3361           02651                                    YSM                                   #  YSM = IGA (INNER GIMBAL AXIS)
000150: 23,3362           41456                           UNIT     PUSH                                  #  PD0 = UNIT(OGA X IGA) = MGA
000151:
000152: 23,3363           44041                           DOT      ITA
000153: 23,3364           02701                                    ZNB
000154: 23,3365           00051                                    S2
000155: 23,3366           24021                           STOVL    COSTH                                 #  COS(OG) = MGA . ZNB
000156: 23,3367           00001                                    0
000157: 23,3370           77641                           DOT
000158: 23,3371           02673                                    YNB
000159: 23,3372           34023                           STCALL   SINTH                                 #  SIN(OG) = MGA . YNB
000160: 23,3373           47322                                    ARCTRIG
000161: 23,3374           26740                           STOVL    OGC
000162: 23,3375           00001                                    0
000163:
000164: 23,3376           50235                           VXV      DOT                                   #  PROVISION FOR MG ANGLE OF 90 DEGREES
000165: 23,3377           02665                                    XNB
000166: 23,3400           02651                                    YSM
000167: 23,3401           77752                           SL1
000168: 23,3402           24021                           STOVL    COSTH                                 #  COS(MG) = IGA . (MGA X OGA)
000169: 23,3403           02651                                    YSM
000170: 23,3404           77641                           DOT
000171: 23,3405           02665                                    XNB
000172: 23,3406           34023                           STCALL   SINTH                                 #  SIN(MG) = IGA . OGA
000173: 23,3407           47322                                    ARCTRIG
000174: 23,3410           02744                           STORE    MGC
000175:
000176: 23,3411           45246                           ABS      DSU
000177: 23,3412           07540                                    .166...
000178: 23,3413           77644                           BPL
000179: 23,3414           47433                                    GIMLOCK1                              #  IF ANGLE GREATER THAN 60 DEGREES
000180:
000181: 23,3415           50375        CALCGA1            VLOAD    DOT
000182: 23,3416           02657                                    ZSM
000183: 23,3417           00001                                    0
000184: 23,3420           24021                           STOVL    COSTH                                 #  COS(IG) = ZSM . MGA
000185: 23,3421           02643                                    XSM


000187: 23,3422           45441                           DOT      STADR
000188: 23,3423           43754                           STCALL   SINTH                                 #  SIN(IG) = XSM . MGA
000189: 23,3424           47322                                    ARCTRIG
000190:
000191: 23,3425           26742                           STOVL    IGC
000192: 23,3426           02740                                    OGC
000193: 23,3427           77634                           RTB
000194: 23,3430           21621                                    V1STO2S
000195: 23,3431           34322                           STCALL   THETAD
000196: 23,3432           00051                                    S2
000197:
000198: 23,3433           77776        GIMLOCK1           EXIT
000199: 23,3434           05567                           TC       ALARM
000200: 23,3435           00401                           OCT      00401
000201: 23,3436           05504                           TC       UPFLAG                                #  GIMBAL LOCK HAS OCCURED
000202: 23,3437           00056                           ADRES    GLOKFAIL
000203:
000204: 23,3440           06042                           TC       INTPRET
000205: 23,3441           77650                           GOTO
000206: 23,3442           47415                                    CALCGA1
000207:


000209:                                                                                                  #  AXISGEN COMPUTES THE COORDINATES OF ONE COORDINATE SYSTEM REFERRED TO ANOTHER COORDINATE SYSTEM.
000210:
000211:                                                                                                  #  THE INPUTS ARE  1) THE STAR1 VECTOR REFERRED TO COORDINATE SYSTEM A STORED AT STARAD.  2) THE STAR2 VECTOR
000212:                                                                                                  #  REFERRED TO COORDINATE SYSTEM A STORED AT STARAD +6.  3) THE STAR1 VECTOR REFERRED TO COORDINATE SYSTEM B STORED
000213:                                                                                                  #  AT LOCATION 6 OF THE VAC AREA.  4) THE STAR2 VECTOR REFERRED TO COORDINATE SYSTEM B STORED AT LOCATION 12D OF
000214:                                                                                                  #  THE VAC AREA.
000215:
000216:                                                                                                  #  THE OUTPUT DEFINES COORDINATE SYSTEM A REFERRED TO COORDINATE SYSTEM B.  THE THREE HALF-UNIT VECTORS ARE STORED
000217:                                                                                                  #  AT LOCATIONS XDC, XDC +6, XDC +12D, AND STARAD, STARAD +6, STARAD +12D.
000218:
000219: 23,3443           66370        AXISGEN            AXT,1    SSP                                   #  PUSHDOWN 00-30D, 34D-37D
000220: 23,3444           02714                                    STARAD     +6
000221: 23,3445           00051                                    S1
000222: 23,3446           02700                                    STARAD     -6
000223:
000224: 23,3447           77601                           SETPD
000225: 23,3450           00001                                    0
000226: 23,3451           46773        AXISGEN1           VLOAD*   VXV*                                  #  06D   UA = S1
000227: 23,3452           02723                                    STARAD     +12D,1                     #        STARAD +00D     UB = S1
000228: 23,3453           02731                                    STARAD     +18D,1
000229: 23,3454           77656                           UNIT                                           #  12D   VA = UNIT(S1 X S2)
000230: 23,3455           06731                           STORE    STARAD     +18D,1                     #        STARAD +06D     VB = UNIT(S1 X S2)
000231: 23,3456           77773                           VLOAD*
000232: 23,3457           02723                                    STARAD     +12D,1
000233:
000234: 23,3460           76433                           VXV*     VSL1
000235: 23,3461           02731                                    STARAD     +18D,1                     #  18D   WA = UA X VA
000236: 23,3462           06737                           STORE    STARAD     +24D,1                     #        STARAD +12D     WB = UB X VB
000237:
000238: 23,3463           77700                           TIX,1
000239: 23,3464           47451                                    AXISGEN1
000240:
000241: 23,3465           66160                           AXC,1    SXA,1
000242: 23,3466           00006                                    6
000243: 23,3467           00036                                    30D
000244:
000245: 23,3470           66370                           AXT,1    SSP
000246: 23,3471           00022                                    18D
000247: 23,3472           00051                                    S1
000248: 23,3473           00006                                    6
000249:
000250: 23,3474           66374                           AXT,2    SSP
000251: 23,3475           00006                                    6
000252: 23,3476           00052                                    S2
000253: 23,3477           00002                                    2
000254:
000255: 23,3500           76720        AXISGEN2           XCHX,1   VLOAD*
000256: 23,3501           00036                                    30D                                   #  X1=-6 X2=+6   X1=-6 X2=+4     X1=-6 X2=+2
000257: 23,3502           00001                                    0,1
000258:


000260: 23,3503           62757                           VXSC*    PDVL*                                 #  J=(UA)(UB1)   J=(UA)(UB2)     J=(UA)(UB3)
000261: 23,3504           75062                                    STARAD     +6,2
000262: 23,3505           00007                                    6,1
000263: 23,3506           77757                           VXSC*
000264: 23,3507           75054                                    STARAD     +12D,2
000265: 23,3510           30031                           STOVL*   24D                                   #  K=(VA)(VB1)   J=(VA)(VB2)     J=(VA)(VB3)
000266: 23,3511           00015                                    12D,1
000267:
000268: 23,3512           53357                           VXSC*    VAD
000269: 23,3513           75046                                    STARAD     +18D,2                     #  L=(WA)(WB1)   J=(WA)(WB2)     J=(WA)(WB3)
000270: 23,3514           76455                           VAD      VSL1
000271: 23,3515           00031                                    24D
000272: 23,3516           53520                           XCHX,1   UNIT
000273: 23,3517           00036                                    30D
000274: 23,3520           06707                           STORE    XDC        +18D,1                     #  XDC = L+J+K   YDC = L+J+K     ZDC = L+J+K
000275:
000276: 23,3521           77700                           TIX,1
000277: 23,3522           47523                                    AXISGEN3
000278:
000279: 23,3523           77704        AXISGEN3           TIX,2
000280: 23,3524           47500                                    AXISGEN2
000281:
000282: 23,3525           77775                           VLOAD
000283: 23,3526           02665                                    XDC
000284: 23,3527           26707                           STOVL    STARAD
000285: 23,3530           02673                                    YDC
000286: 23,3531           26715                           STOVL    STARAD     +6
000287: 23,3532           02701                                    ZDC
000288: 23,3533           02723                           STORE    STARAD     +12D
000289:
000290: 23,3534           77616                           RVQ
000291:


000293: 23,3535           05520 26075  QTSN45             2DEC     .1768
000294: 23,3537           05252 25253  .166...            2DEC     .1666666667
000295:


End of include-file INFLIGHT_ALIGNMENT_ROUTINES.agc.  Parent file is MAIN.agc


