
Source Code


000002:                                                                                                  ## Copyright:   Public domain.
000003:                                                                                                  ## Filename:    INTERPRETIVE_CONSTANTS.agc
000004:                                                                                                  ## Purpose:     A section of the reconstructed source code for Luminary 130.
000005:                                                                                                  ##              This was the original program released for the Apollo 13 LM,
000006:                                                                                                  ##              although several more revisions would follow. It has been
000007:                                                                                                  ##              reconstructed from a listing of Luminary 131, from which it
000008:                                                                                                  ##              differs on only two lines in P70-P71. The difference is
000009:                                                                                                  ##              described in detail in Luminary memo #129, which was used
000010:                                                                                                  ##              to perform the reconstruction. This file is intended to be a
000011:                                                                                                  ##              faithful reconstruction, except that the code format has been
000012:                                                                                                  ##              changed to conform to the requirements of the yaYUL assembler
000013:                                                                                                  ##              rather than the original YUL assembler.
000014:                                                                                                  ## Reference:   pp. 1094-1095
000015:                                                                                                  ## Contact:     Ron Burkey <info@sandroid.org>.
000016:                                                                                                  ## Website:     www.ibiblio.org/apollo/index.html
000017:                                                                                                  ## Mod history: 05/31/03 RSB.   Began transcribing.
000018:                                                                                                  ##              05/14/05 RSB    Corrected website reference above
000019:                                                                                                  ##              2017-01-06 RSB  Page numbers now agree with those on the
000020:                                                                                                  ##                              original harcopy, as opposed to the PDF page
000021:                                                                                                  ##                              numbers in 1701.pdf.
000022:                                                                                                  ##              2017-02-27 RSB  Proofed comment text using octopus/ProoferComments.
000023:                                                                                                  ##              2018-09-04 MAS  Copied from Luminary 131 for Luminary 130.
000024:


000026: 23,2000                                           SETLOC   INTPRET1
000027: 23,2000                                           BANK
000028:
000029: 23,2513                                           COUNT*   $$/ICONS
000030: 23,2513           10000 00000  DP1/4TH            2DEC     .25
000031: 23,2515           00000 00000  UNITZ              2DEC     0          B-28
000032: 23,2517           00000 00000  UNITY              2DEC     0          B-28
000033: 23,2521           20000 00000  UNITX              2DEC     .5
000034: 23,2523           00000 00000  ZEROVECS           2DEC     0          B-28
000035: 23,2525           00000 00000                     2DEC     0          B-28
000036: 23,2527           00000 00000                     2DEC     0          B-28
000037:
000038: 23,2531  23,2521               DPHALF             =        UNITX
000039: 23,2531           37777        DPPOSMAX           OCT      37777
000040: 23,2532           37777                           OCT      37777
000041:


000043:                                                                                                  #  INTERPRETIVE CONSTANTS IN THE OTHER HALF-MEMORY
000044:
000045: 12,2000                                           SETLOC   INTPRET2
000046: 12,2000                                           BANK
000047:
000048: 12,2000                                           COUNT*   $$/ICONS
000049: 12,2000           00000 00000  ZUNIT              2DEC     0          B-28
000050: 12,2002           00000 00000  YUNIT              2DEC     0          B-28
000051: 12,2004           20000 00000  XUNIT              2DEC     .5
000052: 12,2006           00000 00000  ZEROVEC            2DEC     0          B-28
000053: 12,2010           00000 00000                     2DEC     0          B-28
000054: 12,2012           00000 00000                     2DEC     0          B-28
000055:
000056: 12,2014           77777                           OCT      77777                                 #  -0, -6, -12 MUST REMAIN IN THIS ORDER
000057: 12,2015           77771        DFC-6              DEC      -6         B-14
000058: 12,2016           77763        DFC-12             DEC      -12        B-14
000059: 12,2017           37777 37777  LODPMAX            2OCT     3777737777                            #  THESE TWO CONSTANTS MUST REMAIN
000060: 12,2021           37777 37777  LODPMAX1           2OCT     3777737777                            #  ADJACENT AND THE SAME FOR INTEGRATION
000061:
000062: 12,2023  12,2006               ZERODP             =        ZEROVEC
000063: 12,2023  12,2004               HALFDP             =        XUNIT
000064:
000065:

End of include-file INTERPRETIVE_CONSTANTS.agc.  Parent file is MAIN.agc


