
Source Code


000002:                                                                                                  ## Copyright:   Public domain.
000003:                                                                                                  ## Filename:    INTERRUPT_LEAD_INS.agc
000004:                                                                                                  ## Purpose:     A section of the reconstructed source code for Luminary 130.
000005:                                                                                                  ##              This was the original program released for the Apollo 13 LM,
000006:                                                                                                  ##              although several more revisions would follow. It has been
000007:                                                                                                  ##              reconstructed from a listing of Luminary 131, from which it
000008:                                                                                                  ##              differs on only two lines in P70-P71. The difference is
000009:                                                                                                  ##              described in detail in Luminary memo #129, which was used
000010:                                                                                                  ##              to perform the reconstruction. This file is intended to be a
000011:                                                                                                  ##              faithful reconstruction, except that the code format has been
000012:                                                                                                  ##              changed to conform to the requirements of the yaYUL assembler
000013:                                                                                                  ##              rather than the original YUL assembler.
000014:                                                                                                  ## Reference:   pp. 155-156
000015:                                                                                                  ## Contact:     Ron Burkey <info@sandroid.org>.
000016:                                                                                                  ## Website:     www.ibiblio.org/apollo/index.html
000017:                                                                                                  ## Mod history: 04/11/03 RSB.   Began transcribing.
000018:                                                                                                  ##              05/14/05 RSB    Corrected website reference above.
000019:                                                                                                  ##              2017-01-06 RSB  Page numbers now agree with those on the
000020:                                                                                                  ##                              original harcopy, as opposed to the PDF page
000021:                                                                                                  ##                              numbers in 1701.pdf.
000022:                                                                                                  ##              2017-02-12 RSB  Proofed comment text using octopus/ProoferComments.
000023:                                                                                                  ##              2018-09-04 MAS  Copied from Luminary 131 for Luminary 130.
000024:


000026:    4000                                           SETLOC   4000
000027:
000028:    4000                                           COUNT*   $$/RUPTS                              #  FIX-FIX LEAD INS
000029:    4000           00004                           INHINT                                         #  GO
000030:    4001           34054                           CAF      GOBB
000031:    4002           56006                           XCH      BBANK
000032:    4003           12665                           TCF      GOPROG
000033:
000034:    4004           52011                           DXCH     ARUPT                                 #  T6RUPT
000035:    4005           00006                           EXTEND
000036:    4006           34056                           DCA      T6ADR
000037:    4007           52006                           DTCB
000038:
000039:    4010           52011                           DXCH     ARUPT                                 #  T5RUPT - AUTOPILOT
000040:    4011           00006                           EXTEND
000041:    4012           31264                           DCA      T5ADR
000042:    4013           52006                           DTCB
000043:
000044:    4014           52011                           DXCH     ARUPT                                 #  T3RUPT
000045:    4015           34057                           CAF      T3RPTBB
000046:    4016           56006                           XCH      BBANK
000047:    4017           13410                           TCF      T3RUPT
000048:
000049:    4020           52011                           DXCH     ARUPT                                 #  T4RUPT
000050:    4021           34064                           CAF      T4RPTBB
000051:    4022           56006                           XCH      BBANK
000052:    4023           12000                           TCF      T4RUPT
000053:
000054:    4024           52011                           DXCH     ARUPT                                 #  KEYRUPT1
000055:    4025           34060                           CAF      KEYRPTBB
000056:    4026           56006                           XCH      BBANK
000057:    4027           13253                           TCF      KEYRUPT1
000058:
000059:    4030           52011                           DXCH     ARUPT                                 #  KEYRUPT2
000060:    4031           34061                           CAF      MKRUPTBB
000061:    4032           56006                           XCH      BBANK
000062:    4033           12332                           TCF      MARKRUPT
000063:
000064:    4034           52011                           DXCH     ARUPT                                 #  UPRUPT
000065:    4035           34060                           CAF      UPRPTBB
000066:    4036           56006                           XCH      BBANK
000067:    4037           13276                           TCF      UPRUPT
000068:
000069:    4040           52011                           DXCH     ARUPT                                 #  DOWNRUPT
000070:    4041           34062                           CAF      DWNRPTBB
000071:    4042           56006                           XCH      BBANK
000072:    4043           13505                           TCF      DODOWNTM
000073:
000074:    4044           52011                           DXCH     ARUPT                                 #  RADAR RUPT
000075:    4045           34063                           CAF      RDRPTBB


000077:    4046           56006                           XCH      BBANK
000078:    4047           13157                           TCF      RADAREAD
000079:
000080:    4050           52011                           DXCH     ARUPT                                 #  RUPT10 IS USED ONLY BY LANDING GUIDANCE
000081:    4051           34065                           CA       RUPT10BB
000082:    4052           56006                           XCH      BBANK
000083:    4053           12302                           TCF      PITFALL
000084:
000085:    4054  E3,1400                                  EBANK=   LST1                                  #  RESTART USES E0,E3
000086:    4054           12103        GOBB               BBCON    GOPROG
000087:
000088:    4055  E6,1464                                  EBANK=   PERROR
000089:    4055           02117 36106  T6ADR              2CADR    DOT6RUPT
000090:
000091:    4057  E3,1400                                  EBANK=   LST1
000092:    4057           02103        T3RPTBB            BBCON    T3RUPT
000093:
000094:    4060     0073                                  EBANK=   KEYTEMP1
000095:    4060           10100        KEYRPTBB           BBCON    KEYRUPT1
000096:
000097:    4061  E7,1404                                  EBANK=   AOTAZ
000098:    4061           16107        MKRUPTBB           BBCON    MARKRUPT
000099:
000100:    4062     4060               UPRPTBB            =        KEYRPTBB
000101:
000102:    4062     0340                                  EBANK=   DNTMBUFF
000103:    4062           12100        DWNRPTBB           BBCON    DODOWNTM
000104:
000105:    4063  E7,1453                                  EBANK=   TTOGO
000106:    4063           52107        RDRPTBB            BBCON    RADAREAD
000107:
000108:    4064  E6,1414                                  EBANK=   M11
000109:    4064           14106        T4RPTBB            BBCON    T4RUPT
000110:
000111:    4065  E7,1444                                  EBANK=   ELVIRA
000112:    4065           22107        RUPT10BB           BBCON    PITFALL
000113:

End of include-file INTERRUPT_LEAD_INS.agc.  Parent file is MAIN.agc


