
Source Code


000002:                                                                                                  ## Copyright:   Public domain.
000003:                                                                                                  ## Filename:    KALMAN_FILTER.agc
000004:                                                                                                  ## Purpose:     A section of the reconstructed source code for Luminary 130.
000005:                                                                                                  ##              This was the original program released for the Apollo 13 LM,
000006:                                                                                                  ##              although several more revisions would follow. It has been
000007:                                                                                                  ##              reconstructed from a listing of Luminary 131, from which it
000008:                                                                                                  ##              differs on only two lines in P70-P71. The difference is
000009:                                                                                                  ##              described in detail in Luminary memo #129, which was used
000010:                                                                                                  ##              to perform the reconstruction. This file is intended to be a
000011:                                                                                                  ##              faithful reconstruction, except that the code format has been
000012:                                                                                                  ##              changed to conform to the requirements of the yaYUL assembler
000013:                                                                                                  ##              rather than the original YUL assembler.
000014:                                                                                                  ## Reference:   pp. 1462-1463
000015:                                                                                                  ## Contact:     Ron Burkey <info@sandroid.org>.
000016:                                                                                                  ## Website:     www.ibiblio.org/apollo/index.html
000017:                                                                                                  ## Mod history: 06/08/03 RSB.   Began transcribing.
000018:                                                                                                  ##              05/14/05 RSB    Corrected website reference above
000019:                                                                                                  ##              2017-01-06 RSB  Page numbers now agree with those on the
000020:                                                                                                  ##                              original hardcopy, as opposed to the PDF page
000021:                                                                                                  ##                              numbers in 1701.pdf.
000022:                                                                                                  ##              2017-02-28 RSB  Proofed comment text using octopus/ProoferComments.
000023:                                                                                                  ##              2018-09-04 MAS  Copied from Luminary 131 for Luminary 130.
000024:


000026: 17,3777  E6,1522                                  EBANK=   NO.UJETS
000027: 16,3645                                           BANK     16
000028: 16,2000                                           SETLOC   DAPS1
000029: 16,2000                                           BANK
000030:
000031: 16,3645                                           COUNT*   $$/DAP
000032:
000033: 16,3645           34752        RATELOOP           CA       TWO
000034: 16,3646           55743                           TS       DAPTEMP6
000035: 16,3647           60000                           DOUBLE
000036: 16,3650           54002                           TS       Q
000037: 16,3651           51743                           INDEX    DAPTEMP6
000038: 16,3652           11524                           CCS      TJP
000039: 16,3653           13655                           TCF      +2
000040: 16,3654           13674                           TCF      LOOPRATE
000041: 16,3655           63735                           AD       -100MST6
000042: 16,3656           00006                           EXTEND
000043: 16,3657           63713                           BZMF     SMALLTJU
000044: 16,3660           51743                           INDEX    DAPTEMP6
000045: 16,3661           11524                           CCS      TJP
000046: 16,3662           33735                           CA       -100MST6
000047: 16,3663           13665                           TCF      +2
000048: 16,3664           43735                           CS       -100MST6
000049: 16,3665           51743                           INDEX    DAPTEMP6
000050: 16,3666           27524                           ADS      TJP
000051: 16,3667           51743                           INDEX    DAPTEMP6
000052: 16,3670           11524                           CCS      TJP
000053: 16,3671           43621                           CS       -100MS                                #  0.1 AT 1
000054: 16,3672           13674                           TCF      +2
000055: 16,3673           33621                           CA       -100MS
000056: 16,3674           00006        LOOPRATE           EXTEND
000057: 16,3675           51743                           INDEX    DAPTEMP6
000058: 16,3676           71521                           MP       NO.PJETS
000059: 16,3677           30001                           CA       L
000060: 16,3700           51743                           INDEX    DAPTEMP6
000061: 16,3701           55736                           TS       DAPTEMP1                              #  SIGNED TORQUE AT 1 JET-SEC FOR FILTER
000062: 16,3702           00006                           EXTEND
000063: 16,3703           74742                           MP       BIT10                                 #  RESCALE TO 32; ONE BIT ABOUT 2 JET-MSEC
000064: 16,3704           00006                           EXTEND
000065: 16,3705           63736                           BZMF     NEGTORK
000066: 16,3706           50002        STORTORK           INDEX    Q                                     #  INCREMENT DOWNLIST REGISTER.
000067: 16,3707           27513                           ADS      DOWNTORK                              #        NOTE:  NOT INITIALIZED; OVERFLOWS.
000068:
000069: 16,3710           11743                           CCS      DAPTEMP6
000070: 16,3711           13646                           TCF      RATELOOP   +1
000071: 16,3712           13722                           TCF      ROTORQUE
000072: 16,3713           34755        SMALLTJU           CA       ZERO
000073: 16,3714           51743                           INDEX    DAPTEMP6
000074: 16,3715           57524                           XCH      TJP
000075: 16,3716           00006                           EXTEND


000077: 16,3717           74760                           MP       ELEVEN                                #  10.24 PLUS
000078: 16,3720           30001                           CA       L
000079: 16,3721           13674                           TCF      LOOPRATE
000080: 16,3722           31737        ROTORQUE           CA       DAPTEMP2
000081: 16,3723           61740                           AD       DAPTEMP3
000082: 16,3724           00006                           EXTEND
000083: 16,3725           71532                           MP       1JACCR
000084: 16,3726           55746                           TS       JETRATER
000085: 16,3727           41740                           CS       DAPTEMP3
000086: 16,3730           61737                           AD       DAPTEMP2
000087: 16,3731           00006                           EXTEND
000088: 16,3732           71531                           MP       1JACCQ
000089: 16,3733           55745                           TS       JETRATEQ
000090: 16,3734           12316                           TCF      BACKP
000091: 16,3735           77537        -100MST6           DEC      -160       B-14
000092:
000093: 16,3736           40000        NEGTORK            COM
000094: 16,3737           24002                           INCR     Q
000095: 16,3740           13706                           TCF      STORTORK
000096:
000097:

End of include-file KALMAN_FILTER.agc.  Parent file is MAIN.agc


