
Source Code


000002:                                                                                                  ## Copyright:   Public domain.
000003:                                                                                                  ## Filename:    P30,P37.agc
000004:                                                                                                  ## Purpose:     A section of the reconstructed source code for Luminary 130.
000005:                                                                                                  ##              This was the original program released for the Apollo 13 LM,
000006:                                                                                                  ##              although several more revisions would follow. It has been
000007:                                                                                                  ##              reconstructed from a listing of Luminary 131, from which it
000008:                                                                                                  ##              differs on only two lines in P70-P71. The difference is
000009:                                                                                                  ##              described in detail in Luminary memo #129, which was used
000010:                                                                                                  ##              to perform the reconstruction. This file is intended to be a
000011:                                                                                                  ##              faithful reconstruction, except that the code format has been
000012:                                                                                                  ##              changed to conform to the requirements of the yaYUL assembler
000013:                                                                                                  ##              rather than the original YUL assembler.
000014:                                                                                                  ## Reference:   pp. 619-622
000015:                                                                                                  ## Contact:     Ron Burkey <info@sandroid.org>.
000016:                                                                                                  ## Website:     www.ibiblio.org/apollo
000017:                                                                                                  ## Mod history: 05/19/03 RSB.   Began transcribing.
000018:                                                                                                  ##              2017-01-06 RSB  Page numbers now agree with those on the
000019:                                                                                                  ##                              original harcopy, as opposed to the PDF page
000020:                                                                                                  ##                              numbers in 1701.pdf.
000021:                                                                                                  ##              2017-02-24 RSB  Proofed comment text using octopus/ProoferComments.
000022:                                                                                                  ##              2017-03-09 RSB  Fixed VNP00H to VNPOOH.
000023:                                                                                                  ##              2017-03-14 RSB  Comment-text fixes noted in proofing Luminary 116.
000024:                                                                                                  ##              2018-09-04 MAS  Copied from Luminary 131 for Luminary 130.
000025:


000027:                                                                                                  #  PROGRAM DESCRIPTION P30       DATE 3-6-67
000028:                                                                                                  #  MOD.1 BY RAMA AIYAWAR
000029:
000030:                                                                                                  #  FUNCTIONAL DESCRIPTION
000031:                                                                                                  #        ACCEPT ASTRONAUT INPUTS OF TIG,DELV(LV)
000032:                                                                                                  #        CALL IMU STATUS CHECK ROUTINE (R02)
000033:                                                                                                  #        DISPLAY TIME TO GO, APOGEE, PERIGEE, DELV(MAG), MGA AT IGN
000034:                                                                                                  #        REQUEST BURN PROGRAM
000035:
000036:                                                                                                  #  CALLING SEQUENCE VIA JOB FROM V37
000037:
000038:                                                                                                  #  EXIT VIA V37 CALL OR TO GOTOPOOH (V34E)
000039:
000040:                                                                                                  #  SUBROUTINE CALLS -    FLAGUP, PHASCHNG, BANKCALL, ENDOFJOB, GOFLASH, GOFLASHR
000041:                                                                                                  #                        GOPERF3R, INTPRET, BLANKET, GOTOPOOH, R02BOTH, S30.1,
000042:                                                                                                  #                        TTG/N35, MIDGIM, DISPMGA
000043:
000044:                                                                                                  #  ERASABLE INITIALIZATION - STATE VECTOR
000045:
000046:                                                                                                  #  OUTPUT -      RINIT, VINIT, +MGA, VTIG, RTIG, DELVSIN, DELVSAB, DELVSLV, HAPO,
000047:                                                                                                  #                HPER, TTOGO
000048:
000049:                                                                                                  #  DEBRIS - A, L, MPAC, PUSHLIST
000050:
000051: 32,3000                                           BANK     32
000052: 35,2000                                           SETLOC   P30S
000053: 35,2000                                           BANK
000054: 35,2000  E4,1652                                  EBANK=   +MGA
000055: 35,2000                                           COUNT*   $$/P30
000056: 35,2000           05504        P30                TC       UPFLAG                                #  SET UPDATE FLAG
000057: 35,2001           00027                           ADRES    UPDATFLG
000058: 35,2002           05504                           TC       UPFLAG                                #  SET TRACK FLAG
000059: 35,2003           00031                           ADRES    TRACKFLG
000060:
000061: 35,2004           32032        P30N33             CAF      V06N33                                #  T OF IGN
000062: 35,2005           03621                           TC       VNPOOH                                #  RETURNS ON PROCEED, POOH ON TERMINATE
000063:
000064: 35,2006           33636                           CAF      V06N81                                #  DISPLAY DELTA V (LV)
000065: 35,2007           03621                           TC       VNPOOH                                #        REDISPLAY ON RECYCLE
000066:
000067: 35,2010           05516                           TC       DOWNFLAG                              #  RESET UPDATE FLAG
000068: 35,2011           00027                           ADRES    UPDATFLG
000069: 35,2012           06042                           TC       INTPRET
000070: 35,2013           77624                           CALL
000071: 35,2014           70000                                    S30.1
000072: 35,2015           43014                           SET      SET
000073: 35,2016           00470                                    UPDATFLG
000074: 35,2017           01067                                    XDELVFLG
000075: 35,2020           77776                           EXIT
000076: 35,2021           32033        PARAM30            CAF      V06N42                                #  DISPLAY APOGEE,PERIGEE,DELTA V


000078: 35,2022           03621                           TC       VNPOOH
000079:
000080: 35,2023           06042                           TC       INTPRET
000081: 35,2024           77614                           SET
000082: 35,2025           01071                                    FINALFLG
000083: 35,2026           77624        REVN1645           CALL
000084: 35,2027           73515                                    VN1645
000085: 35,2030           77650                           GOTO                                           #  COMES HERE ON RECYCLE RESPONSE
000086: 35,2031           72026                                    REVN1645
000087:
000088: 35,2032           01441        V06N33             VN       0633
000089: 35,2033           01452        V06N42             VN       0642
000090:


000092:                                                                                                  #  PROGRAM DESCRIPTION S30.1     DATE 9NOV66
000093:                                                                                                  #  MOD NO 1                      LOG SECTION P30,P37
000094:                                                                                                  #  MOD BY RAMA AIYAWAR **
000095:
000096:                                                                                                  #  FUNCTIONAL DESCRIPTION
000097:                                                                                                  #        BASED ON STORED TARGET PARAMETERS (R OF IGNITION (RTIG), V OF
000098:                                                                                                  #        IGNITION (VTIG), TIME OF IGNITION (TIG)), COMPUTE PERIGEE ALTITUDE
000099:                                                                                                  #        APOGEE ALTITUDE AND DELTAV REQUIRED (DELVSIN).
000100:
000101:                                                                                                  #  CALLING SEQUENCE
000102:                                                                                                  #        L       CALL
000103:                                                                                                  #        L+1             S30.1
000104:
000105:                                                                                                  #  NORMAL EXIT MODE
000106:                                                                                                  #        AT L+2 OR CALLING SEQUENCE (GOTO L+2)
000107:
000108:                                                                                                  #  SUBROUTINES CALLED
000109:                                                                                                  #        LEMPREC
000110:                                                                                                  #        PERIAPO
000111:
000112:                                                                                                  #  ALARM OR ABORT EXIT MODES
000113:                                                                                                  #        NONE
000114:
000115:                                                                                                  #  ERASABLE INITIALIZATION REQUIRED
000116:                                                                                                  #        TIG             TIME OF IGNITION        DP B28CS
000117:                                                                                                  #        DELVSLV         SPECIFIED DELTA-V INLOCAL VERT.
000118:                                                                                                  #                        COORDS. OF ACTIVE VEHICLE AT
000119:                                                                                                  #                        TIME OF IGNITION        VECTOR B+7 METERS/CS
000120:
000121:                                                                                                  #  OUTPUT
000122:                                                                                                  #        RTIG            POSITION AT TIG         VECTOR B+29 METERS
000123:                                                                                                  #        VTIG            VELOCITY AT TIG         VECTOR B+29 METERS/CS
000124:                                                                                                  #        PDL 4D          APOGEE ALTITUDE         DP B+29 M, B+27 METERS.
000125:                                                                                                  #        HAPO            APOGEE ALTITUDE         DP B+29 METERS
000126:                                                                                                  #        PDL 8D          PERIGEE ALTITUDE        DP B+29 M, B+27 METERS.
000127:                                                                                                  #        HPER            PERIGEE ALTITUDE        DP B+29 METERS
000128:                                                                                                  #        DELVSIN         SPECIFIED DELTA-V IN INERTIAL
000129:                                                                                                  #                        COORD. OF ACTIVE VEHICLE AT
000130:                                                                                                  #                        TIME OF IGNITION        VECTOR B+7 METERS/CS
000131:                                                                                                  #        DELVSAB         MAG. OF DELVSIN         VECTOR B+7 METERS/CS
000132:
000133:                                                                                                  #  DEBRIS        QTEMP   TEMP.ERASABLE
000134:                                                                                                  #                QPRET, MPAC
000135:                                                                                                  #                PUSHLIST
000136:
000137: 34,2000                                           SETLOC   P30S1
000138: 34,2000                                           BANK
000139:
000140: 34,2000                                           COUNT*   $$/S30S
000141:
000142: 34,2000           71220        S30.1              STQ      DLOAD
000143: 34,2001           03632                                    QTEMP
000144: 34,2002           03442                                    TIG                                   #  TIME IGNITION SCALED AT 2(+28)CS
000145: 34,2003           34041                           STCALL   TDEC1
000146: 34,2004           27056                                    LEMPREC                               #  ENCKE ROUTINE FOR LEM
000147:
000148: 34,2005           67175                           VLOAD    SXA,2


000150: 34,2006           00001                                    RATT
000151: 34,2007           02777                                    RTX2
000152: 34,2010           03642                           STORE    RTIG                                  #  RADIUS VECTOR AT IGNITION TIME
000153: 34,2011           57456                           UNIT     VCOMP
000154: 34,2012           27656                           STOVL    DELVSIN                               #  ZRF/LV IN DELVSIN SCALED AT 2
000155: 34,2013           00007                                    VATT                                  #  VELOCITY VECTOR AT TIG, SCALED 2(7) M/CS
000156: 34,2014           03650                           STORE    VTIG
000157: 34,2015           53435                           VXV      UNIT
000158: 34,2016           03642                                    RTIG
000159: 34,2017           66001                           SETPD    SXA,1
000160: 34,2020           00001                                    0
000161: 34,2021           02776                                    RTX1
000162: 34,2022           47206                           PUSH     VXV                                   #  YRF/LV PDL 0 SCALED AT 2
000163: 34,2023           03656                                    DELVSIN
000164: 34,2024           63372                           VSL1     PDVL
000165: 34,2025           63315                           PDVL     PDVL                                  #  YRF/LV PDL 6 SCALED AT 2
000166: 34,2026           03656                                    DELVSIN                               #  ZRF/LV PDL 12D SCALED AT 2
000167: 34,2027           03434                                    DELVSLV
000168: 34,2030           76505                           VXM      VSL1
000169: 34,2031           00001                                    0
000170: 34,2032           03656                           STORE    DELVSIN                               #  DELTAV IN INERT. COOR. SCALED TO B+7M/CS
000171: 34,2033           77646                           ABVAL
000172: 34,2034           27664                           STOVL    DELVSAB                               #  DELTA V MAG.
000173: 34,2035           03642                                    RTIG                                  #  (FOR PERIAPO)
000174: 34,2036           53315                           PDVL     VAD                                   #  VREQUIRED = VTIG + DELVSIN (FOR PERIAPO)
000175: 34,2037           03650                                    VTIG
000176: 34,2040           03656                                    DELVSIN
000177: 34,2041           77624                           CALL
000178: 34,2042           46341                                    PERIAPO1
000179: 34,2043           77624                           CALL
000180: 34,2044           46451                                    SHIFTR1                               #  RESCALE IF NEEDED
000181: 34,2045           77624                           CALL                                           #  LIMIT DISPLAY TO 9999.9 N. MI.
000182: 34,2046           45636                                    MAXCHK
000183: 34,2047           16321                           STODL    HPER                                  #  PERIGEE ALT 2(29) METERS, FOR DISPLAY
000184: 34,2050           00005                                    4D
000185: 34,2051           77624                           CALL
000186: 34,2052           46451                                    SHIFTR1                               #  RESCALE IF NEEDED
000187: 34,2053           77624                           CALL                                           #  LIMIT DISPLAY TO 9999.9 N. MI.
000188: 34,2054           45636                                    MAXCHK
000189: 34,2055           36317                           STCALL   HAPO                                  #  APOGEE ALT 2(29) METERS, FOR DISPLAY
000190: 34,2056           03632                                    QTEMP
000191:
000192:

End of include-file P30,P37.agc.  Parent file is MAIN.agc


