
Source Code


000002:                                                                                                  ## Copyright:   Public domain.
000003:                                                                                                  ## Filename:    P34-P35,_P74-P75.agc
000004:                                                                                                  ## Purpose:     A section of the reconstructed source code for Luminary 130.
000005:                                                                                                  ##              This was the original program released for the Apollo 13 LM,
000006:                                                                                                  ##              although several more revisions would follow. It has been
000007:                                                                                                  ##              reconstructed from a listing of Luminary 131, from which it
000008:                                                                                                  ##              differs on only two lines in P70-P71. The difference is
000009:                                                                                                  ##              described in detail in Luminary memo #129, which was used
000010:                                                                                                  ##              to perform the reconstruction. This file is intended to be a
000011:                                                                                                  ##              faithful reconstruction, except that the code format has been
000012:                                                                                                  ##              changed to conform to the requirements of the yaYUL assembler
000013:                                                                                                  ##              rather than the original YUL assembler.
000014:                                                                                                  ## Reference:   pp. 660-704
000015:                                                                                                  ## Contact:     Ron Burkey <info@sandroid.org>.
000016:                                                                                                  ## Website:     www.ibiblio.org/apollo
000017:                                                                                                  ## Mod history: 05/22/03 RSB.   Began transcribing.
000018:                                                                                                  ##              2010-10-25 JL   Added missing # in comments.
000019:                                                                                                  ##              2011-05-07 JL   Removed workaround.
000020:                                                                                                  ##              2017-01-06 RSB  Page numbers now agree with those on the
000021:                                                                                                  ##                              original harcopy, as opposed to the PDF page
000022:                                                                                                  ##                              numbers in 1701.pdf.
000023:                                                                                                  ##              2017-01-28 RSB  Back-ported some comment fixes I noticed while
000024:                                                                                                  ##                              proofing Luminary 69.
000025:                                                                                                  ##              2017-01-28 RSB  Back-ported some comment fixes I noticed while
000026:                                                                                                  ##                              proofing Artemis 72.
000027:                                                                                                  ##              2017-02-24 RSB  Proofed comment text using octopus/ProoferComments.
000028:                                                                                                  ##              2017-02-28 RSB  Fixed lingering typos.
000029:                                                                                                  ##              2017-03-09 RSB  Fixed VNP00H to VNPOOH.
000030:                                                                                                  ##              2017-03-09 RSB  Comment-text fixes noted in proofing Luminary 116.
000031:                                                                                                  ##              2017-03-16 RSB  Comment-text fixes identified in 5-way
000032:                                                                                                  ##                              side-by-side diff of Luminary 69/99/116/131/210.
000033:                                                                                                  ##              2018-09-04 MAS  Copied from Luminary 131 for Luminary 130.
000034:


000036:                                                                                                  #  TRANSFER PHASE INITIATION (TPI) PROGRAMS (P34 AND P74)
000037:                                                                                                  #  MOD NO -1                     LOG SECTION - P32-P35, P72-P75
000038:                                                                                                  #  MOD BY WHITE.P                DATE 1 JUNE 67
000039:
000040:                                                                                                  #  PURPOSE
000041:                                                                                                  #        (1)     TO CALCULATE THE REQUIRED DELTA V AND OTHER INITIAL CONDITIONS
000042:                                                                                                  #                REQUIRED BY THE ACTIVE VEHICLE FOR EXECUTION OF THE TRANSFER
000043:                                                                                                  #                PHASE INITIATION (TPI) MANEUVER, GIVEN -
000044:                                                                                                  #                (A)     TIME OF IGNITION TIG (TPI) OR THE ELEVATION ANGLE (E) OF
000045:                                                                                                  #                        THE ACTIVE/PASSIVE VEHICLE LOS AT TIG (TPI).
000046:                                                                                                  #                (B)     CENTRAL ANGLE OF TRANSFER (CENTANG) FROM TIG (TPI) TO
000047:                                                                                                  #                        INTERCEPT TIME (TIG (TPF)).
000048:                                                                                                  #        (2)     TO CALCULATE TIG (TPI) GIVEN E OR E GIVEN TIG (TPI).
000049:                                                                                                  #        (3)     TO CALCULATE THESE PARAMETERS BASED UPON MANEUVER DATA
000050:                                                                                                  #                APPROVED AND KEYED INTO THE DSKY BY THE ASTRONAUT.
000051:                                                                                                  #        (4)     TO DISPLAY TO THE ASTRONAUT AND THE GROUND CERTAIN DEPENDENT
000052:                                                                                                  #                VARIABLES ASSOCIATED WITH THE MANEUVER FOR APPROVAL BY THE
000053:                                                                                                  #                ASTRONAUT/GROUND.
000054:                                                                                                  #        (5)     TO STORE THE TPI TARGET PARAMETERS FOR USE BY THE DESIRED
000055:                                                                                                  #                THRUSTING PROGRAM.
000056:
000057:                                                                                                  #  ASSUMPTIONS
000058:                                                                                                  #        (1)     LM ONLY - THIS PROGRAM IS BASED UPON PREVIOUS COMPLETION OF
000059:                                                                                                  #                THE CONSTANT DELTA ALTITUDE (CDH) PROGRAM (P33/P73).
000060:                                                                                                  #                THEREFORE -
000061:                                                                                                  #                (A)     AT A SELECTED TPI TIME (NOW IN STORAGE) THE LINE OF SIGHT
000062:                                                                                                  #                        BETWEEN THE ACTIVE AND PASSIVE VEHICLES WAS SELECTED TO BE
000063:                                                                                                  #                        A PRESCRIBED ANGLE (E) (NOW IN STORAGE) FROM THE
000064:                                                                                                  #                        HORIZONTAL PLANE DEFINED BY THE ACTIVE VEHICLE POSITION.
000065:                                                                                                  #                (B)     THE TIME BETWEEN CDH IGNITION AND TPI IGNITION WAS
000066:                                                                                                  #                        COMPUTED TO BE GREATER THAN 10 MINUTES.
000067:                                                                                                  #                (C)     THE VARIATION OF THE ALTITUDE DIFFERENCE BETWEEN THE
000068:                                                                                                  #                        ORBITS WAS MINIMIZED.
000069:                                                                                                  #                (D)     THE PERICENTER ALTITUDES OF ORBITS FOLLOWING CSI AND
000070:                                                                                                  #                        CDH WERE COMPUTED TO BE GREATER THAN 35,000 FT FOR LUNAR


000072:                                                                                                  #                        ORBIT OR 85 NM FOR EARTH ORBIT.
000073:                                                                                                  #                (E)     THE CSI AND CDH MANEUVERS WERE ASSUMED TO BE PARALLEL TO
000074:                                                                                                  #                        THE PLANE OF THE PASSIVE VEHICLE ORBIT.  HOWEVER, CREW
000075:                                                                                                  #                        MODIFICATION OF DELTA V (LV) COMPONENTS MAY HAVE RESULTED
000076:                                                                                                  #                        IN AN OUT-OF-PLANE MANEUVER.
000077:                                                                                                  #        (2)     STATE VECTOR UPDATED BY P27 ARE DISALLOWED DURING AUTOMATIC
000078:                                                                                                  #                STATE VECTOR UPDATING INITIATED BY P20 (SEE ASSUMPTION (4)).
000079:                                                                                                  #        (3)     THIS PROGRAM MUST BE DONE OVER A TRACKING STATION FOR REAL
000080:                                                                                                  #                TIME GROUND PARTICIPATION IN DATA INPUT AND OUTPUT.  COMPUTED
000081:                                                                                                  #                VARIABLES MAY BE STORED FOR LATER VERIFICATION BY THE GROUND.
000082:                                                                                                  #                THESE STORAGE CAPABILITIES ARE LIMITED ONLY TO THE PARAMETERS
000083:                                                                                                  #                FOR ONE THRUSTING MANEUVER AT A TIME EXCEPT FOR CONCENTRIC
000084:                                                                                                  #                FLIGHT PLAN MANEUVER SEQUENCES.
000085:                                                                                                  #        (4)     THE RENDEZVOUS RADAR MAY OR MAY NOT BE USED TO UPDATE THE LM
000086:                                                                                                  #                OR CSM STATE VECTORS FOR THIS PROGRAM.  IF RADAR USE IS
000087:                                                                                                  #                DESIRED THE RADAR WAS TURNED ON AND LOCKED ON THE CSM BY
000088:                                                                                                  #                PREVIOUS SELECTION OF P20.  RADAR SIGHTING MARKS WILL BE MADE
000089:                                                                                                  #                AUTOMATICALLY APPROXIMATELY ONCE A MINUTE WHEN ENABLED BY THE
000090:                                                                                                  #                TRACK AND UPDATE FLAGS (SEE P20).  THE RENDEZVOUS TRACKING
000091:                                                                                                  #                MARK COUNTER IS ZEROED BY THE SELECTION OF P20 AND AFTER EACH
000092:                                                                                                  #                THRUSTING MANEUVER.
000093:                                                                                                  #        (5)     THE ISS NEED NOT BE ON TO COMPLETE THIS PROGRAM.
000094:                                                                                                  #        (6)     THE OPERATION OF THE PROGRAM UTILIZES THE FOLLOWING FLAGS -
000095:
000096:                                                                                                  #                        ACTIVE VEHICLE FLAG - DESIGNATES THE VEHICLE WHICH IS
000097:                                                                                                  #                        DOING RENDEZVOUS THRUSTING MANEUVERS TO THE PROGRAM WHICH
000098:                                                                                                  #                        CALCULATES THE MANEUVER PARAMETERS.  SET AT THE START OF
000099:                                                                                                  #                        EACH RENDEZVOUS PRE-THRUSTING PROGRAM.
000100:
000101:                                                                                                  #                        FINAL FLAG - SELECTS FINAL PROGRAM DISPLAYS AFTER CREW HAS
000102:                                                                                                  #                        SELECTED THE FINAL MANEUVER COMPUTATION CYCLE.
000103:
000104:                                                                                                  #                        EXTERNAL DELTA V FLAG - DESIGNATES THE TYPE OF STEERING
000105:                                                                                                  #                        REQUIRED FOR EXECUTION OF THIS MANEUVER BY THE THRUSTING
000106:                                                                                                  #                        PROGRAM SELECTED AFTER COMPLETION OF THIS PROGRAM.
000107:
000108:                                                                                                  #        (7)     ONCE THE PARAMETWRS REQUIRED FOR COMPUTION OF THE MANEUVER
000109:                                                                                                  #                HAVE BEEN COMPLETELY SPECIFIED, THE VALUE OF THE ACTIVE
000110:                                                                                                  #                VEHICLE CENTRAL ANGLE OF TRANSFER IS COMPUTED AND STORED.
000111:                                                                                                  #                THIS NUMBER WILL BE AVAILABLE FOR DISPLAY TO THE ASTRONAUT
000112:                                                                                                  #                THROUGH THE USE OF V06N52.
000113:
000114:                                                                                                  #                THE ASTRONAUT WILL CALL THIS DISPLAY TO VERIFY THAT THE
000115:                                                                                                  #                CENTRAL ANGLE OF TRANSFER OF THE ACTIVE VEHICLE IS NOT WITHIN


000117:                                                                                                  #                170 TO 190 DEGREES.  IF THE ANGLE IS WITHIN THIS ZONE THE
000118:                                                                                                  #                ASTRONAUT SHOULD REASSESS THE INPUT TARGETING PARAMETERS BASED
000119:                                                                                                  #                UPON DELTA V AND EXPECTED MANEUVER TIME.
000120:                                                                                                  #        (8)     THIS PROGRAM IS SELECTED BY THE ASTRONAUT BY DSKY ENTRY -
000121:
000122:                                                                                                  #                        P34 IF THIS VEHICLE IS ACTIVE VEHICLE.
000123:
000124:                                                                                                  #                        P74 IF THIS VEHICLE IS PASSIVE VEHICLE.
000125:
000126:                                                                                                  #  INPUT
000127:                                                                                                  #        (1)     TTPI    TIME OF THE TPI MANEUVER
000128:                                                                                                  #        (2)     ELEV    DESIRED LOS ANGLE AT TPI
000129:                                                                                                  #        (3)     CENTANG ORBITAL CENTRAL ANGLE OF THE PASSIVE VEHICLE DURING
000130:                                                                                                  #                        TRANSFER FROM TPI TO TIME OF INTERCEPT
000131:
000132:                                                                                                  #  OUTPUT
000133:                                                                                                  #        (1)     TRKMKCNT        NUMBER OF MARKS
000134:                                                                                                  #        (2)     TTOGO           TIME TO GO
000135:                                                                                                  #        (3)     +MGA            MIDDLE GIMBAL ANGLE
000136:                                                                                                  #        (4)     TTPI            COMPUTED TIME OF TPI MANEUVER
000137:                                                                                                  #                 OR
000138:                                                                                                  #                ELEV            COMPUTED LOS ANGLE AT TPI
000139:                                                                                                  #        (5)     POSTTPI         PERIGEE ALTITUDE AFTER THE TPI MANEUVER
000140:                                                                                                  #        (6)     DELVTPI         MAGNITUDE OF DELTA V AT TPI
000141:                                                                                                  #        (7)     DELVTPF         MAGNITUDE OF DELTA V AT INTERCEPT
000142:                                                                                                  #        (8)     DVLOS           DELTA VELOCITY AT TPI - LINE OF SIGHT
000143:                                                                                                  #        (9)     DELVLVC         DELTA VELOCITY AT TPI - LOCAL VERTICAL COORDINATES
000144:
000145:                                                                                                  #  DOWNLINK
000146:                                                                                                  #        (1)     TTPI            TIME OF THE TPI MANEUVER
000147:                                                                                                  #        (2)     TIG             TIME OF THE TPI MANEUVER
000148:                                                                                                  #        (3)     ELEV            DESIRED LOS ANGLE AT TPI
000149:                                                                                                  #        (4)     CENTANG         ORBITAL CENTRAL ANGLE OF THE PASSIVE VEHICLE DURING
000150:                                                                                                  #                                TRANSFER FROM TPI TO TIME OF INTERCEPT
000151:                                                                                                  #        (5)     DELVEET3        DELTA VELOCITY AT TPI - REFERENCE COORDINATES
000152:                                                                                                  #        (6)     TPASS4          TIME OF INTERCEPT
000153:
000154:                                                                                                  #  COMMUNICATION TO THRUSTING PROGRAMS
000155:                                                                                                  #        (1)     TIG             TIME OF THE TPI MANEUVER
000156:                                                                                                  #        (2)     RTARG           OFFSET TARGET POSITION
000157:                                                                                                  #        (3)     TPASS4          TIME OF INTERCEPT
000158:                                                                                                  #        (4)     XDELVFLG        RESET TO INDICATE LAMBERT (AIMPOINT) VG COMPUTATION
000159:
000160:                                                                                                  #  SUBROUTINES USED
000161:                                                                                                  #        AVFLAGA


000163:                                                                                                  #        AVFLAGP
000164:                                                                                                  #        VNPOOH
000165:                                                                                                  #        DISPLAYE
000166:                                                                                                  #        SELECTMU
000167:                                                                                                  #        PRECSET
000168:                                                                                                  #        S33/34.1
000169:                                                                                                  #        ALARM
000170:                                                                                                  #        BANKCALL
000171:                                                                                                  #        GOFLASH
000172:                                                                                                  #        GOTOPOOH
000173:                                                                                                  #        TIMETHET
000174:                                                                                                  #        S34/35.2
000175:                                                                                                  #        PERIAPO1
000176:                                                                                                  #        SHIFTR1
000177:                                                                                                  #        S34/35.5
000178:                                                                                                  #        VN1645
000179:
000180: 35,2000                                           SETLOC   CSI/CDH
000181: 35,2000                                           BANK
000182: 35,2455  E7,1470                                  EBANK=   SUBEXIT
000183: 35,2455                                           COUNT*   $$/P3474
000184: 35,2455           02354        P34                TC       AVFLAGA
000185: 35,2456           02460                           TC       P34/P74A
000186: 35,2457           02361        P74                TC       AVFLAGP
000187: 35,2460           02366        P34/P74A           TC       P20FLGON                              #  SET UPDATFLG, TRACKFLG
000188: 35,2461           33632                           CAF      V06N37                                #  TTPI
000189: 35,2462           03621                           TC       VNPOOH
000190: 35,2463           00006                           EXTEND
000191: 35,2464           33655                           DCA      130DEG
000192: 35,2465           53621                           DXCH     CENTANG
000193: 35,2466           32424                           CAF      P30ZERO
000194: 35,2467           55466                           TS       NN
000195: 35,2470           03603                           TC       DISPLAYE                              #  ELEV AND CENTANG
000196: 35,2471           06042                           TC       INTPRET
000197: 35,2472           71214                           CLEAR    DLOAD
000198: 35,2473           01270                                    ETPIFLAG
000199: 35,2474           03636                                    TTPI
000200: 35,2475           17442                           STODL    TIG
000201: 35,2476           02257                                    ELEV
000202: 35,2477           43054                           BZE      SET
000203: 35,2500           72502                                    P34/P74B
000204: 35,2501           01070                                    ETPIFLAG
000205: 35,2502           77624        P34/P74B           CALL
000206: 35,2503           20000                                    SELECTMU
000207: 35,2504                        DELELO             EQUALS   26D
000208: 35,2504           43145        P34/P74C           DLOAD    SET
000209: 35,2505           06524                                    ZEROVECS
000210: 35,2506           03460                                    ITSWICH
000211: 35,2507           43014                           BON      CLEAR
000212: 35,2510           01310                                    ETPIFLAG


000214: 35,2511           72513                                    SWCHSET
000215: 35,2512           03660                                    ITSWICH
000216: 35,2513           02317        SWCHSET            STORE    NOMTPI
000217: 35,2514           43345        INTLOOP            DLOAD    DAD
000218: 35,2515           03636                                    TTPI
000219: 35,2516           02317                                    NOMTPI
000220: 35,2517           34041                           STCALL   TDEC1
000221: 35,2520           46403                                    PRECSET
000222: 35,2521           77624                           CALL
000223: 35,2522           72674                                    S33/34.1
000224: 35,2523           77454                           BZE      EXIT
000225: 35,2524           72535                                    SWCHCLR
000226: 35,2525           05567                           TC       ALARM
000227: 35,2526           00611                           OCT      611
000228: 35,2527           35006                           CAF      V05N09
000229: 35,2530           04616                           TC       BANKCALL
000230: 35,2531           20477                           CADR     GOFLASH
000231: 35,2532           06001                           TC       GOTOPOOH
000232: 35,2533           02460                           TC       P34/P74A                              #  PROCEED
000233: 35,2534           02525                           TC       -7                                    #  V32
000234:
000235: 35,2535           43014        SWCHCLR            BONCLR   BON
000236: 35,2536           03600                                    ITSWICH
000237: 35,2537           72514                                    INTLOOP
000238: 35,2540           01310                                    ETPIFLAG
000239: 35,2541           72545                                    P34/P74D                              #  DISPLAY TTPI
000240: 35,2542           77776                           EXIT
000241: 35,2543           03603                           TC       DISPLAYE                              #  DISPLAY ELEV AND CENTANG
000242: 35,2544           02550                           TC       P34/P74E
000243: 35,2545           77776        P34/P74D           EXIT
000244: 35,2546           33632                           CAF      V06N37                                #  TTPI
000245: 35,2547           03621                           TC       VNPOOH
000246: 35,2550           06042        P34/P74E           TC       INTPRET
000247: 35,2551           71201                           SETPD    DLOAD
000248: 35,2552           00001                                    0D
000249: 35,2553           02777                                    RTX1
000250: 35,2554           14047                           STODL    X1
000251: 35,2555           03621                                    CENTANG
000252: 35,2556           71406                           PUSH     COS
000253: 35,2557           16732                           STODL    CSTH
000254: 35,2560           77756                           SIN
000255: 35,2561           26730                           STOVL    SNTH
000256: 35,2562           03552                                    RPASS3
000257: 35,2563           77657                           VSR*
000258: 35,2564           57176                                    0,2
000259: 35,2565           26655                           STOVL    RVEC
000260: 35,2566           03560                                    VPASS3
000261: 35,2567           43057                           VSR*     SET
000262: 35,2570           57176                                    0,2
000263: 35,2571           03466                                    RVSW


000265: 35,2572           36744                           STCALL   VVEC
000266: 35,2573           24732                                    TIMETHET
000267: 35,2574           77745                           DLOAD
000268: 35,2575           03636                                    TTPI
000269: 35,2576           03610                           STORE    INTIME                                #  FOR INITVEL
000270: 35,2577           77615                           DAD
000271: 35,2600           00037                                    T                                     #  RENDEZVOUS TIME
000272: 35,2601           37631                           STCALL   TPASS4                                #  FOR INITVEL
000273: 35,2602           73216                                    S34/35.2
000274: 35,2603           51575                           VLOAD    ABVAL
000275: 35,2604           02366                                    DELVEET3
000276: 35,2605           27576                           STOVL    DELVTPI
000277: 35,2606           03506                                    VPASS4
000278: 35,2607           51451                           VSU      ABVAL
000279: 35,2610           03566                                    VTPRIME
000280: 35,2611           26350                           STOVL    DELVTPF
000281: 35,2612           03536                                    RACT3
000282: 35,2613           45115                           PDVL     CALL
000283: 35,2614           02337                                    VIPRIME
000284: 35,2615           46341                                    PERIAPO1
000285: 35,2616           77624                           CALL
000286: 35,2617           46451                                    SHIFTR1
000287: 35,2620           17606                           STODL    POSTTPI
000288: 35,2621           03636                                    TTPI
000289: 35,2622           03442                           STORE    TIG
000290: 35,2623           77776                           EXIT
000291: 35,2624           33634                           CAF      V06N58
000292: 35,2625           03621                           TC       VNPOOH
000293: 35,2626           06042                           TC       INTPRET
000294: 35,2627           77624                           CALL
000295: 35,2630           73432                                    S34/35.5
000296: 35,2631           77624                           CALL
000297: 35,2632           73515                                    VN1645
000298: 35,2633           77650                           GOTO
000299: 35,2634           72504                                    P34/P74C


000301:                                                                                                  #  RENDEZVOUS MID-COURSE MANEUVER PROGRAMS (P35 AND P75)
000302:                                                                                                  #  MOD NO -1                     LOG SECTION - P32-P35, P72-P75
000303:                                                                                                  #  MOD BY WHITE.P                DATE   1 JUNE 67
000304:
000305:                                                                                                  #  PURPOSE
000306:                                                                                                  #        (1)     TO CALCULATE THE REQUIRED DELTA V AND OTHER INITIAL CONDITIONS
000307:                                                                                                  #                REQUIRED BY THE ACTIVE VEHICLE FOR EXECUTION OF THE NEXT
000308:                                                                                                  #                MIDCOURSE CORRECTION OF THE TRANSFER PHASE OF AN ACTIVE
000309:                                                                                                  #                VEHICLE RENDEZVOUS.
000310:                                                                                                  #        (2)     TO DISPLAY TO THE ASTRONAUT AND THE GROUND CERTAIN DEPENDENT
000311:                                                                                                  #                VARIABLES ASSOCIATED WITH THE MANEUVER FOR APPROVAL BY THE
000312:                                                                                                  #                ASTRONAUT/GROUND.
000313:                                                                                                  #        (3)     TO STORE THE TPM TARGET PARAMETERS FOR USE BY THE DESIRED
000314:                                                                                                  #                THRUSTING PROGRAM.
000315:
000316:                                                                                                  #  ASSUMPTIONS
000317:                                                                                                  #        (1)     THE ISS NEED NOT BE ON TO COMPLETE THIS PROGRAM.
000318:                                                                                                  #        (2)     STATE VECTOR UPDATES BY P27 ARE DISALLOWED DURING AUTOMATIC
000319:                                                                                                  #                STATE VECTOR UPDATING INITIATED BY P20 (SEE ASSUMPTION (3)).
000320:                                                                                                  #        (3)     THE RENDEZVOUS RADAR IS ON AND IS LOCKED ON THE CSM.  THIS WAS
000321:                                                                                                  #                DONE DURING PREVIOUS SELECTION OF P20.  RADAR SIGHTING MARKS
000322:                                                                                                  #                WILL BE MADE AUTOMATICALLY APPROXIMATELY ONCE A MINUTE WHEN
000323:                                                                                                  #                ENABLED BY THE TRACK AND UPDATE FLAGS (SEE P20).  THE
000324:                                                                                                  #                RENDEZVOUS TRACKING MARK COUNTER IS ZEROED BY THE SELECTION OF
000325:                                                                                                  #                P20 AND AFTER EACH THRUSTING MANEUVER.
000326:                                                                                                  #        (4)     THE OPERATION OF THE PROGRAM UTILIZES THE FOLLOWING FLAGS -
000327:
000328:                                                                                                  #                        ACTIVE VEHICLE FLAG - DESIGNATES THE VEHICLE WHICH IS
000329:                                                                                                  #                        DOING RENDEZVOUS THRUSTING MANEUVERS TO THE PROGRAM WHICH
000330:                                                                                                  #                        CALCULATES THE MANEUVER PARAMETERS.  SET AT THE START OF
000331:                                                                                                  #                        EACH RENDEZVOUS PRE-THRUSTING PROGRAM.
000332:
000333:                                                                                                  #                        FINAL FLAG - SELECTS FINAL PROGRAM DISPLAYS AFTER CREW HAS
000334:                                                                                                  #                        SELECTED THE FINAL MANEUVER COMPUTATION CYCLE.
000335:
000336:                                                                                                  #                        EXTERNAL DELTA V FLAG - DESIGNATES THE TYPE OF STEERING
000337:                                                                                                  #                        REQUIRED FOR EXECUTION OF THIS MANEUVER BY THE THRUSTING
000338:                                                                                                  #                        PROGRAM SELECTED AFTER COMPLETION OF THIS PROGRAM.
000339:
000340:                                                                                                  #        (5)     THE TIME OF INTERCEPT (T(INT)) WAS DEFINED BY PREVIOUS
000341:                                                                                                  #                COMPLETION OF THE TRANSFER PHASE INITIATION (TPI) PROGRAM
000342:                                                                                                  #                (P34/P74) AND IS PRESENTLY AVAILABLE IN STORAGE.


000344:                                                                                                  #        (6)     ONCE THE PARAMETERS REQUIRED FOR COMPUTION OF THE MANEUVER
000345:                                                                                                  #                HAVE BEEN COMPLETELY SPECIFIED, THE VALUE OF THE ACTIVE
000346:                                                                                                  #                VEHICLE CENTRAL ANGLE OF TRANSFER IS COMPUTED AND STORED.
000347:                                                                                                  #                THIS NUMBER WILL BE AVAILABLE FOR DISPLAY TO THE ASTRONAUT
000348:                                                                                                  #                THROUGH THE USE OF V06N52.
000349:
000350:                                                                                                  #                THE ASTRONAUT WILL CALL THIS DISPLAY TO VERIFY THAT THE
000351:                                                                                                  #                CENTRAL ANGLE OF TRANSFER OF THE ACTIVE VEHICLE IS NOT WITHIN
000352:                                                                                                  #                170 TO 190 DEGREES.  IF THE ANGLE IS WITHIN THIS ZONE THE
000353:                                                                                                  #                ASTRONAUT SHOULD REASSESS THE INPUT TARGETING PARAMETERS BASED
000354:                                                                                                  #                UPON DELTA V AND EXPECTED MANEUVER TIME.
000355:                                                                                                  #        (7)     THIS PROGRAM IS SELECTED BY THE ASTRONAUT BY DSKY ENTRY -
000356:
000357:                                                                                                  #                        P35 IF THIS VEHICLE IS ACTIVE VEHICLE.
000358:
000359:                                                                                                  #                        P75 IF THIS VEHICLE IS PASSIVE VEHICLE.
000360:
000361:                                                                                                  #  INPUT
000362:                                                                                                  #        (1)     TPASS4          TIME OF INTERCEPT - SAVED FROM P34/P74
000363:
000364:                                                                                                  #  OUTPUT
000365:                                                                                                  #        (1)     TRKMKCNT        NUMBER OF MARKS
000366:                                                                                                  #        (2)     TTOGO           TIME TO GO
000367:                                                                                                  #        (3)     +MGA            MIDDLE GIMBAL ANGLE
000368:                                                                                                  #        (4)     DVLOS           DELTA VELOCITY AT MID - LINE OF SIGHT
000369:                                                                                                  #        (5)     DELVLVC         DELTA VELOCITY AT MID - LOCAL VERTICAL COORDINATES
000370:
000371:                                                                                                  #  DOWNLINK
000372:                                                                                                  #        (1)     TIG             TIME OF THE TPM MANEUVER
000373:                                                                                                  #        (2)     DELVEET3        DELTA VELOCITY AT TPM - REFERENCE COORDINATES
000374:                                                                                                  #        (3)     TPASS4          TIME OF INTERCEPT
000375:
000376:                                                                                                  #  COMMUNICATION TO THRUSTING PROGRAMS
000377:                                                                                                  #        (1)     TIG             TIME OF THE TPM MANEUVER
000378:                                                                                                  #        (2)     RTARG           OFFSET TARGET POSITION
000379:                                                                                                  #        (3)     TPASS4          TIME OF INTERCEPT
000380:                                                                                                  #        (4)     XDELVFLG        RESET TO INDICATE LAMBERT (AIMPOINT) VG COMPUTATION
000381:
000382:                                                                                                  #  SUBROUTINES USED
000383:                                                                                                  #        AVFLAGA
000384:                                                                                                  #        AVFLAGP
000385:                                                                                                  #        LOADTIME
000386:                                                                                                  #        SELECTMU
000387:                                                                                                  #        PRECSET
000388:                                                                                                  #        S34/35.1
000389:                                                                                                  #        S34/35.2


000391:                                                                                                  #        S34/35.5
000392:                                                                                                  #        VN1645
000393:
000394: 35,2635                                           COUNT*   $$/P3575
000395: 35,2635  E7,1575                                  EBANK=   KT
000396:
000397: 35,2635           02354        P35                TC       AVFLAGA
000398: 35,2636           00006                           EXTEND
000399: 35,2637           31401                           DCA      ATIGINC
000400: 35,2640           02644                           TC       P35/P75A
000401: 35,2641           02361        P75                TC       AVFLAGP
000402: 35,2642           00006                           EXTEND
000403: 35,2643           31403                           DCA      PTIGINC
000404: 35,2644           53576        P35/P75A           DXCH     KT
000405: 35,2645           02366                           TC       P20FLGON                              #  SET UPDATFLG, TRACKFLG
000406: 35,2646           06042                           TC       INTPRET
000407: 35,2647           77624                           CALL
000408: 35,2650           20000                                    SELECTMU
000409: 35,2651           77634        P35/P75B           RTB
000410: 35,2652           21574                                    LOADTIME
000411: 35,2653           03612                           STORE    TSTRT
000412: 35,2654           77615                           DAD
000413: 35,2655           03576                                    KT
000414: 35,2656           03442                           STORE    TIG
000415: 35,2657           03610                           STORE    INTIME                                #  FOR INITVEL
000416: 35,2660           34041                           STCALL   TDEC1
000417: 35,2661           46403                                    PRECSET                               #  ADVANCE BOTH VEHICLES
000418: 35,2662           77624                           CALL
000419: 35,2663           73204                                    S34/35.1                              #  GET NORM AND LOS FOR TRANSFORM
000420: 35,2664           77624                           CALL
000421: 35,2665           73216                                    S34/35.2                              #  GET DELTA V(LV)
000422: 35,2666           77624                           CALL
000423: 35,2667           73432                                    S34/35.5
000424: 35,2670           77624                           CALL
000425: 35,2671           73515                                    VN1645
000426: 35,2672           77650                           GOTO
000427: 35,2673           72651                                    P35/P75B


000429:                                                                                                  #  ..... S33/34.1 .....
000430:
000431: 35,2674           66220        S33/34.1           STQ      SSP
000432: 35,2675           03463                                    NORMEX
000433: 35,2676           03614                                    TITER
000434: 35,2677           40000                           OCT      40000
000435: 35,2700           40345                           DLOAD    SETPD
000436: 35,2701           33643                                    MAX250
000437: 35,2702           00001                                    0D
000438: 35,2703           27574                           STOVL    SECMAX
000439: 35,2704           03536                                    RACT3
000440: 35,2705           27500                           STOVL    RAPREC
000441: 35,2706           03544                                    VACT3
000442: 35,2707           27506                           STOVL    VAPREC
000443: 35,2710           03552                                    RPASS3
000444: 35,2711           27522                           STOVL    RPPREC
000445: 35,2712           03560                                    VPASS3
000446: 35,2713           03530                           STORE    VPPREC
000447: 35,2714           77624        ELCALC             CALL
000448: 35,2715           73204                                    S34/35.1                              #  NORMAL AND LOS
000449: 35,2716           63235                           VXV      PDVL
000450: 35,2717           03536                                    RACT3                                 #  (RA*VA)*RA 0D
000451: 35,2720           53515                           PDVL     UNIT                                  #  ULOS AT 6D
000452: 35,2721           03536                                    RACT3
000453: 35,2722           46315                           PDVL     VPROJ                                 #  XCHNJ AND UP
000454: 35,2723           51352                           VSL2     BVSU
000455: 35,2724           02311                                    ULOS
000456: 35,2725           63256                           UNIT     PDVL                                  #  UP AT 0D
000457: 35,2726           63241                           DOT      PDVL                                  #  UP.UN*RA AT 0D
000458: 35,2727           00001                                    0D                                    #  UP IN MPAC
000459: 35,2730           75241                           DOT      SIGN
000460: 35,2731           02311                                    ULOS
000461: 35,2732           65552                           SL1      ACOS
000462: 35,2733           50315                           PDVL     DOT                                   #  EA AT 0D
000463: 35,2734           02311                                    ULOS
000464: 35,2735           03536                                    RACT3
000465: 35,2736           71244                           BPL      DLOAD
000466: 35,2737           72742                                    TESTY
000467: 35,2740           06532                                    DPPOSMAX
000468: 35,2741           41425                           DSU      PUSH
000469: 35,2742           71214        TESTY              BOFF     DLOAD
000470: 35,2743           03740                                    ITSWICH
000471: 35,2744           73171                                    ELEX
000472: 35,2745           03576                                    DELEL
000473: 35,2746           14033                           STODL    DELELO
000474: 35,2747           77625                           DSU
000475: 35,2750           02257                                    ELEV
000476: 35,2751           03576                           STORE    DELEL
000477: 35,2752           45246                           ABS      DSU
000478: 35,2753           33647                                    ELEPS


000480: 35,2754           77640                           BMN
000481: 35,2755           73201                                    TIMEX                                 #  COMMERCIALS EVERYWHERE
000482: 35,2756           70535        FIGTIME            SLOAD    SR1
000483: 35,2757           03614                                    TITER
000484: 35,2760           72030                           BHIZ     LXA,1
000485: 35,2761           03463                                    NORMEX                                #  TOO MANY ITERATIONS
000486: 35,2762           00154                                    MPAC
000487: 35,2763           77330                           SXA,1    VLOAD
000488: 35,2764           03613                                    TITER
000489: 35,2765           03552                                    RPASS3
000490: 35,2766           65256                           UNIT     PDDL
000491: 35,2767           00045                                    36D
000492: 35,2770           53515                           PDVL     UNIT
000493: 35,2771           03536                                    RACT3
000494: 35,2772           77725                           PDDL
000495: 35,2773           41525                           PDDL     PUSH
000496: 35,2774           00045                                    36D
000497: 35,2775           77621                           BDSU
000498: 35,2776           00015                                    12D
000499: 35,2777           14037                           STODL    30D                                   #  RP-RA MAGNITUDES
000500: 35,3000           06522                                    DPHALF
000501: 35,3001           41425                           DSU      PUSH
000502: 35,3002           02257                                    ELEV
000503: 35,3003           50165                           SIGN     BMN
000504: 35,3004           00037                                    30D
000505: 35,3005           03463                                    NORMEX
000506: 35,3006           71545                           DLOAD    COS
000507: 35,3007           56205                           DMP      DDV
000508: 35,3010           00017                                    14D
000509: 35,3011           00015                                    12D
000510: 35,3012           77676                           DCOMP                                          #  SINCE COS(180-A)=-COS A
000511: 35,3013           00035                           STORE    28D
000512: 35,3014           44246                           ABS      BDSU
000513: 35,3015           06522                                    DPHALF
000514: 35,3016           77240                           BMN      VLOAD
000515: 35,3017           03463                                    NORMEX
000516: 35,3020           02261                                    UNRM
000517: 35,3021           53435                           VXV      UNIT
000518: 35,3022           00007                                    6D                                    #  UN*RA
000519: 35,3023           41241                           DOT      DMP
000520: 35,3024           03544                                    VACT3
000521: 35,3025           00015                                    12D
000522: 35,3026           47315                           PDVL     VXV
000523: 35,3027           00001                                    0D
000524: 35,3030           03560                                    VPASS3
000525: 35,3031           53435                           VXV      UNIT
000526: 35,3032           00001                                    0D                                    #  (RP*VP)*RP
000527: 35,3033           41241                           DOT      DMP
000528: 35,3034           03560                                    VPASS3
000529: 35,3035           00017                                    14D


000531: 35,3036           77621                           BDSU
000532: 35,3037           63301                           NORM     PDVL                                  #  NORMALIZED WA-WP 12D
000533: 35,3040           00047                                    X1
000534: 35,3041           00007                                    6D
000535: 35,3042           50235                           VXV      DOT
000536: 35,3043           00001                                    0D
000537: 35,3044           02261                                    UNRM                                  #  RA*RP.UN 14D
000538: 35,3045           50315                           PDVL     DOT
000539: 35,3046           00001                                    0D
000540: 35,3047           00007                                    6D
000541: 35,3050           65552                           SL1      ACOS
000542: 35,3051           77765                           SIGN
000543: 35,3052           43225                           DSU      DAD                                   #  ALPHA PI
000544: 35,3053           06522                                    DPHALF
000545: 35,3054           02257                                    ELEV
000546: 35,3055           65525                           PDDL     ACOS
000547: 35,3056           00035                                    28D
000548: 35,3057           75221                           BDSU     SIGN
000549: 35,3060           06522                                    DPHALF
000550: 35,3061           00037                                    30D                                   #  CONTAINS RP-RA
000551: 35,3062           77615                           DAD
000552: 35,3063           56205                           DMP      DDV
000553: 35,3064           33641                                    TWOPI
000554: 35,3065           77605                           DMP
000555: 35,3066           41257                           SL*      DMP
000556: 35,3067           20176                                    0          -3,1
000557: 35,3070           51406                           PUSH     ABS
000558: 35,3071           50025                           DSU      BMN
000559: 35,3072           03574                                    SECMAX
000560: 35,3073           73077                                    OKMAX
000561: 35,3074           75345                           DLOAD    SIGN                                  #  REPLACE TIME WITH MAX TIME SIGNED
000562: 35,3075           03574                                    SECMAX
000563: 35,3076           77606                           PUSH
000564: 35,3077           51135        OKMAX              SLOAD    BPL                                   #  TEST FIRST ITERATION
000565: 35,3100           03614                                    TITER
000566: 35,3101           73107                                    REPETE
000567: 35,3102           71331                           SSP      DLOAD
000568: 35,3103           03614                                    TITER
000569: 35,3104           37777                           OCT      37777
000570: 35,3105           77650                           GOTO
000571: 35,3106           73145                                    STORDELT
000572: 35,3107           41345        REPETE             DLOAD    DMP
000573: 35,3110           03576                                    DELEL
000574: 35,3111           00033                                    DELELO
000575: 35,3112           71244                           BPL      DLOAD
000576: 35,3113           73123                                    NEXTES
000577: 35,3114           03574                                    SECMAX
000578: 35,3115           77605                           DMP
000579: 35,3116           33645                                    THIRD
000580: 35,3117           17574                           STODL    SECMAX


000582: 35,3120           70446                           ABS      SR1                                   #  CROSSED OVER SOLUTION
000583: 35,3121           52076                           DCOMP    GOTO                                  #  DT=(-SIGN(DTO)//DT//)/2
000584: 35,3122           73133                                    RESIGN
000585: 35,3123           51545        NEXTES             DLOAD    ABS
000586: 35,3124           03576                                    DELEL
000587: 35,3125           51525                           PDDL     ABS
000588: 35,3126           00033                                    DELELO
000589: 35,3127           77625                           DSU
000590: 35,3130           71240                           BMN      DLOAD
000591: 35,3131           73136                                    REVERS                                #  WRONG DIRECTION
000592: 35,3132           77646                           ABS
000593: 35,3133           52165        RESIGN             SIGN     GOTO
000594: 35,3134           03606                                    DELTEEO
000595: 35,3135           73145                                    STORDELT
000596: 35,3136           57545        REVERS             DLOAD    DCOMP
000597: 35,3137           03606                                    DELTEEO
000598: 35,3140           70406                           PUSH     SR1
000599: 35,3141           03606                           STORE    DELTEEO
000600: 35,3142           77615                           DAD
000601: 35,3143           77650                           GOTO
000602: 35,3144           73146                                    ADTIME
000603: 35,3145           03606        STORDELT           STORE    DELTEEO
000604: 35,3146           77615        ADTIME             DAD
000605: 35,3147           02317                                    NOMTPI                                #  SUM OF DELTA T:S
000606: 35,3150           02317                           STORE    NOMTPI
000607: 35,3151           63375                           VLOAD    PDVL
000608: 35,3152           03506                                    VAPREC
000609: 35,3153           03500                                    RAPREC
000610: 35,3154           77624                           CALL
000611: 35,3155           73372                                    GOINT
000612: 35,3156           77624                           CALL
000613: 35,3157           46425                                    ACTIVE                                #  STORE NEW RACT3 VACT3
000614: 35,3160           63375                           VLOAD    PDVL
000615: 35,3161           03530                                    VPPREC
000616: 35,3162           03522                                    RPPREC
000617: 35,3163           77624                           CALL
000618: 35,3164           73372                                    GOINT
000619: 35,3165           77624                           CALL
000620: 35,3166           46435                                    PASSIVE                               #  STORE NEW RPASS3 VPASS3
000621: 35,3167           77650                           GOTO
000622: 35,3170           72714                                    ELCALC
000623: 35,3171           43345        ELEX               DLOAD    DAD
000624: 35,3172           03636                                    TTPI
000625: 35,3173           02317                                    NOMTPI
000626: 35,3174           17636                           STODL    TTPI
000627: 35,3175           77614                           BON
000628: 35,3176           01310                                    ETPIFLAG
000629: 35,3177           73201                                    TIMEX
000630: 35,3200           02257                           STORE    ELEV
000631: 35,3201           52145        TIMEX              DLOAD    GOTO


000633: 35,3202           06524                                    ZEROVECS
000634: 35,3203           03463                                    NORMEX
000635:


000637:                                                                                                  #  ..... S34/35.1 .....
000638:
000639:                                                                                                  #  COMPUTE UNIT NORMAL AND LINE OF SIGHT VECTORS GIVEN THE ACTIVE AND
000640:                                                                                                  #  PASSIVE POS AND VEL AT TIME T3
000641:
000642: 35,3204           52375        S34/35.1           VLOAD    VSU
000643: 35,3205           03552                                    RPASS3
000644: 35,3206           03536                                    RACT3
000645: 35,3207           41456                           UNIT     PUSH
000646: 35,3210           26311                           STOVL    ULOS
000647: 35,3211           03536                                    RACT3
000648: 35,3212           53435                           VXV      UNIT
000649: 35,3213           03544                                    VACT3
000650: 35,3214           02261                           STORE    UNRM
000651: 35,3215           77616                           RVQ
000652:


000654:                                                                                                  #  ..... S34/35.2 .....
000655:
000656:                                                                                                  #  ADVANCE PASSIVE VEH TO RENDEZVOUS TIME AND GET REQ VEL FROM LAMBERT
000657:
000658: 35,3216           77220        S34/35.2           STQ      VLOAD
000659: 35,3217           03470                                    SUBEXIT
000660: 35,3220           03560                                    VPASS3
000661: 35,3221           65315                           PDVL     PDDL
000662: 35,3222           03552                                    RPASS3
000663: 35,3223           03610                                    INTIME
000664: 35,3224           65325                           PDDL     PDDL
000665: 35,3225           03631                                    TPASS4
000666: 35,3226           33641                                    TWOPI                                 #  CONIC
000667: 35,3227           46125                           PDDL     BHIZ
000668: 35,3230           03467                                    NN
000669: 35,3231           73235                                    S3435.23
000670: 35,3232           77745                           DLOAD
000671: 35,3233           41545                           DLOAD    PUSH
000672: 35,3234           06524                                    ZEROVECS                              #  PRECISION
000673: 35,3235           77624        S3435.23           CALL
000674: 35,3236           73376                                    INTINT                                #  GET TARGET VECTOR
000675: 35,3237           27444        S3435.25           STOVL    RTARG
000676: 35,3240           00007                                    VATT
000677: 35,3241           27506                           STOVL    VPASS4
000678: 35,3242           03444                                    RTARG
000679:                                                                                                  #  COMPUTE PHI = PI + (ACOS(UNIT RA.UNIT RP) - PI) SIGN(RA*RP.U)
000680: 35,3243           63256                           UNIT     PDVL                                  #  UNIT RP
000681: 35,3244           03536                                    RACT3
000682: 35,3245           41456                           UNIT     PUSH                                  #  UNIT RA
000683: 35,3246           50235                           VXV      DOT
000684: 35,3247           00001                                    0D
000685: 35,3250           02261                                    UNRM                                  #  RA*RP.U
000686: 35,3251           77715                           PDVL
000687: 35,3252           72441                           DOT      SL1                                   #  UNIT RA.UNIT RP
000688: 35,3253           00001                                    0D
000689: 35,3254           75326                           ACOS     SIGN
000690: 35,3255           43244                           BPL      DAD
000691: 35,3256           73260                                    NOPIE
000692: 35,3257           06532                                    DPPOSMAX                              #  REASONABLE TWO PI
000693: 35,3260           15756        NOPIE              STODL    ACTCENT
000694: 35,3261           03631                                    TPASS4
000695: 35,3262           77625                           DSU
000696: 35,3263           03610                                    INTIME
000697: 35,3264           03452                           STORE    DELLT4
000698: 35,3265           40335                           SLOAD    SETPD
000699: 35,3266           03467                                    NN                                    #  NUMBER OF OFFSETS
000700: 35,3267           00001                                    0D
000701: 35,3270           63325                           PDDL     PDVL
000702: 35,3271           33653                                    EPSFOUR
000703: 35,3272           03536                                    RACT3
000704: 35,3273           26323                           STOVL    RINIT


000706: 35,3274           03544                                    VACT3
000707: 35,3275           36331                           STCALL   VINIT
000708: 35,3276           22000                                    INITVEL
000709: 35,3277           77624                           CALL
000710: 35,3300           73357                                    LOMAT
000711: 35,3301           64375                           VLOAD    MXV
000712: 35,3302           02366                                    DELVEET3
000713: 35,3303           00001                                    0D
000714: 35,3304           77772                           VSL1
000715: 35,3305           37434                           STCALL   DELVLVC
000716: 35,3306           03470                                    SUBEXIT
000717:


000719:                                                                                                  #  ..... S34/35.3 .....
000720:
000721: 35,3307           45020        S34/35.3           STQ      CALL
000722: 35,3310           03463                                    NORMEX
000723: 35,3311           73357                                    LOMAT                                 #  GET MATRIX IN PUSH LIST
000724: 35,3312           61375                           VLOAD    VXM
000725: 35,3313           03434                                    DELVLVC                               #  NEW DEL V TPI
000726: 35,3314           00001                                    0D
000727: 35,3315           77772                           VSL1
000728: 35,3316           02366                           STORE    DELVEET3                              #  SAVE FOR TRANSFORM
000729: 35,3317           63255                           VAD      PDVL
000730: 35,3320           03544                                    VACT3                                 #  NEW V REQ
000731: 35,3321           03536                                    RACT3
000732: 35,3322           65325                           PDDL     PDDL
000733: 35,3323           03442                                    TIG
000734: 35,3324           03631                                    TPASS4
000735: 35,3325           41525                           PDDL     PUSH
000736: 35,3326           06532                                    DPPOSMAX
000737: 35,3327           77624                           CALL                                           #  INTEG. FOR NEW TARGET VEC
000738: 35,3330           73376                                    INTINT
000739: 35,3331           77775                           VLOAD
000740: 35,3332           00001                                    RATT
000741: 35,3333           03444                           STORE    RTARG
000742: 35,3334           41575        NOVRWRT            VLOAD    PUSH
000743: 35,3335           02311                                    ULOS
000744: 35,3336           57435                           VXV      VCOMP
000745: 35,3337           02261                                    UNRM
000746: 35,3340           41456                           UNIT     PUSH
000747: 35,3341           76435                           VXV      VSL1
000748: 35,3342           02311                                    ULOS
000749: 35,3343           77715                           PDVL
000750: 35,3344           64315                           PDVL     MXV
000751: 35,3345           02366                                    DELVEET3
000752: 35,3346           00001                                    0D
000753: 35,3347           77772                           VSL1
000754: 35,3350           36303                           STCALL   DVLOS
000755: 35,3351           03463                                    NORMEX
000756:


000758:                                                                                                  #  ..... S34/35.4 .....
000759:
000760: 35,3352           40220        S34/35.4           STQ      SETPD                                 #  NO ASTRONAUT OVERWRITE
000761: 35,3353           03463                                    NORMEX
000762: 35,3354           00001                                    0D
000763: 35,3355           77650                           GOTO
000764: 35,3356           73334                                    NOVRWRT
000765:


000767:                                                                                                  #  ..... LOMAT .....
000768:
000769: 35,3357           57575        LOMAT              VLOAD    VCOMP
000770: 35,3360           02261                                    UNRM
000771: 35,3361           24007                           STOVL    6D                                    #  Y
000772: 35,3362           03536                                    RACT3
000773: 35,3363           57456                           UNIT     VCOMP
000774: 35,3364           00015                           STORE    12D
000775: 35,3365           76435                           VXV      VSL1
000776: 35,3366           02261                                    UNRM                                  #  Z*-Y
000777: 35,3367           00001                           STORE    0D
000778: 35,3370           43401                           SETPD    RVQ
000779: 35,3371           00023                                    18D
000780: 35,3372           65325        GOINT              PDDL     PDDL                                  #  DO
000781: 35,3373           06524                                    ZEROVECS                              #        NOT
000782: 35,3374           02317                                    NOMTPI
000783: 35,3375           41406                           PUSH     PUSH                                  #                ORDER OR INSERT BEFORE INTINT
000784: 35,3376           45020        INTINT             STQ      CALL
000785: 35,3377           03465                                    RTRN
000786: 35,3400           27410                                    INTSTALL
000787: 35,3401           71214                           CLEAR    DLOAD
000788: 35,3402           01673                                    INTYPFLG
000789: 35,3403           43054                           BZE      SET
000790: 35,3404           73406                                    +2
000791: 35,3405           01473                                    INTYPFLG
000792: 35,3406           45545                           DLOAD    STADR
000793: 35,3407           63736                           STODL    TDEC1
000794: 35,3410           73014                           SET      LXA,2
000795: 35,3411           00063                                    MOONFLAG
000796: 35,3412           02777                                    RTX2
000797: 35,3413           43014                           BON      CLEAR
000798: 35,3414           04303                                    CMOONFLG
000799: 35,3415           73417                                    ALLSET
000800: 35,3416           00263                                    MOONFLAG
000801: 35,3417           25517        ALLSET             STOVL    TET
000802: 35,3420           77657                           VSR*
000803: 35,3421           57176                                    0,2
000804: 35,3422           25535                           STOVL    RCV
000805: 35,3423           77657                           VSR*
000806: 35,3424           57176                                    0,2
000807: 35,3425           35543                           STCALL   VCV
000808: 35,3426           27106                                    INTEGRVS
000809: 35,3427           52175                           VLOAD    GOTO
000810: 35,3430           00001                                    RATT
000811: 35,3431           03465                                    RTRN
000812:


000814:                                                                                                  #  ..... S34/35.5 .....
000815:
000816:                                                                                                  #  SUBROUTINES USED
000817:                                                                                                  #        BANKCALL
000818:                                                                                                  #        GOFLASH
000819:                                                                                                  #        GOTOPOOH
000820:                                                                                                  #        S34/35.3
000821:                                                                                                  #        S34/35.4
000822:                                                                                                  #        VNPOOH
000823:
000824: 35,3432           43020        S34/35.5           STQ      BON
000825: 35,3433           03470                                    SUBEXIT
000826: 35,3434           01311                                    FINALFLG
000827: 35,3435           73441                                    FLAGON
000828: 35,3436           52014                           SET      GOTO
000829: 35,3437           00470                                    UPDATFLG
000830: 35,3440           73505                                    FLAGOFF
000831: 35,3441           77214        FLAGON             CLEAR    VLOAD
000832: 35,3442           03274                                    NTARGFLG
000833: 35,3443           03434                                    DELVLVC
000834: 35,3444           01236                           STORE    GDT/2
000835: 35,3445           77776                           EXIT
000836: 35,3446           33636                 +5        CAF      V06N81
000837: 35,3447           04616                           TC       BANKCALL
000838: 35,3450           20477                           CADR     GOFLASH
000839: 35,3451           06001                           TC       GOTOPOOH
000840: 35,3452           03454                           TC       +2                                    #  PRO
000841: 35,3453           03446                           TC       FLAGON     +5                         #  LOAD
000842: 35,3454           35016                 +2        CA       EBANK7
000843: 35,3455           54003                           TS       EBANK                                 #  TO BE SURE
000844:
000845: 35,3456           22007                           ZL
000846: 35,3457           34756                           CA       FIVE
000847: 35,3460           54002        NTARGCHK           TS       Q
000848: 35,3461           50002                           INDEX    Q
000849: 35,3462           41433                           CS       DELVLVC
000850: 35,3463           50002                           INDEX    Q
000851: 35,3464           61235                           AD       GDT/2
000852: 35,3465           26001                           ADS      L
000853: 35,3466           10002                           CCS      Q
000854: 35,3467           13460                           TCF      NTARGCHK
000855: 35,3470           22000                           LXCH     A
000856: 35,3471           00006                           EXTEND
000857: 35,3472           13475                           BZF      +3
000858: 35,3473           05504                           TC       UPFLAG
000859: 35,3474           00146                           ADRES    NTARGFLG
000860:
000861: 35,3475           06042                           TC       INTPRET
000862: 35,3476           45014                           BOFF     CALL
000863: 35,3477           03354                                    NTARGFLG


000865: 35,3500           73502                                    NOCHG
000866: 35,3501           73307                                    S34/35.3
000867: 35,3502           77775        NOCHG              VLOAD
000868: 35,3503           02366                                    DELVEET3
000869: 35,3504           03656                           STORE    DELVSIN
000870: 35,3505           77624        FLAGOFF            CALL
000871: 35,3506           73352                                    S34/35.4
000872: 35,3507           77776                           EXIT
000873: 35,3510           33635                           CAF      V06N59
000874: 35,3511           03621                           TC       VNPOOH
000875: 35,3512           06042                           TC       INTPRET
000876: 35,3513           77650                           GOTO
000877: 35,3514           03470                                    SUBEXIT
000878:


000880:                                                                                                  #  ..... VN1645 .....
000881:
000882:                                                                                                  #  SUBROUTINES USED
000883:                                                                                                  #        P3XORP7X
000884:                                                                                                  #        GET+MGA
000885:                                                                                                  #        BANKCALL
000886:                                                                                                  #        DELAYJOB
000887:                                                                                                  #        COMPTGO
000888:                                                                                                  #        GOFLASHR
000889:                                                                                                  #        GOTOPOOH
000890:                                                                                                  #        FLAGUP
000891:
000892: 35,3515           71220        VN1645             STQ      DLOAD
000893: 35,3516           03470                                    SUBEXIT
000894: 35,3517           33651                                    DP-.01
000895: 35,3520           02253                           STORE    +MGA                                  #  MGA = -.01
000896: 35,3521           71214                           BOFF     DLOAD
000897: 35,3522           01351                                    FINALFLG
000898: 35,3523           73543                                    GET45
000899: 35,3524           33651                                    DP-.01
000900: 35,3525           77615                           DAD
000901: 35,3526           33651                                    DP-.01
000902: 35,3527           02253                           STORE    +MGA                                  #  MGA = -.02
000903: 35,3530           77414                           BOFF     EXIT
000904: 35,3531           01742                                    REFSMFLG
000905: 35,3532           73543                                    GET45
000906: 35,3533           03613                           TC       P3XORP7X
000907: 35,3534           03536                           TC       +2                                    #  P3X
000908: 35,3535           03544                           TC       GET45      +1                         #  P7X
000909: 35,3536           06042                           TC       INTPRET
000910: 35,3537           41575                           VLOAD    PUSH
000911: 35,3540           03656                                    DELVSIN
000912: 35,3541           77624                           CALL                                           #  COMPUTE MGA
000913: 35,3542           15725                                    GET+MGA
000914: 35,3543           77776        GET45              EXIT
000915: 35,3544           02437                           TC       COMPTGO                               #  INITIATE TASK TO UPDATE TTOGO
000916: 35,3545           31470                           CA       SUBEXIT
000917: 35,3546           55464                           TS       QSAVED
000918: 35,3547           34777                           CAF      1SEC
000919: 35,3550           04616                           TC       BANKCALL
000920: 35,3551           01736                           CADR     DELAYJOB
000921: 35,3552           33637                           CAF      V16N45                                #  TRKMKCNT, TTOGO, +MGA
000922: 35,3553           04616                           TC       BANKCALL
000923: 35,3554           20477                           CADR     GOFLASH
000924: 35,3555           03560                           TC       KILCLOCK                              #  TERMINATE
000925: 35,3556           03563                           TC       N45PROC                               #  PROCEED
000926: 35,3557           03573                           TC       CLUPDATE                              #  RECYCLE - RETURN FOR INITIAL COMPUTATION
000927: 35,3560           30005        KILCLOCK           CA       Z
000928: 35,3561           55162                           TS       DISPDEX


000930: 35,3562           06001                           TC       GOTOPOOH
000931: 35,3563           40076        N45PROC            CS       FLAGWRD2
000932: 35,3564           74746                           MASK     BIT6
000933: 35,3565           00006                           EXTEND
000934: 35,3566           13560                           BZF      KILCLOCK                              #  FINALFLG IS SET - FLASH V37 - AWAIT NEW PGM
000935: 35,3567           05353                           TC       PHASCHNG
000936: 35,3570           04024                           OCT      04024
000937: 35,3571           05504                           TC       UPFLAG                                #  SET
000938: 35,3572           00047                           ADRES    FINALFLG                              #  FINALFLG
000939: 35,3573           30005        CLUPDATE           CA       Z
000940: 35,3574           55162                           TS       DISPDEX
000941: 35,3575           05353                           TC       PHASCHNG
000942: 35,3576           04024                           OCT      04024
000943: 35,3577           06042                           TC       INTPRET
000944: 35,3600           52014                           CLEAR    GOTO
000945: 35,3601           00670                                    UPDATFLG
000946: 35,3602           03464                                    QSAVED
000947:


000949:                                                                                                  #  ..... DISPLAYE .....
000950:
000951:                                                                                                  #  SUBROUTINES USED
000952:                                                                                                  #        BANKCALL
000953:                                                                                                  #        GOFLASHR
000954:                                                                                                  #        GOTOPOOH
000955:                                                                                                  #        BLANKET
000956:                                                                                                  #        ENDOFJOB
000957:
000958: 35,3603           00006        DISPLAYE           EXTEND
000959: 35,3604           23463                           QXCH     NORMEX
000960: 35,3605           33633                           CAF      V06N55
000961: 35,3606           04616                           TCR      BANKCALL
000962: 35,3607           20477                           CADR     GOFLASH
000963: 35,3610           16001                           TCF      GOTOPOOH
000964: 35,3611           01463                           TC       NORMEX
000965: 35,3612           13605                           TCF      -5
000966:


000968:                                                                                                  #  ..... P3XORP7X .....
000969:
000970: 35,3613           37747        P3XORP7X           CAF      HIGH9
000971: 35,3614           71010                           MASK     MODREG
000972: 35,3615           00006                           EXTEND
000973: 35,3616           13620                           BZF      +2
000974: 35,3617           24002                           INCR     Q
000975: 35,3620           00002                           RETURN
000976:
000977:                                                                                                  #  ..... VNPOOH .....
000978:
000979:                                                                                                  #  SUBROUTINES USED
000980:                                                                                                  #        BANKCALL
000981:                                                                                                  #        GOFLASH
000982:                                                                                                  #        GOTOPOOH
000983:
000984: 35,3621           00006        VNPOOH             EXTEND
000985: 35,3622           23465                           QXCH     RTRN
000986: 35,3623           55615                           TS       VERBNOUN
000987: 35,3624           31615                           CA       VERBNOUN
000988: 35,3625           04616                           TCR      BANKCALL
000989: 35,3626           20477                           CADR     GOFLASH
000990: 35,3627           16001                           TCF      GOTOPOOH
000991: 35,3630           01465                           TC       RTRN
000992: 35,3631           13624                           TCF      -5
000993:


000995:                                                                                                  #  ..... CONSTANTS .....
000996:
000997: 35,3632           01445        V06N37             VN       0637
000998: 35,3633           01467        V06N55             VN       0655
000999: 35,3634           01472        V06N58             VN       0658
001000: 35,3635           01473        V06N59             VN       0659
001001: 35,3636           01521        V06N81             VN       0681
001002: 35,3637           04055        V16N45             VN       1645
001003: 35,3640           14441 37325  TWOPI              2DEC     6.283185307 B-4
001004: 35,3642           00001 20650  MAX250             2DEC     25         E3
001005: 35,3644           12525 12525  THIRD              2DEC     .333333333
001006: 35,3646           00004 21505  ELEPS              2DEC     .27777777  E-3
001007: 35,3650           77777        DP-.01             OCT      77777                                 #  CONSTANTS
001008: 35,3651           61337                           OCT      61337                                 #  ADJACENT      -.01 FOR MGA DSP
001009: 35,3652           01252 25253  EPSFOUR            2DEC     .0416666666
001010: 35,3654           13434 16162  130DEG             2DEC     .3611111111
001011:


001013:                                                                                                  #  ..... INITVEL .....
001014:                                                                                                  #  MOD NO -1                     LOG SECTION - P34-P35, P74-P75
001015:                                                                                                  #  MOD BY WHITE.P                DATE   21 NOV 67
001016:
001017:                                                                                                  #  FUNCTIONAL DESCRIPTION
001018:                                                                                                  #        THIS SUBROUTINE COMPUTES THE REQUIRED INITIAL VELOCITY VECTOR FOR
001019:                                                                                                  #        A TRAJECTORY OF SPECIFIED TRANSFER TIME BETWEEN SPECIFIED INITIAL
001020:                                                                                                  #        AND TARGET POSITIONS.  THE TRAJECTORY MAY BE EITHER CONIC OR
001021:                                                                                                  #        PRECISION DEPENDING ON AN INPUT PARAMETER (NAMELY, NUMBER OF
001022:                                                                                                  #        OFFSETS).  IN ADDITION, IN TH EPRECISION TRAJECTORY CASE, THE
001023:                                                                                                  #        SUBROUTINE ALSO COMPUTES AN OFFSET TARGET VECTOR, TO BE USED
001024:                                                                                                  #        DURING PURE-CONIC CROSS-PRODUCT STEERING.  THE OFFSET TARGET
001025:                                                                                                  #        VECTOR IS THE TERMINAL POSITION VECTOR OF A CONIC TRAJECTORY WHICH
001026:                                                                                                  #        HAS THE SAME INITIAL STATE AS A PRECISION TRAJECTORY WHOSE
001027:                                                                                                  #        TERMINAL POSITION VECTOR IS THE SPECIFIED TARGET VECTOR.
001028:
001029:                                                                                                  #        IN ORDER TO AVOID THE INHERENT SINGULARITIES IN THE 180 DEGREE
001030:                                                                                                  #        TRANSFER CASE WHEN THE (TRUE OR OFFSET) TARGET VECTOR MAY BE
001031:                                                                                                  #        SLIGHTLYOUT OF THE ORBITAL PLANE, THIS SUBROUTINE ROTATES THIS
001032:                                                                                                  #        VECTOR INTO A PLANE DEFINED BY THE INPUT INITIAL POSITION VECTOR
001033:                                                                                                  #        AND ANOTHER INPUT VECTOR (USUALLY THE INITIAL VELOCITY VECTOR),
001034:                                                                                                  #        WHENEVER THE INPUT TARGET VECTOR LIES INSIDE A CONE WHOSE VERTEX
001035:                                                                                                  #        IS THE ORIGIN OF COORDINATES, WHOSE AXIS IS THE 180 DEGREE
001036:                                                                                                  #        TRANSFER DIRECTION, AND WHOSE CONE ANGLE IS SPECIFIED BY THE USER.
001037:
001038:                                                                                                  #        THE LAMBERT SUBROUTINE IS UTILIZED FOR THE CONIC COMPUTATIONS AND
001039:                                                                                                  #        THE COASTING INTEGRATION SUBROUTINE IS UTILIZED FOR THE PRECISION
001040:                                                                                                  #        TRAJECTORY COMPUTATIONS.
001041:
001042:                                                                                                  #  CALLING SEQUENCE
001043:                                                                                                  #        L       CALL
001044:                                                                                                  #        L+1             INITVEL
001045:                                                                                                  #        L+2     (RETURN - ALWAYS)
001046:
001047:                                                                                                  #  INPUT
001048:                                                                                                  #        (1)     RINIT           INITIAL POSITION RADIUS VECTOR
001049:                                                                                                  #        (2)     VINIT           INITIAL POSITION VELOCITY VECTOR
001050:                                                                                                  #        (3)     RTARG           TARGET POSITION RADIUS VECTOR
001051:                                                                                                  #        (4)     DELLT4          DESIRED TIME OF FLIGHT FROM RINIT TO RTARG
001052:                                                                                                  #        (5)     INTIME          TIME OF RINIT
001053:                                                                                                  #        (6)     0D              NUMBER OF ITERATIONS OF LAMBERT/INTEGRVS
001054:                                                                                                  #        (7)     2D              ANGLE TO 180 DEGREES WHEN ROTATION STARTS
001055:                                                                                                  #        (8)     RTX1            -2 FOR EARTH, -10D FOR LUNAR
001056:                                                                                                  #        (9)     RTX2            COORDINATE SYSTEM ORIGIN - 0 FOR EARTH, 2 FOR LUNAR
001057:                                                                                                  #        PUSHLOC SET AT 4D
001058:


001060:                                                                                                  #  OUTPUT
001061:                                                                                                  #        (1)     RTARG           OFFSET TARGET POSITION VECTOR
001062:                                                                                                  #        (2)     VIPRIME         MANEUVER VELOCITY REQUIRED
001063:                                                                                                  #        (3)     VTPRIME         VELOCITY AT TARGET AFTER MANEUVER
001064:                                                                                                  #        (4)     DELVEET3        DELTA VELOCITY REQUIRED FOR MANEUVER
001065:
001066:                                                                                                  #  SUBROUTINES USED
001067:                                                                                                  #        LAMBERT
001068:                                                                                                  #        INTSTALL
001069:                                                                                                  #        INTEGRVS
001070:
001071: 11,2000                                           SETLOC   INTVEL
001072: 11,2000                                           BANK
001073:
001074: 11,2000                                           COUNT*   $$/INITV
001075: 11,2000           77614        INITVEL            SET                                            #  COGA GUESS NOT AVAILABLE
001076: 11,2001           00475                                    GUESSW
001077: 11,2002           44175        HAVEGUES           VLOAD    STQ
001078: 11,2003           03444                                    RTARG
001079: 11,2004           03463                                    NORMEX
001080: 11,2005           03472                           STORE    RTARG1
001081: 11,2006           77646                           ABVAL
001082: 11,2007           03723                           STORE    RTMAG
001083: 11,2010           46135                           SLOAD    BHIZ
001084: 11,2011           03000                                    RTX2
001085: 11,2012           22026                                    INITVEL1
001086: 11,2013           72575                           VLOAD    VSL2
001087: 11,2014           02323                                    RINIT                                 #  B29
001088: 11,2015           26323                           STOVL    RINIT                                 #  B27
001089: 11,2016           02331                                    VINIT                                 #  B7
001090: 11,2017           77752                           VSL2
001091: 11,2020           26331                           STOVL    VINIT                                 #  B5
001092: 11,2021           03472                                    RTARG1
001093: 11,2022           77752                           VSL2
001094: 11,2023           03472                           STORE    RTARG1
001095: 11,2024           77646                           ABVAL
001096: 11,2025           03723                           STORE    RTMAG
001097:
001098:                                                                                                  #  INITIALIZATION
001099:
001100: 11,2026           71331        INITVEL1           SSP      DLOAD                                 #  SET ITCTR TO -1,LOAD MPAC WITH E4 (PL 2D)
001101: 11,2027           03617                                    ITCTR
001102: 11,2030           77776                                    0          -1
001103: 11,2031           70546                           COSINE   SR1                                   #  CALCULATE COSINE (E4) (+2)
001104: 11,2032           17667                           STODL    COZY4                                 #  SET COZY4 TO COSINE (E4) (PL 0D)
001105: 11,2033           67154                           LXA,2    SXA,2
001106: 11,2034           00154                                    MPAC
001107: 11,2035           02701                                    VTARGTAG                              #  SET VTARGTAG TO 0D (SP)
001108: 11,2036           77775                           VLOAD


001110: 11,2037           02323                                    RINIT
001111: 11,2040           26655                           STOVL    R1VEC                                 #  R1VEC EQ RINIT
001112: 11,2041           03472                                    RTARG1
001113: 11,2042           16663                           STODL    R2VEC                                 #  R2VEC EQ RTARG
001114: 11,2043           03452                                    DELLT4
001115: 11,2044           02671                           STORE    TDESIRED                              #  TDESIRED EQ DELLT4
001116: 11,2045           77201                           SETPD    VLOAD
001117: 11,2046           00001                                    0D                                    #  INITIALIZE PL TO 0D
001118: 11,2047           02323                                    RINIT                                 #  MPAC EQ RINIT (+29)
001119: 11,2050           41456                           UNIT     PUSH                                  #  UNIT(RI) (+1)         (PL 6D)
001120: 11,2051           53435                           VXV      UNIT
001121: 11,2052           02331                                    VINIT                                 #  MPAC EQ UNIT(RI) X VI (+8)
001122: 11,2053           26674                           STOVL    UN
001123: 11,2054           03472                                    RTARG1
001124: 11,2055           50256                           UNIT     DOT                                   #  TEMP=URT.URI (+2)     (PL 0D)
001125: 11,2056           43015                           DAD      CLEAR
001126: 11,2057           03667                                    COZY4
001127: 11,2060           03665                                    NORMSW
001128: 11,2061           03667                           STORE    COZY4
001129: 11,2062           43044        INITVEL2           BPL      SET
001130: 11,2063           22105                                    INITVEL3                              #  UN CALCULATED IN LAMBERT
001131: 11,2064           03465                                    NORMSW
001132:
001133:                                                                                                  #  ROTATE RC INTO YC PLANE - SET UNIT NORMAL TO YC
001134:
001135: 11,2065           41575                           VLOAD    PUSH                                  #                (PL 6D)
001136: 11,2066           02663                                    R2VEC                                 #  RC TO 6D (+29)
001137: 11,2067           63246                           ABVAL    PDVL                                  #  RC TO MPAC, ABVAL(RC) (+29) TO OD(PL 2D)
001138: 11,2070           46206                           PUSH     VPROJ                                 #                (PL 8D)
001139: 11,2071           02674                                    UN
001140: 11,2072           51352                           VSL2     BVSU
001141: 11,2073           74256                           UNIT     VXSC                                  #                (PL 0D)
001142: 11,2074           77772                           VSL1
001143: 11,2075           02663                           STORE    R2VEC
001144: 11,2076           67351                           TLOAD    SLOAD
001145: 11,2077           24007                                    ZEROVEC
001146: 11,2100           03617                                    ITCTR
001147: 11,2101           77244                           BPL      VLOAD
001148: 11,2102           22105                                    INITVEL3
001149: 11,2103           02663                                    R2VEC
001150: 11,2104           03472                           STORE    RTARG1
001151: 11,2105           63345        INITVEL3           DLOAD    PDVL                                  #                                (PL 2D)
001152: 11,2106           26007                                    MUEARTH                               #  POSITIVE VALUE
001153: 11,2107           02663                                    R2VEC
001154: 11,2110           63256                           UNIT     PDVL                                  #  2D = UNIT(R2VEC)              (PL 8D)
001155: 11,2111           02655                                    R1VEC
001156: 11,2112           41456                           UNIT     PUSH                                  #  8D = UNIT(R1VEC)              (PL 14D)
001157: 11,2113           57435                           VXV      VCOMP                                 #  -N = UNIT(R2VEC) X UNIT(R1VEC)
001158: 11,2114           00003                                    2D
001159: 11,2115           77606                           PUSH                                           #                                (PL 20D)
001160: 11,2116           71350                           LXA,1    DLOAD


001162: 11,2117           02776                                    RTX1
001163: 11,2120           00023                                    18D
001164: 11,2121           62040                           BMN      INCR,1
001165: 11,2122           22124                                    +2
001166: 11,2123           77767                           DEC      -8         B-14
001167: 11,2124           67310                           INCR,1   SLOAD
001168: 11,2125           00012                                    10D
001169: 11,2126           00047                                    X1
001170: 11,2127           77230                           BHIZ     VLOAD                                 #                        (PL 14D)
001171: 11,2130           22132                                    +2
001172: 11,2131           41476                           VCOMP    PUSH                                  #                        (PL 20 D)
001173: 11,2132           77775                           VLOAD                                          #                        (PL 14D)
001174: 11,2133           50235                           VXV      DOT                                   #                        (PL 2D)
001175: 11,2134           71244                           BPL      DLOAD                                 #                        (PL 0D)
001176: 11,2135           22137                                    INITVEL4
001177: 11,2136           41476                           DCOMP    PUSH                                  #                        (PL 2D)
001178: 11,2137           67154        INITVEL4           LXA,2    SXA,2
001179: 11,2140           00000                                    0D
001180: 11,2141           02672                                    GEOMSGN
001181:
001182:                                                                                                  #  SET INPUTS UP FOR LAMBERT
001183:
001184: 11,2142           66350                           LXA,1    SSP
001185: 11,2143           02776                                    RTX1
001186: 11,2144           00027                                    ITERCTR
001187: 11,2145           00024                                    20D
001188:
001189:                                                                                                  #   OPERATE THE LAMBERT CONIC ROUTINE (COASTFLT SUBROUTINE)
001190:
001191: 11,2146           77624                           CALL
001192: 11,2147           25212                                    LAMBERT
001193:
001194:                                                                                                  #  ARRIVED AT SOLUTION IS GOOD ENOUGH ACCORDING TO SLIGHTLY WIDER BOUNDS.
001195:
001196: 11,2150           77214                           CLEAR    VLOAD
001197: 11,2151           00675                                    GUESSW
001198: 11,2152           02744                                    VVEC
001199:
001200:                                                                                                  #  STORE CALCULATED INITIAL VELOCITY REQUIRED IN VIPRIME
001201:
001202: 11,2153           16337                           STODL    VIPRIME                               #  INITIAL VELOCITY REQUIRED (+7)
001203:
001204:                                                                                                  #  IF NUMIT IS ZERO, CONTINUE AT INITVELB, OTHERWISE
001205:                                                                                                  #  SET UP INPUTS FOR ENCKE INTEGRATION (INTEGRVS).
001206:
001207: 11,2154           02702                                    VTARGTAG
001208: 11,2155           45030                           BHIZ     CALL
001209: 11,2156           22233                                    INITVEL7
001210: 11,2157           27410                                    INTSTALL
001211: 11,2160           43135                           SLOAD    CLEAR
001212: 11,2161           03000                                    RTX2
001213: 11,2162           00263                                    MOONFLAG
001214: 11,2163           43030                           BHIZ     SET


001216: 11,2164           22166                                    INITVEL5
001217: 11,2165           00063                                    MOONFLAG
001218: 11,2166           77775        INITVEL5           VLOAD
001219: 11,2167           02323                                    RINIT
001220: 11,2170           02655                           STORE    R1VEC
001221: 11,2171           25535                           STOVL    RCV
001222: 11,2172           02337                                    VIPRIME
001223: 11,2173           15543                           STODL    VCV
001224: 11,2174           03610                                    INTIME
001225: 11,2175           01517                           STORE    TET
001226: 11,2176           43015                           DAD      CLEAR
001227: 11,2177           03452                                    DELLT4
001228: 11,2200           01673                                    INTYPFLG
001229: 11,2201           34041                           STCALL   TDEC1
001230: 11,2202           27106                                    INTEGRVS
001231: 11,2203           77775                           VLOAD
001232: 11,2204           00025                                    VATT1
001233: 11,2205           02703                           STORE    VTARGET
001234:
001235:                                                                                                  #  IF ITERATION COUNTER (ITCTR) EQ NO. ITERATIONS (NUMIT), CONTINUE AT
001236:                                                                                                  #  INITVELC, OTHERWISE REITERATE LAMBERT AND ENCKE
001237:
001238: 11,2206           63154                           LXA,2    INCR,2
001239: 11,2207           03616                                    ITCTR
001240: 11,2210           00001                                    1D                                    #  INCREMENT ITCTR
001241: 11,2211           55134                           SXA,2    XSU,2
001242: 11,2212           03616                                    ITCTR
001243: 11,2213           02701                                    VTARGTAG
001244: 11,2214           46135                           SLOAD    BHIZ                                  #  IF SP(MPAC) EQ 0, CONTINUE AT INITVELC
001245: 11,2215           00050                                    X2
001246: 11,2216           22230                                    INITVEL6
001247:
001248:                                                                                                  #  OFFSET CONIC TARGET VECTOR
001249:
001250: 11,2217           52375                           VLOAD    VSU
001251: 11,2220           03472                                    RTARG1
001252: 11,2221           00017                                    RATT1
001253: 11,2222           77655                           VAD
001254: 11,2223           02663                                    R2VEC
001255: 11,2224           16663                           STODL    R2VEC
001256: 11,2225           03667                                    COZY4
001257: 11,2226           77650                           GOTO
001258: 11,2227           22062                                    INITVEL2                              #  CONTINUE ITERATING AT INITVEL2
001259:
001260:                                                                                                  #  COMPUTE THE DELTA VELOCITY
001261:
001262: 11,2230           77775        INITVEL6           VLOAD
001263: 11,2231           02663                                    R2VEC
001264: 11,2232           03472                           STORE    RTARG1
001265: 11,2233           52375        INITVEL7           VLOAD    VSU
001266: 11,2234           02337                                    VIPRIME
001267: 11,2235           02331                                    VINIT


001269: 11,2236           26366                           STOVL    DELVEET3                              #  DELVEET3 = VIPRIME-VINIT (+7)
001270: 11,2237           02703                                    VTARGET
001271: 11,2240           03566                           STORE    VTPRIME
001272: 11,2241           46135                           SLOAD    BHIZ
001273: 11,2242           03000                                    RTX2
001274: 11,2243           22260                                    INITVELX
001275: 11,2244           70575                           VLOAD    VSR2
001276: 11,2245           03566                                    VTPRIME
001277: 11,2246           27566                           STOVL    VTPRIME
001278: 11,2247           02337                                    VIPRIME
001279: 11,2250           77742                           VSR2
001280: 11,2251           26337                           STOVL    VIPRIME
001281: 11,2252           03472                                    RTARG1
001282: 11,2253           77742                           VSR2
001283: 11,2254           27472                           STOVL    RTARG1
001284: 11,2255           02366                                    DELVEET3
001285: 11,2256           77742                           VSR2
001286: 11,2257           02366                           STORE    DELVEET3
001287: 11,2260           70750        INITVELX           LXA,1    DLOAD*
001288: 11,2261           02776                                    RTX1
001289: 11,2262           10003                                    MUTABLE    -2,1
001290: 11,2263           41206                           PUSH     DMP
001291: 11,2264           02742                                    R1A
001292: 11,2265           56342                           SR1      DDV
001293: 11,2266           00041                                    R1
001294: 11,2267           17721                           STODL    MU/A
001295: 11,2270           77661                           SR
001296: 11,2271           20607                                    6
001297: 11,2272           03717                           STORE    MUASTEER
001298: 11,2273           77201                           SETPD    VLOAD
001299: 11,2274           00001                                    0D
001300: 11,2275           03472                                    RTARG1
001301: 11,2276           03444                           STORE    RTARG
001302: 11,2277           52014                           CLEAR    GOTO
001303: 11,2300           01267                                    XDELVFLG
001304: 11,2301           03463                                    NORMEX
001305:
001306:                                                                                                  #  ..... END OF INITVEL ROUTINE .....
001307:


001309:                                                                                                  #  ..... MIDGIM .....
001310:                                                                                                  #  MOD NO. 0, BY WILLMAN, SUBROUTINE RENDGUID, LOG P34-P35, P74-P75
001311:                                                                                                  #  REVISION 03, 17 FEB 67
001312:
001313:                                                                                                  #  IF THE ACTIVE VEHICLE IS DOING THE COMPUTATION, MIDGIM COMPUTES
001314:                                                                                                  #  THE POSITIVE MIDDLE GIMBAL ANGLE OF THE ACTIVE VEHICLE TO THE INPUT
001315:                                                                                                  #  DELTA VELOCITY VECTOR (0D IN PUSH LIST), OTHERWISE
001316:                                                                                                  #  MIDGIM CONVERTS THE INPUT DELTA VELOCITY VECTOR FROM INERTIAL COORDIN-
001317:                                                                                                  #  ATES TO LOCAL VERTICAL COORDINATES OF THE ACTIVE VEHICLE.
001318:
001319:                                                                                                  #  .. INPUTS ..
001320:                                                                                                  #        NAME    MEANING                                         UNITS/SCALING/MODE
001321:                                                                                                  #        AVFLAG  INT FLAG - 0 IS CSM ACTIVE, 1 IS LEM ACTIVE     BIT
001322:                                                                                                  #        RINIT   ACTIVE VEHICLE RADIUS VECTOR                    METERS/CSEC (+7) VT
001323:                                                                                                  #        VINIT   ACTIVE VEHICLE VELOCITY VECTOR                  METERS/CSEC (+7) VT
001324:                                                                                                  #        0D(PL)  ACTIVE VEHICLE DELTA VELOCITY VECTOR            METERS/CSEC (+7) VT
001325:
001326:                                                                                                  #  .. OUTPUTS ..
001327:                                                                                                  #     NAME       MEANING                                         UNITS/SCALING/MODE
001328:                                                                                                  #     +MGA       + MIDDLE GIMBAL ANGLE                           REVOLUTIONS (+0) DP
001329:                                                                                                  #     DELVLVC    DELTA VELOCITY VECTOR IN LV COORD.              METERS/CSEC (+7) VT
001330:                                                                                                  #     MGLVFLAG   INT FLAG - 0 IS +MGA COMPUTED, 1 IS DELVLVC COMP.   -   BIT
001331:
001332:                                                                                                  #  .. CALLING SEQUENCE ..
001333:                                                                                                  #        L       CALL
001334:                                                                                                  #        L+1             MIDGIM
001335:                                                                                                  #        L+2     (RETURN - ALWAYS)
001336:
001337:                                                                                                  #  .. NO SUBROUTINES CALLED ..
001338:
001339:                                                                                                  #  .. DEBRIS - ERASEABLE TEMPORARY USAGE
001340:                                                                                                  #        A,Q,L, PUSH LIST, MPAC.
001341:
001342:                                                                                                  #  .. ALARMS - NONE ..
001343:


001345:                                                                                                  #  MIDDLE GIMBAL ANGLE COMPUTATION.
001346:
001347: 06,2000                                           SETLOC   MIDDGIM
001348: 06,2000                                           BANK
001349:
001350: 06,3723                                           COUNT*   $$/MIDG
001351:
001352: 06,3723           20000 00000  HALFREV            2DEC     1          B-1
001353:
001354: 06,3725           53575        GET+MGA            VLOAD    UNIT                                  #  (PL 0D) V (+7) TO MPAC, UNITIZE UV (+1)
001355: 06,3726           77656                           UNIT
001356: 06,3727           72441                           DOT      SL1                                   #  DOT UV WITH Y(STABLE MEMBER) AND RESCALE
001357: 06,3730           01742                                    REFSMMAT   +6                         #  FROM +2 TO +1 FOR ASIN ROUTINE
001358: 06,3731           51136                           ARCSIN   BPL
001359: 06,3732           15736                                    SETMGA
001360: 06,3733           43215                           DAD      DAD                                   #  CONVERT -MGA TO +MGA BY
001361: 06,3734           15724                                    HALFREV                               #  ADDING ONE REVOLUTION
001362: 06,3735           15724                                    HALFREV
001363: 06,3736           02253        SETMGA             STORE    +MGA
001364: 06,3737           43414                           CLR      RVQ                                   #  CLEAR MGLVFLAG TO INDICATE +MGA CALC
001365: 06,3740           02675                                    MGLVFLAG                              #  AND EXIT
001366: 06,3741           53575        GET.LVC            VLOAD    UNIT                                  #  (PL 6D) R (+29) IN MPAC, UNITIZE UR
001367: 06,3742           02323                                    RINIT
001368: 06,3743           77676                           VCOMP                                          #  U(-R)
001369: 06,3744           00023                           STORE    18D                                   #  U(-R) TO 18D
001370: 06,3745           53435                           VXV      UNIT                                  #  U(-R)*V EQ V*U(R), U(V*R)
001371: 06,3746           02331                                    VINIT
001372: 06,3747           00015                           STORE    12D                                   #  U(V*R) TO 12D
001373: 06,3750           53435                           VXV      UNIT                                  #  U(V*R)*U(-R), U((V*R)*(-R))
001374: 06,3751           00023                                    18D
001375: 06,3752           24007                           STOVL    6D                                    #  TRANSFORMATION MATRIX IS IN 6D (+1)
001376: 06,3753           00001                                    0D                                    #  DELTA V (+7) IN 0D
001377: 06,3754           76521                           MXV      VSL1                                  #  CONVERT FROM INER COOR TO LV COOR (+8)
001378: 06,3755           00007                                    6D                                    #  AND SCALE +7 IN MPAC
001379: 06,3756           03434                           STORE    DELVLVC                               #  STORE IN DELVLVC (+7)
001380: 06,3757           43414                           SET      RVQ                                   #  SET MGLVFLAG TO INDICATE LVC CALC
001381: 06,3760           02475                                    MGLVFLAG                              #  AND EXIT
001382:
001383:                                                                                                  #  ..... END OF MIDGIM ROUTINE .....
001384:


001386: 10,2000                                           BANK     10
001387: 10,2000                                           SETLOC   SLCTMU
001388: 10,2000                                           BANK
001389: 10,2000                                           COUNT*   $$/MIDG
001390:
001391: 10,2000           77160        SELECTMU           AXC,1    AXT,2
001392: 10,2001           00002                                    2D
001393: 10,2002           00000                                    0D
001394: 10,2003           77614                           BOFF
001395: 10,2004           04343                                    CMOONFLG
001396: 10,2005           20011                                    SETMUER
001397: 10,2006           77160                           AXC,1    AXT,2
001398: 10,2007           00012                                    10D
001399: 10,2010           00002                                    2D
001400: 10,2011           66143        SETMUER            DLOAD*   SXA,1
001401: 10,2012           10011                                    MUTABLE    +4,1
001402: 10,2013           02776                                    RTX1
001403: 10,2014           22317                           STODL*   RTSR1/MU
001404: 10,2015           10003                                    MUTABLE    -2,1
001405: 10,2016           54214                           BOFF     SR
001406: 10,2017           04343                                    CMOONFLG
001407: 10,2020           20022                                    RTRNMU
001408: 10,2021           20607                                    6D
001409: 10,2022           02321        RTRNMU             STORE    RTMU
001410: 10,2023           43134                           SXA,2    CLEAR
001411: 10,2024           02777                                    RTX2
001412: 10,2025           01271                                    FINALFLG
001413: 10,2026           77650                           GOTO
001414: 10,2027           73515                                    VN1645
001415:


001417:                                                                                                  #  ..... PERIAPO .....
001418:                                                                                                  #  MOD NO -1                     LOG SECTION - P34-P35, P74-P75
001419:                                                                                                  #  MOD BY WHITE.P                DATE 18 JAN 68
001420:
001421:                                                                                                  #  FUNCTIONAL DESCRIPTION
001422:                                                                                                  #        THIS SUBROUTINE COMPUTES THE TWO BODY APOCENTER AND PERICENTER
001423:                                                                                                  #        ALTITUDES GIVEN THE POSITION AND VELOCITY VECTORS FOR A POINT ON
001424:                                                                                                  #        THE TRAJECTORY AND THE PRIMARY BODY.
001425:
001426:                                                                                                  #        SETRAD IS CALLED TO DETERMINE THE RADIUS OF THE PRIMARY BODY.
001427:
001428:                                                                                                  #        APSIDES IS CALLED TO SOLVE FOR THE TWO BODY RADII OF APOCENTER AND
001429:                                                                                                  #        PERICENTER AND THE ECCENTRICITY OF THE TRAJECTORY.
001430:
001431:                                                                                                  #  CALLING SEQUENCE
001432:                                                                                                  #        L       CALL
001433:                                                                                                  #        L+1             PERIAPO
001434:                                                                                                  #        L+2     (RETURN - ALWAYS)
001435:
001436:                                                                                                  #  INPUT
001437:                                                                                                  #        (1)     RVEC    POSITION VECTOR IN METERS
001438:                                                                                                  #                        SCALE FACTOR - EARTH +29, MOON +27
001439:                                                                                                  #        (2)     VVEC    VELOCITY VECTOR IN METERS/CENTISECOND
001440:                                                                                                  #                        SCALE FACTOR - EARTH +7, MOON +5
001441:                                                                                                  #        (3)     X1      PRIMARY BODY INDICATOR
001442:                                                                                                  #                        EARTH -2, MOON -10
001443:
001444:                                                                                                  #  OUTPUT
001445:                                                                                                  #        (1)     2D      APOCENTER RADIUS IN METERS
001446:                                                                                                  #                        SCALE FACTOR - EARTH +29, MOON +27
001447:                                                                                                  #        (2)     4D      APOCENTER ALTITUDE IN METERS
001448:                                                                                                  #                        SCALE FACTOR - EARTH +29, MOON P27
001449:                                                                                                  #        (3)     6D      PERICENTER RADIUS IN METERS
001450:                                                                                                  #                        SCALE FACTOR - EARTH +29, MOON +27
001451:                                                                                                  #        (4)     8D      PERICENTER ALTITUDE IN METERS
001452:                                                                                                  #                        SCALE FACTOR - EARTH +29, MOON +27
001453:                                                                                                  #        (5)     ECC     ECCENTRICITY OF CONIC TRAJECTORY
001454:                                                                                                  #                        SCALE FACTOR - +3
001455:                                                                                                  #        (6)     XXXALT  RADIUS OF THE PRIMARY BODY IN METERS
001456:                                                                                                  #                        SCALE FACTOR - EARTH +29, MOON +27
001457:                                                                                                  #        (7)     PUSHLOC EQUALS 10D
001458:
001459:                                                                                                  #  SUBROUTINES USED
001460:                                                                                                  #        SETRAD


001462:                                                                                                  #        APSIDES
001463:
001464: 23,2000                                           SETLOC   APOPERI
001465: 23,2000                                           BANK
001466:
001467: 23,2337                                           COUNT*   $$/PERAP
001468:
001469: 23,2337           00302 17755  RPAD               2DEC     6373338    B-29                       #  STANDARD RADIUS OF PAD 37-B.
001470:                                                                                                  #  = 20 909 901.57 FT
001471:
001472: 23,2341           53754        PERIAPO1           LXA,2    VSR*
001473: 23,2342           02777                                    RTX2
001474: 23,2343           57176                                    0,2
001475: 23,2344           26744                           STOVL    VVEC
001476: 23,2345           53750                           LXA,1    VSR*
001477: 23,2346           02776                                    RTX1
001478: 23,2347           57176                                    0,2
001479: 23,2350           02655                           STORE    RVEC
001480: 23,2351           45020        PERIAPO            STQ      CALL
001481: 23,2352           03463                                    NORMEX
001482: 23,2353           46367                                    SETRAD
001483: 23,2354           37671                           STCALL   XXXALT
001484: 23,2355           25704                                    APSIDES
001485: 23,2356           41401                           SETPD    PUSH                                  #  2D = APOCENTER RADIUS         B29 OR B27
001486: 23,2357           00003                                    2D
001487: 23,2360           65225                           DSU      PDDL                                  #  4D = APOGEE ALTITUDE          B29 OR B27
001488: 23,2361           03671                                    XXXALT
001489: 23,2362           00001                                    0D
001490: 23,2363           45206                           PUSH     DSU                                   #  6D = PERICENTER RADIUS        B29 OR B27
001491: 23,2364           03671                                    XXXALT
001492: 23,2365           52006                           PUSH     GOTO                                  #  8D = PERIGEE ALTITUDE         B29 OR B27
001493: 23,2366           03463                                    NORMEX
001494:


001496:                                                                                                  #  SETRAD
001497:
001498: 23,2367           41545        SETRAD             DLOAD    PUSH
001499: 23,2370           06340                                    RPAD
001500: 23,2371           63130                           SXA,1    INCR,2
001501: 23,2372           00047                                    X2
001502: 23,2373           00002                                    2D
001503: 23,2374           46135                           SLOAD    BHIZ
001504: 23,2375           00050                                    X2
001505: 23,2376           46402                                    SETRADX
001506: 23,2377           51575                           VLOAD    ABVAL
001507: 23,2400           02023                                    RLS
001508: 23,2401           77725                           PDDL
001509: 23,2402           43545        SETRADX            DLOAD    RVQ
001510:


001512:                                                                                                  #  PRECSET
001513:
001514: 23,2403           77620        PRECSET            STQ
001515: 23,2404           03463                                    NORMEX
001516: 23,2405           37574                           STCALL   TDEC2
001517: 23,2406           27056                                    LEMPREC
001518: 23,2407           77624                           CALL
001519: 23,2410           46421                                    LEMSTORE
001520: 23,2411           77745                           DLOAD
001521: 23,2412           03574                                    TDEC2
001522: 23,2413           34041                           STCALL   TDEC1
001523: 23,2414           27042                                    CSMPREC
001524: 23,2415           77624                           CALL
001525: 23,2416           46431                                    CSMSTORE
001526: 23,2417           77650                           GOTO
001527: 23,2420           03463                                    NORMEX
001528: 23,2421           43175        LEMSTORE           VLOAD    BOFF
001529: 23,2422           00001                                    RATT
001530: 23,2423           01352                                    AVFLAG
001531: 23,2424           46435                                    PASSIVE
001532: 23,2425           27536        ACTIVE             STOVL    RACT3
001533: 23,2426           00007                                    VATT
001534: 23,2427           03544                           STORE    VACT3
001535: 23,2430           77616                           RVQ
001536: 23,2431           43175        CSMSTORE           VLOAD    BOFF
001537: 23,2432           00001                                    RATT
001538: 23,2433           01352                                    AVFLAG
001539: 23,2434           46425                                    ACTIVE
001540: 23,2435           27552        PASSIVE            STOVL    RPASS3
001541: 23,2436           00007                                    VATT
001542: 23,2437           03560                           STORE    VPASS3
001543: 23,2440           77616                           RVQ
001544:


001546:                                                                                                  #  VECSHIFT
001547:
001548: 23,2441           53754        VECSHIFT           LXA,2    VSR*
001549: 23,2442           02777                                    RTX2
001550: 23,2443           57176                                    0,2
001551: 23,2444           63350                           LXA,1    PDVL
001552: 23,2445           02776                                    RTX1
001553: 23,2446           63257                           VSR*     PDVL
001554: 23,2447           57176                                    0,2
001555: 23,2450           77616                           RVQ
001556:


001558:                                                                                                  #  SHIFTR1
001559:
001560: 23,2451           53754        SHIFTR1            LXA,2    SL*
001561: 23,2452           02777                                    RTX2
001562: 23,2453           57576                                    0,2
001563: 23,2454           77616                           RVQ
001564:


001566:                                                                                                  #  PROGRAM DESCRIPTION
001567:
001568:                                                                                                  #  SUBROUTINE NAME       R36     OUT-OF-PLANE RENDEZVOUS ROUTINE
001569:                                                                                                  #  MOD NO. 0             DATE 22 DECEMBER 67
001570:                                                                                                  #  MOD BY N.M.NEVILLE    LOG SECTION EXTENDED VERBS
001571:                                                                                                  #  FUNCTIONAL DESCRIPTION
001572:
001573:                                                                                                  #  TO DISPLAY AT ASTRONAUT REQUEST LGC CALCULATED RENDEZVOUS
001574:                                                                                                  #  OUT-OF-PLANE PARAMETERS (Y, YDOT, PSI).  (REQUESTED BY DSKY).
001575:
001576:                                                                                                  #  CALLING SEQUENCE
001577:                                                                                                  #        ASTRONAUT REQUEST THROUGH DSKY V 90 E
001578:
001579:                                                                                                  #  SUBROUTINES CALLED
001580:                                                                                                  #        EXDSPRET
001581:                                                                                                  #        GOMARKF
001582:                                                                                                  #        CSMPREC
001583:                                                                                                  #        LEMPREC
001584:                                                                                                  #        SGNAGREE
001585:                                                                                                  #        LOADTIME
001586:
001587:                                                                                                  #  NORMAL EXIT MODES
001588:                                                                                                  #        ASTRONAUT REQUEST THROUGH DSKY TO TERMINATE PROGRAM V 34 E
001589:
001590:                                                                                                  #  ALARM OR ABORT EXIT MODES
001591:                                                                                                  #        NONE
001592:
001593:                                                                                                  #  OUTPUT
001594:                                                                                                  #        DECIMAL DISPLAY OF TIME, Y, YDOT AND PSI
001595:
001596:                                                                                                  #        DISPLAYED VALUES Y, YDOT, AND PSI, ARE STORED IN ERASABLE
001597:                                                                                                  #        REGISTERS RANGE, RRATE AND RTHETA RESPECTIVELY.
001598:
001599:                                                                                                  #  ERASABLE INITIALIZATION REQUIRED
001600:                                                                                                  #        CSM AND LEM STATE VECTORS
001601:
001602:                                                                                                  #  DEBRIS
001603:                                                                                                  #        CENTRALS A,Q,L
001604:                                                                                                  #        OTHER THOSE USED BY THE ABOVE LISTED SUBROUTINES
001605:
001606: 20,2115                                           BANK     20
001607: 04,2000                                           SETLOC   R36LM
001608: 04,2000                                           BANK


001610: 04,2642  E7,1441                                  EBANK=   TIG
001611: 04,2642                                           COUNT*   $$/R36
001612:
001613: 04,2642           00006        R36                EXTEND
001614: 04,2643           31442                           DCA      TIG                                   #  SET TIME-OF-EVENT TO TIG FOR NOMINAL
001615: 04,2644           53051                           DXCH     DSPTEMX                               #  DISPLAY
001616: 04,2645           32755                           CAF      V06N16N
001617: 04,2646           04616                           TC       BANKCALL
001618: 04,2647           20334                           CADR     GOMARKF
001619: 04,2650           15472                           TCF      ENDEXT                                #  TERMINATE
001620: 04,2651           12653                           TCF      +2                                    #  PROCEED
001621: 04,2652           12645                           TCF      -5                                    #  RECYCLE FOR ASTRONAUT INPUT TIME
001622: 04,2653           06042                           TC       INTPRET
001623: 04,2654           53145                           DLOAD    BZE
001624: 04,2655           01051                                    DSPTEMX
001625: 04,2656           10752                                    GETNOW                                #  ASTOR-LOADED ZERO, GET PRES TIME
001626: 04,2657           34041        R36INT             STCALL   TDEC1
001627: 04,2660           27042                                    OTHPREC
001628: 04,2661           63375                           VLOAD    PDVL
001629: 04,2662           00007                                    VATT
001630: 04,2663           00001                                    RATT                                  #  -
001631: 04,2664           02207                           STORE    RPASS36                               #  R
001632: 04,2665           63256                           UNIT     PDVL                                  #  P
001633: 04,2666           53435                           VXV      UNIT                                  #  -
001634: 04,2667           77626                           STADR
001635: 04,2670           61562                           STODL    UNP36                                 #  U
001636: 04,2671           00015                                    TAT
001637: 04,2672           34041                           STCALL   TDEC1
001638: 04,2673           27056                                    THISPREC
001639: 04,2674           63375                           VLOAD    PDVL                                  #                    -
001640: 04,2675           00007                                    VATT                                  #  VELOCITY VECTOR   V   00D
001641: 04,2676           00001                                    RATT                                  #                     A
001642: 04,2677           41406                           PUSH     PUSH                                  #  POSITION VECTOR   R   IN  06D AND 12D
001643: 04,2700           63245                           BVSU     PDVL                                  #                     A  -   -
001644: 04,2701           02207                                    RPASS36                               #  LINE OF SIGHT VECTOR  R - R       12D
001645: 04,2702           72441                           DOT      SL1                                   #                         P   A
001646: 04,2703           02215                                    UNP36                                 #      -   -
001647: 04,2704           26201                           STOVL    RANGE                                 #  Y = U . R
001648: 04,2705           00001                                    00D                                   #           A
001649: 04,2706           72441                           DOT      SL1
001650: 04,2707           02215                                    UNP36                                 #  .   -   -
001651: 04,2710           26203                           STOVL    RRATE                                 #  Y = U . V
001652: 04,2711           00007                                    06D                                   #  -        A  -
001653: 04,2712           41456                           UNIT     PUSH                                  #  U  = UNIT ( R  )              18D
001654: 04,2713           47235                           VXV      VXV                                   #   RA          A
001655: 04,2714           00001                                    00D                                   #   -    -     -     -
001656: 04,2715           00023                                    18D                                   #  (U  X V ) X U   = U
001657: 04,2716           53552                           VSL2     UNIT                                  #    RA   A     RA    A
001658: 04,2717           77656                           UNIT
001659: 04,2720           24001                           STOVL    00D                                   #  UNIT HORIZONTAL IN FORWARD DIR. 00D


001661: 04,2721           00023                                    18D
001662: 04,2722           74241                           DOT      VXSC                                  #  -
001663: 04,2723           00015                                    12D                                   #  U
001664: 04,2724           77752                           VSL2                                           #   L
001665: 04,2725           53445                           BVSU     UNIT
001666: 04,2726           77656                           UNIT
001667: 04,2727           50206                           PUSH     DOT                                   #  LOS PROJECTED INTO HORIZONTAL  12D
001668: 04,2730           00001                                    00D                                   #  PLANE
001669: 04,2731           65552                           SL1      ARCCOS                                #               -   -
001670: 04,2732           26205                           STOVL    RTHETA                                #  PSI = ARCCOS(U . U )
001671: 04,2733           50235                           VXV      DOT                                   #                A   L
001672: 04,2734           00001                                    00D
001673: 04,2735           71244                           BPL      DLOAD
001674: 04,2736           10743                                    R36TAG2
001675: 04,2737           24020                                    LODPMAX
001676: 04,2740           77625                           DSU
001677: 04,2741           02205                                    RTHETA
001678: 04,2742           02205                           STORE    RTHETA
001679: 04,2743           77776        R36TAG2            EXIT
001680: 04,2744           32756                           CAF      V06N90N                               #  DISPLAY Y, YDOT, AND PSI
001681: 04,2745           04616                           TC       BANKCALL
001682: 04,2746           20334                           CADR     GOMARKF
001683: 04,2747           15472                           TCF      ENDEXT                                #  TERMINATE
001684: 04,2750           15472                           TCF      ENDEXT                                #  PROCEED, END OF PROGRAM
001685: 04,2751           12642                           TCF      R36                                   #  RECYCLE, TIG OR ASTRO-OPTION
001686: 04,2752           52034        GETNOW             RTB      GOTO                                  #  ASTRO-SELECTED PRESENT TIME
001687: 04,2753           21574                                    LOADTIME
001688: 04,2754           10657                                    R36INT
001689: 04,2755           01420        V06N16N            VN       00616
001690: 04,2756           01532        V06N90N            VN       00690

End of include-file P34-P35,_P74-P75.agc.  Parent file is MAIN.agc


