
Source Code


000002:                                                                                                  ## Copyright:   Public domain.
000003:                                                                                                  ## Filename:    P40-P47.agc
000004:                                                                                                  ## Purpose:     A section of the reconstructed source code for Luminary 130.
000005:                                                                                                  ##              This was the original program released for the Apollo 13 LM,
000006:                                                                                                  ##              although several more revisions would follow. It has been
000007:                                                                                                  ##              reconstructed from a listing of Luminary 131, from which it
000008:                                                                                                  ##              differs on only two lines in P70-P71. The difference is
000009:                                                                                                  ##              described in detail in Luminary memo #129, which was used
000010:                                                                                                  ##              to perform the reconstruction. This file is intended to be a
000011:                                                                                                  ##              faithful reconstruction, except that the code format has been
000012:                                                                                                  ##              changed to conform to the requirements of the yaYUL assembler
000013:                                                                                                  ##              rather than the original YUL assembler.
000014:                                                                                                  ## Reference:   pp. 747-779
000015:                                                                                                  ## Contact:     Ron Burkey <info@sandroid.org>.
000016:                                                                                                  ## Website:     www.ibiblio.org/apollo
000017:                                                                                                  ## Mod history: 05/24/03 RSB.   Began transcribing.
000018:                                                                                                  ##              2010-01-05 JL   Fixed indentation of STADR instruction.
000019:                                                                                                  ##              2016-12-01 RSB  There were a number of "modern" comments about hand-written
000020:                                                                                                  ##                              notations, which I had added back in 2003, but whiche never
000021:                                                                                                  ##                              got converted to ##-style.  However, after having changed them
000022:                                                                                                  ##                              to ##-style, they no longer worked properly after being rendered
000023:                                                                                                  ##                              to html, so they had to be considerably reworked to fix that.
000024:                                                                                                  ##              2017-01-06 RSB  Page numbers now agree with those on the
000025:                                                                                                  ##                              original harcopy, as opposed to the PDF page
000026:                                                                                                  ##                              numbers in 1701.pdf.
000027:                                                                                                  ##              2017-02-25 RSB  Proofed comment text using octopus/ProoferComments.
000028:                                                                                                  ##              2017-02-28 RSB  Fixed lingering typos.
000029:                                                                                                  ##              2017-03-10 RSB  Comment-text fixes noted in proofing Luminary 116.
000030:                                                                                                  ##              2017-03-16 RSB  Comment-text fixes identified in 5-way
000031:                                                                                                  ##                              side-by-side diff of Luminary 69/99/116/131/210.
000032:                                                                                                  ##              2017-08-16 RSB  Fixed comment typo identified in AP11ROPE.
000033:                                                                                                  ##              2017-08-26 MAS  Fixed an incorrect label found while transcribing
000034:                                                                                                  ##                              Zerlina 56 (it was unreferenced so caused no errors).
000035:                                                                                                  ##              2018-09-04 MAS  Copied from Luminary 131 for Luminary 130.
000036:


000038:                                                                                                  #  PROGRAM DESCRIPTION  P40BOTH          DECEMBER 22, 1966
000039:                                                                                                  #  MOD 03 BY PETER ADLER                 MARCH 3, 1967
000040:                                                                                                  #  CALLED VIA JOB FROM V37E
000041:
000042:                                                                                                  #  FUNCTIONAL DESCRIPTION
000043:                                                                                                  #        1)      TO COMPUTE A PREFERRED IMU ORIENTATION AND A PREFERRED VEHICLE ATTITUDE FOR A LM DPS
000044:                                                                                                  #                THRUSTING MANEUVER.


000046:                                                                                                  #        3)      TO DO THE VEHICLE MANEUVER TO THE THRUSTING ATTITUDE.
000047:                                                                                                  #        4)      TO CONTROL THE PGNCS DURING COUNTDOWN, IGNITION, THRUSTING, AND THRUST TERMINATION OF A
000048:                                                                                                  #                PGNCS CONTROLLED DPS MANEUVER.
000049:                                                                                                  #        5)      IN POSTBURN -- ZERO RENDEZVOUS COUNTER, MAINTAIN VG CALCULATIONS FOR POSSIBLE RCS MANEUVER,
000050:                                                                                                  #                SET MAXIMUM DEADBAND IN DAP, RESET STEERLAW CSTEER TO ZERO.
000051:                                                                                                  #        NOTE:   P42, WHICH IS IN THIS LOG SECTION, DOES THE SAME FOR AN APS BURN, AND P41 DOES 1-3 FOR
000052:                                                                                                  #                RCS PLUS DISPLAYS PARAMETERS FOR MANUAL CONTROL.
000053:
000054:                                                                                                  #  SUBROUTINES USED
000055:                                                                                                  #        R02             IMU STATUS CHECK
000056:                                                                                                  #        S40.1           COMPUTATION OF THRUST DIRECTION
000057:                                                                                                  #        S40.13          LENGTH OF BURN
000058:                                                                                                  #        S40.2,3         PREFERRED IMU ORIENATTION
000059:                                                                                                  #        S40.8           X PRODUCT STEERING
000060:                                                                                                  #        S40.9           LAMBERT VTOGAIN
000061:                                                                                                  #        R60LEM          ATTITUDE MANEUVER
000062:                                                                                                  #        LEMPREC         EXTRAPOLATE STATE VECTOR
000063:                                                                                                  #        PREREAD         AVERAGE G, SERVICER
000064:                                                                                                  #        ALLCOAST        DAP COASTING INITIALIZATION
000065:                                                                                                  #        CLOKTASK        ERGO CLOCKJOB -- COUNT DOWN
000066:                                                                                                  #        PHASCHNG, INTPRET, FLAGUP, FLAGDOWN, WAITLIST, LONGCALL, GOFLASH, GOFLASHR, GOPERF1, ALARM,
000067:                                                                                                  #        PRIOLARM, GOTOPOOH, ENDOFJOB, BANKCALL, SETMAXDB, SETMINDB, CHECKMM, FLATOUT, OUTFLAT,
000068:                                                                                                  #        KILLTASK, SGNAGREE, TPAGREE, ETC.
000069:
000070:                                                                                                  #  RESTARTS VIA GROUP 4
000071:
000072:                                                                                                  #  DISPLAYS
000073:                                                                                                  #        V50N25  203 A/P TO PGNCS, AUTO THROTTLE MODE, AUTO ATTITUDE CONTROL
000074:                                                                                                  #        V06N40  TTI, VG, DELTAVM (DISPLAYED ONCE/SECOND BY CLOKTASK)
000075:                                                                                                  #        V50N99  PLEASE PERFORM ENGINE ON ENABLE
000076:                                                                                                  #        V06N40  TG (TIME TO GO TO CUTOFF), VG, DELTAVM -- ONCE/SECOND
000077:                                                                                                  #        V16N40  FINAL VALUES OF TG, VG, DELTAVM
000078:                                                                                                  #        V16N85  COMP OF VG (BODY AXES) FOR POSS. RCS MANUAL MANEUVER
000079:                                                                                                  #        V05N09  POSSIBLE ALARMS
000080:                                                                                                  #        V50N07  PLEASE SELECT P00
000081:


000083:                                                                                                  #        VIA R30
000084:
000085:                                                                                                  #        V06N44  HAPO, PERI, TFF
000086:                                                                                                  #        V06N35  TIME TO PERIGEE, HMS
000087:
000088:                                                                                                  #  ALARM OR ABORT EXIT MODES
000089:                                                                                                  #        PROGRAM ALARM, FLASHING DISPLAY OF ALARM CODE 1706 IF P40 SELECTED WITH DESCENT UNIT STAGED.
000090:                                                                                                  #        V34E (TERMINATE) IS THE ONLY RESPONSE ACCEPTED.  TC GOTOPOOH.
000091:
000092:                                                                                                  #        PROGRAM ALARM, FLASH CODE 1703:  TIG LESS THAN 45 SECS AWAY.  V34E= GOTOPOOH OR V33E= SLIP
000093:                                                                                                  #        TIG BY 45 SECS.
000094:
000095:                                                                                                  #  ERASABLE INITIALIZATION
000096:
000097:                                                                                                  #  DEBRIS
000098:
000099:                                                                                                  #  OUTPUT
000100:                                                                                                  #        SEE SUBROUTINES E.G.:  S40.1, S40.2,3, S40.13, S40.8, S40.9, TRIMGIMB
000101:                                                                                                  #        XDELVFLG = 1 FOR EXT DELV COMPUTATION
000102:                                                                                                  #                 = 0 FOR AIMPT (LAMBERT) COMP
000103:
000104: 27,2246                                           COUNT*   $$/P40
000105: 27,2246  E7,1455                                  EBANK=   WHICH
000106:
000107: 36,3153                                           BANK     36
000108: 36,2000                                           SETLOC   P40S
000109: 36,2000                                           BANK
000110:
000111: 36,3153           05353        P40LM              TC       PHASCHNG
000112: 36,3154           04024                           OCT      04024
000113:
000114: 36,3155           33137                           CAF      P40ADRES                              #  INITIALIZATION FOR BURNBABY.
000115: 36,3156           55455                           TS       WHICH
000116:
000117: 36,3157           30106                           CA       FLGWRD10
000118: 36,3160           74737                           MASK     APSFLBIT
000119: 36,3161           10000                           CCS      A
000120: 36,3162           13125                           TCF      P40ALM
000121: 36,3163           04616                           TC       BANKCALL                              #  GO DO IMU STATUS CHECK ROUTINE.
000122: 36,3164           11233                           CADR     R02BOTH
000123:
000124: 36,3165           40111                           CS       DAPBOOLS                              #  INITIALIZE DVMON
000125: 36,3166           74737                           MASK     CSMDOCKD
000126: 36,3167           10000                           CCS      A
000127: 36,3170           32022                           CAF      THRESH1
000128: 36,3171           62023                           AD       THRESH3
000129: 36,3172           55250                           TS       DVTHRUSH
000130: 36,3173           34751                           CAF      FOUR
000131: 36,3174           55515                           TS       DVCNTR


000133: 36,3175           06042                           TC       INTPRET                               #  LOAD CONSTANTS FOR DPS BURN
000134: 36,3176           43175                           VLOAD    CLEAR                                 #  LOAD F, MDOT, TDECAY
000135: 36,3177           34001                                    FDPS
000136: 36,3200           02663                                    NOTHROTL
000137: 36,3201           03735                           STORE    F
000138: 36,3202           77735                           SLOAD
000139: 36,3203           26002                                    DPSVEX
000140: 36,3204           70476        P40IN              DCOMP    SR1
000141: 36,3205           37743                           STCALL   VEX                                   #  LOAD EXHAUST VELOCITY FOR TGO COMP.
000142: 36,3206           56246                                    S40.1                                 #  COMPUTES UT AND VGTIG
000143: 36,3207           77624                           CALL
000144: 36,3210           56413                                    S40.2,3                               #  COMPUTES PREFERRED IMU ORIENTATION
000145: 36,3211           77776                           EXIT
000146:
000147: 36,3212           00004                           INHINT
000148: 36,3213           04674                           TC       IBNKCALL
000149: 36,3214           40143                           CADR     PFLITEDB                              #  ZERO ATTITUDE ERRORS, SET DB TO ONE DEG.
000150:
000151: 36,3215           03217                           TC       P40SXT4
000152:
000153:                                                                                                  #        ***********************
000154:
000155: 36,3216           12130                           TCF      BURNBABY
000156:
000157:                                                                                                  #        ***********************
000158:
000159: 36,3217           00006        P40SXT4            EXTEND
000160: 36,3220           23141                           QXCH     P40/RET
000161: 36,3221           00003        P41MANU            RELINT
000162:
000163: 36,3222           05516                           TC       DOWNFLAG                              #  CLEAR 3AXISFLG -- R60 WILL USE VECPOINT.
000164: 36,3223           00124                           ADRES    3AXISFLG
000165:
000166: 36,3224           04616                           TC       BANKCALL
000167: 36,3225           54123                           CADR     R60LEM                                #  DO ATTITUDE MANEUVER ROUTINE
000168: 36,3226           01141                           TC       P40/RET
000169:
000170: 36,3227  E7,1462                                  EBANK=   TRKMKCNT
000171: 36,3227           30005        POSTBURN           CA       Z
000172: 36,3230           55162                           TS       DISPDEX
000173: 36,3231           00006                           EXTEND
000174: 36,3232           32060                           DCA      ACADN85
000175: 36,3233           53252                           DXCH     AVEGEXIT
000176: 36,3234           33764                           CAF      V16N40
000177: 36,3235           04616                           TC       BANKCALL
000178: 36,3236           20636                           CADR     GOFLASHR
000179: 36,3237           03262                           TC       TERM40
000180: 36,3240           13245                           TCF      TIGNOW
000181: 36,3241           03227                           TC       POSTBURN


000183: 36,3242           05353        P40PHS1            TC       PHASCHNG
000184: 36,3243           00014                           OCT      00014
000185: 36,3244           15155                           TCF      ENDOFJOB
000186:
000187: 36,3245           00004        TIGNOW             INHINT
000188: 36,3246           04674                           TC       IBNKCALL
000189: 36,3247           40154                           CADR     ZATTEROR
000190: 36,3250           04674                           TC       IBNKCALL
000191: 36,3251           40141                           CADR     SETMINDB
000192: 36,3252           00003                           RELINT
000193: 36,3253           33765                           CAF      V16N85B
000194: 36,3254           04616                           TC       BANKCALL
000195: 36,3255           20463                           CADR     REFLASHR
000196: 36,3256           03262                           TC       TERM40
000197: 36,3257           13262                           TCF      TERM40
000198: 36,3260           03253                           TC       -5
000199:
000200: 36,3261           13242                           TCF      P40PHS1
000201:
000202: 36,3262           00006        TERM40             EXTEND
000203: 36,3263           32110                           DCA      SERVCADR
000204: 36,3264           53252                           DXCH     AVEGEXIT
000205: 36,3265           34755                           CAF      ZERO
000206: 36,3266           55462                           TS       TRKMKCNT                              #  ZERO RENDZVS CNTERS
000207: 36,3267           30005                           CA       Z
000208: 36,3270           55162                           TS       DISPDEX
000209: 36,3271           00004                           INHINT
000210: 36,3272           04674                           TC       IBNKCALL
000211: 36,3273           40115                           CADR     RESTORDB
000212: 36,3274           00003                           RELINT
000213: 36,3275           06001                           TC       GOTOPOOH
000214:
000215: 36,3276  E7,1455                                  EBANK=   WHICH
000216: 36,3276                                           COUNT*   $$/P41
000217: 36,3276           33140        P41LM              CAF      P41ADRES                              #  INITIALIZATION FOR BURNBABY
000218: 36,3277           55455                           TS       WHICH
000219:
000220: 36,3300           04616                           TC       BANKCALL
000221: 36,3301           11233                           CADR     R02BOTH
000222:
000223: 36,3302           06042                           TC       INTPRET                               #  BOTH LM


000226: 36,3303           71214                           BON      DLOAD                                 #  IF NJETSFLAG IS SET, LOAD 2 JET F
000227: 36,3304           00700                                    NJETSFLG
000228: 36,3305           75311                                    P41FJET1
000229: 36,3306           34017                                    FRCS4                                 #  IF NJETSFLAG IS CLEAR, LOAD 4 JET F
000230:
000231: 36,3307           37735        P41FJET            STCALL   F
000232: 36,3310           75314                                    P41IN
000233: 36,3311           77745        P41FJET1           DLOAD


000235: 36,3312           34021                                    FRCS2
000236: 36,3313           03735                           STORE    F
000237:
000238: 36,3314           77624        P41IN              CALL
000239: 36,3315           56246                                    S40.1                                 #  BOTH
000240: 36,3316           77624        P41NORM            CALL
000241: 36,3317           56413                                    S40.2,3                               #  CALCULATE PREFERRED IMU ORIENTATION AND
000242: 36,3320           77776                           EXIT                                           #  SET PFRATFLG.
000243:
000244: 36,3321           00004                           INHINT
000245: 36,3322           04674                           TC       IBNKCALL
000246: 36,3323           40154                           CADR     ZATTEROR                              #  ZERO ATTITUDE ERRORS
000247: 36,3324           04674                           TC       IBNKCALL
000248: 36,3325           40141                           CADR     SETMINDB                              #  SET 0.3 DEGREE DEADBAND
000249: 36,3326           03217                           TC       P40SXT4
000250:
000251: 36,3327           06042                           TC       INTPRET
000252: 36,3330           45175                           VLOAD    CALL                                  #  TRANSFORM VELOCITY-TO-BE-GAINED AT TIG
000253: 36,3331           03701                                    VGTIG                                 #  FROM REFERENCE COORDINATES TO LM BODY-
000254: 36,3332           57267                                    S41.1                                 #  AXIS COORDINATES FOR V16N85 DISPLAY.
000255: 36,3333           03502                           STORE    VGBODY                                #  (SCALED AT 2 (+7) METERS/CENTISECOND)
000256: 36,3334           77776                           EXIT
000257:
000258: 36,3335           33765                           CAF      V16N85B
000259: 36,3336           04616                           TC       BANKCALL
000260: 36,3337           20447                           CADR     GODSPRET
000261:
000262: 36,3340           35017                           CAF      PRIO5
000263: 36,3341           55162                           TS       DISPDEX                               #  FOR SAFETY ONLY
000264: 36,3342           05105                           TC       FINDVAC
000265: 36,3343  E7,1700                                  EBANK=   VGPREV
000266: 36,3343           03365 74067                     2CADR    DYNMDISP
000267:
000268: 36,3345           05327                           TC       2PHSCHNG
000269: 36,3346           00076                           OCT      00076                                 #  GROUP 6 RESTARTS AT REDO6.7
000270: 36,3347           04024                           OCT      04024                                 #  GROUP 4 RESTARTS HERE
000271:
000272:                                                                                                  #        ***********************
000273:
000274: 36,3350           12137                           TCF      B*RNB*B*
000275:
000276:                                                                                                  #        ***********************
000277:
000278: 36,3351           34777        BLNKWAIT           CAF      1SEC
000279: 36,3352           04616                           TC       BANKCALL
000280: 36,3353           01736                           CADR     DELAYJOB
000281:
000282: 36,3354           31162        REDO6.7            CA       DISPDEX                               #  ON A RESTART, DO NOT PUT UP DISPLAY IF
000283: 36,3355           64752                           AD       TWO                                   #  BLANKING (BETWEEN TIG-35 AND TIG-30)
000284:
000285:                                                                                                  #        ***********************


000287:
000288: 36,3356           00006                           EXTEND
000289: 36,3357           13351                           BZF      BLNKWAIT
000290:
000291: 36,3360           33765                           CAF      V16N85B
000292: 36,3361           04616                           TC       BANKCALL
000293: 36,3362           20447                           CADR     GODSPRET
000294:
000295: 36,3363           35017                           CAF      PRIO5
000296: 36,3364           05146                           TC       PRIOCHNG
000297:
000298: 36,3365           31162        DYNMDISP           CA       DISPDEX                               #  A NON-POSITIVE DISPDEX INDICATES PAST
000299: 36,3366           00006                           EXTEND                                         #  TIG-35, SO SERVICER WILL BE DOING THE
000300: 36,3367           65155                           BZMF     ENDOFJOB                              #  UPDATING OF NOUN 85.  STOP DYNMDISP.
000301: 36,3370           06042                           TC       INTPRET
000302: 36,3371           45175                           VLOAD    CALL
000303: 36,3372           03701                                    VGPREV
000304: 36,3373           57267                                    S41.1
000305: 36,3374           03502                           STORE    VGBODY
000306: 36,3375           77776                           EXIT
000307: 36,3376           34777                           CAF      1SEC
000308: 36,3377           04616                           TC       BANKCALL
000309: 36,3400           01736                           CADR     DELAYJOB
000310: 36,3401           13365                           TCF      DYNMDISP
000311:
000312: 36,3402           06042        CALCN85            TC       INTPRET
000313: 36,3403           77624                           CALL
000314: 36,3404           75615                                    UPDATEVG
000315: 36,3405           45175                           VLOAD    CALL
000316: 36,3406           03701                                    VGPREV
000317: 36,3407           57267                                    S41.1
000318: 36,3410           03502                           STORE    VGBODY
000319: 36,3411           77776                           EXIT
000320: 36,3412           04635                           TC       POSTJUMP
000321: 36,3413           65746                           CADR     SERVEXIT
000322:
000323: 36,3414                                           COUNT*   $$/P42
000324: 36,3414  E7,1455                                  EBANK=   WHICH
000325:
000326: 36,3414           05353        P42LM              TC       PHASCHNG
000327: 36,3415           04024                           OCT      04024
000328:
000329: 36,3416           33141                           CAF      P42ADRES                              #  INITIALIZATION FOR BURNBABY.
000330: 36,3417           55455                           TS       WHICH
000331:
000332: 36,3420           40106                           CS       FLGWRD10
000333: 36,3421           74737                           MASK     APSFLBIT
000334: 36,3422           10000                           CCS      A
000335: 36,3423           03125                           TC       P40ALM
000336: 36,3424           04616        P42STAGE           TC       BANKCALL


000338: 36,3425           11233                           CADR     R02BOTH
000339: 36,3426           36000                           CAF      THRESH2                               #  INITIALIZE DVMON
000340: 36,3427           55250                           TS       DVTHRUSH
000341: 36,3430           34751                           CAF      FOUR
000342: 36,3431           55515                           TS       DVCNTR
000343:
000344: 36,3432           06042                           TC       INTPRET
000345: 36,3433           77214                           SET      VLOAD                                 #  LOAD FAPS, MDOTAPS, AND ATDECAY INTO
000346: 36,3434           01072                                    AVFLAG                                #  F, MDOT, AND TDECAY BY VECTOR LOAD.
000347: 36,3435           34007                                    FAPS
000348: 36,3436           03735                           STORE    F
000349: 36,3437           52135                           SLOAD    GOTO
000350: 36,3440           26001                                    APSVEX
000351: 36,3441           75204                                    P40IN
000352:
000353: 36,3442  E7,1455                                  EBANK=   WHICH
000354:
000355: 36,3442                                           COUNT*   $$/P47
000356: 36,3442           04616        P47LM              TC       BANKCALL
000357: 36,3443           11233                           CADR     R02BOTH
000358: 36,3444           06042                           TC       INTPRET
000359: 36,3445           77624                           CALRB
000360: 36,3446           27547                                    MIDTOAV2
000361:
000362: 36,3447           30155                           CA       MPAC       +1
000363: 36,3450           05173                           TC       TWIDDLE
000364: 36,3451           03453                           ADRES    STARTP47
000365:
000366: 36,3452           15155                           TCF      ENDOFJOB
000367:
000368: 36,3453           05353        STARTP47           TC       PHASCHNG
000369: 36,3454           05014                           OCT      05014
000370: 36,3455           77777                           OCT      77777
000371:
000372: 36,3456           00006                           EXTEND
000373: 36,3457           33770                           DCA      ACADN83
000374: 36,3460           53252                           DXCH     AVEGEXIT
000375: 36,3461           34736                           CAF      PRIO20
000376: 36,3462           05105                           TC       FINDVAC
000377: 36,3463  E7,1622                                  EBANK=   DELVIMU
000378: 36,3463           03517 74067                     2CADR    P47BODY
000379:
000380: 36,3465           12344                           TCF      REDO4.2                               #  CHECKS PHASE 5 AND GOES TO PREREAD
000381:                                                                                                  #  SEE TIG-30 IN BURNBABY.
000382:
000383: 36,3466           06042        CALCN83            TC       INTPRET
000384: 36,3467           53375                           VLOAD    VAD
000385: 36,3470           03502                                    DELVCTL
000386: 36,3471           03527                                    DELVREF
000387: 36,3472           03656                           STORE    DELVSIN                               #  TEMP STORAGE FOR RESTARTS


000389: 36,3473           77624                           CALL
000390: 36,3474           57267                                    S41.1
000391: 36,3475           03623                           STORE    DELVIMU
000392: 36,3476           77776                           EXIT
000393: 36,3477           05353                           TC       PHASCHNG
000394: 36,3500           10035                           OCT      10035                                 #  REREADAC AND HERE
000395:
000396: 36,3501           06042                           TC       INTPRET
000397: 36,3502           77775                           VLOAD
000398: 36,3503           03656                                    DELVSIN
000399: 36,3504           03502                           STORE    DELVCTL
000400: 36,3505           77776                           EXIT
000401:
000402: 36,3506           04635                           TC       POSTJUMP
000403: 36,3507           65746                           CADR     SERVEXIT
000404:
000405: 36,3510           33766        P47BOD             CAF      V1683
000406: 36,3511           04616                           TC       BANKCALL
000407: 36,3512           20636                           CADR     GOFLASHR
000408: 36,3513           06001                           TC       GOTOPOOH
000409: 36,3514           06001                           TC       GOTOPOOH
000410:
000411: 36,3515           13517                           TCF      P47BODY
000412:
000413: 36,3516           13242                           TCF      P40PHS1
000414:
000415: 36,3517           06042        P47BODY            TC       INTPRET
000416: 36,3520           77775                           VLOAD
000417: 36,3521           06524                                    HI6ZEROS
000418: 36,3522           03623                           STORE    DELVIMU
000419: 36,3523           03502                           STORE    DELVCTL
000420: 36,3524           77776                           EXIT
000421: 36,3525           03510                           TC       P47BOD
000422:
000423: 36,3526                                           COUNT*   $$/P40
000424: 36,3526           31517        IMPLBURN           CA       TGO        +1
000425: 36,3527           03741                           TC       GETDT
000426: 36,3530           05173                           TC       TWIDDLE
000427: 36,3531           03546                           ADRES    ENGOFTSK
000428: 36,3532           05516                           TC       DOWNFLAG                              #  TURN OFF IGNFLAG
000429: 36,3533           00153                           ADRES    IGNFLAG
000430: 36,3534           05516                           TC       DOWNFLAG                              #  TURN OFF ASTNFLG
000431: 36,3535           00154                           ADRES    ASTNFLAG
000432: 36,3536           05516                           TC       DOWNFLAG                              #  TURN OFF IMPULSW
000433: 36,3537           00044                           ADRES    IMPULSW
000434: 36,3540           05353                           TC       PHASCHNG                              #  RESTART PROTECT ENGOFTSK (ENGINOFF)
000435: 36,3541           40114                           OCT      40114
000436:
000437: 36,3542           05221                           TC       FIXDELAY                              #  WAIT HALF A SECOND
000438: 36,3543           00062                           DEC      50         B-14


000440: 36,3544           02657                           TC       NOULLAGE                              #  TURN OFF ULLAGE
000441:
000442: 36,3545           05261                           TC       TASKOVER
000443:
000444: 36,3546           04674        ENGOFTSK           TC       IBNKCALL                              #  THIS CODING ALLOWS ENGINOFF ET AL TO BE
000445: 36,3547           75551                           CADR     ENGINOFF                              #  USED BOTH BY WAITLIST AND BY TC IBNKCALL
000446: 36,3550           05261                           TC       TASKOVER
000447:
000448: 36,3551           34644        ENGINOFF           CAF      PRIO12                                #  MUST BE LOWER PRIO THAN CLOCKJOB
000449: 36,3552           05105                           TC       FINDVAC
000450: 36,3553  E7,1462                                  EBANK=   TRKMKCNT
000451: 36,3553           03227 74067                     2CADR    POSTBURN
000452:
000453: 36,3555           34753        ENGINOF2           CAF      BIT1
000454: 36,3556           05203                           TC       WAITLIST
000455: 36,3557  E6,1422                                  EBANK=   OMEGAQ
000456: 36,3557           03612 74066                     2CADR    COASTSET
000457:
000458: 36,3561           40103        ENGINOF1           CS       FLAGWRD7                              #  SET THE IDLE BIT.
000459: 36,3562           74745                           MASK     IDLEFBIT
000460: 36,3563           26103                           ADS      FLAGWRD7
000461:
000462: 36,3564           02657                           TC       NOULLAGE
000463:
000464: 36,3565           00006        ENGINOF4           EXTEND
000465: 36,3566           30025                           DCA      TIME2
000466: 36,3567           53342                           DXCH     TEVENT
000467:
000468: 36,3570           44745        ENGINOF3           CS       ENGONBIT                              #  INSURE ENGONFLG IS CLEAR.
000469: 36,3571           70101                           MASK     FLAGWRD5
000470: 36,3572           54101                           TS       FLAGWRD5
000471: 36,3573           44355                           CS       PRIO30                                #  ENGINOF3 IS USED AS A PRE-ENGINE ARM
000472: 36,3574           00006                           EXTEND                                         #  SUBROUTINE.
000473: 36,3575           02011                           RAND     DSALMOUT
000474: 36,3576           64736                           AD       PRIO20                                #  TURN OFF THE ENGINE - DPS OR APS
000475: 36,3577           00006                           EXTEND
000476: 36,3600           01011                           WRITE    DSALMOUT
000477:
000478: 36,3601           40111                           CS       DAPBOOLS                              #  TURN OFF TRIM GIMBAL
000479: 36,3602           74736                           MASK     USEQRJTS
000480: 36,3603           26111                           ADS      DAPBOOLS
000481:
000482: 36,3604           44737                           CS       HIRTHROT                              #  ZERO AUTO-THROTTLE WHENEVER THE ENGINE
000483: 36,3605           54055                           TS       THRUST                                #  IS TURNED OFF.
000484: 36,3606           34750                           CAF      BIT4                                  #  THE HARDWARE DOES SO ONLY WHEN THE
000485: 36,3607           00006                           EXTEND                                         #  ENGINE IS DISARMED.
000486: 36,3610           05014                           WOR      CHAN14
000487:
000488: 36,3611           04707                           TC       ISWRETRN


000490: 36,3612           04674        COASTSET           TC       IBNKCALL                              #  DO DAP COASTING INITIALIZATION
000491: 36,3613           40205                           CADR     ALLCOAST
000492: 36,3614           05261                           TC       TASKOVER
000493:
000494: 36,3615  E6,1422                                  EBANK=   OMEGAQ
000495: 36,3615           45020        UPDATEVG           STQ      CALL
000496: 36,3616           03665                                    QTEMP1
000497: 36,3617           56447                                    S40.8                                 #  X-PRODUCT STEERING
000498: 36,3620           43014                           BON      BON
000499: 36,3621           01307                                    XDELVFLG
000500: 36,3622           03665                                    QTEMP1
000501: 36,3623           03705                                    NORMSW
000502: 36,3624           75637                                    180SETUP
000503: 36,3625           45345                           DLOAD    DSU
000504: 36,3626           01234                                    PIPTIME
000505: 36,3627           03763                                    TIGSAVE
000506: 36,3630           50025                           DSU      BMN
000507: 36,3631           03432                                    TNEWA
000508: 36,3632           75662                                    GETRANS
000509: 36,3633           43345                           DLOAD    DAD
000510: 36,3634           03763                                    TIGSAVE
000511: 36,3635           03432                                    TNEWA
000512: 36,3636           03765                           STORE    TIGSAVEP
000513: 36,3637           77776        180SETUP           EXIT
000514: 36,3640           10754                           CCS      PHASE2
000515: 36,3641           13667                           TCF      NO.9
000516: 36,3642           34737                           CAF      PRIO10
000517: 36,3643           00004                           INHINT
000518: 36,3644           05105                           TC       FINDVAC
000519: 36,3645  E7,1706                                  EBANK=   VG
000520: 36,3645           02707 56067                     2CADR    S40.9                                 #  LAMBERT VTOGAIN
000521:
000522: 36,3647           05327                           TC       2PHSCHNG
000523: 36,3650           00172                           OCT      00172                                 #  2.17SPOT FOR S40.9
000524: 36,3651           10035                           OCT      10035                                 #  HERE AND REREADAC AFTER RESTART
000525:
000526: 36,3652           06042        ENDSTEER           TC       INTPRET
000527: 36,3653           77745                           DLOAD
000528: 36,3654           03765                                    TIGSAVEP
000529: 36,3655           27763                           STOVL    TIGSAVE
000530: 36,3656           01220                                    RN
000531: 36,3657           26323                           STOVL    RINIT
000532: 36,3660           01226                                    VN
000533: 36,3661           02331                           STORE    VINIT
000534: 36,3662           45345        GETRANS            DLOAD    DSU
000535: 36,3663           03631                                    TPASS4
000536: 36,3664           01234                                    PIPTIME
000537: 36,3665           37452                           STCALL   DELLT4
000538: 36,3666           03665                                    QTEMP1
000539:


000541: 36,3667           06042        NO.9               TC       INTPRET
000542: 36,3670           77650                           GOTO
000543: 36,3671           03665                                    QTEMP1
000544: 36,3672           06042        STEERING           TC       INTPRET
000545:
000546: 36,3673           77624                           CALL
000547: 36,3674           75615                                    UPDATEVG
000548: 36,3675           77776                           EXIT
000549:
000550: 36,3676  E7,1515                                  EBANK=   DVCNTR
000551: 36,3676           00004        NSTEER             INHINT
000552: 36,3677           35016                           CA       EBANK7
000553: 36,3700           54003                           TS       EBANK
000554: 36,3701           40076                           CS       FLAGWRD2                              #  CHECK IMPULSE SWITCH.  IT IS SET EITHER
000555: 36,3702           74743                           MASK     IMPULBIT                              #  BY S40.13 IF TBURN<6 SECS OR BY S40.8 IF
000556: 36,3703           10000                           CCS      A                                     #  STEERING IS ALMOST DONE.
000557:
000558: 36,3704           13711                           TCF      +5                                    #  IMPULSW = 0   EXIT
000559: 36,3705           40103                           CS       FLAGWRD7                              #  IMPULSW = 1   WHY?  CHECK IDLEFLAG
000560: 36,3706           74745                           MASK     IDLEFBIT                              #        (IDLEFLAG = 0 --> DVMON ON)
000561: 36,3707           10000                           CCS      A
000562: 36,3710           13713                           TCF      +3                                    #  DVMON ON --> THRUSTING --> IMPULSW VIA S40.8
000563: 36,3711           04635                           TC       POSTJUMP                              #  DVMON OFF --> IMPULSW ON VIA S40.13 --> EXIT
000564: 36,3712           65746                           CADR     SERVEXIT
000565:
000566: 36,3713           04674                           TC       IBNKCALL
000567: 36,3714           40166                           CADR     STOPRATE
000568:
000569: 36,3715           05516                           TC       DOWNFLAG                              #  TURN OFF IMPULSW
000570: 36,3716           00044                           ADRES    IMPULSW
000571:
000572: 36,3717           05504                           TC       UPFLAG
000573: 36,3720           00161                           ADRES    IDLEFLAG                              #  TURN OFF DVMON
000574:
000575: 36,3721           00004                           INHINT
000576: 36,3722           00006                           EXTEND
000577: 36,3723           31442                           DCA      TIG
000578: 36,3724           52155                           DXCH     MPAC
000579: 36,3725           00006                           EXTEND
000580: 36,3726           40025                           DCS      TIME2
000581: 36,3727           20155                           DAS      MPAC
000582: 36,3730           07262                           TC       TPAGREE
000583: 36,3731           30155                           CAE      MPAC       +1
000584: 36,3732           03741                           TC       GETDT
000585: 36,3733           05173                           TC       TWIDDLE
000586: 36,3734           03546                           ADRES    ENGOFTSK
000587: 36,3735           05327                           TC       2PHSCHNG
000588: 36,3736           40114                           OCT      40114                                 #  ENGOFTSK (ENGINOFF)
000589: 36,3737           00035                           OCT      00035                                 #  SERVICER -- REREADAC


000591: 36,3740           15155                           TCF      ENDOFJOB
000592:
000593: 36,3741           10000        GETDT              CCS      A
000594: 36,3742           13745                           TCF      +3
000595: 36,3743           13745                           TCF      +2
000596: 36,3744           34755                           CAF      ZERO
000597: 36,3745           64753                           AD       ONE
000598: 36,3746           56001                           XCH      L
000599: 36,3747           34755                           CAF      ZERO
000600: 36,3750           53517                           DXCH     TGO
000601: 36,3751           31517                           CA       TGO        +1
000602: 36,3752           00002                           TC       Q
000603:
000604:                                                                                                  #  ************************************************************************
000605:
000606: 36,3753           00000        SEC15DP            OCT      00000                                 #  DON'T SEPARATE
000607: 36,3754           02734        SEC15              DEC      1500       B-14                       #  DON'T SEPARATE
000608: 36,3755           00000 05670  SEC30DP            2DEC     3000       B-28
000609: 36,3757           00000        SEC45DP            OCT      00000                                 #  DON'T MOVE FROM JUST BEFORE SEC45
000610: 36,3760           10624        SEC45              DEC      4500       B-14
000611: 36,3761           00000        5SECDP             OCT      00000                                 #  DON'T MOVE FROM JUST BEFORE 5SEC
000612: 36,3762           00764        5SEC               DEC      500        B-14
000613: 36,3763           05050        26SECS             DEC      2600       B-14
000614: 36,3764           04050        V16N40             VN       1640
000615: 36,3765           04125        V16N85B            VN       1685
000616: 36,3766           04123        V1683              VN       1683
000617: 36,3767     4777               SEC01              =        1SEC
000618: 36,3767  36,2057               ACADN85            =        P41TABLE   +2
000619:
000620: 36,3767  E7,1622                                  EBANK=   DELVIMU
000621: 36,3767           03466 74067  ACADN83            2CADR    CALCN83
000622:
000623:                                                                                                  #  *************************************************


000625:                                                                                                  #  PROGRAM DESCRIPTION  S40.1            DATE15NOV66
000626:                                                                                                  #  MOD N02                               LOG SECTION P40-P47
000627:                                                                                                  #  MOD BY ZELDIN AND ADAPTED BY TALAYCO
000628:
000629:                                                                                                  #  FUNCTIONAL DESCRIPTION
000630:                                                                                                  #        COMPUTE INITIAL THRUST DIRECTION(UT) AND INITIAL VALUE OF VG
000631:                                                                                                  #        VECTOR(VGTIG).
000632:
000633:                                                                                                  #  CALLING SEQUENCE
000634:                                                                                                  #        L       CALL
000635:                                                                                                  #        L+1             S40.1
000636:
000637:                                                                                                  #  NORMAL EXIT MODE
000638:                                                                                                  #        AT L+2 OF CALLING SEQUENCE (GOTO L+2) NORMAL RETURN OR
000639:                                                                                                  #        ERROR RETURN IF NOSOFLAG =1
000640:
000641:                                                                                                  #  SUBROUTINES CALLED
000642:                                                                                                  #        LEMPREC
000643:                                                                                                  #        INITVEL
000644:                                                                                                  #        CALCGRAV
000645:                                                                                                  #        MIDGIM
000646:
000647:                                                                                                  #  ALARM OR ABORT EXIT MODES
000648:                                                                                                  #        L+2 OF CALLING SEQUENCE, UNSOLVABLE CONIC IF NOSOFLAG=1
000649:
000650:                                                                                                  #  ERASABLE INITIALIZATION REQUIRED
000651:                                                                                                  #        WEIGHT/G        ANTICIPATED VEHICLE MASS        DP B16 KGM
000652:                                                                                                  #        XDELVFLG        1=DELTA-V MANEUVER, 0=AIMPT STEER
000653:                                                                                                  #        F               THRUST FOR ENGINE USED
000654:                                                                                                  #    IF DELTA-V MANEUVER
000655:                                                                                                  #        DELVSIN         SPECIFIED DELTA-V REQUIRED IN
000656:                                                                                                  #                        INERTIAL COORDS. OF ACTIVE VEHICLE
000657:                                                                                                  #                        AT TIME OF IGNITION             VECTOR B7 M/CS
000658:                                                                                                  #        DELVSAB         MAG. OF DELVSIN                 DP B7 M/CS
000659:                                                                                                  #        RTIG            POSITION AT TIME OF IGNITION    VECTOR B29 M
000660:                                                                                                  #        VTIG            VELOCITY AT TIME OF IGNITION    VECTOR B7 M/CS
000661:                                                                                                  #    IF AIMPT STEER
000662:                                                                                                  #        TIG             TIME OF IGNITION                DP B28 CS
000663:                                                                                                  #        RTARG           POSITION TARGET TIME            VECTOR B29 M
000664:                                                                                                  #        CSTEER          C FOR STEER LAW                 DP B2
000665:                                                                                                  #        DLTARG          TARGET TIME-IGNITION TIME       DP B28 CS
000666:
000667:                                                                                                  #  OUTPUT
000668:                                                                                                  #        UT              DESIRED THRUST DIRECTION        VECT. B2 M/(CS.CS)
000669:                                                                                                  #        VGTIG           INITIAL VALUE OF VELOCITY
000670:                                                                                                  #                        TO BE GAINED (INERT. COORD.)    VECTOR B7 M/CS
000671:                                                                                                  #        DELVLVC         VGTIG IN LOC. VERT. COORDS.     B7 M/CS
000672:                                                                                                  #        BDT             V REQUIRED AT TIG -V REQUIRED AT (TIG-2SEC)
000673:                                                                                                  #        -GDT            FOR S40.13                      VECT B7 M/CS
000674:                                                                                                  #        RTIG            CALC IN S40.1B (AIMPT) FOR S40.2,3      VECTOR B29M
000675:                                                                                                  #                        POSITION AT TIME OF IGNITION
000676:
000677:                                                                                                  #  DEBRIS        QTEMP1
000678:                                                                                                  #                MPAC, QPRET
000679:                                                                                                  #                PUSHLIST
000680:
000681: 14,2347                                           BANK     14
000682: 27,2000                                           SETLOC   P40S1
000683: 27,2000                                           BANK


000685: 27,2246                                           COUNT*   $$/S40.1
000686: 27,2246           71220        S40.1              STQ      DLOAD
000687: 27,2247           03632                                    QTEMP
000688: 27,2250           03442                                    TIG
000689: 27,2251           03763                           STORE    TIGSAVE
000690: 27,2252           77614        DELVTEST           BOFF
000691: 27,2253           01347                                    XDELVFLG
000692: 27,2254           56336                                    S40.1B
000693: 27,2255           77201        CALCTHET           SETPD    VLOAD
000694: 27,2256           00001                                    0
000695: 27,2257           03650                                    VTIG
000696: 27,2260           02331                           STORE    VINIT
000697: 27,2261           53435                           VXV      UNIT
000698: 27,2262           03642                                    RTIG
000699: 27,2263           27673                           STOVL    UT                                    #  UP IN UT
000700: 27,2264           03642                                    RTIG
000701: 27,2265           02323                           STORE    RINIT
000702: 27,2266           65236                           VSQ      PDDL
000703: 27,2267           00045                                    36D
000704: 27,2270           56205                           DMP      DDV
000705: 27,2271           16412                                    THETACON
000706: 27,2272           41205                           DMP      DMP
000707: 27,2273           03664                                    DELVSAB
000708: 27,2274           01244                                    WEIGHT/G
000709: 27,2275           77671                           DDV
000710: 27,2276           03735                                    F
000711: 27,2277           24017                           STOVL    14D
000712: 27,2300           03656                                    DELVSIN
000713:
000714: 27,2301           74241                           DOT      VXSC
000715: 27,2302           03673                                    UT
000716: 27,2303           03673                                    UT
000717: 27,2304           41552                           VSL2     PUSH                                  #  (DELTAV.UP)UP SCALED AT 2(+7) P.D.L. 0
000718: 27,2305           65245                           BVSU     PDDL                                  #  DELTA VP SCALED AT 2(+7) P.D.L. 6
000719: 27,2306           03656                                    DELVSIN
000720: 27,2307           00017                                    14D
000721: 27,2310           63356                           SIN      PDVL
000722: 27,2311           00007                                    6D
000723: 27,2312           53435                           VXV      UNIT
000724: 27,2313           03673                                    UT
000725: 27,2314           45561                           VXSC     STADR
000726: 27,2315           50076                           STOVL    VGTIG                                 #  UNIT(VP X UP)SIN(THETAT/2) IN VGTIG.
000727: 27,2316           65256                           UNIT     PDDL                                  #  UNIT(DELTA VP) IN P.D.L. 6
000728: 27,2317           00017                                    14D
000729: 27,2320           74346                           COS      VXSC
000730: 27,2321           74255                           VAD      VXSC
000731: 27,2322           03701                                    VGTIG
000732: 27,2323           00045                                    36D
000733: 27,2324           53352                           VSL2     VAD
000734: 27,2325           77626                           STADR


000736: 27,2326           74076                           STORE    VGTIG                                 #  VG IGNITION SCALED AT 2(+7) M/CS
000737:
000738: 27,2327           77656                           UNIT
000739: 27,2330           27673                           STOVL    UT                                    #  THRUST DIRECTION SCALED AT 2(+1)
000740: 27,2331           03701                                    VGTIG
000741: 27,2332           45006                           PUSH     CALL
000742: 27,2333           15741                                    GET.LVC                               #  VGTIG IN LV COOR AT 2(+7) M/CS IN DELVLVC
000743: 27,2334           77650                           GOTO
000744: 27,2335           03632                                    QTEMP
000745: 27,2336           77745        S40.1B             DLOAD
000746: 27,2337           03442                                    TIG
000747: 27,2340           00041                           STORE    TDEC1
000748: 27,2341           77621                           BDSU
000749: 27,2342           03631                                    TPASS4
000750: 27,2343           37452                           STCALL   DELLT4                                #  INTERCEPT TIME - TIG.
000751: 27,2344           27056                                    LEMPREC
000752: 27,2345           40375                           VLOAD    SETPD                                 #  LOAD STATE VECTOR AT TIG FOR INITVEL.
000753: 27,2346           00001                                    RATT
000754: 27,2347           00001                                    0
000755: 27,2350           03642                           STORE    RTIG
000756: 27,2351           02323                           STORE    RINIT
000757: 27,2352           77656                           UNIT
000758: 27,2353           27537                           STOVL    UNIT/R/
000759: 27,2354           00007                                    VATT
000760: 27,2355           03650                           STORE    VTIG
000761: 27,2356           02331                           STORE    VINIT
000762: 27,2357           65345                           DLOAD    PDDL                                  #  NUMIT = 0
000763: 27,2360           06524                                    ZEROVECS
000764: 27,2361           16406                                    EPS1
000765: 27,2362           43214                           BOFF     DAD
000766: 27,2363           03745                                    NORMSW
000767: 27,2364           56366                                    SMALLEPS
000768: 27,2365           16410                                    EPS2                                  #  EPSILON4 = 10 DEGREES OR 45 DEGREES.
000769: 27,2366           66006        SMALLEPS           PUSH     SXA,1
000770: 27,2367           02776                                    RTX1
000771: 27,2370           45134                           SXA,2    CALL
000772: 27,2371           02777                                    RTX2
000773: 27,2372           22000                                    INITVEL
000774: 27,2373           41575                           VLOAD    PUSH
000775: 27,2374           02366                                    DELVEET3                              #  VGTIG = VR-VN.
000776: 27,2375           03701                           STORE    VGTIG
000777: 27,2376           77656                           UNIT                                           #  UT = UNIT (VGTIG)
000778: 27,2377           17673                           STODL    UT
000779: 27,2400           00045                                    36D
000780: 27,2401           37664                           STCALL   VGDISP                                #  CONVERT VGTIG (IN PUSHLIST) TO LOCAL
000781: 27,2402           15741                                    GET.LVC                               #  VERTICAL COORDINATES.
000782: 27,2403           77650                           GOTO
000783: 27,2404           03632                                    QTEMP
000784:
000785: 27,2405           00707 03434  EPS1               2DEC*    2.777777778 E-2*                       #  10 DEGREES AT 1 REVOLUTION.


000787: 27,2407           03070 34344  EPS2               2DEC*    9.722222222 E-2*                       #  35 DEGREES AT 1 REVOLUTION.
000788: 27,2411           00024 13714  THETACON           2DEC     .31830989  B-8
000789:


000791:                                                                                                  #  SUBROUTINE NAME:  S40.2,3             MOD. NO. 3 DATE: APRIL 4, 1967
000792:                                                                                                  #  MODIFICATION BY:  JONATHAN D. ADDELSTON (ADAMS ASSOCIATES)
000793:                                                                                                  #  MOD. NO. 4:  JULY 18, 1967: PETER ADLER (MIT/IL)
000794:                                                                                                  #  MOD. NO. 5:  OCTOBER 18, 1967:  PETER ADLER (MIT/IL)
000795:                                                                                                  #  ORIGINALLY BY:  SAYDEAN ZELDIN (MIT INSTRUMENTATION LAB) AND RICHARD TALAYCO (SYSTEM DEVELOPMENT CORP)
000796:
000797:                                                                                                  #  S40.2,3 COMPUTES "POINTVSM" WHICH IS THE HALF-UNIT DESIRED THRUST VECTOR IN STABLE-MEMBER COORDINATES FROM "UT"
000798:                                                                                                  #  WHICH IS THE SAME VECTOR IN REFERENCE COORDINATES.  IT DETERMINES THE CORRECT VALUES FOR "SCAXIS" USING THE +X
000799:                                                                                                  #  AXIS FOR DPS, APS, AND RCS BURNS.  THE "WINGS-LEVEL HEADS-UP" LM ORIENTATION IS THEN COMPUTED IN REFERENCE
000800:                                                                                                  #  COORDINATES.  THESE VECTORS ALSO DEFINE THE "PREFERRED IMU ORIENTATION".  UPON COMPLETION OF THIS CALCULATION,
000801:                                                                                                  #  THE "PREFERRED ATTITUDE COMPUTED" FLAG IS SET (PFRATFLG).
000802:
000803:                                                                                                  #  CALLING SEQUENCE:
000804:                                                                                                  #        L       CALL                    INTERPRETIVE CALL.
000805:                                                                                                  #        L +1            S40.2,3
000806:                                                                                                  #        L +2    (RETURN)                GIMBAL ANGLE VECTOR IN MPAC.
000807:
000808:                                                                                                  #  SUBROUTINES CALLED:  NONE.
000809:
000810:                                                                                                  #  NORMAL RETURN:  L +2 (SEE CALLING SEQUENCE ABOVE).
000811:
000812:                                                                                                  #  ALARM/ABORT MODES:  NONE.
000813:
000814:                                                                                                  #  INPUT:
000815:                                                                                                  #        1.      REFSMMAT        MATRIX FROM REFERENCE TO STABLE-MEMBER COORDINATES SCALED AT 2.
000816:                                                                                                  #        2.      UT              HALF-UNIT DESIRED THRUST DIRECTION.
000817:                                                                                                  #        3.      RTIG            POSITION AT TIG IN REFERENCE COORDINATES.
000818:
000819:                                                                                                  #  OUTPUT:
000820:                                                                                                  #        1.      :XSCREF:        WINGS-LEVEL HEADS-UP LM ORIENTATION
000821:                                                                                                  #                :YSCREF:        IN REFERENCE COORDINATES
000822:                                                                                                  #                :ZSCREF:        (PREFERRED IMU ORIENTATION).
000823:                                                                                                  #        2.      POINTVSM        DESIRED THRUST DIRECTION IN STABLE-MEMBER COORDINATES.
000824:                                                                                                  #        3.      SCAXIS          HALF-UNIT OF AXIS TO ALIGN IN STABLE-MEMBER COORDINATES.
000825:                                                                                                  #        4.      PFRATFLG        INTERPRETIVE FLAG.  ON: PREFERRED ORIENTATION COMPUTED; OFF: NOT COMPUTED.
000826:
000827:                                                                                                  #  DEBRIS:  NONE.


000829:
000830: 27,2413                                           COUNT*   $$/S40.2
000831: 27,2413           77775        S40.2,3            VLOAD                                          #  UT:  DESIRED THRUST DIRECTION (HALF-UNIT)
000832: 27,2414           03673                                    UT                                    #  (PUT INTO TOP OF PUSH-DOWN-LIST.)
000833: 27,2415           76521                           MXV      VSL1                                  #  TRANSFORM THRUST DIRECTION TO STABLE-
000834: 27,2416           01734                                    REFSMMAT                              #  MEMBER FROM REFERENCE COORDS (RESCALE).
000835: 27,2417           27773                           STOVL    POINTVSM                              #  SAVE FOR "VECPOINT" ROUTINE (LEMMANU).
000836: 27,2420           06522                                    UNITX                                 #  SCAXIS SET TO +X, FOR P40 AND P42 AND
000837: 27,2421           27765                           STOVL    SCAXIS                                #  FOR P41 IF RCS NOT -X,+Y,-Y,+Z,-Z.
000838:
000839: 27,2422           03673                                    UT                                    #  ASSUME +X BURN ALWAYS, EVEN FOR RCS.
000840: 27,2423           03607        PLUSX              STORE    XSCREF                                #  XSCREF = UT (DESIRED THRUST DIRECTION.)
000841: 27,2424           53435                           VXV      UNIT                                  #  RTIG = POSITION AT TIME-OF-IGNITION.
000842: 27,2425           03642                                    RTIG                                  #  YSCREF = UNIT(UT X RTIG)
000843: 27,2426           46125                           PDDL     BHIZ
000844: 27,2427           00045                                    36D                                   #  TEST MAGNITUDE OF UT X RTIG
000845: 27,2430           56441                                    FIXY                                  #  IF SMALL, USE UT X VTIG AS YSC
000846: 27,2431           45575        STORY              VLOAD    STADR
000847: 27,2432           74162                           STORE    YSCREF
000848: 27,2433           76435                           VXV      VSL1                                  #  COMPUTE (YSCREF X XSCREF),BUT FOR A
000849: 27,2434           03607                                    XSCREF                                #  RIGHT HANDED SYSTEM, NEED (X CROSS Y).
000850: 27,2435           77676                           VCOMP                                          #  ZSCREF = - (YSCREF X XSCREF)
000851: 27,2436           03623                           STORE    ZSCREF                                #         = + (XSCREF X YSCREF)
000852:
000853: 27,2437           43414                           SET      RVQ
000854: 27,2440           01073                                    PFRATFLG
000855: 27,2441           47375        FIXY               VLOAD    VXV                                   #  IN THIS CASE,
000856: 27,2442           03607                                    XSCREF                                #  YSCREF = UNIT(XSCREF X VTIG)
000857: 27,2443           03650                                    VTIG
000858: 27,2444           41456                           UNIT     PUSH
000859: 27,2445           77650                           GOTO
000860: 27,2446           56431                                    STORY


000862:                                                                                                  #  SUBROUTINE S40.8
000863:                                                                                                  #  MODIFIED APRIL 3, 1968  BY  PETER ADLER   MIT/IL
000864:
000865:                                                                                                  #  DESCRIPTION
000866:                                                                                                  #        S40.8 UPDATES THE VELOCITY-TO-BE-GAINED VECTOR, VG, (AND FOR LAMBERT TARGETTED BURNS ALSO EXTRAPOLATES VG
000867:                                                                                                  #        USING THE BDT VECTOR) COMPUTES THE TIME FOR ISSUING THE ENGINE OFF COMMAND, TGO, AND CALLS THE ROUTINE
000868:                                                                                                  #        "FINDCDUW", WHICH GENERATES STEERING COMMANDS FOR THE DAP.
000869:
000870:                                                                                                  #  CALLING SEQUENCE
000871:                                                                                                  #        L-1     CALL
000872:                                                                                                  #        L               S40.8
000873:                                                                                                  #        L+1                     INTERPRETIVE RETURN
000874:
000875:                                                                                                  #  ALARM
000876:                                                                                                  #        IF VG.DELVREF IS NEGATIVE (VG AND DELVREF OVER 90 DEGREES APART), BYPASS TGO AND STEERING COMPUTATIONS
000877:                                                                                                  #        AND SET ALARM 1407.  RETURN TO CALLER NORMALLY.
000878:
000879:                                                                                                  #  INPUT AND INITIALIZATION
000880:                                                                                                  #        VGPREV          REFERENCE       2(7) M/CS
000881:                                                                                                  #        DELVREF         REFERENCE       2(7) M/CS
000882:                                                                                                  #        BDT             REFERENCE       2(7) M/CS
000883:                                                                                                  #        TDECAY          TAIL-OFF TIME   2(28) CS
000884:                                                                                                  #        XDELVFLG        1 = EXTERNAL DELTA-V; 0 = LAMBERT (AIMPOINT)
000885:                                                                                                  #        STEERSW         1 = DO STEERING AND TGO COMPUTATIONS; 0 = VG UPDATE ONLY
000886:                                                                                                  #        FIRSTFLG        1 = GONE TO LAMBERT AT LEAST ONCE; 0 = HAVEN'T GONE TO LAMBERT YET
000887:
000888:                                                                                                  #  NOTE:  VGTIG EQUALS VGPREV
000889:
000890:                                                                                                  #  OUTPUT
000891:                                                                                                  #        STEERSW         SEE INPUT
000892:                                                                                                  #        IMPULSW         1 = ENGINE OFF IN TGO CENTISECONDS; 0 = CONTINUE BURN
000893:                                                                                                  #        TGO             TIME TO CUT-OFF 2(28) CS
000894:                                                                                                  #        SEE FINDCDUW FOR STEERING OUTPUTS.
000895:
000896:                                                                                                  #  SUBROUTINE CALLED
000897:                                                                                                  #        FINDCDUW
000898:
000899:                                                                                                  #  DEBRIS
000900:                                                                                                  #        MPACS, PUSHLIST
000901:
000902: 27,2447                                           COUNT*   $$/S40.8


000904: 27,2447           77614        S40.8              BOF                                            #  GENERATE VR IF NOT EXTERNAL DELTA-V BURN
000905: 27,2450           01347                                    XDELVFLG
000906: 27,2451           56731                                    RASTEER1
000907: 27,2452           52375                           VLOAD    VSU
000908: 27,2453           03701                                    VGPREV
000909: 27,2454           03527                                    DELVREF
000910: 27,2455           03707        VGAIN*             STORE    VG                                    #  VELOCITY TO BE GAINED SCALED AT (7) M/CS
000911: 27,2456           76521                           MXV      VSL1
000912: 27,2457           01734                                    REFSMMAT
000913: 27,2460           03253                           STORE    UNFC/2
000914: 27,2461           51575        BDTOK              VLOAD    ABVAL
000915: 27,2462           03707                                    VG
000916: 27,2463           03664                           STORE    VGDISP
000917: 27,2464           77201        TGDCALC            SETPD    VLOAD
000918: 27,2465           00001                                    0
000919: 27,2466           03707                                    VG
000920: 27,2467           27701                           STOVL    VGPREV
000921: 27,2470           03527                                    DELVREF
000922: 27,2471           57414                           BOFF     VCOMP
000923: 27,2472           01344                                    STEERSW
000924: 27,2473           00052                                    QPRET
000925: 27,2474           77656                           UNIT
000926: 27,2475           41441                           DOT      PUSH
000927: 27,2476           03707                                    VG
000928: 27,2477           56244                           BPL      DDV
000929: 27,2500           56526                                    ALARMIT                               #  DELV IS MORE THAN 90 DEGREES FROM VG.
000930: 27,2501           03743                                    VEX
000931: 27,2502           41215                           DAD      DMP
000932: 27,2503           06522                                    DPHALF
000933: 27,2504           56261                           SR       DDV
000934: 27,2505           20613                                    10D
000935: 27,2506           00045                                    36D
000936: 27,2507           43205                           DMP      DAD
000937: 27,2510           16535                                    -FOURDT
000938: 27,2511           03741                                    TDECAY
000939: 27,2512           03517                           STORE    TGO
000940: 27,2513           77615                           DAD
000941: 27,2514           01234                                    PIPTIME
000942: 27,2515           17442                           STODL    TIG
000943: 27,2516           03517                                    TGO
000944: 27,2517           51025                           DSU      BPL
000945: 27,2520           16537                                    FOURSECS                              #  400 CS
000946: 27,2521           61100                                    FINDCDUW   -2
000947: 27,2522           43014                           SET      CLRGO
000948: 27,2523           01066                                    IMPULSW
000949: 27,2524           01224                                    STEERSW
000950: 27,2525           00052                                    QPRET
000951:
000952: 27,2526           77776        ALARMIT            EXIT
000953:


000955: 27,2527           05567                           TC       ALARM
000956: 27,2530           01407                           OCT      01407
000957: 27,2531           06042                           TC       INTPRET
000958: 27,2532           77650                           GOTO                                           #  SKIP TGO COMPUTATION BUT CALL FINDCDUW.
000959: 27,2533           61100                                    FINDCDUW   -2                         #  FINDCDUW WILL EXIT TO UPDATEVG +3.
000960:
000961: 27,2534           77715 77777  -FOURDT            2DEC     -800       B-18                       #  -4 (200 CS.) B(-18)
000962: 27,2536           00000 00620  FOURSECS           2DEC     400        B-28                       #  400 CS SCALED AT 2(+28) CS
000963: 27,2540  E7,1742               2VEXHUST           =        VEX
000964:


000966:                                                                                                  #  NAME                  S40.13 - TIMEBURN
000967:
000968:                                                                                                  #  FUNCTION              (1) DETERMINE WHETHER A GIVEN COMBINATION OF VELOCITY TO
000969:                                                                                                  #                        BE GAINED AND ENGINE CHOICE RESULT IN A BURN TIME
000970:                                                                                                  #                        SUFFICIENT TO ALLOW STEERING AT THE VEHICLE DURING THE
000971:                                                                                                  #                        BURN
000972:                                                                                                  #                        (2) THE MAGNITUDE OF THE RESULTING BURN TIME -- IF IT
000973:                                                                                                  #                        IS SHORT -- AND THE ASSOCIATED TIME OF THE ENGINE OFF
000974:                                                                                                  #                        SIGNAL
000975:
000976:                                                                                                  #  CALLING SEQUENCE      VIA FINDVAC AS A NEW JOB
000977:
000978:                                                                                                  #  INPUT                 VGTIG VELOCITY TO BE GAINED VECTOR (METERS/CS) AT +7
000979:                                                                                                  #                        WEIGHT/G MASS OF VEHICLE IN KGM AT +16
000980:                                                                                                  #                        F  APS ENGINE THRUST IN M.NEWTONS AT +7
000981:                                                                                                  #                        AND ALSO FOR RCS ENGINE
000982:                                                                                                  #                        MDOT RATE OF DECREASE OF VEHICLE MASS DURING ENGINE
000983:                                                                                                  #                        BURN IN KILOGRAMS/CS AT +3.  THIS SCALING MAY
000984:                                                                                                  #                        REQUIRE MODIFICATION FOR SATURN BURNS.
000985:                                                                                                  #                ENG1FLAG    SWITCH TO DECIDE WHETHER APS OR DPS ENGINE IS USED
000986:                                                                                                  #                                =0      DPS
000987:                                                                                                  #                                =1      APS
000988:
000989:                                                                                                  #  OUTPUT                IMPULSW         ZERO FOR STEERING
000990:                                                                                                  #                                        ONE FOR ATTITUDE HOLD
000991:                                                                                                  #                        NOTHROTL        ZERO FOR THROTTLING
000992:                                                                                                  #                                        ONE TO INHIBIT THROTTLING
000993:                                                                                                  #                        TGO             TIME TO BURN IN CS
000994:                                                                                                  #                        THE QUANTITY M.NEWTON = 10000 NEWTONS WILL BE USED TO EXPRESS
000995:                                                                                                  #                        FORCE
000996:
000997: 27,2540  E7,1516                                  EBANK=   TGO
000998: 27,2540                                           COUNT*   $$/40.13
000999: 27,2540           06042        S40.13             TC       INTPRET
001000: 27,2541           43001                           SETPD    CLEAR
001001: 27,2542           00001                                    00D
001002: 27,2543           01266                                    IMPULSW                               #  ASSUME NO STEERING UNTIL FOUND OTHERWISE
001003: 27,2544           51575                           VLOAD    ABVAL
001004: 27,2545           03701                                    VGTIG                                 #  VELOCITY TO BE GAINED AT +7
001005: 27,2546           41325                           PDDL     DMP                                   #  00D = MAG OF VGTIG AT +7
001006: 27,2547           21006                                    4SEC(17)                              #  CORRECT VG FOR 4 SECS OF 2 JET ULLAGE
001007: 27,2550           34021                                    FRCS2
001008: 27,2551           72471                           DDV      SL1                                   #  SCALE
001009: 27,2552           01244                                    WEIGHT/G
001010: 27,2553           41421                           BDSU     PUSH
001011: 27,2554           43014                           BOFF     SET
001012: 27,2555           05342                                    APSFLAG
001013: 27,2556           56626                                    S40.13D                               #  FOR DPS ENGINE
001014: 27,2557           02463                                    NOTHROTL
001015: 27,2560           56345                           DLOAD    DDV                                   #  00D = MAG OF VGTIG CORRECTED


001018: 27,2561           16001                                    K1VAL                                 #  M.NEWTONS-CS AT +24
001019: 27,2562           01244                                    WEIGHT/G
001020: 27,2563           50021                           BDSU     BMN


001022: 27,2564           00001                                    00D
001023: 27,2565           56610                                    S40.131                               #  TGO LESS THAN 100 CS
001024: 27,2566           41325                           PDDL     DMP                                   #  02D = TEMP1 AT +7
001025: 27,2567           03737                                    MDOT
001026:
001027:                                                                                                  #  MDOT REPRESENTS THE RATE OF DECREASE OF VEHICLE MASS DURING ENGINE
001028:                                                                                                  #  BURN IN KILOGRAMS/CS.  WHEN SATURN IS USED, THE SCALING MAY
001029:                                                                                                  #  REQUIRE ADJUSTMENT
001030:
001031: 27,2570           16700                                    3.5SEC                                #  350 CS AT +14
001032: 27,2571           65221                           BDSU     PDDL
001033: 27,2572           01244                                    WEIGHT/G
001034: 27,2573           03735                                    F
001035: 27,2574           60405                           DMP      SR2                                   #  SCALE
001036: 27,2575           16702                                    5SECS
001037: 27,2576           41471                           DDV      PUSH                                  #  04D = TEMP2
001038: 27,2577           51021                           BDSU     BPL
001039: 27,2600           00003                                    02D
001040: 27,2601           56626                                    S40.13D
001041: 27,2602           55345                           DLOAD    BDDV
001042: 27,2603           43205                           DMP      DAD
001043: 27,2604           16702                                    5SECS
001044: 27,2605           16676                                    1SEC2D                                #  100 CS AT +14
001045: 27,2606           77650                           GOTO
001046: 27,2607           56616                                    S40.132
001047: 27,2610           41345        S40.131            DLOAD    DMP
001048: 27,2611           01244                                    WEIGHT/G


001051: 27,2612           41542                           SR1      PUSH
001052: 27,2613           56215                           DAD      DDV
001053: 27,2614           16003                                    K2VAL                                 #  M.NEWTON CS AT +24


001058: 27,2615           16005                                    K3VAL                                 #  M.NEWTON CS AT +10
001059: 27,2616           77414        S40.132            SET      EXIT
001060: 27,2617           01066                                    IMPULSW
001061: 27,2620           07262        S40.132*           TC       TPAGREE
001062: 27,2621           30154                           CA       MPAC


001065: 27,2622           56001                           XCH      L
001066: 27,2623           34755                           CA       ZERO


001069: 27,2624           53517                           DXCH     TGO
001070: 27,2625           12650                           TCF      S40.134
001071:
001072: 27,2626           41345        S40.13D            DLOAD    DMP                                   #  FOR DPS ENGINE
001073: 27,2627           00001                                    00D
001074: 27,2630           01244                                    WEIGHT/G
001075: 27,2631           43006                           PUSH     BON
001076: 27,2632           05302                                    APSFLAG
001077: 27,2633           56671                                    APSTGO
001078: 27,2634           43071                           DDV      CLEAR
001079: 27,2635           16007                                    S40.136
001080: 27,2636           02663                                    NOTHROTL
001081: 27,2637           41400                           BOV      PUSH


001083: 27,2640           56653                                    S40.130V
001084: 27,2641           51025        S40.137            DSU      BPL
001085: 27,2642           16704                                    6SEC                                  #  600.0 CS AT +14
001086: 27,2643           56661                                    S40.138
001087: 27,2644           52015                           DAD      GOTO
001088: 27,2645           16704                                    6SEC
001089: 27,2646           56616                                    S40.132
001090: 27,2647           77776        S40.133            EXIT
001091: 27,2650           05353        S40.134            TC       PHASCHNG
001092: 27,2651           00003                           OCT      00003
001093: 27,2652           05155                           TC       ENDOFJOB
001094: 27,2653           40545        S40.130V           DLOAD    SR4                                   #  RECOMPUTE TGO IN TIME2 UNITS
001095: 27,2654           77671                           DDV
001096: 27,2655           16011                                    S40.136_                              #  S40.136 SHIFTED LEFT 10
001097: 27,2656           03517                           STORE    TGO
001098: 27,2657           77776                           EXIT
001099: 27,2660           12650                           TCF      S40.134                               #  REJOIN COMMON CODING FOR RESTART PROTECT
001100:
001101: 27,2661           51025        S40.138            DSU      BPL
001102: 27,2662           16706                                    89SECS
001103: 27,2663           56666                                    STORETGO
001104: 27,2664           77614                           SET
001105: 27,2665           02463                                    NOTHROTL
001106: 27,2666           77745        STORETGO           DLOAD                                          #  LOAD TGO AT 2(14)
001107: 27,2667           77776                           EXIT
001108: 27,2670           12620                           TCF      S40.132*
001109:
001110: 27,2671           62471        APSTGO             DDV      SL2
001111: 27,2672           34007                                    FAPS
001112: 27,2673           77650                           GOTO
001113: 27,2674           56667                                    STORETGO   +1
001114: 27,2675           00144 00000  1SEC2D             2DEC     100.0      B-14                       #  100.0 CS AT +14
001115: 27,2677           01274 00000  3.5SEC             2DEC     350.0      B-13                       #  350 CS AT +13
001116: 27,2701           00764 00000  5SECS              2DEC     500.0      B-14                       #  500.0 CS AT +14
001117: 27,2703           01130 00000  6SEC               2DEC     600.0      B-14                       #  600.0 CS AT +14
001118: 27,2705           21304 00000  89SECS             2DEC     8900.0     B-14
001119:
001120:                                                                                                  #  FUNCTION              (1) GENERATES REQUIRED VELOCITY AND VELOCITY-TO-BE-GAINED
001121:                                                                                                  #                        VECTORS FOR USE DURING AIMPOINT MANEUVERS EVERY TWO
001122:                                                                                                  #                        COMPUTATION CYCLES (4 SECONDS).
001123:                                                                                                  #                        (2) UPDATES THE B VECTOR WHICH IS USED IN THE FINAL
001124:                                                                                                  #                        CALCULATION OF EXTRAPOLATING THE VELOCITY-TO-BE-GAINED
001125:                                                                                                  #                        THROUGH ONE 2-SECOND INTERVAL INTO THE FUTURE.
001126:
001127:                                                                                                  #  CALLING SEQ VIA FINDVAC AS NEW JOB.
001128:
001129:                                                                                                  #  INPUT                 RN      - ACTIVE VEHICLE RADIUS VECTOR IN METERS AT +29.
001130:                                                                                                  #                        VN      - ACTIVE VEHICLE VELOCITY VECTOR IN METERS/CS AT +7


001132:                                                                                                  #                        VRPREV  - LAST COMPUTED VELOCITY REQUIRED VECTOR IN
001133:                                                                                                  #                                  METERS/CS AT +7.
001134:                                                                                                  #                        TIG     - TIME OF IGNITION IN CS AT +28.
001135:                                                                                                  #                        DLTARG  - COMPUTATION CYCLE INTERVAL = 200 CS AT +28.
001136:                                                                                                  #                        PIPTIME - TIME OF RN AND VN IN CS AT +28.
001137:                                                                                                  #                        GDT/2   - HALF OF VELOCITY GAINED IN DELTA T TIME DUE TO
001138:                                                                                                  #                                  ACCERERATION OF GRAVITY IN METERS/CS AT +7.
001139:                                                                                                  #                        DELVREF - CHANGE IN VELOCITY DURING LAST 2 SEC IN
001140:                                                                                                  #                                  METERS/CS AT +7.
001141:
001142:                                                                                                  #  OUTPUT                VGPREV  - VELOCITY TO BE GAINED VECTOR IN METERS/CS AT +7.
001143:                                                                                                  #                        VGDISP  - MAG OF VGPREV FOR DISPLAY PURPOSES.
001144:                                                                                                  #                        VRPREV  - VELOCITY REQUIRED VECTOR IN METERS/CS AT +7.
001145:                                                                                                  #                        BDT     - B VECTOR IN METERS/CS AT +7.
001146:
001147:                                                                                                  #  SUBROUTINES USED      -       INITVEL
001148:
001149: 27,2707  E7,1700                                  EBANK=   VGPREV
001150: 27,2707                                           COUNT*   $$/S40.9
001151: 27,2707           06042        S40.9              TC       INTPRET
001152: 27,2710           77601                           SETPD
001153: 27,2711           00001                                    00D
001154: 27,2712           71214                           SET      DLOAD
001155: 27,2713           01072                                    AVFLAG                                #  SET AVFLAG FOR LEM ACTIVE
001156: 27,2714           06524                                    HI6ZEROS
001157: 27,2715           77725                           PDDL
001158: 27,2716           16406                                    EPS1
001159: 27,2717           43214                           BOFF     DAD                                   #  EPSILON4 = 10 OR 45 DEGREES.
001160: 27,2720           03745                                    NORMSW
001161: 27,2721           56723                                    EPSSMALL
001162: 27,2722           16410                                    EPS2
001163: 27,2723           45006        EPSSMALL           PUSH     CALL
001164: 27,2724           22002                                    HAVEGUES
001165: 27,2725           77776        ENDS40.9           EXIT
001166: 27,2726           05353                           TC       PHASCHNG
001167: 27,2727           00002                           OCT      2
001168: 27,2730           15155                           TCF      ENDOFJOB
001169:
001170: 27,2731           51575        RASTEER1           VLOAD    ABVAL
001171: 27,2732           01220                                    RN
001172: 27,2733           53744                           LXC,2    SL*
001173: 27,2734           02777                                    RTX2
001174: 27,2735           57576                                    0,2
001175: 27,2736           27715                           STOVL    RMAG
001176: 27,2737           03444                                    RTARG
001177: 27,2740           47051                           VSU      RTB
001178: 27,2741           01220                                    RN
001179: 27,2742           21725                                    NORMUNX1
001180: 27,2743           17656                           STODL    IC
001181: 27,2744           00045                                    36D                                   #  C(36D) = ABVAL(C)
001182: 27,2745           53674                           XAD,2    SL*
001183: 27,2746           00046                                    X1


001185: 27,2747           57576                                    0,2
001186: 27,2750           00037                           STORE    30D
001187: 27,2751           41301                           NORM     DMP
001188: 27,2752           00050                                    X2
001189: 27,2753           03715                                    RMAG
001190: 27,2754           57101                           NORM     XAD,2
001191: 27,2755           00047                                    X1
001192: 27,2756           00046                                    X1
001193: 27,2757           77734                           SXA,2
001194: 27,2760           03766                                    MUSCALE
001195: 27,2761           17725                           STODL    R1C                                   #                        2(+58 -X)
001196: 27,2762           00037                                    30D
001197: 27,2763           65342                           SR1      PDDL
001198: 27,2764           03715                                    RMAG
001199: 27,2765           65342                           SR1      PDDL
001200: 27,2766           03723                                    RTMAG
001201: 27,2767           43342                           SR1      DAD
001202: 27,2770           45415                           DAD      STADR
001203: 27,2771           74044                           STORE    SS                                    #  SS = (R1 + R2 + C)/2
001204: 27,2772           41225                           DSU      DMP
001205: 27,2773           00037                                    30D
001206: 27,2774           03721                                    MU/A
001207: 27,2775           77621                           BDSU
001208: 27,2776           03717                                    MUASTEER


001220: 27,2777           45325                           PDDL     DSU
001221: 27,3000           03733                                    SS


001223: 27,3001           03715                                    RMAG
001224: 27,3002           70501                           NORM     SR1
001225: 27,3003           00047                                    X1


001231: 27,3004           41271                           DDV      DMP
001232: 27,3005           03725                                    R1C
001233: 27,3006           53664                           XSU,2    SL*
001234: 27,3007           00046                                    X1
001235: 27,3010           57575                                    1,2
001236: 27,3011           77754                           LXA,2
001237: 27,3012           03766                                    MUSCALE


001243: 27,3013           75366                           SQRT     SIGN


001245: 27,3014           02673                                    GEOMSGN
001246: 27,3015           00041                           STORE    32D                                   #  + OR - A


001252: 27,3016           41345                           DLOAD    DMP
001253: 27,3017           03733                                    SS
001254: 27,3020           03721                                    MU/A


001260: 27,3021           77621                           BDSU
001261: 27,3022           03717                                    MUASTEER
001262: 27,3023           45325                           PDDL     DSU
001263: 27,3024           03733                                    SS
001264: 27,3025           03723                                    RTMAG
001265: 27,3026           70501                           NORM     SR1
001266: 27,3027           00047                                    X1


001272: 27,3030           41271                           DDV      DMP
001273:


001275: 27,3031           03725                                    R1C
001276: 27,3032           53664                           XSU,2    SL*
001277: 27,3033           00046                                    X1
001278: 27,3034           57575                                    1,2
001279: 27,3035           65366                           SQRT     PDDL                                  #  -B (NO SIGN)
001280: 27,3036           03733                                    SS
001281: 27,3037           56225                           DSU      DDV
001282: 27,3040           00037                                    30D
001283: 27,3041           03733                                    SS
001284: 27,3042           41566                           SQRT     PUSH


001286: 27,3043           67542                           SR1      ASIN
001287: 27,3044           65205                           DMP      PDDL
001288: 27,3045           17216                                    2PI+3
001289: 27,3046           56325                           PDDL     DDV
001290: 27,3047           00037                                    30D
001291: 27,3050           03733                                    SS


001293: 27,3051           77600                           BOV
001294: 27,3052           57053                                    +1


001296: 27,3053           41366                           SQRT     DMP
001297: 27,3054           44242                           SR3      BDSU


001299: 27,3055           65365                           SIGN     PDDL
001300: 27,3056           02673                                    GEOMSGN
001301: 27,3057           17216                                    2PI+3


001303: 27,3060           45302                           SR2      DSU
001304: 27,3061           65205                           DMP      PDDL
001305: 27,3062           03733                                    SS
001306: 27,3063           03733                                    SS


001308: 27,3064           75442                           SR3      SQRT
001309: 27,3065           77605                           DMP
001310: 27,3066           52525                           PDDL     SL3
001311: 27,3067           03717                                    MUASTEER


001319: 27,3070           55366                           SQRT     BDDV
001320: 27,3071           43225                           DSU      DAD
001321: 27,3072           03631                                    TPASS4
001322: 27,3073           01234                                    PIPTIME


001324: 27,3074           14037                           STODL    30D
001325: 27,3075           77765                           SIGN
001326: 27,3076           00037                                    30D                                   #  B WITH SIGN
001327: 27,3077           00037                           STORE    30D
001328: 27,3100           77214                           BON      VLOAD
001329: 27,3101           03705                                    NORMSW
001330: 27,3102           57123                                    180MESS
001331: 27,3103           03656                                    IC
001332: 27,3104           53451                           VSU      UNIT
001333: 27,3105           03537                                    UNIT/R/


001335: 27,3106           63361                           VXSC     PDVL


001337: 27,3107           00037                                    30D
001338: 27,3110           03656                                    IC
001339: 27,3111           53455                           VAD      UNIT


001341: 27,3112           03537                                    UNIT/R/


001343:


001345: 27,3113           53361        GETVRVG1           VXSC     VAD
001346: 27,3114           00041                                    32D
001347: 27,3115           53744        GETVRVG2           LXC,2    VSR*
001348: 27,3116           02777                                    RTX2
001349: 27,3117           57177                                    0          -1,2
001350: 27,3120           02337                           STORE    VIPRIME
001351: 27,3121           77650                           GOTO
001352: 27,3122           57166                                    ASTREND    -2
001353: 27,3123           50375        180MESS            VLOAD    DOT
001354: 27,3124           03656                                    IC
001355: 27,3125           03537                                    UNIT/R/
001356: 27,3126           77240                           BMN      VLOAD
001357: 27,3127           57146                                    NEGPROD
001358: 27,3130           03656                                    IC
001359: 27,3131           63362                           VSR1     PDVL
001360: 27,3132           03537                                    UNIT/R/
001361: 27,3133           53362                           VSR1     VAD
001362: 27,3134           77656                           UNIT
001363: 27,3135           57406                           PUSH     VCOMP                                 #  FOR A
001364: 27,3136           75235                           VXV      SIGN
001365: 27,3137           02674                                    UN
001366: 27,3140           02673                                    GEOMSGN
001367: 27,3141           74256                           UNIT     VXSC
001368: 27,3142           00037                                    30D
001369: 27,3143           77715                           PDVL                                           #  UNIT(IC-IR)   +-B
001370: 27,3144           77650                           GOTO
001371: 27,3145           57113                                    GETVRVG1
001372: 27,3146           74575        NEGPROD            VLOAD    VSR1
001373: 27,3147           03537                                    UNIT/R/
001374: 27,3150           74515                           PDVL     VSR1
001375: 27,3151           03656                                    IC
001376: 27,3152           53451                           VSU      UNIT
001377: 27,3153           77606                           PUSH
001378: 27,3154           75235                           VXV      SIGN
001379: 27,3155           02674                                    UN                                    #  FOR B
001380: 27,3156           02673                                    GEOMSGN
001381: 27,3157           74256                           UNIT     VXSC
001382: 27,3160           00041                                    32D
001383: 27,3161           77715                           PDVL
001384: 27,3162           53361                           VXSC     VAD
001385: 27,3163           00037                                    30D
001386: 27,3164           77650                           GOTO
001387: 27,3165           57115                                    GETVRVG2
001388: 27,3166           77651                           VSU
001389: 27,3167           03553                                    VN1
001390: 27,3170           02366        ASTREND            STORE    DELVEET3
001391: 27,3171           53135        FIRSTTME           SLOAD    BZE
001392: 27,3172           03000                                    RTX2
001393: 27,3173           57177                                    GETGOBL
001394: 27,3174           52175                           VLOAD    GOTO                                  #  NO OBLATENESS COMP IF IN MOON SPHERE


001396: 27,3175           02366                                    DELVEET3
001397: 27,3176           57212                                    NOGOBL


001400: 27,3177           53575        GETGOBL            VLOAD    UNIT                                  #  CALCULATE OBLATENESS TERM.
001401: 27,3200           01220                                    RN
001402: 27,3201           45345                           DLOAD    DSU
001403: 27,3202           01234                                    PIPTIME                               #               2
001404: 27,3203           03512                                    GOBLTIME                              #  G    = -(MU/R )(UNITGOBL)(T-TIG)
001405: 27,3204           56205                           DMP      DDV                                   #   OBL
001406: 27,3205           16023                                    EARTHMU
001407: 27,3206           00043                                    34D                                   #  34D = /RN/ (2) FROM UNIT OPERATION.
001408: 27,3207           53361                           VXSC     VAD
001409: 27,3210           03521                                    UNITGOBL
001410: 27,3211           02366                                    DELVEET3                              #  OUTPUT FROM INITVEL VG = VR - VN
001411: 27,3212           02366        NOGOBL             STORE    DELVEET3                              #  VG = VR + GOBL - VN
001412: 27,3213           77650                           GOTO
001413: 27,3214           56455                                    VGAIN*
001414:
001415: 27,3215           31103 36652  2PI+3              2DEC     3.141592653 B-2
001416:


001418:                                                                                                  #  TRIMGIMB      (FORMERLY S40.6)
001419:                                                                                                  #  MOD 0         24 FEB 67       PETER ADLER
001420:
001421:                                                                                                  #  FUNCTION:
001422:                                                                                                  #        TRIMS DPS ENGINE TO MINIMIZE THRUST/CG OFFSET.  ENGINE IS GIMBALLED TO FULL + PITCH AND + ROLL (TO LOCK)
001423:                                                                                                  #        FOR REFERENCE AND IS THEN BROUGHT BACK TO TRIM POSITION BY RUNNING FOR THE PROPER TIMES (TO BE
001424:                                                                                                  #        SPECIFIED BY GAEC) IN - PITCH AND - ROLL.
001425:
001426:                                                                                                  #  CALLING SEQUENCE:
001427:                                                                                                  #        VIA WAITLIST FROM R03
001428:
001429:                                                                                                  #  INPUT:
001430:                                                                                                  #        PITTIME         TIME TO RUN FROM FULL + PITCH TO TRIM (CS)
001431:                                                                                                  #        ROLLTIME        TIME TO RUN FROM FULL + ROLL TO TRIM (CS)
001432:
001433:                                                                                                  #  SUBROUTINES USED:
001434:                                                                                                  #        WAITLIST, FIXDELAY, VARDELAY, FLAGUP, FLAGDOWN, NOVAC
001435:
001436: 27,3217                                           COUNT*   $$/S40.6
001437: 27,3217  E6,1401                                  EBANK=   ROLLTIME                              #  OCTAL MASKS: PRIO5=05000 EBANK5=02400
001438:
001439: 27,3217           05516        TRIMGIMB           TC       DOWNFLAG                              #  GMBDRVSW FLAG IS SET WHEN EITHER ROLL OR
001440: 27,3220           00137                           ADRES    GMBDRVSW                              #  PITCH IS COMPLETED, WHICHEVER IS FIRST.
001441:
001442: 27,3221           45017                           CS       PRIO5                                 #  TURN OFF - PITCH, - ROLL, IF ON.
001443: 27,3222           00006                           EXTEND
001444: 27,3223           03012                           WAND     CHAN12
001445: 27,3224           35014                           CAF      EBANK5                                #  TURN ON + PITCH, + ROLL.
001446: 27,3225           00006                           EXTEND
001447: 27,3226           05012                           WOR      CHAN12
001448: 27,3227           05221                           TC       FIXDELAY                              #  WAIT ONE MINUTE TO MAKE SURE ENGINE IS
001449: 27,3230           13560                           DEC      6000       B-14                       #  AT FULL + PITCH AND FULL + ROLL
001450: 27,3231           45014                           CS       EBANK5                                #  TURN OFF + PITCH, + ROLL.
001451: 27,3232           00006                           EXTEND
001452: 27,3233           03012                           WAND     CHAN12
001453: 27,3234           35017                           CAF      PRIO5                                 #  TURN ON - PITCH, - ROLL.
001454: 27,3235           00006                           EXTEND
001455: 27,3236           05012                           WOR      CHAN12
001456: 27,3237           31402                           CAE      PITTIME                               #  GET TIME TO SHUT OFF - PITCH AND SET UP
001457: 27,3240           05173                           TC       TWIDDLE                               #  TWIDDLE-TASK TO TURN IT OFF THEN
001458: 27,3241           03260                           ADRES    PITCHOFF
001459:
001460: 27,3242           31401                           CAE      ROLLTIME                              #  GET TIME TO SHUT OFF - ROLL AND GO AWAY
001461: 27,3243           05224                           TC       VARDELAY                              #  UNTIL THEN
001462: 27,3244           44740                           CS       BIT12
001463: 27,3245           00006                           EXTEND
001464: 27,3246           03012                           WAND     CHAN12                                #  SHUT OFF ROLL
001465: 27,3247           30102        ROLLOVER           CA       FLAGWRD6                              #  IF HERE INLINE (ROLL DONE) IS PITCH DONE
001466: 27,3250           74742                           MASK     GMBDRBIT                              #  IF HERE FROM PITCHOFF, IS ROLL DONE?
001467: 27,3251           00006                           EXTEND
001468: 27,3252           13264                           BZF      PITCHOFF   +4                         #  NO.  SET FLAG, ROLL OR PITCH DONE.
001469: 27,3253           34737                           CAF      PRIO10                                #  RETURN TO R03
001470: 27,3254           05072                           TC       NOVAC
001471: 27,3255  E7,1471                                  EBANK=   WHOCARES


001473: 27,3255           02325 02067                     2CADR    TRIMDONE
001474:
001475: 27,3257           05261                           TC       TASKOVER
001476: 27,3260           44742        PITCHOFF           CS       BIT10
001477: 27,3261           00006                           EXTEND
001478: 27,3262           03012                           WAND     CHAN12                                #  SHUT OFF PITCH
001479: 27,3263           13247                           TCF      ROLLOVER                              #  SEE IF ROLL HAS FINISHED ALSO.
001480: 27,3264           05504                           TC       UPFLAG                                #  ROLL DONE; OR PITCH DONE; BUT NOT BOTH.
001481: 27,3265           00137                           ADRES    GMBDRVSW
001482: 27,3266           05261                           TC       TASKOVER
001483:


001485:                                                                                                  #  SUBROUTINE NAME:  S41.1       MOD. NO. 0      DATE: FEBRUARY 28, 1967
001486:                                                                                                  #  MOD. NO. 1    DATE: JANUARY 23, 1968: BY PETER ADLER (MIT/IL)
001487:
001488:                                                                                                  #  AUTHOR: JONATHAN D. ADDELSTON (ADAMS ASSOCIATES)
001489:
001490:                                                                                                  #  S41.1 PERFORMS THE COORDINATE SYSTEM TRANFORMATION FROM THE REFERENCE FRAME TO THE BODY OF THE LM.
001491:                                                                                                  #  SPECIFICALLY, IT IS USED TO TRANSFORM A VELOCITY (SCALED AT 2(+7) METERS/CENTISECOND) FROM REFERENCE TO LM AXIS
001492:                                                                                                  #  COORDINATES.  FIRST THE VECTOR IS TRANSFORMED TO THE STABLE MEMBER COORDINATES BY THE MATRIX REFSMMAT.  THIS
001493:                                                                                                  #  LEAVES THE VECTOR IN MPAC, SCALED AT 2(+8) METERS/CENTISECOND.  THEN
001494:                                                                                                  #  THE SUBROUTINE CDUTRIG IS CALLED TO SET UP THE DOUBLE-PRECISION CDU VECTOR ALONG WITH ITS SINES AND COSINES.
001495:                                                                                                  #  THE VECTOR IS THEN TRANSFORMED FROM STABLE MEMBER COORDINATES TO SPACECRAFT (OR LM) COORDINATES BY THE
001496:                                                                                                  #  SUBROUTINE *SMNB*.  FINALLY( THE VECTOR IS RESCALED TO 2(+7) METERS/CENTISECOND, AND CONTROL IS RETURNED TO THE
001497:                                                                                                  #  CALLER WITH C(MPAC) = VELOCITY(LM).
001498:
001499:                                                                                                  #  CALLING SEQUENCE:
001500:                                                                                                  #        L       VLOAD   CALL
001501:                                                                                                  #        L +1            VELOCITY(REF)           SCALED AT 2(+7) M/CS IN REFERENCE COORDS.
001502:                                                                                                  #        L +2            S41.1
001503:                                                                                                  #        L +3    STORE   VELOCITY(LM)            SCALED AT 2(+7) M/CS IN LM BODY AXIS SYS.
001504:
001505:                                                                                                  #  SUBROUTINES CALLED:
001506:                                                                                                  #        1.      CDUTRIG,
001507:                                                                                                  #                        WHICH CALLS CDULOGIC.
001508:                                                                                                  #        2.      *SMNB*
001509:
001510:                                                                                                  #  NORMAL RETURN:  L +3 (SEE CALLING SEQUENCE, ABOVE.)
001511:
001512:                                                                                                  #  ALARM/ABORT MODES:  NONE.
001513:
001514:                                                                                                  #  RESTART PROTECTION:  NONE.
001515:


001517:                                                                                                  #  INPUT:
001518:                                                                                                  #        1.      REFSMMAT.
001519:                                                                                                  #        2.      CDUX, CDUY, CDUZ.
001520:                                                                                                  #        3.      VELOCITY (REF) IN MPAC.
001521:
001522:                                                                                                  #  OUTPUT:
001523:                                                                                                  #        1.      CDUSPOT:        DOUBLE PRECISION CDU VECTOR, ORDERED Y,Z,X.
001524:                                                                                                  #        2.      SINCDU:         HALF SINES OF CDUSPOT COMPONENTS.
001525:                                                                                                  #        3.      COSCDU:         HALF COSINES OF CDUSPOT COMPONENTS.
001526:                                                                                                  #        4.      MPAC:           VELOCITY(LM) (SCALED AT 2(+7) METERS/CENTISECOND)
001527:
001528:                                                                                                  #  DEBRIS:  NONE.
001529:
001530:                                                                                                  #  CHECKOUT STATUS:  CODED.
001531:
001532: 27,3267                                           COUNT*   $$/S41.1
001533: 27,3267           76521        S41.1              MXV      VSL1                                  #  CONVERT VECTOR IN MPAC FROM REF AT 2(+7)
001534: 27,3270           01734                                    REFSMMAT                              #  TO SM AND RESCALE DUE TO HALFUNIT MATRIX
001535: 27,3271           77650                           GOTO                                           #  CONVERT TO BODY AT 2(+7) USING PRESENT
001536: 27,3272           47650                                    CDU*SMNB                              #  CDU ANGLES.  CDU*SMNB WILL RETURN
001537:                                                                                                  #  VIA RVQ TO THE CALLER OF S41.1

End of include-file P40-P47.agc.  Parent file is MAIN.agc


