
Source Code


000002:                                                                                                  ## Copyright:   Public domain.
000003:                                                                                                  ## Filename:    PHASE_TABLE_MAINTENANCE.agc
000004:                                                                                                  ## Purpose:     A section of the reconstructed source code for Luminary 130.
000005:                                                                                                  ##              This was the original program released for the Apollo 13 LM,
000006:                                                                                                  ##              although several more revisions would follow. It has been
000007:                                                                                                  ##              reconstructed from a listing of Luminary 131, from which it
000008:                                                                                                  ##              differs on only two lines in P70-P71. The difference is
000009:                                                                                                  ##              described in detail in Luminary memo #129, which was used
000010:                                                                                                  ##              to perform the reconstruction. This file is intended to be a
000011:                                                                                                  ##              faithful reconstruction, except that the code format has been
000012:                                                                                                  ##              changed to conform to the requirements of the yaYUL assembler
000013:                                                                                                  ##              rather than the original YUL assembler.
000014:                                                                                                  ## Reference:   pp. 1286-1294
000015:                                                                                                  ## Contact:     Ron Burkey <info@sandroid.org>.
000016:                                                                                                  ## Website:     www.ibiblio.org/apollo
000017:                                                                                                  ## Mod history: 06/05/03 RSB.   Began transcribing.
000018:                                                                                                  ##              2011-05-07 JL   Removed workaround. Flagged SBANK= workaround
000019:                                                                                                  ##                              for future removal.
000020:                                                                                                  ##              2017-01-06 RSB  Page numbers now agree with those on the
000021:                                                                                                  ##                              original hardcopy, as opposed to the PDF page
000022:                                                                                                  ##                              numbers in 1701.pdf.
000023:                                                                                                  ##              2017-01-28 RSB  Back-ported some comment-text fixes from Luminary 69.
000024:                                                                                                  ##              2017-02-27 RSB  Proofed comment text using octopus/ProoferComments.
000025:                                                                                                  ##              2017-03-01 RSB  Fixed lingering comment-text typos.
000026:                                                                                                  ##              2017-03-14 RSB  Comment-text fixes noted in proofing Luminary 116.
000027:                                                                                                  ##              2017-03-16 RSB  Comment-text fixes identified in 5-way
000028:                                                                                                  ##                              side-by-side diff of Luminary 69/99/116/131/210.
000029:                                                                                                  ##              2017-06-17 MAS  Globally removed all SBANK= workarounds.
000030:                                                                                                  ##              2018-09-04 MAS  Copied from Luminary 131 for Luminary 130.
000031:


000033:                                                                                                  #  SUBROUTINE TO UPDATE THE PROGRAM NUMBER DISPLAY ON THE DSKY.
000034:
000035: 43,3751                                           COUNT*   $$/PHASE
000036:    5311                                           BLOCK    02
000037:    4000                                           SETLOC   FFTAG1
000038:    4000                                           BANK
000039:
000040:    5311           50002        NEWMODEX           INDEX    Q                                     #  UPDATE MODREG.  ENTRY FOR MODE IN FIXED.
000041:    5312           30000                           CAF      0
000042:    5313           24002                           INCR     Q
000043:
000044:    5314           55010        NEWMODEA           TS       MODREG                                #  ENTRY FOR MODE IN A.
000045:    5315           35320        MMDSPLAY           CAF      +3                                    #  DISPLAY MAJOR MODE.
000046:    5316           22006        PREBJUMP           LXCH     BBANK                                 #  PUTS BBANK IN L
000047:    5317           14640                           TCF      BANKJUMP                              #  PUTS Q INTO A
000048:    5320           20213                           CADR     SETUPDSP
000049:
000050:                                                                                                  #  RETURN TO CALLER +3 IF MODE = THAT AT CALLER +1.  OTHERWISE RETURN TO CALLER +2.
000051:
000052:    5321           50002        CHECKMM            INDEX    Q
000053:    5322           40000                           CS       0
000054:    5323           61010                           AD       MODREG
000055:    5324           00006                           EXTEND
000056:    5325           16744                           BZF      Q+2
000057:    5326           16742                           TCF      Q+1                                   #  NO MATCH
000058:
000059:    5327     6745               TCQ                =        Q+2        +1
000060:
000061: 14,3775                                           BANK     14
000062: 10,2000                                           SETLOC   PHASETAB
000063: 10,2000                                           BANK
000064:
000065: 10,2213                                           COUNT*   $$/PHASE
000066: 10,2213           00004        SETUPDSP           INHINT
000067: 10,2214           52071                           DXCH     RUPTREG1                              #  SAVE CALLER-S RETURN 2CADR
000068: 10,2215           34355                           CAF      PRIO30                                #        EITHER A TASK OR JOB CAN COME TO
000069: 10,2216           05072                           TC       NOVAC                                 #        NEWMODE X
000070: 10,2217     1010                                  EBANK=   MODREG
000071: 10,2217           03577 60102                     2CADR    DSPMMJOB
000072:
000073: 10,2221           52071                           DXCH     RUPTREG1
000074: 10,2222           00003                           RELINT
000075: 10,2223           52006                           DXCH     Z                                     #  RETURN
000076:
000077: 10,2224  40,3577               DSPMMJOB           EQUALS   DSPMMJB
000078:
000079:    5327                                           BLOCK    02
000080:    4000                                           SETLOC   FFTAG1
000081:    4000                                           BANK


000083:                                                                                                  #  PHASCHNG IS THE MAIN WAY OF MAKING PHASE CHANGES FOR RESTARTS.  THERE ARE THREE FORMS OF PHASCHNG, KNOWN AS TYPE
000084:                                                                                                  #  A, TYPE B, AND TYPE C.  THEY ARE ALL CALLED AS FOLLOWS, WHERE OCT XXXXX CONTAINS THE PHASE INFORMATION,
000085:                                                                                                  #                TC      PHASCHNG
000086:                                                                                                  #                OCT     XXXXX
000087:                                                                                                  #  TYPE A IS CONCERNED WITH FIXED PHASE CHANGES, THAT IS, PHASE INFORMATION THAT IS STORED PERMANENTLY.  THESE
000088:                                                                                                  #  OPTIONS ARE, WHERE G STANDS FOR A GROUP AND .X FOR THE PHASE,
000089:                                                                                                  #        G.0             INACTIVE, WILL NOT PERMIT A GROUP G RESTART
000090:                                                                                                  #        G.1             WILL CAUSE THE LAST DISPLAY TO BE REACTIVATED, USED MAINLY IN MANNED FLIGHTS
000091:                                                                                                  #        G.EVEN          A DOUBLE TABLE RESTART, CAN CAUSE ANY COMBINATION OF TWO JOBS, TASKS, AND/OR
000092:                                                                                                  #                        LONGCALL TO BE RESTARTED.
000093:                                                                                                  #        G.ODD NOT .1    A SINGLE TABLE RESTART, CAN CAUSE EITHER A JOB, TASK, OR LONGCALL RESTART
000094:
000095:                                                                                                  #  THIS INFORMATION IS PUT INTO THE OCTAL WORD AFTER TC PHASCHNG AS FOLLOWS
000096:                                                                                                  #                  TL0 00P PPP PPP GGG                                     ,
000097:                                                                                                  #  WHERE EACH LETTER OR NUMBER STANDS FOR A BIT.  THE G:S STAND FOR THE GROUP, OCTAL 1-7, THE P:S FOR THE PHASE,
000098:                                                                                                  #  OCTAL 0 - 127.  0:S MUST BE 0.              IF ONE WISHES TO HAVE THE TBASE OF GROUP G TO BE SET AT THIS TIME,
000099:                                                                                                  #  T IS SET TO 1, OTHERWISE IT IS SET TO 0.  SIMIARLY IF ONE WISHES TO SET LONGBASE, THEN L IS SET TO 1, OTHERWISE
000100:                                                                                                  #  IT IS SET TO 0.  SOME EXAMPLES,
000101:                                                                                                  #                TC      PHASCHNG        THIS WILL CAUSE GROUP 3 TO BE SET TO 0,
000102:                                                                                                  #                OCT     00003           MAKING GROUP 3 INACTIVE
000103:
000104:                                                                                                  #                TC      PHASCHNG        IF A RESTART OCCURS THIS WOULD CAUSE
000105:                                                                                                  #                OCT     00012           GROUP 2 TO RESTART THE LAST DISPLAY
000106:
000107:                                                                                                  #                TC      PHASCHNG        THIS SETS THE TBASE OF GROUP 4 AND IN
000108:                                                                                                  #                OCT     40064           CASE OF A RESTART WOULD START UP THE TWO
000109:                                                                                                  #                                        THINGS LOCATED IN THE DOUBLE 4.6 RESTART
000110:                                                                                                  #                                        LOCATION
000111:
000112:                                                                                                  #                TC      PHASCHNG        THIS SETS LONGBASE AND UPON A RESTART
000113:                                                                                                  #                OCT     20135           CAUSES 5.13 TO BE RESTARTED (SINCE
000114:                                                                                                  #                                        LONGBASE WAS SET THIS SINGLE ENTRY
000115:                                                                                                  #                                        SHOULD BE A LONGCALL)
000116:
000117:                                                                                                  #                TC      PHASCHNG        SINCE BOTH TBASE4 AND LONGBASE ARE SET,
000118:                                                                                                  #                OCT     60124           4.12 SHOULD CONTAIN BOTH A TASK AND A
000119:                                                                                                  #                                        LONGCALL TO BE RESTARTED
000120:
000121:                                                                                                  #  TYPE C PHASCHNG CONTAINS THE VARIABLE TYPE OF PHASCHNG INFORMATION.  INSTEAD OF THE INFORMATION BEING IN A
000122:                                                                                                  #  PERMANENT FORM, ONE STORES THE DESIRED RESTART INFORMATION IN A VARIABKE LOCATION.  THE BITS ARE AS FOLLOWS,
000123:                                                                                                  #        TL0 1AD XXX CJW GGG
000124:                                                                                                  #  WHERE EACH LETTER OR NUMBER STANDS FOR A BIT.  THE G:S STAND FOR THE GROUP, OCTAL 1 - 7.  IF THE RESTART IS TO
000125:                                                                                                  #  BE BY WAITLIST, W IS SET TO 1, IF IT IS A JOB, J IS SET TO 1, IF IT IS A LONGCALL, C IS SET TO 1.  ONLY ONE OF
000126:                                                                                                  #  THESE THREE BITS MAY BE SET.  X:S ARE IGNORED  1 MUST BE 1, AND 0 MUST BE 0.  AGAIN T STANDS FOR THE TBASE,


000128:                                                                                                  #  AND L FOR LONGBASE.  THE BITS A AND D ARE CONCERNED WITH THE VARIABLE INFORMATION.  IF D IS SET TO 1, A PRIORITY
000129:                                                                                                  #  OR DELTA TIME WILL BE READ FROM THE NEXT LOCATION AFTER THE OCTAL INFORMATION, IF THIS IS TO BE INDIRECT, THAT
000130:                                                                                                  #  IS, THE NAME OF A LOCATION COMT+INING THE INFORMATION (DELTA TIME ONLY), THEN THIS IS GIVEN AS THE -GENADR OF
000131:                                                                                                  #  THAT LOCATION WHICH CONTAINS THE DELTA TIME.  IF THE OLD PRIORITY OR DELTA TIME IS TO BE USED, THAT WHICH IS
000132:                                                                                                  #  ALREADY IN THE VARIABLE STORAGE, THEN D IS SET TO 0.  NEXT THE A BIT IS USED.  IF IT IS SET TO 0, THE ADDRESS
000133:                                                                                                  #  THAT WOULD BE RESTARTED DURING A RESTART IS THE NEXT LOCATION AFTER THE PHASE INFORMATION, THAT IS, EITHER
000134:                                                                                                  #  (TC PHASCHNG) +2 OR +3, DEPENDING ON WHETHER D HAD BEEN SET OR NOT.  IF A IS SET TO 1, THEN THE ADDRESS THAT
000135:                                                                                                  #  WOULD BE RESTARTED IS THE 2CADR THAT IS READ FROM THE NEXT TWO LOCATIONS.  EXAMPLES,
000136:                                                                                                  #        AD      TC      PHASCHNG        THIS WOULD CAUSE LOCATION AD +3 TO BE
000137:                                                                                                  #        AD+1    OCT     05023           RESTARTED BY GROUP THREE WITH A PRIORITY
000138:                                                                                                  #        AD+2    OCT     23000           OF 23.  NOTE UPON RETURNING IT WOULD
000139:                                                                                                  #        AD+3                            ALSO GO TO AD+3
000140:
000141:                                                                                                  #        AD      TC      PHASCHNG        GROUP 1 WOULD CAUSE CAUSE CALLCALL TO
000142:                                                                                                  #        AD+1    OCT     27441           BE STARTED AS A LONGCALL FROM THE TIME
000143:                                                                                                  #        AD+2    -GENADR DELTIME         STORED IN LONGBASE (LONGBASE WAS SET) BY
000144:                                                                                                  #        AD+3    2CADR   CALLCALL        A DELTA TIME STORED IN DELTIME.  THE
000145:                                                                                                  #        AD+4                            BBCON OF THE 2CADR SHOULD CONTAIN THE E
000146:                                                                                                  #        AD+5                            BANK OF DELTIME.  PHASCHNG RETURNS TO
000147:                                                                                                  #                                        LOCATION AD+5
000148:
000149:                                                                                                  #  NOTE THAT IF A VARIABLE PRIORITY IS GIVEN FOR A JOB, THE JOB WILL BE RESTARTED AS A NOVAC IF THE PRIORITY IS
000150:                                                                                                  #  NEGATIVE, AS A FINDVAC IF THE PRIORITY IS POSITIVE.
000151:
000152:                                                                                                  #  TYPE B PHASCHNG IS A COMBINATION OF VARIABLE AND FIXED PHASE CHANGES.  IT WILL START UP A JOB AS INDICATED
000153:                                                                                                  #  BELOW AND ALSO START UP ONE FIXED RESTART, THAT IS EITHER AN G.1 OR A G.ODD OR THE FIRST ENTRY OF G.EVEN
000154:                                                                                                  #  DOUBLE ENTRY.  THE BIT INFORMATION IS AS FOLLOWS,
000155:                                                                                                  #        TL1 DAP PPP PPP GGG
000156:                                                                                                  #  WHERE EACH LETTER OR NUMBER STANDS FOR A BIT.  THE G:S STAND FOR THE GROUP, OCTAL 1 - 7. THE P:S FOR THE FIXED
000157:                                                                                                  #  PHASE INFORMATION, OCTAL 0 - 127.  1 MUST BE 1.  AND AGAIN T STANDS FOR THE TBASE AND L FOR LONGBASE.  D THIS
000158:                                                                                                  #  TIME STANDS ONLY FOR PRIORITY SINCE THIS WILL BE CONSIDERED A JOB, AND IT MUST BE GIVEN DIRECTLY IF GIVEN.
000159:                                                                                                  #  AGAIN A STANDS FOR THE ADDRESS OF THE LOCATION TO BE RESTARTED, 1 IF THE 2CADR IS GIVEN, OR 0 IF IT IS TO BE
000160:                                                                                                  #  THE NEXT LOCATION.  (THE RETURN LOCATION OF PHASCHNG) EXAMPLES,
000161:                                                                                                  #        AD      TC      PHASCHNG        TBASE IS SET AND A RESTART CAUSE GROUP 3
000162:                                                                                                  #        AD+1    OCT     56043           TO START THE JOB AJOBAJOB WITH PRIORITY
000163:                                                                                                  #        AD+2    OCT     31000           31 AND THE FIRST ENTRY OF 3.4SPOT (WE CAN
000164:                                                                                                  #        AD+3    2CADR   AJOBAJOB        ASSUME IT IS A TASK SINCE WE SET TBASE3)
000165:                                                                                                  #        AD+4                            UPON RETURN FROM PHASCHNG CONTROL WOULD
000166:                                                                                                  #        AD+5                            GO TO AD+5
000167:
000168:                                                                                                  #        AD      TC      PHASCHNG        UPON A RESTART THE LAST DISPLAY WOULD BE
000169:                                                                                                  #        AD+1    OCT     10015           RESTARTED AND A JOB WITH THE PREVIOUSLY
000170:                                                                                                  #        AD+2                            STORED PRIORITY WOULD BE BEGUN AT AD+2
000171:                                                                                                  #                                        BY MEANS OF GROUP 5


000173:                                                                                                  #  THE NOVAC-FINDVAC CHOICE FOR JOBS HOLDS HERE ALSO - NEGATIVE PRIORITY CAUSES A NOVAC CALL, POSITIVE A FINDVAC.
000174:
000175:                                                                                                  #  SUMMARY OF BITS
000176:                                                                                                  #        TYPE A          TL0 00P PPP PPP GGG
000177:                                                                                                  #        TYPE B          TL1 DAP PPP PPP GGG
000178:                                                                                                  #        TYPE C          TL0 1AD XXX CJW GGG
000179:


000181:                                                                                                  #  2PHSCHNG IS USED WHEN ONE WISHES TO START UP A GROUP OR CHANGE A GROUP WHILE UNDER THE CONTROL OF A DIFFERENT
000182:                                                                                                  #  GROUP.  FOR EXAMPLE, CHANGE THE PHASE OF GROUP 3 WHILE THE PORTION OF THE PROGRAM IS UNDER GROUP 5.  ALL 2PHSCHNG
000183:                                                                                                  #  CALLS ARE MADE IN THE FOLLOWING MANNER,
000184:                                                                                                  #                TC      2PHSCHNG
000185:                                                                                                  #                OCT     XXXXX
000186:                                                                                                  #                OCT     YYYYY
000187:                                                                                                  #  WHERE OCT XXXXX MUST BE OF TYPE A AND OCT YYYYY MAY BE OF EITHER TYPE A OR TYPE B OR TYPE C.  THERE IS ONE
000188:                                                                                                  #  DIFFERENCE --- NOTE- IF LONGBASE IS TO BE SET THIS INFORMATION IS GIVEN IN THE OCT YYYYY INFORMATION, IT WILL
000189:                                                                                                  #  BE DISREGARDED IF GIVEN WITH THE OCT XXXXX INFORMATION.  A COUPLE OF EXAMPLES MAY HELP,
000190:                                                                                                  #        AD      TC      2PHSCHNG        SET TBASE3 AND IF A RESTART OCCURS START
000191:                                                                                                  #        AD+1    OCT     40083           THE TWO ENTRIES IN 3.8 TABLE LOCATION
000192:                                                                                                  #        AD+2    OCT     05025           THIS IS OF TYPE C, SET THE JOB TO BE
000193:                                                                                                  #        AD+3    OCT     18000           TO BE LOCATION AD+4, WITH A PRIORITY 18,
000194:                                                                                                  #        AD+4                            FOR GROUP 5 PHASE INFORMATION
000195:
000196:    5327                                           COUNT*   $$/PHASE
000197:    5327           00004        2PHSCHNG           INHINT                                         #  THE ENTRY FOR A DOUBLE PHASE CHANGE
000198:    5330           50002                           NDX      Q
000199:    5331           30000                           CA       0
000200:    5332           24002                           INCR     Q
000201:    5333           54072                           TS       TEMPP2
000202:
000203:    5334           74757                           MASK     OCT7
000204:    5335           60000                           DOUBLE
000205:    5336           54071                           TS       TEMPG2
000206:
000207:    5337           30072                           CA       TEMPP2
000208:    5340           75030                           MASK     OCT17770                              #  NEED ONLY 1770, BUT WHY GET A NEW CONST.
000209:    5341           00006                           EXTEND
000210:    5342           74740                           MP       BIT12
000211:    5343           56072                           XCH      TEMPP2
000212:
000213:    5344           74735                           MASK     BIT15
000214:    5345           54066                           TS       TEMPSW2                               #  INDICATES WHETHER TO SET TBASE OR NOT
000215:
000216:    5346           50002                           INDEX    Q
000217:    5347           30000                           CA       0
000218:    5350           24002                           INCR     Q
000219:    5351           54065                           TS       TEMPSW
000220:
000221:    5352           15363                           TCF      PHASJUMP
000222:
000223:    5353           00004        PHASCHNG           INHINT                                         #  NORMAL PHASCHNG ENTRY POINT.
000224:    5354           50002                           INDEX    Q
000225:    5355           30000                           CA       0
000226:    5356           24002                           INCR     Q
000227:    5357           00004        PHSCHNGA           INHINT                                         #  FIRST OCTAL PARAMETER IN A.


000229:    5360           54065                           TS       TEMPSW
000230:    5361           34753                           CA       ONE
000231:    5362           54066                           TS       TEMPSW2
000232:    5363           00006        PHASJUMP           EXTEND
000233:    5364           35367                           DCA      ADRPCHN2                              #  OFF TO SWITCHED BANK
000234:    5365           52006                           DTCB
000235:
000236:    5366  E3,1400                                  EBANK=   LST1
000237:    5366           02224 20103  ADRPCHN2           2CADR    PHSCHNG2
000238:
000239:    5370           22073        ONEORTWO           LXCH     TEMPBBCN
000240:    5371           22006                           LXCH     BBANK
000241:    5372           22073                           LXCH     TEMPBBCN
000242:
000243:    5373           75024                           MASK     OCT14000                              #  SEE WHAT KIND OF PHASE CHANGE IT IS
000244:    5374           10000                           CCS      A
000245:    5375           17753                           TCF      CHECKB                                #  IT IS OF TYPE :B:
000246:
000247:    5376           30062                           CA       TEMPP
000248:    5377           74745                           MASK     BIT7
000249:    5400           10000                           CCS      A                                     #  SHALL WE USE THE OLD PRIORITY
000250:    5401           15423                           TCF      GETPRIO                               #  NO GET A NEW PRIORITY (OR DELTA T)
000251:
000252:    5402           50061        OLDPRIO            NDX      TEMPG                                 #  USE THE OLD PRIORITY (OR DELTA T)
000253:    5403           31051                           CA       PHSPRDT1   -2
000254:    5404           54070                           TS       TEMPPR
000255:
000256:    5405           30062        CON1               CA       TEMPP                                 #  SEE IF A 2CADR IS GIVEN
000257:    5406           74744                           MASK     BIT8
000258:    5407           10000                           CCS      A
000259:    5410           15427                           TCF      GETNEWNM
000260:
000261:    5411           30002                           CA       Q
000262:    5412           54063                           TS       TEMPNM
000263:    5413           30006                           CA       BB
000264:    5414           00006                           EXTEND                                         #  PICK UP USERS SUPERBANK
000265:    5415           04007                           ROR      SUPERBNK
000266:    5416           54064                           TS       TEMPBB
000267:
000268:    5417           35422        TOCON2             CA       CON2ADR                               #  BACK TO SWITCHED BANK
000269:    5420           22073                           LXCH     TEMPBBCN
000270:    5421           52006                           DTCB
000271:
000272:    5422           02312        CON2ADR            GENADR   CON2
000273:
000274:    5423           50002        GETPRIO            NDX      Q                                     #  DON:T CARE IF DIRECT OR INDIRECT
000275:    5424           30000                           CA       0                                     #  LEAVE THAT DECISION TO RESTARTS
000276:    5425           24002                           INCR     Q                                     #  OBTAIN RETURN ADDRESS


000278:    5426           15404                           TCF      CON1       -1
000279:
000280:    5427           00006        GETNEWNM           EXTEND
000281:    5430           50002                           INDEX    Q
000282:    5431           30001                           DCA      0
000283:    5432           52064                           DXCH     TEMPNM
000284:    5433           34752                           CA       TWO
000285:    5434           26002                           ADS      Q                                     #  OBTAIN RETURN ADDRESS
000286:
000287:    5435           15417                           TCF      TOCON2
000288:
000289:    5436     5024               OCT14000           EQUALS   PRIO14
000290:    5436     0061               TEMPG              EQUALS   ITEMP1
000291:    5436     0062               TEMPP              EQUALS   ITEMP2
000292:    5436     0063               TEMPNM             EQUALS   ITEMP3
000293:    5436     0064               TEMPBB             EQUALS   ITEMP4
000294:    5436     0065               TEMPSW             EQUALS   ITEMP5
000295:    5436     0066               TEMPSW2            EQUALS   ITEMP6
000296:    5436     0070               TEMPPR             EQUALS   RUPTREG1
000297:    5436     0071               TEMPG2             EQUALS   RUPTREG2
000298:    5436     0072               TEMPP2             EQUALS   RUPTREG3
000299:
000300:    5436     0073               TEMPBBCN           EQUALS   RUPTREG4
000301:    5436  0000006               BB                 EQUALS   BBANK
000302:
000303: 14,3775                                           BANK     14
000304: 10,2000                                           SETLOC   PHASETAB
000305: 10,2000                                           BANK
000306:
000307: 10,2224  E3,1436                                  EBANK=   PHSNAME1
000308: 10,2224                                           COUNT*   $$/PHASE
000309: 10,2224           22073        PHSCHNG2           LXCH     TEMPBBCN
000310: 10,2225           30065                           CA       TEMPSW
000311: 10,2226           74757                           MASK     OCT7
000312: 10,2227           60000                           DOUBLE
000313: 10,2230           54061                           TS       TEMPG
000314:
000315: 10,2231           30065                           CA       TEMPSW
000316: 10,2232           75030                           MASK     OCT17770
000317: 10,2233           00006                           EXTEND
000318: 10,2234           74740                           MP       BIT12
000319: 10,2235           54062                           TS       TEMPP
000320:
000321: 10,2236           30065                           CA       TEMPSW
000322: 10,2237           74101                           MASK     OCT60000
000323: 10,2240           56065                           XCH      TEMPSW
000324: 10,2241           75024                           MASK     OCT14000
000325: 10,2242           10000                           CCS      A


000327: 10,2243           15370                           TCF      ONEORTWO
000328:
000329: 10,2244           30062                           CA       TEMPP                                 #  START STORING THE PHASE INFORMATION
000330: 10,2245           50061                           NDX      TEMPG
000331: 10,2246           54750                           TS       PHASE1     -2
000332:
000333: 10,2247           10066        BELOW1             CCS      TEMPSW2                               #  IS IT A PHASCHNG OR A 2PHSCHNG
000334: 10,2250           12264                           TCF      BELOW2                                #  IT:S A PHASCHNG
000335:
000336: 10,2251           12252                           TCF      +1                                    #  IT:S A 2PHSCHNG
000337: 10,2252           40072                           CS       TEMPP2
000338: 10,2253           22072                           LXCH     TEMPP2
000339: 10,2254           50071                           NDX      TEMPG2
000340: 10,2255           52750                           DXCH     -PHASE1    -2
000341:
000342: 10,2256           10066                           CCS      TEMPSW2
000343: 10,2257           12260                           NOOP                                           #  CAN:T GET HERE
000344: 10,2260           12264                           TCF      BELOW2
000345:
000346: 10,2261           40025                           CS       TIME1
000347: 10,2262           50071                           NDX      TEMPG2
000348: 10,2263           55050                           TS       TBASE1     -2
000349:
000350: 10,2264           10065        BELOW2             CCS      TEMPSW                                #  SEE IF WE SHOULD SET TBASE OR LONGBASE
000351: 10,2265           12300                           TCF      BELOW3                                #  SET LONGBASE ONLY
000352: 10,2266           12303                           TCF      BELOW4                                #  SET NEITHER
000353:
000354: 10,2267           40025                           CS       TIME1                                 #  SET TBASE TO BEGIN WITH
000355: 10,2270           50061                           NDX      TEMPG
000356: 10,2271           55050                           TS       TBASE1     -2
000357:
000358: 10,2272           30065                           CA       TEMPSW                                #  SHALL WE NOW SET LONGBASE
000359: 10,2273           62276                           AD       BIT14COM
000360: 10,2274           10000                           CCS      A
000361: 10,2275           12276                           NOOP                                           #  ***** CANT GET HERE *****
000362: 10,2276           17777        BIT14COM           OCT      17777                                 #  ***** CANT GET HERE *****
000363: 10,2277           12303                           TCF      BELOW4                                #  NO WE NEED ONLY SET TBASE
000364:
000365: 10,2300           00006        BELOW3             EXTEND                                         #  SET LONGBASE
000366: 10,2301           30025                           DCA      TIME2
000367: 10,2302           53151                           DXCH     LONGBASE
000368:
000369: 10,2303           40062        BELOW4             CS       TEMPP                                 #  AND STORE THE FINAL PART OF THE PHASE
000370: 10,2304           50061                           NDX      TEMPG
000371: 10,2305           54747                           TS       -PHASE1    -2
000372:
000373: 10,2306           30002                           CA       Q
000374: 10,2307           22073                           LXCH     TEMPBBCN
000375: 10,2310           00003                           RELINT
000376: 10,2311           52006                           DTCB


000378: 10,2312           22073        CON2               LXCH     TEMPBBCN
000379:
000380: 10,2313           30062                           CA       TEMPP
000381: 10,2314           50061                           NDX      TEMPG
000382: 10,2315           54750                           TS       PHASE1     -2
000383:
000384: 10,2316           30070                           CA       TEMPPR
000385: 10,2317           50061                           NDX      TEMPG
000386: 10,2320           55051                           TS       PHSPRDT1   -2
000387:
000388: 10,2321           00006                           EXTEND
000389: 10,2322           30064                           DCA      TEMPNM
000390: 10,2323           50061                           NDX      TEMPG
000391: 10,2324           53435                           DXCH     PHSNAME1   -2
000392:
000393: 10,2325           12247                           TCF      BELOW1
000394:
000395:    7753                                           BLOCK    03
000396:    6000                                           SETLOC   FFTAG6
000397:    6000                                           BANK
000398:
000399:    7753                                           COUNT*   $$/PHASE
000400:    7753           74740        CHECKB             MASK     BIT12                                 #  SINCE THIS IS OF TYPE B, THIS BIT SHOULD
000401:    7754           10000                           CCS      A                                     #  BE HERE IF WE ARE TO GET A NEW PRIORITY
000402:    7755           15423                           TCF      GETPRIO                               #  IT IS, SO GET NEW PRIORITY
000403:
000404:    7756           15402                           TCF      OLDPRIO                               #  IT ISN:T, USE THE OLD PRIORITY
000405:
000406:

End of include-file PHASE_TABLE_MAINTENANCE.agc.  Parent file is MAIN.agc


