
Source Code


000002:                                                                                                  ## Copyright:   Public domain.
000003:                                                                                                  ## Filename:    RADAR_LEADIN_ROUTINES.agc
000004:                                                                                                  ## Purpose:     A section of the reconstructed source code for Luminary 130.
000005:                                                                                                  ##              This was the original program released for the Apollo 13 LM,
000006:                                                                                                  ##              although several more revisions would follow. It has been
000007:                                                                                                  ##              reconstructed from a listing of Luminary 131, from which it
000008:                                                                                                  ##              differs on only two lines in P70-P71. The difference is
000009:                                                                                                  ##              described in detail in Luminary memo #129, which was used
000010:                                                                                                  ##              to perform the reconstruction. This file is intended to be a
000011:                                                                                                  ##              faithful reconstruction, except that the code format has been
000012:                                                                                                  ##              changed to conform to the requirements of the yaYUL assembler
000013:                                                                                                  ##              rather than the original YUL assembler.
000014:                                                                                                  ## Reference:   pp. 494-495
000015:                                                                                                  ## Contact:     Ron Burkey <info@sandroid.org>.
000016:                                                                                                  ## Website:     www.ibiblio.org/apollo/index.html
000017:                                                                                                  ## Mod history: 05/14/03 RSB.   Began transcribing.
000018:                                                                                                  ##              05/14/05 RSB    Corrected website reference above.
000019:                                                                                                  ##              2017-01-06 RSB  Page numbers now agree with those on the
000020:                                                                                                  ##                              original harcopy, as opposed to the PDF page
000021:                                                                                                  ##                              numbers in 1701.pdf.
000022:                                                                                                  ##              2017-02-24 RSB  Proofed comment text using octopus/ProoferComments.
000023:                                                                                                  ##              2017-03-01 RSB  Fixed a comment-text error found in diff'ing vs Luminary 116.
000024:                                                                                                  ##              2018-09-04 MAS  Copied from Luminary 131 for Luminary 130.
000025:


000027: 25,2003                                           BANK     25
000028: 25,2000                                           SETLOC   RRLEADIN
000029: 25,2000                                           BANK
000030:
000031: 25,2003  E4,1600                                  EBANK=   RSTACK
000032:
000033:                                                                                                  #  RADAR SAMPLING LOOP.
000034: 25,2003                                           COUNT*   $$/RLEAD
000035: 25,2003           11777        RADSAMP            CCS      RSAMPDT                               #  TIMES NORMAL ONCE-PER-SECOND SAMPLING.
000036: 25,2004           12006                           TCF      +2
000037: 25,2005           15261                           TCF      TASKOVER                              #  +0 INSERTED MANUALLY TERMINATES TEST.
000038:
000039: 25,2006           05203                           TC       WAITLIST
000040: 25,2007  E4,1600                                  EBANK=   RSTACK
000041: 25,2007           02003 52064                     2CADR    RADSAMP
000042:
000043: 25,2011           37716                           CAF      PRIO25
000044: 25,2012           05072                           TC       NOVAC
000045: 25,2013  E4,1600                                  EBANK=   RSTACK
000046: 25,2013           02023 52064                     2CADR    DORSAMP
000047:
000048: 25,2015           34736                           CAF      BIT14                                 #  FOR CYCLIC SAMPLING, RTSTDEX=
000049: 25,2016           00006                           EXTEND                                         #  RTSTLOC/2 + RTSTBASE
000050: 25,2017           71776                           MP       RTSTLOC
000051: 25,2020           61775                           AD       RTSTBASE                              #  0 FOR RR, 2 FOR LR.
000052: 25,2021           55773                           TS       RTSTDEX
000053: 25,2022           15261                           TCF      TASKOVER
000054:
000055:                                                                                                  #  DO THE ACTUAL RADAR SAMPLE.
000056:
000057: 25,2023           02060        DORSAMP            TC       VARADAR                               #  SELECTS VARIABLE RADAR CHANNEL.
000058: 25,2024           04616                           TC       BANKCALL
000059: 25,2025           17705                           CADR     RADSTALL
000060:
000061: 25,2026           25575                           INCR     RFAILCNT                              #  ADVANCE FAIL COUNTER BUT ACCEPT BAD DATA
000062:
000063: 25,2027           00004        DORSAMP2           INHINT
000064: 25,2030           30101                           CA       FLAGWRD5                              #  DON'T UPDATE RSTACK IF IN R77.
000065: 25,2031           74741                           MASK     R77FLBIT
000066: 25,2032           10000                           CCS      A
000067: 25,2033           12050                           TCF      R77IN
000068:
000069: 25,2034           53101                           DXCH     SAMPLSUM
000070: 25,2035           51776                           INDEX    RTSTLOC
000071: 25,2036           53601                           DXCH     RSTACK
000072:
000073: 25,2037           30110                           CA       RADMODES
000074: 25,2040           00006                           EXTEND
000075: 25,2041           06033                           RXOR     CHAN33


000077: 25,2042           74746                           MASK     BIT6
000078: 25,2043           00006                           EXTEND
000079: 25,2044           12050                           BZF      R77IN
000080:
000081: 25,2045           05567                           TC       ALARM
000082: 25,2046           00522                           OCT      522
000083: 25,2047           25575                           INCR     RFAILCNT
000084:
000085: 25,2050           41776        R77IN              CS       RTSTLOC                               #  CYCLE RTSTLOC
000086: 25,2051           61774                           AD       RTSTMAX
000087: 25,2052           00006                           EXTEND
000088: 25,2053           12056                           BZF      +3
000089: 25,2054           31776                           CA       RTSTLOC
000090: 25,2055           64752                           AD       TWO                                   #  STORAGE IS DP
000091: 25,2056           55776                           TS       RTSTLOC
000092: 25,2057           15155                           TCF      ENDOFJOB                              #  CONTINUOUS SAMPLING AND 2N TRIES - GONE.
000093:
000094:                                                                                                  #  VARIABLE RADAR DATA CALLER FOR ONE MEASUREMENT ONLY.
000095:
000096: 25,2060           34753        VARADAR            CAF      ONE                                   #  WILL BE SENT TO RADAR ROUTINE IN A BY
000097: 25,2061           54133                           TS       BUF2                                  #  SWCALL.
000098: 25,2062           51773                           INDEX    RTSTDEX
000099: 25,2063           32065                           CAF      RDRLOCS
000100: 25,2064           14622                           TCF      SWCALL                                #  NOT TOUCHING Q.
000101:
000102: 25,2065           53114        RDRLOCS            CADR     RRRANGE                               #  = 0
000103: 25,2066           53112                           CADR     RRRDOT                                #  = 1
000104: 25,2067           53110                           CADR     LRVELX                                #  = 2
000105: 25,2070           53106                           CADR     LRVELY                                #  = 3
000106: 25,2071           53104                           CADR     LRVELZ                                #  = 4
000107: 25,2072           53102                           CADR     LRALT                                 #  = 5
000108:
000109:

End of include-file RADAR_LEADIN_ROUTINES.agc.  Parent file is MAIN.agc


