
Source Code


000002:                                                                                                  ## Copyright:   Public domain.
000003:                                                                                                  ## Filename:    RCS_FAILURE_MONITOR.agc
000004:                                                                                                  ## Purpose:     A section of the reconstructed source code for Luminary 130.
000005:                                                                                                  ##              This was the original program released for the Apollo 13 LM,
000006:                                                                                                  ##              although several more revisions would follow. It has been
000007:                                                                                                  ##              reconstructed from a listing of Luminary 131, from which it
000008:                                                                                                  ##              differs on only two lines in P70-P71. The difference is
000009:                                                                                                  ##              described in detail in Luminary memo #129, which was used
000010:                                                                                                  ##              to perform the reconstruction. This file is intended to be a
000011:                                                                                                  ##              faithful reconstruction, except that the code format has been
000012:                                                                                                  ##              changed to conform to the requirements of the yaYUL assembler
000013:                                                                                                  ##              rather than the original YUL assembler.
000014:                                                                                                  ## Reference:   pp. 192-194
000015:                                                                                                  ## Contact:     Ron Burkey <info@sandroid.org>.
000016:                                                                                                  ## Website:     www.ibiblio.org/apollo/index.html
000017:                                                                                                  ## Mod history: 05/05/03 RSB.   Began transcribing.
000018:                                                                                                  ##              05/14/05 RSB    Corrected website references above.
000019:                                                                                                  ##              2017-01-06 RSB  Page numbers now agree with those on the
000020:                                                                                                  ##                              original harcopy, as opposed to the PDF page
000021:                                                                                                  ##                              numbers in 1701.pdf.
000022:                                                                                                  ##              2017-02-16 RSB  Proofed comment text using octopus/ProoferComments.
000023:                                                                                                  ##              2017-03-14 RSB  Comment-text fixes noted in proofing Luminary 116.
000024:                                                                                                  ##              2017-08-18 RSB  Comment-text bug identified in ZERLINA 56.
000025:                                                                                                  ##              2018-09-04 MAS  Copied from Luminary 131 for Luminary 130.
000026:


000028:                                                                                                  #  PROGRAM DESCRIPTION
000029:
000030:                                                                                                  #  AUTHOR: J S MILLER
000031:
000032:                                                                                                  #  MODIFIED 6 MARCH 1968 BY P S WEISSMAN TO SET UP JOB FOR 1/ACCS WHEN THE MASKS ARE CHANGED.
000033:
000034:                                                                                                  #  THIS ROUTINE IS ATTACHED TO T4RUPT, AND IS ENTERED EVERY 480 MS.  ITS FUNCTION IS TO EXAMINE THE LOW 8 BITS
000035:                                                                                                  #  OF CHANNEL 32 TO SEE IF ANY ISOLATION-VALVE CLOSURE BITS HAVE APPEARED OR DISAPPEARED (THE CREW IS WARNED OF JET
000036:                                                                                                  #  FAILURES BY LAMPS LIT BY THE GRUMMAN FAILURE-DETECTION CIRCUITRY; THEY MAY RESPOND BY OPERATING SWITCHES WHICH
000037:                                                                                                  #  ISOLATE PAIRS OF JETS FROM THE PROPELLANT TANKS AND SET BITS IN CHANNEL 32).  IN THE EVENT THAT CHANNEL 32 BITS
000038:                                                                                                  #  DIFFER FROM 'PVALVEST', THE RECORD OF ACTIONS TAKEN BY THIS ROUTINE, THE APPROPRIATE BITS IN 'CH5MASK' &
000039:                                                                                                  #  'CH6MASK', USED BY THE DAP JET-SELECTION LOGIC, ARE UPDATED, AS IS 'PVALVEST'.  TO SPEED UP & SHORTEN THE
000040:                                                                                                  #  ROUTINE, NO MORE THAN ONE CHANGE IS ACCEPTED PER ENTRY.  THE HIGHEST-NUMBERED BIT IN CHANNEL 32 WHICH REQUIRES
000041:                                                                                                  #  ACTION IS THE ONE PROCESSED.
000042:
000043:                                                                                                  #  THE CODING IN THE FAILURE MONITOR HAS BEEN WRITTEN SO AS TO HAVE ALMOST COMPLETE RESTART PROTECTION.  FOR
000044:                                                                                                  #  EXAMPLE, NO ASSUMPTION IS MADE WHEN SETTING A 'CH5MASK' BIT TO 1 THAT THE PREVIOUS STATE IS 0, ALTHOUGH IT OF
000045:                                                                                                  #  COURSE SHOULD BE.  ONE CASE WHICH MAY BE SEEN TO EVADE PROTECTION IS THE OCCURRENCE OF A RESTART AFTER UPDATING
000046:                                                                                                  #  ONE OR BOTH DAP MASK-WORDS BUT BEFORE UPDATING 'PVALVEST', COUPLED WITH A CHANGE IN THE VALVE-BIT BACK TO ITS
000047:                                                                                                  #  FORMER STATE.  THE CONSEQUENCE OF THIS IS THAT THE NEXT ENTRY WOULD NOT SEE THE CHANGE INCOMPLETELY INCORP-
000048:                                                                                                  #  ORATED BY THE LAST PASS (BECAUSE IT WENT AWAY AT JUST THE RIGHT TIME), BUT THE DAP MASK-WORDS WILL BE INCORRECT.
000049:                                                                                                  #  THIS COMBINATION OF EVENTS SEEMS QUITE REMOTE, BUT NOT IMPOSSIBLE UNLESS THE CREW OPERATES THE SWITCHES AT HALF-
000050:                                                                                                  #  SECOND INTERVALS OR LONGER.  IN ANY EVENT, A DISAGREEMENT BETWEEN REALITY AND THE DAP MASKS WILL BE CURED IF
000051:                                                                                                  #  THE MISINTERPRETED SWITCH IS REVERSED AND THEN RESTORED TO ITS CORRECT POSITION (SLOWLY).
000052:
000053:                                                                                                  #  CALLING SEQUENCE:
000054:
000055:                                                                                                  #        TCF     RCSMONIT                (IN INTERRUPT MODE, EVERY 480 MS.)
000056:
000057:                                                                                                  #  EXIT: TCF RCSMONEX (ALL PATHS EXIT VIA SUCH AN INSTRUCTION)
000058:
000059: 06,3164     5270               RCSMONEX           EQUALS   RESUME
000060:
000061:                                                                                                  #  ERASABLE INITIALIZATION REQUIRED:
000062:
000063:                                                                                                  #        VIA FRESH START:        PVALVEST        =       +0      (ALL JETS ENABLED)
000064:                                                                                                  #                                CH5MASK,CH6MASK =       +0      (ALL JETS OK)
000065:
000066:                                                                                                  #  OUTPUT:       CH5MASK & CH6MASK UPDATED (1'S WHERE JETS NOT TO BE USED, IN CHANNEL 5 & 6 FORMAT)
000067:                                                                                                  #                PVALTEST UPDATED (1,S WHEN VALVE CLOSURES HAVE BEEN TRANSLATED INTO CH5MASK & CH6MASK; CHAN 32 FORMAT)
000068:                                                                                                  #                JOB TO DO 1/ACCS.
000069:
000070:                                                                                                  #  DEBRIS:  A, L, Q AND DEBRIS OF NOVAC.
000071:
000072:                                                                                                  #  SUBROUTINE CALLED:  NOVAC.
000073:
000074: 06,3164     1257                                  EBANK=   CH5MASK
000075:
000076: 23,2000                                           BANK     23
000077: 06,2000                                           SETLOC   RCSMONT
000078: 06,2000                                           BANK


000080: 06,3164                                           COUNT*   $$/T4RCS
000081:
000082: 06,3164           44755        RCSMONIT           CS       ZERO
000083: 06,3165           00006                           EXTEND
000084: 06,3166           06032                           RXOR     CHAN32                                #  PICK UP + INVERT INVERTED CHANNEL 32.
000085: 06,3167           74357                           MASK     LOW8                                  #  KEEP JET-FAIL BITS ONLY.
000086: 06,3170           54002                           TS       Q
000087:
000088: 06,3171           41273                           CS       PVALVEST                              #        -   -
000089: 06,3172           70002                           MASK     Q                                     #  FORM PC + PC.
000090: 06,3173           54001                           TS       L                                     #        (P = PREVIOUS ISOLATION VALVE STATE,
000091: 06,3174           40002                           CS       Q                                     #         C = CURRENT VALVE STATE (CH32)).
000092: 06,3175           71273                           MASK     PVALVEST
000093: 06,3176           26001                           ADS      L                                     #  RESULT NZ INDICATES ACTION REQUIRED.
000094:
000095: 06,3177           00006                           EXTEND
000096: 06,3200           15270                           BZF      RCSMONEX                              #  QUIT IF NO ACTION REQUIRED.
000097:
000098: 06,3201           00006                           EXTEND
000099: 06,3202           74745                           MP       BIT7                                  #  MOVE BITS 8-1 OF A TO 14-7 OF L.
000100: 06,3203           56001                           XCH      L                                     #  ZERO TO L IN THE PROCESS.
000101:
000102: 06,3204           24001                 -3        INCR     L
000103: 06,3205           60000                           DOUBLE                                         #  BOUND TO GET OVERFLOW IN THIS LOOP,
000104: 06,3206           54000                           OVSK                                           #  SINCE WE ASSURED INITIAL NZ IN A.
000105: 06,3207           13204                           TCF      -3
000106:
000107: 06,3210           50001                           INDEX    L
000108: 06,3211           34743                           CA       BIT8       -1                         #  SAVE THE RELEVANT BIT (8-1).
000109: 06,3212           54002                           TS       Q
000110: 06,3213           71273                           MASK     PVALVEST                              #  LOOK AT PREVIOUS VALVE STATE BIT.
000111: 06,3214           10000                           CCS      A
000112: 06,3215           13231                           TCF      VOPENED                               #  THE VALVE HAS JUST BEEN OPENED.
000113:
000114: 06,3216           41257                           CS       CH5MASK                               #  THE VALVE HAS JUST BEEN CLOSED.
000115: 06,3217           50001                           INDEX    L
000116: 06,3220           73250                           MASK     5FAILTAB
000117: 06,3221           27257                           ADS      CH5MASK                               #  SET INHIBIT BIT FOR CHANNEL 5 JET.
000118:
000119: 06,3222           41260                           CS       CH6MASK
000120: 06,3223           50001                           INDEX    L
000121: 06,3224           73260                           MASK     6FAILTAB
000122: 06,3225           27260                           ADS      CH6MASK                               #  SET INGIBIT BIT FOR CHANNEL 6 JET.
000123:
000124: 06,3226           30002                           CA       Q
000125: 06,3227           27273                           ADS      PVALVEST                              #  RECORD ACTION TAKEN.
000126:
000127: 06,3230           13244                           TCF      1/ACCFIX                              #  SET UP 1/ACCJOB AND EXIT.
000128:


000130: 06,3231           50001        VOPENED            INDEX    L                                     #  A VALVE HAS JUST BEEN OPENED.
000131: 06,3232           43250                           CS       5FAILTAB
000132: 06,3233           71257                           MASK     CH5MASK
000133: 06,3234           55257                           TS       CH5MASK                               #  REMOVE INHIBIT BIT FOR CHANNEL 5 JET.
000134:
000135: 06,3235           50001                           INDEX    L
000136: 06,3236           43260                           CS       6FAILTAB
000137: 06,3237           71260                           MASK     CH6MASK
000138: 06,3240           55260                           TS       CH6MASK                               #  REMOVE INHIBIT BIT FOR CHANNEL 6 JET.
000139:
000140: 06,3241           40002                           CS       Q
000141: 06,3242           71273                           MASK     PVALVEST
000142: 06,3243           55273                           TS       PVALVEST                              #  RECORD ACTION TAKEN.
000143:
000144: 06,3244           37720        1/ACCFIX           CAF      PRIO27                                #  SET UP 1/ACCS SO THAT THE SWITCH CURVES
000145: 06,3245           05072                           TC       NOVAC                                 #        FOR TJETLAW CAN BE MODIFIED IF CH5MASK
000146: 06,3246  E6,1536                                  EBANK=   AOSQ                                  #        HAS BEEN ALTERED.
000147: 06,3246           03652 42106                     2CADR    1/ACCJOB
000148:
000149: 06,3250           15270                           TCF      RCSMONEX                              #  EXIT.
000150:
000151: 06,3251                        5FAILTAB           EQUALS   -1                                    #  CH 5 JET BIT CORRESPONDING TO CH 32 BIT:
000152: 06,3251           00040                           OCT      00040                                 #  8
000153: 06,3252           00020                           OCT      00020                                 #  7
000154: 06,3253           00100                           OCT      00100                                 #  6
000155: 06,3254           00200                           OCT      00200                                 #  5
000156: 06,3255           00010                           OCT      00010                                 #  4
000157: 06,3256           00001                           OCT      00001                                 #  3
000158: 06,3257           00004                           OCT      00004                                 #  2
000159: 06,3260           00002                           OCT      00002                                 #  1
000160:
000161: 06,3261                        6FAILTAB           EQUALS   -1                                    #  CH 6 JET BIT CORRESPONDING TO CH 32 BIT:
000162: 06,3261           00010                           OCT      00010                                 #  8
000163: 06,3262           00020                           OCT      00020                                 #  7
000164: 06,3263           00004                           OCT      00004                                 #  6
000165: 06,3264           00200                           OCT      00200                                 #  5
000166: 06,3265           00001                           OCT      00001                                 #  4
000167: 06,3266           00002                           OCT      00002                                 #  3
000168: 06,3267           00040                           OCT      00040                                 #  2
000169: 06,3270           00100                           OCT      00100                                 #  1
000170:
000171:

End of include-file RCS_FAILURE_MONITOR.agc.  Parent file is MAIN.agc


