
Source Code


000002:                                                                                                  ## Copyright:   Public domain.
000003:                                                                                                  ## Filename:    RESTART_TABLES.agc
000004:                                                                                                  ## Purpose:     A section of the reconstructed source code for Luminary 130.
000005:                                                                                                  ##              This was the original program released for the Apollo 13 LM,
000006:                                                                                                  ##              although several more revisions would follow. It has been
000007:                                                                                                  ##              reconstructed from a listing of Luminary 131, from which it
000008:                                                                                                  ##              differs on only two lines in P70-P71. The difference is
000009:                                                                                                  ##              described in detail in Luminary memo #129, which was used
000010:                                                                                                  ##              to perform the reconstruction. This file is intended to be a
000011:                                                                                                  ##              faithful reconstruction, except that the code format has been
000012:                                                                                                  ##              changed to conform to the requirements of the yaYUL assembler
000013:                                                                                                  ##              rather than the original YUL assembler.
000014:                                                                                                  ## Reference:   pp. 239-244
000015:                                                                                                  ## Contact:     Ron Burkey <info@sandroid.org>.
000016:                                                                                                  ## Website:     www.ibiblio.org/apollo/index.html
000017:                                                                                                  ## Mod history: 05/06/03 RSB.   Began transcribing.
000018:                                                                                                  ##              05/14/05 RSB    Corrected website references above.
000019:                                                                                                  ##              2017-01-06 RSB  Page numbers now agree with those on the
000020:                                                                                                  ##                              original harcopy, as opposed to the PDF page
000021:                                                                                                  ##                              numbers in 1701.pdf.
000022:                                                                                                  ##              2017-02-08 RSB  Comment-text fixes identified while proofing Artemis 72.
000023:                                                                                                  ##              2017-02-20 RSB  Proofed comment text using octopus/ProoferComments.
000024:                                                                                                  ##              2017-03-01 RSB  Restored a period which was present in both Luminary 116
000025:                                                                                                  ##                              and 210, and was therefore presumably missing due to a
000026:                                                                                                  ##                              printer problem.
000027:                                                                                                  ##              2017-03-13 RSB  GOP00FIX -> GOPOOFIX.
000028:                                                                                                  ##              2018-09-04 MAS  Copied from Luminary 131 for Luminary 130.
000029:


000031:                                                                                                  #  RESTART TABLES
000032:                                                                                                  #  ------------------
000033:
000034:                                                                                                  #  THERE ARE TWO FORMS OF RESTART TABLES FOR EACH GROUP.  THEY ARE KNOWN AS THE EVEN RESTART TABLES AND THE ODD
000035:                                                                                                  #  RESTART TABLES.  THE ODD TABLES HAVE ONLY ONE ENTRY OF THREE LOCATIONS WHILE THE EVEN TABLES HAVE TWO ENTRIES
000036:                                                                                                  #  EACH USING THREE LOCATIONS.  THE INFORMATION AS TO WHETHER IT IS A JOB, WAITLIST, OR A LONGCALL IS GIVEN BY THE
000037:                                                                                                  #  WAY THINGS ARE PUT IN TO THE TABLES.
000038:
000039:                                                                                                  #  A JOB HAS ITS PRIORITY STORED IN PRDTTAB OF THE CORRECT PHASE SPOT - A POSITIVE PRIORITY INDICATES A
000040:                                                                                                  #  FINDVAC JOB, A NEGATIVE PRIORITY A NOVAC.  THE 2CADR OF THE JOB IS STORED IN THE CADRTAB.
000041:                                                                                                  #  FOR EXAMPLE,
000042:
000043:                                                                                                  #                5.7SPOT         OCT     23000
000044:                                                                                                  #                                2CADR   SOMEJOB
000045:


000049:                                                                                                  #  A RESTART OF GROUP 5 WITH PHASE SEVEN WOULD THEN CAUSE SOMEJOB TO BE RESTARTED AS A FINDVAC WITH PRIORITY 23.
000050:
000051:                                                                                                  #                5.5SPOT         OCT     -23000
000052:                                                                                                  #                                2CADR   ANYJOB
000053:
000054:                                                                                                  #  HERE A RESTART OF GROUP 5 WITH PHASE 7 WOULD CAUSE ANYJOB TO BE RESTARTED AS A NOVAC WITH PRIORITY 23.
000055:                                                                                                  #  A LONGCALL HAS ITS GENADR OF ITS 2CADR STORED NEGATIVELY AND ITS BBCON STORED POSITIVELY.  IN ITS PRDTTAB IS
000056:                                                                                                  #  PLACED THE LOCATION OF A DP REGISTER THAT CONTAINS THE DELTA TIME THAT LONGCALL HAD BEEN ORIGINALLY STARTED
000057:                                                                                                  #  WITH.  EXAMPLE,
000058:
000059:                                                                                                  #                3.6SPOT         GENADR  DELTAT
000060:                                                                                                  #                                -GENADR LONGTASK
000061:                                                                                                  #                                BBCON   LONGTASK
000062:                                                                                                  #                                OCT     31000
000063:                                                                                                  #                                2CADR   JOBAGAIN
000064:
000065:                                                                                                  #  THIS WOULD START UP LONGTASK AT THE APPROPRIATE TIME, OR IMMEDIATELY IF THE TIME HAD ALREADY PASSED.  IT SHOULD
000066:                                                                                                  #  BE NOTED THAT IF DELTAT IS IN A SWITCHED E BANK, THIS INFORMATOIN SHOULD BE IN THE BBCON OF THE 2CADR OF THE
000067:                                                                                                  #  TASK.  FROM ABOVE, WE SEE THAT THE SECOND PART O FTHIS PHASE WOULD BE STARTED AS A JOB WITH A PRIORITY OF 31.
000068:
000069:                                                                                                  #  WAITLIST CALLS ARE IDENTIFIED BY THE FACT THAT THEIR 2CADR IS STORED NEGATIVELY.  IF PRDTTAB OF THE PHASE SPOT
000070:                                                                                                  #  IS POSITIVE, THEN IT CONTAINS THE DELTA TIME, IF PRDTTAB IS NEGATIVE THEN IT IS THE -GENADR OF AN ERASABLE
000071:                                                                                                  #  LOCATION CONTAINING THE DELTA TIME, THAT IS, THE TIME IS STORED INDIRECTLY.  IT SHOULD BE NOTED AS ABOVE, THAT
000072:                                                                                                  #  IF THE TIME IS STORED INDIRECTLY, THE BBCON MUST CONTAIN THE NECESSARY E BANK INFORMATION IF APPLICABLE.  WITH
000073:                                                                                                  #  WAITLIST WE HAVE ONE FURTHER OPTION, IF -0 IS STORED IN PRDTTAB, IT WILL CAUSE AN IMMEDIATE RESTART OF THE
000074:                                                                                                  #  TASK.  EXAMPLES,
000075:
000076:                                                                                                  #                                OCT     77777           THIS WILL CAUSE AN IMMEDIATE RESTART
000077:                                                                                                  #                                -2CADR  ATASK           OF THE TASK :ATASK:
000078:                                                                                                  #
000079:                                                                                                  #                                DEC     200             IF THE TIME OF THE 2 SECONDS SINCE DUMMY
000080:                                                                                                  #                                -2CADR  DUMMY           WAS PUT ON WAITLIST IS UP, IT WILL BEGIN
000081:                                                                                                  #                                                        IN 10 MS, OTHERWISE IT WILL BEGIN WHEN
000082:                                                                                                  #                                                        IT NORMALLY WOULD HAVE BEGUN.


000084:                                                                                                  #                                -GENADR DTIME           WHERE DTIME CONTAINS THE DELTA TIME
000085:                                                                                                  #                                -2CADR  TASKTASK        OTHERWISE THIS IS AS ABOVE
000086:
000087:                                                                                                  #  ***** NOW THE TABLES THEMSELVES *****
000088:
000089: 01,2002                                           BANK     01
000090: 01,2000                                           SETLOC   RESTART
000091: 01,2000                                           BANK
000092:
000093: 01,2002                        PRDTTAB            EQUALS   12000                                 #  USED TO FIND THE PRIORITY OR DELTATIME
000094: 01,2002                        CADRTAB            EQUALS   12001                                 #  THIS AND THE NEXT RELATIVE LOC CONTAIN
000095:                                                                                                  #  RESTART 2CADR
000096:
000097: 01,2002                                           COUNT*   $$/RSTAB                              #  TABLES IN BANK 1.
000098: 01,2002           00010        SIZETAB            TC       1.2SPOT    -12006
000099: 01,2003           00020                           TC       1.3SPOT    -12004
000100: 01,2004           00010                           TC       2.2SPOT    -12006
000101: 01,2005           00026                           TC       2.3SPOT    -12004
000102: 01,2006           00010                           TC       3.2SPOT    -12006
000103: 01,2007           00056                           TC       3.3SPOT    -12004
000104: 01,2010           00062                           TC       4.2SPOT    -12006
000105: 01,2011           00072                           TC       4.3SPOT    -12004
000106: 01,2012           00145                           TC       5.2SPOT    -12006
000107: 01,2013           00163                           TC       5.3SPOT    -12004
000108: 01,2014           00010                           TC       6.2SPOT    -12006
000109: 01,2015           00174                           TC       6.3SPOT    -12004
000110: 01,2016           21000        1.2SPOT            OCT      21000                                 #  A DUMMY EXAMPLE TO BE REPLACED AS SOON
000111: 01,2017     0074                                  EBANK=   STATE
000112: 01,2017           05155 04060                     2CADR    ENDOFJOB                              #  AS THERE IS A LEGITIMATE 1.2SPOT
000113:
000114: 01,2021           00144                           DEC      100        B-14
000115: 01,2022     0074                                  EBANK=   STATE
000116: 01,2022           05261 04060                     2CADR    TASKOVER
000117:
000118:                                                                                                  #  ANY MORE GROUP 1.EVEN RESTART VALUES SHOULD GO HERE
000119:
000120: 01,2024           76300        1.3SPOT            -GENADR  SAVET-30
000121: 01,2025  E7,1515                                  EBANK=   DVCNTR
000122: 01,2025           75427 03710                     -2CADR   ULLGTASK
000123:
000124: 01,2027           32000        1.5SPOT            OCT      32000
000125: 01,2030  E7,1654                                  EBANK=   HMEAS
000126: 01,2030           03630 66067                     2CADR    REREPOS
000127:
000128:                                                                                                  #  ANY MORE GROUP 1.ODD RESTART VALUES SHOULD GO HERE
000129:
000130: 01,2032  01,2016               2.2SPOT            EQUALS   1.2SPOT
000131:
000132:                                                                                                  #  ANY MORE GROUP 2.EVEN RESTART VALUES SHOULD GO HERE
000133:
000134: 01,2032           02627        2.3SPOT            GENADR   600SECS


000136: 01,2033           75175                           -GENADR  STATEINT
000137: 01,2034  E3,1554                                  EBANK=   RRECTCSM
000138: 01,2034           26063                           BBCON    STATEINT
000139:
000140: 01,2035           05000        2.5SPOT            OCT      05000
000141: 01,2036  E3,1554                                  EBANK=   RRECTCSM
000142: 01,2036           02611 26063                     2CADR    STATINT1
000143:
000144: 01,2040           02734        2.7SPOT            DEC      1500       B-14
000145: 01,2041  E7,1456                                  EBANK=   LOSCOUNT
000146: 01,2041           75533 27710                     -2CADR   P20LEMC1
000147:
000148: 01,2043           14000        2.11SPOT           OCT      14000
000149: 01,2044  E7,1762                                  EBANK=   P21TIME
000150: 01,2044           02414 50067                     2CADR    P25LEM1
000151:
000152: 01,2046           10000        2.13SPOT           OCT      10000
000153: 01,2047  E7,1456                                  EBANK=   LOSCOUNT
000154: 01,2047           02223 54067                     2CADR    RELINUS
000155:
000156: 01,2051           26000        2.15SPOT           OCT      26000
000157: 01,2052  E7,1456                                  EBANK=   LOSCOUNT
000158: 01,2052           02654 50067                     2CADR    R22RSTRT
000159:
000160: 01,2054           77777        2.17SPOT           OCT      77777
000161: 01,2055  E7,1700                                  EBANK=   VGPREV
000162: 01,2055           75436 03710                     -2CADR   REDO2.17
000163:
000164: 01,2057           00031        2.21SPOT           DEC      25         B-14
000165: 01,2060  E7,1515                                  EBANK=   DVCNTR
000166: 01,2060           75771 35710                     -2CADR   R10,R11
000167:
000168:                                                                                                  #  ANY MORE GROUP 2.ODD RESTART VALUES SHOULD GO HERE.
000169:
000170: 01,2062  01,2016               3.2SPOT            EQUALS   1.2SPOT
000171:
000172:                                                                                                  #  ANY MORE GROUP 3.EVEN RESTART VALUES SHOULD GO HERE
000173:
000174: 01,2062           76355        3.3SPOT            -GENADR  ZOOMTIME
000175: 01,2063  E7,1515                                  EBANK=   DVCNTR
000176: 01,2063           74110 05710                     -2CADR   ZOOM
000177:
000178: 01,2065           20000        3.5SPOT            OCT      20000
000179: 01,2066  E7,1453                                  EBANK=   TTOGO
000180: 01,2066           02540 56067                     2CADR    S40.13
000181:
000182:                                                                                                  #  ANY MORE GROUP 3.ODD RESTART VALUES SHOULD GO HERE
000183:
000184: 01,2070           04704        4.2SPOT            DEC      2500       B-14
000185: 01,2071  E7,1453                                  EBANK=   TTOGO


000187: 01,2071           75423 03710                     -2CADR   TIG-5
000188:
000189: 01,2073           77777                           OCT      77777
000190: 01,2074  E7,1453                                  EBANK=   TTOGO
000191: 01,2074           75433 03710                     -2CADR   REDO4.2
000192:
000193:                                                                                                  #  ANY MORE GROUP 4.EVEN RESTART VALUES SHOULD GO HERE
000194:
000195: 01,2076           25000        4.3SPOT            OCT      25000
000196: 01,2077  E7,1515                                  EBANK=   DVCNTR
000197: 01,2077           03533 64067                     2CADR    GOABORT
000198:
000199: 01,2101           00062        4.5SPOT            DEC      50         B-14
000200: 01,2102  E7,1453                                  EBANK=   TTOGO
000201: 01,2102           75211 03710                     -2CADR   ULLAGOFF
000202:
000203: 01,2104           00764        4.7SPOT            DEC      500        B-14
000204: 01,2105  E7,1515                                  EBANK=   DVCNTR
000205: 01,2105           75370 03710                     -2CADR   TIG-0
000206:
000207: 01,2107           76260        4.11SPOT           -GENADR  TGO        +1
000208: 01,2110  E7,1515                                  EBANK=   DVCNTR
000209: 01,2110           74231 03710                     -2CADR   ENGOFTSK
000210:
000211: 01,2112           12000        4.13SPOT           OCT      12000
000212: 01,2113  E7,1462                                  EBANK=   TRKMKCNT
000213: 01,2113           03227 74067                     2CADR    POSTBURN
000214:
000215: 01,2115           00764        4.15SPOT           DEC      500        B-14
000216: 01,2116  E7,1453                                  EBANK=   TTOGO
000217: 01,2116           75477 03710                     -2CADR   TIG-30
000218:
000219: 01,2120           77777        4.17SPOT           OCT      77777
000220: 01,2121  E7,1515                                  EBANK=   DVCNTR
000221: 01,2121           75423 03710                     -2CADR   TIG-5
000222:
000223: 01,2123           13000        4.21SPOT           OCT      13000
000224: 01,2124  E5,1730                                  EBANK=   STAR
000225: 01,2124           03012 30065                     2CADR    R51.1      +1
000226:
000227: 01,2126           77777        4.23SPOT           OCT      77777
000228: 01,2127  E7,1515                                  EBANK=   DVCNTR
000229: 01,2127           75345 03710                     -2CADR   IGNITION
000230:
000231: 01,2131           01477        4.25SPOT           GENADR   SAVET-30
000232: 01,2132           75535                           -GENADR  TIG-35
000233: 01,2133  E7,1477                                  EBANK=   SAVET-30
000234: 01,2133           74067                           BBCON    TIG-35
000235:


000237: 01,2134           52777        4.27SPOT           OCT      52777
000238: 01,2135  E7,1515                                  EBANK=   DVCNTR
000239: 01,2135           02070 42067                     2CADR    P70A
000240:
000241: 01,2137           52777        4.31SPOT           OCT      52777
000242: 01,2140  E7,1515                                  EBANK=   DVCNTR
000243: 01,2140           02073 42067                     2CADR    P71A
000244:
000245: 01,2142           46777        4.33SPOT           OCT      46777
000246: 01,2143  E7,1515                                  EBANK=   DVCNTR
000247: 01,2143           02024 10067                     2CADR    GOPOOFIX
000248:
000249: 01,2145           46777        4.35SPOT           OCT      46777
000250: 01,2146  E7,1515                                  EBANK=   DVCNTR
000251: 01,2146           05655 04067                     2CADR    GOPOODOO
000252:
000253: 01,2150           52777        4.37SPOT           OCT      52777
000254: 01,2151  E7,1455                                  EBANK=   WHICH
000255: 01,2151           02575 74067                     2CADR    COMFAIL
000256:
000257:                                                                                                  #  ANY MORE 4.ODD RESTART VALUES SHOULD GO HERE.
000258: 01,2153           22000        5.2SPOT            OCT      22000
000259: 01,2154  E7,1515                                  EBANK=   DVCNTR
000260: 01,2154           02463 46067                     2CADR    NORMLIZE
000261:
000262: 01,2156           00310                           DEC      200        B-14
000263: 01,2157  E7,1515                                  EBANK=   DVCNTR
000264: 01,2157           74166 01710                     -2CADR   REREADAC
000265:
000266: 01,2161           00310        5.4SPOT            DEC      200        B-14
000267: 01,2162  E7,1515                                  EBANK=   DVCNTR
000268: 01,2162           74166 01710                     -2CADR   REREADAC
000269:
000270: 01,2164           20000                           OCT      20000
000271: 01,2165  E7,1515                                  EBANK=   DVCNTR
000272: 01,2165           02206 66067                     2CADR    SERVICER
000273:
000274:                                                                                                  #  ANY MORE GROUP 5.EVEN RESTART VALUES SHOULD GO HERE
000275:
000276: 01,2167           00310        5.3SPOT            DEC      200        B-14
000277: 01,2170  E7,1515                                  EBANK=   DVCNTR
000278: 01,2170           74166 01710                     -2CADR   REREADAC
000279:
000280: 01,2172           77777        5.5SPOT            OCT      77777
000281: 01,2173  E7,1515                                  EBANK=   DVCNTR
000282: 01,2173           74326 01710                     -2CADR   REDO5.5
000283:


000285: 01,2175           77777        5.7SPOT            OCT      77777
000286: 01,2176  E7,1515                                  EBANK=   DVCNTR
000287: 01,2176           74361 01710                     -2CADR   BIBIBIAS
000288:
000289:                                                                                                  #  ANY MORE GROUP 5.ODD RESTART VALUES SHOULD GO HERE
000290:
000291: 01,2200  01,2016               6.2SPOT            EQUALS   1.2SPOT
000292: 01,2200           00144        6.3SPOT            DEC      100        B-14
000293: 01,2201  E7,1441                                  EBANK=   TIG
000294: 01,2201           75054 03710                     -2CADR   CLOKTASK
000295:
000296: 01,2203           30000        6.5SPOT            OCT      30000                                 #  PROTECT INCREMENTING OF TIME2,TIME1 BY
000297: 01,2204  E3,1706                                  EBANK=   TEPHEM                                #  P27(UPDATE PROGRAM) VIA V70 OR V73.
000298: 01,2204           03557 10063                     2CADR    TIMEDIDR
000299:
000300: 01,2206           17000        6.7SPOT            OCT      17000
000301: 01,2207  E7,1700                                  EBANK=   VGPREV
000302: 01,2207           03354 74067                     2CADR    REDO6.7
000303:
000304:

End of include-file RESTART_TABLES.agc.  Parent file is MAIN.agc


