
Source Code


000002:                                                                                                  ## Copyright:   Public domain.
000003:                                                                                                  ## Filename:    RESTARTS_ROUTINE.agc
000004:                                                                                                  ## Purpose:     A section of the reconstructed source code for Luminary 130.
000005:                                                                                                  ##              This was the original program released for the Apollo 13 LM,
000006:                                                                                                  ##              although several more revisions would follow. It has been
000007:                                                                                                  ##              reconstructed from a listing of Luminary 131, from which it
000008:                                                                                                  ##              differs on only two lines in P70-P71. The difference is
000009:                                                                                                  ##              described in detail in Luminary memo #129, which was used
000010:                                                                                                  ##              to perform the reconstruction. This file is intended to be a
000011:                                                                                                  ##              faithful reconstruction, except that the code format has been
000012:                                                                                                  ##              changed to conform to the requirements of the yaYUL assembler
000013:                                                                                                  ##              rather than the original YUL assembler.
000014:                                                                                                  ## Reference:   pp. 1295-1300
000015:                                                                                                  ## Contact:     Ron Burkey <info@sandroid.org>.
000016:                                                                                                  ## Website:     www.ibiblio.org/apollo/index.html
000017:                                                                                                  ## Mod history: 06/05/03 RSB.   Began transcribing.
000018:                                                                                                  ##              05/14/05 RSB    Corrected website references above.
000019:                                                                                                  ##              2010-10-25 JL   Added missing # in comment.
000020:                                                                                                  ##              2017-01-06 RSB  Page numbers now agree with those on the
000021:                                                                                                  ##                              original hardcopy, as opposed to the PDF page
000022:                                                                                                  ##                              numbers in 1701.pdf.
000023:                                                                                                  ##              2017-02-27 RSB  Proofed comment text using octopus/ProoferComments.
000024:                                                                                                  ##              2017-03-01 RSB  Fixed lingering comment-text typos.
000025:                                                                                                  ##              2017-03-14 RSB  Comment-text fixes noted in proofing Luminary 116.
000026:                                                                                                  ##              2017-03-16 RSB  Comment-text fixes identified in 5-way
000027:                                                                                                  ##                              side-by-side diff of Luminary 69/99/116/131/210.
000028:                                                                                                  ##              2018-09-04 MAS  Copied from Luminary 131 for Luminary 130.
000029:


000031: 01,3527                                           BANK     01
000032: 01,2000                                           SETLOC   RESTART
000033: 01,2000                                           BANK
000034:
000035: 01,3527  E3,1436                                  EBANK=   PHSNAME1                              #  GOPROG MUST SWITCH TO THIS EBANK
000036:
000037: 01,3527                                           COUNT*   $$/RSROU
000038: 01,3527           30161        RESTARTS           CA       MPAC       +5                         #  GET GROUP NUMBER -1
000039: 01,3530           60000                           DOUBLE                                         #  SAVE FOR INDEXING
000040: 01,3531           54155                           TS       TEMP2G
000041:
000042: 01,3532           33771                           CA       PHS2CADR                              #  SET UP EXIT IN CASE IT IS AN EVEN
000043: 01,3533           54157                           TS       TEMPSWCH                              #  TABLE PHASE
000044:
000045: 01,3534           33566                           CA       RTRNCADR                              #  TO SAVE TIME ASSUME IT WILL GET NEXT
000046: 01,3535           54707                           TS       GOLOC      +2                         #  GROUP AFTER THIS
000047:
000048: 01,3536           30154                           CA       TEMPPHS
000049: 01,3537           75007                           MASK     OCT1400
000050: 01,3540           10000                           CCS      A                                     #  IS IT A VARIABLE OR TABLE RESTART
000051: 01,3541           13552                           TCF      ITSAVAR                               #  IT:S A VARIABLE RESTART
000052:
000053: 01,3542           10154        GETPART2           CCS      TEMPPHS                               #  IS IT AN X.1 RESTART
000054: 01,3543           10000                           CCS      A
000055: 01,3544           13652                           TCF      ITSATBL                               #  NO, ITS A TABLE RESTART
000056:
000057: 01,3545           35024                           CA       PRIO14                                #  IT IS AN X.1 RESTART, THEREFORE START
000058: 01,3546           05105                           TC       FINDVAC                               #  THE DISPLAY RESTART JOB
000059: 01,3547  E3,1400                                  EBANK=   LST1
000060: 01,3547           03040 20103                     2CADR    INITDSP
000061:
000062: 01,3551           03566                           TC       RTRNCADR                              #  FINISHED WITH THIS GROUP, GET NEXT ONE
000063:
000064: 01,3552           75007        ITSAVAR            MASK     OCT1400                               #  IS IT TYPE B ?
000065: 01,3553           10000                           CCS      A
000066: 01,3554           13623                           TCF      ITSLIKEB                              #  YES, IT IS TYPE B
000067:
000068: 01,3555           00006                           EXTEND                                         #  STORE THE JOB (OR TASK) 2CADR FOR EXIT
000069: 01,3556           50155                           NDX      TEMP2G
000070: 01,3557           31437                           DCA      PHSNAME1
000071: 01,3560           52706                           DXCH     GOLOC
000072:
000073: 01,3561           30154                           CA       TEMPPHS                               #  SEE IF THIS IS A JOB, TASK, OR A LONGCAL
000074: 01,3562           74757                           MASK     OCT7
000075: 01,3563           67751                           AD       MINUS2
000076: 01,3564           10000                           CCS      A
000077: 01,3565           13735                           TCF      ITSLNGCL                              #  ITS A LONGCALL
000078:
000079: 01,3566           04631        RTRNCADR           TC       SWRETURN                              #  CANT GET HERE


000081: 01,3567           13571                           TCF      ITSAWAIT
000082:
000083: 01,3570           13636                           TCF      ITSAJOB                               #  ITS A JOB
000084:
000085: 01,3571           33775        ITSAWAIT           CA       WTLTCADR                              #  SET UP WAITLIST CALL
000086: 01,3572           54704                           TS       GOLOC      -1
000087:
000088: 01,3573           50155                           NDX      TEMP2G                                #  DIRECTLY STORED
000089: 01,3574           31053                           CA       PHSPRDT1
000090: 01,3575           10000        TIMETEST           CCS      A                                     #  IS IT AN IMMEDIATE RESTART
000091: 01,3576           24000                           INCR     A                                     #  NO,
000092: 01,3577           13602                           TCF      FINDTIME                              #  FIND OUT WHEN IT SHOULD BEGIN
000093:
000094: 01,3600           15436                           TCF      ITSINDIR                              #  STORED INDIRECTLY
000095:
000096: 01,3601           13621                           TCF      IMEDIATE                              #  IT WANTS AN IMMEDIATE RESTART
000097:
000098:                                                                                                  #  ***** THIS MUST BE IN FIXED FIXED *****
000099:
000100:    5436                                           BLOCK    02
000101:    4000                                           SETLOC   FFTAG2
000102:    4000                                           BANK
000103:
000104:    5436                                           COUNT*   $$/RSROU
000105:    5436           22706        ITSINDIR           LXCH     GOLOC      +1                         #  GET THE CORRECT E BANK IN CASE THIS IS
000106:    5437           22006                           LXCH     BB                                    #  SWITCHED ERRASIBLE
000107:
000108:    5440           50000                           NDX      A                                     #  GET THE TIME INDIRECTLY
000109:    5441           30001                           CA       1
000110:
000111:    5442           22006                           LXCH     BB                                    #  RESTORE THE BB AND GOLOC
000112:    5443           22706                           LXCH     GOLOC      +1
000113:
000114:    5444           13602                           TCF      FINDTIME                              #  FIND OUT WHEN IT SHOULD BEGIN
000115:
000116:                                                                                                  #  ***** YOU MAY RETURN TO SWITCHED FIXED *****
000117:
000118: 01,3602                                           BANK     01
000119: 01,2000                                           SETLOC   RESTART
000120: 01,2000                                           BANK
000121:
000122: 01,3602                                           COUNT*   $$/RSROU
000123: 01,3602           40000        FINDTIME           COM                                            #  MAKE NEGITIVE SINCE IT WILL BE SUBTRACTD
000124: 01,3603           54001                           TS       L                                     #  AND SAVE
000125: 01,3604           50155                           NDX      TEMP2G
000126: 01,3605           41052                           CS       TBASE1
000127: 01,3606           00006                           EXTEND
000128: 01,3607           60025                           SU       TIME1
000129: 01,3610           10000                           CCS      A
000130: 01,3611           40000                           COM


000132: 01,3612           67734                           AD       OCT37776
000133: 01,3613           64753                           AD       ONE
000134: 01,3614           60001                           AD       L
000135: 01,3615           10000                           CCS      A
000136: 01,3616           34755                           CA       ZERO
000137: 01,3617           13621                           TCF      +2
000138: 01,3620           13621                           TCF      +1
000139: 01,3621           64753        IMEDIATE           AD       ONE
000140: 01,3622           00704                           TC       GOLOC      -1
000141: 01,3623           33566        ITSLIKEB           CA       RTRNCADR                              #  TYPE B, SO STORE RETURN IN
000142: 01,3624           54157                           TS       TEMPSWCH                              #  TEMPSWCH IN CASE OF AN EVEN PHASE
000143:
000144: 01,3625           33772                           CA       PRT2CADR                              #  SET UP EXIT TO GET TABLE PART OF THIS
000145: 01,3626           54707                           TS       GOLOC      +2                         #  VARIABLE TYPE OF PHASE
000146:
000147: 01,3627           30154                           CA       TEMPPHS                               #  MAKE THE PHASE LOOK RIGHT FOR THE TABLE
000148: 01,3630           76077                           MASK     OCT177                                #  PART OF THIS VARIABLE PHASE
000149: 01,3631           54154                           TS       TEMPPHS
000150:
000151: 01,3632           00006                           EXTEND
000152: 01,3633           50155                           NDX      TEMP2G                                #  OBTAIN THE JOB:S 2CADR
000153: 01,3634           31437                           DCA      PHSNAME1
000154: 01,3635           52706                           DXCH     GOLOC
000155:
000156: 01,3636           50155        ITSAJOB            NDX      TEMP2G                                #  NOW ADD THE PRIORITY AND LET:S GO
000157: 01,3637           31053                           CA       PHSPRDT1
000158: 01,3640           54704        CHKNOVAC           TS       GOLOC      -1                         #  SAVE PRIO UNTIL WE SEE IF ITS
000159: 01,3641           00006                           EXTEND                                         #  A FINDVAC OR A NOVAC
000160: 01,3642           63646                           BZMF     ITSNOVAC
000161:
000162: 01,3643           33774                           CAF      FVACCADR                              #  POSITIVE, SET UP FINDVAC CALL.
000163: 01,3644           56704                           XCH      GOLOC      -1                         #  PICK UP PRIO,
000164: 01,3645           00704                           TC       GOLOC      -1                         #  AND GO
000165:
000166: 01,3646           33776        ITSNOVAC           CAF      NOVACADR                              #  NEGATIVE,
000167: 01,3647           56704                           XCH      GOLOC      -1                         #  SET UP NOVAC CALL,
000168: 01,3650           40000                           COM                                            #  CORRECT PRIO,
000169: 01,3651           00704                           TC       GOLOC      -1                         #  AND GO
000170:
000171: 01,3652           54020        ITSATBL            TS       CYR                                   #  FIND OUT IF THE PHASE IS ODD OR EVEN
000172: 01,3653           10020                           CCS      CYR
000173: 01,3654           13655                           TCF      +1                                    #  IT:S EVEN
000174: 01,3655           13753                           TCF      ITSEVEN
000175:
000176: 01,3656           33566                           CA       RTRNCADR                              #  IN CASE THIS IS THE SECOND PART OF A
000177: 01,3657           54707                           TS       GOLOC      +2                         #  TYPE B RESTART, WE NEED PROPER EXIT
000178:
000179: 01,3660           30154                           CA       TEMPPHS                               #  SET UP POINTER FOR FINDING OUR PLACE IN
000180: 01,3661           54021                           TS       SR                                    #  THE RESTART TABLES
000181: 01,3662           60021                           AD       SR


000183: 01,3663           50155                           NDX      TEMP2G
000184: 01,3664           62003                           AD       SIZETAB    +1
000185: 01,3665           54156                           TS       POINTER
000186:
000187: 01,3666           00006        CONTBL2            EXTEND                                         #  FIND OUT WHAT:S IN THE TABLE
000188: 01,3667           50156                           NDX      POINTER
000189: 01,3670           32002                           DCA      CADRTAB                               #  GET THE 2CADR
000190:
000191: 01,3671           22706                           LXCH     GOLOC      +1                         #  STORE THE BB INFORMATION
000192:
000193: 01,3672           10000                           CCS      A                                     #  IS IT A JOB OR IS IT TIMED
000194: 01,3673           24000                           INCR     A                                     #  POSITIVE, MUST BE A JOB
000195: 01,3674           13747                           TCF      ITSAJOB2
000196:
000197: 01,3675           24000                           INCR     A                                     #  MUST BE EITHER A WAITLIST OR LONGCALL
000198: 01,3676           54705                           TS       GOLOC                                 #  LET-S STORE THE CORRECT CADR
000199:
000200: 01,3677           33775                           CA       WTLTCADR                              #  SET UP OUR EXIT TO WAITLIST
000201: 01,3700           54704                           TS       GOLOC      -1
000202:
000203: 01,3701           30706                           CA       GOLOC      +1                         #  NOW FIND OUT IF IT IS A WAITLIST CALL
000204: 01,3702           74742                           MASK     BIT10                                 #  THIS SHOULD BE ONE IF WE HAVE -BB
000205: 01,3703           10000                           CCS      A                                     #  FOR THAT MATTER SO SHOULD BE BITS 9,8,7,
000206:                                                                                                  #  6,5, AND LAST BUT NOT LEAST (PERHAPS NOT
000207:                                                                                                  #  IN IMPORTANCE ANYWAY.  BIT 4
000208: 01,3704           13742                           TCF      ITSWTLST                              #  IT IS A WAITLIST CALL
000209:
000210: 01,3705           50156                           NDX      POINTER                               #  OBTAIN THE ORIGINAL DELTA T
000211: 01,3706           32000                           CA       PRDTTAB                               #  ADDRESS FOR THIS LONGCALL
000212:
000213: 01,3707           15445                           TCF      ITSLGCL1                              #  NOW GO GET THE DELTA TIME
000214:
000215:                                                                                                  #  ***** THIS MUST BE IN FIXED FIXED *****
000216:
000217:    5445                                           BLOCK    02
000218:    4000                                           SETLOC   FFTAG2
000219:    4000                                           BANK
000220:
000221:    5445                                           COUNT*   $$/RSROU
000222:    5445           22706        ITSLGCL1           LXCH     GOLOC      +1                         #  OBTAIN THE CORRECT E BANK
000223:    5446           22006                           LXCH     BB
000224:    5447           22706                           LXCH     GOLOC      +1                         #  AND PRESERVE OUR E AND F BANKS
000225:
000226:    5450           00006                           EXTEND                                         #  GET THE DELTA TIME
000227:    5451           50000                           NDX      A
000228:    5452           30001                           DCA      0
000229:
000230:    5453           22706                           LXCH     GOLOC      +1                         #  RESTORE OUR E AND F BANK
000231:    5454           22006                           LXCH     BB                                    #  RESTORE THE TASKS E AND F BANKS
000232:    5455           22706                           LXCH     GOLOC      +1                         #  AND PRESERVE OUR L


000234:    5456           13710                           TCF      ITSLGCL2                              #  NOW LET:S PROCESS THIS LONGCALL
000235:
000236:                                                                                                  #  ***** YOU MAY RETURN TO SWITCHED FIXED *****
000237:
000238: 01,3710                                           BANK     01
000239: 01,2000                                           SETLOC   RESTART
000240: 01,2000                                           BANK
000241:
000242: 01,3710                                           COUNT*   $$/RSROU
000243: 01,3710           53153        ITSLGCL2           DXCH     LONGTIME
000244:
000245: 01,3711           00006                           EXTEND                                         #  CALCULATE TIME LEFT
000246: 01,3712           40025                           DCS      TIME2
000247: 01,3713           21153                           DAS      LONGTIME
000248: 01,3714           00006                           EXTEND
000249: 01,3715           31151                           DCA      LONGBASE
000250: 01,3716           21153                           DAS      LONGTIME
000251:
000252: 01,3717           11152                           CCS      LONGTIME                              #  FIND OUT HOW THIS SHOULD BE RESTARTED
000253: 01,3720           13730                           TCF      LONGCLCL
000254: 01,3721           13723                           TCF      +2
000255: 01,3722           13616                           TCF      IMEDIATE   -3
000256: 01,3723           11153                           CCS      LONGTIME   +1
000257: 01,3724           13730                           TCF      LONGCLCL
000258: 01,3725           13726                           NOOP                                           #  CAN:T GET HERE *********
000259: 01,3726           13616                           TCF      IMEDIATE   -3
000260: 01,3727           13621                           TCF      IMEDIATE
000261:
000262: 01,3730           33773        LONGCLCL           CA       LGCLCADR                              #  WE WILL GO TO LONGCALL
000263: 01,3731           54704                           TS       GOLOC      -1
000264:
000265: 01,3732           00006                           EXTEND                                         #  PREPARE OUR ENTRY TO LONGCALL
000266: 01,3733           31153                           DCA      LONGTIME
000267: 01,3734           00704                           TC       GOLOC      -1
000268:
000269: 01,3735           33775        ITSLNGCL           CA       WTLTCADR                              #  ASSUME IT WILL GO TO WAITLIST
000270: 01,3736           54704                           TS       GOLOC      -1
000271:
000272: 01,3737           50155                           NDX      TEMP2G
000273: 01,3740           41053                           CS       PHSPRDT1                              #  GET THE DELTA T ADDRESS
000274:
000275: 01,3741           15445                           TCF      ITSLGCL1                              #  NOW GET THE DELTA TIME
000276:
000277: 01,3742           40706        ITSWTLST           CS       GOLOC      +1                         #  CORRECT THE BBCON INFORMATION
000278: 01,3743           54706                           TS       GOLOC      +1
000279:
000280: 01,3744           50156                           NDX      POINTER                               #  GET THE DT AND FIND OUT IF IT WAS STORED
000281: 01,3745           32000                           CA       PRDTTAB                               #  DIRECTLY OR INDIRECTLY
000282:
000283: 01,3746           13575                           TCF      TIMETEST                              #  FIND OUT HOW THE TIME IS STORED
000284:


000286: 01,3747           56705        ITSAJOB2           XCH      GOLOC                                 #  STORE THE CADR
000287:
000288: 01,3750           50156                           NDX      POINTER                               #  ADD THE PRIORITY AND LET:S GO
000289: 01,3751           32000                           CA       PRDTTAB
000290:
000291: 01,3752           13640                           TCF      CHKNOVAC
000292:
000293: 01,3753           30157        ITSEVEN            CA       TEMPSWCH                              #  SET UP FOR EITHER THE SECOND PART OF THE
000294: 01,3754           54707                           TS       GOLOC      +2                         #  TABLE, OR A RETURN FOR THE NEXT GROUP
000295:
000296: 01,3755           50155                           NDX      TEMP2G                                #  SET UP POINTER FOR OUR LOCATION WITHIN
000297: 01,3756           32002                           CA       SIZETAB                               #  THE TABLE
000298: 01,3757           60154                           AD       TEMPPHS                               #  THIS MAY LOOK BAD BUT LET:S SEE YOU DO
000299: 01,3760           60154                           AD       TEMPPHS                               #  BETTER IN TIME OR NUMBERR OF LOCATIONS
000300: 01,3761           60154                           AD       TEMPPHS
000301: 01,3762           54156                           TS       POINTER
000302:
000303: 01,3763           13666                           TCF      CONTBL2                               #  NOW PROCESS WHAT IS IN THE TABLE
000304:
000305: 01,3764           36250        PHSPART2           CA       THREE                                 #  SET THE POINTER FOR THE SECOND HALF OF
000306: 01,3765           26156                           ADS      POINTER                               #  THE TABLE
000307:
000308: 01,3766           33566                           CA       RTRNCADR                              #  THIS WILL BE OUR LAST TIME THROUGH THE
000309: 01,3767           54707                           TS       GOLOC      +2                         #  EVEN TABLE, SO AFTER IT GET THE NEXT
000310:                                                                                                  #  GROUP
000311: 01,3770           13666                           TCF      CONTBL2                               #  SO LET:S GET THE SECOND ENTRY IN THE TBL
000312:
000313: 01,3771     0154               TEMPPHS            EQUALS   MPAC
000314: 01,3771     0155               TEMP2G             EQUALS   MPAC       +1
000315: 01,3771     0156               POINTER            EQUALS   MPAC       +2
000316: 01,3771     0157               TEMPSWCH           EQUALS   MPAC       +3
000317: 01,3771     0705               GOLOC              EQUALS   VAC5       +20D
000318: 01,3771     7751               MINUS2             EQUALS   NEG2
000319: 01,3771     6077               OCT177             EQUALS   LOW7
000320:
000321: 01,3771           03764        PHS2CADR           GENADR   PHSPART2
000322: 01,3772           03542        PRT2CADR           GENADR   GETPART2
000323: 01,3773           05277        LGCLCADR           GENADR   LONGCALL
000324: 01,3774           05105        FVACCADR           GENADR   FINDVAC
000325: 01,3775           05203        WTLTCADR           GENADR   WAITLIST
000326: 01,3776           05072        NOVACADR           GENADR   NOVAC
000327:
000328:

End of include-file RESTARTS_ROUTINE.agc.  Parent file is MAIN.agc


