
Source Code


000002:                                                                                                  ## Copyright:   Public domain.
000003:                                                                                                  ## Filename:    SERVICE_ROUTINES.agc
000004:                                                                                                  ## Purpose:     A section of the reconstructed source code for Luminary 130.
000005:                                                                                                  ##              This was the original program released for the Apollo 13 LM,
000006:                                                                                                  ##              although several more revisions would follow. It has been
000007:                                                                                                  ##              reconstructed from a listing of Luminary 131, from which it
000008:                                                                                                  ##              differs on only two lines in P70-P71. The difference is
000009:                                                                                                  ##              described in detail in Luminary memo #129, which was used
000010:                                                                                                  ##              to perform the reconstruction. This file is intended to be a
000011:                                                                                                  ##              faithful reconstruction, except that the code format has been
000012:                                                                                                  ##              changed to conform to the requirements of the yaYUL assembler
000013:                                                                                                  ##              rather than the original YUL assembler.
000014:                                                                                                  ## Reference:   pp. 1366-1372
000015:                                                                                                  ## Contact:     Ron Burkey <info@sandroid.org>.
000016:                                                                                                  ## Website:     www.ibiblio.org/apollo/index.html
000017:                                                                                                  ## Mod history: 06/06/03 RSB.   Began transcribing.
000018:                                                                                                  ##              05/14/05 RSB    Corrected website references above.
000019:                                                                                                  ##              2017-01-06 RSB  Page numbers now agree with those on the
000020:                                                                                                  ##                              original hardcopy, as opposed to the PDF page
000021:                                                                                                  ##                              numbers in 1701.pdf.
000022:                                                                                                  ##              2017-02-28 RSB  Proofed comment text using octopus/ProoferComments.
000023:                                                                                                  ##              2017-03-01 RSB  Fixed lingering comment-text typos.
000024:                                                                                                  ##              2017-03-14 RSB  Comment-text fixes noted in proofing Luminary 116.
000025:                                                                                                  ##              2017-03-16 RSB  Comment-text fixes identified in 5-way
000026:                                                                                                  ##                              side-by-side diff of Luminary 69/99/116/131/210.
000027:                                                                                                  ##              2018-09-04 MAS  Copied from Luminary 131 for Luminary 130.
000028:


000030: 10,3545                                           BANK     10
000031: 10,2000                                           SETLOC   DISPLAYS
000032: 10,2000                                           BANK
000033: 10,3545                                           COUNT*   $$/DSPLA
000034:
000035: 10,3545           00004        UPENT2             INHINT
000036: 10,3546           75650                           MASK     OCT77770
000037: 10,3547           54001                           TS       L
000038: 10,3550           40100                           CS       FLAGWRD4
000039: 10,3551           70001                           MASK     L
000040: 10,3552           26100                           ADS      FLAGWRD4
000041: 10,3553           00003        JOIN               RELINT
000042: 10,3554           16742                           TCF      Q+1
000043:
000044: 10,3555           00004        DOWNENT2           INHINT
000045: 10,3556           75650                           MASK     OCT77770
000046: 10,3557           40000                           COM
000047: 10,3560           70100                           MASK     FLAGWRD4
000048: 10,3561           54100                           TS       FLAGWRD4
000049: 10,3562           13553                           TCF      JOIN
000050:
000051: 10,3563     4757               OCT7               EQUALS   SEVEN
000052:


000054:                                                                                                  #  UPFLAG AND DOWNFLAG ARE ENTIRELY GENERAL FLAG SETTING AND CLEARING SUBROUTINES.  USING THEM, WHETHER OR
000055:                                                                                                  #  NOT IN INTERRUPT, ONE MAY SET OR CLEAR ANY SINGLE, NAMED BIT IN ANY ERASABLE REGISTER, SUBJECT OF COURSE TO
000056:                                                                                                  #  EBANK SETTING.  A "NAMED" BIT, AS THE WORD IS USED HERE, IS ANY BIT WITH A NAME FORMALLY ASSIGNED BY THE YUL
000057:                                                                                                  #  ASSEMBLER.
000058:
000059:                                                                                                  #  AT PRESENT THE ONLY NAMED BITS ARE THOSE IN THE FLAGWORDS.  ASSEMBLER CHANGES WILL MAKE IT POSSIBLE TO
000060:                                                                                                  #  NAME ANY BIT IN ERASABLE MEMORY.
000061:
000062:                                                                                                  #  CALLING SEQUENCES ARE AS FOLLOWS:-
000063:                                                                                                  #                TC      UPFLAG                  TC      DOWNFLAG
000064:                                                                                                  #                ADRES   NAME OF FLAG            ADRES   NAME OF FLAG
000065:
000066:                                                                                                  #  RETURN IS TO THE LOCATION FOLLOWING THE "ADRES" ABOUT .58 MS AFTER THE "TC".
000067:                                                                                                  #  UPON RETURN A CONTAINS THE CURRENT FLAGWRD SETTING.
000068:
000069:    5504                                           BLOCK    02
000070:    4000                                           SETLOC   FFTAG1
000071:    4000                                           BANK
000072:    5504                                           COUNT*   $$/FLAG
000073:
000074:    5504           30002        UPFLAG             CA       Q
000075:    5505           05522                           TC       DEBIT
000076:    5506           40000                           COM                                            #  +(15 - BIT)
000077:    5507           00006                           EXTEND
000078:    5510           04001                           ROR      LCHAN                                 #  SET BIT
000079:    5511           50061        COMFLAG            INDEX    ITEMP1
000080:    5512           54074                           TS       FLAGWRD0
000081:    5513           22063                           LXCH     ITEMP3
000082:    5514           00003                           RELINT
000083:    5515           00001                           TC       L
000084:
000085:    5516           30002        DOWNFLAG           CA       Q
000086:    5517           05522                           TC       DEBIT
000087:    5520           70001                           MASK     L                                     #  RESET BIT
000088:    5521           15511                           TCF      COMFLAG
000089:
000090:    5522           64753        DEBIT              AD       ONE                                   #  GET DE BITS
000091:    5523           00004                           INHINT
000092:    5524           54063                           TS       ITEMP3
000093:    5525           34762                           CA       LOW4                                  #  DEC15
000094:    5526           54061                           TS       ITEMP1
000095:    5527           50063                           INDEX    ITEMP3
000096:    5530           27777                           CA       0          -1                         #  ADRES
000097:    5531           54001                           TS       L
000098:    5532           34755                           CA       ZERO


000100:    5533           00006                           EXTEND
000101:    5534           10061                           DV       ITEMP1                                #  A = FLAGWRD, L = (15 - BIT)
000102:    5535           52062                           DXCH     ITEMP1
000103:    5536           50061                           INDEX    ITEMP1
000104:    5537           30074                           CA       FLAGWRD0
000105:    5540           54001                           TS       L                                     #  CURRENT STATE
000106:    5541           50062                           INDEX    ITEMP2
000107:    5542           44735                           CS       BIT15                                 #  -(15 - BIT)
000108:    5543           00002                           TC       Q
000109:


000111:                                                                                                  #  DELAYJOB - A GENERAL ROUTINE TO DELAY A JOB A SPECIFIC AMOUNT OF TIME BEFORE PICKING UP AGAIN.
000112:
000113:                                                                                                  #  ENTRANCE REQUIREMENTS ...
000114:                                                                                                  #                CAF     DT              DELAY JOB FOR DT CENTISECS
000115:                                                                                                  #                TC      BANKCALL
000116:                                                                                                  #                CADR    DELAYJOB
000117:
000118: 06,3772                                           BANK     06
000119: 00,2000                                           SETLOC   DLAYJOB
000120: 00,2000                                           BANK
000121:
000122:                                                                                                  #  THIS MUST REMAIN IN BANK 0 *****************************************
000123:
000124: 00,3735                                           COUNT*   $$/DELAY
000125: 00,3735           35000        2SECDELY           CAF      2SECS
000126: 00,3736           00004        DELAYJOB           INHINT
000127: 00,3737           54002                           TS       Q                                     #  STORE DELAY DT IN Q FOR DLY -1 IN
000128: 00,3740           34752                           CAF      DELAYNUM                              #  WAITLIST
000129: 00,3741           54070        DELLOOP            TS       RUPTREG1
000130: 00,3742           50000                           INDEX    A
000131: 00,3743           31323                           CA       DELAYLOC                              #  IS THIS DELAYLOC AVAILABLE
000132: 00,3744           00006                           EXTEND
000133: 00,3745           13753                           BZF      OK2DELAY                              #  YES
000134:
000135: 00,3746           10070                           CCS      RUPTREG1                              #  NO, TRY NEXT DELAYLOC
000136: 00,3747           13741                           TCF      DELLOOP
000137:
000138: 00,3750           52134                           DXCH     BUF2
000139: 00,3751           05706                           TC       BAILOUT1                              #  NO AVAILABLE LOCS.
000140: 00,3752           31104                           OCT      31104
000141:
000142: 00,3753           33773        OK2DELAY           CA       TCSLEEP                               #  SET WAITLIST IMMEDIATE RETURN
000143: 00,3754           54061                           TS       WAITEXIT
000144:
000145: 00,3755           30004                           CA       FBANK
000146: 00,3756           60070                           AD       RUPTREG1                              #  STORE BBANK FOR TASK CALL
000147: 00,3757           54001                           TS       L
000148:
000149: 00,3760           33774                           CAF      WAKECAD                               #  STORE CADR FOR TASK CALL
000150: 00,3761           15211                           TCF      DLY2       -1                         #  DLY IS IN WAITLIST ROUTINE
000151:
000152: 00,3762           04645        TCGETCAD           TC       MAKECADR                              #  GET CALLERS FCADR
000153:
000154: 00,3763           50070                           INDEX    RUPTREG1
000155: 00,3764           55323                           TS       DELAYLOC                              #  SAVE DELAY CADRS
000156:
000157: 00,3765           05133                           TC       JOBSLEEP
000158:
000159: 00,3766           34755        WAKER              CAF      ZERO
000160: 00,3767           50006                           INDEX    BBANK


000162: 00,3770           57323                           XCH      DELAYLOC                              #  MAKE DELAYLOC AVAILABLE
000163: 00,3771           05137                           TC       JOBWAKE
000164:
000165: 00,3772           05261                           TC       TASKOVER
000166:
000167: 00,3773           03760        TCSLEEP            GENADR   TCGETCAD   -2
000168: 00,3774           03766        WAKECAD            GENADR   WAKER
000169:


000171:                                                                                                  #  GENTRAN, A BLOCK TRANSFER ROUTINE.
000172:                                                                                                  #  WRITTEN BY D. EYLES
000173:                                                                                                  #  MOD 1 BY KERNAN                               UTILITYM REV 17 11/18/67
000174:                                                                                                  #  MOD 2 BY SCHULENBERG    (REMOVE RELINT)    SKIPPER REV 4 2/28/68
000175:
000176:                                                                                                  #  THIS ROUTINE IS USEFULL FOR TRANSFERING N CONSECUTIVE ERASABLE OR FIXED QUANTITIES TO SOME OTHER N
000177:                                                                                                  #  CONSECUTIVE ERASABLE LOCATIONS.  IF BOTH BLOCKS OF DATA ARE IN SWITCHABLE EBANKS, THEY MUST BE IN THE SAME ONE.
000178:
000179:                                                                                                  #  GENTRAN IS CALLABLE IN A JOB AS WELL AS A RUPT.  THE CALLING SEQUENCE IS:
000180:                                                                                                  #        I       CA      N-1             # OF QUANTITIES MINUS ONE.
000181:                                                                                                  #        I +1    TC      GENTRAN         IN FIXED-FIXED.
000182:                                                                                                  #        I +2    ADRES   L               STARTING ADRES OF DATA TO BE MOVED.
000183:                                                                                                  #        I +3    ADRES   M               STARTING ADRES OF DUPLICATION BLOCK.
000184:                                                                                                  #        I +4                            RETURNS HERE.
000185:
000186:                                                                                                  #  GENTRAN TAKES 25 MCT'S (300 MICROSECONDS) PER ITEM + 5 MCT'S (60 MICS) FOR ENTERING AND EXITING.
000187:                                                                                                  #  A, L AND ITEMP1 ARE NOT PRESERVED.
000188:
000189:    5544                                           BLOCK    02
000190:    4000                                           SETLOC   FFTAG4
000191:    4000                                           BANK
000192:
000193:    5544     0061                                  EBANK=   ITEMP1
000194:
000195:    5544                                           COUNT*   $$/TRAN
000196:
000197:    5544           00004        GENTRAN            INHINT
000198:    5545           54061                           TS       ITEMP1                                #  SAVE N-1.
000199:    5546           50002                           INDEX    Q                                     #  C(Q) = ADRES L.
000200:    5547           60000                           AD       0                                     #  ADRES (L + N - 1).
000201:    5550           50000                           INDEX    A
000202:    5551           30000                           CA       0                                     #  C(ABOVE).
000203:    5552           54001                           TS       L                                     #  SAVE DATA.
000204:    5553           30061                           CA       ITEMP1
000205:    5554           50002                           INDEX    Q
000206:    5555           60001                           AD       1                                     #  ADRES (M + N - 1).
000207:    5556           50000                           INDEX    A
000208:    5557           22000                           LXCH     0                                     #  STUFF IT.
000209:    5560           10061                           CCS      ITEMP1                                #  LOOP UNTIL N-1 = 0.
000210:    5561           15545                           TCF      GENTRAN    +1
000211:    5562           16744                           TCF      Q+2                                   #  RETURN TO CALLER.
000212:


000214:                                                                                                  #  B5OFF         ZERO BIT 5 OF EXTVBACT, WHICH IS SET BY TESTXACT.
000215:                                                                                                  #  MAY BE USED AS NEEDED BY ANY EXTENDED VERB WHICH HAS DONE TESTXACT
000216:
000217:    5563                                           COUNT*   $$/EXTVB
000218:
000219:    5563           44747        B5OFF              CS       BIT5
000220:    5564           71043                           MASK     EXTVBACT
000221:    5565           55043                           TS       EXTVBACT
000222:    5566           05155                           TC       ENDOFJOB
000223:
000224:
000225:

End of include-file SERVICE_ROUTINES.agc.  Parent file is MAIN.agc


