
Source Code


000002:                                                                                                  ## Copyright:   Public domain.
000003:                                                                                                  ## Filename:    SINGLE_PRECISION_SUBROUTINES.agc
000004:                                                                                                  ## Purpose:     A section of the reconstructed source code for Luminary 130.
000005:                                                                                                  ##              This was the original program released for the Apollo 13 LM,
000006:                                                                                                  ##              although several more revisions would follow. It has been
000007:                                                                                                  ##              reconstructed from a listing of Luminary 131, from which it
000008:                                                                                                  ##              differs on only two lines in P70-P71. The difference is
000009:                                                                                                  ##              described in detail in Luminary memo #129, which was used
000010:                                                                                                  ##              to perform the reconstruction. This file is intended to be a
000011:                                                                                                  ##              faithful reconstruction, except that the code format has been
000012:                                                                                                  ##              changed to conform to the requirements of the yaYUL assembler
000013:                                                                                                  ##              rather than the original YUL assembler.
000014:                                                                                                  ## Reference:   p. 1096
000015:                                                                                                  ## Contact:     Ron Burkey <info@sandroid.org>.
000016:                                                                                                  ## Website:     www.ibiblio.org/apollo/index.html
000017:                                                                                                  ## Mod history: 05/31/03 RSB.   Began transcribing.
000018:                                                                                                  ##              05/14/05 RSB    Corrected website references above.
000019:                                                                                                  ##              2017-01-06 RSB  Page numbers now agree with those on the
000020:                                                                                                  ##                              original harcopy, as opposed to the PDF page
000021:                                                                                                  ##                              numbers in 1701.pdf.
000022:                                                                                                  ##              2017-02-27 RSB  Proofed comment text using octopus/ProoferComments.
000023:                                                                                                  ##              2018-09-04 MAS  Copied from Luminary 131 for Luminary 130.
000024:


000026:    5032                                           BLOCK    02
000027:
000028:                                                                                                  #  SINGLE PRECISION SINE AND COSINE
000029:
000030:    5032                                           COUNT*   $$/INTER
000031:    5032           64736        SPCOS              AD       HALF                                  #  ARGUMENTS SCALED AT PI
000032:    5033           55075        SPSIN              TS       TEMK
000033:    5034           15036                           TCF      SPT
000034:    5035           41075                           CS       TEMK
000035:    5036           60000        SPT                DOUBLE
000036:    5037           55075                           TS       TEMK
000037:    5040           15051                           TCF      POLLEY
000038:    5041           57075                           XCH      TEMK
000039:    5042           51075                           INDEX    TEMK
000040:    5043           64734                           AD       LIMITS
000041:    5044           40000                           COM
000042:    5045           61075                           AD       TEMK
000043:    5046           55075                           TS       TEMK
000044:    5047           15051                           TCF      POLLEY
000045:    5050           15067                           TCF      ARG90
000046:    5051           00006        POLLEY             EXTEND
000047:    5052           71075                           MP       TEMK
000048:    5053           55076                           TS       SQ
000049:    5054           00006                           EXTEND
000050:    5055           75005                           MP       C5/2
000051:    5056           67742                           AD       C3/2
000052:    5057           00006                           EXTEND
000053:    5060           71076                           MP       SQ
000054:    5061           67722                           AD       C1/2
000055:    5062           00006                           EXTEND
000056:    5063           71075                           MP       TEMK
000057:    5064           20001                           DDOUBL
000058:    5065           55075                           TS       TEMK
000059:    5066           00002                           TC       Q
000060:    5067           50000        ARG90              INDEX    A
000061:    5070           44734                           CS       LIMITS
000062:    5071           00002                           TC       Q                                     #  RESULT SCALED AT 1
000063:
000064:

End of include-file SINGLE_PRECISION_SUBROUTINES.agc.  Parent file is MAIN.agc


