
Source Code


000002:                                                                                                  ## Copyright:   Public domain.
000003:                                                                                                  ## Filename:    SYSTEM_TEST_STANDARD_LEAD_INS.agc
000004:                                                                                                  ## Purpose:     A section of the reconstructed source code for Luminary 130.
000005:                                                                                                  ##              This was the original program released for the Apollo 13 LM,
000006:                                                                                                  ##              although several more revisions would follow. It has been
000007:                                                                                                  ##              reconstructed from a listing of Luminary 131, from which it
000008:                                                                                                  ##              differs on only two lines in P70-P71. The difference is
000009:                                                                                                  ##              described in detail in Luminary memo #129, which was used
000010:                                                                                                  ##              to perform the reconstruction. This file is intended to be a
000011:                                                                                                  ##              faithful reconstruction, except that the code format has been
000012:                                                                                                  ##              changed to conform to the requirements of the yaYUL assembler
000013:                                                                                                  ##              rather than the original YUL assembler.
000014:                                                                                                  ## Reference:   pp. 372-374
000015:                                                                                                  ## Contact:     Ron Burkey <info@sandroid.org>.
000016:                                                                                                  ## Website:     www.ibiblio.org/apollo/index.html
000017:                                                                                                  ## Mod history: 05/11/03 RSB.   Began transcribing.
000018:                                                                                                  ##              05/14/05 RSB    Corrected website reference above.
000019:                                                                                                  ##              2017-01-06 RSB  Page numbers now agree with those on the
000020:                                                                                                  ##                              original harcopy, as opposed to the PDF page
000021:                                                                                                  ##                              numbers in 1701.pdf.
000022:                                                                                                  ##              2017-02-23 RSB  Proofed comment text using octopus/ProoferComments.
000023:                                                                                                  ##              2018-09-04 MAS  Copied from Luminary 131 for Luminary 130.
000024:


000026: 22,3242  E5,1642                                  EBANK=   XSM
000027:
000028: 33,2045                                           BANK     33
000029: 04,2000                                           SETLOC   E/PROG
000030: 04,2000                                           BANK
000031:
000032: 04,2562                                           COUNT*   $$/P07
000033:
000034:                                                                                                  #  SPECIAL PROGRAMS TO EASE THE PANGS OF ERASABLE MEMORY PROGRAMS.
000035:
000036:                                                                                                  #  E/BKCALL      FOR DOING BANKCALLS FROM AND RETURNING TO ERASABLE.
000037:
000038:                                                                                                  #  THIS ROUTINE IS CALLABLE FROM ERASABLE OR FIXED.  LIKE BANKCALL, HOWEVER, SWITCHING BETWEEN S3 AND S4
000039:                                                                                                  #  IS NOT POSSIBLE.
000040:
000041:                                                                                                  #  THE CALLING SEQUENCE IS:
000042:
000043:                                                                                                  #        TC      BANKCALL
000044:                                                                                                  #        CADR    E/BKCALL
000045:                                                                                                  #        CADR    ROUTINE         WHERE YOU WANT TO GO IN FIXED.
000046:                                                                                                  #        RETURN HERE FROM DISPLAY TERMINATE, BAD STALL OR TC Q.
000047:                                                                                                  #        RETURN HERE FROM DISPLAY PROCEED OR GOOD RETURN FROM STALL.
000048:                                                                                                  #        RETURN HERE FROM DISPLAY ENTER OR RECYCLE.
000049:
000050:                                                                                                  #  THIS ROUTINE REQUIRES TWO ERASABLES (EBUF2, +1) IN UNSWITCHED WHICH ARE UNSHARED BY INTERRUPTS AND
000051:                                                                                                  #  OTHER EMEMORY PROGRAMS.
000052:
000053:                                                                                                  #  A + L ARE PRESERVED THROUGH BANKCALL AND E/BKCALL.
000054:
000055: 04,2562           52134        E/BKCALL           DXCH     BUF2                                  #  SAVE A,L AND GET DP RETURN.
000056: 04,2563           53167                           DXCH     EBUF2                                 #  SAVE DP RETURN.
000057: 04,2564           25166                           INCR     EBUF2                                 #  RETURN +1 BECAUSE DOUBLE CADR.
000058: 04,2565           30006                           CA       BBANK
000059: 04,2566           75012                           MASK     LOW10                                 #  GET CURRENT EBANK.  (SBANK SOMEDAY)
000060: 04,2567           27167                           ADS      EBUF2      +1                         #  FORM BBCON.  (WAS FBANK)
000061: 04,2570           51166                           NDX      EBUF2
000062: 04,2571           27777                           CA       0          -1                         #  GET CADR OF ROUTINE.
000063: 04,2572           04622                           TC       SWCALL                                #  GO TO ROUTINE, SETTING Q TO SWRETURN
000064:                                                                                                  #  AND RESTORING A + L.
000065: 04,2573           02577                           TC       +4                                    #  TX Q, V34, OR BAD STALL RETURN.
000066: 04,2574           02576                           TC       +2                                    #  PROCEED OR GOOD STALL RETURN.
000067: 04,2575           25166                           INCR     EBUF2                                 #  ENTER OR RECYCLE RETURN.
000068: 04,2576           25166                           INCR     EBUF2
000069: 04,2577           53167        E/SWITCH           DXCH     EBUF2
000070: 04,2600           52006                           DTCB
000071:


000073:                                                                                                  #  E/CALL        FOR CALLING A FIXED MEMORY INTERPRETIVE SUBROUTINE FROM ERASABLE AND RETURNING TO ERASABLE.
000074:
000075:                                                                                                  #  THE CALLING SEQUENCE IS...
000076:
000077:                                                                                                  #        RTB
000078:                                                                                                  #                E/CALL
000079:                                                                                                  #        CADR    ROUTINE                 THE INTERPRETIVE SUBROUTINE YOU WANT.
000080:                                                                                                  #                                        RETURNS HERE IN INTERPRETIVE.
000081:
000082: 04,2601           22164        E/CALL             LXCH     LOC                                   #  ADRES -1 OF CADR.
000083: 04,2602           50001                           INDEX    L
000084: 04,2603           30001                           CA       L                                     #  CADR IN A.
000085: 04,2604           24001                           INCR     L
000086: 04,2605           24001                           INCR     L                                     #  RETURN ADRES IN L.
000087: 04,2606           53167                           DXCH     EBUF2                                 #  STORE CADR AND RETURN.
000088: 04,2607           06042                           TC       INTPRET
000089: 04,2610           77624                           CALL
000090: 04,2611           01166                                    EBUF2                                 #  INDIRECTLY EXECUTE ROUTINE.  IT MUST
000091: 04,2612           77776                           EXIT                                           #  LEAVE VIA RVQ OR EQUIVALENT.
000092: 04,2613           23167                           LXCH     EBUF2      +1                         #  PICK UP RETURN.
000093: 04,2614           16044                           TCF      INTPRET    +2                         #  SET LOC AND RETURN TO CALLER.
000094:


000096:                                                                                                  #  E/JOBWAK      FOR WAKING UP ERASABLE MEMORY JOBS.
000097:
000098:                                                                                                  #  THIS ROUTINE MUST BE CALLED IN INTERRUPT OR WITH INTERRUPTS INHIBITED.
000099:
000100:                                                                                                  #  THE CALLING SEQUENCE IS:
000101:
000102:                                                                                                  #        INHINT
000103:                                                                                                  #        .
000104:                                                                                                  #        .
000105:                                                                                                  #        CA      WAKEADR         ADDRESS OF SLEEPING JOB
000106:                                                                                                  #        TC      IBNKCALL
000107:                                                                                                  #        CADR    E/JOBWAK
000108:                                                                                                  #        .                       RETURNS HERE
000109:                                                                                                  #        .
000110:                                                                                                  #        .
000111:                                                                                                  #        RELINT                  IF YOU DID AN INHINT.
000112:
000113: 33,2045                                           BANK     33
000114: 04,2000                                           SETLOC   E/PROG
000115: 04,2000                                           BANK
000116:
000117: 04,2615                                           COUNT*   $$/P07
000118:
000119: 04,2615           05137        E/JOBWAK           TC       JOBWAKE                               #  ARRIVE IWTH ADRES IN A.
000120: 04,2616           44741                           CS       BIT11
000121: 04,2617           50064                           NDX      LOCCTR
000122: 04,2620           26164                           ADS      LOC                                   #  KNOCK FIXED MEMORY BIT OUT OF ADRES.
000123: 04,2621           00072                           TC       RUPTREG3                              #  RETURN
000124:

End of include-file SYSTEM_TEST_STANDARD_LEAD_INS.agc.  Parent file is MAIN.agc


