
Source Code


000002:                                                                                                  ## Copyright:   Public domain.
000003:                                                                                                  ## Filename:    TAGS_FOR_RELATIVE_SETLOC_AND_BLANK_BANK_CARDS.agc
000004:                                                                                                  ## Purpose:     A section of the reconstructed source code for Luminary 130.
000005:                                                                                                  ##              This was the original program released for the Apollo 13 LM,
000006:                                                                                                  ##              although several more revisions would follow. It has been
000007:                                                                                                  ##              reconstructed from a listing of Luminary 131, from which it
000008:                                                                                                  ##              differs on only two lines in P70-P71. The difference is
000009:                                                                                                  ##              described in detail in Luminary memo #129, which was used
000010:                                                                                                  ##              to perform the reconstruction. This file is intended to be a
000011:                                                                                                  ##              faithful reconstruction, except that the code format has been
000012:                                                                                                  ##              changed to conform to the requirements of the yaYUL assembler
000013:                                                                                                  ##              rather than the original YUL assembler.
000014:                                                                                                  ## Reference:   Pages 28-37
000015:                                                                                                  ## Contact:     Ron Burkey <info@sandroid.org>.
000016:                                                                                                  ## Website:     www.ibiblio.org/apollo/index.html
000017:                                                                                                  ## Mod history: 04/23/03 RSB.   First draft.
000018:                                                                                                  ##              05/14/05 RSB    Corrected website reference above.
000019:                                                                                                  ##              2017-01-06 RSB  Page numbers now agree with those on the
000020:                                                                                                  ##                              original harcopy, as opposed to the PDF page
000021:                                                                                                  ##                              numbers in 1701.pdf.
000022:                                                                                                  ##              2017-02-12 RSB  Proofed comment text using octopus/ProoferComments.
000023:                                                                                                  ##              2018-09-04 MAS  Copied from Luminary 131 for Luminary 130.
000024:


000026: ???????                                           COUNT    BANKSUM
000027:
000028:                                                                                                  #  MODULE 1 CONTAINS BANKS 0 THROUGH 5
000029:
000030:    4000                                           BLOCK    02
000031:    4000                        RADARFF            EQUALS
000032:    4000                        FFTAG1             EQUALS
000033:    4000                        FFTAG2             EQUALS
000034:    4000                        FFTAG3             EQUALS
000035:    4000                        FFTAG4             EQUALS
000036:    4000                        FFTAG7             EQUALS
000037:    4000                        FFTAG8             EQUALS
000038:    4000                        FFTAG9             EQUALS
000039:    4000                        FFTAG10            EQUALS
000040:    4000                        FFTAG11            EQUALS
000041:    4000                        FFTAG12            EQUALS
000042:    4000                        FFTAG13            EQUALS
000043:    4000                                           BNKSUM   02
000044:
000045:    6000                                           BLOCK    03
000046:    6000                        FFTAG5             EQUALS
000047:    6000                        FFTAG6             EQUALS
000048:    6000                                           BNKSUM   03
000049:
000050: 00,2000                                           BANK     00
000051: 00,2000                        DLAYJOB            EQUALS
000052: 00,2000                                           BNKSUM   00
000053:
000054: 01,2000                                           BANK     01
000055: 01,2000                        RESTART            EQUALS
000056: 01,2000                        LOADDAP1           EQUALS
000057: 01,2000                                           BNKSUM   01
000058:
000059: 04,2000                                           BANK     04
000060: 04,2000                        ORBITAL3           EQUALS
000061: 04,2000                        R02                EQUALS
000062: 04,2000                        VERB37             EQUALS
000063: 04,2000                        PINBALL4           EQUALS
000064: 04,2000                        CONICS1            EQUALS
000065: 04,2000                        KEYRUPT            EQUALS
000066: 04,2000                        R36LM              EQUALS
000067: 04,2000                        UPDATE2            EQUALS
000068: 04,2000                        E/PROG             EQUALS
000069: 04,2000                        AOTMARK2           EQUALS
000070:


000072:
000073: 04,2000                                           BNKSUM   04
000074:
000075: 05,2000                                           BANK     05
000076: 05,2000                        FRANDRES           EQUALS
000077: 05,2000                        DOWNTELM           EQUALS
000078: 05,2000                        ABORTS1            EQUALS
000079: 05,2000                        EPHEM1             EQUALS
000080: 05,2000                        ASENT3             EQUALS
000081: 05,2000                                           BNKSUM   05
000082:
000083:                                                                                                  #  MODULE 2 CONTAINS BANKS 6 THROUGH 13
000084:
000085: 06,2000                                           BANK     06
000086: 06,2000                        IMUCOMP            EQUALS
000087: 06,2000                        T4RUP              EQUALS
000088: 06,2000                        RCSMONT            EQUALS
000089: 06,2000                        MIDDGIM            EQUALS
000090: 06,2000                        EARTHLOC           EQUALS
000091: 06,2000                                           BNKSUM   06
000092:
000093: 07,2000                                           BANK     07
000094: 07,2000                        AOTMARK1           EQUALS
000095: 07,2000                        MODESW             EQUALS
000096: 07,2000                        ASENT2             EQUALS
000097: 07,2000                                           BNKSUM   07
000098:
000099: 10,2000                                           BANK     10
000100: 10,2000                        RTBCODES           EQUALS
000101: 10,2000                        DISPLAYS           EQUALS
000102: 10,2000                        PHASETAB           EQUALS
000103: 10,2000                        FLESHLOC           EQUALS
000104: 10,2000                        SLCTMU             EQUALS
000105: 10,2000                                           BNKSUM   10
000106:
000107: 11,2000                                           BANK     11
000108: 11,2000                        ORBITAL            EQUALS
000109: 11,2000                        F2DPS*11           EQUALS
000110: 11,2000                        INTVEL             EQUALS
000111: 11,2000                                           BNKSUM   11
000112:


000114: 12,2000                                           BANK     12
000115: 12,2000                        CONICS             EQUALS
000116: 12,2000                        ORBITAL1           EQUALS
000117: 12,2000                        INTPRET2           EQUALS
000118: 12,2000                                           BNKSUM   12
000119:
000120: 13,2000                                           BANK     13
000121: 13,2000                        LATLONG            EQUALS
000122: 13,2000                        INTINIT            EQUALS
000123: 13,2000                        LEMGEOM            EQUALS
000124: 13,2000                        P76LOC             EQUALS
000125: 13,2000                        ORBITAL2           EQUALS
000126: 13,2000                        ABTFLGS            EQUALS
000127: 13,2000                                           BNKSUM   13
000128:


000130:                                                                                                  #  MODULE 3 CONTAINS BANKS 14 THROUGH 21
000131:
000132: 14,2000                                           BANK     14
000133: 14,2000                        P50S1              EQUALS
000134: 14,2000                        STARTAB            EQUALS
000135: 14,2000                        ASENT4             EQUALS
000136: 14,2000                                           BNKSUM   14
000137:
000138: 15,2000                                           BANK     15
000139: 15,2000                        P50S               EQUALS
000140: 15,2000                        EPHEM              EQUALS
000141: 15,2000                                           BNKSUM   15
000142:
000143: 16,2000                                           BANK     16
000144: 16,2000                        DAPS1              EQUALS
000145: 16,2000                                           BNKSUM   16
000146:
000147: 17,2000                                           BANK     17
000148: 17,2000                        DAPS2              EQUALS
000149: 17,2000                        C13BANK            EQUALS
000150: 17,2000                                           BNKSUM   17
000151:
000152: 20,2000                                           BANK     20
000153: 20,2000                        DAPS3              EQUALS
000154: 20,2000                        LOADDAP            EQUALS
000155: 20,2000                                           BNKSUM   20
000156:
000157: 21,2000                                           BANK     21
000158: 21,2000                        DAPS4              EQUALS
000159: 21,2000                        R10                EQUALS
000160: 21,2000                        R11                EQUALS
000161: 21,2000                                           BNKSUM   21


000163:
000164:                                                                                                  #  MODULE 4 CONTAINS BANKS 22 THROUGH 27
000165:
000166: 22,2000                                           BANK     22
000167: 22,2000                        KALCMON1           EQUALS
000168: 22,2000                        KALCMON2           EQUALS
000169: 22,2000                        R30LOC             EQUALS
000170: 22,2000                        RENDEZ             EQUALS
000171: 22,2000                        SERV2              EQUALS
000172: 22,2000                        LANDCNST           EQUALS
000173: 22,2000                                           BNKSUM   22
000174:
000175: 23,2000                                           BANK     23
000176: 23,2000                        POWFLITE           EQUALS
000177: 23,2000                        POWFLIT1           EQUALS
000178: 23,2000                        INFLIGHT           EQUALS
000179: 23,2000                        APOPERI            EQUALS
000180: 23,2000                        R61                EQUALS
000181: 23,2000                        R62                EQUALS
000182: 23,2000                        INTPRET1           EQUALS
000183: 23,2000                        MEASINC            EQUALS
000184: 23,2000                        MEASINC1           EQUALS
000185: 23,2000                        EXTVB1             EQUALS
000186: 23,2000                        P12A               EQUALS
000187: 23,2000                        NORMLIZ            EQUALS
000188: 23,2000                        ASENT7             EQUALS
000189: 23,2000                        RODTRAP            EQUALS
000190: 23,2000                                           BNKSUM   23
000191:
000192: 24,2000                                           BANK     24
000193: 24,2000                        PLANTIN            EQUALS
000194: 24,2000                        P20S               EQUALS
000195: 24,2000                                           BNKSUM   24
000196:
000197: 25,2000                                           BANK     25
000198: 25,2000                        P20S1              EQUALS
000199: 25,2000                        P20S2              EQUALS
000200: 25,2000                        RADARUPT           EQUALS
000201: 25,2000                        RRLEADIN           EQUALS
000202: 25,2000                        R29S1              EQUALS
000203: 25,2000                        PLANTIN3           EQUALS
000204: 25,2000                                           BNKSUM   25
000205:
000206: 26,2000                                           BANK     26


000208: 26,2000                        P20S3              EQUALS
000209: 26,2000                        BAWLANGS           EQUALS
000210: 26,2000                        MANUVER            EQUALS
000211: 26,2000                        MANUVER1           EQUALS
000212: 26,2000                        PLANTIN1           EQUALS
000213: 26,2000                        PLANTIN2           EQUALS
000214: 26,2000                                           BNKSUM   26
000215:
000216: 27,2000                                           BANK     27
000217: 27,2000                        TOF-FF             EQUALS
000218: 27,2000                        TOF-FF1            EQUALS
000219: 27,2000                        P40S1              EQUALS
000220: 27,2000                        VECPT              EQUALS
000221: 27,2000                        ASENT1             EQUALS
000222: 27,2000                        SERV3              EQUALS
000223: 27,2000                                           BNKSUM   27
000224:


000226:                                                                                                  #  MODULE 5 CONTAINS BANKS 30 THROUGH 35
000227:
000228: 30,2000                                           BANK     30
000229: 30,2000                        LOWSUPER           EQUALS
000230: 30,2000                        P12                EQUALS
000231: 30,2000                        ASENT              EQUALS
000232: 30,2000                        FCDUW              EQUALS
000233: 30,2000                        FLOGSUB            EQUALS
000234: 30,2000                        VB67A              EQUALS
000235: 30,2000                        ASENT5             EQUALS
000236: 30,2000                                           BNKSUM   30
000237:
000238: 31,2000                                           BANK     31
000239: 31,2000                        FTHROT             EQUALS
000240: 31,2000                        F2DPS*31           EQUALS
000241: 31,2000                        VB67               EQUALS
000242: 31,2000                                           BNKSUM   31
000243:
000244: 32,2000                                           BANK     32
000245: 32,2000                        P20S4              EQUALS
000246: 32,2000                        F2DPS*32           EQUALS
000247: 32,2000                        ABORTS             EQUALS
000248: 32,2000                        LRS22              EQUALS
000249: 32,2000                        P66LOC             EQUALS
000250: 32,2000                        R47                EQUALS
000251: 32,2000                        SERV               EQUALS
000252: 32,2000                                           BNKSUM   32
000253:
000254: 33,2000                                           BANK     33
000255: 33,2000                        SERVICES           EQUALS
000256: 33,2000                        R29/SERV           EQUALS
000257: 33,2000                        ASENT6             EQUALS
000258: 33,2000                                           BNKSUM   33
000259:
000260: 34,2000                                           BANK     34
000261: 34,2000                        ASENT8             EQUALS
000262: 34,2000                        P30S1              EQUALS
000263: 34,2000                        CSI/CDH1           EQUALS
000264: 34,2000                        ASCFILT            EQUALS
000265: 34,2000                        R12STUFF           EQUALS
000266: 34,2000                        SERV4              EQUALS
000267: 34,2000                        F2DPS*34           EQUALS


000269: 34,2000                                           BNKSUM   34
000270:
000271: 35,2000                                           BANK     35
000272: 35,2000                        CSI/CDH            EQUALS
000273: 35,2000                        P30S               EQUALS
000274: 35,2000                        P40S3              EQUALS
000275: 35,2000                        P40S2              EQUALS
000276: 35,2000                                           BNKSUM   35
000277:


000279:                                                                                                  #  MODULE 6 CONTAINS BANKS 36 THROUGH 43
000280:
000281: 36,2000                                           BANK     36
000282: 36,2000                        P40S               EQUALS
000283: 36,2000                                           BNKSUM   36
000284:
000285: 37,2000                                           BANK     37
000286: 37,2000                        P05P06             EQUALS
000287: 37,2000                        IMU2               EQUALS
000288: 37,2000                        IMU4               EQUALS
000289: 37,2000                        R31                EQUALS
000290: 37,2000                        IMUSUPER           EQUALS
000291: 37,2000                        SERV1              EQUALS
000292: 37,2000                                           BNKSUM   37
000293:
000294: 40,2000                                           BANK     40
000295: 40,2000                        PINBALL1           EQUALS
000296: 40,2000                        SELFSUPR           EQUALS
000297: 40,2000                        PINSUPER           EQUALS
000298: 40,2000                        R31LOC             EQUALS
000299: 40,2000                                           BNKSUM   40
000300:
000301: 41,2000                                           BANK     41
000302: 41,2000                        PINBALL2           EQUALS
000303: 41,2000                                           BNKSUM   41
000304:
000305: 42,2000                                           BANK     42
000306: 42,2000                        SBAND              EQUALS
000307: 42,2000                        PINBALL3           EQUALS
000308: 42,2000                                           BNKSUM   42
000309:
000310: 43,2000                                           BANK     43
000311: 43,2000                        EXTVERBS           EQUALS
000312: 43,2000                        SELFCHEC           EQUALS
000313: 43,2000                                           BNKSUM   43
000314:


000316:
000317: 43,2000  23,2523               HI6ZEROS           EQUALS   ZEROVECS                              #  ZERO VECTOR ALWAYS IN HIGH MEMORY
000318: 43,2000  12,2006               LO6ZEROS           EQUALS   ZEROVEC                               #  ZERO VECTOR ALWAYS IN LOW MEMORY
000319: 43,2000  23,2521               HIDPHALF           EQUALS   UNITX
000320: 43,2000  12,2004               LODPHALF           EQUALS   XUNIT
000321: 43,2000  23,2513               HIDP1/4            EQUALS   DP1/4TH
000322: 43,2000  04,3002               LODP1/4            EQUALS   D1/4                                  #  2DEC .25
000323: 43,2000  23,2521               HIUNITX            EQUALS   UNITX
000324: 43,2000  23,2517               HIUNITY            EQUALS   UNITY
000325: 43,2000  23,2515               HIUNITZ            EQUALS   UNITZ
000326: 43,2000  12,2004               LOUNITX            EQUALS   XUNIT                                 #  2DEC .5
000327: 43,2000  12,2002               LOUNITY            EQUALS   YUNIT                                 #  2DEC 0
000328: 43,2000  12,2000               LOUNITZ            EQUALS   ZUNIT                                 #  2DEC 0
000329:
000330: 43,2000  22,3541               DELRSPL            EQUALS   SPLRET                                #  COL PGM, ALSO CALLED BY R30 IN LUMINARY
000331:                                                                                                  #  ROPE-SPECIFIC ASSIGNS OBVIATING NEED TO CHECK COMPUTER FLAG IN          DETERMINING INTEGRATION AREA ENTRIES.
000332:
000333: 43,2000  13,2733               ATOPTHIS           EQUALS   ATOPLEM
000334: 43,2000  13,2660               ATOPOTH            EQUALS   ATOPCSM
000335: 43,2000  13,3042               OTHPREC            EQUALS   CSMPREC
000336: 43,2000  0000174               MOONTHIS           EQUALS   LMOONFLG
000337: 43,2000  0000173               MOONOTH            EQUALS   CMOONFLG
000338: 43,2000  13,2746               MOVATHIS           EQUALS   MOVEALEM
000339: 43,2000  12,2017               RMM                =        LODPMAX
000340: 43,2000  12,2021               RME                =        LODPMAX1
000341: 43,2000  13,3056               THISPREC           EQUALS   LEMPREC
000342: 43,2000  23,2515               THISAXIS           =        UNITZ
000343: 43,2000  23,2515               NB1NB2             EQUALS   THISAXIS                              #  FOR R31
000344: 43,2000     5011               ERASID             EQUALS   BITS2-10                              #  DOWNLINK ERASABLE DUMP ID
000345: 43,2000     4752               DELAYNUM           EQUALS   TWO
000346:

End of include-file TAGS_FOR_RELATIVE_SETLOC_AND_BLANK_BANK_CARDS.agc.  Parent file is MAIN.agc


