
Source Code


000002:                                                                                                  ## Copyright:   Public domain.
000003:                                                                                                  ## Filename:    WAITLIST.agc
000004:                                                                                                  ## Purpose:     A section of the reconstructed source code for Luminary 130.
000005:                                                                                                  ##              This was the original program released for the Apollo 13 LM,
000006:                                                                                                  ##              although several more revisions would follow. It has been
000007:                                                                                                  ##              reconstructed from a listing of Luminary 131, from which it
000008:                                                                                                  ##              differs on only two lines in P70-P71. The difference is
000009:                                                                                                  ##              described in detail in Luminary memo #129, which was used
000010:                                                                                                  ##              to perform the reconstruction. This file is intended to be a
000011:                                                                                                  ##              faithful reconstruction, except that the code format has been
000012:                                                                                                  ##              changed to conform to the requirements of the yaYUL assembler
000013:                                                                                                  ##              rather than the original YUL assembler.
000014:                                                                                                  ## Reference:   pp. 1111-1126
000015:                                                                                                  ## Contact:     Ron Burkey <info@sandroid.org>.
000016:                                                                                                  ## Website:     www.ibiblio.org/apollo/index.html
000017:                                                                                                  ## Mod history: 05/31/03 RSB.   Began transcribing.
000018:                                                                                                  ##              05/14/05 RSB    Corrected website reference above.
000019:                                                                                                  ##              2010-10-25 JL   Indentation fixes.
000020:                                                                                                  ##              2011-05-07 JL   Removed workarounds.
000021:                                                                                                  ##              2017-01-06 RSB  Page numbers now agree with those on the
000022:                                                                                                  ##                              original hardcopy, as opposed to the PDF page
000023:                                                                                                  ##                              numbers in 1701.pdf.
000024:                                                                                                  ##              2017-01-28 RSB  WTIH -> WITH.
000025:                                                                                                  ##              2017-02-09 RSB  Comment-text fixes identified in proofing Artemis 72
000026:                                                                                                  ##              2017-02-27 RSB  Proofed comment text using octopus/ProoferComments.
000027:                                                                                                  ##                              Also corrected WAITP00H and LONGP00H to their POOH
000028:                                                                                                  ##                              equivalents.
000029:                                                                                                  ##              2017-03-14 RSB  Comment-text fixes noted in proofing Luminary 116.
000030:                                                                                                  ##              2017-03-16 RSB  Comment-text fixes identified in 5-way
000031:                                                                                                  ##                              side-by-side diff of Luminary 69/99/116/131/210.
000032:                                                                                                  ##              2018-09-04 MAS  Copied from Luminary 131 for Luminary 130.
000033:


000035:                                                                                                  #  PROGRAM DESCRIPTION                                           DATE - 10 OCTOBER 1966
000036:                                                                                                  #  MOD NO - 2                                                    LOG SECTION - WAITLIST
000037:                                                                                                  #  MOD BY - MILLER       (DTMAX INCREASED TO 162.5 SEC)          ASSEMBLY SUNBURST REV 5
000038:                                                                                                  #  MOD 3 BY KERNAN       (INHINT INSERTED AT WAITLIST) 2/28/68 SKIPPER REV 4
000039:                                                                                                  #  MOD 4 BY KERNAN       (TWIDDLE IN 54) 3/28/68 SKIPPER REV 13.
000040:
000041:                                                                                                  #  FUNCTIONAL DESCRIPTION -
000042:                                                                                                  #        PART OF A SECTION OF PROGRAMS,-WAITLIST, TASKOVER, T3RUPT, USED TO CALL A PROGRAM, (CALLED A TASK),
000043:                                                                                                  #        WHICH IS TO BEGIN IN C(A) CENTISECONDS.  WAITLIST UPDATES TIME3, LST1 AND LST2.  THE MEANING OF THESE LISTS
000044:                                                                                                  #        FOLLOW.
000045:
000046:                                                                                                  #                C(TIME3) = 16384 -(T1-T) CENTISECONDS, (T=PRESENT TIME, T1-TIME FOR TASK1)
000047:
000048:                                                                                                  #                        C(LST1)         =       -(T2-T1)+1
000049:                                                                                                  #                        C(LST1 +1)      =       -(T3-T2)+1
000050:                                                                                                  #                        C(LST1 +2)      =       -(T4-T3)+1
000051:                                                                                                  #                                        .
000052:                                                                                                  #                                        .
000053:                                                                                                  #                        C(LST1 +6)      =       -(T8-T7)+1
000054:                                                                                                  #                        C(LST1 +7)      =       -(T9-T8)+1
000055:
000056:                                                                                                  #                        C(LST2)         =       2CADR OF TASK1
000057:                                                                                                  #                        C(LST2 +2)      =       2CADR OF TASK2
000058:                                                                                                  #                                        .
000059:                                                                                                  #                                        .
000060:                                                                                                  #                        C(LST2 +14)     =       2CADR OF TASK8
000061:                                                                                                  #                        C(LST2 +16)     =       2CADR OF TASK9
000062:
000063:                                                                                                  #  WARNINGS -
000064:                                                                                                  #  --------
000065:                                                                                                  #        1)      1 <= C(A) <= 16250D (1 CENTISECOND TO 162.5 SEC)
000066:                                                                                                  #        2)      9 TASKS MAXIMUM
000067:                                                                                                  #        3)      TASKS CALLED UNDER INTERRUPT INHIBITED
000068:                                                                                                  #        4)      TASKS END BY TC TASKOVER
000069:
000070:                                                                                                  #  CALLING SEQUENCE -
000071:                                                                                                  #        L-1     CA      DELTAT  (TIME IN CENTISECONDS TO TASK START)
000072:                                                                                                  #        L       TC      WAITLIST
000073:                                                                                                  #        L+1     2CADR   DESIRED TASK
000074:                                                                                                  #        L+2     (MINOR OF 2CADR)
000075:                                                                                                  #        L+3     RELINT          (RETURNS HERE)
000076:
000077:                                                                                                  #  TWIDDLE -
000078:                                                                                                  #  -------
000079:                                                                                                  #        TWIDDLE IS FOR USE WHEN THE TASK BEING SET UP IS IN THE SAME EBANK AND FBANK AS THE USER.  IN
000080:                                                                                                  #        SUCH CASES, IT IMPROVES UPON WAITLIST BY ELIMINATING THE NEED FOR THE BBCON HALF OF THE 2CADR,


000082:                                                                                                  #        SAVING A WORD.  TWIDDLE IS LIKE WAITLIST IN EVERY RESPECT EXCEPT CALLING SEQUENCE, TO WIT-
000083:                                                                                                  #                L-1     CA      DELTAT
000084:                                                                                                  #                L       TC      TWIDDLE
000085:                                                                                                  #                L+1     ADRES   DESIRED TASK
000086:                                                                                                  #                L+2     RELINT          (RETURNS HERE)
000087:
000088:                                                                                                  #  NORMAL EXIT MODES -
000089:                                                                                                  #        AT L+3 OF CALLING SEQUENCE
000090:
000091:                                                                                                  #  ALARM OR ABORT EXIT MODES -
000092:                                                                                                  #        TC      ABORT
000093:                                                                                                  #        OCT     1203    (WAITLIST OVERFLOW - TOO MANY TASKS)
000094:
000095:                                                                                                  #  ERASABLE INITIALIZATION REQUIRED -
000096:                                                                                                  #        ACCOMPLISHED BY FRESH START,--  LST2, ..., LST2 +16 = ENDTASK
000097:                                                                                                  #                                        LST1, ..., LST1 +7  = NEG1/2
000098:
000099:                                                                                                  #  OUTPUT--
000100:                                                                                                  #        LST1 AND LST2 UPDATED WITH NEW TASK AND ASSOCIATED TIME.
000101:
000102:                                                                                                  #  DEBRIS-
000103:                                                                                                  #        CENTRALS - A,Q,L
000104:                                                                                                  #        OTHER    - WAITEXIT, WAITADR, WAITTEMP, WAITBANK
000105:
000106:                                                                                                  #  DETAILED ANALYSIS OF TIMING -
000107:                                                                                                  #        CONTROL WILL NOT BE RETURNED TO THE SPECIFIED ADDRESS (2CADR) IN EXACTLY DELTA T CENTISECONDS.
000108:                                                                                                  #        THE APPROXIMATE TIME MAY BE CALCULATED AS FOLLOWS
000109:                                                                                                  #                LET TO = THE TIME OF THE TC WAITLIST
000110:                                                                                                  #                LET TS = TO +147U + COUNTER INCREMENTS (SET UP TIME)
000111:                                                                                                  #                LET X  = TS -(100TS)/100  (VARIANCE FROM COUNTERS)
000112:                                                                                                  #                LET Y  = LENGTH OF TIME OF INHIBIT INTERRUPT AFTER T3RUPT
000113:                                                                                                  #                LET Z  = LENGTH OF TIME TO PROCESS TASKS WHICH ARE DUE THIS T3RUPT BUT DISPATCHED EARLIER.
000114:                                                                                                  #        (Z=0, USUALLY)
000115:                                                                                                  #                LET DELTD = THE ACTUAL TIME TAKEN TO GIVE CONTROL TO 2CADR
000116:                                                                                                  #             THEN   DELTD = TS+DELTA T -X +Y +Z +1.05MS* +COUNTERS*
000117:                                                                                                  #        *-THE TIME TAKEN BY WAITLIST ITSELF AND THE COUNTER TICKING DURING THIS WAITLIST TIME.
000118:
000119:                                                                                                  #             IN SHORT, THE ACTUAL TIME TO RETURN CONTROL TO A 2CADR IS AUGMENTED BY THE TIME TO SET UP THE TASK:S
000120:                                                                                                  #        INTERRUPT, ALL COUNTERS TICKING, THE T3RUPT PROCESSING TIME, THE WAITLIST PROCESSING TIME AND THE POSSIBILITY
000121:                                                                                                  #        OF OTHER TASKS INHIBITING THE INTERRUPT.
000122:
000123:    5173                                           BLOCK    02


000125:    5173  E3,1400                                  EBANK=   LST1                                  #  TASK LISTS IN SWITCHED E BANK.
000126:
000127:    5173                                           COUNT*   $$/WAIT
000128:    5173           00004        TWIDDLE            INHINT
000129:    5174           54001                           TS       L                                     #  SAVE DELAY TIME IN L
000130:    5175           34733                           CA       POSMAX
000131:    5176           26002                           ADS      Q                                     #  CREATING OVERFLOW AND Q-1 IN Q
000132:    5177           30006                           CA       BBANK
000133:    5200           00006                           EXTEND
000134:    5201           04007                           ROR      SUPERBNK
000135:    5202           56001                           XCH      L
000136:
000137:    5203           00004        WAITLIST           INHINT
000138:    5204           56002                           XCH      Q                                     #  SAVE DELTA T IN Q AND RETURN IN
000139:    5205           54061                           TS       WAITEXIT                              #  WAITEXIT.
000140:    5206           00006                           EXTEND
000141:    5207           50061                           INDEX    WAITEXIT                              #  IF TWIDDLING, THE TS SKIPS TO HERE
000142:    5210           30001                           DCA      0                                     #  PICK UP 2CADR OF TASK.
000143:    5211           54063                 -1        TS       WAITADR                               #  BBCON WILL REMAIN IN L
000144:    5212           35220        DLY2               CAF      WAITBB                                #  ENTRY FROM FIXDELAY AND VARDELAY.
000145:    5213           56006                           XCH      BBANK
000146:    5214           13232                           TCF      WAIT2
000147:
000148:                                                                                                  #  RETURN TO CALLER AFTER TASK INSERTION:
000149:
000150:    5215           52062        LVWTLIST           DXCH     WAITEXIT
000151:    5216           64752                           AD       TWO
000152:    5217           52006                           DTCB
000153:
000154:    5220  E3,1400                                  EBANK=   LST1
000155:    5220           02063        WAITBB             BBCON    WAIT2
000156:
000157:                                                                                                  #  RETURN TO CALLER +2 AFTER WAITING DT SPECIFIED AT CALLER +1.
000158:
000159:    5221           50002        FIXDELAY           INDEX    Q                                     #  BOTH ROUTINES MUST BE CALLED UNDER
000160:    5222           30000                           CAF      0                                     #  WAITLIST CONTROL AND TERMINATE THE TASK
000161:    5223           24002                           INCR     Q                                     #  IN WHICH THEY WERE CALLED.
000162:
000163:                                                                                                  #  RETURN TO CALLER +1 AFTER WAITING THE DT AS ARRIVING IN A.
000164:
000165:    5224           56002        VARDELAY           XCH      Q                                     #  DT TO Q.  TASK ADRES TO WAITADR.
000166:    5225           54063                           TS       WAITADR
000167:    5226           30006                           CA       BBANK                                 #  BBANK IS SAVED DURING DELAY.
000168:    5227           00006                           EXTEND
000169:    5230           04007                           ROR      SUPERBNK                              #  ADD SBANK TO BBCON.
000170:    5231           54001                           TS       L
000171:    5232           35235                           CAF      DELAYEX
000172:    5233           54061                           TS       WAITEXIT                              #  GO TO TASKOVER AFTER TASK ENTRY.
000173:    5234           15212                           TCF      DLY2
000174:


000176:    5235           15257        DELAYEX            TCF      TASKOVER   -2                         #  RETURNS TO TASKOVER
000177:


000179:                                                                                                  #  ENDTASK MUST BE ENTERED IN FIXED-FIXED SO IT IS DISTINGUISHABLE BY ITS ADRES ALONE.
000180:
000181:    5236  E3,1400                                  EBANK=   LST1
000182:    5236           72537 73714  ENDTASK            -2CADR   SVCT3
000183:
000184:    5240           10076        SVCT3              CCS      FLAGWRD2                              #  DRIFT FLAG
000185:    5241           15261                           TCF      TASKOVER
000186:    5242           15261                           TCF      TASKOVER
000187:    5243           15244                           TCF      +1
000188:
000189:    5244           11301        CKIMUSE            CCS      IMUCADR                               #  DON'T DO NBDONLY IF SOMEONE ELSE IS IN
000190:    5245           15256                           TCF      SVCT3X                                #  IMUSTALL.
000191:    5246           15251                           TCF      +3
000192:    5247           15256                           TCF      SVCT3X
000193:    5250           15256                           TCF      SVCT3X
000194:
000195:    5251           37726                 +3        CAF      PRIO35                                #  COMPENSATE FOR NBD COEFFICIENTS ONLY.
000196:    5252           05072                           TC       NOVAC                                 #        ENABLE EVERY 81.93 SECONDS
000197:    5253  E3,1460                                  EBANK=   NBDX
000198:    5253           03563 14063                     2CADR    NBDONLY
000199:
000200:    5255           15261                           TCF      TASKOVER
000201:
000202:    5256           05221        SVCT3X             TC       FIXDELAY                              #  DELAY MAX OF 2 TIMES FOR IMUZERO.
000203:    5257           00764                           DEC      500        B-14
000204:    5260           05240                           TC       SVCT3                                 #  CHECK DRIFT FLAG AGAIN.
000205:


000207:                                                                                                  #  BEGIN TASK INSERTION.
000208:
000209: 01,3232                                           BANK     01
000210: 01,3232                                           COUNT*   $$/WAIT
000211: 01,3232           54062        WAIT2              TS       WAITBANK                              #  BBANK OF CALLING PROGRAM.
000212: 01,3233           30002                           CA       Q
000213: 01,3234           00006                           EXTEND
000214: 01,3235           63524                           BZMF     WAITPOOH
000215:
000216: 01,3236           40026                           CS       TIME3
000217: 01,3237           64744                           AD       BIT8                                  #  BIT 8 = OCT 200
000218: 01,3240           10000                           CCS      A                                     #  TEST 200 - C(TIME3).  IF POSITIVE,
000219:                                                                                                  #  IT MEANS THAT TIME3 OVERFLOW HAS OCCURRED PRIOR TO CS TIME3 AND THAT
000220:                                                                                                  #  C(TIME3) = T - T1, INSTEAD OF 1.0 - (T1 - T).  THE FOLLOWING FOUR
000221:                                                                                                  #  ORDERS SET C(A) = TD - T1 + 1 IN EITHER CASE.
000222:
000223: 01,3241           66112                           AD       OCT40001                              #  OVERFLOW HAS OCCURRED.  SET C(A) =
000224: 01,3242           40000                           CS       A                                     #  T - T1 + 1.0 - 201
000225:
000226:                                                                                                  #  NORMAL CASE (C(A) NNZ) YIELDS SAME C(A):  -( -(1.0-(T1-T)) + 200) - 1
000227:
000228: 01,3243           63371                           AD       OCT40201
000229: 01,3244           60002                           AD       Q                                     #  RESULT = TD - T1 + 1.
000230:
000231: 01,3245           10000                           CCS      A                                     #  TEST TD - T1 + 1
000232:
000233: 01,3246           61400                           AD       LST1                                  #  IF TD - T1 POS, GO TO WTLST5 WITH
000234: 01,3247           13311                           TCF      WTLST5                                #  C(A) = (TD - T1) + C(LST1) = TD-T2+1
000235:
000236: 01,3250           13251                           NOOP
000237: 01,3251           40002                           CS       Q
000238:
000239:                                                                                                  #  NOTE THAT THIS PROGRAM SECTION IS NEVER ENTERED WHEN T-T1 G/E -1,
000240:                                                                                                  #  SINCE TD-T1+1 = (TD-T) + (T-T1+1), AND DELTA T = TD-T G/E +1.  (G/E
000241:                                                                                                  #  SYMBOL MEANS GREATER THAN OR EQUAL TO).  THUS THERE NEED BE NO CON-
000242:                                                                                                  #  CERN OVER A PREVIOUS OR IMMINENT OVERFLOW OF TIME3 HERE.
000243:
000244: 01,3252           64736                           AD       POS1/2                                #  WHEN TD IS NEXT, FORM QUANTITY
000245: 01,3253           64736                           AD       POS1/2                                #        1.0 - DELTA T = 1.0 - (TD - T)
000246: 01,3254           56026                           XCH      TIME3
000247: 01,3255           64735                           AD       NEGMAX
000248: 01,3256           60002                           AD       Q                                     #  1.0 - DELTAT T NOW COMPLETE.
000249: 01,3257           00006                           EXTEND                                         #  ZERO INDEX Q.
000250: 01,3260           22007                           QXCH     7                                     #  (ZQ)
000251:


000253: 01,3261           57400        WTLST4             XCH      LST1
000254: 01,3262           57401                           XCH      LST1       +1
000255: 01,3263           57402                           XCH      LST1       +2
000256: 01,3264           57403                           XCH      LST1       +3
000257: 01,3265           57404                           XCH      LST1       +4
000258: 01,3266           57405                           XCH      LST1       +5
000259: 01,3267           57406                           XCH      LST1       +6
000260: 01,3270           57407                           XCH      LST1       +7
000261:
000262: 01,3271           30063                           CA       WAITADR                               #  (MINOR PART OF TASK CADR HAS BEEN IN L.)
000263: 01,3272           50002                           INDEX    Q
000264: 01,3273           13274                           TCF      +1
000265:
000266: 01,3274           53411                           DXCH     LST2
000267: 01,3275           53413                           DXCH     LST2       +2
000268: 01,3276           53415                           DXCH     LST2       +4
000269: 01,3277           53417                           DXCH     LST2       +6
000270: 01,3300           53421                           DXCH     LST2       +8D
000271: 01,3301           53423                           DXCH     LST2       +10D                       #  AT END, CHECK THAT C(LST2 +10) IS STD
000272: 01,3302           53425                           DXCH     LST2       +12D
000273: 01,3303           53427                           DXCH     LST2       +14D
000274: 01,3304           53431                           DXCH     LST2       +16D
000275: 01,3305           65236                           AD       ENDTASK                               #  END ITEM, AS CHECK FOR EXCEEDING
000276:                                                                                                  #  THE LENGTH OF THE LIST.
000277: 01,3306           00006                           EXTEND                                         #  DUMMY TASK ADRES SHOULD BE IN FIXED-
000278: 01,3307           15215                           BZF      LVWTLIST                              #  FIXED SO ITS ADRES ALONE DISTINGUISHES
000279: 01,3310           13364                           TCF      WTABORT                               #  IT.
000280:


000282: 01,3311           10000        WTLST5             CCS      A                                     #  TEST TD - T2 + 1
000283: 01,3312           61401                           AD       LST1       +1
000284: 01,3313           13317                           TCF      +4
000285: 01,3314           64753                           AD       ONE
000286: 01,3315           03375                           TC       WTLST2
000287: 01,3316           00001                           OCT      1
000288:
000289: 01,3317           10000                 +4        CCS      A                                     #  TEST TD - T3 + 1
000290: 01,3320           61402                           AD       LST1       +2
000291: 01,3321           13325                           TCF      +4
000292: 01,3322           64753                           AD       ONE
000293: 01,3323           03375                           TC       WTLST2
000294: 01,3324           00002                           OCT      2
000295:
000296: 01,3325           10000                 +4        CCS      A                                     #  TEST TD - T4 + 1
000297: 01,3326           61403                           AD       LST1       +3
000298: 01,3327           13333                           TCF      +4
000299: 01,3330           64753                           AD       ONE
000300: 01,3331           03375                           TC       WTLST2
000301: 01,3332           00003                           OCT      3
000302:
000303: 01,3333           10000                 +4        CCS      A                                     #  TEST TD - T5 + 1
000304: 01,3334           61404                           AD       LST1       +4
000305: 01,3335           13341                           TCF      +4
000306: 01,3336           64753                           AD       ONE
000307: 01,3337           03375                           TC       WTLST2
000308: 01,3340           00004                           OCT      4
000309:
000310: 01,3341           10000                 +4        CCS      A                                     #  TEST TD - T6 + 1
000311: 01,3342           61405                           AD       LST1       +5
000312: 01,3343           13347                           TCF      +4
000313: 01,3344           64753                           AD       ONE
000314: 01,3345           03375                           TC       WTLST2
000315: 01,3346           00005                           OCT      5
000316:
000317: 01,3347           10000                 +4        CCS      A                                     #  TEST TD - T7 + 1
000318: 01,3350           61406                           AD       LST1       +6
000319: 01,3351           13355                           TCF      +4
000320: 01,3352           64753                           AD       ONE
000321: 01,3353           03375                           TC       WTLST2
000322: 01,3354           00006                           OCT      6
000323:


000325: 01,3355           10000                 +4        CCS      A
000326: 01,3356           61407                           AD       LST1       +7
000327: 01,3357           13363                           TCF      +4
000328: 01,3360           64753                           AD       ONE
000329: 01,3361           03375                           TC       WTLST2
000330: 01,3362           00007                           OCT      7
000331:
000332: 01,3363           10000                 +4        CCS      A
000333: 01,3364           03372        WTABORT            TC       FILLED
000334: 01,3365           13366                           NOOP                                           #  CAN'T GET HERE
000335: 01,3366           64753                           AD       ONE
000336: 01,3367           03375                           TC       WTLST2
000337: 01,3370           00010                           OCT      10
000338:
000339: 01,3371           40201        OCT40201           OCT      40201
000340:


000342: 01,3372           52062        FILLED             DXCH     WAITEXIT
000343: 01,3373           05706                           TC       BAILOUT1                              #  NO ROOM IN THE INN
000344: 01,3374           31203                           OCT      31203
000345:


000347:                                                                                                  #  THE ENTRY TO WTLST2 JUST PRECEDING OCT N IS FOR T  LE TD LE T   -1.
000348:                                                                                                  #                                                   N           N+1
000349:                                                                                                  #  (LE MEANS LESS THAN OR EQUAL TO).  AT ENTRY, C(A) = -(TD - T   + 1)
000350:                                                                                                  #                                                              N+1
000351:                                                                                                  #  THE LST1 ENTRY-(T   -T +1) IS TO BE REPLACED BY -(TD - T  + 1), AND
000352:                                                                                                  #                   N+1  N                                 N
000353:                                                                                                  #  THE ENTRY-(T   - TD + 1) IS TO BE INSERTED IMMEDIATELY FOLLOWING.
000354:                                                                                                  #              N+1
000355:
000356: 01,3375           54064        WTLST2             TS       WAITTEMP                              #  C(A) = -(TD - T + 1)
000357: 01,3376           50002                           INDEX    Q
000358: 01,3377           30000                           CAF      0
000359: 01,3400           54002                           TS       Q                                     #  INDEX VALUE INTO Q.
000360:
000361: 01,3401           34753                           CAF      ONE
000362: 01,3402           60064                           AD       WAITTEMP
000363: 01,3403           50002                           INDEX    Q                                     #  C(A) = -(TD - T ) + 1.
000364: 01,3404           27377                           ADS      LST1       -1                         #                 N
000365:
000366: 01,3405           40064                           CS       WAITTEMP
000367: 01,3406           50002                           INDEX    Q
000368: 01,3407           13261                           TCF      WTLST4
000369:
000370:                                                                                                  #        C(TIME3)        =       1.0 - (T1 - T)
000371:
000372:                                                                                                  #        C(LST1)         =       - (T2 - T1) + 1
000373:                                                                                                  #        C(LST1+1)       =       - (T3 - T2) + 1
000374:                                                                                                  #        C(LST1+2)       =       - (T4 - T3) + 1
000375:                                                                                                  #        C(LST1+3)       =       - (T5 - T4) + 1
000376:                                                                                                  #        C(LST1+4)       =       - (T6 - T5) + 1
000377:
000378:                                                                                                  #        C(LST2)         =       2CADR TASK1
000379:                                                                                                  #        C(LST2+2)       =       2CADR TASK2
000380:                                                                                                  #        C(LST2+4)       =       2CADR TASK3
000381:                                                                                                  #        C(LST2+6)       =       2CADR TASK4
000382:                                                                                                  #        C(LST2+8)       =       2CADR TASK5
000383:                                                                                                  #        C(LST2+10)      =       2CADR TASK6
000384:


000386:                                                                                                  #  ENTERS HERE ON T3 RUPT TO DISPATCH WAITLISTED TASK.
000387:
000388: 01,3410           00006        T3RUPT             EXTEND
000389: 01,3411           04007                           ROR      SUPERBNK                              #  READ CURRENT SUPERBANK VALUE AND
000390: 01,3412           54016                           TS       BANKRUPT                              #  SAVE WITH E AND F BANK VALUES.
000391: 01,3413           00006                           EXTEND
000392: 01,3414           22012                           QXCH     QRUPT
000393:
000394: 01,3415           34734        T3RUPT2            CAF      NEG1/2                                #  DISPATCH WAITLIST TASK.
000395: 01,3416           57407                           XCH      LST1       +7
000396: 01,3417           57406                           XCH      LST1       +6
000397: 01,3420           57405                           XCH      LST1       +5
000398: 01,3421           57404                           XCH      LST1       +4                         #  1. MOVE UP LST1 CONTENTS, ENTERING
000399: 01,3422           57403                           XCH      LST1       +3                         #     A VALUE OF 1/2 +1 AT THE BOTTOM
000400: 01,3423           57402                           XCH      LST1       +2                         #     FOR T6-T5, CORRESPONDING TO THE
000401: 01,3424           57401                           XCH      LST1       +1                         #     INTERVAL 81.91 SEC FOR ENDTASK.
000402: 01,3425           57400                           XCH      LST1
000403: 01,3426           64733                           AD       POSMAX                                #  2. SET T3 = 1.0 - T2 - T USING LIST 1.
000404: 01,3427           26026                           ADS      TIME3                                 #     SO T3 WONT TICK DURING UPDATE.
000405: 01,3430           54332                           TS       RUPTAGN
000406: 01,3431           44755                           CS       ZERO
000407: 01,3432           54332                           TS       RUPTAGN                               #  SETS RUPTAGN TO +1 ON OVERFLOW.
000408:
000409: 01,3433           00006                           EXTEND                                         #  DISPATCH TASK.
000410: 01,3434           45237                           DCS      ENDTASK
000411: 01,3435           53431                           DXCH     LST2       +16D
000412: 01,3436           53427                           DXCH     LST2       +14D
000413: 01,3437           53425                           DXCH     LST2       +12D
000414: 01,3440           53423                           DXCH     LST2       +10D
000415: 01,3441           53421                           DXCH     LST2       +8D
000416: 01,3442           53417                           DXCH     LST2       +6
000417: 01,3443           53415                           DXCH     LST2       +4
000418: 01,3444           53413                           DXCH     LST2       +2
000419: 01,3445           53411                           DXCH     LST2
000420:
000421: 01,3446           56001                           XCH      L
000422: 01,3447           00006                           EXTEND
000423: 01,3450           01007                           WRITE    SUPERBNK                              #  SET SUPERBANK FROM BBCON OF 2CADR
000424: 01,3451           56001                           XCH      L                                     #  RESTORE TO L FOR DXCH Z.
000425: 01,3452           52006                           DTCB
000426:


000428:                                                                                                  #  RETURN, AFTER EXECUTION OF T3 OVERFLOW TASK:
000429:
000430:    5261                                           BLOCK    02
000431:    5261                                           COUNT*   $$/WAIT
000432:    5261           10332        TASKOVER           CCS      RUPTAGN                               #  IF +1 RETURN TO T3RUPT, IF -0 RESUME.
000433:    5262           35220                           CAF      WAITBB
000434:    5263           54006                           TS       BBANK
000435:    5264           13415                           TCF      T3RUPT2                               #  DISPATCH NEXT TASK IF IT WAS DUE.
000436:
000437:    5265           30016                           CA       BANKRUPT
000438:    5266           00006                           EXTEND
000439:    5267           01007                           WRITE    SUPERBNK                              #  RESTORE SUPERBANK BEFORE RESUME IS DONE
000440:
000441:    5270           00006        RESUME             EXTEND
000442:    5271           22012                           QXCH     QRUPT
000443:    5272           30016        NOQRSM             CA       BANKRUPT
000444:    5273           56006                           XCH      BBANK
000445:    5274           52011        NOQBRSM            DXCH     ARUPT
000446:    5275           00003                           RELINT
000447:    5276           50017                           RESUME
000448:


000450:                                                                                                  #  LONGCALL
000451:                                                                                                  #  PROGRAM DESCRIPTION                           DATE - 17 MARCH 1967
000452:                                                                                                  #  PROGRAM WRITTEN BY W.H.VANDEVER               LOG SECTION WAITLIST
000453:                                                                                                  #  MOD BY - R. MELANSON TO ADD DOCUMENTATION     ASSEMBLY SUNDISK REV. 100
000454:
000455:                                                                                                  #  FUNCTIONAL DESCRIPTION -
000456:                                                                                                  #        LONGCALL IS CALLED WITH THE DELTA TIME ARRIVING IN A,L SCALED AS TIME2,TIME1 WITH THE 2CADR OF THE TASK
000457:                                                                                                  #        IMMEDIATELY FOLLOWING THE TC LONGCALL.  FOR EXAMPLE, IT MIGHT BE DONE AS FOLLOWS WHERE TIMELOC IS THE NAME OF
000458:                                                                                                  #        A DP REGISTER CONTAINING A DELTA TIME AND WHERE TASKTODO IS THE NAME OF THE LOCATION AT WHICH LONGCALL IS TO
000459:                                                                                                  #        START
000460:                                                                                                  #  CALLING SEQUENCE -
000461:                                                                                                  #                EXTEND
000462:                                                                                                  #                DCA     TIMELOC
000463:                                                                                                  #                TC      LONGCALL
000464:                                                                                                  #                2CADR   TASKTODO
000465:                                                                                                  #  NORMAL EXIT MODE -
000466:                                                                                                  #        1).     TC      WAITLIST
000467:                                                                                                  #        2).     DTCB    (TO L+3 OF CALLING ROUTINE 1ST PASS THRU LONGCYCL)
000468:                                                                                                  #        3).     DTCB    (TO TASKOVER ON SUBSEQUENT PASSES THRU LONGCYCL)
000469:                                                                                                  #  ALARM OR ABORT EXIT MODE -
000470:                                                                                                  #        NONE
000471:                                                                                                  #  OUTPUT -
000472:                                                                                                  #        LONGTIME AND LONGTIME+1 = DELTA TIME
000473:                                                                                                  #        LONGEXIT AND LONGEXIT+1 = RETURN 2CADR
000474:                                                                                                  #        LONGCADR AND LONGCADR+1 = TASK 2CADR
000475:                                                                                                  #        A = SINGLE PRECISION TIME FOR WAITLIST
000476:                                                                                                  #  ERASABLE INITIALIZATION -
000477:                                                                                                  #        A = MOST SIGNIFICANT PART OF DELTA TIME
000478:                                                                                                  #        L = LEAST SIGNIFICANT PART OF DELTA TIME
000479:                                                                                                  #        Q = ADDRESS OF 2CADR TASK VALUE
000480:                                                                                                  #  DEBRIS -
000481:                                                                                                  #        A,Q,L
000482:                                                                                                  #        LONGCADR AND LONGCADR+1
000483:                                                                                                  #        LONGEXIT AND LONGEXIT+1
000484:                                                                                                  #        LONGTIME AND LONGTIME+1
000485:                                                                                                  #  *** THE FOLLOWING IS TO BE IN FIXED-FIXED AND UNSWITCHED ERRASIBLE ***
000486:
000487:    5277                                           BLOCK    02
000488:    5277  E3,1400                                  EBANK=   LST1
000489:    5277           53153        LONGCALL           DXCH     LONGTIME                              #  OBTAIN THE DELTA TIME
000490:
000491:    5300           00006                           EXTEND                                         #  OBTAIN THE 2CADR


000493:    5301           50002                           NDX      Q
000494:    5302           30001                           DCA      0
000495:    5303           53147                           DXCH     LONGCADR
000496:
000497:    5304           00006                           EXTEND                                         #  NOW GO TO THE APPROPRIATE SWITCHED BANK
000498:    5305           35310                           DCA      LGCL2CDR                              #  FOR THE REST OF LONGCALL
000499:    5306           52006                           DTCB
000500:
000501:    5307  E3,1400                                  EBANK=   LST1
000502:    5307           03453 02063  LGCL2CDR           2CADR    LNGCALL2
000503:
000504:                                                                                                  #  *** THE FOLLOWING MAY BE IN A SWITCHED BANK, INCLUDING ITS ERASABLE ***
000505:
000506: 01,3453                                           BANK     01
000507: 01,3453                                           COUNT*   $$/WAIT
000508: 01,3453           23435        LNGCALL2           LXCH     LONGEXIT   +1                         #  SAVE THE CORRECT BB FOR RETURN
000509: 01,3454           34752                           CA       TWO                                   #  OBTAIN THE RETURN ADDRESS
000510: 01,3455           26002                           ADS      Q
000511: 01,3456           55434                           TS       LONGEXIT
000512:
000513: 01,3457           31152                           CA       LONGTIME                              #  CHECK FOR LEGITIMATE DELTA-TIME
000514: 01,3460           10000                           CCS      A
000515: 01,3461           13467                           TCF      LONGCYCL                              #  HI-ORDER OK --> ALL IS OK.
000516: 01,3462           13464                           TCF      +2                                    #  HI-ORDER ZERO --> CHECK LO-ORDER.
000517: 01,3463           13522                           TCF      LONGPOOH                              #  HI-ORDER NEG. --> NEG. DT
000518: 01,3464           31153                 +2        CA       LONGTIME   +1                         #  CHECK LO-ORDER FOR ZERO OR NEGATIVE.
000519: 01,3465           00006                           EXTEND
000520: 01,3466           63522                           BZMF     LONGPOOH                              #  BAD DELTA-TIME.  ABORT
000521:
000522:                                                                                                  #  *** WAITLIST TASK LONGCYCL ***
000523:
000524: 01,3467           00006        LONGCYCL           EXTEND                                         #  CAN WE SUCCESFULLY TAKE ABOUT 1.25
000525: 01,3470           43501                           DCS      DPBIT14                               #  MINUTES OFF OF LONGTIME
000526: 01,3471           21153                           DAS      LONGTIME
000527:
000528: 01,3472           11153                           CCS      LONGTIME   +1                         #  THE REASONIBG BEHIND THIS PART IS
000529: 01,3473           13512                           TCF      MUCHTIME                              #  INVOLVED, TAKING INTO ACCOUNT THAT THE
000530:                                                                                                  #  WORDS MAY NOT BE SIGNED CORRECTED (DP
000531:                                                                                                  #  BASIC INSTRUCTIONS
000532:                                                                                                  #  DO NOT SIGN CORRECT) AND THAT WE SUBTRAC
000533:                                                                                                  #  TED BIT14 (1 OVER HALF THE POS. VALUE
000534:                                                                                                  #  REPRESENTIBLE IN SINGLE WORD)
000535: 01,3474           13475                           NOOP                                           #  CAN:T GET HERE    **********
000536: 01,3475           13476                           TCF      +1
000537: 01,3476           11152                           CCS      LONGTIME
000538: 01,3477           13512                           TCF      MUCHTIME
000539: 01,3500           00000        DPBIT14            OCT      00000
000540: 01,3501           20000                           OCT      20000
000541:
000542:                                                                                                  #  LONGCALL


000544: 01,3502           34736        LASTTIME           CA       BIT14                                 #  GET BACK THE CORRECT DELTA TFOR WAITLIST
000545: 01,3503           27153                           ADS      LONGTIME   +1
000546: 01,3504           05203                           TC       WAITLIST
000547: 01,3505  E3,1400                                  EBANK=   LST1
000548: 01,3505           03517 02063                     2CADR    GETCADR                               #  THE ENTRY TO OUR LONGCADR
000549:
000550: 01,3507           33521        LONGRTRN           CA       TSKOVCDR                              #  SET IT UP SO THAT ONLY THE FIRST EXIT IS
000551: 01,3510           53435                           DXCH     LONGEXIT                              #  TO THE CALLER OF LONGCALL
000552: 01,3511           52006                           DTCB                                           #  THE REST ARE TO TASKOVER
000553:
000554: 01,3512           34736        MUCHTIME           CA       BIT14                                 #  WE HAVE OVER OUR ABOUT 1.25 MINUTES
000555: 01,3513           05203                           TC       WAITLIST                              #  SO SET UP FOR ANOTHER CYCLE THROUGH HERE
000556: 01,3514  E3,1400                                  EBANK=   LST1
000557: 01,3514           03467 02063                     2CADR    LONGCYCL
000558:
000559: 01,3516           13507                           TCF      LONGRTRN                              #  NOW EXIT PROPERLY
000560:
000561:                                                                                                  #  *** WAITLIST TASK GETCADR ***
000562:
000563: 01,3517           53147        GETCADR            DXCH     LONGCADR                              #  GET THE LONGCALL THAT WE WISHED TO START
000564: 01,3520           52006                           DTCB                                           #  AND TRANSFER CONTROL TO IT
000565:
000566: 01,3521           05261        TSKOVCDR           GENADR   TASKOVER
000567: 01,3522           53435        LONGPOOH           DXCH     LONGEXIT
000568: 01,3523           13525                           TCF      +2
000569: 01,3524           52062        WAITPOOH           DXCH     WAITEXIT
000570: 01,3525           05716                 +2        TC       POODOO1
000571: 01,3526           21204                           OCT      21204
000572:

End of include-file WAITLIST.agc.  Parent file is MAIN.agc


