
Source Code


000002:                                                                                                  ## Copyright:   Public domain.
000003:                                                                                                  ## Filename:    ALARM_AND_ABORT.agc
000004:                                                                                                  ## Purpose:     Part of the source code for Colossus, build 249.
000005:                                                                                                  ##              It is part of the source code for the Command Module's (CM)
000006:                                                                                                  ##              Apollo Guidance Computer (AGC), for Apollo 9.
000007:                                                                                                  ## Assembler:   yaYUL
000008:                                                                                                  ## Reference:   Starts on p. 1461
000009:                                                                                                  ## Contact:     Ron Burkey <info@sandroid.org>.
000010:                                                                                                  ## Website:     www.ibiblio.org/apollo.
000011:                                                                                                  ## Mod history: 08/30/04   RSB  Adapted from corresponding Luminary131 file.
000012:                                                                                                  ##              2010-10-24 JL   Indentation fixes.
000013:                                                                                                  ##              2011-05-07 JL   Removed workarounds.
000014:                                                                                                  ##              2017-01-06 RSB  Page numbers now agree with those on the
000015:                                                                                                  ##                              original harcopy, as opposed to the PDF page
000016:                                                                                                  ##                              numbers in 1701.pdf.
000017:                                                                                                  ##              2017-01-07 RSB  Cross-diff'd comment text (not whitespace)
000018:                                                                                                  ##                              vs the already-proofed corresponding Colossus
000019:                                                                                                  ##                              237 and Comanche 55 source-code files
000020:                                                                                                  ##                              and corrected errors found.
000021:                                                                                                  ##
000022:                                                                                                  ## The contents of the "Colossus249" files, in general, are transcribed
000023:                                                                                                  ## from a scanned copy of the program listing.  Notations on this
000024:                                                                                                  ## document read, in part:
000025:                                                                                                  ##
000026:                                                                                                  ##      Assemble revision 249 of AGC program Colossus by NASA
000027:                                                                                                  ##      2021111-041.  October 28, 1968.
000028:                                                                                                  ##
000029:                                                                                                  ##      This AGC program shall also be referred to as
000030:                                                                                                  ##                              Colossus 1A
000031:                                                                                                  ##
000032:                                                                                                  ##      Prepared by
000033:                                                                                                  ##                      Massachusetts Institute of Technology
000034:                                                                                                  ##                      75 Cambridge Parkway
000035:                                                                                                  ##                      Cambridge, Massachusetts
000036:                                                                                                  ##      under NASA contract NAS 9-4065.
000037:                                                                                                  ##
000038:                                                                                                  ## Refer directly to the online document mentioned above for further information.
000039:                                                                                                  ## Please report any errors (relative to the scanned pages) to info@sandroid.org.
000040:                                                                                                  ##
000041:                                                                                                  ## In some cases, where the source code for Luminary 131 overlaps that of
000042:                                                                                                  ## Colossus 249, this code is instead copied from the corresponding Luminary 131
000043:                                                                                                  ## source file, and then is proofed to incorporate any changes.
000044:


000046:                                                                                                  #  THE FOLLOWING SUBROUTINE MAY BE CALLED TO DISPLAY A NON-ABORTIVE ALARM CONDITION.  IT MAY BE CALLED
000047:                                                                                                  #  EITHER IN INTERRUPT OR UNDER EXECUTIVE CONTROL.
000048:
000049:                                                                                                  #  CALLING SEQUENCE IS AS FOLLOWS:
000050:                                                                                                  #                TC      ALARM
000051:                                                                                                  #                OCT     AAANN           ALARM NO. NN IN GENERAL AREA AAA.
000052:                                                                                                  #                                        (RETURNS HERE)
000053:
000054:    5537                                           BLOCK    02
000055:    4000                                           SETLOC   FFTAG7
000056:    4000                                           BANK
000057:
000058:    5537     0375                                  EBANK=   FAILREG
000059:
000060:    5537                                           COUNT    02/ALARM
000061:
000062:                                                                                                  #  ALARM TURNS ON THE PROGRAM ALARM LIGHT, BUT DOES NOT DISPLAY.
000063:
000064:    5537           00004        ALARM              INHINT
000065:
000066:    5540           30002                           CA       Q
000067:    5541           55363        ALARM2             TS       ALMCADR
000068:    5542           50002                           INDEX    Q
000069:    5543           30000                           CA       0
000070:    5544           54001        BORTENT            TS       L
000071:
000072:    5545           30006        PRIOENT            CA       BBANK
000073:    5546           00006                 +1        EXTEND
000074:    5547           04007                           ROR      SUPERBNK                              #  ADD SUPER BITS.
000075:    5550           55364                           TS       ALMCADR    +1
000076:
000077:    5551           30002        LARMENT            CA       Q                                     #  STORE RETURN FOR ALARM
000078:    5552           54061                           TS       ITEMP1
000079:
000080:    5553           10375        CHKFAIL1           CCS      FAILREG                               #  IS ANYTHING IN FAILREG
000081:    5554           15557                           TCF      CHKFAIL2                              #  YES TRY NEXT REG
000082:    5555           22375                           LXCH     FAILREG
000083:    5556           15571                           TCF      PROGLARM                              #  TURN ALARM LIGHT ON FOR FIRST ALARM
000084:
000085:    5557           10376        CHKFAIL2           CCS      FAILREG    +1
000086:    5560           15563                           TCF      FAIL3
000087:    5561           22376                           LXCH     FAILREG    +1
000088:    5562           15574                           TCF      MULTEXIT
000089:
000090:    5563           30377        FAIL3              CA       FAILREG    +2
000091:    5564           74672                           MASK     POSMAX
000092:    5565           10000                           CCS      A
000093:    5566           15600                           TCF      MULTFAIL
000094:    5567           22377                           LXCH     FAILREG    +2


000096:    5570           15574                           TCF      MULTEXIT
000097:
000098:    5571           41036        PROGLARM           CS       DSPTAB     +11D
000099:    5572           75612                           MASK     OCT40400
000100:    5573           27036                           ADS      DSPTAB     +11D
000101:
000102:    5574           56061        MULTEXIT           XCH      ITEMP1                                #  OBTAIN RETURN ADDRESS IN A
000103:    5575           00003                           RELINT
000104:    5576           50000                           INDEX    A
000105:    5577           00001                           TC       1
000106:
000107:    5600           30001        MULTFAIL           CA       L
000108:    5601           64674                           AD       BIT15
000109:    5602           54377                           TS       FAILREG    +2
000110:
000111:    5603           15574                           TCF      MULTEXIT
000112:
000113:                                                                                                  #  PRIOLARM DISPLAYS V05N09 VIA PRIODSPR WITH 3 RETURNS TO THE USER FROM THE ASTRONAUT AT CALL LOC +1,+2,+3 AND
000114:                                                                                                  #  AN IMMEDIATE RETURN TO THE USER AT CALL LOC +4.  EXAMPLE FOLLOWS,
000115:                                                                                                  #                CAF     OCTXX           ALARM CODE
000116:                                                                                                  #                TC      BANKCALL
000117:                                                                                                  #                CADR    PRIOLARM
000118:                                                                                                  #                ...     ...
000119:                                                                                                  #                ...     ...
000120:                                                                                                  #                ...     ...             ASTRONAUT RETURN
000121:                                                                                                  #                TC      PHASCHNG        IMMEDIATE RETURN TO USER.  RESTART
000122:                                                                                                  #                OCT     X.1             PHASE CHANGE FOR PRIO DISPLAY
000123:
000124: 10,3671                                           BANK     10
000125: 10,2000                                           SETLOC   DISPLAYS
000126: 10,2000                                           BANK
000127:
000128: 10,3671                                           COUNT    10/DSPLA
000129: 10,3671           00004        PRIOLARM           INHINT                                         #  * * * KEEP IN DISPLAY ROUTINES BANK
000130: 10,3672           54001                           TS       L                                     #  SAVE ALARM CODE
000131:
000132: 10,3673           30133                           CA       BUF2                                  #  2 CADR OF PRIOLARM USER
000133: 10,3674           55363                           TS       ALMCADR
000134: 10,3675           30134                           CA       BUF2       +1
000135: 10,3676           05546                           TC       PRIOENT    +1                         #  * LEAVE L ALONE
000136: 10,3677           77467        -2SEC              DEC      -200       B-14                       #  *** DONT MOVE
000137: 10,3700           34743                           CAF      V05N09
000138: 10,3701           12632                           TCF      PRIODSPR
000139:
000140:    5604                                           BLOCK    02
000141:    4000                                           SETLOC   FFTAG7
000142:    4000                                           BANK
000143:


000145:    5604                                           COUNT    02/ALARM
000146:
000147:    5604           00004        BAILOUT            INHINT
000148:    5605           30002                           CA       Q
000149:    5606           55363                           TS       ALMCADR
000150:
000151:    5607           50002                           INDEX    Q
000152:    5610           30000                           CAF      0
000153:    5611           05544                           TC       BORTENT
000154:    5612           40400        OCT40400           OCT      40400
000155:
000156:    5613           00004                           INHINT
000157:    5614           34711        WHIMPER            CA       TWO
000158:    5615           60005                           AD       Z
000159:    5616           54017                           TS       BRUPT
000160:    5617           50017                           RESUME
000161:    5620           04574                           TC       POSTJUMP                              #  RESUME SENDS CONTROL HERE
000162:    5621           12641                           CADR     ENEMA
000163:    5622           00004        POODOO             INHINT
000164:    5623           30002                           CA       Q
000165:    5624           55363        ABORT2             TS       ALMCADR
000166:    5625           50002                           INDEX    Q
000167:    5626           30000                           CAF      0
000168:    5627           05544                           TC       BORTENT
000169:    5630           77770        OCT77770           OCT      77770                                 #  DONT MOVE
000170:    5631           34705                           CA       V37FLBIT                              #  IS AVERAGE G ON
000171:    5632           70103                           MASK     FLAGWRD7
000172:    5633           10000                           CCS      A
000173:    5634           05613                           TC       WHIMPER    -1                         #  YES.  DONT DO POODOO.  DO BAILOUT.
000174:
000175:    5635           04555                           TC       BANKCALL
000176:    5636           12474                           CADR     MR.KLEAN
000177:    5637           05614                           TC       WHIMPER
000178:
000179:    5640           00004        CCSHOLE            INHINT
000180:    5641           30002                           CA       Q
000181:    5642           05624                           TC       ABORT2
000182:    5643           01103        OCT1103            OCT      1103
000183:    5644           00004        CURTAINS           INHINT
000184:    5645           30002                           CA       Q
000185:    5646           05541                           TC       ALARM2
000186:    5647           00217        OCT217             OCT      00217
000187:    5650           01363                           TC       ALMCADR                               #  RETURN TO USER
000188:
000189:    5651     5112               DOALARM            EQUALS   ENDOFJOB
000190:
000191:                                                                                                  #  CALLING SEQUENCE FOR VARALARM
000192:                                                                                                  #                CAF     (ALARM)
000193:                                                                                                  #                TC      VARALARM


000195:
000196:                                                                                                  #  VARALARM TURNS ON PROGRAM ALARM LIGHT BUT DOES NOT DISPLAY
000197:
000198:    5651           00004        VARALARM           INHINT
000199:
000200:    5652           54001                           TS       L                                     #  SAVE USERS ALARM CODE
000201:
000202:    5653           30002                           CA       Q                                     #  SAVE USERS Q
000203:    5654           55363                           TS       ALMCADR
000204:
000205:    5655           05545                           TC       PRIOENT
000206:    5656           00014        OCT14              OCT      14                                    #  DONT MOVE
000207:
000208:    5657           01363                           TC       ALMCADR                               #  RETURN TO USER
000209:
000210:    5660     5604               ABORT              EQUALS   BAILOUT                               #  *** TEMPORARY UNTIL ABORT CALLS OUT

End of include-file ALARM_AND_ABORT.agc.  Parent file is MAIN.agc


