
Source Code


000002:                                                                                                  #  Copyright:    Public domain.
000003:                                                                                                  #  Filename:     ALARM_AND_ABORT.agc
000004:                                                                                                  #  Purpose:      Part of the source code for Colossus, build 249.
000005:                                                                                                  #                It is part of the source code for the Command Module's (CM)
000006:                                                                                                  #                Apollo Guidance Computer (AGC), possibly for Apollo 8 and 9.
000007:                                                                                                  #  Assembler:    yaYUL
000008:                                                                                                  #  Reference:    Starts on p. 1483 of 1701.pdf.
000009:                                                                                                  #  Contact:      Ron Burkey <info@sandroid.org>.
000010:                                                                                                  #  Website:      www.ibiblio.org/apollo.
000011:                                                                                                  #  Mod history:  08/30/04   RSB  Adapted from corresponding Luminary131 file.
000012:                                                                                                  #                2010-10-24 JL   Indentation fixes.
000013:                                                                                                  #                2011-05-07 JL   Removed workarounds.
000014:
000015:                                                                                                  #  The contents of the "Colossus249" files, in general, are transcribed
000016:                                                                                                  #  from a scanned document obtained from MIT's website,
000017:                                                                                                  #  http://hrst.mit.edu/hrs/apollo/public/archive/1701.pdf.  Notations on this
000018:                                                                                                  #  document read, in part:
000019:
000020:                                                                                                  #        Assemble revision 249 of AGC program Colossus by NASA
000021:                                                                                                  #        2021111-041.  October 28, 1968.
000022:
000023:                                                                                                  #        This AGC program shall also be referred to as
000024:                                                                                                  #                                Colossus 1A
000025:
000026:                                                                                                  #        Prepared by
000027:                                                                                                  #                        Massachusetts Institute of Technology
000028:                                                                                                  #                        75 Cambridge Parkway
000029:                                                                                                  #                        Cambridge, Massachusetts
000030:                                                                                                  #        under NASA contract NAS 9-4065.
000031:
000032:                                                                                                  #  Refer directly to the online document mentioned above for further information.
000033:                                                                                                  #  Please report any errors (relative to 1701.pdf) to info@sandroid.org.
000034:
000035:                                                                                                  #  In some cases, where the source code for Luminary 131 overlaps that of
000036:                                                                                                  #  Colossus 249, this code is instead copied from the corresponding Luminary 131
000037:                                                                                                  #  source file, and then is proofed to incorporate any changes.
000038:
000039:                                                                                                  #  Page 1483
000040:                                                                                                  #  THE FOLLOWING SUBROUTINE MAY BE CALLED TO DISPLAY A NON-ABORTIVE ALARM CONDITION.  IT MAY BE CALLED
000041:                                                                                                  #  EITHER IN INTERRUPT OR UNDER EXECUTIVE CONTROL.
000042:
000043:                                                                                                  #  THE CALLING SEQUENCE IS AS FOLLOWS:
000044:                                                                                                  #                TC      ALARM
000045:                                                                                                  #                OCT     AAANN           # ALARM NO. NN IN GENERAL AREA AAA.
000046:                                                                                                  #                                        # (RETURNS HERE)
000047:
000048:    5537                                           BLOCK    02
000049:    4000                                           SETLOC   FFTAG7
000050:    4000                                           BANK
000051:
000052:    5537     0375                                  EBANK=   FAILREG
000053:
000054:    5537                                           COUNT    02/ALARM
000055:
000056:                                                                                                  #  ALARM TURNS ON THE PROGRAM ALARM LIGHT, BUT DOES NOT DISPLAY.
000057:
000058:    5537           00004        ALARM              INHINT
000059:
000060:    5540           30002                           CA       Q
000061:    5541           55363        ALARM2             TS       ALMCADR
000062:    5542           50002                           INDEX    Q
000063:    5543           30000                           CA       0
000064:    5544           54001        BORTENT            TS       L
000065:
000066:    5545           30006        PRIOENT            CA       BBANK
000067:    5546           00006                 +1        EXTEND
000068:    5547           04007                           ROR      SUPERBNK                              #  ADD SUPER BITS.
000069:    5550           55364                           TS       ALMCADR    +1
000070:
000071:    5551           30002        LARMENT            CA       Q                                     #  STORE RETURN FOR ALARM
000072:    5552           54061                           TS       ITEMP1
000073:
000074:    5553           10375        CHKFAIL1           CCS      FAILREG                               #  IS ANYTHING IN FAILREG
000075:    5554           15557                           TCF      CHKFAIL2                              #  YES TRY NEXT REG
000076:    5555           22375                           LXCH     FAILREG
000077:    5556           15571                           TCF      PROGLARM                              #  TURN ALARM LIGHT ON FOR FIRST ALARM
000078:
000079:    5557           10376        CHKFAIL2           CCS      FAILREG    +1
000080:    5560           15563                           TCF      FAIL3
000081:    5561           22376                           LXCH     FAILREG    +1
000082:    5562           15574                           TCF      MULTEXIT
000083:
000084:    5563           30377        FAIL3              CA       FAILREG    +2
000085:    5564           74672                           MASK     POSMAX
000086:    5565           10000                           CCS      A
000087:    5566           15600                           TCF      MULTFAIL
000088:    5567           22377                           LXCH     FAILREG    +2
000089:                                                                                                  #  Page 1484
000090:    5570           15574                           TCF      MULTEXIT
000091:
000092:    5571           41036        PROGLARM           CS       DSPTAB     +11D                       #  TURN ON PROGRAM ALARM IF OFF
000093:    5572           75612                           MASK     OCT40400
000094:    5573           27036                           ADS      DSPTAB     +11D
000095:
000096:    5574           56061        MULTEXIT           XCH      ITEMP1                                #  OBTAIN RETURN ADDRESS IN A
000097:    5575           00003                           RELINT
000098:    5576           50000                           INDEX    A
000099:    5577           00001                           TC       1
000100:
000101:    5600           30001        MULTFAIL           CA       L
000102:    5601           64674                           AD       BIT15
000103:    5602           54377                           TS       FAILREG    +2
000104:
000105:    5603           15574                           TCF      MULTEXIT
000106:
000107:                                                                                                  #  PRIOLARM DISPLAYS V05N09 VIA PRIODSPR WITH 3 RETURNS TO THE USER FROM THE ASTRONAUT AT CALL LOC +1,+2,+3 AND
000108:                                                                                                  #  AN IMMEDIATE RETURN TO THE USER AT CALL LOC +4.  EXAMPLE FOLLOWS,
000109:                                                                                                  #                CAF     OCTXX           # ALARM CODE
000110:                                                                                                  #                TC      BANKCALL
000111:                                                                                                  #                CADR    PRIOLARM
000112:                                                                                                  #                ...     ...
000113:                                                                                                  #                ...     ...
000114:                                                                                                  #                ...     ...             # ASTRONAUT RETURN
000115:                                                                                                  #                TC      PHASCHNG        # IMMEDIATE RETURN TO USER.  RESTART
000116:                                                                                                  #                OCT     X.1             # PHASE CHANGE FOR PRIO DISPLAY
000117:
000118: 10,3671                                           BANK     10
000119: 10,2000                                           SETLOC   DISPLAYS
000120: 10,2000                                           BANK
000121:
000122: 10,3671                                           COUNT    10/DSPLA
000123: 10,3671           00004        PRIOLARM           INHINT                                         #  * * * KEEP IN DISPLAY ROUTINE'S BANK
000124: 10,3672           54001                           TS       L                                     #  SAVE ALARM CODE
000125:
000126: 10,3673           30133                           CA       BUF2                                  #  2 CADR OF PRIOLARM USER
000127: 10,3674           55363                           TS       ALMCADR
000128: 10,3675           30134                           CA       BUF2       +1
000129: 10,3676           05546                           TC       PRIOENT    +1                         #  * LEAVE L ALONE
000130: 10,3677           77467        -2SEC              DEC      -200       B-14                       #  *** DON'T MOVE
000131: 10,3700           34743                           CAF      V05N09
000132: 10,3701           12632                           TCF      PRIODSPR
000133:
000134:    5604                                           BLOCK    02
000135:    4000                                           SETLOC   FFTAG7
000136:    4000                                           BANK
000137:
000138:                                                                                                  #  Page 1485
000139:    5604                                           COUNT    02/ALARM
000140:
000141:    5604           00004        BAILOUT            INHINT
000142:    5605           30002                           CA       Q
000143:    5606           55363                           TS       ALMCADR
000144:
000145:    5607           50002                           INDEX    Q
000146:    5610           30000                           CAF      0
000147:    5611           05544                           TC       BORTENT
000148:    5612           40400        OCT40400           OCT      40400
000149:
000150:    5613           00004                           INHINT
000151:    5614           34711        WHIMPER            CA       TWO
000152:    5615           60005                           AD       Z
000153:    5616           54017                           TS       BRUPT
000154:    5617           50017                           RESUME
000155:    5620           04574                           TC       POSTJUMP                              #  RESUME SENDS CONTROL HERE
000156:    5621           12641                           CADR     ENEMA
000157:    5622           00004        P00DOO             INHINT
000158:    5623           30002                           CA       Q
000159:    5624           55363        ABORT2             TS       ALMCADR
000160:    5625           50002                           INDEX    Q
000161:    5626           30000                           CAF      0
000162:    5627           05544                           TC       BORTENT
000163:    5630           77770        OCT77770           OCT      77770                                 #  DON'T MOVE
000164:    5631           34705                           CA       V37FLBIT                              #  IS AVERAGE G ON
000165:    5632           70103                           MASK     FLAGWRD7
000166:    5633           10000                           CCS      A
000167:    5634           05613                           TC       WHIMPER    -1                         #  YES.  DON'T DO P00DOO.  DO BAILOUT.
000168:
000169:    5635           04555                           TC       BANKCALL
000170:    5636           12474                           CADR     MR.KLEAN
000171:    5637           05614                           TC       WHIMPER
000172:
000173:    5640           00004        CCSHOLE            INHINT
000174:    5641           30002                           CA       Q
000175:    5642           05624                           TC       ABORT2
000176:    5643           01103        OCT1103            OCT      1103
000177:    5644           00004        CURTAINS           INHINT
000178:    5645           30002                           CA       Q
000179:    5646           05541                           TC       ALARM2
000180:    5647           00217        OCT217             OCT      00217
000181:    5650           01363                           TC       ALMCADR                               #  RETURN TO USER
000182:
000183:    5651     5112               DOALARM            EQUALS   ENDOFJOB
000184:
000185:                                                                                                  #  CALLING SEQUENCE FOR VARALARM
000186:                                                                                                  #                CAF     (ALARM)
000187:                                                                                                  #                TC      VARALARM
000188:                                                                                                  #  Page 1486
000189:
000190:                                                                                                  #  VARALARM TURNS ON PROGRAM ALARM LIGHT BUT DOES NOT DISPLAY
000191:
000192:    5651           00004        VARALARM           INHINT
000193:
000194:    5652           54001                           TS       L                                     #  SAVE USER'S ALARM CODE
000195:
000196:    5653           30002                           CA       Q                                     #  SAVE USER'S Q
000197:    5654           55363                           TS       ALMCADR
000198:
000199:    5655           05545                           TC       PRIOENT
000200:    5656           00014        OCT14              OCT      14                                    #  DON'T MOVE
000201:
000202:    5657           01363                           TC       ALMCADR                               #  RETURN TO USER
000203:
000204:    5660     5604               ABORT              EQUALS   BAILOUT                               #  *** TEMPORARY UNTIL ABORT CALLS OUT

End of include-file ALARM_AND_ABORT.agc.  Parent file is MAIN.agc


