
Source Code
000001:                                                                                                 #  Copyright:     Public domain.
000002:                                                                                                 #  Filename:      ALARM_AND_ABORT.agc
000003:                                                                                                 #  Purpose:       Part of the source code for Colossus, build 249.
000004:                                                                                                 #                 It is part of the source code for the Command Module's (CM)
000005:                                                                                                 #                 Apollo Guidance Computer (AGC), possibly for Apollo 8 and 9.
000006:                                                                                                 #  Assembler:     yaYUL
000007:                                                                                                 #  Reference:     Starts on p. 1483 of 1701.pdf.
000008:                                                                                                 #  Contact:       Ron Burkey <info@sandroid.org>.
000009:                                                                                                 #  Website:       www.ibiblio.org/apollo.
000010:                                                                                                 #  Mod history:   08/30/04 RSB.   Adapted from corresponding Luminary131 file.
000011:
000012:                                                                                                 #  The contents of the "Colossus249" files, in general, are transcribed
000013:                                                                                                 #  from a scanned document obtained from MIT's website,
000014:                                                                                                 #  http://hrst.mit.edu/hrs/apollo/public/archive/1701.pdf.  Notations on this
000015:                                                                                                 #  document read, in part:
000016:
000017:                                                                                                 #         Assemble revision 249 of AGC program Colossus by NASA
000018:                                                                                                 #         2021111-041.  October 28, 1968.
000019:
000020:                                                                                                 #         This AGC program shall also be referred to as
000021:                                                                                                 #                                 Colossus 1A
000022:
000023:                                                                                                 #         Prepared by
000024:                                                                                                 #                         Massachussets Institute of Technology
000025:                                                                                                 #                         75 Cambridge Parkway
000026:                                                                                                 #                         Cambridge, Massachusetts
000027:                                                                                                 #         under NASA contract NAS 9-4065.
000028:
000029:                                                                                                 #  Refer directly to the online document mentioned above for further information.
000030:                                                                                                 #  Please report any errors (relative to 1701.pdf) to info@sandroid.org.
000031:
000032:                                                                                                 #  In some cases, where the source code for Luminary 131 overlaps that of
000033:                                                                                                 #  Colossus 249, this code is instead copied from the corresponding Luminary 131
000034:                                                                                                 #  source file, and then is proofed to incorporate any changes.
000035:
000036:                                                                                                 #  Page 1483
000037:                                                                                                 #  THE FOLLOWING SUBROUTINE MAY BE CALLED TO DISPLAY A NON-ABORTIVE ALARM CONDITION.  IT MAY BE CALLED
000038:                                                                                                 #  EITHER IN INTERRUPT OR UNDER EXECUTIVE CONTROL.
000039:
000040:                                                                                                 #  THE CALLING SEQUENCE IS AS FOLLOWS:
000041:                                                                                                 #                 TC      ALARM
000042:                                                                                                 #                 OCT     AAANN           # ALARM NO. NN IN GENERAL AREA AAA.
000043:                                                                                                 #                                         # (RETURNS HERE)
000044:
000045:    5537                                          BLOCK    02
000046:    4000                                          SETLOC   FFTAG7
000047:    4000                                          BANK
000048:
000049:    5537     0375                                 EBANK=   FAILREG
000050:
000051:    5537                                          COUNT    02/ALARM
000052:
000053:                                                                                                 #  ALARM TURNS ON THE PROGRAM ALARM LIGHT, BUT DOES NOT DISPLAY.
000054:
000055:    5537           00004        ALARM             INHINT
000056:
000057:    5540           30002                          CA       Q
000058:    5541           55363        ALARM2            TS       ALMCADR
000059:    5542           50002                          INDEX    Q
000060:    5543           30000                          CA       0
000061:    5544           54001        BORTENT           TS       L
000062:
000063:    5545           30006        PRIOENT           CA       BBANK
000064:    5546           00006                 +1       EXTEND
000065:    5547           04007                          ROR      SUPERBNK                              #  ADD SUPER BITS.
000066:    5550           55364                          TS       ALMCADR    +1
000067:
000068:    5551           30002        LARMENT           CA       Q                                     #  STORE RETURN FOR ALARM
000069:    5552           54061                          TS       ITEMP1
000070:
000071:    5553           10375        CHKFAIL1          CCS      FAILREG                               #  IS ANYTHING IN FAILREG
000072:    5554           15557                          TCF      CHKFAIL2                              #  YES TRY NEXT REG
000073:    5555           22375                          LXCH     FAILREG
000074:    5556           15571                          TCF      PROGLARM                              #  TURN ALARM LIGHT ON FOR FIRST ALARM
000075:
000076:    5557           10376        CHKFAIL2          CCS      FAILREG    +1
000077:    5560           15563                          TCF      FAIL3
000078:    5561           22376                          LXCH     FAILREG    +1
000079:    5562           15574                          TCF      MULTEXIT
000080:
000081:    5563           30377        FAIL3             CA       FAILREG    +2
000082:    5564           74672                          MASK     POSMAX
000083:    5565           10000                          CCS      A
000084:    5566           15600                          TCF      MULTFAIL
000085:    5567           22377                          LXCH     FAILREG    +2
000086:                                                                                                 #  Page 1484
000087:    5570           15574                          TCF      MULTEXIT
000088:
000089:    5571           41036        PROGLARM          CS       DSPTAB     +11D                       #  TURN ON PROGRAM ALARM IF OFF
000090:    5572           75612                          MASK     OCT40400
000091:    5573           27036                          ADS      DSPTAB     +11D
000092:
000093:    5574           56061        MULTEXIT          XCH      ITEMP1                                #  OBTAIN RETURN ADDRESS IN A
000094:    5575           00003                          RELINT
000095:    5576           50000                          INDEX    A
000096:    5577           00001                          TC       1
000097:
000098:    5600           30001        MULTFAIL          CA       L
000099:    5601           64674                          AD       BIT15
000100:    5602           54377                          TS       FAILREG    +2
000101:
000102:    5603           15574                          TCF      MULTEXIT
000103:
000104:                                                                                                 #  PRIOLARM DISPLAYS V05N09 VIA PRIODSPR WITH 3 RETURNS TO THE USER FROM THE ASTRONAUT AT CALL LOC +1,+2,+3 AND
000105:                                                                                                 #  AN IMMEDIATE RETURN TO THE USER AT CALL LOC +4.  EXAMPLE FOLLOWS,
000106:                                                                                                 #                 CAF     OCTXX           # ALARM CODE
000107:                                                                                                 #                 TC      BANKCALL
000108:                                                                                                 #                 CADR    PRIOLARM
000109:                                                                                                 #                 ...     ...
000110:                                                                                                 #                 ...     ...
000111:                                                                                                 #                 ...     ...             # ASTRONAUT RETURN
000112:                                                                                                 #                 TC      PHASCHNG        # IMMEDIATE RETURN TO USER.  RESTART
000113:                                                                                                 #                 OCT     X.1             # PHASE CHANGE FOR PRIO DISPLAY
000114:
000115: 10,3671                                          BANK     10
000116: 10,2000                                          SETLOC   DISPLAYS
000117: 10,2000                                          BANK
000118:
000119: 10,3671                                          COUNT    10/DSPLA
000120: 10,3671           00004        PRIOLARM          INHINT                                         #  * * * KEEP IN DISPLAY ROUTINE'S BANK
000121: 10,3672           54001                          TS       L                                     #  SAVE ALARM CODE
000122:
000123: 10,3673           30133                          CA       BUF2                                  #  2 CADR OF PRIOLARM USER
000124: 10,3674           55363                          TS       ALMCADR
000125: 10,3675           30134                          CA       BUF2       +1
000126: 10,3676           05546                          TC       PRIOENT    +1                         #  * LEAVE L ALONE
000127: 10,3677           77467        -2SEC             DEC      -200       B-14                       #  *** DON'T MOVE
000128: 10,3700           34743                          CAF      V05N09
000129: 10,3701           12632                          TCF      PRIODSPR
000130:
000131:    5604                                          BLOCK    02
000132:    4000                                          SETLOC   FFTAG7
000133:    4000                                          BANK
000134:
000135:                                                                                                 #  Page 1485
000136:    5604                                          COUNT    02/ALARM
000137:
000138:    5604           00004        BAILOUT           INHINT
000139:    5605           30002                          CA       Q
000140:    5606           55363                          TS       ALMCADR
000141:
000142:    5607           50002                          INDEX    Q
000143:    5610           30000                          CA       0                                     #  Was CAF --- RSB 2004
000144:    5611           05544                          TC       BORTENT
000145:    5612           40400        OCT40400          OCT      40400
000146:
000147:    5613           00004                          INHINT
000148:    5614           34711        WHIMPER           CA       TWO
000149:    5615           60005                          AD       Z
000150:    5616           54017                          TS       BRUPT
000151:    5617           50017                          RESUME
000152:    5620           04574                          TC       POSTJUMP                              #  RESUME SENDS CONTROL HERE
000153:    5621           12641                          CADR     ENEMA
000154:    5622           00004        P00DOO            INHINT
000155:    5623           30002                          CA       Q
000156:    5624           55363        ABORT2            TS       ALMCADR
000157:    5625           50002                          INDEX    Q
000158:    5626           30000                          CA       0                                     #  Was CAF --- RSB 2004
000159:    5627           05544                          TC       BORTENT
000160:    5630           77770        OCT77770          OCT      77770                                 #  DON'T MOVE
000161:    5631           34705                          CA       V37FLBIT                              #  IS AVERAGE G ON
000162:    5632           70103                          MASK     FLAGWRD7
000163:    5633           10000                          CCS      A
000164:    5634           05613                          TC       WHIMPER    -1                         #  YES.  DON'T DO P00DOO.  DO BAILOUT.
000165:
000166:    5635           04555                          TC       BANKCALL
000167:    5636           12474                          CADR     MR.KLEAN
000168:    5637           05614                          TC       WHIMPER
000169:
000170:    5640           00004        CCSHOLE           INHINT
000171:    5641           30002                          CA       Q
000172:    5642           05624                          TC       ABORT2
000173:    5643           01103        OCT1103           OCT      1103
000174:    5644           00004        CURTAINS          INHINT
000175:    5645           30002                          CA       Q
000176:    5646           05541                          TC       ALARM2
000177:    5647           00217        OCT217            OCT      00217
000178:    5650           01363                          TC       ALMCADR                               #  RETURN TO USER
000179:
000180:    5651     5112               DOALARM           EQUALS   ENDOFJOB
000181:
000182:                                                                                                 #  CALLING SEQUENCE FOR VARALARM
000183:                                                                                                 #                 CAF     (ALARM)
000184:                                                                                                 #                 TC      VARALARM
000185:                                                                                                 #  Page 1486
000186:
000187:                                                                                                 #  VARALARM TURNS ON PROGRAM ALARM LIGHT BUT DOES NOT DISPLAY
000188:
000189:    5651           00004        VARALARM          INHINT
000190:
000191:    5652           54001                          TS       L                                     #  SAVE USER'S ALARM CODE
000192:
000193:    5653           30002                          CA       Q                                     #  SAVE USER'S Q
000194:    5654           55363                          TS       ALMCADR
000195:
000196:    5655           05545                          TC       PRIOENT
000197:    5656           00014        OCT14             OCT      14                                    #  DON'T MOVE
000198:
000199:    5657           01363                          TC       ALMCADR                               #  RETURN TO USER
000200:
000201:    5660     5604               ABORT             EQUALS   BAILOUT                               #  *** TEMPORARY UNTIL ABORT CALLS OUT

End of include-file ALARM_AND_ABORT.agc.  Parent file is MAIN.agc


