
Source Code


000002:                                                                                                  ## Copyright:   Public domain.
000003:                                                                                                  ## Filename:    ANGLFIND.agc
000004:                                                                                                  ## Purpose:     Part of the source code for Colossus, build 249.
000005:                                                                                                  ##              It is part of the source code for the Command Module's (CM)
000006:                                                                                                  ##              Apollo Guidance Computer (AGC), for Apollo 9.
000007:                                                                                                  ## Assembler:   yaYUL
000008:                                                                                                  ## Reference:   pp. 392-404.
000009:                                                                                                  ## Contact:     Ron Burkey <info@sandroid.org>.
000010:                                                                                                  ## Website:     www.ibiblio.org/apollo.
000011:                                                                                                  ## Mod history: 08/10/04 RSB.   Began transcribing.
000012:                                                                                                  ##              2017-01-02 RSB  Fixed a couple of comment errors, detected by
000013:                                                                                                  ##                              comparison to Colossus 237 and Comanche 55.
000014:                                                                                                  ##                              Lots more to come.
000015:                                                                                                  ##              2017-01-06 RSB  Page numbers now agree with those on the
000016:                                                                                                  ##                              original harcopy, as opposed to the PDF page
000017:                                                                                                  ##                              numbers in 1701.pdf.
000018:                                                                                                  ##              2017-01-07 RSB  Cross-diff'd comment text (not whitespace)
000019:                                                                                                  ##                              vs the already-proofed corresponding Colossus
000020:                                                                                                  ##                              237 and Comanche 55 source-code files
000021:                                                                                                  ##                              and corrected all remaining errors found.
000022:                                                                                                  ##              2021-05-30 ABS  CK* -> OK* for a number of symbols.
000023:                                                                                                  ##                              ENDOCM -> ENDDCM
000024:                                                                                                  ##                              ZEROERROR -> ZEROEROR
000025:                                                                                                  ##
000026:                                                                                                  ## The contents of the "Colossus249" files, in general, are transcribed
000027:                                                                                                  ## from a scanned copy of the program listing.  Notations on this
000028:                                                                                                  ## document read, in part:
000029:                                                                                                  ##
000030:                                                                                                  ##      Assemble revision 249 of AGC program Colossus by NASA
000031:                                                                                                  ##      2021111-041.  October 28, 1968.
000032:                                                                                                  ##
000033:                                                                                                  ##      This AGC program shall also be referred to as
000034:                                                                                                  ##                              Colossus 1A
000035:                                                                                                  ##
000036:                                                                                                  ##      Prepared by
000037:                                                                                                  ##                      Massachusetts Institute of Technology
000038:                                                                                                  ##                      75 Cambridge Parkway
000039:                                                                                                  ##                      Cambridge, Massachusetts
000040:                                                                                                  ##      under NASA contract NAS 9-4065.
000041:                                                                                                  ##
000042:                                                                                                  ## Refer directly to the online document mentioned above for further information.
000043:                                                                                                  ## Please report any errors (relative to the scanned pages) to info@sandroid.org.
000044:                                                                                                  ##
000045:                                                                                                  ## In some cases, where the source code for Luminary 131 overlaps that of
000046:                                                                                                  ## Colossus 249, this code is instead copied from the corresponding Luminary 131
000047:                                                                                                  ## source file, and then is proofed to incorporate any changes.
000048:


000050: 15,2000                                           BANK     15
000051: 22,2000                                           SETLOC   KALCMON1
000052: 22,2000                                           BANK
000053:
000054: 22,2000  E6,1661                                  EBANK=   BCDU
000055:
000056: 22,2000                                           COUNT    22/KALC
000057:
000058: 22,2000           06006        KALCMAN3           TC       INTPRET
000059: 22,2001           77634                           RTB
000060: 22,2002           44376                                    READCDUK                              #  PICK UP CURRENT CDU ANGLES
000061: 22,2003           03262                           STORE    BCDU                                  #  STORE THE INITIAL S/C ANGLES
000062: 22,2004           72364                           AXC,2    TLOAD                                 #  COMPUTE THE TRANSFORMATION FROM
000063: 22,2005           03320                                    MIS                                   #  INITIAL S/C AXES TO STABLE MEMBER AXES
000064: 22,2006           03262                                    BCDU                                  #  (MIS)
000065: 22,2007           77624                           CALL
000066: 22,2010           44405                                    CDUTODCM
000067: 22,2011           72364                           AXC,2    TLOAD                                 #  COMPUTE THE TRANSFORMATION FROM
000068: 22,2012           03425                                    MFS                                   #  FINAL S/C AXES TO STABLE MEMBER AXES
000069: 22,2013           01156                                    CPHI                                  #  (MFS)
000070: 22,2014           77624                           CALL
000071: 22,2015           44405                                    CDUTODCM
000072: 22,2016           45160        SECAD              AXC,1    CALL                                  #  MIS AND MFS ARRAYS CALCULATED         $2
000073: 22,2017           03320                                    MIS
000074: 22,2020           44334                                    TRANSPOS
000075: 22,2021           77775                           VLOAD
000076: 22,2022           77626                           STADR
000077: 22,2023           50474                           STOVL    TMIS       +12D
000078: 22,2024           77626                           STADR
000079: 22,2025           50502                           STOVL    TMIS       +6
000080: 22,2026           77626                           STADR
000081: 22,2027           74510                           STORE    TMIS                                  #  TMIS = TRANSPOSE(MIS) SCALED BY 2
000082: 22,2030           75160                           AXC,1    AXC,2
000083: 22,2031           03266                                    TMIS
000084: 22,2032           03425                                    MFS
000085: 22,2033           77624                           CALL
000086: 22,2034           44304                                    MXM3
000087: 22,2035           45575                           VLOAD    STADR
000088: 22,2036           50335                           STOVL    MFI        +12D
000089: 22,2037           77626                           STADR
000090: 22,2040           50343                           STOVL    MFI        +6
000091: 22,2041           77626                           STADR
000092: 22,2042           74351                           STORE    MFI                                   #  MFI = TMIS MFS (SCALED BY 4)
000093: 22,2043           45001                           SETPD    CALL                                  #  TRANSPOSE MFI IN PD LIST
000094: 22,2044           00023                                    18D
000095: 22,2045           44343                                    TRNSPSPD
000096: 22,2046           45575                           VLOAD    STADR
000097: 22,2047           50474                           STOVL    TMFI       +12D
000098: 22,2050           77626                           STADR
000099: 22,2051           50502                           STOVL    TMFI       +6


000101: 22,2052           77626                           STADR
000102: 22,2053           74510                           STORE    TMFI                                  #  TMFI = TRANSPOSE (MFI) SCALED BY 4
000103:
000104:                                                                                                  #  CALCULATE COFSKEW AND MFISYM
000105:
000106: 22,2054           45345                           DLOAD    DSU
000107: 22,2055           03271                                    TMFI       +2
000108: 22,2056           03430                                    MFI        +2
000109: 22,2057           45325                           PDDL     DSU                                   #  CALCULATE COF SCALED BY 2/SIN(AM)
000110: 22,2060           03432                                    MFI        +4
000111: 22,2061           03273                                    TMFI       +4
000112: 22,2062           45325                           PDDL     DSU
000113: 22,2063           03301                                    TMFI       +10D
000114: 22,2064           03440                                    MFI        +10D
000115: 22,2065           77666                           VDEF
000116: 22,2066           03311                           STORE    COFSKEW                               #  EQUALS MFISKEW
000117:
000118:                                                                                                  #  CALCULATE AM AND PROCEED ACCORDING TO ITS MAGNITUDE
000119:
000120: 22,2067           43345                           DLOAD    DAD
000121: 22,2070           03426                                    MFI
000122: 22,2071           03446                                    MFI        +16D
000123: 22,2072           43225                           DSU      DAD
000124: 22,2073           15322                                    DP1/4TH
000125: 22,2074           03436                                    MFI        +8D
000126: 22,2075           03317                           STORE    CAM                                   #  CAM = (MFI0+MFI4+MFI8-1)/2 HALF SCALE
000127: 22,2076           77726                           ARCCOS
000128: 22,2077           03365                           STORE    AM                                    #  AM=ARCCOS(CAM)  (AM SCALED BY 2)
000129: 22,2100           51025                           DSU      BPL
000130: 22,2101           04367                                    MINANG
000131: 22,2102           44111                                    CHECKMAX
000132: 22,2103           77776                           EXIT                                           #  MANEUVER LESS THAN 0.25 DEG
000133: 22,2104           00004                           INHINT                                         #  GO DIRECTLY INTO ATTITUDE HOLD
000134: 22,2105           44712                           CS       ONE                                   #  ABOUT COMMANDED ANGLES
000135: 22,2106           55332                           TS       HOLDFLAG                              #  NOGO WILL STOP ANY RATE AND SET UP FOR A
000136: 22,2107           03301                           TC       LOADCDUD                              #  GOOD RETURN
000137: 22,2110           12727                           TCF      NOGO
000138:
000139: 22,2111           45345        CHECKMAX           DLOAD    DSU
000140: 22,2112           03365                                    AM
000141: 22,2113           04370                                    MAXANG
000142: 22,2114           77244                           BPL      VLOAD
000143: 22,2115           44123                                    ALTCALC                               #  UNIT
000144: 22,2116           03311                                    COFSKEW                               #  COFSKEW
000145: 22,2117           77656                           UNIT
000146: 22,2120           03343                           STORE    COF                                   #  COF IS THE MANEUVER AXIS
000147: 22,2121           77650                           GOTO                                           #  SEE IF MANEUVER GOES THRU GIMBAL LOCK
000148: 22,2122           44736                                    LOCSKIRT
000149: 22,2123           53375        ALTCALC            VLOAD    VAD                                   #  IF AM GREATER THAN 170 DEGREES
000150: 22,2124           03426                                    MFI


000152: 22,2125           03267                                    TMFI
000153: 22,2126           77762                           VSR1
000154: 22,2127           27267                           STOVL    MFISYM
000155: 22,2130           03434                                    MFI        +6
000156: 22,2131           74455                           VAD      VSR1
000157: 22,2132           03275                                    TMFI       +6
000158: 22,2133           27275                           STOVL    MFISYM     +6
000159: 22,2134           03442                                    MFI        +12D
000160: 22,2135           74455                           VAD      VSR1
000161: 22,2136           03303                                    TMFI       +12D
000162: 22,2137           03303                           STORE    MFISYM     +12D                       #  MFISYM=(MFI+TMFI)/2   SCALED BY 4
000163:
000164:                                                                                                  #  CALCULATE COF
000165:
000166: 22,2140           70545                           DLOAD    SR1
000167: 22,2141           03317                                    CAM
000168: 22,2142           45325                           PDDL     DSU                                   #  PD0 CAM                       $4
000169: 22,2143           15330                                    DPHALF
000170: 22,2144           03317                                    CAM
000171: 22,2145           65204                           BOVB     PDDL                                  #  PD2 1 - CAM                   $2
000172: 22,2146           45707                                    SIGNMPAC
000173: 22,2147           03307                                    MFISYM     +16D
000174: 22,2150           56225                           DSU      DDV
000175: 22,2151           00001                                    0
000176: 22,2152           00003                                    2
000177: 22,2153           65366                           SQRT     PDDL                                  #  COFZ = SQRT(MFISYM8-CAM)/1-CAM)
000178: 22,2154           03277                                    MFISYM     +8D                        #                                $ ROOT 2
000179: 22,2155           56225                           DSU      DDV
000180: 22,2156           00001                                    0
000181: 22,2157           00003                                    2
000182: 22,2160           65366                           SQRT     PDDL                                  #  COFY = SQRT(MFISYM4-CAM)/(1-CAM) $ROOT2
000183: 22,2161           03267                                    MFISYM
000184: 22,2162           56225                           DSU      DDV
000185: 22,2163           00001                                    0
000186: 22,2164           00003                                    2
000187: 22,2165           55566                           SQRT     VDEF                                  #  COFX = SQRT(MFISYM-CAM)/(1-CAM) $ROOT 2
000188: 22,2166           77656                           UNIT
000189: 22,2167           03343                           STORE    COF
000190:
000191:                                                                                                  #  DETERMINE LARGEST COF AND ADJUST ACCORDINGLY
000192:
000193: 22,2170           45345        COFMAXGO           DLOAD    DSU
000194: 22,2171           03343                                    COF
000195: 22,2172           03345                                    COF        +2
000196: 22,2173           71240                           BMN      DLOAD                                 #  COFY G COFX
000197: 22,2174           44203                                    COMP12
000198: 22,2175           03343                                    COF
000199: 22,2176           50025                           DSU      BMN
000200: 22,2177           03347                                    COF        +4


000202: 22,2200           44260                                    METHOD3                               #  COFZ G COFX OR COFY
000203: 22,2201           77650                           GOTO
000204: 22,2202           44234                                    METHOD1                               #  COFX G COFY OR COFZ
000205: 22,2203           45345        COMP12             DLOAD    DSU
000206: 22,2204           03345                                    COF        +2
000207: 22,2205           03347                                    COF        +4
000208: 22,2206           77640                           BMN
000209: 22,2207           44260                                    METHOD3                               #  COFZ G COFY OR COFX
000210:
000211: 22,2210           51145        METHOD2            DLOAD    BPL                                   #  COFY MAX
000212: 22,2211           03313                                    COFSKEW    +2                         #  UY
000213: 22,2212           44216                                    U2POS
000214: 22,2213           57575                           VLOAD    VCOMP
000215: 22,2214           03343                                    COF
000216: 22,2215           03343                           STORE    COF
000217: 22,2216           51145        U2POS              DLOAD    BPL
000218: 22,2217           03271                                    MFISYM     +2                         #  UX UY
000219: 22,2220           44224                                    OKU21
000220: 22,2221           57545                           DLOAD    DCOMP                                 #  SIGN OF UX OPPOSITE TO UY
000221: 22,2222           03343                                    COF
000222: 22,2223           03343                           STORE    COF
000223: 22,2224           51145        OKU21              DLOAD    BPL
000224: 22,2225           03301                                    MFISYM     +10D                       #  UY UZ
000225: 22,2226           44736                                    LOCSKIRT
000226: 22,2227           57545                           DLOAD    DCOMP                                 #  SIGN OF UZ OPPOSITE TO UY
000227: 22,2230           03347                                    COF        +4
000228: 22,2231           03347                           STORE    COF        +4
000229: 22,2232           77650                           GOTO
000230: 22,2233           44736                                    LOCSKIRT
000231: 22,2234           51145        METHOD1            DLOAD    BPL                                   #  COFX MAX
000232: 22,2235           03311                                    COFSKEW                               #  UX
000233: 22,2236           44242                                    U1POS
000234: 22,2237           57575                           VLOAD    VCOMP
000235: 22,2240           03343                                    COF
000236: 22,2241           03343                           STORE    COF
000237: 22,2242           51145        U1POS              DLOAD    BPL
000238: 22,2243           03271                                    MFISYM     +2                         #  UX UY
000239: 22,2244           44250                                    OKU12
000240: 22,2245           57545                           DLOAD    DCOMP
000241: 22,2246           03345                                    COF        +2                         #  SIGN OF UY OPPOSITE TO UX
000242: 22,2247           03345                           STORE    COF        +2
000243: 22,2250           51145        OKU12              DLOAD    BPL
000244: 22,2251           03273                                    MFISYM     +4                         #  UX UZ
000245: 22,2252           44736                                    LOCSKIRT
000246: 22,2253           57545                           DLOAD    DCOMP                                 #  SIGN OF UZ OPPOSITE TO UY
000247: 22,2254           03347                                    COF        +4
000248: 22,2255           03347                           STORE    COF        +4
000249: 22,2256           77650                           GOTO
000250: 22,2257           44736                                    LOCSKIRT
000251: 22,2260           51145        METHOD3            DLOAD    BPL                                   #  COFZ MAX


000253: 22,2261           03315                                    COFSKEW    +4                         #  UZ
000254: 22,2262           44266                                    U3POS
000255: 22,2263           57575                           VLOAD    VCOMP
000256: 22,2264           03343                                    COF
000257: 22,2265           03343                           STORE    COF
000258: 22,2266           51145        U3POS              DLOAD    BPL
000259: 22,2267           03273                                    MFISYM     +4                         #  UX UZ
000260: 22,2270           44274                                    OKU31
000261: 22,2271           57545                           DLOAD    DCOMP
000262: 22,2272           03343                                    COF                                   #  SIGN OF UX OPPOSITE TO UZ
000263: 22,2273           03343                           STORE    COF
000264: 22,2274           51145        OKU31              DLOAD    BPL
000265: 22,2275           03301                                    MFISYM     +10D                       #  UY UZ
000266: 22,2276           44736                                    LOCSKIRT
000267: 22,2277           57545                           DLOAD    DCOMP
000268: 22,2300           03345                                    COF        +2                         #  SIGN OF UY OPPOSITE TO UZ
000269: 22,2301           03345                           STORE    COF        +2
000270: 22,2302           77650                           GOTO
000271: 22,2303           44736                                    LOCSKIRT
000272:


000274:                                                                                                  #  MATRIX OPERATIONS
000275:
000276: 22,2304           77601        MXM3               SETPD                                          #  MXM3 MULTIPLIES 2 3X3 MATRICES
000277: 22,2305           00001                                    0                                     #  AND LEAVES RESULT IN PD LIST
000278: 22,2306           64743                           DLOAD*   PDDL*                                 #  ADDRESS OF 1ST MATRIX IN XR1
000279: 22,2307           77762                                    12D,2                                 #  ADDRESS OF 2ND MATRIX IN XR2
000280: 22,2310           77770                                    6,2
000281: 22,2311           55523                           PDDL*    VDEF                                  #  DEFINE VECTOR M2(COL 1)
000282: 22,2312           77776                                    0,2
000283: 22,2313           64717                           MXV*     PDDL*                                 #  M1XM2(COL 1) IN PD
000284: 22,2314           00001                                    0,1
000285: 22,2315           77760                                    14D,2
000286: 22,2316           64723                           PDDL*    PDDL*
000287: 22,2317           77766                                    8D,2
000288: 22,2320           77774                                    2,2
000289: 22,2321           63666                           VDEF     MXV*                                  #  DEFINE VECTOR M2(COL 2)
000290: 22,2322           00001                                    0,1
000291: 22,2323           64723                           PDDL*    PDDL*                                 #  M1XM2(COL2) IN PD
000292: 22,2324           77756                                    16D,2
000293: 22,2325           77764                                    10D,2
000294: 22,2326           55523                           PDDL*    VDEF                                  #  DEFINE VECTOR M2(COL 3)
000295: 22,2327           77772                                    4,2
000296: 22,2330           41517                           MXV*     PUSH                                  #  M1XM2(COL 3) IN PD
000297: 22,2331           00001                                    0,1
000298: 22,2332           77650                           GOTO
000299: 22,2333           44343                                    TRNSPSPD                              #  REVERSE ROWS AND COLS IN PD AND
000300:                                                                                                  #  RETURN WITH M1XM2 IN PD LIST
000301: 22,2334           76601        TRANSPOS           SETPD    VLOAD*                                #  TRANSPOS TRANSPOSES A 3X3 MATRIX
000302: 22,2335           00001                                    0                                     #        AND LEAVES RESULT IN PD LIST
000303: 22,2336           00001                                    0,1                                   #  MATRIX ADDRESS IN XR1
000304: 22,2337           62713                           PDVL*    PDVL*
000305: 22,2340           00007                                    6,1
000306: 22,2341           00015                                    12D,1
000307: 22,2342           77606                           PUSH                                           #  MATRIX IN PD
000308: 22,2343           65345        TRNSPSPD           DLOAD    PDDL                                  #  ENTER WITH MATRIX IN PD LIST
000309: 22,2344           00003                                    2
000310: 22,2345           00007                                    6
000311: 22,2346           14003                           STODL    2
000312: 22,2347           77626                           STADR
000313: 22,2350           63770                           STODL    6
000314: 22,2351           00005                                    4
000315: 22,2352           77725                           PDDL
000316: 22,2353           00015                                    12D
000317: 22,2354           14005                           STODL    4
000318: 22,2355           77626                           STADR
000319: 22,2356           63762                           STODL    12D
000320: 22,2357           00013                                    10D
000321: 22,2360           77725                           PDDL


000323: 22,2361           00017                                    14D
000324: 22,2362           14013                           STODL    10D
000325: 22,2363           77626                           STADR
000326: 22,2364           77760                           STORE    14D
000327: 22,2365           77616                           RVQ                                            #  RETURN WITH TRANSPOSED MATRIX IN PD LIST
000328: 22,2366           00013        MINANG             DEC      .00069375
000329: 22,2367           17071        MAXANG             DEC      .472222
000330:
000331:                                                                                                  #  GIMBAL LOCK CONSTANTS
000332:
000333:                                                                                                  #  D = MGA CORRESPONDING TO GIMBAL LOCK = 60 DEGREES
000334:                                                                                                  #  NGL = BUFFER ANGLE (TO AVOID DIVISIONS BY ZERO) = 2 DEGREES
000335:
000336: 22,2370           15667        SD                 DEC      .433015                               #  = SIN(D)                              $2
000337: 22,2371           33555        K3S1               DEC      .86603                                #  = SIN(D)                              $1
000338: 22,2372           67777        K4                 DEC      -.25                                  #  = -COS(D)                             $2
000339: 22,2373           04000        K4SQ               DEC      .125                                  #  = COS(D)COS(D)                        $2
000340: 22,2374           00217        SNGLCD             DEC      .008725                               #  = SIN(NGL)COS(D)                      $2
000341: 22,2375           17773        CNGL               DEC      .499695                               #  = COS(NGL)                            $2
000342: 22,2376           00004        READCDUK           INHINT                                         #  LOAD T(MPAC) WITH THE CURRENT CDU ANGLES
000343: 22,2377           30034                           CA       CDUZ
000344: 22,2400           54156                           TS       MPAC       +2
000345: 22,2401           00006                           EXTEND
000346: 22,2402           30033                           DCA      CDUX
000347: 22,2403           00003                           RELINT
000348: 22,2404           16445                           TCF      TLOAD      +6
000349: 16,2000                                           BANK     16
000350: 22,2000                                           SETLOC   KALCMON2
000351: 22,2000                                           BANK
000352:
000353: 22,2405                                           COUNT*   $$/KALC
000354:
000355: 22,2405           66370        CDUTODCM           AXT,1    SSP                                   #  SUBROUTINE TO COMPUTE DIRECTION COSINE
000356: 22,2406           00003                           OCT      3                                     #  MATRIX RELATING S/C AXES TO STABLE
000357: 22,2407           00051                                    S1                                    #  MEMBER AXES FROM 3 CDU ANGLES IN T(MPAC)
000358: 22,2410           00001                           OCT      1                                     #  SET XR1, S1 AND PD FOR LOOP
000359: 22,2411           00010                           STORE    7
000360: 22,2412           77601                           SETPD
000361: 22,2413           00001                                    0
000362: 22,2414           47133        LOOPSIN            SLOAD*   RTB
000363: 22,2415           00013                                    10D,1
000364: 22,2416           45510                                    CDULOGIC
000365: 22,2417           00013                           STORE    10D                                   #  LOAD PD WITH 0        SIN(PHI)
000366: 22,2420           65356                           SIN      PDDL                                  #               2        COS(PHI)
000367: 22,2421           00013                                    10D                                   #               4        SIN(THETA)
000368: 22,2422           41546                           COS      PUSH                                  #               6        COS(THETA)
000369: 22,2423           71300                           TIX,1    DLOAD                                 #               8        SIN(PSI)
000370: 22,2424           44414                                    LOOPSIN                               #              10        COS(PSI)
000371: 22,2425           00007                                    6
000372: 22,2426           72405                           DMP      SL1
000373: 22,2427           00013                                    10D


000375: 22,2430           10001                           STORE    0,2
000376: 22,2431           77745                           DLOAD
000377: 22,2432           00005                                    4
000378: 22,2433           65205                           DMP      PDDL
000379: 22,2434           00001                                    0                                     #  (PD6 SIN(THETA)SIN(PHI))
000380: 22,2435           00007                                    6
000381: 22,2436           41205                           DMP      DMP
000382: 22,2437           00011                                    8D
000383: 22,2440           00003                                    2
000384: 22,2441           44352                           SL1      BDSU
000385: 22,2442           00015                                    12D
000386: 22,2443           77752                           SL1
000387: 22,2444           10003                           STORE    2,2
000388: 22,2445           77745                           DLOAD
000389: 22,2446           00003                                    2
000390: 22,2447           65205                           DMP      PDDL                                  #  (PD7 COS(PHI)SIN(THETA)) SCALED 4
000391: 22,2450           00005                                    4
000392: 22,2451           00007                                    6
000393: 22,2452           41205                           DMP      DMP
000394: 22,2453           00011                                    8D
000395: 22,2454           00001                                    0
000396: 22,2455           77752                           SL1
000397: 22,2456           72415                           DAD      SL1
000398: 22,2457           00017                                    14D
000399: 22,2460           10005                           STORE    4,2
000400: 22,2461           77745                           DLOAD
000401: 22,2462           00011                                    8D
000402: 22,2463           10007                           STORE    6,2
000403: 22,2464           77745                           DLOAD
000404: 22,2465           00013                                    10D
000405: 22,2466           72405                           DMP      SL1
000406: 22,2467           00003                                    2
000407: 22,2470           10011                           STORE    8D,2
000408: 22,2471           77745                           DLOAD
000409: 22,2472           00013                                    10D
000410: 22,2473           57405                           DMP      DCOMP
000411: 22,2474           00001                                    0
000412: 22,2475           77752                           SL1
000413: 22,2476           10013                           STORE    10D,2
000414: 22,2477           77745                           DLOAD
000415: 22,2500           00005                                    4
000416: 22,2501           57405                           DMP      DCOMP
000417: 22,2502           00013                                    10D
000418: 22,2503           77752                           SL1
000419: 22,2504           10015                           STORE    12D,2
000420: 22,2505           77745                           DLOAD
000421: 22,2506           72405                           DMP      SL1                                   #  (PUSH UP 7)
000422: 22,2507           00011                                    8D
000423: 22,2510           41325                           PDDL     DMP                                   #  (PD7 COS(PHI)SIN(THETA)SIN(PSI)) SCALE 4
000424: 22,2511           00007                                    6


000426: 22,2512           00001                                    0
000427: 22,2513           72415                           DAD      SL1                                   #  (PUSH UP 7)
000428: 22,2514           77626                           STADR                                          #  C7=COS(PHI)SIN(THETA)SIN(PSI)
000429: 22,2515           67760                           STORE    14D,2
000430: 22,2516           77745                           DLOAD
000431: 22,2517           72405                           DMP      SL1                                   #  (PUSH UP 6)
000432: 22,2520           00011                                    8D
000433: 22,2521           41325                           PDDL     DMP                                   #  (PD6 SIN(THETA)SIN(PHI)SIN(PSI)) SCALE 4
000434: 22,2522           00007                                    6
000435: 22,2523           00003                                    2
000436: 22,2524           72425                           DSU      SL1                                   #  (PUSH UP 6)
000437: 22,2525           77626                           STADR
000438: 22,2526           67756                           STORE    16D,2                                 #  C8=-SIN(THETA)SIN(PHI)SIN(PSI)
000439: 22,2527           77616                           RVQ                                            #     +COS(THETA)COS(PHI)
000440: 22,2530                        ENDDCM             EQUALS
000441: 15,2000                                           BANK     15
000442: 22,2000                                           SETLOC   KALCMON1
000443: 22,2000                                           BANK
000444:
000445:                                                                                                  #  CALCULATION OF THE MATRIX DEL......
000446:
000447:                                                                                                  #        *      *               --T           *
000448:                                                                                                  #        DEL = (IDMATRIX)COS(A)+UU (1-COS(A))+UX SIN(A)          SCALED 1
000449:
000450:                                                                                                  #              -
000451:                                                                                                  #        WHERE U IS A UNIT VECTOR (DP SCALED 2) ALONG THE AXIS OF ROTATION.
000452:                                                                                                  #        A IS THE ANGLE OF ROTATION (DP SCALED 2)
000453:                                                                                                  #                                           -
000454:                                                                                                  #        UPON ENTRY THE STARTING ADDRESS OF U IS COF, AND A IS IN MPAC
000455:
000456: 22,2530                                           COUNT    22/KALC
000457:
000458: 22,2530           41401        DELCOMP            SETPD    PUSH                                  #  MPAC CONTAINS THE ANGLE A
000459: 22,2531           00001                                    0
000460: 22,2532           65356                           SIN      PDDL                                  #  PD0 = SIN(A)
000461: 22,2533           41546                           COS      PUSH                                  #  PD2 = COS(A)
000462: 22,2534           65302                           SR2      PDDL                                  #  PD2 = COS(A)                          $8
000463: 22,2535           41021                           BDSU     BOVB                                  #  PD4 = 1-COS(A)                        $2
000464: 22,2536           15330                                    DPHALF
000465: 22,2537           45707                                    SIGNMPAC
000466:
000467:                                                                                                  #  COMPUTE THE DIAGONAL COMPONENTS OF DEL
000468:
000469: 22,2540           77725                           PDDL
000470: 22,2541           03343                                    COF
000471: 22,2542           41316                           DSQ      DMP
000472: 22,2543           00005                                    4
000473: 22,2544           52415                           DAD      SL3


000475: 22,2545           00003                                    2
000476: 22,2546           77604                           BOVB
000477: 22,2547           45707                                    SIGNMPAC
000478: 22,2550           17426                           STODL    DEL                                   #  UX UX(U-COS(A)) +COS(A)               $1
000479: 22,2551           03345                                    COF        +2
000480: 22,2552           41316                           DSQ      DMP
000481: 22,2553           00005                                    4
000482: 22,2554           52415                           DAD      SL3
000483: 22,2555           00003                                    2
000484: 22,2556           77604                           BOVB
000485: 22,2557           45707                                    SIGNMPAC
000486: 22,2560           17436                           STODL    DEL        +8D                        #  UY UY(1-COS(A)) +COS(A)               $1
000487: 22,2561           03347                                    COF        +4
000488: 22,2562           41316                           DSQ      DMP
000489: 22,2563           00005                                    4
000490: 22,2564           52415                           DAD      SL3
000491: 22,2565           00003                                    2
000492: 22,2566           77604                           BOVB
000493: 22,2567           45707                                    SIGNMPAC
000494: 22,2570           03446                           STORE    DEL        +16D                       #  UZ UZ(1-COS(A)) +COS(A)               $1
000495:
000496:                                                                                                  #  COMPUTE THE OFF DIAGONAL TERMS OF DEL
000497:
000498: 22,2571           41345                           DLOAD    DMP
000499: 22,2572           03343                                    COF
000500: 22,2573           03345                                    COF        +2
000501: 22,2574           72405                           DMP      SL1
000502: 22,2575           00005                                    4
000503: 22,2576           41325                           PDDL     DMP                                   #  D6    UX UY (1-COS A)                 $ 4
000504: 22,2577           03347                                    COF        +4
000505: 22,2600           00001                                    0
000506: 22,2601           43206                           PUSH     DAD                                   #  D8    UZ SIN A                        $ 4
000507: 22,2602           00007                                    6
000508: 22,2603           41112                           SL2      BOVB
000509: 22,2604           45707                                    SIGNMPAC
000510: 22,2605           17434                           STODL    DEL        +6
000511: 22,2606           62421                           BDSU     SL2
000512: 22,2607           77604                           BOVB
000513: 22,2610           45707                                    SIGNMPAC
000514: 22,2611           17430                           STODL    DEL        +2
000515: 22,2612           03343                                    COF
000516: 22,2613           41205                           DMP      DMP
000517: 22,2614           03347                                    COF        +4
000518: 22,2615           00005                                    4
000519: 22,2616           65352                           SL1      PDDL                                  #  D6    UX UZ (1-COS A )                $ 4
000520: 22,2617           03345                                    COF        +2
000521: 22,2620           41405                           DMP      PUSH                                  #  D8    UY SIN(A)
000522: 22,2621           00001                                    0
000523: 22,2622           62415                           DAD      SL2
000524: 22,2623           00007                                    6


000526: 22,2624           77604                           BOVB
000527: 22,2625           45707                                    SIGNMPAC
000528: 22,2626           17432                           STODL    DEL        +4                         #  UX UZ (1-COS(A))+UY SIN(A)
000529: 22,2627           62421                           BDSU     SL2
000530: 22,2630           77604                           BOVB
000531: 22,2631           45707                                    SIGNMPAC
000532: 22,2632           17442                           STODL    DEL        +12D                       #  UX UZ (U-COS(A))-UY SIN(A)
000533: 22,2633           03345                                    COF        +2
000534: 22,2634           41205                           DMP      DMP
000535: 22,2635           03347                                    COF        +4
000536: 22,2636           00005                                    4
000537: 22,2637           65352                           SL1      PDDL                                  #  D6    UY UZ (1-COS(A))                $ 4
000538: 22,2640           03343                                    COF
000539: 22,2641           41405                           DMP      PUSH                                  #  D8    UX SIN(A)
000540: 22,2642           00001                                    0
000541: 22,2643           62415                           DAD      SL2
000542: 22,2644           00007                                    6
000543: 22,2645           77604                           BOVB
000544: 22,2646           45707                                    SIGNMPAC
000545: 22,2647           17444                           STODL    DEL        +14D                       #  UY UZ(1-COS(A)) +UX SIN(A)
000546: 22,2650           62421                           BDSU     SL2
000547: 22,2651           77604                           BOVB
000548: 22,2652           45707                                    SIGNMPAC
000549: 22,2653           03440                           STORE    DEL        +10D                       #  UY UZ(1-COS(A)) -UX SIN(A)
000550: 22,2654           77616                           RVQ
000551:
000552:                                                                                                  #  DIRECTION COSINE MATRIX TO CDU ANGLE ROUTINE
000553:                                                                                                  #  X1 CONTAINS THE COMPLEMENT OF THE STARTING ADDRESS FOR MATRIX (SCALED 2)
000554:                                                                                                  #  LEAVES CDU ANGLES SCALED 2PI IN V(MPAC)
000555:                                                                                                  #  COS(MGA) WILL BE LEFT IN S1 (SCALED 1)
000556:
000557:                                                                                                  #  THE DIRECTION COSINE MATRIX RELATING S/C AXES TO STABLE MEMBER AXES CAN BE WRITTEN AS ***
000558:
000559:                                                                                                  #        C =COS(THETA)COS(PSI)
000560:                                                                                                  #         0
000561:
000562:                                                                                                  #        C =-COS(THETA)SIN(PSI)COS(PHI)+SI (THETA)SIN(PHI)
000563:                                                                                                  #         1
000564:
000565:                                                                                                  #        C =COS(THETA)SIN(PSI)SIN(PHI)+S N(THETA)COS(PHI)
000566:                                                                                                  #         2
000567:
000568:                                                                                                  #        C =SIN(PSI)
000569:                                                                                                  #         3
000570:
000571:                                                                                                  #        C =COS(PSI)COS(PHI)
000572:                                                                                                  #         4
000573:
000574:                                                                                                  #        C =-COS(PSI)SIN(PHI)
000575:                                                                                                  #         5
000576:
000577:                                                                                                  #        C =-SIN(THETA)COS(PSI)
000578:                                                                                                  #         6
000579:
000580:                                                                                                  #        C =SIN(THETA)SIN(PSI)COS(PHI)+COS THETA)SIN(PHI)
000581:                                                                                                  #         7


000583:                                                                                                  #        C =-SIN(THETA)SIN(PSI)SIN(PHI)+CO (THETA)COS(PHI)
000584:                                                                                                  #         8
000585:
000586:                                                                                                  #        WHERE   PHI = OGA
000587:                                                                                                  #                THETA = IGA
000588:                                                                                                  #                PSI = MGA
000589:
000590: 22,2655           67543        DCMTOCDU           DLOAD*   ARCSIN
000591: 22,2656           00007                                    6,1
000592: 22,2657           71406                           PUSH     COS                                   #  PD +0         PSI
000593: 22,2660           41152                           SL1      BOVB
000594: 22,2661           45707                                    SIGNMPAC
000595: 22,2662           00051                           STORE    S1
000596: 22,2663           57543                           DLOAD*   DCOMP
000597: 22,2664           00015                                    12D,1
000598: 22,2665           67471                           DDV      ARCSIN
000599: 22,2666           00051                                    S1
000600: 22,2667           51123                           PDDL*    BPL                                   #  PD +2         THETA
000601: 22,2670           00001                                    0,1                                   #  MUST CHECK THE SIGN OF COS(THETA)
000602: 22,2671           44703                                    OKTHETA                               #  TO DETERMINE THE PROPER QUADRANT
000603: 22,2672           57545                           DLOAD    DCOMP
000604: 22,2673           43244                           BPL      DAD
000605: 22,2674           44700                                    SUHALFA
000606: 22,2675           15330                                    DPHALF
000607: 22,2676           77650                           GOTO
000608: 22,2677           44702                                    CALCPHI
000609: 22,2700           77625        SUHALFA            DSU
000610: 22,2701           15330                                    DPHALF
000611: 22,2702           77606        CALCPHI            PUSH
000612: 22,2703           57543        OKTHETA            DLOAD*   DCOMP
000613: 22,2704           00013                                    10D,1
000614: 22,2705           67471                           DDV      ARCSIN
000615: 22,2706           00051                                    S1
000616: 22,2707           51123                           PDDL*    BPL                                   #  PUSH DOWN PHI
000617: 22,2710           00011                                    8D,1
000618: 22,2711           44723                                    OKPHI
000619: 22,2712           57545                           DLOAD    DCOMP                                 #  PUSH UP PHI
000620: 22,2713           43244                           BPL      DAD
000621: 22,2714           44720                                    SUHALFAP
000622: 22,2715           15330                                    DPHALF
000623: 22,2716           77650                           GOTO
000624: 22,2717           44724                                    VECOFANG
000625: 22,2720           52025        SUHALFAP           DSU      GOTO
000626: 22,2721           15330                                    DPHALF
000627: 22,2722           44724                                    VECOFANG
000628: 22,2723           77745        OKPHI              DLOAD                                          #  PUSH UP PHI
000629: 22,2724           43466        VECOFANG           VDEF     RVQ
000630:


000632:                                                                                                  #  ROUTINE FOR TERMINATING AUTOMATIC MANEUVERS
000633:
000634: 22,2725           00004        NOGOM2             INHINT                                         #  THIS LOCATION ACCESSED BY A BZMF NOGO -2
000635: 22,2726           03272                           TC       ZEROEROR
000636:
000637: 22,2727           00004        NOGO               INHINT
000638: 22,2730           03245                           TC       STOPRATE
000639:
000640:                                                                                                  #  TERMINATE MANEUVER
000641: 22,2731           34711                           CAF      TWO                                   #  NOTE - ALL RETURNS ARE NOW MADE VIA
000642: 22,2732           05140                           TC       WAITLIST                              #  GOODEND
000643: 22,2733  40,2000                                  SBANK=   PINSUPER
000644: 22,2733  E6,1661                                  EBANK=   BCDU
000645: 22,2733           03237 44106                     2CADR    ENDMANU
000646:
000647: 22,2735           15112                           TCF      ENDOFJOB
000648:

End of include-file ANGLFIND.agc.  Parent file is MAIN.agc


