
Source Code


000002:                                                                                                  ## Copyright:   Public domain.
000003:                                                                                                  ## Filename:    AUTOMATIC_MANEUVERS.agc
000004:                                                                                                  ## Purpose:     Part of the source code for Colossus, build 249.
000005:                                                                                                  ##              It is part of the source code for the Command Module's (CM)
000006:                                                                                                  ##              Apollo Guidance Computer (AGC), possibly for Apollo 8 and 9.
000007:                                                                                                  ## Assembler:   yaYUL
000008:                                                                                                  ## Reference:   Starts on p. 1000 of 1701.pdf.
000009:                                                                                                  ## Contact:     Ron Burkey <info@sandroid.org>.
000010:                                                                                                  ## Website:     www.ibiblio.org/apollo.
000011:                                                                                                  ## Mod history: 08/25/04 RSB.   Began transcribing.
000012:                                                                                                  ##
000013:                                                                                                  ## The contents of the "Colossus249" files, in general, are transcribed
000014:                                                                                                  ## from a scanned document obtained from MIT's website,
000015:                                                                                                  ## http://hrst.mit.edu/hrs/apollo/public/archive/1701.pdf.  Notations on this
000016:                                                                                                  ## document read, in part:
000017:                                                                                                  ##
000018:                                                                                                  ##      Assemble revision 249 of AGC program Colossus by NASA
000019:                                                                                                  ##      2021111-041.  October 28, 1968.
000020:                                                                                                  ##
000021:                                                                                                  ##      This AGC program shall also be referred to as
000022:                                                                                                  ##                              Colossus 1A
000023:                                                                                                  ##
000024:                                                                                                  ##      Prepared by
000025:                                                                                                  ##                      Massachusetts Institute of Technology
000026:                                                                                                  ##                      75 Cambridge Parkway
000027:                                                                                                  ##                      Cambridge, Massachusetts
000028:                                                                                                  ##      under NASA contract NAS 9-4065.
000029:                                                                                                  ##
000030:                                                                                                  ## Refer directly to the online document mentioned above for further information.
000031:                                                                                                  ## Please report any errors (relative to 1701.pdf) to info@sandroid.org.
000032:                                                                                                  ##
000033:                                                                                                  ## In some cases, where the source code for Luminary 131 overlaps that of
000034:                                                                                                  ## Colossus 249, this code is instead copied from the corresponding Luminary 131
000035:                                                                                                  ## source file, and then is proofed to incorporate any changes.
000036:


000038: 21,3234                                           BANK     21
000039: 21,2000                                           SETLOC   DAPS3
000040: 21,2000                                           BANK
000041:
000042: 21,3234                                           COUNT    21/DAPAM
000043:
000044: 21,3234  E6,1510                                  EBANK=   KMPAC
000045: 21,3234           00006        AHFNOROT           EXTEND
000046: 21,3235           00031                           READ     CHAN31
000047: 21,3236           74675                           MASK     BIT14
000048: 21,3237           00006                           EXTEND
000049: 21,3240           63256                           BZMF     FREECONT
000050: 21,3241           31501                           CA       RCSFLAGS                              #  SEE IF RATE FILTER HAS BEEN INITIALIZED
000051: 21,3242           74675                           MASK     BIT14
000052: 21,3243           10000                           CCS      A                                     #  IF SO, PROCEED WITH ATTITUDE CONTROL
000053: 21,3244           12520                           TCF      REINIT                                #  IF NOT, RECYCLE TO INITIALIZE FILTER
000054:                                                                                                  #  AUTOMATIC CONTROL YET
000055: 21,3245           00006                           EXTEND
000056: 21,3246           00031                           READ     CHAN31
000057: 21,3247           74676                           MASK     BIT13
000058: 21,3250           00006                           EXTEND
000059: 21,3251           63356                           BZMF     HOLDFUNC
000060: 21,3252           31332        AUTOCONT           CA       HOLDFLAG                              #  IF HOLDFLAG IS +, GO TO GRABANG.
000061: 21,3253           00006                           EXTEND                                         #  OTHERWISE, GO TO ATTHOLD.
000062: 21,3254           63306                           BZMF     ATTHOLD
000063: 21,3255           13362                           TCF      GRABANG
000064:
000065:                                                                                                  #  MINIMUM IMPULSE CONTROL
000066:
000067: 21,3256           34712        FREECONT           CAF      ONE
000068: 21,3257           55332                           TS       HOLDFLAG                              #  RESET HOLDFLAG
000069:                                                                                                  #  INHIBIT AUTOMATIC STEERING
000070: 21,3260           00006                           EXTEND
000071: 21,3261           00032                           READ     CHAN32
000072: 21,3262           54001                           TS       L
000073: 21,3263           40000                           COM
000074: 21,3264           73022                           MASK     MANROT
000075: 21,3265           71633                           MASK     CHANTEMP
000076: 21,3266           23633                           LXCH     CHANTEMP
000077: 21,3267           03114                           TC       STICKCHK
000078: 21,3270           51656                           INDEX    RMANNDX
000079: 21,3271           33302                           CA       MINTAU                                #  MINTAU        +0
000080: 21,3272           55561                           TS       TAU                                   #                +1      +14MS MINIMUM IMPULSE
000081: 21,3273           51657                           INDEX    PMANNDX                               #                +2      -14MS TIME
000082: 21,3274           33302                           CA       MINTAU                                #                +3      +0
000083: 21,3275           55562                           TS       TAU1
000084: 21,3276           51660                           INDEX    YMANNDX
000085: 21,3277           33302                           CA       MINTAU


000087: 21,3300           55563                           TS       TAU2
000088: 21,3301           13053                           TCF      T6PROGM
000089: 21,3302           00000        MINTAU             DEC      0          B-14
000090: 21,3303           00027                           DEC      23         B-14                       #  = 14MS
000091: 21,3304           77750                           DEC      -23        B-14                       #  = -14MS
000092: 21,3305           00000                           DEC      0          B-14
000093:


000095:                                                                                                  #  CALCULATION OF ATTITUDE ERRORS:
000096:                                                                                                  #        _    *     _      _          _
000097:                                                                                                  #        AK = AMGB (CDUX - THETADX) + BIAS
000098:
000099:                                                                                                  #        *AK *   * 1        SIN(PSI)        0    ** CDUX - THETADX *    *BIAS *
000100:                                                                                                  #        *   *   *                               **                *    *     *
000101:                                                                                                  #        *AK1* = * 0   COS(PSI)COS(PHI)  SIN(PHI)** CDUY - THETADY *  + *BIAS1*
000102:                                                                                                  #        *   *   *                               **                *    *     *
000103:                                                                                                  #        *AK2*   * 0  -COS(PSI)SIN(PHI)  COS(PHI)** CDUZ - THETADZ *    *BIAS2*
000104:
000105:                                                                                                  #  THE BIASES ARE ADDED ONLY WHILE PERFORMING AUTOMATIC MANEUVERS (ESP KALCMANU) TO PROVIDE ADDITIONAL LEAD
000106:                                                                                                  #  AND PREVENT OVERSHOOT WHEN STARTING AN AUTOMATIC MANEUVER.  NORMALLY THE REQUIRED LEAD IS ONLY 1-2 DEGREES.
000107:                                                                                                  #  BUT DURING HIGH RATE MANEUVERS IT CAN BE AS MUCH AS 7 DEGREES.  THE BIASES ARE COMPUTED BY KALCMANU AND REMAIN
000108:                                                                                                  #  FIXED UNTIL THE MANEUVER IS COMPLETED AT WHICH TIME THEY ARE RESET TO ZERO.
000109:
000110: 21,3306           30032        ATTHOLD            CA       CDUX
000111: 21,3307           00006                           EXTEND
000112: 21,3310           21572                           MSU      THETADX
000113: 21,3311           55567                           TS       ERRORX
000114: 21,3312           30033                           CA       CDUY
000115: 21,3313           00006                           EXTEND
000116: 21,3314           21573                           MSU      THETADY
000117: 21,3315           55502                           TS       T5TEMP
000118: 21,3316           00006                           EXTEND
000119: 21,3317           71640                           MP       AMGB1
000120: 21,3320           27567                           ADS      ERRORX
000121: 21,3321           31502                           CA       T5TEMP
000122: 21,3322           00006                           EXTEND
000123: 21,3323           71641                           MP       AMGB4
000124: 21,3324           55570                           TS       ERRORY
000125: 21,3325           31502                           CA       T5TEMP
000126: 21,3326           00006                           EXTEND
000127: 21,3327           71643                           MP       AMGB7
000128: 21,3330           55571                           TS       ERRORZ
000129: 21,3331           30034                           CA       CDUZ
000130: 21,3332           00006                           EXTEND
000131: 21,3333           21574                           MSU      THETADZ
000132: 21,3334           55502                           TS       T5TEMP
000133: 21,3335           00006                           EXTEND
000134: 21,3336           71642                           MP       AMGB5
000135: 21,3337           27570                           ADS      ERRORY
000136: 21,3340           31502                           CA       T5TEMP
000137: 21,3341           00006                           EXTEND
000138: 21,3342           71644                           MP       AMGB8
000139: 21,3343           27571                           ADS      ERRORZ
000140: 21,3344           41332                           CS       HOLDFLAG
000141: 21,3345           00006                           EXTEND


000143: 21,3346           63425                           BZMF     JETS
000144: 21,3347           31564                           CA       BIAS                                  #  AD BIASES ONLY IF PERFORMING AUTOMATIC
000145: 21,3350           27567                           ADS      ERRORX
000146: 21,3351           31565                           CA       BIAS1
000147: 21,3352           27570                           ADS      ERRORY
000148: 21,3353           31566                           CA       BIAS2
000149: 21,3354           27571                           ADS      ERRORZ
000150: 21,3355           13425                           TCF      JETS
000151: 21,3356           11332        HOLDFUNC           CCS      HOLDFLAG
000152: 21,3357           13362                           TCF      +3
000153: 21,3360           13306                           TCF      ATTHOLD
000154: 21,3361           13362                           TCF      +1
000155: 21,3362           34714        GRABANG            CAF      ZERO                                  #  ZERO WBODYS AND BIASES
000156: 21,3363           55525                           TS       WBODY
000157: 21,3364           55526                           TS       WBODY      +1
000158: 21,3365           55527                           TS       WBODY1
000159: 21,3366           55530                           TS       WBODY1     +1
000160: 21,3367           55531                           TS       WBODY2
000161: 21,3370           55532                           TS       WBODY2     +1
000162: 21,3371           55564                           TS       BIAS
000163: 21,3372           55565                           TS       BIAS1
000164: 21,3373           55566                           TS       BIAS2
000165:
000166: 21,3374           31501                           CA       RCSFLAGS
000167: 21,3375           73023                           MASK     OCT16000
000168: 21,3376           00006                           EXTEND                                         #  IS RATE DAMPING COMPLETED
000169: 21,3377           13405                           BZF      ENDDAMP                               #  IF SO, GO TO ENDDAMP
000170: 21,3400           34714                           CAF      ZERO                                  #  OTHERWISE, ZERO ERRORS
000171: 21,3401           55567                           TS       ERRORX
000172: 21,3402           55570                           TS       ERRORY
000173: 21,3403           55571                           TS       ERRORZ
000174: 21,3404           13425                           TCF      JETS
000175:
000176: 21,3405           55332        ENDDAMP            TS       HOLDFLAG                              #  SET HOLDFLAG +0
000177: 21,3406           00006                           EXTEND
000178: 21,3407           30033                           DCA      CDUX                                  #  PICK UP CDU ANGLES FOR ATTITUDE HOLD
000179: 21,3410           53573                           DXCH     THETADX                               #  REFERENCES
000180: 21,3411           30034                           CA       CDUZ
000181: 21,3412           55574                           TS       THETADZ
000182: 21,3413           13306                           TCF      ATTHOLD
000183:


000185:                                                                                                  #  JET SWITCHING LOGIC AND CALCULATION OF REQUIRED ROTATION COMMANDS
000186:
000187:                                                                                                  #  DETERMINE THE LOCATION OF THE RATE ERROR AND THE ATTITUDE ERROR RELATIVE TO THE SWITCHING LOGIC IN THE PHASE
000188:                                                                                                  #  PLANE.
000189:
000190:                                                                                                  #  COMPUTE THE CHANGE IN RATE CORRESPONDING TO THE ATTITUDE ERROR NECESSARY TO DRIVE THE S/C INTO THE
000191:                                                                                                  #  APPROPRIATE DEADZONE.
000192:
000193:                                                                                                  #                                      .
000194:                                                                                                  #    R22                          RATE . ERROR
000195:                                                                                                  #         WL+H                         .
000196:                                                                                                  #  *********************************   .                                 ***** SWITCH LINES ENCLOSING DEADZONES
000197:                                                                                                  #    R23  WL                        *  .
000198:                                                                                                  #  ----------------------------------* .                                 ----- DESIRED RATE LINES
000199:                                                                                                  #    R23  WL-H       -                *.
000200:                                                                                                  #  ****************** -                .                                 R20, R21, R22, ETC REGIONS IN PHASE
000201:                                                                                                  #                    * -               .* R18      R20       R21         PLANE FOF COMPUTING DESIRED RESPONSE
000202:                                                                                                  #                     *                . *
000203:                                                                                                  #                      *-              .  *
000204:                                                                                                  #    R22             R24*-             .   *
000205:                                                                                                  #                        *             .    *
000206:                                                                                                  #                         *            .     *
000207:                                                                                                  #                          + -ADB      .      * AF              ATTITUDE
000208:                                                                                                  #   ........................+--+---------------+--+........................
000209:                                                                                                  #                            AF *      .     +ADB  +             ERROR
000210:                                                                                                  #                                *     .            *
000211:                                                                                                  #                                 *    .            -*
000212:                                                                                                  #                                  *   .             -*
000213:                                                                                                  #                                   *  .              -*
000214:                                                                                                  #                                    * .                *
000215:                                                                                                  #                                     *.               - *
000216:                                                                                                  #                                      .                - *****************
000217:                                                                                                  #                                      .*-
000218:                                                                                                  #                                      . * --------------------------------
000219:                                                                                                  #                                      .
000220:                                                                                                  #                                      .
000221:                                                                                                  #                        FIG. 1  PHASE PLANE SWITCHING LOGIC
000222:
000223:                                                                                                  #  CONSTANTS FOR JET SWITCHING LOGIC
000224:
000225: 21,3414           00114        WLH/SLOP           DEC      .00463                                #  = WL+H/SLOPE = .83333 DEG     S180
000226: 21,3415           00055        WL-H/SLP           DEC      .00277                                #  = WL-H/SLOPE = .5 DEG         S180
000227: 21,3416           00022 06426  WLH                2DEC     .0011111111                            #  = WL+H = 0.5 DED/SEC          S450
000228: 21,3420           00012 35415  WLMH               2DEC     .0006666666                            #  = WL-H = 0.3 DEG/SEC          S450
000229: 21,3422           00016 22021  WL                 2DEC     .0008888888                            #  = WL   = 0.4 DEG/SEC          S450
000230:


000232: 21,3424           12173        SLOPE2             DEC      .32                                   #  = 0.8 DEG/SEC/DEG             S450/180
000233: 21,3425           31655        JETS               CA       ADB
000234: 21,3426           64710                           AD       FOUR                                  #  AF = FLAT REGION = .044 DEG
000235: 21,3427           55502                           TS       T5TEMP                                #  ADB+AF
000236: 21,3430           34711                           CAF      TWO
000237: 21,3431           55506        JLOOP              TS       SPNDX
000238: 21,3432           60000                           DOUBLE
000239: 21,3433           55507                           TS       DPNDX
000240: 21,3434           00006                           EXTEND
000241: 21,3435           50000                           INDEX    A
000242: 21,3436           31534                           DCA      ADOT
000243: 21,3437           53516                           DXCH     EDOT
000244: 21,3440           31332                           CA       HOLDFLAG                              #  HOLDFLAG = +0 MEANS THAT DAP IS IN
000245: 21,3441           00006                           EXTEND                                         #  ATTITUDE HOLD AND RATE DAMPING IS OVER.
000246: 21,3442           13447                           BZF      INHOLD                                #  IF THIS IS THE CASE, BYPASS ADDITION
000247:                                                                                                  #  OF WBODY AND GO TO INHOLD
000248: 21,3443           00006                           EXTEND
000249: 21,3444           51507                           INDEX    DPNDX
000250: 21,3445           41526                           DCS      WBODY
000251: 21,3446           21516                           DAS      EDOT                                  #  = ADOT-WBODY
000252: 21,3447           51506        INHOLD             INDEX    SPNDX
000253: 21,3450           31567                           CA       ERRORX
000254: 21,3451           55517                           TS       AERR                                  #  AERR = BIAS + AK
000255:
000256: 21,3452           11515                           CCS      EDOT
000257: 21,3453           13463                           TCF      POSVEL
000258: 21,3454           13456                           TCF      SIGNCK1
000259: 21,3455           13473                           TCF      NEGVEL
000260: 21,3456           11516        SIGNCK1            CCS      EDOT       +1
000261: 21,3457           13463                           TCF      POSVEL
000262: 21,3460           13463                           TCF      POSVEL
000263: 21,3461           13473                           TCF      NEGVEL
000264: 21,3462           13473                           TCF      NEGVEL
000265: 21,3463           00006        POSVEL             EXTEND
000266: 21,3464           31516                           DCA      EDOT
000267: 21,3465           53521                           DXCH     EDOTVEL
000268: 21,3466           31502                           CA       T5TEMP
000269: 21,3467           55523                           TS       ADBVEL                                #  +(ADB+AF)
000270: 21,3470           31517                           CA       AERR
000271: 21,3471           55522                           TS       AERRVEL
000272: 21,3472           03502                           TC       J6.
000273: 21,3473           00006        NEGVEL             EXTEND
000274: 21,3474           41516                           DCS      EDOT
000275: 21,3475           53521                           DXCH     EDOTVEL
000276: 21,3476           41502                           CS       T5TEMP
000277: 21,3477           55523                           TS       ADBVEL                                #  -(ADB+AF)
000278: 21,3500           41517                           CS       AERR
000279: 21,3501           55522                           TS       AERRVEL
000280:
000281: 21,3502           00006        J6.                EXTEND


000283: 21,3503           61655                           SU       ADB
000284: 21,3504           63414                           AD       WLH/SLOP
000285: 21,3505           00006                           EXTEND
000286: 21,3506           63535                           BZMF     J8
000287:
000288: 21,3507           41502                           CS       T5TEMP                                #  (ADB+AF)
000289: 21,3510           61522                           AD       AERRVEL
000290: 21,3511           00006                           EXTEND
000291: 21,3512           63514                           BZMF     +2
000292: 21,3513           13526                           TCF      J7
000293: 21,3514           00006                           EXTEND
000294: 21,3515           41521                           DCS      EDOTVEL
000295: 21,3516           00006                           EXTEND
000296: 21,3517           11654                           DV       SLOPE
000297: 21,3520           00006                           EXTEND
000298: 21,3521           61522                           SU       AERRVEL
000299: 21,3522           61655                           AD       ADB
000300: 21,3523           00006                           EXTEND
000301: 21,3524           63614                           BZMF     J18
000302: 21,3525           13670                           TCF      J23
000303:
000304: 21,3526           43415        J7                 CS       WL-H/SLP
000305: 21,3527           00006                           EXTEND
000306: 21,3530           61502                           SU       T5TEMP                                #  (ADB+AF)
000307: 21,3531           61522                           AD       AERRVEL
000308: 21,3532           00006                           EXTEND
000309: 21,3533           63620                           BZMF     J20
000310: 21,3534           13631                           TCF      J21
000311:
000312: 21,3535           00006        J8                 EXTEND
000313: 21,3536           43417                           DCS      WLH
000314: 21,3537           53514                           DXCH     WTEMP
000315: 21,3540           00006                           EXTEND
000316: 21,3541           31521                           DCA      EDOTVEL
000317: 21,3542           21514                           DAS      WTEMP
000318: 21,3543           11513                           CCS      WTEMP
000319: 21,3544           13657                           TCF      J22
000320: 21,3545           13547                           TCF      SIGNCK2
000321: 21,3546           13553                           TCF      NJ22
000322: 21,3547           11514        SIGNCK2            CCS      WTEMP      +1
000323: 21,3550           13657                           TCF      J22
000324: 21,3551           13657                           TCF      J22
000325: 21,3552           13553                           TCF      NJ22
000326:
000327: 21,3553           00006        NJ22               EXTEND
000328: 21,3554           31521                           DCA      EDOTVEL
000329: 21,3555           00006                           EXTEND
000330: 21,3556           11654                           DV       SLOPE
000331: 21,3557           61502                           AD       T5TEMP                                #  (ADB+AF)
000332: 21,3560           61522                           AD       AERRVEL


000334: 21,3561           10000                           CCS      A
000335: 21,3562           13670                           TCF      J23
000336: 21,3563           13670                           TCF      J23
000337: 21,3564           13566                           TCF      +2
000338: 21,3565           13670                           TCF      J23
000339:
000340: 21,3566           00006                           EXTEND
000341: 21,3567           43421                           DCS      WLMH                                  #  WL - H
000342: 21,3570           53514                           DXCH     WTEMP
000343: 21,3571           00006                           EXTEND
000344: 21,3572           31521                           DCA      EDOTVEL
000345: 21,3573           21514                           DAS      WTEMP
000346: 21,3574           11513                           CCS      WTEMP
000347: 21,3575           13670                           TCF      J23
000348: 21,3576           13600                           TCF      SIGNCK3
000349: 21,3577           13604                           TCF      NJ23
000350: 21,3600           11514        SIGNCK3            CCS      WTEMP      +1
000351: 21,3601           13670                           TCF      J23
000352: 21,3602           13670                           TCF      J23
000353: 21,3603           13604                           TCF      NJ23
000354:
000355: 21,3604           31522        NJ23               CA       AERRVEL
000356: 21,3605           61502                           AD       T5TEMP                                #  (ADB+AF)
000357: 21,3606           63415                           AD       WL-H/SLP
000358: 21,3607           10000                           CCS      A
000359: 21,3610           13702                           TCF      J24
000360: 21,3611           13702                           TCF      J24
000361: 21,3612           13657                           TCF      J22
000362: 21,3613           13657                           TCF      J22
000363:
000364: 21,3614           00006        J18                EXTEND
000365: 21,3615           41516                           DCS      EDOT
000366: 21,3616           53511                           DXCH     KMPAC
000367: 21,3617           13713                           TCF      JTIME
000368:
000369: 21,3620           41517        J20                CS       AERR
000370: 21,3621           61523                           AD       ADBVEL
000371: 21,3622           00006                           EXTEND
000372: 21,3623           73424                           MP       SLOPE2                                #  (HYSTERESIS SLOPE)
000373: 21,3624           53511                           DXCH     KMPAC
000374: 21,3625           00006                           EXTEND
000375: 21,3626           41516                           DCS      EDOT
000376: 21,3627           21511                           DAS      KMPAC
000377: 21,3630           13713                           TCF      JTIME
000378:
000379: 21,3631           11515        J21                CCS      EDOT
000380: 21,3632           13650                           TCF      JP
000381: 21,3633           13635                           TCF      SIGNCK4
000382: 21,3634           13641                           TCF      JN
000383: 21,3635           11516        SIGNCK4            CCS      EDOT       +1


000385: 21,3636           13650                           TCF      JP
000386: 21,3637           13650                           TCF      JP
000387: 21,3640           13641                           TCF      JN
000388: 21,3641           00006        JN                 EXTEND
000389: 21,3642           41516                           DCS      EDOT
000390: 21,3643           53511                           DXCH     KMPAC
000391: 21,3644           00006                           EXTEND
000392: 21,3645           33423                           DCA      WL
000393: 21,3646           21511                           DAS      KMPAC
000394: 21,3647           13713                           TCF      JTIME
000395:
000396: 21,3650           00006        JP                 EXTEND
000397: 21,3651           41516                           DCS      EDOT
000398: 21,3652           53511                           DXCH     KMPAC
000399: 21,3653           00006                           EXTEND
000400: 21,3654           43423                           DCS      WL
000401: 21,3655           21511                           DAS      KMPAC
000402: 21,3656           13713                           TCF      JTIME
000403:
000404: 21,3657           11515        J22                CCS      EDOT
000405: 21,3660           13641                           TCF      JN
000406: 21,3661           13663                           TCF      SIGNCK5
000407: 21,3662           13650                           TCF      JP
000408: 21,3663           11516        SIGNCK5            CCS      EDOT       +1
000409: 21,3664           13641                           TCF      JN
000410: 21,3665           13641                           TCF      JN
000411: 21,3666           13650                           TCF      JP
000412: 21,3667           13650                           TCF      JP
000413:
000414: 21,3670           51506        J23                INDEX    SPNDX
000415: 21,3671           44676                           CS       BIT13                                 #  RESET RATE DAMPING FLAG
000416: 21,3672           71501                           MASK     RCSFLAGS                              #  BIT13 FOR ROLL  (SPNDX = 0)
000417: 21,3673           55501                           TS       RCSFLAGS                              #  BIT12 FOR PITCH (SPNDX = 1)
000418:                                                                                                  #  BIT11 FOR YAW   (SPNDX = 2)
000419:
000420: 21,3674           51506                           INDEX    SPNDX
000421: 21,3675           33017                           CAF      OCT01400                              #  IS THERE TO BE A FORCED FIRING ON THIS
000422: 21,3676           71501                           MASK     RCSFLAGS                              #  AXIS
000423: 21,3677           00006                           EXTEND
000424: 21,3700           13734                           BZF      DOJET      +2                         #  NO, GO TO DOJET +2 AND DO NOTHING
000425:
000426: 21,3701           13614                           TCF      J18                                   #  YES, GO TO J18 AND FORCE A FIRING
000427:
000428: 21,3702           41517        J24                CS       AERR
000429: 21,3703           00006                           EXTEND
000430: 21,3704           61523                           SU       ADBVEL
000431: 21,3705           00006                           EXTEND
000432: 21,3706           73424                           MP       SLOPE2                                #  (HYSTERESIS SLOPE)
000433: 21,3707           53511                           DXCH     KMPAC
000434: 21,3710           00006                           EXTEND


000436: 21,3711           41516                           DCS      EDOT
000437: 21,3712           21511                           DAS      KMPAC
000438:


000440:                                                                                                  #  COMPUTE THE JET ON TIME NECESSARY TO ACCOMPLISH THE DESIRED CHANGE IN RATE, I.E.,
000441:
000442:                                                                                                  #             T  = J/M(DELTA W)
000443:                                                                                                  #              J
000444:
000445:                                                                                                  #        DELTA W = DESIRED CHANGE IN S/C ANGULAR RATE AS DETERMINED BY THE
000446:                                                                                                  #                  SWITCHING LOGIC, AT THIS PINT STORED IN KMPAC.
000447:
000448:                                                                                                  #            J/M = S/C INERTIA TO TORQUE 9ATIO SCALED BY
000449:                                                                                                  #                        (57.3/450)(B24/1600)(1/.8)
000450:                                                                                                  #                  FOR 1 JET OPERATION  (M = 700 FT-LB).
000451:                                                                                                  #                  I.E., J/M = J(SLUG-FTFT) x 0.00000085601606
000452:
000453:                                                                                                  #                  THE CORRESPONDING COMPUTER VARIABLES ESTABLISHED BY
000454:                                                                                                  #                  KEYBOARD ENTRY ARE
000455:                                                                                                  #                        J/M  (ROLL)
000456:                                                                                                  #                        J/M1 (PITCH)
000457:                                                                                                  #                        J/M2 (YAW)
000458:
000459:                                                                                                  #             T  = JET-ON TIME    SCALED 16384/1600 SEC
000460:                                                                                                  #              J
000461:
000462:                                                                                                  #                  THE COMPUTER VARIABLES ARE
000463:                                                                                                  #                        TAU  (ROLL)
000464:                                                                                                  #                        TAU1 (PITCH)
000465:                                                                                                  #                        TAU2 (YAW)
000466:
000467: 21,3713           51506        JTIME              INDEX    SPNDX                                 #  PICK UP S/C INERTIA/TORQUE RATIO
000468: 21,3714           31623                           CA       J/M                                   #  SCALED (57.3/450)(B24/1600)
000469: 21,3715           02026                           TC       SMALLMP                               #  FOR 1-JET OPERATION
000470: 21,3716           34700                           CA       BIT11
000471: 21,3717           02026                           TC       SMALLMP
000472: 21,3720           11510                           CCS      KMPAC
000473: 21,3721           13725                           TCF      +4
000474: 21,3722           13731                           TCF      TAUNORM
000475: 21,3723           13727                           TCF      +4
000476: 21,3724           13731                           TCF      TAUNORM
000477: 21,3725           34672                           CA       POSMAX
000478: 21,3726           13732                           TCF      DOJET
000479: 21,3727           34674                           CA       NEGMAX
000480: 21,3730           13732                           TCF      DOJET
000481:
000482: 21,3731           31511        TAUNORM            CA       KMPAC      +1
000483: 21,3732           51506        DOJET              INDEX    SPNDX
000484: 21,3733           55561                           TS       TAU
000485: 21,3734           11506                           CCS      SPNDX
000486: 21,3735           13431                           TCF      JLOOP
000487: 21,3736           13743                           TCF      T6PROG
000488:


000490: 21,3737           34714        ZEROCMDS           CAF      ZERO
000491: 21,3740           55561                           TS       TAU
000492: 21,3741           55562                           TS       TAU1
000493: 21,3742           55563                           TS       TAU2
000494: 21,3743           00006        T6PROG             EXTEND                                         #  WHEN THE ROTATION COMMANDS (TAUS)
000495: 21,3744           33750                           DCA      JETADDR                               #  HAVE BEEN DETERINED
000496: 21,3745           53313                           DXCH     T5LOC                                 #  RESET T5LOC FOR PHASE3
000497: 21,3746           15222                           TCF      RESUME
000498:
000499: 21,3747  E6,1510                                  EBANK=   KMPAC
000500: 21,3747           02577 36066  JETADDR            2CADR    JETSLECT
000501:

End of include-file AUTOMATIC_MANEUVERS.agc.  Parent file is MAIN.agc


