
Source Code


000002:                                                                                                  ## Copyright:   Public domain.
000003:                                                                                                  ## Filename:    CM_ENTRY_DIGITAL_AUTOPILOT.agc
000004:                                                                                                  ## Purpose:     Part of the source code for Colossus, build 249.
000005:                                                                                                  ##              It is part of the source code for the Command Module's (CM)
000006:                                                                                                  ##              Apollo Guidance Computer (AGC), for Apollo 9.
000007:                                                                                                  ## Assembler:   yaYUL
000008:                                                                                                  ## Reference:   Starts on p. 1034
000009:                                                                                                  ## Contact:     Ron Burkey <info@sandroid.org>.
000010:                                                                                                  ## Website:     www.ibiblio.org/apollo.
000011:                                                                                                  ## Mod history: 08/27/04 RSB.   Began transcribing.
000012:                                                                                                  ##              2010-10-24 JL   Indentation fixes.
000013:                                                                                                  ##              2017-01-06 RSB  Page numbers now agree with those on the
000014:                                                                                                  ##                              original harcopy, as opposed to the PDF page
000015:                                                                                                  ##                              numbers in 1701.pdf.
000016:                                                                                                  ##              2017-01-07 RSB  Cross-diff'd comment text (not whitespace)
000017:                                                                                                  ##                              vs the already-proofed corresponding Colossus
000018:                                                                                                  ##                              237 and Comanche 55 source-code files
000019:                                                                                                  ##                              and corrected errors found.
000020:                                                                                                  ##
000021:                                                                                                  ## The contents of the "Colossus249" files, in general, are transcribed
000022:                                                                                                  ## from a scanned copy of the program listing.  Notations on this
000023:                                                                                                  ## document read, in part:
000024:                                                                                                  ##
000025:                                                                                                  ##      Assemble revision 249 of AGC program Colossus by NASA
000026:                                                                                                  ##      2021111-041.  October 28, 1968.
000027:                                                                                                  ##
000028:                                                                                                  ##      This AGC program shall also be referred to as
000029:                                                                                                  ##                              Colossus 1A
000030:                                                                                                  ##
000031:                                                                                                  ##      Prepared by
000032:                                                                                                  ##                      Massachusetts Institute of Technology
000033:                                                                                                  ##                      75 Cambridge Parkway
000034:                                                                                                  ##                      Cambridge, Massachusetts
000035:                                                                                                  ##      under NASA contract NAS 9-4065.
000036:                                                                                                  ##
000037:                                                                                                  ## Refer directly to the online document mentioned above for further information.
000038:                                                                                                  ## Please report any errors (relative to the scanned pages) to info@sandroid.org.
000039:                                                                                                  ##
000040:                                                                                                  ## In some cases, where the source code for Luminary 131 overlaps that of
000041:                                                                                                  ## Colossus 249, this code is instead copied from the corresponding Luminary 131
000042:                                                                                                  ## source file, and then is proofed to incorporate any changes.
000043:


000045:                                                                                                  #  SUBROUTINE TO READ GYMBAL ANGLES AND FORM DIFFERENCES.  GIMBAL ANGLES ARE SAVED IN 2'S COMPLEMENT, BUT THE
000046:                                                                                                  #  DIFFERENECES ARE IN 1'S COMP.  ENTER AND READ ANGLES EACH .1 SEC.
000047:
000048:                                                                                                  #        CM/DSTBY = 1 FOR DAP OPERATION
000049:                                                                                                  #        CM/DSTBY = 0 TO TERMINATE DAP OPERATION.
000050:
000051: 15,2454                                           BANK     15
000052:
000053: 15,2000                                           SETLOC   ETRYDAP
000054: 15,2000                                           BANK
000055:
000056: 15,2454                                           COUNT    15/DAPEN
000057:
000058: 15,2454  E6,1661                                  EBANK=   AOG
000059:
000060: 15,2454           34377        READGYMB           CA       TEN                                   #  KEEP RESTART DT GOING RELATIVE TO
000061: 15,2455           27725                           ADS      CM/GYMDT                              #  PIPTIME.  (GROUP 6)
000062:
000063:                                                                                                  #  IF A RESTART OCCURS, SKIP PRESENT CYCLE.  THE
000064:                                                                                                  #  PHASCHNG PROTECTION IS IN CM/DAPIC.
000065:
000066: 15,2456           34705                           CA       BIT6                                  #  CHECK FOR FINE ALIGN MODE OF CDU.
000067: 15,2457           71321                           MASK     IMODES33                              #  (PROTECT AOG/PIP ETC AS WELL AS
000068: 15,2460           00006                           EXTEND                                         #  GIMBAL DIFFERENCES)
000069: 15,2461           12467                           BZF      READGYM1                              #  OK
000070:
000071: 15,2462           44712                           CS       BIT1                                  #  NOT IN FINE ALIGN, SO IDLE.
000072: 15,2463           70102                           MASK     CM/FLAGS                              #  SET GYMDIFSW = 0
000073: 15,2464           54102                           TS       CM/FLAGS
000074: 15,2465           06000                           TC       FLUSHJET                              #  QUENCH JETS, SINCE MAY BE A WHILE.
000075: 15,2466           02534                           TC       CM/GYMIC   +2
000076:
000077: 15,2467           30032        READGYM1           CA       CDUX
000078: 15,2470           57661                           XCH      AOG
000079: 15,2471           00006                           EXTEND
000080: 15,2472           21661                           MSU      AOG                                   #  -DELAOG=AOG(N-1) - AOG(N)
000081: 15,2473           55675                           TS       -DELAOG
000082:
000083: 15,2474           30033                           CA       CDUY
000084: 15,2475           57662                           XCH      AIG
000085: 15,2476           00006                           EXTEND
000086: 15,2477           21662                           MSU      AIG
000087: 15,2500           55676                           TS       -DELAIG
000088:
000089: 15,2501           30034                           CA       CDUZ
000090: 15,2502           57663                           XCH      AMG
000091: 15,2503           00006                           EXTEND
000092: 15,2504           21663                           MSU      AMG
000093: 15,2505           55677                           TS       -DELAMG
000094:


000096: 15,2506           40102        DOBRATEW           CS       CM/FLAGS                              #  CM/DSTBY=103D BIT2  GYMDIFSW=104D BIT1
000097: 15,2507           76214                           MASK     THREE
000098: 15,2510           50000                           INDEX    A
000099: 15,2511           02512                           TC       +1
000100: 15,2512           02521                           TC       DOBRATE                               #  OK, GO ON
000101: 15,2513           02532                           TC       CM/GYMIC                              #  DONT CALC BODYRATE ON FIRST PASS.
000102: 15,2514           12515                           NOOP
000103: 15,2515           06000                           TC       FLUSHJET                              #  TURN OFF ALL JETS
000104:
000105: 15,2516           05301                           TC       PHASCHNG
000106: 15,2517           00006                           OCT      00006                                 #  DEACTIVATE DAP GROUP 6.
000107:
000108: 15,2520           05213                           TC       TASKOVER
000109:
000110: 15,2521           34712        DOBRATE            CA       ONE                                   #  DO BODYRATE
000111: 15,2522           55720        DOBRATE1           TS       JETEM                                 #  SKIP BODYRATE.
000112:
000113: 15,2523           34377                           CA       TEN                                   #  KEEP CDU READ GOING.
000114: 15,2524           05140                           TC       WAITLIST
000115: 15,2525  E6,1661                                  EBANK=   AOG
000116: 15,2525           02454 32066                     2CADR    READGYMB
000117:
000118:                                                                                                  #  DOES NOT PROTECT TEMK, SQ IN SPSIN/COS
000119:
000120: 15,2527           11720                           CCS      JETEM
000121: 15,2530           02556                           TC       BODYRATE
000122: 15,2531           05213                           TC       TASKOVER                              #  SKIP CALC ON INITIAL PASS.  (PASSES)
000123:
000124: 15,2532           26102        CM/GYMIC           ADS      CM/FLAGS                              #  GYMDIFSW:  C(A)=1, KNOW BIT IS 0
000125: 15,2533           34714                           CAF      ZERO
000126: 15,2534           55711                           TS       JETAG
000127: 15,2535           55706                           TS       OLDELP
000128: 15,2536           55707                           TS       OLDELQ
000129: 15,2537           55710                           TS       OLDELR
000130: 15,2540           55723                           TS       GAMDOT                                #  NO GYM DIF, PROB NO GAM DIF.
000131: 15,2541           02522                           TC       DOBRATE1
000132:


000134:                                                                                                  #  COME HERE TO CORRECT FOR OVERFLOW IN ANGULAR CALCULATIONS
000135:
000136: 15,2542           54001        ANGOVCOR           TS       L                                     #  THIS COSTS 2 MCT TO USE.
000137: 15,2543           00002                           TC       Q                                     #  NO OVFL
000138: 15,2544           50000                           INDEX    A
000139: 15,2545           34673                           CAF      LIMITS
000140: 15,2546           26001                           ADS      L
000141: 15,2547           00002                           TC       Q
000142:
000143:    6000                                           BLOCK    3
000144:
000145:    6000                                           COUNT    03/DAPEN
000146:
000147:    6000           30007        FLUSHJET           CA       7                                     #  COME HERE TO TURN OFF ALL JETS.
000148:    6001           00006                           EXTEND
000149:    6002           01006                           WRITE    ROLLJETS                              #  ZERO CHANNEL 6
000150:    6003           00006                           EXTEND
000151:    6004           01005                           WRITE    PYJETS                                #  ZERO CHANNEL 5
000152:    6005           00002                           TC       Q
000153:
000154: 15,2550                                           BANK     15
000155:
000156: 15,2550                                           COUNT    15/DAPEN
000157:
000158: 15,2000                                           SETLOC   ETRYDAP
000159: 15,2000                                           BANK
000160:
000161: 15,2550           40000        RATEAVG            COM                                            #  SUBROUTINE TO ESTIMATE RATES IN PRESENCE
000162: 15,2551           61720                           AD       JETEM                                 #  OF CONSTANT ACCELERATION.
000163: 15,2552           00006                           EXTEND
000164: 15,2553           74675                           MP       HALF                                  #  DELV (EST) = DELV +(DELV-OLDELV)/2
000165: 15,2554           61720                           AD       JETEM
000166: 15,2555           00002                           TC       Q
000167:


000169:                                                                                                  #  THESE ARE CALLED FOR THE VARIOUS INITIALIZATIONS NEEDED.
000170:
000171: 20,3565                                           BANK     20
000172: 20,2000                                           SETLOC   DAPS1
000173: 20,2000                                           BANK
000174:
000175: 20,3565                                           COUNT    20/DAPEN
000176: 20,3565  E6,1661                                  EBANK=   AOG
000177:
000178: 20,3565           34752        CM/DAPON           CA       EBAOG
000179: 20,3566           54003                           TS       EBANK
000180:
000181: 20,3567           05447                           TC       DOWNFLAG                              #  RESET DAPBIT1.  T5 RESTART IDENTIFIER.
000182: 20,3570           00132                           ADRES    DAPBIT1                               #  BIT 15 FLAG 6         CMFLAGS.
000183: 20,3571           05447                           TC       DOWNFLAG                              #  RESET DAPBIT2
000184: 20,3572           00133                           ADRES    DAPBIT2                               #  BIT 14 FLAG 6
000185: 20,3573           00006                           EXTEND
000186: 20,3574           33712                           DCA      T5IDLER1                              #  DISABLE RCS CALCULATION
000187: 20,3575           53313                           DXCH     T5LOC
000188: 20,3576           00006                           EXTEND
000189: 20,3577           33712                           DCA      T5IDLER1                              #  DISABLE RCS JET CALLS
000190: 20,3600           53311                           DXCH     T6LOC
000191:
000192: 20,3601           06000                           TC       FLUSHJET                              #  JETS DEPARTED ON SM. ZERO JET BITS.
000193:
000194: 20,3602           47707                           CS       13,14,15
000195: 20,3603           71466                           MASK     DAPDATR1                              #  SET CONFIG BITS=0 FOR ENTRY
000196: 20,3604           55466                           TS       DAPDATR1
000197: 20,3605           03611                           TC       +4
000198:
000199: 20,3606           34731        NOTYET             CA       .5SEC
000200: 20,3607           04555                           TC       BANKCALL
000201: 20,3610           01732                           CADR     DELAYJOB                              #  (DELAYJOB DOES INHINT)
000202: 20,3611           34700                 +4        CA       BIT11                                 #  GAMDIFSW = 94D BIT11, INITLY=0
000203: 20,3612           70102                           MASK     CM/FLAGS                              #  IF ZERO, WAIT UNTIL CM/POSE UPDATE.
000204: 20,3613           00006                           EXTEND
000205: 20,3614           13606                           BZF      NOTYET
000206:
000207: 20,3615           44712                           CS       ONE                                   #  ACTIVATE CM/DAP
000208: 20,3616           55501                           TS       RCSFLAGS                              #  USE BIT3 TO INITIALIZE NEEDLER ON
000209:                                                                                                  #  NEXT PASS.
000210: 20,3617           55727                           TS       P63FLAG                               #  SO WAKEP62 WILL NOT BE INITIATED UNTIL
000211:                                                                                                  #  HEADSUP IS SET IN P62.
000212:
000213:                                                                                                  #  FLAG TO PREVENT MULTIPLE CALLS TO WAKEP62.
000214:
000215: 20,3620           30007                           CA       7
000216: 20,3621           55711                           TS       JETAG
000217: 20,3622           55713                           TS       PAXERR1                               #  KEEP NEEDLES ZERO UNTIL DAP UPDATE
000218:                                                                                                  #  IN CASE CMDAPMOD IS NOT +1.


000220: 20,3623           00004                           INHINT
000221: 20,3624           00006                           EXTEND
000222: 20,3625           31666                           DCA      ALFA/180                              #  DO ATTITUDE HOLD UNTIL KEYBOARD
000223: 20,3626           53604                           DXCH     ALFACOM                               #  ESTABLISHES HEADSUP.
000224: 20,3627           31664                           CA       ROLL/180
000225: 20,3630           55717                           TS       ROLLHOLD                              #  FOR ATTITUDE HOLD IN MODE +1.
000226: 20,3631           00006                           EXTEND
000227: 20,3632           74675                           MP       HALF
000228: 20,3633           55715                           TS       ROLLC                                 #  NOT INTERESTED IN LO WORD.
000229:
000230: 20,3634           40102                           CS       CM/FLAGS
000231: 20,3635           74677                           MASK     BIT12                                 #  CMDAPARM =93D BIT12  INITLY=0
000232: 20,3636           26102                           ADS      CM/FLAGS                              #  SET BIT TO 1.
000233:
000234: 20,3637           40076                           CS       FLAGWRD2                              #  SET  NODOFLAG  TO PREVENT FURTHER
000235: 20,3640           74712                           MASK     BIT1                                  #  V 37 ENTRIES.
000236: 20,3641           26076                           ADS      FLAGWRD2
000237:
000238: 20,3642           00003                           RELINT
000239:
000240: 20,3643           04574                           TC       POSTJUMP
000241: 20,3644           54342                           CADR     P62.1
000242:


000244:                                                                                                  #  INITIALIZE CM/DAP.  WAITLIST CALL FOR READGYMB.  SET SWITCH CM/DSTBY =1
000245:                                                                                                  #  SO READACCS WILL ENTER A WTLST CALL FOR  SETJTAG .
000246:                                                                                                  #   CMDAPARM  = 0, SO ONLY BODY RATE AND ATTITUDE CALCULATIONS ARE DONE.
000247:                                                                                                  #  SET AVEGEXIT TO CONTINUE AT CM/POSE
000248:
000249: 20,3645           34752        CM/DAPIC           CA       EBAOG
000250: 20,3646           54003                           TS       EBANK
000251:
000252: 20,3647           00004                           INHINT
000253: 20,3650           41205        CM/DAP2C           CS       PIPTIME    +1
000254:                                                                                                  #  PRIO OF P62 L PRIO AVG,:PIPTM=PIPTM1
000255: 20,3651           55720                           TS       JETEM
000256:
000257: 20,3652           34675                           CA       POS1/2
000258: 20,3653           64675                           AD       POS1/2
000259: 20,3654           60025                           AD       TIME1                                 #  OVFL GUARANTEED
000260: 20,3655           27720                           ADS      JETEM                                 #  C(A) = DELTA TIME SINCE PIPUP
000261:
000262: 20,3656           44715                           CS       FIVE
000263: 20,3657           61720                           AD       JETEM
000264: 20,3660           10000                           CCS      A
000265: 20,3661           63710                           AD       -CDUT+1
000266: 20,3662           13660                           TCF      -2
000267: 20,3663           13664                           NOOP
000268: 20,3664           64712                           AD       ONE                                   #  SEND NO ZERO TO WTLST
000269: 20,3665           55725                           TS       CM/GYMDT                              #  FOR RESTART
000270: 20,3666           05140                           TC       WAITLIST
000271: 20,3667  E6,1661                                  EBANK=   AOG
000272: 20,3667           02454 32066                     2CADR    READGYMB
000273:
000274: 20,3671           43707                           CS       CM/SWIC1                              #  GAMDIFSW, GYMDIFSW, CM/DSTBY
000275: 20,3672           70102                           MASK     CM/FLAGS                              #  DAPARM, .05GSW, LATSW, ENTRYDSP
000276: 20,3673           64377                           AD       CM/SWIC2                              #  SET CM/DSTBY, LATSW
000277:                                                                                                  #  DISABLE ENTRY DISPLAY, SINCE DES. GIMB.
000278:                                                                                                  #  CALC.  (P62.3) GOES TO ENDEXIT.
000279: 20,3674           54102                           TS       CM/FLAGS
000280:
000281: 20,3675           30007                           CA       7
000282: 20,3676           55666                           TS       BETA/180                              #  NECESSARY:  NO OVFL CORRECTION
000283: 20,3677           34712                           CA       ONE                                   #  INITIALIZE THE TM OF BODY RATES VIA
000284: 20,3700           54305                           TS       SW/NDX                                #  UPBUFF.
000285:
000286: 20,3701           05261                           TC       2PHSCHNG                              #  DOES INHINT/RELINT
000287: 20,3702           40116                           OCT      40116                                 #  SAVE TBASE6
000288: 20,3703           05024                           OCT      05024
000289: 20,3704           13000                           OCT      13000
000290:
000291: 20,3705           04574                           TC       POSTJUMP


000293: 20,3706           54326                           CADR     P62.2
000294:
000295: 20,3707           16017        CM/SWIC1           OCT      16017
000296: 20,3710     4377               CM/SWIC2           =        TEN                                   #  00012: CM/DSTBY, LATSW
000297: 20,3710           77766        -CDUT+1            OCT      77766
000298: 20,3711     1312                                  EBANK=   T5LOC
000299: 20,3711           03143 12062  T5IDLER1           2CADR    T5IDLOC
000300:


000302:                                                                                                  #  THIS SECTION CALCULATES THE ANGULAR BODY RATES EACH .1 SEC.  THE ANGULAR RATES ARE THOSE ALONG THE BODY AXES
000303:                                                                                                  #  XB, YB, ZB, AND ARE NORMALLY DESIGNATED P, Q, R.      REQUIREMENT:  TEMPORARY ERASE.  JETEM, JETEM +1
000304:
000305:                                                                                                  #  SINCE RESTARTS ZERO THE JET OUTPUT CHANNELS, NO ATTEMPT IS MADE TO RESTART THE ENTRY DAPS.  THAT IS,
000306:                                                                                                  #  THE 0.1 SEC DAPS WILL MISS A CYCLE, AND WILL PICK UP AT THE NEXT 0.1 SEC UPDATE.  MOST OF THE TIME THE 2 SEC
000307:                                                                                                  #  ROLL SYSTEM WILL MISS ONLY 0.1 SEC OF CONTROL.  HOWEVER IF THE RESTART OCCURS AFTER THE SECTION TIMETST HAS
000308:                                                                                                  #  STARTED, THEN THE ROLL SYSTEM WILL MISS ONE CYCLE.
000309:                                                                                                  #  THIS IS NECESSARY UNDER THE GROUNDRULE THAT NO JET COMMANDS SHALL BE LESS THAN 14 MS.
000310:
000311: 20,3713  E6,1661                                  EBANK=   AOG
000312: 15,2556                                           BANK     15
000313: 15,2000                                           SETLOC   ETRYDAP
000314: 15,2000                                           BANK
000315:
000316: 15,2556                                           COUNT    15/DAPEN
000317:
000318: 15,2556           31663        BODYRATE           CA       AMG                                   #  THESE ARE 2S COMPL NOS, BUT USE ANYWAY.
000319: 15,2557           04767                           TC       SPCOS
000320: 15,2560           55511                           TS       COSM
000321:
000322: 15,2561           31661                           CA       AOG                                   #  C(AOG) = AOG/180
000323: 15,2562           04770                           TC       SPSIN                                 #  SINO
000324: 15,2563           55512                           TS       SINO                                  #  SINO = SIN(AOG)
000325:
000326: 15,2564           00006                           EXTEND
000327: 15,2565           71511                           MP       COSM
000328: 15,2566           55514                           TS       SINOCOSM                              #  SO CM
000329:
000330: 15,2567           31661                           CA       AOG
000331: 15,2570           04767                           TC       SPCOS                                 #  COSO
000332: 15,2571           55513                           TS       COSO
000333:
000334: 15,2572           00006                           EXTEND
000335: 15,2573           71511                           MP       COSM
000336: 15,2574           55515                           TS       COSOCOSM                              #  CO CM
000337:
000338:                                                                                                  #  PITCHDOT:  Q TCDU/180 = IDOT TCDU/180 COSO COSM + MDOT TCDU/180 SINO
000339:
000340: 15,2575           41677                           CS       -DELAMG
000341: 15,2576           00006                           EXTEND
000342: 15,2577           71512                           MP       SINO
000343: 15,2600           53721                           DXCH     JETEM                                 #  2 LOCS _
000344: 15,2601           41676                           CS       -DELAIG
000345: 15,2602           00006                           EXTEND
000346: 15,2603           71515                           MP       COSOCOSM
000347: 15,2604           21721                           DAS      JETEM
000348: 15,2605           31720                           CA       JETEM
000349: 15,2606           57707                           XCH      OLDELQ
000350: 15,2607           02550                           TC       RATEAVG
000351: 15,2610           55702                           TS       QREL                                  #  PITCHDOT = Q TCDU/180
000352:


000354:                                                                                                  #  YAWDOT:  R TCDU/180 = -IDOT TCDU/180 COSM SINO + MDOT TCDU/180 COSO
000355:
000356: 15,2611           41677                           CS       -DELAMG
000357: 15,2612           00006                           EXTEND
000358: 15,2613           71513                           MP       COSO
000359: 15,2614           53721                           DXCH     JETEM
000360: 15,2615           31676                           CA       -DELAIG
000361: 15,2616           00006                           EXTEND
000362: 15,2617           71514                           MP       SINOCOSM
000363: 15,2620           21721                           DAS      JETEM
000364: 15,2621           31720                           CA       JETEM
000365: 15,2622           57710                           XCH      OLDELR
000366: 15,2623           02550                           TC       RATEAVG
000367: 15,2624           55703                           TS       RREL                                  #  YAWDOT = R TCDU/180
000368:
000369:                                                                                                  #  ROLLDOT:  P TCDU/180 = CDOT TCDU/180 + IDOT TCDU/180 SINM
000370:
000371: 15,2625           31663                           CA       AMG
000372: 15,2626           04770                           TC       SPSIN
000373: 15,2627           55510                           TS       SINM
000374:
000375: 15,2630           00006                           EXTEND
000376: 15,2631           71676                           MP       -DELAIG
000377: 15,2632           55720                           TS       JETEM
000378: 15,2633           34714                           CA       ZERO
000379: 15,2634           20001                           DDOUBL                                         #  ROUND L INTO A
000380: 15,2635           61675                           AD       -DELAOG
000381: 15,2636           61720                           AD       JETEM
000382: 15,2637           40000                           CS       A
000383: 15,2640           55720                           TS       JETEM
000384: 15,2641           57706                           XCH      OLDELP
000385: 15,2642           02550                           TC       RATEAVG
000386: 15,2643           55701                           TS       PREL                                  #  ROLLDOT = P TCDU/180
000387:
000388:                                                                                                  #  IF GAMDOT < 0.5 DEG/SEC, THEN GAMDOT =0
000389:
000390: 15,2644           11723                           CCS      GAMDOT
000391: 15,2645           02647                           TC       +2
000392: 15,2646           02671                           TC       NOGAMDUT
000393: 15,2647           41664                           CS       ROLL/180
000394: 15,2650           04770                           TC       SPSIN
000395: 15,2651           00006                           EXTEND
000396: 15,2652           71723                           MP       GAMDOT
000397: 15,2653           55721                           TS       JETEM      +1                         #  -SR GAMDOT
000398: 15,2654           00006                           EXTEND
000399: 15,2655           73217                           MP       SINTRIM                               #  SIN(-20)      (FOR NOMINAL L/D = .3)
000400: 15,2656           27701                           ADS      PREL                                  #  PREL TCDU/180=(P-SALF SR GAMDOT)TCDU/180
000401:
000402: 15,2657           31664                           CA       ROLL/180
000403: 15,2660           04767                           TC       SPCOS


000405: 15,2661           40000                           COM
000406: 15,2662           00006                           EXTEND
000407: 15,2663           71723                           MP       GAMDOT
000408: 15,2664           27702                           ADS      QREL                                  #  QREL TCDU/180=(Q-CR GAMDOT) TCDU/180
000409:
000410: 15,2665           41721                           CS       JETEM      +1                         #  B( ) = -SR GAMDOT
000411: 15,2666           00006                           EXTEND
000412: 15,2667           73220                           MP       COSTRIM                               #  COS(-20)      (FOR NOMINAL L/D = .3)
000413: 15,2670           27703                           ADS      RREL                                  #  RREL TCDU/180=(R+CALF SR GAMDOT)TCDU/180
000414:
000415: 15,2671           34677        NOGAMDUT           CA       BIT12                                 #  CMDAPARM = 93D BIT 12
000416: 15,2672           70102                           MASK     CM/FLAGS
000417: 15,2673           00006                           EXTEND
000418: 15,2674           15213        STBYDUMP           BZF      TASKOVER                              #  DAP NOT ARMED.
000419:
000420: 15,2675           34672                           CA       POSMAX                                #  PICK UP AT ATTRATES IN 10 MS OR SO.
000421: 15,2676           54030                           TS       TIME5
000422:
000423: 15,2677           00006                           EXTEND
000424: 15,2700           32704                           DCA      ATDOTCAD
000425: 15,2701           53313                           DXCH     T5LOC
000426:                                                                                                  #  DOES NOT PROTECT TEMK, SQ IN SPSIN/COS
000427:
000428: 15,2702           05213                           TC       TASKOVER
000429:
000430: 15,2703  E6,1661                                  EBANK=   AOG
000431: 15,2703           02705 32066  ATDOTCAD           2CADR    ATTRATES
000432:


000434:                                                                                                  #  CALCULATE BODY ATTITUDE RATES AND INTEGRATE TO OBTAIN ATTITUDE ANGLES.
000435:
000436:                                                                                                  #        CB PHIDOT TCDU/180 = (CA PREL + SA RREL) TCDU/180
000437:                                                                                                  #        BETADOT TCDU/180 = (-SA PREL + CA RREL) TCDU/180
000438:                                                                                                  #        ALFADOT TCDU = (QREL + SB PHIDOT) TCDU/180
000439:
000440: 15,2705           22016        ATTRATES           LXCH     BANKRUPT                              #  CONTINUE HERE VIA T5
000441: 15,2706           00006                           EXTEND                                         #  TASK MAY BE SKIPPED AT RESTART.
000442: 15,2707           22012                           QXCH     QRUPT
000443: 15,2710           30021                           CA       SR
000444: 15,2711           60000                           DOUBLE
000445: 15,2712           55623                           TS       CM/SAVE
000446:                                                                                                  #  DOES NOT PROTECT TEMK, SQ IN SPSIN/COS
000447:
000448: 15,2713           31702                           CA       QREL
000449: 15,2714           61665                           AD       ALFA/180
000450: 15,2715           02542                           TC       ANGOVCOR
000451: 15,2716           55665                           TS       ALFA/180
000452: 15,2717           04767                           TC       SPCOS
000453: 15,2720           55506                           TS       CALFA                                 #  CALFA
000454: 15,2721           55705                           TS       PHIDOT
000455:
000456: 15,2722           00006                           EXTEND
000457: 15,2723           71701                           MP       PREL
000458: 15,2724           57705                           XCH      PHIDOT                                #  CA PREL
000459: 15,2725           00006                           EXTEND
000460: 15,2726           71703                           MP       RREL                                  #  CA RREL
000461: 15,2727           55704                           TS       BETADOT
000462:
000463: 15,2730           31665                           CA       ALFA/180
000464: 15,2731           04770                           TC       SPSIN
000465: 15,2732           55507                           TS       SALFA                                 #  SIN(ALFA)
000466:
000467: 15,2733           00006                           EXTEND
000468: 15,2734           71703                           MP       RREL                                  #  SA RREL
000469: 15,2735           27705                           ADS      PHIDOT                                #  CB PHIDOT, SAVED.
000470:
000471: 15,2736           41507                           CS       SALFA
000472: 15,2737           00006                           EXTEND
000473: 15,2740           71701                           MP       PREL
000474: 15,2741           27704                           ADS      BETADOT                               #  SAVE BETADOT TCDU/180
000475: 15,2742           27666                           ADS      BETA/180                              #  BETA DONE.
000476:
000477: 15,2743           04770                           TC       SPSIN
000478: 15,2744           00006                           EXTEND
000479: 15,2745           71705                           MP       PHIDOT                                #  NEGLECT CB IN CB PHIDOT
000480: 15,2746           61665                           AD       ALFA/180
000481: 15,2747           02542                           TC       ANGOVCOR
000482: 15,2750           55665                           TS       ALFA/180                              #  ALFA DONE.


000484: 15,2751           40000                           COM
000485: 15,2752           61603                           AD       ALFACOM
000486: 15,2753           02542                           TC       ANGOVCOR                              #  JUST IN CASE ...
000487: 15,2754           55477                           TS       AK1
000488: 15,2755           55572                           TS       QAXERR                                #  FOR PITCH FDAI AND EDIT.
000489:
000490: 15,2756           31705                           CA       PHIDOT                                #  PHIDOT TCDU/180, NEGLECTING CB
000491: 15,2757           61664                           AD       ROLL/180
000492: 15,2760           02542                           TC       ANGOVCOR
000493: 15,2761           55714                           TS       ROLLTM                                #  ROLL/180 FOR TM.
000494: 15,2762           55664                           TS       ROLL/180                              #  ROLL DONE.
000495:
000496:                                                                                                  #  START YAW AUTOPILOT HERE.  RATE DAMPING WITH ENFORCED COORDINATED ROLL MANEUVER.
000497:
000498: 15,2763           34710                           CA       BIT3                                  #  .05GSW = 102D BIT3    SW=0, LESS .05G
000499: 15,2764           70102                           MASK     CM/FLAGS                              #  SWITCH =1, GREATER THAN .05 G
000500: 15,2765           00006                           EXTEND
000501: 15,2766           13054                           BZF      EXDAP                                 #  IF G LESS THAN .05
000502: 15,2767           44712                           CS       ONE                                   #  IF G GEQ  THAN .05
000503: 15,2770           55700                           TS       CMDAPMOD                              #  SAVE -1 FOR USE IN CM/RCS
000504:
000505: 15,2771           55477                           TS       AK1                                   #  TO ZERO PITCH AND YAW FDAI NEEDLES
000506: 15,2772           55500                           TS       AK2                                   #  IN ATM.  (MODE =-1)
000507:
000508: 15,2773           41701                           CS       PREL                                  #  YAW ERROR = RREL - PREL TAN(ALFA)
000509: 15,2774           00006                           EXTEND
000510: 15,2775           73217                           MP       SINTRIM                               #  LET SIN(-20) BE APPROX FOR TAN(-20)
000511: 15,2776           61703                           AD       RREL
000512: 15,2777           03044                           TC       2D/SDZ                                #  GO TEST DZ.  GET TAG: +0 IF IN DZ
000513: 15,3000           50000                           INDEX    A                                     #  +/- 1 IF NOT
000514: 15,3001           33222                           CAF      YJETCODE
000515:
000516: 15,3002           55720                           TS       JETEM
000517:
000518:                                                                                                  #  START PITCH AUTOPILOT HERE.  RATE DAMPING ONLY.
000519:
000520: 15,3003           31702                           CA       QREL
000521: 15,3004           03044                           TC       2D/SDZ
000522: 15,3005           50000        EXDAPIN            INDEX    A                                     #  COME HERE FROM EX ATM DAP
000523: 15,3006           33225                           CAF      P/RJCODE
000524: 15,3007           27720                           ADS      JETEM                                 #  COMBINE ALL NEW BITS.
000525:
000526: 15,3010           00006                           EXTEND                                         #  DOES NOT REQUIRE SAVING OLD CODES.
000527: 15,3011           01005                           WRITE    PYJETS                                #  SET PYCHAN TO DESIRED BIT CONFIG.
000528:
000529: 15,3012           11711                           CCS      JETAG
000530: 15,3013           03236                           TC       CM/RCS
000531: 15,3014           03716                           TC       CM/FDAI
000532: 15,3015           03723                           TC       CM/FDAIR   -1                         #  (JETAG=-1 EQUIVALENT TO CMDAPMOD=+1)
000533:


000535:                                                                                                  #  DEAD ZONE LOGIC USED BY ENTRY DIGITAL AUTOPILOTS.
000536:
000537: 15,3016           10000        3DDZ               CCS      A                                     #  YAWLIM=1.0-3/180=16384-273=16111
000538: 15,3017           63215                           AD       YAWLIM
000539: 15,3020           13050                           TCF      DZCOM
000540: 15,3021           63215                           AD       YAWLIM
000541: 15,3022           13051                           TCF      DZNOCOM
000542:
000543:                                                                                                  #  BIASED DZ FOR EXT ATM DAP.
000544: 15,3023           55624        BIASEDZ            TS       JETEM2                                #  SAVE RATE/180.  ERROR/180 IS IN L.
000545: 15,3024           10000                           CCS      A                                     #  START ERROR DZ.
000546: 15,3025           43214                           CS       CM/BIAS                               #  = .6/180
000547: 15,3026           13030                           TCF      +2
000548: 15,3027           33214                           CA       CM/BIAS
000549: 15,3030           60001                           AD       L                                     #  BIAS THE ERROR.
000550: 15,3031           22002                           LXCH     Q                                     #  SAVE CALLERS RETURN ADDRESS.
000551: 15,3032           03016                           TC       3DDZ                                  #  GO GENERATE THE ERROR BIT.
000552: 15,3033           52002                           DXCH     L                                     #  BIT TO L, RESTORE CALLERS Q.
000553: 15,3034           11624        4D/SDZ             CCS      JETEM2                                #  CAME HERE IN EXT ATM.  C(L) = ERROR BIT
000554: 15,3035           63212                           AD       4D/SLIM                               #  IF RATE GEQ 4D/S, SET L=0 AND TAKE
000555: 15,3036           13040                           TCF      +2                                    #  JET BITS ACCORDING TO SGN OF RATE.
000556: 15,3037           63212                           AD       4D/SLIM
000557: 15,3040           54000                           TS       A
000558: 15,3041           13043                           TCF      +2                                    #  RATE OK. CONTINUE
000559: 15,3042           22007                           ZL                                             #  RATE GEQ 4 D/S.  OVER RIDE ERROR BIT
000560: 15,3043           57624                           XCH      JETEM2                                #  AND CONTINUE TO GET SIGN.
000561:
000562: 15,3044           10000        2D/SDZ             CCS      A                                     #  COME HERE TO TEST IF A WITHIN 2DEG/S DZ
000563: 15,3045           63213                           AD       YDOTLIM                               #  1.0 - YDOT DZ         (OR PDOT)
000564: 15,3046           13051                           TCF      +3
000565: 15,3047           63213                           AD       YDOTLIM                               #  YDOT DZ = 2 DEG/SEC
000566: 15,3050           40000        DZCOM              COM
000567: 15,3051           55721        DZNOCOM            TS       JETEM      +1                         #  GENERATE TAG, SET C(A)= -+1 OUTSIDE DZ
000568: 15,3052           34714                           CA       ZERO                                  #  SET C(A) = +0 INSIDE
000569: 15,3053           00002                           TC       Q
000570:


000572:                                                                                                  #  EXTRA ATMOSPHERIC DIGITAL AUTOPILOT
000573:
000574:                                                                                                  #  1.    IF ABS(CALF) -C(45) POS, USE                    IF CALFA POS, CMDAPMOD= +0
000575:                                                                                                  #        BETA:   YAW ERROR = SGN(CALF) (BETACOM -BETA)   IF CALFA NEG, CMDAPMOD= -0
000576:                                                                                                  #                     RATE = BETADOT                     IF CMDAPMOD = -0, RATE = RREL
000577:                                                                                                  #                   R-AXIS = CONTROL
000578:
000579:                                                                                                  #        ROLL:  ROLL ERROR = SGN(CALF) (ROLLC - ROLL)    IF CMDAPMOD = -0, RATE DAMP ONLY.
000580:                                                                                                  #                     RATE = PREL
000581:                                                                                                  #                   P-AXIS = CONTROL
000582:
000583:                                                                                                  #  2.    IF C(45) GEQ CALFA GEQ -C(45), USE              CMDAPMOD = +1
000584:                                                                                                  #        BETA:  ROLL ERROR = SGN(-SALF) (BETACOM -BETA)
000585:                                                                                                  #                     RATE = BETADOT
000586:                                                                                                  #                   P-AXIS = CONTROL
000587:
000588:                                                                                                  #        ROLL:   YAW ERROR = SGN(SALF) (ROLLC - ROLL)    RATE DAMP ONLY.
000589:                                                                                                  #                     RATE = RREL
000590:                                                                                                  #                   R-AXIS = CONTROL
000591:
000592:                                                                                                  #  3.    FOR ALL CASES, USE
000593:                                                                                                  #        ALFA: PITCH ERROR = (ALFACOM - ALFA)
000594:                                                                                                  #                     RATE = QREL
000595:                                                                                                  #                   Q-AXIS = CONTROL
000596:
000597: 15,3054           55700        EXDAP              TS       CMDAPMOD                              #  +0 FOR NOW
000598: 15,3055           41666                           CS       BETA/180
000599: 15,3056           61604                           AD       BETACOM
000600: 15,3057           55721                           TS       JETEM      +1                         #  PRESERVE THIS FOR A WHILE.
000601:
000602: 15,3060           11506                           CCS      CALFA
000603: 15,3061           63216                           AD       C45LIM                                #  =1.0-COS(45)
000604: 15,3062           13064                           TCF      +2
000605: 15,3063           63216                           AD       C45LIM
000606: 15,3064           54000                           TS       A
000607: 15,3065           13146                           TCF      EXDAP2                                #  HERE IF ABS(CALFA) L COS(45)
000608:
000609: 15,3066           11506                           CCS      CALFA                                 #  |CALFA| > 0.707
000610: 15,3067           13070                           TCF      +1                                    #  CONTINUE IF POS
000611:
000612: 15,3070           11727                           CCS      P63FLAG                               #  VALID VALUES ARE:  -1, +1, +0.
000613: 15,3071           03104                           TC       EXDAP4
000614: 15,3072           03074                           TC       +2
000615: 15,3073           03104                           TC       EXDAP4
000616: 15,3074           05301                           TC       PHASCHNG                              #  SINGLE PASS THROUGH HERE.
000617: 15,3075           40334                           OCT      40334
000618: 15,3076           44712                           CS       ONE
000619: 15,3077           55727                           TS       P63FLAG                               #  SET FLAG TO ASSURE SINGLE PASS.
000620:


000622: 15,3100           33211                           CA       NSEC
000623: 15,3101           05140                           TC       WAITLIST
000624: 15,3102  E6,1661                                  EBANK=   AOG
000625: 15,3102           02374 54066                     2CADR    WAKEP62                               #  CALL TO TERMINATE P62 IN N SEC.
000626:
000627:                                                                                                  #  65 DEG/ 3DEG/SEC = 21 SEC NOMINAL
000628:                                                                                                  #  TRANSIT TIME FROM ALFA=45 TO ALFA TRIM.
000629:
000630: 15,3104           11711        EXDAP4             CCS      JETAG                                 #  ROLLJET INTERFACE TEST BETWEEN .1 SEC
000631: 15,3105           13113                           TCF      EXDAP3                                #  DAP AND THE 2 SEC CM/RCS DAP
000632: 15,3106           13113                           TCF      EXDAP3
000633: 15,3107           34714                           CA       ZERO
000634: 15,3110           00006                           EXTEND                                         #  TURN OFF ROLL JETS IF ON AND WAIT
000635: 15,3111           01006                           WRITE    ROLLJETS                              #  UNTIL START OF 2 SEC CM/RCS CYCLE
000636: 15,3112           55711                           TS       JETAG                                 #  RESTORE PROPER VALUE +0
000637:
000638:                                                                                                  #  ROLL FDAI WILL BE IN ERROR UNTIL NEXT CM/RCS CALL.
000639: 15,3113           11506        EXDAP3             CCS      CALFA                                 #  HERE IF ABS(CALFA) GEQ COS(45)
000640: 15,3114           31721                           CA       JETEM      +1
000641: 15,3115           13121                           TCF      EXDAP1
000642: 15,3116           44714                           CS       ZERO
000643: 15,3117           55700                           TS       CMDAPMOD                              #  FOR CM/RCS
000644: 15,3120           41721                           CS       JETEM      +1
000645: 15,3121           55573        EXDAP1             TS       RAXERR                                #  FOR YAW FDAI
000646: 15,3122           55500                           TS       AK2                                   #  WANT RAXERR FOR TM.
000647: 15,3123           54001                           TS       L
000648: 15,3124           11700                           CCS      CMDAPMOD                              #  COORDINATE BETA CONTROL.
000649: 15,3125           03130                           TC       +3                                    #  C(CMDAPMOD) CAN BE +1, +0, OR -0.
000650: 15,3126           34712                           CA       ONE                                   #  USE BETADOT TO COORD IN MODE +0
000651: 15,3127           50000                           INDEX    A                                     #  OTHERWISE USE RREL.
000652: 15,3130           31703                           CA       RREL
000653: 15,3131           03023                           TC       BIASEDZ                               #  GO TEST DZ. +0 IF IN DZ, +-1 OTHERWISE
000654:                                                                                                  #  IF GEQ 4D/S, SET ERROR BIT IN L=0)
000655: 15,3132           00006                           EXTEND
000656: 15,3133           04001                           ROR      LCHAN                                 #  L HAS BETA BIT
000657: 15,3134           50000                           INDEX    A
000658: 15,3135           33222                           CAF      YJETCODE
000659: 15,3136           55720                           TS       JETEM
000660:
000661: 15,3137           31572                           CA       QAXERR                                #  ALFA ERROR.
000662: 15,3140           54001                           TS       L
000663: 15,3141           31702                           CA       QREL                                  #  FOR ALFADOT USE QREL
000664: 15,3142           03023                           TC       BIASEDZ
000665: 15,3143           00006                           EXTEND
000666: 15,3144           04001                           ROR      LCHAN
000667: 15,3145           13005                           TCF      EXDAPIN                               #  CONTINUE ON IN DAP
000668:
000669: 15,3146           25700        EXDAP2             INCR     CMDAPMOD                              #  SET CMDAPMOD TO +1
000670:
000671: 15,3147           44712                           CS       ONE                                   #  INDICATE CHANGE FROM .1 SEC UPDATE TO
000672:


000674: 15,3150           55711                           TS       JETAG                                 #  TO 2 SEC FOR ROLL JETS.  (IF CMDAPMOD
000675:                                                                                                  #  =0 AND JETAG =-1, QUENCHES JETS IF ON)
000676:
000677: 15,3151           11727                           CCS      P63FLAG                               #  IF FLAG WAS +1, SET =0.
000678: 15,3152           55727                           TS       P63FLAG
000679: 15,3153           13154                           NOOP
000680:
000681: 15,3154           11507                           CCS      SALFA                                 #  BETA CONTROL WITH P JETS
000682: 15,3155           41721                           CS       JETEM      +1
000683: 15,3156           13160                           TCF      +2
000684: 15,3157           31721                           CA       JETEM      +1
000685: 15,3160           55713                           TS       PAXERR1                               #  TEMP SAVE.  ERROR/180
000686: 15,3161           00006                           EXTEND
000687: 15,3162           74675                           MP       HALF                                  #  CM/FDAI EXPECTS ERROR/360.
000688: 15,3163           57713                           XCH      PAXERR1                               #  ERROR/360 FOR FDAI, GET ERROR/180.
000689: 15,3164           54001                           TS       L
000690: 15,3165           11507                           CCS      SALFA
000691: 15,3166           41704                           CS       BETADOT                               #  USE BETADOT TO COORD IN MODE +1
000692: 15,3167           03171                           TC       +2
000693: 15,3170           31704                           CA       BETADOT
000694: 15,3171           03023                           TC       BIASEDZ
000695: 15,3172           00006                           EXTEND
000696: 15,3173           04001                           ROR      LCHAN
000697: 15,3174           50000                           INDEX    A
000698: 15,3175           33225                           CAF      P/RJCODE                              #  GET ROLL CODE
000699: 15,3176           00006                           EXTEND                                         #  ROLL CONTROL WITH YAW JETS.
000700: 15,3177           01006                           WRITE    ROLLJETS                              #  WE,LL SKIP REGULAR ROLL SYST
000701:
000702: 15,3200           31717                           CA       ROLLHOLD                              #  ROLL/180 AT CM/DAPON TIME.
000703: 15,3201           00006                           EXTEND
000704: 15,3202           21664                           MSU      ROLL/180                              #  1,S COMPL, BUT SO WHATS A BIT.?
000705: 15,3203           54001                           TS       L                                     #  FORCE A LIMIT CYCLE IN YAW RATE.
000706: 15,3204           11507                           CCS      SALFA
000707: 15,3205           30001                           CA       L                                     #  TO REMOVE ITS BIASING EFFECT ON M DOT.
000708: 15,3206           03121                           TC       EXDAP1
000709: 15,3207           40001                           CS       L
000710: 15,3210           03121                           TC       EXDAP1
000711:
000712: 15,3211           04064        NSEC               DEC      2100       B-14                       #  65 DEG/ 3 DEG/SEC
000713:                                                                                                  #  IF NSEC IS CHANGED, REMEMBER TO CHANGE 4.33SPOT.
000714: 15,3212           37734        4D/SLIM            DEC      16348      B-14                       #  1.0 -4/180 D/S = 4/1800 EXP 14
000715: 15,3213           37756        YDOTLIM            DEC      16366      B-14                       #  =1.0 - YDOT DZ= 16384 -18
000716:                                                                                                  #  YDOT DZ = YDOT TCDU/180 = 2/1800 EXP 14
000717:
000718: 15,3214           00067        CM/BIAS            DEC      55         B-14                       #  =.6/180 B14 = 55
000719: 15,3215           37267        YAWLIM             DEC      16055      B-14                       #  YAWLIM=1.0-3.6/180=16384-329=16055
000720: 15,3216           11277        C45LIM             DEC      .29289                                #  =1.0-COS(45)
000721:
000722: 15,3217           65033        SINTRIM            DEC      -.34202                               #  SIN(-20)      (FOR NOMINAL L/D = .3)
000723: 15,3220           36044        COSTRIM            DEC      .93969                                #  COS(-20)      (FOR NOMINAL L/D = .3)
000724:


000726:                                                                                                  #  TO MAKE DAP INSENSITIVE TO PITCH ERRORS DUE TO ACCUMULATED NAV ERRORS, USE NOMINAL VALUE (-20 DEG) FOR TRIM ALFA
000727:                                                                                                  #  USED DURING ATMOSPHERIC COORDINATION.  OUTSIDE ATMOSPHERE, NAV ERRORS WILL BE SLIGHT, BUT ALFA CAN DIFFER GREATLY
000728:                                                                                                  #  FROM TRIM, SO USE ON-BOARD ESTIMATES.
000729:
000730:                                                                                                  #  JET CODE TABLES FOLLOW
000731:
000732: 15,3221           00120                           OCTAL    00120                                 #  POS Y
000733: 15,3222           00000        YJETCODE           OCTAL    00000                                 #  RCS JET BITS
000734: 15,3223           00240                           OCTAL    00240                                 #  NEG Y
000735: 15,3224           00005                           OCTAL    00005                                 #  POS R JET BITS        ALSO POS P JET BITS
000736: 15,3225           00000        P/RJCODE           OCTAL    00000
000737: 15,3226           00012                           OCTAL    00012                                 #  NEG R                 ALSO NEG P
000738:


000740:                                                                                                  #  RCS           THIS SECTION IS ENTERED EACH 2 SEC BY WAITLIST CALL FOLLOWING A DELAY OF 1.2 SEC AFTER PIPUP.
000741:                                                                                                  #  THE TASK  SETJTAG  SETS A FLAG IN  JETAG  TO SIGNIFY THAT ROLL UPDATE IS DUE.  IN ROUGHLY 5 CS  BPDYRATE  WILL BE
000742:                                                                                                  #  EXECUTED AND JETAG WILL CAUSE  CM/RCS  TO ACT ON ROLLC IMMEDIATELY THEREAFTER.  THE
000743:                                                                                                  #  TASK SAVES THE CALL TIME SO THAT CM/RCS CAN DETERMINE HOW MUCH OF THE 2 SEC INTERVAL REMAINS BEFORE THE
000744:                                                                                                  #  NEXT UPDATE.
000745:
000746: 15,3227           40025        SETJTAG            CS       TIME1                                 #  SAVE NOMINAL UPDATE TIME FOR SYNCH
000747: 15,3230           55712                           TS       TUSED
000748:                                                                                                  #  THE 5 CS APPEARS IN TIMETST.
000749: 15,3231           34712                           CA       ONE                                   #  RATHER THAN INCR, FOR SAFETY
000750: 15,3232           55711                           TS       JETAG                                 #  SET JETAG=1 TO CAUSE CM/RCS TO BE
000751: 15,3233           05301                           TC       PHASCHNG
000752: 15,3234           00001                           OCT      00001
000753:
000754: 15,3235           05213                           TC       TASKOVER                              #  EXECUTED AFTER NEXT BODYRATE UPDATE
000755:
000756:                                                                                                  #  PREDICTIVE ROLL SYSTEM        ENTRY STEERING PROVIDES ROLL COMMAND IN LOC ROLLC.  THE FOLLOWING CALCULATES THE
000757:                                                                                                  #  TRAJECTORY TO THE ORIGIN IN PHASE PLANE (X,V).  PROGRAM ENTERS JET ON AND OFF CALLS INTO WTLST TO PRODUCE
000758:                                                                                                  #  THE DESIRED TRAJECTORY.  ONLY THOSE CALLS WHICH CAN BE EXECUTED WITHIN THE INTERVAL  T  (2SEC) ARE ENTERED IN
000759:                                                                                                  #  WTLST, THE REMAINDER ARE RECONSIDERED AT NEXT UPDATE.
000760:
000761: 15,3236     4674               HALFPR             EQUALS   NEG1/2     +1
000762:
000763:                                                                                                  #  CLEAR JETAG BEFORE TIMETST.  SET TO +0 TO SHOW
000764:                                                                                                  #  ROLL DAP CALLED.  IN EVENT OF RESTART, BODYRATE
000765:                                                                                                  #  MAY MISS A CYCLE.  CM/RCS WILL MISS A CYCLE ONLY
000766:                                                                                                  #  IF A RESTART OCCURS AFTER TIMETST COMMENCES.
000767:
000768: 15,3236           44712        CM/RCS             CS       ONE
000769: 15,3237           55617                           TS       JNDX                                  #  SET NDX FOR POS ROLL, AND CHANGE LATER
000770:
000771: 15,3240           44726                           CS       2T/TCDU                               #  ROLLDOT = DELAOG + DELAIG SINM =DELR
000772: 15,3241           00006                           EXTEND
000773: 15,3242           71701                           MP       PREL                                  #  DELR/180 = RDOT TCDU/180 = RDOT/1800
000774: 15,3243           60001                           AD       L                                     #  -2 RDOT T/180 IN L
000775: 15,3244           55613                           TS       -VT/180                               #  SAVE -2VT/180 HERE
000776:
000777: 15,3245           41664                           CS       ROLL/180
000778: 15,3246           54021                           TS       SR                                    #  SAVE (-R/180) /2
000779:
000780: 15,3247           40102                           CS       CM/FLAGS
000781: 15,3250           74707                           MASK     BIT4                                  #  LATSW = 101D BIT4
000782: 15,3251           00006                           EXTEND                                         #  ROLL OVER TOP $
000783: 15,3252           13260                           BZF      GETLCX                                #  NO, TAKE SHORTEST PATH
000784: 15,3253           26102                           ADS      CM/FLAGS                              #  YES, ENFORCE ROLL OVER TOP.. (BIT =0)
000785: 15,3254           31715                           CA       ROLLC                                 #  (ROLLC/180) /2
000786: 15,3255           60021                           AD       SR                                    #  -(R/180) /2
000787: 15,3256           57614                           XCH      LCX/360                               #  DIFFERENT X REQD HERE.  DISCONT AT 180.
000788: 15,3257           13320                           TCF      COMPAT                                #  POSSIBLE OVFL ABOVE.
000789:


000791: 15,3260           34675        GETLCX             CA       POS1/2                                #  FORM RCOM/360
000792: 15,3261           60000                           DOUBLE
000793: 15,3262           61715                           AD       ROLLC
000794: 15,3263           57614                           XCH      LCX/360                               #  IGNORE POSSIBLE OVFL.
000795:
000796: 15,3264           30021                           CA       SR                                    #  FORM -R/360
000797: 15,3265           64673                           AD       NEG1/2
000798: 15,3266           64673                           AD       NEG1/2                                #  IGNORE OVFL
000799: 15,3267           57614                           XCH      LCX/360                               #  -R/360
000800: 15,3270           27614                           ADS      LCX/360                               #  LCX/360 = RCOM/360 - R/360  RANGE (-1,1)
000801:
000802:                                                                                                  #  DOES SGN(-VT) (VT/180) (VT/180) (180/(4 A1 TT COSALFA)) + X/360 + SGN(X) / 2          OVFL ?
000803:
000804: 15,3271           11613                           CCS      -VT/180                               #  TAKE SHORTEST ANGULAR PATH
000805: 15,3272           64712                           AD       ONE                                   #  (BASED ON SINGLE JET ACCELERATION)
000806: 15,3273           13275                           TCF      +2
000807: 15,3274           64712                           AD       ONE
000808: 15,3275           00006                           EXTEND
000809: 15,3276           71613                           MP       -VT/180                               #  C(-VT/180) = -2 VT/180
000810: 15,3277           00006                           EXTEND
000811: 15,3300           73767                           MP       1/16A1                                #  = 180/(16 A1 TT)
000812: 15,3301           00006                           EXTEND
000813: 15,3302           11506                           DV       CALFA
000814: 15,3303           54001                           TS       L
000815: 15,3304           11614                           CCS      LCX/360
000816: 15,3305           34675                           CAF      POS1/2
000817: 15,3306           13310                           TCF      +2
000818: 15,3307           44675                           CS       POS1/2
000819: 15,3310           61614                           AD       LCX/360                               #  IS LCX/360 LESS THAN 180 DEG $
000820: 15,3311           60001                           AD       L
000821: 15,3312           54001                           TS       L
000822: 15,3313           13320                           TCF      COMPAT                                #  YES, GO ON.
000823: 15,3314           50000        TRTAGXPI           INDEX    A                                     #  NO, SHIFT X BY - SGN(X) 2 PI
000824: 15,3315           44674                           CS       HALFPR                                #  +A YIELDS -1/2
000825: 15,3316           60000                           DOUBLE
000826: 15,3317           27614                           ADS      LCX/360
000827:
000828: 15,3320           31614        COMPAT             CA       LCX/360                               #  CORRECT FOR ASSUMED COORD TURN.
000829: 15,3321           00006                           EXTEND
000830: 15,3322           71506                           MP       CALFA                                 #  COS ALFA
000831: 15,3323           55614                           TS       LCX/360                               #  SCALED LCX OK HERE.
000832:
000833: 15,3324           11700                           CCS      CMDAPMOD                              #  FOUR POSSIBILITIES HERE
000834: 15,3325           03714                           TC       DZCALL1                               #  EXIT, SETTING JETAG=0. (C(A)=0)
000835:                                                                                                  #  ALL 3 AXES ALREADY DONE.
000836: 15,3326           03327                           TC       +1                                    #  G LESS THAN .05.  CA POS. CONTINUE
000837: 15,3327           31614                           CA       LCX/360                               #  G GEQ .05.  CONTINUE IN CM/RCS
000838: 15,3330           55614                           TS       LCX/360                               #  CMDAPMOD=-0.  DAMPING ONLY. SET LCX=0
000839: 15,3331           55713                           TS       PAXERR1                               #  SAVE LCX FOR FDAI AND EDIT.  (/360)


000841: 15,3332           31613                           CA       -VT/180                               #  GET - 2 VT/180
000842: 15,3333           54021                           TS       SR
000843: 15,3334           30021                           CA       SR                                    #  GET -VT/180, LEAVE -VT/360 IN SR FOR DZ
000844: 15,3335           55570                           TS       -VT/180E                              #                        DIAGNOSTIC ****
000845: 15,3336           57613                           XCH      -VT/180                               #  NOW CONTENTS OF -VT/180 AS LABELED
000846: 15,3337           00006                           EXTEND
000847: 15,3340           71613                           MP       -VT/180                               #  B(A) = -2VT/180
000848: 15,3341           00006                           EXTEND
000849: 15,3342           73767                           MP       180/8ATT
000850: 15,3343           55616                           TS       VSQ/4API
000851:
000852:                                                                                                  #  IS SGN(VT) ( (180/4A1 TT) VT/180 VT/180 - .5 BUFLIM/360 ) -X/360 -.5 BUFLIM/360       POS?
000853:
000854: 15,3344           60000        WHICHALF           DOUBLE                                         #  FOR SECOND BURN, A1
000855: 15,3345           40000                           COM
000856: 15,3346           63773                           AD       BUFLIM                                #  =BUFLIM/(2 360)
000857: 15,3347           54001                           TS       L
000858: 15,3350           11613                           CCS      -VT/180
000859: 15,3351           40001                           CS       L
000860: 15,3352           13354                           TCF      +2
000861: 15,3353           30001                           CA       L
000862: 15,3354           61614                           AD       LCX/360
000863: 15,3355           63773                           AD       BUFLIM
000864: 15,3356           00006                           EXTEND
000865: 15,3357           63374                           BZMF     REFLECT                               #  POINT (X,V) IN LHP.
000866:
000867:                                                                                                  #  IS SGN(VT) ( (180/4A1 TT) VT/180 VT/180 - .5 BUFLIM/360 ) -X/360 + .5 BUFLIM/360      NEG?
000868:
000869: 15,3360           40000                           COM
000870: 15,3361           63773                           AD       BUFLIM
000871: 15,3362           63773                           AD       BUFLIM
000872: 15,3363           00006                           EXTEND
000873: 15,3364           63403                           BZMF     DZ1                                   #  POINT (X,V) IN RHP.
000874:
000875:                                                                                                  #  IS POINT WITHIN VELOCITY DZ?
000876:
000877: 15,3365           43766                           CS       VSQMIN                                #  IS VSQ/4API - (VSQ/4API) MIN NEG?
000878: 15,3366           61616                           AD       VSQ/4API
000879: 15,3367           00006                           EXTEND
000880: 15,3370           63676                           BZMF     DZCALL                                #  YES.
000881:
000882:                                                                                                  #  POINT IS IN BUFFER ZONE.  THRUST TO X AXIS.
000883:
000884: 15,3371           41617                           CS       JNDX
000885: 15,3372           55620                           TS       JNDX1
000886: 15,3373           03456                           TC       OVRLINE1
000887:
000888: 15,3374           41613        REFLECT            CS       -VT/180                               #  REFLECT LHP INTO RHP REL TO TERM CONTR
000889: 15,3375           55613                           TS       -VT/180
000890: 15,3376           54021                           TS       SR                                    #  -VT/360 SAVED FOR DZ.


000892: 15,3377           41614                           CS       LCX/360
000893: 15,3400           55614                           TS       LCX/360
000894: 15,3401           41617                           CS       JNDX
000895: 15,3402           55617                           TS       JNDX
000896:
000897:                                                                                                  #  IS VSQ/4API - (VSQ/4API) MIN NEG $
000898:
000899: 15,3403           43766        DZ1                CS       VSQMIN                                #  IS VSQ/4API - (VSQ/4API) MIN NEG $
000900: 15,3404           61616                           AD       VSQ/4API
000901: 15,3405           00006                           EXTEND
000902: 15,3406           63410                           BZMF     DZ2                                   #  YES, GO TEST FURTHER.
000903: 15,3407           13415                           TCF      MAXVTEST                              #  NO
000904:
000905:                                                                                                  #  IS X/360 - XMIN/360 -VT/360 NEG $
000906:
000907: 15,3410           43771        DZ2                CS       XMIN/360                              #  XMIN/360 = 4/360
000908: 15,3411           61614                           AD       LCX/360
000909: 15,3412           60021                           AD       SR                                    #  C(SR) = -VT/360
000910: 15,3413           00006                           EXTEND                                         #  IS X/360 - XMIN/360 -VT/360 NEG $
000911: 15,3414           63676                           BZMF     DZCALL                                #  YES, IN DZ.  EXIT SETTING JETAG=0.
000912:
000913:                                                                                                  #  IS XD/360 - VM/360K - XS/360 POS?
000914:
000915: 15,3415           41617        MAXVTEST           CS       JNDX
000916: 15,3416           55620                           TS       JNDX1                                 #  NOW CAN SET JNDX1 FOR TON2 JETS.
000917: 15,3417           43773                           CS       XS/360                                #  XS/360 = (XMIN -YMIN/K) /360
000918: 15,3420           61616                           AD       VSQ/4API
000919: 15,3421           61614                           AD       LCX/360
000920: 15,3422           55615                           TS       XD/360                                #  XD/360= X/360 +VSQ/4API   X INTERCEPT
000921:                                                                                                  #  BUT C(XD/360) = (XD - XS) /360
000922: 15,3423           63772                           AD       -VM/360K                              #  X INTERCEPT FOR MAX V (VM)
000923: 15,3424           40000                           COM
000924: 15,3425           00006                           EXTEND
000925: 15,3426           63434                           BZMF     MAXVTIM1                              #  YES, THRUST TO VM
000926: 15,3427           31615                           CA       XD/360
000927: 15,3430           00006                           EXTEND
000928: 15,3431           74675                           MP       KTRCS
000929: 15,3432           20001                           DDOUBL                                         #  GO SAVE PREDICTED DRIFTING VELOCITY.
000930:
000931: 15,3433           03437                           TC       GETON1                                #  INSURE THAT Q IS POS AS TAG.
000932: 15,3434           00006        MAXVTIM1           EXTEND
000933: 15,3435           22007                           ZQ                                             #  SET +0 AS TAG
000934: 15,3436           43772                           CS       -VMT/180
000935: 15,3437           55567        GETON1             TS       VDT/180                               #  VDT/180 OR VMT/180.
000936: 15,3440           61613                           AD       -VT/180
000937: 15,3441           60000                           DOUBLE
000938: 15,3442           00006                           EXTEND
000939: 15,3443           73767                           MP       180/8ATT
000940: 15,3444           55621                           TS       TON1                                  #  TON1 / 4T


000942: 15,3445           00006                           EXTEND
000943: 15,3446           63450                           BZMF     OVRLINE
000944: 15,3447           03462                           TC       GETON2                                #  RESET Q POS IF CAME FROM MAXVTIM1
000945:
000946: 15,3450           10002        OVRLINE            CCS      Q
000947: 15,3451           13456                           TCF      OVRLINE1
000948: 15,3452           31620        MAXVTIM2           CA       JNDX1                                 #  ABOVE VM, SO THRUST DOWN
000949: 15,3453           55617                           TS       JNDX
000950: 15,3454           41621                           CS       TON1
000951: 15,3455           13461                           TCF      OVRLINE2   +1
000952:
000953: 15,3456           41613        OVRLINE1           CS       -VT/180                               #  DRIFT AT V
000954: 15,3457           55567                           TS       VDT/180
000955: 15,3460           34714        OVRLINE2           CA       ZERO
000956: 15,3461           55621                           TS       TON1
000957: 15,3462           31567        GETON2             CA       VDT/180                               #  VDT/180, OR VMT/180 OR VT/180
000958: 15,3463           60000                           DOUBLE
000959: 15,3464           00006                           EXTEND
000960: 15,3465           73767                           MP       180/8ATT
000961: 15,3466           60000                           DOUBLE                                         #  FOR SECOND BURN, A1
000962: 15,3467           55607                           TS       TON2                                  #  = TON2 / 4T
000963:
000964: 15,3470           40000                           COM
000965: 15,3471           00006                           EXTEND
000966: 15,3472           63476                           BZMF     GETOFF
000967: 15,3473           55607                           TS       TON2
000968: 15,3474           31617                           CA       JNDX
000969: 15,3475           55620                           TS       JNDX1
000970:
000971: 15,3476           41607        GETOFF             CS       TON2                                  #  TON2 / 4T
000972: 15,3477           00006                           EXTEND
000973: 15,3500           71567                           MP       VDT/180                               #  VDT/180, OR VT/180, OR VMT/180.
000974: 15,3501           55615                           TS       XD/360                                #  USE AS TEMP
000975: 15,3502           41567                           CS       VDT/180
000976: 15,3503           00006                           EXTEND
000977: 15,3504           13520                           BZF      TOFFOVFL                              #  OMIT THE DIVIDE IF DEN = 0.
000978: 15,3505           61613                           AD       -VT/180
000979: 15,3506           00006                           EXTEND
000980: 15,3507           71621                           MP       TON1                                  #  TON1 /4T
000981: 15,3510           61615                           AD       XD/360                                #  TEMP = -VDT/180 / 2 TON2
000982: 15,3511           61614                           AD       LCX/360
000983: 15,3512           22007                           ZL
000984: 15,3513           56001                           XCH      L                                     #  TEST THE DIVIDE
000985: 15,3514           00006                           EXTEND
000986: 15,3515           11567                           DV       VDT/180
000987: 15,3516           00006                           EXTEND
000988: 15,3517           13522                           BZF      GETOFF2                               #  DIVIDE OK
000989:
000990: 15,3520           34740        TOFFOVFL           CA       2JETT                                 #  OVFL, USE  2T  FOR CONVENIENCE.
000991: 15,3521           13527                           TCF      TIMSCAL
000992:


000994: 15,3522           56001        GETOFF2            XCH      L                                     #  GET NUMERATOR.
000995: 15,3523           00006                           EXTEND
000996: 15,3524           11567                           DV       VDT/180                               #  C(A) = TOFF / 2T
000997: 15,3525           00006                           EXTEND
000998: 15,3526           74740                           MP       2JETT
000999: 15,3527           55605        TIMSCAL            TS       TOFF                                  #  IN CS
001000:
001001: 15,3530           33770                           CAF      4JETT
001002: 15,3531           00006                           EXTEND
001003: 15,3532           71621                           MP       TON1                                  #  C(TON1) = TON1 / 4T
001004: 15,3533           55621                           TS       TON1                                  #  IN CS
001005:
001006: 15,3534           33770                           CAF      4JETT
001007: 15,3535           00006                           EXTEND
001008: 15,3536           71607                           MP       TON2                                  #  C(TON2) = TON2 / 4T
001009: 15,3537           55607                           TS       TON2                                  #  IN CS
001010:
001011: 15,3540           34714                           CA       ZERO                                  #  CANNOT REDO AFTER TIMETST.  TUSED GONE
001012: 15,3541           55711                           TS       JETAG                                 #  SET +0 TO SHOW ROLL DAP CALLED.
001013:
001014:                                                                                                  #  CAUSE THE TM OF BODY RATES VIA UPBUFF TO BE
001015:                                                                                                  #  INITIALIZED.  ALSO CAUSE NEEDLES TO BE DONE ON NEXT
001016:                                                                                                  #  AND ON ALTERNATE PASSES THROUGH CM/DUMPR.
001017:
001018: 15,3542           34712                           CA       ONE
001019: 15,3543           54305                           TS       SW/NDX
001020:


001022:                                                                                                  #  TIMETEST SECTION FOR RCS
001023:
001024:                                                                                                  #  ENTER WITH THREE TIME INTERVALS AND THE CORRESPONDING JET CODE INDEXES IN ERASEABLE LOCS TON1, TOFF, TON2, JNDX
001025:                                                                                                  #  JNDX1.  SECTION PROCESSES TIME INTERVALS FOR WTLST CALLS AND ASSURES THAT WTLST CALLS ARE MADE ONLY
001026:                                                                                                  #  (1) FOR POS INTERVALS GREATER THAN A SPECIFIED MINIMUM (HERE CHOSEN AS 2 CS) AND
001027:                                                                                                  #  (2) FOR THE INTERVALS THAT WILL BE EXECUTED WITHIN THE TIME REMAINING IN THE SAMPLE INTERVAL T (2 SEC).
001028:                                                                                                  #  TIMETST ESTABLISHES 6 LOCS CONTAINING JET CODES AND CORRESPONDING TIME INTERVALS.  THUS:  TON1, T1BITS,
001029:                                                                                                  #  TOFF, TBITS, TON2, T2BITS.  OF THESE THE FIRST 2 LOCS ARE TEMPORARY, FOR IMMEDIATE ACTION, IN GENERAL.
001030:                                                                                                  #  SECTION JETCALL BELOW PROCESSES THIS LIST.
001031:
001032: 15,3544           30025        TIMETST            CA       TIME1                                 #  CORRECT FOR POSSIBLE TIME1 OVFL.
001033: 15,3545           64675                           AD       POS1/2
001034: 15,3546           64675                           AD       POS1/2                                #  OVFL GUARANTEED.
001035: 15,3547           27712                           ADS      TUSED                                 #  B(TUSED) =-TUSED =-OLTIME1
001036:
001037: 15,3550           33765                           CA       -T-3                                  #  =-T +2 -5 (SEE SETJTAG)
001038:                                                                                                  #  THE +2 REQUIRED FOR PROPER BRANCH.
001039: 15,3551           27712                           ADS      TUSED                                 #  TUSED = TIME(K)-TIME(K-1)-T+2
001040:
001041: 15,3552           44711                           CS       TWO                                   #  USE 2 SINCE TIME3 UNCERTAIN TO 1
001042: 15,3553           61621                           AD       TON1
001043: 15,3554           00006                           EXTEND
001044: 15,3555           63567                           BZMF     TIMETST1
001045: 15,3556           51617                           INDEX    JNDX
001046: 15,3557           33225                           CAF      P/RJCODE
001047: 15,3560           55622                           TS       T1BITS
001048:
001049: 15,3561           31621                           CA       TON1
001050: 15,3562           27712                           ADS      TUSED
001051: 15,3563           00006                           EXTEND
001052: 15,3564           63571                           BZMF     TOFFTEST
001053: 15,3565           34714                           CA       ZERO
001054: 15,3566           13622                           TCF      TIMETST3
001055: 15,3567           44712        TIMETST1           CS       ONE
001056: 15,3570           55621                           TS       TON1
001057: 15,3571           44711        TOFFTEST           CS       TWO
001058: 15,3572           61605                           AD       TOFF
001059: 15,3573           00006                           EXTEND
001060: 15,3574           63603                           BZMF     TIMETST2
001061: 15,3575           31605                           CA       TOFF
001062: 15,3576           27712                           ADS      TUSED
001063: 15,3577           00006                           EXTEND
001064: 15,3600           63605                           BZMF     TON2TEST
001065: 15,3601           34714                           CA       ZERO
001066: 15,3602           13624                           TCF      TIMETST4
001067: 15,3603           44712        TIMETST2           CS       ONE
001068: 15,3604           55605                           TS       TOFF
001069: 15,3605           44711        TON2TEST           CS       TWO
001070: 15,3606           61607                           AD       TON2
001071: 15,3607           00006                           EXTEND
001072: 15,3610           63625                           BZMF     TIMETST5


001074: 15,3611           51620                           INDEX    JNDX1
001075: 15,3612           33225                           CAF      P/RJCODE
001076: 15,3613           55610                           TS       T2BITS
001077: 15,3614           31607                           CA       TON2
001078: 15,3615           27712                           ADS      TUSED
001079: 15,3616           00006                           EXTEND
001080: 15,3617           63627                           BZMF     JETCALL1
001081: 15,3620           34714                           CA       ZERO
001082: 15,3621           13626                           TCF      TIMETST5   +1
001083: 15,3622           55621        TIMETST3           TS       TON1
001084: 15,3623           44712                           CS       ONE
001085: 15,3624           55605        TIMETST4           TS       TOFF
001086: 15,3625           44712        TIMETST5           CS       ONE
001087: 15,3626           55607                           TS       TON2
001088:
001089:                                                                                                  #  SECTION  JETCALL  EXAMINES CONTENTS OF JET TIMES IN LIST, ESTABLISHES WTLST ENTRIES, AND EXECUTES CORRESPONDING
001090:                                                                                                  #  JET CODES.  A POSITIVE NZ NUMBER IN A TIME REGISTER INDICATES THAT A WTLST CALL IS TO BE MADE, AND ITS JET BITS
001091:                                                                                                  #  EXECUTED.  A +0 INDICATES THAT THE TIME INTERVAL DOES NOT APPLY, BUT THE CORRESPONDING JET BITS ARE TO BE
001092:                                                                                                  #  EXECUTED.  A NEG NUMBER INDICATES THAT THE TIME INTERVAL HAS BEEN PROCESSED.  IN EVENT OF +0 OR -1, THE
001093:                                                                                                  #  SUBSEQUENT TIME REGISTER IS EXAMINED FOR POSSIBLE ACTION.  THUS JET BITS TO BE EXECUTED MAY COME FROM MORE
001094:                                                                                                  #  THAN ONE REGISTER.
001095:
001096: 15,3627           34714        JETCALL1           CA       ZERO
001097: 15,3630           55611                           TS       OUTTAG
001098: 15,3631           55612                           TS       NUJET
001099: 15,3632           55606                           TS       TBITS
001100: 15,3633           53622                           DXCH     TON1
001101: 15,3634           10000                           CCS      A
001102: 15,3635           13652                           TCF      JETCALL2                              #  CALL WTLST
001103: 15,3636           23612        JETCALL3           LXCH     NUJET                                 #  WTLST ENTRIES COME HERE FROM JETCALL
001104: 15,3637           44712                           CS       ONE
001105: 15,3640           53606                           DXCH     TOFF
001106: 15,3641           10000                           CCS      A
001107: 15,3642           13652                           TCF      JETCALL2                              #  CALL WTLST
001108: 15,3643           23612                           LXCH     NUJET
001109: 15,3644           44712                           CS       ONE
001110: 15,3645           53610                           DXCH     TON2
001111: 15,3646           10000                           CCS      A
001112: 15,3647           13652                           TCF      JETCALL2                              #  CALL WTLST
001113: 15,3650           23612                           LXCH     NUJET
001114: 15,3651           03661                           TC       JETACTN                               #  C(A) = +0
001115: 15,3652           56001        JETCALL2           XCH      L                                     #  SAVE JET BITS FOR AFTER WTLST CALL
001116: 15,3653           27612                           ADS      NUJET
001117: 15,3654           56001                           XCH      L
001118: 15,3655           64712                           AD       ONE                                   #  RESTORE FOR CCS
001119: 15,3656           05140                           TC       WAITLIST
001120: 15,3657  E6,1661                                  EBANK=   AOG
001121: 15,3657           03667 32066                     2CADR    JETCALL
001122:
001123: 15,3661           31612        JETACTN            CA       NUJET                                 #  COME HERE WHEN DESIRED JET CODE IS KNOWN


001125: 15,3662           00006                           EXTEND                                         #  NO NEED TO SAVE OLD CODES
001126: 15,3663           01006                           WRITE    ROLLJETS                              #  SET RCHAN TO NEW BIT CONFIG.
001127:
001128: 15,3664           11611                           CCS      OUTTAG
001129: 15,3665           05213                           TC       TASKOVER
001130: 15,3666           03724        ROLLDUMP           TC       CM/FDAIR
001131:
001132:                                                                                                  #  EDIT DUMP AT ABOVE LOCATION.
001133:
001134:                                                                                                  #  WAITLIST ENTRIES COME HERE.
001135:
001136: 15,3667           34711        JETCALL            CAF      BIT2                                  #  CM/DSTBY =103D BIT2
001137: 15,3670           55611                           TS       OUTTAG                                #  SIGNIFY WTLST ENTRY
001138: 15,3671           70102                           MASK     CM/FLAGS                              #  IS SYSTEM DISABLED $
001139: 15,3672           00006                           EXTEND
001140: 15,3673           13662                           BZF      JETACTN    +1                         #  YES, QUENCH ROLL JETS, IF ON AND EXIT.
001141: 15,3674           22007                           ZL                                             #  NO, CONTINUE.
001142: 15,3675           13636                           TCF      JETCALL3                              #  C(A) POS, C(L) = +0
001143:
001144:                                                                                                  #  DEAD ZONE ENTRIES COME HERE.
001145:
001146: 15,3676           41700        DZCALL             CS       CMDAPMOD                              #  POSSIBLE VALUES OF CMDAPMOD: -1, +0, -0.
001147: 15,3677           74712                           MASK     BIT1
001148: 15,3700           54001                           TS       L                                     #  C(L)=0 FOR -0
001149:
001150: 15,3701           50000                           INDEX    A                                     #  ERASBLE ORDER:  ROLLTM,ROLLC,ROLLC +1.
001151: 15,3702           31714                           CA       ROLLTM                                #  GET ROLL/180 OR ROLLC (/360).
001152: 15,3703           50001                           INDEX    L
001153: 15,3704           54000                           TS       A                                     #  IF C(L)=1, STORE 'ROLLC' IN 'L'.
001154: 15,3705           60001                           AD       L                                     #  (BOTH MUST BE SCALED DEG/180)
001155: 15,3706           02542                           TC       ANGOVCOR                              #  C(A)=ROLL/180 OR 2 ROLLC  .
001156: 15,3707           55717                           TS       ROLLHOLD                              #  IF CMDAPMOD =-0, SAVE ROLL ANGLE,
001157:                                                                                                  #        OTHERWISE, SAVE ROLL COMMAND.
001158:
001159: 15,3710           34714                           CA       ZERO                                  #  COME HERE IF IN DZ, AND CANCEL JETS.
001160: 15,3711           00006                           EXTEND                                         #  INHINT NOT NEEDED HERE.
001161: 15,3712           01006                           WRITE    ROLLJETS                              #  TURN OFF ALL ROLL JETS.
001162: 15,3713           55567                           TS       VDT/180                               #  SET =0 TO SHOW IN DEAD ZONE.
001163: 15,3714           55711        DZCALL1            TS       JETAG                                 #  COME HERE WITH C(A)=0.
001164: 15,3715           03666                           TC       ROLLDUMP
001165:


001167:                                                                                                  #  CM ENTRY FDAI DISPLAY
001168:
001169:                                                                                                  #  CALCULATE BY INTEGRATION THE ROLL ERROR BETWEEN THE 2 SEC CM/RCS UPDATES.  DISPLAY ATTITUDE ERRORS AS FOLLOWS:
001170:                                                                                                  #        ATM DAP:        DISPLAY ONLY ROLL ATTITUDE ERROR.
001171:                                                                                                  #        EXT ATM DAP:    PRESENT 3 ATTITUDE ERRORS RELATIVE TO THE APPROPRIATE BODY AXES EACH .1 SEC.
001172:                                                                                                  #                                ROLL    ROLLC-ROLL
001173:                                                                                                  #                                PITCH   ALFAC-ALFA
001174:                                                                                                  #                                YAW     BETAC-BETA
001175:
001176:                                                                                                  #  DURING ENTRY, THE FDAI NEEDLES HAVE FULL SCALE OF 67.5 DEG IN ROLL AND 16.875 DEG IN PITCH AND YAW.
001177:                                                                                                  #  THE SUBROUTINE  NEEDLER  EXPECTS (ANGLE/180) AND SCALES TO 16.875 DEG FULL SCALE.
001178:
001179:                                                                                                  #  COME HERE EACH .1 SEC.  (CMDAPMOD=+1 COMES BELOW)
001180: 15,3716           41705        CM/FDAI            CS       PHIDOT                                #  INTEGRATE ROLL ERROR 'TWEEN 2SEC UPDATES
001181: 15,3717           00006                           EXTEND
001182: 15,3720           71506                           MP       CALFA                                 #  FOR ASSUMED COORDINATION.
001183: 15,3721           00006                           EXTEND
001184: 15,3722           74675                           MP       HALF
001185: 15,3723           27713                           ADS      PAXERR1                               #  ROLL ERROR/360.  OVFL OK.
001186:
001187:                                                                                                  #  EDIT DUMP AT ABOVE LOCATION.
001188: 15,3724           34675        CM/FDAIR           CA       HALF
001189: 15,3725           00006                           EXTEND
001190: 15,3726           71713                           MP       PAXERR1                               #  FULL SCALE FOR FDAI (ROLL) IS 67.5 D
001191: 15,3727           55476                           TS       PAXERR                                #  .25 (ROLL ERROR/180) FOR FDAI NEEDLE.
001192:
001193:                                                                                                  #  PROGRAM TO FILE BODY RATES FOR TM ON ONE PASS AND
001194:                                                                                                  #  TO UPDATE THE NEEDLE DISPLAY ON THE NEXT.
001195:                                                                                                  #  SYNCHRONIZATION WITH CM/RCS IS USED SO THAT THE TM
001196:                                                                                                  #  IS DONE WITH THE ROLL SYSTEM AND NEEDLES START ON
001197:                                                                                                  #  THE SUBSEQUENT PASS.
001198:
001199: 15,3730           40305        CM/DUMPR           CS       SW/NDX                                #  COMBINED ALTERNATION SWITCH AND FILE
001200: 15,3731           54305                           TS       SW/NDX
001201: 15,3732           00006                           EXTEND                                         #  INDEX.
001202: 15,3733           63737                           BZMF     CMTMFILE                              #  FILE STARTS WITH SW/NDX +1 AND GOES TO
001203:                                                                                                  #  ENDBUF.
001204:
001205:                                                                                                  #  INDEX IS POS FOR NEEDLES
001206:
001207: 15,3734           04633                           TC       IBNKCALL
001208: 15,3735           42404                           CADR     NEEDLER
001209:
001210: 15,3736           03755                           TC       CM/END
001211:
001212:                                                                                                  #  INDEX IS NEG FOR TM FILE
001213:
001214: 15,3737           66214        CMTMFILE           AD       THREE
001215: 15,3740           00006                           EXTEND
001216: 15,3741           63745                           BZMF     SAVENDX
001217:


001219: 15,3742           30025                           CA       TIME1                                 #  INITIALIZE THE TM LIST IN UPBUFF.
001220: 15,3743           54304                           TS       CMTMTIME
001221: 15,3744           44720                           CS       THIRTEEN                              #  INITIALIZE COUNTER
001222: 15,3745           54305        SAVENDX            TS       SW/NDX                                #  A NEGATIVE NUMBER.
001223: 15,3746           00006                           EXTEND
001224: 15,3747           31702                           DCA      PREL
001225: 15,3750           50305                           INDEX    SW/NDX
001226: 15,3751           52324                           DXCH     ENDBUF     -1
001227: 15,3752           31703                           CA       RREL
001228: 15,3753           50305                           INDEX    SW/NDX
001229: 15,3754           54325                           TS       ENDBUF     +1
001230:
001231: 15,3755           31623        CM/END             CA       CM/SAVE
001232: 15,3756           54021                           TS       SR
001233:                                                                                                  #  DOES NOT PROTECT TEMK, SQ IN SPSIN/COS
001234:
001235: 15,3757           00006                           EXTEND
001236: 15,3760           33764                           DCA      T5IDLER2
001237: 15,3761           53313                           DXCH     T5LOC
001238: 15,3762           05222                           TC       RESUME
001239:
001240: 15,3763     1312                                  EBANK=   T5LOC
001241: 15,3763           03143 12062  T5IDLER2           2CADR    T5IDLOC
001242:
001243:                                                                                                  #  DEFINE THE FOLLOWING 17D REGISTERS IN UPBUFF TO BE
001244:                                                                                                  #  USED TO TELEMETER CM VEHICLE BODY RATE INFORMATION.
001245:                                                                                                  #  THE INFORMATION IS FILED EACH 0.2 SEC, GIVING 15D
001246:                                                                                                  #  DATA POINTS EACH 1 SEC.  TM LIST IS READ TWICE
001247:                                                                                                  #  EACH 2 SECONDS.
001248:
001249:                                                                                                  #  THE SEQUENCE IS:      SP TIME         INITIAL TIME
001250:                                                                                                  #                        SWITCH          ALSO INDEX.
001251:                                                                                                  #                        P               ROLL RATE
001252:                                                                                                  #                        Q               PITCH RATE
001253:                                                                                                  #                        R               YAW RATE
001254:                                                                                                  #                        ETC.
001255:
001256:                                                                                                  # CMTMTIME       =       UPBUFF
001257:                                                                                                  # SW/NDX         =       UPBUFF +1
001258:                                                                                                  # ENDBUF         =       UPBUFF +16D
001259:


001261:                                                                                                  #  SPACER
001262:
001263:                                                                                                  #  CONSTANTS USED IN THE ROLL CONTROL SYSTEM:
001264:                                                                                                  #  CONSTANTS ARE THE FOLLOWING:  A = 9.1 DEG/SECSQ, VM = 20 DEG/SEC, T = 2 SEC, TCDU = .1 SEC,
001265:                                                                                                  #  XMIN = 4 DEG, VMIN = 2 DEG/SEC, K = .25, A1 = 4.55 DEG/SECSQ, VI = 1 DEG/SEC, INTERCEPT WITH DZ SIDE
001266:                                                                                                  #  XBUF = 4DEG
001267:
001268: 15,3765           77464        -T-3               DEC      -203       B-14                       #  CS
001269: 15,3766           00012        VSQMIN             DEC      .61050061  E-3                        #  VSQ MIN/4 A PI = 4/(4 (9.1) 180)
001270: 15,3767     4726               2T/TCDU            =        OCT50                                 #  T/TCDU EXP-14    TCDU = .1SEC
001271: 15,3767           23617        180/8ATT           DEC      .61813187                             #  180/(8 (9.1) 4)=(180/ATT)     EXP -3
001272: 15,3770  15,3772               -VMT/180           =        -VM/360K                              #  = 20 (2) / 180
001273: 15,3770     4740               2JETT              =        4SECS                                 #  CS            2 (2) 100       INTEGER
001274: 15,3770           01440        4JETT              DEC      800        B-14                       #  CS            4 (2) 100       INTEGER
001275: 15,3771           00266        XMIN/360           DEC      182        B-14                       #  XMIN/360 = 4/ 360  EXP 14  = 182 INTEGER
001276: 15,3772           70706        -VM/360K           DEC      -.22222222                            #  =-20/( 360 (.25))
001277: 15,3773  15,3767               1/16A1             =        180/8ATT
001278:                                                                                                  #  1/16A1   = 180/(16 A1 TT)
001279:                                                                                                  #           = 180/(16 4.55 4)
001280: 15,3773           00133        XS/360             DEC      91         B-14                       #           = (XMIN +VI (T-1/K))/360 = 2/360 EXP 14
001281: 15,3774  15,3773               BUFLIM             =        XS/360                                #           4/(2 360)
001282:
001283: 15,3774     4675               KTRCS              =        HALF                                  #           KT = (.25) 2 = .5

End of include-file CM_ENTRY_DIGITAL_AUTOPILOT.agc.  Parent file is MAIN.agc


