
Source Code


000002:                                                                                                  #  Copyright:    Public domain.
000003:                                                                                                  #  Filename:     CONIC_SUBROUTINES.agc
000004:                                                                                                  #  Purpose:      Part of the source code for Colossus, build 249.
000005:                                                                                                  #                It is part of the source code for the Command Module's (CM)
000006:                                                                                                  #                Apollo Guidance Computer (AGC), possibly for Apollo 8 and 9.
000007:                                                                                                  #  Assembler:    yaYUL
000008:                                                                                                  #  Reference:    Starts on p. 1244 of 1701.pdf.
000009:                                                                                                  #  Contact:      Ron Burkey <info@sandroid.org>.
000010:                                                                                                  #  Website:      www.ibiblio.org/apollo.
000011:                                                                                                  #  Mod history:  08/29/04 RSB.   Began converting from corresponding Luminary131 file.
000012:
000013:                                                                                                  #  The contents of the "Colossus249" files, in general, are transcribed
000014:                                                                                                  #  from a scanned document obtained from MIT's website,
000015:                                                                                                  #  http://hrst.mit.edu/hrs/apollo/public/archive/1701.pdf.  Notations on this
000016:                                                                                                  #  document read, in part:
000017:
000018:                                                                                                  #        Assemble revision 249 of AGC program Colossus by NASA
000019:                                                                                                  #        2021111-041.  October 28, 1968.
000020:
000021:                                                                                                  #        This AGC program shall also be referred to as
000022:                                                                                                  #                                Colossus 1A
000023:
000024:                                                                                                  #        Prepared by
000025:                                                                                                  #                        Massachusetts Institute of Technology
000026:                                                                                                  #                        75 Cambridge Parkway
000027:                                                                                                  #                        Cambridge, Massachusetts
000028:                                                                                                  #        under NASA contract NAS 9-4065.
000029:
000030:                                                                                                  #  Refer directly to the online document mentioned above for further information.
000031:                                                                                                  #  Please report any errors (relative to 1701.pdf) to info@sandroid.org.
000032:
000033:                                                                                                  #  In some cases, where the source code for Luminary 131 overlaps that of
000034:                                                                                                  #  Colossus 249, this code is instead copied from the corresponding Luminary 131
000035:                                                                                                  #  source file, and then is proofed to incorporate any changes.
000036:
000037:                                                                                                  #  Page 1244
000038:                                                                                                  #  PROGRAM DESCRIPTION -- ENTIRE CONIC SUBROUTINE LOG SECTION    DATE -- 1 SEPTEMBER 1967
000039:                                                                                                  #  MOD NO. -- 0                                                  LOG SECTION -- CONIC SUBROUTINES
000040:                                                                                                  #  MOD BY KRAUSE                                                 ASSEMBLY -- COLOSSUS REVISION 88
000041:
000042:                                                                                                  #  FUNCTIONAL DESCRIPTION --
000043:                                                                                                  #        THE FOLLOWING SET OF SUBROUTINES SOLVE VARIOUS PROBLEMS INVOLVING THE TRAJECTORY PRODUCED BY A CENTRAL
000044:                                                                                                  #        INVERSE-SQUARE FORCE ACTING ON A POINT MASS, AS OUTLINED IN THE CMC AND LGC LUNAR LANDING MISSION GSOP, SECTION
000045:                                                                                                  #        5.5.1.2.  A GENERAL USAGE POINT-OF-VIEW WAS TAKEN IN FORMULATING, MECHANIZING, AND SCALING THE SUBROUTINES,
000046:                                                                                                  #        RATHER THAN OPTIMIZING EACH FOR A PARTICULAR USE.  THEREFORE, MULTIPLE USAGE CAN BE MADE OF THE SUBROUTINES
000047:                                                                                                  #        INVOLVING ANY REALISTIC SET OF CONSTRAINTS.  IT SHOULD BE NOTED THAT ONLY ONE SET OF CODING IS USED, WHETHER THE
000048:                                                                                                  #        EARTH, MOON, OR ANY OTHER CELESTIAL BODY IS SPECIFIED AS THE CENTRAL BODY OF THE PROBLEM, PROVIDED ONE OBSERVES
000049:                                                                                                  #        THE INHERENT SCALE CHANGE REQUIRED IN POSITION, VELOCITY, MU, AND TIME, AS OUTLINES IN MISSION PROGRAMMING
000050:                                                                                                  #        DEFINITION MEMO NO. 10.  THIS CAN BE ACCOMPLISHED BY SIMPLY ADDING TO THE MUTABLE AND INITIALIZING THE SUBROUTINES
000051:                                                                                                  #        APPROPRIATELY.
000052:
000053:                                                                                                  #        DUE TO THE UNIFORMITY OF THE EQUATIONS INVOLVED, CODING WAS MINIMIZED BY TREATING INDIVIDUAL EQUATIONS AND
000054:                                                                                                  #        BLOCKS OF EQUATIONS AS SUBROUTINES OF LOWER RANK WHENEVER POSSIBLE.  AS A RESULT, THREE BY-PRODUCTS SUBROUTINES,
000055:                                                                                                  #        DIRECTLY USABLE AS INDEPENDENT SUBROUTINES, WERE GENERATED.
000056:
000057:                                                                                                  #  RESTRICTIONS --
000058:                                                                                                  #        THE ONLY LIMITATION IN THE SCOPE OF THE PROBLEM WHICH CAN BE SOLVED BY A PARTICULAR SUBROUTINE IS THE SCALING
000059:                                                                                                  #        LIMIT OF EACH PARAMETER AS SPECIFIED IN THE GSOP.  THESE SCALING LIMITS WERE CHOSEN SO THAT ALL FEASIBLE TRAJECTORIES
000060:                                                                                                  #        COULD BE HANDLED.
000061:
000062:                                                                                                  #        SINCE THE SUBROUTINES (EXCEPT KEPLER) USE COMMON SUBROUTINES OF LOWER RANK WHICH USE ERASABLE OTHER THAN
000063:                                                                                                  #        THE PUSHLIST (DUE TO ITS LIMITED SIZE) AND COMMON INTERPRETIVE SWITCHES, THE CONIC SUBROUTINES CANNOT BE ALLOWED
000064:                                                                                                  #        TO INTERRUPT EACH OTHER.  IT IS UP TO THE USER TO GUARANTEE THIS CONDITION.
000065:
000066:                                                                                                  #  Page 1245
000067:                                                                                                  #  PROGRAM DESCRIPTION -- KEPLER SUBROUTINE                      DATE -- 11 OCTOBER 1967
000068:                                                                                                  #  MOD NO. -1                                                    LOG SECTION -- CONIC SUBROUTINES
000069:                                                                                                  #  MOD BY KRAUSE                                                 ASSEMBLY -- COLOSSUS 103 AND SUNDANCE 222
000070:
000071:                                                                                                  #  FUNCTIONAL DESCRIPTION --
000072:                                                                                                  #        THIS SUBROUTINE, GIVEN AN INITIAL STATE VECTOR AND THE DESIRED TRANSFER TIME THROUGH WHICH THE STATE IS TO
000073:                                                                                                  #        BE UPDATED ALONG A CONIC TRAJECTORY, COMPUTES THE NEW, UPDATED STATE VECTOR.  THE TRAJECTORY MAY BE ANY CONIC
000074:                                                                                                  #        SECTION -- CIRCULAR, ELLIPTIC, PARABOLIC, HYPERPOLIC, OR RECTILINEAR WITH RESPECT TO THE EARTH OR THE MOON. THE
000075:                                                                                                  #        USE OF THE SUBROUTINE CAN BE EXTENDED USING OTHER PRIMARY BODIES BY SIMPLE ADDITIONS TO THE MUTABLE WITHOUT
000076:                                                                                                  #        INTRODUCING ANY CODING CHANGES, ACCEPTING THE INHERENT SCALE FACTOR CHANGES IN POSITION AND VELOCITY.  AN ITERATION
000077:                                                                                                  #        TECHNIQUE IS UTILIZED IN THE COMPUTATION.
000078:
000079:                                                                                                  #        IF A NEGATIVE TIME-OF-FLIGHT IS INPUT, THE PROGRAM WILL SOLVE FOR THE STATE WHICH WOULD BE PRODUCED BY
000080:                                                                                                  #        EXTRAPOLATING THE POSITION BACKWARD IN TIME.
000081:
000082:                                                                                                  #        IF THE DESIRED TRANSFER TIME IS POSITIVE AND EXCEEDS THE ORBITAL PERIOD, THE SUBROUTINE, THROUGH A MODULAR
000083:                                                                                                  #        TECHNIQUE, WILL COMPUTE THE STATE CORRESPONDING TO THE DESIRED TIME AS USUAL.
000084:
000085:                                                                                                  #  THE RESTRICTIONS ARE --
000086:                                                                                                  #        1.      A NEGATIVE DESIRED TIME MUST BE LESS THAN ONE PERIOD IN MAGNITUDE.  IF GREATER, THE ONE-PERIOD-SOLUTION
000087:                                                                                                  #                WILL BE RETURNED.
000088:                                                                                                  #        2.      THE PARAMETERS IN THE PROBLEM CANNOT EXCEED THEIR SCALING LIMITS AS SPECIFIED IN THE GSOP.  IF
000089:                                                                                                  #                ANY OF THESE LIMITS ARE EXCEEDED, THE RESULTING SOLUTION WILL BE MEANINGLESS.
000090:
000091:                                                                                                  #        THE NUMBER OF ITERATIONS AND, THEREFORE, THE COMPUTATION SPEED IS DEPENDENT ON THE ACCURACY OF THE
000092:                                                                                                  #        GUESS, XKFPNEW.  THE AGC COMPUTATION TIME IS APPROXIMATELY .061 SECONDS FOR INITIALIZATION, .065 SECONDS FOR THE
000093:                                                                                                  #        FINAL COMPUTATIONS, PLUS .083 SECONDS FOR EACH ITERATION.
000094:
000095:                                                                                                  #  REFERENCES --
000096:                                                                                                  #        R-479, MISSION PROGRAMMING DEFINITION MEMO NO. 10, LUNAR LANDING MISSION GSOP, SECTION 5.5, SGA
000097:                                                                                                  #        MEMO 67-4.
000098:
000099:                                                                                                  #  INPUT -- ERASABLE INITIALIZATION REQUIRED
000100:                                                                                                  #                         SCALE FACTOR
000101:                                                                                                  #        VARIABLE        IN POWERS OF 2          DESCRIPTION AND REMARKS
000102:                                                                                                  #        --------        --------------          -----------------------
000103:                                                                                                  #        RRECT           +29 FOR EARTH           DP INITIAL POSITION VECTOR IN METERS
000104:                                                                                                  #                        +27 FOR MOON
000105:                                                                                                  #        VRECT           +7 FOR EARTH            DP INITIAL VELOCITY VECTOR IN METERS/CENTISECOND
000106:                                                                                                  #                        +5 FOR MOON
000107:                                                                                                  #        X1 (38D)        NONE                    INDEX REGISTER SET TO -2D OR -10D ACCORDING TO WHETHER THE EARTH OR MOON,
000108:                                                                                                  #                                                        RESPECTIVELY, IS THE CENTRAL BODY
000109:                                                                                                  #        TAU             +28                     DESIRED TRANSFER TIME IN CENTISECONDS (DP)
000110:                                                                                                  #  Page 1246
000111:                                                                                                  #        XKEPNEW         +17 FOR EARTH           GUESS OF X IN METERS-TO-THE-ONE-HALF FROM KEPPREP
000112:                                                                                                  #                        +16 FOR MOON            (DP)
000113:                                                                                                  #        TC              +28                     DP PREV. VALUE OF TIME IN CENTISECS FROM KEPPREP
000114:                                                                                                  #        XPREV           +17 FOR EARTH           PRVIOUS VALUE OF X IN METERS-TO-THE-ONE-HALF FROM KEPPREP
000115:                                                                                                  #                        +16 FOR MOON            (DP)
000116:
000117:                                                                                                  #  SUBROUTINES CALLED --
000118:                                                                                                  #        DELTIME
000119:
000120:                                                                                                  #  CALLING SEQUENCE AND NORMAL EXIT MODES --
000121:                                                                                                  #        KEPRTN-2        GOTO                    # MUST BE IN INTERPRETIVE MODE BUT OVFIND ARBITRARY.
000122:                                                                                                  #        KEPRTN-1                KEPLER          # RETURNS WITH XPREV IN MPAC.  PL IS AT 0.
000123:                                                                                                  #        KEPRTN          ...                     # CONTINUE
000124:
000125:                                                                                                  #        KEPLER MUST NOT BE CALLED DIRECTLY SINCE AN INTERRUPTION OF IT WOULD DESTROY THE ERASABLES IT NEEDS TO COMPLETE
000126:                                                                                                  #        THE INTERRUPTED JOB.  THEREFORE THE USER MUST CALL CSMCONIC OR LEMCONIC WHICH GUARANTEES NO INTERRUPTS AND WHICH
000127:                                                                                                  #        ALSO CALLS KEPPREP TO COMPUTE A GUESS OF XKEPNEW.
000128:
000129:                                                                                                  #  ABORT EXIT MODE --
000130:                                                                                                  #        NONE
000131:
000132:                                                                                                  #  OUTPUT --
000133:                                                                                                  #                         SCALE FACTOR
000134:                                                                                                  #        VARIABLE        IN POWERS OF 2          DESCRIPTION AND REMARKS
000135:                                                                                                  #        --------        --------------          -----------------------
000136:                                                                                                  #        RCV             +29 FOR EARTH           DP TERMINAL POSITION VECTOR IN METERS
000137:                                                                                                  #                        +27 FOR MOON
000138:                                                                                                  #        VCV             +7 FOR EARTH            DP TERMINAL VELOCITY VECTOR IN METERS/CENTISEC
000139:                                                                                                  #                        +5 FOR MOON
000140:                                                                                                  #        TC              +28                     DP TRANSFER TIME IN CENTISECS TO WHICH KEPLER CONVERGED.
000141:                                                                                                  #        XPREV           +17 FOR EARTH           DP VALUE OF X IN METERS-TO-THE-ONE-HALF-POWER TO WHICH KEPLER CONVERGED.
000142:                                                                                                  #                        +16 FOR MOON            (DP)
000143:                                                                                                  #        FOR OTHER OUTPUT WHICH MAY BE OF USE, SEE DEBRIS.
000144:
000145:                                                                                                  #  DEBRIS --
000146:                                                                                                  #        PARAMETERS WHICH MAY BE OF USE --
000147:                                                                                                  #  Page 1247
000148:                                                                                                  #                         SCALE FACTOR
000149:                                                                                                  #        VARIABLE        IN POWERS OF 2          DESCRIPTION AND REMARKS
000150:                                                                                                  #        --------        --------------          -----------------------
000151:                                                                                                  #        URRECT          +1                      DP UNIT VECTOR OF INITIAL POSITION
000152:                                                                                                  #        R1              +29 FOR EARTH           DP MAGNITUDE OF INITIAL POSITION IN METERS
000153:                                                                                                  #                        +27 FOR MOON
000154:                                                                                                  #        ALPHA           -22 FOR EARTH           DP INVERSE OF SEMI-MAJOR AXIS IN 1/METERS
000155:                                                                                                  #                        -20 FOR MOON
000156:                                                                                                  #        TMODULO         +28                     DP INTEGRAL NUMBER OF PERIODS IN CENTISECS.  WHICH WAS SUBTRACTED FROM TAU. TO PRODUC+
000157:                                                                                                  #                                                        TAU. OF LESS THAN ONE PERIOD.
000158:
000159:                                                                                                  #  PARAMETERS OF NO USE --
000160:                                                                                                  #        DP PARAMETERS -- FPSILENT, DELX, DELT, RCNORM, XMODULO, PLUS PUSHLIST REGISTERS 0 THROUGH 39D.
000161:
000162:                                                                                                  #  Page 1248
000163:                                                                                                  #  PROGRAM DESCRIPTION -- LAMBERT SUBROUTINE                     DATE -- 1 SEPTEMBER 1967
000164:                                                                                                  #  MOD NO. -- 0                                                  LOG SECTION -- CONIC SUBROUTINES
000165:                                                                                                  #  MOD BY KRAUSE                                                 ASSEMBLY -- COLOSSUS REVISION 88
000166:
000167:                                                                                                  #  FUNCTIONAL DESCRIPTION --
000168:                                                                                                  #        THIS SUBROUTINE CALCULATES THE INITIAL VELOCITY REQUIRED TO TRANSFER A POINT-MASS ALONG A CONIC TRAJECTORY
000169:                                                                                                  #        FROM AN INITIAL POSITION TO A TERMINAL POSITION IN A PRESCRIBED TIME INTERVAL.  THE RESULTING TRAJECTORY MAY BE
000170:                                                                                                  #        A SECTION OF A CIRCLE, ELLIPSE, PARABOLA, OR HYPERBOLA WITH RESPECT TO TEH EARTH OR THE MOON.  THE USE OF THE
000171:                                                                                                  #        SUBROUTINE CAN BE EXTEDED USING OTHER PRIMARY BODIES BY SIMPLE ADDITIONS TO THE MUTABLE WITHOUT INTRODUCING ANY
000172:                                                                                                  #        CODING CHANGES, ACCEPTING THE INHERENT SCALE FACTOR CHANGES IN POSITION AND VELOCITY.  AN ITERATION TECHNIQUE IS
000173:                                                                                                  #        UTILIZED IN THE COMPUTATION.
000174:
000175:                                                                                                  #  THE RESTRICTIONS ARE: --
000176:                                                                                                  #        1. RECTILINEAR TRAJECTORIES CANNOT BE COMPUTED.
000177:                                                                                                  #        2. AN ACCURACY DEGRADATION OCCURS AS THE COSINE OF THE TRUE ANOMALY DIFFERENCE APPROACHES +1.0.
000178:                                                                                                  #        3. THE ANGLE BETWEEN ANY POSITION VECTOR AND ITS VELOCITY VECTOR MUST BE GREATER THAN 1 DEGREE 47.5 MINUTES
000179:                                                                                                  #           AND LESS THAN 178 DEGREES 12.5 MINUTES.
000180:                                                                                                  #        4. NEGATIVE TRANSFER TIME IS AMBUGUOUS AND WILL RESULT IN NO SOLUTION.
000181:                                                                                                  #        5. THE PARAMETERS IN THE PROBLEM MUST NOT EXCEED THEIR SCALING LIMITS SPECIFIED IN THE GSOP.  IF THE
000182:                                                                                                  #           LIMITS ARE EXCEEDED, THE RESULTING SOLUTION WILL BE MEANINGLESS.
000183:
000184:                                                                                                  #        THE NUMBER OF ITERATIONS AND, THEREFORE, THE COMPUTATION'S SPEED IS DEPENDENT ON THE ACCURACY OF THE FIRST
000185:                                                                                                  #        GUESS OF THE INDEPENDENT VARIABLE, COGA.  THE AGC COMPUTATION TIME IS APPROXIMATELY
000186:                                                                                                  #        .105 SECONDS FOR INITIALIZATION, .069 SECONDS FOR FINAL COMPUTATIONS, PLUS .205 SECONDS FOR EACH ITERATION.
000187:
000188:                                                                                                  #  REFERENCES --
000189:                                                                                                  #        R-479, MISSION PROGRAMMING DEFINITION MEMO NO. 10, LUNAR LANDING MISSION GSOP -- SECTION 5.5, SGA MEMO 67-8,
000190:                                                                                                  #        SGA MEMO 67-4.
000191:
000192:                                                                                                  #  INPUT -- ERASABLE INITIALIZATION REQUIRED
000193:                                                                                                  #                         SCALE FACTOR
000194:                                                                                                  #        VARIABLE        IN POWERS OF 2          DESCRIPTION AND REMARKS
000195:                                                                                                  #        --------        --------------          -----------------------
000196:                                                                                                  #        R1VEC           +29 FOR EARTH           DP INITIAL POSITION VECTOR IN METERS
000197:                                                                                                  #                        +27 FOR MOON
000198:                                                                                                  #        R2VEC           +29 FOR EARTH           DP TARGET OR TERMINAL POSITION VECTOR IN METERS
000199:                                                                                                  #                        +27 FOR MOON
000200:                                                                                                  #        TDESIRED        +28                     DP DESIRED TRANSFER TIME IN CENTISECONDS
000201:                                                                                                  #        X1 (38D)        NONE                    INDEX REGISTER SET TO -2D OR -10D ACCORDING TO WHETHER THE EARTH OR MOON,
000202:                                                                                                  #                                                        RESPECTIVELY, IS THE CENTRAL BODY
000203:                                                                                                  #        GEOMSGN         NONE                    SP +.5 IF DESIRED TRANSFER ANGLE IS LESS THAN 180 DEGREES, -.5 IF GREATER THAN 180 DE+
000204:                                                                                                  #        GUESSW          NONE                    AN INTERPRETER SWITCH TO BE SET IF NO GUESS OF COGA IS AVAILABLE, CLEAR IF A GUESS OF+
000205:                                                                                                  #  Page 1249
000206:                                                                                                  #                                                        COGA IS TO BE USED BY LAMBERT
000207:                                                                                                  #        COGA            +5                      DP GUESS OF COTANGENT OF FLIGHT PATH ANGLE (MEASURED FROM VERTICAL).  THIS WILL BE
000208:                                                                                                  #                                                IGNORED IF GUESSW IS SET.
000209:                                                                                                  #        NORMSW          NONE                    AN INTERPRETER SWITCH TO BE SET IF UN IS TO BE AN INPUT TO THE SUBROUTINE, CLEAR IF
000210:                                                                                                  #                                                        LAMBERT IS TO COMPUTE ITS OWN NORMAL (UN).
000211:                                                                                                  #        UN              +1                      DP UNIT NORMAL TO THE DESIRED ORBIT PLANE IN THE DIRECTION OF THE RESULTING ANGULAR
000212:                                                                                                  #                                                        MOMENTUM VECTOR.  THIS WILL BE IGNORED IF NORMSW IS CLEAR.
000213:                                                                                                  #        VTARGTAG        NONE                    A S.P. TAG TO BE SET TO ZERO IF LAMBERT IS TO COMUTE THE VELOCITY OF R2VEC AS WELL AS+
000214:                                                                                                  #                                                        AT R1VEC.
000215:
000216:                                                                                                  #  SUBROUTINES CALLED --
000217:                                                                                                  #        GEOM, GETX, DELTIME, ITERATOR, LAMENTER (PART OF NEWSTATE)
000218:
000219:                                                                                                  #  CALLING SEQUENCE AND NORMAL EXIT MODES --
000220:                                                                                                  #        L       CALL                    # MUST BE IN INTERPRETIVE MODE BUT OVFIND ARBITRARY.
000221:                                                                                                  #        L+1             LAMBERT         # RETURNS WITH PL AT 0 AND WITH VVEC IN MPAC IF VTARGTAG WAS WAS NON-ZERO OR VTARGET
000222:                                                                                                  #                                        # IN MPAC IF VTARGTAG WAS ZERO
000223:                                                                                                  #        L+2     BON                     # CONTINUE IF SOLNSW CLEAR SINCE SOLUTION IS ACCEPTABLE
000224:                                                                                                  #        L+3             SOLNSW
000225:                                                                                                  #        L+4             LAMABORT
000226:
000227:                                                                                                  #        IF A LAMBER RESULT IS TO BE A FIRST GUESS FOR THE NEXT LAMBERT CALCULATION, COGA MUST BE PRESERVED AND
000228:                                                                                                  #        GUESSW MUST BE CLEAR FOR EACH SUCCEEDING LAMBERT CALL.
000229:
000230:                                                                                                  #  ABORT EXIT MODES --
000231:                                                                                                  #        IF SOLNSW WAS SET UPON EXITING, EITHER LAMBERT WAS ASKED TO COMPUTE A TRANSFER TOO NEAR 0 OR 260 DEG, OR T
000232:                                                                                                  #        WAS TOO SMALL TO PRODUCE A REALISTIC TRANSFER BETWEEN R1VEC AND R2FEC.  IN EITHER CASE THE FIX MUST BE MADE
000233:                                                                                                  #        ACCORDING TO THE NEEDS OF THE PARTICULAR USER.  THE ABORT EXIT MODE MAY BE CODED AS ...
000234:                                                                                                  #        LAMBERT         DLOAD   ABS             # A MEASURE OF THE PROXIMITY TO 0 OR
000235:                                                                                                  #                                1-CHTH          # 360 DEGREES.
000236:                                                                                                  #                        DSU     BWM
000237:                                                                                                  #                                ONEBIT
000238:                                                                                                  #                                CHANGER2        # CHANGE R2VEC DIRECTION SLIGHTLY.
000239:                                                                                                  #                        DLOAD   DAD
000240:                                                                                                  #                                TDESIRED
000241:                                                                                                  #                                SOMETIE
000242:                                                                                                  #                        STCALL  TDESIRED        # INCRESE TDESIRED
000243:                                                                                                  #                                LAMBERT
000244:
000245:                                                                                                  #  OUTPUT --
000246:                                                                                                  #                         SCALE FACTOR
000247:                                                                                                  #        VARIABLE        IN POWERS OF 2          DESCRIPTION AND REMARKS
000248:                                                                                                  #  Page 1250
000249:                                                                                                  #        --------        --------------          -----------------------
000250:                                                                                                  #        VVEC            +7 FOR EARTH            DP INITIAL VELOCITY VECTOR IN METERS/CENTISECOND REQUIRED TO SATISFY THE BOUNDARY VAL+
000251:                                                                                                  #                        +5 FOR MOON                     PROBLEM.
000252:                                                                                                  #        VTARGET         +7 FOR EARTH            DP RESULTANT VELOCITY VECTOR AT R2VEC IN METERS/CENTISECOND.
000253:                                                                                                  #                        +5 FOR MOON
000254:                                                                                                  #        SOLNSW          NONE                    INTERPRETER SWITCH WHICH IS SET IF THE SUBROUTINE CANNOT SOLVE THE PROBLEM, CLEAR IF +
000255:                                                                                                  #                                                        SOLUTION EXISTS.
000256:
000257:                                                                                                  #        FOR OTHER OUTPUT WHICH MAY BE OF USE, SEE DEBRIS.
000258:
000259:                                                                                                  #  DEBRIS --
000260:                                                                                                  #        PARAMETERS WHICH MAY BE OF USE --
000261:                                                                                                  #                         SCALE FACTOR
000262:                                                                                                  #        VARIABLE        IN POWERS OF 2          DESCRIPTION AND REMARKS
000263:                                                                                                  #        --------        --------------          -----------------------
000264:                                                                                                  #        SNTH            +1                      DP SIN OF ANGLE BETWEEN R1VEC AND R2VEC
000265:                                                                                                  #        CSTH            +1                      DP COSING OF ANGLE
000266:                                                                                                  #        1-CSTH          +2                      DP 1-CSTH
000267:                                                                                                  #        COGA            +5                      DP COTAN OF INITIAL REQUIRED FLIGHT PATH ANGLE MEASURED FROM VERTICAL
000268:                                                                                                  #        P               +4                      DP RATIO OF SEMILATUS RECTUM TO INITIAL RADIUS
000269:                                                                                                  #        R1A             +6                      DP RATIO OF INITIAL RADIUS TO SEMI-MAJOR AXIS
000270:                                                                                                  #        R1 (32D)        +29 FOR EARTH           DP INITIAL RADIUS IN METERS
000271:                                                                                                  #                        +27 FOR MOON
000272:                                                                                                  #        UR1             +1                      DP UNIT VECTOR OF R1VEC
000273:                                                                                                  #        U2              +1                      DP UNIT VECTOR OF R2VEC
000274:
000275:                                                                                                  #        PARAMETERS OF NO USE --
000276:                                                                                                  #                DP PARAMETERS -- EPSILONL, CSTH-RHO, TPREV, TERRLAMB, R2, RTNLAMB (SP), PLUS PUSHLIST REGISTER 0 THROUGH 41D
000277:                                                                                                  #                ADDITIONAL INTERPRETIVE SWITCHES USED -- INFINFLG, 360SW, SLOPESW, ORDERSW
000278:
000279:                                                                                                  #  Page 1251
000280:                                                                                                  #  PROGRAM DESCRIPTION -- TIME-THETA SUBROUTINE                  DATE -- 1 SEPTEMBER 1967
000281:                                                                                                  #  MOD NO. -- 0                                                  LOG SECTION -- CONIC SUBROUTINES
000282:                                                                                                  #  MOD BY KRAUSE                                                 ASSEMBLY -- COLOSSUS REVISION 88
000283:
000284:                                                                                                  #  FUNCTIONAL DESCRIPTION --
000285:                                                                                                  #        THIS SUBROUTINE, GIVEN AN INITIAL STATE VECTOR AND A DESIRED TRUE-ANOMALY-DIFFERENCE THROUGH WHICH THE
000286:                                                                                                  #        STATE IS TO BE UPDATED ALONG A CONIC TRAJECTORY, CALCULATES THE CORRESPONDING TIME-OF-FLIGHT AND, IN ADDITION,
000287:                                                                                                  #        PROVIDES THE OPTION OF COMUTING THE NEW UPDATED STATE VECTOR.  THE RESULTING TRAJECTORY MAY BE A SECTION OF A
000288:                                                                                                  #        CIRCLE, ELLIPSE, PARABOLA, OR HYPERBOLA WITH RESPECT TO THE EARTH OR THE MOON.  THE USE OF TEH SUBROUTINE CAN BE
000289:                                                                                                  #        EXTENDED USING OTHER PRIMARY BODIES BY SIMPLE ADDITIONS TO THE MUTABLE WTIHOUT INTRODUCING ANY CODING CHANGES,
000290:                                                                                                  #        ACCEPTING THE INHERENT SCALE FACTOR CHANGES IN POSITION AND VELOCITY.
000291:
000292:                                                                                                  #  THE RESTRICTIONS ARE --
000293:                                                                                                  #        1. THE ANGLE BETWEEN ANY POSITION VECTOR AND ITS VELOCITY VECTOR MUST BE GREATER THAN 1 DEGREE 47.5 MINUTES
000294:                                                                                                  #           AND LESS THAN 178 DEGREES 12.5 MINUTES.
000295:                                                                                                  #        2. THE PARAMETERS IN THE PROBLEM MUST NOT EXCEED THEIR SCALING LIMITS SPECIFIED IN THE GSCP.  IF THE LIMITS
000296:                                                                                                  #           ARE EXCEEDED, THE RESULTING SOLUTION WILL BE MEANINGLY.
000297:
000298:                                                                                                  #        THE AGC COMPUTATION TIME IS APPROXIMATELY .292 SECONDS.
000299:
000300:                                                                                                  #  REFERENCES --
000301:                                                                                                  #        R-479, MISSION PROGRAMMING DEFINITION MEMO NO. 10, LUNAR LANDING MISSION GSOP-SECTION 5.5, SGA MEMO 67-8.
000302:
000303:                                                                                                  #  INPUT -- ERASABLE INITIALIZATION REQUIRED
000304:                                                                                                  #                         SCALE FACTOR
000305:                                                                                                  #        VARIABLE        IN POWERS OF 2          DESCRIPTION AND REMARKS
000306:                                                                                                  #        --------        --------------          -----------------------
000307:                                                                                                  #        RVEC            +29 FOR EARTH           DP INITIAL POSITION VECTOR IN METERS
000308:                                                                                                  #                        +27 FOR MOON
000309:                                                                                                  #        VVEC            +7 FOR EARTH            DP INITIAL VELOCITY VECTOR IN METERS/CENTISECOND
000310:                                                                                                  #                        +5 FOR MOON
000311:                                                                                                  #        SNTH            +1              `       DP SINE OF THE TRUE-ANOMALY-DIFFERENCE THROUGH WHICH THE STATE IS TO BE UPDATED
000312:                                                                                                  #        CSTH            +1                      DP COSINE OF THE ANGLE
000313:                                                                                                  #        RVSW            NONE                    AN INTERPRETIVE SWITCH TO BE SET IF ONLY TIME IS TO BE AN OUTPUT, CLEAR IF THE NEW ST+
000314:                                                                                                  #                                                        IS TO BE COMPUTED ALSO.
000315:                                                                                                  #        X1 (38D)        NONE                    INDEX REGISTER TO BE SET TO -2D OR -10D ACCORDING TO WHETHER THE EARTH OR MOON,
000316:                                                                                                  #                                                        RESPECTIVELY, IS THE CENTRAL BODY.
000317:
000318:                                                                                                  #  SUBROUTINES CALLED --
000319:                                                                                                  #  Page 1252
000320:                                                                                                  #        PARAM, GEOM, GETX, DELTIME, NEWSTATE
000321:
000322:                                                                                                  #  CALLING SEQUENCE AND NORMAL EXIT MODES --
000323:                                                                                                  #        IF ONLY TIME IS DESIRED AS OUTPUT --
000324:                                                                                                  #        L       SET     CALL            # MUST BE IN INTERPRETIVE MODE BUT OVFIND ARBITRARY.
000325:                                                                                                  #        L+1             RVSW
000326:                                                                                                  #        L+2             TIMETHET        # RETURN WITH PL AT 0 AND T IN MPAC
000327:                                                                                                  #        L+3     ---                     # CONTINUE
000328:
000329:                                                                                                  #        IF THE UPDATE STATE VECTOR IS DESIRED AS WELL --
000330:                                                                                                  #        L       CLEAR   CALL            # MUST BE IN INTERPRETIVE MODE BUT OVFIND ARBITRARY.
000331:                                                                                                  #        L+1             RVSW
000332:                                                                                                  #        L+2             TIMETHET        # RETURNS WITH PL AT 6.  THE INITIAL POSITION VECTOR IS IN 0D OF THE PUSHLIST AND
000333:                                                                                                  #                                        # THE INITIAL VELOCITY VECTOR IN MPAC.
000334:                                                                                                  #        L+3     STOVL   NEWVVEC
000335:                                                                                                  #        L+4     STADR
000336:                                                                                                  #        L+5     STORE   NEWRVEC         # NEWVVEC AND NEWRVEC ARE SYMBOLIC REPRESENTATIONS OF THE USER'S LOCATIONS.
000337:                                                                                                  #        L+6     ...                     # CONTINUE.
000338:
000339:                                                                                                  #  ABORT EXIT MODES --
000340:                                                                                                  #        L       CALL    BON
000341:                                                                                                  #        L+1             TIMETHET
000342:                                                                                                  #        L+2             COGAFLAG
000343:                                                                                                  #        L+3             COGABORT        # RESTRICTION 1 HAS BEEN VIOLATED.
000344:                                                                                                  #        L+4     BON                     # IF NEITHER FLAG IS SET AND RESTRICTION 2 HAS NOT BEEN VIOLATED, THE SOLUTION IS
000345:                                                                                                  #                                        # GOOD, SO CONTINUE.
000346:                                                                                                  #        L+5             INFINFLG
000347:                                                                                                  #        L+6             IMPOSSBL        # NO SOLUTION EXISTS.
000348:
000349:                                                                                                  #  OUTPUT --
000350:                                                                                                  #                         SCALE FACTOR
000351:                                                                                                  #        VARIABLE        IN POWERS OF 2          DESCRIPTION AND REMARKS
000352:                                                                                                  #        --------        --------------          -----------------------
000353:                                                                                                  #        T(30D)          +28                     DP TRANSFER TIME IN CENTISECONDS
000354:                                                                                                  #        INFINFLG        NONE                    AN INTERPRETIVE SWITCH WHICH IS SET IF THE TRANSFER ANGLE REQUIRES CLOSURE THROUGH
000355:                                                                                                  #                                                        INFINITY (NO SOLUTION), CLEAR IF A PHYSICAL SOLUTION IS POSSIBLE.
000356:                                                                                                  #        COGAFLAG        NONE                    AN INTERPRETIVE SWITCH WHICH IS SET IF RESTRICTION 1 HAS BEEN VIOLATED (NO SOLUTION),+
000357:                                                                                                  #                                                        CLEAR IF NOT.
000358:
000359:                                                                                                  #        IN ADDITION, IF VTARGTAG IS CLEAR, THE FOLLOWING ARE OUTPUT --
000360:                                                                                                  #        MPAC -          +7 FOR EARTH            DP TERMINAL VELOCITY VECTOR IN METERS/CENTISEC.
000361:                                                                                                  #           MPAC+5       +5 FOR MOON
000362:                                                                                                  #  Page 1253
000363:                                                                                                  #        0D - 5D         +29 FOR EARTH           DP TERMINAL POSITION VECTOR IN METERS (PL AT 6D)
000364:                                                                                                  #                        +27 FOR MOON
000365:
000366:                                                                                                  #        FOR OTHER OUTPUT WHICH MAY BE OF USE, SEE DEBRIS.
000367:
000368:                                                                                                  #  DEBRIS --
000369:                                                                                                  #        PARAMETERS WHICH MAY BE OF USE --
000370:                                                                                                  #                         SCALE FACTOR
000371:                                                                                                  #        VARIABLE        IN POWERS OF 2          DESCRIPTION AND REMARKS
000372:                                                                                                  #        --------        --------------          -----------------------
000373:                                                                                                  #        R1 (32D)        +29 FOR EARTH           DP MAGNITUDE OF INITIAL POSITION VECTOR, RVEC, IN METERS
000374:                                                                                                  #                        +27 FOR MOON
000375:                                                                                                  #        R1A             +6                      DP RATIO OF R1 TO SEMI-MAJOR AXIS (NEG. FOR HYPERBOLIC TRAJECTORIES)
000376:                                                                                                  #        P               +4                      DP RATIO OF SEMILATUS RECTUM TO R1
000377:                                                                                                  #        COGA            +5                      DP COTAN OF ANGLE BETWEEN RVEC AND VVEC
000378:                                                                                                  #        UR1             +1                      DP UNIT VECTOR OF RVEC
000379:                                                                                                  #        U2              +1                      DP UNIT VECTOR OF VVEC
000380:                                                                                                  #        UN              +1                      DP UNIT VECTOR OF UR1*U2
000381:
000382:                                                                                                  #  PARAMETERS OF NO USE --
000383:                                                                                                  #        SP PARAMETERS -- RTNTT, GEOMSGN, RTNPRM, MAGVEC2=R2 (DP), PLUS PUSHLIST LOCATIONS 0-11D, 14D-21D, 24D-39D, R1D
000384:                                                                                                  #        ADDITIONAL INTERPRETIVE SWITCHES USED -- NORMSW, 360SW
000385:
000386:                                                                                                  #  Page 1254
000387:                                                                                                  #  PROGRAM DESCRIPTION -- TIME-RADIUS SUBROUTINE         DATE -- 11 OCTOBER 1967
000388:                                                                                                  #  MOD NO. -1                                            LOG SECTION -- CONIC SUBROUTINES
000389:                                                                                                  #  MOD BY KRAUSE                                         ASSEMBLY -- COLOSSUS REVISION 88
000390:
000391:                                                                                                  #  FUNCTIONAL DESCRIPTION --
000392:                                                                                                  #        THIS SUBROUTINE, GIVEN AN INITIAL STATE VECTOR AND A DESIRED RADIUS TO WHICH THE
000393:                                                                                                  #        STATE IS TO BE UPDATED ALONG A CONIC TRAJECTORY, CALCULATES THE CORRESPONDING TIME-OF-FLIGHT AND, IN ADDITION,
000394:                                                                                                  #        PROVIDES THE OPTION OF COMPUTING THE NEW UPDATED STATE VECTOR.  THE RESULTING TRAJECTORY MAY BE A SECTION OF A
000395:                                                                                                  #        CIRCLE, ELLIPSE, PARABOLA, OR HYPERBOLA WITH RESPECT TO THE EARTH OR THE MOON.  THE USE OF THE SUBROUTINE CAN BE
000396:                                                                                                  #        EXTENDED USING OTHER PRIMARY BODIES BY SIMMPE ADDITIONS TO THE MUTABLE WITHOUT INTRODUCING ANY CODING CHANGES,
000397:                                                                                                  #        ACCEPTING THE INHERENT SCALE FACTOR CHANGES IN POSITION AND VELOCITY.
000398:
000399:                                                                                                  #        IF THE DESIRED RADIUS IS BEYOND THE RADIUS OF APOCENTER OF THE CONIC OR BELOW THE RADIUS OF PERICENTER,
000400:                                                                                                  #        APSESW WILL BE SET AND THE SUBROUTINE WILL RETURN THE APOCENTER OR PERICENTER SOLUTION, RESPECTIVELY.
000401:
000402:                                                                                                  #  THE RESTRICTIONS ARE --
000403:                                                                                                  #        1. THE ANGLE BETWEEN ANY POSITION VECTOR AND ITS VELOCITY VECTOR MUST BE GREATER THAN 1 DEGREE 47.5 MINUTES
000404:                                                                                                  #           AND LESS THAN 178 DEGREES 12.5 MINUTES.
000405:                                                                                                  #        2. THE PARAMETERS IN THE PROBLEM MUST NOT EXCEED THEIR SCALING LIMITS SPECIFIED IN TEH GSOP.  IF THE LIMITS
000406:                                                                                                  #           EXCEEDED, THE RESULTING SOLUTION WILL BE MEANINGLESS.
000407:                                                                                                  #        3. AN ACCURACY DEGRADATION OCCURS AS THE SENSITIVITIES OF TIME AND UPDATED STATE VECTOR TO CHANGES IN
000408:                                                                                                  #           RDESIRED INCREASE.  THIS WILL OCCUR NEAR EITHER APSIS OF THE CONIC AND WHEN THE CONIC IS NEARLY CIRCULAR.  IN
000409:                                                                                                  #           PARTICULAR, IF THE CONIC IS AN EXACT CIRCLE, THE PROBLEM IS UNDEFINED AND THE SUBROUTINE WILL ABORT.
000410:
000411:                                                                                                  #        THE AGC COMPUTATION TIME IS APPROXIMATELY .363 SECONDS.
000412:
000413:                                                                                                  #  REFERENCES --
000414:                                                                                                  #        R-479, MISSION PROGRAMMING DEFINITION MEMO NO. 10, LUNAR LANDING MISSION GSOP-SECTION 5.5, SGA MEMO 67-8.
000415:
000416:                                                                                                  #  INPUT -- ERASABLE INITIALIZATION REQUIRED.
000417:                                                                                                  #                         SCALE FACTOR
000418:                                                                                                  #        VARIABLE        IN POWERS OF 2          DESCRIPTION AND REMARKS
000419:                                                                                                  #        --------        --------------          -----------------------
000420:                                                                                                  #        RVEC            +29 FOR EARTH           DP INITIAL POSITION VECTOR IN METERS
000421:                                                                                                  #                        +27 FOR MOON
000422:                                                                                                  #        VVEC            +7 FOR EARTH            DP INITIAL VELOCITY VECTOR IN METERS/CENTISECOND
000423:                                                                                                  #                        +5 FOR MOON
000424:                                                                                                  #        RDESIRED        +29 FOR EARTH           DP TERMINAL RADIAL DISTANCE ON CONIC TRAJECTORY FOR WHICH TRANSFER TIME IS TO BE
000425:                                                                                                  #                        +27 FOR MOON                    COMPUTED
000426:                                                                                                  #        SGNRDOT         NONE                    SP TAG SET TO +.5 OR -.5 ACCORDING TO WHETHER THE RADIAL VELOCITY AT RDESIRED IS TO B+
000427:                                                                                                  #                                                        POSITIVE OR NEGATIVE, RESPECTIVELY.   THIS TAG REDUCES THE DOUBLE-VALUED PROB+
000428:                                                                                                  #  Page 1255
000429:                                                                                                  #                                                        SINGLE-VALUED PROBLEM.
000430:                                                                                                  #        X1 (38D)        NONE                    INDEX REGISTER TO BE SET TO -2D OR -10D ACCORDING TO WHETHER THE EARTH OR MOON,
000431:                                                                                                  #                                                        RESPECTIVELY, IS THE CENTRAL BODY.
000432:                                                                                                  #        RVSW            NONE                    AN INTERPRETIVE SWITCH TO BE SET IF ONLY TIME IS TO BE AN OUTPUT, CLEAR IF THE NEW ST+
000433:                                                                                                  #                                                        IS TO BE COMPUTED ALSO.
000434:
000435:                                                                                                  #  SUBROUTINES CALLED --
000436:                                                                                                  #        PARAM, GEOM, GETX, DELTIME, NEWSTATE
000437:
000438:                                                                                                  #  CALLING SEQUENCE AND NORMAL EXIT MODES --
000439:                                                                                                  #        IF ONLY TIME IS DESIRED AS OUTPUT --
000440:                                                                                                  #        L       SET     CALL            # USE BE IN INTERPRETIVE MODE BUT OVFIND ARBITRARY.
000441:                                                                                                  #        L+1             RVSW
000442:                                                                                                  #        L+2             TIMERAD         # RETURN WITH PL AT 0 AND T IN MPAC
000443:                                                                                                  #        L+3     ...                     # CONTINUE
000444:
000445:                                                                                                  #        IF THE UPDATE STATE VECTOR IS DESIRED AS WELL --
000446:                                                                                                  #        L       CLEAR   CALL            # MUST BE IN INTERPRETIVE MODE BUT OVFIND ARBITRARY.
000447:                                                                                                  #        L+1             RVSW
000448:                                                                                                  #        L+2             TIMERAD         # RETURNS WITH PL AT 6.  THE INITIAL POSITION VECTOR IS IN 0D OF THE PUSHLIST AND
000449:                                                                                                  #                                        # THE INITIAL VELOCITY VECTOR IN MPAC.
000450:                                                                                                  #        L+3     STOVL   NEWVVEC
000451:                                                                                                  #        L+4     STADR
000452:                                                                                                  #        L+5     STORE   NEWRVEC         # NEWVVEC AND NEWRVEC ARE SYMBOLIC REPRESENTATIONS OF THE USER'S LOCATIONS.
000453:                                                                                                  #        ...                             # CONTINUE
000454:
000455:                                                                                                  #  ABORT EXIT MODES --
000456:                                                                                                  #        L       CALL    BON
000457:                                                                                                  #        L+1             TIMERAD
000458:                                                                                                  #        L+2             COGAFLAG
000459:                                                                                                  #        L+3             COGABORT        # RESTRICTION 1 HAS BEEN VIOLATED
000460:                                                                                                  #        L+4     BON     BON
000461:                                                                                                  #        L+5             INFINFLG
000462:                                                                                                  #        L+6             IMPOSSBL        # NO SOLUTION EXISTS
000463:                                                                                                  #        L+7             SOLNSW
000464:                                                                                                  #        L+8             IMPOSSBL        # SOLUTION IS UNDEFINED SINCE CONIC IS A CIRCLE.  RESTRICTION 3 HAS BEEN VIOLATED.
000465:                                                                                                  #        L+9     ...                     # IF ALL THREE OF THE FLAGS ARE CLEAR, A SOLUTION EXISTS, SO CONTINUE.
000466:
000467:                                                                                                  #  OUTPUT --
000468:                                                                                                  #                         SCALE FACTOR
000469:                                                                                                  #  Page 1256
000470:                                                                                                  #        VARIABLE        IN POWERS OF 2          DESCRIPTION AND REMARKS
000471:                                                                                                  #        --------        --------------          -----------------------
000472:                                                                                                  #        T (30D)         +28                     DP TRANSFER TIME IN CENTISECONDS.
000473:                                                                                                  #        INFINFLG        NONE                    AN INTERPRETIVE SWITCH WHICH IS SET IF RDESIRED AND SGNRDOT REQUIRE CLOSURE THROUGH
000474:                                                                                                  #                                                        INFINITY (NO SOLUTION), CLEAR IF A PHYSICAL SOLUTION IS POSSIBLE.
000475:                                                                                                  #        COGAFLAG        NONE                    AN INTERPRETIVE SWITCH WHICH IS SET IF RESTRICTION 1 HAS BEEN VIOLATED (NO SOLUTION),+
000476:                                                                                                  #                                                        CLEAR IF NOT.
000477:                                                                                                  #        APSESW          NONE                    AN INTERPRETIVE SWITCH WHICH IS SET IF RDESIRED WAS GREATER THAN RADIUS OF APOCENTER +
000478:                                                                                                  #                                                        LESS THAN RADIUS OF PERICENTER.  THE APOCENTER OR PERICENTER SOLUTION, RESPEC+
000479:                                                                                                  #                                                        WILL THEN BE RETURNED.  THE SWITCH IS CLEAR IF RDESIRED WAS BETWEEN PERICENTE+
000480:                                                                                                  #                                                        APOCENTER.
000481:                                                                                                  #        SOLNSW          NONE                    AN INTERPRETIVE SWITCH WHICH IS SET IF THE CONIC IS SO CLOSE TO A CIRCLE THAT THE TER+
000482:                                                                                                  #                                                        POINT IS AMBIGUOUS, VIOLATING RESTRICTION 3.  IF ECCENTRICITY IS GREATER THAN+
000483:                                                                                                  #                                                        MINUS-18, THE SWITCH IS CLEAR.
000484:
000485:                                                                                                  #        IN ADDITION, IF VTARGTAG IS CLEAR, THE FOLLOWING ARE OUTPUT --
000486:                                                                                                  #        MPAC -          +7 FOR EARTH            DP TERMINAL VELOCITY VECTOR IN METERS/CENTISEC.
000487:                                                                                                  #           MPAC+5       +5 FOR MOON
000488:                                                                                                  #        0D - 5D         +29 FOR EARTH           DP TERMINAL POSITION VECTOR IN METERS (PL AT 6D)
000489:                                                                                                  #                        +27 FOR MOON
000490:
000491:                                                                                                  #        FOR OTHER OUTPUT WHICH MAY BE OF USE, SEE DEBRIS.
000492:
000493:                                                                                                  #  DEBRIS --
000494:                                                                                                  #        PARAMETERS WHICH MAY BE OF USE --
000495:                                                                                                  #                         SCALE FACTOR
000496:                                                                                                  #        VARIABLE        IN POWERS OF 2          DESCRIPTION AND REMARKS
000497:                                                                                                  #        --------        --------------          -----------------------
000498:                                                                                                  #        R1 (32D)        +29 FOR EARTH           DP MAGNITUDE OF INITIAL POSITION VECTOR, RVEC, IN METERS
000499:                                                                                                  #                        +27 FOR MOON
000500:                                                                                                  #        R1A             +6                      DP RATIO OF R1 TO SEMI-MAJOR AXIS (NEG. FOR HYPERBOLIC TRAJECTORIES)
000501:                                                                                                  #        P               +4                      DP RATIO OF SEMILATUS RECTUM TO R1
000502:                                                                                                  #        COGA            +5                      DP COTAN OF ANGLE BETWEEN RVEC AND VVEC
000503:                                                                                                  #        UR1             +1                      DP UNIT VECTOR OF RVEC
000504:                                                                                                  #        U2              +1                      DP UNIT VECTOR OF VVEC
000505:                                                                                                  #        UN              +1                      DP UNIT VECTOR OF UR1*U2
000506:                                                                                                  #        CSTH            +1                      DP COSINE OF TRUE ANOMALY DIFFERENCE BETWEEN RVEC AND RDESIRED.
000507:                                                                                                  #        SNTH            +1                      DP SINE OF TRUE ANOMALY DIFFERENCE.
000508:
000509:                                                                                                  #        PARAMETERS OF NO USE --
000510:                                                                                                  #                SP PARAMETERS -- RTNTT, GEOMSGN, RTNPRM, MAGVEC2*R2 (DP), PLUS PUSHLIST LOCATIONS 0-11D, 14D-21D, 24D-39D, 41D
000511:                                                                                                  #                ADDITIONAL INTERPRETIVE SWITCHES USED -- NORMSW, 360SW
000512:
000513:
000514:                                                                                                  #  Page 1257
000515:                                                                                                  #  PROGRAM DESCRIPTION -- APSIDES SUBROUTINE             DATE -- 1 SEPTEMBER 1967
000516:                                                                                                  #  MOD NO. -- 0                                          LOG SECTION -- CONIC SUBROUTINES
000517:                                                                                                  #  MOD BY KRAUSE                                         ASSEMBLY -- COLOSSUS REVISION 88
000518:
000519:                                                                                                  #  FUNCTIONAL DESCRIPTION --
000520:                                                                                                  #        THIS SUBROUTINE, GIVEN AN INITIAL STATE VECTOR, CALCULATES THE RADIUS OF PERICENTER AND OF APOCENTER AND THE
000521:                                                                                                  #        ECCENTRICITY OF THE RESULTING CONIC TRAJECTORY, WHICH MAY BE A STRAIGHT LINE,
000522:                                                                                                  #        CIRCLE, ELLIPSE, PARABOLA, OR HYPERBOLA WITH RESPECT TO THE EARTH OR THE MOON.  THE USE OF THE SUBROUTINE CAN
000523:                                                                                                  #        BE EXTENDED USING OTHER PRIMARY BODIES BY SIMPLE ADDITIONS TO THE MUTABLE WITHOUT INTRODUCING ANY CODING CHANGES,
000524:                                                                                                  #        EXCEPTING TEH INHERENT SCALE FACTOR CHANGES IN POSITION AND VELOCITY.
000525:
000526:                                                                                                  #  THE RESTRICTIONS ARE --
000527:                                                                                                  #        1. IF APOCENTER IS BEYOND THE SCALING OF POSITION, THE SCALE FACTOR LIMIT (536,870,910 METERS WITH RESPECT
000528:                                                                                                  #           TO THE EARTH OR 134,217,727.5 METERS WITH RESPECT TO THE MOON) WILL BE RETURNED.
000529:                                                                                                  #        2. THE PARAMETERS IN THE PROBLEM MUST NOT EXCEED THEIR SCALING LIMITS SPECIFIED IN THE GSOP.  IF THE LIMITS
000530:                                                                                                  #           ARE EXCEEDED, THE RESULTING SOLUTION WILL BE MEANINGLESS.
000531:                                                                                                  #        THE AGC COMPUTATION TIME IS APPROXIMATELY .103 SECONDS.
000532:
000533:                                                                                                  #  REFERENCES --
000534:                                                                                                  #        MISSION PROGRAMMING DEFINITION MEMO NO. 10, LUNAR LANDING MISSION GSOP-SECTION 5.5.
000535:
000536:                                                                                                  #  INPUT -- ERASABLE INITIALIZATION REQUIRED
000537:                                                                                                  #                         SCALE FACTOR
000538:                                                                                                  #        VARIABLE        IN POWERS OF 2          DESCRIPTION AND REMARKS
000539:                                                                                                  #        --------        --------------          -----------------------
000540:                                                                                                  #        RVEC            +29 FOR EARTH           DP INITIAL POSITION VECTOR IN METERS
000541:                                                                                                  #                        +27 FOR MOON
000542:                                                                                                  #        VVEC            +7 FOR EARTH            DP INITIAL VELOCITY VECTOR IN METERS/CENTISECOND
000543:                                                                                                  #                        +5 FOR MOON
000544:                                                                                                  #        X1 (38D)        NONE                    INDEX REGISTER TO BE SET TO -2D OR -10D ACCORDING TO WHETHER THE EARTH OR MOON,
000545:                                                                                                  #                                                        RESPECTIVELY, IS THE CENTRAL BODY.
000546:
000547:                                                                                                  #  SUBROUTINES CALLED --
000548:                                                                                                  #        PARAM, GEOM
000549:
000550:                                                                                                  #  CALLING SEQUENCE AND NORMAL EXIT MODES --
000551:                                                                                                  #  Page 1258
000552:                                                                                                  #        IF ONLY TIME IS DESIRED AS OUTPUT --
000553:                                                                                                  #        L       CALL                    # MUST BE IN INTERPRETIVE MODE BUT OVFIND ARBITRARY.
000554:                                                                                                  #        L+1             APSIDES         # RETURNS WITH PL AT 0, RADIUS OF APOCENTER IN MPAC AND RADIUS OF PERICENTER IN 0D
000555:                                                                                                  #        L+2     STODL   APOAPSE
000556:                                                                                                  #        L+3             0D
000557:                                                                                                  #        L+4     STORE   PERIAPSE        # APOAPSE AND PERIAPSE ARE SYMBOLIC REPRESENTATIONS OF THE USER'S LOCATIONS
000558:                                                                                                  #        L+5     ...                     # CONTINUE
000559:
000560:                                                                                                  #  OUTPUT --
000561:                                                                                                  #                         SCALE FACTOR
000562:                                                                                                  #        VARIABLE        IN POWERS OF 2          DESCRIPTION AND REMARKS
000563:                                                                                                  #        --------        --------------          -----------------------
000564:                                                                                                  #        MPAC            +29 FOR EARTH           DP RADIUS OF APOCENTER IN METERS
000565:                                                                                                  #                        +27 FOR MOON
000566:                                                                                                  #        0D-1D           +29 FOR EARTH           DP RADIUS OF PERICENTER IN METERS
000567:                                                                                                  #                        +27 FOR MOON
000568:                                                                                                  #        ECC             +3                      DP ECCENTRICITY OF CONIC TRAJECTORY
000569:                                                                                                  #        FOR OTHER OUTPUT WHICH MAY BE OF USE, SEE DEBRIS.
000570:
000571:                                                                                                  #  DEBRIS --
000572:                                                                                                  #        PARAMETERS WHICH MAY BE OF USE --
000573:                                                                                                  #                         SCALE FACTOR
000574:                                                                                                  #        VARIABLE        IN POWERS OF 2          DESCRIPTION AND REMARKS
000575:                                                                                                  #        --------        --------------          -----------------------
000576:                                                                                                  #        R1 (32D)        +29 FOR EARTH           DP MAGNITUDE OF INITIAL POSITION VECTOR, RVEC, IN METERS
000577:                                                                                                  #                        +27 FOR MOON
000578:                                                                                                  #        R1A             +6                      DP RATIO OF R1 TO SEMI-MAJOR AXIS (NEG. FOR HYPERBOLIC TRAJECTORIES)
000579:                                                                                                  #        P               +4                      DP RATIO OF SEMILATUS RECTUM TO R1
000580:                                                                                                  #        COGA            +5                      DP COTAN OF ANGLE BETWEEN RVEC AND VVEC
000581:                                                                                                  #        UR1             +1                      DP UNIT VECTOR OF RVEC
000582:                                                                                                  #        U2              +1                      DP UNIT VECTOR OF VVEC
000583:                                                                                                  #        UN              +1                      DP UNIT VECTOR OF UR1*U2
000584:                                                                                                  #        MAGVEC2         +7 FOR EARTH            DP MAGNITUDE OF VVEC
000585:                                                                                                  #                        +5 FOR MOON
000586:
000587:                                                                                                  #        PARAMETERS OF NO USE --
000588:                                                                                                  #                SP PARAMETERS -- RTNAPSE, GOMSGN, RTNPRM, PLUS PUSHLIST LOCATIONS 0-5, 10D-11D, 14D-21D, 31D-38D.
000589:                                                                                                  #                ADDITIONAL INTERPRETIVE SWITCHES USED -- NORMSW
000590:
000591: 12,2000                                           SETLOC   CONICS
000592:                                                                                                  #  Page 1259
000593: 12,2000                                           BANK
000594:
000595: 12,2000                                           COUNT    12/CONIC
000596:
000597: 12,2000  0002723                                  EBANK=   UR1
000598: 12,2000           71201        KEPLERN            SETPD    DLOAD
000599: 12,2001           00001                                    0
000600: 12,2002           11456                                    KEPZERO
000601: 12,2003           01344                           STORE    XMODULO
000602: 12,2004           31346                           STOVL*   TMODULO
000603: 12,2005           11631                                    MUTABLE,1
000604: 12,2006           24017                           STOVL    14D
000605: 12,2007           01503                                    RRECT
000606: 12,2010           66256                           UNIT     SSP
000607: 12,2011           00027                                    ITERCTR
000608: 12,2012           00024                                    20D
000609: 12,2013           16647                           STODL    URRECT
000610: 12,2014           00045                                    36D
000611: 12,2015           24041                           STOVL    R1
000612: 12,2016           01503                                    RRECT
000613: 12,2017           76441                           DOT      SL1R
000614: 12,2020           01511                                    VRECT
000615: 12,2021           76405                           DMP      SL1R
000616: 12,2022           00023                                    1/ROOTMU                              #  1/ROOTMU (-17 OR -14)
000617: 12,2023           24043                           STOVL    KEPC1                                 #  C1=R.V/ROOTMU (+17 OR +16)
000618: 12,2024           01511                                    VRECT
000619: 12,2025           57236                           VSQ      DMPR
000620: 12,2026           00017                                    1/MU                                  #  1/MU (-34 OR -28)
000621: 12,2027           52405                           DMP      SL3
000622: 12,2030           00041                                    R1
000623: 12,2031           61425                           DSU      ROUND
000624: 12,2032           11500                                    D1/64
000625: 12,2033           00045                           STORE    KEPC2                                 #  C2=RV.V/MU -1 (+6)
000626:
000627: 12,2034           74421                           BDSU     SR1R
000628: 12,2035           11500                                    D1/64
000629: 12,2036           77671                           DDV
000630: 12,2037           00041                                    R1
000631: 12,2040           00011                           STORE    ALPHA                                 #  ALPHA=(1-C2)/R1 (-22 OR -20)
000632:
000633: 12,2041           71244                           BPL      DLOAD                                 #  MAXIMUM X DEPENDS ON TYPE OF CONIC)
000634: 12,2042           24051                                    1REV
000635: 12,2043           11516                                    -50SC                                 #  -50SC (+12)
000636: 12,2044           40071                           DDV      BOV
000637: 12,2045           00011                                    ALPHA
000638: 12,2046           24055                                    STOREMAX
000639: 12,2047           52166                           SQRT     GOTO
000640: 12,2050           24055                                    STOREMAX
000641:                                                                                                  #  Page 1260
000642: 12,2051           55366        1REV               SQRT     BDDV
000643: 12,2052           11520                                    2PISC                                 #  2PISC (+6)
000644: 12,2053           77600                           BOV
000645: 12,2054           24055                                    STOREMAX
000646: 12,2055           50165        STOREMAX           SIGN     BMN
000647: 12,2056           02312                                    TAU.
000648: 12,2057           24272                                    BACKWARD
000649: 12,2060           00013                           STORE    XMAX
000650: 12,2061           65205                           DMP      PDDL                                  #                                PL AT 2
000651: 12,2062           00023                                    1/ROOTMU
000652: 12,2063           00011                                    ALPHA
000653: 12,2064           65301                           NORM     PDDL                                  #  DXCH WITH 0D.  0D=ALPHA       PL AT 0,2
000654: 12,2065           00047                                    X1
000655: 12,2066           56257                           SL*      DDV                                   #                                PL AT 0
000656: 12,2067           20173                                    0          -6,1
000657: 12,2070           50000        PERIODCH           BOV      BMN
000658: 12,2071           24112                                    MODDONE
000659: 12,2072           24112                                    MODDONE
000660: 12,2073           77606                           PUSH                                           #  0D=PERIOD (+28)
000661: 12,2074           50021                           BDSU     BMN
000662: 12,2075           02312                                    TAU.
000663: 12,2076           24112                                    MODDONE
000664: 12,2077           16312                           STODL    TAU.
000665: 12,2100           00013                                    XMAX
000666: 12,2101           77615                           DAD
000667: 12,2102           01344                                    XMODULO
000668: 12,2103           15344                           STODL    XMODULO
000669: 12,2104           00001                                    0D
000670: 12,2105           77615                           DAD
000671: 12,2106           01346                                    TMODULO
000672: 12,2107           15346                           STODL    TMODULO
000673: 12,2110           77650                           GOTO                                           #                                PL AT 0
000674: 12,2111           24070                                    PERIODCH
000675: 12,2112           71201        MODDONE            SETPD    DLOAD
000676: 12,2113           00001                                    0
000677: 12,2114           11456                                    KEPZERO
000678: 12,2115           14015                           STODL    XMIN
000679: 12,2116           02306                                    XKEPNEW
000680: 12,2117           77625                           DSU
000681: 12,2120           01344                                    XMODULO
000682: 12,2121           00025                           STORE    X
000683: 12,2122           50054                           BZE      BMN
000684: 12,2123           24265                                    BADX
000685: 12,2124           24265                                    BADX
000686: 12,2125           51025                           DSU      BPL
000687: 12,2126           00013                                    XMAX
000688: 12,2127           24265                                    BADX
000689:                                                                                                  #  Page 1261
000690: 12,2130           57345        DXCOMP             DLOAD    DMPR
000691: 12,2131           02312                                    TAU.
000692: 12,2132           11511                                    BEE22
000693: 12,2133           77646                           ABS
000694: 12,2134           15350                           STODL    EPSILONT
000695: 12,2135           01551                                    TC
000696: 12,2136           45254                           BZE      DSU
000697: 12,2137           24141                                    NEWTC
000698: 12,2140           01346                                    TMODULO
000699: 12,2141           15551        NEWTC              STODL    TC
000700: 12,2142           01553                                    XPREV
000701: 12,2143           45254                           BZE      DSU
000702: 12,2144           24146                                    XDIFF
000703: 12,2145           01344                                    XMODULO
000704: 12,2146           77621        XDIFF              BDSU
000705: 12,2147           00025                                    X
000706: 12,2150           02643                           STORE    DELX
000707:
000708: 12,2151           63545        KEPLOOP            DLOAD    DSQ
000709: 12,2152           00025                                    X                                     #  X=XKEP
000710: 12,2153           41501                           NORM     PUSH                                  #  0D=XSQ (+34 OR +32 -N1)       PL AT 2
000711: 12,2154           00047                                    X1
000712: 12,2155           53605                           DMP      SRR*
000713: 12,2156           00011                                    ALPHA
000714: 12,2157           21573                                    0          -6,1
000715: 12,2160           34031                           STCALL   XI                                    #  XI=ALPHA XSQ (+6)
000716: 12,2161           24426                                    DELTIME
000717: 12,2162           44200                           BOV      BDSU
000718: 12,2163           24312                                    TIMEOVFL                              #  UNLIKELY
000719: 12,2164           02312                                    TAU.
000720: 12,2165           02645                           STORE    DELT                                  #  DELT=DELINDEP
000721: 12,2166           44246                           ABS      BDSU
000722: 12,2167           01350                                    EPSILONT
000723: 12,2170           71244                           BPL      DLOAD
000724: 12,2171           24334                                    KEPCONVG
000725: 12,2172           00037                                    T
000726: 12,2173           60225                           DSU      NORM
000727: 12,2174           01551                                    TC
000728: 12,2175           00047                                    X1
000729: 12,2176           60325                           PDDL     NORM
000730: 12,2177           02643                                    DELX
000731: 12,2200           00050                                    X2
000732: 12,2201           41260                           XSU,1    DMP
000733: 12,2202           00047                                    X2
000734: 12,2203           02645                                    DELT
000735: 12,2204           56257                           SLR*     DDV
000736: 12,2205           21202                                    1,1
000737: 12,2206           41542                           SR1      PUSH                                  #  0D=TRIAL DELX         PL AT 2
000738: 12,2207           71244                           BPL      DLOAD
000739:                                                                                                  #  Page 1262
000740: 12,2210           24231                                    POSDELX
000741: 12,2211           00025                                    X
000742: 12,2212           00013                           STORE    XMAX                                  #  MOVE MAX BOUND IN
000743: 12,2213           45221                           BDSU     DSU                                   #                        PL AT 0
000744: 12,2214           00015                                    XMIN
000745: 12,2215           51000                           BOV      BPL
000746: 12,2216           24223                                    NDXCHNGE
000747: 12,2217           24223                                    NDXCHNGE
000748: 12,2220           52145                           DLOAD    GOTO
000749: 12,2221           00001                                    0D
000750: 12,2222           24243                                    NEWDELX
000751:
000752: 12,2223           45345        NDXCHNGE           DLOAD    DSU
000753: 12,2224           00015                                    XMIN
000754: 12,2225           00025                                    X
000755: 12,2226           52075                           DMPR     GOTO                                  #  TO FORCE MPAC +2 TO ZERO
000756: 12,2227           11514                                    DP9/10
000757: 12,2230           24243                                    NEWDELX
000758:
000759: 12,2231           77745        POSDELX            DLOAD
000760: 12,2232           00025                                    X
000761: 12,2233           00015                           STORE    XMIN                                  #  MOVE MIN BOUND IN
000762: 12,2234           45221                           BDSU     DSU                                   #                        PL AT 0
000763: 12,2235           00013                                    XMAX
000764: 12,2236           50000                           BOV      BMN
000765: 12,2237           24257                                    PDXCHNGE
000766: 12,2240           24257                                    PDXCHNGE
000767: 12,2241           77745                           DLOAD
000768: 12,2242           00001                                    0D
000769: 12,2243           02643        NEWDELX            STORE    DELX
000770: 12,2244           43254                           BZE      DAD
000771: 12,2245           24334                                    KEPCONVG
000772: 12,2246           00025                                    X
000773: 12,2247           14025                           STODL    X
000774: 12,2250           00037                                    T
000775: 12,2251           01551                           STORE    TC
000776: 12,2252           46034        BRNCHCTR           RTB      BHIZ
000777: 12,2253           24651                                    CHECKCTR
000778: 12,2254           24334                                    KEPCONVG
000779: 12,2255           77650                           GOTO
000780: 12,2256           24151                                    KEPLOOP                               #  ITERATE
000781:
000782: 12,2257           45345        PDXCHNGE           DLOAD    DSU
000783: 12,2260           00013                                    XMAX
000784: 12,2261           00025                                    X
000785: 12,2262           52075                           DMPR     GOTO                                  #  TO FORCE MPAC +2 TO ZERO
000786: 12,2263           11514                                    DP9/10
000787:                                                                                                  #  Page 1263
000788: 12,2264           24243                                    NEWDELX
000789:
000790: 12,2265           70545        BADX               DLOAD    SR1
000791: 12,2266           00013                                    XMAX
000792: 12,2267           00025                           STORE    X
000793: 12,2270           77650                           GOTO
000794: 12,2271           24130                                    DXCOMP
000795:
000796: 12,2272           14015        BACKWARD           STODL    XMIN
000797: 12,2273           11456                                    KEPZERO
000798: 12,2274           14013                           STODL    XMAX
000799: 12,2275           02306                                    XKEPNEW
000800: 12,2276           00025                           STORE    X
000801: 12,2277           51054                           BZE      BPL
000802: 12,2300           24305                                    BADBKWDX
000803: 12,2301           24305                                    BADBKWDX
000804: 12,2302           51025                           DSU      BPL
000805: 12,2303           00015                                    XMIN
000806: 12,2304           24130                                    DXCOMP
000807: 12,2305           70545        BADBKWDX           DLOAD    SR1
000808: 12,2306           00015                                    XMIN
000809: 12,2307           00025                           STORE    X
000810: 12,2310           77650                           GOTO
000811: 12,2311           24130                                    DXCOMP
000812:
000813: 12,2312           50145        TIMEOVFL           DLOAD    BMN                                   #  X WAS TOO BIG
000814: 12,2313           00025                                    X
000815: 12,2314           24331                                    NEGTOVFL
000816: 12,2315           00013                           STORE    XMAX
000817: 12,2316           70545        CMNTOVFL           DLOAD    SR1
000818: 12,2317           02643                                    DELX
000819: 12,2320           02643                           STORE    DELX
000820: 12,2321           44254                           BZE      BDSU
000821: 12,2322           02270                                    KEPRTN
000822: 12,2323           00025                                    X
000823: 12,2324           14025                           STODL    X
000824: 12,2325           01551                                    TC
000825: 12,2326           00037                           STORE    T
000826: 12,2327           77650                           GOTO
000827: 12,2330           24252                                    BRNCHCTR
000828: 12,2331           00015        NEGTOVFL           STORE    XMIN
000829: 12,2332           77650                           GOTO
000830: 12,2333           24316                                    CMNTOVFL
000831: 12,2334           44545        KEPCONVG           DLOAD    SR4R
000832: 12,2335           00041                                    R1
000833: 12,2336           74225                           DSU      VXSC
000834: 12,2337           00035                                    XSQC(XI)
000835:                                                                                                  #  Page 1264
000836: 12,2340           02647                                    URRECT
000837: 12,2341           65372                           VSL1     PDDL                                  #  0D=(R1-XSQC(XI))URRECT (+33 OR +31)
000838: 12,2342           00025                                    X
000839: 12,2343           60316                           DSQ      NORM
000840: 12,2344           00047                                    X1
000841: 12,2345           57275                           DMPR     DMPR
000842: 12,2346           00023                                    1/ROOTMU
000843: 12,2347           00025                                    X
000844: 12,2350           53605                           DMP      SRR*
000845: 12,2351           00033                                    S(XI)
000846: 12,2352           21572                                    0          -7,1
000847: 12,2353           77621                           BDSU
000848: 12,2354           00037                                    T
000849: 12,2355           74352                           SL1      VXSC
000850: 12,2356           01511                                    VRECT
000851: 12,2357           53372                           VSL1     VAD
000852: 12,2360           77712                           VSL4
000853: 12,2361           01535                           STORE    RCV                                   #  RCV (+29 OR +27)
000854:
000855: 12,2362           60246                           ABVAL    NORM
000856: 12,2363           00050                                    X2
000857: 12,2364           16655                           STODL    RCNORM
000858: 12,2365           00031                                    XI
000859: 12,2366           45275                           DMPR     DSU
000860: 12,2367           00033                                    S(XI)
000861: 12,2370           11476                                    D1/128
000862: 12,2371           76405                           DMP      SL1R
000863: 12,2372           00021                                    ROOTMU
000864: 12,2373           53605                           DMP      SLR*
000865: 12,2374           00025                                    X
000866: 12,2375           56601                                    0          -3,2
000867: 12,2376           74271                           DDV      VXSC
000868: 12,2377           02655                                    RCNORM
000869: 12,2400           02647                                    URRECT
000870: 12,2401           65372                           VSL1     PDDL                                  #  0D=URRECT(XI S(XI)-1)X ROOTMU/RCV (+15
000871: 12,2402           00035                                    XSQC(XI)                              #  OR +13)                       PL AT 6
000872: 12,2403           56257                           SLR*     DDV
000873: 12,2404           56602                                    0          -4,2
000874: 12,2405           02655                                    RCNORM
000875: 12,2406           74221                           BDSU     VXSC
000876: 12,2407           11512                                    D1/256
000877: 12,2410           01511                                    VRECT
000878: 12,2411           42455                           VAD      VSL8
000879: 12,2412           77626                           STADR                                          #                                PL AT 0
000880: 12,2413           62234                           STODL    VCV                                   #  VCV (+7 OR +5)
000881: 12,2414           00037                                    T
000882: 12,2415           77615                           DAD
000883: 12,2416           01346                                    TMODULO
000884: 12,2417           15551                           STODL    TC
000885:                                                                                                  #  Page 1265
000886: 12,2420           00025                                    X
000887: 12,2421           77615                           DAD
000888: 12,2422           01344                                    XMODULO
000889: 12,2423           01553                           STORE    XPREV
000890: 12,2424           77650                           GOTO
000891: 12,2425           02270                                    KEPRTN
000892:
000893:                                                                                                  #  Page 1266
000894: 12,2426           77776        DELTIME            EXIT                                           #  MPAC=XI (+6), 0D=XSQ (+34 OR +32 -N1)
000895: 12,2427           07171                           TC       POLY
000896: 12,2430           00010                           DEC      8          B-14
000897: 12,2431           02525 12526                     2DEC     .083333334
000898: 12,2433           67356 75666                     2DEC     -.266666684
000899: 12,2435           15001 23771                     2DEC     .406349155
000900: 12,2437           64342 43674                     2DEC     -.361198675
000901: 12,2441           06563 04645                     2DEC     .210153242
000902: 12,2443           75173 52672                     2DEC     -.086221951
000903: 12,2445           00656 14331                     2DEC     .026268812
000904: 12,2447           77633 40512                     2DEC     -.006163316
000905: 12,2451           00023 11210                     2DEC     .001177342
000906: 12,2453           77774 67506                     2DEC     -.000199055
000907:
000908: 12,2455           06006                           TC       INTPRET
000909: 12,2456           14033                           STODL    S(XI)
000910: 12,2457           00031                                    XI
000911: 12,2460           77776                           EXIT
000912: 12,2461           07171                           TC       POLY
000913: 12,2462           00010                           DEC      8          B-14
000914: 12,2463           01000 00000                     2DEC     .031250001
000915: 12,2465           72525 52506                     2DEC     -.166666719
000916: 12,2467           13301 15337                     2DEC     .355555413
000917: 12,2471           62776 54733                     2DEC     -.406347410
000918: 12,2473           11176 13267                     2DEC     .288962094
000919: 12,2475           73410 51674                     2DEC     -.140117894
000920: 12,2477           01446 33641                     2DEC     .049247387
000921: 12,2501           77451 65233                     2DEC     -.013081923
000922: 12,2503           00055 37266                     2DEC     .002806389
000923: 12,2505           77767 52336                     2DEC     -.000529414
000924: 12,2507           06006                           TC       INTPRET
000925:                                                                                                  #  Page 1267
000926: 12,2510           53605                           DMP      SRR*                                  #                                PL AT 0
000927: 12,2511           00001                                    0D
000928: 12,2512           21574                                    0          -5,1
000929: 12,2513           00035                           STORE    XSQC(XI)                              #  XSQC(XI) (+33 OR +31)
000930: 12,2514           72405                           DMP      SL1
000931: 12,2515           00043                                    KEPC1
000932: 12,2516           65234                           RTB      PDDL                                  #  XCH WITH PL. 0D=C1 XSQ C(XI) (+49 OR +46)
000933: 12,2517           45562                                    TPMODE                                #                                PL AT 0,3
000934: 12,2520           53605                           DMP      SRR*
000935: 12,2521           00033                                    S(XI)
000936: 12,2522           21574                                    0          -5,1
000937: 12,2523           72405                           DMP      SL1
000938: 12,2524           00045                                    KEPC2
000939: 12,2525           65234                           RTB      PDDL                                  #  3D=C2 XSQ S(XI) (+35 OR +33)  PL AT 6
000940: 12,2526           45562                                    TPMODE
000941: 12,2527           00041                                    R1
000942: 12,2530           76261                           SR       TAD                                   #                                PL AT 3
000943: 12,2531           20607                                    6
000944: 12,2532           41301                           NORM     DMP                                   #  TO PRESERVE SIGNIF.
000945: 12,2533           00047                                    X1
000946: 12,2534           00025                                    X
000947: 12,2535           76257                           SR*      TAD                                   #  X(C2 XSQ S(XI) +R1) (+49 OR +46)  PL AT 0
000948: 12,2536           20576                                    0          -3,1
000949: 12,2537           57232                           SL4R     DMPR
000950: 12,2540           00023                                    1/ROOTMU
000951: 12,2541           00037                           STORE    T
000952: 12,2542           77616                           RVQ
000953:
000954:                                                                                                  #  Page 1268
000955: 12,2543           71214        ITERATOR           BONCLR   DLOAD
000956: 12,2544           00614                                    SLOPESW
000957: 12,2545           24613                                    FIRSTIME
000958: 12,2546           00037                                    DEP
000959: 12,2547           60225                           DSU      NORM
000960: 12,2550           02764                                    DEPREV
000961: 12,2551           00047                                    X1
000962: 12,2552           60325                           PDDL     NORM
000963: 12,2553           00015                                    DELINDEP
000964: 12,2554           00050                                    X2
000965: 12,2555           41260                           XSU,1    DMP
000966: 12,2556           00047                                    X2
000967: 12,2557           02762                                    DELDEP
000968: 12,2560           56257                           SLR*     DDV                                   #                                PL UP 2
000969: 12,2561           21202                                    1,1
000970: 12,2562           43142                           SR1      BOFF
000971: 12,2563           04351                                    ORDERSW
000972: 12,2564           24567                                    SGNCHECK
000973: 12,2565           75246                           ABS      SIGN                                  #  IN CASE 2ND DERIV. CHANGED SIGN, MUST
000974: 12,2566           02762                                    DELDEP                                #  DISREGARD IT TO FIND MIN.
000975:
000976: 12,2567           51006        SGNCHECK           PUSH     BPL                                   #  TRIAL DELINDEP                PL DOWN 2
000977: 12,2570           24625                                    POSDEL
000978: 12,2571           43145                           DLOAD    BON
000979: 12,2572           03775                                    INDEP
000980: 12,2573           04311                                    ORDERSW
000981: 12,2574           24576                                    MINCHECK
000982: 12,2575           00017                           STORE    MAX                                   #  IF NOT 2ND ORDER, CAN MOVE MAX BOUND IN.
000983:
000984: 12,2576           45221        MINCHECK           BDSU     DSU
000985: 12,2577           00011                                    MIN
000986: 12,2600           51000                           BOV      BPL
000987: 12,2601           24605                                    MODNGDEL
000988: 12,2602           24605                                    MODNGDEL
000989: 12,2603           77650                           GOTO
000990: 12,2604           24637                                    DELOK
000991:
000992: 12,2605           45345        MODNGDEL           DLOAD    DSU                                   #  TRIAL DELINDEP WOULD EXCEED MIN BOUND
000993: 12,2606           00011                                    MIN
000994: 12,2607           03775                                    INDEP
000995: 12,2610           52005                           DMP      GOTO
000996: 12,2611           11514                                    DP9/10
000997: 12,2612           24641                                    NEWDEL
000998:
000999: 12,2613           41345        FIRSTIME           DLOAD    DMP
001000: 12,2614           00011                                    MIN
001001: 12,2615           00051                                    TWEEKIT                               #  DLOAD TWEEKIT(40D) SENSITIVE TO CHANGE.
001002: 12,2616           41325                           PDDL     DMP                                   #  S2(41D) SHOULDN'T CONTAIN HI ORDER ONES
001003:                                                                                                  #  Page 1269
001004: 12,2617           00017                                    MAX
001005: 12,2620           00051                                    TWEEKIT
001006: 12,2621           77625                           DSU
001007: 12,2622           52165                           SIGN     GOTO
001008: 12,2623           02762                                    DELDEP
001009: 12,2624           24567                                    SGNCHECK
001010:
001011: 12,2625           43145        POSDEL             DLOAD    BON
001012: 12,2626           03775                                    INDEP
001013: 12,2627           04311                                    ORDERSW
001014: 12,2630           24632                                    MAXCHECK
001015: 12,2631           00011                           STORE    MIN                                   #  IF NOT 2ND ORDER, CAN MOVE MIN BOUND IN.
001016:
001017: 12,2632           45221        MAXCHECK           BDSU     DSU
001018: 12,2633           00017                                    MAX
001019: 12,2634           50000                           BOV      BMN
001020: 12,2635           24643                                    MODPSDEL
001021: 12,2636           24643                                    MODPSDEL
001022: 12,2637           77745        DELOK              DLOAD
001023: 12,2640           00001                                    0D
001024: 12,2641           00015        NEWDEL             STORE    DELINDEP
001025: 12,2642           77616                           RVQ
001026:
001027: 12,2643           45345        MODPSDEL           DLOAD    DSU
001028: 12,2644           00017                                    MAX
001029: 12,2645           03775                                    INDEP
001030: 12,2646           52005                           DMP      GOTO
001031: 12,2647           11514                                    DP9/10
001032: 12,2650           24641                                    NEWDEL
001033:
001034: 12,2651           44712        CHECKCTR           CS       ONE
001035: 12,2652           50120                           INDEX    FIXLOC
001036: 12,2653           60026                           AD       ITERCTR
001037: 12,2654           50120                           INDEX    FIXLOC
001038: 12,2655           54026                           TS       ITERCTR
001039: 12,2656           54154                           TS       MPAC
001040: 12,2657           06030                           TC       DANZIG
001041:
001042:                                                                                                  #  Page 1270
001043: 12,2660           44545        NEWSTATE           DLOAD    SR4R
001044: 12,2661           00041                                    R1
001045: 12,2662           74225                           DSU      VXSC
001046: 12,2663           00035                                    XSQC(XI)
001047: 12,2664           02724                                    UR1
001048: 12,2665           65372                           VSL1     PDDL                                  #  0D=(R1-XSQC(XI))UR1 (+33 OR 31)       PL AT 6
001049: 12,2666           00025                                    X
001050: 12,2667           60316                           DSQ      NORM
001051: 12,2670           00047                                    X1
001052: 12,2671           57275                           DMPR     DMPR
001053: 12,2672           00023                                    1/ROOTMU
001054: 12,2673           00025                                    X
001055: 12,2674           53605                           DMP      SRR*
001056: 12,2675           00033                                    S(XI)
001057: 12,2676           21572                                    0          -7,1
001058: 12,2677           77621                           BDSU
001059: 12,2700           00037                                    T
001060: 12,2701           74352                           SL1      VXSC
001061: 12,2702           02746                                    VVEC
001062: 12,2703           53372                           VSL1     VAD                                   #                                PL AT 0
001063: 12,2704           41512                           VSL4     PUSH
001064: 12,2705           77646                           ABVAL
001065: 12,2706           77701        LAMENTER           NORM
001066: 12,2707           00047                                    X1
001067: 12,2710           16722                           STODL    R2
001068: 12,2711           00031                                    XI
001069: 12,2712           45205                           DMP      DSU
001070: 12,2713           00033                                    S(XI)
001071: 12,2714           11476                                    D1/128
001072: 12,2715           76405                           DMP      SL1R
001073: 12,2716           00021                                    ROOTMU
001074: 12,2717           53605                           DMP      SLR*
001075: 12,2720           00025                                    X
001076: 12,2721           21176                                    0          -3,1
001077: 12,2722           74271                           DDV      VXSC
001078: 12,2723           02722                                    R2
001079: 12,2724           02724                                    UR1
001080: 12,2725           65372                           VSL1     PDDL                                  #  6D=V2VEC PART (+15 OR 13)     PL AT 12
001081: 12,2726           00035                                    XSQC(XI)
001082: 12,2727           56257                           SLR*     DDV
001083: 12,2730           21175                                    0          -4,1
001084: 12,2731           02722                                    R2
001085: 12,2732           77621                           BDSU
001086: 12,2733           11512                                    D1/256
001087: 12,2734           53361                           VXSC     VAD
001088: 12,2735           02746                                    VVEC                                  #                                PL AT 6
001089: 12,2736           43412                           VSL8     RVQ
001090:
001091:                                                                                                  #  Page 1271
001092: 04,2000                                           SETLOC   CONICS1
001093: 04,2000                                           BANK
001094:
001095: 04,3472                                           COUNT    04/CONIC
001096:                                                                                                  #  DO NOT DISTURB THE ORDER OF THESE CDS, OVERLAYS HAVE BEEN MADE.
001097: 04,3472           00000        BEE17              DEC      0          B-14                       #  KEEP WITH D1/8 2DEC 1.0B-17 (0000004000)
001098: 04,3473           04000 00000  D1/8               2DEC     1.0        B-3
001099: 04,3475           00200 00000  D1/128             2DEC     1.0        B-7
001100: 04,3477           00400 00000  D1/64              2DEC     1.0        B-6
001101: 04,3501           10000 00000  D1/4               2DEC     1.0        B-2
001102: 04,3503           02000 00000  D1/16              2DEC     1.0        B-4
001103: 04,3505           01000 00000  D1/32              2DEC     1.0        B-5
001104: 04,3507           00020 00000  D1/1024            2DEC     1.0        B-10
001105: 04,3511           00100 00000  D1/256             2DEC     1.0        B-8
001106: 04,3513           34631 23146  DP9/10             2DEC     .9
001107: 04,3515  04,3455               KEPZERO            EQUALS   LO6ZEROS
001108: 04,3515           77467 77777  -50SC              2DEC     -50.0      B-12
001109: 04,3517           03110 17665  2PISC              2DEC     6.28318530 B-6
001110: 04,3521  04,3504               BEE19              EQUALS   D1/32      -1                         #  2DEC 1.0 B-19 (00000 01000)
001111: 04,3521  04,3510               BEE22              EQUALS   D1/256     -1                         #  2DEC 1.0 B-22 (00000 00100)
001112: 04,3521           00000 00001  ONEBIT             2DEC     1.0        B-28
001113: 04,3523           37767 37737  COGUPLIM           2DEC     .999511597
001114: 04,3525           40010 40040  COGLOLIM           2DEC     -.999511597
001115:
001116:                                                                                                  #  Page 1272
001117: 12,2000                                           SETLOC   CONICS
001118: 12,2000                                           BANK
001119:
001120: 12,2737                                           COUNT    12/CONIC
001121:
001122: 12,2737           40220        TIMETHET           STQ      SETPD                                 #                                PL AT 0
001123: 12,2740           02712                                    RTNTT
001124: 12,2741           00001                                    0
001125: 12,2742           63375                           VLOAD    PDVL                                  #  SETUP FOR PARAM CALL          PL AT 6
001126: 12,2743           02657                                    RVEC
001127: 12,2744           02746                                    VVEC
001128: 12,2745           77624                           CALL
001129: 12,2746           11527                                    PARAM
001130: 12,2747           45000                           BOV      CALL
001131: 12,2750           24767                                    COGAOVFL                              #                                PL AT 0
001132: 12,2751           24772                                    GETX
001133: 12,2752           43145        COMMNOUT           DLOAD    BON
001134: 12,2753           00031                                    XI
001135: 12,2754           04310                                    INFINFLG
001136: 12,2755           02712                                    RTNTT
001137: 12,2756           45014                           CLEAR    CALL
001138: 12,2757           04273                                    COGAFLAG
001139: 12,2760           24426                                    DELTIME
001140: 12,2761           45014                           BON      CALL
001141: 12,2762           03706                                    RVSW
001142: 12,2763           02712                                    RTNTT
001143: 12,2764           24660                                    NEWSTATE
001144: 12,2765           77650                           GOTO
001145: 12,2766           02712                                    RTNTT
001146:
001147: 12,2767           77614        COGAOVFL           SETGO
001148: 12,2770           04033                                    COGAFLAG
001149: 12,2771           02712                                    RTNTT
001150:                                                                                                  #  Page 1273
001151:
001152: 04,3527                                           BANK     4
001153: 04,2000                                           SETLOC   CONICS1
001154: 04,2000                                           BANK
001155: 04,3527                                           COUNT*   $$/CONIC
001156: 04,3527           43020        PARAM              STQ      CLEAR                                 #  MPAC=V1VEC, 0D=R1VEC          PL AT 6
001157: 04,3530           02755                                    RTNPRM
001158: 04,3531           03665                                    NORMSW
001159: 04,3532           77614                           CLEAR
001160: 04,3533           04273                                    COGAFLAG
001161: 04,3534           45131                           SSP      CALL
001162: 04,3535           02675                                    GEOMSGN
001163: 04,3536           27777                                    37777                                 #  GAMMA ALWAYS LESS THAN 180DEG
001164: 04,3537           11573                                    GEOM                                  #  MPAC=SNGA (+1), 0D=CSGA (+1)  PL AT 2
001165: 04,3540           14045                           STODL    36D                                   #  36D=SIN GAMMA (+1)            PL AT 0
001166: 04,3541           56261                           SR       DDV
001167: 04,3542           20606                                    5
001168: 04,3543           00045                                    36D
001169: 04,3544           33775                           STOVL*   COGA
001170: 04,3545           11631                                    MUTABLE,1
001171: 04,3546           14017                           STODL    1/MU
001172: 04,3547           02722                                    MAGVEC2
001173: 04,3550           60316                           DSQ      NORM
001174: 04,3551           00047                                    X1
001175: 04,3552           41275                           DMPR     DMP
001176: 04,3553           00017                                    1/MU
001177: 04,3554           00041                                    R1
001178: 04,3555           77657                           SRR*
001179: 04,3556           21576                                    0          -3,1
001180: 04,3557           44206                           PUSH     BDSU                                  #  0D=R1 V1SQ/MU (+6)            PL AT 2
001181: 04,3560           11506                                    D1/32
001182: 04,3561           16744                           STODL    R1A                                   #  R1A (+6)                      PL AT 0
001183:
001184: 04,3562           60205                           DMP      NORM
001185: 04,3563           00045                                    36D
001186: 04,3564           00047                                    X1
001187: 04,3565           53605                           DMP      SR*
001188: 04,3566           00045                                    36D
001189: 04,3567           20575                                    0          -4,1
001190: 04,3570           02742                           STORE    P                                     #  P (+4)
001191: 04,3571           77650                           GOTO
001192: 04,3572           02755                                    RTNPRM
001193:
001194:                                                                                                  #  Page 1274
001195:                                                                                                  #  There is a handwritten note here, in Colossus 249, reading "from Lambert 1267" --- RSB 2004
001196: 04,3573           77656        GEOM               UNIT                                           #  MPAC=V2VEC, 0D=R1VEC          PL AT 6
001197: 04,3574           16714                           STODL    U2                                    #  U2 (+1)
001198: 04,3575           00045                                    36D
001199: 04,3576           26722                           STOVL    MAGVEC2                               #                                PL AT 0
001200: 04,3577           77656                           UNIT
001201: 04,3600           02724                           STORE    UR1                                   #  UR1 (+1)
001202: 04,3601           72441                           DOT      SL1
001203: 04,3602           02714                                    U2
001204: 04,3603           77725                           PDDL                                           #  0D=CSTH (+1)                  PL AT 2
001205: 04,3604           00045                                    36D
001206:                                                                                                  #  There is a handwritten note in this general vicinity, in Colossus 249, reading
001207:                                                                                                  #  "Same as Luminary" --- RSB 2004
001208: 04,3605           24041                           STOVL    R1                                    #  R1 (+29 OR +27)
001209: 04,3606           02724                                    UR1
001210: 04,3607           76435                           VXV      VSL1
001211: 04,3610           02714                                    U2
001212: 04,3611           75214                           BON      SIGN
001213: 04,3612           03705                                    NORMSW
001214: 04,3613           11625                                    HAVENORM
001215: 04,3614           02675                                    GEOMSGN
001216: 04,3615           40056                           UNIT     BOV
001217: 04,3616           11623                                    COLINEAR
001218: 04,3617           16676        UNITNORM           STODL    UN                                    #  UN (+1)
001219: 04,3620           00045                                    36D
001220: 04,3621           43565                           SIGN     RVQ                                   #  MPAC=SNTH (+1), 34D=SNTH.SNTH (+2)
001221: 04,3622           02675                                    GEOMSGN
001222:
001223: 04,3623           52162        COLINEAR           VSR1     GOTO
001224: 04,3624           11617                                    UNITNORM
001225:
001226: 04,3625           75246        HAVENORM           ABVAL    SIGN
001227: 04,3626           02675                                    GEOMSGN
001228: 04,3627           77616                           RVQ                                            #  MPAC=SNTH (+1), 34D=SNTH.SNTH (+2)
001229:
001230:                                                                                                  #  Page 1275
001231: 12,2772                                           BANK     12
001232: 12,2000                                           SETLOC   CONICS
001233: 12,2000                                           BANK
001234:
001235: 12,2772                                           COUNT    12/CONIC
001236:
001237: 12,2772           66374        GETX               AXT,2    SSP                                   #  ASSUMES P (+4) IN MPAC
001238: 12,2773           00003                                    3
001239: 12,2774           00052                                    S2
001240: 12,2775           00001                                    1
001241: 12,2776           77614                           CLEAR
001242: 12,2777           04276                                    360SW
001243: 12,3000           65366                           SQRT     PDDL                                  #  0D=SQRT(P)                    PL AT 2
001244: 12,3001           02734                                    CSTH
001245: 12,3002           44342                           SR1      BDSU
001246: 12,3003           11502                                    D1/4
001247: 12,3004           54325                           PDDL     SRR                                   #                                PL AT 4D
001248: 12,3005           02732                                    SNTH
001249: 12,3006           21607                                    6
001250: 12,3007           77671                           DDV                                            #                                PL AT 2
001251: 12,3010           77600                           BOV
001252: 12,3011           25125                                    360CHECK
001253: 12,3012           41225                           DSU      DMP
001254: 12,3013           03775                                    COGA                                  #                                PL AT 0
001255: 12,3014           40132                           SL2R     BOV
001256: 12,3015           25125                                    360CHECK
001257: 12,3016           63406        WLOOP              PUSH     DSQ                                   #  0D=W (+5)                     PL AT 2
001258: 12,3017           65351                           TLOAD    PDDL                                  #  2D=WSQ (+10)                  PL AT 5
001259: 12,3020           00155                                    MPAC
001260: 12,3021           02744                                    R1A
001261: 12,3022           76202                           SR4      TAD                                   #                                PL AT 2
001262: 12,3023           75440                           BMN      SQRT
001263: 12,3024           25210                                    INFINITY
001264: 12,3025           43306                           ROUND    DAD                                   #                                PL AT 0D
001265: 12,3026           61000                           BOV      TIX,2
001266: 12,3027           25123                                    RESETX2
001267: 12,3030           25016                                    WLOOP
001268:
001269: 12,3031           40065                           BDDV     BOV
001270: 12,3032           11476                                    D1/128
001271: 12,3033           25210                                    INFINITY
001272: 12,3034           41440        POLYCOEF           BMN      PUSH                                  #  0D=1/W (+2) OR 16/W (+6)      PL AT 2
001273: 12,3035           25210                                    INFINITY
001274: 12,3036           77716                           DSQ
001275: 12,3037           41301                           NORM     DMP
001276: 12,3040           00047                                    X1
001277: 12,3041           02744                                    R1A
001278: 12,3042           77457                           SRR*     EXIT
001279: 12,3043           21567                                    0          -10D,1
001280:                                                                                                  #  Page 1276
001281: 12,3044           07171                           TC       POLY
001282: 12,3045           00005                           DEC      5          B-14
001283: 12,3046           20000 00000                     2DEC     .5
001284: 12,3050           72525 52471                     2DEC     -.166666770
001285: 12,3052           03146 15003                     2DEC     .100000392
001286: 12,3054           75556 45210                     2DEC     -.071401086
001287: 12,3056           01615 13553                     2DEC     .055503292
001288: 12,3060           76371 63777                     2DEC     -.047264098
001289: 12,3062           01232 27367                     2DEC     .040694204
001290:
001291: 12,3064           06006                           TC       INTPRET
001292: 12,3065           76405                           DMP      SL1R                                  #                                PL AT 0D
001293: 12,3066           43006                           PUSH     BON
001294: 12,3067           04316                                    360SW
001295: 12,3070           25175                                    TRUE360X
001296: 12,3071           60316        XCOMMON            DSQ      NORM
001297: 12,3072           00047                                    X1
001298: 12,3073           53605                           DMP      SRR*
001299: 12,3074           02744                                    R1A
001300: 12,3075           21565                                    0          -12D,1
001301: 12,3076           14031                           STODL    XI                                    #  XI (+6)
001302: 12,3077           00041                                    R1
001303: 12,3100           75542                           SR1      SQRT
001304: 12,3101           41306                           ROUND    DMP
001305: 12,3102           77632                           SL4R                                           #                                PL AT 0
001306: 12,3103           00025                           STORE    X                                     #  X (+17 OR +16)
001307:
001308: 12,3104           60316                           DSQ      NORM
001309: 12,3105           00047                                    X1
001310: 12,3106           41325                           PDDL     DMP                                   #  0D=XSQ (+34 OR +32 -N1)       PL AT 2
001311: 12,3107           02742                                    P
001312: 12,3110           00041                                    R1
001313: 12,3111           75452                           SL3      SQRT
001314: 12,3112           56405                           DMP      SL3R
001315: 12,3113           03775                                    COGA
001316: 12,3114           14043                           STODL    KEPC1
001317: 12,3115           02744                                    R1A
001318: 12,3116           43021                           BDSU     CLEAR
001319: 12,3117           11500                                    D1/64
001320: 12,3120           04270                                    INFINFLG
001321: 12,3121           00045                           STORE    KEPC2
001322:                                                                                                  #  Page 1277
001323: 12,3122           77616                           RVQ
001324:
001325: 12,3123           77774        RESETX2            AXT,2
001326: 12,3124           00003                                    3
001327:
001328: 12,3125           51001        360CHECK           SETPD    BPL
001329: 12,3126           00001                                    0D
001330: 12,3127           25132                                    INVRSEQN
001331: 12,3130           77614                           SET
001332: 12,3131           04076                                    360SW
001333:
001334: 12,3132           75545        INVRSEQN           DLOAD    SQRT
001335: 12,3133           02742                                    P
001336: 12,3134           41325                           PDDL     DMP                                   #  0D=SQRT(P) (+2)               PL AT 2
001337: 12,3135           02732                                    SNTH
001338: 12,3136           03775                                    COGA
001339: 12,3137           65352                           SL1      PDDL                                  #  2D=SNTH COGA (+5)             PL AT 4
001340: 12,3140           02734                                    CSTH
001341: 12,3141           43202                           SR4      DAD
001342: 12,3142           11506                                    D1/32
001343: 12,3143           41225                           DSU      DMP                                   #                                PL AT 2,0
001344: 12,3144           55301                           NORM     BDDV
001345: 12,3145           00047                                    X1
001346: 12,3146           02732                                    SNTH
001347: 12,3147           51457                           SLR*     ABS                                   #  NOTE: NEAR 360 CASE TREATED DIFFERENTLY
001348: 12,3150           21174                                    0          -5,1
001349: 12,3151           63406                           PUSH     DSQ                                   #  0D=1/W (-1)                   PL AT 2
001350: 12,3152           14043                           STODL    34D
001351: 12,3153           11504                                    D1/16
001352: 12,3154           63406        1/WLOOP            PUSH     DSQ                                   #  2D=G (+4)                     PL AT 4
001353: 12,3155           65234                           RTB      PDDL                                  #                                PL AT 7
001354: 12,3156           45562                                    TPMODE
001355: 12,3157           02744                                    R1A
001356: 12,3160           40405                           DMP      SR4
001357: 12,3161           00043                                    34D
001358: 12,3162           77771                           TAD
001359: 12,3163           75440                           BMN      SQRT                                  #                                PL AT 4
001360: 12,3164           25210                                    INFINITY
001361: 12,3165           77615                           DAD                                            #                                PL AT 2
001362: 12,3166           60304                           TIX,2    NORM
001363: 12,3167           25154                                    1/WLOOP
001364: 12,3170           00047                                    X1
001365: 12,3171           77665                           BDDV
001366: 12,3172           52057                           SLR*     GOTO                                  #                                PL AT 0
001367: 12,3173           21172                                    0          -7,1
001368: 12,3174           25034                                    POLYCOEF
001369:
001370:                                                                                                  #  Page 1278
001371: 12,3175           50145        TRUE360X           DLOAD    BMN
001372: 12,3176           02744                                    R1A
001373: 12,3177           25210                                    INFINITY
001374: 12,3200           60366                           SQRT     NORM
001375: 12,3201           00047                                    X1
001376: 12,3202           53665                           BDDV     SL*
001377: 12,3203           11520                                    2PISC
001378: 12,3204           20176                                    0          -3,1
001379: 12,3205           41425                           DSU      PUSH                                  #  0D=2PI/SQRT(R1A) -X           PL AT 0,2
001380: 12,3206           77650                           GOTO
001381: 12,3207           25071                                    XCOMMON
001382: 12,3210           40001        INFINITY           SETPD    BOV                                   #  NO SOLUTION EXISTS SINCE CLOSURE THROUGH
001383: 12,3211           00001                                    0                                     #  INFINITY IS REQUIRED
001384: 12,3212           25213                                    OVFLCLR
001385: 12,3213           43414        OVFLCLR            SET      RVQ
001386: 12,3214           04070                                    INFINFLG
001387:
001388:                                                                                                  #  Page 1279
001389: 12,3215           40220        LAMBERT            STQ      SETPD
001390: 12,3216           02712                                    RTNLAMB
001391: 12,3217           00001                                    0D
001392: 12,3220           76731                           SSP      VLOAD*
001393: 12,3221           00027                                    ITERCTR
001394: 12,3222           00024                                    20D
001395: 12,3223           11631                                    MUTABLE,1
001396: 12,3224           14017                           STODL    1/MU
001397: 12,3225           02673                                    TDESIRED
001398: 12,3226           77675                           DMPR
001399: 12,3227           11505                                    BEE19
001400: 12,3230           03777                           STORE    EPSILONL
001401: 12,3231           77214                           SET      VLOAD
001402: 12,3232           00474                                    SLOPESW
001403: 12,3233           02657                                    R1VEC
001404: 12,3234           45115                           PDVL     CALL                                  #  0D=R1VEC (+29 OR +27)         PL AT 6
001405: 12,3235           02665                                    R2VEC                                 #  MPAC=R2VEC (+29 OR +27)
001406: 12,3236           11573                                    GEOM
001407: 12,3237           16732                           STODL    SNTH                                  #  0D=CSTH (+1)                  PL AT 2
001408: 12,3240           02722                                    MAGVEC2
001409: 12,3241           65301                           NORM     PDDL
001410: 12,3242           00047                                    X1
001411: 12,3243           00041                                    R1
001412: 12,3244           56342                           SR1      DDV                                   #                                PL AT 2
001413: 12,3245           65257                           SL*      PDDL                                  #  DXCH WITH 0D, 0D=R1/R2 (+7)   PL AT 0,2
001414: 12,3246           20173                                    0          -6,1
001415: 12,3247           77626                           STADR
001416: 12,3250           75043                           STORE    CSTH                                  #  CSTH (+1)
001417: 12,3251           44342                           SR1      BDSU
001418: 12,3252           11502                                    D1/4
001419: 12,3253           02736                           STORE    1-CSTH                                #  1-CSTH (+2)
001420:
001421: 12,3254           53106                           ROUND    BZE
001422: 12,3255           25465                                    360LAMB
001423: 12,3256           65301                           NORM     PDDL                                  #                                PL AT 4
001424: 12,3257           00047                                    X1
001425: 12,3260           00001                                    0D
001426: 12,3261           56342                           SR1      DDV                                   #                                PL AT 2
001427: 12,3262           75457                           SL*      SQRT
001428: 12,3263           20176                                    0          -3,1
001429: 12,3264           54325                           PDDL     SR                                    #  2D=SQRT(2R1/R2(1-CSTH)) (+5)  PL AT 4
001430: 12,3265           02732                                    SNTH
001431: 12,3266           20607                                    6
001432: 12,3267           43271                           DDV      DAD                                   #                                PL AT 2
001433: 12,3270           02736                                    1-CSTH
001434: 12,3271           77626                           STADR
001435: 12,3272           77760                           STORE    COGAMAX
001436: 12,3273           50000                           BOV      BMN                                   #  IF OVFL, COGAMAX=COGUPLIM
001437: 12,3274           25301                                    UPLIM                                 #  IF NEG, USE EVEN IF LT COGLOLIM, SINCE
001438: 12,3275           25304                                    MAXCOGA                               #        THIS WOULD BE RESET IN LAMBLOOP
001439:                                                                                                  #  Page 1280
001440: 12,3276           50025                           DSU      BMN                                   #  IF COGAMAX GT COGUPLIM, COGAMAX=COGUPLIM
001441: 12,3277           11524                                    COGUPLIM
001442: 12,3300           25304                                    MAXCOGA                               #  OTHERWISE OK, SO GO TO MAXCOGA
001443: 12,3301           77745        UPLIM              DLOAD
001444: 12,3302           11524                                    COGUPLIM                              #  COGUPLIM=.999511597 = MAX VALUE OF COGA
001445: 12,3303           00017                           STORE    COGAMAX                               #        NOT CAUSING OVFL IN R1A CALCULATION
001446: 12,3304           77745        MAXCOGA            DLOAD
001447: 12,3305           02734                                    CSTH
001448: 12,3306           45261                           SR       DSU                                   #                                        PL AT 0
001449: 12,3307           20607                                    6
001450: 12,3310           77626                           STADR
001451: 12,3311           61037                           STODL    CSTH-RHO
001452: 12,3312           02675                                    GEOMSGN
001453: 12,3313           71240                           BMN      DLOAD
001454: 12,3314           25505                                    LOLIM
001455: 12,3315           02740                                    CSTH-RHO
001456: 12,3316           56352                           SL1      DDV
001457: 12,3317           02732                                    SNTH
001458: 12,3320           77600                           BOV
001459: 12,3321           25505                                    LOLIM
001460: 12,3322           00011        MINCOGA            STORE    COGAMIN                               #  COGAMIN (+5)
001461: 12,3323           66214                           BON      SSP
001462: 12,3324           00715                                    GUESSW
001463: 12,3325           25471                                    NOGUESS
001464: 12,3326           00051                                    TWEEKIT
001465: 12,3327           00001                                    00001
001466: 12,3330           77745                           DLOAD
001467: 12,3331           03775                                    COGA
001468:
001469: 12,3332           77605        LAMBLOOP           DMP
001470: 12,3333           02732                                    SNTH
001471: 12,3334           45342                           SR1      DSU
001472: 12,3335           02740                                    CSTH-RHO
001473: 12,3336           65301                           NORM     PDDL                                  #  0D=SNTH COGA-(CSTH-RHO) (+7+C(XI))    PL = 2
001474: 12,3337           00047                                    X1
001475: 12,3340           02736                                    1-CSTH
001476: 12,3341           56257                           SL*      DDV                                   #  1-CSTH (+2)                           PL AT 0
001477: 12,3342           20170                                    0          -9D,1
001478: 12,3343           53040                           BMN      BZE
001479: 12,3344           25421                                    NEGP
001480: 12,3345           25421                                    NEGP
001481: 12,3346           16742                           STODL    P                                     #  P=(1-CSTH)/(SNTH COGA-(CSTH-RHO)) (+4)
001482: 12,3347           03775                                    COGA
001483: 12,3350           43316                           DSQ      DAD
001484: 12,3351           11510                                    D1/1024
001485: 12,3352           41301                           NORM     DMP
001486: 12,3353           00047                                    X1
001487: 12,3354           02742                                    P
001488: 12,3355           44257                           SR*      BDSU
001489:                                                                                                  #  Page 1281
001490: 12,3356           20571                                    0          -8D,1
001491: 12,3357           11506                                    D1/32
001492: 12,3360           16744                           STODL    R1A                                   #  R1A=2-P(1+COGA COGA) (+6)
001493: 12,3361           02742                                    P
001494: 12,3362           45000                           BOV      CALL
001495: 12,3363           25424                                    HIENERGY
001496: 12,3364           24772                                    GETX
001497: 12,3365           77745                           DLOAD
001498: 12,3366           00037                                    T
001499: 12,3367           16764                           STODL    TPREV
001500: 12,3370           00031                                    XI
001501: 12,3371           45014                           BON      CALL
001502: 12,3372           04310                                    INFINFLG
001503: 12,3373           25421                                    NEGP                                  #  HAVE EXCEEDED THEORETICAL BOUNDS
001504: 12,3374           24426                                    DELTIME
001505: 12,3375           44200                           BOV      BDSU
001506: 12,3376           25441                                    BIGTIME
001507: 12,3377           02673                                    TDESIRED
001508: 12,3400           02762                           STORE    TERRLAMB
001509: 12,3401           44246                           ABS      BDSU
001510: 12,3402           03777                                    EPSILONL
001511: 12,3403           47044                           BPL      RTB
001512: 12,3404           25510                                    INITV
001513: 12,3405           24651                                    CHECKCTR
001514: 12,3406           45030                           BHIZ     CALL
001515: 12,3407           25452                                    SUFFCHEK
001516: 12,3410           24543                                    ITERATOR
001517: 12,3411           53145                           DLOAD    BZE
001518: 12,3412           00155                                    MPAC
001519: 12,3413           25452                                    SUFFCHEK
001520: 12,3414           77615                           DAD
001521: 12,3415           03775                                    COGA
001522: 12,3416           03775                           STORE    COGA
001523: 12,3417           77650                           GOTO
001524: 12,3420           25332                                    LAMBLOOP
001525:
001526: 12,3421           51145        NEGP               DLOAD    BPL                                   #  IMPOSSIBLE TRAJECTORY DUE TO INACCURATE
001527: 12,3422           00015                                    DCOGA                                 #  BOUND CALCULATION.  TRY NEW COGA.
001528: 12,3423           25444                                    LOENERGY
001529:
001530: 12,3424           71201        HIENERGY           SETPD    DLOAD                                 #  HIGH ENERGY TRAJECTORY RESULTED.
001531: 12,3425           00001                                    0
001532: 12,3426           03775                                    COGA                                  #  IN OVFL OF P OR R1A, OR XI EXCEEDING 50.
001533: 12,3427           00011                           STORE    COGAMIN                               #  THIS IS THE NEW BOUND.
001534: 12,3430           70545        COMMONLM           DLOAD    SR1
001535: 12,3431           00015                                    DCOGA
001536: 12,3432           00015                           STORE    DCOGA                                 #  USE DCOGA/2 AS DECREMENT
001537:                                                                                                  #  Page 1282
001538: 12,3433           44254                           BZE      BDSU
001539: 12,3434           25452                                    SUFFCHEK
001540: 12,3435           03775                                    COGA
001541: 12,3436           03775                           STORE    COGA
001542: 12,3437           77650                           GOTO                                           #  RESTART THIS LOOP
001543: 12,3440           25332                                    LAMBLOOP
001544:
001545: 12,3441           77745        BIGTIME            DLOAD
001546: 12,3442           02764                                    TPREV
001547: 12,3443           00037                           STORE    T
001548:
001549: 12,3444           71201        LOENERGY           SETPD    DLOAD                                 #  LOW ENERGY TRAJECTORY RESULTED
001550: 12,3445           00001                                    0
001551: 12,3446           03775                                    COGA                                  #  IN OVERFLOW OF TIME.
001552: 12,3447           00017                           STORE    COGAMAX                               #  THIS IS THE NEW BOUND.
001553: 12,3450           77650                           GOTO
001554: 12,3451           25430                                    COMMONLM
001555:
001556: 12,3452           51545        SUFFCHEK           DLOAD    ABS
001557: 12,3453           02762                                    TERRLAMB
001558: 12,3454           41325                           PDDL     DMP
001559: 12,3455           02673                                    TDESIRED                              #                                PL AT 2D
001560: 12,3456           11502                                    D1/4
001561: 12,3457           45215                           DAD      DSU                                   #                                PL AT 0D
001562: 12,3460           11522                                    ONEBIT
001563: 12,3461           43044                           BPL      SETGO
001564: 12,3462           25510                                    INITV
001565: 12,3463           02434                                    SOLNSW
001566: 12,3464           02712                                    RTNLAMB
001567: 12,3465           43001        360LAMB            SETPD    SETGO                                 #  LAMBERT CANNOT HANDLE CSTH=1
001568: 12,3466           00001                                    0
001569: 12,3467           02434                                    SOLNSW
001570: 12,3470           02712                                    RTNLAMB
001571:
001572: 12,3471           71331        NOGUESS            SSP      DLOAD
001573: 12,3472           00051                                    TWEEKIT
001574: 12,3473           10000                                    20000
001575: 12,3474           00011                                    COGAMIN
001576: 12,3475           65342                           SR1      PDDL
001577: 12,3476           00017                                    COGAMAX
001578: 12,3477           43342                           SR1      DAD
001579: 12,3500           77626                           STADR                                          #                                PL AT 0
001580: 12,3501           74002                           STORE    COGA
001581: 12,3502           00015                           STORE    DCOGA
001582:                                                                                                  #  Page 1283
001583: 12,3503           77650                           GOTO
001584: 12,3504           25332                                    LAMBLOOP
001585:                                                                                                  #  There is a handwritten note on the Colossus 249 scan here, which unfortunately
001586:                                                                                                  #  is not completely legible.  It is something like "Dca's from MAXCOGA"
001587:                                                                                                  #  --- RSB 2004
001588: 12,3505           52145        LOLIM              DLOAD    GOTO
001589: 12,3506           11526                                    COGLOLIM                              #  COGLOLIM=-.999511597
001590: 12,3507           25322                                    MINCOGA
001591: 12,3510           60345        INITV              DLOAD    NORM
001592: 12,3511           00041                                    R1
001593: 12,3512           00047                                    X1
001594: 12,3513           70525                           PDDL     SR1                                   #                                PL AT 2
001595: 12,3514           02742                                    P
001596: 12,3515           77671                           DDV                                            #                                PL AT 0
001597: 12,3516           75457                           SL*      SQRT
001598: 12,3517           20175                                    0          -4,1
001599: 12,3520           72405                           DMP      SL1
001600: 12,3521           00021                                    ROOTMU
001601: 12,3522           41206                           PUSH     DMP                                   #  0D=VTAN (+7)                  PL AT 2
001602: 12,3523           03775                                    COGA
001603: 12,3524           74261                           SL       VXSC
001604: 12,3525           20206                                    5
001605: 12,3526           02724                                    UR1
001606: 12,3527           77725                           PDDL                                           #  XCH WITH 0D                   PL AT 0,6
001607: 12,3530           76561                           VXSC     VSL1
001608: 12,3531           02676                                    UN
001609: 12,3532           53235                           VXV      VAD
001610: 12,3533           02724                                    UR1                                   #                                PL AT 0
001611: 12,3534           43172                           VSL1     CLEAR
001612: 12,3535           02674                                    SOLNSW
001613: 12,3536           02746                           STORE    VVEC
001614: 12,3537           53135                           SLOAD    BZE
001615: 12,3540           02704                                    VTARGTAG
001616: 12,3541           25544                                    TARGETV
001617: 12,3542           77650                           GOTO
001618: 12,3543           02712                                    RTNLAMB
001619:
001620: 12,3544           45145        TARGETV            DLOAD    CALL
001621: 12,3545           02722                                    MAGVEC2
001622: 12,3546           24706                                    LAMENTER
001623: 12,3547           02705                           STORE    VTARGET
001624: 12,3550           77650                           GOTO
001625: 12,3551           02712                                    RTNLAMB
001626:
001627:                                                                                                  #  Page 1284
001628: 12,3552           40220        TIMERAD            STQ      SETPD                                 #                                PL AT 0
001629: 12,3553           02712                                    RTNTR
001630: 12,3554           00001                                    0
001631: 12,3555           63375                           VLOAD    PDVL                                  #                                PL AT 6
001632: 12,3556           02657                                    RVEC
001633: 12,3557           02746                                    VVEC
001634: 12,3560           77624                           CALL
001635: 12,3561           11527                                    PARAM
001636: 12,3562           71200                           BOV      DLOAD
001637: 12,3563           24767                                    COGAOVFL                              #                                PL AT 0
001638: 12,3564           11506                                    D1/32
001639: 12,3565           41225                           DSU      DMP
001640: 12,3566           02744                                    R1A
001641: 12,3567           02742                                    P
001642: 12,3570           41366                           SQRT     DMP
001643: 12,3571           03775                                    COGA
001644: 12,3572           74212                           SL4      VXSC
001645: 12,3573           02714                                    U2
001646: 12,3574           45325                           PDDL     DSU                                   #                                PL AT 6
001647: 12,3575           11500                                    D1/64
001648: 12,3576           02744                                    R1A
001649: 12,3577           52361                           VXSC     VSU                                   #                                PL AT 0
001650: 12,3600           02724                                    UR1
001651: 12,3601           53512                           VSL4     UNIT
001652: 12,3602           77600                           BOV
001653: 12,3603           25465                                    360LAMB                               #  NO SOLUTION SINCE CONIC IS A CIRCLE
001654: 12,3604           60325                           PDDL     NORM                                  #  0D=UNIT(ECC) (+3)             PL AT 6
001655: 12,3605           02760                                    RDESIRED                              #  35D=ECC (+3)
001656: 12,3606           00047                                    X1
001657: 12,3607           41325                           PDDL     DMP                                   #                                PL AT 8
001658: 12,3610           00041                                    R1
001659: 12,3611           02742                                    P
001660: 12,3612           56257                           SL*      DDV                                   #                                PL AT 6
001661: 12,3613           20201                                    0,1
001662: 12,3614           56225                           DSU      DDV
001663: 12,3615           11504                                    D1/16
001664: 12,3616           00045                                    36D                                   #  36D=ECC (+3)
001665: 12,3617           00031                           STORE    COSF
001666: 12,3620           63400                           BOV      DSQ
001667: 12,3621           25661                                    BADR2
001668: 12,3622           50021                           BDSU     BMN
001669: 12,3623           11502                                    D1/4
001670: 12,3624           25661                                    BADR2
001671: 12,3625           75366                           SQRT     SIGN
001672: 12,3626           02757                                    SGNRDOT
001673: 12,3627           77614                           CLEAR
001674: 12,3630           04272                                    APSESW
001675:
001676: 12,3631           76561        TERMNVEC           VXSC     VSL1
001677: 12,3632           02676                                    UN
001678:                                                                                                  #  Page 1285
001679: 12,3633           63235                           VXV      PDVL                                  #  VXCH WITH 0D          PL AT 0,6
001680: 12,3634           00001                                    0D
001681: 12,3635           53361                           VXSC     VAD                                   #                        PL AT 0
001682: 12,3636           00031                                    COSF
001683: 12,3637           41572                           VSL1     PUSH                                  #  0D=U2                 PL AT 6
001684:
001685: 12,3640           56241                           DOT      DDV                                   #  LIMITS RESULT TO POSMAX OR NEGMAX
001686: 12,3641           02724                                    UR1
001687: 12,3642           23701                                    DP1/4
001688: 12,3643           40142                           SR1      BOV                                   #  SCALE BACK DOWN TO NORMAL
001689: 12,3644           25645                                    +1                                    #  CLEAR OVFIND IF SET
001690: 12,3645           26734                           STOVL    CSTH                                  #  CSTH (+1)
001691: 12,3646           02724                                    UR1
001692: 12,3647           76435                           VXV      VSL1
001693: 12,3650           72441                           DOT      SL1
001694: 12,3651           02676                                    UN
001695: 12,3652           16732                           STODL    SNTH                                  #  SNTH (+1)
001696: 12,3653           02742                                    P
001697: 12,3654           77624                           CALL
001698: 12,3655           24772                                    GETX
001699: 12,3656           77614                           CLRGO
001700: 12,3657           02634                                    SOLNSW
001701: 12,3660           24752                                    COMMNOUT
001702:
001703: 12,3661           75345        BADR2              DLOAD    SIGN
001704: 12,3662           11454                                    LODPHALF
001705: 12,3663           00031                                    COSF
001706: 12,3664           14031                           STODL    COSF
001707: 12,3665           11456                                    KEPZERO
001708: 12,3666           77614                           SETGO
001709: 12,3667           04032                                    APSESW
001710: 12,3670           25631                                    TERMNVEC
001711:
001712: 12,3671           40220        APSIDES            STQ      SETPD                                 #                        PL AT 0
001713: 12,3672           02712                                    RTNAPSE
001714: 12,3673           00001                                    0D
001715: 12,3674           63375                           VLOAD    PDVL                                  #                        PL AT 6
001716: 12,3675           02657                                    RVEC
001717: 12,3676           02746                                    VVEC
001718: 12,3677           77624                           CALL
001719: 12,3700           11527                                    PARAM
001720: 12,3701           77600                           BOV                                            #                        PL AT 0
001721: 12,3702           25703                                    GETECC
001722: 12,3703           42405        GETECC             DMP      SL4
001723: 12,3704           02744                                    R1A
001724: 12,3705           75421                           BDSU     SQRT
001725: 12,3706           11500                                    D1/64
001726: 12,3707           02754                           STORE    ECC
001727: 12,3710           65215                           DAD      PDDL                                  #                        PL AT 2
001728: 12,3711           11474                                    D1/8
001729:                                                                                                  #  Page 1286
001730: 12,3712           00041                                    R1
001731: 12,3713           72405                           DMP      SL1
001732: 12,3714           02742                                    P
001733: 12,3715           77671                           DDV                                            #                        PL AT 0
001734: 12,3716           60325                           PDDL     NORM                                  #  0D=RP (+29 OR +27)    PL AT 2
001735: 12,3717           02744                                    R1A
001736: 12,3720           00047                                    X1
001737: 12,3721           53725                           PDDL     SL*                                   #                        PL AT 4
001738: 12,3722           00041                                    R1
001739: 12,3723           20174                                    0          -5,1
001740: 12,3724           45271                           DDV      DSU                                   #                        PL AT 2,0
001741: 12,3725           50000                           BOV      BMN
001742: 12,3726           25732                                    INFINAPO
001743: 12,3727           25732                                    INFINAPO
001744: 12,3730           77650                           GOTO
001745: 12,3731           02712                                    RTNAPSE
001746: 12,3732           52145        INFINAPO           DLOAD    GOTO                                  #  RETURNS WITH APOAPSIS IN MPAC, PERIAPSIS
001747: 12,3733           11467                                    LDPOSMAX
001748: 12,3734           02712                                    RTNAPSE                               #  THAT PL IS AT 0.
001749:
001750:                                                                                                  #  Page 1287
001751: 04,2000                                           SETLOC   CONICS1
001752: 04,2000                                           BANK
001753:
001754: 04,3630                                           COUNT    04/CONIC
001755:
001756: 04,3630           22437 16067  MUTABLE            2DEC*    3.986032   E10        B-36*           #  MUE
001757: 04,3632           15625 21042                     2DEC*    .25087606  E-10       B+34*           #  1/MUE
001758: 04,3634           30276 04773                     2DEC*    1.99650495 E5         B-18*           #  SQRT(MUE)
001759: 04,3636           25004 06702                     2DEC*    .50087529  E-5        B+17*           #  1/SQRT(MUE)
001760:
001761: 04,3640           16471 01352                     2DEC     4.902778   E8         B-30            #  MUM
001762: 04,3642           21412 20500                     2DEC     .203966    E-8        B+28            #  1/MUM
001763: 04,3644           25477 03367                     2DEC*    2.21422176 E4         B-15*           #  SQRT(MUM)
001764: 04,3646           27533 07571                     2DEC*    .45162595  E-4        B+14*           #  1/SQRT(MUM)
001765:
001766: 04,3650  04,3466               LDPOSMAX           EQUALS   LODPMAX                               #  DPPOSMAX IN LOW MEMORY.
001767:
001768:                                                                                                  #  ERASABLE ASSIGNEMENTS
001769:                                                                                                  #  KEPLER SUBROUTINE
001770:
001771:                                                                                                  #  INPUT --
001772:                                                                                                  #  RRECT         ERASE   +5
001773:                                                                                                  #  VRECT         ERASE   +5
001774:                                                                                                  #  TAU.          ERASE   +1
001775:                                                                                                  #  XKEP          ERASE   +1
001776:                                                                                                  #  TC            ERASE   +1
001777:                                                                                                  #  XPREV         ERASE   +1
001778: 04,3650                        1/MU               EQUALS   14D
001779: 04,3650                        ROOTMU             EQUALS   16D
001780: 04,3650                        1/ROOTMU           EQUALS   18D
001781:
001782:                                                                                                  #  OUTPUT --
001783:                                                                                                  #  RCV           ERASE   +5
001784:                                                                                                  #  VCV           ERASE   +5
001785:                                                                                                  #  RC            ERASE   +1
001786:                                                                                                  #  XPREV         ERASE   +1
001787:
001788:                                                                                                  #  DEBRIS --
001789: 04,3650                        ALPHA              EQUALS   8D
001790: 04,3650                        XMAX               EQUALS   10D
001791:                                                                                                  #  Page 1288
001792: 04,3650                        XMIN               EQUALS   12D
001793: 04,3650                        X                  EQUALS   20D
001794: 04,3650                        XI                 EQUALS   24D
001795: 04,3650                        S(XI)              EQUALS   26D
001796: 04,3650                        XSQC(XI)           EQUALS   28D
001797: 04,3650                        T                  EQUALS   30D
001798: 04,3650                        R1                 EQUALS   32D
001799: 04,3650                        KEPC1              EQUALS   34D
001800: 04,3650                        KEPC2              EQUALS   36D
001801:
001802:                                                                                                  #  DELX          ERASE   +1
001803:                                                                                                  #  DELT          ERASE   +1
001804:                                                                                                  #  URRECT        ERASE   +5
001805:                                                                                                  #  RCNORM        ERASE   +1
001806:                                                                                                  #  XPREV         EQUALS  XKEP
001807:
001808:
001809:                                                                                                  #  LAMBERT SUBROUTINE
001810:
001811:                                                                                                  #  INPUT --
001812:                                                                                                  #  R1VEC         ERASE   +5
001813:                                                                                                  #  R2VEC         ERASE   +5
001814:                                                                                                  #  TDESIRED      ERASE   +1
001815:                                                                                                  #  GEOMSGN       ERASE   +0
001816:                                                                                                  #  GUESSW                        # 0 IF COGA GUESS AVIABLE, 1 IF NOT
001817:                                                                                                  #  COGA          ERASE   +1      # INPUT ONLY IF GUESS IS ZERO.
001818:                                                                                                  #  NORMSW                        # 0 IF UN TO BE COMPUTED, 1 IF UN INPUT
001819:                                                                                                  #  UN            ERASE   +5      # ONLY USEC IF NORMSE IS 1
001820:                                                                                                  #  VTARGTAG      ERASE   +0
001821:                                                                                                  #  TWEEKIT       EQUALS  40D     # ONLY USED IF GUESSW IS 0
001822:
001823:                                                                                                  #  OUTPUT --
001824:                                                                                                  #  VTARGET       ERASE   +5      # AVAILABLE ONLY IF VTARGTAG IS ZERO.
001825:                                                                                                  #  V1VEC         EQUALS  MPAC
001826:
001827:                                                                                                  #  DEBRIS --
001828:                                                                                                  #  RTNLAMB       ERASE   +0
001829:                                                                                                  #  U2            ERASE   +5
001830:                                                                                                  #  MAGVEC2       ERASE   +1
001831:                                                                                                  #  UR1           ERASE   +5
001832:                                                                                                  #  R1            EQUALS  31D
001833:                                                                                                  #  UN            ERASE   +5
001834:                                                                                                  #  SNTH          ERASE   +1
001835:                                                                                                  #  CSTH          ERASE   +1
001836:                                                                                                  #  1-CSTH        ERASE   +1
001837:                                                                                                  #  CSTH-RHO      ERASE   +1
001838:
001839: 04,3650                        COGAMAX            EQUALS   14D                                   #  CLOBBERS 1/MU
001840: 04,3650                        COGAMIN            EQUALS   8D
001841: 04,3650                        DCOGA              EQUALS   12D
001842:
001843:                                                                                                  #  TWEEKIT       EQUALS  40D
001844:                                                                                                  #  P             ERASE   +1
001845:                                                                                                  #  Page 1289
001846:                                                                                                  #  COGA          ERASE   +1
001847:                                                                                                  #  R1A           ERASE   +1
001848:                                                                                                  #  X             EQUALS  20D
001849:                                                                                                  #  XSQ           EQUALS  22D
001850:                                                                                                  #  XI            EQUALS  24D
001851:                                                                                                  #  S(XI)         EQUALS  26D
001852:                                                                                                  #  XSQC(XI)      EQUALS  28D
001853:                                                                                                  #  T             EQUALS  30D
001854:                                                                                                  #  KEPC1         EQUALS  34D
001855:                                                                                                  #  KEPC2         EQUALS  36D
001856:                                                                                                  #  SLOPSW
001857:                                                                                                  #  SOLNSW
001858:
001859:                                                                                                  #  OTHERS --
001860:                                                                                                  #  RVEC          EQUALS  R1VEC
001861:                                                                                                  #  VVEC          ERASE   +5
001862:                                                                                                  #  COGAFLAG
001863:                                                                                                  #  RVSW
001864:                                                                                                  #  INFINFLG
001865:                                                                                                  #  APSESW
001866:                                                                                                  #  360SW
001867:                                                                                                  #  RTNTT         EQUALS  RTNLAMB
001868:                                                                                                  #  ECC           ERASE   +1
001869:                                                                                                  #  RTNTR         EQUALS  RTNLAMB
001870:                                                                                                  #  RTNAPSE       EQUALS  RTNLAMB
001871:                                                                                                  #  R2            EQUALS  MAGVEC2
001872:
001873: 04,3650                        COSF               EQUALS   24D
001874:
001875:                                                                                                  #  RTNPRM        ERASE   +0
001876:                                                                                                  #  SCNRDOT       ERASE   +0
001877:                                                                                                  #  RDESIRED      ERASE   +1
001878:
001879:
001880:                                                                                                  #  ITERATOR SUBROUTINE
001881:                                                                                                  #  ORDERSW
001882: 04,3650                        MAX                EQUALS   14D                                   #  CLOBBERS 1/MU
001883: 04,3650                        MIN                EQUALS   8D
001884:
001885:                                                                                                  #  INDEP         ERASE   +1
001886:
001887: 04,3650                        DELINDEP           EQUALS   12D
001888: 04,3650                        ITERCTR            EQUALS   22D
001889: 04,3650                        DEP                EQUALS   30D
001890:
001891:                                                                                                  #  DELDEP        ERASE   +1
001892:                                                                                                  #  DEPREV        ERASE   +1
001893:
001894: 04,3650                        TWEEKIT            EQUALS   40D
001895:
001896:
001897:                                                                                                  #  MORE KEPLER
001898:                                                                                                  #  EPSILONT      ERASE   +1
001899:
001900:                                                                                                  #  Page 1290
001901:                                                                                                  #  MORE LAMBERT
001902:                                                                                                  #  TERRLAMB      EQUALS  DELDEP
001903:                                                                                                  #  TPREV         EQUALS  DEPREV
001904:                                                                                                  #  EPSILONL      EQUALS  EPSILONT +2     # DOUBLE PRECISION WORD
001905:
001906:

End of include-file CONIC_SUBROUTINES.agc.  Parent file is MAIN.agc


