
Source Code


000002:                                                                                                  ## Copyright:   Public domain.
000003:                                                                                                  ## Filename:    CONIC_SUBROUTINES.agc
000004:                                                                                                  ## Purpose:     Part of the source code for Colossus, build 249.
000005:                                                                                                  ##              It is part of the source code for the Command Module's (CM)
000006:                                                                                                  ##              Apollo Guidance Computer (AGC), for Apollo 9.
000007:                                                                                                  ## Assembler:   yaYUL
000008:                                                                                                  ## Reference:   Starts on p. 1232
000009:                                                                                                  ## Contact:     Ron Burkey <info@sandroid.org>.
000010:                                                                                                  ## Website:     www.ibiblio.org/apollo.
000011:                                                                                                  ## Mod history: 08/29/04 RSB.   Began converting from corresponding Luminary131 file.
000012:                                                                                                  ##              2017-01-06 RSB  Page numbers now agree with those on the
000013:                                                                                                  ##                              original harcopy, as opposed to the PDF page
000014:                                                                                                  ##                              numbers in 1701.pdf.
000015:                                                                                                  ##              2017-01-07 RSB  Cross-diff'd comment text (not whitespace)
000016:                                                                                                  ##                              vs the already-proofed corresponding Colossus
000017:                                                                                                  ##                              237 and Comanche 55 source-code files
000018:                                                                                                  ##                              and corrected errors found.
000019:                                                                                                  ##              2017-01-21 RSB  Back-ported comment error fixes detected in diff'ing
000020:                                                                                                  ##                              Artemis 72 vs Comanche 55.
000021:                                                                                                  ##              2017-01-28 RSB  WTIH -> WITH.
000022:                                                                                                  ##
000023:                                                                                                  ## The contents of the "Colossus249" files, in general, are transcribed
000024:                                                                                                  ## from a scanned copy of the program listing.  Notations on this
000025:                                                                                                  ## document read, in part:
000026:                                                                                                  ##
000027:                                                                                                  ##      Assemble revision 249 of AGC program Colossus by NASA
000028:                                                                                                  ##      2021111-041.  October 28, 1968.
000029:                                                                                                  ##
000030:                                                                                                  ##      This AGC program shall also be referred to as
000031:                                                                                                  ##                              Colossus 1A
000032:                                                                                                  ##
000033:                                                                                                  ##      Prepared by
000034:                                                                                                  ##                      Massachusetts Institute of Technology
000035:                                                                                                  ##                      75 Cambridge Parkway
000036:                                                                                                  ##                      Cambridge, Massachusetts
000037:                                                                                                  ##      under NASA contract NAS 9-4065.
000038:                                                                                                  ##
000039:                                                                                                  ## Refer directly to the online document mentioned above for further information.
000040:                                                                                                  ## Please report any errors (relative to the scanned pages) to info@sandroid.org.
000041:                                                                                                  ##
000042:                                                                                                  ## In some cases, where the source code for Luminary 131 overlaps that of
000043:                                                                                                  ## Colossus 249, this code is instead copied from the corresponding Luminary 131
000044:                                                                                                  ## source file, and then is proofed to incorporate any changes.
000045:


000047:                                                                                                  #  PROGRAM DESCRIPTION - ENTIRE CONIC SUBROUTINE LOG SECTION     DATE - 1 SEPTEMBER 1967
000048:                                                                                                  #  MOD NO. - 0                                                   LOG SECTION - CONIC SUBROUTINES
000049:                                                                                                  #  MOD BY KRAUSE                                                 ASSEMBLY - COLOSSUS REVISION 88
000050:
000051:                                                                                                  #  FUNCTIONAL DESCRIPTION -
000052:                                                                                                  #        THE FOLLOWING SET OF SUBROUTINES SOLVE VARIOUS PROBLEMS INVOLVING THE TRAJECTORY PRODUCED BY A CENTRAL
000053:                                                                                                  #        INVERSE-SQUARE FORCE ACTING ON A POINT MASS, AS OUTLINED IN THE CMC AND LGC LUNAR LANDING MISSION GSOP, SECTION
000054:                                                                                                  #        5.5.1.2.  A GENERAL USAGE POINT-OF-VIEW WAS TAKEN IN FORMULATING, MECHANIZING, AND SCALING THE SUBROUTINES,
000055:                                                                                                  #        RATHER THAN OPTIMIZING EACH FOR A PARTICULAR USE.  THEREFORE, MULTIPLE USAGE CAN BE MADE OF THE SUBROUTINES
000056:                                                                                                  #        INVOLVING ANY REALISTIC SET OF CONSTRAINTS.  IT SHOULD BE NOTED THAT ONLY ONE SET OF CODING IS USED, WHETHER THE
000057:                                                                                                  #        EARTH, MOON, OR ANY OTHER CELESTIAL BODY IS SPECIFIED AS THE CENTRAL BODY OF THE PROBLEM, PROVIDED ONE OBSERVES
000058:                                                                                                  #        THE INHERENT SCALE CHANGE REQUIRED IN POSITION, VELOCITY, MU, AND TIME, AS OUTLINED IN MISSION PROGRAMMING
000059:                                                                                                  #        DEFINITION MEMO NO. 10.  THIS CAN BE ACCOMPLISHED BY SIMPLY ADDING TO THE MUTABLE AND INITIALIZING THE SUBROU-
000060:                                                                                                  #        TINES APPROPRIATELY.
000061:
000062:                                                                                                  #        DUE TO THE UNIFORMITY OF THE EQUATIONS INVOLVED, CODING WAS MINIMIZED BY TREATING INDIVIDUAL EQUATIONS AND
000063:                                                                                                  #        BLOCKS OF EQUATIONS AS SUBROUTINES OF LOWER RANK WHENEVER POSSIBLE.  AS A RESULT, THREE BY-PRODUCTS SUBROUTINES,
000064:                                                                                                  #        DIRECTLY USABLE AS INDEPENDENT SUBROUTINES, WERE GENERATED.
000065:
000066:                                                                                                  #  RESTRICTIONS -
000067:                                                                                                  #        THE ONLY LIMITATION IN THE SCOPE OF PROBLEM WHICH CAN BE SOLVED BY A PARTICULAR SUBROUTINE IS THE SCALING
000068:                                                                                                  #        LIMIT OF EACH PARAMETER AS SPECIFIED IN THE GSOP.  THESE SCALING LIMITS WERE CHOSEN SO THAT ALL FEASIBLE TRAJEC-
000069:                                                                                                  #        TORIES COULD BE HANDLED.
000070:
000071:                                                                                                  #        SINCE THE SUBROUTINES (EXCEPT KEPLER) USE COMMON SUBROUTINES OF LOWER RANK WHICH USE ERASABLE OTHER THAN
000072:                                                                                                  #        THE PUSHLIST (DUE TO ITS LIMITED SIZE) AND COMMON INTERPRETIVE SWITCHES, THE CONIC SUBROUTINES CANNOT BE ALLOWED
000073:                                                                                                  #        TO INTERRUPT EACH OTHER.  IT IS UP TO THE USER TO GUARANTEE THIS CONDITION.
000074:


000076:                                                                                                  #  PROGRAM DESCRIPTION - KEPLER SUBROUTINE                       DATE - 11 OCTOBER 1967
000077:                                                                                                  #  MOD NO. -1                                                    LOG SECTION - CONIC SUBROUTINES
000078:                                                                                                  #  MOD BY KRAUSE                                                 ASSEMBLY - COLOSSUS 103 AND SUNDANCE 222
000079:
000080:                                                                                                  #  FUNCTIONAL DESCRIPTION -
000081:                                                                                                  #        THIS SUBROUTINE, GIVEN AN INITIAL STATE VECTOR AND THE DESIRED TRANSFER TIME THROUGH WHICH THE STATE IS TO
000082:                                                                                                  #        BE UPDATED ALONG A CONIC TRAJECTORY, COMPUTES THE NEW, UPDATED STATE VECTOR.  THE TRAJECTORY MAY BE ANY CONIC
000083:                                                                                                  #        SECTION - CIRCULAR, ELLIPTIC, PARABOLIC, HYPERBOLIC, OR RECTILINEAR WITH RESPECT TO THE EARTH OR THE MOON. THE
000084:                                                                                                  #        USE OF THE SUBROUTINE CAN BE EXTENDED USING OTHER PRIMARY BODIES BY SIMPLE ADDITIONS TO THE MUTABLE WITHOUT
000085:                                                                                                  #        INTRODUCING ANY CODING CHANGES, ACCEPTING THE INHERENT SCALE FACTOR CHANGES IN POSITION AND VELOCITY.  AN ITERA-
000086:                                                                                                  #        TION TECHNIQUE IS UTILIZED IN THE COMPUTATION.
000087:
000088:                                                                                                  #        IF A NEGATIVE TIME-OF-FLIGHT IS INPUT, THE PROGRAM WILL SOLVE FOR THE STATE WHICH WOULD BE PRODUCED BY
000089:                                                                                                  #        EXTRAPOLATING THE POSITION BACKWARD IN TIME.
000090:
000091:                                                                                                  #        IF THE DESIRED TRANSFER TIME IS POSITIVE AND EXCEEDS THE ORBITAL PERIOD, THE SUBROUTINE, THROUGH A MODULAR
000092:                                                                                                  #        TECHNIQUE, WILL COMPUTE THE STATE CORRESPONDING TO THE DESIRED TIME AS USUAL.
000093:
000094:                                                                                                  #  THE RESTRICTIONS ARE -
000095:                                                                                                  #        1.      A NEGATIVE DESIRED TIME MUST BE LESS THAN ONE PERIOD IN MAGNITUDE.  IF GREATER, THE ONE-PERIOD-SOLUTION
000096:                                                                                                  #                WILL BE RETURNED.
000097:                                                                                                  #        2.      THE PARAMETERS IN THE PROBLEM CANNOT EXCEED THEIR SCALING LIMITS AS SPECIFIED IN THE GSOP.  IF
000098:                                                                                                  #                ANY OF THESE LIMITS ARE EXCEEDED, THE RESULTING SOLUTION WILL BE MEANINGLESS.
000099:
000100:                                                                                                  #        THE NUMBER OF ITERATIONS AND, THEREFORE, THE COMPUTATION SPEED IS DEPENDENT ON THE ACCURACY OF THE
000101:                                                                                                  #        GUESS, XKFPNEW.  THE AGC COMPUTATION TIME IS APPROXIMATELY .061 SECONDS FOR INITIALIZATION, .065 SECONDS FOR THE
000102:                                                                                                  #        FINAL COMPUTATIONS, PLUS .083 SECONDS FOR EACH ITERATION.
000103:
000104:                                                                                                  #  REFERENCES -
000105:                                                                                                  #        R-479, MISSION PROGRAMMING DEFINITION MEMO NO. 10, LUNAR LANDING MISSION GSOP, SECTION 5.5, SGA
000106:                                                                                                  #        MEMO 67-4.
000107:
000108:                                                                                                  #  INPUT - ERASABLE INITIALIZATION REQUIRED
000109:                                                                                                  #          * SCALE FACTOR *
000110:                                                                                                  #  VARIABLE*IN POWERS OF 2*                         DESCRIPTION AND REMARKS
000111:                                                                                                  #  --------*--------------*                         -----------------------
000112:                                                                                                  #  RRECT   * +29 FOR EARTH*DP INITIAL POSITION VECTOR IN METERS
000113:                                                                                                  #          * +27 FOR MOON *
000114:                                                                                                  #  VRECT   * +7 FOR EARTH *DP INITIAL VELOCITY VECTOR IN METERS/CENTISECOND
000115:                                                                                                  #          * +5 FOR MOON  *
000116:                                                                                                  #  X1 (38D)* NONE         *INDEX REGISTER SET TO -2D OR -10D ACCORDING TO WHETHER THE EARTH OR MOON,
000117:                                                                                                  #          *              *RESPECTIVELY, IS THE CENTRAL BODY
000118:                                                                                                  #  TAU.    * +28          *DESIRED TRANSFER TIME IN CENTISECONDS (DP)


000120:                                                                                                  #  XKEPNEW * +17 FOR EARTH*GUESS OF X IN METERS-TO-THE-ONE-HALF FROM KEPPREP
000121:                                                                                                  #          * +16 FOR MOON *(DP)
000122:                                                                                                  #  TC      * +28          *DP PREV. VALUE OF TIME IN CENTISECS FROM KEPPREP
000123:                                                                                                  #  XPREV   * +17 FOR EARTH*PREVIOUS VALUE OF X IN METERS-TO-THE-ONE-HALF POWER FROM KEPPREP (DP)
000124:                                                                                                  #          * +16 FOR MOON *(DP)
000125:
000126:                                                                                                  #  SUBROUTINES CALLED -
000127:                                                                                                  #        DELTIME
000128:
000129:                                                                                                  #  CALLING SEQUENCE AND NORMAL EXIT MODES -
000130:                                                                                                  #        KEPRTN-2        GOTO                    MUST BE IN INTERPRETIVE MODE AND OVFIND MUST BE CLEAR
000131:                                                                                                  #        KEPRTN-1                KEPLER          RETURNS WITH XPREV IN MPAC.  PL IS AT 0.
000132:                                                                                                  #        KEPRTN          ...                     CONTINUE
000133:
000134:                                                                                                  #        KEPLER MUST NOT BE CALLED DIRECTLY SINCE AN INTERRUPTION OF IT WOULD DESTROY THE ERASABLES IT NEEDS TO COMPLETE
000135:                                                                                                  #        THE INTERRUPTED JOB.  THEREFORE THE USER MUST CALL CSMCONIC OR LEMCONIC WHICH GUARANTEES NO INTERRUPTS AND WHICH
000136:                                                                                                  #        ALSO CALLS KEPPREP TO COMPUTE A GUESS OF XKEPNEW.
000137:
000138:                                                                                                  #  ABORT EXIT MODES -
000139:                                                                                                  #        NONE
000140:
000141:                                                                                                  #  OUTPUT -
000142:                                                                                                  #          * SCALE FACTOR *
000143:                                                                                                  #  VARIABLE*IN POWERS OF 2*                         DESCRIPTION AND REMARKS
000144:                                                                                                  #  --------*--------------*                         -----------------------
000145:                                                                                                  #  RCV     * +29 FOR EARTH*DP TERMINAL POSITION VECTOR IN METERS
000146:                                                                                                  #          * +27 FOR MOON *
000147:                                                                                                  #  VCV     * +7 FOR EARTH *DP TERMINAL VELOCITY VECTOR IN METERS/CENTISEC
000148:                                                                                                  #          * +5 FOR MOON  *
000149:                                                                                                  #  TC      * +28          *DP TRANSFER TIME IN CENTISECS TO WHICH KEPLER CONVERGED.
000150:                                                                                                  #  XPREV   * +17 FOR EARTH*DP X IN METERS-TO-THE-ONE-HALF-POWER TO WHICH KEPLER CONVERGED.
000151:                                                                                                  #          * +16 FOR MOON *(DP)
000152:                                                                                                  #        FOR OTHER OUTPUT WHICH MAY BE OF USE, SEE DEBRIS.
000153:
000154:                                                                                                  #  DEBRIS -
000155:                                                                                                  #        PARAMETERS WHICH MAY BE OF USE -


000157:                                                                                                  #          * SCALE FACTOR *
000158:                                                                                                  #  VARIABLE*IN POWERS OF 2*                         DESCRIPTION AND REMARKS
000159:                                                                                                  #  --------*--------------*                         -----------------------
000160:                                                                                                  #  URRECT  * +1           *DP UNIT VECTOR OF INITIAL POSITION
000161:                                                                                                  #  R1      * +29 FOR EARTH*DP MAGNITUDE OF INITIAL POSITION IN METERS
000162:                                                                                                  #          * +27 FOR MOON *
000163:                                                                                                  #  ALPHA   * -22 FOR EARTH*DP INVERSE OF SEMIMAJOR AXIS IN 1/METERS
000164:                                                                                                  #          * -20 FOR MOON *
000165:                                                                                                  #  TMODULO * +28          *DP INTEGRAL NUMBER OF PERIODS IN  CENTISECS. WHICH WAS SUBTRACTED FROM TAU. TO PRODUCE A
000166:                                                                                                  #          *              *TAU. OF LESS THAN ONE PERIOD.
000167:
000168:                                                                                                  #  PARAMETERS OF NO USE -
000169:                                                                                                  #        DP PARAMETERS - EPSILONT, DELX, DELT, RCNORM, XMODULO, PLUS PUSHLIST REGISTERS 0 THROUGH 39D.
000170:


000172:                                                                                                  #  PROGRAM DESCRIPTION - LAMBERT SUBROUTINE                      DATE - 1 SEPTEMBER 1967
000173:                                                                                                  #  MOD NO. - 0                                                   LOG SECTION - CONIC SUBROUTINES
000174:                                                                                                  #  MOD BY KRAUSE                                                 ASSEMBLY - COLOSSUS REVISION 88
000175:
000176:                                                                                                  #  FUNCTIONAL DESCRIPTION -
000177:                                                                                                  #        THIS SUBROUTINE CALCULATES THE INITIAL VELOCITY REQUIRED TO TRANSFER A POINT-MASS ALONG A CONIC TRAJECTORY
000178:                                                                                                  #        FROM AN INITIAL POSITION TO A TERMINAL POSITION IN A PRESCRIBED TIME INTERVAL.  THE RESULTING TRAJECTORY MAY BE
000179:                                                                                                  #        A SECTION OF A CIRCLE, ELLIPSE, PARABOLA, OR HYPERBOLA WITH RESPECT TO THE EARTH OR THE MOON.  THE USE OF THE
000180:                                                                                                  #        SUBROUTINE CAN BE EXTENDED USING OTHER PRIMARY BODIES BY SIMPLE ADDITIONS TO THE MUTABLE WITHOUT INTRODUCING ANY
000181:                                                                                                  #        CODING CHANGES, ACCEPTING THE INHERENT SCALE FACTOR CHANGES IN POSITION AND VELOCITY.  AN ITERATION TECHNIQUE IS
000182:                                                                                                  #        UTILIZED IN THE COMPUTATION.
000183:
000184:                                                                                                  #  THE RESTRICTIONS ARE -
000185:                                                                                                  #        1. RECTILINEAR TRAJECTORIES CANNOT BE COMPUTED.
000186:                                                                                                  #        2. AN ACCURACY DEGRADATION OCCURS AS THE COSINE OF THE TRUE ANOMALY DIFFERENCE APPROACHES +1.0.
000187:                                                                                                  #        3. THE ANGLE BETWEEN ANY POSITION VECTOR AND ITS VELOCITY VECTOR MUST BE GREATER THAN 1 DEGREE 47.5 MINUTES
000188:                                                                                                  #           AND LESS THAN 178 DEGREES 12.5 MINUTES.
000189:                                                                                                  #        4. NEGATIVE TRANSFER TIME IS AMBIGUOUS AND WILL RESULT IN NO SOLUTION.
000190:                                                                                                  #        5. THE PARAMETERS IN THE PROBLEM MUST NOT EXCEED THEIR SCALING LIMITS SPECIFIED IN THE GSOP.  IF THE
000191:                                                                                                  #           LIMITS ARE EXCEEDED, THE RESULTING SOLUTION WILL BE MEANINGLESS.
000192:
000193:                                                                                                  #        THE NUMBER OF ITERATIONS AND, THEREFORE, THE COMPUTATIONS SPEED IS DEPENDENT ON THE ACCURACY OF THE FIRST
000194:                                                                                                  #        GUESS OF THE INDEPENDENT VARIABLE, COGA.  THE AGC COMPUTATION TIME IS APPROXIMATE-
000195:                                                                                                  #        LY .105 SECONDS FOR INITIALIZATION, .069 SECONDS FOR FINAL COMPUTATIONS, PLUS .205 SECONDS FOR EACH ITERATION.
000196:
000197:                                                                                                  #  REFERENCES -
000198:                                                                                                  #        R-479, MISSION PROGRAMMING DEFINITION MEMO NO. 10, LUNAR LANDING MISSION GSOP - SECTION 5.5, SGA MEMO 67-8,
000199:                                                                                                  #        SGA MEMO 67-4.
000200:
000201:                                                                                                  #  INPUT - ERASABLE INITIALIZATION REQUIRED
000202:                                                                                                  #          * SCALE FACTOR *
000203:                                                                                                  #  VARIABLE*IN POWERS OF 2*                         DESCRIPTION AND REMARKS
000204:                                                                                                  #  --------*--------------*                         -----------------------
000205:                                                                                                  #  R1VEC   * +29 FOR EARTH*DP INITIAL POSITION VECTOR IN METERS
000206:                                                                                                  #          * +27 FOR MOON *
000207:                                                                                                  #  R2VEC   * +29 FOR EARTH*DP TARGET OR TERMINAL POSITION VECTOR IN METERS
000208:                                                                                                  #          * +27 FOR MOON *
000209:                                                                                                  #  TDESIRED* +28          *DP DESIRED TRANSFER TIME IN CENTISECONDS
000210:                                                                                                  #  X1 (38D)* NONE         *INDEX REGISTER SET TO -2D OR -10D ACCORDING TO WHETHER THE EARTH OR MOON,
000211:                                                                                                  #          *              *RESPECTIVELY, IS THE CENTRAL BODY
000212:                                                                                                  #  GEOMSGN * NONE         *SP +.5 IF DESIRED TRANSFER ANGLE IS LESS THAN 180 DEGREES, -.5 IF GREATER THAN 180 DEG.
000213:                                                                                                  #  GUESSW  * NONE         *AN INTERPRETER SWITCH TO BE SET IF NO GUESS OF COGA IS AVAILABLE, CLEAR IF A GUESS OF


000215:                                                                                                  #          *              *COGA IS TO BE USED BY LAMBERT
000216:                                                                                                  #  COGA    * +5           *DP GUESS OF COTANGNT OF FLIGHT PATH ANGLE (MEASURED FROM VERTICAL).  THIS WILL BE
000217:                                                                                                  #                         *IGNORED IF GUESSW IS SET.
000218:                                                                                                  #  NORMSW  * NONE         *AN INTERPRETER SWITCH TO BE SET IF UN IS TO BE AN INPUT TO THE SUBROUTINE, CLEAR IF
000219:                                                                                                  #          *              *LAMBERT IS TO COMPUTE ITS OWN NORMAL (UN).
000220:                                                                                                  #  UN      * +1           *DP UNIT NORMAL TO THE DESIRED ORBIT PLANE IN THE DIRECTION OF THE RESULTING ANGULAR
000221:                                                                                                  #          *              *MOMENTUM VECTOR.  THIS WILL BE IGNORED IF NORMSW IS CLEAR.
000222:                                                                                                  #  VTARGTAG*NONE          *A S.P. TAG TO BE SET TO ZERO IF LAMBERT IS TO COMPUTE THE VELOCITY AT R2VEC AS WELL AS
000223:                                                                                                  #          *              *AT R1VEC.
000224:
000225:                                                                                                  #  SUBROUTINES CALLED -
000226:                                                                                                  #        GEOM, GETX, DELTIME, ITERATOR, LAMENTER (PART OF NEWSTATE)
000227:
000228:                                                                                                  #  CALLING SEQUENCE AND NORMAL EXIT MODES -
000229:                                                                                                  #        L       CALL                    MUST BE IN INTERPRETIVE MODE AND OVFIND MUST BE CLEAR
000230:                                                                                                  #        L+1             LAMBERT         RETURNS WITH PL AT 0 AND WITH VVEC IN MPAC IF VTARGTAG WAS NON-ZERO OR VTARGET
000231:                                                                                                  #                                        IN MPAC IF VTARGTAG WAS ZERO
000232:                                                                                                  #        L+2     BON                     CONTINUE IF SOLNSW CLEAR SINCE SOLUTION IS ACCEPTABLE
000233:                                                                                                  #        L+3             SOLNSW
000234:                                                                                                  #        L+4             LAMABORT
000235:
000236:                                                                                                  #        IF A LAMBERT RESULT IS TO BE A FIRST GUESS FOR THE NEXT LAMBERT CALCULATION, COGA MUST BE PRESERVED AND
000237:                                                                                                  #        GUESSW MUST BE CLEAR FOR EACH SUCCEEDING LAMBERT CALL.
000238:
000239:                                                                                                  #  ABORT EXIT MODES -
000240:                                                                                                  #        IF SOLNSW WAS SET UPON EXITING, EITHER LAMBERT WAS ASKED TO COMPUTE A TRANSFER TOO NEAR 0 OR 360 DEG, OR T
000241:                                                                                                  #        WAS TOO SMALL TO PRODUCE A REALISTIC TRANSFER BETWEEN R1VEC AND R2VEC.  IN EITHER CASE THE FIX MUST BE MADE
000242:                                                                                                  #        ACCORDING TO THE NEEDS OF THE PARTICULAR USER.  THE ABORT EXIT MODE MAY BE CODED AS ...
000243:                                                                                                  #        LAMABORT        DLOAD   ABS             A MEASURE OF PROXIMITY TO 0 OR
000244:                                                                                                  #                                1-CSTH          360 DEGREES.
000245:                                                                                                  #                        DSU     BMN
000246:                                                                                                  #                                ONEBIT
000247:                                                                                                  #                                CHANGER2        CHANGE R2VEC DIRECTION SLIGHTLY.
000248:                                                                                                  #                        DLOAD   DAD
000249:                                                                                                  #                                TDESIRED
000250:                                                                                                  #                                SOMETIME
000251:                                                                                                  #                        STCALL  TDESIRED        INCREASE TDESIRED
000252:                                                                                                  #                                LAMBERT
000253:
000254:                                                                                                  #  OUTPUT -
000255:                                                                                                  #          * SCALE FACTOR *
000256:                                                                                                  #  VARIABLE*IN POWERS OF 2*                         DESCRIPTION AND REMARKS


000258:                                                                                                  #  --------*--------------*                         -----------------------
000259:                                                                                                  #  VVEC    * +7 FOR EARTH *DP INITIAL VELOCITY VECTOR IN METERS/CENTISECOND REQUIRED TO SATISFY THE BOUNDARY VALUE
000260:                                                                                                  #          * +5 FOR MOON  *PROBLEM.
000261:                                                                                                  #  VTARGET * +7 FOR EARTH *DP RESULTANT VELOCITY VECTOR AT R2VEC IN METERS/CENTISECOND.
000262:                                                                                                  #          * +5 FOR MOON  *
000263:                                                                                                  #  SOLNSW  * NONE         *INTERPRETER SWITCH WHICH IS SET IF THE SUBROUTINE CANNOT SOLVE THE PROBLEM, CLEAR IF THE
000264:                                                                                                  #          *              *SOLUTION EXISTS.
000265:                                                                                                  #  FOR OTHER OUTPUT WHICH MAY BE OF USE, SEE DEBRIS.
000266:
000267:                                                                                                  #  DEBRIS -
000268:                                                                                                  #        PARAMETERS WHICH MAY BE OF USE -
000269:                                                                                                  #          * SCALE FACTOR *
000270:                                                                                                  #  VARIABLE*IN POWERS OF 2*                         DESCRIPTION AND REMARKS
000271:                                                                                                  #  --------*--------------*                         -----------------------
000272:                                                                                                  #  SNTH    * +1           *DP SIN OF ANGLE BETWEEN R1VEC AND R2VEC
000273:                                                                                                  #  CSTH    * +1           *DP COSINE OF ANGLE
000274:                                                                                                  #  1-CSTH  * +2           *DP 1-CSTH
000275:                                                                                                  #  COGA    * +5           *DP COTAN OF INITIAL REQUIRED FLIGHT PATH ANGLE MEASURED FROM VERTICAL
000276:                                                                                                  #  P       * +4           *DP RATIO OF SEMILATUS RECTUM TO INITIAL RADIUS
000277:                                                                                                  #  R1A     * +6           *DP RATIO OF INITIAL RADIUS TO SEMIMAJOR AXIS
000278:                                                                                                  #  R1 (32D)* +29 FOR EARTH*DP INITIAL RADIUS IN METERS
000279:                                                                                                  #          * +27 FOR MOON *
000280:                                                                                                  #  UR1     * +1           *DP UNIT VECTOR OF R1VEC
000281:                                                                                                  #  U2      * +1           *DP UNIT VECTOR OF R2VEC
000282:
000283:                                                                                                  #        PARAMETERS OF NO USE
000284:                                                                                                  #                DP PARAMETERS - EPSILONL, CSTH-RHO, TPREV, TERRLAMB, R2, RTNLAMB (SP), PLUS PUSHLIST REGISTER 0 THROUGH 41D
000285:                                                                                                  #                ADDITIONAL INTERPRETIVE SWITCHES USED - INFINFLG, 360SW, SLOPESW, ORDERSW
000286:


000288:                                                                                                  #  PROGRAM DESCRIPTION - TIME-THETA SUBROUTINE                   DATE - 1 SEPTEMBER 1967
000289:                                                                                                  #  MOD NO. - 0                                                   LOG SECTION - CONIC SUBROUTINES
000290:                                                                                                  #  MOD BY KRAUSE                                                 ASSEMBLY - COLOSSUS REVISION 88
000291:
000292:                                                                                                  #  FUNCTIONAL DESCRIPTION -
000293:                                                                                                  #        THIS SUBROUTINE, GIVEN AN INITIAL STATE VECTOR AND A DESIRED TRUE-ANOMALY-DIFFERENCE THROUGH WHICH THE
000294:                                                                                                  #        STATE IS TO BE UPDATED ALONG A CONIC TRAJECTORY, CALCULATES THE CORRESPONDING TIME-OF-FLIGHT AND, IN ADDITION,
000295:                                                                                                  #        PROVIDES THE OPTION OF COMPUTING THE NEW UPDATED STATE VECTOR.  THE RESULTING TRAJECTORY MAY BE A SECTION OF A
000296:                                                                                                  #        CIRCLE, ELLIPSE, PARABOLA, OR HYPERBOLA WITH RESPECT TO THE EARTH OR THE MOON.  THE USE OF THE SUBROUTINE CAN BE
000297:                                                                                                  #        EXTENDED USING OTHER PRIMARY BODIES BY SIMPLE ADDITIONS TO THE MUTABLE WITHOUT INTRODUCING ANY CODING CHANGES,
000298:                                                                                                  #        ACCEPTING THE INHERENT SCALE FACTOR CHANGES IN POSITION AND VELOCITY.
000299:
000300:                                                                                                  #  THE RESTRICTIONS ARE -
000301:                                                                                                  #        1. THE ANGLE BETWEEN ANY POSITION VECTOR AND ITS VELOCITY VECTOR MUST BE GREATER THAN 1 DEGREE 47.5 MINUTES
000302:                                                                                                  #           AND LESS THAN 178 DEGREES 12.5 MINUTES.
000303:                                                                                                  #        2. THE PARAMETERS IN THE PROBLEM MUST NOT EXCEED THEIR SCALING LIMITS SPECIFIED IN THE GSCP.  IF THE LIMITS
000304:                                                                                                  #           ARE EXCEEDED, THE RESULTING SOLUTION WILL BE MEANINGLESS.
000305:
000306:                                                                                                  #        THE AGC COMPUTATION TIME IS APPROXIMATELY .292 SECONDS.
000307:
000308:                                                                                                  #  REFERENCES -
000309:                                                                                                  #        R-479, MISSION PROGRAMMING DEFINITION MEMO NO. 10, LUNAR LANDING MISSION GSOP-SECTION 5.5, SGA MEMO 67-8.
000310:
000311:                                                                                                  #  INPUT - ERASABLE INITIALIZATION REQUIRED
000312:
000313:                                                                                                  #          * SCALE FACTOR *
000314:                                                                                                  #  VARIABLE*IN POWERS OF 2*                         DESCRIPTION AND REMARKS
000315:                                                                                                  #  --------*--------------*                         -----------------------
000316:                                                                                                  #  RVEC    * +29 FOR EARTH*DP INITIAL POSITION VECTOR IN METERS
000317:                                                                                                  #          * +27 FOR MOON *
000318:                                                                                                  #  VVEC    * +7 FOR EARTH *DP INITIAL VELOCITY VECTOR IN METERS/CENTISECOND
000319:                                                                                                  #          * +5 FOR MOON  *
000320:                                                                                                  #  SNTH    * +1           *DP SINE OF TRUE-ANOMALY-DIFFERENCE THROUGH WHICH THE STATE IS TO BE UPDATED
000321:                                                                                                  #  CSTH    * +1           *DP COSINE OF THE ANGLE
000322:                                                                                                  #  RVSW    * NONE         *AN INTERPRETIVE SWITCH TO BE SET IF ONLY TIME IS TO BE AN OUTPUT, CLEAR IF THE NEW STATE
000323:                                                                                                  #          *              *IS TO BE COMPUTED ALSO.
000324:                                                                                                  #  X1 (38D)*NONE          *INDEX REGISTER TO BE SET TO -2D OR -10D ACCORDING TO WHETHER THE EARTH OR MOON,
000325:                                                                                                  #          *              *RESPECTIVELY, IS THE CENTRAL BODY.
000326:
000327:                                                                                                  #  SUBROUTINES CALLED -


000329:                                                                                                  #        PARAM, GEOM, GETX, DELTIME, NEWSTATE
000330:
000331:                                                                                                  #  CALLING SEQUENCE AND NORMAL EXIT MODES -
000332:                                                                                                  #        IF ONLY TIME IS DESIRED AS OUTPUT -
000333:                                                                                                  #        L       SET     CALL            MUST BE IN INTERPRETIVE MODE AND OVFIND MUST BE CLEAR
000334:                                                                                                  #        L+1             RVSW
000335:                                                                                                  #        L+2             TIMETHET        RETURN WITH PL AT 0 AND T IN MPAC
000336:                                                                                                  #        L+3     ...                     CONTINUE
000337:
000338:                                                                                                  #        IF THE UPDATE STATE VECTOR IS DESIRED AS WELL -
000339:                                                                                                  #        L       CLEAR   CALL            MUST BE IN INTERPRETIVE MODE AND OVFIND MUST BE CLEAR
000340:                                                                                                  #        L+1             RVSW
000341:                                                                                                  #        L+2             TIMETHET        RETURNS WITH PL AT 6.  THE INITIAL POSITION VECTOR IS IN 0D OF THE PUSHLIST AND
000342:                                                                                                  #                                        THE INITIAL VELOCITY VECTOR IN MPAC.
000343:                                                                                                  #        L+3     STOVL   NEWVVEC
000344:                                                                                                  #        L+4     STADR
000345:                                                                                                  #        L+5     STORE   NEWRVEC         NEWVVEC AND NEWRVEC ARE SYMBOLIC REPRESENTATIONS OF THE USERS LOCATIONS.
000346:                                                                                                  #        L+6     ...                     CONTINUE
000347:
000348:                                                                                                  #  ABORT EXIT MODES -
000349:                                                                                                  #        L       CALL    BON
000350:                                                                                                  #        L+1             TIMETHET
000351:                                                                                                  #        L+2             COGAFLAG
000352:                                                                                                  #        L+3             COGABORT        RESTRICTION 1 HAS BEEN VIOLATED.
000353:                                                                                                  #        L+4     BON                     IF NEITHER FLAG IS SET AND RESTRICTION 2 HAS NOT BEEN VIOLATED, THE SOLUTION IS
000354:                                                                                                  #                                        GOOD, SO CONTINUE
000355:                                                                                                  #        L+5             INFINFLG
000356:                                                                                                  #        L+6             IMPOSSBL        NO SOLUTION EXISTS.
000357:
000358:                                                                                                  #  OUTPUT -
000359:                                                                                                  #          * SCALE FACTOR *
000360:                                                                                                  #  VARIABLE*IN POWERS OF 2*                         DESCRIPTION AND REMARKS
000361:                                                                                                  #  --------*--------------*                         -----------------------
000362:                                                                                                  #  T(30D)  * +28          *DP TRANSFER TIME IN CENTISECONDS
000363:                                                                                                  #  INFINFLG* NONE         *AN INTERPRETIVE SWITCH WHICH IS SET IF THE TRANSFER ANGLE REQUIRES CLOSURE THROUGH
000364:                                                                                                  #          *              *INFINITY (NO SOLUTION), CLEAR IF A PHYSICAL SOLUTION IS POSSIBLE.
000365:                                                                                                  #  COGAFLAG* NONE         *AN INTERPRETIVE SWITCH WHICH IS SET IF RESTRICTION 1 HAS BEEN VIOLATED (NO SOLUTION),
000366:                                                                                                  #          *              *CLEAR IF NOT.
000367:
000368:                                                                                                  #        IN ADDITION, IF VTARGTAG IS NON-ZERO, THE FOLLOWING ARE OUTPUT -
000369:                                                                                                  #  MPAC -  * +7 FOR EARTH *DP TERMINAL VELOCITY VECTOR IN METERS/CENTISEC.
000370:                                                                                                  #   MPAC+5 * +5 FOR MOON  *


000372:                                                                                                  #  0D - 5D * +29 FOR EARTH*DP TERMINAL POSITION VECTOR IN METERS (PL AT 6D)
000373:                                                                                                  #          * +27 FOR MOON *
000374:
000375:                                                                                                  #        FOR OTHER OUTPUT WHICH MAY BE OF USE, SEE DEBRIS.
000376:
000377:                                                                                                  #  DEBRIS -
000378:                                                                                                  #        PARAMETERS WHICH MAY BE OF USE -
000379:
000380:                                                                                                  #          * SCALE FACTOR *
000381:                                                                                                  #  VARIABLE*IN POWERS OF 2*                         DESCRIPTION AND REMARKS
000382:                                                                                                  #  --------*--------------*                         -----------------------
000383:                                                                                                  #  R1 (32D)* +29 FOR EARTH*DP MAGNITUDE OF INITIAL POSITION VECTOR, RVEC, IN METERS
000384:                                                                                                  #          * +27 FOR MOON *
000385:                                                                                                  #  R1A     * +6           *DP RATIO OF R1 TO SEMIMAJOR AXIS (NEG. FOR HYPERBOLIC TRAJECTORIES)
000386:                                                                                                  #  P       * +4           *DP RATIO OF SEMILATUS RECTUM TO R1
000387:                                                                                                  #  COGA    * +5           *DP COTAN OF ANGLE BETWEEN RVEC AND VVEC
000388:                                                                                                  #  UR1     * +1           *DP UNIT VECTOR OF RVEC
000389:                                                                                                  #  U2      * +1           *DP UNIT VECTOR OF VVEC
000390:                                                                                                  #  UN      * +1           *DP UNIT VECTOR OF UR1*U2
000391:
000392:                                                                                                  #  PARAMETERS OF NO USE -
000393:                                                                                                  #        SP PARAMETERS - RTNTT, GEOMSGN, RTNPRM, MAGVEC2=R2 (DP), PLUS PUSHLIST LOCATIONS 0-11D, 14D-21D, 24D-39D, 41D
000394:                                                                                                  #        ADDITIONAL INTERPRETIVE SWITCHES USED - NORMSW, 360SW
000395:


000397:                                                                                                  #  PROGRAM DESCRIPTION - TIME-RADIUS SUBROUTINE          DATE - 11 OCTOBER 1967
000398:                                                                                                  #  MOD NO. -1                                            LOG SECTION - CONIC SUBROUTINES
000399:                                                                                                  #  MOD BY KRAUSE                                         ASSEMBLY - COLOSSUS REVISION 88
000400:
000401:                                                                                                  #  FUNCTIONAL DESCRIPTION -
000402:                                                                                                  #        THIS SUBROUTINE, GIVEN AN INITIAL STATE VECTOR AND A DESIRED RADIUS TO WHICH THE
000403:                                                                                                  #        STATE IS TO BE UPDATED ALONG A CONIC TRAJECTORY, CALCULATES THE CORRESPONDING TIME-OF-FLIGHT AND, IN ADDITION,
000404:                                                                                                  #        PROVIDES THE OPTION OF COMPUTING THE NEW UPDATED STATE VECTOR.  THE RESULTING TRAJECTORY MAY BE A SECTION OF A
000405:                                                                                                  #        CIRCLE, ELLIPSE, PARABOLA, OR HYPERBOLA WITH RESPECT TO THE EARTH OR THE MOON.  THE USE OF THE SUBROUTINE CAN BE
000406:                                                                                                  #        EXTENDED USING OTHER PRIMARY BODIES BY SIMPLE ADDITIONS TO THE MUTABLE WITHOUT INTRODUCING ANY CODING CHANGES,
000407:                                                                                                  #        ACCEPTING THE INHERENT SCALE FACTOR CHANGES IN POSITION AND VELOCITY.
000408:
000409:                                                                                                  #        IF THE DESIRED RADIUS IS BEYOND THE RADIUS OF APOCENTER OF THE CONIC OR BELOW THE RADIUS OF PERICENTER,
000410:                                                                                                  #        APSESW WILL BE SET AND THE SUBROUTINE WILL RETURN THE APOCENTER OR PERICENTER SOLUTION, RESPECTIVELY.
000411:
000412:                                                                                                  #  THE RESTRICTIONS ARE -
000413:                                                                                                  #        1. THE ANGLE BETWEEN ANY POSITION VECTOR AND ITS VELOCITY VECTOR MUST BE GREATER THAN 1 DEGREE 47.5 MINUTES
000414:                                                                                                  #           AND LESS THAN 178 DEGREES 12.5 MINUTES.
000415:                                                                                                  #        2. THE PARAMETERS IN THE PROBLEM MUST NOT EXCEED THEIR SCALING LIMITS SPECIFIED IN THE GSOP.  IF THE LIMITS
000416:                                                                                                  #           ARE EXCEEDED, THE RESULTING SOLUTION WILL BE MEANINGLESS.
000417:                                                                                                  #        3. AN ACCURACY DEGRADATION OCCURS AS THE SENSITIVITIES OF TIME AND UPDATED STATE VECTOR TO CHANGES IN
000418:                                                                                                  #           RDESIRED INCREASE.  THIS WILL OCCUR NEAR EITHER APSIS OF THE CONIC AND WHEN THE CONIC IS NEARLY CIRCULAR.  IN
000419:                                                                                                  #           PARTICULAR, IF THE CONIC IS AN EXACT CIRCLE, THE PROBLEM IS UNDEFINED AND THE SUBROUTINE WILL ABORT.
000420:
000421:                                                                                                  #        THE AGC COMPUTATION TIME IS APPROXIMATELY .363 SECONDS
000422:
000423:                                                                                                  #  REFERENCES -
000424:                                                                                                  #        R-479, MISSION PROGRAMMING DEFINITION MEMO NO. 10, LUNAR LANDING MISSION GSOP-SECTION 5.5, SGA MEMO 67-8.
000425:
000426:                                                                                                  #  INPUT - ERASABLE INITIALIZATION REQUIRED
000427:
000428:                                                                                                  #          * SCALE FACTOR *
000429:                                                                                                  #  VARIABLE*IN POWERS OF 2*                         DESCRIPTION AND REMARKS
000430:                                                                                                  #  --------*--------------*                         -----------------------
000431:                                                                                                  #  RVEC    * +29 FOR EARTH*DP INITIAL POSITION VECTOR IN METERS
000432:                                                                                                  #          * +27 FOR MOON *
000433:                                                                                                  #  VVEC    * +7 FOR EARTH *DP INITIAL VELOCITY VECTOR IN METERS/CENTISECOND
000434:                                                                                                  #          * +5 FOR MOON  *
000435:                                                                                                  #  RDESIRED* +29 FOR EARTH*DP TERMINAL RADIAL DISTANCE ON CONIC TRAJECTORY FOR WHICH TRANSFER TIME IS TO BE
000436:                                                                                                  #          * +27 FOR MOON *COMPUTED.
000437:                                                                                                  #  SGNRDOT * NONE         *SP TAG SET TO +.5 OR -.5 ACCORDING TO WHETHER THE RADIAL VELOCITY AT RDESIRED IS TO BE
000438:                                                                                                  #          *              *POSITIVE OR NEGATIVE, RESPECTIVELY.   THIS TAG REDUCES THE DOUBLE-VALUED PROBLEM TO A


000440:                                                                                                  #          *              *SINGLE-VALUED PROBLEM.
000441:                                                                                                  #  X1 (38D)*NONE          *INDEX REGISTER TO BE SET TO -2D OR -10D ACCORDING TO WHETHER THE EARTH OR MOON,
000442:                                                                                                  #          *              *RESPECTIVELY, IS THE CENTRAL BODY.
000443:                                                                                                  #  RVSW    * NONE         *AN INTERPRETIVE SWITCH TO BE SET IF ONLY TIME IS TO BE AN OUTPUT, CLEAR IF THE NEW STATE
000444:                                                                                                  #          *              *IS TO BE COMPUTED ALSO.
000445:
000446:                                                                                                  #  SUBROUTINES CALLED -
000447:                                                                                                  #        PARAM, GEOM, GETX, DELTIME, NEWSTATE
000448:
000449:                                                                                                  #  CALLING SEQUENCE AND NORMAL EXIT MODES -
000450:                                                                                                  #        IF ONLY TIME IS DESIRED AS OUTPUT -
000451:                                                                                                  #        L       SET     CALL            MUST BE IN INTERPRETIVE MODE AND OVFIND MUST BE CLEAR
000452:                                                                                                  #        L+1             RVSW
000453:                                                                                                  #        L+2             TIMERAD         RETURN WITH PL AT 0 AND T IN MPAC
000454:                                                                                                  #        L+3     ...                     CONTINUE
000455:
000456:                                                                                                  #        IF THE UPDATE STATE VECTOR IS DESIRED AS WELL -
000457:                                                                                                  #        L       CLEAR   CALL            MUST BE IN INTERPRETIVE MODE AND OVFIND MUST BE CLEAR
000458:                                                                                                  #        L+1             RVSW
000459:                                                                                                  #        L+2             TIMERAD         RETURNS WITH PL AT 6.  THE INITIAL POSITION VECTOR IS IN 0D OF THE PUSHLIST AND
000460:                                                                                                  #                                        THE INITIAL VELOCITY VECTOR IN MPAC.
000461:                                                                                                  #        L+3     STOVL   NEWVVEC
000462:                                                                                                  #        L+4     STADR
000463:                                                                                                  #        L+5     STORE   NEWRVEC         NEWVVEC AND NEWRVEC ARE SYMBOLIC REPRESENTATIONS OF THE USERS LOCATIONS.
000464:                                                                                                  #        L+6     ...                     CONTINUE
000465:
000466:                                                                                                  #  ABORT EXIT MODES -
000467:                                                                                                  #        L       CALL    BON
000468:                                                                                                  #        L+1             TIMERAD
000469:                                                                                                  #        L+2             COGAFLAG
000470:                                                                                                  #        L+3             COGABORT        RESTRICTION 1 HAS BEEN VIOLATED.
000471:                                                                                                  #        L+4     BON     BON
000472:                                                                                                  #        L+5             INFINFLG
000473:                                                                                                  #        L+6             IMPOSSBL        NO SOLUTION EXISTS.
000474:                                                                                                  #        L+7             SOLNSW
000475:                                                                                                  #        L+8             IMPOSSBL        SOLUTION IS UNDEFINED SINCE CONIC IS A CIRCLE.  RESTRICTION 3 HAS BEEN VIOLATED.
000476:                                                                                                  #        L+9     ...                     IF ALL THREE OF THE FLAGS ARE CLEAR, A SOLUTION EXISTS, SO CONTINUE.
000477:
000478:                                                                                                  #  OUTPUT -
000479:                                                                                                  #          * SCALE FACTOR *


000481:                                                                                                  #  VARIABLE*IN POWERS OF 2*                         DESCRIPTION AND REMARKS
000482:                                                                                                  #  --------*--------------*                         -----------------------
000483:                                                                                                  #  T (30D) * +28          *DP TRANSFER TIME IN CENTISECONDS
000484:                                                                                                  #  INFINFLG* NONE         *AN INTERPRETIVE SWITCH WHICH IS SET IF RDESIRED AND SGNRDOT REQUIRE CLOSURE THROUGH
000485:                                                                                                  #          *              *INFINITY (NO SOLUTION), CLEAR IF A PHYSICAL SOLUTION IS POSSIBLE.
000486:                                                                                                  #  COGAFLAG* NONE         *AN INTERPRETIVE SWITCH WHICH IS SET IF RESTRICTION 1 HAS BEEN VIOLATED (NO SOLUTION),
000487:                                                                                                  #          *              *CLEAR IF NOT.
000488:                                                                                                  #  APSESW  * NONE         *AN INTERPRETIVE SWITCH WHICH IS SET IF RDESIRED WAS GREATER THAN RADIUS OF APOCENTER OR
000489:                                                                                                  #          *              *LESS THAN RADIUS OF PERICENTER.  THE APOCENTER OR PERICENTER SOLUTION, RESPECTIVELY,
000490:                                                                                                  #          *              *WILL THEN BE RETURNED.  THE SWITCH IS CLEAR IF RDESIRED WAS BETWEEN PERICENTER AND
000491:                                                                                                  #          *              *APOCENTER.
000492:                                                                                                  #  SOLNSW  * NONE         *AN INTERPRETIVE SWITCH WHICH IS SET IF THE CONIC IS SO CLOSE TO A CIRCLE THAT THE TERMIN
000493:                                                                                                  #                         *POINT IS AMBIGUOUS, VIOLATING RESTRICTION 3.  IF ECCENTRICITY IS GREATER THAN 2-TO-THE-
000494:                                                                                                  #                         *MINUS-18, THE SWITCH IS CLEAR.
000495:
000496:                                                                                                  #        IN ADDITION, IF VTARGTAG IS NON-ZERO, THE FOLLOWING ARE OUTPUT -
000497:
000498:                                                                                                  #  MPAC -  * +7 FOR EARTH *DP TERMINAL VELOCITY VECTOR IN METERS/CENTISEC.
000499:                                                                                                  #   MPAC +5* +5 FOR MOON  *
000500:                                                                                                  #  0D - 5D * +29 FOR EARTH*DP TERMINAL POSITION VECTOR IN METERS (PL AT 6D)
000501:                                                                                                  #          * +27 FOR MOON *
000502:
000503:                                                                                                  #        FOR OTHER OUTPUT WHICH MAY BE OF USE, SEE DEBRIS.
000504:
000505:                                                                                                  #  DEBRIS -
000506:
000507:                                                                                                  #        PARAMETERS WHICH MAY BE OF USE -
000508:
000509:                                                                                                  #          * SCALE FACTOR *
000510:                                                                                                  #  VARIABLE*IN POWERS OF 2*                         DESCRIPTION AND REMARKS
000511:                                                                                                  #  --------*--------------*                         -----------------------
000512:                                                                                                  #  R1 (32D)* +29 FOR EARTH*DP MAGNITUDE OF INITIAL POSITION VECTOR, RVEC, IN METERS
000513:                                                                                                  #          * +27 FOR MOON *
000514:                                                                                                  #  R1A     * +6           *DP RATIO OF R1 TO SEMIMAJOR AXIS (NEG. FOR HYPERBOLIC TRAJECTORIES)
000515:                                                                                                  #  P       * +4           *DP RATIO OF SEMILATUS RECTUM TO R1
000516:                                                                                                  #  COGA    * +5           *DP COTAN OF ANGLE BETWEEN RVEC AND VVEC
000517:                                                                                                  #  UR1     * +1           *DP UNIT VECTOR OF RVEC
000518:                                                                                                  #  U2      * +1           *DP UNIT VECTOR OF VVEC
000519:                                                                                                  #  UN      * +1           *DP UNIT VECTOR OF UR1*U2
000520:                                                                                                  #  CSTH    * +1           *DP COSINE OF TRUE ANOMALY DIFFERENCE BETWEEN RVEC AND RDESIRED.
000521:                                                                                                  #  SNTH    * +1           *DP SINE OF TRUE ANOMALY DIFFERENCE.
000522:
000523:                                                                                                  #        PARAMETERS OF NO USE -
000524:                                                                                                  #                SP PARAMETERS - RTNTT, GEOMSGN, RTNPRM, MAGVEC2=R2 (DP), PLUS PUSHLIST LOCATIONS 0-11D, 14D-21D, 24D-39D, 41D
000525:                                                                                                  #                ADDITIONAL INTERPRETIVE SWITCHES USED - NORMSW, 360SW
000526:
000527:


000529:                                                                                                  #  PROGRAM DESCRIPTION - APSIDES SUBROUTINE              DATE - 1 SEPTEMBER 1967
000530:                                                                                                  #  MOD NO. - 0                                           LOG SECTION - CONIC SUBROUTINES
000531:                                                                                                  #  MOD BY KRAUSE                                         ASSEMBLY - COLOSSUS REVISION 88
000532:
000533:                                                                                                  #  FUNCTIONAL DESCRIPTION -
000534:                                                                                                  #        THIS SUBROUTINE, GIVEN AN INITIAL STATE VECTOR CALCULATES THE RADIUS OF PERICENTER AND OF APOCENTER AND THE
000535:                                                                                                  #        ECCENTRICITY OF THE RESULTING CONIC TRAJECTORY, WHICH MAY BE A STRAIGHT LINE,
000536:                                                                                                  #        CIRCLE, ELLIPSE, PARABOLA, OR HYPERBOLA WITH RESPECT TO THE EARTH OR THE MOON.  THE USE OF THE SUBROUTINE CAN BE
000537:                                                                                                  #        EXTENDED USING OTHER PRIMARY BODIES BY SIMPLE ADDITIONS TO THE MUTABLE WITHOUT INTRODUCING ANY CODING CHANGES,
000538:                                                                                                  #        ACCEPTING THE INHERENT SCALE FACTOR CHANGES IN POSITION AND VELOCITY.
000539:
000540:                                                                                                  #  THE RESTRICTIONS ARE -
000541:                                                                                                  #        1. IF APOCENTER IS BEYOND THE SCALING OF POSITION, THE SCALE FACTOR LIMIT (536,870,910 METERS WITH RESPECT
000542:                                                                                                  #           TO THE EARTH OR 134,217,727.5 METERS WITH RESPECT TO THE MOON) WILL BE RETURNED.
000543:                                                                                                  #        2. THE PARAMETERS IN THE PROBLEM MUST NOT EXCEED THEIR SCALING LIMITS SPECIFIED IN THE GSOP.  IF THE LIMITS
000544:                                                                                                  #           ARE EXCEEDED, THE RESULTING SOLUTION WILL BE MEANINGLESS.
000545:                                                                                                  #        THE AGC COMPUTATION TIME IS APPROXIMATELY .103 SECONDS.
000546:
000547:                                                                                                  #  REFERENCES -
000548:                                                                                                  #        MISSION PROGRAMMING DEFINITION MEMO NO. 10, LUNAR LANDING MISSION GSOP-SECTION 5.5
000549:
000550:                                                                                                  #  INPUT - ERASABLE INITIALIZATION REQUIRED
000551:                                                                                                  #          * SCALE FACTOR *
000552:                                                                                                  #  VARIABLE*IN POWERS OF 2*                         DESCRIPTION AND REMARKS
000553:                                                                                                  #  --------*--------------*                         -----------------------
000554:                                                                                                  #  RVEC    * +29 FOR EARTH*DP INITIAL POSITION VECTOR IN METERS
000555:                                                                                                  #          * +27 FOR MOON *
000556:                                                                                                  #  VVEC    * +7 FOR EARTH *DP INITIAL VELOCITY VECTOR IN METERS/CENTISECOND
000557:                                                                                                  #          * +5 FOR MOON  *
000558:                                                                                                  #  X1 (38D)* NONE         *INDEX REGISTER TO BE SET TO -2D OR -10D ACCORDING TO WHETHER THE EARTH OR MOON,
000559:                                                                                                  #          *              *RESPECTIVELY, IS THE CENTRAL BODY.
000560:
000561:                                                                                                  #  SUBROUTINES CALLED -
000562:                                                                                                  #        PARAM, GEOM
000563:
000564:                                                                                                  #  CALLING SEQUENCE AND NORMAL EXIT MODES -


000566:                                                                                                  #        IF ONLY TIME IS DESIRED AS OUTPUT -
000567:                                                                                                  #        L       CALL                    MUST BE IN INTERPRETIVE MODE AND OVFIND MUST BE CLEAR.
000568:                                                                                                  #        L+1             APSIDES         RETURNS WITH PL AT 0, RADIUS OF APOCENTER IN MPAC AND RADIUS OF PERICENTER IN 0D
000569:                                                                                                  #        L+2     STODL   APOAPSE
000570:                                                                                                  #        L+3             0D
000571:                                                                                                  #        L+4     STORE   PERIAPSE        APOAPSE AND PERIAPSE ARE SYMBOLIC REPRESENTATIONS OF THE USERS LOCATIONS
000572:                                                                                                  #        L+5     ...                     CONTINUE
000573:
000574:                                                                                                  #  OUTPUT -
000575:                                                                                                  #          * SCALE FACTOR *
000576:                                                                                                  #  VARIABLE*IN POWERS OF 2*                         DESCRIPTION AND REMARKS
000577:                                                                                                  #  --------*--------------*                         -----------------------
000578:                                                                                                  #  MPAC    * +29 FOR EARTH*DP RADIUS OF APOCENTER IN METERS
000579:                                                                                                  #          * +27 FOR MOON *
000580:                                                                                                  #  0D-1D   * +29 FOR EARTH*DP RADIUS OF PERICENTER IN METERS
000581:                                                                                                  #          * +27 FOR MOON *
000582:                                                                                                  #  ECC     * +3           *DP ECCENTRICITY OF CONIC TRAJECTORY.
000583:                                                                                                  #        FOR OTHER OUTPUT WHICH MAY BE OF USE, SEE DEBRIS.
000584:
000585:                                                                                                  #  DEBRIS -
000586:
000587:                                                                                                  #        PARAMETERS WHICH MAY BE OF USE -
000588:
000589:                                                                                                  #          * SCALE FACTOR *
000590:                                                                                                  #  VARIABLE*IN POWERS OF 2*                         DESCRIPTION AND REMARKS
000591:                                                                                                  #  --------*--------------*                         -----------------------
000592:                                                                                                  #  R1 (32D)* +29 FOR EARTH*DP MAGNITUDE OF INITIAL POSITION VECTOR, RVEC, IN METERS
000593:                                                                                                  #          * +27 FOR MOON *
000594:                                                                                                  #  R1A     * +6           *DP RATIO OF R1 TO SEMIMAJOR AXIS (NEG. FOR HYPERBOLIC TRAJECTORIES)
000595:                                                                                                  #  P       * +4           *DP RATIO OF SEMILATUS RECTUM TO R1
000596:                                                                                                  #  COGA    * +5           *DP COTAN OF ANGLE BETWEEN RVEC AND VVEC
000597:                                                                                                  #  UR1     * +1           *DP UNIT VECTOR OF RVEC
000598:                                                                                                  #  U2      * +1           *DP UNIT VECTOR OF VVEC
000599:                                                                                                  #  UN      * +1           *DP UNIT VECTOR OF UR1*U2
000600:                                                                                                  #  MAGVEC2 * +7 FOR EARTH *DP MAGNITUDE OF VVEC
000601:                                                                                                  #          * +5 FOR MOON  *
000602:
000603:                                                                                                  #        PARAMETERS OF NO USE -
000604:                                                                                                  #                SP PARAMETERS - RTNAPSE, GEOMSGN, RTNPRM, PLUS PUSHLIST LOCATIONS 0-5, 10D-11D, 14D-21D, 31D-38D.
000605:                                                                                                  #                ADDITIONAL INTERPRETIVE SWITCHES USED - NORMSW
000606:
000607: 12,2000                                           SETLOC   CONICS


000609: 12,2000                                           BANK
000610:
000611: 12,2000                                           COUNT    12/CONIC
000612:
000613: 12,2000  E5,1723                                  EBANK=   UR1
000614: 12,2000           71201        KEPLERN            SETPD    DLOAD
000615: 12,2001           00001                                    0
000616: 12,2002           11456                                    KEPZERO
000617: 12,2003           01344                           STORE    XMODULO
000618: 12,2004           31346                           STOVL*   TMODULO
000619: 12,2005           11631                                    MUTABLE,1
000620: 12,2006           24017                           STOVL    14D
000621: 12,2007           01503                                    RRECT
000622: 12,2010           66256                           UNIT     SSP
000623: 12,2011           00027                                    ITERCTR
000624: 12,2012           00024                                    20D
000625: 12,2013           16647                           STODL    URRECT
000626: 12,2014           00045                                    36D
000627: 12,2015           24041                           STOVL    R1
000628: 12,2016           01503                                    RRECT
000629: 12,2017           76441                           DOT      SL1R
000630: 12,2020           01511                                    VRECT
000631: 12,2021           76405                           DMP      SL1R
000632: 12,2022           00023                                    1/ROOTMU                              #  1/ROOTMU (-17 OR -14)
000633: 12,2023           24043                           STOVL    KEPC1                                 #  C1=R.V/ROOTMU (+17 OR +16)
000634: 12,2024           01511                                    VRECT
000635: 12,2025           57236                           VSQ      DMPR
000636: 12,2026           00017                                    1/MU                                  #  1/MU (-34 OR -28)
000637: 12,2027           52405                           DMP      SL3
000638: 12,2030           00041                                    R1
000639: 12,2031           61425                           DSU      ROUND
000640: 12,2032           11500                                    D1/64
000641: 12,2033           00045                           STORE    KEPC2                                 #  C2=RV.V/MU -1 (+6)
000642:
000643: 12,2034           74421                           BDSU     SR1R
000644: 12,2035           11500                                    D1/64
000645: 12,2036           77671                           DDV
000646: 12,2037           00041                                    R1
000647: 12,2040           00011                           STORE    ALPHA                                 #  ALPHA=(1-C2)/R1 (-22 OR -20)
000648:
000649: 12,2041           71244                           BPL      DLOAD                                 #  MAXIMUM X DEPENDS ON TYPE OF CONIC
000650: 12,2042           24051                                    1REV
000651: 12,2043           11516                                    -50SC                                 #  -50SC (+12)
000652: 12,2044           40071                           DDV      BOV
000653: 12,2045           00011                                    ALPHA
000654: 12,2046           24055                                    STOREMAX
000655: 12,2047           52166                           SQRT     GOTO
000656: 12,2050           24055                                    STOREMAX


000658: 12,2051           55366        1REV               SQRT     BDDV
000659: 12,2052           11520                                    2PISC                                 #  2PISC (+6)
000660: 12,2053           77600                           BOV
000661: 12,2054           24055                                    STOREMAX
000662: 12,2055           50165        STOREMAX           SIGN     BMN
000663: 12,2056           02312                                    TAU.
000664: 12,2057           24272                                    BACKWARD
000665: 12,2060           00013                           STORE    XMAX
000666: 12,2061           65205                           DMP      PDDL                                  #                                PL AT 2
000667: 12,2062           00023                                    1/ROOTMU
000668: 12,2063           00011                                    ALPHA
000669: 12,2064           65301                           NORM     PDDL                                  #  DXCH WITH 0D.  0D=ALPHA       PL AT 0,2
000670: 12,2065           00047                                    X1
000671: 12,2066           56257                           SL*      DDV                                   #                                PL AT 0
000672: 12,2067           20173                                    0          -6,1
000673: 12,2070           50000        PERIODCH           BOV      BMN
000674: 12,2071           24112                                    MODDONE
000675: 12,2072           24112                                    MODDONE
000676: 12,2073           77606                           PUSH                                           #  0D=PERIOD (+28)
000677: 12,2074           50021                           BDSU     BMN
000678: 12,2075           02312                                    TAU.
000679: 12,2076           24112                                    MODDONE
000680: 12,2077           16312                           STODL    TAU.
000681: 12,2100           00013                                    XMAX
000682: 12,2101           77615                           DAD
000683: 12,2102           01344                                    XMODULO
000684: 12,2103           15344                           STODL    XMODULO
000685: 12,2104           00001                                    0D
000686: 12,2105           77615                           DAD
000687: 12,2106           01346                                    TMODULO
000688: 12,2107           15346                           STODL    TMODULO
000689: 12,2110           77650                           GOTO                                           #                                PL AT 0
000690: 12,2111           24070                                    PERIODCH
000691: 12,2112           71201        MODDONE            SETPD    DLOAD
000692: 12,2113           00001                                    0
000693: 12,2114           11456                                    KEPZERO
000694: 12,2115           14015                           STODL    XMIN
000695: 12,2116           02306                                    XKEPNEW
000696: 12,2117           77625                           DSU
000697: 12,2120           01344                                    XMODULO
000698: 12,2121           00025                           STORE    X
000699: 12,2122           50054                           BZE      BMN
000700: 12,2123           24265                                    BADX
000701: 12,2124           24265                                    BADX
000702: 12,2125           51025                           DSU      BPL
000703: 12,2126           00013                                    XMAX
000704: 12,2127           24265                                    BADX


000706: 12,2130           57345        DXCOMP             DLOAD    DMPR
000707: 12,2131           02312                                    TAU.
000708: 12,2132           11511                                    BEE22
000709: 12,2133           77646                           ABS
000710: 12,2134           15350                           STODL    EPSILONT
000711: 12,2135           01551                                    TC
000712: 12,2136           45254                           BZE      DSU
000713: 12,2137           24141                                    NEWTC
000714: 12,2140           01346                                    TMODULO
000715: 12,2141           15551        NEWTC              STODL    TC
000716: 12,2142           01553                                    XPREV
000717: 12,2143           45254                           BZE      DSU
000718: 12,2144           24146                                    XDIFF
000719: 12,2145           01344                                    XMODULO
000720: 12,2146           77621        XDIFF              BDSU
000721: 12,2147           00025                                    X
000722: 12,2150           02643                           STORE    DELX
000723:
000724: 12,2151           63545        KEPLOOP            DLOAD    DSQ
000725: 12,2152           00025                                    X                                     #  X=XKEP
000726: 12,2153           41501                           NORM     PUSH                                  #  0D=XSQ (+34 OR +32 -N1)       PL AT 2
000727: 12,2154           00047                                    X1
000728: 12,2155           53605                           DMP      SRR*
000729: 12,2156           00011                                    ALPHA
000730: 12,2157           21573                                    0          -6,1
000731: 12,2160           34031                           STCALL   XI                                    #  XI=ALPHA XSQ (+6)
000732: 12,2161           24426                                    DELTIME
000733: 12,2162           44200                           BOV      BDSU
000734: 12,2163           24312                                    TIMEOVFL                              #  UNLIKELY
000735: 12,2164           02312                                    TAU.
000736: 12,2165           02645                           STORE    DELT                                  #  DELT=DELINDEP
000737: 12,2166           44246                           ABS      BDSU
000738: 12,2167           01350                                    EPSILONT
000739: 12,2170           71244                           BPL      DLOAD
000740: 12,2171           24334                                    KEPCONVG
000741: 12,2172           00037                                    T
000742: 12,2173           60225                           DSU      NORM
000743: 12,2174           01551                                    TC
000744: 12,2175           00047                                    X1
000745: 12,2176           60325                           PDDL     NORM
000746: 12,2177           02643                                    DELX
000747: 12,2200           00050                                    X2
000748: 12,2201           41260                           XSU,1    DMP
000749: 12,2202           00047                                    X2
000750: 12,2203           02645                                    DELT
000751: 12,2204           56257                           SLR*     DDV
000752: 12,2205           21202                                    1,1
000753: 12,2206           41542                           SR1      PUSH                                  #  0D=TRIAL DELX         PL AT 2
000754: 12,2207           71244                           BPL      DLOAD


000756: 12,2210           24231                                    POSDELX
000757: 12,2211           00025                                    X
000758: 12,2212           00013                           STORE    XMAX                                  #  MOVE MAX BOUND IN
000759: 12,2213           45221                           BDSU     DSU                                   #                        PL AT 0
000760: 12,2214           00015                                    XMIN
000761: 12,2215           51000                           BOV      BPL
000762: 12,2216           24223                                    NDXCHNGE
000763: 12,2217           24223                                    NDXCHNGE
000764: 12,2220           52145                           DLOAD    GOTO
000765: 12,2221           00001                                    0D
000766: 12,2222           24243                                    NEWDELX
000767:
000768: 12,2223           45345        NDXCHNGE           DLOAD    DSU
000769: 12,2224           00015                                    XMIN
000770: 12,2225           00025                                    X
000771: 12,2226           52075                           DMPR     GOTO                                  #  TO FORCE MPAC +2 TO ZERO
000772: 12,2227           11514                                    DP9/10
000773: 12,2230           24243                                    NEWDELX
000774:
000775: 12,2231           77745        POSDELX            DLOAD
000776: 12,2232           00025                                    X
000777: 12,2233           00015                           STORE    XMIN                                  #  MOVE MIN BOUND IN
000778: 12,2234           45221                           BDSU     DSU                                   #                        PL AT 0
000779: 12,2235           00013                                    XMAX
000780: 12,2236           50000                           BOV      BMN
000781: 12,2237           24257                                    PDXCHNGE
000782: 12,2240           24257                                    PDXCHNGE
000783: 12,2241           77745                           DLOAD
000784: 12,2242           00001                                    0D
000785: 12,2243           02643        NEWDELX            STORE    DELX
000786: 12,2244           43254                           BZE      DAD
000787: 12,2245           24334                                    KEPCONVG
000788: 12,2246           00025                                    X
000789: 12,2247           14025                           STODL    X
000790: 12,2250           00037                                    T
000791: 12,2251           01551                           STORE    TC
000792: 12,2252           46034        BRNCHCTR           RTB      BHIZ
000793: 12,2253           24651                                    CHECKCTR
000794: 12,2254           24334                                    KEPCONVG
000795: 12,2255           77650                           GOTO
000796: 12,2256           24151                                    KEPLOOP                               #  ITERATE
000797:
000798: 12,2257           45345        PDXCHNGE           DLOAD    DSU
000799: 12,2260           00013                                    XMAX
000800: 12,2261           00025                                    X
000801: 12,2262           52075                           DMPR     GOTO                                  #  TO FORCE MPAC +2 TO ZERO
000802: 12,2263           11514                                    DP9/10


000804: 12,2264           24243                                    NEWDELX
000805:
000806: 12,2265           70545        BADX               DLOAD    SR1                                   #  RECIPE EXCEEDED X BOUNDS - USE XMAX/2
000807: 12,2266           00013                                    XMAX
000808: 12,2267           00025                           STORE    X
000809: 12,2270           77650                           GOTO
000810: 12,2271           24130                                    DXCOMP
000811:
000812: 12,2272           14015        BACKWARD           STODL    XMIN
000813: 12,2273           11456                                    KEPZERO
000814: 12,2274           14013                           STODL    XMAX
000815: 12,2275           02306                                    XKEPNEW
000816: 12,2276           00025                           STORE    X
000817: 12,2277           51054                           BZE      BPL
000818: 12,2300           24305                                    BADBKWDX
000819: 12,2301           24305                                    BADBKWDX
000820: 12,2302           51025                           DSU      BPL
000821: 12,2303           00015                                    XMIN
000822: 12,2304           24130                                    DXCOMP
000823: 12,2305           70545        BADBKWDX           DLOAD    SR1
000824: 12,2306           00015                                    XMIN
000825: 12,2307           00025                           STORE    X
000826: 12,2310           77650                           GOTO
000827: 12,2311           24130                                    DXCOMP
000828:
000829: 12,2312           50145        TIMEOVFL           DLOAD    BMN                                   #  X WAS TOO BIG
000830: 12,2313           00025                                    X
000831: 12,2314           24331                                    NEGTOVFL
000832: 12,2315           00013                           STORE    XMAX
000833: 12,2316           70545        CMNTOVFL           DLOAD    SR1
000834: 12,2317           02643                                    DELX
000835: 12,2320           02643                           STORE    DELX
000836: 12,2321           44254                           BZE      BDSU
000837: 12,2322           02270                                    KEPRTN
000838: 12,2323           00025                                    X
000839: 12,2324           14025                           STODL    X
000840: 12,2325           01551                                    TC
000841: 12,2326           00037                           STORE    T
000842: 12,2327           77650                           GOTO
000843: 12,2330           24252                                    BRNCHCTR
000844: 12,2331           00015        NEGTOVFL           STORE    XMIN
000845: 12,2332           77650                           GOTO
000846: 12,2333           24316                                    CMNTOVFL
000847: 12,2334           44545        KEPCONVG           DLOAD    SR4R
000848: 12,2335           00041                                    R1
000849: 12,2336           74225                           DSU      VXSC
000850: 12,2337           00035                                    XSQC(XI)


000852: 12,2340           02647                                    URRECT
000853: 12,2341           65372                           VSL1     PDDL                                  #  0D=(R1-XSQC(XI))URRECT (+33 OR +31)
000854: 12,2342           00025                                    X
000855: 12,2343           60316                           DSQ      NORM
000856: 12,2344           00047                                    X1
000857: 12,2345           57275                           DMPR     DMPR
000858: 12,2346           00023                                    1/ROOTMU
000859: 12,2347           00025                                    X
000860: 12,2350           53605                           DMP      SRR*
000861: 12,2351           00033                                    S(XI)
000862: 12,2352           21572                                    0          -7,1
000863: 12,2353           77621                           BDSU
000864: 12,2354           00037                                    T
000865: 12,2355           74352                           SL1      VXSC
000866: 12,2356           01511                                    VRECT
000867: 12,2357           53372                           VSL1     VAD                                   #                                                PL AT 0
000868: 12,2360           77712                           VSL4
000869: 12,2361           01535                           STORE    RCV                                   #  RCV (+29 OR +27)
000870:
000871: 12,2362           60246                           ABVAL    NORM
000872: 12,2363           00050                                    X2
000873: 12,2364           16655                           STODL    RCNORM
000874: 12,2365           00031                                    XI
000875: 12,2366           45275                           DMPR     DSU
000876: 12,2367           00033                                    S(XI)
000877: 12,2370           11476                                    D1/128
000878: 12,2371           76405                           DMP      SL1R
000879: 12,2372           00021                                    ROOTMU
000880: 12,2373           53605                           DMP      SLR*
000881: 12,2374           00025                                    X
000882: 12,2375           56601                                    0          -3,2
000883: 12,2376           74271                           DDV      VXSC
000884: 12,2377           02655                                    RCNORM
000885: 12,2400           02647                                    URRECT
000886: 12,2401           65372                           VSL1     PDDL                                  #  0D=URRECT(XI S(XI)-1)X ROOTMU/RCV (+15
000887: 12,2402           00035                                    XSQC(XI)                              #  OR +13)                       PL AT 6
000888: 12,2403           56257                           SLR*     DDV
000889: 12,2404           56602                                    0          -4,2
000890: 12,2405           02655                                    RCNORM
000891: 12,2406           74221                           BDSU     VXSC
000892: 12,2407           11512                                    D1/256
000893: 12,2410           01511                                    VRECT
000894: 12,2411           42455                           VAD      VSL8
000895: 12,2412           77626                           STADR                                          #                                PL AT 0
000896: 12,2413           62234                           STODL    VCV                                   #  VCV (+7 OR +5)
000897: 12,2414           00037                                    T
000898: 12,2415           77615                           DAD
000899: 12,2416           01346                                    TMODULO
000900: 12,2417           15551                           STODL    TC


000902: 12,2420           00025                                    X
000903: 12,2421           77615                           DAD
000904: 12,2422           01344                                    XMODULO
000905: 12,2423           01553                           STORE    XPREV
000906: 12,2424           77650                           GOTO
000907: 12,2425           02270                                    KEPRTN
000908:


000910: 12,2426           77776        DELTIME            EXIT                                           #  MPAC=XI (+6), 0D=XSQ (+34 OR +32 -N1)
000911: 12,2427           07171                           TC       POLY
000912: 12,2430           00010                           DEC      8          B-14
000913: 12,2431           02525 12526                     2DEC     .083333334
000914: 12,2433           67356 75666                     2DEC     -.266666684
000915: 12,2435           15001 23771                     2DEC     .406349155
000916: 12,2437           64342 43674                     2DEC     -.361198675
000917: 12,2441           06563 04645                     2DEC     .210153242
000918: 12,2443           75173 52672                     2DEC     -.086221951
000919: 12,2445           00656 14331                     2DEC     .026268812
000920: 12,2447           77633 40512                     2DEC     -.006163316
000921: 12,2451           00023 11210                     2DEC     .001177342
000922: 12,2453           77774 67506                     2DEC     -.000199055
000923:
000924: 12,2455           06006                           TC       INTPRET
000925: 12,2456           14033                           STODL    S(XI)
000926: 12,2457           00031                                    XI
000927: 12,2460           77776                           EXIT
000928: 12,2461           07171                           TC       POLY
000929: 12,2462           00010                           DEC      8          B-14
000930: 12,2463           01000 00000                     2DEC     .031250001
000931: 12,2465           72525 52506                     2DEC     -.166666719
000932: 12,2467           13301 15337                     2DEC     .355555413
000933: 12,2471           62776 54733                     2DEC     -.406347410
000934: 12,2473           11176 13267                     2DEC     .288962094
000935: 12,2475           73410 51674                     2DEC     -.140117894
000936: 12,2477           01446 33641                     2DEC     .049247387
000937: 12,2501           77451 65233                     2DEC     -.013081923
000938: 12,2503           00055 37266                     2DEC     .002806389
000939: 12,2505           77767 52336                     2DEC     -.000529414
000940: 12,2507           06006                           TC       INTPRET


000942: 12,2510           53605                           DMP      SRR*                                  #                                PL AT 0
000943: 12,2511           00001                                    0D
000944: 12,2512           21574                                    0          -5,1
000945: 12,2513           00035                           STORE    XSQC(XI)                              #  XSQC(XI) (+33 OR +31)
000946: 12,2514           72405                           DMP      SL1
000947: 12,2515           00043                                    KEPC1
000948: 12,2516           65234                           RTB      PDDL                                  #  XCH WITH PL. 0D=C1 XSQ C(XI) (+49 OR +46
000949: 12,2517           45562                                    TPMODE                                #                                PL AT 0,3
000950: 12,2520           53605                           DMP      SRR*
000951: 12,2521           00033                                    S(XI)
000952: 12,2522           21574                                    0          -5,1
000953: 12,2523           72405                           DMP      SL1
000954: 12,2524           00045                                    KEPC2
000955: 12,2525           65234                           RTB      PDDL                                  #  3D=C2 XSQ S(XI) (+35 OR +33)  PL AT 6
000956: 12,2526           45562                                    TPMODE
000957: 12,2527           00041                                    R1
000958: 12,2530           76261                           SR       TAD                                   #                                PL AT 3
000959: 12,2531           20607                                    6
000960: 12,2532           41301                           NORM     DMP                                   #  TO PRESERVE SIGNIF.
000961: 12,2533           00047                                    X1
000962: 12,2534           00025                                    X
000963: 12,2535           76257                           SR*      TAD                                   #  X(C2 XSQ S(XI) +R1) (+49 OR +46)  PL AT 0
000964: 12,2536           20576                                    0          -3,1
000965: 12,2537           57232                           SL4R     DMPR
000966: 12,2540           00023                                    1/ROOTMU
000967: 12,2541           00037                           STORE    T
000968: 12,2542           77616                           RVQ
000969:


000971: 12,2543           71214        ITERATOR           BONCLR   DLOAD
000972: 12,2544           00614                                    SLOPESW
000973: 12,2545           24613                                    FIRSTIME
000974: 12,2546           00037                                    DEP
000975: 12,2547           60225                           DSU      NORM
000976: 12,2550           02764                                    DEPREV
000977: 12,2551           00047                                    X1
000978: 12,2552           60325                           PDDL     NORM
000979: 12,2553           00015                                    DELINDEP
000980: 12,2554           00050                                    X2
000981: 12,2555           41260                           XSU,1    DMP
000982: 12,2556           00047                                    X2
000983: 12,2557           02762                                    DELDEP
000984: 12,2560           56257                           SLR*     DDV                                   #                                PL UP 2
000985: 12,2561           21202                                    1,1
000986: 12,2562           43142                           SR1      BOFF
000987: 12,2563           04351                                    ORDERSW
000988: 12,2564           24567                                    SGNCHECK
000989: 12,2565           75246                           ABS      SIGN                                  #  IN CASE 2ND DERIV. CHANGED SIGN, MUST
000990: 12,2566           02762                                    DELDEP                                #  DISREGARD IT TO FIND MIN.
000991:
000992: 12,2567           51006        SGNCHECK           PUSH     BPL                                   #  TRIAL DELINDEP                PL DOWN 2
000993: 12,2570           24625                                    POSDEL
000994: 12,2571           43145                           DLOAD    BON
000995: 12,2572           03775                                    INDEP
000996: 12,2573           04311                                    ORDERSW
000997: 12,2574           24576                                    MINCHECK
000998: 12,2575           00017                           STORE    MAX                                   #  IF NOT 2ND ORDER, CAN MOVE MAX BOUND IN.
000999:
001000: 12,2576           45221        MINCHECK           BDSU     DSU
001001: 12,2577           00011                                    MIN
001002: 12,2600           51000                           BOV      BPL
001003: 12,2601           24605                                    MODNGDEL
001004: 12,2602           24605                                    MODNGDEL
001005: 12,2603           77650                           GOTO
001006: 12,2604           24637                                    DELOK
001007:
001008: 12,2605           45345        MODNGDEL           DLOAD    DSU                                   #  TRIAL DELINDEP WOULD EXCEED MIN BOUND
001009: 12,2606           00011                                    MIN
001010: 12,2607           03775                                    INDEP
001011: 12,2610           52005                           DMP      GOTO
001012: 12,2611           11514                                    DP9/10
001013: 12,2612           24641                                    NEWDEL
001014:
001015: 12,2613           41345        FIRSTIME           DLOAD    DMP
001016: 12,2614           00011                                    MIN
001017: 12,2615           00051                                    TWEEKIT                               #  DLOAD TWEEKIT(40D) SENSITIVE TO CHANGE.
001018: 12,2616           41325                           PDDL     DMP                                   #  S2(41D) SHOULDNT CONTAIN HI ORDER ONES


001020: 12,2617           00017                                    MAX
001021: 12,2620           00051                                    TWEEKIT
001022: 12,2621           77625                           DSU
001023: 12,2622           52165                           SIGN     GOTO
001024: 12,2623           02762                                    DELDEP
001025: 12,2624           24567                                    SGNCHECK
001026:
001027: 12,2625           43145        POSDEL             DLOAD    BON
001028: 12,2626           03775                                    INDEP
001029: 12,2627           04311                                    ORDERSW
001030: 12,2630           24632                                    MAXCHECK
001031: 12,2631           00011                           STORE    MIN                                   #  IF NOT 2ND ORDER, CAN MOVE MIN BOUND IN.
001032:
001033: 12,2632           45221        MAXCHECK           BDSU     DSU
001034: 12,2633           00017                                    MAX
001035: 12,2634           50000                           BOV      BMN
001036: 12,2635           24643                                    MODPSDEL
001037: 12,2636           24643                                    MODPSDEL
001038: 12,2637           77745        DELOK              DLOAD
001039: 12,2640           00001                                    0D
001040: 12,2641           00015        NEWDEL             STORE    DELINDEP
001041: 12,2642           77616                           RVQ
001042:
001043: 12,2643           45345        MODPSDEL           DLOAD    DSU
001044: 12,2644           00017                                    MAX
001045: 12,2645           03775                                    INDEP
001046: 12,2646           52005                           DMP      GOTO
001047: 12,2647           11514                                    DP9/10
001048: 12,2650           24641                                    NEWDEL
001049:
001050: 12,2651           44712        CHECKCTR           CS       ONE
001051: 12,2652           50120                           INDEX    FIXLOC
001052: 12,2653           60026                           AD       ITERCTR
001053: 12,2654           50120                           INDEX    FIXLOC
001054: 12,2655           54026                           TS       ITERCTR
001055: 12,2656           54154                           TS       MPAC
001056: 12,2657           06030                           TC       DANZIG
001057:


001059: 12,2660           44545        NEWSTATE           DLOAD    SR4R
001060: 12,2661           00041                                    R1
001061: 12,2662           74225                           DSU      VXSC
001062: 12,2663           00035                                    XSQC(XI)
001063: 12,2664           02724                                    UR1
001064: 12,2665           65372                           VSL1     PDDL                                  #  0D=(R1-XSQC(XI))UR1 (+33 OR 31)       PL AT 6
001065: 12,2666           00025                                    X
001066: 12,2667           60316                           DSQ      NORM
001067: 12,2670           00047                                    X1
001068: 12,2671           57275                           DMPR     DMPR
001069: 12,2672           00023                                    1/ROOTMU
001070: 12,2673           00025                                    X
001071: 12,2674           53605                           DMP      SRR*
001072: 12,2675           00033                                    S(XI)
001073: 12,2676           21572                                    0          -7,1
001074: 12,2677           77621                           BDSU
001075: 12,2700           00037                                    T
001076: 12,2701           74352                           SL1      VXSC
001077: 12,2702           02746                                    VVEC
001078: 12,2703           53372                           VSL1     VAD                                   #                                PL AT 0
001079: 12,2704           41512                           VSL4     PUSH
001080: 12,2705           77646                           ABVAL
001081: 12,2706           77701        LAMENTER           NORM
001082: 12,2707           00047                                    X1
001083: 12,2710           16722                           STODL    R2
001084: 12,2711           00031                                    XI
001085: 12,2712           45205                           DMP      DSU
001086: 12,2713           00033                                    S(XI)
001087: 12,2714           11476                                    D1/128
001088: 12,2715           76405                           DMP      SL1R
001089: 12,2716           00021                                    ROOTMU
001090: 12,2717           53605                           DMP      SLR*
001091: 12,2720           00025                                    X
001092: 12,2721           21176                                    0          -3,1
001093: 12,2722           74271                           DDV      VXSC
001094: 12,2723           02722                                    R2
001095: 12,2724           02724                                    UR1
001096: 12,2725           65372                           VSL1     PDDL                                  #  6D=V2VEC PART (+15 OR 13)     PL AT 12
001097: 12,2726           00035                                    XSQC(XI)
001098: 12,2727           56257                           SLR*     DDV
001099: 12,2730           21175                                    0          -4,1
001100: 12,2731           02722                                    R2
001101: 12,2732           77621                           BDSU
001102: 12,2733           11512                                    D1/256
001103: 12,2734           53361                           VXSC     VAD
001104: 12,2735           02746                                    VVEC                                  #                                PL AT 6
001105: 12,2736           43412                           VSL8     RVQ
001106:


001108: 04,2000                                           SETLOC   CONICS1
001109: 04,2000                                           BANK
001110:
001111: 04,3472                                           COUNT    04/CONIC
001112:                                                                                                  #  DO NOT DISTURB THE ORDER OF THESE CDS, OVERLAYS HAVE BEEN MADE.
001113: 04,3472           00000        BEE17              DEC      0          B-14                       #  KEEP WITH D1/8 2DEC 1.0B-17 (0000004000)
001114: 04,3473           04000 00000  D1/8               2DEC     1.0        B-3
001115: 04,3475           00200 00000  D1/128             2DEC     1.0        B-7
001116: 04,3477           00400 00000  D1/64              2DEC     1.0        B-6
001117: 04,3501           10000 00000  D1/4               2DEC     1.0        B-2
001118: 04,3503           02000 00000  D1/16              2DEC     1.0        B-4
001119: 04,3505           01000 00000  D1/32              2DEC     1.0        B-5
001120: 04,3507           00020 00000  D1/1024            2DEC     1.0        B-10
001121: 04,3511           00100 00000  D1/256             2DEC     1.0        B-8
001122: 04,3513           34631 23146  DP9/10             2DEC     .9
001123: 04,3515  04,3455               KEPZERO            EQUALS   LO6ZEROS
001124: 04,3515           77467 77777  -50SC              2DEC     -50.0      B-12
001125: 04,3517           03110 17665  2PISC              2DEC     6.28318530 B-6
001126: 04,3521  04,3504               BEE19              EQUALS   D1/32      -1                         #  2DEC 1.0 B-19 (00000 01000)
001127: 04,3521  04,3510               BEE22              EQUALS   D1/256     -1                         #  2DEC 1.0 B-22 (00000 00100)
001128: 04,3521           00000 00001  ONEBIT             2DEC     1.0        B-28
001129: 04,3523           37767 37737  COGUPLIM           2DEC     .999511597
001130: 04,3525           40010 40040  COGLOLIM           2DEC     -.999511597
001131:


001133: 12,2000                                           SETLOC   CONICS
001134: 12,2000                                           BANK
001135:
001136: 12,2737                                           COUNT    12/CONIC
001137:
001138: 12,2737           40220        TIMETHET           STQ      SETPD                                 #                                PL AT 0
001139: 12,2740           02712                                    RTNTT
001140: 12,2741           00001                                    0
001141: 12,2742           63375                           VLOAD    PDVL                                  #  SETUP FOR PARAM CALL          PL AT 6
001142: 12,2743           02657                                    RVEC
001143: 12,2744           02746                                    VVEC
001144: 12,2745           77624                           CALL
001145: 12,2746           11527                                    PARAM
001146: 12,2747           45000                           BOV      CALL
001147: 12,2750           24767                                    COGAOVFL                              #                                PL AT 0
001148: 12,2751           24772                                    GETX
001149: 12,2752           43145        COMMNOUT           DLOAD    BON
001150: 12,2753           00031                                    XI
001151: 12,2754           04310                                    INFINFLG
001152: 12,2755           02712                                    RTNTT
001153: 12,2756           45014                           CLEAR    CALL
001154: 12,2757           04273                                    COGAFLAG
001155: 12,2760           24426                                    DELTIME
001156: 12,2761           45014                           BON      CALL
001157: 12,2762           03706                                    RVSW
001158: 12,2763           02712                                    RTNTT
001159: 12,2764           24660                                    NEWSTATE
001160: 12,2765           77650                           GOTO
001161: 12,2766           02712                                    RTNTT
001162:
001163: 12,2767           77614        COGAOVFL           SETGO
001164: 12,2770           04033                                    COGAFLAG
001165: 12,2771           02712                                    RTNTT


001167:
001168: 04,3527                                           BANK     4
001169: 04,2000                                           SETLOC   CONICS1
001170: 04,2000                                           BANK
001171: 04,3527                                           COUNT*   $$/CONIC
001172: 04,3527           43020        PARAM              STQ      CLEAR                                 #  MPAC=V1VEC, 0D=R1VEC          PL AT 6
001173: 04,3530           02755                                    RTNPRM
001174: 04,3531           03665                                    NORMSW
001175: 04,3532           77614                           CLEAR
001176: 04,3533           04273                                    COGAFLAG
001177: 04,3534           45131                           SSP      CALL
001178: 04,3535           02675                                    GEOMSGN
001179: 04,3536           27777                                    37777                                 #  GAMMA ALWAYS LESS THAN 180DEG
001180: 04,3537           11573                                    GEOM                                  #  MPAC=SNGA (+1), 0D=CSGA (+1)  PL AT 2
001181: 04,3540           14045                           STODL    36D                                   #  36D=SIN GAMMA (+1)            PL AT 0
001182: 04,3541           56261                           SR       DDV
001183: 04,3542           20606                                    5
001184: 04,3543           00045                                    36D
001185: 04,3544           33775                           STOVL*   COGA
001186: 04,3545           11631                                    MUTABLE,1
001187: 04,3546           14017                           STODL    1/MU
001188: 04,3547           02722                                    MAGVEC2
001189: 04,3550           60316                           DSQ      NORM
001190: 04,3551           00047                                    X1
001191: 04,3552           41275                           DMPR     DMP
001192: 04,3553           00017                                    1/MU
001193: 04,3554           00041                                    R1
001194: 04,3555           77657                           SRR*
001195: 04,3556           21576                                    0          -3,1
001196: 04,3557           44206                           PUSH     BDSU                                  #  0D=R1 V1SQ/MU (+6)            PL AT 2
001197: 04,3560           11506                                    D1/32
001198: 04,3561           16744                           STODL    R1A                                   #  R1A (+6)                      PL AT 0
001199:
001200: 04,3562           60205                           DMP      NORM
001201: 04,3563           00045                                    36D
001202: 04,3564           00047                                    X1
001203: 04,3565           53605                           DMP      SR*
001204: 04,3566           00045                                    36D
001205: 04,3567           20575                                    0          -4,1
001206: 04,3570           02742                           STORE    P                                     #  P (+4)
001207: 04,3571           77650                           GOTO
001208: 04,3572           02755                                    RTNPRM
001209:


001212: 04,3573           77656        GEOM               UNIT                                           #  MPAC=V2VEC, 0D=R1VEC          PL AT 6
001213: 04,3574           16714                           STODL    U2                                    #  U2 (+1)
001214: 04,3575           00045                                    36D
001215: 04,3576           26722                           STOVL    MAGVEC2                               #                                PL AT 0
001216: 04,3577           77656                           UNIT
001217: 04,3600           02724                           STORE    UR1                                   #  UR1 (+1)
001218: 04,3601           72441                           DOT      SL1
001219: 04,3602           02714                                    U2
001220: 04,3603           77725                           PDDL                                           #  0D=CSTH (+1)                  PL AT 2
001221: 04,3604           00045                                    36D


001224: 04,3605           24041                           STOVL    R1                                    #  R1 (+29 OR +27)
001225: 04,3606           02724                                    UR1
001226: 04,3607           76435                           VXV      VSL1
001227: 04,3610           02714                                    U2
001228: 04,3611           75214                           BON      SIGN
001229: 04,3612           03705                                    NORMSW
001230: 04,3613           11625                                    HAVENORM
001231: 04,3614           02675                                    GEOMSGN
001232: 04,3615           40056                           UNIT     BOV
001233: 04,3616           11623                                    COLINEAR
001234: 04,3617           16676        UNITNORM           STODL    UN                                    #  UN (+1)
001235: 04,3620           00045                                    36D
001236: 04,3621           43565                           SIGN     RVQ                                   #  MPAC=SNTH (+1), 34D=SNTH.SNTH (+2)
001237: 04,3622           02675                                    GEOMSGN
001238:
001239: 04,3623           52162        COLINEAR           VSR1     GOTO
001240: 04,3624           11617                                    UNITNORM
001241:
001242: 04,3625           75246        HAVENORM           ABVAL    SIGN
001243: 04,3626           02675                                    GEOMSGN
001244: 04,3627           77616                           RVQ                                            #  MPAC=SNTH (+1), 34D=SNTH.SNTH (+2)
001245:


001247: 12,2772                                           BANK     12
001248: 12,2000                                           SETLOC   CONICS
001249: 12,2000                                           BANK
001250:
001251: 12,2772                                           COUNT    12/CONIC
001252:
001253: 12,2772           66374        GETX               AXT,2    SSP                                   #  ASSUMES P (+4) IN MPAC
001254: 12,2773           00003                                    3
001255: 12,2774           00052                                    S2
001256: 12,2775           00001                                    1
001257: 12,2776           77614                           CLEAR
001258: 12,2777           04276                                    360SW
001259: 12,3000           65366                           SQRT     PDDL                                  #  0D=SQRT(P)                    PL AT 2
001260: 12,3001           02734                                    CSTH
001261: 12,3002           44342                           SR1      BDSU
001262: 12,3003           11502                                    D1/4
001263: 12,3004           54325                           PDDL     SRR                                   #                                PL AT 4D
001264: 12,3005           02732                                    SNTH
001265: 12,3006           21607                                    6
001266: 12,3007           77671                           DDV                                            #                                PL AT 2
001267: 12,3010           77600                           BOV
001268: 12,3011           25125                                    360CHECK
001269: 12,3012           41225                           DSU      DMP
001270: 12,3013           03775                                    COGA                                  #                                PL AT 0
001271: 12,3014           40132                           SL2R     BOV
001272: 12,3015           25125                                    360CHECK
001273: 12,3016           63406        WLOOP              PUSH     DSQ                                   #  0D=W (+5)                     PL AT 2
001274: 12,3017           65351                           TLOAD    PDDL                                  #  2D=WSQ (+10)                  PL AT 5
001275: 12,3020           00155                                    MPAC
001276: 12,3021           02744                                    R1A
001277: 12,3022           76202                           SR4      TAD                                   #                                PL AT 2
001278: 12,3023           75440                           BMN      SQRT
001279: 12,3024           25210                                    INFINITY
001280: 12,3025           43306                           ROUND    DAD                                   #                                PL AT 0D
001281: 12,3026           61000                           BOV      TIX,2
001282: 12,3027           25123                                    RESETX2
001283: 12,3030           25016                                    WLOOP
001284:
001285: 12,3031           40065                           BDDV     BOV
001286: 12,3032           11476                                    D1/128
001287: 12,3033           25210                                    INFINITY
001288: 12,3034           41440        POLYCOEF           BMN      PUSH                                  #  0D=1/W (+2) OR 16/W (+6)      PL AT 2
001289: 12,3035           25210                                    INFINITY
001290: 12,3036           77716                           DSQ
001291: 12,3037           41301                           NORM     DMP
001292: 12,3040           00047                                    X1
001293: 12,3041           02744                                    R1A
001294: 12,3042           77457                           SRR*     EXIT
001295: 12,3043           21567                                    0          -10D,1


001297: 12,3044           07171                           TC       POLY
001298: 12,3045           00005                           DEC      5          B-14
001299: 12,3046           20000 00000                     2DEC     .5
001300: 12,3050           72525 52471                     2DEC     -.166666770
001301: 12,3052           03146 15003                     2DEC     .100000392
001302: 12,3054           75556 45210                     2DEC     -.071401086
001303: 12,3056           01615 13553                     2DEC     .055503292
001304: 12,3060           76371 63777                     2DEC     -.047264098
001305: 12,3062           01232 27367                     2DEC     .040694204
001306:
001307: 12,3064           06006                           TC       INTPRET
001308: 12,3065           76405                           DMP      SL1R                                  #                                PL AT 0D
001309: 12,3066           43006                           PUSH     BON
001310: 12,3067           04316                                    360SW
001311: 12,3070           25175                                    TRUE360X
001312: 12,3071           60316        XCOMMON            DSQ      NORM
001313: 12,3072           00047                                    X1
001314: 12,3073           53605                           DMP      SRR*
001315: 12,3074           02744                                    R1A
001316: 12,3075           21565                                    0          -12D,1
001317: 12,3076           14031                           STODL    XI                                    #  XI (+6)
001318: 12,3077           00041                                    R1
001319: 12,3100           75542                           SR1      SQRT
001320: 12,3101           41306                           ROUND    DMP
001321: 12,3102           77632                           SL4R                                           #                                PL AT 0
001322: 12,3103           00025                           STORE    X                                     #  X (+17 OR +16)
001323:
001324: 12,3104           60316                           DSQ      NORM
001325: 12,3105           00047                                    X1
001326: 12,3106           41325                           PDDL     DMP                                   #  0D=XSQ (+34 OR +32 -N1)       PL AT 2
001327: 12,3107           02742                                    P
001328: 12,3110           00041                                    R1
001329: 12,3111           75452                           SL3      SQRT
001330: 12,3112           56405                           DMP      SL3R
001331: 12,3113           03775                                    COGA
001332: 12,3114           14043                           STODL    KEPC1
001333: 12,3115           02744                                    R1A
001334: 12,3116           43021                           BDSU     CLEAR
001335: 12,3117           11500                                    D1/64
001336: 12,3120           04270                                    INFINFLG
001337: 12,3121           00045                           STORE    KEPC2


001339: 12,3122           77616                           RVQ
001340:
001341: 12,3123           77774        RESETX2            AXT,2
001342: 12,3124           00003                                    3
001343:
001344: 12,3125           51001        360CHECK           SETPD    BPL
001345: 12,3126           00001                                    0D
001346: 12,3127           25132                                    INVRSEQN
001347: 12,3130           77614                           SET
001348: 12,3131           04076                                    360SW
001349:
001350: 12,3132           75545        INVRSEQN           DLOAD    SQRT
001351: 12,3133           02742                                    P
001352: 12,3134           41325                           PDDL     DMP                                   #  0D=SQRT(P) (+2)               PL AT 2
001353: 12,3135           02732                                    SNTH
001354: 12,3136           03775                                    COGA
001355: 12,3137           65352                           SL1      PDDL                                  #  2D=SNTH COGA (+5)             PL AT 4
001356: 12,3140           02734                                    CSTH
001357: 12,3141           43202                           SR4      DAD
001358: 12,3142           11506                                    D1/32
001359: 12,3143           41225                           DSU      DMP                                   #                                PL AT 2,0
001360: 12,3144           55301                           NORM     BDDV
001361: 12,3145           00047                                    X1
001362: 12,3146           02732                                    SNTH
001363: 12,3147           51457                           SLR*     ABS                                   #  NOTE: NEAR 360 CASE TREATED DIFFERENTLY
001364: 12,3150           21174                                    0          -5,1
001365: 12,3151           63406                           PUSH     DSQ                                   #  0D=1/W (-1)                   PL AT 2
001366: 12,3152           14043                           STODL    34D
001367: 12,3153           11504                                    D1/16
001368: 12,3154           63406        1/WLOOP            PUSH     DSQ                                   #  2D=G (+4)                     PL AT 4
001369: 12,3155           65234                           RTB      PDDL                                  #                                PL AT 7
001370: 12,3156           45562                                    TPMODE
001371: 12,3157           02744                                    R1A
001372: 12,3160           40405                           DMP      SR4
001373: 12,3161           00043                                    34D
001374: 12,3162           77771                           TAD
001375: 12,3163           75440                           BMN      SQRT                                  #                                PL AT 4
001376: 12,3164           25210                                    INFINITY
001377: 12,3165           77615                           DAD                                            #                                PL AT 2
001378: 12,3166           60304                           TIX,2    NORM
001379: 12,3167           25154                                    1/WLOOP
001380: 12,3170           00047                                    X1
001381: 12,3171           77665                           BDDV
001382: 12,3172           52057                           SLR*     GOTO                                  #                                PL AT 0
001383: 12,3173           21172                                    0          -7,1
001384: 12,3174           25034                                    POLYCOEF
001385:


001387: 12,3175           50145        TRUE360X           DLOAD    BMN
001388: 12,3176           02744                                    R1A
001389: 12,3177           25210                                    INFINITY
001390: 12,3200           60366                           SQRT     NORM
001391: 12,3201           00047                                    X1
001392: 12,3202           53665                           BDDV     SL*
001393: 12,3203           11520                                    2PISC
001394: 12,3204           20176                                    0          -3,1
001395: 12,3205           41425                           DSU      PUSH                                  #  0D=2PI/SQRT(R1A) -X           PL AT 0,2
001396: 12,3206           77650                           GOTO
001397: 12,3207           25071                                    XCOMMON
001398: 12,3210           40001        INFINITY           SETPD    BOV                                   #  NO SOLUTION EXISTS SINCE CLOSURE THROUGH
001399: 12,3211           00001                                    0                                     #  INFINITY IS REQUIRED
001400: 12,3212           25213                                    OVFLCLR
001401: 12,3213           43414        OVFLCLR            SET      RVQ
001402: 12,3214           04070                                    INFINFLG
001403:


001405: 12,3215           40220        LAMBERT            STQ      SETPD
001406: 12,3216           02712                                    RTNLAMB
001407: 12,3217           00001                                    0D
001408: 12,3220           76731                           SSP      VLOAD*
001409: 12,3221           00027                                    ITERCTR
001410: 12,3222           00024                                    20D
001411: 12,3223           11631                                    MUTABLE,1
001412: 12,3224           14017                           STODL    1/MU
001413: 12,3225           02673                                    TDESIRED
001414: 12,3226           77675                           DMPR
001415: 12,3227           11505                                    BEE19
001416: 12,3230           03777                           STORE    EPSILONL
001417: 12,3231           77214                           SET      VLOAD
001418: 12,3232           00474                                    SLOPESW
001419: 12,3233           02657                                    R1VEC
001420: 12,3234           45115                           PDVL     CALL                                  #  0D=R1VEC (+29 OR +27)         PL AT 6
001421: 12,3235           02665                                    R2VEC                                 #  MPAC=R2VEC (+29 OR +27)
001422: 12,3236           11573                                    GEOM
001423: 12,3237           16732                           STODL    SNTH                                  #  0D=CSTH (+1)                  PL AT 2
001424: 12,3240           02722                                    MAGVEC2
001425: 12,3241           65301                           NORM     PDDL                                  #                                PL AT 4
001426: 12,3242           00047                                    X1
001427: 12,3243           00041                                    R1
001428: 12,3244           56342                           SR1      DDV                                   #                                PL AT 2
001429: 12,3245           65257                           SL*      PDDL                                  #  DXCH WITH 0D, 0D=R1/R2 (+7)   PL AT 0,2
001430: 12,3246           20173                                    0          -6,1
001431: 12,3247           77626                           STADR
001432: 12,3250           75043                           STORE    CSTH                                  #  CSTH (+1)
001433: 12,3251           44342                           SR1      BDSU
001434: 12,3252           11502                                    D1/4
001435: 12,3253           02736                           STORE    1-CSTH                                #  1-CSTH (+2)
001436:
001437: 12,3254           53106                           ROUND    BZE
001438: 12,3255           25465                                    360LAMB
001439: 12,3256           65301                           NORM     PDDL                                  #                                PL AT 4
001440: 12,3257           00047                                    X1
001441: 12,3260           00001                                    0D
001442: 12,3261           56342                           SR1      DDV                                   #                                PL AT 2
001443: 12,3262           75457                           SL*      SQRT
001444: 12,3263           20176                                    0          -3,1
001445: 12,3264           54325                           PDDL     SR                                    #  2D=SQRT(2R1/R2(1-CSTH)) (+5)  PL AT 4
001446: 12,3265           02732                                    SNTH
001447: 12,3266           20607                                    6
001448: 12,3267           43271                           DDV      DAD                                   #                                PL AT 2
001449: 12,3270           02736                                    1-CSTH
001450: 12,3271           77626                           STADR
001451: 12,3272           77760                           STORE    COGAMAX
001452: 12,3273           50000                           BOV      BMN                                   #  IF OVFL, COGAMAX=COGUPLIM
001453: 12,3274           25301                                    UPLIM                                 #  IF NEG, USE EVEN IF LT COGLOLIM, SINCE
001454: 12,3275           25304                                    MAXCOGA                               #        THIS WOULD BE RESET IN LAMBLOOP


001456: 12,3276           50025                           DSU      BMN                                   #  IF COGAMAX GT COGUPLIM, COGAMAX=COGUPLIM
001457: 12,3277           11524                                    COGUPLIM
001458: 12,3300           25304                                    MAXCOGA                               #  OTHERWISE OK, SO GO TO MAXCOGA
001459: 12,3301           77745        UPLIM              DLOAD
001460: 12,3302           11524                                    COGUPLIM                              #  COGUPLIM=.999511597 = MAX VALUE OF COGA
001461: 12,3303           00017                           STORE    COGAMAX                               #        NOT CAUSING OVFL IN R1A CALCULATION
001462: 12,3304           77745        MAXCOGA            DLOAD
001463: 12,3305           02734                                    CSTH
001464: 12,3306           45261                           SR       DSU                                   #                                        PL AT 0
001465: 12,3307           20607                                    6
001466: 12,3310           77626                           STADR
001467: 12,3311           61037                           STODL    CSTH-RHO
001468: 12,3312           02675                                    GEOMSGN
001469: 12,3313           71240                           BMN      DLOAD
001470: 12,3314           25505                                    LOLIM
001471: 12,3315           02740                                    CSTH-RHO
001472: 12,3316           56352                           SL1      DDV
001473: 12,3317           02732                                    SNTH
001474: 12,3320           77600                           BOV
001475: 12,3321           25505                                    LOLIM
001476: 12,3322           00011        MINCOGA            STORE    COGAMIN                               #  COGAMIN (+5)
001477: 12,3323           66214                           BON      SSP
001478: 12,3324           00715                                    GUESSW
001479: 12,3325           25471                                    NOGUESS
001480: 12,3326           00051                                    TWEEKIT
001481: 12,3327           00001                                    00001
001482: 12,3330           77745                           DLOAD
001483: 12,3331           03775                                    COGA
001484:
001485: 12,3332           77605        LAMBLOOP           DMP
001486: 12,3333           02732                                    SNTH
001487: 12,3334           45342                           SR1      DSU
001488: 12,3335           02740                                    CSTH-RHO
001489: 12,3336           65301                           NORM     PDDL                                  #  0D=SNTH COGA-(CSTH-RHO) (+7+C(X1))    PL=2
001490: 12,3337           00047                                    X1
001491: 12,3340           02736                                    1-CSTH
001492: 12,3341           56257                           SL*      DDV                                   #  1-CSTH (+2)                           PL AT 0
001493: 12,3342           20170                                    0          -9D,1
001494: 12,3343           53040                           BMN      BZE
001495: 12,3344           25421                                    NEGP
001496: 12,3345           25421                                    NEGP
001497: 12,3346           16742                           STODL    P                                     #  P=(1-CSTH)/(SNTH COGA-(CSTH-RHO)) (+4)
001498: 12,3347           03775                                    COGA
001499: 12,3350           43316                           DSQ      DAD
001500: 12,3351           11510                                    D1/1024
001501: 12,3352           41301                           NORM     DMP
001502: 12,3353           00047                                    X1
001503: 12,3354           02742                                    P
001504: 12,3355           44257                           SR*      BDSU


001506: 12,3356           20571                                    0          -8D,1
001507: 12,3357           11506                                    D1/32
001508: 12,3360           16744                           STODL    R1A                                   #  R1A=2-P(1+COGA COGA) (+6)
001509: 12,3361           02742                                    P
001510: 12,3362           45000                           BOV      CALL
001511: 12,3363           25424                                    HIENERGY
001512: 12,3364           24772                                    GETX
001513: 12,3365           77745                           DLOAD
001514: 12,3366           00037                                    T
001515: 12,3367           16764                           STODL    TPREV
001516: 12,3370           00031                                    XI
001517: 12,3371           45014                           BON      CALL
001518: 12,3372           04310                                    INFINFLG
001519: 12,3373           25421                                    NEGP                                  #  HAVE EXCEEDED THEORETICAL BOUNDS
001520: 12,3374           24426                                    DELTIME
001521: 12,3375           44200                           BOV      BDSU
001522: 12,3376           25441                                    BIGTIME
001523: 12,3377           02673                                    TDESIRED
001524: 12,3400           02762                           STORE    TERRLAMB
001525: 12,3401           44246                           ABS      BDSU
001526: 12,3402           03777                                    EPSILONL
001527: 12,3403           47044                           BPL      RTB
001528: 12,3404           25510                                    INITV
001529: 12,3405           24651                                    CHECKCTR
001530: 12,3406           45030                           BHIZ     CALL
001531: 12,3407           25452                                    SUFFCHEK
001532: 12,3410           24543                                    ITERATOR
001533: 12,3411           53145                           DLOAD    BZE
001534: 12,3412           00155                                    MPAC
001535: 12,3413           25452                                    SUFFCHEK
001536: 12,3414           77615                           DAD
001537: 12,3415           03775                                    COGA
001538: 12,3416           03775                           STORE    COGA
001539: 12,3417           77650                           GOTO
001540: 12,3420           25332                                    LAMBLOOP
001541:
001542: 12,3421           51145        NEGP               DLOAD    BPL                                   #  IMPOSSIBLE TRAJECTORY DUE TO INACCURATE
001543: 12,3422           00015                                    DCOGA                                 #  BOUND CALCULATION.  TRY NEW COGA.
001544: 12,3423           25444                                    LOENERGY
001545:
001546: 12,3424           71201        HIENERGY           SETPD    DLOAD                                 #  HIGH ENERGY TRAJECTORY RESULTED
001547: 12,3425           00001                                    0
001548: 12,3426           03775                                    COGA                                  #  IN OVFL OF P OR R1A, OR XI EXCEEDING 50.
001549: 12,3427           00011                           STORE    COGAMIN                               #  THIS IS THE NEW BOUND.
001550: 12,3430           70545        COMMONLM           DLOAD    SR1
001551: 12,3431           00015                                    DCOGA
001552: 12,3432           00015                           STORE    DCOGA                                 #  USE DCOGA/2 AS DECREMENT


001554: 12,3433           44254                           BZE      BDSU
001555: 12,3434           25452                                    SUFFCHEK
001556: 12,3435           03775                                    COGA
001557: 12,3436           03775                           STORE    COGA
001558: 12,3437           77650                           GOTO                                           #  RESTART THIS LOOP
001559: 12,3440           25332                                    LAMBLOOP
001560:
001561: 12,3441           77745        BIGTIME            DLOAD
001562: 12,3442           02764                                    TPREV
001563: 12,3443           00037                           STORE    T
001564:
001565: 12,3444           71201        LOENERGY           SETPD    DLOAD                                 #  LOW ENERGY TRAJECTORY RESULTED
001566: 12,3445           00001                                    0
001567: 12,3446           03775                                    COGA                                  #  IN OVERFLOW OF TIME.
001568: 12,3447           00017                           STORE    COGAMAX                               #  THIS IS THE NEW BOUND.
001569: 12,3450           77650                           GOTO
001570: 12,3451           25430                                    COMMONLM
001571:
001572: 12,3452           51545        SUFFCHEK           DLOAD    ABS
001573: 12,3453           02762                                    TERRLAMB
001574: 12,3454           41325                           PDDL     DMP
001575: 12,3455           02673                                    TDESIRED                              #                                PL AT 2D
001576: 12,3456           11502                                    D1/4
001577: 12,3457           45215                           DAD      DSU                                   #                                PL AT 0D
001578: 12,3460           11522                                    ONEBIT
001579: 12,3461           43044                           BPL      SETGO
001580: 12,3462           25510                                    INITV
001581: 12,3463           02434                                    SOLNSW
001582: 12,3464           02712                                    RTNLAMB
001583: 12,3465           43001        360LAMB            SETPD    SETGO                                 #  LAMBERT CANNOT HANDLE CSTH=1
001584: 12,3466           00001                                    0
001585: 12,3467           02434                                    SOLNSW
001586: 12,3470           02712                                    RTNLAMB
001587:
001588: 12,3471           71331        NOGUESS            SSP      DLOAD
001589: 12,3472           00051                                    TWEEKIT
001590: 12,3473           10000                                    20000
001591: 12,3474           00011                                    COGAMIN
001592: 12,3475           65342                           SR1      PDDL                                  #                                PL AT 2
001593: 12,3476           00017                                    COGAMAX
001594: 12,3477           43342                           SR1      DAD
001595: 12,3500           77626                           STADR                                          #                                PL AT 0
001596: 12,3501           74002                           STORE    COGA
001597: 12,3502           00015                           STORE    DCOGA


001599: 12,3503           77650                           GOTO
001600: 12,3504           25332                                    LAMBLOOP


001604: 12,3505           52145        LOLIM              DLOAD    GOTO
001605: 12,3506           11526                                    COGLOLIM                              #  COGLOLIM=-.999511597
001606: 12,3507           25322                                    MINCOGA
001607: 12,3510           60345        INITV              DLOAD    NORM
001608: 12,3511           00041                                    R1
001609: 12,3512           00047                                    X1
001610: 12,3513           70525                           PDDL     SR1                                   #                                PL AT 2
001611: 12,3514           02742                                    P
001612: 12,3515           77671                           DDV                                            #                                PL AT 0
001613: 12,3516           75457                           SL*      SQRT
001614: 12,3517           20175                                    0          -4,1
001615: 12,3520           72405                           DMP      SL1
001616: 12,3521           00021                                    ROOTMU
001617: 12,3522           41206                           PUSH     DMP                                   #  0D=VTAN (+7)                  PL AT 2
001618: 12,3523           03775                                    COGA
001619: 12,3524           74261                           SL       VXSC
001620: 12,3525           20206                                    5
001621: 12,3526           02724                                    UR1
001622: 12,3527           77725                           PDDL                                           #  XCH WITH 0D                   PL AT 0,6
001623: 12,3530           76561                           VXSC     VSL1
001624: 12,3531           02676                                    UN
001625: 12,3532           53235                           VXV      VAD
001626: 12,3533           02724                                    UR1                                   #                                PL AT 0
001627: 12,3534           43172                           VSL1     CLEAR
001628: 12,3535           02674                                    SOLNSW
001629: 12,3536           02746                           STORE    VVEC
001630: 12,3537           53135                           SLOAD    BZE
001631: 12,3540           02704                                    VTARGTAG
001632: 12,3541           25544                                    TARGETV
001633: 12,3542           77650                           GOTO
001634: 12,3543           02712                                    RTNLAMB
001635:
001636: 12,3544           45145        TARGETV            DLOAD    CALL
001637: 12,3545           02722                                    MAGVEC2
001638: 12,3546           24706                                    LAMENTER
001639: 12,3547           02705                           STORE    VTARGET
001640: 12,3550           77650                           GOTO
001641: 12,3551           02712                                    RTNLAMB
001642:


001644: 12,3552           40220        TIMERAD            STQ      SETPD                                 #                                PL AT 0
001645: 12,3553           02712                                    RTNTR
001646: 12,3554           00001                                    0
001647: 12,3555           63375                           VLOAD    PDVL                                  #                                PL AT 6
001648: 12,3556           02657                                    RVEC
001649: 12,3557           02746                                    VVEC
001650: 12,3560           77624                           CALL
001651: 12,3561           11527                                    PARAM
001652: 12,3562           71200                           BOV      DLOAD
001653: 12,3563           24767                                    COGAOVFL                              #                                PL AT 0
001654: 12,3564           11506                                    D1/32
001655: 12,3565           41225                           DSU      DMP
001656: 12,3566           02744                                    R1A
001657: 12,3567           02742                                    P
001658: 12,3570           41366                           SQRT     DMP
001659: 12,3571           03775                                    COGA
001660: 12,3572           74212                           SL4      VXSC
001661: 12,3573           02714                                    U2
001662: 12,3574           45325                           PDDL     DSU                                   #                                PL AT 6
001663: 12,3575           11500                                    D1/64
001664: 12,3576           02744                                    R1A
001665: 12,3577           52361                           VXSC     VSU                                   #                                PL AT 0
001666: 12,3600           02724                                    UR1
001667: 12,3601           53512                           VSL4     UNIT
001668: 12,3602           77600                           BOV
001669: 12,3603           25465                                    360LAMB                               #  NO SOLUTION SINCE CONIC IS A CIRCLE
001670: 12,3604           60325                           PDDL     NORM                                  #  0D=UNIT(ECC) (+3)             PL AT 6
001671: 12,3605           02760                                    RDESIRED                              #  36D=ECC (+3)
001672: 12,3606           00047                                    X1
001673: 12,3607           41325                           PDDL     DMP                                   #                                PL AT 8
001674: 12,3610           00041                                    R1
001675: 12,3611           02742                                    P
001676: 12,3612           56257                           SL*      DDV                                   #                                PL AT 6
001677: 12,3613           20201                                    0,1
001678: 12,3614           56225                           DSU      DDV
001679: 12,3615           11504                                    D1/16
001680: 12,3616           00045                                    36D                                   #  36D=ECC (+3)
001681: 12,3617           00031                           STORE    COSF
001682: 12,3620           63400                           BOV      DSQ
001683: 12,3621           25661                                    BADR2
001684: 12,3622           50021                           BDSU     BMN
001685: 12,3623           11502                                    D1/4
001686: 12,3624           25661                                    BADR2
001687: 12,3625           75366                           SQRT     SIGN
001688: 12,3626           02757                                    SGNRDOT
001689: 12,3627           77614                           CLEAR
001690: 12,3630           04272                                    APSESW
001691:
001692: 12,3631           76561        TERMNVEC           VXSC     VSL1
001693: 12,3632           02676                                    UN


001695: 12,3633           63235                           VXV      PDVL                                  #  VXCH WITH 0D          PL AT 0,6
001696: 12,3634           00001                                    0D
001697: 12,3635           53361                           VXSC     VAD                                   #                        PL AT 0
001698: 12,3636           00031                                    COSF
001699: 12,3637           41572                           VSL1     PUSH                                  #  0D=U2                 PL AT 6
001700:
001701: 12,3640           56241                           DOT      DDV                                   #  LIMITS RESULT TO POSMAX OR NEGMAX
001702: 12,3641           02724                                    UR1
001703: 12,3642           23701                                    DP1/4
001704: 12,3643           40142                           SR1      BOV                                   #  SCALE BACK DOWN TO NORMAL
001705: 12,3644           25645                                    +1                                    #  CLEAR OVFIND IF SET
001706: 12,3645           26734                           STOVL    CSTH                                  #  CSTH (+1)
001707: 12,3646           02724                                    UR1
001708: 12,3647           76435                           VXV      VSL1
001709: 12,3650           72441                           DOT      SL1
001710: 12,3651           02676                                    UN
001711: 12,3652           16732                           STODL    SNTH                                  #  SNTH (+1)
001712: 12,3653           02742                                    P
001713: 12,3654           77624                           CALL
001714: 12,3655           24772                                    GETX
001715: 12,3656           77614                           CLRGO
001716: 12,3657           02634                                    SOLNSW
001717: 12,3660           24752                                    COMMNOUT
001718:
001719: 12,3661           75345        BADR2              DLOAD    SIGN
001720: 12,3662           11454                                    LODPHALF
001721: 12,3663           00031                                    COSF
001722: 12,3664           14031                           STODL    COSF
001723: 12,3665           11456                                    KEPZERO
001724: 12,3666           77614                           SETGO
001725: 12,3667           04032                                    APSESW
001726: 12,3670           25631                                    TERMNVEC
001727:
001728: 12,3671           40220        APSIDES            STQ      SETPD                                 #                        PL AT 0
001729: 12,3672           02712                                    RTNAPSE
001730: 12,3673           00001                                    0D
001731: 12,3674           63375                           VLOAD    PDVL                                  #                        PL AT 6
001732: 12,3675           02657                                    RVEC
001733: 12,3676           02746                                    VVEC
001734: 12,3677           77624                           CALL
001735: 12,3700           11527                                    PARAM
001736: 12,3701           77600                           BOV                                            #                        PL AT 0
001737: 12,3702           25703                                    GETECC
001738: 12,3703           42405        GETECC             DMP      SL4
001739: 12,3704           02744                                    R1A
001740: 12,3705           75421                           BDSU     SQRT
001741: 12,3706           11500                                    D1/64
001742: 12,3707           02754                           STORE    ECC
001743: 12,3710           65215                           DAD      PDDL                                  #                        PL AT 2
001744: 12,3711           11474                                    D1/8


001746: 12,3712           00041                                    R1
001747: 12,3713           72405                           DMP      SL1
001748: 12,3714           02742                                    P
001749: 12,3715           77671                           DDV                                            #                        PL AT 0
001750: 12,3716           60325                           PDDL     NORM                                  #  0D=RP (+29 OR +27)    PL AT 2
001751: 12,3717           02744                                    R1A
001752: 12,3720           00047                                    X1
001753: 12,3721           53725                           PDDL     SL*                                   #                        PL AT 4
001754: 12,3722           00041                                    R1
001755: 12,3723           20174                                    0          -5,1
001756: 12,3724           45271                           DDV      DSU                                   #                        PL AT 2,0
001757: 12,3725           50000                           BOV      BMN
001758: 12,3726           25732                                    INFINAPO
001759: 12,3727           25732                                    INFINAPO
001760: 12,3730           77650                           GOTO
001761: 12,3731           02712                                    RTNAPSE
001762: 12,3732           52145        INFINAPO           DLOAD    GOTO                                  #  RETURNS WITH APOAPSIS IN MPAC, PERIAPSIS
001763: 12,3733           11467                                    LDPOSMAX
001764: 12,3734           02712                                    RTNAPSE                               #  THAT PL IS AT 0.
001765:


001767: 04,2000                                           SETLOC   CONICS1
001768: 04,2000                                           BANK
001769:
001770: 04,3630                                           COUNT    04/CONIC
001771:
001772: 04,3630           22437 16067  MUTABLE            2DEC*    3.986032   E10        B-36*           #  MUE
001773: 04,3632           15625 21042                     2DEC*    .25087606  E-10       B+34*           #  1/MUE
001774: 04,3634           30276 04773                     2DEC*    1.99650495 E5         B-18*           #  SQRT(MUE)
001775: 04,3636           25004 06702                     2DEC*    .50087529  E-5        B+17*           #  1/SQRT(MUE)
001776:
001777: 04,3640           16471 01352                     2DEC     4.902778   E8         B-30            #  MUM
001778: 04,3642           21412 20500                     2DEC     .203966    E-8        B+28            #  1/MUM
001779: 04,3644           25477 03367                     2DEC*    2.21422176 E4         B-15*           #  SQRT(MUM)
001780: 04,3646           27533 07571                     2DEC*    .45162595  E-4        B+14*           #  1/SQRT(MUM)
001781:
001782: 04,3650  04,3466               LDPOSMAX           EQUALS   LODPMAX                               #  DPPOSMAX IN LOW MEMORY.
001783:
001784:                                                                                                  #  ERASABLE ASSIGNMENTS
001785:                                                                                                  #  KEPLER SUBROUTINE
001786:
001787:                                                                                                  #  INPUT -
001788:                                                                                                  #  RRECT         ERASE   +5
001789:                                                                                                  #  VRECT         ERASE   +5
001790:                                                                                                  #  TAU.          ERASE   +1
001791:                                                                                                  #  XKEP          ERASE   +1
001792:                                                                                                  #  TC            ERASE   +1
001793:                                                                                                  #  XPREV         ERASE   +1
001794: 04,3650                        1/MU               EQUALS   14D
001795: 04,3650                        ROOTMU             EQUALS   16D
001796: 04,3650                        1/ROOTMU           EQUALS   18D
001797:
001798:                                                                                                  #  OUTPUT -
001799:                                                                                                  #  RCV           ERASE   +5
001800:                                                                                                  #  VCV           ERASE   +5
001801:                                                                                                  #  RC            ERASE   +1
001802:                                                                                                  #  XPREV         ERASE   +1
001803:
001804:                                                                                                  #  DEBRIS -
001805: 04,3650                        ALPHA              EQUALS   8D
001806: 04,3650                        XMAX               EQUALS   10D


001808: 04,3650                        XMIN               EQUALS   12D
001809: 04,3650                        X                  EQUALS   20D
001810: 04,3650                        XI                 EQUALS   24D
001811: 04,3650                        S(XI)              EQUALS   26D
001812: 04,3650                        XSQC(XI)           EQUALS   28D
001813: 04,3650                        T                  EQUALS   30D
001814: 04,3650                        R1                 EQUALS   32D
001815: 04,3650                        KEPC1              EQUALS   34D
001816: 04,3650                        KEPC2              EQUALS   36D
001817:
001818:                                                                                                  #  DELX          ERASE   +1
001819:                                                                                                  #  DELT          ERASE   +1
001820:                                                                                                  #  URRECT        ERASE   +5
001821:                                                                                                  #  RCNORM        ERASE   +1
001822:                                                                                                  #  XPREV         EQUALS  XKEP
001823:
001824:
001825:                                                                                                  #  LAMBERT SUBROUTINE
001826:
001827:                                                                                                  #  INPUT -
001828:                                                                                                  #  R1VEC         ERASE   +5
001829:                                                                                                  #  R2VEC         ERASE   +5
001830:                                                                                                  #  TDESIRED      ERASE   +1
001831:                                                                                                  #  GEOMSGN       ERASE   +0
001832:                                                                                                  #  GUESSW                        0 IF COGA GUESS AVAILABLE, 1 IF NOT
001833:                                                                                                  #  COGA          ERASE   +1      INPUT ONLY IF GUESSW IS ZERO.
001834:                                                                                                  #  NORMSW                        0 IF UN TO BE COMPUTED, 1 IF UN INPUT
001835:                                                                                                  #  UN            ERASE   +5      ONLY USED IF NORMSW IS 1
001836:                                                                                                  #  VTARGTAG      ERASE   +0
001837:                                                                                                  #  TWEEKIT       EQUALS  40D     ONLY USED IF GUESSW IS 0
001838:
001839:                                                                                                  #  OUTPUT -
001840:                                                                                                  #  VTARGET       ERASE   +5      AVAILABLE ONLY IF VTARGTAG IS ZERO.
001841:                                                                                                  #  V1VEC         EQUALS  MPAC
001842:
001843:                                                                                                  #  DEBRIS -
001844:                                                                                                  #  RTNLAMB       ERASE   +0
001845:                                                                                                  #  U2            ERASE   +5
001846:                                                                                                  #  MAGVEC2       ERASE   +1
001847:                                                                                                  #  UR1           ERASE   +5
001848:                                                                                                  #  R1            EQUALS  31D
001849:                                                                                                  #  UN            ERASE   +5
001850:                                                                                                  #  SNTH          ERASE   +1
001851:                                                                                                  #  CSTH          ERASE   +1
001852:                                                                                                  #  1-CSTH        ERASE   +1
001853:                                                                                                  #  CSTH-RHO      ERASE   +1
001854:
001855: 04,3650                        COGAMAX            EQUALS   14D                                   #  CLOBBERS 1/MU
001856: 04,3650                        COGAMIN            EQUALS   8D
001857: 04,3650                        DCOGA              EQUALS   12D
001858:
001859:                                                                                                  #  TWEEKIT       EQUALS  40D
001860:                                                                                                  #  P             ERASE   +1


001862:                                                                                                  #  COGA          ERASE   +1
001863:                                                                                                  #  R1A           ERASE   +1
001864:                                                                                                  #  X             EQUALS  20D
001865:                                                                                                  #  XSQ           EQUALS  22D
001866:                                                                                                  #  XI            EQUALS  24D
001867:                                                                                                  #  S(XI)         EQUALS  26D
001868:                                                                                                  #  XSQC(XI)      EQUALS  28D
001869:                                                                                                  #  T             EQUALS  30D
001870:                                                                                                  #  KEPC1         EQUALS  34D
001871:                                                                                                  #  KEPC2         EQUALS  36D
001872:                                                                                                  #  SLOPESW
001873:                                                                                                  #  SOLNSW
001874:
001875:                                                                                                  #  OTHERS -
001876:                                                                                                  #  RVEC          EQUALS  R1VEC
001877:                                                                                                  #  VVEC          ERASE   +5
001878:                                                                                                  #  COGAFLAG
001879:                                                                                                  #  RVSW
001880:                                                                                                  #  INFINFLG
001881:                                                                                                  #  APSESW
001882:                                                                                                  #  360SW
001883:                                                                                                  #  RTNTT         EQUALS  RTNLAMB
001884:                                                                                                  #  ECC           ERASE   +1
001885:                                                                                                  #  RTNTR         EQUALS  RTNLAMB
001886:                                                                                                  #  RTNAPSE       EQUALS  RTNLAMB
001887:                                                                                                  #  R2            EQUALS  MAGVEC2
001888:
001889: 04,3650                        COSF               EQUALS   24D
001890:
001891:                                                                                                  #  RTNPRM        ERASE   +0
001892:                                                                                                  #  SGNRDOT       ERASE   +0
001893:                                                                                                  #  RDESIRED      ERASE   +1
001894:
001895:
001896:                                                                                                  #  ITERATOR SUBROUTINE
001897:                                                                                                  #  ORDERSW
001898: 04,3650                        MAX                EQUALS   14D                                   #  CLOBBERS 1/MU
001899: 04,3650                        MIN                EQUALS   8D
001900:
001901:                                                                                                  #  INDEP         ERASE   +1
001902:
001903: 04,3650                        DELINDEP           EQUALS   12D
001904: 04,3650                        ITERCTR            EQUALS   22D
001905: 04,3650                        DEP                EQUALS   30D
001906:
001907:                                                                                                  #  DELDEP        ERASE   +1
001908:                                                                                                  #  DEPREV        ERASE   +1
001909:
001910: 04,3650                        TWEEKIT            EQUALS   40D
001911:
001912:
001913:                                                                                                  #  MORE KEPLER
001914:                                                                                                  #  EPSILONT      ERASE   +1
001915:


001917:                                                                                                  #  MORE LAMBERT
001918:                                                                                                  #  TERRLAMB      EQUALS  DELDEP
001919:                                                                                                  #  TPREV         EQUALS  DEPREV
001920:                                                                                                  #  EPSILONL      EQUALS  EPSILONT +2     DOUBLE PRECISION WORD
001921:
001922:

End of include-file CONIC_SUBROUTINES.agc.  Parent file is MAIN.agc


