
Source Code


000002:                                                                                                  ## Copyright:   Public domain.
000003:                                                                                                  ## Filename:    DISPLAY_INTERFACE_ROUTINES.agc
000004:                                                                                                  ## Purpose:     Part of the source code for Colossus, build 249.
000005:                                                                                                  ##              It is part of the source code for the Command Module's (CM)
000006:                                                                                                  ##              Apollo Guidance Computer (AGC), possibly for Apollo 8 and 9.
000007:                                                                                                  ## Assembler:   yaYUL
000008:                                                                                                  ## Reference:   Starts on p. 1442 of 1701.pdf.
000009:                                                                                                  ## Contact:     Ron Burkey <info@sandroid.org>.
000010:                                                                                                  ## Website:     www.ibiblio.org/apollo.
000011:                                                                                                  ## Mod history: 08/30/04   RSB  Adapted from corresponding Luminary131 file.
000012:                                                                                                  ##              2010-10-24 JL   Indentation fixes.
000013:                                                                                                  ##              2011-05-07 JL   Removed workarounds.
000014:                                                                                                  ##
000015:                                                                                                  ## The contents of the "Colossus249" files, in general, are transcribed
000016:                                                                                                  ## from a scanned document obtained from MIT's website,
000017:                                                                                                  ## http://hrst.mit.edu/hrs/apollo/public/archive/1701.pdf.  Notations on this
000018:                                                                                                  ## document read, in part:
000019:                                                                                                  ##
000020:                                                                                                  ##      Assemble revision 249 of AGC program Colossus by NASA
000021:                                                                                                  ##      2021111-041.  October 28, 1968.
000022:                                                                                                  ##
000023:                                                                                                  ##      This AGC program shall also be referred to as
000024:                                                                                                  ##                              Colossus 1A
000025:                                                                                                  ##
000026:                                                                                                  ##      Prepared by
000027:                                                                                                  ##                      Massachusetts Institute of Technology
000028:                                                                                                  ##                      75 Cambridge Parkway
000029:                                                                                                  ##                      Cambridge, Massachusetts
000030:                                                                                                  ##      under NASA contract NAS 9-4065.
000031:                                                                                                  ##
000032:                                                                                                  ## Refer directly to the online document mentioned above for further information.
000033:                                                                                                  ## Please report any errors (relative to 1701.pdf) to info@sandroid.org.
000034:                                                                                                  ##
000035:                                                                                                  ## In some cases, where the source code for Luminary 131 overlaps that of
000036:                                                                                                  ## Colossus 249, this code is instead copied from the corresponding Luminary 131
000037:                                                                                                  ## source file, and then is proofed to incorporate any changes.
000038:


000040:                                                                                                  #  DISPLAYS CAN BE CLASSIFIED INTO THE FOLLOWING CATEGORIES --
000041:                                                                                                  #        1.  PRIORITY DISPLAYS -- DISPLAYS WHICH TAKE PRIORITY OVER ALL OTHER DISPLAYS.  USUALLY THESE DISPLAYS ARE SENT
000042:                                                                                                  #            OUT UNDER CRITICAL ALARM CONDITIONS.
000043:                                                                                                  #        2.  EXTENDED VERB DISPLAYS -- ALL EXTENDED VERBS AND MARK ROUTINES SHOULD USE EXTENDED VERB (MARK) DISPLAYS.
000044:                                                                                                  #        3.  NORMAL DISPLAYS -- ALL MISSION PROGRAM DISPLAYS WHICH INTERFACE WITH THE ASTRONAUT DURING THE NORMAL
000045:                                                                                                  #            SEQUENCE OF EVENTS.
000046:                                                                                                  #        4.  MISC. DISPLAYS -- ALL DISPLAYS NOT HANDLED BY THE DISPLAY INTERFACE ROUTINES.  THESE INCLUDE SUCH DISPLAYS AS
000047:                                                                                                  #            MM DISPLAYS AND SPECIAL PURPOSE DISPLAYS HANDLED BY PINBALL.
000048:                                                                                                  #        5.  ASTRONAUT INITIATED DISPLAYS -- ALL DISPLAYS INITIATED EXTERNALLY.
000049:
000050:                                                                                                  #  THE FOLLOWING TERMS ARE USED TO DESCRIBE THE STATUS OF DISPLAYS --
000051:                                                                                                  #        1.  ACTIVE -- THE DISPLAY WHICH IS (1) BEING DISPLAYED TO THE ASTRONAUT AND WAITING FOR A RESPONSE OR
000052:                                                                                                  #            (2) WAITING FIRST IN LINE FOR THE ASTRONAUT TO FINISH USING THE DSKY OR (3) BEING DISPLAYED ON THE DSKY
000053:                                                                                                  #            BUT NOT WAITING FOR A RESPONSE.
000054:                                                                                                  #        2.  INACTIVE -- A DISPLAY WHICH HAS (1) BEEN ACTIVE BUT WAS INTERRUPTED BY A DISPLAY OF HIGHER PRIORITY,
000055:                                                                                                  #            (2) BEEN PUT INTO THE WAITING LIST AT TIME IT WAS REQUESTED DUE TO THE FACT A HIGHER PRIORITY DISPLAY
000056:                                                                                                  #            WAS ALREADY DOING, (3) BEEN INTERRUPTED BY THE ASTRONAUT (CALLED A PINBRANCH CONDITION, SINCE THIS TYPE
000057:                                                                                                  #            OF INACTIVE DISPLAY IS USUALLY REACTIVATED ONLY BY PINBALL) OR (4) A DISPLAY WHICH HAS FINISHED BUT STILL
000058:                                                                                                  #            HAS INFO SAVED FOR RESTART PURPOSES.
000059:
000060:                                                                                                  #  DISPLAY PRIORITIES WORK AS FOLLOWS --
000061:                                                                                                  #        INTERRUPTS --
000062:                                                                                                  #                1.  THE ASTRONAUT CAN INTERRUPT ANY DISPLAY WITH AN EXTERNAL DISPLAY REQUEST.
000063:                                                                                                  #                2.  INTERNAL DISPLAYS CAN NOT BE SENT OUT WHEN THE ASTRONAUT IS USING THE DSKY.
000064:                                                                                                  #                3.  PRIORITY DISPLAYS INTERRUPT ALL OTHER TYPES OF INTERNAL DISPLAYS.  A PRIORITY DISPLAY INTERRUPTING ANOTHER
000065:                                                                                                  #                    PRIORITY DISPLAY WILL CAUSE AN ABORT UNLESS BIT14 IS SET FOR TEH LINUS ROUTINE.
000066:                                                                                                  #                4.  A MARK DISPLAY INTERRUPTS ANY NORMAL DISPLAY.
000067:                                                                                                  #                5.  A MARK THAT INTERRUPTS A MARK COMPLETELY REPLACES IT.
000068:
000069:                                                                                                  #        ORDER OF WAITING DISPLAYS --
000070:                                                                                                  #                1.  ASTRONAUT
000071:                                                                                                  #                2.  PRIORITY
000072:                                                                                                  #                3.  INTERRUPTED MARK
000073:                                                                                                  #                4.  INTERRUPTED NORMAL
000074:                                                                                                  #                5.  MARK TO BE REQUESTED (SEE DESCRIPTION OF ENDMARK)
000075:                                                                                                  #                6.  MARK WAITING
000076:                                                                                                  #                7.  NORMAL WAITING
000077:


000079:                                                                                                  #  THE DISPLAY ROUTINES ARE INTENDED TO SERVE AS AN INTERFACE BETWEEN THE USER AND PINBALL.  THE
000080:                                                                                                  #  FOLLOWING STATEMENTS CAN BE MADE ABOUT NORMAL DISPLAYS AND PRIORITY DISPLAYS (A DESCRIPTION OF MARK ROUTINES
000081:                                                                                                  #  WILL FOLLOW LATER):
000082:                                                                                                  #        1.  ALL ROUTINES THAT END IN R HAVE AN IMMEDIATE RETURN TO THE USER.  FOR ALL FLASHING DISPLAYS THIS RETURN
000083:                                                                                                  #            IS TO THE USER'S CALL CADR +4.  FOR THE ONLY NON-FLASHING IMMEDIATE RETURN DISPLAY (GODSPR) THIS RETURN
000084:                                                                                                  #            IS TO THE USER'S CALLING LOC +1.
000085:                                                                                                  #        2.  ALL ROUTINES NOT ENDING IN R DO NOT DO AN IMMEDIATE RETURN TO THE USER.
000086:                                                                                                  #        3.  ALL ROUTINES THAT END IN R START A SEPARATE JOB (MAKEPLAY) WITH USER'S JOB PRIORITY.
000087:                                                                                                  #        4.  ALL ROUTIENS NOT ENDING IN R BRANCH DIRECTLY TO MAKEPLAY WHICH MAKES THESE DISPLAYS A PART OF THE
000088:                                                                                                  #            USER'S JOB.
000089:                                                                                                  #        5.  ALL DISPLAY ROUTIENS ARE CALLED VIA BANKCALL.
000090:                                                                                                  #        6.  TO RESTART A DISPLAY THE USER WILL GENERALLY USE A PHASE OF ONE WITH DESIRED RESTART GROUP (SEE
000091:                                                                                                  #            DESCRIPTION OF RESTARTS).
000092:                                                                                                  #        7.  ALL FLASHING DISPLAYS HAVE 3 RETURNS TO THE USER FROM ASTRONAUT RESPOSES.  A TERMINATE (V34) BRANCHES
000093:                                                                                                  #            TO THE USER'S CALL CADR +1.  A PROCEED (V33) BRANCHES TO THE USER'S CALL CADR +2.  AN ENTER OR RECYCLE
000094:                                                                                                  #            (V32) BRANCHES TO THE USER'S CALL CADR +3.
000095:                                                                                                  #        8.  ALL ROUTINES MUST BE USED UNDER EXECUTIVE CONTROL
000096:
000097:                                                                                                  #  A DESCRIPTION OF EACH ROUTINE WITH AN EXAMPLE FOLLOWS:
000098:                                                                                                  #        GODSP IS USED TO DISPLAY A VERB NOUN ARRIVING IN A.  NO RETURN IS MADE TO THE USER.
000099:                                                                                                  #                1.  GODSP IS NOT RESTARTABLE
000100:                                                                                                  #                2.  A VERB PASTE WITH GODSP ALWAYS TURNS ON THE FLASH.
000101:                                                                                                  #                                CAF     VXXNYY
000102:                                                                                                  #                                TC      BANKCALL
000103:                                                                                                  #                                CADR    GODSP
000104:                                                                                                  #                        VXXNYY  OCT     OXXYY
000105:                                                                                                  #        GODSPR IS THE SAME AS GODSP ONLY RETURN IS TO THE USER.
000106:                                                                                                  #                                CAF     VXXNYY
000107:                                                                                                  #                                TC      BANKCALL
000108:                                                                                                  #                                CADR    GODSPR
000109:                                                                                                  #                                ...     ...             # IMMEDIATE RETURN OF GODSPR
000110:                                                                                                  #        GOFLASH DISPLAYS A FLASHING VERB NOUN WITH NO IMMEDIATE RETURN TO THE USER.  3 RETURNS ARE POSSIBLE FORM
000111:                                                                                                  #        THE ASTRONAUT (SEE NO. 7 ABOVE).
000112:                                                                                                  #                                CAF     VXXNYY          # VXX NYY WILL BE A FLASHING VERB NOUN.
000113:                                                                                                  #                                TC      BANKCALL
000114:                                                                                                  #                                CADR    GOFLASH
000115:                                                                                                  #                                ...     ...             # TERMINATE RETURN
000116:                                                                                                  #                                ...     ...             # PROCEED RETURN
000117:                                                                                                  #                                ...     ...             # ENTER OR RECYCLE RETURN
000118:                                                                                                  #        GOPERF1 IS ENTERED WITH DESIRED CHECKLIST VALUE IN A.  GOPERF1 WILL DISPLAY THIS VALUE IN R1 BY MEANS OF A


000120:                                                                                                  #        V01 N25.  A FLASHING PLEASE PERFORM ON CHECKLIST (V50 N25) IS THEN DISPLAYED.  NO IMMEDIATE RETURN IS MADE TO
000121:                                                                                                  #        USER (SEE NO. 7 ABOVE).
000122:                                                                                                  #        GOPERF1 BLANKS REGISTERS R2 AND R3
000123:                                                                                                  #                                CAF     OCTXX           # CODE FOR CHECKLIST VALUE XX
000124:                                                                                                  #                                TC      BANKCALL
000125:                                                                                                  #                                CADR    GOPERF1
000126:                                                                                                  #                                ...     ...             # TERMINATE RETURN
000127:                                                                                                  #                                ...     ...             # PROCEED RETURN
000128:                                                                                                  #                                ...     ...             # ENTER RETURN
000129:                                                                                                  #        GOPERF2 IS ENTERED WITH A VARIABLE NOUN AND V01 (V00 FOR N10 OR N11) IN A.  GOPERF2 WILL FIRST DISPLAY THE
000130:                                                                                                  #        REQUESTED NOUN BY MEANS OF A V01NYY OR A V00NYY.  PLEASE PERFORM ON NOUN (V50 NYY) THEN BECOMES A FLASHING
000131:                                                                                                  #        DISPLAY.  NO IMMEDIATE RETURN IS MADE TO THE USER (SEE NO. 7 ABOVE).
000132:                                                                                                  #        GOPERF2 DOES NOT BLANK ANY REGISTERS
000133:                                                                                                  #                                CAF     VXXNYY          # VARIABLE NOUN YY. XX=0 OR 01.
000134:                                                                                                  #                                TC      BANKCALL
000135:                                                                                                  #                                CADR    GOPERF2
000136:                                                                                                  #                                ...     ...             # TERMINATE RETURN
000137:                                                                                                  #                                ...     ...             # PROCEED RETURN
000138:                                                                                                  #                                ...     ...             # ENTER RETURN
000139:                                                                                                  #        GOPERF3 IS USED FOR A PLEASE PERFORM ON A PROGRAM NUMBER.  THE DESIRED PROGRAM NO. IS ENTERED IN A.  GOPERF3
000140:                                                                                                  #        DISPLAYS THE NO. BY MEANS OF A V06 N07 FOLLOWED BY A FLASHING V50 N07 FOR A PLEASE PERFORM.  NO IMMEDIATE RETURN
000141:                                                                                                  #        IS MADE TO THE USER (SEE NO. 7 ABOVE).
000142:                                                                                                  #        GOPERF3 BLANKS REGISTERS R2 AND R3
000143:                                                                                                  #                                CAF     DECXX           # REQUEST PERFORM ON PXX
000144:                                                                                                  #                                TC      BANKCALL
000145:                                                                                                  #                                CADR    GOPERF3
000146:                                                                                                  #                                ...     ...             # TERMINATE RETURN
000147:                                                                                                  #                                ...     ...             # PROCEED RETURN
000148:                                                                                                  #                                ...     ...             # ENTER RETURN
000149:                                                                                                  #        GOPERF4 IS USED FOR A PLEASE PERFORM ON AN OPTION.  THE DESIRED OPTION IS ENTERED IN A AND STORED IN OPTION1.
000150:                                                                                                  #        GOPERF4 DISPLAYS R1 AND R2 BY MEANS OF A V04N06 FOLLOWED BY A FLASHING V50N06 FOR A PLEASE PERFORM.  NO
000151:                                                                                                  #        IMMEDIATE RETURN IS MADE TO THE USER (SEE NO. 7 ABOVE).
000152:                                                                                                  #                                CAF     OCTXX           # REQUEST PERFORM ON OPTION XX
000153:                                                                                                  #                                TC      BANKCALL
000154:                                                                                                  #                                CADR    GOPERF4
000155:                                                                                                  #                                ...     ...             # TERMINATE RETURN
000156:                                                                                                  #                                ...     ...             # PROCEED RETURN
000157:                                                                                                  #                                ...     ...             # ENTER RETURN
000158:                                                                                                  #        GOPERF4 BLANKS REGISTER R3.
000159:


000161:                                                                                                  #        GODSPRET IS USED TO DISPLAY A VERB NOUN ARRIVING IN A WITH A RETURN TO THE USER AFTER THE DISPLAY HAS BEEN SENT
000162:                                                                                                  #        OUT.
000163:                                                                                                  #                                CAF     VXXXNYY
000164:                                                                                                  #                                TC      BANKCALL
000165:                                                                                                  #                                CADR    GODSPRET
000166:                                                                                                  #                                ...     ...             # RETURN TO USER.
000167:                                                                                                  #        REGODSP IS USED TO DISPLAY A VERB NOUN ARRIVING IN A.  REGODSP IS THE SAME AS GODSP ONLY REGODSP REPLACES AND
000168:                                                                                                  #        ACTIVE NORMAL DISPLAY IF ONE WAS ACTIVE.
000169:                                                                                                  #                                CAF     VXXNYY
000170:                                                                                                  #                                TC      BANKCALL
000171:                                                                                                  #                                CADR    REGODSP
000172:                                                                                                  #        REFLASH IS THE SAME AS GOFLASH ONLY REFLASH REPLACES ANY ACTIVE NORMAL DISPLAY IF ONE WAS ACTIVE.
000173:                                                                                                  #                                CAF     VXXNYY          # VXX NYY WILL BE A FLASHING VERB NOUN
000174:                                                                                                  #                                TC      BANKCALL
000175:                                                                                                  #                                CADR    REFLASH
000176:                                                                                                  #                                ...     ...             # TERMINATE RETURN
000177:                                                                                                  #                                ...     ...             # PROCEED RETURN
000178:                                                                                                  #                                ...     ...             # ENTER RETURN
000179:                                                                                                  #        GOFLASHR IF SAME AS GOFLASH ONLY AN IMMEDIATE RETURN IS MADE TO THE USER'S CALL CADR +4.
000180:                                                                                                  #                                CAF     VXXNYY
000181:                                                                                                  #                                TC      BANKCALL
000182:                                                                                                  #                                CADR    GOFLASHR
000183:                                                                                                  #                                ...     ...             # TERMINATE RETURN
000184:                                                                                                  #                                ...     ...             # PROCEED RETURN
000185:                                                                                                  #                                ...     ...             # ENTER OR RECYCLE RETURN
000186:                                                                                                  #                                ...     ...             # IMMEDIATE RETURN FROM GOFLASHR
000187:                                                                                                  #        GOPERF1R IS THE SAME AS GOPERF1 ONLY GOPERF1R HAS AN IMMEDIATE RETURN TO USER'S CALL CADR +4.
000188:                                                                                                  #        GOPERF1R BLANKS REGISTERS R2 AND R3
000189:                                                                                                  #                                CAF     OCTXX           # CODE FOR CHECKLIST VALUE XX.
000190:                                                                                                  #                                TC      BANKCALL
000191:                                                                                                  #                                CADR    GOPERF1R
000192:                                                                                                  #                                ...     ...             # TERMINATE RETURN
000193:                                                                                                  #                                ...     ...             # PROCEED RETURN
000194:                                                                                                  #                                ...     ...             # ENTER RETURN
000195:                                                                                                  #                                ...     ...             # IMMEDIATE RETURN FROM GOPERF1R
000196:                                                                                                  #        GOPERF2R IS THE SAME AS GOPERF2 ONLY AN IMMEDIATE RETURN IS MADE TO USER'S CALL CADR +4.


000198:                                                                                                  #        GOPERF2R DOES NOT BLANK ANY REGISTERS
000199:                                                                                                  #                                CAF     VXXXNYY         # VARIABLE NOUN YY REQUESTED.  XX=00 OR 01
000200:                                                                                                  #                                TC      BANKCALL
000201:                                                                                                  #                                CADR    GOPERF2R
000202:                                                                                                  #                                ...     ...             # TERMINATE RETURN
000203:                                                                                                  #                                ...     ...             # PROCEED RETURN
000204:                                                                                                  #                                ...     ...             # ENTER RETURN
000205:                                                                                                  #                                ...     ...             # IMMEDIATE RETURN HERE FROM GOPERF2R
000206:                                                                                                  #        GOPERF3R IS THE SAME AS GOPERF3 ONLY AN IMMEDIATE RETURN IS MADE TO USER'S CALL CADR +4.
000207:                                                                                                  #        GOPERF3R BLANKS REGISTERS R2 AND R3
000208:                                                                                                  #                                CAF     PROGXX          # PERFORM PROGRAM XX
000209:                                                                                                  #                                TC      BANKCALL
000210:                                                                                                  #                                CADR    GOPERF3R
000211:                                                                                                  #                                ...     ...             # TERMINATE RETURN
000212:                                                                                                  #                                ...     ...             # PROCEED RETURN
000213:                                                                                                  #                                ...     ...             # ENTER RETURN
000214:                                                                                                  #                                ...     ...             # GOPERF3R IMMEDIATELY RETURNS HERE
000215:                                                                                                  #        GOPERF4R IS THE SAME AS GOPERF4 ONLY AN IMMEDIATE RETURN IS MADE TO USER'S CALL CADR +4.
000216:                                                                                                  #                                CAF     OCTXX           # REQUEST PERFORM ON OPTIONXX
000217:                                                                                                  #                                TC      BANKCALL
000218:                                                                                                  #                                CADR    GOPERF4R
000219:                                                                                                  #                                ...     ...             # TERMINATE RETURN
000220:                                                                                                  #                                ...     ...             # PROCEED RETURN
000221:                                                                                                  #                                ...     ...             # ENTER RETURN
000222:                                                                                                  #                                ...     ...             # IMMEDIATE RETURN TO USER
000223:                                                                                                  #        GOPERF4R BLANKS REGISTER R3.
000224:
000225:                                                                                                  #        REFLASHR IS THE SAME AS REFLASH ONLY AN IMMEDIATE RETURN IS MADE TO THE USER'S CALL CADR +4.
000226:                                                                                                  #                                CAF     VXXNYY          # VXX NYY WILL BE A FLASHING VERB NOUN
000227:                                                                                                  #                                TC      BANKCALL
000228:                                                                                                  #                                CADR    REFLASHR
000229:                                                                                                  #                                ...     ...             # TERMINATE RETURN
000230:                                                                                                  #                                ...     ...             # PROCEED RETURN
000231:                                                                                                  #                                ...     ...             # ENTER RETURN
000232:                                                                                                  #                                ...     ...             # IMMEDIATE RETURN TO USER
000233:                                                                                                  #        REGODSPR IS THE SAME AS REGODSP ONLY A RETURN (IMMEDIATE) IS MADE TO THE USER.


000235:                                                                                                  #                                CAF     VXXNYY
000236:                                                                                                  #                                TC      BANKCALL
000237:                                                                                                  #                                CADR    REGODSPR
000238:                                                                                                  #                                ...     ...             # IMMEDIATE RETURN TO USER


000240:                                                                                                  #        GOMARK IS USED TO DISPLAY A MARK VERB NOUN ARRIVING IN A.  NO RETURN IS MADE TO THE USER.
000241:                                                                                                  #        GOXDSP = GOMARK
000242:                                                                                                  #                                CAF     VXXNYY          # VXXNYY CONTAINS VERB AND NOUN
000243:                                                                                                  #                                TC      BANKCALL
000244:                                                                                                  #                                CADR    GOMARK          # OTHER EXTENDED VERBS USE CADR GOXDSP
000245:                                                                                                  #        GOMARKR IS THE SAME AS GOMARK ONLY RETURN IS TO THE USER.
000246:                                                                                                  #        GOXDSPR = GOMARKR
000247:                                                                                                  #                                CAF     VXXNYY
000248:                                                                                                  #                                TC      BANKCALL
000249:                                                                                                  #                                CADR    GOMARKR         # OTHER EXTENDED VERBS USE CADR GOXDSPR
000250:                                                                                                  #                                ...     ...             # IMMEDIATE RETURN OF GOMARKR
000251:                                                                                                  #        GOMARKF DISPLAYS A FLASHING MARK VERB NOUN WITH NO IMMEDIATE RETURN TO THE USER.  3 RETURNS ARE POSSIBLE FORM
000252:                                                                                                  #        THE ASTRONAUT (SEE NO. 7 ABOVE).
000253:                                                                                                  #        GOXDSPF = GOMARKF
000254:                                                                                                  #                                CAF     VXXNYY          # VXXNYY WILL BE A FLASHING MARK VERB NOUN
000255:                                                                                                  #                                TC      BANKCALL
000256:                                                                                                  #                                CADR    GOMARKFR        # OTHER EXTENDED VERBS USE CADR GOXDSPFR
000257:                                                                                                  #                                ...     ...             # TERMINATE RETURN
000258:                                                                                                  #                                ...     ...             # PROCEED RETURN
000259:                                                                                                  #                                ...     ...             # ENTER OR RECYCLE RETURN
000260:                                                                                                  #                                ...     ...             # IMMEDIATE RETURN TO THE USER
000261:                                                                                                  #        GOMARKFR IS THE SAME AS GOMARKF ONLY AN IMMEDIATE RETURN IS MADE TO THE USER CALL CADR +4.
000262:                                                                                                  #        GOXDSPFR = GOMARKFR
000263:                                                                                                  #                                CAF     VXXNYY          # FLASHING MARK VERB NOUN
000264:                                                                                                  #                                TCF     BANKCALL
000265:                                                                                                  #                                CADR    GOMARKFR        # OTHER EXTENDED VERBS USE CADR GOXDSPFR
000266:                                                                                                  #                                ...     ...             # TERMINATE RETURN
000267:                                                                                                  #                                ...     ...             # PROCEED RETURN
000268:                                                                                                  #                                ...     ...             # ENTER OR RECYCLE RETURN
000269:                                                                                                  #
000270:                                                                                                  #                                ...     ...             # IMMEDIATE RETURN TO THE USER
000271:                                                                                                  #        GOMARK1 IS USED FOR A PLEASE PERFORM ON A MARK REQUEST WITH ONLY 1 ASTRONAUT RETURN TO THE USER.  NO IMMEDIATE
000272:                                                                                                  #        RETURN IS MADE.  THE DESIRED MARK PLEASE PERFORM VERB AND DESIRED NOUN IS ENTERED IN A.  GOMARK1 DISPLAYS R1, R2, R
000273:                                                                                                  #        MEANS OF A V05NYY FOLLOWED BY A FLASHING V5XNYY FOR A PLEASE PERFORM.  THE ASTRONAUT WILL RESPOND WITH A MARK
000274:                                                                                                  #        OR MARK REJECT OR AN ENTER.  THE ENTER IS THE ONLY ASTRONAUT RESPONSE THAT WILL COME BACK TO THE USER.
000275:                                                                                                  #                                CAF     V5XNYY          # X=1,2,3,4     YY=NOUN
000276:                                                                                                  #                                TC      BANKCALL


000278:                                                                                                  #                                CADR    GOMARK1
000279:                                                                                                  #                                ...     ...             # ENTER RETURN
000280:                                                                                                  #        *** IF BLANKING DESIRED ON NON-R ROUTINES, NOTIFY DISPLAYER.
000281:
000282:                                                                                                  #        GOMARK1R IS THE SAME AS A GOMARK1 ONLY AN IMMEDIATE RETURN IS MADE TO THE USER'S CALL CADR +2.
000283:                                                                                                  #                                CAF     V5XNYY          # X=1,2,3,4     YY=NOUN
000284:                                                                                                  #                                TC      BANKCALL
000285:                                                                                                  #                                CADR    GOMARK1R
000286:                                                                                                  #                                ...     ...             # ASTRONAUT ENTER RETURN
000287:                                                                                                  #                                ...     ...             # IMMEDIATE RETURN TO USER
000288:                                                                                                  #        GOMARK2 IS THE SAME AS GOMARK1 ONLY 3 RETURNS ARE MADE TO THE USER FROM THE ASTRONAUT.
000289:                                                                                                  #                                CAF     V5XNYY          # X=1,2,3,4     YY=NOUN
000290:                                                                                                  #                                TC      BANKCALL
000291:                                                                                                  #                                CADR    GOMARK2
000292:                                                                                                  #                                ...     ...             # TERMINATE RETURN
000293:                                                                                                  #                                ...     ...             # PROCEED RETURN
000294:                                                                                                  #                                ...     ...             # ENTER RETURN
000295:                                                                                                  #        GOMARK2R IS THE SAME AS GOMARK1R ONLY 3 ASTRONAUT RETURNS ARE MADE TO THE USER.
000296:                                                                                                  #                                CAF     V5XNYY          # X=0,1,2,3,4   YY=NOUN
000297:                                                                                                  #                                TCF     BANKCALL
000298:                                                                                                  #                                CADR    GOMARK24
000299:                                                                                                  #                                ...     ...             # TERMINATE RETURN
000300:                                                                                                  #                                ...     ...             # PROCEED RETURN
000301:                                                                                                  #                                ...     ...             # ENTER RETURN
000302:                                                                                                  #                                ...     ...             # IMMEDIATE RETURN TO THE USER.
000303:                                                                                                  #        GOMARK3 IS USED FOR A PLEASE PERFORM ON A MARK REQUEST WITH A 3 COMP. DEC DISPLAY.  THE DESIRED MARK PLEASE
000304:                                                                                                  #        PERFORM VERB AND NOUN ARE ENTERED IN A.  GOMARK3 DISPLAYS R1, R2, R3 BY MEANS OF A V06NYY FOLLOWED BY A FLASHING
000305:                                                                                                  #        V5XNYY FOR A PLEASE PERFORM.  GOMARK3 HAS 3 ASTRONAUT RETURNS TO THE USER WITH NO IMMEDIATE RETURN.
000306:                                                                                                  #                                CAF     V5XNYY          # X=1,2,3,4     YY=NOUN
000307:                                                                                                  #                                TC      BANKCALL
000308:                                                                                                  #                                CADR    GOMARK3
000309:                                                                                                  #                                ...     ...             # TERMINATE RETURN
000310:                                                                                                  #                                ...     ...             # PROCEED RETURN
000311:                                                                                                  #                                ...     ...             # ENTER RETURN
000312:                                                                                                  #        GOMARK4 IS THE SAME AS GOMARK3 ONLY R2 AND R3 ARE BLANKED AND R1 IS DISPLAYED IN OCTAL.
000313:                                                                                                  #                                CAF     V5XNYY          # X=1,2,3,4     YY=NOUN
000314:                                                                                                  #                                TC      BANKCALL
000315:                                                                                                  #                                CADR    GOMARK4
000316:                                                                                                  #                                ...     ...             # TERMINATE RETURN
000317:                                                                                                  #                                ...     ...             # PROCEED RETURN


000319:                                                                                                  #                        ...     ...                     # ENTER RETURN
000320:                                                                                                  #        EXDSPRET IS USED TO DISPLAY A VERB NOUN ARRIVING IN A WITH A RETURN MADE TO THE USER AFTER THE DISPLAY HAS BEEN
000321:                                                                                                  #        SEND OUT.
000322:                                                                                                  #                                CAF     VXNYY
000323:                                                                                                  #                                TC      BANKCALL
000324:                                                                                                  #                                CADR    EXDSPRET
000325:                                                                                                  #                                ...     ...             # RETURN TO USER
000326:                                                                                                  #        KLEENEX CLEANS OUT ALL MARK DISPLAYS (ACTIVE AND INACTIVE). A RETURN IS MADE TO THE USER AFTER THE MARK DISPLAYS
000327:                                                                                                  #        HAVE BEEN CLEANED OUT.
000328:                                                                                                  #                                TC      BANKCALL
000329:                                                                                                  #                                CADR    KLEENEX
000330:                                                                                                  #                                ...     ...             # RETURN TO USER
000331:                                                                                                  #        MARKBRAN IS A SPECIAL PURPOSE ROUTINE USED FOR SAVING JOB VAC AREAS (SEE DESCRIPTION OF MARKBRAN BELOW).
000332:                                                                                                  #                                TC      BANKCALL
000333:                                                                                                  #                                CADR    MARKBRAN
000334:                                                                                                  #                                ...     ...             # BAD RETURN IF MARK DISPLAY NOT ACTIVE
000335:                                                                                                  #                                                        # (GOOD RETURN TO IMMEDIATE RETURN LOC OF
000336:                                                                                                  #                                                        # LAST FLASHING MARK R ROUTINE)
000337:                                                                                                  #        PINBRNCH REESTABLISHES THE LAST ACTIVE FLASHING DISPLAY.  IF THERE IS NO ACTIVE FLASHING DISPLAY, THE DSKY IS
000338:                                                                                                  #        BLANKED AND CONTROL IS SENT TO ENDOFJOB.
000339:                                                                                                  #                                TC      POSTJUMP
000340:                                                                                                  #                                CADR    PINBRNCH
000341:                                                                                                  #        PRIODSP IS USED AS A PRIORITY DISPLAY.  IT WILL DISPLAY A GOFLASH TYPE DISPLAY WITH THREE POSSIBLE RETURNS FROM
000342:                                                                                                  #        THE ASTRONAUT (SEE NO. 7 ABOVE).
000343:
000344:                                                                                                  #        THE MAIN PURPOSE OF PRIODSP IS TO REPLACE THE PRESENT DISPLAY WITH A DISPLAY OF HIGHER PRIORITY AND TO
000345:                                                                                                  #        PROVIDE A MEANS FOR RESTORING THE OLD DISPLAY WHEN THE PRIORITY DISPLAY
000346:                                                                                                  #        IS RESPONDED TO BY THE ASTRONAUT.
000347:
000348:                                                                                                  #        THE FORMER DISPLAY IS RESTORED BY AN AUTOMATIC BRANCH TO WAKE UP THE DISPLAY THAT WAS INTERRUPTED BY THE
000349:                                                                                                  #        PRIO DISPLAY
000350:                                                                                                  #                                CAF     VXXNYY          # VXXNYY WILL BE A FLASHING VERB NOUN
000351:                                                                                                  #                                TC      BANKCALL
000352:                                                                                                  #                                CADR    PRIODSP
000353:                                                                                                  #                                ...     ...             # TERMINATE RETURN
000354:                                                                                                  #                                ...     ...             # PROCEED RETURN


000356:                                                                                                  #                                ...     ...             # ENTER OR RECYCLE RETURN
000357:                                                                                                  #        PRIODSPR IS THE SAME AS PRIODSP ONLY AN IMMEDIATE RETURN IS MADE TO THE USER'S CALL CADR +4.
000358:                                                                                                  #                                CAF     VXXNYY          # VXXNYY WILL BE A FLASHING VERB NOUN
000359:                                                                                                  #                                TC      BANKCALL
000360:                                                                                                  #                                CADR    PRIODSPR
000361:                                                                                                  #                                ...     ...             # TERMINATE ACTION
000362:                                                                                                  #                                ...     ...             # PROCEED RETURN
000363:                                                                                                  #                                ...     ...             # ENTER OR RECYCLE RETURN
000364:                                                                                                  #                                ...     ...             # IMMEDIATE RETURN
000365:                                                                                                  #        PRIOLARM DOES A V05N09 PRIODSPR.
000366:
000367:                                                                                                  #        CLEANDSP CLEANS OUT ALL NORMAL DISPLAYS (ACTIVE AND INACTIVE).  A RETURN IS MADE TO THE USER AFTER NORMAL
000368:                                                                                                  #        DISPLAYS ARE CLEANED OUT.
000369:                                                                                                  #                                TC      BANKCALL
000370:                                                                                                  #                                CADR    CLEANDSP
000371:                                                                                                  #                                ...     ...             # RETURN TO USER


000373:
000374:                                                                                                  #  GENERAL INFORMATION
000375:                                                                                                  #  -------------------
000376:
000377:                                                                                                  #  ALARM OR ABORT EXIT MODE --
000378:                                                                                                  #        PRIOBORT        TC      ABORT
000379:                                                                                                  #                        OCT     1502
000380:
000381:                                                                                                  #        PRIOBORT IS BRANCHED TO WHEN (1) A NORMAL DISPLAY IS REQUESTED AND ANOTHER NORMAL DISPLAY IS ALREADY ACTIVE
000382:                                                                                                  #        (REFLASH AND REGODSP ARE EXCEPTIONS) OR (2) A PRIORITY DISPLAY IS REQUESTED WHEN ANOTHER PRIORITY DISPLAY IS
000383:                                                                                                  #        ALREADY ACTIVE (A PRIORITY WITH LINUS BIT14 IS AN EXCEPTION).
000384:
000385:                                                                                                  #  ERASABLE INITIALIZATION REQUIRED --
000386:                                                                                                  #        ACCOMPLISHED BY FRESH START --  1.  FLAGWRD4 (USED EXCLUSIVELY BY DISPLAY INTERFACE ROUTINES)
000387:                                                                                                  #                                        2.  NVSAVE = NORMAL VERB AND NOUN REGISTER.
000388:                                                                                                  #                                        3.  EBANKTEM = NORMAL INACTIVE FLAGWORD (ALSO CONTAINS NORMALS EBANK).
000389:                                                                                                  #                                        5.  R1SAVE = MARKBRAN CONTROL WORD
000390:                                                                                                  #                                        4.  RESTREG = PRIORITY 30 AND SUPERBANK 3.
000391:
000392:                                                                                                  #  OUTPUT --
000393:                                                                                                  #        NVWORD = PRIO VERB AND NOUN
000394:                                                                                                  #        NVWORD +1 (MARKNV) = MARK VERB AND NOUN
000395:                                                                                                  #        NVWORD +2 (NVSAVE) = NORMAL VERB AND NOUN
000396:                                                                                                  #        DSPFLG (EBANKSAV) = PRIO FLAGWORD (INCLUDING EBANK)
000397:                                                                                                  #        DSPFLG +1 (MARKEBAN) = MARK FLAGWORD (INCLUDING EBANK)
000398:                                                                                                  #        DSPFLG +2 (EBANKTEM) = NORMAL FLAGWORD (INCLUDING EBANK)
000399:                                                                                                  #        CADRFLSH = PRIO USER'S CALL CADR +1 LOCATION
000400:                                                                                                  #        CADRFLSH +1 (MARKFLSH) = MARK USER'S CALL CADR +1 LOCATION
000401:                                                                                                  #        CADRFLSH +2 (TEMPFLSH) = NORMAL USER'S CALL CADR +1 LOCATION
000402:                                                                                                  #        PRIOTIME = TIME EACH PRIO REQUEST FIRST SENT OUT
000403:                                                                                                  #        OPTION1 = DESIRED OPTION FROM GOPERF4
000404:                                                                                                  #        FLAGWRD4 = BIT INFO FOR CONTROL OF ALL DISPLAY ROUTINES
000405:                                                                                                  #        DSPTEM1 = R1 INFO FOR ASTRONAUT FROM PERFORM DISPLAYS (NORMAL)
000406:
000407:                                                                                                  #  SUBROUTINES USED -- NVSUB, FLAGUP, FLAGDOWN, ENDOFJOB, BLANKSUB, ABORT, JOBWAKE, JOBSLEEP, FINDVAC, PRIOCHNG,
000408:                                                                                                  #        JAMTERM, NVSUBUSY, FLASHON, ENDIDLE, CHANG1, BANKJUMP, MAKECADR, NOVAC
000409:
000410:                                                                                                  #  DEBRIS -- (STORED INTO)
000411:                                                                                                  #        TEMPORARY TEMPORARIES -- A, Q, L, MPAC +2, MPAC +3, MPAC +4, MPAC +5, MPAC +6, RUPREG2, RUPTREG3, CYL,
000412:                                                                                                  #                EBANK, RUPTREG4, LOC, BANKSET, MODE, MPAC, MPAC +1, FACEREG
000413:                                                                                                  #        ERASABLES (SHARED AND USED WITH OTHER PROGRAMS) -- CADRSTORE, DSPLIST, LOC, DSPTEM1, OPTION1
000414:                                                                                                  #        ERASABLES (USED ONLY BY DISPLAY ROUTINES) -- NVWORD,+1,+2, DSPFLAG,+1,+2, CADRFLSH,+1,+2, PRIOTIME, FLAGWRD4,


000416:                                                                                                  #                R1SAVE, MARK2PAC
000417:
000418:                                                                                                  #  DEBRIS -- (USED BUT NOT STORED INTO) -- NOUNREG, VERBREG, LOCCTR, MONSAVE1
000419:
000420:                                                                                                  #  FLAGWORD DESCRIPTIONS --
000421:                                                                                                  #        FLAGWRD4 -- SEE DESCRIPTION UNDER LOG SECTION ERASABLE ASSIGNMENTS
000422:
000423:                                                                                                  #        DSPFLG, DSPFLG+1, DSPFLG+2
000424:                                                                                                  #        --------------------------
000425:                                                                                                  #        BITS 1  BLANK R1
000426:                                                                                                  #             2  BLANK R2
000427:                                                                                                  #             3  BLANK R3
000428:                                                                                                  #             4  FLASHING DISPLAY REQUESTED
000429:                                                                                                  #             5  PERFORM DISPLAY REQUESTED
000430:                                                                                                  #             6  -----                   EXDSPRET                GODSPRET
000431:                                                                                                  #             7  PRIO DISPLAY            -----                   -----
000432:                                                                                                  #             8  -----                   DEC MARK PERFORM        -----
000433:                                                                                                  #             9  EBANK
000434:                                                                                                  #            10  EBANK
000435:                                                                                                  #            11  EBANK
000436:                                                                                                  #            12  -----                   -----                   V99PASTE
000437:                                                                                                  #            13  2ND PART OF PERFORM
000438:                                                                                                  #            14  REFLASH OR REDO         -----                   REFLASH OR REDO
000439:                                                                                                  #            15  -----                   MARK REQUEST            -----
000440:
000441:                                                                                                  #  RESTARTING DISPLAYS --
000442:
000443:                                                                                                  #  RULES FOR THE DSKY OPERATOR --
000444:                                                                                                  #        1.  PROCEED AND TERMINATE SERVE AS RESPONSES TO REQUESTS FOR OPERATOR RESPONSE (FLASHING Y/N).  AS LONG
000445:                                                                                                  #            AS THERE IS ANY REQUEST AWAITING OPERATOR RESPONSE, ANY USE OF PROCEED OR TERMINATE WILL SERVE AS
000446:                                                                                                  #            RESPONSES TO THAT REQUEST.  CARE SHOULD BE EXERCISED IN ATTEMPTING TO KILL AN OPERATOR INITIATED MONITOR
000447:                                                                                                  #            WITH PROCEED AND TERMINATE FOR THIS REASON.
000448:                                                                                                  #        2.  THE ASTRONAUT MUST RESPOND TO A PRIORITY DISPLAY NO SOONER THAN 2 SECONDS FROM THE TIME THE
000449:                                                                                                  #            PROGRAM SENT OUT THE REQUEST FOR OPERATOR RESPONSE (THE ASTRONAUT WOULD SEE THIS DISPLAY FOR LESS TIME
000450:                                                                                                  #            DUE TO TIME IT TAKES TO GET DISPLAY SENT OUT.)  IF THE ASTRONAUT RESPONDS TOO SOON, THE PRIORITY DISPLAY
000451:                                                                                                  #            IS SENT OUT AGAIN -- AND AGAIN UNTIL AN ACCUMULATED 2 SECS FROM THE TIME THE FIRST PRIORITY DISPLAY
000452:                                                                                                  #            OUT.  THE SAME 2 SEC. DELAY WILL OCCUR AT 163.84 SECS OR IN ANY MULTIPLE OF THAT TIME DUE TO PROGRAM
000453:                                                                                                  #            CONSIDERATION.
000454:                                                                                                  #        3.  KEY RELEASE BUTTON --
000455:                                                                                                  #            A)  IF THE KEY RELEASE LIGHT IS ON, IT SIMPLY RELEASES THE KEYBOARD AND DISPLAY FOR INTERNAL USE.
000456:                                                                                                  #            B)  IF THE KEY RELEASE LIGHT IS OFF, AND IF SOME REQUEST FOR OPERATOR RESPONSE (FLASHING V/N) IS STILL
000457:                                                                                                  #                AWAITING RESPONSE THEN IT RE-ESTABLISHES THE DISPLAYS THAT ORIGINALLY REQUESTED RESPONSE.
000458:                                                                                                  #            IF AN OPERATOR WANTS THEREFORE TO RE-ESTABLISH BUT CONDITION (A) IS ENCOUNTERED, A SECOND DEPRESSION OF
000459:                                                                                                  #            KEY RELEASE BUTTON MAY BE NECESSARY.
000460:                                                                                                  #        4.  IT IS IMPORTANT TO ANSWER ALL REQUESTS FOR OPERATOR RESPONSE.
000461:                                                                                                  #        5.  IT IS ALWAYS GOOD PRACTICE TO TERMINATE AN EXTENDED VERB BEFORE ASKING FOR ANOTHER ONE OR THE SAME ONE
000462:                                                                                                  #            OVER AGAIN.
000463:
000464:                                                                                                  #  SPECIAL CONSIDERATONS --


000466:                                                                                                  #        1.  MPAC +2 SAVED ONLY IN MARK DISPLAYS
000467:                                                                                                  #        2.  GODSP(R), REGODSP(R), GOMARK(R) ALWAYS TURN ON THE FLASH IF ENTERED WITH A PASTE VERB REQUEST.
000468:                                                                                                  #        3.  ALL NORMAL DISPLAYS ARE RESTARTABLE EXCEPT GODSP(R), REGODSP(R)
000469:                                                                                                  #        4.  ALL EXTENDED VERBS WITH DISPLAYS SHOULD START WITH A TC TESTXACT AND FINISH WITH A TC ENDEXT.
000470:                                                                                                  #        5.  GODSP(R) AND REGODSP(R) MUST BE IN THE SAME EBANK AND SUPERBANK AS THE LAST NORMAL DISPLAY RESTARTED
000471:                                                                                                  #            BY A .1 RESTART PHASE CHANGE.
000472:                                                                                                  #        6.  IN ORDER TO SET UP A NON DISPLAY .1 RESTART POINT, THE USER MUST MAKE CERTAIN THAT RESTREG CONTAINS THE
000473:                                                                                                  #            CORRECT PRIORITY AND SUPERBANK AND THAT EBANKTEM CONTAINS THE CO
000474:                                                                                                  #        7.  IF CLEANDSP IS RESTARTED VIA A .1 PHASE CHANGE, CAF ZERO SHOULD BE EXECUTED BEFORE THE TC BANKCALL.
000475:


000477:                                                                                                  #  CALLING SEQUENCE FOR BLANKING
000478:                                                                                                  #                CAF     BITX            # X=1,2,3 BLANK R1,R2,R3 RESPECTIVELY
000479:                                                                                                  #                TC      BLANKET
000480:                                                                                                  #                ...     ...             # RETURN TO USER HERE
000481:                                                                                                  #  IN ORDER TO USE BLANKET CORRECTLY, THE USER MUST USE A DISPLAY ROUTINE THAT ENDS IN R FIRST FOLLOWED BY THE CALL
000482:                                                                                                  #  TO BLANKET AT THE IMMEDIATE RETURN LOC.
000483:    5415                                           BLOCK    02
000484:    4000                                           SETLOC   FFTAG4
000485:    4000                                           BANK
000486:
000487:    5415                                           COUNT    02/DSPLA
000488:
000489:    5415           54162        BLANKET            TS       MPAC       +6
000490:    5416           40160                           CS       PLAYTEM4
000491:    5417           70162                           MASK     MPAC       +6
000492:    5420           50161                           INDEX    MPAC       +5
000493:    5421           26160                           ADS      PLAYTEM4
000494:
000495:    5422           00002                           TC       Q
000496:
000497:    5423           04574        ENDMARK            TC       POSTJUMP
000498:    5424           20457                           CADR     MARKEND
000499:
000500:    5425           34714        CLEARMRK           CAF      ZERO
000501:    5426           55044                           TS       EXTVBACT
000502:
000503:    5427           00004                           INHINT
000504:    5430           44712                           CS       BIT1
000505:    5431           70100                           MASK     FLAGWRD4
000506:    5432           54100                           TS       FLAGWRD4
000507:
000508:    5433           00003                           RELINT
000509:    5434           00002                           TC       Q
000510:
000511:                                                                                                  #  *** ALL EXTENDED VERB ROUTINES THAT HAVE AT LEAST ONE FLASHING DISPLAY MUST TCF ENDMARK OR TCF ENDEXT WHEN
000512:                                                                                                  #  FINISHED.
000513:
000514: 10,2457                                           BANK     10
000515: 10,2000                                           SETLOC   DISPLAYS
000516: 10,2000                                           BANK
000517:
000518: 10,2457                                           COUNT    10/DSPLA
000519:
000520:                                                                                                  #  NTERONLY IS USED TO DIFFERENTIATE THE MARK ROUTINE WITH ONLY ONE RETURN TO THE USER FROM THE MARKING ROUTINE WITH
000521:                                                                                                  #  3 RETURNS TO THE USER.  THIS ROUTINE IS ONLY USED BY GOMARK1 AND GOMARK1R.
000522:
000523: 10,2457           05425        MARKEND            TC       CLEARMRK
000524: 10,2460           13547                           TCF      MARKOVER
000525:


000527: 10,2461           54155        GOMARK             TS       PLAYTEM1                              #  ENTRANCE FOR MARK GODSP
000528:
000529: 10,2462           34674        GOMARS             CAF      BIT15                                 #  BIT15 SET FOR ALL MARK REQUESTS
000530: 10,2463           12626                           TCF      GOFLASH2
000531:
000532: 10,2464           34714        KLEENEX            CAF      ZERO                                  #  CLEAN OUT EXTENDED VERBS
000533: 10,2465           54155        GOMARKF            TS       PLAYTEM1                              #  ENTRANCE FOR MARK GOFLASH
000534:
000535: 10,2466           33157                           CAF      MARKFMSK                              #  MARK, FLASH
000536: 10,2467           12626                           TCF      GOFLASH2
000537:
000538: 10,2470           54155        GOMARK2            TS       PLAYTEM1                              #  MARK GOPERFS-3 AST. RETURNS
000539: 10,2471           33646        MARKFORM           CAF      MPERFMSK                              #  MARK, PERFORM, FLASH
000540: 10,2472           12626                           TCF      GOFLASH2
000541:
000542: 10,2473           54155        GOMARK3            TS       PLAYTEM1                              #  USED FOR 3COMP DECIMAL PERFORM
000543: 10,2474           33633                           CAF      MARK3MSK
000544: 10,2475           12626                           TCF      GOFLASH2
000545:
000546: 10,2476           54155        GOMARK4            TS       PLAYTEM1
000547: 10,2477           33634                           CAF      MARK4MSK                              #  MARK,PERFORM,FLASH,BLANK
000548: 10,2500           12626                           TCF      GOFLASH2
000549:
000550: 10,2501           54155        GOMARKR            TS       PLAYTEM1                              #  ENTRANCE FOR MARK GODSPR
000551:
000552: 10,2502           34674                           CAF      BIT15
000553: 10,2503           12604                           TCF      GODSPR2
000554:
000555: 10,2504           54155        GOMARKFR           TS       PLAYTEM1                              #  ENTRANCE FOR MARK GOFLASHR
000556:
000557: 10,2505           33157                           CAF      MARKFMSK
000558: 10,2506           12765                           TCF      GODSPRS
000559:
000560: 10,2507           54155        GOMARK2R           TS       PLAYTEM1                              #  MARK GOPERFS-3 AST. RETS+ IMMEDIATE RET.
000561: 10,2510           33646                           CAF      MPERFMSK                              #  MARK, PERFORM, FLASH
000562: 10,2511           12765                           TCF      GODSPRS
000563:
000564: 10,2512           54155        GOMARK3R           TS       PLAYTEM1
000565: 10,2513           33633                           CAF      MARK3MSK
000566: 10,2514           12765                           TCF      GODSPRS
000567:
000568: 10,2515           34712        MAKEMARK           CAF      ONE
000569: 10,2516           03063                           TC       COPIES
000570:
000571: 10,2517           30100                           CA       FLAGWRD4                              #  IS NORM OR PRIO BUSY OR WAITING
000572: 10,2520           73647                           MASK     OCT34300
000573: 10,2521           10000                           CCS      A
000574: 10,2522           12560                           TCF      CHKPRIO
000575:
000576: 10,2523           30100                           CA       FLAGWRD4                              #  IS MARK SLEEPING DUE TO ASTRO BUSY?


000578: 10,2524           74702                           MASK     BIT9
000579:
000580: 10,2525           00006                           EXTEND
000581: 10,2526           12530                           BZF      MARKPLAY                              #  NO
000582:
000583: 10,2527           15112                           TCF      ENDOFJOB
000584:
000585: 10,2530           00004        MARKPLAY           INHINT
000586: 10,2531           44715                           CS       FIVE                                  #  RESET MARK OVER NORM, SET MARK
000587: 10,2532           70100                           MASK     FLAGWRD4
000588: 10,2533           64712                           AD       ONE
000589: 10,2534           54100                           TS       FLAGWRD4
000590: 10,2535           00003                           RELINT
000591:
000592: 10,2536           41070        GOGOMARK           CS       MARKFLAG                              #  PERFORM
000593: 10,2537           74706                           MASK     BIT5
000594: 10,2540           10000                           CCS      A
000595: 10,2541           12544                           TCF      MARKCOP
000596: 10,2542           40370                           CS       MARKNV
000597: 10,2543           54370                           TS       MARKNV
000598:
000599: 10,2544           34712        MARKCOP            CAF      ONE                                   #  MARK INDEX
000600: 10,2545           12744                           TCF      PRIOPLAY
000601:
000602: 10,2546           30165        COPYTOGO           CA       MPAC2SAV
000603: 10,2547           54156                           TS       MPAC       +2
000604:
000605: 10,2550           50164        COPYPACS           INDEX    COPINDEX
000606: 10,2551           33657                           CAF      PRIOOCT
000607: 10,2552           54162                           TS       GENMASK
000608:
000609: 10,2553           50164                           INDEX    COPINDEX
000610: 10,2554           31067                           CAF      EBANKSAV
000611: 10,2555           54160                           TS       TEMPOR2                               #  ACTIVE EBANK AND FLAG
000612:
000613: 10,2556           54003                           TS       EBANK
000614:
000615: 10,2557           00002                           TC       Q
000616:
000617:                                                                                                  #  PINCHEK CHECKS TO SEE IF THE CURRENT MARK REQUEST IS MADE BY THE ASTRONAUT WHILE INTERUPTING A GOPLAY DISPLAY
000618:                                                                                                  #  (A NORMAL OR A PRIO).  IF THE ASTRONAUT TRIES TO MARK DURING A PRIO, THE CHECK FAIL LIGHT GOES ON AND THE MARK
000619:                                                                                                  #  REQUEST IS ENDED.  IF HE TRIES TO MARK DURING A NORM, THE MARK IS ALLOWED.  IN THIS CASE THE NORM IS PUT TO SLEEP
000620:                                                                                                  #  UNTIL ALL MARKING IS FINISHED.
000621:
000622:                                                                                                  #  IF THE MARK REQUEST COMES FROM THE PROGRAM DURING A TIME THE ASTRONAUT IS NOT INTERRUPTING A NORMAL OR A
000623:                                                                                                  #  PRIO, THE MARK REQUEST IS PUT TO SLEEP UNTIL THE PRESENT ACTIVE DISPLAY IS RESPONDED TO BY THE ASTRONAUT.
000624:
000625: 10,2560           30100        CHKPRIO            CA       FLAGWRD4                              #  MARK ATTEMPT DURING PRIO
000626: 10,2561           73402                           MASK     OCT24100
000627: 10,2562           10000                           CCS      A
000628: 10,2563           13602                           TCF      MARSLEEP
000629:


000631: 10,2564           40100                           CS       FLAGWRD4
000632: 10,2565           74710                           MASK     BIT3                                  #  SET MARK OVER NORM
000633: 10,2566           00004                           INHINT
000634: 10,2567           26100                           ADS      FLAGWRD4
000635:
000636: 10,2570           12662                           TCF      SETNORM
000637:
000638: 10,2571           30370        MARKPERF           CA       MARKNV
000639: 10,2572           74160                           MASK     VERBMASK
000640: 10,2573           13246                           TCF      NV50DSP
000641:
000642: 10,2574           54155        GODSP              TS       PLAYTEM1
000643:
000644: 10,2575           34714        GODSP2             CAF      ZERO
000645: 10,2576           12626                           TCF      GOFLASH2
000646:
000647: 10,2577           54155        GODSPRET           TS       PLAYTEM1                              #  ENTRANCE FOR A GODSP WITH A PASTE
000648:
000649: 10,2600           34705                           CAF      BIT6                                  #  SET BIT6 TO GO BACK TO USER AFTER NVSUB
000650: 10,2601           12626                           TCF      GOFLASH2
000651:
000652: 10,2602           54155        GODSPR             TS       PLAYTEM1
000653:
000654: 10,2603           34714        GODSPR1            CAF      ZERO
000655: 10,2604           54160        GODSPR2            TS       PLAYTEM4
000656:
000657: 10,2605           34714                           CAF      ZERO                                  #  * DON'T MOVE
000658: 10,2606           12767                           TCF      GODSPRS1
000659:
000660:                                                                                                  #  CLEANDSP IS USED FOR CLEARING OUT A NORMAL DISPLAY THAT IS PRESENTLY ACTIVE OR A NORMAL DISPLAY THAT IS
000661:                                                                                                  #  SET UP TO BE STARTED OR RESTARTED.
000662:
000663:                                                                                                  #  NORMALLY THE USER WILL NOT NEED TO USE THIS ROUTINE SINCE A NEW NORMAL DISPLAY AUTOMATICALLY CLEARS OUT AN
000664:                                                                                                  #  OLD DISPLAY.
000665:
000666:                                                                                                  #  CALLING SEQUENCE FOR CLEANDSP --
000667:
000668:                                                                                                  #                TC      BANKCALL
000669:                                                                                                  #                CADR    CLEANDSP
000670:
000671: 10,2607           34714        CLEANDSP           CAF      ZERO
000672: 10,2610           54155        REFLASH            TS       PLAYTEM1
000673:
000674: 10,2611           33632                           CAF      REDOMASK                              #  FLASH AND PERMIT
000675: 10,2612           12626                           TCF      GOFLASH2
000676:
000677: 10,2613           54155        REFLASHR           TS       PLAYTEM1
000678:
000679: 10,2614           33632                           CAF      REDOMASK                              #  FLASH AND PERMIT
000680: 10,2615           12765                           TCF      GODSPRS
000681:


000683: 10,2616           54155        REGODSP            TS       PLAYTEM1
000684:
000685: 10,2617           34675                           CAF      BIT14
000686: 10,2620           12626                           TCF      GOFLASH2
000687:
000688: 10,2621           54155        REGODSPR           TS       PLAYTEM1
000689:
000690: 10,2622           34675                           CAF      BIT14
000691: 10,2623           12604                           TCF      GODSPR2
000692:
000693: 10,2624           54155        GOFLASH            TS       PLAYTEM1
000694:
000695: 10,2625           34707                           CAF      BIT4                                  #  LEAVE ONLY FLASH BIT SET
000696: 10,2626           54160        GOFLASH2           TS       PLAYTEM4
000697:
000698: 10,2627           03050                           TC       SAVELOCS
000699:
000700: 10,2630           00003                           RELINT
000701:
000702: 10,2631           12674                           TCF      MAKEPLAY                              #  BRANCH DIRECT WITH NO SEPARATE JOB CALL
000703:
000704: 10,2632           54155        PRIODSPR           TS       PLAYTEM1
000705:
000706: 10,2633           33651                           CAF      BITS7+4
000707: 10,2634           12765                           TCF      GODSPRS
000708:
000709: 10,2635           54155        PRIODSP            TS       PLAYTEM1
000710:
000711: 10,2636           33651        SETPRIO            CAF      BITS7+4
000712: 10,2637           12626                           TCF      GOFLASH2
000713:
000714: 10,2640           34714        MAKEPRIO           CAF      ZERO
000715: 10,2641           54164                           TS       COPINDEX
000716:
000717: 10,2642           03522                           TC       LINUSCHR
000718: 10,2643           12650                           TCF      HIPRIO                                #  LINUS RETURN
000719: 10,2644           30100                           CA       FLAGWRD4
000720: 10,2645           73670                           MASK     OCT20100                              #  IS PRIO IN ENDIDLE OR BUSY
000721: 10,2646           10000                           CCS      A
000722: 10,2647           12723                           TCF      PRIOBORT                              #  YES, ABORT
000723:
000724: 10,2650           30100        HIPRIO             CA       FLAGWRD4                              #  MARK ACTIVE
000725: 10,2651           75612                           MASK     OCT40400
000726: 10,2652           00006                           EXTEND
000727: 10,2653           12656                           BZF      ASKIFNRM                              #  NO
000728:
000729: 10,2654           34714        SETMARK            CAF      ZERO
000730: 10,2655           13122                           TCF      JOBXCHS
000731:
000732: 10,2656           30100        ASKIFNRM           CA       FLAGWRD4                              #  NORMAL ACTIVE


000734: 10,2657           73666                           MASK     OCT10200                              #  BITS 13+8
000735: 10,2660           00006                           EXTEND
000736: 10,2661           12664                           BZF      OKTOCOPY                              #  NO
000737:
000738: 10,2662           34712        SETNORM            CAF      ONE
000739: 10,2663           13122                           TCF      JOBXCHS
000740:
000741: 10,2664           03062        OKTOCOPY           TC       COPYNORM
000742: 10,2665           03333                           TC       WITCHONE
000743:
000744: 10,2666           05074                           TC       JOBWAKE
000745:
000746: 10,2667           03350                           TC       XCHTOEND
000747:
000748: 10,2670           30025        REDOPRIO           CA       TIME1                                 #  SAVE TIME PRIODSP SENT OUT
000749: 10,2671           55147                           TS       PRIOTIME
000750:
000751: 10,2672           34714        KEEPPRIO           CAF      ZERO                                  #  START UP PRIO DISPLAY
000752: 10,2673           12744                           TCF      PRIOPLAY
000753:
000754: 10,2674           30167        MAKEPLAY           CA       PRIORITY                              #  SAVE USER'S PRIORITY
000755: 10,2675           77674                           MASK     PRIO37
000756: 10,2676           54163                           TS       USERPRIO
000757:
000758: 10,2677           37670                           CAF      PRIO33                                #  RAISE PRIORITY FOR FAST JOBS AFTER WAKE
000759: 10,2700           05103                           TC       PRIOCHNG
000760:
000761: 10,2701           30160                           CA       PLAYTEM4                              #  IS IT MARK OR PRIO OR NORM
000762: 10,2702           73650                           MASK     BITS15+7
000763: 10,2703           10000                           CCS      A
000764: 10,2704           12640                           TCF      MAKEPRIO                              #  ITS PRIO
000765: 10,2705           12707                           TCF      IFLEGAL
000766: 10,2706           12515                           TCF      MAKEMARK                              #  ITS MARK
000767:
000768: 10,2707           34711        IFLEGAL            CAF      TWO
000769: 10,2710           54164                           TS       COPINDEX
000770:
000771: 10,2711           03522                           TC       LINUSCHR
000772:
000773: 10,2712           12725                           TCF      OKTOPLAY                              #  LINUS RETURN
000774: 10,2713           41071                           CS       EBANKTEM
000775: 10,2714           74707                           MASK     BIT4
000776: 10,2715           10000                           CCS      A
000777: 10,2716           12725                           TCF      OKTOPLAY                              #  NO
000778:
000779: 10,2717           30100                           CA       FLAGWRD4                              #  WAS NORM ASLEEP
000780: 10,2720           73641                           MASK     NBUSMASK                              #  ARE ANY NORMS ASLEEP
000781: 10,2721           00006                           EXTEND
000782: 10,2722           12725                           BZF      OKTOPLAY                              #  NO
000783:


000785: 10,2723           05622        PRIOBORT           TC       P00DOO
000786: 10,2724           01502                           OCT      1502
000787:
000788: 10,2725           03064        OKTOPLAY           TC       COPIES2
000789:
000790: 10,2726           30163                           CA       USERPRIO
000791: 10,2727           00006                           EXTEND
000792: 10,2730           04007                           ROR      SUPERBNK
000793: 10,2731           54366                           TS       RESTREG
000794:
000795: 10,2732           30100                           CA       FLAGWRD4                              #  PRIO OR MARK GOING
000796: 10,2733           73642                           MASK     PMMASK
000797: 10,2734           10000                           CCS      A
000798: 10,2735           13102                           TCF      GOSLEEPS                              #  MARK GOING
000799:
000800: 10,2736           12740                           TCF      +2
000801: 10,2737           13102                           TCF      GOSLEEPS
000802:
000803:                                                                                                  #  COULD PUT NORM BUSY CHECK HERE TO SAVE TIME
000804:
000805: 10,2740           03333                           TC       WITCHONE                              #  IS IT NVSUB BUSY, ENDIDLE OR NOONE
000806: 10,2741           05074                           TC       JOBWAKE
000807:
000808: 10,2742           03350                           TC       XCHTOEND
000809:
000810: 10,2743           34711        PLAYJUM1           CAF      TWO
000811: 10,2744           54164        PRIOPLAY           TS       COPINDEX
000812:
000813: 10,2745           13216                           TCF      GOPLAY
000814:
000815: 10,2746           54155        EXDSPRET           TS       PLAYTEM1
000816:
000817: 10,2747           37703                           CAF      BIT15+6
000818: 10,2750           12626                           TCF      GOFLASH2
000819:
000820: 10,2751           55045        GOPERF1            TS       NORMTEM1                              #  STORE DESIRED CHECKLIST VALUE
000821: 10,2752           33624                           CAF      V01N25                                #  USED TO DISPLAY CHECKLIST VALUE IN R1
000822:
000823: 10,2753           54155        GOPERFS            TS       PLAYTEM1
000824:
000825: 10,2754           33623                           CAF      PERFMASK                              #  LEAVE ONLY FLASH, PERFORM, BLANKING
000826: 10,2755           12626                           TCF      GOFLASH2
000827:
000828: 10,2756           54155        GOPERF2            TS       PLAYTEM1                              #  DESIRED VERB-NOUN TO DISPLAY R1,R2,R3
000829:
000830: 10,2757           33627                           CAF      PERF2MSK
000831: 10,2760           12626                           TCF      GOFLASH2
000832:
000833: 10,2761           03043        GOPERF4            TC       PURRS4
000834:
000835: 10,2762           12626                           TCF      GOFLASH2
000836:


000838: 10,2763           54155        GOFLASHR           TS       PLAYTEM1
000839:
000840: 10,2764           34707                           CAF      BIT4                                  #  LEAVE ONLY FLASH BIT SET
000841: 10,2765           54160        GODSPRS            TS       PLAYTEM4
000842:
000843: 10,2766           36214                           CAF      THREE
000844:
000845: 10,2767           00004        GODSPRS1           INHINT                                         #  IMMEDIATE RETURN IS CALL CADR +4
000846: 10,2770           54072                           TS       RUPTREG3
000847:
000848: 10,2771           30167                           CA       PRIORITY                              #  MAKE DISPLAY ONE HIGHER THAN USER
000849: 10,2772           77674                           MASK     PRIO37
000850: 10,2773           54063                           TS       NEWPRIO
000851:
000852: 10,2774           30160                           CA       PLAYTEM4                              #  IS THIS A FLASHING R DISPLAY
000853: 10,2775           74707                           MASK     BIT4
000854: 10,2776           10000                           CCS      A
000855: 10,2777           13005                           TCF      VACDSP                                #  YES, MAKE DSPLAY JOB A VAC
000856: 10,3000           30063                           CA       NEWPRIO                               #  NO, MAKE DSPLAY JOB A NOVAC
000857: 10,3001           05027                           TC       NOVAC
000858: 10,3002  E7,1777                                  EBANK=   WHOCARES
000859: 10,3002           02674 20107                     2CADR    MAKEPLAY
000860:
000861: 10,3004           13013                           TCF      BOTHJOBS
000862:
000863: 10,3005           30006        VACDSP             CA       BBANK
000864: 10,3006           00006                           EXTEND
000865: 10,3007           04007                           ROR      SUPERBNK
000866: 10,3010           54001                           TS       L
000867: 10,3011           33665                           CAF      MAKEGEN
000868: 10,3012           05053                           TC       SPVAC
000869:
000870: 10,3013           03050        BOTHJOBS           TC       SAVELOCS                              #  COPY TEMPS INTO PERMANENT REGISTERS
000871:
000872: 10,3014           00006                           EXTEND                                         #  SAVE NVWORD AND USER'S MPAC +2
000873: 10,3015           30156                           DCA      MPAC       +1
000874: 10,3016           50064                           INDEX    LOCCTR
000875: 10,3017           52156                           DXCH     MPAC       +1
000876:
000877: 10,3020           00006                           EXTEND                                         #  SAVE USER'S CADR, FLAGS AND EBANK
000878: 10,3021           30160                           DCA      MPAC       +3
000879: 10,3022           50064                           INDEX    LOCCTR
000880: 10,3023           52160                           DXCH     MPAC       +3
000881:
000882: 10,3024           30064                           CA       LOCCTR
000883: 10,3025           54161                           TS       MPAC       +5
000884: 10,3026           03055                           TC       SAVELOCR
000885: 10,3027           00003                           RELINT


000887: 10,3030           14577                           TCF      BANKJUMP                              #  CALL CADR +4
000888:
000889: 10,3031           55045        GOPERF1R           TS       NORMTEM1                              #  DESIRED CHECKLIST VALUE
000890:
000891: 10,3032           33624                           CAF      V01N25                                #  DISPLAYS CHECKLIST VALUE IN R1
000892:
000893: 10,3033           54155        GOPERFRS           TS       PLAYTEM1
000894:
000895: 10,3034           33623                           CAF      PERFMASK                              #  LEAVE ONLY FLASH, PERFORM, BLANKING
000896: 10,3035           12765                           TCF      GODSPRS
000897:
000898: 10,3036           54155        GOPERF2R           TS       PLAYTEM1                              #  DESIRED VERB-NOUN TO DISPLAY R1,R2,R3
000899:
000900: 10,3037           33627                           CAF      PERF2MSK
000901: 10,3040           12765                           TCF      GODSPRS
000902:
000903: 10,3041           03043        GOPERF4R           TC       PURRS4
000904:
000905: 10,3042           12765                           TCF      GODSPRS
000906:
000907: 10,3043           55131        PURRS4             TS       OPTION1                               #  DESIRED OPTION CODE
000908:
000909: 10,3044           33630                           CAF      V04N06
000910: 10,3045           54155                           TS       PLAYTEM1
000911:
000912: 10,3046           33631                           CAF      PERF4MSK                              #  FLASH, PERFORM AND EBANK R3
000913: 10,3047           00002                           TC       Q
000914:
000915: 10,3050           00004        SAVELOCS           INHINT
000916:
000917: 10,3051           43640                           CS       OCT3400                               #  EBANK BITS
000918: 10,3052           70160                           MASK     PLAYTEM4
000919: 10,3053           60003                           AD       EBANK
000920: 10,3054           54160                           TS       PLAYTEM4
000921:
000922: 10,3055           22002        SAVELOCR           LXCH     Q
000923:
000924: 10,3056           04604                           TC       MAKECADR
000925: 10,3057           54157                           TS       PLAYTEM3
000926:
000927: 10,3060           60072                           AD       RUPTREG3                              #  NOT USED FOR NON R ROUTINES
000928: 10,3061           00001                           TC       L
000929:
000930: 10,3062           34714        COPYNORM           CAF      ZERO
000931: 10,3063           54164        COPIES             TS       COPINDEX
000932: 10,3064           00004        COPIES2            INHINT
000933: 10,3065           30160                           CA       PLAYTEM4                              #  FLAGWORD
000934:
000935: 10,3066           50164                           INDEX    COPINDEX
000936: 10,3067           55067                           TS       EBANKSAV                              #  EQUIV TO DSPFLG


000938: 10,3070           73656                           MASK     CADRMASK                              #  FLASH AND GODSPRET
000939: 10,3071           00006                           EXTEND
000940: 10,3072           13076                           BZF      SKIPADD
000941:
000942: 10,3073           30157                           CA       PLAYTEM3
000943: 10,3074           50164                           INDEX    COPINDEX
000944: 10,3075           54372                           TS       CADRFLSH
000945:
000946: 10,3076           30155        SKIPADD            CA       PLAYTEM1                              #  VERB NOUN
000947: 10,3077           50164                           INDEX    COPINDEX
000948: 10,3100           54367                           TS       NVWORD
000949:
000950: 10,3101           13357                           TCF      RELINTQ
000951:
000952: 10,3102           50164        GOSLEEPS           INDEX    COPINDEX
000953: 10,3103           33657                           CA       PRIOOCT
000954: 10,3104           73106                           MASK     WAITMASK
000955: 10,3105           07717                           TC       UPENT2
000956: 10,3106           03004        WAITMASK           OCT      3004
000957: 10,3107           44712                           CS       ONE
000958: 10,3110           60164                           AD       COPINDEX
000959: 10,3111           54154                           TS       FACEREG
000960:
000961: 10,3112           50154        XCHSLEEP           INDEX    FACEREG
000962: 10,3113           33636                           CAF      WAKECADR
000963: 10,3114           00004                           INHINT
000964: 10,3115           05074                           TC       JOBWAKE                               #  FIND CADR IN JOB AREA
000965:
000966: 10,3116           03350                           TC       XCHTOEND                              #  CAUSES AWAKENED JOB TO GO TO ENDOFJOB
000967:
000968: 10,3117           50154                           INDEX    FACEREG                               #  REPLACE SAME CADR BUT NEW JOB AREA
000969: 10,3120           33636                           CAF      WAKECADR
000970: 10,3121           15070                           TCF      JOBSLEEP
000971:
000972: 10,3122           54154        JOBXCHS            TS       FACEREG                               #  CONTROLS TYPE OF DISPLAY PUT TO SLEEP
000973: 10,3123           03333                           TC       WITCHONE
000974: 10,3124           05074                           TC       JOBWAKE
000975: 10,3125           30154                           CA       FACEREG
000976: 10,3126           50064                           INDEX    LOCCTR
000977: 10,3127           54154                           TS       FACEREG
000978:
000979: 10,3130           33143                           CAF      XCHQADD
000980: 10,3131           03351                           TC       XCHNYLOC
000981:
000982: 10,3132           50154                           INDEX    FACEREG
000983: 10,3133           33660                           CA       MARKOCT
000984: 10,3134           73662                           MASK     IDLESLEP
000985:
000986: 10,3135           07735                           TC       DOWNENT2
000987: 10,3136           74004        IDLEMASK           OCT      74004                                 #  * DON'T MOVE


000989: 10,3137           50154                           INDEX    FACEREG                               #  BIT SHOWS PRIO INTERRUPTED NORM OR MARK
000990: 10,3140           34706                           CA       BIT5                                  #  BIT5 FOR MARK, BIT4 FOR NORMAL
000991: 10,3141           64710                           AD       FOUR
000992: 10,3142           07717                           TC       UPENT2                                #  FLAG ROUTINE DOES RELINT
000993: 10,3143           03112        XCHQADD            GENADR   XCHSLEEP                              #  * DON'T MOVE
000994: 10,3144           30100                           CA       FLAGWRD4
000995: 10,3145           74710                           MASK     BIT3                                  #  MARK OVER NORM?
000996: 10,3146           10000                           CCS      A
000997: 10,3147           02530        GENMARK            TC       MARKPLAY                              #  USED AS GENADR FOR JOBWAKE
000998: 10,3150           12664                           TCF      OKTOCOPY
000999:
001000: 10,3151           34714        MARKWAKE           CAF      ZERO
001001: 10,3152           54160        WAKEPLAY           TS       TEMPOR2
001002:
001003: 10,3153           50160                           INDEX    TEMPOR2
001004: 10,3154           33652                           CA       BITS5+11
001005: 10,3155           64710                           AD       FOUR
001006: 10,3156           07735                           TC       DOWNENT2
001007: 10,3157           40010        MARKFMSK           OCT      40010                                 #  *** DON'T MOVE
001008:
001009: 10,3160           50160                           INDEX    TEMPOR2
001010: 10,3161           33636                           CAF      WAKECADR
001011: 10,3162           00004                           INHINT
001012: 10,3163           05074                           TC       JOBWAKE
001013:
001014: 10,3164           13463                           TCF      ENDRET
001015:
001016:                                                                                                  #  ALL .1 RESTARTS BRANCH DIRECTLY TO INITDSP.  NORMAL DISPLAYS ARE THE ONLY DISPLAYS ALLOWED TO USE .1 RESTARTS
001017:                                                                                                  #  INITDSP FIRST RESTORES THE EBANK AND THE SUPERBANK TO THE MOST RECENT NORMAL EBANK AND SUPERBANK.
001018:
001019:                                                                                                  #  IF THE MOST RECENT NORMAL DISPLAY REQUEST WAS NOT FINISHED, CONTROL IS SENT BACK TO TEH LAST NORMAL USER.
001020:                                                                                                  #  OTHERWISE THE NORMAL DISPLAY SET UP IN THE NORMAL DISPLAY REGS IS STARTED UP IMMEDIATELY.
001021:
001022: 10,3165           31071        INITDSP            CA       EBANKTEM                              #  RESTORE MOST RECENT NORMAL EBANK
001023: 10,3166           54003                           TS       EBANK
001024:
001025: 10,3167           30366                           CA       RESTREG                               #  SUPERBANK AND JOB PRIORITY
001026: 10,3170           04666                           TC       SUPERSW                               #  RESTORE SUPERBANK
001027:
001028: 10,3171           77674                           MASK     PRIO37
001029: 10,3172           05103                           TC       PRIOCHNG
001030:
001031: 10,3173           46214                           CS       THREE
001032: 10,3174           60374                           AD       TEMPFLSH
001033: 10,3175           14577                           TCF      BANKJUMP
001034:
001035: 10,3176           00003        PINBRNCH           RELINT                                         #  FOR GOPIN USERS
001036: 10,3177           31072                           CA       MARK2PAC                              #  NEEDED TO SAVE MPAC +2 FOR MARK USERS
001037: 10,3200           54156                           TS       MPAC       +2                         #  ONLY
001038:
001039: 10,3201           30100                           CA       FLAGWRD4                              #  PINBRANCH CONDITION


001041: 10,3202           77707                           MASK     PINMASK
001042: 10,3203           10000                           CCS      A
001043: 10,3204           13207                           TCF      +3
001044: 10,3205           13617                           TCF      ERASER                                #  ** NOTHING IN ENDIDLE
001045: 10,3206           12530                           TCF      MARKPLAY
001046:
001047: 10,3207           05435        NORMBNCH           TC       UPFLAG                                #  SET PINBRANCH BIT
001048: 10,3210           00105                           ADRES    PINBRFLG
001049:
001050: 10,3211           34675                           CAF      BIT14                                 #  PRIO INTERRUPTED
001051: 10,3212           70100                           MASK     FLAGWRD4
001052: 10,3213           10000                           CCS      A
001053: 10,3214           12672                           TCF      KEEPPRIO
001054:
001055: 10,3215           12743                           TCF      PLAYJUM1
001056:
001057: 10,3216           02550        NVDSP              TC       COPYPACS
001058:
001059: 10,3217           30160                           CA       TEMPOR2                               #  SET UP BLANK BITS FOR NVMONOPT IN CASE
001060: 10,3220           74716                           MASK     SEVEN                                 #  USER REQUESTS BLANKING MONITOR
001061: 10,3221           54001                           TS       L
001062:
001063: 10,3222           44676                           CS       BIT13
001064: 10,3223           50164                           INDEX    COPINDEX
001065: 10,3224           71067                           MASK     DSPFLG
001066: 10,3225           50164                           INDEX    COPINDEX
001067: 10,3226           55067                           TS       DSPFLG
001068:
001069: 10,3227           74703                           MASK     BIT8                                  #  BIT8 SET IF DEC MARK PERFORM DISPLAY
001070: 10,3230           54141                           TS       TEM1
001071:
001072: 10,3231           30156                           CA       MPAC       +2
001073: 10,3232           54165                           TS       MPAC2SAV
001074:
001075: 10,3233           55072                           TS       MARK2PAC                              #  * FOR DISK ONLY *
001076: 10,3234           50164                           INDEX    COPINDEX
001077: 10,3235           10367                           CCS      NVWORD
001078: 10,3236           13245                           TCF      NVDSP1
001079: 10,3237           13361                           TCF      CLEANEND
001080: 10,3240           40370                           CS       MARKNV
001081: 10,3241           54370                           TS       MARKNV                                #  IN CASE MARKPLAY AWAKENED AFTER SLEEPING
001082: 10,3242           76043                           MASK     LOW7
001083: 10,3243           63643                           AD       V05N00M1
001084: 10,3244           60141                           AD       TEM1
001085: 10,3245           64712        NVDSP1             AD       ONE
001086: 10,3246           04171        NV50DSP            TC       NVMONOPT
001087: 10,3247           13373                           TCF      REST                                  #  IF BUSY
001088:
001089: 10,3250           04447                           TC       FLASHOFF                              #  IN CASE OF EXTENDED VERB NON-FLASH
001090:
001091: 10,3251           02546                           TC       COPYTOGO                              #  MPACS DESTROYED BY NVSUB


001093: 10,3252           05447                           TC       DOWNFLAG                              #  UNSET SLEEPING BITS
001094: 10,3253           00102                           ADRES    MRKNVFLG
001095: 10,3254           05447                           TC       DOWNFLAG
001096: 10,3255           00103                           ADRES    NRMNVFLG
001097: 10,3256           05447                           TC       DOWNFLAG
001098: 10,3257           00104                           ADRES    PRONVFLG
001099: 10,3260           30160        BLANKCHK           CA       TEMPOR2                               #  BLANK BITS 1,2,3 IF SET
001100: 10,3261           04271                           TC       BLANKSUB
001101: 10,3262           13216                           TCF      NVDSP
001102: 10,3263           34706        PERFCHEK           CAF      BIT5                                  #  BIT5 FOR PERFORM
001103: 10,3264           70160                           MASK     TEMPOR2
001104: 10,3265           10000                           CCS      A                                     #  IS THIS A GOPERF DISPLAY
001105: 10,3266           13311                           TCF      1STOR2ND                              #  YES
001106:
001107: 10,3267           34707        GOANIDLE           CAF      BIT4
001108: 10,3270           70160                           MASK     TEMPOR2
001109: 10,3271           10000                           CCS      A
001110: 10,3272           13406                           TCF      FLASHSUB                              #  IT IS
001111:
001112: 10,3273           40160                           CS       TEMPOR2                               #  IS THIS A GODSPRET
001113: 10,3274           74705                           MASK     BIT6
001114: 10,3275           10000                           CCS      A
001115: 10,3276           13303                           TCF      ISITN00
001116:
001117: 10,3277           50164                           INDEX    COPINDEX
001118: 10,3300           30372                           CA       CADRFLSH
001119: 10,3301           54157                           TS       MPAC       +3
001120: 10,3302           13501                           TCF      ENDIT
001121:
001122: 10,3303           50164        ISITN00            INDEX    COPINDEX                              #  IS THIS A PASTE
001123: 10,3304           30367                           CA       NVWORD
001124: 10,3305           76043                           MASK     LOW7                                  #  CHECK MADE FOR PINBRNCH AND PRIO ON MARK
001125: 10,3306           00006                           EXTEND
001126: 10,3307           13406                           BZF      FLASHSUB                              #  YES, ASSUME PASTE ALWAYS ON FLASH
001127:
001128: 10,3310           15112                           TCF      ENDOFJOB                              #  NOT FLASH, NOT GOPERF, THEREFORE EXIT
001129:
001130: 10,3311           30160        1STOR2ND           CA       TEMPOR2
001131: 10,3312           74676                           MASK     BIT13
001132: 10,3313           10000                           CCS      A
001133: 10,3314           13267                           TCF      GOANIDLE                              #  SECOND
001134:
001135: 10,3315           34676                           CA       BIT13
001136: 10,3316           50164                           INDEX    COPINDEX
001137: 10,3317           27067                           ADS      DSPFLG
001138:
001139: 10,3320           22007                           ZL
001140: 10,3321           00006                           EXTEND                                         #  IS IT MARK
001141: 10,3322           62571                           BZMF     MARKPERF                              #  YES


001143: 10,3323           74677                           MASK     BIT12
001144: 10,3324           00006                           EXTEND
001145: 10,3325           13331                           BZF      V50PASTE
001146: 10,3326           41145                           CS       NVWORD1                               #  NVOWRD1= -0 IS V97.  NVWORD1= -400 IS V99
001147: 10,3327           63667                           AD       V97N00
001148: 10,3330           13246                           TCF      NV50DSP
001149: 10,3331           33626        V50PASTE           CAF      V50N00
001150: 10,3332           13246                           TCF      NV50DSP                               #  DISPLAY SECOND PART OF GOPERF
001151:
001152: 10,3333           44706        WITCHONE           CS       BIT5                                  #  TURN OFF KEY RELEASE LIGHT
001153: 10,3334           00006                           EXTEND
001154: 10,3335           03011                           WAND     DSALMOUT
001155:
001156: 10,3336           30100                           CA       FLAGWRD4
001157: 10,3337           73644                           MASK     NVBUSMSK                              #  IS IT NVSUB ALEEP
001158: 10,3340           10000                           CCS      A
001159: 10,3341           34712                           CAF      ONE
001160: 10,3342           54001                           TS       L
001161: 10,3343           34714                           CAF      ZERO
001162: 10,3344           50001                           INDEX    L
001163: 10,3345           57042                           XCH      CADRSTOR
001164:
001165: 10,3346           00004                           INHINT
001166: 10,3347           00002                           TC       Q
001167:
001168: 10,3350           34233        XCHTOEND           CAF      ENDINST                               #  TC ENDOFJOB REPLACES GENADR IN LOC FOR
001169: 10,3351           56064        XCHNYLOC           XCH      LOCCTR                                #  WAS THIS ADDRESS SLEEPING
001170: 10,3352           00006                           EXTEND
001171: 10,3353           63357                           BZMF     RELINTQ                               #  NO
001172: 10,3354           56064                           XCH      LOCCTR                                #  YES
001173: 10,3355           50064                           INDEX    LOCCTR
001174: 10,3356           54164                           TS       LOC
001175:
001176: 10,3357           00003        RELINTQ            RELINT
001177: 10,3360           00002                           TC       Q                                     #  BACK TO USER
001178:
001179: 10,3361           37667        CLEANEND           CAF      PRIO32                                #  ONE LOWER THAN DISPLAYS SLEEPING
001180: 10,3362           05042                           TC       FINDVAC
001181: 10,3363     0371                                  EBANK=   NVSAVE
001182: 10,3363           04245 04100                     2CADR    JAMTERM
001183:
001184: 10,3365           13407                           TCF      FLASHSUB   +1
001185:
001186: 10,3366           30100        ISITPRIO           CA       FLAGWRD4
001187: 10,3367           73414                           MASK     ITISMASK                              #  IS PINBRFLG, MARKIDFLG SET
001188: 10,3370           00006                           EXTEND
001189: 10,3371           12723                           BZF      PRIOBORT
001190: 10,3372           15112                           TCF      ENDOFJOB


001192: 10,3373           11042        REST               CCS      CADRSTOR                              #  IS SOMEONE IN ENDIDLE
001193: 10,3374           15112                           TCF      ENDOFJOB                              #  YES
001194: 10,3375           13377                           TCF      RESTSLEP
001195:
001196: 10,3376           15112                           TCF      ENDOFJOB
001197:
001198: 10,3377           30162        RESTSLEP           CA       GENMASK                               #  SET NVSLEEP BITS
001199: 10,3400           73645                           MASK     ASTROMSK
001200: 10,3401           07717                           TC       UPENT2
001201: 10,3402           24100        OCT24100           OCT      24100                                 #  *** DON'T MOVE
001202:
001203: 10,3403           50164                           INDEX    COPINDEX
001204: 10,3404           33635                           CAF      NVCADR
001205: 10,3405           04456                           TC       NVSUBUSY                              #  BUSY OR ABORT IF ILLEGAL
001206:
001207: 10,3406           04443        FLASHSUB           TC       FLASHON
001208:
001209: 10,3407           30164                           CA       COPINDEX                              #  COPINDEX DESTROYED BY ENDIDLE
001210: 10,3410           54157                           TS       COPMPAC
001211:
001212: 10,3411           30162                           CA       GENMASK
001213: 10,3412           73136                           MASK     IDLEMASK
001214: 10,3413           07717                           TC       UPENT2
001215: 10,3414           40040        ITISMASK           OCT      40040                                 #  *** ENDIDLE ALLOW *** DON'T MOVE
001216:
001217: 10,3415           31073                           CA       R1SAVE                                #  IS THIS A REPEAT AND RETURN DISPLAY
001218: 10,3416           50164                           INDEX    COPINDEX
001219: 10,3417           74710                           MASK     BIT3
001220: 10,3420           10000                           CCS      A
001221: 10,3421           13506                           TCF      UNSETR1                               #  YES
001222:
001223: 10,3422           11042                           CCS      CADRSTOR                              #  SEE IF SOMEONE ALREADY IN ENDIDLE
001224: 10,3423           13366                           TCF      ISITPRIO
001225: 10,3424           13426                           TCF      +2
001226: 10,3425           13366                           TCF      ISITPRIO
001227:
001228: 10,3426           04223                           TC       ENDIDLE
001229: 10,3427           13520        IDLERET1           TCF      TERMATE
001230:
001231: 10,3430           13537                           TCF      PROCEED                               #  ENDIDLE RETURNS HERE ON PROCEED
001232:
001233: 10,3431           43654                           CS       LOWLOAD
001234: 10,3432           60154                           AD       MPAC                                  #  VERBREG
001235: 10,3433           00006                           EXTEND
001236: 10,3434           26000                           DIM      A
001237: 10,3435           00006                           EXTEND
001238: 10,3436           13607                           BZF      LOADITIS                              #  V21 OR V22 OR V23 ON DSKY
001239:
001240: 10,3437           34711        OKTOENT            CAF      TWO
001241: 10,3440           54161        ENDOUT             TS       OUTHERE


001243: 10,3441           30100                           CA       FLAGWRD4                              #  CHECK NATURE OF ENDIDLE RETURN
001244: 10,3442           74105                           MASK     OCT60000
001245: 10,3443           10000                           CCS      A
001246: 10,3444           13447                           TCF      TIMECHEK                              #  PRIO ENDIDLE RETURN
001247: 10,3445           13555                           TCF      NORMRET                               #  NORMAL ENDIDLE RETURN
001248: 10,3446           13541                           TCF      MARKRET                               #  MARK ENDIDLE RETURN
001249:
001250: 10,3447           40025        TIMECHEK           CS       TIME1
001251: 10,3450           61147                           AD       PRIOTIME
001252: 10,3451           10000                           CCS      A
001253: 10,3452           40000                           COM
001254: 10,3453           67700                           AD       OCT37776
001255: 10,3454           64712                           AD       ONE
001256: 10,3455           63677                           AD       -2SEC
001257: 10,3456           00006                           EXTEND
001258: 10,3457           62672                           BZMF     KEEPPRIO
001259:
001260: 10,3460           13555                           TCF      NORMRET
001261:
001262: 10,3461           34712        NORMWAKE           CAF      ONE
001263: 10,3462           13152                           TCF      WAKEPLAY
001264:
001265: 10,3463           10161        ENDRET             CCS      OUTHERE
001266: 10,3464           64712                           AD       ONE
001267: 10,3465           13467                           TCF      +2                                    #  NORMAL ENDIDLE EXIT
001268: 10,3466           15112                           TCF      ENDOFJOB
001269: 10,3467           50157                           INDEX    COPMPAC
001270: 10,3470           60372                           AD       CADRFLSH
001271: 10,3471           54157                           TS       MPAC       +3
001272:
001273: 10,3472           30162                           CA       GENMASK                               #  REMOVE ENDIDLE AND PINBRANCH BITS
001274: 10,3473           73475                           MASK     PINIDMSK
001275: 10,3474           07735                           TC       DOWNENT2
001276: 10,3475           74044        PINIDMSK           OCT      74044                                 #  *** DON'T MOVE
001277:
001278: 10,3476           46214                           CS       THREE                                 #  BLANK EVERYTHING EXCEPT MM
001279: 10,3477           04170                           TC       NVSUB
001280: 10,3500           13501                           TCF      +1
001281:
001282: 10,3501           30163        ENDIT              CA       USERPRIO                              #  RETURN TO USER'S PRIORITY
001283: 10,3502           77674                           MASK     PRIO37
001284: 10,3503           05103                           TC       PRIOCHNG
001285: 10,3504           30157                           CA       MPAC       +3
001286: 10,3505           14577                           TCF      BANKJUMP
001287:
001288: 10,3506           50164        UNSETR1            INDEX    COPINDEX                              #  RESET REPEAT AND RETURN REQUEST
001289: 10,3507           44710                           CS       BIT3
001290: 10,3510           71073                           MASK     R1SAVE
001291: 10,3511           55073                           TS       R1SAVE


001293: 10,3512           34714                           CAF      ZERO                                  #  *** 205 ONLY MARKBRAN USERS IN
001294: 10,3513           04666                           TC       SUPERSW                               #  SUPERBANK 0
001295:
001296: 10,3514           36214                 -1        CAF      THREE                                 #  RETURN TO USER'S IMMEDIATE RETURN LOC
001297: 10,3515           50164        IMMEDRET           INDEX    COPINDEX
001298: 10,3516           60372                           AD       CADRFLSH
001299: 10,3517           14577                           TCF      BANKJUMP
001300:
001301: 10,3520           34714        TERMATE            CAF      ZERO                                  #  ASTRONAUT TERMINATE (V34) RETURNS TO
001302: 10,3521           13440                           TCF      ENDOUT
001303:
001304: 10,3522           40160        LINUSCHR           CS       PLAYTEM4                              #  IS THIS A LINUS
001305: 10,3523           74675                           MASK     BIT14
001306: 10,3524           10000                           CCS      A
001307: 10,3525           16706                           TCF      Q+1                                   #  NO
001308: 10,3526           40157                           CS       PLAYTEM3                              #  YES, IS IT ALREADY IN ENDIDLE
001309: 10,3527           50164                           INDEX    COPINDEX
001310: 10,3530           60372                           AD       CADRFLSH
001311: 10,3531           00006                           EXTEND
001312: 10,3532           13534                           BZF      +2                                    #  YES
001313:
001314: 10,3533           00002                           TC       Q                                     #  NO
001315: 10,3534           11012                           CCS      DSPLOCK                               #  IS THE ASTRONAUT BUSY
001316: 10,3535           05112                           TC       ENDOFJOB                              #  END THE NEW DISPLAY, IT'S ALREADY ACTIVE
001317: 10,3536           00002                           TC       Q
001318:
001319:                                                                                                  #  MORE LOGIC COULD BE INCORPORATED HERE TO MAKE SURE A RECYCLE IS A RECYCLE AND CONVERSELY THAT A LOAD IS A LOAD
001320:
001321: 10,3537           34712        PROCEED            CAF      ONE                                   #  ASTRONAUT PROCEED (V33) RETURNS
001322: 10,3540           13440                           TCF      ENDOUT
001323:
001324:                                                                                                  #  LASTPLAY CHECKS TO SEE IF (1) THE LAST NORMAL DISPLAY WAS EITHER INTERRUPTED BY A PRIO OR A MARK (MARK
001325:                                                                                                  #  COULD ONLY HAPPEN DURING PINBRANCH) OR IF (2) THE LAST NORMAL DISPLAY WAS REQUESTED WHILE A HIGHER PRIORITY
001326:                                                                                                  #  DISPLAY WAS GOING, RESULTING IN THE NORMAL BEING PUT TO SLEEP.
001327:
001328:                                                                                                  #  IF EITHER OF THE ABOVE 2 CONDITIONS EXISTS, THE NORMAL DISPLAY IS AWAKENED TO GO TO PLAYJUM1 WHICH STARTS
001329:                                                                                                  #  UP THE MOST RECENT VALID NORMAL DISPLAY.  IF THESE 2 CONDITIONS DO NOT EXIST, CONTROL GOES TO PLAYJUM1 WHICH IS
001330:                                                                                                  #  STARTED IMMEDIATELY WITH THE ASSUMPTION THAT THE MOST RECENT NORMAL DISPLAY IS ALREADY IN ENDIDLE (DURING A
001331:                                                                                                  #  PINBRNCH) OR THAT A RESTART HAS OCCURRED AND THE DISPLAY CAN BE STARTED AS A .1 RESTART.
001332:
001333: 10,3541           46211        MARKRET            CS       SIX
001334: 10,3542           70100                           MASK     FLAGWRD4
001335: 10,3543           00004                           INHINT                                         #  *** MAY MOVE DISPLAY FLAGWORD OUT OF
001336: 10,3544           54100                           TS       FLAGWRD4
001337:
001338: 10,3545           00003                           RELINT                                         #  INHINT REALM
001339: 10,3546           13463                           TCF      ENDRET
001340:
001341: 10,3547           37716        MARKOVER           CAF      MINUS1                                #  RUPTREG2 IS - MEANS ENDOFJOB TO ENDRET
001342: 10,3550           54161                           TS       OUTHERE


001344: 10,3551           30100                           CA       FLAGWRD4                              #  IS ENDIDFLG SET
001345: 10,3552           74371                           MASK     PRIO30                                #  IS NORMAL OR PRIO IN ENDIDLE
001346: 10,3553           10000                           CCS      A
001347: 10,3554           13207                           TCF      NORMBNCH
001348:
001349: 10,3555           30100        NORMRET            CA       FLAGWRD4                              #  IS MARK SLEEPING
001350: 10,3556           73652                           MASK     BITS5+11                              #  OR WAITING
001351: 10,3557           10000                           CCS      A
001352: 10,3560           13151                           TCF      MARKWAKE
001353:
001354: 10,3561           30100                           CA       FLAGWRD4                              #  NO
001355: 10,3562           73653                           MASK     BITS4+10                              #  IS NORMAL INTERRUPTED OR WAITING
001356: 10,3563           10000                           CCS      A
001357: 10,3564           13461                           TCF      NORMWAKE                              #  YES
001358:
001359: 10,3565           31071                           CA       EBANKTEM                              #  NO, WAS IT A FLASH REQUEST
001360: 10,3566           74726                           MASK     OCT50                                 #  OR A GODSPRET
001361: 10,3567           10000                           CCS      A
001362: 10,3570           13463                           TCF      ENDRET                                #  YES
001363: 10,3571           30371                           CA       NVSAVE
001364: 10,3572           00006                           EXTEND
001365: 10,3573           13463                           BZF      ENDRET
001366:
001367: 10,3574           34762                           CAF      PRIO15
001368: 10,3575           00004                           INHINT
001369: 10,3576           05027                           TC       NOVAC
001370: 10,3577     0367                                  EBANK=   NVWORD
001371: 10,3577           02743 20100                     2CADR    PLAYJUM1
001372:
001373: 10,3601           13463                           TCF      ENDRET
001374:
001375: 10,3602           30100        MARSLEEP           CA       FLAGWRD4                              #  IS MARK ALREADY ON
001376: 10,3603           73652                           MASK     BITS5+11
001377: 10,3604           10000                           CCS      A
001378: 10,3605           15112                           TCF      ENDOFJOB                              #  YES
001379: 10,3606           13102                           TCF      GOSLEEPS
001380:
001381: 10,3607           50157        LOADITIS           INDEX    COPMPAC
001382: 10,3610           30367                           CA       NVWORD
001383: 10,3611           76043                           MASK     LOW7
001384: 10,3612           40000                           COM
001385: 10,3613           60155                           AD       MPAC       +1                         #  NOUNREG
001386: 10,3614           00006                           EXTEND
001387: 10,3615           13437                           BZF      OKTOENT                               #  NO, THEN LOAD IS VALID
001388: 10,3616           13176                           TCF      PINBRNCH                              #  YES, ACCEPT LOAD BUT ASK FOR LAST AGAIN
001389:
001390: 10,3617           46214        ERASER             CS       THREE                                 #  BLANK EVERYTHING EXCEPT MM
001391: 10,3620           04170                           TC       NVSUB
001392: 10,3621           15112                           TCF      ENDOFJOB


001394: 10,3622           15112                           TCF      ENDOFJOB
001395:
001396: 10,3623           00036        PERFMASK           OCT      0036                                  #  FLASH, PERFORM, BLANK R2 AND R3
001397: 10,3624           00231        V01N25             VN       00125
001398: 10,3625           01407        V06N07             VN       00607                                 #  GOPERF3 VN DISPLAY BEFORE V50
001399: 10,3626           14400        V50N00             VN       5000
001400: 10,3627           00030        PERF2MSK           OCT      00030                                 #  FLASH, PERFORM
001401: 10,3630           01006        V04N06             VN       00406
001402: 10,3631           00014        PERF4MSK           OCT      14                                    #  FLASH, BLANK R3
001403: 10,3632  10,3176               GOAGIN             EQUALS   PINBRNCH
001404: 10,3632           20010        REDOMASK           OCT      20010                                 #  BITS 4 AND 14
001405: 10,3633           40230        MARK3MSK           OCT      40230                                 #  MARK, DECIMAL NOUN, PERFORM, FLASH
001406: 10,3634           40036        MARK4MSK           OCT      40036                                 #  MARK, PERFORM, FLASH, BLANK 2 AND 3
001407: 10,3635           20670        NVCADR             CADR     REDOPRIO
001408: 10,3636           20530        WAKECADR           CADR     MARKPLAY
001409: 10,3637           20743                           CADR     PLAYJUM1
001410:
001411: 10,3640           03400        OCT3400            OCT      3400                                  #  EBANK MASK
001412: 10,3641           11210        NBUSMASK           OCT      11210
001413: 10,3642           66521        PMMASK             OCT      66521
001414: 10,3643     4160               VERBMASK           =        MID7                                  #  (OCT 37600)
001415: 10,3643           01177        V05N00M1           OCT      1177                                  #  V05 MINUS ONE
001416: 10,3644  10,2461               GOXDSP             EQUALS   GOMARK
001417: 10,3644  10,2501               GOXDSPR            EQUALS   GOMARKR
001418: 10,3644  10,2465               GOXDSPF            EQUALS   GOMARKF
001419: 10,3644  10,2504               GOXDSPFR           EQUALS   GOMARKFR
001420: 10,3644     5423               ENDEXT             EQUALS   ENDMARK
001421: 10,3644     0165               MPAC2SAV           EQUALS   BANKSET
001422: 10,3644           00700        NVBUSMSK           OCT      700
001423: 10,3645           00704        ASTROMSK           OCT      704
001424: 10,3646           40030        MPERFMSK           OCT      40030                                 #  BIT 15,5,4 FOR MARK,PERFORM,FLASH
001425: 10,3647           34300        OCT34300           OCT      34300
001426: 10,3650           40100        BITS15+7           OCT      40100
001427: 10,3651           00110        BITS7+4            OCT      110
001428: 10,3652     1067               DSPFLG             EQUALS   EBANKSAV
001429: 10,3652     1070               MARKFLAG           EQUALS   MARKEBAN
001430: 10,3652     1071               SAVEFLAG           EQUALS   EBANKTEM
001431: 10,3652           02020        BITS5+11           OCT      2020                                  #  * DON'T MOVE
001432: 10,3653           01010        BITS4+10           OCT      1010                                  #  * DON'T MOVE
001433: 10,3654           00026        LOWLOAD            DEC      22         B-14
001434: 10,3655           77730        BUSYMASK           OCT      77730
001435: 10,3656           00050        CADRMASK           OCT      50
001436: 10,3657     7707               PINMASK            EQUALS   13,14,15
001437: 10,3657  10,3216               GOPLAY             EQUALS   NVDSP
001438: 10,3657     1073               PRIOSAVE           EQUALS   R1SAVE
001439: 10,3657     0157               COPMPAC            EQUALS   MPAC       +3
001440: 10,3657     0160               TEMPOR2            EQUALS   MPAC       +4
001441: 10,3657     0161               OUTHERE            EQUALS   MPAC       +5
001442: 10,3657     0164               COPINDEX           EQUALS   LOC
001443: 10,3657     0163               USERPRIO           EQUALS   MODE


001445: 10,3657     0162               GENMASK            EQUALS   MPAC       +6
001446: 10,3657           20144        PRIOOCT            OCT      20144                                 #  PRIO
001447: 10,3660           42424        MARKOCT            OCT      42424                                 #  MARK
001448: 10,3661           11254                           OCT      11254                                 #  NORM
001449:
001450: 10,3662           74704        IDLESLEP           OCT      74704
001451: 10,3663           67777        OCT67777           OCT      67777
001452: 10,3664     5415               LINUS              EQUALS   BLANKET
001453: 10,3664     0154               FACEREG            EQUALS   MPAC
001454: 10,3664     0155               PLAYTEM1           EQUALS   MPAC       +1
001455: 10,3664     0157               PLAYTEM3           EQUALS   MPAC       +3
001456: 10,3664     0160               PLAYTEM4           EQUALS   MPAC       +4
001457: 10,3664           40420        OCT40420           OCT      40420
001458: 10,3665           02674        MAKEGEN            GENADR   MAKEPLAY
001459: 10,3666           10200        OCT10200           OCT      10200
001460: 10,3667           30200        V97N00             VN       09700                                 #  PASTE FOR V97 OR V99
001461: 10,3670           20100        OCT20100           OCT      20100
001462:
001463:

End of include-file DISPLAY_INTERFACE_ROUTINES.agc.  Parent file is MAIN.agc


