
Source Code
000001:                                                                                                 #  Copyright:     Public domain.
000002:                                                                                                 #  Filename:      DOWN_TELEMETRY_PROGRAM.agc
000003:                                                                                                 #  Purpose:       Part of the source code for Colossus, build 249.
000004:                                                                                                 #                 It is part of the source code for the Command Module's (CM)
000005:                                                                                                 #                 Apollo Guidance Computer (AGC), possibly for Apollo 8 and 9.
000006:                                                                                                 #  Assembler:     yaYUL
000007:                                                                                                 #  Reference:     Starts on p. 1075 of 1701.pdf.
000008:                                                                                                 #  Contact:       Ron Burkey <info@sandroid.org>.
000009:                                                                                                 #  Website:       www.ibiblio.org/apollo.
000010:                                                                                                 #  Mod history:   08/28/04 RSB.   Adapted from corresponding Luminary 131 file.
000011:
000012:                                                                                                 #  The contents of the "Colossus249" files, in general, are transcribed
000013:                                                                                                 #  from a scanned document obtained from MIT's website,
000014:                                                                                                 #  http://hrst.mit.edu/hrs/apollo/public/archive/1701.pdf.  Notations on this
000015:                                                                                                 #  document read, in part:
000016:
000017:                                                                                                 #         Assemble revision 249 of AGC program Colossus by NASA
000018:                                                                                                 #         2021111-041.  October 28, 1968.
000019:
000020:                                                                                                 #         This AGC program shall also be referred to as
000021:                                                                                                 #                                 Colossus 1A
000022:
000023:                                                                                                 #         Prepared by
000024:                                                                                                 #                         Massachussets Institute of Technology
000025:                                                                                                 #                         75 Cambridge Parkway
000026:                                                                                                 #                         Cambridge, Massachusetts
000027:                                                                                                 #         under NASA contract NAS 9-4065.
000028:
000029:                                                                                                 #  Refer directly to the online document mentioned above for further information.
000030:                                                                                                 #  Please report any errors (relative to 1701.pdf) to info@sandroid.org.
000031:
000032:                                                                                                 #  In some cases, where the source code for Luminary 131 overlaps that of
000033:                                                                                                 #  Colossus 249, this code is instead copied from the corresponding Luminary 131
000034:                                                                                                 #  source file, and then is proofed to incorporate any changes.
000035:
000036:                                                                                                 #  Page 1075
000037:                                                                                                 #  PROGRAM NAME -- DOWN TELEMETRY PROGRAM
000038:                                                                                                 #  MOD NO. -- 0           TO COMPLETELY REWRITE THE DOWN TELEMETRY PROGRAM AND DOWNLINK ERASABLE DUMP PROGRAM FOR THE
000039:                                                                                                 #                         PURPOSE OF SAVING APPROXIMATELY 150 WORDS OF CORE STORAGE.
000040:                                                                                                 #                         THIS CHANGE REQUIRES AN ENTIRELY NEW METHOD OF SPECIFYING DOWNLINK LISTS.  REFER TO DOWNLINK
000041:                                                                                                 #                         LISTS LOG SECTION FOR MORE DETAILS.  HOWEVER THIS CHANGES WILL NOT AFFECT THE GROUND PROCESSING
000042:                                                                                                 #                         OF DOWN TELEMETRY DATA.
000043:                                                                                                 #  MOD BY -- KILROY, SMITH, DEWITT
000044:                                                                                                 #  DATE -- 02 OCT 67
000045:                                                                                                 #  AUTHORS -- KILROY, SMITH, DWWITT, DEWOLF, FAGIN
000046:                                                                                                 #  LOG SECTION -- DOWN-TELEMETRY PROGRAM
000047:
000048:                                                                                                 #  FUNCTIONAL DESCRIPTION -- THIS ROUTINE IS INITIATED BY TELEMETRY END
000049:                                                                                                 #         PULSE FROM THE DOWNLINK TELEMETRY CONVERTER.  THIS PULSE OCCURS
000050:                                                                                                 #         AT 50 TIMES PER SEC (EVERY 20 MS) THEREFORE DODOWNTM IS
000051:                                                                                                 #         EXECUTED AT THESE RATES.  THIS ROUTINE SELECTS THE APPROPRIATE
000052:                                                                                                 #         AGC DATA TO BE TRANSMITTED DOWNLINK AND LOADS IT INTO OUTPUT
000053:                                                                                                 #         CHANNELS 34 AND 35.  THE INFORMATION IS THEN GATED OUT FROM THE
000054:                                                                                                 #         LGC IN SERIAL FASHION.
000055:
000056:                                                                                                 #         THIS PROGRAM IS CODED FOR A 2 SECOND DOWNLIST.  SINCE DOWNRUPTS
000057:                                                                                                 #         OCCUR EVERY 20 MS AND 2 AGC COMPUTER WORDS CAN BE PLACED IN
000058:                                                                                                 #         CHANNELS 34 AND 35 DURING EACH DOWNRUPT THE PROGRAM IS CAPABLE
000059:                                                                                                 #         OF SENDING 200 AGC WORDS EVERY 2 SECONDS.
000060:
000061:                                                                                                 #  CALLING SEQUENCE -- NONE
000062:                                                                                                 #         PROGRAM IS ENTERED VIA TCF DODOWNTM WHICH IS EXECUTED AS A
000063:                                                                                                 #         RESULT OF A DOWNRUPT.  CONTROL IS RETURNED VIA TCF RESUME WHICH
000064:                                                                                                 #         IN EFFECT IS A RESUME.
000065:
000066:                                                                                                 #  SUBROUTINES CALLED -- NONE
000067:
000068:                                                                                                 #  NORMAL EXIT MODE -- TCF RESUME
000069:
000070:                                                                                                 #  ALARM OR ABORT EXIT MODE -- NONE
000071:
000072:                                                                                                 #  RESTART PROTECTION:
000073:                                                                                                 #         ON A FRESH START AND RESTART THE `STARTSUB' SUBROUTINE WILL INITIALIZE THE DOWNLIST POINTER (ACTUALLY
000074:                                                                                                 #         DNTMGOTO) TO THE BEGINNING OF THE CURRENT DOWNLIST (I.E., CURRENT CONTENTS OF DNLSTADR).  THIS HAS THE
000075:                                                                                                 #         EFFECT OF IGNORING THE REMAINDER OF THE DOWNLIST WHICH THE DOWN-TELEMETRY PROGRAM WAS WORKING ON WHEN
000076:                                                                                                 #         THE RESTART (OR FRESH START) OCCURRED AND RESUME DOWN TELEMETRY FROM THE BEGINNING OF THE CURRENT
000077:                                                                                                 #         DOWNLIST.
000078:
000079:                                                                                                 #         ALSO OF INTEREST IS THE FACT THAT ON A RESTART THE AGC WILL ZERO DOWNLINK CHANNELS 13, 34 AND 35.
000080:
000081:                                                                                                 #  DOWNLINK LIST SELECTION:
000082:                                                                                                 #         THE APPROPRIATE DOWNLINK LISTS ARE SELECTED BY THE FOLLOWING:
000083:                                                                                                 #         1.      FRESH START
000084:                                                                                                 #         2.      V37EXXE WHERE XX = THE MAJOR MODE BEING SELECTED.
000085:                                                                                                 #         3.      UPDATE PROGRAM (P27)
000086:                                                                                                 #         4.      NON-V37 SELECTABLE TYPE PROGRAMS (E.G., AGS INITIALIZATION (SUNDANCE, LUMINARY) AND P61-P62
000087:                                                                                                 #                 TRANSITIONS (COLOSSUS) ETC.).
000088:
000089:                                                                                                 #  DOWNLINK LIST RULES AND LIMITATIONS:
000090:                                                                                                 #         READ SECTION(S) WHICH FOLLOW `DEBRIS' WRITEUP.
000091:
000092:                                                                                                 #  OUTPUT -- EVERY 2 SECONDS 100 DOUBLE PRECISION WORDS (I.E., 200 LGC
000093:                                                                                                 #         COMPUTER WORDS) ARE TRANSMITTED VIA DOWNLINK.
000094:
000095:                                                                                                 #  ERASABLE INITIALIZATION REQUIRED -- NONE
000096:                                                                                                 #         `DNTMGOTO' AND `DNLSTADR' ARE INITIALIZED BY THE FRESH START PROGRAM.
000097:
000098:                                                                                                 #  DEBRIS (ERASABLE LOCATIONS DESTROYED BY THIS PROGRAM) --
000099:                                                                                                 #         LDATALST, DNTMBUFF TO DNTMBUFF +21D, TMINDEX, DNQ.
000100:                                                                                                 #  Page 1076
000101:                                                                                                 #  (No source on this page of the original assembly listing.)
000102:
000103:                                                                                                 #  Page 1077
000104:                                                                                                 #  DODOWNTM IS ENTERED EVERY 20 MS BY AN INTERRUPT TRIGGERED BY THE
000105:                                                                                                 #  RECEIPT OF AN ENDPULSE FROM THE SPACECRAFT TELEMETRY PROGRAMMER.
000106:
000107:                                                                                                 #  NOTES REGARDING DOWNLINK LISTS ASSOCIATED WITH THIS PROGRAM:
000108:                                                                                                 #  1.     DOWNLISTS.  DOWNLISTS MUST BE COMPILED IN THE SAME BANK AS THE
000109:                                                                                                 #         DOWN-TELEMETRY PROGRAM.  THIS IS DONE FOR EASE OF CODING, FASTER
000110:                                                                                                 #         EXECUTION.
000111:                                                                                                 #  2.     EACH DOWNLINK LIST CONSISTES OF A CONTROL LIST AND A NUMBER OF
000112:                                                                                                 #         SUBLISTS.
000113:                                                                                                 #  3.     A SUBLIST REFERS TO A SNAPSHOT OR DATA COMMON TO THE SAME OR OTHER
000114:                                                                                                 #         DOWNLINK LISTS.  ANY SUBLIST CONTAINING COMMON DATA NEEDS TO BE
000115:                                                                                                 #         CODED ONLY ONCE FOR THE APPLICABLE DOWNLINK LISTS.
000116:                                                                                                 #  4.     SNAPSHOT SUBLISTS REFER SPECIFICALLY TO HOMOGENEOUS DATA WHICH MUST BE
000117:                                                                                                 #         SAVED IN A BUFFER DURING ONE DOWNRUPT.
000118:                                                                                                 #  5.     THE 1DNADR FOR THE 1ST WORD OF SNAPSHOT DATA IS FOUND AT THE END
000119:                                                                                                 #         OF EACH SNAPSHOT SUBLIST, SINCE THE PROGRAM CODING SENDS THIS DP WORD
000120:                                                                                                 #         IMMEDIATELY AFTER STORING THE OTHERS IN THE SNAPSHOT BUFFER.
000121:                                                                                                 #  6.     ALL LISTS ARE COMBINATIONS OF CODED ERASABLE ADDRESS CONSTANTS
000122:                                                                                                 #         CREATED FOR THE DOWNLIST PROGRAM.
000123:                                                                                                 #         A.      1DNADR                  1-WORD DOWNLIST ADDRESS.
000124:                                                                                                 #                 SAME AS ECADR, BUT USED WHEN THE WORD ADDRESSED IS THE LEFT
000125:                                                                                                 #                 HALF OF A DOUBLE-PRECISION WORD FOR DOWN TELEMETRY.
000126:                                                                                                 #         B.      2DNADR - 6DNADR         N-WORD DOWNLIST ADDRESS, N = 2 - 6.
000127:                                                                                                 #                 SAME AS 1DNADR, BUT WTIH THE 4 UNUSED BITS OF THE ECADR FORMAT
000128:                                                                                                 #                 FILLED IN WITH 0001-0101.  USED TO POINT TO A LIST OF N DOUBLE-
000129:                                                                                                 #                 PRECISION WORDS, STORED CONSECUTIVELY, FOR DOWN TELEMETRY.
000130:                                                                                                 #         C.      DNCHAN                  DOWNLIST CHANNEL ADDRESS.
000131:                                                                                                 #                 SAME AS 1DNADR, BUT WITH PREFIX BITS 0111.  USED TO POINT TO
000132:                                                                                                 #                 A PAIR OF CHANNELS FOR DOWN TELEMETRY.
000133:                                                                                                 #         D.      DNPTR                   DOWN-TELEMETRY SUBLIST POINTER.
000134:                                                                                                 #                 SAME AS CAF BUT TAGGES AS A CONSTANT.  USED IN CONTROL LIST TO POINT TO A SUBLIST.
000135:                                                                                                 #                 CAUTION --- A DNPTR CANNOT BE USED IN A SUBLIST.
000136:                                                                                                 #  7.     THE WORD ORDER CODE IS SET TO ZERO AT THE BEGINNING OF EACH DOWNLIST (I.E., CONTROL LIST) AND WHEN
000137:                                                                                                 #         A `1DNADR TIME2' IS DETECTED IN THE CONTROL LIST (ONLY).
000138:                                                                                                 #  8.     IN THE SNAPSHOT SUBLIST ONLY, THE DNADR'S CANNOT POINT TO THE FIRST WORD OF ANY EBANK.
000139:
000140:                                                                                                 #  DOWNLIST LIST RESTRICTIONS:
000141:                                                                                                 #  (THE FOLLOWING POINTS MAY BE LISTED ELSEWHERE BUT ARE LISTED HERE SO IT IS CLEAR THAT THESE THINGS CANNOT BE
000142:                                                                                                 #  DONE)
000143:                                                                                                 #  1.     SNAPSHOT DOWNLIST:
000144:                                                                                                 #         (A) CANNOT CONTAIN THE FOLLOWING ECADRS (I.E., 1DNADR'S): Q, 400, 1000, 1400, 2000, 2400, 3000, 3400.
000145:                                                                                                 #         (B) CAN CONTAIN ONLY 1DNADR'S
000146:                                                                                                 #  2.     ALL DOWNLINKED DATA (EXCEPT CHANNELS) IS PICKED UP BY A DCA SO DOWNLINK LISTS CANNOT CONTAIN THE
000147:                                                                                                 #         EQUIVALENT OF THE FOLLOWING ECADRS (I.E., IDNADRS): 377, 777, 1377, 1777, 2377, 2777, 3377, 3777.
000148:                                                                                                 #         (NOTE: TE TERM `EQUIVALENT' MEANT THAT THE IDNADR TO 6DNADR WILL BE PROCESSED LIKE 1 TO 6 ECADRS)
000149:                                                                                                 #  3.     CONTROL LISTS AND SUBLISTS CANNOT HAVE ENTRIES = OCTAL 00000 OR OCTAL 77777
000150:                                                                                                 #  Page 1078
000151:                                                                                                 #  4.     THE `1DNADR TIME2' WHICH WILL CAUSE THE DOWNLINT PROGRAM TO SET THE WORDER CODE TO 3 MUST APPEAR IN THE
000152:                                                                                                 #         CONTROL SECTION OF THE DOWNLIST.
000153:                                                                                                 #  5.     `DNCHAN 0' CANNOT BE USED.
000154:                                                                                                 #  6.     `DNPTR 0' CANNOT BE USED.
000155:                                                                                                 #  7.     DNPTR CANNOT APPEAR IN A SUBLIST.
000156:
000157:                                                                                                 #  EBANK SETTINGS
000158:                                                                                                 #         IN THE PROCESS OF SETTING THE EBANK (WHEN PICKING UP DOWNLINK DATA) THE DOWN TELEMETRY PROGRAM PUTS
000159:                                                                                                 #         `GARBAGE' INTO BITS15-12 OF EBANK.  HUGH BLAIR-SMITH WARNS US THAT BITS15-12 OF EBANK MAY BECOME
000160:                                                                                                 #         SIGNIFICANT SOMEDAY IN THE FUTURE.  IF/WHEN THAT HAPPENS, THE PROGRAM SHOULD INSURE (BY MASKING ETC.)
000161:                                                                                                 #         THAT BITS 15-12 OF EBANK ARE ZERO.
000162:
000163:                                                                                                 #  INITIALIZATION REQUIRED -- TO INTERRUPT CURRENT LIST AND START A NEW ONE.
000164:                                                                                                 #         1. ADRES OF DOWNLINK LIST INTO DNLSTADR
000165:                                                                                                 #         2. NEGONE INTO SUBLIST
000166:                                                                                                 #         3. NEGONE INTO DNECADR
000167:
000168: 22,3505                                          BANK     22
000169: 05,2000                                          SETLOC   DOWNTELM
000170: 05,2000                                          BANK
000171:
000172: 05,3342     0340                                 EBANK=   DNTMBUFF
000173:
000174: 05,3342                                          COUNT    05/DPROG
000175:
000176: 05,3342           54016        DODOWNTM          TS       BANKRUPT
000177: 05,3343           00006                          EXTEND
000178: 05,3344           22012                          QXCH     QRUPT                                 #  SAVE Q
000179: 05,3345           34704                          CA       BIT7                                  #  SET WORD ORDER CODE TO 1.  EXCEPTION: AT
000180: 05,3346           00006                          EXTEND                                         #  THE BEGINNING OF EACH LIST THE WORD
000181: 05,3347           05013                          WOR      CHAN13                                #  CODE WILL BE SET BACK TO 0.
000182: 05,3350           00335                          TC       DNTMGOTO                              #  GOTO APPROPRIATE PHASE OF PROGRAM
000183:
000184: 05,3351           37716        DNPHASE1          CA       NEGONE                                #  INITIALIZE ALL CONTROL WORDS
000185: 05,3352           54337                          TS       SUBLIST                               #  WORDS TO MINUS ONE
000186: 05,3353           54336                          TS       DNECADR
000187: 05,3354           33474                          CA       LDNPHAS2                              #  SET DNTMGOTO = 0 ALL SUSEQUENT DOWRUPTS
000188: 05,3355           54335                          TS       DNTMGOTO                              #  GO TO DNPHASE2
000189: 05,3356           13372                          TCF      NEWLIST
000190: 05,3357           10336        DNPHASE2          CCS      DNECADR                               #  SENDING OF DATA IN PROGRESS
000191: 05,3360           03507        DODNADR           TC       FETCH2WD                              #  YES -- THEN FETCH THE NEXT 2 SP WORDS
000192: 05,3361           77753        MINTIME2          -1DNADR  TIME2                                 #  NEGATIVE OF TIME2 1DNADR
000193: 05,3362           13363                          TCF      +1                                    #  (ECADR OF 3776 + 74001 = 77777)
000194:
000195: 05,3363           10337                          CCS      SUBLIST                               #  IS THE SUBLIST IN CONTROL
000196:                                                                                                 #  Page 1079
000197: 05,3364           13522                          TCF      NEXTINSL                              #  YES
000198: 05,3365           74001        DNADRDCR          OCT      74001                                 #  DNADR COUNT AND ECADR DECREMENTER
000199:
000200: 05,3366           30334        CHKLIST           CA       CTLIST
000201: 05,3367           00006                          EXTEND
000202: 05,3370           63372                          BZMF     NEWLIST                               #  IT WILL BE NEGATIVE AT END OF LIST
000203: 05,3371           13377                          TCF      NEXTINCL
000204: 05,3372           50332        NEWLIST           INDEX    DNLSTCOD
000205: 05,3373           32342                          CA       DNTABLE                               #  INITIALIZE CTLIST WITH
000206: 05,3374           54334                          TS       CTLIST                                #         STARTING ADDRESS OF NEW LIST
000207: 05,3375           40332                          CS       DNLSTCOD
000208: 05,3376           13612                          TCF      SENDID     +3
000209: 05,3377           50334        NEXTINCL          INDEX    CTLIST
000210: 05,3400           30000                          CA       0
000211: 05,3401           10000                          CCS      A
000212: 05,3402           24334                          INCR     CTLIST                                #  SET POINTER TO PICK UP NEXT CTLIST WORD
000213: 05,3403           13407                          TCF      +4                                    #  ON NEXT ENTRY TO PROG.  (A SHOULD NOT =0)
000214: 05,3404           56334                          XCH      CTLIST                                #  SET CTLIST TO NEGATIVE AND PLACE(CODING)
000215: 05,3405           40000                          COM                                            #  UNCOMPLEMENTED DNADR INTO A.    (FOR LA)
000216: 05,3406           56334                          XCH      CTLIST                                #                                  (ST IN )
000217: 05,3407           24000                 +4       INCR     A                                     #                                  (CTLIST)
000218: 05,3410           54336                          TS       DNECADR                               #  SAVE DNADR
000219: 05,3411           63361                          AD       MINTIME2                              #  TEST FOR TIME2 (NEG. OF ECADR)
000220: 05,3412           10000                          CCS      A
000221: 05,3413           13417                          TCF      SETWO      +1                         #  DON'T SET WORD ORDER CODE
000222: 05,3414           47777        MINB1314          OCT      47777                                 #  MINUS BIT 13 AND 14 (CAN'T GET HERE)
000223: 05,3415           13417                          TCF      SETWO      +1                         #  DON'T SET WORD ORDER CODE
000224: 05,3416           03441        SETWO             TC       WOZERO                                #  GO SET WORD ORDER CODE TO ZERO.
000225: 05,3417           30336                 +1       CA       DNECADR                               #  RELOAD A WITH THE DNADR.
000226: 05,3420           63414                 +2       AD       MINB1314                              #  IS THIS A REGULAR DNADR?
000227: 05,3421           00006                          EXTEND
000228: 05,3422           63507                          BZMF     FETCH2WD                              #  YES.  (A MUST NEVER BE ZERO)
000229: 05,3423           67710                          AD       MINB12                                #  NO.  IS IT A POINTER (DNPTR) OR A
000230: 05,3424           00006                          EXTEND                                         #         CHANNEL(DNCHAN)
000231: 05,3425           63445                          BZMF     DODNPTR                               #  IT'S A POINTER.  (A MUST NEVER BE ZERO)
000232:
000233: 05,3426           00006        DODNCHAN          TC       6                                     #  (EXECUTED AS EXTEND)  IT'S A CHANNEL
000234: 05,3427           50336                          INDEX    DNECADR
000235: 05,3430           44000                          INDEX    0          -4000                      #  (EXECUTED AS READ)
000236: 05,3431           54001                          TS       L
000237: 05,3432           00006                          TC       6                                     #  (EXECUTED AS EXTEND)
000238: 05,3433           50336                          INDEX    DNECADR
000239: 05,3434           43777                          INDEX    0          -4001                      #  (EXECUTED AS READ)
000240: 05,3435           54336                          TS       DNECADR                               #  SET DNECADR
000241: 05,3436           37716                          CA       NEGONE                                #         TO MINUS
000242: 05,3437           56336                          XCH      DNECADR                               #                 WHILE PRESERVING A.
000243: 05,3440           13535                          TCF      DNTMEXIT                              #  GO SEND CHANNELS
000244:
000245: 05,3441           44704        WOZERO            CS       BIT7
000246: 05,3442           00006                          EXTEND
000247:                                                                                                 #  Page 1080
000248: 05,3443           03013                          WAND     CHAN13                                #  SET WORD ORDER CODE TO ZERO
000249: 05,3444           00002                          TC       Q                                     #  RETURN TO CALLER
000250:
000251: 05,3445           50336        DODNPTR           INDEX    DNECADR                               #  DNECADR CONTAINS ADRES OF SUBLIST
000252: 05,3446           00000                          0        0                                     #  CLEAR AND ADD LIST ENTRY INTO A.
000253: 05,3447           10000                          CCS      A                                     #  IS THIS A SNAPSHOT SUBLIST
000254: 05,3450           30336                          CA       DNECADR                               #  NO, IT IS A REGULAR SUBLIST.
000255: 05,3451           13521                          TCF      DOSUBLST                              #  A MUST NOT BE ZERO.
000256:
000257: 05,3452           56336                          XCH      DNECADR                               #  YES.  IT IS A SNAPSHOT SUBLIST.
000258: 05,3453           54337                          TS       SUBLIST                               #  C(DNECADR) INTO SUBLIST
000259: 05,3454           34714                          CAF      ZERO                                  #         A    INTO     A
000260: 05,3455           56336                          XCH      TMINDEX                               #  (NOTE:  TMINDEX = DNECADR)
000261:
000262:                                                                                                 #  THE FOLLOWING CODING (FROM SNAPLOOP TO SNAPEND) IS FOR THE PURPOSE OF TAKING A SNAPSHOT OF 12 DP REGISTERS.
000263:                                                                                                 #  THIS IS DONE BY SAVING 11 DP REGISTERS IN DNTMBUFF AND SENDING THE FIRST DP WORD IMMEDIATELY.
000264:                                                                                                 #  THE SNAPSHOT PROCESSING IS THE MOST TIME CONSUMING AND THEREFORE THE CODING AND LIST STRUCTURE WERE DESIGNED
000265:                                                                                                 #  TO MINIMIZE TIME.  THE TIME OPTIMIZATION RESULTS IN RULES UNIQUE TO THE SNAPSHOT PORTION OF THE DOWNLIST.
000266:                                                                                                 #  THESE RULES ARE ......
000267:                                                                                                 #         1.      ONLY 1DNADR'S CAN APPEAR IN THE SNAPSHOT SUBLIST
000268:                                                                                                 #         2.      THE 1DNADR'S CANNOT REFER TO THE FIRST LOCATION IN ANY BANK.
000269:
000270: 05,3456           54003        SNAPLOOP          TS       EBANK                                 #  SET EBANK
000271: 05,3457           74373                          MASK     LOW8                                  #  ISOLATE RELATIVE ADDRESS
000272: 05,3460           00006                          EXTEND
000273: 05,3461           50000                          INDEX    A
000274: 05,3462  E3,1401                                 EBANK=   1401
000275: 05,3462           31402                          DCA      1401                                  #  PICK UP 2 SNAPSHOT WORDS.
000276: 05,3463     0340                                 EBANK=   DNTMBUFF
000277: 05,3463           50336                          INDEX    TMINDEX
000278: 05,3464           52341                          DXCH     DNTMBUFF                              #  STORE 2 SNAPSHOT WORDS IN BUFFER
000279: 05,3465           24336                          INCR     TMINDEX                               #  SET BUFFER INDEX FOR NEXT 2 WORDS.
000280: 05,3466           24336                          INCR     TMINDEX
000281: 05,3467           24337        SNAPAGN           INCR     SUBLIST                               #  SET POINTER TO NEXT 2 WORDS OF SNAPSHOT
000282: 05,3470           50337                          INDEX    SUBLIST
000283: 05,3471           00000                          0        0                                     #  = CA SSSS (SSSS = NEXT ENTRY IN SUBLIST)
000284: 05,3472           10000                          CCS      A                                     #  TEST FOR LAST TWO WORDS OF SNAPSHOT.
000285: 05,3473           13456                          TCF      SNAPLOOP                              #  NOT LAST TWO.
000286: 05,3474           03357        LDNPHAS2          GENADR   DNPHASE2
000287: 05,3475           54337                          TS       SUBLIST                               #  YES, LAST.  SAVE A.
000288: 05,3476           37716                          CA       NEGONE                                #  SET DNECADR AND
000289: 05,3477           54336                          TS       DNECADR                               #         SUBLIST POINTERS
000290: 05,3500           56337                          XCH      SUBLIST                               #                 TO NEGATIVE VALUES
000291: 05,3501           54003                          TS       EBANK
000292: 05,3502           74373                          MASK     LOW8
000293: 05,3503           00006                          EXTEND
000294: 05,3504           50000                          INDEX    A
000295: 05,3505  E3,1401                                 EBANK=   1401
000296:                                                                                                 #  Page 1081
000297: 05,3505           31402                          DCA      1401                                  #  PICK UP FIRST 2 WORDS OF SNAPSHOT.
000298: 05,3506     0340                                 EBANK=   DNTMBUFF
000299: 05,3506           13535        SNAPEND           TCF      DNTMEXIT                              #  NOW TO SEND THEM.
000300:
000301: 05,3507           30336        FETCH2WD          CA       DNECADR
000302: 05,3510           54003                          TS       EBANK                                 #  SET EBANK
000303: 05,3511           74373                          MASK     LOW8                                  #  ISOLATE RELATIVE ADDRESS
000304: 05,3512           54001                          TS       L
000305: 05,3513           33365                          CA       DNADRDCR                              #  DECREMENT COUNT AND ECADR
000306: 05,3514           26336                          ADS      DNECADR
000307: 05,3515           00006                          EXTEND
000308: 05,3516           50001                          INDEX    L
000309: 05,3517  E3,1400                                 EBANK=   1400
000310: 05,3517           31401                          DCA      1400                                  #  PICK UP 2 DATA WORDS
000311: 05,3520     0340                                 EBANK=   DNTMBUFF
000312: 05,3520           13535                          TCF      DNTMEXIT                              #  NOW GO SEND THEM.
000313:
000314: 05,3521           54337        DOSUBLST          TS       SUBLIST                               #  SET SUBLIST POINTER
000315: 05,3522           50337        NEXTINSL          INDEX    SUBLIST
000316: 05,3523           00000                          0        0                                     #  = CA SSSS (SSSS = NEXT ENTRY IN SUBLIST)
000317: 05,3524           10000                          CCS      A                                     #  IS IT THE END OF THE SUBLIST
000318: 05,3525           24337                          INCR     SUBLIST                               #  NO --
000319: 05,3526           13532                          TCF      +4
000320: 05,3527           54337                          TS       SUBLIST                               #  SAVE A.
000321: 05,3530           37716                          CA       NEGONE                                #  SET SUBLIST TO MINUS
000322: 05,3531           56337                          XCH      SUBLIST                               #  RETRIEVE A.
000323: 05,3532           24000                 +4       INCR     A
000324: 05,3533           54336                          TS       DNECADR                               #  SAVE DNADR
000325: 05,3534           13420                          TCF      SETWO      +2                         #  GO USE COMMON CODING (PROLEMS WOULD
000326:                                                                                                 #  OCCUR IF THE PROGRAM ENCOUNTERED A
000327:                                                                                                 #  DNPTR NOW)
000328:
000329: 05,3535           00006        DNTMEXIT          EXTEND                                         #  DOWN-TELEMETRY EXIT
000330: 05,3536           01034                          WRITE    DNTM1                                 #  TO SEND A + L TO CHANNELS 34 + 35
000331: 05,3537           30001                          CA       L                                     #  RESPECTIVELY
000332: 05,3540           00006        TMEXITL           EXTEND
000333: 05,3541           01035                          WRITE    DNTM2
000334: 05,3542           15222        TMRESUME          TCF      RESUME                                #  EXIT TELEMTRY PROGRAM VIA RESUME.
000335:
000336: 05,3543     7710               MINB12            EQUALS   -1/8
000337: 05,3543     0336               DNECADR           EQUALS   TMINDEX
000338: 05,3543     0334               CTLIST            EQUALS   LDATALST
000339: 05,3543     0337               SUBLIST           EQUALS   DNQ
000340:
000341:                                                                                                 #  Page 1082
000342:                                                                                                 #  SUBROUTINE NAME -- DNDUMP
000343:
000344:                                                                                                 #  FUNCTIONAL DESCRIPTION -- TO SEND (DUMP) ALL 8 BANKS OF ERASABLE STORAGE TWICE.  BANKS ARE SENT ONE AT A TIME
000345:                                                                                                 #         EACH BANK IS PRECEDED BY AN ID WORD, SYNCH BITS, ECADR AND TIME1 FOLLOWED BY THE 256D WORDS OF EACH
000346:                                                                                                 #         EBANK.  EBANKS ARE DUMPED IN ORDER (I.E., EBANK 0 FIRST, THEN EBANK1 ETC.)
000347:
000348:                                                                                                 #  CALLING SEQUENCE -- THE GROUND OR ASTRONAUT BY KEYING V74E CAN INITIALIZE THE DUMP.
000349:                                                                                                 #         AFTER KEYING IN V74E THE CURRENT DOWNLIST WILL BE IMMEDIATELY TERMINATED AND THE DOWNLINK ERASABLE DUMP
000350:                                                                                                 #         WILL BEGIN.
000351:
000352:                                                                                                 #         ONCE INITITIATED THE DOWNLINK ERASABLE DUMP CAN BE TERMINATED (AND INTERRUPTED DOWNLIST REINSTATED) ONLY
000353:                                                                                                 #         BY THE FOLLOWING:
000354:
000355:                                                                                                 #         1.      A FRESH START
000356:                                                                                                 #         2.      COMPLETION OF ALL DOWNLINK DUMPS REQUESTED (ACCORDING TO BITS SET IN DUMPCNT).  NOTE THAT DUMPCNT
000357:                                                                                                 #                 CAN BE ALTERED BY A V21N01.
000358:                                                                                                 #         3.      AND INVOLUNTARILY BY A RESTART.
000359:
000360:                                                                                                 #  NORMAL EXIT MODE -- TCF DNPHASE1
000361:
000362:                                                                                                 #  ALARM OR ABORT MODE -- NONE
000363:
000364:                                                                                                 #  *SUBROUTINES CALLED -- NONE
000365:
000366:                                                                                                 #  ERASABLE INITIALIZATION REQUIRED --
000367:                                                                                                 #         DUMPCNT OCT 20000       IF 4 COMPLETE ERASABLE DUMPS ARE DESIRED
000368:                                                                                                 #         DUMPCNT OCT 10000       IF 2 COMPLETE ERASABLE DUMPS ARE DESIRED
000369:                                                                                                 #         DUMPCNT OCT 04000       IF 1 COMPLETE ERASABLE DUMP  IS  DESIRED
000370:
000371:                                                                                                 #  DEBRIS -- DUMPLOC, DUMPSW, DNTMGOTO, EBANK, AND CENTRAL REGISTERS
000372:
000373:                                                                                                 #  TIMING --      TIME (IN SECS) = ((NO.DUMPS)*(NO.EBANKS)*(WDSPEREBANK + NO.IDWDS)) / NO.WDSPERSEC
000374:                                                                                                 #                 TIME (IN SECS) =  (   4    )*(    8    )*(    256     +     4   )  /     100
000375:                                                                                                 #            THUS TIME (IN SECS TO SEND DUMP OF ERASABLE 4 TIMES VIA DOWNLINK) = 83.2 SECONDS
000376:
000377:                                                                                                 #  STRUCTURE OF ONE EBANK AS IT IS SENT BY DOWNLINK PROGRAM --
000378:                                                                                                 #         (REMINDER -- THIS ONLY DESCRIBES ONE OF THE 8 EBANKS X 4 (DUMPS) = 32 EBANKS WHICH WILL BE SENT BY DNDUMP)
000379:
000380:                                                                                                 #         DOWNLIST                                W
000381:                                                                                                 #           WORD  TAKEN FROM CONTENTS OF  EXAMPLE O       COMMENTS
000382:                                                                                                 #             1   ERASID                   0177X  0       DOWNLIST I.D. FOR DOWNLINK ERASABLE DUMP (X=7 CSM, 6 LM)
000383:                                                                                                 #             2   LOWIDCOD                 77340  1       DOWNLINK SYNCH BITS.  (SAME ONE USED IN ALL OTHER DOWNLISTS)
000384:                                                                                                 #             3   DUMPLOC                  13400  1       (SEE NOTES ON DUMPLOC) 1 = 3RD ERAS DUMP, 3400=ECADR OF 5TH WD
000385:                                                                                                 #             4   TIME1                    14120  1       TIME IN CENTISECONDS
000386:                                                                                                 #             5   FIRST WORD OF EBANK X    03400  1       IN THIS EXAMPLE THIS WORD = CONTENTS OF E7,1400 (ECADR 3400)
000387:                                                                                                 #             6   2ND   WORD OF EBANK X    00142  1       IN THIS EXAMPLE THIS WORD = CONTENTS OF E7,1401 (ECADR 3401)
000388:                                                                                                 #             7.  3RD   WORD OF EBANK X    00142  1       IN THIS EXAMPLE THIS WORD = CONTENTS OF E7,1402 (ECADR 3402)
000389:                                                                                                 #             .
000390:                                                                                                 #             .
000391:                                                                                                 #             .
000392:                                                                                                 #          260D   256TH WORD OF EBANK X    03777  1       IN THIS EXAMPLE THIS WORD = CONTENTS OF E7,1777 (ECADR 3777)
000393:
000394:                                                                                                 #  NOTE --        DUMPLOC CONTAINS THE COUNTER AND ECADR FOR EACH WORD BEING SENT.
000395:                                                                                                 #                 THE BIT STRUCTURE OF DUMPLOC IS FOLLOW --
000396:                                                                                                 #                                                 X = NOT USED
000397:                                                                                                 #                 X ABC EEE RRRRRRRR            ABC = ERASABLE DUMP COUNTER (I.E. ABC = 0,1,2, OR 3 WHICH MEANS THAT
000398:                                                                                                 #                                                     COMPLETE ERASABLE DUMP NUMBER 1,2,3, OR 4 RESPECTIVELY IS IN PROGRESS)
000399:                                                                                                 #                                               EEE = EBANK BITS
000400:                                                                                                 #                                          RRRRRRRR = RELATIVE ADDRESS WITHIN AN EBANK
000401:
000402:                                                                                                 #  Page 1083
000403: 05,3543           34714        DNDUMPI           CA       ZERO                                  #  INITIALIZE DOWNLINK
000404: 05,3544           54336                          TS       DUMPLOC                               #  ERASABLE DUMP
000405: 05,3545           03607                 +2       TC       SENDID                                #  GO SEND ID AND SYNCH BITS
000406: 05,3546           33555                          CA       LDNDUMP1                              #  SET DNTMGOTO
000407: 05,3547           54335                          TS       DNTMGOTO                              #  TO LOCATION FOR NEXT PASS
000408: 05,3550           30025                          CA       TIME1                                 #  PLACE TIME1
000409: 05,3551           56001                          XCH      L                                     #  INTO L
000410: 05,3552           30336                          CA       DUMPLOC                               #  AND ECADR OF THIS EBANK INTO A
000411: 05,3553           13535                          TCF      DNTMEXIT                              #  SEND DUMPLOC AND TIME1
000412:
000413: 05,3554           03556        LDNDUMP           ADRES    DNDUMP
000414: 05,3555           03571        LDNDUMP1          ADRES    DNDUMP1
000415:
000416: 05,3556           34711        DNDUMP            CA       TWO                                   #  INCREMENT ECADR IN DUMPLOC
000417: 05,3557           26336                          ADS      DUMPLOC                               #  TO NEXT DP WORD TO BE
000418: 05,3560           74373                          MASK     LOW8                                  #  DUMPED AND SAVE IT.
000419: 05,3561           10000                          CCS      A                                     #  IS THIS THE BEGINNING OF A NEW EBANK
000420: 05,3562           13573                          TCF      DNDUMP2                               #  NO -- THEN CONTINUE DUMPING
000421: 05,3563           30336                          CA       DUMPLOC                               #  YES -- IS THIS THE END OF THE
000422: 05,3564           70333                          MASK     DUMPCNT                               #  N-TH(N = 1 TO 4) COMPLETE ERASABLE
000423: 05,3565           77671                          MASK     PRIO34                                #  DUMP(BIT14 FOR 4, BIT13 FOR 2 OR BIT12
000424: 05,3566           10000                          CCS      A                                     #  FOR 1 COMPLETE ERASABLE DUMP(S)).
000425: 05,3567           13351                          TCF      DNPHASE1                              #  YES -- SEND DOWNLIST AGAIN
000426:                                                                                                 #  AGAIN
000427: 05,3570           13545                          TCF      DNDUMPI    +2                         #  NO -- GO BACK AND INITIALZE NEXT BANK
000428:
000429: 05,3571           33554        DNDUMP1           CA       LDNDUMP                               #  SET DNTMGOTO
000430: 05,3572           54335                          TS       DNTMGOTO                              #  FOR WORDS 3 TO 256D OF CURRENT EBANK
000431:
000432: 05,3573           30336        DNDUMP2           CA       DUMPLOC
000433: 05,3574           54003                          TS       EBANK                                 #  SET EBANK
000434: 05,3575           74373                          MASK     LOW8                                  #  ISOLATE RELATIVE ADDRESS.
000435: 05,3576           54002                          TS       Q                                     #  (NOTE: MASK INSTRUCTION IS USED TO PICK
000436: 05,3577           34713                          CA       NEG0                                  #  UP ERASABLE REGISTERS TO THAT EDITING
000437: 05,3600           54001                          TS       L                                     #  REGISTERS 20-23 WILL NOT BE ALTERED.)
000438: 05,3601           50002                          INDEX    Q
000439: 05,3602  E3,1400                                 EBANK=   1400                                  #  PICK UP LOW ORDER REGISTER OF PAIR
000440: 05,3602           71401                          MASK     1401                                  #  OF ERASABLE REGISTERS.
000441: 05,3603           56001                          XCH      L
000442: 05,3604           50002                          INDEX    Q                                     #  PICK UP HIGH ORDER REGISTER OF PAIR
000443: 05,3605           71400                          MASK     1400                                  #  OF ERASABLE REGISTERS.
000444: 05,3606     0340                                 EBANK=   DNTMBUFF
000445: 05,3606           13535                          TCF      DNTMEXIT                              #  GO SEND THEM
000446:
000447: 05,3607           00006        SENDID            EXTEND                                         #  ** ENTRANCE USED BY ERASABLE DUMP PROG. **
000448: 05,3610           22335                          QXCH     DNTMGOTO                              #  SET DNTMGOTO SO NEXT TIME PROG WILL GO
000449: 05,3611           34747                          CAF      ERASID                                #  TO LOCATION FOLLOWING `TC SENDID'
000450:
000451: 05,3612           54001                          TS       L                                     #  ** ENTRANCE USED BY REGULAR DOWNLINK PG **
000452:                                                                                                 #  Page 1084
000453: 05,3613           03441                          TC       WOZERO                                #  GO SET WORD ORDER CODE TO ZERO
000454: 05,3614           32000                          CAF      LOWIDCOD                              #  PLACE SPECIAL ID CODE INTO L
000455: 05,3615           56001                          XCH      L                                     #  AND ID BACK INTO A
000456: 05,3616           13535                          TCF      DNTMEXIT                              #  SEND DOWNLIST ID CODE(S).
000457:
000458:
000459:

End of include-file DOWN-TELEMETRY_PROGRAM.agc.  Parent file is MAIN.agc


