
Source Code


000002:                                                                                                  #  Copyright:    Public domain.
000003:                                                                                                  #  Filename:     DOWNLINK_LISTS.agc
000004:                                                                                                  #  Purpose:      Part of the source code for Colossus, build 249.
000005:                                                                                                  #                It is part of the source code for the Command Module's (CM)
000006:                                                                                                  #                Apollo Guidance Computer (AGC), possibly for Apollo 8 and 9.
000007:                                                                                                  #  Assembler:    yaYUL
000008:                                                                                                  #  Reference:    pp. 168-178 of 1701.pdf.
000009:                                                                                                  #  Contact:      Ron Burkey <info@sandroid.org>.
000010:                                                                                                  #  Website:      www.ibiblio.org/apollo.
000011:                                                                                                  #  Mod history:  08/07/04 RSB.   Adapted from similar Luminary 131 file.
000012:
000013:                                                                                                  #  The contents of the "Colossus249" files, in general, are transcribed
000014:                                                                                                  #  from a scanned document obtained from MIT's website,
000015:                                                                                                  #  http://hrst.mit.edu/hrs/apollo/public/archive/1701.pdf.  Notations on this
000016:                                                                                                  #  document read, in part:
000017:
000018:                                                                                                  #        Assemble revision 249 of AGC program Colossus by NASA
000019:                                                                                                  #        2021111-041.  October 28, 1968.
000020:
000021:                                                                                                  #        This AGC program shall also be referred to as
000022:                                                                                                  #                                Colossus 1A
000023:
000024:                                                                                                  #        Prepared by
000025:                                                                                                  #                        Massachusetts Institute of Technology
000026:                                                                                                  #                        75 Cambridge Parkway
000027:                                                                                                  #                        Cambridge, Massachusetts
000028:                                                                                                  #        under NASA contract NAS 9-4065.
000029:
000030:                                                                                                  #  Refer directly to the online document mentioned above for further information.
000031:                                                                                                  #  Please report any errors (relative to 1701.pdf) to info@sandroid.org.
000032:
000033:                                                                                                  #  In some cases, where the source code for Luminary 131 overlaps that of
000034:                                                                                                  #  Colossus 249, this code is instead copied from the corresponding Luminary 131
000035:                                                                                                  #  source file, and then is proofed to incorporate any changes.
000036:
000037:                                                                                                  #  Page 168
000038: 22,2000                                           BANK     22
000039: 05,2000                                           SETLOC   DOWNTELM
000040: 05,2000                                           BANK
000041:
000042: 05,2000     0340                                  EBANK=   DNTMBUFF
000043:
000044:                                                                                                  #  SPECIAL DOWNLINK OP CODES
000045:                                                                                                  #        OP CODE         ADDRESS (EXAMPLE)       SENDS...                BIT 15          BITS 14-12      BITS 11-0
000046:                                                                                                  #        -------         -----------------       --------                ------          ----------      ---------
000047:                                                                                                  #        1DNADR          TIME2                   (2 AGC WDS)             0               0               ECADR
000048:                                                                                                  #        2DNADR          TEPHEM                  (4 AGC WDS)             0               1               ECADR
000049:                                                                                                  #        3DNADR          VGBODY                  (6 AGC WDS)             0               2               ECADR
000050:                                                                                                  #        4DNADR          STATE                   (8 AGC WDS)             0               3               ECADR
000051:                                                                                                  #        5DNADR          UPBUFF                  (10 AGC WDS)            0               4               ECADR
000052:                                                                                                  #        6DNADR          DSPTAB                  (12 AGC WDS)            0               5               ECADR
000053:                                                                                                  #        DNCHAN          30                      CHANNELS                0               7               CHANNEL
000054:                                                                                                  #                                                                                                        ADDRESS
000055:                                                                                                  #        DNPTR           NEXTLIST                POINTS TO NEXT          0               6               ADRES
000056:                                                                                                  #                                                LIST
000057:
000058:                                                                                                  #  DOWNLIST FORMAT DEFINITIONS AND RULES --
000059:                                                                                                  #  1. END OF A LIST = -XDNADR (X = 1 TO 6), -DNPTR, OR -DNCHAN.
000060:                                                                                                  #  2. SNAPSHOT SUBLIST = LIST WHICH STARTS WITH A -1DNADR.
000061:                                                                                                  #  3. SNAPSHOT SUBLIST CAN ONLY CONTAIN 1DNADRS.
000062:                                                                                                  #  4. TIME2 1DNADR MUST BE LOCATED IN THE CONTROL LIST OF A DOWNLIST.
000063:                                                                                                  #  5. ERASABLE DOWN TELEMETRY WORDS SHOULD BE GROUPED IN SEQUENTIAL
000064:                                                                                                  #     LOCATIONS AS MUCH AS POSSIBLE TO SAVE STORAGE USED BY DOWNLINK LISTS.
000065:                                                                                                  #  6. THE DOWNLINK LISTS (INCLUDING SUBLISTS) ARE ORGANIZED SUCH THAT THE ITEMS LISTED FIRST (IN FRONT OF FRANK) ARE
000066:                                                                                                  #     SENT FIRST.  EXCEPTION--- SNAPSHOT SUBLISTS.  IN THE SNAPSHOT SUBLISTS THE DATA REPRESENTED BY THE FIRST
000067:                                                                                                  #     11 1DNADRS IS PRESERVED (IN ORDER) IN DNTMBUFF AND SENT BY THE NEXT 11 DOWNRUPTS.  THE DATA REPRESENTED BY THE
000068:                                                                                                  #     LIST IS SENT IMMEDIATELY.
000069:
000070: 05,2000                                           COUNT    05/DLIST
000071: 05,2000                        ERASZERO           EQUALS   7
000072: 05,2000  0000007               SPARE              EQUALS   ERASZERO                              #  USE SPARE TO INDICATE AVAILABLE SPACE
000073: 05,2000           77340        LOWIDCOD           OCT      77340                                 #  LOW ID CODE
000074: 05,2001  05,2113               NOMDNLST           EQUALS   CMCSTADL                              #  FRESH START AND POST P27 DOWNLIST
000075: 05,2001  05,2214               UPDNLIST           EQUALS   CMENTRDL                              #  UPDATE PROGRAM (P27) DOWNLIST
000076:
000077:                                                                                                  #  Page 169
000078:                                                                                                  #  CSM POWERED FLIGHT DOWNLIST
000079:
000080:                                                                                                  #  --------------------- CONTROL LIST -------------------------
000081:
000082: 05,2001                        CMPOWEDL           EQUALS
000083: 05,2001           32047                           DNPTR    CMPOWE01                              #  COLLECT SNAPSHOT
000084: 05,2002           24340                           6DNADR   DNTMBUFF                              #  SEND SNAPSHOT
000085: 05,2003           32056                           DNPTR    CMPOWE02                              #  COLLECT SECOND SNAPSHOT
000086: 05,2004           14340                           4DNADR   DNTMBUFF                              #  SEND SNAPSHOT
000087: 05,2005           32063                           DNPTR    CMPOWE03                              #  COMMON DATA
000088: 05,2006           03412                           1DNADR   TIG                                   #  TIG,+1
000089: 05,2007           03422                           1DNADR   DELLT4                                #  DELLT4,+1
000090: 05,2010           13414                           3DNADR   RTARG                                 #  RTARG,+1...+5
000091: 05,2011           03427                           1DNADR   TGO                                   #  TGO,+1
000092: 05,2012           01245                           1DNADR   PIPTIME1                              #  PIPTIME1,+1
000093: 05,2013           11162                           3DNADR   DELV                                  #  DELV,+1,...,+4,+5
000094: 05,2014           03025                           1DNADR   PACTOFF                               #  PACTOFF,YACTOFF
000095: 05,2015           03231                           1DNADR   PCMD                                  #  PCMD,YCMD
000096: 05,2016           03702                           1DNADR   CSTEER                                #  CSTEER,+1
000097: 05,2017           00007                           1DNADR   SPARE
000098: 05,2020           00007                           1DNADR   SPARE
000099: 05,2021           00007                           1DNADR   SPARE
000100: 05,2022           25735                           6DNADR   REFSMMAT                              #  REFSMMAT +0...+11D
000101: 05,2023           32065                           DNPTR    CMPOWE04                              #  COMMON DATA
000102: 05,2024           00024                           1DNADR   TIME2                                 #  TIME2/1
000103: 05,2025           32067                           DNPTR    CMPOWE05                              #  COMMON DATA
000104: 05,2026           24340                           6DNADR   DNTMBUFF                              #  SEND SNAPSHOT
000105: 05,2027           32056                           DNPTR    CMPOWE02                              #  COLLECT SNAPSHOT
000106: 05,2030           14340                           4DNADR   DNTMBUFF                              #  SEND SNAPSHOT
000107: 05,2031           32063                           DNPTR    CMPOWE03
000108: 05,2032           32076                           DNPTR    CMPOWE06                              #  COMMON DATA
000109: 05,2033           03743                           1DNADR   ELEV                                  #  ELEV,+1
000110: 05,2034           03753                           1DNADR   CENTANG                               #  CENTANG,+1
000111: 05,2035           02610                           1DNADR   DELTAR                                #  DELTAR,+1
000112: 05,2036           00106                           1DNADR   STATE      +10D                       #  FLAGWORDS 10 AND 11
000113: 05,2037           01336                           1DNADR   TEVENT                                #  TEVENT,+1
000114: 05,2040           03231                           1DNADR   PCMD                                  #  PCMD,YCMD
000115: 05,2041           01331                           1DNADR   OPTMODES                              #  OPTMODES,HOLDFLAG
000116: 05,2042           32101                           DNPTR    CMPOWE07                              #  COMMON DATA
000117: 05,2043           13720                           3DNADR   VGTIG                                 #  VGTIG,+1,...,+4,+5
000118: 05,2044           00007                           1DNADR   SPARE
000119: 05,2045           00007                           1DNADR   SPARE
000120: 05,2046           77770                           -1DNADR  SPARE
000121:
000122:                                                                                                  #  --------------------- SUB LISTS ---------------------------
000123:
000124: 05,2047           76605        CMPOWE01           -1DNADR  RN         +2                         #  RN +2,+3                      SNAPSHOT DATA
000125: 05,2050           01174                           1DNADR   RN         +4                         #  RN +4,+5
000126: 05,2051           01176                           1DNADR   VN                                    #  VN, +1
000127: 05,2052           01200                           1DNADR   VN         +2                         #  VN +2,+3
000128:                                                                                                  #  Page 170
000129: 05,2053           01202                           1DNADR   VN         +4                         #  VN +4,+5
000130: 05,2054           01204                           1DNADR   PIPTIME                               #  PIPTIME, +1
000131: 05,2055           76607                           -1DNADR  RN                                    #  RN, +1
000132:
000133: 05,2056           77743        CMPOWE02           -1DNADR  CDUZ                                  #  CDUZ,CDUT                     SNAPSHOT DATA
000134: 05,2057           03133                           1DNADR   ADOT                                  #  ADOT,+1/OGARATE,+1
000135: 05,2060           03135                           1DNADR   ADOT       +2                         #  ADOT+2,+3/OMEGAB+2,+3
000136: 05,2061           03137                           1DNADR   ADOT       +4                         #  ADOT+4,+5/OMEGAB+4,+5
000137: 05,2062           77745                           -1DNADR  CDUX                                  #  CDUX,CDUY
000138:
000139: 05,2063           07076        CMPOWE03           2DNADR   AK                                    #  AK,AK1,AK2,RCSFLAGS           COMMON DATA
000140: 05,2064           70605                           -2DNADR  THETADX                               #  THETADX,THETADY,THETADZ,GARBAGE
000141:
000142: 05,2065           20074        CMPOWE04           5DNADR   STATE                                 #  FLAGWORD0 THRU FLAGWRD9       COMMON DATA
000143: 05,2066           52754                           -6DNADR  DSPTAB                                #  DISPLAY TABLES
000144:
000145: 05,2067           76054        CMPOWE05           -1DNADR  R-OTHER    +2                         #  R-OTHER+2,+3                  SNAPSHOT DATA
000146: 05,2070           01725                           1DNADR   R-OTHER    +4                         #  R-OTHER+4,+5
000147: 05,2071           01727                           1DNADR   V-OTHER                               #  V-OTHER,+1
000148: 05,2072           01731                           1DNADR   V-OTHER    +2                         #  V-OTHER+2,+3
000149: 05,2073           01733                           1DNADR   V-OTHER    +4                         #  V-OTHER+4,+5
000150: 05,2074           01642                           1DNADR   T-OTHER                               #  T-OTHER,+1
000151: 05,2075           76056                           -1DNADR  R-OTHER                               #  R-OTHER,+1
000152:
000153: 05,2076           01432        CMPOWE06           1DNADR   RSBBQ                                 #  RSBBQ,+1                      COMMON DATA
000154: 05,2077           10372                           3DNADR   CADRFLSH                              #  CADRFLSH,+1,+2,FAILREG,+1,+2
000155: 05,2100           73741                           -2DNADR  CDUS                                  #  CDUS,PIPAX,PIPAY,PIPAZ
000156:
000157: 05,2101           03073        CMPOWE07           1DNADR   LEMMASS                               #  LEMMASS,CSMMASS               COMMON DATA
000158: 05,2102           03066                           1DNADR   DAPDATR1                              #  DAPDATR1,DAPDATR2
000159: 05,2103           07167                           2DNADR   ERRORX                                #  ERRORX,ERRORY,ERRORZ,GARBAGE
000160: 05,2104           13125                           3DNADR   WBODY                                 #  WBODY,...+5/OMEGAC,...+5
000161: 05,2105           05154                           2DNADR   REDOCTR                               #  REDOCTR,THETAD,+1,+2
000162: 05,2106           01320                           1DNADR   IMODES30                              #  IMODES30,IMODES33
000163: 05,2107           34011                           DNCHAN   11                                    #  CHANNELS 11,12
000164: 05,2110           34013                           DNCHAN   13                                    #  CHANNELS 13,14
000165: 05,2111           34030                           DNCHAN   30                                    #  CHANNELS 30,31
000166: 05,2112           43745                           -DNCHAN  32                                    #  CHANNELS 32,33
000167:
000168:                                                                                                  #  -----------------------------------------------------------
000169:                                                                                                  #  Page 171
000170:                                                                                                  #  CSM COAST AND ALIGNMENT DOWNLIST
000171:
000172:                                                                                                  #  --------------------- CONTROL LIST ------------------------
000173:
000174: 05,2113                        CMCSTADL           EQUALS                                         #  SEND ID BY SPECIAL CODING
000175: 05,2113           32047                           DNPTR    CMCSTA01                              #  COLLECT SNAPSHOT
000176: 05,2114           24340                           6DNADR   DNTMBUFF                              #  SEND SNAPSHOT
000177: 05,2115           32056                           DNPTR    CMCSTA02                              #  COLLECT SECOND SNAPSHOT
000178: 05,2116           14340                           4DNADR   DNTMBUFF                              #  SEND SNAPSHOT
000179: 05,2117           32063                           DNPTR    CMCSTA03                              #  COMMON DATA
000180: 05,2120           03412                           1DNADR   TIG                                   #  TIG,+1
000181: 05,2121           00302                           1DNADR   BESTI                                 #  BESTI,BESTJ
000182: 05,2122           17674                           4DNADR   MARKDOWN                              #  MARKDOWN,+1,...+5,+6,GARBAGE
000183: 05,2123           17502                           4DNADR   MARK2DWN                              #  MARK2DWN,+1,...+5,+6
000184: 05,2124           06363                           2DNADR   HAPO                                  #  HAPO,+1,HPER,+1
000185: 05,2125           02355                           1DNADR   RSP-RREC                              #  RSP-RREC,+1
000186: 05,2126           13720                           3DNADR   VGTIG                                 #  VGTIG,...+5
000187: 05,2127           25735                           6DNADR   REFSMMAT                              #  REFSMMAT,+1,...+10,+11
000188: 05,2130           32065                           DNPTR    CMCSTA04                              #  COMMON DATA
000189: 05,2131           00024                           1DNADR   TIME2                                 #  TIME2,TIME1
000190: 05,2132           32067                           DNPTR    CMCSTA05                              #  COLLECT SNAPSHOT
000191: 05,2133           24340                           6DNADR   DNTMBUFF                              #  SEND SNAPSHOT
000192: 05,2134           32056                           DNPTR    CMCSTA02                              #  COLLECT SNAPSHOT
000193: 05,2135           14340                           4DNADR   DNTMBUFF                              #  SEND SNAPSHOT
000194: 05,2136           32063                           DNPTR    CMCSTA03                              #  COMMON DATA
000195: 05,2137           32076                           DNPTR    CMCSTA06                              #  COMMON DATA
000196: 05,2140           12757                           3DNADR   OGC                                   #  OGC,+1,IGC,+1,MGC,+1
000197: 05,2141           00106                           1DNADR   STATE      +10D                       #  FLAGWRDS 10 AND 11
000198: 05,2142           01336                           1DNADR   TEVENT                                #  TEVENT,+1
000199: 05,2143           02633                           1DNADR   LAUNCHAZ                              #  LAUNCHAZ,+1
000200: 05,2144           01331                           1DNADR   OPTMODES                              #  OPTMODES,HOLDFLAG
000201: 05,2145           32101                           DNPTR    CMCSTA07                              #  COMMON DATA
000202: 05,2146           52754                           -6DNADR  DSPTAB                                #  DISPLAY TABLES
000203:
000204:                                                                                                  #  --------------------- SUB LISTS ---------------------------
000205:
000206: 05,2147  05,2047               CMCSTA01           EQUALS   CMPOWE01                              #  COMMON DOWNLIST DATA
000207:
000208: 05,2147  05,2056               CMCSTA02           EQUALS   CMPOWE02                              #  COMMON DOWNLIST DATA
000209:
000210: 05,2147  05,2063               CMCSTA03           EQUALS   CMPOWE03                              #  COMMON DOWNLIST DATA
000211:
000212: 05,2147  05,2065               CMCSTA04           EQUALS   CMPOWE04                              #  COMMON DOWNLIST DATA
000213:
000214: 05,2147  05,2067               CMCSTA05           EQUALS   CMPOWE05                              #  COMMON DOWNLIST DATA
000215:
000216: 05,2147  05,2076               CMCSTA06           EQUALS   CMPOWE06                              #  COMMON DOWNLIST DATA
000217:
000218: 05,2147  05,2101               CMCSTA07           EQUALS   CMPOWE07                              #  COMMON DOWNLIST DATA
000219:
000220:                                                                                                  #  Page 172
000221:                                                                                                  #  -----------------------------------------------------------
000222:                                                                                                  #  Page 173
000223:                                                                                                  #  CSM RENDEZVOUS AND PRETHRUST LIST
000224:
000225:                                                                                                  #  --------------------- CONTROL LIST ------------------------
000226:
000227: 05,2147                        CMRENDDL           EQUALS                                         #  SEND ID BY SPECIAL CODING
000228: 05,2147           32047                           DNPTR    CMREND01                              #  COLLECT SNAPSHOT
000229: 05,2150           24340                           6DNADR   DNTMBUFF                              #  SEND SNAPSHOT
000230: 05,2151           32056                           DNPTR    CMREND02                              #  COLLECT SECOND SNAPSHOT
000231: 05,2152           14340                           4DNADR   DNTMBUFF                              #  SEND SNAPSHOT
000232: 05,2153           32063                           DNPTR    CMREND03                              #  COMMON DATA
000233: 05,2154           03412                           1DNADR   TIG                                   #  TIG,+1
000234: 05,2155           03422                           1DNADR   DELLT4                                #  DELLT4,+1
000235: 05,2156           13414                           3DNADR   RTARG                                 #  RTARG,+1,...+4,+5
000236: 05,2157           01151                           1DNADR   VHFTIME                               #  VHFTIME,+1
000237: 05,2160           17674                           4DNADR   MARKDOWN                              #  MARKTIME(DP),YCDU,SCDU,ZCDU,TCDU,XCDU,RM
000238: 05,2161           01125                           1DNADR   VHFCNT                                #  VHFCNT,+1
000239: 05,2162           03662                           1DNADR   TTPI                                  #  TTPI,+1
000240: 05,2163           03424                           1DNADR   ECSTEER                               #  ECSTEER,+1
000241: 05,2164           02636                           1DNADR   DELVTPF                               #  DELVTPF,+1
000242: 05,2165           00007                           1DNADR   SPARE
000243: 05,2166           00007                           1DNADR   SPARE
000244: 05,2167           03655                           1DNADR   TPASS4                                #  TPASS4,+1
000245: 05,2170           13404                           3DNADR   DELVSLV                               #  DELVSLV,+1...+4,+5
000246: 05,2171           06320                           2DNADR   RANGE                                 #  RANGE,+1,RRAGE,+1
000247: 05,2172           32065                           DNPTR    CMREND04                              #  COMMON DATA
000248: 05,2173           00024                           1DNADR   TIME2                                 #  TIME2,TIME1
000249: 05,2174           32067                           DNPTR    CMREND05                              #  COLLECT SNAPSHOT
000250: 05,2175           24340                           6DNADR   DNTMBUFF                              #  SEND SNAPSHOT
000251: 05,2176           32056                           DNPTR    CMREND02                              #  COLLECT SNAPSHOT
000252: 05,2177           14340                           4DNADR   DNTMBUFF                              #  SEND SNAPSHOT
000253: 05,2200           32063                           DNPTR    CMREND03                              #  COMMON DATA
000254: 05,2201           32076                           DNPTR    CMREND06                              #  COMMON DATA
000255: 05,2202           03743                           1DNADR   ELEV                                  #  ELEV,+1
000256: 05,2203           03753                           1DNADR   CENTANG                               #  CENTANG,+1
000257: 05,2204           02610                           1DNADR   DELTAR                                #  DELTAR,+1
000258: 05,2205           13645                           3DNADR   DELVEET3                              #  DELVEET3,+1,...,+4,+5
000259: 05,2206           01331                           1DNADR   OPTMODES                              #  OPTMODES,HOLDFLAG
000260: 05,2207           32101                           DNPTR    CMREND07                              #  COMMON DATA
000261: 05,2210           02324                           1DNADR   RTHETA                                #  RTHETA,+1
000262: 05,2211           07400                           2DNADR   LAT(SPL)                              #  LAT(SPL),LNG(SPL),+1
000263: 05,2212           07766                           2DNADR   VPRED                                 #  VPRED,+1,GAMMABI,+1
000264: 05,2213           77671                           -1DNADR  STATE      +10D                       #  FLAGWRDS 10 AND 11
000265:
000266:                                                                                                  #  --------------------- SUB LISTS ----------------------------
000267:
000268: 05,2214  05,2047               CMREND01           EQUALS   CMPOWE01                              #  COMMON DOWNLIST DATA
000269:
000270: 05,2214  05,2056               CMREND02           EQUALS   CMPOWE02                              #  COMMON DOWNLIST DATA
000271:
000272: 05,2214  05,2063               CMREND03           EQUALS   CMPOWE03                              #  COMMON DOWNLIST DATA
000273:                                                                                                  #  Page 174
000274: 05,2214  05,2065               CMREND04           EQUALS   CMPOWE04                              #  COMMON DOWNLIST DATA
000275:
000276: 05,2214  05,2067               CMREND05           EQUALS   CMPOWE05                              #  COMMON DOWNLIST DATA
000277:
000278: 05,2214  05,2076               CMREND06           EQUALS   CMPOWE06                              #  COMMON DOWNLIST DATA
000279:
000280: 05,2214  05,2101               CMREND07           EQUALS   CMPOWE07                              #  COMMON DOWNLIST DATA
000281:
000282:                                                                                                  #  ------------------------------------------------------------
000283:
000284:                                                                                                  #  Page 175
000285:                                                                                                  #  CSM ENTRY AND UPDATE DOWNLIST
000286:                                                                                                  #  --------------------- CONTROL LIST -------------------------
000287:
000288: 05,2214                        CMENTRDL           EQUALS                                         #  SEND ID BY SPECIAL CODING
000289: 05,2214           32047                           DNPTR    CMENTR01                              #  COLLECT SNAPSHOT
000290: 05,2215           24340                           6DNADR   DNTMBUFF                              #  SEND SNAPSHOT
000291: 05,2216           32056                           DNPTR    CMENTR02                              #  COLLECT SNAPSHOT
000292: 05,2217           14340                           4DNADR   DNTMBUFF                              #  SEND SNAPSHOT
000293: 05,2220           32063                           DNPTR    CMENTR03                              #  COMMON DATA
000294: 05,2221           07300                           2DNADR   CMDAPMOD                              #  CMDAPMOD,PREL,QREL,RREL
000295: 05,2222           03635                           1DNADR   L/D1                                  #  L/D1,+1
000296: 05,2223           24304                           6DNADR   UPBUFF                                #  UPBUFF,+1,...+10,+11
000297: 05,2224           14320                           4DNADR   UPBUFF     +12D                       #  UPBUFF+12,13,...+18,+19D
000298: 05,2225           04300                           2DNADR   COMPNUMB                              #  COMPNUMB,UPOLDMOD,UPVERB,UPCOUNT
000299: 05,2226           03313                           1DNADR   PAXERR1                               #  PAXERR1,ROLLTM
000300: 05,2227           13675                           3DNADR   LATANG                                #  LATANG,+1,RDOT,+1,THETAH,+1
000301: 05,2230           07400                           2DNADR   LAT(SPL)                              #  LAT(SPL),+1,LNG(SPL),+1
000302: 05,2231           03265                           1DNADR   ALFA/180                              #  ALFA/180,BETA/180
000303: 05,2232           32065                           DNPTR    CMENTR04                              #  COMMON DATA
000304: 05,2233           00024                           1DNADR   TIME2                                 #  TIME2,TIME1
000305: 05,2234           32264                           DNPTR    CMENTR05                              #  COLLECT SNAPSHOT
000306: 05,2235           24340                           6DNADR   DNTMBUFF                              #  SEND SNAPSHOT
000307: 05,2236           32056                           DNPTR    CMENTR02                              #  COLLECT SNAPSHOT
000308: 05,2237           14340                           4DNADR   DNTMBUFF                              #  SENT SNAPSHOT
000309: 05,2240           07076                           2DNADR   AK                                    #  AK,AK1,AK2,RCSFLAGS
000310: 05,2241           13167                           3DNADR   ERRORX                                #  ERRORX/Y/Z,THETADX/Y/Z
000311: 05,2242           07300                           2DNADR   CMDAPMOD                              #  CMDAPMOD,PREL,QREL,RREL
000312: 05,2243           24304                           6DNADR   UPBUFF                                #  UPBUFF+0,+1,...+10,+11D
000313: 05,2244           14320                           4DNADR   UPBUFF     +12D                       #  UPBUFF+12,+13,...+18,+19D
000314: 05,2245           03073                           1DNADR   LEMMASS                               #  LEMMASS,CSMMASS
000315: 05,2246           03066                           1DNADR   DAPDATR1                              #  DAPDATR1,DAPDATR2
000316: 05,2247           03314                           1DNADR   ROLLTM                                #  ROLLTM,ROLLC
000317: 05,2250           01331                           1DNADR   OPTMODES                              #  OPTMODES,HOLDFLAG
000318: 05,2251           13125                           3DNADR   WBODY                                 #  WBODY,...+5/OMEGAC,...+5
000319: 05,2252           05154                           2DNADR   REDOCTR                               #  REDOCTR,THETAD+0,+1,+2
000320: 05,2253           01320                           1DNADR   IMODES30                              #  IMODES30,IMODES33
000321: 05,2254           34011                           DNCHAN   11                                    #  CHANNELS 11,12
000322: 05,2255           34013                           DNCHAN   13                                    #  CHANNELS 13,14
000323: 05,2256           34030                           DNCHAN   30                                    #  CHANNELS 30,31
000324: 05,2257           34032                           DNCHAN   32                                    #  CHANNELS 32,33
000325: 05,2260           01432                           1DNADR   RSBBQ                                 #  RSBBQ,+1
000326: 05,2261           10372                           3DNADR   CADRFLSH                              #  CADRFLSH,+1,+2,FAILREG,+1,+2
000327: 05,2262           00106                           1DNADR   STATE      +10D                       #  FLAGWRDS 10 AND 11
000328: 05,2263           74007                           -1DNADR  GAMMAEI                               #  GAMMAEI,+1
000329:
000330:                                                                                                  #  --------------------- SUB LISTS ----------------------------
000331:
000332: 05,2264  05,2047               CMENTR01           EQUALS   CMPOWE01                              #  COMMON DOWNLIST DATA
000333:                                                                                                  #  Page 176
000334: 05,2264  05,2056               CMENTR02           EQUALS   CMPOWE02                              #  COMMON DOWNLIST DATA
000335:
000336: 05,2264  05,2063               CMENTR03           EQUALS   CMPOWE03                              #  COMMON DOWNLIST DATA
000337:
000338: 05,2264  05,2065               CMENTR04           EQUALS   CMPOWE04                              #  COMMON DOWNLIST DATA
000339:
000340: 05,2264           76615        CMENTR05           -1DNADR  DELV                                  #  DELV,+1                       SNAPSHOT DATA
000341: 05,2265           01164                           1DNADR   DELV       +2                         #  DELV+2,+3
000342: 05,2266           01166                           1DNADR   DELV       +4                         #  DELV+4,+5
000343: 05,2267           03726                           1DNADR   TTE                                   #  TTE,+1
000344: 05,2270           03724                           1DNADR   VIO                                   #  VIO,+1
000345: 05,2271           03766                           1DNADR   VPRED                                 #  VPRED,+1
000346: 05,2272           76532                           -1DNADR  PIPTIME1                              #  PIPTIME1,+1
000347:
000348: 05,2273  05,2076               CMENTR06           EQUALS   CMPOWE06                              #  COMMON DOWNLIST DATA
000349:
000350: 05,2273  05,2101               CMENTR07           EQUALS   CMPOWE07                              #  COMMON DOWNLIST DATA
000351:
000352:                                                                                                  #  -------------------------------------------------------------
000353:
000354:                                                                                                  #  Page 177
000355:                                                                                                  #  --------------------- CONTROL LIST --------------------------
000356:
000357: 05,2273                        CMPG22DL           EQUALS                                         #  SEND ID BY SPECIAL CODING
000358: 05,2273           32047                           DNPTR    CMPG2201                              #  COLLECT SNAPSHOT
000359: 05,2274           24340                           6DNADR   DNTMBUFF                              #  SEND SNAPSHOT
000360: 05,2275           32056                           DNPTR    CMPG2202                              #  COLLECT SNAPSHOT
000361: 05,2276           14340                           4DNADR   DNTMBUFF                              #  SEND SNAPSHOT
000362: 05,2277           32063                           DNPTR    CMPG2203                              #  COMMON DATA
000363: 05,2300           27537                           6DNADR   SVMRKDAT                              #  LANDING SITE MARK DATA
000364: 05,2301           27553                           6DNADR   SVMRKDAT   +12D                       #  SVMRKDAT+0,...+34
000365: 05,2302           27567                           6DNADR   SVMRKDAT   +24D                       #  LANDING SITE MARK DATA
000366: 05,2303           02751                           1DNADR   LANDMARK                              #  LANDMARK,GARBAGE
000367: 05,2304           00007                           1DNADR   SPARE
000368: 05,2305           00007                           1DNADR   SPARE
000369: 05,2306           00007                           1DNADR   SPARE
000370: 05,2307           32065                           DNPTR    CMPG2204                              #  COMMON DATA
000371: 05,2310           00024                           1DNADR   TIME2                                 #  TIME2,TIME1
000372: 05,2311           32337                           DNPTR    CMPG2205                              #  COLLECT SNAPSHOT
000373: 05,2312           04340                           2DNADR   DNTMBUFF                              #  SEND SNAPSHOT
000374: 05,2313           00007                           1DNADR   SPARE
000375: 05,2314           00007                           1DNADR   SPARE
000376: 05,2315           00007                           1DNADR   SPARE
000377: 05,2316           00007                           1DNADR   SPARE
000378: 05,2317           32056                           DNPTR    CMPG2202                              #  COLLECT SNAPSHOT
000379: 05,2320           14340                           4DNADR   DNTMBUFF                              #  SEND SNAPSHOT
000380: 05,2321           32063                           DNPTR    CMPG2203                              #  COMMON DATA
000381: 05,2322           32076                           DNPTR    CMPG2206                              #  COMMON DATA
000382: 05,2323           02747                           1DNADR   8NN                                   #  8NN,GARBAGE
000383: 05,2324           00106                           1DNADR   STATE      +10D                       #  FLAGWRDS 10 AND 11
000384: 05,2325           12025                           3DNADR   RLS                                   #  RLS,+1,...+4,+5
000385: 05,2326           00007                           1DNADR   SPARE
000386: 05,2327           01331                           1DNADR   OPTMODES                              #  OPTMODES,HOLDFLAG
000387: 05,2330           32101                           DNPTR    CMPG2207                              #  COMMON DATA
000388: 05,2331           00007                           1DNADR   SPARE
000389: 05,2332           00007                           1DNADR   SPARE
000390: 05,2333           00007                           1DNADR   SPARE
000391: 05,2334           00007                           1DNADR   SPARE
000392: 05,2335           00007                           1DNADR   SPARE
000393: 05,2336           77770                           -1DNADR  SPARE
000394:
000395:                                                                                                  #  --------------------- SUB LISTS --------------------------
000396:
000397: 05,2337  05,2047               CMPG2201           EQUALS   CMPOWE01                              #  COMMON DOWNLIST DATA
000398:
000399: 05,2337  05,2056               CMPG2202           EQUALS   CMPOWE02                              #  COMMON DOWNLIST DATA
000400:
000401: 05,2337  05,2063               CMPG2203           EQUALS   CMPOWE03                              #  COMMON DOWNLIST DATA
000402:                                                                                                  #  Page 178
000403: 05,2337  05,2065               CMPG2204           EQUALS   CMPOWE04                              #  COMMON DOWNLIST DATA
000404:
000405: 05,2337           76672        CMPG2205           -1DNADR  LONG                                  #  LONG,+1                       SNAPSHOT DATA
000406: 05,2340           01107                           1DNADR   ALT                                   #  ALT,+1
000407: 05,2341           76674                           -1DNADR  LAT                                   #  LAT,+1
000408:
000409: 05,2342  05,2076               CMPG2206           EQUALS   CMPOWE06                              #  COMMON DOWNLIST DATA
000410:
000411: 05,2342  05,2101               CMPG2207           EQUALS   CMPOWE07                              #  COMMON DOWNLIST DATA
000412:
000413:                                                                                                  #  -----------------------------------------------------------
000414:
000415: 05,2342           02113        DNTABLE            GENADR   CMCSTADL
000416: 05,2343           02214                           GENADR   CMENTRDL
000417: 05,2344           02147                           GENADR   CMRENDDL
000418: 05,2345           02001                           GENADR   CMPOWEDL
000419: 05,2346           02273                           GENADR   CMPG22DL
000420:
000421:                                                                                                  #  -----------------------------------------------------------
000422:
000423:

End of include-file DOWNLINK_LISTS.agc.  Parent file is MAIN.agc


