
Source Code
000001:                                                                                                 #  Copyright:     Public domain.
000002:                                                                                                 #  Filename:      ERASABLE_ASSIGNMENTS.agc
000003:                                                                                                 #  Purpose:       Part of the source code for Colossus, build 249.
000004:                                                                                                 #                 It is part of the source code for the Command Module's (CM)
000005:                                                                                                 #                 Apollo Guidance Computer (AGC), possibly for Apollo 8 and 9.
000006:                                                                                                 #  Assembler:     yaYUL
000007:                                                                                                 #  Reference:     pp. 37-128 of 1701.pdf.
000008:                                                                                                 #  Contact:       Ron Burkey <info@sandroid.org>.
000009:                                                                                                 #  Website:       www.ibiblio.org/apollo.
000010:                                                                                                 #  Mod history:   08/03/04 RSB.   Adapted from similar Luminary 131 file.
000011:                                                                                                 #                 08/05/04 RSB.   Finished up the draft (not proofed).
000012:                                                                                                 #                 05/08/09 RSB    On p. 99, "INTVEC = FILDELV +W" was corrected
000013:                                                                                                 #                                 to "INTVEC = FILDELV +2".  The reason this
000014:                                                                                                 #                                 was working is that INTVEC isn't used for
000015:                                                                                                 #                                 anything.
000016:
000017:                                                                                                 #  The contents of the "Colossus249" files, in general, are transcribed
000018:                                                                                                 #  from a scanned document obtained from MIT's website,
000019:                                                                                                 #  http://hrst.mit.edu/hrs/apollo/public/archive/1701.pdf.  Notations on this
000020:                                                                                                 #  document read, in part:
000021:
000022:                                                                                                 #         Assemble revision 249 of AGC program Colossus by NASA
000023:                                                                                                 #         2021111-041.  October 28, 1968.
000024:
000025:                                                                                                 #         This AGC program shall also be referred to as
000026:                                                                                                 #                                 Colossus 1A
000027:
000028:                                                                                                 #         Prepared by
000029:                                                                                                 #                         Massachussets Institute of Technology
000030:                                                                                                 #                         75 Cambridge Parkway
000031:                                                                                                 #                         Cambridge, Massachusetts
000032:                                                                                                 #         under NASA contract NAS 9-4065.
000033:
000034:                                                                                                 #  Refer directly to the online document mentioned above for further information.
000035:                                                                                                 #  Please report any errors (relative to 1701.pdf) to info@sandroid.org.
000036:
000037:                                                                                                 #  In some cases, where the source code for Luminary 131 overlaps that of
000038:                                                                                                 #  Colossus 249, this code is instead copied from the corresponding Luminary 131
000039:                                                                                                 #  source file, and then is proofed to incorporate any changes.
000040:
000041:                                                                                                 #  Page 37
000042:                                                                                                 #  CONVENTIONS AND NOTATIONS UTILIZED FOR ERASABLE ASSIGNMENTS.
000043:
000044:                                                                                                 #         EQUALS  IS USED IN TWO WAYS.  IT IS OFTEN USED TO CHAIN A GROUP
000045:                                                                                                 #                 OF ASSIGNMENTS SO THAT THE GROUP MAY BE MOVED WITH THE
000046:                                                                                                 #                 CHANGING OF ONLY ONE CARD.  EXAMPLE:
000047:
000048:                                                                                                 #                         X       EQUALS  START
000049:                                                                                                 #                         Y       EQUALS  X       +SIZE.X
000050:                                                                                                 #                         Z       EQUALS  Y       +SIZE.Y
000051:
000052:                                                                                                 #                 (X, Y, AND Z ARE CONSECUTIVE AND BEGIN AT START.
000053:                                                                                                 #                 SIZE.X AND SIZE.Y ARE THE RESPECTIVE SIZES OF X AND Y.
000054:                                                                                                 #                 USUALLY NUMERIC, IE. 1, 2, 6, 18D, ETC.)
000055:
000056:                                                                                                 #         EQUALS  OFTEN IMPLIES THE SHARING OF REGISTERS (DIFFERENT NAMES
000057:                                                                                                 #                 AND DIFFERENT DATA).  EXAMPLE:
000058:
000059:                                                                                                 #                         X       EQUALS  Y
000060:
000061:                                                                                                 #         =       MEANS THAT MULTIPLE NAMES HAVE BEEN GIVEN TO THE SAME DATA.
000062:                                                                                                 #                 (THIS IS LOGICAL EQUIVALENCE, NOT SHARING.)  EXAMPLE:
000063:
000064:                                                                                                 #                         X       =       Y
000065:
000066:                                                                                                 #         THE SIE AND UTILIZATION OF AN ERASABLE ARE OFTEN INCLUDED IN
000067:                                                                                                 #         THE COMMENTS IN THE FOLLOWING FORM:  M(SIZE)N.
000068:
000069:                                                                                                 #                 M       REFERS TO THE MOBILITY OF THE ASSIGNMENT.
000070:                                                                                                 #                         B       MEANS THAT THE SYMBOL IS REFERENCED BY BASIC
000071:                                                                                                 #                                 INSTRUCTIONS AND THUS IS E-BANK SENSITIVE.
000072:                                                                                                 #                         I       MEANS THAT THE SYMBOL IS REFERENCED ONLY BY
000073:                                                                                                 #                                 INTERPRETIVE INSTRUCTIONS, AND IS THUS E-BANK
000074:                                                                                                 #                                 INSENSITIVE AND MAY APPEAR IN ANY E-BANK.
000075:
000076:                                                                                                 #                 SIZE    IS THE NUMBER OF REGISTERS INCLUDED BY THE SYMBOL.
000077:
000078:                                                                                                 #                 N       INDICATES THE NATURE OF PERMANENCE OF THE CONTENTS.
000079:                                                                                                 #                         PL      MEANS THAT THE CONTENTS ARE PAD LOADED.
000080:                                                                                                 #                         DSP     MEANS THAT THE REGISTER IS USED FOR A DISPLAY.
000081:                                                                                                 #                         PRM     MEANS THAT THE REGISTER IS PERMANENT.  IE., IT
000082:                                                                                                 #                                 IS USED DURING THE ENTIRE MISSION FOR ONE
000083:                                                                                                 #                                 PURPOSE AND CANNOT BE SHARED.
000084:                                                                                                 #                         TMP     MEANS THAT THE REGISTER IS USED TEMPORARILY OR
000085:                                                                                                 #                                 IS A SCRATCH REGISTER FOR THE ROUTINE TO WHICH
000086:                                                                                                 #                                 IT IS ASSIGNED.  THAT IS, IT NEED NOT BE SET
000087:                                                                                                 #                                 PRIOR TO INVOCATION OF THE ROUTINE NOR DOES IT
000088:                                                                                                 #                                 CONTAIN USEFUL OUTPUT TO ANOTHER ROUTINE.  THUS
000089:                                                                                                 #  Page 38
000090:                                                                                                 #                                 IT MAY BE SHARED WITHANY OTHER ROUTINE WHICH
000091:                                                                                                 #                                 IS NOT ACTIVE IN PARALLEL
000092:                                                                                                 #                         IN      MEANS INPUT TO THE ROUTINE AND IT IS PROBABLY
000093:                                                                                                 #                                 TEMPORARY FOR A HIGHER-LEVEL ROUTINE/PROGRAM.
000094:                                                                                                 #                         OUT     MEANS OUTPUT FROM THE ROUTINE, PROBABLY
000095:                                                                                                 #                                 TEMPORARY FOR A HIGHER-LEVEL ROUTINE/PROGRAM.
000096:
000097:                                                                                                 #  Page 39
000098:                                                                                                 #  SPECIAL REGISTERS.
000099:
000100: 37,2001                        A                 EQUALS   0
000101: 37,2001                        L                 EQUALS   1                                     #  L AND Q ARE BOTH CHANNELS AND REGISTERS
000102: 37,2001                        Q                 EQUALS   2
000103: 37,2001                        EBANK             EQUALS   3
000104: 37,2001                        FBANK             EQUALS   4
000105: 37,2001                        Z                 EQUALS   5                                     #  ADJACENT TO FBANK AND BBANK FOR DXCH Z
000106: 37,2001                        BBANK             EQUALS   6                                     #  (DTCB) AND DXCH FBANK (DTCF).
000107:                                                                                                 #  REGISTER 7 IS A ZERO-SOURCE, USED BY ZL.
000108:
000109: 37,2001                        ARUPT             EQUALS   10                                    #  INTERRUPT STORAGE
000110: 37,2001                        LRUPT             EQUALS   11
000111: 37,2001                        QRUPT             EQUALS   12
000112: 37,2001                        SAMPTIME          EQUALS   13                                    #  SAMPLED TIME 1 & 2.
000113: 37,2001                        ZRUPT             EQUALS   15                                    #  (13 AND 14 ARE SPARES.)
000114: 37,2001                        BANKRUPT          EQUALS   16                                    #  USUALLY HOLDS FBANK OR BBANK.
000115: 37,2001                        BRUPT             EQUALS   17                                    #  RESUME ADDRESS AS WELL.
000116:
000117: 37,2001                        CYR               EQUALS   20
000118: 37,2001                        SR                EQUALS   21
000119: 37,2001                        CYL               EQUALS   22
000120: 37,2001                        EDOP              EQUALS   23                                    #  EDITS INTERPRETIVE OPERATION CODE PAIRS.
000121:
000122: 37,2001                        TIME2             EQUALS   24
000123: 37,2001                        TIME1             EQUALS   25
000124: 37,2001                        TIME3             EQUALS   26
000125: 37,2001                        TIME4             EQUALS   27
000126: 37,2001                        TIME5             EQUALS   30
000127: 37,2001                        TIME6             EQUALS   31
000128: 37,2001                        CDUX              EQUALS   32
000129: 37,2001                        CDUY              EQUALS   33
000130: 37,2001                        CDUZ              EQUALS   34
000131: 37,2001                        CDUT              EQUALS   35                                    #  REND RADAR TRUNNION CDU
000132: 37,2001  0000035               OPTY              =        CDUT
000133: 37,2001                        CDUS              EQUALS   36                                    #  REND RADAR SHAFT CDU
000134: 37,2001  0000036               OPTX              =        CDUS
000135: 37,2001                        PIPAX             EQUALS   37
000136: 37,2001                        PIPAY             EQUALS   40
000137: 37,2001                        PIPAZ             EQUALS   41
000138: 37,2001                        BMAGX             EQUALS   42
000139: 37,2001                        BMAGY             EQUALS   43
000140: 37,2001                        BMAGZ             EQUALS   44
000141: 37,2001                        INLINK            EQUALS   45
000142: 37,2001                        RNRAD             EQUALS   46
000143: 37,2001                        GYROCTR           EQUALS   47
000144: 37,2001                        GYROCMD           EQUALS   47
000145: 37,2001                        CDUXCMD           EQUALS   50
000146: 37,2001                        CDUYCMD           EQUALS   51
000147:                                                                                                 #  Page 40
000148: 37,2001                        CDUZCMD           EQUALS   52
000149: 37,2001                        CDUTCMD           EQUALS   53                                    #  OPTICS TRUNNION COMMAND (WAS OPTYCMD)
000150: 37,2001  0000053               OPTYCMD           =        CDUTCMD
000151: 37,2001  0000053               TVCYAW            EQUALS   CDUTCMD                               #  SPS YAW COMMAND IN TVC MODE
000152: 37,2001                        CDUSCMD           EQUALS   54                                    #  OPTICS SHAFT COMMAND (WAS OPTXCMD).
000153: 37,2001  0000054               TVCPITCH          EQUALS   CDUSCMD                               #  SPS PITCH COMMAND IN TVC MODE
000154: 37,2001  0000054               OPTXCMD           =        CDUSCMD
000155: 37,2001                        EMSD              EQUALS   55
000156: 37,2001                        THRUST            EQUALS   55
000157: 37,2001                        LEMONM            EQUALS   56
000158: 37,2001                        OUTLINK           EQUALS   57
000159: 37,2001                        ALTM              EQUALS   60
000160:
000161:                                                                                                 #  INTERPRETIVE REGISTERS ADDRESSED RELATIVE TO VAC AREA.
000162:
000163: 37,2001                        LVSQUARE          EQUALS   34D                                   #  SQUARE OF VECTOR INPUT TO ABVAL AND UNIT
000164: 37,2001                        LV                EQUALS   36D                                   #  LENGTH OF VECTOR INPUT TO UNIT.
000165: 37,2001                        X1                EQUALS   38D                                   #  INTERPRETIVE SPECIAL REGISTER RELATIVE
000166: 37,2001                        X2                EQUALS   39D                                   #  TO THE WORK AREA.
000167: 37,2001                        S1                EQUALS   40D
000168: 37,2001                        S2                EQUALS   41D
000169: 37,2001                        QPRET             EQUALS   42D
000170:
000171:                                                                                                 #  Page 41
000172:                                                                                                 #  INPUT/OUTPUT CHANNELS
000173:
000174:                                                                                                 #  *** CHANNEL ZERO IS TO BE USED IN AN INDEXED OPERATION ONLY. ***
000175: 37,2001  0000001               LCHAN             EQUALS   L
000176: 37,2001  0000002               QCHAN             EQUALS   Q
000177: 37,2001                        HISCALAR          EQUALS   3
000178: 37,2001                        LOSCALAR          EQUALS   4
000179: 37,2001                        PYJETS            EQUALS   5
000180: 37,2001                        ROLLJETS          EQUALS   6
000181: 37,2001                        SUPERBNK          EQUALS   7
000182: 37,2001                        OUT0              EQUALS   10
000183: 37,2001                        DSALMOUT          EQUALS   11
000184: 37,2001                        CHAN12            EQUALS   12
000185: 37,2001                        CHAN13            EQUALS   13
000186: 37,2001                        CHAN14            EQUALS   14
000187: 37,2001                        MNKEYIN           EQUALS   15
000188: 37,2001                        NAVKEYIN          EQUALS   16
000189: 37,2001                        CHAN30            EQUALS   30
000190: 37,2001                        CHAN31            EQUALS   31
000191: 37,2001                        CHAN32            EQUALS   32
000192: 37,2001                        CHAN33            EQUALS   33
000193: 37,2001                        DNTM1             EQUALS   34
000194: 37,2001                        DNTM2             EQUALS   35
000195:
000196:                                                                                                 #  END OF CHANNEL ASSIGNMENTS
000197:
000198:                                                                                                 #  Page 42
000199:
000200:                                                                                                 #  FLAGWORDS
000201:
000202:                                                                                                 #  FLAGWRD0       STATE +0        (000-014)
000203:                                                                                                 #  FLAGWRD1       STATE +1        (015-029)
000204:                                                                                                 #  FLAGWRD2       STATE +2        (030-044)
000205:                                                                                                 #  FLAGWRD3       STATE +3        (045-059)
000206:                                                                                                 #  FLAGWRD4       STATE +4        (060-074)
000207:                                                                                                 #  FLAGWRD5       STATE +5        (075-089)
000208:                                                                                                 #  FLAGWRD6       STATE +6        (090-104)
000209:                                                                                                 #  FLAGWRD7       STATE +7        (105-119)
000210:                                                                                                 #  FLAGWRD8       STATE +8D       (120-134)
000211:                                                                                                 #  FLAGWRD9       STATE +9D       (135-149)
000212:
000213:                                                                                                 #         SORTED LIST OF
000214:                                                                                                 #         INTERPRETIVE SWITCH BIT ASSIGNMENTS
000215:
000216:                                                                                                 #  INTERPRETIVE SWITCH BIT ASSIGNMENTS
000217:
000218:                                                                                                 #  FLAGWORD       DEC NUM         BIT & FLAG      EQUIVALENT FLAGWORDS
000219:
000220:                                                                                                 #  22DSPFLG       032D            BIT 13 FLAG 2
000221:                                                                                                 #  360SW          134D            BIT 1 FLAG 8
000222:                                                                                                 #  3AXISFLG       084D            BIT 6 FLAG 5
000223:                                                                                                 #  ADVTRK 125D            BIT 10 FLAG 8
000224:                                                                                                 #  APSESW 130D            BIT 5 FLAG 8
000225:                                                                                                 #  ASTNFLAG       108D            BIT 12 FLAG 7
000226:                                                                                                 #  ATTCHFLG       118D            BIT 2 FLAG 7
000227:                                                                                                 #  AVEGFLAG       029D            BIT 1 FLAG 1
000228:                                                                                                 #  AVEMIDSW       149D            BIT 1 FLAG 9
000229:                                                                                                 #  AVFLAG 040D            BIT 5 FLAG 2
000230:                                                                                                 #  CALCMAN2       043D            BIT 2 FLAG 2
000231:                                                                                                 #  CALCMAN3       042D            BIT 2 FLAG 2
000232:                                                                                                 #  (garbled)
000233:                                                                                                 #  CMOONFLG       123D            BIT 12 FLAG 8
000234:                                                                                                 #  CM/DSTBY       103D            BIT 2 FLAG 8
000235:                                                                                                 #  COGAFLAG       131D            BIT 4 FLAG 8
000236:                                                                                                 #  COMPUTER       082D            BIT 8 FLAG 5
000237:                                                                                                 #  CPHIFLAG       000D            BIT 15 FLAG 0
000238:                                                                                                 #  CULTFLAG       053D            BIT 7 FLAG 3
000239:                                                                                                 #  CYCLESW        035D            BIT 10 FLAG 2
000240:                                                                                                 #  D6OR9FLG       058D            BIT 2 FLAG 3
000241:                                                                                                 #  DAPBIT1        090D            BIT 15 FLAG 6
000242:                                                                                                 #  DAPBIT2        091D            BIT 14 FLAG 6
000243:                                                                                                 #  DIM0FLAG       059D            BIT 1 FLAG 3
000244:                                                                                                 #  DMENFLAG       081D            BIT 9 FLAG 5
000245:                                                                                                 #  DRIFTFLG       030D            BIT 15 FLAG 2
000246:                                                                                                 #  DSKYFLAG       075D            BIT 15 FLAG 5
000247:                                                                                                 #  Page 43
000248:                                                                                                 #  EGSW           097D            BIT 8 FLAG 6    KNOTNFLG R57FLAG
000249:                                                                                                 #  ENG1FLAG       018D            BIT 12 FLAG 1
000250:                                                                                                 #  ENG2FLAG       019D            BIT 11 FLAG 1
000251:                                                                                                 #  ENGONFLG       083D            BIT 7 FLAG 5
000252:                                                                                                 #  ERADFLAG       017D            BIT 13 FLAG 1
000253:                                                                                                 #  ETPIFLAG       038D            BIT 7 FLAG 2    FIRSTFLG OPTNSW
000254:                                                                                                 #  F2RTE          010D            BIT 5 FLAG 0
000255:                                                                                                 #  FINALFLG       039D            BIT 6 FLAG 2
000256:                                                                                                 #  FIRSTFLG       036D            BIT 7 FLAG 2    ETPIFLAG OPTNSW
000257:                                                                                                 #  FREEFLAG       012D            BIT 3 FLAG 0
000258:                                                                                                 #  GAMDIFSW       094D            BIT 11 FLAG 6
000259:                                                                                                 #  GLOKFAIL       046D            BIT 14 FLAG 3
000260:                                                                                                 #  GMBDRVSW       095D            BIT 10 FLAG 6   GONEPAST
000261:                                                                                                 #  GONEBY 112D            BIT 8 FLAG 7
000262:                                                                                                 #  GONEPAST       095D            BIT 10 FLAG 6
000263:                                                                                                 #  GRRBKFLG       065D            BIT 5 FLAG 5
000264:                                                                                                 #  GUESSW 028D            BIT 2 FLAG 1
000265:                                                                                                 #  GYMDIFSW       104D            BIT 1 FLAG 6
000266:                                                                                                 #  H05GSW 102D            BIT 3 FLAG 6
000267:                                                                                                 #  HIND           099D            BIT 6 FLAG 6
000268:                                                                                                 #  IDLEFAIL       024D            BIT 6 FLAG 1
000269:                                                                                                 #  IDLEFLAG       113D            BIT 7 FLAG 7
000270:                                                                                                 #  IGNFLAG        107D            BIT 13 FLAG 7
000271:                                                                                                 #  IMPULSW        036D            BIT 9 FLAG 2
000272:                                                                                                 #  IMUSE          007D            BIT 8 FLAG 0
000273:                                                                                                 #  INCORFLG       079D            BIT 11 FLAG 5
000274:                                                                                                 #  INFINFLG       128D            BIT 7 FLAG 8
000275:                                                                                                 #  INRLSW 100D            BIT 5 FLAG 5
000276:                                                                                                 #  INTFLAG        151D            BIT 14 FLAG 15
000277:                                                                                                 #  INTYPFLG       056D            BIT 4 FLAG 3
000278:                                                                                                 #  ITSWICH        106D            BIT 14 FLAG 7
000279:                                                                                                 #  KFLAG          014D            BIT 1 FLAG 0
000280:                                                                                                 #  KNOWNFLG       097D            BIT 8 FLAG 8    EGSW R57FLAG
000281:                                                                                                 #  LATSW          101D            BIT 4 FLAG 5
000282:                                                                                                 #  LMOONFLG       124D            BIT 11 FLAG 8
000283:                                                                                                 #  LUNAFLAG       048D            BIT 12 FLAG 3
000284:                                                                                                 #  MAXDBFLG       138D            BIT 12 FLAG 9
000285:                                                                                                 #  MCLVFLAG       068D            BIT 2 FLAG 5
000286:                                                                                                 #  MID1FLAG       147D            BIT 3 FLAG 9
000287:                                                                                                 #  MIDAVFLG       148D            BIT 2 FLAG 9
000288:                                                                                                 #  MIDFLAG        002D            BIT 13 FLAG 0
000289:                                                                                                 #  MKOVFLAG       072D            BIT 3 FLAG 4
000290:                                                                                                 #  MOONFLAG       003D            BIT 12 FLAG 0
000291:                                                                                                 #  MRKIDFLG       060D            BIT 15 FLAG 4
000292:                                                                                                 #  MRKNVFLG       066D            BIT 9 FLAG 4
000293:                                                                                                 #  MRUPTFLG       070D            BIT 5 FLAG 4
000294:                                                                                                 #  MWAITFLG       064D            BIT 11 FLAG 4
000295:                                                                                                 #  N22ORN17       144D            BIT 6 FLAG 9
000296:                                                                                                 #  NEEDLFLG       006D            BIT 9 FLAG 0
000297:                                                                                                 #  NEWIFLG        122D            BIT 13 FLAG 8
000298:                                                                                                 #  Page 44
000299:                                                                                                 #  NJETSFLG       015D            BIT 15 FLAG 1
000300:                                                                                                 #  NODOFLAG       044D            BIT 1 FLAG 2
000301:                                                                                                 #  NORFHOR        004D            BIT 11 FLAG 0
000302:                                                                                                 #  NORMSW 110D            BIT 10 FLAG 7
000303:                                                                                                 #  NOSWITCH       098D            BIT 7 FLAG 6
000304:                                                                                                 #  NRMIDFLG       062D            BIT 13 FLAG 4
000305:                                                                                                 #  NRMNVFLG       067D            BIT 6 FLAG 4
000306:                                                                                                 #  NRUPTFLG       071D            BIT 4 FLAG 4
000307:                                                                                                 #  NTARGFLG       102D            BIT 3 FLAG 6
000308:                                                                                                 #  NWAITFLG       065D            BIT 10 FLAG 4
000309:                                                                                                 #  OPTNSW 038D            BIT 7 FLAG 2    ETPIFLAG FIRSTFLG
000310:                                                                                                 #  ORBWFLAG       054D            BIT 6 FLAG 3
000311:                                                                                                 #  ORDERSW        129D            BIT 6 FLAG 8
000312:                                                                                                 #  P22MKFLG       049D            BIT 11 FLAG 3
000313:                                                                                                 #  P39/79SW       126D            BIT 9 FLAG 8
000314:                                                                                                 #  PDSPFLAG       063D            BIT 12 FLAG 4
000315:                                                                                                 #  PFRATFLG       041D            BIT 4 FLAG 2
000316:                                                                                                 #  PINBRFLG       069D            BIT 6 FLAG 4
000317:                                                                                                 #  PRECIFLG       052D            BIT 8 FLAG 3
000318:                                                                                                 #  PRFTRKAT       060D            BIT 10 FLAG 5
000319:                                                                                                 #  PRIODFLG       061D            BIT 13 FLAG 4
000320:                                                                                                 #  PRONVFLG       068D            BIT 7 FLAG 4
000321:                                                                                                 #  QUITFLAG       145D            BIT 5 FLAG 9
000322:                                                                                                 #  R21MARK        031D            BIT 14 FLAG 2
000323:                                                                                                 #  R22CAFLG       143D            BIT 7 FLAG 9
000324:                                                                                                 #  R23FLG 021D            BIT 9 FLAG 1
000325:                                                                                                 #  R31FLAG        146D            BIT 4 FLAG 9
000326:                                                                                                 #  R53FLAG        009D            BIT 6 FLAG 0
000327:                                                                                                 #  R57FLAG        097D            BIT 8 FLAG 6    KNOWNFLG EGSW
000328:                                                                                                 #  R60FLAG        086D            BIT 4 FLAG 5
000329:                                                                                                 #  REFSMFLG       047D            BIT 13 FLAG 3
000330:                                                                                                 #  REINTFLG       158D            BIT 7 FLAG 10
000331:                                                                                                 #  RELVELSW       096D            BIT 9 FLAG 6
000332:                                                                                                 #  RENDWFLG       089D            BIT 1 FLAG 5
000333:                                                                                                 #  RNDVZFLG       008D            BIT 7 FLAG 0
000334:                                                                                                 #  RPQFLAG        120D            BIT 15 FLAG 6
000335:                                                                                                 #  RVSW           111D            BIT 9 FLAG 7
000336:                                                                                                 #  SAVECFLG       140D            BIT 10 FLAG 9
000337:                                                                                                 #  SLOPESW        027D            BIT 3 FLAG 1
000338:                                                                                                 #  SOLNSW 087D            BIT 3 FLAG 5
000339:                                                                                                 #  SOURCFLG       142D            BIT 8 FLAG 9
000340:                                                                                                 #  STATEFLG       055D            BIT 5 FLAG 3
000341:                                                                                                 #  STEERSW        034D            BIT 11 FLAG 2
000342:                                                                                                 #  STIKFLAG       016D            BIT 14 FLAG 1
000343:                                                                                                 #  STRULLSW       092D            BIT 13 FLAG 6
000344:                                                                                                 #  SURFFLAG       127D            BIT 8 FLAG 8
000345:                                                                                                 #  SWTOVER        135D            BIT 15 FLAG 9
000346:                                                                                                 #  TARG1FLG       020D            BIT 10 FLAG 1
000347:                                                                                                 #  TARG2FLG       021D            BIT 9 FLAG 1
000348:                                                                                                 #  TERMIFLG       105D            BIT 15 FLAG 7
000349:                                                                                                 #  Page 45
000350:                                                                                                 #  TFFSW          119D            BIT 1 FLAG 7
000351:                                                                                                 #  TIMRFLAG       109D            BIT 11 FLAG 7
000352:                                                                                                 #  TRACKFLG       025D            BIT 5 FLAG 1
000353:                                                                                                 #  TRM03FLG       026D            BIT 4 FLAG 1
000354:                                                                                                 #  TRUNFLAG       011D            BIT 4 FLAG 0
000355:                                                                                                 #  UPDATFLG       023D            BIT 7 FLAG 1
000356:                                                                                                 #  UPLOCKFL       116D            BIT 4 FLAG 7
000357:                                                                                                 #  V37FLAG        114D            BIT 6 FLAG 7
000358:                                                                                                 #  V59FLAG        078D            BIT 12 FLAG 5
000359:                                                                                                 #  V67FLAG        136D            BIT 14 FLAG 9
000360:                                                                                                 #  V82EMFLG       137D            BIT 13 FLAG 9
000361:                                                                                                 #  V94FLAG        139D            BIT 11 FLAG 9
000362:                                                                                                 #  VEHUPFLG       022D            BIT 8 FLAG 1
000363:                                                                                                 #  VERIFLAG       117D            BIT 3 FLAG 7
000364:                                                                                                 #  VFLAG          050D            BIT 10 FLAG 3
000365:                                                                                                 #  VHFRFLAG       141D            BIT 9 FLAG 9
000366:                                                                                                 #  VINTFLAG       067D            BIT 3 FLAG 3
000367:                                                                                                 #  XDELVFLG       037D            BIT 8 FLAG 2
000368:                                                                                                 #  XDSPFLAG       074D            BIT 1 FLAG 4
000369:
000370:                                                                                                 #  Page 46
000371:
000372: 37,2001     0074               FLAGWRD0          =        STATE      +0                         #  (000-014)
000373:                                                                                                 #  (SET)                  (RESET)
000374:                                                                                                 #  BIT 15 FLAG 0
000375: 37,2001                        CPHIFLAG          =        000D                                  #  OUTPUT OF CALCGA IS    OUTPUT OF CALCGA IS
000376:                                                                                                 #  CPHIX                  THETAD
000377: 37,2001     4674               CPHIBIT           =        BIT15
000378:
000379:                                                                                                 #  BIT 14 FLAG 0
000380: 37,2001                        JSWITCH           =        001D                                  #  INTEGRATION OF W       INTEGRATION OF STATE
000381:                                                                                                 #  MATRIX         VECTOR
000382: 37,2001     4675               JSWCHBIT          =        BIT14
000383:
000384:                                                                                                 #  BIT 13 FLAG 0
000385: 37,2001                        MIDFLAG           =        002D                                  #  INTEGRATION WITH       INTEGRATION WITHOUT
000386:                                                                                                 #  SOLAR PERTURBATIONS    SOLAR PERTURBATIONS
000387:
000388: 37,2001     4676               MIDFLBIT          =        BIT13
000389:
000390:                                                                                                 #  BIT 12 FLAG 0
000391: 37,2001                        MOONFLAG          =        003D                                  #  MOON IS SPHERE OF      EARTH IS SPHERE OF
000392:                                                                                                 #  INFLUENCE              INFLUENCE
000393:
000394: 37,2001     4677               MOONBIT           =        BIT12
000395:
000396:                                                                                                 #  BIT 11 FLAG 0
000397: 37,2001                        NORFHOR           =        004D                                  #  FAR HORIZON            NEAR HORIZON
000398:
000399: 37,2001     4700               NORFBIT           =        BIT11
000400:
000401:                                                                                                 #  BIT 10 FLAG 0
000402: 37,2001                        ZMEASURE          =        005D                                  #  MEASUREMENT PLANET     MEASUREMENT PLANET
000403:                                                                                                 #  AND PRIMARY PLANET     AND PRIMARY PLANET
000404:                                                                                                 #  DIFFERENT              SAME
000405:
000406: 37,2001     4701               ZMEASBIT          =        BIT10
000407:
000408:                                                                                                 #  BIT 9 FLAG 0
000409: 37,2001                        NEEDLFLG          =        006D                                  #  TOTAL ATTITUDE A/P FOLLOWING ERROR
000410:                                                                                                 #  ERROR DISPLAYED        DISPLAYED
000411:
000412: 37,2001     4702               NEEDLBIT          =        BIT9
000413:
000414:                                                                                                 #  BIT 8 FLAG 0
000415: 37,2001                        IMUSE             =        007D                                  #  IMU IN USE             IMU NOT IN USE
000416:                                                                                                 #  Page 47
000417: 37,2001     4703               IMUSEBIT          =        BIT8
000418:
000419:                                                                                                 #  BIT 7 FLAG 0
000420: 37,2001                        RNDVZFLG          =        008D                                  #  P20 RUNNING            P20 NOT RUNNING
000421:
000422: 37,2001     4704               RNDVZBIT          =        BIT7
000423:
000424:                                                                                                 #  BIT 6 FLAG 0
000425: 37,2001                        R53FLAG           =        009D                                  #  V51 INITIATED          V51 NOT INITIATED
000426:
000427: 37,2001     4703               R53FLBIT          =        BIT8
000428:
000429:                                                                                                 #  BIT 5 FLAG 0
000430: 37,2001                        F2RTE             =        010D                                  #  IN TIME CRITICAL       NOT IN TIME CRITICAL
000431:                                                                                                 #  MODE                   MODE
000432:
000433: 37,2001     4706               F2RTEBIT          =        BIT5
000434:
000435:                                                                                                 #  BIT 4 FLAG 0
000436: 37,2001                        TRUNFLAG          =        011D                                  #  DRIVING OF TRUNNION    DRIVING OF TRUNNION
000437:                                                                                                 #  ALLOWED                NOT ALLOWED
000438:
000439: 37,2001     4707               TRUNBIT           =        BIT4
000440:
000441:                                                                                                 #  BIT 3 FLAG 0
000442: 37,2001                        FREEFLAG          =        012D                                  #  (TEMPORARY FLAG USED IN MANY ROUTINES)
000443:
000444: 37,2001     4710               FREEFBIT          =        BIT3
000445:
000446:                                                                                                 #  BIT 2 FLAG 0
000447: 37,2001                                          =        13D
000448:
000449:                                                                                                 #  BIT 1 FLAG 0
000450: 37,2001                        KFLAG             =        014D                                  #  SEARCH SECTOR MORE     SEARCH SECTOR LESS
000451:                                                                                                 #  THAN 180 DEGREES       THAN 180 DEGREES
000452:
000453: 37,2001     4712               KBIT              =        BIT1
000454:
000455: 37,2001     0075               FLAGWRD1          =        STATE      +1                         #  (015-029)
000456:                                                                                                 #  (SET)                  (RESET)
000457:
000458:                                                                                                 #  BIT 15 FLAG 1
000459: 37,2001                        NJETSFLG          =        015D                                  #  TWO JET RCS BURN       FOUR JET RCS BURN
000460:
000461: 37,2001     4674               NJETSBIT          =        BIT15
000462:
000463:                                                                                                 #  BIT 14 FLAG 1
000464: 37,2001                        STIKFLAG          =        016D                                  #  RHC CONTROL            CMC CONTROL
000465:                                                                                                 #  Page 48
000466: 37,2001     4675               STIKBIT           =        BIT14
000467:
000468:                                                                                                 #  BIT 13 FLAG 1
000469: 37,2001                        ERADFLAG          =        017D                                  #  EARTH, COMPUTE EARTH, USED FIXED
000470:                                                                                                 #    FISCHER ELLIPSOID      RADIUS
000471:                                                                                                 #    RADIUS
000472:                                                                                                 #  MOON, USE FIXED        MOON, USE RLS FOR
000473:                                                                                                 #    RADIUS                 LUNAR RADIUS
000474:
000475: 37,2001     4676               ERADFBIT          =        BIT13
000476:
000477:                                                                                                 #  BIT 12 FLAG 1
000478: 37,2001                                          =        018D
000479:
000480:                                                                                                 #  BIT 11 FLAG 1
000481: 37,2001                        ENG2FLAG          =        019D                                  #  RCS BURN               SPS BURN
000482:
000483: 37,2001     4700               ENG2BIT           =        BIT11
000484:
000485:                                                                                                 #  BIT 10 FLAG 1
000486: 37,2001                        TARG1FLG          =        020D                                  #  SIGHTING LEM           NOT SIGHTING LEM
000487:
000488: 37,2001     4701               TARG1BIT          =        BIT10
000489:
000490:                                                                                                 #  BIT 9 FLAG 1
000491: 37,2001                        TARG2FLG          =        021D                                  #  SIGHTING LANDMARK      SIGHTING STAR
000492:
000493: 37,2001     4702               TARG2BIT          =        BIT9
000494:
000495:                                                                                                 #  BIT 9 FLAG 1
000496: 37,2001                        R23FLG            =        021D                                  #  R23 MARKING
000497:
000498: 37,2001     4702               R23BIT            =        BIT9
000499:
000500:                                                                                                 #  BIT 8 FLAG 1
000501: 37,2001                        VEHUPFLG          =        022D                                  #  CSM STATE VECTOR       LEM STATE VECTOR
000502:                                                                                                 #  BEING UPDATED          BEING UPDATED
000503:
000504: 37,2001     4703               VEHUPBIT          =        BIT8
000505:
000506:                                                                                                 #  BIT 7 FLAG 1
000507: 37,2001                        UPDATFLG          =        023D                                  #  UPDATING BY MARKS      UPDATING BY MARKS
000508:                                                                                                 #  ALLOWED                NOT ALLOWED
000509:
000510: 37,2001     4704               UPDATBIT          =        BIT7
000511:
000512:                                                                                                 #  BIT 6 FLAG 1
000513:                                                                                                 #  Page 49
000514: 37,2001                        IDLEFAIL          =        024D                                  #  INHIBIT R41            ENABLE R41 (ENGFAIL)
000515:
000516: 37,2001     4705               IDLEBIT           =        BIT6
000517:
000518:                                                                                                 #  BIT 5 FLAG 1
000519: 37,2001                        TRACKFLG          =        025D                                  #  TRACKING ALLOWED       TRACKING NOT ALLOWED
000520:
000521: 37,2001     4706               TRACKBIT          =        BIT5
000522:
000523:                                                                                                 #  BIT 4 FLAG 1
000524: 37,2001                        TRM03FLG          =        026D                                  #  REQUEST TO             NO REQUEST TO
000525:                                                                                                 #  TERMINATE P03 HAS      TERMINATE P03 HAS
000526:                                                                                                 #  BEEN ENTERED           BEEN ENTERED
000527:
000528: 37,2001     4707               TRM03BIT          =        BIT4
000529:
000530:                                                                                                 #  BIT 3 FLAG 1
000531: 37,2001                        SLOPESW           =        027D                                  #  ITERATE WITH BIAS      ITERATE WITH REGULA
000532:                                                                                                 #  METHOD IN ITERATOR     FALSI METHOD IN
000533:                                                                                                 #                         ITERATOR
000534:
000535: 37,2001     4710               SLOPEBIT          =        BIT3
000536:
000537:                                                                                                 #  BIT 2 FLAG 1
000538: 37,2001                        GUESSW            =        028D                                  #  NO STARTING VALUE      STARTING VALUE FOR
000539:                                                                                                 #  FOR ITERATION          ITERATION EXISTS
000540:
000541: 37,2001     4711               GUESSBIT          =        BIT2
000542:
000543:                                                                                                 #  BIT 1 FLAG 1
000544: 37,2001                        AVEGFLAG          =        029D                                  #  AVERAGEG (SERVICER)    AVERAGEG (SERVICER)
000545:                                                                                                 #  TO CONTINUE            TO CEASE
000546:
000547: 37,2001     4712               AVEGBIT           =        BIT1
000548:
000549: 37,2001     0076               FLAGWRD2          =        STATE      +2                         #  (030-044)
000550:
000551:                                                                                                 #  BIT 15 FLAG 2
000552: 37,2001                        DRIFTFLG          =        030D                                  #  T3RUPT CALLS GYRO      T3RUPT DOES NO GYRO
000553:                                                                                                 #  COMPENSATION           COMPENSATION
000554:
000555: 37,2001     4674               DRFTBIT           =        BIT15
000556:
000557:                                                                                                 #  BIT 14 FLAG 2
000558: 37,2001                        R21MARK           =        031D                                  #  OPTION ONE FOR OPTION TWO FOR
000559:                                                                                                 #  MARKRUPT               MARKRUPT
000560:
000561: 37,2001     4675               R21BIT            =        BIT14
000562:
000563:                                                                                                 #  Page 50
000564:                                                                                                 #  BIT 13 FLAG 2
000565: 37,2001                        22DSPFLG          =        032D                                  #  DISPLAY DR,DV          DO NOT DISPLAY DR,DV
000566:
000567: 37,2001     4676               22DSPBIT          =        BIT13
000568:
000569:                                                                                                 #  BIT 12 FLAG 2
000570: 37,2001                                          =        033D
000571:
000572:                                                                                                 #  BIT 11 FLAG 2
000573: 37,2001                        STEERSW           =        034D                                  #  STEERING TO BE DONE    STEERING OMITTED
000574:
000575: 37,2001     4700               STEERBIT          =        BIT11
000576:
000577:                                                                                                 #  BIT 10 FLAG 2
000578: 37,2001                        CYCLESW           =        035D                                  #  VG CALCULATION TO      VG CALCULATION
000579:                                                                                                 #  BE DONE                OMITTED
000580:
000581: 37,2001     4701               CYCLEBIT          =        BIT10
000582:
000583:                                                                                                 #  BIT 9 FLAG 2
000584: 37,2001                        IMPULSW           =        036D                                  #  MINIMUM IMPULSE        STEERING BURN (NO
000585:                                                                                                 #  BURN (CUTOFF TIME      CUTOFF TIME YET
000586:                                                                                                 #  SPECIFIED)             AVAILABLE)
000587:
000588: 37,2001     4702               IMPULBIT          =        BIT9
000589:
000590:                                                                                                 #  BIT 8 FLAG 2
000591: 37,2001                        XDELVFLG          =        037D                                  #  EXTERNAL DELTAV VG     LAMBERT (AIMPOINT)
000592:                                                                                                 #  COMPUTATION            VG COMPUTATION
000593:
000594: 37,2001     4703               XDELVBIT          =        BIT8
000595:
000596:                                                                                                 #  BIT 7 FLAG 2
000597: 37,2001                        ETPIFLAG          =        038D                                  #  ELEVATION ANGLE        TPI TIME SUPPLIED
000598:                                                                                                 #  SUPPLIED FOR P34,74    FOR P34,74
000599:
000600:                                                                                                 #  BIT 7 FLAG 2
000601: 37,2001  0000046               FIRSTFLG          =        ETPIFLAG                              #  SUCCEEDING PASS        FIRST PASS THRU
000602:                                                                                                 #  THRU S40.9             S40.9
000603:
000604: 37,2001     4704               FIRSTBIT          =        BIT7
000605:
000606:                                                                                                 #  BIT 7 FLAG 2
000607: 37,2001  0000046               OPTNSW            =        ETPIFLAG                              #  SOI PHASE P38/P78      SOR PHASE OF P38/P78
000608:
000609: 37,2001     4705               FINALBIT          =        BIT6
000610:
000611:                                                                                                 #  BIT 6 FLAG 2
000612:                                                                                                 #  Page 51
000613: 37,2001                        FINALFLG          =        039D                                  #  LAST PASS THROUGH      INTERIM PASS THROUGH
000614:                                                                                                 #  RENDEZVOUS PROGRAM     RENDEZVOUS PROGRAM
000615:                                                                                                 #  COMPUTATIONS           COMPUTATIONS
000616:
000617: 37,2001     4706               AVFLBIT           =        BIT5
000618:
000619:                                                                                                 #  BIT 5 FLAG 2
000620: 37,2001                        AVFLAG            =        040D                                  #  LEM IS ACTIVE          CSM IS ACTIVE
000621:                                                                                                 #  VEHICLE                VEHICLE
000622:
000623:                                                                                                 #  BIT 4 FLAG 2
000624: 37,2001                        PFRATFLG          =        041D                                  #  PREFERRED ATTITUDE     PREFERRED ATTITUDE
000625:                                                                                                 #  COMPUTED               NOT COMPUTED
000626:
000627: 37,2001     4707               PFRATBIT          =        BIT4
000628:
000629:                                                                                                 #  BIT 3 FLAG 2
000630: 37,2001                        CALCMAN3          =        042D                                  #  NO FINAL ROLL          FINAL ROLL IS
000631:                                                                                                 #                         NECESSARY
000632:
000633: 37,2001     4710               CALC3BIT          =        BIT3
000634:
000635:                                                                                                 #  BIT 2 FLAG 2
000636: 37,2001                        CALCMAN2          =        043D                                  #  PERFORM MANEUVER       BYPASS STARTING
000637:                                                                                                 #  STARTING PROCEDURE     PROCEDURE
000638:
000639: 37,2001     4711               CALC2BIT          =        BIT2
000640:
000641:                                                                                                 #  BIT 1 FLAG 2
000642: 37,2001                        NODOFLAG          =        044D                                  #  V37 NOT PERMITTED      V37 PERMITTED
000643:
000644: 37,2001     4712               NODOBIT           =        BIT1
000645:
000646: 37,2001     0077               FLAGWRD3          =        STATE      +3                         #  (045-059)
000647:                                                                                                 #  (SET)                  (RESET)
000648:
000649:                                                                                                 #  BIT 15 FLAG 3
000650: 37,2001                                          =        045D
000651:
000652:                                                                                                 #  BIT 14 FLAG 3
000653: 37,2001                        GLOKFAIL          =        046D                                  #  GIMBAL LOCK HAS        NOT IN GIMBAL LOCK
000654:                                                                                                 #  OCCURRED
000655:
000656: 37,2001     4675               GLOKFBIT          =        BIT14
000657:
000658:                                                                                                 #  BIT 13 FLAG 3
000659: 37,2001                        REFSMFLG          =        047D                                  #  REFSMMAT GOOD          REFSMMAT NO GOOD
000660:                                                                                                 #  Page 52
000661: 37,2001     4676               REFSMBIT          =        BIT13
000662:
000663:                                                                                                 #  BIT 12 FLAG 3
000664: 37,2001                        LUNAFLAG          =        048D                                  #  LUNAR LAT-LONG EARTH LAT-LONG
000665:
000666: 37,2001     4677               LUNABIT           =        BIT12
000667:
000668:                                                                                                 #  BIT 11 FLAG 3
000669: 37,2001                        P22MKFLG          =        049D                                  #  P22 DOWNLINKED MARK    P22 DOWNLINK MARK
000670:                                                                                                 #  DATA WAS JUST TAKEN    DATA NOT JUST TAKEN
000671:
000672: 37,2001     4700               P22MKBIT          =        BIT11
000673:
000674:                                                                                                 #  BIT 10 FLAG 3
000675: 37,2001                        VFLAG             =        050D                                  #  LESS THAN TWO STARS    TWO STARS IN FIELD
000676:                                                                                                 #  IN FIELD OF VIEW       OF VIEW
000677:
000678: 37,2001     4701               VFLAGBIT          =        BIT10
000679:
000680:                                                                                                 #  BIT 9 FLAG 3
000681: 37,2001                                          =        051D
000682:
000683:                                                                                                 #  BIT 8 FLAG 3
000684: 37,2001                        PRECIFLG          =        052D                                  #  CSMPREC OR LEMPREC     INTEGRV OR INTEGRVS
000685:                                                                                                 #  CALLED         CALLED
000686:
000687: 37,2001     4703               PRECIBIT          =        BIT8
000688:
000689:                                                                                                 #  BIT 7 FLAG 3
000690: 37,2001                        CULTFLAG          =        053D                                  #  STAR OCCULTED          STAR NOT OCCULTED
000691:
000692: 37,2001     4704               CULTBIT           =        BIT7
000693:
000694:                                                                                                 #  BIT 6 FLAG 3
000695: 37,2001                        ORBWFLAG          =        054D                                  #  W MATRIX VALID FOR     W MATRIX INVALID FOR
000696:                                                                                                 #  ORBITAL NAVIGATION     ORBITAL NAVIGATION
000697:
000698: 37,2001     4705               ORBWFBIT          =        BIT6
000699:
000700:                                                                                                 #  BIT 5 FLAG 3
000701: 37,2001                        STATEFLG          =        055D                                  #  PERMANENT STATE        PERMANENT STATE
000702:                                                                                                 #  VECTOR UPDATED VECTOR NOT UPDATED
000703:
000704: 37,2001     4706               STATEBIT          =        BIT5
000705:
000706:                                                                                                 #  BIT 4 FLAG 3
000707: 37,2001                        INTYPFLG          =        056D                                  #  CONIC INTEGRATION      ENCKE INTEGRATION
000708:
000709: 37,2001     4707               INTYBIT           =        BIT4
000710:
000711:                                                                                                 #  Page 53
000712:                                                                                                 #  BIT 3 FLAG 3
000713: 37,2001                        VINTFLAG          =        057D                                  #  CSM STATE VECTOR       LEM STATE VECTOR
000714:                                                                                                 #  BEING INTEGRATED       BEING INTEGRATED
000715:
000716: 37,2001     4710               VINTFBIT          =        BIT3
000717:
000718:                                                                                                 #  BIT 2 FLAG 3
000719: 37,2001                        D6OR9FLG          =        058D                                  #  DIMENSION OF W IS 9    DIMENSION OF W IS 6
000720:                                                                                                 #  FOR INTEGRATION        FOR INTEGRATION
000721:
000722: 37,2001     4711               D6OR9BIT          =        BIT2
000723:
000724:                                                                                                 #  BIT 1 FLAG 3
000725: 37,2001                        DIM0FLAG          =        059D                                  #  W MATRIX IS TO BE      W MATRIX IS NOT TO
000726:                                                                                                 #  USED                   BE USED
000727:
000728: 37,2001     0100               FLAGWRD4          =        STATE      +4                         #  (060-074)
000729:                                                                                                 #  (SET)                  (RESET)
000730:
000731: 37,2001     4712               DIM0BIT           =        BIT1
000732:
000733:                                                                                                 #  BIT 15 FLAG 4
000734: 37,2001                        MRKIDFLG          =        060D                                  #  MARK DISPLAY IN        NO MARK DISPLAY IN
000735:                                                                                                 #  ENDIDLE                ENDIDLE
000736:
000737: 37,2001     4674               MRKIDBIT          =        BIT15
000738:
000739:                                                                                                 #  BIT 14 FLAG 4
000740: 37,2001                        PRIODFLG          =        061D                                  #  PRIORITY DISPLAY IN    NO PRIORITY DISPLAY
000741:                                                                                                 #  ENDIDLE                IN ENDIDLE
000742:
000743: 37,2001     4675               PRIODBIT          =        BIT14
000744:
000745:                                                                                                 #  BIT 13 FLAG 4
000746: 37,2001                        NRMIDFLG          =        062D                                  #  NORMAL DISPLAY IN      NO NORMAL DISPLAY
000747:                                                                                                 #  ENDIDLE                IN ENDIDLE
000748:
000749: 37,2001     4676               NRMIDBIT          =        BIT13
000750:
000751:                                                                                                 #  BIT 12 FLAG 4
000752: 37,2001                        PDSPFLAG          =        063D                                  #  CAN'T INTERRUPT        SEE M. HAMILTON
000753:                                                                                                 #  PRIORITY DISPLAY
000754:
000755: 37,2001     4677               PDSPFBIT          =        BIT12
000756:
000757:                                                                                                 #  BIT 11 FLAG 4
000758: 37,2001                        MWAITFLG          =        064D                                  #  HIGHER PRIORITY        NO HIGHER PRIORITY
000759:                                                                                                 #  DISPLAY OPERATING      DISPLAY OPERATING
000760:                                                                                                 #  WHEN MARK DISPLAY      WHEN MARK DISPLAY
000761:                                                                                                 #  Page 54
000762: 37,2001     4700               MWAITBIT          =        BIT11
000763:
000764:                                                                                                 #  BIT 10 FLAG 4
000765: 37,2001                        NWAITFLG          =        065D                                  #  HIGHER PRIORITY        NO HIGHER PRIORITY
000766:                                                                                                 #  DISPLAY OPERATING      DISPLAY OPERATING
000767:                                                                                                 #  WHEN NORMAL            WHEN NORMAL DISPLAY
000768:                                                                                                 #  DISPLAY INITIATED      INITIATED
000769:
000770: 37,2001     4701               NWAITBIT          =        BIT10
000771:
000772:                                                                                                 #  BIT 9 FLAG 4
000773: 37,2001                        MRKNVFLG          =        066D                                  #  ASTRONAUT USING        ASTRONAUT NOT USING
000774:                                                                                                 #  KEYBOARD WHEN MARK     KEYBOARD WHEN MARK
000775:                                                                                                 #  DISPLAY INITIATED      DISPLAY INITIATED
000776:
000777: 37,2001     4702               MRKNVBIT          =        BIT9
000778:
000779:                                                                                                 #  BIT 8 FLAG 4
000780: 37,2001                        NRMNVFLG          =        067D                                  #  ASTRONAUT USING        ASTRONAUT NOT USING
000781:                                                                                                 #  KEYBOARD WHEN          KEYBOARD WHEN
000782:                                                                                                 #  NORMAL DISPLAY NORMAL DISPLAY
000783:                                                                                                 #  INITIATED              INITIATED
000784:
000785: 37,2001     4703               NRMNVBIT          =        BIT8
000786:
000787:                                                                                                 #  BIT 7 FLAG 4
000788: 37,2001                        PRONVFLG          =        068D                                  #  ASTRONAUT USING        ASTRONAUT NOT USING
000789:                                                                                                 #  KEYBOARD WHEN          KEYBOARD WHEN
000790:                                                                                                 #  PRIORITY DISPLAY       PRIORITY DISPLAY
000791:                                                                                                 #  INITIATED              INITIATED
000792:
000793: 37,2001     4704               PRONVBIT          =        BIT7
000794:
000795:                                                                                                 #  BIT 6 FLAG 4
000796: 37,2001                        PINBRFLG          =        069D                                  #  ASTRONAUT HAS          ASTRONAUT HAS NOT
000797:                                                                                                 #  INTERFERED WITH        INTERFERED WITH
000798:                                                                                                 #  EXISTING DISPLAY       EXISTING DISPLAY
000799:
000800: 37,2001     4705               PINBRBIT          =        BIT6
000801:
000802:                                                                                                 #  BIT 5 FLAG 4
000803: 37,2001                        MRUPTFLG          =        070D                                  #  MARK DISPLAY           MARK DISPLAY NOT
000804:                                                                                                 #  INTERRUPTED BY INTERRUPTED BY
000805:                                                                                                 #  PRIORITY DISPLAY       PRIORITY DISPLAY
000806:
000807: 37,2001     4706               MRUPTBIT          =        BIT5
000808:
000809:                                                                                                 #  BIT 4 FLAG 4
000810:                                                                                                 #  Page 55
000811: 37,2001                        NRUPTFLG          =        071D                                  #  NORMAL DISPLAY NORMAL DISPLAY NOT
000812:                                                                                                 #  INTERRUPTED BY INTERRUPTED BY
000813:                                                                                                 #  PRIORITY OR MARK       PRIORITY OR MARK
000814:                                                                                                 #  DISPLAY                DISPLAY
000815:
000816: 37,2001     4707               NRUPTBIT          =        BIT4
000817:
000818:                                                                                                 #  BIT 3 FLAG 4
000819: 37,2001                        MKOVFLAG          =        072D                                  #  MARK DISPLAY OVER      NO MARK DISPLAY OVER
000820:                                                                                                 #  NORMAL         NORMAL
000821:
000822: 37,2001     4710               MKOVBIT           =        BIT3
000823:
000824:                                                                                                 #  BIT 2 FLAG 4                           # DISPLAY BIT
000825: 37,2001                                          =        073D                                  #  CLEARED AT INTERVALS
000826:
000827:                                                                                                 #  BIT 1 FLAG 4
000828: 37,2001                        XDSPFLAG          =        074D                                  #  MARK DISPLAY NOT TO    NO SPECIAL MARK
000829:                                                                                                 #  BE INTERRUPTED INFORMATION
000830:
000831: 37,2001     4712               XDSPBIT           =        BIT1
000832:
000833: 37,2001     0101               FLAGWRD5          =        STATE      +5                         #  (075-099)
000834:                                                                                                 #  (SET)                  (RESET)
000835:
000836:                                                                                                 #  BIT 15 FLAG 5
000837: 37,2001                        DSKYFLAG          =        075D                                  #  DISPLAYS SENT TO       NO DISPLAYS TO DSKY
000838:                                                                                                 #  DSKY
000839:
000840: 37,2001     4674               DSKYBIT           =        BIT15
000841:
000842:                                                                                                 #  BIT 14 FLAG 5
000843: 37,2001                                          =        076D
000844:
000845:                                                                                                 #  BIT 13 FLAG 5
000846: 37,2001                                          =        077D
000847:
000848:                                                                                                 #  BIT 12 FLAG 5
000849: 37,2001                        V59FLAG           =        078D                                  #  CALIBRATING FOR        NORMAL MARKING FOR
000850:                                                                                                 #  P23                    P23
000851:
000852: 37,2001     4677               V59FLBIT          =        BIT12
000853:
000854:                                                                                                 #  BIT 11 FLAG 5
000855: 37,2001                        INCORFLG          =        079D                                  #  FIRST INCORPORATION    SECOND INCORPORATION
000856:
000857: 37,2001     4700               INCORBIT          =        BIT11
000858:
000859:                                                                                                 #  Page 56
000860:                                                                                                 #  BIT 10 FLAG 5
000861: 37,2001                        RNGSCFLG          =        080D                                  #  ANOTHER TAG FOR PRFTRKAT
000862:
000863:                                                                                                 #  BIT 10 FLAG 5
000864: 37,2001  0000120               PRFTRKAT          =        RNGSCFLG                              #  PREF TRACK ATT +K AXIS TRACK ATT
000865:
000866: 37,2001     4701               PRFTRBIT          =        BIT10
000867:
000868:                                                                                                 #  BIT 9 FLAG 5
000869: 37,2001                        DMENFLG           =        081D                                  #  DIMENSION OF W IS 9    DIMENSION OF W IS 6
000870:                                                                                                 #  FOR INCORPORATION      FOR INCORPORATION
000871:
000872: 37,2001     4702               DMENFBIT          =        BIT9
000873:
000874:                                                                                                 #  BIT 8 FLAG 5
000875: 37,2001                        COMPUTER          =        082D                                  #  COMPUTER IS CMC        COMPUTER IS LGC
000876:
000877: 37,2001     4703               COMPTBIT          =        BIT8
000878:
000879:                                                                                                 #  BIT 7 FLAG 5
000880: 37,2001                        ENGONFLG          =        083D                                  #  ENGINE TURNED ON       ENGINE TURNED OFF
000881:
000882: 37,2001     4704               ENGONBIT          =        BIT7
000883:
000884:                                                                                                 #  BIT 6 FLAG 5
000885: 37,2001                        3AXISFLG          =        084D                                  #  MANEUVER SPECIFIED     MANEUVER SPECIFIED
000886:                                                                                                 #  BY THREE AXES          BY ONE AXIS
000887:
000888: 37,2001     4705               3AXISBIT          =        BIT6
000889:
000890:                                                                                                 #  BIT 5 FLAG 5
000891: 37,2001                        GRRBKFLG          =        085D                                  #  BACKUP GRR RECEIVED    BACKUP GRR NOT
000892:                                                                                                 #                         RECEIVED
000893:
000894: 37,2001     4706               GRRBKBIT          =        BIT5
000895:
000896:                                                                                                 #  BIT 4 FLAG 5
000897: 37,2001                        R60FLAG           =        086D                                  #  R61 MUST BE ZERO       NORMAL R61
000898:
000899: 37,2001     4707               R60FLBIT          =        BIT4
000900:
000901:                                                                                                 #  BIT 3 FLAG 5
000902: 37,2001                        SOLNSW            =        087D                                  #  LAMBERT DOES NOT       LAMBERT CONVERGES OR
000903:                                                                                                 #  CONVERGE, OR TIME-     TIME-RADIUS NON
000904:                                                                                                 #  RADIUS NEARLY CIRC.    CIRCULAR.
000905:                                                                                                 #  Page 57
000906: 37,2001     4710               SOLNSBIT          =        BIT3
000907:
000908:                                                                                                 #  BIT 2 FLAG 5
000909: 37,2001                        MGLVFLAG          =        088D                                  #  LOCAL VERTICAL MIDDLE GIMBAL ANGLE
000910:                                                                                                 #  COORDINATES            COMPUTED
000911:                                                                                                 #  COMPUTED
000912:
000913: 37,2001     4711               MGLVFBIT          =        BIT2
000914:
000915:                                                                                                 #  BIT 1 FLAG 5
000916: 37,2001                        RENDWFLG          =        089D                                  #  W MATRIX VALID W MATRIX INVALID
000917:                                                                                                 #  FOR RENDEZVOUS FOR RENDEZVOUS
000918:                                                                                                 #  NAVIGATION             NAVIGATION
000919:
000920: 37,2001     4712               RENDWBIT          =        BIT1
000921:
000922: 37,2001     0102               FLAGWRD6          =        STATE      +6                         #  (090-104)
000923:                                                                                                 #  (SET)                  (RESET)
000924:
000925:                                                                                                 #  BIT 15 FLAG 6
000926: 37,2001                        DAPBIT1           =        090D                                  #  1 SATURN 1 TVC 0 RCS   0 NO
000927:
000928: 37,2001     4674               DAP1BIT           =        BIT15
000929:
000930:                                                                                                 #  BIT 14 FLAG 6
000931: 37,2001                        DAPBIT2           =        091D                                  #  1 A/P    0 A/P 1 A/P   0 A/P
000932:
000933: 37,2001     4675               DAP2BIT           =        BIT14
000934:
000935:                                                                                                 #  BIT 13 FLAG 6
000936: 37,2001                        STRULLSW          =        092D                                  #  DO STEERULL            DO ULAGEOFF ONLY
000937:
000938: 37,2001     4676               STRULBIT          =        BIT13
000939:
000940:                                                                                                 #  BIT 13 FLAG 6
000941: 37,2001  0000134               ENTRYDSP          =        STRULLSW                              #  DO ENTRY DISPLAY       OMIT ENTRY DISPLAY
000942:                                                                                                 #  VIA ENTRYVN.
000943:
000944: 37,2001     4676               ENDSPBIT          =        BIT13
000945:
000946:                                                                                                 #  BIT 12 FLAG 6
000947: 37,2001                        CMDAPARM          =        093D                                  #  ALLOW ENTRY FIRINGS    INHIBIT ENTRY FIRING
000948:                                                                                                 #  AND CALCULATIONS       AND CONTROL FUNCTION
000949:
000950: 37,2001     4677               CMDARMBIT          =        BIT12
000951:
000952:                                                                                                 #  BIT 11 FLAG 6
000953: 37,2001                        GAMDIFSW          =        094D                                  #  CALCULATE GAMDOT       GAMDOT NOT TO BE
000954:                                                                                                 #  Page 58
000955:                                                                                                 #                         CALCULATED
000956:
000957: 37,2001     4700               GMDIFBIT          =        BIT11
000958:
000959:                                                                                                 #  BIT 10 FLAG 6
000960: 37,2001                        GMBDRVSW          =        095D                                  #  TRIMGIMB OVER          TRIMGIMB NOT OVER
000961:
000962: 37,2001     4701               GMBDRBIT          =        BIT10
000963:
000964:                                                                                                 #  BIT 10 FLAG 6
000965: 37,2001  0000137               GONEPAST          =        GMBDRVSW                              #  LATERAL CONTROL        LATERAL CONTROL
000966:                                                                                                 #  CALCULATIONS TO BE     CALCULATIONS TO BE
000967:                                                                                                 #  OMITTED                DONE
000968:
000969: 37,2001     4701               GONEBIT           =        BIT10
000970:
000971:                                                                                                 #  BIT 9 FLAG 6
000972: 37,2001                        RELVELSW          =        096D                                  #  TARGETING USES TARGETING USES
000973:                                                                                                 #  EARTH-RELATIVE INERTIAL VELOCITY
000974:                                                                                                 #  VELOCITY.
000975:
000976: 37,2001     4702               RELVBIT           =        BIT9
000977:
000978:                                                                                                 #  BIT 8 FLAG 6
000979: 37,2001                        EGSW              =        097D                                  #  IN FINAL PHASE NOT IN FINAL PHASE
000980:
000981: 37,2001     4703               EGFLGBIT          =        BIT8
000982:
000983:                                                                                                 #  BIT 8 FLAG 6
000984: 37,2001  0000141               KNOWNFLG          =        EGSW                                  #  LANDMARK KNOWN LANDMARK UNKNOWN
000985:
000986: 37,2001     4703               KNOWNBIT          =        BIT8
000987:
000988:                                                                                                 #  BIT 8 FLAG 6
000989: 37,2001  0000141               R57FLAG           =        KNOWNFLG                              #  DO NOT DO R57          DO R57, TRUNION
000990:                                                                                                 #  TRUNION BIAS HAS       BIAS NEEDED
000991:                                                                                                 #  BEEN OBTAINED.
000992:
000993: 37,2001     4703               R57BIT            =        BIT8
000994:
000995:                                                                                                 #  BIT 7 FLAG 6
000996: 37,2001                        NOSWITCH          =        098D                                  #  LATERAL ROLL           LATERAL ROLL MANEUVER
000997:                                                                                                 #  MANEUVER INHIBITED     PERMITTED IN ENTRY
000998:                                                                                                 #  IN ENTRY
000999:
001000: 37,2001     4704               NOSWBIT           =        BIT7
001001:
001002:                                                                                                 #  BIT 6 FLAG 6
001003: 37,2001                        HIND              =        099D                                  #  ITERATING HUNTEST      ITERATING OF HUNTEST
001004:                                                                                                 #  CALCULATIONS TO BE     CALCULATIONS TO BE
001005:                                                                                                 #  DONE AFTER RANGE       OMITTED AFTER RANGE
001006:                                                                                                 #  Page 59
001007:                                                                                                 #  PREDICTION             PREDICTION
001008:
001009: 37,2001     4705               HINDBIT           =        BIT6
001010:
001011:                                                                                                 #  BIT 5 FLAG 6
001012: 37,2001                        INRLSW            =        100D                                  #  INITIAL ROLL           INITIAL ROLL
001013:                                                                                                 #  ATTITUDE NOT HELD      ATTITUDE HELD
001014:                                                                                                 #  V(LV)                  V(LV)
001015:
001016: 37,2001     4706               INRLBIT           =        BIT5
001017:
001018:                                                                                                 #  BIT 4 FLAG 6
001019: 37,2001                        LATSW             =        101D                                  #  DOWNLIFT NOT           DOWNLIFT INHIBITED
001020:                                                                                                 #  INHIBITED
001021:
001022: 37,2001     4707               LATSWBIT          =        BIT4
001023:
001024:                                                                                                 #  BIT 3 FLAG 6
001025: 37,2001                        .05GSW            =        102D                                  #  DRAG OVER .05G DRAG LESS THAN .05G
001026:
001027: 37,2001     4710               .05GBIT           =        BIT3
001028:
001029:                                                                                                 #  BIT 3 FLAG 6
001030: 37,2001                        NTARGFLG          =        102D                                  #  ASTRONAUT DID          ASTRONAUT DID NOT
001031:                                                                                                 #  OVERWRITE DELTA        OVERWRITE DELTA
001032:
001033: 37,2001     4710               NTARGBIT          =        BIT3
001034:
001035:                                                                                                 #  BIT 2 FLAG 6
001036: 37,2001                        CM/DSTBY          =        103D                                  #  ENTRY DAP ACTIVATED    ENTRY DAP NOT
001037:                                                                                                 #                         ACTIVATED
001038:
001039: 37,2001     4711               CM/DSBIT          =        BIT2
001040:
001041:                                                                                                 #  BIT 1 FLAG 6
001042: 37,2001                        GYMDIFSW          =        104D                                  #  CDU DIFFERENCES AND    CDU DIFFERENCES AND
001043:                                                                                                 #  BODY RATES COMPUTED    BODY RATES NOT
001044:                                                                                                 #                         COMPUTED
001045:
001046: 37,2001     4712               GYMDIBIT          =        BIT1
001047:
001048: 37,2001     0103               FLAGWRD7          =        STATE      +7                         #  (105-119)
001049:                                                                                                 #  (SET)                  (RESET)
001050:
001051:                                                                                                 #  BIT 15 FLAG 7
001052: 37,2001                        TERMIFLG          =        105D                                  #  TERMINATE R21,R22      DO NOT TERMINATE
001053:                                                                                                 #                         R21,R22
001054:
001055: 37,2001     4674               TERMIBIT          =        BIT15
001056:
001057:                                                                                                 #  Page 60
001058:                                                                                                 #  BIT 14 FLAG 7
001059: 37,2001                        ITSWICH           =        106D                                  #  ACCEPT NEXT LAMBERT    TEST LAMBERT ANSWER
001060:                                                                                                 #  TPI SEARCH SOLUTION    AGAINST LIMITS
001061:
001062: 37,2001     4675               ITSWBIT           =        BIT14
001063:
001064:                                                                                                 #  BIT 13 FLAG 7
001065: 37,2001                        IGNFLAG           =        107D                                  #  TIG HAS ARRIVED        TIG HAS NOT ARRIVED
001066:
001067: 37,2001     4676               IGNFLBIT          =        BIT13
001068:
001069:                                                                                                 #  BIT 12 FLAG 7
001070: 37,2001                        ASTNFLAG          =        108D                                  #  ASTRONAUT HAS          ASTRONAUT HAS NOT
001071:                                                                                                 #  OKAYED IGNITION        OKAYED IGNITION
001072:
001073: 37,2001     4677               ASTNBIT           =        BIT12
001074:
001075:                                                                                                 #  BIT 11 FLAG 7
001076: 37,2001                        TIMRFLAG          =        109D                                  #  CLOKTASK OPERATING     CLOKTASK INOPERATIVE
001077:
001078: 37,2001     4700               TIMRBIT           =        BIT11
001079:
001080:                                                                                                 #  BIT 10 FLAG 7
001081: 37,2001                        NORMSW            =        110D                                  #  UNIT NORMAL INPUT      LAMBERT COMPUTE ITS
001082:                                                                                                 #  TO LAMBERT.            OWN UNIT NORMAL.
001083:
001084: 37,2001     4701               NORMSBIT          =        BIT10
001085:
001086:                                                                                                 #  BIT 9 FLAG 7
001087: 37,2001                        RVSW              =        111D                                  #  DO NOT COMPUTE FINAL   COMPUTE FINAL STATE
001088:                                                                                                 #  STATE VECTOR IN        VECTOR IN TIME-THETA
001089:                                                                                                 #  TIME-THETA
001090:
001091: 37,2001     4702               RVSWBIT           =        BIT9
001092:
001093:                                                                                                 #  BIT 8 FLAG 7
001094: 37,2001                        GONEBY            =        112D                                  #  PASSED TARGET          APPROACHING TARGET
001095:
001096: 37,2001     4703               GONBYBIT          =        BIT8
001097:
001098:                                                                                                 #  BIT 7 FLAG 7
001099: 37,2001                        IDLEFLAG          =        113D                                  #  NO DV MONITOR          CONNECT DV MONITOR
001100:
001101: 37,2001     4704               IDLEFBIT          =        BIT7
001102:
001103:                                                                                                 #  BIT 6 FLAG 7
001104: 37,2001                        V37FLAG           =        114D                                  #  AVERAGEG (SERVICER)    AVERAGEG (SERVICER)
001105:                                                                                                 #  RUNNING                OFF
001106:                                                                                                 #  Page 61
001107: 37,2001     4705               V37FLBIT          =        BIT6
001108:
001109:                                                                                                 #  BIT 5 FLAG 7
001110: 37,2001                                          =        115D
001111: 37,2001                                          =        BIT5
001112:
001113:                                                                                                 #  BIT 4 FLAG 7
001114: 37,2001                        UPLOCKFL          =        116D                                  #  K-KBAR-K FAIL          NO K-KBAR-K FAIL
001115:
001116: 37,2001     4707               UPLOCBIT          =        BIT4
001117:
001118:                                                                                                 #  BIT 3 FLAG 7
001119: 37,2001                        VERIFLAG          =        117D                                  #  CHANGED WHEN V33E OCCURS AT END OF P27
001120:
001121: 37,2001     4710               VERIFBIT          =        BIT3
001122:
001123:                                                                                                 #  BIT 2 FLAG 7
001124: 37,2001                        ATTCHFLG          =        118D                                  #  LM,CM ATTACHED LM,CM NOT ATTACHED
001125:
001126: 37,2001     4711               ATTCHBIT          =        BIT2
001127:
001128:                                                                                                 #  BIT 1 FLAG 7
001129: 37,2001                        TFFSW             =        119D                                  #  CALCULATE TPERIGEE     CALCULATE TFF
001130:
001131: 37,2001     4712               TFFSWBIT          =        BIT1
001132:
001133: 37,2001     0074               FLAGWRD8          =        STATE      +8                         #  (120-134)
001134:                                                                                                 #  (SET)                  (RESET)
001135:
001136:                                                                                                 #  BIT 15 FLAG 8
001137: 37,2001                        RPQFLAG           =        120D                                  #  RPQ NOT COMPUTED       RPQ COMPUTED
001138:
001139: 37,2001     4674               RPQFLBIT          =        BIT15
001140:
001141:                                                                                                 #  BIT 14 FLAG 8
001142: 37,2001                                          =        121D
001143:
001144:                                                                                                 #  BIT 13 FLAG 8
001145: 37,2001                        NEWIFLG           =        122D                                  #  FIRST PASS THROUGH     SUCCEEDING ITERATION
001146:                                                                                                 #  INTEGRATION            OF INTEGRATION
001147:
001148: 37,2001     4676               NEWIBIT           =        BIT13
001149:
001150:                                                                                                 #  BIT 12 FLAG 8
001151: 37,2001                        CMOONFLG          =        123D                                  #  PERMANENT CSM STATE    PERMANENT CSM STATE
001152:                                                                                                 #  IN LUNAR SPHERE        IN EARTH SPHERE
001153:
001154: 37,2001     4677               CMOONBIT          =        BIT12
001155:
001156:                                                                                                 #  Page 62
001157:                                                                                                 #  BIT 11 FLAG 8
001158: 37,2001                        LMOONFLG          =        124D                                  #  PERMANENT LM STATE     PERMANENT LM STATE
001159:                                                                                                 #  IN LUNAR SPHERE        IN EARTH SPHERE
001160:
001161: 37,2001     4700               LMOONBIT          =        BIT11
001162:
001163:                                                                                                 #  BIT 10 FLAG 8
001164: 37,2001                        ADVTRK            =        125D                                  #  ADVANCE GROUND TRACK   NOT ADVANCED
001165:                                                                                                 #  SIGHTING WANTED        GROUND TRACK
001166:
001167: 37,2001     4701               ADVTKBIT          =        BIT10
001168:
001169:                                                                                                 #  BIT 9 FLAG 8
001170: 37,2001                        P39/79SW          =        126D                                  #  P39/79 OPERATING       P38/78 OPERATING
001171:
001172: 37,2001     4702               P39SWBIT          =        BIT9
001173:
001174:                                                                                                 #  BIT 8 FLAG 8
001175: 37,2001                        SURFFLAG          =        127D                                  #  LM ON LUNAR SURFACE    LM NOT ON LUNAR
001176:                                                                                                 #                         SURFACE
001177:
001178: 37,2001     4703               SURFFBIT          =        BIT8
001179:
001180:                                                                                                 #  BIT 7 FLAG 8
001181: 37,2001                        INFINFLG          =        128D                                  #  NO CONIC SOLUTION      CONIC SOLUTION
001182:                                                                                                 #  (CLOSURE THROUGH       EXISTS.
001183:                                                                                                 #  INFINITY REQUIRED).
001184:
001185: 37,2001     4704               INFINBIT          =        BIT7
001186:
001187:                                                                                                 #  BIT 6 FLAG 8
001188: 37,2001                        ORDERSW           =        129D                                  #  ITERATOR USES 2ND      ITERATOR USES 1ST
001189:                                                                                                 #  ORDER MINIMUM MODE     ORDER STANDARD MODE
001190:
001191: 37,2001     4705               ORDERBIT          =        BIT6
001192:
001193:                                                                                                 #  BIT 5 FLAG 8
001194: 37,2001                        APSESW            =        130D                                  #  RDESIRED OUTSIDE       RDESIRED INSIDE
001195:                                                                                                 #  PERICENTER-APOCENTER   PERICENTER-APOCENTER
001196:                                                                                                 #  RANGE IN TIME-RAD      RANGE IN TIME-RADIUS
001197:
001198: 37,2001     4706               APSESBIT          =        BIT5
001199:
001200:                                                                                                 #  BIT 4 FLAG 8
001201: 37,2001                        COGAFLAG          =        131D                                  #  NO CONIC SOLUTION      CONIC SOLUTION
001202:                                                                                                 #  TOO CLOSE TO           EXISTS (COGA DOES
001203:                                                                                                 #  RECTILINEAR (COGA      NOT OVERFLOW).
001204:                                                                                                 #  OVERFLOWS).
001205:                                                                                                 #  Page 63
001206: 37,2001     4707               COGAFBIT          =        BIT4
001207:
001208:                                                                                                 #  BIT 3 FLAG 8
001209: 37,2001                                          =        132D
001210:
001211:                                                                                                 #  BIT 2 FLAG 8
001212: 37,2001                                          =        133D
001213:
001214:                                                                                                 #  BIT 1 FLAG 8
001215: 37,2001                        360SW             =        134D                                  #  TRANSFER ANGLE NEAR    TRANSFER ANGLE NOT
001216:                                                                                                 #  360 DEGREES            NEAR 360 DEGREES
001217:
001218: 37,2001     4712               360SWBIT          =        BIT1
001219:
001220: 37,2001     0105               FLAGWRD9          =        STATE      +9D                        #  (135-149)
001221:                                                                                                 #  (SET)                  (RESET)
001222:
001223:                                                                                                 #  BIT 15 FLAG 9
001224: 37,2001                        SWTOVER           =        135D                                  #  SWITCHOVER HAS NO SWITCHOVER YET
001225:                                                                                                 #  OCCURRED.
001226:
001227: 37,2001     4674               SWTOVBIT          =        BIT15
001228:
001229:                                                                                                 #  BIT 14 FLAG 9
001230: 37,2001                        V67FLAG           =        136D                                  #  ASTRONAUT OVERWRITES   ASTRONAUT DOES NOT
001231:                                                                                                 #  W MATRIX INITIAL       OVERWRITE INITIAL
001232:                                                                                                 #  VALUES         VALUES
001233:
001234: 37,2001     4675               V67FLBIT          =        BIT14
001235:
001236:                                                                                                 #  BIT 13 FLAG 9
001237: 37,2001                        V82EMFLG          =        137D                                  #  MOON VICINITY          EARTH VICINITY
001238:
001239: 37,2001     4676               V82EMBIT          =        BIT13
001240:
001241:                                                                                                 #  BIT 12 FLAG 9
001242: 37,2001                        MAXDBFLG          =        138D                                  #  MAX DB SELECTED        MIN DB SELECTED
001243:
001244: 37,2001     4677               MAXDBBIT          =        BIT12
001245:
001246:                                                                                                 #  BIT 11 FLAG 9
001247: 37,2001                        V94FLAG           =        139D                                  #  V94 ALLOWED DURING     V92 NOT ALLOWED
001248:                                                                                                 #  P23
001249:
001250: 37,2001     4700               V94FLBIT          =        BIT11
001251:
001252:                                                                                                 #  Page 64
001253:                                                                                                 #  BIT 10 FLAG 9
001254: 37,2001                        SAVECFLG          =        140D                                  #  P23 DISPLAY AND        P23 DISPLAY AND
001255:                                                                                                 #  DATA STORAGE AFTER     DATA STORAGE BEFORE
001256:                                                                                                 #  MARK IS DONE           MARK IS DONE
001257:
001258: 37,2001     4701               SAVECBIT          =        BIT10
001259:
001260:                                                                                                 #  BIT 9 FLAG 9
001261: 37,2001                        VHFRFLAG          =        141D                                  #  ALLOW R22 TO           STOP ACCEPTANCE
001262:                                                                                                 #  ACCEPT RANGE           OF RANGE DATA
001263:                                                                                                 #  DATA
001264:
001265: 37,2001     4702               VHFRBIT           =        BIT9
001266:
001267:                                                                                                 #  BIT 8 FLAG 9
001268: 37,2001                        SOURCFLG          =        142D                                  #  SOURCE OF INPUT        SOURCE OF INPUT
001269:                                                                                                 #  DATA IS FROM           DATA IS FROM
001270:                                                                                                 #  VHF RADAR              OPTICS MARK
001271:
001272: 37,2001     4703               SOURCBIT          =        BIT8
001273:
001274:                                                                                                 #  BIT 7 FLAG 9
001275: 37,2001                        R22CAFLG          =        143D                                  #  R-22 CALCULATIONS      R-22 CALCULATIONS
001276:                                                                                                 #  ARE GOING ON           ARE NOT GOING ON
001277:
001278: 37,2001     4704               R22CABIT          =        BIT7
001279:
001280:                                                                                                 #  BIT 6 FLAG 9
001281: 37,2001                        N22ORN17          =        144D                                  #  COMPUTE TOTAL          COMPUTE TOTAL
001282:                                                                                                 #  ATTITUDE ERRORS        ATTITUDE ERRORS
001283:                                                                                                 #  W.R.T. N22 (V62)       W.R.T. N17 (V63)
001284:
001285: 37,2001     4705               N2217BIT          =        BIT6
001286:
001287:                                                                                                 #  BIT 5 FLAG 9
001288: 37,2001                        QUITFLAG          =        145D
001289:
001290: 37,2001     4706               QUITBIT           =        BIT5
001291:
001292:                                                                                                 #  BIT 4 FLAG 9
001293: 37,2001                        R31FLAG           =        146D                                  #  R31 SELECTED (V63)     R34 SELECTED (V65)
001294:
001295: 37,2001     4707               R32FLBIT          =        BIT4
001296:
001297:                                                                                                 #  BIT 3 FLAG 9
001298: 37,2001                        MID1FLAG          =        147D                                  #  INTEGRATE TO TDEC      INTEGRATE TO THE
001299:                                                                                                 #                         THEN-PRESENT TIME
001300:
001301: 37,2001     4710               MID1FBIT          =        BIT3
001302:
001303:                                                                                                 #  Page 65
001304:                                                                                                 #  BIT 2 FLAG 9
001305: 37,2001                        MIDAVFLG          =        148D                                  #  INTEGRATION ENTERED    INTEGRATION WAS
001306:                                                                                                 #  FROM ONE OF MIDTOAV    NOT ENTERED VIA
001307:                                                                                                 #  PORTALS                MIDTOAV
001308:
001309: 37,2001     4711               MIDAVBIT          =        BIT2
001310:
001311:                                                                                                 #  BIT 1 FLAG 9
001312: 37,2001                        AVEMIDSW          =        149D                                  #  AVETOMID CALLING       NO AVETOMID W INTEGER
001313:                                                                                                 #  FOR W MATRIX INTEGR    ALLOW SET UP RN,VN,
001314:                                                                                                 #  DON'T WRITE OVER RN,   PIPTIME
001315:                                                                                                 #  VN,PIPTIME
001316:
001317: 37,2001     4712               AVEMDBIT          =        BIT1
001318:
001319: 37,2001     0106               FLGWRD10          =        STATE      +10D                       #  (150-164)
001320:                                                                                                 #  (SET)                  (RESET)
001321:
001322: 37,2001     0106               RASFLAG           =        STATE      +10D
001323:
001324:                                                                                                 #  BIT 15 FLAG 10
001325: 37,2001                                          =        150D
001326:
001327:                                                                                                 #  BIT 14 FLAG 10
001328: 37,2001                        INTFLAG           =        151D                                  #  INTEGRATION IN INTEGRATION NOT IN
001329:                                                                                                 #  PROGRESS               PROGRESS
001330:
001331: 37,2001     4675               INTFLBIT          =        BIT14
001332:
001333:                                                                                                 #  BIT 13 FLAG 10
001334: 37,2001                                          =        152D
001335:
001336:                                                                                                 #  BIT 12 FLAG 10
001337: 37,2001                                          =        153D
001338:
001339:                                                                                                 #  BIT 11 FLAG 10
001340: 37,2001                                          =        154D
001341:
001342:                                                                                                 #  BIT 10 FLAG 10
001343: 37,2001                                          =        155D
001344:
001345:                                                                                                 #  BIT 9 FLAG 10
001346: 37,2001                                          =        156D
001347:
001348:                                                                                                 #  Page 66
001349:                                                                                                 #  BIT 8 FLAG 10
001350: 37,2001                                          =        157D
001351:
001352:                                                                                                 #  BIT 7 FLAG 10
001353: 37,2001                        REINTFLG          =        158D                                  #  INTEGRATION ROUTINE    INTEGRATION ROUTINE
001354:                                                                                                 #  TO BE RESTARTED        NOT TO BE RESTARTED
001355: 37,2001     4704               REINTBIT          =        BIT7
001356:
001357:                                                                                                 #  BIT 6 FLAG 10
001358: 37,2001                                          =        159D
001359:
001360:                                                                                                 #  BIT 5 FLAG 10
001361: 37,2001                                          =        160D
001362:
001363:                                                                                                 #  BIT 4 FLAG 10
001364: 37,2001                                          =        161D
001365:
001366:                                                                                                 #  BIT 3 FLAG 10
001367: 37,2001                                          =        162D
001368:
001369:                                                                                                 #  BIT 2 FLAG 10
001370: 37,2001                                          =        163D
001371:
001372:                                                                                                 #  BIT 1 FLAG 10
001373: 37,2001                                          =        164D
001374:
001375: 37,2001     0107               FLGWRD11          =        STATE      +11D                       #  (165-179)
001376:                                                                                                 #  (SET)                  (RESET)
001377:
001378:                                                                                                 #  BIT 15 FLAG 11
001379: 37,2001                                          =        165D
001380:
001381:                                                                                                 #  BIT 14 FLAG 11
001382: 37,2001                                          =        166D
001383:
001384:                                                                                                 #  BIT 13 FLAG 11
001385: 37,2001                                          =        167D
001386:
001387:                                                                                                 #  Page 67
001388:                                                                                                 #  BIT 12 FLAG 11
001389: 37,2001                                          =        168D
001390:
001391:                                                                                                 #  BIT 11 FLAG 11
001392: 37,2001                                          =        169D
001393:
001394:                                                                                                 #  BIT 10 FLAG 11
001395: 37,2001                                          =        170D
001396:
001397:                                                                                                 #  BIT 9 FLAG 11
001398: 37,2001                                          =        171D
001399:
001400:                                                                                                 #  BIT 8 FLAG 11
001401: 37,2001                                          =        172D
001402:
001403:                                                                                                 #  BIT 7 FLAG 11
001404: 37,2001                                          =        173D
001405:
001406:                                                                                                 #  BIT 6 FLAG 11
001407: 37,2001                                          =        174D
001408:
001409:                                                                                                 #  BIT 5 FLAG 11
001410: 37,2001                                          =        175D
001411:
001412:                                                                                                 #  BIT 4 FLAG 11
001413: 37,2001                                          =        176D
001414:
001415:                                                                                                 #  BIT 3 FLAG 11
001416: 37,2001                                          =        177D
001417:
001418:                                                                                                 #  BIT 2 FLAG 11
001419: 37,2001                                          =        178D
001420:
001421:                                                                                                 #  BIT 1 FLAG 11
001422: 37,2001                                          =        179D
001423:
001424:
001425:                                                                                                 #  Page 68
001426:                                                                                                 #  GENERAL ERASABLE ASSIGNMENTS
001427:
001428:    0061                                          SETLOC   61
001429:                                                                                                 #  INTERRUPT TEMPORARY STORAGE POOL.      (11D)
001430:
001431:                                                                                                 #  (ITEMP1 THROUGH RUPTREG4)
001432:
001433:                                                                                                 #  ANY OF THESE MAY BE USED AS TEMPORARIES DURING INTERRUPT OR WITH INTERRUPT INHIBITED. THE ITEMP SERIES
001434:                                                                                                 #  IS USED DURING CALLS TO THE EXECUTIVE AND WAITLIST -- THE RUPTREGS ARE NOT.
001435:
001436:    0061                        ITEMP1            ERASE
001437:    0062     0061               WAITEXIT          EQUALS   ITEMP1
001438:    0062     0061               EXECTEM1          EQUALS   ITEMP1
001439:
001440:    0062                        ITEMP2            ERASE
001441:    0063     0062               WAITBANK          EQUALS   ITEMP2
001442:    0063     0062               EXECTEM2          EQUALS   ITEMP2
001443:
001444:    0063                        ITEMP3            ERASE
001445:    0064     0063               RUPTSTOR          EQUALS   ITEMP3
001446:    0064     0063               WAITADR           EQUALS   ITEMP3
001447:    0064     0063               NEWPRIO           EQUALS   ITEMP3
001448:
001449:    0064                        ITEMP4            ERASE
001450:    0065     0064               LOCCTR            EQUALS   ITEMP4
001451:    0065     0064               WAITTEMP          EQUALS   ITEMP4
001452:
001453:    0065                        ITEMP5            ERASE
001454:    0066     0065               NEWLOC            EQUALS   ITEMP5
001455:
001456:    0066                        ITEMP6            ERASE
001457:    0067     0066               NEWLOC+1          EQUALS   ITEMP6                                #  DP ADDRESS.
001458:
001459:    0067                                          SETLOC   67
001460:    0067                        NEWJOB            ERASE                                          #  MUST BE AT LOC 67 DUE TO WIRING.
001461:
001462:    0070                        RUPTREG1          ERASE
001463:    0071                        RUPTREG2          ERASE
001464:    0072                        RUPTREG3          ERASE
001465:    0073                        RUPTREG4          ERASE
001466:    0074     0073               KEYTEMP1          EQUALS   RUPTREG4
001467:    0074     0073               DSRUPTEM          EQUALS   RUPTREG4
001468:
001469:                                                                                                 #  FLAGWORD RESERVATIONS.         (12D)
001470:
001471:    0074                        STATE             ERASE    +11D
001472:
001473:    0110                        FLAGFILL          ERASE    +3                                    #  SPACE FOR FUTURE FLAGS
001474:
001475:                                                                                                 #  Page 69
001476:                                                                                                 #  PAD LOAD FOR DAPS
001477:    0114     0110               EMDOT             EQUALS   FLAGFILL                              #  I(1)PL (SPS FLOW RATE, SC AT 8.3KG/CS)
001478:
001479:                                                                                                 #  EXIT FOR V83
001480:    0114     0112               STATEXIT          EQUALS   FLAGFILL   +2                         #  I(1) STQ ADDRESS FOR STATEXIT
001481:
001482:                                                                                                 #  EXEC TEMPORARIES WHICH MAY BE USED BETWEEN CCS NEWJOBS
001483:                                                                                                 #  (INTB15+ THROUGH RUPTMXTM)             (32D)
001484:    0114                        INTB15+           ERASE                                          #  REFLECTS 15TH BIT OF INDEXABLE ADDRESSES
001485:    0115     0114               DSEXIT            EQUALS   INTB15+                               #  RETURN FOR DSPIN
001486:    0115     0114               EXITEM            EQUALS   INTB15+                               #  RETURN FOR SCALE FACTOR ROUTINE SELECT
001487:    0115     0114               BLANKRET          EQUALS   INTB15+                               #  RETURN FOR 2BLANK
001488:
001489:    0115                        INTBIT15          ERASE                                          #  SIMILAR TO ABOVE.
001490:    0116     0115               WRDRET            EQUALS   INTBIT15                              #  RETURN FOR 5BLANK.
001491:    0116     0115               WDRET             EQUALS   INTBIT15                              #  RETURN FOR DSPWD
001492:    0116     0115               DECRET            EQUALS   INTBIT15                              #  RETURN FOR PUTCOM(DEC LOAD)
001493:    0116     0115               21/22REG          EQUALS   INTBIT15                              #  TEMP FOR CHARIN
001494:
001495:                                                                                                 #  THE REGISTERS BETWEEN ADDRWD AND PRIORITY MUST STAY IN THE FOLLOWING ORDER FOR INTERPRETIVE TRACE.
001496:
001497:    0116                        ADDRWD            ERASE                                          #  12 BIT INTERPRETIVE OPERAND SUB-ADDRESS.
001498:    0117                        POLISH            ERASE                                          #  HOLDS CADR MADE FROM POLISH ADDRESSE.
001499:    0120     0117               UPDATRET          EQUALS   POLISH                                #  RETURN FOR UPDATNN, UPDATVB
001500:    0120     0117               CHAR              EQUALS   POLISH                                #  TEMP FOR CHARIN
001501:    0120     0117               ERCNT             EQUALS   POLISH                                #  COUNTER FOR ERROR LIGHT RESET
001502:    0120     0117               DECOUNT           EQUALS   POLISH                                #  COUNTER FOR SCALING AND DISPLAY (DEC)
001503:
001504:    0120                        FIXLOC            ERASE                                          #  WORK AREA ADDRESS
001505:    0121                        OVFIND            ERASE                                          #  SET NON-ZERO ON OVERFLOW.
001506:
001507:    0122                        VBUF              ERASE    +5                                    #  TEMPORARY STORAGE USED FOR VECTORS.
001508:    0130     0122               SGNON             EQUALS   VBUF                                  #  TEMP FOR +,- ON
001509:    0130     0122               NOUNTEM           EQUALS   VBUF                                  #  COUNTER FOR MIXNOUN FETCH
001510:    0130     0122               DISTEM            EQUALS   VBUF                                  #  COUNTER FOR OCTAL DISPLAY VERB
001511:    0130     0122               DECTEM            EQUALS   VBUF                                  #  COUNTER FOR FETCH (DEC DISPLAY VERBS)
001512:
001513:    0130     0123               SGNOFF            EQUALS   VBUF       +1                         #  TEMP FOR +,- ON
001514:    0130     0123               NVTEMP            EQUALS   VBUF       +1                         #  TEMP FOR NVSUB
001515:    0130     0123               SFTEMP1           EQUALS   VBUF       +1                         #  STORAGE FOR SF CONST HI PART (=SFTEMP2-1)
001516:    0130     0123               HITEMIN           EQUALS   VBUF       +1                         #  TEMP FOR LOAD OF HRS,MIN,SEC
001517:                                                                                                 #  MUST = LOTEMIN-1.
001518:
001519:    0130     0124               CODE              EQUALS   VBUF       +2                         #  FOR DSPIN
001520:    0130     0124               SFTEMP2           EQUALS   VBUF       +2                         #  STORAGE FOR SF CONST LO PART (=SFTEMP1+1)
001521:    0130     0124               LOTEMIN           EQUALS   VBUF       +2                         #  TEMP FOR LOAD OF HRS,MIN,SEC
001522:                                                                                                 #  MUST = HITEMIN+1
001523:                                                                                                 #  Page 70
001524:    0130     0125               MIXTEMP           EQUALS   VBUF       +3                         #  FOR MIXNOUN DATA
001525:    0130     0125               SIGNRET           EQUALS   VBUF       +3                         #  RETURN FOR +,- ON
001526:
001527:                                                                                                 #  ALSO MIXTEMP+1 = VBUF+4, MIXTEMP+2 = VBUF+5
001528:
001529:    0130                        BUF               ERASE    +2                                    #  TEMPORARY SCALAR STORAGE
001530:    0133                        BUF2              ERASE    +1
001531:    0135     0130               INDEXLOC          EQUALS   BUF                                   #  CONTAINS ADDRESS OF SPECIFIED INDEX.
001532:    0135     0130               SWWORD            EQUALS   BUF                                   #  ADDRESS OF SWITCH WORD
001533:    0135     0131               SWBIT             EQUALS   BUF        +1                         #  SWITCH BIT WITHIN THE SWITCH WORD
001534:    0135                        MPTEMP            ERASE                                          #  TEMPORARY USED IN MULTIPLY AND SHIFT
001535:    0136     0135               DMPNTEMP          EQUALS   MPTEMP                                #  DMPSUB TEMPORARY
001536:    0136                        DOTINC            ERASE                                          #  COMPONENT INCREMENT FOR DOT SUBROUTINE
001537:    0137     0136               DVSIGN            EQUALS   DOTINC                                #  DETERMINES SIGN OF DDV RESULT
001538:    0137     0136               ESCAPE            EQUALS   DOTINC                                #  USED IN ARCSIN/ARCCOS.
001539:    0137     0136               ENTRET            EQUALS   DOTINC                                #  EXIT FROM ENTER
001540:
001541:    0137                        DOTRET            ERASE                                          #  RETURN FROM DOT SUBROUTINE
001542:    0140     0137               DVNORMCT          EQUALS   DOTRET                                #  DIVIDENT NORMALIZATION COUNT IN DDV.
001543:    0140     0137               ESCAPE2           EQUALS   DOTRET                                #  ALTERNATE ARCSIN/ARCCOS SWITCH
001544:    0140     0137               WDCNT             EQUALS   DOTRET                                #  CHAR COUNTER FOR DSPWD
001545:    0140     0137               INREL             EQUALS   DOTRET                                #  INPUT BUFFER SELECTION
001546:
001547:    0140                        MATINC            ERASE                                          #  VECTOR INCREMENT IN MXV AND VXM
001548:    0141     0140               MAXDVSW           EQUALS   MATINC                                #  +0 IF DP QUOTIENT IS NEAR ONE -- ELSE -1.
001549:    0141     0140               POLYCNT           EQUALS   MATINC                                #  POLYNOMIAL LOOP COUNTER
001550:    0141     0140               DSPMMTEM          EQUALS   MATINC                                #  DSPCOUNT SAVE FOR DSPMM
001551:    0141     0140               MIXBR             EQUALS   MATINC                                #  INDICATOR FOR MIXED OR NORMAL NOUN
001552:
001553:    0141                        TEM1              ERASE                                          #  EXEC TEMP
001554:    0142     0141               POLYRET           EQUALS   TEM1
001555:    0142     0141               DSREL             EQUALS   TEM1                                  #  REL ADDRESS FOR DSPIN
001556:
001557:    0142                        TEM2              ERASE                                          #  EXEC TEMP
001558:    0143     0142               DSMAG             EQUALS   TEM2                                  #  MAGNITUDE STORE FOR DSPIN
001559:    0143     0142               IDADDTEM          EQUALS   TEM2                                  #  MIXNOUN INDIRECT ADDRESS STORAGE
001560:
001561:    0143                        TEM3              ERASE                                          #  EXEC TEMP
001562:    0144     0143               COUNT             EQUALS   TEM3                                  #  FOR DSPIN
001563:
001564:    0144                        TEM4              ERASE                                          #  EXEC TEMP
001565:    0145     0144               LSTPTR            EQUALS   TEM4                                  #  LIST POINTER FOR GRABUST
001566:    0145     0144               RELRET            EQUALS   TEM4                                  #  RETURN FOR RELDSP
001567:    0145     0144               FREERET           EQUALS   TEM4                                  #  RETURN FOR FREEDSP
001568:    0145     0144               DSPWDRET          EQUALS   TEM4                                  #  RETURN FOR DSPSIGN
001569:    0145     0144               SEPSCRET          EQUALS   TEM4                                  #  RETURN FOR SEPSEC
001570:    0145     0144               SEPMNRET          EQUALS   TEM4                                  #  RETURN FOR SEPMIN
001571:
001572:    0145                        TEM5              ERASE                                          #  EXEC TEMP
001573:    0146     0145               NOUNADD           EQUALS   TEM5                                  #  TEMP STORAGE FOR NOUN ADDRESS
001574:
001575:                                                                                                 #  Page 71
001576:    0146                        NNADTEM           ERASE                                          #  TEMP FOR NOUN ADDRESS TABLE ENTRY
001577:    0147                        NNTYPTEM          ERASE                                          #  TEMP FOR NOUN TYPE TABLE ENTRY
001578:    0150                        IDAD1TEM          ERASE                                          #  TEMP FOR INDIR ADDRESS TABLE ENTRY (MIXNN)
001579:                                                                                                 #  MUST = IDAD2TEM-1, = IDAD3TEM-2
001580:    0151                        IDAD2TEM          ERASE                                          #  TEMP FOR INDIR ADDRESS TABLE ENTRY (MIXNN)
001581:                                                                                                 #  MUST = IDAD1TEM+1, IDAD3TEM-1.
001582:    0152                        IDAD3TEM          ERASE                                          #  TEMP FOR INDIR ADDRESS TABLE ENTRY (MIXNN)
001583:                                                                                                 #  MUST = IDAD1TEM+2, IDAD2TEM+1.
001584:    0153                        RUTMXTEM          ERASE                                          #  TEMP FOR SF ROUT TABLE ENTRY (MIXNN ONLY)
001585:
001586:                                                                                                 #  AX*SR*T STORAGE.
001587:    0154     0142               DEXDEX            EQUALS   TEM2                                  #  B(1)TMP
001588:    0154     0143               DEX1              EQUALS   TEM3                                  #  B(1)TMP
001589:    0154     0144               DEX2              EQUALS   TEM4                                  #  B(1)TMP
001590:    0154     0145               RTNSAVER          EQUALS   TEM5                                  #  B(1)TMP
001591:    0154     0133               TERM1TMP          EQUALS   BUF2                                  #  B(2)TMP
001592:
001593:    0154     0143               DEXI              =        DEX1
001594:
001595:                                                                                                 #  Page 72
001596:                                                                                                 #  DYNAMICALLY ALLOCATED CORE SETS FOR JOBS       (84D)
001597:
001598:    0154                        MPAC              ERASE    +6                                    #  MULTI-PURPOSE ACCUMULATOR.
001599:    0163                        MODE              ERASE                                          #  +1 FOR TP, +0 FOR DP, OR -1 FOR VECTOR.
001600:    0164                        LOC               ERASE                                          #  LOCATION ASSOCIATED WITH JOB.
001601:    0165                        BANKSET           ERASE                                          #  USUALLY CONTAINS BBANK SETTING.
001602:    0166                        PUSHLOC           ERASE                                          #  WORD OF PACKED INTERPRETIVE PARAMETERS.
001603:    0167                        PRIORITY          ERASE                                          #  PRIORITY OF PRESENT JOB AND WORK AREA.
001604:
001605:    0170                                          ERASE    +71D                                  #  SEVEN SETS OF 12 REGISTERS EACH
001606:
001607:                                                                                                 #  SPECIAL DOWNLINK BUFFER. -- OVERLAYED BY P27 STORAGE --
001608:
001609:                                                                                                 #  P27 (UPDATE PROGRAM) STORAGE. -- OVERLAYS SPEC DNLNK BUFF -- (24D)
001610:
001611:    0300                        COMPNUMB          ERASE    +23D                                  #  B(1)TMP NUMBER OF ITEMS TO BE UPLINKED.
001612:    0330     0301               UPOLDMOD          EQUALS   COMPNUMB   +1                         #  B(1)TMP HOLDS INTERRUPTED PROGRAM NUMBER
001613:    0330     0302               UPVERB            EQUALS   UPOLDMOD   +1                         #  B(1)TMP VERB NUMBER
001614:    0330     0303               UPCOUNT           EQUALS   UPVERB     +1                         #  B(1)TMP UPBUFF INDEX
001615:    0330     0304               UPBUFF            EQUALS   UPCOUNT    +1                         #  B(20D)
001616:
001617:                                                                                                 #  MORE P27 STORAGE.                      (2D)
001618:
001619:    0330                        UPTEMP            ERASE                                          #  B(1)TMP SCRATCH
001620:    0331                        UPVERBSV          ERASE                                          #  B(1)TMP
001621:    0332     0330               INTWAK1Q          EQUALS   UPTEMP                                #  (06D)
001622:                                                                                                 #  (20 REGISTERS OF ENTRY DOWNLINK WILL GO HERE.)
001623:
001624:                                                                                                 #  THE FOLLOWING ARE INDEXED FOR TM. IN ENTRY DAP.
001625:
001626:    0332     0304               CMTMTIME          =        UPBUFF                                #  B(1) (VEHICLE BODY RATE INFO IS
001627:    0332     0305               SW/NDX            =        CMTMTIME   +1                         #  B(1)  TELEMETERED EACH 0.2 SEC. DURING
001628:    0332     0324               ENDBUF            =        CMTMTIME   +16D                       #  B(1)  ENTRY.)
001629:
001630:    0332     0325               V1                =        ENDBUF     +1                         #  I(2) REENTRY, P65-P65
001631:    0332     0327               A0                =        V1         +2                         #  I(2) REENTRY, P64-P65
001632:                                                                                                 #  HI-ORDER WORD ONLY ON DNLNK.
001633:
001634:                                                                                                 #  ALIGNMENT STORAGE.                     (5D)
001635:                                                                                                 #  (CANNOT SHARE WITH PRECISION INTEGRATION OR KEPLER STORAGE.)
001636:
001637:    0332     0300               QMAJ              EQUALS   COMPNUMB                              #  B(1)TMP
001638:    0332     0301               MARKINDX          EQUALS   QMAJ       +1                         #  B(1)TMP
001639:    0332     0302               BESTI             EQUALS   MARKINDX   +1                         #  I(1)TMP
001640:    0332     0303               BESTJ             EQUALS   BESTI      +1                         #  I(1)TMP
001641:    0332     0304               STARIND           EQUALS   BESTJ      +1                         #  I(1)TMP
001642:
001643:                                                                                                 #  Page 73
001644:                                                                                                 #  ALIGNMENT/S40.2,3 COMMON STORAGE.      (18D)
001645:
001646:    0332     0306               XSMD              EQUALS   UPBUFF     +2                         #  I(6)TMP
001647:    0332     0314               YSMD              EQUALS   XSMD       +6                         #  I(6)TMP
001648:    0332     0322               ZSMD              EQUALS   YSMD       +6                         #  I(6)TMP
001649:
001650:    0332     0306               XSCREF            =        XSMD                                  #  SPACE CRAFT AXES IN REF COORDS.
001651:    0332     0314               YSCREF            =        YSMD
001652:    0332     0322               ZSCREF            =        ZSMD
001653:    0332                        ZPRIME            =        22D
001654:    0332                        PDA               =        22D
001655:    0332                        COSTH             =        16D
001656:    0332                        SINTH             =        18D
001657:    0332                        THETA             =        20D
001658:    0332                        STARM             =        32D
001659:
001660:                                                                                                 #  DOWNLINK STORAGE                       (18D)
001661:
001662:    0332     0332               DNLSTADR          EQUALS   DNLSTCOD                              #  CONTENTS NO LONGER AN ADDR BUT A CODE
001663:
001664:    0332                        DNLSTCOD          ERASE                                          #  B(1)PRM ID CODE OF DOWNLOAD
001665:    0333                        DUMPCNT           ERASE                                          #  B(1)PRM
001666:    0334                        LDATALST          ERASE                                          #  B(1)
001667:    0335                        DNTMGOTO          ERASE                                          #  B(1)
001668:    0336                        TMINDEX           ERASE                                          #  B(1)
001669:    0337     0336               DUMPLOC           EQUALS   TMINDEX                               #  CONTAINS ECADR OF AGC DP WORD BEING DUMPED
001670:                                                                                                 #  AND COUNT OF COMPLETE DUMPS ALREADY
001671:                                                                                                 #  SENT.
001672:    0337                        DNQ               ERASE                                          #  B(1)
001673:    0340                        DNTMBUFF          ERASE    +11D                                  #  B(12)PRM DOWNLINK SNAPSHOT BUFFER
001674:
001675:                                                                                                 #  OPTICS MARKING, UNSHARED.              (8D)
001676:
001677:    0354                        MKNDX             ERASE
001678:    0355                        MKT2T1            ERASE    +1
001679:    0357                        MKCDUY            ERASE
001680:    0360                        MKCDUS            ERASE
001681:    0361                        MKCDUZ            ERASE
001682:    0362                        MKCDUT            ERASE
001683:    0363                        MKCDUX            ERASE
001684:
001685:                                                                                                 #  FOR EXCLUSIVE USE OF SYS TEST STANDARD LEAD INS        (2)
001686:    0364                        EBUF2             ERASE    +1                                    #  R(2) UNSHARED
001687:
001688:                                                                                                 #  Page 74
001689:                                                                                                 #  UNSWITCHED FOR DISPLAY INTERFACE ROUTINES.     (10D)
001690:
001691:    0366                        RESTREG           ERASE                                          #  B(1)PRM FOR DISPLAY RESTARTS.
001692:    0367                        NVWORD            ERASE
001693:    0370                        MARKNV            ERASE
001694:    0371                        NVSAVE            ERASE
001695:                                                                                                 #  (RETAIN THE ORDER OF CADRFLSH TO FAILREG +2 FOR DOWNLINK PURPOSES)
001696:    0372                        CADRFLSH          ERASE                                          #  B(1)TMP
001697:    0373                        CADRMARK          ERASE                                          #  B(1)TMP
001698:    0374                        TEMPFLSH          ERASE                                          #  B(1)TMP
001699:    0375                        FAILREG           ERASE    +2                                    #  B(3)PRM 3 ALARM CODE REGISTERS
001700:
001701:    0400                                          SETLOC   400
001702:
001703:                                                                                                 #  VAC AREAS. -- BE CAREFUL OF PLACEMENT --       (220D)
001704:
001705:    0400                        VAC1USE           ERASE                                          #  B(1)PRM
001706:    0401                        VAC1              ERASE    +42D                                  #  B(43)PRM
001707:    0454                        VAC2USE           ERASE                                          #  B(1)PRM
001708:    0455                        VAC2              ERASE    +42D                                  #  B(43)PRM
001709:    0530                        VAC3USE           ERASE                                          #  B(1)PRM
001710:    0531                        VAC3              ERASE    +42D                                  #  B(43)PRM
001711:    0604                        VAC4USE           ERASE                                          #  B(1)PRM
001712:    0605                        VAC4              ERASE    +42D                                  #  B(43)PRM
001713:    0660                        VAC5USE           ERASE                                          #  B(1)PRM
001714:    0661                        VAC5              ERASE    +42D                                  #  B(43)PRM
001715:
001716:                                                                                                 #  WAITLIST REPEAT FLAG.                  (1D)
001717:    0734                        RUPTAGN           ERASE                                          #  B(1)PRM
001718:    0735     0734               KEYTEMP2          =        RUPTAGN
001719:
001720:                                                                                                 #  STARALIGN ERASABLES.                           (13D)
001721:
001722:    0735                        STARCODE          ERASE                                          #  B(1)DSP NOUN 70 FOR P22,51 AND R52,53
001723:    0736                        STARALGN          ERASE    +11D
001724:    0752     0736               SINCDU            =        STARALGN
001725:    0752     0744               COSCDU            =        STARALGN   +6
001726:
001727:    0752     0742               SINCDUX           =        SINCDU     +4
001728:    0752     0736               SINCDUY           =        SINCDU
001729:    0752     0740               SINCDUZ           =        SINCDU     +2
001730:    0752     0750               COSCDUX           =        COSCDU     +4
001731:    0752     0744               COSCDUY           =        COSCDU
001732:    0752     0746               COSCDUZ           =        COSCDU     +2
001733:
001734:                                                                                                 #  PHASE TABLE AND RESTART COUNTERS               (12D)
001735:                                                                                                 #  Page 75
001736:
001737:    0752                        -PHASE1           ERASE                                          #  B(1)PRM
001738:    0753                        PHASE1            ERASE                                          #  B(1)PRM
001739:    0754                        -PHASE2           ERASE                                          #  B(1)PRM
001740:    0755                        PHASE2            ERASE                                          #  B(1)PRM
001741:    0756                        -PHASE3           ERASE                                          #  B(1)PRM
001742:    0757                        PHASE3            ERASE                                          #  B(1)PRM
001743:    0760                        -PHASE4           ERASE                                          #  B(1)PRM
001744:    0761                        PHASE4            ERASE                                          #  B(1)PRM
001745:    0762                        -PHASE5           ERASE                                          #  B(1)PRM
001746:    0763                        PHASE5            ERASE                                          #  B(1)PRM
001747:    0764                        -PHASE6           ERASE                                          #  B(1)PRM
001748:    0765                        PHASE6            ERASE                                          #  B(1)PRM
001749:
001750:                                                                                                 #  A**SR*T STORAGE                                (6D)
001751:
001752:    0766                        CDUSPOT           ERASE    +5                                    #  B(6)
001753:
001754:    0774     0766               CDUSPOTY          =        CDUSPOT
001755:    0774     0770               CDUSPOTZ          =        CDUSPOT    +2
001756:    0774     0772               CDUSPOTX          =        CDUSPOT    +4
001757:
001758:                                                                                                 #  VERB 37 STORAGE                                (2D)
001759:
001760:    0774                        MINDEX            ERASE                                          #  B(1)TMP INDEX FOR MAJOR MODE
001761:    0775                        MMNUMBER          ERASE                                          #  B(1)TMP MAJOR MODE REQUESTED BY V37
001762:
001763:                                                                                                 #  PINBALL INTERRUPT ACTION                       (1D)
001764:
001765:    0776                        DSPCNT            ERASE                                          #  B(1)PRM COUNTER FOR DSPOUT
001766:
001767:                                                                                                 #  PINBALL EXECUTIVE ACTION                       (44D)
001768:
001769:    0777                        DSPCOUNT          ERASE                                          #  DISPLAY POSITION INDICATOR
001770:    1000                        DECBRNCH          ERASE                                          #  +DEC, -DEC, OCT INDICATOR
001771:    1001                        VERBREG           ERASE                                          #  VERB CODE
001772:    1002                        NOUNREG           ERASE                                          #  NOUN CODE
001773:    1003                        XREG              ERASE                                          #  R1 INPUT BUFFER
001774:    1004                        YREG              ERASE                                          #  R2 INPUT BUFFER
001775:    1005                        ZREG              ERASE                                          #  R3 INPUT BUFFER
001776:    1006                        XREGLP            ERASE                                          #  LO PART OF XREG (FOR DEC CONV ONLY)
001777:    1007                        YREGLP            ERASE                                          #  LO PART OF YREG (FOR DEC CONV ONLY)
001778:    1010     1007               HITEMOUT          =        YREGLP                                #  TEMP FOR DISPLAY OF HRS,MIN,SEC
001779:                                                                                                 #  MUST = LOTEMOUT-1.
001780:    1010                        ZREGLP            ERASE                                          #  LO PART OF ZREG (FOR DEC CONV ONLY)
001781:    1011     1010               LOTEMOUT          =        ZREGLP                                #  TEMP FOR DISPLAY OF HRS,MIN,SEC
001782:                                                                                                 #  MUST = HITEMOUT+1
001783:                                                                                                 #  Page 76
001784:    1011                        MODREG            ERASE                                          #  MODE CODE
001785:    1012                        DSPLOCK           ERASE                                          #  KEYBOARD/SUBROUTINE CALL INTERLOCK
001786:    1013                        REQRET            ERASE                                          #  RETURN REGISTER FOR LOAD
001787:    1014                        LOADSTAT          ERASE                                          #  STATUS INDICATOR FOR LOADTST
001788:    1015                        CLPASS            ERASE                                          #  PASS INDICATOR FOR CLEAR
001789:    1016                        NOUT              ERASE                                          #  ACTIVITY COUNTER FOR DSPTAB
001790:    1017                        NOUNCADR          ERASE                                          #  MACHINE CADR FOR NOUN
001791:    1020                        MONSAVE           ERASE                                          #  N/V CODE FOR MONITOR. (= MONSAVE1-1)
001792:    1021                        MONSAVE1          ERASE                                          #  NOUNCADR FOR MONITOR (MATBS1) = MONSAVE+1
001793:    1022                        MONSAVE2          ERASE                                          #  NVMONOPT OPTIONS
001794:    1023                        DSPTAB            ERASE    +11D                                  #  0-100, DISPLAY PANEL BUFF.  11D, C/S LTS.
001795:    1037                        NVQTEM            ERASE                                          #  NVSUB STORAGE FOR CALLING ADDRESS
001796:                                                                                                 #  MUST = NVBNKTEM-1.
001797:    1040                        NVBNKTEM          ERASE                                          #  NVSUB STORAGE FOR CALLING BANK
001798:                                                                                                 #  MUST = NVQTEM+1
001799:    1041                        VERBSAVE          ERASE                                          #  NEEDED FOR RECYCLE
001800:    1042                        CADRSTOR          ERASE                                          #  ENDIDLE STORAGE
001801:    1043                        DSPLIST           ERASE                                          #  WAITING REG FOR DSP SYST INTERNAL USE
001802:    1044                        EXTVBACT          ERASE                                          #  EXTENDED VERB ACTIVITY INTERLOCK
001803:    1045                        DSPTEM1           ERASE    +2                                    #  BUFFER STORAGE AREA 1 (MOSTLY FOR TIME)
001804:    1050                        DSPTEM2           ERASE    +2                                    #  BUFFER STORAGE AREA 2 (MOSTLY FOR DEG)
001805:
001806:    1053     1051               DSPTEMX           EQUALS   DSPTEM2    +1                         #  B(2) S-S DISPLAY BUFFER FOR EXT. VERBS
001807:    1053     1045               NORMTEM1          EQUALS   DSPTEM1                               #  B(3)DSP NORMAL DISPLAY REGISTERS.
001808:
001809:                                                                                                 #  DISPLAY FOR EXTENDED VERBS                     (2D)
001810:
001811:    1053     1051               OPTIONX           EQUALS   DSPTEMX                               #  (2) EXTENDED VERB OPTION CODE
001812:
001813:                                                                                                 #  TBASE'S AND PHSPRDT'S.                 (12D)
001814:
001815:    1053                        TBASE1            ERASE                                          #  B(1)PRM
001816:    1054                        PHSPRDT1          ERASE                                          #  B(1)PRM
001817:    1055                        TBASE2            ERASE                                          #  B(1)PRM
001818:    1056                        PHSPRDT2          ERASE                                          #  B(1)PRM
001819:    1057                        TBASE3            ERASE                                          #  B(1)PRM
001820:    1060                        PHSPRDT3          ERASE                                          #  B(1)PRM
001821:    1061                        TBASE4            ERASE                                          #  B(1)PRM
001822:    1062                        PHSPRDT4          ERASE                                          #  B(1)PRM
001823:    1063                        TBASE5            ERASE                                          #  B(1)PRM
001824:    1064                        PHSPRDT5          ERASE                                          #  B(1)PRM
001825:    1065                        TBASE6            ERASE                                          #  B(1)PRM
001826:    1066                        PHSPRDT6          ERASE                                          #  B(1)PRM
001827:
001828:                                                                                                 #  UNSWITCHED FOR DISPLAY INTERFACE ROUTINES.     (5D)
001829:                                                                                                 #  Page 77
001830:    1067                        EBANKSAV          ERASE
001831:    1070                        MARKEBAN          ERASE
001832:    1071                        EBANKTEM          ERASE
001833:    1072                        MARK2PAC          ERASE
001834:    1073                        R1SAVE            ERASE
001835:
001836:                                                                                                 #  IMU COMPENSATION UNSWITCHED ERASABLE.          (1D)
001837:
001838:    1074                        1/PIPADT          ERASE                                          #  B(1)PRM
001839:    1075     1074               OLDBT1            =        1/PIPADT
001840:
001841:                                                                                                 #  SINGLE PRECISION SUBROUTINE TEMPORARIES        (3D)
001842:                                                                                                 #  SPSIN, SPCOS, SPROOT VARIABLES.
001843:                                                                                                 #  DO NOT SHARE.  THESE ARE USED BY DAPS IN INTERRUPT
001844:                                                                                                 #  AND CURRENTLY ARE NOT PROTECTED.  IF OTHER USERS
001845:                                                                                                 #  MATERIALIZE, THEN THIS CAN BE CHANGED.
001846:
001847:    1075                        HALFY             ERASE
001848:    1076                        ROOTRET           ERASE
001849:    1077                        SQRARG            ERASE
001850:    1100     1075               TEMK              EQUALS   HALFY
001851:    1100     1076               SQ                EQUALS   ROOTRET
001852:
001853:                                                                                                 #  Page 78
001854:                                                                                                 #  UNSWITCHED FOR ORBIT INTEGRATION               (21D)
001855:
001856:    1100                        TDEC              ERASE    +20D                                  #  I(2)
001857:    1125     1102               COLREG            EQUALS   TDEC       +2                         #  I(1)
001858:    1125     1103               LAT               EQUALS   COLREG     +1                         #  I(2)DSP NOUN 43,67 FOR P20,22,51 R52,53.
001859:    1125     1103               LANDLAT           =        LAT                                   #           NOUN 89    FOR P22.
001860:    1125     1105               LONG              EQUALS   LAT        +2                         #  I(2)DSP NOUN 43,67 FOR P20,22,51 R52,53
001861:    1125     1107               ALT               EQUALS   LONG       +2                         #  I(2)DSP NOUN 43    FOR P20,22,51 R52,53.
001862:    1125     1111               YV                EQUALS   ALT        +2                         #  I(6)
001863:    1125     1117               ZV                EQUALS   YV         +6                         #  I(6)
001864:
001865:                                                                                                 #  MARK STORAGE.
001866:
001867:    1125                        VHFCNT            ERASE                                          #  B(1)PRM NO. OF VHF MARKS (P20 (R22)).
001868:    1126                        TRKMKCNT          ERASE                                          #  B(1)PRM NO. OF VHF MARKS (P20 (R22)).
001869:
001870:    1127     1126               MARKCTR           =        TRKMKCNT                              #  B(1) MARK COUNTER USED BY R32
001871:
001872:                                                                                                 #  MISCELLANEOUS UNSWITCHED.                      (16D)
001873:
001874:    1127                        IRETURN1          ERASE                                          #  B(1) RET ADDR USED BY MIDTOAV1 AND 2
001875:                                                                                                 #  CALLED BY P40,P41,P42, P61,P62
001876:    1130                        RATEINDX          ERASE                                          #   (1) USED BY KALCMANU
001877:    1131                        OPTION1           ERASE                                          #  B(1) NOUN 06 USES THIS.
001878:    1132                        OPTION2           ERASE                                          #  B(1) NOUN 06 USES THIS.
001879:    1133                        LONGCADR          ERASE    +1                                    #  B(2) LONGCALL REGISTER.
001880:    1135                        LONGBASE          ERASE    +1                                    #  B(2) LONGCALL REGISTER.
001881:    1137                        LONGTIME          ERASE    +1                                    #  B(2) LONGCALL REGISTER.
001882:    1141                        DELAYLOC          ERASE    +3
001883:    1145                        NVWORD1           ERASE                                          #  B(1)
001884:    1146                        TEMPR60           ERASE                                          #  B(1)
001885:    1147                        PRIOTIME          ERASE                                          #  B(1)
001886:    1150     1127               P30/RET           EQUALS   IRETURN1
001887:
001888:                                                                                                 #  MISC. INCLUDING RESTART COUNTER, GIMBAL ANGLE SAVE AND
001889:                                                                                                 #  STANDBY VERB ERASABLES.  REDOCTR BEFORE THETAD (DWNLNK)        (16D)
001890:
001891:    1150                        TIME2SAV          ERASE    +1                                    #  B(2)TMP
001892:    1152                        SCALSAVE          ERASE    +1                                    #  B(2)TMP
001893:    1154                        REDOCTR           ERASE                                          #  B(1)PRM CONTAINS NUMBER OF RESTARTS
001894:    1155                        THETAD            ERASE    +2                                    #  B(3)PRM DESIRED GIM ANGLES FOR MANEUVER
001895:    1160     1155               CPHI              =        THETAD                                #         (OUTER)
001896:    1160     1156               CTHETA            =        THETAD     +1                         #         (INNER)
001897:    1160     1157               CPSI              =        THETAD     +2                         #         (MIDDLE)
001898:                                                                                                 #  Page 79
001899:                                                                                                 #  ENTRY VARIABLES SHARED FOR TM.
001900:    1160     1155               RDOTREF           =        THETAD                                #  I(2)   P65
001901:    1160     1157               VREF              =        RDOTREF    +2                         #  I(2)   P65     HI-ORDER WORD ONLY DNLNK'D
001902:    1160                        DESOPTT           ERASE                                          #  B(1)DSP NOUN 92 FOR P20,22,52, R52.
001903:    1161                        DESOPTS           ERASE                                          #  B(1)DSP NOUN 92 FOR P20,22,52, R52.
001904:
001905:    1162                        DELV              ERASE    +5                                    #  I(6)
001906:    1170     1162               DELVX             =        DELV
001907:    1170     1164               DELVY             =        DELV       +2
001908:    1170     1166               DELVZ             =        DELV       +4
001909:
001910:                                                                                                 #  P20, CONICS    (SHARING WITH TIME 2 SAV AND SCAL SAV ONLY)     (3D)
001911:    1170     1150               POINTEX           EQUALS   TIME2SAV                              #  I(1) POINT AXS EXIT
001912:    1170     1151               VHFTIME           EQUALS   POINTEX    +1                         #  I(2) DOWNLINK OF VHF RANGE TIME +1M
001913:
001914:                                                                                                 #  PERM STATE VECTORS FOR BOOST AND DOWNLINK -- WHOLE MISSION --  (14D)
001915:
001916:    1170                        RN                ERASE    +5                                    #  B(6)PRM
001917:    1176                        VN                ERASE    +5                                    #  B(6)PRM
001918:    1204                        PIPTIME           ERASE    +1                                    #  B(2)PRM (MUST BE FOLLOWED BY GDT/2)
001919:
001920:                                                                                                 #  SERVICER STORAGE.                              (45D)
001921:
001922:                                                                                                 #  (SERVICER STORAGE AND P11 STORAGE IN UNSWITCHED SHOULD NOT
001923:                                                                                                 #  OVERLAY EACH OTHER AND THE TOTAL ERASABLE REQUIRED SHOULD NOT
001924:                                                                                                 #  EXCEED THE ERASABLE STORAGE REQUIRED BY RENDEZVOUS GUIDANCE.)
001925:
001926:    1206     1206               GDT/2             EQUALS   PIPTIME    +2                         #  B(6)TMP        ** MUST FOLLOW PIPTIME **
001927:    1206     1214               GOBL/2            EQUALS   GDT/2      +6                         #  B(6)TMP
001928:    1206     1222               AVEGEXIT          EQUALS   GOBL/2     +6                         #  B(2)TMP
001929:    1206     1222               AVGEXIT           =        AVEGEXIT
001930:    1206     1224               TEMX              EQUALS   AVEGEXIT   +2                         #  B(1)TMP
001931:    1206     1225               TEMY              EQUALS   TEMX       +1                         #  B(1)TMP
001932:    1206     1226               TEMZ              EQUALS   TEMY       +1                         #  B(1)TMP
001933:    1206     1227               PIPCTR            EQUALS   TEMZ       +1                         #  B(1)TMP
001934:    1206     1230               PIPAGE            EQUALS   PIPCTR     +1                         #  B(1)TMP
001935:    1206     1231               RN1               EQUALS   PIPAGE     +1                         #  B(6)TMP
001936:    1206     1237               VN1               EQUALS   RN1        +6                         #  B(6)TMP
001937:    1206     1245               PIPTIME1          EQUALS   VN1        +6                         #  B(2)TMP
001938:    1206     1247               GDT1/2            EQUALS   PIPTIME1   +2                         #  B(6)TMP
001939:    1206     1255               GOBL1/2           EQUALS   GDT1/2     +6                         #  B(6)TMP
001940:
001941:                                                                                                 #  Page 80
001942:                                                                                                 #  ENTRY STORAGE                                  (1D)
001943:    1206     1263               ENTRYVN           EQUALS   GOBL1/2    +6                         #  B(1)TMP VN CODE FOR ENTRY DISPLAYS P60'S.
001944:
001945:                                                                                                 #  P11 STORAGE.                                   (9D)
001946:    1206     1263               PADLONG           EQUALS   ENTRYVN                               #  (2)PL  LONGITUDE OF LAUNCH PAD.
001947:    1206     1265               LIFTTEMP          EQUALS   PADLONG    +2                         #  (2)TMP
001948:    1206     1267               TEPHEM1           EQUALS   LIFTTEMP   +2                         #  (3)TMP
001949:    1206     1272               PGNCSALT          EQUALS   TEPHEM1    +3                         #  (2)PL  ALTITUDE
001950:
001951:                                                                                                 #  RENDEZVOUS NAVIGATION STORAGE.  (SEE COMMENT IN SERVICER STORAGE)      (58D)
001952:    1206                        CSMPOS            ERASE    +57D                                  #  I(6)TMP
001953:    1300     1214               LEMPOS            EQUALS   CSMPOS     +6                         #  I(6)TMP
001954:    1300     1222               RCL               EQUALS   LEMPOS     +6                         #  I(2)TMP
001955:    1300     1224               MARKTIME          EQUALS   RCL        +2                         #  B(2)TMP
001956:    1300     1226               VTEMP             EQUALS   MARKTIME   +2                         #  B(6)TMP
001957:    1300     1234               UM                EQUALS   VTEMP      +6                         #  I(6)TMP
001958:    1300     1242               MARKDATA          EQUALS   UM         +6                         #  B(2)TMP
001959:    1300     1244               USTAR             EQUALS   MARKDATA   +2                         #  I(6)TMP
001960:    1300     1252               WIXA              EQUALS   USTAR      +6                         #  B(1)TMP
001961:    1300     1253               WIXB              EQUALS   WIXA       +1                         #  B(1)TMP
001962:    1300     1254               ZIXA              EQUALS   WIXB       +1                         #  B(1)TMP
001963:    1300     1255               ZIXB              EQUALS   ZIXA       +1                         #  B(1)TMP
001964:    1300     1256               DELTAX            EQUALS   ZIXB       +1                         #  I(18)TMP
001965:
001966:    1300     1256               VHFRANGE          EQUALS   DELTAX                                #  (2)
001967:    1300     1272               UCL               EQUALS   DELTAX     +12D                       #  (6)    LM-CSM LINE OF SIGHT 1/2 UNIT V
001968:
001969:                                                                                                 #  **** CONICSEX (MEAS INC) ****
001970:    1300     1256               TRIPA             EQUALS   DELTAX
001971:    1300     1261               TEMPVAR           EQUALS   DELTAX     +3
001972:
001973:    1300                        TEMPOR1           ERASE    +1                                    #  B(2)TMP
001974:
001975:                                                                                                 #  T4RUPT ERASABLE                                (6D)
001976:
001977:    1302                        DSRUPTSW          ERASE
001978:    1303                        OPTIND            ERASE
001979:    1304                        LGYRO             ERASE
001980:    1305                        COMMANDO          ERASE    +1
001981:
001982:                                                                                                 #  Page 81
001983:    1307                        ZONE              ERASE                                          #  B(1)PRM USED IN SHAFT STOP MONITOR
001984:    1310  0000035               LASTYCMD          =        OPTY                                  #  DUMMY TO MAKE RR BENCH TEST ASSEMBLE
001985:    1310  0000035               LASTXCMD          =        OPTY                                  #  DUMMY TO MAKE RR BENCH TEST ASSEMBLE
001986:
001987:                                                                                                 #  UNSWITCHED DAP ERASABLE.                       (4D)
001988:    1310                        T6LOC             ERASE
001989:    1311                        T6ADR             ERASE
001990:    1312                        T5LOC             ERASE    +1
001991:
001992:                                                                                                 #  MODE SWITCHING ERASABLE                        (14D)
001993:    1314                        SWSAMPLE          ERASE                                          #  B(1)PRM
001994:    1315                        DESOPMOD          ERASE                                          #  B(1)PRM
001995:    1316                        WTOPTION          ERASE                                          #  B(1)PRM
001996:    1317                        ZOPTCNT           ERASE                                          #  B(1)PRM
001997:    1320                        IMODES30          ERASE                                          #  B(1)PRM
001998:    1321                        IMODES33          ERASE                                          #  B(1)PRM
001999:    1322                        MODECADR          ERASE    +2                                    #  B(3)TMP
002000:    1325     1322               IMUCADR           =        MODECADR
002001:    1325     1323               OPTCADR           =        MODECADR   +1
002002:    1325     1324               RADCADR           =        MODECADR   +2
002003:    1325                        ATTCADR           ERASE    +2                                    #  B(3)PRM
002004:    1330     1327               ATTPRIO           =        ATTCADR    +2
002005:    1330                        MARKSTAT          ERASE                                          #  B(1)PRM
002006:    1331                        OPTMODES          ERASE                                          #  B(1)PRM
002007:
002008:                                                                                                 #  RCSDAP ERASABLE                                (1D)
002009:    1332                        HOLDFLAG          ERASE                                          #  B(1)PRM
002010:
002011:                                                                                                 #  CRS61.1 STORAGE.  -- USED IN R63 (VERB 89) --  (5D)
002012:    1333                        CPHIX             ERASE    +2                                    #  B(3)DSP NOUN 95 CALCULATED BY CRS61.1
002013:
002014:    1336                        TEVENT            ERASE    +1                                    #  B(2) TIME OF EVENT FOR DOWNLIST
002015:    1340     1336               TLIFTOFF          =        TEVENT
002016:
002017:                                                                                                 #  Page 82
002018:                                                                                                 #  P34-P35 STORAGE                                (1D)
002019:    1340                        NORMEX            ERASE
002020:
002021:                                                                                                 #  SELF-CHECK ASSIGNMENTS                 (17D)
002022:
002023:    1341                        SELFERAS          ERASE    1357       -          1377            #  *** MUST NOT BE MOVED *** #
002024:    1341  0001357               SFAIL             EQUALS   SELFERAS                              #  B(1)
002025:    1341  0001360               ERESTORE          EQUALS   SFAIL      +1                         #  B(1)
002026:    1341  0001361               SELFRET           EQUALS   ERESTORE   +1                         #  B(1) RETURN
002027:    1341  0001362               SMODE             EQUALS   SELFRET    +1                         #  B(1)
002028:    1341  0001363               ALMCADR           EQUALS   SMODE      +1                         #  B(2) ALARM ABORD USER'S 2CADR
002029:    1341  0001365               ERCOUNT           EQUALS   ALMCADR    +2                         #  B(1)
002030:    1341  0001366               SCOUNT            EQUALS   ERCOUNT    +1                         #  B(3)
002031:    1341  0001371               SKEEP1            EQUALS   SCOUNT     +3                         #  B(1)
002032:    1341  0001372               SKEEP2            EQUALS   SKEEP1     +1                         #  B(1)
002033:    1341  0001373               SKEEP3            EQUALS   SKEEP2     +1                         #  B(1)
002034:    1341  0001374               SKEEP4            EQUALS   SKEEP3     +1                         #  B(1)
002035:    1341  0001375               SKEEP5            EQUALS   SKEEP4     +1                         #  B(1)
002036:    1341  0001376               SKEEP6            EQUALS   SKEEP5     +1                         #  B(1)
002037:    1341  0001377               SKEEP7            EQUALS   SKEEP6     +1                         #  B(1)
002038:
002039:                                                                                                 #  USED BY P30 ROUTINES TO WRITE ONLY NEVER READ IN COLOSSUS
002040:
002041:    1341  0000000               DISPDEX           EQUALS   A
002042:
002043:                                                                                                 #  ERASABLE FOR SXTMARK CDU CHECK DELAY.  -- PAD LOADED --        (1D)
002044:
002045:    1341                        CDUCHKWD          ERASE                                          #  B(1)PL
002046:
002047:                                                                                                 #  R57 STORAGE. -- MUST BE UNSHARED EXCEPT IN BOOST OR ENTRY --   (1D)
002048:
002049:    1342                        TRUNBIAS          ERASE                                          #  B(1)PRM RESULT OF R57 CALIBR OF TRUNION
002050:
002051:                                                                                                 #  KEPLER STORAGE                         (6D)
002052:
002053:    1343                        XMODULO           ERASE    +1                                    #  I(2) GREATER 2PI KEPLER
002054:    1345                        TMODULO           ERASE    +1                                    #  I(2) GREATER 2 KEPLER
002055:    1347                        EPSILONT          ERASE    +1                                    #  I(2)TMP
002056:
002057:                                                                                                 #  Page 83
002058:                                                                                                 #  P37    ** RETURN TO EARTH (PAD LOAD ****       (2D)
002059:
002060:    1351                        RTED1             ERASE    +1                                    #  I(2)PL VGAMMA POLY COEF                B-3
002061:
002062:                                                                                                 #  P40    *** STEERING ROUTINE *** PAD LOAD       (1D)
002063:
002064:    1353                        DVTHRESH          ERASE                                          #  I(1)PL DELTA VTHRESHOLD FOR LOW THRUST
002065:                                                                                                 #         ROUTINE                 B-2
002066:
002067:                                                                                                 #  P23    *** PAD LOAD ****                       (2D)
002068:
002069:    1354                        HORIZALT          ERASE    +1                                    #  I(2)PL HORIZON ALTITUDE             M B-29
002070:
002071:                                                                                                 #  P20    ALTERNATE LOS VARIANCE  PAD LOAD ****   (1D)
002072:    1356                                                   -16
002073:    1356                        ALTVAR            ERASE                                          #  I(2)PL MILLARD, SQUARED SCALED 2
002074:    1357  0001377               END-UE            EQUALS   SELFERAS   +16D                       #  LAST USED UNSWITCHED ERASABLE
002075:
002076:                                                                                                 #  Page 84
002077:                                                                                                 #  EBANK-3 ASSIGNMENTS
002078:
002079: E3,1400                                          SETLOC   1400
002080:
002081:                                                                                                 #  WAITLIST TASK LISTS.                           (26D)
002082:
002083: E3,1400                        LST1              ERASE    +7                                    #  B(8D)PRM DELTA T'S.
002084: E3,1410                        LST2              ERASE    +17D                                  #  B(18D)PRM TASK 2CADR ADDRESSES.
002085:
002086:                                                                                                 #  RESTART STORAGE.                               (2D)
002087:
002088: E3,1432                        RSBBQ             ERASE    +1                                    #  B(2)PRM SAVE BB AND Q FOR RESTARTS
002089:
002090:                                                                                                 #  MORE LONGCALL STORAGE.  (MUST BE IN LST1'S BANK.       (2D)
002091:
002092: E3,1434                        LONGEXIT          ERASE    +1                                    #  B(2)TMP MAY BE SELDOM OVERLAYED
002093:
002094:                                                                                                 #  PHASE-CHANGE LISTS PART II.                    (12D)
002095:
002096:
002097: E3,1436                        PHSNAME1          ERASE                                          #  B(1)PRM
002098: E3,1437                        PHSBB1            ERASE                                          #  B(1)PRM
002099: E3,1440                        PHSNAME2          ERASE                                          #  B(1)PRM
002100: E3,1441                        PHSBB2            ERASE                                          #  B(1)PRM
002101: E3,1442                        PHSNAME3          ERASE                                          #  B(1)PRM
002102: E3,1443                        PHSBB3            ERASE                                          #  B(1)PRM
002103: E3,1444                        PHSNAME4          ERASE                                          #  B(1)PRM
002104: E3,1445                        PHSBB4            ERASE                                          #  B(1)PRM
002105: E3,1446                        PHSNAME5          ERASE                                          #  B(1)PRM
002106: E3,1447                        PHSBB5            ERASE                                          #  B(1)PRM
002107: E3,1450                        PHSNAME6          ERASE                                          #  B(1)PRM
002108: E3,1451                        PHSBB6            ERASE                                          #  B(1)PRM
002109:
002110:                                                                                                 #  IMU COMPENSATION PARAMETERS                    (22D)
002111:
002112: E3,1452                        PBIASX            ERASE                                          #  B(1) PIPA BIAS, PIPA SCALE FACTOR TERMS
002113: E3,1453  E3,1452               PIPABIAS          =        PBIASX                                #  INTERMIXED.
002114: E3,1453                        PIPASCFX          ERASE
002115: E3,1454  E3,1453               PIPASCF           =        PIPASCFX
002116: E3,1454                        PBIASY            ERASE
002117: E3,1455                        PIPASCFY          ERASE
002118: E3,1456                        PBIASZ            ERASE
002119: E3,1457                        PIPASCFZ          ERASE
002120:
002121: E3,1460                        NBDX              ERASE                                          #  GYRO BIAS DRIFT
002122: E3,1461  E3,1460               GBIASX            =        NBDX
002123: E3,1461                        NBDY              ERASE
002124:                                                                                                 #  Page 84
002125: E3,1462                        NBDZ              ERASE
002126:
002127: E3,1463                        ADIAX             ERASE                                          #  ACCELERATION SENSITIVE DRIFT ALONG THE
002128: E3,1464                        ADIAY             ERASE                                          #  INPUT AXIS
002129: E3,1465                        ADIAZ             ERASE
002130:
002131: E3,1466                        ADSRAX            ERASE                                          #  ACCELERATION SENSITIVE DRIFT ALONG THE
002132: E3,1467                        ADSRAY            ERASE                                          #  SPIN REFERENCE AXIS
002133: E3,1470                        ADSRAZ            ERASE
002134:
002135: E3,1471                        GCOMP             ERASE    +5                                    #  CONTAINS COMPENSATING TORQUES
002136:
002137: E3,1477                        GCOMPSW           ERASE
002138: E3,1500  E3,1471               COMMAND           EQUALS   GCOMP
002139: E3,1500  E3,1474               CDUIND            EQUALS   GCOMP      +3
002140:
002141:                                                                                                 #  STATE VECTORS FOR ORBIT INTEGRATION.           (44D)
002142:
002143:                                                                                                 #                 (DIFEQCNT THUR XKEP MUST BE IN THE SAME
002144:                                                                                                 #                 EBANK AS RRECTCSM, RRECTLEM ETC
002145:                                                                                                 #                 BECAUSE THE COPY CYCLES (ATOPCSM,
002146:                                                                                                 #                 PTOACSM ETC) ARE EXECUTED IN BASIC.
002147:                                                                                                 #                 ALL OTHER REFERENCES TO THIS GROUP
002148:                                                                                                 #                 ARE BY INTERPRETIVE INSTRUCTIONS.)
002149:
002150:
002151: E3,1500                        DIFEQCNT          ERASE    +43D                                  #  B(1)TMP
002152:                                                                                                 #  (UPSVFLAG...XKEP MUST BE KEPT IN ORDER).
002153:
002154: E3,1554  E3,1501               UPSVFLAG          EQUALS   DIFEQCNT   +1                         #  B(1)PRM UPDATE FLAG
002155: E3,1554  E3,1502               RRECT             EQUALS   UPSVFLAG   +1                         #  B(6)TMP POS AT RECT            KM*2(-14)
002156: E3,1554  E3,1510               VRECT             EQUALS   RRECT      +6                         #  B(6)TMP VEL AT RECT            KM(-1/2)*2(6)
002157: E3,1554  E3,1516               TET               EQUALS   VRECT      +6                         #  B(2)TMP TIME OF STATE VECT     CSPCS*2(-28)
002158: E3,1554  E3,1520               TDELTAV           EQUALS   TET        +2                         #  B(6)TMP POSITION DEVIATION     KM*2(14)
002159: E3,1554  E3,1526               TNUV              EQUALS   TDELTAV    +6                         #  B(6)TMP VEL DEVIATION          KM(-1/2)*2(14)
002160: E3,1554  E3,1534               RCV               EQUALS   TNUV       +6                         #  B(6)TMP CONIC POSITION KM*2(-14)
002161: E3,1554  E3,1542               VCV               EQUALS   RCV        +6                         #  B(6)TMP CONIC VELOCITY KM(-1/2)*2(6)
002162: E3,1554  E3,1550               TC                EQUALS   VCV        +6                         #  B(2)TMP TIME SINCE RECITIFICATION
002163: E3,1554  E3,1552               XKEP              EQUALS   TC         +2                         #  B(2)TMP ROOT OF KEPLER EQ      KM(1/2)*2(-10)
002164:
002165:                                                                                                 #  **** TEMP -- IN VAC AREA ****
002166: E3,1554                        RRECT1            EQUALS   18D
002167: E3,1554                        VRECT1            EQUALS   24D
002168: E3,1554                        TET1              EQUALS   30D
002169:
002170:                                                                                                 #  PERMANENT STATE VECTORS AND TIMES.
002171:
002172:                                                                                                 #  (DO NOT OVERLAY WITH ANYTHING AFTER BOOST)
002173:
002174:                                                                                                 #  Page 86
002175:                                                                                                 #  (RRECTCSM...XKEPCSM MUST BE KEPT IN THIS ORDER)
002176:
002177: E3,1554                        RRECTCSM          ERASE    +5                                    #  B(6)PRM CSM VARIABLES
002178: E3,1562  E3,1554               RRECTHIS          =        RRECTCSM
002179: E3,1562                        VRECTCSM          ERASE    +5                                    #  B(6)PRM
002180: E3,1570                        TETCSM            ERASE    +1                                    #  B(2)PRM
002181: E3,1572  E3,1570               TETTHIS           =        TETCSM
002182: E3,1572                        DELTACSM          ERASE    +5                                    #  B(6)PRM
002183: E3,1600                        NUVCSM            ERASE    +5                                    #  B(6)PRM
002184: E3,1606                        RCVCSM            ERASE    +5                                    #  B(6)PRM
002185: E3,1614                        VCVCSM            ERASE    +5                                    #  B(6)PRM
002186: E3,1622                        TCCSM             ERASE    +1                                    #  B(2)PRM
002187: E3,1624                        XKEPCSM           ERASE    +1                                    #  B(2)PRM
002188:
002189:                                                                                                 #  (RRECTLEM...XKEPLEM MUST BE KEPT IN THIS ORDER)
002190:
002191: E3,1626                        RRECTLEM          ERASE    +5                                    #  B(6)PRM LEM VARIABLES
002192: E3,1634  E3,1626               RRECTOTH          =        RRECTLEM
002193: E3,1634                        VRECTLEM          ERASE    +5                                    #  B(6)PRM
002194: E3,1642                        TETLEM            ERASE    +1                                    #  B(2)PRM
002195: E3,1644  E3,1642               TETOTHER          =        TETLEM
002196: E3,1644                        DELTALEM          ERASE    +5                                    #  B(6)PRM
002197: E3,1652                        NUVLEM            ERASE    +5                                    #  B(6)PRM
002198: E3,1660                        RCVLEM            ERASE    +5                                    #  B(6)PRM
002199: E3,1666                        VCVLEM            ERASE    +5                                    #  B(6)PRM
002200: E3,1674                        TCLEM             ERASE    +1                                    #  B(2)PRM
002201: E3,1676                        XKEPLEM           ERASE    +1                                    #  B(2)PRM
002202:
002203: E3,1700                        X789              ERASE    +5
002204: E3,1706                        TEPHEM            ERASE    +2
002205: E3,1711                        AZO               ERASE    +1
002206: E3,1713                        UNITW             ERASE    +5
002207: E3,1721  E3,1713               -AYO              EQUALS   UNITW                                 #  (2)
002208: E3,1721  E3,1715               AXO               EQUALS   UNITW      +2                         #  (2)
002209:
002210:                                                                                                 #  STATE VECTORS FOR DOWNLINK                     (12D)
002211:
002212: E3,1721                        R-OTHER           ERASE    +5                                    #  B(6)PRM POS VECT (OTHER VECH) FOR DNLINK
002213: E3,1727                        V-OTHER           ERASE    +5                                    #  B(6)PRM VEL VECT (OTHER VECH) FOR DNLINK
002214:
002215: E3,1735  E3,1642               T-OTHER           =        TETLEM                                #               TIME (OTHER VECH) FOR DNLINK
002216:
002217:                                                                                                 #  REFSMMAT.                                      (18D)
002218:
002219: E3,1735                        REFSMMAT          ERASE    +17D                                  #  I(18D)PRM
002220:
002221:                                                                                                 #  Page 87
002222:                                                                                                 #  AVERAGEG INTEGRATOR STORAGE.                   (8D)
002223: E3,1757                        UNITR             ERASE    +5
002224: E3,1765                        RMAG              ERASE    +1
002225:
002226:                                                                                                 #  **** CONICSEX (PLANETARY INERT. ORIEN.) ****
002227: E3,1767  E3,1706               TIMSUBO           EQUALS   TEPHEM                                #  CSEC B-14 (TRIPLE PREC)
002228: E3,1767  E3,1767               END-E3            EQUALS   RMAG       +2                         #  NEXT UNUSED E3 ADDRESS
002229:
002230:                                                                                                 #  Page 88
002231:                                                                                                 #  EBANK-4 ASSIGNMENTS
002232:
002233: E4,1400                                          SETLOC   2000
002234:
002235:                                                                                                 #  P20 STORAGE.  -- PAD LOADED --         (4D)
002236:
002237: E4,1400                        WRENDPOS          ERASE                                          #  B(1)PL M B-14
002238: E4,1401                        WRENDVEL          ERASE                                          #  B(1)PL M/CSECB0
002239: E4,1402                        RMAX              ERASE                                          #  B(1)PL METERS*2(-19)
002240: E4,1403                        VMAX              ERASE                                          #  B(1)PL M/CSEC*2(-7)
002241:
002242:                                                                                                 #  P22 STORAGE.  -- PAD LOADED --         (5D)
002243: E4,1404                        WORBPOS           ERASE                                          #  B(1)PL M B-14
002244: E4,1405                        WORBVEL           ERASE                                          #  B(1)PL M/CSECB0
002245: E4,1406                        S22WSUBL          ERASE                                          #  B(1)PL M B-14
002246: E4,1407                        RPVAR             ERASE    +1                                    #  B(2)PL
002247:
002248:                                                                                                 #  CONISEX STORAGE.  -- PAD LOADED --             (6D)
002249:
002250: E4,1411                        504LM             ERASE    +5                                    #  I(6) MOON LIBRATION VECTOR
002251:
002252:                                                                                                 #  ENTRY STORAGE      -- PAD LOADED --            (2D)
002253: E4,1417                        EMSALT            ERASE    +1                                    #  I(2)PL
002254:
002255:                                                                                                 #  P35 CONSTANTS.    -- PAD LOADED --             (4D)
002256: E4,1421                        ATIGINC           ERASE    +1                                    #  B(2)PL
002257: E4,1423                        PTIGINC           ERASE    +1                                    #  B(2)PL
002258:
002259:                                                                                                 #  LUNAR LANDING SIGHT DATA.  -- PAD LOADED --    (6D)
002260:                                                                                                 #  (USED BY INTEGRATION INITIALIZATION, LAT-LONG SUBROUTINES, P30'S)
002261:
002262: E4,1425                        RLS               ERASE    +5                                    #  I(6) LANDING SIGHT VECTOR
002263:
002264:                                                                                                 #  (LUNAR AND SOLAR EPHEM) STORAGE.  -- PAD LOADED --     (77D)
002265: E4,1433                        TIMEMO            ERASE    +76D
002266: E4,1550  E4,1436               VECOEM            EQUALS   TIMEMO     +3
002267: E4,1550  E4,1532               RESO              EQUALS   VECOEM     +60D
002268:                                                                                                 #  Page 89
002269: E4,1550  E4,1540               VESO              EQUALS   RESO       +6
002270: E4,1550  E4,1546               OMEGAES           EQUALS   VESO       +6
002271:
002272:                                                                                                 #  INTEGRATION STORAGE.                           (95D)
002273:
002274: E4,1550                        PBODY             ERASE                                          #  I(1)
002275: E4,1551  E4,1551               ALPHAV            EQUALS   PBODY      +1                         #  I(6)TMP
002276: E4,1551  E4,1557               BETAV             EQUALS   ALPHAV     +6                         #  I(6)TMP
002277: E4,1551  E4,1565               PHIV              EQUALS   BETAV      +6                         #  I(6)TMP
002278: E4,1551  E4,1573               PSIV              EQUALS   PHIV       +6                         #  I(6)TMP
002279: E4,1551  E4,1601               FV                EQUALS   PSIV       +6                         #  I(6)TMP
002280: E4,1551  E4,1607               BETAM             EQUALS   FV         +6                         #  I(2)TMP
002281: E4,1551  E4,1611               H                 EQUALS   BETAM      +2                         #  I(2)TMP
002282: E4,1551  E4,1613               GMODE             EQUALS   H          +2                         #  I(1)TMP
002283: E4,1551  E4,1614               IRETURN           EQUALS   GMODE      +1                         #  I(1)TMP
002284: E4,1551  E4,1615               NORMGAM           EQUALS   IRETURN    +1                         #  I(1)TMP
002285: E4,1551  E4,1616               VECTAB            EQUALS   NORMGAM    +1                         #  I(36)TMP
002286: E4,1551  E4,1662               RPQV              EQUALS   VECTAB     +36D                       #   (6)TMP VECTOR PRIMARY TO SECONDARY BODY
002287: E4,1551  E4,1670               ORIGEX            EQUALS   RPQV       +6                         #  I(1)TMP QSAVE FOR COORD. SWITCH ROUTINE
002288: E4,1551  E4,1670               KEPRTN            EQUALS   ORIGEX                                #           QSAVE FOR KEPLER
002289: E4,1551  E4,1671               RQVV              EQUALS   ORIGEX     +1                         #   (6)    SEC. BODY TO VEH. VECTOR (USED P23)
002290: E4,1551  E4,1677               RPSV              EQUALS   RQVV       +6                         #   (6)TMP SUN TO PRIMARY BODY VECTOR
002291: E4,1551  E4,1705               XKEPNEW           EQUALS   RPSV       +6                         #   (2)TMP ROOT OF KEPLER'S EQU FOR TIME TAU
002292:
002293:                                                                                                 #  THESE PROBABLY CAN SHARE INTEGRATION VARIABLES         (9D)
002294:
002295: E4,1551  E4,1623               VACX              EQUALS   VECTAB     +5                         #  I(2)TMP
002296: E4,1551  E4,1625               VACY              EQUALS   VACX       +2                         #  I(2)TMP
002297: E4,1551  E4,1627               VACZ              EQUALS   VACY       +2                         #  I(2)TMP
002298:
002299: E4,1551  E4,1640               ERADM             EQUALS   VECTAB     +18D                       #  I(2)TMP
002300: E4,1551  E4,1642               INCORPEX          EQUALS   ERADM      +2                         #  I(1)TMP
002301:
002302:                                                                                                 #  R31 (V83) STORAGE. -- SHARES WITH INTEGRATION STORAGE --       (28D)
002303:
002304: E4,1551  E4,1624               BASEOTP           EQUALS   VECTAB     +6                         #  I(6) BASE POS VECTOR OTHER VEH
002305: E4,1551  E4,1640               BASEOTV           EQUALS   VECTAB     +18D                       #  I(6) BASE VEL VECTOR OTHER VEH
002306: E4,1551  E4,1654               BASETHP           EQUALS   VECTAB     +30D                       #  I(6) BASE POS VECTOR THIS VEH
002307: E4,1551  E4,1662               BASETHV           EQUALS   RPQV                                  #  I(6) BASE VEL VECTOR THIS VEH
002308: E4,1551  E4,1671               BASETIME          EQUALS   RQVV                                  #  I(2) TIME ASSOC WITH BASE VECS
002309: E4,1551  E4,1673               ORIG              EQUALS   RQVV       +2                         #  I(1) =0 FOR EARTH      =+2 FOR MOON
002310:
002311:                                                                                                 #  CONIC INTEGRATION STORAGE. -- MAY NOT SHARE WITH SERVICER --   (6D)
002312: E4,1551  E4,1707               ALPHAM            EQUALS   XKEPNEW    +2                         #  I(2)TMP
002313:
002314:                                                                                                 #  Page 90
002315: E4,1551  E4,1711               TAU.              EQUALS   ALPHAM     +2                         #  I(2)TMP
002316: E4,1551  E4,1713               DT/2              EQUALS   TAU.       +2                         #  I(2)TMP
002317:
002318:                                                                                                 #  P21 STORAGE.                                   (2D)
002319: E4,1551  E4,1715               P21TIME           EQUALS   DT/2       +2                         #  B(2)TMP
002320:
002321:                                                                                                 #  INCORPORATION/VERB 63 COMMON STORAGE           (1D)
002322: E4,1551  E4,1717               EGRESS            EQUALS   P21TIME    +2                         #  I(1)TMP SAVES RETURNS.
002323:
002324:                                                                                                 #  VERB 83 STORAGE.       MAY SHARE ONLY WITH INCORPORATION.      (18D)
002325:
002326: E4,1551  E4,1720               RANGE             EQUALS   EGRESS     +1                         #  I(2)DSP NOUN 54 DISTANCE TO OPTICAL SUBJ
002327: E4,1551  E4,1722               RRATE             EQUALS   RANGE      +2                         #  I(2)DSP NOUN 54 RATE OF APPROACH
002328: E4,1551  E4,1724               RTHETA            EQUALS   RRATE      +2                         #  I(2)DSP NOUN 54.
002329: E4,1551  E4,1726               RONE              EQUALS   RTHETA     +2                         #  I(6)TMP VECTOR STORAGE.  (SCRATCH)
002330: E4,1551  E4,1734               VONE              EQUALS   RONE       +6                         #  I(6)TMP VECTOR STORAGE.  (SCRATCH)
002331:
002332:                                                                                                 #  LUNAR LANDMARK SELECTION PROGRAM -- R35        (28D)
002333: E4,1551  E4,1720               XR1HOLD           EQUALS   RANGE                                 #  I(2)
002334: E4,1551  E4,1722               VECTIME           EQUALS   XR1HOLD    +2                         #  I(2)
002335: E4,1551  E4,1724               JLOOPCNT          EQUALS   VECTIME    +2                         #  I(1)
002336: E4,1551  E4,1725               KLOOPCNT          EQUALS   JLOOPCNT   +1                         #  I(1)
002337: E4,1551  E4,1726               NKVAL             EQUALS   KLOOPCNT   +1                         #  I(1)
002338: E4,1551  E4,1727               DELTAL            EQUALS   NKVAL      +1                         #  I(2)
002339: E4,1551  E4,1731               TK                EQUALS   DELTAL     +2                         #  I(2)
002340: E4,1551  E4,1733               INDEXNUM          EQUALS   TK         +2                         #  I(1)
002341:
002342: E4,1551  E4,1734               LONGSAVE          EQUALS   INDEXNUM   +1                         #  I(2)
002343: E4,1551  E4,1736               POSVECT           EQUALS   LONGSAVE   +2                         #  I(6)
002344: E4,1551  E4,1744               VELVECT           EQUALS   POSVECT    +6                         #  I(6)
002345: E4,1551  E4,1752               LSLONG            EQUALS   VELVECT    +6                         #  I(2)TMP LONGITUDE OF LANDING SIGHT
002346:
002347:                                                                                                 #  S-BAND ANTENNA GIMBAL ANGLES.  DISPLAYED BY R05 (V64). (4D)
002348:                                                                                                 #                         (OPERATES DURING P00 ONLY)
002349: E4,1551  E4,1720               RHOSB             EQUALS   RANGE                                 #  B(2)DSP NOUN 51. PITCH ANGLE
002350: E4,1551  E4,1722               GAMMASB           EQUALS   RHOSB      +2                         #  B(2)DSP NOUN 51. YAWANGLE
002351:
002352:                                                                                                 #  R36 SCRATCHPAD STORAGE
002353:                                                                                                 #  Page 91
002354: E4,1551  E4,1726               RPASS36           EQUALS   RONE                                  #  I(6) S-S
002355: E4,1551  E4,1734               UNP36             EQUALS   RPASS36    +6                         #  I(6) S-S
002356:
002357:                                                                                                 #  EXTENDED VERB 62 STORAGE.
002358:                                                                                                 #  (*** SHARING IN THIS SECTION IS TEMPORARY ONLY ****)   (8D)
002359:
002360: E4,1551  E4,1720               HPERMIN           EQUALS   RANGE                                 #  I(2) SET TO 300KFT FOR SR30.1
002361: E4,1551  E4,1722               RPADTEM           EQUALS   HPERMIN    +2                         #  I(2) PAD OR LANDING RADIUS FOR SR30.1
002362: E4,1551  E4,1724               TSTART82          EQUALS   RPADTEM    +2                         #  I(2) TEMP TIME STORATE VOR V82.
002363:
002364:                                                                                                 #  MORE VERB 62 NOT SHARING WITH VERB 83          (9D)
002365: E4,1551  E4,1742               V82FLAGS          EQUALS   VONE       +6                         #   (1) FOR V 82 BITS
002366: E4,1551  E4,1743               TFF               EQUALS   V82FLAGS   +1                         #  I(2)DSP NOUN 42, FOR P30,40,41.
002367: E4,1551  E4,1745               -TPER             EQUALS   TFF        +2                         #  I(2)DSP NOUN 32
002368: E4,1551  E4,1747               THETA(1)          EQUALS   -TPER      +2                         #  I(2)TMP SET AT END OF V62
002369: E4,1551  E4,1755               RSP-RREC          EQUALS   AOPTIME                               #  DSP NOUN R32
002370:
002371:                                                                                                 #  REENTRY CONICS                         (6D)
002372: E4,1551  E4,1742               URONE             EQUALS   V82FLAGS                              #  I(6) SAVE ACTUAL FOR CALCULATIONS
002373:
002374:                                                                                                 #  V62 DISPLAY                                    (4D)
002375: E4,1551  E4,1751               HAPOX             EQUALS   THETA(1)   +2                         #  I(2)DSP NOUN 44
002376: E4,1551  E4,1753               HPERX             EQUALS   HAPOX      +2                         #  I(2)DSP NOUN 44
002377:
002378:                                                                                                 #  VARIOUS DISPLAY REGISTERS                      (06D)
002379: E4,1551  E4,1755               AOPTIME           EQUALS   HPERX      +2
002380: E4,1551  E4,1757               LANDLONG          EQUALS   AOPTIME    +2                         #  I(2)DSP NOUN 89 FOR P22
002381: E4,1551  E4,1761               LANDALT           EQUALS   LANDLONG   +2                         #  I(2)DSP NOUN 89 FOR P22
002382:
002383:                                                                                                 #  S34/35.5,P34-P35 STORAGE.                      (6D)
002384: E4,1551  E4,1763               KT                EQUALS   LANDALT    +2                         #  B(2)
002385: E4,1551  E4,1765               VERBNOUN          EQUALS   KT         +2                         #  B(1)TMP
002386: E4,1551  E4,1766               QSAVED            EQUALS   VERBNOUN   +1                         #  B(1)TMP HOLDS RETURN
002387:                                                                                                 #  Page 92
002388: E4,1551  E4,1767               RTRN              EQUALS   QSAVED     +1                         #  B(1) RETURN
002389: E4,1551  E4,1770               SUBEXIT           EQUALS   RTRN       +1                         #  B(1)TMP
002390:                                                                                                 #  RGEXIT CAN'T SHARE WITH HPER,HAPO
002391: E4,1551  E4,1770               RGEXIT            EQUALS   SUBEXIT                               #  I(1)TMP Q SAVE MODE 1 AND 2 TO RTRN MAIN
002392:
002393:                                                                                                 #  P30 DISPLAY                                    (4D)
002394: E4,1551  E4,1763               HAPO              EQUALS   KT                                    #  I(2)DSP NOUN 42, FOR P30.
002395: E4,1551  E4,1765               HPER              EQUALS   HAPO       +2                         #  I(2)DSP NOUN 42, FOR P30.
002396:
002397:                                                                                                 #  SOME P34 STORAGE.      (OVERLAYS P35.1 STORAGE)        (2D)
002398: E4,1551  E4,1763               NOMTPI            EQUALS   KT                                    #  I(2)TMP NOMINAL TPI TIME FOR RECYCLE.
002399:
002400:                                                                                                 #  THE FOLLOWING ARE ERASABLES USED BY TEH SYSTEM TESTS.  205 USES TRANSM1.  Q'S ARE NOT USED IN 205 NORE ARE THEY
002401:                                                                                                 #  WHILE 504 USES TRANSM1 AND ALFDK.
002402: E4,1551                        TRANSM1           EQUALS   2000                                  #  (19) INITIALIZATION FOR IMU TESTS
002403: E4,1551  0002022               ALFDK             =        TRANSM1    +18D                       #  (144) ERASABLE LOAD IN 504
002404:
002405:                                                                                                 #  END OF PERF. TEST ERASABLE IN BANK 4
002406:
002407:                                                                                                 #  *-*-* V82 *-*-*                                (6D)
002408:
002409: E4,1551  E4,1771               VONE'             EQUALS   RGEXIT     +1                         #  I(6)TMP NORMAL VELOCITY VONE / SQ RT MU
002410:
002411:                                                                                                 #  PAD LOAD INTEGRATION ERROR INCLUDED IN VARIANCE BY P20 (1D)
002412:
002413: E4,1551  E4,1777               INTVAR            EQUALS   VONE'      +6                         #  I(1)PL SQUARE OF EXPECTED INTEGRATION
002414:                                                                                                 #                 POSITION EXTRAPOLATION ERROR.
002415:                                                                                                 #                 SCALED METERS(2) 2(15)
002416: E4,1551  E4,1777               END-E4            EQUALS   INTVAR                                #  LAST USED ERASABLE IN E4.
002417:
002418:                                                                                                 #  Page 93
002419:                                                                                                 #  EBANK-5 ASSIGNMENTS
002420:
002421: E5,1400                                          SETLOC   2400
002422:
002423:                                                                                                 #  *-*-*-*- OVERLAY 1 IN EBANK 5 -*-*-*-*
002424:
002425:                                                                                                 #  W-MATRIX STORAGE.                              (162D)
002426:
002427:                                                                                                 #  The following was "EQUALS 2400".---RSB 2004
002428: E5,1400                        W                 EQUALS                                         #  B(162)
002429: E5,1400  E5,1570               EMATRIX           =        W          +120D                      #  B(42E USED TO CONVERT W TO 6X6
002430: E5,1400  E5,1642               END-W             EQUALS   W          +162D                      #  **NEXT AVAILABLE LOC AFTER W MATRIX**
002431:
002432:                                                                                                 #  AUTO-OPTICS STORAGE -R52-
002433:
002434:                                                                                                 #  DO NOT MOVE FROM E5,1554.  A DELICATE BALANCE EXISTS BETWEEN THIS AND P03
002435: E5,1400  E5,1554               XNB1              EQUALS   W          +108D                      #  B(6D)TMP
002436: E5,1400  E5,1562               YNB1              EQUALS   XNB1       +6                         #  B(6)TMP
002437: E5,1400  E5,1570               ZNB1              EQUALS   YNB1       +6                         #  B(6)TMP
002438: E5,1400  E5,1576               SAVQR52           EQUALS   ZNB1       +6                         #  I(2)TMP
002439: E5,1400  E5,1600               PLANVEC           EQUALS   SAVQR52    +2                         #  B(6) S-S SIGHTING VECTOR IN REF. COOR.
002440: E5,1400  E5,1606               TSIGHT            EQUALS   PLANVEC    +6                         #  B(2) S-S TIME OF SIGHTING
002441:
002442:                                                                                                 #  RENDEZVOUS -P34-35
002443: E5,1400  E5,1610               DVLOS             EQUALS   TSIGHT     +2                         #  I(6) S-S DELTA VELOCITY, LOS COORD-DISPLAY
002444: E5,1400  E5,1610               DELTAR            EQUALS   DVLOS                                 #  I(2)
002445: E5,1400  E5,1610               TINTSOI           EQUALS   DELTAR                                #  I(2) INTERCEPT TIME FOR SOI MANEUVER
002446: E5,1400  E5,1612               DELTTIME          EQUALS   DVLOS      +2                         #  I(2)
002447: E5,1400  E5,1614               TARGTIME          EQUALS   DVLOS      +4                         #  I(2)
002448: E5,1400  E5,1616               UNRM              EQUALS   DVLOS      +6                         #  I(6) S-S
002449: E5,1400  E5,1624               ULOS              EQUALS   UNRM       +6                         #  I(6) S-S UNIT LINE OF SIGHT VECTOR
002450: E5,1400  E5,1632               ACTCENT           EQUALS   ULOS       +6                         #  I(2) S-S CENTRAL ANGLE BETWEEN ACTIVE
002451:                                                                                                 #       VEH AT TPI IGNITION TIME AND
002452:                                                                                                 #       TARGET VECTOR.
002453: E5,1400  E5,1634               DELVTPI           EQUALS   ACTCENT    +2                         #  I(2) NOUN 58 FOR P34
002454: E5,1400  E5,1636               DELVTPF           EQUALS   DELVTPI    +2                         #  I(2) NOUN 58,59 FOR P34,35
002455: E5,1400  E5,1640               POSTTPI           EQUALS   DELVTPF    +2                         #  I(2) NOUN 58 FOR P34.
002456: E5,1400  E5,1634               TDEC2             EQUALS   DELVTPI                               #   (2)
002457:
002458:                                                                                                 #  ALIGNMENT                                      (12D)
002459: E5,1400  E5,1610               STARSAV1          EQUALS   DVLOS                                 #  I(6)TMP RESTART STAR SAVE.
002460: E5,1400  E5,1616               STARSAV2          EQUALS   STARSAV1   +6                         #  I(6)TMP RESTART STAR SAVE.
002461:                                                                                                 #  Page 94
002462: E5,1400  E5,1616               US                =        STARSAV2                              #  (CISLUNAR TAG FOR STARSAV2).
002463:
002464:                                                                                                 #  TPI SEARCH                                     (26D)
002465: E5,1400  E5,1610               IT                EQUALS   DVLOS                                 #   (6)
002466: E5,1400  E5,1616               THETZERO          EQUALS   IT         +6                         #   (2)
002467: E5,1400  E5,1620               TFI               EQUALS   THETZERO   +2                         #   (2)
002468: E5,1400  E5,1622               DELVEE            EQUALS   TFI        +2                         #   (2)
002469: E5,1400  E5,1624               HP                EQUALS   DELVEE     +2                         #   (2)
002470: E5,1400  E5,1626               TFO               EQUALS   HP         +2                         #   (2)
002471: E5,1400  E5,1630               HPO               EQUALS   TFO        +2                         #   (2)
002472: E5,1400  E5,1632               DELVEO            EQUALS   HPO        +2                         #   (2)
002473: E5,1400  E5,1634               MAGVTPI           EQUALS   DELVEO     +2                         #  I(2)TMP MAG OF DELTAVTPI OR VMID
002474: E5,1400  E5,1636               RELDELV           EQUALS   MAGVTPI    +2                         #  I(2)TMP MAG OF DELTAVTPF
002475: E5,1400  E5,1640               T3TOT4            EQUALS   RELDELV    +2                         #  I(2)DSP NOUN 39 FOR P34,35.  TPI TO TINT
002476:                                                                                                 #  (CANNOT SHARE WITH RETURN TO EARTH)
002477:                                                                                                 #  Page 95
002478:                                                                                                 #  ALIGNMENT/SYSTEST/CALCSMSC/CRS61.1 COMMON STORAGE      (36D)
002479:                                                                                                 #  (CALCSMSC IS A SUBSET OF S41.1 AT LEAST)
002480:                                                                                                 #  (CRS61.1 IS A SUBSET OF P20)
002481:
002482: E5,1400  E5,1671               XSM               EQUALS   END-W      +23D                       #  B(6)
002483: E5,1400  E5,1677               YSM               EQUALS   XSM        +6                         #  B(6)TMP
002484: E5,1400  E5,1705               ZSM               EQUALS   YSM        +6                         #  B(6)TMP
002485:
002486: E5,1400  E5,1713               XDC               EQUALS   ZSM        +6                         #  B(6)TMP
002487: E5,1400  E5,1721               YDC               EQUALS   XDC        +6                         #  B(6)TMP
002488: E5,1400  E5,1727               ZDC               EQUALS   YDC        +6                         #  B(6)TMP
002489:
002490: E5,1400  E5,1713               XNB               =        XDC
002491: E5,1400  E5,1721               YNB               =        YDC
002492: E5,1400  E5,1727               ZNB               =        ZDC
002493:
002494:                                                                                                 #  OVERLAYS WITHIN ALIGNMENT/SYSTEST/CALCSMSC COMMON STORAGE
002495:
002496: E5,1400  E5,1673               -COSB             EQUALS   XSM        +2                         #  (2)TMP
002497: E5,1400  E5,1675               SINB              EQUALS   -COSB      +2                         #  (2)TMP
002498:
002499:                                                                                                 #  ALIGNMENT/SYSTEST COMMON STORAGE.              (18D)
002500:
002501: E5,1400  E5,1735               STARAD            EQUALS   ZDC        +6                         #  I(18D)TMP
002502:
002503:                                                                                                 #  ALIGNMENT/SYSTEST/AUTO OPTICS COMMON STORAGE.  (37D)
002504:
002505: E5,1400  E5,1757               OGC               EQUALS   STARAD     +18D                       #  I(2)TMP
002506: E5,1400  E5,1761               IGC               EQUALS   OGC        +2                         #  I(2)TMP
002507: E5,1400  E5,1763               MGC               EQUALS   IGC        +2                         #  I(2)TMP
002508: E5,1400  E5,1765               STAR              EQUALS   MGC        +2                         #  I(6)TMP
002509: E5,1400  E5,1773               SAC               EQUALS   STAR       +6                         #  I(2)TMP
002510: E5,1400  E5,1775               PAC               EQUALS   SAC        +2                         #  I(2)TMP
002511: E5,1400  E5,1777               QMIN              EQUALS   PAC        +2                         #  B(1)TMP
002512:
002513:                                                                                                 #  **** COLP50'S ****
002514: E5,1400  E5,1735               CULTRIX           EQUALS   VEARTH                                #  VEARTH, VSUN, VMOON
002515:
002516:                                                                                                 #  OVERLAYS WITHIN ALIGNMENT/SYSTEST COMMON STORAGE       (24D)
002517:
002518: E5,1400  E5,1735               VEARTH            EQUALS   STARAD                                #  (6)TMP
002519: E5,1400  E5,1743               VSUN              EQUALS   VEARTH     +6                         #  (6)TMP
002520: E5,1400  E5,1751               VMOON             EQUALS   VSUN       +6                         #  (6)TMP
002521: E5,1400  E5,1757               SAX               EQUALS   VMOON      +6                         #  (6)TMP
002522:
002523:                                                                                                 #  Page 96
002524:                                                                                                 #  *-*-*-*- OVERLAY NUMBER 2 IN EBANK 5 -*-*-*-*
002525:
002526:                                                                                                 #  CONICS ROUTINE STORAGE.                        (67D)
002527:
002528: E5,1400  E5,1642               DELX              EQUALS   END-W                                 #  I(2)TMP
002529: E5,1400  E5,1644               DELT              EQUALS   DELX       +2                         #  I(2)TMP
002530: E5,1400  E5,1646               URRECT            EQUALS   DELT       +2                         #  I(6)TMP
002531: E5,1400  E5,1654               RCNORM            EQUALS   URRECT     +6                         #  I(2)TMP
002532: E5,1400  E3,1552               XPREV             EQUALS   XKEP                                  #  I(2)TMP
002533: E5,1400  E5,1656               R1VEC             EQUALS   RCNORM     +2                         #  I(6)TMP
002534: E5,1400  E5,1664               R2VEC             EQUALS   R1VEC      +6                         #  I(6)TMP
002535: E5,1400  E5,1672               TDESIRED          EQUALS   R2VEC      +6                         #  I(2)TMP
002536: E5,1400  E5,1674               GEOMSGN           EQUALS   TDESIRED   +2                         #  I(1)TMP
002537: E5,1400  E5,1675               UN                EQUALS   GEOMSGN    +1                         #  I(6)TMP
002538: E5,1400  E5,1703               VTARGTAG          EQUALS   UN         +6                         #  I(1)TMP
002539: E5,1400  E5,1704               VTARGET           EQUALS   VTARGTAG   +1                         #  I(6)TMP
002540: E5,1400  E5,1712               RTNLAMB           EQUALS   VTARGET    +6                         #  I(1)TMP
002541: E5,1400  E5,1713               U2                EQUALS   RTNLAMB    +1                         #  I(6)TMP
002542: E5,1400  E5,1721               MAGVEC2           EQUALS   U2         +6                         #  I(2)TMP
002543: E5,1400  E5,1723               UR1               EQUALS   MAGVEC2    +2                         #  I(6)TMP
002544: E5,1400  E5,1731               SNTH              EQUALS   UR1        +6                         #  I(2)TMP
002545: E5,1400  E5,1733               CSTH              EQUALS   SNTH       +2                         #  I(2)TMP
002546: E5,1400  E5,1735               1-CSTH            EQUALS   CSTH       +2                         #  I(2)TMP
002547: E5,1400  E5,1737               CSTH-RHO          EQUALS   1-CSTH     +2                         #  I(2)TMP
002548: E5,1400  E5,1741               P                 EQUALS   CSTH-RHO   +2                         #  I(2)TMP
002549: E5,1400  E5,1743               R1A               EQUALS   P          +2                         #  I(2)TMP
002550: E5,1400  E5,1656               RVEC              EQUALS   R1VEC                                 #  I(6)TMP
002551: E5,1400  E5,1745               VVEC              EQUALS   R1A        +2                         #  I(6)TMP
002552: E5,1400  E5,1712               RTNTT             EQUALS   RTNLAMB                               #  I(1)TMP
002553: E5,1400  E5,1753               ECC               EQUALS   VVEC       +6                         #  I(2)TMP
002554: E5,1400  E5,1712               RTNTR             EQUALS   RTNLAMB                               #  I(1)TMP
002555: E5,1400  E5,1712               RTNAPSE           EQUALS   RTNLAMB                               #  I(1)TMP
002556: E5,1400  E5,1721               R2                EQUALS   MAGVEC2                               #  I(2)TMP
002557: E5,1400  E5,1755               RTNPRM            EQUALS   ECC        +2                         #  I(1)TMP
002558: E5,1400  E5,1756               SGNRDOT           EQUALS   RTNPRM     +1                         #  I(1)TMP
002559: E5,1400  E5,1757               RDESIRED          EQUALS   SGNRDOT    +1                         #  I(2)TMP
002560: E5,1400  E5,1761               DELDEP            EQUALS   RDESIRED   +2                         #  I(2)TMP
002561: E5,1400  E5,1763               DEPREV            EQUALS   DELDEP     +2                         #  I(2)TMP
002562: E5,1400  E5,1761               TERRLAMB          EQUALS   DELDEP                                #  I(2)TMP
002563: E5,1400  E5,1763               TPREV             EQUALS   DEPREV                                #  I(2)TMP
002564:                                                                                                 #  Page 97
002565:                                                                                                 #  *-*-*-*- OVERLAY NUMBER 3 IN EBANK 5 -*-*-*-*
002566:
002567:                                                                                                 #  MEASUREMENT INCORPORATION STORAGE.             (66D)
002568:                                                                                                 #  (CALLED BY P20, P22, P23)
002569:
002570: E5,1400  E5,1642               OMEGAM1           EQUALS   END-W                                 #  I(6)
002571: E5,1400  E5,1650               OMEGAM2           EQUALS   OMEGAM1    +6                         #  I(6)
002572: E5,1400  E5,1656               OMEGAM3           EQUALS   OMEGAM2    +6                         #  I(6)
002573: E5,1400  E5,1664               HOLDW             EQUALS   OMEGAM3    +6                         #  I(18)
002574: E5,1400  E5,1706               TDPOS             EQUALS   HOLDW      +18D                       #  I(6)
002575: E5,1400  E5,1714               TDVEL             EQUALS   TDPOS      +6                         #  I(6)
002576:
002577: E5,1400  E5,1722               ZI                EQUALS   TDVEL      +6                         #  I(18)
002578:
002579:                                                                                                 #  P22-P23 STORAGE.                               (8D)
002580:
002581: E5,1400  E5,1744               22SUBSCL          EQUALS   ZI         +18D                       #  DE OF ABCDE LANDMARK ID NO.
002582: E5,1400  E5,1745               CXOFF             EQUALS   22SUBSCL   +1                         #  B OF ABCDE OFFSET INDICATOR
002583: E5,1400  E5,1746               8KK               EQUALS   CXOFF      +1                         #  B(1)TMP INDEX OF PRESENT MARK
002584: E5,1400  E5,1747               8NN               EQUALS   8KK        +1                         #  B(1)TMP
002585: E5,1400  E5,1750               S22LOC            EQUALS   8NN        +1                         #  I(1)TMP MARK DATA LOC
002586: E5,1400  E5,1751               LANDMARK          EQUALS   S22LOC     +1                         #  B(1)DSP NOUN 70 FOR P22,51, R52,53
002587: E5,1400  E5,1752               HORIZON           EQUALS   LANDMARK   +1                         #  B(1)DSP NOUN 70 FOR P22,51, R52,53
002588: E5,1400  E5,1753               IDOFLMK           EQUALS   HORIZON    +1                         #  B(1)
002589:
002590:                                                                                                 #  ******P23***                                   (1D)
002591: E5,1400  E5,1754               TRUNION           EQUALS   IDOFLMK    +1                         #  B(1)
002592:
002593:                                                                                                 #  Page 98
002594:
002595:                                                                                                 #  *-*-*-*- OVERLAY NUMBER 0 IN EBANK 5 -*-*-*-*
002596:
002597:                                                                                                 #  SYSTEM TEST STORAGE.                           (174)
002598:
002599: E5,1400                        AZIMUTH           ERASE    +1
002600: E5,1402                        LATITUDE          ERASE    +1
002601:
002602: E5,1404     1160               TRUNA             EQUALS   DESOPTT
002603: E5,1404     1161               SHAFTA            EQUALS   DESOPTS
002604:
002605: E5,1404                        ERVECTOR          ERASE    +5
002606: E5,1412                        LENGTHOT          ERASE
002607: E5,1413                        LOSVEC            ERASE    +5
002608:
002609: E5,1421  E5,1413               SXTOPTN           =        LOSVEC
002610: E5,1421                        NDXCTR            ERASE
002611: E5,1422                        PIPINDEX          ERASE
002612: E5,1423                        POSITON           ERASE
002613: E5,1424                        QPLAC             ERASE
002614: E5,1425                        QPLACE            ERASE
002615: E5,1426                        QPLACES           ERASE
002616: E5,1427                        RUN               ERASE
002617: E5,1430                        STOREPL           ERASE
002618: E5,1431                        SOUTHDR           ERASE
002619: E5,1432  E5,1431               TARG1/2           =        SOUTHDR
002620: E5,1432                        TAZEL1            ERASE    +5
002621: E5,1440                        TEMPTIME          ERASE    +1
002622: E5,1442                        TMARK             ERASE    +1
002623: E5,1444                        GENPL             ERASE    +134D
002624: E5,1653  E5,1444               CDUTIMEI          =        GENPL
002625: E5,1653  E5,1446               CDUTIMEF          =        GENPL      +2
002626: E5,1653  E5,1450               IMU/OPT           =        GENPL      +4
002627: E5,1653  E5,1451               CDUREADF          =        GENPL      +5
002628: E5,1653  E5,1452               CDUREADI          =        GENPL      +6
002629: E5,1653  E5,1453               CDULIMIT          =        GENPL      +7
002630:
002631: E5,1653  E5,1450               TEMPADD           =        GENPL      +4
002632: E5,1653  E5,1451               TEMP              =        GENPL      +5
002633: E5,1653  E5,1452               NOBITS            =        GENPL      +6
002634: E5,1653  E5,1453               CHAN              =        GENPL      +7
002635:
002636: E5,1653  E5,1454               LOS1              =        GENPL      +8D
002637: E5,1653  E5,1462               LOS2              =        GENPL      +14D
002638:
002639: E5,1653  E5,1470               CALCDIR           EQUALS   GENPL      +20D
002640: E5,1653  E5,1471               CDUFLAG           EQUALS   GENPL      +21D
002641: E5,1653  E5,1472               GYTOBETQ          EQUALS   GENPL      +22D
002642: E5,1653  E5,1473               OPTNREG           EQUALS   GENPL      +23D
002643: E5,1653  E5,1474               SAVE              EQUALS   GENPL      +24D                       #  THREE ONSEC LOC
002644: E5,1653  E5,1477               SFCONST1          EQUALS   GENPL      +27D
002645:                                                                                                 #  Page 99
002646: E5,1653  E5,1500               TIMER             EQUALS   GENPL      +28D
002647:
002648: E5,1653  E5,1502               DATAPL            EQUALS   GENPL      +30D
002649: E5,1653  E5,1444               RDSP              EQUALS   GENPL                                 #  FIX LATER      POSSIBLY KEEP1
002650: E5,1653  E5,1544               MASKREG           EQUALS   GENPL      +64D
002651: E5,1653  E5,1546               CDUNDX            EQUALS   GENPL      +66D
002652: E5,1653  E5,1547               RESULTCT          EQUALS   GENPL      +67D
002653: E5,1653  E5,1552               COUNTPL           EQUALS   GENPL      +70D
002654:
002655: E5,1653  E5,1553               CDUANG            EQUALS   GENPL      +71D
002656: E5,1653  E5,1444               AINLA             =        GENPL                                 #  OPTIMUM CALIB. AND ALIGNMENT
002657: E5,1653  E5,1444               WANGO             EQUALS   AINLA
002658: E5,1653  E5,1446               WANGI             EQUALS   AINLA      +2D
002659: E5,1653  E5,1450               WANGT             EQUALS   AINLA      +4D
002660: E5,1653  E5,1450               TORQNDX           =        WANGT
002661: E5,1653  E5,1452               DRIFTT            EQUALS   AINLA      +6D
002662: E5,1653  E5,1454               ALX1S             EQUALS   AINLA      +8D
002663: E5,1653  E5,1455               CMPX1             EQUALS   AINLA      +9D
002664: E5,1653  E5,1456               ALK               EQUALS   AINLA      +10D
002665: E5,1653  E5,1472               VLAUNS            EQUALS   AINLA      +22D
002666: E5,1653  E5,1460               THETAX            =        ALK        +2
002667: E5,1653  E5,1474               WPLATO            EQUALS   AINLA      +24D
002668: E5,1653  E5,1500               INTY              EQUALS   AINLA      +28D
002669: E5,1653  E5,1466               THETAN            =        THETAX     +6
002670: E5,1653  E5,1502               ANGZ              EQUALS   AINLA      +30D
002671: E5,1653  E5,1504               INTZ              EQUALS   AINLA      +32D
002672: E5,1653  E5,1506               ANGY              EQUALS   AINLA      +34D
002673: E5,1653  E5,1510               ANGX              EQUALS   AINLA      +36D
002674: E5,1653  E5,1512               DRIFTO            EQUALS   AINLA      +38D
002675: E5,1653  E5,1514               DRIFTI            EQUALS   AINLA      +40D
002676: E5,1653  E5,1520               VLAUN             EQUALS   AINLA      +44D
002677: E5,1653  E5,1474               FILDELV           =        THETAN     +6
002678: E5,1653  E5,1522               ACCWD             EQUALS   AINLA      +46D
002679: E5,1653  E5,1476               INTVEC            =        FILDELV    +2
002680: E5,1653  E5,1530               POSNV             EQUALS   AINLA      +52D
002681: E5,1653  E5,1532               DPIPAY            EQUALS   AINLA      +54D
002682: E5,1653  E5,1536               DPIPAZ            EQUALS   AINLA      +58D
002683: E5,1653  E5,1540               ALTIM             EQUALS   AINLA      +60D
002684: E5,1653  E5,1541               ALTIMS            EQUALS   AINLA      +61D
002685: E5,1653  E5,1542               ALDK              EQUALS   AINLA      +62D
002686: E5,1653  E5,1560               DELM              EQUALS   AINLA      +76D
002687: E5,1653  E5,1570               WPLATI            EQUALS   AINLA      +84D
002688: E5,1653  E5,1577               RESTARPT          =        AINLA      +91D
002689: E5,1653  E5,1631               GEOSAVED          =        AINLA      +117D
002690: E5,1653  E5,1632               PREMTRXC          =        AINLA      +118D
002691: E5,1653  E5,1633               LAUNCHAZ          =        AINLA      +119D
002692: E5,1653  E5,1635               NEWAZMTH          =        AINLA      +121D
002693: E5,1653  E5,1637               OLDAZMTH          =        AINLA      +123D
002694:                                                                                                 #  Page 100
002695: E5,1653  E5,1641               TOLDAZMT          =        AINLA      +125D
002696: E5,1653  E5,1643               GEOCOMPS          =        AINLA      +127D
002697: E5,1653  E5,1644               1SECXT            =        AINLA      +128D
002698: E5,1653  E5,1645               GTSXTLST          =        AINLA      +129D
002699: E5,1653  E5,1646               ERECTIME          =        AINLA      +130D
002700: E5,1653  E5,1647               ERCOMP            =        AINLA      +131D
002701: E5,1653  E5,1655               ZERONDX           =        AINLA      +137D
002702: E5,1653  E5,1655               GTSOPNDZ          =        ZERONDX
002703:
002704:                                                                                                 #  THE FOLLOWING TAGS ARE USED BY THE 504 IMU CALIBRATION AND ALIGNMENT PROGRAM ONLY.
002705:
002706: E5,1653  E5,1460               THETAX1           EQUALS   ALK        +2
002707: E5,1653  E5,1466               THETAN1           EQUALS   THETAX1    +6
002708: E5,1653  E5,1474               FILDELV1          EQUALS   THETAN1    +6
002709: E5,1653  E5,1476               INTVEC1           EQUALS   FILDELV1   +2
002710: E5,1653  E5,1631               GEOSAVE1          EQUALS   AINLA      +117D
002711: E5,1653  E5,1632               PREMTRX1          EQUALS   AINLA      +118D
002712: E5,1653  E5,1633               LUNCHAZ1          EQUALS   AINLA      +119D
002713: E5,1653  E5,1635               NEWAZ1            EQUALS   LUNCHAZ1   +2
002714: E5,1653  E5,1637               OLDAZ1            EQUALS   LUNCHAZ1   +4
002715: E5,1653  E5,1641               TOLDAZ1           EQUALS   LUNCHAZ1   +6
002716: E5,1653  E5,1643               GEOCOMP1          EQUALS   AINLA      +127D
002717: E5,1653  E5,1644               1SECXT1           EQUALS   AINLA      +128D
002718: E5,1653  E5,1645               GTSWTLT1          EQUALS   AINLA      +129D
002719: E5,1653  E5,1646               ERECTIM1          EQUALS   AINLA      +130D
002720: E5,1653  E5,1647               ERCOMP1           EQUALS   AINLA      +131D                      #  I(6)
002721: E5,1653  E5,1655               ZERONDX1          EQUALS   AINLA      +137D
002722: E5,1653  E5,1656               PERFDLAY          EQUALS   AINLA      +138D                      #  R(2)..........
002723:
002724:                                                                                                 #  END OF 504 + ALIGN ERASE.
002725: E5,1653  E5,1777               END-E5            EQUALS   QMIN                                  #  LAST USED E5 ADDRESS
002726:
002727:                                                                                                 #  Page 101
002728:                                                                                                 #  EBANK-6 ASSIGNMENTS.
002729:
002730: E6,1400                                          SETLOC   3000
002731:                                                                                                 #  P23    PAD LOADS ***                           (2D).
002732: E6,1400                        WMIDPOS           ERASE                                          #  I(1)PL INITIAL VALUES FOR W-MATRIX IN
002733: E6,1401                        WMIDVEL           ERASE                                          #  I(1)PL CISLUNAR (P23) NAVIGATION
002734:
002735:                                                                                                 #  R22    PAD LOADS                               (3D).
002736: E6,1402                        RVAR              ERASE    +1                                    #  I(2)PL VHF RADAR
002737: E6,1404                        RVARMIN           ERASE    +2                                    #  I(3)PL VHF RADAR
002738:
002739:                                                                                                 #  ***** PAD LOADED ENTRY DAP STEERING VARIABLES *****    (3D)
002740: E6,1407                        LADPAD            ERASE                                          #  I(1)PL FOR ENTRY. HOLDS CM NOMINAL L/D
002741: E6,1410                        LODPAD            ERASE                                          #  I(1)PL FOR ENTRY. HOLDS CM NOMINAL LOD
002742: E6,1411                        ALFAPAD           ERASE                                          #  B(1)PL ALFA TRIM / 180
002743:
002744:                                                                                                 #  ***** PAD LOADED TVC DAP VARIABLES ****************    (28D)
002745: E6,1412                        ESTROKER          ERASE                                          #  B(1)PL
002746: E6,1413                        EKPRIME           ERASE    +1                                    #  B(2)PL
002747: E6,1415                        ETDECAY           ERASE                                          #  I(1)PL
002748: E6,1416                        EKTLX/I           ERASE    +1                                    #  B(2)PL
002749: E6,1420                        ETVCDT/2          ERASE                                          #  B(1)PL
002750: E6,1421                        ETSWITCH          ERASE                                          #  B(1)PL
002751: E6,1422                        ECORFRAC          ERASE                                          #  B(1)PL
002752: E6,1423                        EREPFRAC          ERASE    +1                                    #  B(2)PL
002753: E6,1425                        PACTOFF           ERASE                                          #  B(1)PL, DSP N48 R01 = PTRIM, RD2 = YTRIM
002754: E6,1426                        YACTOFF           ERASE                                          #  B(1)PL, CONSECUTIVE WITH PACTOFF
002755: E6,1427                        AP0               ERASE                                          #  B(1)
002756: E6,1430                        AP1               ERASE    +1                                    #  B(2)
002757: E6,1432                        AP2               ERASE    +1                                    #  B(2)
002758: E6,1434                        AP3               ERASE    +1                                    #  B(2)
002759:
002760: E6,1436                        BP1               ERASE    +1                                    #  B(2)
002761: E6,1440                        BP2               ERASE    +1                                    #  B(2)
002762: E6,1442                        BP3               ERASE    +1                                    #  B(3)
002763: E6,1444  E6,1427               AY0               =        AP0
002764: E6,1444  E6,1430               AY1               =        AP1
002765: E6,1444  E6,1432               AY2               =        AP2
002766: E6,1444  E6,1434               AY3               =        AP3
002767:
002768: E6,1444  E6,1436               BY1               =        BP1
002769:                                                                                                 #  Page 102
002770: E6,1444  E6,1440               BY2               =        BP2
002771: E6,1444  E6,1442               BY3               =        BP3
002772:
002773:                                                                                                 #  **** EXCLUSIVE TVC DAP VARIABLES. *****************    (5D)
002774: E6,1444                        V97VCNTR          ERASE                                          #  B(1)
002775: E6,1445                        TEMPDAP           ERASE    +1                                    #  B(2)
002776: E6,1447  E6,1445               MRKRTMP           =        TEMPDAP                               #         ((B(1)))
002777: E6,1447                        CNTR              ERASE                                          #  B(1)
002778: E6,1450                        OGAD              ERASE                                          #  B(1)
002779:
002780:                                                                                                 #  **** EXCLUSIVE RCS DAP VARIABLES ******************    (13D)
002781: E6,1451                        RWORD1            ERASE    +12D                                  #  B(1)
002782: E6,1466  E6,1452               RWORD2            EQUALS   RWORD1     +1                         #  B(1)
002783: E6,1466  E6,1453               PWORD1            EQUALS   RWORD2     +1                         #  B(1)
002784: E6,1466  E6,1454               PWORD2            EQUALS   PWORD1     +1                         #  B(1)
002785: E6,1466  E6,1455               YWORD1            EQUALS   PWORD2     +1                         #  B(1)
002786: E6,1466  E6,1456               YWORD2            EQUALS   YWORD1     +1                         #  B(1)
002787: E6,1466  E6,1457               BLAST             EQUALS   YWORD2     +1                         #  B(2)
002788: E6,1466  E6,1461               BLAST1            EQUALS   BLAST      +2                         #  B(2)
002789: E6,1466  E6,1463               BLAST2            EQUALS   BLAST1     +2                         #  B(2)
002790: E6,1466  E6,1465               T5PHASE           EQUALS   BLAST2     +2                         #  B(1)
002791:
002792:                                                                                                 #  **** RCS/TVC DAP COMMON STORAGE. ******************    (16D)
002793: E6,1466                        DAPDATR1          ERASE                                          #  B(1)DSP NOUN 46(R1)
002794: E6,1467                        DAPDATR2          ERASE                                          #  B(1)DSP NOUN 46(R2)
002795:
002796: E6,1470                        IXX               ERASE                                          #  B(1) CONSECUTIVE WITH IAVG, IAVG/TLX FOR
002797: E6,1471                        IAVG              ERASE                                          #  B(1)                           MASSPROP
002798: E6,1472                        IAVG/TLX          ERASE                                          #  B(1)
002799:
002800: E6,1473                        LEMMASS           ERASE    +1                                    #  B(1)DSP NOUN 47 (R2)           LEM/CSMMASS
002801: E6,1475  E6,1474               CSMMASS           EQUALS   LEMMASS    +1                         #  B(1)DSP NOUN 47 (R1)           FOR DOWNLINK
002802: E6,1475                        WEIGHT/G          ERASE                                          #  B(1)
002803: E6,1476  E6,1475               MASS              =        WEIGHT/G
002804:
002805: E6,1476                        AK                ERASE
002806: E6,1477                        AK1               ERASE
002807: E6,1500                        AK2               ERASE
002808:
002809: E6,1501                        RCSFLAGS          ERASE                                          #  B(1) CONSECUTIVE WITH AK2 DOWNLINK
002810: E6,1502                        T5TEMP            ERASE                                          #  B(1)
002811: E6,1503                        EDRIVEX           ERASE
002812:
002813:                                                                                                 #  Page 103
002814: E6,1504                        EDRIVEY           ERASE
002815: E6,1505                        EDRIVEZ           ERASE
002816:
002817:                                                                                                 #  INTEMP THRU INTEMP+14D ARE RESERVED FOR OVERLAYED TVC/RCS INTERUP TRUE TEMPORARIES
002818: E6,1506                        INTTEMP           ERASE    +14D                                  #  (15)
002819:
002820:                                                                                                 #  TVC/RCS THRU TVCRCS +11D RESERVED FOR DOWNLINKED VARIABLES
002821: E6,1525                        TVCRCS            ERASE    +11D                                  #  (12)
002822:                                                                                                 #  RCS (WBODYS,ADOTS)
002823:                                                                                                 #  TVC(OMEGACS,OMEGABS)
002824:
002825:                                                                                                 #  TVC DAP TEMPORARY VARIABLES*********************************
002826:
002827:                                                                                                 #  TVC DAP INTERRUPT TRUE TEMPORARIES**************************
002828:
002829: E6,1541  E6,1506               PHI333            EQUALS   INTTEMP                               #  B(1) TEMPORARY REGISTER
002830: E6,1541  E6,1507               PSI333            EQUALS   PHI333     +1                         #  B(1) COUNTING REGISTER
002831: E6,1541  E6,1510               TEMP333           EQUALS   PSI333     +1                         #  B(1) COUNTING REGISTER
002832: E6,1541  E6,1511               VARST0            EQUALS   TEMP333    +1                         #  B(10D) BREAKPOINTS AND SLOPES
002833: E6,1541  E6,1516               VARST5            =        VARST0     +5
002834: E6,1541  E6,1522               LASTMASP          EQUALS   VARST0     +9D                        #  LAST VARST0 WORD
002835:
002836: E6,1541  E6,1525               OMEGAC            =        LASTMASP   +3
002837: E6,1541  E6,1527               OMEGAYC           =        OMEGAC     +2
002838: E6,1541  E6,1531               OMEGAZC           =        OMEGAYC    +2
002839:
002840: E6,1541  E6,1533               OMEGAB            EQUALS   TVCRCS     +6                         #  B(?)
002841: E6,1541  E6,1535               OMEGAYB           EQUALS   OMEGAB     +2
002842: E6,1541  E6,1537               OMEGAZB           EQUALS   OMEGAYB    +2
002843:
002844: E6,1541  E6,1541               PNSUM             EQUALS   OMEGAC     +12D                       #  B(2)
002845: E6,1541  E6,1543               PDSUM             EQUALS   PNSUM      +2                         #  B(2)
002846:
002847: E6,1541  E6,1545               B1                EQUALS   PDSUM      +2                         #  B(1)
002848: E6,1541  E6,1546               B2                EQUALS   B1         +1                         #  B(1)
002849:                                                                                                 #  Page 104
002850: E6,1541  E6,1547               B3                EQUALS   B2         +1                         #  B(1)
002851: E6,1541  E6,1550               B4                EQUALS   B3         +1                         #  B(1)
002852: E6,1541  E6,1551               B5                EQUALS   B4         +1                         #  B(1)
002853: E6,1541  E6,1552               B6                EQUALS   B5         +1                         #  B(1)
002854:
002855: E6,1541  E6,1553               J1                EQUALS   B6         +1                         #  B(2)
002856: E6,1541  E6,1555               J2                EQUALS   J1         +2                         #  B(2)
002857: E6,1541  E6,1557               J3                EQUALS   J2         +2                         #  B(2)
002858: E6,1541  E6,1561               J4                EQUALS   J3         +2                         #  B(2)
002859: E6,1541  E6,1563               J5                EQUALS   J4         +2                         #  B(2)
002860:
002861: E6,1541  E6,1565               YNSUM             EQUALS   J5         +2                         #  B(2)
002862: E6,1541  E6,1567               YDSUM             EQUALS   YNSUM      +2                         #  B(2)
002863:
002864: E6,1541  E6,1571               C1                EQUALS   YDSUM      +2                         #  B(1)
002865: E6,1541  E6,1572               C2                EQUALS   C1         +1                         #  B(1)
002866: E6,1541  E6,1573               C3                EQUALS   C2         +1                         #  B(1)
002867: E6,1541  E6,1574               C4                EQUALS   C3         +1                         #  B(1)
002868: E6,1541  E6,1575               C5                EQUALS   C4         +1                         #  B(1)
002869: E6,1541  E6,1576               C6                EQUALS   C5         +1                         #  B(1)
002870:
002871: E6,1541  E6,1577               Y1                EQUALS   C6         +1                         #  B(2)
002872: E6,1541  E6,1601               Y2                EQUALS   Y1         +2                         #  B(2)
002873: E6,1541  E6,1603               Y3                EQUALS   Y2         +2                         #  B(2)
002874: E6,1541  E6,1605               Y4                EQUALS   Y3         +2                         #  B(2)
002875: E6,1541  E6,1607               Y5                EQUALS   Y4         +2                         #  B(2)
002876:
002877: E6,1541  E6,1611               ROLLFIRE          EQUALS   Y5         +2                         #  B(1)
002878: E6,1541  E6,1612               ROLLWORD          EQUALS   ROLLFIRE   +1                         #  B(1)
002879: E6,1541  E6,1613               TEMREG            EQUALS   ROLLWORD   +1                         #  B(1)
002880:
002881: E6,1541  E6,1614               STROKER           EQUALS   TEMREG     +1                         #  B(1)
002882:
002883: E6,1541  E6,1615               PERRB             EQUALS   STROKER    +1                         #  B(2)
002884: E6,1541  E6,1617               YERRB             EQUALS   PERRB      +2                         #  B(2)
002885:
002886: E6,1541  E6,1621               DELPBAR           EQUALS   YERRB      +2                         #  B(2)
002887: E6,1541  E6,1623               DELYBAR           EQUALS   DELPBAR    +2                         #  B(2)
002888:
002889: E6,1541  E6,1625               PDELOFF           EQUALS   DELYBAR    +2                         #  B(2)
002890: E6,1541  E6,1627               YDELOFF           EQUALS   PDELOFF    +2                         #  B(2)
002891:
002892:                                                                                                 #  TVC ZEROING LOOP ENDS HERE
002893: E6,1541  E6,1631               PCMD              EQUALS   YDELOFF    +2                         #  B(1)
002894: E6,1541  E6,1632               YCMD              EQUALS   PCMD       +1                         #  B(1), CONSECUTIVE WITH PCMD
002895: E6,1541  E6,1633               TACTOFF           EQUALS   YCMD       +1                         #  B(2)
002896: E6,1541  E6,1635               T5TVCDT           EQUALS   TACTOFF    +2                         #  B(1)
002897: E6,1541  E6,1636               MDT               EQUALS   T5TVCDT    +1                         #  I(6)
002898:                                                                                                 #  Page 105
002899: E6,1541  E6,1644               KPRIMEDT          EQUALS   MDT        +6                         #  I(2)
002900: E6,1541  E6,1646               KTLX/I            EQUALS   KPRIMEDT   +2                         #  B(1)
002901: E6,1541  E6,1647               TENMDOT           EQUALS   KTLX/I     +1                         #  B(1)
002902: E6,1541  E6,1650               1/CONACC          EQUALS   TENMDOT    +1                         #  B(1)
002903: E6,1541  E6,1651               VARK              EQUALS   1/CONACC   +1                         #  B(1)
002904: E6,1541  E6,1652               REPFRAC           EQUALS   VARK       +1                         #  B(1)
002905: E6,1541  E6,1653               VCNTR             EQUALS   REPFRAC    +1                         #  B(1)
002906: E6,1541  E6,1654               TVCPHASE          EQUALS   VCNTR      +1                         #  B(1)
002907: E6,1541  E6,1655               PCDUYPST          EQUALS   TVCPHASE   +1                         #  B(1)
002908: E6,1541  E6,1656               PCDUZPST          EQUALS   PCDUYPST   +1                         #  B(1)
002909: E6,1541  E6,1657               MCDUYDOT          EQUALS   PCDUZPST   +1                         #  B(1)
002910: E6,1541  E6,1660               MCDUZDOT          EQUALS   MCDUYDOT   +1                         #  B(1)
002911: E6,1541  E6,1661               TVCEXPHS          EQUALS   MCDUZDOT   +1                         #  B(1)
002912: E6,1541  E6,1662               MASSTMP           EQUALS   TVCEXPHS   +1                         #  B(1)   PROTECT
002913: E6,1541  E6,1663               VCNTRTMP          EQUALS   MASSTMP    +1                         #  B(1)     *PROTECT***
002914:
002915:                                                                                                 #  STROKE TEST VARIABLES
002916: E6,1541  E6,1664               STRKTIME          EQUALS   VCNTRTMP   +1                         #  B(1)
002917: E6,1541  E6,1665               CADDY             EQUALS   STRKTIME   +1                         #  B(1)
002918: E6,1541  E6,1666               N                 EQUALS   CADDY      +1                         #  B(1)
002919: E6,1541  E6,1667               BUNKER            EQUALS   N          +1                         #  B(1)
002920: E6,1541  E6,1670               REVS              EQUALS   BUNKER     +1                         #  B(1)
002921: E6,1541  E6,1671               CARD              EQUALS   REVS       +1                         #  B(1)
002922:
002923:                                                                                                 #  TVC ROLL DAP VARIABLES
002924: E6,1541  E6,1672               OGANOW            EQUALS   CARD       +1                         #  B(1)
002925: E6,1541  E6,1673               OGAPAST           EQUALS   OGANOW     +1                         #  B(1)
002926: E6,1541  E6,1674               OGA               EQUALS   OGAPAST    +1                         #  B(1)TMP
002927: E6,1541  E6,1674               OGAERR            =        OGA                                   #  (ROLL DAP USES OGA, MEANS OGAERROR)
002928: E6,1541  E6,1675               DELOGART          EQUALS   OGA        +1                         #  B(1)TMP
002929: E6,1541  E6,1676               SGNRT             EQUALS   DELOGART   +1                         #  SIGN OF CGA RATE
002930: E6,1541  E6,1677               DELOGA            EQUALS   SGNRT      +1                         #  USED IN ROLL LOGIC
002931: E6,1541  E6,1700               I                 EQUALS   DELOGA     +1                         #  USED IN ROLL LOGIC
002932: E6,1541  E6,1701               IOGARATE          EQUALS   I          +1                         #  USED IN ROLL LOGIC
002933:
002934:                                                                                                 #  TVC DAP RESTART TEMPORARIES.                   (33D)
002935: E6,1541  E6,1702               TKTLX/I           EQUALS   IOGARATE   +1                         #  B(1)
002936: E6,1541  E6,1703               PACTTMP           EQUALS   TKTLX/I    +1                         #  B(2)
002937: E6,1541  E6,1705               YACTTMP           EQUALS   PACTTMP    +2                         #  B(2)
002938: E6,1541  E6,1707               CNTRTMP           EQUALS   YACTTMP    +2                         #  B(1)
002939: E6,1541  E6,1710               STRKTTMP          EQUALS   CNTRTMP    +1                         #  B(1)
002940: E6,1541  E6,1711               NSUMTMP           EQUALS   STRKTTMP   +1                         #  B(2)
002941: E6,1541  E6,1713               DSUMTMP           EQUALS   NSUMTMP    +2                         #  B(2)
002942: E6,1541  E6,1715               DELBRTMP          EQUALS   DSUMTMP    +2                         #  B(2)
002943:                                                                                                 #  Page 106
002944: E6,1541  E6,1717               B1TMP             EQUALS   DELBRTMP   +2                         #  B(1)
002945: E6,1541  E6,1720               B2TMP             EQUALS   B1TMP      +1                         #  B(1)
002946: E6,1541  E6,1721               B3TMP             EQUALS   B2TMP      +1                         #  B(1)
002947: E6,1541  E6,1722               B4TMP             EQUALS   B3TMP      +1                         #  B(1)
002948: E6,1541  E6,1723               B5TMP             EQUALS   B4TMP      +1                         #  B(1)
002949: E6,1541  E6,1724               B6TMP             EQUALS   B5TMP      +1                         #  B(1)
002950: E6,1541  E6,1725               B7TMP             EQUALS   B6TMP      +1                         #  B(1)
002951:
002952: E6,1541  E6,1726               J1TMP             EQUALS   B7TMP      +1                         #  B(2)
002953: E6,1541  E6,1730               J2TMP             EQUALS   J1TMP      +2                         #  B(2)
002954: E6,1541  E6,1732               J3TMP             EQUALS   J2TMP      +2                         #  B(2)
002955: E6,1541  E6,1734               J4TMP             EQUALS   J3TMP      +2                         #  B(2)
002956: E6,1541  E6,1736               J5TMP             EQUALS   J4TMP      +2                         #  B(2)
002957: E6,1541  E6,1740               J6TMP             EQUALS   J5TMP      +2                         #  B(2)
002958: E6,1541  E6,1742               ERRBTMP           EQUALS   J6TMP      +2                         #  B(2)
002959: E6,1541  E6,1744               CMDTMP            EQUALS   ERRBTMP    +2                         #  B(2)
002960:
002961:                                                                                                 #  OVERLAYS WITHIN TVC DAP
002962:
002963: E6,1541  E6,1533               OGARATE           =        OMEGAB                                #  B(2)
002964:
002965: E6,1541  E6,1742               BZERO             =        ERRBTMP
002966: E6,1541  E6,1742               CZERO             =        ERRBTMP
002967: E6,1541  E6,1744               JZERO             =        CMDTMP
002968: E6,1541  E6,1744               YZERO             =        CMDTMP
002969: E6,1541  E6,1651               KPGEN3            =        VARK
002970: E6,1541  E6,1651               KYGEN3            =        KPGEN3
002971:
002972: E6,1541  E6,1742               EP                =        ERRBTMP
002973: E6,1541  E6,1744               NPD               =        CMDTMP
002974: E6,1541  E6,1561               NP0               EQUALS   J4                                    #  (B(2))
002975: E6,1541  E6,1563               NP1               EQUALS   J5                                    #  (B(2))
002976: E6,1541  E6,1541               NP2               EQUALS   PNSUM                                 #  (B(2))
002977: E6,1541  E6,1543               NP3               EQUALS   PDSUM                                 #  (B(2))
002978:
002979: E6,1541  E6,1736               NP1TMP            EQUALS   J5TMP                                 #  (B(2))
002980: E6,1541  E6,1711               NP2TMP            EQUALS   NSUMTMP                               #  (B(2))
002981: E6,1541  E6,1713               NP3TMP            EQUALS   DSUMTMP                               #  (B(2))
002982:
002983: E6,1541  E6,1742               EY                =        ERRBTMP
002984: E6,1541  E6,1744               NYD               =        CMDTMP
002985: E6,1541  E6,1605               NY0               EQUALS   Y4                                    #  (B(2))
002986: E6,1541  E6,1607               NY1               EQUALS   Y5                                    #  (B(2))
002987: E6,1541  E6,1565               NY2               EQUALS   YNSUM                                 #  (B(2))
002988: E6,1541  E6,1567               NY3               EQUALS   YDSUM                                 #  (B(2))
002989:
002990: E6,1541  E6,1736               NY1TMP            EQUALS   Y5TMP                                 #  (B(2))
002991: E6,1541  E6,1711               NY2TMP            EQUALS   NSUMTMP                               #  (B(2))
002992: E6,1541  E6,1713               NY3TMP            EQUALS   DSUMTMP                               #  (B(2))
002993:
002994:                                                                                                 #  Page 107
002995: E6,1541  E6,1717               C1TMP             =        B1TMP                                 #  (B(1))
002996: E6,1541  E6,1720               C2TMP             =        B2TMP                                 #  (B(1))
002997: E6,1541  E6,1721               C3TMP             =        B3TMP                                 #  (B(1))
002998: E6,1541  E6,1722               C4TMP             =        B4TMP                                 #  (B(1))
002999: E6,1541  E6,1723               C5TMP             =        B5TMP                                 #  (B(1))
003000: E6,1541  E6,1724               C6TMP             =        B6TMP                                 #  (B(1))
003001: E6,1541  E6,1725               C7TMP             =        B7TMP                                 #  (B(1))
003002:
003003: E6,1541  E6,1726               Y1TMP             =        J1TMP                                 #  (B(2))
003004: E6,1541  E6,1730               Y2TMP             =        J2TMP                                 #  (B(2))
003005: E6,1541  E6,1732               Y3TMP             =        J3TMP                                 #  (B(2))
003006: E6,1541  E6,1734               Y4TMP             =        J4TMP                                 #  (B(2))
003007: E6,1541  E6,1736               Y5TMP             =        J5TMP                                 #  (B(2))
003008: E6,1541  E6,1740               Y6TMP             =        J6TMP                                 #  (B(2))
003009:
003010:                                                                                                 #  540.9 STORAGE .............
003011:
003012: E6,1541  E6,1746               NBRCYCLS          EQUALS   CMDTMP     +2                         #  B(1) COUNTER FOR P40,41 STEERING
003013: E6,1541  E6,1747               NBRCYCLP          EQUALS   NBRCYCLS   +1                         #  B(1) MAINTAIN ORDER
003014: E6,1541  E6,1750               DELVSUM           EQUALS   NBRCYCLP   +1                         #  I(6) P40,P41
003015: E6,1541  E6,1756               DELVSUMP          EQUALS   DELVSUM    +6                         #  I(6) P40,P41
003016:
003017:                                                                                                 #  Page 108
003018:                                                                                                 #  **** RCS DAP TEMPORARY VARIABLES. ******************** (95D)
003019:
003020:                                                                                                 #  ** RCS INTERRUPT TRUE TEMPS ***************    (15D)
003021: E6,1541  E6,1506               SPNDX             EQUALS   INTTEMP                               #  B(1)
003022: E6,1541  E6,1507               DPNDX             EQUALS   SPNDX      +1                         #  B(1)TMP
003023: E6,1541  E6,1510               KMPAC             EQUALS   DPNDX      +1                         #  B(2)TMP
003024: E6,1541  E6,1512               KMPTEMP           EQUALS   KMPAC      +2                         #  B(1)TMP
003025:
003026: E6,1541  E6,1513               XNDX1             EQUALS   KMPTEMP    +1                         #  B(1)TMP XNDX1 THRU NYJETS ARE OVERLAYED
003027: E6,1541  E6,1514               XNDX2             EQUALS   XNDX1      +1                         #  B(1)TMP BY OTHER DAP ERASABLES SO
003028: E6,1541  E6,1515               YNDX              EQUALS   XNDX2      +1                         #  B(1)TMP SHOULD ALWAYS BE DEFINED IN
003029: E6,1541  E6,1516               ZNDX              EQUALS   YNDX       +1                         #  B(1)TMP A BLOCK
003030: E6,1541  E6,1517               RINDEX            EQUALS   ZNDX       +1                         #  B(1)TMP
003031: E6,1541  E6,1520               PINDEX            EQUALS   RINDEX     +1                         #  B(1)TMP
003032: E6,1541  E6,1521               YINDEX            EQUALS   PINDEX     +1                         #  B(1)TMP
003033: E6,1541  E6,1522               NRJETS            EQUALS   YINDEX     +1                         #  B(1)TMP
003034: E6,1541  E6,1523               NPJETS            EQUALS   NRJETS     +1                         #  B(1)TMP
003035: E6,1541  E6,1524               NYJETS            EQUALS   NPJETS     +1                         #  B(1)TMP
003036:
003037: E6,1541  E6,1513               WTEMP             EQUALS   XNDX1                                 #  B(2)TMP WTEMP THRU DELTEMPZ OVERLAY
003038: E6,1541  E6,1515               DELTEMPX          EQUALS   WTEMP      +2                         #  B(2)TMP XNDX1 THRU NRJETS AND EDOT THRU
003039: E6,1541  E6,1517               DELTEMPY          EQUALS   DELTEMPX   +2                         #  B(2)TMP ADBVEL
003040: E6,1541  E6,1521               DELTEMPZ          EQUALS   DELTEMPY   +2                         #  B(2)TMP
003041:
003042: E6,1541  E6,1515               EDOT              EQUALS   YNDX                                  #  B(2)TMP EDOT THRU ADBVEL OVERLAY
003043: E6,1541  E6,1517               AERR              EQUALS   EDOT       +2                         #  B(1)TMP YNDX THRU NPJETS AND DELTEMPX
003044: E6,1541  E6,1520               EDOTVEL           EQUALS   AERR       +1                         #  B(2)TMP THRU DELTEMPZ
003045: E6,1541  E6,1522               AERRVEL           EQUALS   EDOTVEL    +2                         #  B(1)TMP
003046: E6,1541  E6,1523               ADBVEL            EQUALS   AERRVEL    +1                         #  B(1)TMP
003047:
003048:                                                                                                 #  *** REGULAR RCS TEMPS *********************    (   )
003049:
003050:                                                                                                 #  *** RCS ZEROING LOOP STARTS HERE **********    (37)
003051: E6,1541  E6,1525               WBODY             EQUALS   TVCRCS                                #  B(2)TMP
003052: E6,1541  E6,1527               WBODY1            EQUALS   WBODY      +2                         #  B(2)TMP
003053: E6,1541  E6,1531               WBODY2            EQUALS   WBODY      +4                         #  B(2)TMP
003054: E6,1541  E6,1533               ADOT              EQUALS   WBODY2     +2                         #  B(2)TMP
003055: E6,1541  E6,1535               ADOT1             EQUALS   ADOT       +2                         #  B(2)TMP
003056: E6,1541  E6,1537               ADOT2             EQUALS   ADOT1      +2                         #  B(2)TMP
003057:
003058: E6,1541  E6,1541               MERRORX           EQUALS   ADOT2      +2                         #   (2)
003059: E6,1541  E6,1543               MERRORY           EQUALS   MERRORX    +2                         #   (2)
003060: E6,1541  E6,1545               MERRORZ           EQUALS   MERRORY    +2                         #   (2)
003061: E6,1541  E6,1547               DFT               EQUALS   MERRORZ    +2                         #  B(1)TMP
003062: E6,1541  E6,1550               DFT1              EQUALS   DFT        +1                         #  B(1)TMP
003063: E6,1541  E6,1551               DFT2              EQUALS   DFT1       +1                         #  B(1)TMP
003064: E6,1541  E6,1552               DRHO              EQUALS   DFT2       +1                         #  B(2)TMP
003065: E6,1541  E6,1554               DRHO1             EQUALS   DRHO       +2                         #  B(2)TMP
003066:                                                                                                 #  Page 109
003067: E6,1541  E6,1556               DRHO2             EQUALS   DRHO1      +2                         #  B(2)TMP
003068: E6,1541  E6,1560               ATTSEC            EQUALS   DRHO2      +2                         #  B(1)TMP
003069: E6,1541  E6,1561               TAU               EQUALS   ATTSEC     +1                         #  B(1)TMP
003070: E6,1541  E6,1562               TAU1              EQUALS   TAU        +1                         #  B(1)TMP
003071: E6,1541  E6,1563               TAU2              EQUALS   TAU1       +1                         #  B(1)TMP
003072: E6,1541  E6,1564               BIAS              EQUALS   TAU2       +1                         #  B(1)TMP
003073: E6,1541  E6,1565               BIAS1             EQUALS   BIAS       +1                         #  B(1)TMP
003074: E6,1541  E6,1566               BIAS2             EQUALS   BIAS1      +1                         #  B(1)TMP
003075: E6,1541  E6,1567               ERRORX            EQUALS   BIAS2      +1                         #  B(1)TMP
003076: E6,1541  E6,1570               ERRORY            EQUALS   ERRORX     +1                         #  B(1)TMP
003077: E6,1541  E6,1571               ERRORZ            EQUALS   ERRORY     +1                         #  B(1)TMP
003078:
003079:                                                                                                 #  RCS ZERO LOOP ENDS HERE
003080:                                                                                                 #         MORE RCS                                (69D)
003081: E6,1541  E6,1572               THETADX           EQUALS   ERRORZ     +1                         #  B(1)TMP MUST BE CONSECUTIVE WITH ERRORZ
003082: E6,1541  E6,1573               THETADY           EQUALS   THETADX    +1                         #  B(1)TMP
003083: E6,1541  E6,1574               THETADZ           EQUALS   THETADY    +1                         #  B(1)TMP
003084:
003085: E6,1541  E6,1575               DELCDUX           EQUALS   THETADZ    +1                         #  B(2)TMP
003086: E6,1541  E6,1577               DELCDUY           EQUALS   DELCDUX    +2                         #  B(2)TMP
003087: E6,1541  E6,1601               DELCDUZ           EQUALS   DELCDUY    +2                         #  B(2)TMP
003088:
003089: E6,1541  E6,1603               DCDU              EQUALS   DELCDUZ    +2                         #  B(6)TMP USED DURING P20
003090: E6,1541  E6,1611               DTHETASM          EQUALS   DCDU       +6                         #  B(6)TMP STEER LOW OUTPUT.
003091:
003092: E6,1541  E6,1617               ATTKALMN          EQUALS   DTHETASM   +6                         #  B(1)TMP
003093: E6,1541  E6,1620               KMJ               EQUALS   ATTKALMN   +1                         #  B(1)TMP
003094: E6,1541  E6,1621               KMJ1              EQUALS   KMJ        +1                         #  B(1)TMP
003095: E6,1541  E6,1622               KMJ2              EQUALS   KMJ1       +1                         #  B(1)TMP
003096: E6,1541  E6,1623               J/M               EQUALS   KMJ2       +1                         #  B(1)TMP
003097: E6,1541  E6,1624               J/M1              EQUALS   J/M        +1                         #  B(1)TMP
003098: E6,1541  E6,1625               J/M2              EQUALS   J/M1       +1                         #  B(1)TMP
003099: E6,1541  E6,1626               RACFAIL           EQUALS   J/M2       +1                         #  B(1)TMP
003100: E6,1541  E6,1627               RBDFAIL           EQUALS   RACFAIL    +1                         #  B(1)TMP
003101: E6,1541  E6,1630               ACORBD            EQUALS   RBDFAIL    +1                         #  B(1)TMP
003102: E6,1541  E6,1631               XTRANS            EQUALS   ACORBD     +1                         #  B(1)TMP
003103: E6,1541  E6,1632               CH31TEMP          EQUALS   XTRANS     +1                         #  B(1)TMP
003104: E6,1541  E6,1633               CHANTEMP          EQUALS   CH31TEMP   +1                         #  B(1)TMP
003105: E6,1541  E6,1634               T5TIME            EQUALS   CHANTEMP   +1                         #  B(1)TMP
003106: E6,1541  E6,1635               RHO               EQUALS   T5TIME     +1                         #  B(1)TMP
003107: E6,1541  E6,1636               RHO1              EQUALS   RHO        +1                         #  B(1)TMP
003108: E6,1541  E6,1637               RHO2              EQUALS   RHO1       +1                         #  B(1)TMP
003109: E6,1541  E6,1640               AMGB1             EQUALS   RHO2       +1                         #  B(1)TMP
003110: E6,1541  E6,1641               AMGB4             EQUALS   AMGB1      +1                         #  B(1)TMP
003111:                                                                                                 #  Page 110
003112: E6,1541  E6,1642               AMGB5             EQUALS   AMGB4      +1                         #  B(1)TMP
003113: E6,1541  E6,1643               AMGB7             EQUALS   AMGB5      +1                         #  B(1)TMP
003114: E6,1541  E6,1644               AMGB8             EQUALS   AMGB7      +1                         #  B(1)TMP
003115: E6,1541  E6,1645               CAPSI             EQUALS   AMGB8      +1                         #  B(1)TMP
003116: E6,1541  E6,1646               CDUXD             EQUALS   CAPSI      +1                         #  B(1)TMP
003117: E6,1541  E6,1650               CDUYD             EQUALS   CDUXD      +2                         #  B(1)TMP
003118: E6,1541  E6,1652               CDUZD             EQUALS   CDUYD      +2                         #  B(1)TMP
003119: E6,1541  E6,1654               SLOPE             EQUALS   CDUZD      +2                         #  B(1)TMP
003120: E6,1541  E6,1655               ADB               EQUALS   SLOPE      +1                         #  B(1)TMP
003121: E6,1541  E6,1656               RMANNDX           EQUALS   ADB        +1                         #  B(1)TMP
003122: E6,1541  E6,1657               PMANNDX           EQUALS   RMANNDX    +1                         #  B(1)TMP
003123: E6,1541  E6,1660               YMANNDX           EQUALS   PMANNDX    +1                         #  B(1)TMP MUST BE LAST VARIABLE IN RCS
003124:
003125:                                                                                                 #  Page 111
003126:                                                                                                 #  ********** ENTRY DAP TEMPORARY VARIABLES. *********************        (69D)
003127:
003128:                                                                                                 #  ANGLE REGISTERS FOR ENTRY DAPS
003129: E6,1541  E6,1661               AOG               EQUALS   BCDU                                  #  1P
003130: E6,1541  E6,1662               AIG               EQUALS   AOG        +1                         #  1P
003131: E6,1541  E6,1663               AMG               EQUALS   AIG        +1                         #  1P
003132: E6,1541  E6,1664               ROLL/180          EQUALS   AMG        +1                         #  1P
003133: E6,1541  E6,1665               ALFA/180          EQUALS   ROLL/180   +1                         #  1P
003134: E6,1541  E6,1666               BETA/180          EQUALS   ALFA/180   +1                         #  1P
003135: E6,1541  E6,1667               AOG/PIP           EQUALS   BETA/180   +1                         #  1P
003136: E6,1541  E6,1670               AIG/PIP           EQUALS   AOG/PIP    +1                         #  1P
003137: E6,1541  E6,1671               AMG/PIP           EQUALS   AIG/PIP    +1                         #  1P
003138: E6,1541  E6,1672               ROLL/PIP          EQUALS   AMG/PIP    +1                         #  1P
003139: E6,1541  E6,1673               ALFA/PIP          EQUALS   ROLL/PIP   +1                         #  1P
003140: E6,1541  E6,1674               BETA/PIP          EQUALS   ALFA/PIP   +1                         #  1P
003141:
003142:                                                                                                 #  GYMBAL DIFFERENCES OVER INTERNAL TCDU = .1 SEC.
003143: E6,1541  E6,1675               -DELAOG           EQUALS   BETA/PIP   +1                         #  1P
003144: E6,1541  E6,1676               -DELAIG           EQUALS   -DELAOG    +1                         #  1P
003145: E6,1541  E6,1677               -DELAMG           EQUALS   -DELAIG    +1                         #  1P
003146:
003147:                                                                                                 #  ESTIMATED BODY RATES
003148: E6,1541  E6,1700               CMDAPMOD          EQUALS   -DELAMG    +1                         #  1P GOES BEFORE PREL FOR TM.
003149:
003150: E6,1541  E6,1701               PREL              EQUALS   CMDAPMOD   +1                         #  1P P TCDU/180          (ROLLDOT)
003151: E6,1541  E6,1702               QREL              EQUALS   PREL       +1                         #  1P Q TCDU/180          (PITCHDOT)
003152: E6,1541  E6,1703               RREL              EQUALS   QREL       +1                         #  1P R TCDU/180          (YAWDOT)
003153:
003154: E6,1541  E6,1704               BETADOT           EQUALS   RREL       +1                         #  1P MUST FOLLOW RREL. BETADOT TCDU/180
003155: E6,1541  E6,1705               PHIDOT            EQUALS   BETADOT    +1                         #  1P
003156:
003157:                                                                                                 #  OLD (UNAVERAGED) BODY RATE MEASURE
003158: E6,1541  E6,1706               OLDELP            EQUALS   PHIDOT     +1                         #  1P
003159: E6,1541  E6,1707               OLDELQ            EQUALS   OLDELP     +1                         #  1P
003160: E6,1541  E6,1710               OLDELR            EQUALS   OLDELQ     +1                         #  1P
003161:
003162: E6,1541  E6,1711               JETAG             EQUALS   OLDELR     +1                         #  1P
003163: E6,1541  E6,1712               TUSED             EQUALS   JETAG      +1                         #  1P ELAPSED TIME SINCE NOMINAL UPDATE.
003164:
003165:                                                                                                 #  FOLLOWING 3 SP WORDS IN DOWNLINK.  ROLLTM SENT EACH 1 SEC.
003166: E6,1541  E6,1713               PAXERR1           EQUALS   TUSED      +1                         #  1P INTEGRATED ROLL ERROR/360.
003167: E6,1541  E6,1714               ROLLTM            EQUALS   PAXERR1    +1                         #  1P ROLL/180 FOR TM.
003168: E6,1541  E6,1715               ROLLC             EQUALS   ROLLTM     +1                         #  20 ROLLCOM/360 FROM ENTRY (FOR TM)
003169:                                                                                                 #  KEEP ROLLC & ROLLHOLD ADJACENT FOR TP
003170:                                                                                                 #  Page 112
003171: E6,1541  E6,1717               ROLLHOLD          EQUALS   ROLLC      +2                         #  1P FOR ATTITUDE HOLD IN CMDAPMOD = +1
003172:
003173:                                                                                                 #  ENTRY DAP QUANTITIES THAT SHARE WITH RCS DAP.
003174: E6,1541  E6,1603               ALFACOM           EQUALS   DCDU                                  #  1P KEEP ADJACENT TO BETACOM.
003175: E6,1541  E6,1604               BETACOM           EQUALS   ALFACOM    +1                         #  1P
003176:
003177:                                                                                                 #  JET LIST.  DT, JETBITS IN THIS ORDER.
003178: E6,1541  E6,1605               TOFF              EQUALS   BETACOM    +1                         #  1P DP PAIR
003179: E6,1541  E6,1606               TBITS             EQUALS   TOFF       +1                         #  1P
003180: E6,1541  E6,1607               TON2              EQUALS   TBITS      +1                         #  1P DP PAIR
003181: E6,1541  E6,1610               T2BITS            EQUALS   TON2       +1                         #  1P
003182:
003183:                                                                                                 #  MISCELLANEOUS PERMANENT ERASABLE.
003184: E6,1541  E6,1611               OUTTAG            EQUALS   T2BITS     +1                         #  1P
003185: E6,1541  E6,1612               NUJET             EQUALS   OUTTAG     +1                         #  1P
003186:
003187:                                                                                                 #  MORE ENTRY DAP QUANTITIES THAT DO NOT SHARE WITH RCS DAP.
003188: E6,1541  E6,1720               JETEM             EQUALS   ROLLHOLD   +1                         #  2P THIS DP USED IN RATEAVG
003189: E6,1541  E6,1722               GAMA              EQUALS   JETEM      +2                         #  1P
003190: E6,1541  E6,1723               GAMDOT            EQUALS   GAMA       +1                         #  1P
003191: E6,1541  E6,1724               POSEXIT           EQUALS   GAMDOT     +1                         #  1P
003192: E6,1541  E6,1725               CM/GYMDT          EQUALS   POSEXIT    +1                         #  1P
003193: E6,1541  E6,1726               HEADSUP           EQUALS   CM/GYMDT   +1                         #  1P DSP NOUN 61 FOR P62,63,64,67.
003194: E6,1541  E6,1727               P63FLAG           EQUALS   HEADSUP    +1                         #  1P INTERLOCK FOR WAKEP62
003195:
003196:                                                                                                 #  SHARE BELOW WITH RCS RUPT TEMPS (+15D)
003197: E6,1541  E6,1506               CALFA             EQUALS   SPNDX                                 #  1P
003198: E6,1541  E6,1507               SALFA             EQUALS   CALFA      +1                         #  1P
003199:
003200: E6,1541  E6,1510               SINM              EQUALS   SALFA      +1                         #  1P
003201: E6,1541  E6,1511               COSM              EQUALS   SINM       +1                         #  1P
003202: E6,1541  E6,1512               SINO              EQUALS   COSM       +1                         #  1P
003203: E6,1541  E6,1513               COSO              EQUALS   SINO       +1                         #  1P
003204: E6,1541  E6,1514               SINOCOSM          EQUALS   COSO       +1                         #  1P
003205: E6,1541  E6,1515               COSOCOSM          EQUALS   SINOCOSM   +1                         #  1P
003206:                                                                                                 #  SHARE ABOVE WITH RCS RUPT TEMPS
003207:
003208:                                                                                                 #  THE FOLLOWING (garbled) REGISTERS USED (garbled)
003209: E6,1541  E6,1613               -VT/180           EQUALS   NUJET      +1                         #  1P
003210: E6,1541  E6,1614               LCX/360           EQUALS   -VT/180    +1                         #  1P
003211: E6,1541  E6,1615               XD/360            EQUALS   LCX/360    +1                         #  1P
003212: E6,1541  E6,1616               VSQ/4API          EQUALS   XD/360     +1                         #  1P
003213: E6,1541  E6,1617               JNDX              EQUALS   VSQ/4API   +1                         #  1P
003214: E6,1541  E6,1620               JNDX1             EQUALS   JNDX       +1                         #  1P
003215:                                                                                                 #  Page 113
003216: E6,1541  E6,1621               TON1              EQUALS   JNDX1      +1                         #  1P DP PAIR
003217: E6,1541  E6,1622               T1BITS            EQUALS   TON1       +1                         #  1P
003218:
003219:                                                                                                 #  MISCELLANEOUS REGISTERS USED EACH UPDATE.
003220: E6,1541  E6,1623               CM/SAVE           EQUALS   T1BITS     +1                         #  1P
003221: E6,1541  E6,1624               JETEM2            EQUALS   CM/SAVE    +1                         #  1P TEMPORARY STORAGE
003222:
003223:                                                                                                 #  DAP QUANTITIES SHARED WITH RCS DAP FOR TM & FLIGHT RECORDER.
003224: E6,1541  E6,1567               VDT/180           =        ERRORX                                #  1P (EDIT)
003225: E6,1541  E6,1570               -VT/180E          =        ERRORY                                #  1P (EDIT)
003226:
003227: E6,1541  E6,1476               PAXERR            EQUALS   AK                                    #  1P ROLL ERROR FOR NEEDLES
003228: E6,1541  E6,1572               QAXERR            =        THETADX                               #  1P SINCE AK1 IS ZEROED IN ATM DAP.
003229: E6,1541  E6,1573               RAXERR            =        QAXERR     +1                         #  1P SINCE AK2 IS ZEROED IN TM DAP.
003230:
003231:                                                                                                 #  *** COLMANU (R60,R62) ****
003232: E6,1541  E6,1710               VECQTEMP          EQUALS   COFSKEW
003233:
003234:                                                                                                 #  Page 114
003235:                                                                                                 #  ******** KALCMANU VARIABLES. (71D) *******************************
003236: E6,1541  E6,1661               BCDU              EQUALS   YMANNDX    +1                         #  B(3)TMP
003237: E6,1541  E6,1664               KSPNDX            EQUALS   BCDU       +3                         #  B(1)TMP
003238: E6,1541  E6,1665               KDPNDX            EQUALS   KSPNDX     +1                         #  B(1)TMP
003239:
003240: E6,1541  E6,1666               TMIS              EQUALS   KDPNDX     +1                         #  I(18) MUST BE IN THE SAME BANK AS RCS DAP
003241: E6,1541  E6,1710               COFSKEW           EQUALS   TMIS       +18D                       #  I(6) MUST BE IN THE SAME BANK AS RCS DAP
003242: E6,1541  E6,1716               CAM               EQUALS   COFSKEW    +6                         #  I(2) MUST BE IN THE SAME BANK AS RCS DAP
003243:
003244: E6,1541  E6,1720               MIS               EQUALS   CAM        +2                         #  I(18)  (THE REST MAY GO ANYWHERE)
003245: E6,1541  E6,1742               COF               EQUALS   MIS        +18D                       #  I(6)TMP
003246: E6,1541  E6,1750               SCAXIS            EQUALS   COF        +6                         #  I(6)TMP
003247: E6,1541  E6,1756               POINTVSM          EQUALS   SCAXIS     +6                         #  I(6)TMP
003248: E6,1541  E6,1764               AM                EQUALS   POINTVSM   +6                         #  I(2)TMP
003249: E6,1541  E6,1766               RAD               EQUALS   AM         +2                         #  I(2)TMP
003250:
003251:                                                                                                 #  FIRST-ORDER OVERLAYS IN KALCMANU
003252: E6,1541  E6,1666               KV1               EQUALS   TMIS                                  #  I(6)TMP
003253: E6,1541  E6,1666               MFISYM            EQUALS   TMIS                                  #  I   TMP
003254: E6,1541  E6,1666               TMFI              EQUALS   TMIS                                  #  I   TMP
003255: E6,1541  E6,1666               NCDU              EQUALS   TMIS                                  #  B   TMP
003256: E6,1541  E6,1671               NEXTIME           EQUALS   TMIS       +3                         #  B   TMP
003257: E6,1541  E6,1672               TTEMP             EQUALS   TMIS       +4                         #  B   TMP
003258: E6,1541  E6,1674               KV2               EQUALS   TMIS       +6                         #  I(6)TMP
003259: E6,1541  E6,1674               BIASTEMP          EQUALS   TMIS       +6                         #  B   TMP
003260: E6,1541  E6,1702               KV3               EQUALS   TMIS       +12D                       #  I(6)TMP
003261: E6,1541  E6,1702               CGF               EQUALS   TMIS       +12D                       #  I   TMP
003262:
003263: E6,1541  E6,1710               BRATE             EQUALS   COFSKEW                               #  B   TMP
003264: E6,1541  E6,1716               TM                EQUALS   CAM                                   #  B   TMP
003265:
003266:                                                                                                 #  SECOND-ORDER OVERLAYS IN KALCMANU
003267: E6,1541  E6,1666               P21               EQUALS   KV1                                   #  I(2)TMP
003268: E6,1541  E6,1670               D21               EQUALS   KV1        +2                         #  I(2)TMP
003269: E6,1541  E6,1672               G21               EQUALS   KV1        +4                         #  I(2)TMP
003270:
003271:                                                                                                 #  SATURN BOOST STORAGE.  SAVE TILL RCS DAP OPERATION.    (17D)
003272: E6,1541  E6,1661               POLYNUM           EQUALS   BCDU                                  #  B(15) PAD LOADED
003273: E6,1541  E6,1673               POLYLOC           =        POLYNUM    +10D
003274: E6,1541  E6,1700               SATRLRT           EQUALS   POLYNUM    +15D                       #  B(2) PAD LOADED
003275:
003276:                                                                                                 #  MORE P11 STORAGE --PAD LOADED--                (2D)
003277:                                                                                                 #  Page 115
003278:                                                                                                 #  (NOTE:  THIS PAD LOAD WILL NOT BE PRESERVED THROUGHOUT THE MISSION AS IT SHARES STORAGE WITH KALCMANU,
003279:                                                                                                 #  ENTRY DAP AND TVC DAP)
003280: E6,1541  E6,1702               RPSTART           EQUALS   SATRLRT    +2                         #  B(1) PITCH ROLL START TIME
003281: E6,1541  E6,1703               POLYSTOP          EQUALS   RPSTART    +1                         #  B(1) POLYCUT OFF MINUS RPSTART SEC
003282:
003283:                                                                                                 #  STORAGE FOR VHHDOT AND ATTDSP
003284: E6,1541  E6,1704               BODY3             EQUALS   POLYSTOP   +1                         #  B(1)OUT
003285: E6,1541  E6,1705               BODY2             EQUALS   BODY3      +1                         #  B(1)OUT
003286: E6,1541  E6,1706               BODY1             EQUALS   BODY2      +1                         #  B(1)OUT
003287: E6,1541  E6,1707               SPOLYARG          EQUALS   BODY1      +1                         #  B(1)TMP ARGUMENT FOR POLLY
003288:
003289: E6,1541  E6,1503               OLDBODY1          =        EDRIVEX                               #  1 PULSE = 0.0432 DEGREES
003290: E6,1541  E6,1504               OLDBODY2          =        EDRIVEY
003291: E6,1541  E6,1505               OLDBODY3          =        EDRIVEZ
003292:
003293:                                                                                                 #  STORAGE FOR S11.1
003294: E6,1541  E6,1710               VDISP             EQUALS   SPOLYARG   +1                         #  I(2)OUT        2(7) M/CS
003295: E6,1541  E6,1712               HDISP             EQUALS   VDISP      +2                         #  I(2)OUT        2(29) M
003296: E6,1541  E6,1714               HDOTDISP          EQUALS   HDISP      +2                         #  I(2)OUT        2(7) M/CS
003297: E6,1541  E6,1716               BOOSTEMP          EQUALS   HDOTDISP   +2                         #  B(2)TMP
003298:
003299:                                                                                                 #  P21 STORAGE
003300: E6,1541  E6,1770               GENRET            EQUALS   RAD        +2                         #  R(1)TMP
003301:
003302:                                                                                                 #  R61CSM STORAGE.                                (1D)
003303: E6,1541  E6,1771               SAVBNK            EQUALS   GENRET     +1                         #  B(1) S-S SAVE EBANK FOR R61 SUBROUTINE
003304:
003305:                                                                                                 #  CRS61.1 STORAGE FOR AUTOPILOT BANK.            (3D)
003306: E6,1541  E6,1772               SAVEDCDU          EQUALS   SAVBNK     +1                         #  B(3)TMP
003307:
003308:                                                                                                 #  R61 STORAGE.                                   (1D)
003309: E6,1541  E6,1775               R61CNTR           EQUALS   SAVEDCDU   +3                         #   (1)TMP
003310:
003311:                                                                                                 #  ENTRY RESTART PROTECTION STORAGE.  --KEEP TEMPS IN ORDER--     (12D)
003312:                                                                                                 #  Page 116
003313: E6,1541  E6,1770               TEMPROLL          EQUALS   GENRET                                #  B(1)TMP COPY CYCLE REGISTER
003314: E6,1541  E6,1771               TEMPALFA          EQUALS   TEMPROLL   +1                         #  B(1)TMP COPY CYCLE REGISTER
003315: E6,1541  E6,1772               TEMPBETA          EQUALS   TEMPALFA   +1                         #  B(1)TMP COPY CYCLE REGISTER
003316: E6,1541  E6,1773               60GENRET          EQUALS   TEMPBETA   +1                         #  B(1)TMP QSAVE FOR S61.1 AND ENTRY.
003317: E6,1541  E6,1774               S61DT             EQUALS   60GENRET   +1                         #  B(1)TMP VARIABLE DT FOR S61.1 RESTART.
003318:
003319:                                                                                                 #  ENTRY TM SHARING FOR ACCELERATION PROFILE.
003320: E6,1541  E6,1533               XPIPBUF           EQUALS   ADOT                                  #  B(1) PIPA BUFFER FOR TM DURING ENTRY.
003321: E6,1541  E6,1534               YPIPBUF           EQUALS   XPIPBUF    +1                         #  B(1) PIPS FILED HERE EACH .3 SEC APPEAR
003322: E6,1541  E6,1535               ZPIPBUF           EQUALS   YPIPBUF    +1                         #  B(1) ON DOWNLIST ONCE PER SECOND DURING
003323: E6,1541  E6,1536               XOLDBUF           EQUALS   ZPIPBUF    +1                         #  B(1) ENTRY AFTER RCS DAP HAS BEEN DIS-
003324: E6,1541  E6,1537               YOLDBUF           EQUALS   XOLDBUF    +1                         #  B(1) ABLED.  NEWEST PIP VALUE REPLACES
003325: E6,1541  E6,1540               ZOLDBUF           EQUALS   YOLDBUF    +1                         #  B(1) PIPBUF, WHICH IS MOVED INTO OLDBUF.
003326:
003327:                                                                                                 #  REENTRY VARIABLES SHARED WITH RCS DAP FOR TM & FLIGHT RECORDER.
003328: E6,1541  E6,1574               Q7                =        THETADZ                               #  I(2) HI-WORD ONLY ON DNLIST.
003329: E6,1541  E6,1525               ASPS(TM)          =        WBODY                                 #  I(6)DWN
003330:                                                                                                 #         ASKEP, ASP1, ASPUP, ASPDN, ASP3, ASP3+1
003331:
003332: E6,1541  E6,1776               END-E6            EQUALS   R61CNTR    +1                         #  NEXT FREE E6 ADDRESS.
003333:
003334:                                                                                                 #  Page 117
003335:                                                                                                 #  EBANK-7 ASSIGNMENTS
003336:
003337: E7,1400                                          SETLOC   3400
003338:
003339:                                                                                                 #  *-*-*-*- OVERLAY NUMBER 0 IN EBANK 7 -*-*-*-*
003340:
003341:                                                                                                 #  EXTERNAL DELTA-V UPDATE.                       (21D)
003342:                                                                                                 #  (MUST BE IN ORDER FOR UPDATE PROGRAM.  ALSO ENTRY PROGRAM PICK UP 'LAT(SPL' WITH A VLOAD.)
003343:
003344: E7,1400                        LAT(SPL)          ERASE    +20D                                  #  I(2)DSP NOUN 61 FOR P62,63,64,67
003345: E7,1425  E7,1402               LNG(SPL)          EQUALS   LAT(SPL)   +2                         #  I(2)DSP NOUN 61 FOR P62,63,64,67
003346:
003347: E7,1425  E7,1404               DELVSLV           EQUALS   LNG(SPL)   +2                         #  I(6)TMP DELTA VEL VECT, LOC VER COORDS
003348: E7,1425  E7,1412               TIG               EQUALS   DELVSLV    +6                         #  B(2)DSP NOUN 33 FOR X-V84(R32),P30,40.
003349: E7,1425  E7,1414               RTARG             EQUALS   TIG        +2                         #  I(6)IN DESIRED VEHICLE RADIUS VECTOR
003350: E7,1425  E7,1422               DELLT4            EQUALS   RTARG      +6                         #  I(2)IN TIME DIFFERENCE FOR INITVEL
003351: E7,1425  E7,1424               ECSTEER           EQUALS   DELLT4     +2                         #  I(1)PL FOR P40'S
003352: E7,1425  E7,1404               DELVLVC           =        DELVSLV
003353: E7,1425                        END-DELV          ERASE                                          #  *NEXT AVAIL LOC AFTER UNSHARED ET*
003354:
003355:                                                                                                 #  SERVICER STORAGE.                              (13D)
003356: E7,1426  E7,1425               DVTOTAL           EQUALS   END-DELV                              #  B(2)DSP NOUN 40,99 FOR P30,34,35,40
003357: E7,1426  E7,1427               TGO               EQUALS   DVTOTAL    +2                         #  B(2)
003358: E7,1426  E7,1431               DVCNTR            EQUALS   TGO        +2                         #  B(1)TMP
003359: E7,1426  E7,1432               DELVREF           EQUALS   DVCNTR     +1                         #  I(6)TMP
003360:
003361: E7,1426  E7,1447               NOMTIG            EQUALS   END-KALC                              #  I(2) (CANNOT SHARE WITH KALCMANU
003362:                                                                                                 #        OR DELVREF)
003363: E7,1426  E7,1451               END-SVCR          EQUALS   NOMTIG     +2                         #  ***NEXT AVAILABLE AFTER SERVICER
003364:
003365:                                                                                                 #  ALIGNMENT STORAGE.                             (25D)
003366: E7,1426  E7,1451               XSCD              EQUALS   END-SVCR                              #  I(6)TMP
003367: E7,1426  E7,1457               YSCD              EQUALS   XSCD       +6                         #  I(6)TMP
003368: E7,1426  E7,1465               ZSCD              EQUALS   YSCD       +6                         #  I(6)TMP
003369: E7,1426  E7,1473               VEL/C             EQUALS   ZSCD       +6                         #  I(6)TMP
003370: E7,1426  E7,1501               R53EXIT           EQUALS   VEL/C      +6                         #  I(1)TMP
003371:
003372:                                                                                                 #  ALIGNMENT MARKDATA (DOWNLINK) *******          (7D)
003373: E7,1426  E7,1502               MARK2DWN          EQUALS   R53EXIT    +1                         #   (7) USED BY ALIGNMENT P50'S
003374:
003375:                                                                                                 #  Page 118
003376:                                                                                                 #  *-*-*-*- OVERLAY NUMBER 1 IN EBANK 7 -*-*-*-*
003377:
003378:                                                                                                 #  REENTRY ERASABLES.                             (206D)
003379: E7,1426  E7,1451               RTINIT            EQUALS   END-SVCR                              #  6P
003380: E7,1426  E7,1457               RTEAST            EQUALS   RTINIT     +6                         #  6P
003381: E7,1426  E7,1465               RTNORM            EQUALS   RTEAST     +6                         #  6P
003382: E7,1426  E7,1473               RT                EQUALS   RTNORM     +6                         #  6P
003383: E7,1426  E7,1501               UNI               EQUALS   RT         +6                         #  6P
003384: E7,1426  E7,1507               UNITV             EQUALS   UNI        +6                         #  6P
003385: E7,1426  E7,1515               VEL               EQUALS   UNITV      +6                         #  6P
003386:
003387: E7,1426  E7,1523               TIME/RTO          EQUALS   VEL        +6                         #  2P TIME OF INITIAL TARGET, RTO.
003388: E7,1426  E7,1525               -VREL             EQUALS   TIME/RTO   +2                         #  6P
003389: E7,1426  E7,1533               OLDUYA            EQUALS   -VREL      +6                         #  6P USED BY CM/POSE     (ENTRY DAP)
003390: E7,1426  E7,1541               UXA/2             EQUALS   OLDUYA     +6                         #  6P USED BY CM/POSE     (ENTRY DAP) -UVA
003391: E7,1426  E7,1541               URH               =        UXA/2                                 #         P67 DISPLAY NOUN
003392: E7,1426  E7,1547               UYA/2             EQUALS   UXA/2      +6                         #  6P USED BY CM/POSE     (ENTRY DAP) UYA
003393: E7,1426  E7,1555               UZA/2             EQUALS   UYA/2      +6                         #  6P USED BY CM/POSE     (ENTRY DAP) UNA
003394: E7,1426  E7,1563               UBX/2             EQUALS   UZA/2      +6                         #  6P USED BY CM/POSE     (ENTRY DAP)
003395: E7,1426  E7,1571               UBY/2             EQUALS   UBX/2      +6                         #  6P USED BY CM/POSE     (ENTRY DAP)
003396: E7,1426  E7,1577               UBZ/2             EQUALS   UBY/2      +6                         #  6P USED BY CM/POSE     (ENTRY DAP)
003397:
003398: E7,1426  E7,1605               DTEAROT           EQUALS   UBZ/2      +6                         #  2P
003399: E7,1426  E7,1607               DIFF              EQUALS   DTEAROT    +2                         #  2P
003400: E7,1426  E7,1611               DIFFOLD           EQUALS   DIFF       +2                         #  2P
003401: E7,1426  E7,1613               FACTOR            EQUALS   DIFFOLD    +2                         #  2P
003402: E7,1426  E7,1615               FACT1             EQUALS   FACTOR     +2                         #  2P
003403: E7,1426  E7,1617               FACT2             EQUALS   FACT1      +2                         #  2P
003404:                                                                                                 # Q7              =       THETAD2         # 2P SHARED FOR TM.  P64-P66
003405: E7,1426  E7,1621               VSQUARE           EQUALS   FACT2      +2                         #  2P
003406: E7,1426  E7,1623               LAD               EQUALS   VSQUARE    +2                         #  2P
003407: E7,1426  E7,1625               LOD               EQUALS   LAD        +2                         #  2P
003408: E7,1426  E7,1627               L/DCMINR          EQUALS   LOD        +2                         #  2P
003409: E7,1426  E7,1631               KLAT              EQUALS   L/DCMINR   +2                         #  2P
003410: E7,1426  E7,1633               L/D               EQUALS   KLAT       +2                         #  2P
003411: E7,1426  E7,1635               L/D1              EQUALS   L/D        +2                         #  2P
003412: E7,1426  E7,1724               LEWD              =        VIO                                   #  2P SHARED FOR TM.  P64-P65
003413: E7,1426  E7,1637               D                 EQUALS   L/D1       +2                         #  2P DSP NOUN 64,66,68 FOR P63,64,67
003414:                                                                                                 # V1              =       ENDBUF  +1      # 2P SHARED FOR TM. P64-P65
003415: E7,1426  E7,1641               DLEWD             EQUALS   D          +2                         #  2P
003416: E7,1426  E7,1643               K2ROLL            EQUALS   DLEWD      +2                         #  2P
003417: E7,1426  E7,1645               GOTOADDR          EQUALS   K2ROLL     +2                         #  1P
003418: E7,1426  E7,1646               TEM1B             EQUALS   GOTOADDR   +1                         #  2P
003419: E7,1426  E7,1650               MM                EQUALS   TEM1B      +2                         #  2P
003420: E7,1426  E7,1651               GRAD              EQUALS   MM         +1                         #  2P
003421: E7,1426  E7,1652               FX                EQUALS   GRAD       +1                         #  1P OVERWRITES NEXT 5 LOCS IN P67
003422: E7,1426  E7,1653               LEQ               EQUALS   FX         +1                         #  2P
003423: E7,1426  E7,1655               DHOOK             EQUALS   LEQ        +2                         #  2P
003424: E7,1426  E7,1657               AHOOKDV           EQUALS   DHOOK      +2                         #  2P
003425:                                                                                                 #  Page 119
003426: E7,1426  E7,1661               DVL               EQUALS   AHOOKDV    +2                         #  2P
003427:                                                                                                 # A0              =       ENDBUF  +3      # 2P SHARED FOR TM. (HI-WD) P84-P85
003428: E7,1426  E7,1663               A1                EQUALS   DVL        +2                         #  2P
003429: E7,1426  E7,1665               VBARS             EQUALS   A1         +2                         #  2P
003430: E7,1426  E7,1667               COSG/2            EQUALS   VBARS      +2                         #  2P
003431:                                                                                                 # GAMMAL          =       GAMMABI         # 2P SHARED FOR TM.  P64
003432: E7,1426                        GAMMAL1           =        22D                                   #  2P
003433: E7,1426  E7,1671               VS1               EQUALS   COSG/2     +2                         #  2P
003434: E7,1426  E7,1766               VL                =        VPRED                                 #  2P SHARED FOR TM.  P64-P65
003435: E7,1426  E7,1673               V                 EQUALS   VS1        +2                         #  2P
003436:                                                                                                 # VREF            =       THETAD  +2      # 2P SHARED FOR TM.  P65
003437: E7,1426  E7,1675               LATANG            EQUALS   V          +2                         #  2P ADJACENT FOR TM.
003438: E7,1426  E7,1677               RDOT              EQUALS   LATANG     +2                         #  2P ADJACENT FOR TM.
003439: E7,1426  E7,1701               THETAH            EQUALS   RDOT       +2                         #  2P DSP NOUN 64,67 FOR P63,64,67
003440:                                                                                                 # RDOTREF         =       THETAD          # 2P SHARED FOR TM.  P65
003441: E7,1426  E7,1703               ALP               EQUALS   THETAH     +2                         #  2P
003442:
003443: E7,1426  E7,1730               ASKEP             =        ASPS                                  #  2P     THESE ARE STORED IN
003444: E7,1426  E7,1731               ASP1              =        ASPS       +1                         #  2P     SEQUENCE, OVERLAPPING
003445: E7,1426  E7,1732               ASPUP             =        ASPS       +2                         #  2P     HI-WORD ONLY APPEARING
003446: E7,1426  E7,1733               ASPDWN            =        ASPS       +3                         #  2P     ON DOWNLIST, EXCEPT
003447: E7,1426  E7,1734               ASP3              =        ASPS       +4                         #  2P     ASP3 IS COMPLETE.
003448:
003449: E7,1426  E7,1705               C/D0              EQUALS   ALP        +2                         #  2P     -1/D0
003450: E7,1426  E7,1707               D0                EQUALS   C/D0       +2                         #  I(2)   CONSTANT DRAG
003451: E7,1426  E7,1711               Q2                EQUALS   D0         +2                         #  2P
003452:
003453:                                                                                                 #  ROLLC IS LOCATED IN EBANK= AOG TO AID ENTRY DAP.
003454: E7,1426  E7,1713               RTGO              EQUALS   Q2         +2                         #  2P DSP NOUN 66 FOR P64,P67
003455: E7,1426  E7,1715               DNRNGERR          EQUALS   RTGO       +2                         #  2P DSP NOUN 66 FOR P64,67
003456: E7,1426  E7,1675               XRNGERR           =        LATANG                                #         FOR DISKY DISPLAY
003457: E7,1426  E7,1717               KAT               EQUALS   DNRNGERR   +2                         #  2P
003458: E7,1426  E7,1721               GMAX              EQUALS   KAT        +2                         #  1P DSP NOUN 60 FOR P61,62,63
003459:                                                                                                 #  GMAX IS LOADED IN DOUBLE PRECISION.
003460: E7,1426  E7,1726               L/DCALC           =        TTE                                   #  2P CALCULATED L/D FOR TM: P64-P67.
003461: E7,1426  E7,1770               GAMMAL            =        GAMMAEI                               #  2P SHARED FOR TM.  P64.
003462: E7,1426  E7,1770               PREDANG           =        GAMMAEI                               #         FOR TM IN P67.
003463: E7,1426  E7,1771               JJ                =        PREDANG    +1                         #         FOR TM IN P67.
003464: E7,1426  E7,1722               VMAGI             EQUALS   GMAX       +1                         #  2P DSP NOUN 62,64,66 FOR P11,63,64.
003465: E7,1426  E7,1724               VIO               EQUALS   VMAGI      +2                         #  2P DSP NOUN 63 FOR P61.
003466: E7,1426  E7,1726               TTE               EQUALS   VIO        +2                         #  2P DSP NOUN 63 FOR P61.
003467: E7,1426  E7,1730               ASPS              EQUALS   TTE        +2                         #  I(2) HI-WORD ONLY ON DNLIST FOR TEM
003468: E7,1426  E7,1732               TTE1              EQUALS   ASPS       +2                         #  I(2)TMP HOLDS UNDECREMENTED TTE VALUE
003469:
003470:                                                                                                 #  **** P6O'S ****
003471: E7,1426  E7,1713               RTGON64           EQUALS   RTGO                                  #  RANGE ERRORS NEGATIVE IF FALLS SHORT
003472:                                                                                                 #  Page 120
003473: E7,1426  E7,1713               RTGON67           EQUALS   RTGO                                  #  DSP NOUN 67
003474:
003475:                                                                                                 #  REENTRY, RETURN TO EARTH COMMON DISPLAY        (4D)
003476: E7,1426  E7,1766               VPRED             EQUALS   BETA12     +2                         #  DSP NOUN 60 FOR P61,62,63
003477: E7,1426  E7,1770               GAMMAEI           EQUALS   VPRED      +2                         #  DSP NOUN 60 FOR P61,62,63
003478:
003479:                                                                                                 #  SOME P11 DISPLAY REGISTERS
003480: E7,1426  E7,1734               ALTI              EQUALS   TTE1       +2                         #  2P DSP NOUN 62 FOR P11.
003481: E7,1426  E7,1736               HDOT              EQUALS   ALTI       +2                         #  2P DSP NOUN 62 FOR P11.
003482:
003483:                                                                                                 #  Page 121
003484:                                                                                                 #  *-*-*-*- OVERLAY NUMBER 2 IN EBANK 7 -*-*-*-*
003485:
003486:                                                                                                 #  KALCMANU STORAGE.                              (18D)
003487: E7,1426  E7,1425               MFS               EQUALS   END-DELV                              #  I(18)
003488: E7,1426  E7,1425               MFI               EQUALS   MFS                                   #  I    TMP
003489: E7,1426  E7,1425               DEL               EQUALS   MFS                                   #  I    TMP
003490: E7,1426  E7,1447               END-KALC          EQUALS   MFS        +18D                       #  **NEXT AVAIL LOC AFTER KALCMANU**
003491:
003492:                                                                                                 #  MEASUREMENT INCORPORATION STORAGE (R22) STORAGE.       (56D)
003493:
003494: E7,1426  E7,1447               TX789             EQUALS   END-KALC                              #  I(6)TMP
003495: E7,1426  E7,1455               GAMMA             EQUALS   TX789      +6                         #  I(3)TMP
003496: E7,1426  E7,1457               OMEGA             EQUALS   GAMMA      +2                         #  I(18)TMP
003497: E7,1426  E7,1501               BVECTOR           EQUALS   OMEGA      +18D                       #  I(18)TMP
003498: E7,1426  E7,1523               DELTAQ            EQUALS   BVECTOR    +18D                       #  I(2)TMP
003499: E7,1426  E7,1525               VARIANCE          EQUALS   DELTAQ     +2                         #  I(3)TMP
003500: E7,1426  E7,1530               RCLP              EQUALS   VARIANCE   +3                         #  I(6)TMP
003501: E7,1426  E7,1536               GRP2SVQ           EQUALS   RCLP       +6                         #  I(1)TMP QSAVE FOR RESTARTS
003502:
003503:                                                                                                 #  P20, P22, P23 DSP NOUN
003504: E7,1426  E7,1501               N49DISP           EQUALS   BVECTOR                               #  B(5)TMP
003505:
003506:                                                                                                 #  S22.1 STORAGE.                         (36D)
003507: E7,1426  E7,1537               SVMRKDAT          EQUALS   GRP2SVQ    +1                         #  I(36)TMP 5 SETS OF MARK DATA +PAD OF ON
003508:
003509:                                                                                                 #  **** CISLUNAR NAV.  ERAS.  (P20'S) ****        (57D)
003510: E7,1426  E7,1603               TRUNX             EQUALS   SVMRKDAT   +36D
003511: E7,1426  E7,1603               DATATEST          EQUALS   TRUNX                                 #   (1)
003512: E7,1426  E7,1604               UBAR0             EQUALS   TRUNX      +1
003513: E7,1426  E7,1612               UBAR1             EQUALS   UBAR0      +6
003514: E7,1426  E7,1620               UBAR2             EQUALS   UBAR1      +6
003515: E7,1426  E7,1626               RZC               EQUALS   UBAR2      +6
003516: E7,1426  E7,1634               VZC               EQUALS   RZC        +6
003517: E7,1426  E7,1642               UCLSTAR           EQUALS   VZC        +6
003518: E7,1426  E7,1650               USSTAR            EQUALS   UCLSTAR    +6
003519: E7,1426  E7,1656               RCLL              EQUALS   USSTAR     +6
003520: E7,1426  E7,1664               RL                EQUALS   RCLL       +6
003521: E7,1426  E7,1672               SRRETURN          EQUALS   RL         +6
003522:
003523:                                                                                                 #  Page 122
003524:                                                                                                 #  *-*-*-*- OVERLAY NUMBER 3 IN EBANK 7 -*-*-*-*
003525:
003526:                                                                                                 #  RENDEZVOUS GUIDANCE STORAGE. -- P32 ... P35 -- (8D)
003527: E7,1426  E7,1447               DELTEEO           EQUALS   END-KALC                              #  I(2) S-S BACK VALUES OF DELTA TIME
003528: E7,1426  E7,1451               DELEL             EQUALS   DELTEEO    +2                         #  I(2) S-S
003529: E7,1426  E7,1453               SECMAX            EQUALS   DELEL      +2                         #  I(2) S-S MAX STOP SIZE FOR ROUTINE
003530: E7,1426  E7,1455               XXXALT            EQUALS   SECMAX     +2                         #  I(2)
003531:
003532:                                                                                                 #  S40.9 STORAGE                                  (16D)
003533: E7,1426  E7,1457               VG                EQUALS   XXXALT     +2                         #  I(6)TMP
003534: E7,1426  E7,1465               VRPREV            EQUALS   VG         +6                         #  I(6)
003535: E7,1426  E7,1473               TNIT              EQUALS   VRPREV     +6                         #  I(2)
003536: E7,1426  E7,1475               TNITPREV          EQUALS   TNIT       +2                         #  I(2)
003537:
003538:                                                                                                 #  S40.2,3 STORAGE.                               (1D)
003539: E7,1426  E7,1477               AXISCODE          EQUALS   TNITPREV   +2                         #  I(1)IN
003540:
003541:                                                                                                 #  P30'S-P17 COMMON STORAGE.                      (4D)
003542: E7,1426  E7,1537               RACT3             EQUALS   GRP2SVQ    +1                         #  I(6)TMP POSITION OF ACTIE AT TPI TIME.
003543: E7,1426  E7,1545               VACT3             EQUALS   RACT3      +6                         #  I(6)TMP VELOCITY OF ACTIVE AT TPI TIME.
003544: E7,1426  E7,1553               RPASS3            EQUALS   VACT3      +6                         #  I(6)TMP POSITION OF PASSIVE AT TPI TIME.
003545: E7,1426  E7,1561               VPASS3            EQUALS   RPASS3     +6                         #  I(6)TMP VELOCITY OF PASSIVE AT TPI TIME.
003546:
003547:                                                                                                 #  P76, N84 DISPLAY                               (6D)
003548: E7,1426  E7,1537               DELVOV            EQUALS   RACT3                                 #  I(6)DSP NOUN 84 FOR X-V84, P34-35
003549:
003550:                                                                                                 #  INITVEL/MIDGIM STORAGE.                        (34D)
003551:                                                                                                 #         (CALLED BY S34.1,2, S35.1,2, AND S40.9)
003552:                                                                                                 #         (CALLS LAMBERT, CONIC SUBROUTINES)
003553: E7,1426  E7,1567               RINIT             EQUALS   VPASS3     +6                         #  I(6)IN ACTIVE VEHICLE RADIUS VECTOR
003554: E7,1426  E7,1575               VINIT             EQUALS   RINIT      +6                         #  I(6)IN ACTIVE VEHICLE VELOCITY VECTOR
003555: E7,1426  E7,1603               RTARG1            EQUALS   VINIT      +6                         #  I(6)TMP SHIFTED RTARG
003556: E7,1426  E7,1611               VIPRIME           EQUALS   RTARG1     +6                         #  I(6)OUT NEW VEL REQ AT INITIAL RADIUS
003557: E7,1426  E7,1617               VTPRIME           EQUALS   VIPRIME    +6                         #  I(6)OUT TOTAL VELOCITY AT DESIRED RADIUS
003558: E7,1426  E7,1625               +MGA              EQUALS   VTPRIME    +6                         #  I(2)DSP NOUN 45 FOR P30,34,35.  +MID GIM.
003559: E7,1426  E7,1627               COZY4             EQUALS   +MGA       +2                         #  I(2)TMP COSINE OF ANGLE WHEN ROT STARTS
003560:
003561:                                                                                                 #  THE FOLLOWING OVERLAYS MEASUREMENT INCORP AND CANNOT SHARE WITH TPI
003562:                                                                                                 #  Page 123
003563: E7,1426  E7,1502               INTIME            EQUALS   AXISCODE   +3
003564: E7,1426  E7,1504               ITCTR             EQUALS   INTIME     +2                         #  I(1)TMP ITERATION COUNTER
003565: E7,1426  E7,1631               END-IN/M          EQUALS   COZY4      +2                         #  ** NEXT AVAIL LOC AFTER INITVEL/MIDGIM **
003566:
003567:                                                                                                 #  P34 AND P33 STORAGE.  (OVERLAYS INITVEL/MIDGIM)        (24D)
003568: E7,1426  E7,1567               VAPREC            EQUALS   RINIT                                 #  I(6) S-S PREC VEC FOR NOM TPI TIME (ACT V)
003569: E7,1426  E7,1575               RAPREC            EQUALS   VINIT                                 #  I(6) S-S PREC VEC FOR NOM TPI TIME (ACT V)
003570: E7,1426  E7,1611               VPPREC            EQUALS   VIPRIME                               #  I(6) S-S PREC VEC FOR NOM TPI TIME (PASS)
003571: E7,1426  E7,1617               RPPREC            EQUALS   VTPRIME                               #  I(6) S-S PREC VEC FOR NOM TPI TIME (PASS)
003572:
003573:                                                                                                 #  P30, P40 INTERFACE.                            (20D)
003574: E7,1426  E7,1631               RTIG              EQUALS   END-IN/M                              #  I(6)TMP
003575: E7,1426  E7,1637               VTIG              EQUALS   RTIG       +6                         #  I(6)TMP
003576: E7,1426  E7,1645               DELVSIN           EQUALS   VTIG       +6                         #  I(6)TMP
003577: E7,1426  E7,1645               DELVEET3          EQUALS   DELVSIN                               #      TMP DELTA VEL VECT INERTIAL COORDS.
003578: E7,1426  E7,1645               VGTEMP            EQUALS   DELVEET3
003579: E7,1426  E7,1653               DELVSAB           EQUALS   DELVSIN    +6                         #  I(2)TMP
003580: E7,1426  E7,1653               VGDISP            =        DELVSAB                               #  DSP NOUN 40,42,99 FOR P30,34,35,40,41.
003581:
003582:                                                                                                 #  P35-P40 INTERFACE STORAGE.  (OVERLAYS P30-P40 I/F STORAGE)     (12D)
003583: E7,1426  E7,1631               RPASS4            EQUALS   RTIG                                  #  I(6)TMP POSITION OF PASSIVE AT INTERCEPT
003584: E7,1426  E7,1637               VPASS4            EQUALS   RPASS4     +6                         #  I(6)TMP VELOCITY OF PASSIVE AT INTERCEPT
003585:
003586:                                                                                                 #  TPI SEARCH (P17)                               (6D)
003587: E7,1426  E7,1645               E2                EQUALS   VPASS4     +6                         #  I(6)TMP
003588:
003589:                                                                                                 #  P30-P40 COMMON STORAGE.                        (3D)
003590: E7,1426  E7,1655               TPASS4            EQUALS   DELVSAB    +2                         #  I(2)TMP
003591: E7,1426  E7,1655               TINT              =        TPASS4                                #  I(2)
003592: E7,1426  E7,1657               QTEMP             EQUALS   TPASS4     +2                         #  I(1)TMP
003593:
003594:                                                                                                 #  P30-P40 STORAGE.
003595: E7,1426  E7,1660               TTOGO             EQUALS   QTEMP      +1                         #  B(2)DSP NOUN 35,40,45,59,99
003596:                                                                                                 #           FOR P30,34,35,40,41,47, R30.
003597: E7,1426  E7,1662               TTPI              EQUALS   TTOGO      +2                         #  B(2)DSP NOUN 37 FOR P34 TPI TIME, CSECS.
003598:                                                                                                 #  Page 124
003599: E7,1426  E7,1664               END-P30S          EQUALS   TTPI       +2                         #  ** NEXT AVAIL LOC AFTER P30-40 STORAGE. **
003600:
003601:                                                                                                 #  P40 STORAGE.                                   (8D)
003602: E7,1426  E7,1664               VGBODY            EQUALS   END-P30S                              #  B(6)DSP NOUN 85 FOR P40,41,42 VG-SC COOR
003603: E7,1426  E7,1664               DELVCTL           =        VGBODY
003604: E7,1426  E7,1672               P40TMP            EQUALS   VGBODY     +6                         #  B(2)TMP
003605:
003606:                                                                                                 #  P47 STORAGE.
003607: E7,1426  E7,1457               DV47TEMP          EQUALS   VG
003608: E7,1426  E7,1674               DELVIMU           EQUALS   P40TMP     +2                         #  I(6)DSP NOUN 83 FOR P47 DELTAV(IMU).
003609:
003610:                                                                                                 #  S40.1 STORAGE.                         (23D)
003611: E7,1426  E7,1702               CSTEER            EQUALS   DELVIMU    +6                         #  I(2)IN
003612: E7,1426  E7,1704               BDT               EQUALS   CSTEER     +2                         #  I(6)IN
003613: E7,1426  E7,1712               UT                EQUALS   BDT        +6                         #  I(6)OUT THRUST DIRECTION
003614: E7,1426  E7,1720               VGTIG             EQUALS   UT         +6                         #  I(6)OUT
003615: E7,1426  E7,1720               VGPREV            =        VGTIG
003616: E7,1426  E7,1726               F                 EQUALS   VGTIG      +6                         #  I(2)OUT S40.3 NEEDS THIS
003617:
003618: E7,1426  E7,1730               QTEMP1            EQUALS   F          +2                         #  I(1)TMP HOLDS RETURN
003619:
003620:                                                                                                 #  Page 125
003621:                                                                                                 #  *-*-*-*- OVERLAY NUMBER 4 IN EBANK 7 -*-*-*-*
003622:
003623:                                                                                                 #  S35.1 STORAGE.                         (2D)
003624: E7,1426  E7,1664               TSTRT             EQUALS   END-P30S                              #  I(2)IN MIDCOURSE START TIME
003625:
003626:                                                                                                 #  S34.1 STORAGE.  (OVERLAYS S35.1 STORAGE)       (1)
003627: E7,1426  E7,1664               TITER             EQUALS   TSTRT                                 #  I(1)TMP ITERATION COUNTER
003628:
003629:                                                                                                 #  (P30-31 Q-SAVES)                               (1)
003630: E7,1426  E7,1664               P30/31RT          EQUALS   TITER                                 #  B(1) RETURN POINT
003631:
003632:                                                                                                 #  P20'S (COLOSSUS) STORAGE.                      (8D)
003633: E7,1426  E7,1666               S22WUNL           EQUALS   TSTRT      +2                         #  1      WUNL W8 UNKNOWN INIT VALUE.
003634: E7,1426  E7,1667               S22TOFF           EQUALS   S22WUNL    +1                         #  2      T SUB OFF
003635: E7,1426  E7,1671               S22TPRIM          EQUALS   S22TOFF    +2                         #  2      SAVE TF
003636: E7,1426  E7,1673               S22EORM           EQUALS   S22TPRIM   +2                         #  0 = EARTH -- NON-ZERO = MOON
003637:
003638:                                                                                                 #  DOWNLINK ERASABLES FOR P22, P20 MARK DATA.     (8D)
003639: E7,1426  E7,1674               MARKDOWN          EQUALS   S22EORM    +1                         #  B(1)
003640: E7,1426  E7,1703               RM                EQUALS   S22RTNEX                              #  DOWNLINK OF VHF RANGE
003641:
003642:                                                                                                 #  S22.1                                          (1D)
003643: E7,1426  E7,1703               S22RTNEX          EQUALS   MARKDOWN   +7                         #  B(1)
003644:
003645:                                                                                                 #  CRS61.1 STORAGE.  --A SUBSET OF P20--          (14D)
003646: E7,1426  E7,1704               Q611              EQUALS   RM         +1                         #  I(1)TMP QSAVE
003647: E7,1426  E7,1705               Q6111             EQUALS   Q611       +1                         #  I(1)TMP QSAVE
003648: E7,1426  E7,1706               SAVEPOS           EQUALS   Q6111      +1                         #  I(6)TMP LEM POSITION VECTOR.
003649: E7,1426  E7,1714               SAVEVEL           EQUALS   SAVEPOS    +6                         #  I(6)TMP LEM VELOCITY VECTOR
003650:
003651:                                                                                                 #  ATTITUDE MANEUVER -- CALLED BY P20,R61,R63,CRS61.1     (3D)
003652:                                                                                                 #  Page 126
003653: E7,1426  E7,1722               PRAXIS            EQUALS   SAVEVEL    +6                         #  B(3) S-S DISP RES FOR PREF AXIS N95.
003654:
003655:                                                                                                 #  MARK ROUTINE (R21) STORAGE.  -- IS SUBSET OF R22 --    (14D)
003656: E7,1426  E7,1725               MRKBUF1           EQUALS   PRAXIS     +3                         #  B(7)TMP R21 MARK BUFFER.
003657: E7,1426  E7,1734               MRKBUF2           EQUALS   MRKBUF1    +7                         #  B(7)TMP R21 MARK BUFFER.
003658:
003659:                                                                                                 #  MORE CONICS STORAGE.                           (4)
003660: E7,1426                        COGA              EQUALS   3774                                  #  I(2) COTAN OF INITIAL FLIGHT PATH ANGLE
003661: E7,1426  0003774               INDEP             EQUALS   COGA                                  #  I(1) USED BY SUBROUTINE 'ITERATOR'
003662: E7,1426  0003776               EPSILONL          EQUALS   COGA       +2                         #  I(2)TMP
003663:
003664:                                                                                                 #  RENDEZVOUS GUIDANCE STORAGE.  -- P32...P35 --  (10D)
003665: E7,1426  E7,1743               ELEV              EQUALS   MRKBUF2    +7                         #  I(2)TMP
003666: E7,1426  E7,1745               RTX1              EQUALS   ELEV       +2                         #   (1)
003667: E7,1426  E7,1746               RTX2              EQUALS   RTX1       +1                         #   (1)
003668: E7,1426  E7,1747               RTMU              EQUALS   RTX2       +1                         #   (1)
003669: E7,1426  E7,1751               RTSR1/MU          EQUALS   RTMU       +2                         #   (2)
003670: E7,1426  E7,1753               CENTANG           EQUALS   RTSR1/MU   +2                         #  I(2) S-S CENTRAL ANGLE COVERED (TPI-TFF)
003671:
003672:                                                                                                 #  TPI SEARCH (S17.1, S17.2) P17 STORAGE. (10D)
003673: E7,1426  E7,1743               DELTEE            EQUALS   MRKBUF2    +7                         #  I(2)
003674: E7,1426  E7,1745               XRS               EQUALS   DELTEE     +2                         #  I(2)
003675: E7,1426  E7,1747               THETL             EQUALS   XRS        +2                         #  I(2)
003676: E7,1426  E7,1751               TF                EQUALS   THETL      +2                         #  I(2)
003677: E7,1426  E7,1753               DELHITE           EQUALS   TF         +2                         #   (2)
003678:
003679:                                                                                                 #  Page 127
003680:                                                                                                 #  *-*-*-*- OVERLAY NUMBER 5 IN EBANK 7 -*-*-*-*
003681:
003682:                                                                                                 #  P17,P34                                        (2D)
003683: E7,1426  E7,1645               NN1               EQUALS   DELVEET3                              #  I(2)DSP NOUN 55,R1
003684:
003685:                                                                                                 #  ********* THE FOLLOWING ARE FOR FLIGHT 504 ONLY *************
003686:
003687:                                                                                                 #  RETURN-TO-EARTH STORAGE.                       (93D)
003688: E7,1426  E7,1631               RTEDVD            EQUALS   END-IN/M                              #  I(2)IN DELTA VELOCITY DESIRED          M/CS B7
003689: E7,1426  E7,1633               RTEGAM2D          EQUALS   RTEDVD     +2                         #  I(2)IN REENTRY ANGLE DESIRED           REVS B0
003690: E7,1426  E7,1635               RCON              EQUALS   RTEGAM2D   +2                         #  I(2)TMP CONIC R2 RADIUS                M B29
003691: E7,1426  E7,1637               R(T1)/            EQUALS   RCON       +2                         #  I(6)TMP POSITION VECTOR AT TIG M B29/B27
003692: E7,1426  E7,1645               R(T1)             EQUALS   R(T1)/     +6                         #  I(2)TMP MAGNITUDE OF R(T1)/            M B29/B27
003693: E7,1426  E7,1647               DT21PR            EQUALS   R(T1)      +2                         #  I(2)TMP PREVIOUS DT21                  CS B30
003694: E7,1426  E7,1651               MAMAX1            EQUALS   DT21PR     +2                         #  I(2)TMP MAJ AXIS LOW BOUND LMT M B30
003695: E7,1426  E7,1653               MAMAX2            EQUALS   MAMAX1     +2                         #  I(2)TMP MAJ AXIS UP BOUND LMT          M B30
003696: E7,1426  E7,1655               R(T2)/            EQUALS   MAMAX2     +2                         #  I(6)TMP FINAL POSITION VECTOR          M B29/B27
003697: E7,1426  E7,1663               RD                EQUALS   R(T2)/     +6                         #  I(2)TMP FINAL R DESIRED                M B29/B27
003698: E7,1426  E7,1665               DRCON             EQUALS   RD         +2                         #  I(2)TMP RCON SLOPE ITERATOR            M B29/B27
003699: E7,1426  E7,1667               RPRE'             EQUALS   DRCON      +2                         #  I(2)TMP PREVIOUS RPRE                  M B29/B27
003700: E7,1426  E7,1671               V(T1)/            EQUALS   RPRE'      +2                         #  I(6)TMP VEL VECTOR AT TIG              M/CS B7/B5
003701: E7,1426  E7,1677               V2(T1)/           EQUALS   V(T1)/     +6                         #  I(6)TMP POST IMP VEL AT TIG            M/CS B7/B5
003702: E7,1426  E7,1705               DV                EQUALS   V2(T1)/    +6                         #  I(2)TMP DELTA VELOCITY AT TIG          M/CS B7/B5
003703: E7,1426  E7,1707               V(T2)/            EQUALS   DV         +2                         #  I(6)TMP FINAL VELOCITY VECTOR          M/CS B7/B5
003704: E7,1426  E7,1715               T1                EQUALS   V(T2)/     +6                         #  I(2)TMP INITIAL VECTOR TIME            CS B28
003705: E7,1426  E7,1717               PCON              EQUALS   T1         +2                         #  I(2)TMP SEMI-LATUS RECTUM              M B29
003706: E7,1426  E7,1721               X(T1)             EQUALS   PCON       +2                         #  I(2)TMP COTANGENT GAMMA1               B5
003707: E7,1426  E7,1723               T12               EQUALS   X(T1)      +2                         #  I(2)TMP INIT TO FINAL POSIT TIME       CS B28
003708: E7,1426  E7,1725               DELTAT            EQUALS   T12        +2                         #  I(2)TMP DELTA T IN SAVE PERILUNE       CS B28
003709: E7,1426  E7,1727               NN1A              EQUALS   DELTAT     +2                         #  I(2)TMP ITERATION COUNTER 1
003710: E7,1426  E7,1731               NN2               EQUALS   NN1A       +2                         #  I(2)TMP ITERATION COUNTER 2
003711: E7,1426  E7,1733               RTENCKEX          EQUALS   NN2        +2                         #  I(1)TMP RTENCK RETURN ADDRESS
003712: E7,1426  E7,1734               CONICX1           EQUALS   RTENCKEX   +1                         #  I(1)TMP CONICS MU TABLE INDEX
003713: E7,1426  E7,1735               T2                EQUALS   CONICX1    +1                         #  I(2)TMP FINAL TIME                     CS B28
003714: E7,1426  E7,1737               UR1/              EQUALS   T2         +2                         #  I(6)TMP UNIT R(T1)/                    B1
003715: E7,1426  E7,1745               UV1/              EQUALS   UR1/       +6                         #  I(6)TMP UNIT V(T1)/                    B1
003716: E7,1426  E7,1753               BETA1             EQUALS   UV1/       +6                         #  I(2)TMP 1+X(T2)**2                     B1
003717: E7,1426  E7,1755               P(T1)             EQUALS   BETA1      +2                         #  I(1)TMP PRIMARY BODY STATE TIME 1      B14
003718: E7,1426  E7,1756               CFPA              EQUALS   P(T1)      +1                         #  I(2)TMP COSINE FLIGHT PATH ANGLE       B1
003719: E7,1426  E7,1760               PHI2              EQUALS   CFPA       +2                         #  I(2)TMP PERI OR APO INDICATOR          B2
003720: E7,1426  E7,1762               SPRTEX            EQUALS   PHI2       +2                         #  I(1)TMP ROUTINE RETURN ADDRESS
003721: E7,1426  E7,1763               VNSTORE           EQUALS   SPRTEX     +1                         #  I(1)TMP VERBNOUN STORAGE
003722: E7,1426  E7,1764               BETA12            EQUALS   VNSTORE    +1                         #  I(2)TMP SIGN FOR TIMERAD
003723:
003724:                                                                                                 #  OVERLAYS WITHIN RETURN-TO-EARTH STORAGE.
003725: E7,1426                        RPRE              EQUALS   24D                                   #  I(2)TMP COMPUTED PREC RADIUS           M B29/B27
003726:                                                                                                 #  Page 128
003727: E7,1426                        P/RPRE            EQUALS   26D                                   #  I(2)TMP P/R                            B4
003728: E7,1426                        R/APRE            EQUALS   28D                                   #  I(2)TMP R/A                            B6
003729: E7,1426  E7,1723               X(T2)PRE          EQUALS   T12                                   #  I(2)TMP PREC COTAN GAMMA2              B0
003730: E7,1426  E7,1725               X(T2)             EQUALS   DELTAT                                #  I(2)TMP COTAN GAMMA2                   B0
003731: E7,1426  E7,1745               UH/               EQUALS   UV1/                                  #  I(2)TMP UNIT HORIZONTAL VECTOR.        B1
003732: E7,1426  E7,1412               SPRTETIG          EQUALS   TIG                                   #  I(2)IN TIME OF IGNITION                CS B28
003733: E7,1426  E4,1721               RETLOCN           EQUALS   XR1HOLD    +1
003734:
003735:                                                                                                 #  The following two statements had been just "WHOCARES = 3777".---RSB 2004
003736: E7,1777                                          SETLOC   3777
003737: E7,1777                        WHOCARES          EQUALS                                         #  A DUMMY FOR E-BANK INSENSITIVE 2CADRS.
003738: E7,1777  E7,1777               END-E7            EQUALS   WHOCARES                              #  ***** LAST LOCATION IN E7
003739:
003740:                                                                                                 #  *** END OF KILERASE.080 ***
003741:

End of include-file ERASABLE_ASSIGNMENTS.agc.  Parent file is MAIN.agc


