
Source Code


000002:                                                                                                  ## Copyright:   Public domain.
000003:                                                                                                  ## Filename:    ERASABLE_ASSIGNMENTS.agc
000004:                                                                                                  ## Purpose:     Part of the source code for Colossus, build 249.
000005:                                                                                                  ##              It is part of the source code for the Command Module's (CM)
000006:                                                                                                  ##              Apollo Guidance Computer (AGC), for Apollo 9.
000007:                                                                                                  ## Assembler:   yaYUL
000008:                                                                                                  ## Reference:   pp. 35-126.
000009:                                                                                                  ## Contact:     Ron Burkey <info@sandroid.org>.
000010:                                                                                                  ## Website:     www.ibiblio.org/apollo.
000011:                                                                                                  ## Mod history: 08/03/04   RSB  Adapted from similar Luminary 131 file.
000012:                                                                                                  ##              08/05/04   RSB  Finished up the draft (not proofed).
000013:                                                                                                  ##              05/08/09   RSB  On p. 99, "INTVEC = FILDELV +W" was corrected
000014:                                                                                                  ##                              to "INTVEC = FILDELV +2".  The reason this
000015:                                                                                                  ##                              was working is that INTVEC isn't used for
000016:                                                                                                  ##                              anything.
000017:                                                                                                  ##              2010-08-30 JL   Added missing comment character.
000018:                                                                                                  ##              2010-10-24 JL   Fixed page number.
000019:                                                                                                  ##              2011-05-07 JL   Removed workarounds.
000020:                                                                                                  ##              2017-01-05 RSB  Page numbers now agree with those on the
000021:                                                                                                  ##                              original harcopy, as opposed to the PDF page
000022:                                                                                                  ##                              numbers in 1701.pdf.
000023:                                                                                                  ##              2017-01-07 RSB  Cross-diff'd comment text (not whitespace)
000024:                                                                                                  ##                              but only through page 87,
000025:                                                                                                  ##                              vs the already-proofed corresponding Colossus
000026:                                                                                                  ##                              237 and Comanche 55 source-code files
000027:                                                                                                  ##                              and corrected errors found.
000028:                                                                                                  ##              2017-01-12 RSB  Completed the 3-way cross-proofing.
000029:                                                                                                  ##              2017-01-22 RSB  Back-ported comment error fixes detected in diff'ing
000030:                                                                                                  ##                              Artemis 72 vs Comanche 55.
000031:                                                                                                  ##              2017-03-16 RSB  Comment-text fixes identified in 4-way side-by-side
000032:                                                                                                  ##                              diff of Colossus237/249/Comanche55/Artemis72.
000033:
000034:                                                                                                  ## The contents of the "Colossus249" files, in general, are transcribed
000035:                                                                                                  ## from a scanned copy of the program listing.  Notations on this
000036:                                                                                                  ## document read, in part:
000037:                                                                                                  ##
000038:                                                                                                  ##      Assemble revision 249 of AGC program Colossus by NASA
000039:                                                                                                  ##      2021111-041.  October 28, 1968.
000040:                                                                                                  ##
000041:                                                                                                  ##      This AGC program shall also be referred to as
000042:                                                                                                  ##                              Colossus 1A
000043:                                                                                                  ##
000044:                                                                                                  ##      Prepared by
000045:                                                                                                  ##                      Massachusetts Institute of Technology
000046:                                                                                                  ##                      75 Cambridge Parkway
000047:                                                                                                  ##                      Cambridge, Massachusetts
000048:                                                                                                  ##      under NASA contract NAS 9-4065.
000049:                                                                                                  ##
000050:                                                                                                  ## Refer directly to the online document mentioned above for further information.
000051:                                                                                                  ## Please report any errors (relative to the scanned pages) to info@sandroid.org.
000052:                                                                                                  ##
000053:                                                                                                  ## In some cases, where the source code for Luminary 131 overlaps that of
000054:                                                                                                  ## Colossus 249, this code is instead copied from the corresponding Luminary 131
000055:                                                                                                  ## source file, and then is proofed to incorporate any changes.
000056:


000058:                                                                                                  #  CONVENTIONS AND NOTATIONS UTILIZED FOR ERASABLE ASSIGNMENTS.
000059:
000060:                                                                                                  #        EQUALS  IS USED IN TWO WAYS.  IT IS OFTEN USED TO CHAIN A GROUP
000061:                                                                                                  #                OF ASSIGNMENTS SO THAT THE GROUP MAY BE MOVED WITH THE
000062:                                                                                                  #                CHANGING OF ONLY ONE CARD.  EXAMPLE.
000063:
000064:                                                                                                  #                        X       EQUALS  START
000065:                                                                                                  #                        Y       EQUALS  X       +SIZE.X
000066:                                                                                                  #                        Z       EQUALS  Y       +SIZE.Y
000067:
000068:                                                                                                  #                (X, Y, AND Z ARE CONSECUTIVE AND BEGIN AT START.       )
000069:                                                                                                  #                (SIZE.X AND SIZE.Y ARE THE RESPECTIVE SIZES OF X AND Y,
000070:                                                                                                  #                USUALLY NUMERIC, IE. 1, 2, 6, 18D ETC.                 )
000071:
000072:                                                                                                  #        EQUALS  OFTEN IMPLIES THE SHARING OF REGISTERS (DIFFERENT NAMES
000073:                                                                                                  #                AND DIFFERENT DATA).  EXAMPLE.
000074:
000075:                                                                                                  #                        X       EQUALS  Y
000076:
000077:                                                                                                  #        =       MEANS THAT MULTIPLE NAMES HAVE BEEN GIVEN TO THE SAME DATA.
000078:                                                                                                  #                (THIS IS LOGICAL EQUIVALENCE, NOT SHARING)  EXAMPLE.
000079:
000080:                                                                                                  #                        X       =       Y
000081:
000082:                                                                                                  #        THE SIZE AND UTILIZATION OF AN ERASABLE ARE OFTEN INCLUDED IN
000083:                                                                                                  #        THE COMMENTS IN THE FOLLOWING FORM. M(SIZE)N.
000084:
000085:                                                                                                  #                M       REFERS TO THE MOBILITY OF THE ASSIGNMENT.
000086:                                                                                                  #                        B       MEANS THAT THE SYMBOL IS REFERENCED BY BASIC
000087:                                                                                                  #                                INSTRUCTIONS AND THUS IS E-BANK SENSITIVE.
000088:                                                                                                  #                        I       MEANS THAT THE SYMBOL IS REFERENCED ONLY BY
000089:                                                                                                  #                                INTERPRETIVE INSTRUCTIONS, AND IS THUS E-BANK
000090:                                                                                                  #                                INSENSITIVE AND MAY APPEAR IN ANY E-BANK.
000091:
000092:                                                                                                  #                SIZE    IS THE NUMBER OF REGISTERS INCLUDED BY THE SYMBOL.
000093:
000094:                                                                                                  #                N       INDICATES THE NATURE OR PERMANENCE OF THE CONTENTS.
000095:                                                                                                  #                        PL      MEANS THAT THE CONTENTS ARE PAD LOADED.
000096:                                                                                                  #                        DSP     MEANS THAT THE REGISTER IS USED FOR A DISPLAY.
000097:                                                                                                  #                        PRM     MEANS THAT THE REGISTER IS PERMANENT,  IE. IT
000098:                                                                                                  #                                IS USED DURING THE ENTIRE MISSION FOR ONE
000099:                                                                                                  #                                PURPOSE AND CANNOT BE SHARED.
000100:                                                                                                  #                        TMP     MEANS THAT THE REGISTER IS USED TEMPORARILY OR
000101:                                                                                                  #                                IS A SCRATCH REGISTER FOR THE ROUTINE TO WHICH
000102:                                                                                                  #                                IT IS ASSIGNED.  THAT IS, IT NEED NOT BE SET
000103:                                                                                                  #                                PRIOR TO INVOCATION OF THE ROUTINE NOR DOES IT
000104:                                                                                                  #                                CONTAIN USEFUL OUTPUT TO ANOTHER ROUTINE.  THUS


000106:                                                                                                  #                                IT MAY BE SHARED WITH ANY OTHER ROUTINE WHICH
000107:                                                                                                  #                                IS NOT ACTIVE IN PARALLEL.
000108:                                                                                                  #                        IN      MEANS INPUT TO THE ROUTINE AND IT IS PROBABLY
000109:                                                                                                  #                                TEMPORARY FOR A HIGHER-LEVEL ROUTINE/PROGRAM.
000110:                                                                                                  #                        OUT     MEANS OUTPUT FROM THE ROUTINE, PROBABLY
000111:                                                                                                  #                                TEMPORARY FOR A HIGHER-LEVEL ROUTINE/PROGRAM.
000112:


000114:                                                                                                  #  SPECIAL REGISTERS.
000115:
000116: 37,2001                        A                  EQUALS   0
000117: 37,2001                        L                  EQUALS   1                                     #  L AND Q ARE BOTH CHANNELS AND REGISTERS.
000118: 37,2001                        Q                  EQUALS   2
000119: 37,2001                        EBANK              EQUALS   3
000120: 37,2001                        FBANK              EQUALS   4
000121: 37,2001                        Z                  EQUALS   5                                     #  ADJACENT TO FBANK AND BBANK FOR DXCH Z
000122: 37,2001                        BBANK              EQUALS   6                                     #  (DTCB) AND DXCH FBANK (DTCF).
000123:                                                                                                  #  REGISTER 7 IS A ZERO-SOURCE, USED BY ZL.
000124:
000125: 37,2001                        ARUPT              EQUALS   10                                    #  INTERRUPT STORAGE.
000126: 37,2001                        LRUPT              EQUALS   11
000127: 37,2001                        QRUPT              EQUALS   12
000128: 37,2001                        SAMPTIME           EQUALS   13                                    #  SAMPLED TIME 1 & 2.
000129: 37,2001                        ZRUPT              EQUALS   15                                    #  (13 AND 14 ARE SPARES.)
000130: 37,2001                        BANKRUPT           EQUALS   16                                    #  USUALLY HOLDS FBANK OR BBANK.
000131: 37,2001                        BRUPT              EQUALS   17                                    #  RESUME ADDRESS AS WELL.
000132:
000133: 37,2001                        CYR                EQUALS   20
000134: 37,2001                        SR                 EQUALS   21
000135: 37,2001                        CYL                EQUALS   22
000136: 37,2001                        EDOP               EQUALS   23                                    #  EDITS INTERPRETIVE OPERATION CODE PAIRS.
000137:
000138: 37,2001                        TIME2              EQUALS   24
000139: 37,2001                        TIME1              EQUALS   25
000140: 37,2001                        TIME3              EQUALS   26
000141: 37,2001                        TIME4              EQUALS   27
000142: 37,2001                        TIME5              EQUALS   30
000143: 37,2001                        TIME6              EQUALS   31
000144: 37,2001                        CDUX               EQUALS   32
000145: 37,2001                        CDUY               EQUALS   33
000146: 37,2001                        CDUZ               EQUALS   34
000147: 37,2001                        CDUT               EQUALS   35                                    #  OPTICS TRUNNION CDU (WAS OPTY).
000148: 37,2001  0000035               OPTY               =        CDUT
000149: 37,2001                        CDUS               EQUALS   36                                    #  OPTICS SHAFT CDU (WAS OPTX).
000150: 37,2001  0000036               OPTX               =        CDUS
000151: 37,2001                        PIPAX              EQUALS   37
000152: 37,2001                        PIPAY              EQUALS   40
000153: 37,2001                        PIPAZ              EQUALS   41
000154: 37,2001                        BMAGX              EQUALS   42
000155: 37,2001                        BMAGY              EQUALS   43
000156: 37,2001                        BMAGZ              EQUALS   44
000157: 37,2001                        INLINK             EQUALS   45
000158: 37,2001                        RNRAD              EQUALS   46
000159: 37,2001                        GYROCTR            EQUALS   47
000160: 37,2001                        GYROCMD            EQUALS   47
000161: 37,2001                        CDUXCMD            EQUALS   50
000162: 37,2001                        CDUYCMD            EQUALS   51


000164: 37,2001                        CDUZCMD            EQUALS   52
000165: 37,2001                        CDUTCMD            EQUALS   53                                    #  OPTICS TRUNNION COMMAND (WAS OPTYCMD).
000166: 37,2001  0000053               OPTYCMD            =        CDUTCMD
000167: 37,2001  0000053               TVCYAW             EQUALS   CDUTCMD                               #  SPS YAW COMMAND IN TVC MODE.
000168: 37,2001                        CDUSCMD            EQUALS   54                                    #  OPTICS SHAFT COMMAND (WAS OPTXCMD).
000169: 37,2001  0000054               TVCPITCH           EQUALS   CDUSCMD                               #  SPS PITCH COMMAND IN TVC MODE.
000170: 37,2001  0000054               OPTXCMD            =        CDUSCMD
000171: 37,2001                        EMSD               EQUALS   55
000172: 37,2001                        THRUST             EQUALS   55
000173: 37,2001                        LEMONM             EQUALS   56
000174: 37,2001                        OUTLINK            EQUALS   57
000175: 37,2001                        ALTM               EQUALS   60
000176:
000177:                                                                                                  #  INTERPRETIVE REGISTERS ADDRESSED RELATIVE TO VAC AREA.
000178:
000179: 37,2001                        LVSQUARE           EQUALS   34D                                   #  SQUARE OF VECTOR INPUT TO ABVAL AND UNIT
000180: 37,2001                        LV                 EQUALS   36D                                   #  LENGTH OF VECTOR INPUT TO UNIT.
000181: 37,2001                        X1                 EQUALS   38D                                   #  INTERPRETIVE SPECIAL REGISTERS RELATIVE
000182: 37,2001                        X2                 EQUALS   39D                                   #  TO THE WORK AREA.
000183: 37,2001                        S1                 EQUALS   40D
000184: 37,2001                        S2                 EQUALS   41D
000185: 37,2001                        QPRET              EQUALS   42D
000186:


000188:                                                                                                  #  INPUT/OUTPUT CHANNELS
000189:
000190:                                                                                                  #  *** CHANNEL ZERO IS TO BE USED IN AN INDEXED OPERATION ONLY. ***
000191: 37,2001  0000001               LCHAN              EQUALS   L
000192: 37,2001  0000002               QCHAN              EQUALS   Q
000193: 37,2001                        HISCALAR           EQUALS   3
000194: 37,2001                        LOSCALAR           EQUALS   4
000195: 37,2001                        PYJETS             EQUALS   5
000196: 37,2001                        ROLLJETS           EQUALS   6
000197: 37,2001                        SUPERBNK           EQUALS   7
000198: 37,2001                        OUT0               EQUALS   10
000199: 37,2001                        DSALMOUT           EQUALS   11
000200: 37,2001                        CHAN12             EQUALS   12
000201: 37,2001                        CHAN13             EQUALS   13
000202: 37,2001                        CHAN14             EQUALS   14
000203: 37,2001                        MNKEYIN            EQUALS   15
000204: 37,2001                        NAVKEYIN           EQUALS   16
000205: 37,2001                        CHAN30             EQUALS   30
000206: 37,2001                        CHAN31             EQUALS   31
000207: 37,2001                        CHAN32             EQUALS   32
000208: 37,2001                        CHAN33             EQUALS   33
000209: 37,2001                        DNTM1              EQUALS   34
000210: 37,2001                        DNTM2              EQUALS   35
000211:
000212:                                                                                                  #  END OF CHANNEL ASSIGNMENTS
000213:


000215:
000216:                                                                                                  #  FLAGWORDS
000217:
000218:                                                                                                  #  FLAGWRD0      STATE +0        (000-014)
000219:                                                                                                  #  FLAGWRD1      STATE +1        (015-029)
000220:                                                                                                  #  FLAGWRD2      STATE +2        (030-044)
000221:                                                                                                  #  FLAGWRD3      STATE +3        (045-059)
000222:                                                                                                  #  FLAGWRD4      STATE +4        (060-074)
000223:                                                                                                  #  FLAGWRD5      STATE +5        (075-089)
000224:                                                                                                  #  FLAGWRD6      STATE +6        (090-104)
000225:                                                                                                  #  FLAGWRD7      STATE +7        (105-119)
000226:                                                                                                  #  FLAGWRD8      STATE +8D       (120-134)
000227:                                                                                                  #  FLAGWRD9      STATE +9D       (135-149)
000228:
000229:                                                                                                  #        SORTED LIST OF
000230:                                                                                                  #        INTERPITIVE SWITCH BIT ASSIGNMENTS
000231:
000232:                                                                                                  #  INTERPRETIVE SWITCH BIT ASSIGNMENTS
000233:
000234:                                                                                                  #  FLAGWORD      DEC NUM         BIT + FLAG      EQUIVALENT FLAGWORDS
000235:
000236:                                                                                                  #  22DSPFLG      032D            BIT 13 FLAG 2
000237:                                                                                                  #  360SW         134D            BIT 1 FLAG 8
000238:                                                                                                  #  3AXISFLG      084D            BIT 6 FLAG 5
000239:                                                                                                  #  ADVTRK        125D            BIT 10 FLAG 8
000240:                                                                                                  #  APSESW        130D            BIT 5 FLAG 8
000241:                                                                                                  #  ASTNFLAG      108D            BIT 12 FLAG 7
000242:                                                                                                  #  ATTCHFLG      118D            BIT 2 FLAG 7
000243:                                                                                                  #  AVEGFLAG      029D            BIT 1 FLAG 1
000244:                                                                                                  #  AVEMIDSW      149D            BIT 1 FLAG 9
000245:                                                                                                  #  AVFLAG        040D            BIT 5 FLAG 2
000246:                                                                                                  #  CALCMAN2      043D            BIT 2 FLAG 2
000247:                                                                                                  #  CALCMAN3      042D            BIT 3 FLAG 2
000248:                                                                                                  #  CMDAPARM      093D            BIT 12 FLAG 6
000249:                                                                                                  #  CMOONFLG      123D            BIT 12 FLAG 8
000250:                                                                                                  #  CM/DSTBY      103D            BIT 2 FLAG 6
000251:                                                                                                  #  COGAFLAG      131D            BIT 4 FLAG 8
000252:                                                                                                  #  COMPUTER      082D            BIT 8 FLAG 5
000253:                                                                                                  #  CPHIFLAG      000D            BIT 15 FLAG 0
000254:                                                                                                  #  CULTFLAG      053D            BIT 7 FLAG 3
000255:                                                                                                  #  CYCLESW       035D            BIT 10 FLAG 2
000256:                                                                                                  #  D6OR9FLG      058D            BIT 2 FLAG 3
000257:                                                                                                  #  DAPBIT1       090D            BIT 15 FLAG 6
000258:                                                                                                  #  DAPBIT2       091D            BIT 14 FLAG 6
000259:                                                                                                  #  DIM0FLAG      059D            BIT 1 FLAG 3
000260:                                                                                                  #  DMENFLG       081D            BIT 9 FLAG 5
000261:                                                                                                  #  DRIFTFLG      030D            BIT 15 FLAG 2
000262:                                                                                                  #  DSKYFLAG      075D            BIT 15 FLAG 5


000264:                                                                                                  #  EGSW          97D             BIT 8 FLAG 6    KNOWNFLG R57FLAG
000265:                                                                                                  #  ENG1FLAG      018D            BIT 12 FLAG 1
000266:                                                                                                  #  ENG2FLAG      019D            BIT 11 FLAG 1
000267:                                                                                                  #  ENGONFLG      083D            BIT 7 FLAG 5
000268:                                                                                                  #  ERADFLAG      017D            BIT 13 FLAG 1
000269:                                                                                                  #  ETPIFLAG      038D            BIT 7 FLAG 2    FIRSTFLG OPTNSW
000270:                                                                                                  #  F2RTE         10D             BIT 5 FLAG 0
000271:                                                                                                  #  FINALFLG      039D            BIT 6 FLAG 2
000272:                                                                                                  #  FIRSTFLG      38D             BIT 7 FLAG 2    ETPIFLAG OPTNSW
000273:                                                                                                  #  FREEFLAG      012D            BIT 3 FLAG 0
000274:                                                                                                  #  GAMDIFSW      094D            BIT 11 FLAG 6
000275:                                                                                                  #  GLOKFAIL      046D            BIT 14 FLAG 3
000276:                                                                                                  #  GMBDRVSW      095D            BIT 10 FLAG 6   GONEPAST
000277:                                                                                                  #  GONEBY        112D            BIT 8 FLAG 7
000278:                                                                                                  #  GONEPAST      095D            BIT 10 FLAG 6   GMBDRVSW
000279:                                                                                                  #  GRRBKFLG      085D            BIT 5 FLAG 5
000280:                                                                                                  #  GUESSW        028D            BIT 2 FLAG 1
000281:                                                                                                  #  GYMDIFSW      104D            BIT 1 FLAG 6
000282:                                                                                                  #  .05GSW        102D            BIT 3 FLAG 6
000283:                                                                                                  #  HIND          099D            BIT 6 FLAG 6
000284:                                                                                                  #  IDLEFAIL      024D            BIT 6 FLAG 1
000285:                                                                                                  #  IDLEFLAG      113D            BIT 7 FLAG 7
000286:                                                                                                  #  IGNFLAG       107D            BIT 13 FLAG 7
000287:                                                                                                  #  IMPULSW       036D            BIT 9 FLAG 2
000288:                                                                                                  #  IMUSE         007D            BIT 8 FLAG 0
000289:                                                                                                  #  INCORFLG      079D            BIT 11 FLAG 5
000290:                                                                                                  #  INFINFLG      128D            BIT 7 FLAG 8
000291:                                                                                                  #  INRLSW        100D            BIT 5 FLAG 6
000292:                                                                                                  #  INTFLAG       151D            BIT 14 FLAG 10
000293:                                                                                                  #  INTYPFLG      056D            BIT 4 FLAG 3
000294:                                                                                                  #  ITSWICH       106D            BIT 14 FLAG 7
000295:                                                                                                  #  KFLAG         014D            BIT 1 FLAG 0
000296:                                                                                                  #  KNOWNFLG      097D            BIT 8 FLAG 6    EGSW R57FLAG
000297:                                                                                                  #  LATSW         101D            BIT 4 FLAG 6
000298:                                                                                                  #  LMOONFLG      124D            BIT 11 FLAG 8
000299:                                                                                                  #  LUNAFLAG      048D            BIT 12 FLAG 3
000300:                                                                                                  #  MAXDBFLG      138D            BIT 12 FLAG 9
000301:                                                                                                  #  MGLVFLAG      088D            BIT 2 FLAG 5
000302:                                                                                                  #  MID1FLAG      147D            BIT 3 FLAG 9
000303:                                                                                                  #  MIDAVFLG      148D            BIT 2 FLAG 9
000304:                                                                                                  #  MIDFLAG       002D            BIT 13 FLAG 0
000305:                                                                                                  #  MKOVFLAG      072D            BIT 3 FLAG 4
000306:                                                                                                  #  MOONFLAG      003D            BIT 12 FLAG 0
000307:                                                                                                  #  MRKIDFLG      060D            BIT 15 FLAG 4
000308:                                                                                                  #  MRKNVFLG      066D            BIT 9 FLAG 4
000309:                                                                                                  #  MRUPTFLG      070D            BIT 5 FLAG 4
000310:                                                                                                  #  MWAITFLG      064D            BIT 11 FLAG 4
000311:                                                                                                  #  N22ORN17      144D            BIT 6 FLAG 9
000312:                                                                                                  #  NEEDLFLG      006D            BIT 9 FLAG 0
000313:                                                                                                  #  NEWIFLG       122D            BIT 13 FLAG 8


000315:                                                                                                  #  NJETSFLG      015D            BIT 15 FLAG 1
000316:                                                                                                  #  NODOFLAG      044D            BIT 1 FLAG 2
000317:                                                                                                  #  NORFHOR       004D            BIT 11 FLAG 0
000318:                                                                                                  #  NORMSW        110D            BIT 10 FLAG 7
000319:                                                                                                  #  NOSWITCH      098D            BIT 7 FLAG 6
000320:                                                                                                  #  NRMIDFLG      062D            BIT 13 FLAG 4
000321:                                                                                                  #  NRMNVFLG      067D            BIT 8 FLAG 4
000322:                                                                                                  #  NRUPTFLG      071D            BIT 4 FLAG 4
000323:                                                                                                  #  NTARGFLG      102D            BIT 3 FLAG 6
000324:                                                                                                  #  NWAITFLG      065D            BIT 10 FLAG 4
000325:                                                                                                  #  OPTNSW        038D            BIT 7 FLAG 2    ETPIFLAG FIRSTFLG
000326:                                                                                                  #  ORBWFLAG      054D            BIT 6 FLAG 3
000327:                                                                                                  #  ORDERSW       129D            BIT 6 FLAG 8
000328:                                                                                                  #  P22MKFLG      49D             BIT 11 FLAG 3
000329:                                                                                                  #  P39/79SW      126D            BIT 9 FLAG 8
000330:                                                                                                  #  PDSPFLAG      063D            BIT 12 FLAG 4
000331:                                                                                                  #  PFRATFLG      041D            BIT 4 FLAG 2
000332:                                                                                                  #  PINBRFLG      069D            BIT 6 FLAG 4
000333:                                                                                                  #  PRECIFLG      052D            BIT 8 FLAG 3
000334:                                                                                                  #  PRFTRKAT      080D            BIT 10 FLAG 5
000335:                                                                                                  #  PRIODFLG      061D            BIT 14 FLAG 4
000336:                                                                                                  #  PRONVFLG      068D            BIT 7 FLAG 4
000337:                                                                                                  #  QUITFLAG      145D            BIT 5 FLAG 9
000338:                                                                                                  #  R21MARK       031D            BIT 14 FLAG 2
000339:                                                                                                  #  R22CAFLG      143D            BIT 7 FLAG 9
000340:                                                                                                  #  R23FLG        021D            BIT 9 FLAG 1
000341:                                                                                                  #  R31FLAG       146D            BIT 4 FLAG 9
000342:                                                                                                  #  R53FLAG       009D            BIT 6 FLAG 0
000343:                                                                                                  #  R57FLAG       097D            BIT 8 FLAG 6    KNOWNFLG EGSW
000344:                                                                                                  #  R60FLAG       086D            BIT 4 FLAG 5
000345:                                                                                                  #  REFSMFLG      047D            BIT 13 FLAG 3
000346:                                                                                                  #  REINTFLG      158D            BIT 7 FLAG 10
000347:                                                                                                  #  RELVELSW      096D            BIT 9 FLAG 6
000348:                                                                                                  #  RENDWFLG      089D            BIT 1 FLAG 5
000349:                                                                                                  #  RNDVZFLG      008D            BIT 7 FLAG 0
000350:                                                                                                  #  RPQFLAG       120D            BIT 15 FLAG 8
000351:                                                                                                  #  RVSW          111D            BIT 9 FLAG 7
000352:                                                                                                  #  SAVECFLG      140D            BIT 10 FLAG 9
000353:                                                                                                  #  SLOPESW       027D            BIT 3 FLAG 1
000354:                                                                                                  #  SOLNSW        087D            BIT 3 FLAG 5
000355:                                                                                                  #  SOURCFLG      142D            BIT 8 FLAG 9
000356:                                                                                                  #  STATEFLG      055D            BIT 5 FLAG 3
000357:                                                                                                  #  STEERSW       034D            BIT 11 FLAG 2
000358:                                                                                                  #  STIKFLAG      016D            BIT 14 FLAG 1
000359:                                                                                                  #  STRULLSW      92D             BIT 13 FLAG 6
000360:                                                                                                  #  SURFFLAG      127D            BIT 8 FLAG 8
000361:                                                                                                  #  SWTOVER       135D            BIT 15 FLAG 9
000362:                                                                                                  #  TARG1FLG      020D            BIT 10 FLAG 1
000363:                                                                                                  #  TARG2FLG      021D            BIT 9 FLAG 1
000364:                                                                                                  #  TERMIFLG      105D            BIT 15 FLAG 7


000366:                                                                                                  #  TFFSW         119D            BIT 1 FLAG 7
000367:                                                                                                  #  TIMRFLAG      109D            BIT 11 FLAG 7
000368:                                                                                                  #  TRACKFLG      025D            BIT 5 FLAG 1
000369:                                                                                                  #  TRM03FLG      26D             BIT 4 FLAG 1
000370:                                                                                                  #  TRUNFLAG      011D            BIT 4 FLAG 0
000371:                                                                                                  #  UPDATFLG      023D            BIT 7 FLAG 1
000372:                                                                                                  #  UPLOCKFL      116D            BIT 4 FLAG 7
000373:                                                                                                  #  V37FLAG       114D            BIT 6 FLAG 7
000374:                                                                                                  #  V59FLAG       078D            BIT 12 FLAG 5
000375:                                                                                                  #  V67FLAG       136D            BIT 14 FLAG 9
000376:                                                                                                  #  V82EMFLG      137D            BIT 13 FLAG 9
000377:                                                                                                  #  V94FLAG       139D            BIT 11 FLAG 9
000378:                                                                                                  #  VEHUPFLG      022D            BIT 8 FLAG 1
000379:                                                                                                  #  VERIFLAG      117D            BIT 3 FLAG 7
000380:                                                                                                  #  VFLAG         050D            BIT 10 FLAG 3
000381:                                                                                                  #  VHFRFLAG      141D            BIT 9 FLAG 9
000382:                                                                                                  #  VINTFLAG      057D            BIT 3 FLAG 3
000383:                                                                                                  #  XDELVFLG      037D            BIT 8 FLAG 2
000384:                                                                                                  #  XDSPFLAG      074D            BIT 1 FLAG 4
000385:


000387:                                                                                                  #  INTERPRETIVE SWITCH BIT ASSIGNMENTS
000388:
000389: 37,2001     0074               FLAGWRD0           =        STATE      +0                         #  (000-014)
000390:                                                                                                  #  (SET)                 (RESET)
000391:                                                                                                  #  BIT 15 FLAG 0
000392: 37,2001                        CPHIFLAG           =        000D                                  #  OUTPUT OF CALCGA IS   OUTPUT OF CALCGA IS
000393:                                                                                                  #  CPHIX                 THETAD
000394: 37,2001     4674               CPHIBIT            =        BIT15
000395:
000396:                                                                                                  #  BIT 14 FLAG 0
000397: 37,2001                        JSWITCH            =        001D                                  #  INTEGRATION OF W      INTEGRATION OF STATE
000398:                                                                                                  #  MATRIX                VECTOR
000399: 37,2001     4675               JSWCHBIT           =        BIT14
000400:
000401:                                                                                                  #  BIT 13 FLAG 0
000402: 37,2001                        MIDFLAG            =        002D                                  #  INTEGRATION WITH      INTEGRATION WITHOUT
000403:                                                                                                  #  SOLAR PERTURBATIONS   SOLAR PERTURBATIONS
000404:
000405: 37,2001     4676               MIDFLBIT           =        BIT13
000406:
000407:                                                                                                  #  BIT 12 FLAG 0
000408: 37,2001                        MOONFLAG           =        003D                                  #  MOON IS SPHERE OF     EARTH IS SPHERE OF
000409:                                                                                                  #  INFLUENCE             INFLUENCE
000410:
000411: 37,2001     4677               MOONBIT            =        BIT12
000412:
000413:                                                                                                  #  BIT 11 FLAG 0
000414: 37,2001                        NORFHOR            =        004D                                  #  FAR HORIZON           NEAR HORIZON
000415:
000416: 37,2001     4700               NORFBIT            =        BIT11
000417:
000418:                                                                                                  #  BIT 10 FLAG 0
000419: 37,2001                        ZMEASURE           =        005D                                  #  MEASUREMENT PLANET    MEASUREMENT PLANET
000420:                                                                                                  #  AND PRIMARY PLANET    AND PRIMARY PLANET
000421:                                                                                                  #  DIFFERENT             SAME
000422:
000423: 37,2001     4701               ZMEASBIT           =        BIT10
000424:
000425:                                                                                                  #  BIT 9 FLAG 0
000426: 37,2001                        NEEDLFLG           =        006D                                  #  TOTAL ATTIDUDE        A/P FOLLOWING ERROR
000427:                                                                                                  #  ERROR DISPLAYED       DISPLAYED
000428:
000429: 37,2001     4702               NEEDLBIT           =        BIT9
000430:
000431:                                                                                                  #  BIT 8 FLAG 0
000432: 37,2001                        IMUSE              =        007D                                  #  IMU IN USE            IMU NOT IN USE


000434: 37,2001     4703               IMUSEBIT           =        BIT8
000435:
000436:                                                                                                  #  BIT 7 FLAG 0
000437: 37,2001                        RNDVZFLG           =        008D                                  #  P20 RUNNING           P20 NOT RUNNING
000438:
000439: 37,2001     4704               RNDVZBIT           =        BIT7
000440:
000441:                                                                                                  #  BIT 6 FLAG 0
000442: 37,2001                        R53FLAG            =        009D                                  #  V51 INITIATED         V51 NOT INITIATED
000443:
000444: 37,2001     4703               R53FLBIT           =        BIT8
000445:
000446:                                                                                                  #  BIT 5 FLAG 0
000447: 37,2001                        F2RTE              =        010D                                  #  IN TIME CRITICAL      NOT IN TIME CRITICAL
000448:                                                                                                  #  MODE                  MODE
000449:
000450: 37,2001     4706               F2RTEBIT           =        BIT5
000451:
000452:                                                                                                  #  BIT 4 FLAG 0
000453: 37,2001                        TRUNFLAG           =        011D                                  #  DRIVING OF TRUNNION   DRIVING OF TRUNNION
000454:                                                                                                  #  ALLOWED               NOT ALLOWED
000455:
000456: 37,2001     4707               TRUNBIT            =        BIT4
000457:
000458:                                                                                                  #  BIT 3 FLAG 0
000459: 37,2001                        FREEFLAG           =        012D                                  #  (TEMPORARY FLAG USED IN MANY ROUTINES)
000460:
000461: 37,2001     4710               FREEFBIT           =        BIT3
000462:
000463:                                                                                                  #  BIT 2 FLAG 0
000464:                                                                                                  #                =       013D
000465:
000466:                                                                                                  #  BIT 1 FLAG 0
000467: 37,2001                        KFLAG              =        014D                                  #  SEARCH SECTOR MORE    SEARCH SECTOR LESS
000468:                                                                                                  #  THAN 180 DEGREES      THAN 180 DEGREES
000469:
000470: 37,2001     4712               KBIT               =        BIT1
000471:
000472: 37,2001     0075               FLAGWRD1           =        STATE      +1                         #  (015-029)
000473:                                                                                                  #  (SET)                 (RESET)
000474:
000475:                                                                                                  #  BIT 15 FLAG 1
000476: 37,2001                        NJETSFLG           =        015D                                  #  TWO JET RCS BURN      FOUR JET RCS BURN
000477:
000478: 37,2001     4674               NJETSBIT           =        BIT15
000479:
000480:                                                                                                  #  BIT 14 FLAG 1
000481: 37,2001                        STIKFLAG           =        016D                                  #  RHC CONTROL           CMC CONTROL


000483: 37,2001     4675               STIKBIT            =        BIT14
000484:
000485:                                                                                                  #  BIT 13 FLAG 1
000486: 37,2001                        ERADFLAG           =        017D                                  #  EARTH, COMPUTE        EARTH, USE FIXED
000487:                                                                                                  #    FISCHER ELLIPSOID     RADIUS
000488:                                                                                                  #    RADIUS
000489:                                                                                                  #  MOON, USE FIXED       MOON, USE RLS FOR
000490:                                                                                                  #    RADIUS                LUNAR RADIUS
000491:
000492: 37,2001     4676               ERADFBIT           =        BIT13
000493:
000494:                                                                                                  #  BIT 12 FLAG 1
000495:                                                                                                  #                =       018D
000496:
000497:                                                                                                  #  BIT 11 FLAG 1
000498: 37,2001                        ENG2FLAG           =        019D                                  #  RCS BURN              SPS BURN
000499:
000500: 37,2001     4700               ENG2BIT            =        BIT11
000501:
000502:                                                                                                  #  BIT 10 FLAG 1
000503: 37,2001                        TARG1FLG           =        020D                                  #  SIGHTING LEM          NOT SIGHTING LEM
000504:
000505: 37,2001     4701               TARG1BIT           =        BIT10
000506:
000507:                                                                                                  #  BIT 9 FLAG 1
000508: 37,2001                        TARG2FLG           =        021D                                  #  SIGHTING LANDMARK     SIGHTING STAR
000509:
000510: 37,2001     4702               TARG2BIT           =        BIT9
000511:
000512:                                                                                                  #  BIT 9 FLAG 1
000513: 37,2001                        R23FLG             =        021D                                  #  R23 MARKING           R21 MARKING
000514:
000515: 37,2001     4702               R23BIT             =        BIT9
000516:
000517:                                                                                                  #  BIT 8 FLAG 1
000518: 37,2001                        VEHUPFLG           =        022D                                  #  CSM STATE VECTOR      LEM STATE VECTOR
000519:                                                                                                  #  BEING UPDATED         BEING UPDATED
000520:
000521: 37,2001     4703               VEHUPBIT           =        BIT8
000522:
000523:                                                                                                  #  BIT 7 FLAG 1
000524: 37,2001                        UPDATFLG           =        023D                                  #  UPDATING BY MARKS     UPDATING BY MARKS
000525:                                                                                                  #  ALLOWED               NOT ALLOWED
000526:
000527: 37,2001     4704               UPDATBIT           =        BIT7
000528:
000529:                                                                                                  #  BIT 6 FLAG 1


000531: 37,2001                        IDLEFAIL           =        024D                                  #  INHIBIT R41           ENABLE R41 (ENGFAIL)
000532:
000533: 37,2001     4705               IDLEBIT            =        BIT6
000534:
000535:                                                                                                  #  BIT 5 FLAG 1
000536: 37,2001                        TRACKFLG           =        025D                                  #  TRACKING ALLOWED      TRACKING NOT ALLOWED
000537:
000538: 37,2001     4706               TRACKBIT           =        BIT5
000539:
000540:                                                                                                  #  BIT 4 FLAG 1
000541: 37,2001                        TRM03FLG           =        026D                                  #  REQUEST TO            NO REQUEST TO
000542:                                                                                                  #  TERMINATE P03 HAS     TERMINATE P03 HAS
000543:                                                                                                  #  BEEN ENTERED          BEEN ENTERED
000544:
000545: 37,2001     4707               TRM03BIT           =        BIT4
000546:
000547:                                                                                                  #  BIT 3 FLAG 1
000548: 37,2001                        SLOPESW            =        027D                                  #  ITERATE WITH BIAS     ITERATE WITH REGULA
000549:                                                                                                  #  METHOD IN ITERATOR    FALSI METHOD IN
000550:                                                                                                  #                        ITERATOR
000551:
000552: 37,2001     4710               SLOPEBIT           =        BIT3
000553:
000554:                                                                                                  #  BIT 2 FLAG 1
000555: 37,2001                        GUESSW             =        028D                                  #  NO STARTING VALUE     STARTING VALUE FOR
000556:                                                                                                  #  FOR ITERATION         ITERATION EXISTS
000557:
000558: 37,2001     4711               GUESSBIT           =        BIT2
000559:
000560:                                                                                                  #  BIT 1 FLAG 1
000561: 37,2001                        AVEGFLAG           =        029D                                  #  AVERAGEG (SERVICER)   AVERAGEG (SERVICER)
000562:                                                                                                  #  TO CONTINUE           TO CEASE
000563:
000564: 37,2001     4712               AVEGBIT            =        BIT1
000565:
000566: 37,2001     0076               FLAGWRD2           =        STATE      +2                         #  (030-044)
000567:
000568:                                                                                                  #  (SET)                 (RESET)
000569:
000570:                                                                                                  #  BIT 15 FLAG 2
000571: 37,2001                        DRIFTFLG           =        030D                                  #  T3RUPT CALLS GYRO     T3RUPT DOES NO GYRO
000572:                                                                                                  #  COMPENSATION          COMPENSATION
000573:
000574: 37,2001     4674               DRFTBIT            =        BIT15
000575:
000576:                                                                                                  #  BIT 14 FLAG 2
000577: 37,2001                        R21MARK            =        031D                                  #  OPTION ONE FOR        OPTION TWO FOR
000578:                                                                                                  #  MARKRUPT              MARKRUPT
000579:
000580: 37,2001     4675               R21BIT             =        BIT14
000581:


000583:                                                                                                  #  BIT 13 FLAG 2
000584: 37,2001                        22DSPFLG           =        032D                                  #  DISPLAY DR,DV         DO NOT DISPLAY DR,DV
000585:
000586: 37,2001     4676               22DSPBIT           =        BIT13
000587:
000588:                                                                                                  #  BIT 12 FLAG 2
000589:                                                                                                  #                =       033D
000590:
000591:                                                                                                  #  BIT 11 FLAG 2
000592: 37,2001                        STEERSW            =        034D                                  #  STEERING TO BE DONE   STEERING OMITTED
000593:
000594: 37,2001     4700               STEERBIT           =        BIT11
000595:
000596:                                                                                                  #  BIT 10 FLAG 2
000597: 37,2001                        CYCLESW            =        035D                                  #  VG CALCULATION TO     VG CALCULATION
000598:                                                                                                  #  BE DONE               OMITTED
000599:
000600: 37,2001     4701               CYCLEBIT           =        BIT10
000601:
000602:                                                                                                  #  BIT 9 FLAG 2
000603: 37,2001                        IMPULSW            =        036D                                  #  MINIMUM IMPULSE       STEERING BURN (NO
000604:                                                                                                  #  BURN (CUTOFF TIME     CUTOFF TIME YET
000605:                                                                                                  #  SPECIFIED)            AVAILABLE)
000606:
000607: 37,2001     4702               IMPULBIT           =        BIT9
000608:
000609:                                                                                                  #  BIT 8 FLAG 2
000610: 37,2001                        XDELVFLG           =        037D                                  #  EXTERNAL DELTAV VG    LAMBERT (AIMPOINT)
000611:                                                                                                  #  COMPUTATION           VG COMPUTATION
000612:
000613: 37,2001     4703               XDELVBIT           =        BIT8
000614:
000615:                                                                                                  #  BIT 7 FLAG 2
000616: 37,2001                        ETPIFLAG           =        038D                                  #  ELEVATION ANGLE       TPI TIME SUPPLIED
000617:                                                                                                  #  SUPPLIED FOR P34,74   FOR P34,74
000618:
000619:                                                                                                  #  BIT 7 FLAG 2
000620: 37,2001  0000046               FIRSTFLG           =        ETPIFLAG                              #  SUCCEEDING PASS       FIRST PASS THRU
000621:                                                                                                  #  THRU S40.9            S40.9
000622:
000623: 37,2001     4704               FIRSTBIT           =        BIT7
000624:
000625:                                                                                                  #  BIT 7 FLAG 2
000626: 37,2001  0000046               OPTNSW             =        ETPIFLAG                              #  SOI PHASE P38/P78     SOR PHASE OF P38/P78
000627:
000628: 37,2001     4705               FINALBIT           =        BIT6
000629:
000630:                                                                                                  #  BIT 6 FLAG 2


000632: 37,2001                        FINALFLG           =        039D                                  #  LSAT PASS THROUGH     INTERIM PASS THROUGH
000633:                                                                                                  #  RENDEZVOUS PROGRAM    RENDEZVOUS PROGRAM
000634:                                                                                                  #  COMPUTATIONS          COMPUTATIONS
000635:
000636: 37,2001     4706               AVFLBIT            =        BIT5
000637:
000638:                                                                                                  #  BIT 5 FLAG 2
000639: 37,2001                        AVFLAG             =        040D                                  #  LEM IS ACTIVE         CSM IS ACTIVE
000640:                                                                                                  #  VEHICLE               VEHICLE
000641:
000642:                                                                                                  #  BIT 4 FLAG 2
000643: 37,2001                        PFRATFLG           =        041D                                  #  PREFERRED ATTITUDE    PREFERRED ATTITUDE
000644:                                                                                                  #  COMPUTED              NOT COMPUTED
000645:
000646: 37,2001     4707               PFRATBIT           =        BIT4
000647:
000648:                                                                                                  #  BIT 3 FLAG 2
000649: 37,2001                        CALCMAN3           =        042D                                  #  NO FINAL ROLL         FINAL ROLL IS
000650:                                                                                                  #                        NECESSARY
000651:
000652: 37,2001     4710               CALC3BIT           =        BIT3
000653:
000654:                                                                                                  #  BIT 2 FLAG 2
000655: 37,2001                        CALCMAN2           =        043D                                  #  PERFORM MANEUVER      BYPASS STARTING
000656:                                                                                                  #  STARTING PROCEDURE    PROCEDURE
000657:
000658: 37,2001     4711               CALC2BIT           =        BIT2
000659:
000660:                                                                                                  #  BIT 1 FLAG 2
000661: 37,2001                        NODOFLAG           =        044D                                  #  V37 NOT PERMITTED     V37 PERMITTED
000662:
000663: 37,2001     4712               NODOBIT            =        BIT1
000664:
000665: 37,2001     0077               FLAGWRD3           =        STATE      +3                         #  (045-059)
000666:                                                                                                  #  (SET)                 (RESET)
000667:
000668:                                                                                                  #  BIT 15 FLAG 3
000669:                                                                                                  #                =       045D
000670:
000671:                                                                                                  #  BIT 14 FLAG 3
000672: 37,2001                        GLOKFAIL           =        046D                                  #  GIMBAL LOCK HAS       NOT IN GIMBAL LOCK
000673:                                                                                                  #  OCCURED
000674:
000675: 37,2001     4675               GLOKFBIT           =        BIT14
000676:
000677:                                                                                                  #  BIT 13 FLAG 3
000678: 37,2001                        REFSMFLG           =        047D                                  #  REFSMMAT GOOD         REFSMMAT NO GOOD


000680: 37,2001     4676               REFSMBIT           =        BIT13
000681:
000682:                                                                                                  #  BIT 12 FLAG 3
000683: 37,2001                        LUNAFLAG           =        048D                                  #  LUNAR LAT-LONG        EARTH LAT-LONG
000684:
000685: 37,2001     4677               LUNABIT            =        BIT12
000686:
000687:                                                                                                  #  BIT 11 FLAG 3
000688: 37,2001                        P22MKFLG           =        049D                                  #  P22 DOWNLINKED MARK   P22 DOWLINK MARK
000689:                                                                                                  #  DATA WAS JUST TAKEN   DATA NOT JUST TAKEN
000690:
000691: 37,2001     4700               P22MKBIT           =        BIT11
000692:
000693:                                                                                                  #  BIT 10 FLAG 3
000694: 37,2001                        VFLAG              =        050D                                  #  LESS THAN TWO STARS   TWO STARS IN FIELD
000695:                                                                                                  #  IN FIELD OF VIEW      OF VIEW
000696:
000697: 37,2001     4701               VFLAGBIT           =        BIT10
000698:
000699:                                                                                                  #  BIT 9 FLAG 3
000700:                                                                                                  #                =       051D
000701:
000702:                                                                                                  #  BIT 8 FLAG 3
000703: 37,2001                        PRECIFLG           =        052D                                  #  CSMPREC OR LEMPREC    INTEGRV OR INTEGRVS
000704:                                                                                                  #  CALLED                CALLED
000705:
000706: 37,2001     4703               PRECIBIT           =        BIT8
000707:
000708:                                                                                                  #  BIT 7 FLAG 3
000709: 37,2001                        CULTFLAG           =        053D                                  #  STAR OCCULTED         STAR NOT OCCULTED
000710:
000711: 37,2001     4704               CULTBIT            =        BIT7
000712:
000713:                                                                                                  #  BIT 6 FLAG 3
000714: 37,2001                        ORBWFLAG           =        054D                                  #  W MATRIX VALID FOR    W MATRIX INVALID FOR
000715:                                                                                                  #  ORBITAL N1VIGATION    ORBITAL NAVIGATION
000716:
000717: 37,2001     4705               ORBWFBIT           =        BIT6
000718:
000719:                                                                                                  #  BIT 5 FLAG 3
000720: 37,2001                        STATEFLG           =        055D                                  #  PERMANENT STATE       PERMANENT STATE
000721:                                                                                                  #  VECTOR UPDATED        VECTOR NOT UPDATED
000722:
000723: 37,2001     4706               STATEBIT           =        BIT5
000724:
000725:                                                                                                  #  BIT 4 FLAG 3
000726: 37,2001                        INTYPFLG           =        056D                                  #  CONIC INTEGRATION     ENCKE INTEGRATION
000727:
000728: 37,2001     4707               INTYBIT            =        BIT4
000729:


000731:                                                                                                  #  BIT 3 FLAG 3
000732: 37,2001                        VINTFLAG           =        057D                                  #  CSM STATE VECTOR      LEM STATE VECTOR
000733:                                                                                                  #  BEING INTEGRATED      BEING INTEGRATED
000734:
000735: 37,2001     4710               VINTFBIT           =        BIT3
000736:
000737:                                                                                                  #  BIT 2 FLAG 3
000738: 37,2001                        D6OR9FLG           =        058D                                  #  DIMENSION OF W IS 9   DIMENSION OF W IS 6
000739:                                                                                                  #  FOR INTEGRATION       FOR INTEGRATION
000740:
000741: 37,2001     4711               D6OR9BIT           =        BIT2
000742:
000743:                                                                                                  #  BIT 1 FLAG 3
000744: 37,2001                        DIM0FLAG           =        059D                                  #  W MATRIX IS TO BE     W MATRIX IS NOT TO
000745:                                                                                                  #  USED                  BE USED
000746:
000747: 37,2001     0100               FLAGWRD4           =        STATE      +4                         #  (060-074)
000748:                                                                                                  #  (SET)                 (RESET)
000749:
000750: 37,2001     4712               DIM0BIT            =        BIT1
000751:
000752:                                                                                                  #  BIT 15 FLAG 4
000753: 37,2001                        MRKIDFLG           =        060D                                  #  MARK DISPLAY IN       NO MARK DISPLAY IN
000754:                                                                                                  #  ENDIDLE               ENDIDLE
000755:
000756: 37,2001     4674               MRKIDBIT           =        BIT15
000757:
000758:                                                                                                  #  BIT 14 FLAG 4
000759: 37,2001                        PRIODFLG           =        061D                                  #  PRIORITY DISPLAY IN   NO PRIORITY DISPLAY
000760:                                                                                                  #  ENDIDLE               IN ENDIDLE
000761:
000762: 37,2001     4675               PRIODBIT           =        BIT14
000763:
000764:                                                                                                  #  BIT 13 FLAG 4
000765: 37,2001                        NRMIDFLG           =        062D                                  #  NORMAL DISPLAY IN     NO NORMAL DISPLAY
000766:                                                                                                  #  ENDIDLE               IN ENDIDLE
000767:
000768: 37,2001     4676               NRMIDBIT           =        BIT13
000769:
000770:                                                                                                  #  BIT 12 FLAG 4
000771: 37,2001                        PDSPFLAG           =        063D                                  #  CAN'T INTERRUPT       SEE M. HAMILTON
000772:                                                                                                  #  PRIORITY DISPLAY
000773:
000774: 37,2001     4677               PDSPFBIT           =        BIT12
000775:
000776:                                                                                                  #  BIT 11 FLAG 4
000777: 37,2001                        MWAITFLG           =        064D                                  #  HIGHER PRIORITY       NO HIGHER PRIORITY
000778:                                                                                                  #  DISPLAY OPERATING     DISPLAY OPERATING
000779:                                                                                                  #  WHEN MARK DISPLAY     WHEN MARK DISPLAY


000781:                                                                                                  #  INITIATED             INITIATED
000782:
000783: 37,2001     4700               MWAITBIT           =        BIT11
000784:
000785:                                                                                                  #  BIT 10 FLAG 4
000786: 37,2001                        NWAITFLG           =        065D                                  #  HIGHER PRIORITY       NO HIGHER PRIORITY
000787:                                                                                                  #  DISPLAY OPERATING     DISPLAY OPERATING
000788:                                                                                                  #  WHEN NORMAL           WHEN NORMAL DISPLAY
000789:                                                                                                  #  DISPLAY INITIATED     INITIATED
000790:
000791: 37,2001     4701               NWAITBIT           =        BIT10
000792:
000793:                                                                                                  #  BIT 9 FLAG 4
000794: 37,2001                        MRKNVFLG           =        066D                                  #  ASTRONAUT USING       ASTRONAUT NOT USING
000795:                                                                                                  #  KEYBOARD WHEN MARK    KEYBOARD WHEN MARK
000796:                                                                                                  #  DISPLAY INITIATED     DISPLAY INITIATED
000797:
000798: 37,2001     4702               MRKNVBIT           =        BIT9
000799:
000800:                                                                                                  #  BIT 8 FLAG 4
000801: 37,2001                        NRMNVFLG           =        067D                                  #  ASTRONAUT USING       ASTRONAUT NOT USING
000802:                                                                                                  #  KEYBOARD WHEN         KEYBOARD WHEN
000803:                                                                                                  #  NORMAL DISPLAY        NORMAL DISPLAY
000804:                                                                                                  #  INITIATED             INITIATED
000805:
000806: 37,2001     4703               NRMNVBIT           =        BIT8
000807:
000808:                                                                                                  #  BIT 7 FLAG 4
000809: 37,2001                        PRONVFLG           =        068D                                  #  ASTRONAUT USING       ASTRONAUT NOT USING
000810:                                                                                                  #  KEYBOARD WHEN         KEYBOARD WHEN
000811:                                                                                                  #  PRIORITY DISPLAY      PRIORITY DISPLAY
000812:                                                                                                  #  INITIATED             INITIATED
000813:
000814: 37,2001     4704               PRONVBIT           =        BIT7
000815:
000816:                                                                                                  #  BIT 6 FLAG 4
000817: 37,2001                        PINBRFLG           =        069D                                  #  ASTRONAUT HAS         ASTRONAUT HAS NOT
000818:                                                                                                  #  INTERFERED WITH       INTERFERED WITH
000819:                                                                                                  #  EXISTING DISPLAY      EXISTING DISPLAY
000820:
000821: 37,2001     4705               PINBRBIT           =        BIT6
000822:
000823:                                                                                                  #  BIT 5 FLAG 4
000824: 37,2001                        MRUPTFLG           =        070D                                  #  MARK DISPLAY          MARK DISPLAY NOT
000825:                                                                                                  #  INTERRUPTED BY        INTERRUPTED BY
000826:                                                                                                  #  PRIORITY DISPLAY      PRIORITY DISPLAY
000827:
000828: 37,2001     4706               MRUPTBIT           =        BIT5
000829:
000830:                                                                                                  #  BIT 4 FLAG 4


000832: 37,2001                        NRUPTFLG           =        071D                                  #  NORMAL DISPLAY        NORMAL DISPLAY NOT
000833:                                                                                                  #  INTERRUPTED BY        INTERRUPTED BY
000834:                                                                                                  #  PRIORITY OR MARK      PRIORITY OR MARK
000835:                                                                                                  #  DISPLAY               DISPLAY
000836:
000837: 37,2001     4707               NRUPTBIT           =        BIT4
000838:
000839:                                                                                                  #  BIT 3 FLAG 4
000840: 37,2001                        MKOVFLAG           =        072D                                  #  MARK DISPLAY OVER     NO MARK DISPLAY OVER
000841:                                                                                                  #  NORMAL                NORMAL
000842:
000843: 37,2001     4710               MKOVBIT            =        BIT3
000844:
000845:                                                                                                  #  BIT 2 FLAG 4                          DISPLAY BIT
000846:                                                                                                  #                =       073D            CLEARED AT INTERVALS
000847:
000848:                                                                                                  #  BIT 1 FLAG 4                            MARK DISPLAY NOT TO   NO SPECIAL MARK
000849: 37,2001                        XDSPFLAG           =        074D                                  #  BE INTERRUPTED        INFORMATION.
000850:
000851: 37,2001     4712               XDSPBIT            =        BIT1
000852:
000853: 37,2001     0101               FLAGWRD5           =        STATE      +5                         #  (075-099)
000854:                                                                                                  #  (SET)                 (RESET)
000855:
000856:                                                                                                  #  BIT 15 FLAG 5
000857: 37,2001                        DSKYFLAG           =        075D                                  #  DISPLAYS SENT TO      NO DISPLAYS TO DSKY
000858:                                                                                                  #  DSKY
000859:
000860: 37,2001     4674               DSKYBIT            =        BIT15
000861:
000862:                                                                                                  #  BIT 14 FLAG 5
000863:                                                                                                  #                =       76D
000864:
000865:                                                                                                  #  BIT 13 FLAG 5
000866:                                                                                                  #                =       77D
000867:
000868:                                                                                                  #  BIT 12 FLAG 5
000869: 37,2001                        V59FLAG            =        078D                                  #  CALIBRATING FOR       NORMAL MARKING FOR
000870:                                                                                                  #  P23                   P23
000871:
000872: 37,2001     4677               V59FLBIT           =        BIT12
000873:
000874:                                                                                                  #  BIT 11 FLAG 5
000875: 37,2001                        INCORFLG           =        079D                                  #  FIRST INCORPORATION   SECOND INCORPORATION
000876:
000877: 37,2001     4700               INCORBIT           =        BIT11
000878:


000880:                                                                                                  #  BIT 10 FLAG 5
000881: 37,2001                        RNGSCFLG           =        080D                                  #  ANOTHER TAG FOR PRFTKAT
000882:
000883:                                                                                                  #  BIT 10 FLAG 5
000884: 37,2001  0000120               PRFTRKAT           =        RNGSCFLG                              #  PREF TRACK ATT        +X AXIS TRACK ATT
000885:
000886: 37,2001     4701               PRFTRBIT           =        BIT10
000887:
000888:                                                                                                  #  BIT 9 FLAG 5
000889: 37,2001                        DMENFLG            =        081D                                  #  DIMENSION OF W IS 9   DIMENSION OF W IS 6
000890:                                                                                                  #  FOR INCORPORATION     FOR INCORPORATION
000891:
000892: 37,2001     4702               DMENFBIT           =        BIT9
000893:
000894:                                                                                                  #  BIT 8 FLAG 5
000895: 37,2001                        COMPUTER           =        082D                                  #  COMPUTER IS CMC       COMPUTER IS LGC
000896:
000897: 37,2001     4703               COMPTBIT           =        BIT8
000898:
000899:                                                                                                  #  BIT 7 FLAG 5
000900: 37,2001                        ENGONFLG           =        083D                                  #  ENGINE TURNED ON      ENGINE TURNED OFF
000901:
000902: 37,2001     4704               ENGONBIT           =        BIT7
000903:
000904:                                                                                                  #  BIT 6 FLAG 5
000905: 37,2001                        3AXISFLG           =        084D                                  #  MANEUVER SPECIFIED    MANEUVER SPECIFIED
000906:                                                                                                  #  BY THREE AXES         BY ONE AXIS
000907:
000908: 37,2001     4705               3AXISBIT           =        BIT6
000909:
000910:                                                                                                  #  BIT 5 FLAG 5
000911: 37,2001                        GRRBKFLG           =        085D                                  #  BACKUP GRR RECEIVED   BACKUP GRR NOT
000912:                                                                                                  #                        RECEIVED
000913:
000914: 37,2001     4706               GRRBKBIT           =        BIT5
000915:
000916:                                                                                                  #  BIT 4 FLAG 5
000917: 37,2001                        R60FLAG            =        086D                                  #  R61 MUST USE R60      NORMAL R61
000918:
000919: 37,2001     4707               R60FLBIT           =        BIT4
000920:
000921:                                                                                                  #  BIT 3 FLAG 5
000922: 37,2001                        SOLNSW             =        087D                                  #  LAMBERT DOES NOT      LAMBERT CONVERGES OR
000923:                                                                                                  #  CONVERGE, OR TIME-    TIME-RADIUS NON
000924:                                                                                                  #  RADIUS NEARLY CIRC.   CIRCULAR.


000926: 37,2001     4710               SOLNSBIT           =        BIT3
000927:
000928:                                                                                                  #  BIT 2 FLAG 5
000929: 37,2001                        MGLVFLAG           =        088D                                  #  LOCAL VERTICAL        MIDDLE GIMBAL ANGLE
000930:                                                                                                  #  COORDINATES           COMPUTED
000931:                                                                                                  #  COMPUTED
000932:
000933: 37,2001     4711               MGLVFBIT           =        BIT2
000934:
000935:                                                                                                  #  BIT 1 FLAG 5
000936: 37,2001                        RENDWFLG           =        089D                                  #  W MATRIX VALID        W MATRIX INVALID
000937:                                                                                                  #  FOR RENDEZVOUS        FOR RENDEZVOUS
000938:                                                                                                  #  NAVIGATION            NAVIGATION
000939:
000940: 37,2001     4712               RENDWBIT           =        BIT1
000941:
000942: 37,2001     0102               FLAGWRD6           =        STATE      +6                         #  (090-104)
000943:                                                                                                  #  (SET)                 (RESET)
000944:
000945:                                                                                                  #  BIT 15 FLAG 6
000946: 37,2001                        DAPBIT1            =        090D                                  #  1 SATURN 1 TVC        0 RCS   0 NO
000947:
000948: 37,2001     4674               DAP1BIT            =        BIT15
000949:
000950:                                                                                                  #  BIT 14 FLAG 6
000951: 37,2001                        DAPBIT2            =        091D                                  #  1 A/P    0 A/P        1 A/P   0 A/P
000952:
000953: 37,2001     4675               DAP2BIT            =        BIT14
000954:
000955:                                                                                                  #  BIT 13 FLAG 6
000956: 37,2001                        STRULLSW           =        092D                                  #  DO STEERULL           DO ULAGEOFF ONLY
000957:
000958: 37,2001     4676               STRULBIT           =        BIT13
000959:
000960:                                                                                                  #  BIT 13 FLAG 6
000961: 37,2001  0000134               ENTRYDSP           =        STRULLSW                              #  DO ENTRY DISPLAY      OMIT ENTRY DISPLAY
000962:                                                                                                  #  VIA ENTRYVN.
000963:
000964: 37,2001     4676               ENDSPBIT           =        BIT13
000965:
000966:                                                                                                  #  BIT 12 FLAG 6
000967: 37,2001                        CMDAPARM           =        093D                                  #  ALOW ENTRY FIRINGS    INHIBIT ENTRY FIRING
000968:                                                                                                  #  AND CALCULATIONS      AND CONTROL FUNCTION
000969:
000970: 37,2001     4677               CMDARMBIT           =        BIT12
000971:
000972:                                                                                                  #  BIT 11 FLAG 6
000973: 37,2001                        GAMDIFSW           =        094D                                  #  CALCULATE GAMDOT      GAMDOT NOT TO BE


000975:                                                                                                  #                        CALCULATED
000976:
000977: 37,2001     4700               GMDIFBIT           =        BIT11
000978:
000979:                                                                                                  #  BIT 10 FLAG 6
000980: 37,2001                        GMBDRVSW           =        095D                                  #  TRIMGIMB OVER         TRIMGIMB NOT OVER
000981:
000982: 37,2001     4701               GMBDRBIT           =        BIT10
000983:
000984:                                                                                                  #  BIT 10 FLAG 6
000985: 37,2001  0000137               GONEPAST           =        GMBDRVSW                              #  LATERAL CONTROL       LATERAL CONTROL
000986:                                                                                                  #  CALCULATIONS TO BE    CALCULATIONS TO BE
000987:                                                                                                  #  OMITTED               DONE
000988:
000989: 37,2001     4701               GONEBIT            =        BIT10
000990:
000991:                                                                                                  #  BIT 9 FLAG 6
000992: 37,2001                        RELVELSW           =        096D                                  #  TARGETING USES        TARGETING USES
000993:                                                                                                  #  EARTH-RELATIVE        INERTIAL VELOCITY
000994:                                                                                                  #  VELOCITY
000995:
000996: 37,2001     4702               RELVBIT            =        BIT9
000997:
000998:                                                                                                  #  BIT 8 FLAG 6
000999: 37,2001                        EGSW               =        097D                                  #  IN FINAL PHASE        NOT IN FINAL PHASE
001000:
001001: 37,2001     4703               EGFLGBIT           =        BIT8
001002:
001003:                                                                                                  #  BIT 8 FLAG 6
001004: 37,2001  0000141               KNOWNFLG           =        EGSW                                  #  LANDMARK KNOWN        LANDMARK UNKNOWN
001005:
001006: 37,2001     4703               KNOWNBIT           =        BIT8
001007:
001008:                                                                                                  #  BIT 8 FLAG 6
001009: 37,2001  0000141               R57FLAG            =        KNOWNFLG                              #  DO NOT DO R57         DO R57, TRUNION
001010:                                                                                                  #  TRUNION BIAS HAS      BIAS NEEDED
001011:                                                                                                  #  BEEN OBTAINED.
001012:
001013: 37,2001     4703               R57BIT             =        BIT8
001014:
001015:                                                                                                  #  BIT 7 FLAG 6
001016: 37,2001                        NOSWITCH           =        098D                                  #  LATERAL ROLL          LATERAL ROLL MANUVER
001017:                                                                                                  #  MANUVER INHIBITED     PERMITED IN ENTRY
001018:                                                                                                  #  IN ENTRY
001019:
001020: 37,2001     4704               NOSWBIT            =        BIT7
001021:
001022:                                                                                                  #  BIT 6 FLAG 6
001023: 37,2001                        HIND               =        099D                                  #  ITERATING HUNTEST     ITERATING OF HUNTEST
001024:                                                                                                  #  CALCULATIONS TO BE    CALCULATIONS TO BE
001025:                                                                                                  #  DONE AFTER RANGE      OMITTED AFTER RANGE


001027:                                                                                                  #  PREDICTION            PREDICTION
001028:
001029: 37,2001     4705               HINDBIT            =        BIT6
001030:
001031:                                                                                                  #  BIT 5 FLAG 6
001032: 37,2001                        INRLSW             =        100D                                  #  INITIAL ROLL          INITIAL ROLL
001033:                                                                                                  #  V(LV)                 V(LV)
001034:
001035: 37,2001     4706               INRLBIT            =        BIT5
001036:
001037:                                                                                                  #  ATTITUDE NOT HELD     ATTITUDE HELD
001038:
001039:                                                                                                  #  BIT 4 FLAG 6
001040: 37,2001                        LATSW              =        101D                                  #  DOWNLIFT NOT          DOWNLIFT INHIBITED
001041:                                                                                                  #  INHIBITED
001042:
001043: 37,2001     4707               LATSWBIT           =        BIT4
001044:
001045:                                                                                                  #  BIT 3 FLAG 6
001046: 37,2001                        .05GSW             =        102D                                  #  DRAG OVER .05G        DRAG LESS THAN .05G
001047:
001048: 37,2001     4710               .05GBIT            =        BIT3
001049:
001050:                                                                                                  #  BIT 3 FLAG 6
001051: 37,2001                        NTARGFLG           =        102D                                  #  ASTRONAUT DID         ASTRONAUT DID NOT
001052:                                                                                                  #  OVERWRITE DELTA       OVERWRITE DELTA
001053:
001054: 37,2001     4710               NTARGBIT           =        BIT3
001055:
001056:                                                                                                  #  BIT 2 FLAG 6
001057: 37,2001                        CM/DSTBY           =        103D                                  #  ENTRY DAP ACTIVATED   ENTRY DAP NOT
001058:                                                                                                  #                        ACTIVATED
001059:
001060: 37,2001     4711               CM/DSBIT           =        BIT2
001061:
001062:                                                                                                  #  BIT 1 FLAG 6
001063: 37,2001                        GYMDIFSW           =        104D                                  #  CDU DIFFERENCES AND   CDU DIFFERENCES AND
001064:                                                                                                  #  BODY RATES COMPUTED   BODY RATES NOT
001065:                                                                                                  #                        COMPUTED
001066:
001067: 37,2001     4712               GYMDIBIT           =        BIT1
001068:
001069: 37,2001     0103               FLAGWRD7           =        STATE      +7                         #  (105-119)
001070:                                                                                                  #  (SET)                 (RESET)
001071:
001072:                                                                                                  #  BIT 15 FLAG 7
001073: 37,2001                        TERMIFLG           =        105D                                  #  TERMINATE R21,R22     DO NOT TERMINATE
001074:                                                                                                  #                        R21,R22
001075:
001076: 37,2001     4674               TERMIBIT           =        BIT15
001077:


001079:                                                                                                  #  BIT 14 FLAG 7
001080: 37,2001                        ITSWICH            =        106D                                  #  ACCEPT NEXT LAMBERT   TEST LAMBERT ANSWER
001081:                                                                                                  #  TPI SEARCH SOLUTION   AGAINST LIMITS
001082:
001083: 37,2001     4675               ITSWBIT            =        BIT14
001084:
001085:                                                                                                  #  BIT 13 FLAG 7
001086: 37,2001                        IGNFLAG            =        107D                                  #  TIG HAS ARRIVED       TIG HAS NOT ARRIVED
001087:
001088: 37,2001     4676               IGNFLBIT           =        BIT13
001089:
001090:                                                                                                  #  BIT 12 FLAG 7
001091: 37,2001                        ASTNFLAG           =        108D                                  #  ASTRONAUT HAS         ASTRONAUT HAS NOT
001092:                                                                                                  #  OKAYED IGNITION       OKAYED IGNITION
001093:
001094: 37,2001     4677               ASTNBIT            =        BIT12
001095:
001096:                                                                                                  #  BIT 11 FLAG 7
001097: 37,2001                        TIMRFLAG           =        109D                                  #  CLOKTASK OPERATING    CLOKTASK INOPERATIVE
001098:
001099: 37,2001     4700               TIMRBIT            =        BIT11
001100:
001101:                                                                                                  #  BIT 10 FLAG 7
001102: 37,2001                        NORMSW             =        110D                                  #  UNIT NORMAL INPUT     LAMBERT COMPUTE ITS
001103:                                                                                                  #  TO LAMBERT.           OWN UNIT NORMAL.
001104:
001105: 37,2001     4701               NORMSBIT           =        BIT10
001106:
001107:                                                                                                  #  BIT 9 FLAG 7
001108: 37,2001                        RVSW               =        111D                                  #  DO NOT COMPUTE FINAL  COMPUTE FINAL STATE
001109:                                                                                                  #  STATE VECTOR IN       VECTOR IN TIME-THETA
001110:                                                                                                  #  TIME-THETA.
001111:
001112: 37,2001     4702               RVSWBIT            =        BIT9
001113:
001114:                                                                                                  #  BIT 8 FLAG 7
001115: 37,2001                        GONEBY             =        112D                                  #  PASSED TARGET         APPROACHING TARGET
001116:
001117: 37,2001     4703               GONBYBIT           =        BIT8
001118:
001119:                                                                                                  #  BIT 7 FLAG 7
001120: 37,2001                        IDLEFLAG           =        113D                                  #  NO DV MONITOR         CONNECT DV MONITOR
001121:
001122: 37,2001     4704               IDLEFBIT           =        BIT7
001123:
001124:                                                                                                  #  BIT 6 FLAG 7
001125: 37,2001                        V37FLAG            =        114D                                  #  AVERAGEG (SERVICER)   AVERAGEG (SERVICER)
001126:                                                                                                  #  RUNNING               OFF


001128: 37,2001     4705               V37FLBIT           =        BIT6
001129:
001130:                                                                                                  #  BIT 5 FLAG 7
001131:                                                                                                  #                =       115D
001132:                                                                                                  #                =       BIT5
001133:
001134:                                                                                                  #  BIT 4 FLAG 7
001135: 37,2001                        UPLOCKFL           =        116D                                  #  K-KBAR-K FAIL         NO K-KBAR-K FAIL
001136:
001137: 37,2001     4707               UPLOCBIT           =        BIT4
001138:
001139:                                                                                                  #  BIT 3 FLAG 7
001140: 37,2001                        VERIFLAG           =        117D                                  #  CHANGED WHEN V33E OCCURS AT END OF P27
001141:
001142: 37,2001     4710               VERIFBIT           =        BIT3
001143:
001144:                                                                                                  #  BIT 2 FLAG 7
001145: 37,2001                        ATTCHFLG           =        118D                                  #  LM,CM ATTACHED        LM,CM NOT ATTACHED
001146:
001147: 37,2001     4711               ATTCHBIT           =        BIT2
001148:
001149:                                                                                                  #  BIT 1 FLAG 7
001150: 37,2001                        TFFSW              =        119D                                  #  CALCULATE TPERIGEE    CALCULATE TFF
001151:
001152: 37,2001     4712               TFFSWBIT           =        BIT1
001153:
001154: 37,2001     0104               FLAGWRD8           =        STATE      +8                         #  (120-134)
001155:                                                                                                  #  (SET)                 (RESET)
001156:
001157:                                                                                                  #  BIT 15 FLAG 8
001158: 37,2001                        RPQFLAG            =        120D                                  #  RPQ NOT COMPUTED      RPQ COMPUTED
001159:
001160: 37,2001     4674               RPQFLBIT           =        BIT15
001161:
001162:                                                                                                  #  BIT 14 FLAG 8
001163:                                                                                                  #                =       121D
001164:
001165:                                                                                                  #  BIT 13 FLAG 8
001166: 37,2001                        NEWIFLG            =        122D                                  #  FIRST PASS THROUGH    SUCCEEDING ITERATION
001167:                                                                                                  #  INTEGRATION           OF INTEGRATION
001168:
001169: 37,2001     4676               NEWIBIT            =        BIT13
001170:
001171:                                                                                                  #  BIT 12 FLAG 8
001172: 37,2001                        CMOONFLG           =        123D                                  #  PERMANENT CSM STATE   PERMANENT CSM STATE
001173:                                                                                                  #  IN LUNAR SPHERE       IN EARTH SPHERE
001174:
001175: 37,2001     4677               CMOONBIT           =        BIT12
001176:


001178:                                                                                                  #  BIT 11 FLAG 8
001179: 37,2001                        LMOONFLG           =        124D                                  #  PERMANENT LM STATE    PERMANENT LM STATE
001180:                                                                                                  #  IN LUNAR SPHERE       IN EARTH SHPERE
001181:
001182: 37,2001     4700               LMOONBIT           =        BIT11
001183:
001184:                                                                                                  #  BIT 10 FLAG 8
001185: 37,2001                        ADVTRK             =        125D                                  #  ADVANCE GROUND TRACK  NOT ADVANCED
001186:                                                                                                  #  SIGHTING WANTED       GROUND TRACK
001187:
001188: 37,2001     4701               ADVTKBIT           =        BIT10
001189:
001190:                                                                                                  #  BIT 9 FLAG 8
001191: 37,2001                        P39/79SW           =        126D                                  #  P39/79 OPERATING      P38/78 OPERATING
001192:
001193: 37,2001     4702               P39SWBIT           =        BIT9
001194:
001195:                                                                                                  #  BIT 8 FLAG 8
001196: 37,2001                        SURFFLAG           =        127D                                  #  LM ON LUNAR SURFACE   LM NOT ON LUNAR
001197:                                                                                                  #                        SURFACE
001198:
001199: 37,2001     4703               SURFFBIT           =        BIT8
001200:
001201:                                                                                                  #  BIT 7 FLAG 8
001202: 37,2001                        INFINFLG           =        128D                                  #  NO CONIC SOLUTION     CONIC SOLUTION
001203:                                                                                                  #  (CLOSURE THROUGH      EXISTS.
001204:                                                                                                  #  INFINITY REQUIRED).
001205:
001206: 37,2001     4704               INFINBIT           =        BIT7
001207:
001208:                                                                                                  #  BIT 6 FLAG 8
001209: 37,2001                        ORDERSW            =        129D                                  #  ITERATOR USES 2ND     ITERATOR USES 1ST
001210:                                                                                                  #  ORDER MINIMUM MODE.   ORDER STANDARD MODE.
001211:
001212: 37,2001     4705               ORDERBIT           =        BIT6
001213:
001214:                                                                                                  #  BIT 5 FLAG 8
001215: 37,2001                        APSESW             =        130D                                  #  RDESIRED OUTSIDE      RDESIRED INSIDE
001216:                                                                                                  #  PERICENTER-APOCENTER  PERICENTER-APOCENTE
001217:                                                                                                  #  RANGE IN TIME-RAD     RANGE IN TIME-RADIUS
001218:
001219: 37,2001     4706               APSESBIT           =        BIT5
001220:
001221:                                                                                                  #  BIT 4 FLAG 8
001222: 37,2001                        COGAFLAG           =        131D                                  #  NO CONIC SOLUTION     CONIC SOLUTION
001223:                                                                                                  #  TOO CLOSE TO          EXISTS (COGA DOES
001224:                                                                                                  #  RECTILINEAR (COGA     NOT OVERFLOW).
001225:                                                                                                  #  OVERFLOWS).


001227: 37,2001     4707               COGAFBIT           =        BIT4
001228:
001229:                                                                                                  #  BIT 3 FLAG 8
001230:                                                                                                  #                =       132D
001231:
001232:                                                                                                  #  BIT 2 FLAG 8
001233:                                                                                                  #                =       133D
001234:
001235:                                                                                                  #  BIT 1 FLAG 8
001236: 37,2001                        360SW              =        134D                                  #  TRANSFER ANGLE NEAR   TRANSFER ANGLE NOT
001237:                                                                                                  #  360 DEGREES           NEAR 360 DEGREES
001238:
001239: 37,2001     4712               360SWBIT           =        BIT1
001240:
001241: 37,2001     0105               FLAGWRD9           =        STATE      +9D                        #  (135-149)
001242:                                                                                                  #  (SET)                 (RESET)
001243:
001244:                                                                                                  #  BIT 15 FLAG 9
001245: 37,2001                        SWTOVER            =        135D                                  #  SWITCHOVER HAS        NO SWITCHOVER YET
001246:                                                                                                  #  OCCURRED
001247:
001248: 37,2001     4674               SWTOVBIT           =        BIT15
001249:
001250:                                                                                                  #  BIT 14 FLAG 9
001251: 37,2001                        V67FLAG            =        136D                                  #  ASTRONAUT OVERWRITES  ASTRONAUT DOES NOT
001252:                                                                                                  #  W MATRIX INITIAL      OVERWRITE INITIAL
001253:                                                                                                  #  VALUES                VALUES
001254:
001255: 37,2001     4675               V67FLBIT           =        BIT14
001256:
001257:                                                                                                  #  BIT 13 FLAG 9
001258: 37,2001                        V82EMFLG           =        137D                                  #  MOON VICINITY         EARTH VICINITY
001259:
001260: 37,2001     4676               V82EMBIT           =        BIT13
001261:
001262:                                                                                                  #  BIT 12 FLAG 9
001263: 37,2001                        MAXDBFLG           =        138D                                  #  MAX DB SELECTED       MIN DB SELECTED
001264:
001265: 37,2001     4677               MAXDBBIT           =        BIT12
001266:
001267:                                                                                                  #  BIT 11 FLAG 9
001268: 37,2001                        V94FLAG            =        139D                                  #  V94 ALLOWED DURING    V94 NOT ALLOWED
001269:                                                                                                  #  P23
001270:
001271: 37,2001     4700               V94FLBIT           =        BIT11
001272:


001274:                                                                                                  #  BIT 10 FLAG 9
001275: 37,2001                        SAVECFLG           =        140D                                  #  P23 DISPLAY AND       P23 DISPLAY AND
001276:                                                                                                  #  DATA STORAGE AFTER    DATA STORAGE BEFORE
001277:                                                                                                  #  MARK IS DONE          MARK IS DONE
001278:
001279: 37,2001     4701               SAVECBIT           =        BIT10
001280:
001281:                                                                                                  #  BIT 9 FLAG 9
001282: 37,2001                        VHFRFLAG           =        141D                                  #  ALLOW R22 TO          STOP ACCEPTANCE
001283:                                                                                                  #  ACCEPT RANGE          OF RANGE DATA
001284:                                                                                                  #  DATA
001285:
001286: 37,2001     4702               VHFRBIT            =        BIT9
001287:
001288:                                                                                                  #  BIT 8 FLAG 9
001289: 37,2001                        SOURCFLG           =        142D                                  #  SOURCE OF INPUT       SOURCE OF INPUT
001290:                                                                                                  #  DATA IS FROM          DATA IS FROM
001291:                                                                                                  #  VHF RADAR             OPTICS MARK
001292:
001293: 37,2001     4703               SOURCBIT           =        BIT8
001294:
001295:                                                                                                  #  BIT 7 FLAG 9
001296: 37,2001                        R22CAFLG           =        143D                                  #  R-22 CALCULATIONS     R-22 CALCULATIONS
001297:                                                                                                  #  ARE GOING ON          ARE NOT GOING ON
001298:
001299: 37,2001     4704               R22CABIT           =        BIT7
001300:
001301:                                                                                                  #  BIT 6 FLAG 9
001302: 37,2001                        N22ORN17           =        144D                                  #  COMPUTE TOTAL         COMPUTE TOTAL
001303:                                                                                                  #  ATTITUDE ERRORS       ATTITUDE ERRORS
001304:                                                                                                  #  WRT N22 (V62)         WRT N17 (V63)
001305:
001306: 37,2001     4705               N2217BIT           =        BIT6
001307:
001308:                                                                                                  #  BIT 5 FLAG 9
001309: 37,2001                        QUITFLAG           =        145D
001310:
001311: 37,2001     4706               QUITBIT            =        BIT5
001312:
001313:                                                                                                  #  BIT 4 FLAG 9
001314: 37,2001                        R31FLAG            =        146D                                  #  R31 SELECTED (V83)    R34 SELECTED (V85)
001315:
001316: 37,2001     4707               R32FLBIT           =        BIT4
001317:
001318:                                                                                                  #  BIT 3 FLAG 9
001319: 37,2001                        MID1FLAG           =        147D                                  #  INTEGRATE TO TDEC     INTEGRATE TO THE
001320:                                                                                                  #                        THEN-PRESENT TIME
001321:
001322: 37,2001     4710               MID1FBIT           =        BIT3
001323:


001325:                                                                                                  #  BIT 2 FLAG 9
001326: 37,2001                        MIDAVFLG           =        148D                                  #  INTEGRATION ENTERED   INTEGRATION WAS
001327:                                                                                                  #  FROM ONE OF MIDTOAV   NOT ENTERED VIA
001328:                                                                                                  #  PORTALS               MIDTOAV
001329:
001330: 37,2001     4711               MIDAVBIT           =        BIT2
001331:
001332:                                                                                                  #  BIT 1 FLAG 9
001333: 37,2001                        AVEMIDSW           =        149D                                  #  AVETOMID CALLING      NO AVETOMID W INTEGR
001334:                                                                                                  #  FOR W.MATRIX INTEGR   ALLOW SET UP RN,VN,
001335:                                                                                                  #  DONT WRITE OVER RN,   PIPTIME
001336:                                                                                                  #  VN,PIPTIME
001337:
001338: 37,2001     4712               AVEMDBIT           =        BIT1
001339:
001340:                                                                                                  #  (SET)                 (RESET)
001341:
001342: 37,2001     0106               FLGWRD10           =        STATE      +10D                       #  (150-164)
001343:
001344: 37,2001     0106               RASFLAG            =        STATE      +10D
001345:
001346:                                                                                                  #  BIT 15 FLAG 10
001347:                                                                                                  #                =       150D
001348:
001349:                                                                                                  #  BIT 14 FLAG 10
001350: 37,2001                        INTFLAG            =        151D                                  #  INTEGRATION IN        INTEGRATION NOT IN
001351:                                                                                                  #  PROGRESS              PROGRESS
001352:
001353: 37,2001     4675               INTFLBIT           =        BIT14
001354:
001355:                                                                                                  #  BIT 13 FLAG 10
001356:                                                                                                  #                =       152D
001357:
001358:                                                                                                  #  BIT 12 FLAG 10
001359:                                                                                                  #                =       153D
001360:
001361:                                                                                                  #  BIT 11 FLAG 10
001362:                                                                                                  #                =       154D
001363:
001364:                                                                                                  #  BIT 10 FLAG 10
001365:                                                                                                  #                =       155D
001366:
001367:                                                                                                  #  BIT 9 FLAG 10
001368:                                                                                                  #                =       156D
001369:


001371:                                                                                                  #  BIT 8 FLAG 10
001372:                                                                                                  #                =       157D
001373:
001374:                                                                                                  #  BIT 7 FLAG 10
001375: 37,2001                        REINTFLG           =        158D                                  #  INTEGRATION ROUTINE   INTEGRATION ROUTINE
001376:                                                                                                  #  TO BE RESTARTED       NOT TO BE RESTARTED
001377: 37,2001     4704               REINTBIT           =        BIT7
001378:
001379:                                                                                                  #  BIT 6 FLAG 10
001380:                                                                                                  #                =       159D
001381:
001382:                                                                                                  #  BIT 5 FLAG 10
001383:                                                                                                  #                =       160D
001384:
001385:                                                                                                  #  BIT 4 FLAG 10
001386:                                                                                                  #                =       161D
001387:
001388:                                                                                                  #  BIT 3 FLAG 10
001389:                                                                                                  #                =       162D
001390:
001391:                                                                                                  #  BIT 2 FLAG 10
001392:                                                                                                  #                =       163D
001393:
001394:                                                                                                  #  BIT 1 FLAG 10
001395:                                                                                                  #                =       164D
001396:
001397: 37,2001     0107               FLGWRD11           =        STATE      +11D                       #  (165-179)
001398:                                                                                                  #  (SET)                 (RESET)
001399:
001400:                                                                                                  #  BIT 15 FLAG 11
001401:                                                                                                  #                =       165D
001402:
001403:                                                                                                  #  BIT 14 FLAG 11
001404:                                                                                                  #                =       166D
001405:
001406:                                                                                                  #  BIT 13 FLAG 11
001407:                                                                                                  #                =       167D
001408:


001410:                                                                                                  #  BIT 12 FLAG 11
001411:                                                                                                  #                =       168D
001412:
001413:                                                                                                  #  BIT 11 FLAG 11
001414:                                                                                                  #                =       169D
001415:
001416:                                                                                                  #  BIT 10 FLAG 11
001417:                                                                                                  #                =       170D
001418:
001419:                                                                                                  #  BIT 9 FLAG 11
001420:                                                                                                  #                =       171D
001421:
001422:                                                                                                  #  BIT 8 FLAG 11
001423:                                                                                                  #                =       172D
001424:
001425:                                                                                                  #  BIT 7 FLAG 11
001426:                                                                                                  #                =       173D
001427:
001428:                                                                                                  #  BIT 6 FLAG 11
001429:                                                                                                  #                =       174D
001430:
001431:                                                                                                  #  BIT 5 FLAG 11
001432:                                                                                                  #                =       175D
001433:
001434:                                                                                                  #  BIT 4 FLAG 11
001435:                                                                                                  #                =       176D
001436:
001437:                                                                                                  #  BIT 3 FLAG 11
001438:                                                                                                  #                =       177D
001439:
001440:                                                                                                  #  BIT 2 FLAG 11
001441:                                                                                                  #                =       178D
001442:
001443:                                                                                                  #  BIT 1 FLAG 11
001444:                                                                                                  #                =       179D
001445:
001446:


001448:                                                                                                  #  GENERAL ERASABLE ASSIGNMENTS.
001449:
001450:    0061                                           SETLOC   61
001451:                                                                                                  #  INTERRUPT TEMPORARY STORAGE POOL.     (11D)
001452:
001453:                                                                                                  #  (ITEMP1 THROUGH RUPTREG4)
001454:
001455:                                                                                                  #  ANY OF THESE MAY BE USED AS TEMPORARIES DURING INTERRUPT OR WITH INTERRUPT INHIBITED. THE ITEMP SERIES
001456:                                                                                                  #  IS USED DURING CALLS TO THE EXECUTIVE AND WAITLIST - THE RUPTREGS ARE NOT.
001457:
001458:    0061                        ITEMP1             ERASE
001459:    0062     0061               WAITEXIT           EQUALS   ITEMP1
001460:    0062     0061               EXECTEM1           EQUALS   ITEMP1
001461:
001462:    0062                        ITEMP2             ERASE
001463:    0063     0062               WAITBANK           EQUALS   ITEMP2
001464:    0063     0062               EXECTEM2           EQUALS   ITEMP2
001465:
001466:    0063                        ITEMP3             ERASE
001467:    0064     0063               RUPTSTOR           EQUALS   ITEMP3
001468:    0064     0063               WAITADR            EQUALS   ITEMP3
001469:    0064     0063               NEWPRIO            EQUALS   ITEMP3
001470:
001471:    0064                        ITEMP4             ERASE
001472:    0065     0064               LOCCTR             EQUALS   ITEMP4
001473:    0065     0064               WAITTEMP           EQUALS   ITEMP4
001474:
001475:    0065                        ITEMP5             ERASE
001476:    0066     0065               NEWLOC             EQUALS   ITEMP5
001477:
001478:    0066                        ITEMP6             ERASE
001479:                                                                                                  #  NEWLOC+1      EQUALS  ITEMP6          DP ADDRESS.
001480:
001481:    0067                                           SETLOC   67
001482:    0067                        NEWJOB             ERASE                                          #  MUST BE AT LOC 67 DUE TO WIRING.
001483:
001484:    0070                        RUPTREG1           ERASE
001485:    0071                        RUPTREG2           ERASE
001486:    0072                        RUPTREG3           ERASE
001487:    0073                        RUPTREG4           ERASE
001488:    0074     0073               KEYTEMP1           EQUALS   RUPTREG4
001489:    0074     0073               DSRUPTEM           EQUALS   RUPTREG4
001490:
001491:                                                                                                  #  FLAGWORD RESERVATIONS.                (12D)
001492:
001493:    0074                        STATE              ERASE    +11D
001494:
001495:    0110                        FLAGFILL           ERASE    +3                                    #  SPACE FOR FUTURE FLAGS
001496:


001498:                                                                                                  #  PAD LOAD FOR DAPS                     (1)
001499:    0114     0110               EMDOT              EQUALS   FLAGFILL                              #  I(1)PL (SPS FLOW RATE, SC AT B+3KG/CS)
001500:
001501:                                                                                                  #  EXIT FOR V83                          (1D)
001502:    0114     0112               STATEXIT           EQUALS   FLAGFILL   +2                         #  I(1) STQ ADDRESS FOR STATEXP
001503:
001504:                                                                                                  #  EXEC TEMPORARIES WHICH MAY BE USED BETWEEN CCS NEWJOBS.
001505:                                                                                                  #  (INTB15+ THROUGH RUPTMXM)             (32D)
001506:    0114                        INTB15+            ERASE                                          #  REFLECTS 15TH BIT OF INDEXABLE ADDRESSES
001507:    0115     0114               DSEXIT             EQUALS   INTB15+                               #  RETURN FOR DSPIN
001508:    0115     0114               EXITEM             EQUALS   INTB15+                               #  RETURN FOR SCALE FACTOR ROUTINE SELECT
001509:    0115     0114               BLANKRET           EQUALS   INTB15+                               #  RETURN FOR 2BLANK
001510:
001511:    0115                        INTBIT15           ERASE                                          #  SIMILAR TO ABOVE.
001512:    0116     0115               WRDRET             EQUALS   INTBIT15                              #  RETURN FOR 5BLANK
001513:    0116     0115               WDRET              EQUALS   INTBIT15                              #  RETURN FOR DSPWD
001514:    0116     0115               DECRET             EQUALS   INTBIT15                              #  RETURN FOR PUTCOM(DEC LOAD)
001515:    0116     0115               21/22REG           EQUALS   INTBIT15                              #  TEMP FOR CHARIN
001516:
001517:                                                                                                  #  THE REGISTERS BETWEEN ADDRWD AND PRIORITY MUST STAY IN THE FOLLOWING ORDER FOR INTERPRETIVE TRACE.
001518:
001519:    0116                        ADDRWD             ERASE                                          #  12 BIT INTERPRETIVE OPERAND SUB-ADDRESS.
001520:    0117                        POLISH             ERASE                                          #  HOLDS CADR MADE FROM POLISH ADDRESS.
001521:    0120     0117               UPDATRET           EQUALS   POLISH                                #  RETURN FOR UPDATNN, UPDATVB
001522:    0120     0117               CHAR               EQUALS   POLISH                                #  TEMP FOR CHARIN
001523:    0120     0117               ERCNT              EQUALS   POLISH                                #  COUNTER FOR ERROR LIGHT RESET
001524:    0120     0117               DECOUNT            EQUALS   POLISH                                #  COUNTER FOR SCALING AND DISPLAY (DEC)
001525:
001526:    0120                        FIXLOC             ERASE                                          #  WORK AREA ADDRESS.
001527:    0121                        OVFIND             ERASE                                          #  SET NON-ZERO ON OVERFLOW.
001528:
001529:    0122                        VBUF               ERASE    +5                                    #  TEMPORARY STORAGE USED FOR VECTORS.
001530:    0130     0122               SGNON              EQUALS   VBUF                                  #  TEMP FOR +,- ON
001531:    0130     0122               NOUNTEM            EQUALS   VBUF                                  #  COUNTER FOR MIXNOUN FETCH
001532:    0130     0122               DISTEM             EQUALS   VBUF                                  #  COUNTER FOR OCTAL DISPLAY VERBS
001533:    0130     0122               DECTEM             EQUALS   VBUF                                  #  COUNTER FOR FETCH (DEC DISPLAY VERBS)
001534:
001535:    0130     0123               SGNOFF             EQUALS   VBUF       +1                         #  TEMP FOR +,- ON
001536:    0130     0123               NVTEMP             EQUALS   VBUF       +1                         #  TEMP FOR NVSUB
001537:    0130     0123               SFTEMP1            EQUALS   VBUF       +1                         #  STORAGE FOR SF CONST HI PART (=SFTEMP2-1)
001538:    0130     0123               HITEMIN            EQUALS   VBUF       +1                         #  TEMP FOR LOAD OF HRS,MIN,SEC
001539:                                                                                                  #  MUST = LOTEMIN-1.
001540:
001541:    0130     0124               CODE               EQUALS   VBUF       +2                         #  FOR DSPIN
001542:    0130     0124               SFTEMP2            EQUALS   VBUF       +2                         #  STORAGE FOR SF CONST LO PART (=SFTEMP1+1)
001543:    0130     0124               LOTEMIN            EQUALS   VBUF       +2                         #  TEMP FOR LOAD OF HRS,MIN,SEC
001544:                                                                                                  #  MUST = HITEMIN+1.


001546:    0130     0125               MIXTEMP            EQUALS   VBUF       +3                         #  FOR MIXNOUN DATA
001547:    0130     0125               SIGNRET            EQUALS   VBUF       +3                         #  RETURN FOR +,- ON
001548:
001549:                                                                                                  #  ALSO MIXTEMP+1 = VBUF+4, MIXTEMP+2 = VBUF+5.
001550:
001551:    0130                        BUF                ERASE    +2                                    #  TEMPORARY SCALAR STORAGE.
001552:    0133                        BUF2               ERASE    +1
001553:    0135     0130               INDEXLOC           EQUALS   BUF                                   #  CONTAINS ADDRESS OF SPECIFIED INDEX.
001554:    0135     0130               SWWORD             EQUALS   BUF                                   #  ADDRESS OF SWITCH WORD.
001555:    0135     0131               SWBIT              EQUALS   BUF        +1                         #  SWITCH BIT WITHIN SWITCH WORD.
001556:    0135                        MPTEMP             ERASE                                          #  TEMPORARY USED IN MULTIPLY AND SHIFT.
001557:    0136     0135               DMPNTEMP           EQUALS   MPTEMP                                #  DMPSUB TEMPORARY
001558:    0136                        DOTINC             ERASE                                          #  COMPONENT INCREMENT FOR DOT SUBROUTINE.
001559:    0137     0136               DVSIGN             EQUALS   DOTINC                                #  DETERMINES SIGN OF DDV RESULT.
001560:    0137     0136               ESCAPE             EQUALS   DOTINC                                #  USED IN ARCSIN/ARCCOS.
001561:    0137     0136               ENTRET             EQUALS   DOTINC                                #  EXIT FROM ENTER
001562:
001563:    0137                        DOTRET             ERASE                                          #  RETURN FROM DOT SUBROUTINE.
001564:    0140     0137               DVNORMCT           EQUALS   DOTRET                                #  DIVIDEND NORMALIZATION COUNT IN DDV.
001565:    0140     0137               ESCAPE2            EQUALS   DOTRET                                #  ALTERNATE ARCSIN/ARCCOS SWITCH.
001566:    0140     0137               WDCNT              EQUALS   DOTRET                                #  CHAR COUNTER FOR DSPWD
001567:    0140     0137               INREL              EQUALS   DOTRET                                #  INPUT BUFFER SELECTOR ( X,Y,Z, REG )
001568:
001569:    0140                        MATINC             ERASE                                          #  VECTOR INCREMENT IN MXV AND VXM.
001570:    0141     0140               MAXDVSW            EQUALS   MATINC                                #  +0 IF DP QUOTIENT IS NEAR ONE - ELSE -1.
001571:    0141     0140               POLYCNT            EQUALS   MATINC                                #  POLYNOMIAL LOOP COUNTER
001572:    0141     0140               DSPMMTEM           EQUALS   MATINC                                #  DSPCOUNT SAVE FOR DSPMM
001573:    0141     0140               MIXBR              EQUALS   MATINC                                #  INDICATOR FOR MIXED OR NORMAL NOUN
001574:
001575:    0141                        TEM1               ERASE                                          #  EXEC TEMP
001576:    0142     0141               POLYRET            EQUALS   TEM1
001577:    0142     0141               DSREL              EQUALS   TEM1                                  #  REL ADDRESS FOR DSPIN
001578:
001579:    0142                        TEM2               ERASE                                          #  EXEC TEMP
001580:    0143     0142               DSMAG              EQUALS   TEM2                                  #  MAGNITUDE STORE FOR DSPIN
001581:    0143     0142               IDADDTEM           EQUALS   TEM2                                  #  MIXNOUN INDIRECT ADDRESS STORAGE
001582:
001583:    0143                        TEM3               ERASE                                          #  EXEC TEMP
001584:    0144     0143               COUNT              EQUALS   TEM3                                  #  FOR DSPIN
001585:
001586:    0144                        TEM4               ERASE                                          #  EXEC TEMP
001587:    0145     0144               LSTPTR             EQUALS   TEM4                                  #  LIST POINTER FOR GRABUSY
001588:    0145     0144               RELRET             EQUALS   TEM4                                  #  RETURN FOR RELDSP
001589:    0145     0144               FREERET            EQUALS   TEM4                                  #  RETURN FOR FREEDSP
001590:    0145     0144               DSPWDRET           EQUALS   TEM4                                  #  RETURN FOR DSPSIGN
001591:    0145     0144               SEPSCRET           EQUALS   TEM4                                  #  RETURN FOR SEPSEC
001592:    0145     0144               SEPMNRET           EQUALS   TEM4                                  #  RETURN FOR SEPMIN
001593:
001594:    0145                        TEM5               ERASE                                          #  EXEC TEMP
001595:    0146     0145               NOUNADD            EQUALS   TEM5                                  #  TEMP STORAGE FOR NOUN ADDRESS
001596:


001598:    0146                        NNADTEM            ERASE                                          #  TEMP FOR NOUN ADDRESS TABLE ENTRY
001599:    0147                        NNTYPTEM           ERASE                                          #  TEMP FOR NOUN TYPE TABLE ENTRY
001600:    0150                        IDAD1TEM           ERASE                                          #  TEMP FOR INDIR ADRESS TABLE ENTRY (MIXNN)
001601:                                                                                                  #  MUST = IDAD2TEM-1, = IDAD3TEM-2.
001602:    0151                        IDAD2TEM           ERASE                                          #  TEMP FOR INDIR ADRESS TABLE ENTRY (MIXNN)
001603:                                                                                                  #  MUST = IDAD1TEM+1, = IDAD3TEM-1.
001604:    0152                        IDAD3TEM           ERASE                                          #  TEMP FOR INDIR ADRESS TABLE ENTRY (MIXNN)
001605:                                                                                                  #  MUST = IDAD1TEM+2, = IDAD2TEM+1.
001606:    0153                        RUTMXTEM           ERASE                                          #  TEMP FOR SF ROUT TABLE ENTRY (MIXNN ONLY)
001607:
001608:                                                                                                  #  AX*SR*T STORAGE.                      (6D)
001609:    0154     0142               DEXDEX             EQUALS   TEM2                                  #  B(1)TMP
001610:    0154     0143               DEX1               EQUALS   TEM3                                  #  B(1)TMP
001611:    0154     0144               DEX2               EQUALS   TEM4                                  #  B(1)TMP
001612:    0154     0145               RTNSAVER           EQUALS   TEM5                                  #  B(1)TMP
001613:    0154     0133               TERM1TMP           EQUALS   BUF2                                  #  B(2)TMP
001614:
001615:    0154     0143               DEXI               =        DEX1
001616:


001618:                                                                                                  #  DYNAMICALLY ALLOCATED CORE SETS FOR JOBS.     (84D)
001619:
001620:    0154                        MPAC               ERASE    +6                                    #  MULTI-PURPOSE ACCUMULATOR.
001621:    0163                        MODE               ERASE                                          #  +1 FOR TP, +0 FOR DP, OR -1 FOR VECTOR.
001622:    0164                        LOC                ERASE                                          #  LOCATION ASSOCIATED WITH JOB.
001623:    0165                        BANKSET            ERASE                                          #  USUALLY CONTAINS BBANK SETTING.
001624:    0166                        PUSHLOC            ERASE                                          #  WORD OF PACKED INTERPRETIVE PARAMETERS.
001625:    0167                        PRIORITY           ERASE                                          #  PRIORITY OF PRESENT JOB AND WORK AREA.
001626:
001627:    0170                                           ERASE    +71D                                  #  SEVEN SETS OF 12 REGISTERS EACH.
001628:
001629:                                                                                                  #  SPECIAL DOWNLINK BUFFER.- OVERLAYED BY P27 STORAGE-
001630:
001631:                                                                                                  #  P27 (UPDATE PROGRAM) STORAGE. -OVERLAYS SPEC DNLNK BUFF- (24D)
001632:
001633:    0300                        COMPNUMB           ERASE    +23D                                  #  B(1)TMP NUMBER OF ITEMS TO BE UPLINKED.
001634:    0330     0301               UPOLDMOD           EQUALS   COMPNUMB   +1                         #  B(1)TMP HOLDS INTERRUPTED PROGRAM NUMBER
001635:    0330     0302               UPVERB             EQUALS   UPOLDMOD   +1                         #  B(1)TMP VERB NUMBER
001636:    0330     0303               UPCOUNT            EQUALS   UPVERB     +1                         #  B(1)TMP UPBUFF INDEX
001637:    0330     0304               UPBUFF             EQUALS   UPCOUNT    +1                         #  B(20D)
001638:
001639:                                                                                                  #  MORE P27 STORAGE.                     (2D)
001640:
001641:    0330                        UPTEMP             ERASE                                          #  B(1)TMP SCRATCH
001642:    0331                        UPVERBSV           ERASE                                          #  B(1)TMP
001643:    0332     0330               INTWAK1Q           EQUALS   UPTEMP                                #  (06D)
001644:                                                                                                  #  (20 REGISTERS OF ENTRY DOWNLINK WILL GO HERE.)
001645:
001646:                                                                                                  #  THE FOLLOWING ARE INDEXED FOR TM. IN ENTRY DAP.
001647:
001648:    0332     0304               CMTMTIME           =        UPBUFF                                #  B(1) (VEHICLE BODY RATE INFO IS
001649:    0332     0305               SW/NDX             =        CMTMTIME   +1                         #  B(1)  TELEMETERED EACH 0.2 SEC. DURING
001650:    0332     0324               ENDBUF             =        CMTMTIME   +16D                       #  B(1)  ENTRY.)
001651:
001652:    0332     0325               V1                 =        ENDBUF     +1                         #  I(2) REENTRY, P64-P65
001653:    0332     0327               A0                 =        V1         +2                         #  I(2) REENTRY, P64-P65
001654:                                                                                                  #  HI-ORDER WORD ONLY ON DNLNK.
001655:
001656:                                                                                                  #  ALIGNMENT STORAGE.                    (5D)
001657:                                                                                                  #  (CANNOT SHARE WITH PRECISION INTEGRATION OR KEPLER STORAGE.)
001658:
001659:    0332     0300               QMAJ               EQUALS   COMPNUMB                              #  B(1)TMP
001660:    0332     0301               MARKINDX           EQUALS   QMAJ       +1                         #  B(1)TMP
001661:    0332     0302               BESTI              EQUALS   MARKINDX   +1                         #  I(1)TMP
001662:    0332     0303               BESTJ              EQUALS   BESTI      +1                         #  I(1)TMP
001663:    0332     0304               STARIND            EQUALS   BESTJ      +1                         #  I(1)TMP
001664:


001666:                                                                                                  #  ALIGNMENT/S40.2,3 COMMON STORAGE.     (18D)
001667:
001668:    0332     0306               XSMD               EQUALS   UPBUFF     +2                         #  I(6)TMP
001669:    0332     0314               YSMD               EQUALS   XSMD       +6                         #  I(6)TMP
001670:    0332     0322               ZSMD               EQUALS   YSMD       +6                         #  I(6)TMP
001671:
001672:    0332     0306               XSCREF             =        XSMD                                  #  SPACE CRAFT AXES IN REF COORDS.
001673:    0332     0314               YSCREF             =        YSMD
001674:    0332     0322               ZSCREF             =        ZSMD
001675:    0332                        ZPRIME             =        22D
001676:    0332                        PDA                =        22D
001677:    0332                        COSTH              =        16D
001678:    0332                        SINTH              =        18D
001679:    0332                        THETA              =        20D
001680:    0332                        STARM              =        32D
001681:
001682:                                                                                                  #  DOWNLINK STORAGE.                     (18)
001683:
001684:    0332     0332               DNLSTADR           EQUALS   DNLSTCOD                              #  CONTENTS NO LONGER AN ADDR BUT A CODE
001685:
001686:    0332                        DNLSTCOD           ERASE                                          #  B(1)PRM ID CODE OF DOWNLIST
001687:    0333                        DUMPCNT            ERASE                                          #  B(1)PRM
001688:    0334                        LDATALST           ERASE                                          #  B(1)
001689:    0335                        DNTMGOTO           ERASE                                          #  B(1)
001690:    0336                        TMINDEX            ERASE                                          #  B(1)
001691:    0337     0336               DUMPLOC            EQUALS   TMINDEX                               #  CONTAINS ECADR OF AGC DP WORD BEING DUMP
001692:                                                                                                  #  ED AND COUNT OF COMPLETE DUMPS ALREADY S
001693:                                                                                                  #  ENT.
001694:    0337                        DNQ                ERASE                                          #  B(1)
001695:    0340                        DNTMBUFF           ERASE    +11D                                  #  B(12)PRM DOWNLINK SNAPSHOT BUFFER
001696:
001697:                                                                                                  #  OPTICS MARKING . UNSHARED.            (8D)
001698:
001699:    0354                        MKNDX              ERASE
001700:    0355                        MKT2T1             ERASE    +1
001701:    0357                        MKCDUY             ERASE
001702:    0360                        MKCDUS             ERASE
001703:    0361                        MKCDUZ             ERASE
001704:    0362                        MKCDUT             ERASE
001705:    0363                        MKCDUX             ERASE
001706:
001707:                                                                                                  #  FOR EXCLUSIVE USE OF SYS TEST STANDARD LEAD INS       (2)
001708:    0364                        EBUF2              ERASE    +1                                    #  B(2) UNSHARED
001709:


001711:                                                                                                  #  UNSWITCHED FOR DISPLAY INTERFACE ROUTINES.    (10D)
001712:
001713:    0366                        RESTREG            ERASE                                          #  B(1)PRM FOR DISPLAY RESTARTS
001714:    0367                        NVWORD             ERASE
001715:    0370                        MARKNV             ERASE
001716:    0371                        NVSAVE             ERASE
001717:                                                                                                  #  (RETAIN THE ORDER OF CADRFLSH TO FAILREG +2 FOR DOWNLINK PURPOSES)
001718:    0372                        CADRFLSH           ERASE                                          #  B(1)TMP
001719:    0373                        CADRMARK           ERASE                                          #  B(1)TMP
001720:    0374                        TEMPFLSH           ERASE                                          #  B(1)TMP
001721:    0375                        FAILREG            ERASE    +2                                    #  B(3)PRM 3 ALARM-ABORT USER'S 2CADR
001722:
001723:    0400                                           SETLOC   400
001724:
001725:                                                                                                  #  VAC AREAS. -BE CAREFUL OF PLACEMENT-  (220D)
001726:
001727:    0400                        VAC1USE            ERASE                                          #  B(1)PRM
001728:    0401                        VAC1               ERASE    +42D                                  #  B(43)PRM
001729:    0454                        VAC2USE            ERASE                                          #  B(1)PRM
001730:    0455                        VAC2               ERASE    +42D                                  #  B(43)PRM
001731:    0530                        VAC3USE            ERASE                                          #  B(1)PRM
001732:    0531                        VAC3               ERASE    +42D                                  #  B(43)PRM
001733:    0604                        VAC4USE            ERASE                                          #  B(1)PRM
001734:    0605                        VAC4               ERASE    +42D                                  #  B(43)PRM
001735:    0660                        VAC5USE            ERASE                                          #  B(1)PRM
001736:    0661                        VAC5               ERASE    +42D                                  #  B(43)PRM
001737:
001738:                                                                                                  #  WAITLIST REPEAT FLAG.                 (1D)
001739:    0734                        RUPTAGN            ERASE                                          #  B(1)PRM
001740:    0735     0734               KEYTEMP2           =        RUPTAGN
001741:
001742:                                                                                                  #  STARALIGN ERASABLES.                          (13D)
001743:
001744:    0735                        STARCODE           ERASE                                          #  B(1)DSP NOUN 70 FOR P22,51 AND R52,53.
001745:    0736                        STARALGN           ERASE    +11D
001746:    0752     0736               SINCDU             =        STARALGN
001747:    0752     0744               COSCDU             =        STARALGN   +6
001748:
001749:    0752     0742               SINCDUX            =        SINCDU     +4
001750:    0752     0736               SINCDUY            =        SINCDU
001751:    0752     0740               SINCDUZ            =        SINCDU     +2
001752:    0752     0750               COSCDUX            =        COSCDU     +4
001753:    0752     0744               COSCDUY            =        COSCDU
001754:    0752     0746               COSCDUZ            =        COSCDU     +2
001755:
001756:                                                                                                  #  PHASE TABLE AND RESTART COUNTERS.             (12D)


001758:
001759:    0752                        -PHASE1            ERASE                                          #  B(1)PRM
001760:    0753                        PHASE1             ERASE                                          #  B(1)PRM
001761:    0754                        -PHASE2            ERASE                                          #  B(1)PRM
001762:    0755                        PHASE2             ERASE                                          #  B(1)PRM
001763:    0756                        -PHASE3            ERASE                                          #  B(1)PRM
001764:    0757                        PHASE3             ERASE                                          #  B(1)PRM
001765:    0760                        -PHASE4            ERASE                                          #  B(1)PRM
001766:    0761                        PHASE4             ERASE                                          #  B(1)PRM
001767:    0762                        -PHASE5            ERASE                                          #  B(1)PRM
001768:    0763                        PHASE5             ERASE                                          #  B(1)PRM
001769:    0764                        -PHASE6            ERASE                                          #  B(1)PRM
001770:    0765                        PHASE6             ERASE                                          #  B(1)PRM
001771:
001772:                                                                                                  #  AX*SR*T STORAGE.                              (6D)
001773:
001774:    0766                        CDUSPOT            ERASE    +5                                    #  B(6)
001775:
001776:    0774     0766               CDUSPOTY           =        CDUSPOT
001777:    0774     0770               CDUSPOTZ           =        CDUSPOT    +2
001778:    0774     0772               CDUSPOTX           =        CDUSPOT    +4
001779:
001780:                                                                                                  #  VERB 37 STORAGE.                              (2D)
001781:
001782:    0774                        MINDEX             ERASE                                          #  B(1)TMP INDEX FOR MAJOR MODE
001783:    0775                        MMNUMBER           ERASE                                          #  B(1)TMP MAJOR MODE REQUESTED VIA V37
001784:
001785:                                                                                                  #  PINBALL INTERRUPT STORAGE.                    (1D)
001786:
001787:    0776                        DSPCNT             ERASE                                          #  B(1)PRM DSPOUT COUNTER
001788:
001789:                                                                                                  #  PINBALL EXECUTIVE ACTION.                     (44D)
001790:
001791:    0777                        DSPCOUNT           ERASE                                          #  DISPLAY POSITION INDICATOR
001792:    1000                        DECBRNCH           ERASE                                          #  +DEC, -DEC, OCT INDICATOR
001793:    1001                        VERBREG            ERASE                                          #  VERB CODE
001794:    1002                        NOUNREG            ERASE                                          #  NOUN CODE
001795:    1003                        XREG               ERASE                                          #  R1 INPUT BUFFER
001796:    1004                        YREG               ERASE                                          #  R2 INPUT BUFFER
001797:    1005                        ZREG               ERASE                                          #  R3 INPUT BUFFER
001798:    1006                        XREGLP             ERASE                                          #  LO PART OF XREG (FOR DEC CONV ONLY)
001799:    1007                        YREGLP             ERASE                                          #  LO PART OF YREG (FOR DEC CONV ONLY)
001800:    1010     1007               HITEMOUT           =        YREGLP                                #  TEMP FOR DISPLAY OF HRS,MIN,SEC
001801:                                                                                                  #  MUST = LOTEMOUT-1.
001802:    1010                        ZREGLP             ERASE                                          #  LO PART OF ZREG (FOR DEC CONV ONLY)
001803:    1011     1010               LOTEMOUT           =        ZREGLP                                #  TEMP FOR DISPLAY OF HRS,MIN,SEC
001804:                                                                                                  #  MUST = HITEMOUT+1.


001806:    1011                        MODREG             ERASE                                          #  MODE CODE
001807:    1012                        DSPLOCK            ERASE                                          #  KEYBOARD/SUBROUTINE CALL INTERLOCK
001808:    1013                        REQRET             ERASE                                          #  RETURN REGISTER FOR LOAD
001809:    1014                        LOADSTAT           ERASE                                          #  STATUS INDICATOR FOR LOADTST
001810:    1015                        CLPASS             ERASE                                          #  PASS INDICATOR CLEAR
001811:    1016                        NOUT               ERASE                                          #  ACTIVITY COUNTER FOR DSPTAB
001812:    1017                        NOUNCADR           ERASE                                          #  MACHINE CADR FOR NOUN
001813:    1020                        MONSAVE            ERASE                                          #  N/V CODE FOR MONITOR. (= MONSAVE1-1)
001814:    1021                        MONSAVE1           ERASE                                          #  NOUNCADR FOR MONITOR (MATBS) = MONSAVE+1
001815:    1022                        MONSAVE2           ERASE                                          #  B(1)PRM NVMONOPT OPTIONS
001816:    1023                        DSPTAB             ERASE    +11D                                  #  0-10D, DISPLAY PANEL BUFF.  11D, C/S LTS.
001817:    1037                        NVQTEM             ERASE                                          #  NVSUB STORAGE FOR CALLING ADDRESS
001818:                                                                                                  #  MUST = NVBNKTEM-1
001819:    1040                        NVBNKTEM           ERASE                                          #  NVSUB STORAGE FOR CALLING BANK
001820:                                                                                                  #  MUST = NVQTEM+1
001821:    1041                        VERBSAVE           ERASE                                          #  NEEDED FOR RECYCLE
001822:    1042                        CADRSTOR           ERASE                                          #  ENDIDLE STORAGE
001823:    1043                        DSPLIST            ERASE                                          #  WAITING REG FOR DSP SYST INTERNAL USE
001824:    1044                        EXTVBACT           ERASE                                          #  EXTENDED VERB ACTIVITY INTERLOCK
001825:    1045                        DSPTEM1            ERASE    +2                                    #  BUFFER STORAGE AREA 1 (MOSTLY FOR TIME)
001826:    1050                        DSPTEM2            ERASE    +2                                    #  BUFFER STORAGE AREA 2 (MOSTLY FOR DEG)
001827:
001828:    1053     1051               DSPTEMX            EQUALS   DSPTEM2    +1                         #  B(2) S-S DISPLAY BUFFER FOR EXT. VERBS.
001829:    1053     1045               NORMTEM1           EQUALS   DSPTEM1                               #  B(3)DSP NORMAL DISPLAY REGISTERS.
001830:
001831:                                                                                                  #  DISPLAY FOR EXTENDED VERBS                    (2D)
001832:
001833:    1053     1051               OPTIONX            EQUALS   DSPTEMX                               #  B(2) EXTENDED VERB OPTION CODE N12(V82)
001834:
001835:                                                                                                  #  TBASE S AND PHSPRDT S.                        (12D)
001836:
001837:    1053                        TBASE1             ERASE                                          #  B(1)PRM
001838:    1054                        PHSPRDT1           ERASE                                          #  B(1)PRM
001839:    1055                        TBASE2             ERASE                                          #  B(1)PRM
001840:    1056                        PHSPRDT2           ERASE                                          #  B(1)PRM
001841:    1057                        TBASE3             ERASE                                          #  B(1)PRM
001842:    1060                        PHSPRDT3           ERASE                                          #  B(1)PRM
001843:    1061                        TBASE4             ERASE                                          #  B(1)PRM
001844:    1062                        PHSPRDT4           ERASE                                          #  B(1)PRM
001845:    1063                        TBASE5             ERASE                                          #  B(1)PRM
001846:    1064                        PHSPRDT5           ERASE                                          #  B(1)PRM
001847:    1065                        TBASE6             ERASE                                          #  B(1)PRM
001848:    1066                        PHSPRDT6           ERASE                                          #  B(1)PRM
001849:
001850:                                                                                                  #  MORE UNSWITCHED FOR DISPLAY INF       (5D).


001852:    1067                        EBANKSAV           ERASE
001853:    1070                        MARKEBAN           ERASE
001854:    1071                        EBANKTEM           ERASE
001855:    1072                        MARK2PAC           ERASE
001856:    1073                        R1SAVE             ERASE
001857:
001858:                                                                                                  #  IMU COMPENSATION UNSWITCHED ERASABLE.         (1D)
001859:
001860:    1074                        1/PIPADT           ERASE                                          #  B(1)PRM
001861:    1075     1074               OLDBT1             =        1/PIPADT
001862:
001863:                                                                                                  #  SINGLE PRECISION SUBROUTINE TEMPORARIES.      (3D)
001864:                                                                                                  #  SPSIN, SPCOS, SPROOT VARIABLES.
001865:                                                                                                  #  DO NOT SHARE.  THESE ARE USED BY DAPS IN INTERRUPT
001866:                                                                                                  #  AND CURRENTLY ARE NOT PROTECTED.  IF OTHER USERS
001867:                                                                                                  #  MATERIALIZE, THEN THIS CAN BE CHANGED.
001868:
001869:    1075                        HALFY              ERASE
001870:    1076                        ROOTRET            ERASE
001871:    1077                        SQRARG             ERASE
001872:    1100     1075               TEMK               EQUALS   HALFY
001873:    1100     1076               SQ                 EQUALS   ROOTRET
001874:


001876:                                                                                                  #  UNSWITCHED FOR ORBIT INTEGRATION.             (21D)
001877:
001878:    1100                        TDEC               ERASE    +20D                                  #  I(2)
001879:    1125     1102               COLREG             EQUALS   TDEC       +2                         #  I(1)
001880:    1125     1103               LAT                EQUALS   COLREG     +1                         #  I(2)DSP NOUN 43,67 FOR P20,22,51 R52,53.
001881:    1125     1103               LANDLAT            =        LAT                                   #          NOUN 89    FOR P22.
001882:    1125     1105               LONG               EQUALS   LAT        +2                         #  I(2)DSP NOUN 43,67 FOR P20,22,51 R52,53.
001883:    1125     1107               ALT                EQUALS   LONG       +2                         #  I(2)DSP NOUN 43    FOR P20,22,51 R52,53.
001884:    1125     1111               YV                 EQUALS   ALT        +2                         #  I(6)
001885:    1125     1117               ZV                 EQUALS   YV         +6                         #  I(6)
001886:
001887:                                                                                                  #  MARK STORAGE.                         (2)
001888:
001889:    1125                        VHFCNT             ERASE                                          #  B(1)PRM NO. OF VHF MARKS (P20 (R22)).
001890:    1126                        TRKMKCNT           ERASE                                          #  B(1)PRM NO. OF VHF MARKS (P20 (R22)).
001891:
001892:    1127     1126               MARKCTR            =        TRKMKCNT                              #  B(1) MARK COUNTER USED BY R32
001893:
001894:                                                                                                  #  MISCELLANEOUS UNSWITCHED.                     (16D)
001895:
001896:    1127                        IRETURN1           ERASE                                          #  B(1) RET ADDR USED BY MIDTOAV1 AND 2
001897:                                                                                                  #  CALLED BY P40,P41,P42, P61,P62
001898:    1130                        RATEINDX           ERASE                                          #   (1) USED BY KALCMANU
001899:    1131                        OPTION1            ERASE                                          #  B(1) NOUN 06 USES THIS
001900:    1132                        OPTION2            ERASE                                          #  B(1) NOUN 06 USES THIS
001901:    1133                        LONGCADR           ERASE    +1                                    #  B(2) LONGCALL REGISTER
001902:    1135                        LONGBASE           ERASE    +1                                    #  B(2) LONGCALL REGISTER
001903:    1137                        LONGTIME           ERASE    +1                                    #  B(2) LONGCALL REGISTER
001904:    1141                        DELAYLOC           ERASE    +3
001905:    1145                        NVWORD1            ERASE                                          #  B(1)
001906:    1146                        TEMPR60            ERASE                                          #  B(1)
001907:    1147                        PRIOTIME           ERASE                                          #  B(1)
001908:    1150     1127               P30/RET            EQUALS   IRETURN1
001909:
001910:                                                                                                  #  MISC. INCLUDING RESTART COUNTER, GIMBAL ANGLE SAVE AND
001911:                                                                                                  #  STANDBY VERB ERASABLES.  REDOCTR BEFORE THETAD (DWNLNK)       (16D)
001912:
001913:    1150                        TIME2SAV           ERASE    +1                                    #  B(2)TMP
001914:    1152                        SCALSAVE           ERASE    +1                                    #  B(2)TMP
001915:    1154                        REDOCTR            ERASE                                          #  B(1)PRM CONTAINS NUMBER OF RESTARTS.
001916:    1155                        THETAD             ERASE    +2                                    #  B(3)PRM DESIRED GIM ANGLES FOR MANEUVER.
001917:    1160     1155               CPHI               =        THETAD                                #        (OUTER)
001918:    1160     1156               CTHETA             =        THETAD     +1                         #        (INNER)
001919:    1160     1157               CPSI               =        THETAD     +2                         #        (MIDDLE)


001921:                                                                                                  #  ENTRY VARIABLES SHARED FOR TM.
001922:    1160     1155               RDOTREF            =        THETAD                                #  I(2)  P65
001923:    1160     1157               VREF               =        RDOTREF    +2                         #  I(2)  P65     HI-ORDER WORD ONLY DNLNK'D
001924:    1160                        DESOPTT            ERASE                                          #  B(1)DSP NOUN 92 FOR P20,22,52, R52.
001925:    1161                        DESOPTS            ERASE                                          #  B(1)DSP NOUN 92 FOR P20,22,52, R52.
001926:
001927:    1162                        DELV               ERASE    +5                                    #  I(6)
001928:    1170     1162               DELVX              =        DELV
001929:    1170     1164               DELVY              =        DELV       +2
001930:    1170     1166               DELVZ              =        DELV       +4
001931:
001932:                                                                                                  #  P20, CONICS   (SHARING WITH TIME 2 SAV AND SCAL SAV ONLY)     (3D)
001933:    1170     1150               POINTEX            EQUALS   TIME2SAV                              #  I(1) POINT AXS EXIT
001934:    1170     1151               VHFTIME            EQUALS   POINTEX    +1                         #  I(2) DOWNLINK OF VHF RANGE TIME +1M
001935:
001936:                                                                                                  #  PERM STATE VECTORS FOR BOOST AND DOWNLINK -WHOLE MISSION-     (14D)
001937:
001938:    1170                        RN                 ERASE    +5                                    #  B(6)PRM
001939:    1176                        VN                 ERASE    +5                                    #  B(6)PRM
001940:    1204                        PIPTIME            ERASE    +1                                    #  B(2)PRM (MUST BE FOLLOWED BY GDT/2)
001941:
001942:                                                                                                  #  SERVICER STORAGE.                             (45D)
001943:
001944:                                                                                                  #  (SERVICER STORAGE AND P11 STORAGE IN UNSWITHCHED SHOULD NOT
001945:                                                                                                  #  OVERLAY EACH OTHER AND THE TOTAL ERASABLE REQUIRED SHOULD NOT
001946:                                                                                                  #  EXCEED THE ERASABLE STORAGE REQUIRED BY RENDEZVOUS GUIDANCE)
001947:
001948:    1206     1206               GDT/2              EQUALS   PIPTIME    +2                         #  B(6)TMP       (MUST FOLLOW PIPTIME)
001949:    1206     1214               GOBL/2             EQUALS   GDT/2      +6                         #  B(6)TMP
001950:    1206     1222               AVEGEXIT           EQUALS   GOBL/2     +6                         #  B(2)TMP
001951:    1206     1222               AVGEXIT            =        AVEGEXIT
001952:    1206     1224               TEMX               EQUALS   AVEGEXIT   +2                         #  B(1)TMP
001953:    1206     1225               TEMY               EQUALS   TEMX       +1                         #  B(1)TMP
001954:    1206     1226               TEMZ               EQUALS   TEMY       +1                         #  B(1)TMP
001955:    1206     1227               PIPCTR             EQUALS   TEMZ       +1                         #  B(1)TMP
001956:    1206     1230               PIPAGE             EQUALS   PIPCTR     +1                         #  B(1)TMP
001957:    1206     1231               RN1                EQUALS   PIPAGE     +1                         #  B(6)TMP
001958:    1206     1237               VN1                EQUALS   RN1        +6                         #  B(6)TMP
001959:    1206     1245               PIPTIME1           EQUALS   VN1        +6                         #  B(2)TMP
001960:    1206     1247               GDT1/2             EQUALS   PIPTIME1   +2                         #  B(6)TMP
001961:    1206     1255               GOBL1/2            EQUALS   GDT1/2     +6                         #  B(6)TMP
001962:


001964:                                                                                                  #  ENTRY STORAGE.                                        (1D)
001965:    1206     1263               ENTRYVN            EQUALS   GOBL1/2    +6                         #  B(1)TMP VN CODE FOR ENTRY DISPLAYS P60S.
001966:
001967:                                                                                                  #  P11 STORAGE.                                  (9D)
001968:    1206     1263               PADLONG            EQUALS   ENTRYVN                               #  (2)PL LONGITUDE OF LAUNCH PAD
001969:    1206     1265               LIFTTEMP           EQUALS   PADLONG    +2                         #  (2)TMP
001970:    1206     1267               TEPHEM1            EQUALS   LIFTTEMP   +2                         #  (3)TMP
001971:    1206     1272               PGNCSALT           EQUALS   TEPHEM1    +3                         #  (2)PL ALTITUDE
001972:
001973:                                                                                                  #  RENDEZVOUS NAVIGATION STORAGE.  (SEE COMMENT IN SERVICER STORAGE)     (58D)
001974:    1206                        CSMPOS             ERASE    +57D                                  #  I(6)TMP
001975:    1300     1214               LEMPOS             EQUALS   CSMPOS     +6                         #  I(6)TMP
001976:    1300     1222               RCL                EQUALS   LEMPOS     +6                         #  I(2)TMP
001977:    1300     1224               MARKTIME           EQUALS   RCL        +2                         #  B(2)TMP
001978:    1300     1226               VTEMP              EQUALS   MARKTIME   +2                         #  B(6)TMP
001979:    1300     1234               UM                 EQUALS   VTEMP      +6                         #  I(6)TMP
001980:    1300     1242               MARKDATA           EQUALS   UM         +6                         #  B(2)TMP
001981:    1300     1244               USTAR              EQUALS   MARKDATA   +2                         #  I(6)TMP
001982:    1300     1252               WIXA               EQUALS   USTAR      +6                         #  B(1)TMP
001983:    1300     1253               WIXB               EQUALS   WIXA       +1                         #  B(1)TMP
001984:    1300     1254               ZIXA               EQUALS   WIXB       +1                         #  B(1)TMP
001985:    1300     1255               ZIXB               EQUALS   ZIXA       +1                         #  B(1)TMP
001986:    1300     1256               DELTAX             EQUALS   ZIXB       +1                         #  I(18)TMP
001987:
001988:    1300     1256               VHFRANGE           EQUALS   DELTAX                                #  (2)
001989:    1300     1272               UCL                EQUALS   DELTAX     +12D                       #  (6)   LM-CSM LINE OF SIGHT 1/2 UNIT V
001990:
001991:                                                                                                  #  **** CONICSEX (MEAS INC) ****
001992:    1300     1256               TRIPA              EQUALS   DELTAX
001993:    1300     1261               TEMPVAR            EQUALS   DELTAX     +3
001994:
001995:    1300                        TEMPOR1            ERASE    +1                                    #  B(2)TMP
001996:
001997:                                                                                                  #  T4RUPT ERASABLE.                              (6D)
001998:
001999:    1302                        DSRUPTSW           ERASE
002000:    1303                        OPTIND             ERASE
002001:    1304                        LGYRO              ERASE
002002:    1305                        COMMANDO           ERASE    +1
002003:


002005:    1307                        ZONE               ERASE                                          #  B(1)PRM USED IN SHAFT STOP MONITOR
002006:    1310  0000035               LASTYCMD           =        OPTY                                  #  DUMMY TO MAKE RR BENCH TEST ASSEMBLE
002007:    1310  0000035               LASTXCMD           =        OPTY                                  #  DUMMY TO MAKE RR BENCH TEST ASSEMBLE
002008:
002009:                                                                                                  #  UNSWITCHED DAP ERASABLE.                      (4D)
002010:    1310                        T6LOC              ERASE
002011:    1311                        T6ADR              ERASE
002012:    1312                        T5LOC              ERASE    +1
002013:
002014:                                                                                                  #  MODE SWITCHING ERASABLE.                      (14D)
002015:    1314                        SWSAMPLE           ERASE                                          #  B(1)PRM
002016:    1315                        DESOPMOD           ERASE                                          #  B(1)PRM
002017:    1316                        WTOPTION           ERASE                                          #  B(1)PRM
002018:    1317                        ZOPTCNT            ERASE                                          #  B(1)PRM
002019:    1320                        IMODES30           ERASE                                          #  B(1)PRM
002020:    1321                        IMODES33           ERASE                                          #  B(1)PRM
002021:    1322                        MODECADR           ERASE    +2                                    #  B(3)TMP
002022:    1325     1322               IMUCADR            =        MODECADR
002023:    1325     1323               OPTCADR            =        MODECADR   +1
002024:    1325     1324               RADCADR            =        MODECADR   +2
002025:    1325                        ATTCADR            ERASE    +2                                    #  B(3)PRM
002026:    1330     1327               ATTPRIO            =        ATTCADR    +2
002027:    1330                        MARKSTAT           ERASE                                          #  B(1)PRM
002028:    1331                        OPTMODES           ERASE                                          #  B(1)PRM
002029:
002030:                                                                                                  #  RCSDAP ERASABLE.                              (1D)
002031:    1332                        HOLDFLAG           ERASE                                          #  B(1)PRM
002032:
002033:                                                                                                  #  CRS61.1 STORAGE.  -USED IN R63 (VERB 89)-     (5D)
002034:    1333                        CPHIX              ERASE    +2                                    #  B(3)DSP NOUN 96 CALCULATED BY CRS61.1
002035:
002036:    1336                        TEVENT             ERASE    +1                                    #  B(2) TIME OF EVENT FOR DOWNLIST
002037:    1340     1336               TLIFTOFF           =        TEVENT
002038:


002040:                                                                                                  #  P34-P35 STORAGE                               (1D)
002041:    1340                        NORMEX             ERASE
002042:
002043:                                                                                                  #  SELF-CHECK ASSIGNMENTS.                       (17D)
002044:
002045:                                                                                                  #                         (DO NOT MOVE, S-C IS ADDRESS SENSITIVE)
002046:
002047:    1341                        SELFERAS           ERASE    1357       -          1377            #  *** MUST NOT BE MOVED ***
002048:    1341     1357               SFAIL              EQUALS   SELFERAS                              #  B(1)
002049:    1341     1360               ERESTORE           EQUALS   SFAIL      +1                         #  B(1)
002050:    1341     1361               SELFRET            EQUALS   ERESTORE   +1                         #  B(1) RETURN
002051:    1341     1362               SMODE              EQUALS   SELFRET    +1                         #  B(1)
002052:    1341     1363               ALMCADR            EQUALS   SMODE      +1                         #  B(2) ALARM-ABORT USER'S 2CADR
002053:    1341     1365               ERCOUNT            EQUALS   ALMCADR    +2                         #  B(1)
002054:    1341     1366               SCOUNT             EQUALS   ERCOUNT    +1                         #  B(3)
002055:    1341     1371               SKEEP1             EQUALS   SCOUNT     +3                         #  B(1)
002056:    1341     1372               SKEEP2             EQUALS   SKEEP1     +1                         #  B(1)
002057:    1341     1373               SKEEP3             EQUALS   SKEEP2     +1                         #  B(1)
002058:    1341     1374               SKEEP4             EQUALS   SKEEP3     +1                         #  B(1)
002059:    1341     1375               SKEEP5             EQUALS   SKEEP4     +1                         #  B(1)
002060:    1341     1376               SKEEP6             EQUALS   SKEEP5     +1                         #  B(1)
002061:    1341     1377               SKEEP7             EQUALS   SKEEP6     +1                         #  B(1)
002062:
002063:                                                                                                  #  USED BY P30 ROUTINES TO WRITE ONLY NEVER READ IN COLOSSUS
002064:
002065:    1341  0000000               DISPDEX            EQUALS   A
002066:
002067:                                                                                                  #  ERASABLE FOR SXTMARK CDU CHECK DELAY.  -PAD LOADED-   (1D)
002068:
002069:    1341                        CDUCHKWD           ERASE                                          #  B(1)PL
002070:
002071:                                                                                                  #  R57 STORAGE. -MUST BE UNSHARED EXCEPT IN BOOST OR ENTRY-      (1D)
002072:
002073:    1342                        TRUNBIAS           ERASE                                          #  B(1)PRM RESULT OF R57 CALIBR OF TRUNION
002074:
002075:                                                                                                  #  KEPLER STORAGE                                (6D)
002076:
002077:    1343                        XMODULO            ERASE    +1                                    #  I(2) GREATER 2PI KEPLER
002078:    1345                        TMODULO            ERASE    +1                                    #  I(2) GREATER 2 KEPLER
002079:    1347                        EPSILONT           ERASE    +1                                    #  I(2)TMP
002080:


002082:                                                                                                  #  P37   ** RETURN TO EARTH (PAD LOAD) ****      (2D)
002083:
002084:    1351                        RTED1              ERASE    +1                                    #  I(2)PL VGAMMA POLY COEF               B-3
002085:
002086:                                                                                                  #  P40   *** STEERING ROUTINE *** PAD LOAD       (1D)
002087:
002088:    1353                        DVTHRESH           ERASE                                          #  I(1)PL DELTA VTHRESHOLD FOR LOW THRUST
002089:                                                                                                  #         ROUTINE                        B-2
002090:
002091:                                                                                                  #  P23   *** PAD LOAD ****                       (2D)
002092:
002093:    1354                        HORIZALT           ERASE    +1                                    #  I(2)PL HORIZION ALTITUDE           M B-29
002094:
002095:                                                                                                  #  P-20  ALTERNATE LOS VARIANCE  PAD LOAD *****  (1D)
002096:                                                                                                  #                                  -16
002097:    1356                        ALTVAR             ERASE                                          #  I(2)PL MILLARD. SQUARED SCALED 2
002098:    1357     1377               END-UE             EQUALS   SELFERAS   +16D                       #  LAST USED UNSWITCHED ERASABLE
002099:


002101:                                                                                                  #  EBANK-3 ASSIGNMENTS
002102:
002103: E3,1400                                           SETLOC   1400
002104:
002105:                                                                                                  #  WAITLIST TASK LISTS.                          (26D)
002106:
002107: E3,1400                        LST1               ERASE    +7                                    #  B(8D)PRM DELTA T S.
002108: E3,1410                        LST2               ERASE    +17D                                  #  B(18D)PRM TASK 2CADR ADDRESSES.
002109:
002110:                                                                                                  #  RESTART STORAGE.                              (2D)
002111:
002112: E3,1432                        RSBBQ              ERASE    +1                                    #  B(2)PRM SAVE BB AND Q FOR RESTARTS.
002113:
002114:                                                                                                  #  MORE LONGCALL STORAGE.  (MUST BE IN LST1 S BANK).     (2D)
002115:
002116: E3,1434                        LONGEXIT           ERASE    +1                                    #  B(2)TMP MAY BE SELDOM OVERLAYED.
002117:
002118:                                                                                                  #  PHASE-CHANGE LISTS PART II.                   (12D)
002119:
002120:
002121: E3,1436                        PHSNAME1           ERASE                                          #  B(1)PRM
002122: E3,1437                        PHSBB1             ERASE                                          #  B(1)PRM
002123: E3,1440                        PHSNAME2           ERASE                                          #  B(1)PRM
002124: E3,1441                        PHSBB2             ERASE                                          #  B(1)PRM
002125: E3,1442                        PHSNAME3           ERASE                                          #  B(1)PRM
002126: E3,1443                        PHSBB3             ERASE                                          #  B(1)PRM
002127: E3,1444                        PHSNAME4           ERASE                                          #  B(1)PRM
002128: E3,1445                        PHSBB4             ERASE                                          #  B(1)PRM
002129: E3,1446                        PHSNAME5           ERASE                                          #  B(1)PRM
002130: E3,1447                        PHSBB5             ERASE                                          #  B(1)PRM
002131: E3,1450                        PHSNAME6           ERASE                                          #  B(1)PRM
002132: E3,1451                        PHSBB6             ERASE                                          #  B(1)PRM
002133:
002134:                                                                                                  #  IMU COMPENSATION PARAMETERS.                  (22D)
002135:
002136: E3,1452                        PBIASX             ERASE                                          #  B(1) PIPA BIAS, PIPA SCALE FACTR TERMS
002137: E3,1453  E3,1452               PIPABIAS           =        PBIASX                                #  INTERMIXED.
002138: E3,1453                        PIPASCFX           ERASE
002139: E3,1454  E3,1453               PIPASCF            =        PIPASCFX
002140: E3,1454                        PBIASY             ERASE
002141: E3,1455                        PIPASCFY           ERASE
002142: E3,1456                        PBIASZ             ERASE
002143: E3,1457                        PIPASCFZ           ERASE
002144:
002145: E3,1460                        NBDX               ERASE                                          #  GYRO BIAS DRIFTS
002146: E3,1461  E3,1460               GBIASX             =        NBDX
002147: E3,1461                        NBDY               ERASE


002149: E3,1462                        NBDZ               ERASE
002150:
002151: E3,1463                        ADIAX              ERASE                                          #  ACCELERATION SENSITIVE DRIFT ALONG THE
002152: E3,1464                        ADIAY              ERASE                                          #  INPUT AXIS
002153: E3,1465                        ADIAZ              ERASE
002154:
002155: E3,1466                        ADSRAX             ERASE                                          #  ACCELERATION SENSITIVE DRIFT ALONG THE
002156: E3,1467                        ADSRAY             ERASE                                          #  SPIN REFERENCE AXIS
002157: E3,1470                        ADSRAZ             ERASE
002158:
002159: E3,1471                        GCOMP              ERASE    +5                                    #  CONTAINS COMPENSATING TORQUES
002160:
002161: E3,1477                        GCOMPSW            ERASE
002162: E3,1500  E3,1471               COMMAND            EQUALS   GCOMP
002163: E3,1500  E3,1474               CDUIND             EQUALS   GCOMP      +3
002164:
002165:                                                                                                  #  STATE VECTORS FOR ORBIT INTEGRATION.          (44D)
002166:
002167:                                                                                                  #                (DIFEQCNT THRU XKEP MUST BE IN SAME
002168:                                                                                                  #                EBANK AS RRECTCSM, RRECTLEM ETC
002169:                                                                                                  #                BECAUSE THE COPY-CYCLES (ATOPCSM,
002170:                                                                                                  #                PTOACSM ETC) ARE EXECUTED IN BASIC.
002171:                                                                                                  #                ALL OTHER REFERENCES TO THIS GROUP
002172:                                                                                                  #                ARE BY INTERPRETIVE INSTRUCTIONS.)
002173:
002174:
002175: E3,1500                        DIFEQCNT           ERASE    +43D                                  #  B(1)TMP
002176:                                                                                                  #  (UPSVFLAG...XKEP MUST BE KEPT IN ORDER)
002177:
002178: E3,1554  E3,1501               UPSVFLAG           EQUALS   DIFEQCNT   +1                         #  B(1)PRM UPDATE FLAG
002179: E3,1554  E3,1502               RRECT              EQUALS   UPSVFLAG   +1                         #  B(6)TMP POS AT RECT           KM*2(-14)
002180: E3,1554  E3,1510               VRECT              EQUALS   RRECT      +6                         #  B(6)TMP VEL AT RECT           KM(-1/2)*2(6)
002181: E3,1554  E3,1516               TET                EQUALS   VRECT      +6                         #  B(2)TMP TIME OF STATE VECT    CSECS*2(-28)
002182: E3,1554  E3,1520               TDELTAV            EQUALS   TET        +2                         #  B(6)TMP POSITION DEVIATION    KM*2(14)
002183: E3,1554  E3,1526               TNUV               EQUALS   TDELTAV    +6                         #  B(6)TMP VEL DEVIATION         KM(-1/2)*2(14)
002184: E3,1554  E3,1534               RCV                EQUALS   TNUV       +6                         #  B(6)TMP CONIC POSITION        KM*2(-14)
002185: E3,1554  E3,1542               VCV                EQUALS   RCV        +6                         #  B(6)TMP CONIC VELOCITY        KM(-1/2)*2(6)
002186: E3,1554  E3,1550               TC                 EQUALS   VCV        +6                         #  B(2)TMP TIME SINCE RECTIFICATION
002187: E3,1554  E3,1552               XKEP               EQUALS   TC         +2                         #  B(2)TMP ROOT OF KEPLER EQ     KM(1/2.*2(-10)
002188:
002189:                                                                                                  #  **** TEMP - IN VAC AREA ****
002190: E3,1554                        RRECT1             EQUALS   18D
002191: E3,1554                        VRECT1             EQUALS   24D
002192: E3,1554                        TET1               EQUALS   30D
002193:
002194:                                                                                                  #  PERMANENT STATE VECTORS AND TIMES.    (101D)
002195:
002196:                                                                                                  #  (DO NOT OVERLAY WITH ANYTHING AFTER BOOST)
002197:


002199:                                                                                                  #  (RRECTCSM...XKEPCSM MUST BE KEPT IN THIS ORDER)
002200:
002201: E3,1554                        RRECTCSM           ERASE    +5                                    #  B(6)PRM CSM VARIABLES.
002202: E3,1562  E3,1554               RRECTHIS           =        RRECTCSM
002203: E3,1562                        VRECTCSM           ERASE    +5                                    #  B(6)PRM
002204: E3,1570                        TETCSM             ERASE    +1                                    #  B(2)PRM
002205: E3,1572  E3,1570               TETTHIS            =        TETCSM
002206: E3,1572                        DELTACSM           ERASE    +5                                    #  B(6)PRM
002207: E3,1600                        NUVCSM             ERASE    +5                                    #  B(6)PRM
002208: E3,1606                        RCVCSM             ERASE    +5                                    #  B(6)PRM
002209: E3,1614                        VCVCSM             ERASE    +5                                    #  B(6)PRM
002210: E3,1622                        TCCSM              ERASE    +1                                    #  B(2)PRM
002211: E3,1624                        XKEPCSM            ERASE    +1                                    #  B(2)PRM
002212:
002213:                                                                                                  #  (RRECTLEM...XKEPLEM MUST BE KEPT IN THIS ORDER)
002214:
002215: E3,1626                        RRECTLEM           ERASE    +5                                    #  B(6)PRM LEM VARIABLES
002216: E3,1634  E3,1626               RRECTOTH           =        RRECTLEM
002217: E3,1634                        VRECTLEM           ERASE    +5                                    #  B(6)PRM
002218: E3,1642                        TETLEM             ERASE    +1                                    #  B(2)PRM
002219: E3,1644  E3,1642               TETOTHER           =        TETLEM
002220: E3,1644                        DELTALEM           ERASE    +5                                    #  B(6)PRM
002221: E3,1652                        NUVLEM             ERASE    +5                                    #  B(6)PRM
002222: E3,1660                        RCVLEM             ERASE    +5                                    #  B(6)PRM
002223: E3,1666                        VCVLEM             ERASE    +5                                    #  B(6)PRM
002224: E3,1674                        TCLEM              ERASE    +1                                    #  B(2)PRM
002225: E3,1676                        XKEPLEM            ERASE    +1                                    #  B(2)PRM
002226:
002227: E3,1700                        X789               ERASE    +5
002228: E3,1706                        TEPHEM             ERASE    +2
002229: E3,1711                        AZO                ERASE    +1
002230: E3,1713                        UNITW              ERASE    +5
002231: E3,1721  E3,1713               -AYO               EQUALS   UNITW                                 #  (2)
002232: E3,1721  E3,1715               AXO                EQUALS   UNITW      +2                         #  (2)
002233:
002234:                                                                                                  #  STATE VECTORS FOR DOWNLINK.                   (12D)
002235:
002236: E3,1721                        R-OTHER            ERASE    +5                                    #  B(6)PRM POS VECT (OTHER VECH) FOR DNLINK
002237: E3,1727                        V-OTHER            ERASE    +5                                    #  B(6)PRM VEL VECT (OTHER VECH) FOR DNLINK
002238:
002239: E3,1735  E3,1642               T-OTHER            =        TETLEM                                #              TIME (OTHER VECH) FOR DNLINK
002240:
002241:                                                                                                  #  REFSMMAT.                                     (18D)
002242:
002243: E3,1735                        REFSMMAT           ERASE    +17D                                  #  I(18D)PRM
002244:


002246:                                                                                                  #  AVERAGEG INTEGRATOR STORAGE.                  (8D)
002247: E3,1757                        UNITR              ERASE    +5
002248: E3,1765                        RMAG               ERASE    +1
002249:
002250:                                                                                                  #  **** CONICSEX (PLANETARY INERT. ORIEN.) ****
002251: E3,1767  E3,1706               TIMSUBO            EQUALS   TEPHEM                                #  CSEC B-42 (TRIPLE PREC)
002252: E3,1767  E3,1767               END-E3             EQUALS   RMAG       +2                         #  NEXT UNUSED E3 ADDRESS
002253:


002255:                                                                                                  #  EBANK-4 ASSIGNMENTS
002256:
002257: E4,1400                                           SETLOC   2000
002258:
002259:                                                                                                  #  P20 STORAGE.  -PAD LOADED-            (4D)
002260:
002261: E4,1400                        WRENDPOS           ERASE                                          #  B(1)PL        M B-14
002262: E4,1401                        WRENDVEL           ERASE                                          #  B(1)PL        M/CSECB0
002263: E4,1402                        RMAX               ERASE                                          #  B(1)PL        METERS*2(-19)
002264: E4,1403                        VMAX               ERASE                                          #  B(1)PL        M/CSEC*2(-7)
002265:
002266:                                                                                                  #  P22 STORAGE.  -PAD LOADED-            (5D)
002267: E4,1404                        WORBPOS            ERASE                                          #  B(1)PL        M B-14
002268: E4,1405                        WORBVEL            ERASE                                          #  B(1)PL        M/CSECB0
002269: E4,1406                        S22WSUBL           ERASE                                          #  B(1)PL        M B-14
002270: E4,1407                        RPVAR              ERASE    +1                                    #  B(2)PL
002271:
002272:                                                                                                  #  CONISEX STORAGE.  -PAD LOADED-                (6D)
002273:
002274: E4,1411                        504LM              ERASE    +5                                    #  I(6) MOON LIBRATION VECTOR
002275:
002276:                                                                                                  #  ENTRY STORAGE.    -PAD LOADED-                (2D)
002277: E4,1417                        EMSALT             ERASE    +1                                    #  I(2)PL
002278:
002279:                                                                                                  #  P35 CONSTANTS.    -PAD LOADED-                (4D)
002280: E4,1421                        ATIGINC            ERASE    +1                                    #  B(2)PL
002281: E4,1423                        PTIGINC            ERASE    +1                                    #  B(2)PL
002282:
002283:                                                                                                  #  LUNAR LANDING SIGHT DATA.  -PAD LOADED-       (6D)
002284:                                                                                                  #  (USED BY INTEGRATION INITIALIZATION, LAT-LONG SUBROUTINES, P30'S)
002285:
002286: E4,1425                        RLS                ERASE    +5                                    #  I(6) PL LUNAR LANDING SIGHT VECTOR
002287:
002288:                                                                                                  #  CONISEX (LUNAR AND SOLAR EPHEM) STORAGE.  -PAD LOADED-        (77D)
002289: E4,1433                        TIMEMO             ERASE    +76D
002290: E4,1550  E4,1436               VECOEM             EQUALS   TIMEMO     +3
002291: E4,1550  E4,1532               RESO               EQUALS   VECOEM     +60D


002293: E4,1550  E4,1540               VESO               EQUALS   RESO       +6
002294: E4,1550  E4,1546               OMEGAES            EQUALS   VESO       +6
002295:
002296:                                                                                                  #  FULL INTEGRATION STORAGE.                     (95D)
002297:
002298: E4,1550                        PBODY              ERASE                                          #  I(1)
002299: E4,1551  E4,1551               ALPHAV             EQUALS   PBODY      +1                         #  I(6)TMP
002300: E4,1551  E4,1557               BETAV              EQUALS   ALPHAV     +6                         #  I(6)TMP
002301: E4,1551  E4,1565               PHIV               EQUALS   BETAV      +6                         #  I(6)TMP
002302: E4,1551  E4,1573               PSIV               EQUALS   PHIV       +6                         #  I(6)TMP
002303: E4,1551  E4,1601               FV                 EQUALS   PSIV       +6                         #  I(6)TMP
002304: E4,1551  E4,1607               BETAM              EQUALS   FV         +6                         #  I(6)TMP
002305: E4,1551  E4,1611               H                  EQUALS   BETAM      +2                         #  I(2)TMP
002306: E4,1551  E4,1613               GMODE              EQUALS   H          +2                         #  I(1)TMP
002307: E4,1551  E4,1614               IRETURN            EQUALS   GMODE      +1                         #  I(1)TMP
002308: E4,1551  E4,1615               NORMGAM            EQUALS   IRETURN    +1                         #  I(1)TMP
002309: E4,1551  E4,1616               VECTAB             EQUALS   NORMGAM    +1                         #  I(36)TMP
002310: E4,1551  E4,1662               RPQV               EQUALS   VECTAB     +36D                       #   (6)TMP VECTOR PRIMARY TO SECONDARY BODY
002311: E4,1551  E4,1670               ORIGEX             EQUALS   RPQV       +6                         #  B(1)TMP QSAVE FOR COORD. SWITCH. ROUTINE
002312: E4,1551  E4,1670               KEPRTN             EQUALS   ORIGEX                                #          QSAVE FOR KEPLER
002313: E4,1551  E4,1671               RQVV               EQUALS   ORIGEX     +1                         #   (6)    SEC. BODY TO VEH. VETOR (USED P23)
002314: E4,1551  E4,1677               RPSV               EQUALS   RQVV       +6                         #   (6)TMP SUN TO PRIMARY BODY VECTOR
002315: E4,1551  E4,1705               XKEPNEW            EQUALS   RPSV       +6                         #   (2)TMP ROOT OF KEPLERS EQU FOR TIME TAU
002316:
002317:                                                                                                  #  THESE PROBABLY CAN SHARE INTEGRATION VARIABLES.               (9D)
002318:
002319: E4,1551  E4,1623               VACX               EQUALS   VECTAB     +5                         #  I(2)TMP
002320: E4,1551  E4,1625               VACY               EQUALS   VACX       +2                         #  I(2)TMP
002321: E4,1551  E4,1627               VACZ               EQUALS   VACY       +2                         #  I(2)TMP
002322:
002323: E4,1551  E4,1640               ERADM              EQUALS   VECTAB     +18D                       #  I(2)TMP
002324: E4,1551  E4,1642               INCORPEX           EQUALS   ERADM      +2                         #  I(1)TMP
002325:
002326:                                                                                                  #  R31 (V83) STORAGE. -SHARES WITH INTEGRATION STORAGE-  (28D)
002327:
002328: E4,1551  E4,1624               BASEOTP            EQUALS   VECTAB     +6                         #  I(6) BASE POS VECTOR OTHER VEH
002329: E4,1551  E4,1640               BASEOTV            EQUALS   VECTAB     +18D                       #  I(6) BASE VEL VECTOR OTHER VEH
002330: E4,1551  E4,1654               BASETHP            EQUALS   VECTAB     +30D                       #  I(6) BASE POS VECTOR THIS VEH
002331: E4,1551  E4,1662               BASETHV            EQUALS   RPQV                                  #  I(6) BASE VEL VECTOR THIS VEH
002332: E4,1551  E4,1671               BASETIME           EQUALS   RQVV                                  #  I(2) TIME ASSOC WITH BASE VECS
002333: E4,1551  E4,1673               ORIG               EQUALS   RQVV       +2                         #  I(1) =0 FOR EARTH     =+2 FOR MOON
002334:
002335:                                                                                                  #  CONIC INTEGRATION STORAGE. -MAY NOT SHARE WITH SERVICER-      (6D)
002336: E4,1551  E4,1707               ALPHAM             EQUALS   XKEPNEW    +2                         #  I(2)TMP
002337:


002339: E4,1551  E4,1711               TAU.               EQUALS   ALPHAM     +2                         #  I(2)TMP
002340: E4,1551  E4,1713               DT/2               EQUALS   TAU.       +2                         #  I(2)TMP
002341:
002342:                                                                                                  #  P21 STORAGE.                                  (2D)
002343: E4,1551  E4,1715               P21TIME            EQUALS   DT/2       +2                         #  B(2)TMP
002344:
002345:                                                                                                  #  INCORPORATION/VERB 83 COMMON STORAGE.         (1D)
002346: E4,1551  E4,1717               EGRESS             EQUALS   P21TIME    +2                         #  I(1)TMP SAVES RETURNS.
002347:
002348:                                                                                                  #  VERB 83 STORAGE.      MAY SHARE ONLY WITH INCORPORATION.      (18D)
002349:
002350: E4,1551  E4,1720               RANGE              EQUALS   EGRESS     +1                         #  I(2)DSP NOUN 54 DISTANCE TO OPTICAL SUBJ
002351: E4,1551  E4,1722               RRATE              EQUALS   RANGE      +2                         #  I(2)DSP NOUN 54 RATE OF APPROACH
002352: E4,1551  E4,1724               RTHETA             EQUALS   RRATE      +2                         #  I(2)DSP NOUN 54
002353: E4,1551  E4,1726               RONE               EQUALS   RTHETA     +2                         #  I(6)TMP VECTOR STORAGE.  (SCRATCH)
002354: E4,1551  E4,1734               VONE               EQUALS   RONE       +6                         #  I(6)TMP VECTOR STORAGE.  (SCRATCH)
002355:
002356:                                                                                                  #  LUNAR LANDMARK SELECTION PROGRAM - R35        (28D)
002357: E4,1551  E4,1720               XR1HOLD            EQUALS   RANGE                                 #  I(2)
002358: E4,1551  E4,1722               VECTIME            EQUALS   XR1HOLD    +2                         #  I(2)
002359: E4,1551  E4,1724               JLOOPCNT           EQUALS   VECTIME    +2                         #  I(1)
002360: E4,1551  E4,1725               KLOOPCNT           EQUALS   JLOOPCNT   +1                         #  I(1)
002361: E4,1551  E4,1726               NKVAL              EQUALS   KLOOPCNT   +1                         #  I(1)
002362: E4,1551  E4,1727               DELTAL             EQUALS   NKVAL      +1                         #  I(2)
002363: E4,1551  E4,1731               TK                 EQUALS   DELTAL     +2                         #  I(2)
002364: E4,1551  E4,1733               INDEXNUM           EQUALS   TK         +2                         #  I(1)
002365:
002366: E4,1551  E4,1734               LONGSAVE           EQUALS   INDEXNUM   +1                         #  I(2)
002367: E4,1551  E4,1736               POSVECT            EQUALS   LONGSAVE   +2                         #  I(6)
002368: E4,1551  E4,1744               VELVECT            EQUALS   POSVECT    +6                         #  I(6)
002369: E4,1551  E4,1752               LSLONG             EQUALS   VELVECT    +6                         #  I(2)TMP LONGITUDE OF LANDING SIGHT
002370:
002371:                                                                                                  #  S-BAND ANTENNA GIMBAL ANGLES.  DISPLAYED BY R05 (EXT.VB.64)   (4D)
002372:                                                                                                  #                        OPERATION DURING P00 ONLY.
002373: E4,1551  E4,1720               RHOSB              EQUALS   RANGE                                 #  B(2)DSP NOUN 51. PITCH ANGLE
002374: E4,1551  E4,1722               GAMMASB            EQUALS   RHOSB      +2                         #  B(2)DSP NOUN 51. YAWANGLE
002375:
002376:                                                                                                  #  R 36 SCRATCHPAD STORAGE               (12)


002378: E4,1551  E4,1726               RPASS36            EQUALS   RONE                                  #  I(6) S-S
002379: E4,1551  E4,1734               UNP36              EQUALS   RPASS36    +6                         #  I(6) S-S
002380:
002381:                                                                                                  #  EXTENDED VERB 82 STORAGE.
002382:                                                                                                  #  (*** THE SHARING IN THIS SECTION IS TEMPORARY ONLY****)       (8D)
002383:
002384: E4,1551  E4,1720               HPERMIN            EQUALS   RANGE                                 #  I(2) SET TO 300KFT OR 35KFTFOR SR30.1
002385: E4,1551  E4,1722               RPADTEM            EQUALS   HPERMIN    +2                         #  I(2) PAD OR LANDING RADIUS FOR SR30.1
002386: E4,1551  E4,1724               TSTART82           EQUALS   RPADTEM    +2                         #  I(2) TEMP TIME STORAGE FOR V82.
002387:
002388:                                                                                                  #  MORE VERB 82 NOT SHARING WITH VERB 83         (9D)
002389: E4,1551  E4,1742               V82FLAGS           EQUALS   VONE       +6                         #   (1) FOR V 82 BITS
002390: E4,1551  E4,1743               TFF                EQUALS   V82FLAGS   +1                         #  I(2)DSP NOUN 42,  , FOR P30,40,41.
002391: E4,1551  E4,1745               -TPER              EQUALS   TFF        +2                         #  I(2)DSP NOUN 32
002392: E4,1551  E4,1747               THETA(1)           EQUALS   -TPER      +2                         #  I(2)TMP SET AT END OF V82
002393: E4,1551  E4,1755               RSP-RREC           EQUALS   AOPTIME                               #  DSP NOUN R32
002394:
002395:                                                                                                  #  REENTRY CONICS                                (6D)
002396: E4,1551  E4,1742               URONE              EQUALS   V82FLAGS                              #  I(6) SAVE ACTUAL FOR CALCULATIONS
002397:
002398:                                                                                                  #  V82 DISPLAY                                   (4D)
002399: E4,1551  E4,1751               HAPOX              EQUALS   THETA(1)   +2                         #  I(2)DSP NOUN 44
002400: E4,1551  E4,1753               HPERX              EQUALS   HAPOX      +2                         #  I(2)DSP NOUN 44
002401:
002402:                                                                                                  #  VARIOUS DISPLAY REGISTERS.                    (06D)
002403: E4,1551  E4,1755               AOPTIME            EQUALS   HPERX      +2
002404: E4,1551  E4,1757               LANDLONG           EQUALS   AOPTIME    +2                         #  I(2) DSP NOUN 89 FOR P22
002405: E4,1551  E4,1761               LANDALT            EQUALS   LANDLONG   +2                         #  I(2)DSP NOUN 89 FOR P22.
002406:
002407:                                                                                                  #  S34/35.5,P34-P35 STORAGE.                     (6D)
002408: E4,1551  E4,1763               KT                 EQUALS   LANDALT    +2                         #  B(2)
002409: E4,1551  E4,1765               VERBNOUN           EQUALS   KT         +2                         #  B(1)TMP
002410: E4,1551  E4,1766               QSAVED             EQUALS   VERBNOUN   +1                         #  B(1)TMP HOLDS RETURN


002412: E4,1551  E4,1767               RTRN               EQUALS   QSAVED     +1                         #  B(1) RETURN
002413: E4,1551  E4,1770               SUBEXIT            EQUALS   RTRN       +1                         #  B(1)TMP
002414:                                                                                                  #  RGEXIT CANT SHARE WITH HPER,HAPO
002415: E4,1551  E4,1770               RGEXIT             EQUALS   SUBEXIT                               #  I(1)TMP Q SAVE MODE 1 AND 2 TO RTRN MAIN
002416:
002417:                                                                                                  #  P30 DISPLAY                                   (4D)
002418: E4,1551  E4,1763               HAPO               EQUALS   KT                                    #  I(2)DSP NOUN 42, FOR P30.
002419: E4,1551  E4,1765               HPER               EQUALS   HAPO       +2                         #  I(2)DSP NOUN 42, FOR P30.
002420:
002421:                                                                                                  #  SOME P34 STORAGE.     (OVERLAYS P35.1 STORAGE)        (2D)
002422: E4,1551  E4,1763               NOMTPI             EQUALS   KT                                    #  I(2)TMP NOMINAL TPI TIME FOR RECYCLE
002423:
002424:                                                                                                  #  THE FOLLOWING ARE ERASABLES USED BY THE SYSTEM TESTS.  205 USES TRANSM1 GS ARE NOT USED IN 205 NOR ARE THEY
002425:                                                                                                  #  WHILE 504 USES TRANSM1 AND ALFDK .
002426: E4,1551                        TRANSM1            EQUALS   2000                                  #  (18) INITIALIZATION FOR IMU TESTS
002427: E4,1551  E4,1422               ALFDK              =        TRANSM1    +18D                       #  (144) ERASABLE LOAD IN 504
002428:
002429:                                                                                                  #  END OF PERF. TEST ERASABLE IN BANK 4
002430:
002431:                                                                                                  #  *-*-* V82 *-*-*                               (6D)
002432:
002433: E4,1551  E4,1771               VONE'              EQUALS   RGEXIT     +1                         #  I(6)TMP NORMAL VELOCITY VONE / SQ RT MU
002434:
002435:                                                                                                  #  PAD LOAD INTEGRATION ERROR INCLUDED IN VARIANCE BY P20        (1D)
002436:
002437: E4,1551  E4,1777               INTVAR             EQUALS   VONE'      +6                         #  I(1)PL        SQUARE OF EXPECTED INTEGRATION
002438:                                                                                                  #                POSITION EXTRAPOLATION ERROR.
002439:                                                                                                  #                SCALED METERS(2) 2(15)
002440: E4,1551  E4,1777               END-E4             EQUALS   INTVAR                                #  LAST USED ERASABLE IN E4
002441:


002443:                                                                                                  #  EBANK-5 ASSIGNMENTS
002444:
002445: E5,1400                                           SETLOC   2400
002446:
002447:                                                                                                  #  *-*-*-*- OVERLAY 1 IN EBANK 5 -*-*-*-*
002448:
002449:                                                                                                  #  W-MATRIX STORAGE.                             (162D)
002450:
002451: E5,1400                        W                  EQUALS   2400                                  #  B(162)
002452: E5,1400  E5,1570               EMATRIX            =        W          +120D                      #  B(42E USED TO CONVERT W TO 6X6
002453: E5,1400  E5,1642               END-W              EQUALS   W          +162D                      #  **NEXT AVAILABLE LOC AFTER W MATRIX**
002454:
002455:                                                                                                  #  AUTO-OPTICS STORAGE -R52-
002456:
002457:                                                                                                  #  DO NOT MOVE FROM E5,1554.  A DELICATE BALANCE EXISTS BETWEEN THIS AND P03
002458: E5,1400  E5,1554               XNB1               EQUALS   W          +108D                      #  B(6D)TMP
002459: E5,1400  E5,1562               YNB1               EQUALS   XNB1       +6                         #  B(6)TMP
002460: E5,1400  E5,1570               ZNB1               EQUALS   YNB1       +6                         #  B(6)TMP
002461: E5,1400  E5,1576               SAVQR52            EQUALS   ZNB1       +6                         #  I(2)TMP
002462: E5,1400  E5,1600               PLANVEC            EQUALS   SAVQR52    +2                         #  B(6) S-S SIGHTING VECTOR IN REF. COOR.
002463: E5,1400  E5,1606               TSIGHT             EQUALS   PLANVEC    +6                         #  B(2) S-S TIME OF SIGHTING
002464:
002465:                                                                                                  #  RENDEZVOUS -P34-35                    (26D)
002466: E5,1400  E5,1610               DVLOS              EQUALS   TSIGHT     +2                         #  I(6) S-S DELTA VELOCITY, LOS COORD-DISPL1
002467: E5,1400  E5,1610               DELTAR             EQUALS   DVLOS                                 #  I(2)
002468: E5,1400  E5,1610               TINTSOI            EQUALS   DELTAR                                #  I(2) INTERCEPT TIME FOR SOI MANEUVER
002469: E5,1400  E5,1612               DELTTIME           EQUALS   DVLOS      +2                         #  I(2)
002470: E5,1400  E5,1614               TARGTIME           EQUALS   DVLOS      +4                         #  I(2)
002471: E5,1400  E5,1616               UNRM               EQUALS   DVLOS      +6                         #  I(6) S-S
002472: E5,1400  E5,1624               ULOS               EQUALS   UNRM       +6                         #  I(6) S-S UNIT LINE OF SIGHT VECTOR
002473: E5,1400  E5,1632               ACTCENT            EQUALS   ULOS       +6                         #  I(2) S-S CENTRAL ANGLE BETWEEN ACTIVE
002474:                                                                                                  #       VEH AT TPI IGNITION TIME AND
002475:                                                                                                  #       TARGET VECTOR.
002476: E5,1400  E5,1634               DELVTPI            EQUALS   ACTCENT    +2                         #  I(2) NOUN 58 FOR P34.
002477: E5,1400  E5,1636               DELVTPF            EQUALS   DELVTPI    +2                         #  I(2) NOUN 58,59 FOR P34,35.
002478: E5,1400  E5,1640               POSTTPI            EQUALS   DELVTPF    +2                         #  I(2) NOUN 58 FOR P34.
002479: E5,1400  E5,1634               TDEC2              EQUALS   DELVTPI                               #   (2)
002480:
002481:                                                                                                  #  ALIGNMENT                                     (12D)
002482: E5,1400  E5,1610               STARSAV1           EQUALS   DVLOS                                 #  I(6)TMP RESTART STAR SAVE.
002483: E5,1400  E5,1616               STARSAV2           EQUALS   STARSAV1   +6                         #  I(6)TMP RESTART STAR SAVE.


002485: E5,1400  E5,1616               US                 =        STARSAV2                              #  (CISLUNAR TAG FOR STARSAV2).
002486:
002487:                                                                                                  #  TPI SEARCH                                    (26D)
002488: E5,1400  E5,1610               IT                 EQUALS   DVLOS                                 #   (6)
002489: E5,1400  E5,1616               THETZERO           EQUALS   IT         +6                         #   (2)
002490: E5,1400  E5,1620               TFI                EQUALS   THETZERO   +2                         #   (2)
002491: E5,1400  E5,1622               DELVEE             EQUALS   TFI        +2                         #   (2)
002492: E5,1400  E5,1624               HP                 EQUALS   DELVEE     +2                         #   (2)
002493: E5,1400  E5,1626               TFO                EQUALS   HP         +2                         #   (2)
002494: E5,1400  E5,1630               HPO                EQUALS   TFO        +2                         #   (2)
002495: E5,1400  E5,1632               DELVEO             EQUALS   HPO        +2                         #   (2)
002496: E5,1400  E5,1634               MAGVTPI            EQUALS   DELVEO     +2                         #  I(2)TMP MAG OF DELTAVTPI OR VMID
002497: E5,1400  E5,1636               RELDELV            EQUALS   MAGVTPI    +2                         #  I(2)TMP MAG OF DELTAVTPF
002498: E5,1400  E5,1640               T3TOT4             EQUALS   RELDELV    +2                         #  I(2)DSP NOUN 39 FOR P34,35.  TPI TO TIN
002499:                                                                                                  #  T(CANNOT SHARE WITH RETURN TO EARTH)


002501:                                                                                                  #  ALIGNMENT/SYSTEST/CALCSMSC/CRS61.1 COMMON STORAGE.    (36D)
002502:                                                                                                  #  (CALCSMSC IS A SUBSET OF S41.1 AT LEAST)
002503:                                                                                                  #  (CRS61.1 IS A SUBSET OF P20)
002504:
002505: E5,1400  E5,1671               XSM                EQUALS   END-W      +23D                       #  B(6)
002506: E5,1400  E5,1677               YSM                EQUALS   XSM        +6                         #  B(6)TMP
002507: E5,1400  E5,1705               ZSM                EQUALS   YSM        +6                         #  B(6)TMP
002508:
002509: E5,1400  E5,1713               XDC                EQUALS   ZSM        +6                         #  B(6)TMP
002510: E5,1400  E5,1721               YDC                EQUALS   XDC        +6                         #  B(6)TMP
002511: E5,1400  E5,1727               ZDC                EQUALS   YDC        +6                         #  B(6)TMP
002512:
002513: E5,1400  E5,1713               XNB                =        XDC
002514: E5,1400  E5,1721               YNB                =        YDC
002515: E5,1400  E5,1727               ZNB                =        ZDC
002516:
002517:                                                                                                  #  OVERLAYS WITHIN ALIGNMENT/SYSTEST/CALCSMSC COMMON STORAGE.
002518:
002519: E5,1400  E5,1673               -COSB              EQUALS   XSM        +2                         #  (2)TMP
002520: E5,1400  E5,1675               SINB               EQUALS   -COSB      +2                         #  (2)TMP
002521:
002522:                                                                                                  #  ALIGNMENT/SYSTEST COMMON STORAGE.             (18D)
002523:
002524: E5,1400  E5,1735               STARAD             EQUALS   ZDC        +6                         #  I(18D)TMP
002525:
002526:                                                                                                  #  ALIGNMENT/SYSTEST/AUTO OPTICS COMMON STORAGE. (17D)
002527:
002528: E5,1400  E5,1757               OGC                EQUALS   STARAD     +18D                       #  I(2)TMP
002529: E5,1400  E5,1761               IGC                EQUALS   OGC        +2                         #  I(2)TMP
002530: E5,1400  E5,1763               MGC                EQUALS   IGC        +2                         #  I(2)TMP
002531: E5,1400  E5,1765               STAR               EQUALS   MGC        +2                         #  I(6)TMP
002532: E5,1400  E5,1773               SAC                EQUALS   STAR       +6                         #  I(2)TMP
002533: E5,1400  E5,1775               PAC                EQUALS   SAC        +2                         #  I(2)TMP
002534: E5,1400  E5,1777               QMIN               EQUALS   PAC        +2                         #  B(1)TMP
002535:
002536:                                                                                                  #  **** COLP50S ****                     (1D)
002537: E5,1400  E5,1735               CULTRIX            EQUALS   VEARTH                                #  VEARTH, VSUN, VMOON
002538:
002539:                                                                                                  #  OVERLAYS WITHIN ALIGNMENT/SYSTEST COMMON STORAGE.     (24D)
002540:
002541: E5,1400  E5,1735               VEARTH             EQUALS   STARAD                                #  (6)TMP
002542: E5,1400  E5,1743               VSUN               EQUALS   VEARTH     +6                         #  (6)TMP
002543: E5,1400  E5,1751               VMOON              EQUALS   VSUN       +6                         #  (6)TMP
002544: E5,1400  E5,1757               SAX                EQUALS   VMOON      +6                         #  (6)TMP
002545:


002547:                                                                                                  #  *-*-*-*- OVERLAY 2 IN EBANK 5 -*-*-*-*
002548:
002549:                                                                                                  #  CONIC ROUTINES STORAGE.                       (87D)
002550:
002551: E5,1400  E5,1642               DELX               EQUALS   END-W                                 #  I(2)TMP
002552: E5,1400  E5,1644               DELT               EQUALS   DELX       +2                         #  I(2)TMP
002553: E5,1400  E5,1646               URRECT             EQUALS   DELT       +2                         #  I(6)TMP
002554: E5,1400  E5,1654               RCNORM             EQUALS   URRECT     +6                         #  I(2)TMP
002555: E5,1400  E3,1552               XPREV              EQUALS   XKEP                                  #  I(2)TMP
002556: E5,1400  E5,1656               R1VEC              EQUALS   RCNORM     +2                         #  I(6)TMP
002557: E5,1400  E5,1664               R2VEC              EQUALS   R1VEC      +6                         #  I(6)TMP
002558: E5,1400  E5,1672               TDESIRED           EQUALS   R2VEC      +6                         #  I(2)TMP
002559: E5,1400  E5,1674               GEOMSGN            EQUALS   TDESIRED   +2                         #  I(1)TMP
002560: E5,1400  E5,1675               UN                 EQUALS   GEOMSGN    +1                         #  I(6)TMP
002561: E5,1400  E5,1703               VTARGTAG           EQUALS   UN         +6                         #  I(1)TMP
002562: E5,1400  E5,1704               VTARGET            EQUALS   VTARGTAG   +1                         #  I(6)TMP
002563: E5,1400  E5,1712               RTNLAMB            EQUALS   VTARGET    +6                         #  I(1)TMP
002564: E5,1400  E5,1713               U2                 EQUALS   RTNLAMB    +1                         #  I(6)TMP
002565: E5,1400  E5,1721               MAGVEC2            EQUALS   U2         +6                         #  I(2)TMP
002566: E5,1400  E5,1723               UR1                EQUALS   MAGVEC2    +2                         #  I(6)TMP
002567: E5,1400  E5,1731               SNTH               EQUALS   UR1        +6                         #  I(2)TMP
002568: E5,1400  E5,1733               CSTH               EQUALS   SNTH       +2                         #  I(2)TMP
002569: E5,1400  E5,1735               1-CSTH             EQUALS   CSTH       +2                         #  I(2)TMP
002570: E5,1400  E5,1737               CSTH-RHO           EQUALS   1-CSTH     +2                         #  I(2)TMP
002571: E5,1400  E5,1741               P                  EQUALS   CSTH-RHO   +2                         #  I(2)TMP
002572: E5,1400  E5,1743               R1A                EQUALS   P          +2                         #  I(2)TMP
002573: E5,1400  E5,1656               RVEC               EQUALS   R1VEC                                 #  I(6)TMP
002574: E5,1400  E5,1745               VVEC               EQUALS   R1A        +2                         #  I(6)TMP
002575: E5,1400  E5,1712               RTNTT              EQUALS   RTNLAMB                               #  I(1)TMP
002576: E5,1400  E5,1753               ECC                EQUALS   VVEC       +6                         #  I(2)TMP
002577: E5,1400  E5,1712               RTNTR              EQUALS   RTNLAMB                               #  I(1)TMP
002578: E5,1400  E5,1712               RTNAPSE            EQUALS   RTNLAMB                               #  I(1)TMP
002579: E5,1400  E5,1721               R2                 EQUALS   MAGVEC2                               #  I(2)TMP
002580: E5,1400  E5,1755               RTNPRM             EQUALS   ECC        +2                         #  I(1)TMP
002581: E5,1400  E5,1756               SGNRDOT            EQUALS   RTNPRM     +1                         #  I(1)TMP
002582: E5,1400  E5,1757               RDESIRED           EQUALS   SGNRDOT    +1                         #  I(2)TMP
002583: E5,1400  E5,1761               DELDEP             EQUALS   RDESIRED   +2                         #  I(2)TMP
002584: E5,1400  E5,1763               DEPREV             EQUALS   DELDEP     +2                         #  I(2)TMP
002585: E5,1400  E5,1761               TERRLAMB           EQUALS   DELDEP                                #  I(2)TMP
002586: E5,1400  E5,1763               TPREV              EQUALS   DEPREV                                #  I(2)TMP


002588:                                                                                                  #  *-*-*-*- OVERLAY 3 IN EBANK 5 -*-*-*-*
002589:
002590:                                                                                                  #  MEASUREMENT INCORPORATION STORAGE.            (66D)
002591:                                                                                                  #  (CALLED BY P20, P22, P23)
002592:
002593: E5,1400  E5,1642               OMEGAM1            EQUALS   END-W                                 #  I(6)TMP
002594: E5,1400  E5,1650               OMEGAM2            EQUALS   OMEGAM1    +6                         #  I(6)TMP
002595: E5,1400  E5,1656               OMEGAM3            EQUALS   OMEGAM2    +6                         #  I(6)TMP
002596: E5,1400  E5,1664               HOLDW              EQUALS   OMEGAM3    +6                         #  I(18)TMP
002597: E5,1400  E5,1706               TDPOS              EQUALS   HOLDW      +18D                       #  I(6)TMP
002598: E5,1400  E5,1714               TDVEL              EQUALS   TDPOS      +6                         #  I(6)TMP
002599:
002600: E5,1400  E5,1722               ZI                 EQUALS   TDVEL      +6                         #  I(18)
002601:
002602:                                                                                                  #  P22-P23 STORAGE.                              (8D)
002603:
002604: E5,1400  E5,1744               22SUBSCL           EQUALS   ZI         +18D                       #  DE OF ABCDE LANDMARK ID NO.
002605: E5,1400  E5,1745               CXOFF              EQUALS   22SUBSCL   +1                         #  B OF ABCDE OFFSET INDICATOR
002606: E5,1400  E5,1746               8KK                EQUALS   CXOFF      +1                         #  B(1)TMP INDEX OF PRESENT MARK.
002607: E5,1400  E5,1747               8NN                EQUALS   8KK        +1                         #  B(1)TMP
002608: E5,1400  E5,1750               S22LOC             EQUALS   8NN        +1                         #  I(1)TMP MARK DATA LOC
002609: E5,1400  E5,1751               LANDMARK           EQUALS   S22LOC     +1                         #  B(1)DSP NOUN 70 FOR P22,51, R52,53.
002610: E5,1400  E5,1752               HORIZON            EQUALS   LANDMARK   +1                         #  B(1)DSP NOUN 70 FOR P22,51, R52,53.
002611: E5,1400  E5,1753               IDOFLMK            EQUALS   HORIZON    +1                         #  B(1)
002612:
002613:                                                                                                  #  ******P23***                                  (1D)
002614: E5,1400  E5,1754               TRUNION            EQUALS   IDOFLMK    +1                         #  B(1)
002615:


002617:
002618:                                                                                                  #  *-*-*-*- OVERLAY 0 IN EBANK 5 -*-*-*-*
002619:
002620:                                                                                                  #  SYSTEM TEST STORAGE.                          (174)
002621:
002622: E5,1400                        AZIMUTH            ERASE    +1
002623: E5,1402                        LATITUDE           ERASE    +1
002624:
002625: E5,1404     1160               TRUNA              EQUALS   DESOPTT
002626: E5,1404     1161               SHAFTA             EQUALS   DESOPTS
002627:
002628: E5,1404                        ERVECTOR           ERASE    +5
002629: E5,1412                        LENGTHOT           ERASE
002630: E5,1413                        LOSVEC             ERASE    +5
002631:
002632: E5,1421  E5,1413               SXTOPTN            =        LOSVEC
002633: E5,1421                        NDXCTR             ERASE
002634: E5,1422                        PIPINDEX           ERASE
002635: E5,1423                        POSITON            ERASE
002636: E5,1424                        QPLAC              ERASE
002637: E5,1425                        QPLACE             ERASE
002638: E5,1426                        QPLACES            ERASE
002639: E5,1427                        RUN                ERASE
002640: E5,1430                        STOREPL            ERASE
002641: E5,1431                        SOUTHDR            ERASE
002642: E5,1432  E5,1431               TARG1/2            =        SOUTHDR
002643: E5,1432                        TAZEL1             ERASE    +5
002644: E5,1440                        TEMPTIME           ERASE    +1
002645: E5,1442                        TMARK              ERASE    +1
002646: E5,1444                        GENPL              ERASE    +134D
002647: E5,1653  E5,1444               CDUTIMEI           =        GENPL
002648: E5,1653  E5,1446               CDUTIMEF           =        GENPL      +2
002649: E5,1653  E5,1450               IMU/OPT            =        GENPL      +4
002650: E5,1653  E5,1451               CDUREADF           =        GENPL      +5
002651: E5,1653  E5,1452               CDUREADI           =        GENPL      +6
002652: E5,1653  E5,1453               CDULIMIT           =        GENPL      +7
002653:
002654: E5,1653  E5,1450               TEMPADD            =        GENPL      +4
002655: E5,1653  E5,1451               TEMP               =        GENPL      +5
002656: E5,1653  E5,1452               NOBITS             =        GENPL      +6
002657: E5,1653  E5,1453               CHAN               =        GENPL      +7
002658:
002659: E5,1653  E5,1454               LOS1               =        GENPL      +8D
002660: E5,1653  E5,1462               LOS2               =        GENPL      +14D
002661:
002662: E5,1653  E5,1470               CALCDIR            EQUALS   GENPL      +20D
002663: E5,1653  E5,1471               CDUFLAG            EQUALS   GENPL      +21D
002664: E5,1653  E5,1472               GYTOBETQ           EQUALS   GENPL      +22D
002665: E5,1653  E5,1473               OPTNREG            EQUALS   GENPL      +23D
002666: E5,1653  E5,1474               SAVE               EQUALS   GENPL      +24D                       #  THREE CONSEC LOC
002667: E5,1653  E5,1477               SFCONST1           EQUALS   GENPL      +27D


002669: E5,1653  E5,1500               TIMER              EQUALS   GENPL      +28D
002670:
002671: E5,1653  E5,1502               DATAPL             EQUALS   GENPL      +30D
002672: E5,1653  E5,1444               RDSP               EQUALS   GENPL                                 #  FIX LATER     POSSIBLY KEEP1
002673: E5,1653  E5,1544               MASKREG            EQUALS   GENPL      +64D
002674: E5,1653  E5,1546               CDUNDX             EQUALS   GENPL      +66D
002675: E5,1653  E5,1547               RESULTCT           EQUALS   GENPL      +67D
002676: E5,1653  E5,1552               COUNTPL            EQUALS   GENPL      +70D
002677:
002678: E5,1653  E5,1553               CDUANG             EQUALS   GENPL      +71D
002679: E5,1653  E5,1444               AINLA              =        GENPL                                 #  OPTIMUM CALIB. AND ALIGNMENT
002680: E5,1653  E5,1444               WANGO              EQUALS   AINLA
002681: E5,1653  E5,1446               WANGI              EQUALS   AINLA      +2D
002682: E5,1653  E5,1450               WANGT              EQUALS   AINLA      +4D
002683: E5,1653  E5,1450               TORQNDX            =        WANGT
002684: E5,1653  E5,1452               DRIFTT             EQUALS   AINLA      +6D
002685: E5,1653  E5,1454               ALX1S              EQUALS   AINLA      +8D
002686: E5,1653  E5,1455               CMPX1              EQUALS   AINLA      +9D
002687: E5,1653  E5,1456               ALK                EQUALS   AINLA      +10D
002688: E5,1653  E5,1472               VLAUNS             EQUALS   AINLA      +22D
002689: E5,1653  E5,1460               THETAX             =        ALK        +2
002690: E5,1653  E5,1474               WPLATO             EQUALS   AINLA      +24D
002691: E5,1653  E5,1500               INTY               EQUALS   AINLA      +28D
002692: E5,1653  E5,1466               THETAN             =        THETAX     +6
002693: E5,1653  E5,1502               ANGZ               EQUALS   AINLA      +30D
002694: E5,1653  E5,1504               INTZ               EQUALS   AINLA      +32D
002695: E5,1653  E5,1506               ANGY               EQUALS   AINLA      +34D
002696: E5,1653  E5,1510               ANGX               EQUALS   AINLA      +36D
002697: E5,1653  E5,1512               DRIFTO             EQUALS   AINLA      +38D
002698: E5,1653  E5,1514               DRIFTI             EQUALS   AINLA      +40D
002699: E5,1653  E5,1520               VLAUN              EQUALS   AINLA      +44D
002700: E5,1653  E5,1474               FILDELV            =        THETAN     +6
002701: E5,1653  E5,1522               ACCWD              EQUALS   AINLA      +46D
002702: E5,1653  E5,1476               INTVEC             =        FILDELV    +2
002703: E5,1653  E5,1530               POSNV              EQUALS   AINLA      +52D
002704: E5,1653  E5,1532               DPIPAY             EQUALS   AINLA      +54D
002705: E5,1653  E5,1536               DPIPAZ             EQUALS   AINLA      +58D
002706: E5,1653  E5,1540               ALTIM              EQUALS   AINLA      +60D
002707: E5,1653  E5,1541               ALTIMS             EQUALS   AINLA      +61D
002708: E5,1653  E5,1542               ALDK               EQUALS   AINLA      +62D
002709: E5,1653  E5,1560               DELM               EQUALS   AINLA      +76D
002710: E5,1653  E5,1570               WPLATI             EQUALS   AINLA      +84D
002711: E5,1653  E5,1577               RESTARPT           =        AINLA      +91D
002712: E5,1653  E5,1631               GEOSAVED           =        AINLA      +117D
002713: E5,1653  E5,1632               PREMTRXC           =        AINLA      +118D
002714: E5,1653  E5,1633               LAUNCHAZ           =        AINLA      +119D
002715: E5,1653  E5,1635               NEWAZMTH           =        AINLA      +121D
002716: E5,1653  E5,1637               OLDAZMTH           =        AINLA      +123D


002718: E5,1653  E5,1641               TOLDAZMT           =        AINLA      +125D
002719: E5,1653  E5,1643               GEOCOMPS           =        AINLA      +127D
002720: E5,1653  E5,1644               1SECXT             =        AINLA      +128D
002721: E5,1653  E5,1645               GTSXTLST           =        AINLA      +129D
002722: E5,1653  E5,1646               ERECTIME           =        AINLA      +130D
002723: E5,1653  E5,1647               ERCOMP             =        AINLA      +131D
002724: E5,1653  E5,1655               ZERONDX            =        AINLA      +137D
002725: E5,1653  E5,1655               GTSOPNDZ           =        ZERONDX
002726:
002727:                                                                                                  #  THE FOLLOWING TAGS ARE USED BY THE 504 IMU CALIBRATION AND ALIGNMENT PROGRAM ONLY.
002728:
002729: E5,1653  E5,1460               THETAX1            EQUALS   ALK        +2
002730: E5,1653  E5,1466               THETAN1            EQUALS   THETAX1    +6
002731: E5,1653  E5,1474               FILDELV1           EQUALS   THETAN1    +6
002732: E5,1653  E5,1476               INTVEC1            EQUALS   FILDELV1   +2
002733: E5,1653  E5,1631               GEOSAVE1           EQUALS   AINLA      +117D
002734: E5,1653  E5,1632               PREMTRX1           EQUALS   AINLA      +118D
002735: E5,1653  E5,1633               LUNCHAZ1           EQUALS   AINLA      +119D
002736: E5,1653  E5,1635               NEWAZ1             EQUALS   LUNCHAZ1   +2
002737: E5,1653  E5,1637               OLDAZ1             EQUALS   LUNCHAZ1   +4
002738: E5,1653  E5,1641               TOLDAZ1            EQUALS   LUNCHAZ1   +6
002739: E5,1653  E5,1643               GEOCOMP1           EQUALS   AINLA      +127D
002740: E5,1653  E5,1644               1SECXT1            EQUALS   AINLA      +128D
002741: E5,1653  E5,1645               GTSWTLT1           EQUALS   AINLA      +129D
002742: E5,1653  E5,1646               ERECTIM1           EQUALS   AINLA      +130D
002743: E5,1653  E5,1647               ERCOMP1            EQUALS   AINLA      +131D                      #  I(6)
002744: E5,1653  E5,1655               ZERONDX1           EQUALS   AINLA      +137D
002745: E5,1653  E5,1656               PERFDLAY           EQUALS   AINLA      +138D                      #  B(2).........
002746:
002747:                                                                                                  #  END OF 504 CAL + ALIGN ERASE.
002748: E5,1653  E5,1777               END-E5             EQUALS   QMIN                                  #  LAST USED E5 ADDRESS
002749:


002751:                                                                                                  #  EBANK-6 ASSIGNMENTS
002752:
002753: E6,1400                                           SETLOC   3000
002754:                                                                                                  #  P23   PAD LOADS ***                           (2D).
002755: E6,1400                        WMIDPOS            ERASE                                          #  I(1)PL INITIAL VALUES FOR W-MATRIX IN
002756: E6,1401                        WMIDVEL            ERASE                                          #  I(1)PL CISLUNAR (P23) NAVIGATION
002757:
002758:                                                                                                  #  R22   PAD LOADS                               (5D).
002759: E6,1402                        RVAR               ERASE    +1                                    #  I(2)PL VHF RADAR
002760: E6,1404                        RVARMIN            ERASE    +2                                    #  I(3)PL VHF RADAR
002761:
002762:                                                                                                  #  ******** PAD LOADED ENTRY DAP STEERING VARIABLES ********     (3D)
002763: E6,1407                        LADPAD             ERASE                                          #  I(1)PL FOR ENTRY. HOLDS CM NOMINAL L/D
002764: E6,1410                        LODPAD             ERASE                                          #  I(1)PL FOR ENTRY. HOLDS CM NOMINAL LOD
002765: E6,1411                        ALFAPAD            ERASE                                          #  B(1)PL ALFA TRIM / 180
002766:
002767:                                                                                                  #  ******** PAD LOADED TVC DAP VARIABLES.**********************************(26D)
002768: E6,1412                        ESTROKER           ERASE                                          #  B(1)PL
002769: E6,1413                        EKPRIME            ERASE    +1                                    #  B(2)PL
002770: E6,1415                        ETDECAY            ERASE                                          #  I(1)PL
002771: E6,1416                        EKTLX/I            ERASE    +1                                    #  B(2)PL
002772: E6,1420                        ETVCDT/2           ERASE                                          #  B(1)PL
002773: E6,1421                        ETSWITCH           ERASE                                          #  B(1)PL
002774: E6,1422                        ECORFRAC           ERASE                                          #  B(1)PL
002775: E6,1423                        EREPFRAC           ERASE    +1                                    #  B(2)PL
002776: E6,1425                        PACTOFF            ERASE                                          #  B(1)PL, DSP N48 R01 = PTRIM, R02 = YTRIM
002777: E6,1426                        YACTOFF            ERASE                                          #  B(1)PL, CONSECUTIVE WITH PACTOFF
002778: E6,1427                        AP0                ERASE                                          #  B(1)
002779: E6,1430                        AP1                ERASE    +1                                    #  B(2)
002780: E6,1432                        AP2                ERASE    +1                                    #  B(2)
002781: E6,1434                        AP3                ERASE    +1                                    #  B(2)
002782:
002783: E6,1436                        BP1                ERASE    +1                                    #  B(2)
002784: E6,1440                        BP2                ERASE    +1                                    #  B(2)
002785: E6,1442                        BP3                ERASE    +1                                    #  B(2)
002786: E6,1444  E6,1427               AY0                =        AP0
002787: E6,1444  E6,1430               AY1                =        AP1
002788: E6,1444  E6,1432               AY2                =        AP2
002789: E6,1444  E6,1434               AY3                =        AP3
002790:
002791: E6,1444  E6,1436               BY1                =        BP1


002793: E6,1444  E6,1440               BY2                =        BP2
002794: E6,1444  E6,1442               BY3                =        BP3
002795:
002796:                                                                                                  #  ******** EXCLUSIVE TVC DAP VARIABLES. **********************************(5D)
002797: E6,1444                        V97VCNTR           ERASE                                          #  B(1)
002798: E6,1445                        TEMPDAP            ERASE    +1                                    #  B(2)
002799: E6,1447  E6,1445               MRKRTMP            =        TEMPDAP                               #        ((B(1)))
002800: E6,1447                        CNTR               ERASE                                          #  B(1)
002801: E6,1450                        OGAD               ERASE                                          #  B(1)
002802:
002803:                                                                                                  #  ******** EXCLUSIVE RCS DAP VARIABLES.  *********************************(13D)
002804: E6,1451                        RWORD1             ERASE    +12D                                  #  B(1)
002805: E6,1466  E6,1452               RWORD2             EQUALS   RWORD1     +1                         #  B(1)
002806: E6,1466  E6,1453               PWORD1             EQUALS   RWORD2     +1                         #  B(1)
002807: E6,1466  E6,1454               PWORD2             EQUALS   PWORD1     +1                         #  B(1)
002808: E6,1466  E6,1455               YWORD1             EQUALS   PWORD2     +1                         #  B(1)
002809: E6,1466  E6,1456               YWORD2             EQUALS   YWORD1     +1                         #  B(1)
002810: E6,1466  E6,1457               BLAST              EQUALS   YWORD2     +1                         #  B(2)
002811: E6,1466  E6,1461               BLAST1             EQUALS   BLAST      +2                         #  B(2)
002812: E6,1466  E6,1463               BLAST2             EQUALS   BLAST1     +2                         #  B(2)
002813: E6,1466  E6,1465               T5PHASE            EQUALS   BLAST2     +2                         #  B(1)
002814:
002815:                                                                                                  #  ******** RCS/TVC DAP COMMON STORAGE.************************************(16D)
002816: E6,1466                        DAPDATR1           ERASE                                          #  B(1)DSP NOUN 46(R1)
002817: E6,1467                        DAPDATR2           ERASE                                          #  B(1)DSP NOUN 46(R2)
002818:
002819: E6,1470                        IXX                ERASE                                          #  B(1) CONSECUTIVE WITH IAVG, IAVG/TLX FOR
002820: E6,1471                        IAVG               ERASE                                          #  B(1)                          MASSPROP
002821: E6,1472                        IAVG/TLX           ERASE                                          #  B(1)
002822:
002823: E6,1473                        LEMMASS            ERASE    +1                                    #  B(1)DSP NOUN 47 (R2)          LEM/CSMMASS
002824: E6,1475  E6,1474               CSMMASS            EQUALS   LEMMASS    +1                         #  B(1)DSP NOUN 47 (R1)          FOR DOWNLINK
002825: E6,1475                        WEIGHT/G           ERASE                                          #  B(1)
002826: E6,1476  E6,1475               MASS               =        WEIGHT/G
002827:
002828: E6,1476                        AK                 ERASE
002829: E6,1477                        AK1                ERASE
002830: E6,1500                        AK2                ERASE
002831:
002832: E6,1501                        RCSFLAGS           ERASE                                          #  B(1) CONSECUTIVE WITH AK2 DOWNLINK
002833: E6,1502                        T5TEMP             ERASE                                          #  B(1)
002834: E6,1503                        EDRIVEX            ERASE
002835:


002837: E6,1504                        EDRIVEY            ERASE
002838: E6,1505                        EDRIVEZ            ERASE
002839:
002840:                                                                                                  #  INTEMP THRU INTEMP+14D ARE RESERVED FOR OVERLAYED TVC/RCS INTERUP TRUE TEMPORIES
002841: E6,1506                        INTTEMP            ERASE    +14D                                  #  (15)
002842:
002843:                                                                                                  #  TVC/RCS THRU TVCRCS +11D RESERVED FOR DOWNLINKED VARIABLES
002844: E6,1525                        TVCRCS             ERASE    +11D                                  #  (12)
002845:                                                                                                  #  RCS (WBODYS,ADOTS)
002846:                                                                                                  #  TVC(OMEGACS,OMEGABS)
002847:
002848:                                                                                                  #  TVC DAP TEMPORARY VARIABLES************************************
002849:
002850:                                                                                                  #  TVC DAP INTERUPT TRUE TEMPORARIES******************************
002851:
002852: E6,1541  E6,1506               PHI333             EQUALS   INTTEMP                               #  B(1) TEMPORARY REGISTER
002853: E6,1541  E6,1507               PSI333             EQUALS   PHI333     +1                         #  B(1) COUNTING REGISTER
002854: E6,1541  E6,1510               TEMP333            EQUALS   PSI333     +1                         #  B(1) COUNTING REGISTER
002855: E6,1541  E6,1511               VARST0             EQUALS   TEMP333    +1                         #  B(10D) BREAKPOINTS AND SLOPES
002856: E6,1541  E6,1516               VARST5             =        VARST0     +5
002857: E6,1541  E6,1522               LASTMASP           EQUALS   VARST0     +9D                        #  LAST VARST0 WORD
002858: E6,1541  E6,1523               TVCTMP1            EQUALS   LASTMASP   +1                         #  B(1)
002859:
002860:                                                                                                  #  *******REGULAR TVC TEMPORARIES*************
002861:                                                                                                  #  TVC ZEROING LOOP STARTS AT OMEGAYC    (70D)
002862: E6,1541  E6,1525               OMEGAC             EQUALS   TVCRCS                                #  I(6)
002863: E6,1541  E6,1525               OMEGAXC            =        OMEGAC
002864: E6,1541  E6,1527               OMEGAYC            =        OMEGAC     +2
002865: E6,1541  E6,1531               OMEGAZC            =        OMEGAC     +4
002866:
002867: E6,1541  E6,1533               OMEGAB             EQUALS   TVCRCS     +6                         #  B(6)
002868: E6,1541  E6,1533               OMEGAXB            =        OMEGAB
002869: E6,1541  E6,1535               OMEGAYB            =        OMEGAB     +2
002870: E6,1541  E6,1537               OMEGAZB            =        OMEGAB     +4
002871:
002872: E6,1541  E6,1541               PNSUM              EQUALS   OMEGAC     +12D                       #  B(2)
002873: E6,1541  E6,1543               PDSUM              EQUALS   PNSUM      +2                         #  B(2)
002874:
002875: E6,1541  E6,1545               B1                 EQUALS   PDSUM      +2                         #  B(1)
002876: E6,1541  E6,1546               B2                 EQUALS   B1         +1                         #  B(1)


002878: E6,1541  E6,1547               B3                 EQUALS   B2         +1                         #  B(1)
002879: E6,1541  E6,1550               B4                 EQUALS   B3         +1                         #  B(1)
002880: E6,1541  E6,1551               B5                 EQUALS   B4         +1                         #  B(1)
002881: E6,1541  E6,1552               B6                 EQUALS   B5         +1                         #  B(1)
002882:
002883: E6,1541  E6,1553               J1                 EQUALS   B6         +1                         #  B(2)
002884: E6,1541  E6,1555               J2                 EQUALS   J1         +2                         #  B(2)
002885: E6,1541  E6,1557               J3                 EQUALS   J2         +2                         #  B(2)
002886: E6,1541  E6,1561               J4                 EQUALS   J3         +2                         #  B(2)
002887: E6,1541  E6,1563               J5                 EQUALS   J4         +2                         #  B(2)
002888:
002889: E6,1541  E6,1565               YNSUM              EQUALS   J5         +2                         #  B(2)
002890: E6,1541  E6,1567               YDSUM              EQUALS   YNSUM      +2                         #  B(2)
002891:
002892: E6,1541  E6,1571               C1                 EQUALS   YDSUM      +2                         #  B(1)
002893: E6,1541  E6,1572               C2                 EQUALS   C1         +1                         #  B(1)
002894: E6,1541  E6,1573               C3                 EQUALS   C2         +1                         #  B(1)
002895: E6,1541  E6,1574               C4                 EQUALS   C3         +1                         #  B(1)
002896: E6,1541  E6,1575               C5                 EQUALS   C4         +1                         #  B(1)
002897: E6,1541  E6,1576               C6                 EQUALS   C5         +1                         #  B(1)
002898:
002899: E6,1541  E6,1577               Y1                 EQUALS   C6         +1                         #  B(2)
002900: E6,1541  E6,1601               Y2                 EQUALS   Y1         +2                         #  B(2)
002901: E6,1541  E6,1603               Y3                 EQUALS   Y2         +2                         #  B(2)
002902: E6,1541  E6,1605               Y4                 EQUALS   Y3         +2                         #  B(2)
002903: E6,1541  E6,1607               Y5                 EQUALS   Y4         +2                         #  B(2)
002904:
002905: E6,1541  E6,1611               ROLLFIRE           EQUALS   Y5         +2                         #  B(1)
002906: E6,1541  E6,1612               ROLLWORD           EQUALS   ROLLFIRE   +1                         #  B(1)
002907: E6,1541  E6,1613               TEMREG             EQUALS   ROLLWORD   +1                         #  B(1)
002908:
002909: E6,1541  E6,1614               STROKER            EQUALS   TEMREG     +1                         #  B(1)
002910:
002911: E6,1541  E6,1615               PERRB              EQUALS   STROKER    +1                         #  B(2)
002912: E6,1541  E6,1617               YERRB              EQUALS   PERRB      +2                         #  B(2)
002913:
002914: E6,1541  E6,1621               DELPBAR            EQUALS   YERRB      +2                         #  B(2)
002915: E6,1541  E6,1623               DELYBAR            EQUALS   DELPBAR    +2                         #  B(2)
002916:
002917: E6,1541  E6,1625               PDELOFF            EQUALS   DELYBAR    +2                         #  B(2)
002918: E6,1541  E6,1627               YDELOFF            EQUALS   PDELOFF    +2                         #  B(2)
002919:
002920:                                                                                                  #  TVC ZEROING LOOP ENDS HERE
002921: E6,1541  E6,1631               PCMD               EQUALS   YDELOFF    +2                         #  B(1)
002922: E6,1541  E6,1632               YCMD               EQUALS   PCMD       +1                         #  B(1), CONSECUTIVE WITH PCMD
002923: E6,1541  E6,1633               TACTOFF            EQUALS   YCMD       +1                         #  B(2)
002924: E6,1541  E6,1635               T5TVCDT            EQUALS   TACTOFF    +2                         #  B(1)
002925: E6,1541  E6,1636               MDT                EQUALS   T5TVCDT    +1                         #  I(6)


002927: E6,1541  E6,1644               KPRIMEDT           EQUALS   MDT        +6                         #  I(2)
002928: E6,1541  E6,1646               KTLX/I             EQUALS   KPRIMEDT   +2                         #  B(1)
002929: E6,1541  E6,1647               TENMDOT            EQUALS   KTLX/I     +1                         #  B(1)
002930: E6,1541  E6,1650               1/CONACC           EQUALS   TENMDOT    +1                         #  B(1)
002931: E6,1541  E6,1651               VARK               EQUALS   1/CONACC   +1                         #  B(1)
002932: E6,1541  E6,1652               REPFRAC            EQUALS   VARK       +1                         #  B(1)
002933: E6,1541  E6,1653               VCNTR              EQUALS   REPFRAC    +1                         #  B(1)
002934: E6,1541  E6,1654               TVCPHASE           EQUALS   VCNTR      +1                         #  B(1)
002935: E6,1541  E6,1655               PCDUYPST           EQUALS   TVCPHASE   +1                         #  B(1)
002936: E6,1541  E6,1656               PCDUZPST           EQUALS   PCDUYPST   +1                         #  B(1)
002937: E6,1541  E6,1657               MCDUYDOT           EQUALS   PCDUZPST   +1                         #  B(1)
002938: E6,1541  E6,1660               MCDUZDOT           EQUALS   MCDUYDOT   +1                         #  B(1)
002939: E6,1541  E6,1661               TVCEXPHS           EQUALS   MCDUZDOT   +1                         #  B(1)
002940: E6,1541  E6,1662               MASSTMP            EQUALS   TVCEXPHS   +1                         #  B(1)  PROTECT
002941: E6,1541  E6,1663               VCNTRTMP           EQUALS   MASSTMP    +1                         #  B(1)    *PROTECT***
002942:
002943:                                                                                                  #  STROKE TEST VARIABLES
002944:
002945:                                                                                                  #  (6D)
002946: E6,1541  E6,1664               STRKTIME           EQUALS   VCNTRTMP   +1                         #  B(1)
002947: E6,1541  E6,1665               CADDY              EQUALS   STRKTIME   +1                         #  B(1)
002948: E6,1541  E6,1666               N                  EQUALS   CADDY      +1                         #  B(1)
002949: E6,1541  E6,1667               BUNKER             EQUALS   N          +1                         #  B(1)
002950: E6,1541  E6,1670               REVS               EQUALS   BUNKER     +1                         #  B(1)
002951: E6,1541  E6,1671               CARD               EQUALS   REVS       +1                         #  B(1)
002952:
002953:                                                                                                  #  TVC ROLL DAP VARIABLES
002954:
002955:                                                                                                  #  (8D)
002956: E6,1541  E6,1672               OGANOW             EQUALS   CARD       +1                         #  B(1)
002957: E6,1541  E6,1673               OGAPAST            EQUALS   OGANOW     +1                         #  B(1)
002958: E6,1541  E6,1674               OGA                EQUALS   OGAPAST    +1                         #  B(1)TMP
002959: E6,1541  E6,1674               OGAERR             =        OGA                                   #  (ROLL DAP USES OGA, MEANS OGAERROR)
002960: E6,1541  E6,1675               DELOGART           EQUALS   OGA        +1                         #  B(1)TMP
002961: E6,1541  E6,1676               SGNRT              EQUALS   DELOGART   +1                         #  SIGN OF OGA RATE
002962: E6,1541  E6,1677               DELOGA             EQUALS   SGNRT      +1                         #  USED IN ROLL LOGIC
002963: E6,1541  E6,1700               I                  EQUALS   DELOGA     +1                         #  USED IN ROLL LOGIC
002964: E6,1541  E6,1701               IOGARATE           EQUALS   I          +1                         #  USED IN ROLL LOGIC
002965:
002966:                                                                                                  #  TVC DAP RESTART TEMPORARIES.          (33D)
002967: E6,1541  E6,1702               TKTLX/I            EQUALS   IOGARATE   +1                         #  B(1)
002968: E6,1541  E6,1703               PACTTMP            EQUALS   TKTLX/I    +1                         #  B(2)
002969: E6,1541  E6,1705               YACTTMP            EQUALS   PACTTMP    +2                         #  B(2)
002970: E6,1541  E6,1707               CNTRTMP            EQUALS   YACTTMP    +2                         #  B(1)
002971: E6,1541  E6,1710               STRKTTMP           EQUALS   CNTRTMP    +1                         #  B(1)
002972: E6,1541  E6,1711               NSUMTMP            EQUALS   STRKTTMP   +1                         #  B(2)
002973: E6,1541  E6,1713               DSUMTMP            EQUALS   NSUMTMP    +2                         #  B(2)
002974: E6,1541  E6,1715               DELBRTMP           EQUALS   DSUMTMP    +2                         #  B(2)


002976: E6,1541  E6,1717               B1TMP              EQUALS   DELBRTMP   +2                         #  B(1)
002977: E6,1541  E6,1720               B2TMP              EQUALS   B1TMP      +1                         #  B(1)
002978: E6,1541  E6,1721               B3TMP              EQUALS   B2TMP      +1                         #  B(1)
002979: E6,1541  E6,1722               B4TMP              EQUALS   B3TMP      +1                         #  B(1)
002980: E6,1541  E6,1723               B5TMP              EQUALS   B4TMP      +1                         #  B(1)
002981: E6,1541  E6,1724               B6TMP              EQUALS   B5TMP      +1                         #  B(1)
002982: E6,1541  E6,1725               B7TMP              EQUALS   B6TMP      +1                         #  B(1)
002983:
002984: E6,1541  E6,1726               J1TMP              EQUALS   B7TMP      +1                         #  B(2)
002985: E6,1541  E6,1730               J2TMP              EQUALS   J1TMP      +2                         #  B(2)
002986: E6,1541  E6,1732               J3TMP              EQUALS   J2TMP      +2                         #  B(2)
002987: E6,1541  E6,1734               J4TMP              EQUALS   J3TMP      +2                         #  B(2)
002988: E6,1541  E6,1736               J5TMP              EQUALS   J4TMP      +2                         #  B(2)
002989: E6,1541  E6,1740               J6TMP              EQUALS   J5TMP      +2                         #  B(2)
002990: E6,1541  E6,1742               ERRBTMP            EQUALS   J6TMP      +2                         #  B(2)
002991: E6,1541  E6,1744               CMDTMP             EQUALS   ERRBTMP    +2                         #  B(2)
002992:
002993:                                                                                                  #  OVERLAYS WITHIN TVC DAP
002994:
002995: E6,1541  E6,1533               OGARATE            =        OMEGAB                                #  B(2)
002996:
002997: E6,1541  E6,1742               BZERO              =        ERRBTMP
002998: E6,1541  E6,1742               CZERO              =        ERRBTMP
002999: E6,1541  E6,1744               JZERO              =        CMDTMP
003000: E6,1541  E6,1744               YZERO              =        CMDTMP
003001: E6,1541  E6,1651               KPGEN3             =        VARK
003002: E6,1541  E6,1651               KYGEN3             =        KPGEN3
003003:
003004: E6,1541  E6,1742               EP                 =        ERRBTMP
003005: E6,1541  E6,1744               NPD                =        CMDTMP
003006: E6,1541  E6,1561               NP0                EQUALS   J4                                    #  (B(2))
003007: E6,1541  E6,1563               NP1                EQUALS   J5                                    #  (B(2))
003008: E6,1541  E6,1541               NP2                EQUALS   PNSUM                                 #  (B(2))
003009: E6,1541  E6,1543               NP3                EQUALS   PDSUM                                 #  (B(2))
003010:
003011: E6,1541  E6,1736               NP1TMP             EQUALS   J5TMP                                 #  (B(2))
003012: E6,1541  E6,1711               NP2TMP             EQUALS   NSUMTMP                               #  (B(2))
003013: E6,1541  E6,1713               NP3TMP             EQUALS   DSUMTMP                               #  (B(2))
003014:
003015: E6,1541  E6,1742               EY                 =        ERRBTMP
003016: E6,1541  E6,1744               NYD                =        CMDTMP
003017: E6,1541  E6,1605               NY0                EQUALS   Y4                                    #  (B(2))
003018: E6,1541  E6,1607               NY1                EQUALS   Y5                                    #  (B(2))
003019: E6,1541  E6,1565               NY2                EQUALS   YNSUM                                 #  (B(2))
003020: E6,1541  E6,1567               NY3                EQUALS   YDSUM                                 #  (B(2))
003021:
003022: E6,1541  E6,1736               NY1TMP             EQUALS   Y5TMP                                 #  (B(2))
003023: E6,1541  E6,1711               NY2TMP             EQUALS   NSUMTMP                               #  (B(2))
003024: E6,1541  E6,1713               NY3TMP             EQUALS   DSUMTMP                               #  (B(2))
003025:


003027: E6,1541  E6,1717               C1TMP              =        B1TMP                                 #  (B(1))
003028: E6,1541  E6,1720               C2TMP              =        B2TMP                                 #  (B(1))
003029: E6,1541  E6,1721               C3TMP              =        B3TMP                                 #  (B(1))
003030: E6,1541  E6,1722               C4TMP              =        B4TMP                                 #  (B(1))
003031: E6,1541  E6,1723               C5TMP              =        B5TMP                                 #  (B(1))
003032: E6,1541  E6,1724               C6TMP              =        B6TMP                                 #  (B(1))
003033: E6,1541  E6,1725               C7TMP              =        B7TMP                                 #  (B(1))
003034:
003035: E6,1541  E6,1726               Y1TMP              =        J1TMP                                 #  (B(2))
003036: E6,1541  E6,1730               Y2TMP              =        J2TMP                                 #  (B(2))
003037: E6,1541  E6,1732               Y3TMP              =        J3TMP                                 #  (B(2))
003038: E6,1541  E6,1734               Y4TMP              =        J4TMP                                 #  (B(2))
003039: E6,1541  E6,1736               Y5TMP              =        J5TMP                                 #  (B(2))
003040: E6,1541  E6,1740               Y6TMP              =        J6TMP                                 #  (B(2))
003041:
003042:                                                                                                  #  S40.9 STORAGE..........
003043:
003044: E6,1541  E6,1746               NBRCYCLS           EQUALS   CMDTMP     +2                         #  B(1) COUNTER FOR P40,41 STEERING
003045: E6,1541  E6,1747               NBRCYCLP           EQUALS   NBRCYCLS   +1                         #  B(1) MAINTAIN ORDER
003046: E6,1541  E6,1750               DELVSUM            EQUALS   NBRCYCLP   +1                         #  I(6) P40,P41
003047: E6,1541  E6,1756               DELVSUMP           EQUALS   DELVSUM    +6                         #  I(6) P40,P41
003048:


003050:                                                                                                  #  ******** RCS DAP TEMPORARY VARIABLES. ***********************************(95D)
003051:
003052:                                                                                                  #           **RCS INTERUPT TRUE TEMPS*************************              15D
003053: E6,1541  E6,1506               SPNDX              EQUALS   INTTEMP                               #  B(1)
003054: E6,1541  E6,1507               DPNDX              EQUALS   SPNDX      +1                         #  B(1)TMP
003055: E6,1541  E6,1510               KMPAC              EQUALS   DPNDX      +1                         #  B(2)TMP
003056: E6,1541  E6,1512               KMPTEMP            EQUALS   KMPAC      +2                         #  B(1)TMP
003057:
003058: E6,1541  E6,1513               XNDX1              EQUALS   KMPTEMP    +1                         #  B(1)TMP XNDX1 THRU NYJETS ARE OVERLAYED
003059: E6,1541  E6,1514               XNDX2              EQUALS   XNDX1      +1                         #  B(1)TMP BY OTHER DAP ERASABLES SO
003060: E6,1541  E6,1515               YNDX               EQUALS   XNDX2      +1                         #  B(1)TMP SHOULD ALWAYS BE DEFINED IN
003061: E6,1541  E6,1516               ZNDX               EQUALS   YNDX       +1                         #  B(1)TMP A BLOCK
003062: E6,1541  E6,1517               RINDEX             EQUALS   ZNDX       +1                         #  B(1)TMP
003063: E6,1541  E6,1520               PINDEX             EQUALS   RINDEX     +1                         #  B(1)TMP
003064: E6,1541  E6,1521               YINDEX             EQUALS   PINDEX     +1                         #  B(1)TMP
003065: E6,1541  E6,1522               NRJETS             EQUALS   YINDEX     +1                         #  B(1)TMP
003066: E6,1541  E6,1523               NPJETS             EQUALS   NRJETS     +1                         #  B(1)TMP
003067: E6,1541  E6,1524               NYJETS             EQUALS   NPJETS     +1                         #  B(1)TMP
003068:
003069: E6,1541  E6,1513               WTEMP              EQUALS   XNDX1                                 #  B(2)TMP WTEMP THRU DELTEMPZ OVERLAY
003070: E6,1541  E6,1515               DELTEMPX           EQUALS   WTEMP      +2                         #  B(2)TMP XNDX1 THRU NRJETS AND EDOT THRU
003071: E6,1541  E6,1517               DELTEMPY           EQUALS   DELTEMPX   +2                         #  B(2)TMP ADBVEL
003072: E6,1541  E6,1521               DELTEMPZ           EQUALS   DELTEMPY   +2                         #  B(2)TMP
003073:
003074: E6,1541  E6,1515               EDOT               EQUALS   YNDX                                  #  B(2)TMP EDOT THRU ADBVEL OVERLAY
003075: E6,1541  E6,1517               AERR               EQUALS   EDOT       +2                         #  B(1)TMP YNDX THRU NPJETS AND DELTEMPX
003076: E6,1541  E6,1520               EDOTVEL            EQUALS   AERR       +1                         #  B(2)TMP THRU DELTEMPZ
003077: E6,1541  E6,1522               AERRVEL            EQUALS   EDOTVEL    +2                         #  B(1)TMP
003078: E6,1541  E6,1523               ADBVEL             EQUALS   AERRVEL    +1                         #  B(1)TMP
003079:
003080:                                                                                                  #           *** REGULAR RCS TEMPS*****************************             (   ).
003081:
003082:                                                                                                  #             RCS ZEROING LOOP STARTS HERE****  ** **  **  ***   *** * *   (37)
003083: E6,1541  E6,1525               WBODY              EQUALS   TVCRCS                                #  B(2)TMP
003084: E6,1541  E6,1527               WBODY1             EQUALS   WBODY      +2                         #  B(2)TMP
003085: E6,1541  E6,1531               WBODY2             EQUALS   WBODY      +4                         #  B(2)TMP
003086: E6,1541  E6,1533               ADOT               EQUALS   WBODY2     +2                         #  B(2)TMP
003087: E6,1541  E6,1535               ADOT1              EQUALS   ADOT       +2                         #  B(2)TMP
003088: E6,1541  E6,1537               ADOT2              EQUALS   ADOT1      +2                         #  B(2)TMP
003089:
003090: E6,1541  E6,1541               MERRORX            EQUALS   ADOT2      +2                         #   (2)
003091: E6,1541  E6,1543               MERRORY            EQUALS   MERRORX    +2                         #   (2)
003092: E6,1541  E6,1545               MERRORZ            EQUALS   MERRORY    +2                         #   (2)
003093: E6,1541  E6,1547               DFT                EQUALS   MERRORZ    +2                         #  B(1)TMP
003094: E6,1541  E6,1550               DFT1               EQUALS   DFT        +1                         #  B(1)TMP
003095: E6,1541  E6,1551               DFT2               EQUALS   DFT1       +1                         #  B(1)TMP
003096: E6,1541  E6,1552               DRHO               EQUALS   DFT2       +1                         #  B(2)TMP
003097: E6,1541  E6,1554               DRHO1              EQUALS   DRHO       +2                         #  B(2)TMP


003099: E6,1541  E6,1556               DRHO2              EQUALS   DRHO1      +2                         #  B(2)TMP
003100: E6,1541  E6,1560               ATTSEC             EQUALS   DRHO2      +2                         #  B(1)TMP
003101: E6,1541  E6,1561               TAU                EQUALS   ATTSEC     +1                         #  B(1)TMP
003102: E6,1541  E6,1562               TAU1               EQUALS   TAU        +1                         #  B(1)TMP
003103: E6,1541  E6,1563               TAU2               EQUALS   TAU1       +1                         #  B(1)TMP
003104: E6,1541  E6,1564               BIAS               EQUALS   TAU2       +1                         #  B(1)TMP
003105: E6,1541  E6,1565               BIAS1              EQUALS   BIAS       +1                         #  B(1)TMP
003106: E6,1541  E6,1566               BIAS2              EQUALS   BIAS1      +1                         #  B(1)TMP
003107: E6,1541  E6,1567               ERRORX             EQUALS   BIAS2      +1                         #  B(1)TMP
003108: E6,1541  E6,1570               ERRORY             EQUALS   ERRORX     +1                         #  B(1)TMP
003109: E6,1541  E6,1571               ERRORZ             EQUALS   ERRORY     +1                         #  B(1)TMP
003110:
003111:                                                                                                  #  RCS ZERO LOOP ENDS HERE
003112:                                                                                                  #        MORE RCS                                (69D)
003113: E6,1541  E6,1572               THETADX            EQUALS   ERRORZ     +1                         #  B(1)TMP MUST BE CONSECUTIVE WITH ERRORZ
003114: E6,1541  E6,1573               THETADY            EQUALS   THETADX    +1                         #  B(1)TMP
003115: E6,1541  E6,1574               THETADZ            EQUALS   THETADY    +1                         #  B(1)TMP
003116:
003117: E6,1541  E6,1575               DELCDUX            EQUALS   THETADZ    +1                         #  B(2)TMP
003118: E6,1541  E6,1577               DELCDUY            EQUALS   DELCDUX    +2                         #  B(2)TMP
003119: E6,1541  E6,1601               DELCDUZ            EQUALS   DELCDUY    +2                         #  B(2)TMP
003120:
003121: E6,1541  E6,1603               DCDU               EQUALS   DELCDUZ    +2                         #  B(6)TMP USED DURING P20
003122: E6,1541  E6,1611               DTHETASM           EQUALS   DCDU       +6                         #  B(6)TMP STEER LOW OUTPUT.
003123:
003124: E6,1541  E6,1617               ATTKALMN           EQUALS   DTHETASM   +6                         #  B(1)TMP
003125: E6,1541  E6,1620               KMJ                EQUALS   ATTKALMN   +1                         #  B(1)TMP
003126: E6,1541  E6,1621               KMJ1               EQUALS   KMJ        +1                         #  B(1)TMP
003127: E6,1541  E6,1622               KMJ2               EQUALS   KMJ1       +1                         #  B(1)TMP
003128: E6,1541  E6,1623               J/M                EQUALS   KMJ2       +1                         #  B(1)TMP
003129: E6,1541  E6,1624               J/M1               EQUALS   J/M        +1                         #  B(1)TMP
003130: E6,1541  E6,1625               J/M2               EQUALS   J/M1       +1                         #  B(1)TMP
003131: E6,1541  E6,1626               RACFAIL            EQUALS   J/M2       +1                         #  B(1)TMP
003132: E6,1541  E6,1627               RBDFAIL            EQUALS   RACFAIL    +1                         #  B(1)TMP
003133: E6,1541  E6,1630               ACORBD             EQUALS   RBDFAIL    +1                         #  B(1)TMP
003134: E6,1541  E6,1631               XTRANS             EQUALS   ACORBD     +1                         #  B(1)TMP
003135: E6,1541  E6,1632               CH31TEMP           EQUALS   XTRANS     +1                         #  B(1)TMP
003136: E6,1541  E6,1633               CHANTEMP           EQUALS   CH31TEMP   +1                         #  B(1)TMP
003137: E6,1541  E6,1634               T5TIME             EQUALS   CHANTEMP   +1                         #  B(1)TMP
003138: E6,1541  E6,1635               RHO                EQUALS   T5TIME     +1                         #  B(1)TMP
003139: E6,1541  E6,1636               RHO1               EQUALS   RHO        +1                         #  B(1)TMP
003140: E6,1541  E6,1637               RHO2               EQUALS   RHO1       +1                         #  B(1)TMP
003141: E6,1541  E6,1640               AMGB1              EQUALS   RHO2       +1                         #  B(1)TMP
003142: E6,1541  E6,1641               AMGB4              EQUALS   AMGB1      +1                         #  B(1)TMP


003144: E6,1541  E6,1642               AMGB5              EQUALS   AMGB4      +1                         #  B(1)TMP
003145: E6,1541  E6,1643               AMGB7              EQUALS   AMGB5      +1                         #  B(1)TMP
003146: E6,1541  E6,1644               AMGB8              EQUALS   AMGB7      +1                         #  B(1)TMP
003147: E6,1541  E6,1645               CAPSI              EQUALS   AMGB8      +1                         #  B(1)TMP
003148: E6,1541  E6,1646               CDUXD              EQUALS   CAPSI      +1                         #  B(2)TMP
003149: E6,1541  E6,1650               CDUYD              EQUALS   CDUXD      +2                         #  B(2)TMP
003150: E6,1541  E6,1652               CDUZD              EQUALS   CDUYD      +2                         #  B(2)TMP
003151: E6,1541  E6,1654               SLOPE              EQUALS   CDUZD      +2                         #  B(1)TMP
003152: E6,1541  E6,1655               ADB                EQUALS   SLOPE      +1                         #  B(1)TMP
003153: E6,1541  E6,1656               RMANNDX            EQUALS   ADB        +1                         #  B(1)TMP
003154: E6,1541  E6,1657               PMANNDX            EQUALS   RMANNDX    +1                         #  B(1)TMP
003155: E6,1541  E6,1660               YMANNDX            EQUALS   PMANNDX    +1                         #  B(1)TMP MUST BE LAST VARIABLE IN RCS
003156:


003158:                                                                                                  #  ******** ENTRY DAP TEMPORARY VARIABLES.*********************************(69D)
003159:
003160:                                                                                                  #  ANGLE REGISTERS FOR ENTRY DAPS
003161: E6,1541  E6,1661               AOG                EQUALS   BCDU                                  #  1P
003162: E6,1541  E6,1662               AIG                EQUALS   AOG        +1                         #  1P
003163: E6,1541  E6,1663               AMG                EQUALS   AIG        +1                         #  1P
003164: E6,1541  E6,1664               ROLL/180           EQUALS   AMG        +1                         #  1P
003165: E6,1541  E6,1665               ALFA/180           EQUALS   ROLL/180   +1                         #  1P
003166: E6,1541  E6,1666               BETA/180           EQUALS   ALFA/180   +1                         #  1P
003167: E6,1541  E6,1667               AOG/PIP            EQUALS   BETA/180   +1                         #  1P
003168: E6,1541  E6,1670               AIG/PIP            EQUALS   AOG/PIP    +1                         #  1P
003169: E6,1541  E6,1671               AMG/PIP            EQUALS   AIG/PIP    +1                         #  1P
003170: E6,1541  E6,1672               ROLL/PIP           EQUALS   AMG/PIP    +1                         #  1P
003171: E6,1541  E6,1673               ALFA/PIP           EQUALS   ROLL/PIP   +1                         #  1P
003172: E6,1541  E6,1674               BETA/PIP           EQUALS   ALFA/PIP   +1                         #  1P
003173:
003174:                                                                                                  #  GYMBAL DIFFERENCES OVER INTERVAL TCDU = .1 SEC.
003175: E6,1541  E6,1675               -DELAOG            EQUALS   BETA/PIP   +1                         #  1P
003176: E6,1541  E6,1676               -DELAIG            EQUALS   -DELAOG    +1                         #  1P
003177: E6,1541  E6,1677               -DELAMG            EQUALS   -DELAIG    +1                         #  1P
003178:
003179:                                                                                                  #  ESTIMATED BODY RATES
003180: E6,1541  E6,1700               CMDAPMOD           EQUALS   -DELAMG    +1                         #  1P GOES BEFORE PREL FOR TM.
003181:
003182: E6,1541  E6,1701               PREL               EQUALS   CMDAPMOD   +1                         #  1P P TCDU/180         (ROLLDOT)
003183: E6,1541  E6,1702               QREL               EQUALS   PREL       +1                         #  1P Q TCDU/180         (PITCHDOT)
003184: E6,1541  E6,1703               RREL               EQUALS   QREL       +1                         #  1P R TCDU/180         (YAWDOT)
003185:
003186: E6,1541  E6,1704               BETADOT            EQUALS   RREL       +1                         #  1P MUST FOLLOW RREL. BETADOT TCDU/180
003187: E6,1541  E6,1705               PHIDOT             EQUALS   BETADOT    +1                         #  1P
003188:
003189:                                                                                                  #  OLD (UNAVERAGED) BODY RATE MEASURE
003190: E6,1541  E6,1706               OLDELP             EQUALS   PHIDOT     +1                         #  1P
003191: E6,1541  E6,1707               OLDELQ             EQUALS   OLDELP     +1                         #  1P
003192: E6,1541  E6,1710               OLDELR             EQUALS   OLDELQ     +1                         #  1P
003193:
003194: E6,1541  E6,1711               JETAG              EQUALS   OLDELR     +1                         #  1P
003195: E6,1541  E6,1712               TUSED              EQUALS   JETAG      +1                         #  1P ELAPSED TIME SINCE NOMINAL UPDATE.
003196:
003197:                                                                                                  #  FOLLOWING 3 SP WORDS IN DOWNLINK.  ROLLTM SENT EACH 1 SEC.
003198: E6,1541  E6,1713               PAXERR1            EQUALS   TUSED      +1                         #  1P INTEGRATED ROLL ERROR/360.
003199: E6,1541  E6,1714               ROLLTM             EQUALS   PAXERR1    +1                         #  1P ROLL/180 FOR TM.
003200: E6,1541  E6,1715               ROLLC              EQUALS   ROLLTM     +1                         #  2P ROLLCOM/360 FROM ENTRY (FOR TM)
003201:                                                                                                  #  >>KEEP ROLLC & ROLLHOLD ADJACENT FOR TP


003203: E6,1541  E6,1717               ROLLHOLD           EQUALS   ROLLC      +2                         #  1P FOR ATTITUDE HOLD IN CMDAPMOD = +1
003204:
003205:                                                                                                  #  ENTRY DAP QUANTITIES THAT SHARE WITH RCS DAP.
003206: E6,1541  E6,1603               ALFACOM            EQUALS   DCDU                                  #  1P KEEP ADJACENT TO BETACOM. <<
003207: E6,1541  E6,1604               BETACOM            EQUALS   ALFACOM    +1                         #  1P
003208:
003209:                                                                                                  #  JET LIST:  DT, JETBITS IN THIS ORDER.
003210: E6,1541  E6,1605               TOFF               EQUALS   BETACOM    +1                         #  1P DP PAIR
003211: E6,1541  E6,1606               TBITS              EQUALS   TOFF       +1                         #  1P
003212: E6,1541  E6,1607               TON2               EQUALS   TBITS      +1                         #  1P DP PAIR
003213: E6,1541  E6,1610               T2BITS             EQUALS   TON2       +1                         #  1P
003214:
003215:                                                                                                  #  MISCELLANEOUS PERMANENT ERASEABLE.
003216: E6,1541  E6,1611               OUTTAG             EQUALS   T2BITS     +1                         #  1P
003217: E6,1541  E6,1612               NUJET              EQUALS   OUTTAG     +1                         #  1P
003218:
003219:                                                                                                  #  MORE ENTRY DAP QUANTITIES THAT DO NOT SHARE WITH RCS DAP.
003220: E6,1541  E6,1720               JETEM              EQUALS   ROLLHOLD   +1                         #  2P THIS DP USED IN RATEAVG.
003221: E6,1541  E6,1722               GAMA               EQUALS   JETEM      +2                         #  1P
003222: E6,1541  E6,1723               GAMDOT             EQUALS   GAMA       +1                         #  1P
003223: E6,1541  E6,1724               POSEXIT            EQUALS   GAMDOT     +1                         #  1P
003224: E6,1541  E6,1725               CM/GYMDT           EQUALS   POSEXIT    +1                         #  1P
003225: E6,1541  E6,1726               HEADSUP            EQUALS   CM/GYMDT   +1                         #  1P DSP NOUN 61 FOR P62,63,64,67.
003226: E6,1541  E6,1727               P63FLAG            EQUALS   HEADSUP    +1                         #  1P INTERLOCK FOR WAKEP62
003227:
003228:                                                                                                  #  >> SHARE BELOW WITH RCS RUPT TEMPS (< 15D) <<<
003229: E6,1541  E6,1506               CALFA              EQUALS   SPNDX                                 #  1P
003230: E6,1541  E6,1507               SALFA              EQUALS   CALFA      +1                         #  1P
003231:
003232: E6,1541  E6,1510               SINM               EQUALS   SALFA      +1                         #  1P
003233: E6,1541  E6,1511               COSM               EQUALS   SINM       +1                         #  1P
003234: E6,1541  E6,1512               SINO               EQUALS   COSM       +1                         #  1P
003235: E6,1541  E6,1513               COSO               EQUALS   SINO       +1                         #  1P
003236: E6,1541  E6,1514               SINOCOSM           EQUALS   COSO       +1                         #  1P
003237: E6,1541  E6,1515               COSOCOSM           EQUALS   SINOCOSM   +1                         #  1P
003238:                                                                                                  #  >> SHARE ABOVE WITH RCS RUPT TEMPS <<<
003239:
003240:                                                                                                  #  THE FOLLOWING FEW REGISTERS USED ONCE EACH 2 SEC.
003241: E6,1541  E6,1613               -VT/180            EQUALS   NUJET      +1                         #  1P
003242: E6,1541  E6,1614               LCX/360            EQUALS   -VT/180    +1                         #  1P
003243: E6,1541  E6,1615               XD/360             EQUALS   LCX/360    +1                         #  1P
003244: E6,1541  E6,1616               VSQ/4API           EQUALS   XD/360     +1                         #  1P
003245: E6,1541  E6,1617               JNDX               EQUALS   VSQ/4API   +1                         #  1P
003246: E6,1541  E6,1620               JNDX1              EQUALS   JNDX       +1                         #  1P


003248: E6,1541  E6,1621               TON1               EQUALS   JNDX1      +1                         #  1P DP PAIR
003249: E6,1541  E6,1622               T1BITS             EQUALS   TON1       +1                         #  1P
003250:
003251:                                                                                                  #  MISCELLANEOUS REGISTERS USED EACH UPDATE.
003252: E6,1541  E6,1623               CM/SAVE            EQUALS   T1BITS     +1                         #  1P
003253: E6,1541  E6,1624               JETEM2             EQUALS   CM/SAVE    +1                         #  1P TEMPORARY STORAGE
003254:
003255:                                                                                                  #  DAP QUANTITIES SHARED WITH RCS DAP FOR TM & FLIGHT RECORDER.
003256: E6,1541  E6,1567               VDT/180            =        ERRORX                                #  1P (EDIT)
003257: E6,1541  E6,1570               -VT/180E           =        ERRORY                                #  1P (EDIT)
003258:
003259: E6,1541  E6,1476               PAXERR             EQUALS   AK                                    #  1P ROLL ERROR FOR NEEDLES
003260: E6,1541  E6,1572               QAXERR             =        THETADX                               #  1P SINCE AK1 IS ZEROED IN ATM DAP.
003261: E6,1541  E6,1573               RAXERR             =        QAXERR     +1                         #  1P SINCE AK2 IS ZEROED IN TM DAP.
003262:
003263:                                                                                                  #         **** COLMANU (R60,R62) ****
003264: E6,1541  E6,1710               VECQTEMP           EQUALS   COFSKEW
003265:


003267:                                                                                                  #  ******** KALCMANU VARIABLES. (71D) *************************************
003268: E6,1541  E6,1661               BCDU               EQUALS   YMANNDX    +1                         #  B(3)TMP
003269: E6,1541  E6,1664               KSPNDX             EQUALS   BCDU       +3                         #  B(1)TMP
003270: E6,1541  E6,1665               KDPNDX             EQUALS   KSPNDX     +1                         #  B(1)TMP
003271:
003272: E6,1541  E6,1666               TMIS               EQUALS   KDPNDX     +1                         #  I(18) MUST BE IN SAME BANK AS RCS DAP
003273: E6,1541  E6,1710               COFSKEW            EQUALS   TMIS       +18D                       #  I(6) MUST BE IN SAME BANK AS RCS DAP
003274: E6,1541  E6,1716               CAM                EQUALS   COFSKEW    +6                         #  I(2) MUST BE IN SAME BANK AS RCS DAP
003275:
003276: E6,1541  E6,1720               MIS                EQUALS   CAM        +2                         #  I(18) (THE REST MAY GO ANYWHERE)
003277: E6,1541  E6,1742               COF                EQUALS   MIS        +18D                       #  I(6)TMP
003278: E6,1541  E6,1750               SCAXIS             EQUALS   COF        +6                         #  I(6)TMP
003279: E6,1541  E6,1756               POINTVSM           EQUALS   SCAXIS     +6                         #  I(6)TMP
003280: E6,1541  E6,1764               AM                 EQUALS   POINTVSM   +6                         #  I(2)TMP
003281: E6,1541  E6,1766               RAD                EQUALS   AM         +2                         #  I(2)TMP
003282:
003283:                                                                                                  #  FIRST-ORDER OVERLAYS IN KALCMANU
003284: E6,1541  E6,1666               KV1                EQUALS   TMIS                                  #  I(6)TMP
003285: E6,1541  E6,1666               MFISYM             EQUALS   TMIS                                  #  I   TMP
003286: E6,1541  E6,1666               TMFI               EQUALS   TMIS                                  #  I   TMP
003287: E6,1541  E6,1666               NCDU               EQUALS   TMIS                                  #  B   TMP
003288: E6,1541  E6,1671               NEXTIME            EQUALS   TMIS       +3                         #  B   TMP
003289: E6,1541  E6,1672               TTEMP              EQUALS   TMIS       +4                         #  B   TMP
003290: E6,1541  E6,1674               KV2                EQUALS   TMIS       +6                         #  I(6)TMP
003291: E6,1541  E6,1674               BIASTEMP           EQUALS   TMIS       +6                         #  B   TMP
003292: E6,1541  E6,1702               KV3                EQUALS   TMIS       +12D                       #  I(6)TMP
003293: E6,1541  E6,1702               CGF                EQUALS   TMIS       +12D                       #  I   TMP
003294:
003295: E6,1541  E6,1710               BRATE              EQUALS   COFSKEW                               #  B   TMP
003296: E6,1541  E6,1716               TM                 EQUALS   CAM                                   #  B   TMP
003297:
003298:                                                                                                  #  SECOND-ORDER OVERLAYS IN KALCMANU
003299: E6,1541  E6,1666               P21                EQUALS   KV1                                   #  I(2)TMP
003300: E6,1541  E6,1670               D21                EQUALS   KV1        +2                         #  I(2)TMP
003301: E6,1541  E6,1672               G21                EQUALS   KV1        +4                         #  I(2)TMP
003302:
003303:                                                                                                  #  SATURN BOOST STORAGE.  SAVE TILL RCS DAP OPERATION.   (17D)
003304: E6,1541  E6,1661               POLYNUM            EQUALS   BCDU                                  #  B(15) PAD LOADED
003305: E6,1541  E6,1673               POLYLOC            =        POLYNUM    +10D
003306: E6,1541  E6,1700               SATRLRT            EQUALS   POLYNUM    +15D                       #  B(2) PAD LOADED
003307:
003308:                                                                                                  #  MORE P11 STORAGE -PAD LOADED-         (2D)


003310:                                                                                                  #  (NOTE:  THIS PAD LOAD WILL NOT BE PRESERVED THROUGHOUT THE MISSION AS IT SHARES STORAGE WITH KALCMANU,
003311:                                                                                                  #  ENTRY DAP AND TVC DAP)
003312: E6,1541  E6,1702               RPSTART            EQUALS   SATRLRT    +2                         #  B(1) PITCH ROLL START TIME
003313: E6,1541  E6,1703               POLYSTOP           EQUALS   RPSTART    +1                         #  B(1) POLYCUT OFF MINUS RPSTART SEC
003314:
003315:                                                                                                  #  STORAGE FOR VHHDOT AND ATTDSP
003316: E6,1541  E6,1704               BODY3              EQUALS   POLYSTOP   +1                         #  B(1)OUT
003317: E6,1541  E6,1705               BODY2              EQUALS   BODY3      +1                         #  B(1)OUT
003318: E6,1541  E6,1706               BODY1              EQUALS   BODY2      +1                         #  B(1)OUT
003319: E6,1541  E6,1707               SPOLYARG           EQUALS   BODY1      +1                         #  B(1)TMP ARGUEMENT FOR POLLY
003320:
003321: E6,1541  E6,1503               OLDBODY1           =        EDRIVEX                               #  1 PULSE = 0.0432 DEGREES
003322: E6,1541  E6,1504               OLDBODY2           =        EDRIVEY
003323: E6,1541  E6,1505               OLDBODY3           =        EDRIVEZ
003324:
003325:                                                                                                  #  STORAGE FOR S11.1
003326: E6,1541  E6,1710               VDISP              EQUALS   SPOLYARG   +1                         #  I(2)OUT       2(7) M/CS
003327: E6,1541  E6,1712               HDISP              EQUALS   VDISP      +2                         #  I(2)OUT       2(29) M
003328: E6,1541  E6,1714               HDOTDISP           EQUALS   HDISP      +2                         #  I(2)OUT       2(7) M/CS
003329: E6,1541  E6,1716               BOOSTEMP           EQUALS   HDOTDISP   +2                         #  B(2) TEMP
003330:
003331:                                                                                                  #  P21 STORAGE.                          (1D)
003332: E6,1541  E6,1770               GENRET             EQUALS   RAD        +2                         #  B(1)TMP
003333:
003334:                                                                                                  #  R61CSM STORAGE.                               (1D)
003335: E6,1541  E6,1771               SAVBNK             EQUALS   GENRET     +1                         #  B(1) S-S SAVE EBANK FOR R61 SUBROUTINE
003336:
003337:                                                                                                  #  CRS61.1 STORAGE FOR AUTOPILOT BANK.           (3D)
003338: E6,1541  E6,1772               SAVEDCDU           EQUALS   SAVBNK     +1                         #  B(3)TMP
003339:
003340:                                                                                                  #  R61 STORAGE.                                  (1D)
003341: E6,1541  E6,1775               R61CNTR            EQUALS   SAVEDCDU   +3                         #   (1)TMP
003342:
003343:                                                                                                  #  ENTRY RESTART PROTECTION STORAGE.  -KEEP TEMPS IN ORDER-      (12D)


003345: E6,1541  E6,1770               TEMPROLL           EQUALS   GENRET                                #  B(1)TMP COPY CYCLE REGISTER
003346: E6,1541  E6,1771               TEMPALFA           EQUALS   TEMPROLL   +1                         #  B(1)TMP COPY CYCLE REGISTER
003347: E6,1541  E6,1772               TEMPBETA           EQUALS   TEMPALFA   +1                         #  B(1)TMP COPY CYCLE REGISTER
003348: E6,1541  E6,1773               60GENRET           EQUALS   TEMPBETA   +1                         #  B(1)TMP QSAVE FOR S61.1 AND ENTRY.
003349: E6,1541  E6,1774               S61DT              EQUALS   60GENRET   +1                         #  B(1)TMP VARIABLE DT FOR S61.1 RESTART.
003350:
003351:                                                                                                  #  ENTRY TM SHARING FOR ACCELERATION PROFILE.
003352: E6,1541  E6,1533               XPIPBUF            EQUALS   ADOT                                  #  B(1) PIPA BUFFER FOR TM DURING ENTRY.
003353: E6,1541  E6,1534               YPIPBUF            EQUALS   XPIPBUF    +1                         #  B(1) PIPS FILED HERE EACH .5 SEC APPEAR
003354: E6,1541  E6,1535               ZPIPBUF            EQUALS   YPIPBUF    +1                         #  B(1) ON DOWNLIST ONCE PER SECOND DURING
003355: E6,1541  E6,1536               XOLDBUF            EQUALS   ZPIPBUF    +1                         #  B(1) ENTRY AFTER RCS DAP HAS BEEN DIS-
003356: E6,1541  E6,1537               YOLDBUF            EQUALS   XOLDBUF    +1                         #  B(1) ABLED.  NEWEST PIP VALUE REPLACES
003357: E6,1541  E6,1540               ZOLDBUF            EQUALS   YOLDBUF    +1                         #  B(1) PIPBUF, WHICH IS MOVED INTO OLDBUF.
003358:
003359:                                                                                                  #  REENTRY VARIABLES SHARED WITH RCS DAP FOR TM & FLIGHT RECORDER.
003360: E6,1541  E6,1574               Q7                 =        THETADZ                               #  I(2) HI-WORD ONLY ON DNLIST.
003361: E6,1541  E6,1525               ASPS(TM)           =        WBODY                                 #  I(6)DWN
003362:                                                                                                  #        ASKEP, ASP1, ASPUP, ASPDN, ASP3, ASP3+1
003363:
003364: E6,1541  E6,1776               END-E6             EQUALS   R61CNTR    +1                         #  NEXT FREE E6 ADDRESS
003365:


003367:                                                                                                  #  EBANK-7 ASSIGNMENTS
003368:
003369: E7,1400                                           SETLOC   3400
003370:
003371:                                                                                                  #  *-*-*-*- OVERLAY 0 IN EBANK 7 -*-*-*-*
003372:
003373:                                                                                                  #  EXTERNAL DELTA-V UPDATE.                      (21D)
003374:                                                                                                  #  (MUST BE IN ORDER FOR UPDATE PROGRAM.  ALSO ENTRY PROGRAMS PICK UP 'LAT(SPL)' WITH A VLOAD.)
003375:
003376: E7,1400                        LAT(SPL)           ERASE    +20D                                  #  I(2)DSP NOUN 61 FOR P62,63,64,67
003377: E7,1425  E7,1402               LNG(SPL)           EQUALS   LAT(SPL)   +2                         #  I(2)DSP NOUN 61 FOR P62,63,64,67.
003378:
003379: E7,1425  E7,1404               DELVSLV            EQUALS   LNG(SPL)   +2                         #  I(6)TMP DELTA VEL VECT, LOC VER COORDS
003380: E7,1425  E7,1412               TIG                EQUALS   DELVSLV    +6                         #  B(2)DSP NOUN 33 FOR X-V84(R32),P30,40.
003381: E7,1425  E7,1414               RTARG              EQUALS   TIG        +2                         #  I(6)IN DESIRED VEHICHE RADIUS VECTOR
003382: E7,1425  E7,1422               DELLT4             EQUALS   RTARG      +6                         #  I(2)IN TIME DIFFERENCE FOR INITVEL
003383: E7,1425  E7,1424               ECSTEER            EQUALS   DELLT4     +2                         #  I(1)PL FOR P40 S
003384: E7,1425  E7,1404               DELVLVC            =        DELVSLV
003385: E7,1425                        END-DELV           ERASE                                          #  *NEXT AVAIL LOC AFTER UNSHARED E7*
003386:
003387:                                                                                                  #  SERVICER STORAGE.                             (13D)
003388: E7,1426  E7,1425               DVTOTAL            EQUALS   END-DELV                              #  B(2)DSP NOUN 40,99 FOR P30,34,35,40
003389: E7,1426  E7,1427               TGO                EQUALS   DVTOTAL    +2                         #  B(2)
003390: E7,1426  E7,1431               DVCNTR             EQUALS   TGO        +2                         #  B(1)TMP
003391: E7,1426  E7,1432               DELVREF            EQUALS   DVCNTR     +1                         #  I(6)TMP
003392:
003393: E7,1426  E7,1447               NOMTIG             EQUALS   END-KALC                              #  I(2) (CANNOT SHARE WITH KALCMANU
003394:                                                                                                  #        OR DELVREF)
003395: E7,1426  E7,1451               END-SVCR           EQUALS   NOMTIG     +2                         #  ***NEXT AVAILABLE AFTER SERVICER
003396:
003397:                                                                                                  #  ALIGNMENT STORAGE.                            (25D)
003398: E7,1426  E7,1451               XSCD               EQUALS   END-SVCR                              #  I(6)TMP
003399: E7,1426  E7,1457               YSCD               EQUALS   XSCD       +6                         #  I(6)TMP
003400: E7,1426  E7,1465               ZSCD               EQUALS   YSCD       +6                         #  I(6)TMP
003401: E7,1426  E7,1473               VEL/C              EQUALS   ZSCD       +6                         #  I(6)TMP
003402: E7,1426  E7,1501               R53EXIT            EQUALS   VEL/C      +6                         #  I(1)TMP
003403:
003404:                                                                                                  #  ALIGNMENT MARKDATA (DOWNLNK) ******           (7D)
003405: E7,1426  E7,1502               MARK2DWN           EQUALS   R53EXIT    +1                         #   (7) USED BY ALLIGNMENT P50 S
003406:


003408:                                                                                                  #  *-*-*-*- OVERLAY 1 IN EBANK 7 -*-*-*-*
003409:
003410:                                                                                                  #  REENTRY ERASABLES                             (206D)
003411: E7,1426  E7,1451               RTINIT             EQUALS   END-SVCR                              #  6P
003412: E7,1426  E7,1457               RTEAST             EQUALS   RTINIT     +6                         #  6P
003413: E7,1426  E7,1465               RTNORM             EQUALS   RTEAST     +6                         #  6P
003414: E7,1426  E7,1473               RT                 EQUALS   RTNORM     +6                         #  6P
003415: E7,1426  E7,1501               UNI                EQUALS   RT         +6                         #  6P
003416: E7,1426  E7,1507               UNITV              EQUALS   UNI        +6                         #  6P
003417: E7,1426  E7,1515               VEL                EQUALS   UNITV      +6                         #  6P
003418:
003419: E7,1426  E7,1523               TIME/RTO           EQUALS   VEL        +6                         #  2P TIME OF INITIAL TARGET, RTO.
003420: E7,1426  E7,1525               -VREL              EQUALS   TIME/RTO   +2                         #  6P
003421: E7,1426  E7,1533               OLDUYA             EQUALS   -VREL      +6                         #  6P USED BY CM/POSE    (ENTRY DAP)
003422: E7,1426  E7,1541               UXA/2              EQUALS   OLDUYA     +6                         #  6P USED BY CM/POSE    (ENTRY DAP) -UVA
003423: E7,1426  E7,1541               URH                =        UXA/2                                 #        P61 DISPLAY NOUN
003424: E7,1426  E7,1547               UYA/2              EQUALS   UXA/2      +6                         #  6P USED BY CM/POSE    (ENTRY DAP) UYA
003425: E7,1426  E7,1555               UZA/2              EQUALS   UYA/2      +6                         #  6P USED BY CM/POSE    (ENTRY DAP) UNA
003426: E7,1426  E7,1563               UBX/2              EQUALS   UZA/2      +6                         #  6P USED BY CM/POSE    (ENTRY DAP)
003427: E7,1426  E7,1571               UBY/2              EQUALS   UBX/2      +6                         #  6P USED BY CM/POSE    (ENTRY DAP)
003428: E7,1426  E7,1577               UBZ/2              EQUALS   UBY/2      +6                         #  6P USED BY CM/POSE    (ENTRY DAP)
003429:
003430: E7,1426  E7,1605               DTEAROT            EQUALS   UBZ/2      +6                         #  2P
003431: E7,1426  E7,1607               DIFF               EQUALS   DTEAROT    +2                         #  2P
003432: E7,1426  E7,1611               DIFFOLD            EQUALS   DIFF       +2                         #  2P
003433: E7,1426  E7,1613               FACTOR             EQUALS   DIFFOLD    +2                         #  2P
003434: E7,1426  E7,1615               FACT1              EQUALS   FACTOR     +2                         #  2P
003435: E7,1426  E7,1617               FACT2              EQUALS   FACT1      +2                         #  2P
003436:                                                                                                  # Q7             =       THETADZ         2P SHARED FOR TM.  P64-P66
003437: E7,1426  E7,1621               VSQUARE            EQUALS   FACT2      +2                         #  2P
003438: E7,1426  E7,1623               LAD                EQUALS   VSQUARE    +2                         #  2P
003439: E7,1426  E7,1625               LOD                EQUALS   LAD        +2                         #  2P
003440: E7,1426  E7,1627               L/DCMINR           EQUALS   LOD        +2                         #  2P
003441: E7,1426  E7,1631               KLAT               EQUALS   L/DCMINR   +2                         #  2P
003442: E7,1426  E7,1633               L/D                EQUALS   KLAT       +2                         #  2P
003443: E7,1426  E7,1635               L/D1               EQUALS   L/D        +2                         #  2P
003444: E7,1426  E7,1724               LEWD               =        VIO                                   #  2P SHARED FOR TM.  P64-P65
003445: E7,1426  E7,1637               D                  EQUALS   L/D1       +2                         #  2P DSP NOUN 64,66,68 FOR P63,64,67
003446:                                                                                                  # V1             =       ENDBUF  +1      2P SHARED FOR TM. P64-P65
003447: E7,1426  E7,1641               DLEWD              EQUALS   D          +2                         #  2P
003448: E7,1426  E7,1643               K2ROLL             EQUALS   DLEWD      +2                         #  2P
003449: E7,1426  E7,1645               GOTOADDR           EQUALS   K2ROLL     +2                         #  1P
003450: E7,1426  E7,1646               TEM1B              EQUALS   GOTOADDR   +1                         #  2P
003451: E7,1426  E7,1650               MM                 EQUALS   TEM1B      +2                         #  2P
003452: E7,1426  E7,1651               GRAD               EQUALS   MM         +1                         #  1P
003453: E7,1426  E7,1652               FX                 EQUALS   GRAD       +1                         #  1P OVERWRITES NEXT 5 LOCS IN P67.
003454: E7,1426  E7,1653               LEQ                EQUALS   FX         +1                         #  2P
003455: E7,1426  E7,1655               DHOOK              EQUALS   LEQ        +2                         #  2P
003456: E7,1426  E7,1657               AHOOKDV            EQUALS   DHOOK      +2                         #  2P


003458: E7,1426  E7,1661               DVL                EQUALS   AHOOKDV    +2                         #  2P
003459:                                                                                                  # A0             =       ENDBUF  +3      2P SHARED FOR TM.(HI-WD) P64-P65
003460: E7,1426  E7,1663               A1                 EQUALS   DVL        +2                         #  2P
003461: E7,1426  E7,1665               VBARS              EQUALS   A1         +2                         #  2P
003462: E7,1426  E7,1667               COSG/2             EQUALS   VBARS      +2                         #  2P
003463:                                                                                                  # GAMMAL         =       GAMMAEI         2P SHARED FOR TM P64
003464: E7,1426                        GAMMAL1            =        22D                                   #  2P
003465: E7,1426  E7,1671               VS1                EQUALS   COSG/2     +2                         #  2P
003466: E7,1426  E7,1766               VL                 =        VPRED                                 #  2P SHARED FOR TM P64-P65
003467: E7,1426  E7,1673               V                  EQUALS   VS1        +2                         #  2P
003468:                                                                                                  # VREF           =       THETAD  +2      2P SHARED FOR TM P65
003469: E7,1426  E7,1675               LATANG             EQUALS   V          +2                         #  2P ADJACENT FOR TM.
003470: E7,1426  E7,1677               RDOT               EQUALS   LATANG     +2                         #  2P ADJACENT FOR TM.
003471: E7,1426  E7,1701               THETAH             EQUALS   RDOT       +2                         #  2P DSP NOUN 64,67 FOR P63,64,67
003472:                                                                                                  # RDOTREF        =       THETAD          2P SHARED FOR TM P65
003473: E7,1426  E7,1703               ALP                EQUALS   THETAH     +2                         #  2P
003474:
003475: E7,1426  E7,1730               ASKEP              =        ASPS                                  #  2P)                THESE ARE STORED IN
003476: E7,1426  E7,1731               ASP1               =        ASPS       +1                         #  2P)                SEQUENCE, OVERLAPPING
003477: E7,1426  E7,1732               ASPUP              =        ASPS       +2                         #  2P)>HI-WD OF EACH< HI-WORD ONLY APPEARS
003478: E7,1426  E7,1733               ASPDWN             =        ASPS       +3                         #  2P)                ON DOWNLIST, EXCEPT
003479: E7,1426  E7,1734               ASP3               =        ASPS       +4                         #  2P)                ASP3 IS COMPLETE.
003480:
003481: E7,1426  E7,1705               C/D0               EQUALS   ALP        +2                         #  2P    -1/D0
003482: E7,1426  E7,1707               D0                 EQUALS   C/D0       +2                         #  I(2)  CONSTANT DRAG
003483: E7,1426  E7,1711               Q2                 EQUALS   D0         +2                         #  2P
003484:
003485:                                                                                                  #  ROLLC IS LOCATED IN EBANK= AOG TO AID ENTRY DAP.
003486: E7,1426  E7,1713               RTGO               EQUALS   Q2         +2                         #  2P DSP NOUN 66 FOR P64,P67.
003487: E7,1426  E7,1715               DNRNGERR           EQUALS   RTGO       +2                         #  2P DSP NOUN 66 FOR P64,67.
003488: E7,1426  E7,1675               XRNGERR            =        LATANG                                #        FOR DISKY DISPLAY
003489: E7,1426  E7,1717               KAT                EQUALS   DNRNGERR   +2                         #  2P
003490: E7,1426  E7,1721               GMAX               EQUALS   KAT        +2                         #  1P DSP NOUN 60 FOR P61,62,63.
003491:                                                                                                  #  GMAX IS LOADED IN DOUBLE PRECISION
003492: E7,1426  E7,1726               L/DCALC            =        TTE                                   #  2P CALCULATED L/D FOR TM: P64-P67.
003493: E7,1426  E7,1770               GAMMAL             =        GAMMAEI                               #  2P SHARED FOR TM  P64
003494: E7,1426  E7,1770               PREDANG            =        GAMMAEI                               #        FOR TM IN P67.
003495: E7,1426  E7,1771               JJ                 =        PREDANG    +1                         #        FOR TM IN P67.
003496: E7,1426  E7,1722               VMAGI              EQUALS   GMAX       +1                         #  2P DSP NOUN 62,64,68 FOR P11,63,64.
003497: E7,1426  E7,1724               VIO                EQUALS   VMAGI      +2                         #  2P DSP NOUN 63 FOR P61.
003498: E7,1426  E7,1726               TTE                EQUALS   VIO        +2                         #  2P DSP NOUN 63 FOR P61.
003499: E7,1426  E7,1730               ASPS               EQUALS   TTE        +2                         #  I(2) HI-WORD ONLY ON DNLIST FOR TEMP
003500: E7,1426  E7,1732               TTE1               EQUALS   ASPS       +2                         #  I(2ETMP HOLDS UNDECREMENTED TTE VALUE
003501:
003502:                                                                                                  #  **** P6OS ****
003503: E7,1426  E7,1713               RTGON64            EQUALS   RTGO                                  #  RANGE ERRORS NEGATIVE IF FALLS SHORT


003505: E7,1426  E7,1713               RTGON67            EQUALS   RTGO                                  #  DSP NOUN 67
003506:
003507:                                                                                                  #  REENTRY, RETURN TO EARTH COMMON DISPLAY.      (4D)
003508: E7,1426  E7,1766               VPRED              EQUALS   BETA12     +2                         #  DSP NOUN 60 FOR P61,  ,62,63.
003509: E7,1426  E7,1770               GAMMAEI            EQUALS   VPRED      +2                         #  DSP NOUN 60 FOR P61,  ,62,63.
003510:
003511:                                                                                                  #  SOME P11 DISPLAY REGISTERS.           (6D)
003512: E7,1426  E7,1734               ALTI               EQUALS   TTE1       +2                         #  2P DSP NOUN 62 FOR P11.
003513: E7,1426  E7,1736               HDOT               EQUALS   ALTI       +2                         #  2P DSP NOUN 62 FOR P11.
003514:


003516:                                                                                                  #  *-*-*-*- OVERLAY 2 IN EBANK 7 -*-*-*-*
003517:
003518:                                                                                                  #  KALCMANU STORAGE.                             (18D)
003519: E7,1426  E7,1425               MFS                EQUALS   END-DELV                              #  I(18)
003520: E7,1426  E7,1425               MFI                EQUALS   MFS                                   #  I    TMP
003521: E7,1426  E7,1425               DEL                EQUALS   MFS                                   #  I    TMP
003522: E7,1426  E7,1447               END-KALC           EQUALS   MFS        +18D                       #  **NEXT AVAIL LOC AFTER KALCMANU**
003523:
003524:                                                                                                  #  MEASUREMENT INCORPORATION STORAGE (R22) STORAGE.      (56D)
003525:
003526: E7,1426  E7,1447               TX789              EQUALS   END-KALC                              #  I(6)TMP
003527: E7,1426  E7,1455               GAMMA              EQUALS   TX789      +6                         #  I(2)TMP
003528: E7,1426  E7,1457               OMEGA              EQUALS   GAMMA      +2                         #  I(18)TMP
003529: E7,1426  E7,1501               BVECTOR            EQUALS   OMEGA      +18D                       #  I(18)TMP
003530: E7,1426  E7,1523               DELTAQ             EQUALS   BVECTOR    +18D                       #  I(2)TMP
003531: E7,1426  E7,1525               VARIANCE           EQUALS   DELTAQ     +2                         #  I(3)TMP
003532: E7,1426  E7,1530               RCLP               EQUALS   VARIANCE   +3                         #  I(6)TMP
003533: E7,1426  E7,1536               GRP2SVQ            EQUALS   RCLP       +6                         #  I(1)TMP QSAVE FOR RESTARTS
003534:
003535:                                                                                                  #  P20, P22, P23 DSP NOUN                (5D)
003536: E7,1426  E7,1501               N49DISP            EQUALS   BVECTOR                               #  B(5)TMP
003537:
003538:                                                                                                  #  S22.1 STORAGE.                                (36D)
003539: E7,1426  E7,1537               SVMRKDAT           EQUALS   GRP2SVQ    +1                         #  I(36)TMP 5 SETS OF MARK DATA +PAD OF ONE
003540:
003541:                                                                                                  #  **** CISLUNAR NAV.  ERAS.  (P20S) ****        (57D).
003542: E7,1426  E7,1603               TRUNX              EQUALS   SVMRKDAT   +36D
003543: E7,1426  E7,1603               DATATEST           EQUALS   TRUNX                                 #   (1)
003544: E7,1426  E7,1604               UBAR0              EQUALS   TRUNX      +1
003545: E7,1426  E7,1612               UBAR1              EQUALS   UBAR0      +6
003546: E7,1426  E7,1620               UBAR2              EQUALS   UBAR1      +6
003547: E7,1426  E7,1626               RZC                EQUALS   UBAR2      +6
003548: E7,1426  E7,1634               VZC                EQUALS   RZC        +6
003549: E7,1426  E7,1642               UCLSTAR            EQUALS   VZC        +6
003550: E7,1426  E7,1650               USSTAR             EQUALS   UCLSTAR    +6
003551: E7,1426  E7,1656               RCLL               EQUALS   USSTAR     +6
003552: E7,1426  E7,1664               RL                 EQUALS   RCLL       +6
003553: E7,1426  E7,1672               SRRETURN           EQUALS   RL         +6
003554:


003556:                                                                                                  #  *-*-*-*- OVERLAY 3 IN EBANK 7 -*-*-*-*
003557:
003558:                                                                                                  #  RENDEZVOUS GUIDANCE STORAGE. -P32...P35-      (8D)
003559: E7,1426  E7,1447               DELTEEO            EQUALS   END-KALC                              #  I(2) S-S BACK VALUES OF DELTA TIME
003560: E7,1426  E7,1451               DELEL              EQUALS   DELTEEO    +2                         #  I(2) S-S
003561: E7,1426  E7,1453               SECMAX             EQUALS   DELEL      +2                         #  I(2) S-S MAX STOP SIZE FOR ROUTINE
003562: E7,1426  E7,1455               XXXALT             EQUALS   SECMAX     +2                         #  I(2)
003563:
003564:                                                                                                  #  S40.9 STORAGE.                                (16D)
003565: E7,1426  E7,1457               VG                 EQUALS   XXXALT     +2                         #  I(6)TMP
003566: E7,1426  E7,1465               VRPREV             EQUALS   VG         +6                         #  I(6)
003567: E7,1426  E7,1473               TNIT               EQUALS   VRPREV     +6                         #  I(2)
003568: E7,1426  E7,1475               TNITPREV           EQUALS   TNIT       +2                         #  I(2)
003569:
003570:                                                                                                  #  S40.2,3 STORAGE.                              (1D)
003571: E7,1426  E7,1477               AXISCODE           EQUALS   TNITPREV   +2                         #  I(1)IN
003572:
003573:                                                                                                  #  P30'S-P17 COMMON STORAGE.                     (24D)
003574: E7,1426  E7,1537               RACT3              EQUALS   GRP2SVQ    +1                         #  I(6)TMP POSITION OF ACTIVE AT TPI TIME.
003575: E7,1426  E7,1545               VACT3              EQUALS   RACT3      +6                         #  I(6)TMP VELOCITY OF ACTIVE AT TPI TIME.
003576: E7,1426  E7,1553               RPASS3             EQUALS   VACT3      +6                         #  I(6)TMP POSITION OF PASSIVE AT TPI TIME.
003577: E7,1426  E7,1561               VPASS3             EQUALS   RPASS3     +6                         #  I(6)TMP VELOCITY OF PASSIVE AT TPI TIME.
003578:
003579:                                                                                                  #  P76, N84 DISPLAY                              (6D)
003580: E7,1426  E7,1537               DELVOV             EQUALS   RACT3                                 #  I(6)DSP NOUN 84 FOR X-V84, P34-35
003581:
003582:                                                                                                  #  INITVEL/MIDGIM STORAGE.                       (34D)
003583:                                                                                                  #        (CALLED BY S34.1,2, S35.1,2, AND S40.9)
003584:                                                                                                  #        (CALLS LAMBERT, CONIC SUBROUTINES)
003585: E7,1426  E7,1567               RINIT              EQUALS   VPASS3     +6                         #  I(6)IN ACTIVE VEHICLE RADIUS VECTOR
003586: E7,1426  E7,1575               VINIT              EQUALS   RINIT      +6                         #  I(6)IN ACTIVE VEHICLE VELOCITY VECTOR
003587: E7,1426  E7,1603               RTARG1             EQUALS   VINIT      +6                         #  I(6)TMP SHIFTED RTARG
003588: E7,1426  E7,1611               VIPRIME            EQUALS   RTARG1     +6                         #  I(6)OUT NEW VEL REQ AT INITIAL RADIUS
003589: E7,1426  E7,1617               VTPRIME            EQUALS   VIPRIME    +6                         #  I(6)OUT TOTAL VELOCITY AT DESIRED RADIUS
003590: E7,1426  E7,1625               +MGA               EQUALS   VTPRIME    +6                         #  I(2)DSP NOUN 45 FOR P30,34,35.  +MID GIM.
003591: E7,1426  E7,1627               COZY4              EQUALS   +MGA       +2                         #  I(2)TMP COSINE OF ANGLE WHEN ROT STARTS
003592:
003593:                                                                                                  #  (THE FOLLOWING OVERLAYS MEASUREMENT INCORP AND CAN NOT SHARE WITH TPI


003595: E7,1426  E7,1502               INTIME             EQUALS   AXISCODE   +3
003596: E7,1426  E7,1504               ITCTR              EQUALS   INTIME     +2                         #  I(1)TMP ITERATION COUNTER
003597: E7,1426  E7,1631               END-IN/M           EQUALS   COZY4      +2                         #  ** NEXT AVAIL LOC AFTER INITVEL/MIDGIM **
003598:
003599:                                                                                                  #  P34 AND P33 STORAGE.  (OVERLAYS INITVEL/MIDGIM)       (24D)
003600: E7,1426  E7,1567               VAPREC             EQUALS   RINIT                                 #  I(6) S-S PREC VEC FOR NOM TPI TIME(ACT V
003601: E7,1426  E7,1575               RAPREC             EQUALS   VINIT                                 #  I(6) S-S PREC VEC FOR NOM TPI TIME(ACT V
003602: E7,1426  E7,1611               VPPREC             EQUALS   VIPRIME                               #  I(6) S-S PREC VEC FOR NOM TPI TIME(PASS
003603: E7,1426  E7,1617               RPPREC             EQUALS   VTPRIME                               #  I(6) S-S PREC VEC FOR NOM TPI TIME(PASS
003604:
003605:                                                                                                  #  P30, P40 INTERFACE.                           (20D)
003606: E7,1426  E7,1631               RTIG               EQUALS   END-IN/M                              #  I(6)TMP
003607: E7,1426  E7,1637               VTIG               EQUALS   RTIG       +6                         #  I(6)TMP
003608: E7,1426  E7,1645               DELVSIN            EQUALS   VTIG       +6                         #  I(6)TMP
003609: E7,1426  E7,1645               DELVEET3           EQUALS   DELVSIN                               #      TMP DELTA VEL VECT INERTIAL COORDS.
003610: E7,1426  E7,1645               VGTEMP             EQUALS   DELVEET3
003611: E7,1426  E7,1653               DELVSAB            EQUALS   DELVSIN    +6                         #  I(2)TMP
003612: E7,1426  E7,1653               VGDISP             =        DELVSAB                               #  DSP NOUN 40,42,99FOR P30,34,35,40,41
003613:
003614:                                                                                                  #  P35-P40 INTERFACE STORAGE.  (OVERLAYS P30-P40 I/F STORAGE)    (12D)
003615: E7,1426  E7,1631               RPASS4             EQUALS   RTIG                                  #  I(6)TMP POSITION OF PASSIVE AT INTERCEPT
003616: E7,1426  E7,1637               VPASS4             EQUALS   RPASS4     +6                         #  I(6)TMP VELOCITY OF PASSIVE AT INTERCEPT
003617:
003618:                                                                                                  #  TPI SEARCH (P17)                              (6D)
003619: E7,1426  E7,1645               E2                 EQUALS   VPASS4     +6                         #  I(6)TMP
003620:
003621:                                                                                                  #  P30-P40 COMMON STORAGE.                       (3D)
003622: E7,1426  E7,1655               TPASS4             EQUALS   DELVSAB    +2                         #  I(2)TMP
003623: E7,1426  E7,1655               TINT               =        TPASS4                                #  I(2)
003624: E7,1426  E7,1657               QTEMP              EQUALS   TPASS4     +2                         #  I(1)TMP
003625:
003626:                                                                                                  #  P30-P40 STORAGE.                              (4D)
003627: E7,1426  E7,1660               TTOGO              EQUALS   QTEMP      +1                         #  B(2)DSP NOUN 35,40,45,59,99
003628:                                                                                                  #          FOR P30,34,35,40,41,47, R30.
003629: E7,1426  E7,1662               TTPI               EQUALS   TTOGO      +2                         #  B(2)DSP NOUN 37 FOR P34 TPI TIME, CSECS.


003631: E7,1426  E7,1664               END-P30S           EQUALS   TTPI       +2                         #  ** NEXT AVAIL LOC AFTER P30-40 STORAGE. **
003632:
003633:                                                                                                  #  P40 STORAGE.                                  (8D)
003634: E7,1426  E7,1664               VGBODY             EQUALS   END-P30S                              #  B(6)DSP NOUN 85 FOR P40,41,42 VG-SC COOR
003635: E7,1426  E7,1664               DELVCTL            =        VGBODY
003636: E7,1426  E7,1672               P40TMP             EQUALS   VGBODY     +6                         #  B(2)TMP
003637:
003638:                                                                                                  #  P47 STORAGE.
003639: E7,1426  E7,1457               DV47TEMP           EQUALS   VG
003640: E7,1426  E7,1674               DELVIMU            EQUALS   P40TMP     +2                         #  I(6)DSP NOUN 83 FOR P47 DELTAV(IMU)
003641:
003642:                                                                                                  #  S40.1 STORAGE.                                (23D)
003643: E7,1426  E7,1702               CSTEER             EQUALS   DELVIMU    +6                         #  I(2)IN
003644: E7,1426  E7,1704               BDT                EQUALS   CSTEER     +2                         #  I(6)IN
003645: E7,1426  E7,1712               UT                 EQUALS   BDT        +6                         #  I(6)OUT THRUST DIRECTION
003646: E7,1426  E7,1720               VGTIG              EQUALS   UT         +6                         #  I(6)OUT
003647: E7,1426  E7,1720               VGPREV             =        VGTIG
003648: E7,1426  E7,1726               F                  EQUALS   VGTIG      +6                         #  I(2)OUT S40.3 NEEDS THIS
003649:
003650: E7,1426  E7,1730               QTEMP1             EQUALS   F          +2                         #  I(1)TMP HOLDS RETURN
003651:


003653:                                                                                                  #  *-*-*-*- OVERLAY 4 IN EBANK 7 -*-*-*-*
003654:
003655:                                                                                                  #  S35.1 STORAGE.                                (2D)
003656: E7,1426  E7,1664               TSTRT              EQUALS   END-P30S                              #  I(2)IN MIDCOURSE START TIME
003657:
003658:                                                                                                  #  S34.1 STORAGE.  (OVERLAYS S35.1 STORAGE)      (1D)
003659: E7,1426  E7,1664               TITER              EQUALS   TSTRT                                 #  I(1)TMP ITERATION COUNTER
003660:
003661:                                                                                                  #  (P30-31 Q-SAVES)                              (1)
003662: E7,1426  E7,1664               P30/31RT           EQUALS   TITER                                 #  B(1) RETURN POINT
003663:
003664:                                                                                                  #  P20'S (COLOSSUS) STORAGE.                     (6D)
003665: E7,1426  E7,1666               S22WUNL            EQUALS   TSTRT      +2                         #  1     WUNL W8 UNKNOWN INIT VALUE
003666: E7,1426  E7,1667               S22TOFF            EQUALS   S22WUNL    +1                         #  2     T SUB OFF
003667: E7,1426  E7,1671               S22TPRIM           EQUALS   S22TOFF    +2                         #  2     SAVE TF
003668: E7,1426  E7,1673               S22EORM            EQUALS   S22TPRIM   +2                         #  0 = EARTH -- NON-ZERO = MOON
003669:
003670:                                                                                                  #  DOWNLINK ERASABLES FOR P22, P20 MARK DATA.    (8D)
003671: E7,1426  E7,1674               MARKDOWN           EQUALS   S22EORM    +1                         #  B(1)
003672: E7,1426  E7,1703               RM                 EQUALS   S22RTNEX                              #  DOWNLINK OF VHF RANGE
003673:
003674:                                                                                                  #  S22.1                                         (1D)
003675: E7,1426  E7,1703               S22RTNEX           EQUALS   MARKDOWN   +7                         #  B(1)
003676:
003677:                                                                                                  #  CRS61.1 STORAGE.  -A SUBSET OF P20-           (14D)
003678: E7,1426  E7,1704               Q611               EQUALS   RM         +1                         #  I(1)TMP QSAVE
003679: E7,1426  E7,1705               Q6111              EQUALS   Q611       +1                         #  I(1)TMP QSAVE
003680: E7,1426  E7,1706               SAVEPOS            EQUALS   Q6111      +1                         #  I(6)TMP LEM POSITION VECTOR-
003681: E7,1426  E7,1714               SAVEVEL            EQUALS   SAVEPOS    +6                         #  I(6)TMP LEM VELOCITY VECTOR-
003682:
003683:                                                                                                  #  ATTITUDE MANEUVER -CALLED BY P20,R61,R63,CRS61.1      (3D)


003685: E7,1426  E7,1722               PRAXIS             EQUALS   SAVEVEL    +6                         #  B(3) S-S DISP RES FOR PREF AXIS N95
003686:
003687:                                                                                                  #  MARK ROUTINE (R21) STORAGE.  -IS SUBSET OF R22-       (14D)
003688: E7,1426  E7,1725               MRKBUF1            EQUALS   PRAXIS     +3                         #  B(7)TMP R21 MARK BUFFER
003689: E7,1426  E7,1734               MRKBUF2            EQUALS   MRKBUF1    +7                         #  B(7)TMP R21 MARK BUFFER
003690:
003691:                                                                                                  #  MORE CONICS STORAGE.                          (4)
003692: E7,1426                        COGA               EQUALS   3774                                  #  I(2) COTAN OF INITIAL FLIGHT PATH ANGLE
003693: E7,1426  E7,1774               INDEP              EQUALS   COGA                                  #  I(1) USED BY SUBROUTINE :ITERATOR:
003694: E7,1426  E7,1776               EPSILONL           EQUALS   COGA       +2                         #  I(2)TMP
003695:
003696:                                                                                                  #  RENDEZVOUS GUIDANCE STORAGE.  -P32...P35-     (10D)
003697: E7,1426  E7,1743               ELEV               EQUALS   MRKBUF2    +7                         #  I(2)TMP
003698: E7,1426  E7,1745               RTX1               EQUALS   ELEV       +2                         #   (1)
003699: E7,1426  E7,1746               RTX2               EQUALS   RTX1       +1                         #   (1)
003700: E7,1426  E7,1747               RTMU               EQUALS   RTX2       +1                         #   (2)
003701: E7,1426  E7,1751               RTSR1/MU           EQUALS   RTMU       +2                         #   (2)
003702: E7,1426  E7,1753               CENTANG            EQUALS   RTSR1/MU   +2                         #  I(2) S-S CENTRAL ANGLE COVERED (TPI-TPF)
003703:
003704:                                                                                                  #  TPI SEARCH (S17.1, S17.2) P17 STORAGE.        (10D)
003705: E7,1426  E7,1743               DELTEE             EQUALS   MRKBUF2    +7                         #  I(2)
003706: E7,1426  E7,1745               XRS                EQUALS   DELTEE     +2                         #  I(2)
003707: E7,1426  E7,1747               THETL              EQUALS   XRS        +2                         #  I(2)
003708: E7,1426  E7,1751               TF                 EQUALS   THETL      +2                         #  I(2)
003709: E7,1426  E7,1753               DELHITE            EQUALS   TF         +2                         #   (2)
003710:


003712:                                                                                                  #  *-*-*-*- OVERLAY 5 IN EBANK 7 -*-*-*-*
003713:
003714:                                                                                                  #  P17,P34                                       (2D)
003715: E7,1426  E7,1645               NN1                EQUALS   DELVEET3                              #  I(2)DSP NOUN 55,R1
003716:
003717:                                                                                                  #  ************ THE FOLLOWING ARE FOR FLIGHT 504 ONLY ********************
003718:
003719:                                                                                                  #  RETURN-TO-EARTH STORAGE.                      (93D)
003720: E7,1426  E7,1631               RTEDVD             EQUALS   END-IN/M                              #  I(2)IN DELTA VELOCITY DESIRED         M/CS B7
003721: E7,1426  E7,1633               RTEGAM2D           EQUALS   RTEDVD     +2                         #  I(2)IN REENTRY ANGLE DESIRED          REVS B0
003722: E7,1426  E7,1635               RCON               EQUALS   RTEGAM2D   +2                         #  I(2)TMP CONIC R2 RADIUS               M B29
003723: E7,1426  E7,1637               R(T1)/             EQUALS   RCON       +2                         #  I(6)TMP POSITION VECTOR AT TIG        M B29/B27
003724: E7,1426  E7,1645               R(T1)              EQUALS   R(T1)/     +6                         #  I(2)TMP MAGNITUDE OF R(T1)/           M B29/B27
003725: E7,1426  E7,1647               DT21PR             EQUALS   R(T1)      +2                         #  I(2)TMP PREVOUS DT21                  CS B30
003726: E7,1426  E7,1651               MAMAX1             EQUALS   DT21PR     +2                         #  I(2)TMP MAJ AXIS LOW BOUND LMT        M B30
003727: E7,1426  E7,1653               MAMAX2             EQUALS   MAMAX1     +2                         #  I(2)TMP MAJ AXIS UP BOUND LMT         M B30
003728: E7,1426  E7,1655               R(T2)/             EQUALS   MAMAX2     +2                         #  I(6)TMP FINAL POSITION VECTOR         M B29/B27
003729: E7,1426  E7,1663               RD                 EQUALS   R(T2)/     +6                         #  I(2)TMP FINAL R DESIRED               M B29/B27
003730: E7,1426  E7,1665               DRCON              EQUALS   RD         +2                         #  I(2)TMP RCON SLOPE ITERATOR           M B29/B27
003731: E7,1426  E7,1667               RPRE'              EQUALS   DRCON      +2                         #  I(2)TMP PREVISOUS RPRE                M B29/B27
003732: E7,1426  E7,1671               V(T1)/             EQUALS   RPRE'      +2                         #  I(6)TMP VEL VECTOR AT TIG             M/CS B7/B5
003733: E7,1426  E7,1677               V2(T1)/            EQUALS   V(T1)/     +6                         #  I(6)TMP POST IMP VEL AT TIG           M/CS B7/B5
003734: E7,1426  E7,1705               DV                 EQUALS   V2(T1)/    +6                         #  I(2)TMP DELTA VELOCITY AT TIG         M/CS B7/B5
003735: E7,1426  E7,1707               V(T2)/             EQUALS   DV         +2                         #  I(6)TMP FINAL VELOCITY VECTOR         M/CS B7/B5
003736: E7,1426  E7,1715               T1                 EQUALS   V(T2)/     +6                         #  I(2)TMP INITIAL VECTOR TIME           CS B28
003737: E7,1426  E7,1717               PCON               EQUALS   T1         +2                         #  I(2)TMP SEMI-LATUS RECTUM             M B29
003738: E7,1426  E7,1721               X(T1)              EQUALS   PCON       +2                         #  I(2)TMP COTANGENT GAMMA1              B5
003739: E7,1426  E7,1723               T12                EQUALS   X(T1)      +2                         #  I(2)TMP INIT TO FINL POSIT TIME       CS B28
003740: E7,1426  E7,1725               DELTAT             EQUALS   T12        +2                         #  I(2)TMP DELTA T IN SAFE PERILUNE      CS B28
003741: E7,1426  E7,1727               NN1A               EQUALS   DELTAT     +2                         #  I(2)TMP ITERATION COUNTER 1
003742: E7,1426  E7,1731               NN2                EQUALS   NN1A       +2                         #  I(2)TMP ITERATION COUNTER 2
003743: E7,1426  E7,1733               RTENCKEX           EQUALS   NN2        +2                         #  I(1)TMP RTENCK RETURN ADDRESS
003744: E7,1426  E7,1734               CONICX1            EQUALS   RTENCKEX   +1                         #  I(1)TMP CONICS MU TABLE INDEX
003745: E7,1426  E7,1735               T2                 EQUALS   CONICX1    +1                         #  I(2)TMP FINAL TIME                    CS B28
003746: E7,1426  E7,1737               UR1/               EQUALS   T2         +2                         #  I(6)TMP UNIT R(T1)/                   B1
003747: E7,1426  E7,1745               UV1/               EQUALS   UR1/       +6                         #  I(6)TMP UNIT V(T1)/                   B1
003748: E7,1426  E7,1753               BETA1              EQUALS   UV1/       +6                         #  I(2)TMP 1+X(T2)**2                    B1
003749: E7,1426  E7,1755               P(T1)              EQUALS   BETA1      +2                         #  I(1)TMP PRIMARY BODY STATE TIME 1     B14
003750: E7,1426  E7,1756               CFPA               EQUALS   P(T1)      +1                         #  I(2)TMP COSINE FLIGHT PATH ANGLE      B1
003751: E7,1426  E7,1760               PHI2               EQUALS   CFPA       +2                         #  I(2)TMP PERI OR APO INDICATOR         B2
003752: E7,1426  E7,1762               SPRTEX             EQUALS   PHI2       +2                         #  I(1)TMP ROUTINE RETURN ADDRESS
003753: E7,1426  E7,1763               VNSTORE            EQUALS   SPRTEX     +1                         #  I(1)TMP VERBNOUN STORAGE
003754: E7,1426  E7,1764               BETA12             EQUALS   VNSTORE    +1                         #  I(2)TMP SIGN FOR TIMERAD
003755:
003756:                                                                                                  #  OVERLAYS WITHIN RETURN-TO-EARTH STORAGE.
003757: E7,1426                        RPRE               EQUALS   24D                                   #  I(2)TMP COMPUTED PREC RADIUS          M B29/B27


003759: E7,1426                        P/RPRE             EQUALS   26D                                   #  I(2)TMP P/R                           B4
003760: E7,1426                        R/APRE             EQUALS   28D                                   #  I(2)TMP R/A                           B6
003761: E7,1426  E7,1723               X(T2)PRE           EQUALS   T12                                   #  I(2)TMP PREC COTAN GAMMA2             B0
003762: E7,1426  E7,1725               X(T2)              EQUALS   DELTAT                                #  I(2)TMP COTAN GAMMA2                  B0
003763: E7,1426  E7,1745               UH/                EQUALS   UV1/                                  #  I(2)TMP UNIT HORIZONTAL VECTOR.       B1
003764: E7,1426  E7,1412               SPRTETIG           EQUALS   TIG                                   #  I(2)IN TIME OF IGNITION               CS B28
003765: E7,1426  E4,1721               RETLOCN            EQUALS   XR1HOLD    +1
003766:
003767: E7,1426                        WHOCARES           EQUALS   3777                                  #  A DUMMY FOR E-BANK INSENSITIVE 2CADRS.
003768: E7,1426  E7,1777               END-E7             EQUALS   WHOCARES                              #  ****** LAST LOCATION IN E7

End of include-file ERASABLE_ASSIGNMENTS.agc.  Parent file is MAIN.agc


