
Source Code
000001:                                                                                                 #  Copyright:     Public domain.
000002:                                                                                                 #  Filename:      EXECUTIVE.agc
000003:                                                                                                 #  Purpose:       Part of the source code for Colossus, build 249.
000004:                                                                                                 #                 It is part of the source code for the Command Module's (CM)
000005:                                                                                                 #                 Apollo Guidance Computer (AGC), possibly for Apollo 8 and 9.
000006:                                                                                                 #  Assembler:     yaYUL
000007:                                                                                                 #  Reference:     Starts on p. 1190 of 1701.pdf.
000008:                                                                                                 #  Contact:       Ron Burkey <info@sandroid.org>.
000009:                                                                                                 #  Website:       www.ibiblio.org/apollo.
000010:                                                                                                 #  Mod history:   08/28/04 RSB.   Adapted from correspoinding Luminary131 file.
000011:
000012:                                                                                                 #  The contents of the "Colossus249" files, in general, are transcribed
000013:                                                                                                 #  from a scanned document obtained from MIT's website,
000014:                                                                                                 #  http://hrst.mit.edu/hrs/apollo/public/archive/1701.pdf.  Notations on this
000015:                                                                                                 #  document read, in part:
000016:
000017:                                                                                                 #         Assemble revision 249 of AGC program Colossus by NASA
000018:                                                                                                 #         2021111-041.  October 28, 1968.
000019:
000020:                                                                                                 #         This AGC program shall also be referred to as
000021:                                                                                                 #                                 Colossus 1A
000022:
000023:                                                                                                 #         Prepared by
000024:                                                                                                 #                         Massachussets Institute of Technology
000025:                                                                                                 #                         75 Cambridge Parkway
000026:                                                                                                 #                         Cambridge, Massachusetts
000027:                                                                                                 #         under NASA contract NAS 9-4065.
000028:
000029:                                                                                                 #  Refer directly to the online document mentioned above for further information.
000030:                                                                                                 #  Please report any errors (relative to 1701.pdf) to info@sandroid.org.
000031:
000032:                                                                                                 #  In some cases, where the source code for Luminary 131 overlaps that of
000033:                                                                                                 #  Colossus 249, this code is instead copied from the corresponding Luminary 131
000034:                                                                                                 #  source file, and then is proofed to incorporate any changes.
000035:
000036:                                                                                                 #  Page 1190
000037:    5027                                          BLOCK    02
000038:
000039:                                                                                                 #  TO ENTER A JOB REQUEST REQUIRING NO VAC AREA:
000040:
000041:    5027                                          COUNT    02/EXEC
000042:
000043:    5027           00004        NOVAC             INHINT
000044:    5030           65121                          AD       FAKEPRET                              #  LOC(MPAC +6) - LOC(QPRET)
000045:    5031           54063                          TS       NEWPRIO                               #  PRIORITY OF NEW JOB + NOVAC C(FIXLOC)
000046:
000047:    5032           00006                          EXTEND
000048:    5033           50002                          INDEX    Q                                     #  Q WILL BE UNDISTURBED THROUGHOUT.
000049:    5034           30001                          DCA      0                                     #  2CADR OF JOB ENTERED.
000050:    5035           52066                          DXCH     NEWLOC
000051:    5036           35120                          CAF      EXECBANK
000052:    5037           56004                          XCH      FBANK
000053:    5040           54061                          TS       EXECTEM1
000054:    5041           12650                          TCF      NOVAC2                                #  ENTER EXECUTIVE BANK.
000055:
000056:                                                                                                 #  TO ENTER A JOB REQUEST REQUIREING A VAC AREA -- E.G., ALL (PARTIALLY) INTERPRETIVE JOBS.
000057:
000058:    5042           00004        FINDVAC           INHINT
000059:    5043           54063                          TS       NEWPRIO
000060:    5044           00006                          EXTEND
000061:    5045           50002                          INDEX    Q
000062:    5046           30001                          DCA      0
000063:    5047           52066        SPVACIN           DXCH     NEWLOC
000064:    5050           35120                          CAF      EXECBANK
000065:    5051           56004                          XCH      FBANK
000066:    5052           12626                          TCF      FINDVAC2                              #  OFF TO EXECUTIVE SWITCHED-BANK.
000067:
000068:                                                                                                 #  TO ENTER A FINDVAC WITH THE PRIORITY IN NEWPRIO TO THE 2CADR ARRIVING IN A AND L:
000069:                                                                                                 #  USERS OF SPVAC MUST INHINT BEFORE STORING IN NEWPRIO.
000070:
000071:    5053           56002        SPVAC             XCH      Q
000072:    5054           67715                          AD       NEG2
000073:    5055           56002                          XCH      Q
000074:    5056           15047                          TCF      SPVACIN
000075:
000076:                                                                                                 #  TO SUSPEND A BASIC JOB SO A HIGHER PRIORITY JOB MAY BE SERVICED:
000077:
000078:    5057           22002        CHANG1            LXCH     Q
000079:    5060           35120                          CAF      EXECBANK
000080:    5061           56006                          XCH      BBANK
000081:    5062           12727                          TCF      CHANJOB
000082:
000083:                                                                                                 #  TO SUSPEND AN INTERPRETIVE JOB:
000084:
000085:    5063           40164        CHANG2            CS       LOC                                   #  NEGATIVE LOC SHOWS JOB = INTERPRETIVE.
000086:
000087:                                                                                                 #  ITRACE (4) REFERS TO "CHANG2"
000088:                                                                                                 #  Page 1191
000089:    5064           54001                          TS       L
000090:    5065           35120                 +2       CAF      EXECBANK
000091:    5066           54006                          TS       BBANK
000092:    5067           12726                          TCF      CHANJOB    -1
000093:
000094:                                                                                                 #  Page 1192
000095:                                                                                                 #  TO VOLUNTARILY SUSPEND A JOB UNTIL THE COMPLETION OF SOME ANTICIPATED EVENT (I/O EVENT ETC.):
000096:
000097:    5070           54164        JOBSLEEP          TS       LOC
000098:    5071           35120                          CAF      EXECBANK
000099:    5072           54004                          TS       FBANK
000100:    5073           13017                          TCF      JOBSLP1
000101:
000102:                                                                                                 #  TO AWAKEN A JOB PUT TO SLEEP IN THE ABOVE FASHION:
000103:
000104:    5074           00004        JOBWAKE           INHINT
000105:    5075           54065                          TS       NEWLOC
000106:    5076           44711                          CS       TWO                                   #  EXIT IS VIA FINDVAC/NOVAC PROCEDURES.
000107:    5077           26002                          ADS      Q
000108:    5100           35120                          CAF      EXECBANK
000109:    5101           56004                          XCH      FBANK
000110:    5102           13044                          TCF      JOBWAKE2
000111:
000112:                                                                                                 #  TO CHANGE THE PRIORITY OF A JOB CURRENTLY UNDER EXECUTION:
000113:
000114:    5103           00004        PRIOCHNG          INHINT                                         #  NEW PRIORITY ARRIVES IN A.  RETURNS TO
000115:    5104           54063                          TS       NEWPRIO                               #  CALLER AS SOON AS NEW JOB PRIORITY IS
000116:    5105           35120                          CAF      EXECBANK                              #  HIGHEST.  PREPARE FOR POSSIBLE BASIC-
000117:    5106           56006                          XCH      BBANK                                 #  STYLE CHANGE-JOB.
000118:    5107           54165                          TS       BANKSET
000119:    5110           30002                          CA       Q
000120:    5111           13113                          TCF      PRIOCH2
000121:
000122:                                                                                                 #  TO REMOVE A JOB FROM EXECUTIVE CONSIDERATIONS:
000123:
000124:    5112           35120        ENDOFJOB          CAF      EXECBANK
000125:    5113           54004                          TS       FBANK
000126:    5114           13124                          TCF      ENDJOB1
000127:
000128:    5115           30061        ENDFIND           CA       EXECTEM1                              #  RETURN TO CALLER AFTER JOB ENTRY
000129:    5116           54004                          TS       FBANK                                 #  COMPLETE.
000130:    5117           16710                          TCF      Q+2
000131:    5120           02626        EXECBANK          CADR     FINDVAC2
000132:
000133:    5121           00110        FAKEPRET          ADRES    MPAC       -36D                       #  LOC(MPAC +6) - LOC(QPRET)
000134:
000135:                                                                                                 #  Page 1193
000136:                                                                                                 #  LOCATE AN AVAILABLE VAC AREA
000137:
000138: 01,2626                                          BANK     01
000139: 01,2626                                          COUNT    01/EXEC
000140:
000141: 01,2626           54061        FINDVAC2          TS       EXECTEM1                              #  (SAVE CALLER'S BANK FIRST.)
000142: 01,2627           10400                          CCS      VAC1USE
000143: 01,2630           12643                          TCF      VACFOUND
000144: 01,2631           10454                          CCS      VAC2USE
000145: 01,2632           12643                          TCF      VACFOUND
000146: 01,2633           10530                          CCS      VAC3USE
000147: 01,2634           12643                          TCF      VACFOUND
000148: 01,2635           10604                          CCS      VAC4USE
000149: 01,2636           12643                          TCF      VACFOUND
000150: 01,2637           10660                          CCS      VAC5USE
000151: 01,2640           12643                          TCF      VACFOUND
000152: 01,2641           05604                          TC       BAILOUT
000153: 01,2642           01201                          OCT      1201                                  #  NO VAC AREAS.
000154:
000155: 01,2643           64711        VACFOUND          AD       TWO                                   #  RESERVE THIS VAC AREA BY STORING A ZERO
000156: 01,2644           22007                          ZL                                             #  IN ITS VAC USE REGISTER AND STORE THE
000157: 01,2645           50000                          INDEX    A                                     #  ADDRESS OF THE FIRST WORD OF IT IN THE
000158: 01,2646           21777                          LXCH     0          -1                         #  LOW NINE BITS OF THE PRIORITY WORD.
000159: 01,2647           26063                          ADS      NEWPRIO
000160:
000161: 01,2650           34714        NOVAC2            CAF      ZERO                                  #  NOVAC ENTERS HERE.  FIND A CORE SET.
000162: 01,2651           54064                          TS       LOCCTR
000163: 01,2652           32657                          CAF      NO.CORES                              #  SEVEN SETS OF ELEVEN REGISTERS ECH.
000164: 01,2653           54062        NOVAC3            TS       EXECTEM2
000165: 01,2654           50064                          INDEX    LOCCTR
000166: 01,2655           10167                          CCS      PRIORITY                              #  EACH PRIORITY REGISTER CONTAINS -0 IF
000167: 01,2656           12717                          TCF      NEXTCORE                              #  THE CORESPONDING CORE SET IS AVAILABLE.
000168: 01,2657           00006        NO.CORES          DEC      6          B-14
000169: 01,2660           12717                          TCF      NEXTCORE                              #  AN ACTIVE JOB HAS A POSITIVE PRIORITY
000170:                                                                                                 #  BUT A DORMANT JOB'S PRIORITY IS NEGATIVE
000171:
000172:                                                                                                 #  Page 1194
000173: 01,2661           30063        CORFOUND          CA       NEWPRIO                               #  SET THE PRIORITY OF THIS JOB IN THE CORE
000174: 01,2662           50064                          INDEX    LOCCTR                                #  SET'S PRIORITY REGISTER AND SET THE
000175: 01,2663           54167                          TS       PRIORITY                              #  JOB'S PUSH-DOWN POINTER AT THE BEGINNING
000176: 01,2664           74741                          MASK     LOW9                                  #  OF THE WORK AREA AND OVERFLOW INDICATOR.
000177: 01,2665           50064                          INDEX    LOCCTR
000178: 01,2666           54166                          TS       PUSHLOC                               #  OFF TO PREPARE FOR INTERPRETIVE PROGRAMS.
000179:
000180: 01,2667           10064                          CCS      LOCCTR                                #  IF CORE SET ZERO IS BEING LOADED, SET UP
000181: 01,2670           12704                          TCF      SETLOC                                #  OVFIND AND FIXLOC IMMEDIATELY.
000182: 01,2671           54121                          TS       OVFIND
000183: 01,2672           30166                          CA       PUSHLOC
000184: 01,2673           54120                          TS       FIXLOC
000185:
000186: 01,2674           10067        SPECTEST          CCS      NEWJOB                                #  SEE IF ANY ACTIVE JOBS WAITING (RARE).
000187: 01,2675           12704                          TCF      SETLOC                                #  MUST BE AWAKENED OUT UNCHANGED JOB.
000188: 01,2676           05640                          TC       CCSHOLE
000189: 01,2677           05640                          TC       CCSHOLE
000190: 01,2700           54067                          TS       NEWJOB                                #  +0 SHOWS ACTIVE JOB ALREADY SET.
000191: 01,2701           52066                          DXCH     NEWLOC
000192: 01,2702           52165                          DXCH     LOC
000193: 01,2703           15115                          TCF      ENDFIND
000194:
000195: 01,2704           52066        SETLOC            DXCH     NEWLOC                                #  SET UP THE LOCATION REGISTERS FOR THIS
000196: 01,2705           50064                          INDEX    LOCCTR
000197: 01,2706           52165                          DXCH     LOC
000198: 01,2707           50067                          INDEX    NEWJOB                                #  THIS INDEX INSTRUCTION INSURES THAT THE
000199: 01,2710           40167                          CS       PRIORITY                              #  HIGHEST ACTIVE PRIORITY WILL BE COMPARED
000200: 01,2711           60063                          AD       NEWPRIO                               #  WITH THE NEW PRIORITY TO SEE IF NEWJOB
000201: 01,2712           00006                          EXTEND                                         #  SHOULD BE SET TO SIGNAL A SWITCH.
000202: 01,2713           65115                          BZMF     ENDFIND
000203: 01,2714           30064                          CA       LOCCTR                                #  LOCCTR IS LEFT SET AT THIS CORE SET IF
000204: 01,2715           54067                          TS       NEWJOB                                #  THE CALLER WANTS TO LOAD ANY MPAC
000205: 01,2716           15115                          TCF      ENDFIND                               #  REGISTERS, ETC.
000206:
000207: 01,2717           33054        NEXTCORE          CAF      COREINC
000208: 01,2720           26064                          ADS      LOCCTR
000209: 01,2721           10062                          CCS      EXECTEM2
000210: 01,2722           12653                          TCF      NOVAC3
000211: 01,2723           05604                          TC       BAILOUT                               #  NO CORE SETS AVAILABLE.
000212: 01,2724           01202                          OCT      1202
000213:                                                                                                 #  Page 1195
000214:                                                                                                 #  THE FOLLOWING ROUTINE SWAPS CORE SET 0 WITH THAT WHOSE RELATIVE ADDRESS IS IN NEWJOB.
000215:
000216: 01,2725           22164                 -2       LXCH     LOC
000217: 01,2726           30165                 -1       CAE      BANKSET                               #  BANKSET, NOT BBANK, HAS RIGHT CONTENTS.
000218: 01,2727           00004        CHANJOB           INHINT
000219: 01,2730           00006                          EXTEND
000220: 01,2731           04007                          ROR      SUPERBNK                              #  PICK UP CURRENT SBANK FOR BBCON
000221: 01,2732           56001                          XCH      L                                     #  LOC IN A AND BBCON IN L.
000222: 01,2733           50067                 +4       INDEX    NEWJOB
000223: 01,2734           52165                          DXCH     LOC
000224: 01,2735           52165                          DXCH     LOC
000225:
000226: 01,2736           30165                          CAE      BANKSET
000227: 01,2737           00006                          EXTEND
000228: 01,2740           01007                          WRITE    SUPERBNK                              #  SET SBANK FOR NEW JOB.
000229: 01,2741           52155                          DXCH     MPAC                                  #  SWAP MULTI-PURPOSE ACCUMULATOR AREAS.
000230: 01,2742           50067                          INDEX    NEWJOB
000231: 01,2743           52155                          DXCH     MPAC
000232: 01,2744           52155                          DXCH     MPAC
000233: 01,2745           52157                          DXCH     MPAC       +2
000234: 01,2746           50067                          INDEX    NEWJOB
000235: 01,2747           52157                          DXCH     MPAC       +2
000236: 01,2750           52157                          DXCH     MPAC       +2
000237: 01,2751           52161                          DXCH     MPAC       +4
000238: 01,2752           50067                          INDEX    NEWJOB
000239: 01,2753           52161                          DXCH     MPAC       +4
000240: 01,2754           52161                          DXCH     MPAC       +4
000241: 01,2755           52163                          DXCH     MPAC       +6
000242: 01,2756           50067                          INDEX    NEWJOB
000243: 01,2757           52163                          DXCH     MPAC       +6
000244: 01,2760           52163                          DXCH     MPAC       +6
000245:
000246: 01,2761           34714                          CAF      ZERO
000247: 01,2762           56121                          XCH      OVFIND                                #  MAKE PUSHLOC NEGATIVE IF OVFIND NZ.
000248: 01,2763           00006                          EXTEND
000249: 01,2764           12767                          BZF      +3
000250: 01,2765           40166                          CS       PUSHLOC
000251: 01,2766           54166                          TS       PUSHLOC
000252:
000253: 01,2767           52167                          DXCH     PUSHLOC
000254: 01,2770           50067                          INDEX    NEWJOB
000255: 01,2771           52167                          DXCH     PUSHLOC
000256: 01,2772           52167                          DXCH     PUSHLOC                               #  SWAPS PUSHLOC AND PRIORITY.
000257: 01,2773           34741                          CAF      LOW9                                  #  SET FIXLOC TO BASE OF VAC AREA.
000258: 01,2774           70167                          MASK     PRIORITY
000259: 01,2775           54120                          TS       FIXLOC
000260:
000261: 01,2776           10166                          CCS      PUSHLOC                               #  SET OVERFLOW INDICATOR ACCORDING TO
000262: 01,2777           34714                          CAF      ZERO
000263: 01,3000           13005                          TCF      ENDPRCHG   -1
000264:
000265:                                                                                                 #  Page 1196
000266: 01,3001           40166                          CS       PUSHLOC
000267: 01,3002           54166                          TS       PUSHLOC
000268: 01,3003           34712                          CAF      ONE
000269: 01,3004           56121                          XCH      OVFIND
000270: 01,3005           54067                          TS       NEWJOB
000271:
000272: 01,3006           00003        ENDPRCHG          RELINT
000273: 01,3007           52165                          DXCH     LOC                                   #  BASIC JOBS HAVE POSITIVE ADDRESSES, SO
000274: 01,3010           00006                          EXTEND                                         #  DISPATCH WITH A DTCB.
000275: 01,3011           63013                          BZMF     +2                                    #  IF INTERPRETIVE, SET UP EBANK, ETC.
000276: 01,3012           52006                          DTCB
000277:                                                                                                 #  Page 1197
000278: 01,3013           40000                          COM                                            #  EPILOGUE TO JOB CHANGE FOR INTERPRETIVE
000279: 01,3014           64712                          AD       ONE
000280: 01,3015           54164                          TS       LOC                                   #  RESUME
000281: 01,3016           16017                          TCF      INTRSM
000282:
000283:                                                                                                 #  COMPLETE JOBSLEEP PREPARATIONS.
000284:
000285: 01,3017           00004        JOBSLP1           INHINT
000286: 01,3020           40167                          CS       PRIORITY                              #  NNZ PRIORITY SHOWS JOB ASLEEP.
000287: 01,3021           54167                          TS       PRIORITY
000288: 01,3022           36043                          CAF      LOW7
000289: 01,3023           70006                          MASK     BBANK
000290: 01,3024           00006                          EXTEND
000291: 01,3025           04007                          ROR      SUPERBNK                              #  SAVE OLD SUPERBANK VALUE.
000292: 01,3026           54165                          TS       BANKSET
000293: 01,3027           44714                          CS       ZERO
000294: 01,3030           54131        JOBSLP2           TS       BUF        +1                         #  HOLDS -- HIGHEST PRIORITY.
000295: 01,3031           13141                          TCF      EJSCAN                                #  SCAN FOR HIGHEST PRIORITY ALA ENDOFJOB.
000296:
000297: 01,3032           00004        NUCHANG2          INHINT                                         #  QUICK... DON'T LET NEWJOB CHANGE TO +0.
000298: 01,3033           10067                          CCS      NEWJOB
000299: 01,3034           13037                          TCF      +3                                    #  NEWJOB STILL PNZ
000300: 01,3035           00003                          RELINT                                         #  NEW JOB HAS CHANGED TO +0.  WAKE UP JOB
000301: 01,3036           13233                          TCF      ADVAN      +2                         #  VIA NUDIRECT.  (VERY RARE CASE.)
000302:
000303: 01,3037           34711                          CAF      TWO
000304: 01,3040           00006                          EXTEND
000305: 01,3041           05011                          WOR      DSALMOUT                              #  TURN ON ACTIVITY LIGHT
000306: 01,3042           52165                          DXCH     LOC                                   #  AND SAVE ADDRESS INFO FOR BENEFIT OF
000307: 01,3043           12733                          TCF      CHANJOB    +4                         #         POSSIBLE SLEEPINT JOB.
000308:
000309:                                                                                                 #  Page 1198
000310:                                                                                                 #  TO WAKE UP A JOB, EACH CORE SET IS FOUND TO LOCATE ALL JOBS WHICH ARE ASLEEP.  IF THE FCADR IN THE
000311:                                                                                                 #  LOC REGISTER OF ANY SUCH JOB MATCHES THAT SUPPLIED BY THE CALLER, THAT JOB IS AWAKENED.  IF NO JOB IS FOUND,
000312:                                                                                                 #  LOCCTR IS SET TO -1 AND NO FURTHER ACTION TAKES PLACE.
000313:
000314: 01,3044           54061        JOBWAKE2          TS       EXECTEM1
000315: 01,3045           34714                          CAF      ZERO                                  #  BEGIN CORE SET SCAN
000316: 01,3046           54064                          TS       LOCCTR
000317: 01,3047           32657                          CAF      NO.CORES
000318: 01,3050           54062        JOBWAKE4          TS       EXECTEM2
000319: 01,3051           50064                          INDEX    LOCCTR
000320: 01,3052           10167                          CCS      PRIORITY
000321: 01,3053           13056                          TCF      JOBWAKE3                              #  ACTIVE JOB -- CHECK NEXT CORE SET.
000322: 01,3054           00014        COREINC           DEC      12         B-14                       #  12 REGISTERS PER CORE SET.
000323: 01,3055           13065                          TCF      WAKETEST                              #  SLEEPING JOB -- SEE IF CADR MATCHES.
000324:
000325: 01,3056           33054        JOBWAKE3          CAF      COREINC
000326: 01,3057           26064                          ADS      LOCCTR
000327: 01,3060           10062                          CCS      EXECTEM2
000328: 01,3061           13050                          TCF      JOBWAKE4
000329: 01,3062           44712                          CS       ONE                                   #  EXIT IF SLEEPIN JOB NOT FOUND.
000330: 01,3063           54064                          TS       LOCCTR
000331: 01,3064           15115                          TCF      ENDFIND
000332:
000333: 01,3065           40065        WAKETEST          CS       NEWLOC
000334: 01,3066           50064                          INDEX    LOCCTR
000335: 01,3067           60164                          AD       LOC
000336: 01,3070           00006                          EXTEND
000337: 01,3071           13073                          BZF      +2                                    #  IF MATCH.
000338: 01,3072           13056                          TCF      JOBWAKE3                              #  EXAMINE NEXT CORE SET IF NO MATCH.
000339:
000340: 01,3073           50064                          INDEX    LOCCTR                                #  RE-COMPLEMENT PRIORITY TO SHOW JOB AWAKE
000341: 01,3074           40167                          CS       PRIORITY
000342: 01,3075           54063                          TS       NEWPRIO
000343: 01,3076           50064                          INDEX    LOCCTR
000344: 01,3077           54167                          TS       PRIORITY
000345:
000346: 01,3100           44364                          CS       FBANKMSK                              #  MASK UP THE 2CADR OF THE WAKE ADDRESS
000347: 01,3101           70065                          MASK     NEWLOC                                #  USING THE CADR IN NEWLOC AND THE EBANK
000348: 01,3102           64700                          AD       2K                                    #  HALF OF BBANK SAVED IN BANKSET.
000349: 01,3103           56065                          XCH      NEWLOC
000350: 01,3104           74364                          MASK     FBANKMSK
000351: 01,3105           50064                          INDEX    LOCCTR
000352: 01,3106           60165                          AD       BANKSET
000353: 01,3107           54066                          TS       NEWLOC     +1
000354:
000355: 01,3110           10064                          CCS      LOCCTR                                #  SPECIAL TREATMENT IF THIS JOB WAS
000356: 01,3111           12704                          TCF      SETLOC                                #  ALREADY IN THE RUN (0) POSITION.
000357: 01,3112           12674                          TCF      SPECTEST
000358:
000359:                                                                                                 #  Page 1199
000360:                                                                                                 #  PRIORITY CHANGE.  CHANGE THE CONTENTS OF PRIORITY AND SCAN FOR THE JOB OF HIGHEST PRIORITY.
000361:
000362: 01,3113           54164        PRIOCH2           TS       LOC
000363: 01,3114           34714                          CAF      ZERO                                  #  SET FLAG TO TELL ENDJOB SCANNER IF THIS
000364: 01,3115           54130                          TS       BUF                                   #  JOB IS STILL HIGHEST PRIORITY.
000365: 01,3116           34741                          CAF      LOW9
000366: 01,3117           70167                          MASK     PRIORITY
000367: 01,3120           60063                          AD       NEWPRIO
000368: 01,3121           54167                          TS       PRIORITY
000369: 01,3122           40000                          COM
000370: 01,3123           13030                          TCF      JOBSLP2                               #  AND TO EJSCAN.
000371:
000372:                                                                                                 #  Page 1200
000373:                                                                                                 #  RELEASE THIS CORE SET AND VAC AREA AND SCAN FOR THE JOB OF HIGHEST ACTIVE PRIORITY.
000374:
000375: 01,3124           00004        ENDJOB1           INHINT
000376: 01,3125           44714                          CS       ZERO
000377: 01,3126           54131                          TS       BUF        +1
000378: 01,3127           56167                          XCH      PRIORITY
000379: 01,3130           74741                          MASK     LOW9
000380: 01,3131           54001                          TS       L
000381:
000382: 01,3132           45121                          CS       FAKEPRET
000383: 01,3133           60001                          AD       L
000384:
000385: 01,3134           00006                          EXTEND
000386: 01,3135           63141                          BZMF     EJSCAN                                #  NOVAC ENDOFJOB
000387:
000388: 01,3136           10001                          CCS      L
000389: 01,3137           50000                          INDEX    A
000390: 01,3140           54000                          TS       0
000391:
000392: 01,3141           10203        EJSCAN            CCS      PRIORITY   +12D
000393: 01,3142           03206                          TC       EJ1
000394: 01,3143           05640                          TC       CCSHOLE
000395: 01,3144           13145                          TCF      +1
000396:
000397: 01,3145           10217                          CCS      PRIORITY   +24D                       #  EXAMINE EACH PRIORITY REGISTER TO FIND
000398: 01,3146           03206                          TC       EJ1                                   #  THE JOB OF HIGHEST ACTIVE PRIORITY.
000399: 01,3147           05640                          TC       CCSHOLE
000400: 01,3150           13151                          TCF      +1
000401:
000402: 01,3151           10233                          CCS      PRIORITY   +36D
000403: 01,3152           03206                          TC       EJ1
000404: 01,3153           67610        -CCSPR            -CCS     PRIORITY
000405: 01,3154           13155                          TCF      +1
000406:
000407: 01,3155           10247                          CCS      PRIORITY   +48D
000408: 01,3156           03206                          TC       EJ1
000409: 01,3157           05640                          TC       CCSHOLE
000410: 01,3160           13161                          TCF      +1
000411:
000412: 01,3161           10263                          CCS      PRIORITY   +60D
000413: 01,3162           03206                          TC       EJ1
000414: 01,3163           05640                          TC       CCSHOLE
000415: 01,3164           13165                          TCF      +1
000416:
000417: 01,3165           10277                          CCS      PRIORITY   +72D
000418: 01,3166           03206                          TC       EJ1
000419: 01,3167           05640                          TC       CCSHOLE
000420: 01,3170           13171                          TCF      +1
000421:
000422:                                                                                                 #  Page 1201
000423:                                                                                                 #  EVALUATE THE RESULTS OF THE SCAN.
000424:
000425: 01,3171           10131                          CCS      BUF        +1                         #  SEE IF THERE ARE ANY ACTIVE JOBS WAITING
000426: 01,3172           05640                          TC       CCSHOLE
000427: 01,3173           05640                          TC       CCSHOLE
000428:
000429: 01,3174           13176                          TCF      +2
000430: 01,3175           13223                          TCF      DUMMYJOB
000431: 01,3176           10130                          CCS      BUF                                   #  BUF IS ZERO IS THIS IS A PRIOCHNG AND
000432: 01,3177           13201                          TCF      +2                                    #  CHANGED PRIORITY IS STILL HIGHEST.
000433: 01,3200           13005                          TCF      ENDPRCHG   -1
000434:
000435: 01,3201           50000                          INDEX    A                                     #  OTHERWISE, SE NEWJOB TO THE RELATIVE
000436:                                                                                                 #  Was CAF --- RSB 2004
000437: 01,3202           27777                          CA       0          -1                         #  ADDRESS OF THE NEW JOB'S CORE SET.
000438: 01,3203           63153                          AD       -CCSPR
000439: 01,3204           54067                          TS       NEWJOB
000440: 01,3205           12725                          TCF      CHANJOB    -2
000441:
000442: 01,3206           54132        EJ1               TS       BUF        +2
000443: 01,3207           60131                          AD       BUF        +1                         #  - OLD HIGH PRIORITY.
000444: 01,3210           10000                          CCS      A
000445: 01,3211           40132                          CS       BUF        +2
000446: 01,3212           13216                          TCF      EJ2                                   #  NEW HIGH PRIORITY.
000447: 01,3213           13214                          NOOP
000448: 01,3214           50002                          INDEX    Q
000449: 01,3215           00002                          TC       2                                     #  PROCEED WITH SEARCH.
000450:
000451: 01,3216           54131        EJ2               TS       BUF        +1
000452: 01,3217           00006                          EXTEND
000453: 01,3220           22130                          QXCH     BUF                                   #  FOR LOCATING CCS PRIORITY + X INSTR.
000454: 01,3221           50130                          INDEX    BUF
000455: 01,3222           00002                          TC       2
000456:
000457:                                                                                                 #  Page 1202
000458:                                                                                                 #  IDLING AND COMPUTER ACTIVITY (GREEN) LIGHT MAINTENANCE. THE IDLING ROUTIEN IS NOT A JOB IN ITSELF,
000459:                                                                                                 #  BUT RATHER A SUBROUTINE OF THE EXECUTIVE.
000460:
000461: 01,3223     1361                                 EBANK=   SELFRET                               #  SELF-CHECK STORAE IN EBANK.
000462:
000463: 01,3223           44714        DUMMYJOB          CS       ZERO                                  #  SET NEWJOB TO -0 FOR IDLING.
000464: 01,3224           54067                          TS       NEWJOB
000465: 01,3225           00003                          RELINT
000466: 01,3226           44711                          CS       TWO                                   #  TURN OFF THE ACTIVITY LIGHT.
000467: 01,3227           00006                          EXTEND
000468: 01,3230           03011                          WAND     DSALMOUT
000469: 01,3231           10067        ADVAN             CCS      NEWJOB                                #  IS THE NEWJOB ACTIVE?
000470: 01,3232           13032                          TCF      NUCHANG2                              #  YES... ONE REQUIRING A CHANGE JOB.
000471: 01,3233           34711                          CAF      TWO                                   #  NEW JOB ALREADY IN POSITION FOR
000472: 01,3234           13242                          TCF      NUDIRECT                              #  EXECUTION
000473:
000474: 01,3235           31361                          CA       SELFRET
000475: 01,3236           54001                          TS       L                                     #  PUT RETURN ADDRESS IN L.
000476: 01,3237           33241                          CAF      SELFBANK
000477: 01,3240           15123                          TCF      SUPDXCHZ   +1                         #  AND DISPATCH JOB.
000478:
000479: 01,3241     1361                                 EBANK=   SELFRET
000480: 01,3241           66102        SELFBANK          BBCON    SELFCHK
000481:
000482: 01,3242           00006        NUDIRECT          EXTEND                                         #  TURN THE GREEN LIGHT BACK ON.
000483: 01,3243           05011                          WOR      DSALMOUT
000484: 01,3244           52165                          DXCH     LOC                                   #  JOBS STARTED IN THIS FASHION MUST BE
000485: 01,3245           15122                          TCF      SUPDXCHZ
000486:
000487:    5122                                          BLOCK    2                                     #  IN FIXED-FIXED SO OTHERS MAY USE.
000488:
000489:    5122                                          COUNT    02/EXEC
000490:
000491:                                                                                                 #  SUPDXCHZ -- ROUTINE TO TRANSFER TO SUPEBANK.
000492:                                                                                                 #  CALLING SEQUENCE:
000493:                                                                                                 #                 TCF     SUPDXCHZ        # WITH 2CADR OF DESIRED LOCATION IN A + l.
000494:
000495:    5122           56001        SUPDXCHZ          XCH      L                                     #  BASIC.
000496:    5123           00006                 +1       EXTEND
000497:    5124           01007                          WRITE    SUPERBNK
000498:    5125           54006                          TS       BBANK
000499:    5126           00001                          TC       L
000500:
000501:    5127           77677        NEG100            OCT      77677
000502:
000503:
000504:

End of include-file EXECUTIVE.agc.  Parent file is MAIN.agc


