
Source Code


000002:                                                                                                  #  Copyright:    Public domain.
000003:                                                                                                  #  Filename:     EXECUTIVE.agc
000004:                                                                                                  #  Purpose:      Part of the source code for Colossus, build 249.
000005:                                                                                                  #                It is part of the source code for the Command Module's (CM)
000006:                                                                                                  #                Apollo Guidance Computer (AGC), possibly for Apollo 8 and 9.
000007:                                                                                                  #  Assembler:    yaYUL
000008:                                                                                                  #  Reference:    Starts on p. 1190 of 1701.pdf.
000009:                                                                                                  #  Contact:      Ron Burkey <info@sandroid.org>.
000010:                                                                                                  #  Website:      www.ibiblio.org/apollo.
000011:                                                                                                  #  Mod history:  08/28/04   RSB  Adapted from correspoinding Luminary131 file.
000012:                                                                                                  #                2010-10-24 JL   Indentation fixes.
000013:                                                                                                  #                2011-05-07 JL   Removed workarounds.
000014:
000015:                                                                                                  #  The contents of the "Colossus249" files, in general, are transcribed
000016:                                                                                                  #  from a scanned document obtained from MIT's website,
000017:                                                                                                  #  http://hrst.mit.edu/hrs/apollo/public/archive/1701.pdf.  Notations on this
000018:                                                                                                  #  document read, in part:
000019:
000020:                                                                                                  #        Assemble revision 249 of AGC program Colossus by NASA
000021:                                                                                                  #        2021111-041.  October 28, 1968.
000022:
000023:                                                                                                  #        This AGC program shall also be referred to as
000024:                                                                                                  #                                Colossus 1A
000025:
000026:                                                                                                  #        Prepared by
000027:                                                                                                  #                        Massachusetts Institute of Technology
000028:                                                                                                  #                        75 Cambridge Parkway
000029:                                                                                                  #                        Cambridge, Massachusetts
000030:                                                                                                  #        under NASA contract NAS 9-4065.
000031:
000032:                                                                                                  #  Refer directly to the online document mentioned above for further information.
000033:                                                                                                  #  Please report any errors (relative to 1701.pdf) to info@sandroid.org.
000034:
000035:                                                                                                  #  In some cases, where the source code for Luminary 131 overlaps that of
000036:                                                                                                  #  Colossus 249, this code is instead copied from the corresponding Luminary 131
000037:                                                                                                  #  source file, and then is proofed to incorporate any changes.
000038:
000039:                                                                                                  #  Page 1190
000040:    5027                                           BLOCK    02
000041:
000042:                                                                                                  #  TO ENTER A JOB REQUEST REQUIRING NO VAC AREA:
000043:
000044:    5027                                           COUNT    02/EXEC
000045:
000046:    5027           00004        NOVAC              INHINT
000047:    5030           65121                           AD       FAKEPRET                              #  LOC(MPAC +6) - LOC(QPRET)
000048:    5031           54063                           TS       NEWPRIO                               #  PRIORITY OF NEW JOB + NOVAC C(FIXLOC)
000049:
000050:    5032           00006                           EXTEND
000051:    5033           50002                           INDEX    Q                                     #  Q WILL BE UNDISTURBED THROUGHOUT.
000052:    5034           30001                           DCA      0                                     #  2CADR OF JOB ENTERED.
000053:    5035           52066                           DXCH     NEWLOC
000054:    5036           35120                           CAF      EXECBANK
000055:    5037           56004                           XCH      FBANK
000056:    5040           54061                           TS       EXECTEM1
000057:    5041           12650                           TCF      NOVAC2                                #  ENTER EXECUTIVE BANK.
000058:
000059:                                                                                                  #  TO ENTER A JOB REQUEST REQUIREING A VAC AREA -- E.G., ALL (PARTIALLY) INTERPRETIVE JOBS.
000060:
000061:    5042           00004        FINDVAC            INHINT
000062:    5043           54063                           TS       NEWPRIO
000063:    5044           00006                           EXTEND
000064:    5045           50002                           INDEX    Q
000065:    5046           30001                           DCA      0
000066:    5047           52066        SPVACIN            DXCH     NEWLOC
000067:    5050           35120                           CAF      EXECBANK
000068:    5051           56004                           XCH      FBANK
000069:    5052           12626                           TCF      FINDVAC2                              #  OFF TO EXECUTIVE SWITCHED-BANK.
000070:
000071:                                                                                                  #  TO ENTER A FINDVAC WITH THE PRIORITY IN NEWPRIO TO THE 2CADR ARRIVING IN A AND L:
000072:                                                                                                  #  USERS OF SPVAC MUST INHINT BEFORE STORING IN NEWPRIO.
000073:
000074:    5053           56002        SPVAC              XCH      Q
000075:    5054           67715                           AD       NEG2
000076:    5055           56002                           XCH      Q
000077:    5056           15047                           TCF      SPVACIN
000078:
000079:                                                                                                  #  TO SUSPEND A BASIC JOB SO A HIGHER PRIORITY JOB MAY BE SERVICED:
000080:
000081:    5057           22002        CHANG1             LXCH     Q
000082:    5060           35120                           CAF      EXECBANK
000083:    5061           56006                           XCH      BBANK
000084:    5062           12727                           TCF      CHANJOB
000085:
000086:                                                                                                  #  TO SUSPEND AN INTERPRETIVE JOB:
000087:
000088:    5063           40164        CHANG2             CS       LOC                                   #  NEGATIVE LOC SHOWS JOB = INTERPRETIVE.
000089:
000090:                                                                                                  #  ITRACE (4) REFERS TO "CHANG2"
000091:                                                                                                  #  Page 1191
000092:    5064           54001                           TS       L
000093:    5065           35120                 +2        CAF      EXECBANK
000094:    5066           54006                           TS       BBANK
000095:    5067           12726                           TCF      CHANJOB    -1
000096:
000097:                                                                                                  #  Page 1192
000098:                                                                                                  #  TO VOLUNTARILY SUSPEND A JOB UNTIL THE COMPLETION OF SOME ANTICIPATED EVENT (I/O EVENT ETC.):
000099:
000100:    5070           54164        JOBSLEEP           TS       LOC
000101:    5071           35120                           CAF      EXECBANK
000102:    5072           54004                           TS       FBANK
000103:    5073           13017                           TCF      JOBSLP1
000104:
000105:                                                                                                  #  TO AWAKEN A JOB PUT TO SLEEP IN THE ABOVE FASHION:
000106:
000107:    5074           00004        JOBWAKE            INHINT
000108:    5075           54065                           TS       NEWLOC
000109:    5076           44711                           CS       TWO                                   #  EXIT IS VIA FINDVAC/NOVAC PROCEDURES.
000110:    5077           26002                           ADS      Q
000111:    5100           35120                           CAF      EXECBANK
000112:    5101           56004                           XCH      FBANK
000113:    5102           13044                           TCF      JOBWAKE2
000114:
000115:                                                                                                  #  TO CHANGE THE PRIORITY OF A JOB CURRENTLY UNDER EXECUTION:
000116:
000117:    5103           00004        PRIOCHNG           INHINT                                         #  NEW PRIORITY ARRIVES IN A.  RETURNS TO
000118:    5104           54063                           TS       NEWPRIO                               #  CALLER AS SOON AS NEW JOB PRIORITY IS
000119:    5105           35120                           CAF      EXECBANK                              #  HIGHEST.  PREPARE FOR POSSIBLE BASIC-
000120:    5106           56006                           XCH      BBANK                                 #  STYLE CHANGE-JOB.
000121:    5107           54165                           TS       BANKSET
000122:    5110           30002                           CA       Q
000123:    5111           13113                           TCF      PRIOCH2
000124:
000125:                                                                                                  #  TO REMOVE A JOB FROM EXECUTIVE CONSIDERATIONS:
000126:
000127:    5112           35120        ENDOFJOB           CAF      EXECBANK
000128:    5113           54004                           TS       FBANK
000129:    5114           13124                           TCF      ENDJOB1
000130:
000131:    5115           30061        ENDFIND            CA       EXECTEM1                              #  RETURN TO CALLER AFTER JOB ENTRY
000132:    5116           54004                           TS       FBANK                                 #  COMPLETE.
000133:    5117           16710                           TCF      Q+2
000134:    5120           02626        EXECBANK           CADR     FINDVAC2
000135:
000136:    5121           00110        FAKEPRET           ADRES    MPAC       -36D                       #  LOC(MPAC +6) - LOC(QPRET)
000137:
000138:                                                                                                  #  Page 1193
000139:                                                                                                  #  LOCATE AN AVAILABLE VAC AREA
000140:
000141: 01,2626                                           BANK     01
000142: 01,2626                                           COUNT    01/EXEC
000143:
000144: 01,2626           54061        FINDVAC2           TS       EXECTEM1                              #  (SAVE CALLER'S BANK FIRST.)
000145: 01,2627           10400                           CCS      VAC1USE
000146: 01,2630           12643                           TCF      VACFOUND
000147: 01,2631           10454                           CCS      VAC2USE
000148: 01,2632           12643                           TCF      VACFOUND
000149: 01,2633           10530                           CCS      VAC3USE
000150: 01,2634           12643                           TCF      VACFOUND
000151: 01,2635           10604                           CCS      VAC4USE
000152: 01,2636           12643                           TCF      VACFOUND
000153: 01,2637           10660                           CCS      VAC5USE
000154: 01,2640           12643                           TCF      VACFOUND
000155: 01,2641           05604                           TC       BAILOUT
000156: 01,2642           01201                           OCT      1201                                  #  NO VAC AREAS.
000157:
000158: 01,2643           64711        VACFOUND           AD       TWO                                   #  RESERVE THIS VAC AREA BY STORING A ZERO
000159: 01,2644           22007                           ZL                                             #  IN ITS VAC USE REGISTER AND STORE THE
000160: 01,2645           50000                           INDEX    A                                     #  ADDRESS OF THE FIRST WORD OF IT IN THE
000161: 01,2646           21777                           LXCH     0          -1                         #  LOW NINE BITS OF THE PRIORITY WORD.
000162: 01,2647           26063                           ADS      NEWPRIO
000163:
000164: 01,2650           34714        NOVAC2             CAF      ZERO                                  #  NOVAC ENTERS HERE.  FIND A CORE SET.
000165: 01,2651           54064                           TS       LOCCTR
000166: 01,2652           32657                           CAF      NO.CORES                              #  SEVEN SETS OF ELEVEN REGISTERS ECH.
000167: 01,2653           54062        NOVAC3             TS       EXECTEM2
000168: 01,2654           50064                           INDEX    LOCCTR
000169: 01,2655           10167                           CCS      PRIORITY                              #  EACH PRIORITY REGISTER CONTAINS -0 IF
000170: 01,2656           12717                           TCF      NEXTCORE                              #  THE CORESPONDING CORE SET IS AVAILABLE.
000171: 01,2657           00006        NO.CORES           DEC      6          B-14
000172: 01,2660           12717                           TCF      NEXTCORE                              #  AN ACTIVE JOB HAS A POSITIVE PRIORITY
000173:                                                                                                  #  BUT A DORMANT JOB'S PRIORITY IS NEGATIVE
000174:
000175:                                                                                                  #  Page 1194
000176: 01,2661           30063        CORFOUND           CA       NEWPRIO                               #  SET THE PRIORITY OF THIS JOB IN THE CORE
000177: 01,2662           50064                           INDEX    LOCCTR                                #  SET'S PRIORITY REGISTER AND SET THE
000178: 01,2663           54167                           TS       PRIORITY                              #  JOB'S PUSH-DOWN POINTER AT THE BEGINNING
000179: 01,2664           74741                           MASK     LOW9                                  #  OF THE WORK AREA AND OVERFLOW INDICATOR.
000180: 01,2665           50064                           INDEX    LOCCTR
000181: 01,2666           54166                           TS       PUSHLOC                               #  OFF TO PREPARE FOR INTERPRETIVE PROGRAMS.
000182:
000183: 01,2667           10064                           CCS      LOCCTR                                #  IF CORE SET ZERO IS BEING LOADED, SET UP
000184: 01,2670           12704                           TCF      SETLOC                                #  OVFIND AND FIXLOC IMMEDIATELY.
000185: 01,2671           54121                           TS       OVFIND
000186: 01,2672           30166                           CA       PUSHLOC
000187: 01,2673           54120                           TS       FIXLOC
000188:
000189: 01,2674           10067        SPECTEST           CCS      NEWJOB                                #  SEE IF ANY ACTIVE JOBS WAITING (RARE).
000190: 01,2675           12704                           TCF      SETLOC                                #  MUST BE AWAKENED OUT UNCHANGED JOB.
000191: 01,2676           05640                           TC       CCSHOLE
000192: 01,2677           05640                           TC       CCSHOLE
000193: 01,2700           54067                           TS       NEWJOB                                #  +0 SHOWS ACTIVE JOB ALREADY SET.
000194: 01,2701           52066                           DXCH     NEWLOC
000195: 01,2702           52165                           DXCH     LOC
000196: 01,2703           15115                           TCF      ENDFIND
000197:
000198: 01,2704           52066        SETLOC             DXCH     NEWLOC                                #  SET UP THE LOCATION REGISTERS FOR THIS
000199: 01,2705           50064                           INDEX    LOCCTR
000200: 01,2706           52165                           DXCH     LOC
000201: 01,2707           50067                           INDEX    NEWJOB                                #  THIS INDEX INSTRUCTION INSURES THAT THE
000202: 01,2710           40167                           CS       PRIORITY                              #  HIGHEST ACTIVE PRIORITY WILL BE COMPARED
000203: 01,2711           60063                           AD       NEWPRIO                               #  WITH THE NEW PRIORITY TO SEE IF NEWJOB
000204: 01,2712           00006                           EXTEND                                         #  SHOULD BE SET TO SIGNAL A SWITCH.
000205: 01,2713           65115                           BZMF     ENDFIND
000206: 01,2714           30064                           CA       LOCCTR                                #  LOCCTR IS LEFT SET AT THIS CORE SET IF
000207: 01,2715           54067                           TS       NEWJOB                                #  THE CALLER WANTS TO LOAD ANY MPAC
000208: 01,2716           15115                           TCF      ENDFIND                               #  REGISTERS, ETC.
000209:
000210: 01,2717           33054        NEXTCORE           CAF      COREINC
000211: 01,2720           26064                           ADS      LOCCTR
000212: 01,2721           10062                           CCS      EXECTEM2
000213: 01,2722           12653                           TCF      NOVAC3
000214: 01,2723           05604                           TC       BAILOUT                               #  NO CORE SETS AVAILABLE.
000215: 01,2724           01202                           OCT      1202
000216:                                                                                                  #  Page 1195
000217:                                                                                                  #  THE FOLLOWING ROUTINE SWAPS CORE SET 0 WITH THAT WHOSE RELATIVE ADDRESS IS IN NEWJOB.
000218:
000219: 01,2725           22164                 -2        LXCH     LOC
000220: 01,2726           30165                 -1        CAE      BANKSET                               #  BANKSET, NOT BBANK, HAS RIGHT CONTENTS.
000221: 01,2727           00004        CHANJOB            INHINT
000222: 01,2730           00006                           EXTEND
000223: 01,2731           04007                           ROR      SUPERBNK                              #  PICK UP CURRENT SBANK FOR BBCON
000224: 01,2732           56001                           XCH      L                                     #  LOC IN A AND BBCON IN L.
000225: 01,2733           50067                 +4        INDEX    NEWJOB
000226: 01,2734           52165                           DXCH     LOC
000227: 01,2735           52165                           DXCH     LOC
000228:
000229: 01,2736           30165                           CAE      BANKSET
000230: 01,2737           00006                           EXTEND
000231: 01,2740           01007                           WRITE    SUPERBNK                              #  SET SBANK FOR NEW JOB.
000232: 01,2741           52155                           DXCH     MPAC                                  #  SWAP MULTI-PURPOSE ACCUMULATOR AREAS.
000233: 01,2742           50067                           INDEX    NEWJOB
000234: 01,2743           52155                           DXCH     MPAC
000235: 01,2744           52155                           DXCH     MPAC
000236: 01,2745           52157                           DXCH     MPAC       +2
000237: 01,2746           50067                           INDEX    NEWJOB
000238: 01,2747           52157                           DXCH     MPAC       +2
000239: 01,2750           52157                           DXCH     MPAC       +2
000240: 01,2751           52161                           DXCH     MPAC       +4
000241: 01,2752           50067                           INDEX    NEWJOB
000242: 01,2753           52161                           DXCH     MPAC       +4
000243: 01,2754           52161                           DXCH     MPAC       +4
000244: 01,2755           52163                           DXCH     MPAC       +6
000245: 01,2756           50067                           INDEX    NEWJOB
000246: 01,2757           52163                           DXCH     MPAC       +6
000247: 01,2760           52163                           DXCH     MPAC       +6
000248:
000249: 01,2761           34714                           CAF      ZERO
000250: 01,2762           56121                           XCH      OVFIND                                #  MAKE PUSHLOC NEGATIVE IF OVFIND NZ.
000251: 01,2763           00006                           EXTEND
000252: 01,2764           12767                           BZF      +3
000253: 01,2765           40166                           CS       PUSHLOC
000254: 01,2766           54166                           TS       PUSHLOC
000255:
000256: 01,2767           52167                           DXCH     PUSHLOC
000257: 01,2770           50067                           INDEX    NEWJOB
000258: 01,2771           52167                           DXCH     PUSHLOC
000259: 01,2772           52167                           DXCH     PUSHLOC                               #  SWAPS PUSHLOC AND PRIORITY.
000260: 01,2773           34741                           CAF      LOW9                                  #  SET FIXLOC TO BASE OF VAC AREA.
000261: 01,2774           70167                           MASK     PRIORITY
000262: 01,2775           54120                           TS       FIXLOC
000263:
000264: 01,2776           10166                           CCS      PUSHLOC                               #  SET OVERFLOW INDICATOR ACCORDING TO
000265: 01,2777           34714                           CAF      ZERO
000266: 01,3000           13005                           TCF      ENDPRCHG   -1
000267:
000268:                                                                                                  #  Page 1196
000269: 01,3001           40166                           CS       PUSHLOC
000270: 01,3002           54166                           TS       PUSHLOC
000271: 01,3003           34712                           CAF      ONE
000272: 01,3004           56121                           XCH      OVFIND
000273: 01,3005           54067                           TS       NEWJOB
000274:
000275: 01,3006           00003        ENDPRCHG           RELINT
000276: 01,3007           52165                           DXCH     LOC                                   #  BASIC JOBS HAVE POSITIVE ADDRESSES, SO
000277: 01,3010           00006                           EXTEND                                         #  DISPATCH WITH A DTCB.
000278: 01,3011           63013                           BZMF     +2                                    #  IF INTERPRETIVE, SET UP EBANK, ETC.
000279: 01,3012           52006                           DTCB
000280:                                                                                                  #  Page 1197
000281: 01,3013           40000                           COM                                            #  EPILOGUE TO JOB CHANGE FOR INTERPRETIVE
000282: 01,3014           64712                           AD       ONE
000283: 01,3015           54164                           TS       LOC                                   #  RESUME
000284: 01,3016           16017                           TCF      INTRSM
000285:
000286:                                                                                                  #  COMPLETE JOBSLEEP PREPARATIONS.
000287:
000288: 01,3017           00004        JOBSLP1            INHINT
000289: 01,3020           40167                           CS       PRIORITY                              #  NNZ PRIORITY SHOWS JOB ASLEEP.
000290: 01,3021           54167                           TS       PRIORITY
000291: 01,3022           36043                           CAF      LOW7
000292: 01,3023           70006                           MASK     BBANK
000293: 01,3024           00006                           EXTEND
000294: 01,3025           04007                           ROR      SUPERBNK                              #  SAVE OLD SUPERBANK VALUE.
000295: 01,3026           54165                           TS       BANKSET
000296: 01,3027           44714                           CS       ZERO
000297: 01,3030           54131        JOBSLP2            TS       BUF        +1                         #  HOLDS -- HIGHEST PRIORITY.
000298: 01,3031           13141                           TCF      EJSCAN                                #  SCAN FOR HIGHEST PRIORITY ALA ENDOFJOB.
000299:
000300: 01,3032           00004        NUCHANG2           INHINT                                         #  QUICK... DON'T LET NEWJOB CHANGE TO +0.
000301: 01,3033           10067                           CCS      NEWJOB
000302: 01,3034           13037                           TCF      +3                                    #  NEWJOB STILL PNZ
000303: 01,3035           00003                           RELINT                                         #  NEW JOB HAS CHANGED TO +0.  WAKE UP JOB
000304: 01,3036           13233                           TCF      ADVAN      +2                         #  VIA NUDIRECT.  (VERY RARE CASE.)
000305:
000306: 01,3037           34711                           CAF      TWO
000307: 01,3040           00006                           EXTEND
000308: 01,3041           05011                           WOR      DSALMOUT                              #  TURN ON ACTIVITY LIGHT
000309: 01,3042           52165                           DXCH     LOC                                   #  AND SAVE ADDRESS INFO FOR BENEFIT OF
000310: 01,3043           12733                           TCF      CHANJOB    +4                         #        POSSIBLE SLEEPINT JOB.
000311:
000312:                                                                                                  #  Page 1198
000313:                                                                                                  #  TO WAKE UP A JOB, EACH CORE SET IS FOUND TO LOCATE ALL JOBS WHICH ARE ASLEEP.  IF THE FCADR IN THE
000314:                                                                                                  #  LOC REGISTER OF ANY SUCH JOB MATCHES THAT SUPPLIED BY THE CALLER, THAT JOB IS AWAKENED.  IF NO JOB IS FOUND,
000315:                                                                                                  #  LOCCTR IS SET TO -1 AND NO FURTHER ACTION TAKES PLACE.
000316:
000317: 01,3044           54061        JOBWAKE2           TS       EXECTEM1
000318: 01,3045           34714                           CAF      ZERO                                  #  BEGIN CORE SET SCAN
000319: 01,3046           54064                           TS       LOCCTR
000320: 01,3047           32657                           CAF      NO.CORES
000321: 01,3050           54062        JOBWAKE4           TS       EXECTEM2
000322: 01,3051           50064                           INDEX    LOCCTR
000323: 01,3052           10167                           CCS      PRIORITY
000324: 01,3053           13056                           TCF      JOBWAKE3                              #  ACTIVE JOB -- CHECK NEXT CORE SET.
000325: 01,3054           00014        COREINC            DEC      12         B-14                       #  12 REGISTERS PER CORE SET.
000326: 01,3055           13065                           TCF      WAKETEST                              #  SLEEPING JOB -- SEE IF CADR MATCHES.
000327:
000328: 01,3056           33054        JOBWAKE3           CAF      COREINC
000329: 01,3057           26064                           ADS      LOCCTR
000330: 01,3060           10062                           CCS      EXECTEM2
000331: 01,3061           13050                           TCF      JOBWAKE4
000332: 01,3062           44712                           CS       ONE                                   #  EXIT IF SLEEPIN JOB NOT FOUND.
000333: 01,3063           54064                           TS       LOCCTR
000334: 01,3064           15115                           TCF      ENDFIND
000335:
000336: 01,3065           40065        WAKETEST           CS       NEWLOC
000337: 01,3066           50064                           INDEX    LOCCTR
000338: 01,3067           60164                           AD       LOC
000339: 01,3070           00006                           EXTEND
000340: 01,3071           13073                           BZF      +2                                    #  IF MATCH.
000341: 01,3072           13056                           TCF      JOBWAKE3                              #  EXAMINE NEXT CORE SET IF NO MATCH.
000342:
000343: 01,3073           50064                           INDEX    LOCCTR                                #  RE-COMPLEMENT PRIORITY TO SHOW JOB AWAKE
000344: 01,3074           40167                           CS       PRIORITY
000345: 01,3075           54063                           TS       NEWPRIO
000346: 01,3076           50064                           INDEX    LOCCTR
000347: 01,3077           54167                           TS       PRIORITY
000348:
000349: 01,3100           44364                           CS       FBANKMSK                              #  MASK UP THE 2CADR OF THE WAKE ADDRESS
000350: 01,3101           70065                           MASK     NEWLOC                                #  USING THE CADR IN NEWLOC AND THE EBANK
000351: 01,3102           64700                           AD       2K                                    #  HALF OF BBANK SAVED IN BANKSET.
000352: 01,3103           56065                           XCH      NEWLOC
000353: 01,3104           74364                           MASK     FBANKMSK
000354: 01,3105           50064                           INDEX    LOCCTR
000355: 01,3106           60165                           AD       BANKSET
000356: 01,3107           54066                           TS       NEWLOC     +1
000357:
000358: 01,3110           10064                           CCS      LOCCTR                                #  SPECIAL TREATMENT IF THIS JOB WAS
000359: 01,3111           12704                           TCF      SETLOC                                #  ALREADY IN THE RUN (0) POSITION.
000360: 01,3112           12674                           TCF      SPECTEST
000361:
000362:                                                                                                  #  Page 1199
000363:                                                                                                  #  PRIORITY CHANGE.  CHANGE THE CONTENTS OF PRIORITY AND SCAN FOR THE JOB OF HIGHEST PRIORITY.
000364:
000365: 01,3113           54164        PRIOCH2            TS       LOC
000366: 01,3114           34714                           CAF      ZERO                                  #  SET FLAG TO TELL ENDJOB SCANNER IF THIS
000367: 01,3115           54130                           TS       BUF                                   #  JOB IS STILL HIGHEST PRIORITY.
000368: 01,3116           34741                           CAF      LOW9
000369: 01,3117           70167                           MASK     PRIORITY
000370: 01,3120           60063                           AD       NEWPRIO
000371: 01,3121           54167                           TS       PRIORITY
000372: 01,3122           40000                           COM
000373: 01,3123           13030                           TCF      JOBSLP2                               #  AND TO EJSCAN.
000374:
000375:                                                                                                  #  Page 1200
000376:                                                                                                  #  RELEASE THIS CORE SET AND VAC AREA AND SCAN FOR THE JOB OF HIGHEST ACTIVE PRIORITY.
000377:
000378: 01,3124           00004        ENDJOB1            INHINT
000379: 01,3125           44714                           CS       ZERO
000380: 01,3126           54131                           TS       BUF        +1
000381: 01,3127           56167                           XCH      PRIORITY
000382: 01,3130           74741                           MASK     LOW9
000383: 01,3131           54001                           TS       L
000384:
000385: 01,3132           45121                           CS       FAKEPRET
000386: 01,3133           60001                           AD       L
000387:
000388: 01,3134           00006                           EXTEND
000389: 01,3135           63141                           BZMF     EJSCAN                                #  NOVAC ENDOFJOB
000390:
000391: 01,3136           10001                           CCS      L
000392: 01,3137           50000                           INDEX    A
000393: 01,3140           54000                           TS       0
000394:
000395: 01,3141           10203        EJSCAN             CCS      PRIORITY   +12D
000396: 01,3142           03206                           TC       EJ1
000397: 01,3143           05640                           TC       CCSHOLE
000398: 01,3144           13145                           TCF      +1
000399:
000400: 01,3145           10217                           CCS      PRIORITY   +24D                       #  EXAMINE EACH PRIORITY REGISTER TO FIND
000401: 01,3146           03206                           TC       EJ1                                   #  THE JOB OF HIGHEST ACTIVE PRIORITY.
000402: 01,3147           05640                           TC       CCSHOLE
000403: 01,3150           13151                           TCF      +1
000404:
000405: 01,3151           10233                           CCS      PRIORITY   +36D
000406: 01,3152           03206                           TC       EJ1
000407: 01,3153           67610        -CCSPR             -CCS     PRIORITY
000408: 01,3154           13155                           TCF      +1
000409:
000410: 01,3155           10247                           CCS      PRIORITY   +48D
000411: 01,3156           03206                           TC       EJ1
000412: 01,3157           05640                           TC       CCSHOLE
000413: 01,3160           13161                           TCF      +1
000414:
000415: 01,3161           10263                           CCS      PRIORITY   +60D
000416: 01,3162           03206                           TC       EJ1
000417: 01,3163           05640                           TC       CCSHOLE
000418: 01,3164           13165                           TCF      +1
000419:
000420: 01,3165           10277                           CCS      PRIORITY   +72D
000421: 01,3166           03206                           TC       EJ1
000422: 01,3167           05640                           TC       CCSHOLE
000423: 01,3170           13171                           TCF      +1
000424:
000425:                                                                                                  #  Page 1201
000426:                                                                                                  #  EVALUATE THE RESULTS OF THE SCAN.
000427:
000428: 01,3171           10131                           CCS      BUF        +1                         #  SEE IF THERE ARE ANY ACTIVE JOBS WAITING
000429: 01,3172           05640                           TC       CCSHOLE
000430: 01,3173           05640                           TC       CCSHOLE
000431:
000432: 01,3174           13176                           TCF      +2
000433: 01,3175           13223                           TCF      DUMMYJOB
000434: 01,3176           10130                           CCS      BUF                                   #  BUF IS ZERO IS THIS IS A PRIOCHNG AND
000435: 01,3177           13201                           TCF      +2                                    #  CHANGED PRIORITY IS STILL HIGHEST.
000436: 01,3200           13005                           TCF      ENDPRCHG   -1
000437:
000438: 01,3201           50000                           INDEX    A                                     #  OTHERWISE, SE NEWJOB TO THE RELATIVE
000439: 01,3202           27777                           CAF      0          -1                         #  ADDRESS OF THE NEW JOB'S CORE SET.
000440: 01,3203           63153                           AD       -CCSPR
000441: 01,3204           54067                           TS       NEWJOB
000442: 01,3205           12725                           TCF      CHANJOB    -2
000443:
000444: 01,3206           54132        EJ1                TS       BUF        +2
000445: 01,3207           60131                           AD       BUF        +1                         #  - OLD HIGH PRIORITY.
000446: 01,3210           10000                           CCS      A
000447: 01,3211           40132                           CS       BUF        +2
000448: 01,3212           13216                           TCF      EJ2                                   #  NEW HIGH PRIORITY.
000449: 01,3213           13214                           NOOP
000450: 01,3214           50002                           INDEX    Q
000451: 01,3215           00002                           TC       2                                     #  PROCEED WITH SEARCH.
000452:
000453: 01,3216           54131        EJ2                TS       BUF        +1
000454: 01,3217           00006                           EXTEND
000455: 01,3220           22130                           QXCH     BUF                                   #  FOR LOCATING CCS PRIORITY + X INSTR.
000456: 01,3221           50130                           INDEX    BUF
000457: 01,3222           00002                           TC       2
000458:
000459:                                                                                                  #  Page 1202
000460:                                                                                                  #  IDLING AND COMPUTER ACTIVITY (GREEN) LIGHT MAINTENANCE. THE IDLING ROUTIEN IS NOT A JOB IN ITSELF,
000461:                                                                                                  #  BUT RATHER A SUBROUTINE OF THE EXECUTIVE.
000462:
000463: 01,3223     1361                                  EBANK=   SELFRET                               #  SELF-CHECK STORAE IN EBANK.
000464:
000465: 01,3223           44714        DUMMYJOB           CS       ZERO                                  #  SET NEWJOB TO -0 FOR IDLING.
000466: 01,3224           54067                           TS       NEWJOB
000467: 01,3225           00003                           RELINT
000468: 01,3226           44711                           CS       TWO                                   #  TURN OFF THE ACTIVITY LIGHT.
000469: 01,3227           00006                           EXTEND
000470: 01,3230           03011                           WAND     DSALMOUT
000471: 01,3231           10067        ADVAN              CCS      NEWJOB                                #  IS THE NEWJOB ACTIVE?
000472: 01,3232           13032                           TCF      NUCHANG2                              #  YES... ONE REQUIRING A CHANGE JOB.
000473: 01,3233           34711                           CAF      TWO                                   #  NEW JOB ALREADY IN POSITION FOR
000474: 01,3234           13242                           TCF      NUDIRECT                              #  EXECUTION
000475:
000476: 01,3235           31361                           CA       SELFRET
000477: 01,3236           54001                           TS       L                                     #  PUT RETURN ADDRESS IN L.
000478: 01,3237           33241                           CAF      SELFBANK
000479: 01,3240           15123                           TCF      SUPDXCHZ   +1                         #  AND DISPATCH JOB.
000480:
000481: 01,3241     1361                                  EBANK=   SELFRET
000482: 01,3241           66102        SELFBANK           BBCON    SELFCHK
000483:
000484: 01,3242           00006        NUDIRECT           EXTEND                                         #  TURN THE GREEN LIGHT BACK ON.
000485: 01,3243           05011                           WOR      DSALMOUT
000486: 01,3244           52165                           DXCH     LOC                                   #  JOBS STARTED IN THIS FASHION MUST BE
000487: 01,3245           15122                           TCF      SUPDXCHZ
000488:
000489:    5122                                           BLOCK    2                                     #  IN FIXED-FIXED SO OTHERS MAY USE.
000490:
000491:    5122                                           COUNT    02/EXEC
000492:
000493:                                                                                                  #  SUPDXCHZ -- ROUTINE TO TRANSFER TO SUPEBANK.
000494:                                                                                                  #  CALLING SEQUENCE:
000495:                                                                                                  #                TCF     SUPDXCHZ        # WITH 2CADR OF DESIRED LOCATION IN A + l.
000496:
000497:    5122           56001        SUPDXCHZ           XCH      L                                     #  BASIC.
000498:    5123           00006                 +1        EXTEND
000499:    5124           01007                           WRITE    SUPERBNK
000500:    5125           54006                           TS       BBANK
000501:    5126           00001                           TC       L
000502:
000503:    5127           77677        NEG100             OCT      77677

End of include-file EXECUTIVE.agc.  Parent file is MAIN.agc


