
Source Code
000001:                                                                                                 #  Copyright:     Public domain.
000002:                                                                                                 #  Filename:      EXTENDED_VERBS.agc
000003:                                                                                                 #  Purpose:       Part of the source code for Colossus, build 249.
000004:                                                                                                 #                 It is part of the source code for the Command Module's (CM)
000005:                                                                                                 #                 Apollo Guidance Computer (AGC), possibly for Apollo 8 and 9.
000006:                                                                                                 #  Assembler:     yaYUL
000007:                                                                                                 #  Reference:     pp. 232-264 of 1701.pdf.
000008:                                                                                                 #  Contact:       Ron Burkey <info@sandroid.org>.
000009:                                                                                                 #  Website:       www.ibiblio.org/apollo.
000010:                                                                                                 #  Mod history:   08/07/04 RSB.   Began adapting from corresponding Luminary
000011:                                                                                                 #                                 131 file.
000012:
000013:                                                                                                 #  The contents of the "Colossus249" files, in general, are transcribed
000014:                                                                                                 #  from a scanned document obtained from MIT's website,
000015:                                                                                                 #  http://hrst.mit.edu/hrs/apollo/public/archive/1701.pdf.  Notations on this
000016:                                                                                                 #  document read, in part:
000017:
000018:                                                                                                 #         Assemble revision 249 of AGC program Colossus by NASA
000019:                                                                                                 #         2021111-041.  October 28, 1968.
000020:
000021:                                                                                                 #         This AGC program shall also be referred to as
000022:                                                                                                 #                                 Colossus 1A
000023:
000024:                                                                                                 #         Prepared by
000025:                                                                                                 #                         Massachussets Institute of Technology
000026:                                                                                                 #                         75 Cambridge Parkway
000027:                                                                                                 #                         Cambridge, Massachusetts
000028:                                                                                                 #         under NASA contract NAS 9-4065.
000029:
000030:                                                                                                 #  Refer directly to the online document mentioned above for further information.
000031:                                                                                                 #  Please report any errors (relative to 1701.pdf) to info@sandroid.org.
000032:
000033:                                                                                                 #  In some cases, where the source code for Luminary 131 overlaps that of
000034:                                                                                                 #  Colossus 249, this code is instead copied from the corresponding Luminary 131
000035:                                                                                                 #  source file, and then is proofed to incorporate any changes.
000036:
000037:                                                                                                 #  Page 232
000038: 07,2440                                          BANK     7
000039: 43,2000                                          SETLOC   EXTVERBS
000040: 43,2000                                          BANK
000041:
000042: 43,2000  E5,1757                                 EBANK=   OGC
000043:
000044: 43,2000                                          COUNT*   $$/EXTVB
000045:
000046:                                                                                                 #  FAN-OUT
000047:
000048: 43,2000           50154        GOEXTVB           INDEX    MPAC                                  #  VERB-40 IS IN MPAC
000049: 43,2001           02002                          TC       LST2FAN                               #  FAN AS BEFROE.
000050:
000051: 43,2002           02124        LST2FAN           TC       VBZERO                                #  VB40 ZERO (USED WITH NOUN 20 OR 72 ONLY)
000052: 43,2003           02150                          TC       VBCOARK                               #  VB41 COARSE ALIGN (USED WITH NOUN 20 OR
000053:                                                                                                 #                                 91 ONLY)
000054: 43,2004           02240                          TC       IMUFINEK                              #  VB42 FINE ALIGN IMU
000055: 43,2005           02412                          TC       IMUATTCK                              #  VB43 LOAD IMU ATTITUDE ERROR METERS.
000056: 43,2006           03203                          TC       SETSURF                               #  VB44 SET SURFACE FLAG
000057: 43,2007           03206                          TC       RESTSRF                               #  VB45 RESET SURFACE FLAG
000058: 43,2010           02516                          TC       STABLISH                              #  VB46 ESTABLISH G+C CONTROL
000059: 43,2011           03100                          TC       LMTOCMSV                              #  VB47 MOVE LM STATE VECTOR INTO CM
000060: 43,2012           02536                          TC       DAPDISP                               #  VB48 LOAD A/P DATA
000061: 43,2013           12527                          TCF      CREWMANU                              #  VB49 START AUTOMATIC ATTITUDE MANEUVER
000062: 43,2014           02275                          TC       GOLOADLV                              #  VB50 PLEASE PERFORM
000063: 43,2015           02275                          TC       GOLOADLV                              #  VB51 PLEASE MARK
000064: 43,2016           03153                          TC       V52                                   #  VB52 SET OFFSET NO. FOR P22
000065: 43,2017           02275                          TC       GOLOADLV                              #  VB53 PLEASE PERFORM COAS MARK
000066: 43,2020           02576                          TC       GOTOR23                               #  VB54 PLEASE MARK
000067: 43,2021           02326                          TC       ALINTIME                              #  VB55 ALIGN TIME
000068: 43,2022           02637                          TC       TRACKTRM                              #  VB56 TERMINATE TRACKING -- P20 + P25
000069: 43,2023           02573                          TC       GOTOR21                               #  VB57 START R21 REND TRACK SIGHT MARK ROUT
000070: 43,2024           02502                          TC       ENATMA                                #  VB58 ENABLE AUTOMATIC ATTITUDE MANEUVER
000071: 43,2025           02275                          TC       GOLOADLV                              #  VB59 PLEASE CALIBRATE
000072: 43,2026           02303                          TC       V60                                   #  VB60 SET CPHIX (N17) EQUAL TO CDU
000073: 43,2027           02311                          TC       V61                                   #  VB61 SELECT MODE I
000074: 43,2030           02314                          TC       V62                                   #  VB62 SELECT MODE II, ERROR WRT N22
000075: 43,2031           02321                          TC       V63                                   #  VB63 SELECT MODE III, ERROR WRT N17
000076: 43,2032           02472                          TC       VB64                                  #  VB64 CALCULATE, DISPLAY S-BAND ANT ANGLES
000077: 43,2033           02367                          TC       CKOPTVB                               #  VB65 V65 & OPTICAL VERIFICATION FOR PRELAUNCH
000078: 43,2034           03032                          TC       ATTACHED                              #  VB66 ATTACHED          MOVE THIS TO OTHER STATE
000079: 43,2035           03175                          TC       V67                                   #  VB67 W MATRIX MONITOR
000080: 43,2036           02505                          TC       STROKON                               #  VB68 CSM STROKE TEST ON
000081: 43,2037           02037        VERB69            TC       VERB69                                #  VB69 CAUSE RESTART
000082: 43,2040           03722                          TC       V70UPDAT                              #  VB70 UPDATE LIFTOFF TIME.
000083: 43,2041           03724                          TC       V71UPDAT                              #  VB71 UNIVERSAL UPDATE -- BLOCK ADDRESS
000084: 43,2042           03726                          TC       V72UPDAT                              #  VB72 UNIVERSAL UPDATE -- SINGLE ADDRESS
000085: 43,2043           03730                          TC       V73UPDAT                              #  VB73 UPDATE AGC TIME (OCTAL)
000086: 43,2044           02706                          TC       DNEDUMP                               #  VB74 INITIALIZE DOWN-TELEMETRY PROGRAM
000087:                                                                                                 #         FOR ERASABLE DUMP.
000088: 43,2045           02712                          TC       LFTFLGON                              #  VB75 SET LIFTOFF FLAG.
000089:                                                                                                 #  Page 233
000090: 43,2046           03013                          TC       SETPRFLG                              #  VB76 SET PREFERRED ATTITUDE FLAG
000091: 43,2047           03016                          TC       RESETPRF                              #  VB77 RESET PREFERRED ATT. FLAG
000092: 43,2050           02400                          TC       CHAZFOGC                              #  CHANGE GYROCOMPASS LAUNCH AZIMUTH V78
000093: 43,2051           03004                          TC       CALLR35                               #  VB79 REQU LUNAR LNDMRK SELECTION (R35)
000094: 43,2052           02700                          TC       LEMVEC                                #  VB80 UPDATE LEM STATE VECTOR
000095: 43,2053           02703                          TC       CSMVEC                                #  VB81 UPDATE CSM STATE VECTOR
000096: 43,2054           02546                          TC       V82PERF                               #  VB82 REQUEST ORBIT PARAM DISPLAY (R30)
000097: 43,2055           02553                          TC       V83PERF                               #  VB83 RANGE, RANGE RATE, +X AXIS  (R31)
000098: 43,2056           02120                          TC       ALM/END                               #  V84  SPARE
000099: 43,2057           02565                          TC       V85PERF                               #  VB85 RANGE, RANGE RATE, SLOS      (R32)
000100: 43,2060           02632                          TC       V86PERF                               #  VB86 BACKUP MARK REJECT
000101: 43,2061           03021                          TC       SETVHFLG                              #  VB87 SET VHF RANGE FLAG
000102: 43,2062           03025                          TC       RESETVHF                              #  VB88 RESET VHF RANGE FLAG
000103: 43,2063           02732                          TC       V89PERF                               #  VB89 ALIGN X OR PRF CSM AXIS TO LOS (R63)
000104: 43,2064           03140                          TC       V90PERF                               #  VB90 OUT OF PLAN PARAMETERS       (R36)
000105: 43,2065           02751                          TC       GOSHOSUM                              #  VB91 TEMP FOR HYBRID AND STG.
000106: 43,2066           02360                          TC       SYSTEST                               #  VB92 OPERATE IMU PERFORMANCE TEST
000107: 43,2067           02742                          TC       WMATRXNG                              #  VB93 CLEAR RENDWFLG
000108: 43,2070           03124                          TC       VERB94                                #  VB94 DO R64
000109: 43,2071           02120                          TC       ALM/END                               #  VB95 SPARE
000110: 43,2072           13146                          TCF      VERB96                                #  VB96 SET QUITFLAG TO STOP INTEGRATION
000111: 43,2073           02275                          TC       GOLOADLV                              #  VB97 PLEASE PERFORM ENGINE-FAIL (R41)
000112: 43,2074           02120                          TC       ALM/END                               #  VB98 SPARE
000113: 43,2075           02275                          TC       GOLOADLV                              #  VB99 PLEASE ENABLE ENGINE
000114:
000115:                                                                                                 #  END OF EXTENDED VERB FAN
000116:
000117: 43,2076           11044        TESTXACT          CCS      EXTVBACT
000118: 43,2077           02120                          TC       ALM/END                               #  YES, TURN ON OPERATOR ERROR LIGHT
000119: 43,2100           30100                          CA       FLAGWRD4                              #  ARE PRIOS USING DSKY
000120: 43,2101           72123                          MASK     OC24100
000121: 43,2102           10000                          CCS      A
000122: 43,2103           02120                          TC       ALM/END                               #  YES
000123:
000124: 43,2104           34112                          CAF      OCT24                                 #  SET BITS 3 AND 5
000125: 43,2105           55044        SETXTACT          TS       EXTVBACT                              #  NO.  SET FLAG TO SHOW EXT VERB DISPLAY
000126:                                                                                                 #  SYSTEM BUSY
000127:
000128: 43,2106           30002                          CA       Q
000129: 43,2107           54155                          TS       MPAC       +1
000130:
000131: 43,2110           44711                          CS       TWO                                   #  BLANK EVERYTHING EXCEPT MM AND VERB
000132: 43,2111           04170                          TC       NVSUB
000133: 43,2112           02113                          TC       +1
000134: 43,2113           00155                          TC       MPAC       +1
000135:
000136: 43,2114           04400        XACTALM           TC       FALTON                                #  TURN ON OPERATOR ERROR LIGHT.
000137: 43,2115           05423                          TC       ENDEXT                                #  RELEASE MARK AND EXT. VERB DISPLAY SYS.
000138:                                                                                                 #  Page 234
000139: 43,2116     5423               TERMEXTV          EQUALS   ENDEXT
000140: 43,2116     5423               ENDEXTVB          EQUALS   ENDEXT
000141:
000142: 43,2116           34714        XACT0             CAF      ZERO                                  #  RELEASE MARK AND EXT. VERB DISPLAY SYS.
000143: 43,2117           02105                          TC       SETXTACT
000144:
000145: 43,2120           04400        ALM/END           TC       FALTON                                #  TURN ON OPERATOR ERROR LIGHT
000146: 43,2121           04574        GOPIN             TC       POSTJUMP
000147: 43,2122           21176                          CADR     PINBRNCH
000148:
000149: 43,2123           24100        OC24100           OCT      24100
000150:
000151:                                                                                                 #  Page 235
000152:                                                                                                 #  VBZERO VERB 40         DESCRIPTION
000153:
000154:                                                                                                 #         1.      REQUIRE NOUN 20 (ICDU ANGLES) OR NOUN 72 (RCDU ANGLES).
000155:                                                                                                 #         2.      REQUIRE AVAILABILITY OF EXT VERB DISPLAY SYSTEM
000156:                                                                                                 #         3.      IF EITHER OF ABOVE CONDITIONS NOT PRESENT, TURN ON OPERATOR ERROR LIGHT AND GO TO PINBRNCH.
000157:                                                                                                 #         4.      SET EXT VERB DISPLAY ACTIVE FLAG.
000158:                                                                                                 #         5.      EXECUTE IMUZERO (ZERO IMU CDU ANGLES).
000159:                                                                                                 #         6.      EXECUTE IMUSTALL (ALLOW TIME FOR DATA TRANSFER).
000160:                                                                                                 #         7.      RELEASE EXT. VERB DISPLAY SYSTEM.
000161:
000162: 43,2124           02136        VBZERO            TC       OP/INERT
000163: 43,2125           02127                          TC       IMUZEROK                              #  RETURN HERE IF NOUN = ICDU(20)
000164: 43,2126           02120                          TC       ALM/END                               #  RETURN HERE IF NOUN = OCDU(91)
000165:                                                                                                 #         (NOT IN USE YET)
000166:
000167: 43,2127           02271        IMUZEROK          TC       CKMODCAD                              #  KEYBOARD REQUEST FOR ISS CDUZERO
000168: 43,2130           04555                          TC       BANKCALL
000169: 43,2131           16516                          CADR     IMUZERO
000170:
000171: 43,2132           04555                          TC       BANKCALL                              #  STALL
000172: 43,2133           17516                          CADR     IMUSTALL
000173: 43,2134           02135                          TC       +1
000174:
000175: 43,2135           02121                          TC       GOPIN                                 #  IMUZERO
000176:
000177: 43,2136           44112        OP/INERT          CS       OCT24
000178: 43,2137           61002                          AD       NOUNREG
000179: 43,2140           00006                          EXTEND
000180: 43,2141           12470                          BZF      XACT0Q                                #  IF = 20.
000181:
000182: 43,2142           24002                          INCR     Q
000183: 43,2143           62147                          AD       OPIMDIFF                              #  -71
000184: 43,2144           00006                          EXTEND
000185: 43,2145           12470                          BZF      XACT0Q
000186:
000187: 43,2146           02120                          TC       ALM/END                               #  ILLEGAL
000188:
000189: 43,2147           77670        OPIMDIFF          DEC      -71        B-14
000190:
000191:                                                                                                 #  Page 236
000192:                                                                                                 #  VBCOARK        VERB 41         DESCRIPTION
000193:                                                                                                 #         COARSE ALIGN IMU OR RADAR
000194:
000195:                                                                                                 #         1.      REQUIRE NOUN 20 OR NOUN 91 OR TURN ON OPERATOR ERROR.
000196:                                                                                                 #         2.      REQUIRE EXT VERB DISPLAY SYS AVAILABLE OR TURN ON OPERATOR ERROR LIGHT AND GO TO PINBRNCH.
000197:                                                                                                 #                                 *** CASE 1, NOUN 20 (ICDU ANGLES) ***
000198:                                                                                                 #         3.      SET EXT VERB DISPLAY ACTIVE FLAG.
000199:                                                                                                 #         4.      DISPLAY FLASHING V25,N22 (LOAD NEW ICDU ANGLES).
000200:                                                                                                 #                 RESPONSES
000201:                                                                                                 #                 A.      TERMINATE
000202:                                                                                                 #                         1.      RELEASE EXT VERB DISPLAY SYSTEM.
000203:                                                                                                 #                 B.      PROCEED
000204:                                                                                                 #                         1.      DISPLAY FLASHING V25,N23 (LOAD DELTA ICDU ANGLES).
000205:                                                                                                 #                                 RESPONSES:
000206:                                                                                                 #                                 A.      TERMINATE
000207:                                                                                                 #                                         1.      RELEASE EXT VERB DISPLAY SYSTEM.
000208:                                                                                                 #                                 B.      PROCEED
000209:                                                                                                 #                                         1.      EXECUTE ICORK2.
000210:                                                                                                 #                                 C.      ENTER
000211:                                                                                                 #                                         1.      INCREMENT CDU ANGLES
000212:                                                                                                 #                                         2.      EXECUTE ICORK2
000213:                                                                                                 #                 C.      ENTER
000214:                                                                                                 #                         1.      EXECUTE ICORK2
000215:                                                                                                 #  ICORK2
000216:                                                                                                 #         1.      RE-DISPLAY VERB 41.
000217:                                                                                                 #         2.      EXECUTE IMUCCARS (IMU COARSE ALIGN).
000218:                                                                                                 #         3.      EXECUTE IMUSTALL (ALLOW TIME FOR DATA TRANSFER).
000219:                                                                                                 #         4.      RELEASE EXT VERB DISPLAY SYSTEM.
000220:                                                                                                 #                         *** CASE 2, NOUN 91 (OCDU ANGLES) ***
000221:                                                                                                 #         5.      (REQUIRE OPTICS SWITCH TO BE AT COMUTER OR TURN ON OPERATOR ERROR AND ALARM 115) AND (REQUIRE
000222:                                                                                                 #                 OPTICS AVAILABLE AND DISPLAY FLASHING V24,N92....LOAD NEW OPTICS ANGLES....OR TURN ON ALARM 117
000223:                                                                                                 #                 AND RELEASE EXT VERB DISPLAY SYSTEM).
000224:                                                                                                 #         6.      RESPONSES TO V29,N92
000225:                                                                                                 #                 A.      TERMINATE
000226:                                                                                                 #                         1.      RELEASE EXT VERB DISPLAY SYS.
000227:                                                                                                 #                 B.      PROCEED OR ENTER
000228:                                                                                                 #                         RE-DISPLAY VERB 41,     SET SWITCH TO INDICATE COURSE ALIGN OPTICS WORKING.
000229:                                                                                                 #                         RELEASE EXT VERB DISPLAY SYSTEM.
000230:
000231: 43,2150           02136        VBCOARK           TC       OP/INERT
000232: 43,2151           02153                          TC       IMUCOARK                              #  RETURN HERE IF NOUN = ICDU (20)
000233: 43,2152           02175                          TC       OPTCOARK                              #  RETURN HERE IF NOUN = OCDU (91)
000234:
000235:                                                                                                 #  RETURNS TO L+1 IF NOUN 20 -- TO L+2 IF NOUN 91.
000236:
000237: 43,2153           02271        IMUCOARK          TC       CKMODCAD                              #  COARSE ALIGN FROM KEYBOARD.
000238: 43,2154           02076                          TC       TESTXACT
000239: 43,2155           32173                          CAF      VNLODCDU                              #  CALL FOR THETAD LOAD
000240: 43,2156           04555                          TC       BANKCALL
000241: 43,2157           20465                          CADR     GOXDSPF
000242: 43,2160           05423                          TC       TERMEXTV
000243: 43,2161           12162                          TCF      +1
000244:                                                                                                 #  Page 237
000245:
000246: 43,2162           32174        ICORK2            CAF      IMUCOARV                              #  RE-DISPLAY COARSE ALIGN VERB
000247: 43,2163           04555                          TC       BANKCALL
000248: 43,2164           20746                          CADR     EXDSPRET
000249:
000250: 43,2165           04555                          TC       BANKCALL                              #  CALL MODE SWITCHING PROG
000251: 43,2166           16602                          CADR     IMUCOARS
000252:
000253: 43,2167           04555                          TC       BANKCALL                              #  STALL
000254: 43,2170           17516                          CADR     IMUSTALL
000255: 43,2171           05423                          TC       ENDEXTVB
000256: 43,2172           05423                          TC       ENDEXTVB
000257:
000258: 43,2173           06226        VNLODCDU          VN       2522
000259: 43,2174           12200        IMUCOARV          VN       4100
000260:
000261:                                                                                                 #  Page 238
000262:                                                                                                 #  TEMPORARY ROUTINE TO RUN THE OPTICS CDUS FROM THE KEYBOARD
000263:
000264: 43,2175           31323        OPTCOARK          CA       OPTCADR
000265: 43,2176           02272                          TC       CKMODCAD   +1
000266: 43,2177           02076                          TC       TESTXACT
000267: 43,2200           34751                          CAF      EBANK5
000268: 43,2201           54003                          TS       EBANK
000269:
000270: 43,2202           11314                          CCS      SWSAMPLE                              #  SEE IF SWITCH AT COMPUTER
000271: 43,2203           02210                          TC       +5                                    #  SWITCH AT COMPUTER
000272: 43,2204           02205                          TC       +1                                    #  NOT ON COMPUTER
000273: 43,2205           04400                          TC       FALTON                                #  TURN ON OPERATOR ERR
000274: 43,2206           05537                          TC       ALARM                                 #  AND ALARM
000275: 43,2207           00115                          OCT      00115
000276:
000277: 43,2210           11303                          CCS      OPTIND                                #  SEE IF OPTICS AVAILABLE
000278: 43,2211           02217                          TC       OPTC1                                 #  IN USE
000279: 43,2212           02217                          TC       OPTC1                                 #  IN USE
000280: 43,2213           02217                          TC       OPTC1                                 #  IN USE
000281:
000282: 43,2214           05537                          TC       ALARM                                 #  OPTICS RESERVED (OPTIND=-0)
000283: 43,2215           00117                          OCT      00117
000284: 43,2216           05423                          TC       ENDEXT
000285:
000286: 43,2217           32237        OPTC1             CAF      VNLD0CDU                              #  VERB-NOUN TO LOAD OPTICS CDUS
000287: 43,2220           04555                          TC       BANKCALL
000288: 43,2221           20465                          CADR     GOXDSPF
000289: 43,2222           05423                          TC       TERMEXTV
000290: 43,2223           02224                          TC       +1                                    #  PROCEED
000291:
000292: 43,2224           31773                          CA       SAC
000293: 43,2225           55161                          TS       DESOPTS
000294: 43,2226           31775                          CA       PAC
000295: 43,2227           55160                          TS       DESOPTT
000296: 43,2230           32174                          CAF      OPTCOARV                              #  RE-DISPLAY OUR OWN VERB
000297: 43,2231           04555                          TC       BANKCALL
000298: 43,2232           20746                          CADR     EXDSPRET
000299:
000300: 43,2233           34712                          CAF      ONE
000301: 43,2234           55303                          TS       OPTIND                                #  SET COARS WORKING
000302:
000303: 43,2235           05423                          TC       ENDEXTVB
000304: 43,2236           05423                          TC       ENDEXTVB
000305:
000306: 43,2237           06134        VNLD0CDU          VN       2492
000307: 43,2240  43,2174               OPTCOARV          EQUALS   IMUCOARV                              #  DIFFERENT NOUNS
000308:
000309:                                                                                                 #  Page 239
000310:                                                                                                 #  IMUFINEK       VERB 42         DESCRIPTION
000311:                                                                                                 #         FINE ALIGN IMU
000312:
000313:                                                                                                 #         1.      REQUIRE EXT VERB DISPLAY AVAILABLE AND SET BUSY FLAG OR TURN ON OPER ERROR AND GO TO PINBRNCH.
000314:                                                                                                 #         2.      DISPLAY FLASHING V25,N93....LOAD DELTA GYRO ANGLES....
000315:                                                                                                 #                 RESPONSES
000316:                                                                                                 #                 A.      TERMINATE
000317:                                                                                                 #                         1.      RELEASE EXT VERB DISPLAY SYSTEM.
000318:                                                                                                 #                 B.      PROCEED OR ENTER
000319:                                                                                                 #                         1.      RE-DISPLAY VERB 42
000320:                                                                                                 #                         2.      EXECUTE IMUFINE (IMU FIVE ALIGN MODE SWITCHING).
000321:                                                                                                 #                         3.      EXECUTE IMUSTALL (ALLOW FOR DATA TRANSFER)
000322:                                                                                                 #                                 A.      FAILED
000323:                                                                                                 #                                         1.      RELEASE EXT VERB DISPLAY SYSTEM.
000324:                                                                                                 #                                 B.      GOOD
000325:                                                                                                 #                                         1.      EXECUTE IMUPULSE (TORQUE IRIGS).
000326:                                                                                                 #                                         2.      EXECUTE IMUSTALL AND RELEASE EXT VERB DISPLAY SYSTEM.
000327:
000328: 43,2240           02271        IMUFINEK          TC       CKMODCAD                              #  FINE ALIGN WITH GYRO TORQUING.
000329: 43,2241           02076                          TC       TESTXACT
000330: 43,2242           32267                          CAF      VNLODGYR                              #  CALL FOR LOAD OF GYRO COMMANDS
000331: 43,2243           04555                          TC       BANKCALL
000332: 43,2244           20465                          CADR     GOXDSPF
000333: 43,2245           05423                          TC       TERMEXTV
000334: 43,2246           02247                          TC       +1                                    #  PROCEED WITHOUT A LOAD
000335:
000336: 43,2247           32270                          CAF      IMUFINEV                              #  RE-DISPLAY OUR OWN VERB
000337: 43,2250           04555                          TC       BANKCALL
000338: 43,2251           20746                          CADR     EXDSPRET
000339:
000340: 43,2252           04555                          TC       BANKCALL                              #  CALL MODE SWITCH PROG
000341: 43,2253           17012                          CADR     IMUFINE
000342:
000343: 43,2254           04555                          TC       BANKCALL                              #  HIBERNATION
000344: 43,2255           17516                          CADR     IMUSTALL
000345: 43,2256           05423                          TC       ENDEXTVB
000346:
000347: 43,2257           32266        FINEK2            CAF      LGYROBIN                              #  PINBALL LEFT COMMANDS IN OGC REGISTERS
000348: 43,2260           04555                          TC       BANKCALL
000349: 43,2261           17125                          CADR     IMUPULSE
000350:
000351: 43,2262           04555                          TC       BANKCALL                              #  WAIT FOR PULSES TO GET OUT.
000352: 43,2263           17516                          CADR     IMUSTALL
000353: 43,2264           05423                          TC       ENDEXTVB
000354: 43,2265           05423                          TC       ENDEXTVB
000355:
000356: 43,2266           02757        LGYROBIN          ECADR    OGC
000357: 43,2267           06335        VNLODGYR          VN       2593
000358: 43,2270           12400        IMUFINEV          VN       4200                                  #  FINE ALIGN VERB
000359:
000360: 43,2271           31322        CKMODCAD          CA       MODECADR
000361:                                                                                                 #  Page 240
000362: 43,2272           00006                          EXTEND
000363: 43,2273           16711                          BZF      TCQ
000364: 43,2274           02120                          TC       ALM/END                               #  SOMEBODY IS USING MODECADR SO EXIT
000365:
000366:                                                                                                 #  GOLOADLV       VERB 50         DESCRIPTION
000367:                                                                                                 #         AND OTHER PLEASE
000368:                                                                                                 #         DO SOMETHING VERBS
000369:
000370:                                                                                                 #  PLEASE PERFORM, MARK, CALIBRATE, ETC.
000371:
000372:                                                                                                 #         1.      PRESSING ENTER ON DSKY INDICATES REQUESTED ACTION HAS BEEN PERFORMED, AND THE PROGRAM DOES THE
000373:                                                                                                 #                 SAME RECALL AS A COMPLETED LOAD.
000374:                                                                                                 #         2.      THE EXECUTION OF A VERB 33 (PROCEED WITHOUT DATA) INDICATES THE REQUESTED ACTION IS NOT DESIRED.
000375:
000376: 43,2275           04447        GOLOADLV          TC       FLASHOFF
000377: 43,2276           34215                          CAF      PINSUPBT
000378: 43,2277           00006                          EXTEND
000379: 43,2300           01007                          WRITE    SUPERBNK                              #  TURN ON FE7
000380: 43,2301           04574                          TC       POSTJUMP
000381: 43,2302  40,2000                                 SBANK=   PINSUPER
000382: 43,2302           62001                          CADR     LOADLV1
000383:
000384:                                                                                                 #  V60    VERB 60
000385: 43,2303           00006        V60               EXTEND                                         #  SET ASTRONAUT TOTAL ATTITUDE (N17) EQUAL
000386: 43,2304           30033                          DCA      CDUX                                  #  TO PRESENT ATTITUDE
000387: 43,2305           53334                          DXCH     CPHIX
000388: 43,2306           30034                          CA       CDUZ
000389: 43,2307           55335                          TS       CPHIX      +2
000390: 43,2310           02121                          TC       GOPIN
000391:
000392:                                                                                                 #  V61    VERB 61
000393: 43,2311           05447        V61               TC       DOWNFLAG                              #  SET NEEDLFLG TO 0 (FLAGWRD0,BIT9), PHASE
000394: 43,2312           00006                          ADRES    NEEDLFLG                              #  PLANE A/P FOLLOWING ERROR DISPLAYED
000395: 43,2313           02121                          TC       GOPIN
000396:
000397:                                                                                                 #  V62    VERB 62
000398: 43,2314           05435        V62               TC       UPFLAG                                #  SET NEEDLFLG TO 1 (FLAGWRD0,BIT9),
000399: 43,2315           00006                          ADRES    NEEDLFLG                              #  TOTAL ATTITUDE ERROR DISPLAYED
000400:
000401: 43,2316           05435                          TC       UPFLAG                                #  SET N22ORN17 TO 1 (FLAGWRD9,BIT6),
000402: 43,2317           00220                          ADRES    N22ORN17                              #  COMPUTE TOTAL ATTITUDE ERROR WRT N22
000403: 43,2320           02121                          TC       GOPIN
000404:
000405:                                                                                                 #  V63    VERB 63
000406: 43,2321           05435        V63               TC       UPFLAG                                #  SET NEEDLFLG TO 1 (FLAGWRD0,BIT9),
000407: 43,2322           00006                          ADRES    NEEDLFLG                              #  TOTAL ATTITUDE ERROR DISPLAYED
000408:
000409: 43,2323           05447                          TC       DOWNFLAG                              #  SET N22ORN17 TO 0 (FLAGWRD9,BIT6),
000410:                                                                                                 #  Page 241
000411: 43,2324           00220                          ADRES    N22ORN17                              #  COMPUTE TOAL ASTRONAUT ATTITUDE ERROR
000412: 43,2325           02121                          TC       GOPIN
000413:
000414:                                                                                                 #  Page 242
000415:                                                                                                 #  ALINTIME       VERB 55         DESCRIPTION
000416:
000417:                                                                                                 #         1.      SET EXT VERB DISPLAY BUSY FLAG.
000418:                                                                                                 #         2.      DISPLAY FLASHING V25,N24 (LOAD DELTA TIME FOR AGC CLOCK.
000419:                                                                                                 #         3.      REQUIRE EXECUTION OF VERB 23.
000420:                                                                                                 #         4.      ADD DELTA TIME, RECEIVED FROM INPUT REGISTER, TO THE COMPUTER TIME.
000421:                                                                                                 #         5.      RELEASE EXT VERB DISPLAY SYSTEM.
000422:
000423: 43,2326                                          COUNT    04/R33
000424:
000425: 43,2326           02076        ALINTIME          TC       TESTXACT
000426: 43,2327           32357                          CAF      VNLODDT
000427: 43,2330           04555                          TC       BANKCALL
000428: 43,2331           20465                          CADR     GOMARKF
000429: 43,2332           05423                          TC       ENDEXT                                #  TERMINATE
000430: 43,2333           05423                          TC       ENDEXT                                #  PROCEED
000431: 43,2334           42356                          CS       DEC23                                 #  DATA IN OR RESEQUENCE (UNLIKELY)
000432: 43,2335           60154                          AD       MPAC                                  #  RECALL LEFT VERB IN MPAC
000433: 43,2336           00006                          EXTEND
000434: 43,2337           12341                          BZF      UPDATIME                              #  GO AHEAD WITH UPDATE ONLY IF RECALL
000435: 43,2340           05423                          TC       ENDEXT                                #         WITH V23 (DATA IN).
000436:
000437: 43,2341           00004        UPDATIME          INHINT                                         #  DELTA TIME IS IN DSPTEM1, +1.
000438: 43,2342           34714                          CAF      ZERO
000439: 43,2343           54156                          TS       MPAC       +2                         #  NEEDED FOR TP AGREE
000440: 43,2344           54001                          TS       L                                     #  ZERO T1 + 2 WHILE ALIGNING.
000441: 43,2345           52025                          DXCH     TIME2
000442: 43,2346           52155                          DXCH     MPAC
000443: 43,2347           53052                          DXCH     DSPTEM2    +1                         #  INCREMENT
000444: 43,2350           20155                          DAS      MPAC
000445:
000446: 43,2351           07226                          TC       TPAGREE                               #  FORCE SIGN AGREEMENT.
000447: 43,2352           52155                          DXCH     MPAC                                  #  NEW CLOCK.
000448: 43,2353           20025                          DAS      TIME2
000449: 43,2354           00003                          RELINT
000450: 43,2355           05423        UPDTMEND          TC       ENDEXT
000451: 43,2356           00027        DEC23             DEC      23         B-14                       #  V 23
000452:
000453: 43,2357           06230        VNLODDT           VN       2524                                  #  V25N24 FOR LOAD DELTA TIME
000454:
000455:                                                                                                 #  Page 243
000456:                                                                                                 #  SYSTEST        VERB 92         DESCRIPTION
000457:                                                                                                 #         OPERATE SELECTED SYSTEM TEST.
000458:
000459:                                                                                                 #         1.      REQUIRE P00 OR P00- OR TURN ON OPERATOR ERROR.
000460:                                                                                                 #         2.      TURN OFF DAP IF IT IS ON.
000461:                                                                                                 #         3.      DISPLAY FLASHING V21,N01 (LOAD TEST NUMBER 1 THRU 17).
000462:                                                                                                 #         4.      UPON ENTRY OF TEST NUMBER, SCHEDULE TSELECT WITH PRIORITY 20.
000463:
000464:                                                                                                 #         TSELECT
000465:                                                                                                 #         1.      IF LOADED TEST NUMBER IS VALID, GO TO THAT TEST ROUTINE, OTHERWISE TURN ON OPERATOR ERROR AND
000466:                                                                                                 #                 REPEAT LOAD REQUEST DISPLAY.  (NO. 3 ABOVE)
000467:
000468: 43,2360  E5,1425                                 EBANK=   QPLACE
000469:
000470: 43,2360                                          COUNT    04/EXTVB
000471:
000472: 43,2360           02715        SYSTEST           TC       CHKP00H
000473: 43,2361           02721                          TC       EXDAPOFF
000474: 43,2362           34675                          CAF      PRIO20
000475: 43,2363           05042                          TC       FINDVAC
000476: 43,2364  E5,1425                                 EBANK=   QPLACE
000477: 43,2364  30,2000                                 SBANK=   IMUSUPER
000478: 43,2364           02002 66065                    2CADR    REDO
000479:
000480: 43,2366           02121                          TC       GOPIN
000481:                                                                                                 #  REDO AND TSELECT ARE NOW IN SYSTEM TEST.
000482:
000483: 43,2367                                          COUNT*   $$/EXTVB
000484:                                                                                                 #  CKOPTVB        VERB 65         DESCRIPTION
000485:                                                                                                 #         OPTICAL VERIFICATION FOR PRELAUNCH
000486:                                                                                                 #         1.      SCHEDULE GCOMPVER, OPTICAL VERIFICATION SUBPROGRAM, WITH PRIORITY 17.
000487:
000488: 43,2367           05253        CKOPTVB           TC       CHECKMM
000489: 43,2370           00002                          MM       02         B-14                       #  I WONDER IF PRELAUNCH IS RUNNING
000490: 43,2371           02120                          TC       ALM/END                               #  NOT RUNNING OPERATOR ERROR
000491: 43,2372           00004                          INHINT
000492: 43,2373           34763                          CAF      PRIO16                                #  PRELAUNCH OPTICAL VERIFICATION
000493: 43,2374           05042                          TC       FINDVAC
000494: 43,2375  E5,1425                                 EBANK=   QPLACE
000495: 43,2375           02000 66065                    2CADR    COMPVER                               #  STANDARD LEADIN TO GCOMPVER.
000496:
000497: 43,2377           02121                          TC       GOPIN
000498:
000499:                                                                                                 #  V 76 ....      TO CHANGE GYROCOMPASS AZIMUTH
000500:
000501: 43,2400           05253        CHAZFOGC          TC       CHECKMM                               #  IS IT PRELAUNCH
000502: 43,2401           00002                          MM       02         B-14
000503: 43,2402           02120                          TC       ALM/END                               #  NO -- OPERATOR ERROR
000504:                                                                                                 #  Page 244
000505: 43,2403           34763                          CAF      PRIO16                                #  PRELAUNCH AZIMUTH CHANGE
000506: 43,2404           05042                          TC       FINDVAC
000507: 43,2405  E5,1671                                 EBANK=   XSM
000508: 43,2405           03736 66065                    2CADR    AZMTHCG1
000509:
000510: 43,2407           05301                          TC       PHASCHNG
000511: 43,2410           00174                          OCT      00174
000512: 43,2411           02121                          TC       GOPIN
000513:                                                                                                 #  Page 245
000514:                                                                                                 #  IMUATTCK       VERB 43         DESCRIPTION
000515:                                                                                                 #         LOAD IMU ATTITUDE ERROR METERS
000516:
000517:                                                                                                 #         1.      REQUIRE PROGRAM 00 ACTIVE, COARSE ALIGN ENABLE BIT OFF AND ZERO ICDU BIT OFF.
000518:                                                                                                 #         2.      IF GUID REF RELEASE OR LIFTOFF HAS OCCURRED REQUIRE EXT VERB DISPLAY AVAILABLE AND SET BUSY
000519:                                                                                                 #                 FLAG, OTHERWISE ALLOW CURRENT EXT VERB DISPLAY TO BE OVER-RIDDEN.
000520:                                                                                                 #         3.      REMOVE COARSE ALIGN ENABLE AND IMU ERROR COUNTER ENABLE.
000521:                                                                                                 #         4.      DISPLAY FLASHING V25,N22 (LOAD NEW ICDU ANGLES).
000522:                                                                                                 #         5.      UPON PROCEED OR ENTER RESPONSE, INITIALIZE CURRENT DAC AND COMMAND VALUES, ENABLE ERROR COUNTERS
000523:                                                                                                 #                 TRANSFER LOADED VALUES TO REGISTERS, AND SEND COMMANDS.
000524:                                                                                                 #         6.      IF BUSY FLAG SET, RESET IT TO RELEASE EXT VERB DISPLAY.
000525:
000526: 43,2412           02715        IMUATTCK          TC       CHKP00H                               #  VB 76 -- LOAD IMU ATT. ERROR METERS
000527:
000528: 43,2413           32471                          CAF      OCTAL30                               #  SEE IF IMU ZERO AND IMU COARSE ARE ON
000529: 43,2414           00006                          EXTEND
000530: 43,2415           02012                          RAND     CHAN12
000531: 43,2416           10000                          CCS      A
000532: 43,2417           12120                          TCF      ALM/END                               #  NOT ALLOWED IF IMU COARSE OR IMU ZERO ON
000533:
000534: 43,2420           02457                          TC       CKLFTBTS                              #  IS IT BEFORE OR AFTER LIFTOFF
000535: 43,2421           02076                          TC       TESTXACT                              #  AFTER
000536: 43,2422           44726                          CS       OCT50                                 #  REMOVE COARSE AND ECTR ENABLE
000537: 43,2423           00006                          EXTEND
000538: 43,2424           03012                          WAND     CHAN12
000539:
000540: 43,2425           32173                          CAF      VNLODCDU
000541: 43,2426           04555                          TC       BANKCALL
000542: 43,2427           20465                          CADR     GOXDSPF
000543: 43,2430           12444                          TCF      TRMATTCK
000544: 43,2431           02432                          TC       +1
000545: 43,2432           34752                          CAF      EBANK6
000546: 43,2433           54003                          TS       EBANK                                 #  SET E6 FOR NEEDLES.
000547:
000548: 43,2434  E6,1476                                 EBANK=   AK
000549:
000550: 43,2434           04555                          TC       BANKCALL                              #  INITIALIZE CURRENT DAC AND
000551: 43,2435           42427                          CADR     NEEDLE11                              #  COMMAND VALUES.
000552:
000553: 43,2436           04555                          TC       BANKCALL                              #  ENABLE ERROR COUNTERS.
000554: 43,2437           42446                          CADR     NEEDLER2
000555:
000556: 43,2440           34711                          CAF      TWO                                   #  4 MS MIN.
000557: 43,2441           05140                          TC       WAITLIST
000558: 43,2442  E6,1476                                 EBANK=   AK
000559: 43,2442           02447 66106                    2CADR    ATTCK1
000560:
000561: 43,2444           02457        TRMATTCK          TC       CKLFTBTS                              #  IS IT BEFORE OR AFTER LIFTOFF
000562: 43,2445           15423                          TCF      ENDEXT                                #  AFTER
000563: 43,2446           02121                          TC       GOPIN
000564:                                                                                                 #  Page 246
000565: 43,2447           00006        ATTCK1            EXTEND                                         #  TRANSFER LOADED VALUES TO DESIRED REQS.
000566: 43,2450           31156                          DCA      THETAD
000567: 43,2451           53477                          DXCH     AK
000568: 43,2452           31157                          CAE      THETAD     +2
000569: 43,2453           55500                          TS       AK         +2
000570:
000571: 43,2454           04633                          TC       IBNKCALL                              #  SENDS COMMANDS LIMITED TO +,- 364 PULSES
000572: 43,2455           42462                          CADR     NEEDLES                               #  AND LEAVES ERROR COUNTERS ENABLED.
000573:
000574: 43,2456           05213                          TC       TASKOVER
000575:
000576: 43,2457           34706        CKLFTBTS          CAF      BIT5                                  #  HAS LIFTOFF OCCURRED
000577: 43,2460           70101                          MASK     FLAGWRD5
000578: 43,2461           10000                          CCS      A
000579: 43,2462           00002                          TC       Q                                     #  YES
000580: 43,2463           34706                          CAF      BIT5
000581: 43,2464           00006                          EXTEND
000582: 43,2465           02030                          RAND     CHAN30
000583: 43,2466           10000                          CCS      A
000584: 43,2467           16706                          TCF      Q+1
000585: 43,2470           00002        XACT0Q            TC       Q                                     #  YES
000586:
000587: 43,2471           00030        OCTAL30           OCT      30
000588: 43,2472           02715        VB64              TC       CHKP00H                               #  DEMAND PROGRAM 00.
000589: 43,2473           02076                          TC       TESTXACT                              #  IF DISPLAY SYS. NOT BUSY, MAKE IT BUSY.
000590: 43,2474           00004                          INHINT
000591: 43,2475           34677                          CAF      PRIO4
000592: 43,2476           05042                          TC       FINDVAC
000593: 43,2477  E4,1720                                 EBANK=   RHOSB
000594: 43,2477           03565 64104                    2CADR    SBANDANT                              #  CALC. DISPLAY S-BAND ANTENNA ANGLES.
000595:
000596: 43,2501           05112                          TC       ENDOFJOB
000597:
000598:                                                                                                 #  ENATMA VERB 58         DESCRIPTION
000599:                                                                                                 #         ENABLE AUTOMATIC ATTITUDE MANEUVER
000600:
000601:                                                                                                 #  VERB58 RESETS STIKFLAG TO ENABLE R61 TO PERFORM AUTOMATIC TRACKING MANEUVERS, AFTER INTERRUPTS BY THE RHC
000602:                                                                                                 #  ACTIVITY.
000603:
000604: 43,2502           05447        ENATMA            TC       DOWNFLAG                              #  RESET STIKFLAG
000605: 43,2503           00020                          ADRES    STIKFLAG                              #  BIT 14 FLAG 1
000606: 43,2504           02121                          TC       GOPIN
000607:
000608:                                                                                                 #  STROKON        VERB 68         DESCRIPTION
000609:                                                                                                 #         STROKE TEST SETUP/ENABLE
000610:                                                                                                 #         1.      SET EXT VERB DISPLAY BUSY FLAG
000611:                                                                                                 #         2.      SCHEDULE STRKTST1 WITH PRIORITY 30.
000612:                                                                                                 #         3.      RELEASE EXT VERB DISPLAY.
000613:                                                                                                 #  Page 247
000614:
000615: 43,2505  E6,1635                                 EBANK=   T5TVCDT
000616: 43,2505           40102        STROKON           OCT      40102                                 #  Missing line in 1701.pdf --- RSB 2004
000617: 43,2506           74105                          MASK     OCT60000
000618: 43,2507           00006                          EXTEND
000619: 43,2510           62120                          OCT      62120                                 #  Missing line in 1701.pdf --- RSB 2004
000620: 43,2511           34371                          CAF      PRIO30                                #  JOB REQUEST TO SET UP STROKE TEST,
000621: 43,2512           05027                          TC       NOVAC                                 #         INCLUDING INITIALIZATIONS
000622: 43,2513  40,2000                                 SBANK=   PINSUPER                              #  RSB 2004
000623: 43,2513  E6,1614                                 EBANK=   STROKER
000624: 43,2513           03446 40106                    2CADR    STRKTSTI
000625:
000626: 43,2515           02121                          TC       GOPIN
000627:
000628:                                                                                                 #  STABLISH       VERB 46         DESCRIPTION
000629:                                                                                                 #         ESTABLISH G AND N CONTROL
000630:                                                                                                 #         1.      IF TVC DAP IS ON, ALARM AND RETURN OTHERWISE REQUIRE EXT VERB DISPLAY SYSTEM
000631:                                                                                                 #                 AVAILABLE, SET BUSY FLAG AND GO TO DAPFIG TO DETERMIN VEHICLE CONFIGURATION.
000632:
000633: 43,2516           40102        STABLISH          CS       FLAGWRD6                              #  VB 46
000634: 43,2517           74105                          MASK     OCT60000                              #  NOT PERMITTED WHEN TVC DAP IS ON.
000635: 43,2520           00006                          EXTEND
000636: 43,2521           62523                          BZMF     +2
000637: 43,2522           02120                          TC       ALM/END
000638: 43,2523           34752                          CAF      EBANK6                                #  SET EBANK TO E6
000639: 43,2524           54003                          TS       EBANK
000640: 43,2525           04574                          TC       POSTJUMP
000641: 43,2526           65521                          CADR     DAPFIG
000642:                                                                                                 #  Page 248
000643:                                                                                                 #  CREMANU        VERB 49         DESCRIPTION
000644:                                                                                                 #         START AUTOMATIC ATTITUDE MANEUVER
000645:
000646:                                                                                                 #         1.      REQUIRE PROGRAM 00 ACTIVE.
000647:                                                                                                 #         2.      SET EXT VERB DISPLAY BUSY FLAG.
000648:                                                                                                 #         3.      SCHEDULE R62DISP WITH PRIORITY 10.
000649:                                                                                                 #         4.      RELEASE EXT VERB DISPLAY.
000650:
000651:                                                                                                 #         R62DISP
000652:                                                                                                 #         1.      DISPLAY FLASHING V06,N22 (DECIMAL DISPLAY NEW ICDU ANGLES).  UPON IMMEDIATE RETURN, SET-UP GROUP
000653:                                                                                                 #                 4 FOR RESTART OF DISPLAY SEQUENCE.
000654:                                                                                                 #                 RESPONSES
000655:                                                                                                 #                 A.      TERMINATE
000656:                                                                                                 #                         1.      GOTOP00H
000657:                                                                                                 #                 B.      PROCEED
000658:                                                                                                 #                         1.      SET 3AXISFLG TO INDICATE MANEUVER IS SPECIFIED BY 3 AXIS.
000659:                                                                                                 #                         2.      EXECUTE R60CSM (ATTITUDE MANEUVER).
000660:                                                                                                 #                         3.      ZERO GROUP 4 (END R62).
000661:                                                                                                 #                 C.      ENTER
000662:                                                                                                 #                         1.      REPEAT FLASHING V06,N22.
000663:
000664: 43,2527           02715        CREWMANU          TC       CHKP00H                               #  DEMAND P00
000665:
000666: 43,2530           02076                          TC       TESTXACT
000667:
000668: 43,2531           34676                          CAF      PRIO10
000669: 43,2532           05042                          TC       FINDVAC
000670: 43,2533     1155                                 EBANK=   CPHI
000671: 43,2533           02330 56102                    2CADR    R62DISP
000672:
000673: 43,2535           05112                          TC       ENDOFJOB
000674:
000675:                                                                                                 #  Page 249
000676:                                                                                                 #  DAPDISP        VERB 48         DESCRIPTION
000677:                                                                                                 #         LOAD AUTOPILOT DATA (ROUTINE R03)
000678:
000679:                                                                                                 #         0.      CHECKFAIL AND RETURN IF TVC.
000680:                                                                                                 #         1.      REQUIRE EXT VERB DISPLAY AVAILABLE AND SET BUSY FLAG.
000681:                                                                                                 #         2.      LOWER PRIORITY TO 10.
000682:                                                                                                 #         3.      DISPLAY FLASHING V04,N46 (DISPLAY AUTOPILOT CONFIGURATION).
000683:                                                                                                 #         4.      UPON PROCEED RESPONSE, EXECUTE S41.2.
000684:                                                                                                 #         5.      DISPLAY FLASHING V06,N47 (DISPLAY CSM WGT., LEM WGT.)
000685:                                                                                                 #         6.      UPON PROCEED RESPONSE EXECUTE S40.14.
000686:                                                                                                 #         7.      DISPLAY FLASHING V06,N47 (DISPLAY PITCH TRIM, YAW TRIM)
000687:                                                                                                 #         8.      UPON PROCEED REPSONSE, RELEASE EXTENDED VERB DISPLAY SYSTEM.
000688:
000689: 43,2536                                          COUNT*   $$/EXTVB
000690:
000691: 43,2536           40102        DAPDISP           CS       FLAGWRD6
000692: 43,2537           74105                          MASK     OCT60000
000693: 43,2540           00006                          EXTEND
000694: 43,2541           62543                          BZMF     +2                                    #  TVC = 10, CS YIELDS 01, BZMF TO CONTINUE
000695: 43,2542           02120                          TC       ALM/END                               #  RETURN IF TVC
000696:
000697: 43,2543           02076                          TC       TESTXACT
000698: 43,2544           04555                          TC       BANKCALL
000699: 43,2545           64000                          CADR     DAPDISP1
000700: 42,2000                                          BANK     42
000701: 42,2000                                          SETLOC   EXTVBS
000702: 42,2000                                          BANK
000703: 42,2000                                          COUNT    24/R03
000704:
000705: 42,2000           34752        DAPDISP1          CAF      EBANK6
000706: 42,2001           54003                          TS       EBANK
000707:
000708: 42,2002           34676                          CAF      PRIO10
000709: 42,2003           05103                          TC       PRIOCHNG
000710:
000711: 42,2004           32061        DONOUN46          CAF      V04N46                                #         R1              R2
000712: 42,2005           04555                          TC       BANKCALL                              #         DAPDATR1        DAPDATR2
000713: 42,2006           20465                          CADR     GOXDSPF                               #  GOXDSP ROUTINES USED FOR EXTENDED VERBS.
000714:
000715: 42,2007           05423                          TC       ENDEXT                                #  EXT. VBS GO TO ENDEXT, NOT ENDOFJOB.
000716: 42,2010           02012                          TC       +2
000717: 42,2011           02004                          TC       DONOUN46
000718:
000719: 42,2012           31466                          CA       DAPDATR1
000720: 42,2013           74707                          MASK     BIT4
000721: 42,2014           10000                          CCS      A
000722: 42,2015           12054                          TCF      MAXIN
000723: 42,2016           05447                          TC       DOWNFLAG
000724: 42,2017           00212                          ADRES    MAXDBFLG
000725: 42,2020           04555        MAXOUT            TC       BANKCALL
000726: 42,2021           40146                          CADR     S41.2
000727:
000728: 42,2022           32060        DONOUN47          CAF      V06N47                                #         R1              R2              R3
000729:                                                                                                 #  Page 250
000730: 42,2023           04555                          TC       BANKCALL                              #         CSM WGT.        LEM WGT.        BLANK
000731: 42,2024           20465                          CADR     GOXDSPF
000732:
000733: 42,2025           05423                          TC       ENDEXT
000734: 42,2026           02030                          TC       +2
000735: 42,2027           02022                          TC       DONOUN47
000736: 42,2030           31466                          CAE      DAPDATR1                              #  DO MASS PROPERTIES CALCULATION ONLY IF
000737: 42,2031           74371                          MASK     PRIO30                                #  CONFIG = 1(CSM), 2 (CSM/LM), 6(CSM/LMA)
000738: 42,2032           00006                          EXTEND
000739: 42,2033           12046                          BZF      DONOUN48                              #  SKIP IF 0,4
000740: 42,2034           40000                          COM
000741: 42,2035           74371                          MASK     PRIO30
000742: 42,2036           00006                          EXTEND
000743: 42,2037           12046                          BZF      DONOUN48                              #  SKIP IF 3,7
000744: 42,2040           00004                          INHINT
000745: 42,2041           04633                          TC       IBNKCALL
000746: 42,2042           13207                          CADR     MASSPROP                              #  UPDATE IXX, IAVG, IAVG/TLK
000747:
000748: 42,2043           00003                          RELINT
000749: 42,2044           04555                          TC       BANKCALL
000750: 42,2045           40277                          CADR     S40.14                                #  COMPUTE RCS DAP STUFF
000751:
000752: 42,2046           32057        DONOUN48          CAF      V0648                                 #         R1              R2              R3
000753: 42,2047           04555                          TC       BANKCALL                              #         PTRIM           YTRIM           BLANK
000754: 42,2050           20465                          CADR     GOXDSPF
000755:
000756: 42,2051           05423                          TC       ENDEXT
000757: 42,2052           05423                          TC       ENDEXT
000758: 42,2053           02046                          TC       DONOUN48
000759:
000760: 42,2054           05435        MAXIN             TC       UPFLAG
000761: 42,2055           00212                          ADRES    MAXDBFLG
000762: 42,2056           02020                          TC       MAXOUT
000763:
000764: 42,2057           01460        V0648             VN       0648
000765: 42,2060           01457        V06N47            VN       0647
000766: 42,2061           01056        V04N46            VN       0446
000767: 43,2546                                          BANK     43
000768: 43,2000                                          SETLOC   EXTVERBS
000769: 43,2000                                          BANK
000770:
000771: 43,2546                                          COUNT*   $$/EXTVB
000772:
000773:                                                                                                 #  V82PERF        VERB82          DESCRIPTION
000774:                                                                                                 #         REQUEST ORBIT PARAMETERS DISPLAY (R30)
000775:
000776:                                                                                                 #         1.      IF AVERAGE G IS OFF:
000777:                                                                                                 #                         FLASH DISPLAY V04N06.  R2 INDICATES WHICH SHIP'S STATE VECTOR IS
000778:                                                                                                 #                         TO BE UPDATED.  INITIAL CHOICE IS THIS SHIP (R2=1).  ASTRONAUT
000779:                                                                                                 #                         CAN CHANGE TO OTHER SHIP BY V22EXE, WHERE X NOT EQ I.
000780:                                                                                                 #                         SELECTED STATE VECTOR UPDATED BY THISPREC (OTHPREC).
000781:                                                                                                 #                         CALLS SR30.1 (WHICH CALLS TFFCONMU + TFFRP/RA) TO CALCULATE
000782:                                                                                                 #  Page 251
000783:                                                                                                 #                         RPER (PERIGEE RADIUS), RAP0 (APOGEE RADIUS), HPER (PERIGEE
000784:                                                                                                 #                         HEIGHT ABOVE LAUNCH PAD OR LUNAR LANDING SITE), HAPO (APOGEE
000785:                                                                                                 #                         HEIGHT AS ABOVE), TPER (TIME TO PERIGEE), TFF (TIME TO
000786:                                                                                                 #                         INTERSECT 300 KFT ABOVE PAD OR 35KFT ABOVE LANDING SITE).
000787:                                                                                                 #                         FLASH MONITOR V16N44 (HAPO, HPER, TFF).  TFF IS -59M59S IF IT WAS
000788:                                                                                                 #                         NOT COMPUTABLE, OTHERWISE IT INCREMENTS ONCE PER SECOND.
000789:                                                                                                 #                         ASTRONAUT HAS OPTION TO MONITOR TPER BY KEYING IN N 32 E.
000790:                                                                                                 #                         DISPLAY IS IN HMS, IS NEGATIVE (AS WAS TFF), AND INCREMENTS
000791:                                                                                                 #                         ONCE PER SECOND ONLY IF TFF DISPLAY WAS -59M59S.
000792:
000793:                                                                                                 #         2.      IF AVERAGE G IS ON:
000794:                                                                                                 #                         CALLS SR30.1 APPROX EVERY TWO SECS.  STATE VECTOR IS ALWAYS
000795:                                                                                                 #                         FOR THIS VEHICLE.  V82 DOES NOT DISTURB STATE VECTOR.  RESULTS
000796:                                                                                                 #                         OF SR30.1 ARE RAPO, RPER, HAPO, HPER, TPER, TFF.
000797:                                                                                                 #                         FLASH MONITOR V16N44 (HAPO, HPER, TFF).
000798:                                                                                                 #                         IF MODE IS P11, THEN CALL DELRSPL SO ASTRONAUT CAN MONITOR
000799:                                                                                                 #                         RESULTS BY N50E.  SPLASH COMPUTATION DONE ONCE PER TWO SECS.
000800:
000801:                                                                                                 #  ADDENDUM:      HAPO AND HPER SHOULD BE CHANGED TO READ HAPOX AND HPERX IN THE
000802:                                                                                                 #                 ABOVE REMARKS.
000803:
000804: 43,2546           02076        V82PERF           TC       TESTXACT
000805:
000806: 43,2547           34756                          CAF      PRIO7
000807: 43,2550           05103                          TC       PRIOCHNG
000808: 43,2551           04574                          TC       POSTJUMP
000809: 43,2552           46332                          CADR     V82CALL                               #  **** V82CALL MUST NOT BE A FINDVAC JOB
000810:
000811:                                                                                                 #  VB83PERF       VERB 83         DESCRIPTION
000812:                                                                                                 #         REQUEST RENDEZVOUS PARAMETER DISPLAY (R31)
000813:
000814:                                                                                                 #         1.      SET EXT VERB DISPLAY BUSY FLAG.
000815:                                                                                                 #         2.      SCHEDULE V83CALL WITH PRIORITY 10.
000816:                                                                                                 #                 A.      DISPLAY
000817:                                                                                                 #                         R1      RANGE
000818:                                                                                                 #                         R2      RANGE RATE
000819:                                                                                                 #                         R3      THETA
000820:
000821: 43,2553           02076        V83PERF           TC       TESTXACT
000822: 43,2554           00004                          INHINT
000823: 43,2555           40105                          CS       FLAGWRD9                              #  SET R31 FLAG-BIT 4 FLAGWRD9
000824: 43,2556           74707                          MASK     BIT4
000825: 43,2557           26105                          ADS      FLAGWRD9
000826: 43,2560           34754                          CAF      PRIO5
000827: 43,2561           05027                          TC       NOVAC
000828: 43,2562  30,2000                                 SBANK=   LOWSUPER                              #  RSB 2004
000829: 43,2562  E4,1770                                 EBANK=   SUBEXIT
000830: 43,2562           03150 72064                    2CADR    R31CALL
000831:
000832: 43,2564           05112                          TC       ENDOFJOB
000833:
000834:                                                                                                 #  Page 252
000835: 43,2565           02076        V85PERF           TC       TESTXACT
000836: 43,2566           00004                          INHINT
000837: 43,2567           44707                          CS       BIT4                                  #  RESET R31 FLAG TO INDICATE R34
000838: 43,2570           70105                          MASK     FLAGWRD9
000839: 43,2571           54105                          TS       FLAGWRD9
000840: 43,2572           02560                          TC       V83PERF    +5
000841:                                                                                                 #  Page 253
000842:                                                                                                 #         GOTOR21         VERB 57
000843:                                                                                                 #         GOTOR23         VERB 54         DESCRIPTION
000844:                                                                                                 #  SET UP MARKING FOR R22 (REND TRACK DATA PROC)
000845:                                                                                                 #  1.     SET EXT VERB DISPLAY BUSY FLAG
000846:                                                                                                 #  2.     IF KZND (P20 RUNNING) + TRACK (TRACKING ALLOWED) FLAGS ARE SET,
000847:                                                                                                 #         SCHEDULE R21 OR R23 WITH PRIORITY 16, OTHERWISE TURN ON ALARM 406
000848:                                                                                                 #  3.     RELEASE EXT VERB DISPLAY SYSTEM
000849:
000850: 43,2573           05447        GOTOR21           TC       DOWNFLAG                              #  CLEAR R23FLG
000851: 43,2574           00025                          ADRES    R23FLG                                #  BIT 9 FLAG 1
000852: 43,2575           02600                          TC       +3
000853: 43,2576           05435        GOTOR23           TC       UPFLAG                                #  SET R23FLG
000854: 43,2577           00025                          ADRES    R23FLG                                #  BIT 9 FLAG 1
000855: 43,2600           02076                          TC       TESTXACT
000856: 43,2601           30074                          CA       FLAGWRD0                              #  VB 57  UNACCEPTABLE UNLESS BOTH
000857: 43,2602           74704                          MASK     BIT7                                  #         RENDEZVOUS AND TRACK FLAGS ON
000858: 43,2603           00006                          EXTEND
000859: 43,2604           12627                          BZF      R22ALARM
000860:
000861: 43,2605           30075                          CA       FLAGWRD1
000862: 43,2606           74706                          MASK     BIT5
000863: 43,2607           00006                          EXTEND
000864: 43,2610           12627                          BZF      R22ALARM
000865:
000866: 43,2611           30075                          CA       FLAGWRD1                              #  TEST R23FLG
000867: 43,2612           74702                          MASK     BIT9
000868: 43,2613           00006                          EXTEND
000869: 43,2614           12622                          BZF      REGR21                                #  R21
000870: 43,2615           34763                          CAF      PRIO16
000871: 43,2616           05027                          TC       NOVAC
000872: 43,2617  E7,1725                                 EBANK=   MRKBUF1
000873: 43,2617           02447 76067                    2CADR    R23CSM
000874:
000875: 43,2621           05112                          TC       ENDOFJOB
000876: 43,2622           34763        REGR21            CAF      PRIO16
000877: 43,2623           05027                          TC       NOVAC
000878: 43,2624  E7,1725                                 EBANK=   MRKBUF1
000879: 43,2624           02445 76067                    2CADR    R21CSM
000880:
000881: 43,2626           05112                          TC       ENDOFJOB
000882: 43,2627           05537        R22ALARM          TC       ALARM                                 #  VERB 57 WAS SELECTED AND NEITHER REND
000883: 43,2630           00406                          OCT      00406                                 #         NOR TRACK FLAG WERE ONE.
000884: 43,2631           05423                          TC       ENDEXT
000885:
000886:                                                                                                 #  Page 254
000887:                                                                                                 #  VERB 86        DESCRIPTION
000888:                                                                                                 #         V86 IS TO R23 AS MARK REJECT IS TO R21
000889:                                                                                                 #         V86 IS THE MARK REJECT FOR R23 (THE BACKUP MARKING ROUTINE)
000890:
000891: 43,2632  E7,1725                                 EBANK=   MRKBUF1
000892: 43,2632           34753        V86PERF           CAF      EBANK7                                #  BACKUP MARK REJECT (R23
000893: 43,2633           56003                          XCH      EBANK
000894: 43,2634           37716                          CA       NEGONE
000895: 43,2635           55725                          TS       MRKBUF1
000896: 43,2636           02121                          TC       GOPIN
000897:
000898:                                                                                                 #  Page 255
000899:                                                                                                 #  TRACKTRM       VERB 56         DESCRIPTION
000900:                                                                                                 #         TERMINATE TRACKING (P20)
000901:                                                                                                 #         1.      KNOCK DOWN RENDEZVOUS, TRACK, AND UPDATE FLAGS.
000902:                                                                                                 #         2.      REQUIRE P20 NOT RUNNING ALONE OR GO TO GOTOP00H (REQUEST PROGRAM 00).
000903:                                                                                                 #         3.      REQUIRE R22 RUNNING OR GO TO PINBRNCH.
000904:                                                                                                 #         4.      IF INTEGRATION RUNNING, STALL UNTIL IT IS COMPLETED, THEN ZERO GROUPS 2 AND 3 TO KILL R21 + R22
000905:                                                                                                 #         3.      KNOCK DOWN RENDEZFOUS, R22, R21, TRACK, UPDATE, AND TARG1 FLAGS.
000906:                                                                                                 #         4.      GO TO ENEMA (SOFTWARE RESTART).
000907:                                                                                                 #         REFERENCE
000908:                                                                                                 #                 P20     RENDEZVOUS      NAVIGATION
000909:                                                                                                 #                 R21     RENDEZVOUS      TRACKING SIGHTING MARK.
000910:                                                                                                 #                 R22     RENDEZVOUS      TRACKING DATA PROCESSING.
000911:
000912: 43,2637           34704        TRACKTRM          CA       BIT7                                  #  IS REND FLAG ON
000913: 43,2640           70074                          MASK     FLAGWRD0
000914: 43,2641           00006                          EXTEND
000915: 43,2642           12121                          BZF      GOPIN                                 #  NO
000916:
000917: 43,2643           05447                          TC       DOWNFLAG
000918: 43,2644           00010                          ADRES    RNDVZFLG
000919:
000920: 43,2645           34706                          CA       BIT5                                  #  IS TRACK FLAG ON
000921: 43,2646           70075                          MASK     FLAGWRD1
000922: 43,2647           00006                          EXTEND
000923: 43,2650           12121                          BZF      GOPIN                                 #  NO
000924:
000925: 43,2651           05447                          TC       DOWNFLAG
000926: 43,2652           00031                          ADRES    TRACKFLG
000927:
000928: 43,2653           05447                          TC       DOWNFLAG
000929: 43,2654           00027                          ADRES    UPDATFLG
000930:
000931: 43,2655           05447                          TC       DOWNFLAG
000932: 43,2656           00007                          ADRES    IMUSE
000933:
000934: 43,2657           34752                          CAF      EBANK6
000935: 43,2660           54003                          TS       EBANK
000936:
000937: 43,2661           00004                          INHINT
000938: 43,2662           04555                          TC       BANKCALL
000939: 43,2663           45245                          CADR     STOPRATE
000940:
000941: 43,2664           37716                          CAF      NEGONE
000942: 43,2665           55303                          TS       OPTIND
000943:
000944: 43,2666           06006                          TC       INTPRET
000945: 43,2667           77624                          CALL
000946: 43,2670           27371                                   INTSTALL                              #  DON'T INTERRUPT INTEGRATION
000947: 43,2671           77776                          EXIT
000948:                                                                                                 #  Page 256
000949: 43,2672           05261                          TC       2PHSCHNG
000950: 43,2673           00002                          OCT      2                                     #  KILL GROUP 2 TO HALT P20 ACTIVITY
000951: 43,2674           00001                          OCT      1                                     #  ALSO KILL GROUP 1
000952:
000953: 43,2675           00004        CLEANOUT          INHINT
000954: 43,2676           04574                          TC       POSTJUMP
000955: 43,2677           12641                          CADR     ENEMA                                 #  CAUSE RESTART
000956:
000957:                                                                                                 #  LEMVEC VERB 80         DESCRIPTION
000958:                                                                                                 #         UPDATE LEM STATE VECTOR
000959:                                                                                                 #                 RESET VEHUPFLG TO 0
000960:
000961: 43,2700           05447        LEMVEC            TC       DOWNFLAG
000962: 43,2701           00026                          ADRES    VEHUPFLG                              #  VEHUPFLG DOWN INDICATES LEM
000963:
000964: 43,2702           12121                          TCF      GOPIN
000965:
000966:                                                                                                 #  CSMVEC VERB 81         DESCRIPTION
000967:                                                                                                 #         UPDATE CSM STATE VECTOR
000968:                                                                                                 #                 SET VEHUPFLG TO 1
000969:
000970: 43,2703           05435        CSMVEC            TC       UPFLAG
000971: 43,2704           00026                          ADRES    VEHUPFLG                              #  VEHUPFLG UP INDICATES CM
000972:
000973: 43,2705           12121                          TCF      GOPIN
000974:
000975:                                                                                                 #  DNEDUMP        VERB 74         DESCRIPTION
000976:                                                                                                 #         INITIALZE DOWN-TELEMETRY PROGRAM FOR ERASABLE MEMORY DUMP.
000977:
000978:                                                                                                 #         1.      SET EXT VERB DISPLAY BUSY FLAG.
000979:                                                                                                 #         2.      REPLACE CURRENT DOWNLIST WITH ERASABLE MEMORY.
000980:                                                                                                 #         3.      RELEASE EXT VERB DISPLAY.
000981:
000982: 43,2706     0010                                 EBANK=   10
000983: 43,2706           32711        DNEDUMP           CAF      LDNDUMPI
000984: 43,2707           54335                          TS       DNTMGOTO
000985: 43,2710           02121                          TC       GOPIN
000986:
000987: 43,2711  43,2706               V74               EQUALS   DNEDUMP
000988: 43,2711           03543        LDNDUMPI          REMADR   DNDUMPI
000989:
000990:                                                                                                 #  LFTFLGON       VERB 75         DESCRIPTION
000991:                                                                                                 #         SET LIFT-OFF FLAG
000992:                                                                                                 #         1.      SETUP GRRBKFLG, GUIDANCE REFERENCE RELEASE BACK-UP FLAG.
000993:                                                                                                 #         2.      RETURN VIA PINBRNCH
000994:
000995: 43,2712           05435        LFTFLGON          TC       UPFLAG                                #  VB 75 -- SET LIFTOFF FLAG BIT
000996: 43,2713           00125                          ADRES    GRRBKFLG                              #  BIT 5 FLAG 5
000997:                                                                                                 #  Page 257
000998: 43,2714           02121                          TC       GOPIN
000999:
001000: 43,2715           31011        CHKP00H           CA       MODREG
001001: 43,2716           00006                          EXTEND
001002: 43,2717           16711                          BZF      TCQ
001003: 43,2720           12120                          TCF      ALM/END
001004:
001005: 43,2721           00006        EXDAPOFF          EXTEND
001006: 43,2722           32731                          DCA      IDLECADR                              #  SET T5 TO IDLE.
001007: 43,2723           53313                          DXCH     T5LOC
001008: 43,2724           44105                          CS       OCT60000
001009: 43,2725           70102                          MASK     FLAGWRD6                              #  RESET DAPBITS 1 AND 2.
001010: 43,2726           54102                          TS       FLAGWRD6
001011: 43,2727           00002                          TC       Q
001012:
001013: 43,2730  40,2000                                 SBANK=   PINSUPER                              #  RSB 2004
001014: 43,2730  E6,1425                                 EBANK=   PACTOFF
001015: 43,2730           03143 12106  IDLECADR          2CADR    T5IDLOC
001016:
001017:                                                                                                 #  Page 258
001018:                                                                                                 #  VERB 89        DESCRIPTION     RENDEZVOUS FINAL ATTITUDE ROUTINE (R63)
001019:                                                                                                 #
001020:                                                                                                 #  CALLED BY VERB 89 ENTER DURING P00.  PRIO 10 IS USED.  CALCULATES AND
001021:                                                                                                 #  DISPLAYS FINAL GIMBAL ANGLES TO POINT CSM +X AXIS OR PREFERRED AXIS
001022:                                                                                                 #  (UNIT(Z)COS55 DEG + UNIT(X)SIN55 DEG) AT LM.
001023:
001024:                                                                                                 #  1. KEY IN V 89 E ONLY IF IN PROG 00.  IF NOT IN P00, OPERATOR ERROR AND
001025:                                                                                                 #  EXIT R63, OTHERWISE CONTINUE.
001026:
001027:                                                                                                 #  2. IF IN P00, DO IMU STATUS CHECK ROUTINE (R02BOTH).  IF IMU ON AND ITS
001028:                                                                                                 #  ORIENTATION KNOWN TO CGC,CONTINUE.
001029:
001030:                                                                                                 #  3. FLASH DISPLAY V 04 N 06.  R2 INDICATES WHICH SPACECRAFT AXIS IS TO
001031:                                                                                                 #  BE POINTED AT LM.  INITIAL CHOICE IS PREFERRED AXIS (R2=1).
001032:                                                                                                 #  ASTRONAUT CAN CHANGE TO (+X) AXIS (R2 NOT = 1) BY V 22 E 2 E.  CONTINUE
001033:                                                                                                 #  AFTER KEYING IN PROCEED.
001034:
001035:                                                                                                 #  4. SET PREFERRED ATTITUDE FLAG ACCORDING TO OPTION DESIRED.  SET FLAG
001036:                                                                                                 #  FOR PREFERRED AXIS.  RESET FLAG FOR X AXIS.
001037:
001038:                                                                                                 #  5. CURRENT TIME IS STORED AND R63COMP IS CALLED
001039:
001040:                                                                                                 #         R63COMP JOB:
001041:
001042:                                                                                                 #                 UPDATES CSM AND LM STATE VECTORS USING CONIC EQUATIONS.
001043:
001044:                                                                                                 #                 CALCULATES BOTH PREFERRED AND X AXIS TRACKING ATT FROM CSM TO LM.
001045:
001046:                                                                                                 #                 DESIRED GIMBAL ANGLES AS INDICATED BY PREFERRED ATTITUDE FLAG
001047:                                                                                                 #                 ARE STORED FOR LATER R60CSM CALL.
001048:
001049:                                                                                                 #  6.  FLASH DISPLAY V 06 N18 AND AWAIT RESPONSE.
001050:
001051:                                                                                                 #  7.  RECYCLE:  RETURN TO STEP 5.
001052:                                                                                                 #      TERMINATE:  EXIT R63 ROUTINE
001053:                                                                                                 #      PROCEED:  RESET 3AXISFLG AND CALL R60CSM FOR ATTITUDE MANEUVER.
001054:
001055: 43,2732           02715        V89PERF           TC       CHKP00H                               #  DEMAND P00
001056: 43,2733           02076                          TC       TESTXACT
001057: 43,2734           00004                          INHINT
001058: 43,2735           34676                          CAF      PRIO10
001059: 43,2736           05042                          TC       FINDVAC
001060: 43,2737  30,2000                                 SBANK=   LOWSUPER                              #  RSB 2004
001061: 43,2737  E4,1715                                 EBANK=   P21TIME
001062: 43,2737           03601 70064                    2CADR    V89CALL
001063:
001064: 43,2741           15112                          TCF      ENDOFJOB
001065:
001066: 43,2742           00004        WMATRXNG          INHINT                                         #  VB 86 -- CLEAR RENDWFLG TO REINITIALIZE
001067: 43,2743           44712                          CS       BIT1                                  #            W-MATRIX.
001068:                                                                                                 #  Page 259
001069: 43,2744           70101                          MASK     FLAGWRD5
001070: 43,2745           54101                          TS       FLAGWRD5
001071:
001072: 43,2746           05447                          TC       DOWNFLAG                              #  RESET ORBWFLAG
001073: 43,2747           00066                          ADRES    ORBWFLAG
001074: 43,2750           02121                          TC       GOPIN
001075:
001076: 43,2751  43,2751               GOSHOSUM          EQUALS   SHOWSUM
001077:
001078: 43,2751           02715        SHOWSUM           TC       CHKP00H
001079: 43,2752           02076                          TC       TESTXACT                              #  *
001080: 43,2753           34712                          CAF      S+1                                   #  *
001081: 43,2754           55376                          TS       SKEEP6                                #  * SHOWSUM OPTION
001082: 43,2755           34714                          CAF      S+ZERO                                #  *
001083: 43,2756           55362                          TS       SMODE                                 #  * TURN OFF SELF-CHECK
001084: 43,2757           33243                          CA       SELFADRS                              #  *
001085: 43,2760           55361                          TS       SELFRET                               #  *
001086: 43,2761           03520                          TC       STSHOSUM                              #  * ENTER ROPECHK
001087: 43,2762           23372        SDISPLAY          LXCH     SKEEP2                                #  * BNK NO FOR DSP
001088: 43,2763           23373                          LXCH     SKEEP3                                #  * BUGGER WORD FOR DSP
001089: 43,2764           33242        NOKILL            CA       ADRS1                                 #  *
001090: 43,2765           54156                          TS       MPAC       +2                         #  *
001091: 43,2766           32777                          CA       VNCON                                 #  * 0501
001092: 43,2767           04555                          TC       BANKCALL                              #  *
001093: 43,2770           20465                          CADR     GOXDSPF                               #  *
001094: 43,2771           02774                          TC       +3                                    #  *
001095: 43,2772           03631                          TC       NXTBNK                                #  *
001096: 43,2773           02764                          TC       NOKILL                                #  *
001097: 43,2774           33243                          CA       SELFADRS
001098: 43,2775           55371                          TS       SKEEP1
001099:
001100: 43,2776           05423                          TC       ENDEXT                                #  *
001101: 43,2777           01201        VNCON             VN       501                                   #  *
001102: 43,3000           31376        ENDSUMS           CA       SKEEP6                                #  *
001103: 43,3001           00006                          EXTEND                                         #  *
001104: 43,3002           13334                          BZF      SELFCHK                               #  * ROPECHK: START SELFCHK AGAIN
001105: 43,3003           03520                          TC       STSHOSUM                              #  * START SHOWSUM AGAIN.
001106:
001107:                                                                                                 #  VERB79 --- REQUEST LUNAR LANDMARK SELECT.  RESTRICTED TO P00.
001108:
001109: 43,3004           02715        CALLR35           TC       CHKP00H
001110: 43,3005           02076                          TC       TESTXACT
001111:
001112: 43,3006           34754                          CAF      PRIO5
001113: 43,3007           05042                          TC       FINDVAC
001114: 43,3010  E4,1725                                 EBANK=   KLOOPCNT
001115: 43,3010           03215 62064                    2CADR    LNDMKSEL
001116:                                                                                                 #  Page 260
001117: 43,3012           05112                          TC       ENDOFJOB                              #  R35 WILL DO ENDEXT
001118:
001119:                                                                                                 #  VB 76 --- SET PREFERRED ATTITUDE FLAG --- DRIVE TO PREFERRED.
001120:
001121: 43,3013           05435        SETPRFLG          TC       UPFLAG
001122: 43,3014           00120                          ADRES    PRFTRKAT                              #  BIT 10 FLAG 5
001123: 43,3015           02121                          TC       GOPIN
001124:
001125:                                                                                                 #  VB 77 --- RESET PREFERRED ATTITUDE FLAG --- DRIVE TO +X-AXIS ATT.
001126:
001127: 43,3016           05447        RESETPRF          TC       DOWNFLAG
001128: 43,3017           00120                          ADRES    PRFTRKAT                              #  BIT 10 FLAG 5
001129: 43,3020           02121                          TC       GOPIN
001130:
001131:                                                                                                 #  VB 87 --- SET VHF RANGE FLAG --- ALLOWS R22 TO ACCEPT RANGE DATA.
001132:
001133: 43,3021           06006        SETVHFLG          TC       INTPRET
001134: 43,3022           77414                          SET      EXIT
001135: 43,3023           04466                                   VHFRFLAG
001136: 43,3024           02121                          TC       GOPIN
001137:
001138:                                                                                                 #  VB 88 --- RESET VHF RANGE FLAG --- STOPS ACCEPTANCE OF RANGE DATA.
001139:
001140: 43,3025           06006        RESETVHF          TC       INTPRET
001141: 43,3026           77414                          CLEAR    EXIT
001142: 43,3027           04666                                   VHFRFLAG
001143: 43,3030           05520                          TC       TRFAILOF                              #  TRACKER FAIL LIGHT
001144:
001145: 43,3031           02121                          TC       GOPIN
001146:
001147:                                                                                                 #  VERB 66.       VEHICLES ARE ATTACHED. --- MOVE THIS VEHICLE STATE VECTOR TO
001148:                                                                                                 #                 OTHER VEHICLE STATE VECTOR.
001149:
001150:                                                                                                 #  USE SUBROUTINE GENTRAN.
001151:
001152: 43,3032  E3,1554                                 EBANK=   RRECTHIS
001153: 43,3032           34676        ATTACHED          CAF      PRIO10
001154: 43,3033           05042                          TC       FINDVAC
001155: 43,3034  E3,1554                                 EBANK=   RRECTHIS
001156: 43,3034           03037 66103                    2CADR    ATTACHIT
001157:
001158: 43,3036           05112                          TC       ENDOFJOB
001159:
001160: 43,3037           06006        ATTACHIT          TC       INTPRET
001161: 43,3040           77624                          CALL
001162: 43,3041           27371                                   INTSTALL
001163:                                                                                                 #  Page 261
001164: 43,3042           43014                          SET      BON
001165: 43,3043           04064                                   MOONOTH
001166: 43,3044           04303                                   MOONTHIS
001167: 43,3045           67050                                   +3
001168: 43,3046           77614                          CLEAR
001169: 43,3047           04264                                   MOONOTH
001170: 43,3050           77776                          EXIT
001171: 43,3051           33076                          CAF      OCT51
001172: 43,3052           05475                          TC       GENTRAN
001173: 43,3053           01554                          ADRES    RRECTHIS                              #  OUR STATE VECTOR INTO OTHER VIA GENTRAN
001174: 43,3054           01626                          ADRES    RRECTOTH
001175:
001176: 43,3055           00003        TACHEXIT          RELINT
001177: 43,3056           06006                          TC       INTPRET
001178: 43,3057           77624                          CALL                                           #  UPDATE RN, VN, R-OTHER, V-OTHER
001179: 43,3060           26662                                   PTOACSM
001180: 43,3061           45154                          LXA,2    CALL
001181: 43,3062           02150                                   PBODY
001182: 43,3063           20237                                   SVDWN1
001183: 43,3064           77624                          CALL
001184: 43,3065           20263                                   SVDWN2
001185: 43,3066           77776                          EXIT
001186:
001187: 43,3067           33077                          CAF      TCPINAD
001188: 43,3070           50120                          INDEX    FIXLOC
001189: 43,3071           54052                          TS       QPRET
001190: 43,3072           04574                          TC       POSTJUMP
001191: 43,3073           27406                          CADR     INTWAKE
001192:
001193: 43,3074           77634        TCPIN             RTB
001194: 43,3075           21176                                   PINBRNCH
001195:
001196: 43,3076           00051        OCT51             OCT      51
001197: 43,3077           67074        TCPINAD           CADR     TCPIN
001198:
001199:                                                                                                 #  VERB 47.  MOVE LM STATE VECTOR INTO CSM STATE VECTOR
001200:
001201: 43,3100           34676        LMTOCMSV          CAF      PRIO10
001202: 43,3101           05042                          TC       FINDVAC
001203: 43,3102  E3,1554                                 EBANK=   RRECTHIS
001204: 43,3102           03105 66103                    2CADR    LMTOCM
001205:
001206: 43,3104           05112                          TC       ENDOFJOB
001207:
001208: 43,3105           06006        LMTOCM            TC       INTPRET
001209: 43,3106           77624                          CALL
001210: 43,3107           27371                                   INTSTALL
001211: 43,3110           43014                          SET      BON
001212: 43,3111           04063                                   MOONTHIS
001213: 43,3112           04304                                   MOONOTH
001214:                                                                                                 #  Page 262
001215: 43,3113           67116                                   +3
001216: 43,3114           77614                          CLEAR
001217: 43,3115           04263                                   MOONTHIS
001218: 43,3116           77776                          EXIT
001219:
001220: 43,3117           33076                          CAF      OCT51
001221: 43,3120           05475                          TC       GENTRAN
001222: 43,3121           01626                          ADRES    RRECTOTH                              #  LM STATE VECTOR INTO CM VIA GENTRAN
001223: 43,3122           01554                          ADRES    RRECTHIS
001224:
001225: 43,3123           13055                          TCF      TACHEXIT
001226:
001227:                                                                                                 #  VERB 94 --- DO R64 VIA ENEMA TO PICK UP IN P23.
001228:
001229: 43,3124           34700        VERB94            CAF      BIT11
001230: 43,3125           70105                          MASK     FLAGWRD9                              #  IS V94FLAG SET
001231: 43,3126           00006                          EXTEND
001232: 43,3127           12120                          BZF      ALM/END                               #  NO --- OPERATOR ERROR
001233:
001234: 43,3130           05447                          TC       DOWNFLAG
001235: 43,3131           00213                          ADRES    V94FLAG
001236:
001237: 43,3132           05253                          TC       CHECKMM                               #  IS IT P23
001238: 43,3133           00027                          MM       23         B-14
001239: 43,3134           02120                          TC       ALM/END                               #  NO -- OPERATOR ERROR
001240: 43,3135           05301                          TC       PHASCHNG
001241: 43,3136           00112                          OCT      112                                   #  SET GROUP 2 TO DO R64
001242:
001243: 43,3137           02675                          TC       CLEANOUT                              #  CAUSE RESTART
001244:
001245:                                                                                                 #  V90PERF        VERB 90         DESCRIPTION
001246:                                                                                                 #         REQUEST RENDEZVOUS OUT-OF-PLANE DISPLAY (R36)
001247:
001248:                                                                                                 #         1.      SET EXT VERB DISPLAY BUSY FLAG.
001249:                                                                                                 #         2.      SCHEDULE R36 CALL WITH PRIORITY 10
001250:                                                                                                 #                 A.      DISPLAY
001251:                                                                                                 #                         TIME OF EVENT -- HOURS, MINUTES, SECONDS
001252:                                                                                                 #                         Y       OUT-OF-PLANE POSITION -- NAUTICAL MILES
001253:                                                                                                 #                         YDOT    OUT-OF-PLANE VELOCITY -- FEET/SECOND
001254:                                                                                                 #                         PSI     ANGLE BTW LINE OF SIGHT AND FORWARD
001255:                                                                                                 #                                 DIRECTION VECTOR IN HORIZONTAL PLANE -- DEGREES
001256:
001257: 43,3140           02076        V90PERF           TC       TESTXACT
001258: 43,3141           34756                          CAF      PRIO7                                 #  R36,V90
001259: 43,3142           05042                          TC       FINDVAC
001260: 43,3143  40,2000                                 SBANK=   PINSUPER                              #  RSB 2004
001261: 43,3143  E4,1726                                 EBANK=   RPASS36
001262: 43,3143           02746 10104                    2CADR    R36
001263:
001264: 43,3145           15112                          TCF      ENDOFJOB
001265:
001266:                                                                                                 #  VERB 96 --- SET QUITFLAG TO STOP INTEGRATION
001267:
001268: 43,3146           05435        VERB96            TC       UPFLAG                                #  QUITFLAG WILL CAUSE INTEGRATION TO EXIT
001269:                                                                                                 #  Page 263
001270: 43,3147           00221                          ADRES    QUITFLAG                              #         AT NEXT TIMESTEP
001271:
001272: 43,3150           34714                          CAF      ZERO
001273: 43,3151           04574                          TC       POSTJUMP
001274: 43,3152           10010                          CADR     V37                                   #  GO TO P00
001275:
001276: 43,3153  E5,1751                                 EBANK=   LANDMARK
001277: 43,3153           05253        V52               TC       CHECKMM                               #  IS P22 OPERATING
001278: 43,3154           00026                          MM       22         B-14
001279: 43,3155           02120                          TC       ALM/END                               #  NO
001280: 43,3156           33174                          CAF      LANDBANK
001281: 43,3157           54003                          TS       EBANK
001282:
001283: 43,3160           44756                          CS       PRIO7                                 #  YES    SET BITS 12,11,10 OF LANDMARK =
001284: 43,3161           71751                          MASK     LANDMARK                              #         BITS 14,13,12 OF MARKSTATE AFTER
001285: 43,3162           55751                          TS       LANDMARK                              #         ADDING 1 TO THEM TO GET OFFSET
001286: 43,3163           31330                          CA       MARKSTAT                              #         MARK NO.
001287: 43,3164           54021                          TS       SR
001288: 43,3165           30021                          CA       SR
001289: 43,3166           30021                          CA       SR
001290: 43,3167           74756                          MASK     PRIO7
001291: 43,3170           40000                          CS       A
001292: 43,3171           64754                          AD       PRIO5
001293: 43,3172           27751                          ADS      LANDMARK
001294: 43,3173           02121                          TC       GOPIN
001295: 43,3174           02751        LANDBANK          ECADR    LANDMARK
001296:
001297:                                                                                                 #  VERB 67 --- ASTRONAUT DISPLAY OF W MATRIX
001298:
001299: 43,3175           02076        V67               TC       TESTXACT
001300: 43,3176           34754                          CAF      PRIO5
001301: 43,3177           05042                          TC       FINDVAC
001302: 43,3200  E5,1400                                 EBANK=   W
001303: 43,3200           03574 60105                    2CADR    V67CALL
001304:
001305: 43,3202           05112                          TC       ENDOFJOB
001306:
001307:                                                                                                 #  VB 44 --- SET SURFACE FLAG.
001308:
001309: 43,3203           05435        SETSURF           TC       UPFLAG
001310: 43,3204           00177                          ADRES    SURFFLAG
001311: 43,3205           12121                          TCF      GOPIN
001312:
001313:                                                                                                 #  VB 45 --- RESET SURFACE FLAG
001314:
001315: 43,3206           05447        RESTSRF           TC       DOWNFLAG
001316: 43,3207           00177                          ADRES    SURFFLAG
001317: 43,3210           12121                          TCF      GOPIN
001318:                                                                                                 #  Page 264
001319:                                                                                                 #  ... is empty --- RSB 2004
001320:

End of include-file EXTENDED_VERBS.agc.  Parent file is MAIN.agc


