
Source Code


000002:                                                                                                  #  Copyright:    Public domain.
000003:                                                                                                  #  Filename:     FIXED_FIXED_CONSTANT_POOL.agc
000004:                                                                                                  #  Purpose:      Part of the source code for Colossus, build 249.
000005:                                                                                                  #                It is part of the source code for the Command Module's (CM)
000006:                                                                                                  #                Apollo Guidance Computer (AGC), possibly for Apollo 8 and 9.
000007:                                                                                                  #  Assembler:    yaYUL
000008:                                                                                                  #  Reference:    pp. 1182-1186 of 1701.pdf.
000009:                                                                                                  #  Contact:      Ron Burkey <info@sandroid.org>.
000010:                                                                                                  #  Mod history:  04/27/03 RSB.   Adapted from the Luminary131 file with the
000011:                                                                                                  #                                same name.  The changes were highly trivial
000012:                                                                                                  #                                in nature:
000013:                                                                                                  #                                1.  A small number of constants were removed.
000014:                                                                                                  #                                2.  The names of the COUNT* counters were
000015:                                                                                                  #                                    changed.
000016:                                                                                                  #                                3.  Comments (such as pagination and header
000017:                                                                                                  #                                    materials) were changed.
000018:                                                                                                  #                                No constants changed value, to my knowledge.
000019:
000020:                                                                                                  #  The contents of the "Colossus249" files, in general, are transcribed
000021:                                                                                                  #  from a scanned document obtained from MIT's website,
000022:                                                                                                  #  http://hrst.mit.edu/hrs/apollo/public/archive/1701.pdf.  Notations on this
000023:                                                                                                  #  document read, in part:
000024:
000025:                                                                                                  #        Assemble revision 249 of AGC program Colossus by NASA
000026:                                                                                                  #        2021111-041.  October 28, 1968.
000027:
000028:                                                                                                  #        This AGC program shall also be referred to as
000029:                                                                                                  #                                Colossus 1A
000030:
000031:                                                                                                  #        Prepared by
000032:                                                                                                  #                        Massachusetts Institute of Technology
000033:                                                                                                  #                        75 Cambridge Parkway
000034:                                                                                                  #                        Cambridge, Massachusetts
000035:                                                                                                  #        under NASA contract NAS 9-4065.
000036:
000037:                                                                                                  #  Refer directly to the online document mentioned above for further information.
000038:                                                                                                  #  Please report any errors (relative to 1701.pdf) to info@sandroid.org.
000039:


000041:    4671                                           BLOCK    02
000042:    4671                                           COUNT*   02/FCONS
000043:
000044:                                                                                                  #  THE FOLLOWING TABLE OF 18 VALUES IS INDEXED.  DO NOT INSERT OR REMOVE ANY QUANTITIES
000045:
000046:    4671           37777        DPOSMAX            OCT      37777                                 #  MUST PRECED POSMAX
000047:    4672           37777        POSMAX             OCT      37777
000048:
000049:    4673     4673               LIMITS             =        NEG1/2
000050:
000051:    4673           57777        NEG1/2             OCT      -20000                                #  USED BY SIN ROUTINE (MUST BE TWO
000052:                                                                                                  #  LOCATIONS IN FRONT OF BIT14)
000053:
000054:                                                                                                  #  BIT TABLE
000055:
000056:    4674           40000        BIT15              OCT      40000
000057:    4675           20000        BIT14              OCT      20000
000058:    4676           10000        BIT13              OCT      10000
000059:    4677           04000        BIT12              OCT      04000
000060:    4700           02000        BIT11              OCT      02000
000061:    4701           01000        BIT10              OCT      01000
000062:    4702           00400        BIT9               OCT      00400
000063:    4703           00200        BIT8               OCT      00200
000064:    4704           00100        BIT7               OCT      00100
000065:    4705           00040        BIT6               OCT      00040
000066:    4706           00020        BIT5               OCT      00020
000067:    4707           00010        BIT4               OCT      00010
000068:    4710           00004        BIT3               OCT      00004
000069:    4711           00002        BIT2               OCT      00002
000070:    4712           00001        BIT1               OCT      00001
000071:
000072:                                                                                                  #  DO NOT DESTROY THIS COMBINATION, SINCE IT IS USED IN DOUBLE PRECISION INSTRUCTIONS.
000073:    4713           77777        NEG0               OCT      -0                                    #  MUST PRECEDE ZERO
000074:    4714           00000        ZERO               OCT      0                                     #  MUST FOLLOW NEG0
000075:                                                                                                  #  BIT1          OCT     00001
000076:                                                                                                  #  NO.WDS        OCT     2               # INTERPRETER
000077:                                                                                                  #  OCTAL3        OCT     3               # INTERPRETER
000078:                                                                                                  #  R3D1          OCT     4               # PINBALL
000079:    4715           00005        FIVE               OCT      5
000080:                                                                                                  #  REVCNT        OCT     6               # INTERPRETER
000081:    4716           00007        SEVEN              OCT      7
000082:                                                                                                  #  BIT4          OCT     00010
000083:                                                                                                  #  R2D1          OCT     11              # PINBALL
000084:    4717     4334               OCT11              =        R2D1                                  #  P20S
000085:                                                                                                  #  BINCON        DEC     10              # PINBALL               (OCTAL 12)
000086:    4717           00013        ELEVEN             DEC      11         B-14
000087:                                                                                                  #  OCT14         OCT     14              # ALARM AND ABORT (FILLER)
000088:    4720           00015        OCT15              OCT      15
000089:                                                                                                  #  R1D1          OCT     16              # PINBALL


000091:    4721           00017        LOW4               OCT      17
000092:                                                                                                  #  BIT5          OCT     00020
000093:                                                                                                  #  ND1           OCT     21              # PINBALL
000094:                                                                                                  #  VD1           OCT     23              # PINBALL
000095:                                                                                                  #  OCT24         OCT     24              # SERVICE ROUTINES
000096:                                                                                                  #  MD1           OCT     25              # PINBALL
000097:    4722           00030        BITS4&5            OCT      30
000098:                                                                                                  #  OCT31         OCT     31              # SERVICE ROUTINES
000099:    4723           00032        CALLCODE           OCT      00032
000100:                                                                                                  #  LOW5          OCT     37              # PINBALL
000101:                                                                                                  #  33DEC         DEC     33              # PINBALL               (OCTAL 41)
000102:                                                                                                  #  34DEC         DEC     34              # PINBALL               (OCTAL 42)
000103:    4724           00045        TBUILDFX           DEC      37         B-14                       #  BUILDUP FOR CONVENIENCE IN DAPTESTING
000104:    4725           00046        TDECAYFX           DEC      38         B-14                       #  CONVENIENCE FOR DAPTESTING
000105:                                                                                                  #  BIT6          OCT     00040
000106:    4726           00050        OCT50              OCT      50
000107:    4727           00055        DEC45              DEC      45         B-14
000108:    4730           00060        SUPER011           OCT      60                                    #  BITS FOR SUPERBNK SETTING 011.
000109:    4731           00062        .5SEC              DEC      50         B-14
000110:                                                                                                  #  BIT7          OCT     00100
000111:
000112:    4732     4704               SUPER100           =        BIT7                                  #  BITS FOR SUPERBNK SETTING 100
000113:                                                                                                  #  (LAST 4K OF ROPE)
000114:    4732           00120        SUPER101           OCT      120                                   #  BITS FOR SUPERBNK SETTING 101
000115:                                                                                                  #  OCT121        OCT     121             # SERVICE ROUTINES
000116:                                                                                                  #  (FIRST 8K OF ACM)
000117:    4733           00140        SUPER110           OCT      140                                   #  BITS FOR SUPERBNK SETTING 110.
000118:                                                                                                  #  (LAST BK OF ACM)
000119:    4734           00144        1SEC               DEC      100        B-14
000120:                                                                                                  #  LOW7          OCT     177             # INTERPRETER
000121:                                                                                                  #  BIT8          OCT     00200
000122:                                                                                                  #  OT215         OCT     215             # ALARM AND ABORT
000123:                                                                                                  #  8,5           OCT     00220           # P20-P25 SUNDANCE
000124:    4735           00310        2SECS              DEC      200        B-14
000125:                                                                                                  #  LOW8          OCT     377             # PINBALL
000126:                                                                                                  #  BIT9          OCT     00400
000127:    4736           00401        GN/CCODE           OCT      00401                                 #  SET S/C CONTROL SWITCH TO G/N
000128:    4737           00454        3SECS              DEC      300        B-14
000129:    4740           00620        4SECS              DEC      400        B-14
000130:    4741           00777        LOW9               OCT      777
000131:                                                                                                  #  BIT10         OCT     01000
000132:                                                                                                  #  5.5DEGS       DEC     .03056          # P20-P25 SUNDANCE      (OCTAL 00765)
000133:                                                                                                  #  OCT1103       OCT     1103            # ALARM AND ABORT
000134:    4742           01124        C5/2               DEC      .0363551                              #                        (OCTAL 01124)
000135:    4743           01211        V05N09             VN       0509                                  #  (SAME AS OCTAL 1211)
000136:    4744           01400        OCT1400            OCT      01400
000137:    4745           01426        V06N22             VN       0622
000138:                                                                                                  #  MID5          OCT     1740            # PINBALL
000139:    4746           01776        BITS2-10           OCT      1776
000140:    4747           01777        LOW10              OCT      1777


000142:                                                                                                  #  BIT11         OCT     02000
000143:                                                                                                  #  2K+3          OCT     2003            # PINBALL
000144:    4750           02177        LOW7+2K            OCT      2177                                  #  OP CODE MASK + BANK 1 FBANK SETTING
000145:    4751           02400        EBANK5             OCT      02400
000146:    4752           03000        PRIO3              OCT      03000
000147:    4753           03400        EBANK7             OCT      03400
000148:                                                                                                  #  LOW11         OCT     3777            # PINBALL
000149:                                                                                                  #  BIT12         OCT     04000
000150:                                                                                                  #  RELTAB        OCT     04025           # T4RUPT
000151:    4754           05000        PRIO5              OCT      05000
000152:    4755           06000        PRIO6              OCT      06000
000153:    4756           07000        PRIO7              OCT      07000
000154:
000155:                                                                                                  #  BIT13         OCT     10000
000156:                                                                                                  #                OCT     10003           # T4RUPT        RELTAB +1D
000157:                                                                                                  #  13,7,2        OCT     10102           # P20-P25 SUNDANCE
000158:    4757           11000        PRIO11             OCT      11000
000159:                                                                                                  #  PRIO12        OCT     12000           # BANKCALL
000160:    4760           13000        PRIO13             OCT      13000
000161:    4761           14000        PRIO14             OCT      14000
000162:                                                                                                  #                OCT     14031           # T4RUPT        RELTAB +2D
000163:    4762           15000        PRIO15             OCT      15000
000164:    4763           16000        PRIO16             OCT      16000
000165:                                                                                                  #  85DEGS        DEC     .45556          # P20-P25 SUNDANCE      (OCTAL 16450)
000166:    4764           17000        PRIO17             OCT      17000
000167:    4765           17770        OCT17770           OCT      17770
000168:                                                                                                  #  BIT14         OCT     20000
000169:                                                                                                  #                OCT     20033           # T4RUPT        RELTAB +3D
000170:    4766           21000        PRIO21             OCT      21000
000171:
000172:    7657                                           BLOCK    03
000173:    7657                                           COUNT*   03/FCONS
000174:
000175:    7657           22000        PRIO22             OCT      22000                                 #  SERVICE ROUTINES
000176:    7660           23000        PRIO23             OCT      23000
000177:    7661           24000        PRIO24             OCT      24000
000178:                                                                                                  #  5/8+1         OCT     24001           # SINGLE PRECISION SUBROUTINES
000179:                                                                                                  #                OCT     24017           # T4RUPT        RELTAB +4D
000180:    7662           25000        PRIO25             OCT      25000
000181:    7663           26000        PRIO26             OCT      26000
000182:    7664           27000        PRIO27             OCT      27000
000183:                                                                                                  #  CHRPRIO       OCT     30000           # PINBALL
000184:                                                                                                  #                OCT     30036           # T4RUPT        RELTAB +5D
000185:    7665           31000        PRIO31             OCT      31000
000186:    7666           31103        C1/2               DEC      .7853134                              #                        (OCTAL 31103)
000187:    7667           32000        PRIO32             OCT      32000
000188:    7670           33000        PRIO33             OCT      33000
000189:    7671           34000        PRIO34             OCT      34000
000190:                                                                                                  #                OCT     34034           # T4RUPT        RELTAB +6D
000191:    7672           35000        PRIO35             OCT      35000
000192:    7673           36000        PRIO36             OCT      36000


000194:    7674           37000        PRIO37             OCT      37000
000195:    7675           37401        63/64+1            OCT      37401
000196:                                                                                                  #  MID7          OCT     37600           # PINBALL
000197:    7676           37766        OCT37766           OCT      37766
000198:    7677           37774        OCT37774           OCT      37774
000199:    7700           37776        OCT37776           OCT      37776
000200:                                                                                                  #  DPOSMAX       OCT     37777
000201:                                                                                                  #  BIT15         OCT     40000
000202:                                                                                                  #  OCT40001      OCT     40001           # INTERPRETER (CS 1 INSTRUCTION)
000203:    7701           40014        DLOADCOD           OCT      40014
000204:    7702           40015        DLOAD*             OCT      40015
000205:                                                                                                  #                OCT     40023           # T4RUPT        RELTAB +7D
000206:    7703           40040        BIT15+6            OCT      40040
000207:    7704           40200        OCT40200           OCT      40200
000208:                                                                                                  #                OCT     44035           # T4RUPT        RELTAB +8D
000209:                                                                                                  #                OCT     50037           # T4RUPT        RELTAB +9D
000210:                                                                                                  #                OCT     54000           # T4RUPT        RELTAB +10D
000211:    7705           57777        -BIT14             OCT      57777
000212:                                                                                                  #  RELTAB11      OCT     60000           # T4RUPT
000213:    7706           65552        C3/2               DEC      -.3216147                             #                        (OCTAL 65552)
000214:    7707           70000        13,14,15           OCT      70000
000215:    7710           73777        -1/8               OCT      73777
000216:    7711           74000        HIGH4              OCT      74000
000217:    7712           74056        -ENDERAS           DEC      -2001      B-14                       #                        (OCTAL 74056)
000218:                                                                                                  #  HI5           OCT     76000           # PINBALL
000219:    7713           77700        HIGH9              OCT      77700
000220:                                                                                                  #  -ENDVAC       DEC     -45             # INTERPRETER           (OCTAL 77722)
000221:                                                                                                  #  -OCT10        OCT     -10             #                       (OCTAL 77767)
000222:                                                                                                  #  NEG4          DEC     -4              #                       (OCTAL 77773)
000223:    7714           77774        NEG3               DEC      -3         B-14
000224:    7715           77775        NEG2               OCT      77775
000225:    7716           77776        NEGONE             DEC      -1         B-14
000226:


000228:
000229:                                                                                                  #  DEFINED BY EQUALS
000230:
000231:                                                                                                  #  IT WOULD BE TO THE USERS ADVANTAGE TO OCCASIONALLY CHECK ANY OF THESE SYMBOLS IN ORDER TO PREVENT ANY
000232:                                                                                                  #  ACCIDENTAL DEFINITION CHANGES.
000233:
000234:    7717     7716               MINUS1             =        NEG1
000235:    7717     7716               NEG1               =        NEGONE
000236:    7717     4712               ONE                =        BIT1
000237:    7717     4711               TWO                =        BIT2
000238:    7717     6214               THREE              =        OCTAL3
000239:    7717     6214               LOW2               =        THREE
000240:    7717     4710               FOUR               =        BIT3
000241:    7717     6211               SIX                =        REVCNT
000242:    7717     4716               LOW3               =        SEVEN
000243:    7717     4707               EIGHT              =        BIT4
000244:    7717     4334               NINE               =        R2D1
000245:    7717     4377               TEN                =        BINCON
000246:    7717     4717               NOUTCON            =        ELEVEN
000247:    7717     4374               OCT23              =        VD1
000248:    7717     4376               OCT25              =        MD1
000249:    7717     4701               PRIO1              =        BIT10
000250:    7717     4744               EBANK3             =        OCT1400
000251:    7717     4700               PRIO2              =        BIT11
000252:    7717     4732               OCT120             =        SUPER101
000253:    7717     4733               OCT140             =        SUPER110
000254:    7717     4700               2K                 =        BIT11
000255:    7717     4700               EBANK4             =        BIT11
000256:    7717     4677               PRIO4              =        BIT12
000257:    7717     4752               EBANK6             =        PRIO3
000258:    7717     4676               QUARTER            =        BIT13
000259:    7717     4676               PRIO10             =        BIT13
000260:    7717     7632               OCT10001           =        CCSL
000261:    7717     4675               POS1/2             =        HALF
000262:    7717     4675               PRIO20             =        BIT14
000263:    7717     4675               HALF               =        BIT14
000264:    7717     4371               PRIO30             =        CHRPRIO
000265:    7717     4371               BIT13-14           =        PRIO30                                #  INTERPRETER USES IN PROCESSING STORECODE
000266:    7717     6440               OCT30002           =        TLOAD      +1
000267:    7717     7671               B12T14             =        PRIO34
000268:    7717     4674               NEGMAX             =        BIT15
000269:    7717     4674               VLOADCOD           =        BIT15
000270:    7717     6056               VLOAD*             =        OCT40001
000271:    7717     4105               OCT60000           =        RELTAB11
000272:    7717     4364               BANKMASK           =        HI5
000273:

End of include-file FIXED_FIXED_CONSTANT_POOL.agc.  Parent file is MAIN.agc


