
Source Code


000002:                                                                                                  ## Copyright:   Public domain.
000003:                                                                                                  ## Filename:    FRESH_START_AND_RESTART.agc
000004:                                                                                                  ## Purpose:     Part of the source code for Colossus, build 249.
000005:                                                                                                  ##              It is part of the source code for the Command Module's (CM)
000006:                                                                                                  ##              Apollo Guidance Computer (AGC), for Apollo 9.
000007:                                                                                                  ## Assembler:   yaYUL
000008:                                                                                                  ## Reference:   pp. 177-204.
000009:                                                                                                  ## Contact:     Ron Burkey <info@sandroid.org>.
000010:                                                                                                  ## Website:     www.ibiblio.org/apollo.
000011:                                                                                                  ## Mod history: 08/07/04 RSB.   Adapted from similar Luminary 131 file.
000012:                                                                                                  ##                              Oddly, the 2 pages of introductory comments
000013:                                                                                                  ##                              aren't present in Luminary.
000014:                                                                                                  ##              2010-08-29 JL   Added missing comment character.
000015:                                                                                                  ##              2010-10-24 JL   Pseudo-label indentation fixes.
000016:                                                                                                  ##              2017-01-05 RSB  Page numbers now agree with those on the
000017:                                                                                                  ##                              original harcopy, as opposed to the PDF page
000018:                                                                                                  ##                              numbers in 1701.pdf.
000019:                                                                                                  ##              2017-01-14 RSB  Cross-diff'd comment text (not whitespace)
000020:                                                                                                  ##                              vs the already-proofed corresponding Colossus
000021:                                                                                                  ##                              237 and Comanche 55 source-code files
000022:                                                                                                  ##                              and corrected errors found.
000023:                                                                                                  ##              2017-01-28 RSB  WTIH -> WITH.
000024:                                                                                                  ##              2017-03-13 RSB  GOP00FIX -> GOPOOFIX.
000025:                                                                                                  ##              2017-03-16 RSB  Comment-text fixes identified in 4-way side-by-side
000026:                                                                                                  ##                              diff of Colossus237/249/Comanche55/Artemis72.
000027:                                                                                                  ##              2017-08-19 MAS  Fixed label errors found transcribing Zerlina 56.
000028:                                                                                                  ##              2021-05-30 ABS  00 -> OO in various symbol names.
000029:                                                                                                  ##                              ROC -> ROO
000030:
000031:                                                                                                  ## The contents of the "Colossus249" files, in general, are transcribed
000032:                                                                                                  ## from a scanned copy of the program listing.  Notations on this
000033:                                                                                                  ## document read, in part:
000034:                                                                                                  ##
000035:                                                                                                  ##      Assemble revision 249 of AGC program Colossus by NASA
000036:                                                                                                  ##      2021111-041.  October 28, 1968.
000037:                                                                                                  ##
000038:                                                                                                  ##      This AGC program shall also be referred to as
000039:                                                                                                  ##                              Colossus 1A
000040:                                                                                                  ##
000041:                                                                                                  ##      Prepared by
000042:                                                                                                  ##                      Massachusetts Institute of Technology
000043:                                                                                                  ##                      75 Cambridge Parkway
000044:                                                                                                  ##                      Cambridge, Massachusetts
000045:                                                                                                  ##      under NASA contract NAS 9-4065.
000046:                                                                                                  ##
000047:                                                                                                  ## Refer directly to the online document mentioned above for further information.
000048:                                                                                                  ## Please report any errors (relative to the scanned pages) to info@sandroid.org.
000049:                                                                                                  ##
000050:                                                                                                  ## In some cases, where the source code for Luminary 131 overlaps that of
000051:                                                                                                  ## Colossus 249, this code is instead copied from the corresponding Luminary 131
000052:                                                                                                  ## source file, and then is proofed to incorporate any changes.
000053:


000055:                                                                                                  #  PROGRAM DESCRIPTION                                           8 APRIL, 1967
000056:                                                                                                  #                                                                SUNDISK REV 120
000057:                                                                                                  #  FUNCTIONAL DESCRIPTION
000058:
000059:                                                                                                  #  SLAP1         MAN INITIATED FRESH START
000060:                                                                                                  #        1.      EXECUTE STARTSUB
000061:                                                                                                  #        2.      TURN OFF DSKY DISCRETE-LAMPS
000062:                                                                                                  #        3.      CLEAR FAIL REGISTERS, SELF CHECK ERROR COUNTER AND RESTART
000063:                                                                                                  #                COUNTER
000064:                                                                                                  #        4.      EXECUTE DOFSTART
000065:
000066:                                                                                                  #  DOFSTART      MACHINE INITIATED FRESH START
000067:
000068:                                                                                                  #        1.      CLEAR SELF-CHECK REGISTERS, MODE REGISTER AND CDUZ REGISTER
000069:                                                                                                  #        2.      CLEAR PHASE TABLE
000070:                                                                                                  #        3.      INITIALIZE IMU FLAGS
000071:                                                                                                  #        4.      INITIALIZE FLAGWORDS
000072:                                                                                                  #        5.      TRANSFER CONTROL TO IDLE LOOP IN DUMMYJOB
000073:
000074:                                                                                                  #  GOPROG        HARDWARE RESTART
000075:
000076:                                                                                                  #        0.      EXECUTE STARTSUB
000077:                                                                                                  #        1.      TRANSFER CONTROL TO DOFSTART IF ANY OF THE FOLLOWING CONDITIONS
000078:                                                                                                  #                EXIST.
000079:                                                                                                  #                A.      RESTART OCCURED DURING EXECUTION OF ERASCHK
000080:                                                                                                  #                B.      BOTH OSCILLATOR FAIL AND AGC WARNING ARE ON
000081:                                                                                                  #                C.      MARK REJECT AND EITHER NAV OR MAIN DSKY ERROR LIGHT RESET
000082:                                                                                                  #                        ARE ON.
000083:                                                                                                  #        2.      SCHEDULE A T5RUPT PROGRAM FOR THE DAP
000084:                                                                                                  #        3.      SET FLAGWRD5 BITS FOR INTWAKE ROUTINE
000085:                                                                                                  #        4.      EXTINGUISH ALL DSKY LAMPS, EXCEPT PROGRAM ALARM, GIMBAL LOCK AND
000086:                                                                                                  #                NO ATT
000087:                                                                                                  #        5.      INITIALIZE IMU FLAGS
000088:                                                                                                  #        6.      IF ENGINE COMMAND IS ON (FLAGWRD5,BIT 7), SET ENGINE ON (CHAN-
000089:                                                                                                  #                NEL 11, BIT 13)
000090:                                                                                                  #        7.      TRANSFER CONTROL TO GOPROG3
000091:
000092:                                                                                                  #  ENEMA         SOFTWARE RESTART   INITIATED BY MAJOR MODE CHANGE
000093:
000094:                                                                                                  #        1.      EXECUTE STARTSB2
000095:                                                                                                  #        2.      KILL PROGRAMS THAT WERE INTEGRATING OR WAITING FOR INTEGRATION
000096:                                                                                                  #                ROUTINE
000097:                                                                                                  #        3.      TRANSFER CONTROL TO GOPROG3
000098:
000099:                                                                                                  #  GOPROG3       SUBROUTINE COMMON TO GOPROG AND ENEMA
000100:
000101:                                                                                                  #        1.      TEST PHASE TABLES - IF INCORRECT, DISPLAY ALARM 1107 AND
000102:                                                                                                  #                TRANSFER CONTROL TO DOFSTART
000103:                                                                                                  #        2.      DISPLAY MAJOR MODE
000104:                                                                                                  #        3.      IF ANY GROUPS WERE ACTIVE UPON RESTART, TRANSFER CONTROL TO THE


000106:                                                                                                  #                RESTARTS SUBROUTINE TO RESCHEDULE PENDING TASKS, LONGCALLS, AND
000107:                                                                                                  #                JOBS (P20 IS RESTARTED VIA FINDVAC)
000108:                                                                                                  #        4.      IF NO GROUPS WERE ACTIVE UPON RESTART, DISPLAY ALARM CODE
000109:                                                                                                  #                1110 (RESTART WITH NO ACTIVE GROUPS).
000110:                                                                                                  #        5.      TRANSFER CONTROL TO IDLE LOOP IN DUMMYJOB
000111:
000112:                                                                                                  #  STARTSUB      SUBROUTINE COMMON TO SLAP1 AND GOPROG
000113:
000114:                                                                                                  #        1.      CLEAR OUTBIT CHANNELS 5 AND 6
000115:                                                                                                  #        2.      INITIALIZE TIME5, TIME4, TIME3
000116:                                                                                                  #        3.      TRANSFER CONTROL TO STARTSB2
000117:
000118:                                                                                                  #  STARTSB2      SUBROUTINE COMMON TO STARTSUB AND ENEMA
000119:
000120:                                                                                                  #        1.      INITIALIZE OUTBIT CHANNELS 11,12,13 AND 14
000121:                                                                                                  #        2.      REPLACE ALL TASKS ON WAITLIST WITH ENDTASK
000122:                                                                                                  #        3.      MAKE ALL EXECUTIVE REGISTERS AVAILABLE
000123:                                                                                                  #        4.      MAKE ALL VAC AREAS AVAILABLE
000124:                                                                                                  #        5.      CLEAR DSKY REGISTERS
000125:                                                                                                  #        6.      ZERO NUMEROUS SWITCHES
000126:                                                                                                  #        7.      INITIALIZE OPTICS FLAGS
000127:                                                                                                  #        8.      INITIALIZE PIPA AND TELEMETRY FAIL FLAGS
000128:                                                                                                  #        9.      INITIALIZE DOWN TELEMETRY
000129:
000130:                                                                                                  #  INPUT/OUTPUT INITIALIZATION
000131:
000132:                                                                                                  #        A.      CALLING SEQUENCE
000133:
000134:                                                                                                  #                SLAP1 -         TC POSTJUMP     OR      VERB 36,ENTER
000135:                                                                                                  #                                CADR SLAP1
000136:
000137:                                                                                                  #                ENEMA -         TC POSTJUMP     *** DO NOT CALL ENEMA WITHOUT ***
000138:                                                                                                  #                                CADR ENEMA      ***  CONSULTING POOH PEOPLE   ***
000139:
000140:                                                                                                  #        B.      OUTPUT
000141:
000142:                                                                                                  #                ERASABLE MEMORY INITIALIZATION
000143:
000144:                                                                                                  #  PROGRAM ANALYSIS
000145:
000146:                                                                                                  #        A.      SUBROUTINES CALLED
000147:
000148:                                                                                                  #                MR.KLEAN,WAITLIST,DSPMM,ALARM,RESTARTS,FINDVAC
000149:
000150:                                                                                                  #        B.      ALARMS
000151:
000152:                                                                                                  #                1107    PHASE TABLE ERROR
000153:                                                                                                  #                1110    RESTART WITH NO ACTIVE GROUPS
000154:


000156: 10,2203                                           BANK     10
000157: 05,2000                                           SETLOC   FRANDRES
000158: 05,2000                                           BANK
000159:
000160: 05,2347  E3,1400                                  EBANK=   LST1
000161:
000162: 05,2347                                           COUNT    05/START
000163: 05,2347           00004        SLAP1              INHINT                                         #  FRESH START.  COMES HERE FROM PINBALL.
000164: 05,2350           02767                           TC       STARTSUB                              #  SUBROUTINE DOES MOST OF THE WORK.
000165:
000166: 05,2351           12356        STARTSW            TCF      SKIPSIM                               #  PATCH....TCF STARTSIM...FOR SIMULATION
000167: 05,2352           34675        STARTSIM           CAF      BIT14
000168: 05,2353           05042                           TC       FINDVAC
000169: 05,2354           77777        SIM2CADR           OCT      77777                                 #  PATCH 2CADR (AND EBANK DESIGNATION) OF
000170: 05,2355           77777                           OCT      77777                                 #  SIMULATION START ADDRESS.
000171:
000172: 05,2356           31036        SKIPSIM            CA       DSPTAB     +11D
000173: 05,2357           74726                           MASK     BITS4&6
000174: 05,2360           64674                           AD       BIT15
000175: 05,2361           55036                           TS       DSPTAB     +11D                       #  REQUESTED FRESH START.
000176:
000177: 05,2362           34714                           CA       ZERO                                  #  SAME STORY ON ZEROING FAILREG.
000178: 05,2363           55365                           TS       ERCOUNT
000179: 05,2364           54375                           TS       FAILREG
000180: 05,2365           54376                           TS       FAILREG    +1
000181: 05,2366           54377                           TS       FAILREG    +2
000182: 05,2367           55154                           TS       REDOCTR
000183:
000184: 05,2370           44603                           CS       PRIO12
000185: 05,2371           55302                           TS       DSRUPTSW
000186:
000187: 05,2372           34714        DOFSTART           CAF      ZERO                                  #  DO A FRESH START.
000188: 05,2373           55360                           TS       ERESTORE                              #  ***** MUST NOT BE REMOVED FROM DOFSTART
000189: 05,2374           55362                           TS       SMODE                                 #  ***** MUST NOT BE REMOVED FROM DOFSTART
000190: 05,2375           55501                           TS       UPSVFLAG                              #  UPDATE STATE VECTOR REQUEST FLAGWORD
000191: 05,2376           00006                           EXTEND
000192: 05,2377           01005                           WRITE    CHAN5                                 #  TURN OFF RCS JETS
000193: 05,2400           00006                           EXTEND
000194: 05,2401           01006                           WRITE    CHAN6                                 #  TURN OFF RCS JETS
000195: 05,2402           00006                           EXTEND
000196: 05,2403           01011                           WRITE    DSALMOUT                              #  ZERO CHANNEL 11
000197: 05,2404           00006                           EXTEND
000198: 05,2405           01012                           WRITE    CHAN12                                #  ZERO CHANNEL 12
000199: 05,2406           00006                           EXTEND
000200: 05,2407           01013                           WRITE    CHAN13                                #  ZERO CHANNEL 13
000201: 05,2410           00006                           EXTEND
000202: 05,2411           01014                           WRITE    CHAN14                                #  ZERO CHANNEL 14
000203: 05,2412           55316                           TS       WTOPTION
000204: 05,2413           54332                           TS       DNLSTCOD


000206: 05,2414           54371                           TS       NVSAVE
000207: 05,2415           55071                           TS       EBANKTEM
000208: 05,2416           55130                           TS       RATEINDX
000209: 05,2417           55126                           TS       TRKMKCNT
000210: 05,2420           55125                           TS       VHFCNT
000211: 05,2421           55044                           TS       EXTVBACT
000212:
000213: 05,2422           41036                           CS       DSPTAB     +11D
000214: 05,2423           74726                           MASK     BITS4&6
000215: 05,2424           10000                           CCS      A
000216: 05,2425           02431                           TC       +4
000217: 05,2426           34726                           CA       BITS4&6
000218: 05,2427           00006                           EXTEND                                         #  THE IMU WAS IN COARSE ALIGN IN GIMBAL
000219: 05,2430           05012                           WOR      CHAN12                                #  LOCK, SO PUT IT BACK INTO COARSE ALIGN.
000220: 05,2431           02474                           TC       MR.KLEAN
000221:
000222: 05,2432           44714                           CS       ZERO
000223: 05,2433           55011                           TS       MODREG
000224:
000225: 05,2434           34371                           CAF      PRIO30
000226: 05,2435           54366                           TS       RESTREG
000227:
000228: 05,2436           33167                           CAF      IM30INIF                              #  FRESH START IMU INITIALIZATION.
000229: 05,2437           55320                           TS       IMODES30
000230:
000231: 05,2440           37716                           CAF      NEGONE
000232: 05,2441           55303                           TS       OPTIND                                #  KILL COARSE OPTICS
000233:
000234: 05,2442           33172                           CAF      OPTINITF
000235: 05,2443           55331                           TS       OPTMODES
000236:
000237: 05,2444           34763                           CAF      IM33INIT
000238: 05,2445           55321                           TS       IMODES33
000239:
000240: 05,2446           00006                           EXTEND                                         #  LET T5 IDLE.
000241: 05,2447           33146                           DCA      T5IDLER
000242: 05,2450           53313                           DXCH     T5LOC
000243:
000244: 05,2451           00006                           EXTEND                                         #  INITIALIZE SWITCHES ONLY ON FRESH START.
000245: 05,2452           33175                           DCA      SWINIT
000246: 05,2453           52075                           DXCH     STATE
000247: 05,2454           00006                           EXTEND
000248: 05,2455           33177                           DCA      SWINIT     +2
000249: 05,2456           52077                           DXCH     STATE      +2
000250: 05,2457           00006                           EXTEND
000251: 05,2460           33201                           DCA      SWINIT     +4
000252: 05,2461           52101                           DXCH     STATE      +4
000253: 05,2462           00006                           EXTEND
000254: 05,2463           33203                           DCA      SWINIT     +6
000255: 05,2464           52103                           DXCH     STATE      +6


000257: 05,2465           00006                           EXTEND
000258: 05,2466           33205                           DCA      SWINIT     +8D
000259: 05,2467           52105                           DXCH     STATE      +8D
000260:
000261: 05,2470           33206                           CA       SWINIT     +10D
000262: 05,2471           54106                           TS       STATE      +10D
000263:
000264: 05,2472           04574        ENDRSTRT           TC       POSTJUMP
000265: 05,2473           03225                           CADR     DUMMYJOB   +2                         #  DOES A RELINT.        (IN A SWITCHED BANK.)
000266:
000267: 05,2474           00004        MR.KLEAN           INHINT
000268: 05,2475           00006                           EXTEND
000269: 05,2476           34714                           DCA      NEG0
000270: 05,2477           52755                           DXCH     -PHASE2
000271: 05,2500           00006        POOKLEAN           EXTEND
000272: 05,2501           34714                           DCA      NEG0
000273: 05,2502           52761                           DXCH     -PHASE4
000274: 05,2503           00006                           EXTEND
000275: 05,2504           34714                           DCA      NEG0
000276: 05,2505           52753                           DXCH     -PHASE1
000277: 05,2506           00006        V37KLEAN           EXTEND
000278: 05,2507           34714                           DCA      NEG0
000279: 05,2510           52757                           DXCH     -PHASE3
000280: 05,2511           00006                           EXTEND
000281: 05,2512           34714                           DCA      NEG0
000282: 05,2513           52763                           DXCH     -PHASE5
000283: 05,2514           00006                           EXTEND
000284: 05,2515           34714                           DCA      NEG0
000285: 05,2516           52765                           DXCH     -PHASE6
000286: 05,2517           00002                           TC       Q
000287:


000289:                                                                                                  #  COMES HERE FROM LOCATION 4000, GOJAM. RESTART ANY PROGRAMS WHICH MAY HAVE BEEN RUNNING AT THE TIME.
000290:
000291: 05,2520           25154        GOPROG             INCR     REDOCTR                               #  ADVANCE RESTART COUNTER.
000292:
000293: 05,2521           22002                           LXCH     Q
000294: 05,2522           00006                           EXTEND
000295: 05,2523           04007                           ROR      SUPERBNK
000296: 05,2524           53433                           DXCH     RSBBQ
000297: 05,2525           02767                           TC       STARTSUB
000298:
000299:                                                                                                  #  ERASCHK TEMPORARILY STORES THE CONTENTS OF TWO ERASABLE LOCATIONS, X
000300:                                                                                                  #  AND X+1 INTO SKEEP5 AND SKEEP6.  IT ALSO STORES X INTO SKEEP7 AND
000301:                                                                                                  #  ERESTORE.  IF ERASCHK IS INTERRUPTED BY A RESTART, C(ERESTORE) SHOULD
000302:                                                                                                  #  EQUAL C(SKEEP7),AND BE A + NUMBER LESS THAN 2000 OCT.  OTHERWISE
000303:                                                                                                  #  C(ERESTORE) SHOULD EQUAL +0.
000304:
000305: 05,2526           34364                           CAF      HI5
000306: 05,2527           71360                           MASK     ERESTORE
000307: 05,2530           00006                           EXTEND
000308: 05,2531           12533                           BZF      +2                                    #  IF ERESTORE NOT = +0 OR +N LESS THAN 2K,
000309: 05,2532           12372                           TCF      DOFSTART                              #  DOUBT E MEMORY AND DO A FRESH START.
000310: 05,2533           41360                           CS       ERESTORE
000311: 05,2534           00006                           EXTEND
000312: 05,2535           12552                           BZF      DORSTART                              #  = +0 CONTINUE WITH RESTART.
000313: 05,2536           61377                           AD       SKEEP7
000314: 05,2537           00006                           EXTEND
000315: 05,2540           12542                           BZF      +2                                    #  = SKEEP7, RESTORE E MEMORY.
000316: 05,2541           12372                           TCF      DOFSTART                              #  NOT = SKEEP7, DOUBE E MEM,DO FRESH START.
000317: 05,2542           31374                           CA       SKEEP4
000318: 05,2543           54003                           TS       EBANK                                 #  EBANK OF E MEMORY THAT WAS UNDER TEST.
000319: 05,2544           00006                           EXTEND                                         #  (NOT DXCH SINCE THIS MIGHT HAPPEN AGAIN)
000320: 05,2545           31376                           DCA      SKEEP5
000321: 05,2546           51377                           INDEX    SKEEP7
000322: 05,2547           52001                           DXCH     0000                                  #  E MEMORY RESTORED.
000323: 05,2550           34714                           CA       ZERO
000324: 05,2551           55360                           TS       ERESTORE
000325: 05,2552           34674        DORSTART           CA       BIT15                                 #  TEST OSC FAIL BIT TO SEE IF WE HAVE
000326: 05,2553           00006                           EXTEND                                         #  HAD A POWER TRANSIENT.  IF SO, ATTEMPT
000327: 05,2554           03033                           WAND     CHAN33                                #  A RESTART.  IF NOT, CHACK THE PRESENT
000328: 05,2555           00006                           EXTEND                                         #  STATE OF AGC WARNING.
000329: 05,2556           12564                           BZF      BUTTONS
000330:
000331: 05,2557           34675                           CA       BIT14                                 #  IF AGC WARNING ON (BIT = 0), DO A FRESH
000332: 05,2560           00006                           EXTEND                                         #  START ON THE ASSUMPTION THAT WE'RE IN A
000333: 05,2561           02033                           RAND     CHAN33                                #  RESTART LOOP.
000334: 05,2562           00006                           EXTEND
000335: 05,2563           12372                           BZF      DOFSTART
000336:
000337: 05,2564           02744        BUTTONS            TC       LIGHTSET                              #  EXIT
000338:                                                                                                  #  MARK REJECT DEPRESSED SIMULTANEOUSLY


000340: 05,2565           30102        ELRSKIP            CA       FLAGWRD6                              #  RESTART AUTOPILOTS
000341: 05,2566           00006                           EXTEND
000342: 05,2567           74710                           MP       BIT3                                  #  BITS 15,14    00      T5IDLOC
000343: 05,2570           76211                           MASK     SIX                                   #                01      REDORCS
000344: 05,2571           00006                           EXTEND                                         #                10      REDOTVC
000345: 05,2572           50000                           INDEX    A                                     #                11      REDOSAT
000346: 05,2573           33146                           DCA      T5IDLER
000347: 05,2574           53313                           DXCH     T5LOC
000348:
000349: 05,2575           44675                           CS       INTFLBIT
000350: 05,2576           70106                           MASK     RASFLAG
000351: 05,2577           54106                           TS       RASFLAG
000352:
000353: 05,2600           31331                           CA       OPTMODES
000354: 05,2601           73173                           MASK     OPTINITR
000355: 05,2602           64704                           AD       BIT7
000356: 05,2603           55331                           TS       OPTMODES
000357:
000358: 05,2604           34705                           CAF      BIT6
000359: 05,2605           71321                           MASK     IMODES33
000360: 05,2606           64763                           AD       IM33INIT
000361: 05,2607           55321                           TS       IMODES33
000362:
000363: 05,2610           33171                           CA       9,6,4                                 #  LEAVE PROG ALARM, GIMBAL LOCK, NO ATT
000364: 05,2611           71036                           MASK     DSPTAB     +11D                       #  LAMPS INTACT ON HARDWARE RESTART
000365: 05,2612           64674                           AD       BIT15
000366: 05,2613           57036                           XCH      DSPTAB     +11D
000367: 05,2614           74707                           MASK     BIT4                                  #  IF NO ATT LAMP WAS ON, LEAVE ISS IN
000368: 05,2615           00006                           EXTEND                                         #  COURSE ALIGN
000369: 05,2616           12625                           BZF      NOCOARSE
000370: 05,2617           04633                           TC       IBNKCALL                              #  IF NO ATT LAMP ON, RETURN ISS TO
000371: 05,2620           16746                           CADR     SETCOARS                              #        COARSE ALIGN
000372:
000373: 05,2621           36211                           CAF      SIX
000374: 05,2622           05140                           TC       WAITLIST
000375: 05,2623  E3,1474                                  EBANK=   CDUIND
000376: 05,2623           02742 16063                     2CADR    CA+ECE
000377:
000378: 05,2625           33155        NOCOARSE           CAF      IFAILINH                              #  LEAVE FAILURE INHIBITS INTACT ON
000379: 05,2626           71320                           MASK     IMODES30                              #        HARDWARE RESTART.  RESET ALL
000380: 05,2627           63170                           AD       IM30INIR                              #        FAILURE CODES.
000381: 05,2630           55320                           TS       IMODES30
000382:
000383: 05,2631           40101                           CS       FLAGWRD5
000384: 05,2632           74704                           MASK     BIT7
000385: 05,2633           10000                           CCS      A
000386: 05,2634           12657                           TCF      GOPROG3
000387: 05,2635           34676                           CAF      BIT13
000388: 05,2636           00006                           EXTEND
000389: 05,2637           05011                           WOR      DSALMOUT                              #  TURN ENGINE ON


000391: 05,2640           12657                           TCF      GOPROG3
000392:
000393: 05,2641           00004        ENEMA              INHINT
000394: 05,2642           02744                           TC       LIGHTSET                              #  EXIT TO DOFSTART IF ERROR RESET AND
000395: 05,2643           02777                           TC       STARTSB2                              #  MARK REJECT DEPRESSED SIMULTANEOUSLY
000396: 05,2644           43162                           CS       INTMASK                               #  RESET INTEGRATION BITS
000397: 05,2645           70106                           MASK     RASFLAG
000398: 05,2646           54106                           TS       RASFLAG
000399:
000400: 05,2647           40102                           CS       FLAGWRD6                              #  IS TVC ON
000401: 05,2650           74105                           MASK     OCT60000
000402: 05,2651           00006                           EXTEND
000403: 05,2652           62657                           BZMF     GOPROG3                               #  NO
000404:
000405: 05,2653           34731                           CAF      .5SEC                                 #  YES, CALL TVCEXEC TASK WHICH WAS KILLED
000406: 05,2654           05140                           TC       WAITLIST                              #        IN STARTSB2.
000407: 05,2655  E6,1742                                  EBANK=   BZERO
000408: 05,2655           02660 34066                     2CADR    TVCEXEC
000409:
000410: 05,2657           34715        GOPROG3            CAF      NUMGRPS                               #  VERIFY PHASE TABLE AGREEMENTS
000411: 05,2660           54161        PCLOOP             TS       MPAC       +5
000412: 05,2661           60000                           DOUBLE
000413: 05,2662           00006                           EXTEND
000414: 05,2663           50000                           INDEX    A
000415: 05,2664           30753                           DCA      -PHASE1                               #  COMPLEMENT INTO A, DIRECT INTO L.
000416: 05,2665           00006                           EXTEND
000417: 05,2666           06001                           RXOR     LCHAN                                 #  RESULT MUST BE -0 FOR AGREEMENT.
000418: 05,2667           10000                           CCS      A
000419: 05,2670           12737                           TCF      PTBAD                                 #  RESTART FAILURE.
000420: 05,2671           12737                           TCF      PTBAD
000421: 05,2672           12737                           TCF      PTBAD
000422: 05,2673           10161                           CCS      MPAC       +5                         #  PROCESS ALL RESTART GROUPS.
000423: 05,2674           12660                           TCF      PCLOOP
000424:
000425: 05,2675           54162                           TS       MPAC       +6                         #  SET TO +0.
000426: 05,2676           05247                           TC       MMDSPLAY                              #  DISPLAY MAJOR MODE
000427:
000428: 05,2677           00004                           INHINT                                         #  RELINT DONE IN MMDSPLAY
000429:
000430: 05,2700           30102                           CAE      FLAGWRD6                              #  IS RCS DAP RUNNING (BITS 15 14 OF
000431: 05,2701           74105                           MASK     OCT60000                              #  FLAGWRD6 = 01)
000432: 05,2702           00006                           EXTEND                                         #  YES, DO STOPRATE
000433: 05,2703           62712                           BZMF     NXTRST     -1                         #  NO, SKIP TO NXTRST -1
000434: 05,2704           34752                           CAF      EBANK6                                #  STOPRATE IS DONE IN EBANK 6
000435: 05,2705           54003                           TS       EBANK
000436: 05,2706           04633                           TC       IBNKCALL                              #  ZERO DELCDUS, WBODYS, AND BIASES THUS
000437: 05,2707           45245                           CADR     STOPRATE                              #  STOPING AUTOMATIC MANEUVERING
000438: 05,2710           34744                           CAF      EBANK3
000439: 05,2711           54003                           TS       EBANK
000440: 05,2712           34715                           CAF      NUMGRPS                               #  SEE IF ANY GROUPS RUNNING.


000442: 05,2713           54161        NXTRST             TS       MPAC       +5
000443: 05,2714           60000                           DOUBLE
000444: 05,2715           50000                           INDEX    A
000445: 05,2716           10753                           CCS      PHASE1
000446: 05,2717           12721                           TCF      PACTIVE                               #  PNZ - GROUP ACTIVE.
000447: 05,2720           12726                           TCF      PINACT                                #  +0 - GROUP NOT RUNNING.
000448:
000449: 05,2721           54154        PACTIVE            TS       MPAC
000450: 05,2722           24154                           INCR     MPAC                                  #  ABS OF PHASE.
000451: 05,2723           24162                           INCR     MPAC       +6                         #  INDICATE GROUP DEMANDS PRESENT.
000452: 05,2724           32743                           CA       RACTCADR
000453: 05,2725           04561                           TC       SWCALL                                #  MUST RETURN TO SWRETURN.
000454:
000455: 05,2726           10161        PINACT             CCS      MPAC       +5                         #  PROCESS ALL RESTART GROUPS.
000456: 05,2727           12713                           TCF      NXTRST
000457:
000458: 05,2730           10162                           CCS      MPAC       +6                         #  NO, CHECK PHASE ACTIVITY FLAG
000459: 05,2731           12472                           TCF      ENDRSTRT                              #  PHASE ACTIVE
000460: 05,2732           34674                           CAF      BIT15                                 #  IS MODE -0
000461: 05,2733           71011                           MASK     MODREG
000462: 05,2734           00006                           EXTEND
000463: 05,2735           14106                           BZF      GOTOPOOH                              #  NO
000464: 05,2736           12472                           TCF      ENDRSTRT                              #  YES
000465: 05,2737           05537        PTBAD              TC       ALARM                                 #  SET ALARM TO SHOW PHASE TABLE FAILURE.
000466: 05,2740           01107                           OCT      1107
000467:
000468: 05,2741           12372                           TCF      DOFSTART                              #  IN R2).
000469:
000470:                                                                                                  #  ******** ****** ******
000471:
000472:                                                                                                  #  DO NOT USE GOPROG2 OR ENEMA WITHOUT CONSULTING POOH PEOPLE
000473:
000474: 05,2742  05,2641               GOPROG2            EQUALS   ENEMA
000475: 05,2742     4676               OCT10000           =        BIT13
000476: 05,2742     4371               OCT30000           =        PRIO30
000477: 05,2742           07777        OCT7777            OCT      7777
000478: 05,2743           03520        RACTCADR           CADR     RESTARTS
000479:
000480: 05,2744           34704        LIGHTSET           CAF      BIT7                                  #  DOFSTART IF MARK REJECT AND EITHER
000481: 05,2745           00006                           EXTEND                                         #  ERROR LIGHT RESET BUTTONS ARE DEPRESSED
000482: 05,2746           02016                           RAND     NAVKEYIN
000483: 05,2747           00006                           EXTEND
000484: 05,2750           12764                           BZF      NONAVKEY                              #  NO MARK REJECT
000485: 05,2751           34362                           CAF      OCT37
000486: 05,2752           00006                           EXTEND
000487: 05,2753           02016                           RAND     NAVKEYIN                              #  NAV DSKY KEYCODES,MARK,MARK REJECT
000488: 05,2754           63166                           AD       -ELR
000489: 05,2755           00006                           EXTEND
000490: 05,2756           12765                           BZF      NONAVKEY   +1
000491: 05,2757           00006                           EXTEND
000492: 05,2760           00015                           READ     MNKEYIN                               #  MAIN DSKY KEYCODES


000494: 05,2761           63166                           AD       -ELR
000495: 05,2762           00006                           EXTEND
000496: 05,2763           12765                           BZF      +2
000497:
000498: 05,2764           00002        NONAVKEY           TC       Q
000499:
000500: 05,2765           02767                           TC       STARTSUB
000501: 05,2766           12372                           TCF      DOFSTART
000502: 05,2767           33156        STARTSUB           CAF      LDNPHAS1                              #  SET POINTER SO NEXT 20MS DOWNRUPT WILL
000503: 05,2770           54335                           TS       DNTMGOTO                              #  CAUSE THE CURRENT DOWNLIST TO BE
000504:                                                                                                  #  INTERRUPTED AND START SENDING FROM THE
000505:                                                                                                  #  BEGINNING OF THE CURRENT DOWNLIST.
000506: 05,2771           34672                           CAF      POSMAX
000507: 05,2772           54026                           TS       TIME3                                 #  37777 TO TIME3.
000508: 05,2773           67715                           AD       MINUS2
000509: 05,2774           54027                           TS       TIME4                                 #  37775 TO TIME4.
000510: 05,2775           67716                           AD       NEGONE
000511: 05,2776           54030                           TS       TIME5                                 #  37774 TO TIME5.
000512:
000513: 05,2777           33163        STARTSB2           CAF      OCT77603                              #  TURN OFF UPLINK ACTY, TEMP CAUTION, KR,
000514: 05,3000           00006                           EXTEND                                         #  FLASH, OP. ERROR, LEAVE OTHERS UNCHANGED
000515: 05,3001           03011                           WAND     DSALMOUT
000516:
000517: 05,3002           33164                           CAF      OCT74777                              #  TURN OFF TEST ALARMS, STANDBY ENABLE.
000518: 05,3003           00006                           EXTEND
000519: 05,3004           03013                           WAND     CHAN13
000520: 05,3005           44675                           CS       BIT14                                 #  CLEAR R21MARK
000521: 05,3006           70076                           MASK     FLAGWRD2                              #  R21 SETS R21MARK AND RESETS IF IF R21
000522: 05,3007           54076                           TS       FLAGWRD2                              #  IS TERMINATED NORMALLY
000523: 05,3010  E3,1400                                  EBANK=   LST1
000524: 05,3010           33165                           CAF      STARTEB
000525: 05,3011           54003                           TS       EBANK                                 #  SET FOR E3
000526:
000527: 05,3012           34673                           CAF      NEG1/2                                #  INITIALIZE WAITLIST DELTA-TS.
000528: 05,3013           55407                           TS       LST1       +7
000529: 05,3014           55406                           TS       LST1       +6
000530: 05,3015           55405                           TS       LST1       +5
000531: 05,3016           55404                           TS       LST1       +4
000532: 05,3017           55403                           TS       LST1       +3
000533: 05,3020           55402                           TS       LST1       +2
000534: 05,3021           55401                           TS       LST1       +1
000535: 05,3022           55400                           TS       LST1
000536:
000537: 05,3023           45173                           CS       ENDTASK
000538: 05,3024           55410                           TS       LST2
000539: 05,3025           55412                           TS       LST2       +2
000540: 05,3026           55414                           TS       LST2       +4
000541: 05,3027           55416                           TS       LST2       +6
000542: 05,3030           55420                           TS       LST2       +8D


000544: 05,3031           55422                           TS       LST2       +10D
000545: 05,3032           55424                           TS       LST2       +12D
000546: 05,3033           55426                           TS       LST2       +14D
000547: 05,3034           55430                           TS       LST2       +16D
000548: 05,3035           45174                           CS       ENDTASK    +1
000549: 05,3036           55411                           TS       LST2       +1
000550: 05,3037           55413                           TS       LST2       +3
000551: 05,3040           55415                           TS       LST2       +5
000552: 05,3041           55417                           TS       LST2       +7
000553: 05,3042           55421                           TS       LST2       +9D
000554: 05,3043           55423                           TS       LST2       +11D
000555: 05,3044           55425                           TS       LST2       +13D
000556: 05,3045           55427                           TS       LST2       +15D
000557: 05,3046           55431                           TS       LST2       +17D
000558:
000559: 05,3047           44714                           CS       ZERO                                  #  MAKE ALL EXECUTIVE REGISTER SETS
000560: 05,3050           54167                           TS       PRIORITY                              #  AVAILABLE.
000561: 05,3051           54203                           TS       PRIORITY   +12D
000562: 05,3052           54217                           TS       PRIORITY   +24D
000563: 05,3053           54233                           TS       PRIORITY   +36D
000564: 05,3054           54247                           TS       PRIORITY   +48D
000565: 05,3055           54263                           TS       PRIORITY   +60D
000566: 05,3056           54277                           TS       PRIORITY   +72D
000567:
000568: 05,3057           55302                           TS       DSRUPTSW
000569: 05,3060           54067                           TS       NEWJOB                                #  SHOWS NO ACTIVE JOBS.
000570:
000571: 05,3061           33160                           CAF      VAC1ADRC                              #  MAKE ALL VAC AREAS AVAILABLE.
000572: 05,3062           54400                           TS       VAC1USE
000573: 05,3063           63161                           AD       LTHVACA
000574: 05,3064           54454                           TS       VAC2USE
000575: 05,3065           63161                           AD       LTHVACA
000576: 05,3066           54530                           TS       VAC3USE
000577: 05,3067           63161                           AD       LTHVACA
000578: 05,3070           54604                           TS       VAC4USE
000579: 05,3071           63161                           AD       LTHVACA
000580: 05,3072           54660                           TS       VAC5USE
000581:
000582: 05,3073           34377                           CAF      TEN                                   #  BLANK DSKY REGISTERS (PROGRAM,VERB,NOUN,
000583:                                                                                                  #  R1,R2,R3)
000584: 05,3074           54154        DSPOFF             TS       MPAC
000585: 05,3075           44677                           CS       BIT12
000586: 05,3076           50154                           INDEX    MPAC
000587: 05,3077           55023                           TS       DSPTAB
000588: 05,3100           10154                           CCS      MPAC
000589: 05,3101           13074                           TCF      DSPOFF
000590:
000591: 05,3102           55141                           TS       DELAYLOC
000592: 05,3103           55142                           TS       DELAYLOC   +1
000593: 05,3104           55143                           TS       DELAYLOC   +2


000595: 05,3105           55144                           TS       DELAYLOC   +3
000596: 05,3106           55073                           TS       R1SAVE
000597: 05,3107           54045                           TS       INLINK
000598: 05,3110           54776                           TS       DSPCNT
000599: 05,3111           55042                           TS       CADRSTOR
000600: 05,3112           55013                           TS       REQRET
000601: 05,3113           55015                           TS       CLPASS
000602: 05,3114           55012                           TS       DSPLOCK
000603: 05,3115           55020                           TS       MONSAVE                               #  KILL MONITOR
000604: 05,3116           55021                           TS       MONSAVE1
000605: 05,3117           55001                           TS       VERBREG
000606: 05,3120           55002                           TS       NOUNREG
000607: 05,3121           55043                           TS       DSPLIST
000608: 05,3122           55330                           TS       MARKSTAT
000609: 05,3123           55322                           TS       IMUCADR
000610: 05,3124           55323                           TS       OPTCADR
000611: 05,3125           55324                           TS       RADCADR
000612: 05,3126           55325                           TS       ATTCADR
000613: 05,3127           55304                           TS       LGYRO
000614: 05,3130           54100                           TS       FLAGWRD4                              #  KILL INTERFACE DISPLAYS
000615: 05,3131           34717                           CAF      NOUTCON
000616: 05,3132           55016                           TS       NOUT
000617:
000618: 05,3133           34675                           CAF      BIT14
000619: 05,3134           71044                           MASK     EXTVBACT
000620: 05,3135           55044                           TS       EXTVBACT
000621: 05,3136           33157                           CAF      LESCHK                                #  SELF CHECK GO-TO REGISTER.
000622: 05,3137           55361                           TS       SELFRET
000623:
000624: 05,3140           44374                           CS       VD1
000625: 05,3141           54777                           TS       DSPCOUNT
000626:
000627: 05,3142           00002                           TC       Q
000628:
000629: 05,3143           30001        T5IDLOC            CA       L                                     #  T5RUPT COMES HERE EVERY 163.84 SECS
000630: 05,3144           15225                           TCF      NOQRSM     +1                         #  WHEN NOBODY IS USING IT.
000631:
000632: 05,3145  E6,1672                                  EBANK=   OGANOW
000633: 05,3145           03143 12066  T5IDLER            2CADR    T5IDLOC
000634:
000635: 05,3147  E6,1672                                  EBANK=   OGANOW
000636: 05,3147           02071 42066                     2CADR    REDORCS
000637:
000638: 05,3151  E6,1672                                  EBANK=   OGANOW
000639: 05,3151           03165 34066                     2CADR    REDOTVC
000640:
000641: 05,3153  E6,1672                                  EBANK=   OGANOW
000642: 05,3153           02765 46066                     2CADR    REDOSAT
000643:
000644: 05,3155           00435        IFAILINH           OCT      435
000645: 05,3156           03351        LDNPHAS1           GENADR   DNPHASE1


000647: 05,3157           03334        LESCHK             GENADR   SELFCHK
000648: 05,3160           00400        VAC1ADRC           ADRES    VAC1USE
000649: 05,3161           00054        LTHVACA            DEC      44         B-14
000650:
000651: 05,3162           20100        INTMASK            OCT      20100
000652: 05,3163           77603        OCT77603           OCT      77603
000653: 05,3164           74777        OCT74777           OCT      74777
000654: 05,3165           01400        STARTEB            ECADR    LST1
000655: 05,3166     4715               NUMGRPS            EQUALS   FIVE
000656: 05,3166           77755        -ELR               OCT      -22                                   #  -ERROR LIGHT RESET KEY CODE.
000657: 05,3167           37411        IM30INIF           OCT      37411                                 #  INHIBITS IMU FAIL FOR 5 SEC AND PIP ISSW
000658: 05,3170           37000        IM30INIR           OCT      37000
000659: 05,3171     4763               IM33INIT           =        PRIO16                                #  NO PIP OR TM FAIL SIGNALS.
000660: 05,3171           00450        9,6,4              OCT      450
000661: 05,3172           00130        OPTINITF           OCT      130
000662: 05,3173           00430        OPTINITR           OCT      430
000663: 05,3174           00000        SWINIT             OCT      0
000664: 05,3175           00000                           OCT      0
000665: 05,3176           00000                           OCT      0
000666: 05,3177           00000                           OCT      0
000667:
000668: 05,3200           00000                           OCT      0
000669: 05,3201           00200                           OCT      00200
000670: 05,3202           00000                           OCT      0
000671: 05,3203           00100                           OCT      00100
000672:
000673: 05,3204           00000                           OCT      0
000674: 05,3205           00000                           OCT      0
000675: 05,3206           00000                           OCT      0


000677:                                                                                                  #  PROGRAM NAME          GOTOPOOH                ASSEMBLY SUNDISK
000678:                                                                                                  #  LOG SECTION           FRESH START AND RESTART
000679:
000680:                                                                                                  #  FUNCTIONAL DESCRIPTION
000681:
000682:                                                                                                  #        1.      DISPLAY MAJOR MODE NUMBER 00 IN DSKY REGISTER R1 AND R3.  FLASH V50N07 ON DSKY.  (M M CHANGE REQUEST)
000683:                                                                                                  #        2.      PERMIT A CURRENT PENDING REQUEST (FLASH ON DSKY) TO BE REPLACED (WITHOUT AN ABORT) BY THE MAJOR MODE
000684:                                                                                                  #                CHANGE REQUEST
000685:
000686:                                                                                                  #  INPUT/OUTPUT INFORMATION
000687:
000688:                                                                                                  #        A. CALLING SEQUENCE                     TC GOTOPOOH
000689:                                                                                                  #        B. ERASABLE INITIALIZATION              NONE
000690:                                                                                                  #        C. OUTPUT                               FLASH VERB 50 NOUN 07 ON DSKY
000691:                                                                                                  #        D. DEBRIS                               L
000692:
000693:                                                                                                  #  PROGRAM ANALYSIS
000694:
000695:                                                                                                  #        A. SUBROUTINES CALLED                   GOPERF3, LINUS
000696:                                                                                                  #        B. NORMAL EXIT                          TCF ENDOFJOB
000697:                                                                                                  #        C. ALARM AND ABORT EXITS                NONE
000698:
000699:    4106                                           BLOCK    02
000700:    4000                                           SETLOC   FFTAG10
000701:    4000                                           BANK
000702:
000703:    4106                                           COUNT    02/P00
000704:
000705:    4106           05301        GOTOPOOH           TC       PHASCHNG                              #  RESTART GOTOPOOH
000706:    4107           00014                           OCT      14
000707:
000708:    4110           04574                           TC       POSTJUMP
000709:    4111           10000                           CADR     GOPOOFIX
000710: 10,2203                                           BANK     10
000711: 04,2000                                           SETLOC   VERB37
000712: 04,2000                                           BANK
000713:
000714: 04,2000                                           COUNT    04/P00
000715:
000716: 04,2000           02315        GOPOOFIX           TC       INITSUB
000717: 04,2001           32007                           CAF      V37N99
000718: 04,2002           04555                           TC       BANKCALL
000719: 04,2003           20624                           CADR     GOFLASH
000720: 04,2004           12001                           TCF      -3
000721: 04,2005           12001                           TCF      -4


000723: 04,2006           12001                           TCF      -5
000724: 04,2007           11343        V37N99             VN       3799
000725:


000727:                                                                                                  #  PROGRAM NAME          V37                     ASSEMBLY SUNDISK
000728:
000729:                                                                                                  #  LOG SECTION           FRESH START AND RESTART
000730:
000731:                                                                                                  #  FUNCTIONAL DESCRIPTION
000732:
000733:                                                                                                  #        1. CHECK IF NEW PROGRAM ALLOWED.  IF BIT 1 OF FLAGWRD2 (NODOFLAG) IS SET, AN ALARM 1520 IS CALLED.
000734:                                                                                                  #        2. CHECK FOR VALIDITY OF PROGRAM SELECTED.  IF AN INVALID PROGRAM IS SELECTED, THE OPERATOR ERROR LIGHT IS
000735:                                                                                                  #           SET AND CURRENT ACTIVITY, IF ANY, CONTINUES.
000736:                                                                                                  #        3. SERVICER IS TERMINATED IF IT HAS BEEN RUNNING.
000737:                                                                                                  #        4. INSTALL IS EXECUTED TO AVOID INTERRUPTING INTEGRATION.
000738:                                                                                                  #        5. THE ENGINE IS TURNED OFF AND THE DAP IS INITIALIZED FOR COAST.
000739:                                                                                                  #        6. TRACK, UPDATE AND TARG1 FLAGS ARE SET TO ZERO.
000740:                                                                                                  #        7. DISPLAY SYSTEM IS RELEASED.
000741:                                                                                                  #        8. THE FOLLOWING ARE PERFORMED FOR EACH OF THE THREE CASES.
000742:                                                                                                  #                A. PROGRAM SELECTED IS P00.
000743:                                                                                                  #                        1. RENDEZVOUS FLAG IS RESET (KILL P20).
000744:                                                                                                  #                        2. STATINT1 IS SCHEDULED BY SETTING RESTART GROUP 2.
000745:                                                                                                  #                        3. MAJOR MODE 00 IS STORED IN THE MODE REGISTER (MODREG).
000746:                                                                                                  #                        4. SUPERBANK 3 IS SELECTED.
000747:                                                                                                  #                        5. NODOFLAG IS RESET.
000748:                                                                                                  #                        6. ALL RESTART GROUPS EXCEPT GROUP2 ARE CLEARED. CONTROL IS TRANSFERRED TO RESTART PROGRAM (GOPROG2)
000749:                                                                                                  #                           WHICH CAUSES ALL CURRENT ACTIVITY TO BE DISCONTINUED AND A 9 MINUTE INTEGRATION CYCLE TO BE
000750:                                                                                                  #                           INITIATED.
000751:                                                                                                  #                B. PROGRAM SELECTED IS P20
000752:                                                                                                  #                        1. IF THE CURRENT MAJOR MODE IS THE SAME AS THE SELECTED NEWPROGRAM, THE PROGRAM IS RE-INITIALIZED
000753:                                                                                                  #                           VIA V37XEQ, ALL RESTART GROUPS, EXCEPT GROUP 4 ARE CLEARED.
000754:                                                                                                  #                        2. IF THE CURRENT MAJOR MODE IS NOT EQUAL TO THE NEW REQUEST, A CHECK IS MADE TO SEE IF THE REQUEST-
000755:                                                                                                  #                           ED MAJOR MODE HAS BEEN RUNNING IN THE BACKGROUND,
000756:                                                                                                  #                           AND IF IT HAS, NO NEW PROGRAM IS SCHEDULED, THE EXISTING
000757:                                                                                                  #                           P20 IS RESTARTED TO CONTINUE, AND ITS MAJOR MODE IS SET.
000758:                                                                                                  #                        3. CONTROL IS TRANSFERRED TO GOPROG2.
000759:                                                                                                  #                C. PROGRAM SELECTED IS NEITHER P00 NOR P20
000760:                                                                                                  #                        1. V37XEQ IS SCHEDULED (AS A JOB) BY SETTING RESTART GROUP 4
000761:                                                                                                  #                        2. ALL CURRENT ACTIVITY EXCEPT RENDEZVOUS AND TRACKING IS DISCONTINUED BY CLEARING ALL RESTART
000762:                                                                                                  #                           GROUPS. GROUP 2 IS CLEARED. IF THE RENDEZVOUS FLAG IS ON P20 IS RESTARTED IN GOPROG2 VIA REDOP20.
000763:                                                                                                  #                           TO CONTINUE.
000764:
000765:                                                                                                  #  INPUT/OUTPUT INFORMATION
000766:
000767:                                                                                                  #        A. CALLING SEQUENCE
000768:                                                                                                  #                CONTROL IS DIRECTED TO V37 BY THE VERBFAN ROUTINE.
000769:                                                                                                  #                VERBFAN GOES TO C(VERBTAB+C(VERBREG)). VERB 37 = MMCHANG.
000770:                                                                                                  #                MMCHANG EXECUTES A  TC POSTJUMP , CADR V37.
000771:
000772:                                                                                                  #        B. ERASABLE INITIALIZATION              NONE
000773:
000774:                                                                                                  #        C. OUTPUT
000775:                                                                                                  #                MAJOR MODE CHANGE


000777:
000778:                                                                                                  #        D. DEBRIS
000779:                                                                                                  #                MMNUMBER, MPAC +1, MINDEX, BASETEMP +C(MINDEX), FLAGWRD0, FLAGWRD1, FLAGWRD2, MODREG, GOLOC -1,
000780:                                                                                                  #                GOLOC, GOLOC +1, GOLOC +2, BASETEMP, -PHASE2, PHASE2, -PHASE4
000781:
000782:                                                                                                  #  PROGRAM ANALYSIS
000783:
000784:                                                                                                  #        A. SUBROUTINES CALLED
000785:                                                                                                  #                ALARM, RELDSP, PINBRNCH, INTSTALL, ENGINOF2, ALLCOAST, V37KLEAN, GOPROG2, FALTON, FINDVAC, SUPERSW,
000786:                                                                                                  #                DSPMM
000787:
000788:                                                                                                  #        B. NORMAL EXIT                          TC ENDOFJOB
000789:
000790:                                                                                                  #        C. ALARMS                               1520 (MAJOR MODE CHANGE NOT PERMITTED)
000791:
000792:    4112                                           BLOCK    02
000793:    4000                                           SETLOC   FFTAG10
000794:    4000                                           BANK
000795:
000796:    4112                                           COUNT    02/V37
000797:
000798:    4112           00024        OCT24              MM       20         B-14
000799:    4113           00031        OCT31              MM       25         B-14
000800: 27,2000                                           BANK     27
000801: 04,2000                                           SETLOC   VERB37
000802: 04,2000                                           BANK
000803:
000804: 04,2010                                           COUNT    04/V37
000805:
000806: 04,2010           54775        V37                TS       MMNUMBER                              #  SAVE MAJOR MODE
000807: 04,2011           34371                           CAF      PRIO30                                #  RESTART AT PINBALL PRIORITY
000808: 04,2012           54366                           TS       RESTREG
000809:
000810: 04,2013           31320                           CA       IMODES30                              #  IS IMU BEING INITIALIZED
000811: 04,2014           74705                           MASK     BIT6
000812: 04,2015           10000                           CCS      A
000813: 04,2016           12070                           TCF      CANTROO
000814:
000815: 04,2017           34676                           CAF      BIT13                                 #  IS ENGINE ON
000816: 04,2020           00006                           EXTEND
000817: 04,2021           02011                           RAND     DSALMOUT
000818: 04,2022           10000                           CCS      A
000819: 04,2023           12030                           TCF      ROOTOPOO                              #  YES, SET UP FOR POO
000820:
000821: 04,2024           40102                           CS       FLAGWRD6                              #  NO, IS TVC DAP ON
000822: 04,2025           74105                           MASK     OCT60000
000823: 04,2026           00006                           EXTEND
000824: 04,2027           62061                           BZMF     ISITPOO                               #  NO, CONTINUE WITH ROO
000825:
000826: 04,2030           00004        ROOTOPOO           INHINT
000827: 04,2031           34752                           CAF      EBANK6


000829: 04,2032           54003                           TS       EBANK
000830: 04,2033  E6,1466                                  EBANK=   DAPDATR1
000831: 04,2033           31474                           CAE      CSMMASS
000832: 04,2034           55662                           TS       MASSTMP
000833: 04,2035           04633                           TC       IBNKCALL
000834: 04,2036           50737                           CADR     SPSOFF
000835: 04,2037           04633                           TC       IBNKCALL
000836: 04,2040           13207                           CADR     MASSPROP
000837: 04,2041           32402                           CAF      3.1SEC
000838: 04,2042           04633                           TC       IBNKCALL
000839: 04,2043           42011                           CADR     RCSDAPON   +1
000840:
000841: 04,2044           04633                           TC       IBNKCALL
000842: 04,2045           51003                           CADR     TVCZAP                                #  DISABLE TVC
000843: 04,2046           34714                           CAF      ZERO
000844: 04,2047           54775                           TS       MMNUMBER
000845: 04,2050           00003                           RELINT
000846: 04,2051           34715                           CAF      FIVE
000847: 04,2052           04555                           TC       BANKCALL
000848: 04,2053           01732                           CADR     DELAYJOB
000849: 04,2054           34714                           CAF      ZERO
000850: 04,2055           00006                           EXTEND
000851: 04,2056           01005                           WRITE    5
000852: 04,2057           00006                           EXTEND
000853: 04,2060           01006                           WRITE    6
000854: 04,2061           30775        ISITPOO            CA       MMNUMBER
000855: 04,2062           00006                           EXTEND
000856: 04,2063           12112                           BZF      ISSERVON                              #  YES, CHECK SERVICER STATUS
000857:
000858: 04,2064           40076                           CS       FLAGWRD2                              #  NO, IS NODO V37 FLAG SET
000859: 04,2065           74712                           MASK     BIT1
000860: 04,2066           10000                           CCS      A
000861: 04,2067           12075                           TCF      CHECKTAB                              #  NO
000862: 04,2070           05537        CANTROO            TC       ALARM
000863: 04,2071           01520                           OCT      1520
000864:
000865: 04,2072           04473        V37BAD             TC       RELDSP                                #  RELEASES DISPLAY FROM ASTRONAUT
000866:
000867: 04,2073           04574                           TC       POSTJUMP                              #  BRING BACK LAST NORMAL DISPLAY IF THERE
000868: 04,2074           21176                           CADR     PINBRNCH                              #  WAS ONE.  OY
000869:
000870: 04,2075           32475        CHECKTAB           CA       NOV37MM                               #  THE NO. OF MM
000871: 04,2076           54155        AGAINMM            TS       MPAC       +1
000872: 04,2077           50155                           NDX      MPAC       +1
000873: 04,2100           32440                           CA       PREMM1                                #  OBTAIN WHICH MM THIS IS FOR
000874: 04,2101           76043                           MASK     LOW7
000875: 04,2102           40000                           COM
000876: 04,2103           60775                           AD       MMNUMBER
000877: 04,2104           10000                           CCS      A
000878: 04,2105           10155                           CCS      MPAC       +1                         #  IF GR, SEE IF ANY MORE IN LIST


000880: 04,2106           12076                           TCF      AGAINMM                               #  YES, GET NEXT ONE
000881: 04,2107           12257                           TCF      V37NONO                               #  LAST TIME OR PASSED MM
000882:
000883: 04,2110           30155                           CA       MPAC       +1
000884: 04,2111           54774                           TS       MINDEX                                #  SAVE INDEX FOR LATER
000885:
000886: 04,2112           40103        ISSERVON           CS       FLAGWRD7                              #  V37 FLAG SET - I.E. IS SERVICER GOING
000887: 04,2113           74705                           MASK     BIT6
000888: 04,2114           10000                           CCS      A
000889: 04,2115           12123                           TCF      CANV37                                #  NO
000890:
000891: 04,2116           00004                           INHINT
000892: 04,2117           44712                           CS       BIT1                                  #  YES, TURN OFF AVERAGE G FLAG AND WAIT
000893: 04,2120           70075                           MASK     FLAGWRD1                              #  FOR SERVICER TO RETURN TO CANV37
000894: 04,2121           54075                           TS       FLAGWRD1
000895:
000896: 04,2122           15112                           TCF      ENDOFJOB
000897:
000898: 04,2123           32377        CANV37             CAF      ROOAD
000899: 04,2124           54374                           TS       TEMPFLSH
000900:
000901: 04,2125           05301                           TC       PHASCHNG
000902: 04,2126           00014                           OCT      14
000903:
000904: 04,2127           06006        ROO                TC       INTPRET
000905:
000906: 04,2130           77624                           CALL                                           #  WAIT FOR INTEGRATION TO FINISH
000907: 04,2131           27371                                    INTSTALL
000908: 04,2132           77776        DUMMYAD            EXIT
000909:
000910: 04,2133           02315                           TC       INITSUB
000911:
000912: 04,2134           05447                           TC       DOWNFLAG
000913: 04,2135           00020                           ADRES    STIKFLAG
000914:
000915: 04,2136           04555                           TC       BANKCALL
000916: 04,2137           57750                           CADR     UPACTOFF                              #  TURN OFF UPLINK ACTIV LIGHT
000917:
000918: 04,2140           05447                           TC       DOWNFLAG
000919: 04,2141           00215                           ADRES    VHFRFLAG
000920: 04,2142           05447                           TC       DOWNFLAG
000921: 04,2143           00037                           ADRES    R21MARK
000922:
000923: 04,2144           10775                           CCS      MMNUMBER                              #  IS THIS A POOH REQUEST
000924: 04,2145           12245                           TCF      NOUVEAU                               #  NO, PICK UP NEW PROGRAM
000925:
000926: 04,2146                                           COUNT    04/P00
000927:
000928: 04,2146           04473        POOH               TC       RELDSP                                #  RELEASE DISPLAY SYSTEM


000930: 04,2147           34754                           CAF      PRIO5                                 #  SET VARIABLE RESTART REGISTER FOR P00.
000931: 04,2150           55056                           TS       PHSPRDT2
000932:
000933: 04,2151           00004                           INHINT
000934:
000935: 04,2152           44712                           CS       BIT1                                  #  TURN OFF NODOFLAG
000936: 04,2153           70076                           MASK     FLAGWRD2
000937: 04,2154           54076                           TS       FLAGWRD2
000938:
000939: 04,2155           34715                           CA       FIVE                                  #  SET 2.5 RESTART FOR STATEINT1
000940: 04,2156           54001                           TS       L
000941: 04,2157           40000                           COM
000942: 04,2160           52755                           DXCH     -PHASE2
000943:
000944: 04,2161           42374                           CS       BIT7-8                                #  RESET IMUSE + KILL P20 BY TURNING OFF
000945: 04,2162           70074                           MASK     FLAGWRD0
000946: 04,2163           54074                           TS       FLAGWRD0                              #                         RENDFLG
000947:
000948: 04,2164           34714                           CAF      DNLADP00
000949:
000950: 04,2165                                           COUNT    04/V37
000951:
000952: 04,2165           54332        SEUDOPOO           TS       DNLSTCOD                              #  SET UP APPROPRIATE DOWNLIST.
000953:                                                                                                  #  (OLD ONE WILL BE FINISHED FIRST)
000954:
000955: 04,2166           42375                           CS       OCT01120                              #  TURN OFF TRACK, TARG1, UPDATE FLAGS
000956: 04,2167           55071                           TS       EBANKTEM
000957: 04,2170           70075                           MASK     FLAGWRD1
000958: 04,2171           54075                           TS       FLAGWRD1
000959:
000960: 04,2172           04633        GROUPKIL           TC       IBNKCALL                              #  KILL GROUPS 3(5,6
000961: 04,2173           12506                           CADR     V37KLEAN
000962:
000963: 04,2174           10775                           CCS      MMNUMBER                              #  IS IT POOH
000964: 04,2175           12204                           TCF      RENDVOO                               #  NO
000965: 04,2176           04633                           TC       IBNKCALL
000966: 04,2177           12500                           CADR     POOKLEAN                              #  REDUNDANT EXCEPT FOR GROUP 4.
000967:
000968: 04,2200           30775        GOMOD              CA       MMNUMBER
000969: 04,2201           55011                           TS       MODREG
000970:
000971: 04,2202           04574        GOGOPROG           TC       POSTJUMP
000972: 04,2203           12641                           CADR     GOPROG2
000973:
000974: 04,2204           40775        RENDVOO            CS       MMNUMBER                              #  IS NEW PROG = 20
000975: 04,2205           64112                           AD       OCT24                                 #  20
000976: 04,2206           00006                           EXTEND
000977: 04,2207           12211                           BZF      RENDNOO                               #  YES
000978: 04,2210           12221                           TCF      POOFIZZ


000980: 04,2211           40775        RENDNOO            CS       MMNUMBER
000981: 04,2212           61011                           AD       MODREG
000982: 04,2213           00006                           EXTEND
000983: 04,2214           12225                           BZF      KILL20
000984:
000985: 04,2215           30074                           CA       FLAGWRD0                              #  IS RENDEZVOO FLAG SET
000986: 04,2216           74704                           MASK     BIT7
000987: 04,2217           10000                           CCS      A
000988: 04,2220           12236                           TCF      STATQUO
000989:
000990: 04,2221           34704        POOFIZZ            CAF      BIT7
000991: 04,2222           70074                           MASK     FLAGWRD0
000992: 04,2223           10000                           CCS      A
000993: 04,2224           12233                           TCF      REV37
000994: 04,2225           00006        KILL20             EXTEND                                         #  NO, KILL GROUPS 1 + 2
000995: 04,2226           34714                           DCA      NEG0
000996: 04,2227           52753                           DXCH     -PHASE1
000997:
000998: 04,2230           00006                           EXTEND
000999: 04,2231           34714                           DCA      NEG0
001000: 04,2232           52755                           DXCH     -PHASE2
001001:
001002: 04,2233           32376        REV37              CAF      V37QCAD                               #  SET RESTART POINT
001003: 04,2234           54374                           TS       TEMPFLSH
001004:
001005: 04,2235           12202                           TCF      GOGOPROG
001006:
001007:
001008: 04,2236           40075        STATQUO            CS       FLAGWRD1                              #  SET TRACKFLAG AND UPDATE FLAG
001009: 04,2237           74732                           MASK     OCT120
001010: 04,2240           26075                           ADS      FLAGWRD1
001011:
001012: 04,2241           00006                           EXTEND                                         #  KILL GROUP 4
001013: 04,2242           34714                           DCA      NEG0
001014: 04,2243           52761                           DXCH     -PHASE4
001015:
001016: 04,2244           12200                           TCF      GOMOD
001017:
001018: 04,2245           34704        NOUVEAU            CAF      BIT7
001019: 04,2246           70074                           MASK     FLAGWRD0
001020: 04,2247           10000                           CCS      A
001021: 04,2250           12253                           TCF      +3
001022: 04,2251           05447                           TC       DOWNFLAG                              #  NO, RESET IMUSE FLAG.
001023: 04,2252           00007                           ADRES    IMUSE                                 #  BIT 8 FLAG 0
001024: 04,2253           50774                 +3        INDEX    MINDEX
001025: 04,2254           32476                           CAF      DNLADMM1                              #  OBTAIN NEW DOWNLIST ADDRESS
001026:
001027: 04,2255           00004                           INHINT
001028: 04,2256           12165                           TCF      SEUDOPOO
001029:
001030: 04,2257           04400        V37NONO            TC       FALTON                                #  COME HERE IF MM REQUESTED DOESNT EXIST


001032: 04,2260           12072                           TCF      V37BAD
001033:
001034: 04,2261     4707               OCT00010           EQUALS   BIT4
001035: 04,2261           00004        V37XEQ             INHINT
001036: 04,2262           50774                           INDEX    MINDEX
001037: 04,2263           32440                           CAF      PREMM1
001038: 04,2264           55060                           TS       MMTEMP                                #  OBTAIN PRIORITY BITS 15-11
001039: 04,2265           54020                           TS       CYR                                   #  SHIFT RIGHT TO BITS 14-10
001040:
001041: 04,2266           30020                           CA       CYR
001042: 04,2267           77674                           MASK     PRIO37
001043: 04,2270           55062                           TS       PHSPRDT4                              #  PRESET GROUP 4 RESTART PRIORITY
001044: 04,2271           54063                           TS       NEWPRIO                               #  STORE PRIO FOR SPVAC
001045:
001046: 04,2272           31060                           CA       MMTEMP                                #  OBTAIN EBANK - BITS 8, 9, 10 OF MMTEMP.
001047: 04,2273           00006                           EXTEND
001048: 04,2274           74703                           MP       BIT8
001049: 04,2275           74716                           MASK     LOW3
001050: 04,2276           54001                           TS       L
001051: 04,2277           50774                           INDEX    MINDEX
001052: 04,2300           32403                           CAF      FCADRMM1
001053: 04,2301           55061                           TS       BASETEMP
001054: 04,2302           74364                           MASK     HI5
001055: 04,2303           26001                           ADS      L
001056:
001057: 04,2304           31061                           CA       BASETEMP                              #  OBTAIN GENADR PORTION OF 2CADR.
001058: 04,2305           74747                           MASK     LOW10
001059: 04,2306           64700                           AD       BIT11
001060:
001061: 04,2307           05053                           TC       SPVAC
001062:
001063: 04,2310           31060        V37XEQC            CA       MMTEMP                                #  UPON RETURN FROM FINDVAC PLACE THE
001064: 04,2311           76043                           MASK     LOW7                                  #  NEW MM IN MODREG (THE LOW 7 BITS OF
001065: 04,2312           05246                           TC       NEWMODEA                              #  PHSBRDT1)
001066:
001067:                                                                                                  #  FOR SUNDISK ONLY
001068: 04,2313           04473                           TC       RELDSP                                #  RELEASE DISPLAY
001069: 04,2314           05112                           TC       ENDOFJOB                              #  AND EXIT
001070:
001071: 04,2315           00006        INITSUB            EXTEND
001072: 04,2316           22155                           QXCH     MPAC       +1
001073:
001074: 04,2317           34752                           CAF      EBANK6                                #  SET E6 FOR DEADBAND CODING
001075: 04,2320           54003                           TS       EBANK                                 #  WILL BE RESET IN STARTSB2.
001076: 04,2321           00004                           INHINT
001077: 04,2322           04555                           TC       BANKCALL
001078: 04,2323           45245                           CADR     STOPRATE
001079:
001080: 04,2324           30105                           CA       FLAGWRD9                              #  RESTORE DEADBAND
001081: 04,2325           74677                           MASK     BIT12


001083: 04,2326           10000                           CCS      A
001084: 04,2327           12333                           TCF      SETMAXER                              #  MAX DB SELECTED
001085: 04,2330           04555                           TC       BANKCALL                              #  MIN DB SELECTED
001086: 04,2331           50213                           CADR     SETMINDB
001087: 04,2332           12335                           TCF      RAKE
001088: 04,2333           04555        SETMAXER           TC       BANKCALL
001089: 04,2334           50227                           CADR     SETMAXDB
001090:
001091: 04,2335           34717        RAKE               CAF      ELEVEN                                #  THIS PART CLEARS FLAGWORD BITS.
001092: 04,2336           54154                 +1        TS       MPAC                                  #  LOOP COMES HERE.
001093: 04,2337           50154                           INDEX    MPAC
001094: 04,2340           42356                           CS       FLAGTABL
001095: 04,2341           50154                           INDEX    MPAC
001096: 04,2342           70074                           MASK     FLAGWRD0
001097: 04,2343           50154                           INDEX    MPAC                                  #  PUT REVISED FLAGWORD BACK.
001098: 04,2344           54074                           TS       FLAGWRD0
001099: 04,2345           10154                           CCS      MPAC
001100: 04,2346           12336                           TCF      RAKE       +1                         #  GET THE NEXT FLAGWORD.
001101: 04,2347           00003                           RELINT
001102:
001103: 04,2350           05435                           TC       UPFLAG                                #  NOW SET IMPULSW
001104: 04,2351           00044                           ADRES    IMPULSW
001105:
001106: 04,2352           05425                           TC       CLEARMRK
001107:
001108: 04,2353           37716                           CA       NEGONE
001109: 04,2354           55303                           TS       OPTIND
001110: 04,2355           00155                           TC       MPAC       +1                         #  RETURN FROM INITSUB
001111:
001112: 04,2356           00000        FLAGTABL           OCT      0
001113: 04,2357           00040                           OCT      00040                                 #  IDLEFAIL
001114: 04,2360           02000                           OCT      02000                                 #  STEERSW
001115: 04,2361           00000                           OCT      0
001116: 04,2362           00000                           OCT      0
001117: 04,2363           04140                           OCT      04140                                 #  V59FLAG, ENGONFLG, 3AXISFLG
001118: 04,2364           10000                           OCT      10000                                 #  STRULLSW
001119: 04,2365           16020                           OCT      16020                                 #  IGNFLAG, ASTNFLAG, TIMRFLAG, NOUPFLAG
001120: 04,2366           00000                           OCT      0
001121: 04,2367           42000                           OCT      42000                                 #  SWTOVER, V94FLAG
001122: 04,2370           00000                           OCT      0
001123: 04,2371           00000                           OCT      0
001124:
001125: 04,2372     5630               NEG7               EQUALS   OCT77770
001126:
001127: 04,2372  E6,1425                                  EBANK=   PACTOFF
001128: 04,2372           03143 12066  POODAPAD           2CADR    T5IDLOC
001129:
001130: 04,2374     1060               MMTEMP             EQUALS   PHSPRDT3
001131: 04,2374     1061               BASETEMP           EQUALS   TBASE4
001132: 04,2374           00300        BIT7-8             OCT      300


001134: 04,2375           01120        OCT01120           OCT      01120
001135:
001136: 04,2376           10264        V37QCAD            CADR     V37XEQ     +3
001137: 04,2377           10132        ROOAD              CADR     DUMMYAD
001138: 04,2400  E6,1466                                  EBANK=   DAPDATR1
001139: 04,2400           02106 42066  RCSADDR4           2CADR    RCSATT
001140:
001141: 04,2402           37312        3.1SEC             OCT      37312                                 #  2.5 + 0.6 SEC
001142:
001143:                                                                                                  #  FOR VERB 37 TWO TABLES ARE MAINTAINED.  EACH TABLE HAS AN ENTRY FOR EACH
001144:                                                                                                  #  MAJOR MODE THAT CAN BE STARTED FROM THE KEYBOARD.  THE ENTRIES ARE PUT
001145:                                                                                                  #  INTO THE TABLE WITH THE ENTRY FOR THE HIGHEST MAJOR MODE COMING FIRST,
001146:                                                                                                  #  TO THE LOWEST MAJOR MODE WHICH IS THE LAST ENTRY IN EACH TABLE.
001147:
001148:                                                                                                  #  THE FCADRMM TABLE CONTAINS THE FCADR OF THE STARTING JOB OF
001149:                                                                                                  #  THE MAJOR MODE.  FOR EXAMPLE,
001150:
001151:                                                                                                  #        FCADRMM1        FCADR   P79             START OF P 79
001152:                                                                                                  #                        FCADR   PROG18          START OF P 18
001153:                                                                                                  #                        FCADR   P01             START OF P 01
001154:
001155: 04,2403                        FCADRMM1           EQUALS
001156: 04,2403           11334                           FCADR    P79
001157: 04,2404           11106                           FCADR    P78
001158: 04,2405           73433                           FCADR    P77
001159: 04,2406           26036                           FCADR    P76
001160: 04,2407           72157                           FCADR    P75
001161: 04,2410           72002                           FCADR    P74
001162: 04,2411           54320                           FCADR    P62
001163: 04,2412           54217                           FCADR    P61
001164: 04,2413           32000                           FCADR    P54
001165: 04,2414           31054                           FCADR    P53
001166: 04,2415           32000                           FCADR    PROG52
001167: 04,2416           31054                           FCADR    P51
001168: 04,2417           50410                           FCADR    P47CSM
001169: 04,2420           50235                           FCADR    P41CSM
001170: 04,2421           50002                           FCADR    P40CSM
001171: 04,2422           11327                           FCADR    P39
001172: 04,2423           11103                           FCADR    P38
001173: 04,2424           74502                           FCADR    P37
001174: 04,2425           72153                           FCADR    P35
001175: 04,2426           72000                           FCADR    P34
001176: 04,2427           73620                           FCADR    P31
001177: 04,2430           73604                           FCADR    P30
001178: 04,2431           62021                           FCADR    P23
001179: 04,2432           60000                           FCADR    PROG22
001180: 04,2433           76001                           FCADR    PROG21
001181: 04,2434           76207                           FCADR    PROG20
001182: 04,2435           73431                           FCADR    P17
001183: 04,2436           55655                           FCADR    P06


001185: 04,2437           66001                           FCADR    GTSCPSS1                              #  GYROCOMPASS STANDARD LEAD IN.
001186:
001187:                                                                                                  #  THE PREMM TABLE CONTAINS THE E-BANK, MAJOR MODE, AND PRIORITY
001188:                                                                                                  #  INFORMATION, IT IS IN THE FOLLOWING FORM,
001189:
001190:                                                                                                  #        PPP PPE EEM MMM MMM
001191:
001192:                                                                                                  #        WHERE THE       7 M BITS CONTAIN THE MAJOR MODE NUMBER
001193:                                                                                                  #                        3 E BITS CONTAIN THE E-BANK NUMBER
001194:                                                                                                  #                        5 P BITS CONTAIN THE PRIORITY AT WHICH THE JOB IS
001195:                                                                                                  #                            TO BE STARTED
001196:
001197:                                                                                                  #        FOR EXAMPLE,
001198:
001199:                                                                                                  #                PREMM1          OCT     67213           PRIORITY        33
001200:                                                                                                  #                                                        E-BANK  5
001201:                                                                                                  #                                                        MAJOR MODE      11
001202:                                                                                                  #                                OCT     25437           PRIORITY        12
001203:                                                                                                  #                                                        E-BANK  6
001204:                                                                                                  #                                                        MAJOR MODE      31
001205:
001206: 04,2440                        PREMM1             EQUALS
001207: 04,2440           27117                           OCT      27117                                 #  MM 79         EBANK 4         PRIO 13
001208: 04,2441           27116                           OCT      27116                                 #  MM 78         EBANK 4         PR23 13
001209: 04,2442           27115                           OCT      27115                                 #  MM 77         EBANK 4         PRIO 13
001210: 04,2443           27714                           OCT      27714                                 #  MM 76         EBANK 7         PRIO 13
001211: 04,2444           27113                           OCT      27113                                 #  MM 75         EBANK 4         PRIO 13
001212: 04,2445           27112                           OCT      27112                                 #  MM 74         EBANK 4         PRIO 13
001213:
001214: 04,2446           27476                           OCT      27476                                 #  MM 62         EBANK 6         PRIO 13
001215: 04,2447           27475                           OCT      27475                                 #  MM 61         EBANK 6         PRIO 13
001216:
001217: 04,2450           27266                           OCT      27266                                 #  MM 54         EBANK 5         PRIO 13
001218: 04,2451           27265                           OCT      27265                                 #  MM 53         EBANK 5         PRIO 13
001219: 04,2452           27264                           OCT      27264                                 #  MM 52         EBANK 5         PRIO 13
001220: 04,2453           27263                           OCT      27263                                 #  MM 51         EBANK 5         PRIO 13
001221:
001222: 04,2454           27657                           OCT      27657                                 #  MM 47         EBANK 7         PRIO 13
001223: 04,2455           27451                           OCT      27451                                 #  MM 41         EBANK 6         PRIO 13
001224: 04,2456           27450                           OCT      27450                                 #  MM 40         EBANK 6         PRIO 13
001225:
001226: 04,2457           27047                           OCT      27047                                 #  MM 39         EBANK 4         PRIO 13
001227: 04,2460           27046                           OCT      27046                                 #  MM 38         EBANK 4         PRIO 13
001228: 04,2461           27645                           OCT      27645                                 #  MM 37         EBANK 7         PRIO 13
001229: 04,2462           27043                           OCT      27043                                 #  MM 35         EBANK 4         PRIO 13
001230: 04,2463           27042                           OCT      27042                                 #  MM 34         EBANK 4         PRIO 13
001231: 04,2464           27637                           OCT      27637                                 #  MM 31         EBANK 7         PRIO 13
001232: 04,2465           27636                           OCT      27636                                 #  MM 30         EBANK 7         PRIO 13
001233:
001234: 04,2466           27227                           OCT      27227                                 #  MM 23         EBANK 5         PRIO 13
001235: 04,2467           27226                           OCT      27226                                 #  MM 22         EBANK 5         PRIO 13
001236: 04,2470           27025                           OCT      27025                                 #  MM 21         EBANK 4         PRIO 13
001237: 04,2471           27424                           OCT      27424                                 #  MM 20         EBANK 6         PRIO 13
001238:
001239: 04,2472           27021                           OCT      27021                                 #  MM 17         EBANK 4         PRIO 13


001241: 04,2473           27006                           OCT      27006                                 #  MM 06         EBANK 4         PRIO 13
001242: 04,2474           41201                           OCT      41201                                 #  MM 01         EBANK 5         PRIO 20
001243:
001244:                                                                                                  #  THE FOLLOWING LIST IS FOR THE PURPOSE OF VERIFYING THAT THE EBA
001245:
001246: 04,2475  E7,1412                                  EBANK=   TIG                                   #  EBANK SETTING REQUIRED BY MM 76
001247: 04,2475  E4,1763                                  EBANK=   KT                                    #  EBANK SETTING REQUIRED BY MM 75
001248: 04,2475  E4,1770                                  EBANK=   SUBEXIT                               #  EBANK SETTING REQUIRED BY MM 74
001249: 04,2475  E6,1661                                  EBANK=   AOG                                   #  EBANK SETTING REQUIRED BY MM 62
001250: 04,2475  E6,1661                                  EBANK=   AOG                                   #  EBANK SETTING REQUIRED BY MM 61
001251: 04,2475     0302                                  EBANK=   BESTI                                 #  EBANK SETTING REQUIRED BY MM 54
001252: 04,2475     0304                                  EBANK=   STARIND                               #  EBANK SETTING REQUIRED BY MM 53
001253: 04,2475     0302                                  EBANK=   BESTI                                 #  EBANK SETTING REQUIRED BY MM 52
001254: 04,2475     0304                                  EBANK=   STARIND                               #  EBANK SETTING REQUIRED BY MM 51
001255: 04,2475  E7,1672                                  EBANK=   P40TMP                                #  EBANK SETTING REQUIRED BY MM 47
001256: 04,2475  E7,1477                                  EBANK=   AXISCODE                              #  EBANK SETTING REQUIRED BY MM 41
001257: 04,2475  E6,1510                                  EBANK=   KMPAC                                 #  EBANK SETTING REQUIRED BY MM 40
001258: 04,2475  E4,1763                                  EBANK=   KT                                    #  EBANK SETTING REQUIRED BY MM 35
001259: 04,2475  E4,1770                                  EBANK=   SUBEXIT                               #  EBANK SETTING REQUIRED BY MM 34
001260: 04,2475  E7,1625                                  EBANK=   +MGA                                  #  EBANK SETTING REQUIRED BY MM 30
001261: 04,2475  E5,1751                                  EBANK=   LANDMARK                              #  EBANK SETTING REQUIRED BY MM 23
001262: 04,2475     0301                                  EBANK=   MARKINDX                              #  EBANK SETTING REQUIRED BY MM 22
001263: 04,2475  E7,1777                                  EBANK=   WHOCARES                              #  EBANK SETTING REQUIRED BY MM 21
001264: 04,2475  E6,1412                                  EBANK=   ESTROKER                              #  EBANK SETTING REQUIRED BY MM 20
001265: 04,2475     1150                                  EBANK=   TIME2SAV                              #  EBANK SETTING REQUIRED BY MM 06
001266: 04,2475  E5,1425                                  EBANK=   QPLACE                                #  EBANK SETTING REQUIRED BY MM 01
001267:
001268:                                                                                                  #  NOTE,         THE FOLLOWING CONSTANT IS THE NUMBER OF ENTRIES IN EACH OF
001269:                                                                                                  #  ----          THE ABOVE LISTS-1 (IE, THE NUMBER OF MAJOR MODES (EXCEPT P00)
001270:                                                                                                  #                THAT CAN BE CALLED FROM THE KEYBOARD MINUS ONE)
001271:
001272: 04,2475                        EPREMM1            EQUALS                                         #  END OF PREMM1 TABLE
001273: 04,2440                                           SETLOC   PREMM1                                #  THIS CODING WILL AUTOMATICALLY CHANGE
001274: 04,2440                        NO.MMS             =MINUS   EPREMM1                               #  THE 'NOV37MM' CONSTANT AS ENTRIES ARE
001275: 04,2000                                           SETLOC   VERB37                                #  INSERTED(IN) OR DELETED(FROM) THE
001276: 04,2000                                           BANK                                           #  'PREMM1' TABLE.
001277:
001278: 04,2475           00034        NOV37MM            ADRES    NO.MMS     -1                         #  ITEMS IN 'PREMM1'TABLE - 1.  *DON'T MOVE*
001279:
001280: 04,2476                        DNLADMM1           EQUALS
001281: 04,2476           00002                           ADRES    RENDEZVU                              #  P79
001282: 04,2477           00002                           ADRES    RENDEZVU                              #  P78
001283: 04,2500           00002                           ADRES    RENDEZVU                              #  P77
001284: 04,2501           00002                           ADRES    RENDEZVU                              #  P76
001285: 04,2502           00002                           ADRES    RENDEZVU                              #  P75
001286: 04,2503           00002                           ADRES    RENDEZVU                              #  P74


001288: 04,2504           00001                           ADRES    ENTRYUPD                              #  P62
001289: 04,2505           00003                           ADRES    POWERED                               #  P61
001290: 04,2506           00000                           ADRES    COSTALIN
001291: 04,2507           00000                           ADRES    COSTALIN
001292: 04,2510           00000                           ADRES    COSTALIN                              #  P52
001293: 04,2511           00000                           ADRES    COSTALIN                              #  P51
001294: 04,2512           00003                           ADRES    POWERED                               #  P47
001295: 04,2513           00003                           ADRES    POWERED                               #  P41
001296: 04,2514           00003                           ADRES    POWERED                               #  P40
001297: 04,2515           00002                           ADRES    RENDEZVU                              #  P39
001298: 04,2516           00002                           ADRES    RENDEZVU                              #  P38
001299: 04,2517           00002                           ADRES    RENDEZVU                              #  P37
001300: 04,2520           00002                           ADRES    RENDEZVU                              #  P35
001301: 04,2521           00002                           ADRES    RENDEZVU                              #  P34
001302: 04,2522           00002                           ADRES    RENDEZVU
001303: 04,2523           00002                           ADRES    RENDEZVU                              #  P30
001304: 04,2524           00002                           ADRES    RENDEZVU                              #  P23
001305: 04,2525           00004                           ADRES    P22DNLST                              #  P22
001306: 04,2526           00002                           ADRES    RENDEZVU                              #  P21
001307: 04,2527           00002                           ADRES    RENDEZVU                              #  P20
001308: 04,2530           00002                           ADRES    RENDEZVU                              #  P17
001309: 04,2531           00000                           ADRES    COSTALIN                              #  P06
001310: 04,2532           00000                           ADRES    COSTALIN                              #  P01
001311:
001312: 04,2533     4714               DNLADP00           =        ZERO
001313: 04,2533                        COSTALIN           =        0
001314: 04,2533                        ENTRYUPD           =        1
001315: 04,2533                        RENDEZVU           =        2
001316: 04,2533                        POWERED            =        3
001317:
001318: 04,2533                        P22DNLST           =        4
001319:
001320:                                                                                                  #  ORBITAL INTEGRATION CONSTANTS
001321:
001322:                                                                                                  #  THESE CONSTANTS ARE USED IN COMPUTING THE SETTING OF MIDFLAG.
001323:
001324: 04,2533           00465 32324  RMM                2DEC     2538.09    E3         B-27            #  800 KM ABOVE LUNAR SURFACE
001325:
001326: 04,2535           00333 01733  RME                2DEC     7178165    B-29                       #  800 KM ABOVE EQ. RADIUS
001327:
001328: 13,2000                                           BANK     13
001329: 13,2000                                           SETLOC   INTINIT
001330: 13,2000                                           BANK
001331:
001332: 13,2000                                           COUNT*   $$/INTIN
001333:
001334: 13,2000  E3,1554                                  EBANK=   RRECTCSM
001335:
001336: 13,2000           43014        STATEUP            SET      BOF                                   #  EXTRAPOLATE CM STATE VECTOR
001337: 13,2001           01474                                    VINTFLAG
001338: 13,2002           01751                                    ORBWFLAG                              #  ALSO 6X6 W-MATRIX IF VALID
001339: 13,2003           26006                                    +3                                    #        FOR ORBITAL NAVIGATION
001340: 13,2004           77614                           SET


001342: 13,2005           01476                                    DIM0FLAG
001343: 13,2006           45014                           CLEAR    CALL
001344: 13,2007           01667                                    PRECIFLG
001345: 13,2010           27113                                    INTEGRV
001346:
001347: 13,2011           71214                           BON      DLOAD
001348: 13,2012           04307                                    SURFFLAG
001349: 13,2013           26031                                    STATEND
001350: 13,2014           01571                                    TETCSM
001351: 13,2015           34041                           STCALL   TDEC1
001352: 13,2016           27371                                    INTSTALL
001353: 13,2017           45014                           CLEAR    CALL                                  #  EXTRAPOLATE LM STATE VECTOR
001354: 13,2020           01674                                    VINTFLAG
001355: 13,2021           26621                                    SETIFLGS                              #        AND 6X6 W-MATRIX IF VALID
001356: 13,2022           43014                           BOF      SET
001357: 13,2023           02756                                    RENDWFLG                              #        FOR RENDEZVOUS NAVIGATION
001358: 13,2024           26026                                    +2
001359: 13,2025           01476                                    DIM0FLAG
001360: 13,2026           45014                           SET      CALL
001361: 13,2027           01467                                    PRECIFLG
001362: 13,2030           27113                                    INTEGRV
001363: 13,2031           77614        STATEND            CLRGO
001364: 13,2032           01236                                    NODOFLAG
001365: 13,2033           26607                                    ENDINT
001366:
001367:                                                                                                  #  THIS VINT IS CALLED BY MIDTOAV1 AND 2
001368:
001369: 13,2034           43414        THISVINT           SET      RVQ
001370: 13,2035           01474                                    VINTFLAG
001371:
001372:

End of include-file FRESH_START_AND_RESTART.agc.  Parent file is MAIN.agc


