
Source Code
000001:                                                                                                 #  Copyright:     Public domain.
000002:                                                                                                 #  Filename:      FRESH_START_AND_RESTART.agc
000003:                                                                                                 #  Purpose:       Part of the source code for Colossus, build 249.
000004:                                                                                                 #                 It is part of the source code for the Command Module's (CM)
000005:                                                                                                 #                 Apollo Guidance Computer (AGC), possibly for Apollo 8 and 9.
000006:                                                                                                 #  Assembler:     yaYUL
000007:                                                                                                 #  Reference:     pp. 179-206 of 1701.pdf.
000008:                                                                                                 #  Contact:       Ron Burkey <info@sandroid.org>.
000009:                                                                                                 #  Website:       www.ibiblio.org/apollo.
000010:                                                                                                 #  Mod history:   08/07/04 RSB.   Adapted from similar Luminary 131 file.
000011:                                                                                                 #                                 Oddly, the 2 pages of introductory comments
000012:                                                                                                 #                                 aren't present in Luminary.
000013:
000014:                                                                                                 #  The contents of the "Colossus249" files, in general, are transcribed
000015:                                                                                                 #  from a scanned document obtained from MIT's website,
000016:                                                                                                 #  http://hrst.mit.edu/hrs/apollo/public/archive/1701.pdf.  Notations on this
000017:                                                                                                 #  document read, in part:
000018:
000019:                                                                                                 #         Assemble revision 249 of AGC program Colossus by NASA
000020:                                                                                                 #         2021111-041.  October 28, 1968.
000021:
000022:                                                                                                 #         This AGC program shall also be referred to as
000023:                                                                                                 #                                 Colossus 1A
000024:
000025:                                                                                                 #         Prepared by
000026:                                                                                                 #                         Massachussets Institute of Technology
000027:                                                                                                 #                         75 Cambridge Parkway
000028:                                                                                                 #                         Cambridge, Massachusetts
000029:                                                                                                 #         under NASA contract NAS 9-4065.
000030:
000031:                                                                                                 #  Refer directly to the online document mentioned above for further information.
000032:                                                                                                 #  Please report any errors (relative to 1701.pdf) to info@sandroid.org.
000033:
000034:                                                                                                 #  In some cases, where the source code for Luminary 131 overlaps that of
000035:                                                                                                 #  Colossus 249, this code is instead copied from the corresponding Luminary 131
000036:                                                                                                 #  source file, and then is proofed to incorporate any changes.
000037:
000038:                                                                                                 #  PROGRAM DESCRIPTION                                            8 APRIL, 1967
000039:                                                                                                 #                                                                 SUNDISK REV 120
000040:                                                                                                 #  FUNCTIONAL DESCRIPTION
000041:
000042:                                                                                                 #  SLAP1          MAN INITIATED FRESH START
000043:                                                                                                 #         1.      EXECUTE STARTSUB
000044:                                                                                                 #         2.      TURN OFF DSKY DISCRETE-LAMPS
000045:                                                                                                 #         3.      CLEAR FAIL REGISTERS, SELF-CHECK ERROR COUNTER AND RESTART
000046:                                                                                                 #                 COUNTER
000047:                                                                                                 #         4.      EXECUTE DOFSTART
000048:
000049:                                                                                                 #  DOFSTART       MACHINE INITIATED FRESH START
000050:
000051:                                                                                                 #         1.      CLEAR SELF-CHECK REGISTERS, MODE REGISTER AND CDUZ REGISTER
000052:                                                                                                 #         2.      CLEAR PHASE TABLE
000053:                                                                                                 #         3.      INITIALIZE IMU FLAGS
000054:                                                                                                 #         4.      INITIALIZE FLAGWORDS
000055:                                                                                                 #         5.      TRANSFER CONTROL TO IDLE LOOP IN DUMMYJOB
000056:
000057:                                                                                                 #  GOPROG HARDWARE RESTART
000058:
000059:                                                                                                 #         0.      EXECUTE STARTSUB
000060:                                                                                                 #         1.      TRANSFER CONTROL TO DOFSTART IF ANY OF THE FOLLOWING CONDITIONS
000061:                                                                                                 #                 EXIST.
000062:                                                                                                 #                 A.      RESTART OCCURRED DURING EXECUTION OF ERASCHK.
000063:                                                                                                 #                 B.      BOTH OSCILLATOR FAIL AND AGC WARNING ARE ON.
000064:                                                                                                 #                 C.      MARK REJECT AND EITHER NAV OR MAIN DSKY ERROR LIGHT RESET
000065:                                                                                                 #                         ARE ON.
000066:                                                                                                 #         2.      SCHEDULE A T5RUPT PROGRAM FOR THE DAP
000067:                                                                                                 #         3.      SET FLAGWRD5 BITS FOR INTWAKE ROUTINE
000068:                                                                                                 #         4.      EXTINGUISH ALL DSKY LAMPS, EXCEPT FOR PROGRAM ALARM, GIMBAL LOCK, AND
000069:                                                                                                 #                 NO ATT
000070:                                                                                                 #         5.      INITIALIZE IMU FLAGS
000071:                                                                                                 #         6.      IF ENGINE COMMAND IS ON (FLAGWRD5, BIT 7), SET ENGINE ON (CHANNEL
000072:                                                                                                 #                 11, BIT 13).
000073:                                                                                                 #         7.      TRANSFER CONTROL TO GOPROG3
000074:
000075:                                                                                                 #  ENEMA          SOFTWARE RESTART -- INITIATED BY MAJOR MODE CHANGE
000076:
000077:                                                                                                 #         1.      EXECUTE STARTSR2
000078:                                                                                                 #         2.      KILL PROGRAMS THAT WERE INTEGRATING OR WAITING FOR INTEGRATION
000079:                                                                                                 #                 ROUTINE
000080:                                                                                                 #         3.      TRANSFER CONTROL TO GOPROG3
000081:
000082:                                                                                                 #  GOPROG3        SUBROUTINE COMMON TO GOPROG AND ENEMA
000083:
000084:                                                                                                 #         1.      TEST PHASE TABLES -- IF INCORRECT, DISPLAY ALARM 1107 AND
000085:                                                                                                 #                 TRANSFER CONTROL TO DOFSTART
000086:                                                                                                 #         2.      DISPLAY MAJOR MODE
000087:                                                                                                 #         3.      IF ANY GROUPS WERE ACTIVE UPON RESTART, TRANSFER CONTROL TO THE
000088:                                                                                                 #  Page 180
000089:                                                                                                 #                 RESTARTS SUBROUTINE TO RESCHEDULE PENDING TASKS, LONGCALLS, AND
000090:                                                                                                 #                 JOBS (P20 IS RESTARTED VIA FINDVAC)
000091:                                                                                                 #         4.      IF NO GROUPS WERE ACTIVE UPON RESTART, DISPLAY ALARM CODE
000092:                                                                                                 #                 1110 (RESTART WITH NO ACTIVE GROUPS)
000093:                                                                                                 #         5.      TRANSFER CONTROL TO IDLE LOOP IN DUMMYJOB
000094:
000095:                                                                                                 #  STARTSUB       SUBROUTINE COMMON TO SLAP1 AND GOPROG
000096:
000097:                                                                                                 #         1.      CLEAR OUTBIT CHANNELS 5 AND 6
000098:                                                                                                 #         2.      INITIALIZE TIME5, TIME4, AND TIME3
000099:                                                                                                 #         3.      TRANSFER CONTROL TO STARTSB2
000100:
000101:                                                                                                 #  STARTSB2       SUBROUTINE COMMON TO STARTSUB AND ENEMA
000102:
000103:                                                                                                 #         1.      INTIALIZE OUTBIT CHANNELS 11,12,13, AND 14
000104:                                                                                                 #         2.      REPLACE ALL TASKS ON WAITLIST WITH ENDTASK
000105:                                                                                                 #         3.      MAKE ALL EXECUTEVE REGISTERS AVAILABLE
000106:                                                                                                 #         4.      MAKE ALL VAC AREAS AVAILABLE
000107:                                                                                                 #         5.      CLEAR DSKY REGISTERS
000108:                                                                                                 #         6.      ZERO NUMEROUS SWITCHES
000109:                                                                                                 #         7.      INITIALIZE OPTICS FLAGS
000110:                                                                                                 #         8.      INITIALIZE PIPA AND TELEMETRY FAIL FLAGS
000111:                                                                                                 #         9.      INITIALIZE DOWN TELEMETRY
000112:
000113:                                                                                                 #  INPUT/OUTPUT INITIALIZATION
000114:
000115:                                                                                                 #         A.      CALLING SEQUENCE
000116:
000117:                                                                                                 #                 SLAP1 --        TC POSTJUMP     OR      VERB 36,ENTER
000118:                                                                                                 #                                 CADR SLAP1
000119:
000120:                                                                                                 #                 ENEMA --        TC POSTJUMP     *** DO NOT CALL ENEMA WITHOUT ***
000121:                                                                                                 #                                 CADR ENEMA      ***  CONSULTING P00H PEOPLE   ***
000122:
000123:                                                                                                 #         B.      OUTPUT
000124:
000125:                                                                                                 #                 ERASABLE MEMORY INITIALIZATION
000126:
000127:                                                                                                 #  PROGRAM ANALYSIS
000128:
000129:                                                                                                 #         A.      SUBROUTINES CALLED
000130:
000131:                                                                                                 #                 MR.KLEAN,WAITLIST,DSPMM,ALARM,RESTARTS,FINDVAC
000132:
000133:                                                                                                 #         B.      ALARMS
000134:
000135:                                                                                                 #                 1107    PHASE TABLE ERROR
000136:                                                                                                 #                 1110    RESTART WTIH NO ACTIVE GROUPS
000137:
000138:                                                                                                 #  Page 181
000139: 10,2203                                          BANK     10
000140: 05,2000                                          SETLOC   FRANDRES
000141: 05,2000                                          BANK
000142:
000143: 05,2347  E3,1400                                 EBANK=   LST1
000144:
000145: 05,2347                                          COUNT    05/START                              #  FRESH AND RESTART
000146: 05,2347           00004        SLAP1             INHINT                                         #  FRESH START.  COMES HERE FROM PINBALL.
000147: 05,2350           02767                          TC       STARTSUB                              #  SUBROUTINE DOES MOST OF THE WORK
000148:
000149: 05,2351           12356        STARTSW           TCF      SKIPSIM                               #  PATCH....TCF STARTSIM FOR SIMULATION
000150: 05,2352           34675        STARTSIM          CAF      BIT14
000151: 05,2353           05042                          TC       FINDVAC
000152: 05,2354           77777        SIM2CADR          OCT      77777                                 #  PATCH 2CADR (AND EBANK DESIGNATION) OF
000153: 05,2355           77777                          OCT      77777                                 #  SIMULATION START ADDRESS.
000154:
000155: 05,2356           31036        SKIPSIM           CA       DSPTAB     +11D
000156: 05,2357           74726                          MASK     BITS4&6
000157: 05,2360           64674                          AD       BIT15
000158: 05,2361           55036                          TS       DSPTAB     +11D                       #  REQUESTED FRESH START
000159:
000160: 05,2362           34714                          CA       ZERO                                  #  SAVE STORY ON ZEROING FAILREG.
000161: 05,2363           55365                          TS       ERCOUNT
000162: 05,2364           54375                          TS       FAILREG
000163: 05,2365           54376                          TS       FAILREG    +1
000164: 05,2366           54377                          TS       FAILREG    +2
000165: 05,2367           55154                          TS       REDOCTR
000166:
000167: 05,2370           44603                          CS       PRIO12
000168: 05,2371           55302                          TS       DSRUPTSW
000169:
000170: 05,2372           34714        DOFSTART          CAF      ZERO                                  #  DO A FRESH START
000171: 05,2373           55360                          TS       ERESTORE                              #  ***** MUST NOT BE REMOVED FROM DOFSTART
000172: 05,2374           55362                          TS       SMODE                                 #  ***** MUST NOT BE REMOVED FROM DOFSTART
000173: 05,2375           55501                          TS       UPSVFLAG                              #  UPDATE STATE VECTOR REQUEST FLAGWORD
000174: 05,2376           00006                          EXTEND
000175: 05,2377           01005                          WRITE    CHAN5                                 #  TURN OFF RCS JETS
000176: 05,2400           00006                          EXTEND
000177: 05,2401           01006                          WRITE    CHAN6                                 #  TURN OFF RCS JETS
000178: 05,2402           00006                          EXTEND
000179: 05,2403           01011                          WRITE    DSALMOUT                              #  ZERO CHANNEL 11
000180: 05,2404           00006                          EXTEND
000181: 05,2405           01012                          WRITE    CHAN12                                #  ZERO CHANNEL 12
000182: 05,2406           00006                          EXTEND
000183: 05,2407           01013                          WRITE    CHAN13                                #  ZERO CHANNEL 13
000184: 05,2410           00006                          EXTEND
000185: 05,2411           01014                          WRITE    CHAN14                                #  ZERO CHANNEL 14
000186: 05,2412           55316                          TS       WTOPTION
000187: 05,2413           54332                          TS       DNLSTCOD
000188:                                                                                                 #  Page 182
000189: 05,2414           54371                          TS       NVSAVE
000190: 05,2415           55071                          TS       EBANKTEM
000191: 05,2416           55130                          TS       RATEINDX
000192: 05,2417           55126                          TS       TRKMKCNT
000193: 05,2420           55125                          TS       VHFCNT
000194: 05,2421           55044                          TS       EXTVBACT
000195:
000196: 05,2422           41036                          CS       DSPTAB     +11D
000197: 05,2423           74726                          MASK     BITS4&6
000198: 05,2424           10000                          CCS      A
000199: 05,2425           02431                          TC       +4
000200: 05,2426           34726                          CA       BITS4&6
000201: 05,2427           00006                          EXTEND                                         #  THE IMU WAS IN COARSE ALIGN IN GIMBAL
000202: 05,2430           05012                          WOR      CHAN12                                #  LOCK, SO PUT IT BACK INTO COARSE ALIGN.
000203: 05,2431           02474                          TC       MR.KLEAN
000204:
000205: 05,2432           44714                          CS       ZERO
000206: 05,2433           55011                          TS       MODREG
000207:
000208: 05,2434           34371                          CAF      PRIO30
000209: 05,2435           54366                          TS       RESTREG
000210:
000211: 05,2436           33167                          CAF      IM30INIF                              #  FRESH START IMU INITIALIZATION
000212: 05,2437           55320                          TS       IMODES30
000213:
000214: 05,2440           37716                          CAF      NEGONE
000215: 05,2441           55303                          TS       OPTIND                                #  KILL COARSE OPTICS
000216:
000217: 05,2442           33172                          CAF      OPTINITF
000218: 05,2443           55331                          TS       OPTMODES
000219:
000220: 05,2444           34763                          CAF      IM33INIT
000221: 05,2445           55321                          TS       IMODES33
000222:
000223: 05,2446           00006                          EXTEND                                         #  LET T5 IDLE.
000224: 05,2447           33146                          DCA      T5IDLER
000225: 05,2450           53313                          DXCH     T5LOC
000226:
000227: 05,2451           00006                          EXTEND                                         #  INITIALIZE SWITCHES ONLY ON FRESH START.
000228: 05,2452           33175                          DCA      SWINIT
000229: 05,2453           52075                          DXCH     STATE
000230: 05,2454           00006                          EXTEND
000231: 05,2455           33177                          DCA      SWINIT     +2
000232: 05,2456           52077                          DXCH     STATE      +2
000233: 05,2457           00006                          EXTEND
000234: 05,2460           33201                          DCA      SWINIT     +4
000235: 05,2461           52101                          DXCH     STATE      +4
000236: 05,2462           00006                          EXTEND
000237: 05,2463           33203                          DCA      SWINIT     +6
000238: 05,2464           52103                          DXCH     STATE      +6
000239:                                                                                                 #  Page 183
000240: 05,2465           00006                          EXTEND
000241: 05,2466           33205                          DCA      SWINIT     +8D
000242: 05,2467           52105                          DXCH     STATE      +8D
000243:
000244: 05,2470           33206                          CA       SWINIT     +10D
000245: 05,2471           54106                          TS       STATE      +10D
000246:
000247: 05,2472           04574        ENDRSTRT          TC       POSTJUMP
000248: 05,2473           03225                          CADR     DUMMYJOB   +2                         #  PICKS UP AT RELINT.    (IN A SWITCHED BANK.)
000249:
000250: 05,2474           00004        MR.KLEAN          INHINT
000251: 05,2475           00006                          EXTEND
000252: 05,2476           34714                          DCA      NEG0
000253: 05,2477           52755                          DXCH     -PHASE2
000254: 05,2500           00006        P00KLEAN          EXTEND
000255: 05,2501           34714                          DCA      NEG0
000256: 05,2502           52761                          DXCH     -PHASE4
000257: 05,2503           00006                          EXTEND
000258: 05,2504           34714                          DCA      NEG0
000259: 05,2505           52753                          DXCH     -PHASE1
000260: 05,2506           00006        V37KLEAN          EXTEND
000261: 05,2507           34714                          DCA      NEG0
000262: 05,2510           52757                          DXCH     -PHASE3
000263: 05,2511           00006                          EXTEND
000264: 05,2512           34714                          DCA      NEG0
000265: 05,2513           52763                          DXCH     -PHASE5
000266: 05,2514           00006                          EXTEND
000267: 05,2515           34714                          DCA      NEG0
000268: 05,2516           52765                          DXCH     -PHASE6
000269: 05,2517           00002                          TC       Q
000270:
000271:                                                                                                 #  Page 184
000272:                                                                                                 #  COMES HERE FROM LOCATION 4000, GOJAM, RESTART ANY PROGRAMS WHICH MAY HAVE BEEN RUNNING AT THE TIME.
000273:
000274: 05,2520           25154        GOPROG            INCR     REDOCTR                               #  ADVANCE RESTART COUNTER.
000275:
000276: 05,2521           22002                          LXCH     Q
000277: 05,2522           00006                          EXTEND
000278: 05,2523           04007                          ROR      SUPERBNK
000279: 05,2524           53433                          DXCH     RSBBQ
000280: 05,2525           02767                          TC       STARTSUB
000281:
000282:                                                                                                 #  ERACHK TEMPORARILY STORES THE CONTENST OF TWO ERASABLE LOCATIONS, X
000283:                                                                                                 #  AND X+1 INTO SKEEP5 AND SKEEP6.  IT ALSO STORES X INTO SKEEP7 AND
000284:                                                                                                 #  ERESTORE.  IF ERASCHK IS INTERRUPTED BY A RESTART, C(ERESTORE) SHOULD
000285:                                                                                                 #  EQUAL C(SKEEP7), AND SHOULD BE A + NUMBER LESS THAN 2000 OCT.  OTHERWISE
000286:                                                                                                 #  C(ERESTORE) SHOULD EQUAL +0.
000287:
000288: 05,2526           34364                          CAF      HI5
000289: 05,2527           71360                          MASK     ERESTORE
000290: 05,2530           00006                          EXTEND
000291: 05,2531           12533                          BZF      +2                                    #  IF ERESTORE NOT = +0 OR +N LESS THAN 2K,
000292: 05,2532           12372                          TCF      DOFSTART                              #  DOUBT E MEMORY AND DO A FRESH START
000293: 05,2533           41360                          CS       ERESTORE
000294: 05,2534           00006                          EXTEND
000295: 05,2535           12552                          BZF      DORSTART                              #  = +0 CONTINUE WITH RESTART.
000296: 05,2536           61377                          AD       SKEEP7
000297: 05,2537           00006                          EXTEND
000298: 05,2540           12542                          BZF      +2                                    #  = SKEEP7, RESTORE E MEMORY.
000299: 05,2541           12372                          TCF      DOFSTART                              #  NOT = SKEEP7, DOUBT E MEM, DO FRESH START
000300: 05,2542           31374                          CA       SKEEP4
000301: 05,2543           54003                          TS       EBANK                                 #  EBANK OF E MEMORY THAT WAS UNDER TEST.
000302: 05,2544           00006                          EXTEND                                         #  (NOT DXCH SINCE THIS MIGHT HAPPEN AGAIN)
000303: 05,2545           31376                          DCA      SKEEP5
000304: 05,2546           51377                          INDEX    SKEEP7
000305: 05,2547           52001                          DXCH     0000                                  #  E MEMORY RESTORED
000306: 05,2550           34714                          CA       ZERO
000307: 05,2551           55360                          TS       ERESTORE
000308: 05,2552           34674        DORSTART          CA       BIT15                                 #  TEST OSC FAIL BIT TO SEE IF WE HAVE
000309: 05,2553           00006                          EXTEND                                         #  HAD A POWER TRANSIENT.  IF SO, ATTEMPT
000310: 05,2554           03033                          WAND     CHAN33                                #  A RESTART.  IF NOT, CHECK THE PRESENT
000311: 05,2555           00006                          EXTEND                                         #  STATE OF AGC WARNING.
000312: 05,2556           12564                          BZF      BUTTONS
000313:
000314: 05,2557           34675                          CA       BIT14                                 #  IF AGC WARNING ON (BIT = 0), DO A FRESH
000315: 05,2560           00006                          EXTEND                                         #  START ON THE ASSUMPTION THAT WE'RE IN A
000316: 05,2561           02033                          RAND     CHAN33                                #  RESTART LOOP.
000317: 05,2562           00006                          EXTEND
000318: 05,2563           12372                          BZF      DOFSTART
000319:
000320: 05,2564           02744        BUTTONS           TC       LIGHTSET                              #  EXIT
000321:                                                                                                 #  MARK REJECT DEPRESSED SIMULTANEOUSLY.
000322:                                                                                                 #  Page 185
000323: 05,2565           30102        ELRSKIP           CA       FLAGWRD6                              #  RESTART AUTOPILOTS
000324: 05,2566           00006                          EXTEND
000325: 05,2567           74710                          MP       BIT3                                  #  BITS 15,14     00      T5IDLOC
000326: 05,2570           76211                          MASK     SIX                                   #                 01      REDORCS
000327: 05,2571           00006                          EXTEND                                         #                 10      REDOTVC
000328: 05,2572           50000                          INDEX    A                                     #                 11      REDOSAT
000329: 05,2573           33146                          DCA      T5IDLER
000330: 05,2574           53313                          DXCH     T5LOC
000331:
000332: 05,2575           44675                          CS       INTFLBIT
000333: 05,2576           70106                          MASK     RASFLAG
000334: 05,2577           54106                          TS       RASFLAG
000335:
000336: 05,2600           31331                          CA       OPTMODES
000337: 05,2601           73173                          MASK     OPTINITR
000338: 05,2602           64704                          AD       BIT7
000339: 05,2603           55331                          TS       OPTMODES
000340:
000341: 05,2604           34705                          CAF      BIT6
000342: 05,2605           71321                          MASK     IMODES33
000343: 05,2606           64763                          AD       IM33INIT
000344: 05,2607           55321                          TS       IMODES33
000345:
000346: 05,2610           33171                          CA       9,6,4                                 #  LEAVE PROG ALARM, GIMBAL LOCK, NO ATT
000347: 05,2611           71036                          MASK     DSPTAB     +11D                       #  LAMPS INTACT ON HARDWARE RESTART
000348: 05,2612           64674                          AD       BIT15
000349: 05,2613           57036                          XCH      DSPTAB     +11D
000350: 05,2614           74707                          MASK     BIT4                                  #  IF NO ATT LAMP WAS ON, LEAVE ISS IN
000351: 05,2615           00006                          EXTEND                                         #  COARSE ALIGN
000352: 05,2616           12625                          BZF      NOCOARSE
000353: 05,2617           04633                          TC       IBNKCALL                              #  IF NO ATT LAMP ON, RETURN ISS TO
000354: 05,2620           16746                          CADR     SETCOARS                              #         COARSE ALIGN.
000355:
000356: 05,2621           36211                          CAF      SIX
000357: 05,2622           05140                          TC       WAITLIST
000358: 05,2623  E3,1474                                 EBANK=   CDUIND
000359: 05,2623           02742 16063                    2CADR    CA+ECE
000360:
000361: 05,2625           33155        NOCOARSE          CAF      IFAILINH                              #  LEAVE FAILURE INHIBITS INTACT ON
000362: 05,2626           71320                          MASK     IMODES30                              #         HARDWARE RESTART.  RESET ALL
000363: 05,2627           63170                          AD       IM30INIR                              #         FAILURE CODES.
000364: 05,2630           55320                          TS       IMODES30
000365:
000366: 05,2631           40101                          CS       FLAGWRD5
000367: 05,2632           74704                          MASK     BIT7
000368: 05,2633           10000                          CCS      A
000369: 05,2634           12657                          TCF      GOPROG3
000370: 05,2635           34676                          CAF      BIT13
000371: 05,2636           00006                          EXTEND
000372: 05,2637           05011                          WOR      DSALMOUT                              #  TURN ENGINE ON
000373:                                                                                                 #  Page 186
000374: 05,2640           12657                          TCF      GOPROG3
000375:
000376: 05,2641           00004        ENEMA             INHINT
000377: 05,2642           02744                          TC       LIGHTSET                              #  EXIT TO DOFSTART IF ERROR RESET AND
000378: 05,2643           02777                          TC       STARTSB2                              #  MARK REJECT DEPRESSED SIMULTANEOUSLY
000379: 05,2644           43162                          CS       INTMASK                               #  RESET INTEGRATION BITS
000380: 05,2645           70106                          MASK     RASFLAG
000381: 05,2646           54106                          TS       RASFLAG
000382:
000383: 05,2647           40102                          CS       FLAGWRD6                              #  IS TVC ON
000384: 05,2650           74105                          MASK     OCT60000
000385: 05,2651           00006                          EXTEND
000386: 05,2652           62657                          BZMF     GOPROG3                               #  NO
000387:
000388: 05,2653           34731                          CAF      .5SEC                                 #  YES, CALL TVCEXEC TASK WHICH WAS KILLED
000389: 05,2654           05140                          TC       WAITLIST                              #         IN STARTSB2
000390: 05,2655  E6,1742                                 EBANK=   BZERO
000391: 05,2655           02660 34066                    2CADR    TVCEXEC
000392:
000393: 05,2657           34715        GOPROG3           CAF      NUMGRPS                               #  VERIFY PHASE TABLE AGREEMENTS
000394: 05,2660           54161        PCLOOP            TS       MPAC       +5
000395: 05,2661           60000                          DOUBLE
000396: 05,2662           00006                          EXTEND
000397: 05,2663           50000                          INDEX    A
000398: 05,2664           30753                          DCA      -PHASE1                               #  COMPLEMENT INTO A, DIRECT INTO L.
000399: 05,2665           00006                          EXTEND
000400: 05,2666           06001                          RXOR     LCHAN                                 #  RESULT MUST BE -0 FOR AGREEMENT.
000401: 05,2667           10000                          CCS      A
000402: 05,2670           12737                          TCF      PTBAD                                 #  RESTART FAILURE.
000403: 05,2671           12737                          TCF      PTBAD
000404: 05,2672           12737                          TCF      PTBAD
000405: 05,2673           10161                          CCS      MPAC       +5                         #  PROCESS ALL RESTART GROUPS.
000406: 05,2674           12660                          TCF      PCLOOP
000407:
000408: 05,2675           54162                          TS       MPAC       +6                         #  SET TO +0.
000409: 05,2676           05247                          TC       MMDSPLAY                              #  DISPLAY MAJOR MODE
000410:
000411: 05,2677           00004                          INHINT                                         #  RELINT DONE IN MMDSPLAY
000412:
000413: 05,2700           30102                          CAE      FLAGWRD6                              #  IS RCS DAP RUNNING (BITS 15 14 OF
000414: 05,2701           74105                          MASK     OCT60000                              #  FLAGWORD6 = 01)
000415: 05,2702           00006                          EXTEND                                         #  YES, DO STOPRATE
000416: 05,2703           62712                          BZMF     NXTRST     -1                         #  NO, SKIP TO NXTRST -1
000417: 05,2704           34752                          CAF      EBANK6                                #  STOPRATE IS DONE IN EBANK 6
000418: 05,2705           54003                          TS       EBANK
000419: 05,2706           04633                          TC       IBNKCALL                              #  ZERO DELCDUS, WBODYS, AND BIASES THUS
000420: 05,2707           45245                          CADR     STOPRATE                              #  STOPPING AUTOMATIC MANEUVERING
000421: 05,2710           34744                          CAF      EBANK3
000422: 05,2711           54003                          TS       EBANK
000423: 05,2712           34715                          CAF      NUMGRPS                               #  SEE IF ANY GROUPS RUNNING
000424:                                                                                                 #  Page 187
000425: 05,2713           54161        NXTRST            TS       MPAC       +5
000426: 05,2714           60000                          DOUBLE
000427: 05,2715           50000                          INDEX    A
000428: 05,2716           10753                          CCS      PHASE1
000429: 05,2717           12721                          TCF      PACTIVE                               #  PNZ -- GROUP ACTIVE.
000430: 05,2720           12726                          TCF      PINACT                                #  +0 -- GROUP NOT RUNNING.
000431:
000432: 05,2721           54154        PACTIVE           TS       MPAC
000433: 05,2722           24154                          INCR     MPAC                                  #  ABS OF PHASE.
000434: 05,2723           24162                          INCR     MPAC       +6                         #  INDICATE GROUP DEMANDS PRESENT.
000435: 05,2724           32743                          CA       RACTCADR
000436: 05,2725           04561                          TC       SWCALL                                #  MUST RETURN TO SWRETURN.
000437:
000438: 05,2726           10161        PINACT            CCS      MPAC       +5                         #  PROCESS ALL RESTART GROUPS.
000439: 05,2727           12713                          TCF      NXTRST
000440:
000441: 05,2730           10162                          CCS      MPAC       +6                         #  NO, CHECK PHASE ACTIVITY FLAG
000442: 05,2731           12472                          TCF      ENDRSTRT                              #  PHASE ACTIVE
000443: 05,2732           34674                          CAF      BIT15                                 #  IS MODE -0
000444: 05,2733           71011                          MASK     MODREG
000445: 05,2734           00006                          EXTEND
000446: 05,2735           14106                          BZF      GOTOP00H                              #  NO
000447: 05,2736           12472                          TCF      ENDRSTRT                              #  YES
000448: 05,2737           05537        PTBAD             TC       ALARM                                 #  SET ALARM TO SHOW PHASE TABLE FAILURE.
000449: 05,2740           01107                          OCT      1107
000450:
000451: 05,2741           12372                          TCF      DOFSTART                              #  IN R21.
000452:
000453:                                                                                                 #  ********* ********* **********
000454:
000455:                                                                                                 #  DO NOT USE GOPROG2 OR ENEMA WITHOUT CONSULTING P00H PEOPLE.
000456:
000457: 05,2742  05,2641               GOPROG2           EQUALS   ENEMA
000458: 05,2742     4676               OCT10000          =        BIT13
000459: 05,2742     4371               OCT30000          =        PRIO30
000460: 05,2742           07777        OCT7777           OCT      7777
000461: 05,2743           03520        RACTCADR          CADR     RESTARTS
000462:
000463: 05,2744           34704        LIGHTSET          CAF      BIT7                                  #  DOFSTART IF MARK REJECT AND EITHER
000464: 05,2745           00006                          EXTEND                                         #  ERROR LIGHT RESET BUTTONS ARE DEPRESSED
000465: 05,2746           02016                          RAND     NAVKEYIN
000466: 05,2747           00006                          EXTEND
000467: 05,2750           12764                          BZF      NONAVKEY                              #  NO MARK REJECT
000468: 05,2751           34362                          CAF      OCT37
000469: 05,2752           00006                          EXTEND
000470: 05,2753           02016                          RAND     NAVKEYIN                              #  NAV DSKY KEYCODES,MARK,MARK REJECT
000471: 05,2754           63166                          AD       -ELR
000472: 05,2755           00006                          EXTEND
000473: 05,2756           12765                          BZF      NONAVKEY   +1
000474: 05,2757           00006                          EXTEND
000475: 05,2760           00015                          READ     MNKEYIN                               #  MAIN DSKY KEYCODES
000476:                                                                                                 #  Page 188
000477: 05,2761           63166                          AD       -ELR
000478: 05,2762           00006                          EXTEND
000479: 05,2763           12765                          BZF      +2
000480:
000481: 05,2764           00002        NONAVKEY          TC       Q
000482:
000483: 05,2765           02767                          TC       STARTSUB
000484: 05,2766           12372                          TCF      DOFSTART
000485: 05,2767           33156        STARTSUB          CAF      LDNPHAS1                              #  SET POINTER SO NEXT 20MS DOWNRUPT WILL
000486: 05,2770           54335                          TS       DNTMGOTO                              #  CAUSE THE CURRENT DOWNLIST TO BE
000487:                                                                                                 #  INTERRUPTED AND START SENDING FROM THE
000488:                                                                                                 #  BEGINNING OF THE CURRENT DOWNLIST.
000489: 05,2771           34672                          CAF      POSMAX
000490: 05,2772           54026                          TS       TIME3                                 #  37777 TO TIME3.
000491: 05,2773           67715                          AD       MINUS2
000492: 05,2774           54027                          TS       TIME4                                 #  37775 TO TIME4.
000493: 05,2775           67716                          AD       NEGONE
000494: 05,2776           54030                          TS       TIME5                                 #  37774 TO TIME5.
000495:
000496: 05,2777           33163        STARTSB2          CAF      OCT77603                              #  TURN OFF UPLINK ACTY, TEMP CAUTION, KR,
000497: 05,3000           00006                          EXTEND                                         #  FLASH, OP. ERROR, LEAVE OTHERS UNCHANGED.
000498: 05,3001           03011                          WAND     DSALMOUT
000499:
000500: 05,3002           33164                          CAF      OCT74777                              #  TURN OFF TEST ALARMS, STANDBY ENABLE
000501: 05,3003           00006                          EXTEND
000502: 05,3004           03013                          WAND     CHAN13
000503: 05,3005           44675                          CS       BIT14                                 #  CLEAR R21MARK
000504: 05,3006           70076                          MASK     FLAGWRD2                              #  R21 SETS R21MARK AND RESETS IF IF R21
000505: 05,3007           54076                          TS       FLAGWRD2                              #  IS TERMINATED NORMALLY
000506: 05,3010  E3,1400                                 EBANK=   LST1
000507: 05,3010           33165                          CAF      STARTEB
000508: 05,3011           54003                          TS       EBANK                                 #  SET FOR E3
000509:
000510: 05,3012           34673                          CAF      NEG1/2                                #  INITIALIZE WAITLIST DELTA-TS.
000511: 05,3013           55407                          TS       LST1       +7
000512: 05,3014           55406                          TS       LST1       +6
000513: 05,3015           55405                          TS       LST1       +5
000514: 05,3016           55404                          TS       LST1       +4
000515: 05,3017           55403                          TS       LST1       +3
000516: 05,3020           55402                          TS       LST1       +2
000517: 05,3021           55401                          TS       LST1       +1
000518: 05,3022           55400                          TS       LST1
000519:
000520: 05,3023           45173                          CS       ENDTASK
000521: 05,3024           55410                          TS       LST2
000522: 05,3025           55412                          TS       LST2       +2
000523: 05,3026           55414                          TS       LST2       +4
000524: 05,3027           55416                          TS       LST2       +6
000525: 05,3030           55420                          TS       LST2       +8D
000526:                                                                                                 #  Page 189
000527: 05,3031           55422                          TS       LST2       +10D
000528: 05,3032           55424                          TS       LST2       +12D
000529: 05,3033           55426                          TS       LST2       +14D
000530: 05,3034           55430                          TS       LST2       +16D
000531: 05,3035           45174                          CS       ENDTASK    +1
000532: 05,3036           55411                          TS       LST2       +1
000533: 05,3037           55413                          TS       LST2       +3
000534: 05,3040           55415                          TS       LST2       +5
000535: 05,3041           55417                          TS       LST2       +7
000536: 05,3042           55421                          TS       LST2       +9D
000537: 05,3043           55423                          TS       LST2       +11D
000538: 05,3044           55425                          TS       LST2       +13D
000539: 05,3045           55427                          TS       LST2       +15D
000540: 05,3046           55431                          TS       LST2       +17D
000541:
000542: 05,3047           44714                          CS       ZERO                                  #  MAKE ALL EXECUTIVE REGISTER SETS
000543: 05,3050           54167                          TS       PRIORITY                              #  AVAILABLE.
000544: 05,3051           54203                          TS       PRIORITY   +12D
000545: 05,3052           54217                          TS       PRIORITY   +24D
000546: 05,3053           54233                          TS       PRIORITY   +36D
000547: 05,3054           54247                          TS       PRIORITY   +48D
000548: 05,3055           54263                          TS       PRIORITY   +60D
000549: 05,3056           54277                          TS       PRIORITY   +72D
000550:
000551: 05,3057           55302                          TS       DSRUPTSW
000552: 05,3060           54067                          TS       NEWJOB                                #  SHOWS NO ACTIVE JOBS.
000553:
000554: 05,3061           33160                          CAF      VAC1ADRC                              #  MAKE ALL VAC AREAS AVAILABLE.
000555: 05,3062           54400                          TS       VAC1USE
000556: 05,3063           63161                          AD       LTHVACA
000557: 05,3064           54454                          TS       VAC2USE
000558: 05,3065           63161                          AD       LTHVACA
000559: 05,3066           54530                          TS       VAC3USE
000560: 05,3067           63161                          AD       LTHVACA
000561: 05,3070           54604                          TS       VAC4USE
000562: 05,3071           63161                          AD       LTHVACA
000563: 05,3072           54660                          TS       VAC5USE
000564:
000565: 05,3073           34377                          CAF      TEN
000566: 05,3074           54154        DSPOFF            TS       MPAC
000567: 05,3075           44677                          CS       BIT12
000568: 05,3076           50154                          INDEX    MPAC
000569: 05,3077           55023                          TS       DSPTAB
000570: 05,3100           10154                          CCS      MPAC
000571: 05,3101           13074                          TCF      DSPOFF
000572:
000573: 05,3102           55141                          TS       DELAYLOC
000574: 05,3103           55142                          TS       DELAYLOC   +1
000575: 05,3104           55143                          TS       DELAYLOC   +2
000576:                                                                                                 #  Page 190
000577: 05,3105           55144                          TS       DELAYLOC   +3
000578: 05,3106           55073                          TS       R1SAVE
000579: 05,3107           54045                          TS       INLINK
000580: 05,3110           54776                          TS       DSPCNT
000581: 05,3111           55042                          TS       CADRSTOR
000582: 05,3112           55013                          TS       REQRET
000583: 05,3113           55015                          TS       CLPASS
000584: 05,3114           55012                          TS       DSPLOCK
000585: 05,3115           55020                          TS       MONSAVE                               #  KILL MONITOR
000586: 05,3116           55021                          TS       MONSAVE1
000587: 05,3117           55001                          TS       VERBREG
000588: 05,3120           55002                          TS       NOUNREG
000589: 05,3121           55043                          TS       DSPLIST
000590: 05,3122           55330                          TS       MARKSTAT
000591: 05,3123           55322                          TS       IMUCADR
000592: 05,3124           55323                          TS       OPTCADR
000593: 05,3125           55324                          TS       RADCADR
000594: 05,3126           55325                          TS       ATTCADR
000595: 05,3127           55304                          TS       LGYRO
000596: 05,3130           54100                          TS       FLAGWRD4                              #  KILL INTERFACE DISPLAYS
000597: 05,3131           34717                          CAF      NOUTCON
000598: 05,3132           55016                          TS       NOUT
000599:
000600: 05,3133           34675                          CAF      BIT14
000601: 05,3134           71044                          MASK     EXTVBACT
000602: 05,3135           55044                          TS       EXTVBACT
000603: 05,3136           33157                          CAF      LESCHK                                #  SELF CHECK GO-TO REGISTER
000604: 05,3137           55361                          TS       SELFRET
000605:
000606: 05,3140           44374                          CS       VD1
000607: 05,3141           54777                          TS       DSPCOUNT
000608:
000609: 05,3142           00002                          TC       Q
000610:
000611: 05,3143           30001        T5IDLOC           CA       L                                     #  T5RUPT COMES HERE EVERY 163.84 SECS
000612: 05,3144           15225                          TCF      NOQRSM     +1                         #  WHEN NOBODY IS USING IT.
000613:
000614: 05,3145  E6,1672                                 EBANK=   OGANOW
000615: 05,3145           03143 12066  T5IDLER           2CADR    T5IDLOC
000616:
000617: 05,3147  E6,1672                                 EBANK=   OGANOW
000618: 05,3147           02071 42066                    2CADR    REDORCS
000619:
000620: 05,3151  E6,1672                                 EBANK=   OGANOW
000621: 05,3151           03165 34066                    2CADR    REDOTVC
000622:
000623: 05,3153  E6,1672                                 EBANK=   OGANOW
000624: 05,3153           02765 46066                    2CADR    REDOSAT
000625:
000626: 05,3155           00435        IFAILINH          OCT      435
000627: 05,3156           03351        LDNPHAS1          GENADR   DNPHASE1
000628:                                                                                                 #  Page 191
000629: 05,3157           03334        LESCHK            GENADR   SELFCHK
000630: 05,3160           00400        VAC1ADRC          ADRES    VAC1USE
000631: 05,3161           00054        LTHVACA           DEC      44         B-14
000632:
000633: 05,3162           20100        INTMASK           OCT      20100
000634: 05,3163           77603        OCT77603          OCT      77603
000635: 05,3164           74777        OCT74777          OCT      74777
000636: 05,3165           01400        STARTEB           ECADR    LST1
000637: 05,3166     4715               NUMGRPS           EQUALS   FIVE
000638: 05,3166           77755        -ELR              OCT      -22                                   #  -ERROR LIGHT RESET KEY CODE.
000639: 05,3167           37411        IM30INIF          OCT      37411                                 #  INHIBITS IMU FAIL FOR 5 SEC AND PIP ISSW
000640: 05,3170           37000        IM30INIR          OCT      37000
000641: 05,3171     4763               IM33INIT          =        PRIO16                                #  NO PIP OR TM FAIL SIGNALS.
000642: 05,3171           00450        9,6,4             OCT      450
000643: 05,3172           00130        OPTINITF          OCT      130
000644: 05,3173           00430        OPTINITR          OCT      430
000645: 05,3174           00000        SWINIT            OCT      0
000646: 05,3175           00000                          OCT      0
000647: 05,3176           00000                          OCT      0
000648: 05,3177           00000                          OCT      0
000649:
000650: 05,3200           00000                          OCT      0
000651: 05,3201           00200                          OCT      00200
000652: 05,3202           00000                          OCT      0
000653: 05,3203           00100                          OCT      00100
000654:
000655: 05,3204           00000                          OCT      0
000656: 05,3205           00000                          OCT      0
000657: 05,3206           00000                          OCT      0
000658:                                                                                                 #  Page 192
000659:                                                                                                 #  PROGRAM NAME           GOTOP00H                ASSEMBLY SUNDISK
000660:                                                                                                 #  LOG SECTION            FRESH START AND RESTART
000661:
000662:                                                                                                 #  FUNCTIONAL DESCRIPTION
000663:
000664:                                                                                                 #         1.      DISPLAY MAJOR MODE NUMBER 00 IN DSKY REGISTER R1 AND R3.  FLASH V50N07 ON DSKY.  (M M CHANGE REQUEST)
000665:                                                                                                 #         2.      PERMIT A CURRENT PENDING REQUEST (FLASH ON DSKY) TO BE REPLACED (WITHOUT AN ABORT) BY THE MAJOR MODE
000666:                                                                                                 #                 CHANGE REQUEST.
000667:
000668:                                                                                                 #  INPUT/OUTPUT INFORMATION
000669:
000670:                                                                                                 #         A. CALLING SEQUENCE                     TC GOTOP00H
000671:                                                                                                 #         B. ERASABLE INITIALIZATION              NONE
000672:                                                                                                 #         C. OUTPUT                               FLASH V 50 NOUN 07 ON DSKY
000673:                                                                                                 #         D. DEBRIS                               L
000674:
000675:                                                                                                 #  PROGRAM ANALYSIS
000676:
000677:                                                                                                 #         A. SUBROUTINES CALLED                   GOPERF3, LINUS
000678:                                                                                                 #         B. NORMAL EXIT                          TCF ENDOFJOB
000679:                                                                                                 #         C. ALARM AND ABORT EXITS                NONE
000680:
000681:    4106                                          BLOCK    02
000682:    4000                                          SETLOC   FFTAG10
000683:    4000                                          BANK
000684:
000685:    4106                                          COUNT    02/P00
000686:
000687:    4106           05301        GOTOP00H          TC       PHASCHNG                              #  RESTART GOTOP00H
000688:    4107           00014                          OCT      14
000689:
000690:    4110           04574                          TC       POSTJUMP
000691:    4111           10000                          CADR     GOP00FIX
000692: 10,2203                                          BANK     10
000693: 04,2000                                          SETLOC   VERB37
000694: 04,2000                                          BANK
000695:
000696: 04,2000                                          COUNT    04/P00
000697:
000698: 04,2000           02315        GOP00FIX          TC       INITSUB
000699: 04,2001           32007                          CAF      V37N99
000700: 04,2002           04555                          TC       BANKCALL
000701: 04,2003           20624                          CADR     GOFLASH
000702: 04,2004           12001                          TCF      -3
000703: 04,2005           12001                          TCF      -4
000704:                                                                                                 #  Page 193
000705: 04,2006           12001                          TCF      -5
000706: 04,2007           11343        V37N99            VN       3799
000707:
000708:                                                                                                 #  Page 194
000709:                                                                                                 #  PROGRAM NAME           V37                     ASSEMBLY SUNDISK
000710:
000711:                                                                                                 #  LOG SECTION            FRESH START AND RESTART
000712:
000713:                                                                                                 #  FUNCTIONAL DESCRIPTION
000714:
000715:                                                                                                 #         1. CHECK IF NEW PROGRAM ALLOWED.  IF BIT 1 OF FLAGWRD2 (NODOFLAG) IS SET, AN ALARM 1520 IS CALLED.
000716:                                                                                                 #         2. CHECK FOR VALIDITY OF PROGRAM SELECTED.  IF AN INVALID PROGRAM IS SELECTED, THE OPERATOR ERROR LIGHT IS
000717:                                                                                                 #            SET AND CURRENT ACTIVITY, IF ANY, CONTINUE.
000718:                                                                                                 #         3. SERVICER IS TERMINATED IF IT HAS BEEN RUNNING.
000719:                                                                                                 #         4. INSTALL IS EXECUTED TO AVOID INTERRUPTING INTEGRATION.
000720:                                                                                                 #         5. THE ENGINE IS TURNED OFF AND THE DAP IS INITIALIZED FOR COAST.
000721:                                                                                                 #         6. TRACK, UPDATE, AND TARG1 FLAGS ARE SET TO ZERO.
000722:                                                                                                 #         7. DISPLAY SYSTEM IS RELEASED.
000723:                                                                                                 #         8. THE FOLLOWING ARE PERFORMED FOR EACH OF THE THREE CASES.
000724:                                                                                                 #                 A. PROGRAM SELECTED IS P00
000725:                                                                                                 #                         1. RENDEZVOUS AND P25 FLAGS ARE RESET.  (KILL P20)
000726:                                                                                                 #                         2. STATINT1 IS SCHEDULED BY SETTING RESTART GROUP 2.
000727:                                                                                                 #                         3. MAJOR MODE 00 IS STORED IN THE MODE REGISTER (MODREG).
000728:                                                                                                 #                         4. SUPERBANK 3 IS SELECTED.
000729:                                                                                                 #                         5. NODOFLAG IS RESET.
000730:                                                                                                 #                         6. ALL RESTART GROUPS EXCEPT GROUP2 ARE CLEARED. CONTROL IS TRANSFERRED TO RESTART PROGRAM (GOPROG2)
000731:                                                                                                 #                            WHICH CAUSES ALL CURRENT ACTIVITY TO BE DISCONTINUED AND A 9 MINUTE INTEGRATION CYCLE TO BE
000732:                                                                                                 #                            INITIATED.
000733:                                                                                                 #                 B. PROGRAM SELECTES IS P20.
000734:                                                                                                 #                         1. IF THE CURRENT MAJOR MODE IS THE SAME AS THE SELECTED NEWPROGRAM.  THE PROGRAM IS RE-INITIALIZED
000735:                                                                                                 #                            VIA V37XEQ, ALL RESTART GROUPS, EXCEPT GROUP 4 ARE CLEARED.
000736:                                                                                                 #                         2. IF THE CURRENT MAJOR MODE IS NOT EQUAL TO THE NEW REQUEST, A CHECK IS MADE TO SEE IF THE REQUEST-
000737:                                                                                                 #                            ED MAJOR MODE HAS BEEN RUNNING THE BACKGROUND,
000738:                                                                                                 #                            AND IF IT HAS, NO NEW PROGRAM IS SCHEDULED, THE EXISTING
000739:                                                                                                 #                            P20 IS RESTARTED TO CONTINUE, AND ITS MAJORE MODE IS SET.
000740:                                                                                                 #                         3. CONTROL IS TRANSFERRED TO GOPROG2.
000741:                                                                                                 #                 C. PROGRAM SELECTED IS NEITHER P00 NOR P20
000742:                                                                                                 #                         1. V37XEQ IS SCHEDULED (AS A JOB) BY SETTING RESTART GROUP 4
000743:                                                                                                 #                         2. ALL CURRENT ACTIVITY EXCEPT RENDEZVOUS AND TRACKING IS DISCONTINUED BY CLEARING ALL RESTART
000744:                                                                                                 #                            GROUPS.  IF THE RENDEZVOUS OR THE P25 FLAG IS ON, GROUP2 IS NOT CLEARED, ALLOWING THESE PROGRAMS
000745:                                                                                                 #                            TO CONTINUE.
000746:
000747:                                                                                                 #  INPUT/OUTPUT INFORMATION
000748:
000749:                                                                                                 #         A. CALLING SEQUENCE
000750:                                                                                                 #                 CONTROL IS DIRECTED TO V37 BY THE VERBFAN ROUTINE.
000751:                                                                                                 #                 VERBFAN GOES TO C(VERBTAB+C(VERBREG)). VERB 37 = MMCHANG.
000752:                                                                                                 #                 MMCHANG EXECUTES A `TC POSTJUMP', CADR V37.
000753:
000754:                                                                                                 #         B. ERASABLE INITIALIZATION              NONE
000755:
000756:                                                                                                 #         C. OUTPUT
000757:                                                                                                 #                 MAJOR MODE CHANGE
000758:                                                                                                 #  Page 195
000759:
000760:                                                                                                 #         D. DEBRIS
000761:                                                                                                 #                 MMNUMBER, MPAC +1, MINDEX, BASETEMP +C(MINDEX), FLAGWRD0, FLAGWRD1, FLAGWRD2, MODREG, GOLOC -1,
000762:                                                                                                 #                 GOLOC, GOLOC +1, GOLOC +2, BASETEMP, -PHASE2, PHASE2, -PHASE4
000763:
000764:                                                                                                 #  PROGRAM ANALYSIS
000765:
000766:                                                                                                 #         A. SUBROUTINES CALLED
000767:                                                                                                 #                 ALARM, RELDSP, PINBRNCH, INTSTALL, ENGINOF2, ALLCOAST, V37KLEAN, GOPROG2, FALTON, FINDVAC, SUPERSW,
000768:                                                                                                 #                 DSPMM
000769:
000770:                                                                                                 #         B. NORMAL EXIT                          TC ENDOFJOB
000771:
000772:                                                                                                 #         C. ALARMS                               1520 (MAJOR MODE CHANGE NOT PERMITTED)
000773:
000774:    4112                                          BLOCK    02
000775:    4000                                          SETLOC   FFTAG10
000776:    4000                                          BANK
000777:
000778:    4112                                          COUNT    02/V37
000779:
000780:    4112           00024        OCT24             MM       20         B-14
000781:    4113           00031        OCT31             MM       25         B-14
000782: 27,2000                                          BANK     27
000783: 04,2000                                          SETLOC   VERB37
000784: 04,2000                                          BANK
000785:
000786: 04,2010                                          COUNT    04/V37
000787:
000788: 04,2010           54775        V37               TS       MMNUMBER                              #  SAVE MAJOR MODE
000789: 04,2011           34371                          CAF      PRIO30                                #  RESTART AT PINBALL PRIORITY
000790: 04,2012           54366                          TS       RESTREG
000791:
000792: 04,2013           31320                          CA       IMODES30                              #  IS IMU BEING INITIALIZED
000793: 04,2014           74705                          MASK     BIT6
000794: 04,2015           10000                          CCS      A
000795: 04,2016           12070                          TCF      CANTR00
000796:
000797: 04,2017           34676                          CAF      BIT13                                 #  IS ENGINE ON
000798: 04,2020           00006                          EXTEND
000799: 04,2021           02011                          RAND     DSALMOUT
000800: 04,2022           10000                          CCS      A
000801: 04,2023           12030                          TCF      R00TOP00                              #  YES, SET UP FOR P00
000802:
000803: 04,2024           40102                          CS       FLAGWRD6                              #  NO, IS TVC DAP ON
000804: 04,2025           74105                          MASK     OCT60000
000805: 04,2026           00006                          EXTEND
000806: 04,2027           62061                          BZMF     ISITP00                               #  NO, CONTINUE WITH R00
000807:
000808: 04,2030           00004        R00TOP00          INHINT
000809: 04,2031           34752                          CAF      EBANK6
000810:                                                                                                 #  Page 196
000811: 04,2032           54003                          TS       EBANK
000812: 04,2033  E6,1466                                 EBANK=   DAPDATR1
000813: 04,2033           31474                          CAE      CSMMASS
000814: 04,2034           55662                          TS       MASSTMP
000815: 04,2035           04633                          TC       IBNKCALL
000816: 04,2036           50737                          CADR     SPSOFF
000817: 04,2037           04633                          TC       IBNKCALL
000818: 04,2040           13207                          CADR     MASSPROP
000819: 04,2041           32402                          CAF      3.1SEC
000820: 04,2042           04633                          TC       IBNKCALL
000821: 04,2043           42011                          CADR     RCSDAPON   +1
000822:
000823: 04,2044           04633                          TC       IBNKCALL
000824: 04,2045           51003                          CADR     TVCZAP                                #  DISABLE TVC
000825: 04,2046           34714                          CAF      ZERO
000826: 04,2047           54775                          TS       MMNUMBER
000827: 04,2050           00003                          RELINT
000828: 04,2051           34715                          CAF      FIVE
000829: 04,2052           04555                          TC       BANKCALL
000830: 04,2053           01732                          CADR     DELAYJOB
000831: 04,2054           34714                          CAF      ZERO
000832: 04,2055           00006                          EXTEND
000833: 04,2056           01005                          WRITE    5
000834: 04,2057           00006                          EXTEND
000835: 04,2060           01006                          WRITE    6
000836: 04,2061           30775        ISITP00           CA       MMNUMBER
000837: 04,2062           00006                          EXTEND
000838: 04,2063           12112                          BZF      ISSERVON                              #  YES, CHECK SERVICER STATUS
000839:
000840: 04,2064           40076                          CS       FLAGWRD2                              #  NO, IS NODO V37 FLAG SET
000841: 04,2065           74712                          MASK     BIT1
000842: 04,2066           10000                          CCS      A
000843: 04,2067           12075                          TCF      CHECKTAB                              #  NO
000844: 04,2070           05537        CANTR00           TC       ALARM
000845: 04,2071           01520                          OCT      1520
000846:
000847: 04,2072           04473        V37BAD            TC       RELDSP                                #  RELEASED DISPLAY FROM ASTRONAUT
000848:
000849: 04,2073           04574                          TC       POSTJUMP                              #  BRING BACK LAST NORMAL DISPLAY IF THERE
000850: 04,2074           21176                          CADR     PINBRNCH                              #  WAS ONE.  OY
000851:
000852: 04,2075           32475        CHECKTAB          CA       NOV37MM                               #  THE NO. OF MM
000853: 04,2076           54155        AGAINMM           TS       MPAC       +1
000854: 04,2077           50155                          NDX      MPAC       +1
000855: 04,2100           32440                          CA       PREMM1                                #  OBTAIN WHICH MM THIS IS FOR
000856: 04,2101           76043                          MASK     LOW7
000857: 04,2102           40000                          COM
000858: 04,2103           60775                          AD       MMNUMBER
000859: 04,2104           10000                          CCS      A
000860: 04,2105           10155                          CCS      MPAC       +1                         #  IF GR, SEE IF ANY MORE IN LIST
000861:                                                                                                 #  Page 197
000862: 04,2106           12076                          TCF      AGAINMM                               #  YES, GET NEXT ONE
000863: 04,2107           12257                          TCF      V37NONO                               #  LAST TIME OR PASSED MM
000864:
000865: 04,2110           30155                          CA       MPAC       +1
000866: 04,2111           54774                          TS       MINDEX                                #  SAVE INDEX FOR LATER
000867:
000868: 04,2112           40103        ISSERVON          CS       FLAGWRD7                              #  V37 FLAG SET -- I.E., IS SERVICER GOING
000869: 04,2113           74705                          MASK     BIT6
000870: 04,2114           10000                          CCS      A
000871: 04,2115           12123                          TCF      CANV37
000872:
000873: 04,2116           00004                          INHINT
000874: 04,2117           44712                          CS       BIT1                                  #  YES, TURN OFF AVERAGE G FLAG AND WAIT
000875: 04,2120           70075                          MASK     FLAGWRD1                              #  FOR SERVICER TO RETURN TO CANV37
000876: 04,2121           54075                          TS       FLAGWRD1
000877:
000878: 04,2122           15112                          TCF      ENDOFJOB
000879:
000880: 04,2123           32377        CANV37            CAF      R00AD
000881: 04,2124           54374                          TS       TEMPFLSH
000882:
000883: 04,2125           05301                          TC       PHASCHNG
000884: 04,2126           00014                          OCT      14
000885:
000886: 04,2127           06006        ROC               TC       INTPRET
000887:
000888: 04,2130           77624                          CALL                                           #  WAIT FOR INTEGRATION TO FINISH
000889: 04,2131           27371                                   INTSTALL
000890: 04,2132           77776        DUMMYAD           EXIT
000891:
000892: 04,2133           02315                          TC       INITSUB
000893:
000894: 04,2134           05447                          TC       DOWNFLAG
000895: 04,2135           00020                          ADRES    STIKFLAG
000896:
000897: 04,2136           04555                          TC       BANKCALL
000898: 04,2137           57750                          CADR     UPACTOFF                              #  TURN OFF UPLINK ACTIV LIGHT
000899:
000900: 04,2140           05447                          TC       DOWNFLAG
000901: 04,2141           00215                          ADRES    VHFRFLAG
000902: 04,2142           05447                          TC       DOWNFLAG
000903: 04,2143           00037                          ADRES    R21MARK
000904:
000905: 04,2144           10775                          CCS      MMNUMBER                              #  IS THIS A P00H REQUEST
000906: 04,2145           12245                          TCF      NOUVEAU                               #  NO, PICK UP NEW PROGRAM
000907:
000908: 04,2146                                          COUNT    04/P00
000909:
000910: 04,2146           04473        P00H              TC       RELDSP                                #  RELEASE DISPLAY SYSTEM
000911:                                                                                                 #  Page 198
000912: 04,2147           34754                          CAF      PRIO5                                 #  SET VARIABLE RESTART REGISTER FOR P00.
000913: 04,2150           55056                          TS       PHSPRDT2
000914:
000915: 04,2151           00004                          INHINT
000916:
000917: 04,2152           44712                          CS       BIT1                                  #  TURN OFF NODOFLAG.
000918: 04,2153           70076                          MASK     FLAGWRD2
000919: 04,2154           54076                          TS       FLAGWRD2
000920:
000921: 04,2155           34715                          CA       FIVE                                  #  SET 2.5 RESTART FOR STATEINT1
000922: 04,2156           54001                          TS       L
000923: 04,2157           40000                          COM
000924: 04,2160           52755                          DXCH     -PHASE2
000925:
000926: 04,2161           42374                          CS       BIT7-8                                #  RESET IMUSE + KILL P20 BY TURNING OFF
000927: 04,2162           70074                          MASK     FLAGWRD0
000928: 04,2163           54074                          TS       FLAGWRD0   REMDFLG
000929:
000930: 04,2164           34714                          CAF      DNLADP00
000931:
000932: 04,2165                                          COUNT    04/V37
000933:
000934: 04,2165           54332        SEUDOP00          TS       DNLSTCOD                              #  SET UP APPROPRIATE DOWNLIST CODE
000935:                                                                                                 #  (OLD ONE WILL BE FINISHED FIRST)
000936:
000937: 04,2166           42375                          CS       OCT01120                              #  TURN OFF TRACK, TARG1, UPDATE FLAGS
000938: 04,2167           55071                          TS       EBANKTEM
000939: 04,2170           70075                          MASK     FLAGWRD1
000940: 04,2171           54075                          TS       FLAGWRD1
000941:
000942: 04,2172           04633        GROUPKIL          TC       IBNKCALL                              #  KILL GROUPS 3,5,6
000943: 04,2173           12506                          CADR     V37KLEAN
000944:
000945: 04,2174           10775                          CCS      MMNUMBER                              #  IS IT P00H
000946: 04,2175           12204                          TCF      RENDV00                               #  NO
000947: 04,2176           04633                          TC       IBNKCALL
000948: 04,2177           12500                          CADR     P00KLEAN                              #  REDUNDANT EXCEPT FOR GROUP 4
000949:
000950: 04,2200           30775        GOMOD             CA       MMNUMBER
000951: 04,2201           55011                          TS       MODREG
000952:
000953: 04,2202           04574        GOGOPROG          TC       POSTJUMP
000954: 04,2203           12641                          CADR     GOPROG2
000955:
000956: 04,2204           40775        RENDV00           CS       MMNUMBER                              #  IS NEW PROG = 20
000957: 04,2205           64112                          AD       OCT24
000958: 04,2206           00006                          EXTEND
000959: 04,2207           12211                          BZF      RENDN00                               #  YES
000960: 04,2210           12221                          TCF      P00FIZZ
000961:                                                                                                 #  Page 199
000962: 04,2211           40775        RENDN00           CS       MMNUMBER
000963: 04,2212           61011                          AD       MODREG
000964: 04,2213           00006                          EXTEND
000965: 04,2214           12225                          BZF      KILL20
000966:
000967: 04,2215           30074                          CA       FLAGWRD0                              #  IS RENDZVOO FLAG SET
000968: 04,2216           74704                          MASK     BIT7
000969: 04,2217           10000                          CCS      A
000970: 04,2220           12236                          TCF      STATQUO
000971:
000972: 04,2221           34704        P00FIZZ           CAF      BIT7
000973: 04,2222           70074                          MASK     FLAGWRD0
000974: 04,2223           10000                          CCS      A
000975: 04,2224           12233                          TCF      REV37
000976: 04,2225           00006        KILL20            EXTEND                                         #  NO, KILL GROUPS 1 + 2
000977: 04,2226           34714                          DCA      NEG0
000978: 04,2227           52753                          DXCH     -PHASE1
000979:
000980: 04,2230           00006                          EXTEND
000981: 04,2231           34714                          DCA      NEG0
000982: 04,2232           52755                          DXCH     -PHASE2
000983:
000984: 04,2233           32376        REV37             CAF      V37QCAD                               #  SET RESTART POINT
000985: 04,2234           54374                          TS       TEMPFLSH
000986:
000987: 04,2235           12202                          TCF      GOGOPROG
000988:
000989:
000990: 04,2236           40075        STATQUO           CS       FLAGWRD1                              #  SET TRACKFLAG AND UPDATE FLAG
000991: 04,2237           74732                          MASK     OCT120
000992: 04,2240           26075                          ADS      FLAGWRD1
000993:
000994: 04,2241           00006                          EXTEND                                         #  KILL GROUP 4
000995: 04,2242           34714                          DCA      NEG0
000996: 04,2243           52761                          DXCH     -PHASE4
000997:
000998: 04,2244           12200                          TCF      GOMOD
000999:
001000: 04,2245           34704        NOUVEAU           CAF      BIT7
001001: 04,2246           70074                          MASK     FLAGWRD0
001002: 04,2247           10000                          CCS      A
001003: 04,2250           12253                          TCF      +3
001004: 04,2251           05447                          TC       DOWNFLAG                              #  NO, RESET IMUINUSE FLAG
001005: 04,2252           00007                          ADRES    IMUSE                                 #  BIT 8 FLAG 0
001006: 04,2253           50774                 +3       INDEX    MINDEX
001007: 04,2254           32476                          CAF      DNLADMM1                              #  OBTAIN APPROPRIATE DOWNLIST ADDRESS
001008:
001009: 04,2255           00004                          INHINT
001010: 04,2256           12165                          TCF      SEUDOP00
001011:
001012: 04,2257           04400        V37NONO           TC       FALTON                                #  COME HERE IF MM REQUESTED DOESN'T EXIST
001013:                                                                                                 #  Page 200
001014: 04,2260           12072                          TCF      V37BAD
001015:
001016: 04,2261     4707               OCT00010          EQUALS   BIT4
001017: 04,2261           00004        V37XEQ            INHINT
001018: 04,2262           50774                          INDEX    MINDEX
001019: 04,2263           32440                          CAF      PREMM1
001020: 04,2264           55060                          TS       MMTEMP                                #  OBTAIN PRIORITY BITS 15-11
001021: 04,2265           54020                          TS       CYR                                   #  SHIFT RIGHT TO BITS 14-10
001022:
001023: 04,2266           30020                          CA       CYR
001024: 04,2267           77674                          MASK     PRIO37
001025: 04,2270           55062                          TS       PHSPRDT4                              #  PRESET GROUP 4 RESTART PRIORITY
001026: 04,2271           54063                          TS       NEWPRIO                               #  STORE PRIO FOR SPVAC
001027:
001028: 04,2272           31060                          CA       MMTEMP                                #  OBTAIN EBANK -- BITS 8, 9, 10 OF MMTEMP.
001029: 04,2273           00006                          EXTEND
001030: 04,2274           74703                          MP       BIT8
001031: 04,2275           74716                          MASK     LOW3
001032: 04,2276           54001                          TS       L
001033: 04,2277           50774                          INDEX    MINDEX
001034: 04,2300           32403                          CAF      FCADRMM1
001035: 04,2301           55061                          TS       BASETEMP
001036: 04,2302           74364                          MASK     HI5
001037: 04,2303           26001                          ADS      L
001038:
001039: 04,2304           31061                          CA       BASETEMP                              #  OBTAIN GENADR PORTION OF 2CADR.
001040: 04,2305           74747                          MASK     LOW10
001041: 04,2306           64700                          AD       BIT11
001042:
001043: 04,2307           05053                          TC       SPVAC
001044:
001045: 04,2310           31060        V37XEQC           CA       MMTEMP                                #  UPON RETURN FROM FINDVAC PLACE THE
001046: 04,2311           76043                          MASK     LOW7                                  #  NEW MM IN MODREG (THE LOW 7 BITS OF
001047: 04,2312           05246                          TC       NEWMODEA                              #  PHSPRDT1)
001048:
001049:                                                                                                 #  FOR SUNDISK ONLY
001050: 04,2313           04473                          TC       RELDSP
001051: 04,2314           05112                          TC       ENDOFJOB                              #  AND EXIT
001052:
001053: 04,2315           00006        INITSUB           EXTEND
001054: 04,2316           22155                          QXCH     MPAC       +1
001055:
001056: 04,2317           34752                          CAF      EBANK6                                #  SET E6 FOR DEADBAND CODING
001057: 04,2320           54003                          TS       EBANK                                 #  WILL BE RESET IN STARTSB2
001058: 04,2321           00004                          INHINT
001059: 04,2322           04555                          TC       BANKCALL
001060: 04,2323           45245                          CADR     STOPRATE
001061:
001062: 04,2324           30105                          CA       FLAGWRD9                              #  RESTORE DEADBAND
001063: 04,2325           74677                          MASK     BIT12
001064:                                                                                                 #  Page 201
001065: 04,2326           10000                          CCS      A
001066: 04,2327           12333                          TCF      SETMAXER                              #  MAX DE SELECTED
001067: 04,2330           04555                          TC       BANKCALL                              #  MIN DE SELECTED
001068: 04,2331           50213                          CADR     SETMINDB
001069: 04,2332           12335                          TCF      RAKE
001070: 04,2333           04555        SETMAXER          TC       BANKCALL
001071: 04,2334           50227                          CADR     SETMAXDB
001072:
001073: 04,2335           34717        RAKE              CAF      ELEVEN                                #  THIS PART CLEARS FLAGWORD BITS.
001074: 04,2336           54154                 +1       TS       MPAC                                  #  LOOP COMES HERE
001075: 04,2337           50154                          INDEX    MPAC
001076: 04,2340           42356                          CS       FLAGTABL
001077: 04,2341           50154                          INDEX    MPAC
001078: 04,2342           70074                          MASK     FLAGWRD0
001079: 04,2343           50154                          INDEX    MPAC                                  #  PUT REVISED FLAGWORD BACK.
001080: 04,2344           54074                          TS       FLAGWRD0
001081: 04,2345           10154                          CCS      MPAC
001082: 04,2346           12336                          TCF      RAKE       +1                         #  GET THE NEXT FLAGWORD
001083: 04,2347           00003                          RELINT
001084:
001085: 04,2350           05435                          TC       UPFLAG                                #  NOW SET IMPULSW
001086: 04,2351           00044                          ADRES    IMPULSW
001087:
001088: 04,2352           05425                          TC       CLEARMRK
001089:
001090: 04,2353           37716                          CA       NEGONE
001091: 04,2354           55303                          TS       OPTIND
001092: 04,2355           00155                          TC       MPAC       +1                         #  RETURN FROM INITSUB
001093:
001094: 04,2356           00000        FLAGTABL          OCT      0
001095: 04,2357           00040                          OCT      00040                                 #  IDLEFAIL
001096: 04,2360           02000                          OCT      02000                                 #  STEERSW
001097: 04,2361           00000                          OCT      0
001098: 04,2362           00000                          OCT      0
001099: 04,2363           04140                          OCT      04140                                 #  V59FLAG, ENGONFLG, 3AXISFLG
001100: 04,2364           10000                          OCT      10000                                 #  STRULLSW
001101: 04,2365           16020                          OCT      16020                                 #  IGNFLAG, ASTNFLAG, TIMRFLAG, NOUPFLAG
001102: 04,2366           00000                          OCT      0
001103: 04,2367           42000                          OCT      42000                                 #  SWTOVER, V94FLAG
001104: 04,2370           00000                          OCT      0
001105: 04,2371           00000                          OCT      0
001106:
001107: 04,2372     5630               NEG7              EQUALS   OCT77770
001108:
001109: 04,2372  E6,1425                                 EBANK=   PACTOFF
001110: 04,2372           03143 12066  P00DAPAD          2CADR    T5IDLOC
001111:
001112: 04,2374     1060               MMTEMP            EQUALS   PHSPRDT3
001113: 04,2374     1061               BASETEMP          EQUALS   TBASE4
001114: 04,2374           00300        BIT7-8            OCT      300
001115:                                                                                                 #  Page 202
001116: 04,2375           01120        OCT01120          OCT      01120
001117:
001118: 04,2376           10264        V37QCAD           CADR     V37XEQ     +3
001119: 04,2377           10132        R00AD             CADR     DUMMYAD
001120: 04,2400  E6,1466                                 EBANK=   DAPDATR1
001121: 04,2400           02106 42066  RCSADDR4          2CADR    RCSATT
001122:
001123: 04,2402           37312        3.1SEC            OCT      37312                                 #  2.5 + 0.6 SEC
001124:
001125:                                                                                                 #  FOR VERB 37 TWO TABLES ARE MAINTAINED.  EACH TABLE HAS AN ETRY FOR EACH
001126:                                                                                                 #  MAJOR MODE THAT CAN BE STARTED FROM THE KEYBOARD.  THE ENTRIES ARE PUT
001127:                                                                                                 #  INTO THE TABLE WITH THE ENTRY FOR THE HIGHEST MAJOR MODE COMING FIRST,
001128:                                                                                                 #  TO THE LOWEST MAJOR MODE WHICH IS THE LAST ENTRY IN EACH TABLE.
001129:
001130:                                                                                                 #  THE FCADRMM TABLE CONTAINS THE FCADR OF THE STARTING JOB OF
001131:                                                                                                 #  THE MAJOR MODE.  FOR EXAMPLE,
001132:
001133:                                                                                                 #         FCADRMM1        FCADR   P79             # START OF P 79
001134:                                                                                                 #                         FCADR   PROG18          # START OF P 18
001135:                                                                                                 #                         FCADR   P01             # START OF P 01
001136:
001137:                                                                                                 #  NOTE:          THE FIRST ENTRY MUST BE LABELED FCADRMM1.
001138:                                                                                                 #  -----
001139:
001140: 04,2403           11334        FCADRMM1          FCADR    P79
001141: 04,2404           11106                          FCADR    P78
001142: 04,2405           73433                          FCADR    P77
001143: 04,2406           26036                          FCADR    P76
001144: 04,2407           72157                          FCADR    P75
001145: 04,2410           72002                          FCADR    P74
001146: 04,2411           54320                          FCADR    P62
001147: 04,2412           54217                          FCADR    P61
001148: 04,2413           32000                          FCADR    P54
001149: 04,2414           31054                          FCADR    P53
001150: 04,2415           32000                          FCADR    PROG52
001151: 04,2416           31054                          FCADR    P51
001152: 04,2417           50410                          FCADR    P47CSM
001153: 04,2420           50235                          FCADR    P41CSM
001154: 04,2421           50002                          FCADR    P40CSM
001155: 04,2422           11327                          FCADR    P39
001156: 04,2423           11103                          FCADR    P38
001157: 04,2424           74502                          FCADR    P37
001158: 04,2425           72153                          FCADR    P35
001159: 04,2426           72000                          FCADR    P34
001160: 04,2427           73620                          FCADR    P31
001161: 04,2430           73604                          FCADR    P30
001162: 04,2431           62021                          FCADR    P23
001163: 04,2432           60000                          FCADR    PROG22
001164: 04,2433           76001                          FCADR    PROG21
001165: 04,2434           76207                          FCADR    PROG20
001166: 04,2435           73431                          FCADR    P17
001167: 04,2436           55655                          FCADR    P06
001168:                                                                                                 #  Page 203
001169: 04,2437           66001                          FCADR    GTSCPSS1                              #  GYROCOMPASS STANDARD LEAD IN.
001170:
001171:                                                                                                 #  THE PREMM TABLE CONTAINS THE E-BANK, MAJOR MODE, AND PRIORITY
001172:                                                                                                 #  INFORMATION, IT IS IN THE FOLLOWING FORM,
001173:
001174:                                                                                                 #         PPP PPE EEM MMM MMM
001175:
001176:                                                                                                 #         WHERE THE       7 M BITS CONTAIN THE MAJOR MODE NUMBER
001177:                                                                                                 #                         3 E BITS CONTAIN THE E-BANK NUMBER
001178:                                                                                                 #                         5 P BITS CONTAIN THE PRIORITY AT WHICH THE JOB IS
001179:                                                                                                 #                             TO BE STARTED
001180:
001181:                                                                                                 #         FOR EXAMPLE,
001182:
001183:                                                                                                 #                 PREMM1          OCT     67213           # PRIORITY      33
001184:                                                                                                 #                                                         # E-BANK        5
001185:                                                                                                 #                                                         # MAJOR MODE    11
001186:                                                                                                 #                                 OCT     25437           # PRIORITY      12
001187:                                                                                                 #                                                         # E-BANK        6
001188:                                                                                                 #                                                         # MAJOR MODE    31
001189:
001190:                                                                                                 #  NOTE:          THE FIRST ENTRY MUST BE LABELED PREMM1
001191:
001192: 04,2440                        PREMM1            EQUALS
001193: 04,2440           27117                          OCT      27117                                 #  MM 79          EBANK 4         PRIO 13
001194: 04,2441           27116                          OCT      27116                                 #  MM 78          EBANK 4         PRIO 13
001195: 04,2442           27115                          OCT      27115                                 #  MM 77          EBANK 4         PRIO 13
001196: 04,2443           27714                          OCT      27714                                 #  MM 76          EBANK 4         PRIO 13
001197: 04,2444           27113                          OCT      27113                                 #  MM 75          EBANK 4         PRIO 13
001198: 04,2445           27112                          OCT      27112                                 #  MM 74          EBANK 4         PRIO 13
001199:
001200: 04,2446           27476                          OCT      27476                                 #  MM 62          EBANK 6         PRIO 13
001201: 04,2447           27475                          OCT      27475                                 #  MM 61          EBANK 6         PRIO 13
001202:
001203: 04,2450           27266                          OCT      27266                                 #  MM 54          EBANK 5         PRIO 13
001204: 04,2451           27265                          OCT      27265                                 #  MM 53          EBANK 5         PRIO 13
001205: 04,2452           27264                          OCT      27264                                 #  MM 52          EBANK 5         PRIO 13
001206: 04,2453           27263                          OCT      27263                                 #  MM 51          EBANK 5         PRIO 13
001207:
001208: 04,2454           27657                          OCT      27657                                 #  MM 47          EBANK 7         PRIO 13
001209: 04,2455           27451                          OCT      27451                                 #  MM 41          EBANK 6         PRIO 13
001210: 04,2456           27450                          OCT      27450                                 #  MM 40          EBANK 6         PRIO 13
001211:
001212: 04,2457           27047                          OCT      27047                                 #  MM 39          EBANK 4         PRIO 13
001213: 04,2460           27046                          OCT      27046                                 #  MM 38          EBANK 4         PRIO 13
001214: 04,2461           27645                          OCT      27645                                 #  MM 37          EBANK 7         PRIO 13
001215: 04,2462           27043                          OCT      27043                                 #  MM 35          EBANK 4         PRIO 13
001216: 04,2463           27042                          OCT      27042                                 #  MM 34          EBANK 4         PRIO 13
001217: 04,2464           27637                          OCT      27637                                 #  MM 31          EBANK 7         PRIO 13
001218: 04,2465           27636                          OCT      27636                                 #  MM 30          EBANK 7         PRIO 13
001219:
001220: 04,2466           27227                          OCT      27227                                 #  MM 23          EBANK 5         PRIO 13
001221: 04,2467           27226                          OCT      27226                                 #  MM 22          EBANK 5         PRIO 13
001222: 04,2470           27025                          OCT      27025                                 #  MM 21          EBANK 4         PRIO 13
001223: 04,2471           27424                          OCT      27424                                 #  MM 20          EBANK 6         PRIO 13
001224:
001225: 04,2472           27021                          OCT      27021                                 #  MM 17          EBANK 6         PRIO 13
001226:                                                                                                 #  Page 204
001227: 04,2473           27006                          OCT      27006                                 #  MM 06          EBANK 4         PRIO 13
001228: 04,2474           41201                          OCT      41201                                 #  MM 01          EBANK 5         PRIO 20
001229:
001230:                                                                                                 #  THE FOLLOWING LIST IS FOR THE PURPOSE OF VERIFYING THAT THE EBA
001231:
001232: 04,2475  E7,1412                                 EBANK=   TIG                                   #  EBANK SETTING REQUIRED BY MM 76
001233: 04,2475  E4,1763                                 EBANK=   KT                                    #  EBANK SETTING REQUIRED BY MM 75
001234: 04,2475  E4,1770                                 EBANK=   SUBEXIT                               #  EBANK SETTING REQUIRED BY MM 74
001235: 04,2475  E6,1661                                 EBANK=   AOG                                   #  EBANK SETTING REQUIRED BY MM 62
001236: 04,2475  E6,1661                                 EBANK=   AOG                                   #  EBANK SETTING REQUIRED BY MM 61
001237: 04,2475     0302                                 EBANK=   BESTI                                 #  EBANK SETTING REQUIRED BY MM 54
001238: 04,2475     0304                                 EBANK=   STARIND                               #  EBANK SETTING REQUIRED BY MM 53
001239: 04,2475     0302                                 EBANK=   BESTI                                 #  EBANK SETTING REQUIRED BY MM 52
001240: 04,2475     0304                                 EBANK=   STARIND                               #  EBANK SETTING REQUIRED BY MM 51
001241: 04,2475  E7,1672                                 EBANK=   P40TMP                                #  EBANK SETTING REQUIRED BY MM 47
001242: 04,2475  E7,1477                                 EBANK=   AXISCODE                              #  EBANK SETTING REQUIRED BY MM 41
001243: 04,2475  E6,1510                                 EBANK=   KMPAC                                 #  EBANK SETTING REQUIRED BY MM 40
001244: 04,2475  E4,1763                                 EBANK=   KT                                    #  EBANK SETTING REQUIRED BY MM 35
001245: 04,2475  E4,1770                                 EBANK=   SUBEXIT                               #  EBANK SETTING REQUIRED BY MM 34
001246: 04,2475  E7,1625                                 EBANK=   +MGA                                  #  EBANK SETTING REQUIRED BY MM 30
001247: 04,2475  E5,1751                                 EBANK=   LANDMARK                              #  EBANK SETTING REQUIRED BY MM 23
001248: 04,2475     0301                                 EBANK=   MARKINDX                              #  EBANK SETTING REQUIRED BY MM 22
001249: 04,2475  E7,1777                                 EBANK=   WHOCARES                              #  EBANK SETTING REQUIRED BY MM 21
001250: 04,2475  E6,1412                                 EBANK=   ESTROKER                              #  EBANK SETTING REQUIRED BY MM 20
001251: 04,2475     1150                                 EBANK=   TIME2SAV                              #  EBANK SETTING REQUIRED BY MM 06
001252: 04,2475  E5,1425                                 EBANK=   QPLACE                                #  EBANK SETTING REQUIRED BY MM 01
001253:
001254:                                                                                                 #  NOTE:          THE FOLLOWING CONSTANT IS THE NUMBER OF ENTRIES IN EACH OF
001255:                                                                                                 #  -----          THE ABOVE LISTS-1 (I.E., THE NUMBER OF MAJOR MODES (EXCEPT P00)
001256:                                                                                                 #                 THAT CAN BE CALLED FROM THE KEYBOARD MINUS ONE)
001257:
001258: 04,2475                        EPREMM1           EQUALS                                         #  END OF PREMM1 TABLE
001259: 04,2440                                          SETLOC   PREMM1                                #  THIS CODING WILL AUTOMATICALLY CHANGE
001260: 04,2440                        NO.MMS            =MINUS   EPREMM1                               #  THE "NOV37MM" CONSTANT AS ENTRIES ARE
001261: 04,2000                                          SETLOC   VERB37                                #  INSERTED(IN) OR DELETED(FROM) THE
001262: 04,2000                                          BANK                                           #  "PREMM1" TABLE.
001263:
001264: 04,2475           00034        NOV37MM           ADRES    NO.MMS     -1                         #  ITEMS IN "PREMM1" TABLE - 1.  *DON'T MOVE*
001265:
001266: 04,2476                        DNLADMM1          EQUALS
001267: 04,2476           00002                          ADRES    RENDEZVU                              #  P79
001268: 04,2477           00002                          ADRES    RENDEZVU                              #  P78
001269: 04,2500           00002                          ADRES    RENDEZVU                              #  P77
001270: 04,2501           00002                          ADRES    RENDEZVU                              #  P76
001271: 04,2502           00002                          ADRES    RENDEZVU                              #  P75
001272: 04,2503           00002                          ADRES    RENDEZVU                              #  P74
001273:                                                                                                 #  Page 205
001274: 04,2504           00001                          ADRES    ENTRYUPD                              #  P62
001275: 04,2505           00003                          ADRES    POWERED                               #  P61
001276: 04,2506           00000                          ADRES    COSTALIN
001277: 04,2507           00000                          ADRES    COSTALIN
001278: 04,2510           00000                          ADRES    COSTALIN                              #  P52
001279: 04,2511           00000                          ADRES    COSTALIN                              #  P51
001280: 04,2512           00003                          ADRES    POWERED                               #  P47
001281: 04,2513           00003                          ADRES    POWERED                               #  P41
001282: 04,2514           00003                          ADRES    POWERED                               #  P40
001283: 04,2515           00002                          ADRES    RENDEZVU                              #  P39
001284: 04,2516           00002                          ADRES    RENDEZVU                              #  P38
001285: 04,2517           00002                          ADRES    RENDEZVU                              #  P37
001286: 04,2520           00002                          ADRES    RENDEZVU                              #  P35
001287: 04,2521           00002                          ADRES    RENDEZVU                              #  P34
001288: 04,2522           00002                          ADRES    RENDEZVU
001289: 04,2523           00002                          ADRES    RENDEZVU                              #  P30
001290: 04,2524           00002                          ADRES    RENDEZVU                              #  P23
001291: 04,2525           00004                          ADRES    P22DNLST                              #  P22
001292: 04,2526           00002                          ADRES    RENDEZVU                              #  P21
001293: 04,2527           00002                          ADRES    RENDEZVU                              #  P20
001294: 04,2530           00002                          ADRES    RENDEZVU                              #  P17
001295: 04,2531           00000                          ADRES    COSTALIN                              #  P06
001296: 04,2532           00000                          ADRES    COSTALIN                              #  P01
001297:
001298: 04,2533     4714               DNLADP00          =        ZERO
001299: 04,2533                        COSTALIN          =        0
001300: 04,2533                        ENTRYUPD          =        1
001301: 04,2533                        RENDEZVU          =        2
001302: 04,2533                        POWERED           =        3
001303:
001304: 04,2533                        P22DNLST          =        4
001305:
001306:                                                                                                 #  ORBITAL INTEGRATION CONSTANTS
001307:
001308:                                                                                                 #  THESE CONSTANTS ARE USED IN COMPUTING THE SETTING OF MIDFLAG.
001309:
001310: 04,2533           00465 32324  RMM               2DEC     2538.09    E3         B-27            #  600 KM ABOVE LUNAR SURFACE
001311:
001312: 04,2535           00333 01733  RME               2DEC     7178165    B-29                       #  800 KM ABOVE EQ. RADIUS
001313:
001314: 13,2000                                          BANK     13
001315: 13,2000                                          SETLOC   INTINIT
001316: 13,2000                                          BANK
001317:
001318: 13,2000                                          COUNT*   $$/INTIN
001319:
001320: 13,2000  E3,1554                                 EBANK=   RRECTCSM
001321:
001322: 13,2000           43014        STATEUP           SET      BOF                                   #  EXTRAPOLATE CM STATE VECTOR
001323: 13,2001           01474                                   VINTFLAG
001324: 13,2002           01751                                   ORBWFLAG                              #  ALSO 6X6 W-MATRIX IF VALID
001325: 13,2003           26006                                   +3                                    #         FOR ORBITAL NAVIGATION
001326: 13,2004           77614                          SET
001327:                                                                                                 #  Page 206
001328: 13,2005           01476                                   DIM0FLAG
001329: 13,2006           45014                          CLEAR    CALL
001330: 13,2007           01667                                   PRECIFLG
001331: 13,2010           27113                                   INTEGRV
001332:
001333: 13,2011           71214                          BON      DLOAD
001334: 13,2012           04307                                   SURFFLAG
001335: 13,2013           26031                                   STATEND
001336: 13,2014           01571                                   TETCSM
001337: 13,2015           34041                          STCALL   TDEC1
001338: 13,2016           27371                                   INTSTALL
001339: 13,2017           45014                          CLEAR    CALL                                  #  EXTRAPOLATE LM STATE VECTOR
001340: 13,2020           01674                                   VINTFLAG
001341: 13,2021           26621                                   SETIFLGS                              #         AND 6X6 W-MATRIX IF VALID
001342: 13,2022           43014                          BOF      SET
001343: 13,2023           02756                                   RENDWFLG                              #         FOR RENDEZVOUS NAVIGATION
001344: 13,2024           26026                                   +2
001345: 13,2025           01476                                   DIM0FLAG
001346: 13,2026           45014                          SET      CALL
001347: 13,2027           01467                                   PRECIFLG
001348: 13,2030           27113                                   INTEGRV
001349: 13,2031           77614        STATEND           CLRGO
001350: 13,2032           01236                                   NODOFLAG
001351: 13,2033           26607                                   ENDINT
001352:
001353:                                                                                                 #  THIS VINT IS CALLED BY MIDTOAV1 AND 2
001354:
001355: 13,2034           43414        THISVINT          SET      RVQ
001356: 13,2035           01474                                   VINTFLAG
001357:
001358:

End of include-file FRESH_START_AND_RESTART.agc.  Parent file is MAIN.agc


