
Source Code


000002:                                                                                                  #  Copyright:    Public domain.
000003:                                                                                                  #  Filename:     GIMBAL_LOCK_AVOIDANCE.agc
000004:                                                                                                  #  Purpose:      Part of the source code for Colossus, build 249.
000005:                                                                                                  #                It is part of the source code for the Command Module's (CM)
000006:                                                                                                  #                Apollo Guidance Computer (AGC), possibly for Apollo 8 and 9.
000007:                                                                                                  #  Assembler:    yaYUL
000008:                                                                                                  #  Reference:    pp. 407-408 of 1701.pdf.
000009:                                                                                                  #  Contact:      Ron Burkey <info@sandroid.org>.
000010:                                                                                                  #  Website:      www.ibiblio.org/apollo.
000011:                                                                                                  #  Mod history:  08/10/04 RSB.   Began transcribing.
000012:
000013:                                                                                                  #  The contents of the "Colossus249" files, in general, are transcribed
000014:                                                                                                  #  from a scanned document obtained from MIT's website,
000015:                                                                                                  #  http://hrst.mit.edu/hrs/apollo/public/archive/1701.pdf.  Notations on this
000016:                                                                                                  #  document read, in part:
000017:
000018:                                                                                                  #        Assemble revision 249 of AGC program Colossus by NASA
000019:                                                                                                  #        2021111-041.  October 28, 1968.
000020:
000021:                                                                                                  #        This AGC program shall also be referred to as
000022:                                                                                                  #                                Colossus 1A
000023:
000024:                                                                                                  #        Prepared by
000025:                                                                                                  #                        Massachusetts Institute of Technology
000026:                                                                                                  #                        75 Cambridge Parkway
000027:                                                                                                  #                        Cambridge, Massachusetts
000028:                                                                                                  #        under NASA contract NAS 9-4065.
000029:
000030:                                                                                                  #  Refer directly to the online document mentioned above for further information.
000031:                                                                                                  #  Please report any errors (relative to 1701.pdf) to info@sandroid.org.
000032:
000033:                                                                                                  #  In some cases, where the source code for Luminary 131 overlaps that of
000034:                                                                                                  #  Colossus 249, this code is instead copied from the corresponding Luminary 131
000035:                                                                                                  #  source file, and then is proofed to incorporate any changes.
000036:


000038: 15,2000                                           BANK     15
000039:
000040: 22,2000                                           SETLOC   KALCMON1
000041: 22,2000                                           BANK
000042:
000043: 22,2736  E6,1661                                  EBANK=   BCDU
000044:
000045:                                                                                                  #  DETECTING GIMBAL LOCK
000046: 22,2736  22,2736               LOCSKIRT           EQUALS   NOGIMLOC
000047:
000048: 22,2736           77614        NOGIMLOC           SET
000049: 22,2737           01074                                    CALCMAN3
000050: 22,2740           70740        WCALC              LXC,1    DLOAD*
000051: 22,2741           01130                                    RATEINDX
000052: 22,2742           04772                                    ARATE,1
000053: 22,2743           45002                           SR4      CALL                                  #  COMPUTE THE INCREMENTAL ROTATION MATRIX
000054: 22,2744           44530                                    DELCOMP                               #  DEL CORRESPONDING TO A 1 SEC ROTATION
000055:                                                                                                  #  ABOUT COF
000056: 22,2745           74343                           DLOAD*   VXSC
000057: 22,2746           04772                                    ARATE,1
000058: 22,2747           03343                                    COF
000059: 22,2750           77721                           MXV
000060: 22,2751           05004                                    QUADROT
000061:
000062: 22,2752           17311                           STODL    BRATE
000063: 22,2753           03365                                    AM
000064: 22,2754           55605                           DMP      DDV*
000065: 22,2755           05002                                    ANGLTIME
000066: 22,2756           04772                                    ARATE,1
000067: 22,2757           77661                           SR
000068: 22,2760           20606                                    5
000069: 22,2761           27317                           STOVL    TM
000070: 22,2762           03311                                    BRATE
000071: 22,2763           77761                           VXSC
000072: 22,2764           05026                                    BIASCALE
000073: 22,2765           03275                           STORE    BIASTEMP                              #  ATTITUDE ERROR BIAS TO PREVENT OVERSHOOT
000074:                                                                                                  #  IN SYSTEM
000075: 22,2766           77614                           SETGO                                          #  STATE SWITCH CALCMAN2 (43D)
000076: 22,2767           01035                                    CALCMAN2                              #  0(OFF) = BYPASS STARTING PROCEDURE
000077: 22,2770           45033                                    NEWANGL    +1                         #  1(ON) = START MANEUVER
000078:
000079: 22,2771           00044 15053  ARATE              2DEC     .0022222222                            #  = .05 DEG/SEC
000080: 22,2773           00221 24255                     2DEC     .0088888889                            #  = .2 DEG/SEC
000081: 22,2775           00554 02660                     2DEC     .0222222222                            #  = .5 DEG/SEC
000082: 22,2777           05540 26603                     2DEC     .1777777777                            #  = 4 DEG/SEC
000083:
000084: 22,3001           00003 04000  ANGLTIME           2DEC     .000190735                            #  = 100B-19
000085:                                                                                                  #  MANEUVER ANGLE TO MANEUVER TIME


000087: 22,3003           03146 14632  QUADROT            2DEC     .1                                    #  ROTATION MATRIX FROM S/C AXES TO CONTROL
000088: 22,3005           00000 00000                     2DEC     0          B-28                       #  AXES (X ROT = -7.25 DEG)
000089: 22,3007           00000 00000                     2DEC     0          B-28
000090: 22,3011           00000 00000                     2DEC     0          B-28
000091: 22,3013           03131 11275                     2DEC     .099200                               #  = (.1)COS7.25
000092: 22,3015           77461 47370                     2DEC     -.012620                              #  =-(.1)SIN7.25
000093: 22,3017           00000 00000                     2DEC     0          B-28
000094: 22,3021           00316 30407                     2DEC     .012620                               #  (.1)SIN7.25
000095: 22,3023           03131 11275                     2DEC     .099200                               #  (.1)COS7.25
000096: 22,3025           00004 05253  BIASCALE           2DEC     .0002543132                            #  (450/180)(1/0.6)(1/16384)
000097:
000098:

End of include-file GIMBAL_LOCK_AVOIDANCE.agc.  Parent file is MAIN.agc


