
Source Code


000002:                                                                                                  #  Copyright:    Public domain.
000003:                                                                                                  #  Filename:     GROUND_TRACKING_DETERMINATION_PROGRAM.agc
000004:                                                                                                  #  Purpose:      Part of the source code for Colossus, build 249.
000005:                                                                                                  #                It is part of the source code for the Command Module's (CM)
000006:                                                                                                  #                Apollo Guidance Computer (AGC), possibly for Apollo 8 and 9.
000007:                                                                                                  #  Assembler:    yaYUL
000008:                                                                                                  #  Reference:    pp. 451-453 of 1701.pdf.
000009:                                                                                                  #  Contact:      Ron Burkey <info@sandroid.org>.
000010:                                                                                                  #  Website:      www.ibiblio.org/apollo.
000011:                                                                                                  #  Mod history:  08/11/04 RSB.   Began transcribing.
000012:
000013:                                                                                                  #  The contents of the "Colossus249" files, in general, are transcribed
000014:                                                                                                  #  from a scanned document obtained from MIT's website,
000015:                                                                                                  #  http://hrst.mit.edu/hrs/apollo/public/archive/1701.pdf.  Notations on this
000016:                                                                                                  #  document read, in part:
000017:
000018:                                                                                                  #        Assemble revision 249 of AGC program Colossus by NASA
000019:                                                                                                  #        2021111-041.  October 28, 1968.
000020:
000021:                                                                                                  #        This AGC program shall also be referred to as
000022:                                                                                                  #                                Colossus 1A
000023:
000024:                                                                                                  #        Prepared by
000025:                                                                                                  #                        Massachusetts Institute of Technology
000026:                                                                                                  #                        75 Cambridge Parkway
000027:                                                                                                  #                        Cambridge, Massachusetts
000028:                                                                                                  #        under NASA contract NAS 9-4065.
000029:
000030:                                                                                                  #  Refer directly to the online document mentioned above for further information.
000031:                                                                                                  #  Please report any errors (relative to 1701.pdf) to info@sandroid.org.
000032:
000033:                                                                                                  #  In some cases, where the source code for Luminary 131 overlaps that of
000034:                                                                                                  #  Colossus 249, this code is instead copied from the corresponding Luminary 131
000035:                                                                                                  #  source file, and then is proofed to incorporate any changes.
000036:
000037:                                                                                                  #  Page 451
000038:                                                                                                  #  GROUND TRACKING DETERMINATION PROGRAM -- P21
000039:
000040:                                                                                                  #  PROGRAM DESCRIPTION
000041:                                                                                                  #        MOD NO -- 1
000042:                                                                                                  #        MOD BY -- N. M. NEVILLE
000043:
000044:                                                                                                  #  FUNCTIONAL DESCRIPTION --
000045:                                                                                                  #        TO PROVIDE THE ASTRONAUT DETAILS OF THE LM OR CSM GROUND TRACK WITHOUT
000046:                                                                                                  #        THE NEED FOR GROUND COMMUNICATION (REQUESTED BY DSKY).
000047:
000048:                                                                                                  #  CALLING SEQUENCE --
000049:                                                                                                  #        ASTRONAUT REQUEST THROUGH DSKY V37E21E
000050:
000051:                                                                                                  #  SUBROUTINES CALLED --
000052:                                                                                                  #        GOPERF4
000053:                                                                                                  #        GOFLASH
000054:                                                                                                  #        THISPREC
000055:                                                                                                  #        OTHPREC
000056:                                                                                                  #        LAT-LONG
000057:
000058:                                                                                                  #  NORMAL EXIT MODES --
000059:                                                                                                  #        ASTRONAUT REQUEST THROUGH DSKY TO TERMINATE PROGRAM V34E
000060:
000061:                                                                                                  #  ALARM OR ABORT EXIT MODES --
000062:                                                                                                  #        NONE
000063:
000064:                                                                                                  #  OUTPUT --
000065:                                                                                                  #        OCTAL DISPLAY OF OPTION CODE AND VEHICLE WHOSE GROUND TRACK IS TO BE
000066:                                                                                                  #        COMPUTED
000067:                                                                                                  #                OPTION CODE     00002
000068:                                                                                                  #                THIS            00001
000069:                                                                                                  #                OTHER           00002
000070:                                                                                                  #        DECIMAL DISPLAY OF TIME TO BE INTEGRATED TO HOURS, MINUTES, SECONS
000071:                                                                                                  #        DECIMAL DISPLAY OF LAT,LONG,ALT
000072:
000073:                                                                                                  #  ERASABLE INITIALIZATION REQUIRED
000074:                                                                                                  #        AX0     2DEC    4.652459653 E-5 RADIANS
000075:                                                                                                  #        -AY0    2DEC    2.147535898 E-5 RADIANS
000076:                                                                                                  #        AZ0     2DEC    .7753206164     REVOLUTIONS
000077:                                                                                                  #        FOR LUNAR ORBITS 504LM VECTOR IS NEEDED:
000078:                                                                                                  #        504LM   2DEC    -2.700340600 E-5 RADIANS
000079:                                                                                                  #        504LM+2 2DEC    -7.514128400 E-4 RADIANS
000080:                                                                                                  #        504LM+4 2DEC     2.553198641 E-4 RADIANS
000081:                                                                                                  #        NONE
000082:
000083:                                                                                                  #  DEBRIS
000084:                                                                                                  #  Page 452
000085:                                                                                                  #        CENTRALS -- A,Q,L
000086:                                                                                                  #        OTHER -- THOSE USED BY THE ABOVE LISTED SUBROUTINES
000087:                                                                                                  #        SEE LEMPREC, LAT-LONG
000088:
000089: 33,3772  30,2000                                  SBANK=   LOWSUPER                              #  FOR LOW 2CADR'S.
000090:
000091: 33,3772                                           BANK     33
000092: 37,2000                                           SETLOC   P20S
000093: 37,2000                                           BANK
000094:
000095: 37,2001  E4,1715                                  EBANK=   P21TIME
000096: 37,2001                                           COUNT    24/P21
000097:
000098: 37,2001           34712        PROG21             CAF      ONE
000099: 37,2002           55132                           TS       OPTION2                               #  ASSUMED VEHICLE IS LM, R2 = 00001
000100: 37,2003           34711                           CAF      BIT2                                  #  OPTION 2
000101: 37,2004           04555                           TC       BANKCALL
000102: 37,2005           20761                           CADR     GOPERF4
000103: 37,2006           04106                           TC       GOTOP00H                              #  TERMINATE
000104: 37,2007           02011                           TC       +2                                    #  PROCEED VALUE OF ASSUMED VEHICLE OK
000105: 37,2010           02003                           TC       -5                                    #  R2 LOADED THROUGH DSKY
000106: 37,2011           32102        P21PROG1           CAF      V6N34                                 #  LOAD DESIRED TIME OF LAT-LONG.
000107: 37,2012           04555                           TC       BANKCALL
000108: 37,2013           20624                           CADR     GOFLASH
000109: 37,2014           04106                           TC       GOTOP00H                              #  TERM
000110: 37,2015           02017                           TC       +2                                    #  PROCEED VALUES OK
000111: 37,2016           02011                           TC       -5                                    #  TIME LOADED THROUGH DSKY
000112: 37,2017           06006                           TC       INTPRET
000113: 37,2020           77745                           DLOAD
000114: 37,2021           01046                                    DSPTEM1
000115: 37,2022           02316                           STORE    P21TIME
000116: 37,2023           45335                           SLOAD    DSU
000117: 37,2024           01133                                    OPTION2
000118: 37,2025           36100                                    P21ONENN
000119: 37,2026           71230                           BHIZ     DLOAD
000120: 37,2027           76042                                    P21PROG2                              #  VEHICLE TO BE INTEGRATED IS LEM
000121: 37,2030           02316                                    P21TIME                               #  VEHICLE TO BE INTEGRATED IS CSM
000122: 37,2031           34041                           STCALL   TDEC1                                 #  INTEGRATE TO TIME SPECIFIED IN TDEC1
000123: 37,2032           27036                                    OTHPREC                               #  ADJUST UNITS FOR LAT-LONG ROUTINE
000124: 37,2033           46135        P21PROGA           SLOAD    BHIZ
000125: 37,2034           00050                                    X2
000126: 37,2035           76050                                    P21PROG3
000127: 37,2036           43175                           VLOAD    SETGO
000128: 37,2037           00001                                    RATT
000129: 37,2040           01423                                    LUNAFLAG
000130: 37,2041           76053                                    P21PROG4
000131: 37,2042           77745        P21PROG2           DLOAD
000132: 37,2043           02316                                    P21TIME
000133: 37,2044           34041                           STCALL   TDEC1
000134: 37,2045           27022                                    THISPREC
000135:                                                                                                  #  Page 453
000136: 37,2046           77650                           GOTO
000137: 37,2047           76033                                    P21PROGA
000138: 37,2050           43175        P21PROG3           VLOAD    CLEAR
000139: 37,2051           00001                                    RATT
000140: 37,2052           01663                                    LUNAFLAG
000141: 37,2053           16152        P21PROG4           STODL    ALPHAV
000142: 37,2054           00015                                    TAT
000143: 37,2055           45014                           CLEAR    CALL
000144: 37,2056           00662                                    ERADFLAG
000145: 37,2057           26322                                    LAT-LONG
000146: 37,2060           77776                           EXIT
000147: 37,2061           32101                           CAF      V06N43                                #  DISPLAY LAT,LONG,ALT
000148: 37,2062           04555                           TC       BANKCALL                              #  LAT,LONG = 1/2 REVS B0
000149: 37,2063           20624                           CADR     GOFLASH                               #  ALT = KM B14
000150: 37,2064           04106                           TC       GOTOP00H                              #  TERM
000151: 37,2065           04106                           TC       GOTOP00H
000152: 37,2066           06006                           TC       INTPRET                               #  V32E RECYCLE
000153: 37,2067           43345                           DLOAD    DAD
000154: 37,2070           02316                                    P21TIME
000155: 37,2071           36076                                    600SEC                                #  600 SECONDS OR 10 MIN
000156: 37,2072           01046                           STORE    DSPTEM1
000157: 37,2073           77634                           RTB
000158: 37,2074           76011                                    P21PROG1
000159:
000160: 37,2075           00003 25140  600SEC             2DEC     60000      B-28                       #  10 MIN
000161: 37,2077           00001        P21ONENN           OCT      00001                                 #  NEEDED TO DETERMINE VEHICLE
000162: 37,2100           00000                           OCT      00000                                 #  TO BE INTEGRATED
000163:
000164: 37,2101           01453        V06N43             VN       00643
000165: 37,2102           01442        V6N34              VN       00634
000166:

End of include-file GROUND_TRACKING_DETERMINATION_PROGRAM.agc.  Parent file is MAIN.agc


