
Source Code


000002:                                                                                                  ## Copyright:   Public domain.
000003:                                                                                                  ## Filename:    GROUND_TRACKING_DETERMINATION_PROGRAM.agc
000004:                                                                                                  ## Purpose:     Part of the source code for Colossus, build 249.
000005:                                                                                                  ##              It is part of the source code for the Command Module's (CM)
000006:                                                                                                  ##              Apollo Guidance Computer (AGC), for Apollo 9.
000007:                                                                                                  ## Assembler:   yaYUL
000008:                                                                                                  ## Reference:   pp. 449-451.
000009:                                                                                                  ## Contact:     Ron Burkey <info@sandroid.org>.
000010:                                                                                                  ## Website:     www.ibiblio.org/apollo.
000011:                                                                                                  ## Mod history: 08/11/04 RSB.   Began transcribing.
000012:                                                                                                  ##              2017-01-06 RSB  Page numbers now agree with those on the
000013:                                                                                                  ##                              original harcopy, as opposed to the PDF page
000014:                                                                                                  ##                              numbers in 1701.pdf.
000015:                                                                                                  ##              2017-01-14 RSB  Cross-diff'd comment text (not whitespace)
000016:                                                                                                  ##                              vs the already-proofed corresponding Colossus
000017:                                                                                                  ##                              237 and Comanche 55 source-code files
000018:                                                                                                  ##                              and corrected errors found.
000019:                                                                                                  ##
000020:                                                                                                  ## The contents of the "Colossus249" files, in general, are transcribed
000021:                                                                                                  ## from a scanned copy of the program listing.  Notations on this
000022:                                                                                                  ## document read, in part:
000023:                                                                                                  ##
000024:                                                                                                  ##      Assemble revision 249 of AGC program Colossus by NASA
000025:                                                                                                  ##      2021111-041.  October 28, 1968.
000026:                                                                                                  ##
000027:                                                                                                  ##      This AGC program shall also be referred to as
000028:                                                                                                  ##                              Colossus 1A
000029:                                                                                                  ##
000030:                                                                                                  ##      Prepared by
000031:                                                                                                  ##                      Massachusetts Institute of Technology
000032:                                                                                                  ##                      75 Cambridge Parkway
000033:                                                                                                  ##                      Cambridge, Massachusetts
000034:                                                                                                  ##      under NASA contract NAS 9-4065.
000035:                                                                                                  ##
000036:                                                                                                  ## Refer directly to the online document mentioned above for further information.
000037:                                                                                                  ## Please report any errors (relative to the scanned pages) to info@sandroid.org.
000038:                                                                                                  ##
000039:                                                                                                  ## In some cases, where the source code for Luminary 131 overlaps that of
000040:                                                                                                  ## Colossus 249, this code is instead copied from the corresponding Luminary 131
000041:                                                                                                  ## source file, and then is proofed to incorporate any changes.
000042:


000044:                                                                                                  #  GROUND TRACKING DETERMINATION PROGRAM    P21
000045:
000046:                                                                                                  #  PROGRAM DESCRIPTION
000047:                                                                                                  #        MOD NO - 1
000048:                                                                                                  #        MOD BY - N. M. NEVILLE
000049:
000050:                                                                                                  #  FUNCTIONAL DECRIPTION-
000051:                                                                                                  #        TO PROVIDE THE ASTRONAUT DETAILS OF THE LM OR CSM GROUND TRACK WITHOUT
000052:                                                                                                  #        THE NEED FOR GROUND COMMUNICATION (REQUESTED BY DSKY).
000053:
000054:                                                                                                  #  CALLING SEQUENCE-
000055:                                                                                                  #        ASTRONAUT REQUEST THROUGH DSKY V37E21E
000056:
000057:                                                                                                  #  SUBROUTINES CALLED-
000058:                                                                                                  #        GOPERF4
000059:                                                                                                  #        GOFLASH
000060:                                                                                                  #        THISPREC
000061:                                                                                                  #        OTHPREC
000062:                                                                                                  #        LAT-LONG
000063:
000064:                                                                                                  #  NORMAL EXIT MODES-
000065:                                                                                                  #        ASTRONAUT REQUEST TROUGH DSKY TO TERMINATE PROGRAM V34E
000066:
000067:                                                                                                  #  ALARM OR ABORT EXIT MODES-
000068:                                                                                                  #        NONE
000069:
000070:                                                                                                  #  OUTPUT-
000071:                                                                                                  #        OCTAL DISPLAY OF OPTION CODE AND VEHICLE WHOSE GROUND TRACK IS TO BE
000072:                                                                                                  #        COMPUTED
000073:                                                                                                  #                OPTION CODE     00002
000074:                                                                                                  #                THIS            00001
000075:                                                                                                  #                OTHER           00002
000076:                                                                                                  #        DECIMAL DISPLAY OF TIME TO BE INTEGRATED TO HOURS, MINUTES, SECONDS
000077:                                                                                                  #        DECIMAL DISPLAY OF LAT,LONG,ALT
000078:
000079:                                                                                                  #  ERASABLE INITIALIZATION REQUIRED
000080:                                                                                                  #        AX0             2DEC    4.652459653 E-5 RADIANS         %68-69 CONSTANTS"
000081:                                                                                                  #        -AY0            2DEC    2.147535898 E-5 RADIANS
000082:                                                                                                  #        AZ0             2DEC    .7753206164     REVOLUTIONS
000083:                                                                                                  #        FOR LUNAR ORBITS 504LM VECTOR IS NEEDED
000084:                                                                                                  #        504LM           2DEC    -2.700340600 E-5 RADIANS
000085:                                                                                                  #        504LM _2        2DEC    -7.514128400 E-4 RADIANS
000086:                                                                                                  #        504LM _4        2DEC    _2.553198641 E-4 RADIANS
000087:                                                                                                  #        NONE
000088:
000089:                                                                                                  #  DEBRIS


000091:                                                                                                  #        CENTRALS-A,Q,L
000092:                                                                                                  #        OTHER-THOSE USED BY THE ABOVE LISTED SUBROUTINES
000093:                                                                                                  #        SEE LEMPREC, LAT-LONG
000094:
000095: 33,3772  30,2000                                  SBANK=   LOWSUPER                              #  FOR LOW 2CADR'S.
000096:
000097: 33,3772                                           BANK     33
000098: 37,2000                                           SETLOC   P20S
000099: 37,2000                                           BANK
000100:
000101: 37,2001  E4,1715                                  EBANK=   P21TIME
000102: 37,2001                                           COUNT    24/P21
000103:
000104: 37,2001           34712        PROG21             CAF      ONE
000105: 37,2002           55132                           TS       OPTION2                               #  ASSUMED VEHICLE IS LM, R2 = 00001
000106: 37,2003           34711                           CAF      BIT2                                  #  OPTION 2
000107: 37,2004           04555                           TC       BANKCALL
000108: 37,2005           20761                           CADR     GOPERF4
000109: 37,2006           04106                           TC       GOTOPOOH                              #  TERMINATE
000110: 37,2007           02011                           TC       +2                                    #  PROCEED VALUE OF ASSUMED VEHICLE OK
000111: 37,2010           02003                           TC       -5                                    #  R2 LOADED THROUGH DSKY
000112: 37,2011           32102        P21PROG1           CAF      V6N34                                 #  LOAD DESIRED TIME OF LAT-LONG.
000113: 37,2012           04555                           TC       BANKCALL
000114: 37,2013           20624                           CADR     GOFLASH
000115: 37,2014           04106                           TC       GOTOPOOH                              #  TERM
000116: 37,2015           02017                           TC       +2                                    #  PROCEED VALUES OK
000117: 37,2016           02011                           TC       -5                                    #  TIME LOADED THROUGH DSKY
000118: 37,2017           06006                           TC       INTPRET
000119: 37,2020           77745                           DLOAD
000120: 37,2021           01046                                    DSPTEM1
000121: 37,2022           02316                           STORE    P21TIME
000122: 37,2023           45335                           SLOAD    DSU
000123: 37,2024           01133                                    OPTION2
000124: 37,2025           36100                                    P21ONENN
000125: 37,2026           71230                           BHIZ     DLOAD
000126: 37,2027           76042                                    P21PROG2                              #  VEHICLE TO BE INTEGRATED IS LEM
000127: 37,2030           02316                                    P21TIME                               #  VEHICLE TO BE INTEGRATED IS CSM
000128: 37,2031           34041                           STCALL   TDEC1                                 #  INTEGRATE TO TIME SPECIFIED IN TDEC
000129: 37,2032           27036                                    OTHPREC                               #  ADJUST UNITS FOR LAT-LONG ROUTINE
000130: 37,2033           46135        P21PROGA           SLOAD    BHIZ
000131: 37,2034           00050                                    X2
000132: 37,2035           76050                                    P21PROG3
000133: 37,2036           43175                           VLOAD    SETGO
000134: 37,2037           00001                                    RATT
000135: 37,2040           01423                                    LUNAFLAG
000136: 37,2041           76053                                    P21PROG4
000137: 37,2042           77745        P21PROG2           DLOAD
000138: 37,2043           02316                                    P21TIME
000139: 37,2044           34041                           STCALL   TDEC1
000140: 37,2045           27022                                    THISPREC


000142: 37,2046           77650                           GOTO
000143: 37,2047           76033                                    P21PROGA
000144: 37,2050           43175        P21PROG3           VLOAD    CLEAR
000145: 37,2051           00001                                    RATT
000146: 37,2052           01663                                    LUNAFLAG
000147: 37,2053           16152        P21PROG4           STODL    ALPHAV
000148: 37,2054           00015                                    TAT
000149: 37,2055           45014                           CLEAR    CALL
000150: 37,2056           00662                                    ERADFLAG
000151: 37,2057           26322                                    LAT-LONG
000152: 37,2060           77776                           EXIT
000153: 37,2061           32101                           CAF      V06N43                                #  DISPLAY LAT,LONG,ALT
000154: 37,2062           04555                           TC       BANKCALL                              #  LAT,LONG = 1/2 REVS B0
000155: 37,2063           20624                           CADR     GOFLASH                               #  ALT = KM B14
000156: 37,2064           04106                           TC       GOTOPOOH                              #  TERM
000157: 37,2065           04106                           TC       GOTOPOOH
000158: 37,2066           06006                           TC       INTPRET                               #  V32E RECYCLE
000159: 37,2067           43345                           DLOAD    DAD
000160: 37,2070           02316                                    P21TIME
000161: 37,2071           36076                                    600SEC                                #  600 SECONDS OR 10 MIN
000162: 37,2072           01046                           STORE    DSPTEM1
000163: 37,2073           77634                           RTB
000164: 37,2074           76011                                    P21PROG1
000165:
000166: 37,2075           00003 25140  600SEC             2DEC     60000      B-28                       #  10 MIN
000167: 37,2077           00001        P21ONENN           OCT      00001                                 #  NEEDED TO DETERMINE VEHICLE
000168: 37,2100           00000                           OCT      00000                                 #  TO BE INTEGRATED
000169:
000170: 37,2101           01453        V06N43             VN       00643
000171: 37,2102           01442        V6N34              VN       00634
000172:

End of include-file GROUND_TRACKING_DETERMINATION_PROGRAM_-_P21.agc.  Parent file is MAIN.agc


