
Source Code


000002:                                                                                                  ## Copyright:   Public domain.
000003:                                                                                                  ## Filename:    IMU_MODE_SWITCHING_ROUTINES.agc
000004:                                                                                                  ## Purpose:     Part of the source code for Colossus, build 249.
000005:                                                                                                  ##              It is part of the source code for the Command Module's (CM)
000006:                                                                                                  ##              Apollo Guidance Computer (AGC), for Apollo 9.
000007:                                                                                                  ## Assembler:   yaYUL
000008:                                                                                                  ## Reference:   Starts on p. 1388
000009:                                                                                                  ## Contact:     Ron Burkey <info@sandroid.org>.
000010:                                                                                                  ## Website:     www.ibiblio.org/apollo.
000011:                                                                                                  ## Mod history: 08/30/04   RSB  Adapted from corresponding Luminary131 file.
000012:                                                                                                  ##              2010-10-24 JL   Indentation fixes.
000013:                                                                                                  ##              2010-10-24 JL   Fixed page number.
000014:                                                                                                  ##              2011-05-07 JL   Removed workaround.
000015:                                                                                                  ##              2017-01-06 RSB  Page numbers now agree with those on the
000016:                                                                                                  ##                              original hardcopy, as opposed to the PDF page
000017:                                                                                                  ##                              numbers in 1701.pdf.
000018:                                                                                                  ##              2017-01-14 RSB  Cross-diff'd comment text (not whitespace)
000019:                                                                                                  ##                              vs the already-proofed corresponding Colossus
000020:                                                                                                  ##                              237 and Comanche 55 source-code files
000021:                                                                                                  ##                              and corrected errors found.
000022:                                                                                                  ##
000023:                                                                                                  ## The contents of the "Colossus249" files, in general, are transcribed
000024:                                                                                                  ## from a scanned copy of the program listing.  Notations on this
000025:                                                                                                  ## document read, in part:
000026:                                                                                                  ##
000027:                                                                                                  ##      Assemble revision 249 of AGC program Colossus by NASA
000028:                                                                                                  ##      2021111-041.  October 28, 1968.
000029:                                                                                                  ##
000030:                                                                                                  ##      This AGC program shall also be referred to as
000031:                                                                                                  ##                              Colossus 1A
000032:                                                                                                  ##
000033:                                                                                                  ##      Prepared by
000034:                                                                                                  ##                      Massachusetts Institute of Technology
000035:                                                                                                  ##                      75 Cambridge Parkway
000036:                                                                                                  ##                      Cambridge, Massachusetts
000037:                                                                                                  ##      under NASA contract NAS 9-4065.
000038:                                                                                                  ##
000039:                                                                                                  ## Refer directly to the online document mentioned above for further information.
000040:                                                                                                  ## Please report any errors (relative to the scanned pages) to info@sandroid.org.
000041:                                                                                                  ##
000042:                                                                                                  ## In some cases, where the source code for Luminary 131 overlaps that of
000043:                                                                                                  ## Colossus 249, this code is instead copied from the corresponding Luminary 131
000044:                                                                                                  ## source file, and then is proofed to incorporate any changes.
000045:


000047:    5410                                           BLOCK    02
000048:    4000                                           SETLOC   FFTAG3
000049:    4000                                           BANK
000050:
000051:    5410  E3,1471                                  EBANK=   COMMAND
000052:
000053:                                                                                                  #  FIXED-FIXED ROUTINES.
000054:
000055:    5410                                           COUNT    02/IMODE
000056:
000057:    5410           34714        ZEROICDU           CAF      ZERO                                  #  ZERO ICDU COUNTERS.
000058:    5411           54032                           TS       CDUX
000059:    5412           54033                           TS       CDUY
000060:    5413           54034                           TS       CDUZ
000061:    5414           00002                           TC       Q
000062:
000063:    5415     4702               SPSCODE            =        BIT9
000064:


000066:                                                                                                  #  IMU ZEROING ROUTINE.
000067:
000068: 11,3721                                           BANK     11
000069: 07,2000                                           SETLOC   MODESW
000070: 07,2000                                           BANK
000071:
000072: 07,2516                                           COUNT    07/IMODE
000073:
000074: 07,2516           00004        IMUZERO            INHINT                                         #  ROUTINE TO ZERO ICDUS.
000075: 07,2517           41036                           CS       DSPTAB     +11D                       #  DONT ZERO CDUS IF IMU IN GIMBAL LOCK AND
000076: 07,2520           74726                           MASK     BITS4&6                               #  COARSE ALIGN (GIMBAL RUNAWAY PROTECTION)
000077: 07,2521           10000                           CCS      A
000078: 07,2522           12526                           TCF      IMUZEROA
000079:
000080: 07,2523           05537                           TC       ALARM                                 #  IF SO.
000081: 07,2524           00206                           OCT      00206
000082:
000083: 07,2525           13461                           TCF      CAGETSTJ   +4                         #  IMMEDIATE FAILURE.
000084:
000085: 07,2526           03455        IMUZEROA           TC       CAGETSTJ
000086:
000087:                                                                                                  #  DO ALL THE WORK.
000088:
000089: 07,2527           41321                           CS       IMODES33                              #  DISABLE DAP AUTO AND HOLD MODES
000090: 07,2530           74730                           MASK     SUPER011                              #        BIT5 FOR GROUND
000091: 07,2531           27321                           ADS      IMODES33
000092:
000093: 07,2532           41320                           CS       IMODES30                              #  INHIBIT ICDUFAIL AND IMUFAIL (IN CASE WE
000094: 07,2533           75656                           MASK     BITS3&4                               #  JUST CAME OUT OF COARSE ALIGN).
000095: 07,2534           27320                           ADS      IMODES30
000096:
000097: 07,2535           44726                           CS       BITS4&6                               #  SEND ZERO ENCODE WITH COARSE AND ERROR
000098: 07,2536           00006                           EXTEND                                         #  COUNTER DISABLED.
000099: 07,2537           03012                           WAND     CHAN12
000100:
000101: 07,2540           03070                           TC       NOATTOFF                              #  TURN OFF NO ATT LAMP.
000102:
000103: 07,2541           34706                           CAF      BIT5
000104: 07,2542           00006                           EXTEND
000105: 07,2543           05012                           WOR      CHAN12
000106:
000107: 07,2544           05410                           TC       ZEROICDU
000108: 07,2545           34705                           CAF      BIT6                                  #  WAIT 320 MS TO GIVE AGS ADEQUATE TIME TO
000109: 07,2546           05140                           TC       WAITLIST                              #  RECEIVE ITS PULSE TRAIN.
000110: 07,2547  E3,1474                                  EBANK=   CDUIND
000111: 07,2547           02561 16103                     2CADR    IMUZERO2
000112:
000113: 07,2551           41320                           CS       IMODES30                              #  SEE IF IMU OPERATING AND ALARM IF NOT.
000114: 07,2552           74702                           MASK     BIT9
000115: 07,2553           10000                           CCS      A
000116: 07,2554           12557                           TCF      MODEEXIT


000118: 07,2555           05537                           TC       ALARM
000119: 07,2556           00210                           OCT      210
000120:
000121: 07,2557           00003        MODEEXIT           RELINT                                         #  GENERAL MODE-SWITCHING EXIT.
000122: 07,2560           14570                           TCF      SWRETURN
000123:
000124: 07,2561           03443        IMUZERO2           TC       CAGETEST
000125: 07,2562           05410                           TC       ZEROICDU                              #  ZERO CDUX, CDUY, CDUZ
000126:
000127: 07,2563           44706                           CS       BIT5                                  #  REMOVE ZERO DISCRETE.
000128: 07,2564           00006                           EXTEND
000129: 07,2565           03012                           WAND     CHAN12
000130:
000131: 07,2566           34700                           CAF      BIT11                                 #  WAIT 10 SECS FOR CTRS TO FIND GIMBALS
000132: 07,2567           05161                           TC       VARDELAY
000133:
000134: 07,2570           03443        IMUZERO3           TC       CAGETEST
000135: 07,2571           45656                           CS       BITS3&4                               #  REMOVE IMUFAIL AND ICDUFAIL INHIBIT.
000136: 07,2572           71320                           MASK     IMODES30
000137: 07,2573           55320                           TS       IMODES30
000138:
000139: 07,2574           44730                           CS       SUPER011                              #  ENABLE DAP AUTO AND HOLD MODES
000140: 07,2575           71321                           MASK     IMODES33                              #        BIT5 FOR GROUND
000141: 07,2576           55321                           TS       IMODES33
000142:
000143: 07,2577           04633                           TC       IBNKCALL                              #  SET ISS WARNING IF EITHER OF ABOVE ARE
000144: 07,2600           14665                           CADR     SETISSW                               #  PRESENT.
000145:
000146: 07,2601           13433                           TCF      ENDIMU
000147:


000149:                                                                                                  #  IMU COARSE ALIGN MODE.
000150:
000151: 07,2602           00004        IMUCOARS           INHINT
000152: 07,2603           03455                           TC       CAGETSTJ
000153: 07,2604           02746                           TC       SETCOARS
000154:
000155: 07,2605           36211                           CAF      SIX
000156: 07,2606           05140                           TC       WAITLIST
000157: 07,2607  E3,1474                                  EBANK=   CDUIND
000158: 07,2607           02612 16103                     2CADR    COARS
000159:
000160: 07,2611           12557                           TCF      MODEEXIT
000161:
000162: 07,2612           03443        COARS              TC       CAGETEST
000163: 07,2613           34705                           CAF      BIT6                                  #  ENABLE ALL THREE ISS CDU ERROR COUNTERS
000164: 07,2614           00006                           EXTEND
000165: 07,2615           05012                           WOR      CHAN12
000166:
000167: 07,2616           34711                           CAF      TWO                                   #  SET CDU INDICATOR
000168: 07,2617           55474        COARS1             TS       CDUIND
000169:
000170: 07,2620           51474                           INDEX    CDUIND                                #  COMPUTE THETAD - THETAA IN 1:S
000171: 07,2621           31155                           CA       THETAD                                #        COMPLEMENT FORM
000172: 07,2622           00006                           EXTEND
000173: 07,2623           51474                           INDEX    CDUIND
000174: 07,2624           20032                           MSU      CDUX
000175: 07,2625           00006                           EXTEND
000176: 07,2626           74676                           MP       BIT13                                 #  SHIFT RIGHT 2
000177: 07,2627           56001                           XCH      L                                     #  ROUND
000178: 07,2630           60000                           DOUBLE
000179: 07,2631           54061                           TS       ITEMP1
000180: 07,2632           12634                           TCF      +2
000181: 07,2633           26001                           ADS      L
000182:
000183: 07,2634           51474                           INDEX    CDUIND                                #  DIFFERENCE TO BE COMPUTED
000184: 07,2635           23471                           LXCH     COMMAND
000185: 07,2636           11474                           CCS      CDUIND
000186: 07,2637           02617                           TC       COARS1
000187:
000188: 07,2640           34711                           CAF      TWO                                   #  MINIMUM OF 4 MS WAIT
000189: 07,2641           05161                           TC       VARDELAY
000190:


000192: 07,2642           03443        COARS2             TC       CAGETEST                              #  DONT CONTINUE IF CAGED.
000193: 07,2643           54061                           TS       ITEMP1                                #  SETS TO +0.
000194: 07,2644           34711                           CAF      TWO                                   #  SET CDU INDICATOR
000195: 07,2645           55474                 +3        TS       CDUIND
000196:
000197: 07,2646           51474                           INDEX    CDUIND
000198: 07,2647           11471                           CCS      COMMAND                               #  NUMBER OF PULSES REQUIRED
000199: 07,2650           02654                           TC       COMPOS                                #  GREATER THAN MAX ALLOWED
000200: 07,2651           02663                           TC       NEXTCDU    +1
000201: 07,2652           02721                           TC       COMNEG
000202: 07,2653           02663                           TC       NEXTCDU    +1
000203:
000204: 07,2654           63544        COMPOS             AD       -COMMAX                               #  COMMAX = MAX NUMBER OF PULSES ALLOWED
000205: 07,2655           00006                           EXTEND                                         #        MINUS ONE
000206: 07,2656           62731                           BZMF     COMZERO
000207: 07,2657           51474                           INDEX    CDUIND
000208: 07,2660           55471                           TS       COMMAND                               #  REDUCE COMMAND BY MAX NUMBER OF PULSES
000209: 07,2661           43545                           CS       -COMMAX-                              #        ALLOWED
000210:
000211: 07,2662           24061        NEXTCDU            INCR     ITEMP1
000212: 07,2663           64713                           AD       NEG0
000213: 07,2664           51474                           INDEX    CDUIND
000214: 07,2665           54050                           TS       CDUXCMD                               #  SET UP COMMAND REGISTER.
000215:
000216: 07,2666           11474                           CCS      CDUIND
000217: 07,2667           02645                           TC       COARS2     +3
000218:
000219: 07,2670           10061                           CCS      ITEMP1                                #  SEE IF ANY PULSES TO GO OUT.
000220: 07,2671           12735                           TCF      SENDPULS
000221:
000222: 07,2672           05156                           TC       FIXDELAY                              #  WAIT FOR GIMBALS TO SETTLE.
000223: 07,2673           00226                           DEC      150        B-14
000224:
000225: 07,2674           34711                           CAF      TWO                                   #  AT END OF COMMAND, CHECK TO SEE THAT
000226: 07,2675           54061        CHKCORS            TS       ITEMP1                                #  GIMBALS ARE WITHIN 2 DEGREES OF THETAD.
000227: 07,2676           50000                           INDEX    A
000228: 07,2677           30032                           CA       CDUX
000229: 07,2700           00006                           EXTEND
000230: 07,2701           50061                           INDEX    ITEMP1
000231: 07,2702           21155                           MSU      THETAD
000232: 07,2703           10000                           CCS      A
000233: 07,2704           12712                           TCF      COARSERR
000234: 07,2705           12707                           TCF      CORSCHK2
000235: 07,2706           12712                           TCF      COARSERR
000236:


000238: 07,2707           10061        CORSCHK2           CCS      ITEMP1
000239: 07,2710           12675                           TCF      CHKCORS
000240: 07,2711           13433                           TCF      ENDIMU                                #  END OF COARSE ALIGNMENT.
000241:
000242: 07,2712           62720        COARSERR           AD       COARSTOL                              #  2 DEGREES.
000243: 07,2713           00006                           EXTEND
000244: 07,2714           62707                           BZMF     CORSCHK2
000245:
000246: 07,2715           05537                           TC       ALARM                                 #  COARSE ALIGN ERROR.
000247: 07,2716           00211                           OCT      211
000248:
000249: 07,2717           13441                           TCF      IMUBAD
000250:
000251: 07,2720           77511        COARSTOL           DEC      -.01111                               #  2 DEGREES SCALED AT HALF-REVOLUTIONS
000252:
000253: 07,2721           63544        COMNEG             AD       -COMMAX
000254: 07,2722           00006                           EXTEND
000255: 07,2723           62731                           BZMF     COMZERO
000256: 07,2724           40000                           COM
000257: 07,2725           51474                           INDEX    CDUIND
000258: 07,2726           55471                           TS       COMMAND
000259: 07,2727           33545                           CA       -COMMAX-
000260: 07,2730           02662                           TC       NEXTCDU
000261:
000262: 07,2731           34714        COMZERO            CAF      ZERO
000263: 07,2732           51474                           INDEX    CDUIND
000264: 07,2733           57471                           XCH      COMMAND
000265: 07,2734           02662                           TC       NEXTCDU
000266:
000267: 07,2735           37707        SENDPULS           CAF      13,14,15
000268: 07,2736           00006                           EXTEND
000269: 07,2737           05014                           WOR      CHAN14
000270: 07,2740           33546                           CAF      600MS
000271: 07,2741           12641                           TCF      COARS2     -1                         #  THEN TO VARDELAY
000272:
000273: 07,2742           34705        CA+ECE             CAF      BIT6                                  #  ENABLE ALL THREE ISS CDU ERROR COUNTERS
000274: 07,2743           00006                           EXTEND
000275: 07,2744           05012                           WOR      CHAN12
000276: 07,2745           05213                           TC       TASKOVER
000277:


000279: 07,2746           34707        SETCOARS           CAF      BIT4                                  #  BYPASS IF ALREADY IN COARSE ALIGN
000280: 07,2747           00006                           EXTEND
000281: 07,2750           02012                           RAND     CHAN12
000282: 07,2751           10000                           CCS      A
000283: 07,2752           00002                           TC       Q
000284:
000285: 07,2753           44705                           CS       BIT6                                  #  CLEAR ISS ERROR COUNTERS
000286: 07,2754           00006                           EXTEND
000287: 07,2755           03012                           WAND     CHAN12
000288:
000289: 07,2756           44701                           CS       BIT10                                 #  KNOCK DOWN GYRO ACTIVITY
000290: 07,2757           00006                           EXTEND
000291: 07,2760           03014                           WAND     CHAN14
000292: 07,2761           44714                           CS       ZERO
000293: 07,2762           54047                           TS       GYROCMD
000294:
000295: 07,2763           34707                           CAF      BIT4                                  #  PUT ISS IN COARSE ALIGN
000296: 07,2764           00006                           EXTEND
000297: 07,2765           05012                           WOR      CHAN12
000298:
000299: 07,2766           41036                           CS       DSPTAB     +11D                       #  TURN ON NO ATT LAMP
000300: 07,2767           73011                           MASK     OCT40010
000301: 07,2770           27036                           ADS      DSPTAB     +11D
000302:
000303: 07,2771           41321                           CS       IMODES33                              #  DISABLE DAP AUTO AND HOLD MODES
000304: 07,2772           74705                           MASK     BIT6
000305: 07,2773           27321                           ADS      IMODES33
000306:
000307: 07,2774           41320                           CS       IMODES30                              #  DISABLE IMUFAIL
000308: 07,2775           74707                           MASK     BIT4
000309: 07,2776           27320                           ADS      IMODES30
000310:
000311: 07,2777           44706        RNDREFDR           CS       BIT5                                  #  KNOCK DOWN TRACK FLAG
000312: 07,3000           70075                           MASK     FLAGWRD1
000313: 07,3001           54075                           TS       FLAGWRD1
000314:
000315: 07,3002           44674                           CS       BIT15                                 #  KNOCK DOWN DRIFT FLAG
000316: 07,3003           70076                           MASK     FLAGWRD2
000317: 07,3004           54076                           TS       FLAGWRD2
000318:
000319: 07,3005           44676                           CS       BIT13                                 #  KNOCK DOWN REFSMMAT FLAG
000320: 07,3006           70077                           MASK     FLAGWRD3
000321: 07,3007           54077                           TS       FLAGWRD3
000322:
000323: 07,3010           00002                           TC       Q
000324:
000325: 07,3011           40010        OCT40010           OCT      40010
000326:


000328:                                                                                                  #  IMU FINE ALIGN MODE SWITCH.
000329:
000330: 07,3012           00004        IMUFINE            INHINT
000331: 07,3013           03455                           TC       CAGETSTJ                              #  SEE IF IMU BEING CAGED.
000332:
000333: 07,3014           43543                           CS       BITS4-5                               #  RESET ZERO AND COARSE
000334: 07,3015           00006                           EXTEND
000335: 07,3016           03012                           WAND     CHAN12
000336:
000337: 07,3017           44705                           CS       BIT6                                  #  INSURE DAP AUTO AND HOLD MODES ENABLED
000338: 07,3020           71321                           MASK     IMODES33
000339: 07,3021           55321                           TS       IMODES33
000340:
000341: 07,3022           03070                           TC       NOATTOFF
000342:
000343: 07,3023           34701                           CAF      BIT10                                 #  IMU FAIL WAS INHIBITED DURING THE
000344: 07,3024           05140                           TC       WAITLIST                              #  PRESUMABLY PRECEDING COARSE ALIGN.  LEAVE
000345: 07,3025  E3,1474                                  EBANK=   CDUIND
000346: 07,3025           03036 16103                     2CADR    IFAILOK                               #  IT ON FOR THE FIRST 5 SECS OF FINE ALIGN
000347:
000348: 07,3027           34735                           CAF      2SECS
000349: 07,3030           05140                           TC       WAITLIST
000350: 07,3031  E3,1474                                  EBANK=   CDUIND
000351: 07,3031           03034 16103                     2CADR    IMUFINED
000352:
000353: 07,3033           12557                           TCF      MODEEXIT
000354:
000355: 07,3034           03443        IMUFINED           TC       CAGETEST                              #  SEE THAT NO ONE HAS CAGED THE IMU.
000356: 07,3035           13433                           TCF      ENDIMU
000357:


000359: 07,3036           03450        IFAILOK            TC       CAGETSTQ                              #  ENABLE IMU FIAL UNLESS IMU BEING CAGED.
000360: 07,3037           15213                           TCF      TASKOVER                              #  IT IS.
000361:
000362: 07,3040           34707                           CAF      BIT4                                  #  DONT RESET IMU FAIL INHIBIT IF SOMEONE
000363: 07,3041           00006                           EXTEND                                         #  HAS GONE INTO COARSE ALIGN.
000364: 07,3042           02012                           RAND     CHAN12
000365: 07,3043           10000                           CCS      A
000366: 07,3044           15213                           TCF      TASKOVER
000367:
000368: 07,3045           41320                           CS       IMODES30                              #  RESET IMUFAIL.
000369: 07,3046           74676                           MASK     BIT13
000370: 07,3047           27320                           ADS      IMODES30
000371: 07,3050           44707                           CS       BIT4
000372: 07,3051           71320        PFAILOK2           MASK     IMODES30
000373: 07,3052           55320                           TS       IMODES30
000374: 07,3053           04633                           TC       IBNKCALL                              #  THE ISS WARNING LIGHT MAY COME ON NOW
000375: 07,3054           14665                           CADR     SETISSW                               #  THAT THE INHIBIT HAS BEEN REMOVED.
000376: 07,3055           15213                           TCF      TASKOVER
000377:
000378: 07,3056           03450        PFAILOK            TC       CAGETSTQ                              #  ENABLE PIP FAIL PROG ALARM.
000379: 07,3057           15213                           TCF      TASKOVER
000380:
000381: 07,3060           41320                           CS       IMODES30                              #  RESET IMU AND PIPA FAIL BITS.
000382: 07,3061           74701                           MASK     BIT10
000383: 07,3062           27320                           ADS      IMODES30
000384:
000385: 07,3063           41321                           CS       IMODES33
000386: 07,3064           74676                           MASK     BIT13
000387: 07,3065           27321                           ADS      IMODES33
000388:
000389: 07,3066           44706                           CS       BIT5
000390: 07,3067           13051                           TCF      PFAILOK2
000391:
000392: 07,3070           43011        NOATTOFF           CS       OCT40010                              #  SUBROUTINE TO TURN OFF NO ATT LAMP.
000393: 07,3071           71036                           MASK     DSPTAB     +11D
000394: 07,3072           64674                           AD       BIT15
000395: 07,3073           55036                           TS       DSPTAB     +11D
000396: 07,3074           00002                           TC       Q
000397:


000399:                                                                                                  #  ROUITNES TO INITIATE AND TERMINATE PROGRAM USE OF THE PIPAS.  NO IMUSTALL REQUIRED IN EITHER CASE.
000400:
000401: 07,3075           44714        PIPUSE             CS       ZERO
000402: 07,3076           54037                           TS       PIPAX
000403: 07,3077           54040                           TS       PIPAY
000404: 07,3100           54041                           TS       PIPAZ
000405:
000406: 07,3101           03450        PIPUSE1            TC       CAGETSTQ                              #  DO NOT ENABLE PIPA FAIL IF IMU IS CAGED
000407: 07,3102           14570                           TCF      SWRETURN
000408:
000409: 07,3103           00004                           INHINT
000410: 07,3104           44712                           CS       BIT1                                  #  IF PIPA FAILS FROM NOW ON (UNTIL
000411: 07,3105           71320                           MASK     IMODES30                              #  PIPFREE), LIGHT ISS WARNING.
000412: 07,3106           55320                           TS       IMODES30
000413:
000414: 07,3107           04633        PIPFREE2           TC       IBNKCALL                              #  ISS WARNING MIGHT COME ON NOW.
000415: 07,3110           14665                           CADR     SETISSW                               #  (OR GO OFF ON PIPFREE).
000416:
000417: 07,3111           12557                           TCF      MODEEXIT
000418:
000419: 07,3112           00004        PIPFREE            INHINT                                         #  PROGRAM DONE WITH PIPAS.  DONT LIGHT
000420: 07,3113           41320                           CS       IMODES30                              #  ISS WARNING.
000421: 07,3114           74712                           MASK     BIT1
000422: 07,3115           27320                           ADS      IMODES30
000423:
000424: 07,3116           74701                           MASK     BIT10                                 #  IF PIP FAIL ON, DO PROG ALSRM AND RESET
000425: 07,3117           10000                           CCS      A                                     #  ISS WARNING.
000426: 07,3120           12557                           TCF      MODEEXIT
000427:
000428: 07,3121           05537                           TC       ALARM
000429: 07,3122           00212                           OCT      212
000430:
000431: 07,3123           00004                           INHINT
000432:
000433: 07,3124           13107                           TCF      PIPFREE2
000434:


000436:                                                                                                  #  THE FOLLOWING ROUTINE TORQUES THE IRIGS ACCORDING TO DOUBLE PRECISION INPUTS IN THE SIX REGISTERS
000437:                                                                                                  #  BEGINNING AT THE ECADR ARRIVING IN A.  THE MINIMUM SIZE OF ANY PULSE TRAIN IS 16 PULSES (.25 CDU COUNTS).  THE
000438:                                                                                                  #  UNSENT PORTION OF THE COMMAND IS LEFT INTACT IN THE INPUT COMMAND REGISTERS.
000439:
000440: 07,3125  E3,1400                                  EBANK=   1400                                  #  VARIABLE, ACTUALLY.
000441:
000442: 07,3125           54161        IMUPULSE           TS       MPAC       +5                         #  SAVE ARRIVING ECADR.
000443: 07,3126           03455                           TC       CAGETSTJ                              #  DONT PROCEED IF IMU BEING CAGED.
000444:
000445: 07,3127           11304                           CCS      LGYRO                                 #  SEE IF GYROS BUSY.
000446: 07,3130           03171                           TC       GYROBUSY                              #  SLEEP.
000447:
000448: 07,3131           54156                           TS       MPAC       +2
000449: 07,3132           34705                           CAF      BIT6                                  #  ENABLE THE POWER SUPPLY.
000450: 07,3133           00006                           EXTEND
000451: 07,3134           05014                           WOR      CHAN14
000452:
000453: 07,3135           34710                           CAF      FOUR
000454: 07,3136           05140        GWAKE2             TC       WAITLIST                              #  (IF A JOB WAS PUT TO SLEEP, THE POWER
000455: 07,3137  E3,1474                                  EBANK=   CDUIND                                #  SUPPLY IS LEFT ON BY THE WAKING JOB).
000456: 07,3137           03207 16103                     2CADR    STRTGYRO
000457:
000458: 07,3141           30161                           CA       MPAC       +5                         #  SET UP EBANK, SAVING CALLER'S EBANK FOR
000459: 07,3142           56003                           XCH      EBANK                                 #  RESTORATION ON RETURN.
000460: 07,3143           56161                           XCH      MPAC       +5
000461: 07,3144           55304                           TS       LGYRO                                 #  RESERVES GYROS.
000462: 07,3145           74373                           MASK     LOW8
000463: 07,3146           54061                           TS       ITEMP1
000464:
000465: 07,3147           34711                           CAF      TWO                                   #  FORCE SIGN AGREEMENT ON INPUTS.
000466: 07,3150           54157        GYROAGRE           TS       MPAC       +3
000467: 07,3151           60000                           DOUBLE
000468: 07,3152           60061                           AD       ITEMP1
000469: 07,3153           54160                           TS       MPAC       +4
000470: 07,3154           00006                           EXTEND
000471: 07,3155           50000                           INDEX    A
000472: 07,3156           31401                           DCA      1400
000473: 07,3157           52155                           DXCH     MPAC
000474: 07,3160           07226                           TC       TPAGREE
000475: 07,3161           52155                           DXCH     MPAC
000476: 07,3162           50160                           INDEX    MPAC       +4
000477: 07,3163           53401                           DXCH     1400
000478:
000479: 07,3164           10157                           CCS      MPAC       +3
000480: 07,3165           13150                           TCF      GYROAGRE
000481:
000482: 07,3166           30161                           CA       MPAC       +5                         #  RESTORE CALLER'S EBANK.
000483: 07,3167           54003                           TS       EBANK
000484: 07,3170           12557                           TCF      MODEEXIT
000485:


000487:                                                                                                  #  ROUTINES TO ALLOW TORQUING BY ONLY ONE JOB AT A TIME.
000488:
000489: 07,3171           00006        GYROBUSY           EXTEND                                         #  SAVE RETURN 2FCADR.
000490: 07,3172           30134                           DCA      BUF2
000491: 07,3173           52155                           DXCH     MPAC
000492: 07,3174           33206        REGSLEEP           CAF      LGWAKE
000493: 07,3175           15070                           TCF      JOBSLEEP
000494:
000495: 07,3176           11304        GWAKE              CCS      LGYRO                                 #  WHEN AWAKENED, SEE IF GYROS STILL BUSY.
000496: 07,3177           13174                           TCF      REGSLEEP                              #  IF SO, SLEEP SOME MORE.
000497:
000498: 07,3200           54156                           TS       MPAC       +2
000499: 07,3201           00006                           EXTEND
000500: 07,3202           30155                           DCA      MPAC
000501: 07,3203           52134                           DXCH     BUF2                                  #  RESTORE SWRETURN INFO.
000502: 07,3204           34712                           CAF      ONE
000503: 07,3205           13136                           TCF      GWAKE2
000504:
000505: 07,3206           17176        LGWAKE             CADR     GWAKE
000506:


000508:                                                                                                  #  GYRO-TORQUING WAITLIST TASKS.
000509:
000510: 07,3207           43430        STRTGYRO           CS       GDESELCT                              #  DE-SELECT LAST GYRO.
000511: 07,3210           00006                           EXTEND
000512: 07,3211           03014                           WAND     CHAN14
000513:
000514: 07,3212           03443                           TC       CAGETEST
000515:
000516: 07,3213           31304        STRTGYR2           CA       LGYRO                                 #  JUMP ON PHASE COUNTER IN BITS 13-14.
000517: 07,3214           00006                           EXTEND
000518: 07,3215           74707                           MP       BIT4
000519: 07,3216           50000                           INDEX    A
000520: 07,3217           13220                           TCF      +1
000521: 07,3220           03235                           TC       GSELECT                               #  =0.  DO Y GYRO.
000522: 07,3221           00202                           OCT      00202
000523:
000524: 07,3222           03235                           TC       GSELECT                               #  =1.  DO Z GYRO.
000525: 07,3223           00302                           OCT      00302
000526:
000527: 07,3224           03233                           TC       GSELECT    -2                         #  =2.  DO X GYRO.
000528: 07,3225           00100                           OCT      00100
000529:
000530: 07,3226           34714                           CAF      ZERO                                  #  =3.  DONE
000531: 07,3227           55304                           TS       LGYRO
000532: 07,3230           33206                           CAF      LGWAKE                                #  WAKE A POSSIBLE SLEEPING JOB.
000533: 07,3231           05074                           TC       JOBWAKE
000534:
000535: 07,3232           13034        NORESET            TCF      IMUFINED                              #  DO NOT RESET POWER SUPPLY


000537: 07,3233           44710                 -2        CS       FOUR                                  #  SPECIAL ENTRY TO REGRESS LGYRO FOR X.
000538: 07,3234           27304                           ADS      LGYRO
000539:
000540: 07,3235           50002        GSELECT            INDEX    Q                                     #  SELECT GYRO.
000541: 07,3236           30000                           CAF      0                                     #  PACKED WORD CONTAINS GYRO SELECT BITS
000542: 07,3237           54064                           TS       ITEMP4                                #  AND INCREMENT TO LGYRO.
000543: 07,3240           74716                           MASK     SEVEN
000544: 07,3241           64676                           AD       BIT13
000545: 07,3242           27304                           ADS      LGYRO
000546: 07,3243           54003                           TS       EBANK
000547: 07,3244           74373                           MASK     LOW8
000548: 07,3245           54061                           TS       ITEMP1
000549:
000550: 07,3246           44716                           CS       SEVEN
000551: 07,3247           70064                           MASK     ITEMP4
000552: 07,3250           54064                           TS       ITEMP4
000553:
000554: 07,3251           00006                           EXTEND                                         #  MOVE DP COMMAND TO RUPTREGS FOR TESTING.
000555: 07,3252           50061                           INDEX    ITEMP1
000556: 07,3253           31401                           DCA      1400
000557: 07,3254           52071                           DXCH     RUPTREG1
000558:
000559: 07,3255           10070                           CCS      RUPTREG1
000560: 07,3256           13271                           TCF      MAJ+
000561: 07,3257           13261                           TCF      +2
000562: 07,3260           13411                           TCF      MAJ-
000563:
000564: 07,3261           10071                           CCS      RUPTREG2
000565: 07,3262           13266                           TCF      MIN+
000566: 07,3263           13213                           TCF      STRTGYR2
000567: 07,3264           13406                           TCF      MIN-
000568: 07,3265           13213                           TCF      STRTGYR2
000569:


000571: 07,3266           63322        MIN+               AD       -GYROMIN                              #  SMALL POSITIVE COMMAND.  SEE IF AT LEAST
000572: 07,3267           00006                           EXTEND                                         #  16 GYRO PULSES.
000573: 07,3270           63213                           BZMF     STRTGYR2
000574:
000575: 07,3271           00006        MAJ+               EXTEND                                         #  DEFINITE POSITIVE OUTPUT.
000576: 07,3272           33432                           DCA      GYROFRAC
000577: 07,3273           20071                           DAS      RUPTREG1
000578:
000579: 07,3274           30064                           CA       ITEMP4                                #  SELECT POSITIVE TORQUING FOR THIS GYRO.
000580: 07,3275           00006                           EXTEND
000581: 07,3276           05014                           WOR      CHAN14
000582:
000583: 07,3277           36043                           CAF      LOW7                                  #  LEAVE NUMBER OF POSSIBLE 8192 AUGMENTS
000584: 07,3300           70071                           MASK     RUPTREG2                              #  TO INITIAL COMMAND IN MAJOR PART OF LONG
000585: 07,3301           56071                           XCH      RUPTREG2                              #  TERM STORAGE AND TRUNCATED FRACTION
000586: 07,3302           00006        GMERGE             EXTEND                                         #  IN MINOR PART.  THE MAJOR PART WILL BE
000587: 07,3303           74703                           MP       BIT8                                  #  COUNTED DOWN TO ZERO IN THE COURSE OF
000588: 07,3304           54062                           TS       ITEMP2                                #  PUTTING OUT THE ENTIRE COMMAND.
000589: 07,3305           30070                           CA       RUPTREG1
000590: 07,3306           00006                           EXTEND
000591: 07,3307           74702                           MP       BIT9
000592: 07,3310           54070                           TS       RUPTREG1
000593: 07,3311           30001                           CA       L
000594: 07,3312           00006                           EXTEND
000595: 07,3313           74675                           MP       BIT14
000596: 07,3314           26062                           ADS      ITEMP2                                #  INITIAL COMMAND.
000597:
000598: 07,3315           00006                           EXTEND                                         #  SEE IF MORE THAN ONE PULSE TRAIN NEEDED
000599: 07,3316           30071                           DCA      RUPTREG1                              #  (MORE THAN 16383 PULSES).
000600: 07,3317           67716                           AD       MINUS1
000601: 07,3320           10000                           CCS      A
000602: 07,3321           13345                           TCF      LONGGYRO
000603: 07,3322           77601        -GYROMIN           OCT      -176                                  #  MAY BE ADJUSTED TO SPECIFY MINIMUM CMD
000604: 07,3323           13327                           TCF      +4
000605:
000606: 07,3324           34675                           CAF      BIT14
000607: 07,3325           26062                           ADS      ITEMP2
000608: 07,3326           34714                           CAF      ZERO
000609:
000610: 07,3327           50061                 +4        INDEX    ITEMP1
000611: 07,3330           53401                           DXCH     1400


000613: 07,3331           30062                           CA       ITEMP2                                #  ENTIRE COMMAND.
000614: 07,3332           54047        LASTSEG            TS       GYROCMD
000615: 07,3333           00006                           EXTEND
000616: 07,3334           74701                           MP       BIT10                                 #  WAITLIST DT
000617: 07,3335           66214                           AD       THREE                                 #  TRUNCATION AND PHASE UNCERTAINTIES.
000618: 07,3336           05140                           TC       WAITLIST
000619: 07,3337  E3,1474                                  EBANK=   CDUIND
000620: 07,3337           03207 16103                     2CADR    STRTGYRO
000621:
000622: 07,3341           34701        GYROEXIT           CAF      BIT10
000623: 07,3342           00006                           EXTEND
000624: 07,3343           05014                           WOR      CHAN14
000625: 07,3344           15213                           TCF      TASKOVER
000626:
000627: 07,3345           50061        LONGGYRO           INDEX    ITEMP1
000628: 07,3346           53401                           DXCH     1400                                  #  INITIAL COMMAND OUT PLUS N AUGMENTS OF
000629: 07,3347           34675                           CAF      BIT14                                 #  8192.  INITIAL COMMAND IS AT LEAST 8192.
000630: 07,3350           60062                           AD       ITEMP2
000631: 07,3351           54047                           TS       GYROCMD
000632:
000633: 07,3352           00006        AUG3               EXTEND                                         #  GET WAITLIST DT TO TIME WHEN TRAIN IS
000634: 07,3353           74701                           MP       BIT10                                 #  ALMOST OUT.
000635: 07,3354           67714                           AD       NEG3
000636: 07,3355           05140                           TC       WAITLIST
000637: 07,3356  E3,1474                                  EBANK=   CDUIND
000638: 07,3356           03361 16103                     2CADR    8192AUG
000639:
000640: 07,3360           13341                           TCF      GYROEXIT
000641:
000642: 07,3361           03443        8192AUG            TC       CAGETEST
000643:
000644: 07,3362           34707                           CAF      BIT4
000645: 07,3363           00006                           EXTEND
000646: 07,3364           02012                           RAND     CHAN12
000647: 07,3365           10000                           CCS      A
000648: 07,3366           13441                           TCF      IMUBAD
000649: 07,3367           31304                           CA       LGYRO                                 #  ADD 8192 PULSES TO GYROCMD
000650: 07,3370           54003                           TS       EBANK
000651: 07,3371           74373                           MASK     LOW8
000652: 07,3372           54061                           TS       ITEMP1
000653:
000654: 07,3373           50061                           INDEX    ITEMP1                                #  SEE IF THIS IS THE LAST AUG.
000655: 07,3374           11400                           CCS      1400
000656: 07,3375           13401                           TCF      AUG2                                  #  MORE TO COME.
000657:
000658: 07,3376           34675                           CAF      BIT14
000659: 07,3377           26047                           ADS      GYROCMD
000660: 07,3400           13333                           TCF      LASTSEG    +1
000661:


000663: 07,3401           50061        AUG2               INDEX    ITEMP1
000664: 07,3402           55400                           TS       1400
000665: 07,3403           34675                           CAF      BIT14
000666: 07,3404           26047                           ADS      GYROCMD
000667: 07,3405           13352                           TCF      AUG3                                  #  COMPUTE DT.
000668:


000670: 07,3406           63322        MIN-               AD       -GYROMIN                              #  POSSIBLE NEGATIVE OUTPUT.
000671: 07,3407           00006                           EXTEND
000672: 07,3410           63213                           BZMF     STRTGYR2
000673:
000674: 07,3411           00006        MAJ-               EXTEND                                         #  DEFINITE NEGATIVE OUTPUT.
000675: 07,3412           43432                           DCS      GYROFRAC
000676: 07,3413           20071                           DAS      RUPTREG1
000677:
000678: 07,3414           30064                           CA       ITEMP4                                #  SELECT NEGATIVE TORQUING FOR THIS GYRO.
000679: 07,3415           64702                           AD       BIT9
000680: 07,3416           00006                           EXTEND
000681: 07,3417           05014                           WOR      CHAN14
000682:
000683: 07,3420           40070                           CS       RUPTREG1                              #  SET UP RUPTREGS TO FALL INTO GMERGE.
000684: 07,3421           54070                           TS       RUPTREG1                              #  ALL NUMBERS PUT INTO GYROCMD ARE
000685: 07,3422           40071                           CS       RUPTREG2                              #  POSITIVE - BIT9 OF CHAN 14 DETERMINES
000686: 07,3423           76043                           MASK     LOW7                                  #  THE SIGN OF THE COMMAND.
000687: 07,3424           40000                           COM
000688: 07,3425           56071                           XCH      RUPTREG2
000689: 07,3426           40000                           COM
000690: 07,3427           13302                           TCF      GMERGE
000691:
000692: 07,3430           01700        GDESELCT           OCT      1700                                  #  TURN OFF SELECT AND ACTIVITY BITS.
000693:
000694: 07,3431           00000 00034  GYROFRAC           2DEC     .215       B-21
000695:


000697:                                                                                                  #  IMU MODE SWITCHING ROUTINES COME HERE WHEN ACTION COMPLETE.
000698:
000699: 07,3433           00006        ENDIMU             EXTEND                                         #  MODE IS BAD IF CAGE HAS OCCURED OR IF
000700: 07,3434           00011                           READ     DSALMOUT                              #  ISS WARNING IS ON.
000701: 07,3435           74712                           MASK     BIT1
000702: 07,3436           10000                           CCS      A
000703: 07,3437           13441                           TCF      IMUBAD
000704:
000705: 07,3440           13467        IMUGOOD            TCF      GOODEND                               #  WITH C(A) = 0.
000706:
000707: 07,3441           34714        IMUBAD             CAF      ZERO
000708: 07,3442           13464                           TCF      BADEND
000709:
000710: 07,3443           34705        CAGETEST           CAF      BIT6                                  #  SUBROUTINE TO TERMINATE IMU MODE
000711: 07,3444           71320                           MASK     IMODES30                              #  SWITCH IF IMU HAS BEEN CAGED.
000712: 07,3445           10000                           CCS      A
000713: 07,3446           13441                           TCF      IMUBAD                                #  DIRECTLY.
000714: 07,3447           00002                           TC       Q                                     #  WITH C(A) = +0.
000715:
000716: 07,3450           41320        CAGETSTQ           CS       IMODES30                              #  SKIP IF IMU NOT BEING CAGED.
000717: 07,3451           74705                           MASK     BIT6
000718: 07,3452           10000                           CCS      A
000719: 07,3453           24002                           INCR     Q
000720: 07,3454           00002                           TC       Q
000721:
000722: 07,3455           41320        CAGETSTJ           CS       IMODES30                              #  IF DURING MODE SWITCH INITIALIZATION
000723: 07,3456           74705                           MASK     BIT6                                  #  IT IS FOUND THAT THE IMU IS BEING CAGED.
000724: 07,3457           10000                           CCS      A                                     #  SET IMUCADR TO -0 TO INDICATE OPERATION
000725: 07,3460           00002                           TC       Q                                     #  COMPLETE BUT FAILED.  RETURN IMMEDIATELY
000726: 07,3461           44714                           CS       ZERO                                  #  TO SWRETURN.
000727: 07,3462           55322                           TS       IMUCADR
000728: 07,3463           12557                           TCF      MODEEXIT
000729:


000731:                                                                                                  #  GENERALIZED MODE SWITCHING TERMINATION.  ENTER AT GOODEND FOR SUCCESSFUL COMPLETION OF AN I/O OPERATION
000732:                                                                                                  #  OR AT BADEND FOR AN UNSUCCESSFUL ONE.  C(A) OR ARRIVAL =0 FOR IMU, 1 FOR OPTICS.
000733:
000734: 07,3464           54071        BADEND             TS       RUPTREG2                              #  DEVICE INDEX.
000735: 07,3465           44714                           CS       ZERO                                  #  FOR FAILURE.
000736: 07,3466           13471                           TCF      GOODEND    +2
000737:
000738: 07,3467           54071        GOODEND            TS       RUPTREG2
000739: 07,3470           44712                           CS       ONE                                   #  FOR SUCCESS.
000740:
000741: 07,3471           54072                           TS       RUPTREG3
000742: 07,3472           50071                           INDEX    RUPTREG2                              #  SEE IF USING PROGRAM ASLEEP.
000743: 07,3473           11322                           CCS      MODECADR
000744: 07,3474           13476                           TCF      +2                                    #  YES - WAKE IT UP.
000745: 07,3475           13506                           TCF      ENDMODE                               #  IF 0, PROGRAM NOT IN YET.
000746:
000747: 07,3476           34714                           CAF      ZERO                                  #  WAKE SLEEPING PROGRAM.
000748: 07,3477           50071                           INDEX    RUPTREG2
000749: 07,3500           57322                           XCH      MODECADR
000750: 07,3501           05074                           TC       JOBWAKE
000751:
000752: 07,3502           40072                           CS       RUPTREG3                              #  ADVANCE LOC IF SUCCESSFUL.
000753: 07,3503           50064                           INDEX    LOCCTR
000754: 07,3504           26164                           ADS      LOC
000755:
000756: 07,3505           15213                           TCF      TASKOVER
000757:
000758: 07,3506           30072        ENDMODE            CA       RUPTREG3                              #  -0 INDICATES OPERATION COMPLETE BUT
000759: 07,3507           50071                           INDEX    RUPTREG2                              #  UNSUCCESSFUL - -1 INDICATES COMPLETE AND
000760: 07,3510           55322                           TS       MODECADR                              #  SUCCESSFUL.
000761: 07,3511           15213                           TCF      TASKOVER
000762:


000764:                                                                                                  #  GENERAL STALLING ROUTINE.  USING PROGRAMS COME HERE TO WAIT FOR I/O COMPLETION.
000765:
000766:                                                                                                  #  PROGRAM DESCRIPTION                           DATE - 21 FEB 1967
000767:                                                                                                  #                                                LOG SECTION IMU MODE SWITCHING
000768:                                                                                                  #  MOD BY - R. MELANSON TO ADD DOCUMENTATION     ASSEMBLY SUNDISK REV. 82
000769:
000770:                                                                                                  #  FUNCTIONAL DESCRIPTION -
000771:                                                                                                  #        TO DELAY FURTHER EXECUTION OF THE CALLING ROUTINE UNTIL ITS SELECTED
000772:                                                                                                  #        I/O FUNCTION IS COMPLETE.  THE FOLLOWING CHECKS ON THE CALLING ROUTINE:S
000773:                                                                                                  #        MODECADR ARE MADE AND ACTED UPON.
000774:                                                                                                  #        1) +0 INDICATES INCOMPLETE I/O OPERATION.  CALLING ROUTINE IS PUT TO
000775:                                                                                                  #           SLEEP.
000776:                                                                                                  #        2) -1 INDICATES COMPLETED I/O OPERATION.  STALL BYPASSES JOBSLEEP
000777:                                                                                                  #           CALL AND RETURNS TO CALLING ROUTINE AT L+3
000778:                                                                                                  #        3) -0 INDICATES COMPLETED I/O WITH FAILURE.  STALL CLEARS MODECADR
000779:                                                                                                  #           AND RETURNS TO CALLING ROUTINE AT L+2.
000780:                                                                                                  #        4) VALUE GREATER THAN 0 INDICATES TWO ROUTINES CALLING FOR USE OF
000781:                                                                                                  #           SAME DEVICE.  STALL EXITS TO ABORT WHICH EXECUTES A PROGRAM
000782:                                                                                                  #           RESTART WHICH IN TURN CLEARS ALL MODECADR REGISTERS.
000783:
000784:                                                                                                  #  CALLING SEQUENCE -
000785:                                                                                                  #        L       TC      BANKCALL
000786:                                                                                                  #        L+1     CADR    (ONE OF 5 STALL ADDRESSES  I.E. IMUSTALL, OPTSTALL, RADSTALL,
000787:                                                                                                  #                        AOTSTALL, OR ATTSTALL)
000788:
000789:                                                                                                  #  NORMAL-EXIT MODE -
000790:                                                                                                  #        TCF JOBSLEEP    OR      TCF MODEXIT
000791:
000792:                                                                                                  #  ALARM OR ABORT EXIT MODE -
000793:                                                                                                  #        TC      ABORT
000794:
000795:                                                                                                  #  OUTPUT -
000796:                                                                                                  #        MODECADR=CADR   IF JOBSLEEP
000797:                                                                                                  #        MODECADR=+0     IF I/O COMPLETE
000798:                                                                                                  #        BUF2=L+3        IF I/O COMPLETE AND GOOD.
000799:                                                                                                  #        BUF2=L+2        IF I/O COMPLETE BUT FAILED.
000800:
000801:                                                                                                  #  ERASABLE INITIALIZATION -
000802:                                                                                                  #        BUF2 CONTAINS RETURN ADDRESS PLUS 1,(L+2)
000803:                                                                                                  #        BUF2+1 CONTAINS FBANK VALUE OF CALLING ROUTINE.
000804:                                                                                                  #        MODECADR OF CALLING ROUTINE CONTAINS +0,-1,-0 OR CADR RETURN ADDRESS.
000805:
000806:                                                                                                  #  DEBRIS -
000807:                                                                                                  #        RUPTREG2 AND CALLING ROUTINE MODECADR.
000808:
000809: 07,3512           34712        AOTSTALL           CAF      ONE                                   #  AOT.
000810: 07,3513           03517                           TC       STALL
000811:
000812: 07,3514           34711        RADSTALL           CAF      TWO
000813: 07,3515           13517                           TCF      STALL
000814:


000816: 07,3516  07,3512               OPTSTALL           EQUALS   AOTSTALL
000817:
000818: 07,3516           34714        IMUSTALL           CAF      ZERO                                  #  IMU.
000819:
000820: 07,3517           00004        STALL              INHINT
000821: 07,3520           54071                           TS       RUPTREG2                              #  SAVE DEVICE INDEX.
000822: 07,3521           50000                           INDEX    A                                     #  SEE IF OPERATION COMPLETE.
000823: 07,3522           11322                           CCS      MODECADR
000824: 07,3523           13541                           TCF      MODABORT                              #  ALLOWABLE STATES ARE +0, -1, AND -0.
000825: 07,3524           13535                           TCF      MODESLP                               #  OPERATION INCOMPLETE.
000826: 07,3525           13531                           TCF      MODEGOOD                              #  COMPLETE AND GOOD IF = -1.
000827:
000828: 07,3526           50071        MG2                INDEX    RUPTREG2                              #  COMPLETE AND FAILED IF -0.  RESET TO +0.
000829: 07,3527           55322                           TS       MODECADR                              #  RETURN TO CALLER.
000830: 07,3530           12557                           TCF      MODEEXIT
000831:
000832: 07,3531           10000        MODEGOOD           CCS      A                                     #  MAKE SURE INITIAL STATE -1.
000833: 07,3532           13541                           TCF      MODABORT
000834:
000835: 07,3533           24133                           INCR     BUF2                                  #  IF SO, INCREMENT RETURN ADDRESS AND
000836: 07,3534           13526                           TCF      MG2                                   #  RETURN IMMEDIATELY, SETTING CADR = +0.
000837:
000838: 07,3535           04604        MODESLP            TC       MAKECADR                              #  CALL FROM SWITCHABLE FIXED ONLY.
000839: 07,3536           50071                           INDEX    RUPTREG2
000840: 07,3537           55322                           TS       MODECADR
000841: 07,3540           15070                           TCF      JOBSLEEP
000842:
000843: 07,3541           05622        MODABORT           TC       POODOO                                #  TWO PROGRAMS USING SAME DEVICE.
000844: 07,3542           01210                           OCT      1210
000845:


000847:                                                                                                  #  CONSTANTS FOR MODE SWITCHING ROUTINES
000848:
000849: 07,3543     5656               BITS3&4            =        OCT14
000850: 07,3543     4726               BITS4&6            =        OCT50
000851: 07,3543           00030        BITS4-5            OCT      00030
000852: 07,3544     4703               IMUSEFLG           EQUALS   BIT8                                  #  INTERPRETER SWITCH 7.
000853: 07,3544           77500        -COMMAX            DEC      -191       B-14
000854: 07,3545           77477        -COMMAX-           DEC      -192       B-14
000855: 07,3546           00074        600MS              DEC      60         B-14
000856: 07,3547  07,3012               IMUFIN20           =        IMUFINE
000857: 07,3547           31325        GOMANUR            CA       ATTCADR                               #  IS KALCMANU FREE
000858: 07,3550           00006                           EXTEND
000859: 07,3551           13554                           BZF      +3
000860: 07,3552           05622                           TC       POODOO                                #  NO
000861: 07,3553           01210                           OCT      1210                                  #  2 TRYING TO USE SAME DEVICE
000862:
000863: 07,3554           00006                 +3        EXTEND
000864: 07,3555           30134                           DCA      BUF2
000865: 07,3556           53326                           DXCH     ATTCADR                               #  SAVE FINAL RETURN FOR KALCMAN3
000866:
000867: 07,3557           30006                           CA       BBANK
000868: 07,3560           74716                           MASK     SEVEN
000869: 07,3561           27326                           ADS      ATTCADR    +1
000870:
000871: 07,3562           30167                           CA       PRIORITY
000872: 07,3563           77674                           MASK     PRIO37
000873: 07,3564           55327                           TS       ATTPRIO                               #  SAVE USERS PRIO
000874:
000875: 07,3565           33571                           CAF      KALEBCON                              #  SET EBANK FOR KALCMAN3
000876: 07,3566           54003                           TS       EBANK
000877: 07,3567           04574                           TC       POSTJUMP
000878: 07,3570           44000                           CADR     KALCMAN3
000879: 07,3571           03261        KALEBCON           ECADR    BCDU
000880:


000882:                                                                                                  #  PROGRAM DESCRIPTION
000883:                                                                                                  #  IMU STATUS CHECK ROUTINE R02 (SUBROUTINE UTILITY)
000884:                                                                                                  #  MOD NO - 1
000885:                                                                                                  #  MOD BY - N.BRODEUR
000886:
000887:                                                                                                  #  FUNCTIONAL DESCRIPTION
000888:                                                                                                  #        TO CHECK WHETHER IMU IS ON AND IF ON WHETHER IT IS ALIGNED TO AN
000889:                                                                                                  #        ORIENTATION KNOWN BY THE CMC.  TO REQUEST SELECTION OF THE APPROPRIATE
000890:                                                                                                  #        PROGRAM IF THE IMU IS OFF OR NOT ALIGNED TO AN ORIENTATION KNOWN BY THE
000891:                                                                                                  #        CMC.  CALLED THROUGH BANKCALL
000892:
000893:                                                                                                  #  CALLING SEQUENCE -
000894:                                                                                                  #        L       TC      BANKCALL
000895:                                                                                                  #        L+1     CADR    R02BOTH
000896:
000897:                                                                                                  #  SUBROUTINES CALLED
000898:                                                                                                  #        VARALARM
000899:                                                                                                  #        FLAGUP
000900:
000901:                                                                                                  #  NORMAL EXIT MODES
000902:                                                                                                  #        AT L+2 OF CALLING SEQUENCE
000903:
000904:                                                                                                  #  ALARM OR ABORT EXIT MODES
000905:                                                                                                  #        GOTOPOOH, WITH ALARM
000906:
000907:                                                                                                  #  ERASABLE INITIALIZATION REQUIRED
000908:                                                                                                  #        NONE
000909:
000910:                                                                                                  #  DEBRIS
000911:                                                                                                  #        CENTRALS-A,Q,L
000912:
000913: 34,3775                                           BANK     34
000914: 07,2000                                           SETLOC   R02
000915: 07,2000                                           BANK
000916: 07,3572                                           COUNT    04/R02                                #  COUNT*
000917:
000918: 07,3572           00063        DEC51              DEC      51         B-14
000919: 07,3573           34676        R02BOTH            CAF      BIT13
000920: 07,3574           70077                           MASK     STATE      +3                         #  REFSMFLG
000921: 07,3575           10000                           CCS      A
000922: 07,3576           03607                           TC       R02ZERO                               #  ZERO IMUS
000923:
000924: 07,3577           31320                           CA       IMODES30
000925: 07,3600           74702                           MASK     BIT9                                  #  IS ISS INITIALIZED
000926: 07,3601           00006                           EXTEND
000927: 07,3602           13604                           BZF      +2
000928: 07,3603           44707                           CS       BIT4                                  #  SEND IMU ALARM CODE 210
000929: 07,3604           63612                           AD       OCT220                                #  SEND REFSMM ALARM
000930: 07,3605           05651                           TC       VARALARM
000931:
000932: 07,3606           04106                           TC       GOTOPOOH
000933:


000935: 07,3607           05435        R02ZERO            TC       UPFLAG
000936: 07,3610           00007                           ADRES    IMUSE
000937: 07,3611           14570                           TCF      SWRETURN
000938: 07,3612           00220        OCT220             OCT      220
000939:


000941:                                                                                                  #  PROGRAM DESCRIPTION   P06             10FEB67
000942:
000943:                                                                                                  #  TRANSFER THE ISS/CMC FROM THE OPERATE TO THE STANDBY CONDITION.
000944:
000945:                                                                                                  #  THE NORMAL CONDITION OF READINESS OF THE GNCS WHEN NOT IN USE IS STANDBY.  IN THIS CONDITION THE IMU
000946:                                                                                                  #  HEATER POWER IS ON.  THE IMU OPERATE POWER IS OFF.  THE COMPUTER POWER IS ON.  THE OPTICS POWER IS OFF.  THE
000947:                                                                                                  #  CMC STANDBY ON THE MAIN AND LEB DISKYS IS ON.
000948:
000949:                                                                                                  #  CALLING SEQUENCE:
000950:                                                                                                  #        ASTRONAUT REQUEST THROUGH DSKY  V37E 06E.
000951:
000952:                                                                                                  #  SUBROUTINES CALLED:
000953:                                                                                                  #        GOPERF1
000954:                                                                                                  #        BANKCALL
000955:                                                                                                  #        FLAGDOWN
000956:


000958:                                                                                                  #  PRESTAND PREPARES FOR STANDBY BY SNAPSHOTTING THE SCALER AND TIME1 TIME2
000959:                                                                                                  #  THE LOW 5 BITS OF THE SCALER ARE INSPECTED TO INSURE COMPATABILITY
000960:                                                                                                  #  BETWEEN THE SCALER READING AND THE TIME1 TIME2 READING.
000961:
000962: 26,2000                                           SETLOC   P05P06
000963: 26,2000                                           BANK
000964:
000965: 26,3655     1150                                  EBANK=   TIME2SAV
000966: 26,3655                                           COUNT*   $$/P06
000967:
000968: 26,3655           05435        P06                TC       UPFLAG                                #  SET NODOV37 BIT
000969: 26,3656           00054                           ADRES    NODOFLAG
000970:
000971: 26,3657           00004        PRESTAND           INHINT
000972: 26,3660           00006                           EXTEND
000973: 26,3661           30025                           DCA      TIME2                                 #  SNAPSHOT TIME1 TIME2
000974: 26,3662           53151                           DXCH     TIME2SAV
000975: 26,3663           03714                           TC       SCALPREP
000976: 26,3664           03657                           TC       PRESTAND                              #  T1,T2,SCALER NOT COMPATIBLE
000977: 26,3665           52155                           DXCH     MPAC                                  #  T1,T2 AND SCALER OK
000978: 26,3666           53153                           DXCH     SCALSAVE                              #  STORE SCALER
000979: 26,3667           00004                           INHINT
000980: 26,3670           04555                           TC       BANKCALL
000981: 26,3671           16777                           CADR     RNDREFDR                              #  REFSMM, DRIFT, TRACK FLAGS DOWN
000982:
000983: 26,3672           05447                           TC       DOWNFLAG
000984: 26,3673           00007                           ADRES    IMUSE                                 #  IMUSE DOWN
000985: 26,3674           05447                           TC       DOWNFLAG
000986: 26,3675           00010                           ADRES    RNDVZFLG                              #  RNDVZFLG DOWN
000987:
000988: 26,3676           34700                           CAF      BIT11
000989: 26,3677           00006                           EXTEND
000990: 26,3700           05013                           WOR      CHAN13                                #  SET STANDBY ENABLE BIT
000991:
000992: 26,3701           05301                           TC       PHASCHNG                              #  SET RESTART TO POSTAND WHEN STANDBY
000993: 26,3702           07024                           OCT      07024                                 #        RECOVERS
000994: 26,3703           20000                           OCT      20000
000995: 26,3704     1152                                  EBANK=   SCALSAVE
000996: 26,3704           03734 54102                     2CADR    POSTAND
000997:
000998: 26,3706           34731                           CAF      OCT62
000999: 26,3707           04555                           TC       BANKCALL
001000: 26,3710           20751                           CADR     GOPERF1
001001: 26,3711           13706                           TCF      -3
001002: 26,3712           13706                           TCF      -4
001003: 26,3713           13706                           TCF      -5
001004:
001005: 26,3714     4731               OCT62              EQUALS   .5SEC                                 #  DEC 50 = OCT 62
001006:
001007:                                                                                                  #  THE LOW 5 BITS OF THE SCALER READS 10000 FOR THE FIRST INTERVAL AFTER A


001009:                                                                                                  #  T1 INCREMENT.  IF SCALPREP DETECTS THIS INTERVAL THE T1,T2 AND SCALER
001010:                                                                                                  #  DATA ARE NOT COMPATABLE AND RETURN IS TO L+1 FOR ANOTHER READING OF THE
001011:                                                                                                  #  DATA.  OTHERWISE, THE RETURN IS TO L+2 TO PROCEED.  ROUTINE ALSO PREPARES
001012:                                                                                                  #  THE SCALER READING FOR COMPUTATION OF THE INCREMENT TO UPDATE T1T2.  (THE
001013:                                                                                                  #  10 MS BIT (BIT 6) OF THE SCALER IS INCREMENTED 5 MS OUT OF PHASE FROM
001014:                                                                                                  #  T1.) ADDITION OF 5 MS (BIT 5) TO THE SCALER READING HAS THE EFFECT OF
001015:                                                                                                  #  ADJUSTING BIT 6 IN THE SCALER TO BE IN PHASE WITH BIT 1 OF T1.  THE LOW 5
001016:                                                                                                  #  BITS OF THE SCALER READING ARE THEN SET TO ZERO, TO TRUNCATE THE SCALER
001017:                                                                                                  #  DATA TO 10 MS.  RESULTS ARE STORED IN MPAC, +1.
001018:
001019: 26,3714           00006        SCALPREP           EXTEND
001020: 26,3715           22156                           QXCH     MPAC       +2
001021: 26,3716           04527                           TC       FINETIME   +1
001022: 26,3717           00003                           RELINT
001023: 26,3720           52155                           DXCH     MPAC
001024: 26,3721           34706                           CA       BIT5                                  #  ADD 5 MS TO THE SCALER READING.
001025: 26,3722           54001                           TS       L
001026: 26,3723           34714                           CA       ZERO
001027: 26,3724           20155                           DAS      MPAC
001028: 26,3725           44362                           CS       LOW5                                  #  SET LOW 5 BITS OF (SCALER+5MS) TO ZERO
001029: 26,3726           70155                           MASK     MPAC       +1                         #  AND STORE RESULTS IN MPAC,+1.
001030: 26,3727           56155                           XCH      MPAC       +1
001031: 26,3730           74362                           MASK     LOW5                                  #  TEST LOW 5 BITS OF SCALER FOR THE FIRST
001032:                                                                                                  #  INTERVAL AFTER THE T1 INCREMENT
001033:                                                                                                  #  (NOW = 00000, SINCE BIT 5 ADDED).
001034: 26,3731           10000                           CCS      A                                     #  IS IT 1ST INTERVAL AFTER T1 INCREMENT
001035: 26,3732           24156                           INCR     MPAC       +2                         #  NO
001036: 26,3733           00156                           TC       MPAC       +2                         #  YES
001037:
001038:                                                                                                  #  POSTAND RECOVERS TIME AFTER STANDBY.  THE SCALER IS SNAPSHOTTED AND THE
001039:                                                                                                  #  TIME1 TIME2 COUNTER IS SET TO ZERO.  THE LOW 5 BITS OF THE SCALER ARE
001040:                                                                                                  #  INSPECTED TO INSURE COMPATABILITY BETWEEN THE SCALER READING AND THE
001041:                                                                                                  #  CLEARING OF THE TIME COUNTER.  IT THEN COMPUTES THE DIFFERENCE IN SCALER
001042:                                                                                                  #  VALUES (IN DP) AND ADDS THIS TO THE PREVIOUSLY SNAPSHOTTED VALUES OF
001043:                                                                                                  #  TIME1 TIME2 AND PLACES THIS NEW TIME INTO THE TIME1 TIME2 COUNTER.
001044:
001045: 26,3734                                           COUNT*   $$/P05
001046:
001047: 26,3734           44700        POSTAND            CS       BIT11                                 #  RECOVER TIME AFTER STANDBY.
001048: 26,3735           00006                           EXTEND
001049: 26,3736           03013                           WAND     CHAN13                                #  CLEAR STANDBY ENABLE BIT
001050: 26,3737           00004                           INHINT
001051: 26,3740           34714                           CA       ZERO
001052: 26,3741           54001                           TS       L
001053: 26,3742           52025                           DXCH     TIME2                                 #  CLEAR TIME1 TIME2
001054: 26,3743           03714                           TC       SCALPREP                              #  STORE SCALER IN MPAC, MPAC+1
001055: 26,3744           03737                           TC       POSTAND    +3                         #  T1,T2,SCALER NOT COMPATIBLE
001056: 26,3745           00006                           EXTEND                                         #  T1,T2 AND SCALER OK
001057: 26,3746           41153                           DCS      SCALSAVE
001058: 26,3747           20155                           DAS      MPAC                                  #  FORM DP DIFFERENCE OF POSTSTANDBY SCALER


001060: 26,3750           34701                           CAF      BIT10                                 #  MINUS PRESTANDBY SCALER AND SHIFT RIGHT
001061: 26,3751           07256                           TC       SHORTMP                               #  5 TO ALIGN BITS WITH TIME1 TIME2.
001062: 26,3752           34714                           CAF      ZERO
001063: 26,3753           54156                           TS       MPAC       +2                         #  NEEDED FOR TP AGREE
001064: 26,3754           07226                           TC       TPAGREE                               #  MAKE DP DIFF AGREE
001065: 26,3755           10154                           CCS      MPAC
001066: 26,3756           03763                           TC       POSTCOM                               #  IF DP DIFF NET +, NO SCALER OVERFLOW
001067: 26,3757           03763                           TC       POSTCOM                               #  BETWEEN PRE AND POST STANDBY.
001068: 26,3760           03761                           TC       +1                                    #  IF DP DIFF NET -, SCALER OVERFLOWED.  ADD
001069: 26,3761           34701                           CAF      BIT10                                 #  BIT 10 TO HIGH DIFF TO CORRECT.
001070: 26,3762           26154                           ADS      MPAC
001071: 26,3763           00006        POSTCOM            EXTEND                                         #  C(MPAC,+1) IS MAGNITUDE OF DELTA SCALER.
001072: 26,3764           31151                           DCA      TIME2SAV                              #  PRESTANDBY TIME1 TIME2
001073: 26,3765           20155                           DAS      MPAC
001074: 26,3766           07226                           TC       TPAGREE                               #  FORCE SIGN AGREEMENT
001075: 26,3767           52155                           DXCH     MPAC                                  #  UPDATED VALUE FOR T1,T2.
001076: 26,3770           20025                           DAS      TIME2                                 #  LOAD UPDATED VALUE INTO T1,T2, WITH
001077: 26,3771           05447                           TC       DOWNFLAG                              #  CLEAR NODOFLAG
001078: 26,3772           00054                           ADRES    NODOFLAG
001079:
001080: 26,3773           04106                           TC       GOTOPOOH
001081:
001082:
001083:

End of include-file IMU_MODE_SWITCHING_ROUTINES.agc.  Parent file is MAIN.agc


