
Source Code


000002:                                                                                                  ## Copyright:   Public domain.
000003:                                                                                                  ## Filename:    IMU_CALIBRATION_AND_ALIGNMENT.agc
000004:                                                                                                  ## Purpose:     Part of the source code for Colossus, build 249.
000005:                                                                                                  ##              It is part of the source code for the Command Module's (CM)
000006:                                                                                                  ##              Apollo Guidance Computer (AGC), for Apollo 9.
000007:                                                                                                  ## Assembler:   yaYUL
000008:                                                                                                  ## Reference:   pp. 416-448.
000009:                                                                                                  ## Contact:     Ron Burkey <info@sandroid.org>.
000010:                                                                                                  ## Website:     www.ibiblio.org/apollo.
000011:                                                                                                  ## Mod history: 08/11/04   RSB  Began transcribing.
000012:                                                                                                  ##              2010-10-24 JL   Indentation fixes.
000013:                                                                                                  ##              2011-05-07 JL   Flag SBANK= workarounds for future removal.
000014:                                                                                                  ##              2017-01-06 RSB  Page numbers now agree with those on the
000015:                                                                                                  ##                              original harcopy, as opposed to the PDF page
000016:                                                                                                  ##                              numbers in 1701.pdf.
000017:                                                                                                  ##              2017-01-14 RSB  Cross-diff'd comment text (not whitespace)
000018:                                                                                                  ##                              vs the already-proofed corresponding Colossus
000019:                                                                                                  ##                              237 and Comanche 55 source-code files
000020:                                                                                                  ##                              and corrected errors found.
000021:                                                                                                  ##
000022:                                                                                                  ## The contents of the "Colossus249" files, in general, are transcribed
000023:                                                                                                  ## from a scanned copy of the program listing.  Notations on this
000024:                                                                                                  ## document read, in part:
000025:                                                                                                  ##
000026:                                                                                                  ##      Assemble revision 249 of AGC program Colossus by NASA
000027:                                                                                                  ##      2021111-041.  October 28, 1968.
000028:                                                                                                  ##
000029:                                                                                                  ##      This AGC program shall also be referred to as
000030:                                                                                                  ##                              Colossus 1A
000031:                                                                                                  ##
000032:                                                                                                  ##      Prepared by
000033:                                                                                                  ##                      Massachusetts Institute of Technology
000034:                                                                                                  ##                      75 Cambridge Parkway
000035:                                                                                                  ##                      Cambridge, Massachusetts
000036:                                                                                                  ##      under NASA contract NAS 9-4065.
000037:                                                                                                  ##
000038:                                                                                                  ## Refer directly to the online document mentioned above for further information.
000039:                                                                                                  ## Please report any errors (relative to the scanned pages) to info@sandroid.org.
000040:                                                                                                  ##
000041:                                                                                                  ## In some cases, where the source code for Luminary 131 overlaps that of
000042:                                                                                                  ## Colossus 249, this code is instead copied from the corresponding Luminary 131
000043:                                                                                                  ## source file, and then is proofed to incorporate any changes.
000044:


000046:                                                                                                  #  NAME -        IMU PERFORMANCE TESTS 2
000047:
000048:                                                                                                  #  DATE -        MARCH 20, 1967
000049:
000050:                                                                                                  #  BY -          SYSTEM TEST GROUP 864-6900 EXT. 1274
000051:
000052:                                                                                                  #  MODNO.-       ZERO
000053:
000054:                                                                                                  #  FUNCTIONAL DESCRIPTION
000055:
000056:                                                                                                  #  POSITIONING ROUTINES FOR THE IMU PERFORMANCE TESTS AS WELL AS SOME OF
000057:                                                                                                  #  THE TESTS THEMSELVES.  FOR A DESCRIPTION OF THESE SUBROUTINES AND THE
000058:                                                                                                  #  OPERATING PROCEDURES (TYPICALLY) SEE STG MEMO 685.  THEORETICAL REF. E-1973
000059:
000060: 33,2004                                           BANK     33
000061: 33,2000                                           SETLOC   IMUCAL
000062: 33,2000                                           BANK
000063: 33,2004  E5,1423                                  EBANK=   POSITON
000064:
000065: 33,2004           34714        IMUTEST            CA       ZERO
000066: 33,2005           55452                           TS       DRIFTT
000067: 33,2006           55643                           TS       GEOCOMP1
000068: 33,2007           32443                           CAF      TESTTIME
000069: 33,2010           55412                           TS       LENGTHOT
000070: 33,2011           02302                           TC       COAALIGN                              #  TAKE CARE OF DRIFT FLAG
000071: 33,2012           34734                           CAF      1SECX
000072: 33,2013           55644                           TS       1SECXT1
000073:
000074: 33,2014           32441                           CA       OC14400
000075: 33,2015           55074                           TS       1/PIPADT
000076:
000077: 33,2016           06006        GUESS              TC       INTPRET                               #  CALCULATE -COS LATITUDE AND SIN LATITUDE
000078: 33,2017           77624                           CALL
000079: 33,2020           10617                                    LATAZCHK
000080: 33,2021           57546                           COS      DCOMP
000081: 33,2022           77752                           SL1
000082: 33,2023           16447                           STODL    WANGI
000083: 33,2024           02403                                    LATITUDE
000084: 33,2025           72556                           SIN      SL1
000085: 33,2026           02445                           STORE    WANGO
000086: 33,2027           77776                           EXIT
000087: 33,2030           04555        GEOIMUTT           TC       BANKCALL                              #  GYROCOMPASS COMES IN HERE
000088: 33,2031           16516                           CADR     IMUZERO
000089: 33,2032           02316                           TC       IMUSTLLG
000090: 33,2033           34714        IMUBACK            CA       ZERO
000091: 33,2034           55421                           TS       NDXCTR
000092: 33,2035           55450                           TS       TORQNDX
000093: 33,2036           55451                           TS       TORQNDX    +1
000094: 33,2037           34375        NBPOSPL            CA       DEC17
000095: 33,2040           55655                           TS       ZERONDX1
000096: 33,2041           32445                           CA       XNBADR


000098: 33,2042           02356                           TC       ZEROING
000099: 33,2043           34675                           CA       HALF
000100: 33,2044           55713                           TS       XNB
000101: 33,2045           06006                           TC       INTPRET
000102: 33,2046           73545                           DLOAD    SIN
000103: 33,2047           02401                                    AZIMUTH
000104: 33,2050           02724                           STORE    YNB        +2
000105: 33,2051           16734                           STODL    ZNB        +4
000106: 33,2052           02401                                    AZIMUTH
000107: 33,2053           77746                           COS
000108: 33,2054           02726                           STORE    YNB        +4
000109: 33,2055           77676                           DCOMP
000110: 33,2056           02732                           STORE    ZNB        +2
000111: 33,2057           77776                           EXIT
000112: 33,2060           05253                           TC       CHECKMM
000113: 33,2061           00003                           MM       03         B-14                       #  SEE IF IN OPTICAL VERIFICATION
000114: 33,2062           12064                           TCF      +2                                    #  NO
000115: 33,2063           13432                           TCF      SETNBPOS   +1                         #  YES
000116: 33,2064           06006                           TC       INTPRET
000117: 33,2065           77624                           CALL
000118: 33,2066           47244                                    CALCGA
000119: 33,2067           77776                           EXIT
000120: 33,2070           04555                           TC       BANKCALL
000121: 33,2071           16602                           CADR     IMUCOARS
000122: 33,2072           34675                           CAF      BIT14                                 #  IF BIT14 SET, GIMBAL LOCK
000123: 33,2073           70077                           MASK     FLAGWRD3
000124: 33,2074           00006                           EXTEND
000125: 33,2075           12077                           BZF      +2
000126: 33,2076           25421                           INCR     NDXCTR                                #  +1 IF IN GIMBAL LOCK, OTHERWISE 0
000127: 33,2077           05447                           TC       DOWNFLAG                              #  RESET GIMBAL LOCK FLAG
000128: 33,2100           00056                           ADRES    GLOKFAIL                              #  BIT 14 FLAG 3
000129: 33,2101           02316                           TC       IMUSTLLG
000130: 33,2102           11421                           CCS      NDXCTR                                #  IF ONE GO AND DO A PIPA TEST ONLY
000131: 33,2103           02131                           TC       PIPACHK                               #  ALIGN AND MEASURE VERTICAL PIPA RATE
000132: 33,2104           04555                           TC       BANKCALL
000133: 33,2105           17012                           CADR     IMUFINE
000134: 33,2106           02316                           TC       IMUSTLLG
000135: 33,2107           00006                           EXTEND
000136: 33,2110           31657                           DCA      PERFDLAY
000137: 33,2111           05231                           TC       LONGCALL


000139: 33,2112  30,2000                                  SBANK=   LOWSUPER
000140: 33,2112  E5,1423                                  EBANK=   POSITON
000141: 33,2112           02116 66065                     2CADR    GOESTIMS
000142:
000143: 33,2114           32121                           CA       ESTICADR
000144: 33,2115           05070                           TC       JOBSLEEP
000145: 33,2116           32121        GOESTIMS           CA       ESTICADR
000146: 33,2117           05074                           TC       JOBWAKE
000147: 33,2120           05213                           TC       TASKOVER
000148: 33,2121           66453        ESTICADR           CADR     ESTIMS


000150: 33,2122           34714        TORQUE             CA       ZERO
000151: 33,2123           55050                           TS       DSPTEM2
000152: 33,2124           31514                           CA       DRIFTI
000153: 33,2125           55051                           TS       DSPTEM2    +1
000154: 33,2126           51423                           INDEX    POSITON
000155: 33,2127           55430                           TS       SOUTHDR    -1
000156: 33,2130           02427                           TC       SHOW
000157:
000158: 33,2131           51421        PIPACHK            INDEX    NDXCTR                                #  PIPA TEST
000159: 33,2132           02133                           TC       +1
000160: 33,2133           02417                           TC       EARTHR*
000161: 33,2134           34374                           CA       DEC57
000162: 33,2135           55412                           TS       LENGTHOT
000163: 33,2136           34712                           CA       ONE
000164: 33,2137           55547                           TS       RESULTCT
000165: 33,2140           34714                           CA       ZERO
000166: 33,2141           51422                           INDEX    PIPINDEX
000167: 33,2142           54037                           TS       PIPAX
000168: 33,2143           55502                           TS       DATAPL
000169: 33,2144           55506                           TS       DATAPL     +4
000170: 33,2145           02321                           TC       CHECKG                                #  PIP PULSE CATCHING ROUTINE
000171: 33,2146           00004                           INHINT
000172: 33,2147           34711                           CAF      TWO
000173: 33,2150           05130                           TC       TWIDDLE
000174: 33,2151  E5,1671                                  EBANK=   XSM
000175: 33,2151           02153                           ADRES    PIPATASK
000176: 33,2152           05112                           TC       ENDOFJOB
000177:
000178: 33,2153           00006        PIPATASK           EXTEND
000179: 33,2154           27412                           DIM      LENGTHOT
000180: 33,2155           31412                           CA       LENGTHOT
000181: 33,2156           00006                           EXTEND
000182: 33,2157           62163                           BZMF     STARTPIP
000183: 33,2160           34701                           CAF      BIT10
000184: 33,2161           05130                           TC       TWIDDLE
000185: 33,2162  E5,1671                                  EBANK=   XSM
000186: 33,2162           02153                           ADRES    PIPATASK
000187: 33,2163           34675        STARTPIP           CAF      PRIO20
000188: 33,2164           05042                           TC       FINDVAC
000189: 33,2165  E5,1671                                  EBANK=   XSM
000190: 33,2165           02170 66065                     2CADR    PIPJOBB
000191:
000192: 33,2167           05213                           TC       TASKOVER
000193:
000194: 33,2170           51421        PIPJOBB            INDEX    NDXCTR
000195: 33,2171           02172                           TC       +1
000196: 33,2172           02417                           TC       EARTHR*
000197: 33,2173           31412                           CA       LENGTHOT
000198: 33,2174           00006                           EXTEND
000199: 33,2175           62177                           BZMF     +2
000200: 33,2176           05112                           TC       ENDOFJOB
000201: 33,2177           34715                           CA       FIVE


000203: 33,2200           55547                           TS       RESULTCT
000204: 33,2201           02321                           TC       CHECKG
000205: 33,2202           00006                           EXTEND
000206: 33,2203           41503                           DCS      DATAPL
000207: 33,2204           21507                           DAS      DATAPL     +4
000208:
000209: 33,2205           06006                           TC       INTPRET
000210: 33,2206           45345                           DLOAD    DSU
000211: 33,2207           02511                                    DATAPL     +6
000212: 33,2210           02505                                    DATAPL     +2
000213: 33,2211           45044                           BPL      CALL
000214: 33,2212           66214                                    AINGOTN
000215: 33,2213           66276                                    OVERFFIX
000216: 33,2214           56325        AINGOTN            PDDL     DDV
000217: 33,2215           02507                                    DATAPL     +4
000218: 33,2216           57212                           SL4      DMPR
000219: 33,2217           27111                                    DEC585                                #  DEC585 HAS BEEN REDEFINED FOR LEM
000220: 33,2220           77634                           RTB
000221: 33,2221           45541                                    SGNAGREE
000222: 33,2222           01051                           STORE    DSPTEM2
000223: 33,2223           77776                           EXIT
000224: 33,2224           11421                           CCS      NDXCTR
000225: 33,2225           02302                           TC       COAALIGN                              #  TAKE PLATFORM OUT OF GIMBAL LOCK
000226: 33,2226           02427                           TC       SHOW
000227: 33,2227           32447        VERTDRFT           CA       3990DEC                               #  ABOUT 1 HOUR VERTICAL DRIFT TEST
000228: 33,2230           55412                           TS       LENGTHOT
000229: 33,2231           51423                           INDEX    POSITON
000230: 33,2232           41427                           CS       SOUTHDR    -2
000231: 33,2233           55452                           TS       DRIFTT
000232: 33,2234           31675                           CA       XSM        +4                         #  0 IF POSN 4
000233: 33,2235           00006                           EXTEND
000234: 33,2236           12244                           BZF      PON2
000235: 33,2237           44706        PON4               CS       BIT5                                  #  OFFSET PLATFORM
000236: 33,2240           27651                           ADS      ERCOMP1    +2
000237: 33,2241           34706                           CA       BIT5
000238: 33,2242           27647                           ADS      ERCOMP1
000239: 33,2243           12250                           TCF      PONG
000240: 33,2244           44706        PON2               CS       BIT5
000241: 33,2245           27651                           ADS      ERCOMP1    +2
000242: 33,2246           34706                           CA       BIT5
000243: 33,2247           27653                           ADS      ERCOMP1    +4
000244: 33,2250           02417        PONG               TC       EARTHR*
000245: 33,2251           34714                           CA       ZERO                                  #  ALLOW ONLY SOUTH GYRO EARTH RATE COMPENS
000246: 33,2252           55404                           TS       ERVECTOR
000247: 33,2253           55405                           TS       ERVECTOR   +1
000248: 33,2254           34672        GUESS1             CAF      POSMAX
000249: 33,2255           55450                           TS       TORQNDX
000250: 33,2256           55451                           TS       TORQNDX    +1
000251: 33,2257           30032                           CA       CDUX
000252: 33,2260           55413                           TS       LOSVEC


000254: 33,2261           02453                           TC       ESTIMS
000255: 33,2262           31512        VALMIS             CA       DRIFTO
000256: 33,2263           55051                           TS       DSPTEM2    +1
000257: 33,2264           34714                           CA       ZERO
000258: 33,2265           55050                           TS       DSPTEM2
000259: 33,2266           02427                           TC       SHOW
000260:
000261: 33,2267           05447        ENDTEST1           TC       DOWNFLAG                              #  IMU NOT IN USE
000262: 33,2270           00007                           ADRES    IMUSE                                 #  BIT 8 FLAG 0
000263: 33,2271           44714                           CS       ZERO
000264: 33,2272           05246                           TC       NEWMODEX   +3
000265: 33,2273           04555                           TC       BANKCALL
000266: 33,2274           16063                           CADR     MKRELEAS
000267: 33,2275           05423                           TC       ENDEXT


000269:
000270: 33,2276           43215        OVERFFIX           DAD      DAD
000271: 33,2277           15340                                    DPPOSMAX
000272: 33,2300           27117                                    ONEDPP
000273: 33,2301           77616                           RVQ
000274:
000275: 33,2302           00006        COAALIGN           EXTEND                                         #  COARSE ALIGN SUBROUTINE
000276: 33,2303           23425                           QXCH     QPLACE
000277: 33,2304           34714                           CA       ZERO
000278: 33,2305           55155                           TS       THETAD
000279: 33,2306           55156                           TS       THETAD     +1
000280: 33,2307           55157                           TS       THETAD     +2
000281: 33,2310           04555                           TC       BANKCALL
000282: 33,2311           16602                           CADR     IMUCOARS
000283: 33,2312           04555                           TC       BANKCALL
000284: 33,2313           17516                           CADR     IMUSTALL
000285: 33,2314           03103                           TC       SOMERR2
000286: 33,2315           01425                           TC       QPLACE
000287:
000288: 33,2316           00006        IMUSTLLG           EXTEND
000289: 33,2317           23425                           QXCH     QPLACE
000290: 33,2320           02312                           TC       COAALIGN   +10
000291:
000292: 33,2321           00006        CHECKG             EXTEND                                         #  PIP PULSE CATCHING ROUTINE
000293: 33,2322           23425                           QXCH     QPLACE
000294: 33,2323           02331                           TC       +6
000295: 33,2324           00003        CHECKG1            RELINT
000296: 33,2325           30067                           CA       NEWJOB
000297: 33,2326           00006                           EXTEND
000298: 33,2327           62335                           BZMF     +6
000299: 33,2330           05057                           TC       CHANG1
000300: 33,2331           00004                           INHINT
000301: 33,2332           51422                           INDEX    PIPINDEX
000302: 33,2333           40037                           CS       PIPAX
000303: 33,2334           55655                           TS       ZERONDX
000304: 33,2335           00004                           INHINT
000305: 33,2336           51422                           INDEX    PIPINDEX
000306: 33,2337           30037                           CA       PIPAX
000307: 33,2340           61655                           AD       ZERONDX
000308: 33,2341           00006                           EXTEND
000309: 33,2342           12324                           BZF      CHECKG1
000310: 33,2343           51422                           INDEX    PIPINDEX
000311: 33,2344           30037                           CA       PIPAX
000312: 33,2345           51547                           INDEX    RESULTCT
000313: 33,2346           55502                           TS       DATAPL
000314: 33,2347           04526                           TC       FINETIME
000315: 33,2350           51547                           INDEX    RESULTCT
000316: 33,2351           55503                           TS       DATAPL     +1


000318: 33,2352           51547                           INDEX    RESULTCT
000319: 33,2353           23504                           LXCH     DATAPL     +2
000320: 33,2354           00003                           RELINT
000321: 33,2355           01425        ENDCHKG            TC       QPLACE
000322:
000323: 33,2356           54001        ZEROING            TS       L
000324: 33,2357           12361                           TCF      +2
000325: 33,2360           55655        ZEROING1           TS       ZERONDX1
000326: 33,2361           34714                           CAF      ZERO
000327: 33,2362           50001                           INDEX    L
000328: 33,2363           54000                           TS       0
000329: 33,2364           24001                           INCR     L
000330: 33,2365           11655                           CCS      ZERONDX1
000331: 33,2366           12360                           TCF      ZEROING1
000332: 33,2367           00002                           TC       Q
000333:


000335: 32,2000                                           SETLOC   IMUCAL3
000336: 32,2000                                           BANK
000337: 32,2000           65345        ERTHRVSE           DLOAD    PDDL
000338: 32,2001           27112                                    SCHZEROS                              #  PD24 = (SIN          -COS    0)(OMEG/MS)
000339: 32,2002           02403                                    LATITUDE
000340: 32,2003           57546                           COS      DCOMP
000341: 32,2004           73525                           PDDL     SIN
000342: 32,2005           02403                                    LATITUDE
000343: 32,2006           74266                           VDEF     VXSC
000344: 32,2007           26450                                    OMEG/MS
000345: 32,2010           02405                           STORE    ERVECTOR
000346: 32,2011           77634                           RTB
000347: 32,2012           45505                                    LOADTIME
000348: 32,2013           26443                           STOVL    TMARK
000349: 32,2014           27112                                    SCHZEROS
000350: 32,2015           02650                           STORE    ERCOMP1
000351: 32,2016           77616                           RVQ
000352: 33,2000                                           SETLOC   IMUCAL
000353: 33,2000                                           BANK
000354:
000355: 33,2370           47020        EARTHR             ITA      RTB                                   #  CALCULATES AND COMPENSATES EARTH RATE
000356: 33,2371           00051                                    S2
000357: 33,2372           45505                                    LOADTIME
000358: 33,2373           02441                           STORE    TEMPTIME
000359: 33,2374           51025                           DSU      BPL
000360: 33,2375           02443                                    TMARK
000361: 33,2376           66401                                    ERTHR
000362: 33,2377           77624                           CALL
000363: 33,2400           66276                                    OVERFFIX
000364: 33,2401           74261        ERTHR              SL       VXSC
000365: 33,2402           20212                                    9D
000366: 33,2403           02405                                    ERVECTOR
000367: 33,2404           53321                           MXV      VAD
000368: 33,2405           02672                                    XSM
000369: 33,2406           02650                                    ERCOMP1
000370: 33,2407           16650                           STODL    ERCOMP1
000371: 33,2410           02441                                    TEMPTIME
000372: 33,2411           02443                           STORE    TMARK
000373: 33,2412           47170                           AXT,1    RTB
000374: 33,2413           02647                           ECADR    ERCOMP1
000375: 33,2414           45650                                    PULSEIMU
000376: 33,2415           77650                           GOTO
000377: 33,2416           00051                                    S2
000378:
000379: 33,2417           00006        EARTHR*            EXTEND
000380: 33,2420           23426                           QXCH     QPLACES
000381: 33,2421           06006                           TC       INTPRET
000382: 33,2422           77624                           CALL
000383: 33,2423           66370                                    EARTHR
000384: 33,2424           77776        PROUT              EXIT
000385: 33,2425           02316                           TC       IMUSTLLG
000386: 33,2426           01426                           TC       QPLACES


000388:
000389: 33,2427           00006        SHOW               EXTEND
000390: 33,2430           23425                           QXCH     QPLACE
000391: 33,2431           31423        SHOW1              CA       POSITON
000392: 33,2432           55052                           TS       DSPTEM2    +2
000393: 33,2433           32442                           CA       VB06N98
000394: 33,2434           04555                           TC       BANKCALL
000395: 33,2435           20624                           CADR     GOFLASH
000396: 33,2436           02267                           TC       ENDTEST1                              #  V34
000397: 33,2437           01425                           TC       QPLACE                                #  V33
000398: 33,2440           12431                           TCF      SHOW1
000399:
000400: 33,2441           14400        OC14400            OCT      14400
000401: 33,2442  33,2447               3990DEC            =        OMEG/MS
000402: 33,2442           01542        VB06N98            VN       0698
000403: 33,2443           01602        TESTTIME           OCT      01602
000404: 33,2444     4375               DEC17              =        ND1
000405: 33,2444           02757        OGCPL              ECADR    OGC
000406: 33,2445     4734               1SECX              =        1SEC
000407: 33,2445     4374               DEC57              =        VD1
000408: 33,2445           01713        XNBADR             GENADR   XNB
000409: 33,2446           01671        XSMADR             GENADR   XSM
000410: 33,2447           07623 26552  OMEG/MS            2DEC     .24339048
000411:
000412: 33,2451           04555        P11OUT             TC       BANKCALL
000413: 33,2452           70127                           CADR     MATRXJOB                              #  RETURN TO P11
000414:
000415: 33,2453                                           COUNT    02.COMST
000416:
000417:    4526                                           BLOCK    2
000418:
000419:    4526           00004        FINETIME           INHINT                                         #  RETURNS WITH INTERRUPT INHIBITED
000420:    4527           00006                           EXTEND
000421:    4530           00004                           READ     LOSCALAR
000422:    4531           54001                           TS       L
000423:    4532           00006                           EXTEND
000424:    4533           06004                           RXOR     LOSCALAR
000425:    4534           00006                           EXTEND
000426:    4535           14541                           BZF      +4
000427:    4536           00006                           EXTEND
000428:    4537           00004                           READ     LOSCALAR
000429:    4540           54001                           TS       L
000430:    4541           44672                 +4        CS       POSMAX
000431:    4542           60001                           AD       L
000432:    4543           00006                           EXTEND
000433:    4544           14527                           BZF      FINETIME   +1
000434:    4545           00006                           EXTEND
000435:    4546           00003                           READ     HISCALAR
000436:    4547           00002                           TC       Q
000437:


000439:                                                                                                  #  PROGRAM NAME-OPTIMUM PRELAUNCH ALIGNMENT CALIBRATION
000440:                                                                                                  #  DATE-  NOVEMBER 2 1966
000441:                                                                                                  #  BY-  GEORGE SCHMIDT IL 7-146 EXT. 126
000442:                                                                                                  #  MOD NO 3
000443:
000444:                                                                                                  #  FUNCTIONAL DESCRIPTION
000445:
000446:                                                                                                  #  THIS SECTION CONSISTS OF PRELAUNCH ALIGNMENT AND GYRO DRIFT TESTS
000447:                                                                                                  #  INTEGRATED TOGETHER TO SAVE WORDS.  COMPASS IS COMPLETELY RESTART
000448:                                                                                                  #  PROOFED EXCEPT FOR THE FIRST 30 SECONDS OR SO.  PERFORMANCE TESTS OF
000449:                                                                                                  #  THE IRIGS IS RESTART PROOFED ENOUGH TO GIVE 75 PERCENT CONFIDENCE THAT
000450:                                                                                                  #  IF A RESTART OCCURS THE DATA WILL STILL BE GOOD.  GOOD PRACTICE TO RECYCL
000451:                                                                                                  #  WHEN A RESTART OCCURS UNLESS IT HAPPENS NEAR THE END OF A TEST-THEN WAIT
000452:                                                                                                  #  FOR THE DATA TO FLASH.
000453:
000454:                                                                                                  #  A RESTART IN GYROCOMPASS DURING GYRO TORQUING CAUSES PULSES TO BE LOST
000455:                                                                                                  #  THE PRELAUNCH ALIGNMENT TECHNIQUE IS BASICALLY THE SAME AS IN BLOCK 1
000456:                                                                                                  #  EXCEPT THAT IT HAS BEEN SIMPLIFIED IN THE SENSE THAT SMALL ANGLE APPROX.
000457:                                                                                                  #  HAVE BEEN USED.  THE DRIFT TESTS USE A UNIQUE IMPLEMENTATION OF THE
000458:                                                                                                  #  OPTIMUM STATISTICAL FILTER.  FOR A DESCRIPTION SEE E-1973.  BOTH OF THESE
000459:                                                                                                  #  ROUTINES USE STANDARD SYSTEM TEST LEADIN PROCEDURES.  THE INITIALIZATION
000460:                                                                                                  #  PROCEDURE FOR THE DRIFT TESTS IS IN THE JDC S.  THE INITIALIZATION METHOD
000461:                                                                                                  #  FOR GYROCOMPASS IS AN ERAS LOAD THEN A MISSION PHASE CALL.
000462:                                                                                                  #  THE COMPASS ALIGNS TO Z DOWN, X DOWNRANGE, HAS THE CAPABILITY
000463:                                                                                                  #  CHANGE AZIMUTH WHILE RUNNING, IS COMPENSATED FOR
000464:                                                                                                  #  COMPONENT ERRORS, IS CAPABLE OF OPTICAL VERIFICATION (CSM ONLY).
000465:
000466:                                                                                                  #  COMPASS ERASABLE LOAD REQUIRED
000467:
000468:                                                                                                  #        1-      LAUNCHAZ-DP AZIMUTH IN REV FROM NORTH OF XSM DESIRED    (NOM=.2)
000469:                                                                                                  #        2-      LATITUDE-DP-OF LAUNCH PAD
000470:                                                                                                  #        3-      AZIMUTH-DP-OF ZNB OF VEHICLE
000471:                                                                                                  #        4-      IMU COMPENSATION PARAMETERS
000472:                                                                                                  #        5-      AZ AND ELEVATION OF TARGETS 1,2         ****OPTIONAL****
000473:
000474:                                                                                                  #  TO PERFORM AS PART OF COMPASS
000475:
000476:                                                                                                  #        1-      OPTICAL VERIFICATION- V 65 E
000477:                                                                                                  #        2-      AZIMUTH CHANGE- V 78 E
000478:
000479:                                                                                                  #  SUBROUTINES CALLED
000480:
000481:                                                                                                  #  DURING OPTICAL VERIFICATION (CSM ONLY) ESSENTIALLY ALL OF INFLIGHT ALIGN
000482:                                                                                                  #  IS CALLED IN ONE WAY OR ANOTHER.  SEE THE LISTING.
000483:
000484:                                                                                                  #  NORMAL EXIT
000485:
000486:                                                                                                  #  DRIFT TESTS-  LENGTHOT GOES TO ZERO-RETURN TO IMU PERF TEST2 CONTROL
000487:                                                                                                  #  GYROCOMPASS-MANY, SEE THE LISTING
000488:
000489:                                                                                                  #  ALARMS
000490:
000491:                                                                                                  #  1600  OVERFLOW IN DRIFT TEST


000493:                                                                                                  #  1601  BAD IMU TORQUE ABORT
000494:                                                                                                  #  1602  BAD OPTICS DURING VERIFICATION-RETURN TO COMPASS        CSM ONLY
000495:
000496:                                                                                                  #  OUTPUT
000497:
000498:                                                                                                  #  DRIFT TESTS-  FLASHING DISPLAYS OF RESULTS-CONTROLLED IN IMU PERF TESTS 2
000499:                                                                                                  #  COMPASS-PROGRAM MODE LIGHTS TELL YOU WHAT PHASE OF PROGRAM YOU ARE IN
000500:                                                                                                  #        01      INITIALIZING THE PLATFORM POSITION AND ERASABLE
000501:                                                                                                  #        02      GYROCOMPASSING
000502:                                                                                                  #        03      DOING OPTICAL VERIFICATION (CSM)
000503:
000504:                                                                                                  #  DEBRIS
000505:
000506:                                                                                                  #  ALL CENTRALS, ALL OF EBANK XSM
000507:


000509:                                                                                                  #  MOST OF THE ROUTINES COMMON TO ALIGNMENT AND CALIBRATION APPEAR
000510:                                                                                                  #  ON THE NEXT FEW PAGES.
000511:
000512:    4550                                           COUNT    33/P02
000513:
000514:    4550  E5,1671                                  EBANK=   XSM
000515: 33,2453                                           BANK     33
000516: 33,2000                                           SETLOC   IMUCAL
000517: 33,2000                                           BANK
000518:
000519: 33,2453           05261        ESTIMS             TC       2PHSCHNG                              #  COMES HERE FROM IMU2
000520: 33,2454           00075                           OCT      00075
000521: 33,2455           00004                           OCT      00004                                 #  TURN OFF GROUP 4 IF ON
000522:
000523:
000524: 33,2456           00004        RSTGTS1            INHINT                                         #  COMES HERE PHASE1 RESTART
000525: 33,2457           30025                           CA       TIME1
000526: 33,2460           55645                           TS       GTSWTLT1
000527: 33,2461           34714                           CAF      ZERO                                  #  ZERO THE PIPAS
000528: 33,2462           54037                           TS       PIPAX
000529: 33,2463           54040                           TS       PIPAY
000530: 33,2464           54041                           TS       PIPAZ
000531: 33,2465           00003                           RELINT
000532: 33,2466           33130                           CA       77DECML                               #  ZERO ALL NECESSARY LOCATIONS
000533: 33,2467           55655                           TS       ZERONDX1
000534: 33,2470           33131                           CA       ALXXXZ
000535: 33,2471           02356                           TC       ZEROING
000536: 33,2472           06006                           TC       INTPRET
000537: 33,2473           77735                           SLOAD
000538: 33,2474           27112                                    SCHZEROS
000539: 33,2475           25477                           STOVL    GCOMPSW    -1
000540: 33,2476           27123                                    INTVAL     +2                         #  LOAD SOME INITIAL DRIFT GAINS
000541: 33,2477           26455                           STOVL    ALX1S
000542: 33,2500           27112                                    SCHZEROS
000543: 33,2501           01472                           STORE    GCOMP
000544: 33,2502           01163                           STORE    DELVX                                 #  GCOMPZER SUBROUTINE NO LONGER NEEDED
000545: 33,2503           77776                           EXIT
000546:
000547: 33,2504           11643                           CCS      GEOCOMP1                              #  NON ZERO IF COMPASS.
000548: 33,2505           02507                           TC       +2
000549: 33,2506           02523                           TC       SLEEPIE    +1
000550: 33,2507           06006                           TC       INTPRET
000551: 33,2510           77624                           CALL
000552: 33,2511           64000                                    ERTHRVSE
000553: 33,2512           77776                           EXIT
000554: 33,2513           31412                           CA       LENGTHOT                              #  TIMES FIVE IS THE NUM OF SEC ERECTING
000555: 33,2514           55646                           TS       ERECTIME
000556:
000557: 33,2515           05243                           TC       NEWMODEX
000558: 33,2516           00002                           MM       02         B-14
000559: 33,2517           04555                           TC       BANKCALL                              #  SET UP PIPA FAIL TO CAUSE ISS ALARM


000561: 33,2520           17075                           CADR     PIPUSE                                #  COMPASS NEVER TURNS THIS OFF
000562: 33,2521           03376                           TC       ANNNNNN                               #  END OF FIRST TIME THROUGH
000563:


000565:                                                                                                  #  COMES HERE AT THE END OF EVERY ITERATION THROUGH DRIFT TEST OR COMPASS
000566:
000567:                                                                                                  #  SET UP WAITLIST SECTION
000568: 33,2522           55412        SLEEPIE            TS       LENGTHOT                              #  TEST NOT OVER-DECREMENT LENGTHOT
000569: 33,2523           05301                           TC       PHASCHNG                              #  CHANGE PHASE
000570: 33,2524           00135                           OCT      00135
000571: 33,2525           11450                           CCS      TORQNDX                               #  ARE WE DOING VERTDRIFT
000572: 33,2526           02417                           TC       EARTHR*                               #  TRUE TORQUE SOUTH GYRO
000573: 33,2527           03401        WTLISTNT           TC       CHKCOMED                              #  SEE IF COMPASS OVER
000574: 33,2530           02532                           TC       SETGWLST
000575: 33,2531           05112                           TC       ENDOFJOB
000576:
000577: 33,2532           00006        SETGWLST           EXTEND
000578: 33,2533           22154                           QXCH     MPAC                                  #  CALLED EVERY WAITLIST OR AZIMUTH CHANGE
000579: 33,2534           00004                           INHINT
000580: 33,2535           40025                           CS       TIME1
000581: 33,2536           61645                           AD       GTSWTLT1
000582: 33,2537           00006                           EXTEND
000583: 33,2540           62542                           BZMF     +2
000584: 33,2541           64674                           AD       NEGMAX                                #  10 MS ERROR OK
000585: 33,2542           61644                           AD       1SECXT1                               #  1 SEC FOR CALIBRATION, .5 SEC IN COMPASS
000586: 33,2543           00006                           EXTEND
000587: 33,2544           62550                           BZMF     RIGHTGTS
000588: 33,2545           05130        WTGTSMPL           TC       TWIDDLE
000589: 33,2546  E5,1540                                  EBANK=   ALTIM
000590: 33,2546           02575                           ADRES    ALLOOP
000591: 33,2547           00154                           TC       MPAC
000592: 33,2550           34710        RIGHTGTS           CAF      FOUR                                  #  SET UP NEXT WAITLIST-ALLOW SOME TIME
000593: 33,2551           02545                           TC       WTGTSMPL                              #  END OF WAITLIST SECTION
000594:
000595:                                                                                                  #  STORE AND LOAD DATA SECTIONS FOR RESTART PROOFING
000596:
000597: 33,2552           00031        25DECML            DEC      25         B-14
000598:
000599: 33,2553           32552        STOREDTA           CAF      25DECML
000600: 33,2554           54154                           TS       MPAC
000601: 33,2555           50154                           INDEX    MPAC
000602: 33,2556           31460                           CAE      THETAX1
000603: 33,2557           50154                           INDEX    MPAC
000604: 33,2560           55577                           TS       RESTARPT
000605: 33,2561           10154                           CCS      MPAC
000606: 33,2562           12554                           TCF      STOREDTA   +1
000607: 33,2563           00002                           TC       Q
000608: 33,2564           32552        LOADSTDT           CAF      25DECML
000609: 33,2565           54154                           TS       MPAC
000610: 33,2566           50154                           INDEX    MPAC
000611: 33,2567           31577                           CA       RESTARPT


000613: 33,2570           50154                           INDEX    MPAC
000614: 33,2571           55460                           TS       THETAX1
000615: 33,2572           10154                           CCS      MPAC
000616: 33,2573           12565                           TCF      LOADSTDT   +1
000617: 33,2574           00002                           TC       Q
000618:
000619:                                                                                                  #  COMES HERE EVERY ITERATION BY A WAITLIST CALL SET IN SLEEPIE
000620:
000621: 33,2575           30025        ALLOOP             CAE      TIME1
000622: 33,2576           55645                           TS       GTSWTLT1                              #  STORE TIME TO SET UP NEXT WAITLIST.
000623: 33,2577           31540        ALLOOP3            CA       ALTIM
000624: 33,2600           55631                           TS       GEOSAVE1
000625: 33,2601           05301                           TC       PHASCHNG
000626: 33,2602           00115                           OCT      00115
000627: 33,2603           31631        ALLOOP1            CAE      GEOSAVE1
000628: 33,2604           55540                           TS       ALTIM
000629: 33,2605           10000                           CCS      A
000630: 33,2606           30000                           CA       A                                     #  SHOULD NEVER HIT THIS LOCATION
000631: 33,2607           55541                           TS       ALTIMS
000632: 33,2610           40000                           CS       A
000633: 33,2611           55540                           TS       ALTIM
000634: 33,2612           34714                           CAF      ZERO
000635: 33,2613           56037                           XCH      PIPAX
000636: 33,2614           55162                           TS       DELVX
000637: 33,2615           34714                           CAF      ZERO
000638: 33,2616           56040                           XCH      PIPAY
000639: 33,2617           55164                           TS       DELVY
000640: 33,2620           34714                           CAF      ZERO
000641: 33,2621           56041                           XCH      PIPAZ
000642: 33,2622           55166                           TS       DELVZ
000643: 33,2623           34374                           CAF      19DECML                               #  23 OCT
000644: 33,2624           04114                           TC       NEWPHASE
000645: 33,2625           00005                           OCT      00005
000646: 33,2626           34675        SPECSTS            CAF      PRIO20
000647: 33,2627           05042                           TC       FINDVAC
000648: 33,2630  E5,1631                                  EBANK=   GEOSAVE1
000649: 33,2630           02633 66065                     2CADR    ALFLT                                 #  START THE JOB
000650:
000651: 33,2632           05213                           TC       TASKOVER
000652:


000654:                                                                                                  #  THIS IS PART OF THE JOB DONE EVERY ITERATION
000655:
000656: 33,2633           02553        ALFLT              TC       STOREDTA                              #  STORE DATA IN CASE OF RESTART IN JOB
000657: 33,2634           05301                           TC       PHASCHNG                              #  THIS IS THE JOB DONE EVERY ITERATION
000658: 33,2635           00215                           OCT      00215
000659: 33,2636           12640                           TCF      +2
000660: 33,2637           02564        ALFLT1             TC       LOADSTDT                              #  COMES HERE ON RESTART
000661:
000662: 33,2640           11643                           CCS      GEOCOMP1
000663: 33,2641           02643                           TC       +2
000664: 33,2642           02646                           TC       NORMLOP
000665: 33,2643           03401                           TC       CHKCOMED                              #  SEE IF PRELAUNCH OVER
000666: 33,2644           04555                           TC       BANKCALL                              #  COMPENSATION IF IN COMPASS
000667: 33,2645           15262                           CADR     1/PIPA
000668: 33,2646           06006        NORMLOP            TC       INTPRET
000669: 33,2647           77745                           DLOAD
000670: 33,2650           27121                                    INTVAL
000671: 33,2651           24051                           STOVL    S1
000672: 33,2652           01163                                    DELVX
000673: 33,2653           76505                           VXM      VSL1
000674: 33,2654           02672                                    XSM
000675: 33,2655           57545                           DLOAD    DCOMP
000676: 33,2656           00160                                    MPAC       +3
000677: 33,2657           16533                           STODL    DPIPAY
000678: 33,2660           00162                                    MPAC       +5
000679: 33,2661           02537                           STORE    DPIPAZ
000680:
000681: 33,2662           76001                           SETPD    AXT,1
000682: 33,2663           00001                                    0
000683: 33,2664           00010                                    8D
000684: 33,2665           57535                           SLOAD    DCOMP
000685: 33,2666           02644                                    GEOCOMP1
000686: 33,2667           77640                           BMN
000687: 33,2670           67203                                    ALWAYSG                               #  DO A QUICK COMPASS
000688:


000690:                                                                                                  #  NOW WE HAVE JUST THE CALIBRATION PARTS OF THE PROGRAM-NEXT PAGES
000691:
000692: 33,2671                                           COUNT    33/COMST
000693:
000694: 33,2671           50135        ALCGKK             SLOAD    BMN
000695: 33,2672           02542                                    ALTIMS
000696: 33,2673           66706                                    ALFLT3                                #  NO NEW GAINS NEEDED
000697: 33,2674           72174        ALKCG              AXT,2    LXA,1                                 #  LOADS SLOPES AND TIME CONSTANTS AT RQST
000698: 33,2675           00014                                    12D
000699: 33,2676           02454                                    ALX1S
000700: 33,2677           62143        ALKCG2             DLOAD*   INCR,1
000701: 33,2700           02243                                    ALFDK      +144D,1
000702: 33,2701           77775                           DEC      -2         B-14
000703: 33,2702           12555                           STORE    ALDK       +10D,2
000704: 33,2703           66104                           TIX,2    SXA,1
000705: 33,2704           66677                                    ALKCG2
000706: 33,2705           02454                                    ALX1S
000707:
000708: 33,2706           77770        ALFLT3             AXT,1                                          #  MEASUREMENT INCORPORATION ROUTINES
000709: 33,2707           00010                                    8D                                    #  AND GAIN UPDATES
000710: 33,2710           41343        DELMLP             DLOAD*   DMP
000711: 33,2711           02543                                    DPIPAY     +8D,1
000712: 33,2712           27675                                    PIPASC
000713: 33,2713           43661                           SLR      BDSU*
000714: 33,2714           21212                                    9D
000715: 33,2715           02511                                    INTY       +8D,1
000716: 33,2716           06511                           STORE    INTY       +8D,1
000717: 33,2717           40725                           PDDL     DMP*
000718: 33,2720           27677                                    VELSC
000719: 33,2721           02531                                    VLAUN      +8D,1
000720: 33,2722           77732                           SL2R
000721: 33,2723           45425                           DSU      STADR
000722: 33,2724           71206                           STORE    DELM       +8D,1
000723: 33,2725           06573                           STORE    DELM       +10D,1
000724: 33,2726           77100                           TIX,1    AXT,2
000725: 33,2727           66710                                    DELMLP
000726: 33,2730           00004                                    4
000727: 33,2731           56743        ALILP              DLOAD*   DMPR*
000728: 33,2732           75314                                    ALK        +4,2
000729: 33,2733           75230                                    ALDK       +4,2
000730: 33,2734           12463                           STORE    ALK        +4,2
000731: 33,2735           77104                           TIX,2    AXT,2
000732: 33,2736           66731                                    ALILP
000733: 33,2737           00010                                    8D
000734: 33,2740           66140        ALKLP              LXC,1    SXA,1
000735: 33,2741           02455                                    CMPX1
000736: 33,2742           02455                                    CMPX1
000737: 33,2743           56743                           DLOAD*   DMPR*
000738: 33,2744           02460                                    ALK        +1,1
000739: 33,2745           75206                                    DELM       +8D,2


000741: 33,2746           77613                           DAD*
000742: 33,2747           75266                                    INTY       +8D,2
000743: 33,2750           12511                           STORE    INTY       +8D,2
000744: 33,2751           42743                           DLOAD*   DAD*
000745: 33,2752           75304                                    ALK        +12D,2
000746: 33,2753           75220                                    ALDK       +12D,2
000747: 33,2754           12473                           STORE    ALK        +12D,2
000748: 33,2755           42673                           DMPR*    DAD*
000749: 33,2756           75206                                    DELM       +8D,2
000750: 33,2757           75256                                    INTY       +16D,2
000751: 33,2760           12521                           STORE    INTY       +16D,2
000752: 33,2761           40743                           DLOAD*   DMP*
000753: 33,2762           27702                                    ALSK       +1,1
000754: 33,2763           75206                                    DELM       +8D,2
000755: 33,2764           42772                           SL1R     DAD*
000756: 33,2765           75246                                    VLAUN      +8D,2
000757: 33,2766           12531                           STORE    VLAUN      +8D,2
000758: 33,2767           76104                           TIX,2    AXT,1
000759: 33,2770           66740                                    ALKLP
000760: 33,2771           00010                                    8D
000761:
000762: 33,2772           64743        LOOSE              DLOAD*   PDDL*                                 #  EXTRAPOLATE SWAY VARIABLES
000763: 33,2773           02533                                    ACCWD      +8D,1
000764: 33,2774           02531                                    VLAUN      +8D,1
000765: 33,2775           55523                           PDDL*    VDEF
000766: 33,2776           02541                                    POSNV      +8D,1
000767: 33,2777           76521                           MXV      VSL1
000768: 33,3000           02001                                    TRANSM1
000769: 33,3001           77745                           DLOAD
000770: 33,3002           00155                                    MPAC
000771: 33,3003           06541                           STORE    POSNV      +8D,1
000772: 33,3004           77745                           DLOAD
000773: 33,3005           00160                                    MPAC       +3
000774: 33,3006           06531                           STORE    VLAUN      +8D,1
000775: 33,3007           77745                           DLOAD
000776: 33,3010           00162                                    MPAC       +5
000777: 33,3011           06533                           STORE    ACCWD      +8D,1
000778: 33,3012           77700                           TIX,1
000779: 33,3013           66772                                    LOOSE
000780:
000781: 33,3014           76174                           AXT,2    AXT,1                                 #  EVALUATE SINES AND COSINES
000782: 33,3015           00006                                    6
000783: 33,3016           00002                                    2
000784: 33,3017           57343        BOOP               DLOAD*   DMPR
000785: 33,3020           02513                                    ANGX       +2,1
000786: 33,3021           27705                                    GEORGEJ
000787: 33,3022           77722                           SR2R
000788: 33,3023           73406                           PUSH     SIN


000790: 33,3024           56072                           SL3R     XAD,1
000791: 33,3025           00046                                    X1
000792: 33,3026           10021                           STORE    16D,2
000793: 33,3027           77745                           DLOAD
000794: 33,3030           77746                           COS
000795: 33,3031           10027                           STORE    22D,2                                 #  COSINES
000796: 33,3032           77704                           TIX,2
000797: 33,3033           67017                                    BOOP
000798:
000799: 33,3034           77776        PERFERAS           EXIT
000800: 33,3035           34753                           CA       EBANK7
000801: 33,3036  E7,1400                                  EBANK=   LAT(SPL)
000802: 33,3036           54003                           TS       EBANK
000803: 33,3037           01400                           TC       LAT(SPL)                              #  GOTO ERASABLE ONLY TO RETURN
000804:
000805:                                                                                                  #  CAUTION
000806:
000807:                                                                                                  #  THE ERASABLE PROGRAM THAT DOES THE CALCULATIONS MUST BE LOADED
000808:                                                                                                  #  BEFORE ANY ATTEMPT IS MADE TO RUN THE IMU PERFORMANCE TEST
000809:
000810: 33,3040  E5,1412                                  EBANK=   LENGTHOT
000811: 33,3040           11412        ONCEMORE           CCS      LENGTHOT
000812: 33,3041           02522                           TC       SLEEPIE                               #  TEST NOT OVER SET UP NEXT WAITLIST
000813: 33,3042           11450                           CCS      TORQNDX
000814: 33,3043           13045                           TCF      +2
000815: 33,3044           03047                           TC       SETUPER1
000816: 33,3045           30032                           CA       CDUX
000817: 33,3046           55414                           TS       LOSVEC     +1                         #  FOR TROUBLESHOOTING POSNS 2$4 VD
000818:
000819: 33,3047           06006        SETUPER1           TC       INTPRET                               #  DRIFT TEST OVER
000820: 33,3050           65345                           DLOAD    PDDL                                  #  ANGLES FROM DRIFT TEST ONLY
000821: 33,3051           02503                                    ANGZ
000822: 33,3052           02507                                    ANGY
000823: 33,3053           55525                           PDDL     VDEF
000824: 33,3054           02511                                    ANGX
000825: 33,3055           74276                           VCOMP    VXSC
000826: 33,3056           27705                                    GEORGEJ
000827: 33,3057           74521                           MXV      VSR1
000828: 33,3060           02672                                    XSM
000829: 33,3061           02760                           STORE    OGC
000830: 33,3062           77776                           EXIT
000831:
000832: 33,3063           05301        TORQINCH           TC       PHASCHNG
000833: 33,3064           00005                           OCT      00005
000834:
000835: 33,3065           32444                           CA       OGCPL
000836: 33,3066           04555                           TC       BANKCALL
000837: 33,3067           17125                           CADR     IMUPULSE
000838: 33,3070           02316                           TC       IMUSTLLG
000839: 33,3071           11450                           CCS      TORQNDX                               #  + IF IN VERTICAL DRIFT TEST
000840: 33,3072           02262                           TC       VALMIS                                #  VERT DRIFT TEST OVER
000841: 33,3073           06006                           TC       INTPRET


000843: 33,3074           77624                           CALL                                           #  SET UP ERATE FOR PIP TEST OR COMPASS
000844: 33,3075           64000                                    ERTHRVSE
000845: 33,3076           77776                           EXIT
000846: 33,3077           02122                           TC       TORQUE                                #  GO TO IMU2 FOR A PIPA TEST AND DISPLAY
000847:
000848: 33,3100           05537        SOMEERR            TC       ALARM
000849: 33,3101           01600                           OCT      1600
000850: 33,3102           03105                           TC       +3
000851: 33,3103           05537        SOMERR2            TC       ALARM
000852: 33,3104           01601                           OCT      1601
000853: 33,3105           05301                           TC       PHASCHNG
000854: 33,3106           00005                           OCT      00005
000855: 33,3107           02267                           TC       ENDTEST1
000856:
000857:                                                                                                  #  THE FAMOUS MAGIC NUMBERS OF SCHMIDT ARE NOW PART OF AN ERASABLE LOAD.
000858:
000859: 33,3110           02222        DEC585             OCT      02222                                 #  1170 B+14 ORDER IS NOW IMPORTANT
000860: 33,3111           00000 00000  SCHZEROS           2DEC     .00000000
000861: 33,3113           00000 00000                     2DEC     .00000000
000862: 33,3115           00000                           OCT      00000
000863: 33,3116           00000        ONEDPP             OCT      00000
000864: 33,3117           00001                           OCT      00001                                 #  ABOVE ORDER IS IMPORTANT
000865:
000866: 33,3120           00004        INTVAL             OCT      4
000867: 33,3121           00002                           OCT      2
000868: 33,3122           00220                           DEC      144        B-14
000869: 33,3123           77776                           DEC      -1         B-14
000870: 33,3124           35730 00035  SOUPLY             2DEC     .93505870                             #  INITIAL GAINS FOR PIP OUTPUTS
000871: 33,3126           10317 17550                     2DEC     .26266423                             #  INITIAL GAINS/4 FOR ERECTION ANGLES
000872:
000873: 33,3130           00115        77DECML            DEC      77         B-14
000874: 33,3131           01453        ALXXXZ             GENADR   ALX1S      -1
000875:
000876:                                                                                                  #  GYROCOMPASS PORTIONS FINISH THIS LOG SECTION
000877:
000878: 33,3132                                           COUNT    33/P01
000879:
000880:                                                                                                  #  INITIALIZATION SECTION
000881:
000882: 33,3132           34712        GTSCPSS            CAF      ONE                                   #  CALLED BY V37.
000883: 33,3133           55643                           TS       GEOCOMP1                              #  THIS IS THE LEAD IN FOR COMPASS.


000885: 33,3134           33424                           CA       1/PIPAGT
000886: 33,3135           55074                           TS       1/PIPADT
000887: 33,3136           34703        NXXTENN            CA       BIT8
000888: 33,3137           55412                           TS       LENGTHOT
000889: 33,3140           34731                           CAF      1/2SECX                               #  COMPASS IS A .5 SEC LOOP
000890: 33,3141           55644                           TS       1SECXT1
000891: 33,3142           34712                           CAF      ONE
000892: 33,3143           55632                           TS       PREMTRX1
000893: 33,3144           55657                           TS       PERFDLAY   +1
000894: 33,3145           34714                           CAF      ZERO
000895: 33,3146           55656                           TS       PERFDLAY
000896: 33,3147           00006                           EXTEND
000897: 33,3150           31634                           DCA      LUNCHAZ1
000898: 33,3151           53636                           DXCH     NEWAZ1
000899: 33,3152           00006                           EXTEND
000900: 33,3153           31634                           DCA      LUNCHAZ1
000901: 33,3154           53640                           DXCH     OLDAZMTH
000902: 33,3155           34375        SETUPGC            CA       DEC17
000903: 33,3156           55655                           TS       ZERONDX1
000904: 33,3157           32446                           CA       XSMADR
000905: 33,3160           02356                           TC       ZEROING
000906: 33,3161           03163                           TC       POSN17C
000907: 33,3162           02030                           TC       GEOIMUTT                              #  GO TO IMU2 FOR FURTHER INITIALIZATION
000908: 33,3163           00006        POSN17C            EXTEND                                         #  COMPASS POSITION Z DOWN, X DOWNRANGE
000909: 33,3164           23425                           QXCH     QPLACE                                #  FROM NORTH IN REVOLUTIONS + CLOCKWSE
000910: 33,3165           44675                           CS       HALF                                  #  ALL THIS TO INITIALIZE MATRIX
000911: 33,3166           55705                           TS       ZSM
000912: 33,3167           06006                           TC       INTPRET
000913: 33,3170           41545                           DLOAD    PUSH
000914: 33,3171           02636                                    NEWAZ1
000915: 33,3172           77756                           SIN
000916: 33,3173           02676                           STORE    XSM        +4
000917: 33,3174           16702                           STODL    YSM        +2
000918: 33,3175           77746                           COS
000919: 33,3176           02704                           STORE    YSM        +4
000920: 33,3177           77676                           DCOMP
000921: 33,3200           02674                           STORE    XSM        +2
000922: 33,3201           77776                           EXIT
000923: 33,3202           01425                           TC       QPLACE
000924:
000925:                                                                                                  #  JOB DONE EVERY ITERATION THROUGH COMPASS PROGRAM.  SET BY TASK ALLOOP
000926:
000927: 33,3203                                           COUNT    33/P02
000928:
000929: 33,3203           44743        ALWAYSG            DLOAD*   DSU*                                  #  COMPASS AND ERECT
000930: 33,3204           02543                                    DPIPAY     +8D,1
000931: 33,3205           02505                                    FILDELV1   +8D,1


000933: 33,3206           42675                           DMPR     DAD*
000934: 33,3207           27713                                    GEOCONS1
000935: 33,3210           02505                                    FILDELV1   +8D,1
000936: 33,3211           06505                           STORE    FILDELV1   +8D,1
000937: 33,3212           77613                           DAD*
000938: 33,3213           02507                                    INTVEC1    +8D,1
000939: 33,3214           06507                           STORE    INTVEC1    +8D,1
000940: 33,3215           42675                           DMPR     DAD*
000941: 33,3216           27715                                    GEOCONS2
000942: 33,3217           02505                                    FILDELV1   +8D,1
000943: 33,3220           41475                           DMPR     PUSH
000944: 33,3221           15330                                    GEOCONS5
000945: 33,3222           67300                           TIX,1    SLOAD
000946: 33,3223           67203                                    ALWAYSG
000947: 33,3224           02647                                    ERECTIM1
000948: 33,3225           71254                           BZE      DLOAD
000949: 33,3226           67237                                    COMPGS
000950: 33,3227           02471                                    THETAN1    +2
000951: 33,3230           45425                           DSU      STADR
000952: 33,3231           61306                           STODL    THETAN1    +2                         #  ERECTION ONLY.
000953: 33,3232           77621                           BDSU
000954: 33,3233           02473                                    THETAN1    +4
000955: 33,3234           02473                           STORE    THETAN1    +4
000956: 33,3235           77650                           GOTO
000957: 33,3236           67261                                    ADDINDRF
000958: 33,3237           43345        COMPGS             DLOAD    DAD                                   #  COMPASS
000959: 33,3240           02467                                    THETAN1
000960: 33,3241           02475                                    FILDELV1
000961: 33,3242           16467                           STODL    THETAN1
000962: 33,3243           02475                                    FILDELV1
000963: 33,3244           44275                           DMPR     BDSU
000964: 33,3245           27717                                    GEOCONS3
000965: 33,3246           02473                                    THETAN1    +4
000966: 33,3247           16473                           STODL    THETAN1    +4
000967: 33,3250           02501                                    FILDELV1   +4
000968: 33,3251           44275                           DMPR     BDSU
000969: 33,3252           27717                                    GEOCONS3
000970: 33,3253           02471                                    THETAN1    +2
000971: 33,3254           57325                           PDDL     DMPR
000972: 33,3255           02503                                    INTVEC1    +4
000973: 33,3256           27721                                    GEOCONS4
000974: 33,3257           45421                           BDSU     STADR
000975: 33,3260           75306                           STORE    THETAN1    +2
000976: 33,3261           77776        ADDINDRF           EXIT
000977: 33,3262           11412        ENDGTSAL           CCS      LENGTHOT                              #  IS 5 SEC OVER-THE TIME TO TORQ PLATFORM
000978: 33,3263           02522                           TC       SLEEPIE                               #  NO-SET UP NEXT WAITLIST CALL FOR .5 SEC
000979: 33,3264           03401                           TC       CHKCOMED
000980: 33,3265           11304                           CCS      LGYRO                                 #  YES BUT ARE GYROS BUSY


000982: 33,3266           12523                           TCF      SLEEPIE    +1                         #  BUSY-GET THEM .5 SECONDS FROM NOW
000983:
000984: 33,3267           06006        LASTGTS            TC       INTPRET
000985: 33,3270           77775                           VLOAD
000986: 33,3271           02650                                    ERCOMP1
000987: 33,3272           16461                           STODL    THETAX1
000988: 33,3273           02443                                    TMARK
000989: 33,3274           02457                           STORE    ALK
000990: 33,3275           77776                           EXIT                                           #  PREVIOUS SECTION WAS FOR RESTARTS
000991:
000992: 33,3276           05301        RESTAIER           TC       PHASCHNG
000993: 33,3277           00275                           OCT      00275
000994: 33,3300           06006                           TC       INTPRET                               #  ADD COMPASS COMMANDS INTO ERATE
000995: 33,3301           64375                           VLOAD    MXV
000996: 33,3302           02467                                    THETAN1
000997: 33,3303           02672                                    XSM
000998: 33,3304           53372                           VSL1     VAD
000999: 33,3305           02461                                    THETAX1
001000: 33,3306           16650                           STODL    ERCOMP1
001001: 33,3307           02457                                    ALK
001002: 33,3310           02443                           STORE    TMARK
001003: 33,3311           77776                           EXIT
001004: 33,3312           02417                           TC       EARTHR*                               #  TORQUE IT ALL IN
001005: 33,3313           31646                           CAE      ERECTIM1
001006: 33,3314           55631                           TS       GEOSAVE1
001007: 33,3315           05301                           TC       PHASCHNG
001008: 33,3316           00155                           OCT      00155
001009: 33,3317           06006        RESTEST1           TC       INTPRET
001010: 33,3320           77775                           VLOAD
001011: 33,3321           27112                                    SCHZEROS
001012: 33,3322           02467                           STORE    THETAN1
001013: 33,3323           77776                           EXIT
001014: 33,3324           11632                           CCS      PREMTRXC
001015: 33,3325           03374                           TC       NOCHORLD
001016: 33,3326           05301                           TC       PHASCHNG
001017: 33,3327           00255                           OCT      00255
001018: 33,3330           06006        RESTEST3           TC       INTPRET
001019: 33,3331           77745                           DLOAD
001020: 33,3332           02634                                    LAUNCHAZ
001021: 33,3333           53025                           DSU      BZE
001022: 33,3334           02640                                    OLDAZMTH
001023: 33,3335           67371                                    NOAZCHGE
001024: 33,3336           00001                           STORE    0D
001025: 33,3337           43335                           SLOAD    DAD
001026: 33,3340           27120                                    ONEDPP     +1
001027: 33,3341           02633                                    PREMTRXC                              #  DOES NOT CHANGE LAUNCHAZ
001028: 33,3342           16633                           STODL    PREMTRXC
001029: 33,3343           02634                                    LAUNCHAZ
001030: 33,3344           16636                           STODL    NEWAZMTH
001031: 33,3345           00001                                    0D


001033: 33,3346           02654        ADERCOMP           STORE    ERCOMP     +4
001034: 33,3347           77776                           EXIT
001035: 33,3350           03163                           TC       POSN17C
001036: 33,3351           05301                           TC       PHASCHNG
001037: 33,3352           00335                           OCT      00335
001038: 33,3353           00006        RESCHNG            EXTEND
001039: 33,3354           31636                           DCA      NEWAZMTH
001040: 33,3355           53640                           DXCH     OLDAZMTH
001041: 33,3356           34704                           CA       BIT7                                  #  SPEND 320 SEC ERECTING
001042: 33,3357           55412                           TS       LENGTHOT
001043: 33,3360           05301                           TC       PHASCHNG
001044: 33,3361           00075                           OCT      00075
001045: 33,3362           33423        SPITGYRO           CA       ERCOMPPL
001046: 33,3363           04555                           TC       BANKCALL
001047: 33,3364           17125                           CADR     IMUPULSE
001048: 33,3365           04555                           TC       BANKCALL
001049: 33,3366           17516                           CADR     IMUSTALL
001050: 33,3367           03103                           TC       SOMERR2
001051: 33,3370           02453                           TC       ESTIMS                                #  RE-INITIALIZE
001052: 33,3371           77776        NOAZCHGE           EXIT
001053: 33,3372           34712                           CA       ONE
001054: 33,3373           55632                           TS       PREMTRXC
001055: 33,3374           11631        NOCHORLD           CCS      GEOSAVE1
001056: 33,3375           55646                           TS       ERECTIM1                              #  COUNTS DOWN FOR ERECTION.
001057:
001058: 33,3376           34334        ANNNNNN            CAF      NINE
001059: 33,3377           55412                           TS       LENGTHOT
001060: 33,3400           02523                           TC       SLEEPIE    +1
001061: 33,3401           00004        CHKCOMED           INHINT
001062: 33,3402           44714                           CS       ZERO
001063: 33,3403           00006                           EXTEND
001064: 33,3404           06030                           RXOR     CHAN30                                #  READ AND INVERT BITS IN CHANNEL 30
001065: 33,3405           74706                           MASK     BIT5                                  #  LIFTOFF BIT
001066: 33,3406           10000                           CCS      A
001067: 33,3407           13416                           TCF      PRELTERM                              #  LIFTOFF HAS OCCURRED
001068:
001069: 33,3410           34706                           CA       BIT5                                  #  CHECK FOR BACKUP LIFTOFF
001070: 33,3411           70101                           MASK     FLAGWRD5                              #  BIT5 FLAGWRD5
001071: 33,3412           10000                           CCS      A
001072: 33,3413           13416                           TCF      PRELTERM                              #  BACKUP RECEIVED
001073:
001074: 33,3414           00003                           RELINT
001075: 33,3415           00002                           TC       Q                                     #  CONTINUE PRELAUNCH
001076: 33,3416           37657        PRELTERM           CA       PRIO22                                #  PRELAUNCH DONE - SET UP P11


001078: 33,3417           05103                           TC       PRIOCHNG                              #  INCREASE PRIORITY HIGHER THAN SERVICER
001079: 33,3420           00004                           INHINT
001080: 33,3421           04574                           TC       POSTJUMP
001081: 33,3422           70002                           CADR     P11
001082: 33,3423           02647        ERCOMPPL           ECADR    ERCOMP
001083:
001084: 33,3424  26,3327               GEOCONS5           EQUALS   HIDPHALF
001085: 33,3424           06200        1/PIPAGT           OCT      06200
001086: 33,3425     4375               17DECML            =        ND1                                   #  OCT 21
001087: 33,3425     4374               19DECML            =        VD1                                   #  OCT 23
001088: 33,3425     4731               1/2SECX            =        .5SEC


001090: 33,3425     5112               GEOSTRT4           EQUALS   ENDOFJOB
001091:


001093:                                                                                                  #  OPTICAL VERIFICATION ROUTINES FOR GYROCOMPASS
001094:
001095: 33,3425                                           COUNT    33/P03
001096:
001097: 33,3425           05301        GCOMPVER           TC       PHASCHNG                              #  OPTICAL VERIFICATION ROUTINE
001098: 33,3426           00154                           OCT      00154
001099: 33,3427           05243                           TC       NEWMODEX                              #  ENTERED BY VERB 65 ENTER
001100: 33,3430           00003                           MM       03         B-14
001101: 33,3431           02037        SETNBPOS           TC       NBPOSPL
001102: 33,3432           04555                           TC       BANKCALL
001103: 33,3433           16063                           CADR     MKRELEAS
001104: 33,3434           34712        OPTDATA            CAF      BIT1                                  #  CALLS FOR AZIMUTH AND ELEVATION OF TARGE
001105: 33,3435           22007                           ZL                                             #  T 1, THEN TARGET 2
001106: 33,3436           23427                           LXCH     RUN                                   #  AZIMUTH CLOCKWSE FROM NORTH TO TARGET
001107: 33,3437           55047                           TS       DSPTEM1    +2                         #  ELEVATION MEASURED FROM HORIZONTAL
001108: 33,3440           00006                           EXTEND
001109: 33,3441           51427                           INDEX    RUN
001110: 33,3442           31433                           DCA      TAZEL1
001111: 33,3443           53046                           DXCH     DSPTEM1
001112: 33,3444           33467                           CAF      V05N30E
001113: 33,3445           04555                           TC       BANKCALL
001114: 33,3446           20577                           CADR     GODSPRET
001115: 33,3447           33455                           CAF      VN0641
001116: 33,3450           04555                           TC       BANKCALL
001117: 33,3451           20624                           CADR     GOFLASH
001118: 33,3452           03610                           TC       GCOMP5
001119: 33,3453           03456                           TC       +3
001120: 33,3454           03444                           TC       -8D
001121: 33,3455           01451        VN0641             VN       0641
001122: 33,3456           53046                           DXCH     DSPTEM1                               #  TAZEL1 TARGET 1 AZIMUTH
001123: 33,3457           51427                           INDEX    RUN
001124: 33,3460           53433                           DXCH     TAZEL1                                #  TAZEL1 +2 TARGET 2 AZIMUTH
001125: 33,3461           11427                           CCS      RUN
001126: 33,3462           13466                           TCF      +4
001127: 33,3463           34711                           CAF      TWO
001128: 33,3464           54001                           TS       L
001129: 33,3465           13436                           TCF      OPTDATA    +2                         #  MPAC  1ST PASS=0   2ND PASS=2
001130: 33,3466           03530                           TC       CONTIN33
001131:
001132: 33,3467           01236        V05N30E            VN       0530
001133:
001134: 33,3470           06006                           TC       INTPRET                               #  UNDYNAMIC ASSEMBLER
001135: 33,3471           77170        TAR/EREF           AXT,1    AXT,2                                 #  TARGET VECTOR
001136: 33,3472           00002                                    2                                     #  SIN(EL)   -COS(AZ)COS(EL)   SIN(AZ)COS(EL
001137: 33,3473           00014                                    12D
001138: 33,3474           40331                           SSP      SETPD
001139: 33,3475           00052                                    S2
001140: 33,3476           00006                                    6


001142: 33,3477           00001                                    0
001143: 33,3500           60533        TAR1               SLOAD*   SR2                                   #  X1=2 X2=12 S2=6 X1=0 X2=6 S2=6
001144: 33,3501           02436                                    TAZEL1     +3,1
001145: 33,3502           00001                           STORE    0                                     #  PD00 ELEVATION PD00
001146: 33,3503           77756                           SIN
001147: 33,3504           10023                           STORE    18D,2                                 #  PD06 *** SIN(EL) ***PD12
001148: 33,3505           77745                           DLOAD
001149: 33,3506           00001                                    0
001150: 33,3507           41546                           COS      PUSH                                  #  PD00 COS(EL) PD00
001151: 33,3510           47133                           SLOAD*   RTB
001152: 33,3511           02435                                    TAZEL1     +2,1
001153: 33,3512           45510                                    CDULOGIC
001154: 33,3513           00003                           STORE    2                                     #  PD02 AZIMUTH PD02
001155: 33,3514           41356                           SIN      DMP
001156: 33,3515           00001                                    0
001157: 33,3516           77752                           SL1
001158: 33,3517           10027                           STORE    22D,2                                 #  PD10 *** SIN(AZ)COS(EL) ***PD16
001159: 33,3520           71545                           DLOAD    COS
001160: 33,3521           00003                                    2
001161: 33,3522           72405                           DMP      SL1
001162: 33,3523           76076                           DCOMP    AXT,1
001163: 33,3524           00000                                    0
001164: 33,3525           10025                           STORE    20D,2                                 #  PD08 *** -COS(AZ)COS(EL) ***PD14
001165: 33,3526           43504                           TIX,2    RVQ
001166: 33,3527           67500                                    TAR1
001167: 33,3530                                           BANK     33
001168: 33,2000                                           SETLOC   IMUCAL
001169: 33,2000                                           BANK
001170: 33,3530                                           COUNT*   $$/P03
001171:
001172: 33,3530           34712        CONTIN33           CA       ONE
001173: 33,3531           54735                           TS       STARCODE
001174: 33,3532           34714                           CA       ZERO
001175: 33,3533           03625                           TC       TARGDRVE
001176: 33,3534           06006                           TC       INTPRET
001177: 33,3535           77624                           CALL
001178: 33,3536           67471                                    TAR/EREF
001179: 33,3537           64375        NEXTBNKS           VLOAD    MXV
001180: 33,3540           00007                                    6D
001181: 33,3541           02672                                    XSM
001182: 33,3542           77772                           VSL1
001183: 33,3543           26736                           STOVL    STARAD
001184: 33,3544           00015                                    12D
001185: 33,3545           76521                           MXV      VSL1
001186: 33,3546           02672                                    XSM
001187: 33,3547           02744                           STORE    STARAD     +6
001188: 33,3550           77624                           CALL
001189: 33,3551           67722                                    LITTLSUB


001191: 33,3552           02414                           STORE    LOSVEC
001192: 33,3553           77776                           EXIT
001193: 33,3554           04555                           TC       BANKCALL
001194: 33,3555           16063                           CADR     MKRELEAS
001195: 33,3556           34711        NEXBNKSS           CAF      TWO
001196: 33,3557           54735                           TS       STARCODE
001197: 33,3560           36211                           CAF      SIX
001198: 33,3561           03625                           TC       TARGDRVE
001199: 33,3562           06006                           TC       INTPRET
001200: 33,3563           77624                           CALL
001201: 33,3564           67722                                    LITTLSUB
001202: 33,3565           24015                           STOVL    12D
001203: 33,3566           02414                                    LOSVEC
001204: 33,3567           34007                           STCALL   06D
001205: 33,3570           47334                                    AXISGEN
001206: 33,3571           77624                           CALL
001207: 33,3572           47140                                    CALCGTA
001208: 33,3573           77776                           EXIT
001209: 33,3574           33621        GCOMP4             CAF      V06N93S
001210: 33,3575           04555                           TC       BANKCALL
001211: 33,3576           20624                           CADR     GOFLASH
001212: 33,3577           03610                           TC       GCOMP5
001213: 33,3600           13602                           TCF      +2
001214: 33,3601           13574                           TCF      GCOMP4
001215: 33,3602           06006                           TC       INTPRET
001216: 33,3603           53375                           VLOAD    VAD
001217: 33,3604           02760                                    OGC
001218: 33,3605           02650                                    ERCOMP1
001219: 33,3606           02650                           STORE    ERCOMP1
001220: 33,3607           77776                           EXIT
001221: 33,3610           04555        GCOMP5             TC       BANKCALL
001222: 33,3611           16063                           CADR     MKRELEAS
001223: 33,3612           05447                           TC       DOWNFLAG
001224: 33,3613           00032                           ADRES    TRM03FLG
001225:
001226: 33,3614           05243                           TC       NEWMODEX
001227: 33,3615           00002                           MM       02         B-14
001228: 33,3616           05301                           TC       PHASCHNG
001229: 33,3617           00004                           OCT      00004
001230: 33,3620           05112                           TC       ENDOFJOB
001231: 33,3621           01535        V06N93S            VN       0693
001232: 33,3622           05537        GTSOPTCS           TC       ALARM
001233: 33,3623           01602        GTSOPTSS           OCT      01602
001234: 33,3624           03610                           TC       GCOMP5
001235: 34,2002                                           BANK     34
001236: 04,2000                                           SETLOC   IMUCAL1


001238: 04,2000                                           BANK
001239:
001240: 04,2617                                           COUNT    34/COMST
001241:
001242: 04,2617           62545        LATAZCHK           DLOAD    SL2                                   #  CALLS FOR AZIMUTH AND LATITUDE
001243: 04,2620           02403                                    LATITUDE
001244: 04,2621           15047                           STODL    DSPTEM1    +1
001245: 04,2622           02401                                    AZIMUTH
001246: 04,2623           77434                           RTB      EXIT
001247: 04,2624           45543                                    1STO2S
001248: 04,2625           56154                           XCH      MPAC
001249: 04,2626           55045                           TS       DSPTEM1
001250: 04,2627           04555                           TC       BANKCALL
001251: 04,2630           20607                           CADR     CLEANDSP
001252: 04,2631           32650                           CAF      VNG0641
001253: 04,2632           04555                           TC       BANKCALL
001254: 04,2633           20624                           CADR     GOFLASH
001255: 04,2634           02636                           TC       +2                                    #  NOT ALLOWED
001256: 04,2635           02637                           TC       +2
001257: 04,2636           02631                           TC       -5
001258: 04,2637           06006                           TC       INTPRET
001259: 04,2640           47135                           SLOAD    RTB
001260: 04,2641           01046                                    DSPTEM1
001261: 04,2642           45510                                    CDULOGIC
001262: 04,2643           02401                           STORE    AZIMUTH
001263: 04,2644           60535                           SLOAD    SR2
001264: 04,2645           01047                                    DSPTEM1    +1
001265: 04,2646           02403                           STORE    LATITUDE
001266: 04,2647           77616                           RVQ
001267: 04,2650           01451        VNG0641            VN       0641
001268: 33,3625                                           BANK     33
001269: 33,2000                                           SETLOC   IMUCAL
001270: 33,2000                                           BANK
001271: 33,3625                                           COUNT*   $$/P03
001272: 33,3625           00006        TARGDRVE           EXTEND
001273: 33,3626           23424                           QXCH     QPLAC
001274: 33,3627           55431                           TS       TARG1/2
001275: 33,3630           06006                           TC       INTPRET
001276: 33,3631           77624                           CALL
001277: 33,3632           67471                                    TAR/EREF
001278: 33,3633           76740                           LXC,1    VLOAD*
001279: 33,3634           02431                                    TARG1/2
001280: 33,3635           00007                                    6D,1
001281: 33,3636           36766                           STCALL   STAR
001282: 33,3637           46053                                    SXTANG
001283: 33,3640           77776                           EXIT


001285: 33,3641           31773                           CA       SAC
001286: 33,3642           55161                           TS       DESOPTS
001287: 33,3643           31775                           CA       PAC
001288: 33,3644           55160                           TS       DESOPTT
001289: 33,3645           34714        RETARG             CAF      ZERO
001290: 33,3646           55303                           TS       OPTIND
001291: 33,3647           34712                           CAF      ONE
001292: 33,3650           04555                           TC       BANKCALL
001293: 33,3651           16002                           CADR     SXTMARK
001294: 33,3652           04555                           TC       BANKCALL
001295: 33,3653           17512                           CADR     OPTSTALL
001296: 33,3654           03622                           TC       GTSOPTCS
001297: 33,3655           30075                           CAE      FLAGWRD1
001298: 33,3656           74707                           MASK     TRM03BIT
001299: 33,3657           10000                           CCS      A
001300: 33,3660           03610                           TC       GCOMP5
001301:
001302: 33,3661           51330                           INDEX    MARKSTAT
001303: 33,3662           30052                           CA       QPRET
001304: 33,3663           00006                           EXTEND
001305: 33,3664           13666                           BZF      RETARG1
001306: 33,3665           01424                           TC       QPLAC
001307: 33,3666           34714        RETARG1            CA       ZERO                                  #  RELEASE PREVIOUSLY GRABBED VAC AREA
001308: 33,3667           57330                           XCH      MARKSTAT
001309: 33,3670           10000                           CCS      A
001310: 33,3671           50000                           INDEX    A
001311: 33,3672           54000                           TS       A
001312: 33,3673           13645                           TCF      RETARG                                #  GO DO SXTMARK AGAIN
001313: 33,3674                                           BANK     33
001314: 33,2000                                           SETLOC   IMUCAL
001315: 33,2000                                           BANK
001316: 33,3674                                           COUNT*   $$/P03
001317: 33,3674           30341 22444  PIPASC             2DEC     .76376833
001318: 33,3676           57223 66451  VELSC              2DEC     -.52223476
001319: 33,3700           05427 12577  ALSK               2DEC     .17329931
001320: 33,3702           77567 44202                     2DEC     -.00835370
001321: 33,3704           24276 14066  GEORGEJ            2DEC     .63661977
001322: 33,3706           23073 11773  GEORGEK            2DEC     .59737013
001323: 33,3710           00055 20267  2DEGRES            2DEC     .00277778
001324: 33,3712           03146 14632  GEOCONS1           2DEC     .1


001326: 33,3714           00121 35341  GEOCONS2           2DEC     .005
001327: 33,3716           01767 31666  GEOCONS3           2DEC     .062
001328: 33,3720           00004 35223  GEOCONS4           2DEC     .0003
001329:
001330: 33,3722                                           COUNT    33/P02
001331: 33,3722           77620        LITTLSUB           STQ
001332: 33,3723           02424                                    QPLAC
001333: 33,3724           76740                           LXC,1    VLOAD*
001334: 33,3725           01330                                    MARKSTAT
001335: 33,3726           00003                                    2,1
001336: 33,3727           34767                           STCALL   CDUSPOT
001337: 33,3730           46000                                    SXTNB
001338: 33,3731           77624                           CALL
001339: 33,3732           47572                                    TRG*NBSM
001340: 33,3733           77650                           GOTO
001341: 33,3734           02424                                    QPLAC
001342: 33,3735           77776                           EXIT
001343: 33,3736           06006        AZMTHCG1           TC       INTPRET
001344: 33,3737           47145                           DLOAD    RTB
001345: 33,3740           02636                                    NEWAZMTH
001346: 33,3741           45543                                    1STO2S
001347: 33,3742           77776                           EXIT
001348: 33,3743           56154                           XCH      MPAC
001349: 33,3744           55045                           TS       DSPTEM1
001350: 33,3745           04555                           TC       BANKCALL
001351: 33,3746           20607                           CADR     CLEANDSP
001352: 33,3747           33771                           CAF      VN0629
001353: 33,3750           04555                           TC       BANKCALL
001354: 33,3751           20624                           CADR     GOFLASH
001355: 33,3752           13754                           TCF      +2
001356: 33,3753           13755                           TCF      +2
001357: 33,3754           13747                           TCF      -5
001358: 33,3755           06006                           TC       INTPRET
001359: 33,3756           47135                           SLOAD    RTB
001360: 33,3757           01046                                    DSPTEM1
001361: 33,3760           45510                                    CDULOGIC
001362: 33,3761           02634                           STORE    LAUNCHAZ
001363: 33,3762           77776                           EXIT
001364: 33,3763           34714                           CA       ZERO
001365: 33,3764           55632                           TS       PREMTRXC
001366: 33,3765           05301                           TC       PHASCHNG
001367: 33,3766           00004                           OCT      00004
001368: 33,3767           04574                           TC       POSTJUMP
001369: 33,3770           21176                           CADR     PINBRNCH
001370:
001371: 33,3771           01435        VN0629             VN       0629
001372:


001375:

End of include-file IMU_CALIBRATION_AND_ALIGNMENT.agc.  Parent file is MAIN.agc


