
Source Code


000002:                                                                                                  ## Copyright:   Public domain.
000003:                                                                                                  ## Filename:    IMU_COMPENSATION_PACKAGE.agc
000004:                                                                                                  ## Purpose:     Part of the source code for Colossus, build 249.
000005:                                                                                                  ##              It is part of the source code for the Command Module's (CM)
000006:                                                                                                  ##              Apollo Guidance Computer (AGC), for Apollo 9.
000007:                                                                                                  ## Assembler:   yaYUL
000008:                                                                                                  ## Reference:   pp. 292-301.
000009:                                                                                                  ## Contact:     Ron Burkey <info@sandroid.org>.
000010:                                                                                                  ## Website:     www.ibiblio.org/apollo.
000011:                                                                                                  ## Mod history: 08/09/04 RSB.   Began adapting from corresponding Luminary131
000012:                                                                                                  ##                              source file.
000013:                                                                                                  ##              2010-10-24 JL   Fixed page numbers.
000014:                                                                                                  ##              2016-12-30 RSB  Backported BYRO->GYRO from Colossus 237.
000015:                                                                                                  ##                              (There's lots more that needs to be backported,
000016:                                                                                                  ##                              but I found this one particularly annoying.)
000017:                                                                                                  ##              2017-01-05 RSB  Page numbers now agree with those on the
000018:                                                                                                  ##                              original harcopy, as opposed to the PDF page
000019:                                                                                                  ##                              numbers in 1701.pdf.
000020:                                                                                                  ##              2017-01-14 RSB  Cross-diff'd comment text (not whitespace)
000021:                                                                                                  ##                              vs the already-proofed corresponding Colossus
000022:                                                                                                  ##                              237 and Comanche 55 source-code files
000023:                                                                                                  ##                              and corrected errors found.
000024:                                                                                                  ##
000025:                                                                                                  ## The contents of the "Colossus249" files, in general, are transcribed
000026:                                                                                                  ## from a scanned copy of the program listing.  Notations on this
000027:                                                                                                  ## document read, in part:
000028:                                                                                                  ##
000029:                                                                                                  ##      Assemble revision 249 of AGC program Colossus by NASA
000030:                                                                                                  ##      2021111-041.  October 28, 1968.
000031:                                                                                                  ##
000032:                                                                                                  ##      This AGC program shall also be referred to as
000033:                                                                                                  ##                              Colossus 1A
000034:                                                                                                  ##
000035:                                                                                                  ##      Prepared by
000036:                                                                                                  ##                      Massachusetts Institute of Technology
000037:                                                                                                  ##                      75 Cambridge Parkway
000038:                                                                                                  ##                      Cambridge, Massachusetts
000039:                                                                                                  ##      under NASA contract NAS 9-4065.
000040:                                                                                                  ##
000041:                                                                                                  ## Refer directly to the online document mentioned above for further information.
000042:                                                                                                  ## Please report any errors (relative to the scanned pages) to info@sandroid.org.
000043:                                                                                                  ##
000044:                                                                                                  ## In some cases, where the source code for Luminary 131 overlaps that of
000045:                                                                                                  ## Colossus 249, this code is instead copied from the corresponding Luminary 131
000046:                                                                                                  ## source file, and then is proofed to incorporate any changes.
000047:


000049: 07,2440                                           BANK     7
000050: 06,2000                                           SETLOC   IMUCOMP
000051: 06,2000                                           BANK
000052: 06,3262  E3,1460                                  EBANK=   NBDX
000053:
000054: 06,3262                                           COUNT    06/ICOMP
000055:
000056: 06,3262           33516        1/PIPA             CAF      LGCOMP                                #  SAVE EBANK OF CALLING PROGRAM
000057: 06,3263           56003                           XCH      EBANK
000058: 06,3264           54163                           TS       MODE
000059:
000060: 06,3265           11477                           CCS      GCOMPSW                               #  BYPASS IF GCOMPSW NEGATIVE
000061: 06,3266           13271                           TCF      +3
000062: 06,3267           13271                           TCF      +2
000063: 06,3270           13407                           TCF      IRIG1                                 #  RETURN
000064:
000065: 06,3271           00004                           INHINT                                         #  ASSURE COMPLETE COMPENSATION OF DELV'S
000066:                                                                                                  #  FOR DOWNLINK.
000067:
000068: 06,3272           34710        1/PIPA1            CAF      FOUR                                  #  PIPAZ, PIPAY, PIPAX
000069: 06,3273           54132                           TS       BUF        +2
000070:
000071: 06,3274           50132                           INDEX    BUF        +2
000072: 06,3275           31453                           CA       PIPASCF                               #  (P.P.M.) X 2(-9)
000073: 06,3276           00006                           EXTEND
000074: 06,3277           50132                           INDEX    BUF        +2
000075: 06,3300           71162                           MP       DELVX                                 #  (PP) X 2(+14) NOW (PIPA PULSES) X 2(+5)
000076: 06,3301           54002                           TS       Q                                     #  SAVE MAJOR PART
000077:
000078: 06,3302           30001                           CA       L                                     #  MINOR PART
000079: 06,3303           00006                           EXTEND
000080: 06,3304           74705                           MP       BIT6                                  #  SCALE 2(+9)   SHIFT RIGHT 9
000081: 06,3305           50132                           INDEX    BUF        +2
000082: 06,3306           55163                           TS       DELVX      +1                         #  FRACTIONAL PIPA PULSES SCALED 2(+14)
000083:
000084: 06,3307           30002                           CA       Q                                     #  MAJOR PART
000085: 06,3310           00006                           EXTEND
000086: 06,3311           74705                           MP       BIT6                                  #  SCALE 2(+9)   SHIFT RIGHT 9
000087: 06,3312           50132                           INDEX    BUF        +2
000088: 06,3313           21163                           DAS      DELVX                                 #  (PIPAI) + (PIPAI)(SFE)
000089:
000090: 06,3314           50132                           INDEX    BUF        +2
000091: 06,3315           41452                           CS       PIPABIAS                              #  (PIPA PULSES)/(CS) X 2(-8)                    *
000092: 06,3316           00006                           EXTEND
000093: 06,3317           71074                           MP       1/PIPADT                              #  (CS) X 2(+8) NOW (PIPA PULSES) X 2(+0)        *
000094: 06,3320           00006                           EXTEND
000095: 06,3321           74712                           MP       BIT1                                  #  SCALE 2(+14) SHIFT RIGHT 14                   *
000096: 06,3322           50132                           INDEX    BUF        +2
000097: 06,3323           21163                           DAS      DELVX                                 #  (PIPAI) + (PIPAI)(SFE) - (BIAS)(DELTAT)
000098:
000099: 06,3324           10132                           CCS      BUF        +2                         #  PIPAZ, PIPAY, PIPAX


000101: 06,3325           67716                           AD       NEG1
000102: 06,3326           13273                           TCF      1/PIPA1    +1
000103: 06,3327           13330                           NOOP                                           #  LESS THAN ZERO IMPOSSIBLE.
000104: 06,3330           00003                           RELINT


000106:
000107: 06,3331           55477        IRIGCOMP           TS       GCOMPSW                               #  INDICATE COMMANDS 2 PULSES OR LESS
000108: 06,3332           54130                           TS       BUF                                   #  INDEX COUNTER - IRIGX, IRIGY, IRIGZ
000109:
000110: 06,3333           00006        IRIGX              EXTEND
000111: 06,3334           41163                           DCS      DELVX                                 #  (PIPA PULSES) X 2(+14)
000112: 06,3335           52155                           DXCH     MPAC
000113: 06,3336           31463                           CA       ADIAX                                 #  (GYRO PULSES)/(PIPA PULSE) X 2(-3)            *
000114: 06,3337           03412                           TC       GCOMPSUB                              #  -(ADIAX)(PIPAX)       (GYRO PULSES) X 2(+14)
000115:
000116: 06,3340           00006                           EXTEND                                         #
000117: 06,3341           41165                           DCS      DELVY                                 #        (PIPA PULSES) X 2(+14)
000118: 06,3342           52155                           DXCH     MPAC                                  #
000119: 06,3343           41466                           CS       ADSRAX                                #        (GYRO PULSES)/(PIPA PULSE) X 2(-3)      *
000120: 06,3344           03412                           TC       GCOMPSUB                              #        +(ADSRAX)(PIPAY)        (GYRO PULSES) X 2(+14)
000121:
000122:                                                                                                  #                EXTEND                  ***
000123:                                                                                                  #                DCS     DELVZ           ***     (PIPA PULSES) X 2(+14)
000124:                                                                                                  #                DXCH    MPAC            ***
000125:                                                                                                  #                CA      ADOAX           ***     (GYRO PULSES)/(PIPA PULSE) X 2(-3)      *
000126:                                                                                                  #                TC      GCOMPSUB        ***     -(ADOAX)(PIPAZ)         (GYRO PULSES) X 2(+14)
000127:
000128: 06,3345           41460                           CS       NBDX                                  #        (GYRO PULSES)/(CS) X 2(-5)
000129: 06,3346           03441                           TC       DRIFTSUB                              #        -(NBDX)(DELTAT) (GYRO PULSES) X 2(+14)
000130:
000131: 06,3347           00006        IRIGY              EXTEND
000132: 06,3350           41165                           DCS      DELVY                                 #  (PIPA PULSES) X 2(+14)
000133: 06,3351           52155                           DXCH     MPAC
000134: 06,3352           31464                           CA       ADIAY                                 #  (GYRO PULSES)/(PIPA PULSE) X 2(-3)            *
000135: 06,3353           03412                           TC       GCOMPSUB                              #  -(ADIAY)(PIPAY)       (GYRO PULSES) X 2(+14)
000136:
000137: 06,3354           00006                           EXTEND
000138: 06,3355           41167                           DCS      DELVZ                                 #  (PIPA PULSES) X 2(+14)
000139: 06,3356           52155                           DXCH     MPAC
000140: 06,3357           41467                           CS       ADSRAY                                #  (GYRO PULSES)/(PIPA PULSE) X 2(-3)            *
000141: 06,3360           03412                           TC       GCOMPSUB                              #  +(ADSRAY)(PIPAZ)      (GYRO PULSES) X 2(+14)
000142:
000143:                                                                                                  #                EXTEND                  ***
000144:                                                                                                  #                DCS     DELVX           ***     (PIPA PULSES) X 2(+14)
000145:                                                                                                  #                DXCH    MPAC            ***
000146:                                                                                                  #                CA      ADOAY           ***     (GYRO PULSES)/(PIPA PULSE) X 2(-3)      *
000147:                                                                                                  #                TC      GCOMPSUB        ***     -(ADOAY)(PIPAX) (GYRO PULSES) X 2(+14)
000148:
000149: 06,3361           41461                           CS       NBDY                                  #        (GYRO PULSES)/(CS) X 2(-5)
000150: 06,3362           03441                           TC       DRIFTSUB                              #        -(NBDY)(DELTAT) (GYRO PULSES) X 2(+14)
000151:
000152: 06,3363           00006        IRIGZ              EXTEND
000153: 06,3364           41165                           DCS      DELVY                                 #  (PIPA PULSES) X 2(+14)
000154: 06,3365           52155                           DXCH     MPAC
000155: 06,3366           31470                           CA       ADSRAZ                                #  (GYRO PULSES)/(PIPA PULSE) X 2(-3)            *


000157: 06,3367           03412                           TC       GCOMPSUB                              #  -(ADSRAZ)(PIPAY)      (GYRO PULSES) X 2(+14)
000158:
000159: 06,3370           00006                           EXTEND
000160: 06,3371           41167                           DCS      DELVZ                                 #  (PIPA PULSES) X 2(+14)
000161: 06,3372           52155                           DXCH     MPAC
000162: 06,3373           31465                           CA       ADIAZ                                 #  (GYRO PULSES)/(PIPA PULSE) X 2(-3)            *
000163: 06,3374           03412                           TC       GCOMPSUB                              #  -(ADIAZ)(PIPAZ)       (GYRO PULSES) X 2(+14)
000164:
000165:                                                                                                  #                EXTEND                  ***
000166:                                                                                                  #                DCS     DELVX           ***     (PIPA PULSE) X 2(+14)
000167:                                                                                                  #                DXCH    MPAC            ***
000168:                                                                                                  #                CS      ADOAZ           ***     (GYRO PULSES)/(PIPA PULSE) X 2(-3)      *
000169:                                                                                                  #                TC      GCOMPSUB        ***     +(ADOAZ)(PIPAX) (GYRO PULSES) X 2(+14)
000170:
000171: 06,3375           31462                           CA       NBDZ                                  #        (GYRO PULSES)/(CS) X 2(-5)
000172: 06,3376           03441                           TC       DRIFTSUB                              #        +(NBDZ)(DELTAT) (GYRO PULSES) X 2(+14)
000173:


000175: 06,3377           11477                           CCS      GCOMPSW                               #  ARE GYRO COMMANDS GREATER THAN 2 PULSES
000176: 06,3400           13402                           TCF      +2                                    #  YES
000177: 06,3401           13407                           TCF      IRIG1                                 #  NO
000178:
000179: 06,3402           34764                           CA       PRIO17                                #  LEM PRIORITY HIGHER-THIS FOR PRELAUNCH
000180: 06,3403           05027                           TC       NOVAC
000181: 06,3404  E3,1460                                  EBANK=   NBDX
000182: 06,3404           03474 14063                     2CADR    1/GYRO
000183:
000184: 06,3406           00003                           RELINT
000185: 06,3407           30163        IRIG1              CA       MODE                                  #  SET EBANK FOR RETURN
000186: 06,3410           54003                           TS       EBANK
000187: 06,3411           14570                           TCF      SWRETURN
000188:
000189: 06,3412           56154        GCOMPSUB           XCH      MPAC                                  #  ADIA OR ADSRA COEFFICIENT ARRIVES IN A
000190: 06,3413           00006                           EXTEND                                         #  C(MPAC) = (PIPA PULSES) X 2(+14)
000191: 06,3414           70154                           MP       MPAC                                  #  (GYRO PULSES)/(PIPA PULSE) X 2(-3)            *
000192: 06,3415           52123                           DXCH     VBUF                                  #  NOW = (GYRO PULSES) X 2(+11)                  *
000193:
000194: 06,3416           30155                           CA       MPAC       +1                         #  MINOR PART PIPA PULSES
000195: 06,3417           00006                           EXTEND
000196: 06,3420           70154                           MP       MPAC                                  #  ADIA OR ADSRA
000197: 06,3421           54001                           TS       L
000198: 06,3422           34714                           CAF      ZERO
000199: 06,3423           20123                           DAS      VBUF                                  #  NOW = (GYRO PULSES) X 2(+11)                  *
000200:
000201: 06,3424           30122                           CA       VBUF                                  #  PARTIAL RESULT - MAJOR
000202: 06,3425           00006                           EXTEND
000203: 06,3426           74677                           MP       BIT12                                 #  SCALE 2(+3)   SHIFT RIGHT 3                   *
000204: 06,3427           50130                           INDEX    BUF                                   #  RESULT = (GYRO PULSES) X 2(+14)
000205: 06,3430           21472                           DAS      GCOMP                                 #  HI(ADIA)(PIPAI) OR HI(ADSRA)(PIPAI)
000206:
000207: 06,3431           30123                           CA       VBUF       +1                         #  PARTIAL RESULT - MINOR
000208: 06,3432           00006                           EXTEND
000209: 06,3433           74677                           MP       BIT12                                 #  SCALE 2(+3)   SHIFT RIGHT 3                   *
000210: 06,3434           54001                           TS       L
000211: 06,3435           34714                           CAF      ZERO
000212: 06,3436           50130                           INDEX    BUF                                   #  RESULT = (GYRO PULSES) X 2(+14)
000213: 06,3437           21472                           DAS      GCOMP                                 #  (ADIA)(PIPAI) OR (ADSRA)(PIPAI)
000214:
000215: 06,3440           00002                           TC       Q
000216:


000218: 06,3441           00006        DRIFTSUB           EXTEND
000219: 06,3442           22131                           QXCH     BUF        +1
000220:
000221: 06,3443           00006                           EXTEND                                         #  C(A) = NBD    (GYRO PULSES)/(CS) X 2(-5)
000222: 06,3444           71074                           MP       1/PIPADT                              #  (CS) X 2(+8)  NOW (GYRO PULSES) X 2(+3)
000223: 06,3445           22155                           LXCH     MPAC       +1                         #  SAVE FOR FRACTIONAL COMPENSATION
000224: 06,3446           00006                           EXTEND
000225: 06,3447           74707                           MP       BIT4                                  #  SCALE 2(+11)  SHIFT RIGHT 11
000226: 06,3450           50130                           INDEX    BUF
000227: 06,3451           21472                           DAS      GCOMP                                 #  HI(NBD)(DELTAT)       (GYRO PULSES) X 2(+14)
000228:
000229: 06,3452           30155                           CA       MPAC       +1                         #  NOW MINOR PART
000230: 06,3453           00006                           EXTEND
000231: 06,3454           74707                           MP       BIT4                                  #  SCALE 2(+11)          SHIFT RIGHT 11
000232: 06,3455           54001                           TS       L
000233: 06,3456           34714                           CAF      ZERO
000234: 06,3457           50130                           INDEX    BUF                                   #  ADD IN FRACTIONAL COMPENSATION
000235: 06,3460           21472                           DAS      GCOMP                                 #  (NBD)(DELTAT)         (GYRO PULSES) X 2(+14)
000236:
000237: 06,3461           34711        DRFTSUB2           CAF      TWO                                   #  PIPAX, PIPAY, PIPAZ
000238: 06,3462           60130                           AD       BUF
000239: 06,3463           56130                           XCH      BUF
000240: 06,3464           50000                           INDEX    A
000241: 06,3465           11471                           CCS      GCOMP                                 #  ARE GYRO COMMANDS 1 PULSE OR GREATER
000242: 06,3466           13470                           TCF      +2                                    #  YES
000243: 06,3467           00131                           TC       BUF        +1                         #  NO
000244:
000245: 06,3470           77716                           MASK     NEGONE
000246: 06,3471           10000                           CCS      A                                     #  ARE GYRO COMMANDS GREATER THAN 2 PULSES
000247: 06,3472           55477                           TS       GCOMPSW                               #  YES - SET GCOMPSW POSITIVE
000248: 06,3473           00131                           TC       BUF        +1                         #  NO
000249:


000251: 06,3474           34710        1/GYRO             CAF      FOUR                                  #  PIPAZ, PIPAY, PIPAX
000252: 06,3475           54130                           TS       BUF
000253:
000254: 06,3476           50130                           INDEX    BUF                                   #  SCALE GYRO COMMANDS FOR IMUPULSE
000255: 06,3477           31472                           CA       GCOMP      +1                         #  FRACTIONAL PULSES
000256: 06,3500           00006                           EXTEND
000257: 06,3501           74703                           MP       BIT8                                  #  SHIFT RIGHT 7
000258: 06,3502           50130                           INDEX    BUF
000259: 06,3503           55472                           TS       GCOMP      +1                         #  FRACTIONAL PULSES SCALED
000260:
000261: 06,3504           34714                           CAF      ZERO                                  #  SET GCOMP = 0 FOR DAS INSTRUCTION
000262: 06,3505           50130                           INDEX    BUF
000263: 06,3506           57471                           XCH      GCOMP                                 #  GYRO PULSES
000264: 06,3507           00006                           EXTEND
000265: 06,3510           74703                           MP       BIT8                                  #  SHIFT RIGHT 7
000266: 06,3511           50130                           INDEX    BUF
000267: 06,3512           21472                           DAS      GCOMP                                 #  ADD THESE TO FRACTIONAL PULSES ABOVE
000268:
000269: 06,3513           10130                           CCS      BUF                                   #  PIPAZ, PIPAY, PIPAX
000270: 06,3514           67716                           AD       NEG1
000271: 06,3515           13475                           TCF      1/GYRO     +1
000272: 06,3516           01471        LGCOMP             ECADR    GCOMP                                 #  LESS THAN ZERO IMPOSSIBLE
000273:
000274: 06,3517           33516                           CAF      LGCOMP
000275: 06,3520           04555                           TC       BANKCALL
000276: 06,3521           17125                           CADR     IMUPULSE                              #  CALL GYRO TORQUING ROUTINE
000277: 06,3522           04555                           TC       BANKCALL
000278: 06,3523           17516                           CADR     IMUSTALL                              #  WAIT FOR PULSES TO GET OUT
000279: 06,3524           15112                           TCF      ENDOFJOB                              #  TEMPORARY
000280:
000281: 06,3525           34710        GCOMP1             CAF      FOUR                                  #  PIPAZ, PIPAY, PIPAX
000282: 06,3526           54130                           TS       BUF
000283:
000284: 06,3527           50130                           INDEX    BUF                                   #  RESCALE
000285: 06,3530           31472                           CA       GCOMP      +1
000286: 06,3531           00006                           EXTEND
000287: 06,3532           74703                           MP       BIT8                                  #  SHIFT MINOR PART LEFT 7 - MAJOR PART = 0
000288: 06,3533           50130                           INDEX    BUF
000289: 06,3534           23472                           LXCH     GCOMP      +1                         #  BITS 8-14 OF MINOR PART WERE = 0
000290:
000291: 06,3535           10130                           CCS      BUF                                   #  PIPAZ, PIPAY, PIPAX
000292: 06,3536           67716                           AD       NEG1
000293: 06,3537           13526                           TCF      GCOMP1     +1
000294:
000295: 06,3540           01436        V06N30S            VN       0630
000296: 06,3541           15112                           TCF      ENDOFJOB
000297:


000299: 06,3542           11477        NBDONLY            CCS      GCOMPSW                               #  BYPASS IF GCOMPSW NEGATIVE
000300: 06,3543           13546                           TCF      +3
000301: 06,3544           13546                           TCF      +2
000302: 06,3545           15112                           TCF      ENDOFJOB
000303:
000304: 06,3546           00004                           INHINT
000305: 06,3547           10076                           CCS      FLAGWRD2                              #  PREREAD T3RUPT MAY COINCIDE
000306: 06,3550           15112                           TCF      ENDOFJOB
000307: 06,3551           15112                           TCF      ENDOFJOB
000308: 06,3552           13553                           TCF      +1
000309:
000310: 06,3553           30025                           CA       TIME1                                 #  (CS) X 2(+14)
000311: 06,3554           57074                           XCH      1/PIPADT                              #  PREVIOUS TIME
000312: 06,3555           00003                           RELINT
000313: 06,3556           40000                           COM
000314: 06,3557           61074                           AD       1/PIPADT
000315: 06,3560           10000        NBD2               CCS      A                                     #  CALCULATE ELAPSED TIME
000316: 06,3561           64712                           AD       ONE                                   #  NO TIME1 OVERFLOW
000317: 06,3562           13567                           TCF      NBD3                                  #  RESTORE TIME DIFFERENCE AND JUMP
000318: 06,3563           13565                           TCF      +2                                    #  TIME1 OVERFLOW
000319: 06,3564           15112                           TCF      ENDOFJOB                              #  IF ELAPSED TIME = 0 (DIFFERENCE = -0)
000320:
000321: 06,3565           40000                           COM                                            #  CALCULATE ABSOLUTE DIFFERENCE
000322: 06,3566           64672                           AD       POSMAX
000323:
000324: 06,3567           00006        NBD3               EXTEND                                         #  C(A) = DELTAT         (CS) X 2(+14)
000325: 06,3570           74701                           MP       BIT10                                 #  SHIFT RIGHT 5
000326: 06,3571           52123                           DXCH     VBUF
000327: 06,3572           00006                           EXTEND
000328: 06,3573           30123                           DCA      VBUF
000329: 06,3574           52155                           DXCH     MPAC                                  #  DELTAT NOW SCALED (CS) X 2(+19)
000330:
000331: 06,3575           34714                           CAF      ZERO
000332: 06,3576           55477                           TS       GCOMPSW                               #  INDICATE COMMANDS 2 PULSES OR LESS
000333: 06,3577           54130                           TS       BUF                                   #  PIPAX, PIPAY, PIPAZ.
000334:
000335: 06,3600           41460                           CS       NBDX                                  #  (GYRO PULSES)/(CS) X 2(-5)
000336: 06,3601           03617                           TC       FBIASSUB                              #  -(NBDX)(DELTAT)       (GYRO PULSES) X 2(+14)
000337:
000338: 06,3602           00006                           EXTEND
000339: 06,3603           40123                           DCS      VBUF
000340: 06,3604           52155                           DXCH     MPAC                                  #  DELTAT SCALED (CS) X 2(+19)
000341: 06,3605           31461                           CA       NBDY                                  #  (GYRO PULSES)/(CS) X 2(-5)
000342: 06,3606           03617                           TC       FBIASSUB                              #  -(NBDY)(DELTAT)       (GYRO PULSES) X 2(+14)
000343:
000344: 06,3607           00006                           EXTEND
000345: 06,3610           40123                           DCS      VBUF
000346: 06,3611           52155                           DXCH     MPAC                                  #  DELTAT SCALED (CS) X 2(+19)
000347: 06,3612           41462                           CS       NBDZ                                  #  (GYRO PULSES)/(CS) X 2(-5)
000348: 06,3613           03617                           TC       FBIASSUB                              #  +(NBDZ)(DELTAT)       (GYRO PULSES) X 2(+14)


000350: 06,3614           11477                           CCS      GCOMPSW                               #  ARE GYRO COMMANDS GREATER THAN 2 PULSES
000351: 06,3615           13474                           TCF      1/GYRO                                #  YES
000352: 06,3616           15112                           TCF      ENDOFJOB                              #  NO
000353:


000355: 06,3617           56002        FBIASSUB           XCH      Q
000356: 06,3620           54131                           TS       BUF        +1
000357:
000358: 06,3621           30002                           CA       Q                                     #  NBD SCALED (GYRO PULSES)/(CS) X 2(-5)
000359: 06,3622           00006                           EXTEND
000360: 06,3623           70154                           MP       MPAC                                  #  DELTAT SCALED (CS) X 2(+19)
000361: 06,3624           50130                           INDEX    BUF
000362: 06,3625           21472                           DAS      GCOMP                                 #  HI(NBD)(DELTAT)       (GYRO PULSES) X 2(+14)
000363:
000364: 06,3626           30002                           CA       Q                                     #  NOW FRACTIONAL PART
000365: 06,3627           00006                           EXTEND
000366: 06,3630           70155                           MP       MPAC       +1
000367: 06,3631           54001                           TS       L
000368: 06,3632           34714                           CAF      ZERO
000369: 06,3633           50130                           INDEX    BUF
000370: 06,3634           21472                           DAS      GCOMP                                 #  (NBD)(DELTAT)         (GYRO PULSES) X 2(+14)
000371:
000372: 06,3635           13461                           TCF      DRFTSUB2                              #  CHECK MAGNITUDE OF COMPENSATION
000373:
000374: 06,3636           04555        LASTBIAS           TC       BANKCALL
000375: 06,3637           17075                           CADR     PIPUSE
000376:
000377: 06,3640           11477                           CCS      GCOMPSW                               #  BYPASS IF GCOMPSW NEGATIVE
000378: 06,3641           13644                           TCF      +3
000379: 06,3642           13644                           TCF      +2
000380: 06,3643           15112                           TCF      ENDOFJOB
000381:
000382: 06,3644           37665                           CAF      PRIO31                                #  2 SECONDS SCALED (CS) X 2(+8)
000383: 06,3645           57074                           XCH      1/PIPADT
000384: 06,3646           40000                           COM
000385: 06,3647           61246                           AD       PIPTIME1   +1                         #  TIME AT PIPA1 =0
000386: 06,3650           13560                           TCF      NBD2
000387:

End of include-file IMU_COMPENSATION_PACKAGE.agc.  Parent file is MAIN.agc


