
Source Code


000002:                                                                                                  ## Copyright:   Public domain.
000003:                                                                                                  ## Filename:    IMU_COMPENSATION_PACKAGE.agc
000004:                                                                                                  ## Purpose:     Part of the source code for Colossus, build 249.
000005:                                                                                                  ##              It is part of the source code for the Command Module's (CM)
000006:                                                                                                  ##              Apollo Guidance Computer (AGC), possibly for Apollo 8 and 9.
000007:                                                                                                  ## Assembler:   yaYUL
000008:                                                                                                  ## Reference:   pp. 294-303 of 1701.pdf.
000009:                                                                                                  ## Contact:     Ron Burkey <info@sandroid.org>.
000010:                                                                                                  ## Website:     www.ibiblio.org/apollo.
000011:                                                                                                  ## Mod history: 08/09/04 RSB.   Began adapting from corresponding Luminary131
000012:                                                                                                  ##                              source file.
000013:                                                                                                  ##              2010-10-24 JL   Fixed page numbers.
000014:                                                                                                  ##
000015:                                                                                                  ## The contents of the "Colossus249" files, in general, are transcribed
000016:                                                                                                  ## from a scanned document obtained from MIT's website,
000017:                                                                                                  ## http://hrst.mit.edu/hrs/apollo/public/archive/1701.pdf.  Notations on this
000018:                                                                                                  ## document read, in part:
000019:                                                                                                  ##
000020:                                                                                                  ##      Assemble revision 249 of AGC program Colossus by NASA
000021:                                                                                                  ##      2021111-041.  October 28, 1968.
000022:                                                                                                  ##
000023:                                                                                                  ##      This AGC program shall also be referred to as
000024:                                                                                                  ##                              Colossus 1A
000025:                                                                                                  ##
000026:                                                                                                  ##      Prepared by
000027:                                                                                                  ##                      Massachusetts Institute of Technology
000028:                                                                                                  ##                      75 Cambridge Parkway
000029:                                                                                                  ##                      Cambridge, Massachusetts
000030:                                                                                                  ##      under NASA contract NAS 9-4065.
000031:                                                                                                  ##
000032:                                                                                                  ## Refer directly to the online document mentioned above for further information.
000033:                                                                                                  ## Please report any errors (relative to 1701.pdf) to info@sandroid.org.
000034:                                                                                                  ##
000035:                                                                                                  ## In some cases, where the source code for Luminary 131 overlaps that of
000036:                                                                                                  ## Colossus 249, this code is instead copied from the corresponding Luminary 131
000037:                                                                                                  ## source file, and then is proofed to incorporate any changes.
000038:


000040: 07,2440                                           BANK     7
000041: 06,2000                                           SETLOC   IMUCOMP
000042: 06,2000                                           BANK
000043: 06,3262  E3,1460                                  EBANK=   NBDX
000044:
000045: 06,3262                                           COUNT    06/ICOMP
000046:
000047: 06,3262           33516        1/PIPA             CAF      LGCOMP                                #  SAVE EBANK OF CALLING PROGRAM
000048: 06,3263           56003                           XCH      EBANK
000049: 06,3264           54163                           TS       MODE
000050:
000051: 06,3265           11477                           CCS      GCOMPSW                               #  BYPASS IF GCOMPSW NEGATIVE
000052: 06,3266           13271                           TCF      +3
000053: 06,3267           13271                           TCF      +2
000054: 06,3270           13407                           TCF      IRIG1                                 #  RETURN
000055:
000056: 06,3271           00004                           INHINT                                         #  ASSURE COMPLETE COMPENSATION OF DELV'S
000057:                                                                                                  #  FOR DOWNLINK.
000058:
000059: 06,3272           34710        1/PIPA1            CAF      FOUR                                  #  PIPAZ, PIPAY, PIPAX
000060: 06,3273           54132                           TS       BUF        +2
000061:
000062: 06,3274           50132                           INDEX    BUF        +2
000063: 06,3275           31453                           CA       PIPASCF                               #  (P.P.M.) X 2(-9)
000064: 06,3276           00006                           EXTEND
000065: 06,3277           50132                           INDEX    BUF        +2
000066: 06,3300           71162                           MP       DELVX                                 #  (PP) X 2(+14) NOW (PIPA PULSES) X 2(+5)
000067: 06,3301           54002                           TS       Q                                     #  SAVE MAJOR PART
000068:
000069: 06,3302           30001                           CA       L                                     #  MINOR PART
000070: 06,3303           00006                           EXTEND
000071: 06,3304           74705                           MP       BIT6                                  #  SCALE 2(+9)   SHIFT RIGHT 9
000072: 06,3305           50132                           INDEX    BUF        +2
000073: 06,3306           55163                           TS       DELVX      +1                         #  FRACTIONAL PIPA PULSES SCALED 2(+14)
000074:
000075: 06,3307           30002                           CA       Q                                     #  MAJOR PART
000076: 06,3310           00006                           EXTEND
000077: 06,3311           74705                           MP       BIT6                                  #  SCALE 2(+9)   SHIFT RIGHT 9
000078: 06,3312           50132                           INDEX    BUF        +2
000079: 06,3313           21163                           DAS      DELVX                                 #  (PIPAI) + (PIPAI)(SF)
000080:
000081: 06,3314           50132                           INDEX    BUF        +2
000082: 06,3315           41452                           CS       PIPABIAS                              #  (PIPA PULSES)/(CS) X 2(-3)                    *
000083: 06,3316           00006                           EXTEND
000084: 06,3317           71074                           MP       1/PIPADT                              #  (CS) X 2(+8) NOW (PIPA PULSES) X 2(+5)        *
000085: 06,3320           00006                           EXTEND
000086: 06,3321           74712                           MP       BIT1                                  #  SCALE 2(+9) SHIFT RIGHT 9                     *
000087: 06,3322           50132                           INDEX    BUF        +2
000088: 06,3323           21163                           DAS      DELVX                                 #  (PIPAI) + (PIPAI)(SFE) - (BIAS)(DELTAT)
000089:
000090: 06,3324           10132                           CCS      BUF        +2                         #  PIPAZ, PIPAY, PIPAX


000092: 06,3325           67716                           AD       NEG1
000093: 06,3326           13273                           TCF      1/PIPA1    +1
000094: 06,3327           13330                           NOOP                                           #  LESS THAN ZERO IMPOSSIBLE
000095: 06,3330           00003                           RELINT


000097:
000098: 06,3331           55477        IRIGCOMP           TS       GCOMPSW                               #  INDICATE COMMANDS 2 PULSES OR LESS.
000099: 06,3332           54130                           TS       BUF                                   #  INDEX COUNTER.  IRIGX, IRIGY, IRIGZ.
000100:
000101: 06,3333           00006        IRIGX              EXTEND
000102: 06,3334           41163                           DCS      DELVX                                 #  (PIPA PULSES) X 2(+14)
000103: 06,3335           52155                           DXCH     MPAC
000104: 06,3336           31463                           CA       ADIAX                                 #  (GYRO PULSES)/(PIPA PULSE) X 2(-6)            *
000105: 06,3337           03412                           TC       GCOMPSUB                              #  -(ADIAX)(PIPAX)       (GYRO PULSES) X 2(+14)
000106:
000107: 06,3340           00006                           EXTEND                                         #
000108: 06,3341           41165                           DCS      DELVY                                 #        (PIPA PULSES) X 2(+14)
000109: 06,3342           52155                           DXCH     MPAC                                  #
000110: 06,3343           41466                           CS       ADSRAX                                #        (GYRO PULSES)/(PIPA PULSE) X 2(-6)      *
000111: 06,3344           03412                           TC       GCOMPSUB                              #        -(ADSRAX)(PIPAY)        (GYRO PULSES) X 2(+14)
000112:
000113:                                                                                                  #                EXTEND                  # ***
000114:                                                                                                  #                DCS     DELVY           # ***   (PIPA PULSES) X 2(+14)
000115:                                                                                                  #                DXCH    MPAC            # ***
000116:                                                                                                  #                CA      ADOAX           # ***   (GYRO PULSES)/(PIPA PULSE) X 2(-6)      *
000117:                                                                                                  #                TC      GCOMPSUB        # ***   -(ADOAX)(PIPAZ)         (GYRO PULSES) X 2(+14)
000118:
000119: 06,3345           41460                           CS       NBDX                                  #        (GYRO PULSES)/(CS) X 2(-5)
000120: 06,3346           03441                           TC       DRIFTSUB                              #        -(NBDX)(DELTAT) (GYRO PULSES) X 2(+14)
000121:
000122: 06,3347           00006        IRIGY              EXTEND
000123: 06,3350           41165                           DCS      DELVY                                 #  (PIPA PULSES) X 2(+14)
000124: 06,3351           52155                           DXCH     MPAC
000125: 06,3352           31464                           CA       ADIAY                                 #  (GYRO PULSES)/(PIPA PULSE) X 2(+14)           *
000126: 06,3353           03412                           TC       GCOMPSUB                              #  -(ADIAY)(PIPAY)       (GYRO PULSES) X 2(+14)
000127:
000128: 06,3354           00006                           EXTEND
000129: 06,3355           41167                           DCS      DELVZ                                 #  (PIPA PULSES) X 2(+14)
000130: 06,3356           52155                           DXCH     MPAC
000131: 06,3357           41467                           CS       ADSRAY                                #  (GYRO PULSES)/(PIPA PULSE) X 2(-6)            *
000132: 06,3360           03412                           TC       GCOMPSUB                              #  +(ADSRAY)(PIPAZ)      (GYRO PULSES) X 2(+14)
000133:
000134:                                                                                                  #                EXTEND                  # ***
000135:                                                                                                  #                DCS     DELVX           # ***   (PIPA PULSES) X 2(+14)
000136:                                                                                                  #                DXCH    MPAC            # ***
000137:                                                                                                  #                CA      ADOAY           # ***   (GYRO PULSES)/(PIPA PULS) X 2(-6)       *
000138:                                                                                                  #                TC      GCOMPSUB        # ***   -(ADOAY)(/PIPAX)        (GYRO PULSES) X 2(+14)
000139:
000140: 06,3361           41461                           CS       NBDY                                  #        (GYRO PULSES)/(CS) X 2(-5)
000141: 06,3362           03441                           TC       DRIFTSUB                              #        -(NBDY)(DELTAT) (GYRO PULSES) X 2(+14)
000142:
000143: 06,3363           00006        IRIGZ              EXTEND
000144: 06,3364           41165                           DCS      DELVY                                 #  (PIPA PULSES) X 2(-14)
000145: 06,3365           52155                           DXCH     MPAC
000146: 06,3366           31470                           CA       ADSRAZ                                #  (GYRO PULSES)/(PIPA PULSE) X 2(-6)            *


000148: 06,3367           03412                           TC       GCOMPSUB                              #  -(ADSRAZ)(PIPAY)      (GYRO PULSES) X 2(+14)
000149:
000150: 06,3370           00006                           EXTEND
000151: 06,3371           41167                           DCS      DELVZ                                 #  (PIPA PULSES) X 2(+14)
000152: 06,3372           52155                           DXCH     MPAC
000153: 06,3373           31465                           CA       ADIAZ                                 #  (GYRO PULSES)/(PIPA PULSE) X 2(-6)            *
000154: 06,3374           03412                           TC       GCOMPSUB                              #  -(ADIAZ)(PIPAZ)       (GYRO PULSES) X 2(+14)
000155:
000156:                                                                                                  #                EXTEND                  # ***
000157:                                                                                                  #                DCS     DELVX           # ***   (PIPA PULSE) X 2(+14)
000158:                                                                                                  #                DXCH    MPAC            # ***
000159:                                                                                                  #                CS      ADOAZ           # ***   (GYRO PULSES)/(PIPA PULSE) X 2(-6)      *
000160:                                                                                                  #                TC      GCOMPSUB        # ***   +(ADOAZ)(PIPAX) (GYRO PULSES) X 2(+14)
000161:
000162: 06,3375           31462                           CA       NBDZ                                  #        (GYRO PULSES)/(CS) X 2(-5)
000163: 06,3376           03441                           TC       DRIFTSUB                              #        +(NBDZ)(DELTAT) (GYRO PULSES) X 2(+14)
000164:


000166: 06,3377           11477                           CCS      GCOMPSW                               #  ARE GYRO COMMANDS GREATER THAN 2 PULSES
000167: 06,3400           13402                           TCF      +2                                    #  YES
000168: 06,3401           13407                           TCF      IRIG1                                 #  NO
000169:
000170: 06,3402           34764                           CA       PRIO17                                #  LEM PRIORITY HIGHER-THIS FOR PRELAUNCH
000171: 06,3403           05027                           TC       NOVAC
000172: 06,3404  E3,1460                                  EBANK=   NBDX
000173: 06,3404           03474 14063                     2CADR    1/GYRO
000174:
000175: 06,3406           00003                           RELINT
000176: 06,3407           30163        IRIG1              CA       MODE                                  #  SET EBANK FOR RETURN
000177: 06,3410           54003                           TS       EBANK
000178: 06,3411           14570                           TCF      SWRETURN
000179:
000180: 06,3412           56154        GCOMPSUB           XCH      MPAC                                  #  ADIA OR ADSRA COEFFICIENT ARRIVES IN A
000181: 06,3413           00006                           EXTEND                                         #  C(MPAC) = (PIPA PULSES) X 2(+14)
000182: 06,3414           70154                           MP       MPAC                                  #  (GYRO PULSES)/(PIPA PULSE) X 2(-6)            *
000183: 06,3415           52123                           DXCH     VBUF                                  #  NOW = (GYRO PULSES) X 2(+8)                   *
000184:
000185: 06,3416           30155                           CA       MPAC       +1                         #  MINOR PART OF PIPA PULSES
000186: 06,3417           00006                           EXTEND
000187: 06,3420           70154                           MP       MPAC                                  #  ADIA OR ADSRA
000188: 06,3421           54001                           TS       L
000189: 06,3422           34714                           CAF      ZERO
000190: 06,3423           20123                           DAS      VBUF                                  #  NOW = (BYRO PULSES) X 2(+8)                   *
000191:
000192: 06,3424           30122                           CA       VBUF                                  #  PARTIAL RESULT -- MAJOR
000193: 06,3425           00006                           EXTEND
000194: 06,3426           74677                           MP       BIT12                                 #  SCALE 2(+3)   SHIFT RIGHT 3                   *
000195: 06,3427           50130                           INDEX    BUF                                   #  RESULT = (BYRO PULSES) X 2(+14)
000196: 06,3430           21472                           DAS      GCOMP                                 #  HI(ADIA)(PIPAI) OR HI(ADSRA)(PIPAI)
000197:
000198: 06,3431           30123                           CA       VBUF       +1                         #  PARTIAL RESULT -- MINOR
000199: 06,3432           00006                           EXTEND
000200: 06,3433           74677                           MP       BIT12                                 #  SCALE 2(+3)   SHIFT RIGHT 3                   *
000201: 06,3434           54001                           TS       L
000202: 06,3435           34714                           CAF      ZERO
000203: 06,3436           50130                           INDEX    BUF                                   #  RESULT = (TYRO PULSES) X 2(+14)
000204: 06,3437           21472                           DAS      GCOMP                                 #  (ADIA)(PIPAI) OR (ADSRA)(PIPAI)
000205:
000206: 06,3440           00002                           TC       Q
000207:


000209: 06,3441           00006        DRIFTSUB           EXTEND
000210: 06,3442           22131                           QXCH     BUF        +1
000211:
000212: 06,3443           00006                           EXTEND                                         #  C(A) = NBD    (GYRO PULSES)/(CS) X 2(-5)
000213: 06,3444           71074                           MP       1/PIPADT                              #  (CS) X 2(+8)  NO (GYRO PULSES) X 2(+3)
000214: 06,3445           22155                           LXCH     MPAC       +1                         #  SAVE FOR FRACTIONAL COMPENSATION
000215: 06,3446           00006                           EXTEND
000216: 06,3447           74707                           MP       BIT4                                  #  SCALE 2(+11)  SHIFT RIGHT 11
000217: 06,3450           50130                           INDEX    BUF
000218: 06,3451           21472                           DAS      GCOMP                                 #  HI(NBD)(DELTAT)       (GYRO PULSES) X 2(+14)
000219:
000220: 06,3452           30155                           CA       MPAC       +1                         #  NO MINOR PART
000221: 06,3453           00006                           EXTEND
000222: 06,3454           74707                           MP       BIT4                                  #  SCALE 2(+11)          SHIFT RIGHT 11
000223: 06,3455           54001                           TS       L
000224: 06,3456           34714                           CAF      ZERO
000225: 06,3457           50130                           INDEX    BUF                                   #  ADD IN FRACTIONAL COMPENSATION
000226: 06,3460           21472                           DAS      GCOMP                                 #  (NBD)(DELTAT)         (GYRO PULSES) X 2(+14)
000227:
000228: 06,3461           34711        DRFTSUB2           CAF      TWO                                   #  PIPAX, PIPAY, PIPAZ
000229: 06,3462           60130                           AD       BUF
000230: 06,3463           56130                           XCH      BUF
000231: 06,3464           50000                           INDEX    A
000232: 06,3465           11471                           CCS      GCOMP                                 #  ARE GYRO COMMANDS 1 PULSE OR GREATER
000233: 06,3466           13470                           TCF      +2                                    #  YES
000234: 06,3467           00131                           TC       BUF        +1                         #  NO
000235:
000236: 06,3470           77716                           MASK     NEGONE
000237: 06,3471           10000                           CCS      A                                     #  ARE GYRO COMMANDS GREATER THAN 2 PULSES
000238: 06,3472           55477                           TS       GCOMPSW                               #  YES -- SET GCOMPSW POSITIVE
000239: 06,3473           00131                           TC       BUF        +1                         #  NO
000240:


000242: 06,3474           34710        1/GYRO             CAF      FOUR                                  #  PIPAZ, PIPAY, PIPAX
000243: 06,3475           54130                           TS       BUF
000244:
000245: 06,3476           50130                           INDEX    BUF                                   #  SCALE GYRO COMMANDS FOR IMUPULSE
000246: 06,3477           31472                           CA       GCOMP      +1                         #  FRACTIONAL PULSES
000247: 06,3500           00006                           EXTEND
000248: 06,3501           74703                           MP       BIT8                                  #  SHIFT RIGHT 7
000249: 06,3502           50130                           INDEX    BUF
000250: 06,3503           55472                           TS       GCOMP      +1                         #  FRACTIONAL PULSES SCALED
000251:
000252: 06,3504           34714                           CAF      ZERO                                  #  SET GCOMP = 0 FOR DAS INSTRUCTION
000253: 06,3505           50130                           INDEX    BUF
000254: 06,3506           57471                           XCH      GCOMP                                 #  GYRO PULSES
000255: 06,3507           00006                           EXTEND
000256: 06,3510           74703                           MP       BIT8                                  #  SHIFT RIGHT 7
000257: 06,3511           50130                           INDEX    BUF
000258: 06,3512           21472                           DAS      GCOMP                                 #  ADD THESE TO FRACTIONAL PULSES ABOVE
000259:
000260: 06,3513           10130                           CCS      BUF                                   #  PIPAZ, PIPAY, PIPAX
000261: 06,3514           67716                           AD       NEG1
000262: 06,3515           13475                           TCF      1/GYRO     +1
000263: 06,3516           01471        LGCOMP             ECADR    GCOMP                                 #  LESS THAN ZERO IMPOSSIBLE
000264:
000265: 06,3517           33516                           CAF      LGCOMP
000266: 06,3520           04555                           TC       BANKCALL
000267: 06,3521           17125                           CADR     IMUPULSE                              #  CALL GYRO TORQUING ROUTINE
000268: 06,3522           04555                           TC       BANKCALL
000269: 06,3523           17516                           CADR     IMUSTALL                              #  WAIT FOR PULSES TO GET OUT
000270: 06,3524           15112                           TCF      ENDOFJOB                              #  TEMPORARY
000271:
000272: 06,3525           34710        GCOMP1             CAF      FOUR                                  #  PIPAZ, PIPAY, PIPAX
000273: 06,3526           54130                           TS       BUF
000274:
000275: 06,3527           50130                           INDEX    BUF                                   #  RESCALE
000276: 06,3530           31472                           CA       GCOMP      +1
000277: 06,3531           00006                           EXTEND
000278: 06,3532           74703                           MP       BIT8                                  #  SHIFT MINOR PART LEFT 7 -- MAJOR PART = 0
000279: 06,3533           50130                           INDEX    BUF
000280: 06,3534           23472                           LXCH     GCOMP      +1                         #  BITS 8-14 OF MINOR PART WERE = 0
000281:
000282: 06,3535           10130                           CCS      BUF                                   #  PIPAZ, PIPAY, PIPAX
000283: 06,3536           67716                           AD       NEG1
000284: 06,3537           13526                           TCF      GCOMP1     +1
000285:
000286: 06,3540           01436        V06N30S            VN       0630
000287: 06,3541           15112                           TCF      ENDOFJOB
000288:


000290: 06,3542           11477        NBDONLY            CCS      GCOMPSW                               #  BYPASS IF GCOMPSW NEGATIVE
000291: 06,3543           13546                           TCF      +3
000292: 06,3544           13546                           TCF      +2
000293: 06,3545           15112                           TCF      ENDOFJOB
000294:
000295: 06,3546           00004                           INHINT
000296: 06,3547           10076                           CCS      FLAGWRD2                              #  PREREAD T3RUPT MAY COINCIDE
000297: 06,3550           15112                           TCF      ENDOFJOB
000298: 06,3551           15112                           TCF      ENDOFJOB
000299: 06,3552           13553                           TCF      +1
000300:
000301: 06,3553           30025                           CA       TIME1                                 #  (CS) X 2(+14)
000302: 06,3554           57074                           XCH      1/PIPADT                              #  PREVIOUS TIME
000303: 06,3555           00003                           RELINT
000304: 06,3556           40000                           COM
000305: 06,3557           61074                           AD       1/PIPADT
000306: 06,3560           10000        NBD2               CCS      A                                     #  CALCULATE ELAPSED TIME.
000307: 06,3561           64712                           AD       ONE                                   #  NO TIME1 OVERFLOW
000308: 06,3562           13567                           TCF      NBD3                                  #  RESTORE TIME DIFFERENCE AND JUMP
000309: 06,3563           13565                           TCF      +2                                    #  TIME1 OVERFLOW
000310: 06,3564           15112                           TCF      ENDOFJOB                              #  IF ELAPSED TIME = 0 (DIFFERENCE = -0)
000311:
000312: 06,3565           40000                           COM                                            #  CALCULATE ABSOLUTE DIFFERENCE
000313: 06,3566           64672                           AD       POSMAX
000314:
000315: 06,3567           00006        NBD3               EXTEND                                         #  C(A) = DELTAT         (CS) X 2(+14)
000316: 06,3570           74701                           MP       BIT10                                 #  SHIFT RIGHT 5
000317: 06,3571           52123                           DXCH     VBUF
000318: 06,3572           00006                           EXTEND
000319: 06,3573           30123                           DCA      VBUF
000320: 06,3574           52155                           DXCH     MPAC                                  #  DELTAT NOW SCALED (CS) X 2(+19)
000321:
000322: 06,3575           34714                           CAF      ZERO
000323: 06,3576           55477                           TS       GCOMPSW                               #  INDICATE COMMANDS 2 PULSES OR LESS.
000324: 06,3577           54130                           TS       BUF                                   #  INDEX X, Y, Z.
000325:
000326: 06,3600           41460                           CS       NBDX                                  #  (GYRO PULSES)/(CS) X 2(-5)
000327: 06,3601           03617                           TC       FBIASSUB                              #  -(NBOX)(DELTAT)       (GYRO PULSES) X 2(+14)
000328:
000329: 06,3602           00006                           EXTEND
000330: 06,3603           40123                           DCS      VBUF
000331: 06,3604           52155                           DXCH     MPAC                                  #  DELTAT SCALED (CS) X 2(+19)
000332: 06,3605           31461                           CA       NBDY                                  #  (BYRO PULSES)/(CS) X 2(-5)
000333: 06,3606           03617                           TC       FBIASSUB                              #  -(NBDY)(DELTAT)       (GYRO PULSES) X 2(+14)
000334:
000335: 06,3607           00006                           EXTEND
000336: 06,3610           40123                           DCS      VBUF
000337: 06,3611           52155                           DXCH     MPAC                                  #  DELTAT SCALED (CS) X 2(+19)
000338: 06,3612           41462                           CS       NBDZ                                  #  (GYRO PULSES)/(CS) X 2(-5)
000339: 06,3613           03617                           TC       FBIASSUB                              #  +(NBDZ)(DELTAT)       (GYRO PULSES) X 2(+14)


000341: 06,3614           11477                           CCS      GCOMPSW                               #  ARE GYRO COMMANDS GREATER THAN 2 PULSES
000342: 06,3615           13474                           TCF      1/GYRO                                #  YES
000343: 06,3616           15112                           TCF      ENDOFJOB                              #  NO
000344:


000346: 06,3617           56002        FBIASSUB           XCH      Q
000347: 06,3620           54131                           TS       BUF        +1
000348:
000349: 06,3621           30002                           CA       Q                                     #  NBD SCALED (GYRO PULSES)/(CS) X 2(-5)
000350: 06,3622           00006                           EXTEND
000351: 06,3623           70154                           MP       MPAC                                  #  DELTAT SCALED (CS) X 2(+19)
000352: 06,3624           50130                           INDEX    BUF
000353: 06,3625           21472                           DAS      GCOMP                                 #  HI(NBD)(DELTAT)       (GYRO PULSES) X 2(+14)
000354:
000355: 06,3626           30002                           CA       Q                                     #  NO FRACTIONAL PART
000356: 06,3627           00006                           EXTEND
000357: 06,3630           70155                           MP       MPAC       +1
000358: 06,3631           54001                           TS       L
000359: 06,3632           34714                           CAF      ZERO
000360: 06,3633           50130                           INDEX    BUF
000361: 06,3634           21472                           DAS      GCOMP                                 #  (NBD)(DELTAT)         (GYRO PULSES) X 2(+14)
000362:
000363: 06,3635           13461                           TCF      DRFTSUB2                              #  CHECK MAGNITUDE OF COMPENSATION
000364:
000365: 06,3636           04555        LASTBIAS           TC       BANKCALL
000366: 06,3637           17075                           CADR     PIPUSE
000367:
000368: 06,3640           11477                           CCS      GCOMPSW
000369: 06,3641           13644                           TCF      +3
000370: 06,3642           13644                           TCF      +2
000371: 06,3643           15112                           TCF      ENDOFJOB
000372:
000373: 06,3644           37665                           CAF      PRIO31                                #  2 SECONDS SCALED (CS) X 2(+8)
000374: 06,3645           57074                           XCH      1/PIPADT
000375: 06,3646           40000                           COM
000376: 06,3647           61246                           AD       PIPTIME1   +1                         #  TIME AT PIPA1 =0
000377: 06,3650           13560                           TCF      NBD2
000378:

End of include-file IMU_COMPENSATION_PACKAGE.agc.  Parent file is MAIN.agc


