
Source Code


000002:                                                                                                  ## Copyright:   Public domain.
000003:                                                                                                  ## Filename:    INTER-BANK_COMMUNICATION.agc
000004:                                                                                                  ## Purpose:     Part of the source code for Colossus, build 249.
000005:                                                                                                  ##              It is part of the source code for the Command Module's (CM)
000006:                                                                                                  ##              Apollo Guidance Computer (AGC), for Apollo 9.
000007:                                                                                                  ## Assembler:   yaYUL
000008:                                                                                                  ## Reference:   Starts on p. 1073
000009:                                                                                                  ## Contact:     Ron Burkey <info@sandroid.org>.
000010:                                                                                                  ## Website:     www.ibiblio.org/apollo.
000011:                                                                                                  ## Mod history: 08/28/04   RSB  Adapted from corresponding Luminary 131 file.
000012:                                                                                                  ##              2011-05-07 JL   Removed workaround.
000013:                                                                                                  ##              2017-01-06 RSB  Page numbers now agree with those on the
000014:                                                                                                  ##                              original harcopy, as opposed to the PDF page
000015:                                                                                                  ##                              numbers in 1701.pdf.
000016:                                                                                                  ##              2017-01-14 RSB  Cross-diff'd comment text (not whitespace)
000017:                                                                                                  ##                              vs the already-proofed corresponding Colossus
000018:                                                                                                  ##                              237 and Comanche 55 source-code files
000019:                                                                                                  ##                              and corrected errors found.  After this process,
000020:                                                                                                  ##                              there was no difference between the 3 versions,
000021:                                                                                                  ##                              in terms of comment text.
000022:                                                                                                  ##
000023:                                                                                                  ## The contents of the "Colossus249" files, in general, are transcribed
000024:                                                                                                  ## from a scanned copy of the program listing.  Notations on this
000025:                                                                                                  ## document read, in part:
000026:                                                                                                  ##
000027:                                                                                                  ##      Assemble revision 249 of AGC program Colossus by NASA
000028:                                                                                                  ##      2021111-041.  October 28, 1968.
000029:                                                                                                  ##
000030:                                                                                                  ##      This AGC program shall also be referred to as
000031:                                                                                                  ##                              Colossus 1A
000032:                                                                                                  ##
000033:                                                                                                  ##      Prepared by
000034:                                                                                                  ##                      Massachusetts Institute of Technology
000035:                                                                                                  ##                      75 Cambridge Parkway
000036:                                                                                                  ##                      Cambridge, Massachusetts
000037:                                                                                                  ##      under NASA contract NAS 9-4065.
000038:                                                                                                  ##
000039:                                                                                                  ## Refer directly to the online document mentioned above for further information.
000040:                                                                                                  ## Please report any errors (relative to the scanned pages) to info@sandroid.org.
000041:                                                                                                  ##
000042:                                                                                                  ## In some cases, where the source code for Luminary 131 overlaps that of
000043:                                                                                                  ## Colossus 249, this code is instead copied from the corresponding Luminary 131
000044:                                                                                                  ## source file, and then is proofed to incorporate any changes.
000045:


000047:                                                                                                  #  THE FOLLOWING ROUTINE CAN BE USED TO CALL A SUBROUTINE IN ANOTHER BANK. IN THE BANKCALL VERSION, THE
000048:                                                                                                  #  CADR OF THE SUBROUTINE IMMEDIATELY FOLLOWS THE TC BANKCALL INSTRUCTION, WITH C(A) AND C(L) PRESERVED.
000049:
000050:    4555                                           BLOCK    02
000051:    4555                                           COUNT    02/BANK
000052:
000053:    4555           52134        BANKCALL           DXCH     BUF2                                  #  SAVE INCOMING A,L.
000054:    4556           50002                           INDEX    Q                                     #  PICK UP CADR.
000055:    4557           30000                           CA       0
000056:    4560           24002                           INCR     Q                                     #  SO WE RETURN TO THE LOC. AFTER THE CADR.
000057:
000058:                                                                                                  #  SWCALL IS  IDENTICAL TO BANKCALL, EXCEPT THAT THE CADR ARRIVES IN A.
000059:
000060:    4561           54001        SWCALL             TS       L
000061:    4562           22004                           LXCH     FBANK                                 #  SWITCH BANKS, SAVING RETURN.
000062:    4563           74747                           MASK     LOW10                                 #  GET SUB-ADDRESS OF CADR.
000063:    4564           56002                           XCH      Q                                     #  A,L NOW CONTAINS DP RETURN.
000064:    4565           52134                           DXCH     BUF2                                  #  RESTORING INPUTS IF THIS IS A BANKCALL.
000065:    4566           50002                           INDEX    Q
000066:    4567           02000                           TC       10000                                 #  SETTING Q TO SWRETURN.
000067:
000068:    4570           56134        SWRETURN           XCH      BUF2       +1                         #  COMES HERE TO RETURN TO CALLER. C(A,L)
000069:    4571           56004                           XCH      FBANK                                 #  ARE PRESERVED FOR RETURN.
000070:    4572           56134                           XCH      BUF2       +1
000071:    4573           00133                           TC       BUF2
000072:
000073:                                                                                                  #  THE FOLLOWING ROUTINE CAN BE USED AS A UNILATERAL JUMP WITH C(A,L) PRESERVED AND THE CADR IMMEDIATELY
000074:                                                                                                  #  FOLLOWING THE TC POSTJUMP INSTRUCTION.
000075:
000076:    4574           56002        POSTJUMP           XCH      Q                                     #  SAVE INCOMING C(A).
000077:    4575           50000                           INDEX    A                                     #  GET CADR.
000078:    4576           30000                           CA       0
000079:
000080:                                                                                                  #  BANKJUMP IS THE SAME AS POSTJUMP, EXCEPT THAT THE CADR ARRIVES IN A.
000081:
000082:    4577           54004        BANKJUMP           TS       FBANK
000083:    4600           74747                           MASK     LOW10
000084:    4601           56002                           XCH      Q                                     #  RESTORING INPUT C(A) IF THIS WAS A
000085:    4602           50002        Q+10000            INDEX    Q                                     #  POSTJUMP.
000086:    4603           12000        PRIO12             TCF      10000                                 #  PRIO12 = TCF  10000 = 12000
000087:


000089:                                                                                                  #  THE FOLLOWING ROUTINE GETS THE RETURN CADR SAVED BY SWCALL OR BANKCALL AND LEAVES IT IN A.
000090:
000091:    4604           34747        MAKECADR           CAF      LOW10
000092:    4605           70133                           MASK     BUF2
000093:    4606           60134                           AD       BUF2       +1
000094:    4607           00002                           TC       Q
000095:
000096:    4610           54135        SUPDACAL           TS       MPTEMP
000097:    4611           56004                           XCH      FBANK                                 #  SET FBANK FOR DATA.
000098:    4612           00006                           EXTEND
000099:    4613           04007                           ROR      SUPERBNK                              #  SAVE FBANK IN BITS 15-11, AND
000100:    4614           56135                           XCH      MPTEMP                                #  SUPERBANK IN BITS 7-5.
000101:    4615           74747                           MASK     LOW10
000102:    4616           56001                           XCH      L                                     #  SAVE REL. ADR. IN BANK, FETCH SUPERBITS.
000103:    4617           00004                           INHINT                                         #  BECAUSE RUPT DOES NOT SAVE SUPERBANK.
000104:    4620           00006                           EXTEND
000105:    4621           01007                           WRITE    SUPERBNK                              #  SET SUPERBANK FOR DATA.
000106:    4622           50001                           INDEX    L
000107:    4623           32000                           CA       10000                                 #  PINBALL (FIX MEM DISP) PREVENTS DCA HERE
000108:    4624           56135                           XCH      MPTEMP                                #  SAVE 1ST WD, FETCH OLD FBANK AND SBANK.
000109:    4625           00006                           EXTEND
000110:    4626           01007                           WRITE    SUPERBNK                              #  RESTORE SUPERBANK.
000111:    4627           00003                           RELINT
000112:    4630           54004                           TS       FBANK                                 #  RESTORE FBANK.
000113:    4631           30135                           CA       MPTEMP                                #  RECOVER FIRST WORD OF DATA.
000114:    4632           00002                           RETURN                                         #  24 WDS. DATACALL 516 MU, SUPDACAL 432 MU
000115:


000117:                                                                                                  #  THE FOLLOWING ROUTINES ARE IDENTICAL TO BANKCALL AND SWCALL EXCEPT THAT THEY ARE USED IN INTERRUPT.
000118:
000119:    4633           52073        IBNKCALL           DXCH     RUPTREG3                              #  USES RUPTREG3,4 FOR DP RETURN ADDRESS.
000120:    4634           50002                           INDEX    Q
000121:    4635           30000                           CAF      0
000122:    4636           24002                           INCR     Q
000123:
000124:    4637           54001        ISWCALL            TS       L
000125:    4640           22004                           LXCH     FBANK
000126:    4641           74747                           MASK     LOW10
000127:    4642           56002                           XCH      Q
000128:    4643           52073                           DXCH     RUPTREG3
000129:    4644           50002                           INDEX    Q
000130:    4645           02000                           TC       10000
000131:
000132:    4646           56073        ISWRETRN           XCH      RUPTREG4
000133:    4647           56004                           XCH      FBANK
000134:    4650           56073                           XCH      RUPTREG4
000135:    4651           00072                           TC       RUPTREG3
000136:
000137:                                                                                                  #  2. USPRCADR ACCESSES INTERPRETIVE CODING IN OTHER THAN THE USER'S FBANK.  THE CALLING SEQUENCE IS AS FOLLOWS:
000138:                                                                                                  #        L       TC      USPRCADR
000139:                                                                                                  #        L+1     CADR    INTPRETX        INTPRETX IS THE INTERPRETIVE CODING
000140:                                                                                                  #                                        RETURN IS TO L+2
000141:
000142:    4652           54164        USPRCADR           TS       LOC                                   #  SAVE A
000143:    4653           34703                           CA       BIT8
000144:    4654           54023                           TS       EDOP                                  #  EXIT INSTRUCTION TO EDOP
000145:    4655           30006                           CA       BBANK
000146:    4656           54165                           TS       BANKSET                               #  USER'S BBANK TO BANKSET
000147:    4657           50002                           INDEX    Q
000148:    4660           30000                           CA       0
000149:    4661           54004                           TS       FBANK                                 #  INTERPRETIVE BANK TO FBANK
000150:    4662           74747                           MASK     LOW10                                 #  YIELDS INTERPRETIVE RELATIVE ADDRESS
000151:    4663           56002                           XCH      Q                                     #  INTERPRETIVE ADDRESS TO Q, FETCHING L+1
000152:    4664           56164                           XCH      LOC                                   #  L+1 TO LOC, RETRIEVING ORIGINAL A
000153:    4665           14602                           TCF      Q+10000
000154:


000156:                                                                                                  #  THERE ARE FOUR POSSIBLE SETTINGS FOR CHANNEL 07.  (CHANNEL 07 CONTAINS THE SUPERBANK SETTING.)
000157:
000158:                                                                                                  #                                        PSEUDO-FIXED     OCTAL PSEUDO
000159:                                                                                                  #  SUPERBANK     SETTING S-REG. VALUE    BANK NUMBERS     ADDRESSES
000160:                                                                                                  #  ----------    ------- ------------     ------------     ------------
000161:                                                                                                  #  SUPERBANK 3     0XX    2000 - 3777       30 - 37       70000 - 107777         (WHERE XX CAN BE ANYTHING AND
000162:                                                                                                  #                                                                                WILL USUALLY BE SEEN AS 11)
000163:                                                                                                  #  SUPERBANK 4     100    2000 - 3777       40 - 47      110000 - 127777         (AS FAR AS IT CAN BE SEEN,
000164:                                                                                                  #                                                                                ONLY BANKS 40-43 WILL EVER BE
000165:                                                                                                  #                                                                                AND ARE PRESENTLY AVAILABLE)
000166:                                                                                                  #  SUPERBANK 5     101    2000 - 3777       50 - 57      130000 - 147777         (PRESENTLY NOT AVAILABLE TO
000167:                                                                                                  #                                                                                THE USER)
000168:                                                                                                  #  SUPERBANK 6     110    2000 - 3777       60 - 67      150000 - 167777         (PRESENTLY NOT AVAILABLE TO
000169:                                                                                                  #                                                                                THE USER)
000170:                                                                                                  #  *** THIS ROUTINE MAY BE CALLED BY ANY PROGRAM LOCATED IN BANKS 00 - 27.  I.E., NO PROGRAM LIVING IN ANY
000171:                                                                                                  #  SUPERBANK SHOULD USE SUPERSW. ***
000172:
000173:                                                                                                  #  SUPERSW MAY BE CALLED IN THIS FASHION:
000174:                                                                                                  #        CAF     ABBCON          WHERE -- ABBCON  BBCON  SOMETHIN --
000175:                                                                                                  #        TCR     SUPERSW         (THE SUPERBNK BITS ARE IN THE BBCON)
000176:                                                                                                  #        ...       ...
000177:                                                                                                  #         .         .
000178:                                                                                                  #         .         .
000179:                                                                                                  #  OR IN THIS FASHION:
000180:                                                                                                  #        CAF     SUPERSET        WHERE SUPERSET IS ONE OF THE FOUR AVAILABLE
000181:                                                                                                  #        TCR     SUPERSW         SUPERBANK BIT CONSTANTS:
000182:                                                                                                  #        ...       ...                   SUPER011 OCTAL  60
000183:                                                                                                  #         .         .                    SUPER100 OCTAL 100
000184:                                                                                                  #         .         .                    SUPER101 OCTAL 120
000185:                                                                                                  #                                        SUPER110 OCTAL 140
000186:
000187:    4666           00006        SUPERSW            EXTEND
000188:    4667           01007                           WRITE    SUPERBNK                              #  WRITE BITS 7-6-5 OF THE ACCUMULATOR INTO
000189:                                                                                                  #  CHANNEL 07
000190:    4670           00002                           TC       Q                                     #  TC TO INSTRUCTION FOLLOWING
000191:                                                                                                  #        TC SUPERSW
000192:
000193:
000194:

End of include-file INTER-BANK_COMMUNICATION.agc.  Parent file is MAIN.agc


