
Source Code


000002:                                                                                                  #  Copyright:    Public domain.
000003:                                                                                                  #  Filename:     INTERPRETATIVE_CONSTANTS.agc
000004:                                                                                                  #  Purpose:      Part of the source code for Colossus, build 249.
000005:                                                                                                  #                It is part of the source code for the Command Module's (CM)
000006:                                                                                                  #                Apollo Guidance Computer (AGC), possibly for Apollo 8 and 9.
000007:                                                                                                  #  Assembler:    yaYUL
000008:                                                                                                  #  Reference:    pp. 1187-1188 1701.pdf.
000009:                                                                                                  #  Contact:      Ron Burkey <info@sandroid.org>.
000010:                                                                                                  #  Website:      www.ibiblio.org/apollo.
000011:                                                                                                  #  Mod history:  08/29/04 RSB.   Adapted from corresponding Luminary 131 file.
000012:
000013:                                                                                                  #  The contents of the "Colossus249" files, in general, are transcribed
000014:                                                                                                  #  from a scanned document obtained from MIT's website,
000015:                                                                                                  #  http://hrst.mit.edu/hrs/apollo/public/archive/1701.pdf.  Notations on this
000016:                                                                                                  #  document read, in part:
000017:
000018:                                                                                                  #        Assemble revision 249 of AGC program Colossus by NASA
000019:                                                                                                  #        2021111-041.  October 28, 1968.
000020:
000021:                                                                                                  #        This AGC program shall also be referred to as
000022:                                                                                                  #                                Colossus 1A
000023:
000024:                                                                                                  #        Prepared by
000025:                                                                                                  #                        Massachusetts Institute of Technology
000026:                                                                                                  #                        75 Cambridge Parkway
000027:                                                                                                  #                        Cambridge, Massachusetts
000028:                                                                                                  #        under NASA contract NAS 9-4065.
000029:
000030:                                                                                                  #  Refer directly to the online document mentioned above for further information.
000031:                                                                                                  #  Please report any errors (relative to 1701.pdf) to info@sandroid.org.
000032:
000033:                                                                                                  #  In some cases, where the source code for Luminary 131 overlaps that of
000034:                                                                                                  #  Colossus 249, this code is instead copied from the corresponding Luminary 131
000035:                                                                                                  #  source file, and then is proofed to incorporate any changes.
000036:


000038: 26,2000                                           SETLOC   INTPRET1
000039: 26,2000                                           BANK
000040:
000041: 26,3321                                           COUNT    23/ICONS
000042:
000043: 26,3321           10000 00000  DP1/4TH            2DEC     .25
000044: 26,3323           00000 00000  UNITZ              2DEC     0          B-28
000045: 26,3325           00000 00000  UNITY              2DEC     0          B-28
000046: 26,3327           20000 00000  UNITX              2DEC     .5
000047: 26,3331           00000 00000  ZEROVECS           2DEC     0          B-28
000048: 26,3333           00000 00000                     2DEC     0          B-28
000049: 26,3335           00000 00000                     2DEC     0          B-28
000050:
000051: 26,3337  26,3327               DPHALF             =        UNITX
000052: 26,3337           37777        DPPOSMAX           OCT      37777
000053: 26,3340           37777                           OCT      37777
000054:


000056:                                                                                                  #  INTERPRETIVE CONSTANTS IN THE OTHER HALF-MEMORY
000057:
000058: 04,2000                                           SETLOC   INTPRET2
000059: 04,2000                                           BANK
000060:
000061: 04,3447                                           COUNT    14/ICONS
000062:
000063: 04,3447           00000 00000  ZUNIT              2DEC     0          B-28
000064: 04,3451           00000 00000  YUNIT              2DEC     0          B-28
000065: 04,3453           20000 00000  XUNIT              2DEC     .5
000066: 04,3455           00000 00000  ZEROVEC            2DEC     0          B-28
000067: 04,3457           00000 00000                     2DEC     0          B-28
000068: 04,3461           00000 00000                     2DEC     0          B-28
000069:
000070: 04,3463           77777                           OCT      77777                                 #  -0, -6, -12 MUST REMAIN IN THIS ORDER
000071: 04,3464           77771        DFC-6              DEC      -6         B-14
000072: 04,3465           77763        DFC-12             DEC      -12        B-14
000073: 04,3466           37777 37777  LODPMAX            2OCT     3777737777                            #  THESE TWO CONSTANTS MUS REMAIN
000074: 04,3470           37777 37777  LODPMAX1           2OCT     3777737777                            #  ADJACENT AND THE SAME FOR INTEGRATION
000075:
000076: 04,3472  04,3455               ZERODP             =        ZEROVEC
000077: 04,3472  04,3453               HALFDP             =        XUNIT
000078:
000079:
000080:
000081:

End of include-file INTERPRETIVE_CONSTANTS.agc.  Parent file is MAIN.agc


