
Source Code


000002:                                                                                                  #  Copyright:    Public domain.
000003:                                                                                                  #  Filename:     INTERRUPT_LEAD_INS.agc
000004:                                                                                                  #  Purpose:      Part of the source code for Colossus, build 249.
000005:                                                                                                  #                It is part of the source code for the Command Module's (CM)
000006:                                                                                                  #                Apollo Guidance Computer (AGC), possibly for Apollo 8 and 9.
000007:                                                                                                  #  Assembler:    yaYUL
000008:                                                                                                  #  Reference:    pp. 129-130 of 1701.pdf.
000009:                                                                                                  #  Contact:      Ron Burkey <info@sandroid.org>.
000010:                                                                                                  #  Website:      www.ibiblio.org/apollo.
000011:                                                                                                  #  Mod history:  08/06/04 RSB.   Adapted from similar Luminary 131 file.
000012:
000013:                                                                                                  #  The contents of the "Colossus249" files, in general, are transcribed
000014:                                                                                                  #  from a scanned document obtained from MIT's website,
000015:                                                                                                  #  http://hrst.mit.edu/hrs/apollo/public/archive/1701.pdf.  Notations on this
000016:                                                                                                  #  document read, in part:
000017:
000018:                                                                                                  #        Assemble revision 249 of AGC program Colossus by NASA
000019:                                                                                                  #        2021111-041.  October 28, 1968.
000020:
000021:                                                                                                  #        This AGC program shall also be referred to as
000022:                                                                                                  #                                Colossus 1A
000023:
000024:                                                                                                  #        Prepared by
000025:                                                                                                  #                        Massachusetts Institute of Technology
000026:                                                                                                  #                        75 Cambridge Parkway
000027:                                                                                                  #                        Cambridge, Massachusetts
000028:                                                                                                  #        under NASA contract NAS 9-4065.
000029:
000030:                                                                                                  #  Refer directly to the online document mentioned above for further information.
000031:                                                                                                  #  Please report any errors (relative to 1701.pdf) to info@sandroid.org.
000032:
000033:                                                                                                  #  In some cases, where the source code for Luminary 131 overlaps that of
000034:                                                                                                  #  Colossus 249, this code is instead copied from the corresponding Luminary 131
000035:                                                                                                  #  source file, and then is proofed to incorporate any changes.
000036:
000037:                                                                                                  #  Page 129
000038:    4000                                           SETLOC   4000
000039:
000040:    4000                                           COUNT    02/RUPTS
000041:
000042:    4000           00004                           INHINT                                         #  GO
000043:    4001           34054                           CAF      GOBB
000044:    4002           56006                           XCH      BBANK
000045:    4003           12520                           TCF      GOPROG
000046:
000047:    4004           52011                           DXCH     ARUPT                                 #  T6RUPT
000048:    4005           00006                           EXTEND
000049:    4006           31311                           DCA      T6LOC
000050:    4007           52006                           DTCB
000051:
000052:    4010           52011                           DXCH     ARUPT                                 #  T5RUPT
000053:    4011           40030                           CS       TIME5
000054:    4012           64731                           AD       .5SEC
000055:    4013           14065                           TCF      T5RUPT
000056:
000057:    4014           52011                           DXCH     ARUPT                                 #  T3RUPT
000058:    4015           34055                           CAF      T3RPTBB
000059:    4016           56006                           XCH      BBANK
000060:    4017           13416                           TCF      T3RUPT
000061:
000062:    4020           52011                           DXCH     ARUPT                                 #  T4RUPT
000063:    4021           34063                           CAF      T4RPTBB
000064:    4022           56006                           XCH      BBANK
000065:    4023           12000                           TCF      T4RUPT
000066:
000067:    4024           52011                           DXCH     ARUPT                                 #  KEYRUPT1
000068:    4025           34056                           CAF      KEYRPTBB
000069:    4026           56006                           XCH      BBANK
000070:    4027           13613                           TCF      KEYRUPT1
000071:
000072:    4030           52011                           DXCH     ARUPT                                 #  KEYRUPT2
000073:    4031           34057                           CAF      MKRUPTBB
000074:    4032           56006                           XCH      BBANK
000075:    4033           12103                           TCF      MARKRUPT
000076:
000077:    4034           52011                           DXCH     ARUPT                                 #  UPRUPT
000078:    4035           34056                           CAF      UPRPTBB
000079:    4036           56006                           XCH      BBANK
000080:    4037           13636                           TCF      UPRUPT
000081:
000082:    4040           52011                           DXCH     ARUPT                                 #  DOWNRUPT
000083:    4041           34060                           CAF      DWNRPTBB
000084:    4042           56006                           XCH      BBANK
000085:    4043           13342                           TCF      DODOWNTM
000086:
000087:    4044           52011                           DXCH     ARUPT                                 #  RADAR RUPT
000088:                                                                                                  #  Page 130
000089:    4045           34061                           CAF      RDRPTBB
000090:    4046           56006                           XCH      BBANK
000091:    4047           12476                           TCF      VHFREAD
000092:
000093:    4050           52011                           DXCH     ARUPT                                 #  HAND CONTROL RUPT
000094:    4051           34062                           CA       HCRUPTBB
000095:    4052           56006                           XCH      BBANK
000096:    4053           15225                           TCF      RESUME     +3                         #  NOT USED
000097:
000098:    4054  E3,1400                                  EBANK=   LST1                                  #  RESTART USES E0,E3
000099:    4054           12063        GOBB               BBCON    GOPROG
000100:
000101:    4055  E3,1400                                  EBANK=   LST1
000102:    4055           02063        T3RPTBB            BBCON    T3RUPT
000103:
000104:    4056     0073                                  EBANK=   KEYTEMP1
000105:    4056           16060        KEYRPTBB           BBCON    KEYRUPT1
000106:
000107:    4057  E7,1725                                  EBANK=   MRKBUF1
000108:    4057           16067        MKRUPTBB           BBCON    MARKRUPT
000109:
000110:    4060     4056               UPRPTBB            =        KEYRPTBB
000111:
000112:    4060     0340                                  EBANK=   DNTMBUFF
000113:    4060           12060        DWNRPTBB           BBCON    DODOWNTM
000114:
000115:    4061  E7,1603                                  EBANK=   DATATEST
000116:    4061           56067        RDRPTBB            BBCON    VHFREAD
000117:
000118:    4062     0025                                  EBANK=   TIME1
000119:    4062           04060        HCRUPTBB           BBCON    RESUME                                #  NOT USA
000120:
000121:    4063     1302                                  EBANK=   DSRUPTSW
000122:    4063           14062        T4RPTBB            BBCON    T4RUPT
000123:
000124:    4064     0025                                  EBANK=   TIME1
000125:    4064           04060        T5RPTBB            BBCON    T5RUPT
000126:
000127:    4065           00006        T5RUPT             EXTEND
000128:    4066           65226                           BZMF     NOQBRSM
000129:    4067           00006                           EXTEND
000130:    4070           31313                           DCA      T5LOC
000131:    4071           52006                           DTCB
000132:
000133:

End of include-file INTERRUPT_LEAD_INS.agc.  Parent file is MAIN.agc


