
Source Code


000002:                                                                                                  ## Copyright:   Public domain.
000003:                                                                                                  ## Filename:    INTERRUPT_LEAD_INS.agc
000004:                                                                                                  ## Purpose:     Part of the source code for Colossus, build 249.
000005:                                                                                                  ##              It is part of the source code for the Command Module's (CM)
000006:                                                                                                  ##              Apollo Guidance Computer (AGC), for Apollo 9.
000007:                                                                                                  ## Assembler:   yaYUL
000008:                                                                                                  ## Reference:   pp. 127-128
000009:                                                                                                  ## Contact:     Ron Burkey <info@sandroid.org>.
000010:                                                                                                  ## Website:     www.ibiblio.org/apollo.
000011:                                                                                                  ## Mod history: 08/06/04 RSB.   Adapted from similar Luminary 131 file.
000012:                                                                                                  ##              2017-01-05 RSB  Page numbers now agree with those on the
000013:                                                                                                  ##                              original harcopy, as opposed to the PDF page
000014:                                                                                                  ##                              numbers in 1701.pdf.
000015:                                                                                                  ##              2017-01-14 RSB  Cross-diff'd comment text (not whitespace)
000016:                                                                                                  ##                              vs the already-proofed corresponding Colossus
000017:                                                                                                  ##                              237 and Comanche 55 source-code files
000018:                                                                                                  ##                              and corrected errors found.  No differences
000019:                                                                                                  ##                              remain.
000020:                                                                                                  ##
000021:                                                                                                  ## The contents of the "Colossus249" files, in general, are transcribed
000022:                                                                                                  ## from a scanned copy of the program listing.  Notations on this
000023:                                                                                                  ## document read, in part:
000024:                                                                                                  ##
000025:                                                                                                  ##      Assemble revision 249 of AGC program Colossus by NASA
000026:                                                                                                  ##      2021111-041.  October 28, 1968.
000027:                                                                                                  ##
000028:                                                                                                  ##      This AGC program shall also be referred to as
000029:                                                                                                  ##                              Colossus 1A
000030:                                                                                                  ##
000031:                                                                                                  ##      Prepared by
000032:                                                                                                  ##                      Massachusetts Institute of Technology
000033:                                                                                                  ##                      75 Cambridge Parkway
000034:                                                                                                  ##                      Cambridge, Massachusetts
000035:                                                                                                  ##      under NASA contract NAS 9-4065.
000036:                                                                                                  ##
000037:                                                                                                  ## Refer directly to the online document mentioned above for further information.
000038:                                                                                                  ## Please report any errors (relative to the scanned pages) to info@sandroid.org.
000039:                                                                                                  ##
000040:                                                                                                  ## In some cases, where the source code for Luminary 131 overlaps that of
000041:                                                                                                  ## Colossus 249, this code is instead copied from the corresponding Luminary 131
000042:                                                                                                  ## source file, and then is proofed to incorporate any changes.
000043:


000045:    4000                                           SETLOC   4000
000046:
000047:    4000                                           COUNT    02/RUPTS
000048:
000049:    4000           00004                           INHINT                                         #  GO
000050:    4001           34054                           CAF      GOBB
000051:    4002           56006                           XCH      BBANK
000052:    4003           12520                           TCF      GOPROG
000053:
000054:    4004           52011                           DXCH     ARUPT                                 #  T6RUPT
000055:    4005           00006                           EXTEND
000056:    4006           31311                           DCA      T6LOC
000057:    4007           52006                           DTCB
000058:
000059:    4010           52011                           DXCH     ARUPT                                 #  T5RUPT
000060:    4011           40030                           CS       TIME5
000061:    4012           64731                           AD       .5SEC
000062:    4013           14065                           TCF      T5RUPT
000063:
000064:    4014           52011                           DXCH     ARUPT                                 #  T3RUPT
000065:    4015           34055                           CAF      T3RPTBB
000066:    4016           56006                           XCH      BBANK
000067:    4017           13416                           TCF      T3RUPT
000068:
000069:    4020           52011                           DXCH     ARUPT                                 #  T4RUPT
000070:    4021           34063                           CAF      T4RPTBB
000071:    4022           56006                           XCH      BBANK
000072:    4023           12000                           TCF      T4RUPT
000073:
000074:    4024           52011                           DXCH     ARUPT                                 #  KEYRUPT1
000075:    4025           34056                           CAF      KEYRPTBB
000076:    4026           56006                           XCH      BBANK
000077:    4027           13613                           TCF      KEYRUPT1
000078:
000079:    4030           52011                           DXCH     ARUPT                                 #  KEYRUPT2
000080:    4031           34057                           CAF      MKRUPTBB
000081:    4032           56006                           XCH      BBANK
000082:    4033           12103                           TCF      MARKRUPT
000083:
000084:    4034           52011                           DXCH     ARUPT                                 #  UPRUPT
000085:    4035           34056                           CAF      UPRPTBB
000086:    4036           56006                           XCH      BBANK
000087:    4037           13636                           TCF      UPRUPT
000088:
000089:    4040           52011                           DXCH     ARUPT                                 #  DOWNRUPT
000090:    4041           34060                           CAF      DWNRPTBB
000091:    4042           56006                           XCH      BBANK
000092:    4043           13342                           TCF      DODOWNTM
000093:
000094:    4044           52011                           DXCH     ARUPT                                 #  RADAR RUPT


000096:    4045           34061                           CAF      RDRPTBB
000097:    4046           56006                           XCH      BBANK
000098:    4047           12476                           TCF      VHFREAD
000099:
000100:    4050           52011                           DXCH     ARUPT                                 #  HAND CONTROL RUPT
000101:    4051           34062                           CA       HCRUPTBB
000102:    4052           56006                           XCH      BBANK
000103:    4053           15225                           TCF      RESUME     +3                         #  NOT USED
000104:
000105:    4054  E3,1400                                  EBANK=   LST1                                  #  RESTART USES E0,E3
000106:    4054           12063        GOBB               BBCON    GOPROG
000107:
000108:    4055  E3,1400                                  EBANK=   LST1
000109:    4055           02063        T3RPTBB            BBCON    T3RUPT
000110:
000111:    4056     0073                                  EBANK=   KEYTEMP1
000112:    4056           16060        KEYRPTBB           BBCON    KEYRUPT1
000113:
000114:    4057  E7,1725                                  EBANK=   MRKBUF1
000115:    4057           16067        MKRUPTBB           BBCON    MARKRUPT
000116:
000117:    4060     4056               UPRPTBB            =        KEYRPTBB
000118:
000119:    4060     0340                                  EBANK=   DNTMBUFF
000120:    4060           12060        DWNRPTBB           BBCON    DODOWNTM
000121:
000122:    4061  E7,1603                                  EBANK=   DATATEST
000123:    4061           56067        RDRPTBB            BBCON    VHFREAD
000124:
000125:    4062     0025                                  EBANK=   TIME1
000126:    4062           04060        HCRUPTBB           BBCON    RESUME                                #  NOT USED
000127:
000128:    4063     1302                                  EBANK=   DSRUPTSW
000129:    4063           14062        T4RPTBB            BBCON    T4RUPT
000130:
000131:    4064     0025                                  EBANK=   TIME1
000132:    4064           04060        T5RPTBB            BBCON    T5RUPT
000133:
000134:    4065           00006        T5RUPT             EXTEND
000135:    4066           65226                           BZMF     NOQBRSM
000136:    4067           00006                           EXTEND
000137:    4070           31313                           DCA      T5LOC
000138:    4071           52006                           DTCB
000139:
000140:

End of include-file INTERRUPT_LEAD_INS.agc.  Parent file is MAIN.agc


