
Source Code
000001:                                                                                                 #  Copyright:     Public domain.
000002:                                                                                                 #  Filename:      INTERRUPT_LEAD_INS.agc
000003:                                                                                                 #  Purpose:       Part of the source code for Colossus, build 249.
000004:                                                                                                 #                 It is part of the source code for the Command Module's (CM)
000005:                                                                                                 #                 Apollo Guidance Computer (AGC), possibly for Apollo 8 and 9.
000006:                                                                                                 #  Assembler:     yaYUL
000007:                                                                                                 #  Reference:     pp. 129-130 of 1701.pdf.
000008:                                                                                                 #  Contact:       Ron Burkey <info@sandroid.org>.
000009:                                                                                                 #  Website:       www.ibiblio.org/apollo.
000010:                                                                                                 #  Mod history:   08/06/04 RSB.   Adapted from similar Luminary 131 file.
000011:
000012:                                                                                                 #  The contents of the "Colossus249" files, in general, are transcribed
000013:                                                                                                 #  from a scanned document obtained from MIT's website,
000014:                                                                                                 #  http://hrst.mit.edu/hrs/apollo/public/archive/1701.pdf.  Notations on this
000015:                                                                                                 #  document read, in part:
000016:
000017:                                                                                                 #         Assemble revision 249 of AGC program Colossus by NASA
000018:                                                                                                 #         2021111-041.  October 28, 1968.
000019:
000020:                                                                                                 #         This AGC program shall also be referred to as
000021:                                                                                                 #                                 Colossus 1A
000022:
000023:                                                                                                 #         Prepared by
000024:                                                                                                 #                         Massachussets Institute of Technology
000025:                                                                                                 #                         75 Cambridge Parkway
000026:                                                                                                 #                         Cambridge, Massachusetts
000027:                                                                                                 #         under NASA contract NAS 9-4065.
000028:
000029:                                                                                                 #  Refer directly to the online document mentioned above for further information.
000030:                                                                                                 #  Please report any errors (relative to 1701.pdf) to info@sandroid.org.
000031:
000032:                                                                                                 #  In some cases, where the source code for Luminary 131 overlaps that of
000033:                                                                                                 #  Colossus 249, this code is instead copied from the corresponding Luminary 131
000034:                                                                                                 #  source file, and then is proofed to incorporate any changes.
000035:
000036:                                                                                                 #  Page 129
000037:    4000                                          SETLOC   4000
000038:
000039:    4000                                          COUNT    02/RUPTS
000040:
000041:    4000           00004                          INHINT                                         #  GO
000042:    4001           34054                          CAF      GOBB
000043:    4002           56006                          XCH      BBANK
000044:    4003           12520                          TCF      GOPROG
000045:
000046:    4004           52011                          DXCH     ARUPT                                 #  T6RUPT
000047:    4005           00006                          EXTEND
000048:    4006           31311                          DCA      T6LOC
000049:    4007           52006                          DTCB
000050:
000051:    4010           52011                          DXCH     ARUPT                                 #  T5RUPT
000052:    4011           40030                          CS       TIME5
000053:    4012           64731                          AD       .5SEC
000054:    4013           14065                          TCF      T5RUPT
000055:
000056:    4014           52011                          DXCH     ARUPT                                 #  T3RUPT
000057:    4015           34055                          CAF      T3RPTBB
000058:    4016           56006                          XCH      BBANK
000059:    4017           13416                          TCF      T3RUPT
000060:
000061:    4020           52011                          DXCH     ARUPT                                 #  T4RUPT
000062:    4021           34063                          CAF      T4RPTBB
000063:    4022           56006                          XCH      BBANK
000064:    4023           12000                          TCF      T4RUPT
000065:
000066:    4024           52011                          DXCH     ARUPT                                 #  KEYRUPT1
000067:    4025           34056                          CAF      KEYRPTBB
000068:    4026           56006                          XCH      BBANK
000069:    4027           13613                          TCF      KEYRUPT1
000070:
000071:    4030           52011                          DXCH     ARUPT                                 #  KEYRUPT2
000072:    4031           34057                          CAF      MKRUPTBB
000073:    4032           56006                          XCH      BBANK
000074:    4033           12103                          TCF      MARKRUPT
000075:
000076:    4034           52011                          DXCH     ARUPT                                 #  UPRUPT
000077:    4035           34056                          CAF      UPRPTBB
000078:    4036           56006                          XCH      BBANK
000079:    4037           13636                          TCF      UPRUPT
000080:
000081:    4040           52011                          DXCH     ARUPT                                 #  DOWNRUPT
000082:    4041           34060                          CAF      DWNRPTBB
000083:    4042           56006                          XCH      BBANK
000084:    4043           13342                          TCF      DODOWNTM
000085:
000086:    4044           52011                          DXCH     ARUPT                                 #  RADAR RUPT
000087:                                                                                                 #  Page 130
000088:    4045           34061                          CAF      RDRPTBB
000089:    4046           56006                          XCH      BBANK
000090:    4047           12476                          TCF      VHFREAD
000091:
000092:    4050           52011                          DXCH     ARUPT                                 #  HAND CONTROL RUPT
000093:    4051           34062                          CA       HCRUPTBB
000094:    4052           56006                          XCH      BBANK
000095:    4053           15225                          TCF      RESUME     +3                         #  NOT USED
000096:
000097:    4054  E3,1400                                 EBANK=   LST1                                  #  RESTART USES E0,E3
000098:    4054           12063        GOBB              BBCON    GOPROG
000099:
000100:    4055  E3,1400                                 EBANK=   LST1
000101:    4055           02063        T3RPTBB           BBCON    T3RUPT
000102:
000103:    4056     0073                                 EBANK=   KEYTEMP1
000104:    4056           16060        KEYRPTBB          BBCON    KEYRUPT1
000105:
000106:    4057  E7,1725                                 EBANK=   MRKBUF1
000107:    4057           16067        MKRUPTBB          BBCON    MARKRUPT
000108:
000109:    4060     4056               UPRPTBB           =        KEYRPTBB
000110:
000111:    4060     0340                                 EBANK=   DNTMBUFF
000112:    4060           12060        DWNRPTBB          BBCON    DODOWNTM
000113:
000114:    4061  E7,1603                                 EBANK=   DATATEST
000115:    4061           56067        RDRPTBB           BBCON    VHFREAD
000116:
000117:    4062     0025                                 EBANK=   TIME1
000118:    4062           04060        HCRUPTBB          BBCON    RESUME                                #  NOT USA
000119:
000120:    4063     1302                                 EBANK=   DSRUPTSW
000121:    4063           14062        T4RPTBB           BBCON    T4RUPT
000122:
000123:    4064     0025                                 EBANK=   TIME1
000124:    4064           04060        T5RPTBB           BBCON    T5RUPT
000125:
000126:    4065           00006        T5RUPT            EXTEND
000127:    4066           65226                          BZMF     NOQBRSM
000128:    4067           00006                          EXTEND
000129:    4070           31313                          DCA      T5LOC
000130:    4071           52006                          DTCB
000131:
000132:

End of include-file INTERRUPT_LEAD_INS.agc.  Parent file is MAIN.agc


