
Source Code


000002:                                                                                                  ## Copyright:   Public domain.
000003:                                                                                                  ## Filename:    INTER-BANK_COMMUNICATION.agc
000004:                                                                                                  ## Purpose:     Part of the source code for Colossus, build 249.
000005:                                                                                                  ##              It is part of the source code for the Command Module's (CM)
000006:                                                                                                  ##              Apollo Guidance Computer (AGC), possibly for Apollo 8 and 9.
000007:                                                                                                  ## Assembler:   yaYUL
000008:                                                                                                  ## Reference:   Starts on p. 1085 of 1701.pdf.
000009:                                                                                                  ## Contact:     Ron Burkey <info@sandroid.org>.
000010:                                                                                                  ## Website:     www.ibiblio.org/apollo.
000011:                                                                                                  ## Mod history: 08/28/04   RSB  Adapted from corresponding Luminary 131 file.
000012:                                                                                                  ##              2011-05-07 JL   Removed workaround.
000013:
000014:                                                                                                  ## The contents of the "Colossus249" files, in general, are transcribed
000015:                                                                                                  ## from a scanned document obtained from MIT's website,
000016:                                                                                                  ## http://hrst.mit.edu/hrs/apollo/public/archive/1701.pdf.  Notations on this
000017:                                                                                                  ## document read, in part:
000018:                                                                                                  ##
000019:                                                                                                  ##      Assemble revision 249 of AGC program Colossus by NASA
000020:                                                                                                  ##      2021111-041.  October 28, 1968.
000021:                                                                                                  ##
000022:                                                                                                  ##      This AGC program shall also be referred to as
000023:                                                                                                  ##                              Colossus 1A
000024:                                                                                                  ##
000025:                                                                                                  ##      Prepared by
000026:                                                                                                  ##                      Massachusetts Institute of Technology
000027:                                                                                                  ##                      75 Cambridge Parkway
000028:                                                                                                  ##                      Cambridge, Massachusetts
000029:                                                                                                  ##      under NASA contract NAS 9-4065.
000030:                                                                                                  ##
000031:                                                                                                  ## Refer directly to the online document mentioned above for further information.
000032:                                                                                                  ## Please report any errors (relative to 1701.pdf) to info@sandroid.org.
000033:                                                                                                  ##
000034:                                                                                                  ## In some cases, where the source code for Luminary 131 overlaps that of
000035:                                                                                                  ## Colossus 249, this code is instead copied from the corresponding Luminary 131
000036:                                                                                                  ## source file, and then is proofed to incorporate any changes.
000037:


000039:                                                                                                  #  THE FOLLOWING ROUTINE CAN BE USED TO CALL A SUBROUTINE IN ANOTHER BANK. IN THE BANKCALL VERSION, THE
000040:                                                                                                  #  CADR OF THE SUBROUTINE IMMEDIATELY FOLLOWS THE TC BANKCALL INSTRUCTION, WITH C(A) AND C(L) PRESERVED.
000041:
000042:    4555                                           BLOCK    02
000043:    4555                                           COUNT    02/BANK
000044:
000045:    4555           52134        BANKCALL           DXCH     BUF2                                  #  SAVE INCOMING A,L.
000046:    4556           50002                           INDEX    Q                                     #  PICK UP CADR.
000047:    4557           30000                           CA       0
000048:    4560           24002                           INCR     Q                                     #  SO WE RETURN TO THE LOC. AFTER THE CADR.
000049:
000050:                                                                                                  #  SWCALL IS  IDENTICAL TO BANKCALL, EXCEPT THAT THE CADR ARRIVES IN A.
000051:
000052:    4561           54001        SWCALL             TS       L
000053:    4562           22004                           LXCH     FBANK                                 #  SWITCH BANKS, SAVING RETURN.
000054:    4563           74747                           MASK     LOW10                                 #  GET SUB-ADDRESS OF CADR.
000055:    4564           56002                           XCH      Q                                     #  A,L NOW CONTAINS DP RETURN.
000056:    4565           52134                           DXCH     BUF2                                  #  RESTORING INPUTS IF THIS IS A BANKCALL.
000057:    4566           50002                           INDEX    Q
000058:    4567           02000                           TC       10000
000059:
000060:    4570           56134        SWRETURN           XCH      BUF2       +1                         #  COMES HERE TO RETURN TO CALLER. C(A,L)
000061:    4571           56004                           XCH      FBANK                                 #  ARE PRESERVED FOR RETURN.
000062:    4572           56134                           XCH      BUF2       +1
000063:    4573           00133                           TC       BUF2
000064:
000065:                                                                                                  #  THE FOLLOWING ROUTINE CAN BE USED AS A UNILATERAL JUMP WITH C(A,L) PRESERVED AND THE CADR IMMEDIATELY
000066:                                                                                                  #  FOLLOWING THE TC POSTJUMP INSTRUCTION.
000067:
000068:    4574           56002        POSTJUMP           XCH      Q                                     #  SAVE INCOMING C(A).
000069:    4575           50000                           INDEX    A                                     #  GET CADR.
000070:    4576           30000                           CA       0
000071:
000072:                                                                                                  #  BANKJUMP IS THE SAME AS POSTJUMP, EXCEPT THAT THE CADR ARRIVES IN A.
000073:
000074:    4577           54004        BANKJUMP           TS       FBANK
000075:    4600           74747                           MASK     LOW10
000076:    4601           56002                           XCH      Q                                     #  RESTORING INPUT C(A) IF THIS WAS A
000077:    4602           50002        Q+10000            INDEX    Q                                     #  POSTJUMP.
000078:    4603           12000        PRIO12             TCF      10000                                 #  PRIO12 = TCF  10000 = 12000
000079:


000081:                                                                                                  #  THE FOLLOWING ROUTINE GETS THE RETURN CADR SAVED BY SWCALL OR BANKCALL AND LEAVES IT IN A.
000082:
000083:    4604           34747        MAKECADR           CAF      LOW10
000084:    4605           70133                           MASK     BUF2
000085:    4606           60134                           AD       BUF2       +1
000086:    4607           00002                           TC       Q
000087:
000088:    4610           54135        SUPDACAL           TS       MPTEMP
000089:    4611           56004                           XCH      FBANK                                 #  SET FBANK FOR DATA.
000090:    4612           00006                           EXTEND
000091:    4613           04007                           ROR      SUPERBNK                              #  SAVE FBANK IN BITS 15-11, AND
000092:    4614           56135                           XCH      MPTEMP                                #  SUPERBANK IN BITS 7-5.
000093:    4615           74747                           MASK     LOW10
000094:    4616           56001                           XCH      L                                     #  SAVE REL. ADR. IN BANK, FETCH SUPERBITS
000095:    4617           00004                           INHINT                                         #  BECAUSE RUPT DOES NOT SAVE SUPERBANK.
000096:    4620           00006                           EXTEND
000097:    4621           01007                           WRITE    SUPERBNK                              #  SET SUPERBANK FOR DATA.
000098:    4622           50001                           INDEX    L
000099:    4623           32000                           CA       10000                                 #  PINBALL (FIX MEM DISP) PREVENTS DCA HERE
000100:    4624           56135                           XCH      MPTEMP                                #  SAVE 1ST WD, FETCH OLD FBANK AND SBANK.
000101:    4625           00006                           EXTEND
000102:    4626           01007                           WRITE    SUPERBNK                              #  RESTORE SUPERBANK.
000103:    4627           00003                           RELINT
000104:    4630           54004                           TS       FBANK                                 #  RESTORE FBANK.
000105:    4631           30135                           CA       MPTEMP                                #  RECOVER FIRST WORD OF DATA.
000106:    4632           00002                           RETURN                                         #  24 WDS. DATACALL 516 MU, SUPDACAL 432 MU
000107:


000109:                                                                                                  #  THE FOLLOWING ROUTINES ARE IDENTICAL TO BANKCALL AND SWCALL EXCEPT THAT THEY ARE USED IN INTERRUPT.
000110:
000111:    4633           52073        IBNKCALL           DXCH     RUPTREG3                              #  USES RUPTREG3,4 FOR DP RETURN ADDRESS.
000112:    4634           50002                           INDEX    Q
000113:    4635           30000                           CAF      0
000114:    4636           24002                           INCR     Q
000115:
000116:    4637           54001        ISWCALL            TS       L
000117:    4640           22004                           LXCH     FBANK
000118:    4641           74747                           MASK     LOW10
000119:    4642           56002                           XCH      Q
000120:    4643           52073                           DXCH     RUPTREG3
000121:    4644           50002                           INDEX    Q
000122:    4645           02000                           TC       10000
000123:
000124:    4646           56073        ISWRETRN           XCH      RUPTREG4
000125:    4647           56004                           XCH      FBANK
000126:    4650           56073                           XCH      RUPTREG4
000127:    4651           00072                           TC       RUPTREG3
000128:
000129:                                                                                                  #  2. USPRCADR ACCESSES INTERPRETIVE CODING IN OTHER THAN THE USER'S FBANK.  THE CALLING SEQUENCE IS AS FOLLOWS:
000130:                                                                                                  #        L       TC      USPRCADR
000131:                                                                                                  #        L+1     CADR    INTPRETX        # INTPRETX IS THE INTERPRETIVE CODING
000132:                                                                                                  #                                        # RETURN IS TO L+2
000133:
000134:    4652           54164        USPRCADR           TS       LOC                                   #  SAVE A
000135:    4653           34703                           CA       BIT8
000136:    4654           54023                           TS       EDOP                                  #  EXIT INSTRUCTION TO EDOP
000137:    4655           30006                           CA       BBANK
000138:    4656           54165                           TS       BANKSET                               #  USER'S BBANK TO BANKSET
000139:    4657           50002                           INDEX    Q
000140:    4660           30000                           CA       0
000141:    4661           54004                           TS       FBANK                                 #  INTERPRETIVE BANK TO FBANK
000142:    4662           74747                           MASK     LOW10                                 #  YIELDS INTERPRETIVE RELATIVE ADDRESS
000143:    4663           56002                           XCH      Q                                     #  INTERPRETIVE ADDRESS TO Q, FETCHING L+1
000144:    4664           56164                           XCH      LOC                                   #  L+1 TO LOC, RETRIEVING ORIGINAL A
000145:    4665           14602                           TCF      Q+10000
000146:


000148:                                                                                                  #  THERE ARE FOUR POSSIBLE SETTINGS FOR CHANNEL 07.  (CHANNEL 07 CONTAINS SUPERBANK SETTING.)
000149:
000150:                                                                                                  #                                        PSEUDO-FIXED    OCTAL PSEUDO
000151:                                                                                                  #  SUPERBANK     SETTING S-REG. VALUE    BANK NUMBERS    ADDRESSES
000152:                                                                                                  #  ---------     ------- ------------    ------------    ---------
000153:                                                                                                  #  SUPERBANK 3     OXX    2000 - 3777       30 - 37       70000 - 107777         (WHERE XX CAN BE ANYTHING AND
000154:                                                                                                  #                                                                                WILL USUALLY BE SEEN AS 11)
000155:                                                                                                  #  SUPERBANK 4     100    2000 - 3777       40 - 47      110000 - 127777         (AS FAR AS IT CAN BE SEEN,
000156:                                                                                                  #                                                                                ONLY BANKS 40-43 WILL EVER BE
000157:                                                                                                  #                                                                                AND ARE PRESENTLY AVAILABLE)
000158:                                                                                                  #  SUPERBANK 5     101    2000 - 3777       50 - 57      130000 - 147777         (PRESENTLY NOT AVAILABLE TO
000159:                                                                                                  #                                                                                THE USER)
000160:                                                                                                  #  SUPERBANK 6     110    2000 - 3777       60 - 67      150000 - 167777         (PRESENTLY NOT AVAILABLE TO
000161:                                                                                                  #                                                                                THE USER)
000162:                                                                                                  #  *** THIS ROUTINE MAY BE CALLED BY ANY PROGRAM LOCATED IN BANKS 00 - 27.  I.E., NO PROGRAM LIVING IN ANY
000163:                                                                                                  #  SUPERBANK SHOULD USE SUPERSW. ***
000164:
000165:                                                                                                  #  SUPERSW MAY BE CALLED IN THIS FASHION:
000166:                                                                                                  #        CAF     ABBCON          WHERE -- ABBCON  BBCON  SOMETHING --
000167:                                                                                                  #        TCR     SUPERSW         (THE SUPERBNK BITS ARE IN THE BBCON)
000168:                                                                                                  #        ...       ...
000169:                                                                                                  #         .         .
000170:                                                                                                  #         .         .
000171:                                                                                                  #  OR IN THIS FASHION:
000172:                                                                                                  #        CAF     SUPERSET        WHERE SUPERSET IS ONE OF THE FOUR AVAILABLE
000173:                                                                                                  #        TCR     SUPERSW         SUPERBANK BIT CONSTANTS:
000174:                                                                                                  #        ...       ...                   SUPER011 OCTAL  60
000175:                                                                                                  #         .         .                    SUPER100 OCTAL 100
000176:                                                                                                  #         .         .                    SUPER101 OCTAL 120
000177:                                                                                                  #                                        SUPER110 OCTAL 140
000178:
000179:    4666           00006        SUPERSW            EXTEND
000180:    4667           01007                           WRITE    SUPERBNK                              #  WRITE BITS 7-6-5 OF THE ACCUMULATOR INTO
000181:                                                                                                  #  CHANNEL 07
000182:    4670           00002                           TC       Q                                     #  TC TO INSTRUCTION FOLLOWING
000183:                                                                                                  #        TC SUPERSW
000184:
000185:
000186:

End of include-file INTER-BANK_COMMUNICATION.agc.  Parent file is MAIN.agc


