
Source Code


000002:                                                                                                  ## Copyright:   Public domain.
000003:                                                                                                  ## Filename:    INTERPRETER.agc
000004:                                                                                                  ## Purpose:     Part of the source code for Colossus, build 249.
000005:                                                                                                  ##              It is part of the source code for the Command Module's (CM)
000006:                                                                                                  ##              Apollo Guidance Computer (AGC), for Apollo 9.
000007:                                                                                                  ## Assembler:   yaYUL
000008:                                                                                                  ## Reference:   Starts on p. 1077
000009:                                                                                                  ## Contact:     Ron Burkey <info@sandroid.org>.
000010:                                                                                                  ## Website:     www.ibiblio.org/apollo.
000011:                                                                                                  ## Mod history: 08/28/04   RSB  Adapted from corresponding Luminary 131 file.
000012:                                                                                                  ##              2010-10-24 JL   Indentation fixes.
000013:                                                                                                  ##              2011-05-07 JL   Removed workarounds.
000014:                                                                                                  ##              2017-01-06 RSB  Page numbers now agree with those on the
000015:                                                                                                  ##                              original harcopy, as opposed to the PDF page
000016:                                                                                                  ##                              numbers in 1701.pdf.
000017:                                                                                                  ##              2017-01-14 RSB  Cross-diff'd comment text (not whitespace)
000018:                                                                                                  ##                              vs the already-proofed corresponding Colossus
000019:                                                                                                  ##                              237 and Comanche 55 source-code files
000020:                                                                                                  ##                              and corrected errors found.
000021:                                                                                                  ##
000022:                                                                                                  ## The contents of the "Colossus249" files, in general, are transcribed
000023:                                                                                                  ## from a scanned copy of the program listing.  Notations on this
000024:                                                                                                  ## document read, in part:
000025:                                                                                                  ##
000026:                                                                                                  ##      Assemble revision 249 of AGC program Colossus by NASA
000027:                                                                                                  ##      2021111-041.  October 28, 1968.
000028:                                                                                                  ##
000029:                                                                                                  ##      This AGC program shall also be referred to as
000030:                                                                                                  ##                              Colossus 1A
000031:                                                                                                  ##
000032:                                                                                                  ##      Prepared by
000033:                                                                                                  ##                      Massachusetts Institute of Technology
000034:                                                                                                  ##                      75 Cambridge Parkway
000035:                                                                                                  ##                      Cambridge, Massachusetts
000036:                                                                                                  ##      under NASA contract NAS 9-4065.
000037:                                                                                                  ##
000038:                                                                                                  ## Refer directly to the online document mentioned above for further information.
000039:                                                                                                  ## Please report any errors (relative to the scanned pages) to info@sandroid.org.
000040:                                                                                                  ##
000041:                                                                                                  ## In some cases, where the source code for Luminary 131 overlaps that of
000042:                                                                                                  ## Colossus 249, this code is instead copied from the corresponding Luminary 131
000043:                                                                                                  ## source file, and then is proofed to incorporate any changes.
000044:


000046:                                                                                                  #  SECTION 1  DISPATCHER
000047:
000048:                                                                                                  #  ENTRY TO THE INTERPRETER.  INTPRET SETS LOC TO THE FIRST INSTRUCTION, BANKSET TO THE BBANK OF THE
000049:                                                                                                  #  OBJECT INTERPRETIVE PROGRAM, AND INTBIT15 TO THE BIT15 CONTENTS OF FBANK.  INTERPRETIVE PROGRAMS MAY BE IN
000050:                                                                                                  #  VIRTUALLY ALL BANKS PRESENT UNDER ANY SUPER-BANK SETTING, WITH THE RESTRICTION THAT PROGRAMS IN HIGH BANKS
000051:                                                                                                  #  (BIT15 OF FBANK = 1) DO NOT REFER TO LOWBANKS, AND VICE-VERSA.  THE INTERPRETER DOES NOT SWITCH SUPERBANKS.
000052:                                                                                                  #  E-BANK SWITCHING OCCURS WHENEVER GENERAL ERASABLE (100-3777) IS ADDRESSED.
000053:
000054:    6006                                           BLOCK    03
000055:
000056:    6006                                           COUNT    03/INTER
000057:
000058:    6006           00003        INTPRET            RELINT
000059:    6007           00006                           EXTEND                                         #  SET LOC TO THE WORD FOLLOWING THE TC.
000060:    6010           22164                           QXCH     LOC
000061:    6011           30006                 +2        CA       BBANK                                 #  INTERPRETIVE BRANCHES FINISH HERE.
000062:    6012           54165                           TS       BANKSET
000063:    6013           74674                           MASK     BIT15                                 #  GET 15TH BIT FOR INDEXABLE ADDRESSES.
000064:    6014           54115                           TS       INTBIT15
000065:
000066:    6015           54023                           TS       EDOP                                  #  MAKE SURE NO INSTRUCTIONS LEFT OVER
000067:
000068:    6016           16037                           TCF      NEWOPS                                #  PICK UP OP CODE PAIR AND BEGIN.
000069:    6017           22006        INTRSM             LXCH     BBANK                                 #  RESUME SUSPENDED INTERPRETIVE JOB
000070:    6020           16011                           TCF      INTPRET    +3
000071:
000072:                                                                                                  #  DLOAD LOADS MPAC, MPAC +1, LEAVING ZERO IN MPAC +2.
000073:
000074:    6021           00006        DLOAD              EXTEND
000075:    6022           50116                           INDEX    ADDRWD
000076:    6023           30001                           DCA      0                                     #  LOAD DP C(C(ADDRWD)) INTO MPAC,MPAX +1
000077:    6024           52155        SLOAD2             DXCH     MPAC
000078:    6025           34714                           CAF      ZERO                                  #  ZERO MPAC +2
000079:


000081:                                                                                                  #  AT THE END OF MOST INSTRUCTIONS, CONTROL IS GIVEN TO DANZIG TO DISPATCH THE NEXT OPERATION.
000082:
000083:    6026           54156                           TS       MPAC       +2                         #  AND DECLARE DP MODE
000084:
000085:    6027           54163        NEWMODE            TS       MODE                                  #  PROLOGUE FOR MODE-CHANGING INSTRUCTIONS.
000086:
000087:    6030           30165        DANZIG             CA       BANKSET                               #  SET BBANK BEFORE TESTING NEWJOB SO THAT
000088:    6031           54006                           TS       BBANK                                 #  IT MAY BE SAVED DIRECTLY BY CHANJOB.
000089:
000090:    6032           10023        NOIBNKSW           CCS      EDOP                                  #  SEE IF AN ORDER CODE IS LEFT OVER FROM
000091:    6033           16046                           TCF      OPJUMP                                #  THE LAST PAIR RETRIEVED.  IF SO, EXECUTE.
000092:                                                                                                  #  EDOP IS SET TO ZERO ON ITS RE-EDITING.
000093:
000094:    6034           10067                           CCS      NEWJOB                                #  SEE IF A JOB OF HIGHER PRIORITY IS
000095:    6035           15063                           TCF      CHANG2                                #  PRESENT, AND IF SO, CHANGE JOBS.
000096:
000097:    6036           24164                           INCR     LOC                                   #  ADVANCE THE LOCATION COUNTER.
000098:
000099:                                                                                                  #  ITRACE (1) REFERS TO "NEWOPS".
000100:    6037           50164        NEWOPS             INDEX    LOC                                   #  ENTRY TO BEGIN BY PICKING OP CODE PAIR.
000101:    6040           30000                           CA       0                                     #  MAY BE AN OPCODE PAIR OR A STORE CODE.
000102:    6041           10000                           CCS      A                                     #  TEST SIGN AND GET DABS(A).
000103:    6042           16331                           TCF      DOSTORE                               #  PROCESS STORE CODE.
000104:
000105:    6043           00177        LOW7               OCT      177
000106:
000107:    6044           54023                           TS       EDOP                                  #  OP CODE PAIR.  LEAVE THE OTHER IN EDOP
000108:    6045           76043                           MASK     LOW7                                  #  WHERE CCS EDOP WILL HONOR IT NEXT.
000109:
000110:    6046           54020        OPJUMP             TS       CYR                                   #  LOWWD ENTERS HERE IF A RIGHT-HAND OP
000111:    6047           10020                           CCS      CYR                                   #  CODE IS TO BE PROCESSED.  TEST PREFICES.
000112:    6050           16216                           TCF      OPJUMP2                               #  TEST SECOND PREFIX BIT.
000113:
000114:    6051           16712                           TCF      EXIT                                  #  +0 OP CODE IS EXIT.
000115:


000117:                                                                                                  #  PROCESS ADDRESSES WHICH MAY BE DIRECT, INDEXED, OR REFERENCE THE PUSHDOWN LIST.
000118:
000119:    6052           74712        ADDRESS            MASK     BIT1                                  #  SEE IF ADDRESS IS INDEXED.  CYR CONTAINED
000120:    6053           10000                           CCS      A                                     #  400XX, SO BIT 1 IS NOW AS IT WAS IN CYR.
000121:    6054           16115                           TCF      INDEX                                 #  FORM INDEXED ADDRESS.
000122:
000123:    6055           50164        DIRADRES           INDEX    LOC                                   #  LOOK AHEAD TO NEXT WORD TO SEE IF
000124:    6056           40001        OCT40001           CS       1                                     #  ADDRESS IS GIVEN.
000125:    6057           10000                           CCS      A
000126:    6060           16164                           TCF      PUSHUP                                #  IF NOT.
000127:
000128:    6061           77773        NEG4               DEC      -4         B-14
000129:
000130:    6062           24164                           INCR     LOC                                   #  IF SO, TO SHOW WE PICKED UP A WORD.
000131:    6063           54116                           TS       ADDRWD
000132:


000134:                                                                                                  #  FINAL DIGESTION OF DIRECT ADDRESSES OF OP CODES WITH 01 PREFIX IS DONE HERE.   IN EACH CASE, THE
000135:                                                                                                  #  REQUIRED 12-BIT SUB-ADDRESS IS LEFT IN ADDRWD, WITH ANY REQUIRED E OR F BANK SWITCHING DONE.  ADDRESSES LESS
000136:                                                                                                  #  THAN 45D ARE TAKEN TO BE RELATIVE TO THE WORK AREA.  THE OP CODE IS NOW IN BITS 1-5 OF CYR WITH BIT 14 = 1.
000137:
000138:    6064           66220                           AD       -ENDVAC                               #  SEE IF ADDRESS RELATIVE TO WORK AREA.
000139:    6065           10000                           CCS      A
000140:    6066           67712                           AD       -ENDERAS                              #  IF NOT, SEE IF IN GENERAL ERASABLE.
000141:    6067           16074                           TCF      IERASTST
000142:
000143:    6070           30120        NETZERO            CA       FIXLOC                                #  IF SO, LEAVE THE MODIFIED ADDRESS IN
000144:    6071           26116                           ADS      ADDRWD                                #  ADDRWD AND DISPATCH.
000145:    6072           50020        ITR15              INDEX    CYR                                   #  THIS INDEX MAKES THE NEXT INSTRUCTION
000146:    6073           76242                           7        INDJUMP    -1                         #  TCF INDJUMP + OP, EDITING CYR.
000147:
000148:    6074           00006        IERASTST           EXTEND
000149:    6075           66105                           BZMF     GEADDR                                #  GO PROCESS GENERAL-ERASABLE ADDRESS.
000150:
000151:    6076           74747                           MASK     LOW10                                 #  FIXED BANK ADDRESS. RESTORE AND ADD B15.
000152:    6077           64747                           AD       LOW10                                 #  SWITCH BANKS AND LEAVE SUBADDRESS IN
000153:    6100           56116                           XCH      ADDRWD                                #  ADDRWD FOR OPERAND RETRIEVAL. (THIS
000154:    6101           60115                           AD       INTBIT15                              #  METHOD PRECLUDES USE OF THE LAST
000155:    6102           54004                           TS       FBANK                                 #  LOCATION IN EACH FBANK.)
000156:    6103           50020        ITR12              INDEX    CYR
000157:    6104           76242                           7        INDJUMP    -1
000158:
000159:    6105           74373        GEADDR             MASK     LOW8
000160:    6106           64744                           AD       OCT1400
000161:    6107           56116                           XCH      ADDRWD
000162:    6110           54003                           TS       EBANK
000163:    6111           50020        ITR10              INDEX    CYR
000164:    6112           76242                           7        INDJUMP    -1
000165:


000167:                                                                                                  #  THE FOLLOWING ROUTINE PROCESSES INTERPRETIVE INDEXED ADDRESSES.  AN INTERPRETER INDEX REGISTER MAY
000168:                                                                                                  #  CONTAIN THE ADDRESS OF ANY ERASABLE REGISTER (0-42 BEING RELATIVE TO THE VAC AREA) OR ANY INTERPRETIVE PROGRAM
000169:                                                                                                  #  BANK, OR ANY INTEGER IN THAT RANGE.
000170:
000171:    6113           37702        DODLOAD*           CAF      DLOAD*                                #  STODL* COMES HERE TO PROCESS LOAD ADR.
000172:    6114           54020                           TS       CYR                                   #  (STOVL* ENTERS HERE).
000173:
000174:    6115           30120        INDEX              CA       FIXLOC                                #  SET UP INDEX LOCATION.
000175:    6116           54130                           TS       INDEXLOC
000176:    6117           24164                           INCR     LOC                                   #  (ADDRESS ALWAYS GIVEN).
000177:    6120           50164                           INDEX    LOC
000178:    6121           40000                           CS       0
000179:    6122           10000                           CCS      A                                     #  INDEX 2 IF ADDRESS STORED COMPLEMENTED.
000180:    6123           24130                           INCR     INDEXLOC
000181:    6124           16125                           NOOP
000182:
000183:    6125           54116                           TS       ADDRWD                                #  14 BIT ADDRESS TO ADDRWD.
000184:    6126           77711                           MASK     HIGH4                                 #  IF ADDRESS GREATER THAN 2K, ADD INTBIT15
000185:    6127           00006                           EXTEND
000186:    6130           16133                           BZF      INDEX2
000187:    6131           30115                           CA       INTBIT15
000188:    6132           26116                           ADS      ADDRWD
000189:
000190:    6133           50130        INDEX2             INDEX    INDEXLOC
000191:    6134           40046                           CS       X1
000192:    6135           26116                           ADS      ADDRWD                                #  DO AUGMENT, IGNORING AND CORRECTING OVF.
000193:
000194:    6136           77713                           MASK     HIGH9                                 #  SEE IF ADDRESS IS IN WORK AREA.
000195:    6137           00006                           EXTEND
000196:    6140           16153                           BZF      INDWORK
000197:    6141           77711                           MASK     HIGH4                                 #  SEE IF IN FIXED BANK.
000198:    6142           00006                           EXTEND
000199:    6143           16155                           BZF      INDERASE
000200:
000201:    6144           30116                           CA       ADDRWD                                #  IN FIXED - SWITCH BANKS AND CREATE
000202:    6145           54004                           TS       FBANK                                 #  SUB-ADDRESS.
000203:    6146           74747                           MASK     LOW10
000204:    6147           64700                           AD       2K
000205:    6150           54116                           TS       ADDRWD
000206:    6151           50020        ITR11              INDEX    CYR
000207:    6152           36242                           3        INDJUMP    -1
000208:
000209:    6153           30120        INDWORK            CA       FIXLOC                                #  MAKE ADDRWD RELATIVE TO WORK AREA.
000210:    6154           16161                           TCF      ITR13      -1
000211:
000212:    6155           34744        INDERASE           CA       OCT1400
000213:    6156           56116                           XCH      ADDRWD
000214:    6157           54003                           TS       EBANK
000215:    6160           74373                           MASK     LOW8
000216:    6161           26116                 -1        ADS      ADDRWD


000218:    6162           50020        ITR13              INDEX    CYR
000219:    6163           36242                           3        INDJUMP    -1
000220:


000222:                                                                                                  #  PUSH-UP ROUTINES.  WHEN NO OPERAND ADDRESS IS GIVEN, THE APPROPRIATE OPERAND IS TAKEN FROM THE PUSH-DOWN
000223:                                                                                                  #  LIST.  IN MOST CASES THE MODE OF THE RESULT (VECTOR OR SCALAR) OF THE LAST ARITHMETIC OPERATION PERFORMED
000224:                                                                                                  #  IS THE SAME AS THE TYPE OF OPERAND DESIRED (ALL ADD/SUBTRACT ETC.).  EXCEPTIONS TO THIS GENERAL RULE ARE LISTED
000225:                                                                                                  #  BELOW (NOTE THAT IN EVERY CASE THE MODE REGISTER IS LEFT INTACT):
000226:
000227:                                                                                                  #        1.      VXSC AND V/SC WANT THE OPPOSITE TYPE OF OPERAND, E.G., IF THE LAST OPERATION YIELDED A VECTOR
000228:                                                                                                  #                RESULT, VXSC WANTS A SCALAR.
000229:
000230:                                                                                                  #        2.      THE LOAD CODES SHOULD LOAD THE ACCUMULATOR INDEPENDENT OF THE RESULT OF THE LAST OPERATION.  THIS
000231:                                                                                                  #                INCLUDES VLOAD, DLOAD, TLOAD, PDDL, AND PDVL (NO PUSHUP WITH SLOAD).
000232:
000233:                                                                                                  #        3.      SOME ARITHMETIC OPERATIONS REQUIRE A STANDARD TYPE OF OPERAND REGARDLESS OF THE PREVIOUS OPERATION.
000234:                                                                                                  #                THIS INCLUDES SIGN WANTING DP AND TAD REQUIRING TP.
000235:
000236:    6164           34374        PUSHUP             CAF      OCT23                                 #  IF THE LOW 5 BITS OF CYR ARE LESS THAN
000237:    6165           70020                           MASK     CYR                                   #  20, THIS OP REQUIRES SPECIAL ATTENTION.
000238:    6166           66171                           AD       -OCT10                                #  (NO -0).
000239:    6167           10000                           CCS      A
000240:    6170           16202                           TCF      REGUP                                 #  FOR ALL CODES GREATER THAN OCT 7.
000241:
000242:    6171           77767        -OCT10             OCT      -10
000243:
000244:    6172           66061                           AD       NEG4                                  #  WE NOW HAVE 7 - OP CODE (MOD4).  SEE IF
000245:    6173           10000                           CCS      A                                     #  THE OP CODE (MOD4) IS THREE (REVERSE).
000246:    6174           50000                           INDEX    A                                     #  NO - THE MODE IS DEFINITE.  PICK UP THE
000247:    6175           46213                           CS       NO.WDS
000248:    6176           16204                           TCF      REGUP      +2
000249:
000250:    6177           50163                           INDEX    MODE                                  #  FOR VXSC AND V/SC WE WANT THE REQUIRED
000251:    6200           46211                           CS       REVCNT                                #  PUSHLOC DECREMENT WITHOUT CHANGING THE
000252:    6201           16204                           TCF      REGUP      +2                         #  MODE AT THIS TIME.
000253:
000254:    6202           50163        REGUP              INDEX    MODE                                  #  MOST ALL OP CODES PUSHUP HERE.
000255:    6203           46213                           CS       NO.WDS
000256:    6204           26166                 +2        ADS      PUSHLOC
000257:    6205           54116                           TS       ADDRWD
000258:    6206           50020        ITR14              INDEX    CYR
000259:    6207           76242                           7        INDJUMP    -1                         #  (THE INDEX MAKES THIS A TCF.)
000260:
000261:    6210           00002                           OCT      2                                     #  REVERSE PUSHUP DECREMENT. VECTOR TAKES 2
000262:    6211           00006        REVCNT             OCT      6                                     #  WORDS, SCALAR TAKES 6.
000263:    6212           00006                           OCT      6
000264:    6213           00002        NO.WDS             OCT      2                                     #  CONVENTIONAL DECREMENT IS 6 WORDS VECTOR
000265:    6214           00003        OCTAL3             OCT      3                                     #  2 IN DP, AND 3 IN TP.
000266:    6215           00006                           OCT      6
000267:


000269:                                                                                                  #  TEST THE SECOND PREFIX BIT TO SEE IF THIS IS A MISCELLANEOUS OR A UNARY/SHORT SHIFT OPERATION.
000270:
000271:    6216           10020        OPJUMP2            CCS      CYR                                   #  TEST SECOND PREFIX BIT.
000272:    6217           16232                           TCF      OPJUMP3                               #  TEST THIRD BIT TO SEE IF UNARY OR SHIFT.
000273:
000274:    6220           77722        -ENDVAC            DEC      -45        B-14
000275:
000276:                                                                                                  #  THE FOLLOWING ROUTINE PROCESSES ADDRESSES OF SUFFIX CLASS 10.  THEY ARE BASICALLY WORK AREA ADDRESSES
000277:                                                                                                  #  IN THE RANGE 0-52, ERASABLE ECADR CONSTANTS FROM 100-3777, AND FCADRS ABOVE THAT.  ALL 15 BITS ARE AVAILABLE
000278:                                                                                                  #  IN CONTRAST TO SUFFIX 1, IN WHICH ONLY THE LOW ORDER 14 ARE AVAILABLE.
000279:
000280:    6221           24164        15BITADR           INCR     LOC                                   #  (ENTRY HERE FROM STCALL).
000281:    6222           50164                           INDEX    LOC                                   #  PICK UP ADDRESS WORD.
000282:    6223           30000                           CA       0
000283:    6224           54117                           TS       POLISH                                #  WE MAY NEED A SUBADDRESS LATER.
000284:
000285:    6225           34750                           CAF      LOW7+2K                               #  THESE INSTRUCTIONS ARE IN BANK 1.
000286:    6226           54004                           TS       FBANK
000287:    6227           70020                           MASK     CYR
000288:    6230           50000        ITR7               INDEX    A
000289:    6231           16303                           TCF      MISCJUMP
000290:


000292:                                                                                                  #  COMPLETE THE DISPATCHING OF UNARY AND SHORT SHIFT OPERATIONS.
000293:
000294:    6232           54004        OPJUMP3            TS       FBANK                                 #  CALL IN BANK 0 (BITS 11-15 OF A ARE 0.)
000295:
000296:                                                                                                  #  ITRACE (6) REFERS TO "OPJUMP3".
000297:    6233           10020                           CCS      CYR                                   #  TEST THIRD PREFIX BIT.
000298:    6234           50000                           INDEX    A                                     #  THE DECREMENTED UNARY CODE IS IN BITS
000299:    6235           12000                           TCF      UNAJUMP                               #  1-4 OF A (ZERO, EXIT, HAS BEEN DETECTED)
000300:
000301:    6236           10163                           CCS      MODE                                  #  ITS A SHORT SHIFT CODE.  SEE IF PRESENT
000302:    6237           12017                           TCF      SHORTT                                #  SCALAR OR VECTOR.
000303:    6240           12017                           TCF      SHORTT
000304:    6241           12121                           TCF      SHORTV                                #  CALLS THE APPROPRIATE ROUTINE.
000305:
000306:    6242     4364               FBANKMSK           EQUALS   BANKMASK
000307:    6242           00122        LVBUF              ADRES    VBUF
000308:


000310:                                                                                                  #  THE FOLLOWING IS THE JUMP TABLE FOR OP CODES WHICH MAY HAVE INDEXABLE ADDRESSES OR MAY PUSH UP.
000311:
000312:    6243           16454        INDJUMP            TCF      VLOAD                                 #  00 - LOAD MPAC WITH A VECTOR.
000313:    6244           17040                           TCF      TAD                                   #  01 - TRIPLE PRECISION ADD TO MPAC.
000314:    6245           17624                           TCF      SIGN                                  #  02 - COMPLEMENT MPAC (V OR SC) IF X NEG.
000315:    6246           17350                           TCF      VXSC                                  #  03 - VECTOR TIMES SCALAR.
000316:    6247           16652                           TCF      CGOTO                                 #  04 - COMPUTED GO TO.
000317:    6250           16437                           TCF      TLOAD                                 #  05 - LOAD MPAC WITH TRIPLE PRECISION.
000318:    6251           16021                           TCF      DLOAD                                 #  06 - LOAD MPAC WITH A DP SCALAR.
000319:    6252           17573                           TCF      V/SC                                  #  07 - VECTOR DIVIDED BY SCALAR.
000320:
000321:    6253           16450                           TCF      SLOAD                                 #  10 - LOAD MPAC IN SINGLE PRECISION.
000322:    6254           16567                           TCF      SSP                                   #  11 - SET SINGLE PRECISION INTO X.
000323:    6255           16472                           TCF      PDDL                                  #  12 - PUSH DOWN MPAC AND RE-LOAD IN DP.
000324:    6256           17303                           TCF      MXV                                   #  13 - MATRIX POST-MULTIPLIED BY VECTOR.
000325:    6257           16526                           TCF      PDVL                                  #  14 - PUSH DOWN AND VECTORLOAD.
000326:    6260           16575                           TCF      CCALL                                 #  15 - COMPUTED CALL.
000327:    6261           17306                           TCF      VXM                                   #  16 - MATRIX PRE-MULTIPLIED BY VECTOR.
000328:    6262           17565                           TCF      TSLC                                  #  17 - NORMALIZE MPAC (SCALAR ONLY).
000329:
000330:    6263           17543                           TCF      DMPR                                  #  20 - DP MULTIPLY AND ROUND.
000331:    6264           17546                           TCF      DDV                                   #  21 - DP DIVIDE BY.
000332:    6265           17552                           TCF      BDDV                                  #  22 - DP DIVIDE INTO.
000333:    6266           17570                           TCF      GSHIFT                                #  23 - GENERAL SHIFT INSTRUCTION.
000334:    6267           16720                           TCF      VAD                                   #  24 - VECTOR ADD.
000335:    6270           16716                           TCF      VSU                                   #  25 - VECTOR SUBTRACT.
000336:    6271           17005                           TCF      BVSU                                  #  26 - VECTOR SUBTRACT FROM.
000337:    6272           17300                           TCF      DOT                                   #  27 - VECTOR DOT PRODUCT.
000338:
000339:    6273           17427                           TCF      VXV                                   #  30 - VECTOR CROSS PRODUCT.
000340:    6274           17374                           TCF      VPROJ                                 #  31 - VECTOR PROJECTION.
000341:    6275           16754                           TCF      DSU                                   #  32 - DP SUBTRACT.
000342:    6276           17031                           TCF      BDSU                                  #  33 - DP SUBTRACT FROM.
000343:    6277           16744                           TCF      DAD                                   #  34 - DP ADD.
000344:    6300           16300                           TCF      +0                                    #  35 - AVAILABLE
000345:    6301           17541                           TCF      DMP1                                  #  36 - DP MULTIPLY.
000346:    6302           17562                           TCF      SETPD                                 #  37 - SET PUSH DOWN POINTER (DIRECT ONLY)
000347:
000348:                                                                                                  #  CODES 10 AND 14 MUST NOT PUSH UP. CODE 04 MAY BE USED FOR VECTOR DECLARE BEFORE PUSHUP IF DESIRED.
000349:


000351:                                                                                                  #  THE FOLLOWING JUMP TABLE APPLIES TO INDEX, BRANCH, AND MISCELLANEOUS INSTRUCTIONS.
000352:
000353:    6303           12371        MISCJUMP           TCF      AXT                                   #  00 - ADDRESS TO INDEX TRUE.
000354:    6304           12376                           TCF      AXC                                   #  01 - ADDRESS TO INDEX COMPLEMENTED.
000355:    6305           12401                           TCF      LXA                                   #  02 - LOAD INDEX FROM ERASABLE.
000356:    6306           12405                           TCF      LXC                                   #  03 - LOAD INDEX FROM COMPLEMENT OF ERAS.
000357:    6307           12411                           TCF      SXA                                   #  04 - STORE INDEX IN ERASABLE.
000358:    6310           12417                           TCF      XCHX                                  #  05 - EXCHANGE INDEX WITH ERASABLE.
000359:    6311           12433                           TCF      INCR                                  #  06 - INCREMENT INDEX REGISTER.
000360:    6312           12442                           TCF      TIX                                   #  07 - TRANSFER ON INDEX.
000361:
000362:    6313           12425                           TCF      XAD                                   #  10 - INDEX REGISTER ADD FROM ERASABLE.
000363:    6314           12436                           TCF      XSU                                   #  11 - INDEX SUBTRACT FROM ERASABLE.
000364:    6315           12514                           TCF      BZE/GOTO                              #  12 - BRANCH ZERO AND GOTO.
000365:    6316           12521                           TCF      BPL/BMN                               #  13 - BRANCH PLUS AND BRANCH MINUS.
000366:    6317           12474                           TCF      RTB/BHIZ                              #  14 - RETURN TO BASIC AND BRANCH HI ZERO.
000367:    6320           12534                           TCF      CALL/ITA                              #  15 - CALL AND STORE QPRET.
000368:    6321           12543                           TCF      SW/                                   #  16 - SWITCH INSTRUCTIONS AND AVAILABLE.
000369:    6322           12504                           TCF      BOV(B)                                #  17 - BRANCH ON OVERFLOW TO BASIC OR INT.
000370:


000372:                                                                                                  #  THE FOLLOWING JUMP TABLE APPIES TO UNARY INSTRUCTIONS.
000373:
000374:    6323                                           COUNT    00/INTER
000375:
000376: 00,2000                                           BANK     0                                     #  00 - EXIT - DETECTED EARLIER.
000377: 00,2000           13207        UNAJUMP            TCF      SQRT                                  #  01 - SQUARE ROOT.
000378: 00,2001           13527                           TCF      SINE                                  #  02 - SIN.
000379: 00,2002           13516                           TCF      COSINE                                #  03 - COS.
000380: 00,2003           13607                           TCF      ARCSIN                                #  04 - ARC SIN.
000381: 00,2004           13611                           TCF      ARCCOS                                #  05 - ARC COS.
000382: 00,2005           13174                           TCF      DSQ                                   #  06 - DP SQUARE.
000383: 00,2006           12116                           TCF      ROUND                                 #  07 - ROUND TO DP.
000384:
000385: 00,2007           17637                           TCF      COMP                                  #  10 - COMPLEMENT VECTOR OR SCALAR.
000386: 00,2010           13232                           TCF      VDEF                                  #  11 - VECTOR DEFINE.
000387: 00,2011           13023                           TCF      UNIT                                  #  12 - UNIT VECTOR.
000388: 00,2012           13176                           TCF      ABVALABS                              #  13 - LENGTH OF VECTOR OR MAG OF SCALAR.
000389: 00,2013           13245                           TCF      VSQ                                   #  14 - SQUARE OF LENGTH OF VECTOR.
000390: 00,2014           16323                           TCF      STADR                                 #  15 - PUSH UP ON STORE CODE.
000391: 00,2015           13274                           TCF      RVQ                                   #  16 - RETURN VIA QPRET.
000392: 00,2016           13247                           TCF      PUSH                                  #  17 - PUSH MPAC DOWN.
000393:


000395:                                                                                                  #  SECTION 2     LOAD AND STORE PACKAGE.
000396:
000397:                                                                                                  #  A SET OF EIGHT STORE CODES IS PROVIDED AS THE PRIMARY METHOD OF STORING THE MULTI-PURPOSE
000398:                                                                                                  #  ACCUMULATOR (MPAC).  IF IN THE DANZIG SECTION LOC REFERS TO AN ALGEBRAICALLY POSITIVE WORD, IT IS TAKEN AS A
000399:                                                                                                  #  STORE CODE WITH A CORRESPONDING ERASABLE ADDRESS.  MOST OF THESE CODES ARE TWO ADDRESS, SPECIFYING THAT THE WORD
000400:                                                                                                  #  FOLLOWING THE STORE CODE IS TO BE USED AS AN ADDRESS FROM WHICH TO RE-LOAD MPAC.  FOUR OPTIONS ARE AVAILABLE:
000401:
000402:                                                                                                  #        1. STORE        STORE MPAC.  THE E ADDRESS MAY BE INDEXED.
000403:                                                                                                  #        2. STODL        STORE MPAC AND RE-LOAD IT IN DP WITH THE NEXT ADDRESS (THE LOAD MAY BE INDEXED).
000404:                                                                                                  #        3. STOVL        STORE MPAC AND RE-LOAD A VECTOR (AS ABOVE).
000405:                                                                                                  #        4. STCALL       STORE AND DO A CALL (BOTH ADDRESSES MUST BE DIRECT HERE).
000406:
000407:                                                                                                  #  STODL AND STOVL WILL TAKE FROM THE PUSH-DOWN LIST IF NO LOAD ADDRESS IS GIVEN.
000408:
000409:    6323                                           BLOCK    3
000410:
000411:    6323                                           COUNT    03/INTER
000412:
000413:    6323           30165        STADR              CA       BANKSET                               #  THE STADR CODE (PUSHUP UP ON STORE
000414:    6324           54004                           TS       FBANK                                 #  ADDRESS) ENTERS HERE.
000415:    6325           24164                           INCR     LOC
000416:    6326           50164        ITR1               INDEX    LOC                                   #  THE STORECODE WAS STORED COMPLEMENTED TO
000417:    6327           40000                           CS       0                                     #  MAKE IT LOOK LIKE AN OPCODE PAIR.
000418:    6330           67716                           AD       NEGONE                                #  (YUL CANT REMOVE 1 BECAUSE OF EARLY CCS)
000419:
000420:    6331           54116        DOSTORE            TS       ADDRWD
000421:    6332           74372                           MASK     LOW11                                 #  ENTRY FROM DISPATCHER.  SAVE THE ERASABLE
000422:    6333           56116                           XCH      ADDRWD                                #  ADDRESS AND JUMP ON THE STORE CODE NO.
000423:    6334           77671                           MASK     B12T14
000424:    6335           00006                           EXTEND
000425:    6336           74706                           MP       BIT5                                  #  EACH TRANSFER VECTOR ENTRY IS TWO WORDS.
000426:    6337           50000        ITR0               INDEX    A
000427:    6340           16341                           TCF      STORJUMP
000428:


000430:                                                                                                  #  STORE CODE JUMP TABLE.  CALLS THE APPROPRIATE STORING ROUTINE AND EXITS TO DANZIG OR TO ADDRESS WITH
000431:                                                                                                  #  A SUPPLIED OPERATION CODE.
000432:
000433:                                                                                                  #  STORE STORE,1 AND STORE,2 RETURN TO DANZIG, THUS RESETTING THE EBANK TO ITS STATE AT INTPRET.
000434:
000435:    6341           06371        STORJUMP           TC       STORE                                 #  STORE.
000436:    6342           16030                           TCF      DANZIG                                #  PICK UP NEW OP CODE(S).
000437:    6343           06363                           TC       STORE,1
000438:    6344           16030                           TCF      DANZIG
000439:    6345           06366                           TC       STORE,2
000440:    6346           16030                           TCF      DANZIG
000441:
000442:    6347           06371                           TC       STORE                                 #  STODL.
000443:    6350           16427                           TCF      DODLOAD
000444:
000445:    6351           06371                           TC       STORE                                 #  STODL WITH INDEXED LOAD ADDRESS.
000446:    6352           16113                           TCF      DODLOAD*
000447:
000448:    6353           06371                           TC       STORE                                 #  STOVL.
000449:    6354           16432                           TCF      DOVLOAD
000450:
000451:    6355           06371                           TC       STORE                                 #  STOVL WITH INDEXED LOAD ADDRESS.
000452:    6356           16435                           TCF      DOVLOAD*
000453:    6357           06371                           TC       STORE                                 #  STOTC.
000454:    6360           34723                           CAF      CALLCODE
000455:    6361           54020                           TS       CYR
000456:    6362           16221                           TCF      15BITADR                              #  GET A 15 BIT ADDRESS.
000457:


000459:                                                                                                  #  STORE CODE ADDRESS PROCESSOR.
000460:
000461:    6363           50120        STORE,1            INDEX    FIXLOC
000462:    6364           40046                           CS       X1
000463:    6365           16370                           TCF      PRESTORE
000464:
000465:    6366           50120        STORE,2            INDEX    FIXLOC
000466:    6367           40047                           CS       X2
000467:    6370           26116        PRESTORE           ADS      ADDRWD                                #  RESULTANT ADDRESS IS IN ERASABLE.
000468:
000469:    6371           40116        STORE              CS       ADDRWD
000470:    6372           64727                           AD       DEC45
000471:    6373           10000                           CCS      A                                     #  DOES THE ADDRESS POINT TO THE WORK AREA?
000472:    6374           30120                           CA       FIXLOC                                #  YES.
000473:    6375           16402                           TCF      AHEAD5
000474:    6376           34744                           CA       OCT1400                               #  NO.  SET EBANK & MAKE UP SUBADDRESS.
000475:    6377           56116                           XCH      ADDRWD
000476:    6400           54003                           TS       EBANK
000477:    6401           74373                           MASK     LOW8
000478:    6402           26116        AHEAD5             ADS      ADDRWD
000479:


000481:                                                                                                  #  STORING ROUTINES.  STORE DP, TP, OR VECTOR AS INDICATED BY MODE.
000482:
000483:    6403           00006        STARTSTO           EXTEND                                         #  MPAC,+1 MUST BE STORED IN ANY EVENT.
000484:                                                                                                  #  ITRACE (5) REFERS TO "STARTSTO".
000485:    6404           30155                           DCA      MPAC
000486:    6405           50116                           INDEX    ADDRWD
000487:    6406           52001                           DXCH     0
000488:
000489:    6407           10163                           CCS      MODE
000490:    6410           16423                           TCF      TSTORE
000491:    6411           00002                           TC       Q
000492:
000493:    6412           00006        VSTORE             EXTEND
000494:    6413           30160                           DCA      MPAC       +3
000495:    6414           50116                           INDEX    ADDRWD
000496:    6415           52003                           DXCH     2
000497:
000498:    6416           00006                           EXTEND
000499:    6417           30162                           DCA      MPAC       +5
000500:    6420           50116                           INDEX    ADDRWD
000501:    6421           52005                           DXCH     4
000502:    6422           00002                           TC       Q
000503:
000504:    6423           30156        TSTORE             CA       MPAC       +2
000505:    6424           50116                           INDEX    ADDRWD
000506:    6425           54002                           TS       2
000507:    6426           00002                           TC       Q
000508:


000510:                                                                                                  #  ROUTINES TO BEGIN PROCESSING OF THE SECOND ADDRESS ASSOCIATED WITH ALL STORE-TYPE CODES EXCEPT STORE
000511:                                                                                                  #  ITSELF.
000512:
000513:    6427           37701        DODLOAD            CAF      DLOADCOD
000514:    6430           54020                           TS       CYR
000515:    6431           16055                           TCF      DIRADRES                              #  GO GET A DIRECT ADDRESS.
000516:
000517:    6432           34674        DOVLOAD            CAF      VLOADCOD
000518:    6433           54020                           TS       CYR
000519:    6434           16055                           TCF      DIRADRES
000520:
000521:    6435           36056        DOVLOAD*           CAF      VLOAD*
000522:    6436           16114                           TCF      DODLOAD*   +1                         #  PROLOGUE TO INDEX ROUTINE.
000523:


000525:                                                                                                  #  THE FOLLOWING LOAD INSTRUCTIONS ARE PROVIDED FOR LOADING THE MULTI-PURPOSE ACCUMULATOR MPAC.
000526:
000527:    6437           50116        TLOAD              INDEX    ADDRWD
000528:    6440           30002                           CA       2                                     #  LOAD A TRIPLE PRECISION ARGUMENT INTO
000529:    6441           54156                           TS       MPAC       +2                         #  THE FIRST THREE MPAC REGISTERS, WITH THE
000530:    6442           00006                           EXTEND                                         #  CONTENTS OF THE OTHER FOUR IRRELEVANT.
000531:    6443           50116                           INDEX    ADDRWD
000532:    6444           30001                           DCA      0
000533:    6445           52155                           DXCH     MPAC
000534:    6446           34712        TMODE              CAF      ONE
000535:    6447           16027                           TCF      NEWMODE                               #  DECLARE TRIPLE PRECISION MODE.
000536:
000537:    6450           22007        SLOAD              ZL                                             #  LOAD A SINGLE PRECISION NUMBER INTO
000538:    6451           50116                           INDEX    ADDRWD                                #  MPAC, SETTING MPAC+1,2 TO ZERO.  THE
000539:    6452           30000                           CA       0                                     #  CONTENTS OF THE REMAINING MPAC REGISTERS
000540:    6453           16024                           TCF      SLOAD2                                #  ARE IRRELEVANT.
000541:
000542:    6454           00006        VLOAD              EXTEND                                         #  LOAD A DOUBLE PRECISION VECTOR INTO
000543:    6455           50116                           INDEX    ADDRWD                                #  MPAC,+1, MPAC+3,4, AND MPAC+5,6.  THE
000544:    6456           30001                           DCA      0                                     #  CONTENTS OF MPAC +2 ARE IRRELEVANT.
000545:    6457           52155                           DXCH     MPAC
000546:
000547:    6460           00006        ENDVLOAD           EXTEND                                         #  PDVL COMES HERE TO FINISH UP FOR DP, TP.
000548:    6461           50116                           INDEX    ADDRWD
000549:    6462           30003                           DCA      2
000550:    6463           52160                           DXCH     MPAC       +3
000551:
000552:    6464           00006                 +4        EXTEND                                         #  TPDVL FINISHES HERE.
000553:    6465           50116                           INDEX    ADDRWD
000554:    6466           30005                           DCA      4
000555:    6467           52162                           DXCH     MPAC       +5
000556:
000557:    6470           44712        VMODE              CS       ONE                                   #  DECLARE VECTOR MODE.
000558:    6471           16027                           TCF      NEWMODE
000559:


000561:                                                                                                  #  THE FOLLOWING INSTRUCTIONS ARE PROVIDED FOR STORING OPERANDS IN THE PUSHDOWN LIST:
000562:                                                                                                  #        1.      PUSH            PUSHDOWN AND NO LOAD.
000563:                                                                                                  #        2.      PDDL            PUSHDOWN AND DOUBLE PRECISION LOAD.
000564:                                                                                                  #        3.      PDVL            PUSHDOWN AND VECTOR LOAD.
000565:
000566:    6472           00006        PDDL               EXTEND
000567:    6473           50116                           INDEX    ADDRWD                                #  LOAD MPAC,+1, PUSHING THE FORMER
000568:    6474           30001                           DCA      0                                     #  CONTENTS DOWN.
000569:    6475           52155                           DXCH     MPAC
000570:    6476           50166                           INDEX    PUSHLOC
000571:    6477           52001                           DXCH     0
000572:
000573:    6500           50163                           INDEX    MODE                                  #  ADVANCE THE PUSHDOWN POINTER APPRO-
000574:    6501           36213                           CAF      NO.WDS                                #  PRIATELY.
000575:    6502           26166                           ADS      PUSHLOC
000576:
000577:    6503           10163                           CCS      MODE
000578:    6504           16521                           TCF      ENDTPUSH
000579:    6505           16517                           TCF      ENDDPUSH
000580:
000581:    6506           54163                           TS       MODE                                  #  NOW DP.
000582:    6507           54156        ENDVPUSH           TS       MPAC       +2
000583:    6510           52160                           DXCH     MPAC       +3                         #  PUSH DOWN THE REST OF THE VECTOR HERE.
000584:    6511           50166                           INDEX    PUSHLOC
000585:    6512           51775                           DXCH     0          -4
000586:
000587:    6513           52162                           DXCH     MPAC       +5
000588:    6514           50166                           INDEX    PUSHLOC
000589:    6515           51777                           DXCH     0          -2
000590:
000591:    6516           16030                           TCF      DANZIG
000592:
000593:    6517           54156        ENDDPUSH           TS       MPAC       +2                         #  SET MPAC +2 TO ZERO AND EXIT ON DP.
000594:    6520           16030                           TCF      DANZIG
000595:
000596:    6521           54163        ENDTPUSH           TS       MODE
000597:    6522           56156                           XCH      MPAC       +2                         #  ON TRIPLE, SET MPAC +2 TO ZERO, PUSHING
000598:    6523           50166                 +2        INDEX    PUSHLOC                               #  DOWN THE OLD CONTENTS
000599:    6524           53777                           TS       0          -1
000600:    6525           16030                           TCF      DANZIG
000601:


000603:                                                                                                  #  PDVL - PUSHDOWN AND VECTOR LOAD.
000604:
000605:    6526           00006        PDVL               EXTEND                                         #  RELOAD MPAC AND PUSH DOWN ITS CONTENTS.
000606:    6527           50116                           INDEX    ADDRWD
000607:    6530           30001                           DCA      0
000608:    6531           52155                           DXCH     MPAC
000609:    6532           50166                           INDEX    PUSHLOC
000610:    6533           52001                           DXCH     0
000611:
000612:    6534           50163                           INDEX    MODE                                  #  ADVANCE THE PUSHDOWN POINTER.
000613:    6535           36213                           CAF      NO.WDS
000614:    6536           26166                           ADS      PUSHLOC
000615:
000616:    6537           10163                           CCS      MODE                                  #  TEST PAST MODE.
000617:    6540           16557                           TCF      TPDVL
000618:    6541           16460                           TCF      ENDVLOAD                              #  JUST LOAD LAST FOUR REGISTERS ON DP.
000619:
000620:    6542           00006        VPDVL              EXTEND                                         #  PUSHDOWN AND RE-LOAD LAST TWO COMPONENTS
000621:    6543           50116                           INDEX    ADDRWD
000622:    6544           30003                           DCA      2
000623:    6545           52160                           DXCH     MPAC       +3
000624:    6546           50166                           INDEX    PUSHLOC
000625:    6547           51775                           DXCH     0          -4
000626:
000627:    6550           00006                           EXTEND
000628:    6551           50116                           INDEX    ADDRWD
000629:    6552           30005                           DCA      4
000630:    6553           52162                           DXCH     MPAC       +5
000631:    6554           50166                           INDEX    PUSHLOC
000632:    6555           51777                           DXCH     0          -2
000633:
000634:    6556           16030                           TCF      DANZIG
000635:
000636:    6557           00006        TPDVL              EXTEND                                         #  ON TP, WE MUST LOAD THE Y COMPONENT
000637:    6560           50116                           INDEX    ADDRWD                                #  BEFORE STORING MPAC +2 IN CASE THIS IS A
000638:    6561           30003                           DCA      2                                     #  PUSHUP.
000639:    6562           52160                           DXCH     MPAC       +3
000640:
000641:    6563           30156                           CA       MPAC       +2
000642:    6564           50166                           INDEX    PUSHLOC                               #  IN DP.
000643:    6565           53777                           TS       0          -1
000644:    6566           16464                           TCF      ENDVLOAD   +4
000645:
000646:                                                                                                  #  SSP (STORE SINGLE PRECISION) IS EXECUTED HERE.
000647:
000648:    6567           24164        SSP                INCR     LOC                                   #  PICK UP THE WORD FOLLOWING THE GIVEN
000649:    6570           50164                           INDEX    LOC                                   #  ADDRESS AND STORE IT AT X.
000650:    6571           30000                           CA       0
000651:    6572           50116        STORE1             INDEX    ADDRWD                                #  SOME INDEX AND MISCELLANEOUS OPS END
000652:    6573           54000                           TS       0                                     #  HERE.


000654:    6574           16030                           TCF      DANZIG
000655:


000657:                                                                                                  #  SEQUENCE CHANGING AND SUBROUTINE CALLING OPTIONS.
000658:
000659:                                                                                                  #  THE FOLLOWING OPERATIONS ARE AVAILABLE FOR SEQUENCING CHANGING, BRANCHING, AND CALLING SUBROUTINES:
000660:                                                                                                  #        1.      GOTO            GO TO.
000661:                                                                                                  #        2.      CALL            CALL SUBROUTINE SETTING QPRET.
000662:                                                                                                  #        3.      CGOTO           COMPUTED GO TO.
000663:                                                                                                  #        4.      CCALL           COMPUTED CALL.
000664:                                                                                                  #        7.      BPL             BRANCH IF MPAC POSITIVE OR ZERO.
000665:                                                                                                  #        8.      BZE             BRANCH IF MPAC ZERO.
000666:                                                                                                  #        9.      BMN             BRANCH IF MPAC NEGATIVE NON-ZERO.
000667:
000668:    6575           24164        CCALL              INCR     LOC                                   #  MAINTAIN LOC FOR QPRET COMPUTATION.
000669:    6576           50164                           INDEX    LOC
000670:    6577           30000                           CAF      0                                     #  GET BASE ADDRESS OF CADR LIST.
000671:    6600           50116                           INDEX    ADDRWD
000672:    6601           60000                           AD       0                                     #  ADD INCREMENT.
000673:    6602           54004                           TS       FBANK                                 #  SELECT DESIRED CADR.
000674:    6603           74747                           MASK     LOW10
000675:    6604           50000                           INDEX    A
000676:    6605           32000                           CAF      10000
000677:    6606           54117                           TS       POLISH
000678:
000679:    6607           30165        CALL               CA       BANKSET                               #  FOR ANY OF THE CALL OPTIONS, MAKE UP THE
000680:    6610           74364                           MASK     BANKMASK                              #  ADDRESS OF THE NEXT OP-CODE PAIR/STORE
000681:    6611           64364                           AD       BANKMASK                              #  CODE AND LEAVE IT IN QPRET.  NOTE THAT
000682:    6612           60164                           AD       LOC                                   #  BANKMASK = -(2000 - 1).
000683:    6613           50120                           INDEX    FIXLOC
000684:    6614           54052                           TS       QPRET
000685:
000686:    6615           30117        GOTO               CA       POLISH                                #  BASIC BRANCHING SEQUENCE.
000687:    6616           77711                 +1        MASK     HIGH4
000688:    6617           00006                           EXTEND
000689:    6620           16631                           BZF      GOTOERS                               #  SEE IF ADDRESS POINTS TO FIXED OR ERAS.
000690:    6621           30165                 +4        CA       BANKSET                               #  SET EBANK PART OF BBANK.  NEXT, SET UP
000691:    6622           54006                           TS       BBANK                                 #  FBANK.  THE COMBINATION IS PICKED UP &
000692:    6623           30117                           CA       POLISH                                #  PUT INTO BANKSET AT INTPRET +2.
000693:    6624           54004                           TS       FBANK
000694:    6625           74747                           MASK     LOW10
000695:    6626           64700                           AD       2K
000696:    6627           54164                           TS       LOC
000697:    6630           16011                           TCF      INTPRET    +3
000698:
000699:    6631  E3,1400                                  EBANK=   1400                                  #  SO YUL DOESN'T CUSS THE "CA 1400" BELOW.
000700:
000701:    6631           30117        GOTOERS            CA       POLISH                                #  THE GIVEN ADDRESS IS IN ERASABLE - SEE
000702:    6632           66220                           AD       -ENDVAC                               #  IF RELATIVE TO THE WORK AREA.
000703:    6633           10000                           CCS      A
000704:    6634           30117                           CA       POLISH                                #  GENERAL ERASABLE.
000705:    6635           16644                           TCF      GOTOGE
000706:


000708:    6636           30120                           CA       FIXLOC                                #  WORK AREA.
000709:    6637           60117                           AD       POLISH
000710:    6640           50000                           INDEX    A                                     #  USE THE GIVEN ADDRESS AS THE ADDRESS OF
000711:    6641           30000                           CA       0                                     #  THE BRANCH ADDRESS.
000712:    6642           54117                           TS       POLISH
000713:    6643           16616                           TCF      GOTO       +1                         #  ALLOWS ARBITRARY INDIRECTNESS LEVELS.
000714:
000715:    6644           54003        GOTOGE             TS       EBANK
000716:    6645           74373                           MASK     LOW8
000717:    6646           50000                           INDEX    A                                     #  USE THE GIVEN ADDRESS AS THE ADDRESS OF
000718:    6647           31400                           CA       1400                                  #  THE BRANCH ADDRESS.
000719:    6650           54117                           TS       POLISH
000720:    6651           16616                           TCF      GOTO       +1
000721:
000722:    6652           50164        CGOTO              INDEX    LOC                                   #  COMPUTED GO TO.  PICK UP ADDRESS OF CADR
000723:    6653           30001                           CA       1                                     #  LIST.
000724:    6654           50116                           INDEX    ADDRWD                                #  ADD MODIFIER.
000725:    6655           60000                           AD       0
000726:    6656           54004                           TS       FBANK                                 #  SELECT GOTO ADDRESS.
000727:    6657           74747                           MASK     LOW10
000728:    6660           50000                           INDEX    A
000729:    6661           32000                           CA       10000
000730:    6662           54117                           TS       POLISH
000731:    6663           16616                           TCF      GOTO       +1                         #  WITH ADDRESS IN A.
000732:
000733:    6664           30165        SWBRANCH           CA       BANKSET                               #  SWITCH INSTRUCTIONS WHICH ELECT TO
000734:    6665           54004                           TS       FBANK                                 #  BRANCH COME HERE TO DO SO.
000735:    6666           50164                           INDEX    LOC
000736:    6667           30001                           CA       1
000737:    6670           54117                           TS       POLISH
000738:    6671           16616                           TCF      GOTO       +1
000739:


000741:                                                                                                  #  TRIPLE PRECISION BRANCHING ROUTINE.  IF CALLING TC IS AT L, RETURN IS AS FOLLOWS:
000742:                                                                                                  #        L+1     IF MPAC IS GREATER THAN ZERO.
000743:                                                                                                  #        L+2     IF MPAC IS EQUAL TO +0 OR -0.
000744:                                                                                                  #        L+3     IF MPAC IS LESS THAN ZERO.
000745:
000746:    6672           10154        BRANCH             CCS      MPAC
000747:    6673           00002                           TC       Q
000748:    6674           16676                           TCF      +2                                    #  ON ZERO.
000749:    6675           16710                           TCF      NEG
000750:
000751:    6676           10155                           CCS      MPAC       +1
000752:    6677           00002                           TC       Q
000753:    6700           16702                           TCF      +2
000754:    6701           16710                           TCF      NEG
000755:
000756:    6702           10156                           CCS      MPAC       +2
000757:    6703           00002                           TC       Q
000758:    6704           16706                           TCF      +2
000759:    6705           16710                           TCF      NEG
000760:
000761:    6706           50002        Q+1                INDEX    Q
000762:    6707           00001                           TC       1
000763:
000764:    6710           50002        NEG                INDEX    Q                                     #  IF FIRST NON-ZERO REGISTER WAS NEGATIVE.
000765:    6711           00002                           TC       2
000766:    6712     6710               Q+2                =        NEG
000767:
000768:                                                                                                  #  ITRACE (3) REFERS TO "EXIT".
000769:
000770:    6712           30165        EXIT               CA       BANKSET                               #  RESTORE USER'S BANK SETTING, AND LEAVE
000771:    6713           54006                           TS       BBANK                                 #  INTERPRETIVE MODE.
000772:    6714           50164                           INDEX    LOC
000773:    6715           00001                           TC       1
000774:


000776:                                                                                                  #  SECTION 3 - ADD/SUBTRACT PACKAGE.
000777:
000778:                                                                                                  #  THE FOLLOWING OPERATIONS ARE PROVIDED FOR ADDING TO AND SUBTRACTING FROM THE MULTI-PURPOSE ACCUMULATOR
000779:                                                                                                  #  MPAC:
000780:                                                                                                  #        1.      DAD     DOUBLE PRECISION ADD.
000781:                                                                                                  #        2.      DSU     DOUBLE PRECISION SUBTRACT.
000782:                                                                                                  #        3.      BDSU    DOUBLE PRECISION SUBTRACT FROM.
000783:                                                                                                  #        4.      TAD     TRIPLE PRECISION ADD.
000784:                                                                                                  #        5.      VAD     VECTOR ADD.
000785:                                                                                                  #        6.      VSU     VECTOR SUBTRACT.
000786:                                                                                                  #        7.      BVSU    VECTOR SUBTRACT FROM.
000787:                                                                                                  #  THE INTERPRETIVE OVERFLOW INDICATOR OVFIND IS SET NON-ZERO IF OVERFLOW OCCURS IN ANY OF THE ABOVE.
000788:
000789:    6716           34674        VSU                CAF      BIT15                                 #  CHANGES 0 TO DCS.
000790:    6717           16721                           TCF      +2
000791:
000792:    6720           34371        VAD                CAF      PRIO30                                #  CHANGES 0 TO DCA.
000793:    6721           26116                           ADS      ADDRWD
000794:    6722           00006                           EXTEND
000795:    6723           50116                           INDEX    ADDRWD
000796:    6724           00003                           READ     HISCALAR                              #  DCA 2 OR DCS 2
000797:    6725           20160                           DAS      MPAC       +3
000798:    6726           00006                           EXTEND                                         #  CHECK OVERFLOW.
000799:    6727           16731                           BZF      +2
000800:    6730           06763                           TC       OVERFLWY
000801:
000802:    6731           00006                           EXTEND
000803:    6732           50116                           INDEX    ADDRWD
000804:    6733           00005                           READ     CHAN5                                 #  DCA 4 OR DCS 4
000805:    6734           20162                           DAS      MPAC       +5
000806:    6735           00006                           EXTEND
000807:    6736           16740                           BZF      +2
000808:    6737           06760                           TC       OVERFLWZ
000809:
000810:    6740           00006                           EXTEND
000811:    6741           50116                           INDEX    ADDRWD
000812:    6742           00001                           READ     LCHAN                                 #  DCA 0 OR DCS 0
000813:    6743           16747                           TCF      ENDVXV
000814:
000815:    6744           00006        DAD                EXTEND
000816:    6745           50116                           INDEX    ADDRWD
000817:    6746           30001                           DCA      0
000818:    6747           20155        ENDVXV             DAS      MPAC                                  #  VXV FINISHES HERE.
000819:    6750           00006                           EXTEND
000820:    6751           16030                           BZF      DANZIG
000821:


000823:    6752           06766        SETOVF             TC       OVERFLOW
000824:    6753           16030                           TCF      DANZIG
000825:


000827:    6754           00006        DSU                EXTEND
000828:    6755           50116                           INDEX    ADDRWD
000829:    6756           40001                           DCS      0
000830:    6757           16747                           TCF      ENDVXV
000831:
000832:    6760           54001        OVERFLWZ           TS       L                                     #  ENTRY FOR THIRD COMPONENT.
000833:    6761           34715                           CAF      FIVE
000834:    6762           16765                           TCF      +3
000835:
000836:    6763           54001        OVERFLWY           TS       L                                     #  ENTRY FOR SECOND COMPONENT.
000837:    6764           36214                           CAF      THREE
000838:    6765           56001                           XCH      L
000839:
000840:    6766           50000        OVERFLOW           INDEX    A                                     #  ENTRY FOR 1ST COMP OR DP (L=0).
000841:    6767           44673                           CS       LIMITS                                #  PICK UP POSMAX OR NEGMAX.
000842:    6770           54130                           TS       BUF
000843:    6771           00006                           EXTEND
000844:    6772           24000                           AUG      A                                     #  FORCE OVERFLOW.
000845:    6773           50001                           INDEX    L
000846:    6774           26155                           ADS      MPAC       +1
000847:    6775           54007                           TS       7
000848:    6776           34714                           CAF      ZERO
000849:    6777           60130                           AD       BUF
000850:    7000           50001                           INDEX    L
000851:    7001           26154                           ADS      MPAC
000852:    7002           54007                           TS       7
000853:    7003           00002                           TC       Q                                     #  NO OVERFLOW EXIT.
000854:    7004           17121                           TCF      SETOVF2                               #  SET OVFIND AND EXIT.
000855:
000856:    7005           00006        BVSU               EXTEND
000857:    7006           50116                           INDEX    ADDRWD
000858:    7007           30003                           DCA      2
000859:    7010           52160                           DXCH     MPAC       +3
000860:    7011           00006                           EXTEND
000861:    7012           40001                           DCOM
000862:    7013           20160                           DAS      MPAC       +3
000863:    7014           00006                           EXTEND
000864:    7015           17017                           BZF      +2
000865:    7016           06763                           TC       OVERFLWY
000866:
000867:    7017           00006                           EXTEND
000868:    7020           50116                           INDEX    ADDRWD
000869:    7021           30005                           DCA      4
000870:    7022           52162                           DXCH     MPAC       +5
000871:    7023           00006                           EXTEND
000872:    7024           40001                           DCOM
000873:    7025           20162                           DAS      MPAC       +5
000874:    7026           00006                           EXTEND
000875:    7027           17031                           BZF      +2
000876:    7030           06760                           TC       OVERFLWZ
000877:


000879:    7031           00006        BDSU               EXTEND
000880:    7032           50116                           INDEX    ADDRWD
000881:    7033           30001                           DCA      0
000882:    7034           52155                           DXCH     MPAC
000883:    7035           00006                           EXTEND
000884:    7036           40001                           DCOM
000885:    7037           16747                           TCF      ENDVXV
000886:


000888:                                                                                                  #  TRIPLE PRECISION ADD ROUTINE.
000889:
000890:    7040           00006        TAD                EXTEND
000891:    7041           50116                           INDEX    ADDRWD
000892:    7042           30002                           DCA      1                                     #  ADD MINOR PARTS FIRST.
000893:    7043           20156                           DAS      MPAC       +1
000894:    7044           50116                           INDEX    ADDRWD
000895:    7045           60000                           AD       0
000896:    7046           60154                           AD       MPAC
000897:    7047           54154                           TS       MPAC
000898:    7050           16030                           TCF      DANZIG
000899:
000900:    7051           16752                           TCF      SETOVF                                #  SET OVFIND IF SUCH OCCURS.
000901:


000903:                                                                                                  #  ARITHMETIC SUBROUTINES REQUIRED IN FIXED-FIXED.
000904:                                                                                                  #        1.  DMPSUB      DOUBLE PRECISION MULTIPLY. MULTIPLY THE CONTENTS OF MPAC,+1 BY THE DP WORD WHOSE ADDRESS
000905:                                                                                                  #                        IS IN ADDRWD AND LEAVE A TRIPLE PRECISION RESULT IN MPAC.
000906:                                                                                                  #        2.  ROUNDSUB    ROUND THE TRIPLE PRECISON CONTENTS OF MPAC TO DOUBLE PRECISION.
000907:                                                                                                  #        3.  DOTSUB      TAKE THE DOT PRODUCT OF THE VECTOR IN MPAC AND THE VECTOR WHOSE ADDRESS IS IN ADDRWD
000908:                                                                                                  #                        AND LEAVE THE TRIPLE PRECISION RESULT IN MPAC.
000909:                                                                                                  #        4.  POLY        USING THE CONTENTS OF MPAC AS A DP ARGUMENT, EVALUATE THE POLYNOMIAL WHOSE DEGREE AND
000910:                                                                                                  #                        COEFFICIENTS IMMEDIATELY FOLLOW THE TC POLY INSTRUCTION (SEE ROUTINE FOR DETAILS.)
000911:
000912:    7052           50002        DMP                INDEX    Q                                     #  BASIC SUBROUTINE FOR USE BY PINBALL, ETC
000913:    7053           30000                           CAF      0                                     #  ADRES OF ARGUMENT FOLLOWS  TC DMP .
000914:    7054           24002                           INCR     Q
000915:    7055           54116                 -1        TS       ADDRWD                                #  (PROLOGUE FOR SETTING ADDRWD.)
000916:
000917:    7056           50116        DMPSUB             INDEX    ADDRWD                                #  GET MINOR PART OF OPERAND AT C(ADDRWD).
000918:    7057           30001                           CA       1
000919:    7060           54156                           TS       MPAC       +2                         #  THIS WORKS FOR SQUARING MPAC AS WELL.
000920:    7061           34714                           CAF      ZERO                                  #  SET MPAC +1 TO ZERO SO WE CAN ACCUMULATE
000921:    7062           56155                           XCH      MPAC       +1                         #  THE PARTIAL PRODUCTS WITH DAS
000922:    7063           54135                           TS       MPTEMP                                #  INSTRUCTIONS.
000923:    7064           00006                           EXTEND
000924:    7065           70156                           MP       MPAC       +2                         #  MINOR OF MPAC X MINOR OF C(ADDRWD).
000925:
000926:    7066           56156                           XCH      MPAC       +2                         #  DISCARD MINOR PART OF ABOVE RESULT AND
000927:    7067           00006                           EXTEND                                         #  FORM MAJOR OF MPAC X MINOR OF C(ADDRWD).
000928:    7070           70154                           MP       MPAC
000929:    7071           20156                           DAS      MPAC       +1                         #  GUARANTEED NO OVERFLOW.
000930:
000931:    7072           50116                           INDEX    ADDRWD                                #  GET MAJOR PART OF ARGUMENT AT C(ADDRWD).
000932:    7073           30000                           CA       0
000933:    7074           56135                           XCH      MPTEMP                                #  SAVE AND BRING OUT MINOR OF MPAC.
000934:    7075           00006        DMPSUB2            EXTEND
000935:    7076           70135                           MP       MPTEMP                                #  MAJOR OF C(ADDRWD) X MINOR OF MPAC.
000936:    7077           20156                           DAS      MPAC       +1                         #  ACCUMULATE, SETTING A TO NET OVERFLOW.
000937:
000938:    7100           56154                           XCH      MPAC                                  #  SETTING MPAC TO 0 OR +-1.
000939:    7101           00006                           EXTEND
000940:    7102           70135                           MP       MPTEMP                                #  MAJOR OF MPAC X MAJOR OF C(ADDRWD).
000941:    7103           20155                           DAS      MPAC                                  #  GUARANTEED NO OVERFLOW.
000942:    7104           00002                           TC       Q                                     #  49 MCT = .573 MS. INCLUDING RETURN.
000943:


000945:                                                                                                  #  ROUND MPAC TO DOUBLE PRECISION, SETTING OVFIND ON THE RARE EVENT OF OVERFLOW.
000946:
000947:    7105           34714        ROUNDSUB           CAF      ZERO                                  #  SET MPAC +2 = 0 FOR SCALARS AND CHANGE
000948:    7106           54163                 +1        TS       MODE                                  #  MODE TO DP.
000949:
000950:    7107           56156        VROUND             XCH      MPAC       +2                         #  BUT WE NEEDNT TAKE THE TIME FOR VECTORS.
000951:    7110           60000                           DOUBLE
000952:    7111           54001                           TS       L
000953:    7112           00002                           TC       Q
000954:
000955:    7113           60155                           AD       MPAC       +1                         #  ADD ROUNDING BIT IF MPAC +2 WAS GREATER
000956:    7114           54155                           TS       MPAC       +1                         #  THAN .5 IN MAGNITUDE.
000957:    7115           00002                           TC       Q
000958:
000959:    7116           60154                           AD       MPAC                                  #  PROPAGATE INTERFLOW.
000960:    7117           54154                           TS       MPAC
000961:    7120           00002                           TC       Q
000962:
000963:    7121           54121        SETOVF2            TS       OVFIND                                #  (RARE).
000964:    7122           00002                           TC       Q
000965:


000967:                                                                                                  #  THE DOT PRODUCT SUBROUTINE USUALLY FORMS THE DOT PRODUCT OF THE VECTOR IN MPAC WITH A STANDARD SIX
000968:                                                                                                  #  REGISTER VECTOR WHOSE ADDRESS IS IN ADDRWD.  IN THIS CASE C(DOTINC) ARE SET TO 2.   VXM, HOWEVER, SETS C(DOTINC) TO
000969:                                                                                                  #  6 SO THAT DOTSUB DOTS MPAC WITH A COLUMN VECTOR OF THE MATRIX IN QUESTION IN THIS CASE.
000970:
000971:    7123           34711        PREDOT             CAF      TWO                                   #  PROLOGUE TO SET DOTINC TO 2.
000972:    7124           54136                           TS       DOTINC
000973:
000974:    7125           00006        DOTSUB             EXTEND
000975:    7126           22137                           QXCH     DOTRET                                #  SAVE RETURN.
000976:    7127           07056                           TC       DMPSUB                                #  DOT X COMPONENTS.
000977:    7130           52160                           DXCH     MPAC       +3                         #  POSITION Y COMPONENT OF MPAC FOR
000978:    7131           52155                           DXCH     MPAC                                  #  MULTIPLICATION WHILE SAVING RESULT IN
000979:    7132           52131                           DXCH     BUF                                   #  THREE WORD BUFFER, BUF.
000980:    7133           30156                           CA       MPAC       +2
000981:    7134           54132                           TS       BUF        +2
000982:
000983:    7135           30136                           CA       DOTINC                                #  ADVANCE ADDRWD TO Y COMPONENT OF
000984:    7136           26116                           ADS      ADDRWD                                #  OTHER ARGUMENT.
000985:    7137           07056                           TC       DMPSUB
000986:    7140           52156                           DXCH     MPAC       +1                         #  ACCUMULATE PARTIAL PRODUCTS.
000987:    7141           20132                           DAS      BUF        +1
000988:    7142           60154                           AD       MPAC
000989:    7143           60130                           AD       BUF
000990:    7144           54130                           TS       BUF
000991:    7145           17147                           TCF      +2
000992:    7146           54121                           TS       OVFIND                                #  IF OVERFLOW OCCURS.
000993:
000994:    7147           52162                           DXCH     MPAC       +5                         #  MULTIPLY Z COMPONENTS.
000995:    7150           52155                           DXCH     MPAC
000996:    7151           30136                           CA       DOTINC
000997:    7152           26116                           ADS      ADDRWD
000998:    7153           07056                           TC       DMPSUB
000999:    7154           52132        ENDDOT             DXCH     BUF        +1                         #  LEAVE FINAL ACCUMULATION IN MPAC.
001000:    7155           20156                           DAS      MPAC       +1
001001:    7156           60154                           AD       MPAC
001002:    7157           60130                           AD       BUF
001003:    7160           54154                           TS       MPAC
001004:    7161           00137                           TC       DOTRET
001005:
001006:    7162           06766                           TC       OVERFLOW                              #  ON OVERFLOW HERE.
001007:    7163           00137                           TC       DOTRET
001008:


001010:                                                                                                  #  DOUBLE PRECISION POLYNOMIAL EVALUATOR
001011:                                                                                                  #                                  N        N-1
001012:                                                                                                  #        THIS ROUTINE EVALUATES A X  + A   X    + ... + A  X + A  LEAVING THE DP RESULT IN MPAC ON EXIT.
001013:                                                                                                  #                                N      N-1              1      0
001014:
001015:                                                                                                  #  THE ROUTINE HAS TWO ENTRIES
001016:
001017:                                                                                                  #        1.      ENTRY THRU POWRSERS.  THE COEFFICIENTS MAY BE EITHER IN FIXED OR ERASABLE, THE CALL IS BY
001018:                                                                                                  #                TC POWRSERS, AND THE RETURN IS TO LOC(TC POWRSERS)+1.  THE ENTERING DATA MUST BE AS FOLLOWS
001019:                                                                                                  #                        A       SP      LOC-3           ADDRESS FOR REFERENCING COEF TABLE
001020:                                                                                                  #                        L       SP      N-1             N IS THE DEGREE OF THE POWER SERIES
001021:                                                                                                  #                        MPAC    DP      X               ARGUMENT
001022:                                                                                                  #                        LOC-2N  DP      A(0)
001023:                                                                                                  #                                ...
001024:                                                                                                  #                        LOC     DP      A(N)
001025:
001026:                                                                                                  #        2.      ENTRY THRU POLY.  THE CALL TO POLY AND THE ENTERING DATA MUST BE AS FOLLOWS
001027:                                                                                                  #                        MPAC            DP              X               ARGUMENT
001028:                                                                                                  #                        LOC             TC              POLY
001029:                                                                                                  #                        LOC+1           SP              N-1
001030:                                                                                                  #                        LOC+2           DP              A(0)
001031:                                                                                                  #                                        ...
001032:                                                                                                  #                        LOC+2N+2        DP              A(N)            RETURN IS TO LOC+2N+4
001033:
001034:    7164           00006        POWRSERS           EXTEND
001035:    7165           22141                           QXCH     POLYRET                               #  RETURN ADDRESS
001036:    7166           54117                           TS       POLISH                                #  POWER SERIES ADDRESS
001037:    7167           22140                           LXCH     POLYCNT                               #  N-1 TO COUNTER
001038:    7170           17201                           TCF      POLYCOM                               #  SKIP SET UP BY POLY
001039:
001040:    7171           50002        POLY               INDEX    Q
001041:    7172           30000                           CAF      0
001042:    7173           54140                           TS       POLYCNT                               #  N-1 TO COUNTER
001043:    7174           60000                           DOUBLE
001044:    7175           60002                           AD       Q
001045:    7176           54117                           TS       POLISH                                #  L(A(N))-3 TO POLISH
001046:    7177           64715                           AD       FIVE
001047:    7200           54141                           TS       POLYRET                               #  STORE RETURN ADDRESS
001048:
001049:    7201           36242        POLYCOM            CAF      LVBUF                                 #  INCOMING X WILL BE MOVED TO VBUF, SO
001050:    7202           54116                           TS       ADDRWD                                #  SET ADDRWD SO DMPSUB WILL MPY BY VBUF.
001051:
001052:    7203           00006                           EXTEND
001053:    7204           50117                           INDEX    POLISH
001054:    7205           30004                           DCA      3
001055:


001057:    7206           52155                           DXCH     MPAC                                  #  LOAD A(N) INTO MPAC,
001058:    7207           52123                           DXCH     VBUF                                  #  SAVING X IN VBUF
001059:    7210           17214                           TCF      POLY2
001060:
001061:    7211           54140        POLYLOOP           TS       POLYCNT                               #  SAVE DECREMENTED LOOP COUNTER
001062:    7212           44711                           CS       TWO
001063:    7213           26117                           ADS      POLISH                                #  REGRESS COEFFICIENT POINTER
001064:
001065:    7214           07056        POLY2              TC       DMPSUB                                #  MULTIPLY BY X
001066:    7215           00006                           EXTEND
001067:    7216           50117                           INDEX    POLISH
001068:    7217           30002                           DCA      1                                     #  ADD IN NEXT COEFFICIENT
001069:    7220           20155                           DAS      MPAC                                  #  USERS RESPONSIBILITY TO ASSURE NO OVFLOW
001070:
001071:    7221           10140                           CCS      POLYCNT
001072:    7222           17211                           TCF      POLYLOOP
001073:    7223           00141                           TC       POLYRET                               #  RETURN CALLER
001074:


001076:                                                                                                  #  MISCELLANEOUS MULTI-PRECISION ROUTINES REQUIRED IN FIXED-FIXED BUT NOT USED BY THE INTERPRETER.
001077:
001078:    7224           34714        DPAGREE            CAF      ZERO                                  #  DOUBLE PRECISION ENTRY -
001079:    7225           54156                           TS       MPAC       +2                         #  ZERO LOW-ORDER WORD
001080:
001081:    7226           22002        TPAGREE            LXCH     Q                                     #  FORCE SIGN AGREEMENT AMONG THE TRIPLE
001082:    7227           06672                           TC       BRANCH                                #  PRECISION CONTENTS OF MPAC.  RETURNING
001083:    7230           17234                           TCF      ARG+                                  #  WITH SIGNUM OF THE INPUT IN A.
001084:    7231           17254                           TCF      ARGZERO
001085:
001086:    7232           44672                           CS       POSMAX                                #  IF NEGATIVE.
001087:    7233           17235                           TCF      +2
001088:
001089:    7234           34672        ARG+               CAF      POSMAX
001090:    7235           54002                           TS       Q
001091:    7236           00006                           EXTEND
001092:    7237           24000                           AUG      A                                     #  FORMS +-1.0.
001093:    7240           60156                           AD       MPAC       +2
001094:    7241           54156                           TS       MPAC       +2
001095:    7242           34714                           CAF      ZERO
001096:    7243           60002                           AD       Q
001097:    7244           60155                           AD       MPAC       +1
001098:    7245           54155                           TS       MPAC       +1
001099:    7246           34714                           CAF      ZERO
001100:    7247           60002                           AD       Q                                     #  Q STILL HAS POSMAX OR NEGMAX IN IT.
001101:    7250           60154                           AD       MPAC
001102:    7251           54154        ARGZERO2           TS       MPAC                                  #  ALWAYS SKIPPING UNLESS ARGZERO.
001103:    7252           54155                           TS       MPAC       +1
001104:    7253           00001                           TC       L                                     #  RETURN VIA L.
001105:
001106:    7254           54156        ARGZERO            TS       MPAC       +2                         #  SET ALL THREE MPAC REGISTERS TO ZERO.
001107:    7255           17251                           TCF      ARGZERO2
001108:
001109:                                                                                                  #  SHORTMP MULTIPLIES THE TP CONTENTS OF MPAC BY THE SINGLE PRECISION NUMBER ARRIVING IN A.
001110:
001111:    7256           54135        SHORTMP            TS       MPTEMP
001112:    7257           00006                           EXTEND
001113:    7260           70156                           MP       MPAC       +2
001114:    7261           54156                           TS       MPAC       +2
001115:    7262           34714        SHORTMP2           CAF      ZERO                                  #  SO SUBSEQUENT DAS WILL WORK.
001116:    7263           56155                           XCH      MPAC       +1
001117:    7264           17075                           TCF      DMPSUB2
001118:


001120:                                                                                                  #  DMPNSUB MULTIPLIES THE DP FRACTION ARRIVING IN MPAC BY THE SP
001121:                                                                                                  #  INTEGER ARRIVING IN A.  THE DP PRODUCT DEPARTS BOTH IN MPAC AND IN
001122:                                                                                                  #  A AND L.  NOTE THAT DMPNSUB NORMALLY INCREASES THE MAGNITUDE OF THE
001123:                                                                                                  #  CONTENTS OF MPAC.  THE CUSTOMER MUST INSURE THAT B(A) X B(MPAC,MPAC+1)
001124:                                                                                                  #  AND B(A) X B(MPAC) ARE LESS THAN 1 IN MAGNITUDE, WHERE B, AS IS OBVIOUS,
001125:                                                                                                  #  INDICATES THE ARRIVING CONTENTS.
001126:
001127:    7265           54135        DMPNSUB            TS       DMPNTEMP
001128:    7266           00006                           EXTEND
001129:    7267           70155                           MP       MPAC       +1
001130:    7270           52155                           DXCH     MPAC                                  #  LOW PRODUCT TO MPAC, HIGH FACTOR TO A
001131:    7271           00006                           EXTEND
001132:    7272           70135                           MP       DMPNTEMP
001133:    7273           30001                           CA       L
001134:    7274           26154                           ADS      MPAC                                  #  COMPLETING THE PRODUCT IN MPAC
001135:    7275           00006                           EXTEND
001136:    7276           30155                           DCA      MPAC                                  #  BRINGING THE PRODUCT INTO A AND L
001137:    7277           00002                           TC       Q
001138:


001140:                                                                                                  #  MISCELLANEOUS VECTOR OPERATIONS.  INCLUDED HERE ARE THE FOLLOWING:
001141:                                                                                                  #        1.      DOT     DP VECTOR DOT PRODUCT.
001142:                                                                                                  #        2.      VXV     DP VECTOR CROSS PRODUCT.
001143:                                                                                                  #        3.      VXSC    DP VECTOR TIMES SCALAR.
001144:                                                                                                  #        4.      V/SC    DP VECTOR DIVIDED BY SCALAR.
001145:                                                                                                  #        5.      VPROJ   DP VECTOR PROJECTION.  ( (MPAC.X)MPAC ).
001146:                                                                                                  #        6.      VXM     DP VECTOR POST-MULTIPLIED BY MATRIX.
001147:                                                                                                  #        7.      MXV     DP VECTOR PRE-MULTIPLIED BY MATRIX.
001148:
001149:    7300           07123        DOT                TC       PREDOT                                #  DO THE DOT PRODUCT AND EXIT, CHANGING
001150:    7301           34714        DMODE              CAF      ZERO                                  #  THE MODE TO DP SCALAR.
001151:    7302           16027                           TCF      NEWMODE
001152:
001153:    7303           34711        MXV                CAF      TWO                                   #  SET UP MATINC AND DOTINC FOR ROW
001154:    7304           54140                           TS       MATINC                                #  VECTORS.
001155:    7305           17311                           TCF      VXM/MXV                               #  GO TO COMMON PORTION.
001156:
001157:    7306           44377        VXM                CS       TEN                                   #  SET MATINC AND DOTINC TO REFER TO MATRIX
001158:    7307           54140                           TS       MATINC                                #  AS THREE COLUMN VECTORS.
001159:    7310           36211                           CAF      SIX
001160:


001162:                                                                                                  #  COMMON PORTION OF MXV AND VXM.
001163:
001164:    7311           54136        VXM/MXV            TS       DOTINC
001165:
001166:                                                                                                  #  ITRACE (2) REFERS TO "VXM/MXV".
001167:
001168:    7312           07501                           TC       MPACVBUF                              #  SAVE VECTOR IN MPAC FOR FURTHER USE.
001169:
001170:    7313           07125                           TC       DOTSUB                                #  GO DOT TO GET X COMPONENT OF ANSWER.
001171:    7314           00006                           EXTEND
001172:    7315           30123                           DCA      VBUF                                  #  MOVE MPAC VECTOR BACK INTO MPAC, SAVING
001173:    7316           52155                           DXCH     MPAC                                  #  NEW X COMPONENT IN BUF2.
001174:    7317           52134                           DXCH     BUF2
001175:    7320           00006                           EXTEND
001176:    7321           30125                           DCA      VBUF       +2
001177:    7322           52160                           DXCH     MPAC       +3
001178:    7323           00006                           EXTEND
001179:    7324           30127                           DCA      VBUF       +4
001180:    7325           52162                           DXCH     MPAC       +5
001181:    7326           30140                           CA       MATINC                                #  INITIALIZE ADDRWD FOR NEXT DOT PRODUCT.
001182:    7327           26116                           ADS      ADDRWD                                #  FORMS BASE ADDRESS OF NEXT COLUMN(ROW).
001183:
001184:    7330           07125                           TC       DOTSUB
001185:    7331           52123                           DXCH     VBUF                                  #  MOVE GIVEN VECTOR BACK TO MPAC, SAVING Y
001186:    7332           52155                           DXCH     MPAC                                  #  COMPONENT OF ANSWER IN VBUF +2.
001187:    7333           52125                           DXCH     VBUF       +2
001188:    7334           52160                           DXCH     MPAC       +3
001189:    7335           52127                           DXCH     VBUF       +4
001190:    7336           52162                           DXCH     MPAC       +5
001191:    7337           30140                           CA       MATINC                                #  FORM ADDRESS OF LAST COLUMN OR ROW.
001192:    7340           26116                           ADS      ADDRWD
001193:
001194:    7341           07125                           TC       DOTSUB
001195:    7342           52134                           DXCH     BUF2                                  #  ANSWER NOW COMPLETE. PUT COMPONENTS INTO
001196:    7343           52155                           DXCH     MPAC                                  #  PROPER MPAC REGISTERS.
001197:    7344           52162                           DXCH     MPAC       +5
001198:    7345           52125                           DXCH     VBUF       +2
001199:    7346           52160                           DXCH     MPAC       +3
001200:    7347           16030                           TCF      DANZIG                                #  EXIT.
001201:


001203:                                                                                                  #  VXSC - VECTOR TIMES SCALAR.
001204:
001205:    7350           10163        VXSC               CCS      MODE                                  #  TEST PRESENT MODE.
001206:    7351           17377                           TCF      DVXSC                                 #  SEPARATE ROUTINE WHEN SCALAR IS IN MPAC.
001207:    7352           17377                           TCF      DVXSC
001208:
001209:    7353           07056        VVXSC              TC       DMPSUB                                #  COMPUTE X COMPONENT
001210:    7354           07107                           TC       VROUND                                #  AND ROUND IT.
001211:    7355           52160                           DXCH     MPAC       +3                         #  PUT Y COMPONENT INTO MPAC SAVING MPAC IN
001212:    7356           52155                           DXCH     MPAC                                  #  MPAC +3.
001213:    7357           52160                           DXCH     MPAC       +3
001214:
001215:    7360           07056                           TC       DMPSUB                                #  DO SAME FOR Y AND Z COMPONENTS.
001216:    7361           07107                           TC       VROUND
001217:    7362           52162                           DXCH     MPAC       +5
001218:    7363           52155                           DXCH     MPAC
001219:    7364           52162                           DXCH     MPAC       +5
001220:
001221:    7365           07056                           TC       DMPSUB
001222:    7366           07107                           TC       VROUND
001223:    7367           52155        VROTATEX           DXCH     MPAC                                  #  EXIT USED TO RESTORE MPAC AFTER THIS
001224:    7370           52162                           DXCH     MPAC       +5                         #  TYPE OF ROTATION.  CALLED BY VECTOR SHIFT
001225:    7371           52160                           DXCH     MPAC       +3                         #  RIGHT, V/SC, ETC.
001226:    7372           52155                           DXCH     MPAC
001227:    7373           16030                           TCF      DANZIG
001228:


001230:                                                                                                  #  DP VECTOR PROJECTION ROUTINE.
001231:
001232:    7374           07123        VPROJ              TC       PREDOT                                #  (MPAC.X)MPAC IS COMPUTED AND LEFT IN
001233:    7375           44710                           CS       FOUR                                  #  MPAC.  DO DOT AND FALL INTO DVXSC.
001234:    7376           26116                           ADS      ADDRWD
001235:
001236:                                                                                                  #  VXSC WHEN SCALAR ARRIVES IN MPAC AND VECTOR IS AT X.
001237:
001238:    7377           00006        DVXSC              EXTEND                                         #  SAVE SCALAR IN MPAC +3 AND GET X
001239:    7400           30155                           DCA      MPAC                                  #  COMPONENT OF ANSWER.
001240:    7401           52160                           DXCH     MPAC       +3
001241:    7402           07056                           TC       DMPSUB
001242:    7403           07107                           TC       VROUND
001243:
001244:    7404           34711                           CAF      TWO                                   #  ADVANCE ADDRWD TO Y COMPONENT OF X.
001245:    7405           26116                           ADS      ADDRWD
001246:    7406           00006                           EXTEND
001247:    7407           30160                           DCA      MPAC       +3                         #  PUT SCALAR BACK INTO MPAC AND SAVE
001248:    7410           52155                           DXCH     MPAC                                  #  X RESULT IN MPAC +5.
001249:    7411           52162                           DXCH     MPAC       +5
001250:    7412           07056                           TC       DMPSUB
001251:    7413           07107                           TC       VROUND
001252:
001253:    7414           34711                           CAF      TWO
001254:    7415           26116                           ADS      ADDRWD                                #  TO Z COMPONENT.
001255:    7416           52160                           DXCH     MPAC       +3                         #  BRING SCALAR BACK, PUTTING Y RESULT IN
001256:    7417           52155                           DXCH     MPAC                                  #  THE PROPER PLACE.
001257:    7420           52160                           DXCH     MPAC       +3
001258:    7421           07056                           TC       DMPSUB
001259:    7422           07107                           TC       VROUND
001260:
001261:    7423           52155                           DXCH     MPAC                                  #  PUT Z COMPONENT IN PROPER PLACE, ALSO
001262:    7424           52162                           DXCH     MPAC       +5                         #  POSITIONING X.
001263:    7425           52155                           DXCH     MPAC
001264:
001265:    7426           16470                           TCF      VMODE                                 #  MODE HAS CHANGED TO VECTOR.
001266:


001268:                                                                                                  #  THE VECTOR CROSS PRODUCT ROUTINE CALCULATES (X M -X M ,X M -X M ,X M -X M ) WHERE M IS THE VECTOR IN
001269:                                                                                                  #                                                3 2  2 3  1 3  3 1  2 1  1 2
001270:                                                                                                  #  MPAC AND X THE VECTOR AT THE GIVEN ADDRESS.
001271:
001272:    7427           00006        VXV                EXTEND
001273:    7430           30162                           DCA      MPAC       +5                         #  FORM UP M3X1, LEAVING M1 IN VBUF.
001274:    7431           52155                           DXCH     MPAC
001275:    7432           52123                           DXCH     VBUF
001276:    7433           07056                           TC       DMPSUB                                #  BY X1.
001277:
001278:    7434           00006                           EXTEND
001279:    7435           40160                           DCS      MPAC       +3                         #  CALCULATE -X1M2, SAVING X1M3 IN VBUF +2.
001280:    7436           52155                           DXCH     MPAC
001281:    7437           52125                           DXCH     VBUF       +2
001282:    7440           07056                           TC       DMPSUB
001283:
001284:    7441           34711                           CAF      TWO                                   #  ADVANCE ADDRWD TO X2.
001285:    7442           26116                           ADS      ADDRWD
001286:    7443           00006                           EXTEND
001287:    7444           40162                           DCS      MPAC       +5                         #  PREPARE TO GET -X2M3, SAVING -X1M2 IN
001288:    7445           52155                           DXCH     MPAC                                  #  MPAC +5.
001289:    7446           52162                           DXCH     MPAC       +5
001290:    7447           07056                           TC       DMPSUB
001291:
001292:    7450           00006                           EXTEND
001293:    7451           30123                           DCA      VBUF                                  #  GET X2M1, SAVING -X2M3 IN VBUF +4.
001294:    7452           52155                           DXCH     MPAC
001295:    7453           52127                           DXCH     VBUF       +4
001296:    7454           07056                           TC       DMPSUB
001297:
001298:    7455           34711                           CAF      TWO                                   #  ADVANCE ADDRWD TO X3.
001299:    7456           26116                           ADS      ADDRWD
001300:    7457           00006                           EXTEND
001301:    7460           40123                           DCS      VBUF                                  #  GET -X3M1, ADDING X2M1 TO MPAC +5 TO
001302:    7461           52155                           DXCH     MPAC                                  #  COMPLETE THE Z COMPONENT OF THE ANSWER.
001303:    7462           20162                           DAS      MPAC       +5
001304:
001305:    7463           00006                           EXTEND
001306:    7464           17466                           BZF      +2
001307:    7465           06760                           TC       OVERFLWZ
001308:
001309:    7466           07056                           TC       DMPSUB
001310:    7467           52125                           DXCH     VBUF       +2                         #  MOVE X1M3 TO MPAC +3 SETTING UP FOR X3M2
001311:    7470           52160                           DXCH     MPAC       +3                         #  AND ADD -X3M1 TO MPAC +3 TO COMPLETE THE
001312:    7471           52155                           DXCH     MPAC                                  #  Y COMPONENT OF THE RESULT.
001313:    7472           20160                           DAS      MPAC       +3
001314:
001315:    7473           00006                           EXTEND
001316:    7474           17476                           BZF      +2


001318:    7475           06763                           TC       OVERFLWY
001319:
001320:    7476           07056                           TC       DMPSUB
001321:    7477           52127                           DXCH     VBUF       +4                         #  GO ADD -X2M3 TO X3M2 TO COMPLETE THE X
001322:    7500           16747                           TCF      ENDVXV                                #  COMPONENT (TAIL END OF DAD).
001323:
001324:                                                                                                  #  THE MPACVBUF SUBROUTINE SAVES THE VECTOR IN MPAC IN VBUF WITHOUT CLOBBERING MPAC.
001325:
001326:    7501           00006        MPACVBUF           EXTEND                                         #  CALLED BY MXV, VXM, AND UNIT.
001327:    7502           30155                           DCA      MPAC
001328:    7503           52123                           DXCH     VBUF
001329:    7504           00006                           EXTEND
001330:    7505           30160                           DCA      MPAC       +3
001331:    7506           52125                           DXCH     VBUF       +2
001332:    7507           00006                           EXTEND
001333:    7510           30162                           DCA      MPAC       +5
001334:    7511           52127                           DXCH     VBUF       +4
001335:    7512           00002                           TC       Q                                     #  RETURN TO CALLER.
001336:
001337:                                                                                                  #  DOUBLE PRECISION SIGN AGREE ROUTINE.  ARRIVE WITH INPUT IN A+L.  OUTPUT IS IN A + L.
001338:
001339:    7513           10000        ALSIGNAG           CCS      A                                     #  TEST UPPER PART.
001340:    7514           17520                           TCF      UPPOS                                 #  IT IS POSITIVE
001341:    7515           00002                           TC       Q                                     #  ZERO
001342:    7516           17530                           TCF      UPNEG                                 #  NEGATIVE
001343:    7517           00002                           TC       Q                                     #  ZERO
001344:
001345:    7520           56001        UPPOS              XCH      L                                     #  SAVE DECREMENTED UPPER PART.
001346:    7521           64675                           AD       HALF
001347:    7522           64675                           AD       HALF
001348:    7523           54000                           TS       A                                     #  SKIPS ON OVERFLOW
001349:    7524           17526                           TCF      +2
001350:    7525           24001                           INCR     L                                     #  RESTORE UPPER TO ROIGINAL VALUE
001351:    7526           56001                           XCH      L                                     #  SWAP A + L BACK.
001352:    7527           00002                           TC       Q
001353:
001354:    7530           56001        UPNEG              XCH      L                                     #  SAVE COMPLEMENTED + DECREMENTED UPPER PT
001355:    7531           64674                           AD       NEGMAX
001356:    7532           67716                           AD       NEGONE
001357:    7533           54000                           TS       A
001358:    7534           17536                           TCF      +2                                    #  DONT INCREMENT IF NO OVERFLOW.
001359:    7535           24001                           INCR     L
001360:    7536           56001                           XCH      L
001361:    7537           40000                           COM                                            #  MAKE NEGATIVE AGAIN.
001362:    7540           00002                           TC       Q
001363:


001365:                                                                                                  #  INTERPRETIVE INSTRUCTIONS WHOSE EXECUTION CONSISTS OF PRINCIPALLY CALLING SUBROUTINES.
001366:
001367:    7541           07056        DMP1               TC       DMPSUB                                #  DMP INSTRUCTION.
001368:    7542           16030                           TCF      DANZIG
001369:
001370:    7543           07056        DMPR               TC       DMPSUB
001371:    7544           07106                           TC       ROUNDSUB   +1                         #  (C(A) = +0).
001372:    7545           16030                           TCF      DANZIG
001373:
001374:    7546           00006        DDV                EXTEND
001375:    7547           50116                           INDEX    ADDRWD                                #  MOVE DIVIDEND INTO BUF.
001376:    7550           30001                           DCA      0
001377:    7551           17556                           TCF      BDDV       +4
001378:
001379:    7552           00006        BDDV               EXTEND                                         #  MOVE DIVISOR INTO MPAC SAVING MPAC, THE
001380:    7553           50116                           INDEX    ADDRWD                                #  DIVIDEND, IN BUF.
001381:    7554           30001                           DCA      0
001382:    7555           52155                           DXCH     MPAC
001383:    7556           52131                 +4        DXCH     BUF
001384:    7557           34714                           CAF      ZERO                                  #  DIVIDE ROUTINES IN BANK 0.
001385:    7560           54004                           TS       FBANK
001386:    7561           12353                           TCF      DDV/BDDV
001387:
001388:    7562           30116        SETPD              CA       ADDRWD                                #  MUST SET TO WORK AREA, OR EBANK TROUBLE.
001389:    7563           54166                           TS       PUSHLOC
001390:    7564           16032                           TCF      NOIBNKSW                              #  NO FBANK SWITCH REQUIRED.
001391:
001392:    7565           34714        TSLC               CAF      ZERO                                  #  SHIFTING ROUTINES LOCATED IN BANK 00.
001393:    7566           54004                           TS       FBANK
001394:    7567           12172                           TCF      TSLC2
001395:
001396:    7570           36043        GSHIFT             CAF      LOW7                                  #  USED AS MASK AT GENSHIFT. THIS PROCESSES
001397:    7571           54004                           TS       FBANK                                 #  ANY SHIFT INSTRUCTION (EXCEPT TSLC) WITH
001398:    7572           12214                           TCF      GENSHIFT                              #  AN ADDRESS (ROUTINES IN BANK 0).
001399:


001401:                                                                                                  #  THE FOLLOWING IS THE PROLOGUE TO V/SC.  IF THE PRESENT MODE IS VECTOR, IT SAVES THE SCALAR AT X IN BUF
001402:                                                                                                  #  AND CALLS THE V/SC ROUTINE IN BANK 0.  IF THE PRESENT MODE IS SCALAR, IT MOVES THE VECTOR AT X INTO MPAC, SAVING
001403:                                                                                                  #  THE SCALAR IN MPAC IN BUF BEFORE CALLING THE V/SC ROUTINE IN BANK 0.
001404:
001405:    7573           10163        V/SC               CCS      MODE
001406:    7574           17605                           TCF      DV/SC                                 #  MOVE VECTOR INTO MPAC.
001407:    7575           17605                           TCF      DV/SC
001408:
001409:    7576           00006        VV/SC              EXTEND
001410:    7577           50116                           INDEX    ADDRWD
001411:    7600           30001                           DCA      0
001412:    7601           52131        V/SC1              DXCH     BUF                                   #  IN BOTH CASES, VECTOR IS NOW IN MPAC AND
001413:    7602           34714                           CAF      ZERO                                  #  SCALAR IN BUF.
001414:    7603           54004                           TS       FBANK
001415:    7604           12654                           TCF      V/SC2
001416:
001417:    7605           00006        DV/SC              EXTEND
001418:    7606           50116                           INDEX    ADDRWD
001419:    7607           30003                           DCA      2
001420:    7610           52160                           DXCH     MPAC       +3
001421:    7611           00006                           EXTEND
001422:    7612           50116                           INDEX    ADDRWD
001423:    7613           30005                           DCA      4
001424:    7614           52162                           DXCH     MPAC       +5
001425:
001426:    7615           44712                           CS       ONE                                   #  CHANGE MODE TO VECTOR.
001427:    7616           54163                           TS       MODE
001428:
001429:    7617           00006                           EXTEND
001430:    7620           50116                           INDEX    ADDRWD
001431:    7621           30001                           DCA      0
001432:    7622           52155                           DXCH     MPAC
001433:    7623           17601                           TCF      V/SC1                                 #  FINISH PROLOGUE AT COMMON SECTION.
001434:


001436:                                                                                                  #  SIGN AND COMPLEMENT INSTRUCTIONS.
001437:
001438:    7624           50116        SIGN               INDEX    ADDRWD                                #  CALL COMP INSTRUCTION IF WORD AT X IS
001439:    7625           10000                           CCS      0                                     #  NEGATIVE NON-ZERO.
001440:    7626           16030                           TCF      DANZIG
001441:    7627           17631                           TCF      +2
001442:    7630           17637                           TCF      COMP                                  #  DO THE COMPLEMENT.
001443:
001444:    7631           50116                           INDEX    ADDRWD
001445:    7632           10001        CCSL               CCS      1
001446:    7633           16030                           TCF      DANZIG
001447:    7634           16030                           TCF      DANZIG
001448:    7635           17637                           TCF      COMP
001449:    7636           16030                           TCF      DANZIG
001450:    7637           00006        COMP               EXTEND                                         #  COMPLEMENT DP MPAC IN EVERY CASE.
001451:    7640           40155                           DCS      MPAC
001452:    7641           52155                           DXCH     MPAC
001453:
001454:    7642           10163                           CCS      MODE                                  #  EITHER COMPLEMENT MPAC +3 OR THE REST OF
001455:    7643           17654                           TCF      DCOMP                                 #  THE VECTOR ACCUMULATOR.
001456:    7644           17654                           TCF      DCOMP
001457:
001458:    7645           00006                           EXTEND                                         #  VECTOR COMPLEMENT.
001459:    7646           40160                           DCS      MPAC       +3
001460:    7647           52160                           DXCH     MPAC       +3
001461:    7650           00006                           EXTEND
001462:    7651           40162                           DCS      MPAC       +5
001463:    7652           52162                           DXCH     MPAC       +5
001464:    7653           16030                           TCF      DANZIG
001465:
001466:    7654           40156        DCOMP              CS       MPAC       +2
001467:    7655           54156                           TS       MPAC       +2
001468:    7656           16030                           TCF      DANZIG
001469:


001471:                                                                                                  #  THE FOLLOWING SHORT SHIFT CODES REQUIRE NO ADDRESS WORD:
001472:                                                                                                  #        1.      SR1 TO SR4      SCALAR SHIFT RIGHT.
001473:                                                                                                  #        2.      SR1R TO SR4R    SCALAR SHIFT RIGHT AND ROUND.
001474:                                                                                                  #        3.      SL1 TO SL4      SCALAR SHIFT LEFT.
001475:                                                                                                  #        4.      SL1R TO SL4R    SCALAR SHIFT LEFT AND ROUND.
001476:                                                                                                  #        5.      VSR1 TO VSR8    VECTOR SHIFT RIGHT (ALWAYS ROUNDS).
001477:                                                                                                  #        6.      VSL1 TO VSL8    VECTOR SHIFT LEFT (NEVER ROUNDS).
001478:                                                                                                  #  THE FOLLOWING CODES REQUIRE AN ADDRESS WHICH MAY BE INDEXED:*
001479:                                                                                                  #        1.      SR              SCALAR SHIFT RIGHT.
001480:                                                                                                  #        2.      SRR             SCALAR SHIFT RIGHT AND ROUND.
001481:                                                                                                  #        3.      SL              SCALAR SHIFT LEFT.
001482:                                                                                                  #        4.      SLR             SCALAR SHIFT LEFT AND ROUND.
001483:                                                                                                  #        5.      VSR             VECTOR SHIFT RIGHT.
001484:                                                                                                  #        6.      VSL             VECTOR SHIFT LEFT.
001485:                                                                                                  #  * IF THE ADDRESS IS INDEXED, AND THE INDEX MODIFICATION RESULTS IN A NEGATIVE SHIFT COUNT, A SHIFT OF THE
001486:                                                                                                  #  ABSOLUTE VALUE OF THE COUNT IS DONE IN THE OPPOSITE DIRECTION.
001487:
001488: 00,2017                                           BANK     00
001489:
001490: 00,2017                                           COUNT    00/INTER
001491:
001492: 00,2017           36211        SHORTT             CAF      SIX                                   #  SCALAR SHORT SHIFTS COME HERE.  THE SHIFT
001493: 00,2020           70020                           MASK     CYR                                   #  COUNT-1 IS NOW IN BITS 2-3 OF CYR.  THE
001494: 00,2021           54021                           TS       SR                                    #  ROUNDING BIT IS IN BIT1 AT THIS POINT.
001495:
001496: 00,2022           10020                           CCS      CYR                                   #  SEE IF RIGHT OR LEFT SHIFT DESIRED.
001497: 00,2023           12101                           TCF      TSSL                                  #  SHIFT LEFT.
001498:
001499: 00,2024           00024        SRDDV              DEC      20         B-14                       #  MPTEMP SETTING FOR SR BEFORE DDV.
001500:
001501: 00,2025           50021        TSSR               INDEX    SR                                    #  GET SHIFTING BIT.
001502: 00,2026           34675                           CAF      BIT14
001503: 00,2027           54135                           TS       MPTEMP
001504:
001505: 00,2030           10020                           CCS      CYR                                   #  SEE IF A ROUND IS DESIRED.
001506: 00,2031           02050        RIGHTR             TC       MPACSRND                              #  YES - SHIFT RIGHT AND ROUND.
001507: 00,2032           16027                           TCF      NEWMODE                               #  SET MODE TO DP (C(A) = 0).
001508: 00,2033           30135        MPACSHR            CA       MPTEMP                                #  DO A TRIPLE PRECISION SHIFT RIGHT.
001509: 00,2034           00006                           EXTEND
001510: 00,2035           70156                           MP       MPAC       +2
001511: 00,2036           54156                 +3        TS       MPAC       +2                         #  (EXIT FROM SQRT AND ABVAL).
001512: 00,2037           30135                           CA       MPTEMP
001513: 00,2040           00006                           EXTEND


001515: 00,2041           70154                           MP       MPAC                                  #  SHIFT MAJOR PART INTO A,L AND PLACE IN
001516: 00,2042           52155                           DXCH     MPAC                                  #  MPAC,+1.
001517: 00,2043           30135                           CA       MPTEMP
001518: 00,2044           00006                           EXTEND
001519: 00,2045           70001                           MP       L                                     #  ORIGINAL C(MPAC +1).
001520: 00,2046           20156                           DAS      MPAC       +1                         #  GUARANTEED NO OVERFLOW.
001521: 00,2047           16030                           TCF      DANZIG
001522:
001523:                                                                                                  #  MPAC SHIFT RIGHT AND ROUND SUBROUTINES.
001524:
001525: 00,2050           30156        MPACSRND           CA       MPAC       +2                         #  WE HAVE TO DO ALL THREE MULTIPLIES SINCE
001526: 00,2051           00006                           EXTEND                                         #  MPAC +1 AND MPAC +2 MIGHT HAVE SIGN
001527: 00,2052           70135                           MP       MPTEMP                                #  DISAGREEMENT WITH A SHIFT RIGHT OF 1.
001528: 00,2053           56155                           XCH      MPAC       +1
001529: 00,2054           00006                           EXTEND
001530: 00,2055           70135                           MP       MPTEMP
001531: 00,2056           56155                           XCH      MPAC       +1                         #  TRIAL MINOR PART.
001532: 00,2057           60001                           AD       L
001533:
001534: 00,2060           60000        VSHR2              DOUBLE                                         #  (FINISH VECTOR COMPONENT SHIFT RIGHT
001535: 00,2061           54156                           TS       MPAC       +2                         #  AND ROUND.
001536: 00,2062           12064                           TCF      +2
001537: 00,2063           26155                           ADS      MPAC       +1                         #  GUARANTEED NO OVERFLOW.
001538:
001539: 00,2064           34714                           CAF      ZERO
001540: 00,2065           54156                           TS       MPAC       +2
001541: 00,2066           56154                           XCH      MPAC                                  #  SETTING TO ZERO SO FOLLOWING DAS WORKS.
001542: 00,2067           00006                           EXTEND
001543: 00,2070           70135                           MP       MPTEMP
001544: 00,2071           20155                           DAS      MPAC                                  #  AGAIN NO OVERFLOW.
001545: 00,2072           00002                           TC       Q
001546:
001547: 00,2073           30135        VSHRRND            CA       MPTEMP                                #  ENTRY TO SHIFT RIGHT AND ROUND MPAC WHEN
001548: 00,2074           00006                           EXTEND                                         #  MPAC CONTAINS A VECTOR COMPONENT.
001549: 00,2075           70155                           MP       MPAC       +1
001550: 00,2076           54155                           TS       MPAC       +1
001551: 00,2077           56001                           XCH      L
001552: 00,2100           12060                           TCF      VSHR2                                 #  GO ADD ONE IF NECESSARY AND FINISH.
001553:


001555:                                                                                                  #  ROUTINE FOR SHORT SCALAR SHIFT LEFT (AND MAYBE ROUND).
001556:
001557: 00,2101           30021        TSSL               CA       SR                                    #  GET SHIFT COUNT FOR SR.
001558: 00,2102           54135                 +1        TS       MPTEMP
001559:
001560: 00,2103           00006                 +2        EXTEND                                         #  ENTRY HERE FROM SL FOR SCALARS.
001561: 00,2104           30156                           DCA      MPAC       +1                         #  SHIFTING LEFT ONE PLACE AT A TIME IS
001562: 00,2105           20156                           DAS      MPAC       +1                         #  FASTER THAN DOING THE WHOLE SHIFT WITH
001563: 00,2106           60154                           AD       MPAC                                  #  MULTIPLIES ASSUMING THAT FREQUENCY OF
001564: 00,2107           60154                           AD       MPAC                                  #  SHIFT COUNTS GOES DOWN RAPIDLY AS A
001565: 00,2110           54154                           TS       MPAC                                  #  FUNCTION OF THEIR MAGNITUDE.
001566: 00,2111           12113                           TCF      +2
001567: 00,2112           54121                           TS       OVFIND                                #  OVERFLOW.  (LEAVES OVERFLOW-CORRECTED
001568:                                                                                                  #  RESULT ANYWAY).
001569: 00,2113           10135                           CCS      MPTEMP                                #  LOOP ON DECREMENTED SHIFT COUNT.
001570: 00,2114           12102                           TCF      TSSL       +1
001571:
001572: 00,2115           10020                           CCS      CYR                                   #  SEE IF ROUND WANTED.
001573: 00,2116           07105        ROUND              TC       ROUNDSUB                              #  YES - ROUND AND EXIT.
001574: 00,2117           16030                           TCF      DANZIG                                #  SL LEAVES A ZERO IN CYR FOR NO ROUND.
001575: 00,2120           16030                           TCF      DANZIG                                #  NO - EXIT IMMEDIATL
001576:


001578:                                                                                                  #  VECTOR SHIFTING ROUTINES.
001579:
001580: 00,2121           34716        SHORTV             CAF      LOW3                                  #  SAVE 3 BIT SHIFT COUNT - 1 WITHOUT
001581: 00,2122           70020                           MASK     CYR                                   #  EDITING CYR.
001582: 00,2123           54135                           TS       MPTEMP
001583: 00,2124           10020                           CCS      CYR                                   #  SEE IF LEFT OR RIGHT SHIFT.
001584: 00,2125           12145                           TCF      VSSL                                  #  VECTOR SHIFT LEFT.
001585: 00,2126           00176        OCT176             OCT      176                                   #  USED IN PROCESSED SHIFTS WITH - COUNT.
001586:
001587: 00,2127           50135        VSSR               INDEX    MPTEMP                                #  (ENTRY FROM SR).  PICK UP SHIFTING BIT.
001588: 00,2130           34675                           CAF      BIT14                                 #  MPTEMP CONTAINS THE SHIFT COUNT - 1.
001589: 00,2131           54135                           TS       MPTEMP
001590: 00,2132           02073                           TC       VSHRRND                               #  SHIFT X COMPONENT.
001591:
001592: 00,2133           52155                           DXCH     MPAC                                  #  SWAP X AND Y COMPONENTS.
001593: 00,2134           52160                           DXCH     MPAC       +3
001594: 00,2135           52155                           DXCH     MPAC
001595: 00,2136           02073                           TC       VSHRRND                               #  SHIFT Y COMPONENT.
001596:
001597: 00,2137           52155                           DXCH     MPAC                                  #  SWAP Y AND Z COMPONENTS.
001598: 00,2140           52162                           DXCH     MPAC       +5
001599: 00,2141           52155                           DXCH     MPAC
001600: 00,2142           02073                           TC       VSHRRND                               #  SHIFT Z COMPONENT.
001601:
001602: 00,2143           17367                           TCF      VROTATEX                              #  RESTORE COMPONENTS TO PROPER PLACES.
001603:


001605:                                                                                                  #  VECTOR SHIFT LEFT - DONE ONE PLACE AT A TIME.
001606:
001607: 00,2144           54135                 -1        TS       MPTEMP                                #  SHIFTING LOOP.
001608:
001609: 00,2145           00006        VSSL               EXTEND
001610: 00,2146           30155                           DCA      MPAC
001611: 00,2147           20155                           DAS      MPAC
001612: 00,2150           00006                           EXTEND
001613: 00,2151           12153                           BZF      +2
001614: 00,2152           06766                           TC       OVERFLOW
001615:
001616: 00,2153           00006                           EXTEND
001617: 00,2154           30160                           DCA      MPAC       +3
001618: 00,2155           20160                           DAS      MPAC       +3
001619: 00,2156           00006                           EXTEND
001620: 00,2157           12161                           BZF      +2
001621: 00,2160           06763                           TC       OVERFLWY
001622:
001623: 00,2161           00006                           EXTEND
001624: 00,2162           30162                           DCA      MPAC       +5
001625: 00,2163           20162                           DAS      MPAC       +5
001626: 00,2164           00006                           EXTEND
001627: 00,2165           12167                           BZF      +2
001628: 00,2166           06760                           TC       OVERFLWZ
001629:
001630: 00,2167           10135                           CCS      MPTEMP                                #  LOOP ON DECREMENTED SHIFT COUNTER.
001631: 00,2170           12144                           TCF      VSSL       -1
001632: 00,2171           16030                           TCF      DANZIG                                #  EXIT.
001633:


001635:                                                                                                  #  TSLC - TRIPLE SHIFT LEFT AND COUNT.  SHIFTS MPAC LEFT UNTIL GREATER THAN .5 IN MAGNITUDE, LEAVING
001636:                                                                                                  #  THE COMPLEMENT OF THE NUMBER OF SHIFTS REQUIRED IN X.
001637:
001638: 00,2172           54135        TSLC2              TS       MPTEMP                                #  START BY ZEROING SHIFT COUNT (IN A NOW).
001639: 00,2173           06672                           TC       BRANCH                                #  EXIT WITH NO SHIFTING IF ARGUMENT ZERO.
001640: 00,2174           12176                           TCF      +2
001641: 00,2175           12212                           TCF      ENDTSLC                               #  STORES ZERO SHIFT COUNT IN THIS CASE.
001642:
001643: 00,2176           07226                           TC       TPAGREE                               #  MAY CAUSE UPSHIFT OF ONE EXTRA PLACE.
001644:
001645: 00,2177           30154                           CA       MPAC                                  #  BEGIN NORMALIZATION LOOP.
001646: 00,2200           12207                           TCF      TSLCTEST
001647:
001648: 00,2201           24135        TSLCLOOP           INCR     MPTEMP                                #  INCREMENT SHIFT COUNTER.
001649: 00,2202           00006                           EXTEND
001650: 00,2203           30156                           DCA      MPAC       +1
001651: 00,2204           20156                           DAS      MPAC       +1
001652: 00,2205           60154                           AD       MPAC
001653: 00,2206           26154                           ADS      MPAC
001654: 00,2207           60000        TSLCTEST           DOUBLE                                         #  SEE IF (ANOTHER) SHIFT IS REQUIRED.
001655: 00,2210           54000                           OVSK
001656: 00,2211           12201                           TCF      TSLCLOOP                              #  YES - INCREMENT COUNT AND SHIFT AGAIN.
001657:
001658: 00,2212           40135        ENDTSLC            CS       MPTEMP
001659: 00,2213           16572                           TCF      STORE1                                #  STORE SHIFT COUNT AND RETURN TO DANZIG.
001660:


001662:                                                                                                  #  THE FOLLOWING ROUTINES PROCESSES THE GENERAL SHIFT INSTRUCTIONS SR, SRR, SL, AND SLR.
001663:                                                                                                  #  THE GIVEN ADDRESS IS DECODED AS FOLLOWS:
001664:                                                                                                  #        BITS 1-7        SHIFT COUNT (SUBADDRESS) LESS THAN 125 DECIMAL.
001665:                                                                                                  #        BIT 8           PSEUDO SIGN BIT (DETECTS CHANGE IN SIGN IN INDEXED SHIFTS).
001666:                                                                                                  #        BIT 9           0 FOR LEFT SHIFT, AND 1 FOR RIGHT SHIFT.
001667:                                                                                                  #        BIT 10          1 FOR TERMINAL ROUND ON SCALAR SHIFTS, 0 OTHERWISE.
001668:                                                                                                  #        BITS 11-13      0.
001669:                                                                                                  #        BIT 14          1.
001670:                                                                                                  #        BIT 15          0.
001671:                                                                                                  #  THE ABOVE ENCODING IS DONE BY THE YUL SYSTEM.
001672:
001673: 00,2214           70116        GENSHIFT           MASK     ADDRWD                                #  GET SHIFT COUNT, TESTING FOR ZERO.
001674: 00,2215           10000                           CCS      A                                     #  (ARRIVES WITH C(A) = LOW7).
001675: 00,2216           12224                           TCF      GENSHFT2                              #  IF NON-ZERO, PROCEED WITH DECREMENTED CT
001676:
001677: 00,2217           34701                           CAF      BIT10                                 #  ZERO SHIFT COUNT.  NO SHIFTS NEEDED BUT
001678: 00,2220           70116                           MASK     ADDRWD                                #  WE MIGHT HAVE TO ROUND MPAC ON SLR AND
001679: 00,2221           10000                           CCS      A                                     #  SRR (SCALAR ONLY).
001680: 00,2222           07105                           TC       ROUNDSUB
001681: 00,2223           16030                           TCF      DANZIG
001682:
001683: 00,2224           54135        GENSHFT2           TS       MPTEMP                                #  DECREMENTED SHIFT COUNT TO MPTEMP.
001684: 00,2225           34703                           CAF      BIT8                                  #  TEST MEANING OF LOW SEVEN BIT COUNT IN
001685: 00,2226           00006                           EXTEND                                         #  MPTEMP NOW.
001686: 00,2227           70116                           MP       ADDRWD
001687: 00,2230           76214                           MASK     LOW2                                  #  JUMPS ON SHIFT DIRECTION (BIT8) AND
001688: 00,2231           50000                           INDEX    A
001689: 00,2232           12233                           TCF      +1                                    #  ORIGINAL SHIFT DIRECTION (BIT 9).
001690: 00,2233           12332                           TCF      RIGHT-                                #  NEGATIVE SHIFT COUNT FOR SL OR SLR.
001691: 00,2234           12342                           TCF      LEFT                                  #  SL OR SLR.
001692: 00,2235           12336                           TCF      LEFT-                                 #  NEGATIVE SHIFT COUNT WITH SR OR SRR.
001693:


001695:                                                                                                  #  GENERAL SHIFT RIGHT.
001696:
001697: 00,2236           10163        RIGHT              CCS      MODE                                  #  SEE IF VECTOR OR SCALAR.
001698: 00,2237           12277                           TCF      GENSCR
001699: 00,2240           12277                           TCF      GENSCR
001700:
001701: 00,2241           30135                           CA       MPTEMP                                #  SEE IF SHIFT COUNT LESS THAN 14D.
001702: 00,2242           63730        VRIGHT2            AD       NEG12
001703: 00,2243           00006                           EXTEND
001704: 00,2244           62127                           BZMF     VSSR                                  #  IF SO, BRANCH AND SHIFT IMMEDIATELY.
001705:
001706: 00,2245           67716                           AD       NEGONE                                #  IF NOT, REDUCE MPTEMP BY A TOTAL OF 14.
001707: 00,2246           54135                           TS       MPTEMP                                #  AND DO A SHIFT RIGHT AND ROUND BY 14.
001708: 00,2247           34714                           CAF      ZERO                                  #  THE ROUND AT THIS STAGE MAY INTRODUCE A
001709: 00,2250           54001                           TS       L                                     #  ONE BIT ERROR IN A SHIFT RIGHT 15D.
001710: 00,2251           56154                           XCH      MPAC
001711: 00,2252           56155                           XCH      MPAC       +1
001712: 00,2253           02272                           TC       SETROUND                              #  X COMPONENT NOW SHIFTED, SO MAKE UP THE
001713: 00,2254           20155                           DAS      MPAC                                  #  ROUNDING QUANTITY (0 IN A AND 0 OR +-1
001714:                                                                                                  #  IN L).
001715: 00,2255           56157                           XCH      MPAC       +3                         #  REPEAT THE ABOVE PROCESS FOR Y AND Z.
001716: 00,2256           56160                           XCH      MPAC       +4
001717: 00,2257           02272                           TC       SETROUND
001718: 00,2260           20160                           DAS      MPAC       +3                         #  NO OVERFLOW ON THESE ADDS.
001719:
001720: 00,2261           56161                           XCH      MPAC       +5
001721: 00,2262           56162                           XCH      MPAC       +6
001722: 00,2263           02272                           TC       SETROUND
001723: 00,2264           20162                           DAS      MPAC       +5
001724:
001725: 00,2265           10135                           CCS      MPTEMP                                #  SEE IF DONE, DOING FINAL DECREMENT.
001726: 00,2266           54135                           TS       MPTEMP
001727: 00,2267           12242                           TCF      VRIGHT2
001728: 00,2270           04604        BIASLO             DEC      .2974      B-1                        #  SQRT CONSTANT
001729:
001730: 00,2271           16030                           TCF      DANZIG
001731:
001732: 00,2272           60000        SETROUND           DOUBLE                                         #  MAKES UP ROUNDING QUANTITY FROM ARRIVING
001733: 00,2273           54156                           TS       MPAC       +2                         #  C(A).  L IS ZERO INITIALLY.
001734: 00,2274           34714                           CAF      ZERO
001735: 00,2275           56001                           XCH      L
001736: 00,2276           00002                           TC       Q                                     #  RETURN AND DO THE DAS, RESETTING L TO 0.
001737:


001739:                                                                                                  #  PROCESS SR AND SRR FOR SCALARS.
001740:
001741: 00,2277           30135        GENSCR             CA       MPTEMP                                #  SEE IF THE ORIGINAL SHIFT COUNT WAS LESS
001742: 00,2300           63730                 +1        AD       NEG12                                 #  THAN 14D.
001743: 00,2301           00006                           EXTEND
001744: 00,2302           62322                           BZMF     DOSSHFT                               #  DO THE SHIFT IMMEDIATELY IF SO.
001745:
001746: 00,2303           67716                 +4        AD       NEGONE                                #  IF NOT, DECREMENT SHIFT COUNT BY 14D AND
001747: 00,2304           54135                           TS       MPTEMP                                #  SHIFT MPAC RIGHT 14 PLACES.
001748: 00,2305           34714                           CAF      ZERO
001749: 00,2306           56154                           XCH      MPAC
001750: 00,2307           56155                           XCH      MPAC       +1
001751: 00,2310           54156                           TS       MPAC       +2
001752: 00,2311           10135                           CCS      MPTEMP                                #  SEE IF FINISHED, DO FINAL DECREMENT.
001753: 00,2312           54135                           TS       MPTEMP
001754: 00,2313           02300                           TC       GENSCR     +1
001755: 00,2314           22650        SLOPEHI            DEC      .5884                                 #  SQRT CONSTANT.
001756: 00,2315           34701                           CAF      BIT10                                 #  FINISHED WITH SHIFT.  SEE IF ROUND
001757: 00,2316           70116                           MASK     ADDRWD                                #  WANTED.
001758: 00,2317           10000                           CCS      A
001759: 00,2320           07105                           TC       ROUNDSUB
001760: 00,2321           16030                           TCF      DANZIG                                #  DO SO AND/OR EXIT.
001761:
001762: 00,2322           50135        DOSSHFT            INDEX    MPTEMP                                #  PICK UP SHIFTING BIT.
001763: 00,2323           34675                           CAF      BIT14
001764: 00,2324           54135                           TS       MPTEMP
001765: 00,2325           34701                           CAF      BIT10                                 #  SEE IF TERMINAL ROUND DESIRED.
001766: 00,2326           70116                           MASK     ADDRWD
001767: 00,2327           10000                           CCS      A
001768: 00,2330           12031                           TCF      RIGHTR                                #  YES.
001769: 00,2331           12033                           TCF      MPACSHR                               #  JUST SHIFT RIGHT.
001770:


001772:                                                                                                  #  PROCESS THE RIGHT- (SL(R) WITH A NEGATIVE COUNT), LEFT-, AND LEFT OPTIONS.
001773:
001774: 00,2332           40135        RIGHT-             CS       MPTEMP                                #  GET ABSOLUTE VALUE - 1 OF SHIFT COUNT
001775: 00,2333           62126                           AD       OCT176                                #  UNDERSTANDING THAT BIT8 (PSEUDO-SIGN)
001776: 00,2334           54135                           TS       MPTEMP                                #  WAS 1 INITIALLY.
001777: 00,2335           12236                           TCF      RIGHT                                 #  DO NORMAL SHIFT RIGHT.
001778:
001779: 00,2336           42126        LEFT-              CS       OCT176                                #  SAME PROLOGUE TO LEFT FOR INDEXED RIGHT
001780: 00,2337           60135                           AD       MPTEMP                                #  SHIFTS WHOSE NET SHIFT COUNT IS NEGATIVE
001781: 00,2340           40000                           COM
001782: 00,2341           54135                           TS       MPTEMP
001783:
001784: 00,2342           10163        LEFT               CCS      MODE                                  #  SINCE LEFT SHIFTING IS SONE ONE PLACE AT
001785: 00,2343           12346                           TCF      GENSCL                                #  A TIME, NO COMPARISON WITH 14 NEED BE
001786: 00,2344           12346                           TCF      GENSCL                                #  DONE.  FOR SCALARS, SEE IF TERMINAL ROUND
001787: 00,2345           12145                           TCF      VSSL                                  #  DESIRED.  FOR VECTORS, SHIFT IMMEDIATELY.
001788:
001789: 00,2346           40116        GENSCL             CS       ADDRWD                                #  PUT ROUNDING BIT (BIT 10 OF ADDRWD) INTO
001790: 00,2347           00006                           EXTEND                                         #  BIT 15 OF CYR WHERE THE ROUNDING BIT OF
001791: 00,2350           74705                           MP       BIT6                                  #  A SHORT SHIFT LEFT WOULD BE
001792: 00,2351           54020                           TS       CYR
001793: 00,2352           12103                           TCF      TSSL       +2                         #  DO THE SHIFT.
001794:


001796:                                                                                                  #  SCALAR DIVISION INSTRUCTIONS, DDV AND BDDV, ARE EXECUTED HERE.  AT THIS POINT, THE DIVIDEND IS IN MPAC
001797:                                                                                                  #  AND THE DIVISOR IN BUF.
001798:
001799: 00,2353           44712        DDV/BDDV           CS       ONE                                   #  INITIALIZATION.
001800: 00,2354           54136                           TS       DVSIGN                                #  +-1 FOR POSITIVE QUOTIENT - -0 FOR NEG.
001801: 00,2355           54137                           TS       DVNORMCT                              #  DIVIDEND NORMALIZATION COUNT.
001802: 00,2356           54140                           TS       MAXDVSW                               #  NEAR-ONE DIVIDE FLAG.
001803:
001804: 00,2357           10130                           CCS      BUF                                   #  FORCE BUF POSITIVE WITH THE MAJOR PART
001805: 00,2360           12516                           TCF      BUFPOS                                #  NON-ZERO.
001806: 00,2361           12363                           TCF      +2
001807: 00,2362           12531                           TCF      BUFNEG
001808:
001809: 00,2363           54156        BUFZERO            TS       MPAC       +2                         #  ZERO THIS.
001810: 00,2364           07226                           TC       TPAGREE                               #  FORCE SIGN AGREEMENT BEFORE OVERFLOW
001811:
001812: 00,2365           10154                           CCS      MPAC                                  #  TEST TO SEE IF MPAC NON-ZERO.  (TOO BIG)
001813: 00,2366           12414                           TCF      OVF+                                  #  MAJOR PART OF DIVIDEND IS POSITIVE NON-0
001814: 00,2367           12371                           TCF      +2
001815: 00,2370           12413                           TCF      OVF+       -1                         #  MAJOR PART OF DIVIDEND IS NEG. NON-ZERO
001816:
001817: 00,2371           56131                           XCH      BUF        +1                         #  SHIFT DIVIDEND AND DIVISOR LEFT 14.
001818: 00,2372           56130                           XCH      BUF
001819: 00,2373           56155                           XCH      MPAC       +1
001820: 00,2374           56154                           XCH      MPAC
001821: 00,2375           10130                           CCS      BUF                                   #  TRY AGAIN ON FORMER MINOR PART.
001822: 00,2376           12422                           TCF      BUF+
001823: 00,2377           12401                           TCF      +2                                    #  OVERFLOW ON ZERO DIVISOR.
001824: 00,2400           12416                           TCF      BUF-
001825:
001826: 00,2401           40154                           CS       MPAC                                  #  SIGN OF MPAC DETERMINES SIGN OF RESULT.
001827: 00,2402           00006        SGNDVOVF           EXTEND
001828: 00,2403           62405                           BZMF     +2
001829: 00,2404           24136                           INCR     DVSIGN                                #  NEGMAX IN MPAC PERHAPS.
001830: 00,2405           34672        DVOVF              CAF      POSMAX                                #  ON DIVISION OVERFLOW OF ANY SORT, SET
001831: 00,2406           54154                           TS       MPAC                                  #  SET DP MPAC TO +-POSMAX.
001832: 00,2407           02630                           TC       FINALDV    +3
001833: 00,2410           34712                           CAF      ONE                                   #  SET OVERFLOW INDICATOR AND EXIT.
001834: 00,2411           54121                           TS       OVFIND
001835: 00,2412           06030                           TC       DANZIG
001836:
001837: 00,2413           24136                 -1        INCR     DVSIGN
001838: 00,2414           40131        OVF+               CS       BUF        +1                         #  LOAD LOWER ORDER PART OF DIVISOR.
001839: 00,2415           12402                           TCF      SGNDVOVF                              #  GET SIGN OF RESULT.
001840:
001841: 00,2416           00006        BUF-               EXTEND                                         #  IF BUF IS NEGATIVE, COMPLEMENT IT AND
001842: 00,2417           40131                           DCS      BUF                                   #  MAINTAIN DVSIGN FOR FINAL QUOTIENT SIGN.
001843: 00,2420           52131                           DXCH     BUF
001844: 00,2421           24136                           INCR     DVSIGN                                #  NOW -0.
001845:


001847: 00,2422           10154        BUF+               CCS      MPAC                                  #  FORCE MPAC POSITIVE, CHECKING FOR ZERO
001848: 00,2423           12437                           TCF      MPAC+                                 #  DIVIDEND IN THE PROCESS.
001849: 00,2424           12426                           TCF      +2
001850: 00,2425           12433                           TCF      MPAC-
001851: 00,2426           10155                           CCS      MPAC       +1
001852: 00,2427           12437                           TCF      MPAC+
001853: 00,2430           16030                           TCF      DANZIG                                #  EXIT IMMEDIATELY ON ZERO DIVIDEND.
001854: 00,2431           12433                           TCF      MPAC-
001855: 00,2432           16030                           TCF      DANZIG
001856:
001857: 00,2433           00006        MPAC-              EXTEND                                         #  FORCE MPAC POSITIVE AS BUF IN BUF-.
001858: 00,2434           40155                           DCS      MPAC
001859: 00,2435           52155                           DXCH     MPAC
001860: 00,2436           24136                           INCR     DVSIGN                                #  NOW +1 OR -0.
001861:


001863: 00,2437           40154        MPAC+              CS       MPAC                                  #  CHECK FOR DIVISION OVERFLOW.  IF THE
001864: 00,2440           67716                           AD       NEGONE                                #  MAJOR PART OF THE DIVIDEND IS LESS THAN
001865: 00,2441           60130                           AD       BUF                                   #  THE MAJOR PART OF THE DIVISOR BY AT
001866: 00,2442           10000                           CCS      A                                     #  LEAST TWO, WE CAN PROCEED IMMEDIATELY
001867: 00,2443           12505                           TCF      DVNORM                                #  WITHOUT NORMALIZATION PRODUCING A DVMAX.
001868: 00,2444           60001        -1/2+2             OCT      60001                                 #  USED IN SQRTSUB.
001869:
001870: 00,2445           12446                           TCF      +1                                    #  IF THE ABOVE DOES NOT HOLD, FORCE SIGN
001871: 00,2446           34675                           CAF      HALF                                  #  AGREEMENT IN NUMERATOR AND DENOMINATOR
001872: 00,2447           60000                           DOUBLE                                         #  TO FACILITATE OVERFLOW AND NEAR-ONE
001873: 00,2450           60155                           AD       MPAC       +1                         #  CHECKING.
001874: 00,2451           54155                           TS       MPAC       +1
001875: 00,2452           34714                           CAF      ZERO
001876: 00,2453           64672                           AD       POSMAX
001877: 00,2454           26154                           ADS      MPAC
001878:
001879: 00,2455           34675                           CAF      HALF                                  #  SAME FOR BUF.
001880: 00,2456           60000                           DOUBLE
001881: 00,2457           60131                           AD       BUF        +1
001882: 00,2460           54131                           TS       BUF        +1
001883: 00,2461           34714                           CAF      ZERO
001884: 00,2462           64672                           AD       POSMAX
001885: 00,2463           26130                           ADS      BUF
001886:
001887: 00,2464           40154                           CS       MPAC                                  #  CHECK MAGNITUDE OF SIGN-CORRECTED
001888: 00,2465           60130                           AD       BUF                                   #  OPERANDS.
001889: 00,2466           10000                           CCS      A
001890: 00,2467           12505                           TCF      DVNORM                                #  DIVIDE OK - WILL NOT BECOME MAXOV CASE.
001891: 00,2470           00133        LBUF2              ADRES    BUF2
001892: 00,2471           12405                           TCF      DVOVF                                 #  DIVISOR NOT LESS THAN DIVIDEND - OVF.
001893:
001894: 00,2472           54140                           TS       MAXDVSW                               #  IF THE MAJOR PARTS OF THE DIVIDEND AND
001895: 00,2473           40155                           CS       MPAC       +1                         #  DIVISOR ARE EQUAL, A SPECIAL APPROXIMA-
001896: 00,2474           60131                           AD       BUF        +1                         #  TION IS USED (PROVIDED THE DIVISION IS
001897: 00,2475           00006                           EXTEND                                         #  POSSIBLE, OF COURSE).
001898: 00,2476           62405                           BZMF     DVOVF
001899: 00,2477           12505                           TCF      DVNORM                                #  IF NO OVERFLOW.
001900:


001902: 00,2500           00006        BUFNORM            EXTEND                                         #  ADD -1 TO AUGMENT SHIFT COUNT AND SHIFT
001903: 00,2501           24137                           AUG      DVNORMCT                              #  LEFT ONE PLACE.
001904: 00,2502           00006                           EXTEND
001905: 00,2503           30131                           DCA      BUF
001906: 00,2504           20131                           DAS      BUF
001907:
001908: 00,2505           30130        DVNORM             CA       BUF                                   #  SEE IF DIVISOR NORMALIZED YET.
001909: 00,2506           60000                           DOUBLE
001910: 00,2507           54000                           OVSK
001911: 00,2510           12500                           TCF      BUFNORM                               #  NO - SHIFT LEFT ONE AND TRY AGAIN.
001912:
001913: 00,2511           52155                           DXCH     MPAC                                  #  CALL DIVIDEND NORMALIZATION SEQUENCE
001914: 00,2512           50137                           INDEX    DVNORMCT                              #  PRIOR TO DOING THE DIVIDE.
001915: 00,2513           02565                           TC       MAXTEST
001916:
001917: 00,2514           54156                           TS       MPAC       +2                         #  RETURNS WITH DIVISION DONE AND C(A) = 0.
001918: 00,2515           16030                           TCF      DANZIG
001919:
001920: 00,2516           10000        BUFPOS             CCS      A
001921: 00,2517           12422                           TCF      BUF+                                  #  TO BUF+ IF BUF IS GREATER THAN +1.
001922:
001923: 00,2520           40131                           CS       BUF        +1                         #  IF BUF IS +1, FORCING SIGN AGREEMENT
001924: 00,2521           00006                           EXTEND                                         #  MAY CAUSE BUF TO BECOME ZERO.
001925: 00,2522           62422                           BZMF     BUF+                                  #  BRANCH IF SIGNS AGREE.
001926:
001927: 00,2523           34675                           CA       HALF                                  #  SIGNS DISAGREE.  FORCE AGREEMENT.
001928: 00,2524           60000                 +6        DOUBLE
001929: 00,2525           26131                           ADS      BUF        +1
001930: 00,2526           34714                           CA       ZERO
001931: 00,2527           54130                           TS       BUF
001932: 00,2530           12363                           TCF      BUFZERO
001933:
001934: 00,2531           10000        BUFNEG             CCS      A
001935: 00,2532           12416                           TCF      BUF-                                  #  TO BUF- IF BUF IS LESS THAN -1.
001936:
001937: 00,2533           30131                           CA       BUF        +1                         #  IF BUF IS -1, FORCING SIGN AGREEMENT
001938: 00,2534           00006                           EXTEND                                         #  MAY CAUSE BUF TO BECOME ZERO.
001939: 00,2535           62416                           BZMF     BUF-                                  #  BRANCH IF SIGNS AGREE.
001940:
001941: 00,2536           44675                           CS       HALF                                  #  SIGNS DISAGREE.  FORCE AGREEMENT.
001942: 00,2537           12524                           TCF      BUFPOS     +6
001943:


001945:                                                                                                  #  THE FOLLOWING ARE PROLOGUES TO SHIFT THE DIVIDEND ARRIVING IN A AND L BEFORE THE DIVIDE.
001946:
001947: 00,2540           22021                 -21D      LXCH     SR                                    #  SPECIAL PROLOGUE FOR UNIT WHEN THE
001948: 00,2541           00006                           EXTEND                                         #  LENGTH OF THE ARGUMENT WAS NOT LESS THAN
001949: 00,2542           74675                           MP       HALF                                  #  .5.  IN THIS CASE, EACH COMPONENT MUST BE
001950: 00,2543           56001                           XCH      L                                     #  SHIFTED RIGHT ONE TO PRODUCE A HALF-UNIT
001951: 00,2544           60021                           AD       SR                                    #  VECTOR.
001952: 00,2545           56001                           XCH      L
001953: 00,2546           12571                           TCF      GENDDV     +1                         #  WITH DP DIVIDEND IN A,L.
001954:
001955: 00,2547           20001                           DDOUBL                                         #  PROLOGUE WHICH NORMALIZES THE DIVIDEND
001956: 00,2550           20001                           DDOUBL                                         #  WHEN IT IS KNOWN THAT NO DIVISION
001957: 00,2551           20001                           DDOUBL                                         #  OVERFLOW WILL OCCUR.
001958: 00,2552           20001                           DDOUBL
001959: 00,2553           20001                           DDOUBL
001960: 00,2554           20001                           DDOUBL
001961: 00,2555           20001                           DDOUBL
001962: 00,2556           20001                           DDOUBL
001963: 00,2557           20001                           DDOUBL
001964: 00,2560           20001                           DDOUBL
001965: 00,2561           20001                           DDOUBL
001966: 00,2562           20001                           DDOUBL
001967: 00,2563           20001                           DDOUBL
001968: 00,2564           52155                           DXCH     MPAC
001969:
001970: 00,2565           10140        MAXTEST            CCS      MAXDVSW                               #  0 IF MAJORS MIGHT BE =, -1 OTHERWISE.
001971: 00,2566           06552        BIASHI             DEC      .4192      B-1                        #  SQRT CONSTANTS
001972:
001973: 00,2567           12642                           TCF      MAXDV                                 #  CHECK TO SEE IF THEY ARE NOW EQUAL.
001974:


001976:                                                                                                  #  THE FOLLOWING IS A GENERAL PURPOSE DOUBLE PRECISION DIVISION ROUTINE.  IT DIVIDES MPAC BY BUF AND LEAVES
001977:                                                                                                  #  THE RESULT IN MPAC.  THE FOLLOWING CONDITIONS MUST BE SATISFIED:
001978:
001979:                                                                                                  #        1.      THE DIVISOR (BUF) MUST BE POSITIVE AND NOT LESS THAN .5.
001980:
001981:                                                                                                  #        2.      THE DIVIDEND (MPAC) MUST BE POSITIVE WITH THE MAJOR PART OF MPAC STRICTLY LESS THAN THAT OF BUF
001982:                                                                                                  #                (A SPECIAL APPROXIMATION, MAXDV, IS USED WHEN THE MAJOR PARTS ARE EQUAL).
001983:
001984:                                                                                                  #  UNDERSTANDING THAT A/B = Q + S(R/B) WHERE S = 2(-14) AND Q AND R ARE QUOTIENT AND REMAINDER, RESPEC-
001985:                                                                                                  #  TIVELY, THE FOLLOWING APPROXIMATION IS OBTAINED BY MULTIPLYING ABOVE AND BELOW BY C - SD AND NEGLECTING TERMS OF
001986:                                                                                                  #  ORDER S-SQUARED (POSSIBLY INTRODUCING ERROR INTO THE LOW TWO BITS OF THE RESULT).  SIGN AGREEMENT IS UNNECESSARY.
001987:
001988:                                                                                                  #        A + SB .      (R - QD)                                             A + SB
001989:                                                                                                  #        ------ = Q + S(------) WHERE Q AND R ARE QUOTIENT AND REMAINDER OF ------ RESPECTIVELY.
001990:                                                                                                  #        C + SD        (  C   )                                                C
001991:
001992: 00,2570           52155        GENDDV             DXCH     MPAC                                  #  WE NEED A AND B ONLY FOR FIRST DV.
001993: 00,2571           00006                 +1        EXTEND                                         #  (SPECIAL UNIT PROLOGUE ENTERS HERE).
001994: 00,2572           10130                           DV       BUF                                   #  A NOW CONTAINS Q AND L, R.
001995: 00,2573           52155                           DXCH     MPAC
001996:
001997: 00,2574           40154                           CS       MPAC                                  #  FORM DIVIDEND FOR MINOR PART OF RESULT.
001998: 00,2575           00006                           EXTEND
001999: 00,2576           70131                           MP       BUF        +1
002000: 00,2577           60155                           AD       MPAC       +1                         #  OVERFLOW AT THIS POINT IS POSITIVE SINCE
002001: 00,2600           54000                           OVSK                                           #  R IS POSITIVE IN EVERY CASE.
002002: 00,2601           12606                           TCF      +5
002003:
002004: 00,2602           00006                           EXTEND                                         #  OVERFLOW CAN BE REMOVED BY SUBTRACTING C
002005: 00,2603           60130                           SU       BUF                                   #  (BUF) ONCE SINCE R IS ALWAYS LESS THAN C
002006: 00,2604           24154                           INCR     MPAC                                  #  IN THIS CASE.  INCR COMPENSATES SUBTRACT.
002007: 00,2605           12610                           TCF      +DOWN                                 #  (SINCE C(A) IS STILL POSITIVE).
002008:
002009: 00,2606           00006                 +5        EXTEND                                         #  C(A) CAN BE MADE LESS THAN C IN MAGNI-
002010: 00,2607           62620                           BZMF     -UP                                   #  TUDE BY DIMINISHING IT BY C (SINCE C IS
002011:                                                                                                  #  NOT LESS THAN .5) UNLESS C(A) = 0.
002012:


002014: 00,2610           00006        +DOWN              EXTEND
002015: 00,2611           60130                           SU       BUF                                   #  IF POSITIVE, REDUCE ONLY IF NECESSARY
002016: 00,2612           00006                           EXTEND                                         #  SINCE THE COMPENSATING INCR MIGHT CAUSE
002017: 00,2613           12616                           BZF      +3                                    #  OVERFLOW.
002018: 00,2614           00006                           EXTEND                                         #  DONT SUBTRACT UNLESS RESULT IS POSITIVE
002019: 00,2615           62624                           BZMF     ENDMAXDV                              #  OR ZERO.
002020:
002021: 00,2616           24154                 +3        INCR     MPAC                                  #  KEEP SUBTRACT HERE AND COMPENSATE.
002022: 00,2617           12625                           TCF      FINALDV
002023:
002024: 00,2620           00006        -UP                EXTEND                                         #  IF ZERO, SET MINOR PART OF RESULT TO
002025: 00,2621           12630                           BZF      FINALDV    +3                         #  ZERO.
002026:
002027: 00,2622           00006                           EXTEND                                         #  IF NEGATIVE, ADD C TO A, SUBTRACTING ONE
002028: 00,2623           26154                           DIM      MPAC                                  #  TO COMPENSATE.  DIM IS OK HERE SINCE THE
002029: 00,2624           60130        ENDMAXDV           AD       BUF                                   #  MAJOR PART NEVER GOES NEGATIVE.
002030:


002032: 00,2625           22007        FINALDV            ZL                                             #  DO DV TO OBTAIN MINOR PART OF RESULT.
002033: 00,2626           00006                           EXTEND
002034: 00,2627           10130                           DV       BUF
002035: 00,2630           54155                 +3        TS       MPAC       +1
002036:
002037: 00,2631           10136                           CCS      DVSIGN                                #  LEAVE RESULT POSITIVE UNLESS C(DVSIGN)=
002038: 00,2632           00002                           TC       Q                                     #  -0.
002039: 00,2633           00002                           TC       Q
002040: 00,2634           00002                           TC       Q
002041:
002042: 00,2635           00006                           EXTEND
002043: 00,2636           40155                           DCS      MPAC
002044: 00,2637           52155                           DXCH     MPAC
002045: 00,2640           34714                           CAF      ZERO                                  #  SO WE ALWAYS RETURN WITH C(A) = 0.
002046: 00,2641           00002                           TC       Q
002047:


002049:                                                                                                  #  IF THE MAJOR PARTS OF THE DIVISOR AND DIVIDEND ARE EQUAL, BUT THE MINOR PARTS ARE SUCH THAT THE
002050:                                                                                                  #  DIVIDEND IS STRICTLY LESS THAN THE DIVISOR IN MAGNITUDE, THE FOLLOWING APPROXIMATION IS USED.  THE ASSUMPTIONS
002051:                                                                                                  #  ARE THE SAME AS THE GENERAL ROUTINE WITH THE ADDITION THAT SIGN AGREEMENT IS NECESSARY (B, C, & D POSITIVE).
002052:
002053:                                                                                                  #        C + SB .          (C + B - D)
002054:                                                                                                  #        ------ = 37777 + S(---------)
002055:                                                                                                  #        C + SD            (    C    )
002056:
002057:                                                                                                  #  THE DIVISION MAY BE PERFORMED IMMEDIATELY SINCE B IS STRICTLY LESS THAN D AND C IS NOT LESS THAN .5.
002058:
002059: 00,2642           40154        MAXDV              CS       MPAC                                  #  SEE IF MAXDV CASE STILL HOLDS AFTER
002060: 00,2643           60130                           AD       BUF                                   #  NORMALIZATION.
002061: 00,2644           00006                           EXTEND
002062: 00,2645           12647                           BZF      +2
002063: 00,2646           12570                           TCF      GENDDV                                #  MPAC NOW LESS THAN BUF - DIVIDE AS USUAL
002064:
002065: 00,2647           34672                 +2        CAF      POSMAX                                #  SET MAJOR PART OF RESULT.
002066: 00,2650           54154                           TS       MPAC
002067:
002068: 00,2651           40131                           CS       BUF        +1                         #  FORM DIVIDEND OF MINOR PART OF RESULT.
002069: 00,2652           60155                           AD       MPAC       +1
002070: 00,2653           12624                           TCF      ENDMAXDV                              #  GO ADD C AND DO DIVIDE, ATTACHING SIGN
002071:                                                                                                  #  BEFORE EXITING.
002072:


002074:                                                                                                  #  VECTOR DIVIDED BY SCALAR, V/SC, IS EXECUTED HERE.  THE VECTOR IS NOW IN MPAC WITH SCALAR IN BUF.
002075:
002076: 00,2654           44712        V/SC2              CS       ONE                                   #  INITIALIZE DIVIDEND NORMALIZATION COUNT
002077: 00,2655           54137                           TS       DVNORMCT                              #  AND DIVISION SIGN REGISTER.
002078: 00,2656           54127                           TS       VBUF       +5
002079:
002080: 00,2657           03010                           TC       VECAGREE                              #  FORCE SIGN AGREEMENT IN VECTOR
002081:
002082: 00,2660           52131                           DXCH     BUF
002083: 00,2661           07513                           TC       ALSIGNAG                              #  SIGN AGREE BUF
002084: 00,2662           52131                           DXCH     BUF
002085: 00,2663           10130                           CCS      BUF                                   #  FORCE DIVISOR POSITIVE WITH MAJOR PART
002086: 00,2664           12721                           TCF      /BUF+                                 #  NON-ZERO (IF POSSIBLE).
002087: 00,2665           12667                           TCF      +2
002088: 00,2666           12715                           TCF      /BUF-
002089:
002090: 00,2667           56131                           XCH      BUF        +1                         #  SHIFT VECTOR AND SCALAR LEFT 14.
002091: 00,2670           56130                           XCH      BUF
002092: 00,2671           56155                           XCH      MPAC       +1
002093: 00,2672           56154                           XCH      MPAC
002094: 00,2673           00006                           EXTEND                                         #  CHECK FOR OVERFLOW IN EACH CASE.
002095: 00,2674           12676                           BZF      +2
002096: 00,2675           12405                           TCF      DVOVF
002097:
002098: 00,2676           56160                           XCH      MPAC       +4
002099: 00,2677           56157                           XCH      MPAC       +3
002100: 00,2700           00006                           EXTEND
002101: 00,2701           12703                           BZF      +2
002102: 00,2702           12405                           TCF      DVOVF
002103:
002104: 00,2703           56162                           XCH      MPAC       +6
002105: 00,2704           56161                           XCH      MPAC       +5
002106: 00,2705           00006                           EXTEND
002107: 00,2706           12710                           BZF      +2
002108: 00,2707           12405                           TCF      DVOVF
002109:
002110: 00,2710           10130                           CCS      BUF
002111: 00,2711           12721                           TCF      /BUF+
002112: 00,2712           12405                           TCF      DVOVF                                 #  ZERO DIVISOR - OVERFLOW.
002113: 00,2713           12715                           TCF      /BUF-
002114: 00,2714           12405                           TCF      DVOVF
002115:
002116: 00,2715           00006        /BUF-              EXTEND                                         #  ON NEGATIVE, COMPLEMENT BUF AND MAINTAIN
002117: 00,2716           40131                           DCS      BUF                                   #  DVSIGN IN VBUF +5.
002118: 00,2717           52131                           DXCH     BUF
002119: 00,2720           24127                           INCR     VBUF       +5
002120:


002122: 00,2721           00006        /BUF+              EXTEND
002123: 00,2722           30131                           DCA      BUF                                   #  LEAVE ABS(ORIG DIVISOR) IN BUF2
002124: 00,2723           52134                           DXCH     BUF2                                  #  FOR OVERFLOW TESTING
002125: 00,2724           12732                           TCF      /NORM                                 #  NORMALIZE DIVISOR IN BUF.
002126:
002127: 00,2725           00006        /NORM2             EXTEND                                         #  IF LESS THAN .5, AUGMENT DVNORMCT AND
002128: 00,2726           24137                           AUG      DVNORMCT                              #  DOUBLE DIVISOR.
002129: 00,2727           00006                           EXTEND
002130: 00,2730           30131                           DCA      BUF
002131: 00,2731           20131                           DAS      BUF
002132:
002133: 00,2732           30130        /NORM              CA       BUF                                   #  SEE IF DIVISOR NORMALIZED.
002134: 00,2733           60000                           DOUBLE
002135: 00,2734           54000                           OVSK
002136: 00,2735           12725                           TCF      /NORM2                                #  DOUBLE AND TRY AGAIN IF NOT.
002137:
002138: 00,2736           02750                           TC       V/SCDV                                #  DO X COMPONENT DIVIDE.
002139: 00,2737           52160                           DXCH     MPAC       +3                         #  SUPPLY ARGUMENTS IN USUAL SEQUENCE.
002140: 00,2740           52155                           DXCH     MPAC
002141: 00,2741           52160                           DXCH     MPAC       +3
002142:
002143: 00,2742           02750                           TC       V/SCDV                                #  Y COMPONENT.
002144: 00,2743           52162                           DXCH     MPAC       +5
002145: 00,2744           52155                           DXCH     MPAC
002146: 00,2745           52162                           DXCH     MPAC       +5
002147:
002148: 00,2746           02750                           TC       V/SCDV                                #  Z COMPONENT.
002149: 00,2747           17367                           TCF      VROTATEX                              #  GO RE-ARRANGE COMPONENTS BEFORE EXIT.
002150:


002152:                                                                                                  #  SUBROUTINE USED BY V/SC TO DIVIDE VECTOR COMPONENT IN MPAC,+1 BY THE SCALAR GIVEN IN BUF.
002153:
002154: 00,2750           30127        V/SCDV             CA       VBUF       +5                         #  REFLECTS SIGN OF SCALAR.
002155: 00,2751           54136                           TS       DVSIGN
002156:
002157: 00,2752           10154                           CCS      MPAC                                  #  FORCE MPAC POSITIVE, EXITING ON ZERO.
002158: 00,2753           12767                           TCF      /MPAC+
002159: 00,2754           12756                           TCF      +2
002160: 00,2755           12763                           TCF      /MPAC-
002161:
002162: 00,2756           10155                           CCS      MPAC       +1
002163: 00,2757           12767                           TCF      /MPAC+
002164: 00,2760           00002                           TC       Q
002165: 00,2761           12763                           TCF      /MPAC-
002166: 00,2762           00002                           TC       Q
002167:
002168: 00,2763           00006        /MPAC-             EXTEND                                         #  USUAL COMPLEMENTING AND SETTING OF SIGN.
002169: 00,2764           40155                           DCS      MPAC
002170: 00,2765           52155                           DXCH     MPAC
002171: 00,2766           24136                           INCR     DVSIGN
002172:
002173: 00,2767           44712        /MPAC+             CS       ONE                                   #  INITIALIZE NEAR-ONE SWITCH.
002174: 00,2770           54140                           TS       MAXDVSW
002175:
002176: 00,2771           40154                           CS       MPAC                                  #  CHECK POSSIBLE OVERFLOW.
002177: 00,2772           60133                           AD       BUF2                                  #  UNNORMALIZED INPUT DIVISOR.
002178: 00,2773           10000                           CCS      A
002179: 00,2774           13004                           TCF      DDVCALL                               #  NOT NEAR-ONE
002180: 00,2775           12777                           TCF      +2                                    #  +0 IS JUST POSSIBLE
002181: 00,2776           12405                           TCF      DVOVF                                 #  NO HOPE
002182: 00,2777           54140                           TS       MAXDVSW                               #  SIGNAL POSSIBLE NEAR-ONE CASE
002183: 00,3000           40155                           CS       MPAC       +1                         #  SEE IF DIVISION CAN BE DONE
002184: 00,3001           60134                           AD       BUF2       +1
002185: 00,3002           00006                           EXTEND
002186: 00,3003           62405                           BZMF     DVOVF
002187:
002188: 00,3004           52155        DDVCALL            DXCH     MPAC                                  #  CALL PRE-DIVIDE NORMALIZATION.
002189: 00,3005           50137                           INDEX    DVNORMCT
002190: 00,3006           12565                           TCF      MAXTEST
002191:


002193: 00,3007           32506        SLOPELO            DEC      .8324
002194:
002195: 00,3010           56002        VECAGREE           XCH      Q                                     #  SAVE Q IN A
002196: 00,3011           52155                           DXCH     MPAC
002197: 00,3012           07513                           TC       ALSIGNAG                              #  SIGNAGREE MPAC
002198: 00,3013           52155                           DXCH     MPAC
002199: 00,3014           52160                           DXCH     MPAC       +3
002200: 00,3015           07513                           TC       ALSIGNAG                              #  SIGN AGREE MPAC +3
002201: 00,3016           52160                           DXCH     MPAC       +3
002202: 00,3017           52162                           DXCH     MPAC       +5
002203: 00,3020           07513                           TC       ALSIGNAG                              #  SIGNAGREE MPAC +5
002204: 00,3021           52162                           DXCH     MPAC       +5
002205: 00,3022           00000                           TC       A
002206:


002208:                                                                                                  #  THE FOLLOWING ROUTINE EXECUTES THE UNIT INSTRUCTION, WHICH TAKES THE UNIT OF THE VECTOR IN MPAC.
002209:
002210: 00,3023           03010        UNIT               TC       VECAGREE                              #  FORCE SIGN AGREEMENT IN VECTOR
002211: 00,3024           07501                           TC       MPACVBUF                              #  SAVE ARGUMENT IN VBUF
002212: 00,3025           34714                           CAF      ZERO                                  #  MUST SENSE OVERFLOW IN FOLLOWING DOT.
002213: 00,3026           56121                           XCH      OVFIND
002214: 00,3027           54141                           TS       TEM1
002215: 00,3030           03317                           TC       VSQSUB                                #  DOT MPAC WITH ITSELF.
002216: 00,3031           30141                           CA       TEM1
002217: 00,3032           56121                           XCH      OVFIND
002218: 00,3033           00006                           EXTEND
002219: 00,3034           13036                           BZF      +2
002220: 00,3035           12405                           TCF      DVOVF
002221: 00,3036           00006                           EXTEND
002222: 00,3037           30155                           DCA      MPAC                                  #  LEAVE THE SQUARE OF THE LENGTH OF THE
002223: 00,3040           50120                           INDEX    FIXLOC                                #  ARGUMENT IN LVSQUARE.
002224: 00,3041           52043                           DXCH     LVSQUARE
002225:
002226: 00,3042           03343                           TC       SQRTSUB                               #  GO TAKE THE NORMALIZED SQUARE ROOT.
002227:
002228: 00,3043           10154                           CCS      MPAC                                  #  CHECK FOR UNIT OVERFLOW.
002229: 00,3044           13051                           TCF      +5                                    #  MPAC IS NOT LESS THAN .5 UNLESS
002230: 00,3045           54001                           TS       L
002231: 00,3046           50120                           INDEX    FIXLOC
002232: 00,3047           52045                           DXCH     LV
002233: 00,3050           12405                           TCF      DVOVF                                 #  INPUT TO SQRTSUB WAS 0.
002234:
002235: 00,3051           44333                           CS       FOURTEEN                              #  SEE IF THE INPUT WAS SO SMALL THE THE
002236: 00,3052           60135                           AD       MPTEMP                                #  FIRST TWO REGISTERS OF THE SQUARE WERE 0
002237: 00,3053           10000                           CCS      A
002238: 00,3054           40000                           COM                                            #  IF SO, SAVE THE NEGATIVE OF THE SHIFT
002239: 00,3055           13133                           TCF      SMALL                                 #  COUNT -15D.
002240:
002241: 00,3056           13065                           TCF      LARGE                                 #  (THIS IS USUALLY THE CASE.)
002242:
002243: 00,3057           44720                           CS       THIRTEEN                              #  IF THE SHIFT COUNT WAS EXACTLY 14, SET
002244: 00,3060           54135                           TS       MPTEMP                                #  THE PRE-DIVIDE NORM COUNT TO -13D.
002245:
002246: 00,3061           30154                           CA       MPAC                                  #  SHIFT THE LENGTH RIGHT 14 BEFORE STORING
002247: 00,3062           54001        SMALL2             TS       L                                     #  (SMALL EXITS TO THIS POINT).
002248: 00,3063           34714                           CAF      ZERO
002249: 00,3064           13112                           TCF      LARGE2                                #  GO TO STORE LENGTH AND PROCEED.
002250:
002251: 00,3065           10135        LARGE              CCS      MPTEMP                                #  MOST ALL CASES COME HERE.
002252: 00,3066           13074                           TCF      LARGE3                                #  SEE IF NO NORMALIZATION WAS REQUIRED BY
002253: 00,3067           42024                           CS       SRDDV                                 #  SQRT, AND IF SO, SET UP FOR A SHIFT
002254: 00,3070           54135                           TS       MPTEMP                                #  RIGHT 1 BEFORE DIVIDING TO PRODUCE
002255: 00,3071           00006                           EXTEND                                         #  THE DESIRED HALF UNIT VECTOR.
002256: 00,3072           30155                           DCA      MPAC


002258: 00,3073           13112                           TCF      LARGE2
002259:


002261: 00,3074           40000        LARGE3             COM                                            #  LEAVE NEGATIVE OF SHIFT COUNT-1 FOR
002262: 00,3075           54135                           TS       MPTEMP                                #  PREDIVIDE LEFT SHIFT.
002263:
002264: 00,3076           40000                           COM                                            #  PICK UP REQUIRED SHIFTING BIT TO UNNORM-
002265: 00,3077           50000                           INDEX    A                                     #  ALIZE THE SQRT RESULT.
002266: 00,3100           34675                           CAF      BIT14
002267: 00,3101           54130                           TS       BUF
002268: 00,3102           00006                           EXTEND
002269: 00,3103           70155                           MP       MPAC       +1
002270: 00,3104           56130                           XCH      BUF
002271: 00,3105           00006                           EXTEND                                         #  (UNNORMALIZE THE SQRT FOR LV).
002272: 00,3106           70154                           MP       MPAC
002273: 00,3107           56001                           XCH      L
002274: 00,3110           60130                           AD       BUF
002275: 00,3111           56001                           XCH      L
002276:
002277: 00,3112           50120        LARGE2             INDEX    FIXLOC
002278: 00,3113           52045                           DXCH     LV                                    #  LENGTH NOW STORED IN WORK AREA.
002279:
002280: 00,3114           44712                           CS       ONE
002281: 00,3115           54140                           TS       MAXDVSW                               #  NO MAXDV CASES IN UNIT.
002282:
002283: 00,3116           52123                           DXCH     VBUF                                  #  PREPARE X COMPONENT FOR DIVIDE, SETTING
002284: 00,3117           52155                           DXCH     MPAC                                  #  LENGTH OF VECTOR AS DIVISOR IN BUF.
002285: 00,3120           52131                           DXCH     BUF
002286: 00,3121           03151                           TC       UNITDV
002287:
002288: 00,3122           52125                           DXCH     VBUF       +2                         #  DO Y AND Z IN USUAL FASHION SO WE CAN
002289: 00,3123           52155                           DXCH     MPAC                                  #  EXIT THROUGH VROTATEX.
002290: 00,3124           52160                           DXCH     MPAC       +3
002291: 00,3125           03151                           TC       UNITDV
002292:
002293: 00,3126           52127                           DXCH     VBUF       +4
002294: 00,3127           52155                           DXCH     MPAC
002295: 00,3130           52162                           DXCH     MPAC       +5
002296: 00,3131           03151                           TC       UNITDV
002297: 00,3132           17367                           TCF      VROTATEX                              #  AND EXIT.
002298:


002300:                                                                                                  #  IF THE LENGTH OF THE ARGUMENT VECTOR WAS LESS THAN 2(-28), EACH COMPONENT MUST BE SHIFTED LEFT AT LEAST
002301:                                                                                                  #  14 PLACES BEFORE THE DIVIDE, NOTE THAT IN THIS CASE, THE MAJOR PART OF EACH COMPONENT IS ZERO.
002302:
002303: 00,3133           54135        SMALL              TS       MPTEMP                                #  NEGATIVE OF PRE-DIVIDE SHIFT COUNT.
002304:
002305: 00,3134           34714                           CAF      ZERO                                  #  SHIFT EACH COMPONENT LEFT 14.
002306: 00,3135           56123                           XCH      VBUF       +1
002307: 00,3136           56122                           XCH      VBUF
002308: 00,3137           56125                           XCH      VBUF       +3
002309: 00,3140           56124                           XCH      VBUF       +2
002310: 00,3141           56127                           XCH      VBUF       +5
002311: 00,3142           56126                           XCH      VBUF       +4
002312:
002313: 00,3143           40135                           CS       MPTEMP
002314: 00,3144           50000                           INDEX    A
002315: 00,3145           34675                           CAF      BIT14
002316: 00,3146           00006                           EXTEND
002317: 00,3147           70154                           MP       MPAC
002318: 00,3150           13062                           TCF      SMALL2
002319:
002320: 00,3151     4720               THIRTEEN           =        OCT15
002321: 00,3151     4333               FOURTEEN           =        OCT16
002322: 00,3151     4333               OCT16              =        R1D1
002323:


002325:                                                                                                  #  THE FOLLOWING ROUTINE SETS UP THE CALL TO THE DIVIDE ROUTINES.
002326:
002327: 00,3151           10154        UNITDV             CCS      MPAC                                  #  FORCE MPAC POSITIVE IF POSSIBLE, SETTING
002328: 00,3152           13170                           TCF      UMPAC+                                #  DVSIGN ACCORDING TO THE SIGN OF MPAC
002329: 00,3153           13155                           TCF      +2                                    #  SINCE THE DIVISOR IS ALWAYS POSITIVE
002330: 00,3154           13162                           TCF      UMPAC-                                #  HERE.
002331:
002332: 00,3155           10155                           CCS      MPAC       +1
002333: 00,3156           13170                           TCF      UMPAC+
002334: 00,3157           00002                           TC       Q                                     #  EXIT IMMEDIATELY ON ZERO.
002335: 00,3160           13162                           TCF      UMPAC-
002336: 00,3161           00002                           TC       Q
002337:
002338: 00,3162           44714        UMPAC-             CS       ZERO                                  #  IF NEGATIVE, SET -0 IN DVSIGN FOR FINAL
002339: 00,3163           54136                           TS       DVSIGN                                #  COMPLEMENT.
002340: 00,3164           00006                           EXTEND
002341: 00,3165           40155                           DCS      MPAC                                  #  PICK UP ABSOLUTE VALUE OF ARG AND JUMP.
002342: 00,3166           50135                           INDEX    MPTEMP
002343: 00,3167           12564                           TCF      MAXTEST    -1
002344:
002345: 00,3170           54136        UMPAC+             TS       DVSIGN                                #  SET DVSIGN FOR POSITIVE QUOTIENT.
002346: 00,3171           52155                           DXCH     MPAC
002347: 00,3172           50135                           INDEX    MPTEMP
002348: 00,3173           12564                           TCF      MAXTEST    -1
002349:


002351:                                                                                                  #  MISCELLANEOUS UNARY OPERATIONS.
002352:
002353: 00,3174           03300        DSQ                TC       DSQSUB                                #  SQUARE THE DP CONTENTS OF MPAC.
002354: 00,3175           16030                           TCF      DANZIG
002355:
002356: 00,3176           10163        ABVALABS           CCS      MODE                                  #  ABVAL OR ABS INSTRUCTION.
002357: 00,3177           13226                           TCF      ABS                                   #  DO ABS ON SCALAR.
002358: 00,3200           13226                           TCF      ABS
002359:
002360: 00,3201           03317        ABVAL              TC       VSQSUB                                #  DOT MPAC WITH ITSELF.
002361: 00,3202           22163                           LXCH     MODE                                  #  MODE IS NOW DP (L ZERO AFTER DAS).
002362:
002363: 00,3203           00006                           EXTEND                                         #  STORE SQUARE OF LENGTH IN WORK AREA.
002364: 00,3204           30155                           DCA      MPAC
002365: 00,3205           50120                           INDEX    FIXLOC
002366: 00,3206           52043                           DXCH     LVSQUARE
002367:


002369:                                                                                                  #  PROGRAM DESCRIPTION - SUBROUTINE SQRT
002370:
002371:                                                                                                  #  FUNCTIONAL DESCRIPTION - DOUBLE PRECISION SQUARE ROOT ROUTINE
002372:                                                                                                  #        THIS PROGRAM TAKES THE SQUARE ROOT OF THE 27 OR 28 MOST SIGNIFICANT BITS IN THE TRIPLE PRECISION SET OF
002373:                                                                                                  #        NUMBERS - MPAC, MPAC+1, AND MPAC+2.  THE ROOT IS RETURNED DOUBLE PRECISION IN MPAC AND MPAC+1.
002374:
002375:                                                                                                  #  WARNING - THIS SUBROUTINE USES A TRIPLE PRECISION INPUT.  THE PROGRAMMER MUST ASSURE THE CONTENTS OF MPAC+2
002376:                                                                                                  #        ESPECIALLY IF THE CONTENTS OF MPAC IS SMALL OR ZERO.  FOR DETAILS SEE STG MEMO NO.949.
002377:
002378:                                                                                                  #  CALLING SEQUENCE - IN INTERPRETIVE MODE I.E., FOLLOWING TC  INTPRET,SQRT  NO ADDRESS IS ALLOWED
002379:                                                                                                  #        INPUT SCALING   THE BINARY POINT IS ASSUMED TO THE RIGHT OF BIT 15.  THE ANSWER IS RETURNED WITH THE SAME SCALING
002380:
002381:                                                                                                  #  SUBROUTINES - GENSCR, MPACSHR, SQRTSUB, ABORT
002382:
002383:                                                                                                  #  ABORT EXIT MODE - ABORTS ON NEGATIVE INPUT -1.2X10E-4 (77775 OCTAL) OR LESS.
002384:                                                                                                  #        DISPLAYS ERROR CODE 1302
002385:                                                                                                  #                TC      ABORT
002386:                                                                                                  #                OCT     1302
002387:
002388:                                                                                                  #  DEBRIS - LOCATIONS BUF, MPTEMP, ADDRWD ARE USED
002389:
002390: 00,3207           03343        SQRT               TC       SQRTSUB                               #  TAKE THE SQUARE ROOT OF MPAC.
002391: 00,3210           10135                           CCS      MPTEMP                                #  RETURNED NORMALIZED SQUARE ROOT.  SEE IF
002392: 00,3211           13213                           TCF      +2                                    #  ANY UN-NORMALIZATION REQUIRED AND EXIT
002393: 00,3212           16030                           TCF      DANZIG                                #  IF NOT.
002394:
002395: 00,3213           63730                           AD       NEG12                                 #  A RIGHT SHIFT OF MORE THAN 13 COULD BE
002396: 00,3214           00006                           EXTEND                                         #  REQUIRED IF INPUT WAS ZERO IN MPAC,+1.
002397: 00,3215           63221                           BZMF     SQRTSHFT                              #  GOES HERE IN MOST CASES.
002398: 00,3216           22007                           ZL                                             #  IF A LONG SHIFT IS REQUIRED, GO TO
002399: 00,3217           22116                           LXCH     ADDRWD                                #  GENERAL RIGHT SHIFT ROUTINES.
002400: 00,3220           12303                           TCF      GENSCR     +4                         #  ADDRWD WAS ZERO TO PREVENT ROUND.
002401:
002402: 00,3221           50135        SQRTSHFT           INDEX    MPTEMP                                #  SELECT SHIFTING BIT AND EXIT THROUGH
002403: 00,3222           34674                           CAF      BIT15                                 #  SHIFT ROUTINES.
002404: 00,3223           54135                           TS       MPTEMP
002405: 00,3224           34714                           CAF      ZERO                                  #  TO ZERO MPAC +2 IN THE PROCESS.
002406: 00,3225           12036                           TCF      MPACSHR    +3
002407:
002408: 00,3226           06672        ABS                TC       BRANCH                                #  TEST SIGN OF MPAC AND COMPLEMENT IF
002409: 00,3227           16030                           TCF      DANZIG
002410: 00,3230           16030                           TCF      DANZIG
002411: 00,3231           17637                           TCF      COMP
002412:


002414: 00,3232           44710        VDEF               CS       FOUR                                  #  VECTOR DEFINE - ESSENTIALLY TREATS
002415: 00,3233           26166                           ADS      PUSHLOC                               #  SCALAR IN MPAC AS X COMPONENT, PUSHES UP
002416: 00,3234           00006                           EXTEND                                         #  FOR Y AND THEN AGAIN FOR Z.
002417: 00,3235           50000                           INDEX    A
002418: 00,3236           30003                           DCA      2
002419: 00,3237           52160                           DXCH     MPAC       +3
002420: 00,3240           00006                           EXTEND
002421: 00,3241           50166                           INDEX    PUSHLOC
002422: 00,3242           30001                           DCA      0
002423: 00,3243           52162                           DXCH     MPAC       +5
002424: 00,3244           16470                           TCF      VMODE                                 #  MODE IS NON VECTOR.
002425:
002426: 00,3245           03317        VSQ                TC       VSQSUB                                #  DOT MPAC WITH ITSELF.
002427: 00,3246           17301                           TCF      DMODE                                 #  MODE IS NOW DP.
002428:
002429: 00,3247           00006        PUSH               EXTEND                                         #  PUSH DOWN MPAC LEAVING IT LOADED.
002430: 00,3250           30155                           DCA      MPAC
002431: 00,3251           50166                           INDEX    PUSHLOC                               #  PUSH DOWN FIRST TWO REGISTERS IN EACH
002432: 00,3252           52001                           DXCH     0
002433:
002434: 00,3253           50163                           INDEX    MODE                                  #  INCREMENT PUSHDOWN POINTER.
002435: 00,3254           36213                           CAF      NO.WDS
002436: 00,3255           26166                           ADS      PUSHLOC
002437:
002438: 00,3256           10163                           CCS      MODE
002439: 00,3257           13272                           TCF      TPUSH                                 #  PUSH DOWN MPAC +2.
002440: 00,3260           16030                           TCF      DANZIG                                #  DONE FOR DP.
002441:
002442: 00,3261           00006                           EXTEND                                         #  ON VECTOR, PUSH DOWN Y AND Z COMPONENTS.
002443: 00,3262           30160                           DCA      MPAC       +3
002444: 00,3263           50166                           INDEX    PUSHLOC
002445: 00,3264           51775                           DXCH     0          -4
002446: 00,3265           00006                           EXTEND
002447: 00,3266           30162                           DCA      MPAC       +5
002448: 00,3267           50166                           INDEX    PUSHLOC
002449: 00,3270           51777                           DXCH     0          -2
002450: 00,3271           16030                           TCF      DANZIG
002451:
002452: 00,3272           30156        TPUSH              CA       MPAC       +2
002453: 00,3273           16523                           TCF      ENDTPUSH   +2
002454:
002455: 00,3274           50120        RVQ                INDEX    FIXLOC                                #  RVQ - RETURN IVA QPRET.
002456: 00,3275           30052                           CA       QPRET
002457: 00,3276           54117                           TS       POLISH
002458: 00,3277           16621                           TCF      GOTO       +4                         #  (ASSUME QPRET POINTS TO FIXED ONLY.)
002459:


002461:                                                                                                  #  THE FOLLOWING SUBROUTINES ARE USED IN SQUARING MPAC, IN BOTH THE SCALAR AND VECTOR SENSE.  THEY ARE
002462:                                                                                                  #  SPECIAL CASES OF DMPSUB AND DOTSUB, PUT IN TO SAVE SOME TIME.
002463:
002464: 00,3300           30155        DSQSUB             CA       MPAC       +1                         #  SQUARES THE SCALAR CONTENTS OF MPAC.
002465: 00,3301           00006                           EXTEND
002466: 00,3302           70000                           SQUARE
002467: 00,3303           54156                           TS       MPAC       +2
002468: 00,3304           34714                           CAF      ZERO                                  #  FORM 2(CROSS TERM).
002469: 00,3305           56155                           XCH      MPAC       +1
002470: 00,3306           00006                           EXTEND
002471: 00,3307           70154                           MP       MPAC
002472: 00,3310           20001                           DDOUBL                                         #  AND MAYBE OVERFLOW.
002473: 00,3311           20156                           DAS      MPAC       +1                         #  AND SET A TO NET OVERFLOW.
002474: 00,3312           56154                           XCH      MPAC
002475: 00,3313           00006                           EXTEND
002476: 00,3314           70000                           SQUARE
002477: 00,3315           20155                           DAS      MPAC
002478: 00,3316           00002                           TC       Q
002479:
002480: 00,3317           00006        VSQSUB             EXTEND                                         #  DOTS THE VECTOR IN MPAC WITH ITSELF.
002481: 00,3320           22137                           QXCH     DOTRET
002482: 00,3321           03300                           TC       DSQSUB                                #  SQUARE THE X COMPONENT.
002483: 00,3322           52160                           DXCH     MPAC       +3
002484: 00,3323           52155                           DXCH     MPAC
002485: 00,3324           52131                           DXCH     BUF                                   #  SO WE CAN END IN DOTSUB.
002486: 00,3325           30156                           CA       MPAC       +2
002487: 00,3326           54132                           TS       BUF        +2
002488:
002489: 00,3327           03300                           TC       DSQSUB                                #  SQUARE Y COMPONENT.
002490: 00,3330           52156                           DXCH     MPAC       +1
002491: 00,3331           20132                           DAS      BUF        +1
002492: 00,3332           60154                           AD       MPAC
002493: 00,3333           60130                           AD       BUF
002494: 00,3334           54130                           TS       BUF
002495: 00,3335           13337                           TCF      +2
002496: 00,3336           54121                           TS       OVFIND                                #  IF OVERFLOW.
002497:
002498: 00,3337           52162                           DXCH     MPAC       +5
002499: 00,3340           52155                           DXCH     MPAC
002500: 00,3341           03300                           TC       DSQSUB                                #  SQUARE Z COMPONENT.
002501: 00,3342           17154                           TCF      ENDDOT                                #  END AS IN DOTSUB.
002502:


002504:                                                                                                  #  DOUBLE PRECISION SQUARE ROOT ROUTINE.  TAKE THE SQUARE ROOT OF THE TRIPLE PRECISION (MPAC +2 USED ONLY
002505:                                                                                                  #  IN NORMALIZATION) CONTENTS OF MPAC AND LEAVE THE NORMALIZED RESULT IN MPAC (C(MPAC) GREATER THAN OR EQUAL TO
002506:                                                                                                  #  .5).  THE RIGHT SHIFT COUNT (TO UNNORMALIZE) IS LEFT IN MPTEMP.
002507:
002508: 00,3343           34714        SQRTSUB            CAF      ZERO                                  #  START BY ZEROING RIGHT SHIFT COUNT.
002509: 00,3344           54135                           TS       MPTEMP
002510:
002511: 00,3345           10154                           CCS      MPAC                                  #  CHECK FOR POSITIVE ARGUMENT, SHIFTING
002512: 00,3346           13404                           TCF      SMPAC+                                #  FIRST SIGNIFICANT MPAC REGISTER INTO
002513: 00,3347           13351                           TCF      +2                                    #  MPAC ITSELF.
002514: 00,3350           13373                           TCF      SQRTNEG                               #  SEE IF MAG OF ARGUMENT LESS THAN 10(-4).
002515:
002516: 00,3351           56156                           XCH      MPAC       +2                         #  MPAC IS ZERO - SHIFT LEFT 14.
002517: 00,3352           56155                           XCH      MPAC       +1
002518: 00,3353           54154                           TS       MPAC
002519: 00,3354           34716                           CAF      SEVEN                                 #  AUGMENT RIGHT SHIFT COUNTER.
002520: 00,3355           54135                           TS       MPTEMP
002521:
002522: 00,3356           10154                           CCS      MPAC                                  #  SEE IF MPAC NOW PNZ.
002523: 00,3357           13404                           TCF      SMPAC+
002524: 00,3360           13362                           TCF      +2
002525: 00,3361           13376                           TCF      ZEROANS                               #  NEGATIVE BUT LESS THAN 10(-4) IN MAG.
002526:
002527: 00,3362           56155                           XCH      MPAC       +1                         #  ZERO - SHIFT LEFT 14 AGAIN.
002528: 00,3363           54154                           TS       MPAC
002529: 00,3364           34716                           CAF      SEVEN                                 #  AUGMENT RIGHT SHIFT COUNTER.
002530: 00,3365           26135                           ADS      MPTEMP
002531:
002532: 00,3366           10154                           CCS      MPAC
002533: 00,3367           13404                           TCF      SMPAC+
002534: 00,3370           00002                           TC       Q                                     #  SQRT(0) = 0.
002535: 00,3371           13376                           TCF      ZEROANS
002536: 00,3372           13452                           TCF      FIXROOT                               #  DO NOT LEAVE SQRTSUB WITH -0 IN MPAC.
002537:
002538: 00,3373           10000        SQRTNEG            CCS      A                                     #  ARGUMENT IS NEGATIVE, BUT SEE IF SIGN-
002539: 00,3374           13402                           TCF      SQRTABRT                              #  CORRECTED ARGUMENT IS LESS THAN 10(-4)
002540:
002541: 00,3375           10155                           CCS      MPAC       +1                         #  IN MAGNITUDE.  IF SO, CALL ANSWER ZERO.
002542: 00,3376           34714        ZEROANS            CAF      ZERO                                  #  FORCE ANSWER TO ZERO HERE.
002543: 00,3377           13452                           TCF      FIXROOT
002544: 00,3400           13402                           TCF      SQRTABRT
002545: 00,3401           13452                           TCF      FIXROOT
002546:
002547: 00,3402           05622        SQRTABRT           TC       POODOO
002548: 00,3403           01302                           OCT      01302
002549:


002551: 00,3404           62444        SMPAC+             AD       -1/2+2                                #  SEE IF ARGUMENT GREATER THAN OR EQUAL TO
002552: 00,3405           00006                           EXTEND                                         #  .5.
002553: 00,3406           63455                           BZMF     SRTEST                                #  IF SO, SEE IF LESS THAN .25.
002554:
002555: 00,3407           52155                           DXCH     MPAC                                  #  WE WILL TAKE THE SQUARE ROOT OF MPAC/2.
002556: 00,3410           22021                           LXCH     SR                                    #  SHIFT RIGHT 1 AND GO TO THE SQRT ROUTINE
002557: 00,3411           00006                           EXTEND
002558: 00,3412           74675                           MP       HALF
002559: 00,3413           52155                           DXCH     MPAC
002560: 00,3414           56021                           XCH      SR
002561: 00,3415           26155                           ADS      MPAC       +1                         #  GUARANTEED NO OVERFLOW.
002562:
002563: 00,3416           32314        ARGHI              CAF      SLOPEHI                               #  ARGUMENT BETWEEN .25 AND .5, GET A
002564: 00,3417           00006                           EXTEND                                         #  LINEAR APPROXIMATION FOR THIS RANGE.
002565: 00,3420           70154                           MP       MPAC
002566: 00,3421           62566                           AD       BIASHI                                #  X0/2 = (MPAC/2)(SLOPEHI) + BIASHI/2.
002567:
002568: 00,3422           54130                 +4        TS       BUF                                   #  X0/2 (ARGLO ENTERS HERE).
002569: 00,3423           30154                           CA       MPAC                                  #  SINGLE-PRECISION THROUGHOUT.
002570: 00,3424           22007                           ZL
002571: 00,3425           00006                           EXTEND
002572: 00,3426           10130                           DV       BUF                                   #  (MPAC/2)/(X0/2)
002573: 00,3427           00006                           EXTEND
002574: 00,3430           74675                           MP       HALF
002575: 00,3431           26130                           ADS      BUF                                   #  X1 = X0/2 + .5(MPAC/2)/(X0/2).
002576:
002577: 00,3432           00006                           EXTEND
002578: 00,3433           74675                           MP       HALF                                  #  FORM UP X1/2.
002579: 00,3434           52155                           DXCH     MPAC                                  #  SAVE AND BRING OUT ARGUMENT.
002580: 00,3435           00006                           EXTEND                                         #  TAKE DP QUOTIENT WITH X1.
002581: 00,3436           10130                           DV       BUF
002582: 00,3437           54131                           TS       BUF        +1                         #  SAVE MAJOR PART OF QUOTIENT.
002583: 00,3440           34714                           CAF      ZERO                                  #  FORM MINOR PART OF QUOTIENT USING
002584: 00,3441           56001                           XCH      L                                     #  (REMAINDER,0).
002585: 00,3442           00006                           EXTEND
002586: 00,3443           10130                           DV       BUF
002587: 00,3444           54001                           TS       L                                     #  IN PREPARATION FOR DAS.
002588: 00,3445           30131                           CA       BUF        +1
002589: 00,3446           20155                           DAS      MPAC                                  #  X2 = X1/2 + (MPAC/2)X1
002590:
002591: 00,3447           00006                           EXTEND                                         #  OVERFLOWS IF ARG. NEAR POSMAX.
002592: 00,3450           13454                           BZF      TCQBNK00
002593: 00,3451           34672                           CAF      POSMAX
002594: 00,3452           54154        FIXROOT            TS       MPAC
002595: 00,3453           54155                           TS       MPAC       +1
002596: 00,3454           00002        TCQBNK00           TC       Q                                     #  RETURN TO CALLER TO UNNORMALIZE, ETC.
002597:


002599: 00,3455           64676        SRTEST             AD       QUARTER                               #  ARGUMENT WAS LESS THAN .5, SEE IF LESS
002600: 00,3456           00006                           EXTEND                                         #  THAN .25.
002601: 00,3457           63501                           BZMF     SQRTNORM                              #  IF SO, BEGIN NORMALIZATION.
002602:
002603: 00,3460           52155                           DXCH     MPAC                                  #  IF BETWEEN .5 AND .25, SHIFT RIGHT 1 AND
002604: 00,3461           22021                           LXCH     SR                                    #  START AT ARGLO.
002605: 00,3462           00006                           EXTEND
002606: 00,3463           74675                           MP       HALF
002607: 00,3464           52155                           DXCH     MPAC
002608: 00,3465           56021                           XCH      SR
002609: 00,3466           26155                           ADS      MPAC       +1                         #  NO OVERFLOW.
002610:
002611: 00,3467           33007        ARGLO              CAF      SLOPELO                               #  (NORMALIZED) ARGUMENT BETWEEN .125 AND
002612: 00,3470           00006                           EXTEND                                         #  .25
002613: 00,3471           70154                           MP       MPAC
002614: 00,3472           62270                           AD       BIASLO
002615: 00,3473           13422                           TCF      ARGHI      +4                         #  BEGIN SQUARE ROOT.
002616:
002617: 00,3474           00006        SQRTNM2            EXTEND                                         #  SHIFT LEFT 2 AND INCREMENT RIGHT SHIFT
002618: 00,3475           30156                           DCA      MPAC       +1                         #  COUNT (FOR TERMINAL UNNORMALIZATION).
002619: 00,3476           20156                           DAS      MPAC       +1
002620: 00,3477           60154                           AD       MPAC
002621: 00,3500           26154                           ADS      MPAC                                  #  (NO OVERFLOW).
002622:
002623: 00,3501           24135        SQRTNORM           INCR     MPTEMP                                #  FIRST TIME THROUGH, JUST SHIFT LEFT 1
002624: 00,3502           00006                           EXTEND                                         #  (PUTS IN EFFECTIVE RIGHT SHIFT SINCE
002625: 00,3503           30156                           DCA      MPAC       +1                         #  WE WANT MPAC/2).
002626: 00,3504           20156                           DAS      MPAC       +1
002627: 00,3505           60154                           AD       MPAC
002628: 00,3506           26154                           ADS      MPAC                                  #  (AGAIN NO OVERFLOW).
002629: 00,3507           60000                           DOUBLE
002630: 00,3510           54022                           TS       CYL
002631:
002632: 00,3511           10022        NORMTEST           CCS      CYL                                   #  SEE IF ARGUMENT NOW NORMALIZED AT
002633: 00,3512           10022                           CCS      CYL                                   #  GREATER THAN .125.
002634: 00,3513           13474                           TCF      SQRTNM2                               #  NO - SHIFT LEFT 2 MORE AND TRY AGAIN.
002635: 00,3514           13416                           TCF      ARGHI                                 #  YES - NOW BETWEEN .5 AND .25.
002636: 00,3515           13467                           TCF      ARGLO                                 #  ARGUMENT NOW BETWEEN .25 AND .125.
002637:


002639:                                                                                                  #  TRIGONOMETRIC FUNCTION PACKAGE.
002640:                                                                                                  #        THE FOLLOWING TRIGONOMETRIC FUNCTIONS ARE AVAILABLE AS INTERPRETIVE OPERATIONS:
002641:                                                                                                  #        1.      SIN             COMPUTES (1/2)SINE(2 PI MPAC).
002642:                                                                                                  #        2.      COS             COMPUTES (1/2)COSINE(2 PI MPAC).
002643:                                                                                                  #        3.      ASIN            COMPUTES (1/2PI)ARCSINE(2 MPAC).
002644:                                                                                                  #        4.      ACOS            COMPUTES (1/2PI)ARCCOSINE(2 MPAC).
002645:
002646:                                                                                                  #  SIN-ASIN AND COS-ACOS ARE MUTUALLY INVERSE, IE SIN(ASIN(X)) = X.
002647:
002648: 00,3516           06672        COSINE             TC       BRANCH                                #  FINDS COSINE USING THE IDENTITY
002649: 00,3517           13522                           TCF      +3                                    #  COS(X) = SIN(PI/2 - ABS(X)).
002650: 00,3520           13525                           TCF      PRESINE
002651: 00,3521           13525                           TCF      PRESINE
002652:
002653: 00,3522           00006                 +3        EXTEND
002654: 00,3523           40155                           DCS      MPAC
002655: 00,3524           52155                           DXCH     MPAC
002656:
002657: 00,3525           34676        PRESINE            CAF      QUARTER                               #  PI/2 SCALED.
002658: 00,3526           26154                           ADS      MPAC
002659:
002660: 00,3527           52155        SINE               DXCH     MPAC                                  #  DOUBLE ARGUMENT.
002661: 00,3530           20001                           DDOUBL
002662: 00,3531           54000                           OVSK                                           #  SEE IF OVERFLOW PRESENT.
002663: 00,3532           13535                           TCF      +3                                    #  IF NOT, ARGUMENT OK AS IS.
002664:
002665: 00,3533           00006                           EXTEND                                         #  IF SO, WE LOST (OR GAINED) PI, SO
002666: 00,3534           40001                           DCOM                                           #  COMPLEMENT MPAC USING THE IDENTITY
002667:                                                                                                  #  SIN(X-(+)PI) = SIN(-X).
002668: 00,3535           52155                 +3        DXCH     MPAC
002669: 00,3536           30154                           CA       MPAC                                  #  SEE IF ARGUMENT GREATER THAN .5 IN
002670: 00,3537           60000                           DOUBLE                                         #  MAGNITUDE.  IF SO, REDUCE IT TO LESS THAN
002671: 00,3540           54001                           TS       L                                     #  .5 (+-PI/2 SCALED) AS FOLLOWS:
002672: 00,3541           13552                           TCF      SN1
002673:
002674: 00,3542           50000                           INDEX    A                                     #  IF POSITIVE, FORM PI - X, IF NEGATIVE
002675: 00,3543           34674                           CAF      NEG1/2     +1                         #  USE -PI -X.
002676: 00,3544           60000                           DOUBLE
002677: 00,3545           00006                           EXTEND
002678: 00,3546           60154                           SU       MPAC                                  #  GUARANTEED NO OVERFLOW.
002679: 00,3547           54154                           TS       MPAC
002680: 00,3550           40155                           CS       MPAC       +1
002681: 00,3551           54155                           TS       MPAC       +1
002682:


002684: 00,3552           00006        SN1                EXTEND                                         #  SET UP TO EVALUATE HASTINGS POLYNOMIAL
002685: 00,3553           30155                           DCA      MPAC
002686: 00,3554           52134                           DXCH     BUF2
002687: 00,3555           03300                           TC       DSQSUB                                #  SQUARE MPAC.
002688:
002689: 00,3556           07171                           TC       POLY                                  #  EVALUATE FOURTH ORDER POLYNOMIAL.
002690: 00,3557           00003                           DEC      3          B-14
002691: 00,3560           14441 37325                     2DEC     +.3926990796
002692: 00,3562           53250 60764                     2DEC     -.6459637111
002693: 00,3564           12146 21276                     2DEC     +.318758717
002694: 00,3566           75466 71471                     2DEC     -.074780249
002695: 00,3570           00236 32757                     2DEC     +.009694988
002696:
002697: 00,3572           32470                           CAF      LBUF2                                 #  MULTIPLY BY ARGUMENT AND SHIFT LEFT 2.
002698: 00,3573           07055                           TC       DMPSUB     -1
002699:
002700: 00,3574           00006                           EXTEND
002701: 00,3575           30156                           DCA      MPAC       +1
002702: 00,3576           20156                           DAS      MPAC       +1
002703: 00,3577           60154                           AD       MPAC
002704: 00,3600           26154                           ADS      MPAC                                  #  NEITHER SHIFT OVERFLOWS.
002705: 00,3601           00006                           EXTEND
002706: 00,3602           30156                           DCA      MPAC       +1
002707: 00,3603           20156                           DAS      MPAC       +1
002708: 00,3604           60154                           AD       MPAC
002709: 00,3605           26154                           ADS      MPAC
002710: 00,3606           16030                           TCF      DANZIG
002711:


002713:                                                                                                  #  ARCSIN/ARCCOS ROUTINE.
002714:
002715: 00,3607           33630        ARCSIN             CAF      LASINEX                               #  COMPUTE ARCSIN BY USING THE IDENTITY
002716: 00,3610           13612                           TCF      +2                                    #  ARCSIN(X) = PI/2 - ARCCOS(X).
002717:
002718: 00,3611           33712        ARCCOS             CAF      LDANZIG                               #  (EXITS IMMEDIATELY).
002719: 00,3612           54136                           TS       ESCAPE
002720: 00,3613           06672                           TC       BRANCH                                #  TEST SIGN OF INPUT.
002721: 00,3614           13624                           TCF      ACOSST                                #  START IMMEDIATELY IF POSITIVE.
002722: 00,3615           13726                           TCF      ACOSZERO                              #  ARCCOS(0) = PI/2 = .25.
002723: 00,3616           00006                           EXTEND                                         #  IF NEGATIVE, USE THE IDENTITY
002724: 00,3617           40155                           DCS      MPAC                                  #  ARCCOS(X) = PI - ARCCOS(-X), FORCING
002725: 00,3620           52155                           DXCH     MPAC                                  #  ARGUMENT POSITIVE.
002726: 00,3621           33731                           CAF      TCSUBTR                               #  SET EXIT TO DO ABOVE BEFORE
002727: 00,3622           56136                           XCH      ESCAPE                                #  ARCSIN/ARCCOS CONSIDERATIONS.
002728: 00,3623           54137                           TS       ESCAPE2
002729:
002730: 00,3624           44675        ACOSST             CS       HALF                                  #  TEST MAGNITUDE OF INPUT.
002731: 00,3625           60154                           AD       MPAC
002732: 00,3626           10000                           CCS      A
002733: 00,3627           13720                           TCF      ACOSOVF                               #  THIS IS PROBABLY AN OVERFLOW CASE.
002734:
002735: 00,3630           13706        LASINEX            TCF      ASINEX
002736:
002737: 00,3631           13641                           TCF      ACOSST2                               #  NO OVERFLOW - PROCEED.
002738:
002739: 00,3632           10155                           CCS      MPAC       +1                         #  IF MAJOR PART IS .5, CALL ANSWER 0
002740: 00,3633           34714                           CAF      ZERO                                  #  UNLESS MINOR PART NEGATIVE.
002741: 00,3634           13636                           TCF      ACOS=0
002742:
002743: 00,3635           13641                           TCF      ACOSST2
002744:
002745: 00,3636           54155        ACOS=0             TS       MPAC       +1
002746: 00,3637           54154                           TS       MPAC
002747: 00,3640           00136                           TC       ESCAPE
002748:
002749: 00,3641           00006        ACOSST2            EXTEND                                         #  NOW THAT ARGUMENT IS IN PROPER RANGE,
002750: 00,3642           40155                           DCS      MPAC                                  #  BEGIN COMPUTATION.  USE HASTINGS
002751: 00,3643           64675                           AD       HALF                                  #  APPROXIMATION ARCCOS(X) = SQRT(1-X)P(X)
002752: 00,3644           52155                           DXCH     MPAC                                  #  IN A SCALED VERSION WHERE P(X) IS A
002753: 00,3645           52134                           DXCH     BUF2                                  #  SEVENTH ORDER POLYNOMIAL.
002754:
002755: 00,3646           03343                           TC       SQRTSUB                               #  RETURNS WITH NORMALIZED SQUARE ROOT.
002756:
002757: 00,3647           10135                           CCS      MPTEMP                                #  SEE IF UN-NORMALIZATION REQUIRED.
002758: 00,3650           13713                           TCF      ACOSSHR                               #  IF SO.
002759:


002761: 00,3651           52155        ACOS3              DXCH     MPAC                                  #  SET UP FOR POLYNOMIAL EVALUATION.
002762: 00,3652           52134                           DXCH     BUF2
002763: 00,3653           52155                           DXCH     MPAC
002764:
002765: 00,3654           07171                           TC       POLY
002766: 00,3655           00006                           DEC      6          B-14
002767: 00,3656           13240 23630                     2DEC     +.353553385                            #  COEFFICIENTS ARE C 2(+I)/PISQRT(2) WHERE
002768: 00,3660           74721 47775                     2DEC*    -.0483017006 B+1*                       #  I
002769: 00,3662           02440 20237                     2DEC*    +.0200273085 B+2*                       #  WHERE C STANDS FOR ORIGINAL COEFFS.
002770: 00,3664           75067 70742                     2DEC*    -.0112931863 B+3*
002771: 00,3666           03436 26756                     2DEC*    +.00695311612 B+4*
002772: 00,3670           74037 57640                     2DEC*    -.00384617957 B+5*
002773: 00,3672           03046 07143                     2DEC*    +.001501297736 B+6*
002774: 00,3674           76654 42244                     2DEC*    -.000284160334 B+7*
002775:
002776: 00,3676           32470                           CAF      LBUF2                                 #  DO FINAL MULTIPLY AND GO TO ANY
002777: 00,3677           07055                           TC       DMPSUB     -1                         #  EPILOGUE SEQUENCES.
002778: 00,3700           00136                           TC       ESCAPE
002779:
002780: 00,3701           00006        SUBTR              EXTEND                                         #  EPILOGUE FOR NEGATIVE INPUTS TO ARCCOS.
002781: 00,3702           40155                           DCS      MPAC
002782: 00,3703           64675                           AD       HALF                                  #  FORMS PI - ARCCOS(-X) = ARCCOS(X).
002783: 00,3704           52155                           DXCH     MPAC
002784: 00,3705           00137                           TC       ESCAPE2                               #  GO TO POSSIBLE ARCSIN EPILOGUE.
002785:
002786: 00,3706           00006        ASINEX             EXTEND
002787: 00,3707           40155                           DCS      MPAC                                  #  ARCSIN EPILOGUE - GET ARCSIN(X)
002788: 00,3710           64676                           AD       QUARTER                               #  = PI/2 - ARCCOS(X).
002789: 00,3711           52155                           DXCH     MPAC
002790: 00,3712           16030        LDANZIG            TCF      DANZIG
002791:


002793: 00,3713           50000        ACOSSHR            INDEX    A                                     #  THE SHIFT RIGHT IS LESS THAN 14 SINCE
002794: 00,3714           34675                           CAF      BIT14                                 #  THE INPUT WAS NON-ZERO DP.
002795: 00,3715           54135                           TS       MPTEMP
002796: 00,3716           02073                           TC       VSHRRND                               #  DP SHIFT RIGHT AND ROUND.
002797: 00,3717           13651                           TCF      ACOS3                                 #  PROCEED.
002798:
002799: 00,3720           00006        ACOSOVF            EXTEND                                         #  IF MAJOR PART WAS ONLY 1 MORE THAN .5,
002800: 00,3721           13636                           BZF      ACOS=0                                #  CALL ANSWER ZERO.
002801:
002802: 00,3722           05537        ACOSABRT           TC       ALARM                                 #  IF OVERFLOW, CALL ANSWER ZERO BUT
002803: 00,3723           01301                           OCT      1301                                  #  SOUND AN ALARM.
002804:
002805: 00,3724           34714                           CAF      ZERO
002806: 00,3725           13636                           TCF      ACOS=0
002807:
002808: 00,3726           34676        ACOSZERO           CAF      QUARTER                               #  ACOS(0) = PI/2.
002809: 00,3727           13637                           TCF      ACOS=0     +1                         #  SET MPAC AND EXIT VIA ESCAPE.
002810:
002811: 00,3730           77763        NEG12              DEC      -12        B-14
002812: 00,3731           13701        TCSUBTR            TCF      SUBTR
002813:


002815:                                                                                                  #  THE FOLLOWING INSTRUCTIONS ARE AVAILABLE FOR SETTING, MODIFYING, AND BRANCHING ON INDEX REGISTERS:
002816:                                                                                                  #        1.      AXT     ADDRESS TO INDEX TRUE.
002817:                                                                                                  #        1.      AXC     ADDRESS TO INDEX COMPLEMENTED.
002818:                                                                                                  #        3.      LXA     LOAD INDEX FROM ERASABLE.
002819:                                                                                                  #        4.      LXC     LOAD INDEX COMPLEMENTED FROM ERASABLE.
002820:                                                                                                  #        5.      SXA     STORE INDEX IN ERASABLE.
002821:                                                                                                  #        6.      XCHX    EXCHANGE INDEX REIGSTER WITH ERASABLE.
002822:                                                                                                  #        7.      INCR    INCREMENT INDEX REGISTER.
002823:                                                                                                  #        8.      XAD     ERASABLE ADD TO INDEX REGISTER.
002824:                                                                                                  #        9.      XSU     ERASABLE SUBTRACT FROM INDEX REGISTER.
002825:                                                                                                  #        10.     TIX     BRANCH ON INDEX REGISTER AND DECREMENT.
002826:
002827: 01,2371                                           BANK     01
002828:
002829: 01,2371                                           COUNT    01/INTER
002830:
002831: 01,2371           02466        AXT                TC       TAGSUB                                #  SELECT APPROPRIATE INDEX REGISTER.
002832: 01,2372           30117                           CA       POLISH
002833: 01,2373           50130        XSTORE             INDEX    INDEXLOC                              #  CONTAINS C(FIXLOC) OR C(FIXLOC)+1.
002834: 01,2374           54046                           TS       X1
002835: 01,2375           16030                           TCF      DANZIG
002836:
002837: 01,2376           02466        AXC                TC       TAGSUB
002838: 01,2377           40117                           CS       POLISH
002839: 01,2400           02373                           TC       XSTORE
002840:
002841: 01,2401           02454        LXA                TC       15ADRERS                              #  LOAD INDEX REGISTER FROM ERASABLE.
002842: 01,2402           50117                           INDEX    POLISH
002843: 01,2403           30000                           CA       0
002844: 01,2404           12373                           TCF      XSTORE
002845:
002846: 01,2405           02454        LXC                TC       15ADRERS                              #  LOAD NDX REG FROM ERASABLE COMPLEMENTED.
002847: 01,2406           50117                           INDEX    POLISH
002848: 01,2407           40000                           CS       0
002849: 01,2410           12373                           TCF      XSTORE
002850:
002851: 01,2411           02454        SXA                TC       15ADRERS                              #  STORE INDEX REGISTER IN ERASABLE.
002852: 01,2412           50130                           INDEX    INDEXLOC
002853: 01,2413           30046                           CA       X1
002854: 01,2414           50117        MSTORE1            INDEX    POLISH
002855: 01,2415           54000                           TS       0
002856: 01,2416           16030                           TCF      DANZIG
002857:


002859: 01,2417           02454        XCHX               TC       15ADRERS                              #  EXCHANGE INDEX REGISTER WITH ERASABLE.
002860: 01,2420           50117                           INDEX    POLISH
002861: 01,2421           30000                           CA       0
002862: 01,2422           50130                           INDEX    INDEXLOC
002863: 01,2423           56046                           XCH      X1
002864: 01,2424           12414                           TCF      MSTORE1
002865:
002866: 01,2425           02454        XAD                TC       15ADRERS                              #  ADD ERASABLE TO INDEX REGISTER.
002867: 01,2426           50117                           INDEX    POLISH
002868: 01,2427           30000                           CA       0
002869: 01,2430           50130        XAD2               INDEX    INDEXLOC
002870: 01,2431           26046                           ADS      X1                                    #  IGNORING OVERFLOWS.
002871: 01,2432           16030                           TCF      DANZIG
002872:
002873: 01,2433           02466        INCR               TC       TAGSUB                                #  INCREMENT INDEX REGISTER.
002874: 01,2434           30117                           CA       POLISH
002875: 01,2435           12430                           TCF      XAD2
002876:
002877: 01,2436           02454        XSU                TC       15ADRERS                              #  SUBTRACT ERASABLE FROM INDEX REGISTER.
002878: 01,2437           50117                           INDEX    POLISH
002879: 01,2440           40000                           CS       0
002880: 01,2441           12430                           TCF      XAD2
002881:
002882: 01,2442           02466        TIX                TC       TAGSUB                                #  BRANCH AND DECREMENT ON INDEX.
002883: 01,2443           50130                           INDEX    INDEXLOC
002884: 01,2444           40050                           CS       S1
002885: 01,2445           50130                           INDEX    INDEXLOC
002886: 01,2446           60046                           AD       X1
002887: 01,2447           00006                           EXTEND                                         #  NO OPERATION IF DECREMENTED INDEX IS
002888: 01,2450           66030                           BZMF     DANZIG                                #  NEGATIVE OR ZERO.
002889:
002890: 01,2451           50130        DOTIXBR            INDEX    INDEXLOC
002891: 01,2452           56046                           XCH      X1                                    #  IGNORING OVERFLOWS.
002892:
002893: 01,2453           16615                           TCF      GOTO                                  #  DO THE BRANCH USING THE CADR IN POLISH.
002894:


002896:                                                                                                  #  SUBROUTINE TO CONVERT AN ERASABLE ADDRESS (11 BITS) TO AN EBANK SETTING AND SUBADDRESS.
002897:
002898: 01,2454           40117        15ADRERS           CS       POLISH
002899: 01,2455           64727                           AD       DEC45
002900: 01,2456           10000                           CCS      A                                     #  DOES THE ADDRESS POINT TO THE WORK AREA?
002901: 01,2457           30120                           CA       FIXLOC                                #  YES.  ADD FIXLOC.  EBANK OK AS IS.
002902: 01,2460           12465                           TCF      +5
002903:
002904: 01,2461           34744                           CA       OCT1400                               #  NO. SET EBANK & MAKE UP SUBADDRESS.
002905: 01,2462           56117                           XCH      POLISH
002906: 01,2463           54003                           TS       EBANK
002907: 01,2464           74373                           MASK     LOW8
002908: 01,2465           26117                 +5        ADS      POLISH                                #  FALL INTO TAGSUB, AND RETURN VIA Q.
002909:
002910:                                                                                                  #  SUBROUTINE WHICH SETS THE ADDRESS OF THE SPECIFIED INDEX IN INDEXLOC.  (ACTUALLY, THE ADDRESS -38D.)
002911:
002912: 01,2466           30120        TAGSUB             CA       FIXLOC
002913: 01,2467           54130                           TS       INDEXLOC
002914:
002915: 01,2470           10020                           CCS      CYR                                   #  BIT 15 SPECIFIES INDEX.
002916: 01,2471           24130                           INCR     INDEXLOC                              #  0 MEANS USE X2.
002917: 01,2472           00002                           TC       Q
002918: 01,2473           00002                           TC       Q                                     #  1 FOR X1.
002919:


002921:                                                                                                  #  MISCELLANEOUS OPERATION CODES WITH DIRECT ADDRESSES.  INCLUDED HERE ARE:
002922:                                                                                                  #        1.      ITA     STORE CPRET (RETURN ADDRESS) IN ERASABLE.
002923:                                                                                                  #        2.      CALL    CALL A SUBROUTINE, LEAVING RETURN IN QPRET.
002924:                                                                                                  #        3.      RTB     RETURN TO BASIC LANGUAGE AT THE GIVEN ADDRESS.
002925:                                                                                                  #        4.      BHIZ    BRANCH IF THE HIGHORDER OF MPAC IS ZERO (SINGLE PRECISION).
002926:                                                                                                  #        5.      BOV     BRANCH ON OVERFLOW.
002927:                                                                                                  #        6.      GOTO    SIMPLE SEQUENCE CHANGE.
002928:
002929: 01,2474           10020        RTB/BHIZ           CCS      CYR
002930: 01,2475           30117        RTB                CA       POLISH
002931: 01,2476           04560                           TC       SWCALL     -1                         #  SO A "TC Q" FROM ROUTINE LEADS TO DANZIG
002932:
002933: 01,2477           10154        BHIZ               CCS      MPAC
002934: 01,2500           16030                           TCF      DANZIG
002935: 01,2501           16615                           TCF      GOTO
002936: 01,2502           16030                           TCF      DANZIG
002937: 01,2503           16615                           TCF      GOTO
002938:
002939: 01,2504           10121        BOV(B)             CCS      OVFIND                                #  BRANCH ON OVERFLOW TO BASIC OR INTERP.
002940: 01,2505           12507                           TCF      +2
002941: 01,2506           16030                           TCF      DANZIG
002942: 01,2507           54121                           TS       OVFIND
002943: 01,2510           10020                           CCS      CYR
002944: 01,2511           12475                           TCF      RTB                                   #  IF BASIC.
002945: 01,2512           00360        B5TOBB             OCT      360
002946: 01,2513           16615                           TCF      GOTO
002947:


002949: 01,2514           10020        BZE/GOTO           CCS      CYR                                   #  SEE WHICH OP-CODE IS DESIRED.
002950: 01,2515           06672                           TC       BRANCH                                #  DO BZE.
002951: 01,2516           16030                           TCF      DANZIG
002952: 01,2517           16615                           TCF      GOTO                                  #  DO GOTO.
002953: 01,2520           16030                           TCF      DANZIG
002954:
002955: 01,2521           10020        BPL/BMN            CCS      CYR
002956: 01,2522           12530                           TCF      BPL
002957: 01,2523           12000        5B10               DEC      5          B+10                       #  SHIFTS OP CODE IN SWITCH INSTRUCTION ADR
002958:
002959: 01,2524           06672                           TC       BRANCH                                #  DO BMN.
002960: 01,2525           16030                           TCF      DANZIG
002961: 01,2526           16030                           TCF      DANZIG
002962: 01,2527           16615                           TCF      GOTO                                  #  ONLY IF NNZ.
002963:
002964: 01,2530           06672        BPL                TC       BRANCH
002965: 01,2531           16615                           TCF      GOTO                                  #  IF POSITIVE OR ZERO.
002966: 01,2532           16615                           TCF      GOTO
002967: 01,2533           16030                           TCF      DANZIG
002968:
002969: 01,2534           10020        CALL/ITA           CCS      CYR
002970: 01,2535           16607                           TCF      CALL
002971:
002972: 01,2536           05640                           TC       CCSHOLE
002973: 01,2537           02454                           TC       15ADRERS                              #  STORE QPRET.  (TAGSUB AFTER 15ADRERS IS
002974: 01,2540           50120                           INDEX    FIXLOC                                #  SLOW IN THIS CASE, BUT SAVES STORAGE.)
002975: 01,2541           30052                           CA       QPRET
002976: 01,2542           12414                           TCF      MSTORE1
002977:


002979:                                                                                                  #  THE FOLLOWING OPERATIONS ARE AVAILABLE FOR ALTERING AND TESTING INTERPRETIVE SWITCHES:
002980:                                                                                                  #        00      BONSET          SET A SWITCH AND DO A GOTO IF IT WAS ON.
002981:                                                                                                  #        01      SETGO           SET A SWITCH AND DO A GOTO.
002982:                                                                                                  #        02      BOFSET          SET A SWITCH AND DOA GOTO IF IT WAS OFF
002983:                                                                                                  #        03      SET             SET A SWITCH.
002984:                                                                                                  #        04      BONINV          INVERT A SWITCH AND BRANCH IF IT WAS ON.
002985:                                                                                                  #        05      INVGO           INVERT A SWITCH AND DO A GOTO.
002986:                                                                                                  #        06      BOFINV          INVERT A SWITCH AND BRANCH IF IT WAS OFF
002987:                                                                                                  #        07      INVERT          INVERT A SWITCH.
002988:                                                                                                  #        10      BONCLR          CLEAR A SWITCH AND BRANCH IF IT WAS ON.
002989:                                                                                                  #        11      CLRGO           CLEAR A SWITCH AND DO A GOTO.
002990:                                                                                                  #        12      BOFCLR          CLEAR A SWITCH AND BRANCH IF IT WAS OFF.
002991:                                                                                                  #        13      CLEAR           CLEAR A SWITCH.
002992:                                                                                                  #        14      BON             BRANCH IF A SWITCH WAS ON.
002993:                                                                                                  #        16      BOFF            BRANCH IF A SWITCH WAS OFF.
002994:                                                                                                  #  THE ADDRESS SUPPLIED WITH THE SWITCH INSTRUCTION IS INTERPRETED AS FOLLOWS:
002995:                                                                                                  #        BITS 1-4        SWITCH BIT NUMBER (1-15).
002996:                                                                                                  #        BITS 5-8        SWITCH OPERATION NUMBER.
002997:                                                                                                  #        BITS 9-         SWITCH WORD NUMBER (UP TO 64 SWITCH WORDS).
002998:                                                                                                  #  THE ADDRESS ITSELF IS MADE UP BY THE YUL SYSTEM ASSEMBLER.  THE BRANCH INSTRUCTIONS REQUIRE TWO
002999:                                                                                                  #  ADDRESSES, THE SECOND TAKEN AS THE DIRECT (OR INDIRECT IF IN ERASABLE) ADDRESS OF THE BRANCH.
003000:
003001: 01,2543           34721        SWITCHES           CAF      LOW4                                  #  LEAVE THE SWITCH BIT IN SWBIT.
003002: 01,2544           70117                           MASK     POLISH
003003: 01,2545           50000                           INDEX    A
003004: 01,2546           34674                           CAF      BIT15                                 #  (NUMBER FROM LEFT TO RIGHT.)
003005: 01,2547           54131                           TS       SWBIT
003006:
003007: 01,2550           34704                           CAF      BIT7                                  #  LEAVE THE SWITCH NUMBER IN SWWORD.
003008: 01,2551           00006                           EXTEND
003009: 01,2552           70117                           MP       POLISH
003010: 01,2553           54130                           TS       SWWORD
003011:
003012: 01,2554           00004                           INHINT                                         #  DURING SWITCH CHANGE SO RUPT CAN USE TOO
003013: 01,2555           50000                           INDEX    A                                     #  LEAVE THE SWITCH WORD ITSELF IN L.
003014: 01,2556           30074                           CA       STATE
003015: 01,2557           54002                           TS       Q                                     #  Q WILL BE USED AS A CHANNEL.


003017: 01,2560           34700                           CAF      BIT11
003018: 01,2561           00006                           EXTEND                                         #  DISPATCH SWITCH BIT OPERATION AS IN BITS
003019: 01,2562           70117                           MP       POLISH                                #  7-8 OF POLISH.
003020: 01,2563           72623                           MASK     B3TOB4                                #  GETS 4X2-BIT CODE.
003021: 01,2564           50000                           INDEX    A
003022: 01,2565           12566                           TCF      +1
003023:
003024: 01,2566           30131                 +1        CA       SWBIT                                 #  00 - SET SWITCH IN QUESTION.
003025: 01,2567           00006                           EXTEND
003026: 01,2570           04002                           ROR      QCHAN
003027: 01,2571           12600                           TCF      SWSTORE
003028:
003029: 01,2572           30131                 +5        CA       SWBIT                                 #  01 - INVERT SWITCH.
003030: 01,2573           00006                           EXTEND
003031: 01,2574           06002                           RXOR     QCHAN
003032: 01,2575           12600                           TCF      SWSTORE
003033:
003034: 01,2576           40131                 +9D       CS       SWBIT                                 #  10 - CLEAR.
003035: 01,2577           70002                           MASK     Q
003036: 01,2600           50130        SWSTORE            INDEX    SWWORD
003037: 01,2601           54074                           TS       STATE                                 #  NEW SWITCH WORD.
003038:


003040: 01,2602           00003                 +13D      RELINT                                         #  11 - NOOP.
003041: 01,2603           34676                           CAF      BIT13
003042: 01,2604           00006                           EXTEND                                         #  DISPATCH SEQUCE CHANGING OR BRANCHING
003043: 01,2605           70117                           MP       POLISH                                #  CODE.
003044: 01,2606           72623                           MASK     B3TOB4
003045: 01,2607           50000                           INDEX    A
003046: 01,2610           12611                           TCF      +1                                    #  ORIGINALLY STORED IN BITS 5-6.
003047:
003048: 01,2611           40002                 +1        CS       Q                                     #  00 - BRANCH IF ON.
003049: 01,2612           70131        TEST               MASK     SWBIT
003050: 01,2613           10000                           CCS      A
003051: 01,2614           12624                           TCF      SWSKIP
003052:
003053: 01,2615           16664                 +5        TCF      SWBRANCH                              #  01 - GO TO.
003054:
003055: 01,2616           12624                           TCF      SWSKIP                                #  HERE ONLY ON BIT 15.
003056:
003057: 01,2617           05640                           TC       CCSHOLE
003058: 01,2620           05640                           TC       CCSHOLE
003059:
003060: 01,2621           30002                 +9D       CA       Q                                     #  10 - BRANCH IF OFF.
003061: 01,2622           12612                           TCF      TEST
003062:
003063: 01,2623           00014        B3TOB4             OCT      0014
003064: 01,2624           24164        SWSKIP             INCR     LOC
003065:
003066: 01,2625  01,2543               SW/                EQUALS   SWITCHES
003067:
003068: 01,2625           16030                 +13D      TCF      DANZIG                                #  11 - NOOP.
003069:

End of include-file INTERPRETER.agc.  Parent file is MAIN.agc


