
Source Code
000001:                                                                                                 #  Copyright:     Public domain.
000002:                                                                                                 #  Filename:      INTERPRETATIVE_CONSTANTS.agc
000003:                                                                                                 #  Purpose:       Part of the source code for Colossus, build 249.
000004:                                                                                                 #                 It is part of the source code for the Command Module's (CM)
000005:                                                                                                 #                 Apollo Guidance Computer (AGC), possibly for Apollo 8 and 9.
000006:                                                                                                 #  Assembler:     yaYUL
000007:                                                                                                 #  Reference:     pp. 1187-1188 1701.pdf.
000008:                                                                                                 #  Contact:       Ron Burkey <info@sandroid.org>.
000009:                                                                                                 #  Website:       www.ibiblio.org/apollo.
000010:                                                                                                 #  Mod history:   08/29/04 RSB.   Adapted from corresponding Luminary 131 file.
000011:
000012:                                                                                                 #  The contents of the "Colossus249" files, in general, are transcribed
000013:                                                                                                 #  from a scanned document obtained from MIT's website,
000014:                                                                                                 #  http://hrst.mit.edu/hrs/apollo/public/archive/1701.pdf.  Notations on this
000015:                                                                                                 #  document read, in part:
000016:
000017:                                                                                                 #         Assemble revision 249 of AGC program Colossus by NASA
000018:                                                                                                 #         2021111-041.  October 28, 1968.
000019:
000020:                                                                                                 #         This AGC program shall also be referred to as
000021:                                                                                                 #                                 Colossus 1A
000022:
000023:                                                                                                 #         Prepared by
000024:                                                                                                 #                         Massachussets Institute of Technology
000025:                                                                                                 #                         75 Cambridge Parkway
000026:                                                                                                 #                         Cambridge, Massachusetts
000027:                                                                                                 #         under NASA contract NAS 9-4065.
000028:
000029:                                                                                                 #  Refer directly to the online document mentioned above for further information.
000030:                                                                                                 #  Please report any errors (relative to 1701.pdf) to info@sandroid.org.
000031:
000032:                                                                                                 #  In some cases, where the source code for Luminary 131 overlaps that of
000033:                                                                                                 #  Colossus 249, this code is instead copied from the corresponding Luminary 131
000034:                                                                                                 #  source file, and then is proofed to incorporate any changes.
000035:
000036:                                                                                                 #  Page 1187
000037: 26,2000                                          SETLOC   INTPRET1
000038: 26,2000                                          BANK
000039:
000040: 26,3321                                          COUNT    23/ICONS
000041:
000042: 26,3321           10000 00000  DP1/4TH           2DEC     .25
000043: 26,3323           00000 00000  UNITZ             2DEC     0          B-28
000044: 26,3325           00000 00000  UNITY             2DEC     0          B-28
000045: 26,3327           20000 00000  UNITX             2DEC     .5
000046: 26,3331           00000 00000  ZEROVECS          2DEC     0          B-28
000047: 26,3333           00000 00000                    2DEC     0          B-28
000048: 26,3335           00000 00000                    2DEC     0          B-28
000049:
000050: 26,3337  26,3327               DPHALF            =        UNITX
000051: 26,3337           37777        DPPOSMAX          OCT      37777
000052: 26,3340           37777                          OCT      37777
000053:
000054:                                                                                                 #  Page 1188
000055:                                                                                                 #  INTERPRETIVE CONSTANTS IN THE OTHER HALF-MEMORY
000056:
000057: 04,2000                                          SETLOC   INTPRET2
000058: 04,2000                                          BANK
000059:
000060: 04,3447                                          COUNT    14/ICONS
000061:
000062: 04,3447           00000 00000  ZUNIT             2DEC     0          B-28
000063: 04,3451           00000 00000  YUNIT             2DEC     0          B-28
000064: 04,3453           20000 00000  XUNIT             2DEC     .5
000065: 04,3455           00000 00000  ZEROVEC           2DEC     0          B-28
000066: 04,3457           00000 00000                    2DEC     0          B-28
000067: 04,3461           00000 00000                    2DEC     0          B-28
000068:
000069: 04,3463           77777                          OCT      77777                                 #  -0, -6, -12 MUST REMAIN IN THIS ORDER
000070: 04,3464           77771        DFC-6             DEC      -6         B-14
000071: 04,3465           77763        DFC-12            DEC      -12        B-14
000072: 04,3466           37777 37777  LODPMAX           2OCT     3777737777                            #  THESE TWO CONSTANTS MUS REMAIN
000073: 04,3470           37777 37777  LODPMAX1          2OCT     3777737777                            #  ADJACENT AND THE SAME FOR INTEGRATION
000074:
000075: 04,3472  04,3455               ZERODP            =        ZEROVEC
000076: 04,3472  04,3453               HALFDP            =        XUNIT
000077:
000078:
000079:
000080:

End of include-file INTERPRETIVE_CONSTANTS.agc.  Parent file is MAIN.agc


