
Source Code


000002:                                                                                                  ## Copyright:   Public domain.
000003:                                                                                                  ## Filename:    INTERPRETATIVE_CONSTANTS.agc
000004:                                                                                                  ## Purpose:     Part of the source code for Colossus, build 249.
000005:                                                                                                  ##              It is part of the source code for the Command Module's (CM)
000006:                                                                                                  ##              Apollo Guidance Computer (AGC), for Apollo 9.
000007:                                                                                                  ## Assembler:   yaYUL
000008:                                                                                                  ## Reference:   pp. 1175-1176
000009:                                                                                                  ## Contact:     Ron Burkey <info@sandroid.org>.
000010:                                                                                                  ## Website:     www.ibiblio.org/apollo.
000011:                                                                                                  ## Mod history: 08/29/04 RSB.   Adapted from corresponding Luminary 131 file.
000012:                                                                                                  ##              2017-01-06 RSB  Page numbers now agree with those on the
000013:                                                                                                  ##                              original harcopy, as opposed to the PDF page
000014:                                                                                                  ##                              numbers in 1701.pdf.
000015:                                                                                                  ##              2017-01-14 RSB  Cross-diff'd comment text (not whitespace)
000016:                                                                                                  ##                              vs the already-proofed corresponding Colossus
000017:                                                                                                  ##                              237 and Comanche 55 source-code files
000018:                                                                                                  ##                              and corrected errors found.  No differences
000019:                                                                                                  ##                              remain.
000020:                                                                                                  ##              2021-05-30 ABS  DFC-6 -> DEC-6, DFC-12 -> DEC-12
000021:                                                                                                  ##
000022:                                                                                                  ## The contents of the "Colossus249" files, in general, are transcribed
000023:                                                                                                  ## from a scanned copy of the program listing.  Notations on this
000024:                                                                                                  ## document read, in part:
000025:                                                                                                  ##
000026:                                                                                                  ##      Assemble revision 249 of AGC program Colossus by NASA
000027:                                                                                                  ##      2021111-041.  October 28, 1968.
000028:                                                                                                  ##
000029:                                                                                                  ##      This AGC program shall also be referred to as
000030:                                                                                                  ##                              Colossus 1A
000031:                                                                                                  ##
000032:                                                                                                  ##      Prepared by
000033:                                                                                                  ##                      Massachusetts Institute of Technology
000034:                                                                                                  ##                      75 Cambridge Parkway
000035:                                                                                                  ##                      Cambridge, Massachusetts
000036:                                                                                                  ##      under NASA contract NAS 9-4065.
000037:                                                                                                  ##
000038:                                                                                                  ## Refer directly to the online document mentioned above for further information.
000039:                                                                                                  ## Please report any errors (relative to the scanned pages) to info@sandroid.org.
000040:                                                                                                  ##
000041:                                                                                                  ## In some cases, where the source code for Luminary 131 overlaps that of
000042:                                                                                                  ## Colossus 249, this code is instead copied from the corresponding Luminary 131
000043:                                                                                                  ## source file, and then is proofed to incorporate any changes.
000044:


000046: 26,2000                                           SETLOC   INTPRET1
000047: 26,2000                                           BANK
000048:
000049: 26,3321                                           COUNT    23/ICONS
000050:
000051: 26,3321           10000 00000  DP1/4TH            2DEC     .25
000052: 26,3323           00000 00000  UNITZ              2DEC     0          B-28
000053: 26,3325           00000 00000  UNITY              2DEC     0          B-28
000054: 26,3327           20000 00000  UNITX              2DEC     .5
000055: 26,3331           00000 00000  ZEROVECS           2DEC     0          B-28
000056: 26,3333           00000 00000                     2DEC     0          B-28
000057: 26,3335           00000 00000                     2DEC     0          B-28
000058:
000059: 26,3337  26,3327               DPHALF             =        UNITX
000060: 26,3337           37777        DPPOSMAX           OCT      37777
000061: 26,3340           37777                           OCT      37777
000062:


000064:                                                                                                  #  INTERPRETIVE CONSTANTS IN THE OTHER HALF-MEMORY
000065:
000066: 04,2000                                           SETLOC   INTPRET2
000067: 04,2000                                           BANK
000068:
000069: 04,3447                                           COUNT    14/ICONS
000070:
000071: 04,3447           00000 00000  ZUNIT              2DEC     0          B-28
000072: 04,3451           00000 00000  YUNIT              2DEC     0          B-28
000073: 04,3453           20000 00000  XUNIT              2DEC     .5
000074: 04,3455           00000 00000  ZEROVEC            2DEC     0          B-28
000075: 04,3457           00000 00000                     2DEC     0          B-28
000076: 04,3461           00000 00000                     2DEC     0          B-28
000077:
000078: 04,3463           77777                           OCT      77777                                 #  -0, -6, -12 MUST REMAIN IN THIS ORDER
000079: 04,3464           77771        DEC-6              DEC      -6         B-14
000080: 04,3465           77763        DEC-12             DEC      -12        B-14
000081: 04,3466           37777 37777  LODPMAX            2OCT     3777737777                            #  THESE TWO CONSTANTS MUST REMAIN
000082: 04,3470           37777 37777  LODPMAX1           2OCT     3777737777                            #  ADJACENT AND THE SAME FOR INTEGRATION
000083:
000084: 04,3472  04,3455               ZERODP             =        ZEROVEC
000085: 04,3472  04,3453               HALFDP             =        XUNIT
000086:
000087:
000088:
000089:

End of include-file INTERPRETIVE_CONSTANTS.agc.  Parent file is MAIN.agc


