
Source Code


000002:                                                                                                  #  Copyright:    Public domain.
000003:                                                                                                  #  Filename:     INTEGRATION_INITIALIZATION.agc
000004:                                                                                                  #  Purpose:      Part of the source code for Colossus, build 249.
000005:                                                                                                  #                It is part of the source code for the Command Module's (CM)
000006:                                                                                                  #                Apollo Guidance Computer (AGC), possibly for Apollo 8 and 9.
000007:                                                                                                  #  Assembler:    yaYUL
000008:                                                                                                  #  Reference:    Starts on p. 1291 of 1701.pdf.
000009:                                                                                                  #  Contact:      Ron Burkey <info@sandroid.org>.
000010:                                                                                                  #  Website:      www.ibiblio.org/apollo.
000011:                                                                                                  #  Mod history:  08/29/04 RSB.   Began adapting from corresponding Luminary131 file.
000012:                                                                                                  #                2010-10-24 JL   Indentation fixes.
000013:
000014:                                                                                                  #  The contents of the "Colossus249" files, in general, are transcribed
000015:                                                                                                  #  from a scanned document obtained from MIT's website,
000016:                                                                                                  #  http://hrst.mit.edu/hrs/apollo/public/archive/1701.pdf.  Notations on this
000017:                                                                                                  #  document read, in part:
000018:
000019:                                                                                                  #        Assemble revision 249 of AGC program Colossus by NASA
000020:                                                                                                  #        2021111-041.  October 28, 1968.
000021:
000022:                                                                                                  #        This AGC program shall also be referred to as
000023:                                                                                                  #                                Colossus 1A
000024:
000025:                                                                                                  #        Prepared by
000026:                                                                                                  #                        Massachusetts Institute of Technology
000027:                                                                                                  #                        75 Cambridge Parkway
000028:                                                                                                  #                        Cambridge, Massachusetts
000029:                                                                                                  #        under NASA contract NAS 9-4065.
000030:
000031:                                                                                                  #  Refer directly to the online document mentioned above for further information.
000032:                                                                                                  #  Please report any errors (relative to 1701.pdf) to info@sandroid.org.
000033:
000034:                                                                                                  #  In some cases, where the source code for Luminary 131 overlaps that of
000035:                                                                                                  #  Colossus 249, this code is instead copied from the corresponding Luminary 131
000036:                                                                                                  #  source file, and then is proofed to incorporate any changes.
000037:


000039:                                                                                                  #  1.0 INTRODUCTION
000040:                                                                                                  #  ----------------
000041:
000042:                                                                                                  #  FROM A USER'S POINT OF VIEW, ORBITAL INTEGRATION IS ESSENTIALLY THE SAME AS THE 278 INTEGRATION
000043:                                                                                                  #  PROGRAM.  THE SAME ENTRANCES TO THE PROGRAM WILL BE MAINTAINED, THE SAME STALLING ROUTINE WILL BE USED AND
000044:                                                                                                  #  OUTPUT WILL STILL BE VIA THE PUSHLIST.  THE PRIMARY DIFFERENCES TO A USER INVOLVE THE ADDED CAPABILITY OF
000045:                                                                                                  #  TERMINATING INTEGRATION AT A SPECIFIC FINAL RADIUS AND THE DIFFERENCE IN STATE VECTOR SCALING INSIDE AND OUTSIDE
000046:                                                                                                  #  THE LUNAR SPHERE OF INFLUENCE.
000047:
000048:                                                                                                  #  IN ORDER TO MAKE THE CSM(LEM)PREC AND CSM(LEM)CONIC ENTRANCES SIMILAR TO FLIGHT 278, THE INTEGRATION PROGRAM
000049:                                                                                                  #  WILL ITSELF SET THE FINAL RADIUS (RFINAL) TO 0 SO THAT REACHING THE DESIRED TIME ONLY WILL TERMINATE
000050:                                                                                                  #  INTEGRATION.  THE DP REGISTER RFINAL MUST BE SET BY USERS OF INTEGRVS AND INTEGRV, AND MUST BE DONE AFTER THE
000051:                                                                                                  #  CALL TC INTSTALL.
000052:
000053:                                                                                                  #  WHEN THE LM IS ON THE LUNAR SURFACE (INDICATED BY LUNAR SURFACE FLAG SET) CALLS TO LEMCONIC, LEMPREC, AND
000054:                                                                                                  #  INTEGRV WITH VINFLAG = 0 WILL RESULT IN THE USE OF THE PLANETARY INERTIAL ORIENTATION SUBROUTINES TO PROVIDE
000055:                                                                                                  #  BOTH THE LM'S POSITION AND VELOCITY IN THE REFERENCE COORDINATE SYSTEM.
000056:                                                                                                  #  THE PROGRAM WILL PROVIDE OUTPUT AS IF INTEGRATION WAS USED.  THAT IS, THE PUSHLIST WILL BE SET AS NOTED BELOW AND
000057:                                                                                                  #  THE PERMANENT STATE VECTOR UPDATED WHEN SPECIFIED BY AN INTEGRV CALL.
000058:
000059:                                                                                                  #  USERS OF INTEGRVS DESIRING INTEGRATION (INTYPFLG = 0) SHOULD NOTE THAT THE OBLATENESS PERTURBATION COMPUTATION
000060:                                                                                                  #  IN LUNAR ORBIT IS TIME DEPENDENT.  THEREFORE, THE USER SHOULD SUPPLY AN INITIAL STATE VECTOR VALID AT SOME REAL
000061:                                                                                                  #  TIME AND THE DESIRED TIME (TDEC1) ALSO AT SOME REAL TIME.  FOR CONIC "INTEGRATION" THE USER MAY STILL USE ZERO
000062:                                                                                                  #  AS THE INITIAL TIME AND DELTA TIME AS THE DESIRED TIME.
000063:
000064:                                                                                                  #  2.0 CENTRAL DESCRIPTION
000065:                                                                                                  #  -----------------------
000066:
000067:                                                                                                  #  THE INTEGRATION PROGRAM OPERATES AS A CLOSED INTERPRETIVE SUBROUTINE AND PERFORMS THESE FUNCTIONS --
000068:                                                                                                  #        1) INTEGRATES (PRECISION OR CONIC) EITHER CSM OR LM STATE VECTOR
000069:                                                                                                  #        2) INTEGRATES THE W-MATRIX
000070:                                                                                                  #        3) PERMANENT OR TEMPORARY UPDATE OF THE STATE VECTOR
000071:
000072:                                                                                                  #  THERE ARE SIX ENTRANCES TO THE INTEGRATION PROGRAM.  FOUR OF THESE (CSMPREC, LEMPREC, CSMCONIC, LEMCONIC) SET
000073:                                                                                                  #  ALL THE FLAGS REQUIRED IN THE INTEGRATION PROGRAM ITSELF TO CAUSE THE PRECISION OR CONIC INTEGRATION (KEPLER) OF
000074:                                                                                                  #  THE LM OR CSM STATE VECTOR, AS THE NAMES SUGGEST.  ONE ENTRANCE (INTEGRVS) PERMITS THE CALLING PROGRAM TO
000075:                                                                                                  #  PROVIDE A STATE VECTOR TO BE INTEGRATED.  THE CALLING PROGRAM MUST SET THE FLAGS INDICATING (1) PRECISION OR
000076:                                                                                                  #  CONIC INTEGRATION, (2) IN OR OUT OF LUNAR SPHERE, (3) MIDCOURSE OR NOT, AND THE INTEGRATION PROGRAM COMPLETES
000077:                                                                                                  #  THE FLAG SETTING TO BYPASS W-MATRIX INTEGRATION.  THE LAST ENTRANCE (INTEGRV, USED IN GENERAL BY THE
000078:                                                                                                  #  NAVIGATION PROGRAMS) PERMITS THE CALLER TO SET FIVE FLAGS (NOT MOONFLAG OR MIDFLAG) BUT NOT TO INPUT A STATE
000079:                                                                                                  #  VECTOR.  ANY PROGRAM WHICH CALLS INTEGRVS OR INTEGRV MUST CALL INTSTALL BEFORE IT SETS THE INTEGRATION FLAGS
000080:                                                                                                  #  AND/OR STATE VECTOR.
000081:
000082:                                                                                                  #  THREE SETS OF 42 REGISTERS AND 2 FLAGS ARE USED FOR THE STATE VECTORS.  TWO SETS, WHICH MAY NOT BE OVERLAYED, ARE
000083:                                                                                                  #  USED FOR THE PERMANENT STATE VECTORS FOR THE CSM AND LM.  THE THIRD SET, WHICH MAY BE OVERLAYED WHEN INTEGRATION
000084:                                                                                                  #  IS NOT BEING DONE, IS USED IN THE COMPUTATIONS.
000085:
000086:                                                                                                  #  THE PERMANENT STATE VECTORS WILL BE PERIODICALLY UPDATED SO THAT THE VECTORS WILL NOT BE ODER THAN 4 TIMESTEPS.
000087:                                                                                                  #  THE PERMANENT STATE VECTORS WILL ALSO BE UPDATED WHENEVER THE W-MATRIX IS INTEGRATED OR WHEN A CALLER OF INTEGRV
000088:                                                                                                  #  SETS STATEFLG (THE NAVIGATION PROGRAMS P20, P22.)
000089:


000091:                                                                                                  #  APPENDIX B OF THE USERS' GUIDE LISTS THE STATE VECTOR QUANTITIES.
000092:
000093:                                                                                                  #  2.1 RESTARTS
000094:
000095:                                                                                                  #  PHASE CHANGES WILL BE MADE IN THE INTEGRATION PROGRAM ONLY FOR THE INTEGRV ENTRANCE (I.E., WHEN THE W-MATRIX IS
000096:                                                                                                  #  INTEGRATED OR PERMANENT STATE VECTOR IS UPDATED.)  THE GROUP NUMBER USED WILL BE THAT FOR THE P20-25 PROGRAMS
000097:                                                                                                  #  (I.E., GROUP2) WINCE THE INTEGRV ENTRANCE WILL ONLY BE USED BY THESE PROGRAMS.  IF A RESTART OCCURS DURING AN
000098:                                                                                                  #  INTEGRATION OF THE STATE VECTOR ONLY, THE RECOVERY WILL BE TO THE LAST PHASE IN THE CALLING PROGRAM.  CALLING
000099:                                                                                                  #  PROGRAMS WHICH USE THE INTEGRV OR INTEGRVS ENTRANCE OF INTEGRATION WHOULD ENSURE THAT IF PHASE CHANGING IS DONE
000100:                                                                                                  #  THAT IT IS PRIOR TO SETTING THE INTEGRATION INPUTS IN THE PUSHLIST.
000101:
000102:                                                                                                  #  THIS IS BECAUSE THE PUSHLIST IS LOST DURING A RESTART.
000103:
000104:                                                                                                  #  2.2 SCALING
000105:
000106:                                                                                                  #  THE INTEGRATION ROUTIEN WILL MAINTAIN THE PERMANENT MEMORY STATE VECTORS IN THE SCALING AND UNITS DEFINED IN
000107:                                                                                                  #  APPENDIX B OF THE USERS' GUIDE.  THE SCALING OF THE OUTPUT POSITION VECTOR DEPENDS ON THE ORIGIN OF THE COORDINATE
000108:                                                                                                  #  SYSTEM AT THE DESIRED INTEGRATION TIME.  THE COORDINATE SYSTEM TRANSFORMATION WILL BE DONE AUTOMATICALLY ON
000109:                                                                                                  #  MULTIPLE TIMESTEP ENCKE INTEGRATION ONLY.  THUS IT IS POSSIBLE TO HAVE OUTPUT FROM SUCCESSIVE INTEGRATIONS IN
000110:                                                                                                  #  DIFFERENT SCALING.
000111:
000112:                                                                                                  #  HOWEVER, RATT, VATT WILL ALWAYS BE SCALED THE SAME.
000113:
000114:                                                                                                  #  3.0 INPUT/OUTPUT
000115:                                                                                                  #  ----------------
000116:
000117:                                                                                                  #  PROGRAM INPUTS ARE THE FLAGS DESCRIBED IN APPENDIX A AND THE PERMANENT STATE VECTOR QUANTITIES DESCRIBED IN
000118:                                                                                                  #  APPENDIX B OF THE USERS' GUIDE, PLUS THE DESIRED TIME TO INTEGRATE TO IN TDEC1 (A PUSH LIST LOCATION).
000119:                                                                                                  #  FOR INTEGRVS, THE RCV,VCV,TET OR THE TEMPORARY STATE VECTOR MUST BE SET, PLUS MOONFLAG AND MIDFLAG
000120:
000121:                                                                                                  #  FOR SIMULATION THE FOLLOWING QUANTITIES MUST BE PRESET ---
000122:                                                                                                  #                                                                                EARTH   MOON
000123:                                                                                                  #                                                                                 29      27
000124:                                                                                                  #        RRECTCSM(LEM)           RECTIFIED POSITION VECTOR       METERS          2       2
000125:
000126:                                                                                                  #                                                                                 7       5
000127:                                                                                                  #        VRECTCSM(LEM)           RECTIFIED VELOCITY VECTOR       M/CSEC          2       2
000128:
000129:                                                                                                  #                                                                                 28      28
000130:                                                                                                  #        TETCSM(LEM)             TIME STATE VECTOR IS VALID      CSEC            2       2
000131:                                                                                                  #                                CUSTOMARILY 0, BUT NOT LUNAR
000132:                                                                                                  #                                ORBIT DEPENDENCE ON REAL TIME.
000133:
000134:                                                                                                  #                                                                                 22      18
000135:                                                                                                  #        DELTAVCSM(LEM)          POSITION DEVIATION              METERS          2       2
000136:                                                                                                  #                                0 IF TCCSM(LEM) = 0
000137:
000138:                                                                                                  #                                                                                 3       -1
000139:                                                                                                  #        NUVCSM(LEM)             VELOCITY DEVIATION              M/CSEC          2       2
000140:                                                                                                  #                                0 IF TCCSM(LEM) = 0


000142:                                                                                                  #                                                                                 29      27
000143:                                                                                                  #        RCVSM(LEM)              CONIC POSITION                  METERS          2       2
000144:                                                                                                  #                                EQUALS RRECTCSM(LEM) IF
000145:                                                                                                  #                                TCCSM(LEM) = 0
000146:
000147:                                                                                                  #                                                                                 7       5
000148:                                                                                                  #        VCVCSM(LEM)             CONIC VELOCITY                  M/CSEC          2       2
000149:                                                                                                  #                                EQUALS VRECTCSM(LEM) IF
000150:                                                                                                  #                                TCCSM(LEM) = 0
000151:
000152:                                                                                                  #                                                                                 28      28
000153:                                                                                                  #        TCCSM(LEM)              TIME SINCE RECTIFICATION        CSECS           2       2
000154:                                                                                                  #                                CUSTOMARILY 0
000155:
000156:                                                                                                  #                                                                 1/2             17      16
000157:                                                                                                  #        XKEPCSM(LEM)            RDOT OF KEPLER'S EQUATION       M               2       2
000158:                                                                                                  #                                0 IF TCCSM(LEM) = 0
000159:
000160:                                                                                                  #        CMOONFLG                PERMANENT FLAGS CORRESPONDING                   0       0
000161:                                                                                                  #        CMIDFLAG                TO MOONFLAG AND MIDFLAG                         0,1     0,1
000162:                                                                                                  #        LMOONFLG                C = CSM, L = LM                                 0       0
000163:                                                                                                  #        LMIDFLG                                                                 0,1     0,1
000164:
000165:                                                                                                  #        SURFFLAG                LUNAR SURFACE FLAG                              0,1     0,1
000166:
000167:                                                                                                  #  IN ADDITION, IF (L)CMIDFLAG IS SET, THE INITIAL INPUT VALUES FOR LUNAR
000168:                                                                                                  #  SOLAR EPHEMERIDES SUBROUTINE AND PLANETARY INERTIAL ORIENTATION SUB-
000169:                                                                                                  #  ROUTINE MUST BE PRESET.
000170:
000171:                                                                                                  #  OUTPUT
000172:                                                                                                  #        AFTER EVERY CALL TO INTEGRATION
000173:                                                                                                  #                                                                        EARTH   MOON
000174:                                                                                                  #                                                                         29      29
000175:                                                                                                  #        0D      RATT    POSITION                        METERS          2       2
000176:
000177:                                                                                                  #                                                                         7       7
000178:                                                                                                  #        6D      VATT    VELOCITY                        M/CSEC          2       2
000179:
000180:                                                                                                  #                                                                         28      28
000181:                                                                                                  #        12D     TAT     TIME                                            2       2
000182:
000183:                                                                                                  #                                                                         29      27
000184:                                                                                                  #        14D     RATT1   POSITION                        METERS          2       2
000185:
000186:                                                                                                  #                                                                         7       5
000187:                                                                                                  #        20D     VATT1   VELOCITY                        M/CSEC          2       2
000188:
000189:                                                                                                  #                                                         3   2           36      30
000190:                                                                                                  #        26D     MU(P)   MU                              M /CS           2       2
000191:
000192:                                                                                                  #        X1              MUTABLE ENTRY                                   -2      -10D
000193:
000194:                                                                                                  #        X2              COORDINT
000195:                                                                                                  #        X2              COORDINATE SYSTEM ORIGIN                        0       2
000196:                                                                                                  #                        (THIS, NOT MOONFLAG, SHOULD BE


000198:                                                                                                  #                        USED TO DETERMINE ORIGIN.)
000199:
000200:                                                                                                  #  IN ADDITION TO THE ABOVE, THE PERMANENT STATE VECTOR IS UPDATED WHENEVER
000201:                                                                                                  #  STATEFLG WAS SET AND WHENEVER A W-MATRIX IS TO BE INTEGRATED.  THE PUSH
000202:                                                                                                  #  COUNTER IS SET TO 0 AND OVERFLOW IS CLEARED BEFORE RETURNING TO THE
000203:                                                                                                  #  CALLING PROGRAM.
000204:
000205:                                                                                                  #  4.0 CALLING SEQUENCES AND SAMPLE CODE
000206:                                                                                                  #  -------------------------------------
000207:
000208:                                                                                                  #        A) PRECISION ORBITAL INTEGRATION.  CSMPREC, LEMPREC ENTRANCES
000209:                                                                                                  #                L-X     STORE TIME TO 96T5791T5 T 95 PUS L9ST (T4531)
000210:                                                                                                  #                L       CALL
000211:                                                                                                  #                L+1             CSMPREC (OR LEMPREC)
000212:                                                                                                  #                L+2     RETURN
000213:                                                                                                  #           INPUT                                                           28
000214:                                                                                                  #                TDEC1 (PD 32D) TIME TC INTEGRATE TO...CENTISECONDS SCALED 2
000215:                                                                                                  #           OUTPUT
000216:                                                                                                  #                THE DATA LISTED IN SECTION 3.2 PLUS
000217:                                                                                                  #                RQVV    POSITION VECTOR OF VEHICLE WITH RESPECT TO SECONDARY
000218:                                                                                                  #                BODY... METERS B-29 ONLY IF MIDFLAG = DIM0FLAG = 1
000219:                                                                                                  #        B) CONIC INTEGRATION.  CSMCONIC, LEMCONIC ENTRANCES
000220:                                                                                                  #                L-X     STORE TIME IN PUSH LIST (TDEC1)
000221:                                                                                                  #                L       CALL
000222:                                                                                                  #                L+1             CSMCONIC (OR LEMCONIC)
000223:                                                                                                  #           INPUT/OUTPUT
000224:                                                                                                  #                SAME AS PRECISION INTEGRATION, EXCEPT RQVV NOT SET
000225:                                                                                                  #        C) INTEGRATE GIVEN STATE VECTOR.  INTEGRVS ENTRANCE
000226:                                                                                                  #                CALL
000227:                                                                                                  #                                INTSTALL
000228:                                                                                                  #                VLOAD
000229:                                                                                                  #                                POSITION VECTOR
000230:                                                                                                  #                STOVL           RCV
000231:                                                                                                  #                                VELOCITY VECTOR
000232:                                                                                                  #                STODL           VCV
000233:                                                                                                  #                                TIME STATE VECTOR VALID
000234:                                                                                                  #                STODL           TET
000235:                                                                                                  #                                FINAL RADIUS
000236:                                                                                                  #                STORE           RFINAL
000237:                                                                                                  #                SET(CLEAR)      SET(CLEAR)
000238:                                                                                                  #                                INTYPFLAG
000239:                                                                                                  #                                MOONFLAG
000240:                                                                                                  #                SET(CLEAR)      DLOAD
000241:                                                                                                  #                                DESIRED TIME
000242:                                                                                                  #                STCALL          TDEC1
000243:                                                                                                  #                                INTEGRVS
000244:                                                                                                  #          INPUT
000245:                                                                                                  #                RCV     POSITION VECTOR                 METERS
000246:                                                                                                  #                VCV     VELOCITY VECTOR                 M/CSEC
000247:                                                                                                  #                TET     TIME OF STATE VECTOR (MAY = 0)  CSEC B-28


000249:                                                                                                  #                TDEC1   TIME TO INTEGRATE TO            CSEC B-28 (PD 32D)
000250:                                                                                                  #                        (MAY BE INCREMENT IF TET=0)
000251:                                                                                                  #          OUTPUT
000252:                                                                                                  #                SAME AS FOR PRECISION OR CONIC INTEGRATION,
000253:                                                                                                  #                DEPENDING ON INTYPFLG.
000254:                                                                                                  #        D) INTEGRATE STATE VECTOR.  INTGRV ENTRANCE
000255:                                                                                                  #                L-X     STORE TIME IN PUSH LIST (TDEC1) (MAY BE DONE AFTER CALL TO INTSTALL)
000256:                                                                                                  #                L-8     CALL
000257:                                                                                                  #                L-7
000258:                                                                                                  #                L-6     SET(CLEAR)      SET(CLEAR)
000259:                                                                                                  #                L-5                     VINTFLAG        1=CSM, 0=LM
000260:                                                                                                  #                L-4                     INTYPFLAG       1=CONIC, 0=PRECISION
000261:                                                                                                  #                L-3     SET(CLEAR)      SET(CLEAR)
000262:                                                                                                  #                L-2                     DIM0FLAG        1=W-MATRIX, 0=NO W-MATRIX
000263:                                                                                                  #                L-1                     D6OR9FLG        1=9X9, 0=6X6
000264:                                                                                                  #                L       SET             DLOAD
000265:                                                                                                  #                L+1                     STATEFLG        DESIRE PERMANENT UPDATE
000266:                                                                                                  #                L+2                     FINAL RAD.      OF STATE VECTOR
000267:                                                                                                  #                L+3     STCALL          RFINAL
000268:                                                                                                  #                L+4                     INTEGRV
000269:                                                                                                  #                L       CALL                            NORMAL USE -- WILL UPDATE STATE
000270:                                                                                                  #                L+1                     INTEGRV         VECTOR IF DIM0FLAG=1. (STATEFLG IS
000271:                                                                                                  #                L+2     RETURN                          ALWAYS RESET IN INTEGRATION AFTER
000272:                                                                                                  #                                                        IT USED.)
000273:                                                                                                  #          INPUT
000274:                                                                                                  #                TDEC1 (PD 32D) TIME TO INTEGRATE TO     CSEC B-28
000275:                                                                                                  #          OUTPUT
000276:                                                                                                  #                SAME AS FOR PRECISION OR CONIC INTEGRATION
000277:                                                                                                  #          THE PROGRAM WILL SET MOONFLAG, MIDFLAG DEPENDING ON
000278:                                                                                                  #          THE PERMANENT STATE VECTOR REPRESENTATION.
000279:
000280: 11,2310                                           BANK     11
000281: 13,2000                                           SETLOC   INTINIT
000282: 13,2000                                           BANK
000283: 13,2561  E3,1554                                  EBANK=   RRECTCSM
000284: 13,2561                                           COUNT    13/INTIN
000285:
000286: 13,2561           05301        STATEINT           TC       PHASCHNG
000287: 13,2562           00052                           OCT      00052
000288: 13,2563           34754                           CAF      PRIO5
000289: 13,2564           05042                           TC       FINDVAC
000290: 13,2565  E3,1554                                  EBANK=   RRECTCSM
000291: 13,2565           02570 26063                     2CADR    STATINT1
000292:
000293: 13,2567           05213                           TC       TASKOVER
000294: 13,2570           06006        STATINT1           TC       INTPRET
000295: 13,2571           47014                           BON      RTB
000296: 13,2572           04712                                    QUITFLAG
000297: 13,2573           26630                                    NOINT                                 #  NO STATEINT IF V96
000298: 13,2574           45505                                    LOADTIME


000300: 13,2575           00041                           STORE    TDEC1
000301: 13,2576           77624                           CALL
000302: 13,2577           27371                                    INTSTALL
000303: 13,2600           45014                           SET      CALL
000304: 13,2601           01076                                    NODOFLAG
000305: 13,2602           26621                                    SETIFLGS
000306: 13,2603           77650                           GOTO
000307: 13,2604           26000                                    STATEUP
000308: 13,2605           00003 25140  600SECS            2DEC     60000      B-28
000309:
000310: 13,2607           77414        ENDINT             CLEAR    EXIT
000311: 13,2610           01672                                    STATEFLG
000312: 13,2611           05301                           TC       PHASCHNG
000313: 13,2612           20032                           OCT      20032
000314: 13,2613           00006                           EXTEND
000315: 13,2614           32606                           DCA      600SECS
000316: 13,2615           05231                           TC       LONGCALL
000317: 13,2616  E3,1554                                  EBANK=   RRECTHIS
000318: 13,2616           02561 26063                     2CADR    STATEINT
000319:
000320: 13,2620           05112                           TC       ENDOFJOB
000321: 13,2621           43014        SETIFLGS           SET      CLEAR
000322: 13,2622           01472                                    STATEFLG
000323: 13,2623           01673                                    INTYPFLG
000324: 13,2624           43014                           CLEAR    CLEAR
000325: 13,2625           01676                                    DIM0FLAG
000326: 13,2626           01675                                    D6OR9FLG
000327: 13,2627           77616                           RVQ
000328: 13,2630           77776        NOINT              EXIT
000329: 13,2631           05301                           TC       PHASCHNG
000330: 13,2632           00002                           OCT      2
000331:
000332: 13,2633           05447                           TC       DOWNFLAG
000333: 13,2634           00221                           ADRES    QUITFLAG
000334:
000335: 13,2635           05112                           TC       ENDOFJOB
000336:
000337:                                                                                                  #  ATOPCSM TRANSFERS RRECT TO RRECT +41 TO RRECTCSM TO RRECTCSM +41
000338:
000339:                                                                                                  #  CALLING SEQUENCE
000340:                                                                                                  #        L       CALL
000341:                                                                                                  #        L+1             ATOPCSM
000342:
000343:                                                                                                  #  NORMAL EXIT AT L+2
000344:
000345: 13,2636           47020        ATOPCSM            STQ      RTB
000346: 13,2637           00051                                    S2
000347: 13,2640           26651                                    MOVEACSM
000348: 13,2641           45014                           SET      CALL
000349: 13,2642           04063                                    CMOONFLG


000351: 13,2643           20237                                    SVDWN1
000352: 13,2644           43014                           BON      CLRGO
000353: 13,2645           00303                                    MOONFLAG
000354: 13,2646           00051                                    S2
000355: 13,2647           04223                                    CMOONFLG
000356: 13,2650           00051                                    S2
000357: 13,2651           03015        MOVEACSM           TC       SETBANK
000358: 13,2652           55500                           TS       DIFEQCNT                              #  INITIALIZE INDEX
000359: 13,2653           51500                           INDEX    DIFEQCNT
000360: 13,2654           31502                           CA       RRECT
000361: 13,2655           51500                           INDEX    DIFEQCNT
000362: 13,2656           55554                           TS       RRECTCSM
000363: 13,2657           11500                           CCS      DIFEQCNT                              #  IS TRANSFER COMPLETE
000364: 13,2660           12652                           TCF      MOVEACSM   +1                         #  NO-LOOP
000365: 13,2661           06030                           TC       DANZIG                                #  COMPLETE -- RETURN
000366:
000367:                                                                                                  #  PTOACSM TRANSFERS RRECTCSM TO RRECTCSM +41 TO RRECT TO RRECT +41
000368:
000369:                                                                                                  #  CALLING SEQUENCE
000370:                                                                                                  #        L       CALL
000371:                                                                                                  #                        PTOACSM
000372:
000373:                                                                                                  #  NORMAL EXIT AT L+2
000374:
000375: 13,2662           43034        PTOACSM            RTB      BON
000376: 13,2663           26700                                    MOVEPCSM
000377: 13,2664           04303                                    CMOONFLG
000378: 13,2665           26673                                    SETMOON
000379: 13,2666           66214        CLRMOON            CLEAR    SSP
000380: 13,2667           00263                                    MOONFLAG
000381: 13,2670           02151                                    PBODY
000382: 13,2671           00000                                    0
000383: 13,2672           77616                           RVQ
000384: 13,2673           66214        SETMOON            SET      SSP
000385: 13,2674           00063                                    MOONFLAG
000386: 13,2675           02151                                    PBODY
000387: 13,2676           00002                                    2
000388: 13,2677           77616                           RVQ
000389: 13,2700           03015        MOVEPCSM           TC       SETBANK
000390: 13,2701           55500                           TS       DIFEQCNT
000391: 13,2702           51500                           INDEX    DIFEQCNT
000392: 13,2703           31554                           CA       RRECTCSM
000393: 13,2704           51500                           INDEX    DIFEQCNT
000394: 13,2705           55502                           TS       RRECT
000395: 13,2706           11500                           CCS      DIFEQCNT
000396: 13,2707           12701                           TCF      MOVEPCSM   +1
000397: 13,2710           06030                           TC       DANZIG
000398:
000399:                                                                                                  #  ATOPLEM TRANSFERS RRECT TO RRECT +41 TO RRECTLEM TO RRECTLEM +41


000401: 13,2711           47020        ATOPLEM            STQ      RTB
000402: 13,2712           00051                                    S2
000403: 13,2713           26724                                    MOVEALEM
000404: 13,2714           45014                           SET      CALL
000405: 13,2715           04064                                    LMOONFLG
000406: 13,2716           20263                                    SVDWN2
000407: 13,2717           43014                           BON      CLRGO
000408: 13,2720           00303                                    MOONFLAG
000409: 13,2721           00051                                    S2
000410: 13,2722           04224                                    LMOONFLG
000411: 13,2723           00051                                    S2
000412: 13,2724           03015        MOVEALEM           TC       SETBANK
000413: 13,2725           55500                           TS       DIFEQCNT
000414: 13,2726           51500                           INDEX    DIFEQCNT
000415: 13,2727           31502                           CA       RRECT
000416: 13,2730           51500                           INDEX    DIFEQCNT
000417: 13,2731           55626                           TS       RRECTLEM
000418: 13,2732           11500                           CCS      DIFEQCNT
000419: 13,2733           12725                           TCF      MOVEALEM   +1
000420: 13,2734           06030                           TC       DANZIG
000421:
000422:                                                                                                  #  PTOALEM TRANSFERS RRECTLEM TO RRECTLEM +41 TO RRECT TO RRECT +41
000423:
000424: 13,2735           47014        PTOALEM            BON      RTB
000425: 13,2736           04307                                    SURFFLAG
000426: 13,2737           26756                                    USEPIOS
000427: 13,2740           26745                                    MOVEPLEM
000428: 13,2741           52014                           BON      GOTO
000429: 13,2742           04304                                    LMOONFLG
000430: 13,2743           26673                                    SETMOON
000431: 13,2744           26666                                    CLRMOON
000432: 13,2745           03015        MOVEPLEM           TC       SETBANK
000433: 13,2746           55500                           TS       DIFEQCNT
000434: 13,2747           51500                           INDEX    DIFEQCNT
000435: 13,2750           31626                           CA       RRECTLEM
000436: 13,2751           51500                           INDEX    DIFEQCNT
000437: 13,2752           55502                           TS       RRECT
000438: 13,2753           11500                           CCS      DIFEQCNT
000439: 13,2754           12746                           TCF      MOVEPLEM   +1
000440: 13,2755           06030                           TC       DANZIG
000441:
000442: 13,2756           77201        USEPIOS            SETPD    VLOAD
000443: 13,2757           00001                                    0
000444: 13,2760           02026                                    RLS
000445: 13,2761           41525                           PDDL     PUSH
000446: 13,2762           00041                                    TDEC1
000447: 13,2763           15517                           STODL    TET
000448: 13,2764           27756                                    5/8


000450: 13,2765           77624                           CALL
000451: 13,2766           55341                                    RP-TO-R
000452: 13,2767           25535                           STOVL    RCV
000453: 13,2770           11450                                    ZUNIT
000454: 13,2771           14001                           STODL    0D
000455: 13,2772           01517                                    TET
000456: 13,2773           14007                           STODL    6D
000457: 13,2774           27756                                    5/8
000458: 13,2775           45014                           SET      CALL                                  #  NEEDED FOR SETTING X1 ON EXIT
000459: 13,2776           00063                                    MOONFLAG
000460: 13,2777           55341                                    RP-TO-R
000461: 13,3000           74235                           VXV      VXSC
000462: 13,3001           01535                                    RCV
000463: 13,3002           27014                                    OMEGMOON
000464: 13,3003           25543                           STOVL    VCV
000465: 13,3004           11456                                    ZEROVEC
000466: 13,3005           01521                           STORE    TDELTAV
000467: 13,3006           67174                           AXT,2    SXA,2
000468: 13,3007           00002                                    2
000469: 13,3010           02150                                    PBODY
000470: 13,3011           35527                           STCALL   TNUV
000471: 13,3012           27136                                    A-PCHK
000472: 13,3013           07112 06620  OMEGMOON           2DEC*    2.66169947 E-8        B+23*
000473:
000474: 13,3015           33021        SETBANK            CAF      INTBANK
000475: 13,3016           54006                           TS       BBANK
000476: 13,3017           33436                           CAF      FORTYONE
000477: 13,3020           00002                           TC       Q
000478: 13,3021  E3,1554                                  EBANK=   RRECTCSM
000479: 13,3021           26063        INTBANK            BBCON    INTEGRV
000480:
000481:                                                                                                  #  SPECIAL PURPOS ENTRIES TO ORBITAL INTEGRATION.  THESE ROUTINES PROVIDE ENTRANCES TO INTEGRATION WITH
000482:                                                                                                  #  APPROPRIATE SWITCHES SET OR CLEARED FOR TEH DESIRED INTEGRATION.
000483:
000484:                                                                                                  #  CSMPREC AND LEMPREC PERFORM ORBIT INTEGRATION BY THE ENCKE METHOD TO THE TIME INDICATED IN TDEC1.
000485:                                                                                                  #  ACCELERATIONS DUE TO OBLATENESS ARE INCLUDED.  NO W-MATRIX INT. IS DONE.
000486:                                                                                                  #  THE PERMANENT STATE VECTOR IS NOT UPDATED.
000487:
000488:                                                                                                  #  CSMCONIC AND LEMCONIC PERFORM ORBIT INTEG. BY KEPLER'S METHOD TO THE TIME INDICATED IN TDEC1.
000489:                                                                                                  #  NO DISTURBING ACCELERATIONS ARE INCLUDED.  IN THE PROGRAM FLOW THE GIVEN
000490:                                                                                                  #  STATE VECTOR IS RECTIFIED BEFORE SOLUTION OF KEPLER'S EQUATION.
000491:
000492:                                                                                                  #  THE ROUTINES ASSUME THAT THE CSM (LEM) STATE VECTOR IN P-MEM IS VALID.
000493:                                                                                                  #  SWITCHES SET PRIOR TO ENTRY TO THE MAIN INTEG. PROG ARE AS FOLLOWS:
000494:                                                                                                  #                        CSMPREC         CSMCONIC        LEMPREC         LEMCONIC
000495:                                                                                                  #        VINTFLAG        SET             SET             CLEAR           CLEAR
000496:                                                                                                  #        INTYPFLG        CLEAR           SET             CLEAR           SET
000497:                                                                                                  #        DIM0FLAG        CLEAR           CLEAR           CLEAR           CLEAR


000499:
000500:                                                                                                  #  CALLING SEQUENCE
000501:                                                                                                  #        L-X     STORE   TDEC1
000502:                                                                                                  #        L       CALL                    (STCALL TDEC1)
000503:                                                                                                  #        L+1             CSMPREC         (CSMCONIC, LEMPREC, LEMCONIC)
000504:
000505:                                                                                                  #  NORMAL EXIT TO L+2
000506:
000507:                                                                                                  #  SUBROUTINES CALLED
000508:                                                                                                  #        INTEGRV1
000509:                                                                                                  #        PRECOUT FOR CSMPREC AND LEMPREC
000510:                                                                                                  #        CONICOUT FOR CSMCONIC AND LEMCONIC
000511:
000512:                                                                                                  #  OUTPUT -- SEE PAGE 2 OF THIS LOG SECTION
000513:
000514:                                                                                                  #  INPUT
000515:                                                                                                  #        TDEC1           TIME TO INTEGRATE TO.  CSECS B-28
000516:
000517: 13,3022           45020        CSMPREC            STQ      CALL
000518: 13,3023           00046                                    X1
000519: 13,3024           27371                                    INTSTALL
000520: 13,3025           43130                           SXA,1    SET
000521: 13,3026           02214                                    IRETURN
000522: 13,3027           01474                                    VINTFLAG
000523:
000524: 13,3030           43014        IFLAGP             SET      CLEAR
000525: 13,3031           01467                                    PRECIFLG
000526: 13,3032           01676                                    DIM0FLAG
000527: 13,3033           77614                           CLRGO
000528: 13,3034           01633                                    INTYPFLG
000529: 13,3035           27115                                    INTEGRV1
000530: 13,3036           45020        LEMPREC            STQ      CALL
000531: 13,3037           00046                                    X1
000532: 13,3040           27371                                    INTSTALL
000533: 13,3041           43130                           SXA,1    CLRGO
000534: 13,3042           02214                                    IRETURN
000535: 13,3043           01634                                    VINTFLAG
000536: 13,3044           27030                                    IFLAGP
000537:
000538: 13,3045           45020        CSMCONIC           STQ      CALL
000539: 13,3046           00046                                    X1
000540: 13,3047           27371                                    INTSTALL
000541: 13,3050           43130                           SXA,1    SET
000542: 13,3051           02214                                    IRETURN
000543: 13,3052           01474                                    VINTFLAG
000544: 13,3053           43014        IFLAGC             CLEAR    SETGO
000545: 13,3054           01676                                    DIM0FLAG
000546: 13,3055           01433                                    INTYPFLG
000547: 13,3056           27115                                    INTEGRV1
000548: 13,3057           45020        LEMCONIC           STQ      CALL
000549: 13,3060           00046                                    X1


000551: 13,3061           27371                                    INTSTALL
000552: 13,3062           43130                           SXA,1    CLRGO
000553: 13,3063           02214                                    IRETURN
000554: 13,3064           01634                                    VINTFLAG
000555: 13,3065           27053                                    IFLAGC
000556:
000557: 13,3066           66214        INTEGRVS           SET      SSP
000558: 13,3067           01467                                    PRECIFLG
000559: 13,3070           02151                                    PBODY
000560: 13,3071           00000                                    0
000561: 13,3072           66214                           BOF      SSP
000562: 13,3073           00343                                    MOONFLAG
000563: 13,3074           27077                                    +3
000564: 13,3075           02151                                    PBODY
000565: 13,3076           00002                                    2
000566: 13,3077           77220                           STQ      VLOAD
000567: 13,3100           02214                                    IRETURN
000568: 13,3101           11456                                    ZEROVEC
000569: 13,3102           01521                           STORE    TDELTAV
000570: 13,3103           35527                           STCALL   TNUV
000571: 13,3104           23344                                    RECTIFY
000572: 13,3105           43014                           CLEAR    SET
000573: 13,3106           01676                                    DIM0FLAG
000574: 13,3107           04062                                    NEWIFLG
000575: 13,3110           77614                           SETGO
000576: 13,3111           04020                                    RPQFLAG
000577: 13,3112           27127                                    ALOADED
000578:
000579:                                                                                                  #  INTEGRV IS AN ENTRY TO ORBIT INTEGRATION WHICH PERMITS THE CALLER,
000580:                                                                                                  #  NORMALLY THE NAVIGATION PROGRAM, TO SET THE INTEG. FLAGS.  THE ROUTINE
000581:                                                                                                  #  IS ENTERED AT INTEGRV1 BY CSMPREC ET. AL. AND AT ALOADED BY INTEGRVS.
000582:                                                                                                  #  THE ROUTINE SETS UP A-MEMORY IF ENTERED AT INTEGRV,1 AND SETS THE INTEG.
000583:                                                                                                  #  PROGRAM FOR PRECISION OR CONIC.
000584:
000585:                                                                                                  #  THE CALLER MUST FIRST CALL INTSTALL TO CHECK IF INTEG. IS IN USE BEFORE
000586:                                                                                                  #  SETTING ANY FLAGS.
000587:
000588:                                                                                                  #  THE FLAGS WHICH SHOULD BE SET OR CLEARED ARE
000589:                                                                                                  #        VINTFLAG        (IGNORED WHEN ENTERED FROM INTEGRVS)
000590:                                                                                                  #        INTYPFLG
000591:                                                                                                  #        DIM0FLAG
000592:                                                                                                  #        D6OR9FLG
000593:
000594:                                                                                                  #  CALLING SEQUENCE
000595:                                                                                                  #        L-X     CALL
000596:                                                                                                  #        L-Y             INTSTALL
000597:                                                                                                  #        L-1     SET OR CLEAR ALL FOUR FLAGS.  ALSO CAN SET STATEFLG IF DESIRED
000598:                                                                                                  #                AND DIM0FLAG IS CLEAR.
000599:                                                                                                  #        L       CALL
000600:                                                                                                  #        L+1             INTEGRV
000601:
000602:                                                                                                  #  INITIALIZATION
000603:                                                                                                  #        FLAGS AS ABOVE
000604:                                                                                                  #        STORE TIME TO INTEGRATE TO IN TDEC1
000605:


000607:                                                                                                  #  OUTPUT
000608:                                                                                                  #        RATT    AS
000609:                                                                                                  #        VATT          DEFINED
000610:                                                                                                  #        TAT                     BEFORE
000611:
000612: 13,3113           77620        INTEGRV            STQ
000613: 13,3114           02214                                    IRETURN
000614: 13,3115           43014        INTEGRV1           SET      SET
000615: 13,3116           04060                                    RPQFLAG
000616: 13,3117           04062                                    NEWIFLG
000617: 13,3120           77731        INTEGRV2           SSP
000618: 13,3121           00053                                    QPRET
000619: 13,3122           27127                                    ALOADED
000620: 13,3123           52014                           BON      GOTO
000621: 13,3124           01714                                    VINTFLAG
000622: 13,3125           26662                                    PTOACSM
000623: 13,3126           26735                                    PTOALEM
000624: 13,3127           77745        ALOADED            DLOAD
000625: 13,3130           00041                                    TDEC1
000626: 13,3131           01101                           STORE    TDEC
000627: 13,3132           52014                           BOFF     GOTO
000628: 13,3133           01753                                    INTYPFLG
000629: 13,3134           27234                                    TESTLOOP
000630: 13,3135           27220                                    RVCON
000631: 13,3136           77414        A-PCHK             BOFCLR   EXIT
000632: 13,3137           01652                                    STATEFLG
000633: 13,3140           27157                                    RECTOUT
000634: 13,3141           05301                           TC       PHASCHNG
000635: 13,3142           04022                           OCT      04022
000636: 13,3143           05435                           TC       UPFLAG                                #  PHASE CHANGE HAS OCCURRED BETWEEN
000637: 13,3144           00236                           ADRES    REINTFLG                              #  INTSTALL AND INTWAKE
000638: 13,3145           06006                           TC       INTPRET
000639: 13,3146           77731                           SSP
000640: 13,3147           00053                                    QPRET
000641: 13,3150           27155                                    PHEXIT
000642: 13,3151           52014                           BON      GOTO
000643: 13,3152           01714                                    VINTFLAG
000644: 13,3153           26636                                    ATOPCSM
000645: 13,3154           26711                                    ATOPLEM
000646: 13,3155           77624        PHEXIT             CALL
000647: 13,3156           56741                                    GRP2PC
000648: 13,3157           45001        RECTOUT            SETPD    CALL
000649: 13,3160           00001                                    0
000650: 13,3161           23344                                    RECTIFY
000651: 13,3162           53775                           VLOAD    VSL*
000652: 13,3163           01503                                    RRECT
000653: 13,3164           57576                                    0,2
000654: 13,3165           53715                           PDVL     VSL*                                  #  RATT TO PD0
000655: 13,3166           01511                                    VRECT


000657: 13,3167           57576                                    0,2
000658: 13,3170           63325                           PDDL     PDVL                                  #  VATT TO PD6   TAT TO PD12
000659: 13,3171           01517                                    TET
000660: 13,3172           01503                                    RRECT
000661: 13,3173           64715                           PDVL     PDDL*
000662: 13,3174           01511                                    VRECT
000663: 13,3175           50041                                    MUEARTH,2
000664: 13,3176           76006                           PUSH     AXT,1
000665: 13,3177           77765                           DEC      -10        B-14
000666: 13,3200           76014                           BON      AXT,1
000667: 13,3201           00303                                    MOONFLAG
000668: 13,3202           27204                                    +2
000669: 13,3203           77775                           DEC      -2         B-14
000670: 13,3204           40001        INTEXIT            SETPD    BOV
000671: 13,3205           00001                                    0
000672: 13,3206           27207                                    +1
000673: 13,3207           43014                           CLEAR    CLEAR
000674: 13,3210           04676                                    AVEMIDSW                              #  ALLOW UPDATE OF DOWNLINK STATE VECTOR
000675: 13,3211           01667                                    PRECIFLG
000676: 13,3212           77535                           SLOAD    EXIT
000677: 13,3213           02215                                    IRETURN
000678: 13,3214           30154                           CA       MPAC
000679: 13,3215           50120                           INDEX    FIXLOC
000680: 13,3216           54052                           TS       QPRET
000681: 13,3217           03406                           TC       INTWAKE
000682:
000683:                                                                                                  #  RVCON SETS UP ORBIT INTEGRATION TO DO A CONIC SOLUTION FOR POSITION AND
000684:                                                                                                  #  VELOCITY FOR THE INTERVAL (TET-TDEC)
000685:
000686: 13,3220           45345        RVCON              DLOAD    DSU
000687: 13,3221           01101                                    TDEC
000688: 13,3222           01517                                    TET
000689: 13,3223           36312                           STCALL   TAU.
000690: 13,3224           23344                                    RECTIFY
000691: 13,3225           77624                           CALL
000692: 13,3226           22310                                    KEPPREP
000693: 13,3227           43345                           DLOAD    DAD
000694: 13,3230           01551                                    TC
000695: 13,3231           01517                                    TET
000696: 13,3232           35517                           STCALL   TET
000697: 13,3233           27157                                    RECTOUT
000698:


000700: 13,3234           43014        TESTLOOP           BOF      CLRGO
000701: 13,3235           04752                                    QUITFLAG
000702: 13,3236           27241                                    +3
000703: 13,3237           01632                                    STATEFLG
000704: 13,3240           27204                                    INTEXIT                               #  STOP INTEGRATION
000705: 13,3241           73001                 +3        SETPD    LXA,2
000706: 13,3242           00013                                    10D
000707: 13,3243           02150                                    PBODY
000708: 13,3244           51575                           VLOAD    ABVAL
000709: 13,3245           01535                                    RCV
000710: 13,3246           43006                           PUSH     CLEAR                                 #  RC TO 10D
000711: 13,3247           00262                                    MIDFLAG
000712: 13,3250           50023                           DSU*     BMN                                   #  MIDFLAG=0 IF R G.T. RMP
000713: 13,3251           67241                                    RME,2
000714: 13,3252           27255                                    +3
000715: 13,3253           77614                           SET
000716: 13,3254           00062                                    MIDFLAG
000717: 13,3255           41345        NORFINAL           DLOAD    DMP
000718: 13,3256           00013                                    10D
000719: 13,3257           00043                                    34D
000720: 13,3260           55762                           SR1R     DDV*
000721: 13,3261           50041                                    MUEARTH,2
000722: 13,3262           41366                           SQRT     DMP
000723: 13,3263           23675                                    .3D
000724: 13,3264           40442                           SR3      SR4                                   #  DT IS TRUNCATED TO A MULTIPLE
000725: 13,3265           54345                           DLOAD    SL
000726: 13,3266           00155                                    MPAC
000727: 13,3267           20220                                    15D                                   #        OF 128 CSECS.
000728: 13,3270           40006                           PUSH     BOV
000729: 13,3271           27316                                    MAXDT
000730: 13,3272           50021                           BDSU     BMN
000731: 13,3273           27370                                    DT/2MAX
000732: 13,3274           27316                                    MAXDT
000733: 13,3275           45345        DT/2COMP           DLOAD    DSU
000734: 13,3276           01101                                    TDEC
000735: 13,3277           01517                                    TET
000736: 13,3300           54234                           RTB      SL
000737: 13,3301           45541                                    SGNAGREE
000738: 13,3302           20211                                    8D
000739: 13,3303           02314                           STORE    DT/2                                  #  B-19
000740: 13,3304           51400                           BOV      ABS
000741: 13,3305           27322                                    GETMAXDT
000742: 13,3306           50025                           DSU      BMN                                   #  IS TIME TO INTEG. TO GR THAN MAXTIME
000743: 13,3307           00015                                    12D
000744: 13,3310           27326                                    P00HCHK
000745: 13,3311           75345        USEMAXDT           DLOAD    SIGN
000746: 13,3312           00015                                    12D
000747: 13,3313           02314                                    DT/2


000749: 13,3314           36314                           STCALL   DT/2
000750: 13,3315           27326                                    P00HCHK
000751: 13,3316           65345        MAXDT              DLOAD    PDDL                                  #  EXCHANGE DT/2MAX WITH COMPUTED MAX.
000752: 13,3317           27370                                    DT/2MAX
000753: 13,3320           77650                           GOTO
000754: 13,3321           27275                                    DT/2COMP
000755: 13,3322           77634        GETMAXDT           RTB
000756: 13,3323           45707                                    SIGNMPAC
000757: 13,3324           36314                           STCALL   DT/2
000758: 13,3325           27311                                    USEMAXDT
000759: 13,3326           51545        P00HCHK            DLOAD    ABS
000760: 13,3327           02314                                    DT/2
000761: 13,3330           50025                           DSU      BMN
000762: 13,3331           27366                                    DT/2MIN
000763: 13,3332           27136                                    A-PCHK
000764: 13,3333           46135                           SLOAD    BHIZ
000765: 13,3334           01012                                    MODREG
000766: 13,3335           27340                                    +3
000767: 13,3336           77650                           GOTO
000768: 13,3337           23155                                    TIMESTEP
000769: 13,3340           77614                           BON                                            #  WAS THIS CALL VIA CSM(LEM)PREC
000770: 13,3341           01707                                    PRECIFLG
000771: 13,3342           23155                                    TIMESTEP                              #  YES
000772: 13,3343           45345                           DLOAD    DSU
000773: 13,3344           02314                                    DT/2
000774: 13,3345           00015                                    12D
000775: 13,3346           43040                           BMN      BOFCLR
000776: 13,3347           27136                                    A-PCHK
000777: 13,3350           04242                                    NEWIFLG
000778: 13,3351           23155                                    TIMESTEP
000779: 13,3352           45345                           DLOAD    DSU
000780: 13,3353           01101                                    TDEC
000781: 13,3354           01517                                    TET
000782: 13,3355           77640                           BMN                                            #  NO BACKWARD INTEGRATION
000783: 13,3356           27204                                    INTEXIT
000784: 13,3357           40525                           PDDL     SR4
000785: 13,3360           02314                                    DT/2                                  #  IS 4(DT) LS (TDEC - TET)
000786: 13,3361           44322                           SR2R     BDSU
000787: 13,3362           52040                           BMN      GOTO
000788: 13,3363           27204                                    INTEXIT
000789: 13,3364           23155                                    TIMESTEP
000790: 13,3365           00000 01400  DT/2MIN            2DEC     3          B-20
000791: 13,3367           14152 00000  DT/2MAX            2DEC     4000       E2         B-20
000792:
000793: 13,3371           77776        INTSTALL           EXIT
000794: 13,3372           34714                           CAF      ZERO
000795: 13,3373           54001        ALLSTALL           TS       L
000796: 13,3374           30106                           CA       RASFLAG
000797: 13,3375           50001                           INDEX    L


000799: 13,3376           73467                           MASK     INTBITAB                              #  IS THIS STALL AREA FREE
000800: 13,3377           00006                           EXTEND
000801: 13,3400           13445                           BZF      OKTOGRAB                              #  YES
000802: 13,3401           50001                           INDEX    L
000803: 13,3402           33464                           CAF      WAKESTAL
000804: 13,3403           05070                           TC       JOBSLEEP
000805: 13,3404           77776        INTWAKE0           EXIT
000806: 13,3405           13426                           TCF      INTWAKE1
000807:
000808: 13,3406           40106        INTWAKE            CS       RASFLAG                               #  IS THIS INTSTALLED ROUTINE TO BE
000809: 13,3407           74704                           MASK     REINTBIT                              #        RESTARTED
000810: 13,3410           10000                           CCS      A
000811: 13,3411           03426                           TC       INTWAKE1                              #  NO
000812:
000813: 13,3412           50120                           INDEX    FIXLOC
000814: 13,3413           30052                           CA       QPRET
000815: 13,3414           55055                           TS       TBASE2                                #  YES, DON'T RESTART WITH SOMEONE ELSE'S Q
000816:
000817: 13,3415           05301                           TC       PHASCHNG
000818: 13,3416           04022                           OCT      04022
000819:
000820: 13,3417           31055                           CA       TBASE2
000821: 13,3420           50120                           INDEX    FIXLOC
000822: 13,3421           54052                           TS       QPRET
000823:
000824: 13,3422           34704                           CAF      REINTBIT
000825: 13,3423           70106                           MASK     RASFLAG
000826: 13,3424           00006                           EXTEND
000827: 13,3425           13450                           BZF      GOBAC                                 #  DON'T INTWAKE IF WE CAME HERE VIA RESTART
000828:
000829: 13,3426           34714        INTWAKE1           CAF      ZERO
000830: 13,3427           54154        WAKE               TS       STALTEM                               #  INDEX OF ANY STALL USER
000831: 13,3430           50154        WAKE1              INDEX    STALTEM
000832: 13,3431           33464                           CAF      WAKESTAL
000833: 13,3432           00004                           INHINT
000834: 13,3433           05074                           TC       JOBWAKE
000835: 13,3434           10064                           CCS      LOCCTR
000836: 13,3435           13430                           TCF      WAKE1                                 #  MAY BE MORE TO WAKE UP
000837: 13,3436           00051        FORTYONE           DEC      41         B-14
000838: 13,3437           50154                           INDEX    STALTEM
000839: 13,3440           43467                           CS       INTBITAB
000840: 13,3441           70106                           MASK     RASFLAG
000841: 13,3442           54106                           TS       RASFLAG                               #  RELEASE STALL AREA
000842: 13,3443           00003                           RELINT
000843: 13,3444           13450                           TCF      GOBAC
000844: 13,3445           50001        OKTOGRAB           INDEX    L
000845: 13,3446           34675                           CAF      INTFLBIT
000846: 13,3447           26106                           ADS      RASFLAG
000847: 13,3450           06006        GOBAC              TC       INTPRET
000848: 13,3451           77616                           RVQ


000850: 13,3452           77776        ERASTAL1           EXIT
000851: 13,3453           34712                           CAF      ONE
000852: 13,3454           13373                           TCF      ALLSTALL
000853: 13,3455           77776        ERASTAL2           EXIT
000854: 13,3456           34711                           CAF      TWO
000855: 13,3457           13373                           TCF      ALLSTALL
000856: 13,3460           34712        ERASWAK1           CAF      ONE
000857: 13,3461           13427                           TCF      WAKE
000858: 13,3462           34711        ERASWAK2           CAF      TWO
000859: 13,3463           13427                           TCF      WAKE
000860: 13,3464           27372        WAKESTAL           CADR     INTSTALL   +1
000861: 13,3465           27453                           CADR     ERASTAL1   +1
000862: 13,3466           27456                           CADR     ERASTAL2   +1
000863: 13,3467     0154               STALTEM            EQUALS   MPAC
000864: 13,3467           20100        INTBITAB           OCT      20100
000865: 13,3470           10040                           OCT      10040
000866: 13,3471           04020                           OCT      04020
000867:


000869:                                                                                                  #  AVETOMID
000870:
000871:                                                                                                  #  THIS ROUTINE PERFORMS THE TRANSITION FROM A THRUSTING PHASE TO THE COAST
000872:                                                                                                  #  PHASE BY INITIALIZING THIS VEHICLE'S PERMANENT STATE VECTOR WITH THE
000873:                                                                                                  #  VALUES LEFT BY THE AVERAGEG ROUTINE IN RN,VN,PIPTIME.
000874:
000875:                                                                                                  #  BEFORE THIS IS DONE THE W-MATRIX, IF ITS VALID (OR WFLAG OR RENDWFLT IS
000876:                                                                                                  #  SET) IS INTEGRATED FORWARD TO PIPTIME WITH THE PRE-THRUST STATE VECTOR.
000877:
000878:                                                                                                  #  IN ADDITION, THE OTHER VEHICLE IS INTEGRATED (PERMANENT) TO PIPTIME.
000879:
000880:                                                                                                  #  FINALLY TRKMKCNT IS ZEROED.
000881:
000882: 13,2000                                           SETLOC   INTINIT
000883: 13,2000                                           BANK
000884:
000885: 13,3472                                           COUNT*   $$/INTIN
000886: 13,3472           43020        AVETOMID           STQ      BON
000887: 13,3473           02317                                    EGRESS
000888: 13,3474           02716                                    RENDWFLG
000889: 13,3475           27550                                    INT/W                                 #  W-MATRIX VALID, GO INTEGRATE IT
000890: 13,3476           77614                           BON
000891: 13,3477           01711                                    ORBWFLAG
000892: 13,3500           27550                                    INT/W                                 #  W-MATRIX VALID, GO INTEGRATE IT.
000893:
000894: 13,3501           77614        OTHERS             BON                                            #                FOR
000895: 13,3502           04307                                    SURFFLAG                              #                    CSM
000896: 13,3503           27520                                    SETCOAST                              #  DON'T DO LM           ONLY
000897: 13,3504           45145                           DLOAD    CALL                                  #  GET SET FOR OTHER VEHICLE INTEGRATION
000898: 13,3505           01205                                    PIPTIME                               #  DESIRED TIME
000899: 13,3506           27371                                    INTSTALL
000900: 13,3507           45014                           SET      CALL
000901: 13,3510           01474                                    VINTFLAG                              #  CM
000902: 13,3511           26621                                    SETIFLGS                              #  SETS UP NONE W-MAT. PERMANENT INTEG.
000903: 13,3512           43014                           BOF      CLEAR
000904: 13,3513           02747                                    COMPUTER
000905: 13,3514           27516                                    +2                                    #  COMPUTER IS LM, INTEG CM.
000906: 13,3515           01674                                    VINTFLAG                              #  COMPUTER IS CM, INTEG LM.
000907: 13,3516           34041                           STCALL   TDEC1
000908: 13,3517           27113                                    INTEGRV
000909:
000910: 13,3520           45174        SETCOAST           AXT,2    CALL                                  #  NOW MOVE PROPERLY SCALE RN,UN AS WELL AS
000911: 13,3521           00002                                    2                                     #  PIPTIME TO INTEGRATION ERASABLES.
000912: 13,3522           27371                                    INTSTALL
000913: 13,3523           77014                           BON      AXT,2
000914: 13,3524           04303                                    MOONTHIS
000915: 13,3525           27527                                    +2
000916: 13,3526           00000                                    0
000917: 13,3527           53775                           VLOAD    VSR*


000919: 13,3530           01171                                    RN
000920: 13,3531           57176                                    0,2
000921: 13,3532           01503                           STORE    RRECT
000922: 13,3533           15535                           STODL    RCV
000923: 13,3534           01205                                    PIPTIME
000924: 13,3535           25517                           STOVL    TET
000925: 13,3536           01177                                    VN
000926: 13,3537           45057                           VSR*     CALL
000927: 13,3540           57176                                    0,2
000928: 13,3541           23360                                    MINIRECT                              #  FINISH SETTING UP STATE VECTOR
000929: 13,3542           66234                           RTB      SSP
000930: 13,3543           26651                                    MOVATHIS                              #  PUT TEMP STATE VECTOR INTO PERMANENT
000931: 13,3544           01127                                    TRKMKCNT
000932: 13,3545           00000                                    0
000933: 13,3546           77650                           GOTO
000934: 13,3547           75745                                    FAZAB5
000935:
000936: 13,3550           45145        INT/W              DLOAD    CALL
000937: 13,3551           01205                                    PIPTIME                               #  INTEGRATE W THRU BURN
000938: 13,3552           27371                                    INTSTALL
000939: 13,3553           43014                           SET      SET
000940: 13,3554           01476                                    DIM0FLAG                              #  DO W-MATRIX
000941: 13,3555           04476                                    AVEMIDSW                              #  SO WON'T CLOBBER RN,VN,PIPTIME
000942: 13,3556           43014                           SET      CLEAR
000943: 13,3557           01475                                    D6OR9FLG                              #  9X9 FOR LM
000944: 13,3560           01674                                    VINTFLAG                              #  LM
000945: 13,3561           43014                           BOF      SET
000946: 13,3562           02747                                    COMPUTER
000947: 13,3563           27567                                    +4                                    #  LM TO DO
000948: 13,3564           01474                                    VINTFLAG
000949: 13,3565           77614                           CLEAR
000950: 13,3566           01675                                    D6OR9FLG                              #  6X6 FOR CM
000951: 13,3567           34041                           STCALL   TDEC1
000952: 13,3570           27113                                    INTEGRV
000953: 13,3571           77650                           GOTO
000954: 13,3572           27501                                    OTHERS                                #  NOW GO DO THE OTHER VEHICLE
000955:


000957:                                                                                                  #  MIDTOAV1
000958:
000959:                                                                                                  #  THIS ROUTINE INTEGRATES (PRECISION) TO THE TIME SPECIFIED IN TDEC1.
000960:                                                                                                  #  IF, AT THE END OF AN INTEGRATION TIME STEP, CURRENT TIME PLUS A DELTA
000961:                                                                                                  #  TIME (SEE TIMEDELT.....BASED ON THE COMPUTATION TIME FOR ONE TIME STEP)
000962:                                                                                                  #  IS GREATER THAN THE DESIRED TIME, ALARM 1703 IS SET AND THE INTEGRATION
000963:                                                                                                  #  IS DONE TO THE CURRENT TIME.
000964:                                                                                                  #  RETURN IS IN BASIC TO THE RETURN ADDRESS PLUS ONE.
000965:
000966:                                                                                                  #  IF THE INTEGRATION IS FINISHED TO THE DESIRED TIME, RETURN IS IN BASIC
000967:                                                                                                  #  TO THE RETURN ADDRESS.
000968:
000969:                                                                                                  #  IN EITHER CASE, BEFORE RETURNING, THE EXTRAPOLATED STATE VECTOR IS TRANSFERRED
000970:                                                                                                  #  FROM R,VATT TO R,VN1 -- PIPTIME1 IS SET TO THE FINISHING INTEGRATION
000971:                                                                                                  #  TIME AND MPAC IS SET TO THE DELTA TIME --
000972:                                                                                                  #                        TAT MINUS CURRENT TIME
000973:
000974:                                                                                                  #  MIDTOAV2
000975:
000976:                                                                                                  #  THIS ROUTINE INTEGRATES THIS VEHICLE'S STATE VECTOR TO THE CURRENT TIME.
000977:                                                                                                  #  NO INPUTS ARE REQUIRED OF THE CALLER.  RETURN IS IN BASIC TO THE RETURN
000978:                                                                                                  #  ADDRESS WITH THE ABOVE TRANSFERS TO R,VN1 -- PIPTIME1 -- AND MPAC DONE
000979:
000980: 13,3573     1127                                  EBANK=   IRETURN1
000981: 13,3573           43020        MIDTOAV2           STQ      CLRGO                                 #  INTEGRATE TO PRESENT TIME PLUS TIMEDELT
000982: 13,3574           01127                                    IRETURN1
000983: 13,3575           04634                                    MID1FLAG
000984: 13,3576           27612                                    ENTMID2
000985:
000986: 13,3577           43020        MIDTOAV1           STQ      SET                                   #  INTEGRATE TO TDEC1
000987: 13,3600           01127                                    IRETURN1
000988: 13,3601           04474                                    MID1FLAG
000989: 13,3602           43234                           RTB      DAD                                   #  INITIAL CHECK, IS TDEC1 IN THE FUTURE
000990: 13,3603           45505                                    LOADTIME
000991: 13,3604           27714                                    TIMEDELT
000992: 13,3605           51021                           BDSU     BPL
000993: 13,3606           00041                                    TDEC1
000994: 13,3607           27616                                    ENTMID1                               #  Y5S
000995: 13,3610           77624                           CALL
000996: 13,3611           27702                                    NOTIME                                #  NO, SET ALARM, SWITCH TO MIDTOAV2
000997:
000998: 13,3612           43234        ENTMID2            RTB      DAD
000999: 13,3613           45505                                    LOADTIME
001000: 13,3614           27714                                    TIMEDELT
001001: 13,3615           00041                           STORE    TDEC1
001002:
001003: 13,3616           77624        ENTMID1            CALL
001004: 13,3617           27371                                    INTSTALL
001005: 13,3620           45014                           CLEAR    CALL


001007: 13,3621           01676                                    DIM0FLAG                              #  NO W-MATRIX
001008: 13,3622           26034                                    THISVINT
001009: 13,3623           43014                           CLEAR    SET
001010: 13,3624           01673                                    INTYPFLG
001011: 13,3625           04475                                    MIDAVFLG                              #  LET INTEG. KNOW THE CALL IS FOR MIDTOAV.
001012: 13,3626           77624                           CALL
001013: 13,3627           27113                                    INTEGRV                               #  GO INTEGRATE
001014: 13,3630           77214                           CLEAR    VLOAD
001015: 13,3631           04675                                    MIDAVFLG
001016: 13,3632           00001                                    RATT
001017: 13,3633           25232                           STOVL    RN1
001018: 13,3634           00007                                    VATT
001019: 13,3635           15240                           STODL    VN1
001020: 13,3636           00015                                    TAT
001021: 13,3637           01246                           STORE    PIPTIME1
001022: 13,3640           66134                           SXA,2    SXA,1
001023: 13,3641           03746                                    RTX2
001024: 13,3642           03745                                    RTX1
001025: 13,3643           77776                           EXIT
001026:
001027: 13,3644           00004                           INHINT
001028: 13,3645           00006                           EXTEND
001029: 13,3646           40025                           DCS      TIME2
001030: 13,3647           20155                           DAS      MPAC
001031: 13,3650           07226                           TC       TPAGREE
001032:
001033: 13,3651           31127                           CA       IRETURN1
001034: 13,3652           04577                           TC       BANKJUMP
001035: 13,3653           47014        CKMID2             BOF      RTB
001036: 13,3654           04754                                    MID1FLAG
001037: 13,3655           27672                                    MID2
001038: 13,3656           45505                                    LOADTIME
001039: 13,3657           44215                           DAD      BDSU
001040: 13,3660           27714                                    TIMEDELT
001041: 13,3661           01101                                    TDEC
001042: 13,3662           45044                           BPL      CALL
001043: 13,3663           27234                                    TESTLOOP                              #  YES
001044: 13,3664           27702                                    NOTIME
001045:
001046: 13,3665           43234        TIMEINC            RTB      DAD
001047: 13,3666           45505                                    LOADTIME
001048: 13,3667           27714                                    TIMEDELT
001049: 13,3670           35101                           STCALL   TDEC
001050: 13,3671           27234                                    TESTLOOP
001051:
001052: 13,3672           45345        MID2               DLOAD    DSU
001053: 13,3673           01101                                    TDEC
001054: 13,3674           01517                                    TET
001055: 13,3675           45246                           ABS      DSU
001056: 13,3676           27712                                    3CSECS
001057:


001059: 13,3677           52040                           BMN      GOTO
001060: 13,3700           27136                                    A-PCHK
001061: 13,3701           27665                                    TIMEINC
001062:
001063: 13,3702           77414        NOTIME             CLEAR    EXIT                                  #  TOO LATE
001064: 13,3703           04674                                    MID1FLAG
001065: 13,3704           25127                           INCR     IRETURN1                              #  SET ERROR EXIT (CALLOC +2)
001066: 13,3705           05537                           TC       ALARM                                 #  INSUFFICIENT TIME FOR INTEGRATION --
001067: 13,3706           01703                           OCT      1703                                  #        TIG WILL BE SLIPPED...
001068: 13,3707           06006                           TC       INTPRET
001069: 13,3710           77616                           RVQ
001070:
001071: 13,3711           00000 00003  3CSECS             2DEC     3          B-28
001072: 13,3713           00000 02342  TIMEDELT           2DEC     1250       B-28
001073:
001074: 27,2662                                           BANK     27
001075: 27,2000                                           SETLOC   UPDATE2
001076: 27,2000                                           BANK
001077: 27,2662     0330                                  EBANK=   INTWAKUQ
001078:
001079: 27,2662                                           COUNT*   $$/INTIN
001080:
001081: 27,2662     0330               INTWAKUQ           =        INTWAK1Q                              #  TEMPORARY UNTIL NAME OF INTWAK1Q IS CHNG
001082:
001083: 27,2662           00003        INTWAKEU           RELINT
001084: 27,2663           00006                           EXTEND
001085: 27,2664           22330                           QXCH     INTWAKUQ                              #  SAVE Q FOR RETURN
001086:
001087: 27,2665           06006                           TC       INTPRET
001088:
001089: 27,2666           53135                           SLOAD    BZE                                   #  IS THIS A CSM/LEM STATE VECTOR UPDATE
001090: 27,2667           01502                                    UPSVFLAG                              #  REQUEST.  IF NOT GO TO INTWAKUP.
001091: 27,2670           56727                                    INTWAKUP
001092:
001093: 27,2671           77775                           VLOAD                                          #  MOVE PRECT(6) AND VRECT(6) INTO
001094: 27,2672           01503                                    RRECT                                 #        RCV(6) AND VCV(6) RESPECTIVELY.
001095: 27,2673           25535                           STOVL    RCV
001096: 27,2674           01511                                    VRECT                                 #  NOW GO TO `RECTIFY +13D' TO
001097: 27,2675           77624                           CALL                                           #  STORE VRECT INTO VCV AND ZERO OUT
001098: 27,2676           23361                                    RECTIFY    +13D                       #  TDELTAV(6),TNUV(6),TC(2), AND XKEP(2)
001099: 27,2677           51535                           SLOAD    ABS                                   #  COMPARE ABSOLUTE VALUE OF `UPSVFLAG'
001100: 27,2700           01502                                    UPSVFLAG                              #  TO `UPDATE MOON STATE VECTOR CODE'
001101: 27,2701           53025                           DSU      BZE                                   #  TO DETERMINE WHETHER THE STATE VECTOR TO
001102: 27,2702           16740                                    UPMNSVCD                              #  BE UPDATED IS IN THE EARTH OR LUNAR
001103: 27,2703           56710                                    INTWAKEM                              #  SPHERE OF INFLUENCE........
001104: 27,2704           43174                           AXT,2    CLRGO                                 #  EARTH SPHERE OF INFLUENCE.
001105: 27,2705           00000                           DEC      0          B-14
001106: 27,2706           00223                                    MOONFLAG


001108: 27,2707           56713                                    INTWAKEC
001109: 27,2710           43174        INTWAKEM           AXT,2    SET                                   #  LUNAR SPHERE OF INFLUENCE.
001110: 27,2711           00002                           DEC      2          B-14
001111: 27,2712           00063                                    MOONFLAG
001112: 27,2713           50135        INTWAKEC           SLOAD    BMN                                   #  COMMON CODING AFTER X2 INITIALIZED AND
001113:                                                                                                  #  MOONFLAG SET (OR CLEARED).
001114: 27,2714           01502                                    UPSVFLAG                              #  IS THIS A REQUEST FOR A LEM OR CSM
001115: 27,2715           56723                                    INTWAKLM                              #        STATE VECTOR UPDATE......
001116: 27,2716           77624                           CALL                                           #  UPDATE CSM STATE VECTOR
001117: 27,2717           26636                                    ATOPCSM
001118:
001119: 27,2720           52014                           CLEAR    GOTO
001120: 27,2721           01671                                    ORBWFLAG
001121: 27,2722           56725                                    INTWAKEX
001122:
001123: 27,2723           77624        INTWAKLM           CALL                                           #  UPDATE LM STATE VECTOR
001124: 27,2724           26711                                    ATOPLEM
001125:
001126: 27,2725           77614        INTWAKEX           CLEAR
001127: 27,2726           02676                                    RENDWFLG
001128:
001129: 27,2727           45131        INTWAKUP           SSP      CALL                                  #  REMOVE `UPDATE STATE VECTOR INDICATOR'
001130: 27,2730           01502                                    UPSVFLAG
001131: 27,2731           00000                                    0
001132: 27,2732           27404                                    INTWAKE0                              #  RELEASE `GRAB' OF ORBIT INTEG.
001133: 27,2733           77776                           EXIT
001134:
001135: 27,2734           05301                           TC       PHASCHNG
001136: 27,2735           04026                           OCT      04026
001137: 27,2736           00330                           TC       INTWAKUQ
001138:
001139: 27,2737           00002        UPMNSVCD           OCT      2
001140: 27,2740           00000                           OCT      0
001141:
001142: 27,2741           77420        GRP2PC             STQ      EXIT
001143: 27,2742           03536                                    GRP2SVQ
001144: 27,2743           05301                           TC       PHASCHNG
001145: 27,2744           04022                           OCT      04022
001146: 27,2745           06006                           TC       INTPRET
001147: 27,2746           77650                           GOTO
001148: 27,2747           03536                                    GRP2SVQ
001149:
001150:
001151:

End of include-file INTEGRATION_INITIALIZATION.agc.  Parent file is MAIN.agc


