
Source Code


000002:                                                                                                  ## Copyright:   Public domain.
000003:                                                                                                  ## Filename:    JET_SELECTION_LOGIC.agc
000004:                                                                                                  ## Purpose:     Part of the source code for Colossus, build 249.
000005:                                                                                                  ##              It is part of the source code for the Command Module's (CM)
000006:                                                                                                  ##              Apollo Guidance Computer (AGC), for Apollo 9.
000007:                                                                                                  ## Assembler:   yaYUL
000008:                                                                                                  ## Reference:   Starts on p. 1010
000009:                                                                                                  ## Contact:     Ron Burkey <info@sandroid.org>.
000010:                                                                                                  ## Website:     www.ibiblio.org/apollo.
000011:                                                                                                  ## Mod history: 08/26/04 RSB.   Began transcribing.
000012:                                                                                                  ##              2017-01-06 RSB  Page numbers now agree with those on the
000013:                                                                                                  ##                              original harcopy, as opposed to the PDF page
000014:                                                                                                  ##                              numbers in 1701.pdf.
000015:                                                                                                  ##              2017-01-15 RSB  Cross-diff'd comment text (not whitespace)
000016:                                                                                                  ##                              vs the already-proofed corresponding Colossus
000017:                                                                                                  ##                              237 and Comanche 55 source-code files
000018:                                                                                                  ##                              and corrected errors found.  No differences
000019:                                                                                                  ##                              remained afterward.
000020:                                                                                                  ##              2017-02-05 RSB  Back-ported comment corrections
000021:                                                                                                  ##                              identified while proofing Artemis 072.
000022:                                                                                                  ##
000023:                                                                                                  ## The contents of the "Colossus249" files, in general, are transcribed
000024:                                                                                                  ## from a scanned copy of the program listing.  Notations on this
000025:                                                                                                  ## document read, in part:
000026:                                                                                                  ##
000027:                                                                                                  ##      Assemble revision 249 of AGC program Colossus by NASA
000028:                                                                                                  ##      2021111-041.  October 28, 1968.
000029:                                                                                                  ##
000030:                                                                                                  ##      This AGC program shall also be referred to as
000031:                                                                                                  ##                              Colossus 1A
000032:                                                                                                  ##
000033:                                                                                                  ##      Prepared by
000034:                                                                                                  ##                      Massachusetts Institute of Technology
000035:                                                                                                  ##                      75 Cambridge Parkway
000036:                                                                                                  ##                      Cambridge, Massachusetts
000037:                                                                                                  ##      under NASA contract NAS 9-4065.
000038:                                                                                                  ##
000039:                                                                                                  ## Refer directly to the online document mentioned above for further information.
000040:                                                                                                  ## Please report any errors (relative to the scanned pages) to info@sandroid.org.
000041:                                                                                                  ##
000042:                                                                                                  ## In some cases, where the source code for Luminary 131 overlaps that of
000043:                                                                                                  ## Colossus 249, this code is instead copied from the corresponding Luminary 131
000044:                                                                                                  ## source file, and then is proofed to incorporate any changes.
000045:


000047: 21,3751                                           BANK     21
000048: 17,2000                                           SETLOC   DAPS4
000049: 17,2000                                           BANK
000050:
000051: 17,2577                                           COUNT    17/DAPJS
000052:
000053: 17,2577  E6,1510                                  EBANK=   KMPAC
000054:
000055:                                                                                                  #  EXAMINE CHANNEL 31 FOR TRANSLATION COMMANDS
000056:
000057: 17,2577           22016        JETSLECT           LXCH     BANKRUPT
000058: 17,2600           32661                           CAF      DELTATT3                              #  = 60 MS  RESET TO EXECUTE PHASE1
000059: 17,2601           61634                           AD       T5TIME
000060: 17,2602           54030                           TS       TIME5
000061: 17,2603           12606                           TCF      +3
000062: 17,2604           32662                           CAF      DELATT20                              #  = 20 MS  TO ASSURE A T5RUPT
000063: 17,2605           54030                           TS       TIME5
000064: 17,2606           33340                           CAF      =14MS                                 #  RESET T6 TO INITIALIZE THE JET CHANNELS
000065: 17,2607           54031                           TS       TIME6                                 #  IN 14 MS
000066: 17,2610           34674                           CAF      NEGMAX
000067: 17,2611           00006                           EXTEND
000068: 17,2612           05013                           WOR      CHAN13
000069: 17,2613           00006                           EXTEND
000070: 17,2614           22012                           QXCH     QRUPT
000071: 17,2615           32660                           CAF      XLNMASK                               #  = 7700 OCT
000072: 17,2616           00006                           EXTEND                                         #  EXAMINE THE TRANSLATION
000073: 17,2617           06031                           RXOR     CHAN31                                #  HAND CONTROLLER
000074: 17,2620           72660                           MASK     XLNMASK
000075: 17,2621           00006                           EXTEND
000076: 17,2622           12663                           BZF      NOXLNCMD
000077: 17,2623           55502                           TS       T5TEMP
000078: 17,2624           00006                           EXTEND
000079: 17,2625           74702                           MP       BIT9
000080: 17,2626           76214                           MASK     THREE
000081: 17,2627           55513                           TS       XNDX1                                 #  AC QUAD  X-TRANSLATION INDEX
000082: 17,2630           55514                           TS       XNDX2                                 #  BD QUAD  X-TRANSLATION INDEX
000083: 17,2631           31502                           CA       T5TEMP
000084: 17,2632           00006                           EXTEND                                         #  1 = + XLN
000085: 17,2633           74704                           MP       BIT7                                  #  2 = - XLN
000086: 17,2634           76214                           MASK     THREE                                 #  3 = NO XLN
000087: 17,2635           55515                           TS       YNDX                                  #  Y-TRANSLATION INDEX
000088:
000089: 17,2636           31502                           CA       T5TEMP
000090: 17,2637           00006                           EXTEND
000091: 17,2640           74706                           MP       BIT5
000092: 17,2641           76214                           MASK     THREE
000093: 17,2642           55516                           TS       ZNDX                                  #  Z-TRANSLATION INDEX
000094:
000095: 17,2643           31466                           CA       DAPDATR1                              #  SET ATTKALMN TO PICK UP FILTER GAINS FOR
000096: 17,2644           74675                           MASK     BIT14                                 #  TRANSLATIONS.
000097: 17,2645           00006                           EXTEND                                         #  CHECK DAPDATR1 BIT 14 FOR LEM ATTACHED.


000099: 17,2646           12651                           BZF      NOLEM
000100: 17,2647           46214                           CS       THREE                                 #  IF LEM IS ON, SET ATTKALMN = -3
000101: 17,2650           12652                           TCF      +2
000102: 17,2651           44711        NOLEM              CS       TWO                                   #  IF LEM IS OFF, SET ATTKALMN = -2.
000103: 17,2652           55617                           TS       ATTKALMN
000104: 17,2653           11631                           CCS      XTRANS                                #  (+, -1, 0)
000105: 17,2654           55513                           TS       XNDX1                                 #  USING BD-X  ZERO XNDX1
000106: 17,2655           12667                           TCF      PWORD
000107: 17,2656           55514                           TS       XNDX2                                 #  USING AC-X  ZERO XNDX2
000108: 17,2657           12667                           TCF      PWORD
000109: 17,2660           07700        XLNMASK            OCT      7700
000110: 17,2661           37772        DELTATT3           DEC      16378      B-14                       #  = 60 MS
000111: 17,2662           37776        DELATT20           DEC      16382      B-14                       #  = 20 MS
000112:
000113: 17,2663           55513        NOXLNCMD           TS       XNDX1                                 #  ZERO ALL REQUESTS FOR TRANSLATION
000114: 17,2664           55514                           TS       XNDX2
000115: 17,2665           55515                           TS       YNDX
000116: 17,2666           55516                           TS       ZNDX
000117:
000118:                                                                                                  #  PITCH COMMANDS  TIMING(NO X-TRANS, NO QUAD FAILS) 32MCT
000119:
000120: 17,2667           11562        PWORD              CCS      TAU1                                  #  CHECK FOR PITCH COMMANDS
000121: 17,2670           34712                           CAF      ONE
000122: 17,2671           12673                           TCF      +2                                    #   0 = NO PITCH
000123: 17,2672           34711                           CAF      TWO                                   #  +1 =  + PITCH
000124: 17,2673           55520                           TS       PINDEX                                #  +2 =  - PITCH
000125:
000126: 17,2674           11626                           CCS      RACFAIL                               #  FLAG FOR REAL AC QUAD FAILURES
000127: 17,2675           12701                           TCF      AFAILP
000128: 17,2676           12711                           TCF      TABPCOM                               #  0 = NO REAL AC FAILURES
000129: 17,2677           12703                           TCF      CFAILP                                #  + = A QUAD FAILED
000130: 17,2700           12711                           TCF      TABPCOM                               #  - = C QUAD FAILED
000131:                                                                                                  #  IF FAILURES ARE PRESENT IGNORE
000132:                                                                                                  #  X-TRANSLATIONS ON THIS AXIS
000133:
000134: 17,2701           34334        AFAILP             CAF      NINE                                  #  IF FAILURE IS PRESENT 1JET OPERATION
000135: 17,2702           12713                           TCF      TABPCOM    +2                         #  IS ASSUMED.  IGNORE X-TRANSLATION
000136: 17,2703           35656        CFAILP             CAF      TWELVE
000137: 17,2704           12713                           TCF      TABPCOM    +2
000138:
000139: 17,2705           00000        XLNNDX             DEC      0          B-14                       #  INDECES FOR TRANSLATION COMMANDS
000140: 17,2706           00003                           DEC      3          B-14                       #  FOR USE IN TABLE LOOK UP
000141: 17,2707           00006                           DEC      6          B-14
000142: 17,2710           00000                           DEC      0          B-14
000143:
000144: 17,2711     5656               TWELVE             =        OCT14
000145:
000146:                                                                                                  #  TABLE LOOK UP FOR PITCH COMMANDS WITH AND WITHOUT X-TRANSLATION AND AC QUAD FAILURES PRESENT.
000147:                                                                                                  #  BITS 9, 10 CONTAIN THE NUMBER OF PITCH JETS USED TO PERFORM THE PITCH ROTATION


000149:
000150: 17,2711           51513        TABPCOM            INDEX    XNDX1
000151: 17,2712           32705                           CA       XLNNDX
000152: 17,2713           61520                           AD       PINDEX
000153: 17,2714           50000                           INDEX    A
000154: 17,2715           32741                           CA       PYTABLE
000155: 17,2716           72760                           MASK     PJETS                                 #  =1417 OCT
000156: 17,2717           55453                           TS       PWORD1
000157: 17,2720           00006                           EXTEND
000158: 17,2721           74704                           MP       BIT7
000159: 17,2722           55523                           TS       NPJETS                                #  = NO. OF PITCH JETS
000160:
000161:                                                                                                  #  YAW JET COMMANDS  TIMING(NO X-TRANS, NO QUAD FAILURES)  32MCT
000162:
000163: 17,2723           11563        YWORD              CCS      TAU2                                  #  CHECK FOR YAW COMMANDS
000164: 17,2724           34712                           CAF      ONE
000165: 17,2725           12727                           TCF      +2
000166: 17,2726           34711                           CAF      TWO
000167: 17,2727           55521                           TS       YINDEX                                #  YAW ROTATION INDEX
000168:
000169: 17,2730           11627                           CCS      RBDFAIL                               #  FLAG FOR B OR D QUAD FAILURES
000170: 17,2731           12735                           TCF      BFAILY                                #  0 = NO BD FAILURE
000171: 17,2732           12762                           TCF      TABYCOM                               #  + = B QUAD FAILED
000172: 17,2733           12737                           TCF      DFAILY                                #  - = D QUAD FAILED
000173: 17,2734           12762                           TCF      TABYCOM
000174:
000175: 17,2735           34334        BFAILY             CAF      NINE
000176: 17,2736           12764                           TCF      TABYCOM    +2
000177: 17,2737           35656        DFAILY             CAF      TWELVE
000178: 17,2740           12764                           TCF      TABYCOM    +2
000179:


000181:                                                                                                  #  TABLE FOR PITCH(YAW) COMMANDS
000182:                                                                                                  #  BITS 4,3,2,1 = PITCH, X-TRANSLATION JETS SELECTED
000183:                                                                                                  #  BITS    10,9 = NO. PITCH JETS USED TO PERFORM ROTATION
000184:                                                                                                  #  BITS 8,7,6,5 = YAW, X-TRANSLATION JETS SELECTED
000185:                                                                                                  #  BITS 12,11:  NO. YAW JETS USED TO PERFORM ROTATION
000186:
000187:                                                                                                  #  ROT   TRANS   QUAD    BIAS
000188: 17,2741           00000        PYTABLE            OCT      0                                     #  0     0               0
000189: 17,2742           05125                           OCT      5125                                  #  +     0               0
000190: 17,2743           05252                           OCT      5252                                  #  -     0               0
000191: 17,2744           00231                           OCT      0231                                  #  0     +               3
000192: 17,2745           02421                           OCT      2421                                  #  +     +               3
000193: 17,2746           02610                           OCT      2610                                  #  -     +               3
000194: 17,2747           00146                           OCT      0146                                  #  0     -               6
000195: 17,2750           02504                           OCT      2504                                  #  +     -               6
000196: 17,2751           02442                           OCT      2442                                  #  -     -               6
000197: 17,2752           00000                           OCT      0                                     #  0             A(B)    9
000198: 17,2753           02421                           OCT      2421                                  #  +             A(B)    9
000199: 17,2754           02442                           OCT      2442                                  #  -             A(B)    9
000200: 17,2755           00000                           OCT      0                                     #  0             C(D)    12
000201: 17,2756           02504                           OCT      2504                                  #  +             C(D)    12
000202: 17,2757           02610                           OCT      2610                                  #  -             C(D)    12
000203:
000204:                                                                                                  #  MASKS FOR PITCH AND YAW COMMANDS
000205:
000206: 17,2760           01417        PJETS              OCT      1417
000207: 17,2761           06360        YJETS              OCT      6360
000208:
000209:                                                                                                  #  TABLE LOOK UP FOR YAW COMMANDS WITH AND WITHOUT X-TRANSLATION AND AC QUAD FAILURES PRESENT
000210:                                                                                                  #  BITS 11, 12 CONTAIN THE NUMBER OF YAW JETS USED TO PERFORM THE YAW ROTATION
000211:
000212: 17,2762           51514        TABYCOM            INDEX    XNDX2
000213: 17,2763           32705                           CA       XLNNDX
000214: 17,2764           61521                           AD       YINDEX
000215: 17,2765           50000                           INDEX    A
000216: 17,2766           32741                           CA       PYTABLE
000217: 17,2767           72761                           MASK     YJETS                                 #  = 6360 OCT
000218: 17,2770           55455                           TS       YWORD1
000219: 17,2771           00006                           EXTEND
000220: 17,2772           74706                           MP       BIT5
000221: 17,2773           55524                           TS       NYJETS                                #  NO. OF YAW JETS USED TO PERFORM ROTATION
000222:


000224:                                                                                                  #  ROLL COMMANDS  TIMING(NO Y,Z TRANS, NO QUAD FAILS)  45MCT
000225:
000226: 17,2774           11561        RWORD              CCS      TAU                                   #  CHECK FOR ROLL COMMANDS
000227: 17,2775           34712                           CAF      ONE
000228: 17,2776           13000                           TCF      +2
000229: 17,2777           34711                           CAF      TWO
000230: 17,3000           55517                           TS       RINDEX
000231:
000232: 17,3001           11630                           CCS      ACORBD                                #  FLAG FOR AC OR BD QUAD SELECTION FOR
000233: 17,3002           13073                           TCF      BDROLL                                #  ROLL COMMANDS
000234: 17,3003           13073                           TCF      BDROLL                                #  +, +0 = BD ROLL
000235: 17,3004           13005                           TCF      +1                                    #  -, -0 = AC ROLL
000236:
000237: 17,3005           11626        ACROLL             CCS      RACFAIL                               #  CHECK FOR REAL FAILURES
000238: 17,3006           13012                           TCF      RAFAIL                                #  ON AC QUADS
000239: 17,3007           13022                           TCF      RXLNS
000240: 17,3010           13014                           TCF      RCFAIL
000241: 17,3011           13022                           TCF      RXLNS
000242:
000243: 17,3012           34334        RAFAIL             CAF      NINE                                  #  QUAD FAILURE WILL GET
000244: 17,3013           13024                           TCF      TABRCOM                               #  1-JET OPERATION
000245: 17,3014           35656        RCFAIL             CAF      TWELVE
000246: 17,3015           13024                           TCF      TABRCOM
000247:
000248: 17,3016           00000        XLN1NDX            DEC      0          B-14
000249: 17,3017           00001                           DEC      1          B-14                       #  INDECES FOR TRANSLATION
000250: 17,3020           00002                           DEC      2          B-14
000251: 17,3021           00000                           DEC      0          B-14
000252:
000253:                                                                                                  #  TABLE LOOK UP FOR AC-ROLL COMMANDS WITH AND WITHOUT Y-TRANSLATION AND ACQUAD FAILURES PRESENT
000254:                                                                                                  #  BITS 9,10,11 CONTAIN THE MAGNITUDE AND DIRECTION OF THE ROLL
000255:
000256: 17,3022           51515        RXLNS              INDEX    YNDX                                  #  NO AC QUAD FAILURES
000257: 17,3023           32705                           CA       XLNNDX                                #  INCLUDE +,-,0, Y-TRANSLATION
000258: 17,3024           61517        TABRCOM            AD       RINDEX
000259: 17,3025           50000                           INDEX    A
000260: 17,3026           33155                           CA       RTABLE
000261: 17,3027           73174                           MASK     ACRJETS                               #  = 3760 OCT
000262: 17,3030           55451                           TS       RWORD1
000263:
000264:                                                                                                  #  CHECK FOR Z-TRANSLATIONS ON BD
000265:
000266: 17,3031           31516        BDZCHECK           CA       ZNDX
000267: 17,3032           00006                           EXTEND
000268: 17,3033           63065                           BZMF     NOBDZ                                 #  NO Z-TRANSLATION
000269:


000271:                                                                                                  #  TABLE LOOK UP FOR BD Z-TRANSLATION WITH AND WITHOUT REAL BD QUAD FAILURES.  Z-TRANSLATION WILL BE POSS-
000272:                                                                                                  #  IBLE AS LONG AS ROLL COMMANDS CAN BE SATISFIED WITH THE AC ROLL JETS.  CRITERION.. IF THE RESULTANT NET ROLL
000273:                                                                                                  #  COMMANDS = 0 (WITH Z-TRANSLATION) AND IF TAU = 0, THEN INCLUDE THE BD Z-TRANSLATION COMMANDS.  IF THE RESULTANT
000274:                                                                                                  #  ROLL COMMAND = 0, AND IF TAU NZ, THEN IGNORE THE BD Z-TRANSLATION
000275:
000276: 17,3034           11627                           CCS      RBDFAIL
000277: 17,3035           36214                           CAF      THREE
000278: 17,3036           13040                           TCF      +2
000279: 17,3037           36211                           CAF      SIX
000280: 17,3040           51516                           INDEX    ZNDX
000281: 17,3041           63016                           AD       XLN1NDX
000282: 17,3042           50000                           INDEX    A
000283: 17,3043           33176                           CA       YZTABLE
000284: 17,3044           73207                           MASK     BDZJETS                               #  = 3417 OCT
000285: 17,3045           61451                           AD       RWORD1                                #  ADD TO ROLL COMMANDS
000286: 17,3046           55502                           TS       T5TEMP                                #  IF POSSIBLE.  MUST CHECK TAU FIRST
000287:
000288: 17,3047           00006                           EXTEND
000289: 17,3050           74704                           MP       BIT7                                  #  DETERMINE THE NET ROLL COMMAND WITH
000290: 17,3051           66061                           AD       =-4                                   #  Z-TRANSLATION ADDED ON
000291: 17,3052           55522                           TS       NRJETS                                #  NET NO. OF +,- ROLL JETS ON
000292: 17,3053           00006                           EXTEND
000293: 17,3054           13060                           BZF      TAUCHECK
000294:
000295: 17,3055           31502        ACRBDZ             CA       T5TEMP                                #  Z-TRANSLATION ACCEPTED EVEN THO WE MAY
000296: 17,3056           55451                           TS       RWORD1                                #  HAVE INTRODUCED AN UNDESIREABLE ROLL
000297: 17,3057           13321                           TCF      ROLLTIME                              #  BRANCH TO JET ON-TIME CALCULATIONS
000298:
000299: 17,3060           11561        TAUCHECK           CCS      TAU
000300: 17,3061           13065                           TCF      NOBDZ
000301: 17,3062           13055                           TCF      ACRBDZ
000302: 17,3063           13065                           TCF      NOBDZ
000303: 17,3064           13055                           TCF      ACRBDZ
000304:
000305: 17,3065           31451        NOBDZ              CA       RWORD1                                #  Z-TRANSLATION NOT ACCEPTED
000306: 17,3066           00006                           EXTEND
000307: 17,3067           74704                           MP       BIT7
000308: 17,3070           67715                           AD       =-2
000309: 17,3071           55522                           TS       NRJETS
000310: 17,3072           13321                           TCF      ROLLTIME                              #  BRANCH TO JET ON-TIME CALCULATION
000311:


000313:                                                                                                  #  BD QUAD SELECTION FOR ROLL COMMANDS
000314:
000315: 17,3073           11627        BDROLL             CCS      RBDFAIL
000316: 17,3074           13100                           TCF      RBFAIL
000317: 17,3075           13104                           TCF      RZXLNS
000318: 17,3076           13102                           TCF      RDFAIL
000319: 17,3077           13104                           TCF      RZXLNS
000320: 17,3100           34334        RBFAIL             CAF      NINE
000321: 17,3101           13106                           TCF      TABRZCMD
000322: 17,3102           35656        RDFAIL             CAF      TWELVE
000323: 17,3103           13106                           TCF      TABRZCMD
000324:
000325: 17,3104           51516        RZXLNS             INDEX    ZNDX                                  #  NO BD FAILURES
000326: 17,3105           32705                           CA       XLNNDX                                #  +,-,0 Z-TRANSLATION PRESENT
000327: 17,3106           61517        TABRZCMD           AD       RINDEX
000328: 17,3107           50000                           INDEX    A
000329: 17,3110           33155                           CA       RTABLE
000330: 17,3111           73175                           MASK     BDRJETS                               #  = 34017 OCT
000331: 17,3112           55451                           TS       RWORD1
000332:
000333: 17,3113           31515        ACYCHECK           CA       YNDX                                  #  ANY Y-TRANSLATION
000334: 17,3114           00006                           EXTEND
000335: 17,3115           13147                           BZF      NOACY                                 #  NO Y-TRANSLATION
000336: 17,3116           11626                           CCS      RACFAIL
000337: 17,3117           36214                           CAF      THREE
000338: 17,3120           13122                           TCF      +2
000339: 17,3121           36211                           CAF      SIX
000340: 17,3122           51515                           INDEX    YNDX
000341: 17,3123           63016                           AD       XLN1NDX
000342: 17,3124           50000                           INDEX    A
000343: 17,3125           33176                           CA       YZTABLE
000344: 17,3126           73210                           MASK     ACYJETS                               #  = 34360 OCT
000345: 17,3127           61451                           AD       RWORD1
000346: 17,3130           55502                           TS       T5TEMP
000347: 17,3131           00006                           EXTEND                                         #  FOR EXPLANATION SEE CODING ON RTABLE
000348: 17,3132           74707                           MP       BIT4
000349: 17,3133           66061                           AD       =-4
000350: 17,3134           55522                           TS       NRJETS                                #  NO. OF NET ROLL JETS
000351: 17,3135           00006                           EXTEND
000352: 17,3136           13142                           BZF      TAUCHCK                               #  IF NRJETS = 0
000353:
000354: 17,3137           31502        BDRACZ             CA       T5TEMP                                #  Y-TRANSLATION ACCEPTED
000355: 17,3140           55451                           TS       RWORD1
000356: 17,3141           13321                           TCF      ROLLTIME                              #  BRANCH TO JET ON-TIME CALCULATIONS
000357:
000358: 17,3142           11561        TAUCHCK            CCS      TAU
000359: 17,3143           13147                           TCF      NOACY
000360: 17,3144           13137                           TCF      BDRACZ
000361: 17,3145           13147                           TCF      NOACY
000362: 17,3146           13137                           TCF      BDRACZ
000363:


000365: 17,3147           31451        NOACY              CA       RWORD1                                #  Y-TRANSLATION NOT ACCEPTED
000366: 17,3150           00006                           EXTEND
000367: 17,3151           74707                           MP       BIT4
000368: 17,3152           67715                           AD       =-2
000369: 17,3153           55522                           TS       NRJETS
000370: 17,3154           13321                           TCF      ROLLTIME
000371:


000373:                                                                                                  #                                TABLE FOR ROLL, Y AND Z-TRANSLATION COMMANDS
000374:
000375:                                                                                                  #  EITHER AC OR BD ROLL MAY BE SELECTED.  IF AC ROLL IS SELECTED, Y-TRANSLATIONS MAY BE SATISFIED SIMULTANEOUSLY
000376:                                                                                                  #  PROVIDED THAT THERE ARE NO AC QUAD FAILURES.  IF THERE ARE AC FAILURES, Y-TRANSLATION COMMANDS WILL BE IGNORED,
000377:                                                                                                  #  IN WHICH CASE THE ASTRONAUT SHOULD SWITCH TO BD ROLL.
000378:
000379:                                                                                                  #  IF BDROLL IS SELECTED, Z-TRANSLATIONS MAY BE SATISFIED SIMULTANEOUSLY PROVIDED THAT THERE ARE NO BD QUAD
000380:                                                                                                  #  FAILURES.  IF THERE ARE BD FAILURES, Z-TRANSLATION COMMANDS WILL BE IGNORED, IN WHICH CASE THE ASTRONAUT SHOULD
000381:                                                                                                  #  SWITCH TO AC ROLL.
000382:
000383:                                                                                                  #  NOTE THAT IF ONE QUAD FAILS (E.G. B FAILED), Z-TRANSLATION IS STILL POSSIBLE AND THAT THE UNDESIREABLE ROLL
000384:                                                                                                  #  INTRODUCED BY THIS TRANSLATION WILL BE COMPENSATED BY THE TWO AC ROLL JETS ACTUATED BY THE AUTOPILOT LOGIC.
000385:
000386:                                                                                                  #                                           WORD MAKE UP....RTABLE
000387:
000388:                                                                                                  #  TWO WORDS, CORRESPONDING TO AC OR BD ROLL SELECTION, HAVE BEEN COMBINED INTO ONE TABLE.  THE WORD CORRESPOND-
000389:                                                                                                  #  ING TO AC ROLL HAS THE FOLLOWING INTERPRETATION..
000390:
000391:                                                                                                  #        BITS 9,10,11 ARE CODED TO GIVE THE NET ROLL TORQUE FOR THE WORD SELECTED.  THE CODING IS..
000392:
000393:                                                                                                  #                BIT NO. 11  10   9              NO. OF ROLL JETS
000394:
000395:                                                                                                  #                         0   0   0                      -2
000396:                                                                                                  #                         0   0   1                      -1
000397:                                                                                                  #                         0   1   0                       0
000398:                                                                                                  #                         0   1   1                      +1
000399:                                                                                                  #                         1   0   0                      +2
000400:
000401:                                                                                                  #  THIS WORD MAY THEN BE ADDED TO THE WORD SELECTED FROM THE YZ-TRANSLATION TABLE, WHICH HAS THE SAME TYPE OF
000402:                                                                                                  #  CODING AS ABOVE, AND THE NET ROLL DETERMINED BY SHIFTING THE RESULTANT WORD RIGHT 8 PLACES AND SUBTRACTING FOUR.
000403:
000404:                                                                                                  #  THE WORD CORRESPONDING TO BD ROLL HAS A SIMILIAR INTERPRETATION, EXCEPT THAT BITS 12, 13, 14 ARE CODED
000405:                                                                                                  #  (AS ABOVE) TO GIVE THE NET ROLL TORQUE.
000406:
000407:                                                                                                  #  ROLL          TRANS           QUADFAIL        BIAS
000408:
000409: 17,3155           11000        RTABLE             OCT      11000                                 #    0                                             0
000410: 17,3156           22125                           OCT      22125                                 #    +                                             0
000411: 17,3157           00252                           OCT      00252                                 #    -                                             0
000412: 17,3160           11231                           OCT      11231                                 #    0           +Y(+Z)                            3
000413: 17,3161           15421                           OCT      15421                                 #    +           +Y(+Z)                            3
000414: 17,3162           04610                           OCT      04610                                 #    -           +Y(+Z)                            3
000415: 17,3163           11146                           OCT      11146                                 #    0           -Y(-Z)                            6
000416: 17,3164           15504                           OCT      15504                                 #    +           -Y(-Z)                            6
000417: 17,3165           04442                           OCT      04442                                 #    -           -Y(-Z)                            6
000418: 17,3166           11000                           OCT      11000                                 #    0                             A(B)            9
000419: 17,3167           15504                           OCT      15504                                 #    +                             A(B)            9
000420: 17,3170           04610                           OCT      04610                                 #    -                             A(B)            9
000421: 17,3171           11000                           OCT      11000                                 #    0                             C(D)           12
000422: 17,3172           15421                           OCT      15421                                 #    +                             C(D)           12
000423: 17,3173           04442                           OCT      04442                                 #    -                             C(D)           12
000424:


000426:                                                                                                  #  RTABLE MASKS -
000427:
000428: 17,3174           03760        ACRJETS            OCT      03760
000429: 17,3175           34017        BDRJETS            OCT      34017
000430:


000432:                                                                                                  #                                         Y, Z TRANSLATION TABLE
000433:
000434:                                                                                                  #  ONCE AC OR BD ROLL IS SELECTED THE QUAD PAIR WHICH IS NOT BEING USED TO SATISFY THE ROLL COMMANDS MAY BE
000435:                                                                                                  #  USED TO SATISFY THE REMAINING TRANSLATION COMMANDS.  HOWEVER, WE MUST MAKE SURE THAT ROLL COMMANDS ARE SATISFIED
000436:                                                                                                  #  WHEN THEY OCCUR.  THEREFORE, THE Y-Z TRANSLATIONS FROM THIS TABLE WILL BE IGNORED IF THE NET ROLL TORQUE OF THE
000437:                                                                                                  #  COMBINED WORD IS ZERO AND THE ROLL COMMANDS ARE NON-ZERO.  THIS SITUATION WOULD OCCUR, FOR EXAMPLE, IF WE EN-
000438:                                                                                                  #  COUNTER SIMULTANEOUS +R +Y -Z COMMANDS AND A QUAD D FAILURE WHILE USING AC FOR ROLL.
000439:
000440:                                                                                                  #  TO FACILITATE THE LOGIC, THE Y-Z TRANSLATION TABLE HAS BEEN CODED IN A MANNER SIMILIAR TO THE ROLL TABLE
000441:                                                                                                  #  ABOVE.
000442:
000443:                                                                                                  #  BITS 9,10,11 ARE CODED TO GIVE THE NET ROLL TORQUE INCURRED BY Z-TRANSLATIONS.  THE WORD SELECTED CAN THEN BE
000444:                                                                                                  #  ADDED TO THE AC-ROLL WORD AND THE RESULTANT ROLL TORQUE DETERMINED FROM THE COMBINED WORD.  SIMILIARLY BITS
000445:                                                                                                  #  12,13,14 ARE CODED TO GIVE THE NET ROLL TORQUE INCURRED BY Y-TRANSLATIONS WHEN BD-ROLL IS SELECTED.
000446:
000447:                                                                                                  #  TRANSLATION   QUADFAIL        BIAS
000448:
000449: 17,3176           11000        YZTABLE            OCT      11000                                 #        0                       0
000450: 17,3177           11231                           OCT      11231                                 #     +Z(+Y)                     0
000451: 17,3200           11146                           OCT      11146                                 #     -Z(-Y)                     0
000452: 17,3201           11000                           OCT      11000                                 #        0         B(A)          3
000453: 17,3202           04610                           OCT      04610                                 #     +Z(+Y)       B(A)          3
000454: 17,3203           15504                           OCT      15504                                 #     -Z(-Y)       B(A)          3
000455: 17,3204           11000                           OCT      11000                                 #        0         D(C)          6
000456: 17,3205           15421                           OCT      15421                                 #     +Z(+Y)       D(C)          6
000457: 17,3206           04442                           OCT      04442                                 #     -Z(-Y)       D(C)          6
000458:
000459:                                                                                                  #  YZ-TABLE MASKS-
000460:
000461: 17,3207           03417        BDZJETS            OCT      03417
000462: 17,3210           34360        ACYJETS            OCT      34360
000463:
000464:                                                                                                  #  ADDITIONAL CONSTANTS
000465:
000466: 17,3211     7715               =-2                =        NEG2
000467: 17,3211     6061               =-4                =        NEG4
000468:


000470:                                                                                                  #                                        CALCULATION OF JET ON-TIMES
000471:
000472:                                                                                                  #  THE ROTATION COMMANDS (TAU:S), WHICH WERE DETERMINED FROM THE JET SWITCHING LOGIC ON THE BASIS OF SINGLE JET
000473:                                                                                                  #  OPERATION, MUST NOW BE UPDATED BY THE ACTUAL NUMBER OF JETS TO BE USED IN SATISFYING THESE COMMANDS.  TAU MUST
000474:                                                                                                  #  ALSO BE DECREMENTED ACCORDING TO THE EXPECTED TORQUE GENERATED BY THE NEW COMMANDS ACTING OVER THE NEXT T5 INT-
000475:                                                                                                  #  ERVAL.
000476:
000477:                                                                                                  #  IN ORDER TO MAINTAIN ACCURATE KNOWLEDGE OF VEHICLE ANGULAR RATES, WE MUST ALSO PROVIDE EXPECTED FIRING TIMES
000478:                                                                                                  #  (DFT:S, ALSO IN TERMS OF 1-JET OPERATION) FOR THE RATE FILTER.
000479:
000480:                                                                                                  #  NOTE THAT TRANSLATIONS CAN PRODUCE ROTATIONS EVEN THOUGH NO ROTATIONS WERE CALLED FOR.  NEVERTHELESS, WE MUST
000481:                                                                                                  #  UPDATE DFT.
000482:
000483:                                                                                                  #  WHEN THE ROTATIONS HAVE FINISHED, WE MUST PROVIDE CHANNEL INFORMATION TO THE T6 PROGRAM TO CONTINUE ON WITH
000484:                                                                                                  #  THE TRANSLATIONS.  THIS WILL BE DONE IN THE NEXT SECTION.  HOWEVER, TO INSURE THAT JETS ARE NOT FIRED FOR LESS
000485:                                                                                                  #  THAN A MINIMUM IMPULSE (14MS), ALL JET CHANNEL COMMANDS WILL BE HELD FIXED FROM THE START OF THE T5 PROGRAM FOR
000486:                                                                                                  #  AT LEAST 14MS UNTIL THE INITIALIZATION OF NEW COMMANDS.  MOREOVER, A 14MS ON-TIME WILL BE ADDED TO ANY ROTATIONAL
000487:                                                                                                  #  COMMANDS GENERATED BY THE MANUAL CONTROLS OR THE JET SWITCHING LOGIC, AND ALL TRANSLATION COMMANDS WILL BE
000488:                                                                                                  #  ACTIVE FOR AT LEAST ONE CYCLE OF THE T5 PROGRAM (.1SEC)
000489:
000490:                                                                                                  #  PITCH JET ON-TIME CALCULATION
000491:
000492: 17,3211           11562        PITCHTIM           CCS      TAU1
000493: 17,3212           13221                           TCF      PTAUPOS
000494: 17,3213           13215                           TCF      +2
000495: 17,3214           13217                           TCF      PTAUNEG
000496: 17,3215           55550                           TS       DFT1                                  #  NO PITCH ROTATION
000497: 17,3216           13417                           TCF      PBYPASS                               #  COMMANDS
000498:
000499: 17,3217           41523        PTAUNEG            CS       NPJETS
000500: 17,3220           55523                           TS       NPJETS
000501: 17,3221           31562        PTAUPOS            CA       TAU1
000502: 17,3222           00006                           EXTEND
000503: 17,3223           51523                           INDEX    NPJETS
000504: 17,3224           73400                           MP       NJET
000505: 17,3225           55461                           TS       BLAST1
000506: 17,3226           63333                           AD       =-.1SEC
000507: 17,3227           00006                           EXTEND
000508: 17,3230           63241                           BZMF     AD14MSP
000509: 17,3231           51523                           INDEX    NPJETS
000510: 17,3232           33334                           CA       DFTMAX                                #  THE PITCH ON-TIME IS GREATER THAN .1 SEC
000511: 17,3233           55550                           TS       DFT1
000512: 17,3234           40000                           COM
000513: 17,3235           27562                           ADS      TAU1                                  #  UPDATE TAU1
000514: 17,3236           33335                           CAF      =+.1SEC                               #  LIMIT THE LENGTH OF PITCH ROTATION
000515: 17,3237           55461                           TS       BLAST1                                #  COMMANDS TO 0.1 SEC SO THAT ONLY
000516: 17,3240           13404                           TCF      ASMBLWP                               #  X-TRANSLATIONS WILL CONTINUE ON SWITCH
000517:                                                                                                  #  OVER TO TVC
000518: 17,3241           41461        AD14MSP            CS       BLAST1                                #  SEE IF JET ON TIME LESS THAN
000519: 17,3242           63340                           AD       =14MS                                 #  MINIMUM IMPULSE TIME
000520: 17,3243           00006                           EXTEND
000521: 17,3244           63247                           BZMF     PBLASTOK                              #  IF SO LIMIT MINIMUM ON TIME TO 14 MS
000522: 17,3245           33340                           CAF      =14MS


000524: 17,3246           55461                           TS       BLAST1
000525: 17,3247           31461        PBLASTOK           CA       BLAST1
000526: 17,3250           00006                           EXTEND                                         #  THE PITCH COMMANDS WILL BE COMPLETED
000527: 17,3251           71523                           MP       NPJETS                                #  WITHIN THE TS-CYCLE TIME
000528: 17,3252           23550                           LXCH     DFT1                                  #  FOR USE IN UPDATING RATE FILTER
000529: 17,3253           55562                           TS       TAU1                                  #  ZERO TAU1 (ACC CONTAINS ZERO)
000530: 17,3254           13404                           TCF      ASMBLWP
000531:


000533:                                                                                                  #  YAW JET ON-TIME CALCULATION
000534:
000535: 17,3255           11563        YAWTIME            CCS      TAU2
000536: 17,3256           13265                           TCF      YTAUPOS
000537: 17,3257           13261                           TCF      +2
000538: 17,3260           13263                           TCF      YTAUNEG
000539: 17,3261           55551                           TS       DFT2                                  #  NO YAW ROTATION COMMANDS
000540: 17,3262           13563                           TCF      YBYPASS
000541:
000542: 17,3263           41524        YTAUNEG            CS       NYJETS
000543: 17,3264           55524                           TS       NYJETS
000544: 17,3265           31563        YTAUPOS            CA       TAU2
000545: 17,3266           00006                           EXTEND
000546: 17,3267           51524                           INDEX    NYJETS
000547: 17,3270           73400                           MP       NJET
000548: 17,3271           55463                           TS       BLAST2
000549: 17,3272           63333                           AD       =-.1SEC
000550: 17,3273           00006                           EXTEND
000551: 17,3274           63305                           BZMF     AD14MSY
000552: 17,3275           51524                           INDEX    NYJETS
000553: 17,3276           33334                           CA       DFTMAX                                #  YAW COMMANDS WILL LAST LONGER THAN .1SEC
000554: 17,3277           55551                           TS       DFT2
000555: 17,3300           40000                           COM
000556: 17,3301           27563                           ADS      TAU2                                  #  DECREMENT TAU2
000557: 17,3302           33335                           CAF      =+.1SEC                               #  LIMIT THE LENGTH OF YAW ROTATION COMMAND
000558: 17,3303           55463                           TS       BLAST2                                #  TO 0.1 SEC SO THAT ONLY X-TRANSLATION
000559: 17,3304           13550                           TCF      ASMBLWY                               #  WILL CONTINUE ON SWITCH OVER TO TVC
000560:
000561: 17,3305           41463        AD14MSY            CS       BLAST2                                #  SEE IF JET ON-TIME LESS THAN
000562: 17,3306           63340                           AD       =14MS                                 #  MINIMUM IMPULSE TIME
000563: 17,3307           00006                           EXTEND
000564: 17,3310           63313                           BZMF     YBLASTOK                              #  IF SO, LIMIT MINIMUM ON-TIME TO 14 MS
000565: 17,3311           33340                           CAF      =14MS
000566: 17,3312           55463                           TS       BLAST2
000567: 17,3313           31463        YBLASTOK           CA       BLAST2                                #  YAW COMMANDS WILL BE COMPLETED WITHIN
000568: 17,3314           00006                           EXTEND                                         #  THE T5CYCLE TIME
000569: 17,3315           71524                           MP       NYJETS
000570: 17,3316           23551                           LXCH     DFT2
000571: 17,3317           55563                           TS       TAU2                                  #  ZERO TAU2
000572: 17,3320           13550                           TCF      ASMBLWY
000573:


000575:                                                                                                  #  ROLL ON-TIME CALCULATION-
000576:
000577: 17,3321           11561        ROLLTIME           CCS      TAU
000578: 17,3322           13341                           TCF      RBLAST
000579: 17,3323           13325                           TCF      +2
000580: 17,3324           13341                           TCF      RBLAST
000581: 17,3325           51522                           INDEX    NRJETS
000582: 17,3326           33334                           CA       DFTMAX                                #  UPDATE DFT EVEN THO NO ROLL COMMANDS ARE
000583: 17,3327           55547                           TS       DFT                                   #  PRESENT
000584: 17,3330           13543                           TCF      RBYPASS
000585:
000586: 17,3331           77037                           DEC      -480       B-14                       #  =-.3SEC
000587: 17,3332           77277                           DEC      -320       B-14                       #  =-.2SEC
000588: 17,3333           77537        =-.1SEC            DEC      -160       B-14                       #  =-.1SEC
000589: 17,3334           00000        DFTMAX             DEC      0          B-14                       #  0
000590: 17,3335           00240        =+.1SEC            DEC      160        B-14                       #  =+.1SEC
000591: 17,3336           00500                           DEC      320        B-14                       #  =+.2SEC
000592: 17,3337           00740                           DEC      480        B-14                       #  =+.3SEC
000593: 17,3340           00027        =14MS              DEC      23         B-14                       #  =14MS
000594:
000595: 17,3341           31561        RBLAST             CA       TAU
000596: 17,3342           00006                           EXTEND
000597: 17,3343           51522                           INDEX    NRJETS
000598: 17,3344           73400                           MP       NJET
000599: 17,3345           55457                           TS       BLAST                                 #  BLAST IS AN INTERMEDIATE VARIABLE
000600:                                                                                                  #  USED IN DETERMINING THE JET ON-TIMES
000601: 17,3346           63333                           AD       =-.1SEC
000602: 17,3347           00006                           EXTEND
000603: 17,3350           63361                           BZMF     AD14MSR
000604: 17,3351           51522                           INDEX    NRJETS                                #  THE ROLL ROTATION WILL LAST LONGER
000605: 17,3352           33334                           CA       DFTMAX                                #  THAN THE T5 CYCLE TIME
000606: 17,3353           55547                           TS       DFT
000607: 17,3354           40000                           COM
000608: 17,3355           27561                           ADS      TAU
000609: 17,3356           33335                           CAF      =+.1SEC                               #  LIMIT THE LENGTH OF ROLL ROTATION
000610: 17,3357           55457                           TS       BLAST                                 #  COMMANDS TO 0.1 SEC SO THAT ONLY Y-Z
000611: 17,3360           13424                           TCF      ASMBLWR                               #  TRANSLATION COMMANDS CONTINUE
000612:
000613: 17,3361           41457        AD14MSR            CS       BLAST                                 #  SEE IF THE JET ON-TIME LESS THAN
000614: 17,3362           63340                           AD       =14MS                                 #  MINIMUM IMPULSE TIME
000615: 17,3363           00006                           EXTEND
000616: 17,3364           63367                           BZMF     RBLASTOK
000617: 17,3365           33340                           CAF      =14MS                                 #  IF SO, LIMIT MINIMUM ON-TIME TO 14 MS
000618: 17,3366           55457                           TS       BLAST
000619: 17,3367           31457        RBLASTOK           CA       BLAST
000620: 17,3370           00006                           EXTEND
000621: 17,3371           71522                           MP       NRJETS
000622: 17,3372           23547                           LXCH     DFT
000623: 17,3373           55561                           TS       TAU                                   #  ZERO TAU
000624: 17,3374           13424                           TCF      ASMBLWR
000625:


000627: 17,3375           65252                           DEC      -.333333                              #  = -1/3
000628: 17,3376           57777                           DEC      -.500000                              #  = -1/2
000629: 17,3377           40000                           DEC      -.999999                              #  = -1 (NEGMAX)
000630: 17,3400           00000        NJET               DEC      0          B-14
000631: 17,3401           37777                           DEC      .999999                               #  = +1 (POSMAX)
000632: 17,3402           20000                           DEC      .500000                               #  = +1/2
000633: 17,3403           12525                           DEC      .333333                               #  = +1/3
000634:


000636:                                                                                                  #  WHEN THE ROTATION COMMANDS ARE COMPLETED, IT IS NECESSARY TO REPLACE THESE COMMANDS BY NEW COMMANDS WHICH
000637:                                                                                                  #  CONTINUE ON WITH THE TRANSLATIONS IF ANY ARE PRESENT.
000638:
000639:                                                                                                  #  IN THIS SECTION THESE NEW COMMANDS ARE GENERATED AND STORED FOR REPLACEMENT OF THE CHANNEL COMMANDS WHEN THE
000640:                                                                                                  #  CORRESPONDING ROTATIONS ARE COMPLETED.
000641:
000642:                                                                                                  #  GENERATION OF THE SECOND PITCH(X-TRANS) WORD...PWORD2
000643:
000644: 17,3404           11626        ASMBLWP            CCS      RACFAIL
000645: 17,3405           13413                           TCF      FPX2                                  #  IF FAILURE ON AC IGNORE X-TRANSLATION
000646: 17,3406           13410                           TCF      +2
000647: 17,3407           13413                           TCF      FPX2
000648: 17,3410           51513                           INDEX    XNDX1
000649: 17,3411           32705                           CA       XLNNDX
000650: 17,3412           50000                           INDEX    A
000651: 17,3413           32741        FPX2               CA       PYTABLE
000652: 17,3414           72760                           MASK     PJETS
000653: 17,3415           55454                           TS       PWORD2
000654: 17,3416           13255                           TCF      YAWTIME
000655:
000656: 17,3417           31453        PBYPASS            CA       PWORD1                                #  THE T6 PROGRAM WILL LOAD PWORD2
000657: 17,3420           55454                           TS       PWORD2                                #  UPON ENTRY
000658: 17,3421           34714                           CAF      ZERO
000659: 17,3422           55461                           TS       BLAST1                                #  THERE IS NO PWORD2
000660: 17,3423           13255                           TCF      YAWTIME
000661:


000663:                                                                                                  #  GENERATION OF THE SECOND ROLL (Y,Z) WORD (RWORD2)
000664:
000665: 17,3424           11515        ASMBLWR            CCS      YNDX                                  #  CHECK FOR Y-TRANS
000666: 17,3425           13435                           TCF      ACBD2Y
000667: 17,3426           34714        NO2Y               CAF      ZERO
000668: 17,3427           55452                           TS       RWORD2
000669: 17,3430           11516                           CCS      ZNDX                                  #  CHECK FOR Z-TRANS
000670: 17,3431           13500                           TCF      ACBD2Z
000671: 17,3432           34714        NO2Z               CAF      ZERO
000672: 17,3433           27452                           ADS      RWORD2
000673: 17,3434           13211                           TCF      PITCHTIM                              #  RWORD2 ASSEMBLED
000674:
000675: 17,3435           11630        ACBD2Y             CCS      ACORBD
000676: 17,3436           13453                           TCF      AC2Y                                  #  CAN DO Y-TRANS
000677: 17,3437           13453                           TCF      AC2Y
000678: 17,3440           13441                           TCF      +1                                    #  USING AC FOR ROLL
000679: 17,3441           11626                           CCS      RACFAIL
000680: 17,3442           13426                           TCF      NO2Y                                  #  USING AC AND AC HAS FAILED
000681: 17,3443           13445                           TCF      +2
000682: 17,3444           13426                           TCF      NO2Y                                  #  DITTO
000683:
000684: 17,3445           51515                           INDEX    YNDX                                  #  NO FAILURES, CAN DO Y
000685: 17,3446           32705                           CA       XLNNDX
000686: 17,3447           50000                           INDEX    A
000687: 17,3450           33155                           CA       RTABLE
000688: 17,3451           73174                           MASK     ACRJETS
000689: 17,3452           13427                           TCF      NO2Y       +1
000690:
000691: 17,3453           11626        AC2Y               CCS      RACFAIL
000692: 17,3454           36214                           CAF      THREE
000693: 17,3455           13457                           TCF      +2
000694: 17,3456           36211                           CAF      SIX
000695: 17,3457           51515                           INDEX    YNDX
000696: 17,3460           63016                           AD       XLN1NDX
000697: 17,3461           50000                           INDEX    A
000698: 17,3462           33176                           CA       YZTABLE
000699: 17,3463           73210                           MASK     ACYJETS
000700: 17,3464           55452                           TS       RWORD2
000701: 17,3465           00006                           EXTEND
000702: 17,3466           74707                           MP       BIT4
000703: 17,3467           67715                           AD       =-2
000704: 17,3470           55522                           TS       NRJETS
000705: 17,3471           41457                           CS       BLAST
000706: 17,3472           63335                           AD       =+.1SEC
000707: 17,3473           00006                           EXTEND
000708: 17,3474           71522                           MP       NRJETS
000709: 17,3475           30001                           CA       L
000710: 17,3476           27547                           ADS      DFT
000711: 17,3477           13430                           TCF      NO2Y       +2


000713: 17,3500           11630        ACBD2Z             CCS      ACORBD
000714: 17,3501           13531                           TCF      BDF2Z                                 #  USING BD-ROLL
000715: 17,3502           13531                           TCF      BDF2Z                                 #  MUST CHECK FOR BD FAILURES
000716: 17,3503           13504                           TCF      +1
000717: 17,3504           11627                           CCS      RBDFAIL                               #  USING AC FOR ROLL, CAN DO Z-TRANS
000718: 17,3505           36214                           CAF      THREE
000719: 17,3506           13510                           TCF      +2
000720: 17,3507           36211                           CAF      SIX
000721: 17,3510           51516                           INDEX    ZNDX
000722: 17,3511           63016                           AD       XLN1NDX
000723: 17,3512           50000                           INDEX    A
000724: 17,3513           33176                           CA       YZTABLE
000725: 17,3514           73207                           MASK     BDZJETS
000726: 17,3515           27452                           ADS      RWORD2
000727: 17,3516           00006                           EXTEND
000728: 17,3517           74704                           MP       BIT7
000729: 17,3520           67715                           AD       =-2
000730: 17,3521           55522                           TS       NRJETS
000731: 17,3522           41457                           CS       BLAST
000732: 17,3523           63335                           AD       =+.1SEC
000733: 17,3524           00006                           EXTEND
000734: 17,3525           71522                           MP       NRJETS
000735: 17,3526           30001                           CA       L
000736: 17,3527           27547                           ADS      DFT
000737: 17,3530           13211                           TCF      PITCHTIM
000738:
000739: 17,3531           11627        BDF2Z              CCS      RBDFAIL
000740: 17,3532           13432                           TCF      NO2Z                                  #  USING BD-ROLL AND BD HAS FAILED
000741: 17,3533           13535                           TCF      +2
000742: 17,3534           13432                           TCF      NO2Z                                  #  DITTO
000743: 17,3535           51516                           INDEX    ZNDX
000744: 17,3536           32705                           CA       XLNNDX
000745: 17,3537           50000                           INDEX    A
000746: 17,3540           33155                           CA       RTABLE
000747: 17,3541           73175                           MASK     BDRJETS
000748: 17,3542           13433                           TCF      NO2Z       +1
000749:
000750: 17,3543           31451        RBYPASS            CA       RWORD1
000751: 17,3544           55452                           TS       RWORD2
000752: 17,3545           34714                           CAF      ZERO
000753: 17,3546           55457                           TS       BLAST
000754: 17,3547           13211                           TCF      PITCHTIM
000755:


000757:                                                                                                  #  GENERATION OF THE SECOND YAW (X-TRANS) WORD...YWORD2
000758:
000759: 17,3550           11627        ASMBLWY            CCS      RBDFAIL
000760: 17,3551           13557                           TCF      FYX2                                  #  IF FAILURE ON BD IGNORE X-TRANSLATION
000761: 17,3552           13554                           TCF      +2
000762: 17,3553           13557                           TCF      FYX2
000763: 17,3554           51514                           INDEX    XNDX2
000764: 17,3555           32705                           CA       XLNNDX
000765: 17,3556           50000                           INDEX    A
000766: 17,3557           32741        FYX2               CA       PYTABLE
000767: 17,3560           72761                           MASK     YJETS
000768: 17,3561           55456                           TS       YWORD2
000769: 17,3562           13567                           TCF      T6SETUP
000770:
000771: 17,3563           31455        YBYPASS            CA       YWORD1
000772: 17,3564           55456                           TS       YWORD2
000773: 17,3565           34714                           CAF      ZERO
000774: 17,3566           55463                           TS       BLAST2
000775:


000777:                                                                                                  #                                        SORT THE JET ON-TIMES
000778:
000779:                                                                                                  #  AT THIS POINT ALL THE CHANNEL COMMANDS AND JET ON-TIMES HAVE BEEN DETERMINED.  IN SUMMARY THESE ARE-
000780:
000781:                                                                                                  #        RWORD1
000782:                                                                                                  #        RWORD2          BLAST
000783:
000784:                                                                                                  #        PWORD1
000785:                                                                                                  #        PWORD2          BLAST1
000786:
000787:                                                                                                  #        YWORD1
000788:                                                                                                  #        YWORD2          BLAST2
000789:
000790:                                                                                                  #  IN THIS SECTION THE JET ON-TIMES ARE SORTED AND THE SEQUENCE OF T6 INTERRUPTS IS DETERMINED.  TO FACILITATE
000791:                                                                                                  #  THE SORTING PROCESS AND THE T6 PROGRAM, THE VARIABLES BLAST, BLAST1, BLAST2, ARE RESERVED AS DOUBLE PRECISION
000792:                                                                                                  #  WORDS.  THE LOWER PART OF THESE WORDS CONTAIN A BRANCH INDEX ASSOCIATED WITH THE ROTATION AXIS OF THE HIGHER
000793:                                                                                                  #  ORDER WORD.
000794:
000795: 17,3567           34714        T6SETUP            CAF      ZERO                                  #  BRANCH INDEX FOR ROLL
000796: 17,3570           55460                           TS       BLAST      +1
000797: 17,3571           34710                           CAF      FOUR                                  #  BRANCH INDEX FOR PITCH
000798: 17,3572           55462                           TS       BLAST1     +1
000799: 17,3573           34717                           CAF      ELEVEN                                #  BRANCH INDEX FOR YAW
000800: 17,3574           55464                           TS       BLAST2     +1
000801:
000802: 17,3575           41457                           CS       BLAST
000803: 17,3576           61461                           AD       BLAST1
000804: 17,3577           00006                           EXTEND
000805: 17,3600           63624                           BZMF     DXCHT12                               #  T1 GR T2
000806: 17,3601           41461        CHECKT23           CS       BLAST1
000807: 17,3602           61463                           AD       BLAST2
000808: 17,3603           00006                           EXTEND
000809: 17,3604           63630                           BZMF     DXCHT23
000810: 17,3605           41461        CALCDT6            CS       BLAST1
000811: 17,3606           27463                           ADS      BLAST2
000812: 17,3607           41457                           CS       BLAST
000813: 17,3610           27461                           ADS      BLAST1                                #  END OF SORTING PROCEDURE
000814: 17,3611           00006                           EXTEND                                         #  RESET T5LOC TO BEGIN PHASE1
000815: 17,3612           33623                           DCA      RCS2CADR
000816: 17,3613           53313                           DXCH     T5LOC
000817: 17,3614           44712        ENDJETS            CS       BIT1                                  #  RESET BIT1 FOR INITIALIZATION OF
000818: 17,3615           71501                           MASK     RCSFLAGS                              #  T6 PROGRAM
000819: 17,3616           55501                           TS       RCSFLAGS
000820: 17,3617           44714                           CS       ZERO                                  #  RESET T5PHASE FOR PHASE1
000821: 17,3620           55465                           TS       T5PHASE
000822: 17,3621           15222                           TCF      RESUME                                #  RESUME INTERRUPTED PROGRAM
000823: 17,3622  E6,1510                                  EBANK=   KMPAC
000824: 17,3622           02106 42066  RCS2CADR           2CADR    RCSATT
000825:


000827: 17,3624           53460        DXCHT12            DXCH     BLAST
000828: 17,3625           53462                           DXCH     BLAST1
000829: 17,3626           53460                           DXCH     BLAST
000830: 17,3627           13601                           TCF      CHECKT23
000831:
000832: 17,3630           53462        DXCHT23            DXCH     BLAST1
000833: 17,3631           53464                           DXCH     BLAST2
000834: 17,3632           53462                           DXCH     BLAST1
000835: 17,3633           41457                           CS       BLAST
000836: 17,3634           61461                           AD       BLAST1
000837: 17,3635           00006                           EXTEND
000838: 17,3636           63640                           BZMF     +2
000839: 17,3637           13605                           TCF      CALCDT6
000840: 17,3640           53460                           DXCH     BLAST
000841: 17,3641           53462                           DXCH     BLAST1
000842: 17,3642           53460                           DXCH     BLAST
000843: 17,3643           13605                           TCF      CALCDT6
000844:


000846:                                                                                                  #  T6 PROGRAM AND CHANNEL SETUP
000847:
000848: 21,3751                                           BANK     21
000849: 17,2000                                           SETLOC   DAPS5
000850: 17,2000                                           BANK
000851:
000852: 17,3644           22016        T6START            LXCH     BANKRUPT
000853: 17,3645           00006                           EXTEND
000854: 17,3646           22012                           QXCH     QRUPT
000855: 17,3647           10031                           CCS      TIME6                                 #  CHECK TO SEE IF TIME6 WAS RESET
000856: 17,3650           15222                           TCF      RESUME                                #  AFTER T6RUPT OCCURED (IN T5RUPT)
000857: 17,3651           13653                           TCF      +2                                    #  IF SO WAIT FOR NEXT T6RUPT BEFORE
000858: 17,3652           15222                           TCF      RESUME                                #  TAKING ACTION
000859:
000860: 17,3653           41501                           CS       RCSFLAGS
000861: 17,3654           74712                           MASK     BIT1                                  #  IF BIT1 IS 0 RESET TO 1
000862: 17,3655           00006                           EXTEND                                         #  AND INITIALIZE CHANNEL
000863: 17,3656           13667                           BZF      T6RUPTOR
000864: 17,3657           27501                           ADS      RCSFLAGS
000865: 17,3660           31451                           CA       RWORD1
000866: 17,3661           00006                           EXTEND                                         #  INITIALIZE CHANNELS 5,6 WITH WORD1
000867: 17,3662           01006                           WRITE    CHAN6
000868: 17,3663           31453                           CA       PWORD1
000869: 17,3664           61455                           AD       YWORD1
000870: 17,3665           00006                           EXTEND
000871: 17,3666           01005                           WRITE    CHAN5
000872:
000873: 17,3667           11457        T6RUPTOR           CCS      BLAST
000874: 17,3670           13747                           TCF      ZBLAST                                #  ZERO BLAST1
000875: 17,3671           13706                           TCF      REPLACE                               #  REPLACE WORD1
000876: 17,3672           13674                           TCF      +2
000877: 17,3673           13706                           TCF      REPLACE
000878: 17,3674           11461        T6L1               CCS      BLAST1
000879: 17,3675           13752                           TCF      ZBLAST1
000880: 17,3676           13713                           TCF      REPLACE1
000881: 17,3677           13701                           TCF      +2
000882: 17,3700           13713                           TCF      REPLACE1
000883: 17,3701           11463        T6L2               CCS      BLAST2
000884: 17,3702           13755                           TCF      ZBLAST2
000885: 17,3703           13720                           TCF      REPLACE2
000886: 17,3704           15222                           TCF      RESUME
000887: 17,3705           13720                           TCF      REPLACE2
000888:
000889: 17,3706           51460        REPLACE            INDEX    BLAST      +1
000890: 17,3707           03725                           TC       REPLACER
000891: 17,3710           44712                           CS       ONE
000892: 17,3711           55457                           TS       BLAST
000893: 17,3712           13674                           TCF      T6L1
000894:
000895: 17,3713           51462        REPLACE1           INDEX    BLAST1     +1


000897: 17,3714           03725                           TC       REPLACER
000898: 17,3715           44712                           CS       ONE
000899: 17,3716           55461                           TS       BLAST1
000900: 17,3717           13701                           TCF      T6L2
000901:
000902: 17,3720           51464        REPLACE2           INDEX    BLAST2     +1
000903: 17,3721           03725                           TC       REPLACER
000904: 17,3722           44712                           CS       ONE
000905: 17,3723           55463                           TS       BLAST2
000906: 17,3724           15222                           TCF      RESUME
000907:
000908: 17,3725           31452        REPLACER           CA       RWORD2                                #  INITIALIZE CHANNELS 5,6 WITH WORD2
000909: 17,3726           00006                           EXTEND
000910: 17,3727           01006                           WRITE    CHAN6
000911: 17,3730           00002                           TC       Q
000912:
000913: 17,3731           32761        REPLACEP           CA       YJETS
000914: 17,3732           00006                           EXTEND
000915: 17,3733           02005                           RAND     CHAN5
000916: 17,3734           61454                           AD       PWORD2
000917: 17,3735           00006                           EXTEND
000918: 17,3736           01005                           WRITE    CHAN5
000919: 17,3737           00002                           TC       Q
000920:
000921: 17,3740           32760        REPLACEY           CA       PJETS
000922: 17,3741           00006                           EXTEND
000923: 17,3742           02005                           RAND     CHAN5
000924: 17,3743           61456                           AD       YWORD2
000925: 17,3744           00006                           EXTEND
000926: 17,3745           01005                           WRITE    CHAN5
000927: 17,3746           00002                           TC       Q
000928:
000929: 17,3747           34714        ZBLAST             CAF      ZERO
000930: 17,3750           57457                           XCH      BLAST
000931: 17,3751           13757                           TCF      ENABT6
000932: 17,3752           34714        ZBLAST1            CAF      ZERO
000933: 17,3753           57461                           XCH      BLAST1
000934: 17,3754           13757                           TCF      ENABT6
000935: 17,3755           34714        ZBLAST2            CAF      ZERO
000936: 17,3756           57463                           XCH      BLAST2
000937: 17,3757           54031        ENABT6             TS       TIME6
000938: 17,3760           34674                           CAF      NEGMAX
000939: 17,3761           00006                           EXTEND
000940: 17,3762           05013                           WOR      CHAN13                                #  ENABLE T6RUPT
000941: 17,3763           15222                           TCF      RESUME
000942:
000943:                                                                                                  #  END OF T6 INTERRUPT
000944:
000945: 17,3764                        ENDSLECT           EQUALS
000946:

End of include-file JET_SELECTION_LOGIC.agc.  Parent file is MAIN.agc


