
Source Code


000002:                                                                                                  #  Copyright:    Public domain.
000003:                                                                                                  #  Filename:     KEYRUPT_UPRUPT.agc
000004:                                                                                                  #  Purpose:      Part of the source code for Colossus, build 249.
000005:                                                                                                  #                It is part of the source code for the Command Module's (CM)
000006:                                                                                                  #                Apollo Guidance Computer (AGC), possibly for Apollo 8 and 9.
000007:                                                                                                  #  Assembler:    yaYUL
000008:                                                                                                  #  Reference:    Starts on p. 1439 of 1701.pdf.
000009:                                                                                                  #  Contact:      Ron Burkey <info@sandroid.org>.
000010:                                                                                                  #  Website:      www.ibiblio.org/apollo.
000011:                                                                                                  #  Mod history:  08/30/04 RSB.   Adapted from corresponding Luminary131 file.
000012:
000013:                                                                                                  #  The contents of the "Colossus249" files, in general, are transcribed
000014:                                                                                                  #  from a scanned document obtained from MIT's website,
000015:                                                                                                  #  http://hrst.mit.edu/hrs/apollo/public/archive/1701.pdf.  Notations on this
000016:                                                                                                  #  document read, in part:
000017:
000018:                                                                                                  #        Assemble revision 249 of AGC program Colossus by NASA
000019:                                                                                                  #        2021111-041.  October 28, 1968.
000020:
000021:                                                                                                  #        This AGC program shall also be referred to as
000022:                                                                                                  #                                Colossus 1A
000023:
000024:                                                                                                  #        Prepared by
000025:                                                                                                  #                        Massachusetts Institute of Technology
000026:                                                                                                  #                        75 Cambridge Parkway
000027:                                                                                                  #                        Cambridge, Massachusetts
000028:                                                                                                  #        under NASA contract NAS 9-4065.
000029:
000030:                                                                                                  #  Refer directly to the online document mentioned above for further information.
000031:                                                                                                  #  Please report any errors (relative to 1701.pdf) to info@sandroid.org.
000032:
000033:                                                                                                  #  In some cases, where the source code for Luminary 131 overlaps that of
000034:                                                                                                  #  Colossus 249, this code is instead copied from the corresponding Luminary 131
000035:                                                                                                  #  source file, and then is proofed to incorporate any changes.
000036:


000038: 14,3744                                           BANK     14
000039: 07,2000                                           SETLOC   KEYRUPT
000040: 07,2000                                           BANK
000041: 07,3613                                           COUNT*   $$/KEYUP
000042:
000043: 07,3613           54016        KEYRUPT1           TS       BANKRUPT
000044: 07,3614           56002                           XCH      Q
000045: 07,3615           54012                           TS       QRUPT
000046: 07,3616           04414                           TC       LODSAMPT                              #  TIME IS SNATCHED IN RUPT FOR NOUN 65.
000047: 07,3617           34362                           CAF      LOW5
000048: 07,3620           00006                           EXTEND
000049: 07,3621           02015                           RAND     MNKEYIN                               #  CHECK IF KEYS 5M-1M ON
000050: 07,3622           54073        KEYCOM             TS       RUPTREG4
000051: 07,3623           40101                           CS       FLAGWRD5
000052: 07,3624           74674                           MASK     BIT15
000053: 07,3625           26101                           ADS      FLAGWRD5
000054:
000055: 07,3626           34371        ACCEPTUP           CAF      CHRPRIO                               #  (NOTE: RUPTREG4 = KEYTEMP1)
000056: 07,3627           05027                           TC       NOVAC
000057: 07,3630     0777                                  EBANK=   DSPCOUNT
000058: 07,3630           02000 60101                     2CADR    CHARIN
000059:
000060: 07,3632           30073                           CA       RUPTREG4
000061: 07,3633           50064                           INDEX    LOCCTR
000062: 07,3634           54154                           TS       MPAC                                  #  LEAVE 5 BIT KEY CODE IN MPAC FOR CHARIN
000063: 07,3635           05222                           TC       RESUME
000064:


000066:                                                                                                  #  UPRUPT PROGRAM
000067:
000068: 07,3636           54016        UPRUPT             TS       BANKRUPT
000069: 07,3637           56002                           XCH      Q
000070: 07,3640           54012                           TS       QRUPT
000071: 07,3641           04414                           TC       LODSAMPT                              #  TIME IS SNATCHED IN RUPT FOR NOUN 65.
000072: 07,3642           34714                           CAF      ZERO
000073: 07,3643           56045                           XCH      INLINK
000074: 07,3644           54073                           TS       KEYTEMP1
000075: 07,3645           34710                           CAF      BIT3                                  #  TURN ON UPACT LIGHT
000076: 07,3646           00006                           EXTEND                                         #  (BIT 3 OF CHANNEL 11)
000077: 07,3647           05011                           WOR      DSALMOUT
000078: 07,3650           34362        UPRPT1             CAF      LOW5                                  #  TEST FOR TRIPLE CHAR REDUNDANCY
000079: 07,3651           70073                           MASK     KEYTEMP1                              #  LOW5 OF WORD
000080: 07,3652           56073                           XCH      KEYTEMP1                              #  LOW5 INTO KEYTEMP1
000081: 07,3653           00006                           EXTEND
000082: 07,3654           74701                           MP       BIT10                                 #  SHIFT RIGHT 5
000083: 07,3655           54734                           TS       KEYTEMP2
000084: 07,3656           74362                           MASK     LOW5                                  #  MID 5
000085: 07,3657           63713                           AD       HI10
000086: 07,3660           03710                           TC       UPTEST
000087: 07,3661           34701                           CAF      BIT10
000088: 07,3662           00006                           EXTEND
000089: 07,3663           70734                           MP       KEYTEMP2                              #  SHIFT RIGHT 5
000090: 07,3664           74362                           MASK     LOW5                                  #  HIGH 5
000091: 07,3665           40000                           COM
000092: 07,3666           03710                           TC       UPTEST
000093:
000094: 07,3667           43716        UPCK               CS       ELRCODE                               #  CODE IS GOOD.  IF CODE = `ERROR RESET',
000095: 07,3670           60073                           AD       KEYTEMP1                              #  CLEAR UPLOCKFL (SET BIT4 OF FLAGWRD7 = 0)
000096: 07,3671           00006                           EXTEND                                         #  IF CODE DOES NOT = `ERROR RESET', ACCEPT
000097: 07,3672           13700                           BZF      CLUPLOCK                              #  CODE ONLY IF UPLOCKFL IS CLEAR (=0).
000098:
000099: 07,3673           34707                           CAF      BIT4                                  #  TEST UPLOCKFL FOR 0 OR 1
000100: 07,3674           70103                           MASK     FLAGWRD7
000101: 07,3675           10000                           CCS      A
000102: 07,3676           05222                           TC       RESUME                                #  UPLOCKFL = 1
000103: 07,3677           03626                           TC       ACCEPTUP                              #  UPLOCKFL = 0
000104:
000105: 07,3700           44707        CLUPLOCK           CS       BIT4                                  #  CLEAR UPLOCKFL (I.E., SET BIT 4 OF
000106: 07,3701           70103                           MASK     FLAGWRD7                              #  FLAGWRD7 = 0)
000107: 07,3702           54103                           TS       FLAGWRD7
000108: 07,3703           03626                           TC       ACCEPTUP
000109:
000110:                                                                                                  #  CODE IS BAD
000111: 07,3704           40103        TMFAIL2            CS       FLAGWRD7                              #  LOCK OUT FURTHER UPLINK ACTIVITY
000112: 07,3705           74707                           MASK     BIT4                                  #  (BY SETTING UPLOCKFL = 1) UNTIL
000113: 07,3706           26103                           ADS      FLAGWRD7                              #  `ERROR RESET' IS SENT VIA UPLINK.
000114: 07,3707           05222                           TC       RESUME
000115: 07,3710           60073        UPTEST             AD       KEYTEMP1


000117: 07,3711           10000                           CCS      A
000118: 07,3712           03704                           TC       TMFAIL2
000119: 07,3713           77740        HI10               OCT      77740
000120: 07,3714           03704                           TC       TMFAIL2
000121: 07,3715           00002                           TC       Q
000122:
000123: 07,3716           00022        ELRCODE            OCT      22
000124:
000125:                                                                                                  #  `UPLINK ACTIVITY LIGHT' IS TURNED OFF BY .....
000126:                                                                                                  #        1.      VBRELDSP
000127:                                                                                                  #        2.      ERROR RESET
000128:                                                                                                  #        3.      UPDATE PROGRAM (P27) ENTERED BY V70,V71,V72, AND V73.
000129:
000130:                                                                                                  #  THE RECEPTION OF A BAD CODE (I.E., CCC FAILURE) LOCKS OUT FURTHER UPLINK ACTIVITY BY SETTING BIT4 OF FLAGWRD7 = 1.
000131:                                                                                                  #  THIS INDICATION WILL BE TRANSFERRED TO THE GROUND BY THE DOWNLINK WHICH DOWNLINKS ALL FLAGWORDS.
000132:                                                                                                  #  WHEN UPLINK ACTIVITY IS LOCKED OUT, IT CAN BE ALLOWED WHEN THE GROUND UPLINS AND `ERROR RESET' CODE.
000133:                                                                                                  #  (IT IS RECOMMENDED THAT THE `ERROR LIGHT RESET' CODE IS PRECEEDED BY 16 BITS THE FIRST OF WHICH IS 1 FOLLOWED
000134:                                                                                                  #  BY 15 ZEROS.  THIS WILL ELIMINATE EXTRANEOUS BITS FROM INLINK WHICH MAY HAVE BEEN LEFT OVER FROM THE ORIGINAL
000135:                                                                                                  #  FAILURE).
000136:
000137:                                                                                                  #  UPLINK ACTIVITY IS ALSO ALLOWED (UNLOCKED) DURING FRECH START WHEN FRESH START SETS BIT4 OF FLAGWRD7 = 0.
000138:
000139:

End of include-file KEYRUPT_UPRUPT.agc.  Parent file is MAIN.agc


