
Source Code
000001:                                                                                                 #  Copyright:     Public domain.
000002:                                                                                                 #  Filename:      LATITUDE_LONGITUDE_SUBROUTINES.agc
000003:                                                                                                 #  Purpose:       Part of the source code for Colossus, build 249.
000004:                                                                                                 #                 It is part of the source code for the Command Module's (CM)
000005:                                                                                                 #                 Apollo Guidance Computer (AGC), possibly for Apollo 8 and 9.
000006:                                                                                                 #  Assembler:     yaYUL
000007:                                                                                                 #  Reference:     Begins on p. 1218 of 1701.pdf.
000008:                                                                                                 #  Contact:       Ron Burkey <info@sandroid.org>.
000009:                                                                                                 #  Website:       www.ibiblio.org/apollo.
000010:                                                                                                 #  Mod history:   08/28/04 RSB.   Adapted from corresponding Luminary131 file.
000011:
000012:                                                                                                 #  The contents of the "Colossus249" files, in general, are transcribed
000013:                                                                                                 #  from a scanned document obtained from MIT's website,
000014:                                                                                                 #  http://hrst.mit.edu/hrs/apollo/public/archive/1701.pdf.  Notations on this
000015:                                                                                                 #  document read, in part:
000016:
000017:                                                                                                 #         Assemble revision 249 of AGC program Colossus by NASA
000018:                                                                                                 #         2021111-041.  October 28, 1968.
000019:
000020:                                                                                                 #         This AGC program shall also be referred to as
000021:                                                                                                 #                                 Colossus 1A
000022:
000023:                                                                                                 #         Prepared by
000024:                                                                                                 #                         Massachussets Institute of Technology
000025:                                                                                                 #                         75 Cambridge Parkway
000026:                                                                                                 #                         Cambridge, Massachusetts
000027:                                                                                                 #         under NASA contract NAS 9-4065.
000028:
000029:                                                                                                 #  Refer directly to the online document mentioned above for further information.
000030:                                                                                                 #  Please report any errors (relative to 1701.pdf) to info@sandroid.org.
000031:
000032:                                                                                                 #  In some cases, where the source code for Luminary 131 overlaps that of
000033:                                                                                                 #  Colossus 249, this code is instead copied from the corresponding Luminary 131
000034:                                                                                                 #  source file, and then is proofed to incorporate any changes.
000035:
000036:                                                                                                 #  Page 1218
000037:                                                                                                 #  SUBROUTINE TO CONVERT RAD VECTOR AT GIVEN TIME TO LAT,LONG AND ALT
000038:
000039:                                                                                                 #  CALLING SEQUENCE
000040:                                                                                                 #         L-1     CALL
000041:                                                                                                 #         L               LAT-LONG
000042:
000043:                                                                                                 #  SUBROUTINES USED
000044:                                                                                                 #         R-TO-RP, ARCTAN, SFTGAMMA, SETRE
000045:
000046:                                                                                                 #  ERASABLE INIT. REQ.
000047:                                                                                                 #         AXO, -AYO, AZO, TEPHEM (SET AT LAUNCH TIME)
000048:                                                                                                 #         ALPHAV = POSITION VECTOR METERS B-29
000049:                                                                                                 #         MPAC -- TIME (CSECS B-28)
000050:                                                                                                 #         ERADFLAG =1, TO COMPUTE EARTH RADIUS, =0 FOR FIXED EARTH RADIUS
000051:                                                                                                 #         LUNAFLAG=0 FOR EARTH, 1 FOR MOON
000052:
000053:                                                                                                 #  OUTPUT
000054:                                                                                                 #         LATITUDE IN LAT         (REVS. B-0)
000055:                                                                                                 #         LONGITUDE IN LONG       (REVS. B-0)
000056:                                                                                                 #         ALTITUDE IN ALT METERS  B-29
000057:
000058: 30,3776                                          BANK     30
000059: 13,2000                                          SETLOC   LATLONG
000060: 13,2000                                          BANK
000061:
000062: 13,2322                                          COUNT    13/LT-LG
000063:
000064: 13,2322  E4,1551                                 EBANK=   ALPHAV
000065: 13,2322           40220        LAT-LONG          STQ      SETPD
000066: 13,2323           02242                                   INCORPEX
000067: 13,2324           00001                                   0D
000068: 13,2325           24007                          STOVL    6D                                    #  SAVE TIME IN 6-7D FOR R-TO-RP
000069: 13,2326           02152                                   ALPHAV
000070: 13,2327           51406                          PUSH     ABVAL                                 #  0-5D= R FOR R-TO-RP
000071: 13,2330           16310                          STODL    ALPHAM                                #  ABS. VALUE OF R FOR ALT FORMULA BELOW
000072: 13,2331           11456                                   ZEROVEC                               #  SET MPAC=0 FOR EARTH, NON-ZERO FOR MOON
000073: 13,2332           71414                          BOFF     COS                                   #  USE COS(0) TO GET NON-ZERO IN MPAC
000074: 13,2333           01743                                   LUNAFLAG                              #  0=EARTH, 1=MOON
000075: 13,2334           26335                                   CALLRTRP
000076: 13,2335           77624        CALLRTRP          CALL
000077: 13,2336           55366                                   R-TO-RP                               #  RP VECTOR CONVERTED FROM R B-29
000078: 13,2337           77656                          UNIT                                           #  UNIT RP B-1
000079: 13,2340           36152                          STCALL   ALPHAV                                #  U2= 1/2 CINL FOR SETRE SUBR BELOW
000080: 13,2341           26523                                   SETGAMMA                              #         SET GAMMA=B2/A2 FOR EARTH, =1 FOR MOON
000081: 13,2342           77624                          CALL                                           #         SCALED B-1.
000082: 13,2343           26533                                   SETRE                                 #  CALC RE METERS B-29
000083: 13,2344           63545                          DLOAD    DSQ
000084: 13,2345           02152                                   ALPHAV
000085: 13,2346           63525                          PDDL     DSQ
000086: 13,2347           02154                                   ALPHAV     +2
000087:                                                                                                 #  Page 1219
000088: 13,2350           75415                          DAD      SQRT
000089: 13,2351           76405                          DMP      SL1R
000090: 13,2352           00011                                   GAMRP
000091: 13,2353           14021                          STODL    COSTH                                 #  COS(LAT) B-1
000092: 13,2354           02156                                   ALPHAV     +4
000093: 13,2355           34023                          STCALL   SINTH                                 #  SIN(LAT) B-1
000094: 13,2356           26463                                   ARCTAN
000095: 13,2357           15104                          STODL    LAT                                   #  LAT B0
000096: 13,2360           02152                                   ALPHAV
000097: 13,2361           14021                          STODL    COSTH                                 #  COS(LONG) B-1
000098: 13,2362           02154                                   ALPHAV     +2
000099: 13,2363           34023                          STCALL   SINTH                                 #  SIN(LONG) B-1
000100: 13,2364           26463                                   ARCTAN
000101: 13,2365           15106                          STODL    LONG                                  #  LONG. REVS B-0 IN RANGE -1/2 TO 1/2
000102: 13,2366           02310                                   ALPHAM
000103: 13,2367           77625                          DSU                                            #  ALT= R-RE METERS B-29
000104: 13,2370           02241                                   ERADM
000105: 13,2371           35110                          STCALL   ALT                                   #  EXIT WITH ALT METERS B-29
000106: 13,2372           02242                                   INCORPEX
000107:                                                                                                 #  Page 1220
000108:                                                                                                 #  SUBROUTINE TO CONVERT LAT,LONG.ALT AT GIVEN TIME TO RADIUS VECTOR
000109:
000110:                                                                                                 #  CALLING SEQUENCE
000111:                                                                                                 #         L-1     CALL
000112:                                                                                                 #         L               LALOTORV
000113:
000114:                                                                                                 #  SUBROUTINES USED
000115:                                                                                                 #         SETGAMMA, SETRE, RP-TO-R
000116:
000117:                                                                                                 #  ERASABLE INIT. REQ.
000118:                                                                                                 #         AXO, AYO, AZO, TEPHEM SET AT LAUNCH TIME
000119:                                                                                                 #         LAT -- LATITUDE         (REVS B0)
000120:                                                                                                 #         LONG -- LONGITUDE       (REVS B0)
000121:                                                                                                 #         ALT -- ALTITUDE         (METERS) B-29
000122:                                                                                                 #         MPAC -- TIME            (CSECS B-28)
000123:                                                                                                 #         ERADFLAG =1 TO COMPUTE EARTH RADIUS, =0 FOR FIXED EARTH RADIUS
000124:                                                                                                 #         LUNAFLAG=0 FOR EARTH, 1 FOR MOON
000125:
000126:                                                                                                 #  OUTPUT
000127:                                                                                                 #         R-VECTOR IN ALPHAV      (METERS B-29)
000128:
000129: 13,2373           40220        LALOTORV          STQ      SETPD                                 #  LAT,LONG,ALT TO R VECTOR
000130: 13,2374           02242                                   INCORPEX
000131: 13,2375           00001                                   0D
000132: 13,2376           34007                          STCALL   6D                                    #  6-7D= TIME FOR RP-TO-R
000133: 13,2377           26523                                   SETGAMMA                              #  GAMMA=B2/A2 FOR EARTH, 1 FOR MOON B-1
000134: 13,2400           73545                          DLOAD    SIN                                   #            COS(LONG)COS(LAT) IN MPAC
000135: 13,2401           01104                                   LAT                                   #  UNIT RP = SIN(LONG)COS(LAT)    2-3D
000136: 13,2402           65275                          DMPR     PDDL                                  #  PD 2      GAMMA*SIN(LAT)       0-1D
000137: 13,2403           00011                                   GAMRP
000138: 13,2404           01104                                   LAT                                   #      0-1D= GAMMA*SIN(LAT) B-2
000139: 13,2405           65346                          COS      PDDL                                  #  PD4 2-3D= COS(LAT) B-1 TEMPORARILY
000140: 13,2406           01106                                   LONG
000141: 13,2407           57356                          SIN      DMPR                                  #  PD 2
000142: 13,2410           71525                          PDDL     COS                                   #  PD 4 2-3D = SIN(LONG)COS(LAT) B-2
000143: 13,2411           01104                                   LAT
000144: 13,2412           71525                          PDDL     COS                                   #  PD 6 4-5D = COS(LAT) B-1 TEMPORARILY
000145: 13,2413           01106                                   LONG
000146: 13,2414           55475                          DMPR     VDEF                                  #  PD4 MPAC= COS(LONG)COS(LAT) B-2
000147: 13,2415           41456                          UNIT     PUSH                                  #  0-5D= UNIT RP FOR RP-TO-R SUBR.
000148: 13,2416           36152                          STCALL   ALPHAV                                #  ALPHAV +4= SINL FOR SETRE SUBR.
000149: 13,2417           26533                                   SETRE                                 #  RE METERS B-29
000150: 13,2420           43145                          DLOAD    BOFF                                  #  SET MPAC=0 FOR EARTH, NON-ZERO IN MPAC
000151: 13,2421           11456                                   ZEROVEC
000152: 13,2422           01743                                   LUNAFLAG
000153: 13,2423           26425                                   CALLRPRT
000154: 13,2424           77746                          COS                                            #  USE COS(0) TO GET NON-ZERO IN MPAC
000155: 13,2425           77624        CALLRPRT          CALL
000156: 13,2426           55341                                   RP-TO-R                               #  EXIT WITH UNIT R VECTOR IN MPAC
000157: 13,2427           16152                          STODL    ALPHAV
000158: 13,2430           02241                                   ERADM
000159:                                                                                                 #  Page 1221
000160: 13,2431           74215                          DAD      VXSC                                  #  (RE + ALT)(UNIT R) METERS B-30
000161: 13,2432           01110                                   ALT
000162: 13,2433           02152                                   ALPHAV
000163: 13,2434           77772                          VSL1                                           #  R METERS B-29
000164: 13,2435           36152                          STCALL   ALPHAV                                #  EXIT WITH R IN METERS B-29
000165: 13,2436           02242                                   INCORPEX
000166:
000167:                                                                                                 #  SUBROUTINE TO COMPUTE EARTH RADIUS
000168:
000169:                                                                                                 #  INPUT
000170:                                                                                                 #         1/2 SIN LAT IN ALPHAV +4
000171:
000172:                                                                                                 #  OUTPUT
000173:                                                                                                 #         EARTH RADIUS IN ERADM AND MPAC (METERS B-29)
000174:
000175: 13,2437           63545        GETERAD           DLOAD    DSQ
000176: 13,2440           02156                                   ALPHAV     +4                         #  SIN**2(L)
000177: 13,2441           44352                          SL1      BDSU
000178: 13,2442           11454                                   DP1/2                                 #  COS**2(L)
000179: 13,2443           44275                          DMPR     BDSU
000180: 13,2444           26460                                   EE
000181: 13,2445           11454                                   DP1/2
000182: 13,2446           75465                          BDDV     SQRT
000183: 13,2447           26454                                   B2XSC
000184: 13,2450           77622                          SR4R
000185: 13,2451           02241                          STORE    ERADM
000186: 13,2452           77616                          RVQ
000187:
000188:                                                                                                 #  THE FOLLOWING CONSTANTS WERE COMPUTED WITH A=6378166, B=6356784 METERS
000189:                                                                                                 #  B2XSC = B**2 SCALED B-51
000190:                                                                                                 #  B2/A2 = B**2/A**2 SCALED B-1
000191:                                                                                                 #  EE = (1-B**2/A**2) SCALED B-0
000192:
000193: 13,2453           00446 00305  B2XSC             2DEC     .0179450689                            #  B**2 SCALED B-51
000194: 13,2455  04,3453               DP1/2             =        XUNIT
000195: 13,2455           17711 05254  B2/A2             2DEC     .9933064884 B-1                        #  GAMMA= B**2/A**2 B-1
000196: 13,2457           00155 25250  EE                2DEC     6.6935116  E-3                        #  (1-B**2/A**2) B-0
000197: 13,2461           00302 17755  ERAD              2DEC     6373338    B-29                       #  PAD RADIUS
000198:
000199:                                                                                                 #  Page 1222
000200:                                                                                                 #  ARCTAN SUBROUTINE
000201:
000202:                                                                                                 #  CALLING SEQUENCE
000203:                                                                                                 #         SIN THETA IN SINTH B-1
000204:                                                                                                 #         COS THETA IN COSTH B-1
000205:                                                                                                 #         CALL ARCTAN
000206:
000207:                                                                                                 #  OUTPUT
000208:                                                                                                 #         ARCTAN THETA IN MPAC AND THETA B-0 IN RANGE -1/2 TO +1/2
000209:
000210: 13,2463           77600        ARCTAN            BOV
000211: 13,2464           26465                                   CLROVFLW
000212: 13,2465           63545        CLROVFLW          DLOAD    DSQ
000213: 13,2466           00023                                   SINTH
000214: 13,2467           63525                          PDDL     DSQ
000215: 13,2470           00021                                   COSTH
000216: 13,2471           77615                          DAD
000217: 13,2472           75454                          BZE      SQRT
000218: 13,2473           26511                                   ARCTANXX                              #  ATAN=0/0.  SET THETA=0
000219: 13,2474           40065                          BDDV     BOV
000220: 13,2475           00023                                   SINTH
000221: 13,2476           26516                                   ATAN=90
000222: 13,2477           67542                          SR1      ASIN
000223: 13,2500           00025                          STORE    THETA
000224: 13,2501           50125                          PDDL     BMN
000225: 13,2502           00021                                   COSTH
000226: 13,2503           26505                                   NEGCOS
000227: 13,2504           43545                          DLOAD    RVQ
000228: 13,2505           57545        NEGCOS            DLOAD    DCOMP
000229: 13,2506           43244                          BPL      DAD
000230: 13,2507           26513                                   NEGOUT
000231: 13,2510           11454                                   DP1/2
000232: 13,2511           00025        ARCTANXX          STORE    THETA
000233: 13,2512           77616                          RVQ
000234:
000235: 13,2513           52025        NEGOUT            DSU      GOTO
000236: 13,2514           11454                                   DP1/2
000237: 13,2515           26511                                   ARCTANXX
000238: 13,2516           75345        ATAN=90           DLOAD    SIGN
000239: 13,2517           11502                                   LODP1/4
000240: 13,2520           00023                                   SINTH
000241: 13,2521           00025                          STORE    THETA
000242: 13,2522           77616                          RVQ
000243:
000244: 13,2523  04,3455               2DZERO            =        DPZERO
000245:
000246:                                                                                                 #  Page 1223
000247:                                                                                                 #  ***** SETGAMMA SUBROUTINE *****
000248:                                                                                                 #  SUBROUTINE TO SET GAMMA FOR THE LAT-LONG AND LALOTORV SUBROUTINES
000249:
000250:                                                                                                 #  GAMMA = B**2/A**2 FOR EARTH (B-1)
000251:                                                                                                 #  GAMMA = 1 FOR MOON (B-1)
000252:
000253:                                                                                                 #  CALLING SEQUENCE
000254:                                                                                                 #         L       CALL
000255:                                                                                                 #         L+1             SETGAMMA
000256:
000257:                                                                                                 #  INPUT
000258:                                                                                                 #         LUNAFLAG=0 FOR EARTH, =1 FOR MOON
000259:
000260:                                                                                                 #  OUTPUT
000261:                                                                                                 #         GAMMA IN GAMRP (B-1)
000262:
000263: 13,2523           43145        SETGAMMA          DLOAD    BOFF                                  #  BRANCH FOR EARTH
000264: 13,2524           26456                                   B2/A2                                 #  EARTH GAMMA
000265: 13,2525           01743                                   LUNAFLAG
000266: 13,2526           26531                                   SETGMEX
000267: 13,2527           77735                          SLOAD
000268: 13,2530           11454                                   1B1                                   #  MOON GAMMA
000269: 13,2531           00011        SETGMEX           STORE    GAMRP
000270: 13,2532           77616                          RVQ
000271: 13,2533                        GAMRP             =        8D
000272:
000273:                                                                                                 #  Page 1224
000274:                                                                                                 #  ***** SETRE SUBROUTINE *****
000275:                                                                                                 #  SUBROUTINE TO SET RE (EARTH OR MOON RADIUS)
000276:
000277:                                                                                                 #         RE = RM FOR MOON
000278:                                                                                                 #         RE = RREF FOR FIXED EARTH RADIUS OR COMPUTED RF FOR FISCHER ELLIPSOID
000279:
000280:                                                                                                 #  CALLING SEQUENCE
000281:                                                                                                 #         L       CALL
000282:                                                                                                 #         L+1             SETRE
000283:
000284:                                                                                                 #  SUBROUTINES USED
000285:                                                                                                 #         CETERAD
000286:
000287:                                                                                                 #  INPUT
000288:                                                                                                 #         ERADFLAG = 0 FOR FIXED RE, 1 FOR COMPUTED RE
000289:                                                                                                 #         ALPHAV +4 = 1/2 SINL IF GETERAD IS CALLED
000290:                                                                                                 #         LUNAFLAG = 0 FOR EARTH, =1 FOR MOON
000291:
000292:                                                                                                 #  OUTPUT
000293:                                                                                                 #         ERADM = 504RM FOR MOON (METERS B-29)
000294:                                                                                                 #         ERADM = ERAD OR COMPUTED RE FOR EARTH (METERS B-29)
000295:
000296: 13,2533           71220        SETRE             STQ      DLOAD
000297: 13,2534           00051                                   SETREX
000298: 13,2535           26560                                   504RM
000299: 13,2536           71214                          BON      DLOAD                                 #  BRANCH FOR MOON
000300: 13,2537           01703                                   LUNAFLAG
000301: 13,2540           26550                                   TSTRLSRM
000302: 13,2541           26462                                   ERAD
000303: 13,2542           45014                          BOFF     CALL                                  #  ERADFLAG=0 FOR FIXED RE, 1 FOR COMPUTED
000304: 13,2543           00742                                   ERADFLAG
000305: 13,2544           26546                                   SETRXX
000306: 13,2545           26437                                   GETERAD
000307: 13,2546           36241        SETRXX            STCALL   ERADM                                 #  EXIT WITH RE OR RM METERS B-29
000308: 13,2547           00051                                   SETREX
000309: 13,2550           77214        TSTRLSRM          BON      VLOAD                                 #  ERADFLAG=0, SET R0=RLS
000310: 13,2551           00702                                   ERADFLAG                              #          =1      40=RM
000311: 13,2552           26546                                   SETRXX
000312: 13,2553           02026                                   RLS
000313: 13,2554           64446                          ABVAL    SR2R                                  #  SCALE FROM B-27 TO B-29
000314: 13,2555           77650                          GOTO
000315: 13,2556           26546                                   SETRXX
000316: 13,2557  0000051               SETREX            =        S2
000317: 13,2557           00065 01265  504RM             2DEC     1738090    B-29                       #  METERS B-29 (MOON RADIUS)
000318:
000319:
000320:
000321:

End of include-file LATITUDE_LONGITUDE_SUBROUTINES.agc.  Parent file is MAIN.agc


