
Source Code


000002:                                                                                                  ## Copyright:   Public domain.
000003:                                                                                                  ## Filename:    LATITUDE_LONGITUDE_SUBROUTINES.agc
000004:                                                                                                  ## Purpose:     Part of the source code for Colossus, build 249.
000005:                                                                                                  ##              It is part of the source code for the Command Module's (CM)
000006:                                                                                                  ##              Apollo Guidance Computer (AGC), possibly for Apollo 8 and 9.
000007:                                                                                                  ## Assembler:   yaYUL
000008:                                                                                                  ## Reference:   Begins on p. 1218 of 1701.pdf.
000009:                                                                                                  ## Contact:     Ron Burkey <info@sandroid.org>.
000010:                                                                                                  ## Website:     www.ibiblio.org/apollo.
000011:                                                                                                  ## Mod history: 08/28/04 RSB.   Adapted from corresponding Luminary131 file.
000012:                                                                                                  ##              2010-10-25 JL   Indentation fix.
000013:                                                                                                  ##
000014:                                                                                                  ## The contents of the "Colossus249" files, in general, are transcribed
000015:                                                                                                  ## from a scanned document obtained from MIT's website,
000016:                                                                                                  ## http://hrst.mit.edu/hrs/apollo/public/archive/1701.pdf.  Notations on this
000017:                                                                                                  ## document read, in part:
000018:                                                                                                  ##
000019:                                                                                                  ##      Assemble revision 249 of AGC program Colossus by NASA
000020:                                                                                                  ##      2021111-041.  October 28, 1968.
000021:                                                                                                  ##
000022:                                                                                                  ##      This AGC program shall also be referred to as
000023:                                                                                                  ##                              Colossus 1A
000024:                                                                                                  ##
000025:                                                                                                  ##      Prepared by
000026:                                                                                                  ##                      Massachusetts Institute of Technology
000027:                                                                                                  ##                      75 Cambridge Parkway
000028:                                                                                                  ##                      Cambridge, Massachusetts
000029:                                                                                                  ##      under NASA contract NAS 9-4065.
000030:                                                                                                  ##
000031:                                                                                                  ## Refer directly to the online document mentioned above for further information.
000032:                                                                                                  ## Please report any errors (relative to 1701.pdf) to info@sandroid.org.
000033:                                                                                                  ##
000034:                                                                                                  ## In some cases, where the source code for Luminary 131 overlaps that of
000035:                                                                                                  ## Colossus 249, this code is instead copied from the corresponding Luminary 131
000036:                                                                                                  ## source file, and then is proofed to incorporate any changes.
000037:


000039:                                                                                                  #  SUBROUTINE TO CONVERT RAD VECTOR AT GIVEN TIME TO LAT,LONG AND ALT
000040:
000041:                                                                                                  #  CALLING SEQUENCE
000042:                                                                                                  #        L-1     CALL
000043:                                                                                                  #        L               LAT-LONG
000044:
000045:                                                                                                  #  SUBROUTINES USED
000046:                                                                                                  #        R-TO-RP, ARCTAN, SFTGAMMA, SETRE
000047:
000048:                                                                                                  #  ERASABLE INIT. REQ.
000049:                                                                                                  #        AXO, -AYO, AZO, TEPHEM (SET AT LAUNCH TIME)
000050:                                                                                                  #        ALPHAV = POSITION VECTOR METERS B-29
000051:                                                                                                  #        MPAC -- TIME (CSECS B-28)
000052:                                                                                                  #        ERADFLAG =1, TO COMPUTE EARTH RADIUS, =0 FOR FIXED EARTH RADIUS
000053:                                                                                                  #        LUNAFLAG=0 FOR EARTH, 1 FOR MOON
000054:
000055:                                                                                                  #  OUTPUT
000056:                                                                                                  #        LATITUDE IN LAT         (REVS. B-0)
000057:                                                                                                  #        LONGITUDE IN LONG       (REVS. B-0)
000058:                                                                                                  #        ALTITUDE IN ALT METERS  B-29
000059:
000060: 30,3776                                           BANK     30
000061: 13,2000                                           SETLOC   LATLONG
000062: 13,2000                                           BANK
000063:
000064: 13,2322                                           COUNT    13/LT-LG
000065:
000066: 13,2322  E4,1551                                  EBANK=   ALPHAV
000067: 13,2322           40220        LAT-LONG           STQ      SETPD
000068: 13,2323           02242                                    INCORPEX
000069: 13,2324           00001                                    0D
000070: 13,2325           24007                           STOVL    6D                                    #  SAVE TIME IN 6-7D FOR R-TO-RP
000071: 13,2326           02152                                    ALPHAV
000072: 13,2327           51406                           PUSH     ABVAL                                 #  0-5D= R FOR R-TO-RP
000073: 13,2330           16310                           STODL    ALPHAM                                #  ABS. VALUE OF R FOR ALT FORMULA BELOW
000074: 13,2331           11456                                    ZEROVEC                               #  SET MPAC=0 FOR EARTH, NON-ZERO FOR MOON
000075: 13,2332           71414                           BOFF     COS                                   #  USE COS(0) TO GET NON-ZERO IN MPAC
000076: 13,2333           01743                                    LUNAFLAG                              #  0=EARTH, 1=MOON
000077: 13,2334           26335                                    CALLRTRP
000078: 13,2335           77624        CALLRTRP           CALL
000079: 13,2336           55366                                    R-TO-RP                               #  RP VECTOR CONVERTED FROM R B-29
000080: 13,2337           77656                           UNIT                                           #  UNIT RP B-1
000081: 13,2340           36152                           STCALL   ALPHAV                                #  U2= 1/2 CINL FOR SETRE SUBR BELOW
000082: 13,2341           26523                                    SETGAMMA                              #        SET GAMMA=B2/A2 FOR EARTH, =1 FOR MOON
000083: 13,2342           77624                           CALL                                           #        SCALED B-1.
000084: 13,2343           26533                                    SETRE                                 #  CALC RE METERS B-29
000085: 13,2344           63545                           DLOAD    DSQ
000086: 13,2345           02152                                    ALPHAV
000087: 13,2346           63525                           PDDL     DSQ
000088: 13,2347           02154                                    ALPHAV     +2


000090: 13,2350           75415                           DAD      SQRT
000091: 13,2351           76405                           DMP      SL1R
000092: 13,2352           00011                                    GAMRP
000093: 13,2353           14021                           STODL    COSTH                                 #  COS(LAT) B-1
000094: 13,2354           02156                                    ALPHAV     +4
000095: 13,2355           34023                           STCALL   SINTH                                 #  SIN(LAT) B-1
000096: 13,2356           26463                                    ARCTAN
000097: 13,2357           15104                           STODL    LAT                                   #  LAT B0
000098: 13,2360           02152                                    ALPHAV
000099: 13,2361           14021                           STODL    COSTH                                 #  COS(LONG) B-1
000100: 13,2362           02154                                    ALPHAV     +2
000101: 13,2363           34023                           STCALL   SINTH                                 #  SIN(LONG) B-1
000102: 13,2364           26463                                    ARCTAN
000103: 13,2365           15106                           STODL    LONG                                  #  LONG. REVS B-0 IN RANGE -1/2 TO 1/2
000104: 13,2366           02310                                    ALPHAM
000105: 13,2367           77625                           DSU                                            #  ALT= R-RE METERS B-29
000106: 13,2370           02241                                    ERADM
000107: 13,2371           35110                           STCALL   ALT                                   #  EXIT WITH ALT METERS B-29
000108: 13,2372           02242                                    INCORPEX


000110:                                                                                                  #  SUBROUTINE TO CONVERT LAT,LONG.ALT AT GIVEN TIME TO RADIUS VECTOR
000111:
000112:                                                                                                  #  CALLING SEQUENCE
000113:                                                                                                  #        L-1     CALL
000114:                                                                                                  #        L               LALOTORV
000115:
000116:                                                                                                  #  SUBROUTINES USED
000117:                                                                                                  #        SETGAMMA, SETRE, RP-TO-R
000118:
000119:                                                                                                  #  ERASABLE INIT. REQ.
000120:                                                                                                  #        AXO, AYO, AZO, TEPHEM SET AT LAUNCH TIME
000121:                                                                                                  #        LAT -- LATITUDE         (REVS B0)
000122:                                                                                                  #        LONG -- LONGITUDE       (REVS B0)
000123:                                                                                                  #        ALT -- ALTITUDE         (METERS) B-29
000124:                                                                                                  #        MPAC -- TIME            (CSECS B-28)
000125:                                                                                                  #        ERADFLAG =1 TO COMPUTE EARTH RADIUS, =0 FOR FIXED EARTH RADIUS
000126:                                                                                                  #        LUNAFLAG=0 FOR EARTH, 1 FOR MOON
000127:
000128:                                                                                                  #  OUTPUT
000129:                                                                                                  #        R-VECTOR IN ALPHAV      (METERS B-29)
000130:
000131: 13,2373           40220        LALOTORV           STQ      SETPD                                 #  LAT,LONG,ALT TO R VECTOR
000132: 13,2374           02242                                    INCORPEX
000133: 13,2375           00001                                    0D
000134: 13,2376           34007                           STCALL   6D                                    #  6-7D= TIME FOR RP-TO-R
000135: 13,2377           26523                                    SETGAMMA                              #  GAMMA=B2/A2 FOR EARTH, 1 FOR MOON B-1
000136: 13,2400           73545                           DLOAD    SIN                                   #            COS(LONG)COS(LAT) IN MPAC
000137: 13,2401           01104                                    LAT                                   #  UNIT RP = SIN(LONG)COS(LAT)    2-3D
000138: 13,2402           65275                           DMPR     PDDL                                  #  PD 2      GAMMA*SIN(LAT)       0-1D
000139: 13,2403           00011                                    GAMRP
000140: 13,2404           01104                                    LAT                                   #      0-1D= GAMMA*SIN(LAT) B-2
000141: 13,2405           65346                           COS      PDDL                                  #  PD4 2-3D= COS(LAT) B-1 TEMPORARILY
000142: 13,2406           01106                                    LONG
000143: 13,2407           57356                           SIN      DMPR                                  #  PD 2
000144: 13,2410           71525                           PDDL     COS                                   #  PD 4 2-3D = SIN(LONG)COS(LAT) B-2
000145: 13,2411           01104                                    LAT
000146: 13,2412           71525                           PDDL     COS                                   #  PD 6 4-5D = COS(LAT) B-1 TEMPORARILY
000147: 13,2413           01106                                    LONG
000148: 13,2414           55475                           DMPR     VDEF                                  #  PD4 MPAC= COS(LONG)COS(LAT) B-2
000149: 13,2415           41456                           UNIT     PUSH                                  #  0-5D= UNIT RP FOR RP-TO-R SUBR.
000150: 13,2416           36152                           STCALL   ALPHAV                                #  ALPHAV +4= SINL FOR SETRE SUBR.
000151: 13,2417           26533                                    SETRE                                 #  RE METERS B-29
000152: 13,2420           43145                           DLOAD    BOFF                                  #  SET MPAC=0 FOR EARTH, NON-ZERO IN MPAC
000153: 13,2421           11456                                    ZEROVEC
000154: 13,2422           01743                                    LUNAFLAG
000155: 13,2423           26425                                    CALLRPRT
000156: 13,2424           77746                           COS                                            #  USE COS(0) TO GET NON-ZERO IN MPAC
000157: 13,2425           77624        CALLRPRT           CALL
000158: 13,2426           55341                                    RP-TO-R                               #  EXIT WITH UNIT R VECTOR IN MPAC
000159: 13,2427           16152                           STODL    ALPHAV
000160: 13,2430           02241                                    ERADM


000162: 13,2431           74215                           DAD      VXSC                                  #  (RE + ALT)(UNIT R) METERS B-30
000163: 13,2432           01110                                    ALT
000164: 13,2433           02152                                    ALPHAV
000165: 13,2434           77772                           VSL1                                           #  R METERS B-29
000166: 13,2435           36152                           STCALL   ALPHAV                                #  EXIT WITH R IN METERS B-29
000167: 13,2436           02242                                    INCORPEX
000168:
000169:                                                                                                  #  SUBROUTINE TO COMPUTE EARTH RADIUS
000170:
000171:                                                                                                  #  INPUT
000172:                                                                                                  #        1/2 SIN LAT IN ALPHAV +4
000173:
000174:                                                                                                  #  OUTPUT
000175:                                                                                                  #        EARTH RADIUS IN ERADM AND MPAC (METERS B-29)
000176:
000177: 13,2437           63545        GETERAD            DLOAD    DSQ
000178: 13,2440           02156                                    ALPHAV     +4                         #  SIN**2(L)
000179: 13,2441           44352                           SL1      BDSU
000180: 13,2442           11454                                    DP1/2                                 #  COS**2(L)
000181: 13,2443           44275                           DMPR     BDSU
000182: 13,2444           26460                                    EE
000183: 13,2445           11454                                    DP1/2
000184: 13,2446           75465                           BDDV     SQRT
000185: 13,2447           26454                                    B2XSC
000186: 13,2450           77622                           SR4R
000187: 13,2451           02241                           STORE    ERADM
000188: 13,2452           77616                           RVQ
000189:
000190:                                                                                                  #  THE FOLLOWING CONSTANTS WERE COMPUTED WITH A=6378166, B=6356784 METERS
000191:                                                                                                  #  B2XSC = B**2 SCALED B-51
000192:                                                                                                  #  B2/A2 = B**2/A**2 SCALED B-1
000193:                                                                                                  #  EE = (1-B**2/A**2) SCALED B-0
000194:
000195: 13,2453           00446 00305  B2XSC              2DEC     .0179450689                            #  B**2 SCALED B-51
000196: 13,2455  04,3453               DP1/2              =        XUNIT
000197: 13,2455           17711 05254  B2/A2              2DEC     .9933064884 B-1                        #  GAMMA= B**2/A**2 B-1
000198: 13,2457           00155 25250  EE                 2DEC     6.6935116  E-3                        #  (1-B**2/A**2) B-0
000199: 13,2461           00302 17755  ERAD               2DEC     6373338    B-29                       #  PAD RADIUS
000200:


000202:                                                                                                  #  ARCTAN SUBROUTINE
000203:
000204:                                                                                                  #  CALLING SEQUENCE
000205:                                                                                                  #        SIN THETA IN SINTH B-1
000206:                                                                                                  #        COS THETA IN COSTH B-1
000207:                                                                                                  #        CALL ARCTAN
000208:
000209:                                                                                                  #  OUTPUT
000210:                                                                                                  #        ARCTAN THETA IN MPAC AND THETA B-0 IN RANGE -1/2 TO +1/2
000211:
000212: 13,2463           77600        ARCTAN             BOV
000213: 13,2464           26465                                    CLROVFLW
000214: 13,2465           63545        CLROVFLW           DLOAD    DSQ
000215: 13,2466           00023                                    SINTH
000216: 13,2467           63525                           PDDL     DSQ
000217: 13,2470           00021                                    COSTH
000218: 13,2471           77615                           DAD
000219: 13,2472           75454                           BZE      SQRT
000220: 13,2473           26511                                    ARCTANXX                              #  ATAN=0/0.  SET THETA=0
000221: 13,2474           40065                           BDDV     BOV
000222: 13,2475           00023                                    SINTH
000223: 13,2476           26516                                    ATAN=90
000224: 13,2477           67542                           SR1      ASIN
000225: 13,2500           00025                           STORE    THETA
000226: 13,2501           50125                           PDDL     BMN
000227: 13,2502           00021                                    COSTH
000228: 13,2503           26505                                    NEGCOS
000229: 13,2504           43545                           DLOAD    RVQ
000230: 13,2505           57545        NEGCOS             DLOAD    DCOMP
000231: 13,2506           43244                           BPL      DAD
000232: 13,2507           26513                                    NEGOUT
000233: 13,2510           11454                                    DP1/2
000234: 13,2511           00025        ARCTANXX           STORE    THETA
000235: 13,2512           77616                           RVQ
000236:
000237: 13,2513           52025        NEGOUT             DSU      GOTO
000238: 13,2514           11454                                    DP1/2
000239: 13,2515           26511                                    ARCTANXX
000240: 13,2516           75345        ATAN=90            DLOAD    SIGN
000241: 13,2517           11502                                    LODP1/4
000242: 13,2520           00023                                    SINTH
000243: 13,2521           00025                           STORE    THETA
000244: 13,2522           77616                           RVQ
000245:
000246: 13,2523  04,3455               2DZERO             =        DPZERO
000247:


000249:                                                                                                  #  ***** SETGAMMA SUBROUTINE *****
000250:                                                                                                  #  SUBROUTINE TO SET GAMMA FOR THE LAT-LONG AND LALOTORV SUBROUTINES
000251:
000252:                                                                                                  #  GAMMA = B**2/A**2 FOR EARTH (B-1)
000253:                                                                                                  #  GAMMA = 1 FOR MOON (B-1)
000254:
000255:                                                                                                  #  CALLING SEQUENCE
000256:                                                                                                  #        L       CALL
000257:                                                                                                  #        L+1             SETGAMMA
000258:
000259:                                                                                                  #  INPUT
000260:                                                                                                  #        LUNAFLAG=0 FOR EARTH, =1 FOR MOON
000261:
000262:                                                                                                  #  OUTPUT
000263:                                                                                                  #        GAMMA IN GAMRP (B-1)
000264:
000265: 13,2523           43145        SETGAMMA           DLOAD    BOFF                                  #  BRANCH FOR EARTH
000266: 13,2524           26456                                    B2/A2                                 #  EARTH GAMMA
000267: 13,2525           01743                                    LUNAFLAG
000268: 13,2526           26531                                    SETGMEX
000269: 13,2527           77735                           SLOAD
000270: 13,2530           11454                                    1B1                                   #  MOON GAMMA
000271: 13,2531           00011        SETGMEX            STORE    GAMRP
000272: 13,2532           77616                           RVQ
000273: 13,2533                        GAMRP              =        8D
000274:


000276:                                                                                                  #  ***** SETRE SUBROUTINE *****
000277:                                                                                                  #  SUBROUTINE TO SET RE (EARTH OR MOON RADIUS)
000278:
000279:                                                                                                  #        RE = RM FOR MOON
000280:                                                                                                  #        RE = RREF FOR FIXED EARTH RADIUS OR COMPUTED RF FOR FISCHER ELLIPSOID
000281:
000282:                                                                                                  #  CALLING SEQUENCE
000283:                                                                                                  #        L       CALL
000284:                                                                                                  #        L+1             SETRE
000285:
000286:                                                                                                  #  SUBROUTINES USED
000287:                                                                                                  #        CETERAD
000288:
000289:                                                                                                  #  INPUT
000290:                                                                                                  #        ERADFLAG = 0 FOR FIXED RE, 1 FOR COMPUTED RE
000291:                                                                                                  #        ALPHAV +4 = 1/2 SINL IF GETERAD IS CALLED
000292:                                                                                                  #        LUNAFLAG = 0 FOR EARTH, =1 FOR MOON
000293:
000294:                                                                                                  #  OUTPUT
000295:                                                                                                  #        ERADM = 504RM FOR MOON (METERS B-29)
000296:                                                                                                  #        ERADM = ERAD OR COMPUTED RE FOR EARTH (METERS B-29)
000297:
000298: 13,2533           71220        SETRE              STQ      DLOAD
000299: 13,2534           00051                                    SETREX
000300: 13,2535           26560                                    504RM
000301: 13,2536           71214                           BON      DLOAD                                 #  BRANCH FOR MOON
000302: 13,2537           01703                                    LUNAFLAG
000303: 13,2540           26550                                    TSTRLSRM
000304: 13,2541           26462                                    ERAD
000305: 13,2542           45014                           BOFF     CALL                                  #  ERADFLAG=0 FOR FIXED RE, 1 FOR COMPUTED
000306: 13,2543           00742                                    ERADFLAG
000307: 13,2544           26546                                    SETRXX
000308: 13,2545           26437                                    GETERAD
000309: 13,2546           36241        SETRXX             STCALL   ERADM                                 #  EXIT WITH RE OR RM METERS B-29
000310: 13,2547           00051                                    SETREX
000311: 13,2550           77214        TSTRLSRM           BON      VLOAD                                 #  ERADFLAG=0, SET R0=RLS
000312: 13,2551           00702                                    ERADFLAG                              #          =1      40=RM
000313: 13,2552           26546                                    SETRXX
000314: 13,2553           02026                                    RLS
000315: 13,2554           64446                           ABVAL    SR2R                                  #  SCALE FROM B-27 TO B-29
000316: 13,2555           77650                           GOTO
000317: 13,2556           26546                                    SETRXX
000318: 13,2557  0000051               SETREX             =        S2
000319: 13,2557           00065 01265  504RM              2DEC     1738090    B-29                       #  METERS B-29 (MOON RADIUS)
000320:
000321:
000322:
000323:

End of include-file LATITUDE_LONGITUDE_SUBROUTINES.agc.  Parent file is MAIN.agc


