
Source Code


000002:                                                                                                  ## Copyright:   Public domain.
000003:                                                                                                  ## Filename:    LUNAR_AND_SOLAR_EPHEMERIDES_SUBROUTINES.agc
000004:                                                                                                  ## Purpose:     Part of the source code for Colossus, build 249.
000005:                                                                                                  ##              It is part of the source code for the Command Module's (CM)
000006:                                                                                                  ##              Apollo Guidance Computer (AGC), for Apollo 9.
000007:                                                                                                  ## Assembler:   yaYUL
000008:                                                                                                  ## Reference:   pp. 739-742.
000009:                                                                                                  ## Contact:     Ron Burkey <info@sandroid.org>.
000010:                                                                                                  ## Website:     www.ibiblio.org/apollo.
000011:                                                                                                  ## Mod history: 08/22/04 RSB.   Split off from P51-P53.agc.
000012:                                                                                                  ##              2017-01-06 RSB  Page numbers now agree with those on the
000013:                                                                                                  ##                              original harcopy, as opposed to the PDF page
000014:                                                                                                  ##                              numbers in 1701.pdf.
000015:                                                                                                  ##              2017-01-15 RSB  Cross-diff'd comment text (not whitespace)
000016:                                                                                                  ##                              vs the already-proofed corresponding Colossus
000017:                                                                                                  ##                              237 and Comanche 55 source-code files
000018:                                                                                                  ##                              and corrected errors found. There were no
000019:                                                                                                  ##                              differences between the comment text in the
000020:                                                                                                  ##                              different versions after these corrections.
000021:                                                                                                  ##
000022:                                                                                                  ## The contents of the "Colossus249" files, in general, are transcribed
000023:                                                                                                  ## from a scanned copy of the program listing.  Notations on this
000024:                                                                                                  ## document read, in part:
000025:                                                                                                  ##
000026:                                                                                                  ##      Assemble revision 249 of AGC program Colossus by NASA
000027:                                                                                                  ##      2021111-041.  October 28, 1968.
000028:                                                                                                  ##
000029:                                                                                                  ##      This AGC program shall also be referred to as
000030:                                                                                                  ##                              Colossus 1A
000031:                                                                                                  ##
000032:                                                                                                  ##      Prepared by
000033:                                                                                                  ##                      Massachusetts Institute of Technology
000034:                                                                                                  ##                      75 Cambridge Parkway
000035:                                                                                                  ##                      Cambridge, Massachusetts
000036:                                                                                                  ##      under NASA contract NAS 9-4065.
000037:                                                                                                  ##
000038:                                                                                                  ## Refer directly to the online document mentioned above for further information.
000039:                                                                                                  ## Please report any errors (relative to the scanned pages) to info@sandroid.org.
000040:                                                                                                  ##
000041:                                                                                                  ## In some cases, where the source code for Luminary 131 overlaps that of
000042:                                                                                                  ## Colossus 249, this code is instead copied from the corresponding Luminary 131
000043:                                                                                                  ## source file, and then is proofed to incorporate any changes.
000044:


000046:                                                                                                  #  LUNAR AND SOLAR EPHEMERIDES SUBROUTINES
000047:
000048:                                                                                                  #  FUNCTIONAL DESCRIPTION
000049:
000050:                                                                                                  #        THESE SUBROUTINES ARE USED TO DETERMINE THE POSITION AND VELOCITY
000051:                                                                                                  #        VECTORS OF THE SUN AND THE MOON RELATIVE TO THE EARTH AT THE
000052:                                                                                                  #        SPECIFIED GROUND ELAPSED TIME INPUT BY THE USER.
000053:
000054:                                                                                                  #        THE POSITION OF THE MOON IS STORED IN THE COMPUTER IN THE FORM OF
000055:                                                                                                  #        A NINTH DEGREE POLYNOMIAL APPROXIMATION WHICH IS VALID OVER A 15
000056:                                                                                                  #        DAY INTERVAL BEGINNING SHORTLY BEFORE LAUNCH.  THEREFORE THE TIME
000057:                                                                                                  #        INPUT BY THE USER SHOULD FALL WITHIN THIS 15 DAY INTERVAL.
000058:
000059:                                                                                                  #        LSPOS COMPUTES THE POSITION VECTORS OF THE SUN AND THE MOON.
000060:
000061:                                                                                                  #        LUNPOS COMPUTES THE POSITION VECTOR OF THE MOON.
000062:
000063:                                                                                                  #        LUNVEL COMPUTES THE VELOCITY VECTOR OF THE MOON.
000064:
000065:                                                                                                  #        SOLPOS COMPUTES THE POSITION VECTOR OF THE SUN.
000066:
000067:                                                                                                  #  CALLING SEQUENCE
000068:
000069:                                                                                                  #        DLOAD   CALL
000070:                                                                                                  #                TIME            GROUND ELAPSED TIME
000071:                                                                                                  #                SUBROUTINE      LSPOS OR LUNPOS OR LUNVEL OR SOLPOS
000072:
000073:                                                                                                  #  INPUT
000074:
000075:                                                                                                  #        1) SPECIFIED GROUND ELAPSED TIME IN CS X B-28 LOADED IN MPAC.
000076:
000077:                                                                                                  #        2) TIMEMO - TIME AT THE CENTER OF THE RANGE OVER WHICH THE LUNAR
000078:                                                                                                  #        POSITION POLYNOMIAL IS VALID IN CS X B-42.
000079:
000080:                                                                                                  #        3) VECOEM - VECTOR COEFFICIENTS OF THE LUNAR POSITION POLYNOMIAL
000081:                                                                                                  #        LOADED IN DESCENDING SEQUENCE IN METERS/CS**N X B-2
000082:
000083:                                                                                                  #        4) RESO - POSITION VECTOR OF THE SUN RELATIVE TO THE EARTH AT
000084:                                                                                                  #        TIMEMO IN METERS X B-38.
000085:
000086:                                                                                                  #        5) VESO - VELOCITY VECTOR OF THE SUN RELATIVE TO THE EARTH AT
000087:                                                                                                  #        TIMEMO IN METERS/CS X B-9.
000088:                                                                                                  #
000089:                                                                                                  #        6) OMEGAES - ANGULAR VELOCITY OF THE VECTOR RESO AT TIMEMO IN
000090:                                                                                                  #        REV/CS X B+26.
000091:
000092:                                                                                                  #        ALL EXCEPT THE FIRST INPUT ARE INCLUDED IN THE PRE-LAUNCH
000093:                                                                                                  #        ERASABLE DATA LOAD.
000094:
000095:                                                                                                  #  OUTPUT - LSPOS


000097:
000098:                                                                                                  #        1) 2D OF VAC AREA CONTAINS THE POSITION VECTOR OF THE SUN RELATIVE
000099:                                                                                                  #        TO THE EARTH AT TIME INPUT BY THE USER IN METERS X B-38.
000100:
000101:                                                                                                  #        2) MPAC CONTAINS THE POSITION VECTOR OF THE MOON RELATIVE TO THE
000102:                                                                                                  #        EARTH AT TIME INPUT BY THE USER IN METERS X B-29.
000103:
000104:                                                                                                  #  OUTPUT - LUNPOS
000105:
000106:                                                                                                  #        MPAC CONTAINS THE POSITION VECTOR OF THE MOON RELATIVE TO THE
000107:                                                                                                  #        EARTH AT THE TIME INPUT BY USER IN METERS X B-29.
000108:
000109:                                                                                                  #  OUTPUT - LUNVEL
000110:
000111:                                                                                                  #        MPAC CONTAINS THE VELOCITY VECTOR OF THE MOON RELATIVE TO THE
000112:                                                                                                  #        EARTH AT TIME INPUT BY THE USER IN METERS/CS X B-7.
000113:
000114:                                                                                                  #  OUTPUT - SOLPOS
000115:
000116:                                                                                                  #        MPAC CONTAINS THE POSITION VECTOR OF THE SUN RELATIVE TO THE EARTH
000117:                                                                                                  #        AT TIME INPUT BY THE USER IN METERS X B-38.
000118:
000119:                                                                                                  #  SUBROUTINES USED
000120:
000121:                                                                                                  #        NONE
000122:
000123:                                                                                                  #  REMARKS
000124:
000125:                                                                                                  #        THE VAC AREA IS USED FOR STORAGE OF INTERMEDIATE AND FINAL RESULTS
000126:                                                                                                  #        OF COMPUTATIONS.
000127:
000128:                                                                                                  #        S1, X1 AND X2 ARE USED BY THESE SUBROUTINES.
000129:
000130:                                                                                                  #        PRELAUNCH ERASABLE DATA LOAD ARE ONLY ERASABLE STORAGE USED BY
000131:                                                                                                  #        THESE SUBROUTINES.
000132:
000133:                                                                                                  #        RESTARTS DURING OPERATION OF THESE SUBROUTINES MUST BE HANDLED BY
000134:                                                                                                  #        THE USER.
000135:
000136: 36,2502                                           BANK     36
000137: 26,2000                                           SETLOC   EPHEM
000138: 26,2000                                           BANK
000139:
000140: 26,2110                                           COUNT*   $$/EPHEM
000141: 26,2110  E7,1777                                  EBANK=   END-E7
000142:
000143: 26,2110           77774        LSPOS              AXT,2                                          #  COMPUTES POSITION VECTORS OF BOTH THE
000144: 26,2111           54161                                    RESA                                  #  SUN AND THE MOON.  THE POSITION VECTOR
000145: 26,2112           52170                           AXT,1    GOTO                                  #  OF THE SUN IS STORED IN 2D OF THE VAC
000146: 26,2113           54143                                    RES                                   #  AREA.  THE POSITION VECTOR OF THE MOON
000147: 26,2114           54126                                    LSTIME                                #  IS STORED IN MPAC.
000148: 26,2115           52170        LUNPOS             AXT,1    GOTO                                  #  COMPUTES THE POSITION VECTOR OF THE MOON
000149: 26,2116           54162                                    REM                                   #  AND STORES IT IN MPAC.
000150: 26,2117           54126                                    LSTIME


000152: 26,2120           52170        LUNVEL             AXT,1    GOTO                                  #  COMPUTES THE VELOCITY VECTOR OF THE MOON
000153: 26,2121           54173                                    VEM                                   #  AND STORES IT IN MPAC.
000154: 26,2122           54126                                    LSTIME
000155: 26,2123           76020        SOLPOS             STQ      AXT,1                                 #  COMPUTES THE POSITION VECTOR OF THE SUN
000156: 26,2124           00047                                    X2                                    #  AND STORES IT IN MPAC.
000157: 26,2125           54143                                    RES
000158: 26,2126           54201        LSTIME             SETPD    SR
000159: 26,2127           00001                                    0D
000160: 26,2130           20617                                    14D
000161: 26,2131           57571                           TAD      DCOMP
000162: 26,2132           01707                                    TEPHEM
000163: 26,2133           57571                           TAD      DCOMP
000164: 26,2134           02034                                    TIMEMO
000165: 26,2135           66261                           SL       SSP
000166: 26,2136           20221                                    16D
000167: 26,2137           00051                                    S1
000168: 26,2140           00006                                    6D
000169: 26,2141           77650                           GOTO
000170: 26,2142           00046                                    X1
000171: 26,2143           41206        RES                PUSH     DMP                                   #                                        PD -2
000172: 26,2144           02147                                    OMEGAES
000173: 26,2145           71406                           PUSH     COS                                   #                                        PD -4
000174: 26,2146           65361                           VXSC     PDDL                                  #                                        PD -8
000175: 26,2147           02133                                    RESO
000176: 26,2150           63356                           SIN      PDVL                                  #                                        PD-10
000177: 26,2151           02133                                    RESO
000178: 26,2152           53406                           PUSH     UNIT                                  #                                        PD-16
000179: 26,2153           53435                           VXV      UNIT
000180: 26,2154           02141                                    VESO
000181: 26,2155           76435                           VXV      VSL1                                  #                                        PD-10
000182: 26,2156           53361                           VXSC     VAD                                   #                                        PD-02
000183: 26,2157           52172                           VSL1     GOTO                                  #  RES IN METERS X B-38 IN MPAC.
000184: 26,2160           00047                                    X2
000185: 26,2161           14003        RESA               STODL    2D                                    #  RES IN METERS X B-38 IN 2D OF VAC.    PD -0
000186: 26,2162           63370        REM                AXT,1    PDVL                                  #                                        PD -2
000187: 26,2163           00066                                    54D
000188: 26,2164           02037                                    VECOEM
000189: 26,2165           52761        REMA               VXSC     VAD*
000190: 26,2166           00001                                    0D
000191: 26,2167           02133                                    VECOEM     +60D,1
000192: 26,2170           72500                           TIX,1    VSL2                                  #  REM IN METERS X B-29 IN MPAC.
000193: 26,2171           54165                                    REMA
000194: 26,2172           77616                           RVQ
000195: 26,2173           65370        VEM                AXT,1    PDDL                                  #                                        PD -2
000196: 26,2174           00060                                    48D
000197: 26,2175           14214                                    NINEB4
000198: 26,2176           74206                           PUSH     VXSC                                  #                                        PD -4
000199: 26,2177           02037                                    VECOEM
000200: 26,2200           77761        VEMA               VXSC
000201: 26,2201           00001                                    0D


000203: 26,2202           14005                           STODL    4D                                    #                                        PD -2
000204: 26,2203           41425                           DSU      PUSH                                  #                                        PD -4
000205: 26,2204           14216                                    ONEB4
000206: 26,2205           53357                           VXSC*    VAD
000207: 26,2206           02125                                    VECOEM     +54D,1
000208: 26,2207           00005                                    4D
000209: 26,2210           72500                           TIX,1    VSL2                                  #  VEM IN METERS/CS X B-7 IN MPAC.
000210: 26,2211           54200                                    VEMA
000211: 26,2212           77616                           RVQ
000212: 26,2213           22000 00000  NINEB4             2DEC     9.0        B-4
000213: 26,2215           02000 00000  ONEB4              2DEC     1.0        B-4
000214:
000215:
000216:

End of include-file LUNAR_AND_SOLAR_EPHEMERIDES_SUBROUTINES.agc.  Parent file is MAIN.agc


