
Source Code
000001:                                                                                                 #  Copyright:     Public domain.
000002:                                                                                                 #  Filename:      LUNAR_AND_SOLAR_EPHEMERIDES_SUBROUTINES.agc
000003:                                                                                                 #  Purpose:       Part of the source code for Colossus, build 249.
000004:                                                                                                 #                 It is part of the source code for the Command Module's (CM)
000005:                                                                                                 #                 Apollo Guidance Computer (AGC), possibly for Apollo 8 and 9.
000006:                                                                                                 #  Assembler:     yaYUL
000007:                                                                                                 #  Reference:     pp. 743-746 of 1701.pdf.
000008:                                                                                                 #  Contact:       Ron Burkey <info@sandroid.org>.
000009:                                                                                                 #  Website:       www.ibiblio.org/apollo.
000010:                                                                                                 #  Mod history:   08/22/04 RSB.   Split off from P51-P53.agc.
000011:
000012:                                                                                                 #  The contents of the "Colossus249" files, in general, are transcribed
000013:                                                                                                 #  from a scanned document obtained from MIT's website,
000014:                                                                                                 #  http://hrst.mit.edu/hrs/apollo/public/archive/1701.pdf.  Notations on this
000015:                                                                                                 #  document read, in part:
000016:
000017:                                                                                                 #         Assemble revision 249 of AGC program Colossus by NASA
000018:                                                                                                 #         2021111-041.  October 28, 1968.
000019:
000020:                                                                                                 #         This AGC program shall also be referred to as
000021:                                                                                                 #                                 Colossus 1A
000022:
000023:                                                                                                 #         Prepared by
000024:                                                                                                 #                         Massachussets Institute of Technology
000025:                                                                                                 #                         75 Cambridge Parkway
000026:                                                                                                 #                         Cambridge, Massachusetts
000027:                                                                                                 #         under NASA contract NAS 9-4065.
000028:
000029:                                                                                                 #  Refer directly to the online document mentioned above for further information.
000030:                                                                                                 #  Please report any errors (relative to 1701.pdf) to info@sandroid.org.
000031:
000032:                                                                                                 #  In some cases, where the source code for Luminary 131 overlaps that of
000033:                                                                                                 #  Colossus 249, this code is instead copied from the corresponding Luminary 131
000034:                                                                                                 #  source file, and then is proofed to incorporate any changes.
000035:
000036:                                                                                                 #  Page 743
000037:                                                                                                 #  LUNAR AND SOLAR EPHEMERIDES SUBROUTINES
000038:
000039:                                                                                                 #  FUNCTIONAL DESCRIPTION
000040:
000041:                                                                                                 #         THESE SUBROUTINES ARE USED TO DETERMINE THE POSITION AND VELOCITY
000042:                                                                                                 #         VECTORS OF THE SUN AND THE MOON RELATIVE TO THE EARTH AT THE
000043:                                                                                                 #         SPECIFIED GROUND ELAPSED TIME INPUT BY THE USER.
000044:
000045:                                                                                                 #         THE POSITION OF THE MOON IS STORED IN THE COMPUTER IN THE FORM OF
000046:                                                                                                 #         A NINTH DEGREE POLYNOMIAL APPROXIMATION WHICH IS VALID OVER A 15
000047:                                                                                                 #         DAY INTERVAL BEGINNING SHORTLY BEFORE LAUNCH.  THEREFORE THE TIME
000048:                                                                                                 #         INPUT BY THE USER SHOULD FALL WITHIN THIS 15 DAY INTERVAL.
000049:
000050:                                                                                                 #         LSPOS COMPUTES THE POSITION VECTORS OF THE SUN AND THE MOON.
000051:
000052:                                                                                                 #         LUNPOS COMPUTES THE POSITION VECTOR OF THE MOON.
000053:
000054:                                                                                                 #         LUNVEL COMPUTES THE VELOCITY VECTOR OF THE MOON.
000055:
000056:                                                                                                 #         SOLPOS COMPUTES THE POSITION VECTOR OF THE SUN.
000057:
000058:                                                                                                 #  CALLING SEQUENCE
000059:
000060:                                                                                                 #         DLOAD   CALL
000061:                                                                                                 #                 TIME            GROUND ELAPSED TIME
000062:                                                                                                 #                 SUBROUTINE      LSPOS OR LUNPOS OR LUNVEL OR SOLPOS
000063:
000064:                                                                                                 #  INPUT
000065:
000066:                                                                                                 #         1) SPECIFIED GROUND ELAPSED TIME IN CS x B-28 LOADED IN MPAC.
000067:
000068:                                                                                                 #         2) TIMEMO -- TIME AT THE CENTER OF THE RANGE OVER WHICH THE LUNAR
000069:                                                                                                 #         POSITION POLYNOMIAL IS VALID IN CS x B-42.
000070:
000071:                                                                                                 #         3) VECOEM -- VECTOR COEFFICIENTS OF THE LUNAR POSITION POLYNOMIAL
000072:                                                                                                 #         LOADED IN DESCENDING SEQUENCE IN METERS/CS**N x B-2
000073:
000074:                                                                                                 #         4) RESO -- POSITION VECTOR OF THE SUN RELATIVE TO THE EARTH AT
000075:                                                                                                 #         TIMEMO IN METERS x B-38
000076:
000077:                                                                                                 #         5) VESO -- VELOCITY VECTOR OF THE SUN RELATIVE TO THE EARTH AT
000078:                                                                                                 #         TIMEMO IN METERS/CS x B-9
000079:                                                                                                 #
000080:                                                                                                 #         6) OMEGAES -- ANGULAR VELOCITY OF THE VECTOR RESO AT TIMEMO IN
000081:                                                                                                 #         REV/CS x B+26
000082:
000083:                                                                                                 #         ALL EXCEPT THE FIRST INPUT ARE INCLUDED IN THE PRE-LAUNCH
000084:                                                                                                 #         ERASABLE DATA LOAD.
000085:
000086:                                                                                                 #  OUTPUT -- LSPOS
000087:                                                                                                 #  Page 744
000088:
000089:                                                                                                 #         1) 2D(?) OF VAC AREA CONTAINS THE POSITION VECTOR OF THE SUN RELATIVE
000090:                                                                                                 #         TO THE EARTH AT TIME INPUT BY THE USER IN METERS x B-38.
000091:
000092:                                                                                                 #         2) MPAC CONTAINS THE POSITION VECTOR OF THE MOON RELATIVE TO THE
000093:                                                                                                 #         EARTH AT TIME INPUT BY THE USER IN METERS x B-29
000094:
000095:                                                                                                 #  OUTPUT -- LUNPOS
000096:
000097:                                                                                                 #         MPAC CONTAINS THE POSITION VECTOR OF THE MOON RELATIVE TO THE
000098:                                                                                                 #         EARTH AT THE TIME INPUT BY USER IN METERS x B-32(?)
000099:
000100:                                                                                                 #  OUTPUT -- LUNVEL
000101:
000102:                                                                                                 #         MPAC CONTAINS THE VELOCITY VECTOR OF THE MOON RELATIVE TO THE
000103:                                                                                                 #         EARTH AT THE TIME INPUT BY THE USER IN METERS/CS x B-7
000104:
000105:                                                                                                 #  OUTPUT -- SOLPOS
000106:
000107:                                                                                                 #         MPAC CONTAINS THE POSITION VECTOR OF THE SUN RELATIVE TO THE EARTH
000108:                                                                                                 #         AT TIME INPUT BY THE USER IN METERS x B-38.
000109:
000110:                                                                                                 #  SUBROUTINES USED
000111:
000112:                                                                                                 #         NONE
000113:
000114:                                                                                                 #  REMARKS
000115:
000116:                                                                                                 #         THE VAC AREA IS USED FOR STORAGE OF INTERMEDIATE AND FINAL RESULTS
000117:                                                                                                 #         OF COMPUTATIONS.
000118:
000119:                                                                                                 #         S1, X1, AND X2 ARE USED BY THESE SUBROUTINES.
000120:
000121:                                                                                                 #         PRELAUNCH ERASABLE DATA LOAD ARE ONLY ERASABLE STORAGE USED BY
000122:                                                                                                 #         THESE SUBROUTINES.
000123:
000124:                                                                                                 #         RESTARTS DURING OPERATION OF THESE SUBROUTINES MUST BE HANDLED BY
000125:                                                                                                 #         THE USER.
000126:
000127: 36,2502                                          BANK     36
000128: 26,2000                                          SETLOC   EPHEM
000129: 26,2000                                          BANK
000130:
000131: 26,2110                                          COUNT*   $$/EPHEM
000132: 26,2110  E7,1777                                 EBANK=   END-E7
000133:
000134: 26,2110           77774        LSPOS             AXT,2                                          #  COMPUTES POSITION VECTORS OF BOTH THE
000135: 26,2111           54161                                   RESA                                  #  SUN AND THE MOON.  THE POSITION VECTOR
000136: 26,2112           52170                          AXT,1    GOTO                                  #  OF THE SUN IS STORED IN 2D OF THE VAC
000137: 26,2113           54143                                   RES                                   #  AREA.  THE POSITION VECTOR OF THE MOON
000138: 26,2114           54126                                   LSTIME                                #  IS STORED IN MPAC.
000139: 26,2115           52170        LUNPOS            AXT,1    GOTO                                  #  COMPUTES THE POSITION VECTOR OF THE MOON
000140: 26,2116           54162                                   REM                                   #  AND STORES IT IN MPAC.
000141: 26,2117           54126                                   LSTIME
000142:                                                                                                 #  Page 745
000143: 26,2120           52170        LUNVEL            AXT,1    GOTO                                  #  COMPUTES THE VELOCITY VECTOR OF THE MOON
000144: 26,2121           54173                                   VEM                                   #  AND STORES IT IN MPAC.
000145: 26,2122           54126                                   LSTIME
000146: 26,2123           76020        SOLPOS            STQ      AXT,1                                 #  COMPUTES THE POSITION VECTOR OF THE SUN
000147: 26,2124           00047                                   X2                                    #  AND STORES IT IN MPAC.
000148: 26,2125           54143                                   RES
000149: 26,2126           54201        LSTIME            SETPD    SR
000150: 26,2127           00001                                   0D
000151: 26,2130           20617                                   14D
000152: 26,2131           57571                          TAD      DCOMP
000153: 26,2132           01707                                   TEPHEM
000154: 26,2133           57571                          TAD      DCOMP
000155: 26,2134           02034                                   TIMEMO
000156: 26,2135           66261                          SL       SSP
000157: 26,2136           20221                                   16D
000158: 26,2137           00051                                   S1
000159: 26,2140           00006                                   6D
000160: 26,2141           77650                          GOTO
000161: 26,2142           00046                                   X1
000162: 26,2143           41206        RES               PUSH     DMP                                   #                                         PD -2
000163: 26,2144           02147                                   OMEGAES
000164: 26,2145           71406                          PUSH     COS                                   #                                         PD -4
000165: 26,2146           65361                          VXSC     PDDL                                  #                                         PD -8
000166: 26,2147           02133                                   RESO
000167: 26,2150           63356                          SIN      PDVL                                  #                                         PD-10
000168: 26,2151           02133                                   RESO
000169: 26,2152           53406                          PUSH     UNIT                                  #                                         PD-16
000170: 26,2153           53435                          VXV      UNIT
000171: 26,2154           02141                                   VESO
000172: 26,2155           76435                          VXV      VSL1                                  #                                         PD-10
000173: 26,2156           53361                          VXSC     VAD                                   #                                         PD-02
000174: 26,2157           52172                          VSL1     GOTO                                  #  RES IN METERS x B-38 IN MPAC.
000175: 26,2160           00047                                   X2
000176: 26,2161           14003        RESA              STODL    2D                                    #  RES IN METERS x B-38 IN 2D OF VAC.     PD -0
000177: 26,2162           63370        REM               AXT,1    PDVL                                  #                                         PD -2
000178: 26,2163           00066                                   54D
000179: 26,2164           02037                                   VECOEM
000180: 26,2165           52761        REMA              VXSC     VAD*
000181: 26,2166           00001                                   0D
000182: 26,2167           02133                                   VECOEM     +60D,1
000183: 26,2170           72500                          TIX,1    VSL2                                  #  REM IN METERS x B-29 IN MPAC.
000184: 26,2171           54165                                   REMA
000185: 26,2172           77616                          RVQ
000186: 26,2173           65370        VEM               AXT,1    PDDL                                  #                                         PD -2
000187: 26,2174           00060                                   48D
000188: 26,2175           14214                                   NINEB4
000189: 26,2176           74206                          PUSH     VXSC                                  #                                         PD -4
000190: 26,2177           02037                                   VECOEM
000191: 26,2200           77761        VEMA              VXSC
000192: 26,2201           00001                                   0D
000193:                                                                                                 #  Page 746
000194: 26,2202           14005                          STODL    4D                                    #                                         PD -2
000195: 26,2203           41425                          DSU      PUSH                                  #                                         PD -4
000196: 26,2204           14216                                   ONEB4
000197: 26,2205           53357                          VXSC*    VAD
000198: 26,2206           02125                                   VECOEM     +54D,1
000199: 26,2207           00005                                   4D
000200: 26,2210           72500                          TIX,1    VSL2                                  #  VEM IN METERS/CS x B-7 IN MPAC.
000201: 26,2211           54200                                   VEMA
000202: 26,2212           77616                          RVQ
000203: 26,2213           22000 00000  NINEB4            2DEC     9.0        B-4
000204: 26,2215           02000 00000  ONEB4             2DEC     1.0        B-4
000205:
000206:
000207:

End of include-file LUNAR_AND_SOLAR_EPHEMERIDES_SUBROUTINES.agc.  Parent file is MAIN.agc


