
Source Code


000002:                                                                                                  ## Copyright:   Public domain.
000003:                                                                                                  ## Filename:    LUNAR_AND_SOLAR_EPHEMERIDES_SUBROUTINES.agc
000004:                                                                                                  ## Purpose:     Part of the source code for Colossus, build 249.
000005:                                                                                                  ##              It is part of the source code for the Command Module's (CM)
000006:                                                                                                  ##              Apollo Guidance Computer (AGC), possibly for Apollo 8 and 9.
000007:                                                                                                  ## Assembler:   yaYUL
000008:                                                                                                  ## Reference:   pp. 743-746 of 1701.pdf.
000009:                                                                                                  ## Contact:     Ron Burkey <info@sandroid.org>.
000010:                                                                                                  ## Website:     www.ibiblio.org/apollo.
000011:                                                                                                  ## Mod history: 08/22/04 RSB.   Split off from P51-P53.agc.
000012:                                                                                                  ##
000013:                                                                                                  ## The contents of the "Colossus249" files, in general, are transcribed
000014:                                                                                                  ## from a scanned document obtained from MIT's website,
000015:                                                                                                  ## http://hrst.mit.edu/hrs/apollo/public/archive/1701.pdf.  Notations on this
000016:                                                                                                  ## document read, in part:
000017:                                                                                                  ##
000018:                                                                                                  ##      Assemble revision 249 of AGC program Colossus by NASA
000019:                                                                                                  ##      2021111-041.  October 28, 1968.
000020:                                                                                                  ##
000021:                                                                                                  ##      This AGC program shall also be referred to as
000022:                                                                                                  ##                              Colossus 1A
000023:                                                                                                  ##
000024:                                                                                                  ##      Prepared by
000025:                                                                                                  ##                      Massachusetts Institute of Technology
000026:                                                                                                  ##                      75 Cambridge Parkway
000027:                                                                                                  ##                      Cambridge, Massachusetts
000028:                                                                                                  ##      under NASA contract NAS 9-4065.
000029:                                                                                                  ##
000030:                                                                                                  ## Refer directly to the online document mentioned above for further information.
000031:                                                                                                  ## Please report any errors (relative to 1701.pdf) to info@sandroid.org.
000032:                                                                                                  ##
000033:                                                                                                  ## In some cases, where the source code for Luminary 131 overlaps that of
000034:                                                                                                  ## Colossus 249, this code is instead copied from the corresponding Luminary 131
000035:                                                                                                  ## source file, and then is proofed to incorporate any changes.
000036:


000038:                                                                                                  #  LUNAR AND SOLAR EPHEMERIDES SUBROUTINES
000039:
000040:                                                                                                  #  FUNCTIONAL DESCRIPTION
000041:
000042:                                                                                                  #        THESE SUBROUTINES ARE USED TO DETERMINE THE POSITION AND VELOCITY
000043:                                                                                                  #        VECTORS OF THE SUN AND THE MOON RELATIVE TO THE EARTH AT THE
000044:                                                                                                  #        SPECIFIED GROUND ELAPSED TIME INPUT BY THE USER.
000045:
000046:                                                                                                  #        THE POSITION OF THE MOON IS STORED IN THE COMPUTER IN THE FORM OF
000047:                                                                                                  #        A NINTH DEGREE POLYNOMIAL APPROXIMATION WHICH IS VALID OVER A 15
000048:                                                                                                  #        DAY INTERVAL BEGINNING SHORTLY BEFORE LAUNCH.  THEREFORE THE TIME
000049:                                                                                                  #        INPUT BY THE USER SHOULD FALL WITHIN THIS 15 DAY INTERVAL.
000050:
000051:                                                                                                  #        LSPOS COMPUTES THE POSITION VECTORS OF THE SUN AND THE MOON.
000052:
000053:                                                                                                  #        LUNPOS COMPUTES THE POSITION VECTOR OF THE MOON.
000054:
000055:                                                                                                  #        LUNVEL COMPUTES THE VELOCITY VECTOR OF THE MOON.
000056:
000057:                                                                                                  #        SOLPOS COMPUTES THE POSITION VECTOR OF THE SUN.
000058:
000059:                                                                                                  #  CALLING SEQUENCE
000060:
000061:                                                                                                  #        DLOAD   CALL
000062:                                                                                                  #                TIME            GROUND ELAPSED TIME
000063:                                                                                                  #                SUBROUTINE      LSPOS OR LUNPOS OR LUNVEL OR SOLPOS
000064:
000065:                                                                                                  #  INPUT
000066:
000067:                                                                                                  #        1) SPECIFIED GROUND ELAPSED TIME IN CS x B-28 LOADED IN MPAC.
000068:
000069:                                                                                                  #        2) TIMEMO -- TIME AT THE CENTER OF THE RANGE OVER WHICH THE LUNAR
000070:                                                                                                  #        POSITION POLYNOMIAL IS VALID IN CS x B-42.
000071:
000072:                                                                                                  #        3) VECOEM -- VECTOR COEFFICIENTS OF THE LUNAR POSITION POLYNOMIAL
000073:                                                                                                  #        LOADED IN DESCENDING SEQUENCE IN METERS/CS**N x B-2
000074:
000075:                                                                                                  #        4) RESO -- POSITION VECTOR OF THE SUN RELATIVE TO THE EARTH AT
000076:                                                                                                  #        TIMEMO IN METERS x B-38
000077:
000078:                                                                                                  #        5) VESO -- VELOCITY VECTOR OF THE SUN RELATIVE TO THE EARTH AT
000079:                                                                                                  #        TIMEMO IN METERS/CS x B-9
000080:                                                                                                  #
000081:                                                                                                  #        6) OMEGAES -- ANGULAR VELOCITY OF THE VECTOR RESO AT TIMEMO IN
000082:                                                                                                  #        REV/CS x B+26
000083:
000084:                                                                                                  #        ALL EXCEPT THE FIRST INPUT ARE INCLUDED IN THE PRE-LAUNCH
000085:                                                                                                  #        ERASABLE DATA LOAD.
000086:
000087:                                                                                                  #  OUTPUT -- LSPOS


000089:
000090:                                                                                                  #        1) 2D(?) OF VAC AREA CONTAINS THE POSITION VECTOR OF THE SUN RELATIVE
000091:                                                                                                  #        TO THE EARTH AT TIME INPUT BY THE USER IN METERS x B-38.
000092:
000093:                                                                                                  #        2) MPAC CONTAINS THE POSITION VECTOR OF THE MOON RELATIVE TO THE
000094:                                                                                                  #        EARTH AT TIME INPUT BY THE USER IN METERS x B-29
000095:
000096:                                                                                                  #  OUTPUT -- LUNPOS
000097:
000098:                                                                                                  #        MPAC CONTAINS THE POSITION VECTOR OF THE MOON RELATIVE TO THE
000099:                                                                                                  #        EARTH AT THE TIME INPUT BY USER IN METERS x B-32(?)
000100:
000101:                                                                                                  #  OUTPUT -- LUNVEL
000102:
000103:                                                                                                  #        MPAC CONTAINS THE VELOCITY VECTOR OF THE MOON RELATIVE TO THE
000104:                                                                                                  #        EARTH AT THE TIME INPUT BY THE USER IN METERS/CS x B-7
000105:
000106:                                                                                                  #  OUTPUT -- SOLPOS
000107:
000108:                                                                                                  #        MPAC CONTAINS THE POSITION VECTOR OF THE SUN RELATIVE TO THE EARTH
000109:                                                                                                  #        AT TIME INPUT BY THE USER IN METERS x B-38.
000110:
000111:                                                                                                  #  SUBROUTINES USED
000112:
000113:                                                                                                  #        NONE
000114:
000115:                                                                                                  #  REMARKS
000116:
000117:                                                                                                  #        THE VAC AREA IS USED FOR STORAGE OF INTERMEDIATE AND FINAL RESULTS
000118:                                                                                                  #        OF COMPUTATIONS.
000119:
000120:                                                                                                  #        S1, X1, AND X2 ARE USED BY THESE SUBROUTINES.
000121:
000122:                                                                                                  #        PRELAUNCH ERASABLE DATA LOAD ARE ONLY ERASABLE STORAGE USED BY
000123:                                                                                                  #        THESE SUBROUTINES.
000124:
000125:                                                                                                  #        RESTARTS DURING OPERATION OF THESE SUBROUTINES MUST BE HANDLED BY
000126:                                                                                                  #        THE USER.
000127:
000128: 36,2502                                           BANK     36
000129: 26,2000                                           SETLOC   EPHEM
000130: 26,2000                                           BANK
000131:
000132: 26,2110                                           COUNT*   $$/EPHEM
000133: 26,2110  E7,1777                                  EBANK=   END-E7
000134:
000135: 26,2110           77774        LSPOS              AXT,2                                          #  COMPUTES POSITION VECTORS OF BOTH THE
000136: 26,2111           54161                                    RESA                                  #  SUN AND THE MOON.  THE POSITION VECTOR
000137: 26,2112           52170                           AXT,1    GOTO                                  #  OF THE SUN IS STORED IN 2D OF THE VAC
000138: 26,2113           54143                                    RES                                   #  AREA.  THE POSITION VECTOR OF THE MOON
000139: 26,2114           54126                                    LSTIME                                #  IS STORED IN MPAC.
000140: 26,2115           52170        LUNPOS             AXT,1    GOTO                                  #  COMPUTES THE POSITION VECTOR OF THE MOON
000141: 26,2116           54162                                    REM                                   #  AND STORES IT IN MPAC.
000142: 26,2117           54126                                    LSTIME


000144: 26,2120           52170        LUNVEL             AXT,1    GOTO                                  #  COMPUTES THE VELOCITY VECTOR OF THE MOON
000145: 26,2121           54173                                    VEM                                   #  AND STORES IT IN MPAC.
000146: 26,2122           54126                                    LSTIME
000147: 26,2123           76020        SOLPOS             STQ      AXT,1                                 #  COMPUTES THE POSITION VECTOR OF THE SUN
000148: 26,2124           00047                                    X2                                    #  AND STORES IT IN MPAC.
000149: 26,2125           54143                                    RES
000150: 26,2126           54201        LSTIME             SETPD    SR
000151: 26,2127           00001                                    0D
000152: 26,2130           20617                                    14D
000153: 26,2131           57571                           TAD      DCOMP
000154: 26,2132           01707                                    TEPHEM
000155: 26,2133           57571                           TAD      DCOMP
000156: 26,2134           02034                                    TIMEMO
000157: 26,2135           66261                           SL       SSP
000158: 26,2136           20221                                    16D
000159: 26,2137           00051                                    S1
000160: 26,2140           00006                                    6D
000161: 26,2141           77650                           GOTO
000162: 26,2142           00046                                    X1
000163: 26,2143           41206        RES                PUSH     DMP                                   #                                        PD -2
000164: 26,2144           02147                                    OMEGAES
000165: 26,2145           71406                           PUSH     COS                                   #                                        PD -4
000166: 26,2146           65361                           VXSC     PDDL                                  #                                        PD -8
000167: 26,2147           02133                                    RESO
000168: 26,2150           63356                           SIN      PDVL                                  #                                        PD-10
000169: 26,2151           02133                                    RESO
000170: 26,2152           53406                           PUSH     UNIT                                  #                                        PD-16
000171: 26,2153           53435                           VXV      UNIT
000172: 26,2154           02141                                    VESO
000173: 26,2155           76435                           VXV      VSL1                                  #                                        PD-10
000174: 26,2156           53361                           VXSC     VAD                                   #                                        PD-02
000175: 26,2157           52172                           VSL1     GOTO                                  #  RES IN METERS x B-38 IN MPAC.
000176: 26,2160           00047                                    X2
000177: 26,2161           14003        RESA               STODL    2D                                    #  RES IN METERS x B-38 IN 2D OF VAC.    PD -0
000178: 26,2162           63370        REM                AXT,1    PDVL                                  #                                        PD -2
000179: 26,2163           00066                                    54D
000180: 26,2164           02037                                    VECOEM
000181: 26,2165           52761        REMA               VXSC     VAD*
000182: 26,2166           00001                                    0D
000183: 26,2167           02133                                    VECOEM     +60D,1
000184: 26,2170           72500                           TIX,1    VSL2                                  #  REM IN METERS x B-29 IN MPAC.
000185: 26,2171           54165                                    REMA
000186: 26,2172           77616                           RVQ
000187: 26,2173           65370        VEM                AXT,1    PDDL                                  #                                        PD -2
000188: 26,2174           00060                                    48D
000189: 26,2175           14214                                    NINEB4
000190: 26,2176           74206                           PUSH     VXSC                                  #                                        PD -4
000191: 26,2177           02037                                    VECOEM
000192: 26,2200           77761        VEMA               VXSC
000193: 26,2201           00001                                    0D


000195: 26,2202           14005                           STODL    4D                                    #                                        PD -2
000196: 26,2203           41425                           DSU      PUSH                                  #                                        PD -4
000197: 26,2204           14216                                    ONEB4
000198: 26,2205           53357                           VXSC*    VAD
000199: 26,2206           02125                                    VECOEM     +54D,1
000200: 26,2207           00005                                    4D
000201: 26,2210           72500                           TIX,1    VSL2                                  #  VEM IN METERS/CS x B-7 IN MPAC.
000202: 26,2211           54200                                    VEMA
000203: 26,2212           77616                           RVQ
000204: 26,2213           22000 00000  NINEB4             2DEC     9.0        B-4
000205: 26,2215           02000 00000  ONEB4              2DEC     1.0        B-4
000206:
000207:
000208:

End of include-file LUNAR_AND_SOLAR_EPHEMERIDES_SUBROUTINES.agc.  Parent file is MAIN.agc


