
Source Code


000002:                                                                                                  #  Copyright:    Public domain.
000003:                                                                                                  #  Filename:     MEASUREMENT_INCORPORATION.agc
000004:                                                                                                  #  Purpose:      Part of the source code for Colossus, build 249.
000005:                                                                                                  #                It is part of the source code for the Command Module's (CM)
000006:                                                                                                  #                Apollo Guidance Computer (AGC), possibly for Apollo 8 and 9.
000007:                                                                                                  #  Assembler:    yaYUL
000008:                                                                                                  #  Reference:    Begins on p. 1234 of 1701.pdf.
000009:                                                                                                  #  Contact:      Ron Burkey <info@sandroid.org>.
000010:                                                                                                  #  Website:      www.ibiblio.org/apollo.
000011:                                                                                                  #  Mod history:  08/28/04 RSB.   Adapted from corresponding Luminary131 file.
000012:                                                                                                  #                2010-10-24 JL   Indentation fixes.
000013:
000014:                                                                                                  #  The contents of the "Colossus249" files, in general, are transcribed
000015:                                                                                                  #  from a scanned document obtained from MIT's website,
000016:                                                                                                  #  http://hrst.mit.edu/hrs/apollo/public/archive/1701.pdf.  Notations on this
000017:                                                                                                  #  document read, in part:
000018:
000019:                                                                                                  #        Assemble revision 249 of AGC program Colossus by NASA
000020:                                                                                                  #        2021111-041.  October 28, 1968.
000021:
000022:                                                                                                  #        This AGC program shall also be referred to as
000023:                                                                                                  #                                Colossus 1A
000024:
000025:                                                                                                  #        Prepared by
000026:                                                                                                  #                        Massachusetts Institute of Technology
000027:                                                                                                  #                        75 Cambridge Parkway
000028:                                                                                                  #                        Cambridge, Massachusetts
000029:                                                                                                  #        under NASA contract NAS 9-4065.
000030:
000031:                                                                                                  #  Refer directly to the online document mentioned above for further information.
000032:                                                                                                  #  Please report any errors (relative to 1701.pdf) to info@sandroid.org.
000033:
000034:                                                                                                  #  In some cases, where the source code for Luminary 131 overlaps that of
000035:                                                                                                  #  Colossus 249, this code is instead copied from the corresponding Luminary 131
000036:                                                                                                  #  source file, and then is proofed to incorporate any changes.
000037:


000039:                                                                                                  #  INCORP1 -- PERFORMS THE SIX DIMENSIONAL STATE VECTOR DEVIATION FOR POSITION
000040:                                                                                                  #  AND VELOCITY OR THE NINE-DIMENSIONAL DEVIATION OF POSITION, VELOCITY, AND
000041:                                                                                                  #  RADAR OR LANDMARK BIAS.  THE OUTPUT OF THE BVECTOR ROUTINE ALONG WITH THE
000042:                                                                                                  #  ERROR TRANSITION MATRIX (2) ARE USED AS INPU TO THE ROUTINE.  THE DEVIATION
000043:                                                                                                  #  IS OBTAINED BY COMPUTING AN ESTIMATED TRACKING MEASUREMENT FROM THE
000044:                                                                                                  #  CURRENT STATE VECTOR AND COMPARING IT WITH AN ACTUAL TRACKING MEASUREMENT
000045:                                                                                                  #  AND APPLYING A STATISTICAL WEIGHTING VECTOR.
000046:
000047:                                                                                                  #  INPUT
000048:                                                                                                  #         DMENFLG = 0 (6-DIMENSIONAL BVECTOR), =1 (9-DIMENSIONAL)
000049:                                                                                                  #               W = ERROR TRANSITION MATRIX 6X6 OR 9X9
000050:                                                                                                  #        VARIANCE = VARIANCE (SCALAR)
000051:                                                                                                  #          DELTAQ = MEASURED DEVIATION (SCALAR)
000052:                                                                                                  #         BVECTOR = 6 OR 9 DIMENSIONAL BVECTOR
000053:
000054:                                                                                                  #  OUTPUT
000055:                                                                                                  #          DELTAX = STATE VECTOR DEVIATIONS 6 OR 9 DIMENSIONAL
000056:                                                                                                  #              ZI = VECTOR USED FOR THE INCORPORATION 6 OR 9 DIMENSIONAL
000057:                                                                                                  #           GAMMA = SCALAR
000058:                                                                                                  #           OMEGA = OMEGA WEIGHTING VECTOR 6 OR 9 DIMENSIONAL
000059:
000060:                                                                                                  #  CALLING SEQUENCE
000061:                                                                                                  #        L       CALL    INCORP1
000062:
000063:                                                                                                  #  NORMAL EXIT
000064:                                                                                                  #        L+1 OF CALLING SEQUENCE
000065:
000066: 37,3676                                           BANK     37
000067: 36,2000                                           SETLOC   MEASINC
000068: 36,2000                                           BANK
000069:
000070: 36,3250                                           COUNT*   $$/INCOR
000071:
000072: 36,3250  0002400                                  EBANK=   W
000073:
000074: 36,3250           77620        INCORP1            STQ
000075: 36,3251           02317                                    EGRESS
000076: 36,3252           66370                           AXT,1    SSP
000077: 36,3253           00066                                    54D
000078: 36,3254           00051                                    S1
000079: 36,3255           00022                                    18D                                   #  IX1 = 54      S1= 18
000080: 36,3256           66374                           AXT,2    SSP
000081: 36,3257           00022                                    18D
000082: 36,3260           00052                                    S2
000083: 36,3261           00006                                    6                                     #  IX2 = 18      S2=6
000084: 36,3262           63775        Z123               VLOAD    MXV*
000085: 36,3263           03502                                    BVECTOR                               #  BVECTOR (0)
000086: 36,3264           02467                                    W          +54D,1
000087: 36,3265           12745                           STORE    ZI         +18D,2
000088: 36,3266           77775                           VLOAD
000089: 36,3267           03510                                    BVECTOR    +6                         #  BVECTOR (1)


000091: 36,3270           52717                           MXV*     VAD*
000092: 36,3271           02555                                    W          +108D,1
000093: 36,3272           75032                                    ZI         +18D,2
000094: 36,3273           12745                           STORE    ZI         +18D,2
000095: 36,3274           77775                           VLOAD
000096: 36,3275           03516                                    BVECTOR    +12D                       #  BVECTOR (2)
000097: 36,3276           52717                           MXV*     VAD*
000098: 36,3277           02643                                    W          +162D,1
000099: 36,3300           75032                                    ZI         +18D,2                     #  B(0)*W+B(1)*(W+54)+B(2)*(W+108) FIRST PASS
000100: 36,3301           12745                           STORE    ZI         +18D,2                     #  ZI THEN Z2 THEN Z3
000101: 36,3302           77700                           TIX,1
000102: 36,3303           75304                                    INCOR1
000103: 36,3304           43104        INCOR1             TIX,2    BON
000104: 36,3305           75262                                    Z123                                  #  LOOP FOR Z1,Z2,Z3
000105: 36,3306           02706                                    DMENFLG
000106: 36,3307           75313                                    INCOR1A
000107: 36,3310           77775                           VLOAD
000108: 36,3311           15332                                    ZEROVECS
000109: 36,3312           02737                           STORE    ZI         +12D
000110: 36,3313           77201        INCOR1A            SETPD    VLOAD
000111: 36,3314           00001                                    0
000112: 36,3315           02723                                    ZI
000113: 36,3316           47036                           VSQ      RTB
000114: 36,3317           45562                                    TPMODE
000115: 36,3320           47515                           PDVL     VSQ
000116: 36,3321           02731                                    ZI         +6
000117: 36,3322           76234                           RTB      TAD
000118: 36,3323           45562                                    TPMODE
000119: 36,3324           47515                           PDVL     VSQ
000120: 36,3325           02737                                    ZI         +12D
000121: 36,3326           76234                           RTB      TAD
000122: 36,3327           45562                                    TPMODE
000123: 36,3330           77171                           TAD      AXT,2
000124: 36,3331           03526                                    VARIANCE
000125: 36,3332           00000                                    0
000126: 36,3333           01257                           STORE    TRIPA                                 #  ZI*2 + Z2*2 + Z3*2 + VARIANCE
000127: 36,3334           40151                           TLOAD    BOV
000128: 36,3335           03526                                    VARIANCE                              #  CLEAR OVFIND
000129: 36,3336           75337                                    +1
000130: 36,3337           01262                           STORE    TEMPVAR                               #  TEMP STORAGE FOR VARIANCE
000131: 36,3340           77654                           BZE
000132: 36,3341           75350                                    INCOR1C
000133: 36,3342           40112        INCOR1B            SL2      BOV
000134: 36,3343           75350                                    INCOR1C
000135: 36,3344           01262                           STORE    TEMPVAR
000136: 36,3345           52114                           INCR,2   GOTO
000137: 36,3346           00001                           DEC      1          B-14
000138: 36,3347           75342                                    INCOR1B
000139: 36,3350           61551        INCOR1C            TLOAD    ROUND
000140: 36,3351           01257                                    TRIPA


000142: 36,3352           75405                           DMP      SQRT
000143: 36,3353           01262                                    TEMPVAR
000144: 36,3354           76257                           SL*      TAD
000145: 36,3355           57576                                    0,2
000146: 36,3356           01257                                    TRIPA
000147: 36,3357           63101                           NORM     INCR,2
000148: 36,3360           00050                                    X2
000149: 36,3361           77775                           DEC      -2         B-14
000150: 36,3362           77134                           SXA,2    AXT,2
000151: 36,3363           02215                                    NORMGAM                               #  NORMALIZATION COUNT -2 FOR GAMMA
000152: 36,3364           00242                                    162D
000153: 36,3365           40265                           BDDV     SETPD
000154: 36,3366           15322                                    DP1/4TH
000155: 36,3367           00001                                    0
000156: 36,3370           03456                           STORE    GAMMA
000157: 36,3371           60351                           TLOAD    NORM
000158: 36,3372           01257                                    TRIPA
000159: 36,3373           00047                                    X1
000160: 36,3374           65345                           DLOAD    PDDL                                  #  PD 0-1 = NORM (A)
000161: 36,3375           00155                                    MPAC
000162: 36,3376           03524                                    DELTAQ
000163: 36,3377           77701                           NORM
000164: 36,3400           00051                                    S1
000165: 36,3401           70460                           XSU,1    SR1
000166: 36,3402           00050                                    S1
000167: 36,3403           41471                           DDV      PUSH                                  #  PD 0-1 = DELTAQ/A
000168: 36,3404           77650                           GOTO
000169: 36,3405           77676                                    NEWZCOMP
000170: 36,3406           77731                 -3        SSP
000171: 36,3407           00052                                    S2
000172: 36,3410           00066                                    54D
000173: 36,3411           60775        INCOR2             VLOAD    VXM*                                  #  COMPUT OMEGA1,2,3
000174: 36,3412           02723                                    ZI
000175: 36,3413           75134                                    W          +162D,2
000176: 36,3414           77206                           PUSH     VLOAD
000177: 36,3415           02731                                    ZI         +6
000178: 36,3416           53303                           VXM*     VAD
000179: 36,3417           75112                                    W          +180D,2
000180: 36,3420           77206                           PUSH     VLOAD
000181: 36,3421           02737                                    ZI         +12D
000182: 36,3422           53303                           VXM*     VAD
000183: 36,3423           75070                                    W          +198D,2
000184: 36,3424           61006                           PUSH     TIX,2                                 #  PD 2-7=OMEGA1, -13=OMEGA2, 14-19=OMEGA3
000185: 36,3425           75411                                    INCOR2
000186: 36,3426           45575                           VLOAD    STADR
000187: 36,3427           74303                           STORE    OMEGA      +12D
000188: 36,3430           45575                           VLOAD    STADR
000189: 36,3431           74311                           STORE    OMEGA      +6
000190: 36,3432           45575                           VLOAD    STADR
000191: 36,3433           74317                           STORE    OMEGA


000193: 36,3434           77214                           BON      VLOAD
000194: 36,3435           02706                                    DMENFLG
000195: 36,3436           75441                                    INCOR2AB
000196: 36,3437           15332                                    ZEROVECS
000197: 36,3440           03474                           STORE    OMEGA      +12D
000198: 36,3441           66374        INCOR2AB           AXT,2    SSP
000199: 36,3442           00022                                    18D
000200: 36,3443           00052                                    S2
000201: 36,3444           00006                                    6
000202: 36,3445           77773        INCOR3             VLOAD*
000203: 36,3446           74275                                    OMEGA      +18D,2
000204: 36,3447           53761                           VXSC     VSL*
000205: 36,3450           00001                                    0                                     #  DELTAQ/A
000206: 36,3451           20201                                    0,1
000207: 36,3452           11301                           STORE    DELTAX     +18D,2
000208: 36,3453           77304                           TIX,2    VLOAD
000209: 36,3454           75445                                    INCOR3
000210: 36,3455           01265                                    DELTAX     +6
000211: 36,3456           77732                           VSL3
000212: 36,3457           01265                           STORE    DELTAX     +6
000213: 36,3460           77650                           GOTO
000214: 36,3461           02317                                    EGRESS
000215:


000217:                                                                                                  #  INCORP2 -- INCORPORATES THE COMPUTED STATE VECTOR DEVIATIONS INTO THE
000218:                                                                                                  #  ESTIMATED STATE VECTOR.  THE STATE VECTOR UPDATED MAY BE FOR EITHER THE
000219:                                                                                                  #  LEM OR THE CSM.  DETERMINED BY FLAG VEHUPFLG.  (ZERO = LEM) (1 = CSM)
000220:
000221:                                                                                                  #  INPUT
000222:                                                                                                  #        PERMANENT STATE VECTOR FOR EITHER THE LEM OR CSM
000223:                                                                                                  #        VEHUPFLG = UPDATE VEHICLE C=LEM 1=CSM
000224:                                                                                                  #        W = ERROR TRANSITION MATRIX
000225:                                                                                                  #        DELTAX = COMPUTED STATE VECTOR DEVIATIONS
000226:                                                                                                  #        DMENFLG = SIZE OF W MATRIX (ZERO=6X6) (1=9X9)
000227:                                                                                                  #        GAMMA = SCALAR FOR INCORPORATION
000228:                                                                                                  #        ZI = VECTOR USED IN INCORPORATION
000229:                                                                                                  #        OMEGA = WEIGHTING VECTOR
000230:
000231:                                                                                                  #  OUTPUT
000232:                                                                                                  #        UPDATED PERMANENT STATE VECTOR
000233:
000234:                                                                                                  #  CALLING SEQUENCE
000235:                                                                                                  #        L       CALL    INCORP2
000236:
000237:                                                                                                  #  NORMAL EXIT
000238:                                                                                                  #        L+1 OF CALLING SEQUENCE
000239:
000240:
000241: 36,2000                                           SETLOC   MEASINC1
000242: 36,2000                                           BANK
000243:
000244: 36,3462                                           COUNT*   $$/INCOR
000245:
000246: 36,3462           45020        INCORP2            STQ      CALL
000247: 36,3463           02317                                    EGRESS
000248: 36,3464           27371                                    INTSTALL
000249: 36,3465           74375                           VLOAD    VXSC                                  #  CALC. GAMMA*OMEGA1,2,3
000250: 36,3466           03460                                    OMEGA
000251: 36,3467           03456                                    GAMMA
000252: 36,3470           26643                           STOVL    OMEGAM1
000253: 36,3471           03466                                    OMEGA      +6
000254: 36,3472           77761                           VXSC
000255: 36,3473           03456                                    GAMMA
000256: 36,3474           26651                           STOVL    OMEGAM2
000257: 36,3475           03474                                    OMEGA      +12D
000258: 36,3476           77761                           VXSC
000259: 36,3477           03456                                    GAMMA
000260: 36,3500           02657                           STORE    OMEGAM3
000261: 36,3501           77776                           EXIT
000262: 36,3502           33763                           CAF      54DD                                  #  INITIAL IX 1 SETTING FOR W MATRIX
000263: 36,3503           55252                           TS       WIXA
000264: 36,3504           55253                           TS       WIXB
000265: 36,3505           34714                           CAF      ZERO
000266: 36,3506           55254                           TS       ZIXA                                  #  INITIAL IX 2 SETTING FOR Z COMPONENT
000267: 36,3507           55255                           TS       ZIXB
000268: 36,3510           05301        FAZA               TC       PHASCHNG


000270: 36,3511           04022                           OCT      04022
000271: 36,3512           05435                           TC       UPFLAG
000272: 36,3513           00236                           ADRES    REINTFLG
000273: 36,3514           31253        FAZA1              CA       WIXB                                  #  START FIRST PHASE OF INCORP2
000274: 36,3515           55252                           TS       WIXA                                  #  TO UPDATE 6 OR 9 DIM. W MATRIX IN TEMP
000275: 36,3516           31255                           CA       ZIXB
000276: 36,3517           55254                           TS       ZIXA
000277: 36,3520           06006                           TC       INTPRET
000278: 36,3521           73150                           LXA,1    LXA,2
000279: 36,3522           01252                                    WIXA
000280: 36,3523           01254                                    ZIXA
000281: 36,3524           70731                           SSP      DLOAD*
000282: 36,3525           00051                                    S1
000283: 36,3526           00006                                    6
000284: 36,3527           75054                                    ZI,2
000285: 36,3530           60276                           DCOMP    NORM                                  #  CALC UPPER 3X9 PARTITION OF W MATRIX
000286: 36,3531           00052                                    S2
000287: 36,3532           65161                           VXSC     XCHX,2
000288: 36,3533           02643                                    OMEGAM1
000289: 36,3534           00051                                    S2
000290: 36,3535           57144                           LXC,2    XAD,2
000291: 36,3536           00047                                    X2
000292: 36,3537           02215                                    NORMGAM
000293: 36,3540           65057                           VSL*     XCHX,2
000294: 36,3541           57576                                    0,2
000295: 36,3542           00051                                    S2
000296: 36,3543           77653                           VAD*
000297: 36,3544           02467                                    W          +54D,1
000298: 36,3545           02665                           STORE    HOLDW
000299: 36,3546           57543                           DLOAD*   DCOMP                                 #  CALC MIDDLE 3X9 PARTITION OF W MATRIX
000300: 36,3547           75054                                    ZI,2
000301: 36,3550           74301                           NORM     VXSC
000302: 36,3551           00052                                    S2
000303: 36,3552           02651                                    OMEGAM2
000304: 36,3553           71124                           XCHX,2   LXC,2
000305: 36,3554           00051                                    S2
000306: 36,3555           00047                                    X2
000307: 36,3556           53674                           XAD,2    VSL*
000308: 36,3557           02215                                    NORMGAM
000309: 36,3560           57576                                    0,2
000310: 36,3561           52724                           XCHX,2   VAD*
000311: 36,3562           00051                                    S2
000312: 36,3563           02555                                    W          +108D,1
000313: 36,3564           02673                           STORE    HOLDW      +6
000314: 36,3565           77614                           BOFF
000315: 36,3566           02746                                    DMENFLG                               #  BRANCH IF 6 DIMENSIONAL
000316: 36,3567           75607                                    FAZB
000317: 36,3570           57543                           DLOAD*   DCOMP                                 #  CALC LOWER 3X9 PARTITION OF W MATRIX
000318: 36,3571           75054                                    ZI,2
000319: 36,3572           74301                           NORM     VXSC


000321: 36,3573           00052                                    S2
000322: 36,3574           02657                                    OMEGAM3
000323: 36,3575           71124                           XCHX,2   LXC,2
000324: 36,3576           00051                                    S2
000325: 36,3577           00047                                    X2
000326: 36,3600           53674                           XAD,2    VSL*
000327: 36,3601           02215                                    NORMGAM
000328: 36,3602           57576                                    0,2
000329: 36,3603           52724                           XCHX,2   VAD*
000330: 36,3604           00051                                    S2
000331: 36,3605           02643                                    W          +162D,1
000332: 36,3606           02701                           STORE    HOLDW      +12D
000333: 36,3607           77624        FAZB               CALL
000334: 36,3610           56741                                    GRP2PC
000335: 36,3611           77776                           EXIT
000336: 36,3612           31252        FAZB1              CA       WIXA                                  #  START 2ND PHASE OF INCORP2 TO TRANSFER
000337: 36,3613           63764                           AD       6DD                                   #        TEMP REG TO PERM W MATRIX
000338: 36,3614           55253                           TS       WIXB
000339: 36,3615           31254                           CA       ZIXA
000340: 36,3616           67715                           AD       MINUS2
000341: 36,3617           55255                           TS       ZIXB
000342: 36,3620           06006                           TC       INTPRET
000343: 36,3621           66350                           LXA,1    SSP
000344: 36,3622           01252                                    WIXA
000345: 36,3623           00051                                    S1
000346: 36,3624           00006                                    6
000347: 36,3625           77775                           VLOAD
000348: 36,3626           02665                                    HOLDW
000349: 36,3627           06467                           STORE    W          +54D,1
000350: 36,3630           77775                           VLOAD
000351: 36,3631           02673                                    HOLDW      +6
000352: 36,3632           06555                           STORE    W          +108D,1
000353: 36,3633           77214                           BOFF     VLOAD
000354: 36,3634           02746                                    DMENFLG
000355: 36,3635           75645                                    FAZB5
000356: 36,3636           02701                                    HOLDW      +12D
000357: 36,3637           06643                           STORE    W          +162D,1
000358: 36,3640           52100        FAZB2              TIX,1    GOTO
000359: 36,3641           75643                                    +2
000360: 36,3642           75653                                    FAZC                                  #  DONE WITH W MATRIX.  UPDATE STATE VECTOR
000361: 36,3643           77634                           RTB
000362: 36,3644           75510                                    FAZA
000363: 36,3645           43335        FAZB5              SLOAD    DAD
000364: 36,3646           01256                                    ZIXB
000365: 36,3647           35766                                    12DD
000366: 36,3650           52030                           BHIZ     GOTO
000367: 36,3651           75653                                    FAZC
000368: 36,3652           75640                                    FAZB2
000369: 36,3653           77624        FAZC               CALL
000370: 36,3654           56741                                    GRP2PC


000372: 36,3655           53375                           VLOAD    VAD                                   #  START 3RD PHASE OF INCORP2
000373: 36,3656           01701                                    X789                                  #  7TH, 8TH, 9TH COMPONENTN OF STATE VECTOR
000374: 36,3657           01273                                    DELTAX     +12D                       #  INCORPORATION FOR X789
000375: 36,3660           03450                           STORE    TX789
000376: 36,3661           47014                           BON      RTB
000377: 36,3662           00707                                    VEHUPFLG
000378: 36,3663           75753                                    DOCSM
000379: 36,3664           26745                                    MOVEPLEM
000380: 36,3665           77004        FAZAB              BOVB     AXT,2
000381: 36,3666           57343                                    TCDANZIG
000382: 36,3667           00000                                    0
000383: 36,3670           77014                           BOFF     AXT,2
000384: 36,3671           04343                                    MOONTHIS
000385: 36,3672           75674                                    +2
000386: 36,3673           00002                                    2
000387: 36,3674           53775                           VLOAD    VSR*
000388: 36,3675           01257                                    DELTAX                                #  B27 IF MOON ORBIT, B29 IF EARTH
000389: 36,3676           57205                                    0          -7,2
000390: 36,3677           40055                           VAD      BOV
000391: 36,3700           01521                                    TDELTAV
000392: 36,3701           75713                                    FAZAB1
000393: 36,3702           25521                           STOVL    TDELTAV
000394: 36,3703           01265                                    DELTAX     +6                         #  B5 IF MOON ORBIT, B7 IF EARTH
000395: 36,3704           53257                           VSR*     VAD
000396: 36,3705           57202                                    0          -4,2
000397: 36,3706           01527                                    TNUV
000398: 36,3707           77600                           BOV
000399: 36,3710           75717                                    FAZAB2
000400: 36,3711           35527                           STCALL   TNUV
000401: 36,3712           75726                                    FAZAB3
000402: 36,3713           53375        FAZAB1             VLOAD    VAD
000403: 36,3714           01535                                    RCV
000404: 36,3715           01257                                    DELTAX
000405: 36,3716           01535                           STORE    RCV
000406: 36,3717           53375        FAZAB2             VLOAD    VAD
000407: 36,3720           01543                                    VCV
000408: 36,3721           01265                                    DELTAX     +6
000409: 36,3722           01543                           STORE    VCV
000410: 36,3723           45134                           SXA,2    CALL
000411: 36,3724           02150                                    PBODY
000412: 36,3725           23344                                    RECTIFY
000413: 36,3726           77624        FAZAB3             CALL
000414: 36,3727           56741                                    GRP2PC
000415: 36,3730           47014                           BON      RTB
000416: 36,3731           00707                                    VEHUPFLG
000417: 36,3732           75756                                    DOCSM1
000418: 36,3733           26724                                    MOVEALEM
000419: 36,3734           77624                           CALL
000420: 36,3735           20263                                    SVDWN2                                #  STORE DOWNLINK STATE VECTOR
000421: 36,3736           77624        FAZAB4             CALL


000423: 36,3737           56741                                    GRP2PC                                #  PHASE CHANGE
000424: 36,3740           77214                           BOFF     VLOAD
000425: 36,3741           02746                                    DMENFLG
000426: 36,3742           75745                                    FAZAB5                                #  6 DIMENSIONAL
000427: 36,3743           03450                                    TX789                                 #  9 DIMENSIONAL
000428: 36,3744           01701                           STORE    X789
000429: 36,3745           66150        FAZAB5             LXA,1    SXA,1
000430: 36,3746           02317                                    EGRESS
000431: 36,3747           00052                                    QPRET
000432: 36,3750           77776                           EXIT
000433: 36,3751           04574                           TC       POSTJUMP                              #  EXIT
000434: 36,3752           27406                           CADR     INTWAKE
000435: 36,3753           52034        DOCSM              RTB      GOTO
000436: 36,3754           26700                                    MOVEPCSM
000437: 36,3755           75665                                    FAZAB
000438: 36,3756           45034        DOCSM1             RTB      CALL
000439: 36,3757           26651                                    MOVEACSM
000440: 36,3760           20237                                    SVDWN1                                #  STORE DOWNLINK STATE VECTOR
000441: 36,3761           77650                           GOTO
000442: 36,3762           75736                                    FAZAB4
000443: 36,3763  26,3331               ZEROD              =        ZEROVECS
000444: 36,3763           00066        54DD               DEC      54         B-14
000445: 36,3764           77771        6DD                DEC      -6         B-14
000446: 36,3765           00014        12DD               DEC      12         B-14
000447:
000448: 37,2000                                           SETLOC   RENDEZ
000449: 37,2000                                           BANK
000450: 37,3676                                           COUNT*   $$/INCOR
000451:
000452: 37,3676           51575        NEWZCOMP           VLOAD    ABVAL
000453: 37,3677           02723                                    ZI
000454: 37,3700           24045                           STOVL    NORMZI
000455: 37,3701           02731                                    ZI         +6
000456: 37,3702           41446                           ABVAL    PUSH
000457: 37,3703           50025                           DSU      BMN
000458: 37,3704           00045                                    NORMZI
000459: 37,3705           77710                                    +3
000460: 37,3706           45545                           DLOAD    STADR
000461: 37,3707           77732                           STORE    NORMZI
000462: 37,3710           51575                           VLOAD    ABVAL
000463: 37,3711           02737                                    ZI         +12D
000464: 37,3712           45206                           PUSH     DSU
000465: 37,3713           00045                                    NORMZI
000466: 37,3714           71240                           BMN      DLOAD
000467: 37,3715           77720                                    +3
000468: 37,3716           77626                           STADR
000469: 37,3717           77732                           STORE    NORMZI                                #  LARGEST ABVAL
000470: 37,3720           66145                           DLOAD    SXA,1
000471: 37,3721           00045                                    NORMZI
000472: 37,3722           00044                                    NORMZI                                #  SAVE X1
000473: 37,3723           62101                           NORM     INCR,1


000475: 37,3724           00047                                    X1
000476: 37,3725           00002                           DEC      2          B-14
000477: 37,3726           53775                           VLOAD    VSL*
000478: 37,3727           02723                                    ZI
000479: 37,3730           20201                                    0,1
000480: 37,3731           26723                           STOVL    ZI
000481: 37,3732           02731                                    ZI         +6
000482: 37,3733           77657                           VSL*
000483: 37,3734           20201                                    0,1
000484: 37,3735           26731                           STOVL    ZI         +6
000485: 37,3736           02737                                    ZI         +12D
000486: 37,3737           66057                           VSL*     SXA,1
000487: 37,3740           20201                                    0,1
000488: 37,3741           00045                                    NORMZI     +1                         #  SAVE SHIFT
000489: 37,3742           02737                           STORE    ZI         +12D
000490: 37,3743           54150                           LXA,1    XSU,1
000491: 37,3744           02215                                    NORMGAM
000492: 37,3745           00045                                    NORMZI     +1
000493: 37,3746           77660                           XSU,1
000494: 37,3747           00045                                    NORMZI     +1
000495: 37,3750           70130                           SXA,1    LXC,1
000496: 37,3751           02215                                    NORMGAM
000497: 37,3752           00045                                    NORMZI     +1
000498: 37,3753           40270                           XAD,1    SETPD
000499: 37,3754           00044                                    NORMZI
000500: 37,3755           00003                                    2D
000501: 37,3756           77650                           GOTO
000502: 37,3757           75406                                    INCOR2     -3
000503: 37,3760                        NORMZI             =        36D
000504:
000505:
000506:
000507:

End of include-file MEASUREMENT_INCORPORATION.agc.  Parent file is MAIN.agc


