
Source Code


000002:                                                                                                  ## Copyright:   Public domain.
000003:                                                                                                  ## Filename:    MYSUBS.agc
000004:                                                                                                  ## Purpose:     Part of the source code for Colossus, build 249.
000005:                                                                                                  ##              It is part of the source code for the Command Module's (CM)
000006:                                                                                                  ##              Apollo Guidance Computer (AGC), for Apollo 9.
000007:                                                                                                  ## Assembler:   yaYUL
000008:                                                                                                  ## Reference:   Begins on p. 970.
000009:                                                                                                  ## Contact:     Ron Burkey <info@sandroid.org>.
000010:                                                                                                  ## Website:     www.ibiblio.org/apollo.
000011:                                                                                                  ## Mod history: 08/25/04 RSB.   Began transcribing.
000012:                                                                                                  ##              2017-01-06 RSB  Page numbers now agree with those on the
000013:                                                                                                  ##                              original harcopy, as opposed to the PDF page
000014:                                                                                                  ##                              numbers in 1701.pdf.
000015:                                                                                                  ##              2017-01-15 RSB  Comment-text proofed by 3-way diff'ing vs
000016:                                                                                                  ##                              Colossus 237 and Comanche 55.  No differences
000017:                                                                                                  ##                              were found, so no corrections were made.
000018:                                                                                                  ##              2021-05-30 ABS  EBANK= MPAC -> EBANK= KMPAC
000019:                                                                                                  ##
000020:                                                                                                  ## The contents of the "Colossus249" files, in general, are transcribed
000021:                                                                                                  ## from a scanned copy of the program listing.  Notations on this
000022:                                                                                                  ## document read, in part:
000023:                                                                                                  ##
000024:                                                                                                  ##      Assemble revision 249 of AGC program Colossus by NASA
000025:                                                                                                  ##      2021111-041.  October 28, 1968.
000026:                                                                                                  ##
000027:                                                                                                  ##      This AGC program shall also be referred to as
000028:                                                                                                  ##                              Colossus 1A
000029:                                                                                                  ##
000030:                                                                                                  ##      Prepared by
000031:                                                                                                  ##                      Massachusetts Institute of Technology
000032:                                                                                                  ##                      75 Cambridge Parkway
000033:                                                                                                  ##                      Cambridge, Massachusetts
000034:                                                                                                  ##      under NASA contract NAS 9-4065.
000035:                                                                                                  ##
000036:                                                                                                  ## Refer directly to the online document mentioned above for further information.
000037:                                                                                                  ## Please report any errors (relative to the scanned pages) to info@sandroid.org.
000038:                                                                                                  ##
000039:                                                                                                  ## In some cases, where the source code for Luminary 131 overlaps that of
000040:                                                                                                  ## Colossus 249, this code is instead copied from the corresponding Luminary 131
000041:                                                                                                  ## source file, and then is proofed to incorporate any changes.
000042:


000044: 20,3565                                           BANK     20
000045: 21,2000                                           SETLOC   MYSUBS
000046: 21,2000                                           BANK
000047:
000048: 21,2026  E6,1510                                  EBANK=   KMPAC
000049: 21,2026     4767               SPCOS1             EQUALS   SPCOS
000050: 21,2026     4770               SPSIN1             EQUALS   SPSIN
000051: 21,2026     4767               SPCOS2             EQUALS   SPCOS
000052: 21,2026     4770               SPSIN2             EQUALS   SPSIN
000053: 21,2026                                           COUNT    21/DAPMS
000054:
000055:                                                                                                  #  ONE AND ONE HALF PRECISION MULTIPLICATION ROUTINE
000056:
000057: 21,2026           55512        SMALLMP            TS       KMPTEMP                               #  A(X+Y)
000058: 21,2027           00006                           EXTEND
000059: 21,2030           71511                           MP       KMPAC      +1
000060: 21,2031           55511                           TS       KMPAC      +1                         #  AY
000061: 21,2032           34714                           CAF      ZERO
000062: 21,2033           57510                           XCH      KMPAC
000063: 21,2034           00006                           EXTEND
000064: 21,2035           71512                           MP       KMPTEMP                               #  AX
000065: 21,2036           21511                           DAS      KMPAC                                 #  AX+AY
000066: 21,2037           00002                           TC       Q
000067:
000068:                                                                                                  #  SUBROUTINE FOR DOUBLE PRECISION ADDITIONS OF ANGLES
000069:                                                                                                  #  A AND L CONTAIN A DP(1S) ANGLE SCALED BY 180 DEGS TO BE ADDED TO KMPAC.
000070:                                                                                                  #  RESULT IS PLACED IN KMPAC.  TIMING = 6 MCT (22 MCT ON OVERFLOW)
000071:
000072: 21,2040           21511        DPADD              DAS      KMPAC
000073: 21,2041           00006                           EXTEND
000074: 21,2042           12057                           BZF      TSK        +1                         #  NO OVERFLOW
000075: 21,2043           11510                           CCS      KMPAC
000076: 21,2044           12060                           TCF      DPADD+                                #  + OVERFLOW
000077: 21,2045           12047                           TCF      +2
000078: 21,2046           12062                           TCF      DPADD-                                #  - OVERFLOW
000079: 21,2047           11511                           CCS      KMPAC      +1
000080: 21,2050           12065                           TCF      DPADD2+                               #  UPPER = 0, LOWER +
000081: 21,2051           12053                           TCF      +2
000082: 21,2052           40000                           COM                                            #  UPPER = 0, LOWER -
000083: 21,2053           64672                           AD       POSMAX                                #  LOWER = 0, A = 0
000084: 21,2054           55511                           TS       KMPAC      +1                         #  CAN NOT OVERFLOW
000085: 21,2055           34672                           CA       POSMAX                                #  UPPER WAS = 0
000086: 21,2056           55510        TSK                TS       KMPAC
000087: 21,2057           00002                           TC       Q
000088:
000089: 21,2060           64674        DPADD+             AD       NEGMAX                                #  KMPAC GREATER THAN 0
000090: 21,2061           12056                           TCF      TSK
000091:


000093: 21,2062           40000        DPADD-             COM
000094: 21,2063           64672                           AD       POSMAX                                #  KMPAC LESS THAN 0
000095: 21,2064           12056                           TCF      TSK
000096:
000097: 21,2065           64674        DPADD2+            AD       NEGMAX                                #  CAN NOT OVERFLOW
000098: 21,2066           55511                           TS       KMPAC      +1
000099: 21,2067           34674                           CA       NEGMAX                                #  UPPER WAS = 0
000100: 21,2070           12056                           TCF      TSK
000101:


000104:

End of include-file MYSUBS.agc.  Parent file is MAIN.agc


