
Source Code
000001:                                                                                                 #  Copyright:     Public domain.
000002:                                                                                                 #  Filename:      ORBITAL_INTEGRATION.agc
000003:                                                                                                 #  Purpose:       Part of the source code for Colossus, build 249.
000004:                                                                                                 #                 It is part of the source code for the Command Module's (CM)
000005:                                                                                                 #                 Apollo Guidance Computer (AGC), possibly for Apollo 8 and 9.
000006:                                                                                                 #  Assembler:     yaYUL
000007:                                                                                                 #  Reference:     p. 1314 of 1701.pdf.
000008:                                                                                                 #  Contact:       Ron Burkey <info@sandroid.org>.
000009:                                                                                                 #  Website:       www.ibiblio.org/apollo.
000010:                                                                                                 #  Mod history:   08/29/04 RSB.   Began adapting from correspoinding Luminary131 file.
000011:
000012:                                                                                                 #  The contents of the "Colossus249" files, in general, are transcribed
000013:                                                                                                 #  from a scanned document obtained from MIT's website,
000014:                                                                                                 #  http://hrst.mit.edu/hrs/apollo/public/archive/1701.pdf.  Notations on this
000015:                                                                                                 #  document read, in part:
000016:
000017:                                                                                                 #         Assemble revision 249 of AGC program Colossus by NASA
000018:                                                                                                 #         2021111-041.  October 28, 1968.
000019:
000020:                                                                                                 #         This AGC program shall also be referred to as
000021:                                                                                                 #                                 Colossus 1A
000022:
000023:                                                                                                 #         Prepared by
000024:                                                                                                 #                         Massachussets Institute of Technology
000025:                                                                                                 #                         75 Cambridge Parkway
000026:                                                                                                 #                         Cambridge, Massachusetts
000027:                                                                                                 #         under NASA contract NAS 9-4065.
000028:
000029:                                                                                                 #  Refer directly to the online document mentioned above for further information.
000030:                                                                                                 #  Please report any errors (relative to 1701.pdf) to info@sandroid.org.
000031:
000032:                                                                                                 #  In some cases, where the source code for Luminary 131 overlaps that of
000033:                                                                                                 #  Colossus 249, this code is instead copied from the corresponding Luminary 131
000034:                                                                                                 #  source file, and then is proofed to incorporate any changes.
000035:
000036:                                                                                                 #  Page 1314
000037:                                                                                                 #  ORBITAL INTEGRATION
000038:
000039:                                                                                                 #  DELETE
000040: 13,3715                                          BANK     13
000041: 11,2000                                          SETLOC   ORBITAL
000042: 11,2000                                          BANK
000043: 11,2310                                          COUNT    11/ORBIT
000044:
000045:                                                                                                 #  DELETE
000046: 11,2310           40354        KEPPREP           LXA,2    SETPD
000047: 11,2311           02150                                   PBODY
000048: 11,2312           00001                                   0
000049: 11,2313           75543                          DLOAD*   SQRT                                  #  SQRT(MU) (+18 OR +15)          0D      PL 2D
000050: 11,2314           50041                                   MUEARTH,2
000051: 11,2315           53515                          PDVL     UNIT                                  #                                         PL 8D
000052: 11,2316           01535                                   RCV
000053: 11,2317           60325                          PDDL     NORM                                  #  NORM R (+29 OR +27 - N1)       2D      PL 4D
000054: 11,2320           00045                                   36D
000055: 11,2321           00047                                   X1
000056: 11,2322           77715                          PDVL
000057: 11,2323           65241                          DOT      PDDL                                  #  F*SQRT(MU) (+7 OR +5)  4D      PL 6D
000058: 11,2324           01543                                   VCV
000059: 11,2325           02312                                   TAU.                                  #  (+28)
000060: 11,2326           60225                          DSU      NORM
000061: 11,2327           01551                                   TC
000062: 11,2330           00051                                   S1
000063: 11,2331           77742                          SR1
000064: 11,2332           65271                          DDV      PDDL
000065: 11,2333           00003                                   2D
000066: 11,2334           41405                          DMP      PUSH                                  #  FS (+6 +N1-N2)                 6D      PL 8D
000067: 11,2335           00005                                   4D
000068: 11,2336           65316                          DSQ      PDDL                                  #  (FS)SQ (+12 +2(N1-N2)) 8D      PL 10D
000069: 11,2337           00005                                   4D
000070: 11,2340           64716                          DSQ      PDDL*                                 #  SSQ/MU (-20R +2(N1-N2))        10D     PL 12D
000071: 11,2341           50041                                   MUEARTH,2
000072: 11,2342           40442                          SR3      SR4
000073: 11,2343           47515                          PDVL     VSQ                                   #  PREALIGN MU (+43 OR +37)       12D     PL 14D
000074: 11,2344           01543                                   VCV
000075: 11,2345           44205                          DMP      BDSU                                  #                                         PL 12D
000076: 11,2346           00045                                   36D
000077: 11,2347           41271                          DDV      DMP                                   #                                         PL 10D
000078: 11,2350           00003                                   2D                                    #  -(1/R-ALPHA) (+12 +3N1-2N2)
000079: 11,2351           53605                          DMP      SL*
000080: 11,2352           23717                                   DP2/3
000081: 11,2353           20176                                   0          -3,1                       #  10L(1/R-ALPHA) (+13 +2(N1-N2))
000082: 11,2354           43260                          XSU,1    DAD                                   #  2(FS)SQ - ETCETERA                     PL 8D
000083: 11,2355           00050                                   S1                                    #  X1 = N2-N1
000084: 11,2356           45257                          SL*      DSU                                   #  -FS+2(FS)SQ ETC (+6 +N1-N2)            PL 6D
000085: 11,2357           20211                                   8D,1
000086: 11,2360           41205                          DMP      DMP
000087: 11,2361           00001                                   0D
000088: 11,2362           00005                                   4D
000089: 11,2363           53657                          SL*      SL*
000090:                                                                                                 #  Page 1315
000091: 11,2364           20211                                   8D,1
000092: 11,2365           20201                                   0,1                                   #  S(-FS(1-2FS)-1/6...) (+17 OR +16)
000093: 11,2366           65215                          DAD      PDDL                                  #                                         PL 6D
000094: 11,2367           01553                                   XKEP
000095: 11,2370           53605                          DMP      SL*                                   #  S(+17 OR +16)
000096: 11,2371           00001                                   0D
000097: 11,2372           20202                                   1,1
000098: 11,2373           43204                          BOVB     DAD
000099: 11,2374           57343                                   TCDANZIG
000100: 11,2375           77626                          STADR
000101: 11,2376           75471                          STORE    XKEPNEW
000102: 11,2377           74020                          STQ      AXC,1
000103: 11,2400           02270                                   KEPRTN
000104: 11,2401           00012                          DEC      10         B-14
000105: 11,2402           74014                          BON      AXC,1
000106: 11,2403           00303                                   MOONFLAG
000107: 11,2404           24000                                   KEPLERN
000108: 11,2405           00002                          DEC      2          B-14
000109: 11,2406           77650                          GOTO
000110: 11,2407           24000                                   KEPLERN
000111:
000112:                                                                                                 #  Page 1316
000113: 11,2410           66350        FBR3              LXA,1    SSP
000114: 11,2411           01500                                   DIFEQCNT
000115: 11,2412           00051                                   S1
000116: 11,2413           77762                          DEC      -13        B-14
000117: 11,2414           54345                          DLOAD    SR
000118: 11,2415           02314                                   DT/2
000119: 11,2416           20612                                   9D
000120: 11,2417           61500                          TIX,1    ROUND
000121: 11,2420           22421                                   +1
000122: 11,2421           43206                          PUSH     DAD
000123: 11,2422           01551                                   TC
000124: 11,2423           16312                          STODL    TAU.
000125: 11,2424           77615                          DAD
000126: 11,2425           01517                                   TET
000127: 11,2426           35517                          STCALL   TET
000128: 11,2427           22310                                   KEPPREP
000129:
000130:                                                                                                 #  Page 1317
000131:                                                                                                 #  AGC ROUTINE TO COMPUTE ACCELERATION COMPONENTS.
000132:
000133: 11,2430           73150        ACCOMP            LXA,1    LXA,2
000134: 11,2431           02150                                   PBODY
000135: 11,2432           02150                                   PBODY
000136: 11,2433           77775                          VLOAD
000137: 11,2434           11456                                   ZEROVEC
000138: 11,2435           26202                          STOVL    FV
000139: 11,2436           02152                                   ALPHAV
000140: 11,2437           53257                          VSL*     VAD
000141: 11,2440           57605                                   0          -7,2
000142: 11,2441           01535                                   RCV
000143: 11,2442           02160                          STORE    BETAV
000144: 11,2443           65014                          BOF      XCHX,2
000145: 11,2444           01756                                   DIM0FLAG
000146: 11,2445           22452                                   +5
000147: 11,2446           01500                                   DIFEQCNT
000148: 11,2447           12217                          STORE    VECTAB,2
000149: 11,2450           77724                          XCHX,2
000150: 11,2451           01500                                   DIFEQCNT
000151: 11,2452           53575                          VLOAD    UNIT
000152: 11,2453           02152                                   ALPHAV
000153: 11,2454           16152                          STODL    ALPHAV
000154: 11,2455           00045                                   36D
000155: 11,2456           02310                          STORE    ALPHAM
000156: 11,2457           77624                          CALL
000157: 11,2460           22562                                   GAMCOMP
000158: 11,2461           66175                          VLOAD    SXA,1
000159: 11,2462           02160                                   BETAV
000160: 11,2463           00051                                   S2
000161: 11,2464           16152                          STODL    ALPHAV
000162: 11,2465           02210                                   BETAM
000163: 11,2466           02310                          STORE    ALPHAM
000164: 11,2467           71214                          BOF      DLOAD
000165: 11,2470           00342                                   MIDFLAG
000166: 11,2471           22725                                   OBLATE
000167: 11,2472           01517                                   TET
000168: 11,2473           77624                          CALL
000169: 11,2474           54110                                   LSPOS
000170: 11,2475           72174                          AXT,2    LXA,1
000171: 11,2476           00002                                   2
000172: 11,2477           00051                                   S2
000173: 11,2500           77614                          BOF
000174: 11,2501           00343                                   MOONFLAG
000175: 11,2502           22505                                   +3
000176: 11,2503           77076                          VCOMP    AXT,2
000177: 11,2504           00000                                   0
000178: 11,2505           02160                          STORE    BETAV
000179: 11,2506           26263                          STOVL    RPQV
000180:                                                                                                 #  Page 1318
000181: 11,2507           00003                                   2D
000182: 11,2510           02300                          STORE    RPSV
000183: 11,2511           45335                          SLOAD    DSU
000184: 11,2512           01012                                   MODREG
000185: 11,2513           23721                                   OCT27
000186: 11,2514           43030                          BHIZ     BOF
000187: 11,2515           22520                                   +3
000188: 11,2516           01756                                   DIM0FLAG
000189: 11,2517           22534                                   GETRPSV
000190: 11,2520           74375                          VLOAD    VXSC
000191: 11,2521           02152                                   ALPHAV
000192: 11,2522           02310                                   ALPHAM
000193: 11,2523           52257                          VSR*     VSU
000194: 11,2524           57175                                   1,2
000195: 11,2525           02160                                   BETAV
000196: 11,2526           77724                          XCHX,2
000197: 11,2527           01500                                   DIFEQCNT
000198: 11,2530           12225                          STORE    VECTAB     +6,2
000199: 11,2531           02272                          STORE    RQVV
000200: 11,2532           77724                          XCHX,2
000201: 11,2533           01500                                   DIFEQCNT
000202: 11,2534           62175        GETRPSV           VLOAD    INCR,1
000203: 11,2535           02263                                   RPQV
000204: 11,2536           00004                                   4
000205: 11,2537           43014                          CLEAR    BOF
000206: 11,2540           04260                                   RPQFLAG
000207: 11,2541           00343                                   MOONFLAG
000208: 11,2542           22547                                   +5
000209: 11,2543           53261                          VSR      VAD
000210: 11,2544           20612                                   9D
000211: 11,2545           02300                                   RPSV
000212: 11,2546           02300                          STORE    RPSV
000213: 11,2547           77624                          CALL
000214: 11,2550           22562                                   GAMCOMP
000215: 11,2551           62174                          AXT,2    INCR,1
000216: 11,2552           00004                                   4
000217: 11,2553           00004                                   4
000218: 11,2554           77775                          VLOAD
000219: 11,2555           02300                                   RPSV
000220: 11,2556           36160                          STCALL   BETAV
000221: 11,2557           22562                                   GAMCOMP
000222: 11,2560           77650                          GOTO
000223: 11,2561           22725                                   OBLATE
000224: 11,2562           74575        GAMCOMP           VLOAD    VSR1
000225: 11,2563           02160                                   BETAV
000226: 11,2564           40236                          VSQ      SETPD
000227: 11,2565           00001                                   0
000228: 11,2566           61501                          NORM     ROUND
000229: 11,2567           00040                                   31D
000230: 11,2570           60325                          PDDL     NORM                                  #  NORMED B SQUARED TO PD LIST
000231:                                                                                                 #  Page 1319
000232: 11,2571           02310                                   ALPHAM                                #  NORMALIZE (LESS ONE) LENGTH OF ALPHA
000233: 11,2572           00041                                   32D                                   #  SAVING NORM SCALE FACTOR IN X1
000234: 11,2573           63342                          SR1      PDVL
000235: 11,2574           02160                                   BETAV                                 #  C(PDL+2) = ALMOST NORMED ALPHA
000236: 11,2575           77656                          UNIT
000237: 11,2576           16160                          STODL    BETAV
000238: 11,2577           00045                                   36D
000239: 11,2600           02210                          STORE    BETAM
000240: 11,2601           55301                          NORM     BDDV                                  #  FORM NORMALIZE QUOTIEN ALPHAM/BETAM
000241: 11,2602           00042                                   33D
000242: 11,2603           41562                          SR1R     PUSH                                  #  C(PDL+2) = ALMOST NORMALIZE RHO.
000243: 11,2604           77743                          DLOAD*
000244: 11,2605           27730                                   ASCALE,1
000245: 11,2606           00051                          STORE    S1
000246: 11,2607           57124                          XCHX,2   XAD,2
000247: 11,2610           00050                                   S1
000248: 11,2611           00040                                   32D
000249: 11,2612           71264                          XSU,2    DLOAD
000250: 11,2613           00041                                   33D
000251: 11,2614           00003                                   2D
000252: 11,2615           65057                          SR*      XCHX,2
000253: 11,2616           57177                                   0          -1,2
000254: 11,2617           00050                                   S1
000255: 11,2620           74406                          PUSH     SR1R                                  #  RHO/4 TO 4D
000256: 11,2621           50315                          PDVL     DOT
000257: 11,2622           02152                                   ALPHAV
000258: 11,2623           02160                                   BETAV
000259: 11,2624           44372                          SL1R     BDSU                                  #  (RHO/4) - 2(ALPHAV/2.BETAV/2)
000260: 11,2625           57206                          PUSH     DMPR                                  #  TO PDL+6
000261: 11,2626           00005                                   4
000262: 11,2627           77752                          SL1
000263: 11,2630           43206                          PUSH     DAD
000264: 11,2631           23701                                   DQUARTER
000265: 11,2632           75406                          PUSH     SQRT
000266: 11,2633           41475                          DMPR     PUSH
000267: 11,2634           00013                                   10D
000268: 11,2635           43352                          SL1      DAD
000269: 11,2636           23701                                   DQUARTER
000270: 11,2637           43325                          PDDL     DAD                                   #  (1/4)+2((Q+1)/4)       TO PD+14D
000271: 11,2640           00013                                   10D
000272: 11,2641           11454                                   HALFDP
000273: 11,2642           72475                          DMPR     SL1
000274: 11,2643           00011                                   8D
000275: 11,2644           56215                          DAD      DDV
000276: 11,2645           23673                                   THREE/8
000277: 11,2646           00017                                   14D
000278: 11,2647           74275                          DMPR     VXSC
000279: 11,2650           00007                                   6
000280: 11,2651           02160                                   BETAV
000281: 11,2652           64515                          PDVL     VSR3                                  #  (G/2)(C(PD+4))B/2 TO PD+16D
000282:                                                                                                 #  Page 1320
000283: 11,2653           02152                                   ALPHAV
000284: 11,2654           41455                          VAD      PUSH                                  #  A12 + C(PD+16D) TO PD+16D
000285: 11,2655           41345                          DLOAD    DMP
000286: 11,2656           00001                                   0
000287: 11,2657           00015                                   12D
000288: 11,2660           61501                          NORM     ROUND
000289: 11,2661           00037                                   30D
000290: 11,2662           40665                          BDDV     DMP*
000291: 11,2663           00003                                   2
000292: 11,2664           50041                                   MUEARTH,2
000293: 11,2665           74276                          DCOMP    VXSC
000294: 11,2666           57124                          XCHX,2   XAD,2
000295: 11,2667           00050                                   S1
000296: 11,2670           00051                                   S2
000297: 11,2671           55064                          XSU,2    XSU,2
000298: 11,2672           00036                                   30D
000299: 11,2673           00037                                   31D
000300: 11,2674           77600                          BOV                                            #  CLEAR OVIND
000301: 11,2675           22676                                   +1
000302: 11,2676           65057                          VSR*     XCHX,2
000303: 11,2677           57177                                   0          -1,2
000304: 11,2700           00050                                   S1
000305: 11,2701           77655                          VAD
000306: 11,2702           02202                                   FV
000307: 11,2703           02202                          STORE    FV
000308: 11,2704           43400                          BOV      RVQ                                   #  RETURN IF NO OVERFLOW
000309: 11,2705           22706                                   +1
000310: 11,2706           54345        GOBAQUE           DLOAD    SR
000311: 11,2707           02212                                   H
000312: 11,2710           20612                                   9D
000313: 11,2711           44206                          PUSH     BDSU
000314: 11,2712           01551                                   TC
000315: 11,2713           16312                          STODL    TAU.
000316: 11,2714           01517                                   TET
000317: 11,2715           45425                          DSU      STADR
000318: 11,2716           42260                          STCALL   TET
000319: 11,2717           22310                                   KEPPREP
000320: 11,2720           77624                          CALL
000321: 11,2721           23344                                   RECTIFY
000322: 11,2722           77614                          SETGO
000323: 11,2723           04020                                   RPQFLAG
000324: 11,2724           27234                                   TESTLOOP
000325:
000326:                                                                                                 #  Page 1321
000327:                                                                                                 #  THE OBLATE ROUTINE COMPUTES THE ACCELERATION DUE TO OBLATENESS.  IT USES THE UNIT OF THE VEHICLE
000328:                                                                                                 #  POSITION VECTOR FOUND IN ALPHAV AND THE DISTANCE TO THE CENTER IN ALPHAM.  THIS IS ADDED TO THE SUM OF THE
000329:                                                                                                 #  DISTURBING ACCELERATIONS IN FV AND THE PROPER DIFEQ STAGE IS CALLED VIA X1.
000330:
000331: 11,2725           71354        OBLATE            LXA,2    DLOAD
000332: 11,2726           02150                                   PBODY
000333: 11,2727           02310                                   ALPHAM
000334: 11,2730           44601                          SETPD    DSU*
000335: 11,2731           00001                                   0
000336: 11,2732           50007                                   RDE,2
000337: 11,2733           43044                          BPL      BOF                                   #  GET URPV
000338: 11,2734           23135                                   NBRANCH
000339: 11,2735           00343                                   MOONFLAG
000340: 11,2736           23144                                   COSPHIE
000341: 11,2737           65375                          VLOAD    PDDL
000342: 11,2740           02152                                   ALPHAV
000343: 11,2741           01517                                   TET
000344: 11,2742           45125                          PDDL     CALL
000345: 11,2743           23671                                   3/5
000346: 11,2744           55366                                   R-TO-RP
000347: 11,2745           00017                          STORE    URPV
000348: 11,2746           47375                          VLOAD    VXV
000349: 11,2747           02012                                   504LM
000350: 11,2750           11450                                   ZUNIT
000351: 11,2751           61255                          VAD      VXM
000352: 11,2752           11450                                   ZUNIT
000353: 11,2753           00025                                   MMATRIX
000354: 11,2754           77656                          UNIT                                           #  PROBABLY UNNECESSARY.
000355: 11,2755           00025        COMTERM           STORE    UZ
000356: 11,2756           57345                          DLOAD    DMPR
000357: 11,2757           00023                                   COSPHI/2
000358: 11,2760           23703                                   3/32
000359: 11,2761           63525                          PDDL     DSQ                                   #  P2/64 TO PD0
000360: 11,2762           00023                                   COSPHI/2
000361: 11,2763           45275                          DMPR     DSU
000362: 11,2764           23705                                   15/16
000363: 11,2765           23677                                   3/64
000364: 11,2766           57206                          PUSH     DMPR                                  #  P3/32 TO PD2
000365: 11,2767           00023                                   COSPHI/2
000366: 11,2770           76405                          DMP      SL1R
000367: 11,2771           23711                                   7/12
000368: 11,2772           57325                          PDDL     DMPR
000369: 11,2773           00001                                   0
000370: 11,2774           23717                                   2/3
000371: 11,2775           41421                          BDSU     PUSH                                  #  P4/128 TO PD4
000372: 11,2776           57275                          DMPR     DMPR
000373: 11,2777           00023                                   COSPHI/2                              #  BEGIN COMPUTING P5/1024
000374: 11,3000           23713                                   9/16
000375: 11,3001           57325                          PDDL     DMPR
000376: 11,3002           00003                                   2
000377: 11,3003           23715                                   5/128
000378:                                                                                                 #  Page 1322
000379: 11,3004           77621                          BDSU
000380: 11,3005           77603                          DMP*
000381: 11,3006           50035                                   J4REQ/J3,2
000382: 11,3007           43271                          DDV      DAD                                   #               -3
000383: 11,3010           02310                                   ALPHAM                                #  (((P5/256)B 2  /R+P4/32)  /R+P3/8)ALPHAV
000384: 11,3011           00005                                   4                                     #             4             3
000385: 11,3012           56273                          DMPR*    DDV
000386: 11,3013           50031                                   2J3RE/J2,2
000387: 11,3014           02310                                   ALPHAM
000388: 11,3015           74215                          DAD      VXSC
000389: 11,3016           00003                                   2
000390: 11,3017           02152                                   ALPHAV
000391: 11,3020           14033                          STODL    TVEC
000392: 11,3021           70403                          DMP*     SR1
000393: 11,3022           50035                                   J4REQ/J3,2
000394: 11,3023           43271                          DDV      DAD
000395: 11,3024           02310                                   ALPHAM
000396: 11,3025           50473                          DMPR*    SR3
000397: 11,3026           50031                                   2J3RE/J2,2
000398: 11,3027           43271                          DDV      DAD
000399: 11,3030           02310                                   ALPHAM
000400: 11,3031           76561                          VXSC     VSL1
000401: 11,3032           00025                                   UZ
000402: 11,3033           77645                          BVSU
000403: 11,3034           00033                                   TVEC
000404: 11,3035           14033                          STODL    TVEC
000405: 11,3036           02310                                   ALPHAM
000406: 11,3037           63501                          NORM     DSQ
000407: 11,3040           00047                                   X1
000408: 11,3041           60316                          DSQ      NORM
000409: 11,3042           00051                                   S1
000410: 11,3043           54606                          PUSH     BDDV*
000411: 11,3044           50025                                   J2REQSQ,2
000412: 11,3045           77761                          VXSC
000413: 11,3046           00033                                   TVEC
000414: 11,3047           00033                          STORE    TVEC
000415: 11,3050           56070                          XAD,1    XAD,1
000416: 11,3051           00046                                   X1
000417: 11,3052           00046                                   X1
000418: 11,3053           43070                          XAD,1    BOF
000419: 11,3054           00050                                   S1
000420: 11,3055           00343                                   MOONFLAG
000421: 11,3056           23125                                   NBRANCH1
000422: 11,3057           63545                          DLOAD    DSQ                                   #   2
000423: 11,3060           00017                                   URPV                                  #  X  B-2 TO 2D
000424: 11,3061           63525                          PDDL     DSQ
000425: 11,3062           00021                                   URPV       +2                         #   2   2
000426: 11,3063           65215                          DAD      PDDL                                  #  Y  +X  B-2 TO 2D
000427: 11,3064           00003                                   2D
000428: 11,3065           45352                          SL1      DSU
000429:                                                                                                 #  Page 1323
000430: 11,3066           00003                                   2D
000431: 11,3067           41525                          PDDL     PUSH                                  #  X -Y B-2 TO 4D  COSPHI 2 TO 6D
000432: 11,3070           00023                                   COSPHI/2
000433: 11,3071           65361                          VXSC     PDDL                                  #  2COSPHI(UZ) B-3 TO 6D
000434: 11,3072           00025                                   UZ
000435: 11,3073           45316                          DSQ      DSU
000436: 11,3074           23671                                   3/5                                   #    2  2       2
000437: 11,3075           52405                          DMP      SL3                                   #  (X -Y )((5COS (PHI)-3)UR 2COS(PHI)UZ
000438: 11,3076           27756                                   5/8
000439: 11,3077           52361                          VXSC     VSU                                   #         B-3 TO 4D
000440: 11,3100           02152                                   ALPHAV
000441: 11,3101           72561                          VXSC     VSL2
000442: 11,3102           77725                          PDDL
000443: 11,3103           00017                                   URPV
000444: 11,3104           63205                          DMP      PDVL                                  #  XY B-2 TO 10D
000445: 11,3105           00021                                   URPV       +2
000446: 11,3106           02152                                   ALPHAV
000447: 11,3107           74235                          VXV      VXSC
000448: 11,3110           00025                                   UZ
000449: 11,3111           53332                          VSL3     VAD                                   #  4XY(UR X UZ) + D( 4D) B-3
000450: 11,3112           77725                          PDDL
000451: 11,3113           41301                          NORM     DMP
000452: 11,3114           00050                                   X2
000453: 11,3115           00001                                   0D                                    #  3J22R2MU/(X + Y)R
000454: 11,3116           74265                          BDDV     VXSC
000455: 11,3117           27754                                   3J22R2MU
000456: 11,3120           53257                          VSL*     VAD
000457: 11,3121           57605                                   0          -7,2
000458: 11,3122           00033                                   TVEC
000459: 11,3123           77754                          LXA,2
000460: 11,3124           02150                                   PBODY
000461:
000462: 11,3125           77600        NBRANCH1          BOV
000463: 11,3126           23127                                   +1
000464: 11,3127           53257                          VSL*     VAD
000465: 11,3130           20153                                   0          -22D,1
000466: 11,3131           02202                                   FV
000467: 11,3132           02202                          STORE    FV
000468: 11,3133           77600                          BOV
000469: 11,3134           22706                                   GOBAQUE
000470:
000471: 11,3135           72135        NBRANCH           SLOAD    LXA,1
000472: 11,3136           01501                                   DIFEQCNT
000473: 11,3137           00154                                   MPAC
000474: 11,3140           73205                          DMP      CGOTO
000475: 11,3141           27760                                   -1/12
000476: 11,3142           00155                                   MPAC
000477: 11,3143           23152                                   DIFEQTAB
000478: 11,3144           77745        COSPHIE           DLOAD
000479: 11,3145           02156                                   ALPHAV     +4
000480: 11,3146           24023                          STOVL    COSPHI/2
000481: 11,3147           11450                                   ZUNIT
000482:                                                                                                 #  Page 1324
000483: 11,3150           77650                          GOTO
000484: 11,3151           22755                                   COMTERM
000485: 11,3152           23371        DIFEQTAB          CADR     DIFEQ+0
000486: 11,3153           23375                          CADR     DIFEQ+1
000487: 11,3154           23406                          CADR     DIFEQ+2
000488: 11,3155           77214        TIMESTEP          BOF      VLOAD
000489: 11,3156           00342                                   MIDFLAG
000490: 11,3157           23206                                   RECTEST
000491: 11,3160           01535                                   RCV
000492: 11,3161           41241                          DOT      DMP
000493: 11,3162           01543                                   VCV
000494: 11,3163           02314                                   DT/2                                  #  (R.V) X (DELTA T)
000495: 11,3164           77640                          BMN
000496: 11,3165           23206                                   RECTEST
000497: 11,3166           43014                          BON      BOF
000498: 11,3167           00303                                   MOONFLAG
000499: 11,3170           23263                                   LUNSPH
000500: 11,3171           04340                                   RPQFLAG
000501: 11,3172           23260                                   EARSPH
000502: 11,3173           45145                          DLOAD    CALL
000503: 11,3174           01517                                   TET
000504: 11,3175           54110                                   LSPOS                                 #  RPQV IN MPAC
000505: 11,3176           02263                          STORE    RPQV                                  #  RPQV
000506: 11,3177           77754                          LXA,2
000507: 11,3200           02150                                   PBODY
000508: 11,3201           51445        INLUNCHK          BVSU     ABVAL
000509: 11,3202           01535                                   RCV
000510: 11,3203           50025                          DSU      BMN
000511: 11,3204           27764                                   RSPHERE
000512: 11,3205           23300                                   DOSWITCH
000513: 11,3206           51575        RECTEST           VLOAD    ABVAL                                 #  RECTIFY IF
000514: 11,3207           01521                                   TDELTAV
000515: 11,3210           77600                          BOV
000516: 11,3211           23234                                   CALLRECT
000517: 11,3212           51025                          DSU      BPL                                   #         1) EITHER TDELTAV OR TNUV EQUALS OR
000518: 11,3213           23707                                   3/4                                   #            EXCEEDS 3/4 IN MAGNITUDE
000519: 11,3214           23234                                   CALLRECT
000520: 11,3215           53615                          DAD      SL*                                   #                         OR
000521: 11,3216           23707                                   3/4
000522: 11,3217           57605                                   0          -7,2                       #         2) ABVAL(TDELTAV) EQUALS OR EXCEEDS
000523: 11,3220           45271                          DDV      DSU                                   #            .01(ABVAL(RCV))
000524: 11,3221           00013                                   10D
000525: 11,3222           27762                                   RECRATIO
000526: 11,3223           77244                          BPL      VLOAD
000527: 11,3224           23234                                   CALLRECT
000528: 11,3225           01527                                   TNUV
000529: 11,3226           45246                          ABVAL    DSU
000530: 11,3227           23707                                   3/4
000531: 11,3230           77600                          BOV
000532: 11,3231           23234                                   CALLRECT
000533:                                                                                                 #  Page 1325
000534: 11,3232           77640                          BMN
000535: 11,3233           23236                                   INTGRATE
000536: 11,3234           77624        CALLRECT          CALL
000537: 11,3235           23344                                   RECTIFY
000538: 11,3236           77775        INTGRATE          VLOAD
000539: 11,3237           01527                                   TNUV
000540: 11,3240           25120                          STOVL    ZV
000541: 11,3241           01521                                   TDELTAV
000542: 11,3242           01112                          STORE    YV
000543: 11,3243           77614                          CLEAR
000544: 11,3244           00261                                   JSWITCH
000545: 11,3245           66375        DIFEQ0            VLOAD    SSP
000546: 11,3246           01112                                   YV
000547: 11,3247           01501                                   DIFEQCNT
000548: 11,3250           00000                                   0
000549: 11,3251           16152                          STODL    ALPHAV
000550: 11,3252           11456                                   DPZERO
000551: 11,3253           02212                          STORE    H                                     #  START H AT ZERO.  GOES 0(DELT/2)DELT.
000552: 11,3254           52014                          BON      GOTO
000553: 11,3255           00301                                   JSWITCH
000554: 11,3256           23610                                   DOW..
000555: 11,3257           22430                                   ACCOMP
000556: 11,3260           52175        EARSPH            VLOAD    GOTO
000557: 11,3261           02263                                   RPQV
000558: 11,3262           23201                                   INLUNCHK
000559: 11,3263           60545        LUNSPH            DLOAD    SR2
000560: 11,3264           00013                                   10D
000561: 11,3265           50025                          DSU      BMN
000562: 11,3266           27764                                   RSPHERE
000563: 11,3267           23206                                   RECTEST
000564: 11,3270           71214                          BOF      DLOAD
000565: 11,3271           04340                                   RPQFLAG
000566: 11,3272           23300                                   DOSWITCH
000567: 11,3273           01517                                   TET
000568: 11,3274           77624                          CALL
000569: 11,3275           54115                                   LUNPOS
000570: 11,3276           77676                          VCOMP
000571: 11,3277           02263                          STORE    RPQV
000572: 11,3300           77624        DOSWITCH          CALL
000573: 11,3301           23304                                   ORIGCHNG
000574: 11,3302           77650                          GOTO
000575: 11,3303           23236                                   INTGRATE
000576: 11,3304           45020        ORIGCHNG          STQ      CALL
000577: 11,3305           02270                                   ORIGEX
000578: 11,3306           23344                                   RECTIFY
000579: 11,3307           53775                          VLOAD    VSL*
000580: 11,3310           01535                                   RCV
000581: 11,3311           57576                                   0,2
000582: 11,3312           53651                          VSU      VSL*
000583: 11,3313           02263                                   RPQV
000584:                                                                                                 #  Page 1326
000585: 11,3314           57574                                   2,2
000586: 11,3315           01503                          STORE    RRECT
000587: 11,3316           15535                          STODL    RCV
000588: 11,3317           01517                                   TET
000589: 11,3320           77624                          CALL
000590: 11,3321           54120                                   LUNVEL
000591: 11,3322           57414                          BOF      VCOMP
000592: 11,3323           00343                                   MOONFLAG
000593: 11,3324           23325                                   +1
000594: 11,3325           53715                          PDVL     VSL*
000595: 11,3326           01543                                   VCV
000596: 11,3327           57576                                   0,2
000597: 11,3330           77651                          VSU
000598: 11,3331           77657                          VSL*
000599: 11,3332           57574                                   0          +2,2
000600: 11,3333           01511                          STORE    VRECT
000601: 11,3334           01543                          STORE    VCV
000602: 11,3335           67154                          LXA,2    SXA,2
000603: 11,3336           02270                                   ORIGEX
000604: 11,3337           00052                                   QPRET
000605: 11,3340           52014                          BON      GOTO
000606: 11,3341           00303                                   MOONFLAG
000607: 11,3342           26666                                   CLRMOON
000608: 11,3343           26673                                   SETMOON
000609:                                                                                                 #  Page 1327
000610:                                                                                                 #  THE RECTIFY SUBROUTINE IS CALLED BY THE INTEGRATION PROGRAM AND OCCIASIONALLY BY THE MEASUREMENT INCORPORATION
000611:                                                                                                 #  ROUTINES TO ESTABLISH A NEW CONIC.
000612:
000613: 11,3344           77354        RECTIFY           LXA,2    VLOAD
000614: 11,3345           02150                                   PBODY
000615: 11,3346           01521                                   TDELTAV
000616: 11,3347           53257                          VSL*     VAD
000617: 11,3350           57605                                   0          -7,2
000618: 11,3351           01535                                   RCV
000619: 11,3352           01503                          STORE    RRECT
000620: 11,3353           25535                          STOVL    RCV
000621: 11,3354           01527                                   TNUV
000622: 11,3355           53257                          VSL*     VAD
000623: 11,3356           57602                                   0          -4,2
000624: 11,3357           01543                                   VCV
000625: 11,3360           01511        MINIRECT          STORE    VRECT
000626: 11,3361           25543                          STOVL    VCV
000627: 11,3362           11456                                   ZEROVEC
000628: 11,3363           01521                          STORE    TDELTAV
000629: 11,3364           15527                          STODL    TNUV
000630: 11,3365           11456                                   ZEROVEC
000631: 11,3366           01551                          STORE    TC
000632: 11,3367           01553                          STORE    XKEP
000633: 11,3370           77616                          RVQ
000634:
000635:                                                                                                 #  Page 1328
000636:                                                                                                 #  THE THREE DIFEQ ROUTINES -- DIFEQ+0, DIFEQ+12, DIFEQ+24 -- ARE ENTERED TO PROCESS THE CONTRIBUTIONS AT THE
000637:                                                                                                 #  BEGINNING, MIDDLE, AND END OF THE TIMESTEP, RESPECTIVELY.  THE UPDATING IS DONE BY THE NYSTROM METHOD.
000638:
000639: 11,3371           64575        DIFEQ+0           VLOAD    VSR3
000640: 11,3372           02202                                   FV
000641: 11,3373           36166                          STCALL   PHIV
000642: 11,3374           23551                                   DIFEQCOM
000643: 11,3375           74575        DIFEQ+1           VLOAD    VSR1
000644: 11,3376           02202                                   FV
000645: 11,3377           53206                          PUSH     VAD
000646: 11,3400           02166                                   PHIV
000647: 11,3401           26174                          STOVL    PSIV
000648: 11,3402           53362                          VSR1     VAD
000649: 11,3403           02166                                   PHIV
000650: 11,3404           36166                          STCALL   PHIV
000651: 11,3405           23551                                   DIFEQCOM
000652: 11,3406           57345        DIFEQ+2           DLOAD    DMPR
000653: 11,3407           02212                                   H
000654: 11,3410           23717                                   DP2/3
000655: 11,3411           74206                          PUSH     VXSC
000656: 11,3412           02166                                   PHIV
000657: 11,3413           53372                          VSL1     VAD
000658: 11,3414           01120                                   ZV
000659: 11,3415           53361                          VXSC     VAD
000660: 11,3416           02212                                   H
000661: 11,3417           01112                                   YV
000662: 11,3420           25112                          STOVL    YV
000663: 11,3421           02202                                   FV
000664: 11,3422           53322                          VSR3     VAD
000665: 11,3423           02174                                   PSIV
000666: 11,3424           76561                          VXSC     VSL1
000667: 11,3425           77655                          VAD
000668: 11,3426           01120                                   ZV
000669: 11,3427           01120                          STORE    ZV
000670: 11,3430           45014                          BOFF     CALL
000671: 11,3431           00341                                   JSWITCH
000672: 11,3432           23502                                   ENDSTATE
000673: 11,3433           56741                                   GRP2PC
000674: 11,3434           77354                          LXA,2    VLOAD
000675: 11,3435           01102                                   COLREG
000676: 11,3436           01120                                   ZV
000677: 11,3437           77732                          VSL3                                           #  ADJUST W-POSITION FOR STORAGE
000678: 11,3440           12467                          STORE    W          +54D,2
000679: 11,3441           77775                          VLOAD
000680: 11,3442           01112                                   YV
000681: 11,3443           40132                          VSL3     BOV
000682: 11,3444           23574                                   WMATEND
000683: 11,3445           12401                          STORE    W,2
000684:
000685: 11,3446           77624                          CALL
000686: 11,3447           56741                                   GRP2PC
000687:                                                                                                 #  Page 1329
000688: 11,3450           66354                          LXA,2    SSP
000689: 11,3451           01102                                   COLREG
000690: 11,3452           00052                                   S2
000691: 11,3453           00000                                   0
000692: 11,3454           67114                          INCR,2   SXA,2
000693: 11,3455           00006                                   6
000694: 11,3456           01111                                   YV
000695: 11,3457           45104                          TIX,2    CALL
000696: 11,3460           23545                                   RELOADSV
000697: 11,3461           56741                                   GRP2PC
000698: 11,3462           67154                          LXA,2    SXA,2
000699: 11,3463           01111                                   YV
000700: 11,3464           01102                                   COLREG
000701:
000702: 11,3465           77624        NEXTCOL           CALL
000703: 11,3466           56741                                   GRP2PC
000704: 11,3467           76754                          LXA,2    VLOAD*
000705: 11,3470           01102                                   COLREG
000706: 11,3471           75376                                   W,2
000707: 11,3472           77722                          VSR3                                           #  ADJUST W-POSITION FOR INTEGRATION
000708: 11,3473           01112                          STORE    YV
000709: 11,3474           76173                          VLOAD*   AXT,1
000710: 11,3475           75310                                   W          +54D,2
000711: 11,3476           00000                                   0
000712: 11,3477           77722                          VSR3                                           #  ADJUST W-VELOCITY FOR INTEGRATION
000713: 11,3500           35120                          STCALL   ZV
000714: 11,3501           23245                                   DIFEQ0
000715:
000716: 11,3502           77200        ENDSTATE          BOV      VLOAD
000717: 11,3503           22706                                   GOBAQUE
000718: 11,3504           01120                                   ZV
000719: 11,3505           25527                          STOVL    TNUV
000720: 11,3506           01112                                   YV
000721: 11,3507           01521                          STORE    TDELTAV
000722: 11,3510           43014                          BON      BOFF
000723: 11,3511           04715                                   MIDAVFLG
000724: 11,3512           27653                                   CKMID2                                #  CHECK FOR MID2 BEFORE GOING TO TIMEINC
000725: 11,3513           01756                                   DIM0FLAG
000726: 11,3514           27234                                   TESTLOOP
000727: 11,3515           77776                          EXIT
000728: 11,3516           05301                          TC       PHASCHNG
000729: 11,3517           04022                          OCT      04022                                 #  PHASE 1
000730: 11,3520           05435                          TC       UPFLAG                                #  PHASE CHANGE HAS OCCURRED BETWEEN
000731: 11,3521           00236                          ADRES    REINTFLG                              #  INTSTALL AND INTWAKE
000732: 11,3522           06006                          TC       INTPRET
000733: 11,3523           77731                          SSP
000734: 11,3524           00053                                   QPRET
000735: 11,3525           23532                                   AMOVED
000736: 11,3526           52014                          BON      GOTO
000737: 11,3527           01714                                   VINTFLAG
000738:                                                                                                 #  Page 1330
000739: 11,3530           26636                                   ATOPCSM
000740: 11,3531           26711                                   ATOPLEM
000741: 11,3532           66214        AMOVED            SET      SSP
000742: 11,3533           00061                                   JSWITCH
000743: 11,3534           01103                                   COLREG
000744: 11,3535           77741                          DEC      -30        B-14
000745: 11,3536           66214                          BOFF     SSP
000746: 11,3537           01755                                   D6OR9FLG
000747: 11,3540           23465                                   NEXTCOL
000748: 11,3541           01103                                   COLREG
000749: 11,3542           77717                          DEC      -48        B-14
000750: 11,3543           77650                          GOTO
000751: 11,3544           23465                                   NEXTCOL
000752:
000753: 11,3545           77745        RELOADSV          DLOAD                                          #  RELOAD TEMPORARY STATE VECTOR
000754: 11,3546           01101                                   TDEC                                  #  FROM PERMANENT IN CASE OF
000755: 11,3547           34041                          STCALL   TDEC1
000756: 11,3550           27120                                   INTEGRV2                              #  BY STARTING AT INTEGRV2.
000757: 11,3551           43345        DIFEQCOM          DLOAD    DAD                                   #  INCREMENT H AND DIFEQCNT.
000758: 11,3552           02314                                   DT/2
000759: 11,3553           02212                                   H
000760: 11,3554           66110                          INCR,1   SXA,1
000761: 11,3555           77763                          DEC      -12        B-14
000762: 11,3556           01500                                   DIFEQCNT                              #  DIFEQCNT SET FOR NEXT ENTRY.
000763: 11,3557           02212                          STORE    H
000764: 11,3560           74561                          VXSC     VSR1
000765: 11,3561           02202                                   FV
000766: 11,3562           74255                          VAD      VXSC
000767: 11,3563           01120                                   ZV
000768: 11,3564           02212                                   H
000769: 11,3565           77655                          VAD
000770: 11,3566           01112                                   YV
000771: 11,3567           02152                          STORE    ALPHAV
000772: 11,3570           52014                          BON      GOTO
000773: 11,3571           00301                                   JSWITCH
000774: 11,3572           23610                                   DOW..
000775: 11,3573           22410                                   FBR3
000776:
000777: 11,3574           43014        WMATEND           CLEAR    CLEAR
000778: 11,3575           01676                                   DIM0FLAG                              #  DON'T INTEGRATE W THIS TIME
000779: 11,3576           01671                                   ORBWFLAG                              #  INVALIDATE W
000780: 11,3577           77614                          CLEAR
000781: 11,3600           02676                                   RENDWFLG
000782: 11,3601           77414                          SET      EXIT
000783: 11,3602           01472                                   STATEFLG                              #  PICK UP STATE VECTOR UPDATE
000784: 11,3603           05537                          TC       ALARM
000785: 11,3604           00421                          OCT      421
000786: 11,3605           06006                          TC       INTPRET
000787:                                                                                                 #  Page 1331
000788: 11,3606           77650                          GOTO
000789: 11,3607           27234                                   TESTLOOP                              #  FINISH INTEGRATING STATE VECTOR
000790:
000791:                                                                                                 #  Page 1332
000792:                                                                                                 #  ORBITAL ROUTINE FOR EXTRAPOLATION OF THE W MATRIX.  IT COMPUTES THE SECOND DERIVATIVE OF EACH COLUMN POSITION
000793:                                                                                                 #  VECTOR OF THE MATRIX AND CALLS THE NYSTROM INTEGRATION ROUTINES TO SOLVE THE DIFFERENTIAL EQUATIONS.  THE PROGRAM
000794:                                                                                                 #  USES A TABLE OF VEHICL POSITION VECTORS COMPUTED DURING THE INTEGRATION OF THE VEHICLE'S POSITION AND VELOCITY.
000795:
000796: 11,3610           70754        DOW..             LXA,2    DLOAD*
000797: 11,3611           02150                                   PBODY
000798: 11,3612           50041                                   MUEARTH,2
000799: 11,3613           36210                          STCALL   BETAM
000800: 11,3614           23636                                   DOW..1
000801: 11,3615           02202                          STORE    FV
000802: 11,3616           62014                          BOF      INCR,1
000803: 11,3617           00342                                   MIDFLAG
000804: 11,3620           23135                                   NBRANCH
000805: 11,3621           77771                          DEC      -6         B-14
000806: 11,3622           70744                          LXC,2    DLOAD*
000807: 11,3623           02150                                   PBODY
000808: 11,3624           50043                                   MUEARTH    -2,2
000809: 11,3625           36210                          STCALL   BETAM
000810: 11,3626           23636                                   DOW..1
000811: 11,3627           50414                          BON      VSR6
000812: 11,3630           00303                                   MOONFLAG
000813: 11,3631           23632                                   +1
000814: 11,3632           77655                          VAD
000815: 11,3633           02202                                   FV
000816: 11,3634           36202                          STCALL   FV
000817: 11,3635           23135                                   NBRANCH
000818: 11,3636           60575        DOW..1            VLOAD    VSR4
000819: 11,3637           02152                                   ALPHAV
000820: 11,3640           53513                          PDVL*    UNIT
000821: 11,3641           02217                                   VECTAB,1
000822: 11,3642           46315                          PDVL     VPROJ
000823: 11,3643           02152                                   ALPHAV
000824: 11,3644           52361                          VXSC     VSU
000825: 11,3645           23707                                   3/4
000826: 11,3646           60325                          PDDL     NORM
000827: 11,3647           00045                                   36D
000828: 11,3650           00052                                   S2
000829: 11,3651           63406                          PUSH     DSQ
000830: 11,3652           77605                          DMP
000831: 11,3653           65301                          NORM     PDDL
000832: 11,3654           00043                                   34D
000833: 11,3655           02210                                   BETAM
000834: 11,3656           56342                          SR1      DDV
000835: 11,3657           77761                          VXSC
000836: 11,3660           57154                          LXA,2    XAD,2
000837: 11,3661           00051                                   S2
000838: 11,3662           00051                                   S2
000839: 11,3663           57074                          XAD,2    XAD,2
000840: 11,3664           00051                                   S2
000841: 11,3665           00042                                   34D
000842: 11,3666           43457                          VSL*     RVQ
000843:                                                                                                 #  Page 1333
000844: 11,3667           57606                                   0          -8D,2
000845:
000846: 11,2000                                          SETLOC   ORBITAL1
000847: 11,2000                                          BANK
000848:
000849: 11,3670           04631 23146  3/5               2DEC     .6         B-2
000850: 11,3672           14000 00000  THREE/8           2DEC     .375
000851: 11,3674           02314 31463  .3D               2DEC     .3         B-2
000852: 11,3676           01400 00000  3/64              2DEC     3          B-6
000853: 11,3700           10000 00000  DP1/4             2DEC     .25
000854: 11,3702  11,3700               DQUARTER          EQUALS   DP1/4
000855: 11,3702  11,3700               POS1/4            EQUALS   DP1/4
000856: 11,3702           03000 00000  3/32              2DEC     3          B-5
000857: 11,3704           36000 00000  15/16             2DEC     15.        B-4
000858: 11,3706           30000 00000  3/4               2DEC     3.0        B-2
000859: 11,3710           22525 12525  7/12              2DEC     .5833333333
000860: 11,3712           22000 00000  9/16              2DEC     9          B-4
000861: 11,3714           01200 00000  5/128             2DEC     5          B-7
000862: 11,3716  04,3455               DPZERO            EQUALS   ZEROVEC
000863: 11,3716           25252 25253  DP2/3             2DEC     .6666666667
000864: 11,3720  11,3716               2/3               EQUALS   DP2/3
000865: 11,3720           00027        OCT27             OCT      27
000866:
000867: 13,3715                                          BANK     13
000868: 13,2000                                          SETLOC   ORBITAL2
000869: 13,2000                                          BANK
000870:                                                                                                 #  IT IS VITAL THAT THE FOLLOWING CONSTANTS NOT BE SHUFFLED
000871: 13,3715           77764                          DEC      -11        B-14
000872: 13,3716           77775                          DEC      -2         B-14
000873: 13,3717           77766                          DEC      -9         B-14
000874: 13,3720           77771                          DEC      -6         B-14
000875: 13,3721           77775                          DEC      -2         B-14
000876: 13,3722           77775                          DEC      -2         B-14
000877: 13,3723           00000                          DEC      0          B-14
000878: 13,3724           77763                          DEC      -12        B-14
000879: 13,3725           77766                          DEC      -9         B-14
000880: 13,3726           77773                          DEC      -4         B-14
000881: 13,3727           77770        ASCALE            DEC      -7         B-14
000882: 13,3730           77771                          DEC      -6         B-14
000883:                                                                                                 #  Page 1334
000884: 13,3731           27446 14620                    2DEC*    1.32715445 E16        B-54*           #  S
000885: 13,3733           16471 01352                    2DEC*    4.9027780  E8         B-30*           #  M
000886: 13,3735           22437 16067  MUEARTH           2DEC*    3.986032   E10        B-36*
000887: 13,3737           00000 00000                    2DEC     0          B-28
000888: 13,3741           02302 24736  J4REQ/J3          2DEC*    .4991607391 E7         B-26*
000889: 13,3743           00000 00000                    2DEC     0          B-28
000890: 13,3745           77776 53032  2J3RE/J2          2DEC*    -.1355426363 E5         B-27*
000891: 13,3747           10407 05344                    2DEC*    .3067493316 E18        B-60*
000892: 13,3751           13710 35320  J2REQSQ           2DEC*    1.75501139 E21        B-72*
000893: 13,3753           12160 12124  3J22R2MU          2DEC*    9.20479048 E16        B-58*
000894:
000895: 13,3755           24000 00000  5/8               2DEC     5          B-3
000896: 13,3757           74631 63145  -1/12             2DEC     -.1
000897: 13,3761  13,3733               MUM               =        MUEARTH    -2
000898: 13,3761           00243 32703  RECRATIO          2DEC     .01
000899: 13,3763           03654 21000  RSPHERE           2DEC     64373.76   E3         B-29
000900: 13,3765           03654 21000  RDM               2DEC     16093.44   E3         B-27
000901: 13,3767           04627 25200  RDE               2DEC     80467.20   E3         B-29
000902:
000903: 13,3771                        RATT              EQUALS   00
000904: 13,3771                        VATT              EQUALS   6D
000905: 13,3771                        TAT               EQUALS   12D
000906: 13,3771                        RATT1             EQUALS   14D
000907: 13,3771                        VATT1             EQUALS   20D
000908: 13,3771                        MU(P)             EQUALS   26D
000909: 13,3771                        TDEC1             EQUALS   32D
000910: 13,3771                        URPV              EQUALS   14D
000911: 13,3771  0000022               COSPHI/2          EQUALS   URPV       +4
000912: 13,3771                        UZ                EQUALS   20D
000913: 13,3771                        TVEC              EQUALS   26D
000914:
000915:
000916:

End of include-file ORBITAL_INTEGRATION.agc.  Parent file is MAIN.agc


