
Source Code


000002:                                                                                                  #  Copyright:    Public domain.
000003:                                                                                                  #  Filename:     ORBITAL_INTEGRATION.agc
000004:                                                                                                  #  Purpose:      Part of the source code for Colossus, build 249.
000005:                                                                                                  #                It is part of the source code for the Command Module's (CM)
000006:                                                                                                  #                Apollo Guidance Computer (AGC), possibly for Apollo 8 and 9.
000007:                                                                                                  #  Assembler:    yaYUL
000008:                                                                                                  #  Reference:    p. 1314 of 1701.pdf.
000009:                                                                                                  #  Contact:      Ron Burkey <info@sandroid.org>.
000010:                                                                                                  #  Website:      www.ibiblio.org/apollo.
000011:                                                                                                  #  Mod history:  08/29/04 RSB.   Began adapting from correspoinding Luminary131 file.
000012:
000013:                                                                                                  #  The contents of the "Colossus249" files, in general, are transcribed
000014:                                                                                                  #  from a scanned document obtained from MIT's website,
000015:                                                                                                  #  http://hrst.mit.edu/hrs/apollo/public/archive/1701.pdf.  Notations on this
000016:                                                                                                  #  document read, in part:
000017:
000018:                                                                                                  #        Assemble revision 249 of AGC program Colossus by NASA
000019:                                                                                                  #        2021111-041.  October 28, 1968.
000020:
000021:                                                                                                  #        This AGC program shall also be referred to as
000022:                                                                                                  #                                Colossus 1A
000023:
000024:                                                                                                  #        Prepared by
000025:                                                                                                  #                        Massachusetts Institute of Technology
000026:                                                                                                  #                        75 Cambridge Parkway
000027:                                                                                                  #                        Cambridge, Massachusetts
000028:                                                                                                  #        under NASA contract NAS 9-4065.
000029:
000030:                                                                                                  #  Refer directly to the online document mentioned above for further information.
000031:                                                                                                  #  Please report any errors (relative to 1701.pdf) to info@sandroid.org.
000032:
000033:                                                                                                  #  In some cases, where the source code for Luminary 131 overlaps that of
000034:                                                                                                  #  Colossus 249, this code is instead copied from the corresponding Luminary 131
000035:                                                                                                  #  source file, and then is proofed to incorporate any changes.
000036:
000037:                                                                                                  #  Page 1314
000038:                                                                                                  #  ORBITAL INTEGRATION
000039:
000040:                                                                                                  #  DELETE
000041: 13,3715                                           BANK     13
000042: 11,2000                                           SETLOC   ORBITAL
000043: 11,2000                                           BANK
000044: 11,2310                                           COUNT    11/ORBIT
000045:
000046:                                                                                                  #  DELETE
000047: 11,2310           40354        KEPPREP            LXA,2    SETPD
000048: 11,2311           02150                                    PBODY
000049: 11,2312           00001                                    0
000050: 11,2313           75543                           DLOAD*   SQRT                                  #  SQRT(MU) (+18 OR +15)         0D      PL 2D
000051: 11,2314           50041                                    MUEARTH,2
000052: 11,2315           53515                           PDVL     UNIT                                  #                                        PL 8D
000053: 11,2316           01535                                    RCV
000054: 11,2317           60325                           PDDL     NORM                                  #  NORM R (+29 OR +27 - N1)      2D      PL 4D
000055: 11,2320           00045                                    36D
000056: 11,2321           00047                                    X1
000057: 11,2322           77715                           PDVL
000058: 11,2323           65241                           DOT      PDDL                                  #  F*SQRT(MU) (+7 OR +5)         4D      PL 6D
000059: 11,2324           01543                                    VCV
000060: 11,2325           02312                                    TAU.                                  #  (+28)
000061: 11,2326           60225                           DSU      NORM
000062: 11,2327           01551                                    TC
000063: 11,2330           00051                                    S1
000064: 11,2331           77742                           SR1
000065: 11,2332           65271                           DDV      PDDL
000066: 11,2333           00003                                    2D
000067: 11,2334           41405                           DMP      PUSH                                  #  FS (+6 +N1-N2)                6D      PL 8D
000068: 11,2335           00005                                    4D
000069: 11,2336           65316                           DSQ      PDDL                                  #  (FS)SQ (+12 +2(N1-N2))        8D      PL 10D
000070: 11,2337           00005                                    4D
000071: 11,2340           64716                           DSQ      PDDL*                                 #  SSQ/MU (-20R +2(N1-N2))       10D     PL 12D
000072: 11,2341           50041                                    MUEARTH,2
000073: 11,2342           40442                           SR3      SR4
000074: 11,2343           47515                           PDVL     VSQ                                   #  PREALIGN MU (+43 OR +37)      12D     PL 14D
000075: 11,2344           01543                                    VCV
000076: 11,2345           44205                           DMP      BDSU                                  #                                        PL 12D
000077: 11,2346           00045                                    36D
000078: 11,2347           41271                           DDV      DMP                                   #                                        PL 10D
000079: 11,2350           00003                                    2D                                    #  -(1/R-ALPHA) (+12 +3N1-2N2)
000080: 11,2351           53605                           DMP      SL*
000081: 11,2352           23717                                    DP2/3
000082: 11,2353           20176                                    0          -3,1                       #  10L(1/R-ALPHA) (+13 +2(N1-N2))
000083: 11,2354           43260                           XSU,1    DAD                                   #  2(FS)SQ - ETCETERA                    PL 8D
000084: 11,2355           00050                                    S1                                    #  X1 = N2-N1
000085: 11,2356           45257                           SL*      DSU                                   #  -FS+2(FS)SQ ETC (+6 +N1-N2)           PL 6D
000086: 11,2357           20211                                    8D,1
000087: 11,2360           41205                           DMP      DMP
000088: 11,2361           00001                                    0D
000089: 11,2362           00005                                    4D
000090: 11,2363           53657                           SL*      SL*
000091:                                                                                                  #  Page 1315
000092: 11,2364           20211                                    8D,1
000093: 11,2365           20201                                    0,1                                   #  S(-FS(1-2FS)-1/6...) (+17 OR +16)
000094: 11,2366           65215                           DAD      PDDL                                  #                                        PL 6D
000095: 11,2367           01553                                    XKEP
000096: 11,2370           53605                           DMP      SL*                                   #  S(+17 OR +16)
000097: 11,2371           00001                                    0D
000098: 11,2372           20202                                    1,1
000099: 11,2373           43204                           BOVB     DAD
000100: 11,2374           57343                                    TCDANZIG
000101: 11,2375           77626                           STADR
000102: 11,2376           75471                           STORE    XKEPNEW
000103: 11,2377           74020                           STQ      AXC,1
000104: 11,2400           02270                                    KEPRTN
000105: 11,2401           00012                           DEC      10         B-14
000106: 11,2402           74014                           BON      AXC,1
000107: 11,2403           00303                                    MOONFLAG
000108: 11,2404           24000                                    KEPLERN
000109: 11,2405           00002                           DEC      2          B-14
000110: 11,2406           77650                           GOTO
000111: 11,2407           24000                                    KEPLERN
000112:
000113:                                                                                                  #  Page 1316
000114: 11,2410           66350        FBR3               LXA,1    SSP
000115: 11,2411           01500                                    DIFEQCNT
000116: 11,2412           00051                                    S1
000117: 11,2413           77762                           DEC      -13        B-14
000118: 11,2414           54345                           DLOAD    SR
000119: 11,2415           02314                                    DT/2
000120: 11,2416           20612                                    9D
000121: 11,2417           61500                           TIX,1    ROUND
000122: 11,2420           22421                                    +1
000123: 11,2421           43206                           PUSH     DAD
000124: 11,2422           01551                                    TC
000125: 11,2423           16312                           STODL    TAU.
000126: 11,2424           77615                           DAD
000127: 11,2425           01517                                    TET
000128: 11,2426           35517                           STCALL   TET
000129: 11,2427           22310                                    KEPPREP
000130:
000131:                                                                                                  #  Page 1317
000132:                                                                                                  #  AGC ROUTINE TO COMPUTE ACCELERATION COMPONENTS.
000133:
000134: 11,2430           73150        ACCOMP             LXA,1    LXA,2
000135: 11,2431           02150                                    PBODY
000136: 11,2432           02150                                    PBODY
000137: 11,2433           77775                           VLOAD
000138: 11,2434           11456                                    ZEROVEC
000139: 11,2435           26202                           STOVL    FV
000140: 11,2436           02152                                    ALPHAV
000141: 11,2437           53257                           VSL*     VAD
000142: 11,2440           57605                                    0          -7,2
000143: 11,2441           01535                                    RCV
000144: 11,2442           02160                           STORE    BETAV
000145: 11,2443           65014                           BOF      XCHX,2
000146: 11,2444           01756                                    DIM0FLAG
000147: 11,2445           22452                                    +5
000148: 11,2446           01500                                    DIFEQCNT
000149: 11,2447           12217                           STORE    VECTAB,2
000150: 11,2450           77724                           XCHX,2
000151: 11,2451           01500                                    DIFEQCNT
000152: 11,2452           53575                           VLOAD    UNIT
000153: 11,2453           02152                                    ALPHAV
000154: 11,2454           16152                           STODL    ALPHAV
000155: 11,2455           00045                                    36D
000156: 11,2456           02310                           STORE    ALPHAM
000157: 11,2457           77624                           CALL
000158: 11,2460           22562                                    GAMCOMP
000159: 11,2461           66175                           VLOAD    SXA,1
000160: 11,2462           02160                                    BETAV
000161: 11,2463           00051                                    S2
000162: 11,2464           16152                           STODL    ALPHAV
000163: 11,2465           02210                                    BETAM
000164: 11,2466           02310                           STORE    ALPHAM
000165: 11,2467           71214                           BOF      DLOAD
000166: 11,2470           00342                                    MIDFLAG
000167: 11,2471           22725                                    OBLATE
000168: 11,2472           01517                                    TET
000169: 11,2473           77624                           CALL
000170: 11,2474           54110                                    LSPOS
000171: 11,2475           72174                           AXT,2    LXA,1
000172: 11,2476           00002                                    2
000173: 11,2477           00051                                    S2
000174: 11,2500           77614                           BOF
000175: 11,2501           00343                                    MOONFLAG
000176: 11,2502           22505                                    +3
000177: 11,2503           77076                           VCOMP    AXT,2
000178: 11,2504           00000                                    0
000179: 11,2505           02160                           STORE    BETAV
000180: 11,2506           26263                           STOVL    RPQV
000181:                                                                                                  #  Page 1318
000182: 11,2507           00003                                    2D
000183: 11,2510           02300                           STORE    RPSV
000184: 11,2511           45335                           SLOAD    DSU
000185: 11,2512           01012                                    MODREG
000186: 11,2513           23721                                    OCT27
000187: 11,2514           43030                           BHIZ     BOF
000188: 11,2515           22520                                    +3
000189: 11,2516           01756                                    DIM0FLAG
000190: 11,2517           22534                                    GETRPSV
000191: 11,2520           74375                           VLOAD    VXSC
000192: 11,2521           02152                                    ALPHAV
000193: 11,2522           02310                                    ALPHAM
000194: 11,2523           52257                           VSR*     VSU
000195: 11,2524           57175                                    1,2
000196: 11,2525           02160                                    BETAV
000197: 11,2526           77724                           XCHX,2
000198: 11,2527           01500                                    DIFEQCNT
000199: 11,2530           12225                           STORE    VECTAB     +6,2
000200: 11,2531           02272                           STORE    RQVV
000201: 11,2532           77724                           XCHX,2
000202: 11,2533           01500                                    DIFEQCNT
000203: 11,2534           62175        GETRPSV            VLOAD    INCR,1
000204: 11,2535           02263                                    RPQV
000205: 11,2536           00004                                    4
000206: 11,2537           43014                           CLEAR    BOF
000207: 11,2540           04260                                    RPQFLAG
000208: 11,2541           00343                                    MOONFLAG
000209: 11,2542           22547                                    +5
000210: 11,2543           53261                           VSR      VAD
000211: 11,2544           20612                                    9D
000212: 11,2545           02300                                    RPSV
000213: 11,2546           02300                           STORE    RPSV
000214: 11,2547           77624                           CALL
000215: 11,2550           22562                                    GAMCOMP
000216: 11,2551           62174                           AXT,2    INCR,1
000217: 11,2552           00004                                    4
000218: 11,2553           00004                                    4
000219: 11,2554           77775                           VLOAD
000220: 11,2555           02300                                    RPSV
000221: 11,2556           36160                           STCALL   BETAV
000222: 11,2557           22562                                    GAMCOMP
000223: 11,2560           77650                           GOTO
000224: 11,2561           22725                                    OBLATE
000225: 11,2562           74575        GAMCOMP            VLOAD    VSR1
000226: 11,2563           02160                                    BETAV
000227: 11,2564           40236                           VSQ      SETPD
000228: 11,2565           00001                                    0
000229: 11,2566           61501                           NORM     ROUND
000230: 11,2567           00040                                    31D
000231: 11,2570           60325                           PDDL     NORM                                  #  NORMED B SQUARED TO PD LIST
000232:                                                                                                  #  Page 1319
000233: 11,2571           02310                                    ALPHAM                                #  NORMALIZE (LESS ONE) LENGTH OF ALPHA
000234: 11,2572           00041                                    32D                                   #  SAVING NORM SCALE FACTOR IN X1
000235: 11,2573           63342                           SR1      PDVL
000236: 11,2574           02160                                    BETAV                                 #  C(PDL+2) = ALMOST NORMED ALPHA
000237: 11,2575           77656                           UNIT
000238: 11,2576           16160                           STODL    BETAV
000239: 11,2577           00045                                    36D
000240: 11,2600           02210                           STORE    BETAM
000241: 11,2601           55301                           NORM     BDDV                                  #  FORM NORMALIZE QUOTIEN ALPHAM/BETAM
000242: 11,2602           00042                                    33D
000243: 11,2603           41562                           SR1R     PUSH                                  #  C(PDL+2) = ALMOST NORMALIZE RHO.
000244: 11,2604           77743                           DLOAD*
000245: 11,2605           27730                                    ASCALE,1
000246: 11,2606           00051                           STORE    S1
000247: 11,2607           57124                           XCHX,2   XAD,2
000248: 11,2610           00050                                    S1
000249: 11,2611           00040                                    32D
000250: 11,2612           71264                           XSU,2    DLOAD
000251: 11,2613           00041                                    33D
000252: 11,2614           00003                                    2D
000253: 11,2615           65057                           SR*      XCHX,2
000254: 11,2616           57177                                    0          -1,2
000255: 11,2617           00050                                    S1
000256: 11,2620           74406                           PUSH     SR1R                                  #  RHO/4 TO 4D
000257: 11,2621           50315                           PDVL     DOT
000258: 11,2622           02152                                    ALPHAV
000259: 11,2623           02160                                    BETAV
000260: 11,2624           44372                           SL1R     BDSU                                  #  (RHO/4) - 2(ALPHAV/2.BETAV/2)
000261: 11,2625           57206                           PUSH     DMPR                                  #  TO PDL+6
000262: 11,2626           00005                                    4
000263: 11,2627           77752                           SL1
000264: 11,2630           43206                           PUSH     DAD
000265: 11,2631           23701                                    DQUARTER
000266: 11,2632           75406                           PUSH     SQRT
000267: 11,2633           41475                           DMPR     PUSH
000268: 11,2634           00013                                    10D
000269: 11,2635           43352                           SL1      DAD
000270: 11,2636           23701                                    DQUARTER
000271: 11,2637           43325                           PDDL     DAD                                   #  (1/4)+2((Q+1)/4)      TO PD+14D
000272: 11,2640           00013                                    10D
000273: 11,2641           11454                                    HALFDP
000274: 11,2642           72475                           DMPR     SL1
000275: 11,2643           00011                                    8D
000276: 11,2644           56215                           DAD      DDV
000277: 11,2645           23673                                    THREE/8
000278: 11,2646           00017                                    14D
000279: 11,2647           74275                           DMPR     VXSC
000280: 11,2650           00007                                    6
000281: 11,2651           02160                                    BETAV
000282: 11,2652           64515                           PDVL     VSR3                                  #  (G/2)(C(PD+4))B/2 TO PD+16D
000283:                                                                                                  #  Page 1320
000284: 11,2653           02152                                    ALPHAV
000285: 11,2654           41455                           VAD      PUSH                                  #  A12 + C(PD+16D) TO PD+16D
000286: 11,2655           41345                           DLOAD    DMP
000287: 11,2656           00001                                    0
000288: 11,2657           00015                                    12D
000289: 11,2660           61501                           NORM     ROUND
000290: 11,2661           00037                                    30D
000291: 11,2662           40665                           BDDV     DMP*
000292: 11,2663           00003                                    2
000293: 11,2664           50041                                    MUEARTH,2
000294: 11,2665           74276                           DCOMP    VXSC
000295: 11,2666           57124                           XCHX,2   XAD,2
000296: 11,2667           00050                                    S1
000297: 11,2670           00051                                    S2
000298: 11,2671           55064                           XSU,2    XSU,2
000299: 11,2672           00036                                    30D
000300: 11,2673           00037                                    31D
000301: 11,2674           77600                           BOV                                            #  CLEAR OVIND
000302: 11,2675           22676                                    +1
000303: 11,2676           65057                           VSR*     XCHX,2
000304: 11,2677           57177                                    0          -1,2
000305: 11,2700           00050                                    S1
000306: 11,2701           77655                           VAD
000307: 11,2702           02202                                    FV
000308: 11,2703           02202                           STORE    FV
000309: 11,2704           43400                           BOV      RVQ                                   #  RETURN IF NO OVERFLOW
000310: 11,2705           22706                                    +1
000311: 11,2706           54345        GOBAQUE            DLOAD    SR
000312: 11,2707           02212                                    H
000313: 11,2710           20612                                    9D
000314: 11,2711           44206                           PUSH     BDSU
000315: 11,2712           01551                                    TC
000316: 11,2713           16312                           STODL    TAU.
000317: 11,2714           01517                                    TET
000318: 11,2715           45425                           DSU      STADR
000319: 11,2716           42260                           STCALL   TET
000320: 11,2717           22310                                    KEPPREP
000321: 11,2720           77624                           CALL
000322: 11,2721           23344                                    RECTIFY
000323: 11,2722           77614                           SETGO
000324: 11,2723           04020                                    RPQFLAG
000325: 11,2724           27234                                    TESTLOOP
000326:
000327:                                                                                                  #  Page 1321
000328:                                                                                                  #  THE OBLATE ROUTINE COMPUTES THE ACCELERATION DUE TO OBLATENESS.  IT USES THE UNIT OF THE VEHICLE
000329:                                                                                                  #  POSITION VECTOR FOUND IN ALPHAV AND THE DISTANCE TO THE CENTER IN ALPHAM.  THIS IS ADDED TO THE SUM OF THE
000330:                                                                                                  #  DISTURBING ACCELERATIONS IN FV AND THE PROPER DIFEQ STAGE IS CALLED VIA X1.
000331:
000332: 11,2725           71354        OBLATE             LXA,2    DLOAD
000333: 11,2726           02150                                    PBODY
000334: 11,2727           02310                                    ALPHAM
000335: 11,2730           44601                           SETPD    DSU*
000336: 11,2731           00001                                    0
000337: 11,2732           50007                                    RDE,2
000338: 11,2733           43044                           BPL      BOF                                   #  GET URPV
000339: 11,2734           23135                                    NBRANCH
000340: 11,2735           00343                                    MOONFLAG
000341: 11,2736           23144                                    COSPHIE
000342: 11,2737           65375                           VLOAD    PDDL
000343: 11,2740           02152                                    ALPHAV
000344: 11,2741           01517                                    TET
000345: 11,2742           45125                           PDDL     CALL
000346: 11,2743           23671                                    3/5
000347: 11,2744           55366                                    R-TO-RP
000348: 11,2745           00017                           STORE    URPV
000349: 11,2746           47375                           VLOAD    VXV
000350: 11,2747           02012                                    504LM
000351: 11,2750           11450                                    ZUNIT
000352: 11,2751           61255                           VAD      VXM
000353: 11,2752           11450                                    ZUNIT
000354: 11,2753           00025                                    MMATRIX
000355: 11,2754           77656                           UNIT                                           #  PROBABLY UNNECESSARY.
000356: 11,2755           00025        COMTERM            STORE    UZ
000357: 11,2756           57345                           DLOAD    DMPR
000358: 11,2757           00023                                    COSPHI/2
000359: 11,2760           23703                                    3/32
000360: 11,2761           63525                           PDDL     DSQ                                   #  P2/64 TO PD0
000361: 11,2762           00023                                    COSPHI/2
000362: 11,2763           45275                           DMPR     DSU
000363: 11,2764           23705                                    15/16
000364: 11,2765           23677                                    3/64
000365: 11,2766           57206                           PUSH     DMPR                                  #  P3/32 TO PD2
000366: 11,2767           00023                                    COSPHI/2
000367: 11,2770           76405                           DMP      SL1R
000368: 11,2771           23711                                    7/12
000369: 11,2772           57325                           PDDL     DMPR
000370: 11,2773           00001                                    0
000371: 11,2774           23717                                    2/3
000372: 11,2775           41421                           BDSU     PUSH                                  #  P4/128 TO PD4
000373: 11,2776           57275                           DMPR     DMPR
000374: 11,2777           00023                                    COSPHI/2                              #  BEGIN COMPUTING P5/1024
000375: 11,3000           23713                                    9/16
000376: 11,3001           57325                           PDDL     DMPR
000377: 11,3002           00003                                    2
000378: 11,3003           23715                                    5/128
000379:                                                                                                  #  Page 1322
000380: 11,3004           77621                           BDSU
000381: 11,3005           77603                           DMP*
000382: 11,3006           50035                                    J4REQ/J3,2
000383: 11,3007           43271                           DDV      DAD                                   #               -3
000384: 11,3010           02310                                    ALPHAM                                #  (((P5/256)B 2  /R+P4/32)  /R+P3/8)ALPHAV
000385: 11,3011           00005                                    4                                     #             4             3
000386: 11,3012           56273                           DMPR*    DDV
000387: 11,3013           50031                                    2J3RE/J2,2
000388: 11,3014           02310                                    ALPHAM
000389: 11,3015           74215                           DAD      VXSC
000390: 11,3016           00003                                    2
000391: 11,3017           02152                                    ALPHAV
000392: 11,3020           14033                           STODL    TVEC
000393: 11,3021           70403                           DMP*     SR1
000394: 11,3022           50035                                    J4REQ/J3,2
000395: 11,3023           43271                           DDV      DAD
000396: 11,3024           02310                                    ALPHAM
000397: 11,3025           50473                           DMPR*    SR3
000398: 11,3026           50031                                    2J3RE/J2,2
000399: 11,3027           43271                           DDV      DAD
000400: 11,3030           02310                                    ALPHAM
000401: 11,3031           76561                           VXSC     VSL1
000402: 11,3032           00025                                    UZ
000403: 11,3033           77645                           BVSU
000404: 11,3034           00033                                    TVEC
000405: 11,3035           14033                           STODL    TVEC
000406: 11,3036           02310                                    ALPHAM
000407: 11,3037           63501                           NORM     DSQ
000408: 11,3040           00047                                    X1
000409: 11,3041           60316                           DSQ      NORM
000410: 11,3042           00051                                    S1
000411: 11,3043           54606                           PUSH     BDDV*
000412: 11,3044           50025                                    J2REQSQ,2
000413: 11,3045           77761                           VXSC
000414: 11,3046           00033                                    TVEC
000415: 11,3047           00033                           STORE    TVEC
000416: 11,3050           56070                           XAD,1    XAD,1
000417: 11,3051           00046                                    X1
000418: 11,3052           00046                                    X1
000419: 11,3053           43070                           XAD,1    BOF
000420: 11,3054           00050                                    S1
000421: 11,3055           00343                                    MOONFLAG
000422: 11,3056           23125                                    NBRANCH1
000423: 11,3057           63545                           DLOAD    DSQ                                   #   2
000424: 11,3060           00017                                    URPV                                  #  X  B-2 TO 2D
000425: 11,3061           63525                           PDDL     DSQ
000426: 11,3062           00021                                    URPV       +2                         #   2   2
000427: 11,3063           65215                           DAD      PDDL                                  #  Y  +X  B-2 TO 2D
000428: 11,3064           00003                                    2D
000429: 11,3065           45352                           SL1      DSU
000430:                                                                                                  #  Page 1323
000431: 11,3066           00003                                    2D
000432: 11,3067           41525                           PDDL     PUSH                                  #  X -Y B-2 TO 4D  COSPHI 2 TO 6D
000433: 11,3070           00023                                    COSPHI/2
000434: 11,3071           65361                           VXSC     PDDL                                  #  2COSPHI(UZ) B-3 TO 6D
000435: 11,3072           00025                                    UZ
000436: 11,3073           45316                           DSQ      DSU
000437: 11,3074           23671                                    3/5                                   #    2  2       2
000438: 11,3075           52405                           DMP      SL3                                   #  (X -Y )((5COS (PHI)-3)UR 2COS(PHI)UZ
000439: 11,3076           27756                                    5/8
000440: 11,3077           52361                           VXSC     VSU                                   #        B-3 TO 4D
000441: 11,3100           02152                                    ALPHAV
000442: 11,3101           72561                           VXSC     VSL2
000443: 11,3102           77725                           PDDL
000444: 11,3103           00017                                    URPV
000445: 11,3104           63205                           DMP      PDVL                                  #  XY B-2 TO 10D
000446: 11,3105           00021                                    URPV       +2
000447: 11,3106           02152                                    ALPHAV
000448: 11,3107           74235                           VXV      VXSC
000449: 11,3110           00025                                    UZ
000450: 11,3111           53332                           VSL3     VAD                                   #  4XY(UR X UZ) + D( 4D) B-3
000451: 11,3112           77725                           PDDL
000452: 11,3113           41301                           NORM     DMP
000453: 11,3114           00050                                    X2
000454: 11,3115           00001                                    0D                                    #  3J22R2MU/(X + Y)R
000455: 11,3116           74265                           BDDV     VXSC
000456: 11,3117           27754                                    3J22R2MU
000457: 11,3120           53257                           VSL*     VAD
000458: 11,3121           57605                                    0          -7,2
000459: 11,3122           00033                                    TVEC
000460: 11,3123           77754                           LXA,2
000461: 11,3124           02150                                    PBODY
000462:
000463: 11,3125           77600        NBRANCH1           BOV
000464: 11,3126           23127                                    +1
000465: 11,3127           53257                           VSL*     VAD
000466: 11,3130           20153                                    0          -22D,1
000467: 11,3131           02202                                    FV
000468: 11,3132           02202                           STORE    FV
000469: 11,3133           77600                           BOV
000470: 11,3134           22706                                    GOBAQUE
000471:
000472: 11,3135           72135        NBRANCH            SLOAD    LXA,1
000473: 11,3136           01501                                    DIFEQCNT
000474: 11,3137           00154                                    MPAC
000475: 11,3140           73205                           DMP      CGOTO
000476: 11,3141           27760                                    -1/12
000477: 11,3142           00155                                    MPAC
000478: 11,3143           23152                                    DIFEQTAB
000479: 11,3144           77745        COSPHIE            DLOAD
000480: 11,3145           02156                                    ALPHAV     +4
000481: 11,3146           24023                           STOVL    COSPHI/2
000482: 11,3147           11450                                    ZUNIT
000483:                                                                                                  #  Page 1324
000484: 11,3150           77650                           GOTO
000485: 11,3151           22755                                    COMTERM
000486: 11,3152           23371        DIFEQTAB           CADR     DIFEQ+0
000487: 11,3153           23375                           CADR     DIFEQ+1
000488: 11,3154           23406                           CADR     DIFEQ+2
000489: 11,3155           77214        TIMESTEP           BOF      VLOAD
000490: 11,3156           00342                                    MIDFLAG
000491: 11,3157           23206                                    RECTEST
000492: 11,3160           01535                                    RCV
000493: 11,3161           41241                           DOT      DMP
000494: 11,3162           01543                                    VCV
000495: 11,3163           02314                                    DT/2                                  #  (R.V) X (DELTA T)
000496: 11,3164           77640                           BMN
000497: 11,3165           23206                                    RECTEST
000498: 11,3166           43014                           BON      BOF
000499: 11,3167           00303                                    MOONFLAG
000500: 11,3170           23263                                    LUNSPH
000501: 11,3171           04340                                    RPQFLAG
000502: 11,3172           23260                                    EARSPH
000503: 11,3173           45145                           DLOAD    CALL
000504: 11,3174           01517                                    TET
000505: 11,3175           54110                                    LSPOS                                 #  RPQV IN MPAC
000506: 11,3176           02263                           STORE    RPQV                                  #  RPQV
000507: 11,3177           77754                           LXA,2
000508: 11,3200           02150                                    PBODY
000509: 11,3201           51445        INLUNCHK           BVSU     ABVAL
000510: 11,3202           01535                                    RCV
000511: 11,3203           50025                           DSU      BMN
000512: 11,3204           27764                                    RSPHERE
000513: 11,3205           23300                                    DOSWITCH
000514: 11,3206           51575        RECTEST            VLOAD    ABVAL                                 #  RECTIFY IF
000515: 11,3207           01521                                    TDELTAV
000516: 11,3210           77600                           BOV
000517: 11,3211           23234                                    CALLRECT
000518: 11,3212           51025                           DSU      BPL                                   #        1) EITHER TDELTAV OR TNUV EQUALS OR
000519: 11,3213           23707                                    3/4                                   #           EXCEEDS 3/4 IN MAGNITUDE
000520: 11,3214           23234                                    CALLRECT
000521: 11,3215           53615                           DAD      SL*                                   #                        OR
000522: 11,3216           23707                                    3/4
000523: 11,3217           57605                                    0          -7,2                       #        2) ABVAL(TDELTAV) EQUALS OR EXCEEDS
000524: 11,3220           45271                           DDV      DSU                                   #           .01(ABVAL(RCV))
000525: 11,3221           00013                                    10D
000526: 11,3222           27762                                    RECRATIO
000527: 11,3223           77244                           BPL      VLOAD
000528: 11,3224           23234                                    CALLRECT
000529: 11,3225           01527                                    TNUV
000530: 11,3226           45246                           ABVAL    DSU
000531: 11,3227           23707                                    3/4
000532: 11,3230           77600                           BOV
000533: 11,3231           23234                                    CALLRECT
000534:                                                                                                  #  Page 1325
000535: 11,3232           77640                           BMN
000536: 11,3233           23236                                    INTGRATE
000537: 11,3234           77624        CALLRECT           CALL
000538: 11,3235           23344                                    RECTIFY
000539: 11,3236           77775        INTGRATE           VLOAD
000540: 11,3237           01527                                    TNUV
000541: 11,3240           25120                           STOVL    ZV
000542: 11,3241           01521                                    TDELTAV
000543: 11,3242           01112                           STORE    YV
000544: 11,3243           77614                           CLEAR
000545: 11,3244           00261                                    JSWITCH
000546: 11,3245           66375        DIFEQ0             VLOAD    SSP
000547: 11,3246           01112                                    YV
000548: 11,3247           01501                                    DIFEQCNT
000549: 11,3250           00000                                    0
000550: 11,3251           16152                           STODL    ALPHAV
000551: 11,3252           11456                                    DPZERO
000552: 11,3253           02212                           STORE    H                                     #  START H AT ZERO.  GOES 0(DELT/2)DELT.
000553: 11,3254           52014                           BON      GOTO
000554: 11,3255           00301                                    JSWITCH
000555: 11,3256           23610                                    DOW..
000556: 11,3257           22430                                    ACCOMP
000557: 11,3260           52175        EARSPH             VLOAD    GOTO
000558: 11,3261           02263                                    RPQV
000559: 11,3262           23201                                    INLUNCHK
000560: 11,3263           60545        LUNSPH             DLOAD    SR2
000561: 11,3264           00013                                    10D
000562: 11,3265           50025                           DSU      BMN
000563: 11,3266           27764                                    RSPHERE
000564: 11,3267           23206                                    RECTEST
000565: 11,3270           71214                           BOF      DLOAD
000566: 11,3271           04340                                    RPQFLAG
000567: 11,3272           23300                                    DOSWITCH
000568: 11,3273           01517                                    TET
000569: 11,3274           77624                           CALL
000570: 11,3275           54115                                    LUNPOS
000571: 11,3276           77676                           VCOMP
000572: 11,3277           02263                           STORE    RPQV
000573: 11,3300           77624        DOSWITCH           CALL
000574: 11,3301           23304                                    ORIGCHNG
000575: 11,3302           77650                           GOTO
000576: 11,3303           23236                                    INTGRATE
000577: 11,3304           45020        ORIGCHNG           STQ      CALL
000578: 11,3305           02270                                    ORIGEX
000579: 11,3306           23344                                    RECTIFY
000580: 11,3307           53775                           VLOAD    VSL*
000581: 11,3310           01535                                    RCV
000582: 11,3311           57576                                    0,2
000583: 11,3312           53651                           VSU      VSL*
000584: 11,3313           02263                                    RPQV
000585:                                                                                                  #  Page 1326
000586: 11,3314           57574                                    2,2
000587: 11,3315           01503                           STORE    RRECT
000588: 11,3316           15535                           STODL    RCV
000589: 11,3317           01517                                    TET
000590: 11,3320           77624                           CALL
000591: 11,3321           54120                                    LUNVEL
000592: 11,3322           57414                           BOF      VCOMP
000593: 11,3323           00343                                    MOONFLAG
000594: 11,3324           23325                                    +1
000595: 11,3325           53715                           PDVL     VSL*
000596: 11,3326           01543                                    VCV
000597: 11,3327           57576                                    0,2
000598: 11,3330           77651                           VSU
000599: 11,3331           77657                           VSL*
000600: 11,3332           57574                                    0          +2,2
000601: 11,3333           01511                           STORE    VRECT
000602: 11,3334           01543                           STORE    VCV
000603: 11,3335           67154                           LXA,2    SXA,2
000604: 11,3336           02270                                    ORIGEX
000605: 11,3337           00052                                    QPRET
000606: 11,3340           52014                           BON      GOTO
000607: 11,3341           00303                                    MOONFLAG
000608: 11,3342           26666                                    CLRMOON
000609: 11,3343           26673                                    SETMOON
000610:                                                                                                  #  Page 1327
000611:                                                                                                  #  THE RECTIFY SUBROUTINE IS CALLED BY THE INTEGRATION PROGRAM AND OCCIASIONALLY BY THE MEASUREMENT INCORPORATION
000612:                                                                                                  #  ROUTINES TO ESTABLISH A NEW CONIC.
000613:
000614: 11,3344           77354        RECTIFY            LXA,2    VLOAD
000615: 11,3345           02150                                    PBODY
000616: 11,3346           01521                                    TDELTAV
000617: 11,3347           53257                           VSL*     VAD
000618: 11,3350           57605                                    0          -7,2
000619: 11,3351           01535                                    RCV
000620: 11,3352           01503                           STORE    RRECT
000621: 11,3353           25535                           STOVL    RCV
000622: 11,3354           01527                                    TNUV
000623: 11,3355           53257                           VSL*     VAD
000624: 11,3356           57602                                    0          -4,2
000625: 11,3357           01543                                    VCV
000626: 11,3360           01511        MINIRECT           STORE    VRECT
000627: 11,3361           25543                           STOVL    VCV
000628: 11,3362           11456                                    ZEROVEC
000629: 11,3363           01521                           STORE    TDELTAV
000630: 11,3364           15527                           STODL    TNUV
000631: 11,3365           11456                                    ZEROVEC
000632: 11,3366           01551                           STORE    TC
000633: 11,3367           01553                           STORE    XKEP
000634: 11,3370           77616                           RVQ
000635:
000636:                                                                                                  #  Page 1328
000637:                                                                                                  #  THE THREE DIFEQ ROUTINES -- DIFEQ+0, DIFEQ+12, DIFEQ+24 -- ARE ENTERED TO PROCESS THE CONTRIBUTIONS AT THE
000638:                                                                                                  #  BEGINNING, MIDDLE, AND END OF THE TIMESTEP, RESPECTIVELY.  THE UPDATING IS DONE BY THE NYSTROM METHOD.
000639:
000640: 11,3371           64575        DIFEQ+0            VLOAD    VSR3
000641: 11,3372           02202                                    FV
000642: 11,3373           36166                           STCALL   PHIV
000643: 11,3374           23551                                    DIFEQCOM
000644: 11,3375           74575        DIFEQ+1            VLOAD    VSR1
000645: 11,3376           02202                                    FV
000646: 11,3377           53206                           PUSH     VAD
000647: 11,3400           02166                                    PHIV
000648: 11,3401           26174                           STOVL    PSIV
000649: 11,3402           53362                           VSR1     VAD
000650: 11,3403           02166                                    PHIV
000651: 11,3404           36166                           STCALL   PHIV
000652: 11,3405           23551                                    DIFEQCOM
000653: 11,3406           57345        DIFEQ+2            DLOAD    DMPR
000654: 11,3407           02212                                    H
000655: 11,3410           23717                                    DP2/3
000656: 11,3411           74206                           PUSH     VXSC
000657: 11,3412           02166                                    PHIV
000658: 11,3413           53372                           VSL1     VAD
000659: 11,3414           01120                                    ZV
000660: 11,3415           53361                           VXSC     VAD
000661: 11,3416           02212                                    H
000662: 11,3417           01112                                    YV
000663: 11,3420           25112                           STOVL    YV
000664: 11,3421           02202                                    FV
000665: 11,3422           53322                           VSR3     VAD
000666: 11,3423           02174                                    PSIV
000667: 11,3424           76561                           VXSC     VSL1
000668: 11,3425           77655                           VAD
000669: 11,3426           01120                                    ZV
000670: 11,3427           01120                           STORE    ZV
000671: 11,3430           45014                           BOFF     CALL
000672: 11,3431           00341                                    JSWITCH
000673: 11,3432           23502                                    ENDSTATE
000674: 11,3433           56741                                    GRP2PC
000675: 11,3434           77354                           LXA,2    VLOAD
000676: 11,3435           01102                                    COLREG
000677: 11,3436           01120                                    ZV
000678: 11,3437           77732                           VSL3                                           #  ADJUST W-POSITION FOR STORAGE
000679: 11,3440           12467                           STORE    W          +54D,2
000680: 11,3441           77775                           VLOAD
000681: 11,3442           01112                                    YV
000682: 11,3443           40132                           VSL3     BOV
000683: 11,3444           23574                                    WMATEND
000684: 11,3445           12401                           STORE    W,2
000685:
000686: 11,3446           77624                           CALL
000687: 11,3447           56741                                    GRP2PC
000688:                                                                                                  #  Page 1329
000689: 11,3450           66354                           LXA,2    SSP
000690: 11,3451           01102                                    COLREG
000691: 11,3452           00052                                    S2
000692: 11,3453           00000                                    0
000693: 11,3454           67114                           INCR,2   SXA,2
000694: 11,3455           00006                                    6
000695: 11,3456           01111                                    YV
000696: 11,3457           45104                           TIX,2    CALL
000697: 11,3460           23545                                    RELOADSV
000698: 11,3461           56741                                    GRP2PC
000699: 11,3462           67154                           LXA,2    SXA,2
000700: 11,3463           01111                                    YV
000701: 11,3464           01102                                    COLREG
000702:
000703: 11,3465           77624        NEXTCOL            CALL
000704: 11,3466           56741                                    GRP2PC
000705: 11,3467           76754                           LXA,2    VLOAD*
000706: 11,3470           01102                                    COLREG
000707: 11,3471           75376                                    W,2
000708: 11,3472           77722                           VSR3                                           #  ADJUST W-POSITION FOR INTEGRATION
000709: 11,3473           01112                           STORE    YV
000710: 11,3474           76173                           VLOAD*   AXT,1
000711: 11,3475           75310                                    W          +54D,2
000712: 11,3476           00000                                    0
000713: 11,3477           77722                           VSR3                                           #  ADJUST W-VELOCITY FOR INTEGRATION
000714: 11,3500           35120                           STCALL   ZV
000715: 11,3501           23245                                    DIFEQ0
000716:
000717: 11,3502           77200        ENDSTATE           BOV      VLOAD
000718: 11,3503           22706                                    GOBAQUE
000719: 11,3504           01120                                    ZV
000720: 11,3505           25527                           STOVL    TNUV
000721: 11,3506           01112                                    YV
000722: 11,3507           01521                           STORE    TDELTAV
000723: 11,3510           43014                           BON      BOFF
000724: 11,3511           04715                                    MIDAVFLG
000725: 11,3512           27653                                    CKMID2                                #  CHECK FOR MID2 BEFORE GOING TO TIMEINC
000726: 11,3513           01756                                    DIM0FLAG
000727: 11,3514           27234                                    TESTLOOP
000728: 11,3515           77776                           EXIT
000729: 11,3516           05301                           TC       PHASCHNG
000730: 11,3517           04022                           OCT      04022                                 #  PHASE 1
000731: 11,3520           05435                           TC       UPFLAG                                #  PHASE CHANGE HAS OCCURRED BETWEEN
000732: 11,3521           00236                           ADRES    REINTFLG                              #  INTSTALL AND INTWAKE
000733: 11,3522           06006                           TC       INTPRET
000734: 11,3523           77731                           SSP
000735: 11,3524           00053                                    QPRET
000736: 11,3525           23532                                    AMOVED
000737: 11,3526           52014                           BON      GOTO
000738: 11,3527           01714                                    VINTFLAG
000739:                                                                                                  #  Page 1330
000740: 11,3530           26636                                    ATOPCSM
000741: 11,3531           26711                                    ATOPLEM
000742: 11,3532           66214        AMOVED             SET      SSP
000743: 11,3533           00061                                    JSWITCH
000744: 11,3534           01103                                    COLREG
000745: 11,3535           77741                           DEC      -30        B-14
000746: 11,3536           66214                           BOFF     SSP
000747: 11,3537           01755                                    D6OR9FLG
000748: 11,3540           23465                                    NEXTCOL
000749: 11,3541           01103                                    COLREG
000750: 11,3542           77717                           DEC      -48        B-14
000751: 11,3543           77650                           GOTO
000752: 11,3544           23465                                    NEXTCOL
000753:
000754: 11,3545           77745        RELOADSV           DLOAD                                          #  RELOAD TEMPORARY STATE VECTOR
000755: 11,3546           01101                                    TDEC                                  #  FROM PERMANENT IN CASE OF
000756: 11,3547           34041                           STCALL   TDEC1
000757: 11,3550           27120                                    INTEGRV2                              #  BY STARTING AT INTEGRV2.
000758: 11,3551           43345        DIFEQCOM           DLOAD    DAD                                   #  INCREMENT H AND DIFEQCNT.
000759: 11,3552           02314                                    DT/2
000760: 11,3553           02212                                    H
000761: 11,3554           66110                           INCR,1   SXA,1
000762: 11,3555           77763                           DEC      -12        B-14
000763: 11,3556           01500                                    DIFEQCNT                              #  DIFEQCNT SET FOR NEXT ENTRY.
000764: 11,3557           02212                           STORE    H
000765: 11,3560           74561                           VXSC     VSR1
000766: 11,3561           02202                                    FV
000767: 11,3562           74255                           VAD      VXSC
000768: 11,3563           01120                                    ZV
000769: 11,3564           02212                                    H
000770: 11,3565           77655                           VAD
000771: 11,3566           01112                                    YV
000772: 11,3567           02152                           STORE    ALPHAV
000773: 11,3570           52014                           BON      GOTO
000774: 11,3571           00301                                    JSWITCH
000775: 11,3572           23610                                    DOW..
000776: 11,3573           22410                                    FBR3
000777:
000778: 11,3574           43014        WMATEND            CLEAR    CLEAR
000779: 11,3575           01676                                    DIM0FLAG                              #  DON'T INTEGRATE W THIS TIME
000780: 11,3576           01671                                    ORBWFLAG                              #  INVALIDATE W
000781: 11,3577           77614                           CLEAR
000782: 11,3600           02676                                    RENDWFLG
000783: 11,3601           77414                           SET      EXIT
000784: 11,3602           01472                                    STATEFLG                              #  PICK UP STATE VECTOR UPDATE
000785: 11,3603           05537                           TC       ALARM
000786: 11,3604           00421                           OCT      421
000787: 11,3605           06006                           TC       INTPRET
000788:                                                                                                  #  Page 1331
000789: 11,3606           77650                           GOTO
000790: 11,3607           27234                                    TESTLOOP                              #  FINISH INTEGRATING STATE VECTOR
000791:
000792:                                                                                                  #  Page 1332
000793:                                                                                                  #  ORBITAL ROUTINE FOR EXTRAPOLATION OF THE W MATRIX.  IT COMPUTES THE SECOND DERIVATIVE OF EACH COLUMN POSITION
000794:                                                                                                  #  VECTOR OF THE MATRIX AND CALLS THE NYSTROM INTEGRATION ROUTINES TO SOLVE THE DIFFERENTIAL EQUATIONS.  THE PROGRAM
000795:                                                                                                  #  USES A TABLE OF VEHICL POSITION VECTORS COMPUTED DURING THE INTEGRATION OF THE VEHICLE'S POSITION AND VELOCITY.
000796:
000797: 11,3610           70754        DOW..              LXA,2    DLOAD*
000798: 11,3611           02150                                    PBODY
000799: 11,3612           50041                                    MUEARTH,2
000800: 11,3613           36210                           STCALL   BETAM
000801: 11,3614           23636                                    DOW..1
000802: 11,3615           02202                           STORE    FV
000803: 11,3616           62014                           BOF      INCR,1
000804: 11,3617           00342                                    MIDFLAG
000805: 11,3620           23135                                    NBRANCH
000806: 11,3621           77771                           DEC      -6         B-14
000807: 11,3622           70744                           LXC,2    DLOAD*
000808: 11,3623           02150                                    PBODY
000809: 11,3624           50043                                    MUEARTH    -2,2
000810: 11,3625           36210                           STCALL   BETAM
000811: 11,3626           23636                                    DOW..1
000812: 11,3627           50414                           BON      VSR6
000813: 11,3630           00303                                    MOONFLAG
000814: 11,3631           23632                                    +1
000815: 11,3632           77655                           VAD
000816: 11,3633           02202                                    FV
000817: 11,3634           36202                           STCALL   FV
000818: 11,3635           23135                                    NBRANCH
000819: 11,3636           60575        DOW..1             VLOAD    VSR4
000820: 11,3637           02152                                    ALPHAV
000821: 11,3640           53513                           PDVL*    UNIT
000822: 11,3641           02217                                    VECTAB,1
000823: 11,3642           46315                           PDVL     VPROJ
000824: 11,3643           02152                                    ALPHAV
000825: 11,3644           52361                           VXSC     VSU
000826: 11,3645           23707                                    3/4
000827: 11,3646           60325                           PDDL     NORM
000828: 11,3647           00045                                    36D
000829: 11,3650           00052                                    S2
000830: 11,3651           63406                           PUSH     DSQ
000831: 11,3652           77605                           DMP
000832: 11,3653           65301                           NORM     PDDL
000833: 11,3654           00043                                    34D
000834: 11,3655           02210                                    BETAM
000835: 11,3656           56342                           SR1      DDV
000836: 11,3657           77761                           VXSC
000837: 11,3660           57154                           LXA,2    XAD,2
000838: 11,3661           00051                                    S2
000839: 11,3662           00051                                    S2
000840: 11,3663           57074                           XAD,2    XAD,2
000841: 11,3664           00051                                    S2
000842: 11,3665           00042                                    34D
000843: 11,3666           43457                           VSL*     RVQ
000844:                                                                                                  #  Page 1333
000845: 11,3667           57606                                    0          -8D,2
000846:
000847: 11,2000                                           SETLOC   ORBITAL1
000848: 11,2000                                           BANK
000849:
000850: 11,3670           04631 23146  3/5                2DEC     .6         B-2
000851: 11,3672           14000 00000  THREE/8            2DEC     .375
000852: 11,3674           02314 31463  .3D                2DEC     .3         B-2
000853: 11,3676           01400 00000  3/64               2DEC     3          B-6
000854: 11,3700           10000 00000  DP1/4              2DEC     .25
000855: 11,3702  11,3700               DQUARTER           EQUALS   DP1/4
000856: 11,3702  11,3700               POS1/4             EQUALS   DP1/4
000857: 11,3702           03000 00000  3/32               2DEC     3          B-5
000858: 11,3704           36000 00000  15/16              2DEC     15.        B-4
000859: 11,3706           30000 00000  3/4                2DEC     3.0        B-2
000860: 11,3710           22525 12525  7/12               2DEC     .5833333333
000861: 11,3712           22000 00000  9/16               2DEC     9          B-4
000862: 11,3714           01200 00000  5/128              2DEC     5          B-7
000863: 11,3716  04,3455               DPZERO             EQUALS   ZEROVEC
000864: 11,3716           25252 25253  DP2/3              2DEC     .6666666667
000865: 11,3720  11,3716               2/3                EQUALS   DP2/3
000866: 11,3720           00027        OCT27              OCT      27
000867:
000868: 13,3715                                           BANK     13
000869: 13,2000                                           SETLOC   ORBITAL2
000870: 13,2000                                           BANK
000871:                                                                                                  #  IT IS VITAL THAT THE FOLLOWING CONSTANTS NOT BE SHUFFLED
000872: 13,3715           77764                           DEC      -11        B-14
000873: 13,3716           77775                           DEC      -2         B-14
000874: 13,3717           77766                           DEC      -9         B-14
000875: 13,3720           77771                           DEC      -6         B-14
000876: 13,3721           77775                           DEC      -2         B-14
000877: 13,3722           77775                           DEC      -2         B-14
000878: 13,3723           00000                           DEC      0          B-14
000879: 13,3724           77763                           DEC      -12        B-14
000880: 13,3725           77766                           DEC      -9         B-14
000881: 13,3726           77773                           DEC      -4         B-14
000882: 13,3727           77770        ASCALE             DEC      -7         B-14
000883: 13,3730           77771                           DEC      -6         B-14
000884:                                                                                                  #  Page 1334
000885: 13,3731           27446 14620                     2DEC*    1.32715445 E16        B-54*           #  S
000886: 13,3733           16471 01352                     2DEC*    4.9027780  E8         B-30*           #  M
000887: 13,3735           22437 16067  MUEARTH            2DEC*    3.986032   E10        B-36*
000888: 13,3737           00000 00000                     2DEC     0          B-28
000889: 13,3741           02302 24736  J4REQ/J3           2DEC*    .4991607391 E7         B-26*
000890: 13,3743           00000 00000                     2DEC     0          B-28
000891: 13,3745           77776 53032  2J3RE/J2           2DEC*    -.1355426363 E5         B-27*
000892: 13,3747           10407 05344                     2DEC*    .3067493316 E18        B-60*
000893: 13,3751           13710 35320  J2REQSQ            2DEC*    1.75501139 E21        B-72*
000894: 13,3753           12160 12124  3J22R2MU           2DEC*    9.20479048 E16        B-58*
000895:
000896: 13,3755           24000 00000  5/8                2DEC     5          B-3
000897: 13,3757           74631 63145  -1/12              2DEC     -.1
000898: 13,3761  13,3733               MUM                =        MUEARTH    -2
000899: 13,3761           00243 32703  RECRATIO           2DEC     .01
000900: 13,3763           03654 21000  RSPHERE            2DEC     64373.76   E3         B-29
000901: 13,3765           03654 21000  RDM                2DEC     16093.44   E3         B-27
000902: 13,3767           04627 25200  RDE                2DEC     80467.20   E3         B-29
000903:
000904: 13,3771                        RATT               EQUALS   00
000905: 13,3771                        VATT               EQUALS   6D
000906: 13,3771                        TAT                EQUALS   12D
000907: 13,3771                        RATT1              EQUALS   14D
000908: 13,3771                        VATT1              EQUALS   20D
000909: 13,3771                        MU(P)              EQUALS   26D
000910: 13,3771                        TDEC1              EQUALS   32D
000911: 13,3771                        URPV               EQUALS   14D
000912: 13,3771  0000022               COSPHI/2           EQUALS   URPV       +4
000913: 13,3771                        UZ                 EQUALS   20D
000914: 13,3771                        TVEC               EQUALS   26D
000915:
000916:
000917:

End of include-file ORBITAL_INTEGRATION.agc.  Parent file is MAIN.agc


