
Source Code


000002:                                                                                                  ## Copyright:   Public domain.
000003:                                                                                                  ## Filename:    ORBITAL_INTEGRATION.agc
000004:                                                                                                  ## Purpose:     Part of the source code for Colossus, build 249.
000005:                                                                                                  ##              It is part of the source code for the Command Module's (CM)
000006:                                                                                                  ##              Apollo Guidance Computer (AGC), for Apollo 9.
000007:                                                                                                  ## Assembler:   yaYUL
000008:                                                                                                  ## Reference:   p. 1302
000009:                                                                                                  ## Contact:     Ron Burkey <info@sandroid.org>.
000010:                                                                                                  ## Website:     www.ibiblio.org/apollo.
000011:                                                                                                  ## Mod history: 08/29/04 RSB.   Began adapting from correspoinding Luminary131 file.
000012:                                                                                                  ##              2017-01-06 RSB  Page numbers now agree with those on the
000013:                                                                                                  ##                              original harcopy, as opposed to the PDF page
000014:                                                                                                  ##                              numbers in 1701.pdf.
000015:                                                                                                  ##              2017-01-15 RSB  Cross-diff'd comment text (not whitespace)
000016:                                                                                                  ##                              vs the already-proofed corresponding Colossus
000017:                                                                                                  ##                              237 and Comanche 55 source-code files
000018:                                                                                                  ##                              and corrected errors found.  The comment-text
000019:                                                                                                  ##                              ended up being identical to Colossus 237, but
000020:                                                                                                  ##                              differing from Comanche 55.
000021:                                                                                                  ##
000022:                                                                                                  ## The contents of the "Colossus249" files, in general, are transcribed
000023:                                                                                                  ## from a scanned copy of the program listing.  Notations on this
000024:                                                                                                  ## document read, in part:
000025:                                                                                                  ##
000026:                                                                                                  ##      Assemble revision 249 of AGC program Colossus by NASA
000027:                                                                                                  ##      2021111-041.  October 28, 1968.
000028:                                                                                                  ##
000029:                                                                                                  ##      This AGC program shall also be referred to as
000030:                                                                                                  ##                              Colossus 1A
000031:                                                                                                  ##
000032:                                                                                                  ##      Prepared by
000033:                                                                                                  ##                      Massachusetts Institute of Technology
000034:                                                                                                  ##                      75 Cambridge Parkway
000035:                                                                                                  ##                      Cambridge, Massachusetts
000036:                                                                                                  ##      under NASA contract NAS 9-4065.
000037:                                                                                                  ##
000038:                                                                                                  ## Refer directly to the online document mentioned above for further information.
000039:                                                                                                  ## Please report any errors (relative to the scanned pages) to info@sandroid.org.
000040:                                                                                                  ##
000041:                                                                                                  ## In some cases, where the source code for Luminary 131 overlaps that of
000042:                                                                                                  ## Colossus 249, this code is instead copied from the corresponding Luminary 131
000043:                                                                                                  ## source file, and then is proofed to incorporate any changes.
000044:


000046:                                                                                                  #  DELETE
000047: 13,3715                                           BANK     13
000048: 11,2000                                           SETLOC   ORBITAL
000049: 11,2000                                           BANK
000050: 11,2310                                           COUNT    11/ORBIT
000051:
000052:                                                                                                  #  DELETE
000053: 11,2310           40354        KEPPREP            LXA,2    SETPD
000054: 11,2311           02150                                    PBODY
000055: 11,2312           00001                                    0
000056: 11,2313           75543                           DLOAD*   SQRT                                  #  SQRT(MU) (+18 OR +15)         0D      PL 2D
000057: 11,2314           50041                                    MUEARTH,2
000058: 11,2315           53515                           PDVL     UNIT                                  #                                        PL 8D
000059: 11,2316           01535                                    RCV
000060: 11,2317           60325                           PDDL     NORM                                  #  NORM R (+29 OR +27 - N1)      2D      PL 4D
000061: 11,2320           00045                                    36D
000062: 11,2321           00047                                    X1
000063: 11,2322           77715                           PDVL
000064: 11,2323           65241                           DOT      PDDL                                  #  F*SQRT(MU) (+7 OR +5)         4D      PL 6D
000065: 11,2324           01543                                    VCV
000066: 11,2325           02312                                    TAU.                                  #  (+28)
000067: 11,2326           60225                           DSU      NORM
000068: 11,2327           01551                                    TC
000069: 11,2330           00051                                    S1
000070: 11,2331           77742                           SR1
000071: 11,2332           65271                           DDV      PDDL
000072: 11,2333           00003                                    2D
000073: 11,2334           41405                           DMP      PUSH                                  #  FS (+6 +N1-N2)                6D      PL 8D
000074: 11,2335           00005                                    4D
000075: 11,2336           65316                           DSQ      PDDL                                  #  (FS)SQ (+12 +2(N1-N2))        8D      PL 10D
000076: 11,2337           00005                                    4D
000077: 11,2340           64716                           DSQ      PDDL*                                 #  SSQ/MU (-2OR +2(N1-N2))       10D     PL 12D
000078: 11,2341           50041                                    MUEARTH,2
000079: 11,2342           40442                           SR3      SR4
000080: 11,2343           47515                           PDVL     VSQ                                   #  PREALIGN MU (+43 OR +37)      12D     PL 14D
000081: 11,2344           01543                                    VCV
000082: 11,2345           44205                           DMP      BDSU                                  #                                        PL 12D
000083: 11,2346           00045                                    36D
000084: 11,2347           41271                           DDV      DMP                                   #                                        PL 10D
000085: 11,2350           00003                                    2D                                    #  -(1/R-ALPHA) (+12 +3N1-2N2)
000086: 11,2351           53605                           DMP      SL*
000087: 11,2352           23717                                    DP2/3
000088: 11,2353           20176                                    0          -3,1                       #  10L(1/R-ALPHA) (+13 +2(N1-N2))
000089: 11,2354           43260                           XSU,1    DAD                                   #  2(FS)SQ - ETCETRA                     PL 8D
000090: 11,2355           00050                                    S1                                    #  X1 = N2-N1
000091: 11,2356           45257                           SL*      DSU                                   #  -FS+2(FS)SQ ETC (+6 +N1-N2)           PL 6D
000092: 11,2357           20211                                    8D,1
000093: 11,2360           41205                           DMP      DMP
000094: 11,2361           00001                                    0D
000095: 11,2362           00005                                    4D
000096: 11,2363           53657                           SL*      SL*


000098: 11,2364           20211                                    8D,1
000099: 11,2365           20201                                    0,1                                   #  S(-FS(1-2FS)-1/6...) (+17 OR +16)
000100: 11,2366           65215                           DAD      PDDL                                  #                                        PL 6D
000101: 11,2367           01553                                    XKEP
000102: 11,2370           53605                           DMP      SL*                                   #  S(+17 OR +16)
000103: 11,2371           00001                                    0D
000104: 11,2372           20202                                    1,1
000105: 11,2373           43204                           BOVB     DAD
000106: 11,2374           57343                                    TCDANZIG
000107: 11,2375           77626                           STADR
000108: 11,2376           75471                           STORE    XKEPNEW
000109: 11,2377           74020                           STQ      AXC,1
000110: 11,2400           02270                                    KEPRTN
000111: 11,2401           00012                           DEC      10         B-14
000112: 11,2402           74014                           BON      AXC,1
000113: 11,2403           00303                                    MOONFLAG
000114: 11,2404           24000                                    KEPLERN
000115: 11,2405           00002                           DEC      2          B-14
000116: 11,2406           77650                           GOTO
000117: 11,2407           24000                                    KEPLERN
000118:


000120: 11,2410           66350        FBR3               LXA,1    SSP
000121: 11,2411           01500                                    DIFEQCNT
000122: 11,2412           00051                                    S1
000123: 11,2413           77762                           DEC      -13        B-14
000124: 11,2414           54345                           DLOAD    SR
000125: 11,2415           02314                                    DT/2
000126: 11,2416           20612                                    9D
000127: 11,2417           61500                           TIX,1    ROUND
000128: 11,2420           22421                                    +1
000129: 11,2421           43206                           PUSH     DAD
000130: 11,2422           01551                                    TC
000131: 11,2423           16312                           STODL    TAU.
000132: 11,2424           77615                           DAD
000133: 11,2425           01517                                    TET
000134: 11,2426           35517                           STCALL   TET
000135: 11,2427           22310                                    KEPPREP
000136:


000138:                                                                                                  #  AGC ROUTINE TO COMPUTE ACCELERATION COMPONENTS.
000139:
000140: 11,2430           73150        ACCOMP             LXA,1    LXA,2
000141: 11,2431           02150                                    PBODY
000142: 11,2432           02150                                    PBODY
000143: 11,2433           77775                           VLOAD
000144: 11,2434           11456                                    ZEROVEC
000145: 11,2435           26202                           STOVL    FV
000146: 11,2436           02152                                    ALPHAV
000147: 11,2437           53257                           VSL*     VAD
000148: 11,2440           57605                                    0          -7,2
000149: 11,2441           01535                                    RCV
000150: 11,2442           02160                           STORE    BETAV
000151: 11,2443           65014                           BOF      XCHX,2
000152: 11,2444           01756                                    DIM0FLAG
000153: 11,2445           22452                                    +5
000154: 11,2446           01500                                    DIFEQCNT
000155: 11,2447           12217                           STORE    VECTAB,2
000156: 11,2450           77724                           XCHX,2
000157: 11,2451           01500                                    DIFEQCNT
000158: 11,2452           53575                           VLOAD    UNIT
000159: 11,2453           02152                                    ALPHAV
000160: 11,2454           16152                           STODL    ALPHAV
000161: 11,2455           00045                                    36D
000162: 11,2456           02310                           STORE    ALPHAM
000163: 11,2457           77624                           CALL
000164: 11,2460           22562                                    GAMCOMP
000165: 11,2461           66175                           VLOAD    SXA,1
000166: 11,2462           02160                                    BETAV
000167: 11,2463           00051                                    S2
000168: 11,2464           16152                           STODL    ALPHAV
000169: 11,2465           02210                                    BETAM
000170: 11,2466           02310                           STORE    ALPHAM
000171: 11,2467           71214                           BOF      DLOAD
000172: 11,2470           00342                                    MIDFLAG
000173: 11,2471           22725                                    OBLATE
000174: 11,2472           01517                                    TET
000175: 11,2473           77624                           CALL
000176: 11,2474           54110                                    LSPOS
000177: 11,2475           72174                           AXT,2    LXA,1
000178: 11,2476           00002                                    2
000179: 11,2477           00051                                    S2
000180: 11,2500           77614                           BOF
000181: 11,2501           00343                                    MOONFLAG
000182: 11,2502           22505                                    +3
000183: 11,2503           77076                           VCOMP    AXT,2
000184: 11,2504           00000                                    0
000185: 11,2505           02160                           STORE    BETAV
000186: 11,2506           26263                           STOVL    RPQV


000188: 11,2507           00003                                    2D
000189: 11,2510           02300                           STORE    RPSV
000190: 11,2511           45335                           SLOAD    DSU
000191: 11,2512           01012                                    MODREG
000192: 11,2513           23721                                    OCT27
000193: 11,2514           43030                           BHIZ     BOF
000194: 11,2515           22520                                    +3
000195: 11,2516           01756                                    DIM0FLAG
000196: 11,2517           22534                                    GETRPSV
000197: 11,2520           74375                           VLOAD    VXSC
000198: 11,2521           02152                                    ALPHAV
000199: 11,2522           02310                                    ALPHAM
000200: 11,2523           52257                           VSR*     VSU
000201: 11,2524           57175                                    1,2
000202: 11,2525           02160                                    BETAV
000203: 11,2526           77724                           XCHX,2
000204: 11,2527           01500                                    DIFEQCNT
000205: 11,2530           12225                           STORE    VECTAB     +6,2
000206: 11,2531           02272                           STORE    RQVV
000207: 11,2532           77724                           XCHX,2
000208: 11,2533           01500                                    DIFEQCNT
000209: 11,2534           62175        GETRPSV            VLOAD    INCR,1
000210: 11,2535           02263                                    RPQV
000211: 11,2536           00004                                    4
000212: 11,2537           43014                           CLEAR    BOF
000213: 11,2540           04260                                    RPQFLAG
000214: 11,2541           00343                                    MOONFLAG
000215: 11,2542           22547                                    +5
000216: 11,2543           53261                           VSR      VAD
000217: 11,2544           20612                                    9D
000218: 11,2545           02300                                    RPSV
000219: 11,2546           02300                           STORE    RPSV
000220: 11,2547           77624                           CALL
000221: 11,2550           22562                                    GAMCOMP
000222: 11,2551           62174                           AXT,2    INCR,1
000223: 11,2552           00004                                    4
000224: 11,2553           00004                                    4
000225: 11,2554           77775                           VLOAD
000226: 11,2555           02300                                    RPSV
000227: 11,2556           36160                           STCALL   BETAV
000228: 11,2557           22562                                    GAMCOMP
000229: 11,2560           77650                           GOTO
000230: 11,2561           22725                                    OBLATE
000231: 11,2562           74575        GAMCOMP            VLOAD    VSR1
000232: 11,2563           02160                                    BETAV
000233: 11,2564           40236                           VSQ      SETPD
000234: 11,2565           00001                                    0
000235: 11,2566           61501                           NORM     ROUND
000236: 11,2567           00040                                    31D
000237: 11,2570           60325                           PDDL     NORM                                  #  NORMED B SQUARED TO PD LIST


000239: 11,2571           02310                                    ALPHAM                                #  NORMALIZE (LESS ONE) LENGTH OF ALPHA
000240: 11,2572           00041                                    32D                                   #  SAVING NORM SCALE FACTOR IN X1
000241: 11,2573           63342                           SR1      PDVL
000242: 11,2574           02160                                    BETAV                                 #  C(PDL+2) = ALMOST NORMED ALPHA
000243: 11,2575           77656                           UNIT
000244: 11,2576           16160                           STODL    BETAV
000245: 11,2577           00045                                    36D
000246: 11,2600           02210                           STORE    BETAM
000247: 11,2601           55301                           NORM     BDDV                                  #  FORM NORMALIZED QUOTIENT ALPHAM/BETAM
000248: 11,2602           00042                                    33D
000249: 11,2603           41562                           SR1R     PUSH                                  #  C(PDL+2) = ALMOST NORMALIZED RHO.
000250: 11,2604           77743                           DLOAD*
000251: 11,2605           27730                                    ASCALE,1
000252: 11,2606           00051                           STORE    S1
000253: 11,2607           57124                           XCHX,2   XAD,2
000254: 11,2610           00050                                    S1
000255: 11,2611           00040                                    32D
000256: 11,2612           71264                           XSU,2    DLOAD
000257: 11,2613           00041                                    33D
000258: 11,2614           00003                                    2D
000259: 11,2615           65057                           SR*      XCHX,2
000260: 11,2616           57177                                    0          -1,2
000261: 11,2617           00050                                    S1
000262: 11,2620           74406                           PUSH     SR1R                                  #  RHO/4 TO 4D
000263: 11,2621           50315                           PDVL     DOT
000264: 11,2622           02152                                    ALPHAV
000265: 11,2623           02160                                    BETAV
000266: 11,2624           44372                           SL1R     BDSU                                  #  (RHO/4) - 2(ALPHAV/2.BETAV/2)
000267: 11,2625           57206                           PUSH     DMPR                                  #  TO PDL+6
000268: 11,2626           00005                                    4
000269: 11,2627           77752                           SL1
000270: 11,2630           43206                           PUSH     DAD
000271: 11,2631           23701                                    DQUARTER
000272: 11,2632           75406                           PUSH     SQRT
000273: 11,2633           41475                           DMPR     PUSH
000274: 11,2634           00013                                    10D
000275: 11,2635           43352                           SL1      DAD
000276: 11,2636           23701                                    DQUARTER
000277: 11,2637           43325                           PDDL     DAD                                   #  (1/4)+2((Q+1)/4)      TO PD+14D
000278: 11,2640           00013                                    10D
000279: 11,2641           11454                                    HALFDP
000280: 11,2642           72475                           DMPR     SL1
000281: 11,2643           00011                                    8D
000282: 11,2644           56215                           DAD      DDV
000283: 11,2645           23673                                    THREE/8
000284: 11,2646           00017                                    14D
000285: 11,2647           74275                           DMPR     VXSC
000286: 11,2650           00007                                    6
000287: 11,2651           02160                                    BETAV                                 #                -
000288: 11,2652           64515                           PDVL     VSR3                                  #  (G/2)(C(PD+4))B/2 TO PD+16D


000290: 11,2653           02152                                    ALPHAV
000291: 11,2654           41455                           VAD      PUSH                                  #  A12 + C(PD+16D) TO PD+16D
000292: 11,2655           41345                           DLOAD    DMP
000293: 11,2656           00001                                    0
000294: 11,2657           00015                                    12D                                   #  -
000295: 11,2660           61501                           NORM     ROUND
000296: 11,2661           00037                                    30D
000297: 11,2662           40665                           BDDV     DMP*
000298: 11,2663           00003                                    2
000299: 11,2664           50041                                    MUEARTH,2
000300: 11,2665           74276                           DCOMP    VXSC
000301: 11,2666           57124                           XCHX,2   XAD,2
000302: 11,2667           00050                                    S1
000303: 11,2670           00051                                    S2
000304: 11,2671           55064                           XSU,2    XSU,2
000305: 11,2672           00036                                    30D
000306: 11,2673           00037                                    31D
000307: 11,2674           77600                           BOV                                            #  CLEAR OVIND
000308: 11,2675           22676                                    +1
000309: 11,2676           65057                           VSR*     XCHX,2
000310: 11,2677           57177                                    0          -1,2
000311: 11,2700           00050                                    S1
000312: 11,2701           77655                           VAD
000313: 11,2702           02202                                    FV
000314: 11,2703           02202                           STORE    FV
000315: 11,2704           43400                           BOV      RVQ                                   #  RETURN IF NO OVERFLOW
000316: 11,2705           22706                                    +1
000317: 11,2706           54345        GOBAQUE            DLOAD    SR
000318: 11,2707           02212                                    H
000319: 11,2710           20612                                    9D
000320: 11,2711           44206                           PUSH     BDSU
000321: 11,2712           01551                                    TC
000322: 11,2713           16312                           STODL    TAU.
000323: 11,2714           01517                                    TET
000324: 11,2715           45425                           DSU      STADR
000325: 11,2716           42260                           STCALL   TET
000326: 11,2717           22310                                    KEPPREP
000327: 11,2720           77624                           CALL
000328: 11,2721           23344                                    RECTIFY
000329: 11,2722           77614                           SETGO
000330: 11,2723           04020                                    RPQFLAG
000331: 11,2724           27234                                    TESTLOOP
000332:


000334:                                                                                                  #  THE OBLATE ROUTINE COMPUTES THE ACCELERATION DUE TO OBLATENESS.  IT USES THE UNIT OF THE VEHICLE
000335:                                                                                                  #  POSITION VECTOR FOUND IN ALPHAV AND THE DISTANCE TO THE CENTER IN ALPHAM.  THIS IS ADDED TO THE SUM OF THE
000336:                                                                                                  #  DISTURBING ACCELERATIONS IN FV AND THE PROPER DIFEQ STAGE IS CALLED VIA X1.
000337:
000338: 11,2725           71354        OBLATE             LXA,2    DLOAD
000339: 11,2726           02150                                    PBODY
000340: 11,2727           02310                                    ALPHAM
000341: 11,2730           44601                           SETPD    DSU*
000342: 11,2731           00001                                    0
000343: 11,2732           50007                                    RDE,2
000344: 11,2733           43044                           BPL      BOF                                   #  GET URPV
000345: 11,2734           23135                                    NBRANCH
000346: 11,2735           00343                                    MOONFLAG
000347: 11,2736           23144                                    COSPHIE
000348: 11,2737           65375                           VLOAD    PDDL
000349: 11,2740           02152                                    ALPHAV
000350: 11,2741           01517                                    TET
000351: 11,2742           45125                           PDDL     CALL
000352: 11,2743           23671                                    3/5
000353: 11,2744           55366                                    R-TO-RP
000354: 11,2745           00017                           STORE    URPV
000355: 11,2746           47375                           VLOAD    VXV
000356: 11,2747           02012                                    504LM
000357: 11,2750           11450                                    ZUNIT
000358: 11,2751           61255                           VAD      VXM
000359: 11,2752           11450                                    ZUNIT
000360: 11,2753           00025                                    MMATRIX
000361: 11,2754           77656                           UNIT                                           #  POSSIBLY UNNECESSARY
000362: 11,2755           00025        COMTERM            STORE    UZ
000363: 11,2756           57345                           DLOAD    DMPR
000364: 11,2757           00023                                    COSPHI/2
000365: 11,2760           23703                                    3/32
000366: 11,2761           63525                           PDDL     DSQ                                   #  P2/64 TO PD0
000367: 11,2762           00023                                    COSPHI/2
000368: 11,2763           45275                           DMPR     DSU
000369: 11,2764           23705                                    15/16
000370: 11,2765           23677                                    3/64
000371: 11,2766           57206                           PUSH     DMPR                                  #  P3/32 TO PD2
000372: 11,2767           00023                                    COSPHI/2
000373: 11,2770           76405                           DMP      SL1R
000374: 11,2771           23711                                    7/12
000375: 11,2772           57325                           PDDL     DMPR
000376: 11,2773           00001                                    0
000377: 11,2774           23717                                    2/3
000378: 11,2775           41421                           BDSU     PUSH                                  #  P4/128 TO PD4
000379: 11,2776           57275                           DMPR     DMPR
000380: 11,2777           00023                                    COSPHI/2                              #  BEGIN COMPUTING P5/1024
000381: 11,3000           23713                                    9/16
000382: 11,3001           57325                           PDDL     DMPR
000383: 11,3002           00003                                    2
000384: 11,3003           23715                                    5/128


000386: 11,3004           77621                           BDSU
000387: 11,3005           77603                           DMP*
000388: 11,3006           50035                                    J4REQ/J3,2
000389: 11,3007           43271                           DDV      DAD                                   #               -3
000390: 11,3010           02310                                    ALPHAM                                #  (((P5/256)B 2  /R+P4/32)  /R+P3/8)ALPHAV
000391: 11,3011           00005                                    4                                     #             4             3
000392: 11,3012           56273                           DMPR*    DDV
000393: 11,3013           50031                                    2J3RE/J2,2
000394: 11,3014           02310                                    ALPHAM
000395: 11,3015           74215                           DAD      VXSC
000396: 11,3016           00003                                    2
000397: 11,3017           02152                                    ALPHAV
000398: 11,3020           14033                           STODL    TVEC
000399: 11,3021           70403                           DMP*     SR1
000400: 11,3022           50035                                    J4REQ/J3,2
000401: 11,3023           43271                           DDV      DAD
000402: 11,3024           02310                                    ALPHAM                                #                 -3
000403: 11,3025           50473                           DMPR*    SR3
000404: 11,3026           50031                                    2J3RE/J2,2                            #     3         4
000405: 11,3027           43271                           DDV      DAD
000406: 11,3030           02310                                    ALPHAM
000407: 11,3031           76561                           VXSC     VSL1
000408: 11,3032           00025                                    UZ
000409: 11,3033           77645                           BVSU
000410: 11,3034           00033                                    TVEC
000411: 11,3035           14033                           STODL    TVEC
000412: 11,3036           02310                                    ALPHAM
000413: 11,3037           63501                           NORM     DSQ
000414: 11,3040           00047                                    X1
000415: 11,3041           60316                           DSQ      NORM
000416: 11,3042           00051                                    S1                                    #          4
000417: 11,3043           54606                           PUSH     BDDV*                                 #  NORMED R  TO 0D
000418: 11,3044           50025                                    J2REQSQ,2
000419: 11,3045           77761                           VXSC
000420: 11,3046           00033                                    TVEC
000421: 11,3047           00033                           STORE    TVEC
000422: 11,3050           56070                           XAD,1    XAD,1
000423: 11,3051           00046                                    X1
000424: 11,3052           00046                                    X1
000425: 11,3053           43070                           XAD,1    BOF
000426: 11,3054           00050                                    S1
000427: 11,3055           00343                                    MOONFLAG
000428: 11,3056           23125                                    NBRANCH1
000429: 11,3057           63545                           DLOAD    DSQ                                   #   2
000430: 11,3060           00017                                    URPV                                  #  X  B-2 TO 2D
000431: 11,3061           63525                           PDDL     DSQ
000432: 11,3062           00021                                    URPV       +2                         #   2   2
000433: 11,3063           65215                           DAD      PDDL                                  #  Y  +X  B-2 TO 2D
000434: 11,3064           00003                                    2D
000435: 11,3065           45352                           SL1      DSU


000437: 11,3066           00003                                    2D
000438: 11,3067           41525                           PDDL     PUSH                                  #  X -Y B-2 TO 4D  COSPHI 2 TO 6D
000439: 11,3070           00023                                    COSPHI/2
000440: 11,3071           65361                           VXSC     PDDL                                  #  2COSPHI(UZ) B-3 TO 6D
000441: 11,3072           00025                                    UZ
000442: 11,3073           45316                           DSQ      DSU
000443: 11,3074           23671                                    3/5                                   #    2  2       2
000444: 11,3075           52405                           DMP      SL3                                   #  (X -Y)((5COS (PHI)-3)UR 2COS(PHI)UZ)
000445: 11,3076           27756                                    5/8
000446: 11,3077           52361                           VXSC     VSU                                   #        B-3 TO 4D
000447: 11,3100           02152                                    ALPHAV
000448: 11,3101           72561                           VXSC     VSL2
000449: 11,3102           77725                           PDDL
000450: 11,3103           00017                                    URPV
000451: 11,3104           63205                           DMP      PDVL                                  #  XY B-2 TO 10D
000452: 11,3105           00021                                    URPV       +2
000453: 11,3106           02152                                    ALPHAV
000454: 11,3107           74235                           VXV      VXSC
000455: 11,3110           00025                                    UZ
000456: 11,3111           53332                           VSL3     VAD                                   #  4XY(UR X UZ) + D( 4D) B-3
000457: 11,3112           77725                           PDDL
000458: 11,3113           41301                           NORM     DMP
000459: 11,3114           00050                                    X2
000460: 11,3115           00001                                    0D                                    #  3J22R2MU/(X + Y)R
000461: 11,3116           74265                           BDDV     VXSC
000462: 11,3117           27754                                    3J22R2MU
000463: 11,3120           53257                           VSL*     VAD
000464: 11,3121           57605                                    0          -7,2
000465: 11,3122           00033                                    TVEC
000466: 11,3123           77754                           LXA,2
000467: 11,3124           02150                                    PBODY
000468:
000469: 11,3125           77600        NBRANCH1           BOV
000470: 11,3126           23127                                    +1
000471: 11,3127           53257                           VSL*     VAD
000472: 11,3130           20153                                    0          -22D,1
000473: 11,3131           02202                                    FV
000474: 11,3132           02202                           STORE    FV
000475: 11,3133           77600                           BOV
000476: 11,3134           22706                                    GOBAQUE
000477:
000478: 11,3135           72135        NBRANCH            SLOAD    LXA,1
000479: 11,3136           01501                                    DIFEQCNT
000480: 11,3137           00154                                    MPAC
000481: 11,3140           73205                           DMP      CGOTO
000482: 11,3141           27760                                    -1/12
000483: 11,3142           00155                                    MPAC
000484: 11,3143           23152                                    DIFEQTAB
000485: 11,3144           77745        COSPHIE            DLOAD
000486: 11,3145           02156                                    ALPHAV     +4
000487: 11,3146           24023                           STOVL    COSPHI/2
000488: 11,3147           11450                                    ZUNIT


000490: 11,3150           77650                           GOTO
000491: 11,3151           22755                                    COMTERM
000492: 11,3152           23371        DIFEQTAB           CADR     DIFEQ+0
000493: 11,3153           23375                           CADR     DIFEQ+1
000494: 11,3154           23406                           CADR     DIFEQ+2
000495: 11,3155           77214        TIMESTEP           BOF      VLOAD
000496: 11,3156           00342                                    MIDFLAG
000497: 11,3157           23206                                    RECTEST
000498: 11,3160           01535                                    RCV
000499: 11,3161           41241                           DOT      DMP
000500: 11,3162           01543                                    VCV
000501: 11,3163           02314                                    DT/2                                  #  (R.V) X (DELTA T)
000502: 11,3164           77640                           BMN
000503: 11,3165           23206                                    RECTEST
000504: 11,3166           43014                           BON      BOF
000505: 11,3167           00303                                    MOONFLAG
000506: 11,3170           23263                                    LUNSPH
000507: 11,3171           04340                                    RPQFLAG
000508: 11,3172           23260                                    EARSPH
000509: 11,3173           45145                           DLOAD    CALL
000510: 11,3174           01517                                    TET
000511: 11,3175           54110                                    LSPOS                                 #  RPQV IN MPAC
000512: 11,3176           02263                           STORE    RPQV                                  #  RPQV
000513: 11,3177           77754                           LXA,2
000514: 11,3200           02150                                    PBODY
000515: 11,3201           51445        INLUNCHK           BVSU     ABVAL
000516: 11,3202           01535                                    RCV
000517: 11,3203           50025                           DSU      BMN
000518: 11,3204           27764                                    RSPHERE
000519: 11,3205           23300                                    DOSWITCH
000520: 11,3206           51575        RECTEST            VLOAD    ABVAL                                 #  RECTIFY IF
000521: 11,3207           01521                                    TDELTAV
000522: 11,3210           77600                           BOV
000523: 11,3211           23234                                    CALLRECT
000524: 11,3212           51025                           DSU      BPL                                   #        1) EITHER TDELTAV OR TNUV EQUALS OR
000525: 11,3213           23707                                    3/4                                   #           EXCEEDS 3/4 IN MAGNITUDE
000526: 11,3214           23234                                    CALLRECT
000527: 11,3215           53615                           DAD      SL*                                   #                        OR
000528: 11,3216           23707                                    3/4
000529: 11,3217           57605                                    0          -7,2                       #        2) ABVAL(TDELTAV) EQUALS OR EXCEEDS
000530: 11,3220           45271                           DDV      DSU                                   #           .01(ABVAL(RCV))
000531: 11,3221           00013                                    10D
000532: 11,3222           27762                                    RECRATIO
000533: 11,3223           77244                           BPL      VLOAD
000534: 11,3224           23234                                    CALLRECT
000535: 11,3225           01527                                    TNUV
000536: 11,3226           45246                           ABVAL    DSU
000537: 11,3227           23707                                    3/4
000538: 11,3230           77600                           BOV
000539: 11,3231           23234                                    CALLRECT


000541: 11,3232           77640                           BMN
000542: 11,3233           23236                                    INTGRATE
000543: 11,3234           77624        CALLRECT           CALL
000544: 11,3235           23344                                    RECTIFY
000545: 11,3236           77775        INTGRATE           VLOAD
000546: 11,3237           01527                                    TNUV
000547: 11,3240           25120                           STOVL    ZV
000548: 11,3241           01521                                    TDELTAV
000549: 11,3242           01112                           STORE    YV
000550: 11,3243           77614                           CLEAR
000551: 11,3244           00261                                    JSWITCH
000552: 11,3245           66375        DIFEQ0             VLOAD    SSP
000553: 11,3246           01112                                    YV
000554: 11,3247           01501                                    DIFEQCNT
000555: 11,3250           00000                                    0
000556: 11,3251           16152                           STODL    ALPHAV
000557: 11,3252           11456                                    DPZERO
000558: 11,3253           02212                           STORE    H                                     #  START H AT ZERO.  GOES 0(DELT/2)DELT.
000559: 11,3254           52014                           BON      GOTO
000560: 11,3255           00301                                    JSWITCH
000561: 11,3256           23610                                    DOW..
000562: 11,3257           22430                                    ACCOMP
000563: 11,3260           52175        EARSPH             VLOAD    GOTO
000564: 11,3261           02263                                    RPQV
000565: 11,3262           23201                                    INLUNCHK
000566: 11,3263           60545        LUNSPH             DLOAD    SR2
000567: 11,3264           00013                                    10D
000568: 11,3265           50025                           DSU      BMN
000569: 11,3266           27764                                    RSPHERE
000570: 11,3267           23206                                    RECTEST
000571: 11,3270           71214                           BOF      DLOAD
000572: 11,3271           04340                                    RPQFLAG
000573: 11,3272           23300                                    DOSWITCH
000574: 11,3273           01517                                    TET
000575: 11,3274           77624                           CALL
000576: 11,3275           54115                                    LUNPOS
000577: 11,3276           77676                           VCOMP
000578: 11,3277           02263                           STORE    RPQV
000579: 11,3300           77624        DOSWITCH           CALL
000580: 11,3301           23304                                    ORIGCHNG
000581: 11,3302           77650                           GOTO
000582: 11,3303           23236                                    INTGRATE
000583: 11,3304           45020        ORIGCHNG           STQ      CALL
000584: 11,3305           02270                                    ORIGEX
000585: 11,3306           23344                                    RECTIFY
000586: 11,3307           53775                           VLOAD    VSL*
000587: 11,3310           01535                                    RCV
000588: 11,3311           57576                                    0,2
000589: 11,3312           53651                           VSU      VSL*
000590: 11,3313           02263                                    RPQV


000592: 11,3314           57574                                    2,2
000593: 11,3315           01503                           STORE    RRECT
000594: 11,3316           15535                           STODL    RCV
000595: 11,3317           01517                                    TET
000596: 11,3320           77624                           CALL
000597: 11,3321           54120                                    LUNVEL
000598: 11,3322           57414                           BOF      VCOMP
000599: 11,3323           00343                                    MOONFLAG
000600: 11,3324           23325                                    +1
000601: 11,3325           53715                           PDVL     VSL*
000602: 11,3326           01543                                    VCV
000603: 11,3327           57576                                    0,2
000604: 11,3330           77651                           VSU
000605: 11,3331           77657                           VSL*
000606: 11,3332           57574                                    0          +2,2
000607: 11,3333           01511                           STORE    VRECT
000608: 11,3334           01543                           STORE    VCV
000609: 11,3335           67154                           LXA,2    SXA,2
000610: 11,3336           02270                                    ORIGEX
000611: 11,3337           00052                                    QPRET
000612: 11,3340           52014                           BON      GOTO
000613: 11,3341           00303                                    MOONFLAG
000614: 11,3342           26666                                    CLRMOON
000615: 11,3343           26673                                    SETMOON


000617:                                                                                                  #  THE RECTIFY SUBROUTINE IS CALLED BY THE INTEGRATION PROGRAM AND OCCASIONALLY BY THE MEASUREMENT INCORPORATION
000618:                                                                                                  #  ROUTINES TO ESTABLISH A NEW CONIC.
000619:
000620: 11,3344           77354        RECTIFY            LXA,2    VLOAD
000621: 11,3345           02150                                    PBODY
000622: 11,3346           01521                                    TDELTAV
000623: 11,3347           53257                           VSL*     VAD
000624: 11,3350           57605                                    0          -7,2
000625: 11,3351           01535                                    RCV
000626: 11,3352           01503                           STORE    RRECT
000627: 11,3353           25535                           STOVL    RCV
000628: 11,3354           01527                                    TNUV
000629: 11,3355           53257                           VSL*     VAD
000630: 11,3356           57602                                    0          -4,2
000631: 11,3357           01543                                    VCV
000632: 11,3360           01511        MINIRECT           STORE    VRECT
000633: 11,3361           25543                           STOVL    VCV
000634: 11,3362           11456                                    ZEROVEC
000635: 11,3363           01521                           STORE    TDELTAV
000636: 11,3364           15527                           STODL    TNUV
000637: 11,3365           11456                                    ZEROVEC
000638: 11,3366           01551                           STORE    TC
000639: 11,3367           01553                           STORE    XKEP
000640: 11,3370           77616                           RVQ
000641:


000643:                                                                                                  #  THE THREE DIFEQ ROUTINES - DIFEQ+0, DIFEQ+12, AND DIFEQ+24 - ARE ENTEREDTO PROCESS THE CONTRIBUTIONS AT THE
000644:                                                                                                  #  BEGINNING, MIDDLE, AND END OF THE TIMESTEP, RESPECTIVELY.  THE UPDATING IS DONE BY THE NYSTROM METHOD.
000645:
000646: 11,3371           64575        DIFEQ+0            VLOAD    VSR3
000647: 11,3372           02202                                    FV
000648: 11,3373           36166                           STCALL   PHIV
000649: 11,3374           23551                                    DIFEQCOM
000650: 11,3375           74575        DIFEQ+1            VLOAD    VSR1
000651: 11,3376           02202                                    FV
000652: 11,3377           53206                           PUSH     VAD
000653: 11,3400           02166                                    PHIV
000654: 11,3401           26174                           STOVL    PSIV
000655: 11,3402           53362                           VSR1     VAD
000656: 11,3403           02166                                    PHIV
000657: 11,3404           36166                           STCALL   PHIV
000658: 11,3405           23551                                    DIFEQCOM
000659: 11,3406           57345        DIFEQ+2            DLOAD    DMPR
000660: 11,3407           02212                                    H
000661: 11,3410           23717                                    DP2/3
000662: 11,3411           74206                           PUSH     VXSC
000663: 11,3412           02166                                    PHIV
000664: 11,3413           53372                           VSL1     VAD
000665: 11,3414           01120                                    ZV
000666: 11,3415           53361                           VXSC     VAD
000667: 11,3416           02212                                    H
000668: 11,3417           01112                                    YV
000669: 11,3420           25112                           STOVL    YV
000670: 11,3421           02202                                    FV
000671: 11,3422           53322                           VSR3     VAD
000672: 11,3423           02174                                    PSIV
000673: 11,3424           76561                           VXSC     VSL1
000674: 11,3425           77655                           VAD
000675: 11,3426           01120                                    ZV
000676: 11,3427           01120                           STORE    ZV
000677: 11,3430           45014                           BOFF     CALL
000678: 11,3431           00341                                    JSWITCH
000679: 11,3432           23502                                    ENDSTATE
000680: 11,3433           56741                                    GRP2PC
000681: 11,3434           77354                           LXA,2    VLOAD
000682: 11,3435           01102                                    COLREG
000683: 11,3436           01120                                    ZV
000684: 11,3437           77732                           VSL3                                           #  ADJUST W-POSITION FOR STORAGE
000685: 11,3440           12467                           STORE    W          +54D,2
000686: 11,3441           77775                           VLOAD
000687: 11,3442           01112                                    YV
000688: 11,3443           40132                           VSL3     BOV
000689: 11,3444           23574                                    WMATEND
000690: 11,3445           12401                           STORE    W,2
000691:
000692: 11,3446           77624                           CALL
000693: 11,3447           56741                                    GRP2PC


000695: 11,3450           66354                           LXA,2    SSP
000696: 11,3451           01102                                    COLREG
000697: 11,3452           00052                                    S2
000698: 11,3453           00000                                    0
000699: 11,3454           67114                           INCR,2   SXA,2
000700: 11,3455           00006                                    6
000701: 11,3456           01111                                    YV
000702: 11,3457           45104                           TIX,2    CALL
000703: 11,3460           23545                                    RELOADSV
000704: 11,3461           56741                                    GRP2PC
000705: 11,3462           67154                           LXA,2    SXA,2
000706: 11,3463           01111                                    YV
000707: 11,3464           01102                                    COLREG
000708:
000709: 11,3465           77624        NEXTCOL            CALL
000710: 11,3466           56741                                    GRP2PC
000711: 11,3467           76754                           LXA,2    VLOAD*
000712: 11,3470           01102                                    COLREG
000713: 11,3471           75376                                    W,2
000714: 11,3472           77722                           VSR3                                           #  ADJUST W-POSITION FOR INTEGRATION
000715: 11,3473           01112                           STORE    YV
000716: 11,3474           76173                           VLOAD*   AXT,1
000717: 11,3475           75310                                    W          +54D,2
000718: 11,3476           00000                                    0
000719: 11,3477           77722                           VSR3                                           #  ADJUST W-VELOCITY FOR INTEGRATION
000720: 11,3500           35120                           STCALL   ZV
000721: 11,3501           23245                                    DIFEQ0
000722:
000723: 11,3502           77200        ENDSTATE           BOV      VLOAD
000724: 11,3503           22706                                    GOBAQUE
000725: 11,3504           01120                                    ZV
000726: 11,3505           25527                           STOVL    TNUV
000727: 11,3506           01112                                    YV
000728: 11,3507           01521                           STORE    TDELTAV
000729: 11,3510           43014                           BON      BOFF
000730: 11,3511           04715                                    MIDAVFLG
000731: 11,3512           27653                                    CKMID2                                #  CHECK FOR MID2 BEFORE GOING TO TIMEINC
000732: 11,3513           01756                                    DIM0FLAG
000733: 11,3514           27234                                    TESTLOOP
000734: 11,3515           77776                           EXIT
000735: 11,3516           05301                           TC       PHASCHNG
000736: 11,3517           04022                           OCT      04022                                 #  PHASE 1
000737: 11,3520           05435                           TC       UPFLAG                                #  PHASE CHANGE HAS OCCURRED BETWEEN
000738: 11,3521           00236                           ADRES    REINTFLG                              #  INTSTALL AND INTWAKE
000739: 11,3522           06006                           TC       INTPRET
000740: 11,3523           77731                           SSP
000741: 11,3524           00053                                    QPRET
000742: 11,3525           23532                                    AMOVED
000743: 11,3526           52014                           BON      GOTO
000744: 11,3527           01714                                    VINTFLAG


000746: 11,3530           26636                                    ATOPCSM
000747: 11,3531           26711                                    ATOPLEM
000748: 11,3532           66214        AMOVED             SET      SSP
000749: 11,3533           00061                                    JSWITCH
000750: 11,3534           01103                                    COLREG
000751: 11,3535           77741                           DEC      -30        B-14
000752: 11,3536           66214                           BOFF     SSP
000753: 11,3537           01755                                    D6OR9FLG
000754: 11,3540           23465                                    NEXTCOL
000755: 11,3541           01103                                    COLREG
000756: 11,3542           77717                           DEC      -48        B-14
000757: 11,3543           77650                           GOTO
000758: 11,3544           23465                                    NEXTCOL
000759:
000760: 11,3545           77745        RELOADSV           DLOAD                                          #  RELOAD TEMPORARY STATE VECTOR
000761: 11,3546           01101                                    TDEC                                  #  FROM PERMANENT IN CASE OF
000762: 11,3547           34041                           STCALL   TDEC1
000763: 11,3550           27120                                    INTEGRV2                              #  BY STARTING AT INTEGRV2.
000764: 11,3551           43345        DIFEQCOM           DLOAD    DAD                                   #  INCREMENT H AND DIFEQCNT.
000765: 11,3552           02314                                    DT/2
000766: 11,3553           02212                                    H
000767: 11,3554           66110                           INCR,1   SXA,1
000768: 11,3555           77763                           DEC      -12        B-14
000769: 11,3556           01500                                    DIFEQCNT                              #  DIFEQCNT SET FOR NEXT ENTRY.
000770: 11,3557           02212                           STORE    H
000771: 11,3560           74561                           VXSC     VSR1
000772: 11,3561           02202                                    FV
000773: 11,3562           74255                           VAD      VXSC
000774: 11,3563           01120                                    ZV
000775: 11,3564           02212                                    H
000776: 11,3565           77655                           VAD
000777: 11,3566           01112                                    YV
000778: 11,3567           02152                           STORE    ALPHAV
000779: 11,3570           52014                           BON      GOTO
000780: 11,3571           00301                                    JSWITCH
000781: 11,3572           23610                                    DOW..
000782: 11,3573           22410                                    FBR3
000783:
000784: 11,3574           43014        WMATEND            CLEAR    CLEAR
000785: 11,3575           01676                                    DIM0FLAG                              #  DONT INTEGRATE W THIS TIME
000786: 11,3576           01671                                    ORBWFLAG                              #  INVALIDATE W
000787: 11,3577           77614                           CLEAR
000788: 11,3600           02676                                    RENDWFLG
000789: 11,3601           77414                           SET      EXIT
000790: 11,3602           01472                                    STATEFLG                              #  PICK UP STATE VECTOR UPDATE
000791: 11,3603           05537                           TC       ALARM
000792: 11,3604           00421                           OCT      421
000793: 11,3605           06006                           TC       INTPRET


000795: 11,3606           77650                           GOTO
000796: 11,3607           27234                                    TESTLOOP                              #  FINISH INTEGRATING STATE VECTOR
000797:


000799:                                                                                                  #  ORBITAL ROUTINE FOR EXTRAPOLATION OF THE W MATRIX.  IT COMPUTES THE SECOND DERIVATIVE OF EACH COLUMN POSITION
000800:                                                                                                  #  VECTOR OF THE MATRIX AND CALLS THE NYSTROM INTEGRATION ROUTINES TO SOLVE THE DIFFERENTIAL EQUATIONS.  THE PROGRAM
000801:                                                                                                  #  USES A TABLE OF VEHICLE POSITION VECTORS COMPUTED DURING THE INTEGRATION OF THE VEHICLES POSITION AND VELOCITY.
000802:
000803: 11,3610           70754        DOW..              LXA,2    DLOAD*
000804: 11,3611           02150                                    PBODY
000805: 11,3612           50041                                    MUEARTH,2
000806: 11,3613           36210                           STCALL   BETAM
000807: 11,3614           23636                                    DOW..1
000808: 11,3615           02202                           STORE    FV
000809: 11,3616           62014                           BOF      INCR,1
000810: 11,3617           00342                                    MIDFLAG
000811: 11,3620           23135                                    NBRANCH
000812: 11,3621           77771                           DEC      -6         B-14
000813: 11,3622           70744                           LXC,2    DLOAD*
000814: 11,3623           02150                                    PBODY
000815: 11,3624           50043                                    MUEARTH    -2,2
000816: 11,3625           36210                           STCALL   BETAM
000817: 11,3626           23636                                    DOW..1
000818: 11,3627           50414                           BON      VSR6
000819: 11,3630           00303                                    MOONFLAG
000820: 11,3631           23632                                    +1
000821: 11,3632           77655                           VAD
000822: 11,3633           02202                                    FV
000823: 11,3634           36202                           STCALL   FV
000824: 11,3635           23135                                    NBRANCH
000825: 11,3636           60575        DOW..1             VLOAD    VSR4
000826: 11,3637           02152                                    ALPHAV
000827: 11,3640           53513                           PDVL*    UNIT
000828: 11,3641           02217                                    VECTAB,1
000829: 11,3642           46315                           PDVL     VPROJ
000830: 11,3643           02152                                    ALPHAV
000831: 11,3644           52361                           VXSC     VSU
000832: 11,3645           23707                                    3/4
000833: 11,3646           60325                           PDDL     NORM
000834: 11,3647           00045                                    36D
000835: 11,3650           00052                                    S2
000836: 11,3651           63406                           PUSH     DSQ
000837: 11,3652           77605                           DMP
000838: 11,3653           65301                           NORM     PDDL
000839: 11,3654           00043                                    34D
000840: 11,3655           02210                                    BETAM
000841: 11,3656           56342                           SR1      DDV
000842: 11,3657           77761                           VXSC
000843: 11,3660           57154                           LXA,2    XAD,2
000844: 11,3661           00051                                    S2
000845: 11,3662           00051                                    S2
000846: 11,3663           57074                           XAD,2    XAD,2
000847: 11,3664           00051                                    S2
000848: 11,3665           00042                                    34D
000849: 11,3666           43457                           VSL*     RVQ


000851: 11,3667           57606                                    0          -8D,2
000852:
000853: 11,2000                                           SETLOC   ORBITAL1
000854: 11,2000                                           BANK
000855:
000856: 11,3670           04631 23146  3/5                2DEC     .6         B-2
000857: 11,3672           14000 00000  THREE/8            2DEC     .375
000858: 11,3674           02314 31463  .3D                2DEC     .3         B-2
000859: 11,3676           01400 00000  3/64               2DEC     3          B-6
000860: 11,3700           10000 00000  DP1/4              2DEC     .25
000861: 11,3702  11,3700               DQUARTER           EQUALS   DP1/4
000862: 11,3702  11,3700               POS1/4             EQUALS   DP1/4
000863: 11,3702           03000 00000  3/32               2DEC     3          B-5
000864: 11,3704           36000 00000  15/16              2DEC     15.        B-4
000865: 11,3706           30000 00000  3/4                2DEC     3.0        B-2
000866: 11,3710           22525 12525  7/12               2DEC     .5833333333
000867: 11,3712           22000 00000  9/16               2DEC     9          B-4
000868: 11,3714           01200 00000  5/128              2DEC     5          B-7
000869: 11,3716  04,3455               DPZERO             EQUALS   ZEROVEC
000870: 11,3716           25252 25253  DP2/3              2DEC     .6666666667
000871: 11,3720  11,3716               2/3                EQUALS   DP2/3
000872: 11,3720           00027        OCT27              OCT      27
000873:
000874:                                                                                                  #  LM504 IS TEMPORARY
000875:
000876: 13,3715                                           BANK     13
000877: 13,2000                                           SETLOC   ORBITAL2
000878: 13,2000                                           BANK
000879:                                                                                                  #  IT IS VITAL THAT THE FOLLOWING CONSTANTS NOT BE SHUFFLED
000880: 13,3715           77764                           DEC      -11        B-14
000881: 13,3716           77775                           DEC      -2         B-14
000882: 13,3717           77766                           DEC      -9         B-14
000883: 13,3720           77771                           DEC      -6         B-14
000884: 13,3721           77775                           DEC      -2         B-14
000885: 13,3722           77775                           DEC      -2         B-14
000886: 13,3723           00000                           DEC      0          B-14
000887: 13,3724           77763                           DEC      -12        B-14
000888: 13,3725           77766                           DEC      -9         B-14
000889: 13,3726           77773                           DEC      -4         B-14
000890: 13,3727           77770        ASCALE             DEC      -7         B-14
000891: 13,3730           77771                           DEC      -6         B-14


000893: 13,3731           27446 14620                     2DEC*    1.32715445 E16        B-54*           #  S
000894: 13,3733           16471 01352                     2DEC*    4.9027780  E8         B-30*           #  M
000895: 13,3735           22437 16067  MUEARTH            2DEC*    3.986032   E10        B-36*
000896: 13,3737           00000 00000                     2DEC     0          B-28
000897: 13,3741           02302 24736  J4REQ/J3           2DEC*    .4991607391 E7         B-26*
000898: 13,3743           00000 00000                     2DEC     0          B-28
000899: 13,3745           77776 53032  2J3RE/J2           2DEC*    -.1355426363 E5         B-27*
000900: 13,3747           10407 05344                     2DEC*    .3067493316 E18        B-60*
000901: 13,3751           13710 35320  J2REQSQ            2DEC*    1.75501139 E21        B-72*
000902: 13,3753           12160 12124  3J22R2MU           2DEC*    9.20479048 E16        B-58*
000903:
000904: 13,3755           24000 00000  5/8                2DEC     5          B-3
000905: 13,3757           74631 63145  -1/12              2DEC     -.1
000906: 13,3761  13,3733               MUM                =        MUEARTH    -2
000907: 13,3761           00243 32703  RECRATIO           2DEC     .01
000908: 13,3763           03654 21000  RSPHERE            2DEC     64373.76   E3         B-29
000909: 13,3765           03654 21000  RDM                2DEC     16093.44   E3         B-27
000910: 13,3767           04627 25200  RDE                2DEC     80467.20   E3         B-29
000911:
000912: 13,3771                        RATT               EQUALS   00
000913: 13,3771                        VATT               EQUALS   6D
000914: 13,3771                        TAT                EQUALS   12D
000915: 13,3771                        RATT1              EQUALS   14D
000916: 13,3771                        VATT1              EQUALS   20D
000917: 13,3771                        MU(P)              EQUALS   26D
000918: 13,3771                        TDEC1              EQUALS   32D
000919: 13,3771                        URPV               EQUALS   14D
000920: 13,3771     0022               COSPHI/2           EQUALS   URPV       +4
000921: 13,3771                        UZ                 EQUALS   20D
000922: 13,3771                        TVEC               EQUALS   26D
000923:
000924:
000925:

End of include-file ORBITAL_INTEGRATION.agc.  Parent file is MAIN.agc


