
Source Code


000002:                                                                                                  ## Copyright:   Public domain.
000003:                                                                                                  ## Filename:    P37_P70.agc
000004:                                                                                                  ## Purpose:     Part of the source code for Colossus, build 249.
000005:                                                                                                  ##              It is part of the source code for the Command Module's (CM)
000006:                                                                                                  ##              Apollo Guidance Computer (AGC), for Apollo 9.
000007:                                                                                                  ## Assembler:   yaYUL
000008:                                                                                                  ## Reference:   pp. 843-886.
000009:                                                                                                  ## Contact:     Ron Burkey <info@sandroid.org>.
000010:                                                                                                  ## Website:     www.ibiblio.org/apollo.
000011:                                                                                                  ## Mod history: 08/21/04 RSB.   Began transcribing.
000012:                                                                                                  ##              2010-10-24 JL   Indentation fixes. Added missing # in comment.
000013:                                                                                                  ##              2017-01-06 RSB  Page numbers now agree with those on the
000014:                                                                                                  ##                              original harcopy, as opposed to the PDF page
000015:                                                                                                  ##                              numbers in 1701.pdf.
000016:                                                                                                  ##              2017-01-18 RSB  Cross-diff'd comment text (not whitespace)
000017:                                                                                                  ##                              vs the already-proofed corresponding Colossus
000018:                                                                                                  ##                              237 and Comanche 55 source-code files
000019:                                                                                                  ##                              and corrected errors found.
000020:                                                                                                  ##
000021:                                                                                                  ## The contents of the "Colossus249" files, in general, are transcribed
000022:                                                                                                  ## from a scanned copy of the program listing.  Notations on this
000023:                                                                                                  ## document read, in part:
000024:                                                                                                  ##
000025:                                                                                                  ##      Assemble revision 249 of AGC program Colossus by NASA
000026:                                                                                                  ##      2021111-041.  October 28, 1968.
000027:                                                                                                  ##
000028:                                                                                                  ##      This AGC program shall also be referred to as
000029:                                                                                                  ##                              Colossus 1A
000030:                                                                                                  ##
000031:                                                                                                  ##      Prepared by
000032:                                                                                                  ##                      Massachusetts Institute of Technology
000033:                                                                                                  ##                      75 Cambridge Parkway
000034:                                                                                                  ##                      Cambridge, Massachusetts
000035:                                                                                                  ##      under NASA contract NAS 9-4065.
000036:                                                                                                  ##
000037:                                                                                                  ## Refer directly to the online document mentioned above for further information.
000038:                                                                                                  ## Please report any errors (relative to the scanned pages) to info@sandroid.org.
000039:                                                                                                  ##
000040:                                                                                                  ## In some cases, where the source code for Luminary 131 overlaps that of
000041:                                                                                                  ## Colossus 249, this code is instead copied from the corresponding Luminary 131
000042:                                                                                                  ## source file, and then is proofed to incorporate any changes.
000043:


000045: 31,3215                                           BANK     31
000046: 36,2000                                           SETLOC   RTE1
000047: 36,2000                                           BANK
000048:
000049: 36,2502  E7,1631                                  EBANK=   RTEDVD
000050: 36,2502                                           COUNT    31/P37
000051:
000052:                                                                                                  #  PROGRAM DESCRIPTION -  P37, RETURN TO EARTH
000053:
000054:                                                                                                  #  DESCRIPTION
000055:                                                                                                  #        A RETURN TO EARTH TRAJECTORY IS COMPUTED PROVIDED THE CSM IS OUTSIDE THE LUNAR SPHERE OF INFLUENCE AT THE
000056:                                                                                                  #        TIME OF IGNITION.  INITIALLY A CONIC TRAJECTORY IS DETERMINED AND RESULTING IGNITION AND REENTRY PARAMETERS ARE
000057:                                                                                                  #        DISPLAYED TO THE ASTRONAUT.  THEN IF THE ASTRONAUT SO DESIRES, A PRECISION TRAJECTORY IS DETERMINED WITH THE
000058:                                                                                                  #        RESULTING IGNITION AND REENTRY PARAMETERS DISPLAYED.  UPON FINAL ACCEPTANCE BY THE ASTRONAUT, THE PROGRAM
000059:                                                                                                  #        COMPUTES AND STORES THE TARGET PARAMETERS FOR RETURN TO EARTH FOR USE BY SPS PROGRAM (P40) OR RCS PROGRAM (P41).
000060:
000061:                                                                                                  #  CALLING SEQUENCE
000062:                                                                                                  #        L       TC      P37
000063:
000064:                                                                                                  #  SUBROUTINES CALLED
000065:                                                                                                  #        PREC100
000066:                                                                                                  #                V2T100
000067:                                                                                                  #                RTENCK2
000068:                                                                                                  #                RTENCK3
000069:                                                                                                  #                TIMERAD
000070:                                                                                                  #                PARAM
000071:                                                                                                  #        V2T100
000072:                                                                                                  #                GAMDV10
000073:                                                                                                  #                XT1LIM
000074:                                                                                                  #                DVCALC
000075:                                                                                                  #        RTENCK1
000076:                                                                                                  #                INTSTALL
000077:                                                                                                  #                INTEGRVS
000078:                                                                                                  #        RTEVN
000079:                                                                                                  #                RTEDISP
000080:                                                                                                  #                TMRAD100
000081:                                                                                                  #                AUGEKUGL
000082:                                                                                                  #                LAT-LONG
000083:                                                                                                  #        TMRAD100
000084:                                                                                                  #                TIMERAD
000085:                                                                                                  #        INVC100
000086:                                                                                                  #                CSMPREC
000087:                                                                                                  #        GETERAD
000088:                                                                                                  #        TIMETHET
000089:                                                                                                  #        P370ALRM
000090:                                                                                                  #        VN1645
000091:                                                                                                  #        POLY
000092:
000093:                                                                                                  #  ERASABLE INITIALIZATION REQUIRED
000094:                                                                                                  #        CSM STATE VECTOR


000096:                                                                                                  #        NJETSFLG        NUMBER OF JETS IF THE RCS PROPULSION SYSTEM SELECTED    STATE FLAG      0=4 JETS  1=2 JETS
000097:
000098:                                                                                                  #  ASTRONAUT INPUT
000099:                                                                                                  #        SPRTETIG        TIME OF IGNITION (OVERLAYS TIG)                         DP      B28     CS
000100:                                                                                                  #        VPRED           DESIRED CHANGE IN VELOCITY AT TIG(PROGRM COMPUTED IF 0) DP      B7      METERS/CS
000101:                                                                                                  #        GAMMAEI         DESIRED FLIGHT PATH ANGLE AT REENTRY (COMPUTED IF 0)    DP      B0      REVS + ABOVE HORIZ.
000102:                                                                                                  #        OPTION2         PROPULSION SYSTEM OPTION                                SP      B14     1=SPS, 2=RCS
000103:
000104:                                                                                                  #  OUTPUT
000105:                                                                                                  #     CONIC OR PRECISION TRAJECTORY DISPLAY
000106:                                                                                                  #        VPRED           VELOCITY MAGNITUDE AT 400,000 FT. ENTRY ALTITUDE        DP      B7      METERS/CS
000107:                                                                                                  #        T3TOT4          TRANSIT TIME TO 400,000 FT. ENTRY ALTITUDE              DP      B28     CS
000108:                                                                                                  #        GAMMAEI         FLIGHT PATH ANGLE AT 400,000 FT. ENTRY ALTITUDE         DP      B0      REVS + ABOVE HORIZON
000109:                                                                                                  #        DELVLVC         INITIAL VELOCITY CHANGE VECTOR IN LOCAL VERTICAL COORD. VECTOR  B7      METERS/CS
000110:                                                                                                  #        LAT(SPL)        LATITUDE OF THE LANDING SITE                            DP      B0      REVS
000111:                                                                                                  #        LNG(SPL)        LONGITUDE OF THE LANDING SITE                           DP      B0      REVS
000112:                                                                                                  #     TARGETING COMPUTATION DISPLAY
000113:                                                                                                  #        TIG             RECOMPUTED TIG BASED ON THRUST OPTION                   DP      B28     CS
000114:                                                                                                  #        TTOGO           TIME FROM TIG                                           DP      B28     CS
000115:                                                                                                  #        +MGA            POSITIVE MIDDLE GIMBAL ANGLE                            DP      B0      REVS -.02 IF REFSMFLG=0
000116:                                                                                                  #     THRUST PROGRAM COMMUNICATION
000117:                                                                                                  #        XDELVFLG        EXTERNAL DELTA V FLAG                                   STATE   FLAG    SET 0 FOR LAMBERT AIMPT
000118:                                                                                                  #        NORMSW          LAMBERT AIMPT ROTATION SWITCH                           STATE   FLAG    SET 0 FOR NO ROTATION
000119:                                                                                                  #        ECSTEER         CROSS PRODUCT STEERING CONSTANT                         SP      B2      SET 1
000120:                                                                                                  #        RTARG           CONICALLY INTEGRATED REENTRY POSITION VECTOR            VECTOR  B29     METERS
000121:                                                                                                  #        TPASS4          REENTRY TIME                                            DP      B28     CS
000122:
000123: 36,2502           05301        P37                TC       PHASCHNG                              #  P37 IS NOT RESTARTABLE.
000124: 36,2503           00004                           OCT      4
000125:
000126: 36,2504           06006                           TC       INTPRET
000127: 36,2505           66170                           AXT,1    SXA,1
000128: 36,2506           04000                           OCT      04000
000129: 36,2507           03424                                    ECSTEER
000130: 36,2510           77776                           EXIT
000131: 36,2511           33242                           CAF      V6N33RTE                              #  INPUT TIG     STORED IN SPRTETIG
000132: 36,2512           03231                           TCR      P370GOF                               #                OVERLAYED WITH TIG
000133: 36,2513           12511                           TCF      -2                                    #  DESPLAY NEW DATA
000134: 36,2514           33246                           CAF      V6N60RTE                              #  INPUT REENTRY ANGLE IN GAMMAEI
000135: 36,2515           03205                           TCR      P37GFRB1                              #        AND DESIRED DELTA V IN RTEDVD
000136: 36,2516           12514                           TCF      -2                                    #  DISPLAY NEW DATA
000137: 36,2517           06006        RTE299             TC       INTPRET
000138: 36,2520           71331                           SSP      DLOAD
000139: 36,2521           00122                                    OVFIND
000140: 36,2522           00000                                    0
000141: 36,2523           03767                                    VPRED
000142: 36,2524           17632                           STODL    RTEDVD
000143: 36,2525           03771                                    GAMMAEI
000144: 36,2526           17634                           STODL    RTEGAM2D
000145: 36,2527           31667                                    1RTEB13


000147: 36,2530           17735                           STODL    CONICX1
000148: 36,2531           33756                                    C4RTE
000149: 36,2532           37652                           STCALL   MAMAX1
000150: 36,2533           64427                                    INVC100                               #  GET R(T1)/,V(T1)/,UR1/,UH/
000151: 36,2534           77545                           DLOAD    EXIT
000152: 36,2535           03646                                    R(T1)
000153: 36,2536           07171                           TC       POLY
000154: 36,2537           00002                           DEC      2          B-14
000155: 36,2540           02544 35436                     2DEC     181000434  B-31
000156: 36,2542           14040 05066                     2DEC     1.50785145 B-2
000157: 36,2544           44052 60030                     2DEC*    -6.49993057 E-9        B27*
000158: 36,2546           26415 25057                     2DEC*    9.76938926 E-18       B56*
000159:
000160: 36,2550           06006                           TC       INTPRET
000161: 36,2551           77752                           SL1
000162: 36,2552           17654                           STODL    MAMAX2                                #  C0+C1*R+C2*R**2+C3*R**3=MAMAX2 B30
000163: 36,2553           31717                                    M9RTEB28
000164: 36,2554           17730                           STODL    NN1A
000165: 36,2555           33762                                    K2RTE
000166: 36,2556           17636        RTE320             STODL    RCON                                  #  RCON=K2
000167: 36,2557           03634                                    RTEGAM2D
000168: 36,2560           44254                           BZE      BDSU
000169: 36,2561           74570                                    RTE340                                #  GOTORTE340 IF REENTRY ANGLE NOT INPUT
000170: 36,2562           31655                                    1RTEB2
000171: 36,2563           71406                           PUSH     COS                                   #                                        PL02D
000172: 36,2564           73525                           PDDL     SIN
000173: 36,2565           45465                           BDDV     STADR                                 #                                        PL00D
000174: 36,2566           40051                           STCALL   X(T2)                                 #  X(T2)=COT(GAM2D)                      B0
000175: 36,2567           74603                                    RTE360
000176: 36,2570           45345        RTE340             DLOAD    DSU
000177: 36,2571           03646                                    R(T1)
000178: 36,2572           33760                                    K1RTE
000179: 36,2573           71240                           BMN      DLOAD
000180: 36,2574           74600                                    RTE350
000181: 36,2575           33766                                    K4RTE
000182: 36,2576           37726                           STCALL   X(T2)                                 #  X(T2)=K4
000183: 36,2577           74603                                    RTE360
000184: 36,2600           77745        RTE350             DLOAD
000185: 36,2601           33764                                    K3RTE
000186: 36,2602           03726                           STORE    X(T2)                                 #  X(T2)=K3
000187: 36,2603           77624        RTE360             CALL
000188: 36,2604           65136                                    V2T100
000189: 36,2605           52054                           BZE      GOTO
000190: 36,2606           74610                                    RTE367
000191: 36,2607           74772                                    RTEALRM
000192: 36,2610           77775        RTE367             VLOAD
000193: 36,2611           03640                                    R(T1)/


000195: 36,2612           16657                           STODL    RVEC
000196: 36,2613           03636                                    RCON
000197: 36,2614           26760                           STOVL    RDESIRED
000198: 36,2615           03700                                    V2(T1)/
000199: 36,2616           36746                           STCALL   VVEC
000200: 36,2617           64272                                    TMRAD100
000201: 36,2620           77615                           DAD
000202: 36,2621           03716                                    T1
000203: 36,2622           17736                           STODL    T2
000204: 36,2623           03634                                    RTEGAM2D
000205: 36,2624           52054                           BZE      GOTO
000206: 36,2625           74627                                    RTE369
000207: 36,2626           74651                                    RTE372
000208: 36,2627           51575        RTE369             VLOAD    ABVAL
000209: 36,2630           03710                                    V(T2)/
000210: 36,2631           77776                           EXIT
000211: 36,2632           07171                           TC       POLY
000212: 36,2633           00002                           DEC      2          B-14
000213: 36,2634           00000 00000                     2DEC     0          B-28
000214: 36,2636           47021 65002                     2DEC     -4.8760771 E-2        B4
000215: 36,2640           35610 07722                     2DEC     4.5419476  E-4        B11
000216: 36,2642           63772 63276                     2DEC     -1.4317675 E-6        B18
000217:
000218: 36,2644           06006                           TC       INTPRET
000219: 36,2645           77615                           DAD
000220: 36,2646           01352                                    RTED1
000221: 36,2647           52052                           SL3      GOTO                                  #  X(T2),=D1+D2V2+D3V2**2+D4V2**3
000222: 36,2650           74653                                    RTE373
000223: 36,2651           77745        RTE372             DLOAD                                          #  X(T2),=X(T2)
000224: 36,2652           03726                                    X(T2)
000225: 36,2653           41425        RTE373             DSU      PUSH                                  #  X(T2)ERR                              B0 PL02D
000226: 36,2654           03726                                    X(T2)
000227: 36,2655           53575                           VLOAD    UNIT
000228: 36,2656           03656                                    R(T2)/                                #                                        B58
000229: 36,2657           36152                           STCALL   ALPHAV
000230: 36,2660           26437                                    GETERAD
000231: 36,2661           77615                           DAD
000232: 36,2662           33772                                    E3RTE
000233: 36,2663           45206                           PUSH     DSU                                   #  RCON,=(E1/(1+E2BETA11)**.5)+E3 B29 PL04D
000234: 36,2664           03636                                    RCON
000235: 36,2665           45246                           ABS      DSU
000236: 36,2666           31754                                    EPC2RTE
000237: 36,2667           52040                           BMN      GOTO
000238: 36,2670           74672                                    RTE374
000239: 36,2671           74677                                    RTE375
000240: 36,2672           51545        RTE374             DLOAD    ABS
000241: 36,2673           00001                                    00D


000243: 36,2674           50025                           DSU      BMN
000244: 36,2675           31756                                    EPC3RTE
000245: 36,2676           74747                                    P37E
000246: 36,2677           43345        RTE375             DLOAD    DAD
000247: 36,2700           03730                                    NN1A
000248: 36,2701           31675                                    1RTEB28
000249: 36,2702           67240                           BMN      SLOAD
000250: 36,2703           74707                                    RTE380
000251: 36,2704           31735                                    OCT605
000252: 36,2705           77650                           GOTO
000253: 36,2706           74772                                    RTEALRM                               #  TOO MANY ITERATIONS
000254: 36,2707           03730        RTE380             STORE    NN1A
000255: 36,2710           53025                           DSU      BZE
000256: 36,2711           31721                                    M8RTEB28
000257: 36,2712           74730                                    RTE385
000258: 36,2713           45345                           DLOAD    DSU
000259: 36,2714           00001                                    00D
000260: 36,2715           03666                                    DRCON
000261: 36,2716           65301                           NORM     PDDL                                  #  X(T2)ERR-X(T2)ERR,=Z1                 PL06D
000262: 36,2717           00047                                    X1
000263: 36,2720           03670                                    RPRE'
000264: 36,2721           56225                           DSU      DDV                                   #  X(T2)PRI-X(T2)=Z2                     PL04D
000265: 36,2722           03726                                    X(T2)
000266: 36,2723           53605                           DMP      SL*                                   #  DX(T2)=X(T2)ERR(Z2/Z1)
000267: 36,2724           00001                                    00D
000268: 36,2725           20201                                    0,1
000269: 36,2726           77650                           GOTO
000270: 36,2727           74732                                    RTE390
000271: 36,2730           77745        RTE385             DLOAD                                          #  DX(T2)=X(T2)ERR
000272: 36,2731           00001                                    00D
000273: 36,2732           14021        RTE390             STODL    16D                                   #  DX(T2)                                PL02D
000274: 36,2733           77626                           STADR
000275: 36,2734           60141                           STODL    RCON                                  #  RCON=RCON,
000276: 36,2735           77600                           BOV
000277: 36,2736           74603                                    RTE360
000278: 36,2737           17666                           STODL    DRCON                                 #  X(T2)ERR,=X(T2)ERR
000279: 36,2740           03726                                    X(T2)
000280: 36,2741           17670                           STODL    RPRE'                                 #  X(T2)PRI=X(T2)
000281: 36,2742           00021                                    16D
000282: 36,2743           77615                           DAD
000283: 36,2744           03726                                    X(T2)
000284: 36,2745           37726                           STCALL   X(T2)                                 #  X(T2)=X(T2)+DX(T2)
000285: 36,2746           74603                                    RTE360                                #  REITERATE
000286: 36,2747           77624        P37E               CALL                                           #  DISPLAY CONIC SOLUTION
000287: 36,2750           74776                                    RTEVN
000288: 36,2751           41345        RTE505             DLOAD    DMP
000289: 36,2752           03720                                    PCON
000290: 36,2753           03754                                    BETA1
000291: 36,2754           53021                           BDSU     BZE
000292: 36,2755           03636                                    RCON


000294: 36,2756           74764                                    RTE510
000295: 36,2757           71240                           BMN      DLOAD
000296: 36,2760           74764                                    RTE510
000297: 36,2761           31655                                    1RTEB2
000298: 36,2762           77650                           GOTO                                           #  ENTRY NEAR APOGEE
000299: 36,2763           74766                                    RTE515
000300: 36,2764           57545        RTE510             DLOAD    DCOMP                                 #  ENTRY NEAR PERIGEE
000301: 36,2765           31655                                    1RTEB2
000302: 36,2766           37761        RTE515             STCALL   PHI2
000303: 36,2767           64515                                    PREC100                               #  PRECISION TRAJECTORY COMPUTATION
000304: 36,2770           77654        RTE625             BZE
000305: 36,2771           75024                                    P37G
000306: 36,2772           77624        RTEALRM            CALL
000307: 36,2773           64255                                    P370ALRM
000308: 36,2774           77776                           EXIT
000309: 36,2775           12502                           TCF      P37                                   #  RECYCLE AFTER ALARM DISPLAY
000310:
000311:                                                                                                  #  RETURN TO EARTH DISPLAY SUBROUTINE
000312:
000313: 36,2776           45020        RTEVN              STQ      CALL
000314: 36,2777           03763                                    VNSTORE
000315: 36,3000           64311                                    RTEDISP                               #  DISPLAY PREPARATION
000316: 36,3001           77776                           EXIT
000317: 36,3002           33244                           CAF      V6N61RTE                              #  LATITUDE,LONGITUDE,BLANK
000318: 36,3003           03215                           TCR      P370GOFR                              #        IN LAT(SPL),LNG(SPL),-
000319: 36,3004           34710                           CAF      FOUR
000320: 36,3005           03211                           TCR      37BLANK    +1
000321: 36,3006           13013                           TCF      +5
000322: 36,3007           12502                           TCF      P37                                   #  RECYCLE
000323: 36,3010           33245                           CAF      V6N39RTE                              #  T21 HRS,MIN,SEC IN T3TOT4
000324: 36,3011           03231                           TCR      P370GOF
000325: 36,3012           12502                           TCF      P37                                   #  RECYCLE
000326: 36,3013           33246                           CAF      V6N60RTE                              #  DISPLAY BLANK,V(T2),FPA2
000327: 36,3014           03205                           TCR      P37GFRB1                              #        IN -,VPRED,GAMMAEI
000328: 36,3015           12502                           TCF      P37                                   #  RECYCLE
000329: 36,3016           33247                           CAF      V6N81RTE                              #  DISPLAY DELTA V (LV) IN DELVLVC
000330: 36,3017           03231                           TCR      P370GOF
000331: 36,3020           12502                           TCF      P37                                   #  RECYCLE
000332: 36,3021           06006                           TCR      INTPRET
000333: 36,3022           77650                           GOTO
000334: 36,3023           03763                                    VNSTORE
000335:
000336:                                                                                                  #  PRECISION DISPLAY, TARGETING COMPUTATION AND RTE END PROCESSING
000337:
000338: 36,3024           77624        P37G               CALL
000339: 36,3025           74776                                    RTEVN
000340: 36,3026           77776                           EXIT
000341: 36,3027           34716        P37N               CAF      SEVEN
000342: 36,3030           55131                           TS       OPTION1
000343: 36,3031           34712                           CAF      ONE


000345: 36,3032           55132                           TS       OPTION2
000346: 36,3033           33243                           CAF      V4N06RTE                              #  DISPLAY RCS OR SPS OPTION     SPS ASSUMED
000347: 36,3034           03231                           TCR      P370GOF
000348: 36,3035           13033                           TCF      -2                                    #  RECYCLE
000349: 36,3036           06006                           TC       INTPRET                               #  PROCEED
000350: 36,3037           67201                           SETPD    SLOAD
000351: 36,3040           00001                                    00D
000352: 36,3041           01133                                    OPTION2
000353: 36,3042           53025                           DSU      BZE
000354: 36,3043           31667                                    1RTEB13
000355: 36,3044           75053                                    P37Q
000356: 36,3045           60335                           SLOAD    NORM                                  #  SPS
000357: 36,3046           00111                                    EMDOT
000358: 36,3047           00047                                    X1
000359: 36,3050           52125                           PDDL     GOTO
000360: 36,3051           31725                                    VCSPS
000361: 36,3052           75064                                    P37T
000362: 36,3053           43145        P37Q               DLOAD    BON                                   #  RCS
000363: 36,3054           31731                                    MDOTRCS
000364: 36,3055           00700                                    NJETSFLG
000365: 36,3056           75060                                    P37R
000366: 36,3057           77752                           SL1
000367: 36,3060           77752        P37R               SL1
000368: 36,3061           65301                           NORM     PDDL
000369: 36,3062           00047                                    X1
000370: 36,3063           31727                                    VCRCS
000371: 36,3064           56325        P37T               PDDL     DDV                                   #  DV/VC                 B7 -B5 = B2 PL02D
000372: 36,3065           03706                                    DV
000373: 36,3066           77776                           EXIT
000374: 36,3067           07171                           TC       POLY
000375: 36,3070           00001                           DEC      1          B-14
000376: 36,3071           00001 05070                     2DEC     5.66240507 E-4        B-3
000377: 36,3073           17527 36700                     2DEC     9.79487897 E-1        B-1
000378: 36,3075           47114 70670                     2DEC     -.388281955 B1
000379: 36,3077           06006                           TC       INTPRET
000380: 36,3100           67206                           PUSH     SLOAD                                 #  (1-E)**(-DV/VC)=A     B3 PL04D
000381: 36,3101           03076                                    WEIGHT/G
000382: 36,3102           56205                           DMP      DDV                                   #  DTB=(M0/MDOT)A        B16+B3-B3=B16 PL00D
000383: 36,3103           41257                           SL*      DMP
000384: 36,3104           20165                                    0          -12D,1
000385: 36,3105           31733                                    CSUBT
000386: 36,3106           77621                           BDSU
000387: 36,3107           03716                                    T1
000388: 36,3110           03413                           STORE    TIG                                   #  TIG=T1-CT*DTB         B28
000389: 36,3111           77776                           EXIT
000390: 36,3112           33242                           CAF      V6N33RTE                              #  DISPLAY BIASED TIG
000391: 36,3113           03231                           TCR      P370GOF


000393: 36,3114           13112                           TCF      -2
000394: 36,3115           34714                           CAF      ZERO
000395: 36,3116           55125                           TS       VHFCNT
000396: 36,3117           55126                           TS       TRKMKCNT
000397: 36,3120           06006                           TC       INTPRET
000398: 36,3121           77624                           CALL                                           #  CONICALLY INTEGRATE FROM R1,V1 OVER T12
000399: 36,3122           65055                                    RTENCK1
000400: 36,3123           53575                           VLOAD    UNIT                                  #                        PL00D
000401: 36,3124           03656                                    R(T2)/
000402: 36,3125           74315                           PDVL     VXSC                                  #  UR2                   B1 PL06D
000403: 36,3126           03740                                    UR1/
000404: 36,3127           31740                                    MCOS7.5
000405: 36,3130           74315                           PDVL     VXSC                                  #  -UR1(COS7.5)          B1 PL12D
000406: 36,3131           03746                                    UH/
000407: 36,3132           31742                                    MSIN7.5
000408: 36,3133           50255                           VAD      DOT                                   #  K/=-UR1(COS7.5)-UH(SIN7.5)    B2 PL00D
000409: 36,3134           50015                           DAD      BMN
000410: 36,3135           31744                                    MCOS22.5
000411: 36,3136           75163                                    P37W
000412: 36,3137           50375                           VLOAD    DOT                                   #  K/ . UR2 GR COS22.5
000413: 36,3140           03746                                    UH/
000414: 36,3141           03656                                    R(T2)/
000415: 36,3142           71240                           BMN      DLOAD
000416: 36,3143           75147                                    P37U
000417: 36,3144           31746                                    THETA165
000418: 36,3145           52006                           PUSH     GOTO
000419: 36,3146           75151                                    P37V
000420: 36,3147           41545        P37U               DLOAD    PUSH
000421: 36,3150           31750                                    THETA210
000422: 36,3151           77756        P37V               SIN
000423: 36,3152           16732                           STODL    SNTH
000424: 36,3153           43146                           COS      CLEAR
000425: 36,3154           03666                                    RVSW
000426: 36,3155           26734                           STOVL    CSTH
000427: 36,3156           03640                                    R(T1)/
000428: 36,3157           26657                           STOVL    RVEC
000429: 36,3160           03700                                    V2(T1)/
000430: 36,3161           36746                           STCALL   VVEC
000431: 36,3162           24737                                    TIMETHET
000432: 36,3163           43014        P37W               CLEAR    CLEAR
000433: 36,3164           01267                                    XDELVFLG
000434: 36,3165           03665                                    NORMSW
000435: 36,3166           77214                           SET      VLOAD
000436: 36,3167           01071                                    FINALFLG
000437: 36,3170           77626                           STADR
000438: 36,3171           60362                           STODL    RTARG
000439: 36,3172           00037                                    T
000440: 36,3173           77615                           DAD
000441: 36,3174           03716                                    T1
000442: 36,3175           27656                           STOVL    TPASS4


000444: 36,3176           03700                                    V2(T1)/
000445: 36,3177           77651                           VSU
000446: 36,3200           03672                                    V(T1)/
000447: 36,3201           37646                           STCALL   DELVSIN
000448: 36,3202           73005                                    VN1645
000449: 36,3203           77650                           GOTO
000450: 36,3204           75163                                    P37W
000451:
000452:                                                                                                  #  SUBROUTINE TO GO TO GOFLASHR AND BLANK R1
000453:
000454: 36,3205           00006        P37GFRB1           EXTEND
000455: 36,3206           23762                           QXCH     SPRTEX
000456: 36,3207           03215                           TCR      P370GOFR
000457: 36,3210           34712        37BLANK            CAF      ONE
000458: 36,3211           05415                           TCR      BLANKET
000459: 36,3212           15112                           TCF      ENDOFJOB
000460: 36,3213           01762                           TC       SPRTEX                                #  RECYCLE
000461: 36,3214           13240                           TCF      P37PROC                               #  PROCEED
000462:
000463:                                                                                                  #  SUBROUTINE TO GO TO GOFLASHR
000464:
000465: 36,3215           00006        P370GOFR           EXTEND
000466: 36,3216           23733                           QXCH     RTENCKEX
000467: 36,3217           04555                           TCR      BANKCALL
000468: 36,3220           20763                           CADR     GOFLASHR
000469: 36,3221           14106                           TCF      GOTOPOOH                              #  TERMINATE
000470: 36,3222           13225                           TCF      +3
000471: 36,3223           13227                           TCF      +4
000472: 36,3224           01733                           TC       RTENCKEX                              #  IMMEDIATE RETURN
000473: 36,3225           51733                           INDEX    RTENCKEX                              #  PROCEED
000474: 36,3226           10004                           TCF      0          +4
000475: 36,3227           51733                           INDEX    RTENCKEX                              #  RECYCLE
000476: 36,3230           10003                           TCF      0          +3
000477:
000478:                                                                                                  #  SUBROUTINE TO GO TO GOFLASH
000479:
000480: 36,3231           00006        P370GOF            EXTEND
000481: 36,3232           23762                           QXCH     SPRTEX
000482: 36,3233           04555                           TCR      BANKCALL
000483: 36,3234           20624                           CADR     GOFLASH
000484: 36,3235           14106                           TCF      GOTOPOOH
000485: 36,3236           13240                           TCF      +2
000486: 36,3237           01762                           TC       SPRTEX
000487: 36,3240           51762        P37PROC            INDEX    SPRTEX
000488: 36,3241           10001                           TCF      0          +1
000489: 36,3242           01441        V6N33RTE           VN       0633
000490: 36,3243           01006        V4N06RTE           VN       0406
000491: 36,3244           01475        V6N61RTE           VN       0661
000492: 36,3245           01447        V6N39RTE           VN       0639
000493: 36,3246           01474        V6N60RTE           VN       0660


000495: 36,3247           01521        V6N81RTE           VN       0681
000496: 32,2255                                           BANK     32
000497: 32,2000                                           SETLOC   RTE
000498: 32,2000                                           BANK
000499: 32,2255                                           COUNT    32/RTE
000500:


000502:                                                                                                  #  ALARM DISPLAY SUBROUTINE
000503:
000504: 32,2255           77420        P370ALRM           STQ      EXIT
000505: 32,2256           03762                                    SPRTEX
000506: 32,2257           30154                           CA       MPAC
000507: 32,2260           05651                           TC       VARALARM
000508: 32,2261           32271                           CAF      V5N09RTE
000509: 32,2262           04555                           TC       BANKCALL
000510: 32,2263           20624                           CADR     GOFLASH
000511: 32,2264           14106                           TCF      GOTOPOOH
000512: 32,2265           12261                           TCF      -4
000513: 32,2266           06006                           TC       INTPRET
000514: 32,2267           77650                           GOTO
000515: 32,2270           03762                                    SPRTEX
000516: 32,2271           01211        V5N09RTE           VN       0509
000517:


000519:                                                                                                  #  TIME RADIUS CALLING SUBROUTINE
000520:
000521:                                                                                                  #  INPUT
000522:                                                                                                  #        RVEC            INITIAL POSITION VECTOR                                 VECTOR  B29     METERS
000523:                                                                                                  #        VVEC            INITIAL VELOCITY VECTOR                                 VECTOR  B7      METERS/CS
000524:                                                                                                  #        RDESIRED        FINAL RADIUS FOR WHICH TRANSFER TIME IS TO BE COMPUTED  DP      B29     METERS
000525:                                                                                                  #        CONICX1         X1 SETTING FOR CONIC SUBROUTINES        -2=EARTH        SP      B14
000526:
000527:                                                                                                  #  OUTPUT
000528:                                                                                                  #        R(T2)/          FINAL POSITION VECTOR                                   VECTOR  B29     METERS
000529:                                                                                                  #        V(T2)/          FINAL VELOCITY VECTOR                                   VECTOR  B7      METERS/CS
000530:                                                                                                  #        T12             TRANSFER TIME TO FINAL RADIUS                           DP      B28     CS
000531:
000532: 32,2272           43020        TMRAD100           STQ      CLEAR
000533: 32,2273           03733                                    RTENCKEX
000534: 32,2274           03666                                    RVSW
000535: 32,2275           67164                           AXC,2    SXA,2
000536: 32,2276           20000                           OCT      20000
000537: 32,2277           02756                                    SGNRDOT
000538: 32,2300           45140                           LXC,1    CALL
000539: 32,2301           03734                                    CONICX1
000540: 32,2302           25552                                    TIMERAD
000541: 32,2303           27710                           STOVL    V(T2)/                                #                        PL00D
000542: 32,2304           77626                           STADR
000543: 32,2305           60121                           STODL    R(T2)/
000544: 32,2306           00037                                    T
000545: 32,2307           37724                           STCALL   T12
000546: 32,2310           03733                                    RTENCKEX
000547:


000549:                                                                                                  #  DISPLAY CALCULATION SUBROUTINE
000550:
000551:                                                                                                  #  DESCRIPTION
000552:                                                                                                  #        OUTPUT FOR DISPLAY IS CONVERTED TO PROPER UNITS AND PLACED IN OUTPUT STORAGE REGISTERS.  LANDING SITE
000553:                                                                                                  #        COMPUTATION FOR DETERMINING LANDING SITE LATITUDE AND LONGITUDE IS INCLUDED IN THE ROUTINE.
000554:
000555:                                                                                                  #  CALLING SEQUENCE
000556:                                                                                                  #        L       CALL
000557:                                                                                                  #        L+1             RTEDISP
000558:
000559:                                                                                                  #  SUBROUTINES CALLED
000560:                                                                                                  #        TMRAD100
000561:                                                                                                  #        AUGEKUGL
000562:                                                                                                  #        LAT-LONG
000563:
000564:                                                                                                  #  ERASABLE INITIALIZATION REQUIRED
000565:                                                                                                  #     PUSHLIST
000566:                                                                                                  #        NONE
000567:                                                                                                  #     MPAC
000568:                                                                                                  #        NONE
000569:                                                                                                  #     OTHER
000570:                                                                                                  #        R(T2)/          FINAL POSITION VECTOR                                   VECTOR  B29     METERS
000571:                                                                                                  #        V(T2)/          FINAL VELOCITY VECTOR                                   VECTOR  B7      METERS/CS
000572:                                                                                                  #        T2              FINAL TIME                                              DP      B28     CS
000573:                                                                                                  #        V2(T1)/         POST IMPULSE INITIAL VELOCITY VECTOR                    VECTOR  B7      METERS/CS
000574:                                                                                                  #        V(T1)/          INITIAL VELOCITY VECTOR                                 VECTOR  B7      METERS/CS
000575:                                                                                                  #        UR1/            UNIT INITIAL VECTOR                                     VECTOR  B1
000576:                                                                                                  #        UH/             UNIT HORIZONTAL VECTOR                                  VECTOR  B1
000577:
000578:                                                                                                  #  OUTPUT
000579:                                                                                                  #        VPRED           VELOCITY MAGNITUDE AT 400,000 FT. ENTRY ALTITUDE        DP      B7      METERS/CS
000580:                                                                                                  #        T3TOT4          TRANSIT TIME TO 400,000 FT. ENTRY ALTITUDE              DP      B28     CS
000581:                                                                                                  #        GAMMAEI         FLIGHT PATH ANGLE AT 400,000 FT. ENTRY ALTITUDE         DP      B0      REVS + ABOVE HORIZ
000582:                                                                                                  #        DELVLVC         INITIAL VELOCITY CHANGE VECTOR IN LOCAL VERTICAL COORD. VECTOR  B7      METERS/CS
000583:                                                                                                  #        LAT(SPL)        LATITUDE OF THE LANDING SITE                            DP      B0      REVS
000584:                                                                                                  #        LNG(SPL)        LONGITUDE OF THE LANDING SITE                           DP      B0      REVS
000585:
000586: 32,2311           77220        RTEDISP            STQ      VLOAD                                 #  DISPLAY
000587: 32,2312           03762                                    SPRTEX
000588: 32,2313           03710                                    V(T2)/
000589: 32,2314           65256                           UNIT     PDDL
000590: 32,2315           00045                                    36D
000591: 32,2316           17767                           STODL    VPRED                                 #  V(T2)
000592: 32,2317           03736                                    T2
000593: 32,2320           77625                           DSU
000594: 32,2321           03413                                    SPRTETIG
000595: 32,2322           26641                           STOVL    T3TOT4                                #  T21
000596: 32,2323           03656                                    R(T2)/
000597: 32,2324           50256                           UNIT     DOT
000598: 32,2325           77752                           SL1


000600: 32,2326           44326                           ARCCOS   BDSU
000601: 32,2327           31655                                    1RTEB2
000602: 32,2330           27771                           STOVL    GAMMAEI                               #  FLIGHT PATH ANGLE T2
000603: 32,2331           03700                                    V2(T1)/
000604: 32,2332           41451                           VSU      PUSH
000605: 32,2333           03672                                    V(T1)/
000606: 32,2334           57441                           DOT      DCOMP
000607: 32,2335           03740                                    UR1/
000608: 32,2336           41515                           PDVL     PUSH
000609: 32,2337           63345                           DLOAD    PDVL
000610: 32,2340           31677                                    ZERORTE
000611: 32,2341           55441                           DOT      VDEF
000612: 32,2342           03746                                    UH/
000613: 32,2343           77772                           VSL1
000614: 32,2344           27405                           STOVL    DELVLVC                               #  DV/ (LVC)
000615: 32,2345           03656                                    R(T2)/
000616: 32,2346           02657                           STORE    RVEC                                  #  ***** LANDING SITE COMPUTATION *****
000617: 32,2347           45246                           ABVAL    DSU
000618: 32,2350           31723                                    30480RTE
000619: 32,2351           26760                           STOVL    RDESIRED
000620: 32,2352           03710                                    V(T2)/
000621: 32,2353           36746                           STCALL   VVEC
000622: 32,2354           64272                                    TMRAD100                              #  R3,V3,T23 FROM TIMERAD
000623: 32,2355           53575                           VLOAD    UNIT
000624: 32,2356           03656                                    R(T2)/
000625: 32,2357           53515                           PDVL     UNIT                                  #  UR3                           PL06D
000626: 32,2360           03710                                    V(T2)/
000627: 32,2361           72441                           DOT      SL1                                   #  GAMMAE=ARCSIN(UR3 . UV3)      PL00D
000628: 32,2362           65336                           ARCSIN   PDDL                                  #  V(T3)                         PL02D
000629: 32,2363           00045                                    36D
000630: 32,2364           51525                           PDDL     ABS
000631: 32,2365           45006                           PUSH     CALL                                  #  /GAMMAE/                      PL04D
000632: 32,2366           64075                                    AUGEKUGL                              #  PHIE                          PL06D
000633: 32,2367           43215                           DAD      DAD
000634: 32,2370           03724                                    T12                                   #  T23
000635: 32,2371           03736                                    T2
000636: 32,2372           14003                           STODL    02D                                   #  T(LS)=T2+T23+TE
000637: 32,2373           00005                                    04D
000638: 32,2374           77756                           SIN
000639: 32,2375           17403                           STODL    LNG(SPL)                              #  LNG(SPL)=SIN(PHIE)            PL04D
000640: 32,2376           77746                           COS
000641: 32,2377           03401                           STORE    LAT(SPL)                              #  LAT(SPL)=COS(PHIE)
000642: 32,2400           53575                           VLOAD    UNIT
000643: 32,2401           03656                                    R(T2)/
000644: 32,2402           41406                           PUSH     PUSH
000645: 32,2403           53515                           PDVL     UNIT                                  #                                PL22D
000646: 32,2404           03710                                    V(T2)/
000647: 32,2405           47315                           PDVL     VXV
000648: 32,2406           53435                           VXV      UNIT                                  #  UH3=UNIT(UR3 X UV3 X UR3)     PL10D
000649: 32,2407           63361                           VXSC     PDVL


000651: 32,2410           03403                                    LNG(SPL)
000652: 32,2411           53361                           VXSC     VAD                                   #                                PL04D
000653: 32,2412           03401                                    LAT(SPL)
000654: 32,2413           43014                           CLEAR    CLEAR                                 #  T(LS) IN MPAC
000655: 32,2414           00662                                    ERADFLAG
000656: 32,2415           01663                                    LUNAFLAG
000657: 32,2416           16152                           STODL    ALPHAV                                #  ALPHAV=UR3(COSPHIE)+UH3(SINPHIE) PL02D
000658: 32,2417           77624                           CALL
000659: 32,2420           26322                                    LAT-LONG
000660: 32,2421           77745                           DLOAD
000661: 32,2422           01104                                    LAT
000662: 32,2423           17401                           STODL    LAT(SPL)                              #  LATITUDE LANDING SITE  *****
000663: 32,2424           01106                                    LONG
000664: 32,2425           37403                           STCALL   LNG(SPL)                              #  LONGITUDE LANDING SITE *****
000665: 32,2426           03762                                    SPRTEX
000666: 32,2427                                           COUNT*   $$/RTE
000667:


000669:                                                                                                  #  INITIAL VECTOR SUBROUTINE
000670:
000671:                                                                                                  #  DESCRIPTION
000672:                                                                                                  #        A PRECISION INTEGRATION OF THE STATE VECTOR TO THE TIME OF IGNITION IS PERFORMED.  PRECOMPUTATIONS OCCUR.
000673:
000674:                                                                                                  #  CALLING SEQUENCE
000675:                                                                                                  #        L       CALL
000676:                                                                                                  #        L+1             INVC100
000677:
000678:                                                                                                  #  NORMAL EXIT MODE
000679:                                                                                                  #        AT L+2 OF CALLING SEQUENCE WITH MPAC = 0
000680:
000681:                                                                                                  #  ALARM EXIT MODE
000682:                                                                                                  #        AT L+2 OF CALLING SEQUENCE WITH MPAC = OCTAL 612 FOR STATE VECTOR IN MOONS SPHERE OF INFLUENCE
000683:
000684:                                                                                                  #  SUBROUTINES CALLED
000685:                                                                                                  #        CSMPREC
000686:
000687:                                                                                                  #  ERASABLE INITIALIZATION REQUIRED
000688:                                                                                                  #     PUSHLIST
000689:                                                                                                  #        NONE
000690:                                                                                                  #     MPAC
000691:                                                                                                  #        NONE
000692:                                                                                                  #     OTHER
000693:                                                                                                  #        SPRTETIG        TIME OF IGNITION                                        DP      B28     CS
000694:                                                                                                  #        CSM STATE VECTOR
000695:
000696:                                                                                                  #  OUTPUT
000697:                                                                                                  #        R(T1)/          INITIAL POSITION VECTOR AT TIG                          VECTOR  B29     METERS
000698:                                                                                                  #        V(T1)/          INITIAL VELOCITY VECTOR AT TIG                          VECTOR  B7      METERS/CS
000699:                                                                                                  #        T1              INITIAL VECTOR TIME (TIG)                               DP      B28     CS
000700:                                                                                                  #        UR1/            UNIT INITIAL VECTOR                                     VECTOR  B1
000701:                                                                                                  #        UH/             UNIT HORIZONTAL VECTOR                                  VECTOR  B1
000702:                                                                                                  #        CFPA            COSINE OF INITIAL FLIGHT PATH ANGLE                     DP      B1
000703:
000704: 32,2427           71220        INVC100            STQ      DLOAD
000705: 32,2430           03762                                    SPRTEX
000706: 32,2431           03413                                    SPRTETIG
000707: 32,2432           34041                           STCALL   TDEC1
000708: 32,2433           27022                                    CSMPREC                               #  PRECISION INTEGRATION  R0,V0 TO R1,V1
000709: 32,2434           67175                           VLOAD    SXA,2
000710: 32,2435           00001                                    RATT
000711: 32,2436           03755                                    P(T1)
000712: 32,2437           27640                           STOVL    R(T1)/
000713: 32,2440           00007                                    VATT
000714: 32,2441           17672                           STODL    V(T1)/
000715: 32,2442           00015                                    TAT
000716: 32,2443           03716                           STORE    T1
000717: 32,2444           53135                           SLOAD    BZE
000718: 32,2445           03756                                    P(T1)


000720: 32,2446           64452                                    INVC109
000721: 32,2447           52135        INVC107            SLOAD    GOTO
000722: 32,2450           31736                                    OCT612
000723: 32,2451           74772                                    RTEALRM                               #  R1,V1 NOT IN PROPER SPHERE OF INFLUENCE
000724: 32,2452           53575        INVC109            VLOAD    UNIT
000725: 32,2453           03640                                    R(T1)/
000726: 32,2454           17740                           STODL    UR1/                                  #  UR1/                                  B1
000727: 32,2455           00045                                    36D
000728: 32,2456           27646                           STOVL    R(T1)                                 #  R(T1)                                 B29
000729: 32,2457           03672                                    V(T1)/
000730: 32,2460           77656                           UNIT
000731: 32,2461           03746                           STORE    UV1/
000732: 32,2462           72441                           DOT      SL1
000733: 32,2463           03740                                    UR1/
000734: 32,2464           03757                           STORE    CFPA                                  #  CFPA                                  B1
000735: 32,2465           45246                           ABS      DSU
000736: 32,2466           31752                                    EPC1RTE
000737: 32,2467           71240                           BMN      DLOAD
000738: 32,2470           64477                                    INVC115                               #  NOT NEAR RECTILINEAR
000739: 32,2471           31655                                    1RTEB2
000740: 32,2472           41525                           PDDL     PUSH
000741: 32,2473           31677                                    ZERORTE
000742: 32,2474           41466                           VDEF     PUSH                                  #  N/ = (0,0,1)
000743: 32,2475           77650                           GOTO
000744: 32,2476           64503                                    INVC120
000745: 32,2477           47375        INVC115            VLOAD    VXV
000746: 32,2500           03740                                    UR1/
000747: 32,2501           03746                                    UV1/
000748: 32,2502           77606                           PUSH                                           #  N/ = UR X UV                          B2
000749: 32,2503           41545        INVC120            DLOAD    PUSH
000750: 32,2504           77244                           BPL      VLOAD
000751: 32,2505           64507                                    INVC125
000752: 32,2506           41476                           VCOMP    PUSH                                  #  CORRECT N/ FOR RETROGRADE TRAJECTORY
000753: 32,2507           77775        INVC125            VLOAD
000754: 32,2510           53435                           VXV      UNIT
000755: 32,2511           03740                                    UR1/
000756: 32,2512           03746                           STORE    UH/                                   #  UH/                                   B1
000757: 32,2513           77650                           GOTO
000758: 32,2514           03762                                    SPRTEX
000759:


000761:                                                                                                  #  PRECISION TRAJECTORY COMPUTATION SUBROUTINE
000762:
000763:                                                                                                  #  DESCRIPTION
000764:                                                                                                  #        A NUMERICALLY INTEGRATED TRAJECTORY IS GENERATED WHICH FOR THE RETURN TO EARTH PROBLEM SATISFIES THE REENTRY
000765:                                                                                                  #        CONSTRAINTS (RCON AND X(T2)) ACHIEVED BY THE INITIAL CONIC TRAJECTORY AND MEETS THE DVD REQUIREMENT AS CLOSELY
000766:                                                                                                  #        AS POSSIBLE.
000767:
000768:                                                                                                  #  CALLING SEQUENCE
000769:                                                                                                  #        L       CALL
000770:                                                                                                  #        L+1             PREC100
000771:
000772:                                                                                                  #  NORMAL EXIT MODE
000773:                                                                                                  #        AT L+2 OF CALLING SEQUENCE WITH MPAC = 0
000774:
000775:                                                                                                  #  ALARM EXIT MODE
000776:                                                                                                  #        AT L+2 OF CALLING SEQUENCE WITH MPAC =
000777:                                                                                                  #                OCTAL 605       FOR EXCESS ITERATIONS
000778:                                                                                                  #                OCTAL 613       FOR REENTRY ANGLE OUT OF LIMITS
000779:
000780:                                                                                                  #  SUBROUTINES CALLED
000781:                                                                                                  #        INTSTALL
000782:                                                                                                  #        RTENCK2
000783:                                                                                                  #        RTENCK3
000784:                                                                                                  #        TIMERAD
000785:                                                                                                  #        PARAM
000786:                                                                                                  #        V2T100
000787:
000788:                                                                                                  #  ERASABLE INITIALIZATION REQUIRED
000789:                                                                                                  #     PUSHLIST
000790:                                                                                                  #        NONE
000791:                                                                                                  #     MPAC
000792:                                                                                                  #        NONE
000793:                                                                                                  #     OTHER
000794:                                                                                                  #        R(T1)/          INITIAL POSITION VECTOR                                 VECTOR  B29/B27 METERS
000795:                                                                                                  #        V2(T1)/         POST IMPULSE INITIAL VELOCITY VECTOR                    VECTOR  B7/B5   METERS/CS
000796:                                                                                                  #        V(T1)/          INITIAL VELOCITY VECTOR                                 VECTOR  B7/B5   METERS/CS
000797:                                                                                                  #        T1              INITIAL VECTOR TIME                                     DP      B28     CS
000798:                                                                                                  #        T12             INITIAL TO FINAL POSITION TIME                          DP      B28     CS
000799:                                                                                                  #        RCON            CONIC FINAL RADIUS                                      DP      B29/B27 METERS
000800:                                                                                                  #        R(T1)           MAGNITUDE OF INITIAL POSITION VECTOR                    DP      B29/B27 METERS
000801:                                                                                                  #        X(T2)           COTANGENT OF FINAL FLIGHT PATH ANGLE                    DP      B0
000802:                                                                                                  #        X(T1)           COTANGENT OF INITIAL FLIGHT PATH ANGLE                  DP      B5
000803:                                                                                                  #        RTEDVD          DELTA VELOCITY DESIRED                                  DP      B7/B5   METERS/CS
000804:                                                                                                  #        MAMAX1          MAJOR AXIS LIMIT FOR LOWER BOUND ON GAMDV ITERATOR      DP      B30/B28 METERS
000805:                                                                                                  #        MAMAX2          MAJOR AXIS LIMIT FOR UPPER BOUND ON GAMDV ITERATOR      DP      B30/B28 METERS
000806:                                                                                                  #        UR1/            UNIT INITIAL VECTOR                                     VECTOR  B1
000807:                                                                                                  #        UH/             UNIT HORIZONTAL VECTOR                                  VECTOR  B1
000808:                                                                                                  #        BETA1           1+X(T2)**2                                              DP      B1
000809:                                                                                                  #        PHI2            PERIGEE OR APOGEE INDICATOR                             DP      B2      -1 PERIGEE, +1 APOGEE


000811:
000812:                                                                                                  #  OUTPUT
000813:                                                                                                  #        V2(T1)/         POST IMPULSE INITIAL VELOCITY VECTOR                    VECTOR  B7      METERS/CS
000814:                                                                                                  #        R(T2)/          FINAL POSITION VECTOR                                   VECTOR  B29     METERS
000815:                                                                                                  #        V(T2)/          FINAL VELOCITY VECTOR                                   VECTOR  B7      METERS/CS
000816:                                                                                                  #        T2              FINAL TIME                                              DP      B28     CENTISECONDS
000817:
000818:                                                                                                  #  DEBRIS
000819:                                                                                                  #        RD              FINAL R DESIRED                                         DP      B29/B27 METERS
000820:                                                                                                  #        R/APRE          R/A                                                     DP      B6
000821:                                                                                                  #        P/RPRE          P/R                                                     DP      B2
000822:                                                                                                  #        RPRE            MAGNITUDE OF R(T2)/                                     DP      B29/B27 METERS
000823:                                                                                                  #        X(T2)PRE        COTANGENT OF GAMMA2                                     DP      B0
000824:                                                                                                  #        DT12            CORRECTION TO FINAL TIME T2                             DP      B28     CENTISECONDS
000825:                                                                                                  #        RCON            FINAL RADIUS                                            DP      B29/B27 METERS
000826:                                                                                                  #        DRCON           DELTA RCON                                              DP      B29/B27 METERS
000827:
000828: 32,2515           71220        PREC100            STQ      DLOAD
000829: 32,2516           03762                                    SPRTEX
000830: 32,2517           31705                                    10RTE
000831: 32,2520           17730                           STODL    NN1A
000832: 32,2521           03636                                    RCON
000833: 32,2522           03664                           STORE    RD
000834: 32,2523           77745        PREC120            DLOAD
000835: 32,2524           31715                                    2RTEB1
000836: 32,2525           17650                           STODL    DT21PR                                #  DT21PR = POSMAX
000837: 32,2526           31703                                    M15RTE
000838: 32,2527           37732                           STCALL   NN2
000839: 32,2530           65103                                    RTENCK3
000840: 32,2531           77624        PREC125            CALL
000841: 32,2532           11527                                    PARAM
000842: 32,2533           77745                           DLOAD
000843: 32,2534           02742                                    P
000844: 32,2535           14033                           STODL    P/RPRE
000845: 32,2536           02744                                    R1A
000846: 32,2537           14035                           STODL    R/APRE
000847: 32,2540           00041                                    R1
000848: 32,2541           14031                           STODL    RPRE
000849: 32,2542           03775                                    COGA
000850: 32,2543           77661                           SL
000851: 32,2544           20206                                    5
000852: 32,2545           03724                           STORE    X(T2)PRE
000853: 32,2546           43276                           DCOMP    DAD
000854: 32,2547           03726                                    X(T2)
000855: 32,2550           45246                           ABS      DSU
000856: 32,2551           31760                                    EPC4RTE
000857: 32,2552           50000                           BOV      BMN
000858: 32,2553           64555                                    PREC130
000859: 32,2554           64736                                    PREC175
000860:
000861:                                                                                                  #  DESIRED REENTRY ANGLE NOT ACHIEVED


000863: 32,2555           50145        PREC130            DLOAD    BMN
000864: 32,2556           03732                                    NN2
000865: 32,2557           64563                                    PREC140
000866: 32,2560           52135        PREC132            SLOAD    GOTO                                  #  TOO MANY ITERATIONS
000867: 32,2561           31735                                    OCT605                                #        EXIT WITH ALARM
000868: 32,2562           65053                                    PRECX
000869:
000870:                                                                                                  #  DETERMINE RADIUS AT WHICH THE DESIRED REENTRY ANGLE WILL BE ACHIEVED
000871:
000872: 32,2563           53145        PREC140            DLOAD    BZE
000873: 32,2564           03730                                    NN1A
000874: 32,2565           64616                                    PREC162
000875: 32,2566           42545        PREC150            DLOAD    SL4                                   #  ELLIPTIC CASE
000876: 32,2567           00035                                    R/APRE
000877: 32,2570           52525                           PDDL     SL3                                   #                                PL02D
000878: 32,2571           00033                                    P/RPRE
000879: 32,2572           41205                           DMP      DMP                                   #  (P/A)BETA1                    B4 PL00D
000880: 32,2573           03754                                    BETA1
000881: 32,2574           57512                           SL2      DCOMP
000882: 32,2575           50015                           DAD      BMN                                   #  1-(P/A)BETA1=BETA2            B2
000883: 32,2576           31655                                    1RTEB2
000884: 32,2577           64602                                    PREC155
000885: 32,2600           52166                           SQRT     GOTO                                  #  BETA2**.5=BETA3               B1
000886: 32,2601           64604                                    PREC160
000887: 32,2602           77745        PREC155            DLOAD
000888: 32,2603           31677                                    ZERORTE                               #  BETA3=0
000889: 32,2604           43205        PREC160            DMP      DAD
000890: 32,2605           03761                                    PHI2
000891: 32,2606           31657                                    1RTEB3
000892: 32,2607           60325                           PDDL     NORM                                  #  1+(PHI2)(BETA3)               B3
000893: 32,2610           00035                                    R/APRE
000894: 32,2611           00047                                    X1
000895: 32,2612           77665                           BDDV                                           #                                PL00D
000896: 32,2613           52057                           SL*      GOTO                                  #  (1+PHI2*BETA3)/(R/A)=BETA4    B1
000897: 32,2614           20175                                    0          -4,1
000898: 32,2615           64624                                    PREC165
000899: 32,2616           60345        PREC162            DLOAD    NORM
000900: 32,2617           00031                                    RPRE
000901: 32,2620           00047                                    X1
000902: 32,2621           53665                           BDDV     SL*                                   #  BETA4=RD/RPRE                 B1
000903: 32,2622           03664                                    RD
000904: 32,2623           20200                                    0          -1,1
000905: 32,2624           45206        PREC165            PUSH     DSU
000906: 32,2625           31653                                    1RTEB1
000907: 32,2626           77676                           DCOMP
000908: 32,2627           03765                           STORE    BETA12
000909: 32,2630           71240                           BMN      DLOAD
000910: 32,2631           64642                                    PREC168
000911: 32,2632           03724                                    X(T2)PRE
000912: 32,2633           71240                           BMN      DLOAD


000914: 32,2634           64640                                    PREC167
000915: 32,2635           03765                                    BETA12
000916: 32,2636           77676                           DCOMP
000917: 32,2637           03765                           STORE    BETA12
000918: 32,2640           77745        PREC167            DLOAD
000919: 32,2641           03765                                    BETA12
000920: 32,2642           45246        PREC168            ABS      DSU
000921: 32,2643           31764                                    EPC6RTE
000922: 32,2644           71240                           BMN      DLOAD
000923: 32,2645           64736                                    PREC175
000924: 32,2646           72405                           DMP      SL1
000925: 32,2647           00031                                    RPRE
000926: 32,2650           77606                           PUSH                                           #  RF = NEW RADIUS
000927: 32,2651           43345        PREC170            DLOAD    DAD
000928: 32,2652           03732                                    NN2
000929: 32,2653           31675                                    1RTEB28
000930: 32,2654           03732                           STORE    NN2
000931: 32,2655           43175                           VLOAD    SET
000932: 32,2656           03656                                    R(T2)/
000933: 32,2657           03466                                    RVSW
000934: 32,2660           26657                           STOVL    RVEC
000935: 32,2661           03710                                    V(T2)/
000936: 32,2662           77765                           SIGN
000937: 32,2663           03765                                    BETA12
000938: 32,2664           16746                           STODL    VVEC
000939: 32,2665           31653                                    1RTEB1
000940: 32,2666           57565                           SIGN     DCOMP
000941: 32,2667           03765                                    BETA12
000942: 32,2670           71354                           LXA,2    DLOAD
000943: 32,2671           00154                                    MPAC
000944: 32,2672           67140                           LXC,1    SXA,2
000945: 32,2673           03734                                    CONICX1
000946: 32,2674           02756                                    SGNRDOT
000947: 32,2675           36760                           STCALL   RDESIRED                              #  COMPUTE DT12 (CORRECTION TO TIME OF
000948: 32,2676           25552                                    TIMERAD                               #        NEW RADIUS)
000949: 32,2677           75345                           DLOAD    SIGN
000950: 32,2700           00037                                    T
000951: 32,2701           03765                                    BETA12
000952: 32,2702           60325                           PDDL     NORM                                  #  DT21=(PHI4)DT21               PL02D
000953: 32,2703           03650                                    DT21PR
000954: 32,2704           00047                                    X1
000955: 32,2705           53665                           BDDV     SL*
000956: 32,2706           00001                                    00D
000957: 32,2707           20176                                    0          -3,1
000958: 32,2710           50006                           PUSH     BMN                                   #  BETA13=(DT21)/(DT21PR)        B3 PL04D
000959: 32,2711           64716                                    PREC172
000960: 32,2712           65345                           DLOAD    PDDL                                  #  BETA14=1                      B0 PL04D
000961: 32,2713           31715                                    2RTEB1
000962: 32,2714           77650                           GOTO
000963: 32,2715           64720                                    PREC173


000965: 32,2716           65345        PREC172            DLOAD    PDDL                                  #  BETA14=.6                     B0 PL04D
000966: 32,2717           31707                                    M.6RTE
000967: 32,2720           45271        PREC173            DDV      DSU
000968: 32,2721           00003                                    02D
000969: 32,2722           31657                                    1RTEB3
000970: 32,2723           71240                           BMN      DLOAD
000971: 32,2724           64730                                    PREC174
000972: 32,2725           77605                           DMP
000973: 32,2726           03650                                    DT21PR
000974: 32,2727           00001                           STORE    00D                                   #  DT21=(BETA14)DT21PR           B28
000975: 32,2730           41545        PREC174            DLOAD    PUSH
000976: 32,2731           00001                                    00D
000977: 32,2732           37650                           STCALL   DT21PR
000978: 32,2733           65065                                    RTENCK2
000979: 32,2734           77650                           GOTO
000980: 32,2735           64531                                    PREC125
000981: 32,2736           45345        PREC175            DLOAD    DSU
000982: 32,2737           00031                                    RPRE
000983: 32,2740           03664                                    RD
000984: 32,2741           51406                           PUSH     ABS                                   #  RPRE-RD = RERR
000985: 32,2742           50025                           DSU      BMN
000986: 32,2743           31766                                    EPC7RTE
000987: 32,2744           65037                                    PREC220
000988:
000989:                                                                                                  #  DESIRED RADIUS HAS NOT BEEN ACHIEVED
000990:
000991: 32,2745           53145                           DLOAD    BZE
000992: 32,2746           03730                                    NN1A
000993: 32,2747           64560                                    PREC132                               #  TOO MANY ITERATIONS
000994: 32,2750           53025                           DSU      BZE
000995: 32,2751           31705                                    10RTE
000996: 32,2752           65005                                    PREC207
000997: 32,2753           45345        PREC205            DLOAD    DSU                                   #  NOT FIRST PASS OF ITERATION
000998: 32,2754           03670                                    RPRE'
000999: 32,2755           00031                                    RPRE                                  #  RPRE,-RPRE                    B29/B27
001000: 32,2756           55301                           NORM     BDDV
001001: 32,2757           00050                                    X2
001002: 32,2760           03666                                    DRCON
001003: 32,2761           41457                           SL*      PUSH                                  #  DRCON/(RPRE,-RPRE)=S          B2
001004: 32,2762           57600                                    0          -2,2
001005: 32,2763           40015                           DAD      BOV                                   #  S GR +4 OR LS -4
001006: 32,2764           31653                                    1RTEB1
001007: 32,2765           64772                                    PREC205M
001008: 32,2766           45246                           ABS      DSU
001009: 32,2767           31653                                    1RTEB1
001010: 32,2770           77640                           BMN
001011: 32,2771           64775                                    PREC206
001012: 32,2772           57545        PREC205M           DLOAD    DCOMP                                 #  S GR 0 OR LS -4
001013: 32,2773           31715                                    2RTEB1
001014: 32,2774           77725                           PDDL                                           #  S=-4                          B2


001016: 32,2775           41345        PREC206            DLOAD    DMP
001017: 32,2776           77712                           SL2
001018: 32,2777           03666                           STORE    DRCON                                 #  DRCON=S(RERR)                 B29
001019: 32,3000           77615                           DAD
001020: 32,3001           03636                                    RCON
001021: 32,3002           03636                           STORE    RCON                                  #  RCON+DRCON=RCON
001022: 32,3003           77650                           GOTO
001023: 32,3004           65024                                    PREC210
001024: 32,3005           63545        PREC207            DLOAD    DSQ                                   #  FIRST PASS OF ITERATION
001025: 32,3006           03664                                    RD
001026: 32,3007           70501                           NORM     SR1
001027: 32,3010           00047                                    X1
001028: 32,3011           60325                           PDDL     NORM
001029: 32,3012           00031                                    RPRE
001030: 32,3013           00050                                    X2
001031: 32,3014           55260                           XSU,1    BDDV
001032: 32,3015           00047                                    X2
001033: 32,3016           77657                           SR*
001034: 32,3017           20600                                    0          -1,1
001035: 32,3020           03636                           STORE    RCON                                  #  RD**2/RPRE=RCON
001036: 32,3021           77625                           DSU
001037: 32,3022           03664                                    RD
001038: 32,3023           03666                           STORE    DRCON                                 #  RCON-RD=DRCON
001039: 32,3024           77745        PREC210            DLOAD                                          #  PREPARE FOR NEXT ITERATION
001040: 32,3025           00031                                    RPRE
001041: 32,3026           17670                           STODL    RPRE'
001042: 32,3027           03730                                    NN1A
001043: 32,3030           77625                           DSU
001044: 32,3031           31675                                    1RTEB28
001045: 32,3032           37730                           STCALL   NN1A
001046: 32,3033           65136                                    V2T100
001047: 32,3034           52030                           BHIZ     GOTO
001048: 32,3035           64523                                    PREC120
001049: 32,3036           65053                                    PRECX
001050:
001051:                                                                                                  #  DESIRED RADIUS ACHIEVED
001052:
001053: 32,3037           45345        PREC220            DLOAD    DSU
001054: 32,3040           03726                                    X(T2)
001055: 32,3041           03724                                    X(T2)PRE
001056: 32,3042           45246                           ABS      DSU
001057: 32,3043           31770                                    EPC8RTE
001058: 32,3044           67240                           BMN      SLOAD
001059: 32,3045           65051                                    PREC225
001060: 32,3046           31737                                    OCT613
001061: 32,3047           77650                           GOTO
001062: 32,3050           65053                                    PRECX                                 #  IF REENTRY ANGLE OUT OF LIMITS
001063:
001064:                                                                                                  #  DESIRED FINAL ANGLE HAS BEEN REACHED


001066:
001067: 32,3051           77745        PREC225            DLOAD
001068: 32,3052           31677                                    ZERORTE
001069: 32,3053           77650        PRECX              GOTO
001070: 32,3054           03762                                    SPRTEX
001071:


001073:                                                                                                  #  INTEGRATION CALLING SUBROUTINE
001074:
001075:                                                                                                  #  DESCRIPTION
001076:                                                                                                  #        PERFORMS CONIC AND PRECISION INTEGRATIONS USING SUBROUTINE INTEGRVS.  THERE ARE THREE ENTRANCES (RTENCK1,
001077:                                                                                                  #        RTENCK2 AND RTENCK3) FOR DIFFERENT SOURCES OF INPUT AND DIFFERENT OPTIONS.  THERE IS A COMMON SET OF OUTPUT
001078:                                                                                                  #        WHICH INCLUDES SET UP OF INPUT FOR THE PARAM SUBROUTINE
001079:
001080:                                                                                                  #  RTENCK1 (CONIC INTEGRATION)
001081:
001082:                                                                                                  #     CALLING SEQUENCE
001083:                                                                                                  #        L       CALL
001084:                                                                                                  #        L+1             RTENCK1
001085:
001086:                                                                                                  #     ERASABLE INITIALIZATION REQUIRED
001087:                                                                                                  #        SAME AS FOR THE RTENCK3 ENTRANCE
001088:
001089:                                                                                                  #  RTENCK2 (PRECISION INTEGRATION)
001090:
001091:                                                                                                  #     CALLING SEQUENCE
001092:                                                                                                  #        L       CALL
001093:                                                                                                  #        L+1             RTENCK2
001094:
001095:                                                                                                  #     ERASABLE INITIALIZATION REQUIRED
001096:                                                                                                  #        PUSHLIST
001097:                                                                                                  #            PUSHLOC-2   INTEGRATION TIME DT12 (CORRECTION TO T2)                DP      B28     CS
001098:                                                                                                  #        OTHER
001099:                                                                                                  #            R(T2)/      FINAL POSITION VECTOR                                   VECTOR .B29     METERS
001100:                                                                                                  #            V(T2)/      FINAL VELOCITY VECTOR                                   VECTOR  B7      METERS/CS
001101:                                                                                                  #            T2          FINAL TIME                                              DP      B28     CS
001102:
001103:                                                                                                  #  RTENCK3 (PRECISION INTEGRATION)
001104:
001105:                                                                                                  #     CALLING SEQUENCE
001106:                                                                                                  #        L       CALL
001107:                                                                                                  #        L+1             RTENCK3
001108:
001109:                                                                                                  #     ERASABLE INITIALIZATION REQUIRED
001110:                                                                                                  #        R(T1)/          INITIAL POSITION VECTOR                                 VECTOR  B29     METERS
001111:                                                                                                  #        V2(T1)/         POST IMPULSE INITIAL VELOCITY VECTOR                    VECTOR  B7      M/CS
001112:                                                                                                  #        T1              INITIAL VECTOR TIME                                     DP      B28     CS
001113:                                                                                                  #        T2              FINAL TIME                                              DP      B28     CS
001114:
001115:                                                                                                  #  EXIT MODE
001116:                                                                                                  #        AT L+2 OF CALLING SEQUENCE
001117:
001118:                                                                                                  #  SUBROUTINES CALLED
001119:                                                                                                  #        INTSTALL
001120:                                                                                                  #        INTEGRVS
001121:
001122:                                                                                                  #  OUTPUT
001123:                                                                                                  #     PUSHLIST


001125:                                                                                                  #        PUSHLOC-6       FINAL POSITION VECTOR R(T2)/                            VECTOR  B29     METERS
001126:                                                                                                  #        X1              CONICS MUTABLE ENTRY FOR EARTH (-2)                     SP      B14
001127:                                                                                                  #     MPAC
001128:                                                                                                  #                        FINAL VELOCITY VECTOR V(T2)/                            VECTOR  B7      M/CS
001129:                                                                                                  #     OTHER
001130:                                                                                                  #        R(T2)/          AS IN PUSHLIST
001131:                                                                                                  #        V(T2)/          AS IN MPAC
001132:                                                                                                  #        T2              FINAL TIME                                              DP      B28     CS
001133:
001134: 32,3055           45020        RTENCK1            STQ      CALL
001135: 32,3056           03733                                    RTENCKEX
001136: 32,3057           27371                                    INTSTALL
001137: 32,3060           43175                           VLOAD    SET
001138: 32,3061           03640                                    R(T1)/
001139: 32,3062           01473                                    INTYPFLG
001140: 32,3063           77650                           GOTO
001141: 32,3064           65111                                    RTENCK3B
001142:
001143: 32,3065           45020        RTENCK2            STQ      CALL
001144: 32,3066           03733                                    RTENCKEX
001145: 32,3067           27371                                    INTSTALL
001146: 32,3070           77214                           CLEAR    VLOAD
001147: 32,3071           01673                                    INTYPFLG
001148: 32,3072           03656                                    R(T2)/
001149: 32,3073           25535                           STOVL    RCV
001150: 32,3074           03710                                    V(T2)/
001151: 32,3075           15543                           STODL    VCV
001152: 32,3076           03736                                    T2
001153: 32,3077           01517                           STORE    TET
001154: 32,3100           77615                           DAD
001155: 32,3101           77650                           GOTO
001156: 32,3102           65117                                    RTENCK3D
001157:
001158: 32,3103           45020        RTENCK3            STQ      CALL
001159: 32,3104           03733                                    RTENCKEX
001160: 32,3105           27371                                    INTSTALL
001161: 32,3106           43175        RTENCK3A           VLOAD    CLEAR
001162: 32,3107           03640                                    R(T1)/
001163: 32,3110           01673                                    INTYPFLG
001164: 32,3111           25535        RTENCK3B           STOVL    RCV
001165: 32,3112           03700                                    V2(T1)/
001166: 32,3113           15543                           STODL    VCV
001167: 32,3114           03716                                    T1
001168: 32,3115           15517                           STODL    TET
001169: 32,3116           03736                                    T2
001170: 32,3117           00041        RTENCK3D           STORE    TDEC1
001171: 32,3120           45014                           CLEAR    CALL


001173: 32,3121           00263                                    MOONFLAG
001174: 32,3122           27066                                    INTEGRVS
001175: 32,3123           77775                           VLOAD
001176: 32,3124           00001                                    RATT
001177: 32,3125           03656                           STORE    R(T2)/
001178: 32,3126           70125                           PDDL     LXC,1
001179: 32,3127           00015                                    TAT
001180: 32,3130           03734                                    CONICX1
001181: 32,3131           27736                           STOVL    T2
001182: 32,3132           00007                                    VATT
001183: 32,3133           03710                           STORE    V(T2)/
001184: 32,3134           77650                           GOTO
001185: 32,3135           03733                                    RTENCKEX
001186:


001188:                                                                                                  #  V2(T1) COMPUTATION SUBROUTINE
001189:
001190:                                                                                                  #  DESCRIPTION
001191:                                                                                                  #        A POST IMPULSE VELOCITY VECTOR (V2(T1)) IS COMPUTED WHICH EITHER
001192:                                                                                                  #        (1)     MEETS THE INPUT VELOCITY CHANGE DESIRED (RTEDVD) IN A MINIMUM TIME      OR
001193:                                                                                                  #        (2)     IF A VELOCITY CHANGE ISN:T SPECIFIED (RTEDVD) = 0), A V2(T1) IS COMPUTED WHICH MINIMIZES THE IMPULSE (DV)
001194:                                                                                                  #                AND CONSEQUENTLY FUEL.
001195:
001196:                                                                                                  #  CALLING SEQUENCE
001197:                                                                                                  #        L       CALL
001198:                                                                                                  #        L+1             V2T100
001199:
001200:                                                                                                  #  NORMAL EXIT MODE
001201:                                                                                                  #        AT L+2 OF CALLING SEQUENCE WITH MPAC = 0
001202:
001203:                                                                                                  #  ALARM EXIT MODE
001204:                                                                                                  #        AT L+2 OF CALLING SEQUENCE WITH MPAC = OCTAL 605 FOR EXCESS ITERATIONS
001205:
001206:                                                                                                  #  SUBROUTINES CALLED
001207:                                                                                                  #        GAMDV10
001208:                                                                                                  #        XT1LIM
001209:                                                                                                  #        DVCALC
001210:
001211:                                                                                                  #  ERASABLE INITIALIZATION REQUIRED
001212:                                                                                                  #     PUSHLIST
001213:                                                                                                  #        NONE
001214:                                                                                                  #     MPAC
001215:                                                                                                  #        NONE
001216:                                                                                                  #     OTHER
001217:                                                                                                  #        R(T1)           MAGNITUDE OF INITIAL POSITION VECTOR                    DP      B29/B27 METERS
001218:                                                                                                  #        RCON            MAGNITUDE OF FINAL POSITION VECTOR                      DP      B29/B27 METERS
001219:                                                                                                  #        V(T1)/          INITIAL VELOCITY VECTOR                                 VECTOR  B7/B5   METERS/CS
001220:                                                                                                  #        RTEDVD          DELTA VELOCITY DESIRED                                  DP      B7/B5   METERS/CS
001221:                                                                                                  #        UR1/            UNIT INITIAL VECTOR                                     VECTOR  B1
001222:                                                                                                  #        UH/             UNIT HORIZONTAL VECTOR                                  VECTOR  B1
001223:                                                                                                  #        X(T2)           COTANGENT OF FINAL FLIGHT PATH ANGLE                    DP      B0
001224:                                                                                                  #        X(T1)           COTANGENT OF INITIAL FLIGHT PATH ANGLE (INPUT FOR PREC) DP      B5
001225:                                                                                                  #        CFPA            COSINE OF INITIAL FLIGHT PATH ANGLE                     DP      B1
001226:                                                                                                  #        MAMAX1          MAJOR AXIS LIMIT FOR LOWER BOUND ON GAMDV ITERATOR      DP      B30/B28 METERS
001227:                                                                                                  #        MAMAX2          MAJOR AXIS LIMIT FOR UPPER BOUND ON GAMDV ITERATOR      DP      B30/B28 METERS
001228:                                                                                                  #        PHI2            REENTRY NEAR PERIGEE OR APOGEE INDICATE (RTE ONLY)      DP      B2      -1 PERIGEE, +1 APOGEE
001229:                                                                                                  #        N1              CONIC OR PRECISION ITERATION COUNTER                    DP      B28     NEGATIVE CONIC, PLUS PREC
001230:
001231:                                                                                                  #  OUTPUT
001232:                                                                                                  #        V2(T1)/         POST IMPULSE INITIAL VELOCITY VECTOR                    VECTOR  B7/B5   METERS/CS
001233:                                                                                                  #        DV              INITIAL VELOCITY CHANGE                                 DP      B7/B5   METERS/CS
001234:                                                                                                  #        X(T1)           COTANGENT OF INITIAL FLIGHT PATH ANGLE (POST IMPULSE)   DP      B5
001235:                                                                                                  #        PCON            SEMI-LATUS RECTUM                                       DP      B28/B26 METERS
001236:                                                                                                  #        BETA1           1+X(T2)**2                                              DP      B1


001238:
001239:                                                                                                  #  DEBRIS
001240:                                                                                                  #     PUSHLIST
001241:                                                                                                  #        00D             X(T1),,=PREVIOUS PRECISION X(T1)                        DP      B5
001242:                                                                                                  #        02D             THETA1=BETA5*LAMBDA-1                                   TP      B17
001243:                                                                                                  #        05D             THETA2=2*R(T1)*(LAMBDA-1)                               TP      B38/B36
001244:                                                                                                  #        08D             THETA3=MU**.5/R(T1)                                     DP      B-4/B-5
001245:                                                                                                  #        10D             X(T1)MIN=LOWER BOUND ON X(T1) IN GAMDV ITERATOR         DP      B5
001246:                                                                                                  #        12D             DX(T1)MAX=MAXIMUM DELTA X(T1)                           DP      B5
001247:                                                                                                  #        14D             X(T1)MAX=UPPER BOUND ON X(T1) IN GAMDV ITERATOR         DP      B5
001248:                                                                                                  #        16D             DX(T1)=ITERATOR INCREMENT                               DP      B5
001249:                                                                                                  #        31D             GAMDV10 SUBROUTINE RETURN ADDRESS
001250:                                                                                                  #        32D             DVCALC SUBROUTINE RETURN ADDRESS
001251:                                                                                                  #        33D             V2T100 SUBROUTINE RETURN ADDRESS
001252:
001253: 32,3136           77620        V2T100             STQ
001254: 32,3137           00041                                    33D
001255: 32,3140           43001                           SETPD    CLEAR
001256: 32,3141           00001                                    0                                     #                                PL00D
001257: 32,3142           00272                                    F2RTE
001258: 32,3143           60345                           DLOAD    NORM
001259: 32,3144           03636                                    RCON
001260: 32,3145           00047                                    X1
001261: 32,3146           60325                           PDDL     NORM
001262: 32,3147           03646                                    R(T1)
001263: 32,3150           00051                                    S1
001264: 32,3151           00013                           STORE    10D
001265: 32,3152           56342                           SR1      DDV                                   #  R1/RCON = LAMBDA              B1
001266: 32,3153           65260                           XSU,1    PDDL                                  #                                PL02D
001267: 32,3154           00050                                    S1
001268: 32,3155           03726                                    X(T2)
001269: 32,3156           77716                           DSQ
001270: 32,3157           43342                           SR1      DAD
001271: 32,3160           31653                                    1RTEB1
001272: 32,3161           03754                           STORE    BETA1                                 #  1+X(T2)**2 = BETA1            B1
001273: 32,3162           77605                           DMP
001274: 32,3163           00001                                    00D
001275: 32,3164           00035                           STORE    28D                                   #  BETAI*LAMBDA = BETA5
001276: 32,3165           53605                           DMP      SL*
001277: 32,3166           00001                                    00D
001278: 32,3167           20172                                    0          -7,1
001279: 32,3170           45257                           SL*      DSU
001280: 32,3171           20172                                    0          -7,1
001281: 32,3172           31671                                    1RTEB17
001282: 32,3173           65234                           RTB      PDDL                                  #  BETA5*LAMBDA-1 = THETA1       B17 PL05D
001283: 32,3174           45562                                    TPMODE
001284: 32,3175           31653                                    1RTEB1
001285: 32,3176           57457                           SR*      DCOMP
001286: 32,3177           20601                                    0,1
001287: 32,3200           41215                           DAD      DMP
001288: 32,3201           00001                                    00D


001290: 32,3202           03646                                    R(T1)
001291: 32,3203           47057                           SL*      RTB
001292: 32,3204           20172                                    0          -7D,1
001293: 32,3205           45562                                    TPMODE
001294: 32,3206           77725                           PDDL                                           #  2*R(T1)*(LAMBDA-1)=THETA2     B38/B36 PL08D
001295: 32,3207           33770                                    RTMURTE
001296: 32,3210           70501                           NORM     SR1
001297: 32,3211           00050                                    X2
001298: 32,3212           56264                           XSU,2    DDV
001299: 32,3213           00050                                    S1
001300: 32,3214           00013                                    10D
001301: 32,3215           65257                           SR*      PDDL                                  #  MU**.5/R(T1)=THETA3           B-4/B-5 PL10D
001302: 32,3216           57170                                    6,2
001303: 32,3217           03652                                    MAMAX1
001304: 32,3220           41406                           PUSH     PUSH                                  #  MAMAX1=MA
001305: 32,3221           77624                           CALL
001306: 32,3222           56633                                    XT1LIM
001307: 32,3223           41476                           DCOMP    PUSH                                  #  X(T1)MIN                      B5 PL12D
001308: 32,3224           40476                           DCOMP    SR4
001309: 32,3225           41525                           PDDL     PUSH                                  #  DX(T1)MAX                     B5 PL14D
001310: 32,3226           03654                                    MAMAX2
001311: 32,3227           45006                           PUSH     CALL
001312: 32,3230           56633                                    XT1LIM
001313: 32,3231           50125                           PDDL     BMN                                   #  X(T1)MAX                      B5 PL16D
001314: 32,3232           03730                                    NN1A
001315: 32,3233           65236                                    V2T102
001316: 32,3234           77650                           GOTO
001317: 32,3235           65250                                    V2T110
001318:
001319:                                                                                                  #  PROCEED HERE IF NOT PRECISION COMPUTATION
001320:
001321: 32,3236           77745        V2T102             DLOAD
001322: 32,3237           03632                                    RTEDVD
001323: 32,3240           52054                           BZE      GOTO
001324: 32,3241           65243                                    V2T105
001325: 32,3242           65344                                    V2T140
001326: 32,3243           50145        V2T105             DLOAD    BMN
001327: 32,3244           03757                                    CFPA
001328: 32,3245           65344                                    V2T140
001329: 32,3246           77650                           GOTO
001330: 32,3247           65352                                    V2T145
001331:
001332:                                                                                                  #  DURING A PRECISION TRAJECTORY ITERATION CONSTRAIN THE INDEPENDENT
001333:                                                                                                  #  VARIABLE TO INSURE THAT ALL CONICS PASS THROUGH RCON ON THE SAME PASS
001334:                                                                                                  #  THROUGH X(T2)
001335:
001336: 32,3250           47145        V2T110             DLOAD    RTB
001337: 32,3251           31671                                    1RTEB17
001338: 32,3252           45562                                    TPMODE
001339: 32,3253           65276                           DCOMP    PDDL                                  #  -1                            B17 PL19D


001341: 32,3254           31715                                    2RTEB1
001342: 32,3255           45257                           SR*      DSU
001343: 32,3256           20601                                    0,1
001344: 32,3257           00001                                    00D
001345: 32,3260           53605                           DMP      SL*
001346: 32,3261           00035                                    28D
001347: 32,3262           20172                                    0          -7,1
001348: 32,3263           76257                           SL*      TAD
001349: 32,3264           20172                                    0          -7,1
001350: 32,3265           65234                           RTB      PDDL                                  #  BETA5(2-LAMBDA)-1=BETA6       B17 PL19D
001351: 32,3266           45562                                    TPMODE
001352: 32,3267           03722                                    X(T1)
001353: 32,3270           00001                           STORE    00D                                   #  X(T1),,                       B5
001354: 32,3271           77751                           TLOAD                                          #                                PL16D
001355: 32,3272           53040                           BMN      BZE
001356: 32,3273           65300                                    V2T115
001357: 32,3274           65300                                    V2T115
001358: 32,3275           52061                           SL       GOTO
001359: 32,3276           20210                                    7
001360: 32,3277           65311                                    V2T120
001361: 32,3300           50145        V2T115             DLOAD    BMN
001362: 32,3301           03761                                    PHI2
001363: 32,3302           65322                                    V2T125
001364: 32,3303           77676                           DCOMP
001365: 32,3304           17761                           STODL    PHI2
001366: 32,3305           31705                                    10RTE
001367: 32,3306           03730                           STORE    NN1A
001368: 32,3307           77650                           GOTO
001369: 32,3310           65322                                    V2T125
001370: 32,3311           47166        V2T120             SQRT     RTB
001371: 32,3312           45713                                    DPMODE
001372: 32,3313           50125                           PDDL     BMN                                   #  BETA6**.5=X(T1)LIM            B5 PL18D
001373: 32,3314           03761                                    PHI2
001374: 32,3315           65330                                    V2T130
001375: 32,3316           45545                           DLOAD    STADR                                 #                                PL16D
001376: 32,3317           77760                           STORE    14D                                   #  X(T1)LIM = X(T1)MAX
001377: 32,3320           77676                           DCOMP
001378: 32,3321           00013                           STORE    10D                                   #  -X(T1)LIM = X(T1)MIN
001379: 32,3322           53145        V2T125             DLOAD    BZE
001380: 32,3323           03722                                    X(T1)
001381: 32,3324           65344                                    V2T140
001382: 32,3325           52040                           BMN      GOTO
001383: 32,3326           65344                                    V2T140
001384: 32,3327           65352                                    V2T145
001385: 32,3330           53145        V2T130             DLOAD    BZE
001386: 32,3331           03722                                    X(T1)
001387: 32,3332           65341                                    V2T135
001388: 32,3333           71240                           BMN      DLOAD                                 #                                PL16D
001389: 32,3334           65341                                    V2T135
001390: 32,3335           77626                           STADR


001392: 32,3336           77764                           STORE    10D                                   #  X(T1)LIM = X(T1)MIN
001393: 32,3337           77650                           GOTO
001394: 32,3340           65352                                    V2T145
001395: 32,3341           57545        V2T135             DLOAD    DCOMP                                 #                                PL16D
001396: 32,3342           77626                           STADR
001397: 32,3343           77760                           STORE    14D                                   #  -X(T1)LIM = X(T1)MAX
001398: 32,3344           77745        V2T140             DLOAD
001399: 32,3345           00013                                    10D
001400: 32,3346           17722                           STODL    X(T1)                                 #  X(T1)MIN = X(T1)
001401: 32,3347           00015                                    12D
001402: 32,3350           52006                           PUSH     GOTO                                  #  DX(T1)MAX = DX(T1)            PL18D
001403: 32,3351           65357                                    V2T150
001404: 32,3352           77745        V2T145             DLOAD
001405: 32,3353           00017                                    14D
001406: 32,3354           17722                           STODL    X(T1)                                 #  X(T1)MAX = X(T1)
001407: 32,3355           00015                                    12D
001408: 32,3356           41476                           DCOMP    PUSH                                  #  -DX(T1)MAX = DX(T1)           PL18D
001409: 32,3357           77624        V2T150             CALL                                           #  GOTO X(T1)-DV ITERATOR
001410: 32,3360           65500                                    GAMDV10
001411: 32,3361           53145                           DLOAD    BZE                                   #  EXIT IF MINIMUM FUEL MODE
001412: 32,3362           03632                                    RTEDVD
001413: 32,3363           65476                                    V2T1X
001414:
001415:                                                                                                  #  CONTINUE IF TIME CRITICAL MODE
001416:
001417: 32,3364           50025                           DSU      BMN
001418: 32,3365           03706                                    DV
001419: 32,3366           65371                                    V2T155
001420: 32,3367           77650                           GOTO
001421: 32,3370           65424                                    V2T175
001422: 32,3371           50145        V2T155             DLOAD    BMN
001423: 32,3372           03730                                    NN1A
001424: 32,3373           65376                                    V2T160
001425: 32,3374           77650                           GOTO
001426: 32,3375           65437                                    V2T185
001427:
001428:                                                                                                  #  CONIC TRAJECTORY COMPUTATION
001429:
001430: 32,3376           53145        V2T160             DLOAD    BZE
001431: 32,3377           03722                                    X(T1)
001432: 32,3400           65404                                    V2T165
001433: 32,3401           52040                           BMN      GOTO
001434: 32,3402           65404                                    V2T165
001435: 32,3403           65474                                    V2T300
001436: 32,3404           53145        V2T165             DLOAD    BZE
001437: 32,3405           03757                                    CFPA
001438: 32,3406           65474                                    V2T300
001439: 32,3407           71240                           BMN      DLOAD
001440: 32,3410           65474                                    V2T300
001441: 32,3411           00017                                    14D


001443: 32,3412           17722                           STODL    X(T1)                                 #  X(T1)MAX=X(T1)
001444: 32,3413           00015                                    12D
001445: 32,3414           77676                           DCOMP
001446: 32,3415           34021                           STCALL   16D                                   #  -DX(T1)MAX=DX(T1)
001447: 32,3416           65500                                    GAMDV10
001448: 32,3417           45345                           DLOAD    DSU
001449: 32,3420           03632                                    RTEDVD
001450: 32,3421           03706                                    DV
001451: 32,3422           77640                           BMN
001452: 32,3423           65474                                    V2T300
001453: 32,3424           71214        V2T175             SET      DLOAD
001454: 32,3425           00072                                    F2RTE
001455: 32,3426           03722                                    X(T1)
001456: 32,3427           14017                           STODL    14D                                   #  X(T1)=X(T1)MAX
001457: 32,3430           00015                                    12D
001458: 32,3431           77676                           DCOMP
001459: 32,3432           34021                           STCALL   16D                                   #  -DX(T1)MAX=DX(T1)
001460: 32,3433           65500                                    GAMDV10
001461: 32,3434           50145                           DLOAD    BMN
001462: 32,3435           03730                                    NN1A
001463: 32,3436           65474                                    V2T300
001464:
001465:                                                                                                  #  PREVENT A LARGE CHANGE IN INDEPENDENT VARIABLE DURING AN ITERATION FOR A
001466:                                                                                                  #  PRECISION TRAJECTORY
001467:
001468: 32,3437           45345        V2T185             DLOAD    DSU
001469: 32,3440           03722                                    X(T1)
001470: 32,3441           00001                                    00D
001471: 32,3442           65246                           ABS      PDDL                                  #  /X(T1)-X(T1),,/ = BETA7
001472: 32,3443           00015                                    12D
001473: 32,3444           44352                           SL1      BDSU
001474: 32,3445           71240                           BMN      DLOAD
001475: 32,3446           65474                                    V2T300
001476: 32,3447           00001                                    00D                                   #  CONTINUE IF BETA7 LARGER THAN 2DX(T1)MAX
001477: 32,3450           03722                           STORE    X(T1)                                 #  X(T1),, = X(T1)
001478: 32,3451           50025                           DSU      BMN
001479: 32,3452           00017                                    14D
001480: 32,3453           65461                                    V2T195
001481: 32,3454           77745                           DLOAD
001482: 32,3455           00017                                    14D
001483: 32,3456           03722                           STORE    X(T1)                                 #  X(T1)MAX = X(T1)
001484: 32,3457           77650                           GOTO
001485: 32,3460           65472                                    V2T205
001486: 32,3461           45345        V2T195             DLOAD    DSU
001487: 32,3462           03722                                    X(T1)
001488: 32,3463           00013                                    10D
001489: 32,3464           52040                           BMN      GOTO
001490: 32,3465           65467                                    V2T200
001491: 32,3466           65472                                    V2T205
001492: 32,3467           77745        V2T200             DLOAD


001494: 32,3470           00013                                    10D
001495: 32,3471           03722                           STORE    X(T1)                                 #  X(T1)MIN = X(T1)
001496: 32,3472           77624        V2T205             CALL
001497: 32,3473           65701                                    DVCALC
001498: 32,3474           77745        V2T300             DLOAD
001499: 32,3475           31677                                    ZERORTE
001500: 32,3476           77650        V2T1X              GOTO
001501: 32,3477           00041                                    33D
001502:


001504:                                                                                                  #  X(T1)-DV ITERATOR SUBROUTINE
001505:
001506:                                                                                                  #  DESCRIPTION
001507:                                                                                                  #        COMPUTES A POST IMPULSE VELOCITY VECTOR (V2(T1)) WHICH REQUIRES A MINIMUM DV.
001508:
001509:                                                                                                  #  CALLING SEQUENCE
001510:                                                                                                  #        L       CALL
001511:                                                                                                  #        L+1             GAMDV10
001512:
001513:                                                                                                  #  NORMAL EXIT MODE
001514:                                                                                                  #        AT L+2 OF CALLING SEQUENCE
001515:
001516:                                                                                                  #  ALARM EXIT MODE
001517:                                                                                                  #        AT V2T1X WITH MPAC = OCTAL 605 FOR EXCESS ITERATIONS
001518:
001519:                                                                                                  #  SUBROUTINES CALLED
001520:                                                                                                  #        DVCALC
001521:
001522:                                                                                                  #  ERASABLE INITIALIZATION REQUIRED
001523:                                                                                                  #     PUSHLIST
001524:                                                                                                  #        02D             THETA1=BETA5*LAMBDA-1                                   TP      B17
001525:                                                                                                  #        05D             THETA2=2*R(T1)*(LAMBDA-1)                               TP      B38/B36
001526:                                                                                                  #        08D             THETA3=MU**.5/R(T1)                                     DP      B-4/B-5
001527:                                                                                                  #        10D             X(T1)MIN=LOWER BOUND ON INDEPENDENT VARIABLE X(T1)      DP      B5
001528:                                                                                                  #        12D             DX(T1)MAX=MAXIMUM DX(T1)                                DP      B5
001529:                                                                                                  #        14D             X(T1)MAX=UPPER BOUND ON INDEPENDENT VARIABLE X(T1)      DP      B5
001530:                                                                                                  #        16D             DX(T1)=ITERATOR INCREMENT                               DP      B5
001531:                                                                                                  #     MPAC
001532:                                                                                                  #        NONE
001533:                                                                                                  #     OTHER
001534:                                                                                                  #        V(T1)/          INITIAL VELOCITY VECTOR                                 VECTOR  B7/B5   METERS/CS
001535:                                                                                                  #        RTEDVD          DELTA VELOCITY DESIRED                                  DP      B7/B5   METERS/CS
001536:                                                                                                  #        UR1/            UNIT INITIAL VECTOR                                     VECTOR  B1
001537:                                                                                                  #        UH/             UNIT HORIZONTAL VECTOR                                  VECTOR  B1
001538:                                                                                                  #        X(T1)           COTANGENT OF INITIAL FLIGHT PATH ANGLE (FROM VERTICAL)  DP      B5
001539:                                                                                                  #        F2RTE           TIME CRITICAL OR MINIMUM FUEL MODE INDICATOR            STATE AREA      0 MIN. FUEL, 1 MIN. TIME
001540:
001541:                                                                                                  #  OUTPUT
001542:                                                                                                  #        V2(T1)/         POST IMPULSE INITIAL VELOCITY VECTOR                    VECTOR  B7/B5   METERS/CS
001543:                                                                                                  #        DV              INITIAL VELOCITY CHANGE                                 DP      B7/B5   METERS/CS
001544:                                                                                                  #        X(T1)           COTANGENT OF INITIAL FPA MEASURED FROM VERTICAL         DP      B5
001545:                                                                                                  #        PCON            SEMI-LATUS RECTUM                                       DP      B28/B26 METERS
001546:
001547:                                                                                                  #  DEBRIS
001548:                                                                                                  #     PUSHLIST
001549:                                                                                                  #        00D             X(T1),,
001550:                                                                                                  #        02D             THETA1
001551:                                                                                                  #        05D             THETA2
001552:                                                                                                  #        08D             THETA3
001553:                                                                                                  #        10D             X(T1)MIN
001554:                                                                                                  #        12D             DX(T1)MAX


001556:                                                                                                  #        14D             X(T1)MAX
001557:                                                                                                  #        16D             DX(T1)
001558:                                                                                                  #        22D             DV,=PREVIOUS DV                                         DP      B7/B5
001559:                                                                                                  #        24D             BETA9=X(T1)+1.1DX(T1)                                   DP      B5
001560:                                                                                                  #        31D             GAMDV10 SUBROUTINE RETURN ADDRESS
001561:                                                                                                  #        32D             DVCALC SUBROUTINE RETURN ADDRESS
001562:                                                                                                  #        33D             V2T100 SUBROUTINE RETURN ADDRESS
001563:
001564: 32,3500           77620        GAMDV10            STQ
001565: 32,3501           00037                                    31D
001566: 32,3502           45001                           SETPD    CALL
001567: 32,3503           00023                                    18D                                   #                                PL18D
001568: 32,3504           65701                                    DVCALC
001569: 32,3505           45345                           DLOAD    DSU
001570: 32,3506           00017                                    14D
001571: 32,3507           00013                                    10D
001572: 32,3510           77600                           BOV
001573: 32,3511           65531                                    GAMDV20
001574: 32,3512           45206                           PUSH     DSU                                   #  X(T1)MAX-X(T1)MIN=BETA8       B5 PL20D
001575: 32,3513           31772                                    EPC9RTE
001576: 32,3514           71240                           BMN      DLOAD
001577: 32,3515           65677                                    GAMDVX                                #  BOUNDS CLOSE TOGETHER
001578: 32,3516           00023                                    18D
001579: 32,3517           50025                           DSU      BMN                                   #  BETA8-DX(T1)MAX
001580: 32,3520           00015                                    12D
001581: 32,3521           65525                                    GAMDV15
001582: 32,3522           52001                           SETPD    GOTO                                  #                                PL18D
001583: 32,3523           00023                                    18D
001584: 32,3524           65531                                    GAMDV20
001585: 32,3525           77745        GAMDV15            DLOAD                                          #                                PL18D
001586: 32,3526           70565                           SIGN     SR1
001587: 32,3527           00021                                    16D
001588: 32,3530           00021                           STORE    16D                                   #  BETA8(SIGNDX(T1))/2=DX(T1)
001589: 32,3531           77745        GAMDV20            DLOAD
001590: 32,3532           31701                                    M144RTE
001591: 32,3533           03732                           STORE    NN2
001592: 32,3534           43345        GAMDV25            DLOAD    DAD
001593: 32,3535           03732                                    NN2
001594: 32,3536           31675                                    1RTEB28
001595: 32,3537           67240                           BMN      SLOAD
001596: 32,3540           65544                                    GAMDV30
001597: 32,3541           31735                                    OCT605
001598: 32,3542           77650                           GOTO
001599: 32,3543           65476                                    V2T1X
001600: 32,3544           03732        GAMDV30            STORE    NN2                                   #  NN2=NN2+1
001601: 32,3545           65345                           DLOAD    PDDL                                  #  X(T1)=X(T1),                  B5 PL20D
001602: 32,3546           03722                                    X(T1)
001603: 32,3547           03706                                    DV
001604: 32,3550           43325                           PDDL     DAD                                   #  DV=DV,                        B7/B5 PL22D
001605: 32,3551           03722                                    X(T1)
001606: 32,3552           00021                                    16D


001608: 32,3553           37722                           STCALL   X(T1)                                 #  X(T1)+DX(T1)=X(T1)            B5
001609: 32,3554           65701                                    DVCALC
001610: 32,3555           71214                           BON      DLOAD
001611: 32,3556           00312                                    F2RTE
001612: 32,3557           65573                                    GAMDV35
001613: 32,3560           03706                                    DV
001614: 32,3561           50025                           DSU      BMN                                   #  CONTINUE IF FUEL CRITICAL MODE
001615: 32,3562           00025                                    20D
001616: 32,3563           65570                                    GAMDV33
001617: 32,3564           57545        GAMDV32            DLOAD    DCOMP
001618: 32,3565           00021                                    16D
001619: 32,3566           77742                           SR1
001620: 32,3567           00021                           STORE    16D
001621: 32,3570           52001        GAMDV33            SETPD    GOTO
001622: 32,3571           00023                                    18D                                   #                                PL18D
001623: 32,3572           65636                                    GAMDV50
001624:
001625:                                                                                                  #  TIME CRITICAL MODE
001626:
001627: 32,3573           45345        GAMDV35            DLOAD    DSU
001628: 32,3574           03632                                    RTEDVD
001629: 32,3575           03706                                    DV
001630: 32,3576           41525                           PDDL     PUSH                                  #  DVD-DV=DVERR                  B7/B5 PL22D
001631: 32,3577           51545        GAMDV40            DLOAD    ABS                                   #  DV,                           PL24D
001632: 32,3600           00025                                    20D
001633: 32,3601           50025                           DSU      BMN
001634: 32,3602           31774                                    EPC10RTE
001635: 32,3603           65677                                    GAMDVX
001636: 32,3604           71204        GAMDV45            BOVB     DLOAD
001637: 32,3605           57343                                    TCDANZIG                              #  ASSURE OVFIND IS 0
001638: 32,3606           60221                           BDSU     NORM
001639: 32,3607           03706                                    DV
001640: 32,3610           00050                                    X2
001641: 32,3611           77725                           PDDL                                           #  DV-DV,                        B7/B5-N2 PL22D
001642: 32,3612           70501                           NORM     SR1                                   #  DVERR                         B8/B6-N1
001643: 32,3613           00047                                    X1
001644: 32,3614           65271                           DDV      PDDL                                  #  DVERR/ DV - DV
001645: 32,3615           41221                           BDSU     DMP                                   #                                PL18D
001646: 32,3616           03722                                    X(T1)
001647: 32,3617           77660                           XSU,1
001648: 32,3620           00047                                    X2
001649: 32,3621           00021                           STORE    16D                                   #  PRESERVE SIGN IF OVERFLOW
001650: 32,3622           40057                           SR*      BOV
001651: 32,3623           20600                                    0          -1,1
001652: 32,3624           65632                                    GAMDV47
001653: 32,3625           00021                           STORE    16D                                   #  (X(T1)-X(T1),)DVERR/(DV-DV,)=DX(T1)
001654: 32,3626           45246                           ABS      DSU
001655: 32,3627           00015                                    12D
001656: 32,3630           77640                           BMN
001657: 32,3631           65636                                    GAMDV50


001659: 32,3632           75345        GAMDV47            DLOAD    SIGN
001660: 32,3633           00015                                    12D
001661: 32,3634           00021                                    16D
001662: 32,3635           00021                           STORE    16D                                   #  DX(T1)MAX(SIGNDX(T1))=DX(T1)
001663:
001664:                                                                                                  #  CHECK TO KEEP INDEPENDENT VARIABLE IN BOUNDS
001665:
001666: 32,3636           41345        GAMDV50            DLOAD    DMP
001667: 32,3637           00021                                    16D
001668: 32,3640           31711                                    1.1RTEB1
001669: 32,3641           43352                           SL1      DAD
001670: 32,3642           03722                                    X(T1)
001671: 32,3643           00031                           STORE    24D                                   #  X(T1)+1.1DX(T1)=BETA9         B5
001672: 32,3644           50025                           DSU      BMN
001673: 32,3645           00017                                    14D
001674: 32,3646           65655                                    GAMDV55
001675: 32,3647           45345                           DLOAD    DSU
001676: 32,3650           00017                                    14D
001677: 32,3651           03722                                    X(T1)
001678: 32,3652           77742                           SR1
001679: 32,3653           34021                           STCALL   16D                                   #  (X(T1)MAX-X(T1))/2=DX(T1)     B5
001680: 32,3654           65670                                    GAMDV65
001681: 32,3655           45345        GAMDV55            DLOAD    DSU
001682: 32,3656           00031                                    24D
001683: 32,3657           00013                                    10D
001684: 32,3660           52040                           BMN      GOTO
001685: 32,3661           65663                                    GAMDV60
001686: 32,3662           65670                                    GAMDV65
001687: 32,3663           45345        GAMDV60            DLOAD    DSU
001688: 32,3664           00013                                    10D
001689: 32,3665           03722                                    X(T1)
001690: 32,3666           77742                           SR1
001691: 32,3667           00021                           STORE    16D                                   #  (X(T1)MIN-X(T1))/2=DX(T1)     B5
001692: 32,3670           51545        GAMDV65            DLOAD    ABS
001693: 32,3671           00021                                    16D
001694: 32,3672           50025                           DSU      BMN
001695: 32,3673           31772                                    EPC9RTE
001696: 32,3674           65677                                    GAMDVX
001697: 32,3675           77650                           GOTO
001698: 32,3676           65534                                    GAMDV25
001699: 32,3677           77650        GAMDVX             GOTO
001700: 32,3700           00037                                    31D
001701:


001703:                                                                                                  #  DV CALCULATION SUBROUTINE
001704:
001705:                                                                                                  #  INPUT
001706:                                                                                                  #     PUSHLIST
001707:                                                                                                  #        02D             THETA1=BETA5*LAMBDA-1                                   TP      B17
001708:                                                                                                  #        05D             THETA2=2*R(T1)*(LAMBDA-1)                               TP      B38/B36
001709:                                                                                                  #        08D             THETA3=MU**.5/R(T1)                                     DP      B-4/B-5
001710:                                                                                                  #     OTHER
001711:                                                                                                  #        X(T1)           COTANGENT OF POST IMPULSE INITIAL FLIGHT PATH ANGLE     DP      B5
001712:                                                                                                  #        V(T1)/          INITIAL VELOCITY VECTOR (PRE IMPULSE)                   VECTOR  B7/B5   METERS/CS
001713:                                                                                                  #        UR1/            UNIT INITIAL VECTOR                                     VECTOR  B1
001714:                                                                                                  #        UH/             UNIT HORIZONTAL VECTOR                                  VECTOR  B1
001715:
001716:                                                                                                  #  OUTPUT
001717:                                                                                                  #        V2(T1)/         POST IMPULSE INITIAL VELOCITY VECTOR                    VECTOR  B7/B5   METERS/CS
001718:                                                                                                  #        DV              INITIAL VELOCITY CHANGE                                 DP      B7/B5   METERS/CS
001719:                                                                                                  #        PCON            SEMI-LATUS RECTUM                                       DP      B28/B26 METERS
001720:
001721:                                                                                                  #  DEBRIS
001722:                                                                                                  #        28D             THETA3*PCON**.5                                         DP      B10/B8-N1
001723:                                                                                                  #        C(PUSLOC)       THETA3(PCON**.5)*X(T1)*UR1/                             VECTOR  B7/B5
001724:                                                                                                  #        32D             DVCALC SUBROUTINE RETURN ADDRESS
001725:                                                                                                  #        X1              NORMALIZATION FACTOR FOR VALUE IN 28D
001726:
001727:                                                                                                  #  PUSHLOC IS RESTORED TO ITS ENTRANCE VALUE UPON EXITING DVCALC
001728:
001729: 32,3701           71220        DVCALC             STQ      DLOAD
001730: 32,3702           00040                                    32D
001731: 32,3703           03722                                    X(T1)
001732: 32,3704           54316                           DSQ      SR
001733: 32,3705           20610                                    7
001734: 32,3706           76276                           DCOMP    TAD
001735: 32,3707           00003                                    02D
001736: 32,3710           41501                           NORM     PUSH
001737: 32,3711           00047                                    X1
001738: 32,3712           60351                           TLOAD    NORM
001739: 32,3713           00006                                    05D
001740: 32,3714           00050                                    X2
001741: 32,3715           70434                           RTB      SR1
001742: 32,3716           45713                                    DPMODE
001743: 32,3717           56264                           XSU,2    DDV
001744: 32,3720           00046                                    X1
001745: 32,3721           77657                           SR*
001746: 32,3722           57170                                    6,2
001747: 32,3723           03720                           STORE    PCON                                  #  THETA2/(THETA1-X(T1)**2)=PCON B28/26
001748: 32,3724           41366                           SQRT     DMP
001749: 32,3725           00011                                    08D
001750: 32,3726           77701                           NORM
001751: 32,3727           00047                                    X1
001752: 32,3730           14035                           STODL    28D                                   #  THETA3*PCON**.5               B10/B8 -N1


001754: 32,3731           03722                                    X(T1)
001755: 32,3732           74301                           NORM     VXSC
001756: 32,3733           00050                                    X2
001757: 32,3734           03740                                    UR1/                                  #  X(T1)*UR1/                    B5+B1 -N2
001758: 32,3735           74274                           XAD,2    VXSC
001759: 32,3736           00046                                    X1
001760: 32,3737           00035                                    28D
001761: 32,3740           63257                           VSR*     PDVL                                  #  THETA3(PCON**.5)X(T1)*UR1/    B7/B5
001762: 32,3741           57207                                    0          -9D,2                      #                +
001763: 32,3742           03746                                    UH/
001764: 32,3743           53761                           VXSC     VSR*                                  #  THETA3(PCON**.5)UH/           B7/B5
001765: 32,3744           00035                                    28D
001766: 32,3745           20575                                    0          -4,1                       #                =
001767: 32,3746           45455                           VAD      STADR
001768: 32,3747           74077                           STORE    V2(T1)/                               #  V2(T1)/                       B7/B5
001769: 32,3750           51451                           VSU      ABVAL
001770: 32,3751           03672                                    V(T1)/
001771: 32,3752           03706                           STORE    DV                                    #  ABVAL(V2(T1)/-V1(T)/)=DV      B7/B5
001772: 32,3753           77650                           GOTO
001773: 32,3754           00040                                    32D
001774:


001776:                                                                                                  #  SUBROUTINE TO COMPUTE BOUNDS ON INDEPENDENT VARIABLE X(T1)
001777:
001778:                                                                                                  #  INPUT
001779:                                                                                                  #     PUSHLIST
001780:                                                                                                  #        PUSHLOC -4      MAJOR AXIS (MA)                                         DP      B30/B28
001781:                                                                                                  #        PUSHLOC -2      MAJOR AXIS (MA) AGAIN                                   DP      B30/B28
001782:                                                                                                  #        28D             BETA5=LAMBDA*BETA1                                      DP      B9
001783:                                                                                                  #     OTHER
001784:                                                                                                  #        RCON                                                                    DP      B29/B27
001785:                                                                                                  #        R(T1)                                                                   DP      B29/B27
001786:
001787:                                                                                                  #  OUTPUT
001788:                                                                                                  #     MPAC
001789:                                                                                                  #        X(T1)LIM        LIMIT ON INDEPENDENT VARIABLE X(T1)                     DP      B5
001790:
001791:                                                                                                  #  DEBRIS
001792:                                                                                                  #     PUSHLIST
001793:                                                                                                  #        C(PUSHLOC)      MA-RCON                                                 DP      (B30/28)-N1
001794:                                                                                                  #        C(PSHLOC) +2    MA                                                      DP      B30/B28
001795:                                                                                                  #        X1              NORMALIZATION FACTOR FOR MA-RCON
001796:                                                                                                  #        20D             XT1LIM SUBROUTINE RETURN ADDRESS
001797:
001798:                                                                                                  #  PUSHLOC IS RESTORED TO ITS ENTRANCE VALUE UPON EXITING XT1LIM
001799:
001800: 27,2000                                           SETLOC   RTE2
001801: 27,2000                                           BANK
001802: 27,2633           71220        XT1LIM             STQ      DLOAD
001803: 27,2634           00024                                    20D
001804: 27,2635           03636                                    RCON
001805: 27,2636           44342                           SR1      BDSU
001806: 27,2637           65301                           NORM     PDDL                                  #  MA-RCON                       B30-N1
001807: 27,2640           00050                                    X2
001808: 27,2641           70525                           PDDL     SR1
001809: 27,2642           03646                                    R(T1)
001810: 27,2643           56221                           BDSU     DDV
001811: 27,2644           41257                           SL*      DMP
001812: 27,2645           57577                                    0          -1,2
001813: 27,2646           00035                                    28D
001814: 27,2647           77657                           SL*
001815: 27,2650           20172                                    0          -7,1
001816: 27,2651           50025                           DSU      BMN                                   #  (BETA5(MA-R(T1))/(MA-RCON))-1 B10
001817: 27,2652           31663                                    1RTEB10
001818: 27,2653           56656                                    XT1LIM5
001819: 27,2654           52166                           SQRT     GOTO
001820: 27,2655           56660                                    XT1LIMX
001821: 27,2656           77745        XT1LIM5            DLOAD
001822: 27,2657           31677                                    ZERORTE
001823: 27,2660           77650        XT1LIMX            GOTO
001824: 27,2661           00024                                    20D
001825:


001827:                                                                                                  #  CONSTANTS FOR THE P37 AND P70 PROGRAMS AND SUBROUTINES
001828:
001829: 36,3250                                           BANK     36
001830: 34,2000                                           SETLOC   RTECON
001831: 34,2000                                           BANK
001832:
001833: 34,3652           20000 00000  1RTEB1             2DEC     1          B-1
001834: 34,3654           10000 00000  1RTEB2             2DEC     1          B-2
001835: 34,3656           04000 00000  1RTEB3             2DEC     1          B-3
001836: 34,3660           02000 00000  1RTEB4             2DEC     1          B-4
001837: 34,3662           00020 00000  1RTEB10            2DEC     1          B-10
001838: 34,3664           00004 00000  1RTEB12            2DEC     1          B-12
001839: 34,3666           00002 00000  1RTEB13            2DEC     1          B-13
001840: 34,3670           00000 04000  1RTEB17            2DEC     1          B-17
001841: 34,3672           00000 00010  1RTEB25            2DEC     1          B-25
001842: 34,3674           00000 00001  1RTEB28            2DEC     1          B-28
001843: 34,3676           00000 00000  ZERORTE            2DEC     0          B-28
001844: 34,3700           77777 77557  M144RTE            2DEC     -144       B-28
001845: 34,3702           77777 77760  M15RTE             2DEC     -15        B-28
001846: 34,3704           00000 00012  10RTE              2DEC     10         B-28
001847: 34,3706           54631 63145  M.6RTE             2DEC     -.6
001848: 34,3710           21463 06315  1.1RTEB1           2DEC     1.1        B-1
001849: 34,3712           77777 77771  M6RTEB28           2DEC     -6         B-28
001850: 34,3714           37777 37777  2RTEB1             2OCT     3777737777
001851: 34,3716           77777 77766  M9RTEB28           2DEC     -9         B-28
001852: 34,3720           77777 77767  M8RTEB28           2DEC     -8         B-28
001853: 34,3722           00000 35610  30480RTE           2DEC     30480      B-29
001854: 34,3724           36703 03743  VCSPS              2DEC     30.8811    B-5


001856: 34,3726           33041 37714  VCRCS              2DEC     27.0664    B-5
001857: 34,3730           00003 13241  MDOTRCS            2DEC     .0016375   B-3
001858: 34,3732           20000 00000  CSUBT              2DEC     .5
001859: 34,3734           00605        OCT605             OCT      00605
001860: 34,3735           00612        OCT612             OCT      00612
001861: 34,3736           00613        OCT613             OCT      00613
001862: 34,3737           40214 45266  MCOS7.5            2DEC     -.99144486
001863: 34,3741           73645 56536  MSIN7.5            2DEC     -.13052619
001864: 34,3743           70467 71205  MCOS22.5           2DEC     -.92387953 B-2
001865: 34,3745           16525 12525  THETA165           2DEC     .4583333333
001866: 34,3747           22525 12525  THETA210           2DEC     .5833333333
001867: 34,3751           17775 06676  EPC1RTE            2DEC     .99966     B-1
001868: 34,3753           00000 00062  EPC2RTE            2DEC     100        B-29
001869: 34,3755           00020 14223  EPC3RTE            2DEC     .001
001870: 34,3757           00000 05174  EPC4RTE            2DEC     .00001
001871: 34,3761           00002 21727  EPC5RTE            2DEC     .01        B-6
001872: 34,3763           00000 01654  EPC6RTE            2DEC     .000007    B-1
001873: 34,3765           00000 00764  EPC7RTE            2DEC     1000       B-29
001874: 34,3767           00040 30447  EPC8RTE            2DEC     .002
001875: 34,3771           00000 00010  EPC9RTE            2DEC     1          B-25
001876: 34,3773           00000 00322  EPC10RTE           2DEC     .0001      B-7
001877:
001878: 35,3755                                           BANK     35
001879: 35,2000                                           SETLOC   RTECON1
001880: 35,2000                                           BANK
001881:
001882: 35,3755           27657 01000  C4RTE              2DEC     8          E8         B-30
001883: 35,3757           00325 23740  K1RTE              2DEC     7          E6         B-29
001884: 35,3761           00306 06614  K2RTE              2DEC     6495000    B-29
001885: 35,3763           76027 70156  K3RTE              2DEC     -.06105


001887: 35,3765           74517 54131  K4RTE              2DEC     -.10453
001888: 35,3767           30276 05001  RTMURTE            2DEC     199650.501 B-18
001889: 35,3771           00003 27040  E3RTE              2DEC     121920     B-29
001890:

End of include-file P37,P70.agc.  Parent file is MAIN.agc


