
Source Code
000001:                                                                                                 #  Copyright:     Public domain.
000002:                                                                                                 #  Filename:      Template.agc
000003:                                                                                                 #  Purpose:       Part of the source code for Colossus, build 249.
000004:                                                                                                 #                 It is part of the source code for the Command Module's (CM)
000005:                                                                                                 #                 Apollo Guidance Computer (AGC), possibly for Apollo 8 and 9.
000006:                                                                                                 #  Assembler:     yaYUL
000007:                                                                                                 #  Reference:     pp. 847-890 of 1701.pdf.
000008:                                                                                                 #  Contact:       Ron Burkey <info@sandroid.org>.
000009:                                                                                                 #  Website:       www.ibiblio.org/apollo.
000010:                                                                                                 #  Mod history:   08/21/04 RSB.   Began transcribing.
000011:
000012:                                                                                                 #  The contents of the "Colossus249" files, in general, are transcribed
000013:                                                                                                 #  from a scanned document obtained from MIT's website,
000014:                                                                                                 #  http://hrst.mit.edu/hrs/apollo/public/archive/1701.pdf.  Notations on this
000015:                                                                                                 #  document read, in part:
000016:
000017:                                                                                                 #         Assemble revision 249 of AGC program Colossus by NASA
000018:                                                                                                 #         2021111-041.  October 28, 1968.
000019:
000020:                                                                                                 #         This AGC program shall also be referred to as
000021:                                                                                                 #                                 Colossus 1A
000022:
000023:                                                                                                 #         Prepared by
000024:                                                                                                 #                         Massachussets Institute of Technology
000025:                                                                                                 #                         75 Cambridge Parkway
000026:                                                                                                 #                         Cambridge, Massachusetts
000027:                                                                                                 #         under NASA contract NAS 9-4065.
000028:
000029:                                                                                                 #  Refer directly to the online document mentioned above for further information.
000030:                                                                                                 #  Please report any errors (relative to 1701.pdf) to info@sandroid.org.
000031:
000032:                                                                                                 #  In some cases, where the source code for Luminary 131 overlaps that of
000033:                                                                                                 #  Colossus 249, this code is instead copied from the corresponding Luminary 131
000034:                                                                                                 #  source file, and then is proofed to incorporate any changes.
000035:
000036:                                                                                                 #  Page 847
000037: 31,3215                                          BANK     31
000038: 36,2000                                          SETLOC   RTE1
000039: 36,2000                                          BANK
000040:
000041: 36,2502  E7,1631                                 EBANK=   RTEDVD
000042: 36,2502                                          COUNT    31/P37
000043:
000044:                                                                                                 #  PROGRAM DESCRIPTION:  P37, RETURN TO EARTH
000045:
000046:                                                                                                 #  DESCRIPTION
000047:                                                                                                 #         A RETURN TO EARTH TRAJECTORY IS COMPUTED PROVIDED THE CSM IS OUTSIDE THE LUNAR SPHERE OF INFLUENCE AT THE
000048:                                                                                                 #         TIME OF IGNITION.  INITIALLY A CONIC TRAJECTORY IS DETERMINED AND RESULTING IGNITION AND REENTRY PARAMETERS ARE
000049:                                                                                                 #         DISPLAYED TO THE ASTRONAUT.  THEN IF THE ASTRONAUT SO DESIRES, A PRECISION TRAJECTORY IS DETERMINED WTIH THE
000050:                                                                                                 #         RESULTING IGNITION AND REENTRY PARAMETERS DISPLAYED.  UPON FINAL ACCEPTANCE BY THE ASTRONAUT, THE PROGRAM
000051:                                                                                                 #         COMPUTES AND STORES THE TARGET PARAMETERS FOR RETURN TO EARTH FOR USE BY SPS PROGRAM (P40) OR RCS PROGRAM (P41).
000052:
000053:                                                                                                 #  CALLING SEQUENCE
000054:                                                                                                 #         L       TC      P37
000055:
000056:                                                                                                 #  SUBROUTINES CALLED
000057:                                                                                                 #         PREC100
000058:                                                                                                 #                 V2T100
000059:                                                                                                 #                 RTENCK2
000060:                                                                                                 #                 RTENCK3
000061:                                                                                                 #                 TIMERAD
000062:                                                                                                 #                 PARAM
000063:                                                                                                 #         V2T100
000064:                                                                                                 #                 GAMDV10
000065:                                                                                                 #                 XT1LIM
000066:                                                                                                 #                 DVCALC
000067:                                                                                                 #         RTENCK1
000068:                                                                                                 #                 INTSTALL
000069:                                                                                                 #                 INTEGRVS
000070:                                                                                                 #         RTEVN
000071:                                                                                                 #                 RETDISP
000072:                                                                                                 #                 TMRAD100
000073:                                                                                                 #                 AUGEKUGL
000074:                                                                                                 #                 LAT-LONG
000075:                                                                                                 #         TMRAD100
000076:                                                                                                 #                 TIMERAD
000077:                                                                                                 #         INVC100
000078:                                                                                                 #                 CSMPREC
000079:                                                                                                 #         GETERAD
000080:                                                                                                 #         TIMETHET
000081:                                                                                                 #         P370ALRM
000082:                                                                                                 #         VN1645
000083:                                                                                                 #         POLY
000084:
000085:                                                                                                 #  ERASABLE INITIALIZATION REQUIRED
000086:                                                                                                 #         CSM STATE VECTOR
000087:                                                                                                 #  Page 848
000088:                                                                                                 #         NJETSFLG        NUMBER OF JETS IF THE RCS PROPULSION SYSTEM SELECTED    STATE FLAG      0=4 JETS  1=2 JETS
000089:
000090:                                                                                                 #  ASTRONAUT INPUT
000091:                                                                                                 #         SPRTETIG        TIME OF IGNITION (OVERLAYS TIG)                         DP      B28     CS
000092:                                                                                                 #         VPRED           DESIRED CHANGE IN VELOCITY AT TIG(PROGRM COMPUTED IF 0) DP      B7      METERS/CS
000093:                                                                                                 #         GAMMAEI         DESIRED FLIGHT PATH ANGLE AT REENTRY (COMPUTED IF 0)    DP      B0      REVS + ABOVE HORIZ.
000094:                                                                                                 #         OPTION2         PROPULSION SYSTEM OPTION                                SP      B14     1=SPS, 2=RCS
000095:
000096:                                                                                                 #  OUTPUT
000097:                                                                                                 #     CONIC OR PRECISION TRAJECTORY DISPLAY
000098:                                                                                                 #         VPRED           VELOCITY MAGNITUDE AT 400,000 FT. ENTRY ALTITUDE        DP      B7      METERS/CS
000099:                                                                                                 #         T3TOT4          TRANSIT TIME TO 400,000 FT. ENTRY ALTITUDE              DP      B28     CS
000100:                                                                                                 #         GAMMAEI         FLIGHT PATH ANGLE AT 400,00 FT. ENTRY ALTITUDE          DP      B0      REVS + ABOVE HORIZON
000101:                                                                                                 #         DELVLVC         INITIAL VELOCITY CHANGE VECTOR IN LOCAL VERTICAL COORD. VECTOR  B7      METERS/CS
000102:                                                                                                 #         LAT(SPL)        LATITUDE OF THE LANDING SITE                            DP      B0      REVS
000103:                                                                                                 #         LNG(SPL)        LONGITUDE OF THE LANDING SITE                           DP      B0      REVS
000104:                                                                                                 #     TARGETING COMPUTATION DISPLAY
000105:                                                                                                 #         TIG             RECOMPUTED TIG BASED ON THRUST OPTION                   DP      B28     CS
000106:                                                                                                 #         TTOGO           TIME FROM TIG                                           DP      B28     CS
000107:                                                                                                 #         +MGA            POSITIVE MIDDLE GIMBAL ANGLE                            DP      B0      REVS -.02 IF REFSMFLG=0
000108:                                                                                                 #     THRUST PROGRAM COMMUNICATION
000109:                                                                                                 #         XDELVFLG        EXTERNAL DELTA V FLAG                                   STATE   FLAG    SET 0 FOR LAMBERT AIMPT
000110:                                                                                                 #         NORMSW          LAMBERT AIMPT ROTATION SWITCH                           STATE   FLAG    SET 0 FOR NO ROTATION
000111:                                                                                                 #         ECSTEER         CROSS PRODUCT STEERING CONSTANT                         SP      B2      SET 1
000112:                                                                                                 #         RTARG           CONICALLY INTEGRATED REENTRY POSITION VECTOR            VECTOR  B29     METERS
000113:                                                                                                 #         TPASS4          REENTRY TIME                                            DP      B28     CS
000114:
000115: 36,2502           05301        P37               TC       PHASCHNG                              #  P37 IS NOT RESTARTABLE
000116: 36,2503           00004                          OCT      4
000117:
000118: 36,2504           06006                          TC       INTPRET
000119: 36,2505           66170                          AXT,1    SXA,1
000120: 36,2506           04000                          OCT      04000
000121: 36,2507           03424                                   ECSTEER
000122: 36,2510           77776                          EXIT
000123: 36,2511           33242                          CAF      V6N33RTE                              #  INPUT TIG      STORED IN SPRTETIG
000124: 36,2512           03231                          TCR      P370GOF                               #                 OVERLAYED WITH TIG
000125: 36,2513           12511                          TCF      -2                                    #  DISPLAY NEW DATA
000126: 36,2514           33246                          CAF      V6N60RTE                              #  INPUT REENTRY ANGLE IN GAMMAEI
000127: 36,2515           03205                          TCR      P37GFRB1                              #         AND DESIRED DELTA V IN RETDVD
000128: 36,2516           12514                          TCF      -2                                    #  DISPLAY NEW DATA
000129: 36,2517           06006        RTE299            TC       INTPRET
000130: 36,2520           71331                          SSP      DLOAD
000131: 36,2521           00122                                   OVFIND
000132: 36,2522           00000                                   0
000133: 36,2523           03767                                   VPRED
000134: 36,2524           17632                          STODL    RTEDVD
000135: 36,2525           03771                                   GAMMAEI
000136: 36,2526           17634                          STODL    RTEGAM2D
000137: 36,2527           31667                                   1RTEB13
000138:                                                                                                 #  Page 849
000139: 36,2530           17735                          STODL    CONICX1
000140: 36,2531           33756                                   C4RTE
000141: 36,2532           37652                          STCALL   MAMAX1
000142: 36,2533           64427                                   INVC100                               #  GET R(T1)/,V(T1)/,UR1/,UH/
000143: 36,2534           77545                          DLOAD    EXIT
000144: 36,2535           03646                                   R(T1)
000145: 36,2536           07171                          TC       POLY
000146: 36,2537           00002                          DEC      2          B-14
000147: 36,2540           02544 35436                    2DEC     181000434  B-31
000148: 36,2542           14040 05066                    2DEC     1.50785145 B-2
000149: 36,2544           44052 60030                    2DEC*    -6.49993057 E-9        B27*
000150: 36,2546           26415 25057                    2DEC*    9.76938926 E-18       B56*
000151:
000152: 36,2550           06006                          TC       INTPRET
000153: 36,2551           77752                          SL1
000154: 36,2552           17654                          STODL    MAMAX2                                #  C0+C1*R+C2*R**2+C3*R**3=MAMAX2 B30
000155: 36,2553           31717                                   M9RTEB28
000156: 36,2554           17730                          STODL    NN1A
000157: 36,2555           33762                                   K2RTE
000158: 36,2556           17636        RTE320            STODL    RCON                                  #  RCON=K2
000159: 36,2557           03634                                   RTEGAM2D
000160: 36,2560           44254                          BZE      BDSU
000161: 36,2561           74570                                   RTE340                                #  GOTORTE340 IF REENTRY ANGLE NOT INPUT
000162: 36,2562           31655                                   1RTEB2
000163: 36,2563           71406                          PUSH     COS                                   #                                         PL02D
000164: 36,2564           73525                          PDDL     SIN
000165: 36,2565           45465                          BDDV     STADR                                 #                                         PL00D
000166: 36,2566           40051                          STCALL   X(T2)                                 #  X(T2)=COT(GAM2D)                       B0
000167: 36,2567           74603                                   RTE360
000168: 36,2570           45345        RTE340            DLOAD    DSU
000169: 36,2571           03646                                   R(T1)
000170: 36,2572           33760                                   K1RTE
000171: 36,2573           71240                          BMN      DLOAD
000172: 36,2574           74600                                   RTE350
000173: 36,2575           33766                                   K4RTE
000174: 36,2576           37726                          STCALL   X(T2)                                 #  X(T2)=K4
000175: 36,2577           74603                                   RTE360
000176: 36,2600           77745        RTE350            DLOAD
000177: 36,2601           33764                                   K3RTE
000178: 36,2602           03726                          STORE    X(T2)                                 #  X(T2)=K3
000179: 36,2603           77624        RTE360            CALL
000180: 36,2604           65136                                   V2T100
000181: 36,2605           52054                          BZE      GOTO
000182: 36,2606           74610                                   RTE367
000183: 36,2607           74772                                   RTEALRM
000184: 36,2610           77775        RTE367            VLOAD
000185: 36,2611           03640                                   R(T1)/
000186:                                                                                                 #  Page 850
000187: 36,2612           16657                          STODL    RVEC
000188: 36,2613           03636                                   RCON
000189: 36,2614           26760                          STOVL    RDESIRED
000190: 36,2615           03700                                   V2(T1)/
000191: 36,2616           36746                          STCALL   VVEC
000192: 36,2617           64272                                   TMRAD100
000193: 36,2620           77615                          DAD
000194: 36,2621           03716                                   T1
000195: 36,2622           17736                          STODL    T2
000196: 36,2623           03634                                   RTEGAM2D
000197: 36,2624           52054                          BZE      GOTO
000198: 36,2625           74627                                   RTE369
000199: 36,2626           74651                                   RTE372
000200: 36,2627           51575        RTE369            VLOAD    ABVAL
000201: 36,2630           03710                                   V(T2)/
000202: 36,2631           77776                          EXIT
000203: 36,2632           07171                          TC       POLY
000204: 36,2633           00002                          DEC      2          B-14
000205: 36,2634           00000 00000                    2DEC     0          B-28
000206: 36,2636           47021 65002                    2DEC     -4.8760771 E-2        B4
000207: 36,2640           35610 07722                    2DEC     4.5419476  E-4        B11
000208: 36,2642           63772 63276                    2DEC     -1.4317675 E-6        B18
000209:
000210: 36,2644           06006                          TC       INTPRET
000211: 36,2645           77615                          DAD
000212: 36,2646           01352                                   RTED1
000213: 36,2647           52052                          SL3      GOTO                                  #  X(T2),=D1+D2V2+D3V2**2+D4V2**3
000214: 36,2650           74653                                   RTE373
000215: 36,2651           77745        RTE372            DLOAD                                          #  X(T2),=X(T2)
000216: 36,2652           03726                                   X(T2)
000217: 36,2653           41425        RTE373            DSU      PUSH                                  #  X(T2)ERR                               B0 PL02D
000218: 36,2654           03726                                   X(T2)
000219: 36,2655           53575                          VLOAD    UNIT
000220: 36,2656           03656                                   R(T2)/                                #                                         B58
000221: 36,2657           36152                          STCALL   ALPHAV
000222: 36,2660           26437                                   GETERAD
000223: 36,2661           77615                          DAD
000224: 36,2662           33772                                   E3RTE
000225: 36,2663           45206                          PUSH     DSU                                   #  RCON,=(E1/1+E2BETA11)**.5)+E3 B29 PL04D
000226: 36,2664           03636                                   RCON
000227: 36,2665           45246                          ABS      DSU
000228: 36,2666           31754                                   EPC2RTE
000229: 36,2667           52040                          BMN      GOTO
000230: 36,2670           74672                                   RTE374
000231: 36,2671           74677                                   RTE375
000232: 36,2672           51545        RTE374            DLOAD    ABS
000233: 36,2673           00001                                   00D
000234:                                                                                                 #  Page 851
000235: 36,2674           50025                          DSU      BMN
000236: 36,2675           31756                                   EPC3RTE
000237: 36,2676           74747                                   P37E
000238: 36,2677           43345        RTE375            DLOAD    DAD
000239: 36,2700           03730                                   NN1A
000240: 36,2701           31675                                   1RTEB28
000241: 36,2702           67240                          BMN      SLOAD
000242: 36,2703           74707                                   RTE380
000243: 36,2704           31735                                   OCT605
000244: 36,2705           77650                          GOTO
000245: 36,2706           74772                                   RTEALRM                               #  TOO MANY ITERATIONS
000246: 36,2707           03730        RTE380            STORE    NN1A
000247: 36,2710           53025                          DSU      BZE
000248: 36,2711           31721                                   M8RTEB28
000249: 36,2712           74730                                   RTE385
000250: 36,2713           45345                          DLOAD    DSU
000251: 36,2714           00001                                   00D
000252: 36,2715           03666                                   DRCON
000253: 36,2716           65301                          NORM     PDDL                                  #  X(T2)ERR-X(T2)ERR,=21                  PL06D
000254: 36,2717           00047                                   X1
000255: 36,2720           03670                                   RPRE'
000256: 36,2721           56225                          DSU      DDV                                   #  X(T2)PRI-X(T2)=Z2                      PL04D
000257: 36,2722           03726                                   X(T2)
000258: 36,2723           53605                          DMP      SL*                                   #  DX(T2)=X(T2)ERR(Z2/Z1)
000259: 36,2724           00001                                   00D
000260: 36,2725           20201                                   0,1
000261: 36,2726           77650                          GOTO
000262: 36,2727           74732                                   RTE390
000263: 36,2730           77745        RTE385            DLOAD                                          #  DX(T2)=X(T2)ERR
000264: 36,2731           00001                                   00D
000265: 36,2732           14021        RTE390            STODL    16D                                   #  DX(T2)                         PL02D
000266: 36,2733           77626                          STADR
000267: 36,2734           60141                          STODL    RCON                                  #  RCON=RCON,
000268: 36,2735           77600                          BOV
000269: 36,2736           74603                                   RTE360
000270: 36,2737           17666                          STODL    DRCON                                 #  X(T2)ERR,=X(T2)ERR
000271: 36,2740           03726                                   X(T2)
000272: 36,2741           17670                          STODL    RPRE'                                 #  X(T2)PRI=X(T2)
000273: 36,2742           00021                                   16D
000274: 36,2743           77615                          DAD
000275: 36,2744           03726                                   X(T2)
000276: 36,2745           37726                          STCALL   X(T2)                                 #  X(T2)=X(T2)+DX(T2)
000277: 36,2746           74603                                   RTE360                                #  REITERATE
000278: 36,2747           77624        P37E              CALL                                           #  DISPLAY CONIC SOLUTION
000279: 36,2750           74776                                   RTEVN
000280: 36,2751           41345        RTE505            DLOAD    DMP
000281: 36,2752           03720                                   PCON
000282: 36,2753           03754                                   BETA1
000283: 36,2754           53021                          BDSU     BZE
000284: 36,2755           03636                                   RCON
000285:                                                                                                 #  Page 852
000286: 36,2756           74764                                   RTE510
000287: 36,2757           71240                          BMN      DLOAD
000288: 36,2760           74764                                   RTE510
000289: 36,2761           31655                                   1RTEB2
000290: 36,2762           77650                          GOTO                                           #  ENTRY NEAR APOGEE
000291: 36,2763           74766                                   RTE515
000292: 36,2764           57545        RTE510            DLOAD    DCOMP                                 #  ENTRY NEAR PERIGEE
000293: 36,2765           31655                                   1RTEB2
000294: 36,2766           37761        RTE515            STCALL   PHI2
000295: 36,2767           64515                                   PREC100                               #  PRECISION TRAJECTORY COMPUTATION
000296: 36,2770           77654        RTE625            BZE
000297: 36,2771           75024                                   P37G
000298: 36,2772           77624        RTEALRM           CALL
000299: 36,2773           64255                                   P370ALRM
000300: 36,2774           77776                          EXIT
000301: 36,2775           12502                          TCF      P37                                   #  RECYCLE AFTER ALARM DISPLAY
000302:
000303:                                                                                                 #  RETURN TO EARTH DISPLAY SUBROUTINE
000304:
000305: 36,2776           45020        RTEVN             STQ      CALL
000306: 36,2777           03763                                   VNSTORE
000307: 36,3000           64311                                   RTEDISP                               #  DISPLAY PREPARATION
000308: 36,3001           77776                          EXIT
000309: 36,3002           33244                          CAF      V6N61RTE                              #  LATITUDE,LONGITUDE,BLANK
000310: 36,3003           03215                          TCR      P370GOFR                              #         IN LAT(SPL),LNG(SPL),-
000311: 36,3004           34710                          CAF      FOUR
000312: 36,3005           03211                          TCR      37BLANK    +1
000313: 36,3006           13013                          TCF      +5
000314: 36,3007           12502                          TCF      P37                                   #  RECYCLE
000315: 36,3010           33245                          CAF      V6N39RTE                              #  T21 HRS,MIN,SEC IN T3TOT4
000316: 36,3011           03231                          TCR      P370GOF
000317: 36,3012           12502                          TCF      P37                                   #  RECYCLE
000318: 36,3013           33246                          CAF      V6N60RTE                              #  DISPLAY BLANK,V(T2),FPA2
000319: 36,3014           03205                          TCR      P37GFRB1                              #         IN -,VPRED,GAMMAEI
000320: 36,3015           12502                          TCF      P37                                   #  RECYCLE
000321: 36,3016           33247                          CAF      V6N81RTE                              #  DISPLAY DELTA V (LV) IN DELVLVC
000322: 36,3017           03231                          TCR      P370GOF
000323: 36,3020           12502                          TCF      P37                                   #  RECYCLE
000324: 36,3021           06006                          TCR      INTPRET
000325: 36,3022           77650                          GOTO
000326: 36,3023           03763                                   VNSTORE
000327:
000328:                                                                                                 #  PRECISION DISPLAY, TARGETING COMPUTATION AND RTE END PROCESSING
000329:
000330: 36,3024           77624        P37G              CALL
000331: 36,3025           74776                                   RTEVN
000332: 36,3026           77776                          EXIT
000333: 36,3027           34716        P37N              CAF      SEVEN
000334: 36,3030           55131                          TS       OPTION1
000335: 36,3031           34712                          CAF      ONE
000336:                                                                                                 #  Page 853
000337: 36,3032           55132                          TS       OPTION2
000338: 36,3033           33243                          CAF      V4N06RTE                              #  DISPLAY RCS OR SPS OPTION      SPS ASSUMED
000339: 36,3034           03231                          TCR      P370GOF
000340: 36,3035           13033                          TCF      -2                                    #  RECYCLE
000341: 36,3036           06006                          TC       INTPRET                               #  PROCEED
000342: 36,3037           67201                          SETPD    SLOAD
000343: 36,3040           00001                                   00D
000344: 36,3041           01133                                   OPTION2
000345: 36,3042           53025                          DSU      BZE
000346: 36,3043           31667                                   1RTEB13
000347: 36,3044           75053                                   P37Q
000348: 36,3045           60335                          SLOAD    NORM                                  #  SPS
000349: 36,3046           00111                                   EMDOT
000350: 36,3047           00047                                   X1
000351: 36,3050           52125                          PDDL     GOTO
000352: 36,3051           31725                                   VCSPS
000353: 36,3052           75064                                   P37T
000354: 36,3053           43145        P37Q              DLOAD    BON                                   #  RCS
000355: 36,3054           31731                                   MDOTRCS
000356: 36,3055           00700                                   NJETSFLG
000357: 36,3056           75060                                   P37R
000358: 36,3057           77752                          SL1
000359: 36,3060           77752        P37R              SL1
000360: 36,3061           65301                          NORM     PDDL
000361: 36,3062           00047                                   X1
000362: 36,3063           31727                                   VCRCS
000363: 36,3064           56325        P37T              PDDL     DDV                                   #  DV/VC                  B7 -B5 = B2 PL02D
000364: 36,3065           03706                                   DV
000365: 36,3066           77776                          EXIT
000366: 36,3067           07171                          TC       POLY
000367: 36,3070           00001                          DEC      1          B-14
000368: 36,3071           00001 05070                    2DEC     5.66240507 E-4        B-3
000369: 36,3073           17527 36700                    2DEC     9.79487897 E-1        B-1
000370: 36,3075           47114 70670                    2DEC     -.388281955 B1
000371: 36,3077           06006                          TC       INTPRET
000372: 36,3100           67206                          PUSH     SLOAD                                 #  (1-E)**(-DV/VC)=A      B3 PL04D
000373: 36,3101           03076                                   WEIGHT/G
000374: 36,3102           56205                          DMP      DDV                                   #  DTB=(M0/MDOT)A B16+B3-B3=B16 PL00D
000375: 36,3103           41257                          SL*      DMP
000376: 36,3104           20165                                   0          -12D,1
000377: 36,3105           31733                                   CSUBT
000378: 36,3106           77621                          BDSU
000379: 36,3107           03716                                   T1
000380: 36,3110           03413                          STORE    TIG                                   #  TIG=T1-CT*DTB          B28
000381: 36,3111           77776                          EXIT
000382: 36,3112           33242                          CAF      V6N33RTE                              #  DISPLAY BIASED TIG
000383: 36,3113           03231                          TCR      P370GOF
000384:                                                                                                 #  Page 854
000385: 36,3114           13112                          TCF      -2
000386: 36,3115           34714                          CAF      ZERO
000387: 36,3116           55125                          TS       VHFCNT
000388: 36,3117           55126                          TS       TRKMKCNT
000389: 36,3120           06006                          TC       INTPRET
000390: 36,3121           77624                          CALL                                           #  CONICALLY INTEGRATE FROM R1,V1 OVER T12
000391: 36,3122           65055                                   RTENCK1
000392: 36,3123           53575                          VLOAD    UNIT                                  #                         PL00D
000393: 36,3124           03656                                   R(T2)/
000394: 36,3125           74315                          PDVL     VXSC                                  #  UR2                    B1 PL08D
000395: 36,3126           03740                                   UR1/
000396: 36,3127           31740                                   MCOS7.5
000397: 36,3130           74315                          PDVL     VXSC                                  #  -UR1(COS7.5)           B1 PL12D
000398: 36,3131           03746                                   UH/
000399: 36,3132           31742                                   MSIN7.5
000400: 36,3133           50255                          VAD      DOT                                   #  K/=-UR1(COS7.5)-UH(SIN7.5)     B2 PL00D
000401: 36,3134           50015                          DAD      BMN
000402: 36,3135           31744                                   MCOS22.5
000403: 36,3136           75163                                   P37W
000404: 36,3137           50375                          VLOAD    DOT                                   #  K/ . UR2 GR COS22.5
000405: 36,3140           03746                                   UH/
000406: 36,3141           03656                                   R(T2)/
000407: 36,3142           71240                          BMN      DLOAD
000408: 36,3143           75147                                   P37U
000409: 36,3144           31746                                   THETA165
000410: 36,3145           52006                          PUSH     GOTO
000411: 36,3146           75151                                   P37V
000412: 36,3147           41545        P37U              DLOAD    PUSH
000413: 36,3150           31750                                   THETA210
000414: 36,3151           77756        P37V              SIN
000415: 36,3152           16732                          STODL    SNTH
000416: 36,3153           43146                          COS      CLEAR
000417: 36,3154           03666                                   RVSW
000418: 36,3155           26734                          STOVL    CSTH
000419: 36,3156           03640                                   R(T1)/
000420: 36,3157           26657                          STOVL    RVEC
000421: 36,3160           03700                                   V2(T1)/
000422: 36,3161           36746                          STCALL   VVEC
000423: 36,3162           24737                                   TIMETHET
000424: 36,3163           43014        P37W              CLEAR    CLEAR
000425: 36,3164           01267                                   XDELVFLG
000426: 36,3165           03665                                   NORMSW
000427: 36,3166           77214                          SET      VLOAD
000428: 36,3167           01071                                   FINALFLG
000429: 36,3170           77626                          STADR
000430: 36,3171           60362                          STODL    RTARG
000431: 36,3172           00037                                   T
000432: 36,3173           77615                          DAD
000433: 36,3174           03716                                   T1
000434: 36,3175           27656                          STOVL    TPASS4
000435:                                                                                                 #  Page 855
000436: 36,3176           03700                                   V2(T1)/
000437: 36,3177           77651                          VSU
000438: 36,3200           03672                                   V(T1)/
000439: 36,3201           37646                          STCALL   DELVSIN
000440: 36,3202           73005                                   VN1645
000441: 36,3203           77650                          GOTO
000442: 36,3204           75163                                   P37W
000443:
000444:                                                                                                 #  SUBROUTINE TO GO TO GOFLASHR AND BLANK R1
000445:
000446: 36,3205           00006        P37GFRB1          EXTEND
000447: 36,3206           23762                          QXCH     SPRTEX
000448: 36,3207           03215                          TCR      P370GOFR
000449: 36,3210           34712        37BLANK           CAF      ONE
000450: 36,3211           05415                          TCR      BLANKET
000451: 36,3212           15112                          TCF      ENDOFJOB
000452: 36,3213           01762                          TC       SPRTEX                                #  RECYCLE
000453: 36,3214           13240                          TCF      P37PROC                               #  PROCEED
000454:
000455:                                                                                                 #  SUBROUTINE TO GO TO GOFLASHR
000456:
000457: 36,3215           00006        P370GOFR          EXTEND
000458: 36,3216           23733                          QXCH     RTENCKEX
000459: 36,3217           04555                          TCR      BANKCALL
000460: 36,3220           20763                          CADR     GOFLASHR
000461: 36,3221           14106                          TCF      GOTOP00H                              #  TERMINATE
000462: 36,3222           13225                          TCF      +3
000463: 36,3223           13227                          TCF      +4
000464: 36,3224           01733                          TC       RTENCKEX                              #  IMMEDIATE RETURN
000465: 36,3225           51733                          INDEX    RTENCKEX                              #  PROCEED
000466: 36,3226           10004                          TCF      0          +4
000467: 36,3227           51733                          INDEX    RTENCKEX                              #  RECYCLE
000468: 36,3230           10003                          TCF      0          +3
000469:
000470:                                                                                                 #  SUBROUTINE TO GO TO GOFLASH
000471:
000472: 36,3231           00006        P370GOF           EXTEND
000473: 36,3232           23762                          QXCH     SPRTEX
000474: 36,3233           04555                          TCR      BANKCALL
000475: 36,3234           20624                          CADR     GOFLASH
000476: 36,3235           14106                          TCF      GOTOP00H
000477: 36,3236           13240                          TCF      +2
000478: 36,3237           01762                          TC       SPRTEX
000479: 36,3240           51762        P37PROC           INDEX    SPRTEX
000480: 36,3241           10001                          TCF      0          +1
000481: 36,3242           01441        V6N33RTE          VN       0633
000482: 36,3243           01006        V4N06RTE          VN       0406
000483: 36,3244           01475        V6N61RTE          VN       0661
000484: 36,3245           01447        V6N39RTE          VN       0639
000485: 36,3246           01474        V6N60RTE          VN       0660
000486:                                                                                                 #  Page 856
000487: 36,3247           01521        V6N81RTE          VN       0681
000488: 32,2255                                          BANK     32
000489: 32,2000                                          SETLOC   RTE
000490: 32,2000                                          BANK
000491: 32,2255                                          COUNT    32/RTE
000492:
000493:                                                                                                 #  Page 857
000494:                                                                                                 #  ALARM DISPLAY SUBROUTINE
000495:
000496: 32,2255           77420        P370ALRM          STQ      EXIT
000497: 32,2256           03762                                   SPRTEX
000498: 32,2257           30154                          CA       MPAC
000499: 32,2260           05651                          TC       VARALARM
000500: 32,2261           32271                          CAF      V5N09RTE
000501: 32,2262           04555                          TC       BANKCALL
000502: 32,2263           20624                          CADR     GOFLASH
000503: 32,2264           14106                          TCF      GOTOP00H
000504: 32,2265           12261                          TCF      -4
000505: 32,2266           06006                          TC       INTPRET
000506: 32,2267           77650                          GOTO
000507: 32,2270           03762                                   SPRTEX
000508: 32,2271           01211        V5N09RTE          VN       0509
000509:
000510:                                                                                                 #  Page 858
000511:                                                                                                 #  TIME RADIUS CALLING SUBROUTINE
000512:
000513:                                                                                                 #  INPUT
000514:                                                                                                 #         RVEC            INITIAL POSITION VECTOR                                 VECTOR  B29     METERS
000515:                                                                                                 #         VVEC            INITIAL VELOCITY VECTOR                                 VECTOR  B7      METERS/CS
000516:                                                                                                 #         RDESIRED        FINAL RADIUS FOR WHICH TRANSFER TIME IS TO BE COMPUTED  DP      B29     METERS
000517:                                                                                                 #         CONICX1         X1 SETTING FOR CONIC SUBROUTINES        -2=EARTH        SP      B14
000518:
000519:                                                                                                 #  OUTPUT
000520:                                                                                                 #         R(T2)/          FINAL POSITION VECTOR                                   VECTOR  B29     METERS
000521:                                                                                                 #         V(T2)/          FINAL VELOCITY VECTOR                                   VECTOR  B7      METERS/CS
000522:                                                                                                 #         T12             TRANSFER TIME TO FINAL RADIUS                           DP      B28     CS
000523:
000524: 32,2272           43020        TMRAD100          STQ      CLEAR
000525: 32,2273           03733                                   RTENCKEX
000526: 32,2274           03666                                   RVSW
000527: 32,2275           67164                          AXC,2    SXA,2
000528: 32,2276           20000                          OCT      20000
000529: 32,2277           02756                                   SGNRDOT
000530: 32,2300           45140                          LXC,1    CALL
000531: 32,2301           03734                                   CONICX1
000532: 32,2302           25552                                   TIMERAD
000533: 32,2303           27710                          STOVL    V(T2)/     PL00D
000534: 32,2304           77626                          STADR
000535: 32,2305           60121                          STODL    R(T2)/
000536: 32,2306           00037                                   T
000537: 32,2307           37724                          STCALL   T12
000538: 32,2310           03733                                   RTENCKEX
000539:
000540:                                                                                                 #  Page 859
000541:                                                                                                 #  DISPLAY CALCULATION SUBROUTINE
000542:
000543:                                                                                                 #  DESCRIPTION
000544:                                                                                                 #         OUTPUT FOR DISPLAY IS CONVERTED TO PROPER UNITS AND PLACED IN OUTPUT STORAGE REGISTERS.  LANDING SITE
000545:                                                                                                 #         COMPUTATION FOR DETERMINING LANDING SITE LATITUDE AND LONGITUDE IS INCLUDED IN THE ROUTINE.
000546:
000547:                                                                                                 #  CALLING SEQUENCE
000548:                                                                                                 #         L       CALL
000549:                                                                                                 #         L+1             RTEDISP
000550:
000551:                                                                                                 #  SUBROUTINES CALLED
000552:                                                                                                 #         TMRAD100
000553:                                                                                                 #         AUGEKUGL
000554:                                                                                                 #         LAT-LONG
000555:
000556:                                                                                                 #  ERASABLE INITIALIZATION REQUIRED
000557:                                                                                                 #     PUSHLIST
000558:                                                                                                 #         NONE
000559:                                                                                                 #     MPAC
000560:                                                                                                 #         NONE
000561:                                                                                                 #     OTHER
000562:                                                                                                 #         R(T2)/          FINAL POSITION VECTOR                                   VECTOR  B29     METERS
000563:                                                                                                 #         V(T2)/          FINAL VELOCITY VECTOR                                   VECTOR  B7      METERS/CS
000564:                                                                                                 #         T2              FINAL TIME                                              DP      B28     CS
000565:                                                                                                 #         V2(T1)/         POST IMPULSE INITIAL VELOCITY VECTOR                    VECTOR  B7      METERS/CS
000566:                                                                                                 #         V(T1)/          INITIAL VELOCITY VECTOR                                 VECTOR  B7
000567:                                                                                                 #         UR1/            UNIT INITIAL VECTOR                                     VECTOR  B1
000568:                                                                                                 #         UH/             UNIT HORIZONTAL VECTOR                                  VECTOR  B1
000569:
000570:                                                                                                 #  OUTPUT
000571:                                                                                                 #         VPRED           VELOCITY MAGNITUDE AT 400,000 FT. ENTRY ALTITUDE        DP      B7      METERS/CS
000572:                                                                                                 #         T3TOT4          TRANSIT TIME TO 400,000 FT. ENTRY ALTITUDE              DP      B28     CS
000573:                                                                                                 #         GAMMAEI         FLIGHT PATH ANGLE AT 400,000 FT. ENTRY ALTITUDE         DP      B0      REVS + ABOVE HORIZ
000574:                                                                                                 #         DELVLVC         INITIAL VELOCITY CHANGE VECTOR IN LOCAL VERTICAL COORD. VECTOR  B7      METERS/CS
000575:                                                                                                 #         LAT(SPL)        LATITUDE OF THE LANDING SITE                            DP      B0      REVS
000576:                                                                                                 #         LNG(SPL)        LONGITUDE OF THE LANDING SITE                           DP      B0      REVS
000577:
000578: 32,2311           77220        RTEDISP           STQ      VLOAD                                 #  DISPLAY
000579: 32,2312           03762                                   SPRTEX
000580: 32,2313           03710                                   V(T2)/
000581: 32,2314           65256                          UNIT     PDDL
000582: 32,2315           00045                                   36D
000583: 32,2316           17767                          STODL    VPRED                                 #  V(T2)
000584: 32,2317           03736                                   T2
000585: 32,2320           77625                          DSU
000586: 32,2321           03413                                   SPRTETIG
000587: 32,2322           26641                          STOVL    T3TOT4                                #  T21
000588: 32,2323           03656                                   R(T2)/
000589: 32,2324           50256                          UNIT     DOT
000590: 32,2325           77752                          SL1
000591:                                                                                                 #  Page 860
000592: 32,2326           44326                          ARCCOS   BDSU
000593: 32,2327           31655                                   1RTEB2
000594: 32,2330           27771                          STOVL    GAMMAEI                               #  FLIGHT PATH ANGLE T2
000595: 32,2331           03700                                   V2(T1)/
000596: 32,2332           41451                          VSU      PUSH
000597: 32,2333           03672                                   V(T1)/
000598: 32,2334           57441                          DOT      DCOMP
000599: 32,2335           03740                                   UR1/
000600: 32,2336           41515                          PDVL     PUSH
000601: 32,2337           63345                          DLOAD    PDVL
000602: 32,2340           31677                                   ZERORTE
000603: 32,2341           55441                          DOT      VDEF
000604: 32,2342           03746                                   UH/
000605: 32,2343           77772                          VSL1
000606: 32,2344           27405                          STOVL    DELVLVC                               #  DV/ (LVC)
000607: 32,2345           03656                                   R(T2)/
000608: 32,2346           02657                          STORE    RVEC                                  #  ***** LANDING SITE COMPUTATION *****
000609: 32,2347           45246                          ABVAL    DSU
000610: 32,2350           31723                                   30480RTE
000611: 32,2351           26760                          STOVL    RDESIRED
000612: 32,2352           03710                                   V(T2)/
000613: 32,2353           36746                          STCALL   VVEC
000614: 32,2354           64272                                   TMRAD100                              #  R3,V3,T23 FROM TIMERAD
000615: 32,2355           53575                          VLOAD    UNIT
000616: 32,2356           03656                                   R(T2)/
000617: 32,2357           53515                          PDVL     UNIT                                  #  UR3                            PL06D
000618: 32,2360           03710                                   V(T2)/
000619: 32,2361           72441                          DOT      SL1                                   #  GAMMAE=ARCSIN(UR3 . UV3)       PL00D
000620: 32,2362           65336                          ARCSIN   PDDL                                  #  V(T3)                          PL02D
000621: 32,2363           00045                                   36D
000622: 32,2364           51525                          PDDL     ABS
000623: 32,2365           45006                          PUSH     CALL                                  #  /GAMMAE/                       PL04D
000624: 32,2366           64075                                   AUGEKUGL                              #  PHIE                           PL06D
000625: 32,2367           43215                          DAD      DAD
000626: 32,2370           03724                                   T12                                   #  T23
000627: 32,2371           03736                                   T2
000628: 32,2372           14003                          STODL    02D                                   #  T(LS)=T2+T23+TE
000629: 32,2373           00005                                   04D
000630: 32,2374           77756                          SIN
000631: 32,2375           17403                          STODL    LNG(SPL)                              #  LNG(SPL)=SIN(PHIE)             PL04D
000632: 32,2376           77746                          COS
000633: 32,2377           03401                          STORE    LAT(SPL)                              #  LAT(SPL)=COS(PHIE)
000634: 32,2400           53575                          VLOAD    UNIT
000635: 32,2401           03656                                   R(T2)/
000636: 32,2402           41406                          PUSH     PUSH
000637: 32,2403           53515                          PDVL     UNIT                                  #                                 PL22D
000638: 32,2404           03710                                   V(T2)/
000639: 32,2405           47315                          PDVL     VXV
000640: 32,2406           53435                          VXV      UNIT                                  #  UH3=UNIT(UR3 X UV3 X UR3)      PL10D
000641: 32,2407           63361                          VXSC     PDVL
000642:                                                                                                 #  Page 861
000643: 32,2410           03403                                   LNG(SPL)
000644: 32,2411           53361                          VXSC     VAD                                   #                                 PL04D
000645: 32,2412           03401                                   LAT(SPL)
000646: 32,2413           43014                          CLEAR    CLEAR                                 #  T(LS) IN MPAC
000647: 32,2414           00662                                   ERADFLAG
000648: 32,2415           01663                                   LUNAFLAG
000649: 32,2416           16152                          STODL    ALPHAV                                #  ALPHAV=UR3(COSPHIE)+UH3(SINPHIE) PL02D
000650: 32,2417           77624                          CALL
000651: 32,2420           26322                                   LAT-LONG
000652: 32,2421           77745                          DLOAD
000653: 32,2422           01104                                   LAT
000654: 32,2423           17401                          STODL    LAT(SPL)                              #  LATITUDE LANDING SITE  *****
000655: 32,2424           01106                                   LONG
000656: 32,2425           37403                          STCALL   LNG(SPL)                              #  LONGITUDE LANDING SITE *****
000657: 32,2426           03762                                   SPRTEX
000658: 32,2427                                          COUNT*   $$/RTE
000659:
000660:                                                                                                 #  Page 862
000661:                                                                                                 #  INITIAL VECTOR SUBROUTINE
000662:
000663:                                                                                                 #  DESCRIPTION
000664:                                                                                                 #         A PRECISION INTEGRATION OF THE STATE VECTOR TO THE TIME OF IGNITION IS PERFORMED.  PRECOMPUTATIONS OCCUR.
000665:
000666:                                                                                                 #  CALLING SEQUENCE
000667:                                                                                                 #         L       CALL
000668:                                                                                                 #         L+1             INVC100
000669:
000670:                                                                                                 #  NORMAL EXIT MODE
000671:                                                                                                 #         AT L+2 OF CALLING SEQUENCE WITH MPAC = 0
000672:
000673:                                                                                                 #  ALARM EXIT MODE
000674:                                                                                                 #         AT L+2 OF CALLING SEQUENCE WITH MPAC = OCTAL 612 FOR STATE VECTOR IN MOON'S SPHERE OF INFLUENCE
000675:
000676:                                                                                                 #  SUBROUTINES CALLED
000677:                                                                                                 #         CSMPREC
000678:
000679:                                                                                                 #  ERASABLE INITIALIZATION REQUIRED
000680:                                                                                                 #     PUSHLIST
000681:                                                                                                 #         NONE
000682:                                                                                                 #     MPAC
000683:                                                                                                 #         NONE
000684:                                                                                                 #     OTHER
000685:                                                                                                 #         SPRTETIG        TIME OF IGNITION                                        DP      B28     CS
000686:                                                                                                 #         CSM STATE VECTOR
000687:
000688:                                                                                                 #  OUTPUT
000689:                                                                                                 #         R(T1)/          INITIAL POSITION VECTOR AT TIG                          VECTOR  B29     METERS
000690:                                                                                                 #         V(T1)/          INITIAL VELOCITY VECTOR AT TIG                          VECTOR  B7      METERS/CS
000691:                                                                                                 #         T1              INITIAL VECTOR TIME (TIG)                               DP      B28     CS
000692:                                                                                                 #         UR1/            UNIT INITIAL VECTOR                                     VECTOR  B1
000693:                                                                                                 #         UH/             UNIT HORIZONTAL VECTOR                                  VECTOR  B1
000694:                                                                                                 #         CFPA            COSINE OF INITIAL FLIGHT PATH ANGLE                     DP      B1
000695:
000696: 32,2427           71220        INVC100           STQ      DLOAD
000697: 32,2430           03762                                   SPRTEX
000698: 32,2431           03413                                   SPRTETIG
000699: 32,2432           34041                          STCALL   TDEC1
000700: 32,2433           27022                                   CSMPREC                               #  PRECISION INTEGRATION  R0,V0 TO R1,V1
000701: 32,2434           67175                          VLOAD    SXA,2
000702: 32,2435           00001                                   RATT
000703: 32,2436           03755                                   P(T1)
000704: 32,2437           27640                          STOVL    R(T1)/
000705: 32,2440           00007                                   VATT
000706: 32,2441           17672                          STODL    V(T1)/
000707: 32,2442           00015                                   TAT
000708: 32,2443           03716                          STORE    T1
000709: 32,2444           53135                          SLOAD    BZE
000710: 32,2445           03756                                   P(T1)
000711:                                                                                                 #  Page 863
000712: 32,2446           64452                                   INVC109
000713: 32,2447           52135        INVC107           SLOAD    GOTO
000714: 32,2450           31736                                   OCT612
000715: 32,2451           74772                                   RTEALRM                               #  R1,V1 NOT IN PROPER SPHERE OF INFLUENCE
000716: 32,2452           53575        INVC109           VLOAD    UNIT
000717: 32,2453           03640                                   R(T1)/
000718: 32,2454           17740                          STODL    UR1/                                  #  UR1/                                   B1
000719: 32,2455           00045                                   36D
000720: 32,2456           27646                          STOVL    R(T1)                                 #  R(T1)                                  B29
000721: 32,2457           03672                                   V(T1)/
000722: 32,2460           77656                          UNIT
000723: 32,2461           03746                          STORE    UV1/
000724: 32,2462           72441                          DOT      SL1
000725: 32,2463           03740                                   UR1/
000726: 32,2464           03757                          STORE    CFPA                                  #  CFPA                                   B1
000727: 32,2465           45246                          ABS      DSU
000728: 32,2466           31752                                   EPC1RTE
000729: 32,2467           71240                          BMN      DLOAD
000730: 32,2470           64477                                   INVC115                               #  NOT NEAR RECTILINEAR
000731: 32,2471           31655                                   1RTEB2
000732: 32,2472           41525                          PDDL     PUSH
000733: 32,2473           31677                                   ZERORTE
000734: 32,2474           41466                          VDEF     PUSH                                  #  N/ = (0,0,1)
000735: 32,2475           77650                          GOTO
000736: 32,2476           64503                                   INVC120
000737: 32,2477           47375        INVC115           VLOAD    VXV
000738: 32,2500           03740                                   UR1/
000739: 32,2501           03746                                   UV1/
000740: 32,2502           77606                          PUSH                                           #  N/ = UR X UV                           B2
000741: 32,2503           41545        INVC120           DLOAD    PUSH
000742: 32,2504           77244                          BPL      VLOAD
000743: 32,2505           64507                                   INVC125
000744: 32,2506           41476                          VCOMP    PUSH                                  #  CORRECT N/ FOR RETROGRADE TRAJECTORY
000745: 32,2507           77775        INVC125           VLOAD
000746: 32,2510           53435                          VXV      UNIT
000747: 32,2511           03740                                   UR1/
000748: 32,2512           03746                          STORE    UH/                                   #  UH/                                    B1
000749: 32,2513           77650                          GOTO
000750: 32,2514           03762                                   SPRTEX
000751:
000752:                                                                                                 #  Page 864
000753:                                                                                                 #  PRECISION TRAJECTORY COMPUTATION SUBROUTINE
000754:
000755:                                                                                                 #  DESCRIPTION
000756:                                                                                                 #         A NUMERICALLY INTEGRATED TRAJECTORY IS GENEATED WHICH FOR THE RETURN TO EARTH PROBLEM SATISFIES THE REENTRY
000757:                                                                                                 #         CONSTRAINTS (RCON AND X(T2)) ACHIEVED BY THE INITIAL CONIC TRAJECTORY AND MEETS THE DVD REQUIREMENT AS CLOSELY
000758:                                                                                                 #         AS POSSIBLE.
000759:
000760:                                                                                                 #  CALLING SEQUENCE
000761:                                                                                                 #         L       CALL
000762:                                                                                                 #         L+1             PREC100
000763:
000764:                                                                                                 #  NORMAL EXIT MODE
000765:                                                                                                 #         AT L+2 OF CALLING SEQUENCE WITH MPAC = 0
000766:
000767:                                                                                                 #  ALARM EXIT MODE
000768:                                                                                                 #         AT L+2 OF CALLING SEQUENCE WITH MPAC =
000769:                                                                                                 #                 OCTAL 605       FOR EXCESS ITERATIONS
000770:                                                                                                 #                 OCTAL 613       FOR REENTRY ANGLE OUT OF LIMITS
000771:
000772:                                                                                                 #  SUBROUTINES CALLED
000773:                                                                                                 #         INTSTALL
000774:                                                                                                 #         RTENCK2
000775:                                                                                                 #         RTENCK3
000776:                                                                                                 #         TIMERAD
000777:                                                                                                 #         PARAM
000778:                                                                                                 #         V2T100
000779:
000780:                                                                                                 #  ERASABLE INITIALIZATION REQUIRED
000781:                                                                                                 #     PUSHLIST
000782:                                                                                                 #         NONE
000783:                                                                                                 #     MPAC
000784:                                                                                                 #         NONE
000785:                                                                                                 #     OTHER
000786:                                                                                                 #         R(T1)/          INITIAL POSITION VECTOR                                 VECTOR  B28/B27 METERS
000787:                                                                                                 #         V2(T1)/         POST IMPULSE INITIAL VELOCITY VECTOR                    VECTOR  B7/B5   METERS/CS
000788:                                                                                                 #         V(T1)/          INITIAL VELOCITY VECTOR                                 VECTOR  B7/B5   METERS/CS
000789:                                                                                                 #         T1              INITIAL VECTOR TIME                                     DP      B28     CS
000790:                                                                                                 #         T12             INITIAL TO FINAL POSITION TIME                          DP      B28     CS
000791:                                                                                                 #         RCON            CONIC FINAL RADIUS                                      DP      B29/B27 METERS
000792:                                                                                                 #         R(T1)           MAGNITUDE OF INITIAL POSITION VECTOR                    DP      B29/B27 METERS
000793:                                                                                                 #         X(T2)           COTANGENT OF FINAL FLIGHT PATH ANGLE                    DP      B0
000794:                                                                                                 #         X(T1)           COTANGENT OF INITIAL FLIGHT PATH ANGLE                  DP      B5
000795:                                                                                                 #         RTEDVD          DELTA VELOCITY DESIRED                                  DP      B7/B5   METERS/CS
000796:                                                                                                 #         MAMAX1          MAJOR AXIS LIMIT FOR LOWER BOUND ON GAMDV ITERATOR      DP      B30/B28 METERS
000797:                                                                                                 #         MAMAX2          MAJOR AXIS LIMIT FOR UPPER BOUND ON GAMDV ITERATOR      DP      B30/B28 METERS
000798:                                                                                                 #         UR1/            UNIT INITIAL VECTOR                                     VECTOR  B1
000799:                                                                                                 #         UH/             UNIT HORIZONTAL VECTOR                                  VECTOR  B1
000800:                                                                                                 #         BETA1           1+X(T2)**2                                              DP      B1
000801:                                                                                                 #         PHI2            PERIGEE OR APOGEE INDICATOR                             DP      B2      -1 PERIGEE, +1 APOGEE
000802:                                                                                                 #  Page 865
000803:
000804:                                                                                                 #  OUTPUT
000805:                                                                                                 #         V2(T1)/         POST IMPULSE INITIAL VELOCITY VECTOR                    VECTOR  B7      METERS/CS
000806:                                                                                                 #         R(T2)/          FINAL POSITION VECTOR                                   VECTOR  B29     METERS
000807:                                                                                                 #         V(T2)/          FINAL VELOCITY VECTOR                                   VECTOR  B7      METERS/CS
000808:                                                                                                 #         T2              FINAL TIME                                              DP      B28     CENTISECONDS
000809:
000810:                                                                                                 #  DEBRIS
000811:                                                                                                 #         RD              FINAL R DESIRED                                         DP      B29/B27 METERS
000812:                                                                                                 #         R/APRE          R/A                                                     DP      B6
000813:                                                                                                 #         P/RPRE          P/R                                                     DP      B2
000814:                                                                                                 #         RPRE            MAGNITUDE OF R(T2)/                                     DP      B29/B27 METERS
000815:                                                                                                 #         X(T2)PRE        COTANGENT OF GAMMA2                                     DP      B0
000816:                                                                                                 #         DT12            CORRECTION TO FINAL TIME T2                             DP      B28     CENTISECONDS
000817:                                                                                                 #         RCON            FONAL RADIUS                                            DP      B29/B27 METERS
000818:                                                                                                 #         DRCON           DELTA RCON                                              DP      B29/B27 METERS
000819:
000820: 32,2515           71220        PREC100           STQ      DLOAD
000821: 32,2516           03762                                   SPRTEX
000822: 32,2517           31705                                   10RTE
000823: 32,2520           17730                          STODL    NN1A
000824: 32,2521           03636                                   RCON
000825: 32,2522           03664                          STORE    RD
000826: 32,2523           77745        PREC120           DLOAD
000827: 32,2524           31715                                   2RTEB1
000828: 32,2525           17650                          STODL    DT21PR                                #  DT21PR = POSMAX
000829: 32,2526           31703                                   M15RTE
000830: 32,2527           37732                          STCALL   NN2
000831: 32,2530           65103                                   RTENCK3
000832: 32,2531           77624        PREC125           CALL
000833: 32,2532           11527                                   PARAM
000834: 32,2533           77745                          DLOAD
000835: 32,2534           02742                                   P
000836: 32,2535           14033                          STODL    P/RPRE
000837: 32,2536           02744                                   R1A
000838: 32,2537           14035                          STODL    R/APRE
000839: 32,2540           00041                                   R1
000840: 32,2541           14031                          STODL    RPRE
000841: 32,2542           03775                                   COGA
000842: 32,2543           77661                          SL
000843: 32,2544           20206                                   5
000844: 32,2545           03724                          STORE    X(T2)PRE
000845: 32,2546           43276                          DCOMP    DAD
000846: 32,2547           03726                                   X(T2)
000847: 32,2550           45246                          ABS      DSU
000848: 32,2551           31760                                   EPC4RTE
000849: 32,2552           50000                          BOV      BMN
000850: 32,2553           64555                                   PREC130
000851: 32,2554           64736                                   PREC175
000852:
000853:                                                                                                 #  DESIRED REENTRY ANGLE NOT ACHIEVED
000854:                                                                                                 #  Page 866
000855: 32,2555           50145        PREC130           DLOAD    BMN
000856: 32,2556           03732                                   NN2
000857: 32,2557           64563                                   PREC140
000858: 32,2560           52135        PREC132           SLOAD    GOTO                                  #  TOO MANY ITERATIONS
000859: 32,2561           31735                                   OCT605                                #         EXIT WITH ALARM
000860: 32,2562           65053                                   PRECX
000861:
000862:                                                                                                 #  DETERMINE RADIUS AT WHICH THE DESIRED REENTRY ANGLE WILL BE ACHIEVED
000863:
000864: 32,2563           53145        PREC140           DLOAD    BZE
000865: 32,2564           03730                                   NN1A
000866: 32,2565           64616                                   PREC162
000867: 32,2566           42545        PREC150           DLOAD    SL4                                   #  ELLIPTIC CASE
000868: 32,2567           00035                                   R/APRE
000869: 32,2570           52525                          PDDL     SL3                                   #                                 PL02D
000870: 32,2571           00033                                   P/RPRE
000871: 32,2572           41205                          DMP      DMP                                   #  (P/A)BETA1                     B4 PL00D
000872: 32,2573           03754                                   BETA1
000873: 32,2574           57512                          SL2      DCOMP
000874: 32,2575           50015                          DAD      BMN                                   #  1-(P/A)BETA1=BETA2             B2
000875: 32,2576           31655                                   1RTEB2
000876: 32,2577           64602                                   PREC155
000877: 32,2600           52166                          SQRT     GOTO                                  #  BETA2**.5=BETA3                B1
000878: 32,2601           64604                                   PREC160
000879: 32,2602           77745        PREC155           DLOAD
000880: 32,2603           31677                                   ZERORTE                               #  BETA3=0
000881: 32,2604           43205        PREC160           DMP      DAD
000882: 32,2605           03761                                   PHI2
000883: 32,2606           31657                                   1RTEB3
000884: 32,2607           60325                          PDDL     NORM                                  #  1+(PHI2)(beta3)                B3
000885: 32,2610           00035                                   R/APRE
000886: 32,2611           00047                                   X1
000887: 32,2612           77665                          BDDV                                           #                                 PL00D
000888: 32,2613           52057                          SL*      GOTO                                  #  (1+PHI2*BETA3)/(R/A)=BETA4     B1
000889: 32,2614           20175                                   0          -4,1
000890: 32,2615           64624                                   PREC165
000891: 32,2616           60345        PREC162           DLOAD    NORM
000892: 32,2617           00031                                   RPRE
000893: 32,2620           00047                                   X1
000894: 32,2621           53665                          BDDV     SL*                                   #  BETA4=RD/RPRE                  B1
000895: 32,2622           03664                                   RD
000896: 32,2623           20200                                   0          -1,1
000897: 32,2624           45206        PREC165           PUSH     DSU
000898: 32,2625           31653                                   1RTEB1
000899: 32,2626           77676                          DCOMP
000900: 32,2627           03765                          STORE    BETA12
000901: 32,2630           71240                          BMN      DLOAD
000902: 32,2631           64642                                   PREC168
000903: 32,2632           03724                                   X(T2)PRE
000904: 32,2633           71240                          BMN      DLOAD
000905:                                                                                                 #  Page 867
000906: 32,2634           64640                                   PREC167
000907: 32,2635           03765                                   BETA12
000908: 32,2636           77676                          DCOMP
000909: 32,2637           03765                          STORE    BETA12
000910: 32,2640           77745        PREC167           DLOAD
000911: 32,2641           03765                                   BETA12
000912: 32,2642           45246        PREC168           ABS      DSU
000913: 32,2643           31764                                   EPC6RTE
000914: 32,2644           71240                          BMN      DLOAD
000915: 32,2645           64736                                   PREC175
000916: 32,2646           72405                          DMP      SL1
000917: 32,2647           00031                                   RPRE
000918: 32,2650           77606                          PUSH                                           #  RF = NEW RADIUS
000919: 32,2651           43345        PREC170           DLOAD    DAD
000920: 32,2652           03732                                   NN2
000921: 32,2653           31675                                   1RTEB28
000922: 32,2654           03732                          STORE    NN2
000923: 32,2655           43175                          VLOAD    SET
000924: 32,2656           03656                                   R(T2)/
000925: 32,2657           03466                                   RVSW
000926: 32,2660           26657                          STOVL    RVEC
000927: 32,2661           03710                                   V(T2)/
000928: 32,2662           77765                          SIGN
000929: 32,2663           03765                                   BETA12
000930: 32,2664           16746                          STODL    VVEC
000931: 32,2665           31653                                   1RTEB1
000932: 32,2666           57565                          SIGN     DCOMP
000933: 32,2667           03765                                   BETA12
000934: 32,2670           71354                          LXA,2    DLOAD
000935: 32,2671           00154                                   MPAC
000936: 32,2672           67140                          LXC,1    SXA,2
000937: 32,2673           03734                                   CONICX1
000938: 32,2674           02756                                   SGNRDOT
000939: 32,2675           36760                          STCALL   RDESIRED                              #  COMPUTED DT12 (CORRECTION TO TIME OF
000940: 32,2676           25552                                   TIMERAD                               #         NEW RADIUS)
000941: 32,2677           75345                          DLOAD    SIGN
000942: 32,2700           00037                                   T
000943: 32,2701           03765                                   BETA12
000944: 32,2702           60325                          PDDL     NORM                                  #  DT21=(PHI4)DT21                PL02D
000945: 32,2703           03650                                   DT21PR
000946: 32,2704           00047                                   X1
000947: 32,2705           53665                          BDDV     SL*
000948: 32,2706           00001                                   00D
000949: 32,2707           20176                                   0          -3,1
000950: 32,2710           50006                          PUSH     BMN                                   #  BETA13=(DT21)/(DT21PR) R3 PL04D
000951: 32,2711           64716                                   PREC172
000952: 32,2712           65345                          DLOAD    PDDL                                  #  BETA14=1                       B0 PL04D
000953: 32,2713           31715                                   2RTEB1
000954: 32,2714           77650                          GOTO
000955: 32,2715           64720                                   PREC173
000956:                                                                                                 #  Page 868
000957: 32,2716           65345        PREC172           DLOAD    PDDL                                  #  BETA14=.6                      B0 PL04D
000958: 32,2717           31707                                   M.6RTE
000959: 32,2720           45271        PREC173           DDV      DSU
000960: 32,2721           00003                                   02D
000961: 32,2722           31657                                   1RTEB3
000962: 32,2723           71240                          BMN      DLOAD
000963: 32,2724           64730                                   PREC174
000964: 32,2725           77605                          DMP
000965: 32,2726           03650                                   DT21PR
000966: 32,2727           00001                          STORE    00D                                   #  DT21=(BETA14)DT21PR            B28
000967: 32,2730           41545        PREC174           DLOAD    PUSH
000968: 32,2731           00001                                   00D
000969: 32,2732           37650                          STCALL   DT21PR
000970: 32,2733           65065                                   RTENCK2
000971: 32,2734           77650                          GOTO
000972: 32,2735           64531                                   PREC125
000973: 32,2736           45345        PREC175           DLOAD    DSU
000974: 32,2737           00031                                   RPRE
000975: 32,2740           03664                                   RD
000976: 32,2741           51406                          PUSH     ABS                                   #  RPRE-RD = RERR
000977: 32,2742           50025                          DSU      BMN
000978: 32,2743           31766                                   EPC7RTE
000979: 32,2744           65037                                   PREC220
000980:
000981:                                                                                                 #  DESIRED RADIUS HAS NOT BEEN ACHIEVED
000982:
000983: 32,2745           53145                          DLOAD    BZE
000984: 32,2746           03730                                   NN1A
000985: 32,2747           64560                                   PREC132                               #  TOO MANY ITERATIONS
000986: 32,2750           53025                          DSU      BZE
000987: 32,2751           31705                                   10RTE
000988: 32,2752           65005                                   PREC207
000989: 32,2753           45345        PREC205           DLOAD    DSU                                   #  NOT FIRST PASS OF ITERATION
000990: 32,2754           03670                                   RPRE'
000991: 32,2755           00031                                   RPRE                                  #  RPRE'-RPRE                     B29/B27
000992: 32,2756           55301                          NORM     BDDV
000993: 32,2757           00050                                   X2
000994: 32,2760           03666                                   DRCON
000995: 32,2761           41457                          SL*      PUSH                                  #  DRCON/(RPRE'-RPRE)=S           B2
000996: 32,2762           57600                                   0          -2,2
000997: 32,2763           40015                          DAD      BOV                                   #  S GR +4 OR LS -4
000998: 32,2764           31653                                   1RTEB1
000999: 32,2765           64772                                   PREC205M
001000: 32,2766           45246                          ABS      DSU
001001: 32,2767           31653                                   1RTEB1
001002: 32,2770           77640                          BMN
001003: 32,2771           64775                                   PREC206
001004: 32,2772           57545        PREC205M          DLOAD    DCOMP                                 #  S GR 0 OR LS -4
001005: 32,2773           31715                                   2RTEB1
001006: 32,2774           77725                          PDDL                                           #  S=-4                           B2
001007:                                                                                                 #  Page 869
001008: 32,2775           41345        PREC206           DLOAD    DMP
001009: 32,2776           77712                          SL2
001010: 32,2777           03666                          STORE    DRCON                                 #  DRCON=S(RERR)                  B29
001011: 32,3000           77615                          DAD
001012: 32,3001           03636                                   RCON
001013: 32,3002           03636                          STORE    RCON                                  #  RCON+DRCON=RCON
001014: 32,3003           77650                          GOTO
001015: 32,3004           65024                                   PREC210
001016: 32,3005           63545        PREC207           DLOAD    DSQ                                   #  FIRST PASS OF ITERATION
001017: 32,3006           03664                                   RD
001018: 32,3007           70501                          NORM     SR1
001019: 32,3010           00047                                   X1
001020: 32,3011           60325                          PDDL     NORM
001021: 32,3012           00031                                   RPRE
001022: 32,3013           00050                                   X2
001023: 32,3014           55260                          XSU,1    BDDV
001024: 32,3015           00047                                   X2
001025: 32,3016           77657                          SR*
001026: 32,3017           20600                                   0          -1,1
001027: 32,3020           03636                          STORE    RCON                                  #  RD**2/RPRE=RCON
001028: 32,3021           77625                          DSU
001029: 32,3022           03664                                   RD
001030: 32,3023           03666                          STORE    DRCON                                 #  RCON-RD=DRCON
001031: 32,3024           77745        PREC210           DLOAD                                          #  PREPARE FOR NEXT ITERATION
001032: 32,3025           00031                                   RPRE
001033: 32,3026           17670                          STODL    RPRE'
001034: 32,3027           03730                                   NN1A
001035: 32,3030           77625                          DSU
001036: 32,3031           31675                                   1RTEB28
001037: 32,3032           37730                          STCALL   NN1A
001038: 32,3033           65136                                   V2T100
001039: 32,3034           52030                          BHIZ     GOTO
001040: 32,3035           64523                                   PREC120
001041: 32,3036           65053                                   PRECX
001042:
001043:                                                                                                 #  DESIRED RADIUS ACHIEVED
001044:
001045: 32,3037           45345        PREC220           DLOAD    DSU
001046: 32,3040           03726                                   X(T2)
001047: 32,3041           03724                                   X(T2)PRE
001048: 32,3042           45246                          ABS      DSU
001049: 32,3043           31770                                   EPC8RTE
001050: 32,3044           67240                          BMN      SLOAD
001051: 32,3045           65051                                   PREC225
001052: 32,3046           31737                                   OCT613
001053: 32,3047           77650                          GOTO
001054: 32,3050           65053                                   PRECX                                 #  IF REENTRY ANGLE OUT OF LIMITS
001055:
001056:                                                                                                 #  DESIRED FINAL ANGLE HAS BEEN REACHED.
001057:                                                                                                 #  Page 870
001058:
001059: 32,3051           77745        PREC225           DLOAD
001060: 32,3052           31677                                   ZERORTE
001061: 32,3053           77650        PRECX             GOTO
001062: 32,3054           03762                                   SPRTEX
001063:
001064:                                                                                                 #  Page 871
001065:                                                                                                 #  INTEGRATION CALLING SUBROUTINE
001066:
001067:                                                                                                 #  DESCRIPTION
001068:                                                                                                 #         PERFORMS CONIC AND PRECISION INTEGRATIONS USING SUBROUTINE INTEGRVS.  THERE ARE THREE ENTRANCES (RTENCK1,
001069:                                                                                                 #         RTENCK2, AND RTENCK3) FOR DIFFERENT SOURCES OF INPUT AND DIFFERENT OPTIONS.  THERE IS A COMMON SET OF OUTPUT
001070:                                                                                                 #         WHICH INCLUDES SET UP OF INPUT FOR THE PARAM SUBROUTINE.
001071:
001072:                                                                                                 #  RTENCK1 (CONIC INTEGRATION)
001073:
001074:                                                                                                 #     CALLING SEQUENCE
001075:                                                                                                 #         L       CALL
001076:                                                                                                 #         L+1             RTENCK1
001077:
001078:                                                                                                 #     ERASABLE INITIALIZATION REQUIRED
001079:                                                                                                 #         SAME AS FOR THE RTENCK3 ENTRANCE
001080:
001081:                                                                                                 #  RTENCK2 (PRECISION INTEGRATION)
001082:
001083:                                                                                                 #     CALLING SEQUENCE
001084:                                                                                                 #         L       CALL
001085:                                                                                                 #         L+1             RTENCK2
001086:
001087:                                                                                                 #     ERASABLE INITIALIZATION REQUIRED
001088:                                                                                                 #         PUSHLIST
001089:                                                                                                 #             PUSHLOC-2   INTEGRATION TIME DT12 (CORRECTION TO T2)                DP      B28     CS
001090:                                                                                                 #         OTHER
001091:                                                                                                 #             R(T2)/      FINAL POSITION VECTOR                                   VECTOR  B29     METERS
001092:                                                                                                 #             V(T2)/      FINAL VELOCITY VECTOR                                   VECTOR  B7      METERS/CS
001093:                                                                                                 #             T2          FINAL TIME                                              DP      B28     CS
001094:
001095:                                                                                                 #  RTENCK3 (PRECISION INTEGRATION)
001096:
001097:                                                                                                 #     CALLING SEQUENCE
001098:                                                                                                 #         L       CALL
001099:                                                                                                 #         L+1             RTENCK3
001100:
001101:                                                                                                 #     ERASABLE INITIALIZATION REQUIRED
001102:                                                                                                 #         R(T1)/          INITIAL POSITION VECTOR                                 VECTOR  B29     METERS
001103:                                                                                                 #         V2(T1)/         POST IMPULSE INITIAL VELOCITY VECTOR                    VECTOR  B7      M/CS
001104:                                                                                                 #         T1              INITIAL VECTOR TIME                                     DP      B28     CS
001105:                                                                                                 #         T2              FINAL TIME                                              DP      B28     CS
001106:
001107:                                                                                                 #  EXIT MODE
001108:                                                                                                 #         AT L+2 OF CALLING SEQUENCE
001109:
001110:                                                                                                 #  SUBROUTINES CALLED
001111:                                                                                                 #         INTSTALL
001112:                                                                                                 #         INTEGRVS
001113:
001114:                                                                                                 #  OUTPUT
001115:                                                                                                 #     PUSHLIST
001116:                                                                                                 #  Page 872
001117:                                                                                                 #         PUSHLOC-6       FINAL POSITION VECTOR R(T2)/                            VECTOR  B29     METERS
001118:                                                                                                 #         X1              CONICS MUTABLE ENTRY FOR EARTH (-2)                     SP      B14
001119:                                                                                                 #     MPAC
001120:                                                                                                 #                         FINAL VELOCITY VECTOR V(T2)/                            VECTOR  B7      M/CS
001121:                                                                                                 #     OTHER
001122:                                                                                                 #         R(T2)/          AS IN PUSHLIST
001123:                                                                                                 #         V(T2)/          AS IN MPAC
001124:                                                                                                 #         T2              FINAL TIME                                              DP      B28     CS
001125:
001126: 32,3055           45020        RTENCK1           STQ      CALL
001127: 32,3056           03733                                   RTENCKEX
001128: 32,3057           27371                                   INTSTALL
001129: 32,3060           43175                          VLOAD    SET
001130: 32,3061           03640                                   R(T1)/
001131: 32,3062           01473                                   INTYPFLG
001132: 32,3063           77650                          GOTO
001133: 32,3064           65111                                   RTENCK3B
001134:
001135: 32,3065           45020        RTENCK2           STQ      CALL
001136: 32,3066           03733                                   RTENCKEX
001137: 32,3067           27371                                   INTSTALL
001138: 32,3070           77214                          CLEAR    VLOAD
001139: 32,3071           01673                                   INTYPFLG
001140: 32,3072           03656                                   R(T2)/
001141: 32,3073           25535                          STOVL    RCV
001142: 32,3074           03710                                   V(T2)/
001143: 32,3075           15543                          STODL    VCV
001144: 32,3076           03736                                   T2
001145: 32,3077           01517                          STORE    TET
001146: 32,3100           77615                          DAD
001147: 32,3101           77650                          GOTO
001148: 32,3102           65117                                   RTENCK3D
001149:
001150: 32,3103           45020        RTENCK3           STQ      CALL
001151: 32,3104           03733                                   RTENCKEX
001152: 32,3105           27371                                   INTSTALL
001153: 32,3106           43175        RTENCK3A          VLOAD    CLEAR
001154: 32,3107           03640                                   R(T1)/
001155: 32,3110           01673                                   INTYPFLG
001156: 32,3111           25535        RTENCK3B          STOVL    RCV
001157: 32,3112           03700                                   V2(T1)/
001158: 32,3113           15543                          STODL    VCV
001159: 32,3114           03716                                   T1
001160: 32,3115           15517                          STODL    TET
001161: 32,3116           03736                                   T2
001162: 32,3117           00041        RTENCK3D          STORE    TDEC1
001163: 32,3120           45014                          CLEAR    CALL
001164:                                                                                                 #  Page 873
001165: 32,3121           00263                                   MOONFLAG
001166: 32,3122           27066                                   INTEGRVS
001167: 32,3123           77775                          VLOAD
001168: 32,3124           00001                                   RATT
001169: 32,3125           03656                          STORE    R(T2)/
001170: 32,3126           70125                          PDDL     LXC,1
001171: 32,3127           00015                                   TAT
001172: 32,3130           03734                                   CONICX1
001173: 32,3131           27736                          STOVL    T2
001174: 32,3132           00007                                   VATT
001175: 32,3133           03710                          STORE    V(T2)/
001176: 32,3134           77650                          GOTO
001177: 32,3135           03733                                   RTENCKEX
001178:
001179:                                                                                                 #  Page 874
001180:                                                                                                 #  V2(T1) COMPUTATION SUBROUTINE
001181:
001182:                                                                                                 #  DESCRIPTION
001183:                                                                                                 #         A POST IMPULSE VELOCITY VECTOR (V2(T1)) IS COMPUTED WHICH EITHER
001184:                                                                                                 #         (1)     MEETS THE INPUT VELOCITY CHANGE DESIRED (RTEDVD) IN A MINIMUM TIME      OR
001185:                                                                                                 #         (2)     IF A VELOCITY CHANGE ISN'T SPECIFIED (RTEDVD = 0), A V2(T1) IS COMPUTED WHICH MINIMIZES THE IMPULSE (DV)
001186:                                                                                                 #                 AND CONSEQUENTLY FUEL.
001187:
001188:                                                                                                 #  CALLING SEQUENCE
001189:                                                                                                 #         L       CALL
001190:                                                                                                 #         L+1             V2T100
001191:
001192:                                                                                                 #  NORMAL EXIT MODE
001193:                                                                                                 #         AT L+2 OF CALLING SEQUENCE WITH MPAC = 0
001194:
001195:                                                                                                 #  ALARM EXIT MODE
001196:                                                                                                 #         AT L+2 OF CALLING SEQUENCE WITH MPAC = OCTAL 605 FOR EXCESS ITERATIONS.
001197:
001198:                                                                                                 #  SUBROUTINES CALLED
001199:                                                                                                 #         GAMDV10
001200:                                                                                                 #         XT1LIM
001201:                                                                                                 #         DVCALC
001202:
001203:                                                                                                 #  ERASABLE INITIALIZATION REQUIRED
001204:                                                                                                 #     PUSHLIST
001205:                                                                                                 #         NONE
001206:                                                                                                 #     MPAC
001207:                                                                                                 #         NONE
001208:                                                                                                 #     OTHER
001209:                                                                                                 #         R(T1)           MAGNITUDE OF INITIAL POSITION VECTOR                    DP      B29/B27 METERS
001210:                                                                                                 #         RCON            MAGNITUDE OF FINAL POSITION VECTOR                      DP      B29/B27 METERS
001211:                                                                                                 #         V(T1)/          INITIAL VELOCITY VECTOR                                 VECTOR  B7/B5   METERS/CS
001212:                                                                                                 #         RTEDVD          DELTA VELOCITY DESIRED                                  DP      B7/B5   METERS/CS
001213:                                                                                                 #         UR1/            UNIT INITIAL VECTOR                                     VECTOR  B1
001214:                                                                                                 #         UH/             UNIT HORIZONTAL VECTOR                                  VECTOR  B1
001215:                                                                                                 #         X(T2)           COTANGENT OF FINAL FLIGHT PATH ANGLE                    DP      B0
001216:                                                                                                 #         X(T1)           COTANGENT OF INITIAL FLIGHT PATH ANGLE (INPUT FOR PREC) DP      B5
001217:                                                                                                 #         CFPA            COSINE OF INITIAL FLIGHT PATH ANGLE                     DP      B1
001218:                                                                                                 #         MAMAX1          MAJOR AXIS LIMIT FOR LOWER BOUND ON GAMDV ITERATOR      DP      B30/B28 METERS
001219:                                                                                                 #         MAMAX2          MAJOR AXIS LIMIT FOR UPPER BOUND ON GAMDV ITERATOR      DP      B30/B28 METERS
001220:                                                                                                 #         PHI2            REENTRY NEAR PERIGEE OR APOGEE INDICATE (RTE ONLY)      DP      B2      -1 PERIGEE, +1 APOGEE
001221:                                                                                                 #         N1              CONIC OR PRECISION ITERATION OPERATOR                   DP      B28     NEGATIVE CONIC, PLUS PREC
001222:
001223:                                                                                                 #  OUTPUT
001224:                                                                                                 #         V2(T1)/         POST IMPULSE INITIAL VELOCITY VECTOR                    VECTOR  B7/B5   METERS/CS
001225:                                                                                                 #         DV              INITIAL VELOCITY CHANGE                                 DP      B7/B5   METERS/CS
001226:                                                                                                 #         X(T1)           COTANGENT OF INITIAL FLIGHT PATH ANGLE (POST IMPULSE)   DP      B5
001227:                                                                                                 #         PCON            SEMI-LATUS RECTUM                                       DP      B28/B26 METERS
001228:                                                                                                 #         BETA1           1+X(T2)**2                                              DP      B1
001229:                                                                                                 #  Page 875
001230:
001231:                                                                                                 #  DEBRIS
001232:                                                                                                 #     PUSHLIST
001233:                                                                                                 #         00D             X(T1),,=PREVIOUS PRECISION X(T1)                        DP      B5
001234:                                                                                                 #         02D             THETA1=BETA5*LAMBDA-1                                   TP      B17
001235:                                                                                                 #         05D             THETA2=2*R(T1)*(LAMBDA-1)                               TP      B38/B36
001236:                                                                                                 #         08D             THETA3=MU**.5/R(T1)                                     DP      B-4/B-5
001237:                                                                                                 #         10D             X(T1)MIN=LOWER BOUND ON X(T1) IN GAMDV ITERATOR         DP      B5
001238:                                                                                                 #         12D             DX(T1)MAX=MAXIMUM DELTA X(T1)                           DP      B5
001239:                                                                                                 #         14D             X(T1)MAX=UPPER BOUND ON X(T1) IN GAMDV ITERATOR         DP      B5
001240:                                                                                                 #         16D             DX(T1=ITERATOR INCREMENT                                DP      B5
001241:                                                                                                 #         31D             GAMDV10 SUBROUTINE RETURN ADDRESS
001242:                                                                                                 #         32D             DVCALC SUBROUTINE RETURN ADDRESS
001243:                                                                                                 #         33D             V2T100 SUBROUTINE RETURN ADDRESS
001244:
001245: 32,3136           77620        V2T100            STQ
001246: 32,3137           00041                                   33D
001247: 32,3140           43001                          SETPD    CLEAR
001248: 32,3141           00001                                   0
001249: 32,3142           00272                                   F2RTE
001250: 32,3143           60345                          DLOAD    NORM
001251: 32,3144           03636                                   RCON
001252: 32,3145           00047                                   X1
001253: 32,3146           60325                          PDDL     NORM
001254: 32,3147           03646                                   R(T1)
001255: 32,3150           00051                                   S1
001256: 32,3151           00013                          STORE    10D
001257: 32,3152           56342                          SR1      DDV                                   #  R1/RCON = LAMBDA               B1
001258: 32,3153           65260                          XSU,1    PDDL
001259: 32,3154           00050                                   S1
001260: 32,3155           03726                                   X(T2)
001261: 32,3156           77716                          DSQ
001262: 32,3157           43342                          SR1      DAD
001263: 32,3160           31653                                   1RTEB1
001264: 32,3161           03754                          STORE    BETA1                                 #  1+X(T2)**2 = BETA1             B1
001265: 32,3162           77605                          DMP
001266: 32,3163           00001                                   00D
001267: 32,3164           00035                          STORE    28D                                   #  BETAI*LAMBDA = BETA5
001268: 32,3165           53605                          DMP      SL*
001269: 32,3166           00001                                   00D
001270: 32,3167           20172                                   0          -7,1
001271: 32,3170           45257                          SL*      DSU
001272: 32,3171           20172                                   0          -7,1
001273: 32,3172           31671                                   1RTEB17
001274: 32,3173           65234                          RTB      PDDL                                  #  BETA5*LAMBDA-1 = THETA1        B17
001275: 32,3174           45562                                   TPMODE
001276: 32,3175           31653                                   1RTEB1
001277: 32,3176           57457                          SR*      DCOMP
001278: 32,3177           20601                                   0,1
001279: 32,3200           41215                          DAD      DMP
001280: 32,3201           00001                                   00D
001281:                                                                                                 #  Page 876
001282: 32,3202           03646                                   R(T1)
001283: 32,3203           47057                          SL*      RTB
001284: 32,3204           20172                                   0          -7D,1
001285: 32,3205           45562                                   TPMODE
001286: 32,3206           77725                          PDDL                                           #  2*R(T1)*(LAMBDA-1)=THETA2      B38/B36 PL08D
001287: 32,3207           33770                                   RTMURTE
001288: 32,3210           70501                          NORM     SR1
001289: 32,3211           00050                                   X2
001290: 32,3212           56264                          XSU,2    DDV
001291: 32,3213           00050                                   S1
001292: 32,3214           00013                                   10D
001293: 32,3215           65257                          SR*      PDDL                                  #  MU**.5/R(T1)=THETA3            B-4/B-5 PL10D
001294: 32,3216           57170                                   6,2
001295: 32,3217           03652                                   MAMAX1
001296: 32,3220           41406                          PUSH     PUSH                                  #  MAMAX1=MA
001297: 32,3221           77624                          CALL
001298: 32,3222           56633                                   XT1LIM
001299: 32,3223           41476                          DCOMP    PUSH                                  #  X(T1)MIN                       B5 PL12D
001300: 32,3224           40476                          DCOMP    SR4
001301: 32,3225           41525                          PDDL     PUSH                                  #  DX(T1)MAX                      B5 PL14D
001302: 32,3226           03654                                   MAMAX2
001303: 32,3227           45006                          PUSH     CALL
001304: 32,3230           56633                                   XT1LIM
001305: 32,3231           50125                          PDDL     BMN                                   #  X(T1)MAX                       B5 PL16D
001306: 32,3232           03730                                   NN1A
001307: 32,3233           65236                                   V2T102
001308: 32,3234           77650                          GOTO
001309: 32,3235           65250                                   V2T110
001310:
001311:                                                                                                 #  PROCEED HERE IF NOT PRECISION COMPUTATION
001312:
001313: 32,3236           77745        V2T102            DLOAD
001314: 32,3237           03632                                   RTEDVD
001315: 32,3240           52054                          BZE      GOTO
001316: 32,3241           65243                                   V2T105
001317: 32,3242           65344                                   V2T140
001318: 32,3243           50145        V2T105            DLOAD    BMN
001319: 32,3244           03757                                   CFPA
001320: 32,3245           65344                                   V2T140
001321: 32,3246           77650                          GOTO
001322: 32,3247           65352                                   V2T145
001323:
001324:                                                                                                 #  DURING A PRECISION TRAJECTORY ITERATION CONSTRAIN THE INDEPENDENT
001325:                                                                                                 #  VARIABLE TO INSURE THAT ALL CONICS PASS THROUGH RCON ON THE SAME PASS
001326:                                                                                                 #  THROUGH X(T2)
001327:
001328: 32,3250           47145        V2T110            DLOAD    RTB
001329: 32,3251           31671                                   1RTEB17
001330: 32,3252           45562                                   TPMODE
001331: 32,3253           65276                          DCOMP    PDDL                                  #  -1                             B17 PL19D
001332:                                                                                                 #  Page 877
001333: 32,3254           31715                                   2RTEB1
001334: 32,3255           45257                          SR*      DSU
001335: 32,3256           20601                                   0,1
001336: 32,3257           00001                                   00D
001337: 32,3260           53605                          DMP      SL*
001338: 32,3261           00035                                   28D
001339: 32,3262           20172                                   0          -7,1
001340: 32,3263           76257                          SL*      TAD
001341: 32,3264           20172                                   0          -7,1
001342: 32,3265           65234                          RTB      PDDL                                  #  BETA5(2-LAMBDA)-1=BETA6        B17 PL19D
001343: 32,3266           45562                                   TPMODE
001344: 32,3267           03722                                   X(T1)
001345: 32,3270           00001                          STORE    00D                                   #  X(T1),,                        B5
001346: 32,3271           77751                          TLOAD                                          #                                 PL16D
001347: 32,3272           53040                          BMN      BZE
001348: 32,3273           65300                                   V2T115
001349: 32,3274           65300                                   V2T115
001350: 32,3275           52061                          SL       GOTO
001351: 32,3276           20210                                   7
001352: 32,3277           65311                                   V2T120
001353: 32,3300           50145        V2T115            DLOAD    BMN
001354: 32,3301           03761                                   PHI2
001355: 32,3302           65322                                   V2T125
001356: 32,3303           77676                          DCOMP
001357: 32,3304           17761                          STODL    PHI2
001358: 32,3305           31705                                   10RTE
001359: 32,3306           03730                          STORE    NN1A
001360: 32,3307           77650                          GOTO
001361: 32,3310           65322                                   V2T125
001362: 32,3311           47166        V2T120            SQRT     RTB
001363: 32,3312           45713                                   DPMODE
001364: 32,3313           50125                          PDDL     BMN                                   #  BETA8**.5=X(T1)LIM             B5 PL18D
001365: 32,3314           03761                                   PHI2
001366: 32,3315           65330                                   V2T130
001367: 32,3316           45545                          DLOAD    STADR
001368: 32,3317           77760                          STORE    14D                                   #  X(T1)LIM = X(T1)MAX
001369: 32,3320           77676                          DCOMP
001370: 32,3321           00013                          STORE    10D                                   #  -X(T1)LIM = X(T1)MIN
001371: 32,3322           53145        V2T125            DLOAD    BZE
001372: 32,3323           03722                                   X(T1)
001373: 32,3324           65344                                   V2T140
001374: 32,3325           52040                          BMN      GOTO
001375: 32,3326           65344                                   V2T140
001376: 32,3327           65352                                   V2T145
001377: 32,3330           53145        V2T130            DLOAD    BZE
001378: 32,3331           03722                                   X(T1)
001379: 32,3332           65341                                   V2T135
001380: 32,3333           71240                          BMN      DLOAD                                 #                                 PL16D
001381: 32,3334           65341                                   V2T135
001382: 32,3335           77626                          STADR
001383:                                                                                                 #  Page 878
001384: 32,3336           77764                          STORE    10D                                   #  X(T1)LIM = X(T1)MIN
001385: 32,3337           77650                          GOTO
001386: 32,3340           65352                                   V2T145
001387: 32,3341           57545        V2T135            DLOAD    DCOMP                                 #                                 PL16D
001388: 32,3342           77626                          STADR
001389: 32,3343           77760                          STORE    14D                                   #  -X(T1)LIM = X(T1)MAX
001390: 32,3344           77745        V2T140            DLOAD
001391: 32,3345           00013                                   10D
001392: 32,3346           17722                          STODL    X(T1)                                 #  X(T1)MIN = X(T1)
001393: 32,3347           00015                                   12D
001394: 32,3350           52006                          PUSH     GOTO                                  #  DX(T1)MAX = DX(T1)             PL18D
001395: 32,3351           65357                                   V2T150
001396: 32,3352           77745        V2T145            DLOAD
001397: 32,3353           00017                                   14D
001398: 32,3354           17722                          STODL    X(T1)                                 #  X(T1)MAX = X(T1)
001399: 32,3355           00015                                   12D
001400: 32,3356           41476                          DCOMP    PUSH                                  #  -DX(T1)MAX = DX(T1)            PL18D
001401: 32,3357           77624        V2T150            CALL                                           #  GOTO X(T1)-DV ITERATOR
001402: 32,3360           65500                                   GAMDV10
001403: 32,3361           53145                          DLOAD    BZE                                   #  EXIT IF MINIMUM FUEL MODE
001404: 32,3362           03632                                   RTEDVD
001405: 32,3363           65476                                   V2T1X
001406:
001407:                                                                                                 #  CONTINUE IF TIME CRITICAL MODE
001408:
001409: 32,3364           50025                          DSU      BMN
001410: 32,3365           03706                                   DV
001411: 32,3366           65371                                   V2T155
001412: 32,3367           77650                          GOTO
001413: 32,3370           65424                                   V2T175
001414: 32,3371           50145        V2T155            DLOAD    BMN
001415: 32,3372           03730                                   NN1A
001416: 32,3373           65376                                   V2T160
001417: 32,3374           77650                          GOTO
001418: 32,3375           65437                                   V2T185
001419:
001420:                                                                                                 #  CONIC TRAJECTORY COMPUTATION
001421:
001422: 32,3376           53145        V2T160            DLOAD    BZE
001423: 32,3377           03722                                   X(T1)
001424: 32,3400           65404                                   V2T165
001425: 32,3401           52040                          BMN      GOTO
001426: 32,3402           65404                                   V2T165
001427: 32,3403           65474                                   V2T300
001428: 32,3404           53145        V2T165            DLOAD    BZE
001429: 32,3405           03757                                   CFPA
001430: 32,3406           65474                                   V2T300
001431: 32,3407           71240                          BMN      DLOAD
001432: 32,3410           65474                                   V2T300
001433: 32,3411           00017                                   14D
001434:                                                                                                 #  Page 879
001435: 32,3412           17722                          STODL    X(T1)                                 #  X(T1)MAX=X(T1)
001436: 32,3413           00015                                   12D
001437: 32,3414           77676                          DCOMP
001438: 32,3415           34021                          STCALL   16D                                   #  -DX(T1)MAX=DX(T1)
001439: 32,3416           65500                                   GAMDV10
001440: 32,3417           45345                          DLOAD    DSU
001441: 32,3420           03632                                   RTEDVD
001442: 32,3421           03706                                   DV
001443: 32,3422           77640                          BMN
001444: 32,3423           65474                                   V2T300
001445: 32,3424           71214        V2T175            SET      DLOAD
001446: 32,3425           00072                                   F2RTE
001447: 32,3426           03722                                   X(T1)
001448: 32,3427           14017                          STODL    14D                                   #  X(T1)=X(T1)MAX
001449: 32,3430           00015                                   12D
001450: 32,3431           77676                          DCOMP
001451: 32,3432           34021                          STCALL   16D                                   #  -DX(T1)MAX=DX(T1)
001452: 32,3433           65500                                   GAMDV10
001453: 32,3434           50145                          DLOAD    BMN
001454: 32,3435           03730                                   NN1A
001455: 32,3436           65474                                   V2T300
001456:
001457:                                                                                                 #  PREVENT A LARGE CHANGE IN INDEPENDENT VARIABLE DURING AN ITERATION FOR A
001458:                                                                                                 #  PRECISION TRAJECTORY
001459:
001460: 32,3437           45345        V2T185            DLOAD    DSU
001461: 32,3440           03722                                   X(T1)
001462: 32,3441           00001                                   00D
001463: 32,3442           65246                          ABS      PDDL                                  #  /X(T1)-X(T1),,/ = BETA7
001464: 32,3443           00015                                   12D
001465: 32,3444           44352                          SL1      BDSU
001466: 32,3445           71240                          BMN      DLOAD
001467: 32,3446           65474                                   V2T300
001468: 32,3447           00001                                   00D                                   #  CONTINUE IF BETA7 LARGER THAN 2DX(T1)MAX
001469: 32,3450           03722                          STORE    X(T1)                                 #  X(T1),, = X(T1)
001470: 32,3451           50025                          DSU      BMN
001471: 32,3452           00017                                   14D
001472: 32,3453           65461                                   V2T195
001473: 32,3454           77745                          DLOAD
001474: 32,3455           00017                                   14D
001475: 32,3456           03722                          STORE    X(T1)                                 #  X(T1)MAX = X(T1)
001476: 32,3457           77650                          GOTO
001477: 32,3460           65472                                   V2T205
001478: 32,3461           45345        V2T195            DLOAD    DSU
001479: 32,3462           03722                                   X(T1)
001480: 32,3463           00013                                   10D
001481: 32,3464           52040                          BMN      GOTO
001482: 32,3465           65467                                   V2T200
001483: 32,3466           65472                                   V2T205
001484: 32,3467           77745        V2T200            DLOAD
001485:                                                                                                 #  Page 880
001486: 32,3470           00013                                   10D
001487: 32,3471           03722                          STORE    X(T1)                                 #  X(T1)MIN = X(T1)
001488: 32,3472           77624        V2T205            CALL
001489: 32,3473           65701                                   DVCALC
001490: 32,3474           77745        V2T300            DLOAD
001491: 32,3475           31677                                   ZERORTE
001492: 32,3476           77650        V2T1X             GOTO
001493: 32,3477           00041                                   33D
001494:
001495:                                                                                                 #  Page 881
001496:                                                                                                 #  X(T1)-DV ITERATOR SUBROUTINE
001497:
001498:                                                                                                 #  DESCRIPTION
001499:                                                                                                 #         COMPUTES A POST IMPULSE VELOCITY VECTOR (V2(T1)) WHICH REQUIRES A MINIMUM DV.
001500:
001501:                                                                                                 #  CALLING SEQUENCE
001502:                                                                                                 #         L       CALL
001503:                                                                                                 #         L+1             GAMDV10
001504:
001505:                                                                                                 #  NORMAL EXIT MODE
001506:                                                                                                 #         AT L+2 OF CALLING SEQUENCE
001507:
001508:                                                                                                 #  ALARM EXIT MODE
001509:                                                                                                 #         AT V2T1X WITH MPAC = OCTAL 605 FOR EXCESS ITERATIONS
001510:
001511:                                                                                                 #  SUBROUTINES CALLED
001512:                                                                                                 #         DVCALC
001513:
001514:                                                                                                 #  ERASABLE INITIALIZATION REQUIRED
001515:                                                                                                 #     PUSHLIST
001516:                                                                                                 #         02D             THETA1=BETA5*LAMBDA-1                                   TP      B17
001517:                                                                                                 #         05D             THETA2=2*R(T1)*(LAMBDA-1)                               TP      B38/B36
001518:                                                                                                 #         08D             THETA3=MU**.5/R(T1)                                     DP      B-4/B-5
001519:                                                                                                 #         10D             X(T1)MIN=LOWER BOUND ON INDEPENDENT VARIABLE X(T1)      DP      B5
001520:                                                                                                 #         12D             DX(T1)MAX=MAXIMUM DX(T1)                                DP      B5
001521:                                                                                                 #         14D             X(T1)MAX=UPPER BOUND ON INDEPENDENT VARIABLE X(T1)      DP      B5
001522:                                                                                                 #         16D             DX(T1)=ITERATOR INCREMENT                               DP      B5
001523:                                                                                                 #     MPAC
001524:                                                                                                 #         NONE
001525:                                                                                                 #     OTHER
001526:                                                                                                 #         V(T1)/          INITIAL VELOCITY VECTOR                                 VECTOR  B7/B5   METERS/CS
001527:                                                                                                 #         RTEDVD          DELTA VELOCITY DESIRED                                  DP      B7/B5   METERS/CS
001528:                                                                                                 #         UR1/            UNIT INITIAL VECTOR                                     VECTOR  B1
001529:                                                                                                 #         UH/             UNIT HORIZONTAL VECTOR                                  VECTOR  B1
001530:                                                                                                 #         X(T1)           COTANGENT OF INITIAL FLIGHT PATH ANGLE (FROM VERTICAL)  DP      B5
001531:                                                                                                 #         F2RTE           TIME CRITICAL OR MINIMUM FUEL MODE INDICATOR            STATE AREA      0 MIN. FUEL, 1 MIN. TIME
001532:
001533:                                                                                                 #  OUTPUT
001534:                                                                                                 #         V2(T1)/         POST IMPULSE INITIAL VELOCITY VECTOR                    VECTOR  B7/B5   METERS/CS
001535:                                                                                                 #         DV              INITIAL VELOCITY CHANGE                                 DP      B7/B5   METERS/CS
001536:                                                                                                 #         X(T1)           COTANGENT OF INITIAL FPA MEASURED FROM VERTICAL         DP      B5
001537:                                                                                                 #         PCON            SEMI-LATUS RECTUM                                       DP      B28/B26 METERS
001538:
001539:                                                                                                 #  DEBRIS
001540:                                                                                                 #     PUSHLIST
001541:                                                                                                 #         00D             X(T1),,
001542:                                                                                                 #         02D             THETA1
001543:                                                                                                 #         05D             THETA2
001544:                                                                                                 #         08D             THETA3
001545:                                                                                                 #         10D             X(T1)MIN
001546:                                                                                                 #         12D             DX(T1)MAX
001547:                                                                                                 #  Page 882
001548:                                                                                                 #         14D             X(T1)MAX
001549:                                                                                                 #         16D             DX(T1)
001550:                                                                                                 #         22D             DV,=PREVIOUS DV                                         DP      B7/B5
001551:                                                                                                 #         24D             BETA9=X(T1)+1.1DX(T1)                                   DP      B5
001552:                                                                                                 #         31D             GAMDV10 SUBROUTINE RETURN ADDRESS
001553:                                                                                                 #         32D             DVCALC SUBROUTINE RETURN ADDRESS
001554:                                                                                                 #         33D             V2T100 SUBROUTINE RETURN ADDRESS
001555:
001556: 32,3500           77620        GAMDV10           STQ
001557: 32,3501           00037                                   31D
001558: 32,3502           45001                          SETPD    CALL
001559: 32,3503           00023                                   18D                                   #                                 PL18D
001560: 32,3504           65701                                   DVCALC
001561: 32,3505           45345                          DLOAD    DSU
001562: 32,3506           00017                                   14D
001563: 32,3507           00013                                   10D
001564: 32,3510           77600                          BOV
001565: 32,3511           65531                                   GAMDV20
001566: 32,3512           45206                          PUSH     DSU                                   #  X(T1)MAX-X(T1)MIN=BETA8        B5 PL20D
001567: 32,3513           31772                                   EPC9RTE
001568: 32,3514           71240                          BMN      DLOAD
001569: 32,3515           65677                                   GAMDVX                                #  BOUNDS CLOSE TOGETHER
001570: 32,3516           00023                                   18D
001571: 32,3517           50025                          DSU      BMN                                   #  BETA8-DX(T1)MAX
001572: 32,3520           00015                                   12D
001573: 32,3521           65525                                   GAMDV15
001574: 32,3522           52001                          SETPD    GOTO                                  #                                 PL18D
001575: 32,3523           00023                                   18D
001576: 32,3524           65531                                   GAMDV20
001577: 32,3525           77745        GAMDV15           DLOAD                                          #                                 PL18D
001578: 32,3526           70565                          SIGN     SR1
001579: 32,3527           00021                                   16D
001580: 32,3530           00021                          STORE    16D                                   #  BETA8(SIGNDX(T1))/2=DX(T1)
001581: 32,3531           77745        GAMDV20           DLOAD
001582: 32,3532           31701                                   M144RTE
001583: 32,3533           03732                          STORE    NN2
001584: 32,3534           43345        GAMDV25           DLOAD    DAD
001585: 32,3535           03732                                   NN2
001586: 32,3536           31675                                   1RTEB28
001587: 32,3537           67240                          BMN      SLOAD
001588: 32,3540           65544                                   GAMDV30
001589: 32,3541           31735                                   OCT605
001590: 32,3542           77650                          GOTO
001591: 32,3543           65476                                   V2T1X
001592: 32,3544           03732        GAMDV30           STORE    NN2                                   #  NN2=NN2+1
001593: 32,3545           65345                          DLOAD    PDDL                                  #  X(T1)=X(T1),                   R5 PL20D
001594: 32,3546           03722                                   X(T1)
001595: 32,3547           03706                                   DV
001596: 32,3550           43325                          PDDL     DAD                                   #  DV=DV,                 B7/B5 PL22D
001597: 32,3551           03722                                   X(T1)
001598: 32,3552           00021                                   16D
001599:                                                                                                 #  Page 883
001600: 32,3553           37722                          STCALL   X(T1)                                 #  X(T1)+DX(T1)=X(T1)             B5
001601: 32,3554           65701                                   DVCALC
001602: 32,3555           71214                          BON      DLOAD
001603: 32,3556           00312                                   F2RTE
001604: 32,3557           65573                                   GAMDV35
001605: 32,3560           03706                                   DV
001606: 32,3561           50025                          DSU      BMN                                   #  CONTINUE IF FUEL CRITICAL MODE
001607: 32,3562           00025                                   20D
001608: 32,3563           65570                                   GAMDV33
001609: 32,3564           57545        GAMDV32           DLOAD    DCOMP
001610: 32,3565           00021                                   16D
001611: 32,3566           77742                          SR1
001612: 32,3567           00021                          STORE    16D
001613: 32,3570           52001        GAMDV33           SETPD    GOTO
001614: 32,3571           00023                                   18D                                   #                                 PL18D
001615: 32,3572           65636                                   GAMDV50
001616:
001617:                                                                                                 #  TIME CRITICAL MODE
001618:
001619: 32,3573           45345        GAMDV35           DLOAD    DSU
001620: 32,3574           03632                                   RTEDVD
001621: 32,3575           03706                                   DV
001622: 32,3576           41525                          PDDL     PUSH                                  #  DVD-DV=DVERR                   B7/B5 PL22D
001623: 32,3577           51545        GAMDV40           DLOAD    ABS                                   #  DV,                            PL24D
001624: 32,3600           00025                                   20D
001625: 32,3601           50025                          DSU      BMN
001626: 32,3602           31774                                   EPC10RTE
001627: 32,3603           65677                                   GAMDVX
001628: 32,3604           71204        GAMDV45           BOVB     DLOAD
001629: 32,3605           57343                                   TCDANZIG                              #  ASSURE OVFIND IS 0
001630: 32,3606           60221                          BDSU     NORM
001631: 32,3607           03706                                   DV
001632: 32,3610           00050                                   X2
001633: 32,3611           77725                          PDDL                                           #  DV-DV,                 B7/B5-N2 PL22D
001634: 32,3612           70501                          NORM     SR1                                   #  DVERR                          B8/B6-N1
001635: 32,3613           00047                                   X1
001636: 32,3614           65271                          DDV      PDDL                                  #  DVERR/ DV - DV
001637: 32,3615           41221                          BDSU     DMP                                   #                                 PL18D
001638: 32,3616           03722                                   X(T1)
001639: 32,3617           77660                          XSU,1
001640: 32,3620           00047                                   X2
001641: 32,3621           00021                          STORE    16D                                   #  PRESERV SIGN IF OVERFLOW
001642: 32,3622           40057                          SR*      BOV
001643: 32,3623           20600                                   0          -1,1
001644: 32,3624           65632                                   GAMDV47
001645: 32,3625           00021                          STORE    16D                                   #  (X(T1)-X(T1),)DVERR/(DV-DV,)=DX(T1)
001646: 32,3626           45246                          ABS      DSU
001647: 32,3627           00015                                   12D
001648: 32,3630           77640                          BMN
001649: 32,3631           65636                                   GAMDV50
001650:                                                                                                 #  Page 884
001651: 32,3632           75345        GAMDV47           DLOAD    SIGN
001652: 32,3633           00015                                   12D
001653: 32,3634           00021                                   16D
001654: 32,3635           00021                          STORE    16D                                   #  DX(T1)MAX(SIGNDX(T1))=DX(T1)
001655:
001656:                                                                                                 #  CHECK TO KEEP INDEPENDENT VARIABLE IN BOUNDS
001657:
001658: 32,3636           41345        GAMDV50           DLOAD    DMP
001659: 32,3637           00021                                   16D
001660: 32,3640           31711                                   1.1RTEB1
001661: 32,3641           43352                          SL1      DAD
001662: 32,3642           03722                                   X(T1)
001663: 32,3643           00031                          STORE    24D                                   #  X(T1)+1.1DX(T1)=BETA9          B5
001664: 32,3644           50025                          DSU      BMN
001665: 32,3645           00017                                   14D
001666: 32,3646           65655                                   GAMDV55
001667: 32,3647           45345                          DLOAD    DSU
001668: 32,3650           00017                                   14D
001669: 32,3651           03722                                   X(T1)
001670: 32,3652           77742                          SR1
001671: 32,3653           34021                          STCALL   16D                                   #  (X(T1)MAX-X(T1))/2=DX(T1)      B5
001672: 32,3654           65670                                   GAMDV65
001673: 32,3655           45345        GAMDV55           DLOAD    DSU
001674: 32,3656           00031                                   24D
001675: 32,3657           00013                                   10D
001676: 32,3660           52040                          BMN      GOTO
001677: 32,3661           65663                                   GAMDV60
001678: 32,3662           65670                                   GAMDV65
001679: 32,3663           45345        GAMDV60           DLOAD    DSU
001680: 32,3664           00013                                   10D
001681: 32,3665           03722                                   X(T1)
001682: 32,3666           77742                          SR1
001683: 32,3667           00021                          STORE    16D                                   #  (X(T1)MIN-X(T1))/2=DX(T1)      B5
001684: 32,3670           51545        GAMDV65           DLOAD    ABS
001685: 32,3671           00021                                   16D
001686: 32,3672           50025                          DSU      BMN
001687: 32,3673           31772                                   EPC9RTE
001688: 32,3674           65677                                   GAMDVX
001689: 32,3675           77650                          GOTO
001690: 32,3676           65534                                   GAMDV25
001691: 32,3677           77650        GAMDVX            GOTO
001692: 32,3700           00037                                   31D
001693:
001694:                                                                                                 #  Page 885
001695:                                                                                                 #  DV CALCULATION SUBROUTINE
001696:
001697:                                                                                                 #  INPUT
001698:                                                                                                 #     PUSHLIST
001699:                                                                                                 #         02D             THETA1=BETA5*LAMBDA-1                                   TP      B17
001700:                                                                                                 #         05D             THETA2=2*R(T1)*(LAMBDA-1)                               TP      B38/B36
001701:                                                                                                 #         08D             THETA3=MU**.5/R(T1)                                     DP      B-4/B-5
001702:                                                                                                 #     OTHER
001703:                                                                                                 #         X(T1)           COTANGENT OF POST IMPULSE INITIAL FLIGHT PATH ANGLE     DP      B5
001704:                                                                                                 #         V(T1)/          INITIAL VELOCITY VECTOR (PRE IMPULSE)                   VECTOR  B7/B5   METERS/CS
001705:                                                                                                 #         UR1/            UNIT INITIAL VECTOR                                     VECTOR  B1
001706:                                                                                                 #         UH/             UNIT HORIZONTAL VECTOR                                  VECTOR  B1
001707:
001708:                                                                                                 #  OUTPUT
001709:                                                                                                 #         V2(T1)/         POST IMPULSE INITIAL VELOCITY VECTOR                    VECTOR  B7/B5   METERS/CS
001710:                                                                                                 #         DV              INITIAL VELOCITY CHANGE                                 DP      B7/B5   METERS/CS
001711:                                                                                                 #         PCON            SEMI-LATUS RECTUM                                       DP      B28/B26 METERS
001712:
001713:                                                                                                 #  DEBRIS
001714:                                                                                                 #         28D             THETA3*PCON**.5                                         DP      B10/B8-N1
001715:                                                                                                 #         C(PUSHLOC)      THETA3(PCON**.5)*X(T1)*UR1/                             VECTOR  B7/B5
001716:                                                                                                 #         32D             DVCALC SUBROUTINE RETURN ADDRESS
001717:                                                                                                 #         X1              NORMALIZATION FACTOR FOR VALUE IN 28D
001718:
001719:                                                                                                 #  PUSHLOC IS RESTORED TO ITS ENTRANCE VALUE UPON EXITING DVCALC
001720:
001721: 32,3701           71220        DVCALC            STQ      DLOAD
001722: 32,3702           00040                                   32D
001723: 32,3703           03722                                   X(T1)
001724: 32,3704           54316                          DSQ      SR
001725: 32,3705           20610                                   7
001726: 32,3706           76276                          DCOMP    TAD
001727: 32,3707           00003                                   02D
001728: 32,3710           41501                          NORM     PUSH
001729: 32,3711           00047                                   X1
001730: 32,3712           60351                          TLOAD    NORM
001731: 32,3713           00006                                   05D
001732: 32,3714           00050                                   X2
001733: 32,3715           70434                          RTB      SR1
001734: 32,3716           45713                                   DPMODE
001735: 32,3717           56264                          XSU,2    DDV
001736: 32,3720           00046                                   X1
001737: 32,3721           77657                          SR*
001738: 32,3722           57170                                   6,2
001739: 32,3723           03720                          STORE    PCON                                  #  THETA2/(THETA1-X(T1)**2)=PCON  B28/26
001740: 32,3724           41366                          SQRT     DMP
001741: 32,3725           00011                                   08D
001742: 32,3726           77701                          NORM
001743: 32,3727           00047                                   X1
001744: 32,3730           14035                          STODL    28D                                   #  THETA3*PCON**.5                B10/B8 -N1
001745:                                                                                                 #  Page 886
001746: 32,3731           03722                                   X(T1)
001747: 32,3732           74301                          NORM     VXSC
001748: 32,3733           00050                                   X2
001749: 32,3734           03740                                   UR1/                                  #  X(T1)*UR1/                     B5+B1 -N2
001750: 32,3735           74274                          XAD,2    VXSC
001751: 32,3736           00046                                   X1
001752: 32,3737           00035                                   28D
001753: 32,3740           63257                          VSR*     PDVL                                  #  THETA3(PCON**.5)X(T1)*UR1/     B7/B5
001754: 32,3741           57207                                   0          -9D,2                      #                 +
001755: 32,3742           03746                                   UH/
001756: 32,3743           53761                          VXSC     VSR*                                  #  THETA3(PCON**.5)UH/            B7/B5
001757: 32,3744           00035                                   28D
001758: 32,3745           20575                                   0          -4,1                       #                 =
001759: 32,3746           45455                          VAD      STADR
001760: 32,3747           74077                          STORE    V2(T1)/                               #  V2(T1)/                        B7/B5
001761: 32,3750           51451                          VSU      ABVAL
001762: 32,3751           03672                                   V(T1)/
001763: 32,3752           03706                          STORE    DV                                    #  ABVAL(V2(T1)/-V1(T)/)=DV       B7/B5
001764: 32,3753           77650                          GOTO
001765: 32,3754           00040                                   32D
001766:
001767:                                                                                                 #  Page 887
001768:                                                                                                 #  SUBROUTINE TO COMPUTE BOUNDS ON INDEPENDENT VARIABLE X(T1)
001769:
001770:                                                                                                 #  INPUT
001771:                                                                                                 #     PUSHLIST
001772:                                                                                                 #         PUSHLOC -4      MAJOR AXIS (MA)                                         DP      B30/B28
001773:                                                                                                 #         PUSHLOC -2      MAJOR AXIS (MA) AGAIN                                   DP      B30/B28
001774:                                                                                                 #         28D             BETA5=LAMBDA*BETA1                                      DP      B9
001775:                                                                                                 #     OTHER
001776:                                                                                                 #         RCON                                                                    DP      B29/B27
001777:                                                                                                 #         R(T1)                                                                   DP      B29/B27
001778:
001779:                                                                                                 #  OUTPUT
001780:                                                                                                 #     MPAC
001781:                                                                                                 #         X(T1)LIM        LIMIT ON INDEPENDENT VARIABLE X(T1)                     DP      B5
001782:
001783:                                                                                                 #  DEBRIS
001784:                                                                                                 #     PUSHLIST
001785:                                                                                                 #         C(PUSHLOC)      MA-RCON                                                 DP      (B30/28)-N1
001786:                                                                                                 #         C(PUSHLOC) +2   MA                                                      DP      B30/B28
001787:                                                                                                 #         X1              NORMALIZATION FACTOR FOR MA-RCON
001788:                                                                                                 #         20D             XT1LIM SUBROUTINE RETURN ADDRESS
001789:
001790:                                                                                                 #  PUSHLOC IS RESTORED TO ITS ENTRANCE VALUE UPON EXITING XT1LIM
001791:
001792: 27,2000                                          SETLOC   RTE2
001793: 27,2000                                          BANK
001794: 27,2633           71220        XT1LIM            STQ      DLOAD
001795: 27,2634           00024                                   20D
001796: 27,2635           03636                                   RCON
001797: 27,2636           44342                          SR1      BDSU
001798: 27,2637           65301                          NORM     PDDL                                  #  MA-RCON                        B30-N1
001799: 27,2640           00050                                   X2
001800: 27,2641           70525                          PDDL     SR1
001801: 27,2642           03646                                   R(T1)
001802: 27,2643           56221                          BDSU     DDV
001803: 27,2644           41257                          SL*      DMP
001804: 27,2645           57577                                   0          -1,2
001805: 27,2646           00035                                   28D
001806: 27,2647           77657                          SL*
001807: 27,2650           20172                                   0          -7,1
001808: 27,2651           50025                          DSU      BMN                                   #  (BETA5(MA-R(T1))/(MA-RCON))-1  B10
001809: 27,2652           31663                                   1RTEB10
001810: 27,2653           56656                                   XT1LIM5
001811: 27,2654           52166                          SQRT     GOTO
001812: 27,2655           56660                                   XT1LIMX
001813: 27,2656           77745        XT1LIM5           DLOAD
001814: 27,2657           31677                                   ZERORTE
001815: 27,2660           77650        XT1LIMX           GOTO
001816: 27,2661           00024                                   20D
001817:
001818:                                                                                                 #  Page 888
001819:                                                                                                 #  CONSTANTS FOR THE P37 AND P70 PROGRAMS AND SUBROUTINES
001820:
001821: 36,3250                                          BANK     36
001822: 34,2000                                          SETLOC   RTECON
001823: 34,2000                                          BANK
001824:
001825: 34,3652           20000 00000  1RTEB1            2DEC     1          B-1
001826: 34,3654           10000 00000  1RTEB2            2DEC     1          B-2
001827: 34,3656           04000 00000  1RTEB3            2DEC     1          B-3
001828: 34,3660           02000 00000  1RTEB4            2DEC     1          B-4
001829: 34,3662           00020 00000  1RTEB10           2DEC     1          B-10
001830: 34,3664           00004 00000  1RTEB12           2DEC     1          B-12
001831: 34,3666           00002 00000  1RTEB13           2DEC     1          B-13
001832: 34,3670           00000 04000  1RTEB17           2DEC     1          B-17
001833: 34,3672           00000 00010  1RTEB25           2DEC     1          B-25
001834: 34,3674           00000 00001  1RTEB28           2DEC     1          B-28
001835: 34,3676           00000 00000  ZERORTE           2DEC     0          B-28
001836: 34,3700           77777 77557  M144RTE           2DEC     -144       B-28
001837: 34,3702           77777 77760  M15RTE            2DEC     -15        B-28
001838: 34,3704           00000 00012  10RTE             2DEC     10         B-28
001839: 34,3706           54631 63145  M.6RTE            2DEC     -.6
001840: 34,3710           21463 06315  1.1RTEB1          2DEC     1.1        B-1
001841: 34,3712           77777 77771  M6RTEB28          2DEC     -6         B-28
001842: 34,3714           37777 37777  2RTEB1            2OCT     3777737777
001843: 34,3716           77777 77766  M9RTEB28          2DEC     -9         B-28
001844: 34,3720           77777 77767  M8RTEB28          2DEC     -8         B-28
001845: 34,3722           00000 35610  30480RTE          2DEC     30480      B-29
001846: 34,3724           36703 03743  VCSPS             2DEC     30.8811    B-5
001847:                                                                                                 #  Page 889
001848: 34,3726           33041 37714  VCRCS             2DEC     27.0664    B-5
001849: 34,3730           00003 13241  MDOTRCS           2DEC     .0016375   B-3
001850: 34,3732           20000 00000  CSUBT             2DEC     .5
001851: 34,3734           00605        OCT605            OCT      00605
001852: 34,3735           00612        OCT612            OCT      00612
001853: 34,3736           00613        OCT613            OCT      00613
001854: 34,3737           40214 45266  MCOS7.5           2DEC     -.99144486
001855: 34,3741           73645 56536  MSIN7.5           2DEC     -.13052619
001856: 34,3743           70467 71205  MCOS22.5          2DEC     -.92387953 B-2
001857: 34,3745           16525 12525  THETA165          2DEC     .4583333333
001858: 34,3747           22525 12525  THETA210          2DEC     .5833333333
001859: 34,3751           17775 06676  EPC1RTE           2DEC     .99966     B-1
001860: 34,3753           00000 00062  EPC2RTE           2DEC     100        B-29
001861: 34,3755           00020 14223  EPC3RTE           2DEC     .001
001862: 34,3757           00000 05174  EPC4RTE           2DEC     .00001
001863: 34,3761           00002 21727  EPC5RTE           2DEC     .01        B-6
001864: 34,3763           00000 01654  EPC6RTE           2DEC     .000007    B-1
001865: 34,3765           00000 00764  EPC7RTE           2DEC     1000       B-29
001866: 34,3767           00040 30447  EPC8RTE           2DEC     .002
001867: 34,3771           00000 00010  EPC9RTE           2DEC     1          B-25
001868: 34,3773           00000 00322  EPC10RTE          2DEC     .0001      B-7
001869:
001870: 35,3755                                          BANK     35
001871: 35,2000                                          SETLOC   RTECON1
001872: 35,2000                                          BANK
001873:
001874: 35,3755           27657 01000  C4RTE             2DEC     8          E8         B-30
001875: 35,3757           00325 23740  K1RTE             2DEC     7          E6         B-29
001876: 35,3761           00306 06614  K2RTE             2DEC     6495000    B-29
001877: 35,3763           76027 70156  K3RTE             2DEC     -.06105
001878:                                                                                                 #  Page 890
001879: 35,3765           74517 54131  K4RTE             2DEC     -.10453
001880: 35,3767           30276 05001  RTMURTE           2DEC     199650.501 B-18
001881: 35,3771           00003 27040  E3RTE             2DEC     121920     B-29
001882:

End of include-file P37_P70.agc.  Parent file is MAIN.agc


