
Source Code
000001:                                                                                                 #  Copyright:     Public domain.
000002:                                                                                                 #  Filename:      Template.agc
000003:                                                                                                 #  Purpose:       Part of the source code for Colossus, build 249.
000004:                                                                                                 #                 It is part of the source code for the Command Module's (CM)
000005:                                                                                                 #                 Apollo Guidance Computer (AGC), possibly for Apollo 8 and 9.
000006:                                                                                                 #  Assembler:     yaYUL
000007:                                                                                                 #  Reference:     pp. 644-696 of 1701.pdf.
000008:                                                                                                 #  Contact:       Ron Burkey <info@sandroid.org>.
000009:                                                                                                 #  Website:       www.ibiblio.org/apollo.
000010:                                                                                                 #  Mod history:   08/15/04 RSB.   Began transcribing.  Unfortunately, while
000011:                                                                                                 #                                 there's a corresponding Luminary131 file,
000012:                                                                                                 #                                 there's not too much overlap with it.
000013:
000014:                                                                                                 #  The contents of the "Colossus249" files, in general, are transcribed
000015:                                                                                                 #  from a scanned document obtained from MIT's website,
000016:                                                                                                 #  http://hrst.mit.edu/hrs/apollo/public/archive/1701.pdf.  Notations on this
000017:                                                                                                 #  document read, in part:
000018:
000019:                                                                                                 #         Assemble revision 249 of AGC program Colossus by NASA
000020:                                                                                                 #         2021111-041.  October 28, 1968.
000021:
000022:                                                                                                 #         This AGC program shall also be referred to as
000023:                                                                                                 #                                 Colossus 1A
000024:
000025:                                                                                                 #         Prepared by
000026:                                                                                                 #                         Massachussets Institute of Technology
000027:                                                                                                 #                         75 Cambridge Parkway
000028:                                                                                                 #                         Cambridge, Massachusetts
000029:                                                                                                 #         under NASA contract NAS 9-4065.
000030:
000031:                                                                                                 #  Refer directly to the online document mentioned above for further information.
000032:                                                                                                 #  Please report any errors (relative to 1701.pdf) to info@sandroid.org.
000033:
000034:                                                                                                 #  In some cases, where the source code for Luminary 131 overlaps that of
000035:                                                                                                 #  Colossus 249, this code is instead copied from the corresponding Luminary 131
000036:                                                                                                 #  source file, and then is proofed to incorporate any changes.
000037:
000038:                                                                                                 #  Page 644
000039:                                                                                                 #  PROGRAM DESCRIPTION ** P40CSM **
000040:
000041: 35,3755  E6,1466                                 EBANK=   DAPDATR1
000042: 31,3215                                          BANK     31
000043: 24,2000                                          SETLOC   P40S
000044: 24,2000                                          BANK
000045:
000046: 24,2002                                          COUNT    24/P40
000047:
000048: 24,2002           05447        P40CSM            TC       DOWNFLAG
000049: 24,2003           00023                          ADRES    ENG2FLAG
000050:
000051: 24,2004           06006                          TC       INTPRET
000052: 24,2005           43135                          SLOAD    BOFF
000053: 24,2006           03425                                   ECSTEER                               #  IS THIS AN EXTERNAL DELTA V BURN
000054: 24,2007           01347                                   XDELVFLG
000055: 24,2010           50013                                   P40S/C                                #  NO     CSTEER = ECSTEER
000056: 24,2011           77745                          DLOAD                                          #  YES    CSTEER = ZERO
000057: 24,2012           15332                                   HI6ZEROS
000058: 24,2013           17703        P40S/C            STODL    CSTEER
000059: 24,2014           10335                                   FENG                                  #  SET UP THRUST FOR P40 20,000 LBS
000060: 24,2015           17727        P40S/F            STODL    F                                     #  P41 ENTERS HERE
000061: 24,2016           03413                                   TIG                                   #  ORIGINAL TIG MAY BE SLIPPED BY P40S/SV
000062: 24,2017           03450                          STORE    NOMTIG                                #  SET ORIGINAL TIME OF IGNITION FOR S40.9
000063:
000064: 24,2020           77776                          EXIT
000065: 24,2021           04555                          TC       BANKCALL
000066: 24,2022           17573                          CADR     R02BOTH                               #  IMU STATUS CHECK
000067:
000068: 24,2023           06006        P40PVA            TC       INTPRET
000069: 24,2024           77624                          CALL
000070: 24,2025           34000                                   S40.1                                 #  COMPUTE VGTIG,UT
000071: 24,2026           77624                          CALL
000072: 24,2027           51512                                   S40.2,3                               #  COMPUTE PREFERRED ATTITUDE
000073: 24,2030           77414                          SET      EXIT
000074: 24,2031           01073                                   PFRATFLG
000075: 24,2032           02212        P40SXTY           TCR      SETMINDB   -1                         #  NARROW DEADBAND FOR MANEUVER (EBANK6)
000076: 24,2033           00003                          RELINT
000077: 24,2034           04555                          TC       BANKCALL
000078: 24,2035           56000                          CADR     R60CSM                                #  ATTITUDE MANEUVER
000079: 24,2036           44712                          CS       ONE                                   #  FOR UPDATEVG
000080: 24,2037           55746                          TS       NBRCYCLS
000081: 24,2040           05435                          TC       UPFLAG
000082: 24,2041           00155                          ADRES    TIMRFLAG                              #  ALLOW CLOCKTASK
000083:
000084: 24,2042           02252                          TC       P41/P40
000085: 24,2043           02267                          TC       P41/DSP                               #  P41
000086:
000087: 24,2044           32351        P40TTOG           CAF      V06N40                                #  INITIALIZE FOR CLOCKTASK WHICH IS CALLED
000088:                                                                                                 #  Page 645
000089: 24,2045           55145                          TS       NVWORD1                               #  BELOW
000090:
000091: 24,2046           06006                          TC       INTPRET
000092: 24,2047           51575                          VLOAD    ABVAL                                 #  FOR R2
000093: 24,2050           03721                                   VGTIG
000094: 24,2051           17654                          STODL    VGDISP
000095: 24,2052           15332                                   HI6ZEROS
000096: 24,2053           03426                          STORE    DVTOTAL
000097: 24,2054           77776                          EXIT
000098:
000099: 24,2055           00006                          EXTEND
000100: 24,2056           32773                          DCA      STEERADS                              #  SET FOR UPDATEVG AND TEST FOR STEERING
000101: 24,2057           53223                          DXCH     AVEGEXIT                              #  AFTER AVERAGE G
000102:
000103: 24,2060           32344        P40GMB            CAF      P40CKLS2                              #  (4.1 PROTECTION)
000104: 24,2061           04555                          TC       BANKCALL
000105: 24,2062           20751                          CADR     GOPERF1
000106: 24,2063           12204                          TCF      POST41                                #  V34
000107: 24,2064           12362                          TCF      TST,TRIM                              #  V33
000108: 24,2065           44712        TRIMONLY          CS       BIT1                                  #  SET MRKRTEMP FOR GIMBAL TRIM (-1)
000109: 24,2066           55445                 +1       TS       MRKRTMP                               #  ENTRY FROM TST,TRIM
000110:
000111: 24,2067           34714                          CAF      ZERO                                  #  SET CNTR       +0 FOR RESTART LOGIC IN S40.6
000112: 24,2070           55447                          TS       CNTR                                  #         +0 SAYS NORMAL ENTRY
000113:                                                                                                 #         +1 (PRE40.6) SAYS RESTART ENTRY
000114:
000115: 24,2071           34712                          CAF      ONE
000116: 24,2072           05140                          TC       WAITLIST
000117: 24,2073  30,2000                                 SBANK=   LOWSUPER
000118: 24,2073  E6,1466                                 EBANK=   DAPDATR1
000119: 24,2073           02051 40066                    2CADR    S40.6
000120:
000121: 24,2075           11445                          CCS      MRKRTMP                               #  TEST TO FIND TIME TO WAIT FOR GIMBAL TEST
000122: 24,2076           32343                          CAF      18SEC                                 #  PLUS, DELAY FOR 18 SECONDS
000123: 24,2077           12101                          TCF      +2                                    #  HOLE
000124: 24,2100           32776                          CAF      5SEC                                  #  DELAY FOR TRIM ONLY TASK
000125: 24,2101           04555                          TC       BANKCALL
000126: 24,2102           01732                          CADR     DELAYJOB
000127: 24,2103           05261                          TC       2PHSCHNG
000128: 24,2104           40026                          OCT      40026                                 #  6.2 = PRE40.6(-0CS), CLOKTASK(100CS)
000129: 24,2105           00234                          OCT      00234                                 #  4.23 = P40S/SV (PRIO12)
000130: 24,2106           34712        P40S/RS           CAF      ONE
000131: 24,2107           05140                          TC       WAITLIST                              #  P41/SDP
000132: 24,2110  E7,1412                                 EBANK=   TIG
000133: 24,2110           03172 50067                    2CADR    CLOKTASK
000134:
000135: 24,2112           00003                          RELINT
000136:
000137: 24,2113           03304        P40S/SV           TCR      E7SETTER                              #  JOB, 4.23 PRETECTS, PREO12
000138: 24,2114  E7,1412                                 EBANK=   TIG
000139:                                                                                                 #  Page 646
000140: 24,2114           06006                          TC       INTPRET
000141: 24,2115           45345                          DLOAD    DSU
000142: 24,2116           03413                                   TIG
000143: 24,2117           10342                                   SEC29.96
000144: 24,2120           00041                          STORE    TDEC1
000145:
000146: 24,2121           77624                          CALRB                                          #  RETURN IN BASIC
000147: 24,2122           27577                                   MIDTOAV1
000148: 24,2123           12125                          TCF      +2
000149: 24,2124           02146                          TC       P40SNEWM                              #  INTEGRATION TIME GREATER THAN ALLOWED
000150: 24,2125           00006        P40SET            EXTEND
000151: 24,2126           30155                          DCA      MPAC                                  #  DELTA TIME TO PREREAD (INT.INIT.)
000152: 24,2127           53673                          DXCH     P40TMP
000153: 24,2130           00006                          EXTEND
000154: 24,2131           42776                          DCS      5SECDP                                #  FOR TIGBLNK
000155: 24,2132           21673                          DAS      P40TMP
000156: 24,2133           00006                          EXTEND
000157: 24,2134           31673                          DCA      P40TMP
000158: 24,2135           05231                          TC       LONGCALL
000159: 24,2136  E7,1412                                 EBANK=   TIG
000160: 24,2136           02364 50067                    2CADR    TIGBLNK
000161:
000162: 24,2140           05301                          TC       PHASCHNG
000163: 24,2141           20214                          OCT      20214                                 #  4.21 = TIGBLNK (P40TMP CS)
000164:
000165: 24,2142           15112                          TCF      ENDOFJOB
000166: 24,2143           04555        P40BLNKR          TC       BANKCALL
000167: 24,2144           20607                          CADR     CLEANDSP                              #  REMOVE RESIDUE
000168: 24,2145           15112                          TCF      ENDOFJOB
000169: 24,2146  E7,1412                                 EBANK=   TIG
000170: 24,2146           00006        P40SNEWM          EXTEND
000171: 24,2147           31246                          DCA      PIPTIME1
000172: 24,2150           53413                          DXCH     TIG                                   #  SET NEW TIG FOR 06 40
000173: 24,2151           00006                          EXTEND
000174: 24,2152           32342                          DCA      SEC29.96
000175: 24,2153           21413                          DAS      TIG
000176: 24,2154           12125                          TCF      P40SET                                #  FOR LONGCALL OF TIG-30 (OR -35)
000177:
000178: 24,2155  E6,1466                                 EBANK=   DAPDATR1
000179: 24,2155           32353        POSTBURN          CAF      V16N40
000180: 24,2156           04555                          TC       BANKCALL
000181: 24,2157           20610                          CADR     REFLASH
000182: 24,2160           12204                          TCF      POST41                                #  V34 GO FINISH
000183: 24,2161           12163                          TCF      P40RCS                                #  PROCEED
000184: 24,2162           12155                          TCF      POSTBURN                              #  RECYCLE
000185: 24,2163           00006        P40RCS            EXTEND                                         #  V99N40 ENTERS HERE ON A P40 BYPASS SPS
000186: 24,2164           32407                          DCA      ACADN85
000187: 24,2165           53223                          DXCH     AVEGEXIT
000188: 24,2166           34735                          CAF      2SECS                                 #  WAIT FOR CALCN85 VIA AVEGEXIT
000189: 24,2167           04555                          TC       BANKCALL
000190:                                                                                                 #  Page 647
000191: 24,2170           01732                          CADR     DELAYJOB
000192:
000193: 24,2171           02212        P40MINDB          TCR      SETMINDB   -1
000194: 24,2172           00003                          RELINT
000195: 24,2173           05301        TIGNOW            TC       PHASCHNG
000196: 24,2174           05024                          OCT      05024                                 #  TYPE C GROUP 4 BELOW FOR NOUN 85
000197: 24,2175           20000                          OCT      20000                                 #  PRIO 20
000198: 24,2176           32350                          CAF      V16N85B
000199: 24,2177           04555                          TC       BANKCALL
000200: 24,2200           20610                          CADR     REFLASH
000201: 24,2201           12204                          TCF      POST41                                #  FINISH P40/P41
000202: 24,2202           12204                          TCF      POST41                                #  V03 PROCEED WITH REST OF THE CLEAN-UP
000203: 24,2203           12173                          TCF      TIGNOW                                #  V32 NOT GSOP RESPONSE BUT REDISPLAY N85
000204:
000205: 24,2204           00006        POST41            EXTEND
000206: 24,2205           32405                          DCA      SERVCADR
000207: 24,2206           53223                          DXCH     AVEGEXIT
000208: 24,2207           14106                          TCF      GOTOP00H
000209: 24,2210           00056        MINDB             DEC      46         B-14
000210: 24,2211           00707        MAXDB             DEC      455        B-14
000211: 24,2212  E6,1466                                 EBANK=   DAPDATR1
000212: 24,2212           00004                 -1       INHINT
000213: 24,2213           30032        SETMINDB          CA       CDUX                                  #  ROUTINE FOR SETTING
000214: 24,2214           55572                          TS       THETADX                               #  THE MINIMUM DEADBAND
000215: 24,2215           00006                          EXTEND                                         #  IN AUTOPILOT
000216: 24,2216           30034                          DCA      CDUY
000217: 24,2217           53574                          DXCH     THETADY
000218: 24,2220           32210                          CA       MINDB                                 #  SHOULD BE CALLED UNDER
000219: 24,2221           55655                          TS       ADB                                   #  INTERRUPT INHIBITED
000220: 24,2222           44707                          CS       BIT4                                  #  EBANK = E6
000221: 24,2223           71466                          MASK     DAPDATR1
000222: 24,2224           55466                          TS       DAPDATR1
000223: 24,2225           00002                          TC       Q
000224:
000225: 24,2226  E6,1466                                 EBANK=   DAPDATR1
000226: 24,2226           00004                 -1       INHINT
000227: 24,2227           32211        SETMAXDB          CA       MAXDB                                 #  ROUTINE FOR SETTING
000228: 24,2230           55655                          TS       ADB                                   #  THE MAXIMUM DEADBAND IN AUTOPILOT
000229: 24,2231           41466                          CS       DAPDATR1
000230: 24,2232           74707                          MASK     BIT4                                  #  SHOULD BE CALLED UNDER
000231: 24,2233           27466                          ADS      DAPDATR1                              #  INTERRUPT INHIBITED
000232: 24,2234           00002                          TC       Q                                     #  EBANK = E6
000233:
000234:                                                                                                 #  Page 648
000235:                                                                                                 #  PROGRAM DESCRIPTION ** P41CSM **
000236:
000237: 24,2235  E6,1466                                 EBANK=   DAPDATR1
000238: 24,2235                                          COUNT    24/P41
000239:
000240: 24,2235           05435        P41CSM            TC       UPFLAG
000241: 24,2236           00023                          ADRES    ENG2FLAG                              #  SET FOR RCS
000242:
000243: 24,2237           06006                          TC       INTPRET
000244: 24,2240           77745                          DLOAD
000245: 24,2241           15332                                   HI6ZEROS                              #  FOR P41 CSTEER =0
000246: 24,2242           03703                          STORE    CSTEER
000247:
000248: 24,2243           43145                          DLOAD    BON
000249: 24,2244           10337                                   FRCS2                                 #  2JET THRUST FOR S40.1
000250: 24,2245           00700                                   NJETSFLG
000251: 24,2246           50015                                   P40S/F                                #  NJETS = 1 2-JET
000252: 24,2247           52015                          DAD      GOTO                                  #  NJETS = 0 4-JET
000253: 24,2250           10337                                   FRCS2
000254: 24,2251           50015                                   P40S/F
000255:
000256: 24,2252           41011        P41/P40           CS       MODREG
000257: 24,2253           74712                          MASK     ONE                                   #  P41EXITS AT CALL LOC +1
000258: 24,2254           00006                          EXTEND
000259: 24,2255           12257                          BZF      +2                                    #  P41
000260: 24,2256           24002                          INCR     Q                                     #  P40 EXITS AT CALL LOC +2
000261: 24,2257           00002                          TC       Q
000262:
000263: 24,2260           34675        TTG/0             CAF      PRIO20                                #  TASK (4.4 PROTECTS IN P41)
000264: 24,2261           05027                          TC       NOVAC
000265: 24,2262  E6,1466                                 EBANK=   DAPDATR1
000266: 24,2262           02173 50066                    2CADR    TIGNOW
000267:
000268: 24,2264           05447        P40CLK            TC       DOWNFLAG
000269: 24,2265           00155                          ADRES    TIMRFLAG
000270:
000271: 24,2266           15213                          TCF      TASKOVER
000272:
000273: 24,2267           32347        P41/DSP           CAF      V06N85B                               #  SET UP FOR NONFLASH V 06 N85 BY CLOCKJOB
000274: 24,2270           55145                          TS       NVWORD1
000275:
000276: 24,2271           06006                          TC       INTPRET
000277: 24,2272           77624                          CALL                                           #  COMPUTE
000278: 24,2273           50314                                   P40CNV85                              #         VGTIG IN CTRL COORDS
000279: 24,2274           77776                          EXIT
000280: 24,2275           00006                          EXTEND                                         #  DO CONTROL COORD CALCULATION AFTER AVEG
000281: 24,2276           32407                          DCA      ACADN85
000282: 24,2277           53223                          DXCH     AVEGEXIT
000283:                                                                                                 #  Page 649
000284: 24,2300           05261                          TC       2PHSCHNG
000285: 24,2301           40036                          OCT      40036                                 #  6.3=CLOKTASK(100CS)
000286: 24,2302           00234                          OCT      234                                   #  4.23=P40S/SV(PRIO12)
000287:
000288: 24,2303           12106                          TCF      P40S/RS
000289: 24,2304           32350        P41REDSP          CAF      V16N85B                               #  ENTER FROM P41 SIDE OF TIGAVEG
000290: 24,2305           55145                          TS       NVWORD1                               #  REDISPLAY NONFLASHING
000291: 24,2306           32342                          CAF      SEC29.96   +1
000292: 24,2307           05140                          TC       WAITLIST
000293: 24,2310  E6,1466                                 EBANK=   DAPDATR1
000294: 24,2310           02260 50066                    2CADR    TTG/0
000295:
000296: 24,2312           44710                          CS       BIT3
000297: 24,2313           12513                          TCF      TTGPHS
000298: 24,2314           40220        P40CNV85          STQ      SETPD
000299: 24,2315           03730                                   QTEMP1
000300: 24,2316           00001                                   0
000301: 24,2317           41575                          VLOAD    PUSH
000302: 24,2320           03721                                   VGPREV                                #  EQUALS VGTIG (TARGETTING INPUT)
000303: 24,2321           77624                          CALL
000304: 24,2322           45426                                   S41.1
000305: 24,2323           37665                          STCALL   VGBODY
000306: 24,2324           03730                                   QTEMP1
000307:
000308: 24,2325  E6,1466                                 EBANK=   DAPDATR1
000309: 24,2325           06006        CALCN85           TC       INTPRET
000310: 24,2326           77624                          CALL
000311: 24,2327           51016                                   UPDATEVG                              #  NEW VG, S40.8 (+MAYBE S40.9)
000312: 24,2330           77624                          CALL
000313: 24,2331           50314                                   P40CNV85                              #  COMPUTE VGBODY
000314: 24,2332           77776                          EXIT
000315: 24,2333           03127                          TC       SERVXT
000316:
000317: 24,2334           02217 06650  FENG              2DEC     9.1188544  B-7                        #  SPS THRUST (20500LBS), SC.AT B+7 NEWT/E4
000318: 24,2336           00013 06112  FRCS2             2DEC     .087437837 B-7                        #  RCS ULLAGE (199.6COS10 LBS), SC.AT
000319:                                                                                                 #         B+7 NEWTONS/E+4
000320: 24,2340           04700        SEC24.96          DEC      2496       B-14
000321: 24,2341           00000 05664  SEC29.96          2DEC     2996       B-28
000322: 24,2343           03410        18SEC             DEC      1800       B-14
000323: 24,2344           00204        P40CKLS2          OCT      204
000324: 24,2345           37730        40CST5            OCT      37730                                 #  40 CS FOR THE T5 CLOCK
000325: 24,2346     4377               OCT12             =        TEN
000326: 24,2346           04123        V1683             VN       1683
000327: 24,2347           01525        V06N85B           VN       0685
000328: 24,2350           04125        V16N85B           VN       1685
000329: 24,2351           01450        V06N40            VN       0640
000330: 24,2352           24020        P40OK99           OCT      24020                                 #  BITS 14,12, AND 5 FOR LINUS VERB 99
000331: 24,2353           04050        V16N40            VN       1640
000332:                                                                                                 #  Page 650
000333: 24,2354           00027        OCT27/24          OCT      27
000334: 24,2355           00053        OCT53             OCT      53
000335: 24,2356           00035        OCT35             OCT      35
000336: 24,2357  E6,1466                                 EBANK=   DAPDATR1
000337: 24,2357           03143 12066  T5IDL24           2CADR    T5IDLOC
000338: 24,2361           00026        3MDOT             DEC      86.6175796 B-16                       #  3SEC MASS LOSS (63.8 LBS/SEC), SC.AT
000339:                                                                                                 #  B+16 KB/SEC (NOT, EMDOT IS PAD-LOADED,
000340:                                                                                                 #  BUT 3MDOT IS NOT A CRITICAL QUANTITY, SO
000341:                                                                                                 #  IT CAN REMAIN IN FIXED MEMORY)
000342: 24,2362           34712        TST,TRIM          CAF      BIT1                                  #  SET UP FOR GIMB DRIVE TEST AND TRIM (+1)
000343: 24,2363           12066                          TCF      TRIMONLY   +1
000344: 24,2364           32776        TIGBLNK           CAF      5SEC                                  #  CALL TIGAVEG IN FIVE SEC AT TIG-30
000345: 24,2365           05140                          TC       WAITLIST
000346: 24,2366  E7,1412                                 EBANK=   TIG
000347: 24,2366           02502 50067                    2CADR    TIGAVEG
000348:
000349: 24,2370           34714                          CAF      ZERO                                  #  DISABLE HERE, NOT IN P40BLNKR
000350: 24,2371           55145                          TS       NVWORD1
000351:
000352: 24,2372           34761                          CAF      PRIO14
000353: 24,2373           05027                          TC       NOVAC
000354: 24,2374  E7,1412                                 EBANK=   TIG
000355: 24,2374           02143 50067                    2CADR    P40BLNKR                              #  DON'T PROTECT -- RESTARTS BLANK DSKY
000356:
000357: 24,2376           44362                          CS       OCT37                                 #  4.37 = TIGAVEG (500CS)
000358: 24,2377           04114        P40TSK            TC       NEWPHASE
000359: 24,2400           00004                          OCT      4
000360: 24,2401           05213                          TC       TASKOVER
000361:
000362: 24,2402  E7,1412                                 EBANK=   TIG
000363: 24,2402           02436 50067  ACADN83           2CADR    CALCN83
000364:
000365: 24,2404  E7,1412                                 EBANK=   TIG
000366: 24,2404           03132 76067  SERVCADR          2CADR    SERVEXIT
000367:
000368: 24,2406  E6,1466                                 EBANK=   DAPDATR1
000369: 24,2406           02325 50066  ACADN85           2CADR    CALCN85
000370:
000371:                                                                                                 #  Page 651
000372:                                                                                                 #  PROGRAM DESCRIPTION ** P47CSM **
000373:
000374: 24,2410                                          COUNT    24/P47
000375:
000376: 24,2410  E7,1412                                 EBANK=   TIG
000377: 24,2410           04555        P47CSM            TC       BANKCALL                              #  IMU STATUS CHECK
000378: 24,2411           17573                          CADR     R02BOTH
000379: 24,2412           06006                          TC       INTPRET
000380: 24,2413           77624                          CALRB
000381: 24,2414           27573                                   MIDTOAV2
000382:
000383: 24,2415           30155                          CA       MPAC       +1                         #  DELTA TIME TO RPEREAD (LESS THAN 100
000384: 24,2416           55672                          TS       P40TMP                                #         CS, WITH A TPAGREE, INT.INIT.)
000385: 24,2417           05140                          TC       WAITLIST
000386: 24,2420  E7,1412                                 EBANK=   TIG
000387: 24,2420           02425 50067                    2CADR    TIGON                                 #  TIGON IS REQUIRED TO MATHCHTAT AND AVEG
000388:
000389: 24,2422           05301                          TC       PHASCHNG
000390: 24,2423           40574                          OCT      40574                                 #  A, 4.57 = TIGON (P40TMP CS)
000391: 24,2424           15112                          TCF      ENDOFJOB
000392:
000393: 24,2425  E7,1672                                 EBANK=   P40TMP
000394: 24,2425           00006        TIGON             EXTEND
000395: 24,2426           32403                          DCA      ACADN83
000396: 24,2427           53223                          DXCH     AVEGEXIT
000397: 24,2430           34371                          CAF      PRIO30                                #  FORCE ZEROING OF N83 BEFORE SERVICER
000398: 24,2431           05027                          TC       NOVAC
000399: 24,2432  E7,1412                                 EBANK=   TIG
000400: 24,2432           02461 50067                    2CADR    P47BODY
000401:
000402: 24,2434           44711                          CS       BIT2                                  #  4.2 = PRECHECK (-0CS), P47BODY (PRIO30)
000403: 24,2435           12513                          TCF      TTGPHS
000404: 24,2436  E7,1412                                 EBANK=   TIG
000405: 24,2436           06006        CALCN83           TC       INTPRET
000406: 24,2437           77601                          SETPD                                          #  SET UP PUSHLIST FOR S41.1
000407: 24,2440           00001                                   0
000408: 24,2441           53375                          VLOAD    VAD
000409: 24,2442           03665                                   DELVCTL
000410: 24,2443           03433                                   DELVREF
000411: 24,2444           03460                          STORE    DV47TEMP                              #  FOR COPYCYCLE BELOW
000412: 24,2445           45006                          PUSH     CALL
000413: 24,2446           45426                                   S41.1
000414: 24,2447           37675                          STCALL   DELVIMU
000415: 24,2450           70436                                   S11.1
000416: 24,2451           77776                          EXIT
000417: 24,2452           05301                          TC       PHASCHNG
000418: 24,2453           10035                          OCT      10035                                 #  REREADAC AND HERE
000419:                                                                                                 #  Page 652
000420: 24,2454           34715                          CAF      FIVE
000421: 24,2455           05475                          TC       GENTRAN
000422: 24,2456           01457                          ADRES    DV47TEMP
000423: 24,2457           01664                          ADRES    DELVCTL
000424:
000425: 24,2460           03127                          TC       SERVXT
000426: 24,2461           06006        P47BODY           TC       INTPRET
000427: 24,2462           77775                          VLOAD
000428: 24,2463           15332                                   HI6ZEROS
000429: 24,2464           03675                          STORE    DELVIMU                               #  CLEAR DISPLAY AND ACCUMULATOR STORAGE
000430: 24,2465           03665                          STORE    DELVCTL                               #  UPON INITIATION OR ENTER RESPONSE
000431: 24,2466           77776                          EXIT
000432: 24,2467           34762        P47BOD            CAF      PRIO15                                #  LOWER PRIO THAN CALCN83 (20)
000433: 24,2470           05103                          TC       PRIOCHNG                              #         TO PREVENT INTERRUPTSION OF CALCN83
000434: 24,2471           05301                          TC       PHASCHNG
000435: 24,2472           05024                          OCT      05024                                 #  TYPE C GROUP 4 BELOW FOR NOUN 83
000436: 24,2473           15000                          OCT      15000                                 #  PRIO 15
000437: 24,2474           32346        P47/DSP           CAF      V1683
000438: 24,2475           04555                          TC       BANKCALL
000439: 24,2476           20624                          CADR     GOFLASH
000440: 24,2477           04106                          TC       GOTOP00H
000441: 24,2500           04106                          TC       GOTOP00H
000442: 24,2501           12461                          TCF      P47BODY                               #  RECYCLE -- CLEAR ACCUMULATED VELOCITY
000443:
000444:                                                                                                 #  Page 653
000445:                                                                                                 #  ROUTINE ** TIG-30 ** DESCRIPTION
000446:
000447: 24,2502  E7,1412                                 EBANK=   TIG
000448: 24,2502                                          COUNT    24/P40
000449:
000450: 24,2502           02252        TIGAVEG           TC       P41/P40                               #  TASK (4.37 PROTECTS)
000451: 24,2503           12304                          TCF      P41REDSP
000452:
000453: 24,2504           32351                          CAF      V06N40                                #  UNBLANK DISPLAY
000454: 24,2505           55145                          TS       NVWORD1
000455:
000456: 24,2506           32340                          CAF      SEC24.96
000457: 24,2507           05140                          TC       WAITLIST
000458: 24,2510  E7,1412                                 EBANK=   TIG
000459: 24,2510           02521 50067                    2CADR    TIG-5
000460:
000461: 24,2512           46211                          CS       SIX                                   #  4.6 = TIG-5 (2496CS), PRECHECK (-0CS)
000462: 24,2513           04114        TTGPHS            TC       NEWPHASE                              #  ENTRY FROM P41REDSP (P41) WITH A=-4, OR
000463: 24,2514           00004                          OCT      4                                     #        FROM TIGON    (P47) WITH A=-1
000464:
000465: 24,2515           10763        PRECHECK          CCS      PHASE5                                #  HAS SERVICER BEEN RESTARTED
000466: 24,2516           15213                          TCF      TASKOVER                              #  YES, DON'T START ANOTHER ONE
000467: 24,2517           04574                          TC       POSTJUMP
000468: 24,2520           76604                          CADR     PREREAD
000469:
000470:                                                                                                 #  Page 654
000471:                                                                                                 #  ROUTINE ** TIG-5 ** DESCRIPTION
000472:
000473: 24,2521  E7,1412                                 EBANK=   TIG
000474: 24,2521           32776        TIG-5             CAF      5SEC
000475: 24,2522           05140                          TC       WAITLIST
000476: 24,2523  E6,1466                                 EBANK=   DAPDATR1
000477: 24,2523           02537 50066                    2CADR    TIG-0
000478:
000479: 24,2525           44702                          CS       BIT9                                  #  WILL CAUSE V99 FLASH
000480: 24,2526           55145                          TS       NVWORD1
000481:
000482: 24,2527           05261                          TC       2PHSCHNG
000483: 24,2530           40074                          OCT      40074                                 #  A, 4.7 = TIG-0 (500CS)
000484: 24,2531           00033                          OCT      00033                                 #  A, 3.3 = S40.13 (PRIO20)
000485:
000486: 24,2532           34675                          CAF      PRIO20
000487: 24,2533           05042                          TC       FINDVAC
000488: 24,2534  E7,1427                                 EBANK=   TGO
000489: 24,2534           02404 34067                    2CADR    S40.13
000490:
000491: 24,2536           15213                          TCF      TASKOVER
000492:
000493:                                                                                                 #  Page 655
000494:                                                                                                 #  ROUTINES ** TIG-0 ** AND ** IGNITION ** DESCRIPTION
000495:
000496: 24,2537  E6,1466                                 EBANK=   DAPDATR1                              #  TASK, 4.7 PHASE, OR 4.77 (-0CS) IN R40
000497: 24,2537           40103        TIG-0             CS       FLAGWRD7                              #  SET IGN FLAG
000498: 24,2540           74676                          MASK     BIT13
000499: 24,2541           26103                          ADS      FLAGWRD7
000500:
000501: 24,2542           30103                          CAE      FLAGWRD7                              #  CHECK ASTN FLAG FOR V99 RESPONSE
000502: 24,2543           74677                          MASK     BIT12
000503: 24,2544           00006                          EXTEND
000504: 24,2545           15213                          BZF      TASKOVER                              #  WAIT FOR V99P
000505:
000506: 24,2546           32351                          CAF      V06N40                                #  CLEAR THE V99 (IN CASE OF A RESTART
000507: 24,2547           55145                          TS       NVWORD1                               #         DURING THE V99 SEQUENCE)
000508:
000509: 24,2550           05301                          TC       PHASCHNG                              #  V99P HAS COME ALREADY, DO IGNITION NOW
000510: 24,2551           00614                          OCT      00614                                 #  A, 4.61 = IGNITION (-0CS) TBASE OLD
000511:
000512: 24,2552           30032        IGNITION          CAE      CDUX                                  #  SAVE FOR ROLL DAP REFERENCE OGAD
000513: 24,2553           55450                          TS       OGAD                                  #         V99PJOB (CLOCKJOB) SETS UP IGNITION
000514: 24,2554           00006                          EXTEND                                         #         TASK (4.61 PROTECTION)
000515: 24,2555           30025                          DCA      TIME2                                 #         FOR RESTARTS
000516: 24,2556           53337                          DXCH     TEVENT
000517: 24,2557           40101                          CS       FLAGWRD5                              #  SET ENGONFLG
000518: 24,2560           74704                          MASK     BIT7
000519: 24,2561           26101                          ADS      FLAGWRD5
000520: 24,2562           34676        SPSON             CAF      BIT13                                 #  TURN ON SPS ENGINE
000521: 24,2563           00006                          EXTEND
000522: 24,2564           05011                          WOR      DSALMOUT
000523:
000524: 24,2565           34702        IMPULCHK          CAF      BIT9                                  #  CHECK FOR IMPULSIVE BURN
000525: 24,2566           70076                          MASK     FLAGWRD2
000526: 24,2567           10000                          CCS      A
000527: 24,2570           12655                          TCF      IMPLBURN                              #  IMPULSIVE
000528: 24,2571           40102                          CS       FLAGWRD6                              #  NON-IMPULSIVE, SET STRULLSW FOR STEERULL
000529: 24,2572           74676                          MASK     BIT13
000530: 24,2573           26102                          ADS      FLAGWRD6
000531:
000532: 24,2574           44105        PREPTVC           CS       OCT60000                              #  RESET T5 BITS
000533: 24,2575           70102                          MASK     FLAGWRD6
000534: 24,2576           54102                          TS       FLAGWRD6
000535:
000536: 24,2577           00006                          EXTEND                                         #  KILL RCS
000537: 24,2600           32360                          DCA      T5IDL24
000538: 24,2601           53313                          DXCH     T5LOC
000539:
000540: 24,2602           46214                          CS       THREE                                 #  4.3 = DOTVCON (40CS)
000541: 24,2603           04114                          TC       NEWPHASE
000542: 24,2604           00004                          OCT      4
000543:
000544:                                                                                                 #  Page 656
000545: 24,2605           05156                          TC       FIXDELAY
000546: 24,2606           00050                          DEC      40         B-14                       #  0.4 SECOND DELAY FOR THRUST BUILDUP
000547:
000548: 24,2607           44712        DOTVCON           CS       BIT1                                  #  SET TVCPHASE = TVCDAPON CALL (FRESHDAP)
000549: 24,2610           55654                          TS       TVCPHASE
000550: 24,2611           34714                          CAF      ZERO                                  #  SET TVCEXECUTIVE PHASE
000551: 24,2612           55661                          TS       TVCEXPHS
000552: 24,2613           44105                          CS       OCT60000                              #  SET T5 BITS TO INDICATE TVC TAKEOVER ....
000553: 24,2614           70102                          MASK     FLAGWRD6                              #         BITS 15,14 = 10
000554: 24,2615           64674                          AD       BIT15
000555: 24,2616           54102                          TS       FLAGWRD6
000556:
000557: 24,2617           36214                          CAF      THREE                                 #  6.3 = CLOKTASK (100CS), DROPPING PRE40.6
000558: 24,2620           54001                          TS       L                                     #         WHICH IS HANDLED NOW BY REDOTVC
000559: 24,2621           40000                          COM
000560: 24,2622           52765                          DXCH     -PHASE6
000561:
000562: 24,2623           44715                          CS       FIVE                                  #  4.5 = DOSTRULL (160 CS)
000563: 24,2624           04114                          TC       NEWPHASE
000564: 24,2625           00004                          OCT      4
000565:
000566: 24,2626           34672                          CAF      POSMAX                                #  SET TIME5 FOR STARTING RIGHT AWAY
000567: 24,2627           54030                          TS       TIME5
000568: 24,2630           00006                          EXTEND
000569: 24,2631           33001                          DCA      TVCON2C                               #  (TVCDAPON)
000570: 24,2632           53313                          DXCH     T5LOC                                 #  (KILLS RCS DAP)
000571:
000572: 24,2633           05156                          TC       FIXDELAY                              #  0.4 + 1.6 = 2.0 SEC FOR ULLAGE-OFF AND
000573: 24,2634           00240                          DEC      160        B-14                       #         STEERING (IF NON-IMPULSIVE)
000574:
000575: 24,2635           34676        DOSTRULL          CAF      BIT13                                 #  CHECK STRULLSW FOR IMPULSIVE BURN
000576: 24,2636           70102                          MASK     FLAGWRD6
000577: 24,2637           10000                          CCS      A
000578: 24,2640           02646                          TCR      STEERULL                              #  NON-IMPULSIVE, STEERING AND ULLAGE OFF
000579: 24,2641           02651                          TCR      ULAGEOFF                              #  ULLAGE OFF (ONLY, OR AGAIN)
000580:
000581: 24,2642           00006                          EXTEND
000582: 24,2643           34714                          DCA      NEG0                                  #  KILL GROUP 4 (DP NEG0 = -0,+0)
000583: 24,2644           52761                          DXCH     -PHASE4
000584:
000585: 24,2645           15213        ENDIGN            TCF      TASKOVER
000586: 24,2646           40076        STEERULL          CS       FLAGWRD2                              #  SET STEERSW
000587: 24,2647           74700                          MASK     BIT11
000588: 24,2650           26076                          ADS      FLAGWRD2
000589:
000590: 24,2651           34714        ULAGEOFF          CAF      ZERO
000591: 24,2652           00006                          EXTEND
000592: 24,2653           01005                          WRITE    CHAN5                                 #  ZERO CHANNEL 5
000593:                                                                                                 #  Page 657
000594: 24,2654           00002                          TC       Q
000595: 24,2655           44676        IMPLBURN          CS       BIT13                                 #  RESET STRULLSW (COULD BE AN IMPULSIVE
000596: 24,2656           70102                          MASK     FLAGWRD6                              #         ENGINE FAIL)
000597: 24,2657           54102                          TS       FLAGWRD6
000598:
000599: 24,2660           03304                          TCR      E7SETTER
000600:
000601: 24,2661  E7,1412                                 EBANK=   TIG
000602: 24,2661           00006                          EXTEND                                         #  PREPARE FOR R1 OF V06N40 (CLOCKTASK)
000603: 24,2662           31430                          DCA      TGO
000604: 24,2663           53413                          DXCH     TIG
000605: 24,2664           00006                          EXTEND
000606: 24,2665           30025                          DCA      TIME2
000607: 24,2666           21413                          DAS      TIG
000608:
000609: 24,2667           31430                          CAE      TGO        +1                         #  (TPAGREE IN S40.13, LESS THAN 600CS)
000610: 24,2670           05140                          TC       WAITLIST
000611: 24,2671  E7,1427                                 EBANK=   TGO
000612: 24,2671           02706 50067                    2CADR    ENGINOFF
000613:
000614: 24,2673           05261                          TC       2PHSCHNG                              #  PROTECT ....
000615: 24,2674           40153                          OCT      40153                                 #  A, 3.15 = ENGINOFF (TGO+1) .... NOT GROUP
000616: 24,2675           05014                          OCT      05014                                 #  C, DELTAT NEXT, TASK BELOW, IN
000617: 24,2676           77777                          DEC      -0         B-14                       #  -0 CS
000618:
000619: 24,2677           44702                          CS       BIT9                                  #  RESET IMPULSW, ENGINOFF IS NOW SET UP
000620: 24,2700           70076                          MASK     FLAGWRD2
000621: 24,2701           54076                          TS       FLAGWRD2
000622:
000623: 24,2702           03307                          TCR      E6SETTER
000624: 24,2703  E6,1466                                 EBANK=   DAPDATR1
000625:
000626: 24,2703           34714                          CAF      ZERO                                  #  SET UP V97VCNTR IN CASE ENGINOFF (MASS-=
000627: 24,2704           55444                          TS       V97VCNTR                              #         BACK) ARRIVES BEFORE TVCDAPON
000628:
000629: 24,2705           12574                          TCF      PREPTVC
000630: 24,2706  E7,1427                                 EBANK=   TGO                                   #  E7 FORCED BY 3.15SPOT VARIABLE DELTA-T
000631: 24,2706           03307        ENGINOFF          TCR      E6SETTER                              #  TASK, 3.15 PHASE (TGO+1 CS)    GET E6
000632: 24,2707  E6,1466                                 EBANK=   DAPDATR1
000633: 24,2707           31474                          CAE      CSMMASS
000634: 24,2710           55662                          TS       MASSTMP                               #  COPYCYCLE FOR MASSBACK
000635: 24,2711           05261                          TC       2PHSCHNG
000636: 24,2712           00003                          OCT      00003                                 #  KILL GROUP 3 PROTECTION OF ENGINOFF, DO
000637: 24,2713           40634                          OCT      40634                                 #  A, 4.63 = DOSPSOFF (-0CS)
000638: 24,2714           02737        DOSPSOFF          TCR      SPSOFF                                #  SHUTDOWN SPS, MASS UPDATES, ETC.
000639: 24,2715           42354                          CS       OCT27/24                              #  (OCTAL 27)
000640:                                                                                                 #  Page 658
000641: 24,2716           04114                          TC       NEWPHASE
000642: 24,2717           00004                          OCT      4                                     #  4.27 = DOTVCRCS (250 CS)
000643:
000644: 24,2720           05156                          TC       FIXDELAY                              #  2.5 SECOND DELAY FOR SPS TAILOFF
000645: 24,2721           00372                          DEC      250        B-14
000646:
000647: 24,2722           02227        DOTVCRCS          TCR      SETMAXDB                              #  WIDE DEADBAND FOR CUTOFF TRANSIENT
000648:
000649: 24,2723           04633                          TC       IBNKCALL                              #  SET UP RCS DAP (KILLS TVCDAPS, SETS T5
000650: 24,2724           42010                          CADR     RCSDAPON                              #         BITS, WAITS 0.6SEC FOR TVCEXEC DIE)
000651:
000652: 24,2725           04633                          TC       IBNKCALL                              #  UPDATE WEIGHT/G AND MASS-PROPERTIES FOR
000653: 24,2726           13207                          CADR     MASSPROP                              #         RCS DAP STARTUP IN 0.6 SECONDS
000654:
000655: 24,2727           03003                          TCR      TVCZAP                                #  WIPE OUT TVC, TURN OFF CLOKTASK
000656:
000657: 24,2730           05301                          TC       PHASCHNG
000658: 24,2731           00354                          OCT      00354                                 #  A, 4.35 = POSTBURN (NOVAC, PRIO12)
000659: 24,2732           34603                          CAF      PRIO12                                #  SET UP POSTBURN V16N40 JOB
000660: 24,2733           05027                          TC       NOVAC
000661: 24,2734  E6,1466                                 EBANK=   DAPDATR1                              #  (SET MAXDB IN POST41)
000662: 24,2734           02155 50066                    2CADR    POSTBURN
000663:
000664: 24,2736           15213                          TCF      TASKOVER
000665:
000666: 24,2737  E6,1466                                 EBANK=   DAPDATR1
000667: 24,2737           00006        SPSOFF            EXTEND                                         #  ESTABLISH SPSOFF TEVENT
000668: 24,2740           30025                          DCA      TIME2
000669: 24,2741           53337                          DXCH     TEVENT
000670: 24,2742           44704                          CS       BIT7                                  #  RESET ENGONFLG
000671: 24,2743           70101                          MASK     FLAGWRD5
000672: 24,2744           54101                          TS       FLAGWRD5                              #  (RESTARTS WILL SHUT DOWN SPS NOW)
000673: 24,2745           44676                          CS       BIT13
000674: 24,2746           00006                          EXTEND
000675: 24,2747           03011                          WAND     DSALMOUT
000676:
000677: 24,2750           31444        MASSBACK          CAE      V97VCNTR                              #  RESTORE PART OF PRE-DECREMENTED MASS
000678:                                                                                                 #         V97CNTR = VCNTR UNLESS V97 IS
000679:                                                                                                 #         ACTIVE.  ONLY V97CNTR IS THEN RIGHT.
000680: 24,2751           00006                          EXTEND                                         #  VCNTR COUNTS 1/2-SECONDS IN TVC EXEC
000681: 24,2752           70110                          MP       EMDOT                                 #         MDOT, SC.AT B+3 KG/CS
000682: 24,2753           22000                          LXCH     A
000683: 24,2754           00006                          EXTEND
000684: 24,2755           74734                          MP       1SEC                                  #  DEC 100
000685: 24,2756           61662                          AD       MASSTMP                               #  CORRECTION IS ACCURATE TO 5 CS OF FLOW
000686: 24,2757           55474                          TS       CSMMASS                               #         (1.44 KG OR 0.4 BITS)
000687:
000688: 24,2760           34674        BESTTRIM          CAF      BIT15                                 #  CHECK FOR SWITCHOVER, SELECT BEST TRIMS
000689: 24,2761           70105                          MASK     FLAGWRD9                              #         FOR NEXT IGNITION (OR REIGNITION)
000690: 24,2762           00006                          EXTEND
000691:                                                                                                 #  Page 659
000692: 24,2763           12765                          BZF      DBARTRIM                              #  PRE-SWITCHOVER
000693: 24,2764           00002                          TC       Q                                     #  POST-SWITCHOVER, SO LEAVE TRIMS AS ARE
000694:
000695: 24,2765           31621        DBARTRIM          CAE      DELPBAR                               #  UPDATE TRIMS WITH DELP,YBAR
000696: 24,2766           55425                          TS       PACTOFF
000697: 24,2767           31623                          CAE      DELYBAR
000698: 24,2770           55426                          TS       YACTOFF
000699: 24,2771           00002                          TC       Q
000700:
000701: 24,2772  E6,1466                                 EBANK=   DAPDATR1
000702: 24,2772           03117 50066  STEERADS          2CADR    STEERING
000703:
000704: 24,2774           37703        .6SECT5           OCT      37703
000705: 24,2775           00000        5SECDP            DEC      0          B-14                       #  MAKE DP 5SEC
000706: 24,2776           00764        5SEC              DEC      500        B-14
000707: 24,2777           02202        OCT02202          OCT      02202                                 #  BITS 2, 8, 11 FOR CHANNEL 12 TVC/OPTICS
000708: 24,3000  E6,1466                                 EBANK=   DAPDATR1
000709: 24,3000           02030 36066  TVCON2C           2CADR    TVCDAPON
000710:
000711: 24,3002           00004                 -1       INHINT
000712: 24,3003           42777        TVCZAP            CS       OCT02202                              #  DISABLE TVC AND OPT ERR CNTRLS, REENGAGE
000713: 24,3004           00006                          EXTEND                                         #         OPTICS DAC
000714: 24,3005           03012                          WAND     CHAN12
000715: 24,3006           44712                          CS       BIT1                                  #  ENABLE T4RUPT OPTICS MONITOR .... PERMIT
000716: 24,3007           55303                          TS       OPTIND                                #         OPTICS-ZERO BUT NOT OPTICS-DRIVE
000717: 24,3010           34714                          CAF      ZERO                                  #  CLEAR NVWORD1 IN CASE CLOCKJOB WAITING
000718: 24,3011           55145                          TS       NVWORD1
000719: 24,3012           44700                          CS       BIT11                                 #  CLEAR TIMRFLAG TO STOP CLOKTASK
000720: 24,3013           70103                          MASK     FLAGWRD7
000721: 24,3014           54103                          TS       FLAGWRD7
000722: 24,3015           00002                          TC       Q
000723: 24,3016  E6,1466                                 EBANK=   DAPDATR1
000724: 24,3016           43020        UPDATEVG          STQ      BON
000725: 24,3017           03730                                   QTEMP1
000726: 24,3020           01307                                   XDELVFLG
000727: 24,3021           51045                                   CALL40.8
000728:
000729: 24,3022           50135                          SLOAD    BMN
000730: 24,3023           03347                                   NBRCYCLS
000731: 24,3024           51051                                   SETUP.9
000732:
000733: 24,3025           53375                          VLOAD    VAD
000734: 24,3026           03351                                   DELVSUM
000735: 24,3027           03433                                   DELVREF
000736: 24,3030           03357                          STORE    DELVSUMP
000737: 24,3031           77776                          EXIT
000738: 24,3032           34712                          CA       ONE
000739: 24,3033           61746                          AD       NBRCYCLS
000740: 24,3034           55747                          TS       NBRCYCLP
000741:                                                                                                 #  Page 660
000742: 24,3035           05301                          TC       PHASCHNG                              #  (?) TYPE A RESTART RESTART BELOW AND 5.3 REREADAC (?)
000743: 24,3036           10035                          OCT      10035
000744:
000745: 24,3037           31747                          CA       NBRCYCLP
000746: 24,3040           55746                          TS       NBRCYCLS
000747: 24,3041           06006                          TC       INTPRET
000748: 24,3042           77775                          VLOAD
000749: 24,3043           03357                                   DELVSUMP
000750: 24,3044           03351                          STORE    DELVSUM
000751:
000752: 24,3045           77624        CALL40.8          CALL
000753: 24,3046           34130                                   S40.8
000754: 24,3047           77650                          GOTO
000755: 24,3050           03730                                   QTEMP1
000756:
000757: 24,3051           67214        SETUP.9           BON      SLOAD
000758: 24,3052           01310                                   FIRSTFLG
000759: 24,3053           51066                                   SURELY.9
000760: 24,3054           03350                                   NBRCYCLP
000761: 24,3055           74301                          NORM     VXSC                                  #  (NORM HANDLES ZERO PROPERLY)
000762: 24,3056           00047                                   X1
000763: 24,3057           03705                                   BDT
000764: 24,3060           53257                          VSR*     VAD
000765: 24,3061           20563                                   0          -14D,1
000766: 24,3062           03646                                   VGTEMP
000767: 24,3063           77651                          VSU
000768: 24,3064           03351                                   DELVSUM
000769: 24,3065           03721                          STORE    VGPREV
000770: 24,3066           77776        SURELY.9          EXIT
000771: 24,3067           34676                          CAF      PRIO10
000772: 24,3070           05042                          TC       FINDVAC
000773: 24,3071  E6,1466                                 EBANK=   DAPDATR1
000774: 24,3071           02257 34066                    2CADR    S40.9
000775:
000776: 24,3073           05261                          TC       2PHSCHNG
000777: 24,3074           00051                          OCT      00051                                 #  A, 1.5 = REDO40.9, PRIO 10
000778: 24,3075           10035                          OCT      10035
000779: 24,3076           06006                          TC       INTPRET
000780: 24,3077           77775                          VLOAD
000781: 24,3100           01171                                   RN                                    #  ACTIVE VEHICLE RADIUS VECTOR AT T1
000782: 24,3101           27570                          STOVL    RINIT
000783: 24,3102           01177                                   VN                                    #  ACTIVE VEHICLE VELOCITY VECTORY AT T1
000784: 24,3103           17576                          STODL    VINIT
000785: 24,3104           01205                                   PIPTIME
000786: 24,3105           03474                          STORE    TNIT
000787: 24,3106           77621                          BDSU
000788: 24,3107           03656                                   TPASS4
000789: 24,3110           27423                          STOVL    DELLT4
000790: 24,3111           15332                                   HI6ZEROS
000791: 24,3112           17351                          STODL    DELVSUM
000792:                                                                                                 #  Page 661
000793: 24,3113           15332                                   HI6ZEROS
000794: 24,3114           03347                          STORE    NBRCYCLS
000795: 24,3115           77650                          GOTO
000796: 24,3116           51045                                   CALL40.8
000797: 24,3117  E6,1466                                 EBANK=   DAPDATR1
000798: 24,3117           06006        STEERING          TC       INTPRET
000799: 24,3120           77624                          CALL
000800: 24,3121           51016                                   UPDATEVG
000801: 24,3122           77776                          EXIT
000802: 24,3123           34702                          CAF      BIT9                                  #  CHECK IMPULSW
000803: 24,3124           70076                          MASK     FLAGWRD2
000804: 24,3125           10000                          CCS      A
000805: 24,3126           13131                          TCF      +3                                    #  PRE-IGNITE, REQUEST ENG-OFF, OR POST-OFF
000806: 24,3127           04574        SERVXT            TC       POSTJUMP
000807: 24,3130           77132                          CADR     SERVEXIT
000808: 24,3131           34676                          CAF      BIT13                                 #  CHECK ENGINE-ON/-OFF
000809: 24,3132           00006                          EXTEND
000810: 24,3133           02011                          RAND     DSALMOUT
000811: 24,3134           00006                          EXTEND
000812: 24,3135           13127                          BZF      SERVXT                                #  ENGINE-OFF, SO PRE-IGNITE OR POST-OFF
000813: 24,3136           03304                          TCR      E7SETTER
000814: 24,3137  E7,1412                                 EBANK=   TIG
000815: 24,3137           00004                          INHINT
000816: 24,3140           00006                          EXTEND
000817: 24,3141           31413                          DCA      TIG
000818: 24,3142           52155                          DXCH     MPAC
000819: 24,3143           00006                          EXTEND
000820: 24,3144           40025                          DCS      TIME2
000821: 24,3145           20155                          DAS      MPAC
000822: 24,3146           07224                          TCR      DPAGREE
000823: 24,3147           30155                          CAE      MPAC       +1                         #  (LESS THAN 6 (OR 4) SECONDS TO GO)
000824: 24,3150           10000                          CCS      A                                     #  PROTECT AGAINST NEG/ZRO W.L. CALL
000825: 24,3151           13154                          TCF      +3
000826: 24,3152           13154                          TCF      +2
000827: 24,3153           34714                          CAF      ZERO
000828: 24,3154           64712                          AD       ONE
000829: 24,3155           56001                          XCH      L
000830: 24,3156           34714                          CA       ZERO
000831: 24,3157           53430                          DXCH     TGO
000832: 24,3160           31430                          CA       TGO        +1
000833: 24,3161           05140                          TC       WAITLIST
000834: 24,3162  E7,1427                                 EBANK=   TGO
000835: 24,3162           02706 50067                    2CADR    ENGINOFF
000836:
000837: 24,3164           05261                          TC       2PHSCHNG
000838: 24,3165           40153                          OCT      40153                                 #  A, 3.15 = ENGINOFF (TGO+1) .... NOTE GROUP
000839: 24,3166           10035                          OCT      10035                                 #  B, 5.3 = REREADAC, AND START BELOW
000840: 24,3167           05447                          TC       DOWNFLAG                              #  CLEAR IMPULSW, ENGINOFF IS NOW SET UP
000841: 24,3170           00044                          ADRES    IMPULSW                               #  RESTARTS OK
000842:                                                                                                 #  Page 662
000843: 24,3171           13127                          TCF      SERVXT
000844:
000845:                                                                                                 #  Page 663
000846:                                                                                                 #  ROUTINE ** CLOKTASK ** DESCRIPTION
000847:
000848: 24,3172  E7,1412                                 EBANK=   TIG
000849: 24,3172           34700        CLOKTASK          CAF      BIT11                                 #  IS TIMRFLAG SET
000850: 24,3173           70103                          MASK     FLAGWRD7
000851: 24,3174           10000                          CCS      A
000852: 24,3175           13201                          TCF      CLOCKON
000853: 24,3176           05301                          TC       PHASCHNG
000854: 24,3177           00006                          OCT      00006                                 #  KILL RESTART
000855: 24,3200           05213                          TC       TASKOVER
000856:
000857: 24,3201           00006        CLOCKON           EXTEND
000858: 24,3202           30025                          DCA      TIME2
000859: 24,3203           53661                          DXCH     TTOGO
000860: 24,3204           00006                          EXTEND
000861: 24,3205           41413                          DCS      TIG
000862: 24,3206           21661                          DAS      TTOGO
000863:
000864: 24,3207           34734        SETCLOCK          CAF      1SEC
000865: 24,3210           05140                          TC       WAITLIST
000866: 24,3211  E7,1412                                 EBANK=   TIG
000867: 24,3211           03172 50067                    2CADR    CLOKTASK
000868:
000869: 24,3213           11145                          CCS      NVWORD1
000870: 24,3214           13217                          TCF      +3
000871: 24,3215           13227                          TCF      SETTB6
000872:
000873: 24,3216           13217                          TCF      +1
000874: 24,3217           42347                          CS       V06N85B                               #  CHECK FOR V06N85B (P41)
000875: 24,3220           61145                          AD       NVWORD1
000876: 24,3221           00006                          EXTEND
000877: 24,3222           13232                          BZF      SETUPDYN                              #  V06N85, SO UPDATE N85 FOR DYNAMIC DISP
000878:
000879: 24,3223           37664                          CAF      PRIO27
000880: 24,3224           05027                          TC       NOVAC
000881: 24,3225  E6,1466                                 EBANK=   DAPDATR1
000882: 24,3225           03244 50066                    2CADR    CLOCKJOB
000883:
000884: 24,3227           40025        SETTB6            CS       TIME1                                 #  SET GROUP6 TIMEBASE
000885: 24,3230           55065                          TS       TBASE6
000886: 24,3231           15213                          TCF      TASKOVER
000887:
000888: 24,3232           37664        SETUPDYN          CAF      PRIO27                                #  SET UP A JOB TO UPDATE N85 (FOR P41=V06)
000889: 24,3233           05042                          TC       FINDVAC
000890: 24,3234  E6,1466                                 EBANK=   DAPDATR1
000891: 24,3234           03237 50066                    2CADR    DYNDISP
000892:
000893: 24,3236           13227                          TCF      SETTB6                                #  CLOSE OUT CLOCKTASK
000894:                                                                                                 #  Page 664
000895: 24,3237           06006        DYNDISP           TC       INTPRET                               #  UPDATE N85 FOR A DYNAMIC V06N85 IN P41.
000896: 24,3240           77624                          CALL                                           #         PRIOR TO BLANKING AND AVEG (V16N85)
000897: 24,3241           50314                                   P40CNV85
000898: 24,3242           77776                          EXIT
000899: 24,3243           13254                          TCF      CKNVWRD1
000900:
000901:                                                                                                 #  Page 665
000902:                                                                                                 #  ROUTINE ** CLOCKJOB ** DESCRIPTION
000903:
000904: 24,3244  E6,1466                                 EBANK=   DAPDATR1
000905: 24,3244           30032        CLOCKJOB          CA       CDUX
000906: 24,3245           54772                          TS       CDUSPOTX
000907: 24,3246           30033                          CA       CDUY
000908: 24,3247           54766                          TS       CDUSPOTY
000909: 24,3250           30034                          CA       CDUZ
000910: 24,3251           54770                          TS       CDUSPOTZ
000911: 24,3252           04555                          TC       BANKCALL
000912: 24,3253           47510                          CADR     QUICTRIG
000913: 24,3254           00004        CKNVWRD1          INHINT
000914: 24,3255           11145                          CCS      NVWORD1                               #  DETERMINE FUNCTION, INDICATED BY NVWORD1
000915: 24,3256           13301                          TCF      NOFLASH
000916: 24,3257           15112                          TCF      ENDOFJOB
000917: 24,3260           13270                          TCF      ENGREQST                              #  SPS ENGINE-ON-ENABLE V99 FLASH
000918: 24,3261           32351        FAILDSP           CAF      V06N40                                #  SPS ENGINE-FAILED V97 FLASH
000919: 24,3262           04555                          TC       BANKCALL
000920: 24,3263           20763                          CADR     GOFLASHR                              #  LINUS MAKES IT A REDO, INHINT OK
000921: 24,3264           13350                          TCF      V97T                                  #  TERMINATE
000922: 24,3265           13403                          TCF      V97P                                  #  PROCEED
000923: 24,3266           13432                          TCF      V97E                                  #  ENTER
000924: 24,3267           13276                          TCF      PASTERET
000925:
000926: 24,3270           32351        ENGREQST          CAF      V06N40
000927: 24,3271           04555                          TC       BANKCALL
000928: 24,3272           20763                          CADR     GOFLASHR                              #  LINUS MAKES IT A REDO, INHINT OK
000929: 24,3273           13320                          TCF      V99T                                  #  TERMINATE
000930: 24,3274           13326                          TCF      V99P                                  #  PROCEED
000931: 24,3275           13312                          TCF      V99E                                  #  ENTER
000932:
000933: 24,3276           32352        PASTERET          CAF      P40OK99                               #  IMMED RETURN -- SET UP V99 OR V97
000934: 24,3277           05415                          TCR      LINUS
000935: 24,3300           15112                          TCF      ENDOFJOB
000936: 24,3301           31145        NOFLASH           CAE      NVWORD1                               #  DISPLAY NVWORD1 NORMALLY
000937: 24,3302           04555                          TC       BANKCALL
000938: 24,3303           20616                          CADR     REGODSP
000939: 24,3304           34753        E7SETTER          CAF      EBANK7
000940: 24,3305           54003                          TS       EBANK
000941: 24,3306  E7,1412                                 EBANK=   TIG
000942: 24,3306           00002                          TC       Q
000943:
000944: 24,3307           34752        E6SETTER          CAF      EBANK6                                #  SET UP EBANK6
000945: 24,3310           54003                          TS       EBANK
000946: 24,3311  E6,1466                                 EBANK=   DAPDATR1
000947:                                                                                                 #  Page 666
000948: 24,3311           00002                          TC       Q
000949:
000950: 24,3312  E6,1466                                 EBANK=   DAPDATR1
000951: 24,3312           05261        V99E              TC       2PHSCHNG
000952: 24,3313           00006                          OCT      00006                                 #  KILL PRE40.6/CLOKTASK PROTECTION
000953: 24,3314           05024                          OCT      05024                                 #  C, PRIORITY NEXT, JOB BELOW
000954: 24,3315           27000                          OCT      27000
000955: 24,3316           03002        V99EJOB           TCR      TVCZAP     -1                         #  WIPE OUT TVC, CLOKTASK
000956: 24,3317           12163                          TCF      P40RCS                                #  V16N85 POST-BURN OPERATIONS
000957:
000958: 24,3320  E6,1466                                 EBANK=   DAPDATR1
000959: 24,3320           05261        V99T              TC       2PHSCHNG                              #  (ENTRY FROM V97T FLOW TOO)
000960: 24,3321           00006                          OCT      00006                                 #  KILL PRE40.6/CLOKTASK PROTECTION
000961: 24,3322           05024                          OCT      05024                                 #  C, PRIORITY NEXT, JOB BELOW
000962: 24,3323           27000                          OCT      27000
000963: 24,3324           03002        V99TJOB           TCR      TVCZAP     -1                         #  WIPE OUT TVC, CLOKTASK
000964: 24,3325           12204                          TCF      POST41                                #  AVEGEXIT, SETMAXDB, GOTOP00H
000965: 24,3326           00004        V99P              INHINT
000966: 24,3327           30103                          CAE      FLAGWRD7                              #  CHECK ASTN FLAG FOR PRIOR V99P
000967: 24,3330           74677                          MASK     BIT12
000968: 24,3331           10000                          CCS      A
000969: 24,3332           13345                          TCF      V99P/TIG                              #  YES, THIS MUST BE A RESTART ENTRY
000970:
000971: 24,3333           34677        ASTNV99P          CAF      BIT12                                 #  SET ASTN FLAG
000972: 24,3334           26103                          ADS      FLAGWRD7
000973: 24,3335           30103                          CAE      FLAGWRD7                              #  CHECK IGN FLAG FOR TIG-0 ARRIVAL
000974: 24,3336           74676                          MASK     BIT13
000975: 24,3337           00006                          EXTEND
000976: 24,3340           13345                          BZF      V99P/TIG                              #  NO, CLEAR THE V99 AND WAIT FOR TIG-0
000977:
000978: 24,3341           34712        ENDV99PI          CAF      BIT1                                  #  TIG-0 HAS COME ALREADY
000979: 24,3342           05140                          TC       WAITLIST                              #  SET UP IGNITION HERE
000980: 24,3343  E6,1466                                 EBANK=   DAPDATR1
000981: 24,3343           02552 50066                    2CADR    IGNITION
000982:
000983: 24,3345           32351        V99P/TIG          CAF      V06N40                                #  CLEAR THE V99 FLASH AND WAIT FOR TIG-0
000984: 24,3346           55145                          TS       NVWORD1
000985: 24,3347           15112        ENDV99P           TCF      ENDOFJOB
000986:
000987: 24,3350  E6,1474                                 EBANK=   CSMMASS
000988: 24,3350           05261        V97T              TC       2PHSCHNG
000989: 24,3351           00006                          OCT      00006                                 #  KILL GROUP 6 (CLOKTASK)
000990: 24,3352           40674                          OCT      40674                                 #  A, 4.67 = V97TTASK (-0 CS), TBASE NOW
000991: 24,3353           34712                          CAF      BIT1
000992: 24,3354           05130                          TC       TWIDDLE
000993: 24,3355           03357                          ADRES    V97TTASK                              #  KEEP EBANK6 FOR MASSES, SPSOFF, ETC.
000994: 24,3356           15112                          TCF      ENDOFJOB
000995:
000996:                                                                                                 #  Page 667
000997: 24,3357  E6,1474                                 EBANK=   CSMMASS
000998: 24,3357           34714        V97TTASK          CAF      ZERO                                  #  DISABLE CLOCKJOB
000999: 24,3360           55145                          TS       NVWORD1
001000: 24,3361           32361                          CAF      3MDOT                                 #  3 SECONDS OF MDOT (2-4 SEC ENGFAIL
001001: 24,3362           61474                          AD       CSMMASS                               #         DETECTION) NOT LOST BECAUSE THRUST
001002: 24,3363           55662                          TS       MASSTMP                               #         FAILED.  COPYCYCLE FOR MASSBACK
001003: 24,3364           05301                          TC       PHASCHNG
001004: 24,3365           05014                          OCT      05014                                 #  C, DELTAT NEXT, TASK BELOW, IN
001005: 24,3366           77777                          DEC      -0         B-14                       #  -0 CS
001006:
001007: 24,3367           02737                          TCR      SPSOFF                                #  SHUTDOWN SPS ENGINE, MASS UPDATE, ETC.
001008: 24,3370           05301                          TC       PHASCHNG
001009: 24,3371           00714                          OCT      00714                                 #  A, 4.71 = V97TRCS (250 CS), TBASE OLD
001010: 24,3372           05156                          TC       FIXDELAY                              #  DELAY 2.5 SECONDS FOR (POSSIBLE) TAIL-
001011: 24,3373           00372                          DEC      250        B-14                       #         OFF (FALSE THRUST-LOSS)
001012:
001013: 24,3374  E6,1466                                 EBANK=   DAPDATR1
001014: 24,3374           04633        V97TRCS           TC       IBNKCALL                              #  RCS DAP IN 0.6SEC, SETTING T5 BITS TO
001015: 24,3375           42010                          CADR     RCSDAPON                              #         KILL TVCEXEC/TVCROLLDAP STARTS
001016: 24,3376           37664                          CAF      PRIO27                                #  SET UP V99T FOR TVCZAP AND POST41 (SET-
001017: 24,3377           05027                          TC       NOVAC                                 #         MAXDB AND GOTOP00H)
001018: 24,3400  E6,1466                                 EBANK=   DAPDATR1                              #  EBANK6 FOR SETMAXDB IN POST41
001019: 24,3400           03320 50066                    2CADR    V99T
001020:
001021: 24,3402           15213        ENDV97T           TCF      TASKOVER
001022: 24,3403  E6,1444                                 EBANK=   V97VCNTR
001023: 24,3403           05301        V97P              TC       PHASCHNG
001024: 24,3404           40734                          OCT      40734                                 #  A, 4.73 = V97PTASK (-0 CS), TBASE NOW
001025: 24,3405           34712                          CAF      BIT1
001026: 24,3406           05130                          TC       TWIDDLE
001027: 24,3407           03411                          ADRES    V97PTASK
001028: 24,3410           15112                          TCF      ENDOFJOB
001029:
001030: 24,3411  E6,1444                                 EBANK=   V97VCNTR
001031: 24,3411           31444        V97PTASK          CAE      V97VCNTR                              #  GET MASS UPDATES (TVCEXEC) GOING AGAIN
001032: 24,3412           55653                          TS       VCNTR                                 #         (ERRORS IF FLASE THRUST-LOSS AND/OR
001033:                                                                                                 #         POOR SYNC OF MANUAL ENGINE-ON AND
001034:                                                                                                 #         THE VERB 97 PROCEED)
001035: 24,3413           32351                          CAF      V06N40                                #  REDISPLAY V06N40
001036: 24,3414           55145                          TS       NVWORD1
001037: 24,3415           05435                          TC       UPFLAG                                #  SET IDLEFAIL TO ALLOW R41-BYPASS, IN
001038: 24,3416           00030                          ADRES    IDLEFAIL                              #         CASE OF UNFAVORABLE S40.8 SYNCH
001039: 24,3417           05435                          TC       UPFLAG                                #  SET STEERSW TO RE-ENABLE STEERING
001040: 24,3420           00042                          ADRES    STEERSW
001041: 24,3421           05301                          TC       PHASCHNG
001042: 24,3422           00134                          OCT      00134                                 #  A, 4.13 = R40ENABL (200 CS), TBASE OLD
001043: 24,3423           05156                          TC       FIXDELAY                              #  WAIT 2 SECONDS, THEN
001044: 24,3424           00310                          DEC      200        B-14
001045:                                                                                                 #  Page 668
001046: 24,3425  E7,1777                                 EBANK=   WHOCARES
001047: 24,3425           05447        R40ENABL          TC       DOWNFLAG                              #  RE-ENABLE R40 BY CLEARING IDLEFAIL
001048: 24,3426           00030                          ADRES    IDLEFAIL
001049: 24,3427           05301                          TC       PHASCHNG
001050: 24,3430           00004                          OCT      00004                                 #  KILL GROUP 4
001051: 24,3431           15213        ENDV97P           TCF      TASKOVER
001052: 24,3432  E7,1777                                 EBANK=   WHOCARES
001053: 24,3432           05301        V97E              TC       PHASCHNG
001054: 24,3433           40534                          OCT      40534                                 #  A, 4.53 = V97ETASK (-0 CS), TBASE NOW
001055: 24,3434           34712                          CAF      BIT1
001056: 24,3435           05140                          TC       WAITLIST
001057: 24,3436  E7,1412                                 EBANK=   TIG
001058: 24,3436           03441 50067                    2CADR    V97ETASK
001059:
001060: 24,3440           15112                          TCF      ENDOFJOB
001061:
001062: 24,3441  E7,1412                                 EBANK=   TIG
001063: 24,3441           44112        V97ETASK          CS       OCT24                                 #  FORCE R1 OF V06N40 TO READ  59X59
001064: 24,3442           55412                          TS       TIG
001065: 24,3443           32351                          CAF      V06N40                                #  REDISPLAY V06N40
001066: 24,3444           55145                          TS       NVWORD1
001067: 24,3445           03307                          TCR      E6SETTER                              #  RETURN TO EBANK6 FOR REST OF V97ETASK
001068: 24,3446  E6,1474                                 EBANK=   CSMMASS
001069: 24,3446           32361                          CAF      3MDOT                                 #  3 SECONDS OF MDOT (2-4 SEC ENGFAIL
001070: 24,3447           61474                          AD       CSMMASS                               #         DETECTION) NOT LOST BECAUSE THRUST
001071: 24,3450           55662                          TS       MASSTMP                               #         FAILD....COPYCYCLE FOR MASSBACK
001072: 24,3451           05301                          TC       PHASCHNG
001073: 24,3452           00754                          OCT      00754                                 #  A, 4.75 = SPSOFF97 (-0 CS), TBASE OLD
001074: 24,3453           02737        SPSOFF97          TCR      SPSOFF
001075: 24,3454           05301                          TC       PHASCHNG
001076: 24,3455           00114                          OCT      00114                                 #  A, 4.11 = V97E40.6 (250 CS), TBASE OLD
001077: 24,3456           05156                          TC       FIXDELAY                              #  DELAY 2.5 SECONDS FOR (POSSIBLE) TAIL-
001078: 24,3457           00372                          DEC      250        B-14                       #         OFF (FALSE THRUST-LOSS)
001079:
001080: 24,3460  E6,1466                                 EBANK=   DAPDATR1
001081: 24,3460           34712        V97E40.6          CAF      BIT1
001082: 24,3461           05140                          TC       WAITLIST
001083: 24,3462  E6,1447                                 EBANK=   CNTR
001084: 24,3462           02040 40066                    2CADR    PRE40.6                               #  USE S40.6 RESTART ENTRY TO TRIM ENGINE
001085:
001086: 24,3464           04633                          TC       IBNKCALL                              #  RCS DAP IN 0.6SEC, SETTING T5 BITS TO
001087: 24,3465           42010                          CADR     RCSDAPON                              #         KILL TVCEXEC/TVCROLLDAP STARTS.
001088:                                                                                                 #         LEAVE NARROW DEADBAND FOR REIGNITE.
001089:
001090: 24,3466           05261                          TC       2PHSCHNG
001091: 24,3467           00026                          OCT      00026                                 #  A, 6.2 = PRE40.6 (-0 CS), CLOKTASK (1 SEC)
001092: 24,3470           05014                          OCT      05014                                 #  C, DELTAT NEXT, TASK BELOW, IN
001093: 24,3471           77777                          DEC      -0         B-14                       #  -0 CS.
001094:                                                                                                 #  Page 669
001095: 24,3472           44761        QUICKIGN          CS       PRIO14                                #  CLEAR ASTNFLAG AND SET IGNFLAG FOR
001096: 24,3473           70103                          MASK     FLAGWRD7                              #         IMMEDIATE V99 RESPONSE.
001097: 24,3474           64676                          AD       BIT13
001098: 24,3475           54103                          TS       FLAGWRD7
001099: 24,3476           05156                          TC       FIXDELAY                              #  DELAY TO ALLOW TIME FOR PRE40.6
001100: 24,3477           00036                          DEC      30         B-14
001101:
001102: 24,3500           44702        V99FLASH          CS       BIT9                                  #  CAUSE V99 TO FLASH
001103: 24,3501           55145                          TS       NVWORD1
001104: 24,3502           05261                          TC       2PHSCHNG
001105: 24,3503           40774                          OCT      40774                                 #  A, 4.77 = TIG-0 (-0 CS) TBASE FOR PREPTVC
001106: 24,3504           00033                          OCT      00033                                 #  A, 3.3 = S40.13 (PRIO 20)
001107: 24,3505           34675                          CAF      PRIO20                                #  SET UP TIMEBURN
001108: 24,3506           05042                          TC       FINDVAC
001109: 24,3507  E7,1427                                 EBANK=   TGO
001110: 24,3507           02404 34067                    2CADR    S40.13
001111:
001112: 24,3511           15213        ENDV97E           TCF      TASKOVER                              #  WAIT FOR CLOCKJOB (IMMEDIATE) REACTION
001113:                                                                                                 #         TO FLASHING V99 RESPONSE.
001114:
001115:                                                                                                 #  MOD N02                                LOG SECTION P40-P47
001116:                                                                                                 #  MOD BY ZELDIN
001117:
001118:                                                                                                 #  FUNCTIONAL DESCRIPTION
001119:                                                                                                 #         COMPUTE INITIAL THRUST DIRECTION(UT) AND INITIAL VALUE OF VG
001120:                                                                                                 #         VECTOR(VGTIG).
001121:
001122:                                                                                                 #  CALLING SEQUENCE
001123:                                                                                                 #         L       CALL
001124:                                                                                                 #         L+1             S40.1
001125:
001126:                                                                                                 #  NORMAL EXIT MODE
001127:                                                                                                 #         AT L+2 OF CALLING SEQUENCE (GOTO L+2) NORMAL RETURN OR
001128:                                                                                                 #         ERROR RETURN IF NOSOFLAG =1
001129:
001130:                                                                                                 #  SUBROUTINES CALLED
001131:                                                                                                 #         CSMPREC
001132:                                                                                                 #         INITVEL
001133:                                                                                                 #         CALCGRAV
001134:                                                                                                 #         MIDGIM
001135:
001136:                                                                                                 #  ALARM OR ABORT EXIT MODES
001137:                                                                                                 #         L+2 OF CALLING SEQUENCE, UNSOLVABLE CONIC IF NOSOFLAG=1
001138:
001139:                                                                                                 #  ERASABLE INITIALIZATION REQUIRED
001140:                                                                                                 #         WEIGHT/G        ANTICIPATED VEHICLE MASS        SP B16 KGM
001141:                                                                                                 #         XDELVFLG        1=DELTA-V MANEUVER, 0=AIMPT STEER
001142:                                                                                                 #    IF DELTA-V MANEUVER:
001143:                                                                                                 #         DELVSIN         SPECIFIED DELTA-V REQUIRED IN
001144:                                                                                                 #                         INERTIAL COORDS. OF ACTIVE VEHICLE
001145:                                                                                                 #                         AT TIME OF IGNITION             VECTOR B7 M/CS
001146:                                                                                                 #         DELVSAB         MAG. OF DELVSIN                 DP B7 M/CS
001147:                                                                                                 #         RTIG            POSITION AT TIME OF IGNITION    VECTOR B29 M
001148:                                                                                                 #         VTIG            VELOCITY AT TIME OF IGNITION    VECTOR B7 M/CS.
001149:                                                                                                 #         CSTEER = 0                                      DP
001150:                                                                                                 #  Page 670
001151:                                                                                                 #    IF AIMPOINT STEERING:
001152:                                                                                                 #         TIG             TIME OF IGNITION                DP B28 CS
001153:                                                                                                 #         RTARG           POSITION TARGET TIME            VECTOR B29 M
001154:                                                                                                 #         CSTEER = ECSTEER (GR 0)                         DP B1
001155:                                                                                                 #         TPASS4 -- TIME OF ARRIVAL AT AIMPOINT
001156:
001157:                                                                                                 #  OUTPUT
001158:                                                                                                 #         UT              1/2 UNIT VECTOR ALIGNED WITH THRUST DIRETION IN REF COOR
001159:                                                                                                 #         VGTIG           INITIAL VALUE OF VELOCITY
001160:                                                                                                 #                         TO BE GAINED (INERT. COORD.)            VECTOR B7 M/CS
001161:                                                                                                 #         DELVLVC         VGTIG IN LOC. VERT. COORDS.             B7 M/CS
001162:                                                                                                 #         F               NOMINAL THRUST FOR ENG USED FOR S40.13  DP B7 M-NEWT
001163:                                                                                                 #         BDT             V REQUIRED AT TIG -V REQUIRED AT (TIG-2SEC)
001164:                                                                                                 #         -GDT            FOR S40.13                              VECT B7 M/CS
001165:                                                                                                 #         RTIG            CALC IN S40.1B (AIMPT) FOR S40.2,3      VECTOR B29M
001166:                                                                                                 #                         POSITION AT TIME OF IGNITION
001167:
001168:                                                                                                 #  DEBRIS QTEMP1
001169:                                                                                                 #                 MPAC, QPRET
001170:                                                                                                 #                 PUSHLIST
001171:                                                                                                 #                 RTX2,RTX1
001172:
001173: 14,2002                                          BANK     14
001174: 16,2000                                          SETLOC   P40S1
001175: 16,2000                                          BANK
001176:
001177: 16,2000                                          COUNT    16/S40.1
001178:
001179: 16,2000           77214        S40.1             SET      VLOAD
001180: 16,2001           01070                                   FIRSTFLG
001181: 16,2002           11456                                   LO6ZEROS
001182: 16,2003           03705                          STORE    BDT
001183: 16,2004           43020                          STQ      BOF
001184: 16,2005           03657                                   QTEMP
001185: 16,2006           01347                                   XDELVFLG
001186: 16,2007           34073                                   S40.1B                                #  LAMBERT
001187: 16,2010           77201                          SETPD    VLOAD                                 #  EXTERNAL DELTA V
001188: 16,2011           00001                                   0
001189: 16,2012           03640                                   VTIG
001190: 16,2013           03576                          STORE    VINIT
001191: 16,2014           53435                          VXV      UNIT
001192: 16,2015           03632                                   RTIG
001193: 16,2016           27713                          STOVL    UT                                    #  UP IN UT
001194: 16,2017           03632                                   RTIG
001195: 16,2020           03570                          STORE    RINIT
001196: 16,2021           65236                          VSQ      PDDL
001197: 16,2022           00045                                   36D
001198: 16,2023           56205                          DMP      DDV
001199: 16,2024           34127                                   THETACON
001200: 16,2025           41205                          DMP      DMP
001201: 16,2026           03654                                   DELVSAB
001202: 16,2027           03076                                   WEIGHT/G
001203:                                                                                                 #  Page 671
001204: 16,2030           77671                          DDV
001205: 16,2031           03727                                   F
001206: 16,2032           24017                          STOVL    14D
001207: 16,2033           03646                                   DELVSIN
001208:
001209: 16,2034           74241                          DOT      VXSC
001210: 16,2035           03713                                   UT
001211: 16,2036           03713                                   UT
001212: 16,2037           41552                          VSL2     PUSH                                  #  (DELTAV.UP)UP SCALED AT 2(+7) P.D.L. 0
001213: 16,2040           65245                          BVSU     PDDL                                  #  DELTA VP SCALED AT 2(+7) P.D.L. 6
001214: 16,2041           03646                                   DELVSIN
001215: 16,2042           00017                                   14D
001216: 16,2043           63356                          SIN      PDVL
001217: 16,2044           00007                                   6D
001218: 16,2045           53435                          VXV      UNIT
001219: 16,2046           03713                                   UT
001220: 16,2047           45561                          VXSC     STADR
001221: 16,2050           50056                          STOVL    VGTIG                                 #  UNIT(VP X UP)SIN(THETAT/2) IN VGTIG.
001222: 16,2051           65256                          UNIT     PDDL                                  #  UNIT(DELTA VP) IN P.D.L. 6
001223: 16,2052           00017                                   14D
001224: 16,2053           74346                          COS      VXSC
001225: 16,2054           74255                          VAD      VXSC
001226: 16,2055           03721                                   VGTIG
001227: 16,2056           00045                                   36D
001228: 16,2057           53352                          VSL2     VAD
001229: 16,2060           77626                          STADR
001230: 16,2061           74056                          STORE    VGTIG                                 #  VG IGNITION SCALED AT 2(+7) M/CS
001231:
001232: 16,2062           77656                          UNIT
001233: 16,2063           27713                          STOVL    UT                                    #  THRUST DIRECTION SCALED AT 2(+1)
001234: 16,2064           03721                                   VGTIG
001235: 16,2065           43006                          PUSH     SET
001236: 16,2066           01072                                   AVFLAG
001237: 16,2067           77624                          CALL
001238: 16,2070           10653                                   MIDGIM                                #  VGTIG IN LV COOR AT 2(+7)M/CS IN DELVLVC
001239: 16,2071           77650                          GOTO
001240: 16,2072           03657                                   QTEMP
001241: 16,2073           45345        S40.1B            DLOAD    DSU                                   #  LAMBERT
001242: 16,2074           03413                                   TIG
001243:                                                                                                 #  The 1701.pdf scan here is actually missing chunks of code.
001244:                                                                                                 #  For now I've just put in the octal, but I'll replace it when
001245:                                                                                                 #  I have a better scanned page.  It's hard to decompile manually,
001246:                                                                                                 #  because it's interpretive code.---RSB 2004
001247: 16,2075           36001                          OCT      36001
001248: 16,2076           14041                          OCT      14041
001249: 16,2077           03656                          OCT      03656
001250: 16,2100           77625                          OCT      77625                                 #  DSU
001251: 16,2101           00041                          OCT      00041
001252: 16,2102           37423                          OCT      37423
001253: 16,2103           61663                          OCT      61663                                 #         AGAIN
001254:                                                                                                 #  End of hopelessly garbled area.
001255: 16,2104           77775                          VLOAD
001256: 16,2105           03612                                   VIPRIME
001257: 16,2106           17713                          STODL    UT
001258: 16,2107           03413                                   TIG
001259:                                                                                                 #  Page 672
001260: 16,2110           00041                          STORE    TDEC1
001261: 16,2111           77621                          BDSU
001262: 16,2112           03656                                   TPASS4
001263: 16,2113           37423                          STCALL   DELLT4
001264: 16,2114           61663                                   AGAIN
001265: 16,2115           41575                          VLOAD    PUSH
001266: 16,2116           03646                                   DELVEET3
001267: 16,2117           03721                          STORE    VGTIG
001268: 16,2120           45014                          SET      CALL
001269: 16,2121           01072                                   AVFLAG
001270: 16,2122           10653                                   MIDGIM
001271: 16,2123           52001                          SETPD    GOTO
001272: 16,2124           00001                                   0
001273: 16,2125           61716                                   CALCUT
001274:
001275: 16,2126           00024 13714  THETACON          2DEC     .31830989  B-8
001276:
001277: 30,2000                                          SETLOC   P40S3
001278: 30,2000                                          BANK
001279: 30,3657                                          COUNT    24/S40.1
001280:
001281: 30,3657           04000 00000  EP4(45)H          2DEC     .125
001282: 30,3661           00707 03434  EP4(10)H          2DEC     .027777777
001283:
001284: 30,3663           45020        AGAIN             STQ      CALL
001285: 30,3664           03730                                   QTEMP1
001286: 30,3665           27022                                   THISPREC
001287: 30,3666           66134                          SXA,2    SXA,1
001288: 30,3667           03746                                   RTX2
001289: 30,3670           03745                                   RTX1
001290: 30,3671           77775                          VLOAD
001291: 30,3672           00001                                   RATT
001292: 30,3673           03632                          STORE    RTIG
001293: 30,3674           27570                          STOVL    RINIT
001294: 30,3675           00007                                   VATT
001295: 30,3676           03640                          STORE    VTIG
001296: 30,3677           03576                          STORE    VINIT
001297: 30,3700           67201                          SETPD    SLOAD
001298: 30,3701           00001                                   0
001299: 30,3702           15332                                   HI6ZEROS
001300: 30,3703           43125                          PDDL     BON
001301: 30,3704           21660                                   EP4(45)H
001302: 30,3705           03705                                   NORMSW
001303: 30,3706           61711                                   +3
001304: 30,3707           77745                          DLOAD
001305: 30,3710           21662                                   EP4(10)H
001306: 30,3711           45006                          PUSH     CALL
001307: 30,3712           22000                                   INITVEL
001308:                                                                                                 #  Page 673
001309: 30,3713           52001                          SETPD    GOTO
001310: 30,3714           00001                                   0
001311: 30,3715           03730                                   QTEMP1
001312: 30,3716           45175        CALCUT            VLOAD    CALL
001313: 30,3717           03632                                   RTIG
001314: 30,3720           77256                                   CALCGRAV                              #  GDELTAT IN MPAC AT 2(+7) M/CS
001315: 30,3721           70372                          VSL1     V/SC
001316: 30,3722           21761                                   200CS                                 #  G AT 2(-5) M/CS. CS
001317: 30,3723           52315                          PDVL     VSU
001318: 30,3724           03612                                   VIPRIME
001319: 30,3725           03713                                   UT
001320: 30,3726           52341                          V/SC     VSU
001321: 30,3727           21761                                   200CS
001322: 30,3730           72561                          VXSC     VSL2
001323: 30,3731           03703                                   CSTEER
001324: 30,3732           24015                          STOVL    12D                                   #  B.C SCALED AT 2(-15) PDL 12D
001325: 30,3733           03721                                   VGTIG
001326: 30,3734           41456                          UNIT     PUSH                                  #  UG PDL 0 SCALED AT 2(+1)
001327:
001328: 30,3735           74241                          DOT      VXSC
001329: 30,3736           00015                                   12D
001330: 30,3737           00001                                   0
001331: 30,3740           51352                          VSL2     BVSU
001332: 30,3741           00015                                   12D
001333: 30,3742           14015                          STODL    12D                                   #  Q PDL SCALED AT 2(-5)
001334: 30,3743           03727                                   F
001335: 30,3744           56261                          SRR      DDV
001336: 30,3745           21605                                   4
001337: 30,3746           03076                                   WEIGHT/G
001338: 30,3747           63316                          DSQ      PDVL                                  #  F/MASS SQUARED PDL 6 AT 2(-10M/(CS.CS)
001339: 30,3750           00015                                   12D
001340: 30,3751           77636                          VSQ
001341: 30,3752           75421                          BDSU     SQRT
001342: 30,3753           76561                          VXSC     VSL1
001343: 30,3754           53455                          VAD      UNIT
001344: 30,3755           00015                                   12D
001345: 30,3756           37713                          STCALL   UT
001346: 30,3757           03657                                   QTEMP
001347: 30,3760           01440 00000  200CS             2DEC     200        B-12
001348:
001349:                                                                                                 #  Page 674
001350:                                                                                                 #  PROGRAM DESCRIPTION S40.2,3            DATE 15 NOV 66
001351:                                                                                                 #  MOD NO 2                               LOG SECTIONS P40-P47
001352:                                                                                                 #  MOD BY ZELDIN
001353:
001354:                                                                                                 #  FUNCTIONAL DESCRIPTION
001355:                                                                                                 #
001356:                                                                                                 #         COMPUTE GIMBAL ANGLES IF THRUSTING OCCURRED WITH PRESENT IMU
001357:                                                                                                 #         ORIENTATION, WINGS LEVEL SPACECRAFT, HEADS UP
001358:
001359:                                                                                                 #         COMPUTE X AXIS OF ENGINE BELL
001360:
001361:                                                                                                 #         COMPUTE PREFERRED IMU ORIENTATION (XSCREF)
001362:                                                                                                 #         FOR THIS CALCULATION, ASSUME X AXIS OF SC ALONG UT INITIALLY,
001363:                                                                                                 #         YSC=UNIT(XXR), ZSC=UNIT(XX(XXR)) AND ROTATE ENGINE BELL ALONG UT.
001364:                                                                                                 #         NEW SC AXES WILL BE APPROX. WINGS LEVEL AND NEW SC AXES IN REF.
001365:                                                                                                 #         COORDS. WILL BE PREFERRED IMU ORIENTATION.
001366:
001367:                                                                                                 #         COMPUTE DESIRED THRUST DIRECTION IN SM COORDS.
001368:
001369:                                                                                                 #  CALLING SEQUENCE
001370:                                                                                                 #         L       CALL
001371:                                                                                                 #         L+1             S40.2,3
001372:
001373:                                                                                                 #  NORMAL EXIT MODE
001374:                                                                                                 #         AT L+2 OF CALLING SEQUENCE (GOTO L+2)
001375:
001376:                                                                                                 #  SUBROUTINES CALLED
001377:                                                                                                 #         CALCGA
001378:
001379:                                                                                                 #  ALARM OR ABORT MODES
001380:                                                                                                 #         NONE
001381:
001382:                                                                                                 #  ERASABLE INITIALIZATION REQUIRED
001383:                                                                                                 #         PACTOFF         TOTAL PITCH TRIM ANGLE          SP AT 1.0795111 REV.
001384:                                                                                                 #         YACTOFF         TOTAL YAW   TRIM ANGLE          SP AT 1.0795111 REV.
001385:                                                                                                 #         UT              DESIRED THRUST DIRECTION        VECT. B2 M/(CS.CS)
001386:                                                                                                 #         RTIG            POSITION AT TIME OF IGNITION    VECT. B29 M
001387:                                                                                                 #         ENG2FLAG        ON=RCS  OFF=SPS
001388:
001389:                                                                                                 #  OUTPUT
001390:                                                                                                 #         SCAXIS          UNIT VECT. ALIGNED WITH ENG BELL IN SC COOR.    B1
001391:                                                                                                 #         XSCREF          UNIT VECTORS ALIGNED WTH PREFERRED IMU          B1
001392:                                                                                                 #         YSCREF
001393:                                                                                                 #         ZSCREF
001394:                                                                                                 #         GIMBAL ANGLES IN THETAD
001395:                                                                                                 #         POINTVSM        UNIT VECT ALONG DESIRED THRUST DIRECTION IN SM  B1
001396:
001397:                                                                                                 #  DEBRIS
001398:                                                                                                 #         PUSHLIST, QPRET, MPAC
001399:                                                                                                 #         QTEMP   TEMP. ERASABLE
001400:
001401: 24,3512                                          BANK     24
001402: 24,2000                                          SETLOC   P40S
001403: 24,2000                                          BANK
001404: 24,3512                                          COUNT*   $$/S40.2
001405:
001406: 24,3512           64375        S40.2,3           VLOAD    MXV
001407: 24,3513           03713                                   UT
001408: 24,3514           01736                                   REFSMMAT
001409: 24,3515           44172                          VSL1     STQ
001410: 24,3516           03657                                   QTEMP
001411: 24,3517           03357                          STORE    POINTVSM                              #  THRUST IN SM AT 2
001412: 24,3520           43001                          SETPD    BON
001413: 24,3521           00001                                   0
001414:                                                                                                 #  Page 675
001415: 24,3522           00704                                   ENG2FLAG
001416: 24,3523           51633                                   S40.2,3B
001417: 24,3524           77745                          DLOAD
001418: 24,3525           15332                                   HI6ZEROS
001419: 24,3526           67206                          PUSH     SLOAD                                 #  ZERO PDL 0
001420: 24,3527           03027                                   YACTOFF
001421: 24,3530           72405                          DMP      SL1
001422: 24,3531           11672                                   TRIMSCAL
001423: 24,3532           41415                          DAD      PUSH
001424: 24,3533           11674                                   YBIAS
001425: 24,3534           65346                          COS      PDDL                                  #  COS(Y +Y0) PDL 2
001426: 24,3535           41556                          SIN      PUSH                                  #  CIN(Y +Y0) PDL 4
001427: 24,3536           77735                          SLOAD
001428: 24,3537           03026                                   PACTOFF
001429: 24,3540           72405                          DMP      SL1
001430: 24,3541           11672                                   TRIMSCAL
001431: 24,3542           41415                          DAD      PUSH
001432: 24,3543           11676                                   PBIAS
001433: 24,3544           65346                          COS      PDDL                                  #  COS(P +P0) PDL 6
001434: 24,3545           41556                          SIN      PUSH                                  #  SIN(P +P0) PDL 8D
001435: 24,3546           14323                          STODL    ZSCREF                                #  SIN(P +P0)
001436: 24,3547           00007                                   6
001437: 24,3550           72405                          DMP      SL1
001438: 24,3551           00005                                   4
001439: 24,3552           65276                          DCOMP    PDDL                                  #  -SIN(Y+Y0)COS(P+P0) PDL 10
001440: 24,3553           00007                                   6
001441: 24,3554           72405                          DMP      SL1
001442: 24,3555           00003                                   2
001443: 24,3556           77666                          VDEF
001444:
001445: 24,3557           14307                          STODL    XSCREF                                #  PD POINTER AT 6 NEW SC X AXIS SCALED AT
001446: 24,3560           00323                                   ZSCREF
001447: 24,3561           72405                          DMP      SL1
001448: 24,3562           00005                                   4
001449: 24,3563           41325                          PDDL     DMP
001450: 24,3564           00323                                   ZSCREF
001451: 24,3565           00003                                   2
001452: 24,3566           57552                          SL1      DCOMP
001453: 24,3567           77666                          VDEF
001454:
001455: 24,3570           14323                          STODL    ZSCREF                                #  PD POINTER AT 4 NEW SC Z AXIS SCALED AT 2
001456: 24,3571           77666                          VDEF
001457:
001458: 24,3572           14315                          STODL    YSCREF                                #  PD POINTER AT 0 NEW SC Y AXIS SCALED AT 2
001459: 24,3573           00323                                   ZSCREF
001460: 24,3574           65325                          PDDL     PDDL
001461: 24,3575           00315                                   YSCREF
001462: 24,3576           00307                                   XSCREF
001463: 24,3577           77666                          VDEF
001464:                                                                                                 #  Page 676
001465: 24,3600           27351                          STOVL    SCAXIS                                #  ENGINE BELL SCALED AT 2
001466: 24,3601           03713                                   UT
001467: 24,3602           53515                          PDVL     UNIT
001468: 24,3603           03632                                   RTIG
001469: 24,3604           57435                          VXV      VCOMP
001470: 24,3605           00001                                   0
001471: 24,3606           41456                          UNIT     PUSH
001472: 24,3607           77624                          CALL
001473: 24,3610           51652                                   TSTRXUT
001474: 24,3611           57435                          VXV      VCOMP
001475: 24,3612           00001                                   0
001476: 24,3613           63372                          VSL1     PDVL                                  #  2 RF/SC IN PDL 12D
001477: 24,3614           00307                                   XSCREF
001478: 24,3615           76505                          VXM      VSL1
001479: 24,3616           00001                                   0
001480: 24,3617           24307                          STOVL    XSCREF                                #  X OF PREF. IMU,X OF SC IN REF COOR. AT 2
001481: 24,3620           00315                                   YSCREF
001482: 24,3621           76505                          VXM      VSL1
001483: 24,3622           00001                                   0
001484: 24,3623           24315                          STOVL    YSCREF                                #  Y OF PREF. IMU,Y OF SC IN REF COOR. AT 2
001485: 24,3624           00323                                   ZSCREF
001486: 24,3625           76505                          VXM      VSL1
001487: 24,3626           00001                                   0
001488: 24,3627           00323                          STORE    ZSCREF                                #  Z OF PREF. IMU,Z OF SC IN REF COOR. AT 2
001489: 24,3630           52001                          SETPD    GOTO
001490: 24,3631           00001                                   0
001491: 24,3632           03657                                   QTEMP
001492: 24,3633           77775        S40.2,3B          VLOAD
001493: 24,3634           15330                                   UNITX
001494: 24,3635           27351                          STOVL    SCAXIS
001495: 24,3636           03713                                   UT
001496: 24,3637           00307                          STORE    XSCREF
001497: 24,3640           53435                          VXV      UNIT
001498: 24,3641           03632                                   RTIG
001499: 24,3642           34007                          STCALL   6D
001500: 24,3643           51652                                   TSTRXUT
001501: 24,3644           00315                          STORE    YSCREF
001502: 24,3645           57435                          VXV      VCOMP
001503: 24,3646           00307                                   XSCREF
001504: 24,3647           77772                          VSL1
001505: 24,3650           34323                          STCALL   ZSCREF                                #  ZNB AXIS IN REF COOR
001506: 24,3651           03657                                   QTEMP
001507: 24,3652           46145        TSTRXUT           DLOAD    BHIZ
001508: 24,3653           00045                                   36D
001509: 24,3654           51657                                   BADVCTOR
001510: 24,3655           43575                          VLOAD    RVQ
001511: 24,3656           00007                                   6D
001512: 24,3657           53575        BADVCTOR          VLOAD    UNIT
001513: 24,3660           03632                                   RTIG
001514: 24,3661           53515                          PDVL     UNIT
001515:                                                                                                 #  Page 677
001516: 24,3662           03640                                   VTIG
001517: 24,3663           53322                          VSR3     VAD
001518: 24,3664           53435                          VXV      UNIT
001519: 24,3665           03713                                   UT
001520: 24,3666           77676                          VCOMP
001521: 24,3667           00007                          STORE    6D
001522: 24,3670           77616                          RVQ
001523: 24,3671           21215 12215  TRIMSCAL          2DEC     1.07975111 B-1
001524: 24,3673           00053 07423  YBIAS             2DEC     +.00263888889                            #  YAW    MECH BIAS (+0.95 DEG, THRUST ON)
001525: 24,3675           77636 44653  PBIAS             2DEC     -.00597222222                            #  PITCH  MECH BIAS (-2.15 DEG, THRUST ON)
001526:
001527:                                                                                                 #  REFERENCE, TRW 68.6520.3.3-40 27 FEB, 1968
001528:
001529:                                                                                                 #  PROGRAM DESCRIPTION S41.1              DATE 8 DEC 66
001530:                                                                                                 #  MOD NO 1                               LOG SECTION P40-P47
001531:                                                                                                 #  MOD BY ZELDIN
001532:
001533:                                                                                                 #  FUNCTIONAL DESCRIPTION
001534:
001535:                                                                                                 #         COMPUTE VELOCITY TO BE GAINED INITIALLY IN REF COORDS.
001536:                                                                                                 #         TO CONTROL COORDS.
001537:
001538:                                                                                                 #  CALLING SEQUENCE
001539:
001540:                                                                                                 #         L       CALL
001541:                                                                                                 #         L+1             SR1.1
001542:
001543:                                                                                                 #  NORMAL EXIT MODE
001544:                                                                                                 #
001545:                                                                                                 #         AT L +2 OF CALLING SEQUENCE
001546:
001547:                                                                                                 #  SUBROUTINES CALLED:
001548:
001549:                                                                                                 #         CALCSMSC
001550:                                                                                                 #         CDUTRIG
001551:
001552:                                                                                                 #  ALARM OR ABORT MODES
001553:
001554:                                                                                                 #         NONE
001555:
001556:                                                                                                 #  ERASABLE INITIALIZATION REQUIRED
001557:
001558:                                                                                                 #         VG IN REF. COORD. PDL L POINTER AT L+5.  S41.1 WILL RETURN WITH
001559:                                                                                                 #         POINTER AT L (L MUST BE LESS THAN OR = TO 14D)
001560:
001561:                                                                                                 #  OUTPUT
001562:
001563:                                                                                                 #         MPAC CONTAINS VG IN CONTROL COORDS              VECT. B7 M/CS
001564:
001565:                                                                                                 #  DEBRIS:
001566:
001567:                                                                                                 #         QTEMP           TEMP ERASABLE
001568:                                                                                                 #         QPRET
001569:
001570: 24,3677                                          COUNT    22/S41.1
001571:
001572: 22,2000                                          SETLOC   P40S5
001573: 22,2000                                          BANK
001574:
001575: 22,3426           45020        S41.1             STQ      CALL
001576: 22,3427           03657                                   QTEMP
001577: 22,3430           47432                                   CDUTRIG
001578: 22,3431           77775                          VLOAD
001579: 22,3432           45121                          MXV      CALL
001580: 22,3433           01736                                   REFSMMAT
001581: 22,3434           47577                                   *SMNB*
001582:                                                                                                 #  Page 678
001583: 22,3435           74321                          MXV      VXSC
001584: 22,3436           05004                                   QUADROT
001585: 22,3437           05443                                   TENBNK14                              #  VG IN CONTROL COORD IN MPAC SCALED AT
001586: 22,3440           52072                          VSL5     GOTO                                  #  VG IN CONTROL COORDS. IN MPAC AT 2(+7)
001587: 22,3441           03657                                   QTEMP
001588: 22,3442           24000 00000  TENBNK14          2DEC     10.        B-4
001589:
001590:                                                                                                 #  Page 679
001591:                                                                                                 #  NAME           S40.8 -- CROSS PRODUCT STEERING
001592:                                                                                                 #  FUNCTION       (1) UPDATES TEH VELOCITY-TO-BE-GAINED VECTOR.
001593:                                                                                                 #                 (2) GENERATES ANGULAR RATE STEERING COMMANDS FOR AUTOPILOT.
001594:                                                                                                 #                 (3) ESTABLISHES ENGINE CUT-OFF SIGNALS AT APPROPRIATE TIMES.
001595:                                                                                                 #                 (4) INITIATES THRUST-FAIL ROUTINE, R40
001596:                                                                                                 #  CALLING SEQ    CALL S40.6
001597:                                                                                                 #  INPUT          VGPREV          LAST VALUE OF THE VELOCITY-TO-BE-GAINED VECTOR
001598:                                                                                                 #                                 PRIOR TO UPDATING IN METERS/CS AT +7.
001599:                                                                                                 #                 DELVREF         CHANGE IN VEHICLE VELOCITY SINCE LAST MEASUREMENT
001600:                                                                                                 #                                 IN METERS/CS AT +7.
001601:                                                                                                 #                 BDT             EFFECT OF RATE OF CHANGE OF REQURIRED VELOCITY AND
001602:                                                                                                 #                                 GRAVITY DURING DT UPON VELOCITY-TO-BE-GAINED IN
001603:                                                                                                 #                                 METERS/CS AT +7.
001604:                                                                                                 #                 CSTEER          A SCALAR OF THE STEERING LAW, SC.AT B+1, USED FOR
001605:                                                                                                 #                                 SPS AIMPOINT STEERING MANEUVERS.
001606:                                                                                                 #                 IDLEFAIL        A FLAG TO INHIBIT (IDLE) THE THRUST-FAIL ROUTINE.
001607:                                                                                                 #                 STEERSW         A SWITCH TO PRECLUDE NEEDLESS CONDUCT OF STEERING.
001608:                                                                                                 #                 REFSMMAT, DAPDATR1, PIPTIME
001609:                                                                                                 #                 EREPFRAC, ETDECAY, KPRIMEDT FOR TVC.
001610:                                                                                                 #  OUTPUT TTOGO           TIME REMAINING FOR ENGINE BURN IN CS AT +28.
001611:                                                                                                 #                 OMEGAC          DP VECTOR RATE COMMAND, SC.AT 1/(2TVCDT) REVS/SEC.
001612:                                                                                                 #                 VG, VGPREV, VGDISP, TGO, TIG, SCALED AS NOTED IN CODING
001613:                                                                                                 #                 STEERSW, IMPULSW, NVWORD1
001614:                                                                                                 #                 REPFRAC, CNTR, VCNTR, VCNTRTMP FOR TVC (R40 INTERFACING)
001615:                                                                                                 #  DEBRIS OMEGAXC, +1
001616:                                                                                                 #  SUBROUTINES USED:  *SMNB*, ALARM
001617:
001618: 16,2000                                          SETLOC   P40S1
001619: 16,2000                                          BANK
001620: 16,2130  E6,1466                                 EBANK=   DAPDATR1
001621: 16,2130                                          COUNT    16/S40.8
001622:
001623: 16,2130           44001        S40.8             SETPD    STQ
001624: 16,2131           00001        SPBIT1                     00D
001625: 16,2132           03657                                   QTEMP
001626: 16,2133           51375                          VLOAD    BVSU                                  #  CONSTRUCT DELVG, SC.AT B+7 M/CS
001627: 16,2134           03433                                   DELVREF
001628: 16,2135           03705                                   BDT
001629: 16,2136           77655                          VAD
001630: 16,2137           03721                                   VGPREV
001631: 16,2140           03460                          STORE    VG                                    #  VELOCITY-TO-BE-GAINED, SC.AT B+7 M/CS
001632:
001633: 16,2141           77646                          ABVAL
001634: 16,2142           03654                          STORE    VGDISP                                #  FOR DISPLAY PURPOSES
001635: 16,2143           77776                          EXIT
001636: 16,2144           05301                          TC       PHASCHNG
001637: 16,2145           10035                          OCT      10035                                 #  TYPE B RESTART RESTART BELOW AND 5.3 REREADAC
001638:
001639: 16,2146           06006                          TC       INTPRET
001640: 16,2147           77775                          VLOAD
001641:                                                                                                 #  Page 680
001642: 16,2150           03460                                   VG
001643: 16,2151           03721                          STORE    VGPREV
001644: 16,2152           77214                          BOFF     VLOAD
001645: 16,2153           01344                                   STEERSW                               #  SKIP TGO AND CROSS-PRODUCT
001646: 16,2154           03657                                   QTEMP
001647: 16,2155           03433                                   DELVREF
001648: 16,2156           41446                          ABVAL    PUSH                                  #  CHECK FOR LOTHRUST
001649: 16,2157           41335                          SLOAD    DMP
001650: 16,2160           01354                                   DVTHRESH                              #  SC.AT B-2 M/CS
001651: 16,2161           36011                                   DPB-9
001652: 16,2162           77621                          BDSU
001653: 16,2163           77440                          BMN      EXIT
001654: 16,2164           40021                                   LOTHRUST
001655: 16,2165           31466                          CAE      DAPDATR1                              #  ENABLE TVCDAP CG TRACKING
001656: 16,2166           74675                          MASK     BIT14
001657: 16,2167           10000                          CCS      A
001658: 16,2170           34712                          CAF      BIT1
001659: 16,2171           50000                          INDEX    A                                     #  LM-OFF, LM-ON VALUE
001660: 16,2172           31423                          CAE      EREPFRAC
001661: 16,2173           55652                          TS       REPFRAC
001662:
001663: 16,2174           06006                          TC       INTPRET
001664: 16,2175           51375        TGOCALC           VLOAD    BVSU                                  #  GET DELVG
001665: 16,2176           03433                                   DELVREF
001666: 16,2177           03705                                   BDT
001667: 16,2200           77656                          UNIT
001668: 16,2201           41441                          DOT      PUSH                                  #  (00D)
001669: 16,2202           03460                                   VG
001670: 16,2203           56244                          BPL      DDV                                   #  ANGLE SHOULD BE GREATER THAN PI/2
001671: 16,2204           40013                                   INCRSVG                               #         DISPLAY ALARM IF NOT
001672: 16,2205           36005                                   2VEXHUST
001673: 16,2206           41215                          DAD      DMP                                   #  (DOT PRODUCT UP FROM 00D)
001674: 16,2207           11454                                   LODPHALF
001675: 16,2210           70501                          NORM     SR1
001676: 16,2211           00047                                   X1
001677: 16,2212           60325                          PDDL     NORM
001678: 16,2213           00045                                   36D                                   #  (MAG DELVG)
001679: 16,2214           00050                                   X2
001680: 16,2215           77665                          BDDV
001681: 16,2216           53664                          XSU,2    SL*
001682: 16,2217           00046                                   X1
001683: 16,2220           57607                                   0          -9D,2
001684: 16,2221           41405                          DMP      PUSH                                  #  (00D)
001685: 16,2222           36003                                   -FOURDT
001686: 16,2223           54335                          SLOAD    SR
001687: 16,2224           03016                                   ETDECAY                               #  ETDECAY SC.AT B+14 CS
001688: 16,2225           20617                                   14D
001689: 16,2226           45421                          BDSU     STADR
001690: 16,2227           74347                          STORE    TGO                                   #  TIME TO GO IN CS. AT +28
001691: 16,2230           77615                          DAD
001692:                                                                                                 #  Page 681
001693: 16,2231           01205                                   PIPTIME
001694: 16,2232           17413                          STODL    TIG
001695: 16,2233           03430                                   TGO
001696: 16,2234           50025                          DSU      BMN
001697: 16,2235           36007                                   FOURSEC
001698: 16,2236           40000                                   S40.81
001699:
001700: 16,2237           74375        XPRODUCT          VLOAD    VXSC
001701: 16,2240           03705                                   BDT
001702: 16,2241           03703                                   CSTEER
001703: 16,2242           52352                          VSL2     VSU
001704: 16,2243           03433                                   DELVREF
001705: 16,2244           63256                          UNIT     PDVL
001706: 16,2245           03460                                   VG
001707: 16,2246           47256                          UNIT     VXV
001708: 16,2247           45121                          MXV      CALL
001709: 16,2250           01736                                   REFSMMAT                              #  (REFSMMAT/2)
001710: 16,2251           47577                                   *SMNB*
001711: 16,2252           77761                          VXSC
001712: 16,2253           03245                                   KPRIMEDT                              #  (KPRIMEDT SCIAT PI/8 RAD)
001713: 16,2254           03126        OMEGACLC          STORE    OMEGAC
001714: 16,2255           77650                          GOTO
001715: 16,2256           03657                                   QTEMP
001716:
001717: 17,2000                                          SETLOC   DAPS7
001718: 17,2000                                          BANK
001719: 17,2000                                          COUNT    17/S40.8
001720:
001721: 17,2000           00000 00310  TWODT             2DEC     200.0      B-28                       #  2 SEC
001722: 17,2002           77715 77777  -FOURDT           2DEC     -800       B-18                       #  -4(200CS), SC.AT B+18CS (-4 FOR SCALING)
001723: 17,2004           17602 25124  2VEXHUST          2DEC     63.020792  B-7                        #  2(10338.0564 FPS), SC.AT B+7 M/CS
001724: 17,2006           00000 00620  FOURSEC           2DEC     400.0      B-28                       #  4 SEC
001725: 17,2010           00040 00000  DPB-9             2DEC     1          B-9
001726:
001727: 20,2000                                          SETLOC   DAPS6
001728: 20,2000                                          BANK
001729:
001730: 20,2000                                          COUNT    20/S40.8
001731:
001732: 20,2000           77214        S40.81            SET      VLOAD                                 #  TGO LESS THAN 4 SECONDS
001733: 20,2001           01066                                   IMPULSW                               #  FOR ENGINE-OFF CALL
001734: 20,2002           15332                                   HI6ZEROS
001735: 20,2003           03126        RATEZRO           STORE    OMEGAC                                #  TVC TO ATTITUDE HOLD
001736: 20,2004           77776                          EXIT
001737: 20,2005           34672                          CAF      POSMAX                                #  INHIBIT SWITCHOVER/TVC EG TRACKING
001738: 20,2006           55447                          TS       CNTR
001739:                                                                                                 #  Page 682
001740: 20,2007           06006                          TC       INTPRET
001741: 20,2010           52014                          CLEAR    GOTO
001742: 20,2011           01264                                   STEERSW                               #  RESTARTS OK
001743: 20,2012           03657                                   QTEMP
001744: 20,2013           77776        INCRSVG           EXIT                                           #  ALARM INDICATING THAT THRUST IS POINTING
001745: 20,2014           05537                          TC       ALARM                                 #  IN WRONG DIRECTION.
001746: 20,2015           01407                          OCT      01407
001747: 20,2016           06006                          TC       INTPRET
001748: 20,2017           77650                          GOTO
001749: 20,2020           03657                                   QTEMP
001750:
001751: 20,2021           77214        LOTHRUST          BON      VLOAD                                 #  THRUST FAILURE (LO-OR-NO) INDICATED
001752: 20,2022           00711                                   IDLEFAIL                              #  SET BY V97P.  ALLOWS 1 BYPASS IN CASE OF
001753: 20,2023           03657                                   QTEMP                                 #         UNFAVORABLE S40.8 SYNCH.
001754: 20,2024           15332                                   HI6ZEROS                              #  START OF ENGINE-FAIL (R40) OPERATIONS
001755: 20,2025           03126                          STORE    OMEGAC                                #  PUT TVC IN ATTITUDE HOLD
001756: 20,2026           77776                          EXIT
001757:
001758: 20,2027           44714                          CS       ZERO
001759: 20,2030           55653                          TS       VCNTR                                 #  KILL CSMMASS UPDATING
001760: 20,2031           55663                          TS       VCNTRTMP                              #  (TVCEXEC LOGIC REQUIRES THIS TOO)
001761: 20,2032           55652                          TS       REPFRAC                               #  KILL TVCDAP CG TRIM TRACKING
001762: 20,2033           55145                          TS       NVWORD1                               #  SET UP ENGINE-FAIL V97FLASH (CLOCKJOB)
001763:
001764: 20,2034           06006                          TC       INTPRET
001765: 20,2035           52014                          CLEAR    GOTO                                  #  INHIBIT STEERING AND TGO CALC (MANUAL
001766: 20,2036           01264                                   STEERSW                               #         SHUTDOWN IF NOT SET UP AGAIN)
001767: 20,2037           03657                                   QTEMP                                 #  RESTARTS OK
001768:
001769:                                                                                                 #  Page 683
001770:                                                                                                 #  NAME           S40.9 -- VTOGAIN (AIMPOINT MANEUVERS ONLY)
001771:                                                                                                 #  FUNCTION       (1) GENERATES REQUIRED VELOCITY AND VELOCITY-TO-BE-GAINED
001772:                                                                                                 #                 VECTORS FOR USE DURING AIMPOINT MANEUVERS.
001773:                                                                                                 #                 (2) UPDATES THE B VECTOR WHICH IS USED IN THE FINAL
001774:                                                                                                 #                 CALCULATION OF EXTRAPOLATING THE VELOCITY-TO-BE-GAINED.
001775:                                                                                                 #  CALLING SEQ    VIA FINDVEC AS NEW JOB.
001776:                                                                                                 #  INPUT          RNIT    ACTIVE VEHICLE RADIUS VECTOR IN METERS AT +29.
001777:                                                                                                 #                 VNIT    ACTIVE VEHICLE VELOCITY VECTOR IN METERS/CS AT +7.
001778:                                                                                                 #                 VRPREV  LAST COMPUTED VELOCITY REQUIRED VECTOR IN
001779:                                                                                                 #                         METERS/CS AT +7.
001780:                                                                                                 #                 NONTIG  TIME OF IGN.  USED IN TARGETTING ROUTINES B+28
001781:                                                                                                 #                 DELLT4  TRANSFER TIME FROM PIPTIME TO TARGET B+28
001782:                                                                                                 #                 TNIT    TIME OF RNIT AND VNIT IN CS AT +28
001783:                                                                                                 #                 GDT/2   HALF OF VELOCITY GAINED IN DELTA T TIME DUE TO
001784:                                                                                                 #                         ACCELERATION OF GRAVITY IN METERS/CS AT +7.
001785:                                                                                                 #                 DELVREF CHANGE IN VELOCITY DURING LAST 2 SEC IN
001786:                                                                                                 #                         METERS/CS AT +7.
001787:                                                                                                 #                 NORMSW  SET=CENTRAL ANGLE BETWEEN RTARG AND RTIG IS BETWEEN
001788:                                                                                                 #                         165 TO 195 DEGREES.
001789:                                                                                                 #                         RESET=CENTRAL ANGLE OUTSIDE CONE DESCRIBED ABOVE.
001790:                                                                                                 #  OUTPUT VGTEMP  VELOCITY TO BE GAINED VECTOR IN METERS/CS AT +7.
001791:                                                                                                 #                 COGA    INPUT OF INITIAL GUESS FOR LAMBERT FROM S40.1
001792:                                                                                                 #                         OR PREVIOUS PASS THRU S40.9.
001793:                                                                                                 #                 GOBL/2  OBLATENESS TERM IN AVG GRAV CALC: GOBL*RSQ/MU
001794:                                                                                                 #                 VRPREV/ VELOCITY REQUIRED VECTOR IN METERS/CS AT +7.
001795:                                                                                                 #                 BDT     B VECTOR IN METERS/CS AT +7.
001796:                                                                                                 #  SUBROUTINES USED -- INITVEL
001797:
001798: 16,2000                                          SETLOC   P40S1
001799: 16,2000                                          BANK
001800:
001801: 16,2257  E6,1746                                 EBANK=   NBRCYCLS
001802: 16,2257                                          COUNT    16/S40.9
001803:
001804: 16,2257           06006        S40.9             TC       INTPRET
001805: 16,2260           71201                          SETPD    DLOAD
001806: 16,2261           00001                                   00D
001807: 16,2262           11456                                   LO6ZEROS
001808: 16,2263           77725                          PDDL
001809: 16,2264           34401                                   EP4(45)L
001810: 16,2265           71214                          BON      DLOAD
001811: 16,2266           03705                                   NORMSW
001812: 16,2267           34271                                   +2
001813: 16,2270           34403                                   EP4(10)L
001814: 16,2271           77606                          PUSH
001815: 16,2272           45014                          CLEAR    CALL
001816: 16,2273           00675                                   GUESSW
001817: 16,2274           22002                                   HAVEGUES
001818: 16,2275           77776                          EXIT
001819: 16,2276           05301                          TC       PHASCHNG                              #  SAVE TIME BY NOT REDOING LAMBERT CALCS
001820: 16,2277           05021                          OCT      05021                                 #  C, PRIORITY NEXT, JOB BELOW
001821:                                                                                                 #  Page 684
001822: 16,2300           10000                          OCT      10000
001823: 16,2301           06006                          TC       INTPRET
001824: 16,2302           77614        ENDLAMB           BON
001825: 16,2303           01310                                   FIRSTFLG
001826: 16,2304           34322                                   FIRSTTME
001827: 16,2305           52375                          VLOAD    VSU
001828: 16,2306           03612                                   VIPRIME
001829: 16,2307           03466                                   VRPREV
001830: 16,2310           45325                          PDDL     DSU
001831: 16,2311           03474                                   TNIT
001832: 16,2312           03476                                   TNITPREV
001833: 16,2313           55261                          SL       BDDV
001834: 16,2314           20222                                   17D
001835: 16,2315           34375                                   200CSHI
001836: 16,2316           77761                          VXSC
001837: 16,2317           76451                          VSU      VSL1
001838: 16,2320           01207                                   GDT/2
001839: 16,2321           03705                          STORE    BDT
001840: 16,2322           57535        FIRSTTME          SLOAD    DCOMP
001841: 16,2323           03747                                   RTX2
001842: 16,2324           77640                          BMN
001843: 16,2325           34342                                   MOONCASE
001844: 16,2326           53575                          VLOAD    UNIT
001845: 16,2327           01171                                   RN
001846: 16,2330           45345                          DLOAD    DSU
001847: 16,2331           01205                                   PIPTIME
001848: 16,2332           03450                                   NOMTIG
001849: 16,2333           56205                          DMP      DDV
001850: 16,2334           34377                                   EARTHMU
001851: 16,2335           00043                                   34D
001852: 16,2336           53361                          VXSC     VAD
001853: 16,2337           01215                                   GOBL/2
001854: 16,2340           03646                                   VGTEMP                                #  NOTE: NO TEST IS MADE TO SUBTRACT GOBL
001855: 16,2341           03646                          STORE    VGTEMP                                #  INSIDE 165-195 DEGREE CONE AREA.
001856: 16,2342           77776        MOONCASE          EXIT
001857: 16,2343           05301                          TC       PHASCHNG
001858: 16,2344           04021                          OCT      04021                                 #  C, JOB BELOW
001859:
001860: 16,2345           06006        COPY40.9          TC       INTPRET
001861: 16,2346           77745                          DLOAD
001862: 16,2347           03474                                   TNIT
001863: 16,2350           27476                          STOVL    TNITPREV
001864: 16,2351           03612                                   VIPRIME
001865: 16,2352           03466                          STORE    VRPREV
001866: 16,2353           77414                          CLEAR    EXIT
001867: 16,2354           01270                                   FIRSTFLG
001868: 16,2355           44712                 -2       CS       ONE                                   #  REDO40.9 (RESTART) ENTRY TO END S40.9
001869: 16,2356           55746                          TS       NBRCYCLS
001870: 16,2357           05301        ENDS40.9          TC       PHASCHNG
001871: 16,2360           00001                          OCT      00001
001872:                                                                                                 #  Page 685
001873: 16,2361           15112                          TCF      ENDOFJOB
001874:
001875: 16,2362           06006        REDO40.9          TC       INTPRET                               #  S40.9 RESTARTS COME HERE TO GRACEFULLY
001876: 16,2363           77775                          VLOAD                                          #         TERMINATE S40.9 SO THAT IT CAN BE
001877: 16,2364           11456                                   LO6ZEROS                              #         SET UP WITH LATEST R,V,T NEXT PASS
001878: 16,2365           17351                          STODL    DELVSUM                               #         (TYPE C PHASE POINTS '04021' WILL
001879: 16,2366           11456                                   LO6ZEROS                              #         FORCE NORMAL S40.9 TERMINATIONS,
001880: 16,2367           27347                          STOVL    NBRCYCLS                              #         RATHER THAN LOSE TIME OF BRAND NEW
001881: 16,2370           03721                                   VGPREV                                #         PASS -- QUICK OLD DATA BETTER THAN
001882: 16,2371           03646                          STORE    VGTEMP                                #         NONE) NOW CAN GO THRU SETUP.9
001883: 16,2372           77776                          EXIT                                           #         WITHOUT DISTURBING VGPREV.
001884: 16,2373           12355                          TCF      ENDS40.9   -2                         #  STORE 0,0 COVERED NBRCYCLS,P -- FIX UP S
001885:
001886: 16,2374           01440 00000  200CSHI           2DEC     200        B-12
001887: 16,2376           55340 61710  EARTHMU           2DEC*    -3.986032  E10        B-36*
001888: 16,2400           04000 00000  EP4(45)L          2DEC     .125
001889: 16,2402           00707 03434  EP4(10)L          2DEC     .027777777
001890:
001891:                                                                                                 #  Page 686
001892:                                                                                                 #  NAME:                  S40.13 -- TIMEBURN
001893:
001894:                                                                                                 #  FUNCTION               (1) DETERMINE WHETHER A GIVEN COMBINATION OF VELOCITY TO
001895:                                                                                                 #                         BE GAINED AND ENGINE CHOICE RESULT IN A BURN TIME SUFFICIENT
001896:                                                                                                 #                         TO ALLOW STEERING AT THE VEHICLE DURING THE BURN, AND
001897:                                                                                                 #                         (2) THE MAGNITUDE OF THE RESULTING BURN TIME -- IF IT IS SHORT --
001898:                                                                                                 #                         AND THE ASSOCIATED TIME OF THE ENGINE OFF SIGNAL.
001899:
001900:                                                                                                 #  CALLING SEQUENCE       VIA FINDVAC AS A NEW JOB
001901:
001902:                                                                                                 #  INPUT                  VGTIG -- VELOCITY TO BE GAINED VECTOR (METERS/CS) AT +7
001903:                                                                                                 #                         WEIGHT/G -- MASS OF VEHICLE IN KGM AT TIG
001904:                                                                                                 #                         F -- ENGINE THRUST IN M.NEWTONS AT +7
001905:                                                                                                 #                         MDOT -- RATE OF DECREASE OF VEHICLE MASS DURING ENGINE BURN
001906:                                                                                                 #                                 IN KILOGRAMS/CENTISECOND AT +3.  THIS SCALING MAY
001907:                                                                                                 #                                 REQUIRE MODIFICATION FOR SATURN BURNS.
001908:
001909:                                                                                                 #  OUTPUT         IMPULSW         ZERO FOR STEERING
001910:                                                                                                 #                                         ONE FOR ATTITUDE HOLD
001911:                                                                                                 #                         TGO             TIME TO BURN IN CENTISECONDS AT +14
001912:                                                                                                 #                         THE QUANTITY M.NEWTON SHALL BE USED TO EXPRESS WEIGHT IN TERMS OF
001913:                                                                                                 #                         (KILOGRAM*METER)/(CENTISECOND*CENTISECOND)
001914:                                                                                                 #                         (1) M.NEWTON = (10000) NEWTONS.
001915:
001916: 16,2404  E7,1427                                 EBANK=   TGO
001917: 16,2404                                          COUNT    16/40.13
001918:
001919: 16,2404           06006        S40.13            TC       INTPRET
001920: 16,2405           43001                          SETPD    SET
001921: 16,2406           00001                                   00D
001922: 16,2407           01066                                   IMPULSW                               #  ASSUME NO STEERING UNTIL FOUND OTHERWISE
001923: 16,2410           51575                          VLOAD    ABVAL
001924: 16,2411           03721                                   VGTIG                                 #  VELOCITY TO BE GAINED AT +7
001925: 16,2412           77776                          EXIT
001926: 16,2413           34704                          CAF      BIT7                                  #  TEST +X TRANSLATION
001927: 16,2414           00006                          EXTEND
001928: 16,2415           06031                          RXOR     CHAN31
001929: 16,2416           74704                          MASK     BIT7
001930: 16,2417           00006                          EXTEND
001931: 16,2420           12502                          BZF      NOTADDUL
001932: 16,2421           06006                          TC       INTPRET
001933: 16,2422           56325                          PDDL     DDV                                   #  00D = MAG OF VGTIG AT +7
001934: 16,2423           36027                                   S40.135                               #  COMPENSATION FOR 2 JET ULLAGE AT +24
001935: 16,2424           03076                                   WEIGHT/G                              #  MASS IN KGMS AT +16
001936: 16,2425           72414                          BON      SL1                                   #  DOUBLE CORRECTION IF FOUR JETS
001937: 16,2426           00700                                   NJETSFLG
001938: 16,2427           34430                                   S40.130
001939: 16,2430           77621        S40.130           BDSU
001940: 16,2431           56325                          PDDL     DDV                                   #  00D = MAG OF VGTIG CORRECTED FOR ULLAGE
001941: 16,2432           36013                                   K1VAL                                 #  M.NEWTON-CS AT +24
001942: 16,2433           03076                                   WEIGHT/G
001943: 16,2434           50021                          BDSU     BMN
001944: 16,2435           00001                                   00D
001945: 16,2436           34461                                   S40.131                               #  TGO LESS THAN 100 CS
001946: 16,2437           41325                          PDDL     DMP                                   #  02D = TEMP1 AT +7
001947:                                                                                                 #  Page 687
001948: 16,2440           00111                                   EMDOT                                 #  SPS FLOW RATE SC.AT B+3 KG/CS (SP, NOTE)
001949: 16,2441           36023                                   3.5SEC                                #  350 CS AT +14
001950: 16,2442           65221                          BDSU     PDDL
001951: 16,2443           03076                                   WEIGHT/G
001952: 16,2444           03727                                   F                                     #  F AT +7
001953: 16,2445           60405                          DMP      SR2
001954: 16,2446           36025                                   5SECOND                               #  500 CS AT +14
001955: 16,2447           41471                          DDV      PUSH                                  #  04D = TEMP2
001956: 16,2450           51021                          BDSU     BPL
001957: 16,2451           00003                                   02D
001958: 16,2452           34475                                   S40.133                               #  TGO GREATER THAN 600 CS
001959: 16,2453           55345                          DLOAD    BDDV
001960: 16,2454           43205                          DMP      DAD
001961: 16,2455           36025                                   5SECOND                               #  500 CS AT +14
001962: 16,2456           36021                                   1SEC2D                                #  100 CS AT +14
001963: 16,2457           77650                          GOTO
001964: 16,2460           34466                                   S40.132
001965: 16,2461           41345        S40.131           DLOAD    DMP                                   #  TGO LESS THAN 100 CS
001966: 16,2462           03076                                   WEIGHT/G
001967: 16,2463           56215                          DAD      DDV
001968: 16,2464           36015                                   K2VAL                                 #  M.NEWTON CS AT +24
001969: 16,2465           36017                                   K3VAL                                 #  M.NEWTON AT +10
001970: 16,2466           77776        S40.132           EXIT
001971: 16,2467  E7,1427                                 EBANK=   TGO
001972: 16,2467           07226                          TC       TPAGREE
001973: 16,2470           30154                          CA       MPAC
001974: 16,2471           56001                          XCH      L
001975: 16,2472           34714                          CA       ZERO
001976: 16,2473           53430                          DXCH     TGO                                   #  TGO IN CS AT +28
001977: 16,2474           02477                          TC       S40.134
001978:
001979: 16,2475           77414        S40.133           CLEAR    EXIT                                  #  WILL STEER VEHICLE
001980: 16,2476           01266                                   IMPULSW
001981: 16,2477           05301        S40.134           TC       PHASCHNG                              #  KILL GROUP 3
001982: 16,2500           00003                          OCT      3
001983:
001984: 16,2501           15112                          TCF      ENDOFJOB
001985: 16,2502           06006        NOTADDUL          TC       INTPRET
001986: 16,2503           77650                          GOTO
001987: 16,2504           34431                                   S40.130    +1                         #  DO NOT COMPENSATE FOR 7 SEC OF ULLAGE
001988: 17,2000                                          SETLOC   DAPS7
001989: 17,2000                                          BANK
001990:
001991: 17,2012                                          COUNT    17/40.13
001992:
001993: 17,2012           00001 27221  K1VAL             2DEC     884.52887  B-23                       #  19885 LB-SEC, SC.AT B+23 NEWTON-SEC/E+2
001994: 17,2014           00000 22244  K2VAL             2DEC     293.137805 B-23                       #   6590 LB-SEC, SC.AT B+23 NEWTON-SEC/E+2
001995:                                                                                                 #  Page 688
001996: 17,2016           00570 33235  K3VAL             2DEC     11.7766668 B-9                        #  25475 LBS, SC.AT B+9 NEWTONS/E+4
001997: 17,2020           00144 00000  1SEC2D            2DEC     100.0      B-14                       #  100.0 CS AT +14
001998: 17,2022           01274 00000  3.5SEC            2DEC     350.0      B-13                       #  350 CS AT +13
001999: 17,2024           00764 00000  5SECOND           2DEC     500.0      B-14                       #  500.0 CS AT +14
002000: 17,2026           00000 04263  S40.135           2DEC     69.6005153 B-23                       #  IMPULSE FROM 7.96 SECS OF 2-JET FIRING
002001:                                                                                                 #         7.96 (199.6)COS(10) LB-SEC, SC.AT
002002:                                                                                                 #         B+23 NEWTON-SEC/E+2 (7 SEC ULLAGE
002003:                                                                                                 #         TO GO, PLUS 0.96 SEC FROM PIPTIME)
002004:                                                                                                 #  Page 689
002005:                                                                                                 #  NAME           S40.6 GIMBAL DRIVE TEST AND/OR GIMBAL TRIM
002006:                                                                                                 #  MOD NO 5                               DATE 9 MARCH, 1967
002007:                                                                                                 #  MOD BY ENGEL                           LOG SECTION P40-P47
002008:
002009:                                                                                                 #  FUNCTIONAL DESCRIPTION
002010:                                                                                                 #         GIMBAL DRIVE TEST....0,+2,-2,0 DEGREE ENGINE COMMANDS, AT 2 SECOND
002011:                                                                                                 #                 INTERVALS, FIRST IN PITCH, THEN IN YAW.  ASTRONAUT VERIFICATION
002012:                                                                                                 #                 OF GIMBAL MOTION ON GPI
002013:                                                                                                 #         GIMBAL TRIM....AFTER A 4 SECOND DELAY, ENGINE COMMANDED TO
002014:                                                                                                 #                 PRE-COMPUTED TRIM POSITION.  ASTRONAUT VERIFICATION ON GPI.
002015:                                                                                                 #         PRE40.6....RESTART ENTRY TO RE-DO S40.6, ONLY IF RCS IS ON --- IF TVC
002016:                                                                                                 #                 IS NOT ON --- PRIMARILY TO GET ACTUATORS TRIMMED FOR IGNITION.
002017:                                                                                                 #                 BYPASS 4 SEC DELAY.  SPEED IS CRITICAL NEAR IGNITION.
002018:                                                                                                 #                 IF TVC IS ON (TVCDAPON OR LATER) THEN REDOTVC WILL TAKE CARE
002019:                                                                                                 #                 OF RESTARTING ACTUATORS.
002020:
002021:                                                                                                 #  CALLING SEQUENCE....
002022:                                                                                                 #         WAITLIST, WITH 2CADR FOR S40.6 (OR PRE40.6), WITH EBANK= CNTR
002023:
002024:                                                                                                 #  NORMAL EXIT MODE -- FIXDELAY, TASKOVER
002025:
002026:                                                                                                 #  SUBROUTINES CALLED....
002027:                                                                                                 #         OUTPUT (INTERNAL)
002028:                                                                                                 #         FIXDELAY
002029:
002030:                                                                                                 #  ALARM OR ABORT EXIT MODES --- NONE
002031:
002032:                                                                                                 #  ERASABLE INITIALIZATION REQUIRED
002033:                                                                                                 #         CNTR = +0, NORMALLY SET BY THE P40 CALL AT TST,TRIM.
002034:                                                                                                 #         MRKRTMP....POSITIVE FOR GIMBAL DRIVE TEST AND GIMBAL TRIM (BOTH)
002035:                                                                                                 #                    NEGATIVE FOR GIMBAL TRIM ONLY
002036:                                                                                                 #         PACTOFF, YACTOFF SC.AT 85.41 ARCSEC/BIT (V48N48 P, YTRIM)
002037:                                                                                                 #         "SC CONT" SWITCH AT "CMC" (A/P CONTROL SWITCH AT "GNC")
002038:                                                                                                 #         ACTIVE SPS GIMBAL MOTOR POWER(S), PITCH, YAW
002039:
002040:                                                                                                 #  OUTPUT
002041:                                                                                                 #         TVCYAW, TVCPITCH (BITS RELEASED)
002042:                                                                                                 #         TVC ENABLE AND OPTICS ERROR COUNTER ENABLE
002043:
002044:                                                                                                 #  DEBRIS
002045:                                                                                                 #         TBMPR60, CNTR
002046:
002047: 17,2030                                          BANK     17
002048: 20,2000                                          SETLOC   DAPS6
002049: 20,2000                                          BANK
002050:
002051: 20,2040  E6,1447                                 EBANK=   CNTR
002052: 20,2040                                          COUNT    20/S40.6
002053:
002054: 20,2040           40102        PRE40.6           CS       FLAGWRD6                              #  RESTART ENTRY TO S40.6 (DO NOT PERMIT
002055: 20,2041           74105                          MASK     OCT60000                              #         IF TVC, BITS 15,(?)4 = 1,0)
002056: 20,2042           00006                          EXTEND
002057: 20,2043           62045                          BZMF     +2
002058: 20,2044           15213                          TCF      TASKOVER                              #  TVC, REDOTVC WILL REESTABLISH INTERFACE
002059:
002060: 20,2045           44712                          CS       BIT1                                  #  RCS, SO DO S40.6, GIMTRIM ONLY
002061:                                                                                                 #  Page 690
002062: 20,2046           55445                          TS       MRKRTMP
002063: 20,2047           34712                          CAF      BIT1                                  #  FOR REVISED S40.6 TIMING FOR RESTARTS...
002064: 20,2050           55447                          TS       CNTR                                  #  TO INDICATE A RESTART ENTRY (CNTR 15
002065:                                                                                                 #         NORMALLY +0, BY S40.6)
002066: 20,2051  E6,1447                                 EBANK=   CNTR
002067: 20,2051           44714        S40.6             CS       ZERO                                  #  INHIBIT OPTICS ACTIVITY
002068: 20,2052           55303                          TS       OPTIND
002069:
002070: 20,2053           44711                          CS       BIT2                                  #  DISENABLE OPTICS ERROR COUNTERS (ZERO,
002071: 20,2054           00006                          EXTEND                                         #         AND INHIBIT PULSE TRANSMISSION --
002072: 20,2055           03012                          WAND     CHAN12                                #         NORMAL STATE)
002073:
002074: 20,2056           32143                          CAF      OCT02200                              #  TVC ENABLE (SPS SERVO AMPS SEE DAC
002075: 20,2057           00006                          EXTEND                                         #         VOLTAGES) AND DISENGAGE OPTICS/DAC
002076: 20,2060           05012                          WOR      CHAN12
002077:
002078: 20,2061           05156                          TC       FIXDELAY                              #  60MS PROCEDURAL DELAY (40MS MINIMUM) FOR
002079: 20,2062           00006                          DEC      6          B-14                       #         RELAY LATCHING
002080:
002081: 20,2063           34711                          CAF      BIT2                                  #  ENABLE OPTICS ERROR COUNTERS
002082: 20,2064           00006                          EXTEND
002083: 20,2065           05012                          WOR      CHAN12
002084:
002085: 20,2066           05156                          TC       FIXDELAY                              #  20MS PROCEDURAL DELAY (4MS MINIMUM) FOR
002086: 20,2067           00002                          DEC      2          B-14                       #         RELAY LATCHING
002087:
002088: 20,2070           11447        RSTRTST           CCS      CNTR                                  #  CHECK FOR RESTART ENTRY (PRE40.6)
002089: 20,2071           12131                          TCF      GIMTRIM    +2                         #  RESTART ENTRY....BYPASS 4 SECOND DELAY
002090:                                                                                                 #         TST,TRIM SETS +0 ON NORMAL ENTRY
002091:
002092: 20,2072           31445                          CAE      MRKRTMP                               #  CHECK FOR TEST/TRIM OR TRIM ONLY
002093: 20,2073           55447                          TS       CNTR                                  #         MRKRTMP SAVES CNTR FOR RESTARTS
002094: 20,2074           00006                          EXTEND
002095: 20,2075           62127                          BZMF     GIMTRIM                               #  (TRIM ONLY)
002096:
002097: 20,2076           44714        GDTSETUP          CS       ZERO                                  #  GIMBAL DRIVE TEST SETUP, FOR PITCH
002098: 20,2077           55447                          TS       CNTR
002099:
002100: 20,2100           32145        GIMDTEST          CAF      +2ACTDEG                              #  GIMBAL DRIVE TEST, 1ST INCREMENT
002101: 20,2101           02114                          TC       OUTPUT                                #         (LEAVES GIMBAL AT +2 DEG)
002102: 20,2102           32144                          CAF      -4ACTDEG                              #  2ND INCREMENT (LEAVES GIMBAL AT -2)
002103: 20,2103           02114                          TC       OUTPUT
002104: 20,2104           32145                          CAF      +2ACTDEG                              #  34D INCREMENT (LEAVES GIMBAL AT -0)
002105: 20,2105           02114                          TC       OUTPUT
002106:
002107: 20,2106           41447                          CS       CNTR                                  #  CHECK FOR COMPLETION OF YAW TEST.
002108:                                                                                                 #  Page 691
002109: 20,2107           10000                          CCS      A
002110: 20,2110           12127                          TCF      GIMTRIM                               #  COMPLETED, GO TO GIMBAL TRIM ROUTINE
002111: 20,2111           44712                          CS       BIT1                                  #  SET UP YAW TEST
002112: 20,2112           55447                          TS       CNTR
002113: 20,2113           12100                          TCF      GIMDTEST                              #  FOR YAW TEST
002114: 20,2114           00006        OUTPUT            EXTEND                                         #  OUTPUT THE INCREMENT....SAVE Q
002115: 20,2115           23146                          QXCH     TEMPR60
002116:
002117: 20,2116           51447                          INDEX    CNTR
002118: 20,2117           54054                          TS       TVCPITCH
002119:
002120: 20,2120           51447                          INDEX    CNTR
002121: 20,2121           34700                          CAF      BIT11
002122: 20,2122           00006                          EXTEND
002123: 20,2123           05014                          WOR      CHAN14
002124:
002125: 20,2124           05156                          TC       FIXDELAY                              #  WAIT 2SEC, WHILE ASTRONAUT VERIFIES
002126: 20,2125           00310                          DEC      200        B-14                       #         GIMBAL MOTION ON GPI
002127: 20,2126           01146                          TC       TEMPR60
002128: 20,2127           05156        GIMTRIM           TC       FIXDELAY                              #  WAIT 4 SECONDS BEFORE GIMBAL TRIM
002129: 20,2130           00620                          DEC      400        B-14
002130:
002131: 20,2131           44714                 +2       CS       ZERO                                  #  PICK UP TRIM VALUES AND OUTPUT THEM
002132: 20,2132           61425                          AD       PACTOFF                               #         (AVOID +0) ENTRY POINT FROM RSTRTST
002133: 20,2133           54054                          TS       TVCPITCH                              #         ON A RESTART, TO AVOID 4SEC DELAY
002134: 20,2134           44714                          CS       ZERO
002135: 20,2135           61426                          AD       YACTOFF
002136: 20,2136           54053                          TS       TVCYAW
002137:
002138: 20,2137           34755                          CAF      PRIO6                                 #  RELEASE THE COUNTERS, BITS 11,12
002139: 20,2140           00006                          EXTEND
002140: 20,2141           05014                          WOR      CHAN14
002141:
002142: 20,2142           15213        ENDS40.6          TCF      TASKOVER
002143: 20,2143           02200        OCT02200          OCT      02200                                 #  BITS 8,11 FOR CHANNEL 12 TVC/OPTICS
002144: 20,2144           77527        -4ACTDEG          DEC      -168       B-14                       #  -2(+2ACTDEG), WHOLE BITS, NO ROUNDUP
002145: 20,2145           00124        +2ACTDEG          DEC      +84        B-14                       #  +2 DEG, SC.AT 65.41 ARCSEC/BIT (+84D)
002146:
002147:                                                                                                 #  CALLED BY "DONOUN46" (VERB 48), OR DIRECTLY BY "FRESHDAP" (RCS DAP) VIA IBNKCALL
002148:
002149: 20,2146                                          COUNT    20/S41.2
002150: 20,2146           31466        S41.2             CA       DAPDATR1
002151:                                                                                                 #  Page 692
002152: 20,2147           76214                          MASK     THREE
002153: 20,2150           60000                          AD       A
002154: 20,2151           55130                          TS       RATEINDX
002155:
002156: 20,2152           00004                          INHINT
002157: 20,2153           31466                          CAE      DAPDATR1                              #  IS LEM ATTACHED (BITS 14,13 OF DAPDATR1
002158: 20,2154           74371                          MASK     PRIO30                                #         =10)
002159: 20,2155           67705                          AD       -BIT14                                #  (OCT57777)
002160: 20,2156           00006                          EXTEND
002161: 20,2157           12164                          BZF      TOGETHER                              #  YES
002162:
002163: 20,2160           44711                          CS       BIT2                                  #  NO, UNSET FLAG
002164: 20,2161           70103                          MASK     FLAGWRD7
002165: 20,2162           54103                          TS       FLAGWRD7
002166:
002167: 20,2163           12167                          TCF      +4
002168:
002169: 20,2164           40103        TOGETHER          CS       FLAGWRD7                              #  ATTACHED, SET FLAG FOR INTEGRATION
002170: 20,2165           74711                          MASK     BIT2
002171: 20,2166           26103                          ADS      FLAGWRD7
002172:
002173: 20,2167           00003                          RELINT
002174:
002175: 20,2170           31466                          CA       DAPDATR1
002176: 20,2171           74707                          MASK     BIT4
002177: 20,2172           00006                          EXTEND
002178: 20,2173           62175                          BZMF     +2                                    #  DEC 46 MEANS NARROW DB
002179: 20,2174           32275                          CA       DEC409
002180: 20,2175           62276                          AD       DEC46                                 #  DEC 455 MEANS WIDE DB
002181: 20,2176           55655                          TS       ADB
002182:
002183: 20,2177           31466                          CA       DAPDATR1
002184: 20,2200           74704                          MASK     BIT7                                  #  QUAD BD
002185: 20,2201           00006                          EXTEND
002186: 20,2202           62204                          BZMF     +2
002187: 20,2203           34712                          CA       ONE
002188: 20,2204           55631                          TS       XTRANS
002189: 20,2205           31466                          CA       DAPDATR1
002190: 20,2206           74701                          MASK     BIT10                                 #  QUAD AC
002191: 20,2207           00006                          EXTEND
002192: 20,2210           62212                          BZMF     +2
002193: 20,2211           44712                          CS       ONE
002194: 20,2212           27631                          ADS      XTRANS
002195:
002196: 20,2213           00004                          INHINT
002197: 20,2214           00006                          EXTEND
002198: 20,2215           12222                          BZF      +5                                    #  CLEAR NJETSFLG (4 JETS, OR NO JETS)
002199: 20,2216           40075                          CS       FLAGWRD1                              #  SET NJETSFLG (2 JETS, AC OR BD QUADS)
002200: 20,2217           74674                          MASK     BIT15                                 #  NJETSFLG = 1 FOR 2 JET ULLAGE (AC OR BD)
002201: 20,2220           26075                          ADS      FLAGWRD1
002202:                                                                                                 #  Page 693
002203: 20,2221           12225                          TCF      +4
002204: 20,2222           44674                          CS       BIT15                                 #  KJETSFLG = 0 FOR 4 JET (OR 0 JET) ULLAGE
002205: 20,2223           70075                          MASK     FLAGWRD1
002206: 20,2224           54075                          TS       FLAGWRD1
002207: 20,2225           00003                          RELINT
002208: 20,2226           31467                          CA       DAPDATR2
002209: 20,2227           74676                          MASK     BIT13
002210: 20,2230           00006                          EXTEND
002211: 20,2231           62233                          BZMF     +2
002212: 20,2232           12234                          TCF      +2
002213: 20,2233           44712                          CS       ONE
002214: 20,2234           40000                          COM
002215: 20,2235           55630                          TS       ACORBD                                #  MINUS FOR A-C, PLUS FOR B-D
002216:
002217: 20,2236           31467                          CA       DAPDATR2
002218: 20,2237           74701                          MASK     BIT10
002219: 20,2240           10000                          CCS      A
002220: 20,2241           12245                          TCF      +4
002221: 20,2242           34712                          CA       ONE
002222: 20,2243           55626                          TS       RACFAIL
002223: 20,2244           12255                          TCF      BDFAIL
002224: 20,2245           34714                          CA       ZERO
002225: 20,2246           55626                          TS       RACFAIL
002226: 20,2247           31467                          CA       DAPDATR2
002227: 20,2250           74707                          MASK     BIT4
002228: 20,2251           10000                          CCS      A
002229: 20,2252           12255                          TCF      BDFAIL
002230: 20,2253           44712                          CS       ONE
002231: 20,2254           55626                          TS       RACFAIL
002232: 20,2255           31467        BDFAIL            CA       DAPDATR2
002233: 20,2256           74704                          MASK     BIT7
002234: 20,2257           10000                          CCS      A
002235: 20,2260           12264                          TCF      +4
002236: 20,2261           34712                          CA       ONE
002237: 20,2262           55627                          TS       RBDFAIL
002238: 20,2263           00002                          TC       Q
002239: 20,2264           34714                          CA       ZERO
002240: 20,2265           55627                          TS       RBDFAIL
002241: 20,2266           31467                          CA       DAPDATR2
002242: 20,2267           74712                          MASK     BIT1
002243: 20,2270           10000                          CCS      A
002244: 20,2271           00002                          TC       Q
002245: 20,2272           44712                          CS       ONE
002246: 20,2273           55627                          TS       RBDFAIL
002247: 20,2274           00002                          TC       Q
002248:
002249:                                                                                                 #  DAPFIG ENTRY VIA TC POSTJUMP AS JOB FROM "STABLISH" (VERB 46)
002250:
002251: 42,3521                                          BANK     42
002252: 42,2000                                          SETLOC   EXTVBS
002253:                                                                                                 #  Page 694
002254: 42,2000                                          BANK
002255:
002256: 42,3521           44702        DAPFIG            CS       BIT9                                  #  TURN OFF SIVB TAKEOVER
002257: 42,3522           00006                          EXTEND
002258: 42,3523           03012                          WAND     CHAN12
002259: 42,3524           31466                          CAE      DAPDATR1                              #  DETERMINE VEHICLE CONFIGURATION
002260: 42,3525           00006                          EXTEND
002261: 42,3526           74710                          MP       BIT3                                  #         RIGHT SHIFT 4 OCTAL DIGITS
002262: 42,3527           76214                          MASK     THREE                                 #         (IN CASE BIT 15 IS USED)
002263: 42,3530           50000                          INDEX    A
002264: 42,3531           13532                          TCF      +1                                    #         BRANCH BASED ON CONFIG....
002265:
002266: 42,3532           13544                          TCF      NODAPUP                               #  CM.......ACTIVATE NODAP
002267: 42,3533           13537                          TCF      RCSDAPUP                              #         CSM......ACTIVATE RCSDAP
002268: 42,3534           13537                          TCF      RCSDAPUP                              #         CSM/LEM..ACTIVATE RCSDAP
002269: 42,3535           04574                          TC       POSTJUMP
002270: 42,3536           67211                          CADR     SATSTKON
002271: 42,3537           00004        RCSDAPUP          INHINT                                         #  CALL TO ACTIVATE RCSDAP, AND RETURN
002272: 42,3540           04633                          TCR      IBNKCALL
002273: 42,3541           42010                          CADR     RCSDAPON
002274: 42,3542           00003                          RELINT
002275: 42,3543           13561                          TCF      ENDFIG                                #  CAME IN VIA V46, GO OUT VIA GOPIN
002276: 42,3544           00006        NODAPUP           EXTEND                                         #  T5 IDLE FOR NODAP (DON'T WORRY ABOUT T)
002277: 42,3545           33564                          DCA      T5IDLDAP
002278: 42,3546           53313                          DXCH     T5LOC
002279: 42,3547           05447                          TC       DOWNFLAG                              #  RESET T5-USAGE FLAGS FOR NODAP
002280: 42,3550           00132                          ADRES    DAPBIT1                               #  BIT 15 FLAG 6 = 0
002281: 42,3551           05447                          TC       DOWNFLAG
002282: 42,3552           00133                          ADRES    DAPBIT2                               #  BIT 14 FLAG 6 = 0
002283: 42,3553           00004                          INHINT
002284: 42,3554           04633                          TC       IBNKCALL                              #  ZERO JET CHANNELS IN 14 MS AND THEN
002285: 42,3555           42616                          CADR     ZEROJET                               #  LEAVE THE T6 CLOCK DISABLED.
002286: 42,3556           00003                          RELINT
002287: 42,3557           34712                          CAF      BIT1                                  #  KILL KALCMANU JOB
002288: 42,3560           55332                          TS       HOLDFLAG
002289: 42,3561           04574        ENDFIG            TC       POSTJUMP                              #  CAME IN VIA V46, GO OUT VIA GOPIN
002290: 42,3562           66121                          CADR     GOPIN
002291: 42,3563  40,2000                                 SBANK=   PINSUPER                              #  RSB 2004
002292: 42,3563  E6,1425                                 EBANK=   PACTOFF
002293: 42,3563           03143 12106  T5IDLDAP          2CADR    T5IDLOC
002294:
002295: 17,2030                                          BANK     17
002296: 20,2000                                          SETLOC   DAPS6
002297: 20,2000                                          BANK
002298:
002299: 20,2275           00631        DEC409            DEC      409        B-14
002300: 20,2276           00056        DEC46             DEC      46         B-14
002301:
002302:                                                                                                 #  CALLED BY "DONOUN47" (VERB 48), OR DIRECTLY BY "FRESHDAP" (RCS DAP)
002303:                                                                                                 #  Page 695
002304: 20,2277           31470        S40.14            CAE      IXX                                   #  RCS ENTRY
002305: 20,2300           00006                          EXTEND
002306: 20,2301           72324                          MP       CONTONE
002307: 20,2302           55623                          TS       J/M
002308:
002309: 20,2303           31471                          CA       IAVG
002310: 20,2304           00006                          EXTEND
002311: 20,2305           72324                          MP       CONTONE
002312: 20,2306           55624                          TS       J/M1
002313:
002314: 20,2307           55625                          TS       J/M2
002315:
002316: 20,2310           00006                          EXTEND
002317: 20,2311           32326                          DCA      CONTTWO
002318: 20,2312           00006                          EXTEND
002319: 20,2313           11470                          DV       IXX
002320: 20,2314           55620                          TS       KMJ
002321:
002322: 20,2315           00006                          EXTEND
002323: 20,2316           32326                          DCA      CONTTWO
002324: 20,2317           00006                          EXTEND
002325: 20,2320           11471                          DV       IAVG
002326: 20,2321           55621                          TS       KMJ1
002327:
002328: 20,2322           55622                          TS       KMJ2
002329:
002330: 20,2323           00002                          TC       Q
002331:
002332: 20,2324           25137        CONTONE           DEC      .662034                               #  2PI/M
002333: 20,2325           00023 12522  CONTTWO           2DEC     .00118
002334:
002335: 20,2327                                          COUNT    24/TVNG
002336:
002337: 31,3215                                          BANK     31
002338: 24,2000                                          SETLOC   P40S
002339: 24,2000                                          BANK
002340:
002341: 24,3677           37405        POS-2.5           OCT      37405
002342: 24,3700  40,2000                                 SBANK=   PINSUPER                              #  RSB 2004
002343: 24,3700  E6,1466                                 EBANK=   DAPDATR1
002344: 24,3700           02000 42106  RCSCADR           2CADR    RCSUP
002345:
002346: 24,3702           37704        6SECT5            OCT      37704
002347: 24,3703                                          COUNT    21/RCSUP
002348:
002349: 20,2327                                          BANK     20
002350:
002351: 21,2000                                          SETLOC   DAPS3
002352: 21,2000                                          BANK
002353:
002354: 21,2000           22016        RCSUP             LXCH     BANKRUPT
002355:                                                                                                 #  Page 696
002356: 21,2001           00006                          EXTEND
002357: 21,2002           22012                          QXCH     QRUPT
002358:
002359: 21,2003           02010                          TCR      RCSDAPON                              #  ACTIVATE RCS DAP
002360:
002361: 21,2004           15222                          TCF      RESUME
002362:
002363: 21,2005  E6,1466                                 EBANK=   DAPDATR1
002364: 21,2005           02106 42106  RCSADDR           2CADR    RCSATT
002365:
002366: 21,2007           37704        0.6SECT5          OCT      37704
002367:
002368:                                                                                                 #  RCSDAPON ENTRY MUST BE UNDER INT-INHIBIT
002369: 21,2010           32007        RCSDAPON          CAF      0.6SECT5                              #  0.6 SEC ALLOWS TVCEXEC/ROLLDAP TO DIE
002370: 21,2011           54030                 +1       TS       TIME5                                 #  ENTRY FROM R00TOP00
002371: 21,2012           55465                          TS       T5PHASE                               #  WILL CAUSE FRESHDAP (+1)
002372:
002373: 21,2013           41501                          CS       RCSFLAGS                              #  SET BIT3 TO REINITIALIZE FDAI ERROR
002374: 21,2014           74710                          MASK     BIT3                                  #         DISPLAY, IN CASE SC CONT SWITCH
002375: 21,2015           27501                          ADS      RCSFLAGS                              #         IN SCS NOT GNC (GUIDEMODE PRIMARY)
002376:
002377: 21,2016           00006                          EXTEND
002378: 21,2017           32006                          DCA      RCSADDR                               #  (RCSATT)
002379: 21,2020           53313                          DXCH     T5LOC
002380:
002381: 21,2021           44105                          CS       OCT60000                              #  SEE BITS 15,14 TO 01 TO INDICATE
002382: 21,2022           70102                          MASK     FLAGWRD6                              #         T5 TAKEOVER BY RCSDAP
002383: 21,2023           64675                          AD       BIT14
002384: 21,2024           54102                          TS       FLAGWRD6                              #  KILLS TVCEXEC AND ROLLDAP STARTS
002385:
002386: 21,2025           00002                          TC       Q                                     #  RETURN TO CALLER (TVCDAPOF OR RCSDAPUP)
002387:
002388:

End of include-file P40-P47.agc.  Parent file is MAIN.agc


