
Source Code
000001:                                                                                                 #  Copyright:     Public domain.
000002:                                                                                                 #  Filename:      P51-P53.agc
000003:                                                                                                 #  Purpose:       Part of the source code for Colossus, build 249.
000004:                                                                                                 #                 It is part of the source code for the Command Module's (CM)
000005:                                                                                                 #                 Apollo Guidance Computer (AGC), possibly for Apollo 8 and 9.
000006:                                                                                                 #  Assembler:     yaYUL
000007:                                                                                                 #  Reference:     pp. 697-742 of 1701.pdf.
000008:                                                                                                 #  Contact:       Ron Burkey <info@sandroid.org>.
000009:                                                                                                 #  Website:       www.ibiblio.org/apollo.
000010:                                                                                                 #  Mod history:   08/16/04 RSB.   Began adapting from corresponding Luminary131
000011:                                                                                                 #                                 file.
000012:                                                                                                 #                 08/22/04 RSB    Removed the "lunar and solar ephemerides subroutines"
000013:                                                                                                 #                                 to their own file.
000014:
000015:                                                                                                 #  The contents of the "Colossus249" files, in general, are transcribed
000016:                                                                                                 #  from a scanned document obtained from MIT's website,
000017:                                                                                                 #  http://hrst.mit.edu/hrs/apollo/public/archive/1701.pdf.  Notations on this
000018:                                                                                                 #  document read, in part:
000019:
000020:                                                                                                 #         Assemble revision 249 of AGC program Colossus by NASA
000021:                                                                                                 #         2021111-041.  October 28, 1968.
000022:
000023:                                                                                                 #         This AGC program shall also be referred to as
000024:                                                                                                 #                                 Colossus 1A
000025:
000026:                                                                                                 #         Prepared by
000027:                                                                                                 #                         Massachussets Institute of Technology
000028:                                                                                                 #                         75 Cambridge Parkway
000029:                                                                                                 #                         Cambridge, Massachusetts
000030:                                                                                                 #         under NASA contract NAS 9-4065.
000031:
000032:                                                                                                 #  Refer directly to the online document mentioned above for further information.
000033:                                                                                                 #  Please report any errors (relative to 1701.pdf) to info@sandroid.org.
000034:
000035:                                                                                                 #  In some cases, where the source code for Luminary 131 overlaps that of
000036:                                                                                                 #  Colossus 249, this code is instead copied from the corresponding Luminary 131
000037:                                                                                                 #  source file, and then is proofed to incorporate any changes.
000038:
000039:                                                                                                 #  Page 697
000040:                                                                                                 #  PROGRAM NAME -- PROG52                 DATE -- NOV 30, 1966
000041:                                                                                                 #  MOD NO -- 2                                    LOG SECTION -- P51-P53
000042:                                                                                                 #  MODIFICATION BY -- LONSKE                      ASSEMBLY -- SUNDISK REV 30
000043:
000044:                                                                                                 #  FUNCTIONAL DESCRIPTION --
000045:
000046:                                                                                                 #         ALIGNS THE IMU TO ONE OF THREE ORIENTATIONS SELECTED BY THE ASTRONAUT.  THE PRESENT IMU ORIENTATION IS KNOWN
000047:                                                                                                 #         AND IS STORED IN REFSMMAT.  THE THREE POSSIBLE ORIENTATIONS MAY BE:
000048:
000049:                                                                                                 #         (A)     PREFERRED ORIENTATION
000050:
000051:                                                                                                 #                 AN OPTIMUM ORIENTATION FOR A PREVIOUSLY CALCULATED MANEUVER.  THIS ORIENTATION MUST BE CALCULATED AND
000052:                                                                                                 #                 STORED BY A PREVIOUSLY SELECTED PROGRAM.
000053:
000054:                                                                                                 #         (B)     NOMINAL ORIENTATION
000055:
000056:                                                                                                 #                 X   = UNIT ( Y   x Z   )
000057:                                                                                                 #                 -SM          -SM   -SM
000058:
000059:                                                                                                 #                 Y   = UNIT (V X R)
000060:                                                                                                 #                 -SM         -   -
000061:
000062:                                                                                                 #                 Z   = UNIT ( -R )
000063:                                                                                                 #                 -SM           -
000064:
000065:                                                                                                 #                 WHERE:
000066:
000067:                                                                                                 #                 R = THE GEOMETRIC RADIUS VECTOR AT TIME T(ALIGN) SELECTED BY THE ASTRONAUT
000068:                                                                                                 #                 -
000069:
000070:                                                                                                 #                 V = THE INERTIAL VELOCITY VECTOR AT TIME T(ALIGN) SELECTED BY THE ASTRONAUT
000071:                                                                                                 #                 -
000072:
000073:                                                                                                 #         (C)     RERSMMAT ORIENTATION
000074:
000075:                                                                                                 #         (D)     LANDING SITE -- THIS IS NOT AVAILABLE IN SUNDANCE
000076:
000077:                                                                                                 #         THIS SELECTION CORRECTS THE PRESENT IMU ORIENTATION.  THE PRESENT ORIENTATION DIFFERS FROM THAT TO WHICH IT
000078:                                                                                                 #         WAS LAST ALIGNED ONLY DUE TO GYRO DRIVE (I.E., NEITHER GIMBAL LOCK NOR IMU POWER INTERRUPT HAS OCCURRED
000079:                                                                                                 #         SINCE THE LAST ALIGNMENT).
000080:
000081:                                                                                                 #         AFTER A IMU ORIENTATION HAS BEEN SELECTED ROUTINE S52.2 IS OPERATED TO COMPUTE THE GIMBAL ANGLES USING THE
000082:                                                                                                 #         NEW ORIENTATION AND THE PRESENT VEHICLE ATTITUDE.  CAL52A THEN USES THESE ANGLES, STORED IN THETAD,+1,+2, TO
000083:                                                                                                 #         COARSE ALIGN THE IMU.  THE STARS SELECTION ROUTINE, R56, IS THEN OPERATED.  IF 2 STARS ARE NOT AVAILABLE AN ALARM
000084:                                                                                                 #         IS FLASHED TO NOTIFY THE ASTRONAUT.  AT THIS POINT THE ASTRONAUT WILL MANEUVER THE VEHICLE AND SELECT 2 STARS
000085:                                                                                                 #         EITHER MANUALLY OR AUTOMATICALLY.  AFTER 2 STARS HAVE BEEN SELECTED THE IMU IS FINE ALIGNED USING ROUTINE R51.  IF
000086:                                                                                                 #         THE RENDEZVOUS NAVIGATION PROCESS IS OPERATING (INDICATED BY RNDVZFLG) P20 IS DISPLAYED.  OTHERWISE P00 IS
000087:                                                                                                 #         REQUESTED.
000088:
000089:                                                                                                 #  CALLING SEQUENCE --
000090:
000091:                                                                                                 #         THE PROGRAM IS CALLED BY THE ASTRONAUT BY DSKY ENTRY.
000092:                                                                                                 #  Page 698
000093:
000094:                                                                                                 #  SUBROUTINES CALLED --
000095:
000096:                                                                                                 #         1. FLAGDOWN              7. S52.2               13. NEWMODEX
000097:                                                                                                 #         2. R02BOTH               8. CAL53A              14. PRIOLARM
000098:                                                                                                 #         3. GOPERF4               9. FLAGUP
000099:                                                                                                 #         4. MATMOVE              10. R56
000100:                                                                                                 #         5. GOFLASH              11. R51
000101:                                                                                                 #         6. S52.3                12. GOPERF3
000102:
000103:                                                                                                 #  NORMAL EXIT MODES --
000104:
000105:                                                                                                 #         EXITS TO ENDOFJOB
000106:
000107:                                                                                                 #  ALARM OR ABORT EXIT MODES --
000108:
000109:                                                                                                 #         NONE
000110:
000111:                                                                                                 #  OUTPUT --
000112:
000113:                                                                                                 #         THE FOLLOWING MAY BE FLASHED ON THE DSKY
000114:                                                                                                 #                 1. IMU ORIENTATION CODE
000115:                                                                                                 #                 2. ALARM CODE 215 -- PREFERRED IMU ORIENTATION NOT SPECIFIED
000116:                                                                                                 #                 3. TIME OF NEXT IGNITION
000117:                                                                                                 #                 4. GIMBAL ANGLES
000118:                                                                                                 #                 5. ALARM CODE 405 -- TWO STARS NOT AVAILABLE
000119:                                                                                                 #                 6. PLEASE PERFORM P00
000120:                                                                                                 #         THE MODE DISPLAY MAY BE CHANGED TO 20
000121:
000122:                                                                                                 #  ERASABLE INITIALIZATION REQUIRED --
000123:
000124:                                                                                                 #         PFRATFLG SHOULD BE SET IF A PREFERRED ORIENTATION HAS BEEN COMPUTED.  IF IT HAS BEEN COMPUTED IT IS STORED IN
000125:                                                                                                 #         XSMD, YSMD, ZSMD.
000126:
000127:                                                                                                 #         RNDVZFLG INDICATES WHETHER THE RENDEZVOUS NAVIGATION PROCESS IS OPERATING.
000128:
000129:                                                                                                 #  DEBRIS --
000130:
000131:                                                                                                 #         WORK AREA
000132:
000133: 21,2026  15,2000               P54               =        PROG52
000134: 33,3772                                          BANK     33
000135: 15,2000                                          SETLOC   P50S
000136: 15,2000                                          BANK
000137:
000138: 15,2000  30,2000                                 SBANK=   LOWSUPER
000139: 15,2000  E5,1773                                 EBANK=   SAC
000140: 15,2000                                          COUNT    15/P52
000141:
000142: 15,2000           05301        PROG52            TC       PHASCHNG
000143: 15,2001           00254                          OCT      00254
000144: 15,2002           05447                          TC       DOWNFLAG
000145: 15,2003           00027                          ADRES    UPDATFLG                              #  BIT 7 FLAG 1
000146:                                                                                                 #  Page 699
000147: 15,2004           05447                          TC       DOWNFLAG
000148: 15,2005           00031                          ADRES    TRACKFLG                              #  BIT 5 FLAG 1
000149: 15,2006           04555                          TC       BANKCALL
000150: 15,2007           17573                          CADR     R02BOTH                               #  IMU STATUS CHECK
000151: 15,2010           34707                          CAF      BIT4
000152: 15,2011           70076                          MASK     STATE      +2                         #  IS PFRATFLG SET?
000153: 15,2012           10000                          CCS      A
000154: 15,2013           02016                          TC       P52A                                  #  YES
000155: 15,2014           34711                          CAF      BIT2                                  #  NO
000156: 15,2015           02017                          TC       P52A       +1
000157: 15,2016           34712        P52A              CAF      BIT1
000158: 15,2017           55132                          TS       OPTION2
000159: 15,2020           34712        P52B              CAF      BIT1
000160: 15,2021           04555                          TC       BANKCALL                              #  FLASH OPTION CODE AND ORIENTATION CODE
000161: 15,2022           21041                          CADR     GOPERF4R
000162: 15,2023           04106                          TC       GOTOP00H
000163: 15,2024           02031                          TC       +5
000164: 15,2025           02020                          TC       P52B                                  #  NEW CODE -- NEW ORIENTATION CODE INPUT
000165: 15,2026           05301                          TC       PHASCHNG
000166: 15,2027           00014                          OCT      00014
000167: 15,2030           05112                          TC       ENDOFJOB
000168:
000169: 15,2031           31132                          CA       OPTION2
000170: 15,2032           76214                          MASK     THREE
000171: 15,2033           50000                          INDEX    A
000172: 15,2034           02035                          TC       +1
000173: 15,2035           02041                          TC       P52T                                  #  L.S.
000174: 15,2036           02110                          TC       P52J                                  #  PREF
000175: 15,2037           02041                          TC       P52T                                  #  NORM
000176: 15,2040           12120                          TCF      P52C                                  #  REF
000177: 15,2041           00006        P52T              EXTEND
000178: 15,2042           34714                          DCA      NEG0
000179: 15,2043           53046                          DXCH     DSPTEM1
000180: 15,2044           32155                          CAF      V06N34
000181: 15,2045           04555                          TC       BANKCALL
000182: 15,2046           20624                          CADR     GOFLASH
000183: 15,2047           04106                          TC       GOTOP00H
000184: 15,2050           02052                          TC       +2
000185: 15,2051           02044                          TC       -5
000186: 15,2052           00006                          EXTEND
000187: 15,2053           31046                          DCA      DSPTEM1
000188: 15,2054           00006                          EXTEND
000189: 15,2055           12057                          BZF      +2
000190: 15,2056           12062                          TCF      +4
000191:
000192: 15,2057           00006                          EXTEND
000193: 15,2060           30025                          DCA      TIME2
000194: 15,2061           53046                          DXCH     DSPTEM1
000195: 15,2062           31132                          CA       OPTION2
000196: 15,2063           74711                          MASK     BIT2
000197: 15,2064           10000                          CCS      A
000198:                                                                                                 #  Page 700
000199: 15,2065           12073                          TCF      +6                                    #  NOM
000200: 15,2066           06006                          TC       INTPRET                               #  LS
000201: 15,2067           77624                          CALL
000202: 15,2070           34506                                   P52LS
000203: 15,2071           77650                          GOTO
000204: 15,2072           32100                                   P52D
000205: 15,2073           06006                          TC       INTPRET
000206: 15,2074           77745                          DLOAD
000207: 15,2075           01046                                   DSPTEM1
000208: 15,2076           77624                          CALL                                           #  COMPUTE NOMINAL IMU
000209: 15,2077           34636                                   S52.3                                 #         ORIENTATION
000210: 15,2100           77624        P52D              CALL                                           #  READ VEHICLE ATTITUDE AND
000211: 15,2101           22256                                   S52.2                                 #         COMPUTE GIMBAL ANGLES
000212: 15,2102           77776                          EXIT
000213: 15,2103           32156                          CAF      VB06N22
000214: 15,2104           04555                          TC       BANKCALL                              #  DISPLAY GIMBAL ANGLES
000215: 15,2105           20624                          CADR     GOFLASH
000216: 15,2106           04106                          TC       GOTOP00H
000217: 15,2107           02113                          TC       +4                                    #  PROCEED
000218: 15,2110           06006        P52J              TC       INTPRET                               #  RECYCLE: VEHICLE HAS BEEN MANEUVERED
000219: 15,2111           77650                          GOTO
000220: 15,2112           32100                                   P52D
000221: 15,2113           06006                          TC       INTPRET
000222: 15,2114           77624                          CALL                                           #  DO COARSE ALIGN
000223: 15,2115           30756                                   CAL53A                                #         ROUTINE
000224: 15,2116           77414                          SET      EXIT
000225: 15,2117           01462                                   REFSMFLG
000226: 15,2120           34720        P52C              CAF      ALRM15
000227: 15,2121           04555                          TC       BANKCALL
000228: 15,2122           20751                          CADR     GOPERF1
000229: 15,2123           04106                          TC       GOTOP00H
000230: 15,2124           02126                          TC       +2                                    #  V33
000231: 15,2125           02140                          TC       P52F                                  #  B
000232: 15,2126           06006                          TC       INTPRET
000233: 15,2127           43234                          RTB      DAD
000234: 15,2130           45505                                   LOADTIME
000235: 15,2131           32176                                   TSIGHT1
000236: 15,2132           77624                          CALL
000237: 15,2133           30216                                   LOCSAM
000238: 15,2134           77776                          EXIT
000239: 15,2135           04555        P52E              TC       BANKCALL                              #  DO STAR SELECTION
000240: 15,2136           30324                          CADR     PICAPAR
000241: 15,2137           02145                          TC       P52I                                  #  2 STARS NOT AVAILABLE
000242: 15,2140           06006        P52F              TC       INTPRET                               #  2 STARS AVAILABLE
000243: 15,2141           77624                          CALL
000244: 15,2142           30523                                   R51
000245: 15,2143           77776        ENDP50S           EXIT
000246: 15,2144           04106                          TC       GOTOP00H
000247: 15,2145           05537        P52I              TC       ALARM
000248: 15,2146           00405                          OCT      405
000249:                                                                                                 #  Page 701
000250: 15,2147           34743                          CAF      V05N09
000251: 15,2150           04555                          TC       BANKCALL
000252: 15,2151           20624                          CADR     GOFLASH
000253: 15,2152           04106                          TC       GOTOP00H
000254: 15,2153           02140                          TC       P52F                                  #  PROCEED:  DO FINE ALIGN-R51
000255: 15,2154           02120                          TC       P52C                                  #  RECYCLE:  VEHICLE HAS BEEN MANEUVERED
000256:
000257: 15,2155           01442        V06N34            VN       0634
000258: 15,2156           01426        VB06N22           VN       00622
000259: 15,2157     4720               ALRM15            EQUALS   OCT15
000260: 16,2000                                          SETLOC   P50S2
000261: 16,2000                                          BANK
000262: 16,2505           01531        V06N89*           VN       0689
000263:
000264:                                                                                                 #  NAME -- P52LS
000265:
000266:                                                                                                 #  FUNCTION -- TO DISPLAY THE LANDING SITE LATITUDE,
000267:                                                                                                 #  LONGITUDE AND ALTITUDE.  TO ACCEPT NEW DATA VIA
000268:                                                                                                 #  THE KEYBOARD.  TO COMPUT THE LANDING SITE
000269:                                                                                                 #  ORIENTATIION FOR P52 OR P54.
000270:
000271:                                                                                                 #  LET:
000272:                                                                                                 #         RLS  = LANDING SITE VECTOR IN REF COORDINATES
000273:                                                                                                 #         R    = CSM POSITION VECTOR IN REF COORDINATES
000274:                                                                                                 #         V    = CSM VELOCITY VECTOR IN REF COORDINATES
000275:                                                                                                 #  THEN THE LANDING SITE ORIENTATION IS:
000276:                                                                                                 #         XSMD = UNIT(RLS)
000277:                                                                                                 #         YSMD = UNIT(ZSMD*XSMD)
000278:                                                                                                 #         ZSMD = UNIT((R*V)*RLS)
000279:
000280:                                                                                                 #  CALL:          CALL
000281:                                                                                                 #                         P52LS
000282:
000283:                                                                                                 #  INPUTS:        DSPTEM1 = TIME OF ALIGNMENT
000284:                                                                                                 #                 RLS = LANDING SITE VECTOR IN MOON FIXED COORDINATES
000285:
000286:                                                                                                 #  OUTPUTS:       XSMD, YSMD, ZSMD
000287:
000288:                                                                                                 #  SUBROUTINES:   RP-TO-R, LAT-LONG, LLASRD, LLASRDA, CSMPREC
000289:
000290:                                                                                                 #  DEBRIS:        VAC, SEE SUBROUTINES
000291:
000292: 16,2506           43020        P52LS             STQ      SET
000293: 16,2507           00300                                   QMAJ
000294: 16,2510           01463                                   LUNAFLAG
000295: 16,2511           77745                          DLOAD
000296: 16,2512           01046                                   DSPTEM1
000297: 16,2513           02607                          STORE    TSIGHT
000298: 16,2514           43175                          VLOAD    SET
000299: 16,2515           02026                                   RLS
000300: 16,2516           00462                                   ERADFLAG
000301: 16,2517           14001                          STODL    0D
000302: 16,2520           02607                                   TSIGHT
000303: 16,2521           34007                          STCALL   6D
000304: 16,2522           55341                                   RP-TO-R
000305: 16,2523           77742                          VSR2
000306: 16,2524           16152                          STODL    ALPHAV
000307: 16,2525           02607                                   TSIGHT
000308:                                                                                                 #  Page 702
000309: 16,2526           77624                          CALL
000310: 16,2527           26322                                   LAT-LONG
000311: 16,2530           77624                          CALL
000312: 16,2531           61336                                   LLASRD
000313: 16,2532           77776                          EXIT
000314:
000315: 16,2533           32505        LSDISP            CAF      V06N89*
000316: 16,2534           04555                          TC       BANKCALL
000317: 16,2535           20624                          CADR     GOFLASH
000318: 16,2536           04106                          TC       GOTOP00H
000319: 16,2537           02541                          TC       +2
000320: 16,2540           02533                          TC       LSDISP
000321: 16,2541           06006                          TC       INTPRET
000322: 16,2542           77624                          CALL
000323: 16,2543           61345                                   LLASRDA
000324: 16,2544           45145                          DLOAD    CALL
000325: 16,2545           02607                                   TSIGHT
000326: 16,2546           26373                                   LALOTORV
000327: 16,2547           53575                          VLOAD    UNIT
000328: 16,2550           02152                                   ALPHAV
000329: 16,2551           14307                          STODL    XSMD
000330: 16,2552           02607                                   TSIGHT
000331: 16,2553           34041                          STCALL   TDEC1
000332: 16,2554           27022                                   CSMPREC
000333: 16,2555           47375                          VLOAD    VXV
000334: 16,2556           00001                                   RATT
000335: 16,2557           00007                                   VATT
000336: 16,2560           53435                          VXV      UNIT
000337: 16,2561           00307                                   XSMD
000338: 16,2562           00323                          STORE    ZSMD
000339: 16,2563           53435                          VXV      UNIT
000340: 16,2564           00307                                   XSMD
000341: 16,2565           34315                          STCALL   YSMD
000342: 16,2566           00300                                   QMAJ
000343: 14,2000                                          SETLOC   P50S1
000344: 14,2000                                          BANK
000345:
000346:                                                                                                 #  Page 703
000347:                                                                                                 #  NAME:          AUTOMATIC OPTICS POSITIONING ROUTINE
000348:
000349:                                                                                                 #  FUNCTION:      (1) TO POINT THE STAR LOS OF THE OPTICS AT A STAR OR LANDMARK DEFINED BY THE PROGRAM OR BY DSKY INPUT.
000350:                                                                                                 #                 (2) TO POINT THE STAR LOS OF THE OPTICS AT THE LEM DURING RENDEZVOUS TRACKING OPERATIONS.
000351:
000352:                                                                                                 #  CALLING:       CALL R52
000353:
000354:                                                                                                 #  INPUT: 1.  TARG1FLG AND TARG2FLG:  PRESET BY CALLER
000355:                                                                                                 #                 2.  RNDVZFLG AND TRACKFLG:  PRESET BY CALLER
000356:                                                                                                 #                 3.  STAR CODE:  PRESET BY CALLER.  ALSO INPUT THROUGH DSKY
000357:                                                                                                 #                 4.  LAT, LONG, AND ALT OF LANDMARK:  INPUT THROUGH DSKY
000358:                                                                                                 #                 5.  NO. OF MARKS (MARKINDX):  PRESET BY CALLER
000359:
000360:                                                                                                 #  OUTPUT:        DRIVE SHAFT AND TRUNNION CDUS.
000361:                                                                                                 #  Page 703
000362:
000363:                                                                                                 #  SUBROUTINES:   1.  FIXDELAY            7.  CLEANDSP
000364:                                                                                                 #                 2.  GOPERF1             8.  GODSPR
000365:                                                                                                 #                 3.  GOFLASH             9.  REFLASHR
000366:                                                                                                 #                 4.  R53                 10. R52.2
000367:                                                                                                 #                 5.  ALARM               11. R52.3
000368:                                                                                                 #                 6.  SR52.1
000369:
000370: 14,2002                                          COUNT    15/R52
000371:
000372: 14,2002           43020        R52               STQ      CLEAR
000373: 14,2003           02576                                   SAVQR52
000374: 14,2004           04265                                   ADVTRK
000375: 14,2005           77776        R52VRB            EXIT
000376: 14,2006           00006                          EXTEND
000377: 14,2007           30036                          DCA      CDUT
000378: 14,2010           53161                          DXCH     DESOPTT
000379: 14,2011           06006                          TC       INTPRET
000380: 14,2012           43131                          SSP      CLEAR
000381: 14,2013           01304                                   OPTIND
000382: 14,2014           00000                                   0
000383: 14,2015           00271                                   R53FLAG
000384: 14,2016           77776                          EXIT
000385: 14,2017           06006        R52A              TC       INTPRET
000386: 14,2020           43014                          SET      BON
000387: 14,2021           00073                                   TRUNFLAG
000388: 14,2022           00705                                   TARG1FLG
000389: 14,2023           30103                                   R52H
000390: 14,2024           77414                          CLEAR    EXIT
000391: 14,2025           03660                                   TERMIFLG
000392: 14,2026           31314        R52C              CA       SWSAMPLE                              #  IS OPTICS MODE IN AGC
000393: 14,2027           00006                          EXTEND
000394: 14,2030           62131                          BZMF     R52M                                  #  MANUAL
000395: 14,2031           04555        R52D              TC       BANKCALL                              #  AGC
000396: 14,2032           26176                          CADR     SR52.1
000397: 14,2033           12161                          TCF      R52L                                  #  GR 90 DEGREES
000398: 14,2034           12124                          TCF      R52J                                  #  GR 50 DEGREES
000399: 14,2035           05435                          TC       UPFLAG                                #  LS 50 DEGREES
000400: 14,2036           00013                          ADRES    TRUNFLAG                              #  SET TRUNFLAG BIT 4 FLAG 0
000401: 14,2037           34701        R52JA             CAF      BIT10                                 #  IS THIS A LEM
000402: 14,2040           70075                          MASK     STATE      +1
000403: 14,2041           10000                          CCS      A
000404: 14,2042           02052                          TC       R52E                                  #  YES
000405: 14,2043           34705                          CAF      BIT6                                  #  NO, IS R53FLAG SET
000406: 14,2044           70074                          MASK     STATE
000407: 14,2045           10000                          CCS      A
000408: 14,2046           12052                          TCF      R52E                                  #  YES
000409: 14,2047           32151                          CAF      V06N92                                #  NO
000410: 14,2050           04555                          TC       BANKCALL
000411: 14,2051           20602                          CADR     GODSPR
000412: 14,2052           31314        R52E              CA       SWSAMPLE                              #  IS OSS IN CMC MODE
000413:                                                                                                 #  Page 704
000414: 14,2053           00006                          EXTEND
000415: 14,2054           62065                          BZMF     R52F                                  #  NO
000416: 14,2055           40074                          CS       STATE                                 #  YES: IS TRUNFLAG SET
000417: 14,2056           74707                          MASK     BIT4
000418: 14,2057           10000                          CCS      A
000419: 14,2060           02063                          TC       +3                                    #  NO
000420: 14,2061           31775                          CA       PAC                                   #  YES
000421: 14,2062           55160                          TS       DESOPTT
000422: 14,2063           31773                          CA       SAC
000423: 14,2064           55161                          TS       DESOPTS
000424: 14,2065           34731        R52F              CAF      .5SEC                                 #  WAIT 1/2 SEC
000425: 14,2066           04555                          TC       BANKCALL
000426: 14,2067           01732                          CADR     DELAYJOB
000427: 14,2070           34701                          CAF      BIT10
000428: 14,2071           70075                          MASK     STATE      +1
000429: 14,2072           10000                          CCS      A
000430: 14,2073           12104                          TCF      R52HA                                 #  YES, LEM
000431: 14,2074           34674                          CAF      BIT15                                 #  NO
000432: 14,2075           70103                          MASK     STATE      +7                         #  IS TERMIFLG SET
000433: 14,2076           00006                          EXTEND
000434: 14,2077           12026                          BZF      R52C                                  #  NO
000435: 14,2100           06006        R52Q              TC       INTPRET                               #  YES
000436: 14,2101           77650                          GOTO
000437: 14,2102           02576                                   SAVQR52
000438: 14,2103           77776        R52H              EXIT                                           #  LEM
000439: 14,2104           04555        R52HA             TC       BANKCALL
000440: 14,2105           76536                          CADR     R61CSM
000441: 14,2106           30075                          CA       STATE      +1
000442: 14,2107           74706                          MASK     BIT5
000443: 14,2110           00006                          EXTEND                                         #  TRACKFLG
000444: 14,2111           12100                          BZF      R52Q
000445:
000446: 14,2112           40075                          CS       STATE      +1
000447: 14,2113           74704                          MASK     BIT7                                  #  UPDATFLG
000448: 14,2114           10000                          CCS      A
000449: 14,2115           12122                          TCF      R52SYNC
000450:
000451: 14,2116           30101        R52I              CA       STATE      +5
000452: 14,2117           74701                          MASK     BIT10
000453: 14,2120           10000                          CCS      A
000454: 14,2121           02031                          TC       R52D                                  #  PRFTRKAT = 1
000455: 14,2122           32175        R52SYNC           CAF      1.8SEC                                #  MAKE UP FOR LOST TIME
000456: 14,2123           12066                          TCF      R52F       +1
000457:
000458: 14,2124           05447        R52J              TC       DOWNFLAG                              #  CLEAR TRUNFLAG
000459: 14,2125           00013                          ADRES    TRUNFLAG                              #  BIT 4 FLAG 0
000460: 14,2126           05537                          TC       ALARM                                 #  SET 407 ALARM
000461: 14,2127           00407                          OCT      407
000462: 14,2130           02037                          TC       R52JA
000463: 14,2131           34705        R52M              CAF      BIT6                                  #  IS R53FLAG SET
000464:                                                                                                 #  Page 705
000465: 14,2132           70074                          MASK     STATE
000466: 14,2133           10000                          CCS      A
000467: 14,2134           02065                          TC       R52F                                  #  YES
000468: 14,2135           00004                          INHINT                                         #  NO
000469: 14,2136           37661                          CAF      PRIO24
000470: 14,2137           05042                          TC       FINDVAC
000471: 14,2140  E5,1773                                 EBANK=   SAC
000472: 14,2140           02144 30065                    2CADR    R53JOB
000473:
000474: 14,2142           00003                          RELINT
000475: 14,2143           12065                          TCF      R52F
000476: 14,2144           06006        R53JOB            TC       INTPRET
000477: 14,2145           77624                          CALL
000478: 14,2146           31322                                   R53
000479: 14,2147           77776        ENDPLAC           EXIT                                           #  INTERPRETER RETURN TO ENDOFJOB (R22 USES)
000480: 14,2150           05112                          TC       ENDOFJOB
000481:
000482: 14,2151           01534        V06N92            VN       00692
000483: 14,2152           01531        V06N89A           VN       0689
000484: 14,2153           10464 12470  SHAXIS            2DEC     .5376381241 B-1
000485: 14,2155           00000 00000                    2DEC     0          B-28
000486: 14,2157           15373 11554                    2DEC     .8431766920 B-1
000487:
000488: 14,2161           34701        R52L              CAF      BIT10                                 #  IS THIS A LEM
000489: 14,2162           70075                          MASK     STATE      +1
000490: 14,2163           10000                          CCS      A
000491: 14,2164           02124                          TC       R52J                                  #  YES
000492: 14,2165           32174                          CAF      OCT404
000493: 14,2166           04555                          TC       BANKCALL
000494: 14,2167           21671                          CADR     PRIOLARM
000495: 14,2170           12176                          TCF      TERM52                                #  TERMINATE
000496: 14,2171           12065                          TCF      R52F                                  #  PROCEED
000497: 14,2172           12065                          TCF      R52F                                  #  NO PROVISION FOR NEW DATA
000498: 14,2173           15112                          TCF      ENDOFJOB
000499:
000500: 14,2174           00404        OCT404            OCT      404
000501: 14,2175           00264        1.8SEC            DEC      180        B-14
000502:
000503: 14,2176           05425        TERM52            TC       CLEARMRK
000504:
000505: 14,2177           04555                          TC       BANKCALL                              #  KILL MARK SYSTEM
000506: 14,2200           16063                          CADR     MKRELEAS
000507:
000508: 14,2201           34714                          CAF      ZERO
000509: 14,2202           55323                          TS       OPTCADR
000510:
000511: 14,2203           04555                          TC       BANKCALL                              #  CLEAR OUT EXTENDED VERBS
000512:                                                                                                 #  Page 706
000513: 14,2204           20464                          CADR     KLEENEX
000514:
000515: 14,2205           04106                          TC       GOTOP00H                              #  NO GO TO P00
000516:
000517: 14,2206           43020        ADVORB            STQ      SET                                   #  SETS UP ADVANCED ORBIT TRACKING
000518: 14,2207           02576                                   SAVQR52
000519: 14,2210           04065                                   ADVTRK
000520: 14,2211           43014                          SET      SET
000521: 14,2212           01463                                   LUNAFLAG
000522: 14,2213           00462                                   ERADFLAG
000523: 14,2214           77650                          GOTO
000524: 14,2215           30005                                   R52VRB
000525:                                                                                                 #  Page 707
000526:                                                                                                 #  NAME -- S50 ALIAS LOCSAM
000527:                                                                                                 #  NAME:  LOCSAM
000528:
000529:                                                                                                 #  FUNCTION -- TO COMPUTE QUATITIGS LISTED BELOW, USED IN THE
000530:                                                                                                 #               IMU ALIGNMENT PROGRAMS.
000531:
000532:                                                                                                 #         DEFINE:
000533:
000534:                                                                                                 #         RATT = POSITION VECTOR OF CM WRT PRIMARY BODY
000535:
000536:                                                                                                 #         VATT = VELOCITY VECTOR OF CM WRT PRIMARY BODY
000537:
000538:                                                                                                 #         RE = RADIUS OF EARTH
000539:
000540:                                                                                                 #         RM = RADIUS OF MOON
000541:
000542:                                                                                                 #         ECLIPOL = POLE OF ECLIPTIC SCALED BY TANGENTIAL VELOCITY OF EARTH
000543:                                                                                                 #                   WRT TO SUNOVER THE VELOCITY OF LIGHT
000544:
000545:                                                                                                 #         REM = POSITION OF MOON WRT EARTH
000546:
000547:                                                                                                 #         RES = POSITION OF SUN WRT EARTH
000548:
000549:                                                                                                 #         C = VELOCITY OF LIGHT
000550:
000551:                                                                                                 #                 EARTH IS PRIMARY                        MOON IS PRIMARY
000552:                                                                                                 #                         _                                       _
000553:                                                                                                 #                 VEARTH=-1(RATT)                         VEARTH=-1(REM+RATT)
000554:                                                                                                 #                         _                                       _
000555:                                                                                                 #                 VMOON = 1(REM-RATT)                     VMOON =-1(RATT)
000556:                                                                                                 #                         _                                       _
000557:                                                                                                 #                 VSUN  = 1(RES)                          VSUN  = 1(RES-REM)
000558:                                                                                                 #                               -1
000559:                                                                                                 #                 CEARTH=COS(SIN  (RE/RATT)+5)            CEARTH=COS 5
000560:                                                                                                 #                                                                       -1
000561:                                                                                                 #                 CMOON =COS 5                            CMOON =COS(SIN  CRM/RATT)+5)
000562:
000563:                                                                                                 #                 CSUN  =COS 15                           CSUN  =COS 15
000564:
000565:                                                                                                 #                             VEL/C = VSUN x ECLIPOL + VATT/C
000566:
000567:                                                                                                 #  CALL:          DLOAD   CALL
000568:                                                                                                 #                         DESIRED TIME
000569:                                                                                                 #                         LOCSAM
000570:
000571:                                                                                                 #  INPUTS:  MPAC = TIME
000572:
000573:                                                                                                 #  OUTPUTS:  VEARTH, VMOON, VSUN, CEARTH, CMOON, CSUN, VEL/C
000574:
000575:                                                                                                 #  SUBROUTINES:  LSPOS, CSMCONIC
000576:
000577:                                                                                                 #  DEBRIS:  VAC AREA, SEE SUBROUTINES.
000578:
000579:                                                                                                 #  Page 708
000580: 14,2000                                          SETLOC   P50S1
000581: 14,2000                                          BANK
000582:
000583: 14,2216                                          COUNT*   $$/S50
000584:
000585: 14,2216  14,2216               LOCSAM            =        S50
000586: 14,2216           77620        S50               STQ
000587: 14,2217           00300                                   QMAJ
000588: 14,2220           36607                          STCALL   TSIGHT
000589: 14,2221           54110                                   LSPOS
000590: 14,2222           26752                          STOVL    VMOON
000591: 14,2223           00003                                   2D
000592: 14,2224           16744                          STODL    VSUN
000593: 14,2225           02607                                   TSIGHT
000594: 14,2226           34041                          STCALL   TDEC1
000595: 14,2227           27045                                   CSMCONIC
000596: 14,2230           61131                          SSP      TIX,2
000597: 14,2231           00052                                   S2
000598: 14,2232           00000                                   0
000599: 14,2233           30256                                   MOONCNTR
000600: 14,2234           52375        EARTCNTR          VLOAD    VSU
000601: 14,2235           02752                                   VMOON
000602: 14,2236           00001                                   RATT
000603: 14,2237           77656                          UNIT
000604: 14,2240           26752                          STOVL    VMOON
000605: 14,2241           00001                                   RATT
000606: 14,2242           57456                          UNIT     VCOMP
000607: 14,2243           16736                          STODL    VEARTH
000608: 14,2244           32162                                   RSUBE
000609: 14,2245           77624                          CALL
000610: 14,2246           30316                                   OCCOS
000611: 14,2247           14017                          STODL    CEARTH
000612: 14,2250           32200                                   CSS5
000613: 14,2251           24023                          STOVL    CMOON
000614: 14,2252           02744                                   VSUN
000615: 14,2253           77656                          UNIT
000616: 14,2254           36744                          STCALL   VSUN
000617: 14,2255           30303                                   ENDSAM
000618: 14,2256           40575        MOONCNTR          VLOAD    VSR8
000619: 14,2257           02752                                   VMOON
000620: 14,2260           51362                          VSR1     BVSU
000621: 14,2261           02744                                   VSUN
000622: 14,2262           77656                          UNIT
000623: 14,2263           26744                          STOVL    VSUN
000624: 14,2264           02752                                   VMOON
000625: 14,2265           53455                          VAD      UNIT
000626: 14,2266           00001                                   RATT
000627: 14,2267           77676                          VCOMP
000628: 14,2270           26736                          STOVL    VEARTH
000629:                                                                                                 #  Page 709
000630:
000631: 14,2271           00001                                   RATT
000632: 14,2272           57456                          UNIT     VCOMP
000633: 14,2273           16752                          STODL    VMOON
000634: 14,2274           32160                                   RSUBM
000635: 14,2275           77624                          CALL
000636: 14,2276           30316                                   OCCOS
000637: 14,2277           14023                          STODL    CMOON
000638: 14,2300           32200                                   CSS5
000639: 14,2301           24017                          STOVL    CEARTH
000640: 14,2302           02744                                   VSUN
000641: 14,2303           77635        ENDSAM            VXV
000642: 14,2304           32170                                   ECLIPOL
000643: 14,2305           27474                          STOVL    VEL/C
000644: 14,2306           00007                                   VATT
000645: 14,2307           53361                          VXSC     VAD
000646: 14,2310           32166                                   1/C
000647: 14,2311           03474                                   VEL/C
000648: 14,2312           17474                          STODL    VEL/C
000649: 14,2313           32202                                   CSSUN
000650: 14,2314           34021                          STCALL   CSUN
000651: 14,2315           00300                                   QMAJ
000652: 14,2316           70471        OCCOS             DDV      SR1
000653: 14,2317           00045                                   36D
000654: 14,2320           43336                          ASIN     DAD
000655: 14,2321           32164                                   5DEGREES
000656: 14,2322           70546                          COS      SR1
000657: 14,2323           77616                          RVQ
000658: 15,2000                                          SETLOC   P50S
000659: 15,2000                                          BANK
000660: 15,2157           00065 01265  RSUBM             2DEC     1738090    B-29                       #  MOON RADIUS IN METERS
000661: 15,2161           00302 24533  RSUBE             2DEC     6378166    B-29
000662: 15,2163           00343 21616  5DEGREES          2DEC     .013888889                            #  SCALED IN REVS
000663: 15,2165           00000 13143  1/C               2DEC     .000042699 B-1                        #  *
000664: 15,2167           00000 00000  ECLIPOL           2DEC     0          B-28                       #  *
000665: 15,2171           77777 53231                    2DEC     -.00007896 B-1                        #  *
000666: 15,2173           00001 17570                    2DEC     .00018209  B-1                        #  *              * FOR USE BY CSM ONLY
000667: 15,2175           00001 16700  TSIGHT1           2DEC     24000      B-28
000668:
000669: 15,2177                        CEARTH            =        14D
000670: 15,2177                        CSUN              =        16D
000671: 15,2177                        CMOON             =        18D
000672: 15,2177           07760 14473  CSS5              2DEC     .2490475                              #  (COS 5)/4
000673:                                                                                                 #  Page 710
000674: 15,2201           07564 15042  CSSUN             2DEC     .24148                                #  (COS 15)/4
000675:
000676:                                                                                                 #  Page 711
000677:                                                                                                 #  PROGRAM NAME -- PICAPAR        DATE: DEC 20 66
000678:                                                                                                 #  MOD 1                          LOG SECTION: P51-P53
000679:                                                                                                 #                                 ASSEMBLY:  SUNDISK REV40
000680:                                                                                                 #  BY KEN VINCENT
000681:
000682:                                                                                                 #  FUNCTION
000683:                                                                                                 #         THIS PROGRAM READS THE IMU-CDUS AND COMPUTES THE VEHICLE ORIENTATION
000684:                                                                                                 #         WITH RESPECT TO INERTIAL SPACE.  IT THEN COMPUTES THE SHAFT AXIS (SAX)
000685:                                                                                                 #         WITH RESPECT TO REFERENCE INTERTIAL.  EACH STAR IN THE CATALOG IS TESTED
000686:                                                                                                 #         TO DETERMINE IF IT IS OCCULTED BY EITHER EARTH, SUN OR MOON.  IF A
000687:                                                                                                 #         STAR IS NOT OCCULTED THEN IT IS PARIED WITH ALL STARS OF LOWER INDEX.
000688:                                                                                                 #         THE PAIRED STAR IS TESTED FOR OCCULTATION.  PAIRS OF STARS THAT PASS
000689:                                                                                                 #         THE OCCULTATION TESTS ARE TESTED FOR GOOD SEPARATION.  A PAIR OF STARS
000690:                                                                                                 #         HAVE GOOD SEPARATION IF THE ANGLE BETWEEN THEM IS LESS THAN 66 DEGREES
000691:                                                                                                 #         AND MORE THAN 40 DEGREES.  THOSE PAIRS WITH GOOD SEPARATION
000692:                                                                                                 #         ARE THEN TESTED TO SEE IF THEY LIE IN CURRENT FIELD OF VIEW.  (WITHIN
000693:                                                                                                 #         33 DEGREES OF SAX).  THE PAIR WITH MAX SEPARATION IS CHOSEN FROM
000694:                                                                                                 #         THOSE WITH GOOD SEPARATION, AND IN FIELD OF VIEW.
000695:
000696:                                                                                                 #  CALLING SEQUENCE
000697:                                                                                                 #         L       TC      BANKCALL
000698:                                                                                                 #         L+1     CADR    PICAPAR
000699:                                                                                                 #         L+2     ERROR RETURN -- NO STARS IN FIELD OF VIEW
000700:                                                                                                 #         L+3     NORMAL RETURN
000701:
000702:                                                                                                 #  OUTPUT
000703:                                                                                                 #         BESTI, BESTJ -- SINGLE PREC, INTEGERS, STAR NUMBERS TIMES 6
000704:                                                                                                 #         VFLAG -- FLAG BIT SET IMPLIES NO STARS IN FIELD OF VIEW
000705:
000706:                                                                                                 #  INITIALIZATION
000707:                                                                                                 #         1)      A CALL TO LOCSAM MUST BE MADE
000708:                                                                                                 #         2)      VEARTH = -UNIT(R) WHERE R HAS BEEN UPDATED TO APPROXIMATE TIME OF
000709:                                                                                                 #                 SIGHTINGS.
000710:
000711:                                                                                                 #  DEBRIS
000712:                                                                                                 #         WORK AREA
000713:                                                                                                 #         X,Y,ZNB
000714:                                                                                                 #         SINCDU, COSCDU
000715:                                                                                                 #         STARAD -- STAR +5
000716:
000717: 15,2203                                          COUNT    14/PICAP
000718:
000719: 14,2000                                          SETLOC   P50S1
000720: 14,2000                                          BANK
000721: 14,2324           04604        PICAPAR           TC       MAKECADR
000722: 14,2325           55777                          TS       QMIN
000723: 14,2326           06006                          TC       INTPRET
000724: 14,2327           77624                          CALL
000725: 14,2330           47432                                   CDUTRIG
000726: 14,2331           77624                          CALL
000727: 14,2332           34567                                   CALCSMSC
000728:                                                                                                 #  Page 712
000729: 14,2333           77601                          SETPD
000730: 14,2334           00001                                   0
000731: 14,2335           71214                          SET      DLOAD                                 #  VFLAG = 1
000732: 14,2336           01465                                   VFLAG
000733: 14,2337           11456                                   DPZERO
000734: 14,2340           24303                          STOVL    BESTI
000735: 14,2341           02714                                   XNB
000736: 14,2342           63361                          VXSC     PDVL
000737: 14,2343           30502                                   SIN33
000738: 14,2344           02730                                   ZNB
000739: 14,2345           74370                          AXT,1    VXSC
000740: 14,2346           00344                                   228D                                  #  X1 = 37 X 6 + 6
000741: 14,2347           30504                                   COS33
000742: 14,2350           77655                          VAD
000743: 14,2351           53505                          VXM      UNIT
000744: 14,2352           01736                                   REFSMMAT
000745: 14,2353           02760                          STORE    SAX                                   #  SAX = SHAFT AXIS
000746: 14,2354           66331                          SSP      SSP                                   #  S1 = S2 = 6
000747: 14,2355           00051                                   S1
000748: 14,2356           00006                                   6
000749: 14,2357           00052                                   S2
000750: 14,2360           00006                                   6
000751: 14,2361           52100        PIC1              TIX,1    GOTO                                  #  MAJOR STAR
000752: 14,2362           30364                                   PIC2
000753: 14,2363           30513                                   PICEND
000754: 14,2364           45173        PIC2              VLOAD*   CALL
000755: 14,2365           31744                                   CATLOG,1
000756: 14,2366           30457                                   OCCULT
000757: 14,2367           73014                          BON      LXA,2
000758: 14,2370           01710                                   CULTFLAG
000759: 14,2371           30361                                   PIC1
000760: 14,2372           00046                                   X1
000761: 14,2373           52104        PIC3              TIX,2    GOTO
000762: 14,2374           30376                                   PIC4
000763: 14,2375           30361                                   PIC1
000764: 14,2376           45173        PIC4              VLOAD*   CALL
000765: 14,2377           46033                                   CATLOG,2
000766: 14,2400           30457                                   OCCULT
000767: 14,2401           76614                          BON      VLOAD*
000768: 14,2402           01710                                   CULTFLAG
000769: 14,2403           30373                                   PIC3
000770: 14,2404           31744                                   CATLOG,1
000771: 14,2405           45237                          DOT*     DSU
000772: 14,2406           46033                                   CATLOG,2
000773: 14,2407           30506                                   CSS66                                 #  SEPARATION LESS THAN 66 DEG.
000774: 14,2410           43240                          BMN      DAD
000775: 14,2411           30373                                   PIC3
000776: 14,2412           30510                                   CSS6640                               #  SEPARATION MORE THAN 40 DEG.
000777: 14,2413           77644                          BPL
000778: 14,2414           30373                                   PIC3
000779:                                                                                                 #  Page 713
000780: 14,2415           50373                          VLOAD*   DOT
000781: 14,2416           31744                                   CATLOG,1
000782: 14,2417           02760                                   SAX
000783: 14,2420           50025                          DSU      BMN                                   #  MAJOR STAR IN CONE
000784: 14,2421           30512                                   CSS33
000785: 14,2422           30361                                   PIC1
000786: 14,2423           50373                          VLOAD*   DOT
000787: 14,2424           46033                                   CATLOG,2
000788: 14,2425           02760                                   SAX
000789: 14,2426           51025                          DSU      BPL
000790: 14,2427           30512                                   CSS33
000791: 14,2430           30433                                   STRATGY
000792: 14,2431           77650                          GOTO
000793: 14,2432           30373                                   PIC3
000794: 14,2433           77614        STRATGY           BONCLR
000795: 14,2434           01605                                   VFLAG
000796: 14,2435           30452                                   NEWPAR
000797: 14,2436           65120                          XCHX,1   XCHX,2
000798: 14,2437           00302                                   BESTI
000799: 14,2440           00303                                   BESTJ
000800: 14,2441           47773        STRAT             VLOAD*   DOT*
000801: 14,2442           31744                                   CATLOG,1
000802: 14,2443           46033                                   CATLOG,2
000803: 14,2444           43006                          PUSH     BOFINV
000804: 14,2445           01545                                   VFLAG
000805: 14,2446           30436                                   STRAT      -3
000806: 14,2447           45345                          DLOAD    DSU
000807: 14,2450           77644                          BPL
000808: 14,2451           30373                                   PIC3
000809: 14,2452           67130        NEWPAR            SXA,1    SXA,2
000810: 14,2453           00302                                   BESTI
000811: 14,2454           00303                                   BESTJ
000812: 14,2455           77650                          GOTO
000813: 14,2456           30373                                   PIC3
000814: 14,2457           51321        OCCULT            MXV      BVSU
000815: 14,2460           02736                                   CULTRIX
000816: 14,2461           00017                                   CSS
000817: 14,2462           77654                          BZE
000818: 14,2463           30476                                   CULTED
000819: 14,2464           75240                          BMN      SIGN
000820: 14,2465           30476                                   CULTED
000821: 14,2466           00160                                   MPAC       +3
000822: 14,2467           75240                          BMN      SIGN
000823: 14,2470           30476                                   CULTED
000824: 14,2471           00162                                   MPAC       +5
000825: 14,2472           43040                          BMN      CLRGO
000826: 14,2473           30476                                   CULTED
000827: 14,2474           01630                                   CULTFLAG
000828: 14,2475           00052                                   QPRET
000829: 14,2476           77614        CULTED            SETGO
000830:                                                                                                 #  Page 714
000831: 14,2477           01430                                   CULTFLAG
000832: 14,2500           00052                                   QPRET
000833: 14,2501  0000016               CSS               =        CEARTH
000834: 14,2501           21150 25157  SIN33             2DEC     .5376381241
000835: 14,2503           32766 22713  COS33             2DEC     .8431756920
000836: 14,2505           01736 35137  CSS66             2DEC     .060480472                            #  (COS76)/4
000837: 14,2507           73003 65403  CSS6640           2DEC     -.15602587                            #  (COS76 - COS30)/4
000838: 14,2511           06233 26112  CSS33             2DEC     .197002688                            #  (COS(1/2(76))/4
000839:
000840: 14,2513           77414        PICEND            BOFF     EXIT
000841: 14,2514           01745                                   VFLAG
000842: 14,2515           30517                                   PICGXT
000843: 14,2516           02521                          TC       PICBXT
000844: 14,2517           77776        PICGXT            EXIT
000845: 14,2520           25777                          INCR     QMIN
000846: 14,2521           31777        PICBXT            CA       QMIN
000847: 14,2522           04561                          TC       SWCALL
000848:                                                                                                 # V1              =       12D
000849:
000850:                                                                                                 #  Page 715
000851:                                                                                                 #  NAME -- R51    FINE ALIGN
000852:                                                                                                 #  FUNCTION -- TO ALIGN THE STABLE MEMBER TO REFSSMAT
000853:                                                                                                 #  CALLING SEQ -- CALL R51
000854:                                                                                                 #  INPUT -- BESTI, BESTJ (PAIR OF STAR NO)
000855:                                                                                                 #  OUTPUT -- GYRO TORQUE PULSES
000856:                                                                                                 #  SUBROUTINES -- R52, R54, R55 (SXTNB, NBSM, AXISGEN)
000857:
000858: 14,2523                                          COUNT    14/R51
000859:
000860: 14,2523           77776        R51               EXIT
000861: 14,2524           34712                          CAF      BIT1
000862: 14,2525           54304                          TS       STARIND
000863: 14,2526           54301                          TS       MARKINDX
000864: 14,2527           06006        R51.2             TC       INTPRET
000865: 14,2530           43014        R51.3             CLEAR    CLEAR
000866: 14,2531           00666                                   TARG2FLG
000867: 14,2532           00665                                   TARG1FLG
000868: 14,2533           77776                          EXIT
000869: 14,2534           05301                          TC       PHASCHNG
000870: 14,2535           05024                          OCT      05024                                 #  RESTART GR 4 FOR R52-R53
000871: 14,2536           13000                          OCT      13000
000872: 14,2537           50304                          INDEX    STARIND
000873: 14,2540           30302                          CA       BESTI
000874: 14,2541           00006                          EXTEND
000875: 14,2542           72701                          MP       1/6TH
000876: 14,2543           54735                          TS       STARCODE
000877: 14,2544           32700                          CAF      V01N70
000878: 14,2545           04555                          TC       BANKCALL
000879: 14,2546           20763                          CADR     GOFLASHR
000880: 14,2547           04106                          TC       GOTOP00H
000881: 14,2550           02555                          TC       +5
000882: 14,2551           02544                          TC       -5
000883: 14,2552           36211                          CAF      SIX
000884: 14,2553           05415                          TC       BLANKET
000885: 14,2554           15112                          TCF      ENDOFJOB
000886: 14,2555           06006                          TC       INTPRET
000887: 14,2556           45034                          RTB      CALL
000888: 14,2557           45505                                   LOADTIME
000889: 14,2560           32363                                   PLANET
000890: 14,2561           72131                          SSP      LXA,1
000891: 14,2562           00051                                   S1
000892: 14,2563           00000                                   0
000893: 14,2564           00304                                   STARIND
000894: 14,2565           77700                          TIX,1
000895: 14,2566           30571                                   R51ST
000896: 14,2567           36617                          STCALL   STARSAV2                              #  2ND STAR
000897: 14,2570           30572                                   R51ST      +1
000898: 14,2571           02611        R51ST             STORE    STARSAV1                              #  1ST STAR
000899: 14,2572           77776                          EXIT
000900: 14,2573           41011                          CS       MODREG                                #  IS THIS P54
000901: 14,2574           62677                          AD       OCT66
000902:                                                                                                 #  Page 716
000903: 14,2575           00006                          EXTEND
000904: 14,2576           12672                          BZF      R51B                                  #  YES
000905: 14,2577           06006                          TC       INTPRET
000906: 14,2600           77624                          CALL
000907: 14,2601           30002                                   R52                                   #  AOP WILL MAKE CALLS TO SIGHTING
000908: 14,2602           77624        R51A              CALL
000909: 14,2603           31266                                   SXTSM
000910: 14,2604           02617                          STORE    STARSAV2
000911: 14,2605           77776                          EXIT
000912: 14,2606           04555                          TC       BANKCALL
000913: 14,2607           16063                          CADR     MKRELEAS
000914: 14,2610           06006                          TC       INTPRET
000915: 14,2611           45145                          DLOAD    CALL
000916: 14,2612           02607                                   TSIGHT
000917: 14,2613           32363                                   PLANET
000918: 14,2614           77776                          EXIT
000919: 14,2615           10304                          CCS      STARIND
000920: 14,2616           02657                          TC       R51.4
000921: 14,2617           06006                          TC       INTPRET
000922: 14,2620           53521                          MXV      UNIT
000923: 14,2621           01736                                   REFSMMAT
000924: 14,2622           02736                          STORE    STARAD
000925: 14,2623           77775                          VLOAD
000926: 14,2624           02617                                   STARSAV2
000927: 14,2625           24007                          STOVL    6D
000928: 14,2626           02611                                   STARSAV1
000929: 14,2627           24015                          STOVL    12D
000930: 14,2630           02601                                   PLANVEC
000931: 14,2631           36744                          STCALL   STARAD     +6
000932: 14,2632           30702                                   R54                                   #  STAR DATA TEST
000933: 14,2633           45014                          BOFF     CALL
000934: 14,2634           00354                                   FREEFLAG
000935: 14,2635           30643                                   R51K
000936: 14,2636           47334                                   AXISGEN
000937: 14,2637           77624                          CALL
000938: 14,2640           32203                                   R55                                   #  GYRO TORQUE
000939: 14,2641           77614                          CLEAR
000940: 14,2642           01273                                   PFRATFLG
000941: 14,2643           77776        R51K              EXIT
000942: 14,2644           35656                          CAF      OCT14
000943: 14,2645           04555                          TC       BANKCALL
000944: 14,2646           20751                          CADR     GOPERF1
000945: 14,2647           04106                          TC       GOTOP00H
000946: 14,2650           02652                          TC       +2                                    #  V33
000947: 14,2651           02654                          TC       +3
000948: 14,2652           04555                          TC       BANKCALL
000949: 14,2653           32120                          CADR     P52C
000950: 14,2654           06006                          TC       INTPRET
000951: 14,2655           77650                          GOTO
000952: 14,2656           32143                                   ENDP50S
000953:
000954:                                                                                                 #  Page 717
000955: 14,2657           06006        R51.4             TC       INTPRET
000956: 14,2660           53521                          MXV      UNIT
000957: 14,2661           01736                                   REFSMMAT
000958: 14,2662           26601                          STOVL    PLANVEC
000959: 14,2663           02617                                   STARSAV2
000960: 14,2664           02611                          STORE    STARSAV1
000961: 14,2665           77731                          SSP
000962: 14,2666           00305                                   STARIND
000963: 14,2667           00000                                   0
000964: 14,2670           77650                          GOTO
000965: 14,2671           30530                                   R51.3
000966: 14,2672           06006        R51B              TC       INTPRET
000967: 14,2673           77624                          CALL
000968: 14,2674           32252                                   R56
000969: 14,2675           77650                          GOTO
000970: 14,2676           30602                                   R51A
000971: 14,2677           00066        OCT66             OCT      00066
000972: 14,2700           00306        V01N70            VN       0170
000973: 14,2701           05253        1/6TH             DEC      .1666667
000974:
000975:                                                                                                 #  Page 718
000976:                                                                                                 #  NAME:          R55     GYRO TORQUE
000977:                                                                                                 #  FUNCTION -- COMPUTE AND SEND GYRO PULSES
000978:                                                                                                 #  CALLING SEQ -- CALL R55
000979:                                                                                                 #  INPUT -- X,Y,ZDC -- REFSMMAT WRT PRESENT STABLE MEMBER
000980:                                                                                                 #  OUTPUT -- GYRO PULSES
000981:                                                                                                 #  SUBROUTINES -- CALCGTA, GOFLASH, GODSPR, IMUFINE, IMUPULSE, GOPERF1
000982:
000983: 15,2000                                          SETLOC   P50S
000984: 15,2000                                          BANK
000985: 15,2203                                          COUNT*   $$/R55
000986:
000987: 15,2203           77620        R55               STQ
000988: 15,2204           02777                                   QMIN
000989: 15,2205           77624                          CALL
000990: 15,2206           47140                                   CALCGTA
000991: 15,2207           77776        PULSEM            EXIT
000992: 15,2210           32234        R55.1             CAF      V06N93
000993: 15,2211           04555                          TC       BANKCALL
000994: 15,2212           20624                          CADR     GOFLASH
000995: 15,2213           04106                          TC       GOTOP00H
000996: 15,2214           02216                          TC       R55.2
000997: 15,2215           02231                          TC       R55RET
000998: 15,2216           05301        R55.2             TC       PHASCHNG
000999: 15,2217           00314                          OCT      00314
001000: 15,2220           32235                          CA       R55CDR
001001: 15,2221           04555                          TC       BANKCALL
001002: 15,2222           17125                          CADR     IMUPULSE
001003: 15,2223           04555                          TC       BANKCALL
001004: 15,2224           17516                          CADR     IMUSTALL
001005: 15,2225           05644                          TC       CURTAINS
001006: 15,2226           05301                          TC       PHASCHNG
001007: 15,2227           05024                          OCT      05024
001008: 15,2230           13000                          OCT      13000
001009:
001010: 15,2231           06006        R55RET            TC       INTPRET
001011: 15,2232           77650                          GOTO
001012: 15,2233           02777                                   QMIN
001013: 15,2234           01535        V06N93            VN       0693
001014: 15,2235           02757        R55CDR            ECADR    OGC
001015: 15,2236  14,2702               R54               =        CHKSDATA
001016:
001017:                                                                                                 #  ROUTINE NAME -- CHKSDATA               DATE -- JAN 9, 1967
001018:                                                                                                 #  MOD NO -- 0                            LOG SECTION -- P51-P53
001019:                                                                                                 #  MODIFICATION BY -- LONSKE              ASSEMBLY --
001020:
001021:                                                                                                 #  FUNCTIONAL DESCRIPTION -- CHECKS THE VALIDITY OF A PAIR OF STAR SIGHTINGS.  WHEN A PAIR OF STAR SIGHTINGS ARE MADE
001022:                                                                                                 #  BY THE ASTRONAUT THIS ROUTINE OPERATES AND CHECKS THE OBSERVED SIGHTINGS AGAINS STORED STAR VECTORS IN THE
001023:                                                                                                 #  COMPUTER TO INSURE A PROPER SIGHTING WAS MADE.  THE FOLLOWING COMPUTATIONS ARE PERFORMED --
001024:                                                                                                 #         OS1     =       OBSERVED STAR 1 VECTOR
001025:                                                                                                 #         OS2     =       OBSERVED STAR 2 VECTOR
001026:                                                                                                 #         SS1     =       STORED STAR 1 VECTOR
001027:                                                                                                 #         SS2     =       STORED STAR 2 VECTOR
001028:                                                                                                 #          A1     =       ARCCOS(OS1 - OS2)
001029:                                                                                                 #  Page 719
001030:                                                                                                 #          A2     =       ARCCOS(SS1 - SS2)
001031:                                                                                                 #           A     =       ABS(2(A1 - A2))
001032:                                                                                                 #  THE ANGULAR DIFFERENCE IS DISPLAYED FOR ASTRONAUT ACCEPTANCE.
001033:
001034:                                                                                                 #  EXIT MODE --   1. FREEFLAG SET IMPLIES ASTRONAUT WANTS TO PROCEED
001035:                                                                                                 #                 2. FREEFLAT REST IMPLIES ASTRONAUT WANTS TO RECYCLE
001036:
001037:                                                                                                 #  OUTPUT --      1. VERB 6,NOUN 3 -- DISPLAYS ANGULAR DIFFERENCE BETWEEN 2 SETS OF STARS.
001038:                                                                                                 #                 2. STAR VECTORS FROM STAR CATALOG ARE LEFT IN 6D AND 12D.
001039:
001040:                                                                                                 #  ERASABLE INITIALIZATION REQUIRED --
001041:                                                                                                 #                 1. MARK VECTORS ARE STORED IN STARAD AND STARAD +6.
001042:                                                                                                 #                 2. CATALOG VECTORS ARE STORED IN 6D AND 12D.
001043:
001044:                                                                                                 #  DEBRIS --
001045:
001046: 14,2000                                          SETLOC   P50S1
001047: 14,2000                                          BANK
001048: 14,2702                                          COUNT*   $$/R50
001049:
001050: 14,2702           43020        CHKSDATA          STQ      SET
001051: 14,2703           02777                                   QMIN
001052: 14,2704           00074                                   FREEFLAG
001053: 14,2705           77760        CHKSAB            AXC,1                                          #  SET X1 TO STORE EPHEMERIS DATA
001054: 14,2706           02735                                   STARAD
001055:
001056: 14,2707           47773        CHKSB             VLOAD*   DOT*                                  #  CAL. ANGLE THETA
001057: 14,2710           00001                                   0,1
001058: 14,2711           00007                                   6,1
001059: 14,2712           65552                          SL1      ACOS
001060: 14,2713           00025                          STORE    THETA
001061: 14,2714           43014                          BOFF     INVERT                                #  BRANCH TO CHKSD IF THIS IS 2ND PASS
001062: 14,2715           00354                                   FREEFLAG
001063: 14,2716           30726                                   CHKSD
001064: 14,2717           00174                                   FREEFLAG                              #  CLEAR FREEFLAG
001065: 14,2720           71360                          AXC,1    DLOAD                                 #  SET X1 TO MARK ANGLES
001066: 14,2721           00006                                   6D
001067: 14,2722           00025                                   THETA
001068: 14,2723           00023                          STORE    18D
001069: 14,2724           77650                          GOTO
001070: 14,2725           30707                                   CHKSB                                 #  RETURN TO CAL. 2ND ANGLE
001071: 14,2726           45345        CHKSD             DLOAD    DSU
001072: 14,2727           00025                                   THETA                                 #  COMPUTE POS DIFF
001073: 14,2730           00023                                   18D
001074: 14,2731           47046                          ABS      RTB
001075: 14,2732           45541                                   SGNAGREE
001076: 14,2733           01046                          STORE    NORMTEM1
001077: 14,2734           77414                          SET      EXIT
001078: 14,2735           00074                                   FREEFLAG
001079: 14,2736           34714                          CAF      ZERO
001080: 14,2737           04555                          TC       BANKCALL
001081: 14,2740           20607                          CADR     CLEANDSP
001082:
001083: 14,2741           32755                          CAF      VB6N5
001084:                                                                                                 #  Page 720
001085: 14,2742           04555                          TC       BANKCALL
001086: 14,2743           20624                          CADR     GOFLASH
001087: 14,2744           14106                          TCF      GOTOP00H
001088: 14,2745           02752                          TC       CHKSDA                                #  PROCEED
001089: 14,2746           06006                          TC       INTPRET
001090: 14,2747           52014                          CLEAR    GOTO
001091: 14,2750           00274                                   FREEFLAG
001092: 14,2751           02777                                   QMIN
001093: 14,2752           06006        CHKSDA            TC       INTPRET
001094: 14,2753           77650                          GOTO
001095: 14,2754           02777                                   QMIN
001096: 14,2755           01405        VB6N5             VN       605
001097:
001098:                                                                                                 #  NAME -- CAL53A
001099:                                                                                                 #  FUNCTION -- COARSE ALIGN THE IMU, IF NECESSARY
001100:                                                                                                 #  CALLING SEQUENCE -- CALL CAL53A
001101:                                                                                                 #  INPUT -- PRESENT GIMBAL ANGLES -- CDUX, CDUY, CDUZ
001102:                                                                                                 #            DESIRED GIMBAL ANGLES -- THETAD,+1,+2
001103:                                                                                                 #  OUTPUT -- THE IMU COORDINATES AT STORED IN REFSMMAT
001104:                                                                                                 #  SUBROUTINES -- 1.IMUCOARS, 2.IMUSTALL, 3CURTAINS
001105:
001106: 14,2756                                          COUNT    14/R50
001107:
001108: 14,2756           45020        CAL53A            STQ      CALL
001109: 14,2757           00035                                   29D
001110: 14,2760           22256                                   S52.2                                 #  MAKE ONE FINAL COMP OF GIMBAL ANGLES
001111: 14,2761           66234                          RTB      SSP
001112: 14,2762           32236                                   RDCDUS                                #  READ CDUS
001113: 14,2763           00051                                   S1
001114: 14,2764           00001                                   1
001115: 14,2765           40370                          AXT,1    SETPD
001116: 14,2766           00003                                   3
001117: 14,2767           00005                                   4
001118: 14,2770           70543        CALOOP            DLOAD*   SR1
001119: 14,2771           01161                                   THETAD     +3D,1
001120: 14,2772           70523                          PDDL*    SR1
001121: 14,2773           00005                                   4,1
001122: 14,2774           51425                          DSU      ABS
001123: 14,2775           45206                          PUSH     DSU
001124: 14,2776           31053                                   DEGREE1
001125: 14,2777           71240                          BMN      DLOAD
001126: 14,3000           31027                                   CALOOP1
001127: 14,3001           51025                          DSU      BPL
001128: 14,3002           31054                                   DEG359
001129: 14,3003           31027                                   CALOOP1
001130: 14,3004           77776        COARFINE          EXIT
001131: 14,3005           04555                          TC       BANKCALL
001132: 14,3006           16602                          CADR     IMUCOARS                              #  PERFORM COARSE ALIGNMENT
001133: 14,3007           04555                          TC       BANKCALL
001134: 14,3010           17516                          CADR     IMUSTALL                              #  REQUEST MODE SWITCH
001135: 14,3011           05644                          TC       CURTAINS
001136:                                                                                                 #  Page 721
001137: 14,3012           04555                          TC       BANKCALL
001138: 14,3013           17012                          CADR     IMUFIN20
001139: 14,3014           04555                          TC       BANKCALL
001140: 14,3015           17516                          CADR     IMUSTALL
001141: 14,3016           05644                          TC       CURTAINS                              #  TEST FOR MALFUNCTION
001142: 14,3017           06006                          TC       INTPRET
001143: 14,3020           77234                          RTB      VLOAD
001144: 14,3021           31263                                   SET1/PDT
001145: 14,3022           11456                                   ZEROVEC
001146: 14,3023           01472                          STORE    GCOMP
001147: 14,3024           52014                          SET      GOTO
001148: 14,3025           01060                                   DRIFTFLG
001149: 14,3026           31031                                   FINEONLY
001150: 14,3027           77700        CALOOP1           TIX,1
001151: 14,3030           30770                                   CALOOP
001152: 14,3031           75160        FINEONLY          AXC,1    AXC,2
001153: 14,3032           02671                                   XSM
001154: 14,3033           01735                                   REFSMMAT
001155: 14,3034           77624                          CALL
001156: 14,3035           31040                                   MATMOVE
001157: 14,3036           77650                          GOTO
001158: 14,3037           00035                                   29D
001159: 14,3040           77773        MATMOVE           VLOAD*                                         #  TRANSFER MATRIX
001160: 14,3041           00001                                   0,1
001161: 14,3042           10001                          STORE    0,2
001162: 14,3043           77773                          VLOAD*
001163: 14,3044           00007                                   6D,1
001164: 14,3045           10007                          STORE    6D,2
001165: 14,3046           77773                          VLOAD*
001166: 14,3047           00015                                   12D,1
001167: 14,3050           10015                          STORE    12D,2
001168: 14,3051           77616                          RVQ
001169: 14,3052           00056        DEGREE1           DEC      46         B-14
001170: 14,3053           37722        DEG359            DEC      16338      B-14
001171: 15,2000                                          SETLOC   P50S
001172: 15,2000                                          BANK
001173: 15,2236           00004        RDCDUS            INHINT                                         #  READ CDUS
001174: 15,2237           30032                          CA       CDUX
001175: 15,2240           50120                          INDEX    FIXLOC
001176: 15,2241           54001                          TS       1
001177: 15,2242           30033                          CA       CDUY
001178: 15,2243           50120                          INDEX    FIXLOC
001179: 15,2244           54002                          TS       2
001180: 15,2245           30034                          CA       CDUZ
001181: 15,2246           50120                          INDEX    FIXLOC
001182: 15,2247           54003                          TS       3
001183: 15,2250           00003                          RELINT
001184: 15,2251           06030                          TC       DANZIG
001185:
001186:                                                                                                 #  NAME:          GIMB
001187:
001188:                                                                                                 #  FUNCTION:      DETERMINE AND COMPUTE THE DESIRED GIMBAL ANGLES TO BE USED FOR COARSE ALIGNMENT.
001189:                                                                                                 #  Page 722
001190:
001191:                                                                                                 #  CALLING SEQUENCE:  CALL GIMB
001192:
001193:                                                                                                 #  INPUT: DESIRED IMU INERTIAL ORIENTATION VECTORS:  XSMD, YSMD, ZSMD
001194:
001195:                                                                                                 #  OUTPUT:        GIMBAL ANGLES LEFT IN THETAD, +1, +2
001196:
001197:                                                                                                 #  SUBROUTINES USED:  1.CDUTRIG 2.CALCSMSC 3.CALCGA
001198:
001199: 16,2000                                          SETLOC   P50S2
001200: 16,2000                                          BANK
001201: 16,2567                                          COUNT    14/INFLT
001202:
001203: 16,2567           41345        CALCSMSC          DLOAD    DMP
001204: 16,2570           00737                                   SINCDUY
001205: 16,2571           00747                                   COSCDUZ
001206: 16,2572           77676                          DCOMP
001207: 16,2573           70525                          PDDL     SR1
001208: 16,2574           00741                                   SINCDUZ
001209: 16,2575           41325                          PDDL     DMP
001210: 16,2576           00745                                   COSCDUY
001211: 16,2577           00747                                   COSCDUZ
001212: 16,2600           76466                          VDEF     VSL1
001213: 16,2601           02714                          STORE    XNB
001214: 16,2602           41345                          DLOAD    DMP
001215: 16,2603           00743                                   SINCDUX
001216: 16,2604           00741                                   SINCDUZ
001217: 16,2605           77752                          SL1
001218: 16,2606           00033                          STORE    26D
001219: 16,2607           77605                          DMP
001220: 16,2610           00737                                   SINCDUY
001221: 16,2611           41325                          PDDL     DMP
001222: 16,2612           00751                                   COSCDUX
001223: 16,2613           00745                                   COSCDUY
001224: 16,2614           77625                          DSU
001225: 16,2615           41325                          PDDL     DMP
001226: 16,2616           00743                                   SINCDUX
001227: 16,2617           00747                                   COSCDUZ
001228: 16,2620           77676                          DCOMP
001229: 16,2621           41325                          PDDL     DMP
001230: 16,2622           00751                                   COSCDUX
001231: 16,2623           00737                                   SINCDUY
001232: 16,2624           41325                          PDDL     DMP
001233: 16,2625           00745                                   COSCDUY
001234: 16,2626           00033                                   26D
001235: 16,2627           55415                          DAD      VDEF
001236: 16,2630           77772                          VSL1
001237: 16,2631           02730                          STORE    ZNB
001238: 16,2632           76435                          VXV      VSL1
001239: 16,2633           02714                                   XNB
001240: 16,2634           02722                          STORE    YNB
001241: 16,2635           77616                          RVQ
001242:
001243:                                                                                                 #  NAME -- P51 -- IMU ORIENTATION DETERMINATION
001244:                                                                                                 #  MOD. NO. 2     21 DEC 66                               LOG SECTION -- P51-P53
001245:                                                                                                 #  MOD BY STURLAUGSON                                     ASSEMBLY SUNDISK REV15
001246:                                                                                                 #  Page 723
001247:
001248:                                                                                                 #  FUNCTIONAL DESCRIPTION
001249:                                                                                                 #         DETERMINES THE INERTIAL ORIENTATION OF THE IMU.  THE PROGRAM IS SELECTED BY DSKY ENTRY.  THE SIGHTING
001250:                                                                                                 #         ROUTINE IS CALLED TO COLLECT THE CDU COUNTERS AND SHAFT AND TRUNNION ANGLES FOR A SIGHTED STAR.  THE DATA IS
001251:                                                                                                 #         THEN PROCESSED AS FOLLOWS.
001252:
001253:                                                                                                 #         1.  SEXTANT ANGLES ARE COMPUTED IN TERMS OF NAVIGTIONAL BASE COORDINATES.  LET SA AND TA BE THE SHAFT AND
001254:                                                                                                 #         TRUNNION ANGLES, RESPECTIVELY.  THEN,
001255:                                                                                                 #         _
001256:                                                                                                 #         V  = (SIN(TA)*COS(SA), SIN(TA)*SIN(SA), COS(TA))        (A COLUMN VECTOR)
001257:
001258:                                                                                                 #         THE OUTPUT IS A HALF-UNIT VECTOR STORED IN STARM.
001259:
001260:                                                                                                 #         2.  THIS VECTOR IN NAV. BASE COORDS. IS THEN TRANSFORMED TO ONE IN STABLE MEMBER COORDINATES.
001261:                                                                                                 #         _    T  T  T _
001262:                                                                                                 #         V = Q *Q *Q *V  ,       WHERE
001263:                                                                                                 #              1  2  3  NB
001264:
001265:                                                                                                 #              ( COS(IG)   0    -SIN(IG) )
001266:                                                                                                 #              (                         )                                        THE GIMBAL ANGLES ARE COMPUTED FROM
001267:                                                                                                 #         Q  = (   0       1       0     ), IG= INNER GIMBAL ANGLE                THE CDU COUNTERS AT NBSM (USING AXIS-
001268:                                                                                                 #          1   (                         )                                        ROT AND CDULOGIC)
001269:                                                                                                 #              ( SIN(IG)   0     COS(IG) )
001270:
001271:                                                                                                 #              ( COS(MG) SIN(MG)   0     )
001272:                                                                                                 #              (                         )
001273:                                                                                                 #         Q  = (-SIN(MG) COS(MG)   0     ), MG= MIDDLE GIMBAL ANGLE
001274:                                                                                                 #          2   (                         )
001275:                                                                                                 #              (   0       0       1     )
001276:
001277:                                                                                                 #              (   1       0       0     )
001278:                                                                                                 #              (                         )
001279:                                                                                                 #         Q  = (   0     COS(OG) SIN(OG) ), OG= OUTER GIMBAL ANGLE
001280:                                                                                                 #          3   (                         )
001281:                                                                                                 #              (   0    -SIN(OG) COS(OG) )
001282:
001283:                                                                                                 #         3.  THE STAR NUMBER IS SAVED AND THE SECOND STAR IS THEN SIMILARLY PROCESSED.
001284:
001285:                                                                                                 #         4.  THE ANGLE BETWEEN THE TWO STARS IS THEN CHECKED AT CKSDATA.
001286:
001287:                                                                                                 #         5.  REFSMMAT IS THEN COMPUTED AT AXISGEN AS FOLLOWS.
001288:                                                                                                 #                     _      _
001289:                                                                                                 #                 LET S  AND S  BE TWO STAR VECTORS EXPRESSED IN TWO COORDINATE SYSTEMS, A AND B (BASIC AND STABLE MEMBER).
001290:                                                                                                 #                      1      2
001291:                                                                                                 #                 DEFINE,
001292:                                                                                                 #  Page 724       _    _
001293:                                                                                                 #                 U  = S
001294:                                                                                                 #                  A    A1
001295:                                                                                                 #                 _         _    _
001296:                                                                                                 #                 V  = UNIT(S  x S  )
001297:                                                                                                 #                  A         A1   A2
001298:                                                                                                 #                 _    _   _
001299:                                                                                                 #                 W  = U x V
001300:                                                                                                 #                  A    A   A
001301:
001302:                                                                                                 #                 AND,
001303:                                                                                                 #                 _    _
001304:                                                                                                 #                 U  = S
001305:                                                                                                 #                  B    B1
001306:                                                                                                 #                 _         _    _
001307:                                                                                                 #                 V  = UNIT(S  x S  )
001308:                                                                                                 #                  B         B1   B2
001309:                                                                                                 #                 _    _   _
001310:                                                                                                 #                 W  = U x V
001311:                                                                                                 #                  B    B   B
001312:
001313:                                                                                                 #                 THEN
001314:                                                                                                 #                 _        _       _       _
001315:                                                                                                 #                 X  = U  *U + V  *V + W  *W
001316:                                                                                                 #                       B1  A   B1  A   B1  A
001317:                                                                                                 #                 _        _       _       _
001318:                                                                                                 #                 Y  = U  *U + V  *V + W  *W              (REFSMMAT)
001319:                                                                                                 #                       B2  A   B2  A   B2  A
001320:                                                                                                 #                 _        _       _       _
001321:                                                                                                 #                 Z  = U  *U + V  *V + W  *W
001322:                                                                                                 #                       B3  A   B3  A   B3  A
001323:
001324:                                                                                                 #  THE INPUTS CONSIST OF THE FOUR HALF-UNIT VECTORS STORED AS FOLLOWS
001325:                                                                                                 #                 _
001326:                                                                                                 #                 S   IN 6-11 OF THE VAC AREA
001327:                                                                                                 #                  A1
001328:                                                                                                 #                 _
001329:                                                                                                 #                 S   IN 12-17 OF THE VAC AREA
001330:                                                                                                 #                  A2
001331:                                                                                                 #                 _
001332:                                                                                                 #                 S   IN STARAD
001333:                                                                                                 #                  B1
001334:                                                                                                 #  Page 725       _
001335:                                                                                                 #                 S   IN STARAD +6
001336:                                                                                                 #                  B2
001337:
001338:                                                                                                 #  CALLING SEQUENCE:
001339:
001340:                                                                                                 #         THE PROGRAM IS CALLED BY THE ASTRONAUT BY DSKY ENTRY.
001341:
001342:                                                                                                 #  SUBROUTINES CALLED:
001343:
001344:                                                                                                 #         GOPERF3
001345:                                                                                                 #         GOPERF1R
001346:                                                                                                 #         GODSPR
001347:                                                                                                 #         IMUCOARS
001348:                                                                                                 #         IMUFIN20
001349:                                                                                                 #         R53
001350:                                                                                                 #         SXTNB
001351:                                                                                                 #         NBSM
001352:                                                                                                 #         MKRELEAS
001353:                                                                                                 #         CHKSDATA
001354:                                                                                                 #         MATMOVE
001355:
001356:                                                                                                 #  ALARMS
001357:
001358:                                                                                                 #         NONE
001359:
001360:                                                                                                 #  ERASABLE INITIALIZATION:
001361:
001362:                                                                                                 #         IMU ZERO FLAG SHOULD BE SET.
001363:
001364:                                                                                                 #  OUTPUT
001365:
001366:                                                                                                 #         REFSMMAT
001367:                                                                                                 #         REFSMFLG
001368:
001369:                                                                                                 #  DEBRIS
001370:
001371:                                                                                                 #         WORK AREA
001372:                                                                                                 #         STARAD
001373:                                                                                                 #         STARIND
001374:                                                                                                 #         BESTI
001375:                                                                                                 #         BESTJ
001376:
001377: 14,2000                                          SETLOC   P50S1
001378: 14,2000                                          BANK
001379: 14,3054                                          COUNT    14/P5153
001380:
001381: 14,3054  14,3054               P53               EQUALS   P51
001382: 14,3054           41320        P51               CS       IMODES30
001383: 14,3055           74702                          MASK     BIT9
001384: 14,3056           10000                          CCS      A
001385: 14,3057           03063                          TC       P51A
001386:                                                                                                 #  Page 726
001387: 14,3060           05537                          TC       ALARM
001388: 14,3061           00210                          OCT      210
001389: 14,3062           04106                          TC       GOTOP00H
001390: 14,3063           04555        P51A              TC       BANKCALL
001391: 14,3064           17607                          CADR     R02ZERO
001392:
001393: 14,3065           34720        P51AA             CAF      PRFMSTAQ
001394: 14,3066           04555                          TC       BANKCALL
001395: 14,3067           20751                          CADR     GOPERF1
001396: 14,3070           04106                          TC       GOTOP00H                              #  TERM.
001397: 14,3071           03134                          TC       P51B                                  #  V33
001398: 14,3072           05301                          TC       PHASCHNG
001399: 14,3073           05024                          OCT      05024
001400: 14,3074           13000                          OCT      13000
001401:
001402: 14,3075           34714                          CAF      P51ZERO
001403: 14,3076           55155                          TS       THETAD                                #  ZERO THE GIMBALS
001404: 14,3077           55156                          TS       THETAD     +1
001405: 14,3100           55157                          TS       THETAD     +2
001406: 14,3101           33261                          CAF      V6N22
001407: 14,3102           04555                          TC       BANKCALL
001408: 14,3103           20577                          CADR     GODSPRET
001409: 14,3104           33262                          CAF      V41K                                  #  NOW DISPLAY COARSE ALIGN VERB 41
001410: 14,3105           04555                          TC       BANKCALL
001411: 14,3106           20577                          CADR     GODSPRET
001412: 14,3107           04555                          TC       BANKCALL
001413: 14,3110           16602                          CADR     IMUCOARS
001414: 14,3111           04555                          TC       BANKCALL
001415: 14,3112           17516                          CADR     IMUSTALL
001416: 14,3113           05644                          TC       CURTAINS                              #  CAGING OR RAD END
001417: 14,3114           04555                          TC       BANKCALL                              #  SCHEDULE IFAILOK AND IMUFINED TASKS, IN 5
001418: 14,3115           17012                          CADR     IMUFIN20                              #  AND 20 SECS. DIRECT RETURN AND NO STALL,
001419: 14,3116           04555                          TC       BANKCALL                              #  IF CAGING, BUT T4 WILL ZERO C/A ENABLE.
001420: 14,3117           17516                          CADR     IMUSTALL                              #  IF PUT TO SLEEP, IMUFINED WILL WAKE US
001421: 14,3120           05644                          TC       CURTAINS                              #  UP.
001422: 14,3121           06006                          TC       INTPRET
001423: 14,3122           77234                          RTB      VLOAD
001424: 14,3123           31263                                   SET1/PDT
001425: 14,3124           11456                                   ZEROVEC
001426: 14,3125           01472                          STORE    GCOMP
001427: 14,3126           77414                          SET      EXIT
001428: 14,3127           01060                                   DRIFTFLG
001429: 14,3130           05301                          TC       PHASCHNG
001430: 14,3131           05024                          OCT      05024
001431: 14,3132           13000                          OCT      13000
001432: 14,3133           13065                          TCF      P51AA                                 #  COARSE ALIGN DONE:  RECYCLE FOR FINE
001433:                                                                                                 #  Page 727
001434:                                                                                                 #  DO STAR SIGHTING AND COMPUTE NEW REFSMMAT
001435: 14,3134           05301        P51B              TC       PHASCHNG
001436: 14,3135           00014                          OCT      00014
001437: 14,3136           06006                          TC       INTPRET
001438: 14,3137           40331                          SSP      SETPD
001439: 14,3140           00305                                   STARIND                               #  INDEX -- STAR 1 OR 2
001440: 14,3141           00000                                   0
001441: 14,3142           00001                                   0
001442: 14,3143           77414                          CLEAR    EXIT
001443: 14,3144           00666                                   TARG2FLG                              #  SHOW START MARK, NOT LAND MARK
001444: 14,3145           34712                          CAF      BIT1
001445: 14,3146           54301                          TS       MARKINDX                              #  INITIALIZE FOR ONE MARK
001446:
001447: 14,3147           05301        P51C              TC       PHASCHNG
001448: 14,3150           05024                          OCT      05024
001449: 14,3151           13000                          OCT      13000
001450: 14,3152           05253                          TC       CHECKMM
001451: 14,3153           00065                          MM       53         B-14                       #  BACKUP PROGRAM
001452: 14,3154           13162                          TCF      P51C.1                                #  NOT P53
001453: 14,3155           06006                          TC       INTPRET
001454: 14,3156           77624                          CALL
001455: 14,3157           32252                                   R56
001456: 14,3160           77650                          GOTO
001457: 14,3161           31165                                   P51C.2
001458: 14,3162           06006        P51C.1            TC       INTPRET
001459: 14,3163           77624                          CALL
001460: 14,3164           31322                                   R53                                   #  SIGHTING ROUTINE
001461: 14,3165           77624        P51C.2            CALL                                           #  COMPUTE LOS IN SM FROM MARK DATA
001462: 14,3166           31266                                   SXTSM
001463: 14,3167           77606                          PUSH
001464: 14,3170           53135                          SLOAD    BZE
001465: 14,3171           00305                                   STARIND
001466: 14,3172           31177                                   P51D
001467: 14,3173           45575                          VLOAD    STADR
001468: 14,3174           75160                          STORE    STARSAV2                              #  DOWNLINK
001469: 14,3175           77650                          GOTO
001470: 14,3176           31205                                   P51E
001471: 14,3177           45575        P51D              VLOAD    STADR
001472: 14,3200           61166                          STODL    STARSAV1
001473: 14,3201           02607                                   TSIGHT
001474: 14,3202           77624                          CALL
001475: 14,3203           32363                                   PLANET
001476: 14,3204           02601                          STORE    PLANVEC
001477: 14,3205           77776        P51E              EXIT
001478: 14,3206           05301                          TC       PHASCHNG
001479: 14,3207           05024                          OCT      05024
001480: 14,3210           13000                          OCT      13000
001481: 14,3211           04555                          TC       BANKCALL
001482: 14,3212           16063                          CADR     MKRELEAS                              #  ZERO MARKSTAT
001483:                                                                                                 #  Page 728
001484: 14,3213           10304                          CCS      STARIND
001485: 14,3214           13223                          TCF      P51F                                  #  STAR 2
001486: 14,3215           05301                          TC       PHASCHNG
001487: 14,3216           05024                          OCT      05024
001488: 14,3217           13000                          OCT      13000
001489: 14,3220           34712                          CAF      BIT1
001490: 14,3221           54304                          TS       STARIND
001491: 14,3222           13147                          TCF      P51C                                  #  GO DO SECOND STAR
001492: 14,3223           05301        P51F              TC       PHASCHNG
001493: 14,3224           05024                          OCT      05024
001494: 14,3225           13000                          OCT      13000
001495: 14,3226           06006                          TC       INTPRET
001496: 14,3227           45145                          DLOAD    CALL
001497: 14,3230           02607                                   TSIGHT
001498: 14,3231           32363                                   PLANET
001499: 14,3232           24015                          STOVL    12D
001500: 14,3233           02601                                   PLANVEC
001501: 14,3234           24007                          STOVL    6D
001502: 14,3235           02611                                   STARSAV1
001503: 14,3236           26736                          STOVL    STARAD
001504: 14,3237           02617                                   STARSAV2
001505: 14,3240           36744                          STCALL   STARAD     +6
001506: 14,3241           30702                                   CHKSDATA                              #  CHECK STAR ANGLES IN STARAD AND
001507: 14,3242           77414                          BON      EXIT
001508: 14,3243           00314                                   FREEFLAG
001509: 14,3244           31246                                   P51G
001510: 14,3245           03065                          TC       P51AA
001511: 14,3246           77624        P51G              CALL
001512: 14,3247           47334                                   AXISGEN                               #  COME BACK WITH REFSMMAT IN XDC
001513: 14,3250           75160                          AXC,1    AXC,2
001514: 14,3251           02713                                   XDC
001515: 14,3252           01735                                   REFSMMAT
001516: 14,3253           45014                          CLEAR    CALL
001517: 14,3254           01662                                   REFSMFLG
001518: 14,3255           31040                                   MATMOVE
001519: 14,3256           52014                          SET      GOTO
001520: 14,3257           01462                                   REFSMFLG
001521: 14,3260           32143                                   ENDP50S
001522: 14,3261     4720               PRFMSTAQ          =        OCT15
001523: 14,3261     4714               P51ZERO           =        ZERO
001524: 14,3261     4715               P51FIVE           =        FIVE
001525: 14,3261           01426        V6N22             VN       0622
001526: 14,3262           12200        V41K              VN       4100
001527:
001528: 14,3263           30025        SET1/PDT          CA       TIME1
001529: 14,3264           55074                          TS       1/PIPADT
001530: 14,3265           16030                          TCF      DANZIG
001531:                                                                                                 #  Page 729
001532: 14,3266           77620        SXTSM             STQ
001533: 14,3267           00300                                   QMAJ
001534: 14,3270           70740                          LXC,1    DLOAD*
001535: 14,3271           01330                                   MARKSTAT
001536: 14,3272           00001                                   0D,1
001537: 14,3273           02607                          STORE    TSIGHT
001538: 14,3274           66744                          LXC,2    SLOAD*
001539: 14,3275           00304                                   STARIND
001540: 14,3276           46456                                   MKDNCDR,2
001541: 14,3277           76744                          LXC,2    VLOAD*
001542: 14,3300           00154                                   MPAC
001543: 14,3301           00001                                   0,1
001544: 14,3302           10001                          STORE    0,2
001545: 14,3303           77743                          DLOAD*
001546: 14,3304           00006                                   5,1
001547: 14,3305           10006                          STORE    5,2
001548: 14,3306           77624                          CALL
001549: 14,3307           46000                                   SXTNB                                 #  COMPUTE LOS VECTOR FROM OCDU IN MKVAC
001550: 14,3310           62150                          LXA,1    INCR,1
001551: 14,3311           01330                                   MARKSTAT
001552: 14,3312           00002                                   2                                     #  INCREMENT TO BASE ADR OF ICDU
001553: 14,3313           45130                          SXA,1    CALL
001554: 14,3314           00050                                   S1
001555: 14,3315           47541                                   NBSM                                  #  TRANSFORM LOS TO SM
001556: 14,3316           77650                          GOTO
001557: 14,3317           00300                                   QMAJ
001558: 14,3320           03674        MKDNCDR           ECADR    MARKDOWN
001559: 14,3321           03502                          ECADR    MARK2DWN
001560:
001561:                                                                                                 #  Page 730
001562:                                                                                                 #  PROGRAM DESCRIPTION:  R53 -- SIGHTING MARK ROUTINE
001563:                                                                                                 #  MOD. NO. 2                                             21 DEC 66
001564:                                                                                                 #  MOD. BY STURLAUGSON
001565:
001566:                                                                                                 #  FUNCTIONAL DESCRIPTIION:
001567:
001568:                                                                                                 #         TO PERFORM A SATISFACTORY NUMBER OF SIGHTING MARKS FOR THE REQUESTING PROGRAM (OR ROUTINE).  SIGHTINGS
001569:                                                                                                 #         CAN BE MADE ON A STAR OR LANDMARK.  WHEN THE CMC ACCEPTS A MARK IT RECORDS AND STORES 5 ANGLES (3 ICDUS AND 2
001570:                                                                                                 #         OCDUS) AND THE TIME OF THE MARK.
001571:
001572:                                                                                                 #  CALLING SEQUENCE:
001573:
001574:                                                                                                 #         R53 IS CALLED AND RETURNS IN INTERPRETIVE CODE.  RETURN IS VIA QPRET.
001575:                                                                                                 #         THERE IS NO ERROR EXIT IN THIS ROUTINE ITSELF.
001576:
001577:                                                                                                 #  SUBROUTINES CALLED
001578:                                                                                                 #
001579:                                                                                                 #         SXTMARK
001580:                                                                                                 #         OPTSTALL
001581:                                                                                                 #         GOFLASH
001582:
001583:                                                                                                 #  ERASABLE INITIALIZATION:
001584:
001585:                                                                                                 #         TARGET FLAG -- STAR OR LANDMARK
001586:                                                                                                 #         MARKINDX -- NUMBER OF MARKS WANTED
001587:                                                                                                 #         STARIND -- INDEX TO BESTI OR BESTJ (STAR NUMBER)
001588:
001589:                                                                                                 #  OUTPUT
001590:
001591:                                                                                                 #         MARKSTAT CONTAINS INDEX TO VACANT AREA WEHRE MARK DATA IS STORED
001592:                                                                                                 #         BESTI (INDEXED BY STARIND) CONTAINS STAR NUMBER SIGHTED.
001593:
001594:                                                                                                 #  DEBRIS
001595:
001596:                                                                                                 #         MARKINDX CONTAINS NUMBER OF MARKS DESIRED
001597:
001598: 14,2000                                          SETLOC   RT53
001599: 14,2000                                          BANK
001600:
001601: 14,3322                                          COUNT    14/R53
001602:
001603: 14,3322           43020        R53               STQ      SET                                   #  SET SIGHTING MARK FLAG
001604: 14,3323           03501                                   R53EXIT
001605: 14,3324           00071                                   R53FLAG
001606: 14,3325           77776                          EXIT
001607: 14,3326           30301        R53A              CA       MARKINDX                              #  NUMBER OF MARKS
001608: 14,3327           74716                          MASK     LOW3
001609: 14,3330           04555                          TC       BANKCALL
001610: 14,3331           16002                          CADR     SXTMARK
001611: 14,3332           04555                          TC       BANKCALL
001612: 14,3333           17512                          CADR     OPTSTALL
001613: 14,3334           05644                          TC       CURTAINS
001614: 14,3335           51330                          INDEX    MARKSTAT
001615: 14,3336           10052                          CCS      QPRET                                 #  NUMNBER OF MARKS ACTUALLY DONE
001616: 14,3337           13350                          TCF      R53B
001617: 14,3340           13342                          TCF      +2                                    #  ZERO
001618: 14,3341           13342                          TCF      +1                                    #  CCS HOLE
001619: 14,3342           34714                          CAF      ZERO                                  #  HOUSEKEEP VAC AREA SAVE
001620: 14,3343           57330                          XCH      MARKSTAT                              #         AND MARKSTAT
001621:                                                                                                 #  Page 731
001622: 14,3344           10000                          CCS      A
001623: 14,3345           50000                          INDEX    A
001624: 14,3346           54000                          TS       0
001625: 14,3347           13326                          TCF      R53A
001626: 14,3350           05253        R53B              TC       CHECKMM
001627: 14,3351           00026                          MM       22         B-14
001628: 14,3352           13354                          TCF      +2
001629: 14,3353           13400                          TCF      R53D
001630: 14,3354           05253                          TC       CHECKMM
001631: 14,3355           00027                          MM       23         B-14
001632: 14,3356           13360                          TCF      R53C
001633: 14,3357           13400                          TCF      R53D
001634: 14,3360           33404        R53C              CAF      V01N71
001635: 14,3361           04555                          TC       BANKCALL
001636: 14,3362           20763                          CADR     GOFLASHR
001637: 14,3363           04106                          TC       GOTOP00H                              #  TERM.
001638: 14,3364           13371                          TCF      R53Z
001639: 14,3365           03360                          TC       R53C                                  #  RECYCLE
001640: 14,3366           36211                          CAF      SIX
001641: 14,3367           05415                          TC       BLANKET
001642: 14,3370           05112                          TC       ENDOFJOB
001643: 14,3371           47713        R53Z              CS       HIGH9
001644: 14,3372           70735                          MASK     STARCODE
001645: 14,3373           00006                          EXTEND
001646: 14,3374           76211                          MP       SIGHTSIX
001647: 14,3375           56001                          XCH      L
001648: 14,3376           50304                          INDEX    STARIND
001649: 14,3377           54302                          TS       BESTI
001650: 14,3400           06006        R53D              TC       INTPRET
001651: 14,3401           77614        R53OUT            SETGO
001652: 14,3402           03420                                   TERMIFLG                              #  SET TERMINATE FOR R52
001653: 14,3403           03501                                   R53EXIT
001654: 14,3404     6211               SIGHTSIX          =        SIX
001655: 14,3404           00307        V01N71            VN       0171
001656:
001657:                                                                                                 #  Page 732
001658:                                                                                                 #  NAME -- S52.2
001659:                                                                                                 #  FUNCTION -- COMPUTE GIMBAL ANGLES FOR DESIRED SM AND PRESENT VEHICLE
001660:                                                                                                 #  CALL -- CALL S52.2
001661:                                                                                                 #  INPUT -- X,Y,ZSMD
001662:                                                                                                 #  OUTPUT -- OGC,IGC,MGC,THETAD,+1,+2
001663:                                                                                                 #  SUBROUTINES -- CDUTRIG, CALCSMSC, MATMOVE, CALCGA
001664:
001665: 11,2000                                          SETLOC   S52/2
001666: 11,2000                                          BANK
001667:
001668: 11,2256                                          COUNT    13/S52.2
001669:
001670: 11,2256           77620        S52.2             STQ
001671: 11,2257           00300                                   QMAJ
001672: 11,2260           77624                          CALL
001673: 11,2261           47432                                   CDUTRIG
001674: 11,2262           77624                          CALL
001675: 11,2263           34567                                   CALCSMSC
001676: 11,2264           66370                          AXT,1    SSP
001677: 11,2265           00022                                   18D
001678: 11,2266           00051                                   S1
001679: 11,2267           00006                                   6D
001680: 11,2270           61373        S52.2A            VLOAD*   VXM
001681: 11,2271           02736                                   XNB        +18D,1
001682: 11,2272           01736                                   REFSMMAT
001683: 11,2273           77656                          UNIT
001684: 11,2274           06736                          STORE    XNB        +18D,1
001685: 11,2275           77700                          TIX,1
001686: 11,2276           22270                                   S52.2A
001687: 11,2277           75160        S52.2.1           AXC,1    AXC,2
001688: 11,2300           00306                                   XSMD
001689: 11,2301           02671                                   XSM
001690: 11,2302           77624                          CALL
001691: 11,2303           31040                                   MATMOVE
001692: 11,2304           77624                          CALL
001693: 11,2305           47244                                   CALCGA
001694: 11,2306           77650                          GOTO
001695: 11,2307           00300                                   QMAJ
001696:
001697:                                                                                                 #  Page 733
001698:                                                                                                 #  PROGRAM NAME:  SR52.1                          DATE:  DEC 20 1968
001699:                                                                                                 #  MOD 1                                          LOG SEC:  P51-P53
001700:                                                                                                 #  BY KEN VINCENT                         ASSEMBLY:  SUNDISK REV 40
001701:
001702:                                                                                                 #  FUNCTION
001703:
001704:                                                                                                 #  TARG1 AND TARG2 FLAGS ARE LOOKED AT TO DETERMINE IF THE TARGET IS THE
001705:                                                                                                 #  LEM, STAR, OR LANDMARK.  IN CASE OF LEM OR LMK, THE PRESENT TIME PLUS
001706:                                                                                                 #  2 SECONDS IS SAVED IN AOPTIME (ALIAS STARAD, +1).  IF THE LEM IS
001707:                                                                                                 #  THE TARGET THEN CONIC UPDATES OF TEH CSM AND LEM ARE MADE TO
001708:                                                                                                 #  THE TIME IN AOPTIME.  THE UNIT OF THE DIFFERENCE OF LEM AND CSM
001709:                                                                                                 #  POSITION VECTORS BECOMES THE REFERENCE SIGHTING VECTOR USED IN THE
001710:                                                                                                 #  COMMON PART OF THE THIS PROGRAM.
001711:
001712:                                                                                                 #  IN THE CASE OF LANDMARK, THE CSM IS UPDATED CONICALLY.  THE RADIUS
001713:                                                                                                 #  VECTOR FOR THE LANDMARK IS OBTAINED FROM LALOTORV.  BOTH OF THESE ARE
001714:                                                                                                 #  FOUND FOR THE TIME IN AOPTIME.  THE UNIT OF THE DIFFERENCE BETWEEN
001715:                                                                                                 #  THE LANDMARK AND CSM RADIUS VECTORS BECOMES THE REFERENCE SIGHTING
001716:                                                                                                 #  VECTOR FOR THE COMMON PART OF THIS ROUTINE.
001717:
001718:                                                                                                 #  IF A STAR IS THE TARGET, THE PROPER STAR IS OBTAINED FROM THE CATALOG
001719:                                                                                                 #  AND THIS VECTOR BECOMES THE REFERENCE SIGHTING VECTOR.
001720:
001721:                                                                                                 #  THE COMMON PART OF THIS PROGRAM TRANSFORMS THE REFERENCE SIGHTING
001722:                                                                                                 #  VECTOR INTO STABLE MEMBER COORDINATES.  IT READS THE IMU-CDUS AND USES
001723:                                                                                                 #  THIS DATA IN A CALL TO CALCSXA.  ON RETURN FROM CALCSXA A TEST IS
001724:                                                                                                 #  MADE TO SEE IF THE TRUNNION ANGLE IS GREATER THAN 90DEG OR 38DEG.
001725:                                                                                                 #  MADE TO SEE IF THE TRUNNION ANGLE IS GREATER THAN 90DEG OR 50DEG.
001726:
001727:                                                                                                 #  CALLING SEQUENCE
001728:
001729:                                                                                                 #         L+4     RETURN WHEN SHAFT OR TRUNION NOT WITHIN 5 DEG OF DESIRED
001730:                                                                                                 #         L       TC      BANKCALL
001731:                                                                                                 #         L+1     CADR    SR52.1
001732:                                                                                                 #         L+2     ERROR RETURN    TRUNNION GREATER THAN 90 DEG.
001733:                                                                                                 #         L+3     ERROR RETURN    TRUNNION GREATER THAN 50 DEG
001734:                                                                                                 #         L+4     NORMAL RETURN
001735:
001736:                                                                                                 #  OUTPUT
001737:
001738:                                                                                                 #         SAC:    SINGLE PREC, 2'S COMP, SCALED AT HALF REVS -- SHAFT ANGLE DESIRED.
001739:                                                                                                 #         PAC:    SINGLE PREC, 2'S COMP, SCALED AT EIGHTH REVS -- TRUNNION ANGLE DESIRED.
001740:
001741:                                                                                                 #  INITIALIZATION
001742:
001743:                                                                                                 #         IF TARG1FLG =1 THEN TARGET IS LEM -- NO OTHER INPUT REQUIRED.
001744:
001745:                                                                                                 #         IF TARG1FLG =0 AND TARG2FLG =0 THE TARGET IS STAR, STARIND SHOULD
001746:                                                                                                 #         0 OR 1 DENOTING BESTI OR BESTJ RESPECTIVELY AS STAR CODE.  STAR CODES
001747:                                                                                                 #         ARE 6 TIMES STAR NUMBER.
001748:
001749:                                                                                                 #         IF TARG1FLG =0 AND TARG2FLG =1 THEN TARGET IS LANDMARK.  SETT ROUTINE
001750:                                                                                                 #         LALOTORV FOR INPUT REQUIREMENTS.  HERE FIXERAD=1 FOR CONSTANT EARTH
001751:                                                                                                 #         RADIUS
001752:
001753:                                                                                                 #  DEBRIS
001754:
001755:                                                                                                 #         WORK AREA
001756:                                                                                                 #         STARAD -- STAR+5 (STAR IS DESIRED LOS IN STABLE MEMBER COORDINATES)
001757:
001758: 11,2310                                          COUNT*   $$/SR521
001759:                                                                                                 #  Page 734
001760: 13,2000                                          SETLOC   SR52/1
001761: 13,2000                                          BANK
001762:
001763: 13,2176           04604        SR52.1            TC       MAKECADR
001764: 13,2177           55777                          TS       QMIN
001765: 13,2200           06006                          TC       INTPRET
001766: 13,2201           43234                          RTB      DAD
001767: 13,2202           45505                                   LOADTIME
001768: 13,2203           26317                                   1.3SECDP
001769: 13,2204           02356                          STORE    AOPTIME
001770: 13,2205           43014                          BON      BON
001771: 13,2206           00705                                   TARG1FLG
001772: 13,2207           26214                                   LEM52
001773: 13,2210           00706                                   TARG2FLG
001774: 13,2211           26224                                   LMK52
001775: 13,2212           77650                          GOTO
001776: 13,2213           26245                                   STAR52
001777: 13,2214           77745        LEM52             DLOAD
001778: 13,2215           02356                                   AOPTIME
001779: 13,2216           34041                          STCALL   TDEC1
001780: 13,2217           27057                                   LEMCONIC
001781: 13,2220           77775                          VLOAD
001782: 13,2221           00001                                   RATT
001783: 13,2222           77650                          GOTO
001784: 13,2223           26234                                   LMKLMCOM
001785: 13,2224           71214        LMK52             BON      DLOAD
001786: 13,2225           04305                                   ADVTRK
001787: 13,2226           54000                                   ADVTRACK
001788: 13,2227           02356                                   AOPTIME
001789: 13,2230           77624                          CALL
001790: 13,2231           26373                                   LALOTORV
001791: 13,2232           77775                          VLOAD
001792: 13,2233           02152                                   ALPHAV
001793: 13,2234           16766        LMKLMCOM          STODL    STAR
001794: 13,2235           02356                                   AOPTIME
001795: 13,2236           34041                          STCALL   TDEC1
001796: 13,2237           27045                                   CSMCONIC
001797: 13,2240           52375                          VLOAD    VSU
001798: 13,2241           02766                                   STAR
001799: 13,2242           00001                                   RATT
001800: 13,2243           52056                          UNIT     GOTO
001801: 13,2244           26260                                   COM52
001802: 13,2245           72131        STAR52            SSP      LXA,1
001803: 13,2246           00051                                   S1
001804: 13,2247           00000                                   0
001805: 13,2250           00304                                   STARIND
001806: 13,2251           77700                          TIX,1
001807: 13,2252           26256                                   ST52ST
001808: 13,2253           52175                          VLOAD    GOTO
001809: 13,2254           02617                                   STARSAV2
001810:                                                                                                 #  Page 735
001811: 13,2255           26260                                   COM52
001812: 13,2256           77775        ST52ST            VLOAD
001813: 13,2257           02611                                   STARSAV1
001814: 13,2260           53521        COM52             MXV      UNIT
001815: 13,2261           01736                                   REFSMMAT
001816: 13,2262           02766                          STORE    STAR
001817: 13,2263           45001                          SETPD    CALL
001818: 13,2264           00001                                   0
001819: 13,2265           47432                                   CDUTRIG                               #  COMPUTES SINES AND COSINES FOR CALCSXA
001820: 13,2266           77624                          CALL                                           #         NOW EXPECT TO SEE THE CDU ANGLES.
001821: 13,2267           46034                                   CALCSXA
001822: 13,2270           77414                          BOFF     EXIT
001823: 13,2271           01750                                   CULTFLAG
001824: 13,2272           26274                                   TRUN38
001825: 13,2273           02312                          TC       SR52E1
001826: 13,2274           45345        TRUN38            DLOAD    DSU
001827: 13,2275           02776                                   PAC
001828: 13,2276           26315                                   38TRDEG
001829: 13,2277           71244                          BPL      DLOAD
001830: 13,2300           26305                                   SR52E22
001831: 13,2301           02776                                   PAC
001832: 13,2302           51025                          DSU      BPL
001833: 13,2303           26321                                   20DEGSMN
001834: 13,2304           26307                                   SR52E3
001835: 13,2305           77776        SR52E22           EXIT
001836: 13,2306           02311                          TC       SR52E2
001837: 13,2307           77776        SR52E3            EXIT
001838: 13,2310           25777                          INCR     QMIN
001839: 13,2311           25777        SR52E2            INCR     QMIN
001840: 13,2312           31777        SR52E1            CA       QMIN
001841: 13,2313           04561                          TC       SWCALL
001842:
001843: 13,2314           25252 25254  38TRDEG           2DEC     .66666667                             #  CORRESPONDS TO 50 DEGS IN TRUNION
001844: 13,2316           00000 00202  1.3SECDP          2DEC     130        B-28
001845: 13,2320           61740        20DEGSMN          DEC      -07199     B-14
001846: 13,2321           77777                          DEC      -0         B-14
001847:
001848:                                                                                                 #  Page 736
001849:                                                                                                 #  THE ADVTRACK ROUTINE IS USED TO COMPUTE AN OPTICS LOS VECTOR TO
001850:                                                                                                 #  A POINT ON THE GROUND TRACK 60 DEGREES FORWARD OF THE LOCAL VERTICAL
001851:                                                                                                 #  OF AN ADVANCED ORBIT A SPECIFIED NUMBER OF REVOLUTIONS FROM NOW.
001852:
001853: 26,2000                                          SETLOC   26P50S
001854: 26,2000                                          BANK
001855:
001856: 26,2000           77601        ADVTRACK          SETPD
001857: 26,2001           00001                                   0
001858: 26,2002           41575                          VLOAD    PUSH                                  #  INITIALIZE FOR RP-TO-R
001859: 26,2003           15324                                   UNITZ                                 #  UZ VEC IN PD 0-5
001860: 26,2004           41434                          RTB      PUSH                                  #  TIME IN PD 6-7
001861: 26,2005           45505                                   LOADTIME
001862: 26,2006           36356                          STCALL   AOPTIME                               #  TIME ALSO IN AOPTIME FOR CSMCONIC
001863: 26,2007           55341                                   RP-TO-R                               #  GET MOON ROTATION VEC IN REF
001864: 26,2010           16766                          STODL    STAR
001865: 26,2011           02356                                   AOPTIME                               #  PICK UP TIME
001866: 26,2012           34041                          STCALL   TDEC1                                 #  UPDATE STATE TO TIME
001867: 26,2013           27045                                   CSMCONIC
001868: 26,2014           47375                          VLOAD    VXV
001869: 26,2015           00007                                   VATT
001870: 26,2016           00001                                   RATT
001871: 26,2017           77656                          UNIT
001872: 26,2020           24031                          STOVL    24D                                   #  SAVE -UNIT(VxR) FOR 2ND ROTATION
001873: 26,2021           00001                                   RATT
001874: 26,2022           57456                          UNIT     VCOMP
001875: 26,2023           41401                          SETPD    PUSH                                  #  PUSH LOS=-UNIT(RVEC) PD 0-5
001876: 26,2024           00001                                   0
001877: 26,2025           77776                          EXIT
001878: 26,2026           31751                          CA       LANDMARK
001879: 26,2027           74716                          MASK     SEVEN                                 #  GET NUMBER OF ADVANCE PERIODS
001880: 26,2030           00006                          EXTEND
001881: 26,2031           74700                          MP       BIT11                                 #  GET N/16
001882: 26,2032           56001                          XCH      L
001883: 26,2033           50120                          INDEX    FIXLOC
001884: 26,2034           54036                          TS       30D                                   #  TEMP STORE N/16
001885: 26,2035           06006                          TC       INTPRET
001886: 26,2036           41335                          SLOAD    DMP
001887: 26,2037           00037                                   30D
001888: 26,2040           14107                                   MPERIOD
001889: 26,2041           36356                          STCALL   AOPTIME                               #  ROTATE ANG ABOUT UR
001890: 26,2042           54057                                   ROTA
001891: 26,2043           77775                          VLOAD
001892: 26,2044           00031                                   24D                                   #  PICK UP 2ND ROTATION AXIS
001893: 26,2045           16766                          STODL    STAR
001894: 26,2046           14105                                   DP1/6
001895: 26,2047           77625                          DSU
001896: 26,2050           02356                                   AOPTIME                               #  2ND RAT ANGLE = 60 - A
001897: 26,2051           36356                          STCALL   AOPTIME
001898: 26,2052           54057                                   ROTA                                  #  GO ROTATE 2ND TIME
001899: 26,2053           77775                          VLOAD
001900:                                                                                                 #  Page 737
001901: 26,2054           00001                                   0
001902: 26,2055           36766                          STCALL   STAR                                  #  STORE FINAL LOS IN STAR
001903: 26,2056           26260                                   COM52                                 #  RETURN TO SR52.1
001904:
001905: 26,2057           73545        ROTA              DLOAD    SIN
001906: 26,2060           02356                                   AOPTIME
001907: 26,2061           47315                          PDVL     VXV                                   #  PUSH 1/2SIN(A) PD 6-7
001908: 26,2062           02766                                   STAR                                  #         UR VEC
001909: 26,2063           00001                                   0                                     #         LOS
001910: 26,2064           72561                          VXSC     VSL2                                  #  1/2SIN(A)(URXLOS) PD 6-11
001911: 26,2065           50315                          PDVL     DOT
001912: 26,2066           02766                                   STAR
001913: 26,2067           00001                                   0
001914: 26,2070           72561                          VXSC     VSL2
001915: 26,2071           02766                                   STAR
001916: 26,2072           71525                          PDDL     COS                                   #  1/2(UR . LOS)UR 12-17
001917: 26,2073           02356                                   AOPTIME
001918: 26,2074           51315                          PDVL     BVSU                                  #  PUSH 1/2COS(A) 18-19
001919: 26,2075           00015                                   12D
001920: 26,2076           00001                                   0
001921: 26,2077           76561                          VXSC     VSL1                                  #  UP 18-19
001922: 26,2100           53255                          VAD      VAD                                   #  UP 12-17 UP 6011
001923: 26,2101           40256                          UNIT     SETPD
001924: 26,2102           00001                                   0
001925: 26,2103           43406                          PUSH     RVQ
001926:
001927: 26,2104           05252 25251  DP1/6             2DEC     .16666666
001928: 26,2106           01414 06044  MPERIOD           2DEC     .047619                               #  APPROX LUNAR ROT ANG IN 2HRS x 16
001929:
001930:                                                                                                 #  Page 738
001931:                                                                                                 #  NAME -- S52.3
001932:                                                                                                 #  FUNCTION --    XSMD= UNIT(YSMD x ZSMD)
001933:                                                                                                 #                 YSMD= UNIT(V X R)
001934:                                                                                                 #                 ZSMD= UNIT(-R)
001935:                                                                                                 #  CALL --        DLOAD   CALL
001936:                                                                                                 #                         TALIGN
001937:                                                                                                 #                         S52.3
001938:                                                                                                 #  INPUT --       TIME OF ALIGNMENT IN MPAC
001939:                                                                                                 #  OUTPUT --      X,Y,ZSMD
001940:                                                                                                 #  SUBROUTINES -- CSMCONIC
001941:
001942: 16,2000                                          SETLOC   P50S2
001943: 16,2000                                          BANK
001944:
001945: 16,2636                                          COUNT    15/S52.3
001946:
001947: 16,2636           77620        S52.3             STQ
001948: 16,2637           00300                                   QMAJ
001949: 16,2640           34041                          STCALL   TDEC1
001950: 16,2641           27045                                   CSMCONIC
001951: 16,2642           77601                          SETPD
001952: 16,2643           00001                                   0
001953: 16,2644           57575                          VLOAD    VCOMP
001954: 16,2645           00001                                   RATT
001955: 16,2646           77656                          UNIT
001956: 16,2647           24323                          STOVL    ZSMD
001957: 16,2650           00007                                   VATT
001958: 16,2651           53435                          VXV      UNIT
001959: 16,2652           00001                                   RATT
001960: 16,2653           00315                          STORE    YSMD
001961: 16,2654           53435                          VXV      UNIT
001962: 16,2655           00323                                   ZSMD
001963: 16,2656           34307                          STCALL   XSMD
001964: 16,2657           00300                                   QMAJ
001965:
001966:                                                                                                 #  Page 739
001967:                                                                                                 #  PROGRAM DESCRIPTION:  R56 -- ALTERNATE LOS SIGHTING MARK ROUTINE
001968:
001969:                                                                                                 #  FUNCTIONAL DESCRIPTION
001970:
001971:                                                                                                 #         TO PERFORM SIGHTING MARKS FOR THE BACK-UP ALIGNMENT PROGRAMS (P53,P54).  THE ASTRONAUT KNOWS THE
001972:                                                                                                 #         COORDINATES (OPTICS) OF THE ALTERNATE LINE OF SIGHT HE MUST USE FOR THIS ROUTINE.  WHEN THE ASTRONAUT KEYS IN
001973:                                                                                                 #         ENTER IN RESPONSE TO THE FLASHING V50 N25 R1-XXXXX THE CMC STORES THE THREE ICDU ANGLES AND TWO ANGLES DISPLAYED
001974:                                                                                                 #         IN N92.
001975:
001976:                                                                                                 #  CALLING SEQUENCE
001977:
001978:                                                                                                 #         CALL
001979:                                                                                                 #                 R56
001980:
001981:                                                                                                 #  SUBROUTINES CALLED
001982:
001983:                                                                                                 #         A PORTION OF SXTMARK (VAC.AREA SEARCH)
001984:                                                                                                 #         GOFLASH
001985:                                                                                                 #         GOPERF1
001986:
001987:                                                                                                 #  ERASABLE INITIALIZATION
001988:
001989:                                                                                                 #         STARIND:  INDEX TO STAR NUMBER
001990:
001991:                                                                                                 #  OUTPUT
001992:
001993:                                                                                                 #         MARKSTAT:  INDEX TO VAC.AREA WHERE OUTPUT IS STORED.
001994:                                                                                                 #         BESTI (INDEXED BY STARIND) CONTAINS STAR NUMBER.
001995:                                                                                                 #         ICDU AND OCDU ANGLES IN VAC. AREA AS FOLLOWS:
001996:                                                                                                 #                 VAC +2  CDUY
001997:                                                                                                 #                 VAC +3  CDUS
001998:                                                                                                 #                 VAC +4  CDUZ
001999:                                                                                                 #                 VAC +5  CDUT
002000:                                                                                                 #                 VAC +6  CDUX
002001:
002002: 16,2660                                          COUNT*   $$/R56
002003: 15,2000                                          SETLOC   P50S
002004: 15,2000                                          BANK
002005: 15,2252           77776        R56               EXIT
002006: 15,2253           32362                          CAF      V06N94B
002007: 15,2254           04555                          TC       BANKCALL
002008: 15,2255           20624                          CADR     GOFLASH
002009: 15,2256           04106                          TC       GOTOP00H                              #  TERM.
002010: 15,2257           02261                          TC       R56A                                  #  PROCEED:  ANGLES OK
002011: 15,2260           02253                          TC       -5                                    #  ENTER:  NEW ANGLES
002012: 15,2261           04555        R56A              TC       BANKCALL
002013: 15,2262           16004                          CADR     SXTMARK    +2                         #  INHIBIR EXT VB ACT AND FIND VAC AREA
002014:
002015: 15,2263           34714                          CAF      ZERO
002016: 15,2264           04555                          TC       BANKCALL
002017: 15,2265           20607                          CADR     CLEANDSP
002018:
002019: 15,2266           32360                          CAF      VB53                                  #  DISPLAY V53 REQUESTING ALTERNATE MARK
002020: 15,2267           04555                          TC       BANKCALL
002021: 15,2270           20470                          CADR     GOMARK2
002022:                                                                                                 #  Page 740
002023: 15,2271           14106                          TCF      GOTOP00H                              #  V34:  TERMINATE
002024: 15,2272           12263                          TCF      R56A       +2                         #  V33:  DON'T PROCEED -- JUST ENTER TO MARK
002025: 15,2273           06006                          TC       INTPRET
002026: 15,2274           77745                          DLOAD
002027: 15,2275           03731                                   MRKBUF1    +3
002028: 15,2276           16774                          STODL    SAC
002029: 15,2277           03733                                   MRKBUF1    +5
002030: 15,2300           02776                          STORE    PAC
002031: 15,2301           77776                          EXIT
002032: 15,2302           00004                          INHINT
002033: 15,2303           00006                          EXTEND
002034: 15,2304           30025                          DCA      TIME2
002035: 15,2305           51330                          INDEX    MARKSTAT
002036: 15,2306           52001                          DXCH     0
002037: 15,2307           30033                          CA       CDUY                                  #  ENTER:  THIS IS A BACKUP SYSTEM MARK
002038: 15,2310           51330                          INDEX    MARKSTAT
002039: 15,2311           54002                          TS       2
002040: 15,2312           31773                          CA       SAC
002041: 15,2313           51330                          INDEX    MARKSTAT
002042: 15,2314           54003                          TS       3
002043: 15,2315           30034                          CA       CDUZ
002044: 15,2316           51330                          INDEX    MARKSTAT
002045: 15,2317           54004                          TS       4
002046: 15,2320           31775                          CA       PAC
002047: 15,2321           51330                          INDEX    MARKSTAT
002048: 15,2322           54005                          TS       5
002049: 15,2323           30032                          CA       CDUX
002050: 15,2324           51330                          INDEX    MARKSTAT
002051: 15,2325           54006                          TS       6
002052: 15,2326           00003                          RELINT
002053: 15,2327           05425                          TC       CLEARMRK                              #  ENABLE EXTENDED VERBS
002054: 15,2330           34333                          CAF      OCT16
002055: 15,2331           04555                          TC       BANKCALL
002056: 15,2332           20751                          CADR     GOPERF1
002057: 15,2333           04106                          TC       GOTOP00H                              #  TERM.
002058: 15,2334           12336                          TCF      R56B                                  #  PROCEED:  MARK COMPLETED
002059: 15,2335           12263                          TCF      R56A       +2                         #  RECYCLE:  DO ANOTHER MARK -- LIKE REJECT.
002060: 15,2336           34714        R56B              CAF      ZERO
002061: 15,2337           04555                          TC       BANKCALL
002062: 15,2340           20607                          CADR     CLEANDSP
002063:
002064: 15,2341           32361                          CAF      V01N71B
002065: 15,2342           04555                          TC       BANKCALL
002066: 15,2343           20624                          CADR     GOFLASH
002067: 15,2344           04106                          TC       GOTOP00H
002068: 15,2345           02347                          TC       +2
002069: 15,2346           12336                          TCF      R56B                                  #  RECYCLE
002070: 15,2347           47713                          CS       HIGH9
002071: 15,2350           70735                          MASK     STARCODE
002072: 15,2351           00006                          EXTEND
002073:                                                                                                 #  Page 741
002074: 15,2352           76211                          MP       SIX
002075: 15,2353           56001                          XCH      L
002076: 15,2354           50304                          INDEX    STARIND
002077: 15,2355           54302                          TS       BESTI
002078: 15,2356           06006                          TC       INTPRET
002079: 15,2357           77616                          RVQ
002080: 15,2360           15200        VB53              VN       05300                                 #  ALTERNATE MARK VERB
002081: 15,2361           00307        V01N71B           VN       00171
002082: 15,2362           01536        V06N94B           VN       00694
002083:
002084: 15,2363           02607        PLANET            STORE    TSIGHT
002085: 15,2364           45020                          STQ      CALL
002086: 15,2365           02777                                   QMIN
002087: 15,2366           30216                                   LOCSAM
002088: 15,2367           77775                          VLOAD
002089: 15,2370           02736                                   VEARTH
002090: 15,2371           24001                          STOVL    0D
002091: 15,2372           02744                                   VSUN
002092: 15,2373           26736                          STOVL    VEARTH
002093: 15,2374           00001                                   0D
002094: 15,2375           02744                          STORE    VSUN
002095: 15,2376           77776        NOSAM             EXIT
002096: 15,2377           47713                          CS       HIGH9
002097: 15,2400           70735                          MASK     STARCODE
002098: 15,2401           00006                          EXTEND
002099: 15,2402           76211                          MP       SIGHTSIX
002100: 15,2403           56001                          XCH      L
002101: 15,2404           50304                          INDEX    STARIND
002102: 15,2405           54302                          TS       BESTI
002103: 15,2406           10000                          CCS      A
002104: 15,2407           12423                          TCF      NOTPLAN
002105: 15,2410           32453                          CAF      VNPLANV
002106: 15,2411           04555                          TC       BANKCALL
002107: 15,2412           20624                          CADR     GOFLASH
002108: 15,2413           04106                          TC       GOTOP00H
002109: 15,2414           02416                          TC       +2
002110: 15,2415           02410                          TC       -5
002111: 15,2416           06006                          TC       INTPRET
002112: 15,2417           53575                          VLOAD    UNIT
002113: 15,2420           02766                                   STAR
002114: 15,2421           77650                          GOTO
002115: 15,2422           32446                                   CORPLAN
002116: 15,2423           40000        NOTPLAN           CS       A
002117: 15,2424           62452                          AD       DEC227
002118: 15,2425           00006                          EXTEND
002119: 15,2426           62437                          BZMF     CALSAM1
002120: 15,2427           50304                          INDEX    STARIND
002121: 15,2430           30302                          CA       BESTI
002122: 15,2431           50120                          INDEX    FIXLOC
002123: 15,2432           54046                          TS       X1
002124: 15,2433           06006                          TC       INTPRET
002125:                                                                                                 #  Page 742
002126: 15,2434           52173                          VLOAD*   GOTO
002127: 15,2435           31744                                   CATLOG,1
002128: 15,2436           32446                                   CORPLAN
002129: 15,2437           06006        CALSAM1           TC       INTPRET
002130: 15,2440           70740                          LXC,1    DLOAD*
002131: 15,2441           00304                                   STARIND
002132: 15,2442           00303                                   BESTI,1
002133: 15,2443           76740                          LXC,1    VLOAD*
002134: 15,2444           00154                                   MPAC
002135: 15,2445           02372                                   STARAD     -228D,1
002136: 15,2446           53455        CORPLAN           VAD      UNIT
002137: 15,2447           03474                                   VEL/C
002138: 15,2450           77650                          GOTO
002139: 15,2451           02777                                   QMIN
002140: 15,2452           00343        DEC227            DEC      227        B-14
002141: 15,2453           01530        VNPLANV           VN       0688
002142:

End of include-file P51-P53.agc.  Parent file is MAIN.agc


