
Source Code


000002:                                                                                                  #  Copyright:    Public domain.
000003:                                                                                                  #  Filename:     Template.agc
000004:                                                                                                  #  Purpose:      Part of the source code for Colossus, build 249.
000005:                                                                                                  #                It is part of the source code for the Command Module's (CM)
000006:                                                                                                  #                Apollo Guidance Computer (AGC), possibly for Apollo 8 and 9.
000007:                                                                                                  #  Assembler:    yaYUL
000008:                                                                                                  #  Reference:    pp. 747-776 of 1701.pdf.
000009:                                                                                                  #  Contact:      Ron Burkey <info@sandroid.org>.
000010:                                                                                                  #  Website:      www.ibiblio.org/apollo.
000011:                                                                                                  #  Mod history:  08/17/04 RSB.   Began transcribing.
000012:                                                                                                  #                2010-10-24 JL   Indentation fixes.
000013:                                                                                                  #                2010-10-24 JL   Fixed a pseudo-label on p751.
000014:                                                                                                  #                2010-10-25 JL   Fixed page number.
000015:                                                                                                  #                2011-05-07 JL   Flagged SBANK= workarounds for future removal.
000016:                                                                                                  #                                Fixed garbled lines.
000017:
000018:                                                                                                  #  The contents of the "Colossus249" files, in general, are transcribed
000019:                                                                                                  #  from a scanned document obtained from MIT's website,
000020:                                                                                                  #  http://hrst.mit.edu/hrs/apollo/public/archive/1701.pdf.  Notations on this
000021:                                                                                                  #  document read, in part:
000022:
000023:                                                                                                  #        Assemble revision 249 of AGC program Colossus by NASA
000024:                                                                                                  #        2021111-041.  October 28, 1968.
000025:
000026:                                                                                                  #        This AGC program shall also be referred to as
000027:                                                                                                  #                                Colossus 1A
000028:
000029:                                                                                                  #        Prepared by
000030:                                                                                                  #                        Massachusetts Institute of Technology
000031:                                                                                                  #                        75 Cambridge Parkway
000032:                                                                                                  #                        Cambridge, Massachusetts
000033:                                                                                                  #        under NASA contract NAS 9-4065.
000034:
000035:                                                                                                  #  Refer directly to the online document mentioned above for further information.
000036:                                                                                                  #  Please report any errors (relative to 1701.pdf) to info@sandroid.org.
000037:
000038:                                                                                                  #  In some cases, where the source code for Luminary 131 overlaps that of
000039:                                                                                                  #  Colossus 249, this code is instead copied from the corresponding Luminary 131
000040:                                                                                                  #  source file, and then is proofed to incorporate any changes.
000041:


000043:                                                                                                  #  PROGRAM:      P61
000044:                                                                                                  #  MOD NO.:      0       MAR. 13, 1967
000045:                                                                                                  #  MOD BY:       R. HIRSCHKOP
000046:                                                                                                  #  MOD NO: 1     MOD BY:  RR BAIRNSFATHER        DATE: 22 JUN 67         RESTARTS
000047:                                                                                                  #  MOD NO: 2     MOD BY:  RR BAIRNSFATHER        DATE: 17 JAN 68         COLOSSUS GSOP CHANGES
000048:                                                                                                  #  MOD NO: 3     MOD BY:  RR BAIRNSFATHER        DATE:  8 MAY 68         DELETE CMSM MANEUVER (PCR 50)
000049:                                                                                                  #  FUNCTION:     TO CALCULATE AND DISPLAY EMS INITIALIZATION DATA
000050:                                                                                                  #  CALLING SEQUENCE:  BY V37
000051:                                                                                                  #  EXIT:         TO P62
000052:                                                                                                  #  SUBROUTINE CALLS:  S61.1, S61.3, GOFLASH, FLAGUP, R02BOTH
000053:                                                                                                  #  ERASABLE INITIALIZATION:
000054:                                                                                                  #        EMSALT (-29) M          .05G ALTITUDE ABOVE FISCHER ELLIPSOID   PAD LOADED.
000055:                                                                                                  #        ALFAPAD /180            HYPERSONIC CM TRIM ANGLE OF ATTACK      PAD LOADED
000056:                                                                                                  #  OUTPUT:       THE FOLLOWING REGISTERS ARE WRITTEN IN FOR USE BY DISPLAYS
000057:                                                                                                  #                GMAX    100 GMAX (-14) G,S      MAXIMUM ACCELERATION
000058:                                                                                                  #                VPRED   (-7) M/CS               PREDICTED VELOCITY AT 400K FT
000059:                                                                                                  #                GAMMAEI (GAMMA/360              PREDICTED GAMMA    AT 400K FT
000060:                                                                                                  #                RTGO    THETAH/360              RANGE ANGLE TO SPLASH FROM EMSALT       EMSALT IS PAD LOADED
000061:                                                                                                  #                VIO     (-7) M/CS               INERTIAL VELOCITY AT       EMSALT       EMSALT IS PAD LOADED
000062:                                                                                                  #                TTE     (-28) CS                TIME TO                    EMSALT       EMSALT IS PAD LOADED
000063:                                                                                                  #                LAT(SPL) /360                   TARGET LOCATION                         LEFT BY DSKY
000064:                                                                                                  #                LNG(SPL) /360                   TARGET LOCATION                         LEFT BY DSKY
000065:                                                                                                  #                HEADSUP (0)                     +1 = LIFT DOWN, -1 = LIFT UP            LEFT BY DSKY
000066:                                                                                                  #  DEBRIS:       SEE SUBROUTINES.
000067:
000068: 26,2217                                           BANK     26
000069: 26,2000                                           SETLOC   P60S
000070: 26,2000                                           BANK
000071:
000072: 26,2217  E6,1661                                  EBANK=   AOG
000073:
000074: 26,2217                                           COUNT*   $$/P61
000075:
000076: 26,2217           34675        P61                CA       BIT14                                 #  EXTENDED VERB SHOULD BE FREE THIS CLOSE
000077: 26,2220           55044                           TS       EXTVBACT                              #  TO V37
000078:                                                                                                  #  LOCK OUT EXTENDED VERBS SO CAN USE TFF
000079:                                                                                                  #  ROUTINES.  EXT VERB ERASE IS USED
000080:
000081: 26,2221           44712                           CS       ONE                                   #  REMOVE IF HEADSUP EVER ON UPLINK DATA
000082: 26,2222           55726                           TS       HEADSUP                               #  PRELOAD
000083:
000084: 26,2223           02543                           TC       S61.1                                 #  CHECK STATE VECTOR AND IMU ORIENTATION
000085:                                                                                                  #  RV 50GENRET. DOES PHASCHNG, GROUP 4.
000086:
000087: 26,2224           32424                           CA       V06N61                                #  LAT(SPL)      LNG(SPL)        HEADSUP
000088:                                                                                                  #  XXX.XX DEG    XXX.XX DEG      XXXXX.
000089: 26,2225           04555                           TC       BANKCALL
000090: 26,2226           20763                           CADR     GOFLASHR
000091: 26,2227           04106                           TC       GOTOP00H


000093: 26,2230           02235                           TC       P61.4
000094: 26,2231           02224                           TC       -5
000095:
000096: 26,2232           05301        P61.3              TC       PHASCHNG
000097: 26,2233           00014                           OCT      00014
000098:
000099: 26,2234           05112                           TC       ENDOFJOB
000100:
000101: 26,2235           22007        P61.4              ZL
000102: 26,2236           11726                           CCS      HEADSUP                               #  C(HEADSUP)= +1/-1
000103: 26,2237           34675                           CA       BIT14                                 #  IF HEADSUP POS,ROLLC =180 DEG.(LIFT DWN)
000104: 26,2240           12241                           NOOP                                           #  IF HEADSUP NEG,ROLLC =0 (LIFT UP)
000105: 26,2241           53716                           DXCH     ROLLC                                 #  ROLLC IS USED BY S62.3: GIM ANG AT .05G
000106:
000107: 26,2242           06006                           TC       INTPRET
000108: 26,2243           77745        NEWRNVN            DLOAD
000109: 26,2244           01205                                    PIPTIME                               #  SAVE TIME OF RN,VN TO DETERMINE IF AN
000110: 26,2245           37651                           STCALL   MM                                    #  UPDATE HAS OCCURRED.
000111: 26,2246           52063                                    STARTEN1                              #  INITIALIZE
000112: 26,2247           77775                           VLOAD
000113: 26,2250           01171                                    RN
000114: 26,2251           02327                           STORE    RONE
000115: 26,2252           77656                           UNIT
000116: 26,2253           26343                           STOVL    URONE
000117: 26,2254           01177                                    VN
000118: 26,2255           02335                           STORE    VONE
000119: 26,2256           53435                           VXV      UNIT
000120: 26,2257           02343                                    URONE
000121: 26,2260           03502                           STORE    UNI
000122: 26,2261           45345        DUMPP61            DLOAD    DSU
000123: 26,2262           03651                                    MM                                    #  INITIAL VALUE OF PIPTIME
000124: 26,2263           01205                                    PIPTIME
000125: 26,2264           45040                           BMN      CALRB
000126: 26,2265           54243                                    NEWRNVN                               #  UPDATED... GO TRY AGAIN
000127: 26,2266           54650                                    S61.2                                 #  GET DISPLAY DATA FOR N60 AND N63
000128:                                                                                                  #  AND RETURN IN BASIC, BELOW.
000129: 26,2267           05425        P61.1              TC       CLEARMRK
000130: 26,2270           32423                           CA       V06N60                                #  GMAX          VPRED           GAMMAEI
000131:                                                                                                  #  XXX.XX G      XXXXX. FPS      XXX.XX DEG
000132: 26,2271           04555                           TC       BANKCALL
000133: 26,2272           20624                           CADR     GOFLASH
000134:
000135: 26,2273           04106                           TC       GOTOP00H
000136: 26,2274           02276                           TC       P61.2                                 #  PROCEED
000137: 26,2275           02270                           TC       -5
000138:
000139: 26,2276           06006        P61.2              TC       INTPRET                               #  CORRECT TTE FOR TIME LAPSE DURING
000140:                                                                                                  #  ABOVE DISPLAY.
000141: 26,2277           45234                           RTB      DSU
000142: 26,2300           45505                                    LOADTIME                              #  CURRENT TIME.


000144: 26,2301           03651                                    MM                                    #  PIPTIME FOR RONE & VONE.
000145: 26,2302           77615                           DAD
000146: 26,2303           03733                                    TTE1                                  #  NEGATIVE OF FREE FALL TIME.
000147: 26,2304           03727                           STORE    TTE                                   #  DECREMENTED
000148:
000149: 26,2305           77776                           EXIT
000150:
000151: 26,2306           32425                           CA       V06N63                                #  RTGO          VIO             TTE
000152:                                                                                                  #  XXXX.X NM     XXXXX. FPS      XXBXX M,S
000153: 26,2307           04555                           TC       BANKCALL
000154: 26,2310           20624                           CADR     GOFLASH
000155: 26,2311           04106                           TC       GOTOP00H
000156: 26,2312           02314                           TC       +2
000157: 26,2313           02276                           TC       P61.2                                 #  REDO
000158:
000159:                                                                                                  #                .... THEN FALL INTO P62


000161:
000162:                                                                                                  #  PROGRAM:      P62
000163:                                                                                                  #  MOD NO.:      0       MAR. 13, 1967
000164:                                                                                                  #  MOD BY:       R. HIRSCHKOP
000165:                                                                                                  #  MOD NO:  1    MOD BY:  RR BAIRNSFATHER        DATE: 21 MAR 67
000166:                                                                                                  #  MOD NO:  2    MOD BY:  RR BAIRNSFATHER        DATE: 22 JUN 67         RESTARTS.
000167:                                                                                                  #  MOD NO:  3    MOD BY:  RR BAIRNSFATHER        DATE: 17 JAN 68         COLOSSUS GSOP CHANGES.
000168:                                                                                                  #  MOD NO:  4    MOD BY:  RR BAIRNSFATHER        DATE:  8 MAY 68         MOVE START OF DESIRED GIMBAL CALC.
000169:                                                                                                  #  FUNCTION:     1) TO NOTIFY CREW WHEN GNC SYSTEM IS PREPARED FOR CM/SM SEPARATION.
000170:                                                                                                  #                2) TO ORIENT THE CM TO THE CORRECT ATTITUDE FOR ATMOSPHERIC ENTRY.
000171:                                                                                                  #  CALLING SEQUENCE:  BY V37 OR DIRECTLY FROM P61
000172:                                                                                                  #  EXIT:         TO P63
000173:                                                                                                  #  ERASABLE INITIALIZATION:
000174:                                                                                                  #        ALFAPAD                                         LEFT BY PAD LOAD
000175:                                                                                                  #        LADPAD                                          LEFT BY PAD LOAD
000176:                                                                                                  #        (?)                                             LEFT BY PAD LOAD
000177:                                                                                                  #        LAT(SPL)        (MAY BE CHANGED BELOW)          LEFT BY DSKY, VIA P61
000178:                                                                                                  #        LNG(SPL)        (MAY BE CHANGED BELOW)          LEFT BY DSKY, VIA P61
000179:                                                                                                  #        HEADSUP         (MAY BE CHANGED BELOW)          LEFT BY DSKY, VIA P61
000180:                                                                                                  #  SUBROUTINE CALLS:  NEWMODEX, S61.1, CM/DAPIC, CM/DAPON, R02BOTH, GOPERF1, GOFLASH, GODSPR.
000181:
000182: 26,2314                                           COUNT*   $$/P62
000183:
000184: 26,2314           05243                           TC       NEWMODEX                              #  MODE CHANGE IF CAME FROM P61.
000185: 26,2315           00076                           MM       62         B-14                       #  MODE CHANGE AUTOMATIC VIA V 37.
000186: 26,2316           34712                           CA       ONE
000187: 26,2317           54332                           TS       DNLSTCOD
000188:
000189: 26,2320           02543        P62                TC       S61.1                                 #  CHECK STATE VECTOR AND IMU ORIENTATION.
000190:
000191: 26,2321           06006                           TC       INTPRET
000192: 26,2322           47131                           SSP      RTB
000193: 26,2323           03325                                    POSEXIT
000194: 26,2324           54402                                    P62.3                                 #  CALCULATE DESIRED .05G GIMBAL ANGLES.
000195:                                                                                                  #  WITHOUT DISPLAY.
000196: 26,2325           41645                                    CM/DAPIC                              #  START CM/POSE AND BODY RATE CALC
000197:
000198:                                                                                                  #  DOES 2PHSCHNG, OCT 40116, OCT 05024, OCT 13000.
000199:                                                                                                  #  CM/DAPIC SETS EBANK = EBAOG
000200:                                                                                                  #  AND RETURNS IN BASIC TO P62.2.
000201: 26,2326           00006        P62.2              EXTEND
000202: 26,2327           32431                           DCA      POSECADR                              #  CONTINUE WITH CM/POSE AFTER AV G.
000203: 26,2330           53223                           DXCH     AVEGEXIT
000204:
000205: 26,2331           34270                           CAF      OCT41                                 #  REQUEST SEPARATION
000206: 26,2332           04555                           TC       BANKCALL
000207: 26,2333           21031                           CADR     GOPERF1R
000208: 26,2334           04106                           TC       GOTOP00H
000209: 26,2335           02340                           TC       +3                                    #  PROCEED


000211:                                                                                                  #  NOTE:  NODOFLAG WILL BE SET IN CM/DAPON. ***
000212: 26,2336           02331                           TC       -5                                    #  ENTER
000213: 26,2337           02232                           TC       P61.3                                 #  FOR PHASCHNG AND ENDOFJOB
000214:
000215: 26,2340           04574                 +3        TC       POSTJUMP
000216: 26,2341           41565                           CADR     CM/DAPON                              #  DISABLE RCS DAP, ENABLE ENTRY DAP AND
000217:                                                                                                  #  DO ATTITUDE HOLD.
000218:
000219:                                                                                                  #  WILL IDLE UNTIL CM/POSE DOES ONE UPDATE.
000220:                                                                                                  #  CM/DAPON DOES NO PHASCHNG.
000221:
000222: 26,2342           32424        P62.1              CA       V06N61                                #  LAT(SPL)      LNG(SPL)        HEADSUP
000223:                                                                                                  #  XXX.XX DEG    XXX.XX DEG      0000X.
000224:
000225:                                                                                                  #  TERMINATE ATTITUDE HOLD.  SET UP COMMANDS:
000226:                                                                                                  #  ROLLC, ALFACOM, BETACOM.  BEGIN MANEUVER TO
000227:                                                                                                  #  ENTRY ATTITUDE.
000228:
000229: 26,2343           04555                           TC       BANKCALL
000230: 26,2344           20624                           CADR     GOFLASH
000231: 26,2345           02342                           TC       -3
000232: 26,2346           02350                           TC       +2
000233: 26,2347           02342                           TC       -5
000234:
000235: 26,2350           05301                           TC       PHASCHNG
000236: 26,2351           04024                           OCT      04024                                 #  USE ENTRYVN FOR DISPLAY BELOW.
000237:                                                                                                  #  EBANK WAS SET IN CM/DAPON TO EBAOG
000238:
000239: 26,2352           11726                           CCS      HEADSUP                               #  C(HEADSUP) = +/- 1
000240: 26,2353           34675                           CA       BIT14                                 #  IF HEADSUP POS, ROLLC=180 DEG (LIFT DWN)
000241: 26,2354           12355                           NOOP                                           #  IF HEADSUP NEG, ROLLC=0 DEG (LIFT UP)
000242: 26,2355           55715                           TS       ROLLC
000243: 26,2356           31411                           CA       ALFAPAD                               #  NOMINAL ALFATRIM PAD LOADED, NEG. NO.
000244: 26,2357           22007                           ZL
000245: 26,2360           53604                           DXCH     ALFACOM                               #  SET ALFACOM = ALFA TRIM, BETACOM=0
000246:
000247: 26,2361           34712                           CA       ONE                                   #  PERMITS EXDAP2 TO CHANGE FLAG TO +0
000248: 26,2362           55727                           TS       P63FLAG                               #  AS INDICATOR.  STARTS UP P63.
000249:
000250: 26,2363           34745                           CA       V06N22                                #  SET UP DISPLAY FOR CDU DESIRED VALUES
000251: 26,2364           55263                           TS       ENTRYVN                               #  FROM ENTRY ATTITUDE CALC, THAT IS
000252:                                                                                                  #  ALREADY GOING.
000253: 26,2365           05435                           TC       UPFLAG                                #  TURN ON ENTRY DISPLAY
000254: 26,2366           00134                           ADRES    ENTRYDSP                              #  ENTRYDSP = 92D BIT 13 FLAG 6
000255: 26,2367                        SKIP


000257: 26,2367           41700                           CS       CMDAPMOD                              #  GO DIRECTLY TO P63 IF BODY ATTITUDE
000258: 26,2370           74712                           MASK     ONE                                   #  IS SUCH THAT THE DELAY TASK: WAKEP62
000259: 26,2371           00006                           EXTEND                                         #  WILL BE OMITTED.
000260: 26,2372           12420                           BZF      P63.1                                 #  DISABLE GRP 4, GO TO ENDOFJOB.
000261:                                                                                                  #  (I.E., CONTINUE IF CMDAPMOD = -1, OR +0)
000262: 26,2373           02406                           TC       P63
000263:
000264:                                                                                                  #  PUT JOB TO SLEEP UNTIL VEHICLE MANEUVER HAS
000265:                                                                                                  #  REDUCED ALFA TO +/-45 DEG. CONSIDER REMAINING
000266:                                                                                                  #  65 DEG (25 DEG IF ALFA NEG) TO ALFA TRIM TO
000267:                                                                                                  #  OCCUR AT 3 DEG/SEC, AND TERMINATE P62 AT THAT
000268:                                                                                                  #  TIME.
000269:
000270:                                                                                                  #  TASK WAKEP62 IS CALLED FROM ENTRY DAP.
000271: 26,2374           34760        WAKEP62            CA       PRIO13
000272: 26,2375           05027                           TC       NOVAC
000273: 26,2376  E6,1661                                  EBANK=   AOG
000274: 26,2376           02406 54066                     2CADR    P63
000275:
000276: 26,2400           05213                           TC       TASKOVER
000277:
000278: 26,2401           54402        P62.3CAD           CADR     P62.3
000279:
000280:                                                                                                  #  EACH 2 SEC, CALCULATE GIMBAL ANGLES FOR ENTRY CON-
000281:                                                                                                  #  DITIONS THAT WILL HOLD IF REORIENTATION WERE MADE
000282:                                                                                                  #  AT PRESENT RN, VN.  COME HERE FROM CM/POSE AND ALSO
000283:                                                                                                  #  IN KEPLER PHASE OF ENTRY.
000284:
000285: 26,2402           52131        P62.3              SSP      GOTO                                  #  SET RETURN ADDRESS SO THAT ROUTINE
000286: 26,2403           00053                                    QPRET                                 #  GOES DIRECTLY TO ENTRY GUIDANCE EXIT
000287: 26,2404           53570                                    ENDEXIT                               #  THAT DOES ENTRY DISPLAY, GRP 5.
000288: 26,2405           20302                                    S62.3                                 #  PUT DESIRED CDU VALUES IN CPHI=5 FOR
000289:                                                                                                  #  N22 DISPLAY.
000290:


000292:                                                                                                  #  PROGRAM:      P63
000293:                                                                                                  #  MOD NO:       0       MAR. 13, 1967
000294:                                                                                                  #  MOD BY:       R. HIRSCHKOP
000295:                                                                                                  #  MOD NO: 1     MOD BY: RR BAIRNSFATHER         DATE: 22 JUN 67         RESTARTS
000296:                                                                                                  #  MOD NO: 2     MOD BY: RR BAIRNSFATHER         DATE: 14 JUL 67         REVISED RESTARTS
000297:                                                                                                  #  FUNCTION:     1) TO INITIALIZE THE ENTRY EQUATIONS.
000298:                                                                                                  #                2) TO CONTINUE TO HOLD THE CM TO THE CORRECT ATTITUDE WITH RESPECT TO THE ATMOSPHERE FOR
000299:                                                                                                  #                   THE ONSET OF ENTRY DECELERATION.  ROLL ANGLE IS LIFT UP/DOWN AS SPECIFIED BY HEADSUP.
000300:                                                                                                  #                3) TO SENSE .05G.
000301:                                                                                                  #  CALLING SEQUENCE:  DIRECTLY FROM P62
000302:                                                                                                  #  EXIT:         TO ENDOFJOB
000303:                                                                                                  #  SUBROUTINE CALLS:  NEWMODEX, GODSPR
000304:
000305: 26,2406                                           COUNT*   $$/P63
000306:
000307: 26,2406           05243        P63                TC       NEWMODEX
000308: 26,2407           00077                           MM       63         B-14
000309:
000310: 26,2410           04555                           TC       BANKCALL                              #  FLUSH N22 DISPLAY, IF ON.  (ONIT DISP
000311: 26,2411           20607                           CADR     CLEANDSP                              #  DURING STATEMENT PASS.)
000312:
000313:                                                                                                  #  ARRIVE WITH EBANK = AOG.
000314:
000315: 26,2412           32427                           CA       ENTCADR                               #  CONTINUE AT STARTENT AFTER CM/POSE.
000316:
000317:                                                                                                  #  AT END OF STATEMENT, CHANGE ADDRESS IN GOTOADDR
000318:                                                                                                  #  TO CONTINUE AT SCALEPOP THEREAFTER.
000319:
000320: 26,2413           55724                           TS       POSEXIT
000321:
000322: 26,2414           32426                           CA       V06N64                                #  G             VI              R TO SPLSH
000323:                                                                                                  #  XXX.XX G      XXXX. FPS       XXXX.X NM
000324: 26,2415           55263                           TS       ENTRYVN                               #  FOR DISPLAY CALL IN OVERNOUT
000325:
000326: 26,2416           44712                           CS       ONE                                   #  IN CASE FLAG IS LEFT AT +1 BY DAP.  THE
000327: 26,2417           55727                           TS       P63FLAG                               #  -1 ASSURES THAT EXO-ATM DAP WILL NOT
000328:                                                                                                  #  CALL P63 OUT OF SEQUENCE IN P66.
000329:
000330: 26,2420           05301        P63.1              TC       PHASCHNG
000331: 26,2421           00004                           OCT      00004                                 #  DISABLE.  DISPLAY RESTARTED VIA ENTRY.
000332:
000333: 26,2422           05112                           TC       ENDOFJOB
000334:
000335: 26,2423           01474        V06N60             VN       0660
000336: 26,2424           01475        V06N61             VN       0661
000337: 26,2425           01477        V06N63             VN       0663
000338: 26,2426           01500        V06N64             VN       0664
000339: 26,2427           52000        ENTCADR            CADR     STARTENT
000340:


000342: 26,2430  E7,1451                                  EBANK=   RTINIT                                #  TO CARRY OVER INTO ENTRY STEERING.
000343: 26,2430           03373 76067  POSECADR           2CADR    CM/POSE
000344:


000346:                                                                                                  #  PROGRAM:      P64
000347:                                                                                                  #  MOD NO:       1       SEPT. 19, 1967
000348:                                                                                                  #  MOD BY:       R. HIRSCHKOP
000349:                                                                                                  #  MOD NO: 2     MOD BY: RR BAIRNSFATHER         DATE: 8 MAY 68          REVISED COMMENTS FOR COLOSSUS
000350:                                                                                                  #  FUNCTION:     1.  TO START ENTRY GUIDANCE AT .05G SELECTING ROLL ATTITUDE, CONSTANT DRAG LEVEL, AND
000351:                                                                                                  #                    DRAG THRESHHOLD, KA, WHICH ARE KEYED TO THE .05G POINT.
000352:                                                                                                  #                2.  SELECT FINAL PHASE P67 IF V < 27000 FPS WHEN .2G OCCURS.
000353:                                                                                                  #                3.  ITERATE FOR UP-CONTROL SOLUTION P65 IF V < 27000 FPS AND IF ALTITUDE RATE AND DRAG
000354:                                                                                                  #                    LEVEL CONDITIONS ARE SATISFIED.  ENTER P65 WHEN CONSTANT DRAG CONTROLLER HAS BROUGHT RANGE
000355:                                                                                                  #                    AS PREDICTED TO WITHIN 25 NM OF DESIRED RANGE.
000356:                                                                                                  #                4.  SELECT FINAL PHASE P67(?) IF NO UP-CONTROL SOLUTION EXISTS WITH VL > 18000(?) FPS.
000357:                                                                                                  #  CALLING SEQUENCE:  BY RTB FROM REENTRY CONTROL
000358:                                                                                                  #  EXIT:         BACK TO REENTRY CONTROL.
000359:                                                                                                  #  SUBROUTINE CALLS:  NEWMODEX
000360:
000361: 25,2000                                           BANK     25
000362: 26,2000                                           SETLOC   P60S1
000363: 26,2000                                           BANK
000364:
000365:                                                                                                  #  THIS DISPLAY IS CALLED EACH PASS THROUGH STEERING.  RESTART PROTECTION IS VIA STEERING.
000366: 26,2432                                           COUNT*   $$/P64
000367:
000368: 26,2432           05243        P64                TC       NEWMODEX                              #  ENTER VIA RTB WHEN .05G IS EXCEEDED.
000369: 26,2433           00100                           MM       64         B-14
000370: 26,2434           32437                           CA       V06N68                                #  ROLLC         VI              HDOT
000371:                                                                                                  #  XXX.XX DEG    XXXXX. FPS      XXXXX. FPS
000372: 26,2435           55263                           TS       ENTRYVN                               #  DISPLAY VIA OVERNOUT.
000373:
000374: 26,2436           06030                           TC       DANZIG                                #  ... AND CONTINUE IN INITROLL ...
000375: 26,2437           01504        V06N68             VN       0668
000376:


000378:                                                                                                  #  PROGRAM:      P65
000379:                                                                                                  #  MOD NO:  0    MOD BY:  RR BAIRNSFATHER        DATE:  17 JAN 68        COLOSSUS GSOP ADDITION.
000380:                                                                                                  #  FUNCTION:     TO CONTINUE ENTRY GUIDANCE, USING THE UP-CONTROL PHASE TO STEER TO A CONTROLLED EXIT
000381:                                                                                                  #                CONDITION.  THIS PHASE TERMINATES  A) IF D < Q7 FPSS, GOTO TO P66.
000382:                                                                                                  #                                                   B) IF RDOT NEG, AND IF V < VL +500 FPS, GO TO P67.
000383:                                                                                                  #  CALLING SEQUENCE:  BY RTB FROM REENTRY CONTROL
000384:                                                                                                  #  EXIT:         BACK TO REENTRY CONTROL, OR TO ENDOFJOB.
000385:                                                                                                  #  SUBROUTINE CALLS:  NEWMODEX
000386:
000387: 26,2440                                           COUNT*   $$/P65
000388:
000389: 26,2440           05243        P65                TC       NEWMODEX                              #  ENTER VIA RTB WHEN RANGE < 25 N M OF
000390: 26,2441           00101                           MM       65         B-14                       #  TARGET.
000391:
000392: 26,2442           34760                           CA       PRIO13
000393: 26,2443           05027                           TC       NOVAC
000394: 26,2444     1263                                  EBANK=   ENTRYVN
000395: 26,2444           02456 54062                     2CADR    P65.1
000396:
000397: 26,2446           05261                           TC       2PHSCHNG                              #  2 PHASE CHG REQUIRED TO PREVENT RE-
000398: 26,2447           00554                           OCT      00554                                 #  STARTING FLASHING DISPLAY TWICE.
000399: 26,2450           10035                           OCT      10035                                 #  4.55 SPOT AND SERVICER, HERE.
000400: 26,2451           06006                           TC       INTPRET
000401: 26,2452           47131                           SSP      RTB
000402: 26,2453           03646                                    GOTOADDR                              #  CHANGE ENTRY MODE TO UPCONTRL.
000403: 26,2454           53027                                    UPCONTRL
000404: 26,2455           52120                                    REFAZE10                              #  GO HERE TO REESTABLISH ENTRY SEQUENCER.
000405:                                                                                                  #  AND CONTINUE AT UPCONTRL...
000406:
000407: 26,2456           05447        P65.1              TC       DOWNFLAG
000408: 26,2457           00134                           ADRES    ENTRYDSP                              #  ENTRYDSP = 92D BIT 13 FLAG 6
000409:
000410: 26,2460           32472                           CA       V16N69                                #  ROLLC         DL (Q7)         VL
000411: 26,2461           04555                           TC       BANKCALL                              #  XXX.XX DEG    XXX.XX G        XXXXX. FPS
000412: 26,2462           20763                           CADR     GOFLASHR
000413: 26,2463           02460                           TC       -3                                    #  NODOFLAG IS SET ...
000414: 26,2464           02467                           TC       +3
000415: 26,2465           02460                           TC       -5
000416: 26,2466           02232                           TC       P61.3                                 #  EST. GRP 4 FOR DISPLAY AND DO ENDOFJOB
000417:                                                                                                  #  IF PROCEED, CONTINUE
000418: 26,2467           05435                           TC       UPFLAG
000419: 26,2470           00134                           ADRES    ENTRYDSP                              #  ENTRYDSP = 92D BIT 13 FLAG 6
000420:
000421: 26,2471           02420                           TC       P63.1                                 #  DISABLE GRP 4, START UP ENTRY DISPLAY
000422:                                                                                                  #  N06V68 VIA OVERNOUT, AS USED IN P64
000423: 26,2472           04105        V16N69             VN       1669
000424:


000426:                                                                                                  #  PROGRAM:      P66
000427:                                                                                                  #  MOD NO: 0     MOD BY: RR BAIRNSFATHER         DATE: 17 JAN 68         COLOSSUS GSOP ADDITIONS
000428:                                                                                                  #  FUNCTION:     KEEP CM ATTITUDE IN TRIM TO THE RELATIVE VELOCITY VECTOR.  ENTRY GUIDANCE STOPS GENERATING
000429:                                                                                                  #                ROLL COMMANDS UNTIL DRAG BUILDS UP TO Q7+0.5 FPSS.
000430:                                                                                                  #  CALLING SEQUENCE:  VIA RTB FROM REENTRY CONTROL.
000431:                                                                                                  #  EXIT:         BACK TO REENTRY CONTROL.
000432:                                                                                                  #  SUBROUTINE CALLS:  NEWMODEX
000433:
000434: 26,2473                                           COUNT*   $$/P66
000435:
000436: 26,2473           05243        P66                TC       NEWMODEX                              #  ENTER VIA RTB WHEN D < Q7 FPSS
000437: 26,2474           00102                           MM       66         B-14
000438:
000439: 26,2475           34745                           CA       V06N22                                #  OGA           IGA             MGA
000440:                                                                                                  #  XXX.XX DEG    XXX.XX DEG      XXX.XX DEG
000441: 26,2476           02502                           TC       P66END                                #  IN CASE CAME FROM P65, GO TO DISABLE GRP 4,
000442:                                                                                                  #  AND SET ENTRYDSP TO DO DISPLAY VIA
000443:                                                                                                  #  OVERNOUT.
000444:
000445:                                                                                                  #  ... AND CONTINUE AT KEP2
000446:


000448:                                                                                                  #  PROGRAM:      P67
000449:                                                                                                  #  MOD NO:       0       MAR. 16, 1967
000450:                                                                                                  #  MOD BY:       R. HIRSCHKOP
000451:                                                                                                  #  FUNCTION:     TO TERMINATE STEERING WHEN THE CM VELOCITY WRT EARTH = 1000 FT/SEC
000452:                                                                                                  #  CALLING SEQUENCE:  (Nothing here, sorry. --- RSB 2004)
000453:                                                                                                  #  EXIT:         TO POOH
000454:                                                                                                  #  SUBROUTINE CALLS:  GOFLASH
000455:
000456:                                                                                                  #  THIS DISPLAY IS CALLED EACH PASS THROUGH STEERING.  RESTART PROTECTION IS VIA STEERING.
000457:
000458: 26,2477                                           COUNT*   $$/P67
000459:
000460: 26,2477           05243        P67                TC       NEWMODEX                              #  ENTER VIA RTB
000461: 26,2500           00103                           MM       67         B-14
000462: 26,2501           32510                           CA       V06N66                                #  ROLLC         XRNGERR         DNRNGERR
000463:                                                                                                  #  XXX.XX DEG    XXXX.X NM       XXXX.X NM
000464: 26,2502           55263        P66END             TS       ENTRYVN                               #  DISPLAY VIA OVERNOUT.
000465:
000466: 26,2503           05435                           TC       UPFLAG                                #  (IN CASE CAME FROM P65.  ENTRY DISPLAY
000467: 26,2504           00134                           ADRES    ENTRYDSP                              #  WILL FLUSH FLASHING DISP.  IF STILL ON)
000468:                                                                                                  #  BIT 13 FLAG 6
000469: 26,2505           05301        KILLGRP4           TC       PHASCHNG                              #  DISABLE GRP4, IN CASE CAME FROM HUNTEST.
000470: 26,2506           00004                           OCT      00004                                 #  (COME TO KILLGRP4 VIA RTB, RET TO CALLER)
000471:
000472: 26,2507           06030                           TC       DANZIG                                #  ... AND CONTINUE AT PREDICT3 ...
000473:
000474: 26,2510           01502        V06N66             VN       0666
000475:
000476: 26,2511                                           BANK     26
000477: 26,2000                                           SETLOC   P60S2
000478: 26,2000                                           BANK
000479:
000480: 26,2511           32542        P67.1              CA       V16N67                                #  RTOGO         LAT             LONG
000481:                                                                                                  #  XXXX.X NM     XXX.XX DEG      XXX.XX DEG
000482: 26,2512           04555                           TC       BANKCALL
000483: 26,2513           20624                           CADR     GOFLASH
000484: 26,2514           02517                           TC       +3                                    #  EFFECTIVE GOTOP00H
000485: 26,2515           02517                           TC       +2
000486: 26,2516           02511                           TC       P67.1                                 #  REDO
000487:
000488: 26,2517           46214                           CS       THREE                                 #  TURN OFF ENTRY DAP
000489: 26,2520           00004                           INHINT
000490: 26,2521           70102                           MASK     CM/FLAGS                              #  CM/DSTBY, GAMDIFSW
000491: 26,2522           54102                           TS       CM/FLAGS
000492: 26,2523           00003                           RELINT
000493: 26,2524           00006                           EXTEND
000494: 26,2525           32642                           DCA      SERVCAD2
000495:


000497: 26,2526           53223                           DXCH     AVEGEXIT
000498: 26,2527           14106                           TCF      GOTOP00H
000499:


000501: 26,2530           43175        P67.2              VLOAD    CLEAR                                 #  CALC PRESENT LAT, LONG, ALT.
000502: 26,2531           01171                                    RN
000503: 26,2532           00662                                    ERADFLAG                              #  USE PAD RAD FOR ALT. (NOT SEEN ANYWAY)
000504: 26,2533           16152                           STODL    ALPHAV
000505: 26,2534           01205                                    PIPTIME                               #  USE TIME OF RN
000506: 26,2535           45014                           CLEAR    CALL
000507: 26,2536           01663                                    LUNAFLAG
000508: 26,2537           26322                                    LAT-LONG
000509: 26,2540           77634        P67.3              RTB                                            #  ENTRY EXIT THAT OMITS DISPLAY.
000510: 26,2541           53603                                    SERVNOUT
000511:
000512: 26,2542           04103        V16N67             VN       1667
000513: 26,2543     4270               OCT41              =        33DEC
000514: 26,2543  26,2641               SERVCAD2           =        SERVCAD1
000515:


000517:                                                                                                  #  SUBROUTINE NAME:      S61.1
000518:                                                                                                  #  MOD NO:       0                                       DATE:           21 FEB 67
000519:                                                                                                  #  MOD BY:       RR BAIRNSFATHER                         LOG SECTION:    P61-P67
000520:                                                                                                  #  MOD NO:       1       MOD BY: RR BAIRNSFATHER         DATE:           22 JUN 67       RESTARTS.
000521:
000522:                                                                                                  #  FUNCTIONAL DESCRIPTION:
000523:                                                                                                  #        FIRST, TEST TO SEE IF AVERAGEG IS ON.  IF NOT, UPDATE THE STATE VECTOR TO PRESENT TIME + TOLERANCE
000524:                                                                                                  #        AND TURN ON AVERAGEG AT THAT TIME, AND CONTINUE.  OTHERWISE CONTINUE:  SEE IF IMU Y AXIS IS
000525:                                                                                                  #        WITHIN 30 DEG OF VAR.  IF YES, EXIT SUBROUTINE S61.1.  IF SO, SEE IF -Y AXIS OF IMU IS WITHIN
000526:                                                                                                  #        30 DEG OF VAR.  IF YES, DISPLAY ALARM:  01427   IMU REVERSED.
000527:                                                                                                  #                        IF NO, DISPLAY ALARM:   01426   IMU UNSATISFACTORY.
000528:                                                                                                  #        IN EITHER OF THESE LAST 2 CASES, WAIT 10 SEC AND THEN EXIT SUBROUTINE S61.1.
000529:
000530:                                                                                                  #  REMARK:       THERE WILL BE A SHORT 10 SEC DELAY IF AN ALARM EXIT IS TAKEN.  THE DELAY FOR INTEGRATION IS
000531:                                                                                                  #                AS SHORT AS CAN BE MADE, BUT IS ARBITRARY SINCE IT DEPENDS ON THE AGE OF THE STATE VECTOR.
000532:
000533:                                                                                                  #  CALLING SEQUENCE:     CALL
000534:                                                                                                  #                                S61.1
000535:
000536:                                                                                                  #                        C(MPAC) UNSPECIFIED
000537:                                                                                                  #                        PUSHLOC UNSPECIFIED
000538:
000539:                                                                                                  #  SUBROUTINES CALLED:   LOADTIME, CSMPREC, TPAGTREE,
000540:                                                                                                  #                        WAITLIST, JOBSLEEP, JOBWAKE, PREREAD, ALARM, GODSPR, BANKCALL, DELAYJOB
000541:
000542:                                                                                                  #  NORMAL EXIT MODES:    RVQ
000543:
000544:                                                                                                  #  ALARMS:       01426   IMU UNSATISFACTORY
000545:                                                                                                  #                01427   IMU REVERSED
000546:
000547:                                                                                                  #  OUTPUT:       POSSIBLE ALARMS
000548:                                                                                                  #                POSSIBLY TDEC1, RATT, VATT, RN, VN
000549:
000550:                                                                                                  #  ERASABLE INITIALIZATION REQUIRED:
000551:                                                                                                  #        AVEGFLAG                AVERAGEG ON OR OFF                              LEFT BY SERVICER
000552:                                                                                                  #        PIPTIME   (-26) CS      TIME OF PIPA UPDATE                             LEFT BY READACCS
000553:                                                                                                  #        RN        (-29) M       STATE VECTOR                                    LEFT BY AVERAGEG
000554:                                                                                                  #        VN        (-7) M/CS     STATE VECTOR                                    LEFT BY AVERAGEG
000555:                                                                                                  #        REFSMMAT  (-1)          .5 REF TO SM MATRIX                             LEFT BY LAST IMU ALIGNMENT
000556:
000557:                                                                                                  #  DEBRIS:       QPRET
000558:                                                                                                  #                POSSIBLY PIPTIME1, RATT, VATT, TDEC1, RN1, VN1, QTEMP, X1       IF UPDATED
000559:                                                                                                  #                PUSH LIST LOCS USED BY CSMPREC
000560:
000561: 26,2543  E6,1661                                  EBANK=   AOG                                   #  FOR 60GENRET, S61DT
000562: 26,2543                                           BANK     26
000563: 26,2000                                           SETLOC   P60S3
000564: 26,2000                                           BANK
000565:
000566: 26,2543                                           COUNT*   $$/S61.1
000567:
000568: 26,2543           00006        S61.1              EXTEND
000569: 26,2544           23773                           QXCH     60GENRET                              #  SAVE RET ADDR IN EB 6
000570: 26,2545           04555                           TC       BANKCALL
000571: 26,2546           17573                           CADR     R02BOTH
000572: 26,2547           06006                           TC       INTPRET


000574: 26,2550           45014                           BON      CALRB
000575: 26,2551           00716                                    AVEGFLAG                              #  IS AVERAGEG ON
000576: 26,2552           54603                                    S61.1A                                #  YES
000577: 26,2553           27573                                    MIDTOAV2                              #  GET FUTURE STATE VECTOR SOON AS CAN
000578:
000579: 26,2554           30155                           CA       MPAC       +1                         #  RETURN INHINTED ***
000580: 26,2555           55774                           TS       S61DT                                 #  FOR RESTART.
000581: 26,2556           05140                           TC       WAITLIST
000582: 26,2557  E7,1431                                  EBANK=   DVCNTR
000583: 26,2557           02564 54067                     2CADR    S61.1C
000584:
000585: 26,2561           05301                           TC       PHASCHNG
000586: 26,2562           40434                           OCT      40434
000587: 26,2563           05112                           TC       ENDOFJOB
000588:
000589: 26,2564           34760        S61.1C             CA       PRIO13
000590: 26,2565           05042                           TC       FINDVAC
000591: 26,2566  E6,1661                                  EBANK=   AOG
000592: 26,2566           02602 54066                     2CADR    S61.1A     -1
000593:
000594: 26,2570           00006                           EXTEND
000595: 26,2571           32642                           DCA      SERVCAD1                              #  HE WHO START AVERAGEG MUST SERVICE
000596: 26,2572           53223                           DXCH     AVEGEXIT                              #  THE EXIT.
000597:
000598: 26,2573           05261                           TC       2PHSCHNG
000599: 26,2574           00454                           OCT      00454
000600: 26,2575           00415                           OCT      00415
000601:
000602: 26,2576           34753                           CA       EBENTRY                               #  SET EB= 7 FOR PREREAD.
000603: 26,2577           54003                           TS       EBANK
000604:
000605: 26,2600           04574                           TC       POSTJUMP
000606: 26,2601           76604                           CADR     PREREAD                               #  PREREAD DOES TC TASKOVER.
000607:
000608: 26,2602           06006                           TC       INTPRET
000609: 26,2603           77204        S61.1A             BOVB     VLOAD
000610: 26,2604           57343                                    TCDANZIG                              #  TURN OFF OVFIND, IF ON
000611: 26,2605           01177                                    VN                                    #  VN    (-7) M/CS
000612: 26,2606           64235                           VXV      MXV
000613: 26,2607           01171                                    RN                                    #  RN    (-29) M
000614: 26,2610           01736                                    REFSMMAT                              #  .5 UNIT MATRIX
000615: 26,2611           71256                           UNIT     DLOAD
000616: 26,2612           00160                                    MPAC       +3                         #  GET COS(THETA)/2
000617: 26,2613           43240                           BMN      DAD
000618: 26,2614           54621                                    S61.1B                                #  DO TEST ON -YSM
000619: 26,2615           14644                                    C(30)LIM                              #  = 1.0 -.5 COS(30)
000620: 26,2616           47004                           BOVB     RTB
000621: 26,2617           54640                                    RETRN1
000622: 26,2620           54625                                    RETRN3


000624: 26,2621           43276        S61.1B             DCOMP    DAD
000625: 26,2622           14644                                    C(30)LIM                              #  = 1.0 - .5 COS(30)
000626: 26,2623           77404                           BOVB     EXIT
000627: 26,2624           54630                                    RETRN2
000628:
000629: 26,2625           05537        RETRN3             TC       ALARM
000630: 26,2626           01426                           OCT      01426                                 #  IMU UNSATISFACTORY
000631: 26,2627           02632                           TC       RETRN2     +2
000632:
000633: 26,2630           05537        RETRN2             TC       ALARM
000634: 26,2631           01427                           OCT      01427                                 #  IMU REVERSED
000635:
000636: 26,2632           34743                 +2        CAF      V05N09
000637: 26,2633           04555                           TC       BANKCALL
000638: 26,2634           20602                           CADR     GODSPR                                #  DO DISPLAY
000639: 26,2635           32645                           CA       10SECS
000640: 26,2636           04555                           TC       BANKCALL
000641: 26,2637           01732                           CADR     DELAYJOB
000642:
000643: 26,2640           01773        RETRN1             TC       60GENRET
000644:
000645: 26,2641  E7,1431                                  EBANK=   DVCNTR
000646: 26,2641           03132 76067  SERVCAD1           2CADR    SERVEXIT
000647: 26,2643           22111 17335  C(30)LIM           2DEC     .566985                               #  = 1.0 - .5 COS(30)
000648: 26,2645           01750        10SECS             DEC      1000       B-14                       #  1000 CS
000649: 26,2646           00000 13560  60SECDP            2DEC     6000       B-28                       #  6000 CS
000650:


000652:                                                                                                  #  PROGRAM NAME:         S61.2                   DATE:           14 FEB 67
000653:                                                                                                  #  MOD NO:       1                               LOG SECTION:    P61-P67
000654:                                                                                                  #  MOD BY:       NORTH / BAIRNSFATHER
000655:                                                                                                  #  MOD NO: 2     MOD BY: NORTH/BAIRNSFATHER      DATE: 11 MAY 67         ADD 2ND ITER FOR ERAD AT 400K FT.
000656:                                                                                                  #  MOD NO: 3     MOD BY: RR BAIRNSFATHER         DATE: 21 NOV 67         VARIABLE MU ADDED.
000657:                                                                                                  #  MOD NO: 4     MOD BY: RR BAIRNSFATHER         DATE: 21 MAR 68         DIFFERENT EARTH/MOON SCALES IN TFF'S
000658:
000659:                                                                                                  #  FUNCTIONAL DESCRIPTION:  CALLED IN P61.  PROVIDES DISPLAYS FOR NOUNS N60 AND N63.
000660:                                                                                                  #        PROGRAM CALCULATES ENTRY DISPLAY OF MAXIMUM ACCELERATION EXPECTED (GMAX) AND ALSO THE EXPECTED
000661:                                                                                                  #        INERTIAL VELOCITY (VPRED) AND ENTRY ANGLE (GAMMABI) THAT WILL OBTAIN AT 400K FT ABOVE THE FISCHER
000662:                                                                                                  #        ELLIPSOID.  PROGRAM ALSO CALCULATES A SECOND DISPLAY RELATIVE TO THE EMSALT ABOVE FISCHER ELLIPSOID
000663:                                                                                                  #        AND CONSISTS OF RANGE TO SPLASH FOM NOW (RTGO), PREDICTED INERTIAL VELOCITY (VIO), AND THE TIME TO
000664:                                                                                                  #        GO FROM NOW (TTE).
000665:
000666:                                                                                                  #  CALLING SEQUENCE:     CALL
000667:                                                                                                  #                                S61.2
000668:                                                                                                  #                        C(MPAC) UNSPECIFIED
000669:                                                                                                  #                        PUSHLOC WILL BE SET TO ZERO.
000670:
000671:                                                                                                  #  SUBROUTINES CALLED:   TFFCONIC, CALCTFF, TFF/TRIG, FISHCALC, GETERAD, VGAMCALC
000672:
000673:                                                                                                  #  NORMAL EXIT MODES:    RTB, P61.1
000674:
000675:                                                                                                  #  ALARMS:       NONE
000676:
000677:                                                                                                  #  OUTPUT:       THE FOLLOWING REGISTERS ARE WRITTEN IN FOR USE BY DISPLAYS
000678:                                                                                                  #                GMAX    100 GMAX (-14) G,S      MAXIMUM ACCELERATION
000679:                                                                                                  #                VPRED   (-7) M/CS               PREDICTED VELOCITY AT 400K FT
000680:                                                                                                  #                GAMMAEI GAMMA/360               PREDICTED GAMMA    AT 400K FT
000681:                                                                                                  #                                                FOR TM, DP(GAMMAEI) = (GAMMAEI, RTGO) / 360
000682:                                                                                                  #                RTGO    THETAH/360              RANGE ANGLE TO SPLASH FROM EMSALT       EMSALT IS PAD LOADED.
000683:                                                                                                  #                VIO     (-7) M/CS               INTERTIAL VELOCITY AT      EMSALT       EMSALT IS PAD LOADED.
000684:                                                                                                  #                TTE     (-28) CS                TIME TO                    EMSALT       EMSALT IS PAD LOADED.
000685:                                                                                                  #                PUSHLOC = 0
000686:                                                                                                  #                CONIC PARAMETERS STORED IN VAC AREA (SEE TFF SUBROUTINES)
000687:
000688:                                                                                                  #  ERASABLE INITIALIZATION REQUIRED:
000689:                                                                                                  #                RONE    (-29) M                 STATE VECTOR                            LEFT BY USER
000690:                                                                                                  #                VONE    (-7) M/CS               STATE VECTOR                            LEFT BY USER
000691:                                                                                                  #                URONE   UR/2                                                            LEFT BY USER
000692:                                                                                                  #                UNI     (-1)                    UNIT NORMAL V*R                         LEFT BY ENTRY / P61
000693:                                                                                                  #                THETAH  THETAH/360              RANGE ANGLE                             LEFT BY ENTRY / P61
000694:                                                                                                  #                UNITW   (0)                     UNIT POLAR VECTOR                       LEFT BY PAD LOAD
000695:                                                                                                  #                EMSALT  (-29) M                 EMS INTERFACE ALTITUDE                  LEFT BY PAD LOAD
000696:                                                                                                  #                                                ORBITAL REENTRY: 284843 FT., LUNAR REENTRY: 297431 FT.
000697:
000698:                                                                                                  #  DEBRIS:       QPRET,
000699:                                                                                                  #                ALL PDL LOCATIONS ABOVE 12D, INCLUDING X1,X2,S1,S2
000700:                                                                                                  #                ALSO PDL+0 ... PDL+5, WHERE INITIAL PUSHLOC = PDL
000701:


000703:                                                                                                  #  THE FOLLOWING PUSH LIST LOCATIONS HAVE BEEN RESERVED FOR TFF ROUTINES AND ARE REPEATED HERE FOR CONVENIENCE.
000704:                                                                                                  #  OF COURSE FOR S61.2 USAGE, EARTH ORIGIN SCALING IS USED.
000705:
000706:                                                                                                  #                                BELOW   E:  IS USED FOR EARTH ORIGIN SCALE
000707:                                                                                                  #                                        M:  IS USED FOR MOON ORIGIN SCALE
000708:
000709:                                                                                                  #        RTERM   =       18D             TERMINAL RADIUS M       E:  (-29)       M:  (-27)
000710:                                                                                                  #        NRTERM  =       16D             TERMINAL RADIUS M       E:  (-29+NR)
000711:                                                                                                  #                                                                M:  (-27+NR)
000712:                                                                                                  #        RMAG1   =       12D             PRESENT RADIUS M        E:  (-29)       M:  (-27)
000713:                                                                                                  #        NRMAG   =       32D             PRESENT RADIUS M        E:  (-29+NR)
000714:                                                                                                  #                                                                M:  (-27+NR)
000715:                                                                                                  #        SDELF/2                         SIN(THETA) / 2
000716:                                                                                                  #        CDELF/2 =       14D             COS(THETA) / 2
000717:                                                                                                  #        TFFX    =       34D             X, ARGUMENT OF SERIES T(X)
000718:                                                                                                  #        TFFTEM  =       36D             ARG FOR TRANSFER ANGLE CALCULATION
000719:                                                                                                  #        TFFNP   =       28D             LC P M                  E:  (-38+2NR)   M:  (-36+2NR)
000720:                                                                                                  #        TFF/RTMU=       30D             1/SQRT(MU)              E:  (17)        M:  (14)
000721:                                                                                                  #        TFFVSQ  =       20D             -(VN.VN/MU)     1/M     E:  (20)        M:  (18)
000722:


000724: 34,3652                                           BANK     34
000725: 26,2000                                           SETLOC   P60S2
000726: 26,2000                                           BANK
000727:
000728: 26,2650                                           COUNT*   $$/S61.2
000729:                                                                                                  #  PDL LEFT AT ZERO BY TARGETING
000730:
000731: 26,2650           45345        S61.2              DLOAD    DSU
000732: 26,2651           02020                                    EMSALT
000733: 26,2652           15000                                    290KFT
000734: 26,2653           71244                           BPL      DLOAD
000735: 26,2654           54774                                    LUNENT
000736: 26,2655           17345                                    1/RTMU                                #  ESTABLISH MU FOR ORBITAL ENTRIES
000737: 26,2656           77624        CALLCON            CALL
000738: 26,2657           56750                                    TFFCONIC                              #  FILL VAC AREA WITH CONIC PARAMETERS
000739:
000740: 26,2660           45145                           DLOAD    CALL
000741: 26,2661           15020                                    RTRIAL                                #  1ST GUESS AT TERMINAL RADIUS  (-29)
000742: 26,2662           57060                                    CALCTFF                               #  SAVES MPAC IN RTERM           (18D)
000743:
000744: 26,2663           77624                           CALL                                           #  CALC SDELF/2, CDELF/2
000745: 26,2664           56573                                    TFF/TRIG                              #  RETURN WITH S(THETA) IN MPAC
000746:
000747: 26,2665           77624                           CALL                                           #  GET FISCHER RADIUS            (-29) M
000748: 26,2666           55027                                    FISHCALC                              #  ANS IN MPAC AND IN ERADM
000749:
000750: 26,2667           45015                           DAD      CALL
000751: 26,2670           02020                                    EMSALT
000752: 26,2671           57060                                    CALCTFF                               #  SAVES MPAC IN RTERM           (18D)
000753:
000754: 26,2672           77676                           DCOMP                                          #  NEGATIVE AS IN COUNTDOWN
000755: 26,2673           03733                           STORE    TTE1                                  #  DECR TTE FROM BASB TTE1.  (RESTART)
000756:                                                                                                  #  DNLIST AND DSKY WILL USE TTE.
000757: 26,2674           37727                           STCALL   TTE                                   #  LET MISS CONTRL DECR BY ELAPSED TIME
000758:                                                                                                  #  TTE= TIME FROM NOW TO EMSALT +FISCHER
000759:
000760: 26,2675           56573                                    TFF/TRIG                              #  S(THETA) IN MPAC ON RETURNING
000761:                                                                                                  #  AND THETA= RANGE FROM NOW TO EMSALT
000762:
000763: 26,2676           77624                           CALL
000764: 26,2677           55027                                    FISHCALC
000765: 26,2700           77624                           CALL
000766: 26,2701           56626                                    VRCALC
000767: 26,2702           77624                           CALL
000768: 26,2703           56613                                    DISPTARG
000769: 26,2704           77624                           CALL
000770: 26,2705           56613                                    DISPTARG
000771: 26,2706           37714                           STCALL   RTGO


000773: 26,2707           55050                                    VGAMCALC
000774:
000775: 26,2710           77605                           DMP                                            #  MPAC = GAMMA
000776:                                                                                                  #  PDL0 HAS VGAM.
000777: 26,2711           43265                           BDDV     DAD
000778: 26,2712           15026                                    VEMSCON                               #  -HS D 180/PI (-14)
000779: 26,2713           00001                                    0                                     #  VGAM FROM PDL0
000780: 26,2714           17725                           STODL    VIO                                   #  PREDICTED VELOCITY AT EMSALT.
000781:                                                                                                  #  GAMMA AND VGAM AT 300K FT ARE REQUIRED BY GMAX
000782:                                                                                                  #  ALGORITHM.
000783: 26,2715           02241                                    ERADM                                 #  EARTH RADIUS FROM GETERAD (-29) M
000784:                                                                                                  #  = FISCHER RADIUS (-29)
000785:
000786: 26,2716           77615                           DAD
000787: 26,2717           06462                                    300KFT                                #  M (-29)
000788: 26,2720           34023                           STCALL   RTERM                                 #  TERMINAL RADIUS M (-29)
000789: 26,2721           55045                                    PREVGAM                               #  VGAMCALC WITH NEW RTERM
000790:                                                                                                  #  VBAR = (V(FPS) - 36KF/S) / 20 F/S
000791:
000792:                                                                                                  #  GMAX = (4/(1 + 4.8 VBARSQ))(GAM - 6.05 - 2.4 VBARSQ) - 10(L/D - .3) + 10      ASSUME L/D = 0.3, BANK =0.
000793:                                                                                                  #                                        GMAXCALC
000794:
000795: 26,2722           45325                           PDDL     DSU                                   #  GAM TO PDL2
000796: 26,2723           00001                                    0                                     #  VGAM IS IN PDL0 (-7)
000797: 26,2724           15004                                    36KFT/S                               #  (-7) M/CS
000798: 26,2725           63471                           DDV      DSQ
000799: 26,2726           15006                                    20KFT/S                               #  (-6) M/CS
000800: 26,2727           00001                           STORE    0                                     #  VBARSQ (-2) TO PDL0
000801:
000802: 26,2730           43205                           DMP      DAD
000803: 26,2731           15010                                    KR1
000804:                                                                                                  #  GAM, POS DOWN, FROM PDL2
000805: 26,2732           41215                           DAD      DMP
000806: 26,2733           15012                                    -6.05DEG
000807: 26,2734           15014                                    KR2
000808: 26,2735           77725                           PDDL                                           #  XCH PDL+0 FOR VBARSQ (-2)
000809: 26,2736           43271                           DDV      DAD
000810: 26,2737           15024                                    KR4
000811: 26,2740           17357                                    DP2(-4)
000812: 26,2741           77665                           BDDV
000813:                                                                                                  #  NUM FROM PDL+0
000814: 26,2742           51015                           DAD      BPL
000815: 26,2743           15016                                    KR3
000816: 26,2744           54747                                    +3
000817: 26,2745           77745                           DLOAD
000818: 26,2746           15332                                    HI6ZEROS
000819: 26,2747           17722                           STODL    GMAX                                  #  100 GMAX (-14)


000821:                                                                                                  #  DISPLAY USES GMAX AS SP, SO LO WORD IS WRITTEN OVER BY VPRED.
000822: 26,2750           02241                                    ERADM                                 #  = FISCHER RADIUS (-29) M
000823: 26,2751           45015                           DAD      CALL                                  #  2 ND ITERATION FOR FISCHER RADIUS
000824: 26,2752           15022                                    400KFT
000825: 26,2753           57060                                    CALCTFF                               #  ESTABLISH TRANSFER ANGLE DATA.
000826: 26,2754           77624                           CALL
000827: 26,2755           56573                                    TFF/TRIG                              #  GET SIN, COS DELF
000828: 26,2756           77624                           CALL
000829: 26,2757           55027                                    FISHCALC                              #  GET CORRESPONDING FISCHER RADIUS.
000830:
000831: 26,2760           73015                           DAD      LXA,2                                 #  SAVE HI-WORD FOR DOWNLIST.
000832: 26,2761           15022                                    400KFT                                #  M (-29)
000833: 26,2762           03713                                    RTGO                                  #  (RANGE ANGLE FROM EMSALT) / 360
000834: 26,2763           34023                           STCALL   RTERM
000835: 26,2764           55045                                    PREVGAM                               #  VGAMCALC WITH NEW RTERM
000836:
000837: 26,2765           67076                           DCOMP    SXA,2                                 #  HI-WORD OF EACH ON DOWNLIST.
000838: 26,2766           00155                                    MPAC       +1
000839: 26,2767           17771                           STODL    GAMMAEI                               #  CONIC GAMMA/360 AT 400K FT.   (HI-WORD)
000840:                                                                                                  #  CONIC RTGO/360 FROM EMSALT   (LOW-WORD)
000841:                                                                                                  #  FOR TM, DP(GAMMAEI) = (GAMMA, RTGO) / 360
000842:
000843:                                                                                                  #  VGAM FROM PDL+0 (-7)
000844: 26,2770           77626                           STADR
000845: 26,2771           74010                           STORE    VPRED                                 #  CONIC VELOCITY AT 400K FT
000846:
000847: 26,2772           77634                           RTB
000848: 26,2773           54267                                    P61.1
000849:                                                                                                  #  PDL BACK TO ZERO.
000850:
000851: 26,2774           52145        LUNENT             DLOAD    GOTO
000852: 26,2775           06456                                    1/RTMUE                               #  ESTABLISH MU FOR LUNAR TYPE ENTRIES
000853: 26,2776           54656                                    CALLCON
000854:
000855: 26,2777           00002 26244  290KFT             2DEC     88392      B-29
000856: 26,3001           00052 05716  KTETA1             2DEC*    .421844723 E2         B-14*           #  110 2PI/16384(163.84)
000857: 26,3003           33335 05707  36KFT/S            2DEC     109.728    B-7                        #  (-7) M/CS = 36 KFT/S (-7)
000858: 26,3005           36365 30244  20KFT/S            2DEC     121.92     B-7                        #  (-6) M/CS = 2 20KFT/S (-7)
000859: 26,3007           77113 42770  KR1                2DEC     -.026666667                            #  = -2.4 4 / 360
000860: 26,3011           77354 65030  -6.05DEG           2DEC     -.016805556                            #  = -6.05 / 360
000861: 26,3013           21450 00001  KR2                2DEC     .54931641                             #  = (360/4) 100 (-14) = 9000 B-14
000862: 26,3015           01750 00000  KR3                2DEC     1000       B-14                       #  = 100 (10.0) (-14) O,S


000864:                                                                                                  #  ASSUMES L/D = 0.3, BANK =0.
000865: 26,3017           00305 04541  RTRIAL             2DEC     6460097.16 B-29                       #  RPAD +264643 FT =21 194 545 FT
000866:                                                                                                  #  RPAD DEFINED AS 20 909 901.57 FT =6 373 336 M
000867: 26,3021           00003 27040  400KFT             2DEC     121920     B-29                       #  METERS
000868:
000869:                                                                                                  #  300KFT        2DEC    91440 B-29      # (-29) M
000870:                                                                                                  #  EMSALT        2DEC    86759.2 B-29    # 284643 FT (-29) M     (ORBITAL REENTRY)
000871:                                                                                                  #  EMSALT        2DEC    90657 B-29      # 297431 FT (-29) M     (LUNAR REENTRY)
000872:
000873: 26,3023           32525 12525  KR4                2DEC     .833333333
000874: 26,3025  23,2461               300KFT             EQUALS   MINPERE
000875: 26,3025           77777 76601  VEMSCON            2DEC     -.0389676  B-14                       #  = -HS D / 2 PI (-14)  M SQ / CS SQ
000876:                                                                                                  #  = -16369      .05G    32.2    .3048   .3048/2 PI      (-14)
000877:


000879:                                                                                                  #  SUBROUTINE NAME:  FISHCALC    (USED BY S61.2)         DATE:           01.21.67
000880:                                                                                                  #  MOD NO: 0                                             LOG SECTION:    P61-P67
000881:                                                                                                  #  MOD BY: NORTH / BAIRNSFATHER
000882:                                                                                                  #  MOD NO: 1     MOD BY: RR BAIRNSFATHER                 DATE:           11 MAY 67       INCLUDE GETERAD CALL
000883:
000884:                                                                                                  #  FUNCTIONAL DESCRIPTION:  TIVEN TEH PRESENT POSITION, UNITR, CALCULATE A NEW UNITR THAT IS ROTATED THROUGH
000885:                                                                                                  #        TRANSFER ANGLE, THETA, ALONG THE TRAJECTORY.  THEN CALCULATE SIN(LAT) AND USE TO OBTAIN FISCHER RADIUS.
000886:                                                                                                  #        SINCE FISHCALC USED UNIT (LEFT BY ENTRY) EARTH SCALING IS ASSUMED.  (WILL IMPROVE FOR SUITABLE TENNANT)
000887:
000888:                                                                                                  #  CALLING SEQUENCE:     CALL
000889:                                                                                                  #                                FISHCALC
000890:                                                                                                  #        ENTER WITH .5 SIN(THETA) IN MPAC.
000891:                                                                                                  #        PUSHLOC IS AT PDL+0, AN ARBITRARY BASE VALUE IF LEQ 8D
000892:
000893:                                                                                                  #  SUBROUTINES CALLED:  GET ERAD
000894:
000895:                                                                                                  #  NORMAL EXIT MODE:  RVQ
000896:
000897:                                                                                                  #  EXIT MODES:   NONE
000898:
000899:                                                                                                  #  OUTPUT:       ERADM (-29) M IN MPAC ON RETURNING
000900:                                                                                                  #                NEW UNIT VECTOR NOT SAVED.
000901:                                                                                                  #                SIN(LAT) NOT SAVED.
000902:                                                                                                  #                PUSHLOC AT PDL+0
000903:
000904:                                                                                                  #  ERASABLE INITIALIZATION REQUIRED:
000905:                                                                                                  #                SDELF/2         =SIN(THETA) / 2, IN MPAC                LEFT BY TFF/TRIG(?)
000906:                                                                                                  #                CDELF/2         =COS(THETA) / 2, STORED IN PDL 14D      LEFT BY TFF/TRIG(?)
000907:                                                                                                  #                RONE            (-29) M                                 LEFT BY USER(?)
000908:                                                                                                  #                VONE            (-7) M/CS                               LEFT BY USER(?)
000909:                                                                                                  #                URONE           UR/2                                    LEFT BY USER(?)
000910:                                                                                                  #                UNI             .5 UNIT(V*R)                            LEFT BY (?) / P61
000911:                                                                                                  #                UNITW           UNIT NORTH POLE                         LEFT BY (?) LOAD
000912:
000913:                                                                                                  #  DEBRIS:       QPRET, PDL+0 ... PDL+5
000914:                                                                                                  #  _      _          _
000915: 26,3027           47315        FISHCALC           PDVL     VXV                                   #  URPR = UR CDELF + UHOR SDELF
000916: 26,3030           02343                                    URONE
000917: 26,3031           03502                                    UNI
000918: 26,3032           76561                           VXSC     VSL1
000919:                                                                                                  #  SIN(THETA) / 2 FROM PDL+0
000920: 26,3033           74315                           PDVL     VXSC                                  #  TO PDL+0, (garbled)
000921: 26,3034           02343                                    URONE
000922: 26,3035           00017                                    CDELF/2                               #  COS(THETA) / 2
000923: 26,3036           45455                           VAD      STADR
000924: 26,3037           74235                           STORE    URH                                   #  FOR USE IN (?) FROM EMS DISPLAY
000925: 26,3040           72441                           DOT      SL1
000926: 26,3041           01714                                    UNITW                                 #  PULL UNIT VECTOR      UNIT NORTH
000927: 26,3042           02156                           STORE    ALPHAV     +4                         #  = .5 (garbled)
000928: 26,3043           77650        DUMPFISH           GOTO
000929: 26,3044           26437                                    GETERAD                               #  SAVES FISCHER RAD (-29) M IN ERADM AND
000930:                                                                                                  #  IN MPAC.  RETURNS TO CALLER VIO QPRET.
000931:


000933:                                                                                                  #  SUBROUTINE NAME:  VGAMCALC    (USED BY S61.2)                         DATE:           01.21.67
000934:                                                                                                  #  MOD NO: 0                                                             LOG SECTION:    P61-P67
000935:                                                                                                  #  MOD BY: NORTH / BAIRNSFATHER
000936:                                                                                                  #  MOD NO: 1     MOD BY: RR BAIRNSFATHER         DATE: 11 APR 67
000937:                                                                                                  #  MOD NO: 2     MOD BY: RR BAIRNSFATHER         DATE: 21 NOV 67         VARIABLE MU ADDED.
000938:                                                                                                  #  MOD NO: 3     MOD BY: RR BAIRNSFATHER         DATE: 21 MAR 68         ACCEPT DIFFERENT EARTH/MOON SCALE
000939:
000940:                                                                                                  #  FUNCTONAL DESCRIPTION:  EARTH CENTERED VIS VIVA CALCULATION OF TERMINAL VELOCITY AND GAMMA (REL TO
000941:                                                                                                  #        HORIZONTAL) GIVEN THE SCALAR QUANTITIES:  PRESENT RADIUS AND VELOCITY AND THE TERMINAL RADIUS.
000942:                                                                                                  #        THE USER MUST APPEND PROPER SIGN TO GAMMA, SINCE IT IS CALCULATED AS A POSITIVE NUMBER.
000943:                                                                                                  #        THE EQUATIONS ARE
000944:
000945:                                                                                                  #                VGAM = SQRT(VN VN/MU + 2(RN-RTERM)/(RN RTERM) ) RTMU
000946:
000947:                                                                                                  #                COSGAM = H / RTERM VGAM = SQRT (LCP) / (RTERM VGAM/RTMU)
000948:
000949:                                                                                                  #        VGAMCALC ASSUMES THAT THE TERMINAL RADIUS IS LESS THAN THE PRESENT RADIUS.  BOTH CALCTFF AND CALCTPER
000950:                                                                                                  #        MAKE THIS ASSUMPTION.
000951:
000952:                                                                                                  #  CALLING SEQUENCE:     CALL                    STCALL  RTERM
000953:                                                                                                  #                                VGAMCALC                PREVGAM
000954:                                                                                                  #        PUSHLOC AT PDL+0, ARBITRARY IF LEQ 12D
000955:                                                                                                  #        C(MPAC) UNSPECIFIED                     C(MPAC)=NEW RTERM
000956:
000957:                                                                                                  #  SUBROUTINES CALLED:  NONE
000958:
000959:                                                                                                  #  NORMAL EXIT MODE:  RVQ
000960:
000961:                                                                                                  #  ALARMS:       NONE
000962:                                                                                                  #
000963:                                                                                                  #  OUTPUT:       GAMMA / 360 IN MPAC, POSITIVE NUMBER
000964:                                                                                                  #                VGAM    E: (-7)   M: (-5)       M/CS IN PDL+0
000965:                                                                                                  #                PUSHLOC AT PDL+2
000966:
000967:                                                                                                  #  ERASABLE INITIALIZATION REQD:
000968:                                                                                                  #        TFF/RTMU  E: (17)   M: (14)     1/SQRT(MU)                              LEFT BY TFFCONIC
000969:                                                                                                  #        RMAG1     E: (-29)  M: (-27)    M  PRESENT RADIUS LENGTH                LEFT BY TFFCONIC
000970:                                                                                                  #        NRMAG     E: (-29+NR)           M  NORM LENGTH OF PRESENT POSITION      LEFT BY TFFCONIC
000971:                                                                                                  #                  M: (-27+NR)
000972:                                                                                                  #        RTERM     E: (-29)  M: (-27)    M  TERMINAL RADIUS LENGHT               LEFT BY CALCTFF
000973:                                                                                                  #        NRTERM    E: (-29+NR)           M  NORM LENGTH OF TERMINAL RADIUS       LEFT BY CALCTFF
000974:                                                                                                  #                  M: (-27+NR)
000975:                                                                                                  #        TFFVSQ    E: (20)   M: (18)   1/M  -(V SQ/MU): PRESENT VELOCITY, NORM   LEFT BY TFFCONIC
000976:                                                                                                  #        TFFNP     E: (-38+2NR)          M  LCP, SEMI-LATUS RECTUM, WEIGHT NR    LEFT BY TFFCONIC
000977:                                                                                                  #                  M: (-36+2NR)
000978:
000979:                                                                                                  #  DEBRIS:       QPRET, PDL+0 ... PDL+3
000980:                                                                                                  #                RTERM, NRTERM IF PREVGAM ENTERED.


000982:
000983: 26,3045           77657        PREVGAM            SL*                                            #  ENTER WITH NEW RTERM IN MPAC
000984:                                                                                                  #  E: (-29)  M: (-27)
000985: 26,3046           20201                                    0,1                                   #  X1 = -NR
000986: 26,3047           00021                           STORE    NRTERM                                #  RTERM M               E: (-29+NR)     M: (-27+NR)
000987: 26,3050           41345        VGAMCALC           DLOAD    DMP
000988: 26,3051           00041                                    NRMAG                                 #  RMAG M                E: (-29+NR)     M: (-27+NR)
000989: 26,3052           00021                                    NRTERM                                #  RTERM M               E: (-29+NR)     M: (-27+NR)
000990: 26,3053           45325                           PDDL     DSU                                   #  RMAG RTERM M          E: (-58+2NR)    M: (-54+2NR)
000991: 26,3054           00041                                    NRMAG                                 #  RMAG M                E: (-29+NR)     M: (-27+NR)
000992: 26,3055           00021                                    NRTERM                                #  RTERM M               E: (-29+NR)     M: (-27+NR)
000993: 26,3056           56257                           SL*      DDV                                   #  2(RN-RTERM)           E: (-30+NR)     M: (-28+NR)
000994: 26,3057           20171                                    0          -8D,1                      #  (-8+NR)
000995:                                                                                                  #  PUSH UP PRODUCT.
000996:
000997: 26,3060           77625                           DSU
000998: 26,3061           00025                                    TFFVSQ                                #  -(V SQ/MU)            E: (20)         M: (18)
000999: 26,3062           41566                           SQRT     PUSH                                  #  SAVE VGAM/RT(MU) FOR NOW.     E: (10) M: (9)
001000: 26,3063           65271                           DDV      PDDL                                  #  XCH PDL+0, LEAVING VGAM FOR OUTPUT.
001001:                                                                                                  #  VGAM TO PDL M/CS      E: (-7)         M: (-2)
001002: 26,3064           00037                                    TFF/RTMU                              #                        E: (17)         M: (14)
001003: 26,3065           65205                           DMP      PDDL                                  #  RTERM VGAM/RTMU       E: (-19+NR)     M: (-18+NR)
001004: 26,3066           00021                                    NRTERM                                #  RTERM M               E: (-29+NR)     M: (-27+NR)
001005: 26,3067           00035                                    TFFNP                                 #  LC P =H.H/MU M        E: (-38+2NR)    M: (-36+2NR)
001006: 26,3070           56366                           SQRT     DDV                                   #                        E: (-19+NR)     M: (-18+NR)
001007:                                                                                                  #  PUSH UP DEN           E: (-19+NR)     M: (-18+NR)
001008:                                                                                                  #  USE DDV OVFL AS LIMITER (|COS| <1.0)
001009: 26,3071           65542                           SR1      ACOS
001010: 26,3072           77616        DUMPVGAM           RVQ
001011:                                                                                                  #  CALLER MUST SUPPLY OWN SIGN ...
001012:                                                                                                  #                        22W     27MS
001013:


001015:                                                                                                  #  SUBROUTINE NAME:      TFF/TRIG        (USED BY S61.2)         DATE:           01.17.67
001016:                                                                                                  #  MOD NO: 0                                                     LOG SECTION:    P61-P67
001017:                                                                                                  #  MOD BY: RR BAIRNSFATHER
001018:                                                                                                  #  MOD NO: 1     MOD BY: RR BAIRNSFATHER         DATE: 14 APR 67
001019:                                                                                                  #  MOD NO: 2     MOD BY: RR BAIRNSFATHER         DATE: 21 MAR 68         ACCEPT DIFFERENT EARTH/MOON SCALE
001020:
001021:                                                                                                  #  FUNCTIONAL DESCRIPTION:  USED BY ENTRY DISPLAY TO CALCULATE SIN(THETA), COS(THETA) FROM DATA LEFT IN
001022:                                                                                                  #        PDL BY TFF SUBROUTINES.  THE EQNS ARE
001023:
001024:                                                                                                  #                COS(THETA) = 1-2 ABS(ARG) / (RN RTERM (1+X) )
001025:                                                                                                  #                                                2
001026:                                                                                                  #                SIN(THETA) = SGN(ARG) SQRT(1-COS (THETA) )
001027:
001028:                                                                                                  #        WHERE THETA = TRANSFER ANGLE
001029:                                                                                                  #        AND     ARG = P Z ABS(Z)                        IF ALFA ZZ LEQ 1
001030:                                                                                                  #                ARG = (P / ALFA) SGN(Q1 + R 1/Z)        IF ALFA Z Z G 1
001031:                                                                                                  #        AND ARG HAS BEEN AFFIXED WITH THE SIGN OF SIN(THETA)
001032:
001033:                                                                                                  #  CALLING SEQUENCE:     CALL
001034:                                                                                                  #                                TFF/TRIG
001035:                                                                                                  #                PUSHLOC AT PDL+0, ARBITRARY IF NOT EQ 14D
001036:                                                                                                  #                C(MPAC) UNSPECIFIED
001037:
001038:                                                                                                  #  SUBROUTINES CALLED:  NONE
001039:
001040:                                                                                                  #  NORMAL EXIT MODES:  RVQ
001041:
001042:                                                                                                  #  ALARMS:       NONE
001043:
001044:                                                                                                  #  OUTPUT:       C(MPAC) = .5 SIN(THETA)
001045:                                                                                                  #                CDELF/2 = .5 COS(THETA)         (IN PDL 14D)
001046:                                                                                                  #                PUSHLOC AT PDL+0
001047:
001048:                                                                                                  #  ERASABLE INITIALIZATION REQUIRED:
001049:                                                                                                  #                TFFX                    X                                       LEFT BY CALCTFF OR CALCTPER
001050:                                                                                                  #                TFFTEM  E: (-59+2NR)    ARG                                     LEFT BY CALCTFF OR CALCTPER
001051:                                                                                                  #                        M: (-55+2NR)    WHERE ARG = LCF ZZ SGN(DELF) OR ARG = LCP/ALFA SGN(DELF)
001052:                                                                                                  #                NRTERM  E: (-29+NR)     M  NORM LENGTH OF TERMINAL RADIUS       LEFT BY CALCTFF OR CALCTPER
001053:                                                                                                  #                        M: (-27+NR)
001054:                                                                                                  #                NRMAG   E: (-29+NR)     M  NORM LENGTH OF PRESENT POSITION      LEFT BY TFFCONIC
001055:                                                                                                  #                        M: (-27+NR)
001056:
001057:                                                                                                  #  DEBRIS:       QPRET, CDELF/2
001058:
001059: 27,2573                                           BANK     27
001060: 27,2000                                           SETLOC   P60S5
001061: 27,2000                                           BANK
001062: 27,2573           70545        TFF/TRIG           DLOAD    SR1
001063: 27,2574           00043                                    TFFX
001064: 27,2575           41215                           DAD      DMP
001065: 27,2576           15330                                    HIDPHALF
001066: 27,2577           00041                                    NRMAG                                 #  RMAG M                E: (-29+NR)     M: (-27+NR)
001067: 27,2600           55205                           DMP      BDDV
001068: 27,2601           00021                                    NRTERM                                #  RTERM M               E: (-29+NR)     M: (-27+NR)
001069: 27,2602           00045                                    TFFTEM                                #  P ZSQ OR P/ALFA       E: (-59+2NR)    M: (-55+2NR)
001070: 27,2603           44246                           ABS      BDSU                                  #  THE SIGN IS FOR SDELF.
001071: 27,2604           15330                                    HIDPHALF
001072: 27,2605           00017                           STORE    CDELF/2                               #  .5 COS(THETA)
001073: 27,2606           57516                           DSQ      DCOMP                                 #  KEEP HONEST FOR SQRT.


001075: 27,2607           75415                           DAD      SQRT
001076: 27,2610           15322                                    HIDP1/4
001077: 27,2611           43565        DUMPTRIG           SIGN     RVQ
001078: 27,2612           00045                                    TFFTEM                                #  AFFIX SIGN(DELE/2)
001079:                                                                                                  #  RETURN WITH .5 SIN(THETA) IN MPAC
001080:                                                                                                  #                        16W     15MS
001081:
001082: 27,2613           77620        DISPTARG           STQ                                            #  C(MPAC = TRGO ESTIMATE
001083: 27,2614           03373                                    60GENRET
001084: 27,2615           45205                           DMP      DSU
001085: 27,2616           15002                                    KTETA1
001086: 27,2617           03733                                    TTE1
001087: 27,2620           37606                           STCALL   DTEAROT
001088: 27,2621           46225                                    EARROT2
001089: 27,2622           77624                           CALL
001090: 27,2623           56626                                    VRCALC
001091: 27,2624           77650                           GOTO
001092: 27,2625           03373                                    60GENRET
001093: 27,2626           50375        VRCALC             VLOAD    DOT
001094: 27,2627           03542                                    URH
001095: 27,2630           03474                                    RT
001096: 27,2631           65512                           SL2      ACOS
001097: 27,2632           77616                           RVQ
001098:
001099:                                                                                                  #  END OF PROGRAM S61.2
001100:                                                                                                  #  PROGRAM DESCRIPTION S62.3     DATE 10JAN67
001101:                                                                                                  #  MOD NO 1:                     LOG SECTION P60-P67
001102:                                                                                                  #  MOD BY ZELDIN
001103:                                                                                                  #  MOD NO: 2     MOD BY: RR BAIRNSFATHER         DATE: 15 MAY 67         CHANGED TO REF COORDS.
001104:                                                                                                  #  MOD NO: 3     MOD BY: RR BAIRNSFATHER         DATE: 17 JAN 68         ALFAPAD CHANGES MADE.
001105:
001106:                                                                                                  #  FUNCTIONAL DESCRIPTION
001107:
001108:                                                                                                  #        COMPUTE DESIRED GIMBAL ANGLES FOR ENTRY ATTITUDE
001109:                                                                                                  #        THE FOLLOWING TRAJECTORY TRIAD IS AVAILABLE IN MEMORY AND IS COMPUTED EACH 2 SECONDS BY CM/POSE IN
001110:                                                                                                  #        REFERENCE COORDINATES (V = VELOCITY RELATIVE TO EARTH):
001111:
001112:                                                                                                  #                UXA = -UNIT(V)
001113:                                                                                                  #                UYA =  UNIT(V*R)
001114:                                                                                                  #                UZA =  UXA*UYA
001115:
001116:                                                                                                  #        GENERATE A DESIRED BODY TRIAD FOR TRIMMED FLIGHT WITH RESPECT TO THE RELATIVE VELOCITY VECTOR, USING
001117:                                                                                                  #        ROLL COMMAND AND TRIM ANGLE OF ATTACK:
001118:
001119:                                                                                                  #                UXD = UNIT(UYD*UXA) SIN(ALFATRIM) + UXA COS(ALFATRIM)
001120:                                                                                                  #                UYD = UYA COS(ROLLC) + UZA SIN(ROLLC)
001121:                                                                                                  #                UZD = UXD * UYD
001122:
001123:                                                                                                  #        USE THE DESIRED SET (IN REFERENCE COORDS) AND REFSMMAT TO CALL CALCGA AND OBTAIN GIMBAL ANGLES
001124:                                                                                                  #        IN 2S, C IN MPAC, +2 AND THETAD, +2.
001125:
001126:                                                                                                  #  CALLING SEQUENCE
001127:
001128:                                                                                                  #        L       CALL
001129:                                                                                                  #        L+1             S62.3
001130:
001131:                                                                                                  #  NORMAL EXIT MODE
001132:
001133:                                                                                                  #        RETURN VIA QPRET DIRECTLY FROM CALCGA.
001134:
001135:                                                                                                  #  SUBROUTINES CALLED
001136:
001137:                                                                                                  #        CALCGA
001138:
001139:                                                                                                  #  ALARM OR ABORT MODES
001140:
001141:                                                                                                  #        NONE
001142:
001143:                                                                                                  #  ERASABLE INITIALIZATION REQUIRED
001144:
001145:                                                                                                  #        ROLLC   ROLL COMMAND            DP 1'S COMP AT 1REV
001146:                                                                                                  #        ALFAPAD SP 1'S C / 180          LEFT BY PAD LOAD        ALFATRIM IS NEGATIVE.
001147:                                                                                                  #        UXA/2   REF COORDS              LEFT BY CM/POSE
001148:                                                                                                  #        UYA/2   REF COORDS              LEFT BY CM/POSE
001149:                                                                                                  #        UZA/2   REF COORDS              LEFT BY CM/POSE
001150:
001151:                                                                                                  #  OUTPUT
001152:                                                                                                  #
001153:                                                                                                  #        CPHI    GIMBAL ANGLES (O,I.M) 2'S COMP TP (O,I.M)/180
001154:
001155:                                                                                                  #  DEBRIS
001156:
001157:                                                                                                  #        QTEMP, QPRET, PUSHLIST
001158:
001159: 10,2302                                           BANK     10
001160: 10,2000                                           SETLOC   P60S4
001161: 10,2000                                           BANK


001163: 10,2302                                           COUNT*   $$/S62.3
001164:
001165: 10,2302           67201        S62.3              SETPD    SLOAD
001166: 10,2303           00001                                    0
001167: 10,2304           03012                                    ALFAPAD                               #  ALFATRIM / 180, ALFA IS NEG.
001168: 10,2305           41542                           SR1      PUSH
001169: 10,2306           65346                           COS      PDDL                                  #  XCH PDL, COS TO PDL0
001170: 10,2307           65356                           SIN      PDDL                                  #  SIN TO PDL2
001171: 10,2310           03316                                    ROLLC
001172: 10,2311           74346                           COS      VXSC
001173: 10,2312           03550                                    UYA/2                                 #                                REF COORDS
001174: 10,2313           73525                           PDDL     SIN                                   #  PUSH VECTOR INTO PDL4...9
001175: 10,2314           03316                                    ROLLC
001176: 10,2315           53361                           VXSC     VAD
001177: 10,2316           03556                                    UZA/2                                 #                                REF COORDS
001178:                                                                                                  #  VECTOR FROM PDL4...9
001179: 10,2317           77772                           VSL1
001180: 10,2320           02722                           STORE    YNB                                   #  = UYD                         REF COORDS
001181:
001182: 10,2321           76435                           VXV      VSL1
001183: 10,2322           03542                                    UXA/2                                 #                                REF COORDS
001184: 10,2323           65361                           VXSC     PDDL
001185:                                                                                                  #  SIN TRIM FROM PDL2
001186:                                                                                                  #  XCH PDL0 FOR COS TRIM
001187: 10,2324           53361                           VXSC     VAD
001188: 10,2325           03542                                    UXA/2                                 #                                REF COORDS
001189:                                                                                                  #  FROM PDL0
001190: 10,2326           77772                           VSL1
001191: 10,2327           02714                           STORE    XNB                                   #  X SC AXIS (.5 UNIT)           REF COORDS
001192:
001193: 10,2330           76435                           VXV      VSL1
001194: 10,2331           02722                                    YNB
001195: 10,2332           26730                           STOVL    ZNB                                   #  Z SC IN REF COOR. SCALED AT 2
001196: 10,2333           01736                                    REFSMMAT
001197: 10,2334           26672                           STOVL    XSM
001198: 10,2335           01744                                    REFSMMAT   +6
001199: 10,2336           26700                           STOVL    YSM
001200: 10,2337           01752                                    REFSMMAT   +12D
001201: 10,2340           02706                           STORE    ZSM
001202:
001203: 10,2341           52014                           CLEAR    GOTO
001204: 10,2342           00260                                    CPHIFLAG                              #  CAUSE CALCGA TO STORE ANS IN TP CPHI
001205: 10,2343           47244                                    CALCGA
001206:                                                                                                  #  CALCGA WILL RETURN TO ORIGINAL CALLER
001207:                                                                                                  #  VIA QPRET WITH 2'S COMP. ANGLES IN CPHI
001208:
001209:
001210:

End of include-file P61-P67.agc.  Parent file is MAIN.agc


