
Source Code


000002:                                                                                                  ## Copyright:   Public domain.
000003:                                                                                                  ## Filename:    P61-P67.agc
000004:                                                                                                  ## Purpose:     Part of the source code for Colossus, build 249.
000005:                                                                                                  ##              It is part of the source code for the Command Module's (CM)
000006:                                                                                                  ##              Apollo Guidance Computer (AGC), for Apollo 9.
000007:                                                                                                  ## Assembler:   yaYUL
000008:                                                                                                  ## Reference:   pp. 743-772.
000009:                                                                                                  ## Contact:     Ron Burkey <info@sandroid.org>.
000010:                                                                                                  ## Website:     www.ibiblio.org/apollo.
000011:                                                                                                  ## Mod history: 08/17/04 RSB.   Began transcribing.
000012:                                                                                                  ##              2010-10-24 JL   Indentation fixes.
000013:                                                                                                  ##              2010-10-24 JL   Fixed a pseudo-label on p751.
000014:                                                                                                  ##              2010-10-25 JL   Fixed page number.
000015:                                                                                                  ##              2011-05-07 JL   Flagged SBANK= workarounds for future removal.
000016:                                                                                                  ##                              Fixed garbled lines.
000017:                                                                                                  ##              2017-01-06 RSB  Page numbers now agree with those on the
000018:                                                                                                  ##                              original harcopy, as opposed to the PDF page
000019:                                                                                                  ##                              numbers in 1701.pdf.
000020:                                                                                                  ##              2017-01-18 RSB  Cross-diff'd comment text (not whitespace)
000021:                                                                                                  ##                              vs the already-proofed corresponding Colossus
000022:                                                                                                  ##                              237 and Comanche 55 source-code files
000023:                                                                                                  ##                              and corrected errors found.
000024:                                                                                                  ##              2017-02-08 RSB  Fixed comment-text errors noted while diff'ing
000025:                                                                                                  ##                              vs Artemis 72.
000026:                                                                                                  ##
000027:                                                                                                  ## The contents of the "Colossus249" files, in general, are transcribed
000028:                                                                                                  ## from a scanned copy of the program listing.  Notations on this
000029:                                                                                                  ## document read, in part:
000030:                                                                                                  ##
000031:                                                                                                  ##      Assemble revision 249 of AGC program Colossus by NASA
000032:                                                                                                  ##      2021111-041.  October 28, 1968.
000033:                                                                                                  ##
000034:                                                                                                  ##      This AGC program shall also be referred to as
000035:                                                                                                  ##                              Colossus 1A
000036:                                                                                                  ##
000037:                                                                                                  ##      Prepared by
000038:                                                                                                  ##                      Massachusetts Institute of Technology
000039:                                                                                                  ##                      75 Cambridge Parkway
000040:                                                                                                  ##                      Cambridge, Massachusetts
000041:                                                                                                  ##      under NASA contract NAS 9-4065.
000042:                                                                                                  ##
000043:                                                                                                  ## Refer directly to the online document mentioned above for further information.
000044:                                                                                                  ## Please report any errors (relative to the scanned pages) to info@sandroid.org.
000045:                                                                                                  ##
000046:                                                                                                  ## In some cases, where the source code for Luminary 131 overlaps that of
000047:                                                                                                  ## Colossus 249, this code is instead copied from the corresponding Luminary 131
000048:                                                                                                  ## source file, and then is proofed to incorporate any changes.
000049:


000051:                                                                                                  #  PROGRAM:      P61
000052:                                                                                                  #  MOD NO.:      0       MAR. 13, 1967
000053:                                                                                                  #  MOD BY:       R. HIRSCHKOP
000054:                                                                                                  #  MOD NO: 1     MOD BY:  RR BAIRNSFATHER        DATE: 22 JUN 67         RESTARTS.
000055:                                                                                                  #  MOD NO: 2     MOD BY:  RR BAIRNSFATHER        DATE: 17 JAN 68         COLOSSUS GSOP CHANGES.
000056:                                                                                                  #  MOD NO: 3     MOD BY:  RR BAIRNSFATHER        DATE:  8 MAY 68         DELETE CMSM MANEUVER (PCR 50)
000057:                                                                                                  #  FUNCTION:     TO CALCULATE AND DISPLAY EMS INITIALIZATION DATA
000058:                                                                                                  #  CALLING SEQUENCE-  BY V37
000059:                                                                                                  #  EXIT-         TO P62
000060:                                                                                                  #  SUBROUTINE CALLS-  S61.1, S61.3, GOFLASH, FLAGUP, R02BOTH
000061:                                                                                                  #  ERASABLE INITIALIZATION:
000062:                                                                                                  #        EMSALT (-29) M          .05G ALTITUDE ABOVE FISCHER ELLIPSOID   PAD LOADED.
000063:                                                                                                  #        ALFAPAD /180            HYPERSONIC CM TRIM ANGLE OF ATTACK      PAD LOADED
000064:                                                                                                  #  OUTPUT:       THE FOLLOWING REGISTERS ARE WRITTEN IN FOR USE BY DISPLAYS
000065:                                                                                                  #                GMAX    100 GMAX (-14) G,S      MAXIMUM ACCELERATION
000066:                                                                                                  #                VPRED   (-7) M/CS               PREDICTED VELOCITY AT 400K FT
000067:                                                                                                  #                GAMMAEI GAMMA/360               PREDICTED GAMMA    AT 400K FT
000068:                                                                                                  #                RTGO    THETAH/360              RANGE ANGLE TO SPLASH FROM EMSALT       EMSALT IS PAD LOADED
000069:                                                                                                  #                VIO     (-7) M/CS               INERTIAL VELOCITY AT       EMSALT       EMSALT IS PAD LOADED
000070:                                                                                                  #                TTE     (-28) CS                TIME TO                    EMSALT       EMSALT IS PAD LOADED
000071:                                                                                                  #                LAT(SPL) /360                   TARGET LOCATION                         LEFT BY DSKY
000072:                                                                                                  #                LNG(SPL) /360                   TARGET LOCATION                         LEFT BY DSKY
000073:                                                                                                  #                HEADSUP (0)                     +1 = LIFT DOWN, -1 = LIFT UP            LEFT BY DSKY
000074:                                                                                                  #  DEBRIS:       SEE SUBROUTINES.
000075:
000076: 26,2217                                           BANK     26
000077: 26,2000                                           SETLOC   P60S
000078: 26,2000                                           BANK
000079:
000080: 26,2217  E6,1661                                  EBANK=   AOG
000081:
000082: 26,2217                                           COUNT*   $$/P61
000083:
000084: 26,2217           34675        P61                CA       BIT14                                 #  EXTENDED VERB SHOULD BE FREE THIS CLOSE
000085: 26,2220           55044                           TS       EXTVBACT                              #  TO V37
000086:                                                                                                  #  LOCK OUT EXTENDED VERBS SO CAN USE TFF
000087:                                                                                                  #  ROUTINES.  EXT VERB ERASE IS USED
000088:
000089: 26,2221           44712                           CS       ONE                                   #  REMOVE IF HEADSUP EVER ON UPLINK DATA
000090: 26,2222           55726                           TS       HEADSUP                               #  PRELOAD
000091:
000092: 26,2223           02543                           TC       S61.1                                 #  CHECK STATE VECTOR AND IMU ORIENTATION
000093:                                                                                                  #  RV 60GENRET. DOES PHASCHNG, GROUP 4.
000094:
000095: 26,2224           32424                           CA       V06N61                                #  LAT(SPL)      LNG(SPL)        HEADSUP
000096:                                                                                                  #  XXX.XX DEG    XXX.XX DEG      XXXXX.
000097: 26,2225           04555                           TC       BANKCALL
000098: 26,2226           20763                           CADR     GOFLASHR
000099: 26,2227           04106                           TC       GOTOPOOH


000101: 26,2230           02235                           TC       P61.4
000102: 26,2231           02224                           TC       -5
000103:
000104: 26,2232           05301        P61.3              TC       PHASCHNG
000105: 26,2233           00014                           OCT      00014
000106:
000107: 26,2234           05112                           TC       ENDOFJOB
000108:
000109: 26,2235           22007        P61.4              ZL
000110: 26,2236           11726                           CCS      HEADSUP                               #  C(HEADSUP)= +1/-1
000111: 26,2237           34675                           CA       BIT14                                 #  IF HEADSUP POS,ROLLC =180 DEG.(LIFT DWN)
000112: 26,2240           12241                           NOOP                                           #  IF HEADSUP NEG,ROLLC =0 (LIFT UP)
000113: 26,2241           53716                           DXCH     ROLLC                                 #  ROLLC IS USED BY S62.3: GIM ANG AT .05G
000114:
000115: 26,2242           06006                           TC       INTPRET
000116: 26,2243           77745        NEWRNVN            DLOAD
000117: 26,2244           01205                                    PIPTIME                               #  SAVE TIME OF RN,VN TO DETERMINE IF AN
000118: 26,2245           37651                           STCALL   MM                                    #  UPDATE HAS OCCURRED
000119: 26,2246           52063                                    STARTEN1                              #  INITIALIZE
000120: 26,2247           77775                           VLOAD
000121: 26,2250           01171                                    RN
000122: 26,2251           02327                           STORE    RONE
000123: 26,2252           77656                           UNIT
000124: 26,2253           26343                           STOVL    URONE
000125: 26,2254           01177                                    VN
000126: 26,2255           02335                           STORE    VONE
000127: 26,2256           53435                           VXV      UNIT
000128: 26,2257           02343                                    URONE
000129: 26,2260           03502                           STORE    UNI
000130: 26,2261           45345        DUMPP61            DLOAD    DSU
000131: 26,2262           03651                                    MM                                    #  INITIAL VALUE OF PIPTIME
000132: 26,2263           01205                                    PIPTIME
000133: 26,2264           45040                           BMN      CALRB
000134: 26,2265           54243                                    NEWRNVN                               #  UPDATED... GO TRY AGAIN
000135: 26,2266           54650                                    S61.2                                 #  GET DISPLAY DATA FOR N60 AND N63
000136:                                                                                                  #  AND RETURN IN BASIC, BELOW.
000137: 26,2267           05425        P61.1              TC       CLEARMRK
000138: 26,2270           32423                           CA       V06N60                                #  GMAX          VPRED           GAMMAEI
000139:                                                                                                  #  XXX.XX G      XXXXX. FPS      XXX.XX DEG
000140: 26,2271           04555                           TC       BANKCALL
000141: 26,2272           20624                           CADR     GOFLASH
000142:
000143: 26,2273           04106                           TC       GOTOPOOH
000144: 26,2274           02276                           TC       P61.2                                 #  PROCEED
000145: 26,2275           02270                           TC       -5
000146:
000147: 26,2276           06006        P61.2              TC       INTPRET                               #  CORRECT TTE FOR TIME LAPSE DURING
000148:                                                                                                  #  ABOVE DISPLAY.
000149: 26,2277           45234                           RTB      DSU
000150: 26,2300           45505                                    LOADTIME                              #  CURRENT TIME.


000152: 26,2301           03651                                    MM                                    #  PIPTIME FOR RONE & VONE.
000153: 26,2302           77615                           DAD
000154: 26,2303           03733                                    TTE1                                  #  NEGATIVE OF FREE FALL TIME.
000155: 26,2304           03727                           STORE    TTE                                   #  DECREMENTED
000156:
000157: 26,2305           77776                           EXIT
000158:
000159: 26,2306           32425                           CA       V06N63                                #  RTGO          VIO             TTE
000160:                                                                                                  #  XXXX.X NM     XXXXX. FPS      XXBXX M,S
000161: 26,2307           04555                           TC       BANKCALL
000162: 26,2310           20624                           CADR     GOFLASH
000163: 26,2311           04106                           TC       GOTOPOOH
000164: 26,2312           02314                           TC       +2
000165: 26,2313           02276                           TC       P61.2                                 #  REDO
000166:
000167:                                                                                                  #                .... THEN FALL INTO P62


000169:
000170:                                                                                                  #  PROGRAM-      P62
000171:                                                                                                  #  MOD NO.-      0       MAR. 13, 1967
000172:                                                                                                  #  MOD BY-       R. HIRSCHKOP
000173:                                                                                                  #  MOD NO:  1    MOD BY:  RR BAIRNSFATHER        DATE: 21 MAR 67
000174:                                                                                                  #  MOD NO:  2    MOD BY:  RR BAIRNSFATHER        DATE: 22 JUN 67         RESTARTS.
000175:                                                                                                  #  MOD NO:  3    MOD BY:  RR BAIRNSFATHER        DATE: 17 JAN 68         COLOSSUS GSOP CHANGES.
000176:                                                                                                  #  MOD NO:  4    MOD BY:  RR BAIRNSFATHER        DATE:  8 MAY 68         MOVE START OF DESIRED GIMBAL CALC.
000177:                                                                                                  #  FUNCTION-     1) TO NOTIFY CREW WHEN GNC SYSTEM IS PREPARED FOR CM/SM SEPARATION
000178:                                                                                                  #                2) TO ORIENT THE CM TO THE CORRECT ATTITUDE FOR ATMOSPHERIC ENTRY
000179:                                                                                                  #  CALLING SEQUENCE-  BY V37 OR DIRECTLY FROM P61
000180:                                                                                                  #  EXIT-         TO P63
000181:                                                                                                  #  ERASABLE INITIALIZATION:
000182:                                                                                                  #        ALFAPAD                                         LEFT BY PAD LOAD
000183:                                                                                                  #        LADPAD                                          LEFT BY PAD LOAD
000184:                                                                                                  #        LODPAD                                          LEFT BY PAD LOAD
000185:                                                                                                  #        LAT(SPL)        (MAY BE CHANGED BELOW)          LEFT BY DSKY, VIA P61
000186:                                                                                                  #        LNG(SPL)        (MAY BE CHANGED BELOW)          LEFT BY DSKY, VIA P61
000187:                                                                                                  #        HEADSUP         (MAY BE CHANGED BELOW)          LEFT BY DSKY, VIA P61
000188:                                                                                                  #  SUBROUTINE CALLS:  NEWMODEX, S61.1, CM/DAPIC, CM/DAPON, R02BOTH, GOPERF1, GOFLASH, GODSPR
000189:
000190: 26,2314                                           COUNT*   $$/P62
000191:
000192: 26,2314           05243                           TC       NEWMODEX                              #  MODE CHANGE IF CAME FROM P61.
000193: 26,2315           00076                           MM       62         B-14                       #  MODE CHANGE AUTOMATIC VIA V 37.
000194: 26,2316           34712                           CA       ONE
000195: 26,2317           54332                           TS       DNLSTCOD
000196:
000197: 26,2320           02543        P62                TC       S61.1                                 #  CHECK STATE VECTOR AND IMU ORIENTATION.
000198:
000199: 26,2321           06006                           TC       INTPRET
000200: 26,2322           47131                           SSP      RTB
000201: 26,2323           03325                                    POSEXIT
000202: 26,2324           54402                                    P62.3                                 #  CALCULATE DESIRED .05G GIMBAL ANGLES,
000203:                                                                                                  #  WITHOUT DISPLAY.
000204: 26,2325           41645                                    CM/DAPIC                              #  START CM/POSE AND BODY RATE CALC
000205:
000206:                                                                                                  #  DOES 2PHSCHNG, OCT 40116, OCT 05024, OCT 13000.
000207:                                                                                                  #  CM/DAPIC SETS EBANK = EBAOG
000208:                                                                                                  #  AND RETURNS IN BASIC TO P62.2.
000209: 26,2326           00006        P62.2              EXTEND
000210: 26,2327           32431                           DCA      POSECADR                              #  CONTINUE WITH CM/POSE AFTER AV G.
000211: 26,2330           53223                           DXCH     AVEGEXIT
000212:
000213: 26,2331           34270                           CAF      OCT41                                 #  REQUEST SEPARATION
000214: 26,2332           04555                           TC       BANKCALL
000215: 26,2333           21031                           CADR     GOPERF1R
000216: 26,2334           04106                           TC       GOTOPOOH
000217: 26,2335           02340                           TC       +3                                    #  PROCEED


000219:                                                                                                  #  NOTE:  NODOFLAG WILL BE SET IN CM/DAPON. <<<
000220: 26,2336           02331                           TC       -5                                    #  ENTER
000221: 26,2337           02232                           TC       P61.3                                 #  FOR PHASCHNG AND ENDOFJOB.
000222:
000223: 26,2340           04574                 +3        TC       POSTJUMP
000224: 26,2341           41565                           CADR     CM/DAPON                              #  DISABLE RCS DAP, ENABLE ENTRY DAP AND
000225:                                                                                                  #  DO ATTITUDE HOLD.
000226:
000227:                                                                                                  #  WILL IDLE UNTIL CM/POSE DOES ONE UPDATE.
000228:                                                                                                  #  CM/DAPON DOES NO PHASCHNG.
000229:
000230: 26,2342           32424        P62.1              CA       V06N61                                #  LAT(SPL)      LNG(SPL)        HEADSUP
000231:                                                                                                  #  XXX.XX DEG    XXX.XX DEG      0000X.
000232:
000233:                                                                                                  #  TERMINATE ATTITUDE HOLD.  SET UP COMMANDS:
000234:                                                                                                  #  ROLLC, ALFACOM, BETACOM.  BEGIN MANUVER TO
000235:                                                                                                  #  ENTRY ATTITUDE.
000236:
000237: 26,2343           04555                           TC       BANKCALL
000238: 26,2344           20624                           CADR     GOFLASH
000239: 26,2345           02342                           TC       -3
000240: 26,2346           02350                           TC       +2
000241: 26,2347           02342                           TC       -5
000242:
000243: 26,2350           05301                           TC       PHASCHNG
000244: 26,2351           04024                           OCT      04024                                 #  USE ENTRYVN FOR DISPLAY BELOW.
000245:                                                                                                  #  EBANK WAS SET IN CM/DAPON TO EBAOG
000246:
000247: 26,2352           11726                           CCS      HEADSUP                               #  C(HEADSUP) = +/- 1
000248: 26,2353           34675                           CA       BIT14                                 #  IF HEADSUP POS, ROLLC=180 DEG (LIFT DWN)
000249: 26,2354           12355                           NOOP                                           #  IF HEADSUP NEG, ROLLC=0 DEG (LIFT UP)
000250: 26,2355           55715                           TS       ROLLC
000251: 26,2356           31411                           CA       ALFAPAD                               #  NOMINAL ALFATRIM PAD LOADED, NEG. NO.
000252: 26,2357           22007                           ZL
000253: 26,2360           53604                           DXCH     ALFACOM                               #  SET ALFACOM = ALFA TRIM, BETACOM=0
000254:
000255: 26,2361           34712                           CA       ONE                                   #  PERMITS EXDAP2 TO CHANGE FLAG TO +0
000256: 26,2362           55727                           TS       P63FLAG                               #  AS INDICATOR.  STARTS UP P63.
000257:
000258: 26,2363           34745                           CA       V06N22                                #  SET UP DISPLAY FOR CDU DESIRED VALUES
000259: 26,2364           55263                           TS       ENTRYVN                               #  FROM ENTRY ATTITUDE CALC, THAT IS
000260:                                                                                                  #  ALREADY GOING.
000261: 26,2365           05435                           TC       UPFLAG                                #  TURN ON ENTRY DISPLAY
000262: 26,2366           00134                           ADRES    ENTRYDSP                              #  ENTRYDSP = 92D BIT 13 FLAG 6
000263:                                                                                                  #  SKIP


000265: 26,2367           41700                           CS       CMDAPMOD                              #  GO DIRECTLY TO P63 IF BODY ATTITUDE
000266: 26,2370           74712                           MASK     ONE                                   #  IS SUCH THAT THE DELAY TASK: WAKEP62
000267: 26,2371           00006                           EXTEND                                         #  WILL BE OMITTED.
000268: 26,2372           12420                           BZF      P63.1                                 #  DISABLE GRP 4, GO TO ENDOFJOB.
000269:                                                                                                  #  (IE, CONTINUE IF CMDAPMOD = -1, OR +0)
000270: 26,2373           02406                           TC       P63
000271:
000272:                                                                                                  #  PUT JOB TO SLEEP UNTIL VEHICLE MANUVER HAS
000273:                                                                                                  #  REDUCED ALFA TO +/-45 DEG. CONSIDER REMAINING
000274:                                                                                                  #  65 DEG (25 DEG IF ALFA NEG) TO ALFA TRIM TO
000275:                                                                                                  #  OCCUR AT 3 DEG/SEC, AND TERMINATE P62 AT THAT
000276:                                                                                                  #  TIME.
000277:
000278:                                                                                                  #  TASK WAKEP62 IS CALLED FROM ENTRY DAP.
000279: 26,2374           34760        WAKEP62            CA       PRIO13
000280: 26,2375           05027                           TC       NOVAC
000281: 26,2376  E6,1661                                  EBANK=   AOG
000282: 26,2376           02406 54066                     2CADR    P63
000283:
000284: 26,2400           05213                           TC       TASKOVER
000285:
000286: 26,2401           54402        P62.3CAD           CADR     P62.3
000287:
000288:                                                                                                  #  EACH 2 SEC, CALCULATE GIMBAL ANGLES FOR ENTRY CON-
000289:                                                                                                  #  DITIONS THAT WILL HOLD IF REORIENTATION WERE MADE
000290:                                                                                                  #  AT PRESENT RN, VN.  COME HERE FROM CM/POSE AND ALSO
000291:                                                                                                  #  IN KEPLER PHASE OF ENTRY.
000292:
000293: 26,2402           52131        P62.3              SSP      GOTO                                  #  SET RETURN ADDRESS SO THAT ROUTINE
000294: 26,2403           00053                                    QPRET                                 #  GOES DIRECTLY TO ENTRY GUIDANCE EXIT
000295: 26,2404           53570                                    ENDEXIT                               #  THAT DOES ENTRY DISPLAY, GRP 5.
000296: 26,2405           20302                                    S62.3                                 #  PUT DESIRED CDU VALUES IN CPHI'S FOR
000297:                                                                                                  #  N22 DISPLAY.
000298:


000300:                                                                                                  #  P63
000301:                                                                                                  #  PROGRAM-      P63
000302:                                                                                                  #  MOD NO.-      0       MAR. 13, 1967
000303:                                                                                                  #  MOD BY-       R. HIRSCHKOP
000304:                                                                                                  #  MOD NO: 1     MOD BY: RR BAIRNSFATHER         DATE: 22 JIN 67         RESTARTS.
000305:                                                                                                  #  MOD NO: 2     MOD BY: RR BAIRNSFATHER         DATE: 14 JUL 67         REVISED RESTARTS
000306:                                                                                                  #  FUNCTION-     1) TO INITIALIZE THE ENTRY EQUATIONS
000307:                                                                                                  #                2) TO CONTINUE TO HOLD THE CM TO THE CORRECT ATTITUDE WITH RESPECT TO THE ATMOSPHERE FOR
000308:                                                                                                  #                   THE ONSET OF ENTRY DECELERATION.  ROLL ANGLE IS LIFT UP/DOWN AS SPECIFIED BY HEADSUP.
000309:                                                                                                  #                3) TO SENSE .05 G
000310:                                                                                                  #  CALLING SEQUENCE-  DIRECTLY FROM P62
000311:                                                                                                  #  EXIT-         TO ENDOFJOB
000312:                                                                                                  #  SUBROUTINE CALLS-  NEWMODEX, GODSPR
000313:
000314: 26,2406                                           COUNT*   $$/P63
000315:
000316: 26,2406           05243        P63                TC       NEWMODEX
000317: 26,2407           00077                           MM       63         B-14
000318:
000319: 26,2410           04555                           TC       BANKCALL                              #  FLUSH N22 DISPLAY, IF ON.  (ONIT DISP
000320: 26,2411           20607                           CADR     CLEANDSP                              #  DURING STARTENT PASS.)
000321:
000322:                                                                                                  #  ARRIVE WITH EBANK = AOG.
000323:
000324: 26,2412           32427                           CA       ENTCADR                               #  CONTINUE AT STARTENT AFTER CM/POSE.
000325:
000326:                                                                                                  #  AT END OF STARTENT, CHANGE ADDRESS IN GOTOADDR
000327:                                                                                                  #  TO CONTINUE AT SCALEPOP THEREAFTER.
000328:
000329: 26,2413           55724                           TS       POSEXIT
000330:
000331: 26,2414           32426                           CA       V06N64                                #  G             VI              R TO SPLSH
000332:                                                                                                  #  XXX.XX G      XXXXX. FPS      XXXX.X NM
000333: 26,2415           55263                           TS       ENTRYVN                               #  FOR DISPLAY CALL IN OVERNOUT.
000334:
000335: 26,2416           44712                           CS       ONE                                   #  IN CASE FLAG IS LEFT AT +1 BY DAP.  THE
000336: 26,2417           55727                           TS       P63FLAG                               #  -1 ASSURES THAT EXO-ATM DAP WILL NOT
000337:                                                                                                  #  CALL P63 OUT OF SEQUENCE IN P66.
000338:
000339: 26,2420           05301        P63.1              TC       PHASCHNG
000340: 26,2421           00004                           OCT      00004                                 #  DISABLE.  DISPLAY RESTARTED VIA ENTRY.
000341:
000342: 26,2422           05112                           TC       ENDOFJOB
000343:
000344: 26,2423           01474        V06N60             VN       0660
000345: 26,2424           01475        V06N61             VN       0661
000346: 26,2425           01477        V06N63             VN       0663
000347: 26,2426           01500        V06N64             VN       0664
000348: 26,2427           52000        ENTCADR            CADR     STARTENT
000349:


000351: 26,2430  E7,1451                                  EBANK=   RTINIT                                #  TO CARY OVER INTO ENTRY STEERING.
000352: 26,2430           03373 76067  POSECADR           2CADR    CM/POSE
000353:


000355:                                                                                                  #  PROGRAM-      P64
000356:                                                                                                  #  MOD NO.-      1       SEPT. 19, 1967
000357:                                                                                                  #  MOD BY-       R. HIRSCHKOP
000358:                                                                                                  #  MOD NO: 2     MOD BY: RR BAIRNSFATHER         DATE: 8 MAY 68          REVISED COMMENTS FOR COLOSSUS
000359:                                                                                                  #  FUNCTION-     1.  TO START ENTRY GUIDANCE AT .05G SELECTING ROLL ATTITUDE, CONSTANT DRAG LEVEL, AND
000360:                                                                                                  #                    DRAG THRESHOLD, KA, WHICH ARE KEYED TO THE .05G POINT.
000361:                                                                                                  #                2.  SELECT FINAL PHASE P67 IF V < 27000 FPS WHEN .2G OCCURS.
000362:                                                                                                  #                3.  ITERATE FOR UP-CONTROL SOLUTION P65 IF V > 27000 FPS AND IF ALTITUDE RATE AND DRAG
000363:                                                                                                  #                    LEVEL CONDITIONS ARE SATISFIED.  ENTER P65 WHEN CONSTANT DRAG CONTROLLER HAS BROUGHT RANGE
000364:                                                                                                  #                    AS PREDICTED TO WITHIN 25 NM OF DESIRED RANGE.
000365:                                                                                                  #                4.  SELECT FINAL PHASE P67 IF NO UP-CONTROL SOLUTION EXISTS WITH VL > 18000 FPS.
000366:                                                                                                  #  CALLING SEQUENCE-  BY RTB FROM REENTRY CONTROL
000367:                                                                                                  #  EXIT-         BACK TO REENTRY CONTROL
000368:                                                                                                  #  SUBROUTINE CALLS-  NEWMODEX
000369:
000370: 25,2000                                           BANK     25
000371: 26,2000                                           SETLOC   P60S1
000372: 26,2000                                           BANK
000373:
000374:                                                                                                  #  THIS DISPLAY IS CALLED EACH PASS THROUGH STEERING.  RESTART PROTECTION IS VIA STEERING.
000375: 26,2432                                           COUNT*   $$/P64
000376:
000377: 26,2432           05243        P64                TC       NEWMODEX                              #  ENTER VIA RTB WHEN .05G IS EXCEEDED.
000378: 26,2433           00100                           MM       64         B-14
000379: 26,2434           32437                           CA       V06N68                                #  ROLLC         VI              HDOT
000380:                                                                                                  #  XXX.XX DEG    XXXXX. FPS      XXXXX. FPS
000381: 26,2435           55263                           TS       ENTRYVN                               #  DISPLAY VIA OVERNOUT.
000382:
000383: 26,2436           06030                           TC       DANZIG                                #  ... AND CONTINUE IN INITROLL ...
000384: 26,2437           01504        V06N68             VN       0668
000385:


000387:                                                                                                  #  PROGRAM:      P65
000388:                                                                                                  #  MOD NO:  0    MOD BY:  RR BAIRNSFATHER        DATE:  17 JAN 68        COLOSSUS GSOP ADDITION.
000389:                                                                                                  #  FUNCTION:     TO CONTINUE ENTRY GUIDANCE, USING THE UP-CONTROL PHASE TO STEER TO A CONTROLLED EXIT
000390:                                                                                                  #                CONDITION.  THIS PHASE TERMINATES  A) IF D < Q7 FPSS, GO TO P66 ,
000391:                                                                                                  #                                                   B) IF RDOT NEG, AND IF V < VL +500 FPS, GO TO P67.
000392:                                                                                                  #  CALLING SEQUENCE:  BY RTB FROM REENTRY CONTROL
000393:                                                                                                  #  EXIT:         BACK TO REENTRY CONTROL, OR TO ENDOFJOB.
000394:                                                                                                  #  SUBROUTINE CALLS:  NEWMODEX
000395:
000396: 26,2440                                           COUNT*   $$/P65
000397:
000398: 26,2440           05243        P65                TC       NEWMODEX                              #  ENTER VIA RTB WHEN RANGE < 25 N M OF
000399: 26,2441           00101                           MM       65         B-14                       #  TARGET.
000400:
000401: 26,2442           34760                           CA       PRIO13
000402: 26,2443           05027                           TC       NOVAC
000403: 26,2444     1263                                  EBANK=   ENTRYVN
000404: 26,2444           02456 54062                     2CADR    P65.1
000405:
000406: 26,2446           05261                           TC       2PHSCHNG                              #  2 PHASE CHG REQUIRED TO PREVENT RE-
000407: 26,2447           00554                           OCT      00554                                 #  STARTING FLASHING DISPLAY TWICE.
000408: 26,2450           10035                           OCT      10035                                 #  4.55 SPOT AND SERVICER, HERE.
000409: 26,2451           06006                           TC       INTPRET
000410: 26,2452           47131                           SSP      RTB
000411: 26,2453           03646                                    GOTOADDR                              #  CHANGE ENTRY MODE TO UPCONTRL.
000412: 26,2454           53027                                    UPCONTRL
000413: 26,2455           52120                                    REFAZE10                              #  GO HERE TO REESTABLISH ENTRY SEQUENCER.
000414:                                                                                                  #  AND CONTINUE AT UPCONTRL...
000415:
000416: 26,2456           05447        P65.1              TC       DOWNFLAG
000417: 26,2457           00134                           ADRES    ENTRYDSP                              #  ENTRYDSP = 92D BIT 13 FLAG 6
000418:
000419: 26,2460           32472                           CA       V16N69                                #  ROLLC         DL (Q7)         VL
000420: 26,2461           04555                           TC       BANKCALL                              #  XXX.XX DEG    XXX.XX G        XXXXX. FPS
000421: 26,2462           20763                           CADR     GOFLASHR
000422: 26,2463           02460                           TC       -3                                    #  NODOFLAG IS SET ..
000423: 26,2464           02467                           TC       +3
000424: 26,2465           02460                           TC       -5
000425: 26,2466           02232                           TC       P61.3                                 #  EST. GRP 4 FOR DSPLAY AND DO ENDOFJOB
000426:                                                                                                  #  IF PROCEED, CONTINUE.
000427: 26,2467           05435                           TC       UPFLAG
000428: 26,2470           00134                           ADRES    ENTRYDSP                              #  ENTRYDSP = 92D BIT 13 FLAG 6
000429:
000430: 26,2471           02420                           TC       P63.1                                 #  DISABLE GRP 4, START UP ENTRY DISPLAY
000431:                                                                                                  #  N06V68 VIA OVERNOUT, AS USED IN P64.
000432: 26,2472           04105        V16N69             VN       1669
000433:


000435:                                                                                                  #  PROGRAM:      P66
000436:                                                                                                  #  MOD NO: 0     MOD BY: RR BAIRNSFATHER         DATE: 17 JAN 68         COLOSSUS GSOP ADDITIONS.
000437:                                                                                                  #  FUNCTION:     KEEP CM ATTITUDE IN TRIM TO THE RELATIVE VELOCITY VECTOR.  ENTRY GUIDANCE STOPS GENERATING
000438:                                                                                                  #                ROLL COMMANDS UNTIL DRAG BUILDS UP TO Q7+0.5 FPSS.
000439:                                                                                                  #  CALLING SEQUENCE:  VIA RTB FROM REENTRY CONTROL.
000440:                                                                                                  #  EXIT:         BACK TO REENTRY CONTROL.
000441:                                                                                                  #  SUBROUTINE CALLS:  NEWMODEX
000442:
000443: 26,2473                                           COUNT*   $$/P66
000444:
000445: 26,2473           05243        P66                TC       NEWMODEX                              #  ENTER VIA RTB WHEN D < Q7 FPSS
000446: 26,2474           00102                           MM       66         B-14
000447:
000448: 26,2475           34745                           CA       V06N22                                #  OGA           IGA             MGA
000449:                                                                                                  #  XXX.XX DEG    XXX.XX DEG      XXX.XX DEG
000450: 26,2476           02502                           TC       P66END                                #  IN CASE CAME FROM P65, GO DISABLE GRP 4,
000451:                                                                                                  #  AND SET ENTRYDSP TO DO DISPLAY VIA
000452:                                                                                                  #  OVERNOUT.
000453:
000454:                                                                                                  #  ... AND CONTINUE AT KEP2
000455:


000457:                                                                                                  #  P67
000458:
000459:                                                                                                  #  PROGRAM-      P67
000460:                                                                                                  #  MOD NO.-      0       MAR. 16, 1967
000461:                                                                                                  #  MOD BY-       R. HIRSCHKOP
000462:                                                                                                  #  FUNCTION-     TO TERMINATE STEERING WHEN THE CM VELOCITY WRT EARTH = 1000 FT/SEC
000463:                                                                                                  #  CALLING SEQUENCE-
000464:                                                                                                  #  EXIT-         TO POOH
000465:                                                                                                  #  SUBROUTINE CALLS-  GOFLASH
000466:
000467:                                                                                                  #  THIS DISPLAY IS CALLED EACH PASS THROUGH STEERING.  RESTART PROTECTION IS VIA STEERING.
000468:
000469: 26,2477                                           COUNT*   $$/P67
000470:
000471: 26,2477           05243        P67                TC       NEWMODEX                              #  ENTER VIA RTB
000472: 26,2500           00103                           MM       67         B-14
000473: 26,2501           32510                           CA       V06N66                                #  ROLLC         XRNGERR         DNRNGERR
000474:                                                                                                  #  XXX.XX DEG    XXXX.X NM       XXXX.X NM
000475: 26,2502           55263        P66END             TS       ENTRYVN                               #  DISPLAY VIA OVERNOUT.
000476:
000477: 26,2503           05435                           TC       UPFLAG                                #  (IN CASE CAME FROM P65.  ENTRY DISPLAY
000478: 26,2504           00134                           ADRES    ENTRYDSP                              #  WILL FLUSH FLASHING DISP.  IF STILL ON)
000479:                                                                                                  #  BIT 13 FLAG 6
000480: 26,2505           05301        KILLGRP4           TC       PHASCHNG                              #  DISABLE GRP4, IN CASE CAME FROM HUNTEST.
000481: 26,2506           00004                           OCT      00004                                 #  (COME TO KILLGRP4 VIA RTB, RET TO CALLER)
000482:
000483: 26,2507           06030                           TC       DANZIG                                #  ... AND CONTINUE AT PREDICT3 ...
000484:
000485: 26,2510           01502        V06N66             VN       0666
000486:
000487: 26,2511                                           BANK     26
000488: 26,2000                                           SETLOC   P60S2
000489: 26,2000                                           BANK
000490:
000491: 26,2511           32542        P67.1              CA       V16N67                                #  RTOGO         LAT             LONG
000492:                                                                                                  #  XXXX.X NM     XXX.XX DEG      XXX.XX DEG
000493: 26,2512           04555                           TC       BANKCALL
000494: 26,2513           20624                           CADR     GOFLASH
000495: 26,2514           02517                           TC       +3                                    #  EFFECTIVE GOTOPOOH
000496: 26,2515           02517                           TC       +2
000497: 26,2516           02511                           TC       P67.1                                 #  REDO
000498:
000499: 26,2517           46214                           CS       THREE                                 #  TURN OFF ENTRY DAP
000500: 26,2520           00004                           INHINT
000501: 26,2521           70102                           MASK     CM/FLAGS                              #  CM/DSTBY, GAMDIFSW
000502: 26,2522           54102                           TS       CM/FLAGS
000503: 26,2523           00003                           RELINT
000504: 26,2524           00006                           EXTEND
000505: 26,2525           32642                           DCA      SERVCAD2
000506:


000508: 26,2526           53223                           DXCH     AVEGEXIT
000509: 26,2527           14106                           TCF      GOTOPOOH
000510:


000512: 26,2530           43175        P67.2              VLOAD    CLEAR                                 #  CALC PRESENT LAT, LONG, ALT.
000513: 26,2531           01171                                    RN
000514: 26,2532           00662                                    ERADFLAG                              #  USE PAD RAD FOR ALT. (NOT SEEN ANYWAY)
000515: 26,2533           16152                           STODL    ALPHAV
000516: 26,2534           01205                                    PIPTIME                               #  USE TIME OF RN
000517: 26,2535           45014                           CLEAR    CALL
000518: 26,2536           01663                                    LUNAFLAG
000519: 26,2537           26322                                    LAT-LONG
000520: 26,2540           77634        P67.3              RTB                                            #  ENTRY EXIT THAT OMITS DISPLAY.
000521: 26,2541           53603                                    SERVNOUT
000522:
000523: 26,2542           04103        V16N67             VN       1667
000524: 26,2543     4270               OCT41              =        33DEC
000525: 26,2543  26,2641               SERVCAD2           =        SERVCAD1
000526:


000528:                                                                                                  #  SUBROUTINE NAME:      S61.1
000529:                                                                                                  #  MOD NO:       0                                       DATE:           21 FEB 67
000530:                                                                                                  #  MOD BY:       RR BAIRNSFATHER                         LOG SECTION:    P61-P67
000531:                                                                                                  #  MOD NO:       1       MOD BY: RR BAIRNSFATHER         DATE:           22 JUN 67       RESTARTS.
000532:
000533:                                                                                                  #  FUNCTIONAL DESCRIPTION:     CALLED BY BOTH P61 AND P62
000534:                                                                                                  #        FIRST, TEST TO SEE IF AVERAGEG IS ON.  IF NOT, UPDATE THE STATE VECTOR TO PRESENT TIME + TOLERANCE
000535:                                                                                                  #        AND TURN ON AVERAGEG AT THAT TIME, AND CONTINUE.  OTHERWISE CONTINUE:  SEE IF IMU Y AXIS IS
000536:                                                                                                  #        WITHIN 30 DEG OF V*R.  IF YES, EXIT SUBROUTINE S61.1.  IF NO, SEE IF -Y AXIS OF IMU IS WITHIN
000537:                                                                                                  #        30 DEG OF V*R.  IF YES, DISPLAY ALARM:  01427   IMU REVERSED.
000538:                                                                                                  #                        IF NO, DISPLAY ALARM:   01426   IMU UNSATISFACTORY.
000539:                                                                                                  #        IN EITHER OF THESE LAST 2 CASES, WAIT 10 SEC AND THEN EXIT SUBROUTINE S61.1.
000540:
000541:                                                                                                  #  REMARK:       THERE WILL BE A SHORT 10 SEC DELAY IF AN ALARM EXIT IS TAKEN.  THE DELAY FOR INTEGRATION IS
000542:                                                                                                  #                AS SHORT AS CAN BE MADE, BUT IS ARBITRARY SINCE IT DEPENDS ON THE AGE OF THE STATE VECTOR.
000543:
000544:                                                                                                  #  CALLING SEQUENCE:     CALL
000545:                                                                                                  #                                S61.1
000546:
000547:                                                                                                  #                        C(MPAC) UNSPECIFIED
000548:                                                                                                  #                        PUSHLOC UNSPECIFIED
000549:
000550:                                                                                                  #  SUBROUTINES CALLED:   LOADTIME, CSMPREC, TPAGREE,
000551:                                                                                                  #                        WAITLIST, JOBSLEEP, JOBWAKE, PREREAD, ALARM, GODSPR, BANKCALL, DELAYJOB
000552:
000553:                                                                                                  #  NORMAL EXIT MODES:    RVQ
000554:
000555:                                                                                                  #  ALARMS:       01426   IMU UNSATISFACTORY
000556:                                                                                                  #                01427   IMU REVERSED
000557:
000558:                                                                                                  #  OUTPUT:       POSSIBLE ALARMS
000559:                                                                                                  #                POSSIBLY TDEC1, RATT, VATT, RN, VN
000560:
000561:                                                                                                  #  ERASABLE INITIALIZATION REQUIRED:
000562:                                                                                                  #        AVEGFLAG                AVERAGEG ON OR OFF                              LEFT BY SERVICER
000563:                                                                                                  #        PIPTIME   (-28) CS      TIME OF PIPA UPDATE                             LEFT BY READACCS
000564:                                                                                                  #        RN        (-29) M       STATE VECTOR                                    LEFT BY AVERAGEG
000565:                                                                                                  #        VN        (-7) M/CS     STATE VECTOR                                    LEFT BY AVERAGEG
000566:                                                                                                  #        REFSMMAT  (-1)          .5 REF TO SM MATRIX                             LEFT BY LAST IMU ALIGNMENT
000567:
000568:                                                                                                  #  DEBRIS:       QPRET
000569:                                                                                                  #                POSSIBLY PIPTIME1, RATT, VATT, TDEC1, RN1, VN1, QTEMP, X1       IF UPDATED
000570:                                                                                                  #                PUSH LIST LOCS USED BY CSMPREC
000571:
000572: 26,2543  E6,1661                                  EBANK=   AOG                                   #  FOR 60GENRET, S61DT
000573: 26,2543                                           BANK     26
000574: 26,2000                                           SETLOC   P60S3
000575: 26,2000                                           BANK
000576:
000577: 26,2543                                           COUNT*   $$/S61.1
000578:
000579: 26,2543           00006        S61.1              EXTEND
000580: 26,2544           23773                           QXCH     60GENRET                              #  SAVE RET ADDR IN EB 6
000581: 26,2545           04555                           TC       BANKCALL
000582: 26,2546           17573                           CADR     R02BOTH
000583: 26,2547           06006                           TC       INTPRET


000585: 26,2550           45014                           BON      CALRB
000586: 26,2551           00716                                    AVEGFLAG                              #  IS AVERAGEG ON
000587: 26,2552           54603                                    S61.1A                                #  YES
000588: 26,2553           27573                                    MIDTOAV2                              #  GET FUTURE STATE VECTOR SOON AS CAN
000589:
000590: 26,2554           30155                           CA       MPAC       +1                         #  RETURN INHINTED ***
000591: 26,2555           55774                           TS       S61DT                                 #  FOR RESTART.
000592: 26,2556           05140                           TC       WAITLIST
000593: 26,2557  E7,1431                                  EBANK=   DVCNTR
000594: 26,2557           02564 54067                     2CADR    S61.1C
000595:
000596: 26,2561           05301                           TC       PHASCHNG
000597: 26,2562           40434                           OCT      40434
000598: 26,2563           05112                           TC       ENDOFJOB
000599:
000600: 26,2564           34760        S61.1C             CA       PRIO13
000601: 26,2565           05042                           TC       FINDVAC
000602: 26,2566  E6,1661                                  EBANK=   AOG
000603: 26,2566           02602 54066                     2CADR    S61.1A     -1
000604:
000605: 26,2570           00006                           EXTEND
000606: 26,2571           32642                           DCA      SERVCAD1                              #  HE WHO STARTS AVERAGEG MUST SERVICE
000607: 26,2572           53223                           DXCH     AVEGEXIT                              #  THE EXIT.
000608:
000609: 26,2573           05261                           TC       2PHSCHNG
000610: 26,2574           00454                           OCT      00454
000611: 26,2575           00415                           OCT      00415
000612:
000613: 26,2576           34753                           CA       EBENTRY                               #  SET EB= 7 FOR PREREAD.
000614: 26,2577           54003                           TS       EBANK
000615:
000616: 26,2600           04574                           TC       POSTJUMP
000617: 26,2601           76604                           CADR     PREREAD                               #  PREREAD DOES TC TASKOVER.
000618:
000619: 26,2602           06006                           TC       INTPRET
000620: 26,2603           77204        S61.1A             BOVB     VLOAD
000621: 26,2604           57343                                    TCDANZIG                              #  TURN OFF OVFIND, IF ON
000622: 26,2605           01177                                    VN                                    #  VN    (-7) M/CS
000623: 26,2606           64235                           VXV      MXV
000624: 26,2607           01171                                    RN                                    #  RN    (-29) M
000625: 26,2610           01736                                    REFSMMAT                              #  .5 UNIT MATRIX
000626: 26,2611           71256                           UNIT     DLOAD
000627: 26,2612           00160                                    MPAC       +3                         #  GET COS(THETA)/2
000628: 26,2613           43240                           BMN      DAD
000629: 26,2614           54621                                    S61.1B                                #  DO TEST ON -YSM
000630: 26,2615           14644                                    C(30)LIM                              #  = 1.0 -.5 COS(30)
000631: 26,2616           47004                           BOVB     RTB
000632: 26,2617           54640                                    RETRN1
000633: 26,2620           54625                                    RETRN3


000635: 26,2621           43276        S61.1B             DCOMP    DAD
000636: 26,2622           14644                                    C(30)LIM                              #  = 1.0 - .5 COS(30)
000637: 26,2623           77404                           BOVB     EXIT
000638: 26,2624           54630                                    RETRN2
000639:
000640: 26,2625           05537        RETRN3             TC       ALARM
000641: 26,2626           01426                           OCT      01426                                 #  IMU UNSATISFACTORY
000642: 26,2627           02632                           TC       RETRN2     +2
000643:
000644: 26,2630           05537        RETRN2             TC       ALARM
000645: 26,2631           01427                           OCT      01427                                 #  IMU REVERSED
000646:
000647: 26,2632           34743                 +2        CAF      V05N09
000648: 26,2633           04555                           TC       BANKCALL
000649: 26,2634           20602                           CADR     GODSPR                                #  DO DISPLAY
000650: 26,2635           32645                           CA       10SECS
000651: 26,2636           04555                           TC       BANKCALL
000652: 26,2637           01732                           CADR     DELAYJOB
000653:
000654: 26,2640           01773        RETRN1             TC       60GENRET
000655:
000656: 26,2641  E7,1431                                  EBANK=   DVCNTR
000657: 26,2641           03132 76067  SERVCAD1           2CADR    SERVEXIT
000658: 26,2643           22111 17335  C(30)LIM           2DEC     .566985                               #  = 1.0 - .5 COS(30)
000659: 26,2645           01750        10SECS             DEC      1000       B-14                       #  1000 CS
000660: 26,2646           00000 13560  60SECDP            2DEC     6000       B-28                       #  6000 CS
000661:


000663:                                                                                                  #  PROGRAM NAME:         S61.2                   DATE:           14 FEB 67
000664:                                                                                                  #  MOD NO:       1                               LOG SECTION:    P61-P67
000665:                                                                                                  #  MOD BY:       MORTH / BAIRNSFATHER
000666:                                                                                                  #  MOD NO: 2     MOD BY: MORTH/BAIRNSFATHER      DATE: 11 MAY 67         ADD 2ND ITER FOR ERAD AT 400K FT.
000667:                                                                                                  #  MOD NO: 3     MOD BY: RR BAIRNSFATHER         DATE: 21 NOV 67         VARIABLE MU ADDED.
000668:                                                                                                  #  MOD NO: 4     MOD BY: RR BAIRNSFATHER         DATE: 21 MAR 68         DIFFERENT EARTH/MOON SCALES IN TFF'S
000669:
000670:                                                                                                  #  FUNCTIONAL DESCRIPTION:  CALLED BY P61.  PROVIDES DISPLAYS FOR NOUNS N60 AND N63.
000671:                                                                                                  #        PROGRAM CALCULATES ENTRY DISPLAY OF MAXIMUM ACCELERATION EXPECTED (GMAX) AND ALSO THE EXPECTED
000672:                                                                                                  #        INERTIAL VELOCITY (VPRED) AND ENTRY ANGLE (GAMMAEI) THAT WILL OBTAIN AT 400K FT ABOVE THE FISCHER
000673:                                                                                                  #        ELLIPSOID.  PROGRAM ALSO CALCULATES A SECOND DISPLAY RELATIVE TO THE EMSALT ABOVE FISCHER ELLIPSOID
000674:                                                                                                  #        AND CONSISTS OF RANGE TO SPLASH FROM NOW (RTGO), PREDICTED INERTIAL VELOCITY (VIO), AND THE TIME TO
000675:                                                                                                  #        GO FROM NOW (TTE) .
000676:
000677:                                                                                                  #  CALLING SEQUENCE:     CALL
000678:                                                                                                  #                                S61.2
000679:                                                                                                  #                        C(MPAC) UNSPECIFIED
000680:                                                                                                  #                        PUSHLOC WILL BE SET TO ZERO.
000681:
000682:                                                                                                  #  SUBROUTINES CALLED:   TFFCONIC, CALCTFF, TFF/TRIG, FISHCALC, GETERAD, VGAMCALC
000683:
000684:                                                                                                  #  NORMAL EXIT MODES:    RTB  P61.1
000685:
000686:                                                                                                  #  ALARMS:       NONE
000687:
000688:                                                                                                  #  OUTPUT:       THE FOLLOWING REGISTERS ARE WRITTEN IN FOR USE BY DISPLAYS
000689:                                                                                                  #                GMAX    100 GMAX (-14) G,S      MAXIMUM ACCELERATION
000690:                                                                                                  #                VPRED   (-7) M/CS               PREDICTED VELOCITY AT 400K FT
000691:                                                                                                  #                GAMMAEI GAMMA/360               PREDICTED GAMMA    AT 400K FT
000692:                                                                                                  #                                                FOR TM, DP(GAMMAEI) = (GAMMAEI, RTGO) / 360
000693:                                                                                                  #                RTGO    THETAH/360              RANGE ANGLE TO SPLASH FROM EMSALT       EMSALT IS PAD LOADED
000694:                                                                                                  #                VIO     (-7) M/CS               INERTIAL VELOCITY AT       EMSALT       EMSALT IS PAD LOADED
000695:                                                                                                  #                TTE     (-28) CS                TIME TO                    EMSALT       EMSALT IS PAD LOADED
000696:                                                                                                  #                PUSHLOC = 0
000697:                                                                                                  #                CONIC PARAMETERS STORED IN VAC AREA (SEE TFF SUBROUTINES)
000698:
000699:                                                                                                  #  ERASABLE INITIALIZATION REQUIRED:
000700:                                                                                                  #                RONE    (-29) M                 STATE VECTOR                            LEFT BY USER
000701:                                                                                                  #                VONE    (-7) M/CS               STATE VECTOR                            LEFT BY USER
000702:                                                                                                  #                URONE   UR/2                                                            LEFT BY USER
000703:                                                                                                  #                UNI     (-1)                    UNIT NORMAL V*R                         LEFT BY ENTRY / P61
000704:                                                                                                  #                THETAH  THETAH/360              RANGE ANGLE                             LEFT BY ENTRY / P61
000705:                                                                                                  #                UNITW   (0)                     UNIT POLAR VECTOR                       LEFT BY PAD LOAD
000706:                                                                                                  #                EMSALT  (-29) M                 EMS INTERFACE ALTITUDE                  LEFT BY PAD LOAD
000707:                                                                                                  #                                                ORBITAL REENTRY: 284643 FT, LUNAR REENTRY: 297431 FT.
000708:
000709:                                                                                                  #  DEBRIS:       QPRET,
000710:                                                                                                  #                ALL PDL LOCATIONS ABOVE 12D, INCLUDING X1,X2,S1,S2
000711:                                                                                                  #                ALSO PDL+0 ... PDL+5, WHERE INITIAL PUSHLOC = PDL
000712:


000714:                                                                                                  #  THE FOLLOWING PUSH LIST LOCATIONS HAVE BEEN RESERVED FOR TFF ROUTINES AND ARE REPEATED HERE FOR CONVENIENCE.
000715:                                                                                                  #  OF COURSE FOR S61.2 USAGE, EARTH ORIGIN SCALING IS USED.
000716:
000717:                                                                                                  #                                BELOW   E:  IS USED FOR EARTH ORIGIN SCALE
000718:                                                                                                  #                                        M:  IS USED FOR MOON ORIGIN SCALE
000719:
000720:                                                                                                  #        RTERM   =       18D             TERMINAL RADIUS M       E:  (-29)       M:  (-27)
000721:                                                                                                  #        NRTERM  =       16D             TERMINAL RADIUS M       E:  (-29+NR)
000722:                                                                                                  #                                                                M:  (-27+NR)
000723:                                                                                                  #        RMAG1   =       12D             PRESENT RADIUS M        E:  (-29)       M:  (-27)
000724:                                                                                                  #        NRMAG   =       32D             PRESENT RADIUS M        E:  (-29+NR)
000725:                                                                                                  #                                                                M:  (-27+NR)
000726:                                                                                                  #        SDELF/2                         SIN(THETA) / 2
000727:                                                                                                  #        CDELF/2 =       14D             COS(THETA) / 2
000728:                                                                                                  #        TFFX    =       34D             X, ARGUMENT OF SERIES T(X).
000729:                                                                                                  #        TFFTEM  =       36D             ARG FOR TRANSFER ANGLE CALCULATION.
000730:                                                                                                  #        TFFNP   =       28D             LC P M                  E:  (-38+2NR)   M:  (-36+2NR)
000731:                                                                                                  #        TFF/RTMU=       30D             1/SQRT(MU)              E:  (17)        M:  (14)
000732:                                                                                                  #        TFFVSQ  =       20D             -(VN.VN/MU)     1/M     E:  (20)        M:  (18)
000733:


000735: 34,3652                                           BANK     34
000736: 26,2000                                           SETLOC   P60S2
000737: 26,2000                                           BANK
000738:
000739: 26,2650                                           COUNT*   $$/S61.2
000740:                                                                                                  #  PDL LEFT AT ZERO BY TARGETNG
000741:
000742: 26,2650           45345        S61.2              DLOAD    DSU
000743: 26,2651           02020                                    EMSALT
000744: 26,2652           15000                                    290KFT
000745: 26,2653           71244                           BPL      DLOAD
000746: 26,2654           54774                                    LUNENT
000747: 26,2655           17345                                    1/RTMU                                #  ESTABLISH MU FOR ORBITAL ENTRIES
000748: 26,2656           77624        CALLCON            CALL
000749: 26,2657           56750                                    TFFCONIC                              #  FILL VAC AREA WITH CONIC PARAMETERS
000750:
000751: 26,2660           45145                           DLOAD    CALL
000752: 26,2661           15020                                    RTRIAL                                #  1ST GUESS AT TERMINAL RADIUS  (-29)
000753: 26,2662           57060                                    CALCTFF                               #  SAVES MPAC IN RTERM           (18D)
000754:
000755: 26,2663           77624                           CALL                                           #  CALC SDELF/2, CDELF/2
000756: 26,2664           56573                                    TFF/TRIG                              #  RETURN WITH S(THETA) IN MPAC
000757:
000758: 26,2665           77624                           CALL                                           #  GET FISCHER RADIUS            (-29) M
000759: 26,2666           55027                                    FISHCALC                              #  ANS IN MPAC AND IN ERADM.
000760:
000761: 26,2667           45015                           DAD      CALL
000762: 26,2670           02020                                    EMSALT
000763: 26,2671           57060                                    CALCTFF                               #  SAVES MPAC IN RTERM           (18D)
000764:
000765: 26,2672           77676                           DCOMP                                          #  NEGATIVE AS IN COUNTDOWN.
000766: 26,2673           03733                           STORE    TTE1                                  #  DECR TTE FROM BASE TTE1.  (RESTART)
000767:                                                                                                  #  DNLIST AND DSKY WILL USE TTE.
000768: 26,2674           37727                           STCALL   TTE                                   #  LET MISS CONTRL DECR BY ELAPSED TIME
000769:                                                                                                  #  TTE= TIME FROM NOW TO EMSALT +FISCHER
000770:
000771: 26,2675           56573                                    TFF/TRIG                              #  S(THETA) IN MPAC ON RETURNING
000772:                                                                                                  #  AND THETA= RANGE FROM NOW TO EMSALT
000773:
000774: 26,2676           77624                           CALL
000775: 26,2677           55027                                    FISHCALC
000776: 26,2700           77624                           CALL
000777: 26,2701           56626                                    VRCALC
000778: 26,2702           77624                           CALL
000779: 26,2703           56613                                    DISPTARG
000780: 26,2704           77624                           CALL
000781: 26,2705           56613                                    DISPTARG
000782: 26,2706           37714                           STCALL   RTGO


000784: 26,2707           55050                                    VGAMCALC
000785:
000786: 26,2710           77605                           DMP                                            #  MPAC = GAMMA
000787:                                                                                                  #  PDL0 HAS VGAM.
000788: 26,2711           43265                           BDDV     DAD
000789: 26,2712           15026                                    VEMSCON                               #  -HS D 180/PI (-14)
000790: 26,2713           00001                                    0                                     #  VGAM FROM PDL0.
000791: 26,2714           17725                           STODL    VIO                                   #  PREDICTED VELOCITY AT EMSALT.
000792:                                                                                                  #  GAMMA AND VGAM AT 300K FT ARE REQUIRED BY GMAX
000793:                                                                                                  #  ALGORITHM.
000794: 26,2715           02241                                    ERADM                                 #  EARTH RADIUS FROM GETERAD (-29) M
000795:                                                                                                  #  = FISCHER RADIUS (-29)
000796:
000797: 26,2716           77615                           DAD
000798: 26,2717           06462                                    300KFT                                #  M (-29)
000799: 26,2720           34023                           STCALL   RTERM                                 #  TERMINAL RADIUS M (-29)
000800: 26,2721           55045                                    PREVGAM                               #  VGAMCALC WITH NEW RTERM
000801:                                                                                                  #  VBAR = (V(FPS) - 36KF/S) / 20KF/S
000802:
000803:                                                                                                  #  GMAX = (4/(1 + 4.8 VBARSQ))(GAM - 6.05 - 2.4 VBARSQ) - 10(L/D - .3) + 10      ASSUME L/D = 0.3, BANK =0.
000804:                                                                                                  #                                        GMAXCALC
000805:
000806: 26,2722           45325                           PDDL     DSU                                   #  GAM TO PDL2
000807: 26,2723           00001                                    0                                     #  VGAM IS IN PDL0 (-7)
000808: 26,2724           15004                                    36KFT/S                               #  (-7) M/CS
000809: 26,2725           63471                           DDV      DSQ
000810: 26,2726           15006                                    20KFT/S                               #  (-6) M/CS
000811: 26,2727           00001                           STORE    0                                     #  VBARSQ (-2) TO PDL0
000812:
000813: 26,2730           43205                           DMP      DAD
000814: 26,2731           15010                                    KR1
000815:                                                                                                  #  GAM, POS DOWN, FROM PDL2
000816: 26,2732           41215                           DAD      DMP
000817: 26,2733           15012                                    -6.05DEG
000818: 26,2734           15014                                    KR2
000819: 26,2735           77725                           PDDL                                           #  XCH PDL+0 FOR VBARSQ (-2)
000820: 26,2736           43271                           DDV      DAD
000821: 26,2737           15024                                    KR4
000822: 26,2740           17357                                    DP2(-4)
000823: 26,2741           77665                           BDDV
000824:                                                                                                  #  NUM FROM PDL+0
000825: 26,2742           51015                           DAD      BPL
000826: 26,2743           15016                                    KR3
000827: 26,2744           54747                                    +3
000828: 26,2745           77745                           DLOAD
000829: 26,2746           15332                                    HI6ZEROS
000830: 26,2747           17722                           STODL    GMAX                                  #  100 GMAX (-14)


000832:                                                                                                  #  DISPLAY USES GMAX AS SP, SO LO WORD IS WRITTEN OVER BY VPRED.
000833: 26,2750           02241                                    ERADM                                 #  = FISCHER RADIUS (-29) M
000834: 26,2751           45015                           DAD      CALL                                  #  2 ND ITERATION FOR FISCHER RADIUS
000835: 26,2752           15022                                    400KFT
000836: 26,2753           57060                                    CALCTFF                               #  ESTABLISH TRANSFER ANGLE DATA.
000837: 26,2754           77624                           CALL
000838: 26,2755           56573                                    TFF/TRIG                              #  GET SIN, COS DELF
000839: 26,2756           77624                           CALL
000840: 26,2757           55027                                    FISHCALC                              #  GET CORRESPONDING FISCHER RADIUS.
000841:
000842: 26,2760           73015                           DAD      LXA,2                                 #  SAVE HI-WORD FOR DOWNLIST.
000843: 26,2761           15022                                    400KFT                                #  M (-29)
000844: 26,2762           03713                                    RTGO                                  #  (RANGE ANGLE FROM EMSALT) / 360
000845: 26,2763           34023                           STCALL   RTERM
000846: 26,2764           55045                                    PREVGAM                               #  VGAMCALC WITH NEW RTERM
000847:
000848: 26,2765           67076                           DCOMP    SXA,2                                 #  HI-WORD OF EACH ON DOWNLIST.
000849: 26,2766           00155                                    MPAC       +1
000850: 26,2767           17771                           STODL    GAMMAEI                               #  CONIC GAMMA/360 AT 400K FT.   (HI-WORD)
000851:                                                                                                  #  CONIC RTGO/360 FROM EMSALT   (LOW-WORD)
000852:                                                                                                  #  FOR TM, DP(GAMMAEI) = (GAMMA, RTGO) / 360
000853:
000854:                                                                                                  #  VGAM FROM PDL+0 (-7)
000855: 26,2770           77626                           STADR
000856: 26,2771           74010                           STORE    VPRED                                 #  CONIC VELOCITY AT 400K FT
000857:
000858: 26,2772           77634                           RTB
000859: 26,2773           54267                                    P61.1
000860:                                                                                                  #  PDL BACK TO ZERO.
000861:
000862: 26,2774           52145        LUNENT             DLOAD    GOTO
000863: 26,2775           06456                                    1/RTMUE                               #  ESTABLISH MU FOR LUNAR TYPE ENTRIES
000864: 26,2776           54656                                    CALLCON
000865:
000866: 26,2777           00002 26244  290KFT             2DEC     88392      B-29
000867: 26,3001           00052 05716  KTETA1             2DEC*    .421844723 E2         B-14*           #  1100 2PI/16384(163.84)
000868: 26,3003           33335 05707  36KFT/S            2DEC     109.728    B-7                        #  (-7) M/CS = 36 KFT/S (-7)
000869: 26,3005           36365 30244  20KFT/S            2DEC     121.92     B-7                        #  (-6) M/CS = 2 20KFT/S (-7)
000870: 26,3007           77113 42770  KR1                2DEC     -.026666667                            #  = -2.4 4 / 360
000871: 26,3011           77354 65030  -6.05DEG           2DEC     -.016805556                            #  = -6.05 / 360
000872: 26,3013           21450 00001  KR2                2DEC     .54931641                             #  = (360/4) 100 (-14) = 9000 B-14
000873: 26,3015           01750 00000  KR3                2DEC     1000       B-14                       #  = 100 (10.0) (-14) G,S


000875:                                                                                                  #  ASSUMES L/D = 0.3, BANK =0.
000876: 26,3017           00305 04541  RTRIAL             2DEC     6460097.16 B-29                       #  RPAD +284643 FT =21 194 545 FT
000877:                                                                                                  #  RPAD DEFINED AS 20 909 901.57 FT =6 373 338 M
000878: 26,3021           00003 27040  400KFT             2DEC     121920     B-29                       #  METERS
000879:
000880:                                                                                                  #  300KFT        2DEC    91440 B-29      (-29) M
000881:                                                                                                  #  EMSALT        2DEC    86759.2 B-29    284643 FT (-29) M       (ORBITAL REENTRY)
000882:                                                                                                  #  EMSALT        2DEC    90657 B-29      297431 FT (-29) M       (LUNAR REENTRY)
000883:
000884: 26,3023           32525 12525  KR4                2DEC     .833333333
000885: 26,3025  23,2461               300KFT             EQUALS   MINPERE
000886: 26,3025           77777 76601  VEMSCON            2DEC     -.0389676  B-14                       #  = -HS D / 2 PI (-14)  M SQ / CS SQ
000887:                                                                                                  #  = -16369      .05G    32.2    .3048   .3048/2 PI      (-14)
000888:


000890:                                                                                                  #  SUBROUTINE NAME:  FISHCALC    (USED BY S61.2)         DATE:           01.21.67
000891:                                                                                                  #  MOD NO: 0                                             LOG SECTION:    P61-P67
000892:                                                                                                  #  MOD BY: MORTH / BAIRNSFATHER
000893:                                                                                                  #  MOD NO: 1     MOD BY: RR BAIRNSFATHER                 DATE:           11 MAY 67       INCLUDE GETERAD CALL
000894:
000895:                                                                                                  #  FUNCTIONAL DESCRIPTION:  GIVEN THE PRESENT POSITION, UNITR, CALCULATE A NEW UNITR THAT IS ROTATED THROUGH
000896:                                                                                                  #        TRANSFER ANGLE, THETA, ALONG TRAJECTORY.  THEN CALCULATE SIN(LAT) AND USE TO OBTAIN FISCHER RADIUS.
000897:                                                                                                  #        SINCE FISHCALC USES UNI (LEFT BY ENTRY) EARTH SCALING IS ASSUMED.  (WILL IMPROVE FOR SUITABLE TENNANT)
000898:
000899:                                                                                                  #  CALLING SEQUENCE:     CALL
000900:                                                                                                  #                                FISHCALC
000901:                                                                                                  #        ENTER WITH .5 SIN(THETA) IN MPAC.
000902:                                                                                                  #        PUSHLOC IS AT PDL+0, AN ARBITRARY BASE VALUE IF LEQ 8D
000903:
000904:                                                                                                  #  SUBROUTINES CALLED:  GET ERAD
000905:
000906:                                                                                                  #  NORMAL EXIT MODE:  RVQ
000907:
000908:                                                                                                  #  EXIT MODES:   NONE
000909:
000910:                                                                                                  #  OUTPUT:       ERADM (-29) M IN MPAC ON RETURNING
000911:                                                                                                  #                NEW UNIT VECTOR NOT SAVED.
000912:                                                                                                  #                SIN(LAT) NOT SAVED.
000913:                                                                                                  #                PUSHLOC AT PDL+0
000914:
000915:                                                                                                  #  ERASEABLE INITIALIZATION REQUIRED:
000916:                                                                                                  #                SDELF/2         =SIN(THETA) / 2, IN MPAC                LEFT BY TFF/TRIG
000917:                                                                                                  #                CDELF/2         =COS(THETA) / 2, STORED IN PDL 14D      LEFT BY TFF/TRIG
000918:                                                                                                  #                RONE            (-29) M                                 LEFT BY USER
000919:                                                                                                  #                VONE            (-7) M/CS                               LEFT BY USER
000920:                                                                                                  #                URONE           UR/2                                    LEFT BY USER
000921:                                                                                                  #                UNI             .5 UNIT(V*R)                            LEFT BY ENTRY / P61
000922:                                                                                                  #                UNITW           UNIT NORTH POLE                         LEFT BY PAD LOAD
000923:
000924:                                                                                                  #  DEBRIS:       QPRET, PDL+0 ... PDL+5
000925:                                                                                                  #  -      -          -
000926: 26,3027           47315        FISHCALC           PDVL     VXV                                   #  URPR = UR CDELF + UHOR SDELF
000927: 26,3030           02343                                    URONE
000928: 26,3031           03502                                    UNI
000929: 26,3032           76561                           VXSC     VSL1
000930:                                                                                                  #  SIN(THETA) / 2 FROM PDL+0
000931: 26,3033           74315                           PDVL     VXSC                                  #  TO PDL+0, +5
000932: 26,3034           02343                                    URONE
000933: 26,3035           00017                                    CDELF/2                               #  COS(THETA) / 2
000934: 26,3036           45455                           VAD      STADR
000935: 26,3037           74235                           STORE    URH                                   #  FOR USE IN RTGO FROM EMS DISPLAY
000936: 26,3040           72441                           DOT      SL1
000937: 26,3041           01714                                    UNITW                                 #  FULL UNIT VECTOR      UNIT NORTH
000938: 26,3042           02156                           STORE    ALPHAV     +4                         #  = .5 SIN(LAT)
000939: 26,3043           77650        DUMPFISH           GOTO
000940: 26,3044           26437                                    GETERAD                               #  SAVES FISCHER RAD (-29) M IN ERADM AND
000941:                                                                                                  #  IN MPAC.  RETURNS TO CALLER VIQ QPRET.
000942:


000944:                                                                                                  #  SUBROUTINE NAME:  VGAMCALC    (USED BY S61.2)                         DATE:           01.21.67
000945:                                                                                                  #  MOD NO: 0                                                             LOG SECTION:    P61-P67
000946:                                                                                                  #  MOD BY: MORTH / BAIRNSFATHER
000947:                                                                                                  #  MOD NO: 1     MOD BY: RR BAIRNSFATHER         DATE: 11 APR 67
000948:                                                                                                  #  MOD NO: 2     MOD BY: RR BAIRNSFATHER         DATE: 21 NOV 67         VARIABLE MU ADDED.
000949:                                                                                                  #  MOD NO: 3     MOD BY: RR BAIRNSFATHER         DATE: 21 MAR 68         ACCEPT DIFFERENT EARTH/MOON SCALE
000950:
000951:                                                                                                  #  FUNCTIONAL DESCRIPTION:  EARTH CENTERED VIS VIVA CALCULATION OF TERMINAL VELOCITY AND GAMMA (REL TO
000952:                                                                                                  #        HORIZONTAL) GIVEN THE SCALAR QUANTITIES:  PRESENT RADIUS AND VELOCITY AND THE TERMINAL RADIUS.
000953:                                                                                                  #        THE USER MUST APPEND PROPER SIGN TO GAMMA, SINCE IT IS CALCULATED AS A POSITIVE NUMBER.
000954:                                                                                                  #        THE EQUATIONS ARE
000955:
000956:                                                                                                  #                VGAM = SQRT(VN VN/MU + 2(RN-RTERM)/(RN RTERM) ) RTMU
000957:
000958:                                                                                                  #                COSGAM = H / RTERM VGAM = SQRT (LCP) / (RTERM VGAM/RTMU)
000959:
000960:                                                                                                  #        VGAMCALC ASSUMES THAT THE TERMINAL RADIUS IS LESS THAN THE PRESENT RADIUS.  BOTH CALCTFF AND CALCTPER
000961:                                                                                                  #        MAKE THIS ASSUMPTION.
000962:
000963:                                                                                                  #  CALLING SEQUENCE:     CALL                    STCALL  RTERM
000964:                                                                                                  #                                VGAMCALC                PREVGAM
000965:                                                                                                  #        PUSHLOC AT PDL+0, ARBITRARY IF LEQ 12D
000966:                                                                                                  #        C(MPAC) UNSPECIFIED                     C(MPAC)=NEW RTERM
000967:
000968:                                                                                                  #  SUBROUTINES CALLED:  NONE
000969:
000970:                                                                                                  #  NORMAL EXIT MODE:  RVQ
000971:
000972:                                                                                                  #  ALARMS:       NONE
000973:                                                                                                  #
000974:                                                                                                  #  OUTPUT:       GAMMA / 360 IN MPAC, POSITIVE NUMBER
000975:                                                                                                  #                VGAM    E: (-7)   M: (-5)       M/CS IN PDL+0
000976:                                                                                                  #                PUSHLOC AT PDL+2
000977:
000978:                                                                                                  #  ERASABLE INITIALIZATION REQD:
000979:                                                                                                  #        TFF/RTMU  E: (17)   M: (14)     1/SQRT(MU)                              LEFT BY TFFCONIC.
000980:                                                                                                  #        RMAG1     E: (-29)  M: (-27)    M  PRESENT RADIUS LENGTH                LEFT BY TFFCONIC
000981:                                                                                                  #        NRMAG     E: (-29+NR)           M  NORM LENGTH OF PRESENT POSITION      LEFT BY TFFCONIC
000982:                                                                                                  #                  M: (-27+NR)
000983:                                                                                                  #        RTERM     E: (-29)  M: (-27)    M  TERMINAL RADIUS LENGTH               LEFT BY CALCTFF
000984:                                                                                                  #        NRTERM    E: (-29+NR)           M  NORM LENGTH OF TERMINAL RADIUS       LEFT BY CALCTFF
000985:                                                                                                  #                  M: (-27+NR)
000986:                                                                                                  #        TFFVSQ    E: (20)   M: (18)   1/M  -(V SQ/MU): PRESENT VELOCITY, NORM   LEFT BY TFFCONIC
000987:                                                                                                  #        TFFNP     E: (-38+2NR)          M  LCP, SEMI-LATUS RECTUM, WEIGHT NR    LEFT BY TFFCONIC
000988:                                                                                                  #                  M: (-36+2NR)
000989:
000990:                                                                                                  #  DEBRIS:       QPRET, PDL+0 ... PDL+3
000991:                                                                                                  #                RTERM, NRTERM IF PREVGAM ENTERED.


000993:
000994: 26,3045           77657        PREVGAM            SL*                                            #  ENTER WITH NEW RTERM IN MPAC
000995:                                                                                                  #  E: (-29)  M: (-27)
000996: 26,3046           20201                                    0,1                                   #  X1 = -NR
000997: 26,3047           00021                           STORE    NRTERM                                #  RTERM M               E: (-29+NR)     M: (-27+NR)
000998: 26,3050           41345        VGAMCALC           DLOAD    DMP
000999: 26,3051           00041                                    NRMAG                                 #  RMAG M                E: (-29+NR)     M: (-27+NR)
001000: 26,3052           00021                                    NRTERM                                #  RTERM M               E: (-29+NR)     M: (-27+NR)
001001: 26,3053           45325                           PDDL     DSU                                   #  RMAG RTERM M          E: (-58+2NR)    M: (-54+2NR)
001002: 26,3054           00041                                    NRMAG                                 #  RMAG M                E: (-29+NR)     M: (-27+NR)
001003: 26,3055           00021                                    NRTERM                                #  RTERM M               E: (-29+NR)     M: (-27+NR)
001004: 26,3056           56257                           SL*      DDV                                   #  2(RN-RTERM)           E: (-30+NR)     M: (-28+NR)
001005: 26,3057           20171                                    0          -8D,1                      #  (-8+NR)
001006:                                                                                                  #  PUSH UP PRODUCT.
001007:
001008: 26,3060           77625                           DSU
001009: 26,3061           00025                                    TFFVSQ                                #  -(V SQ/MU)            E: (20)         M: (18)
001010: 26,3062           41566                           SQRT     PUSH                                  #  SAVE VGAM/RT(MU) FOR NOW.     E: (10) M: (9)
001011: 26,3063           65271                           DDV      PDDL                                  #  XCH PDL+0, LEAVING VGAM FOR OUTPUT.
001012:                                                                                                  #  VGAM TO PDL M/CS      E: (-7)         M: (-2)
001013: 26,3064           00037                                    TFF/RTMU                              #                        E: (17)         M: (14)
001014: 26,3065           65205                           DMP      PDDL                                  #  RTERM VGAM/RTMU       E: (-19+NR)     M: (-18+NR)
001015: 26,3066           00021                                    NRTERM                                #  RTERM M               E: (-29+NR)     M: (-27+NR)
001016: 26,3067           00035                                    TFFNP                                 #  LC P =H.H/MU M        E: (-38+2NR)    M: (-36+2NR)
001017: 26,3070           56366                           SQRT     DDV                                   #                        E: (-19+NR)     M: (-18+NR)
001018:                                                                                                  #  PUSH UP DEN           E: (-19+NR)     M: (-18+NR)
001019:                                                                                                  #  USE DDV OVFL AS LIMITER (|COS| <1.0)
001020: 26,3071           65542                           SR1      ACOS
001021: 26,3072           77616        DUMPVGAM           RVQ
001022:                                                                                                  #  CALLER MUST SUPPLY OWN SIGN ...
001023:                                                                                                  #                        22W     27MS
001024:


001026:                                                                                                  #  SUBROUTINE NAME:      TFF/TRIG        (USED BY S61.2)         DATE            01.17.67
001027:                                                                                                  #  MOD NO: 0                                                     LOG SECTION:    P61-P67
001028:                                                                                                  #  MOD BY: RR BAIRNSFATHER
001029:                                                                                                  #  MOD NO: 1     MOD BY: RR BAIRNSFATHER         DATE: 14 APR 67
001030:                                                                                                  #  MOD NO: 2     MOD BY: RR BAIRNSFATHER         DATE: 21 MAR 68         ACCEPT DIFFERENT EARTH/MOON SCALE
001031:
001032:                                                                                                  #  FUNCTIONAL DESCRIPTION:  USED BY ENTRY DISPLAY TO CALCULATE SIN(THETA), COS(THETA) FROM DATA LEFT IN
001033:                                                                                                  #        PDL BY TFF SUBROUTINES.  THE EQNS ARE
001034:
001035:                                                                                                  #                COS(THETA) = 1-2 ABS(ARG) / (RN RTERM (1+X) )
001036:                                                                                                  #                                                2
001037:                                                                                                  #                SIN(THETA) = SGN(ARG) SQRT(1-COS (THETA) )
001038:
001039:                                                                                                  #        WHERE THETA = TRANSFER ANGLE
001040:                                                                                                  #        AND     ARG = P Z ABS(Z)                        IF ALFA ZZ LEQ 1
001041:                                                                                                  #                ARG = (P / ALFA) SGN(Q1 + R 1/Z)        IF ALFA Z Z G 1
001042:                                                                                                  #        AND ARG HAS BEEN AFFIXED WITH THE SIGN OF SIN(THETA).
001043:
001044:                                                                                                  #  CALLING SEQUENCE:     CALL
001045:                                                                                                  #                                TFF/TRIG
001046:                                                                                                  #                PUSHLOC AT PDL+0, ARBITRARY IF NOT EQ 14D
001047:                                                                                                  #                C(MPAC) UNSPECIFIED
001048:
001049:                                                                                                  #  SUBROUTINES CALLED:  NONE
001050:
001051:                                                                                                  #  NORMAL EXIT MODES:  RVQ
001052:
001053:                                                                                                  #  ALARMS:       NONE
001054:
001055:                                                                                                  #  OUTPUT:       C(MPAC) = .5 SIN(THETA)
001056:                                                                                                  #                CDELF/2 = .5 COS(THETA)         (IN PDL 14D)
001057:                                                                                                  #                PUSHLOC AT PDL+0
001058:
001059:                                                                                                  #  ERASABLE INITIALIZATION REQUIRED:
001060:                                                                                                  #                TFFX                    X                                       LEFT BY CALCTFF OR CALCTPER
001061:                                                                                                  #                TFFTEM  E: (-59+2NR)    ARG                                     LEFT BY CALCTFF OR CALCTPER
001062:                                                                                                  #                        M: (-55+2NR)    WHERE ARG = LCP ZZ SGN(DELF) OR ARG = LCP/ALFA SGN(DELF)
001063:                                                                                                  #                NRTERM  E: (-29+NR)     M  NORM LENGTH OF TERMINAL RADIUS       LEFT BY CALCTFF OR CALCTPER
001064:                                                                                                  #                        M: (-27+NR)
001065:                                                                                                  #                NRMAG   E: (-29+NR)     M  NORM LENGTH OF PRESENT POSITION      LEFT BY TFFCONIC
001066:                                                                                                  #                        M: (-27+NR)
001067:
001068:                                                                                                  #  DEBRIS:       QPRET, CDELF/2
001069:
001070: 27,2573                                           BANK     27
001071: 27,2000                                           SETLOC   P60S5
001072: 27,2000                                           BANK
001073: 27,2573           70545        TFF/TRIG           DLOAD    SR1
001074: 27,2574           00043                                    TFFX
001075: 27,2575           41215                           DAD      DMP
001076: 27,2576           15330                                    HIDPHALF
001077: 27,2577           00041                                    NRMAG                                 #  RMAG M                E: (-29+NR)     M: (-27+NR)
001078: 27,2600           55205                           DMP      BDDV
001079: 27,2601           00021                                    NRTERM                                #  RTERM M               E: (-29+NR)     M: (-27+NR)
001080: 27,2602           00045                                    TFFTEM                                #  P ZSQ OR P/ALFA       E: (-59+2NR)    M: (-55+2NR)
001081: 27,2603           44246                           ABS      BDSU                                  #  THE SIGN IS FOR SDELF.
001082: 27,2604           15330                                    HIDPHALF
001083: 27,2605           00017                           STORE    CDELF/2                               #  .5 COS(THETA)
001084: 27,2606           57516                           DSQ      DCOMP                                 #  KEEP HONEST FOR SQRT.


001086: 27,2607           75415                           DAD      SQRT
001087: 27,2610           15322                                    HIDP1/4
001088: 27,2611           43565        DUMPTRIG           SIGN     RVQ
001089: 27,2612           00045                                    TFFTEM                                #  AFFIX SIGN(DELE/2)
001090:                                                                                                  #  RETURN WITH .5 SIN(THETA) IN MPAC
001091:                                                                                                  #                        16W     15MS
001092:
001093: 27,2613           77620        DISPTARG           STQ                                            #  C(MPAC) = TRGO ESTIMATE
001094: 27,2614           03373                                    60GENRET
001095: 27,2615           45205                           DMP      DSU
001096: 27,2616           15002                                    KTETA1
001097: 27,2617           03733                                    TTE1
001098: 27,2620           37606                           STCALL   DTEAROT
001099: 27,2621           46225                                    EARROT2
001100: 27,2622           77624                           CALL
001101: 27,2623           56626                                    VRCALC
001102: 27,2624           77650                           GOTO
001103: 27,2625           03373                                    60GENRET
001104: 27,2626           50375        VRCALC             VLOAD    DOT
001105: 27,2627           03542                                    URH
001106: 27,2630           03474                                    RT
001107: 27,2631           65512                           SL2      ACOS
001108: 27,2632           77616                           RVQ
001109:
001110:                                                                                                  #  END OF PROGRAM S61.2
001111:


001113:                                                                                                  #  PROGRAM DESCRIPTION S62.3     DATE 10JAN67
001114:                                                                                                  #  MOD NO 1                      LOG SECTION P60-P67
001115:                                                                                                  #  MOD BY ZELDIN
001116:                                                                                                  #  MOD NO: 2     MOD BY: RR BAIRNSFATHER         DATE: 15 MAY 67         CHANGED TO REF COORDS.
001117:                                                                                                  #  MOD NO: 3     MOD BY: RR BAIRNSFATHER         DATE: 17 JAN 68         ALFAPAD CHANGES MADE.
001118:
001119:                                                                                                  #  FUNCTIONAL DESCRIPTION
001120:
001121:                                                                                                  #        COMPUTE DESIRED GIMBOL ANGLES FOR ENTRY ATTITUDE
001122:                                                                                                  #        THE FOLLOWING TRAJECTORY TRIAD IS AVAILABLE IN MEMORY AND IS COMPUTED EACH 2 SECONDS BY CM/POSE IN
001123:                                                                                                  #        REFERENCE COORDINATES (V = VELOCITY RELATIVE TO EARTH) :
001124:
001125:                                                                                                  #                UXA = -UNIT(V)
001126:                                                                                                  #                UYA =  UNIT(V*R)
001127:                                                                                                  #                UZA =  UXA*UYA
001128:
001129:                                                                                                  #        GENERATE A DESIRED BODY TRIAD FOR TRIMMED FLIGHT WITH RESPECT TO THE RELATIVE VELOCITY VECTOR, USING
001130:                                                                                                  #        ROLL COMMAND AND TRIM ANGLE OF ATTACK:
001131:
001132:                                                                                                  #                UXD = UNIT(UYD*UXA) SIN(ALFATRIM) + UXA COS(ALFATRIM)
001133:                                                                                                  #                UYD = UYA COS(ROLLC) + UZA SIN(ROLLC)
001134:                                                                                                  #                UZD = UXD * UYD
001135:
001136:                                                                                                  #        USE THE DESIRED SET (IN REFERENCE COORDS) AND REFSMMAT TO CALL CALCGA AND OBTAIN GIMBAL ANGLES
001137:                                                                                                  #        IN 2S, C IN MPAC, +2 AND THETAD, +2.
001138:
001139:                                                                                                  #  CALLING SEQUENCE
001140:
001141:                                                                                                  #        L       CALL
001142:                                                                                                  #        L+1             S62.3
001143:
001144:                                                                                                  #  NORMAL EXIT MODE
001145:
001146:                                                                                                  #        RETURN VIA QPRET DIRECTLY FROM CALCGA.
001147:
001148:                                                                                                  #  SUBROUTINES CALLED
001149:
001150:                                                                                                  #        CALCGA
001151:
001152:                                                                                                  #  ALARM OR ABORT MODES
001153:
001154:                                                                                                  #        NONE
001155:
001156:                                                                                                  #  ERASABLE INITIALIZATION REQUIRED
001157:
001158:                                                                                                  #        ROLLC   ROLL COMMAND            DP 1:S COMP AT 1REV
001159:                                                                                                  #        ALFAPAD SP 1S,C / 180           LEFT BY PAD LOAD        ALFATRIM IS NEGATIVE.
001160:                                                                                                  #        UXA/2   REF COORDS              LEFT BY CM/POSE
001161:                                                                                                  #        UYA/2   REF COORDS              LEFT BY CM/POSE
001162:                                                                                                  #        UZA/2   REF COORDS              LEFT BY CM/POSE
001163:
001164:                                                                                                  #  OUTPUT
001165:                                                                                                  #
001166:                                                                                                  #        CPHI    GIMBAL ANGLES (O,I,M) 2:S COMP TP (O,I,M)/180
001167:
001168:                                                                                                  #  DEBRIS
001169:
001170:                                                                                                  #        QTEMP, QPRET, PUSHLIST
001171:
001172: 10,2302                                           BANK     10
001173: 10,2000                                           SETLOC   P60S4
001174: 10,2000                                           BANK


001176: 10,2302                                           COUNT*   $$/S62.3
001177:
001178: 10,2302           67201        S62.3              SETPD    SLOAD
001179: 10,2303           00001                                    0
001180: 10,2304           03012                                    ALFAPAD                               #  ALFATRIM / 180, ALFA IS NEG.
001181: 10,2305           41542                           SR1      PUSH
001182: 10,2306           65346                           COS      PDDL                                  #  XCH PDL, COS TO PDL0
001183: 10,2307           65356                           SIN      PDDL                                  #  SIN TO PDL2
001184: 10,2310           03316                                    ROLLC
001185: 10,2311           74346                           COS      VXSC
001186: 10,2312           03550                                    UYA/2                                 #                                REF COORDS
001187: 10,2313           73525                           PDDL     SIN                                   #  PUSH VECTOR INTO PDL4,.9
001188: 10,2314           03316                                    ROLLC
001189: 10,2315           53361                           VXSC     VAD
001190: 10,2316           03556                                    UZA/2                                 #                                REF COORDS
001191:                                                                                                  #  VECTOR FROM PDL4, 9
001192: 10,2317           77772                           VSL1
001193: 10,2320           02722                           STORE    YNB                                   #  = UYD                         REF COORDS
001194:
001195: 10,2321           76435                           VXV      VSL1
001196: 10,2322           03542                                    UXA/2                                 #                                REF COORDS
001197: 10,2323           65361                           VXSC     PDDL
001198:                                                                                                  #  SIN TRIM FROM PDL2
001199:                                                                                                  #  XCH PDL0 FOR COS TRIM
001200: 10,2324           53361                           VXSC     VAD
001201: 10,2325           03542                                    UXA/2                                 #                                REF COORDS
001202:                                                                                                  #  FROM PDL0
001203: 10,2326           77772                           VSL1
001204: 10,2327           02714                           STORE    XNB                                   #  X SC AXIS (.5 UNIT)           REF COORDS
001205:
001206: 10,2330           76435                           VXV      VSL1
001207: 10,2331           02722                                    YNB
001208: 10,2332           26730                           STOVL    ZNB                                   #  Z SC IN REF COOR. SCALED AT 2
001209: 10,2333           01736                                    REFSMMAT
001210: 10,2334           26672                           STOVL    XSM
001211: 10,2335           01744                                    REFSMMAT   +6
001212: 10,2336           26700                           STOVL    YSM
001213: 10,2337           01752                                    REFSMMAT   +12D
001214: 10,2340           02706                           STORE    ZSM
001215:
001216: 10,2341           52014                           CLEAR    GOTO
001217: 10,2342           00260                                    CPHIFLAG                              #  CAUSE CALCGA TO STORE ANS IN TP CPHI
001218: 10,2343           47244                                    CALCGA
001219:                                                                                                  #  CALCGA WILL RETURN TO ORIGINAL CALLER
001220:                                                                                                  #  VIA QPRET WITH 2,S COMP. ANGLES IN CPHI
001221:
001222:
001223:

End of include-file P61-P67.agc.  Parent file is MAIN.agc


