
Source Code
000001:                                                                                                 #  Copyright:     Public domain.
000002:                                                                                                 #  Filename:      Template.agc
000003:                                                                                                 #  Purpose:       Part of the source code for Colossus, build 249.
000004:                                                                                                 #                 It is part of the source code for the Command Module's (CM)
000005:                                                                                                 #                 Apollo Guidance Computer (AGC), possibly for Apollo 8 and 9.
000006:                                                                                                 #  Assembler:     yaYUL
000007:                                                                                                 #  Reference:     pp. 747-776 of 1701.pdf.
000008:                                                                                                 #  Contact:       Ron Burkey <info@sandroid.org>.
000009:                                                                                                 #  Website:       www.ibiblio.org/apollo.
000010:                                                                                                 #  Mod history:   08/17/04 RSB.   Began transcribing.
000011:
000012:                                                                                                 #  The contents of the "Colossus249" files, in general, are transcribed
000013:                                                                                                 #  from a scanned document obtained from MIT's website,
000014:                                                                                                 #  http://hrst.mit.edu/hrs/apollo/public/archive/1701.pdf.  Notations on this
000015:                                                                                                 #  document read, in part:
000016:
000017:                                                                                                 #         Assemble revision 249 of AGC program Colossus by NASA
000018:                                                                                                 #         2021111-041.  October 28, 1968.
000019:
000020:                                                                                                 #         This AGC program shall also be referred to as
000021:                                                                                                 #                                 Colossus 1A
000022:
000023:                                                                                                 #         Prepared by
000024:                                                                                                 #                         Massachussets Institute of Technology
000025:                                                                                                 #                         75 Cambridge Parkway
000026:                                                                                                 #                         Cambridge, Massachusetts
000027:                                                                                                 #         under NASA contract NAS 9-4065.
000028:
000029:                                                                                                 #  Refer directly to the online document mentioned above for further information.
000030:                                                                                                 #  Please report any errors (relative to 1701.pdf) to info@sandroid.org.
000031:
000032:                                                                                                 #  In some cases, where the source code for Luminary 131 overlaps that of
000033:                                                                                                 #  Colossus 249, this code is instead copied from the corresponding Luminary 131
000034:                                                                                                 #  source file, and then is proofed to incorporate any changes.
000035:
000036:                                                                                                 #  Page 747
000037:                                                                                                 #  PROGRAM:       P61
000038:                                                                                                 #  MOD NO.:       0       MAR. 13, 1967
000039:                                                                                                 #  MOD BY:        R. HIRSCHKOP
000040:                                                                                                 #  MOD NO: 1      MOD BY:  RR BAIRNSFATHER        DATE: 22 JUN 67         RESTARTS
000041:                                                                                                 #  MOD NO: 2      MOD BY:  RR BAIRNSFATHER        DATE: 17 JAN 68         COLOSSUS GSOP CHANGES
000042:                                                                                                 #  MOD NO: 3      MOD BY:  RR BAIRNSFATHER        DATE:  8 MAY 68         DELETE CMSM MANEUVER (PCR 50)
000043:                                                                                                 #  FUNCTION:      TO CALCULATE AND DISPLAY EMS INITIALIZATION DATA
000044:                                                                                                 #  CALLING SEQUENCE:  BY V37
000045:                                                                                                 #  EXIT:          TO P62
000046:                                                                                                 #  SUBROUTINE CALLS:  S61.1, S61.3, GOFLASH, FLAGUP, R02BOTH
000047:                                                                                                 #  ERASABLE INITIALIZATION:
000048:                                                                                                 #         EMSALT (-29) M          .05G ALTITUDE ABOVE FISCHER ELLIPSOID   PAD LOADED.
000049:                                                                                                 #         ALFAPAD /180            HYPERSONIC CM TRIM ANGLE OF ATTACK      PAD LOADED
000050:                                                                                                 #  OUTPUT:        THE FOLLOWING REGISTERS ARE WRITTEN IN FOR USE BY DISPLAYS
000051:                                                                                                 #                 GMAX    100 GMAX (-14) G,S      MAXIMUM ACCELERATION
000052:                                                                                                 #                 VPRED   (-7) M/CS               PREDICTED VELOCITY AT 400K FT
000053:                                                                                                 #                 GAMMAEI (GAMMA/360              PREDICTED GAMMA    AT 400K FT
000054:                                                                                                 #                 RTGO    THETAH/360              RANGE ANGLE TO SPLASH FROM EMSALT       EMSALT IS PAD LOADED
000055:                                                                                                 #                 VIO     (-7) M/CS               INERTIAL VELOCITY AT       EMSALT       EMSALT IS PAD LOADED
000056:                                                                                                 #                 TTE     (-28) CS                TIME TO                    EMSALT       EMSALT IS PAD LOADED
000057:                                                                                                 #                 LAT(SPL) /360                   TARGET LOCATION                         LEFT BY DSKY
000058:                                                                                                 #                 LNG(SPL) /360                   TARGET LOCATION                         LEFT BY DSKY
000059:                                                                                                 #                 HEADSUP (0)                     +1 = LIFT DOWN, -1 = LIFT UP            LEFT BY DSKY
000060:                                                                                                 #  DEBRIS:        SEE SUBROUTINES.
000061:
000062: 26,2217                                          BANK     26
000063: 26,2000                                          SETLOC   P60S
000064: 26,2000                                          BANK
000065:
000066: 26,2217  E6,1661                                 EBANK=   AOG
000067:
000068: 26,2217                                          COUNT*   $$/P61
000069:
000070: 26,2217           34675        P61               CA       BIT14                                 #  EXTENDED VERB SHOULD BE FREE THIS CLOSE
000071: 26,2220           55044                          TS       EXTVBACT                              #  TO V37
000072:                                                                                                 #  LOCK OUT EXTENDED VERBS SO CAN USE TFF
000073:                                                                                                 #  ROUTINES.  EXT VERB ERASE IS USED
000074:
000075: 26,2221           44712                          CS       ONE                                   #  REMOVE IF HEADSUP EVER ON UPLINK DATA
000076: 26,2222           55726                          TS       HEADSUP                               #  PRELOAD
000077:
000078: 26,2223           02543                          TC       S61.1                                 #  CHECK STATE VECTOR AND IMU ORIENTATION
000079:                                                                                                 #  RV 50GENRET. DOES PHASCHNG, GROUP 4.
000080:
000081: 26,2224           32424                          CA       V06N61                                #  LAT(SPL)       LNG(SPL)        HEADSUP
000082:                                                                                                 #  XXX.XX DEG     XXX.XX DEG      XXXXX.
000083: 26,2225           04555                          TC       BANKCALL
000084: 26,2226           20763                          CADR     GOFLASHR
000085: 26,2227           04106                          TC       GOTOP00H
000086:                                                                                                 #  Page 748
000087: 26,2230           02235                          TC       P61.4
000088: 26,2231           02224                          TC       -5
000089:
000090: 26,2232           05301        P61.3             TC       PHASCHNG
000091: 26,2233           00014                          OCT      00014
000092:
000093: 26,2234           05112                          TC       ENDOFJOB
000094:
000095: 26,2235           22007        P61.4             ZL
000096: 26,2236           11726                          CCS      HEADSUP                               #  C(HEADSUP)= +1/-1
000097: 26,2237           34675                          CA       BIT14                                 #  IF HEADSUP POS,ROLLC =180 DEG.(LIFT DWN)
000098: 26,2240           12241                          NOOP                                           #  IF HEADSUP NEG,ROLLC =0 (LIFT UP)
000099: 26,2241           53716                          DXCH     ROLLC                                 #  ROLLC IS USED BY S62.3: GIM ANG AT .05G
000100:
000101: 26,2242           06006                          TC       INTPRET
000102: 26,2243           77745        NEWRNVN           DLOAD
000103: 26,2244           01205                                   PIPTIME                               #  SAVE TIME OF RN,VN TO DETERMINE IF AN
000104: 26,2245           37651                          STCALL   MM                                    #  UPDATE HAS OCCURRED.
000105: 26,2246           52063                                   STARTEN1                              #  INITIALIZE
000106: 26,2247           77775                          VLOAD
000107: 26,2250           01171                                   RN
000108: 26,2251           02327                          STORE    RONE
000109: 26,2252           77656                          UNIT
000110: 26,2253           26343                          STOVL    URONE
000111: 26,2254           01177                                   VN
000112: 26,2255           02335                          STORE    VONE
000113: 26,2256           53435                          VXV      UNIT
000114: 26,2257           02343                                   URONE
000115: 26,2260           03502                          STORE    UNI
000116: 26,2261           45345        DUMPP61           DLOAD    DSU
000117: 26,2262           03651                                   MM                                    #  INITIAL VALUE OF PIPTIME
000118: 26,2263           01205                                   PIPTIME
000119: 26,2264           45040                          BMN      CALRB
000120: 26,2265           54243                                   NEWRNVN                               #  UPDATED... GO TRY AGAIN
000121: 26,2266           54650                                   S61.2                                 #  GET DISPLAY DATA FOR N60 AND N63
000122:                                                                                                 #  AND RETURN IN BASIC, BELOW.
000123: 26,2267           05425        P61.1             TC       CLEARMRK
000124: 26,2270           32423                          CA       V06N60                                #  GMAX           VPRED           GAMMAEI
000125:                                                                                                 #  XXX.XX G       XXXXX. FPS      XXX.XX DEG
000126: 26,2271           04555                          TC       BANKCALL
000127: 26,2272           20624                          CADR     GOFLASH
000128:
000129: 26,2273           04106                          TC       GOTOP00H
000130: 26,2274           02276                          TC       P61.2                                 #  PROCEED
000131: 26,2275           02270                          TC       -5
000132:
000133: 26,2276           06006        P61.2             TC       INTPRET                               #  CORRECT TTE FOR TIME LAPSE DURING
000134:                                                                                                 #  ABOVE DISPLAY.
000135: 26,2277           45234                          RTB      DSU
000136: 26,2300           45505                                   LOADTIME                              #  CURRENT TIME.
000137:                                                                                                 #  Page 749
000138: 26,2301           03651                                   MM                                    #  PIPTIME FOR RONE & VONE.
000139: 26,2302           77615                          DAD
000140: 26,2303           03733                                   TTE1                                  #  NEGATIVE OF FREE FALL TIME.
000141: 26,2304           03727                          STORE    TTE                                   #  DECREMENTED
000142:
000143: 26,2305           77776                          EXIT
000144:
000145: 26,2306           32425                          CA       V06N63                                #  RTGO           VIO             TTE
000146:                                                                                                 #  XXXX.X NM      XXXXX. FPS      XXBXX M,S
000147: 26,2307           04555                          TC       BANKCALL
000148: 26,2310           20624                          CADR     GOFLASH
000149: 26,2311           04106                          TC       GOTOP00H
000150: 26,2312           02314                          TC       +2
000151: 26,2313           02276                          TC       P61.2                                 #  REDO
000152:
000153:                                                                                                 #                 .... THEN FALL INTO P62
000154:                                                                                                 #  Page 750
000155:
000156:                                                                                                 #  PROGRAM:       P62
000157:                                                                                                 #  MOD NO.:       0       MAR. 13, 1967
000158:                                                                                                 #  MOD BY:        R. HIRSCHKOP
000159:                                                                                                 #  MOD NO:  1     MOD BY:  RR BAIRNSFATHER        DATE: 21 MAR 67
000160:                                                                                                 #  MOD NO:  2     MOD BY:  RR BAIRNSFATHER        DATE: 22 JUN 67         RESTARTS.
000161:                                                                                                 #  MOD NO:  3     MOD BY:  RR BAIRNSFATHER        DATE: 17 JAN 68         COLOSSUS GSOP CHANGES.
000162:                                                                                                 #  MOD NO:  4     MOD BY:  RR BAIRNSFATHER        DATE:  8 MAY 68         MOVE START OF DESIRED GIMBAL CALC.
000163:                                                                                                 #  FUNCTION:      1) TO NOTIFY CREW WHEN GNC SYSTEM IS PREPARED FOR CM/SM SEPARATION.
000164:                                                                                                 #                 2) TO ORIENT THE CM TO THE CORRECT ATTITUDE FOR ATMOSPHERIC ENTRY.
000165:                                                                                                 #  CALLING SEQUENCE:  BY V37 OR DIRECTLY FROM P61
000166:                                                                                                 #  EXIT:          TO P63
000167:                                                                                                 #  ERASABLE INITIALIZATION:
000168:                                                                                                 #         ALFAPAD                                         LEFT BY PAD LOAD
000169:                                                                                                 #         LADPAD                                          LEFT BY PAD LOAD
000170:                                                                                                 #         (?)                                             LEFT BY PAD LOAD
000171:                                                                                                 #         LAT(SPL)        (MAY BE CHANGED BELOW)          LEFT BY DSKY, VIA P61
000172:                                                                                                 #         LNG(SPL)        (MAY BE CHANGED BELOW)          LEFT BY DSKY, VIA P61
000173:                                                                                                 #         HEADSUP         (MAY BE CHANGED BELOW)          LEFT BY DSKY, VIA P61
000174:                                                                                                 #  SUBROUTINE CALLS:  NEWMODEX, S61.1, CM/DAPIC, CM/DAPON, R02BOTH, GOPERF1, GOFLASH, GODSPR.
000175:
000176: 26,2314                                          COUNT*   $$/P62
000177:
000178: 26,2314           05243                          TC       NEWMODEX                              #  MODE CHANGE IF CAME FROM P61.
000179: 26,2315           00076                          MM       62         B-14                       #  MODE CHANGE AUTOMATIC VIA V 37.
000180: 26,2316           34712                          CA       ONE
000181: 26,2317           54332                          TS       DNLSTCOD
000182:
000183: 26,2320           02543        P62               TC       S61.1                                 #  CHECK STATE VECTOR AND IMU ORIENTATION.
000184:
000185: 26,2321           06006                          TC       INTPRET
000186: 26,2322           47131                          SSP      RTB
000187: 26,2323           03325                                   POSEXIT
000188: 26,2324           54402                                   P62.3                                 #  CALCULATE DESIRED .05G GIMBAL ANGLES.
000189:                                                                                                 #  (Garbled --- RSB 2004).
000190: 26,2325           41645                                   CM/DAPIC                              #  START CM/POSE AND BODY RATE CALC
000191:
000192:                                                                                                 #  (Garbled --- RSB 2004).
000193:                                                                                                 #  CM/DAPIC SETS EBANK = EBAOG
000194:                                                                                                 #  AND RETURNS IN BASIC TO P62.2.
000195: 26,2326           00006        P62.2             EXTEND
000196: 26,2327           32431                          DCA      POSECADR                              #  CONTINUE WITH CM/POSE AFTER AV G.
000197: 26,2330           53223                          DXCH     AVEGEXIT
000198:
000199: 26,2331           34270                          CAF      OCT41                                 #  REQUEST SEPARATION
000200: 26,2332           04555                          TC       BANKCALL
000201: 26,2333           21031                          CADR     GOPERF1R
000202: 26,2334           04106                          TC       GOTOP00H
000203: 26,2335           02340                          TC       +3                                    #  PROCEED
000204:                                                                                                 #  Page 751
000205:                                                                                                 #  NOTE:  NODOFLAG WILL BE SET IN CM/DAPON. ***
000206: 26,2336           02331                          TC       -5                                    #  ENTER
000207: 26,2337           02232                          TC       P61.3                                 #  FOR PHASCHNG AND ENDOFJOB
000208:
000209: 26,2340           04574        (?)               TC       POSTJUMP
000210: 26,2341           41565                          CADR     CM/DAPON                              #  DISABLE RCS DAP, ENABLE ENTRY DAP AND
000211:                                                                                                 #  DO ATTITUDE HOLD.
000212:
000213:                                                                                                 #  WILL IDLE UNTIL CM/POSE DOES ONE UPDATE.
000214:                                                                                                 #  CM/DAPON DOES NO PHASCHNG.
000215:
000216: 26,2342           32424        P62.1             CA       V06N61                                #  LAT(SPL)       LNG(SPL)        HEADSUP
000217:                                                                                                 #  XXX.XX DEG     XXX.XX DEG      0000X.
000218:
000219:                                                                                                 #  TERMINATE ATTITUDE HOLD.  SET UP COMMANDS:
000220:                                                                                                 #  ROLLC, ALFACOM, BETACOM.  BEGIN MANEUVER TO
000221:                                                                                                 #  ENTRY ATTITUDE.
000222:
000223: 26,2343           04555                          TC       BANKCALL
000224: 26,2344           20624                          CADR     GOFLASH
000225: 26,2345           02342                          TC       -3
000226: 26,2346           02350                          TC       +2
000227: 26,2347           02342                          TC       -5
000228:
000229: 26,2350           05301                          TC       PHASCHNG
000230: 26,2351           04024                          OCT      04024                                 #  USE ENTRYVN FOR DISPLAY BELOW.
000231:                                                                                                 #  EBANK WAS SET IN CM/DAPON TO EBAOG
000232:
000233: 26,2352           11726                          CCS      HEADSUP                               #  C(HEADSUP) = +/- 1
000234: 26,2353           34675                          CA       BIT14                                 #  IF HEADSUP POS, ROLLC=180 DEG (LIFT DWN)
000235: 26,2354           12355                          NOOP                                           #  IF HEADSUP NEG, ROLLC=0 DEG (LIFT UP)
000236: 26,2355           55715                          TS       ROLLC
000237: 26,2356           31411                          CA       ALFAPAD                               #  NOMINAL ALFATRIM PAD LOADED, NEG. NO.
000238: 26,2357           22007                          ZL
000239: 26,2360           53604                          DXCH     ALFACOM                               #  SET ALFACOM = ALFA TRIM, BETACOM=0
000240:
000241: 26,2361           34712                          CA       ONE                                   #  PERMITS EXDAP2 TO CHANGE FLAG TO +0
000242: 26,2362           55727                          TS       P63FLAG                               #  AS INDICATOR.  STARTS UP P63.
000243:
000244: 26,2363           34745                          CA       V06N22                                #  SET UP DISPLAY FOR CDU DESIRED VALUES
000245: 26,2364           55263                          TS       ENTRYVN                               #  FROM ENTRY ATTITUDE CALC, THAT IS
000246:                                                                                                 #  ALREADY GOING.
000247: 26,2365           05435                          TC       UPFLAG                                #  TURN ON ENTRY DISPLAY
000248: 26,2366           00134                          ADRES    ENTRYDSP                              #  ENTRYDSP = 92D BIT 13 FLAG 6
000249: 26,2367                        SKIP
000250:                                                                                                 #  Page 752
000251: 26,2367           41700                          CS       CMDAPMOD                              #  GO DIRECTLY TO P63 IF BODY ATTITUDE
000252: 26,2370           74712                          MASK     ONE                                   #  IS SUCH THAT THE DELAY TASK: WAKEP62
000253: 26,2371           00006                          EXTEND                                         #  WILL BE OMITTED.
000254: 26,2372           12420                          BZF      P63.1                                 #  DISABLE GRP 4, GO TO ENDOFJOB.
000255:                                                                                                 #  (I.E., CONTINUE IF CMDAPMOD = -1, OR +0)
000256: 26,2373           02406                          TC       P63
000257:
000258:                                                                                                 #  PUT JOB TO SLEEP UNTIL VEHICLE MANEUVER HAS
000259:                                                                                                 #  REDUCED ALFA TO +/-45 DEG. CONSIDER REMAINING
000260:                                                                                                 #  65 DEG (25 DEG IF ALFA NEG) TO ALFA TRIM TO
000261:                                                                                                 #  OCCUR AT 3 DEG/SEC, AND TERMINATE P62 AT THAT
000262:                                                                                                 #  TIME.
000263:
000264:                                                                                                 #  TASK WAKEP62 IS CALLED FROM ENTRY DAP.
000265: 26,2374           34760        WAKEP62           CA       PRIO13
000266: 26,2375           05027                          TC       NOVAC
000267: 26,2376  E6,1661                                 EBANK=   AOG
000268: 26,2376           02406 54066                    2CADR    P63
000269:
000270: 26,2400           05213                          TC       TASKOVER
000271:
000272: 26,2401           54402        P62.3CAD          CADR     P62.3
000273:
000274:                                                                                                 #  EACH 2 SEC, CALCULATE GIMBAL ANGLES FOR ENTRY CON-
000275:                                                                                                 #  DITIONS THAT WILL HOLD IF REORIENTATION WERE MADE
000276:                                                                                                 #  AT PRESENT RN, VN.  COME HERE FROM CM/POSE AND ALSO
000277:                                                                                                 #  IN KEPLER PHASE OF ENTRY.
000278:
000279: 26,2402           52131        P62.3             SSP      GOTO                                  #  SET RETURN ADDRESS SO THAT ROUTINE
000280: 26,2403           00053                                   QPRET                                 #  GOES DIRECTLY TO ENTRY GUIDANCE EXIT
000281: 26,2404           53570                                   ENDEXIT                               #  THAT DOES ENTRY DISPLAY, GRP 5.
000282: 26,2405           20302                                   S62.3                                 #  PUT DESIRED CDU VALUES IN CPHI=5 FOR
000283:                                                                                                 #  N22 DISPLAY.
000284:
000285:                                                                                                 #  Page 753
000286:                                                                                                 #  PROGRAM:       P63
000287:                                                                                                 #  MOD NO:        0       MAR. 13, 1967
000288:                                                                                                 #  MOD BY:        R. HIRSCHKOP
000289:                                                                                                 #  MOD NO: 1      MOD BY: RR BAIRNSFATHER         DATE: 22 JUN 67         RESTARTS
000290:                                                                                                 #  MOD NO: 2      MOD BY: RR BAIRNSFATHER         DATE: 14 JUL 67         REVISED RESTARTS
000291:                                                                                                 #  FUNCTION:      1) TO INITIALIZE THE ENTRY EQUATIONS.
000292:                                                                                                 #                 2) TO CONTINUE TO HOLD THE CM TO THE CORRECT ATTITUDE WITH RESPECT TO THE ATMOSPHERE FOR
000293:                                                                                                 #                    THE ONSET OF ENTRY DECELERATION.  ROLL ANGLE IS LIFT UP/DOWN AS SPECIFIED BY HEADSUP.
000294:                                                                                                 #                 3) TO SENSE .05G.
000295:                                                                                                 #  CALLING SEQUENCE:  DIRECTLY FROM P62
000296:                                                                                                 #  EXIT:          TO ENDOFJOB
000297:                                                                                                 #  SUBROUTINE CALLS:  NEWMODEX, GODSPR
000298:
000299: 26,2406                                          COUNT*   $$/P63
000300:
000301: 26,2406           05243        P63               TC       NEWMODEX
000302: 26,2407           00077                          MM       63         B-14
000303:
000304: 26,2410           04555                          TC       BANKCALL                              #  FLUSH N22 DISPLAY, IF ON.  (ONIT DISP
000305: 26,2411           20607                          CADR     CLEANDSP                              #  DURING STATEMENT PASS.)
000306:
000307:                                                                                                 #  ARRIVE WITH EBANK = AOG.
000308:
000309: 26,2412           32427                          CA       ENTCADR                               #  CONTINUE AT STARTENT AFTER CM/POSE.
000310:
000311:                                                                                                 #  AT END OF STATEMENT, CHANGE ADDRESS IN GOTOADDR
000312:                                                                                                 #  TO CONTINUE AT SCALEPOP THEREAFTER.
000313:
000314: 26,2413           55724                          TS       POSEXIT
000315:
000316: 26,2414           32426                          CA       V06N64                                #  G              VI              R TO SPLSH
000317:                                                                                                 #  XXX.XX G       XXXX. FPS       XXXX.X NM
000318: 26,2415           55263                          TS       ENTRYVN                               #  FOR DISPLAY CALL IN OVERNOUT
000319:
000320: 26,2416           44712                          CS       ONE                                   #  IN CASE FLAG IS LEFT AT +1 BY DAP.  THE
000321: 26,2417           55727                          TS       P63FLAG                               #  -1 ASSURES THAT EXO-ATM DAP WILL NOT
000322:                                                                                                 #  CALL P63 OUT OF SEQUENCE IN P66.
000323:
000324: 26,2420           05301        P63.1             TC       PHASCHNG
000325: 26,2421           00004                          OCT      00004                                 #  DISABLE.  DISPLAY RESTARTED VIA ENTRY.
000326:
000327: 26,2422           05112                          TC       ENDOFJOB
000328:
000329: 26,2423           01474        V06N60            VN       0660
000330: 26,2424           01475        V06N61            VN       0661
000331: 26,2425           01477        V06N63            VN       0663
000332: 26,2426           01500        V06N64            VN       0664
000333: 26,2427           52000        ENTCADR           CADR     STARTENT
000334:
000335:                                                                                                 #  Page 754
000336: 26,2430  E7,1451                                 EBANK=   RTINIT                                #  TO CARRY OVER INTO ENTRY STEERING.
000337: 26,2430           03373 76067  POSECADR          2CADR    CM/POSE
000338:
000339:                                                                                                 #  Page 755
000340:                                                                                                 #  PROGRAM:       P64
000341:                                                                                                 #  MOD NO:        1       SEPT. 19, 1967
000342:                                                                                                 #  MOD BY:        R. HIRSCHKOP
000343:                                                                                                 #  MOD NO: 2      MOD BY: RR BAIRNSFATHER         DATE: 8 MAY 68          REVISED COMMENTS FOR COLOSSUS
000344:                                                                                                 #  FUNCTION:      1.  TO START ENTRY GUIDANCE AT .05G SELECTING ROLL ATTITUDE, CONSTANT DRAG LEVEL, AND
000345:                                                                                                 #                     DRAG THRESHHOLD, KA, WHICH ARE KEYED TO THE .05G POINT.
000346:                                                                                                 #                 2.  SELECT FINAL PHASE P67 IF V < 27000 FPS WHEN .2G OCCURS.
000347:                                                                                                 #                 3.  ITERATE FOR UP-CONTROL SOLUTION P65 IF V < 27000 FPS AND IF ALTITUDE RATE AND DRAG
000348:                                                                                                 #                     LEVEL CONDITIONS ARE SATISFIED.  ENTER P65 WHEN CONSTANT DRAG CONTROLLER HAS BROUGHT RANGE
000349:                                                                                                 #                     AS PREDICTED TO WITHIN 25 NM OF DESIRED RANGE.
000350:                                                                                                 #                 4.  SELECT FINAL PHASE P67(?) IF NO UP-CONTROL SOLUTION EXISTS WITH VL > 18000(?) FPS.
000351:                                                                                                 #  CALLING SEQUENCE:  BY RTB FROM REENTRY CONTROL
000352:                                                                                                 #  EXIT:          BACK TO REENTRY CONTROL.
000353:                                                                                                 #  SUBROUTINE CALLS:  NEWMODEX
000354:
000355: 25,2000                                          BANK     25
000356: 26,2000                                          SETLOC   P60S1
000357: 26,2000                                          BANK
000358:
000359:                                                                                                 #  THIS DISPLAY IS CALLED EACH PASS THROUGH STEERING.  RESTART PROTECTION IS VIA STEERING.
000360: 26,2432                                          COUNT*   $$/P64
000361:
000362: 26,2432           05243        P64               TC       NEWMODEX                              #  ENTER VIA RTB WHEN .05G IS EXCEEDED.
000363: 26,2433           00100                          MM       64         B-14
000364: 26,2434           32437                          CA       V06N68                                #  ROLLC          VI              HDOT
000365:                                                                                                 #  XXX.XX DEG     XXXXX. FPS      XXXXX. FPS
000366: 26,2435           55263                          TS       ENTRYVN                               #  DISPLAY VIA OVERNOUT.
000367:
000368: 26,2436           06030                          TC       DANZIG                                #  ... AND CONTINUE IN INITROLL ...
000369: 26,2437           01504        V06N68            VN       0668
000370:
000371:                                                                                                 #  Page 756
000372:                                                                                                 #  PROGRAM:       P65
000373:                                                                                                 #  MOD NO:  0     MOD BY:  RR BAIRNSFATHER        DATE:  17 JAN 68        COLOSSUS GSOP ADDITION.
000374:                                                                                                 #  FUNCTION:      TO CONTINUE ENTRY GUIDANCE, USING THE UP-CONTROL PHASE TO STEER TO A CONTROLLED EXIT
000375:                                                                                                 #                 CONDITION.  THIS PHASE TERMINATES  A) IF D < Q7 FPSS, GOTO TO P66.
000376:                                                                                                 #                                                    B) IF RDOT NEG, AND IF V < VL +500 FPS, GO TO P67.
000377:                                                                                                 #  CALLING SEQUENCE:  BY RTB FROM REENTRY CONTROL
000378:                                                                                                 #  EXIT:          BACK TO REENTRY CONTROL, OR TO ENDOFJOB.
000379:                                                                                                 #  SUBROUTINE CALLS:  NEWMODEX
000380:
000381: 26,2440                                          COUNT*   $$/P65
000382:
000383: 26,2440           05243        P65               TC       NEWMODEX                              #  ENTER VIA RTB WHEN RANGE < 25 N M OF
000384: 26,2441           00101                          MM       65         B-14                       #  TARGET.
000385:
000386: 26,2442           34760                          CA       PRIO13
000387: 26,2443           05027                          TC       NOVAC
000388: 26,2444     1263                                 EBANK=   ENTRYVN
000389: 26,2444           02456 54062                    2CADR    P65.1
000390:
000391: 26,2446           05261                          TC       2PHSCHNG                              #  2 PHASE CHG REQUIRED TO PREVENT RE-
000392: 26,2447           00554                          OCT      00554                                 #  STARTING FLASHING DISPLAY TWICE.
000393: 26,2450           10035                          OCT      10035                                 #  4.55 SPOT AND SERVICER, HERE.
000394: 26,2451           06006                          TC       INTPRET
000395: 26,2452           47131                          SSP      RTB
000396: 26,2453           03646                                   GOTOADDR                              #  CHANGE ENTRY MODE TO UPCONTRL.
000397: 26,2454           53027                                   UPCONTRL
000398: 26,2455           52120                                   REFAZE10                              #  GO HERE TO REESTABLISH ENTRY SEQUENCER.
000399:                                                                                                 #  AND CONTINUE AT UPCONTRL...
000400:
000401: 26,2456           05447        P65.1             TC       DOWNFLAG
000402: 26,2457           00134                          ADRES    ENTRYDSP                              #  ENTRYDSP = 92D BIT 13 FLAG 6
000403:
000404: 26,2460           32472                          CA       V16N69                                #  ROLLC          DL (Q7)         VL
000405: 26,2461           04555                          TC       BANKCALL                              #  XXX.XX DEG     XXX.XX G        XXXXX. FPS
000406: 26,2462           20763                          CADR     GOFLASHR
000407: 26,2463           02460                          TC       -3                                    #  NODOFLAG IS SET ...
000408: 26,2464           02467                          TC       +3
000409: 26,2465           02460                          TC       -5
000410: 26,2466           02232                          TC       P61.3                                 #  EST. GRP 4 FOR DISPLAY AND DO ENDOFJOB
000411:                                                                                                 #  IF PROCEED, CONTINUE
000412: 26,2467           05435                          TC       UPFLAG
000413: 26,2470           00134                          ADRES    ENTRYDSP                              #  ENTRYDSP = 92D BIT 13 FLAG 6
000414:
000415: 26,2471           02420                          TC       P63.1                                 #  DISABLE GRP 4, START UP ENTRY DISPLAY
000416:                                                                                                 #  N06V68 VIA OVERNOUT, AS USED IN P64
000417: 26,2472           04105        V16N69            VN       1669
000418:
000419:                                                                                                 #  Page 757
000420:                                                                                                 #  PROGRAM:       P66
000421:                                                                                                 #  MOD NO: 0      MOD BY: RR BAIRNSFATHER         DATE: 17 JAN 68         COLOSSUS GSOP ADDITIONS
000422:                                                                                                 #  FUNCTION:      KEEP CM ATTITUDE IN TRIM TO THE RELATIVE VELOCITY VECTOR.  ENTRY GUIDANCE STOPS GENERATING
000423:                                                                                                 #                 ROLL COMMANDS UNTIL DRAG BUILDS UP TO Q7+0.5 FPSS.
000424:                                                                                                 #  CALLING SEQUENCE:  VIA RTB FROM REENTRY CONTROL.
000425:                                                                                                 #  EXIT:          BACK TO REENTRY CONTROL.
000426:                                                                                                 #  SUBROUTINE CALLS:  NEWMODEX
000427:
000428: 26,2473                                          COUNT*   $$/P66
000429:
000430: 26,2473           05243        P66               TC       NEWMODEX                              #  ENTER VIA RTB WHEN D < Q7 FPSS
000431: 26,2474           00102                          MM       66         B-14
000432:
000433: 26,2475           34745                          CA       V06N22                                #  OGA            IGA             MGA
000434:                                                                                                 #  XXX.XX DEG     XXX.XX DEG      XXX.XX DEG
000435: 26,2476           02502                          TC       P66END                                #  IN CASE CAME FROM P65, GO TO DISABLE GRP 4,
000436:                                                                                                 #  AND SET ENTRYDSP TO DO DISPLAY VIA
000437:                                                                                                 #  OVERNOUT.
000438:
000439:                                                                                                 #  ... AND CONTINUE AT KEP2
000440:
000441:                                                                                                 #  Page 758
000442:                                                                                                 #  PROGRAM:       P67
000443:                                                                                                 #  MOD NO:        0       MAR. 16, 1967
000444:                                                                                                 #  MOD BY:        R. HIRSCHKOP
000445:                                                                                                 #  FUNCTION:      TO TERMINATE STEERING WHEN THE CM VELOCITY WRT EARTH = 1000 FT/SEC
000446:                                                                                                 #  CALLING SEQUENCE:  (Nothing here, sorry. --- RSB 2004)
000447:                                                                                                 #  EXIT:          TO P00H
000448:                                                                                                 #  SUBROUTINE CALLS:  GOFLASH
000449:
000450:                                                                                                 #  THIS DISPLAY IS CALLED EACH PASS THROUGH STEERING.  RESTART PROTECTION IS VIA STEERING.
000451:
000452: 26,2477                                          COUNT*   $$/P67
000453:
000454: 26,2477           05243        P67               TC       NEWMODEX                              #  ENTER VIA RTB
000455: 26,2500           00103                          MM       67         B-14
000456: 26,2501           32510                          CA       V06N66                                #  ROLLC          XRNGERR         DNRNGERR
000457:                                                                                                 #  XXX.XX DEG     XXXX.X NM       XXXX.X NM
000458: 26,2502           55263        P66END            TS       ENTRYVN                               #  DISPLAY VIA OVERNOUT.
000459:
000460: 26,2503           05435                          TC       UPFLAG                                #  (IN CASE CAME FROM P65.  ENTRY DISPLAY
000461: 26,2504           00134                          ADRES    ENTRYDSP                              #  WILL FLUSH FLASHING DISP.  IF STILL ON)
000462:                                                                                                 #  BIT 13 FLAG 6
000463: 26,2505           05301        KILLGRP4          TC       PHASCHNG                              #  DISABLE GRP4, IN CASE CAME FROM HUNTEST.
000464: 26,2506           00004                          OCT      00004                                 #  (COME TO KILLGRP4 VIA RTB, RET TO CALLER)
000465:
000466: 26,2507           06030                          TC       DANZIG                                #  ... AND CONTINUE AT PREDICT3 ...
000467:
000468: 26,2510           01502        V06N66            VN       0666
000469:
000470: 26,2511                                          BANK     26
000471: 26,2000                                          SETLOC   P60S2
000472: 26,2000                                          BANK
000473:
000474: 26,2511           32542        P67.1             CA       V16N67                                #  RTOGO          LAT             LONG
000475:                                                                                                 #  XXXX.X NM      XXX.XX DEG      XXX.XX DEG
000476: 26,2512           04555                          TC       BANKCALL
000477: 26,2513           20624                          CADR     GOFLASH
000478: 26,2514           02517                          TC       +3                                    #  EFFECTIVE GOTOP00H
000479: 26,2515           02517                          TC       +2
000480: 26,2516           02511                          TC       P67.1                                 #  REDO
000481:
000482: 26,2517           46214                          CS       THREE                                 #  TURN OFF ENTRY DAP
000483: 26,2520           00004                          INHINT
000484: 26,2521           70102                          MASK     CM/FLAGS                              #  CM/DSTBY, GAMDIFSW
000485: 26,2522           54102                          TS       CM/FLAGS
000486: 26,2523           00003                          RELINT
000487: 26,2524           00006                          EXTEND
000488: 26,2525           32642                          DCA      SERVCAD2
000489:
000490:                                                                                                 #  Page 759
000491: 26,2526           53223                          DXCH     AVEGEXIT
000492: 26,2527           14106                          TCF      GOTOP00H
000493:
000494:                                                                                                 #  Page 760
000495: 26,2530           43175        P67.2             VLOAD    CLEAR                                 #  CALC PRESENT LAT, LONG, ALT.
000496: 26,2531           01171                                   RN
000497: 26,2532           00662                                   ERADFLAG                              #  USE PAD RAD FOR ALT. (NOT SEEN ANYWAY)
000498: 26,2533           16152                          STODL    ALPHAV
000499: 26,2534           01205                                   PIPTIME                               #  USE TIME OF RN
000500: 26,2535           45014                          CLEAR    CALL
000501: 26,2536           01663                                   LUNAFLAG
000502: 26,2537           26322                                   LAT-LONG
000503: 26,2540           77634        P67.3             RTB                                            #  ENTRY EXIT THAT OMITS DISPLAY.
000504: 26,2541           53603                                   SERVNOUT
000505:
000506: 26,2542           04103        V16N67            VN       1667
000507: 26,2543     4270               OCT41             =        33DEC
000508: 26,2543  26,2641               SERVCAD2          =        SERVCAD1
000509:
000510:                                                                                                 #  Page 761
000511:                                                                                                 #  SUBROUTINE NAME:       S61.1
000512:                                                                                                 #  MOD NO:        0                                       DATE:           21 FEB 67
000513:                                                                                                 #  MOD BY:        RR BAIRNSFATHER                         LOG SECTION:    P61-P67
000514:                                                                                                 #  MOD NO:        1       MOD BY: RR BAIRNSFATHER         DATE:           22 JUN 67       RESTARTS.
000515:
000516:                                                                                                 #  FUNCTIONAL DESCRIPTION:
000517:                                                                                                 #         FIRST, TEST TO SEE IF AVERAGEG IS ON.  IF NOT, UPDATE THE STATE VECTOR TO PRESENT TIME + TOLERANCE
000518:                                                                                                 #         AND TURN ON AVERAGEG AT THAT TIME, AND CONTINUE.  OTHERWISE CONTINUE:  SEE IF IMU Y AXIS IS
000519:                                                                                                 #         WITHIN 30 DEG OF VAR.  IF YES, EXIT SUBROUTINE S61.1.  IF SO, SEE IF -Y AXIS OF IMU IS WITHIN
000520:                                                                                                 #         30 DEG OF VAR.  IF YES, DISPLAY ALARM:  01427   IMU REVERSED.
000521:                                                                                                 #                         IF NO, DISPLAY ALARM:   01426   IMU UNSATISFACTORY.
000522:                                                                                                 #         IN EITHER OF THESE LAST 2 CASES, WAIT 10 SEC AND THEN EXIT SUBROUTINE S61.1.
000523:
000524:                                                                                                 #  REMARK:        THERE WILL BE A SHORT 10 SEC DELAY IF AN ALARM EXIT IS TAKEN.  THE DELAY FOR INTEGRATION IS
000525:                                                                                                 #                 AS SHORT AS CAN BE MADE, BUT IS ARBITRARY SINCE IT DEPENDS ON THE AGE OF THE STATE VECTOR.
000526:
000527:                                                                                                 #  CALLING SEQUENCE:      CALL
000528:                                                                                                 #                                 S61.1
000529:
000530:                                                                                                 #                         C(MPAC) UNSPECIFIED
000531:                                                                                                 #                         PUSHLOC UNSPECIFIED
000532:
000533:                                                                                                 #  SUBROUTINES CALLED:    LOADTIME, CSMPREC, TPAGTREE,
000534:                                                                                                 #                         WAITLIST, JOBSLEEP, JOBWAKE, PREREAD, ALARM, GODSPR, BANKCALL, DELAYJOB
000535:
000536:                                                                                                 #  NORMAL EXIT MODES:     RVQ
000537:
000538:                                                                                                 #  ALARMS:        01426   IMU UNSATISFACTORY
000539:                                                                                                 #                 01427   IMU REVERSED
000540:
000541:                                                                                                 #  OUTPUT:        POSSIBLE ALARMS
000542:                                                                                                 #                 POSSIBLY TDEC1, RATT, VATT, RN, VN
000543:
000544:                                                                                                 #  ERASABLE INITIALIZATION REQUIRED:
000545:                                                                                                 #         AVEGFLAG                AVERAGEG ON OR OFF                              LEFT BY SERVICER
000546:                                                                                                 #         PIPTIME   (-26) CS      TIME OF PIPA UPDATE                             LEFT BY READACCS
000547:                                                                                                 #         RN        (-29) M       STATE VECTOR                                    LEFT BY AVERAGEG
000548:                                                                                                 #         VN        (-7) M/CS     STATE VECTOR                                    LEFT BY AVERAGEG
000549:                                                                                                 #         REFSMMAT  (-1)          .5 REF TO SM MATRIX                             LEFT BY LAST IMU ALIGNMENT
000550:
000551:                                                                                                 #  DEBRIS:        QPRET
000552:                                                                                                 #                 POSSIBLY PIPTIME1, RATT, VATT, TDEC1, RN1, VN1, QTEMP, X1       IF UPDATED
000553:                                                                                                 #                 PUSH LIST LOCS USED BY CSMPREC
000554:
000555: 26,2543  E6,1661                                 EBANK=   AOG                                   #  FOR 60GENRET, S61DT
000556: 26,2543                                          BANK     26
000557: 26,2000                                          SETLOC   P60S3
000558: 26,2000                                          BANK
000559:
000560: 26,2543                                          COUNT*   $$/S61.1
000561:
000562: 26,2543           00006        S61.1             EXTEND
000563: 26,2544           23773                          QXCH     60GENRET                              #  SAVE RET ADDR IN EB 6
000564: 26,2545           04555                          TC       BANKCALL
000565: 26,2546           17573                          CADR     R02BOTH
000566: 26,2547           06006                          TC       INTPRET
000567:                                                                                                 #  Page 762
000568: 26,2550           45014                          BON      CALRB
000569: 26,2551           00716                                   AVEGFLAG                              #  IS AVERAGEG ON
000570: 26,2552           54603                                   S61.1A                                #  YES
000571: 26,2553           27573                                   MIDTOAV2                              #  GET FUTURE STATE VECTOR SOON AS CAN
000572:
000573: 26,2554           30155                          CA       MPAC       +1                         #  RETURN INHINTED ***
000574: 26,2555           55774                          TS       S61DT                                 #  FOR RESTART.
000575: 26,2556           05140                          TC       WAITLIST
000576: 26,2557  E7,1431                                 EBANK=   DVCNTR
000577: 26,2557           02564 54067                    2CADR    S61.1C
000578:
000579: 26,2561           05301                          TC       PHASCHNG
000580: 26,2562           40434                          OCT      40434
000581: 26,2563           05112                          TC       ENDOFJOB
000582:
000583: 26,2564           34760        S61.1C            CA       PRIO13
000584: 26,2565           05042                          TC       FINDVAC
000585: 26,2566  E6,1661                                 EBANK=   AOG
000586: 26,2566           02602 54066                    2CADR    S61.1A     -1
000587:
000588: 26,2570           00006                          EXTEND
000589: 26,2571           32642                          DCA      SERVCAD1                              #  HE WHO START AVERAGEG MUST SERVICE
000590: 26,2572           53223                          DXCH     AVEGEXIT                              #  THE EXIT.
000591:
000592: 26,2573           05261                          TC       2PHSCHNG
000593: 26,2574           00454                          OCT      00454
000594: 26,2575           00415                          OCT      00415
000595:
000596: 26,2576           34753                          CA       EBENTRY                               #  SET EB= 7 FOR PREREAD.
000597: 26,2577           54003                          TS       EBANK
000598:
000599: 26,2600           04574                          TC       POSTJUMP
000600: 26,2601           76604                          CADR     PREREAD                               #  PREREAD DOES TC TASKOVER.
000601:
000602: 26,2602           06006                          TC       INTPRET
000603: 26,2603           77204        S61.1A            BOVB     VLOAD
000604: 26,2604           57343                                   TCDANZIG                              #  TURN OFF OVFIND, IF ON
000605: 26,2605           01177                                   VN                                    #  VN     (-7) M/CS
000606: 26,2606           64235                          VXV      MXV
000607: 26,2607           01171                                   RN                                    #  RN     (-29) M
000608: 26,2610           01736                                   REFSMMAT                              #  .5 UNIT MATRIX
000609: 26,2611           71256                          UNIT     DLOAD
000610: 26,2612           00160                                   MPAC       +3                         #  GET COS(THETA)/2
000611: 26,2613           43240                          BMN      DAD
000612: 26,2614           54621                                   S61.1B                                #  DO TEST ON -YSM
000613: 26,2615           14644                                   C(30)LIM                              #  = 1.0 -.5 COS(30)
000614: 26,2616           47004                          BOVB     RTB
000615: 26,2617           54640                                   RETRN1
000616: 26,2620           54625                                   RETRN3
000617:                                                                                                 #  Page 763
000618: 26,2621           43276        S61.1B            DCOMP    DAD
000619: 26,2622           14644                                   C(30)LIM                              #  = 1.0 - .5 COS(30)
000620: 26,2623           77404                          BOVB     EXIT
000621: 26,2624           54630                                   RETRN2
000622:
000623: 26,2625           05537        RETRN3            TC       ALARM
000624: 26,2626           01426                          OCT      01426                                 #  IMU UNSATISFACTORY
000625: 26,2627           02632                          TC       RETRN2     +2
000626:
000627: 26,2630           05537        RETRN2            TC       ALARM
000628: 26,2631           01427                          OCT      01427                                 #  IMU REVERSED
000629:
000630: 26,2632           34743                 +2       CAF      V05N09
000631: 26,2633           04555                          TC       BANKCALL
000632: 26,2634           20602                          CADR     GODSPR                                #  DO DISPLAY
000633: 26,2635           32645                          CA       10SECS
000634: 26,2636           04555                          TC       BANKCALL
000635: 26,2637           01732                          CADR     DELAYJOB
000636:
000637: 26,2640           01773        RETRN1            TC       60GENRET
000638:
000639: 26,2641  E7,1431                                 EBANK=   DVCNTR
000640: 26,2641           03132 76067  SERVCAD1          2CADR    SERVEXIT
000641: 26,2643           22111 17335  C(30)LIM          2DEC     .566985                               #  = 1.0 - .5 COS(30)
000642: 26,2645           01750        10SECS            DEC      1000       B-14                       #  1000 CS
000643: 26,2646           00000 13560  60SECDP           2DEC     6000       B-28                       #  6000 CS
000644:
000645:                                                                                                 #  Page 764
000646:                                                                                                 #  PROGRAM NAME:          S61.2                   DATE:           14 FEB 67
000647:                                                                                                 #  MOD NO:        1                               LOG SECTION:    P61-P67
000648:                                                                                                 #  MOD BY:        NORTH / BAIRNSFATHER
000649:                                                                                                 #  MOD NO: 2      MOD BY: NORTH/BAIRNSFATHER      DATE: 11 MAY 67         ADD 2ND ITER FOR ERAD AT 400K FT.
000650:                                                                                                 #  MOD NO: 3      MOD BY: RR BAIRNSFATHER         DATE: 21 NOV 67         VARIABLE MU ADDED.
000651:                                                                                                 #  MOD NO: 4      MOD BY: RR BAIRNSFATHER         DATE: 21 MAR 68         DIFFERENT EARTH/MOON SCALES IN TFF'S
000652:
000653:                                                                                                 #  FUNCTIONAL DESCRIPTION:  CALLED IN P61.  PROVIDES DISPLAYS FOR NOUNS N60 AND N63.
000654:                                                                                                 #         PROGRAM CALCULATES ENTRY DISPLAY OF MAXIMUM ACCELERATION EXPECTED (GMAX) AND ALSO THE EXPECTED
000655:                                                                                                 #         INERTIAL VELOCITY (VPRED) AND ENTRY ANGLE (GAMMABI) THAT WILL OBTAIN AT 400K FT ABOVE THE FISCHER
000656:                                                                                                 #         ELLIPSOID.  PROGRAM ALSO CALCULATES A SECOND DISPLAY RELATIVE TO THE EMSALT ABOVE FISCHER ELLIPSOID
000657:                                                                                                 #         AND CONSISTS OF RANGE TO SPLASH FOM NOW (RTGO), PREDICTED INERTIAL VELOCITY (VIO), AND THE TIME TO
000658:                                                                                                 #         GO FROM NOW (TTE).
000659:
000660:                                                                                                 #  CALLING SEQUENCE:      CALL
000661:                                                                                                 #                                 S61.2
000662:                                                                                                 #                         C(MPAC) UNSPECIFIED
000663:                                                                                                 #                         PUSHLOC WILL BE SET TO ZERO.
000664:
000665:                                                                                                 #  SUBROUTINES CALLED:    TFFCONIC, CALCTFF, TFF/TRIG, FISHCALC, GETERAD, VGAMCALC
000666:
000667:                                                                                                 #  NORMAL EXIT MODES:     RTB, P61.1
000668:
000669:                                                                                                 #  ALARMS:        NONE
000670:
000671:                                                                                                 #  OUTPUT:        THE FOLLOWING REGISTERS ARE WRITTEN IN FOR USE BY DISPLAYS
000672:                                                                                                 #                 GMAX    100 GMAX (-14) G,S      MAXIMUM ACCELERATION
000673:                                                                                                 #                 VPRED   (-7) M/CS               PREDICTED VELOCITY AT 400K FT
000674:                                                                                                 #                 GAMMAEI GAMMA/360               PREDICTED GAMMA    AT 400K FT
000675:                                                                                                 #                                                 FOR TM, DP(GAMMAEI) = (GAMMAEI, RTGO) / 360
000676:                                                                                                 #                 RTGO    THETAH/360              RANGE ANGLE TO SPLASH FROM EMSALT       EMSALT IS PAD LOADED.
000677:                                                                                                 #                 VIO     (-7) M/CS               INTERTIAL VELOCITY AT      EMSALT       EMSALT IS PAD LOADED.
000678:                                                                                                 #                 TTE     (-28) CS                TIME TO                    EMSALT       EMSALT IS PAD LOADED.
000679:                                                                                                 #                 PUSHLOC = 0
000680:                                                                                                 #                 CONIC PARAMETERS STORED IN VAC AREA (SEE TFF SUBROUTINES)
000681:
000682:                                                                                                 #  ERASABLE INITIALIZATION REQUIRED:
000683:                                                                                                 #                 RONE    (-29) M                 STATE VECTOR                            LEFT BY USER
000684:                                                                                                 #                 VONE    (-7) M/CS               STATE VECTOR                            LEFT BY USER
000685:                                                                                                 #                 URONE   UR/2                                                            LEFT BY USER
000686:                                                                                                 #                 UNI     (-1)                    UNIT NORMAL V*R                         LEFT BY ENTRY / P61
000687:                                                                                                 #                 THETAH  THETAH/360              RANGE ANGLE                             LEFT BY ENTRY / P61
000688:                                                                                                 #                 UNITW   (0)                     UNIT POLAR VECTOR                       LEFT BY PAD LOAD
000689:                                                                                                 #                 EMSALT  (-29) M                 EMS INTERFACE ALTITUDE                  LEFT BY PAD LOAD
000690:                                                                                                 #                                                 ORBITAL REENTRY: 284843 FT., LUNAR REENTRY: 297431 FT.
000691:
000692:                                                                                                 #  DEBRIS:        QPRET,
000693:                                                                                                 #                 ALL PDL LOCATIONS ABOVE 12D, INCLUDING X1,X2,S1,S2
000694:                                                                                                 #                 ALSO PDL+0 ... PDL+5, WHERE INITIAL PUSHLOC = PDL
000695:
000696:                                                                                                 #  Page 765
000697:                                                                                                 #  THE FOLLOWING PUSH LIST LOCATIONS HAVE BEEN RESERVED FOR TFF ROUTINES AND ARE REPEATED HERE FOR CONVENIENCE.
000698:                                                                                                 #  OF COURSE FOR S61.2 USAGE, EARTH ORIGIN SCALING IS USED.
000699:
000700:                                                                                                 #                                 BELOW   E:  IS USED FOR EARTH ORIGIN SCALE
000701:                                                                                                 #                                         M:  IS USED FOR MOON ORIGIN SCALE
000702:
000703:                                                                                                 #         RTERM   =       18D             TERMINAL RADIUS M       E:  (-29)       M:  (-27)
000704:                                                                                                 #         NRTERM  =       16D             TERMINAL RADIUS M       E:  (-29+NR)
000705:                                                                                                 #                                                                 M:  (-27+NR)
000706:                                                                                                 #         RMAG1   =       12D             PRESENT RADIUS M        E:  (-29)       M:  (-27)
000707:                                                                                                 #         NRMAG   =       32D             PRESENT RADIUS M        E:  (-29+NR)
000708:                                                                                                 #                                                                 M:  (-27+NR)
000709:                                                                                                 #         SDELF/2                         SIN(THETA) / 2
000710:                                                                                                 #         CDELF/2 =       14D             COS(THETA) / 2
000711:                                                                                                 #         TFFX    =       34D             X, ARGUMENT OF SERIES T(X)
000712:                                                                                                 #         TFFTEM  =       36D             ARG FOR TRANSFER ANGLE CALCULATION
000713:                                                                                                 #         TFFNP   =       28D             LC P M                  E:  (-38+2NR)   M:  (-36+2NR)
000714:                                                                                                 #         TFF/RTMU=       30D             1/SQRT(MU)              E:  (17)        M:  (14)
000715:                                                                                                 #         TFFVSQ  =       20D             -(VN.VN/MU)     1/M     E:  (20)        M:  (18)
000716:
000717:                                                                                                 #  Page 766
000718: 34,3652                                          BANK     34
000719: 26,2000                                          SETLOC   P60S2
000720: 26,2000                                          BANK
000721:
000722: 26,2650                                          COUNT*   $$/S61.2
000723:                                                                                                 #  PDL LEFT AT ZERO BY TARGETING
000724:
000725: 26,2650           45345        S61.2             DLOAD    DSU
000726: 26,2651           02020                                   EMSALT
000727: 26,2652           15000                                   290KFT
000728: 26,2653           71244                          BPL      DLOAD
000729: 26,2654           54774                                   LUNENT
000730: 26,2655           17345                                   1/RTMU                                #  ESTABLISH MU FOR ORBITAL ENTRIES
000731: 26,2656           77624        CALLCON           CALL
000732: 26,2657           56750                                   TFFCONIC                              #  FILL VAC AREA WITH CONIC PARAMETERS
000733:
000734: 26,2660           45145                          DLOAD    CALL
000735: 26,2661           15020                                   RTRIAL                                #  1ST GUESS AT TERMINAL RADIUS   (-29)
000736: 26,2662           57060                                   CALCTFF                               #  SAVES MPAC IN RTERM            (18D)
000737:
000738: 26,2663           77624                          CALL                                           #  CALC SDELF/2, CDELF/2
000739: 26,2664           56573                                   TFF/TRIG                              #  RETURN WITH S(THETA) IN MPAC
000740:
000741: 26,2665           77624                          CALL                                           #  GET FISCHER RADIUS             (-29) M
000742: 26,2666           55027                                   FISHCALC                              #  ANS IN MPAC AND IN ERADM
000743:
000744: 26,2667           45015                          DAD      CALL
000745: 26,2670           02020                                   EMSALT
000746: 26,2671           57060                                   CALCTFF                               #  SAVES MPAC IN RTERM            (18D)
000747:
000748: 26,2672           77676                          DCOMP                                          #  NEGATIVE AS IN COUNTDOWN
000749: 26,2673           03733                          STORE    TTE1                                  #  DECR TTE FROM BASB TTE1.  (RESTART)
000750:                                                                                                 #  DNLIST AND DSKY WILL USE TTE.
000751: 26,2674           37727                          STCALL   TTE                                   #  LET MISS CONTRL DECR BY ELAPSED TIME
000752:                                                                                                 #  TTE= TIME FROM NOW TO EMSALT +FISCHER
000753:
000754: 26,2675           56573                                   TFF/TRIG                              #  S(THETA) IN MPAC ON RETURNING
000755:                                                                                                 #  AND THETA= RANGE FROM NOW TO EMSALT
000756:
000757: 26,2676           77624                          CALL
000758: 26,2677           55027                                   FISHCALC
000759: 26,2700           77624                          CALL
000760: 26,2701           56626                                   VRCALC
000761: 26,2702           77624                          CALL
000762: 26,2703           56613                                   DISPTARG
000763: 26,2704           77624                          CALL
000764: 26,2705           56613                                   DISPTARG
000765: 26,2706           37714                          STCALL   RTGO
000766:                                                                                                 #  Page 767
000767: 26,2707           55050                                   VGAMCALC
000768:
000769: 26,2710           77605                          DMP                                            #  MPAC = GAMMA
000770:                                                                                                 #  PDL0 HAS VGAM.
000771: 26,2711           43265                          BDDV     DAD
000772: 26,2712           15026                                   VEMSCON                               #  -HS D 180/PI (-14)
000773: 26,2713           00001                                   0                                     #  VGAM FROM PDL0
000774: 26,2714           17725                          STODL    VIO                                   #  PREDICTED VELOCITY AT EMSALT.
000775:                                                                                                 #  GAMMA AND VGAM AT 300K FT ARE REQUIRED BY GMAX
000776:                                                                                                 #  ALGORITHM.
000777: 26,2715           02241                                   ERADM                                 #  EARTH RADIUS FROM GETERAD (-29) M
000778:                                                                                                 #  = FISCHER RADIUS (-29)
000779:
000780: 26,2716           77615                          DAD
000781: 26,2717           06462                                   300KFT                                #  M (-29)
000782: 26,2720           34023                          STCALL   RTERM                                 #  TERMINAL RADIUS M (-29)
000783: 26,2721           55045                                   PREVGAM                               #  VGAMCALC WITH NEW RTERM
000784:                                                                                                 #  VBAR = (V(FPS) - 36KF/S) / 20 F/S
000785:
000786:                                                                                                 #  GMAX = (4/(1 + 4.8 VBARSQ))(GAM - 6.05 - 2.4 VBARSQ) - 10(L/D - .3) + 10       ASSUME L/D = 0.3, BANK =0.
000787:                                                                                                 #                                         GMAXCALC
000788:
000789: 26,2722           45325                          PDDL     DSU                                   #  GAM TO PDL2
000790: 26,2723           00001                                   0                                     #  VGAM IS IN PDL0 (-7)
000791: 26,2724           15004                                   36KFT/S                               #  (-7) M/CS
000792: 26,2725           63471                          DDV      DSQ
000793: 26,2726           15006                                   20KFT/S                               #  (-6) M/CS
000794: 26,2727           00001                          STORE    0                                     #  VBARSQ (-2) TO PDL0
000795:
000796: 26,2730           43205                          DMP      DAD
000797: 26,2731           15010                                   KR1
000798:                                                                                                 #  GAM, POS DOWN, FROM PDL2
000799: 26,2732           41215                          DAD      DMP
000800: 26,2733           15012                                   -6.05DEG
000801: 26,2734           15014                                   KR2
000802: 26,2735           77725                          PDDL                                           #  XCH PDL+0 FOR VBARSQ (-2)
000803: 26,2736           43271                          DDV      DAD
000804: 26,2737           15024                                   KR4
000805: 26,2740           17357                                   DP2(-4)
000806: 26,2741           77665                          BDDV
000807:                                                                                                 #  NUM FROM PDL+0
000808: 26,2742           51015                          DAD      BPL
000809: 26,2743           15016                                   KR3
000810: 26,2744           54747                                   +3
000811: 26,2745           77745                          DLOAD
000812: 26,2746           15332                                   HI6ZEROS
000813: 26,2747           17722                          STODL    GMAX                                  #  100 GMAX (-14)
000814:                                                                                                 #  Page 768
000815:                                                                                                 #  DISPLAY USES GMAX AS SP, SO LO WORD IS WRITTEN OVER BY VPRED.
000816: 26,2750           02241                                   ERADM                                 #  = FISCHER RADIUS (-29) M
000817: 26,2751           45015                          DAD      CALL                                  #  2 ND ITERATION FOR FISCHER RADIUS
000818: 26,2752           15022                                   400KFT
000819: 26,2753           57060                                   CALCTFF                               #  ESTABLISH TRANSFER ANGLE DATA.
000820: 26,2754           77624                          CALL
000821: 26,2755           56573                                   TFF/TRIG                              #  GET SIN, COS DELF
000822: 26,2756           77624                          CALL
000823: 26,2757           55027                                   FISHCALC                              #  GET CORRESPONDING FISCHER RADIUS.
000824:
000825: 26,2760           73015                          DAD      LXA,2                                 #  SAVE HI-WORD FOR DOWNLIST.
000826: 26,2761           15022                                   400KFT                                #  M (-29)
000827: 26,2762           03713                                   RTGO                                  #  (RANGE ANGLE FROM EMSALT) / 360
000828: 26,2763           34023                          STCALL   RTERM
000829: 26,2764           55045                                   PREVGAM                               #  VGAMCALC WITH NEW RTERM
000830:
000831: 26,2765           67076                          DCOMP    SXA,2                                 #  HI-WORD OF EACH ON DOWNLIST.
000832: 26,2766           00155                                   MPAC       +1
000833: 26,2767           17771                          STODL    GAMMAEI                               #  CONIC GAMMA/360 AT 400K FT.    (HI-WORD)
000834:                                                                                                 #  CONIC RTGO/360 FROM EMSALT   (LOW-WORD)
000835:                                                                                                 #  FOR TM, DP(GAMMAEI) = (GAMMA, RTGO) / 360
000836:
000837:                                                                                                 #  VGAM FROM PDL+0 (-7)
000838: 26,2770           77626                          STADR
000839: 26,2771           74010                          STORE    VPRED                                 #  CONIC VELOCITY AT 400K FT
000840:
000841: 26,2772           77634                          RTB
000842: 26,2773           54267                                   P61.1
000843:                                                                                                 #  PDL BACK TO ZERO.
000844:
000845: 26,2774           52145        LUNENT            DLOAD    GOTO
000846: 26,2775           06456                                   1/RTMUE                               #  ESTABLISH MU FOR LUNAR TYPE ENTRIES
000847: 26,2776           54656                                   CALLCON
000848:
000849: 26,2777           00002 26244  290KFT            2DEC     88392      B-29
000850: 26,3001           00052 05716  KTETA1            2DEC*    .421844723 E2         B-14*           #  110 2PI/16384(163.84)
000851: 26,3003           33335 05707  36KFT/S           2DEC     109.728    B-7                        #  (-7) M/CS = 36 KFT/S (-7)
000852: 26,3005           36365 30244  20KFT/S           2DEC     121.92     B-7                        #  (-6) M/CS = 2 20KFT/S (-7)
000853: 26,3007           77113 42770  KR1               2DEC     -.026666667                            #  = -2.4 4 / 360
000854: 26,3011           77354 65030  -6.05DEG          2DEC     -.016805556                            #  = -6.05 / 360
000855: 26,3013           21450 00001  KR2               2DEC     .54931641                             #  = (360/4) 100 (-14) = 9000 B-14
000856: 26,3015           01750 00000  KR3               2DEC     1000       B-14                       #  = 100 (10.0) (-14) O,S
000857:                                                                                                 #  Page 769
000858:                                                                                                 #  ASSUMES L/D = 0.3, BANK =0.
000859: 26,3017           00305 04541  RTRIAL            2DEC     6460097.16 B-29                       #  RPAD +264643 FT =21 194 545 FT
000860:                                                                                                 #  RPAD DEFINED AS 20 909 901.57 FT =6 373 336 M
000861: 26,3021           00003 27040  400KFT            2DEC     121920     B-29                       #  METERS
000862:
000863:                                                                                                 #  300KFT 2DEC    91440 B-29      # (-29) M
000864:                                                                                                 #  EMSALT 2DEC    86759.2 B-29    # 284643 FT (-29) M     (ORBITAL REENTRY)
000865:                                                                                                 #  EMSALT 2DEC    90657 B-29      # 297431 FT (-29) M     (LUNAR REENTRY)
000866:
000867: 26,3023           32525 12525  KR4               2DEC     .833333333
000868: 26,3025  23,2461               300KFT            EQUALS   MINPERE
000869: 26,3025           77777 76601  VEMSCON           2DEC     -.0389676  B-14                       #  = -HS D / 2 PI (-14)   M SQ / CS SQ
000870:                                                                                                 #  = -16369       .05G    32.2    .3048   .3048/2 PI      (-14)
000871:
000872:                                                                                                 #  Page 770
000873:                                                                                                 #  SUBROUTINE NAME:  FISHCALC     (USED BY S61.2)         DATE:           01.21.67
000874:                                                                                                 #  MOD NO: 0                                              LOG SECTION:    P61-P67
000875:                                                                                                 #  MOD BY: NORTH / BAIRNSFATHER
000876:                                                                                                 #  MOD NO: 1      MOD BY: RR BAIRNSFATHER                 DATE:           11 MAY 67       INCLUDE GETERAD CALL
000877:
000878:                                                                                                 #  FUNCTIONAL DESCRIPTION:  TIVEN TEH PRESENT POSITION, UNITR, CALCULATE A NEW UNITR THAT IS ROTATED THROUGH
000879:                                                                                                 #         TRANSFER ANGLE, THETA, ALONG THE TRAJECTORY.  THEN CALCULATE SIN(LAT) AND USE TO OBTAIN FISCHER RADIUS.
000880:                                                                                                 #         SINCE FISHCALC USED UNIT (LEFT BY ENTRY) EARTH SCALING IS ASSUMED.  (WILL IMPROVE FOR SUITABLE TENNANT)
000881:
000882:                                                                                                 #  CALLING SEQUENCE:      CALL
000883:                                                                                                 #                                 FISHCALC
000884:                                                                                                 #         ENTER WITH .5 SIN(THETA) IN MPAC.
000885:                                                                                                 #         PUSHLOC IS AT PDL+0, AN ARBITRARY BASE VALUE IF LEQ 8D
000886:
000887:                                                                                                 #  SUBROUTINES CALLED:  GET ERAD
000888:
000889:                                                                                                 #  NORMAL EXIT MODE:  RVQ
000890:
000891:                                                                                                 #  EXIT MODES:    NONE
000892:
000893:                                                                                                 #  OUTPUT:        ERADM (-29) M IN MPAC ON RETURNING
000894:                                                                                                 #                 NEW UNIT VECTOR NOT SAVED.
000895:                                                                                                 #                 SIN(LAT) NOT SAVED.
000896:                                                                                                 #                 PUSHLOC AT PDL+0
000897:
000898:                                                                                                 #  ERASABLE INITIALIZATION REQUIRED:
000899:                                                                                                 #                 SDELF/2         =SIN(THETA) / 2, IN MPAC                LEFT BY TFF/TRIG(?)
000900:                                                                                                 #                 CDELF/2         =COS(THETA) / 2, STORED IN PDL 14D      LEFT BY TFF/TRIG(?)
000901:                                                                                                 #                 RONE            (-29) M                                 LEFT BY USER(?)
000902:                                                                                                 #                 VONE            (-7) M/CS                               LEFT BY USER(?)
000903:                                                                                                 #                 URONE           UR/2                                    LEFT BY USER(?)
000904:                                                                                                 #                 UNI             .5 UNIT(V*R)                            LEFT BY (?) / P61
000905:                                                                                                 #                 UNITW           UNIT NORTH POLE                         LEFT BY (?) LOAD
000906:
000907:                                                                                                 #  DEBRIS:        QPRET, PDL+0 ... PDL+5
000908:                                                                                                 #  _      _          _
000909: 26,3027           47315        FISHCALC          PDVL     VXV                                   #  URPR = UR CDELF + UHOR SDELF
000910: 26,3030           02343                                   URONE
000911: 26,3031           03502                                   UNI
000912: 26,3032           76561                          VXSC     VSL1
000913:                                                                                                 #  SIN(THETA) / 2 FROM PDL+0
000914: 26,3033           74315                          PDVL     VXSC                                  #  TO PDL+0, (garbled)
000915: 26,3034           02343                                   URONE
000916: 26,3035           00017                                   CDELF/2                               #  COS(THETA) / 2
000917: 26,3036           45455                          VAD      STADR
000918: 26,3037           74235                          STORE    URH                                   #  FOR USE IN (?) FROM EMS DISPLAY
000919: 26,3040           72441                          DOT      SL1
000920: 26,3041           01714                                   UNITW                                 #  PULL UNIT VECTOR       UNIT NORTH
000921: 26,3042           02156                          STORE    ALPHAV     +4                         #  = .5 (garbled)
000922: 26,3043           77650        DUMPFISH          GOTO
000923: 26,3044           26437                                   GETERAD                               #  SAVES FISCHER RAD (-29) M IN ERADM AND
000924:                                                                                                 #  IN MPAC.  RETURNS TO CALLER VIO QPRET.
000925:
000926:                                                                                                 #  Page 771
000927:                                                                                                 #  SUBROUTINE NAME:  VGAMCALC     (USED BY S61.2)                         DATE:           01.21.67
000928:                                                                                                 #  MOD NO: 0                                                              LOG SECTION:    P61-P67
000929:                                                                                                 #  MOD BY: NORTH / BAIRNSFATHER
000930:                                                                                                 #  MOD NO: 1      MOD BY: RR BAIRNSFATHER         DATE: 11 APR 67
000931:                                                                                                 #  MOD NO: 2      MOD BY: RR BAIRNSFATHER         DATE: 21 NOV 67         VARIABLE MU ADDED.
000932:                                                                                                 #  MOD NO: 3      MOD BY: RR BAIRNSFATHER         DATE: 21 MAR 68         ACCEPT DIFFERENT EARTH/MOON SCALE
000933:
000934:                                                                                                 #  FUNCTONAL DESCRIPTION:  EARTH CENTERED VIS VIVA CALCULATION OF TERMINAL VELOCITY AND GAMMA (REL TO
000935:                                                                                                 #         HORIZONTAL) GIVEN THE SCALAR QUANTITIES:  PRESENT RADIUS AND VELOCITY AND THE TERMINAL RADIUS.
000936:                                                                                                 #         THE USER MUST APPEND PROPER SIGN TO GAMMA, SINCE IT IS CALCULATED AS A POSITIVE NUMBER.
000937:                                                                                                 #         THE EQUATIONS ARE
000938:
000939:                                                                                                 #                 VGAM = SQRT(VN VN/MU + 2(RN-RTERM)/(RN RTERM) ) RTMU
000940:
000941:                                                                                                 #                 COSGAM = H / RTERM VGAM = SQRT (LCP) / (RTERM VGAM/RTMU)
000942:
000943:                                                                                                 #         VGAMCALC ASSUMES THAT THE TERMINAL RADIUS IS LESS THAN THE PRESENT RADIUS.  BOTH CALCTFF AND CALCTPER
000944:                                                                                                 #         MAKE THIS ASSUMPTION.
000945:
000946:                                                                                                 #  CALLING SEQUENCE:      CALL                    STCALL  RTERM
000947:                                                                                                 #                                 VGAMCALC                PREVGAM
000948:                                                                                                 #         PUSHLOC AT PDL+0, ARBITRARY IF LEQ 12D
000949:                                                                                                 #         C(MPAC) UNSPECIFIED                     C(MPAC)=NEW RTERM
000950:
000951:                                                                                                 #  SUBROUTINES CALLED:  NONE
000952:
000953:                                                                                                 #  NORMAL EXIT MODE:  RVQ
000954:
000955:                                                                                                 #  ALARMS:        NONE
000956:                                                                                                 #
000957:                                                                                                 #  OUTPUT:        GAMMA / 360 IN MPAC, POSITIVE NUMBER
000958:                                                                                                 #                 VGAM    E: (-7)   M: (-5)       M/CS IN PDL+0
000959:                                                                                                 #                 PUSHLOC AT PDL+2
000960:
000961:                                                                                                 #  ERASABLE INITIALIZATION REQD:
000962:                                                                                                 #         TFF/RTMU  E: (17)   M: (14)     1/SQRT(MU)                              LEFT BY TFFCONIC
000963:                                                                                                 #         RMAG1     E: (-29)  M: (-27)    M  PRESENT RADIUS LENGTH                LEFT BY TFFCONIC
000964:                                                                                                 #         NRMAG     E: (-29+NR)           M  NORM LENGTH OF PRESENT POSITION      LEFT BY TFFCONIC
000965:                                                                                                 #                   M: (-27+NR)
000966:                                                                                                 #         RTERM     E: (-29)  M: (-27)    M  TERMINAL RADIUS LENGHT               LEFT BY CALCTFF
000967:                                                                                                 #         NRTERM    E: (-29+NR)           M  NORM LENGTH OF TERMINAL RADIUS       LEFT BY CALCTFF
000968:                                                                                                 #                   M: (-27+NR)
000969:                                                                                                 #         TFFVSQ    E: (20)   M: (18)   1/M  -(V SQ/MU): PRESENT VELOCITY, NORM   LEFT BY TFFCONIC
000970:                                                                                                 #         TFFNP     E: (-38+2NR)          M  LCP, SEMI-LATUS RECTUM, WEIGHT NR    LEFT BY TFFCONIC
000971:                                                                                                 #                   M: (-36+2NR)
000972:
000973:                                                                                                 #  DEBRIS:        QPRET, PDL+0 ... PDL+3
000974:                                                                                                 #                 RTERM, NRTERM IF PREVGAM ENTERED.
000975:                                                                                                 #  Page 772
000976:
000977: 26,3045           77657        PREVGAM           SL*                                            #  ENTER WITH NEW RTERM IN MPAC
000978:                                                                                                 #  E: (-29)  M: (-27)
000979: 26,3046           20201                                   0,1                                   #  X1 = -NR
000980: 26,3047           00021                          STORE    NRTERM                                #  RTERM M                E: (-29+NR)     M: (-27+NR)
000981: 26,3050           41345        VGAMCALC          DLOAD    DMP
000982: 26,3051           00041                                   NRMAG                                 #  RMAG M         E: (-29+NR)     M: (-27+NR)
000983: 26,3052           00021                                   NRTERM                                #  RTERM M                E: (-29+NR)     M: (-27+NR)
000984: 26,3053           45325                          PDDL     DSU                                   #  RMAG RTERM M           E: (-58+2NR)    M: (-54+2NR)
000985: 26,3054           00041                                   NRMAG                                 #  RMAG M         E: (-29+NR)     M: (-27+NR)
000986: 26,3055           00021                                   NRTERM                                #  RTERM M                E: (-29+NR)     M: (-27+NR)
000987: 26,3056           56257                          SL*      DDV                                   #  2(RN-RTERM)            E: (-30+NR)     M: (-28+NR)
000988: 26,3057           20171                                   0          -8D,1                      #  (-8+NR)
000989:                                                                                                 #  PUSH UP PRODUCT.
000990:
000991: 26,3060           77625                          DSU
000992: 26,3061           00025                                   TFFVSQ                                #  -(V SQ/MU)             E: (20)         M: (18)
000993: 26,3062           41566                          SQRT     PUSH                                  #  SAVE VGAM/RT(MU) FOR NOW.      E: (10) M: (9)
000994: 26,3063           65271                          DDV      PDDL                                  #  XCH PDL+0, LEAVING VGAM FOR OUTPUT.
000995:                                                                                                 #  VGAM TO PDL M/CS       E: (-7)         M: (-2)
000996: 26,3064           00037                                   TFF/RTMU                              #                         E: (17)         M: (14)
000997: 26,3065           65205                          DMP      PDDL                                  #  RTERM VGAM/RTMU        E: (-19+NR)     M: (-18+NR)
000998: 26,3066           00021                                   NRTERM                                #  RTERM M                E: (-29+NR)     M: (-27+NR)
000999: 26,3067           00035                                   TFFNP                                 #  LC P =H.H/MU M E: (-38+2NR)    M: (-36+2NR)
001000: 26,3070           56366                          SQRT     DDV                                   #                         E: (-19+NR)     M: (-18+NR)
001001:                                                                                                 #  PUSH UP DEN            E: (-19+NR)     M: (-18+NR)
001002:                                                                                                 #  USE DDV OVFL AS LIMITER (|COS| <1.0)
001003: 26,3071           65542                          SR1      ACOS
001004: 26,3072           77616        DUMPVGAM          RVQ
001005:                                                                                                 #  CALLER MUST SUPPLY OWN SIGN ...
001006:                                                                                                 #                         22W     27MS
001007:
001008:                                                                                                 #  Page 773
001009:                                                                                                 #  SUBROUTINE NAME:       TFF/TRIG        (USED BY S61.2)         DATE:           01.17.67
001010:                                                                                                 #  MOD NO: 0                                                      LOG SECTION:    P61-P67
001011:                                                                                                 #  MOD BY: RR BAIRNSFATHER
001012:                                                                                                 #  MOD NO: 1      MOD BY: RR BAIRNSFATHER         DATE: 14 APR 67
001013:                                                                                                 #  MOD NO: 2      MOD BY: RR BAIRNSFATHER         DATE: 21 MAR 68         ACCEPT DIFFERENT EARTH/MOON SCALE
001014:
001015:                                                                                                 #  FUNCTIONAL DESCRIPTION:  USED BY ENTRY DISPLAY TO CALCULATE SIN(THETA), COS(THETA) FROM DATA LEFT IN
001016:                                                                                                 #         PDL BY TFF SUBROUTINES.  THE EQNS ARE
001017:
001018:                                                                                                 #                 COS(THETA) = 1-2 ABS(ARG) / (RN RTERM (1+X) )
001019:                                                                                                 #                                                 2
001020:                                                                                                 #                 SIN(THETA) = SGN(ARG) SQRT(1-COS (THETA) )
001021:
001022:                                                                                                 #         WHERE THETA = TRANSFER ANGLE
001023:                                                                                                 #         AND     ARG = P Z ABS(Z)                        IF ALFA ZZ LEQ 1
001024:                                                                                                 #                 ARG = (P / ALFA) SGN(Q1 + R 1/Z)        IF ALFA Z Z G 1
001025:                                                                                                 #         AND ARG HAS BEEN AFFIXED WITH THE SIGN OF SIN(THETA)
001026:
001027:                                                                                                 #  CALLING SEQUENCE:      CALL
001028:                                                                                                 #                                 TFF/TRIG
001029:                                                                                                 #                 PUSHLOC AT PDL+0, ARBITRARY IF NOT EQ 14D
001030:                                                                                                 #                 C(MPAC) UNSPECIFIED
001031:
001032:                                                                                                 #  SUBROUTINES CALLED:  NONE
001033:
001034:                                                                                                 #  NORMAL EXIT MODES:  RVQ
001035:
001036:                                                                                                 #  ALARMS:        NONE
001037:
001038:                                                                                                 #  OUTPUT:        C(MPAC) = .5 SIN(THETA)
001039:                                                                                                 #                 CDELF/2 = .5 COS(THETA)         (IN PDL 14D)
001040:                                                                                                 #                 PUSHLOC AT PDL+0
001041:
001042:                                                                                                 #  ERASABLE INITIALIZATION REQUIRED:
001043:                                                                                                 #                 TFFX                    X                                       LEFT BY CALCTFF OR CALCTPER
001044:                                                                                                 #                 TFFTEM  E: (-59+2NR)    ARG                                     LEFT BY CALCTFF OR CALCTPER
001045:                                                                                                 #                         M: (-55+2NR)    WHERE ARG = LCF ZZ SGN(DELF) OR ARG = LCP/ALFA SGN(DELF)
001046:                                                                                                 #                 NRTERM  E: (-29+NR)     M  NORM LENGTH OF TERMINAL RADIUS       LEFT BY CALCTFF OR CALCTPER
001047:                                                                                                 #                         M: (-27+NR)
001048:                                                                                                 #                 NRMAG   E: (-29+NR)     M  NORM LENGTH OF PRESENT POSITION      LEFT BY TFFCONIC
001049:                                                                                                 #                         M: (-27+NR)
001050:
001051:                                                                                                 #  DEBRIS:        QPRET, CDELF/2
001052:
001053: 27,2573                                          BANK     27
001054: 27,2000                                          SETLOC   P60S5
001055: 27,2000                                          BANK
001056: 27,2573           70545        TFF/TRIG          DLOAD    SR1
001057: 27,2574           00043                                   TFFX
001058: 27,2575           41215                          DAD      DMP
001059: 27,2576           15330                                   HIDPHALF
001060: 27,2577           00041                                   NRMAG                                 #  RMAG M         E: (-29+NR)     M: (-27+NR)
001061: 27,2600           55205                          DMP      BDDV
001062: 27,2601           00021                                   NRTERM                                #  RTERM M                E: (-29+NR)     M: (-27+NR)
001063: 27,2602           00045                                   TFFTEM                                #  P ZSQ OR P/ALFA        E: (-59+2NR)    M: (-55+2NR)
001064: 27,2603           44246                          ABS      BDSU                                  #  THE SIGN IS FOR SDELF.
001065: 27,2604           15330                                   HIDPHALF
001066: 27,2605           00017                          STORE    CDELF/2                               #  .5 COS(THETA)
001067: 27,2606           57516                          DSQ      DCOMP                                 #  KEEP HONEST FOR SQRT.
001068:                                                                                                 #  Page 774
001069: 27,2607           75415                          DAD      SQRT
001070: 27,2610           15322                                   HIDP1/4
001071: 27,2611           43565        DUMPTRIG          SIGN     RVQ
001072: 27,2612           00045                                   TFFTEM                                #  AFFIX SIGN(DELE/2)
001073:                                                                                                 #  RETURN WITH .5 SIN(THETA) IN MPAC
001074:                                                                                                 #                         16W     15MS
001075:
001076: 27,2613           77620        DISPTARG          STQ                                            #  C(MPAC = TRGO ESTIMATE
001077: 27,2614           03373                                   60GENRET
001078: 27,2615           45205                          DMP      DSU
001079: 27,2616           15002                                   KTETA1
001080: 27,2617           03733                                   TTE1
001081: 27,2620           37606                          STCALL   DTEAROT
001082: 27,2621           46225                                   EARROT2
001083: 27,2622           77624                          CALL
001084: 27,2623           56626                                   VRCALC
001085: 27,2624           77650                          GOTO
001086: 27,2625           03373                                   60GENRET
001087: 27,2626           50375        VRCALC            VLOAD    DOT
001088: 27,2627           03542                                   URH
001089: 27,2630           03474                                   RT
001090: 27,2631           65512                          SL2      ACOS
001091: 27,2632           77616                          RVQ
001092:
001093:                                                                                                 #  END OF PROGRAM S61.2
001094:                                                                                                 #  PROGRAM DESCRIPTION S62.3      DATE 10JAN67
001095:                                                                                                 #  MOD NO 1:                      LOG SECTION P60-P67
001096:                                                                                                 #  MOD BY ZELDIN
001097:                                                                                                 #  MOD NO: 2      MOD BY: RR BAIRNSFATHER         DATE: 15 MAY 67         CHANGED TO REF COORDS.
001098:                                                                                                 #  MOD NO: 3      MOD BY: RR BAIRNSFATHER         DATE: 17 JAN 68         ALFAPAD CHANGES MADE.
001099:
001100:                                                                                                 #  FUNCTIONAL DESCRIPTION
001101:
001102:                                                                                                 #         COMPUTE DESIRED GIMBAL ANGLES FOR ENTRY ATTITUDE
001103:                                                                                                 #         THE FOLLOWING TRAJECTORY TRIAD IS AVAILABLE IN MEMORY AND IS COMPUTED EACH 2 SECONDS BY CM/POSE IN
001104:                                                                                                 #         REFERENCE COORDINATES (V = VELOCITY RELATIVE TO EARTH):
001105:
001106:                                                                                                 #                 UXA = -UNIT(V)
001107:                                                                                                 #                 UYA =  UNIT(V*R)
001108:                                                                                                 #                 UZA =  UXA*UYA
001109:
001110:                                                                                                 #         GENERATE A DESIRED BODY TRIAD FOR TRIMMED FLIGHT WITH RESPECT TO THE RELATIVE VELOCITY VECTOR, USING
001111:                                                                                                 #         ROLL COMMAND AND TRIM ANGLE OF ATTACK:
001112:
001113:                                                                                                 #                 UXD = UNIT(UYD*UXA) SIN(ALFATRIM) + UXA COS(ALFATRIM)
001114:                                                                                                 #                 UYD = UYA COS(ROLLC) + UZA SIN(ROLLC)
001115:                                                                                                 #                 UZD = UXD * UYD
001116:
001117:                                                                                                 #         USE THE DESIRED SET (IN REFERENCE COORDS) AND REFSMMAT TO CALL CALCGA AND OBTAIN GIMBAL ANGLES
001118:                                                                                                 #         IN 2S, C IN MPAC, +2 AND THETAD, +2.
001119:
001120:                                                                                                 #  CALLING SEQUENCE
001121:
001122:                                                                                                 #         L       CALL
001123:                                                                                                 #         L+1             S62.3
001124:
001125:                                                                                                 #  NORMAL EXIT MODE
001126:
001127:                                                                                                 #         RETURN VIA QPRET DIRECTLY FROM CALCGA.
001128:
001129:                                                                                                 #  SUBROUTINES CALLED
001130:
001131:                                                                                                 #         CALCGA
001132:
001133:                                                                                                 #  ALARM OR ABORT MODES
001134:
001135:                                                                                                 #         NONE
001136:
001137:                                                                                                 #  ERASABLE INITIALIZATION REQUIRED
001138:
001139:                                                                                                 #         ROLLC   ROLL COMMAND            DP 1'S COMP AT 1REV
001140:                                                                                                 #         ALFAPAD SP 1'S C / 180          LEFT BY PAD LOAD        ALFATRIM IS NEGATIVE.
001141:                                                                                                 #         UXA/2   REF COORDS              LEFT BY CM/POSE
001142:                                                                                                 #         UYA/2   REF COORDS              LEFT BY CM/POSE
001143:                                                                                                 #         UZA/2   REF COORDS              LEFT BY CM/POSE
001144:
001145:                                                                                                 #  OUTPUT
001146:                                                                                                 #
001147:                                                                                                 #         CPHI    GIMBAL ANGLES (O,I.M) 2'S COMP TP (O,I.M)/180
001148:
001149:                                                                                                 #  DEBRIS
001150:
001151:                                                                                                 #         QTEMP, QPRET, PUSHLIST
001152:
001153: 10,2302                                          BANK     10
001154: 10,2000                                          SETLOC   P60S4
001155: 10,2000                                          BANK
001156:                                                                                                 #  Page 776
001157: 10,2302                                          COUNT*   $$/S62.3
001158:
001159: 10,2302           67201        S62.3             SETPD    SLOAD
001160: 10,2303           00001                                   0
001161: 10,2304           03012                                   ALFAPAD                               #  ALFATRIM / 180, ALFA IS NEG.
001162: 10,2305           41542                          SR1      PUSH
001163: 10,2306           65346                          COS      PDDL                                  #  XCH PDL, COS TO PDL0
001164: 10,2307           65356                          SIN      PDDL                                  #  SIN TO PDL2
001165: 10,2310           03316                                   ROLLC
001166: 10,2311           74346                          COS      VXSC
001167: 10,2312           03550                                   UYA/2                                 #                                 REF COORDS
001168: 10,2313           73525                          PDDL     SIN                                   #  PUSH VECTOR INTO PDL4...9
001169: 10,2314           03316                                   ROLLC
001170: 10,2315           53361                          VXSC     VAD
001171: 10,2316           03556                                   UZA/2                                 #                                 REF COORDS
001172:                                                                                                 #  VECTOR FROM PDL4...9
001173: 10,2317           77772                          VSL1
001174: 10,2320           02722                          STORE    YNB                                   #  = UYD                          REF COORDS
001175:
001176: 10,2321           76435                          VXV      VSL1
001177: 10,2322           03542                                   UXA/2                                 #                                 REF COORDS
001178: 10,2323           65361                          VXSC     PDDL
001179:                                                                                                 #  SIN TRIM FROM PDL2
001180:                                                                                                 #  XCH PDL0 FOR COS TRIM
001181: 10,2324           53361                          VXSC     VAD
001182: 10,2325           03542                                   UXA/2                                 #                                 REF COORDS
001183:                                                                                                 #  FROM PDL0
001184: 10,2326           77772                          VSL1
001185: 10,2327           02714                          STORE    XNB                                   #  X SC AXIS (.5 UNIT)            REF COORDS
001186:
001187: 10,2330           76435                          VXV      VSL1
001188: 10,2331           02722                                   YNB
001189: 10,2332           26730                          STOVL    ZNB                                   #  Z SC IN REF COOR. SCALED AT 2
001190: 10,2333           01736                                   REFSMMAT
001191: 10,2334           26672                          STOVL    XSM
001192: 10,2335           01744                                   REFSMMAT   +6
001193: 10,2336           26700                          STOVL    YSM
001194: 10,2337           01752                                   REFSMMAT   +12D
001195: 10,2340           02706                          STORE    ZSM
001196:
001197: 10,2341           52014                          CLEAR    GOTO
001198: 10,2342           00260                                   CPHIFLAG                              #  CAUSE CALCGA TO STORE ANS IN TP CPHI
001199: 10,2343           47244                                   CALCGA
001200:                                                                                                 #  CALCGA WILL RETURN TO ORIGINAL CALLER
001201:                                                                                                 #  VIA QPRET WITH 2'S COMP. ANGLES IN CPHI
001202:
001203:
001204:

End of include-file P61-P67.agc.  Parent file is MAIN.agc


