
Source Code


000002:                                                                                                  #  Copyright:    Public domain.
000003:                                                                                                  #  Filename:     P76.agc
000004:                                                                                                  #  Purpose:      Part of the source code for Colossus, build 249.
000005:                                                                                                  #                It is part of the source code for the Command Module's (CM)
000006:                                                                                                  #                Apollo Guidance Computer (AGC), possibly for Apollo 8 and 9.
000007:                                                                                                  #  Assembler:    yaYUL
000008:                                                                                                  #  Reference:    pp. 504-506 of 1701.pdf.
000009:                                                                                                  #  Contact:      Ron Burkey <info@sandroid.org>.
000010:                                                                                                  #  Website:      www.ibiblio.org/apollo.
000011:                                                                                                  #  Mod history:  08/12/04 RSB.   Adapted from corresponding Luminary131
000012:                                                                                                  #                                file.
000013:
000014:                                                                                                  #  The contents of the "Colossus249" files, in general, are transcribed
000015:                                                                                                  #  from a scanned document obtained from MIT's website,
000016:                                                                                                  #  http://hrst.mit.edu/hrs/apollo/public/archive/1701.pdf.  Notations on this
000017:                                                                                                  #  document read, in part:
000018:
000019:                                                                                                  #        Assemble revision 249 of AGC program Colossus by NASA
000020:                                                                                                  #        2021111-041.  October 28, 1968.
000021:
000022:                                                                                                  #        This AGC program shall also be referred to as
000023:                                                                                                  #                                Colossus 1A
000024:
000025:                                                                                                  #        Prepared by
000026:                                                                                                  #                        Massachusetts Institute of Technology
000027:                                                                                                  #                        75 Cambridge Parkway
000028:                                                                                                  #                        Cambridge, Massachusetts
000029:                                                                                                  #        under NASA contract NAS 9-4065.
000030:
000031:                                                                                                  #  Refer directly to the online document mentioned above for further information.
000032:                                                                                                  #  Please report any errors (relative to 1701.pdf) to info@sandroid.org.
000033:
000034:                                                                                                  #  In some cases, where the source code for Luminary 131 overlaps that of
000035:                                                                                                  #  Colossus 249, this code is instead copied from the corresponding Luminary 131
000036:                                                                                                  #  source file, and then is proofed to incorporate any changes.
000037:
000038:                                                                                                  #  Page 504
000039:                                                                                                  #  1)    PROGRAM NAME -- TARGET DELTA V PROGRAM (P76).
000040:                                                                                                  #  2)    FUNCTIONAL DESCRIPTION -- UPON ENTRY BY ASTRONAUT ACTION, P76 FLASHES DSKY REQUESTS TO THE ASTRONAUT
000041:                                                                                                  #        TO PROVIDE VIA DSKY (1) THE DELTA V TO BE APPLIED TO THE OTHER VEHICLE STATE VECTOR AND (2) THE
000042:                                                                                                  #        TIME (TIG) AT WHICH THE OTHER VEHICLE VELOCITY WAS CHANGED BY EXECUTION OF A THRUSTING MANEUVER. THE
000043:                                                                                                  #        OTHER VEHICLE STATE VECTOR IS INTEGRATED TO TIG AND UPDATED BY THE ADDITION OF DELTA V (DELTA V HAVING
000044:                                                                                                  #        BEEN TRANSFORMED FROM LV TO REF COSYS).  USING INTEGRVS, THE PROGRAM THEN INTEGRATES THE OTHER
000045:                                                                                                  #        VEHICLE STATE VECTOR TO THE STATE VECTOR OF THIS VEHICLE, THUS INSURING THAT THE W-MATRIX AND BOTH VEHICLE
000046:                                                                                                  #        STATES CORRESPOND TO THE SAME TIME.
000047:                                                                                                  #  3)    ERASABLE INIITIALIZATION REQUIRED -- NONE.
000048:                                                                                                  #  4)    CALLING SEQUENCES AND EXIT MODES -- CALLED BY ASTRONAUT REQUEST THRU DSKY V 37 E 76E.
000049:                                                                                                  #        EXITS BY TCF ENDOFJOB.
000050:                                                                                                  #  5)    OUTPUT -- OTHER VEHICLE STATE VECTOR INTEGRATED TO TIG AND INCREMENTED BY DELTA V IN REF COSYS.
000051:                                                                                                  #        THE PUSHLIST CONTAINS THE MATRIX BY WHICH THE INPUT DELTA V MUST BE POST-MULTIPLIED TO CONVERT FROM LV
000052:                                                                                                  #        TO REF COSYS.
000053:                                                                                                  #  6)    DEBRIS -- OTHER VEHICLE STATE VECTOR.
000054:                                                                                                  #  7)    SUBROUTINES CALLED -- BANKCALL, GOXDSPF, CSMPREC (OR LEMPREC), ATOPCSM (OR ATOPLEM), INTSTALL, INTWAKE, PHASCHNG
000055:                                                                                                  #        INTPRET, INTEGRVS, AND MINIRECT.
000056:                                                                                                  #  8)    FLAG USE -- MOONFLAG, CMOONFLG, INTYPFLG, RASFLAG, AND MARKCT.
000057:
000058: 30,2000                                           BANK     30
000059: 13,2000                                           SETLOC   P76LOC
000060: 13,2000                                           BANK
000061:
000062: 13,2036                                           COUNT*   $$/P76
000063:
000064: 13,2036  E7,1412                                  EBANK=   TIG
000065:
000066: 13,2036           05435        P76                TC       UPFLAG
000067: 13,2037           00031                           ADRES    TRACKFLG
000068:
000069: 13,2040           32163                           CAF      V06N84                                #  FLASH LAST DELTA V
000070: 13,2041           04555                           TC       BANKCALL                              #  AND WAIT FOR KEYBOARD ACTION.
000071: 13,2042           20624                           CADR     GOFLASH
000072: 13,2043           12155                           TCF      ENDP76
000073: 13,2044           02046                           TC       +2                                    #  PROCEED
000074: 13,2045           02040                           TC       -5                                    #  STORE DATA AND REPEAT FLASHING
000075: 13,2046           32164                           CAF      V06N84     +1                         #  FLASH VERB 06 NOUN 33, DISPLAY LAST TIG,
000076: 13,2047           04555                           TC       BANKCALL                              #  AND WAIT FOR KEYBOARD ACTION.
000077: 13,2050           20624                           CADR     GOFLASH
000078: 13,2051           12155                           TCF      ENDP76
000079: 13,2052           02054                           TC       +2
000080: 13,2053           02046                           TC       -5
000081: 13,2054           06006                           TC       INTPRET                               #  RETURN TO INTERPRETIVE CODE
000082: 13,2055           77745                           DLOAD                                          #  SET D(MPAC)=TIG IN CSEC B28
000083: 13,2056           03413                                    TIG
000084: 13,2057           34041                           STCALL   TDEC1                                 #  SET TDEC1=TIG FOR ORBITAL INTEGRATION
000085: 13,2060           27036                                    OTHPREC
000086: 13,2061           53575        COMPMAT            VLOAD    UNIT
000087: 13,2062           00001                                    RATT
000088:                                                                                                  #  Page 505
000089: 13,2063           77676                           VCOMP                                          #  U(-R)
000090: 13,2064           00031                           STORE    24D                                   #  U(-R) TO 24D
000091: 13,2065           53435                           VXV      UNIT                                  #  U(-R) X V = U(V X R)
000092: 13,2066           00007                                    VATT
000093: 13,2067           00023                           STORE    18D
000094: 13,2070           53435                           VXV      UNIT                                  #  U(V X R) X U(-R) = U((R X V) X R)
000095: 13,2071           00031                                    24D
000096: 13,2072           24015                           STOVL    12D
000097: 13,2073           03540                                    DELVOV
000098: 13,2074           76505                           VXM      VSL1                                  #  V(MPAC)=DELTA V IN REFCOSYS
000099: 13,2075           00015                                    12D
000100: 13,2076           77655                           VAD
000101: 13,2077           00007                                    VATT
000102: 13,2100           00007                           STORE    6                                     #  V(PD6)=VATT + DELTA V
000103: 13,2101           77624                           CALL                                           #  PRESENT WOULD-BE USER OF ORBITAL
000104: 13,2102           27371                                    INTSTALL                              #  INTEG FROM INTERFERING WITH UPDATING
000105: 13,2103           77624                           CALL
000106: 13,2104           26165                                    P76SUB1
000107: 13,2105           53775                           VLOAD    VSR*
000108: 13,2106           00007                                    6
000109: 13,2107           57176                                    0,2
000110: 13,2110           25543                           STOVL    VCV
000111: 13,2111           00001                                    RATT
000112: 13,2112           77657                           VSR*
000113: 13,2113           57176                                    0,2
000114: 13,2114           15535                           STODL    RCV
000115: 13,2115           03413                                    TIG
000116: 13,2116           01517                           STORE    TET
000117: 13,2117           71214                           CLEAR    DLOAD
000118: 13,2120           01673                                    INTYPFLG
000119: 13,2121           01571                                    TETTHIS
000120: 13,2122           34041        INTOTHIS           STCALL   TDEC1
000121: 13,2123           27066                                    INTEGRVS
000122: 13,2124           77624                           CALL
000123: 13,2125           27371                                    INTSTALL
000124: 13,2126           77775                           VLOAD
000125: 13,2127           00017                                    RATT1
000126: 13,2130           01503                           STORE    RRECT
000127: 13,2131           15535                           STODL    RCV
000128: 13,2132           00015                                    TAT
000129: 13,2133           25517                           STOVL    TET
000130: 13,2134           00025                                    VATT1
000131: 13,2135           77624                           CALL
000132: 13,2136           23360                                    MINIRECT
000133: 13,2137           77776                           EXIT
000134: 13,2140           05301                           TC       PHASCHNG
000135: 13,2141           04024                           OCT      04024
000136:
000137: 13,2142           05435                           TC       UPFLAG
000138: 13,2143           00236                           ADRES    REINTFLG
000139:                                                                                                  #  Page 506
000140:
000141: 13,2144           06006                           TC       INTPRET
000142: 13,2145           77624                           CALL
000143: 13,2146           26711                                    ATOPOTH
000144: 13,2147           77531                           SSP      EXIT
000145: 13,2150           00053                                    QPRET
000146: 13,2151           26154                                    OUT
000147: 13,2152           04555                           TC       BANKCALL                              #  PERMIT USE OF ORBITAL INTEGRATION
000148: 13,2153           27426                           CADR     INTWAKE1
000149: 13,2154           77776        OUT                EXIT
000150: 13,2155           34714        ENDP76             CAF      ZERO
000151: 13,2156           55126                           TS       MARKCTR                               #  CLEAR RR TRACKING MARK COUNTER
000152: 13,2157           55125                           TS       VHFCNT
000153:
000154: 13,2160           37716                           CAF      NEGONE
000155: 13,2161           55734                           TS       MRKBUF2                               #  INVALIDATE MARK BUFFER
000156:
000157: 13,2162           14106                           TCF      GOTOP00H
000158:
000159: 13,2163           01524        V06N84             NV       0684
000160: 13,2164           01441                           NV       0633
000161: 13,2165           43174        P76SUB1            AXT,2    SET
000162: 13,2166           00002                                    2
000163: 13,2167           00063                                    MOONFLAG                              #  SET MEANS MOON IS SPHERE OF INFLUENCE.
000164: 13,2170           77014                           BON      AXT,2
000165: 13,2171           04303                                    CMOONFLG                              #  SET MEANS PERM CM STATE IN LUNAR SPHERE.
000166: 13,2172           00052                                    QPRET
000167: 13,2173           00000                                    0
000168: 13,2174           43414                           CLEAR    RVQ
000169: 13,2175           00263                                    MOONFLAG
000170:
000171:
000172:
000173:
000174:

End of include-file P76.agc.  Parent file is MAIN.agc


