
Source Code


000002:                                                                                                  #  Copyright:    Public domain.
000003:                                                                                                  #  Filename:     PHASE_TABLE_MAINTENANCE.agc
000004:                                                                                                  #  Purpose:      Part of the source code for Colossus, build 249.
000005:                                                                                                  #                It is part of the source code for the Command Module's (CM)
000006:                                                                                                  #                Apollo Guidance Computer (AGC), possibly for Apollo 8 and 9.
000007:                                                                                                  #  Assembler:    yaYUL
000008:                                                                                                  #  Reference:    Starts on p. 1394 of 1701.pdf.
000009:                                                                                                  #  Contact:      Ron Burkey <info@sandroid.org>.
000010:                                                                                                  #  Website:      www.ibiblio.org/apollo.
000011:                                                                                                  #  Mod history:  08/30/04 RSB.   Adapted from corresponding Luminary131 file.
000012:                                                                                                  #                2011-05-07 JL   Flagged SBANK= workarounds for future removal.
000013:                                                                                                  #                                Removed workaround.
000014:
000015:                                                                                                  #  The contents of the "Colossus249" files, in general, are transcribed
000016:                                                                                                  #  from a scanned document obtained from MIT's website,
000017:                                                                                                  #  http://hrst.mit.edu/hrs/apollo/public/archive/1701.pdf.  Notations on this
000018:                                                                                                  #  document read, in part:
000019:
000020:                                                                                                  #        Assemble revision 249 of AGC program Colossus by NASA
000021:                                                                                                  #        2021111-041.  October 28, 1968.
000022:
000023:                                                                                                  #        This AGC program shall also be referred to as
000024:                                                                                                  #                                Colossus 1A
000025:
000026:                                                                                                  #        Prepared by
000027:                                                                                                  #                        Massachusetts Institute of Technology
000028:                                                                                                  #                        75 Cambridge Parkway
000029:                                                                                                  #                        Cambridge, Massachusetts
000030:                                                                                                  #        under NASA contract NAS 9-4065.
000031:
000032:                                                                                                  #  Refer directly to the online document mentioned above for further information.
000033:                                                                                                  #  Please report any errors (relative to 1701.pdf) to info@sandroid.org.
000034:
000035:                                                                                                  #  In some cases, where the source code for Luminary 131 overlaps that of
000036:                                                                                                  #  Colossus 249, this code is instead copied from the corresponding Luminary 131
000037:                                                                                                  #  source file, and then is proofed to incorporate any changes.
000038:
000039:                                                                                                  #  Page 1394
000040:                                                                                                  #  SUBROUTINE TO UPDATE THE PROGRAM NUMBER DISPLAY ON THE DSKY.
000041:
000042: 43,3722                                           COUNT    02/PHASE
000043:    5243                                           BLOCK    02
000044:    4000                                           SETLOC   FFTAG1
000045:    4000                                           BANK
000046:
000047:    5243           50002        NEWMODEX           INDEX    Q                                     #  UPDATE MODREG.  ENTRY FOR MODE IN FIXED.
000048:    5244           30000                           CAF      0
000049:    5245           24002                           INCR     Q
000050:
000051:    5246           55011        NEWMODEA           TS       MODREG                                #  ENTRY FOR MODE IN A.
000052:    5247           35252        MMDSPLAY           CAF      +3                                    #  DISPLAY MAJOR MODE.
000053:    5250           22006        PREBJUMP           LXCH     BBANK                                 #  PUTS BBANK IN L
000054:    5251           14577                           TCF      BANKJUMP                              #  PUTS Q INTO A
000055:    5252           20344                           CADR     SETUPDSP
000056:
000057:                                                                                                  #  RETURN TO CALLER +3 IF MODE = THAT AT CALLER +1.  OTHERWISE RETURN TO CALLER +2.
000058:
000059:    5253           50002        CHECKMM            INDEX    Q
000060:    5254           40000                           CS       0
000061:    5255           61011                           AD       MODREG
000062:    5256           00006                           EXTEND
000063:    5257           16710                           BZF      Q+2
000064:    5260           16706                           TCF      Q+1                                   #  NO MATCH
000065:
000066:    5261     6711               TCQ                =        Q+2        +1
000067:
000068: 14,3744                                           BANK     14
000069: 10,2000                                           SETLOC   PHASETAB
000070: 10,2000                                           BANK
000071:
000072: 10,2344                                           COUNT    10/PHASE
000073:
000074: 10,2344           00004        SETUPDSP           INHINT
000075: 10,2345           52071                           DXCH     RUPTREG1                              #  SAVE CALLER'S RETURN 2CADR
000076: 10,2346           34371                           CAF      PRIO30                                #        EITHER A TASK OR JOB CAN COME TO
000077: 10,2347           05027                           TC       NOVAC                                 #        NEWMODE X
000078: 10,2350     1011                                  EBANK=   MODREG
000079: 10,2350           03435 60102                     2CADR    DSPMMJOB
000080:
000081: 10,2352           52071                           DXCH     RUPTREG1
000082: 10,2353           00003                           RELINT
000083: 10,2354           52006                           DXCH     Z                                     #  RETURN
000084:
000085: 10,2355  40,3435               DSPMMJOB           EQUALS   DSPMMJB
000086:
000087:    5261                                           BLOCK    02
000088:                                                                                                  #  Page 1395
000089:    4000                                           SETLOC   FFTAG1
000090:    4000                                           BANK
000091:
000092:                                                                                                  #  Page 1396
000093:                                                                                                  #  PHASCHNG IS THE MAIN WAY OF MAKING PHASE CHANGES FOR RESTARTS.  THERE ARE THREE FORMS OF PHASCHNG, KNOWN AS TYPE
000094:                                                                                                  #  A, TYPE B, AND TYPE C.  THEY ARE ALL CALLED AS FOLLOWS, WHERE OCT XXXXX CONTAINS THE PHASE INFORMATION,
000095:                                                                                                  #                TC      PHASCHNG
000096:                                                                                                  #                OCT     XXXXX
000097:                                                                                                  #  TYPE A IS CONCERNED WITH FIXED PHAS CHANGES, THAT IS, PHASE INFORMATION THAT IS STORED PERMANENTLY.  THESE
000098:                                                                                                  #  OPTIONS ARE, WEHRE G STANDS FOR A GROUP AND .X FOR THE PHASE,
000099:                                                                                                  #        G.0             INACTIVE, WILL NOT PERMIT A GROUP G RESTART
000100:                                                                                                  #        G.1             WILL CAUSE THE LAST DISPLAY TO BE REACTIVATED, USED MAINLY IN MANNED FLIGHTS
000101:                                                                                                  #        G.EVEN          A DOUBLE TABLE RESTART, CAN CAUSE ANY COMBINATION OF TWO JOBS, TASKS, AND/OR
000102:                                                                                                  #                        LONGCALL TO BE RESTARTED.
000103:                                                                                                  #        G.ODD NOT .1    A SINGLE TABLE RESTART, CAN CAUSE EITHER A JOB, TASK, OR LONGCALL RESTART.
000104:
000105:                                                                                                  #  THIS INFORMATION IS PUT INTO THE OCTAL WORD AFTER TC PHASCHNG AS FOLLOWS
000106:                                                                                                  #        TL0 00P PPP PPP GGG
000107:                                                                                                  #  WHERE EACH LETTER OR NUMBER STANTS FOR A BIT.  THE G'S STAND FOR THE GROUP, OCTAL 1-7, THE P'S FOR THE PHASE,
000108:                                                                                                  #  OCTAL 0 - 127.  0'S MUST BE 0.  IF ONE WISHES TO HAVE THE TBASE OF GROUP G TO BE SET AT THIS TIME,
000109:                                                                                                  #  T IS SET TO 1, OTHERWISE IT IS SET TO 0.  SIMILARLY IF ONE WISHES TO SET LONGBASE, THEN L IS SET TO 1, OTHERWISE
000110:                                                                                                  #  IT IS SET TO 0.  SOME EXAMLES,
000111:                                                                                                  #                TC      PHASCHNG        # THIS WILL CAUSE GROUP 3 TO BE SET TO 0,
000112:                                                                                                  #                OCT     00003           # MAKING GROUP 3 INACTIVE
000113:
000114:                                                                                                  #                TC      PHASCHNG        # IF A RESTART OCCURS THIS WOULD CAUSE
000115:                                                                                                  #                OCT     00012           # GROUP 2 TO RESTART THE LAST DISPLAY
000116:
000117:                                                                                                  #                TC      PHASCHNG        # THIS SETS THE TBASE OF GROUP 4 AND IN
000118:                                                                                                  #                OCT     40064           # CASE OF A RESTART WOULD START UP THE TWO
000119:                                                                                                  #                                        # THINGS LOCATED IN THE DOUBLE 4.6 RESTART
000120:                                                                                                  #                                        # LOCATION.
000121:
000122:                                                                                                  #                TC      PHASCHNG        # THIS SETS LONGBASE AND UPON A RESTART
000123:                                                                                                  #                OCT     20135           # CAUSES 5.13 TO BE RESTARTED (SINCE
000124:                                                                                                  #                                        # LONGBASE WAS SET THIS SINGLE ENTRY
000125:                                                                                                  #                                        # SHOULD BE A LONGCALL)
000126:
000127:                                                                                                  #                TC      PHASCHNG        # SINCE BOTH TBASE4 AND LONGBASE ARE SET,
000128:                                                                                                  #                OCT     60124           # 4.12 SHOULD CONTAIN BOTH A TASK AND A
000129:                                                                                                  #                                        # LONGCALL TO BE RESTARTED
000130:
000131:                                                                                                  #  TYPE C PHASCHNG CONTAINS THE VARIABLE TYPE OF PHASCHNG INFORMATION.  INSTEAD OF THE INFORMATION BEING IN A
000132:                                                                                                  #  PERMANENT FORM, ONE STORES THE DESIRED RESTART INFORMATION IN A VARIABLE LOCATION.  THE BITS ARE AS FOLLOWS,
000133:                                                                                                  #        TL0 1AD XXX CJW GGG
000134:                                                                                                  #  WHERE EACH LETTER OR NUMBER STANDS FOR A BIT.  THE G'S STAND FOR THE GROUP, OCTAL 1 - 7.  IF THE RESTART IS TO
000135:                                                                                                  #  BE BY WAITLIST, W IS SET TO 1, IF IT IS A JOB, J IS SET TO 1, IF IT IS A LONGCALL, C IS SET TO 1.  ONLY ONE OF
000136:                                                                                                  #  THESE THREE BITS MAY BE SET.  X'S ARE IGNORED, 1 MUST BE 1, AND 0 MUST BE 0.  AGAIN T STANDS FOR THE TBASE,
000137:                                                                                                  #  Page 1397
000138:                                                                                                  #  AND L FOR LONGBASE.  THE BITS A AND D ARE CONCERNED WITH THE VARIABLE INFORMATION.  IF D IS SET TO 1, A PRIORITY
000139:                                                                                                  #  OR DELTA TIME WILL BE READ FROM THE NEXT LOCATION AFTER THE OCTAL INFORMATION., IF THIS IS TO BE INDIRECT, THAT
000140:                                                                                                  #  IS, THE NAME OF A LOCATION CONTAINING THE INFORMATION (DELTA TIME ONLY), THEN THIS IS GIVEN AS THE -GENADR OF
000141:                                                                                                  #  THAT LOCATION WHICH CONTAINS THE DELTA TIME.  IF THE OLD PRIORITY OR DELTA TIME IS TO BE USED, THAT WHICH IS
000142:                                                                                                  #  ALREADY IN THE VARIABLE STORAGE, THEN D IS SET TO 0.  NEXT THE A BIT IS USED.  IF IT IS SET TO 0, THE ADDRESS
000143:                                                                                                  #  THAT WOULD BE RESTARTED DURING A RESTART IS THE NEXT LOCATION AFTER THE PHASE INFORMATION, THAT IS, EITHER
000144:                                                                                                  #  (TC PHASCHNG) +2 OR +3, DEPENDING ON WHETHER D HAD BEEN SET OR NOT.  IF A IS SET TO 1, THEN THE ADDRESS THAT
000145:                                                                                                  #  WOULD BE RESTARTED IS THE 2CADR THAT IS READ FROM THE NEXT TWO LOCATION.  EXAMPLES,
000146:                                                                                                  #        AD      TC      PHASCHNG        # THIS WOULD CAUSE LOCATION AD +3 TO BE
000147:                                                                                                  #        AD+1    OCT     05023           # RESTARTED BY GROUP THREE WITH A PRIORITY
000148:                                                                                                  #        AD+2    OCT     23000           # OF 23.  NOTE UPON RETURNING IT WOULD
000149:                                                                                                  #        AD+3                            # ALSO GO TO AD+3
000150:
000151:                                                                                                  #        AD      TC      PHASCHNG        # GROUP 1 WOULD CAUSE CALLCALL TO BE
000152:                                                                                                  #        AD+1    OCT     27441           # BE STARTED AS A LONGCALL FROM THE TIME
000153:                                                                                                  #        AD+2    -GENADR DELTIME         # STORED IN LONGBASE (LONGBASE WAS SET) BY
000154:                                                                                                  #        AD+3    2CADR   CALLCALL        # A DELTA TIME STORED IN DELTIME.  THE
000155:                                                                                                  #        AD+4                            # BBCON OF THE 2CADR SHOULD CONTAIN THE E
000156:                                                                                                  #        AD+5                            # BANK OF DELTIME.  PHASCHNG RETURNS TO
000157:                                                                                                  #                                        # LOCATION AD+5
000158:
000159:                                                                                                  #  NOTE THAT IF A VARIABLE PRIORITY IS GIVEN FOR A JOB, THE JOB WILL BE RESTARTED AS A NOVAC IF THE PRIORITY IS
000160:                                                                                                  #  NEGATIVE, AS A FINDVAC IF TEH PRIORITY IS POSITIVE.
000161:
000162:                                                                                                  #  TYPE B PHASCHNG IS A COMBINATION OF VARIABLE AND FIXED PHASE CHANGES.  IT WILL START UP A JOB AS INDICATED
000163:                                                                                                  #  BELOW AND ALSO START UP ONE FIXED RESTART, THAT IS EITHER AN G.1 OR A G.ODD OR THE FIRST ENTRY OF G.EVEN
000164:                                                                                                  #  DOUBLE ENTRY.  THE BIT INFORMATION IS AS FOLLOW,
000165:                                                                                                  #        TL1 DAP PPP PPP GGG
000166:                                                                                                  #  WHERE EACH LETTER OR NUMBER STANDS FOR A BIT.  THE G'S STAND FOR THE GROUP, OCTAL 1 - 7, THE P'S FOR THE FIXED
000167:                                                                                                  #  PHASE INFORMATION, OCTAL 0 - 127.  1 MUST BE 1.  AND AGAIN T STANDS FOR THE TBASE AND L FOR LONGBASE.  D THIS
000168:                                                                                                  #  TIME STANDS ONLY FOR PRIORITY SINCE THIS WILL BE CONSIDERED A JOB, AND IT MUST BE GIVEN DIRECTLY IF GIVEN.
000169:                                                                                                  #  AGAIN A STANDS FOR THE ADDRESS OF THE LOCATION TO BE RESTARTED, 1 IF THE 2CADR IS GIVEN, OR 0 IF IT IS TO BE
000170:                                                                                                  #  THE NEXT LOCATION.  (THE RETURN LOCATION OF PHASCHNG) EXAMPLES,
000171:                                                                                                  #        AD      TC      PHASCHNG        # TBASE IS SET AND A RESTART CAUSE GROUP 3
000172:                                                                                                  #        AD+1    OCT     56043           # TO START THE JOB AJOBAJOB WITH PRIORITY
000173:                                                                                                  #        AD+2    OCT     31000           # 31 AND THE FIRST ENTRY OF 3.4SPOT (WE CAN
000174:                                                                                                  #        AD+3    2CADR   AJOBAJOB        # ASSUME IT IS A TASK SINCE WE SET TBASE3)
000175:                                                                                                  #        AD+4                            # UPON RETURN FROM PHASCHNG CONTROL WOULD
000176:                                                                                                  #        AD+5                            # GO TO AD+5
000177:
000178:                                                                                                  #        AD      TC      PHASCHNG        # UPON A RESTART THE LAST DISPLAY WOULD BE
000179:                                                                                                  #        AD+1    OCT     10015           # RESTARTED AND A JOB WITH THE PREVIOUSLY
000180:                                                                                                  #        AD+2                            # STORED PRIORITY WOULD BE BEGUN AT AD+2
000181:                                                                                                  #                                        # BY MEANS OF GROUP 5
000182:                                                                                                  #  Page 1398
000183:                                                                                                  #  THE NOVAC-FINDVAC CHOICE FOR JOBS HOLDS HERE ALSO -- NEGATIVE PRIORITY CAUSES A NOVAC CALL, POSITIVE A FINDVAC.
000184:
000185:                                                                                                  #  SUMMARY OF BITS:
000186:                                                                                                  #        TYPE A          TL0 00P PPP PPP GGG
000187:                                                                                                  #        TYPE B          TL1 DAP PPP PPP GGG
000188:                                                                                                  #        TYPE C          TL0 1AD XXX CJW GGG
000189:
000190:                                                                                                  #  Page 1399
000191:                                                                                                  #  2PHSCHNG IS USED WHEN ONE WISHES TO START UP A GROUP OR CHANGE A GROUP WHILE UNDER THE CONTROL OF A DIFFERENT
000192:                                                                                                  #  GROUP.  FOR EXAMPLE, CHANGE THE PHASE OF GROUP 3 WHILE THE PORTION OF THE PROGRAM IS UNDER GROUP 5.  ALL 2PHSCHNG
000193:                                                                                                  #  CALLS ARE MADE IN THE FOLLOWING MANNER,
000194:                                                                                                  #                TC      2PHSCHNG
000195:                                                                                                  #                OCT     XXXXX
000196:                                                                                                  #                OCT     YYYYY
000197:                                                                                                  #  WHERE OCT XXXXX MUST BE OF TYPE A AND OCT YYYYY MAY BE OF EITHER TYPE A OR TYPE B OR TYPE C.  THERE IS ONE
000198:                                                                                                  #  DIFFERENCE --- NOTE: IF LONGBASE IS TO BE SET THIS INFORMATION IS GIVEN IN THE OCT YYYYY INFORMATION, IT WILL
000199:                                                                                                  #  BE DISREGARDED IF GIVEN WITH THE OCT XXXXX INFORMATION.  A COUPLE OF EXAMPLES MAY HELP,
000200:                                                                                                  #        AD      TC      2PHACHNG        # SET TBASE3 AND IF A RESTART OCCURS START
000201:                                                                                                  #        AD+1    OCT     40083           # THE TWO ENTRIES IN 3.8 TABLE LOCATION
000202:                                                                                                  #        AD+2    OCT     05025           # THIS IS OF TYPE C, SET THE JOB TO BE
000203:                                                                                                  #        AD+3    OCT     18000           # TO BE LOCATION AD+4, WITH A PRIORITY 18,
000204:                                                                                                  #        AD+4                            # FOR GROUP 5 PHASE INFORMATION.
000205:


000207:    5261  40,2000                                  SBANK=   PINSUPER


000209:    5261                                           COUNT    02/PHASE
000210:
000211:    5261           00004        2PHSCHNG           INHINT                                         #  THE ENTRY FOR A DOUBLE PHASE CHANGE
000212:    5262           50002                           NDX      Q
000213:    5263           30000                           CA       0
000214:    5264           24002                           INCR     Q
000215:    5265           54072                           TS       TEMPP2
000216:
000217:    5266           74716                           MASK     OCT7
000218:    5267           60000                           DOUBLE
000219:    5270           54071                           TS       TEMPG2
000220:
000221:    5271           30072                           CA       TEMPP2
000222:    5272           74765                           MASK     OCT17770                              #  NEED ONLY 1770, BUT WHY GET A NEW CONST.
000223:    5273           00006                           EXTEND
000224:    5274           74677                           MP       BIT12
000225:    5275           56072                           XCH      TEMPP2
000226:
000227:    5276           74674                           MASK     BIT15
000228:    5277           54066                           TS       TEMPSW2                               #  INDICATES WHETHER TO SET TBASE OR NOT
000229:
000230:    5300           15304                           TCF      PHASCHNG   +3
000231:
000232:    5301           00004        PHASCHNG           INHINT                                         #  NORMAL PHASCHNG ENTRY POINT.
000233:    5302           34712                           CA       ONE                                   #  INDICATES WE CAME FROM A PHASCHNG ENTRY
000234:    5303           54066                           TS       TEMPSW2
000235:
000236:    5304           50002                           NDX      Q
000237:    5305           30000                           CA       0
000238:    5306           24002                           INCR     Q
000239:    5307           54065                           TS       TEMPSW
000240:                                                                                                  #  Page 1400
000241:    5310           00006                           EXTEND
000242:    5311           35314                           DCA      ADRPCHN2                              #  OFF TO SWITCHED BANK
000243:    5312           52006                           DTCB
000244:
000245:    5313  E3,1400                                  EBANK=   LST1
000246:    5313           02355 20103  ADRPCHN2           2CADR    PHSCHNG2
000247:
000248:    5315           22073        ONEORTWO           LXCH     TEMPBBCN
000249:    5316           22006                           LXCH     BBANK
000250:    5317           22073                           LXCH     TEMPBBCN
000251:
000252:    5320           74761                           MASK     OCT14000                              #  SEE WHAT KIND OF PHASE CHANGE IT IS
000253:    5321           10000                           CCS      A
000254:    5322           15363                           TCF      CHECKB                                #  IT IS OF TYPE `B'.
000255:
000256:    5323           30062                           CA       TEMPP
000257:    5324           74704                           MASK     BIT7
000258:    5325           10000                           CCS      A                                     #  SHALL WE USE THE OLD PRIORITY
000259:    5326           15350                           TCF      GETPRIO                               #  NO GET A NEW PRIORITY (OR DELTA T)
000260:
000261:    5327           50061        OLDPRIO            NDX      TEMPG                                 #  USE THE OLD PRIORITY (OR DELTA T)
000262:    5330           31052                           CA       PHSPRDT1   -2
000263:    5331           54070                           TS       TEMPPR
000264:
000265:    5332           30062        CON1               CA       TEMPP                                 #  SEE IF A 2CADR IS GIVEN
000266:    5333           74703                           MASK     BIT8
000267:    5334           10000                           CCS      A
000268:    5335           15354                           TCF      GETNEWNM
000269:
000270:    5336           30002                           CA       Q
000271:    5337           54063                           TS       TEMPNM
000272:    5340           30006                           CA       BB
000273:    5341           00006                           EXTEND                                         #  PICK UP USER'S SUPERBANK
000274:    5342           04007                           ROR      SUPERBNK
000275:    5343           54064                           TS       TEMPBB
000276:
000277:    5344           35347        TOCON2             CA       CON2ADR                               #  BACK TO SWITCHED BANK
000278:    5345           22073                           LXCH     TEMPBBCN
000279:    5346           52006                           DTCB
000280:
000281:    5347           02443        CON2ADR            GENADR   CON2
000282:
000283:    5350           50002        GETPRIO            NDX      Q                                     #  DON'T CARE IF DIRECT OR INDIRECT
000284:    5351           30000                           CA       0                                     #  LEAVE THAT DECISION TO RESTARTS
000285:    5352           24002                           INCR     Q                                     #  OBTAIN RETURN ADDRESS
000286:    5353           15331                           TCF      CON1       -1
000287:
000288:    5354           00006        GETNEWNM           EXTEND
000289:                                                                                                  #  Page 1401
000290:    5355           50002                           INDEX    Q
000291:    5356           30001                           DCA      0
000292:    5357           52064                           DXCH     TEMPNM
000293:    5360           34711                           CA       TWO
000294:    5361           26002                           ADS      Q                                     #  OBTAIN RETURN ADDRESS
000295:
000296:    5362           15344                           TCF      TOCON2
000297:
000298:    5363     4761               OCT14000           EQUALS   PRIO14
000299:    5363     0061               TEMPG              EQUALS   ITEMP1
000300:    5363     0062               TEMPP              EQUALS   ITEMP2
000301:    5363     0063               TEMPNM             EQUALS   ITEMP3
000302:    5363     0064               TEMPBB             EQUALS   ITEMP4
000303:    5363     0065               TEMPSW             EQUALS   ITEMP5
000304:    5363     0066               TEMPSW2            EQUALS   ITEMP6
000305:    5363     0070               TEMPPR             EQUALS   RUPTREG1
000306:    5363     0071               TEMPG2             EQUALS   RUPTREG2
000307:    5363     0072               TEMPP2             EQUALS   RUPTREG3
000308:
000309:    5363     0073               TEMPBBCN           EQUALS   RUPTREG4
000310:    5363  0000006               BB                 EQUALS   BBANK
000311:
000312: 14,3744                                           BANK     14
000313: 10,2000                                           SETLOC   PHASETAB
000314: 10,2000                                           BANK
000315:
000316: 10,2355  E3,1436                                  EBANK=   PHSNAME1
000317: 10,2355                                           COUNT    10/PHASE
000318:
000319: 10,2355           22073        PHSCHNG2           LXCH     TEMPBBCN
000320: 10,2356           30065                           CA       TEMPSW
000321: 10,2357           74716                           MASK     OCT7
000322: 10,2360           60000                           DOUBLE
000323: 10,2361           54061                           TS       TEMPG
000324:
000325: 10,2362           30065                           CA       TEMPSW
000326: 10,2363           74765                           MASK     OCT17770
000327: 10,2364           00006                           EXTEND
000328: 10,2365           74677                           MP       BIT12
000329: 10,2366           54062                           TS       TEMPP
000330:
000331: 10,2367           30065                           CA       TEMPSW
000332: 10,2370           74105                           MASK     OCT60000
000333: 10,2371           56065                           XCH      TEMPSW
000334: 10,2372           74761                           MASK     OCT14000
000335: 10,2373           10000                           CCS      A
000336: 10,2374           15315                           TCF      ONEORTWO
000337:
000338:                                                                                                  #  Page 1402
000339: 10,2375           30062                           CA       TEMPP                                 #  START STORING THE PHASE INFORMATION
000340: 10,2376           50061                           NDX      TEMPG
000341: 10,2377           54751                           TS       PHASE1     -2
000342:
000343: 10,2400           10066        BELOW1             CCS      TEMPSW2                               #  IS IT A PHASCHNG OR A 2PHSCHNG
000344: 10,2401           12415                           TCF      BELOW2                                #  IT'S A PHASCHNG
000345:
000346: 10,2402           12403                           TCF      +1                                    #  IT'S A 2PHSCHNG
000347: 10,2403           40072                           CS       TEMPP2
000348: 10,2404           22072                           LXCH     TEMPP2
000349: 10,2405           50071                           NDX      TEMPG2
000350: 10,2406           52751                           DXCH     -PHASE1    -2
000351:
000352: 10,2407           10066                           CCS      TEMPSW2
000353: 10,2410           12411                           NOOP                                           #  CAN'T GET HERE
000354: 10,2411           12415                           TCF      BELOW2
000355:
000356: 10,2412           40025                           CS       TIME1
000357: 10,2413           50071                           NDX      TEMPG2
000358: 10,2414           55051                           TS       TBASE1     -2
000359:
000360: 10,2415           10065        BELOW2             CCS      TEMPSW                                #  SEE IF WE SHOULD SET TBASE OR LONGBASE
000361: 10,2416           12431                           TCF      BELOW3                                #  SET LONGBASE ONLY
000362: 10,2417           12434                           TCF      BELOW4                                #  SET NEITHER
000363:
000364: 10,2420           40025                           CS       TIME1                                 #  SET TBASE TO BEGIN WITH
000365: 10,2421           50061                           NDX      TEMPG
000366: 10,2422           55051                           TS       TBASE1     -2
000367:
000368: 10,2423           30065                           CA       TEMPSW                                #  SHALL WE NOW SET LONGBASE
000369: 10,2424           62427                           AD       BIT14COM
000370: 10,2425           10000                           CCS      A
000371: 10,2426           12427                           NOOP                                           #  ***** CAN'T GET HERE *****
000372: 10,2427           17777        BIT14COM           OCT      17777                                 #  ***** CAN'T GET HERE *****
000373: 10,2430           12434                           TCF      BELOW4                                #  NO WE NEED ONLY SET TBASE
000374:
000375: 10,2431           00006        BELOW3             EXTEND                                         #  SET LONGBASE
000376: 10,2432           30025                           DCA      TIME2
000377: 10,2433           53136                           DXCH     LONGBASE
000378:
000379: 10,2434           40062        BELOW4             CS       TEMPP                                 #  AND STORE THE FINAL PART OF THE PHASE
000380: 10,2435           50061                           NDX      TEMPG
000381: 10,2436           54750                           TS       -PHASE1    -2
000382:
000383: 10,2437           30002                           CA       Q
000384: 10,2440           22073                           LXCH     TEMPBBCN
000385: 10,2441           00003                           RELINT
000386: 10,2442           52006                           DTCB
000387: 10,2443           22073        CON2               LXCH     TEMPBBCN
000388:                                                                                                  #  Page 1403
000389: 10,2444           30062                           CA       TEMPP
000390: 10,2445           50061                           NDX      TEMPG
000391: 10,2446           54751                           TS       PHASE1     -2
000392:
000393: 10,2447           30070                           CA       TEMPPR
000394: 10,2450           50061                           NDX      TEMPG
000395: 10,2451           55052                           TS       PHSPRDT1   -2
000396:
000397: 10,2452           00006                           EXTEND
000398: 10,2453           30064                           DCA      TEMPNM
000399: 10,2454           50061                           NDX      TEMPG
000400: 10,2455           53435                           DXCH     PHSNAME1   -2
000401:
000402: 10,2456           12400                           TCF      BELOW1
000403:
000404:    5363                                           BLOCK    02
000405:    4000                                           SETLOC   FFTAG1
000406:    4000                                           BANK
000407:
000408:    5363                                           COUNT    02/PHASE
000409:
000410:    5363           74677        CHECKB             MASK     BIT12                                 #  SINCE THIS IS OF TYPE 8, THIS BIT WOULD
000411:    5364           10000                           CCS      A                                     #  BE HERE IF WE ARE TO GET A NEW PRIORITY
000412:    5365           15350                           TCF      GETPRIO                               #  IT IS, SO GET NEW PRIORITY
000413:
000414:    5366           15327                           TCF      OLDPRIO                               #  IT ISN'T, USE THE OLD PRIORITY.
000415:
000416:
000417:

End of include-file PHASE_TABLE_MAINTENANCE.agc.  Parent file is MAIN.agc


