
Source Code


000002:                                                                                                  ## Copyright:   Public domain.
000003:                                                                                                  ## Filename:    PHASE_TABLE_MAINTENANCE.agc
000004:                                                                                                  ## Purpose:     Part of the source code for Colossus, build 249.
000005:                                                                                                  ##              It is part of the source code for the Command Module's (CM)
000006:                                                                                                  ##              Apollo Guidance Computer (AGC), for Apollo 9.
000007:                                                                                                  ## Assembler:   yaYUL
000008:                                                                                                  ## Reference:   Starts on p. 1372
000009:                                                                                                  ## Contact:     Ron Burkey <info@sandroid.org>.
000010:                                                                                                  ## Website:     www.ibiblio.org/apollo.
000011:                                                                                                  ## Mod history: 08/30/04 RSB.   Adapted from corresponding Luminary131 file.
000012:                                                                                                  ##              2011-05-07 JL   Flagged SBANK= workarounds for future removal.
000013:                                                                                                  ##                              Removed workaround.
000014:                                                                                                  ##              2017-01-06 RSB  Page numbers now agree with those on the
000015:                                                                                                  ##                              original harcopy, as opposed to the PDF page
000016:                                                                                                  ##                              numbers in 1701.pdf.
000017:                                                                                                  ##              2017-01-18 RSB  Cross-diff'd comment text (not whitespace)
000018:                                                                                                  ##                              vs the already-proofed corresponding Colossus
000019:                                                                                                  ##                              237 and Comanche 55 source-code files
000020:                                                                                                  ##                              and corrected errors found.
000021:                                                                                                  ##              2017-06-17 MAS  Globally removed all SBANK= workarounds.
000022:                                                                                                  ##
000023:                                                                                                  ## The contents of the "Colossus249" files, in general, are transcribed
000024:                                                                                                  ## from a scanned copy of the program listing.  Notations on this
000025:                                                                                                  ## document read, in part:
000026:                                                                                                  ##
000027:                                                                                                  ##      Assemble revision 249 of AGC program Colossus by NASA
000028:                                                                                                  ##      2021111-041.  October 28, 1968.
000029:                                                                                                  ##
000030:                                                                                                  ##      This AGC program shall also be referred to as
000031:                                                                                                  ##                              Colossus 1A
000032:                                                                                                  ##
000033:                                                                                                  ##      Prepared by
000034:                                                                                                  ##                      Massachusetts Institute of Technology
000035:                                                                                                  ##                      75 Cambridge Parkway
000036:                                                                                                  ##                      Cambridge, Massachusetts
000037:                                                                                                  ##      under NASA contract NAS 9-4065.
000038:                                                                                                  ##
000039:                                                                                                  ## Refer directly to the online document mentioned above for further information.
000040:                                                                                                  ## Please report any errors (relative to the scanned pages) to info@sandroid.org.
000041:                                                                                                  ##
000042:                                                                                                  ## In some cases, where the source code for Luminary 131 overlaps that of
000043:                                                                                                  ## Colossus 249, this code is instead copied from the corresponding Luminary 131
000044:                                                                                                  ## source file, and then is proofed to incorporate any changes.
000045:


000047:                                                                                                  #  SUBROUTINE TO UPDATE THE PROGRAM NUMBER DISPLAY ON THE DSKY.
000048:
000049: 43,3722                                           COUNT    02/PHASE
000050:    5243                                           BLOCK    02
000051:    4000                                           SETLOC   FFTAG1
000052:    4000                                           BANK
000053:
000054:    5243           50002        NEWMODEX           INDEX    Q                                     #  UPDATE MODREG.  ENTRY FOR MODE IN FIXED.
000055:    5244           30000                           CAF      0
000056:    5245           24002                           INCR     Q
000057:
000058:    5246           55011        NEWMODEA           TS       MODREG                                #  ENTRY FOR MODE IN A.
000059:    5247           35252        MMDSPLAY           CAF      +3                                    #  DISPLAY MAJOR MODE.
000060:    5250           22006        PREBJUMP           LXCH     BBANK                                 #  PUTS BBANK IN L
000061:    5251           14577                           TCF      BANKJUMP                              #  PUTS Q INTO A
000062:    5252           20344                           CADR     SETUPDSP
000063:
000064:                                                                                                  #  RETURN TO CALLER +3 IF MODE = THAT AT CALLER +1.  OTHERWISE RETURN TO CALLER +2.
000065:
000066:    5253           50002        CHECKMM            INDEX    Q
000067:    5254           40000                           CS       0
000068:    5255           61011                           AD       MODREG
000069:    5256           00006                           EXTEND
000070:    5257           16710                           BZF      Q+2
000071:    5260           16706                           TCF      Q+1                                   #  NO MATCH
000072:
000073:    5261     6711               TCQ                =        Q+2        +1
000074:
000075: 14,3744                                           BANK     14
000076: 10,2000                                           SETLOC   PHASETAB
000077: 10,2000                                           BANK
000078:
000079: 10,2344                                           COUNT    10/PHASE
000080:
000081: 10,2344           00004        SETUPDSP           INHINT
000082: 10,2345           52071                           DXCH     RUPTREG1                              #  SAVE CALLER-S RETURN 2CADR
000083: 10,2346           34371                           CAF      PRIO30                                #        EITHER A TASK OR JOB CAN COME TO
000084: 10,2347           05027                           TC       NOVAC                                 #        NEWMODE X
000085: 10,2350     1011                                  EBANK=   MODREG
000086: 10,2350           03435 60102                     2CADR    DSPMMJOB
000087:
000088: 10,2352           52071                           DXCH     RUPTREG1
000089: 10,2353           00003                           RELINT
000090: 10,2354           52006                           DXCH     Z                                     #  RETURN
000091:
000092: 10,2355  40,3435               DSPMMJOB           EQUALS   DSPMMJB
000093:
000094:    5261                                           BLOCK    02


000096:    4000                                           SETLOC   FFTAG1
000097:    4000                                           BANK
000098:


000100:                                                                                                  #  PHASCHNG IS THE MAIN WAY OF MAKING PHASE CHANGES FOR RESTARTS.  THERE ARE THREE FORMS OF PHASCHNG, KNOWN AS TYPE
000101:                                                                                                  #  A, TYPE B, AND TYPE C.  THEY ARE ALL CALLED AS FOLLOWS, WHERE OCT XXXXX CONTAINS THE PHASE INFORMATION,
000102:                                                                                                  #                TC      PHASCHNG
000103:                                                                                                  #                OCT     XXXXX
000104:                                                                                                  #  TYPE A IS CONCERNED WITH FIXED PHASE CHANGES, THAT IS, PHASE INFORMATION THAT IS STORED PERMANENTLY.  THESE
000105:                                                                                                  #  OPTIONS ARE, WHERE G STANDS FOR A GROUP AND .X FOR THE PHASE,
000106:                                                                                                  #        G.0             INACTIVE, WILL NOT PERMIT A GROUP G RESTART
000107:                                                                                                  #        G.1             WILL CAUSE THE LAST DISPLAY TO BE REACTIVATED, USED MAINLY IN MANNED FLIGHTS
000108:                                                                                                  #        G.EVEN          A DOUBLE TABLE RESTART, CAN CAUSE ANY COMBINATION OF TWO JOBS, TASKS, AND/OR
000109:                                                                                                  #                        LONGCALL TO BE RESTARTED.
000110:                                                                                                  #        G.ODD NOT .1    A SINGLE TABLE RESTART, CAN CAUSE EITHER A JOB, TASK, OR LONGCALL RESTART
000111:
000112:                                                                                                  #  THIS INFORMATION IS PUT INTO THE OCTAL WORD AFTER TC PHASCHNG AS FOLLOWS
000113:                                                                                                  #        TL0 00P PPP PPP GGG                                               ,
000114:                                                                                                  #  WHERE EACH LETTER OR NUMBER STANDS FOR A BIT.  THE G:S STAND FOR THE GROUP, OCTAL 1-7, THE P:S FOR THE PHASE,
000115:                                                                                                  #  OCTAL 0 - 127.  0:S MUST BE 0.  IF ONE WISHES TO HAVE THE TBASE OF GROUP G TO BE SET AT THIS TIME,
000116:                                                                                                  #  T IS SET TO 1, OTHERWISE IT IS SET TO 0.  SIMIARLY IF ONE WISHES TO SET LONGBASE, THEN L IS SET TO 1, OTHERWISE
000117:                                                                                                  #  IT IS SET TO 0.  SOME EXAMPLES,
000118:                                                                                                  #                TC      PHASCHNG        THIS WILL CAUSE GROUP 3 TO BE SET TO 0,
000119:                                                                                                  #                OCT     00003           MAKING GROUP 3 INACTIVE
000120:
000121:                                                                                                  #                TC      PHASCHNG        IF A RESTART OCCURS THIS WOULD CAUSE
000122:                                                                                                  #                OCT     00012           GROUP 2 TO RESTART THE LAST DISPLAY
000123:
000124:                                                                                                  #                TC      PHASCHNG        THIS SETS THE TBASE OF GROUP 4 AND IN
000125:                                                                                                  #                OCT     40064           CASE OF A RESTART WOULD START UP THE TWO
000126:                                                                                                  #                                        THINGS LOCATED IN THE DOUBLE 4.6 RESTART
000127:                                                                                                  #                                        LOCATION
000128:
000129:                                                                                                  #                TC      PHASCHNG        THIS SETS LONGBASE AND UPON A RESTART
000130:                                                                                                  #                OCT     20135           CAUSES 5.13 TO BE RESTARTED (SINCE
000131:                                                                                                  #                                        LONGBASE WAS SET THIS SINGLE ENTRY
000132:                                                                                                  #                                        SHOULD BE A LONGCALL)
000133:
000134:                                                                                                  #                TC      PHASCHNG        SINCE BOTH TBASE4 AND LONGBASE ARE SET,
000135:                                                                                                  #                OCT     60124           4.12 SHOULD CONTAIN BOTH A TASK AND A
000136:                                                                                                  #                                        LONGCALL TO BE RESTARTED
000137:
000138:                                                                                                  #  TYPE C PHASCHNG CONTAINS THE VARIABLE TYPE OF PHASCHNG INFORMATION.  INSTEAD OF THE INFORMATION BEING IN A
000139:                                                                                                  #  PERMANENT FORM, ONE STORES THE DESIRED RESTART INFORMATION IN A VARIABKE LOCATION.  THE BITS ARE AS FOLLOWS,
000140:                                                                                                  #        TL0 1AD XXX CJW GGG
000141:                                                                                                  #  WHERE EACH LETTER OR NUMBER STANDS FOR A BIT.  THE G:S STAND FOR THE GROUP, OCTAL 1 - 7.  IF THE RESTART IS TO
000142:                                                                                                  #  BE BY WAITLIST, W IS SET TO 1, IF IT IS A JOB, J IS SET TO 1, IF IT IS A LONGCALL, C IS SET TO 1.  ONLY ONE OF
000143:                                                                                                  #  THESE THREE BITS MAY BE SET.  X:S ARE IGNORED  1 MUST BE 1, AND 0 MUST BE 0.  AGAIN T STANDS FOR THE TBASE,


000145:                                                                                                  #  AND L FOR LONGBASE.  THE BITS A AND D ARE CONCERNED WITH THE VARIABLE INFORMATION.  IF D IS SET TO 1, A PRIORITY
000146:                                                                                                  #  OR DELTA TIME WILL BE READ FROM THE NEXT LOCATION AFTER THE OCTAL INFORMATION, IF THIS IS TO BE INDIRECT, THAT
000147:                                                                                                  #  IS, THE NAME OF A LOCATION COMT+INING THE INFORMATION (DELTA TIME ONLY), THEN THIS IS GIVEN AS THE -GENADR OF
000148:                                                                                                  #  THAT LOCATION WHICH CONTAINS THE DELTA TIME.  IF THE OLD PRIORITY OR DELTA TIME IS TO BE USED, THAT WHICH IS
000149:                                                                                                  #  ALREADY IN THE VARIABLE STORAGE, THEN D IS SET TO 0.  NEXT THE A BIT IS USED.  IF IT IS SET TO 0, THE ADDRESS
000150:                                                                                                  #  THAT WOULD BE RESTARTED DURING A RESTART IS THE NEXT LOCATION AFTER THE PHASE INFORMATION, THAT IS, EITHER
000151:                                                                                                  #  (TC PHASCHNG) +2 OR +3, DEPENDING ON WHETHER D HAD BEEN SET OR NOT.  IF A IS SET TO 1, THEN THE ADDRESS THAT
000152:                                                                                                  #  WOULD BE RESTARTED IS THE 2CADR THAT IS READ FROM THE NEXT TWO LOCATIONS.  EXAMPLES,
000153:                                                                                                  #        AD      TC      PHASCHNG        THIS WOULD CAUSE LOCATION AD +3 TO BE
000154:                                                                                                  #        AD+1    OCT     05023           RESTARTED BY GROUP THREE WITH A PRIORITY
000155:                                                                                                  #        AD+2    OCT     23000           OF 23.  NOTE UPON RETURNING IT WOULD
000156:                                                                                                  #        AD+3                            ALSO GO TO AD+3
000157:
000158:                                                                                                  #        AD      TC      PHASCHNG        GROUP 1 WOULD CAUSE CAUSE CALLCALL TO
000159:                                                                                                  #        AD+1    OCT     27441           BE STARTED AS A LONGCALL FROM THE TIME
000160:                                                                                                  #        AD+2    -GENADR DELTIME         STORED IN LONGBASE (LONGBASE WAS SET) BY
000161:                                                                                                  #        AD+3    2CADR   CALLCALL        A DELTA TIME STORED IN DELTIME.  THE
000162:                                                                                                  #        AD+4                            BBCON OF THE 2CADR SHOULD CONTAIN THE E
000163:                                                                                                  #        AD+5                            BANK OF DELTIME.  PHASCHNG RETURNS TO
000164:                                                                                                  #                                        LOCATION AD+5
000165:
000166:                                                                                                  #  NOTE THAT IF A VARIABLE PRIORITY IS GIVEN FOR A JOB, THE JOB WILL BE RESTARTED AS A NOVAC IF THE PRIORITY IS
000167:                                                                                                  #  NEGATIVE, AS A FINDVAC IF THE PRIORITY IS POSITIVE.
000168:
000169:                                                                                                  #  TYPE B PHASCHNG IS A COMBINATION OF VARIABLE AND FIXED PHASE CHANGES.  IT WILL START UP A JOB AS INDICATED
000170:                                                                                                  #  BELOW AND ALSO START UP ONE FIXED RESTART, THAT IS EITHER AN G.1 OR A G.ODD OR THE FIRST ENTRY OF G.EVEN
000171:                                                                                                  #  DOUBLE ENTRY.  THE BIT INFORMATION IS AS FOLLOWS,
000172:                                                                                                  #        TL1 DAP PPP PPP GGG
000173:                                                                                                  #  WHERE EACH LETTER OR NUMBER STANDS FOR A BIT.  THE G:S STAND FOR THE GROUP, OCTAL 1 - 7. THE P:S FOR THE FIXED
000174:                                                                                                  #  PHASE INFORMATION, OCTAL 0 - 127.  1 MUST BE 1.  AND AGAIN T STANDS FOR THE TBASE AND L FOR LONGBASE.  D THIS
000175:                                                                                                  #  TIME STANDS ONLY FOR PRIORITY SINCE THIS WILL BE CONSIDERED A JOB, AND IT MUST BE GIVEN DIRECTLY IF GIVEN.
000176:                                                                                                  #  AGAIN A STANDS FOR THE ADDRESS OF THE LOCATION TO BE RESTARTED, 1 IF THE 2CADR IS GIVEN, OR 0 IF IT IS TO BE
000177:                                                                                                  #  THE NEXT LOCATION.  (THE RETURN LOCATION OF PHASCHNG) EXAMPLES,
000178:                                                                                                  #        AD      TC      PHASCHNG        TBASE IS SET AND A RESTART CAUSE GROUP 3
000179:                                                                                                  #        AD+1    OCT     56043           TO START THE JOB AJOBAJOB WITH PRIORITY
000180:                                                                                                  #        AD+2    OCT     31000           31 AND THE FIRST ENTRY OF 3.4SPOT (WE CAN
000181:                                                                                                  #        AD+3    2CADR   AJOBAJOB        ASSUME IT IS A TASK SINCE WE SET TBASE3)
000182:                                                                                                  #        AD+4                            UPON RETURN FROM PHASCHNG CONTROL WOULD
000183:                                                                                                  #        AD+5                            GO TO AD+5
000184:
000185:                                                                                                  #        AD      TC      PHASCHNG        UPON A RESTART THE LAST DISPLAY WOULD BE
000186:                                                                                                  #        AD+1    OCT     10015           RESTARTED AND A JOB WITH THE PREVIOUSLY
000187:                                                                                                  #        AD+2                            STORED PRIORITY WOULD BE BEGUN AT AD+2
000188:                                                                                                  #                                        BY MEANS OF GROUP 5


000190:                                                                                                  #  THE NOVAC-FINDVAC CHOICE FOR JOBS HOLDS HERE ALSO - NEGATIVE PRIORITY CAUSES A NOVAC CALL, POSITIVE A FINDVAC.
000191:
000192:                                                                                                  #  SUMMARY OF BITS
000193:                                                                                                  #        TYPE A          TL0 00P PPP PPP GGG
000194:                                                                                                  #        TYPE B          TL1 DAP PPP PPP GGG
000195:                                                                                                  #        TYPE C          TL0 1AD XXX CJW GGG
000196:


000198:                                                                                                  #  2PHSCHNG IS USED WHEN ONE WISHES TO START UP A GROUP OR CHANGE A GROUP WHILE UNDER THE CONTROL OF A DIFFERENT
000199:                                                                                                  #  GROUP.  FOR EXAMPLE, CHANGE THE PHASE OF GROUP 3 WHILE THE PORTION OF THE PROGRAM IS UNDER GROUP 5.  ALL 2PHSCHNG
000200:                                                                                                  #  CALLS ARE MADE IN THE FOLLOWING MANNER,
000201:                                                                                                  #                TC      2PHSCHNG
000202:                                                                                                  #                OCT     XXXXX
000203:                                                                                                  #                OCT     YYYYY
000204:                                                                                                  #  WHERE OCT XXXXX MUST BE OF TYPE A AND OCT YYYYY MAY BE OF EITHER TYPE A OR TYPE B OR TYPE C.  THERE IS ONE
000205:                                                                                                  #  DIFFERENCE --- NOTE- IF LONGBASE IS TO BE SET THIS INFORMATION IS GIVEN IN THE OCT YYYYY INFORMATION, IT WILL
000206:                                                                                                  #  BE DISREGARDED IF GIVEN WITH THE OCT XXXXX INFORMATION.  A COUPLE OF EXAMPLES MAY HELP,
000207:                                                                                                  #        AD      TC      2PHSCHNG        SET TBASE3 AND IF A RESTART OCCURS START
000208:                                                                                                  #        AD+1    OCT     40083           THE TWO ENTRIES IN 3.8 TABLE LOCATION
000209:                                                                                                  #        AD+2    OCT     05025           THIS IS OF TYPE C, SET THE JOB TO BE
000210:                                                                                                  #        AD+3    OCT     18000           TO BE LOCATION AD+4, WITH A PRIORITY 18,
000211:                                                                                                  #        AD+4                            FOR GROUP 5 PHASE INFORMATION
000212:
000213:    5261                                           COUNT    02/PHASE
000214:
000215:    5261           00004        2PHSCHNG           INHINT                                         #  THE ENTRY FOR A DOUBLE PHASE CHANGE
000216:    5262           50002                           NDX      Q
000217:    5263           30000                           CA       0
000218:    5264           24002                           INCR     Q
000219:    5265           54072                           TS       TEMPP2
000220:
000221:    5266           74716                           MASK     OCT7
000222:    5267           60000                           DOUBLE
000223:    5270           54071                           TS       TEMPG2
000224:
000225:    5271           30072                           CA       TEMPP2
000226:    5272           74765                           MASK     OCT17770                              #  NEED ONLY 1770, BUT WHY GET A NEW CONST.
000227:    5273           00006                           EXTEND
000228:    5274           74677                           MP       BIT12
000229:    5275           56072                           XCH      TEMPP2
000230:
000231:    5276           74674                           MASK     BIT15
000232:    5277           54066                           TS       TEMPSW2                               #  INDICATES WHETHER TO SET TBASE OR NOT
000233:
000234:    5300           15304                           TCF      PHASCHNG   +3
000235:
000236:    5301           00004        PHASCHNG           INHINT
000237:    5302           34712                           CA       ONE                                   #  INDICATES WE CAME FROM A PHASCHNG ENTRY
000238:    5303           54066                           TS       TEMPSW2
000239:
000240:    5304           50002                           NDX      Q
000241:    5305           30000                           CA       0
000242:    5306           24002                           INCR     Q
000243:    5307           54065                           TS       TEMPSW


000245:    5310           00006                           EXTEND
000246:    5311           35314                           DCA      ADRPCHN2                              #  OFF TO SWITCHED BANK
000247:    5312           52006                           DTCB
000248:
000249:    5313  E3,1400                                  EBANK=   LST1
000250:    5313           02355 20103  ADRPCHN2           2CADR    PHSCHNG2
000251:
000252:    5315           22073        ONEORTWO           LXCH     TEMPBBCN
000253:    5316           22006                           LXCH     BBANK
000254:    5317           22073                           LXCH     TEMPBBCN
000255:
000256:    5320           74761                           MASK     OCT14000                              #  SEE WHAT KIND OF PHASE CHANGE IT IS
000257:    5321           10000                           CCS      A
000258:    5322           15363                           TCF      CHECKB                                #  IT IS OF TYPE :B:
000259:
000260:    5323           30062                           CA       TEMPP
000261:    5324           74704                           MASK     BIT7
000262:    5325           10000                           CCS      A                                     #  SHALL WE USE THE OLD PRIORITY
000263:    5326           15350                           TCF      GETPRIO                               #  NO GET A NEW PRIORITY (OR DELTA T)
000264:
000265:    5327           50061        OLDPRIO            NDX      TEMPG                                 #  USE THE OLD PRIORITY (OR DELTA T)
000266:    5330           31052                           CA       PHSPRDT1   -2
000267:    5331           54070                           TS       TEMPPR
000268:
000269:    5332           30062        CON1               CA       TEMPP                                 #  SEE IF A 2CADR IS GIVEN
000270:    5333           74703                           MASK     BIT8
000271:    5334           10000                           CCS      A
000272:    5335           15354                           TCF      GETNEWNM
000273:
000274:    5336           30002                           CA       Q
000275:    5337           54063                           TS       TEMPNM
000276:    5340           30006                           CA       BB
000277:    5341           00006                           EXTEND                                         #  PICK UP USERS SUPERBANK
000278:    5342           04007                           ROR      SUPERBNK
000279:    5343           54064                           TS       TEMPBB
000280:
000281:    5344           35347        TOCON2             CA       CON2ADR                               #  BACK TO SWITCHED BANK
000282:    5345           22073                           LXCH     TEMPBBCN
000283:    5346           52006                           DTCB
000284:
000285:    5347           02443        CON2ADR            GENADR   CON2
000286:
000287:    5350           50002        GETPRIO            NDX      Q                                     #  DON:T CARE IF DIRECT OR INDIRECT
000288:    5351           30000                           CA       0                                     #  LEAVE THAT DECISION TO RESTARTS
000289:    5352           24002                           INCR     Q                                     #  OBTAIN RETURN ADDRESS
000290:    5353           15331                           TCF      CON1       -1
000291:
000292:    5354           00006        GETNEWNM           EXTEND


000294:    5355           50002                           INDEX    Q
000295:    5356           30001                           DCA      0
000296:    5357           52064                           DXCH     TEMPNM
000297:    5360           34711                           CA       TWO
000298:    5361           26002                           ADS      Q                                     #  OBTAIN RETURN ADDRESS
000299:
000300:    5362           15344                           TCF      TOCON2
000301:
000302:    5363     4761               OCT14000           EQUALS   PRIO14
000303:    5363     0061               TEMPG              EQUALS   ITEMP1
000304:    5363     0062               TEMPP              EQUALS   ITEMP2
000305:    5363     0063               TEMPNM             EQUALS   ITEMP3
000306:    5363     0064               TEMPBB             EQUALS   ITEMP4
000307:    5363     0065               TEMPSW             EQUALS   ITEMP5
000308:    5363     0066               TEMPSW2            EQUALS   ITEMP6
000309:    5363     0070               TEMPPR             EQUALS   RUPTREG1
000310:    5363     0071               TEMPG2             EQUALS   RUPTREG2
000311:    5363     0072               TEMPP2             EQUALS   RUPTREG3
000312:
000313:    5363     0073               TEMPBBCN           EQUALS   RUPTREG4
000314:    5363  0000006               BB                 EQUALS   BBANK
000315:
000316: 14,3744                                           BANK     14
000317: 10,2000                                           SETLOC   PHASETAB
000318: 10,2000                                           BANK
000319:
000320: 10,2355  E3,1436                                  EBANK=   PHSNAME1
000321: 10,2355                                           COUNT    10/PHASE
000322:
000323: 10,2355           22073        PHSCHNG2           LXCH     TEMPBBCN
000324: 10,2356           30065                           CA       TEMPSW
000325: 10,2357           74716                           MASK     OCT7
000326: 10,2360           60000                           DOUBLE
000327: 10,2361           54061                           TS       TEMPG
000328:
000329: 10,2362           30065                           CA       TEMPSW
000330: 10,2363           74765                           MASK     OCT17770
000331: 10,2364           00006                           EXTEND
000332: 10,2365           74677                           MP       BIT12
000333: 10,2366           54062                           TS       TEMPP
000334:
000335: 10,2367           30065                           CA       TEMPSW
000336: 10,2370           74105                           MASK     OCT60000
000337: 10,2371           56065                           XCH      TEMPSW
000338: 10,2372           74761                           MASK     OCT14000
000339: 10,2373           10000                           CCS      A
000340: 10,2374           15315                           TCF      ONEORTWO
000341:


000343: 10,2375           30062                           CA       TEMPP                                 #  START STORING THE PHASE INFORMATION
000344: 10,2376           50061                           NDX      TEMPG
000345: 10,2377           54751                           TS       PHASE1     -2
000346:
000347: 10,2400           10066        BELOW1             CCS      TEMPSW2                               #  IS IT A PHASCHNG OR A 2PHSCHNG
000348: 10,2401           12415                           TCF      BELOW2                                #  IT:S A PHASCHNG
000349:
000350: 10,2402           12403                           TCF      +1                                    #  IT:S A 2PHSCHNG
000351: 10,2403           40072                           CS       TEMPP2
000352: 10,2404           22072                           LXCH     TEMPP2
000353: 10,2405           50071                           NDX      TEMPG2
000354: 10,2406           52751                           DXCH     -PHASE1    -2
000355:
000356: 10,2407           10066                           CCS      TEMPSW2
000357: 10,2410           12411                           NOOP                                           #  CAN:T GET HERE
000358: 10,2411           12415                           TCF      BELOW2
000359:
000360: 10,2412           40025                           CS       TIME1
000361: 10,2413           50071                           NDX      TEMPG2
000362: 10,2414           55051                           TS       TBASE1     -2
000363:
000364: 10,2415           10065        BELOW2             CCS      TEMPSW                                #  SEE IF WE SHOULD SET TBASE OR LONGBASE
000365: 10,2416           12431                           TCF      BELOW3                                #  SET LONGBASE ONLY
000366: 10,2417           12434                           TCF      BELOW4                                #  SET NEITHER
000367:
000368: 10,2420           40025                           CS       TIME1                                 #  SET TBASE TO BEGIN WITH
000369: 10,2421           50061                           NDX      TEMPG
000370: 10,2422           55051                           TS       TBASE1     -2
000371:
000372: 10,2423           30065                           CA       TEMPSW                                #  SHALL WE NOW SET LONGBASE
000373: 10,2424           62427                           AD       BIT14COM
000374: 10,2425           10000                           CCS      A
000375: 10,2426           12427                           NOOP                                           #  ***** CANT GET HERE *****
000376: 10,2427           17777        BIT14COM           OCT      17777                                 #  ***** CANT GET HERE *****
000377: 10,2430           12434                           TCF      BELOW4                                #  NO WE NEED ONLY SET TBASE
000378:
000379: 10,2431           00006        BELOW3             EXTEND                                         #  SET LONGBASE
000380: 10,2432           30025                           DCA      TIME2
000381: 10,2433           53136                           DXCH     LONGBASE
000382:
000383: 10,2434           40062        BELOW4             CS       TEMPP                                 #  AND STORE THE FINAL PART OF THE PHASE
000384: 10,2435           50061                           NDX      TEMPG
000385: 10,2436           54750                           TS       -PHASE1    -2
000386:
000387: 10,2437           30002                           CA       Q
000388: 10,2440           22073                           LXCH     TEMPBBCN
000389: 10,2441           00003                           RELINT
000390: 10,2442           52006                           DTCB
000391: 10,2443           22073        CON2               LXCH     TEMPBBCN


000393: 10,2444           30062                           CA       TEMPP
000394: 10,2445           50061                           NDX      TEMPG
000395: 10,2446           54751                           TS       PHASE1     -2
000396:
000397: 10,2447           30070                           CA       TEMPPR
000398: 10,2450           50061                           NDX      TEMPG
000399: 10,2451           55052                           TS       PHSPRDT1   -2
000400:
000401: 10,2452           00006                           EXTEND
000402: 10,2453           30064                           DCA      TEMPNM
000403: 10,2454           50061                           NDX      TEMPG
000404: 10,2455           53435                           DXCH     PHSNAME1   -2
000405:
000406: 10,2456           12400                           TCF      BELOW1
000407:
000408:    5363                                           BLOCK    02
000409:    4000                                           SETLOC   FFTAG1
000410:    4000                                           BANK
000411:
000412:    5363                                           COUNT    02/PHASE
000413:
000414:    5363           74677        CHECKB             MASK     BIT12                                 #  SINCE THIS IS OF TYPE B, THIS BIT SHOULD
000415:    5364           10000                           CCS      A                                     #  BE HERE IF WE ARE TO GET A NEW PRIORITY
000416:    5365           15350                           TCF      GETPRIO                               #  IT IS, SO GET NEW PRIORITY
000417:
000418:    5366           15327                           TCF      OLDPRIO                               #  IT ISN:T, USE THE OLD PRIORITY
000419:
000420:
000421:

End of include-file PHASE_TABLE_MAINTENANCE.agc.  Parent file is MAIN.agc


