
Source Code


000002:                                                                                                  ## Copyright:   Public domain.
000003:                                                                                                  ## Filename:    PINBALL_GAME_BUTTONS_AND_LIGHTS.agc
000004:                                                                                                  ## Purpose:     Part of the source code for Colossus, build 249.
000005:                                                                                                  ##              It is part of the source code for the Command Module's (CM)
000006:                                                                                                  ##              Apollo Guidance Computer (AGC), possibly for Apollo 8 and 9.
000007:                                                                                                  ## Assembler:   yaYUL
000008:                                                                                                  ## Reference:   pp. 304-384 of 1701.pdf.
000009:                                                                                                  ## Contact:     Ron Burkey <info@sandroid.org>.
000010:                                                                                                  ## Website:     www.ibiblio.org/apollo.
000011:                                                                                                  ## Mod history: 08/09/04 RSB.   Began adapting from corresponding Luminary131
000012:                                                                                                  ##                              source file.
000013:                                                                                                  ##
000014:                                                                                                  ## The contents of the "Colossus249" files, in general, are transcribed
000015:                                                                                                  ## from a scanned document obtained from MIT's website,
000016:                                                                                                  ## http://hrst.mit.edu/hrs/apollo/public/archive/1701.pdf.  Notations on this
000017:                                                                                                  ## document read, in part:
000018:                                                                                                  ##
000019:                                                                                                  ##      Assemble revision 249 of AGC program Colossus by NASA
000020:                                                                                                  ##      2021111-041.  October 28, 1968.
000021:                                                                                                  ##
000022:                                                                                                  ##      This AGC program shall also be referred to as
000023:                                                                                                  ##                              Colossus 1A
000024:                                                                                                  ##
000025:                                                                                                  ##      Prepared by
000026:                                                                                                  ##                      Massachusetts Institute of Technology
000027:                                                                                                  ##                      75 Cambridge Parkway
000028:                                                                                                  ##                      Cambridge, Massachusetts
000029:                                                                                                  ##      under NASA contract NAS 9-4065.
000030:                                                                                                  ##
000031:                                                                                                  ## Refer directly to the online document mentioned above for further information.
000032:                                                                                                  ## Please report any errors (relative to 1701.pdf) to info@sandroid.org.
000033:                                                                                                  ##
000034:                                                                                                  ## In some cases, where the source code for Luminary 131 overlaps that of
000035:                                                                                                  ## Colossus 249, this code is instead copied from the corresponding Luminary 131
000036:                                                                                                  ## source file, and then is proofed to incorporate any changes.
000037:


000039:                                                                                                  #  PROGRAM NAME -- KEYBOARD AND DISPLAY PROGRAM
000040:                                                                                                  #  MOD NO -- 4           DATE -- 27 APRIL 1967           ASSEMBLY -- PINDISK REV 17
000041:                                                                                                  #  MOD BY -- FILENE
000042:                                                                                                  #  LOG SECTION -- PINBALL GAME BUTTONS AND LIGHTS
000043:
000044:                                                                                                  #  FUNCTIONAL DESCRIPTION
000045:
000046:                                                                                                  #  THE KEYBOARD AND DISPLAY SYSTEM PROGRAM OPERATES UNDER EXECUTIVE
000047:                                                                                                  #  CONTROL AND PROCESSES INFORMATION EXCHANGED BETWEEN THE AGC AND THE
000048:                                                                                                  #  COMPUTER OPERATOR.  THE INPUTS TO THE PROGRAM ARE FROM THE KEYBOARD,
000049:                                                                                                  #  FROM INTERNAL PROGRAM, AND FROM THE UPLINK.
000050:
000051:                                                                                                  #  THE LANGUAGE OF COMMUNICATION WITH THE PROGRAM IS A PAIR OF WORDS
000052:                                                                                                  #  KNOWN AS VERB AND NOUN.  EACH OF THESE IS REPRESENTED BY A 2 CHARACTER
000053:                                                                                                  #  DECIMAL NUMBER.  THE VERB CODE INDICATES WHAT ACTION IS TO BE TAKEN, THE
000054:                                                                                                  #  NOUN CODE INDICATES TO WHAT THIS ACTION IS APPLIED.  NOUNS USUALLY
000055:                                                                                                  #  REFER TO A GROUP OF ERASABLE REGISTERS.
000056:
000057:                                                                                                  #  VERBS ARE GROUPED INTO DISPLAYS, LOADS, MONITORS (DISPLAYS THAT ARE
000058:                                                                                                  #  UPDATED ONCE PER SECOND), SPECIAL FUNCTIONS, AND EXTENDED VERBS (THESE
000059:                                                                                                  #  ARE OUTSIDE OF THE DOMAIN OF PINBALL AND CAN BE FOUND UNDER LOG SECTION
000060:                                                                                                  #  `EXTENDED VERBS').
000061:
000062:                                                                                                  #  A LIST OF VERBS AND NOUNS IS GIVEN IN LOG SECTION `ASSEMBLY AND
000063:                                                                                                  #  OPERATION INFORMATION'.
000064:
000065:                                                                                                  #  CALLING SEQUENCES --
000066:
000067:                                                                                                  #  KEYBOARD:
000068:                                                                                                  #  EACH DEPRESSION OF A MAIN (NAVIGATION) KEYBOARD BUTTON ACTIVATES
000069:                                                                                                  #  INTERRUPT KEYRUPT1 (KEYRUPT2) AND PLACES THE 5 BIT KEY CODE INTO
000070:                                                                                                  #  CHANNEL 15 (CHANNEL 16).  KEYRUPT1 (KEYRUPT2) PLACES THE KEY
000071:                                                                                                  #  CODE INTO MPAC, ENTERS AN EXECUTIVE REQUEST FOR THE KEYBOARD AND DISPLAY
000072:                                                                                                  #  PROGRAM (AT `CHARIN'), AND EXECUTES A RESUME.
000073:
000074:                                                                                                  #  UPLINK:
000075:                                                                                                  #  EACH WORD RECEIVED BY THE UPLINK ACTIVATES INTERRUPT UPRUPT, WHICH
000076:                                                                                                  #  PLACES THE 5 BIT KEY CODE INTO MPAC, ENTERS AN EXECUTIVE REQUEST FOR THE
000077:                                                                                                  #  KEYBOARD AND DISPLAY PROGRAM (AT `CHARIN') AND EXECUTES A RESUME.
000078:
000079:                                                                                                  #  INTERNAL PROGRAMS:
000080:                                                                                                  #  INTERNAL PROGRAMS CALL PINBALL AT `NVSUB' WITH THE DESIRED VERB/NOUN
000081:                                                                                                  #  CODE IN A (LOW 7 BITS FOR NOUN, NEXT 7 BITS FOR VERB).  DETAILS
000082:                                                                                                  #  DESCRIBED ON REMARKS CARDS JUST BEFORE `NVSUB' AND `NVSBWAIT' (SEE
000083:                                                                                                  #  SYMBOL TABLE FOR PAGE NUMBERS).
000084:
000085:                                                                                                  #  NORMAL EXIT MODES --
000086:
000087:                                                                                                  #        IF PINBALL WAS CALLED BY EXTERNAL ACTION, THERE ARE FOUR EXITS:
000088:                                                                                                  #                1)      ALL BUT (2), (3), AND (4) EXIT DIRECTLY TO ENDOFJOB.


000090:                                                                                                  #                2)      EXTENDED VERBS TO TO THE EXTENDED VERB FAN AS PART OF THE
000091:                                                                                                  #                        PINBALL EXECUTIVE JOB WITH PRIORITY 30000.  IT IS THE
000092:                                                                                                  #                        RESPONSIBILITY OF THE EXTEDED VERB CALLED TO EVENTUALLY
000093:                                                                                                  #                        CHANGE PRIORITY (IF NECESSARY) AD DO AN ENDOFJOB.
000094:                                                                                                  #                        ALSO PINBALL IS A NOVAC JOB.  EBANK SET FOR COMMON.
000095:                                                                                                  #                3)      VERB 37.  CHANGE OF PROGRAM (MAJOR MODE) CALLS `V37' IN THE
000096:                                                                                                  #                        SERVICE ROUTINES AS PART OF THE PINBALL EXEC JOB WITH PRIO
000097:                                                                                                  #                        30000.  THE NEW PROGRAM CODE (MAJOR MODE) IS LEFT IN A.
000098:                                                                                                  #                4)      KEY RELEASE BUTTON CALLS `PINBRNCH' IN THE DISPLAY INTERFACE
000099:                                                                                                  #                        ROUTINES AS PART OF THE PINBALL EXEC JOB WITH PRIO 30000 IF
000100:                                                                                                  #                        THE KEY RELEASE LIGHT IS OFF AND `CADRSTOR' IS NOT 40.
000101:
000102:                                                                                                  #  IF PINBALL WAS CALLED BY INTERNAL PROGRAMS, EXIT FROM PINBALL IS BACK
000103:                                                                                                  #  TO CALLING ROUTINE.  DETAILS DESCRIBED IN REMARKS CARDS JUST BEFORE
000104:                                                                                                  #  `NVSUB' AND `NVSBWAIT' (SEE SYMBOL TABLE FOR PAGE NUMBERS).
000105:
000106:                                                                                                  #  ALARM OR ABORT EXIT MODES --
000107:
000108:                                                                                                  #        EXTERNAL INITIATION:
000109:                                                                                                  #                IF SOME IMPROPER SEQUENCE OF KEY CODES IS DETECTED, THE OPERATOR
000110:                                                                                                  #                ERROR LIGHT IS TURNED ON AND EXIT IS TO `ENDOFJOB'.
000111:
000112:                                                                                                  #        INTERNAL PROGRAM INITIATION:
000113:                                                                                                  #                IF AN ILLEGAL V/N COMBINATION IS ATTEMPTED, AN ABORT IS CAUSED
000114:                                                                                                  #                (WITH OCTAL 01501).
000115:                                                                                                  #                IF A SECOND ATTEMPT IS MADE TO GO TO SLEEP IN PINBALL, AN ABORT IS
000116:                                                                                                  #                CAUSED (WITH OCTAL 01206).  THERE ARE TWO WAYS TO GO TO SLEEP IN PINBALL:
000117:                                                                                                  #                1)      ENDIDLE OR DATAWAIT.
000118:                                                                                                  #                2)      NVSBWAIT, PRENVBSY, OR NVSUBUSY.
000119:
000120:                                                                                                  #  CONDITIONS LEADING TO THE ABOVE ARE DESCRIBED IN FORTHCOMING MIT/IL
000121:                                                                                                  #  E-REPORT DESCRIBING KEYBOARD AND DISPLAY OPERATION FOR 278.
000122:
000123:                                                                                                  #  OUTPUT --
000124:
000125:                                                                                                  #  INFORMATION TO BE SENT TO THE DISPLAY PANEL IS LEFT IN THE `DSPTAB'
000126:                                                                                                  #  BUFFERS REGISTERS (UNDER EXEC CONTROL).  `DSPOUT' (A PART OF T4RUPT)
000127:                                                                                                  #  HANDLES THE PLACING OF THE `DSPTAB' INFORMATION INTO OUTPUT CHANNEL 10
000128:                                                                                                  #  IN INTERRUPT.
000129:
000130:                                                                                                  #  ERASABLE INITIALIZATION --
000131:
000132:                                                                                                  #  FRESH START AND RESTART INITIALIZE THE NECESSARY E REGISTERS FOR
000133:                                                                                                  #  PINBALL IN `STARTSUB'.  REGISTERS ARE:  DSPTAB BUFFER, CADRSTOR,
000134:                                                                                                  #  REQRET, CLPASS, DSPLOCK, MONSAVE, MONSAVE1, VERBREG, NOUNREG, DSPLIST,
000135:                                                                                                  #  DSPCOUNT, NOUT.
000136:


000138:                                                                                                  #  A COMPLETE LIST OF ALL THE ERASABLES (BOTH RESERVED AND TEMPORARIES) FOR
000139:                                                                                                  #  PINBALL IS GIVEN BELOW.
000140:
000141:                                                                                                  #  THE FOLLOWING ARE OF GENERAL INTEREST --
000142:
000143:                                                                                                  #  REMARKS CARDS PRECEDE THE REFERENCED SYMBOL DEFINITION.  SEE SYMBOL
000144:                                                                                                  #  TABLE TO FIND APPROPRIATE PACE NUMBERS.
000145:
000146:                                                                                                  #        NVSUB           CALLING POINT FOR INTERNAL USE OF PINBALL.
000147:                                                                                                  #                        OF RELATED INTEREST     NVSBWAIT
000148:                                                                                                  #                                                NVSUBUSY
000149:                                                                                                  #                                                PRENVBSY
000150:
000151:                                                                                                  #        ENDIDLE         ROUTINE FOR INTERNAL PROGRAMS WISHING TO TO SLEEP WHILE
000152:                                                                                                  #                        AWAITING OPERATOR'S RESPONSE.
000153:
000154:                                                                                                  #        DSPMM           ROUTINE BY WHICH AN INTERNAL PROGRAM MAY DISPLAY A DECIMAL
000155:                                                                                                  #                        PROGRAM CODE (MAJOR MODE) IN THE PROGRAM (MAJOR MODE) LIGHT
000156:                                                                                                  #                        (DSPMM DOES NOT DISPLAY DIRECTLY BUT ENTERS EXEC REQUEST
000157:                                                                                                  #                        FOR DSPMMJB WITH PRIO 30000 AND RETURNS TO CALLER.)
000158:
000159:                                                                                                  #        BLANKSUB        ROUTINE BY WHICH AN INTERNAL PROGRAM MAY BLANK ANY
000160:                                                                                                  #                        COMBINATION OF THE DISPLAY REGISTERS R1, R2, R3.
000161:
000162:                                                                                                  #        JAMTERM         ROUTINE BY WHICH AN INTERNAL PROGRAM MAY PERFORM THE
000163:                                                                                                  #        JAMPROC         TERMINATE (V 34) OR PROCEED (V33) FUNCTION.
000164:
000165:                                                                                                  #        MONITOR         VERBS FOR PERIODIC (1 PER SEC) DISPLAY.
000166:
000167:                                                                                                  #        PLEASE PERFORM, PLEASE MARK SITUATIONS
000168:                                                                                                  #                REMARKS DESCRIBING HOW AN INTERNAL ROUTINE SHOULD HANDLE
000169:                                                                                                  #                THESE SITUATIONS CAN BE FOUND JUST BEFORE `NVSUB' (SEE
000170:                                                                                                  #                SYMBOL TABLE FOR PAGE NUMBER).
000171:
000172:                                                                                                  #        THE NOUN TABLE FORMAT IS DESCRIBED ON A PAGE OF REMARKS CARDS JUST
000173:                                                                                                  #        BEFORE `DSPABC' (SEE SYMBOL TABLE FOR PAGE NUMBER).
000174:
000175:                                                                                                  #        THE NOUN TABLES THEMSELVES ARE FOUND IN LOG SECTION `PINBALL NOUN
000176:                                                                                                  #        TABLES'.
000177:
000178:                                                                                                  #  FOR FURTHER DETAILS ABOUT OPERATION OF THE KEYBOARD AND DISPLAY SYSTEM
000179:                                                                                                  #  PROGRAM, SEE THE MISSION PLAN AND/OR MIT/IL E-2129
000180:                                                                                                  #  DESCRIBING KEYBOARD AND DISPLAY OPERATION FOR 278.
000181:                                                                                                  #  (Note that this doc by Green and Filene is/was available online at
000182:                                                                                                  #  http://hrst.mit.edu/hrs/apollo/public/archive/1706.pdf --- RSB 6/2004.)
000183:
000184:                                                                                                  #  THE FOLLOWING QUOTATION IS PROVIDED THROUGH THE COURTESY OF THE AUTHORS.
000185:
000186:                                                                                                  #        "IT WILL BE PROVED TO THY FACE THAT THOU HAST MEN ABOUT THEE THAT


000188:                                                                                                  #        USUALLY TALK OF A NOUN AND A VERB, AND SUCH ABOMINABLE WORDS AS NO
000189:                                                                                                  #        CHRISTIAN EAR CAN ENDURE TO HEAR."
000190:                                                                                                  #                                        HENRY 6, ACT 2, SCENE 4
000191:
000192:                                                                                                  #  THE FOLLOWING ASSIGNMENTS FOR PINBALL ARE MADE ELSEWHERE
000193:
000194:                                                                                                  #  RESERVED FOR PINBALL EXECUTIVE ACTION
000195:
000196:                                                                                                  # DSPCOUNT       ERASE                   # DISPLAY POSITION INDICATOR
000197:                                                                                                  # DECBRNCH       ERASE                   # +DEC, -DEC, OCT INDICATOR
000198:                                                                                                  # VERBREG        ERASE                   # VERB CODE
000199:                                                                                                  # NOUNREG        ERASE                   # NOUN CODE
000200:                                                                                                  # XREG           ERASE                   # R1 INPUT BUFFER
000201:                                                                                                  # YREG           ERASE                   # R2 INPUT BUFFER
000202:                                                                                                  # ZREG           ERASE                   # R3 INPUT BUFFER
000203:                                                                                                  # XREGLP         ERASE                   # LO PART OF XREG (FOR DEC CONV ONLY)
000204:                                                                                                  # YREGLP         ERASE                   # LO PART OF YREG (FOR DEC CONV ONLY)
000205:                                                                                                  # HITEMOUT       =       YREGLP          # TEMP FOR DISPLAY OF HRS,MIN,SEC
000206:                                                                                                  #                                        # MUST = LOTEMOUT-1.
000207:                                                                                                  # ZREGLP         ERASE                   # LO PART OF ZREG (FOR DEC CONV ONLY)
000208:                                                                                                  # LOTEMOUT       =       ZREGLP          # TEMP FOR DISPLAY OF HRS,MIN,SEC
000209:                                                                                                  #                                        # MUST = HITEMOUT+1
000210:                                                                                                  # MODREG         ERASE                   # MODE CODE
000211:                                                                                                  # DSPLOCK        ERASE                   # KEYBOARD/SUBROUTINE CALL INTERLOCK
000212:                                                                                                  # REQRET         ERASE                   # RETURN REGISTER FOR LOAD
000213:                                                                                                  # LOADSTAT       ERASE                   # STATUS INDICATOR FOR LOADTST
000214:                                                                                                  # CLPASS         ERASE                   # PASS INDICATOR FOR CLEAR
000215:                                                                                                  # NOUT           ERASE                   # ACTIVITY COUNTER FOR DSPTAB
000216:                                                                                                  # NOUNCADR       ERASE                   # MACHINE CADR FOR NOUN
000217:                                                                                                  # MONSAVE        ERASE                   # N/V CODE FOR MONITOR. (= MONSAVE1-1)
000218:                                                                                                  # MONSAVE1       ERASE                   # NOUNCADR FOR MONITOR (MATBS1) = MONSAVE+1
000219:                                                                                                  # MONSAVE2       ERASE                   # NVMONOPT OPTIONS
000220:                                                                                                  # DSPTAB         ERASE   +13D            # 0-10, DISPLAY PANEL BUFFER 11-13, C RELAYS.
000221:                                                                                                  # CADRSTOR       ERASE                   # ENDIDLE STORAGE
000222:                                                                                                  # NVQTEM         ERASE                   # NVSUB STORAGE FOR CALLING ADDRESS
000223:                                                                                                  #                                        # MUST = NVBNKTEM-1.
000224:                                                                                                  # NVBNKTEM       ERASE                   # NVSUB STORAGE FOR CALLING BANK
000225:                                                                                                  #                                        # MUST = NVQTEM+1
000226:                                                                                                  # VERBSAVE       ERASE                   # NEEDED FOR RECYCLE
000227:                                                                                                  # DSPLIST        ERASE                   # WAITING REG FOR DSP SYST INTERNAL USE
000228:                                                                                                  # EXTVBACT       ERASE                   # EXTENDED VERB ACTIVITY INTERLOCK
000229:                                                                                                  # DSPTEM1        ERASE   +2              # BUFFER STORAGE AREA 1 (MOSTLY FOR TIME)
000230:                                                                                                  # DSPTEM2        ERASE   +2              # BUFFER STORAGE AREA 2 (MOSTLY FOR DEG)
000231:
000232:                                                                                                  #  END OF ERASABLES RESERVED FOR PINBALL EXECUTIVE ACTION.
000233:
000234:                                                                                                  #  TEMPORARIES FOR PINBALL EXECUTIVE ACTION


000236:                                                                                                  # DSEXIT         =       INTB15+         # RETURN FOR DSPIN
000237:                                                                                                  # EXITEM         =       INTB15+         # RETURN FOR SCALE FACTOR ROUTINE SELECT
000238:                                                                                                  # BLANKRET       =       INTB15+         # RETURN FOR 2BLANK
000239:                                                                                                  # WRDRET         =       INTBIT15        # RETURN FOR 5BLANK.
000240:                                                                                                  # WDRET          =       INTBIT15        # RETURN FOR DSPWD
000241:                                                                                                  # DECRET         =       INTBIT15        # RETURN FOR PUTCOM(DEC LOAD)
000242:                                                                                                  # 21/22REG       =       INTBIT15        # TEMP FOR CHARIN
000243:                                                                                                  # UPDATRET       =       POLISH          # RETURN FOR UPDATNN, UPDATVB
000244:                                                                                                  # CHAR           =       POLISH          # TEMP FOR CHARIN
000245:                                                                                                  # ERCNT          =       POLISH          # COUNTER FOR ERROR LIGHT RESET
000246:                                                                                                  # DECOUNT        =       POLISH          # COUNTER FOR SCALING AND DISPLAY (DEC)
000247:                                                                                                  # SGNON          =       VBUF            # TEMP FOR +,- ON
000248:                                                                                                  # NOUNTEM        =       VBUF            # COUNTER FOR MIXNOUN FETCH
000249:                                                                                                  # DISTEM         =       VBUF            # COUNTER FOR OCTAL DISPLAY VERB
000250:                                                                                                  # DECTEM         =       VBUF            # COUNTER FOR FETCH (DEC DISPLAY VERBS)
000251:                                                                                                  # SGNOFF         =       VBUF +1         # TEMP FOR +,- ON
000252:                                                                                                  # NVTEMP         =       VBUF +1         # TEMP FOR NVSUB
000253:                                                                                                  # SFTEMP1        =       VBUF +1         # STORAGE FOR SF CONST HI PART (=SFTEMP2-1)
000254:                                                                                                  # HITEMIN        =       VBUF +1         # TEMP FOR LOAD OF HRS,MIN,SEC
000255:                                                                                                  #                                        # MUST = LOTEMIN-1.
000256:                                                                                                  # CODE           =       VBUF +2         # FOR DSPIN
000257:                                                                                                  # SFTEMP2        =       VBUF +2         # STORAGE FOR SF CONST LO PART (=SFTEMP1+1)
000258:                                                                                                  # LOTEMIN        =       VBUF +2         # TEMP FOR LOAD OF HRS,MIN,SEC
000259:                                                                                                  #                                        # MUST = HITEMIN+1
000260:                                                                                                  # MIXTEMP        =       VBUF +3         # FOR MIXNOUN DATA
000261:                                                                                                  # SIGNRET        =       VBUF +3         # RETURN FOR +,- ON
000262:                                                                                                  #  ALSO MIXTEMP+1 = VBUF+4, MIXTEMP+2 = VBUF+5
000263:                                                                                                  # ENTRET         =       DOTINC          # EXIT FROM ENTER
000264:                                                                                                  # WDONT          =       DOTRET          # CHAR COUNTER FOR DSPWD
000265:                                                                                                  # INREL          =       DOTRET          # INPUT BUFFER SELECTION
000266:                                                                                                  # DSPMMTEM       =       MATINC          # DSPCOUNT SAVE FOR DSPMM
000267:                                                                                                  # MIXBR          =       MATINC          # INDICATOR FOR MIXED OR NORMAL NOUN
000268:                                                                                                  # TEM1           ERASE                   # EXEC TEMP
000269:                                                                                                  # DSREL          =       TEM1            # REL ADDRESS FOR DSPIN
000270:                                                                                                  # TEM2           ERASE                   # EXEC TEMP
000271:                                                                                                  # DSMAG          =       TEM2            # MAGNITUDE STORE FOR DSPIN
000272:                                                                                                  # IDADDTEM       =       TEM2            # MIXNOUN INDIRECT ADDRESS (garbled)
000273:                                                                                                  # TEM3           ERASE                   # EXEC TEMP
000274:                                                                                                  # COUNT          =       TEM3            # FOR DSPIN


000276:                                                                                                  # TEM4           ERASE                   # EXEC TEMP
000277:                                                                                                  # LSTPTR         =       TEM4            # LIST POINTER FOR GRABUST
000278:                                                                                                  # RELRET         =       TEM4            # RETURN FOR RELDSP
000279:                                                                                                  # FREERET        =       TEM4            # RETURN FOR FREEDSP
000280:                                                                                                  # DSPWDRET       =       TEM4            # RETURN FOR DSPSIGN
000281:                                                                                                  # SEPSCRET       =       TEM4            # RETURN FOR SEPSEC
000282:                                                                                                  # SEPMNRET       =       TEM4            # RETURN FOR SEPMIN
000283:                                                                                                  # TEM5           ERASE                   # EXEC TEMP
000284:                                                                                                  # NOUNADD        =       TEM5            # TEMP STORAGE FOR NOUN ADDRESS
000285:                                                                                                  # NNADTEM        ERASE                   # TEMP FOR NOUN ADDRESS TABLE ENTRY
000286:                                                                                                  # NNTYPTEM       ERASE                   # TEMP FOR NOUN TYPE TABLE ENTRY
000287:                                                                                                  # IDAD1TEM       ERASE                   # TEMP FOR INDIR ADDRESS TABLE ENTRY (MIXNN)
000288:                                                                                                  #                                        # MUST = IDAD2TEM-1, = IDAD3TEM-2
000289:                                                                                                  # IDAD2TEM       ERASE                   # TEMP FOR INDIR ADDRESS TABLE ENTRY (MIXNN)
000290:                                                                                                  #                                        # MUST = IDAD1TEM+1, IDAD3TEM-1.
000291:                                                                                                  # IDAD3TEM       ERASE                   # TEMP FOR INDIR ADDRESS TABLE ENTRY (MIXNN)
000292:                                                                                                  #                                        # MUST = IDAD1TEM+2, IDAD2TEM+1.
000293:                                                                                                  # RUTMXTEM       ERASE                   # TEMP FOR SF ROUT TABLE ENTRY (MIXNN ONLY)
000294:
000295:                                                                                                  #  END OF TEMPORARIES FOR PINBALL EXECUTIVE ACTION.
000296:
000297:                                                                                                  #  ADDITIONAL TEMPORARIES FOR PINBALL EXECUTIVE ACTION
000298:
000299:                                                                                                  #        MPAC, THRU MPAC +6
000300:                                                                                                  #        BUF, +1, +2
000301:                                                                                                  #        BUF2, +1, +2
000302:                                                                                                  #        MPTEMP
000303:                                                                                                  #        ADDRWD
000304:
000305:                                                                                                  #  END OF ADDITIONAL TEMPS FOR PINBALL EXEC ACTION
000306:
000307:                                                                                                  #  RESERVED FOR PINBALL INTERRUPT ACTION
000308:
000309:                                                                                                  # DSPCNT         ERASE                   # COUNTER FOR DSPOUT
000310:                                                                                                  # UPLOCK         ERASE                   # BIT1 = UPLINK INTERLOCK (ACTIVATED BY
000311:                                                                                                  #                                        # RECEPTION OF A BAD MESSAGE IN UPLINK)
000312:
000313:                                                                                                  #  END OF ERASABLES RESERVED FOR PINBALL INTERRUPT ACTION
000314:
000315:                                                                                                  #  TEMPORARIES FOR PINBALL INTERRUPT ACTION
000316:
000317:                                                                                                  # KEYTEMP1       =       WAITEXIT        # TEMP FOR KEYRUPT, UPRUPT
000318:                                                                                                  # DSRUPTEM       =       WAITEXIT        # TEMP FOR DSPOUT
000319:                                                                                                  # KEYTEMP2       =       RUPTAGN         # TEMP FOR KEYRUPT, UPRUPT
000320:
000321:                                                                                                  #  END OF TEMPORARIES FOR PINBALL INTERRUPT ACTION
000322:


000324:                                                                                                  #  THE INPUT CODES ASSUMED FOR THE KEYBOARD ARE,
000325:                                                                                                  #        0               10000
000326:                                                                                                  #        1               00001
000327:                                                                                                  #        9               01001
000328:                                                                                                  #        VERB            10001
000329:                                                                                                  #        ERROR RES       10010
000330:                                                                                                  #        KEY RLSE        11001
000331:                                                                                                  #        +               11010
000332:                                                                                                  #        -               11011
000333:                                                                                                  #        ENTER           11100
000334:                                                                                                  #        CLEAR           11110
000335:                                                                                                  #        NOUN            11111
000336:
000337:                                                                                                  #  OUTPUT FORMAT FOR DISPLAY PANEL.  SET OUT0 TO AAAABCCCCCDDDDD.
000338:                                                                                                  #  A'S   SELECTS A RELAYWORD.  THIS DETERMINES WHICH PAIR OF CHARACTERS ARE
000339:                                                                                                  #        ENERGIZED.
000340:                                                                                                  #  B     FOR SPECIAL RELAYS SUCH AS SIGNS ETC.
000341:                                                                                                  #  C'S   5 BIT RELAY CODE FOR LEFT CHAR OF PAIR SELECTED BY RELAYWORD.
000342:                                                                                                  #  D'S   5 BIT RELAY CODE FOR RIGHT CHAR OF PAIR SELECTED BY RELAYWORD.
000343:
000344:                                                                                                  #  THE PANEL APPEARS AS FOLLOWS,
000345:                                                                                                  #        MD1             MD2 (MAJOR MODE)
000346:                                                                                                  #        VD1             VD2 (VERB)                      ND1             ND2 (NOUN)
000347:                                                                                                  #        R1D1            R1D2            R1D3            R1D4            R1D5 (R1)
000348:                                                                                                  #        R2D1            R2D2            R2D3            R2D4            R2D5 (R2)
000349:                                                                                                  #        R3D1            R3D2            R3D3            R3D4            R3D5 (R3)
000350:
000351:                                                                                                  #  EACH OF THESE IS GIVEN A DSPCOUNT NUMBER FOR USE WITHIN COMPUTATION ONLY
000352:
000353:                                                                                                  #        MD1     25              R2D1    11              ALL ARE OCTAL
000354:                                                                                                  #        MD2     24              R2D2    10
000355:                                                                                                  #        VD1     23              R2D3    7
000356:                                                                                                  #        VD2     22              R2D4    6
000357:                                                                                                  #        ND1     21              R2D5    5
000358:                                                                                                  #        ND2     20              R3D1    4
000359:                                                                                                  #        R1D1    16              R3D2    3
000360:                                                                                                  #        R1D2    15              R3D3    2
000361:                                                                                                  #        R1D3    14              R3D4    1
000362:                                                                                                  #        R1D4    13              R3D5    0
000363:                                                                                                  #        R1D5    12
000364:
000365:                                                                                                  #  THERE IS AN 11-REGISTER TABLE (DSPTAB) FOR THE DISPLAY PANEL.
000366:
000367:                                                                                                  #        DSPTAB          RELAYWD         BIT11           BITS 10-6       BITS 5-1
000368:                                                                                                  #        RELADD
000369:                                                                                                  #        10              1011                            MD1 (25)        MD2 (24)
000370:                                                                                                  #        9               1010                            VD1 (23)        VD2 (22)
000371:                                                                                                  #        8               1001                            ND1 (21)        ND2 (20)
000372:                                                                                                  #        7               1000                                            R1D1 (16)


000374:                                                                                                  #        6               0111            +R1             R1D2 (15)       R1D3 (14)
000375:                                                                                                  #        5               0110            -R1             R1D4 (13)       R1D5 (12)
000376:                                                                                                  #        4               0101            +R2             R2D1 (11)       R2D2 (10)
000377:                                                                                                  #        3               0100            -R2             R2D3 (7)        R2D4 (6)
000378:                                                                                                  #        2               0011                            R2D5 (5)        R3D1 (4)
000379:                                                                                                  #        1               0010            +R3             R3D2 (3)        R3D3 (2)
000380:                                                                                                  #        0               0001            -R3             R3D4 (1)        R3D5 (0)
000381:                                                                                                  #                        0000        NO RELAYWORD
000382:
000383:                                                                                                  #  THE 5-BIT OUTOUT RELAY CODES ARE:
000384:
000385:                                                                                                  #        BLANK   00000
000386:                                                                                                  #        0       10101
000387:                                                                                                  #        1       00011
000388:                                                                                                  #        2       11001
000389:                                                                                                  #        3       11011
000390:                                                                                                  #        4       01111
000391:                                                                                                  #        5       11110
000392:                                                                                                  #        6       11100
000393:                                                                                                  #        7       10011
000394:                                                                                                  #        8       11101
000395:                                                                                                  #        9       11111
000396:
000397:                                                                                                  #  OUTPUT BITS USED BY PINBALL:
000398:
000399:                                                                                                  #        KEY RELEASE LIGHT       --      BIT 5 OF CHANNEL 11
000400:                                                                                                  #        VERB/NOUN FLASH         --      BIT 6 OF CHANNEL 11
000401:                                                                                                  #        OPERATOR ERROR LIGHT    --      BIT 7 OF CHANNEL 11
000402:


000404:                                                                                                  #  START OF EXECUTIVE SECTION OF PINBALL
000405:
000406: 40,2000                                           BANK     40
000407: 40,2000                                           SETLOC   PINBALL1
000408: 40,2000                                           BANK
000409:
000410: 40,2000                                           COUNT    40/PIN
000411:
000412: 40,2000           34712        CHARIN             CAF      ONE                                   #  BLOCK DISPLAY SYST
000413: 40,2001           57012                           XCH      DSPLOCK                               #  MAKE DSP SYST BUSY, BUT SAVE OLD
000414: 40,2002           54115                           TS       21/22REG                              #  C(DSPLOCK) FOR ERROR LIGHT RESET.
000415: 40,2003           11042                           CCS      CADRSTOR                              #  ALL KEYS EXCEPT ER TURN ON KR LITE IF
000416: 40,2004           02006                           TC       +2                                    #  CADRSTOR IS FULL.  THIS REMINDS OPERATOR
000417: 40,2005           02013                           TC       CHARIN2                               #  TO RE-ESTABLISH A FLASHING DISPLAY
000418: 40,2006           42057                           CS       ELRCODE1                              #  WHICH HE HAS OBSCURED WITH DISPLAYS OF
000419: 40,2007           60154                           AD       MPAC                                  #  HIS OWN (SEE REMARKS PRECEDING ROUTINE
000420: 40,2010           00006                           EXTEND                                         #  VBRELDSP).
000421: 40,2011           12013                           BZF      CHARIN2
000422: 40,2012           04410                           TC       RELDSPON
000423: 40,2013           56154        CHARIN2            XCH      MPAC
000424: 40,2014           54117                           TS       CHAR
000425: 40,2015           50000                           INDEX    A
000426: 40,2016           02017                           TC       +1                                    #    INPUT CODE      FUNCTION
000427: 40,2017           03335                           TC       CHARALRM                              #        0
000428: 40,2020           02076                           TC       NUM                                   #        1
000429: 40,2021           02076                           TC       NUM                                   #        2
000430: 40,2022           02076                           TC       NUM                                   #        3
000431: 40,2023           02076                           TC       NUM                                   #        4
000432: 40,2024           02076                           TC       NUM                                   #        5
000433: 40,2025           02076                           TC       NUM                                   #        6
000434: 40,2026           02076                           TC       NUM                                   #        7
000435: 40,2027           02062                           TC       89TEST                                #        10              8
000436: 40,2030           02062                           TC       89TEST                                #        11              9
000437: 40,2031           03335                           TC       CHARALRM                              #        12
000438: 40,2032           03335                           TC       CHARALRM                              #        13
000439: 40,2033           03335                           TC       CHARALRM                              #        14
000440: 40,2034           03335                           TC       CHARALRM                              #        15
000441: 40,2035           03335                           TC       CHARALRM                              #        16
000442: 40,2036           03335                           TC       CHARALRM                              #        17
000443: 40,2037           02074                           TC       NUM        -2                         #        20              0
000444: 40,2040           02255                           TC       VERB                                  #        21              VERB
000445: 40,2041           03504                           TC       ERROR                                 #        22              ERROR LIGHT RESET
000446: 40,2042           03335                           TC       CHARALRM                              #        23
000447: 40,2043           03335                           TC       CHARALRM                              #        24
000448: 40,2044           03335                           TC       CHARALRM                              #        25
000449: 40,2045           03335                           TC       CHARALRM                              #        26
000450: 40,2046           03335                           TC       CHARALRM                              #        27
000451: 40,2047           03335                           TC       CHARALRM                              #        30
000452: 40,2050           03362                           TC       VBRELDSP                              #        31              KEY RELEASE


000454: 40,2051           02310                           TC       POSGN                                 #        32              +
000455: 40,2052           02275                           TC       NEGSGN                                #        33              -
000456: 40,2053           02060                           TC       ENTERJMP                              #        34              ENTER
000457: 40,2054           03335                           TC       CHARALRM                              #        35
000458: 40,2055           02370                           TC       CLEAR                                 #        36              CLEAR
000459: 40,2056           02271                           TC       NOUN                                  #        37              NOUN
000460:
000461: 40,2057           00022        ELRCODE1           OCT      22
000462: 40,2060           04574        ENTERJMP           TC       POSTJUMP
000463: 40,2061           62002                           CADR     ENTER
000464:
000465: 40,2062           10777        89TEST             CCS      DSPCOUNT
000466: 40,2063           02067                           TC       +4                                    #  +
000467: 40,2064           02067                           TC       +3                                    #  +0
000468: 40,2065           05112                           TC       ENDOFJOB                              #  - BLOCK DATA IN IF DSPCOUNT IS - OR -0
000469: 40,2066           05112                           TC       ENDOFJOB                              #  -0
000470: 40,2067           36214                           CAF      THREE
000471: 40,2070           71000                           MASK     DECBRNCH
000472: 40,2071           10000                           CCS      A
000473: 40,2072           02076                           TC       NUM                                   #  IF DECBRNCH IS +, 8 OR 9 OK
000474: 40,2073           03335                           TC       CHARALRM                              #  IF DECBRNCH IS +0, REJECT 8 OR 9
000475:
000476:                                                                                                  #  NUM ASSEMBLES OCTAL 3 BITS AT A TIME.  FOR DECIMAL IT CONVERTS INCOMING
000477:                                                                                                  #  WORD AS A FRACTION, KEEPING RESULTS TO DP.
000478:                                                                                                  #  OCTAL RESULTS ARE LEFT IN XREG, YREG, OR ZREG.  HI PART OF DEC IN XREG,
000479:                                                                                                  #  YREG, ZREG.  THE LOW PARTS IN XREGLP, YREGLP, OR ZREGLP.
000480:                                                                                                  #  DECBRNCH IS LEFT AT +0 FOR OCT, +1 FOR + DEC, +2 FOR - DEC.
000481:                                                                                                  #  IF DSPCOUNT WAS LEFT -, NO MORE DATA IS ACCEPTED.
000482:
000483: 40,2074           34714                           CAF      ZERO
000484: 40,2075           54117                           TS       CHAR
000485: 40,2076           10777        NUM                CCS      DSPCOUNT
000486: 40,2077           02103                           TC       +4                                    #  +
000487: 40,2100           02103                           TC       +3                                    #  +0
000488: 40,2101           02102                           TC       +1                                    #  -BLOCK DATA IN IF DSPCOUNT IS -
000489: 40,2102           05112                           TC       ENDOFJOB                              #  -0
000490: 40,2103           02225                           TC       GETINREL
000491: 40,2104           11015                           CCS      CLPASS                                #  IF CLPASS IS + OR +0, MAKE IT +0.
000492: 40,2105           34714                           CAF      ZERO
000493: 40,2106           55015                           TS       CLPASS
000494: 40,2107           02110                           TC       +1
000495: 40,2110           50117                           INDEX    CHAR
000496: 40,2111           34072                           CAF      RELTAB
000497: 40,2112           74362                           MASK     LOW5
000498: 40,2113           54124                           TS       CODE
000499: 40,2114           30777                           CA       DSPCOUNT
000500: 40,2115           54143                           TS       COUNT
000501: 40,2116           03225                           TC       DSPIN


000503: 40,2117           36214                           CAF      THREE
000504: 40,2120           71000                           MASK     DECBRNCH
000505: 40,2121           10000                           CCS      A                                     #  +0, OCTAL.  +1, + DEC.  +2, - DEC.
000506: 40,2122           02133                           TC       DECTOBIN                              #  +
000507: 40,2123           50137                           INDEX    INREL                                 #  +0 OCTAL
000508: 40,2124           57001                           XCH      VERBREG
000509: 40,2125           54022                           TS       CYL
000510: 40,2126           40022                           CS       CYL
000511: 40,2127           40022                           CS       CYL
000512: 40,2130           56022                           XCH      CYL
000513: 40,2131           60117                           AD       CHAR
000514: 40,2132           02150                           TC       ENDNMTST
000515: 40,2133           50137        DECTOBIN           INDEX    INREL
000516: 40,2134           57001                           XCH      VERBREG
000517: 40,2135           54154                           TS       MPAC                                  #  SUM X 2EXP-14 IN MPAC
000518: 40,2136           34714                           CAF      ZERO
000519: 40,2137           54155                           TS       MPAC       +1
000520: 40,2140           34377                           CAF      TEN                                   #  10 X 2EXP-14
000521: 40,2141           07256                           TC       SHORTMP                               #  10SUM X 2EXP-28 IN MPAC, MPAC+1
000522: 40,2142           56155                           XCH      MPAC       +1
000523: 40,2143           60117                           AD       CHAR
000524: 40,2144           54155                           TS       MPAC       +1
000525: 40,2145           02150                           TC       ENDNMTST                              #  NO OF
000526: 40,2146           26154                           ADS      MPAC                                  #  OF MUST BE 5TH CHAR
000527: 40,2147           02166                           TC       DECEND
000528: 40,2150           50137        ENDNMTST           INDEX    INREL
000529: 40,2151           55001                           TS       VERBREG
000530: 40,2152           40777                           CS       DSPCOUNT
000531: 40,2153           50137                           INDEX    INREL
000532: 40,2154           62216                           AD       CRITCON
000533: 40,2155           00006                           EXTEND
000534: 40,2156           12160                           BZF      ENDNUM                                #  -0, DSPCOUNT = CRITCON
000535: 40,2157           02213                           TC       MORNUM                                #  -, DSPCOUNT G/ CRITCON
000536: 40,2160           36214        ENDNUM             CAF      THREE
000537: 40,2161           71000                           MASK     DECBRNCH
000538: 40,2162           10000                           CCS      A
000539: 40,2163           02166                           TC       DECEND
000540: 40,2164           40777        ENDALL             CS       DSPCOUNT                              #  BLOCK NUMIN BY PLACING DSPCOUNT
000541: 40,2165           02214                           TC       MORNUM     +1                         #  NEGATIVELY
000542: 40,2166           44712        DECEND             CS       ONE
000543: 40,2167           60137                           AD       INREL
000544: 40,2170           00006                           EXTEND
000545: 40,2171           62164                           BZMF     ENDALL                                #  IF INREL=0,1 (VBREG,NNREG) LEAVE WHOLE
000546: 40,2172           07052                           TC       DMP                                   #  IF INREL=2,3,4 (R1,R2,R3), CONVERT TO FRAC
000547:                                                                                                  #  MULT SUM X 2EXP-28 IN MPAC, MPAC+1
000548: 40,2173           02223                           ADRES    DECON                                 #  2EXP14/10EXP5, GIVES (SUM/10EXP5)X2EXP-14
000549: 40,2174           36214                           CAF      THREE                                 #  IN MPAC, +1, +2.
000550: 40,2175           71000                           MASK     DECBRNCH
000551: 40,2176           50000                           INDEX    A
000552: 40,2177           02177                           TC       +0


000554: 40,2200           02204                           TC       +DECSGN
000555: 40,2201           00006                           EXTEND                                         #  - CASE
000556: 40,2202           40156                           DCS      MPAC       +1
000557: 40,2203           52156                           DXCH     MPAC       +1
000558: 40,2204           56156        +DECSGN            XCH      MPAC       +2
000559: 40,2205           50137                           INDEX    INREL
000560: 40,2206           55004                           TS       XREGLP     -2
000561: 40,2207           56155                           XCH      MPAC       +1
000562: 40,2210           50137                           INDEX    INREL
000563: 40,2211           55001                           TS       VERBREG
000564: 40,2212           02164                           TC       ENDALL
000565: 40,2213           10777        MORNUM             CCS      DSPCOUNT                              #  DECREMENT DSPCOUNT
000566: 40,2214           54777                           TS       DSPCOUNT
000567: 40,2215           05112                           TC       ENDOFJOB
000568:
000569: 40,2216           00022        CRITCON            OCT      22                                    #  (DEC 18)
000570: 40,2217           00020                           OCT      20                                    #  (DEC 16)
000571: 40,2220           00012                           OCT      12                                    #  (DEC 10)
000572: 40,2221           00005                           OCT      5
000573: 40,2222           00000                           OCT      0
000574:
000575: 40,2223           05174 13261  DECON              2DEC     1          E-5        B14             #  2EXP14/10EXP5 = .16384 DEC
000576:
000577:                                                                                                  #  GETINREL GETS PROPER DATA REG REL ADDRESS FOR CURRENT C(DSPCOUNT) AND
000578:                                                                                                  #  PUTS IN INTO INREL.  +0 VERBREG, 1 NOUNREG, 2 XREG, 3 YREG, 4 ZREG.
000579:
000580: 40,2225           50777        GETINREL           INDEX    DSPCOUNT
000581: 40,2226           32231                           CAF      INRELTAB
000582: 40,2227           54137                           TS       INREL                                 #  (A TEMP. REG)
000583: 40,2230           00002                           TC       Q
000584:
000585: 40,2231           00004        INRELTAB           OCT      4                                     #  R3D5 (DSPCOUNT = 0)
000586: 40,2232           00004                           OCT      4                                     #  R3D4           =(1)
000587: 40,2233           00004                           OCT      4                                     #  R3D3           =(2)
000588: 40,2234           00004                           OCT      4                                     #  R3D2           =(3)
000589: 40,2235           00004                           OCT      4                                     #  R3D1           =(4)
000590: 40,2236           00003                           OCT      3                                     #  R2D5           =(5)
000591: 40,2237           00003                           OCT      3                                     #  R2D4           =(6)
000592: 40,2240           00003                           OCT      3                                     #  R2D3           =(7)
000593: 40,2241           00003                           OCT      3                                     #  R2D2           =(8D)
000594: 40,2242           00003                           OCT      3                                     #  R2D1           =(9D)
000595: 40,2243           00002                           OCT      2                                     #  R1D5           =(10D)
000596: 40,2244           00002                           OCT      2                                     #  R1D4           =(11D)
000597: 40,2245           00002                           OCT      2                                     #  R1D3           =(12D)
000598: 40,2246           00002                           OCT      2                                     #  R1D2           =(13D)
000599: 40,2247           00002                           OCT      2                                     #  R1D1           =(14D)
000600: 40,2250           05640                           TC       CCSHOLE                               #  NO DISCOUNT NUMBER = 15D
000601: 40,2251           00001                           OCT      1                                     #  ND2            =(16D)


000603: 40,2252           00001                           OCT      1                                     #  ND1            =(17D)
000604: 40,2253           00000                           OCT      0                                     #  VD2            =(18D)
000605: 40,2254           00000                           OCT      0                                     #  VD1            =(19D)
000606:
000607: 40,2255           34714        VERB               CAF      ZERO
000608: 40,2256           55001                           TS       VERBREG
000609: 40,2257           34374                           CAF      VD1
000610: 40,2260           54777        NVCOM              TS       DSPCOUNT
000611: 40,2261           02502                           TC       2BLANK
000612: 40,2262           34712                           CAF      ONE
000613: 40,2263           55000                           TS       DECBRNCH                              #  SET FOR DEC V/N CODE
000614: 40,2264           34714                           CAF      ZERO
000615: 40,2265           55013                           TS       REQRET                                #  SET FOR ENTPAS0
000616: 40,2266           34233                           CAF      ENDINST                               #  IF DSPALARM OCCURS BEFORE FIRST ENTPAS0
000617: 40,2267           54136                           TS       ENTRET                                #  OR NVSUB, ENTRET MUST ALREADY BE SET
000618:                                                                                                  #  TO TC ENDOFJOB
000619: 40,2270           05112                           TC       ENDOFJOB
000620: 40,2271           34714        NOUN               CAF      ZERO
000621: 40,2272           55002                           TS       NOUNREG
000622: 40,2273           34375                           CAF      ND1                                   #  ND1, OCT 21 (DEC 17)
000623: 40,2274           02260                           TC       NVCOM
000624:
000625: 40,2275           02347        NEGSGN             TC       SIGNTEST
000626: 40,2276           02334                           TC       -ON
000627: 40,2277           34711                           CAF      TWO
000628: 40,2300           50137        BOTHSGN            INDEX    INREL                                 #  SET DEC COMP BIT TO 1 (IN DECBRNCH)
000629: 40,2301           64704                           AD       BIT7                                  #  BIT 5 FOR R1.  BIT 4 FOR R2.
000630: 40,2302           27000                           ADS      DECBRNCH                              #  BIT 3 FOR R3.
000631: 40,2303           11015        FIXCLPAS           CCS      CLPASS                                #  IF CLPASS IS + OR +0.  MAKE IT +0.
000632: 40,2304           34714                           CAF      ZERO
000633: 40,2305           55015                           TS       CLPASS
000634: 40,2306           02307                           TC       +1
000635: 40,2307           05112                           TC       ENDOFJOB
000636:
000637: 40,2310           02347        POSGN              TC       SIGNTEST
000638: 40,2311           02314                           TC       +ON
000639: 40,2312           34712                           CAF      ONE
000640: 40,2313           02300                           TC       BOTHSGN
000641:
000642: 40,2314           22002        +ON                LXCH     Q
000643: 40,2315           02225                           TC       GETINREL
000644: 40,2316           50137                           INDEX    INREL
000645: 40,2317           32342                           CAF      SGNTAB     -2
000646: 40,2320           54123                           TS       SGNOFF
000647: 40,2321           64712                           AD       ONE
000648: 40,2322           54122                           TS       SGNON
000649: 40,2323           34714        SGNCOM             CAF      ZERO
000650: 40,2324           54124                           TS       CODE


000652: 40,2325           56123                           XCH      SGNOFF
000653: 40,2326           03307                           TC       11DSPIN
000654: 40,2327           34700                           CAF      BIT11
000655: 40,2330           54124                           TS       CODE
000656: 40,2331           56122                           XCH      SGNON
000657: 40,2332           03307                           TC       11DSPIN
000658: 40,2333           00001                           TC       L
000659: 40,2334           22002        -ON                LXCH     Q
000660: 40,2335           02225                           TC       GETINREL
000661: 40,2336           50137                           INDEX    INREL
000662: 40,2337           32342                           CAF      SGNTAB     -2
000663: 40,2340           54122                           TS       SGNON
000664: 40,2341           64712                           AD       ONE
000665: 40,2342           54123                           TS       SGNOFF
000666: 40,2343           02323                           TC       SGNCOM
000667:
000668: 40,2344           00005        SGNTAB             OCT      5                                     #  -R1
000669: 40,2345           00003                           OCT      3                                     #  -R2
000670: 40,2346           00000                           OCT      0                                     #  -R3
000671:
000672: 40,2347           22002        SIGNTEST           LXCH     Q                                     #  ALLOWS +,- ONLY WHEN DSPCOUNT=R1D1,
000673: 40,2350           36214                           CAF      THREE                                 #  R2D1, OR R3D1.  ALLOWS ONLY FIRST OF
000674: 40,2351           71000                           MASK     DECBRNCH                              #  CONSECUTIVE +/- CHARACTERS.
000675: 40,2352           10000                           CCS      A                                     #  IF LOW2 BITS OF DECBRNCH NOT 0.  SIGN
000676: 40,2353           05112                           TC       ENDOFJOB                              #  FOR THIS WORD ALREADY IN.  REJECT.
000677: 40,2354           44333                           CS       R1D1
000678: 40,2355           02363                           TC       SGNTST1
000679: 40,2356           44334                           CS       R2D1
000680: 40,2357           02363                           TC       SGNTST1
000681: 40,2360           44335                           CS       R3D1
000682: 40,2361           02363                           TC       SGNTST1
000683: 40,2362           05112                           TC       ENDOFJOB                              #  NO MATCH FOUND.  SIGN ILLEGAL
000684: 40,2363           60777        SGNTST1            AD       DSPCOUNT
000685: 40,2364           00006                           EXTEND
000686: 40,2365           12367                           BZF      +2                                    #  MATCH FOUND
000687: 40,2366           00002                           TC       Q
000688: 40,2367           00001                           TC       L                                     #  SIGN LEGAL
000689:
000690:                                                                                                  #  CLEAR BLANKS WHICH R1, R2, R3 IS CURRENT OR LAST TO BE DISPLAYED (PERTINENT
000691:                                                                                                  #  XREG, YREG, ZREG IS CLEARED).  SUCCESSIVE CLEARS TAKE CARE OF EACH RX
000692:                                                                                                  #  L/ RC UNTIL R1 IS DONE.  THEN NO FURTHER ACTION.
000693:
000694:                                                                                                  #  THE SINGLE COMPONENT LOAD VERBS ALLOW ONLY THE SINGLE RC THAT IS
000695:                                                                                                  #  APPROPRIATE TO BE CLEARED.
000696:
000697:                                                                                                  #  CLPASS        +0 PASS0, CAN BE BACKED UP
000698:                                                                                                  #                +NZ HIPASS, CAN BE BACKED UP
000699:                                                                                                  #                -NZ PASS0, CANNOT BE BACKED UP


000701: 40,2370           10777        CLEAR              CCS      DSPCOUNT
000702: 40,2371           64712                           AD       ONE
000703: 40,2372           02374                           TC       +2
000704: 40,2373           64712                           AD       ONE
000705: 40,2374           50000                           INDEX    A                                     #  DO NOT CHANGE DSPCOUNT BECAUSE MAY LATER
000706: 40,2375           32231                           CAF      INRELTAB                              #  FAIL LEGALTST.
000707: 40,2376           54137                           TS       INREL                                 #  MUST SET INREL, EVEN FOR HIPASS.
000708: 40,2377           11015                           CCS      CLPASS
000709: 40,2400           02406                           TC       CLPASHI                               #  +
000710: 40,2401           02403                           TC       +2                                    #  +0    IF CLPASS IS +0 OR -, IT IS PASS0
000711: 40,2402           02403                           TC       +1                                    #  -
000712: 40,2403           30137                           CA       INREL
000713: 40,2404           02430                           TC       LEGALTST
000714: 40,2405           02423                           TC       CLEAR1
000715: 40,2406           10137        CLPASHI            CCS      INREL
000716: 40,2407           54137                           TS       INREL
000717: 40,2410           02430                           TC       LEGALTST
000718: 40,2411           32500                           CAF      DOUBLK     +2                         #  +3 TO - NUMBER, BACKS DATA REQUESTS.
000719: 40,2412           27013                           ADS      REQRET
000720: 40,2413           30137                           CA       INREL
000721: 40,2414           54125                           TS       MIXTEMP                               #  TEMP STORAGE FOR INREL
000722: 40,2415           00006                           EXTEND
000723: 40,2416           27001                           DIM      VERBREG                               #  DECREMENT VERB AND RE-DISPLAY
000724: 40,2417           04555                           TC       BANKCALL
000725: 40,2420           62337                           CADR     UPDATVB
000726: 40,2421           30125                           CA       MIXTEMP
000727: 40,2422           54137                           TS       INREL                                 #  RESTORE INREL
000728: 40,2423           02426        CLEAR1             TC       CLR5
000729: 40,2424           25015                           INCR     CLPASS                                #  ONLY IF CLPASS IS + OR +0
000730: 40,2425           05112                           TC       ENDOFJOB                              #  SET FOR HIGHER PASS.
000731: 40,2426           22002        CLR5               LXCH     Q                                     #  USED 5BLANK BUT AVOIDS ITS TC GETINREL
000732: 40,2427           02441                           TC       5BLANK     +2
000733: 40,2430           67715        LEGALTST           AD       NEG2
000734: 40,2431           10000                           CCS      A
000735: 40,2432           00002                           TC       Q                                     #  LEGAL         INREL G/2
000736: 40,2433           05640                           TC       CCSHOLE
000737: 40,2434           05112                           TC       ENDOFJOB                              #  ILLEGAL       INREL=0,1
000738: 40,2435           00002                           TC       Q                                     #  LEGAL         INREL=2
000739:
000740:                                                                                                  #  5BLANK BLANKS 5 CHAR DISPLAY WORD IN R1, R2, OR R3.  IT ALSO ZEROES XREG,
000741:                                                                                                  #  YREG, OR ZREG.  PLACE ANY + DSPCOUNT NUMBER FOR PERTINENT RC INTO DSPCOUNT.
000742:                                                                                                  #  DSPCOUNT IS LEFT SET TO LEFT MOST DSP NUMB FOR RC JUST BLANKED.
000743:
000744: 40,2436           54777                           TS       DSPCOUNT                              #  NEEDED FOR BLANKSUB
000745: 40,2437           22002        5BLANK             LXCH     Q
000746: 40,2440           02225                           TC       GETINREL
000747: 40,2441           34714                           CAF      ZERO
000748: 40,2442           50137                           INDEX    INREL
000749: 40,2443           55001                           TS       VERBREG                               #  ZERO X, Y, Z, REG.


000751: 40,2444           50137                           INDEX    INREL
000752: 40,2445           55004                           TS       XREGLP     -2
000753: 40,2446           54124                           TS       CODE
000754: 40,2447           50137                           INDEX    INREL                                 #  ZERO PERTINENT DEC COMP BIT.
000755: 40,2450           44704                           CS       BIT7                                  #  PROTECT OTHERS
000756: 40,2451           71000                           MASK     DECBRNCH
000757: 40,2452           72501                           MASK     BRNCHCON                              #  ZERO LOW 2 BITS.
000758: 40,2453           55000                           TS       DECBRNCH
000759: 40,2454           50137                           INDEX    INREL
000760: 40,2455           32471                           CAF      SINBLANK   -2                         #  BLANK ISOLATED CHAR SEPARATELY
000761: 40,2456           54143                           TS       COUNT
000762: 40,2457           03225                           TC       DSPIN
000763: 40,2460           50137        5BLANK1            INDEX    INREL
000764: 40,2461           32474                           CAF      DOUBLK     -2
000765: 40,2462           54777                           TS       DSPCOUNT
000766: 40,2463           02502                           TC       2BLANK
000767: 40,2464           44711                           CS       TWO
000768: 40,2465           26777                           ADS      DSPCOUNT
000769: 40,2466           02502                           TC       2BLANK
000770: 40,2467           50137                           INDEX    INREL
000771: 40,2470           34331                           CAF      R1D1       -2
000772: 40,2471           54777                           TS       DSPCOUNT                              #  SET DSPCOUNT TO LEFT MOST DSP NUMBER
000773: 40,2472           00001                           TC       L                                     #  OF REG. JUST BLANKED
000774:
000775: 40,2473           00016        SINBLANK           OCT      16                                    #  DEC 14
000776: 40,2474           00005                           OCT      5
000777: 40,2475           00004                           OCT      4
000778: 40,2476           00015        DOUBLK             OCT      15                                    #  DEC 13
000779: 40,2477           00011                           OCT      11                                    #  DEC 9
000780: 40,2500           00003                           OCT      3
000781:
000782: 40,2501           77774        BRNCHCON           OCT      77774
000783:
000784:                                                                                                  #  2BLANK BLANKS TWO CHAR. PLACE DSP NUMBER OF LEFT CHAR OF THE PAIR INTO
000785:                                                                                                  #  DSPCOUNT.  THIS NUMBER IS LEFT IN DSPCOUNT
000786:
000787: 40,2502           30777        2BLANK             CA       DSPCOUNT
000788: 40,2503           54021                           TS       SR
000789: 40,2504           42515                           CS       BLANKCON
000790: 40,2505           00004                           INHINT
000791: 40,2506           50021                           INDEX    SR
000792: 40,2507           57023                           XCH      DSPTAB
000793: 40,2510           00006                           EXTEND
000794: 40,2511           62513                           BZMF     +2                                    #  IF OLD CONTENTS -, NOUT OK
000795: 40,2512           25016                           INCR     NOUT                                  #  IF OLD CONTENTS +, +1 TO NOUT
000796: 40,2513           00003                           RELINT                                         #  IF -, NOUT OK
000797: 40,2514           00002                           TC       Q
000798: 40,2515           04000        BLANKCON           OCT      4000
000799:


000801:                                                                                                  #  ENTER PASS 0 IS THE EXECUTE FUNCTION.  HIGHER ORDER ENTERS ARE TO LOAD
000802:                                                                                                  #  DATA.  THE SIGN OF REQRET DETERMINES THE PASS, + FOR PASS 0, - FOR HIGHER
000803:                                                                                                  #  PASSES
000804:
000805:                                                                                                  #  MACHINE CADR TO BE SPECIFIED (MCTBS) NOUNS DESIRE AN ECADR TO BE LOADED
000806:                                                                                                  #  WHEN USED WITH LOAD VERBS, MONITOR VERBS, OR DISPLAY VERBS (EXCEPT
000807:                                                                                                  #  VERB = FIXED MEMORY DISPLAY, WHICH REQUIRES AN FCADR).
000808:
000809: 41,2000                                           BANK     41
000810: 41,2000                                           SETLOC   PINBALL2
000811: 41,2000                                           BANK
000812:
000813: 41,2000                                           COUNT    41/PIN
000814:
000815: 41,2000           03534        NVSUBB             TC       NVSUB1                                #  STANDARD LEAD INS.  DON'T MOVE.
000816: 41,2001           02771        LOADLV1            TC       LOADLV
000817:
000818:                                                                                                  #  END OF STANDARD LEAD INS.
000819:
000820: 41,2002           34714        ENTER              CAF      ZERO
000821: 41,2003           55015                           TS       CLPASS
000822: 41,2004           34233                           CAF      ENDINST
000823: 41,2005           54136                           TS       ENTRET
000824: 41,2006           11013                           CCS      REQRET
000825: 41,2007           02035                           TC       ENTPAS0                               #  IF +, PASS 0
000826: 41,2010           02035                           TC       ENTPAS0                               #  IF +, PASS 0
000827: 41,2011           02012                           TC       +1                                    #  IF -, NOT PASS 0
000828: 41,2012           32033        ENTPASHI           CAF      MMADREF
000829: 41,2013           61013                           AD       REQRET                                #  IF L/ 2 CHAR IN FOR MM CODE, ALARM
000830: 41,2014           00006                           EXTEND                                         #  AND RECYCLE (DECIDE AT MCHANG+1).
000831: 41,2015           12027                           BZF      ACCEPTWD
000832: 41,2016           36214                           CAF      THREE                                 #  IF DEC, ALARM IF L/ 5 CHAR IN FOR DATA,
000833: 41,2017           71000                           MASK     DECBRNCH                              #  BUT LEAVE REQRET - AND FLASH ON, SO
000834: 41,2020           10000                           CCS      A                                     #  OPERATOR CAN SUPPLY MISSING NUMERICAL
000835: 41,2021           02023                           TC       +2                                    #  CHARACTERS AND CONTINUE.
000836: 41,2022           02027                           TC       ACCEPTWD                              #  OCTAL.  ANY NUMBER OF CHAR OK.
000837: 41,2023           10777                           CCS      DSPCOUNT
000838: 41,2024           02350                           TC       GODSPALM                              #  LESS THAN 5 CHAR DEC(DSPCOUNT IS +)
000839: 41,2025           02350                           TC       GODSPALM                              #  LESS THAN 5 CHAR DEC(DSPCOUNT IS +)
000840: 41,2026           02027                           TC       +1                                    #  5 CHAR IN (DSPCOUNT IS -)
000841: 41,2027           41013        ACCEPTWD           CS       REQRET                                #  5 CHAR IN (DSPCOUNT IS -)
000842: 41,2030           55013                           TS       REQRET                                #  SET REQRET +.
000843: 41,2031           04447                           TC       FLASHOFF
000844: 41,2032           01013                           TC       REQRET
000845:
000846: 41,2033     0136               ENTEXIT            =        ENTRET
000847:
000848: 41,2033           03421        MMADREF            ADRES    MMCHANG    +1                         #  ASSUMES TC REQMM AT MMCHANG.
000849:


000851: 41,2034           00034        LOWVERB            DEC      28         B-14                       #  LOWER VERB THAT AVOIDS NOUN TEST.
000852:
000853: 41,2035           34714        ENTPAS0            CAF      ZERO                                  #  NOUN VERB SUB ENTERS HERE
000854: 41,2036           55000                           TS       DECBRNCH
000855: 41,2037           44374                           CS       VD1                                   #  BLOCK FURTHER NUM CHAR, SO THAT STRAY
000856: 41,2040           54777                           TS       DSPCOUNT                              #  CHAR DO NOT GET INTO VERB OR NOUN LTS.
000857: 41,2041           41001        TESTVB             CS       VERBREG                               #  IF VERB IS G/E LOWVB, SKIP NOUN TEST.
000858: 41,2042           55041                           TS       VERBSAVE                              #  SAVE VERB FOR POSSIBLE RECYCLE.
000859: 41,2043           62034                           AD       LOWVERB                               #  LOWVERB - VB
000860: 41,2044           00006                           EXTEND
000861: 41,2045           62133                           BZMF     VERBFAN                               #  VERB G/ E LOWVERB
000862: 41,2046           00006        TESTNN             EXTEND                                         #  VERB L/ LOWVERB
000863: 41,2047           32114                           DCA      LODNNLOC                              #  SWITCH BANKS TO NOUN TABLE READING
000864: 41,2050           52006                           DXCH     Z                                     #  ROUTINE.
000865: 41,2051           50140                           INDEX    MIXBR
000866: 41,2052           02052                           TC       +0
000867: 41,2053           02055                           TC       +2                                    #  NORMAL
000868: 41,2054           02221                           TC       MIXNOUN                               #  MIXED
000869: 41,2055           10146                           CCS      NNADTEM                               #  NORMAL
000870: 41,2056           02131                           TC       VERBFAN    -2                         #        NORMAL  IF +
000871: 41,2057           02350                           TC       GODSPALM                              #  NOT IN USE    IF +0
000872: 41,2060           02064                           TC       REQADD                                #  SPECIFY MACHINE CADR IF -
000873: 41,2061           25017                           INCR     NOUNCADR                              #  AUGMENT MACHINE CADR IF -0
000874: 41,2062           04325                           TC       SETNADD                               #  ECADR FROM NOUNCADR, SETS ED, NOUNADD.
000875: 41,2063           02120                           TC       INTMCTBS   +2
000876: 41,2064           34674        REQADD             CAF      BIT15                                 #  SET CLPASS FOR PASS 0 ONLY
000877: 41,2065           55015                           TS       CLPASS
000878: 41,2066           44233                           CS       ENDINST                               #  TEST IF REACHED HERE FROM INTERNAL OR
000879: 41,2067           60136                           AD       ENTEXIT                               #        FROM EXTERNAL
000880: 41,2070           00006                           EXTEND
000881: 41,2071           12073                           BZF      +2                                    #  EXTERNAL MACH CADR TO BE SPECIFIED
000882: 41,2072           02116                           TC       INTMCTBS
000883: 41,2073           02306                           TC       REQDATZ                               #  EXTERNAL MACH CADR TO BE SPECIFIED
000884: 41,2074           11000                           CCS      DECBRNCH                              #  ALARM AND RECYCLE IF DECIMAL USED
000885: 41,2075           04161                           TC       ALMCYCLE                              #  FOR MCTBS.
000886: 41,2076           44374                           CS       VD1                                   #  OCTAL USED OK
000887: 41,2077           54777                           TS       DSPCOUNT                              #  BLOCK NUM CHAR IN
000888: 41,2100           11042                           CCS      CADRSTOR
000889: 41,2101           02104                           TC       +3                                    #  EXTERNAL MCTBS DISPLAY WILL LEAVE FLASH
000890: 41,2102           02105                           TC       USEADD                                #  ON IF ENDIDLE NOT = +0.
000891: 41,2103           02104                           TC       +1
000892: 41,2104           04443                           TC       FLASHON
000893: 41,2105           57005        USEADD             XCH      ZREG
000894: 41,2106           04317                           TC       SETNCADR                              #  ECADR INTO NOUNCADR.  SET EB, NOUNADD.
000895: 41,2107           00006                           EXTEND
000896: 41,2110           32114                           DCA      LODNNLOC                              #  SWITCH BANKS TO NOUN TAB E READING
000897: 41,2111           52006                           DXCH     Z                                     #  ROUTINE.
000898: 41,2112           02133                           TC       VERBFAN
000899:
000900: 41,2113     0777                                  EBANK=   DSPCOUNT


000902: 41,2113           02062 64101  LODNNLOC           2CADR    LODNNTAB
000903:
000904: 41,2115           77772        NEG5               OCT      77772
000905:
000906: 41,2116           30156        INTMCTBS           CA       MPAC       +2                         #  INTERNAL MACH CADR TO BE SPECIFIED.
000907: 41,2117           04317                           TC       SETNCADR                              #  ECADR INTO NOUNCADR.  SET EB, NOUNADD.
000908: 41,2120           44715                           CS       FIVE                                  #  NVSUB CALL LEFT CADR IN MPAC+2 FOR MACH
000909: 41,2121           61001                           AD       VERBREG                               #  CADR TO BE SPECIFIED.
000910: 41,2122           00006                           EXTEND
000911: 41,2123           12133                           BZF      VERBFAN                               #  DON'T DISPLAY CADR IF VB = 05.
000912: 41,2124           34335                           CAF      R3D1                                  #  VB NOT = 05.  DISPLAY CADR.
000913: 41,2125           54777                           TS       DSPCOUNT
000914: 41,2126           31017                           CA       NOUNCADR
000915: 41,2127           03353                           TC       DSPOCTWO
000916: 41,2130           02133                           TC       VERBFAN
000917:
000918: 41,2131           64712                           AD       ONE
000919: 41,2132           04317                           TC       SETNCADR                              #  ECADR INTO NOUNCADR.  SETS EB, NOUNADD.
000920: 41,2133           42145        VERBFAN            CS       LST2CON
000921: 41,2134           61001                           AD       VERBREG                               #  VERB -- LST2CON
000922: 41,2135           10000                           CCS      A
000923: 41,2136           64712                           AD       ONE                                   #  VERB G/ LST2CON
000924: 41,2137           02141                           TC       +2
000925: 41,2140           02146                           TC       VBFANDIR                              #  VERB L/ LST2CON
000926: 41,2141           54154                           TS       MPAC
000927: 41,2142           04473                           TC       RELDSP                                #  RELEASE DISPLAY SYST
000928: 41,2143           04574                           TC       POSTJUMP                              #  GO TO GOEXTVB WITH VB=40 IN MPAC.
000929: 41,2144           66000                           CADR     GOEXTVB
000930: 41,2145           00050        LST2CON            DEC      40         B-14                       #  FIRST LIST2 VERB (EXTENDED VERB)
000931:
000932: 41,2146           51001        VBFANDIR           INDEX    VERBREG
000933: 41,2147           32151                           CAF      VERBTAB
000934: 41,2150           04577                           TC       BANKJUMP
000935:
000936: 41,2151           62350        VERBTAB            CADR     GODSPALM                              #  VB00 ILLEGAL
000937: 41,2152           62364                           CADR     DSPA                                  #  VB01 DISPLAY OCT COMP 1 (R1)
000938: 41,2153           62372                           CADR     DSPB                                  #  VB02 DISPLAY OCT COMP 2 (R1)
000939: 41,2154           62377                           CADR     DSPC                                  #  VB03 DISPLAY OCT COMP 3 (R1)
000940: 41,2155           62357                           CADR     DSPAB                                 #  VB04 DISPLAY OCT COMP 1,2 (R1,R2)
000941: 41,2156           62352                           CADR     DSPABC                                #  VB05 DISPLAY OCT COMP 1,2,3 (R1,R2,R3)
000942: 41,2157           62520                           CADR     DECDSP                                #  VB06 DECIMAL DISPLAY
000943: 41,2160           60675                           CADR     DSPDPDEC                              #  VB07 DP DECIMAL DISPLAY (R1,R2)
000944: 41,2161           62350                           CADR     GODSPALM                              #  VB08 SPARE
000945: 41,2162           62350                           CADR     GODSPALM                              #  VB09 SPARE
000946: 41,2163           61323                           CADR     DSPALARM                              #  VB10 SPARE
000947: 41,2164           63220                           CADR     MONITOR                               #  VB11 MONITOR OCT COMP 1 (R1)
000948: 41,2165           63220                           CADR     MONITOR                               #  VB12 MONITOR OCT COMP 2 (R1)
000949: 41,2166           63220                           CADR     MONITOR                               #  VB13 MONITOR OCT COMP 3 (R1)
000950: 41,2167           63220                           CADR     MONITOR                               #  VB14 MONITOR OCT COMP 1,2 (R1,R2)


000952: 41,2170           63220                           CADR     MONITOR                               #  VB15 MONITOR OCT COMP 1,2,3 (R1,R2,R3)
000953: 41,2171           63220                           CADR     MONITOR                               #  VB16 MONITOR DECIMAL
000954: 41,2172           63220                           CADR     MONITOR                               #  VB17 MONITOR DP DEC (R1,R2)
000955: 41,2173           62350                           CADR     GODSPALM                              #  VB18 SPARE
000956: 41,2174           62350                           CADR     GODSPALM                              #  VB19 SPARE
000957: 41,2175           62350                           CADR     GODSPALM                              #  VB20 SPARE
000958: 41,2176           62726                           CADR     ALOAD                                 #  VB21 LOAD COMP 1 (R1)
000959: 41,2177           62737                           CADR     BLOAD                                 #  VB22 LOAD COMP 2 (R2)
000960: 41,2200           62754                           CADR     CLOAD                                 #  VB23 LOAD COMP 3 (R3)
000961: 41,2201           62677                           CADR     ABLOAD                                #  VB24 LOAD COMP 1,2 (R1,R2)
000962: 41,2202           62612                           CADR     ABCLOAD                               #  VB25 LOAD COMP 1,2,3 (R1,R2,R3)
000963: 41,2203           62350                           CADR     GODSPALM                              #  VB26 SPARE
000964: 41,2204           63343                           CADR     DSPFMEM                               #  VB27 FIXED MEMORY DISPLAY
000965:                                                                                                  #  THE FOLLOWING VERBS MAKE NO NOUN TEST
000966: 41,2205           62350                           CADR     GODSPALM                              #  VB28 SPARE
000967: 41,2206           62350                           CADR     GODSPALM                              #  VB29 SPARE
000968: 41,2207           63456        REQEXLQC           CADR     VBRQEXEC                              #  VB30 REQUEST EXECUTIVE
000969: 41,2210           63502                           CADR     VBRQWAIT                              #  VB31 REQUEST WAITLIST
000970: 41,2211           61360                           CADR     VBRESEQ                               #  VB32 RESEQUENCE
000971: 41,2212           61343                           CADR     VBPROC                                #  VB33 PROCEED WITHOUT DATA
000972: 41,2213           61351                           CADR     VBTERM                                #  VB34 TERMINATE CURRENT TEST OR LOAD REQ
000973: 41,2214           63603                           CADR     VBTSTLTS                              #  VB35 TEST LIGHTS
000974: 41,2215           12347                           CADR     SLAP1                                 #  VB36 FRESH START
000975: 41,2216           63420                           CADR     MMCHANG                               #  VB37 CHANGE MAJOR MODE
000976: 41,2217           62350                           CADR     GODSPALM                              #  VB38 SPARE
000977: 41,2220           62350                           CADR     GODSPALM                              #  VB39 SPARE
000978:
000979:                                                                                                  #  THE LIST2 VERBFAN IS LOCATED IN THE EXTENDED VERB BANK.


000981:                                                                                                  #  NNADTAB CONTAINS A RELATIVE ADDRESS, IDADDREL (IN LOW 10 BITS), REFERRING
000982:                                                                                                  #  TO WHERE 3 CONSECUTIVE ADDRESSES ARE STORED (IN IDADDTAB).
000983:                                                                                                  #  MIXNOUN GETS DATA AND STORES IN MIXTEMP,+1,+2.  IT SETS NOUNADD FOR
000984:                                                                                                  #  MIXTEMP.
000985:
000986: 41,2221           10146        MIXNOUN            CCS      NNADTEM
000987: 41,2222           02226                           TC       +4                                    #  + IN USE
000988: 41,2223           02350                           TC       GODSPALM                              #  +0 NOT IN USE
000989: 41,2224           02226                           TC       +2                                    #  - IN USE
000990: 41,2225           02226                           TC       +1                                    #  -0 IN USE
000991: 41,2226           46211                           CS       SIX
000992: 41,2227           61001                           AD       VERBREG
000993: 41,2230           00006                           EXTEND
000994: 41,2231           62233                           BZMF     +2                                    #  VERB L/E 6
000995: 41,2232           02133                           TC       VERBFAN                               #  AVOID MIXNOUN SWAP IF VB NOT = DISPLAY
000996: 41,2233           34711                           CAF      TWO
000997: 41,2234           54117        MIXNN1             TS       DECOUNT
000998: 41,2235           62260                           AD       MIXAD
000999: 41,2236           54145                           TS       NOUNADD                               #  SET NOUNADD TO MIXTEMP +K
001000: 41,2237           50117                           INDEX    DECOUNT                               #  GET IDADDTAB ENTRY FOR COMPONENT K
001001: 41,2240           30150                           CA       IDAD1TEM                              #  OF NOUN.
001002: 41,2241           54122                           TS       NOUNTEM
001003:                                                                                                  #  TEST FOR DP (FOR OCT DISPLAY).  IF SO, GET
001004:                                                                                                  #        MINOR PART ONLY.
001005: 41,2242           03027                           TC       SFRUTMIX                              #  GET SF ROUT NUMBER IN A
001006: 41,2243           02261                           TC       DPTEST
001007: 41,2244           02246                           TC       MIXNN2                                #  NO DP
001008: 41,2245           24122                           INCR     NOUNTEM                               #  DP GET MINOR PART
001009: 41,2246           30122        MIXNN2             CA       NOUNTEM
001010: 41,2247           74372                           MASK     LOW11                                 #  ESUBK (NO DP) OR (ESUBK)+1 (garbled) FOR DP.
001011: 41,2250           04327                           TC       SETEBANK                              #  SET EBANK, LEAVE EADRES IN A.
001012: 41,2251           50000                           INDEX    A                                     #  PICK UP C(ESUBK) NOT DP.
001013: 41,2252           30000                           CA       0                                     #  OR C((ESUBK)+1) FOR DP MINOR PART
001014: 41,2253           50145                           INDEX    NOUNADD
001015: 41,2254           56000                           XCH      0                                     #  STORE IN MIXTEM + K
001016: 41,2255           10117                           CCS      DECOUNT
001017: 41,2256           02234                           TC       MIXNN1
001018: 41,2257           02133                           TC       VERBFAN
001019:
001020: 41,2260           00125        MIXAD              TC       MIXTEMP
001021:
001022:                                                                                                  #  DPTEST        ENTER WITH SF ROUT NUMBER IN A.
001023:                                                                                                  #                RETURNS TO L+1 IF NO DP.
001024:                                                                                                  #                RETURNS TO L+2 IF DP.
001025:
001026: 41,2261           50000        DPTEST             INDEX    A
001027: 41,2262           12263                           TCF      +1
001028: 41,2263           00002                           TC       Q                                     #  OCTAL ONLY NO DP
001029: 41,2264           00002                           TC       Q                                     #  FRACT NO DP


001031: 41,2265           00002                           TC       Q                                     #  DEG NO DP
001032: 41,2266           00002                           TC       Q                                     #  ARITH NO DP
001033: 41,2267           12300                           TCF      DPTEST1                               #  DP1OUT
001034: 41,2270           12300                           TCF      DPTEST1                               #  DP2OUT
001035: 41,2271           00002                           TC       Q                                     #  LRPOSOUT NO DP (DATA IN CHANNEL 33)
001036: 41,2272           12300                           TCF      DPTEST1                               #  DP3OUT
001037: 41,2273           00002                           TC       Q                                     #  HMS NO DP
001038: 41,2274           00002                           TC       Q                                     #  M/S NO DP
001039: 41,2275           12300                           TCF      DPTEST1                               #  DP4OUT
001040: 41,2276           00002                           TC       Q                                     #  ARITH1 NO DP
001041: 41,2277           00002                           TC       Q                                     #  2INTOUT NO DP TO GET HI PART IN MPAC
001042: 41,2300           50002        DPTEST1            INDEX    Q
001043: 41,2301           00001                           TC       1                                     #  RETURN TO L+2
001044:
001045: 41,2302           34333        REQDATX            CAF      R1D1
001046: 41,2303           12307                           TCF      REQCOM
001047: 41,2304           34334        REQDATY            CAF      R2D1
001048: 41,2305           12307                           TCF      REQCOM
001049: 41,2306           34335        REQDATZ            CAF      R3D1
001050: 41,2307           54777        REQCOM             TS       DSPCOUNT
001051: 41,2310           40002                           CS       Q
001052: 41,2311           55013                           TS       REQRET
001053: 41,2312           04555                           TC       BANKCALL
001054: 41,2313           60437                           CADR     5BLANK
001055: 41,2314           04443                           TC       FLASHON
001056: 41,2315           00136        ENDRQDAT           TC       ENTEXIT
001057:
001058: 41,2316           55002                           TS       NOUNREG
001059: 41,2317           56002        UPDATNN            XCH      Q
001060: 41,2320           54117                           TS       UPDATRET
001061: 41,2321           00006                           EXTEND
001062: 41,2322           32114                           DCA      LODNNLOC                              #  SWITCH BANKS TO NOUN (garbled)EADING
001063: 41,2323           52006                           DXCH     Z                                     #  ROUTINE.
001064: 41,2324           10146                           CCS      NNADTEM
001065: 41,2325           64712                           AD       ONE                                   #  NORMAL
001066: 41,2326           12331                           TCF      PUTADD
001067: 41,2327           12332                           TCF      PUTADD     +1                         #  MCTBS         DON'T CHANGE NOUNADD
001068: 41,2330           12332                           TCF      PUTADD     +1                         #  MCTBI         DON'T CHANGE NOUNADD
001069: 41,2331           04317        PUTADD             TC       SETNCADR                              #  ECADR INTO NOUNCADR.  SETS EB, NOUNADD.
001070: 41,2332           34375                           CAF      ND1
001071: 41,2333           54777                           TS       DSPCOUNT
001072: 41,2334           31002                           CA       NOUNREG
001073: 41,2335           12344                           TCF      UPDAT1
001074:
001075: 41,2336           55001                           TS       VERBREG
001076: 41,2337           56002        UPDATVB            XCH      Q
001077: 41,2340           54117                           TS       UPDATRET
001078: 41,2341           34374                           CAF      VD1
001079: 41,2342           54777                           TS       DSPCOUNT


001081: 41,2343           31001                           CA       VERBREG
001082: 41,2344           04574        UPDAT1             TC       POSTJUMP                              #  CAN'T USE SWCALL TO GO TC DSPDECVN, SINCE
001083: 41,2345           61222                           CADR     GOVNUPDT                              #  UPDATVB CAN ITSELF BE CALLED BY SWCALL.
001084: 41,2346           00117                           TC       UPDATRET
001085:
001086: 41,2347           04161        GOALMCYC           TC       ALMCYCLE                              #  NEEDED BECAUSE BANKJUMP CAN'T HANDLE F/F.
001087:
001088: 41,2350           04574        GODSPALM           TC       POSTJUMP
001089: 41,2351           61323                           CADR     DSPALARM
001090:


001092:                                                                                                  #  NOUN TABLES
001093:
001094:                                                                                                  #  NOUN CODE L/40, NORMAL NOUN CASE.  NOUN CODE G/E 40, MIXED NOUN CASE.
001095:                                                                                                  #  FOR NORMAL CASE, NNADTAB CONTAINS ONE ECADR FOR EACH NOUN.
001096:                                                                                                  #  +0 INDICATES NOUN NOT USED.  - ENTRY INDICATES MACHINE CADR (E OR F) TO
001097:                                                                                                  #  BE SPECIFIED.  -1 INDICATES CHANNEL TO BE SPECIFIED.  -0 INDICATES AUGMENT
001098:                                                                                                  #  OF LAST MACHINE CADR SUPPLIED.
001099:
001100:                                                                                                  #  FOR MIXED CASE, NNADTAB CONTAINS ONE INDIRECT ADDRESS (IDADDREL) IN LOW
001101:                                                                                                  #  10 BITS, AND THE COMPONENT CODE NUMBER IN THE HIGH 5 BITS.
001102:
001103:                                                                                                  #  NNTYPTAB IS A PACKED TABLE OF THE FORM MMMMMNNNNNPPPPP.
001104:
001105:                                                                                                  #  FOR THE NORMAL CASE,  M'S ARE THE COMPONENT CODE NUMBER.
001106:                                                                                                  #                        N'S ARE THE SF ROUTINE CODE NUMBER.
001107:                                                                                                  #                        P'S ARE THE SF CONSTANT CODE NUMBER.
001108:
001109:                                                                                                  #  MIXED-CASE,           M'S ARE THE SF CONSTANT3 CODE NUMBER    3 COMPONENT CASE
001110:                                                                                                  #                        N'S ARE THE SF CONSTANT2 CODE NUMBER
001111:                                                                                                  #                        P'S ARE THE SF CONSTANT1 CODE NUMBER
001112:                                                                                                  #                        N'S ARE THE SF CONSTANT2 CODE NUMBER    2 COMPONENT CASE
001113:                                                                                                  #                        P'S ARE THE SF CONSTANT1 CODE NUMBER
001114:                                                                                                  #                        P'S ARE THE SF CONSTANT1 CODE NUMBER    1 COMPONENT CASE
001115:
001116:                                                                                                  #  THERE IS ALSO AN INDIRECT ADDRESS TABLE (IDADDTAB) FOR MIXED CASE ONLY
001117:                                                                                                  #  EACH ENTRY CONTAINS ONE ECADR.  IDADDREL IS THE RELATIVE ADDRESS OF
001118:                                                                                                  #  THE FIRST OF THESE ENTRIES.
001119:
001120:                                                                                                  #  THERE IS ONE ENTRY IN THIS TABEL FOR EACH COMPONENT OF A MIXED NOUN
001121:                                                                                                  #  THEY ARE LISTED IN ORDER OF ASCENDING K.
001122:
001123:                                                                                                  #  THERE IS ALSO A SCALE FACTOR ROUTINE NUMBER TABLE (RUTMXTAB) FOR MIXED
001124:                                                                                                  #  CASE ONLY.  THERE IS ONE ENTRY PER MIXED NOUN.  THE FORM IS,
001125:
001126:                                                                                                  #        QQQQQRRRRRSSSSS
001127:
001128:                                                                                                  #  Q'S ARE THE SF ROUTINE 3 CODE NUMBER          3 COMPONENT CASE
001129:                                                                                                  #  R'S ARE THE SF ROUTINE 2 CODE NUMBER
001130:                                                                                                  #  S'S ARE THE SF ROUTINE 1 CODE NUMBER
001131:                                                                                                  #  R'S ARE THE SF ROUTINE 2 CODE NUMBER          2 COMPONENT CASE
001132:                                                                                                  #  S'S ARE THE SF ROUTINE 1 CODE NUMBER
001133:
001134:                                                                                                  #  IN OCTAL DISPLAY AND LOAD (OCT OR DEC) VERBS, EXCLUDE USE OF VERBS WHOSE
001135:                                                                                                  #  COMPONENT NUMBER IS GREATER THAN THE NUMBER OF COMONENTS IN NOUN.
001136:                                                                                                  #  (ALL MACHINE ADDRESS TO BE SPECIFIED NOUNS ARE 3 COMPONENT.)
001137:
001138:                                                                                                  #  IN MULTI-COMPONENT LOAD VERBS, NO MIXING OF OCTAL AND DECIMAL DATA
001139:                                                                                                  #  COMPONENT WORDS IS ALLOWED.  ALARM IF VIOLATION.
001140:
001141:                                                                                                  #  IN DECIMAL LOADS OF DATA, 5 NUMERICAL CHARACTERS MUST BE KEYED IN
001142:                                                                                                  #  BEFORE EACH ENTER.  IF NOT, ALARM.
001143:


001145:                                                                                                  #  DISPLAY VERBS
001146:
001147: 41,2352           44711        DSPABC             CS       TWO
001148: 41,2353           02423                           TC       COMPTEST
001149: 41,2354           50145                           INDEX    NOUNADD
001150: 41,2355           40002                           CS       2
001151: 41,2356           56132                           XCH      BUF        +2
001152: 41,2357           44712        DSPAB              CS       ONE
001153: 41,2360           02423                           TC       COMPTEST
001154: 41,2361           50145                           INDEX    NOUNADD
001155: 41,2362           40001                           CS       1
001156: 41,2363           56131                           XCH      BUF        +1
001157: 41,2364           02442        DSPA               TC       DECTEST
001158: 41,2365           02465                           TC       TSTFORDP
001159: 41,2366           50145                           INDEX    NOUNADD
001160: 41,2367           40000                           CS       0
001161: 41,2370           56130        DSPCOM1            XCH      BUF
001162: 41,2371           02404                           TC       DSPCOM2
001163: 41,2372           44712        DSPB               CS       ONE
001164: 41,2373           02436                           TC       DCOMPTST
001165: 41,2374           50145                           INDEX    NOUNADD
001166: 41,2375           40001                           CS       1
001167: 41,2376           02370                           TC       DSPCOM1
001168: 41,2377           44711        DSPC               CS       TWO
001169: 41,2400           02436                           TC       DCOMPTST
001170: 41,2401           50145                           INDEX    NOUNADD
001171: 41,2402           40002                           CS       2
001172: 41,2403           02370                           TC       DSPCOM1
001173: 41,2404           44711        DSPCOM2            CS       TWO                                   #  A B C AB ABC
001174: 41,2405           61001                           AD       VERBREG                               #  -1 -0 +1 +2 +3 IN A
001175: 41,2406           10000                           CCS      A                                     #  +0 +0 +1 +2 IN A AFTER CCS
001176: 41,2407           02412                           TC       DSPCOM3
001177: 41,2410           00136                           TC       ENTEXIT
001178: 41,2411           02412                           TC       +1
001179: 41,2412           54122        DSPCOM3            TS       DISTEM                                #  +0 +1 +2 INTO DISTEM
001180: 41,2413           50000                           INDEX    A
001181: 41,2414           34333                           CAF      R1D1
001182: 41,2415           54777                           TS       DSPCOUNT
001183: 41,2416           50122                           INDEX    DISTEM
001184: 41,2417           40130                           CS       BUF
001185: 41,2420           03353                           TC       DSPOCTWO
001186: 41,2421           56122                           XCH      DISTEM
001187: 41,2422           02406                           TC       DSPCOM2    +2
001188:
001189:                                                                                                  #  COMPTEST ALARMS IF COMPONENT NUMBER OF VERB (LOAD OR OCT DISPLAY) IS
001190:                                                                                                  #  GREATER THAN THE HIGHEST COMPONENT NUMBER OF NOUN.
001191:
001192: 41,2423           54123        COMPTEST           TS       SFTEMP1                               #  VERB COMP
001193: 41,2424           22002                           LXCH     Q
001194: 41,2425           02512        COMPTST1           TC       GETCOMP
001195: 41,2426           04345                           TC       LEFT5
001196: 41,2427           76214                           MASK     THREE                                 #  NOUN COMP


001198: 41,2430           60123                           AD       SFTEMP1                               #  NOUN COMP -- VERB COMP
001199: 41,2431           10000                           CCS      A
001200: 41,2432           00001                           TC       L                                     #  NOUN COMP G/ VERB COMP
001201: 41,2433           05640                           TC       CCSHOLE
001202: 41,2434           02350                           TC       GODSPALM                              #  NOUN COMP L/ VERB COMP
001203: 41,2435           00001        NDCMPTST           TC       L                                     #  NOUN COMP = VERB COMP
001204:
001205:                                                                                                  #  DCOMPTST ALARMS IF DECIMAL ONLY BIT (BIT4 OF COMP CODE NUMBER) = 1.
001206:                                                                                                  #  IF NOT, IT PERFORMS REGULAR COMPTEST.
001207:
001208: 41,2436           54123        DCOMPTST           TS       SFTEMP1                               #  - VERB COMP
001209: 41,2437           22002                           LXCH     Q
001210: 41,2440           02442                           TC       DECTEST
001211: 41,2441           02425                           TC       COMPTST1
001212:
001213: 41,2442           00006        DECTEST            EXTEND                                         #  ALARMS IF DEC ONLY BIT = 1 (BIT4 OF COMP
001214: 41,2443           22156                           QXCH     MPAC       +2                         #  CODE NUMBER).  RETURNS IF NOT.
001215: 41,2444           02512                           TC       GETCOMP
001216: 41,2445           74675                           MASK     BIT14
001217: 41,2446           10000                           CCS      A
001218: 41,2447           02350                           TC       GODSPALM
001219: 41,2450           00156                           TC       MPAC       +2
001220:
001221: 41,2451           22002        DCTSTCYC           LXCH     Q                                     #  ALARMS AND RECYCLES IF DEC ONLY BIT = 1
001222: 41,2452           02512                           TC       GETCOMP                               #  (BIT4 OF COMP CODE NUMBER). RETURNS
001223: 41,2453           74675                           MASK     BIT14                                 #  IF NOT.  USED BY LOAD VERBS.
001224: 41,2454           10000                           CCS      A
001225: 41,2455           04161                           TC       ALMCYCLE
001226: 41,2456           00001                           TC       L
001227:
001228:                                                                                                  #  NOUNTEST ALARMS IF NO-LOAD BIT (BIT5 OF COMP CODE NUMBER) = 1.
001229:                                                                                                  #  IF NOT, IT RETURNS.
001230:
001231: 41,2457           22002        NOUNTEST           LXCH     Q
001232: 41,2460           02512                           TC       GETCOMP
001233: 41,2461           10000                           CCS      A
001234: 41,2462           00001                           TC       L
001235: 41,2463           00001                           TC       L
001236: 41,2464           02350                           TC       GODSPALM
001237:
001238: 41,2465           22002        TSTFORDP           LXCH     Q                                     #  TEST FOR DP.  IF SO, GET MINOR PART ONLY.
001239: 41,2466           30146                           CA       NNADTEM
001240: 41,2467           64712                           AD       ONE                                   #  IF NNADTEM = -1, CHANNEL TO BE SPECIFIED
001241: 41,2470           00006                           EXTEND
001242: 41,2471           12503                           BZF      CHANDSP
001243: 41,2472           50140                           INDEX    MIXBR
001244: 41,2473           02473                           TC       +0
001245: 41,2474           02476                           TC       +2                                    #  NORMAL


001247: 41,2475           00001                           TC       L                                     #  MIXED CASE ALREADY HANDLED IN MIXNOUN
001248: 41,2476           03021                           TC       SFRUTNOR
001249: 41,2477           02261                           TC       DPTEST
001250: 41,2500           00001                           TC       L                                     #  NO DP
001251: 41,2501           24145                           INCR     NOUNADD                               #  DP    E+1 INTO NOUNADD FOR MINOR PART.
001252: 41,2502           00001                           TC       L
001253:
001254: 41,2503           00006        CHANDSP            EXTEND
001255: 41,2504           51017                           INDEX    NOUNCADR
001256: 41,2505           00000                           READ     0
001257: 41,2506           40000                           CS       A
001258: 41,2507           12370                           TCF      DSPCOM1
001259:
001260: 41,2510           00147        COMPICK            ADRES    NNTYPTEM
001261: 41,2511           00146                           ADRES    NNADTEM
001262:
001263: 41,2512           50140        GETCOMP            INDEX    MIXBR                                 #        NORMAL                          MIXED
001264: 41,2513           32507                           CAF      COMPICK    -1                         #        ADRES NNTYPTEM                  ADRES NNADTEM
001265: 41,2514           50000                           INDEX    A
001266: 41,2515           30000                           CA       0                                     #        C(NNTYPTEM)                     C(NNADTEM)
001267: 41,2516           74364                           MASK     HI5                                   #        GET HI5 OF NNTYPTAB (NORM)      OF NNADTAB (MIX)
001268: 41,2517           00002                           TC       Q
001269:
001270: 41,2520           02512        DECDSP             TC       GETCOMP
001271: 41,2521           04345                           TC       LEFT5
001272: 41,2522           76214                           MASK     THREE
001273: 41,2523           54117                           TS       DECOUNT                               #  COMP NUMBER INTO DECOUNT
001274: 41,2524           54122        DSPDCGET           TS       DECTEM                                #  PICKS UP DATA
001275: 41,2525           60145                           AD       NOUNADD                               #  DECTEM 1COMP +0, 2COMP +1, 3COMP +2
001276: 41,2526           50000                           INDEX    A
001277: 41,2527           40000                           CS       0
001278: 41,2530           50122                           INDEX    DECTEM
001279: 41,2531           57003                           XCH      XREG                                  #  CAN'T USE BUF SINCE DMP USES IT.
001280: 41,2532           10122                           CCS      DECTEM
001281: 41,2533           02524                           TC       DSPDCGET                              #  MORE TO GET
001282: 41,2534           34714        DSPDCPUT           CAF      ZERO                                  #  DISPLAYS DATA
001283: 41,2535           54155                           TS       MPAC       +1                         #  DECOUNT 1COMP +0, 2COMP +1, 3COMP +2
001284: 41,2536           54156                           TS       MPAC       +2
001285: 41,2537           50117                           INDEX    DECOUNT
001286: 41,2540           34333                           CAF      R1D1
001287: 41,2541           54777                           TS       DSPCOUNT
001288: 41,2542           50117                           INDEX    DECOUNT
001289: 41,2543           41003                           CS       XREG
001290: 41,2544           54154                           TS       MPAC
001291: 41,2545           03042                           TC       SFCONUM                               #  2X (SF CON NUMB) IN A
001292: 41,2546           54123                           TS       SFTEMP1
001293: 41,2547           00006                           EXTEND                                         #  SWITCH BANKS TO SF CONSTANT TABLE


001295: 41,2550           32562                           DCA      GTSFOUTL                              #        READING ROUTINE.
001296: 41,2551           52006                           DXCH     Z                                     #  LOADS SFTEMP1, SFTEMP2
001297: 41,2552           50140                           INDEX    MIXBR
001298: 41,2553           02553                           TC       +0
001299: 41,2554           02557                           TC       DSPSFNOR
001300: 41,2555           03027                           TC       SFRUTMIX
001301: 41,2556           02572                           TC       DECDSP3
001302:
001303: 41,2557           03021        DSPSFNOR           TC       SFRUTNOR
001304: 41,2560           02572                           TC       DECDSP3
001305:
001306: 41,2561     0777                                  EBANK=   DSPCOUNT
001307: 41,2561           02120 64101  GTSFOUTL           2CADR    GTSFOUT
001308:
001309: 41,2563           04555        DSPDCEND           TC       BANKCALL                              #  ALL SFOUT ROUTINES END HERE
001310: 41,2564           61131                           CADR     DSPDECWD
001311: 41,2565           10117                           CCS      DECOUNT
001312: 41,2566           02570                           TC       +2
001313: 41,2567           00136                           TC       ENTEXIT
001314: 41,2570           54117                           TS       DECOUNT
001315: 41,2571           02534                           TC       DSPDCPUT                              #  MORE TO DISPLAY
001316:
001317: 41,2572           50000        DECDSP3            INDEX    A
001318: 41,2573           32575                           CAF      SFOUTABR
001319: 41,2574           04577                           TC       BANKJUMP
001320:
001321: 41,2575           61321        SFOUTABR           CADR     PREDSPAL                              #  ALARM IF DEC DISP WITH OCTAL ONLY NOUN
001322: 41,2576           62563                           CADR     DSPDCEND
001323: 41,2577           60516                           CADR     DEGOUTSF
001324: 41,2600           60603                           CADR     ARTOUTSF
001325: 41,2601           60614                           CADR     DP1OUTSF
001326: 41,2602           60621                           CADR     DP2OUTSF
001327: 41,2603           60524                           CADR     OPDEGOUT
001328: 41,2604           60623                           CADR     DP3OUTSF
001329: 41,2605           65143                           CADR     HMSOUT
001330: 41,2606           65216                           CADR     M/SOUT
001331: 41,2607           60621                           CADR     DP2OUTSF
001332: 41,2610           60610                           CADR     AROUT1SF
001333: 41,2611           60636                           CADR     2INTOUT
001334: 41,2612                        ENDRTOUT           EQUALS
001335:
001336:                                                                                                  #  THE FOLLOWING IS ATYPICAL SF ROUTINE.  IT USES MPAC.  LEAVES RESULTS
001337:                                                                                                  #  IN MPAC, MPAC+1.  ENDS WITH TC DSPDCEND
001338:
001339: 40,2516                                           SETLOC   BLANKCON   +1


001341:
001342: 40,2516                                           COUNT    40/PIN
001343:                                                                                                  #  DEGOUTSF SCALES BY .16 THE LOW 14 BITS OF ANGLE, ADDING .18 FOR
001344:                                                                                                  #  NUMBERS IN THE NEGATIVE (AGC) RANGE.
001345:
001346: 40,2516           34714        DEGOUTSF           CAF      ZERO
001347: 40,2517           54156                           TS       MPAC       +2                         #  SET INDEX FOR FULL SCALE.
001348: 40,2520           02555                           TC       FIXRANGE
001349: 40,2521           02523                           TC       +2                                    #  NO AUGMENT NEEDED (SFTEMP1 AND 2 ARE 0)
001350: 40,2522           02550                           TC       SETAUG                                #  SET AUGMENTER ACCORDING TO C(MPAC +2)
001351: 40,2523           02566                           TC       DEGCOM
001352:
001353:                                                                                                  #  OPDEGOUT SCALES BY .45 (THE RANGE IS 90 DEGREES) AND ADDS A 20 DEG BIAS.
001354:
001355: 40,2524           10154        OPDEGOUT           CCS      MPAC                                  #  RANGE IS 90 DEG
001356: 40,2525           56154                           XCH      MPAC                                  #  IF POS OR POS 0 THEN ADD BIAS AND
001357: 40,2526           02531                           TC       +3                                    #  CORRECT FOR POSSIBLE OVERFLOW
001358: 40,2527           02540                           TC       NEGOPT                                #  IF NEG NON ZERO
001359: 40,2530           67716                           AD       NEG1                                  #  IF NEG ZERO SUBTRACT 1
001360: 40,2531           62602                           AD       20BIAS
001361: 40,2532           54154        BIASCOM            TS       MPAC                                  #  TEST FOR OVEFLOW
001362: 40,2533           02536                           TC       +3                                    #  NO OVFLOW
001363: 40,2534           34674                           CAF      BIT15                                 #  IF OVFLOW
001364: 40,2535           26154                           ADS      MPAC
001365: 40,2536           34711                           CAF      TWO                                   #  SET MULTIPLIER TO .45
001366: 40,2537           02517                           TC       DEGOUTSF   +1
001367:
001368: 40,2540           56154        NEGOPT             XCH      MPAC                                  #  NEGATIVE CASE
001369: 40,2541           62602                           AD       20BIAS
001370: 40,2542           10000                           CCS      A
001371: 40,2543           02532                           TC       BIASCOM                               #  IF POS THEN SUBTRACT 1 BECASUE OF 2SCOM
001372: 40,2544           05640                           TC       CCSHOLE
001373: 40,2545           64712                           AD       ONE                                   #  IF NEG RESTORE SUM
001374: 40,2546           40000                           COM                                            #  IF NEG 0 LEAVE NEG 0
001375: 40,2547           02532                           TC       BIASCOM
001376:
001377: 40,2550           00006        SETAUG             EXTEND                                         #  LOADS SFTEMP1 AND SFTEMP2 WITH THE
001378: 40,2551           50156                           INDEX    MPAC       +2                         #  DP AUGMENTER CONSTANT
001379: 40,2552           32577                           DCA      DEGTAB
001380: 40,2553           52124                           DXCH     SFTEMP1
001381: 40,2554           00002                           TC       Q
001382:
001383: 40,2555           10154        FIXRANGE           CCS      MPAC                                  #  IF MPAC IS + RETURN TO L+1
001384: 40,2556           00002                           TC       Q                                     #  IF MPAC IS - RETURN TO L+2 AFTER
001385: 40,2557           00002                           TC       Q                                     #  MASKING OUT THE SIGN BIT
001386: 40,2560           12561                           TCF      +1
001387: 40,2561           44674                           CS       BIT15
001388: 40,2562           70154                           MASK     MPAC
001389: 40,2563           54154                           TS       MPAC
001390: 40,2564           50002                           INDEX    Q


001392: 40,2565           00001                           TC       1
001393:
001394: 40,2566           00006        DEGCOM             EXTEND                                         #  LOADS MULTIPLIER, DOES SHORTMP, AND
001395: 40,2567           50156                           INDEX    MPAC       +2                         #  ADDS AUTMENTER.
001396: 40,2570           32577                           DCA      DEGTAB
001397: 40,2571           52155                           DXCH     MPAC                                  #  ADJUSTED ANGLE IN A
001398: 40,2572           07256                           TC       SHORTMP
001399: 40,2573           52124                           DXCH     SFTEMP1
001400: 40,2574           20155                           DAS      MPAC
001401: 40,2575           02606                           TC       SCOUTEND
001402:
001403: 40,2576           05605        DEGTAB             OCT      05605                                 #  HI PART OF    .18
001404: 40,2577           03656                           OCT      03656                                 #  LOW PART OF   .18
001405: 40,2600           16314                           OCT      16314                                 #  HI PART OF    .45
001406: 40,2601           31463                           OCT      31463                                 #  LO PART OF    .45
001407:
001408: 40,2602           16040        20BIAS             OCT      16040                                 #  20 DEG BIAS FOR OPTICS
001409:
001410: 40,2603           52124        ARTOUTSF           DXCH     SFTEMP1                               #  ASSUMES POINT AT LEFT OF DP SFCON
001411: 40,2604           52155                           DXCH     MPAC
001412: 40,2605           04431                           TC       PRSHRTMP                              #  IF C(A) = -0, SHORTMP FAILS TO GIVE -0.
001413: 40,2606           04574        SCOUTEND           TC       POSTJUMP
001414: 40,2607           62563                           CADR     DSPDCEND
001415:
001416: 40,2610           52124        AROUT1SF           DXCH     SFTEMP1                               #  ASSUMES POINT BETWEEN HI AND LO PARTS OF
001417: 40,2611           52155                           DXCH     MPAC                                  #  DP SFCON.  SHIFTS RESULTS LEFT 14, BY
001418: 40,2612           04431                           TC       PRSHRTMP                              #  TAKING RESULTS FROM MPAC+1, MPAC+2.
001419: 40,2613           02615                           TC       L14/OUT
001420:
001421: 40,2614           02627        DP1OUTSF           TC       DPOUT                                 #  SCALES MPAC, MPAC +1 BY DP SCALE FACTOR
001422: 40,2615           56156        L14/OUT            XCH      MPAC       +2                         #  IN SFTEMP1, SFTEMP2.  THEN SCALE RESULT
001423: 40,2616           56155                           XCH      MPAC       +1                         #  BY B14
001424: 40,2617           54154                           TS       MPAC
001425: 40,2620           02606                           TC       SCOUTEND
001426:
001427: 40,2621           02627        DP2OUTSF           TC       DPOUT                                 #  SCALES MPAC, MPAC +1 BY DP SCALE FACTOR
001428: 40,2622           02606                           TC       SCOUTEND
001429:
001430: 40,2623           02627        DP3OUTSF           TC       DPOUT                                 #  ASSUMES POINT BETWEEN BITS 7-8 OF HIGH
001431: 40,2624           36211                           CAF      SIX                                   #  LEFT BY 7, ROUNDS MPAC+2 INTO MPAC+1
001432: 40,2625           03056                           TC       TPLEFTN                               #  SHIFT LEFT 7.
001433: 40,2626           02606                           TC       SCOUTEND
001434:
001435: 40,2627     0162               MPAC+6             =        MPAC       +6                         #  USE MPAC +6 INSTEAD OF OVFIND
001436:


001438: 40,2627           56002        DPOUT              XCH      Q
001439: 40,2630           54162                           TS       MPAC+6
001440: 40,2631           02653                           TC       READLO                                #  GET FRESH DATA FOR BOTH HI AND LO.
001441: 40,2632           07226                           TC       TPAGREE                               #  MAKE DP DATA AGREE
001442: 40,2633           07052                           TC       DMP
001443: 40,2634           00123                           ADRES    SFTEMP1
001444: 40,2635           00162                           TC       MPAC+6
001445:
001446:                                                                                                  #  THE FOLLOWING ROUTINE DISPLAYS TWO CONTIGUOUS SP POSITIVE INTEGERS
001447:                                                                                                  #  AS TWO POSITIVE DECIMAL INTEGERS IN RXD1-RXD2 AND RXD4-RXD5 (RXD3 IS
001448:                                                                                                  #  BLANKED).  THE INTEGER IN THE LOWER NUMBERED ADDRESS IS DISPLAYED IN
001449:                                                                                                  #  RXD1-RXD2.
001450:
001451: 40,2636           02437        2INTOUT            TC       5BLANK                                #  TO BLANK RXD3
001452: 40,2637           02314                           TC       +ON                                   #  TURN ON + SIGN
001453: 40,2640           30154                           CA       MPAC
001454: 40,2641           03211                           TC       DSPDECVN                              #  DISPLAY 1ST INTEGER (LIKE VERB AND NOUN)
001455: 40,2642           46214                           CS       THREE
001456: 40,2643           50117                           INDEX    DECOUNT
001457: 40,2644           64333                           AD       R1D1                                  #  RXD4
001458: 40,2645           54777                           TS       DSPCOUNT
001459: 40,2646           02653                           TC       READLO                                #  GET 2ND INTEGER
001460: 40,2647           30155                           CA       MPAC       +1
001461: 40,2650           03211                           TC       DSPDECVN                              #  DISPLAY 2ND INTEGER (LIKE VERB AND NOUN)
001462: 40,2651           04574                           TC       POSTJUMP
001463: 40,2652           62565                           CADR     DSPDCEND   +2
001464:
001465:                                                                                                  #  READLO PICKS UP FRESHDATA FOR BOTH HI AND LO AND LEAVES IT IN
001466:                                                                                                  #  MPAC, MPAC+1.  THIS IS NEEDED FOR TIME DISPLAY.  IT ZEROES MPAC+2, BUT
001467:                                                                                                  #  DOES NOT FORCE TPAGREE.
001468:
001469: 40,2653           56002        READLO             XCH      Q
001470: 40,2654           54144                           TS       TEM4
001471: 40,2655           50140                           INDEX    MIXBR
001472: 40,2656           02656                           TC       +0
001473: 40,2657           02673                           TC       RDLONOR
001474: 40,2660           50117                           INDEX    DECOUNT
001475: 40,2661           30150                           CA       IDAD1TEM                              #  GET IDADDTAB ENTRY FOR COMP K OF NOUN.
001476: 40,2662           74372                           MASK     LOW11                                 #  E SUBK
001477: 40,2663           04327                           TC       SETEBANK                              #  SET EB, LEAVE EADRES IN A
001478: 40,2664           00006        READLO1            EXTEND                                         #  MIXED                         NORMAL
001479: 40,2665           50000                           INDEX    A                                     #  C(ESUBK)                      C(E)
001480: 40,2666           30001                           DCA      0                                     #  C(E SUBK)+1)                  C(E+1)
001481: 40,2667           52155                           DXCH     MPAC
001482: 40,2670           34714                           CAF      ZERO
001483: 40,2671           54156                           TS       MPAC       +2
001484: 40,2672           00144                           TC       TEM4
001485:
001486: 40,2673           30145        RDLONOR            CA       NOUNADD                               #  E
001487: 40,2674           02664        ENDRDLO            TC       READLO1
001488:


001490: 42,3143                                           BANK     42
001491: 42,2000                                           SETLOC   PINBALL3
001492: 42,2000                                           BANK
001493:
001494: 42,3143                                           COUNT    42/PIN
001495:
001496: 42,3143           04555        HMSOUT             TC       BANKCALL                              #  READ FRESH DATA FOR HI AND LO INTO MPAC.
001497: 42,3144           60653                           CADR     READLO                                #  MPAC+1.
001498: 42,3145           07226                           TC       TPAGREE                               #  MAKE DP DATA AGREE.
001499: 42,3146           03332                           TC       SEPSECNR                              #  LEAVE FRACT SEC/60 IN MPAC, MPAC+1.  LEAVE
001500:                                                                                                  #  WHOLE MIN IN BIT13 OF LOTEMOUT AND ABOVE
001501: 42,3147           07052                           TC       DMP                                   #  USE ONLY FRACT SEC/60 MOD 60
001502: 42,3150           03204                           ADRES    SECON2                                #  MULT BY .06
001503: 42,3151           34335                           CAF      R3D1                                  #  GIVES CENTI-SEC/10EXP5 MOD 60
001504: 42,3152           54777                           TS       DSPCOUNT
001505: 42,3153           04555                           TC       BANKCALL                              #  DISPLAY SEC MOD 60
001506: 42,3154           61131                           CADR     DSPDECWD
001507: 42,3155           03350                           TC       SEPMIN                                #  REMOVE REST OF SECONDS
001508: 42,3156           33206                           CAF      MINCON2                               #  LEAVE FRACT MIN/60 IN MPAC+1.  LEAVE
001509: 42,3157           56154                           XCH      MPAC                                  #  WHOLE HOURS IN MPAC.
001510: 42,3160           55007                           TS       HITEMOUT                              #  SAVE WHOLE HOURS.
001511: 42,3161           33207                           CAF      MINCON2    +1
001512: 42,3162           56155                           XCH      MPAC       +1                         #  USE ONLY FRACT MIN/60 MOD 60
001513: 42,3163           04431                           TC       PRSHRTMP                              #  IF C(A) = -0, SHORTMP FAILS TO GIVE -0.
001514:                                                                                                  #  MULT BY .0006
001515: 42,3164           34334                           CAF      R2D1                                  #  GIVE MIN/10EXP5 MOD 60
001516: 42,3165           54777                           TS       DSPCOUNT
001517: 42,3166           04555                           TC       BANKCALL                              #  DISPLAY MIN MOD 60
001518: 42,3167           61131                           CADR     DSPDECWD
001519: 42,3170           00006                           EXTEND                                         #  MINUTES, SECONDS HAVE BEEN REMOVED
001520: 42,3171           33213                           DCA      HRCON1
001521: 42,3172           52155                           DXCH     MPAC
001522: 42,3173           31007                           CA       HITEMOUT                              #  USE WHOLE HOURS
001523: 42,3174           04431                           TC       PRSHRTMP                              #  IF C(A) = -0, SHORTMP FAILS TO GIVE -0.
001524:                                                                                                  #  MULT BY .16384
001525: 42,3175           34333                           CAF      R1D1                                  #  GIVES HOURS/10EXP5
001526: 42,3176           54777                           TS       DSPCOUNT
001527: 42,3177           04555                           TC       BANKCALL                              #  USE REGULAR DSPDECWD WITH ROUND OFF.
001528: 42,3200           61131                           CADR     DSPDECWD
001529: 42,3201           00136                           TC       ENTEXIT
001530:
001531: 42,3202           25660 31742  SECON1             2DEC*    1.666666666 E-4        B12*            #  2EXP12/6000
001532: 42,3204           01727        SECON2             OCT      01727                                 #  .06 FOR SECONDS DISPLAY
001533: 42,3205           01217                           OCT      01217
001534: 42,3206           00011        MINCON2            OCT      00011                                 #  .0006 FOR MINUTES DISPLAY
001535: 42,3207           32445                           OCT      32445
001536: 42,3210           02104        MINCON1            OCT      02104                                 #  .06..66 UPPED BY 2EXP-2B
001537: 42,3211           10422                           OCT      10422
001538: 42,3212           05174 13261  HRCON1             2DEC     .16384


001540: 42,3214           00000                           OCT      00000
001541: 42,3215           00062        RNDCON             OCT      00062                                 #  .5 SEC
001542:
001543: 42,3216           04555        M/SOUT             TC       BANKCALL                              #  READ FRESH DATA FOR HI AND LO INTO MPAC.
001544: 42,3217           60653                           CADR     READLO                                #  MPAC+1.
001545: 42,3220           07226                           TC       TPAGREE                               #  MAKE DP DATA AGREE
001546: 42,3221           10154                           CCS      MPAC                                  #  IF MAG OF (MPAC, MPAC+1) G/ 59 M 59 S.
001547: 42,3222           03224                           TC       +2                                    #  DISPLAY 59B59, WITH PROPER SIGN.
001548: 42,3223           03255                           TC       M/SNORM                               #  MPAC = +0.  L/ 59M58.5S
001549: 42,3224           63312                           AD       M/SCON1                               #  - HI PART OF (59M58.5) +1 FOR CCS
001550: 42,3225           10000                           CCS      A                                     #  MAG OF MPAC - HI PART OF (59M58.5S)
001551: 42,3226           03241                           TC       M/SLIMIT                              #  G/ 59M58.5S
001552: 42,3227           03255                           TC       M/SNORM                               #  ORIGINAL MPAC = -0.  L/59M58.5S
001553: 42,3230           03255                           TC       M/SNORM                               #  L/ 59M58.5S
001554: 42,3231           10155                           CCS      MPAC       +1                         #  MAG OF MPAC = HI PART OF 59M58.5S
001555: 42,3232           03234                           TC       +2
001556: 42,3233           03255                           TC       M/SNORM                               #  MPAC+1 = +0.  L/ 59M58.5S
001557: 42,3234           63313                           AD       M/SCON2                               #  - LO PART OF (59M58.5S) +1 FOR CCS
001558: 42,3235           10000                           CCS      A                                     #  MAG OF MPAC+1 - LO PART OF (59M58.5S)
001559: 42,3236           03241                           TC       M/SLIMIT                              #  G/ 59M58.5S
001560: 42,3237           03255                           TC       M/SNORM                               #  ORIGINAL MPAC+1 = -0.  L/ 49M58.5S
001561: 42,3240           03255                           TC       M/SNORM                               #  L/ 59M58.5S
001562: 42,3241           10154        M/SLIMIT           CCS      MPAC                                  #  = 59M58.5S    LIMIT
001563: 42,3242           33315                           CAF      M/SCON3                               #  MPAC CANNOT BE +/- 0 AT THIS POINT.
001564: 42,3243           03252                           TC       +LIMIT                                #  FORCE MPAC, MPAC+1 TO +/- 59M58.5S
001565: 42,3244           43315                           CS       M/SCON3
001566: 42,3245           54154                           TS       MPAC                                  #  WILL DISPLAY 59M59S IN DSPDECNR
001567: 42,3246           43316                           CS       M/SCON3    +1
001568: 42,3247           54155        LIMITCOM           TS       MPAC       +1
001569: 42,3250           33314                           CAF      NORMADR                               #  SET RETURN TO M/SNORM+1.
001570: 42,3251           03333                           TC       SEPSECNR   +1
001571: 42,3252           54154        +LIMIT             TS       MPAC
001572: 42,3253           33316                           CAF      M/SCON3    +1
001573: 42,3254           03247                           TC       LIMITCOM
001574: 42,3255           03317        M/SNORM            TC       SEPSEC                                #  LEAVE FRACT SEC/60 IN MPAC,MPAC+1.  LEAVE
001575:                                                                                                  #  WHOLE MIN IN BIT13 OF LOTEMOUT AND ABOVE
001576: 42,3256           33310                           CAF      HISECON                               #  USE ONLY FRACT SEC/60 MOD 60
001577: 42,3257           07256                           TC       SHORTMP                               #  MULT BY .6 + 2EXP-14
001578: 42,3260           46214                           CS       THREE                                 #  GIVES SEC/100 MOD 60
001579: 42,3261           26777                           ADS      DSPCOUNT                              #  DSPCOUNT ALREADY SET TO RXD1
001580: 42,3262           04555                           TC       BANKCALL                              #  DISPLAY SEC MOD 60 IN D4D5.
001581: 42,3263           61171                           CADR     DSPDC2NR
001582: 42,3264           34714                           CAF      ZERO
001583: 42,3265           54124                           TS       CODE
001584: 42,3266           44711                           CS       TWO
001585: 42,3267           50117                           INDEX    DECOUNT
001586: 42,3270           64333                           AD       R1D1                                  #  RXD3
001587: 42,3271           54143                           TS       COUNT
001588: 42,3272           04555                           TC       BANKCALL                              #  BLANK MIDDLE CHAR


001590: 42,3273           61225                           CADR     DSPIN
001591: 42,3274           03350                           TC       SEPMIN                                #  REMOVE REST OF SECONDS
001592: 42,3275           56155                           XCH      MPAC       +1                         #  LEAVE FRACT MIN/60 IN MPAC+1
001593: 42,3276           00006                           EXTEND                                         #  USE ONLY FRACT MIN/60 MOD 60
001594: 42,3277           73311                           MP       HIMINCON                              #  MULT BY .6 + 2EXP-7
001595: 42,3300           52155                           DXCH     MPAC                                  #  GIVES MIN/100 MOD 60
001596: 42,3301           50117                           INDEX    DECOUNT
001597: 42,3302           34333                           CAF      R1D1                                  #  RXD1
001598: 42,3303           54777                           TS       DSPCOUNT
001599: 42,3304           04555                           TC       BANKCALL                              #  DISPLAY MIN MOD 60 IN D1D2.
001600: 42,3305           61171                           CADR     DSPDC2NR
001601: 42,3306           04574                           TC       POSTJUMP
001602: 42,3307           62565                           CADR     DSPDCEND   +2
001603:
001604: 42,3310           23147        HISECON            OCT      23147                                 #  .6 + 2EXP-14
001605: 42,3311           23346        HIMINCON           OCT      23346                                 #  .6 + 2EXP-7
001606:
001607: 42,3312           77753        M/SCON1            OCT      77753                                 #  - HI PART OF (59M58.5S)
001608: 42,3313           41126        M/SCON2            OCT      41126                                 #  - LO PART OF (59M58.5S)
001609: 42,3314           03256        NORMADR            ADRES    M/SNORM    +1
001610: 42,3315           00025        M/SCON3            OCT      00025                                 #  59M 59.5S
001611: 42,3316           37016                           OCT      37016
001612:
001613: 42,3317           10155        SEPSEC             CCS      MPAC       +1                         #  IF +, ROUND BY ADDING .5 SEC
001614: 42,3320           13327                           TCF      POSEC                                 #  IF -, ROUND BY SUBTRACING .5 SEC
001615: 42,3321           13327                           TCF      POSEC                                 #  FINDS TIME IN MPAC, MPAC+1
001616: 42,3322           13323                           TCF      +1                                    #  ROUNDS OFF BY +/- .5 SEC
001617: 42,3323           00006                           EXTEND                                         #  LEAVES WHOLE MIN IN BIT13 OF
001618: 42,3324           43215                           DCS      RNDCON     -1                         #  LOTEMOUT AND ABOVE.
001619: 42,3325           20155        SEPSEC1            DAS      MPAC                                  #  LEAVES FRACT SEC/60 IN MPAC, MPAC+1.
001620: 42,3326           13332                           TCF      SEPSECNR
001621: 42,3327           00006        POSEC              EXTEND
001622: 42,3330           33215                           DCA      RNDCON     -1
001623: 42,3331           13325                           TCF      SEPSEC1
001624: 42,3332           56002        SEPSECNR           XCH      Q                                     #  THIS ENTRY AVOIDS ROUNDING BY .5 SEC
001625: 42,3333           54144                           TS       SEPSCRET
001626: 42,3334           07052                           TC       DMP                                   #  MULT BY 2EXP12/6000
001627: 42,3335           03202                           ADRES    SECON1                                #  GIVES FRACT SEC/60 IN BIT12 OF MPAC+1
001628: 42,3336           00006                           EXTEND                                         #  AND BELOW.
001629: 42,3337           30155                           DCA      MPAC                                  #  SAVE MINUTES AND HOURS
001630: 42,3340           53010                           DXCH     HITEMOUT
001631: 42,3341           04420                           TC       TPSL1
001632: 42,3342           04420                           TC       TPSL1                                 #  GIVES FRACT SEC/60 IN MPAC+1, MPAC+2.
001633: 42,3343           34714                           CAF      ZERO
001634: 42,3344           56156                           XCH      MPAC       +2                         #  LEAVE FRACT SEC/60 IN MPAC, MPAC+1.
001635: 42,3345           56155                           XCH      MPAC       +1
001636: 42,3346           56154                           XCH      MPAC
001637: 42,3347           00144                           TC       SEPSCRET
001638:


001640: 42,3350           56002        SEPMIN             XCH      Q                                     #  FIND WHOLE MINUTES IN BIT13
001641: 42,3351           54144                           TS       SEPMNRET                              #  OF LOTEMOUT AND ABOVE.
001642: 42,3352           31010                           CA       LOTEMOUT                              #  REMOVES REST OF SECONDS.
001643: 42,3353           00006                           EXTEND                                         #  LEAVES FRACT MIN/60 IN MPAC+1.
001644: 42,3354           74710                           MP       BIT3                                  #  LEAVES WHOLE HOURS IN MPAC.
001645: 42,3355           00006                           EXTEND                                         #  SR 12, THROW AWAY LP.
001646: 42,3356           74676                           MP       BIT13                                 #  SR 2, TAKE FROM LP. = SL 12.
001647: 42,3357           22155                           LXCH     MPAC       +1                         #  THIS FORCES BITS 12-1 TO 0 IF +.
001648:                                                                                                  #  FORCES BITS 12-1 TO 1 IF -.
001649: 42,3360           31007                           CA       HITEMOUT
001650: 42,3361           54154                           TS       MPAC
001651: 42,3362           07052                           TC       DMP                                   #  MULT BY 1/15
001652: 42,3363           03210                           ADRES    MINCON1                               #  GIVES FRACT MIN/60 IN MPAC+1.
001653: 42,3364           00144        ENDSPMIN           TC       SEPMNRET                              #  GIVES WHOLE HOURS IN MPAC.
001654:
001655:                                                                                                  #  THIS IS A SPECIAL PURPOS VERB FOR DISPLAYING A DOUBLE PRECISION AGC
001656:                                                                                                  #  WORD AS 10 DECIMAL DIGITS ON THE AGC DISPLAY PANEL.  IT CAN BE USED WITH
001657:                                                                                                  #  ANY NOUN, EXCEPT MIXED NOUNS.  IT DISPLAYS THE CONTENTS
001658:                                                                                                  #  OF THE REGISTER NOUNADD IS POINTING TO.  IF USED WITH NOUNS WHICH ARE
001659:                                                                                                  #  INHERENTLY NOT DP SUCH AS THE CDU COUNTERS THE DISPLAY WILL BE GARBAGE.
001660:                                                                                                  #  DISPLAY IS IN R1 AND R2 ONLY WITH THE SIGN IN R1.
001661:
001662: 40,2675                                           SETLOC   ENDRDLO    +1
001663:
001664: 40,2675                                           COUNT    40/PIN
001665: 40,2675           50140        DSPDPDEC           INDEX    MIXBR
001666: 40,2676           02676                           TC       +0
001667: 40,2677           02701                           TC       +2                                    #  NORMAL NOUN
001668: 40,2700           03323                           TC       DSPALARM
001669: 40,2701           00006                           EXTEND
001670: 40,2702           50145                           INDEX    NOUNADD
001671: 40,2703           30001                           DCA      0
001672: 40,2704           52155                           DXCH     MPAC
001673: 40,2705           34333                           CAF      R1D1
001674: 40,2706           54777                           TS       DSPCOUNT
001675: 40,2707           34714                           CAF      ZERO
001676: 40,2710           54156                           TS       MPAC       +2
001677: 40,2711           07226                           TC       TPAGREE
001678: 40,2712           03176                           TC       DSP2DEC
001679: 40,2713           00136        ENDDPDEC           TC       ENTEXIT
001680:


001682:                                                                                                  #  LOAD VERBS            IF ALARM CONDITION IS DETECTED DURING EXECUTE,
001683:                                                                                                  #  CHECK FAIL LIGHT IS TURNED ON AND ENDOFJOB.  IF ALARM CONDITION IS
001684:                                                                                                  #  DETECTED DURING ENTER OF DATA, CHECK FAIL IS TURNED ON AND IT RECYCLES
001685:                                                                                                  #  TO EXECUTE OF ORIGINAL LOAD VERB.  RECYCLE CAUSED BY          1) DECIMAL MACHINE
001686:                                                                                                  #  CADR          2) MIXTURE OF OCTAL/DECIMAL DATA        3) OCTAL DATA INTO DECIMAL
001687:                                                                                                  #  ONLY NOUN     4) DEC DATA INTO OCT ONLY NOUN          5) DATA TOO LARGE FOR SCALE
001688:                                                                                                  #  6) FEWER THAN 3 DATA WORDS LOADED FOR HRS, MIN, SEC NOUN.     8) (2)-(6) ALARM
001689:                                                                                                  #  AND RECYCLE OCCUR AT FINAL ENTER OF SEET.     (1) ALARM AND RECYCLE OCCUR AT
001690:                                                                                                  #  ENTER OF CADR.
001691:
001692: 41,2612                                           SETLOC   ENDRTOUT
001693:
001694: 41,2612                                           COUNT    41/PIN
001695:
001696: 41,2612           44711        ABCLOAD            CS       TWO
001697: 41,2613           02423                           TC       COMPTEST
001698: 41,2614           02457                           TC       NOUNTEST                              #  TEST IF NOUN CAN BE LOADED.
001699: 41,2615           33001                           CAF      VBSP1LD
001700: 41,2616           02336                           TC       UPDATVB    -1
001701: 41,2617           02302                           TC       REQDATX
001702: 41,2620           33002                           CAF      VBSP2LD
001703: 41,2621           02336                           TC       UPDATVB    -1
001704: 41,2622           02304                           TC       REQDATY
001705: 41,2623           33003                           CAF      VBSP3LD
001706: 41,2624           02336                           TC       UPDATVB    -1
001707: 41,2625           02306                           TC       REQDATZ
001708:
001709: 41,2626           46211        PUTXYZ             CS       SIX                                   #  TEST THAT THE 3 DATA WORDS LOADED ARE
001710: 41,2627           03004                           TC       ALLDC/OC                              #  ALL DEC OR ALL OCT.
001711: 41,2630           00006                           EXTEND
001712: 41,2631           32114                           DCA      LODNNLOC                              #  SWITCH BANKS TO NOUN TABLE READING
001713: 41,2632           52006                           DXCH     Z                                     #  ROUTINE.
001714: 41,2633           34714                           CAF      ZERO                                  #  X COMP
001715: 41,2634           03070                           TC       PUTCOM
001716: 41,2635           50145                           INDEX    NOUNADD
001717: 41,2636           54000                           TS       0
001718: 41,2637           34712                           CAF      ONE                                   #  Y COMP
001719: 41,2640           03070                           TC       PUTCOM
001720: 41,2641           50145                           INDEX    NOUNADD
001721: 41,2642           54001                           TS       1
001722: 41,2643           34711                           CAF      TWO                                   #  Z COMP
001723: 41,2644           03070                           TC       PUTCOM
001724: 41,2645           50145                           INDEX    NOUNADD
001725: 41,2646           54002                           TS       2
001726: 41,2647           44716                           CS       SEVEN                                 #  IF NOUN 7 HAS JUST BEEN LOADED, SET
001727: 41,2650           61002                           AD       NOUNREG                               #  FLAG BITS AS SPECIFIED.
001728: 41,2651           00006                           EXTEND
001729: 41,2652           12654                           BZF      +2


001731: 41,2653           02771                           TC       LOADLV
001732: 41,2654           31003                           CA       XREG                                  #  ECADR OF ERASABLE CELL
001733: 41,2655           04320                           TC       SETNCADR   +1                         #  SET EBANK, NOUNADD
001734: 41,2656           31005                           CA       ZREG
001735: 41,2657           00004                           INHINT
001736: 41,2660           00006                           EXTEND
001737: 41,2661           12670                           BZF      BITSOFF                               #  R3 IS ZERO FOR OFF, NONZERO FOR ON
001738: 41,2662           50145                           INDEX    NOUNADD
001739: 41,2663           40000                           CS       0
001740: 41,2664           71004                           MASK     YREG                                  #  BITS TO BE PROCESSED
001741: 41,2665           50145                           INDEX    NOUNADD
001742: 41,2666           26000                           ADS      0                                     #  SET BITS.
001743: 41,2667           02675                           TC       BITSOFF1
001744:
001745: 41,2670           41004        BITSOFF            CS       YREG                                  #  BITS TO BE PROCESSED
001746: 41,2671           50145                           INDEX    NOUNADD
001747: 41,2672           70000                           MASK     0
001748: 41,2673           50145                           INDEX    NOUNADD
001749: 41,2674           54000                           TS       0                                     #  RESET BITS
001750: 41,2675           00003        BITSOFF1           RELINT
001751: 41,2676           02771                           TC       LOADLV
001752:
001753: 41,2677           44712        ABLOAD             CS       ONE
001754: 41,2700           02423                           TC       COMPTEST
001755: 41,2701           02457                           TC       NOUNTEST                              #  TEST IF NOUN CAN BE LOADED
001756: 41,2702           33001                           CAF      VBSP1LD
001757: 41,2703           02336                           TC       UPDATVB    -1
001758: 41,2704           02302                           TC       REQDATX
001759: 41,2705           33002                           CAF      VBSP2LD
001760: 41,2706           02336                           TC       UPDATVB    -1
001761: 41,2707           02304                           TC       REQDATY
001762: 41,2710           44715        PUTXY              CS       FIVE                                  #  TEST THAT THE 2 DATA WORDS LOADED ARE
001763: 41,2711           03004                           TC       ALLDC/OC                              #  ALL DEC OR ALL OCT.
001764: 41,2712           00006                           EXTEND
001765: 41,2713           32114                           DCA      LODNNLOC                              #  SWITCH BANKS TO NOUN TABLE READING
001766: 41,2714           52006                           DXCH     Z                                     #  ROUTINE.
001767: 41,2715           34714                           CAF      ZERO                                  #  X COMP
001768: 41,2716           03070                           TC       PUTCOM
001769: 41,2717           50145                           INDEX    NOUNADD
001770: 41,2720           54000                           TS       0
001771: 41,2721           34712                           CAF      ONE                                   #  Y COMP
001772: 41,2722           03070                           TC       PUTCOM
001773: 41,2723           50145                           INDEX    NOUNADD
001774: 41,2724           54001                           TS       1
001775: 41,2725           02771                           TC       LOADLV
001776:
001777: 41,2726           02302        ALOAD              TC       REQDATX
001778: 41,2727           00006                           EXTEND
001779: 41,2730           32114                           DCA      LODNNLOC                              #  SWITCH BANKS TO NOUN TABLE READING
001780: 41,2731           52006                           DXCH     Z                                     #  ROUTINE.
001781: 41,2732           34714                           CAF      ZERO                                  #  X COMP


001783: 41,2733           03070                           TC       PUTCOM
001784: 41,2734           50145                           INDEX    NOUNADD
001785: 41,2735           54000                           TS       0
001786: 41,2736           02771                           TC       LOADLV
001787:
001788: 41,2737           44712        BLOAD              CS       ONE
001789: 41,2740           02423                           TC       COMPTEST
001790: 41,2741           34674                           CAF      BIT15                                 #  SET CLPASS FOR PASS0 ONLY
001791: 41,2742           55015                           TS       CLPASS
001792: 41,2743           02304                           TC       REQDATY
001793: 41,2744           00006                           EXTEND
001794: 41,2745           32114                           DCA      LODNNLOC                              #  SWITCH BANKS TO NOUN TABLE READING
001795: 41,2746           52006                           DXCH     Z                                     #  ROUTINE.
001796: 41,2747           34712                           CAF      ONE
001797: 41,2750           03070                           TC       PUTCOM
001798: 41,2751           50145                           INDEX    NOUNADD
001799: 41,2752           54001                           TS       1
001800: 41,2753           02771                           TC       LOADLV
001801:
001802: 41,2754           44711        CLOAD              CS       TWO
001803: 41,2755           02423                           TC       COMPTEST
001804: 41,2756           34674                           CAF      BIT15                                 #  SET CLPASS FOR PASS0 ONLY
001805: 41,2757           55015                           TS       CLPASS
001806: 41,2760           02306                           TC       REQDATZ
001807: 41,2761           00006                           EXTEND
001808: 41,2762           32114                           DCA      LODNNLOC                              #  SWITCH BANKS TO NOUN TABLE READING
001809: 41,2763           52006                           DXCH     Z                                     #  ROUTINE.
001810: 41,2764           34711                           CAF      TWO
001811: 41,2765           03070                           TC       PUTCOM
001812: 41,2766           50145                           INDEX    NOUNADD
001813: 41,2767           54002                           TS       2
001814: 41,2770           02771                           TC       LOADLV
001815:
001816: 41,2771           34714        LOADLV             CAF      ZERO
001817: 41,2772           55000                           TS       DECBRNCH
001818: 41,2773           44714                           CS       ZERO
001819: 41,2774           55014                           TS       LOADSTAT
001820: 41,2775           44374                           CS       VD1                                   #  TO BLOCK NUMERICAL CHARACTERS AND
001821: 41,2776           54777                           TS       DSPCOUNT                              #  CLEARS AFTER A COMPLETED LOAD
001822: 41,2777           04574                           TC       POSTJUMP                              #  AFTER COMPLETED LOAD, GO TO RECALTST
001823: 41,3000           61450                           CADR     RECALTST                              #  TO SEE IF THERE IS RECALL FROM ENDIDLE.
001824:
001825: 41,3001           00025        VBSP1LD            DEC      21         B-14                       #  VB21 = ALOAD
001826: 41,3002           00026        VBSP2LD            DEC      22         B-14                       #  VB22 = BLOAD
001827: 41,3003           00027        VBSP3LD            DEC      23         B-14                       #  VB23 = CLOAD
001828:
001829: 41,3004           54117        ALLDC/OC           TS       DECOUNT                               #  TESTS THAT DATA WORDS LOADED ARE EITHER
001830: 41,3005           41000                           CS       DECBRNCH                              #  ALL DEC OR ALL OCT.  ALARMS IF NOT.
001831: 41,3006           54021                           TS       SR


001833: 41,3007           40021                           CS       SR
001834: 41,3010           40021                           CS       SR                                    #  SHIFTED RIGHT 2
001835: 41,3011           10000                           CCS      A                                     #  DEC COMP BITS IN LOW 3
001836: 41,3012           13014                           TCF      +2                                    #  SOME ONES IN LOW 3
001837: 41,3013           00002                           TC       Q                                     #  ALL ZEROS.  ALL OCTAL.
001838: 41,3014           60117                           AD       DECOUNT                               #  DEC COMP = 7 FOR 3COMP, =6 FOR 2COMP
001839: 41,3015           00006                           EXTEND                                         #  (BUT IT HAS BEEN DECREMENTED BY CCS)
001840: 41,3016           13020                           BZF      +2                                    #  MUST MATCH 6 FOR 3COMP, 5 FOR 2COMP.
001841: 41,3017           04161                           TC       ALMCYCLE                              #  ALARM AND RECYCLE.
001842: 41,3020           00002        GOQ                TC       Q                                     #  ALL REQUIRED ARE DEC.  OK
001843:
001844: 41,3021           56002        SFRUTNOR           XCH      Q                                     #  GETS SF ROUTINE NUMBER FOR NORMAL CASE
001845: 41,3022           54114                           TS       EXITEM                                #  CAN'T USE L FOR RETURN.  TSTFORDP USES L.
001846: 41,3023           34363                           CAF      MID5
001847: 41,3024           70147                           MASK     NNTYPTEM
001848: 41,3025           04336                           TC       RIGHT5
001849: 41,3026           00114                           TC       EXITEM                                #  SF ROUTINE NUMBER IN A
001850:
001851: 41,3027           56002        SFRUTMIX           XCH      Q                                     #  GETS SF ROUTINE NUMBER FOR MIXED CASE
001852: 41,3030           54114                           TS       EXITEM
001853: 41,3031           50117                           INDEX    DECOUNT
001854: 41,3032           33061                           CAF      DISPLACE                              #  PUT TC GOQ, TC RIGHT5, OR TC LEFT5 IN L
001855: 41,3033           54001                           TS       L
001856: 41,3034           50117                           INDEX    DECOUNT
001857: 41,3035           34362                           CAF      LOW5                                  #  LOW5, MID5, OR HI5 IN A
001858: 41,3036           70153                           MASK     RUTMXTEM                              #  GET HI5, MID5, OR LOW5 OF RUTMXTAB ENTRY
001859: 41,3037           50001                           INDEX    L
001860: 41,3040           00000                           TC       0
001861:
001862:                                                                                                  #  DO TC GOQ(DECOUNT=0), DO TC RIGHT5(DECOUNT=1), DO TC LEFT5(DECOUNT=2).
001863:
001864: 41,3041           00114        SFRET1             TC       EXITEM                                #  SF ROUTINE NUMBER IN A
001865:
001866: 41,3042           56002        SFCONUM            XCH      Q                                     #  GETS 2X(SF CONSTANT NUMBER)
001867: 41,3043           54114                           TS       EXITEM
001868: 41,3044           50140                           INDEX    MIXBR
001869: 41,3045           03045                           TC       +0
001870: 41,3046           03064                           TC       CONUMNOR                              #  NORMAL NOUN
001871: 41,3047           50117                           INDEX    DECOUNT                               #  MIXED NOUN
001872: 41,3050           33061                           CAF      DISPLACE
001873: 41,3051           54001                           TS       L                                     #  PUT TC GOQ, TC RIGHT5, OR TC LEFT5 IN L
001874: 41,3052           50117                           INDEX    DECOUNT
001875: 41,3053           34362                           CAF      LOW5
001876: 41,3054           70147                           MASK     NNTYPTEM
001877: 41,3055           50001                           INDEX    L
001878: 41,3056           00000                           TC       0
001879:
001880:                                                                                                  #  DO TC GOQ(DECOUNT=0), DO TC RIGHT5(DECOUNT=1), DO TC LEFT5(DECOUNT=2).
001881:
001882: 41,3057           60000        SFRET              DOUBLE                                         #  2X(SF CONSTANT NUMBER) IN A
001883: 41,3060           00114                           TC       EXITEM
001884:
001885: 41,3061           03020        DISPLACE           TC       GOQ


001887: 41,3062           04336                           TC       RIGHT5
001888: 41,3063           04345                           TC       LEFT5
001889:
001890: 41,3064           34362        CONUMNOR           CAF      LOW5                                  #  NORMAL NOUN ALWAYS GETS LOW5 OF
001891: 41,3065           70147                           MASK     NNTYPTEM                              #  NNTYPTAB FOR SF CONUM.
001892: 41,3066           60000                           DOUBLE
001893: 41,3067           00114                           TC       EXITEM                                #  2X(SF CONSTANT NUMBER) IN A
001894:
001895: 41,3070           54117        PUTCOM             TS       DECOUNT
001896: 41,3071           56002                           XCH      Q
001897: 41,3072           54115                           TS       DECRET
001898: 41,3073           34714                           CAF      ZERO
001899: 41,3074           54162                           TS       MPAC+6
001900: 41,3075           50117                           INDEX    DECOUNT
001901: 41,3076           57006                           XCH      XREGLP
001902: 41,3077           54155                           TS       MPAC       +1
001903: 41,3100           50117                           INDEX    DECOUNT
001904: 41,3101           57003                           XCH      XREG
001905: 41,3102           54154                           TS       MPAC
001906: 41,3103           50140                           INDEX    MIXBR
001907: 41,3104           03104                           TC       +0
001908: 41,3105           03132                           TC       PUTNORM                               #  NORMAL NOUN
001909:
001910:                                                                                                  #  IF MIXNOUN, PLACE ADDRESS FOR COMPONENT K INTO NOUNADD, SET EBANK BITS.
001911:
001912: 41,3106           50117                           INDEX    DECOUNT                               #  GET IDADDTAB ENTRY FOR COMPONENT K
001913: 41,3107           30150                           CA       IDAD1TEM                              #        OF NOUN.
001914: 41,3110           74372                           MASK     LOW11                                 #  (ECADR)SUBK FOR CURRENT COMP OF NOUN
001915: 41,3111           04317                           TC       SETNCADR                              #  ECADR INTO NOUNCADR.  SETS EB, NOUNADD.
001916: 41,3112           00006                           EXTEND                                         #  C(NOUNADD) IN A UPON RETURN
001917: 41,3113           60117                           SU       DECOUNT                               #  PLACE (ESUBK)-K INTO NOUNADD
001918: 41,3114           54145                           TS       NOUNADD
001919: 41,3115           11000                           CCS      DECBRNCH
001920: 41,3116           03165                           TC       PUTDECSF                              #  + DEC
001921: 41,3117           02451                           TC       DCTSTCYC                              #  +0 OCTAL
001922: 41,3120           03027                           TC       SFRUTMIX                              #  TEST IF DEC ONLY BIT = 1.  IF SO,
001923: 41,3121           02261                           TC       DPTEST                                #  ALARM AND RECYCLE.  IF NOT, CONTINUE.
001924: 41,3122           03150                           TC       PUTCOM2                               #  NO DP
001925:                                                                                                  #  TEST FOR DP SCALE FOR OCT LOAD.  IF SO,
001926:                                                                                                  #  +0 INTO MAJOR PART.  SET NOUNADD FOR
001927:                                                                                                  #  LOADING OCTAL WORD INTO MINOR PART.
001928: 41,3123           24145        PUTDPCOM           INCR     NOUNADD                               #  DP (ESUBK)-K+1 OR E+1
001929: 41,3124           30145                           CA       NOUNADD                               #  NOUNADD NOW SET FOR MINOR PART
001930: 41,3125           26117                           ADS      DECOUNT                               #  (ESUBK)+1 OR E+1 INTO DECOUNT
001931: 41,3126           34714                           CAF      ZERO                                  #  NOUNADD SET FOR MINOR PART
001932: 41,3127           50117                           INDEX    DECOUNT
001933: 41,3130           53777                           TS       0          -1                         #  ZERO MAJOR PART(ESUBK OR E)
001934: 41,3131           03150                           TC       PUTCOM2
001935:
001936: 41,3132           04325        PUTNORM            TC       SETNADD                               #  ECADR FROM NOUNCADR.  (garbled) NOUNADD.
001937: 41,3133           11000                           CCS      DECBRNCH


001939: 41,3134           03165                           TC       PUTDECSF                              #  + DEC
001940: 41,3135           02451                           TC       DCTSTCYC                              #  +0 OCTAL
001941: 41,3136           03021                           TC       SFRUTNOR                              #  TEST IF DEC ONLY BIT (garbled).  IF SO,
001942: 41,3137           02261                           TC       DPTEST                                #  ALARM AND RECYCLE.  IF NOT, CONTINUE.
001943: 41,3140           03144                           TC       PUTCOM2    -4                         #  NO DP
001944: 41,3141           34714                           CAF      ZERO                                  #  DP
001945: 41,3142           54117                           TS       DECOUNT
001946: 41,3143           03123                           TC       PUTDPCOM
001947:
001948: 41,3144           30146                           CA       NNADTEM
001949: 41,3145           64712                           AD       ONE                                   #  IF NNADTEM = -1, CHANNEL TO BE SPECIFIED
001950: 41,3146           00006                           EXTEND
001951: 41,3147           13154                           BZF      CHANLOAD
001952: 41,3150           56154        PUTCOM2            XCH      MPAC
001953: 41,3151           00115                           TC       DECRET
001954:
001955: 41,3152     0777                                  EBANK=   DSPCOUNT
001956: 41,3152           02126 64101  GTSFINLC           2CADR    GTSFIN
001957:
001958: 41,3154           44716        CHANLOAD           CS       SEVEN                                 #  DON'T LOAD CHAN 7.  (IT'S SUPERBANK).
001959: 41,3155           61017                           AD       NOUNCADR
001960: 41,3156           00006                           EXTEND
001961: 41,3157           12771                           BZF      LOADLV
001962: 41,3160           30154                           CA       MPAC
001963: 41,3161           00006                           EXTEND
001964: 41,3162           51017                           INDEX    NOUNCADR
001965: 41,3163           01000                           WRITE    0
001966: 41,3164           02771                           TC       LOADLV
001967:
001968:                                                                                                  #  PUTDECSF FINDS MIXBR AND DECOUNT STILL SET FROM PUTCOM.
001969:
001970: 41,3165           03042        PUTDECSF           TC       SFCONUM                               #  2X(SF CON NUMB) IN A
001971: 41,3166           54123                           TS       SFTEMP1
001972: 41,3167           00006                           EXTEND                                         #  SWITCH BANKS TO SF CONSTANT TABLE
001973: 41,3170           33153                           DCA      GTSFINLC                              #  READING ROUTINE.
001974: 41,3171           52006                           DXCH     Z                                     #  LOADS SFTEMP1, SFTEMP2.
001975: 41,3172           50140                           INDEX    MIXBR
001976: 41,3173           03173                           TC       +0
001977: 41,3174           03177                           TC       PUTSFNOR
001978: 41,3175           03027                           TC       SFRUTMIX
001979: 41,3176           03200                           TC       PUTDCSF2
001980: 41,3177           03021        PUTSFNOR           TC       SFRUTNOR
001981:
001982: 41,3200           50000        PUTDCSF2           INDEX    A
001983: 41,3201           33203                           CAF      SFINTABR
001984: 41,3202           04577                           TC       BANKJUMP                              #  SWITCH BANKS FOR EXPANSION ROOM
001985: 41,3203           62347        SFINTABR           CADR     GOALMCYC                              #  ALARM AND RECYCLE IF DEC LOAD


001987:                                                                                                  #  WITH OCTAL ONLY NOUN.
001988: 41,3204           60774                           CADR     BINROUND
001989: 41,3205           60714                           CADR     DEGINSF
001990: 41,3206           60764                           CADR     ARTHINSF
001991: 41,3207           61017                           CADR     DPINSF
001992: 41,3210           61044                           CADR     DPINSF2
001993: 41,3211           61002                           CADR     OPTDEGIN
001994: 41,3212           61017                           CADR     DPINSF                                #  SAME AS ARITHDP1
001995: 41,3213           65365                           CADR     HMSIN
001996: 41,3214           61323                           CADR     DSPALARM                              #  MIN/SEC CAN'T BE LOADED.
001997: 41,3215           61051                           CADR     DPINSF4
001998: 41,3216           60777                           CADR     ARTIN1SF
001999: 41,3217           61323                           CADR     DSPALARM                              #  2INTOUT CAN'T BE LOADED.
002000: 41,3220                        ENDRUTIN           EQUALS
002001:
002002:                                                                                                  #  SCALE FACTORS FOR THOSE ROUTINES NEEDING THEM ARE AVAILABLE IN SFTEMP1.
002003:                                                                                                  #  ALL SFIN ROUTINES USE MPAC MPAC+1.  LEAVE RESULT IN A.  END WITH TC DECRET.
002004:
002005: 40,2714                                           SETLOC   ENDDPDEC   +1
002006:
002007: 40,2714                                           COUNT    40/PIN
002008:                                                                                                  #  DEGINSF APPLIES 1000/180 * 5.55555(10) = 5.43434(8)
002009:
002010: 40,2714           07052        DEGINSF            TC       DMP                                   #  SF ROUTINE FOR DEC DEGREES
002011: 40,2715           02757                           ADRES    DEGCON1                               #  MULT BY 5.5 5(10)X2EXP-3
002012: 40,2716           10155                           CCS      MPAC       +1                         #  THIS ROUNDS OFF MPAC+1 BEFORE SHIFT
002013: 40,2717           34700                           CAF      BIT11                                 #  LEFT 3, AND CAUSES 360.00 TO OF/UF
002014: 40,2720           02722                           TC       +2                                    #  WHEN SHIFTED LEFT AND ALARM.
002015: 40,2721           44700                           CS       BIT11
002016: 40,2722           60155                           AD       MPAC       +1
002017: 40,2723           03070                           TC       2ROUND     +2
002018: 40,2724           04420                           TC       TPSL1                                 #  LEFT 1
002019: 40,2725           04420        DEGINSF2           TC       TPSL1                                 #  LEFT 2
002020: 40,2726           03077                           TC       TESTOFUF
002021: 40,2727           04420                           TC       TPSL1                                 #  RETURNS IF NO OF/UF (LEFT3)
002022: 40,2730           10154                           CCS      MPAC
002023: 40,2731           02735                           TC       SIGNFIX                               #  IF +, GO TO SIGNFIX
002024: 40,2732           02735                           TC       SIGNFIX                               #  IF +0, GO TO SIGNFIX
002025: 40,2733           40000                           COM                                            #  IF -, USE -MAGNITUDE +1
002026: 40,2734           54154                           TS       MPAC                                  #  IF -0, USE +0
002027: 40,2735           10162        SIGNFIX            CCS      MPAC+6
002028: 40,2736           02753                           TC       SGNTO1                                #  IF OVERFLOW
002029: 40,2737           02747                           TC       ENDSCALE                              #  NO OVERFLOW/UNDERFLOW
002030: 40,2740           10154                           CCS      MPAC                                  #  IF UF FORCE SIGN TO 0 EXCEPT -180
002031: 40,2741           05640                           TC       CCSHOLE
002032: 40,2742           02751                           TC       NEG180
002033: 40,2743           02744                           TC       +1


002035: 40,2744           56154                           XCH      MPAC
002036: 40,2745           74672                           MASK     POSMAX
002037: 40,2746           54154                           TS       MPAC
002038: 40,2747           04574        ENDSCALE           TC       POSTJUMP
002039: 40,2750           63150                           CADR     PUTCOM2
002040:
002041: 40,2751           44672        NEG180             CS       POSMAX
002042: 40,2752           02746                           TC       ENDSCALE   -1
002043:
002044: 40,2753           40154        SGNTO1             CS       MPAC                                  #  IF OF FORCE SIGN TO 1
002045: 40,2754           74672                           MASK     POSMAX
002046: 40,2755           40000                           CS       A
002047: 40,2756           02746                           TC       ENDSCALE   -1
002048:
002049: 40,2757           26161 30707  DEGCON1            2DEC     5.555555555 B-3
002050:
002051: 40,2761           21616 07071  DEGCON2            2DEC     2.222222222 B-2
002052:
002053: 40,2763           71527        NEG.2              OCT      -06250                                #  = .197753906  I.E., THE BIAS SCALED
002054:
002055: 40,2764           07052        ARTHINSF           TC       DMP                                   #  SCALES MPAC, +1 BY SFTEMP1, SFTEMP2.
002056: 40,2765           00123                           ADRES    SFTEMP1                               #  ASSUMES POINT BETWEEN HI AND LO PARTS
002057: 40,2766           56156                           XCH      MPAC       +2                         #  OF SFCON.  SHIFTS RESULTS LEFT BY 14.
002058: 40,2767           56155                           XCH      MPAC       +1                         #  (BY TAKING RESULTS FROM MPAC+1, MPAC+2)
002059: 40,2770           56154                           XCH      MPAC
002060: 40,2771           00006                           EXTEND
002061: 40,2772           12774                           BZF      BINROUND
002062: 40,2773           04161                           TC       ALMCYCLE                              #  TOO LARGE A LOAD.  ALARM AND RECYCLE.
002063: 40,2774           03066        BINROUND           TC       2ROUND
002064: 40,2775           03077                           TC       TESTOFUF
002065: 40,2776           02747                           TC       ENDSCALE                              #  RETURNS IF NO OF/UF
002066:
002067: 40,2777           07052        ARTIN1SF           TC       DMP                                   #  SCALES MPAC, +1 BY SFTEMP1, SFTEMP2.
002068: 40,3000           00123                           ADRES    SFTEMP1                               #  ROUNDS MPAC+1 INTO MPAC.
002069: 40,3001           02774                           TC       BINROUND
002070:
002071: 40,3002           10154        OPTDEGIN           CCS      MPAC                                  #  OPTICS SCALING ROUTINE
002072: 40,3003           03007                           TC       +4
002073: 40,3004           03007                           TC       +3
002074: 40,3005           04161                           TC       ALMCYCLE                              #  REJECT -- INPUT.  ALARM AND RECYCLE.
002075: 40,3006           04161                           TC       ALMCYCLE                              #  REJECT -- INPUT.  ALARM AND RECYCLE.
002076: 40,3007           32763        OPDEGIN2           CAF      NEG.2                                 #  RANGE IS 90 DEG
002077: 40,3010           26154                           ADS      MPAC                                  #  SUBTRACT BIAS
002078: 40,3011           07052                           TC       DMP                                   #  MULT BY 100 / 45 B-2
002079: 40,3012           02761                           ADRES    DEGCON2
002080: 40,3013           34677                           CAF      BIT12                                 #  ROUND AS IN DEGINSF
002081: 40,3014           60155                           AD       MPAC       +1


002083: 40,3015           03070                           TC       2ROUND     +2
002084: 40,3016           02725                           TC       DEGINSF2
002085:
002086: 40,3017           07052        DPINSF             TC       DMP                                   #  SCALES MPAC, MPAC +1 BY SFTEMP1,
002087: 40,3020           00123                           ADRES    SFTEMP1                               #  SFTEMP.  STORES LOW PART OF RESULT
002088: 40,3021           56156                           XCH      MPAC       +2                         #  IN (E SUBK) +1 OR E+1
002089: 40,3022           60000                           DOUBLE
002090: 40,3023           54156                           TS       MPAC       +2
002091: 40,3024           34714                           CAF      ZERO
002092: 40,3025           60155                           AD       MPAC       +1
002093: 40,3026           03070                           TC       2ROUND     +2
002094: 40,3027           03077                           TC       TESTOFUF
002095: 40,3030           50140                           INDEX    MIXBR                                 #  RETURNS IF NO OF/UF
002096: 40,3031           03031                           TC       +0
002097: 40,3032           03042                           TC       DPINORM
002098: 40,3033           30117                           CA       DECOUNT                               #  MIXED NOUN
002099: 40,3034           60145        DPINCOM            AD       NOUNADD                               #        MIXED           NORMAL
002100: 40,3035           54002                           TS       Q                                     #        E SUBK          E
002101: 40,3036           56155                           XCH      MPAC       +1
002102: 40,3037           50002                           INDEX    Q
002103: 40,3040           54001                           TS       1                                     #  PLACE LOW PART IN
002104: 40,3041           02747                           TC       ENDSCALE                              #        (E SUBK) +1     MIXED
002105:
002106: 40,3042           34714        DPINORM            CAF      ZERO                                  #        E +1            NORMAL
002107: 40,3043           03034                           TC       DPINCOM
002108:
002109: 40,3044           07052        DPINSF2            TC       DMP                                   #  ASSUMES POINT BETWEEN BITS 7-8 OF HIGH
002110: 40,3045           00123                           ADRES    SFTEMP1                               #  PART OF SF CONST.  DPINSF2 SHIFTS RESULTS
002111: 40,3046           36211                           CAF      SIX                                   #  LEFT BY 7, ROUNDS MPAC+2 INTO MPAC+1
002112: 40,3047           03056                           TC       TPLEFTN                               #  SHIFT LEFT 7.
002113: 40,3050           03021                           TC       DPINSF     +2
002114:
002115: 40,3051           07052        DPINSF4            TC       DMP                                   #  ASSUMES POINT BETWEEN BITS 11-12 OF HIGH
002116: 40,3052           00123                           ADRES    SFTEMP1                               #  PART OF SF CONST.  DPINSF2 SHIFTS RESULTS
002117: 40,3053           34711                           CAF      TWO                                   #  LEFT BY 3, ROUNDS MPAC+2 INTO MPAC+1.
002118: 40,3054           03056                           TC       TPLEFTN                               #  SHIFT LEFT 3.
002119: 40,3055           03021                           TC       DPINSF     +2
002120:
002121: 40,3056           56002        TPLEFTN            XCH      Q                                     #  SHIFTS MPAC, +1, +2 LEFT N.  SETS OVFIND
002122: 40,3057           54124                           TS       SFTEMP2                               #  TO +1 FOR OF, -1 FOR UF.
002123: 40,3060           56002                           XCH      Q                                     #  CALL WITH N-1 IN A.
002124: 40,3061           54123        LEFTNCOM           TS       SFTEMP1                               #        LOOP TIME .37 MSEC.
002125: 40,3062           04420                           TC       TPSL1
002126: 40,3063           10123                           CCS      SFTEMP1
002127: 40,3064           03061                           TC       LEFTNCOM
002128: 40,3065           00124                           TC       SFTEMP2
002129:


002131: 40,3066           56155        2ROUND             XCH      MPAC       +1
002132: 40,3067           60000                           DOUBLE
002133: 40,3070           54155                           TS       MPAC       +1
002134: 40,3071           00002                           TC       Q                                     #  IF MPAC+1 DOES NOT OF/UF
002135: 40,3072           60154                           AD       MPAC
002136: 40,3073           54154                           TS       MPAC
002137: 40,3074           00002                           TC       Q                                     #  IF MPAC DOES NOT OF/UF
002138: 40,3075           54162                           TS       MPAC+6
002139: 40,3076           00002        2RNDEND            TC       Q
002140:
002141: 40,3077           10162        TESTOFUF           CCS      MPAC+6                                #  RETURNS IF NO OF/UF
002142: 40,3100           04161                           TC       ALMCYCLE                              #  OF    ALARM AND RECYCLE.
002143: 40,3101           00002                           TC       Q
002144: 40,3102           04161                           TC       ALMCYCLE                              #  UF    ALARM AND RECYCLE.
002145:
002146: 42,3365                                           SETLOC   ENDSPMIN   +1
002147:
002148: 42,3365                                           COUNT    42/PIN
002149: 42,3365           03506        HMSIN              TC       ALL3DEC                               #  IF ALL 3 WORDS WERE NOT LOADED, ALARM.
002150: 42,3366           07052                           TC       DMP                                   #  XREG, XREGLP (=HOURS) WERE ALREADY PUT
002151: 42,3367           03447                           ADRES    WHOLECON                              #  INTO MPAC, MPAC+1.
002152: 42,3370           03456                           TC       RND/TST                               #  ROUND OFF TO WHOLE HRS IN MPAC+1.
002153: 42,3371           34714                           CAF      ZERO                                  #  ALARM IF MPAC NON ZERO (G/ 16383).
002154: 42,3372           54156                           TS       MPAC       +2
002155: 42,3373           33451                           CAF      HRCON
002156: 42,3374           54154                           TS       MPAC
002157: 42,3375           33452                           CAF      HRCON      +1
002158: 42,3376           56155                           XCH      MPAC       +1
002159: 42,3377           07256                           TC       SHORTMP
002160: 42,3400           03467                           TC       MPACTST                               #  ALARM IF MPAC NON ZERO (G/ 745)
002161: 42,3401           52156                           DXCH     MPAC       +1                         #  STORE HOURS CONTRIBUTION
002162: 42,3402           52124                           DXCH     HITEMIN
002163: 42,3403           31004                           CA       YREG                                  #  PUT YREG, YREGLP INTO MPAC, +1.
002164: 42,3404           23007                           LXCH     YREGLP
002165: 42,3405           52155                           DXCH     MPAC
002166: 42,3406           07052                           TC       DMP
002167: 42,3407           03447                           ADRES    WHOLECON
002168: 42,3410           03456                           TC       RND/TST                               #  ROUND OFF TO WHOLE MIN IN MPAC+1
002169: 42,3411           43454                           CS       59MIN                                 #  ALARM IF MPAC NON ZERO (G/16383)
002170: 42,3412           03474                           TC       SIZETST                               #  ALARM IF MPAC+1 G/ 59MIN
002171: 42,3413           56155                           XCH      MPAC       +1
002172: 42,3414           00006                           EXTEND
002173: 42,3415           73453                           MP       MINCON                                #  LEAVES MINUTES CONTRIBUTION IN A,L
002174: 42,3416           20124                           DAS      HITEMIN                               #  ADD IN MINUTES CONTRIBUTION
002175: 42,3417           00006                           EXTEND                                         #  IF THIS DAS OVEFLOWS, G/ 745 HR, 39MIN
002176: 42,3420           13422                           BZF      +2
002177: 42,3421           04161                           TC       ALMCYCLE


002179: 42,3422           31005                           CA       ZREG                                  #  PUT ZREG, ZREGLP INTO MPAC +1.
002180: 42,3423           23010                           LXCH     ZREGLP
002181: 42,3424           52155                           DXCH     MPAC
002182: 42,3425           07052                           TC       DMP
002183: 42,3426           03447                           ADRES    WHOLECON
002184: 42,3427           03456                           TC       RND/TST                               #  ROUND OFF TO WHOLE CENTI-SEC IN MPAC+1
002185: 42,3430           43455                           CS       59.99SEC                              #  ALARM IF MPAC NON ZERO (G/163.83 SEC)
002186: 42,3431           03474                           TC       SIZETST                               #  ALARM IF MPAC+1 G/59.99 SEC
002187: 42,3432           52124                           DXCH     HITEMIN                               #  ADD IN SECONDS CONTRIBUTION
002188: 42,3433           20155                           DAS      MPAC                                  #  IF THIS DAS OVERFLOWS,
002189: 42,3434           00006                           EXTEND                                         #  G/ 745 HR, 39 MIN, 14.59 SEC.
002190: 42,3435           13437                           BZF      +2
002191: 42,3436           04161                           TC       ALMCYCLE                              #  ALARM AND RECYCLE
002192: 42,3437           34714                           CAF      ZERO
002193: 42,3440           54156                           TS       MPAC       +2
002194: 42,3441           07226                           TC       TPAGREE
002195: 42,3442           52155                           DXCH     MPAC
002196: 42,3443           50145                           INDEX    NOUNADD
002197: 42,3444           52001                           DXCH     0
002198: 42,3445           04574                           TC       POSTJUMP
002199: 42,3446           62771                           CADR     LOADLV
002200:
002201: 42,3447           00006        WHOLECON           OCT      00006                                 #  (10EXP5/2EXP14)2EXP14
002202: 42,3450           03240                           OCT      03240
002203: 42,3451           00025        HRCON              OCT      00025                                 #  1 HOUR IN CENTI-SEC
002204: 42,3452           37100                           OCT      37100
002205: 42,3453           13560        MINCON             OCT      13560                                 #  1 MINUTE IN CENTI-SEC
002206: 42,3454           00073        59MIN              OCT      00073                                 #  59 AS WHOLE
002207: 42,3455           13557        59.99SEC           OCT      13557                                 #  5999 SENTI-SEC
002208:
002209: 42,3456           56156        RND/TST            XCH      MPAC       +2                         #  ROUNDS MPAC+2 INTO MPAC+1.
002210: 42,3457           60000                           DOUBLE                                         #  ALARMS IF MPAC NOT 0
002211: 42,3460           54156                           TS       MPAC       +2
002212: 42,3461           34714                           CAF      ZERO
002213: 42,3462           60155                           AD       MPAC       +1
002214: 42,3463           54155                           TS       MPAC       +1
002215: 42,3464           34714                           CAF      ZERO
002216: 42,3465           60154                           AD       MPAC                                  #  CAN'T OVFLOW
002217: 42,3466           56154                           XCH      MPAC
002218: 42,3467           10154        MPACTST            CCS      MPAC                                  #  ALARM IF MPAC NON ZERO
002219: 42,3470           04161                           TC       ALMCYCLE                              #  ALARM AND RECYCLE
002220: 42,3471           00002                           TC       Q
002221: 42,3472           04161                           TC       ALMCYCLE                              #  ALARM AND RECYCLE
002222: 42,3473           00002                           TC       Q
002223:
002224: 42,3474           54156        SIZETST            TS       MPAC       +2                         #  CALLED WITH - CON IN A
002225: 42,3475           10155                           CCS      MPAC       +1                         #  GET MAG OF MPAC+1
002226: 42,3476           64712                           AD       ONE
002227: 42,3477           13501                           TCF      +2


002229: 42,3500           64712                           AD       ONE
002230: 42,3501           60156                           AD       MPAC       +2
002231: 42,3502           00006                           EXTEND                                         #  MAG OF MPAC+1 - CON
002232: 42,3503           63505                           BZMF     +2
002233: 42,3504           04161                           TC       ALMCYCLE                              #  MAG OF MPAC+1 G/ CON.  ALARM AND RECYCLE.
002234: 42,3505           00002                           TC       Q                                     #  MAG OF MPAC+1 L/= CON
002235:
002236:                                                                                                  #  ALL3DEC TESTS THAT ALL 3 WORDS ARE LOADED IN DEC (FOR HMSIN).
002237:                                                                                                  #  ALARM IF NOT.  (TEST THAT BITS 3,4,4 OF DECBRNCH ARE ALL = 1).
002238:
002239: 42,3506           43513        ALL3DEC            CS       OCT34BAR                              #  GET BITS 3,4,5 IN A
002240: 42,3507           71000                           MASK     DECBRNCH                              #  GET BITS 3,4,5 OF DECBRNCH IN A
002241: 42,3510           63513                           AD       OCT34BAR                              #  BITS 3,4,5 OF DECBRNCH MUST ALL = 1
002242: 42,3511           10000                           CCS      A
002243: 42,3512           03516                           TC       FORCEV25
002244: 42,3513           77743        OCT34BAR           OCT      77743
002245: 42,3514           03516                           TC       FORCEV25
002246: 42,3515           00002                           TC       Q
002247:
002248: 42,3516           44113        FORCEV25           CS       OCT31                                 #  FORCE VERB 25 TO BE EXECUTED BY RECYCLE
002249: 42,3517           55041                           TS       VERBSAVE                              #  IN CASE OPERATOR EXECUTED A LOWER LOAD
002250: 42,3520           04161                           TC       ALMCYCLE                              #  VERB.  ALARM AND RECYCLE.
002251: 42,3521                        ENDHMSS            EQUALS
002252:


002254:                                                                                                  #  MONITOR ALLOWS OTHER KEYBOARD ACTIVITY.  IT IS ENDED BY VERB TERMINATE,
002255:                                                                                                  #  VERB PROCEED WITHOUT DATA, VERB RESEQUENCE,
002256:                                                                                                  #  ANOTHER MONITOR, OR ANY NVSUB CALL THAT PASSES THE DSPLOCK (PROVIDED
002257:                                                                                                  #  THAT THE OPERATOR HAS SOMEHOW ALLOWED THE ENDING OF A MONITOR WHICH
002258:                                                                                                  #  HE HAS INITIATED THROUGH THE KEYBOARD).
002259:
002260:                                                                                                  #  MONITOR ACTION IS SUSPENDED, BUT NOT ENDED, BY ANY KEYBOARD ACTION.
002261:                                                                                                  #  EXCEPT ERROR LIGHT RESET.  IT BEGINS AGAIN WHEN KEY RELEASE IS PERFORMED.
002262:                                                                                                  #  MONITOR SAVES THE NOUN AND APPROPRIATE DISPLAY VERB IN MONSAVE.  IT SAVES
002263:                                                                                                  #  NOUNCADR IN MONSAVE1, IF NOUN = MACHINE CADR TO BE SPECIFIED.  BIT 15 OF
002264:                                                                                                  #  MONSAVE1 IS THE KILL MONITOR SIGNAL (KILLER BIT).  BIT 14 OF MONSAVE1
002265:                                                                                                  #  INDICATES THE CURRENT MONITOR WAS EXTERNALLY INITIATED (EXTERNAL
002266:                                                                                                  #  MONITOR BIT).  IT IS TURNED OFF BY RELDSP AND KIMONON.
002267:
002268:                                                                                                  #  MONSAVE INDICATES IF MONITOR IS ON (+=ON, +0=OFF)
002269:                                                                                                  #  IF MONSAVE IS +, MONITOR ENTERS NO REQUEST, BUT TURNS KILLER BIT OFF.
002270:                                                                                                  #  IF MONSAVE IS +0, MONITOR ENTERS REQUEST AND TURNS KILLER BIT OFF.
002271:
002272:                                                                                                  #  NVSUB (IF EXTERNAL MONITOR BIT IS OFF), VB=PROCEED WITHOUT DATA,
002273:                                                                                                  #  VB=RESEQUENCE, AND VB=TERMINATE TURN KILL MONITOR BIT ON.
002274:
002275:                                                                                                  #  IF KILLER BIT IS ON, MONREQ ENTERS NO FURTHER REQUESTS, ZEROS MONSAVE
002276:                                                                                                  #  AND MONSAVE1 (TURNING OFF KILLER BIT AND EXTERNAL MONITOR BIT).
002277:
002278:                                                                                                  #  MONITOR DOESN'T TEST FOR MATBS SINCE NVSUB CAN HANDLE INTERNAL MATBS NOW.
002279:
002280: 41,3220                                           SETLOC   ENDRUTIN
002281:
002282: 41,3220                                           COUNT    41/PIN
002283:
002284: 41,3220           43227        MONITOR            CS       BIT15/14
002285: 41,3221           71017                           MASK     NOUNCADR
002286: 41,3222           54155        MONIT1             TS       MPAC       +1                         #  TEMP STORAGE
002287: 41,3223           40136                           CS       ENTEXIT
002288: 41,3224           64233                           AD       ENDINST
002289: 41,3225           10000                           CCS      A
002290: 41,3226           03235                           TC       MONIT2
002291: 41,3227           60000        BIT15/14           OCT      60000
002292: 41,3230           03235                           TC       MONIT2
002293: 41,3231           34675                           CAF      BIT14                                 #  EXTERNALLY INITIATED MONITOR.
002294: 41,3232           26155                           ADS      MPAC       +1                         #  SET BIT 14 FOR MONSAVE1.
002295: 41,3233           34714                           CAF      ZERO
002296: 41,3234           55022                           TS       MONSAVE2                              #  ZERO NVMONOPT OPTIONS
002297: 41,3235           36043        MONIT2             CAF      LOW7
002298: 41,3236           71001                           MASK     VERBREG
002299: 41,3237           04345                           TC       LEFT5
002300: 41,3240           54022                           TS       CYL
002301: 41,3241           40022                           CS       CYL
002302: 41,3242           56022                           XCH      CYL
002303: 41,3243           61002                           AD       NOUNREG
002304: 41,3244           54154                           TS       MPAC                                  #  TEMP STORAGE


002306: 41,3245           34714                           CAF      ZERO
002307: 41,3246           55012                           TS       DSPLOCK                               #  +0 INTO DSPLOCK SO MONITOR CAN RUN.
002308: 41,3247           11042                           CCS      CADRSTOR                              #  TURN OFF KR LITE IF CADRSTOR AND DSPLIST
002309: 41,3250           03252                           TC       +2                                    #  ARE BOTH EMPTY.  (LITE COMES ON IF NEW
002310: 41,3251           04516                           TC       RELDSP1                               #  MONITOR IS KEYED IN OVER OLD MONITOR.)
002311: 41,3252           00004                           INHINT
002312: 41,3253           11020                           CCS      MONSAVE
002313: 41,3254           03261                           TC       +5                                    #  IF MONSAVE WAS +, NO REQUEST
002314: 41,3255           34712                           CAF      ONE                                   #  IF MONSAVE WAS 0, REQUEST MONREQ
002315: 41,3256           05140                           TC       WAITLIST
002316: 41,3257     0777                                  EBANK=   DSPCOUNT
002317: 41,3257           03265 62101                     2CADR    MONREQ
002318:
002319: 41,3261           52155                           DXCH     MPAC                                  #  PLACE MONITOR VERB AND NOUN INTO MONSAVE
002320: 41,3262           53021                           DXCH     MONSAVE                               #  ZERO THE KILL MONITOR BIT
002321: 41,3263           00003                           RELINT                                         #  SET UP EXTERNAL MONITOR BIT
002322: 41,3264           00136                           TC       ENTRET
002323:
002324: 41,3265           04414        MONREQ             TC       LODSAMPT                              #  CALLED BY WAITLIST
002325: 41,3266           11021                           CCS      MONSAVE1                              #  TIME IS SNATCHED N RUPT FOR NOUN 65
002326: 41,3267           03273                           TC       +4                                    #  IF KILLER BIT = 0, ENTER REQUESTS
002327: 41,3270           03273                           TC       +3                                    #  IF KILLER BIT = 0, ENTER REQUESTS
002328: 41,3271           03304                           TC       KILLMON                               #  IF KILLER BIT = 1, NO REQUESTS.
002329: 41,3272           03304                           TC       KILLMON                               #  IF KILLER BIT = 1, NO REQUESTS.
002330: 41,3273           33310                           CAF      MONDEL
002331: 41,3274           05140                           TC       WAITLIST                              #  ENTER WAITLIST REQUEST FOR MONREQ
002332: 41,3275     0777                                  EBANK=   DSPCOUNT
002333: 41,3275           03265 62101                     2CADR    MONREQ
002334:
002335: 41,3277           34371                           CAF      CHRPRIO
002336: 41,3300           05027                           TC       NOVAC                                 #  ENTER EXEC REQUEST FOR MONDO
002337: 41,3301     0777                                  EBANK=   DSPCOUNT
002338: 41,3301           03311 62101                     2CADR    MONDO
002339:
002340: 41,3303           05213                           TC       TASKOVER
002341:
002342: 41,3304           34714        KILLMON            CAF      ZERO                                  #  ZERO MONSAVE AND TURN KILLER BIT OFF
002343: 41,3305           55020                           TS       MONSAVE
002344: 41,3306           55021                           TS       MONSAVE1                              #  TURN OFF KILL MONITOR BIT.
002345: 41,3307           05213                           TC       TASKOVER                              #  TURN OFF EXTERNAL MONITOR BIT.
002346: 41,3310           00144        MONDEL             OCT      144                                   #  FOR 1 SEC MONITOR INTERVALS.
002347:
002348: 41,3311           11021        MONDO              CCS      MONSAVE1                              #  CALLED BY EXEC
002349: 41,3312           03316                           TC       +4                                    #  IF KILLER BIT = 0, CONTINUE
002350: 41,3313           03316                           TC       +3                                    #  IF KILLER BIT = 0, CONTINUE
002351: 41,3314           05112                           TC       ENDOFJOB                              #  IN CASE TERMINATE CAME SINCE LAST MONREQ
002352: 41,3315           05112                           TC       ENDOFJOB                              #  IN CASE TERMINATE CAME SINCE LAST MONREQ
002353: 41,3316           11012                           CCS      DSPLOCK


002355: 41,3317           03341                           TC       MONBUSY                               #  NVSUB IS BUSY
002356: 41,3320           36043                           CAF      LOW7
002357: 41,3321           71020                           MASK     MONSAVE
002358: 41,3322           02316                           TC       UPDATNN    -1                         #  PLACE NOUN INTO NOUNREG AND DISPLAY IT
002359: 41,3323           34160                           CAF      MID7
002360: 41,3324           71020                           MASK     MONSAVE                               #  CHANGE MONITOR VERB TO DISPLAY VERB
002361: 41,3325           63337                           AD       MONREF                                #  -DEC10, STARTING IN BIT5
002362: 41,3326           54023                           TS       EDOP                                  #  RIGHT 7
002363: 41,3327           30023                           CA       EDOP
002364: 41,3330           55001                           TS       VERBREG
002365: 41,3331           33340                           CAF      MONBACK                               #  SET RETURN TO PASTEVB AFTER DATA DISPLAY
002366: 41,3332           54136                           TS       ENTRET
002367: 41,3333           43227                           CS       BIT15/14
002368: 41,3334           71021                           MASK     MONSAVE1                              #  PUT ECADR INTO MPAC +2.  INTMCTBS WILL
002369: 41,3335           54156                           TS       MPAC       +2                         #  DISPLAY IT AND SET NOUNCADR, NOUNADD,
002370: 41,3336           02046        ENDMONDO           TC       TESTNN                                #  EBANK.
002371:
002372:    4140                                           BLOCK    2
002373:
002374:    4000                                           SETLOC   FFTAG8
002375:    4000                                           BANK
002376:
002377:    4140                                           COUNT    02/PIN
002378:
002379:    4140           34160        PASTEVB            CAF      MID7
002380:    4141           71022                           MASK     MONSAVE2                              #  NVMONOPT PASTE OPTION
002381:    4142           00006                           EXTEND
002382:    4143           14145                           BZF      +2
002383:    4144           04146                           TC       PASTEOPT                              #  PASTE PLEASE VERB FOR NVMONOPT
002384:    4145           31020                           CA       MONSAVE                               #  PASTE MONITOR VERB    PASTE OPTION IS 0
002385:    4146           54023        PASTEOPT           TS       EDOP                                  #  RIGHT 7
002386:    4147           30023                           CA       EDOP                                  #  PLACE MONITOR VERB OR (garbled) VERB INTO
002387:    4150           04555                           TC       BANKCALL                              #        VERBREG AND DISPLAY IT.
002388:    4151           62336                           CADR     UPDATVB    -1
002389:    4152           34714                           CAF      ZERO                                  #  ZERO REQRET SO THAT PASTED VERBS CAN
002390:    4153           55013                           TS       REQRET                                #        BE EXECUTED BY OPERATOR.
002391:    4154           31022                           CA       MONSAVE2
002392:    4155           04271                           TC       BLANKSUB                              #  PROCESS NVMONOPT BLANK OPTION IF ANY
002393:    4156           04157                           TC       +1
002394:    4157           05112        ENDPASTE           TC       ENDOFJOB
002395:
002396:    4160           37600        MID7               OCT      37600
002397:
002398: 41,3337                                           SETLOC   ENDMONDO   +1
002399: 41,3337                                           COUNT    41/PIN
002400:
002401: 41,3337           75377        MONREF             OCT      75377                                 #  -DEC10, STARTING IN BIT8
002402: 41,3340           04140        MONBACK            ADRES    PASTEVB
002403:


002405: 41,3341           04410        MONBUSY            TC       RELDSPON                              #  TURN KEY RELEASE LIGHT
002406: 41,3342           05112                           TC       ENDOFJOB
002407:
002408:                                                                                                  #  DSPFMEM IS USED TO DISPLAY (IN OCTAL) ANY FIXED REGISTER.
002409:                                                                                                  #  IT IS USED WITH NOUN = MACHINE CADR TO BE SPECIFIED.  THE FCADR OF THE
002410:                                                                                                  #  DESIRED LOCATION IS THEN PUNCHED IN.  IT HANDLES F/F (FCADR 4000-7777)
002411:                                                                                                  #
002412:                                                                                                  #  FOR BANKS L/E 27, THIS IS ENOUGH.
002413:
002414:                                                                                                  #  FOR BANKS G/E 30, THE THIRD COMPONENT OF NOUN 26 (PRIO, ADRES, BBCON)
002415:                                                                                                  #  MUST BE PRELOADED WITH THE DESIRED SUPERBANK BITS (BITS 5,6,7).
002416:                                                                                                  #        V23N26 SHOULD BE USED.
002417:
002418:                                                                                                  #  SUMMARY
002419:                                                                                                  #  FOR BANKS L/E 27,                             V27N01E(FCADR)E
002420:                                                                                                  #  FOR BANKS G/E 30,     V23N26E(SUPERBITS)E     V27N01E(FCADR)E
002421:
002422: 41,3343           34333        DSPFMEM            CAF      R1D1                                  #  IF F/F, DATACALL USES BANK 02 OR 03.
002423: 41,3344           54777                           TS       DSPCOUNT
002424: 41,3345           31047                           CA       DSPTEM1    +2                         #  SUPERBANK BITS WERE PRELOADED INTO
002425: 41,3346           54001                           TS       L                                     #  3RD COMPONENT OF NOUN 26.
002426: 41,3347           31017                           CA       NOUNCADR                              #  ORIGINAL FCADR LOADED STILL IN NOUNCADR.
002427: 41,3350           04610                           TC       SUPDACAL                              #  CALL WITH FCADR IN A, SUPERBITS IN L.
002428: 41,3351           03353                           TC       DSPOCTWO
002429: 41,3352           05112        ENDSPF             TC       ENDOFJOB
002430:


002432:                                                                                                  #  WORD DISPLAY ROUTINES
002433: 40,3103                                           SETLOC   TESTOFUF   +4
002434: 40,3103                                           COUNT    40/PIN
002435:
002436: 40,3103           56002        DSPSIGN            XCH      Q
002437: 40,3104           54144                           TS       DSPWDRET
002438: 40,3105           10154                           CCS      MPAC
002439: 40,3106           03116                           TC       +8D
002440: 40,3107           03116                           TC       +7
002441: 40,3110           64712                           AD       ONE
002442: 40,3111           54154                           TS       MPAC
002443: 40,3112           02334                           TC       -ON
002444: 40,3113           40155                           CS       MPAC       +1
002445: 40,3114           54155                           TS       MPAC       +1
002446: 40,3115           00144                           TC       DSPWDRET
002447: 40,3116           02314                           TC       +ON
002448: 40,3117           00144                           TC       DSPWDRET
002449:
002450: 40,3120           00006        DSPRND             EXTEND                                         #  ROUND BY 5 EXP-6
002451: 40,3121           33164                           DCA      DECROUND   -1
002452: 40,3122           20155                           DAS      MPAC
002453: 40,3123           00006                           EXTEND
002454: 40,3124           13130                           BZF      +4
002455: 40,3125           00006                           EXTEND
002456: 40,3126           34672                           DCA      DPOSMAX
002457: 40,3127           52155                           DXCH     MPAC
002458: 40,3130           00002                           TC       Q
002459:
002460:                                                                                                  #  DSPDECWD CONVERTS C(MPAC,MPAC+1) INTO A SIGN AND 5 CHAR DECIMAL
002461:                                                                                                  #  STARTING IN LOC SPECIFIED IN DSPCOUNT.  IT ROUNDS BY 5 EXP-6.
002462:
002463: 40,3131           56002        DSPDECWD           XCH      Q
002464: 40,3132           54115                           TS       WDRET
002465: 40,3133           03103                           TC       DSPSIGN
002466: 40,3134           03120                           TC       DSPRND
002467: 40,3135           34710                           CAF      FOUR
002468: 40,3136           54137        DSPDCWD1           TS       WDCNT
002469: 40,3137           34377                           CAF      BINCON
002470: 40,3140           07256                           TC       SHORTMP
002471: 40,3141           50154        TRACE1             INDEX    MPAC
002472: 40,3142           34072                           CAF      RELTAB
002473: 40,3143           74362                           MASK     LOW5
002474: 40,3144           54124                           TS       CODE
002475: 40,3145           34714                           CAF      ZERO
002476: 40,3146           56156                           XCH      MPAC       +2
002477: 40,3147           56155                           XCH      MPAC       +1
002478: 40,3150           54154                           TS       MPAC
002479: 40,3151           56777                           XCH      DSPCOUNT
002480: 40,3152           54143        TRACE1S            TS       COUNT


002482: 40,3153           10000                           CCS      A                                     #  DECREMENT DSPCOUNT EXCEPT AT +0
002483: 40,3154           54777                           TS       DSPCOUNT
002484: 40,3155           03225                           TC       DSPIN
002485: 40,3156           10137                           CCS      WDCNT
002486: 40,3157           03136                           TC       DSPDCWD1
002487: 40,3160           44374                           CS       VD1
002488: 40,3161           54777                           TS       DSPCOUNT
002489: 40,3162           00115                           TC       WDRET
002490:
002491: 40,3163           00000                           OCT      00000
002492: 40,3164           02476        DECROUND           OCT      02476
002493:
002494:                                                                                                  #  DSPDECNR CONVERTS C(MPAC,MPAC+1) INTO A SIGN AND 5 CHAR DECIMAL
002495:                                                                                                  #  STARTING IN LOC SPECIFIED IN DSPCOUNT.  IT DOES NOT ROUND
002496:
002497: 40,3165           56002        DSPDECNR           XCH      Q
002498: 40,3166           54115                           TS       WDRET
002499: 40,3167           03103                           TC       DSPSIGN
002500: 40,3170           03135                           TC       DSPDCWD1   -1
002501:
002502:                                                                                                  #  DSPDC2NR CONVERTS C(MPAC,MPAC+1) INTO A SIGN AND 2 CHAR DECIMAL
002503:                                                                                                  #  STARTING IN LOC SPECIFIED IN DSPCOUNT.  IT DOES NOT ROUND
002504:
002505: 40,3171           56002        DSPDC2NR           XCH      Q
002506: 40,3172           54115                           TS       WDRET
002507: 40,3173           03103                           TC       DSPSIGN
002508: 40,3174           34712                           CAF      ONE
002509: 40,3175           03136                           TC       DSPDCWD1
002510:
002511:                                                                                                  #  DSP2DEC CONVERTS C(MPAC) AND C(MPAC+1) INTO A SIGN AND 10 CHAR DECIMAL
002512:                                                                                                  #  STARTING IN THE LOC SPECIFIED IN DSPCOUNT.
002513:
002514: 40,3176           56002        DSP2DEC            XCH      Q
002515: 40,3177           54115                           TS       WDRET
002516: 40,3200           34714                           CAF      ZERO
002517: 40,3201           54124                           TS       CODE
002518: 40,3202           36214                           CAF      THREE
002519: 40,3203           03307                           TC       11DSPIN                               #  -R2 OFF
002520: 40,3204           34710                           CAF      FOUR
002521: 40,3205           03307                           TC       11DSPIN                               #  +R2 OFF
002522: 40,3206           03103                           TC       DSPSIGN
002523: 40,3207           34334                           CAF      R2D1
002524: 40,3210           03136        END2DEC            TC       DSPDCWD1
002525:
002526:                                                                                                  #  DSPDECVN DISPLAYS C(A) UPON ENTRY AS A 2 CHAR DECIMAL BEGINNING IN THE
002527:                                                                                                  #  DSP LOC SPECIFIED IN DSPCOUNT.
002528:
002529:                                                                                                  #  C(A) SHOULD BE IN FORM N X 2EXP-14.  THIS IS SCALED TO FORM N/100 BEFORE
002530:                                                                                                  #  DISPLAY CONVERSION.


002532:
002533: 40,3211           00006        DSPDECVN           EXTEND
002534: 40,3212           73221                           MP       VNDSPCON                              #  MULT BY .01
002535: 40,3213           22154                           LXCH     MPAC                                  #  TAKE RESULTS FROM L. (MULT BY 2EXP14).
002536: 40,3214           34714                           CAF      ZERO
002537: 40,3215           54155                           TS       MPAC       +1
002538: 40,3216           56002                           XCH      Q
002539: 40,3217           54115                           TS       WDRET
002540: 40,3220           03174                           TC       DSPDC2NR   +3                         #  NO SIGN, NO ROUND, 2 CHAR
002541:
002542: 40,3221           00244        VNDSPCON           OCT      00244                                 #  .01 ROUNDED UP
002543:
002544: 40,3222           03211        GOVNUPDT           TC       DSPDECVN                              #  THIS IS NOT FOR GENERAL USE.  REALLY PART
002545: 40,3223           04574                           TC       POSTJUMP                              #  OF UPDATVB.
002546: 40,3224           62346                           CADR     UPDAT1     +2
002547:
002548: 40,3225                        ENDECVN            EQUALS
002549:
002550: 41,3353                                           SETLOC   ENDSPF     +1
002551: 41,3353                                           COUNT    41/PIN
002552:
002553:                                                                                                  #  DSPOCTWD DISPLAYS C(A) UPON ENTRY AS A 5 CHAR OCT STARTING IN THE DSP
002554:                                                                                                  #  CHAR SPECIFIED IN DSPCOUNT.  IT STOPS AFTER 5 CHAR HAVE BEEN DISPLAYED.
002555:
002556: 41,3353           54022        DSPOCTWO           TS       CYL
002557: 41,3354           56002                           XCH      Q
002558: 41,3355           54115                           TS       WDRET                                 #  MUST USE SAME RETURN AS DSP2BIT.
002559: 41,3356           34675                           CAF      BIT14                                 #  TO BLANK SIGNS
002560: 41,3357           26777                           ADS      DSPCOUNT
002561: 41,3360           34710                           CAF      FOUR
002562: 41,3361           54137        WDAGAIN            TS       WDCNT
002563: 41,3362           40022                           CS       CYL
002564: 41,3363           40022                           CS       CYL
002565: 41,3364           40022                           CS       CYL
002566: 41,3365           40000                           CS       A
002567: 41,3366           74716                           MASK     DSPMSK
002568: 41,3367           50000                           INDEX    A
002569: 41,3370           34072                           CAF      RELTAB
002570: 41,3371           74362                           MASK     LOW5
002571: 41,3372           54124                           TS       CODE
002572: 41,3373           56777                           XCH      DSPCOUNT
002573: 41,3374           54143                           TS       COUNT
002574: 41,3375           10000                           CCS      A                                     #  DECREMENT DSPCOUNT EXCEPT AT +0
002575: 41,3376           54777                           TS       DSPCOUNT
002576: 41,3377           04574                           TC       POSTJUMP
002577: 41,3400           61315                           CADR     DSPOCTIN
002578: 41,3401           10137        OCTBACK            CCS      WDCNT
002579: 41,3402           03361                           TC       WDAGAIN
002580: 41,3403           44374        DSPLV              CS       VD1                                   #  TO BLOCK NUMERICAL CHARACTERS, CLEARS,


002582: 41,3404           54777                           TS       DSPCOUNT                              #  AND SIGNS AFTER A COMPLETED DISPLAY.
002583: 41,3405           00115                           TC       WDRET
002584:
002585: 41,3406     4716               DSPMSK             =        SEVEN
002586:
002587:                                                                                                  #  DSP2BIT DISPLAYS C(A) UPON ENTRY AS A 2 CHAR OCT BEGINNING IN THE DSP
002588:                                                                                                  #  LOC SPECIFIED IN DSPCOUNT BY PRE CYCLING RIGHT C(A) AND USING THE LOGIC
002589:                                                                                                  #  OF THE 5 CHAR OCTAL DISPLAY
002590:
002591: 41,3406           54020        DSP2BIT            TS       CYR
002592: 41,3407           56002                           XCH      Q
002593: 41,3410           54115                           TS       WDRET
002594: 41,3411           34712                           CAF      ONE
002595: 41,3412           54137                           TS       WDCNT
002596: 41,3413           40020                           CS       CYR
002597: 41,3414           40020                           CS       CYR
002598: 41,3415           56020                           XCH      CYR
002599: 41,3416           54022                           TS       CYL
002600: 41,3417           03366                           TC       WDAGAIN    +5
002601:
002602:                                                                                                  #  FOR DSPIN PLACE 0/25 OCT INTO COUNT, 5 BIT RELAY CODE INTO CODE.  BOTH
002603:                                                                                                  #  ARE DESTROYED.  IF BIT14 OF COUNT IS 1, SIGN IS BLANKED WITH LEFT CHAR.
002604:                                                                                                  #  FOR DSPIN1 PLACE 0,1 INTO BIT11 OF CODE, 2 INTO COUNT, REL ADDRESS OF
002605:                                                                                                  #  DSPTAB ENTRY INTO DSREL.
002606:
002607: 40,3225                                           SETLOC   ENDECVN
002608:
002609: 40,3225                                           COUNT    40/PIN
002610:
002611: 40,3225           56002        DSPIN              XCH      Q                                     #  CAN'T USE L FOR RETURN, SINCE MANYOF THE
002612: 40,3226           54114                           TS       DSEXIT                                #  ROTINE CALLING DSPIN USE L AS RETURN.
002613: 40,3227           34362                           CAF      LOW5
002614: 40,3230           70143                           MASK     COUNT
002615: 40,3231           54021                           TS       SR
002616: 40,3232           56021                           XCH      SR
002617: 40,3233           54141                           TS       DSREL
002618: 40,3234           34712                           CAF      BIT1
002619: 40,3235           70143                           MASK     COUNT
002620: 40,3236           10000                           CCS      A
002621: 40,3237           03241                           TC       +2                                    #  LEFT IF COUNT IS ODD
002622: 40,3240           03251                           TC       DSPIN1     -1                         #  RIGHT IF COUNT IS EVEN
002623: 40,3241           56124                           XCH      CODE
002624: 40,3242           04354                           TC       SLEFT5                                #  DOES NOT USE CYL
002625: 40,3243           54124                           TS       CODE
002626: 40,3244           34675                           CAF      BIT14
002627: 40,3245           70143                           MASK     COUNT
002628: 40,3246           10000                           CCS      A
002629: 40,3247           34711                           CAF      TWO                                   #  BIT14 = 1, BLANK SIGN


002631: 40,3250           64712                           AD       ONE                                   #  BIT14 = 0, LEAVE SIGN ALONE
002632: 40,3251           54143                           TS       COUNT                                 #  +0 INTO COUNT FOR RIGHT
002633:                                                                                                  #  +1 INTO COUNT FOR LEFT (SIGN LEFT ALONE)
002634:                                                                                                  #  +3 INTO COUNT FOR LEFT (TO BLANK SIGN)
002635: 40,3252           00004        DSPIN1             INHINT
002636: 40,3253           50141                           INDEX    DSREL
002637: 40,3254           11023                           CCS      DSPTAB
002638: 40,3255           03257                           TC       +2                                    #  IF +
002639: 40,3256           05640                           TC       CCSHOLE
002640: 40,3257           64712                           AD       ONE                                   #  IF -
002641: 40,3260           54142                           TS       DSMAG
002642: 40,3261           50143                           INDEX    COUNT
002643: 40,3262           73303                           MASK     DSMSK
002644: 40,3263           00006                           EXTEND
002645: 40,3264           60124                           SU       CODE
002646: 40,3265           00006                           EXTEND
002647: 40,3266           13301                           BZF      DSLV                                  #  SAME
002648: 40,3267           50143        DFRNT              INDEX    COUNT
002649: 40,3270           43303                           CS       DSMSK                                 #  MASK WITH 77740, 76037, 76777, OR 74037
002650: 40,3271           70142                           MASK     DSMAG
002651: 40,3272           60124                           AD       CODE
002652: 40,3273           40000                           CS       A
002653: 40,3274           50141                           INDEX    DSREL
002654: 40,3275           57023                           XCH      DSPTAB
002655: 40,3276           00006                           EXTEND
002656: 40,3277           63301                           BZMF     DSLV                                  #  DSPTAB ENTRY WAS -
002657: 40,3300           25016                           INCR     NOUT                                  #  DSPTAB ENTRY WAS +
002658: 40,3301           00003        DSLV               RELINT
002659: 40,3302           00114                           TC       DSEXIT
002660:
002661: 40,3303           00037        DSMSK              OCT      37
002662: 40,3304           01740                           OCT      1740
002663: 40,3305           02000                           OCT      2000
002664: 40,3306           03740                           OCT      3740
002665:
002666:                                                                                                  #  FOR 11DSPIN, PUT REL ADDRESS OF DSPTAB ENTRY INTO A, 1 IN BIT11 OR 0 IN
002667:                                                                                                  #  BIT11 OF CODE.
002668:
002669: 40,3307           54141        11DSPIN            TS       DSREL
002670: 40,3310           34711                           CAF      TWO
002671: 40,3311           54143                           TS       COUNT
002672: 40,3312           56002                           XCH      Q                                     #  MUST USE SAME RETURN AS DSPIN
002673: 40,3313           54114                           TS       DSEXIT
002674: 40,3314           03252                           TC       DSPIN1
002675:
002676: 40,3315           03225        DSPOCTIN           TC       DSPIN                                 #  SO DSPOCTWO DOESN'T USE (garbled)
002677: 40,3316           33320                           CAF      +2
002678: 40,3317           04577                           TC       BANKJUMP


002680: 40,3320           63401        ENDSPOCT           CADR     OCTBACK
002681:
002682:                                                                                                  #  DSPALARM FINDS TC NVSUBEND IN ENTRET FOR NVSUB INITIATED ROUTINES
002683:                                                                                                  #  ABORT WITH 01501.
002684:
002685:                                                                                                  #  DSPALARM FINDS TC ENDOFJOB IN ENTRET FOR KEYBOARD INITIATED ROUTINES.
002686:                                                                                                  #  DC TC ENTRET.
002687:
002688: 40,3321           44374        PREDSPAL           CS       VD1
002689: 40,3322           54777                           TS       DSPCOUNT
002690: 40,3323           43342        DSPALARM           CS       NVSBENDL
002691: 40,3324           60136                           AD       ENTEXIT
002692: 40,3325           00006                           EXTEND
002693: 40,3326           13337                           BZF      CHARALRM   +2
002694: 40,3327           43341                           CS       MONADR                                #  IF THIS IS A MONITOR, KILL IT
002695: 40,3330           60136                           AD       ENTEXIT
002696: 40,3331           00006                           EXTEND
002697: 40,3332           13334                           BZF      +2
002698: 40,3333           03335                           TC       +2
002699: 40,3334           04220                           TC       KILMONON
002700: 40,3335           04400        CHARALRM           TC       FALTON                                #  NO NVSUB INITATED TURN ON OPR ERROR
002701: 40,3336           05112                           TC       ENDOFJOB
002702: 40,3337           05622                           TC       P00DOO
002703: 40,3340           01501                           OCT      01501
002704: 40,3341           04140        MONADR             GENADR   PASTEVB
002705: 40,3342           04216        NVSBENDL           TC       NVSUBEND
002706:
002707:                                                                                                  #  ALMCYCLE TURNS ON CHECK FAIL LIGHT, REDISPLAYS THE ORIGINAL VERB THAT
002708:                                                                                                  #  WAS EXECUTED, AND RECYCLES TO EXECUTE THE ORIGINAL VERB/NOUN COMBINATION
002709:                                                                                                  #  THAT WAS LAST EXECUTED.  USED FOR BAD DATA DURING LOAD VERBS AND BY
002710:                                                                                                  #  MCTBS.  ALSO BY MMCHANG IF 2 NUMERICAL CHARACTERS WERE NOT PUNCHED IN
002711:                                                                                                  #  FOR MM CODE
002712:
002713:    4161                                           SETLOC   MID7       +1
002714:    4161                                           COUNT    02/PIN
002715:    4161           04400        ALMCYCLE           TC       FALTON                                #  TURN ON CHECK FAIL LIGHT.
002716:    4162           41041                           CS       VERBSAVE                              #  GET ORIGINAL VERB THAT WAS EXECUTED
002717:    4163           55013                           TS       REQRET                                #  SET FOR ENTPAS0
002718:    4164           04555                           TC       BANKCALL                              #  PUTS ORIGINAL VERB INTO VERBREG AND
002719:    4165           62336                           CADR     UPDATVB    -1                         #  DISPLAYS IT IN VERB LIGHTS.
002720:    4166           04574                           TC       POSTJUMP
002721:    4167           62002        ENDALM             CADR     ENTER
002722:
002723:                                                                                                  #  MMCHANG USES NOUN DISPLAY UNTIL ENTER.  THEN IT USES MODE DISP.
002724:                                                                                                  #  IT GOES TO MODROUT WITH THE NEW MM CODE IN A, BUT NOT DISPLAYED IN
002725:                                                                                                  #  MM LIGHTS.
002726:
002727:                                                                                                  #  IT DEMANDS 2 NUMERICAL CHARACTERS BE PUNCHED IN FOR NEW MM CODE.


002729:                                                                                                  #  IF NOT, IT RECYCLES.
002730:
002731: 41,3420                                           SETLOC   DSP2BIT    +10D
002732: 41,3420                                           COUNT    41/PIN
002733: 41,3420           03442        MMCHANG            TC       REQMM                                 #  ENTPASHI ASSUMES THE TC REQMM AT MMCHANG
002734:                                                                                                  #  IF THIS MOVES AT ALL, MUST CHANGE
002735:                                                                                                  #  MMADREF AT ENTPASHI.
002736: 41,3421           34706                           CAF      BIT5                                  #  OCT20 = ND2.
002737: 41,3422           60777                           AD       DSPCOUNT                              #  DSPCOUNT MUST = -ND2.
002738: 41,3423           00006                           EXTEND                                         #  DEMAND THAT 2 NUM CHAR WERE PUNCHED IN.
002739: 41,3424           13426                           BZF      +2
002740: 41,3425           04161                           TC       ALMCYCLE                              #  DSPCOUNT NOT= -ND2.  ALARM AND RECYCLE.
002741: 41,3426           34714                           CAF      ZERO                                  #  DSPCOUNT = -ND2.
002742: 41,3427           57002                           XCH      NOUNREG
002743: 41,3430           54154                           TS       MPAC
002744: 41,3431           34375                           CAF      ND1
002745: 41,3432           54777                           TS       DSPCOUNT
002746: 41,3433           04555                           TC       BANKCALL
002747: 41,3434           60502                           CADR     2BLANK
002748: 41,3435           44374                           CS       VD1                                   #  BLOCK NUM CHAR IN
002749: 41,3436           54777                           TS       DSPCOUNT
002750: 41,3437           30154                           CA       MPAC
002751: 41,3440           04574                           TC       POSTJUMP
002752: 41,3441           10010                           CADR     MODROUTB                              #  GO THRU STANDARD LOC.
002753:
002754: 41,3442  04,2010               MODROUTB           =        V37
002755: 41,3442           40002        REQMM              CS       Q
002756: 41,3443           55013                           TS       REQRET
002757: 41,3444           34375                           CAF      ND1
002758: 41,3445           54777                           TS       DSPCOUNT
002759: 41,3446           34714                           CAF      ZERO
002760: 41,3447           55002                           TS       NOUNREG
002761: 41,3450           04555                           TC       BANKCALL
002762: 41,3451           60502                           CADR     2BLANK
002763: 41,3452           04443                           TC       FLASHON
002764: 41,3453           34712                           CAF      ONE
002765: 41,3454           55000                           TS       DECBRNCH                              #  SET FOR DEC
002766: 41,3455           00136                           TC       ENTEXIT
002767:
002768:                                                                                                  #  VBRQEXEC ENTERS REQUEST TO EXEC FOR ANY ADDRESS WITH ANY PRIORITY.
002769:                                                                                                  #  IT DOES ENDOFJOB AFTER ENTERING REQUEST.  DISPLAY SYST IS RELEASED.
002770:                                                                                                  #  IT ASSUMES NOUN 26 HAS BEEN PRELOADED WITH
002771:                                                                                                  #        COMPONENT 1     PRIORITY (BITS 10-14) BIT1=0 FOR NOVAC, BIT1=1 FOR FINDVAC.
002772:                                                                                                  #        COMPONENT 2     JOB ADRES (12 BIT)
002773:                                                                                                  #        COMPONENT 3     BBCON


002775:
002776: 41,3456           34712        VBRQEXEC           CAF      BIT1
002777: 41,3457           71045                           MASK     DSPTEM1
002778: 41,3460           10000                           CCS      A
002779: 41,3461           03500                           TC       SETVAC                                #  IF BIT1 = 1, FINDVAC
002780: 41,3462           34365                           CAF      TCNOVAC                               #  IF BIT1 = 0, NOVAC
002781: 41,3463           54154        REQEX1             TS       MPAC                                  #  TC NOVAC OR TC FINDVAC INTO MPAC
002782: 41,3464           44712                           CS       BIT1
002783: 41,3465           71045                           MASK     DSPTEM1
002784: 41,3466           54160                           TS       MPAC       +4                         #  PRIO INTO MPAC+4 AS A TEMP
002785: 41,3467           04473        REQUESTC           TC       RELDSP
002786: 41,3470           34233                           CA       ENDINST
002787: 41,3471           54157                           TS       MPAC       +3                         #  TC ENDOFJOB INTO MPAC+3
002788: 41,3472           00006                           EXTEND
002789: 41,3473           31047                           DCA      DSPTEM1    +1                         #  JOB ADRES INTO MPAC+1
002790: 41,3474           52156                           DXCH     MPAC       +1                         #  BBCON INTO MPAC+2
002791: 41,3475           30160                           CA       MPAC       +4                         #  PRIO IN A
002792: 41,3476           00004                           INHINT
002793: 41,3477           00154                           TC       MPAC
002794:
002795: 41,3500           34370        SETVAC             CAF      TCFINDVC
002796: 41,3501           03463                           TC       REQEX1
002797:
002798:                                                                                                  #  VBRQWAIT ENTERS REQUEST TO WAITLIST FOR ANY ADDRESS WITH ANY DELAY.
002799:                                                                                                  #  IT DOES ENDOFJOB AFTER ENTERING REQUEST.  DISPLAY SYST IS RELEASED.
002800:                                                                                                  #  IT ASSUMES NOUN 26 HAS BEEN PRELOADED WTIH
002801:                                                                                                  #        COMPONENT 1     DELAY (LOW BITS)
002802:                                                                                                  #        COMPONENT 2     TASK ADRES (12 BIT)
002803:                                                                                                  #        COMPONENT 3     BBCON
002804:
002805: 41,3502           34366        VBRQWAIT           CAF      TCWAIT
002806: 41,3503           54154                           TS       MPAC                                  #  TC WAITLIST INTO MPAC
002807: 41,3504           31045                           CA       DSPTEM1                               #  TIME DELAY
002808: 41,3505           03466        ENDRQWT            TC       REQUESTC   -1
002809:
002810:                                                                                                  #  REQUESTC WILL PUT TASK ADRES INTO MPAC+1, BBCON INTO MPAC+2,
002811:                                                                                                  #  TC ENDOFJOB INTO MPAC+3.  IT WILL TAKE TIME DELAY OUT OF MPAC+4 AND
002812:                                                                                                  #  LEAVE IT IN A, INHINT AND TC MPAC.
002813:
002814: 40,3343                                           SETLOC   NVSBENDL   +1
002815: 40,3343                                           COUNT    40/PIN
002816:
002817: 40,3343           34712        VBPROC             CAF      ONE                                   #  PROCEED WITHOUT DATA
002818: 40,3344           55014                           TS       LOADSTAT
002819: 40,3345           04220                           TC       KILMONON                              #  TURN ON KILL MONITOR BIT
002820: 40,3346           04473                           TC       RELDSP
002821: 40,3347           04447                           TC       FLASHOFF
002822: 40,3350           03450                           TC       RECALTST                              #  SEE IF THERE IS ANY RECALL FROM ENDIDLE
002823:


002825: 40,3351           44712        VBTERM             CS       ONE
002826: 40,3352           03344                           TC       VBPROC     +1                         #  TERM VERB SETS LOADSTAT NEG
002827:
002828:                                                                                                  #  PROCKEY PERFORMS THE SAME FUNCTION AS VBPROC.  IT MUST BE CALLED UNDER
002829:                                                                                                  #  EXECUTIVE CONTROL, WITH CHRPRIO.
002830:
002831: 40,3353           34714        PROCKEY            CAF      ZERO                                  #  SET REQRET FOR ENTER PASS 0.
002832: 40,3354           55013                           TS       REQRET
002833: 40,3355           44374                           CS       VD1                                   #  BLOCK NUMERICAL CHARACTERS, SIGNS, CLEAR
002834: 40,3356           54777                           TS       DSPCOUNT
002835: 40,3357           03343                           TC       VBPROC
002836:
002837:                                                                                                  #  VBRESEQ WAKES ENDIDLE AT SAME LINE AS FINAL ENTER OF LOAD (L+3).
002838:                                                                                                  #  (MAIN USE IS INTENDED AS RESPONSE TO INTERNALLY INITIATED FLASHING
002839:                                                                                                  #  DISPLAYS IN ENDIDLE.  SHOULD NOT BE USED WITH LOAD VERBS, PLEAS PERFORM,
002840:                                                                                                  #  OR PLEASE MARK VERBS BECAUSE THEY ALREADY USE L+3 IN ANOTHER CONTEXT.)
002841:
002842: 40,3360           44714        VBRESEQ            CS       ZERO                                  #  MAKE IT LOOK LIKE DATA IN.
002843: 40,3361           03344                           TC       VBPROC     +1
002844:
002845:                                                                                                  #  FLASH IS TURNED OFF BY PROCEED WITHOUT DATA, TERMINATE, REQUEQUENCE,
002846:                                                                                                  #  END OF LOAD.


002848:
002849:                                                                                                  #  KEY RELEASE ROUTINE
002850:
002851:                                                                                                  #  THIS ROUTINE ALWAYS TURNS OFF THE UPACT LIGHT AND ALWAYS CLEARS DSPLOCK.
002852:
002853:                                                                                                  #  THE HIGHEST PRIORITY FUNCTION OF THE KEY RELEASE BUTTON IS THE
002854:                                                                                                  #  UNSUSPENDING OF A SUSPENDED MONITOR WHICH WAS EXTERNALLY INITIATED.
002855:                                                                                                  #  THIS FUNCTION IS ACCOMPLISHED BY CLEARING DSPLOCK AND TURNING OFF
002856:                                                                                                  #  THE KEY RELEASE LIGHT IF BOTH DSPLIST AND CADRSTOR ARE EMPTY.
002857:
002858:                                                                                                  #  IF NO SUCH MONITOR EXISTS, THEN RELDSP IS EXECUTED TO CLEAR DSPLOCK
002859:                                                                                                  #  AND THE EXTERNAL MONITOR BIT (FREEING THE DISPLAY SYSTEM FOR INTERNAL
002860:                                                                                                  #  USE), TURN OFF THE KEY RELEASE LIGHT, AND WAKE UP ANY JOB IN DSPLIST.
002861:
002862:                                                                                                  #  IN ADDITION IF THERE IS A JOB IN ENDIDLE, THEN CONTROL IS TRANSFERRED
002863:                                                                                                  #  TO PINBRNCH (IN DISPLAY INTERFACE ROUTINE) TO RE-EXECUTE THE SERIES OF
002864:                                                                                                  #  NVSUB CALLS ETC. THAT PRECEDED THE ENDIDLE CALL STILL AWAITING RESPONSE.
002865:                                                                                                  #  THIS FEATURE IS INTENDED FOR USE WHEN THE OPERATOR HAS BEEN REQUESTED TO
002866:                                                                                                  #  RESPOND TO SOME INTERNAL ACTION THAT USED ENDIDLE, BUT HE HAS WRITTEN
002867:                                                                                                  #  OVER THE INFORMATION ON THE DISPLAY PANEL BY SOME DISPLAYS OF HIS OWN
002868:                                                                                                  #  INITIATION WHICH DO NOT SERVE AS RESPONSES.  HITTING KEYRLSE WILL
002869:                                                                                                  #  RE-ESTABLISH THE DISPLAYS TO THE STATE THEY WERE IN BEOFRE HE OBSCURED
002870:                                                                                                  #  THEM, SO THAT HE CAN SEE THE WAITING REQUEST.  THIS WORKS ONLY FOR
002871:                                                                                                  #  INTERNAL PROGRAMS THAT USED ENDIDLE THROUGH MARGARET'S DISPLAY
002872:                                                                                                  #  SUBROUTINES.
002873:
002874: 40,3362           44710        VBRELDSP           CS       BIT3
002875: 40,3363           00006                           EXTEND
002876: 40,3364           03011                           WAND     DSALMOUT                              #  TURN OF UPACT LITE
002877: 40,3365           10115                           CCS      21/22REG                              #  OLD DSPLOCK
002878: 40,3366           34675                           CAF      BIT14
002879: 40,3367           71021                           MASK     MONSAVE1                              #  EXTERNAL MONITOR BIT (EMB)
002880: 40,3370           10000                           CCS      A
002881: 40,3371           03400                           TC       UNSUSPEN                              #  OLD DSPLOCK AND EMB BOTH 1, UNSUSPEND,
002882: 40,3372           04473        TSTLTS4            TC       RELDSP                                #  NOT UNSUSPENDING EXTERNAL MONITOR
002883: 40,3373           11042                           CCS      CADRSTOR                              #        RELEASE DISPLAY SYSTEM AND
002884: 40,3374           03376                           TC       +2                                    #        DO RE-ESTABLISH IF CADRSTOR IS FULL.
002885: 40,3375           05112                           TC       ENDOFJOB
002886: 40,3376           04574                           TC       POSTJUMP
002887: 40,3377           21176                           CADR     PINBRNCH
002888: 40,3400           34714        UNSUSPEN           CAF      ZERO                                  #  EXTERNAL MONITOR IS SUSPENDED,
002889: 40,3401           55012                           TS       DSPLOCK                               #        JUST UNSUSPEND IT BY CLEARING DSPLOCK.
002890: 40,3402           11042                           CCS      CADRSTOR                              #        TURN KEY RELEASE LIGHT OFF IF BOTH
002891: 40,3403           05112                           TC       ENDOFJOB                              #        CADRSTOR AND DSPLIST ARE EMPTY.
002892: 40,3404           04516                           TC       RELDSP1
002893: 40,3405           05112                           TC       ENDOFJOB
002894:
002895: 40,3406                        ENDRELDS           EQUALS
002896:


002898:                                                                                                  #  NVSUB IS USED FOR SUBROUTINE CALLS FROM WITHIN COMPUTER.  IT CAN BE
002899:                                                                                                  #  USED TO CALL THE COMBINATION OF ANY DISPLAY, LOAD, OR MONITOR VERB
002900:                                                                                                  #  TOGETHER WITH ANY NOUN AVAILABLE TO THE KEYBOARD.
002901:                                                                                                  #  PLACE 0VVVVVVVNNNNNNN INTO A.
002902:                                                                                                  #  V'S ARE THE 7-BIT VERB CODE.  N'S ARE THE 7-BIT NOUN CODE.
002903:
002904:                                                                                                  #  IF NVSUB IS CALLED WTIH THE FOLLOWING NEGATIVE NUMBERS (RATHER THAN THE
002905:                                                                                                  #  VERB-NOUN CODE) IN A, THEN THE DISPLAY IS BLANKED AS FOLLOWS ---
002906:                                                                                                  #  -4 FULL BLANK, -3 LEAVE MODE, -2 LEAVE MODE AND VERB, -1 BLANK R'S ONLY.
002907:
002908:                                                                                                  #  NVSUB CAN BE USED WTIH MACHINE CADR TO BE SPECIFIED BY PLACING THE CADR INTO
002909:                                                                                                  #  MPAC+2 BEFORE THE STANDARD NVSUB CALL.
002910:
002911:                                                                                                  #  NVSUB RETURNS TO 2+ CALLING LOC AFTER PERFORMING TASK, IF DISPLAY
002912:                                                                                                  #  SYSTEM IS AVAIALBLE.  THE NEW NOUN AND VERB CODES ARE DISPLAYED.
002913:                                                                                                  #  IF V'S =0, THE NEW NOUN CODE IS DISPLAYED ONLY (RETURN WITH NO FURTHER
002914:                                                                                                  #  ACTION).  IF N'S =0, THE NEW VERB CODE IS DISPLAYED ONLY (RETURN WITH NO
002915:                                                                                                  #  FURTHER ACTION).
002916:
002917:                                                                                                  #  IT RETURNS TO 1+ CALLING LOC WITHOUT PERFORMING TASK, IF DISPLAY
002918:                                                                                                  #  SYSTEM IS BLOCKED (NOTHING IS DISPLAYED IN THIS CASE).
002919:                                                                                                  #  IT DOES TC ABORT (WITH OCT 01501) IF IT ENCOUNTERS A DISPLAY PROGRAM
002920:                                                                                                  #  ALARM CONDITION BEFORE RETURN TO CALLER.
002921:
002922:                                                                                                  #  THE DISPLAY SYSTEM IS BLOCKED BY THE DEPRESSION OF ANY
002923:                                                                                                  #  KEY, EXCEPT ERROR LIGHT RESET.
002924:                                                                                                  #  IT IS RELEASED BY THE KEY RELEASE BUTTON, ALL EXTENDED VERBS,
002925:                                                                                                  #  PROCED WITOHOUT DATA, TERMINATE, RESEQUENCE, INITIALIZE EXECUTIVE,
002926:                                                                                                  #  RECALL PART OF RECALTST IF ENDIDLE WAS USED,
002927:                                                                                                  #  VB = REQUEST EXECUTIVE, VB = REQUEST WAITLIST,
002928:                                                                                                  #  MONITOR SET UP.
002929:
002930:                                                                                                  #  THE DISPLAY SYSTEM IS ALSO BLOCKED BY THE EXTERNAL MONITOR BIT, WHICH
002931:                                                                                                  #  INDICATES AND EXTERNALLY INITIATED MONITOR IS RUNNING (SEE MONITOR).
002932:
002933:                                                                                                  #  A NVSUB CALL THAT PASSES DSPLOCK AND THE EXTERNAL MONITOR BIT ENDS OLD
002934:                                                                                                  #  MONITOR.
002935:
002936:                                                                                                  #  DSPLOCK IS THE INTERLOCK FOR USE OF KEYBOARD AND DISPLAY SYSTEM WHICH
002937:                                                                                                  #  LOCKS OUT INTERNAL USE WHENEVER THERE IS EXTERNAL KEYBOARD ACTION.
002938:
002939:                                                                                                  #  NVSUB SHOULD BE USED TWICE IN SUCCESSION FOR `PLEASE PERFORM' SITUATIONS
002940:                                                                                                  #  (SIMILARLY FOR PLEASE MARK).  FIRST PLACE THE CODED NUMBER FOR WHAT
002941:                                                                                                  #  ACTION IS DESIRED OF OPERATOR INTO THEREGISTERS REFERRED TO BY THE
002942:                                                                                                  #  `CHECKLIST' NOUN.  GO TO NVSUB WITH A DISPLAY VERB AND THE `CHECKLIST'
002943:                                                                                                  #  NOUN.  GO TO NVSUB AGAIN WTIH THE `PLEASE PERFORM' VERB AND ZEROS IN THE
002944:                                                                                                  #  LOW 7 BITS.  THIS `PASTES UP' THE `PLEASE PERFORM' VERB INTO THE VERB
002945:                                                                                                  #  LIGHTS.
002946:
002947:                                                                                                  #  NVMONOPT IS AN ENTRY SIMILAR TO NVSUB, BUT REQUIRING AN ADDITIONAL


002949:                                                                                                  #  PARAMETER IN L.  IT SHOULD BE USED ONLY WITH A MONITOR VERB-NOUN CODE IN
002950:                                                                                                  #  A.  AFTER EACH MONITOR DISPLAY A *PLEASE* VERB WILL BE PASED INT THE VERB
002951:                                                                                                  #  LIGHTS OR DATA WILL BE BLANKED (OR BOTH) ACCORDING TO THE OPTIONS
002952:                                                                                                  #  SPECIFIED IN L.  IF BITS 8-14 OF L ARE OTHER THAN ZERO, THEN THEY WILL
002953:                                                                                                  #  BE INTERPRETED AS A VERB CODE AND PASTED IN THE VERB LIGHTS.  (THIS VERB
002954:                                                                                                  #  CODE SHOULD DESIGNATE ONE OF THE *PLEASE* VERBS.)  IF BITS 1-3 OF L ARE
002955:                                                                                                  #  OTHER THAN ZERO, THEN THEY WILL BE USED BO BLANK DATA BY BEING FED TO
002956:                                                                                                  #  BLANKSUB.  IF NVMONOPT IS USED WITH A VERB OTHER THAN A MONITOR VERB,
002957:                                                                                                  #  THE PARAMETER IN L HAS NO EFFECT.
002958:
002959:                                                                                                  #  NVSUB IN FIXED-FIXED PLACES 2+CALLING LOC INTO NVQTEM, TC NVSUBEND INTO
002960:                                                                                                  #  ENTRET.  (THIS WILL RESTORE OLD CALLING BANK BITS)
002961:
002962:    4170                                           SETLOC   ENDALM     +1
002963:
002964:    4170                                           COUNT    02/PIN
002965:
002966:    4170           22007        NVSUB              LXCH     7                                     #  ZERO NVMONOPT OPTIONS
002967:    4171           54123        NVMONOPT           TS       NVTEMP
002968:    4172           34675                           CAF      BIT14
002969:    4173           71021                           MASK     MONSAVE1                              #  EXTERNAL MONITOR BIT
002970:    4174           61012                           AD       DSPLOCK
002971:    4175           10000                           CCS      A
002972:    4176           00002                           TC       Q                                     #  DSP SYST BLOCKED.  RET TO 1.  CALLING LOC
002973:    4177           34712                           CAF      ONE                                   #  DSP SYST AVAILABLE.
002974:    4200           60002        NVSBCOM            AD       Q
002975:    4201           55037                           TS       NVQTEM                                #  2+ CALLING LOC INTO NVQTEM
002976:    4202           23022                           LXCH     MONSAVE2                              #  STORE NVMONOPT OPTIONS
002977:    4203           04220                           TC       KILMONON                              #  TURN ON KILL MONITOR BIT
002978:    4204           34215        NVSUBCOM           CAF      NVSBBBNK
002979:
002980:    4205           56006                           XCH      BBANK
002981:    4206           00006                           EXTEND                                         #  SAVE OLD SUPERBITS
002982:    4207           04007                           ROR      SUPERBNK
002983:    4210           55040                           TS       NVBNKTEM
002984:    4211           34215                           CAF      PINSUPBT
002985:    4212           00006                           EXTEND
002986:    4213           01007                           WRITE    SUPERBNK
002987:    4214           02000                           TC       NVSUBB                                #  GO TO NVSUB1 THRU STANDARD LOC
002988:    4215     0777                                  EBANK=   DSPCOUNT
002989:    4215           62101        NVSBBBNK           BBCON    NVSUB1
002990:
002991:    4216     4215               PINSUPBT           =        NVSBBBNK                              #  CONTAINS THE PINBALL SUPERBIT.
002992:
002993:    4216           53040        NVSUBEND           DXCH     NVQTEM                                #  NVBNKTEM MUST = NVQTEM+1
002994:    4217           05122                           TC       SUPDXCHZ                              #  DTCB WITH SUPERBIT SWITCHING
002995:
002996: 41,3506                                           SETLOC   ENDRQWT    +1
002997:
002998: 41,3506                                           COUNT    41/PIN


003000:
003001:                                                                                                  #  BLANKDSP BLANKS DISPLAY ACCORDING TO OPTION NUMBER IN NVTEMP AS FOLLOWS:
003002:                                                                                                  #  -4 FULL BLANK, -3 LEAVE MODE, -2 LEAVE MODE AND VERB, -1 BLANK R'S ONLY.
003003:
003004: 41,3506           64716        BLANKDSP           AD       SEVEN                                 #  7,8,9, OR 10 (A HAD 0,1,2,OR 3)
003005: 41,3507           00004                           INHINT
003006: 41,3510           54124                           TS       CODE                                  #  BLANK SPECIFIED DSPTABS
003007: 41,3511           44677                           CS       BIT12
003008: 41,3512           50124                           INDEX    CODE
003009: 41,3513           57023                           XCH      DSPTAB
003010: 41,3514           10000                           CCS      A
003011: 41,3515           25016                           INCR     NOUT
003012: 41,3516           03517                           TC       +1
003013: 41,3517           10124                           CCS      CODE
003014: 41,3520           03510                           TC       BLANKDSP   +2
003015: 41,3521           00003                           RELINT
003016: 41,3522           50123                           INDEX    NVTEMP
003017: 41,3523           03530                           TC       +5
003018: 41,3524           03525                           TC       +1                                    #  NVTEMP HAS    -4 (NEVER TOUCH MODREG)
003019: 41,3525           55001                           TS       VERBREG                               #                -3
003020: 41,3526           55002                           TS       NOUNREG                               #                -2
003021: 41,3527           55015                           TS       CLPASS                                #                -1
003022: 41,3530           44374                           CS       VD1
003023: 41,3531           54777                           TS       DSPCOUNT
003024: 41,3532           04447                           TC       FLASHOFF                              #  PROTECT AGAINS INVISIBLE FLASH
003025: 41,3533           03556                           TC       ENTSET     -2                         #  ZEROS REQRET
003026:
003027: 41,3534           33560        NVSUB1             CAF      ENTSET                                #  IN BANK
003028: 41,3535           54136                           TS       ENTRET                                #  SET RETURN TO NVSUBEND
003029: 41,3536           10123                           CCS      NVTEMP                                #  WHAT NOW
003030: 41,3537           03543                           TC       +4                                    #  NORMAL NVSUB CALL (EXECUTE VN OR PASTE)
003031: 41,3540           02350                           TC       GODSPALM
003032: 41,3541           03506                           TC       BLANKDSP                              #  BLANK DISPLAY AS SPECIFIED
003033: 41,3542           02350                           TC       GODSPALM
003034: 41,3543           36043                           CAF      LOW7
003035: 41,3544           70123                           MASK     NVTEMP
003036: 41,3545           54157                           TS       MPAC       +3                         #  TEMP FOR NOUN (CAN'T USE MPAC.  DSPDECVN
003037: 41,3546           30123                           CA       NVTEMP                                #                USES MPAC, +1, +2).
003038: 41,3547           54023                           TS       EDOP                                  #  RIGHT 7
003039: 41,3550           30023                           CA       EDOP
003040: 41,3551           54160                           TS       MPAC       +4                         #  TEMP FOR VERB (CAN'T USE MPAC+1.  DSPDECVN
003041:                                                                                                  #                USES MPAC, +1, +2)
003042: 41,3552           10157                           CCS      MPAC       +3                         #  TEST NOUN
003043: 41,3553           03561                           TC       NVSUB2                                #  IF NOUN NOT +0, GO ON
003044: 41,3554           30160                           CA       MPAC       +4
003045: 41,3555           02336                           TC       UPDATVB    -1                         #  IF NOUN = +0, DISPLAY VERB.  THEN RETURN
003046: 41,3556           34714                           CAF      ZERO                                  #  XERO REQRET SO THAT PASTED VERBS CAN
003047: 41,3557           55013                           TS       REQRET                                #  BE EXECUTED BY OPERATOR.
003048: 41,3560           04216        ENTSET             TC       NVSUBEND
003049: 41,3561           10160        NVSUB2             CCS      MPAC       +4                         #  TEST VERB
003050: 41,3562           03566                           TC       +4                                    #  IF VERB NOT +0, GO ON


003052: 41,3563           30157                           CA       MPAC       +3
003053: 41,3564           02316                           TC       UPDATNN    -1                         #  IF VERB = +0, DISPLAY NOUN.  THEN RETURN
003054: 41,3565           04216                           TC       NVSUBEND
003055: 41,3566           30156                           CA       MPAC       +2                         #  TEMP FOR MACH CADR TO BE SPEC.  (DSPDECVN
003056: 41,3567           54161                           TS       MPAC       +5                         #        USES MPAC, +1, +2)
003057: 41,3570           30160                           CA       MPAC       +4
003058: 41,3571           02336                           TC       UPDATVB    -1                         #  IF BOTH NOUN AND VERB NOT +0, DISPLAY
003059: 41,3572           30157                           CA       MPAC       +3                         #  BOTH AND GO TO ENTPAS0.
003060: 41,3573           02316                           TC       UPDATNN    -1
003061: 41,3574           34714                           CAF      ZERO
003062: 41,3575           55014                           TS       LOADSTAT                              #  SET FOR WAITING FOR DATA CONDITION
003063: 41,3576           55015                           TS       CLPASS
003064: 41,3577           55013                           TS       REQRET                                #  SET REQRET FOR PASS 0.
003065: 41,3600           30161                           CA       MPAC       +5                         #  RESTORES MACH CADR TO BE SPEC TO MPAC+2
003066: 41,3601           54156                           TS       MPAC       +2                         #  FOR USE IN INTMCTBS (IN ENTPAS0).
003067: 41,3602           02035        ENDNVSB1           TC       ENTPAS0
003068:
003069:                                                                                                  #  IF INTERNAL MACH CADR TO BE SPECIFIED, MPAC+2 WILL BE PLACED INTO
003070:                                                                                                  #  NOUNCADR IN ENTPAS0 (INTMCTBS).
003071:
003072:    4220                                           SETLOC   NVSUBEND   +2
003073:    4220                                           COUNT    02/PIN
003074:                                                                                                  #  FORCE BIT 15 OF MONSAVE1 TO .
003075:    4220           34674        KILMONON           CAF      BIT15                                 #        THIS IS THE KILL MONITOR BIT.
003076:    4221           55021                           TS       MONSAVE1                              #  TURN OFF BIT 14, THE EXTERNAL
003077:                                                                                                  #        MONITOR BIT.
003078:    4222           00002                           TC       Q
003079:
003080:                                                                                                  #  LOADSTAT      +0      INACTIVE (WAITING FOR DATA).  SET BY NVSUB
003081:                                                                                                  #                +1      PROCEED NO DATA.  SET BY SPECIAL VERB
003082:                                                                                                  #                -1      TERMINATE.  SET BY SPECIAL VERB.
003083:                                                                                                  #                -0      DATA IN.  SET BY END OF LOAD ROUTINE.
003084:                                                                                                  #                        OR RESEQUENCE.  SET BY VERB 32
003085:
003086:                                                                                                  #  L TO ENDIDLE (FIXED FIXED).
003087:                                                                                                  #  ROUTINES THAT REQUEST LOADS THROUGH NVSUB SHOULD USE ENDIDLE WHILE
003088:                                                                                                  #  WAITING FOR THE DATA TO BE LOADED.  ENDIDLE PUTS CURRENT JOB TO SLEEP.
003089:                                                                                                  #  ENDIDLE CANNOT BE CALLED FROM ERASABLE OR F/F MEMORY,
003090:                                                                                                  #  SINCE JOB SLEEP AND JOBWAKE CAN HANDLE ONLY FIXED BANKS.
003091:                                                                                                  #  RECALTST TESTS LOADSTAT AND WAKES JOB UP TO,
003092:                                                                                                  #        L+1     FOR TERMINATE
003093:                                                                                                  #        L+2     FOR PROCEED WITHOUT DATA
003094:                                                                                                  #        L+3     FOR DATA IN, OR RESEQUENCE
003095:                                                                                                  #  IT DOES NOTHING IF LOADSTAT INDICATES WAITING FOR DTA.


003097:
003098:                                                                                                  #  ENDIDLE ABORTS (WITH CODE 1206) IF A SECOND JOB ATTEMPTS TO GO TO SLEEP
003099:                                                                                                  #  IN PINBALL.  IN PARTICULAR, IF AN ATTEMPT IS MADE TO GO TO ENDIDLE WHEN
003100:                                                                                                  #        1)      CADRSTOR NOT= +0.  THIS IS THE CASE WHERE THE CAPACITY OF ENDIDLE IS
003101:                                                                                                  #                EXCEEDED.  (+-NZ INDICATES A JOB IS ALREADY ASLEEP DUE TO ENDIDDLE.)
003102:                                                                                                  #        2)      DSPLIST NOT= +0.  THIS INDICATES A JOB IS ALREADY ASLEEP DUE TO
003103:                                                                                                  #                NVSUBUSY.
003104:
003105:    4223           22002        ENDIDLE            LXCH     Q                                     #  RETURN ADDRESS INTO L.
003106:    4224           04234                           TC       ISCADR+0                              #  ABORT IF CADRSTOR NOT= +0.
003107:    4225           04240                           TC       ISLIST+0                              #  ABORT IF DSPLIST NOT= +0
003108:    4226           30001                           CA       L                                     #  DON'T SET DSPLOC TO 1 SO CAN USE
003109:    4227           74747                           MASK     LOW10                                 #  ENDIDLE WITH NVSUB INITIATE MONITOR.
003110:    4230           60004                           AD       FBANK                                 #  SAME STRATEGY FOR CADR AS MAKECADR.
003111:    4231           55042                           TS       CADRSTOR
003112:    4232           05070                           TC       JOBSLEEP
003113:
003114:    4233           05112        ENDINST            TC       ENDOFJOB
003115:
003116:    4234           11042        ISCADR+0           CCS      CADRSTOR                              #  ABORTS (CODE 01206) IF CADRSTOR NOT= +0.
003117:    4235           04243                           TC       DSPABORT                              #  RETURNS IF CADRSTOR = +0.
003118:    4236           00002                           TC       Q
003119:    4237           04243                           TC       DSPABORT
003120:
003121:    4240           11043        ISLIST+0           CCS      DSPLIST                               #  ABORTS (CODE 01206) IF DSPLIST NOT= +0.
003122:    4241           04243                           TC       DSPABORT                              #  RETURNS IF DSPLIST = +0.
003123:    4242           00002                           TC       Q
003124:    4243           05622        DSPABORT           TC       P00DOO
003125:    4244           01206                           OCT      01206
003126:
003127:                                                                                                  #  JAMTERM ALLOWS PROGRAMS TO PERFORM THE TERMINATE FUNCTION.
003128:                                                                                                  #  IT DOES ENDOFJOB.
003129:
003130:    4245           34215        JAMTERM            CAF      PINSUPBT
003131:    4246           00006                           EXTEND
003132:    4247           01007                           WRITE    SUPERBNK
003133:    4250           34256                           CAF      34DEC
003134:    4251           55013                           TS       REQRET                                #  LEAVE ENTER SET FOR ENTPASS0.
003135:    4252           44374                           CS       VD1
003136:    4253           54777                           TS       DSPCOUNT
003137:    4254           04574                           TC       POSTJUMP
003138:    4255           61351                           CADR     VBTERM
003139:
003140:    4256           00042        34DEC              DEC      34         B-14
003141:
003142:                                                                                                  #  JAMPROC ALLOWS PROGRAMS TO PERFORM THE PROCEED/PROCEED WITHOUT DATA
003143:                                                                                                  #  FUNCTION.  IT DOES ENDOFJOB.


003145:
003146:    4257           34215        JAMPROC            CAF      PINSUPBT
003147:    4260           00006                           EXTEND
003148:    4261           01007                           WRITE    SUPERBNK
003149:    4262           34270                           CAF      33DEC
003150:    4263           55013                           TS       REQRET                                #  LEAVE ENTER SET FOR ENTPASS0.
003151:    4264           44374                           CS       VD1
003152:    4265           54777                           TS       DSPCOUNT
003153:    4266           04574                           TC       POSTJUMP
003154:    4267           61343                           CADR     VBPROC
003155:
003156:    4270           00041        33DEC              DEC      33         B-14
003157:
003158:                                                                                                  #  BLANKSUB BLANKS ANY COMBINATION OF R1, R2, R3.
003159:                                                                                                  #  CALL WITH BLANKING CODE IN A.
003160:                                                                                                  #  BIT1=1 BLANKS R1, BIT2=1 BLANKS R2, BIT3=1 BLANKS R3.
003161:                                                                                                  #  ANY COMBINATION OF THESE BITS IS ACCEPTED.
003162:
003163:                                                                                                  #  DSPCOUNT IS RESTORED TO STATE IT WAS IN BEFORE BLANKSUB WAS EXECUTED.
003164:
003165:    4271           74716        BLANKSUB           MASK     SEVEN
003166:    4272           54123                           TS       NVTEMP                                #  STORE BLANKING CODE IN NVTEMP.
003167:    4273           34675                           CAF      BIT14
003168:    4274           71021                           MASK     MONSAVE1                              #  EXTERNAL MONITOR BIT
003169:    4275           61012                           AD       DSPLOCK
003170:    4276           10000                           CCS      A
003171:    4277           00002                           TC       Q                                     #  DSP SYST BLOCKED.  RET TO 1+ CALLING LOC
003172:    4300           24002                           INCR     Q                                     #  DSP SYST AVAILABLE
003173:                                                                                                  #  SET RETURN FOR 2+ CALLING LOC
003174:    4301           10123                           CCS      NVTEMP
003175:    4302           14304                           TCF      +2
003176:    4303           00002                           TC       Q                                     #  NOTHING TO BLANK.  RET TO 2+ CALLING LOC
003177:    4304           22002                           LXCH     Q                                     #  SET RETURN FOR 2 + CALLING LOC
003178:    4305           34316                           CAF      BLNKBBNK
003179:    4306           56006                           XCH      BBANK
003180:    4307           00006                           EXTEND
003181:    4310           04007                           ROR      SUPERBNK                              #  SAVE OLD SUPERBITS.
003182:    4311           52131                           DXCH     BUF
003183:    4312           34215                           CAF      PINSUPBT
003184:    4313           00006                           EXTEND
003185:    4314           01007                           WRITE    SUPERBNK
003186:    4315           03406                           TC       BLNKSUB1
003187:
003188:    4316     0777                                  EBANK=   DSPCOUNT
003189:    4316           60101        BLNKBBNK           BBCON    BLNKSUB1
003190:    4317                        ENDBLFF            EQUALS
003191:
003192: 40,3406                                           SETLOC   ENDRELDS
003193: 40,3406                                           COUNT    40/PIN
003194:


003196: 40,3406           30777        BLNKSUB1           CA       DSPCOUNT                              #  SAVE OLD DSPCOUNT FOR LATER RESTORATION
003197: 40,3407           54132                           TS       BUF        +2
003198: 40,3410           34712                           CAF      BIT1                                  #  TEST BIT1.  SEE IF R1 TO BE BLANKED.
003199: 40,3411           03430                           TC       TESTBIT
003200: 40,3412           34333                           CAF      R1D1
003201: 40,3413           02436                           TC       5BLANK     -1
003202: 40,3414           34711                           CAF      BIT2                                  #  TEST BIT2.  SEE IF R2 TO BE BLANKED.
003203: 40,3415           03430                           TC       TESTBIT
003204: 40,3416           34334                           CAF      R2D1
003205: 40,3417           02436                           TC       5BLANK     -1
003206: 40,3420           34710                           CAF      BIT3                                  #  TEST BIT3.  SEE IF R3 TO BE BLANKED.
003207: 40,3421           03430                           TC       TESTBIT
003208: 40,3422           34335                           CAF      R3D1
003209: 40,3423           02436                           TC       5BLANK     -1
003210: 40,3424           30132                           CA       BUF        +2                         #  RESTORE DSPCOUNT TO STATE IT HAD
003211: 40,3425           54777                           TS       DSPCOUNT                              #        BEFORE BLANKSUB.
003212: 40,3426           52131                           DXCH     BUF                                   #  CALL L+2 DIRECTORY.
003213: 40,3427           05123                           TC       SUPDXCHZ   +1                         #  DTCB WITH SUPERBIT (garbled)
003214:
003215: 40,3430           70123        TESTBIT            MASK     NVTEMP                                #  NVTEMP CONTAINS BLANK(garbled) CODE
003216: 40,3431           10000                           CCS      A
003217: 40,3432           00002                           TC       Q                                     #  IF CURRENT BIT = 1, RETURN TO L+1.
003218: 40,3433           50002                           INDEX    Q                                     #  IF CURRENT BIT = 0, RETURN TO L+3.
003219: 40,3434           00002                           TC       2
003220:
003221: 40,3435                        ENDBSUB1           EQUALS
003222:
003223:                                                                                                  #  DSPMM DOES NOT DISPLAY MODREG DIRECTLY.  IT PUTS IN EXEC REQUEST WITH
003224:                                                                                                  #  PRIO 30000 FOR DSPMMJB AND RETURNS TO CALLER.
003225:
003226:                                                                                                  #  IF MODREG CONTAINS -0, DSPMMJB BLANKS THE MODE LIGHTS.
003227:
003228:                                                                                                  #  DSPMM MUST BE IN BANK 27 OR LOWER, SO IT CAN BE CALLED VIA BANKCALL.
003229:
003230: 07,2440                                           BANK     7
003231: 04,2000                                           SETLOC   PINBALL4
003232: 04,2000                                           BANK
003233:
003234: 04,2537                                           COUNT    07/PIN
003235:
003236: 04,2537           56002        DSPMM              XCH      Q
003237: 04,2540           54154                           TS       MPAC
003238: 04,2541           00004                           INHINT
003239: 04,2542           34371                           CAF      CHRPRIO
003240: 04,2543           05027                           TC       NOVAC
003241: 04,2544     0777                                  EBANK=   DSPCOUNT
003242: 04,2544           03435 60101                     2CADR    DSPMMJB
003243:
003244: 04,2546           00003                           RELINT


003246: 04,2547           00154        ENDSPMM            TC       MPAC
003247:
003248:                                                                                                  #  DSPMM PLACE MAJOR MODE CODE INTO MODREG
003249:
003250: 40,3435                                           SETLOC   ENDBSUB1
003251:
003252: 40,3435                                           COUNT    40/PIN
003253:
003254: 40,3435           34376        DSPMMJB            CAF      MD1                                   #  GETS HERE THRU DSPMM
003255: 40,3436           56777                           XCH      DSPCOUNT
003256: 40,3437           54140                           TS       DSPMMTEM                              #  SAVE DSPCOUNT
003257: 40,3440           11011                           CCS      MODREG
003258: 40,3441           64712                           AD       ONE
003259: 40,3442           03211                           TC       DSPDECVN                              #  IF MODREG IS + OR +0, DISPLAY MODREG
003260: 40,3443           03445                           TC       +2                                    #  IF MODREG IS -NZ, DO NOTHING
003261: 40,3444           02502                           TC       2BLANK                                #  IF MODREG IS -0, BLANK MM
003262: 40,3445           56140                           XCH      DSPMMTEM                              #  RESTORE DSPCOUNT
003263: 40,3446           54777                           TS       DSPCOUNT
003264: 40,3447           05112                           TC       ENDOFJOB
003265:
003266:                                                                                                  #  RECALTST IS ENTERED DIRECTLY AFTER DATA IS LOADED (OR RESEQUENCE VERB IS
003267:                                                                                                  #  EXECUTED), TERMINATE VERB IS EXECUTED, OR PROCEED WITHOUT DATA VERB IS
003268:                                                                                                  #  EXECUTED.  IT WAKES UP JOB THAT DID TC ENDIDLE.
003269:                                                                                                  #
003270:                                                                                                  #  IF CADRSTOR NOT= +0, IT PUTS +0 INTO DSPLOCK, AND TURNS OFF KEY RLSE
003271:                                                                                                  #  LIGHT IF DSPLIST IS EMPTY (LEAVES KEY RLSE LLIGHT ALONE IF NOT EMPTY).
003272:
003273: 40,3450           11042        RECALTST           CCS      CADRSTOR
003274: 40,3451           03453                           TC       RECAL1
003275: 40,3452           05112                           TC       ENDOFJOB                              #  NORMAL EXIT IF KEYBOARD INITIATED
003276: 40,3453           34714        RECAL1             CAF      ZERO
003277: 40,3454           57042                           XCH      CADRSTOR
003278: 40,3455           00004                           INHINT
003279: 40,3456           05074                           TC       JOBWAKE
003280: 40,3457           11014                           CCS      LOADSTAT
003281: 40,3460           03502                           TC       DOPROC                                #  + PROCEED WITHOUT DATA
003282: 40,3461           05112                           TC       ENDOFJOB                              #  PATHELOGICAL CASE EXIT
003283: 40,3462           03500                           TC       DOTERM                                #  - TERMINATE
003284: 40,3463           34711                           CAF      TWO                                   #  -0 DATA IN OR RESEQUENCE
003285: 40,3464           50064        RECAL2             INDEX    LOCCTR
003286: 40,3465           60164                           AD       LOC                                   #  LOC IS + FOR BASIC JOBS
003287: 40,3466           50064                           INDEX    LOCCTR
003288: 40,3467           54164                           TS       LOC
003289: 40,3470           31002                           CA       NOUNREG                               #  SAVE VERB IN MPAC, NOUN IN MPAC+1 AT
003290: 40,3471           54001                           TS       L                                     #  TIME OF RESPONSE TO ENDIDLE FOR
003291: 40,3472           31001                           CA       VERBREG                               #  POSSIBLE LATER TESTING BY JOB THAT HAS
003292: 40,3473           50064                           INDEX    LOCCTR                                #  BEEN WAKED UP.
003293: 40,3474           52155                           DXCH     MPAC
003294: 40,3475           00003                           RELINT


003296: 40,3476           04473        RECAL3             TC       RELDSP
003297: 40,3477           05112                           TC       ENDOFJOB
003298:
003299: 40,3500           34714        DOTERM             CAF      ZERO
003300: 40,3501           03464                           TC       RECAL2
003301: 40,3502           34712        DOPROC             CAF      ONE
003302: 40,3503           03464                           TC       RECAL2


003304:                                                                                                  #  MISCELLANEOUS SERVICE ROUTINES IN FIXED/FIXED
003305:
003306:    4317                                           SETLOC   ENDBLFF
003307:
003308:    4317                                           COUNT    02/PIN
003309:
003310:                                                                                                  #  SETNCADR      E CADR ARRIVES IN A.  IT IS STORED IN NOUNCADR.  EBANK BITS
003311:                                                                                                  #                ARE SET.  E ADRES IS DERIVED AND PUT INTO NOUNADD.
003312:
003313:    4317           55017        SETNCADR           TS       NOUNCADR                              #  STORE ECADR
003314:    4320           54003                           TS       EBANK                                 #  SET EBANK BITS
003315:    4321           74373                           MASK     LOW8
003316:    4322           64744                           AD       OCT1400
003317:    4323           54145                           TS       NOUNADD                               #  PUT E ADRES INTO NOUNADD
003318:    4324           00002                           TC       Q
003319:
003320:                                                                                                  #  SETNADD       GETS E CADR FROM NOUNCADR, SETS EBANK BITS, DERIVES
003321:                                                                                                  #                E ADRES AND PUTS IT INTO NOUNADD.
003322:
003323:    4325           31017        SETNADD            CA       NOUNCADR
003324:    4326           14320                           TCF      SETNCADR   +1
003325:
003326:                                                                                                  #  SETEBANK      E CADR ARRIVES IN A.  EBANK BITS ARE SET.  E ADRES IS
003327:                                                                                                  #                DERIVED AND LEFT IN A.
003328:
003329:    4327           54003        SETEBANK           TS       EBANK                                 #  SET EBANK BITS
003330:    4330           74373                           MASK     LOW8
003331:    4331           64744                           AD       OCT1400                               #  E ADRES LEFT IN A
003332:    4332           00002                           TC       Q
003333:
003334:    4333           00016        R1D1               OCT      16                                    #  THESE 3 CONSTANTS FORM A PACKED TABLE.
003335:    4334           00011        R2D1               OCT      11                                    #  DON'T SEPARATE.
003336:    4335           00004        R3D1               OCT      4
003337:
003338:    4336           54020        RIGHT5             TS       CYR
003339:    4337           40020                           CS       CYR
003340:    4340           40020                           CS       CYR
003341:    4341           40020                           CS       CYR
003342:    4342           40020                           CS       CYR
003343:    4343           56020                           XCH      CYR
003344:    4344           00002                           TC       Q
003345:
003346:    4345           54022        LEFT5              TS       CYL
003347:    4346           40022                           CS       CYL
003348:    4347           40022                           CS       CYL
003349:    4350           40022                           CS       CYL


003351:    4351           40022                           CS       CYL
003352:    4352           56022                           XCH      CYL
003353:    4353           00002                           TC       Q
003354:
003355:    4354           60000        SLEFT5             DOUBLE
003356:    4355           60000                           DOUBLE
003357:    4356           60000                           DOUBLE
003358:    4357           60000                           DOUBLE
003359:    4360           60000                           DOUBLE
003360:    4361           00002                           TC       Q
003361:
003362:    4362           00037        LOW5               OCT      37                                    #  THESE 3 CONSTANTS FORM A PACKED TABLE.
003363:    4363           01740        MID5               OCT      1740                                  #  DON'T SEPARATE.
003364:    4364           76000        HI5                OCT      76000                                 #  MUST STAY HERE
003365:
003366:    4365           05027        TCNOVAC            TC       NOVAC
003367:    4366           05140        TCWAIT             TC       WAITLIST
003368:    4367           05213        TCTSKOVR           TC       TASKOVER
003369:    4370           05042        TCFINDVC           TC       FINDVAC
003370:
003371:    4371           30000        CHRPRIO            OCT      30000                                 #  EXEC PRIORITY OF CHARIN
003372:
003373:    4372           03777        LOW11              OCT      3777
003374:    4373     4372               B12-1              EQUALS   LOW11
003375:    4373           00377        LOW8               OCT      377
003376:
003377:    4374           00023        VD1                OCT      23                                    #  THESE 3 CONSTANTS FORM A PACKED TABLE.
003378:    4375           00021        ND1                OCT      21                                    #  DON'T SEPARATE.
003379:    4376           00025        MD1                OCT      25
003380:
003381:    4377           00012        BINCON             DEC      10         B-14
003382:
003383:    4400           34704        FALTON             CA       BIT7                                  #  TURN ON OPERATOR ERROR LIGHT.
003384:    4401           00006                           EXTEND
003385:    4402           05011                           WOR      DSALMOUT                              #  BIT 7 OF CHANNEL 11
003386:    4403           00002                           TC       Q
003387:
003388:    4404           44704        FALTOF             CS       BIT7                                  #  TURN OFF OPERATOR ERROR LIGHT
003389:    4405           00006                           EXTEND
003390:    4406           03011                           WAND     DSALMOUT                              #  BIT 7 OF CHANNEL 11
003391:    4407           00002                           TC       Q
003392:
003393:    4410           34706        RELDSPON           CAF      BIT5                                  #  TURN ON KEY RELEASE LIGHT
003394:    4411           00006                           EXTEND
003395:    4412           05011                           WOR      DSALMOUT                              #  BIT 5 OF CHANNEL 11
003396:    4413           00002                           TC       Q
003397:


003399:    4414           00006        LODSAMPT           EXTEND
003400:    4415           30025                           DCA      TIME2
003401:    4416           52014                           DXCH     SAMPTIME
003402:    4417           00002                           TC       Q
003403:
003404:    4420           00006        TPSL1              EXTEND                                         #  SHIFTS MPAC, +1, +2 LEFT 1
003405:    4421           30156                           DCA      MPAC       +1                         #  LEAVES OVFIND SET TO +/- 1 FOR OF/UF
003406:    4422           20156                           DAS      MPAC       +1
003407:    4423           60154                           AD       MPAC
003408:    4424           26154                           ADS      MPAC
003409:    4425           54007                           TS       7                                     #  TS A DOES NOT CHANGE A ON OF/UF.
003410:    4426           00002                           TC       Q                                     #  NO NET OF/UF
003411:    4427           54162                           TS       MPAC+6                                #  MPAC +6 SET TO +/- 1 FOR OF/UF
003412:    4430           00002                           TC       Q
003413:
003414:                                                                                                  #  IF MPAC, +1 ARE EACH +NZ OR +0 AND C(A)=-0, SHORTMP WRONGLY GIVES +0.
003415:                                                                                                  #  IF MPAC, +1 ARE EACH -NZ OR -0 AND C(A)=+0, SHORTMP WRONGLY GIVES +0.
003416:                                                                                                  #  PRSHRTMP FIXES FORST CASE ONLY, BY MERELY TESTING C(A) AND IF IT = -0,
003417:                                                                                                  #  SETTING RESULT TO -0.
003418:
003419:                                                                                                  #  (DO NOT USE PRSHRTMP UNLESS MPAC, +1 ARE EACH +NZ OR +0, AS THEY ARE
003420:                                                                                                  #  WHEN THEY CONTAIN THE SF CONSTANTS.)
003421:
003422:    4431           54135        PRSHRTMP           TS       MPTEMP
003423:    4432           10000                           CCS      A
003424:    4433           30135                           CA       MPTEMP                                #  C(A) +, DO REGULAR SHORTMP
003425:    4434           17257                           TCF      SHORTMP    +1                         #  C(A) +0, DO REGULAR SHORTMP
003426:    4435           14433                           TCF      -2                                    #  C(A) -, DO REGULAR SHORTMP
003427:    4436           44714                           CS       ZERO                                  #  C(A) -0, FORCE RESULT TO -0 AND RETURN.
003428:    4437           54154                           TS       MPAC
003429:    4440           54155                           TS       MPAC       +1
003430:    4441           54156                           TS       MPAC       +2
003431:    4442           00002                           TC       Q
003432:
003433:    4443           34705        FLASHON            CAF      BIT6                                  #  TURN ON V/N FLASH
003434:    4444           00006                           EXTEND                                         #  BIT 6 OF CHANNEL 11
003435:    4445           05011                           WOR      DSALMOUT
003436:    4446           00002                           TC       Q
003437:
003438:    4447           44705        FLASHOFF           CS       BIT6                                  #  TURN OFF V/N FLASH
003439:    4450           00006                           EXTEND
003440:    4451           03011                           WAND     DSALMOUT
003441:    4452           00002                           TC       Q
003442:


003444:                                                                                                  #  INTERNAL USE OF KEYBOARD AND DISPLAY PROGRAM.
003445:
003446:                                                                                                  #  USER MUST SCHEDULE CALLS TO NVSUB SO THAT THERE IS NO CONFLICT OF USE OR
003447:                                                                                                  #  CONFUSION TO OPERATOR.  THE OLD CRABLOCK (INTERNAL/INTERNAL INTERLOCK)
003448:                                                                                                  #  HAS BEEN REMOVED AND THE INTERNAL USER NO LONGER HAS THE PROTECTION THIS
003449:                                                                                                  #  OFFERED.
003450:
003451:                                                                                                  #  THERE ARE TWO WAYS A JOB CAN BE PUT TO SLEEP BY TEH KEYBOARD + DISPLAY
003452:                                                                                                  #  PROGRAM.      1)      BY ENDIDLE
003453:                                                                                                  #                2)      BY NVSUBUSY
003454:                                                                                                  #  THE BASIC CONVENTION IS THAT ONLY ONE JOB WILL BE PERITTED ASLEEP VIA
003455:                                                                                                  #  THE KEYBOARD + DISPLAY PROGRAM AT A TIME.  IF A JOB ATTEMPTS TO GO TO
003456:                                                                                                  #  SLEEP BY MEANS OF (1) OR (2) AND THERE IS ALREADY AJOB ASLEEP THAT WAS
003457:                                                                                                  #  PUT TO SLEEP BY (1) OR (2), THEN AN ABORT IS CAUSED.
003458:
003459:                                                                                                  #  THE CALLING SEQUENCE FOR NVSUB IS
003460:                                                                                                  #                        CAF             V/N
003461:                                                                                                  #        L               TC              NVSUB
003462:                                                                                                  #        L+1             RETURN HERE IF OPERATOR HAS INTERVENED
003463:                                                                                                  #        L+2             RETURN HERE AFTER EXECUTION
003464:
003465:                                                                                                  #  A ROUTINE CALLED NVSUBUSY IS PROVIDED (USE IS OPTIONAL) TO PUT
003466:                                                                                                  #  YOUR JOB TO SLEEP UNTIL THE OPERATOR RELEASES THE KEYBOARD + DISPLAY
003467:                                                                                                  #  SYSTEM.  NVSUBUSY ALSO TURNS ON THE KEY RELEASE LIGHT.
003468:                                                                                                  #  NVSUBUSY CANNOT BE CALLED FROM ERASABLE OR F/F MEMORY,
003469:                                                                                                  #  SINCE JOBSLEEP AND JOBWAKE CAN HANDLE ONLY FIXED BANKS.
003470:
003471:                                                                                                  #  THE CALLING SEQUENCE IS
003472:                                                                                                  #        CAF     WAKEFCADR
003473:                                                                                                  #        TC      NVSUBUSY
003474:
003475:                                                                                                  #  NVSUBUSY IS INTENDED FOR USE WHEN AN INTERNAL PROGRAM FINDS THE OPERATOR
003476:                                                                                                  #  IS NOT USING THE KEYBOARD + DISPLAY PROGRAM (BY HIS OWN INITIATION).  IT IS
003477:                                                                                                  #  NOT INTENDED FOR USE WHEN ONE INTERNAL PROGRAM FINDS ANOTHER INTERNAL
003478:                                                                                                  #  PROGRAM USING THE KEYBOARD + DISPLAY PROGRAM.
003479:
003480:                                                                                                  #  NVSUBUSY ABORTS (WITH CODE 01206) IF A SECOND JOB ATTEMPTS TO GO TO
003481:                                                                                                  #  SLEEP IN PINBALL.  IN PARTICULAR, IF AN ATTEMPT IS MAKE TO GO TO NVSUBUSY
003482:                                                                                                  #  WHEN
003483:
003484:                                                                                                  #        1)      DSPLIST NOT= +0.  THIS IS THE CASE WHERE THE CAPACITY FO THE DSPLIST
003485:                                                                                                  #                IS EXCEEDED.
003486:                                                                                                  #        2)      CADRSTOR NOT= +0.  THIS INDICATES THAT A JOB IS ALREADY USING


003488:                                                                                                  #  ENDIDLE.  (+-NZ INDICATES A JOB IS ALREADY ASLEEP DUE TO ENDIDLE.)
003489:
003490:    4453           44460        PRENVBSY           CS       2K+3                                  #  SPECIAL ENTRANCE FOR ROUTINES IN FIXED
003491:    4454           60002                           AD       Q                                     #  BANKS ONLY DESIRING THE FCADR OF (LOC
003492:    4455           60004                           AD       FBANK                                 #  FROM WHICH THE TC PRENVBSY WAS DONE) -2
003493:    4456           04574        NVSUBUSY           TC       POSTJUMP                              #  TO BE ENTERED.
003494:    4457           10550                           CADR     NVSUBSY1
003495:    4460           02003        2K+3               OCT      2003
003496:
003497:                                                                                                  #  NVSUBSY1 MUST BE IN BANK 27 OR LOWER, SO IT WILL PUT CALLER TO SLEEP
003498:                                                                                                  #  WITH HIS PROPER SUPERBITS.
003499:
003500: 04,2550                                           SETLOC   ENDSPMM    +1
003501: 04,2550                                           COUNT    07/PIN
003502:
003503: 04,2550           54001        NVSUBSY1           TS       L
003504: 04,2551           04234                           TC       ISCADR+0                              #  ABORT IF CADRSTOR NOT= +0.
003505: 04,2552           04240                           TC       ISLIST+0                              #  ABORT IF DSPLIST NOT= +0.
003506: 04,2553           04410                           TC       RELDSPON
003507: 04,2554           30001                           CA       L
003508: 04,2555           55043                           TS       DSPLIST
003509: 04,2556           05070        ENDNVBSY           TC       JOBSLEEP
003510:
003511:                                                                                                  #  NVSBWAIT IS A SPECIAL ENTRANCE FOR ROUTINES IN FIXED BANKS ONLY. IF
003512:                                                                                                  #  SYSTEM IS NOT BUSY, IT EXECUTES V/N AND RETURNS TO L+1 (L= LOC FROM
003513:                                                                                                  #  WHICH THE TC NVSBWAIT WAS DONE).  IF SYSTEM IS BUSY, IT PUTS CALLING JOB
003514:                                                                                                  #  TO SLEEP WITH L-1 GOING INTO LIST FOR EVENTUAL WAKING UP WHEN SYSTEM
003515:                                                                                                  #  IS NOT BUSY.
003516:
003517:    4461                                           SETLOC   NVSUBUSY   +3
003518:    4461                                           COUNT    02/PIN
003519:
003520:    4461           22007        NVSBWAIT           LXCH     7                                     #  ZERO NVMONOPT OPTIONS
003521:    4462           54123                           TS       NVTEMP
003522:    4463           34675                           CAF      BIT14
003523:    4464           71021                           MASK     MONSAVE1                              #  EXTERNAL MONITOR BIT
003524:    4465           61012                           AD       DSPLOCK
003525:    4466           10000                           CCS      A
003526:    4467           14471                           TCF      NVSBWT1                               #  BUSY
003527:    4470           14200                           TCF      NVSBCOM                               #  FREE. NVSUB WILL SAVE L+1 FOR RETURN
003528:                                                                                                  #  AFTER EXECUTION.
003529:    4471           24002        NVSBWT1            INCR     Q                                     #  L+2.  PRENVBSY WILL PUT L-1 INTO LIST AND
003530:    4472           14453                           TCF      PRENVBSY                              #  GO TO SLEEP.
003531:
003532:                                                                                                  #  RELDSP IS USED BY VBPROC, VBTERM, VBRQEXEC, VBRQWAIT, VBRELDSP, EXTENDED
003533:                                                                                                  #  VERB DISPATCHER, VBRESEQ, RECALTST.
003534:
003535:                                                                                                  #  RELDSP1 IS USED BY MONITOR SET UP, VBRELDSP.
003536:
003537:    4473           56002        RELDSP             XCH      Q                                     #  SET DSPLOCK TO +0, TURN RELDSP LIGHT


003539:    4474           54144                           TS       RELRET                                #  OFF, SEARCH DSPLIST
003540:    4475           44675                           CS       BIT14
003541:    4476           00004                           INHINT
003542:    4477           71021                           MASK     MONSAVE1
003543:    4500           55021                           TS       MONSAVE1                              #  TURN OFF EXTERNAL MONITOR BIT
003544:    4501           11043                           CCS      DSPLIST
003545:    4502           04504                           TC       +2
003546:    4503           04507                           TC       RELDSP2                               #  LIST EMPTY
003547:    4504           34714                           CAF      ZERO
003548:    4505           57043                           XCH      DSPLIST
003549:    4506           05074                           TC       JOBWAKE
003550:    4507           00003        RELDSP2            RELINT
003551:    4510           44706                           CS       BIT5                                  #  TURN OFF KEY RELEASE LIGHT
003552:    4511           00006                           EXTEND                                         #  (BIT 5 OF CHANNEL 11)
003553:    4512           03011                           WAND     DSALMOUT
003554:    4513           34714                           CAF      ZERO
003555:    4514           55012                           TS       DSPLOCK
003556:    4515           00144                           TC       RELRET
003557:    4516           56002        RELDSP1            XCH      Q                                     #  SET DSPLOCK TO +0.  NO DSPLIST SEARCH.
003558:    4517           54144                           TS       RELRET                                #  TURN KEY RLSE LIGHT OFF IF DSPLIST IS
003559:                                                                                                  #  EMPTY.  LEAVE KEY RLSE LIGHT ALONE IF
003560:                                                                                                  #  DSPLIST IS NOT EMPTY.
003561:    4520           11043                           CCS      DSPLIST
003562:    4521           04523                           TC       +2                                    #  +     NOT EMPTY.  LEAVE KEY RLSE LIGHT ALONE.
003563:    4522           04507                           TC       RELDSP2                               #  +0    EMPTY.  TURN OFF KEY RLSE LIGHT
003564:    4523           34714                           CAF      ZERO                                  #  -     NOT EMPTY.  LEAVE KEY RLSE LIGHT ALONE
003565:    4524           55012                           TS       DSPLOCK
003566:    4525           00144                           TC       RELRET
003567:
003568:    4526                        ENDPINBF           EQUALS
003569:


003571:                                                                                                  #  PINTEST IS NEEDED FOR AUTO CHECK OF PINBALL.
003572:
003573:    4526  43,2002               PINTEST            EQUALS   LST2FAN
003574:


003576:                                                                                                  #  VBTSTLTS TURNS ON ALL DISPLAY PANEL LIGHTS.  AFTER 5 SEC, IT TURNS
003577:                                                                                                  #  OFF THE CAUTION AND STATUS LIGHTS.
003578:
003579: 41,3603                                           SETLOC   ENDNVSB1   +1
003580:
003581: 41,3603                                           COUNT    41/PIN
003582:
003583: 41,3603           00004        VBTSTLTS           INHINT
003584: 41,3604           44712                           CS       BIT1                                  #  SET BIT 1 OF IMODES33 SO IMUMON WON'T
003585: 41,3605           71321                           MASK     IMODES33                              #  TURN OUT ANY LAMPS.
003586: 41,3606           64712                           AD       BIT1
003587: 41,3607           55321                           TS       IMODES33
003588:
003589: 41,3610           33644                           CAF      TSTCON1                               #  TURN ON UPLINK ACTIVITY, TEMP, KEY RLSE,
003590: 41,3611           00006                           EXTEND                                         #  V/N FLASH, OPERATOR ERROR.
003591: 41,3612           05011                           WOR      DSALMOUT
003592: 41,3613           33645                           CAF      TSTCON2                               #  TURN ON NO ATT, GIMBAL LOCK, TRACKER,
003593: 41,3614           55036                           TS       DSPTAB     +11D                       #  PROG ALM.
003594: 41,3615           34701                           CAF      BIT10                                 #  TURN ON TEST ALARM OUTBIT
003595: 41,3616           00006                           EXTEND
003596: 41,3617           05013                           WOR      CHAN13
003597: 41,3620           34377                           CAF      TEN
003598: 41,3621           54117        TSTLTS1            TS       ERCNT
003599: 41,3622           43642                           CS       FULLDSP
003600: 41,3623           50117                           INDEX    ERCNT
003601: 41,3624           55023                           TS       DSPTAB
003602: 41,3625           10117                           CCS      ERCNT
003603: 41,3626           03621                           TC       TSTLTS1
003604: 41,3627           43643                           CS       FULLDSP1
003605: 41,3630           55024                           TS       DSPTAB     +1                         #  TURN ON 3 PLUS SIGNS
003606: 41,3631           55027                           TS       DSPTAB     +4
003607: 41,3632           55031                           TS       DSPTAB     +6
003608: 41,3633           34717                           CAF      ELEVEN
003609: 41,3634           55016                           TS       NOUT
003610: 41,3635           33647                           CAF      SHOLTS
003611: 41,3636           05140                           TC       WAITLIST
003612: 41,3637     1023                                  EBANK=   DSPTAB
003613: 41,3637           03650 62102                     2CADR    TSTLTS2
003614:
003615: 41,3641           05112                           TC       ENDOFJOB                              #  DSPLOCK IS LEFT BUSY (FROM KEYBOARD
003616:                                                                                                  #  ACTION) UNTIL TSTLTS3 TO INSURE THAT
003617:                                                                                                  #  LIGHTS TEST WILL BE SEEN.
003618:
003619: 41,3642           05675        FULLDSP            OCT      05675                                 #  DISPLAY ALL 8'S
003620: 41,3643           07675        FULLDSP1           OCT      07675                                 #  DISPLAY ALL 8'S AND +
003621:
003622: 41,3644           00175        TSTCON1            OCT      00175
003623:                                                                                                  #  UPLINK ACTIVITY, TEMP, KEY RLSE,
003624:                                                                                                  #  V/N FLASH, OPERATOR ERROR.
003625: 41,3645           40650        TSTCON2            OCT      40650                                 #  DSPTAB+11D BITS 3,4,5,6,8,9 LR LITES,


003627:                                                                                                  #  NO ATT, GIMBAL LOCK, TRACKER, PROG ALM.
003628: 41,3646           00115        TSTCON3            OCT      0115                                  #  CHAN 11 BITS 1,3, 4, 7.
003629:                                                                                                  #  UPLINK ACITIVY, TEMP, OPERATOR ERROR.
003630: 41,3647           00764        SHOLTS             OCT      764                                   #  5 SEC
003631:
003632: 41,3650           34371        TSTLTS2            CAF      CHRPRIO                               #  CALLED BY WAITLIST
003633: 41,3651           05027                           TC       NOVAC
003634: 41,3652     1023                                  EBANK=   DSPTAB
003635: 41,3652           03655 62102                     2CADR    TSTLTS3
003636:
003637: 41,3654           05213                           TC       TASKOVER
003638:
003639: 41,3655           43646        TSTLTS3            CS       TSTCON3                               #  CALLED BY EXECUTIVE
003640: 41,3656           00004                           INHINT
003641: 41,3657           00006                           EXTEND                                         #  TURN OFF UPLINK ACTIVITY, TEMP,
003642: 41,3660           03011                           WAND     DSALMOUT                              #  OPERATOR ERROR.
003643: 41,3661           44701                           CS       BIT10                                 #  TURN OFF TEST ALARM OUTBIT
003644: 41,3662           00006                           EXTEND
003645: 41,3663           03013                           WAND     CHAN13
003646: 41,3664           34707                           CAF      BIT4                                  #  MAKE NO ATT FOLLOW BIT 4 OF CHANNEL 12
003647: 41,3665           00006                           EXTEND                                         #        (NO TT LIGHT ON IF IN COARSE ALIGN)
003648: 41,3666           02012                           RAND     CHAN12
003649: 41,3667           64674                           AD       BIT15                                 #  TURN OFF AUTO, HOLD, FREE, SPARE,
003650: 41,3670           55036                           TS       DSPTAB     +11D                       #  GIMBAL LOCK, SPARE, TRACKER, PROG ALM
003651: 41,3671           43713                           CS       13-11,1                               #  SET BITS TO INDICATE ALL LAMPS OUT. TEST
003652: 41,3672           71321                           MASK     IMODES33                              #  LIGHTS COMPLETE.
003653: 41,3673           64763                           AD       PRIO16
003654: 41,3674           55321                           TS       IMODES33
003655:
003656: 41,3675           43714                           CS       OCT55000
003657: 41,3676           71320                           MASK     IMODES30
003658: 41,3677           64762                           AD       PRIO15                                #  15000.
003659: 41,3700           55320                           TS       IMODES30
003660:
003661: 41,3701           41331                           CS       OPTMODES
003662: 41,3702           74704                           MASK     BIT7
003663: 41,3703           27331                           ADS      OPTMODES
003664:
003665: 41,3704           00003                           RELINT
003666:
003667: 41,3705           04555                           TC       BANKCALL                              #  REDISPLAY C(MODREG)
003668: 41,3706           10537                           CADR     DSPMM
003669: 41,3707           04220                           TC       KILMONON                              #  TURN ON KILL MONITOR BIT.
003670: 41,3710           04447                           TC       FLASHOFF                              #  TURN OFF V/N FLASH.
003671: 41,3711           04574                           TC       POSTJUMP                              #  DOES RELDSP AND GOES TO PINBRNCH IF
003672: 41,3712           61372                           CADR     TSTLTS4                               #  ENDIDLE IS AWAITING OPERATOR RESPONSE.
003673: 41,3713           16001        13-11,1            OCT      16001
003674: 41,3714           55000        OCT55000           OCT      55000
003675: 41,3715                        ENDPINS2           EQUALS
003676:


003678:                                                                                                  #  ERROR LIGHT RESET (RSET) TURNS OFF:
003679:                                                                                                  #  UPLINK ACTIVITY, AUTO, HOLD, FREE, OPERATOR ERROR,
003680:                                                                                                  #  PROG ALM, TRACKER FAIL.
003681:
003682:                                                                                                  #  LEAVES GIMBAL LOCK AND NO ATT ALONE.
003683:                                                                                                  #
003684:                                                                                                  #  IT ALSO ZEROS THE `TEST ALARM' OUT BIT, WHICH TURNS OFF STBY, RESTART.
003685:                                                                                                  #  IT ALSO SETS `CAUTION RESET' TO 1.
003686:                                                                                                  #  IT ALSO FORCES BIT 12 OF ALL DSPTAB ENTRIES TO 1.
003687:
003688: 40,3504                                           SETLOC   DOPROC     +2
003689: 40,3504                                           COUNT    40/PIN
003690:
003691: 40,3504           56115        ERROR              XCH      21/22REG                              #  RESTORE ORIGINAL C(DSPLOCK).  THUS ERROR
003692: 40,3505           55012                           TS       DSPLOCK                               #  LIGHT RESET LEAVES DSPLOCK CHANGED.
003693: 40,3506           00004                           INHINT
003694: 40,3507           34701                           CAF      BIT10                                 #  TURN ON `CAUTION RESET' OUTBIT
003695: 40,3510           00006                           EXTEND
003696: 40,3511           05011                           WOR      DSALMOUT                              #  BIT10 CHAN 11
003697: 40,3512           33572                           CAF      GL+NOATT                              #  LEAVE GIMBAL LOCK AND NO ATT INTACT,
003698: 40,3513           71036                           MASK     DSPTAB     +11D                       #  TURNING OFF AUTO, HOLD, FREE,
003699: 40,3514           64674                           AD       BIT15                                 #  PROG ALARM, AND TRACKER.
003700: 40,3515           55036                           TS       DSPTAB     +11D
003701: 40,3516           44763                           CS       PRIO16                                #  RESET FAIL BITS WHICH GENERATE PROG
003702: 40,3517           71321                           MASK     IMODES33                              #  ALARM SO THAT IF THE FAILURE STILL
003703: 40,3520           64763                           AD       PRIO16                                #  EXISTS, THE ALARM WILL COME BACK.
003704: 40,3521           55321                           TS       IMODES33
003705: 40,3522           44701                           CS       BIT10
003706: 40,3523           71320                           MASK     IMODES30
003707: 40,3524           64701                           AD       BIT10
003708: 40,3525           55320                           TS       IMODES30
003709:
003710: 40,3526           41331                           CS       OPTMODES
003711: 40,3527           74704                           MASK     BIT7
003712: 40,3530           27331                           ADS      OPTMODES
003713: 40,3531           44701                           CS       BIT10                                 #  TURN OFF 'TEST ALARM' OUTBIT
003714:
003715: 40,3532           00006                           EXTEND
003716: 40,3533           03013                           WAND     CHAN13
003717: 40,3534           43570                           CS       ERCON                                 #  TURN OFF UPLINK ACTIVITY,
003718: 40,3535           00006                           EXTEND                                         #  OPERATOR ERROR.
003719: 40,3536           03011                           WAND     DSALMOUT
003720: 40,3537           34377        TSTAB              CAF      BINCON                                #  (DEC 10)
003721: 40,3540           54117                           TS       ERCNT                                 #  ERCNT = COUNT
003722: 40,3541           00004                           INHINT
003723: 40,3542           50117                           INDEX    ERCNT
003724: 40,3543           11023                           CCS      DSPTAB
003725: 40,3544           64712                           AD       ONE
003726: 40,3545           03552                           TC       ERPLUS
003727: 40,3546           64712                           AD       ONE
003728: 40,3547           40000        ERMINUS            CS       A
003729: 40,3550           73573                           MASK     NOTBIT12
003730: 40,3551           03555                           TC       ERCOM


003732: 40,3552           40000        ERPLUS             CS       A
003733: 40,3553           73573                           MASK     NOTBIT12
003734: 40,3554           40000                           CS       A                                     #  MIGHT WANT TO RESET CLPASS, DECBRNCH,
003735: 40,3555           50117        ERCOM              INDEX    ERCNT                                 #  ETC.
003736: 40,3556           55023                           TS       DSPTAB
003737: 40,3557           00003                           RELINT
003738: 40,3560           10117                           CCS      ERCNT
003739: 40,3561           03540                           TC       TSTAB      +1
003740: 40,3562           34714                           CAF      ZERO
003741: 40,3563           54375                           TS       FAILREG
003742: 40,3564           54376                           TS       FAILREG    +1
003743: 40,3565           54377                           TS       FAILREG    +2
003744: 40,3566           55357                           TS       SFAIL
003745: 40,3567           05112                           TC       ENDOFJOB
003746:
003747: 40,3570           00104        ERCON              OCT      104                                   #  CHAN 11 BITS 3,7.
003748:                                                                                                  #  UPLINK ACTIVITY, AND OPERATOR ERROR.
003749: 40,3571           00240        BITS6,8            OCT      240
003750: 40,3572           00050        GL+NOATT           OCT      00050                                 #  NO ATT AND GIMBAL LOCK LAMPS
003751: 40,3573           73777        NOTBIT12           OCT      73777
003752:
003753: 40,3574                        ENDPINS1           EQUALS
003754:

End of include-file PINBALL_GAME_BUTTONS_AND_LIGHTS.agc.  Parent file is MAIN.agc


