
Source Code


000002:                                                                                                  ## Copyright:   Public domain.
000003:                                                                                                  ## Filename:    PLANETARY_INERTIAL_ORIENTATION.agc
000004:                                                                                                  ## Purpose:     Part of the source code for Colossus, build 249.
000005:                                                                                                  ##              It is part of the source code for the Command Module's (CM)
000006:                                                                                                  ##              Apollo Guidance Computer (AGC), possibly for Apollo 8 and 9.
000007:                                                                                                  ## Assembler:   yaYUL
000008:                                                                                                  ## Reference:   Starts on p. 1225 of 1701.pdf.
000009:                                                                                                  ## Contact:     Ron Burkey <info@sandroid.org>.
000010:                                                                                                  ## Website:     www.ibiblio.org/apollo.
000011:                                                                                                  ## Mod history: 08/28/04 RSB.   Adapted from corresponding Luminary131 file.
000012:                                                                                                  ##
000013:                                                                                                  ## The contents of the "Colossus249" files, in general, are transcribed
000014:                                                                                                  ## from a scanned document obtained from MIT's website,
000015:                                                                                                  ## http://hrst.mit.edu/hrs/apollo/public/archive/1701.pdf.  Notations on this
000016:                                                                                                  ## document read, in part:
000017:                                                                                                  ##
000018:                                                                                                  ##      Assemble revision 249 of AGC program Colossus by NASA
000019:                                                                                                  ##      2021111-041.  October 28, 1968.
000020:                                                                                                  ##
000021:                                                                                                  ##      This AGC program shall also be referred to as
000022:                                                                                                  ##                              Colossus 1A
000023:                                                                                                  ##
000024:                                                                                                  ##      Prepared by
000025:                                                                                                  ##                      Massachusetts Institute of Technology
000026:                                                                                                  ##                      75 Cambridge Parkway
000027:                                                                                                  ##                      Cambridge, Massachusetts
000028:                                                                                                  ##      under NASA contract NAS 9-4065.
000029:                                                                                                  ##
000030:                                                                                                  ## Refer directly to the online document mentioned above for further information.
000031:                                                                                                  ## Please report any errors (relative to 1701.pdf) to info@sandroid.org.
000032:                                                                                                  ##
000033:                                                                                                  ## In some cases, where the source code for Luminary 131 overlaps that of
000034:                                                                                                  ## Colossus 249, this code is instead copied from the corresponding Luminary 131
000035:                                                                                                  ## source file, and then is proofed to incorporate any changes.
000036:


000038:                                                                                                  #  PLANETARY INERTIAL ORIENTATION
000039:
000040:                                                                                                  #  ***** RP-TO-R SUBROUTINE *****
000041:                                                                                                  #  SUBROUTINE TO CONVERT RP (VECTOR IN PLANETARY COORDINATE SYSTEM, EITHER
000042:                                                                                                  #  EARTH-FIXED OR MOON-FIXED) TO R (SAME VECTOR IN BASIC REF. SYSTEM)
000043:                                                                                                  #        R = MT(T) * (RP + LP X RP)      MT = M MATRIX TRANSPOSE
000044:
000045:                                                                                                  #  CALLING SEQUENCE
000046:                                                                                                  #        L       CALL
000047:                                                                                                  #        L+1             RP-TO-R
000048:
000049:                                                                                                  #  SUBROUTINES USED
000050:                                                                                                  #        EARTHMX, MOONMX, EARTHL
000051:
000052:                                                                                                  #        ITEMS AVAILABLE FROM LAUNCH DATA
000053:                                                                                                  #                504M = THE LIBRATION VECTOR L OF THE MOON AT TIME TIMSUBL, EXPRESSED
000054:                                                                                                  #                IN THE MOON-FIXED COORD. SYSTEM         RADIANS B0
000055:
000056:                                                                                                  #        ITEMS NECESSARY FOR SUBR. USED (SEE DESCRIPTION OF SUBR.)
000057:
000058:                                                                                                  #  INPUT
000059:                                                                                                  #        MPAC = 0 FOR EARTH, NON-ZERO FOR MOON
000060:                                                                                                  #        0-5D = RP VECTOR
000061:                                                                                                  #        6-7D = TIME
000062:
000063:                                                                                                  #  OUTPUT
000064:                                                                                                  #        MPAC = R VECTOR METERS B-29 FOR EARTH, B-27 FOR MOON
000065:
000066: 26,2000                                           SETLOC   PLANTIN
000067: 26,2000                                           BANK
000068:
000069: 26,3341                                           COUNT*   $$/LUROT
000070:
000071: 26,3341           46020        RP-TO-R            STQ      BHIZ
000072: 26,3342           00050                                    RPREXIT
000073: 26,3343           55356                                    RPTORA
000074: 26,3344           77624                           CALL                                           #  COMPUTE M MATRIX FOR MOON
000075: 26,3345           55416                                    MOONMX                                #  LP=LM FOR MOON        RADIANS B0
000076: 26,3346           77775                           VLOAD
000077: 26,3347           02012                                    504LM
000078: 26,3350           53235        RPTORB             VXV      VAD
000079: 26,3351           00001                                    504RPR
000080: 26,3352           00001                                    504RPR
000081: 26,3353           52105                           VXM      GOTO
000082: 26,3354           00025                                    MMATRIX                               #  MPAC=R=MT(T)*(RP+LPXRP)
000083: 26,3355           55404                                    RPRPXXXX                              #  RESET PUSHLOC TO 0 BEFORE EXITING
000084: 26,3356           77624        RPTORA             CALL                                           #  EARTH COMPUTATIONS
000085: 26,3357           55570                                    EARTHMX                               #  M MATRIX B-1
000086: 26,3360           77624                           CALL
000087: 26,3361           55622                                    EARTHL                                #  L VECTOR RADIANS B0
000088: 26,3362           76521                           MXV      VSL1                                  #  LP=M(T)*L     RAD B-0
000089: 26,3363           00025                                    MMATRIX


000091: 26,3364           77650                           GOTO
000092: 26,3365           55350                                    RPTORB
000093:


000095:                                                                                                  #  ***** R-TO-RP SUBROUTINE *****
000096:                                                                                                  #  SUBROUTINE TO CONVERT R (VECTOR IN REFERENCE COORD. SYSTEM) TO RP
000097:                                                                                                  #  (VECTOR IN PLANETARY COORD SYSTEM) EITHER EARTH-FIXED OR MOON-FIXED
000098:                                                                                                  #        RP = M(T) * (R - L X R)
000099:
000100:                                                                                                  #  CALLING SEQUENCE
000101:                                                                                                  #        L       CALL
000102:                                                                                                  #        L+1             R-TO-RP
000103:
000104:                                                                                                  #  SUBROUTINES USED
000105:                                                                                                  #        EARTHMX, MOONMX, EARTHL
000106:
000107:                                                                                                  #  INPUT
000108:                                                                                                  #        MPAC = 0 FOR EARTH, NON-ZERO FOR MOON
000109:                                                                                                  #        0-5D = R VECTOR
000110:                                                                                                  #        6-7D = TIME
000111:
000112:                                                                                                  #        ITEMS AVAILABLE FROM LAUNCH DATA
000113:                                                                                                  #                504LM = THE LIBRATION VECTOR L OF THE MOON AT TIME TIMSUBL, EXPRESSED
000114:                                                                                                  #                IN THE MOON-FIXED COORD. SYSTEM                 RADIANS B0
000115:
000116:                                                                                                  #        ITEMS NECESSARY FOR SUBROUTINES USED (SEE DESCRIPTION OF SUBR.)
000117:
000118:                                                                                                  #  OUTPUT
000119:                                                                                                  #        MPAC = RP VECTOR METERS B-29 FOR EARTH, B-27 FOR MOON
000120:
000121: 26,3366           46020        R-TO-RP            STQ      BHIZ
000122: 26,3367           00050                                    RPREXIT
000123: 26,3370           55410                                    RTORPA
000124: 26,3371           77624                           CALL
000125: 26,3372           55416                                    MOONMX
000126: 26,3373           61375                           VLOAD    VXM
000127: 26,3374           02012                                    504LM                                 #  LP=LM
000128: 26,3375           00025                                    MMATRIX
000129: 26,3376           77772                           VSL1                                           #  L = MT(T)*LP          RADIANS B0
000130: 26,3377           51235        RTORPB             VXV      BVSU
000131: 26,3400           00001                                    504RPR
000132: 26,3401           00001                                    504RPR
000133: 26,3402           77721                           MXV                                            #  M(T)*(R-LXR)          B-2
000134: 26,3403           00025                                    MMATRIX
000135: 26,3404           40372        RPRPXXXX           VSL1     SETPD
000136: 26,3405           00001                                    0D
000137: 26,3406           77650                           GOTO
000138: 26,3407           00050                                    RPREXIT
000139: 26,3410           77624        RTORPA             CALL                                           #  EARTH COMPUTATIONS
000140: 26,3411           55570                                    EARTHMX
000141: 26,3412           77624                           CALL
000142: 26,3413           55622                                    EARTHL
000143: 26,3414           77650                           GOTO                                           #  MPAC=L=(-AX,-AY,0)    RAD B-0
000144: 26,3415           55377                                    RTORPB
000145:


000147:                                                                                                  #  ***** MOONMX SUBROUTINE *****
000148:                                                                                                  #  SUBROUTINE TO COMPUTE THE TRANSFORMATION MATRIX M FOR THE MOON
000149:
000150:                                                                                                  #  CALLING SEQUENCE
000151:                                                                                                  #        L       CALL
000152:                                                                                                  #        L+1             MOONMX
000153:
000154:                                                                                                  #  SUBROUTINES USED
000155:                                                                                                  #        NEWANGLE
000156:
000157:                                                                                                  #  INPUT
000158:                                                                                                  #        6-7D = TIME
000159:
000160:                                                                                                  #        ITEMS AVAILABLE FROM LAUNCH DATA
000161:                                                                                                  #                BSUBO, BDOT
000162:                                                                                                  #                TIMSUBO, NODIO, NODDOT, FSUBO, FDOT
000163:                                                                                                  #                COSI = COS(I)   B-1
000164:                                                                                                  #                SINI = SIN(I)   B-1
000165:                                                                                                  #                I IS THE ANGLE BETWEEN THE MEAN LUNAR EQUATORIAL PLANE AND THE
000166:                                                                                                  #                PLANE OF THE ECLIPTIC (1 DEGREE 32.1 MINUTES)
000167:
000168:                                                                                                  #  OUTPUT
000169:                                                                                                  #        MMATRIX = 3X3 M MATRIX          B-1 (STORED IN VAC AREA)
000170:
000171: 26,3416           40220        MOONMX             STQ      SETPD
000172: 26,3417           00051                                    EARTHMXX
000173: 26,3420           00011                                    8D
000174: 26,3421           77770                           AXT,1                                          #  B REQUIRES SL 0, SL 5 IN NEWANGLE
000175: 26,3422           00005                                    5
000176: 26,3423           65345                           DLOAD    PDDL                                  #  PD 10D        8-9D=BSUBO
000177: 26,3424           15652                                    BSUBO                                 #                10-11D=BDOT
000178: 26,3425           15644                                    BDOT
000179: 26,3426           45006                           PUSH     CALL                                  #  PD 12D
000180: 26,3427           55543                                    NEWANGLE                              #  EXIT WITH PD 8D AND MPAC= B   REVS B0
000181: 26,3430           71406                           PUSH     COS                                   #  PD 10D
000182: 26,3431           14041                           STODL    COB                                   #  PD 8D         COS(B) B-1
000183: 26,3432           77756                           SIN                                            #                SIN(B) B-1
000184: 26,3433           14043                           STODL    SOB                                   #  SETUP INPUT FOR NEWANGLE
000185: 26,3434           15650                                    FSUBO                                 #                        8-9D=FSUBO
000186: 26,3435           41525                           PDDL     PUSH                                  #  PD 10D THEN 12D       10-11D=FDOT
000187: 26,3436           15642                                    FDOT
000188: 26,3437           45170                           AXT,1    CALL                                  #  F REQUIRES SL 1, SL 6 IN NEWANGLE.
000189: 26,3440           00004                                    4
000190: 26,3441           55543                                    NEWANGLE                              #  EXIT WITH PD 8D AND MPAC= F REVS B0
000191: 26,3442           14027                           STODL    AVECTR     +2                         #  SAVE F TEMP
000192: 26,3443           15646                                    NODIO                                 #                        8-9D=NODIO
000193: 26,3444           41525                           PDDL     PUSH                                  #  PD 10D THEN 12D       10-11D=NODDOT
000194: 26,3445           15640                                    NODDOT                                #                        MPAC=5
000195: 26,3446           45170                           AXT,1    CALL                                  #  NODE REQUIRES SL 0, SL 5 IN NEWANGLE
000196: 26,3447           00005                                    5
000197: 26,3450           55543                                    NEWANGLE                              #  EXIT WITH PD 8D AND MPAC= NODI REVS B0


000199: 26,3451           71406                           PUSH     COS                                   #  PD 10D        8-9D= NODI REVS B0
000200: 26,3452           77606                           PUSH                                           #  PD 12D        10-11D= COS(NODI) B-1
000201: 26,3453           00025                           STORE    AVECTR
000202: 26,3454           76405                           DMP      SL1R
000203: 26,3455           00041                                    COB                                   #                        COS(NODI) B-1
000204: 26,3456           14035                           STODL    BVECTR     +2                         #  PD 10D  20-25D=AVECTR=COB*SIN(NODI)
000205: 26,3457           76405                           DMP      SL1R                                  #                        SOB*SIN(NODI)
000206: 26,3460           00043                                    SOB
000207: 26,3461           14037                           STODL    BVECTR     +4                         #  PD 8D
000208: 26,3462           41556                           SIN      PUSH                                  #                        -SIN(NODI) B-1
000209: 26,3463           77676                           DCOMP                                          #          26-31D=BVECTR=COB*COS(NODI)
000210: 26,3464           14033                           STODL    BVECTR                                #  PD 8D                 SOB*COS(NODI)
000211: 26,3465           00027                                    AVECTR     +2
000212: 26,3466           14007                           STODL    504F
000213: 26,3467           76405                           DMP      SL1R
000214: 26,3470           00041                                    COB
000215: 26,3471           14027                           STODL    AVECTR     +2
000216: 26,3472           00011                                    SINNODI                               #  8-9D=SIN(NODI) B-1
000217: 26,3473           76405                           DMP      SL1R
000218: 26,3474           00043                                    SOB
000219: 26,3475           14031                           STODL    AVECTR     +4                         #                        0
000220: 26,3476           15332                                    HI6ZEROS                              #        8-13D= CVECTR=  -SOB B-1
000221: 26,3477           57525                           PDDL     DCOMP                                 #  PD 10D                COB
000222: 26,3500           00043                                    SOB
000223: 26,3501           63325                           PDDL     PDVL                                  #  PD 12D THEN PD 14D
000224: 26,3502           00041                                    COB
000225: 26,3503           00033                                    BVECTR
000226: 26,3504           63361                           VXSC     PDVL                                  #  PD 20D        BVECTR*SINI B-2
000227: 26,3505           15636                                    SINI
000228: 26,3506           00011                                    CVECTR
000229: 26,3507           53361                           VXSC     VAD                                   #  PD 14D        CVECTR*COSI B-2
000230: 26,3510           15634                                    COSI
000231: 26,3511           77772                           VSL1
000232: 26,3512           24041                           STOVL    MMATRIX    +12D                       #  PD 8D  M2=BVECTR*SINI+CVECTR*COSI B-1
000233: 26,3513           63361                           VXSC     PDVL                                  #  PD 14D
000234: 26,3514           15636                                    SINI                                  #                CVECTR*SINI B-2
000235: 26,3515           00033                                    BVECTR
000236: 26,3516           52361                           VXSC     VSU                                   #  PD 8D         BVECTR*COSI B-2
000237: 26,3517           15634                                    COSI
000238: 26,3520           65372                           VSL1     PDDL                                  #  PD 14D
000239: 26,3521           00007                                    504F                                  #  8-13D=DVECTR=BVECTR*COSI-CVECTR*SINI B-1
000240: 26,3522           74346                           COS      VXSC
000241: 26,3523           00011                                    DVECTR
000242: 26,3524           73525                           PDDL     SIN                                   #  PD 20D  14-19D= DVECTR*COSF B-2
000243: 26,3525           00007                                    504F
000244: 26,3526           52361                           VXSC     VSU                                   #  PD 14D        AVECTR*SINF B-2
000245: 26,3527           00025                                    AVECTR
000246: 26,3530           77772                           VSL1
000247: 26,3531           14033                           STODL    MMATRIX    +6                         #  M1= AVECTR*SINF-DVECTR*COSF B-1
000248: 26,3532           00007                                    504F


000250: 26,3533           74356                           SIN      VXSC                                  #  PD 8D
000251: 26,3534           71525                           PDDL     COS                                   #  PD 14D  8-13D=DVECTR*SINF B-2
000252: 26,3535           00007                                    504F
000253: 26,3536           53361                           VXSC     VAD                                   #  PD 8D         AVECTR*COSF B-2
000254: 26,3537           00025                                    AVECTR
000255: 26,3540           57572                           VSL1     VCOMP
000256: 26,3541           34025                           STCALL   MMATRIX                               #  M0= -(AVECTR*COSF+DVECTR*SINF) B-1
000257: 26,3542           00051                                    EARTHMXX
000258:
000259:                                                                                                  #  COMPUTE X=X0+(XDOT)(T+T0)
000260:                                                                                                  #  8-9D= X0 (REVS B-0), PUSHLOC SET AT 12D
000261:                                                                                                  #  10-11D=XDOT (REVS/CSEC) SCALED B+23 FOR WEARTH,B+28 FOR NODDOT AND BDOT
000262:                                                                                                  #                        AND B+27 FOR FDOT
000263:                                                                                                  #  X1=DIFFERENCE IN 23 AND SCALING OF XDOT, =0 FOR WEARTH, 5 FOR NDDOT AND
000264:                                                                                                  #                                        BDOT AND 4 FOR FDOT
000265:                                                                                                  #  6-7D=T (CSEC B-28), TIMSUBO= (CSEC B-42 TRIPLE PREC.)
000266:
000267: 26,3543           54345        NEWANGLE           DLOAD    SR                                    #  ENTER PD 12D
000268: 26,3544           00007                                    6D
000269: 26,3545           20617                                    14D
000270: 26,3546           72371                           TAD      TLOAD                                 #  CHANGE MODE TO TP
000271: 26,3547           01707                                    TIMSUBO
000272: 26,3550           00155                                    MPAC
000273: 26,3551           14017                           STODL    TIMSUBM                               #  T+T0 CSEC B-42
000274: 26,3552           00020                                    TIMSUBM    +1
000275: 26,3553           77605                           DMP                                            #  PD 10D        MULT BY XDOT IN 10-11D
000276: 26,3554           43257                           SL*      DAD                                   #  PD 8D         ADD X0 IN 8-9D AFTER SHIFTING
000277: 26,3555           20206                                    5,1                                   #                SUCH THAT SCALING IS B-0
000278: 26,3556           67206                           PUSH     SLOAD                                 #  PD 10D  SAVE PARTIAL (X0+XDOT*T) IN 8-9D
000279: 26,3557           00017                                    TIMSUBM
000280: 26,3560           41261                           SL       DMP
000281: 26,3561           20212                                    9D
000282: 26,3562           00013                                    10D                                   #  XDOT
000283: 26,3563           43257                           SL*      DAD                                   #  PD 8D         SHIFT SUCH THAT THIS PART OF X
000284: 26,3564           20213                                    10D,1                                 #                IS SCALED REVS/CSEC B-0
000285: 26,3565           77600                           BOV                                            #  TURN OFF OVERFLOW IF SET BY SHIFT
000286: 26,3566           55567                                    +1                                    #  INSTRUCTION BEFORE EXITING.
000287: 26,3567           77616                           RVQ                                            #  MPAC=X= X0+(XDOT)(T+T0)       REVS B0
000288:


000290:                                                                                                  #  ***** EARTHMX SUBROUTINE *****
000291:                                                                                                  #  SUBROUTINE TO COMPUTE THE TRANSFORMATION MATRIX M FOR THE EARTH
000292:
000293:                                                                                                  #  CALLING SEQUENCE
000294:                                                                                                  #        L       CALL
000295:                                                                                                  #        L+1             EARTHMX
000296:
000297:                                                                                                  #  SUBROUTINE USED
000298:                                                                                                  #        NEWANGLE
000299:
000300:                                                                                                  #  INPUT
000301:                                                                                                  #        INPUT AVAILABLE FROM LAUNCH DATA        AZC REVS B-0
000302:                                                                                                  #                                                TEPHEM CSEC B-42
000303:                                                                                                  #        6-7D= TIME CSEC B-28
000304:
000305:                                                                                                  #  OUTPUT
000306:                                                                                                  #        MMATRIX= 3X3 M MATRIX B-1 (STORED IN VAC AREA)
000307:
000308: 26,3570           40220        EARTHMX            STQ      SETPD                                 #  SET 8-9D=AZO
000309: 26,3571           00051                                    EARTHMXX
000310: 26,3572           00011                                    8D                                    #  10-11D=WEARTH
000311: 26,3573           77770                           AXT,1                                          #  FOR SL 5, AND SL 10 IN NEWANGLE
000312: 26,3574           00000                                    0
000313: 26,3575           65345                           DLOAD    PDDL                                  #  LEAVING PD SET AT 12D FOR NEWANGLE
000314: 26,3576           01712                                    AZO
000315: 26,3577           15654                                    WEARTH
000316: 26,3600           45006                           PUSH     CALL
000317: 26,3601           55543                                    NEWANGLE
000318: 26,3602           41401                           SETPD    PUSH                                  #  18-19D=504AZ
000319: 26,3603           00023                                    18D                                   #                         COS(AZ)   SIN(AZ)     0
000320: 26,3604           65346                           COS      PDDL                                  #  20-37D=  MMATRIX=     -SIN(AZ)   COS(AZ)     0    B-1
000321: 26,3605           00023                                    504AZ                                 #                            0         0        1
000322: 26,3606           65356                           SIN      PDDL
000323: 26,3607           15332                                    HI6ZEROS
000324: 26,3610           73525                           PDDL     SIN
000325: 26,3611           00023                                    504AZ
000326: 26,3612           65276                           DCOMP    PDDL
000327: 26,3613           00023                                    504AZ
000328: 26,3614           63346                           COS      PDVL
000329: 26,3615           15332                                    HI6ZEROS
000330: 26,3616           41525                           PDDL     PUSH
000331: 26,3617           15330                                    HIDPHALF
000332: 26,3620           77650                           GOTO
000333: 26,3621           00051                                    EARTHMXX
000334:


000336:                                                                                                  #  ***** EARTH SUBROUTINE *****
000337:                                                                                                  #  SUBROUTINE TO COMPUTE L VECTOR FOR EARTH
000338:
000339:                                                                                                  #  CALLING SEQUENCE
000340:                                                                                                  #        L       CALL
000341:                                                                                                  #        L+1             EARTHL
000342:
000343:                                                                                                  #  INPUT
000344:                                                                                                  #        AXO,AYO SET AT LAUNCH TIME WITH AYO IMMEDIATELY FOLLOWING AXO IN CORE
000345:
000346:                                                                                                  #  OUTPUT
000347:                                                                                                  #                -AX
000348:                                                                                                  #        MPAC=   -AY     RADIANS B-0
000349:                                                                                                  #                  0
000350:
000351: 26,3622           57545        EARTHL             DLOAD    DCOMP
000352: 26,3623           01716                                    AXO
000353: 26,3624           14017                           STODL    504LPL
000354: 26,3625           01714                                    -AYO
000355: 26,3626           14021                           STODL    504LPL     +2
000356: 26,3627           15332                                    HI6ZEROS
000357: 26,3630           24023                           STOVL    504LPL     +4
000358: 26,3631           00017                                    504LPL
000359: 26,3632           77616                           RVQ
000360:


000362:                                                                                                  #  CONSTANTS AND ERASABLE ASSIGNMENTS
000363:
000364: 26,3633  04,3453               1B1                =        DP1/2                                 #  1 SCALED B-1
000365: 26,3633           17775 01734  COSI               2DEC     .99964115  B-1                        #  COS(1 DEG 32.1 MIN) B-1
000366: 26,3635           00333 16153  SINI               2DEC     .02678760  B-1                        #  SIN(1 DEG 32.1 MIN) B-1
000367: 26,3637  0000050               RPREXIT            =        S1                                    #  R-TO-RP AND RP-TO-R SUBR EXIT
000368: 26,3637  0000051               EARTHMXX           =        S2                                    #  EARTHMX, MOONMX SUBR. EXITS
000369: 26,3637                        504RPR             =        0D                                    #  6 REGS        R OR RP VECTOR
000370: 26,3637                        SINNODI            =        8D                                    #  2             SIN(NODI)
000371: 26,3637                        DVECTR             =        8D                                    #  6             D VECTOR MOON
000372: 26,3637                        CVECTR             =        8D                                    #  6             C VECTR MOON
000373: 26,3637                        504AZ              =        18D                                   #  2             AZ
000374: 26,3637                        TIMSUBM            =        14D                                   #  3             TIME SUB M (MOON) T+10 IN GETAZ
000375: 26,3637                        504LPL             =        14D                                   #  6             L OR LP VECTOR
000376: 26,3637                        AVECTR             =        20D                                   #  6             A VECTOR (MOON)
000377: 26,3637                        BVECTR             =        26D                                   #  6             B VECTOR (MOON)
000378: 26,3637                        MMATRIX            =        20D                                   #  18            M MATRIX
000379: 26,3637                        COB                =        32D                                   #  2             COS(B) B-1
000380: 26,3637                        SOB                =        34D                                   #  2             SIN(B) B-1
000381: 26,3637                        504F               =        6D                                    #  2             F(MOON)
000382:
000383: 26,3637           77665 42175  NODDOT             2DEC     -.457335143 E-2                        #  REVS/CSEC B+28=-1.07047016 E-6  RAD/SEC
000384: 26,3641           22211 00265  FDOT               2DEC     .570862491                            #  REVS/CSEC B+27= 2.67240019 E-6  RAD/SEC
000385: 26,3643           77777 77767  BDOT               2DEC     -3.07500412 E-8                        #  REVS/CSEC B+28=-7.19756666 E-14 RAD/SEC
000386: 26,3645           41215 66331  NODIO              2DEC     -.960101269                            #  REVS B-0      =-6.03249419      RAD
000387: 26,3647           15237 26751  FSUBO              2DEC     .415998375                            #  REVS B-0      = 2.61379488      RAD
000388: 26,3651           02052 35713  BSUBO              2DEC     .0651205006                            #  REVS B=0      = 0.409164173     RAD
000389: 26,3653           37116 32630  WEARTH             2DEC     .973561855                            #  REVS/CSEC B+23= 7.29211515 E-5  RAD/SEC
000390:

End of include-file PLANETARY_INERTIAL_ORIENTATION.agc.  Parent file is MAIN.agc


