
Source Code
000001:                                                                                                 #  Copyright:     Public domain.
000002:                                                                                                 #  Filename:      PLANETARY_INERTIAL_ORIENTATION.agc
000003:                                                                                                 #  Purpose:       Part of the source code for Colossus, build 249.
000004:                                                                                                 #                 It is part of the source code for the Command Module's (CM)
000005:                                                                                                 #                 Apollo Guidance Computer (AGC), possibly for Apollo 8 and 9.
000006:                                                                                                 #  Assembler:     yaYUL
000007:                                                                                                 #  Reference:     Starts on p. 1225 of 1701.pdf.
000008:                                                                                                 #  Contact:       Ron Burkey <info@sandroid.org>.
000009:                                                                                                 #  Website:       www.ibiblio.org/apollo.
000010:                                                                                                 #  Mod history:   08/28/04 RSB.   Adapted from corresponding Luminary131 file.
000011:
000012:                                                                                                 #  The contents of the "Colossus249" files, in general, are transcribed
000013:                                                                                                 #  from a scanned document obtained from MIT's website,
000014:                                                                                                 #  http://hrst.mit.edu/hrs/apollo/public/archive/1701.pdf.  Notations on this
000015:                                                                                                 #  document read, in part:
000016:
000017:                                                                                                 #         Assemble revision 249 of AGC program Colossus by NASA
000018:                                                                                                 #         2021111-041.  October 28, 1968.
000019:
000020:                                                                                                 #         This AGC program shall also be referred to as
000021:                                                                                                 #                                 Colossus 1A
000022:
000023:                                                                                                 #         Prepared by
000024:                                                                                                 #                         Massachussets Institute of Technology
000025:                                                                                                 #                         75 Cambridge Parkway
000026:                                                                                                 #                         Cambridge, Massachusetts
000027:                                                                                                 #         under NASA contract NAS 9-4065.
000028:
000029:                                                                                                 #  Refer directly to the online document mentioned above for further information.
000030:                                                                                                 #  Please report any errors (relative to 1701.pdf) to info@sandroid.org.
000031:
000032:                                                                                                 #  In some cases, where the source code for Luminary 131 overlaps that of
000033:                                                                                                 #  Colossus 249, this code is instead copied from the corresponding Luminary 131
000034:                                                                                                 #  source file, and then is proofed to incorporate any changes.
000035:
000036:                                                                                                 #  Page 1225
000037:                                                                                                 #  PLANETARY INERTIAL ORIENTATION
000038:
000039:                                                                                                 #  ***** RP-TO-R SUBROUTINE *****
000040:                                                                                                 #  SUBROUTINE TO CONVERT RP (VECTOR IN PLANETARY COORDINATE SYSTEM, EITHER
000041:                                                                                                 #  EARTH-FIXED OR MOON-FIXED) TO R (SAME VECTOR IN BASIC REF. SYSTEM)
000042:                                                                                                 #         R = MT(T) * (RP + LP X RP)      MT = M MATRIX TRANSPOSE
000043:
000044:                                                                                                 #  CALLING SEQUENCE
000045:                                                                                                 #         L       CALL
000046:                                                                                                 #         L+1             RP-TO-R
000047:
000048:                                                                                                 #  SUBROUTINES USED
000049:                                                                                                 #         EARTHMX, MOONMX, EARTHL
000050:
000051:                                                                                                 #         ITEMS AVAILABLE FROM LAUNCH DATA
000052:                                                                                                 #                 504M = THE LIBRATION VECTOR L OF THE MOON AT TIME TIMSUBL, EXPRESSED
000053:                                                                                                 #                 IN THE MOON-FIXED COORD. SYSTEM         RADIANS B0
000054:
000055:                                                                                                 #         ITEMS NECESSARY FOR SUBR. USED (SEE DESCRIPTION OF SUBR.)
000056:
000057:                                                                                                 #  INPUT
000058:                                                                                                 #         MPAC = 0 FOR EARTH, NON-ZERO FOR MOON
000059:                                                                                                 #         0-5D = RP VECTOR
000060:                                                                                                 #         6-7D = TIME
000061:
000062:                                                                                                 #  OUTPUT
000063:                                                                                                 #         MPAC = R VECTOR METERS B-29 FOR EARTH, B-27 FOR MOON
000064:
000065: 26,2000                                          SETLOC   PLANTIN
000066: 26,2000                                          BANK
000067:
000068: 26,3341                                          COUNT*   $$/LUROT
000069:
000070: 26,3341           46020        RP-TO-R           STQ      BHIZ
000071: 26,3342           00050                                   RPREXIT
000072: 26,3343           55356                                   RPTORA
000073: 26,3344           77624                          CALL                                           #  COMPUTE M MATRIX FOR MOON
000074: 26,3345           55416                                   MOONMX                                #  LP=LM FOR MOON RADIANS B0
000075: 26,3346           77775                          VLOAD
000076: 26,3347           02012                                   504LM
000077: 26,3350           53235        RPTORB            VXV      VAD
000078: 26,3351           00001                                   504RPR
000079: 26,3352           00001                                   504RPR
000080: 26,3353           52105                          VXM      GOTO
000081: 26,3354           00025                                   MMATRIX                               #  MPAC=R=MT(T)*(RP+LPXRP)
000082: 26,3355           55404                                   RPRPXXXX                              #  RESET PUSHLOC TO 0 BEFORE EXITING
000083: 26,3356           77624        RPTORA            CALL                                           #  EARTH COMPUTATIONS
000084: 26,3357           55570                                   EARTHMX                               #  M MATRIX B-1
000085: 26,3360           77624                          CALL
000086: 26,3361           55622                                   EARTHL                                #  L VECTOR RADIANS B0
000087: 26,3362           76521                          MXV      VSL1                                  #  LP=M(T)*L      RAD B-0
000088: 26,3363           00025                                   MMATRIX
000089:                                                                                                 #  Page 1226
000090: 26,3364           77650                          GOTO
000091: 26,3365           55350                                   RPTORB
000092:
000093:                                                                                                 #  Page 1227
000094:                                                                                                 #  ***** R-TO-RP SUBROUTINE *****
000095:                                                                                                 #  SUBROUTINE TO CONVERT R (VECTOR IN REFERENCE COORD. SYSTEM) TO RP
000096:                                                                                                 #  (VECTOR IN PLANETARY COORD SYSTEM) EITHER EARTH-FIXED OR MOON-FIXED
000097:                                                                                                 #         RP = M(T) * (R - L X R)
000098:
000099:                                                                                                 #  CALLING SEQUENCE
000100:                                                                                                 #         L       CALL
000101:                                                                                                 #         L+1             R-TO-RP
000102:
000103:                                                                                                 #  SUBROUTINES USED
000104:                                                                                                 #         EARTHMX, MOONMX, EARTHL
000105:
000106:                                                                                                 #  INPUT
000107:                                                                                                 #         MPAC = 0 FOR EARTH, NON-ZERO FOR MOON
000108:                                                                                                 #         0-5D = R VECTOR
000109:                                                                                                 #         6-7D = TIME
000110:
000111:                                                                                                 #         ITEMS AVAILABLE FROM LAUNCH DATA
000112:                                                                                                 #                 504LM = THE LIBRATION VECTOR L OF THE MOON AT TIME TIMSUBL, EXPRESSED
000113:                                                                                                 #                 IN THE MOON-FIXED COORD. SYSTEM                 RADIANS B0
000114:
000115:                                                                                                 #         ITEMS NECESSARY FOR SUBROUTINES USED (SEE DESCRIPTION OF SUBR.)
000116:
000117:                                                                                                 #  OUTPUT
000118:                                                                                                 #         MPAC = RP VECTOR METERS B-29 FOR EARTH, B-27 FOR MOON
000119:
000120: 26,3366           46020        R-TO-RP           STQ      BHIZ
000121: 26,3367           00050                                   RPREXIT
000122: 26,3370           55410                                   RTORPA
000123: 26,3371           77624                          CALL
000124: 26,3372           55416                                   MOONMX
000125: 26,3373           61375                          VLOAD    VXM
000126: 26,3374           02012                                   504LM                                 #  LP=LM
000127: 26,3375           00025                                   MMATRIX
000128: 26,3376           77772                          VSL1                                           #  L = MT(T)*LP           RADIANS B0
000129: 26,3377           51235        RTORPB            VXV      BVSU
000130: 26,3400           00001                                   504RPR
000131: 26,3401           00001                                   504RPR
000132: 26,3402           77721                          MXV                                            #  M(T)*(R-LXR)           B-2
000133: 26,3403           00025                                   MMATRIX
000134: 26,3404           40372        RPRPXXXX          VSL1     SETPD
000135: 26,3405           00001                                   0D
000136: 26,3406           77650                          GOTO
000137: 26,3407           00050                                   RPREXIT
000138: 26,3410           77624        RTORPA            CALL                                           #  EARTH COMPUTATIONS
000139: 26,3411           55570                                   EARTHMX
000140: 26,3412           77624                          CALL
000141: 26,3413           55622                                   EARTHL
000142: 26,3414           77650                          GOTO                                           #  MPAC=L=(-AX,-AY,0)     RAD B-0
000143: 26,3415           55377                                   RTORPB
000144:
000145:                                                                                                 #  Page 1228
000146:                                                                                                 #  ***** MOONMX SUBROUTINE *****
000147:                                                                                                 #  SUBROUTINE TO COMPUTE THE TRANSFORMATION MATRIX M FOR THE MOON
000148:
000149:                                                                                                 #  CALLING SEQUENCE
000150:                                                                                                 #         L       CALL
000151:                                                                                                 #         L+1             MOONMX
000152:
000153:                                                                                                 #  SUBROUTINES USED
000154:                                                                                                 #         NEWANGLE
000155:
000156:                                                                                                 #  INPUT
000157:                                                                                                 #         6-7D = TIME
000158:
000159:                                                                                                 #         ITEMS AVAILABLE FROM LAUNCH DATA
000160:                                                                                                 #                 BSUBO, BDOT
000161:                                                                                                 #                 TIMSUBO, NODIO, NODDOT, FSUBO, FDOT
000162:                                                                                                 #                 COSI = COS(I)   B-1
000163:                                                                                                 #                 SINI = SIN(I)   B-1
000164:                                                                                                 #                 I IS THE ANGLE BETWEEN THE MEAN LUNAR EQUATORIAL PLANE AND THE
000165:                                                                                                 #                 PLANE OF THE ECLIPTIC (1 DEGREE 32.1 MINUTES)
000166:
000167:                                                                                                 #  OUTPUT
000168:                                                                                                 #         MMATRIX = 3X3 M MATRIX          B-1 (STORED IN VAC AREA)
000169:
000170: 26,3416           40220        MOONMX            STQ      SETPD
000171: 26,3417           00051                                   EARTHMXX
000172: 26,3420           00011                                   8D
000173: 26,3421           77770                          AXT,1                                          #  B REQUIRES SL 0, SL 5 IN NEWANGLE
000174: 26,3422           00005                                   5
000175: 26,3423           65345                          DLOAD    PDDL                                  #  PD 10D 8-9D=BSUBO
000176: 26,3424           15652                                   BSUBO                                 #                 10-11D=BDOT
000177: 26,3425           15644                                   BDOT
000178: 26,3426           45006                          PUSH     CALL                                  #  PD 12D
000179: 26,3427           55543                                   NEWANGLE                              #  EXIT WITH PD 8D AND MPAC= B    REVS B0
000180: 26,3430           71406                          PUSH     COS                                   #  PD 10D
000181: 26,3431           14041                          STODL    COB                                   #  PD 8D          COS(B) B-1
000182: 26,3432           77756                          SIN                                            #                 SIN(B) B-1
000183: 26,3433           14043                          STODL    SOB                                   #  SETUP INPUT FOR NEWANGLE
000184: 26,3434           15650                                   FSUBO                                 #                         8-9D=FSUBO
000185: 26,3435           41525                          PDDL     PUSH                                  #  PD 10D THEN 12D        10-11D=FDOT
000186: 26,3436           15642                                   FDOT
000187: 26,3437           45170                          AXT,1    CALL                                  #  F REQUIRES SL 1, SL 6 IN NEWANGLE.
000188: 26,3440           00004                                   4
000189: 26,3441           55543                                   NEWANGLE                              #  EXIT WITH PD 8D AND MPAC= F REVS B0
000190: 26,3442           14027                          STODL    AVECTR     +2                         #  SAVE F TEMP
000191: 26,3443           15646                                   NODIO                                 #                         8-9D=NODIO
000192: 26,3444           41525                          PDDL     PUSH                                  #  PD 10D THEN 12D        10-11D=NODDOT
000193: 26,3445           15640                                   NODDOT                                #                         MPAC=5
000194: 26,3446           45170                          AXT,1    CALL                                  #  NODE REQUIRES SL 0, SL 5 IN NEWANGLE
000195: 26,3447           00005                                   5
000196: 26,3450           55543                                   NEWANGLE                              #  EXIT WITH PD 8D AND MPAC= NODI REVS B0
000197:                                                                                                 #  Page 1229
000198: 26,3451           71406                          PUSH     COS                                   #  PD 10D 8-9D= NODI REVS B0
000199: 26,3452           77606                          PUSH                                           #  PD 12D 10-11D= COS(NODI) B-1
000200: 26,3453           00025                          STORE    AVECTR
000201: 26,3454           76405                          DMP      SL1R
000202: 26,3455           00041                                   COB                                   #                         COS(NODI) B-1
000203: 26,3456           14035                          STODL    BVECTR     +2                         #  PD 10D  20-25D=AVECTR=COB*SIN(NODI)
000204: 26,3457           76405                          DMP      SL1R                                  #                         SOB*SIN(NODI)
000205: 26,3460           00043                                   SOB
000206: 26,3461           14037                          STODL    BVECTR     +4                         #  PD 8D
000207: 26,3462           41556                          SIN      PUSH                                  #                         -SIN(NODI) B-1
000208: 26,3463           77676                          DCOMP                                          #          26-31D=BVECTR=COB*COS(NODI)
000209: 26,3464           14033                          STODL    BVECTR                                #  PD 8D                  SOB*COS(NODI)
000210: 26,3465           00027                                   AVECTR     +2
000211: 26,3466           14007                          STODL    504F
000212: 26,3467           76405                          DMP      SL1R
000213: 26,3470           00041                                   COB
000214: 26,3471           14027                          STODL    AVECTR     +2
000215: 26,3472           00011                                   SINNODI                               #  8-9D=SIN(NODI) B-1
000216: 26,3473           76405                          DMP      SL1R
000217: 26,3474           00043                                   SOB
000218: 26,3475           14031                          STODL    AVECTR     +4                         #                         0
000219: 26,3476           15332                                   HI6ZEROS                              #         8-13D= CVECTR=  -SOB B-1
000220: 26,3477           57525                          PDDL     DCOMP                                 #  PD 10D         COB
000221: 26,3500           00043                                   SOB
000222: 26,3501           63325                          PDDL     PDVL                                  #  PD 12D THEN PD 14D
000223: 26,3502           00041                                   COB
000224: 26,3503           00033                                   BVECTR
000225: 26,3504           63361                          VXSC     PDVL                                  #  PD 20D BVECTR*SINI B-2
000226: 26,3505           15636                                   SINI
000227: 26,3506           00011                                   CVECTR
000228: 26,3507           53361                          VXSC     VAD                                   #  PD 14D CVECTR*COSI B-2
000229: 26,3510           15634                                   COSI
000230: 26,3511           77772                          VSL1
000231: 26,3512           24041                          STOVL    MMATRIX    +12D                       #  PD 8D  M2=BVECTR*SINI+CVECTR*COSI B-1
000232: 26,3513           63361                          VXSC     PDVL                                  #  PD 14D
000233: 26,3514           15636                                   SINI                                  #                 CVECTR*SINI B-2
000234: 26,3515           00033                                   BVECTR
000235: 26,3516           52361                          VXSC     VSU                                   #  PD 8D          BVECTR*COSI B-2
000236: 26,3517           15634                                   COSI
000237: 26,3520           65372                          VSL1     PDDL                                  #  PD 14D
000238: 26,3521           00007                                   504F                                  #  8-13D=DVECTR=BVECTR*COSI-CVECTR*SINI B-1
000239: 26,3522           74346                          COS      VXSC
000240: 26,3523           00011                                   DVECTR
000241: 26,3524           73525                          PDDL     SIN                                   #  PD 20D  14-19D= DVECTR*COSF B-2
000242: 26,3525           00007                                   504F
000243: 26,3526           52361                          VXSC     VSU                                   #  PD 14D AVECTR*SINF B-2
000244: 26,3527           00025                                   AVECTR
000245: 26,3530           77772                          VSL1
000246: 26,3531           14033                          STODL    MMATRIX    +6                         #  M1= AVECTR*SINF-DVECTR*COSF B-1
000247: 26,3532           00007                                   504F
000248:                                                                                                 #  Page 1230
000249: 26,3533           74356                          SIN      VXSC                                  #  PD 8D
000250: 26,3534           71525                          PDDL     COS                                   #  PD 14D  8-13D=DVECTR*SINF B-2
000251: 26,3535           00007                                   504F
000252: 26,3536           53361                          VXSC     VAD                                   #  PD 8D          AVECTR*COSF B-2
000253: 26,3537           00025                                   AVECTR
000254: 26,3540           57572                          VSL1     VCOMP
000255: 26,3541           34025                          STCALL   MMATRIX                               #  M0= -(AVECTR*COSF+DVECTR*SINF) B-1
000256: 26,3542           00051                                   EARTHMXX
000257:
000258:                                                                                                 #  COMPUTE X=X0+(XDOT)(T+T0)
000259:                                                                                                 #  8-9D= X0 (REVS B-0), PUSHLOC SET AT 12D
000260:                                                                                                 #  10-11D=XDOT (REVS/CSEC) SCALED B+23 FOR WEARTH,B+28 FOR NODDOT AND BDOT
000261:                                                                                                 #                         AND B+27 FOR FDOT
000262:                                                                                                 #  X1=DIFFERENCE IN 23 AND SCALING OF XDOT, =0 FOR WEARTH, 5 FOR NDDOT AND
000263:                                                                                                 #                                         BDOT AND 4 FOR FDOT
000264:                                                                                                 #  6-7D=T (CSEC B-28), TIMSUBO= (CSEC B-42 TRIPLE PREC.)
000265:
000266: 26,3543           54345        NEWANGLE          DLOAD    SR                                    #  ENTER PD 12D
000267: 26,3544           00007                                   6D
000268: 26,3545           20617                                   14D
000269: 26,3546           72371                          TAD      TLOAD                                 #  CHANGE MODE TO TP
000270: 26,3547           01707                                   TIMSUBO
000271: 26,3550           00155                                   MPAC
000272: 26,3551           14017                          STODL    TIMSUBM                               #  T+T0 CSEC B-42
000273: 26,3552           00020                                   TIMSUBM    +1
000274: 26,3553           77605                          DMP                                            #  PD 10D MULT BY XDOT IN 10-11D
000275: 26,3554           43257                          SL*      DAD                                   #  PD 8D          ADD X0 IN 8-9D AFTER SHIFTING
000276: 26,3555           20206                                   5,1                                   #                 SUCH THAT SCALING IS B-0
000277: 26,3556           67206                          PUSH     SLOAD                                 #  PD 10D  SAVE PARTIAL (X0+XDOT*T) IN 8-9D
000278: 26,3557           00017                                   TIMSUBM
000279: 26,3560           41261                          SL       DMP
000280: 26,3561           20212                                   9D
000281: 26,3562           00013                                   10D                                   #  XDOT
000282: 26,3563           43257                          SL*      DAD                                   #  PD 8D          SHIFT SUCH THAT THIS PART OF X
000283: 26,3564           20213                                   10D,1                                 #                 IS SCALED REVS/CSEC B-0
000284: 26,3565           77600                          BOV                                            #  TURN OFF OVERFLOW IF SET BY SHIFT
000285: 26,3566           55567                                   +1                                    #  INSTRUCTION BEFORE EXITING.
000286: 26,3567           77616                          RVQ                                            #  MPAC=X= X0+(XDOT)(T+T0)        REVS B0
000287:
000288:                                                                                                 #  Page 1231
000289:                                                                                                 #  ***** EARTHMX SUBROUTINE *****
000290:                                                                                                 #  SUBROUTINE TO COMPUTE THE TRANSFORMATION MATRIX M FOR THE EARTH
000291:
000292:                                                                                                 #  CALLING SEQUENCE
000293:                                                                                                 #         L       CALL
000294:                                                                                                 #         L+1             EARTHMX
000295:
000296:                                                                                                 #  SUBROUTINE USED
000297:                                                                                                 #         NEWANGLE
000298:
000299:                                                                                                 #  INPUT
000300:                                                                                                 #         INPUT AVAILABLE FROM LAUNCH DATA        AZC REVS B-0
000301:                                                                                                 #                                                 TEPHEM CSEC B-42
000302:                                                                                                 #         6-7D= TIME CSEC B-28
000303:
000304:                                                                                                 #  OUTPUT
000305:                                                                                                 #         MMATRIX= 3X3 M MATRIX B-1 (STORED IN VAC AREA)
000306:
000307: 26,3570           40220        EARTHMX           STQ      SETPD                                 #  SET 8-9D=AZO
000308: 26,3571           00051                                   EARTHMXX
000309: 26,3572           00011                                   8D                                    #  10-11D=WEARTH
000310: 26,3573           77770                          AXT,1                                          #  FOR SL 5, AND SL 10 IN NEWANGLE
000311: 26,3574           00000                                   0
000312: 26,3575           65345                          DLOAD    PDDL                                  #  LEAVING PD SET AT 12D FOR NEWANGLE
000313: 26,3576           01712                                   AZO
000314: 26,3577           15654                                   WEARTH
000315: 26,3600           45006                          PUSH     CALL
000316: 26,3601           55543                                   NEWANGLE
000317: 26,3602           41401                          SETPD    PUSH                                  #  18-19D=504AZ
000318: 26,3603           00023                                   18D                                   #                          COS(AZ)   SIN(AZ)     0
000319: 26,3604           65346                          COS      PDDL                                  #  20-37D=  MMATRIX=      -SIN(AZ)   COS(AZ)     0    B-1
000320: 26,3605           00023                                   504AZ                                 #                             0         0        1
000321: 26,3606           65356                          SIN      PDDL
000322: 26,3607           15332                                   HI6ZEROS
000323: 26,3610           73525                          PDDL     SIN
000324: 26,3611           00023                                   504AZ
000325: 26,3612           65276                          DCOMP    PDDL
000326: 26,3613           00023                                   504AZ
000327: 26,3614           63346                          COS      PDVL
000328: 26,3615           15332                                   HI6ZEROS
000329: 26,3616           41525                          PDDL     PUSH
000330: 26,3617           15330                                   HIDPHALF
000331: 26,3620           77650                          GOTO
000332: 26,3621           00051                                   EARTHMXX
000333:
000334:                                                                                                 #  Page 1232
000335:                                                                                                 #  ***** EARTH SUBROUTINE *****
000336:                                                                                                 #  SUBROUTINE TO COMPUTE L VECTOR FOR EARTH
000337:
000338:                                                                                                 #  CALLING SEQUENCE
000339:                                                                                                 #         L       CALL
000340:                                                                                                 #         L+1             EARTHL
000341:
000342:                                                                                                 #  INPUT
000343:                                                                                                 #         AXO,AYO SET AT LAUNCH TIME WITH AYO IMMEDIATELY FOLLOWING AXO IN CORE
000344:
000345:                                                                                                 #  OUTPUT
000346:                                                                                                 #                 -AX
000347:                                                                                                 #         MPAC=   -AY     RADIANS B-0
000348:                                                                                                 #                   0
000349:
000350: 26,3622           57545        EARTHL            DLOAD    DCOMP
000351: 26,3623           01716                                   AXO
000352: 26,3624           14017                          STODL    504LPL
000353: 26,3625           01714                                   -AYO
000354: 26,3626           14021                          STODL    504LPL     +2
000355: 26,3627           15332                                   HI6ZEROS
000356: 26,3630           24023                          STOVL    504LPL     +4
000357: 26,3631           00017                                   504LPL
000358: 26,3632           77616                          RVQ
000359:
000360:                                                                                                 #  Page 1233
000361:                                                                                                 #  CONSTANTS AND ERASABLE ASSIGNMENTS
000362:
000363: 26,3633  04,3453               1B1               =        DP1/2                                 #  1 SCALED B-1
000364: 26,3633           17775 01734  COSI              2DEC     .99964115  B-1                        #  COS(1 DEG 32.1 MIN) B-1
000365: 26,3635           00333 16153  SINI              2DEC     .02678760  B-1                        #  SIN(1 DEG 32.1 MIN) B-1
000366: 26,3637  0000050               RPREXIT           =        S1                                    #  R-TO-RP AND RP-TO-R SUBR EXIT
000367: 26,3637  0000051               EARTHMXX          =        S2                                    #  EARTHMX, MOONMX SUBR. EXITS
000368: 26,3637                        504RPR            =        0D                                    #  6 REGS R OR RP VECTOR
000369: 26,3637                        SINNODI           =        8D                                    #  2              SIN(NODI)
000370: 26,3637                        DVECTR            =        8D                                    #  6              D VECTOR MOON
000371: 26,3637                        CVECTR            =        8D                                    #  6              C VECTR MOON
000372: 26,3637                        504AZ             =        18D                                   #  2              AZ
000373: 26,3637                        TIMSUBM           =        14D                                   #  3              TIME SUB M (MOON) T+10 IN GETAZ
000374: 26,3637                        504LPL            =        14D                                   #  6              L OR LP VECTOR
000375: 26,3637                        AVECTR            =        20D                                   #  6              A VECTOR (MOON)
000376: 26,3637                        BVECTR            =        26D                                   #  6              B VECTOR (MOON)
000377: 26,3637                        MMATRIX           =        20D                                   #  18             M MATRIX
000378: 26,3637                        COB               =        32D                                   #  2              COS(B) B-1
000379: 26,3637                        SOB               =        34D                                   #  2              SIN(B) B-1
000380: 26,3637                        504F              =        6D                                    #  2              F(MOON)
000381:
000382: 26,3637           77665 42175  NODDOT            2DEC     -.457335143 E-2                        #  REVS/CSEC B+28=-1.07047016 E-6  RAD/SEC
000383: 26,3641           22211 00265  FDOT              2DEC     .570862491                            #  REVS/CSEC B+27= 2.67240019 E-6  RAD/SEC
000384: 26,3643           77777 77767  BDOT              2DEC     -3.07500412 E-8                        #  REVS/CSEC B+28=-7.19756666 E-14 RAD/SEC
000385: 26,3645           41215 66331  NODIO             2DEC     -.960101269                            #  REVS B-0      =-6.03249419      RAD
000386: 26,3647           15237 26751  FSUBO             2DEC     .415998375                            #  REVS B-0       = 2.61379488      RAD
000387: 26,3651           02052 35713  BSUBO             2DEC     .0651205006                            #  REVS B=0       = 0.409164173     RAD
000388: 26,3653           37116 32630  WEARTH            2DEC     .973561855                            #  REVS/CSEC B+23= 7.29211515 E-5  RAD/SEC
000389:

End of include-file PLANETARY_INERTIAL_ORIENTATION.agc.  Parent file is MAIN.agc


