
Source Code


000002:                                                                                                  ## Copyright:   Public domain.
000003:                                                                                                  ## Filename:    POWERED_FLIGHT_SUBROUTINES.agc
000004:                                                                                                  ## Purpose:     Part of the source code for Colossus, build 249.
000005:                                                                                                  ##              It is part of the source code for the Command Module's (CM)
000006:                                                                                                  ##              Apollo Guidance Computer (AGC), for Apollo 9.
000007:                                                                                                  ## Assembler:   yaYUL
000008:                                                                                                  ## Reference:   Starts on p. 1333
000009:                                                                                                  ## Contact:     Ron Burkey <info@sandroid.org>.
000010:                                                                                                  ## Website:     www.ibiblio.org/apollo.
000011:                                                                                                  ## Mod history: 08/29/04 RSB.   Began adapting from corresponding Luminary131 file.
000012:                                                                                                  ##              2010-10-24 JL   Indentation fixes.
000013:                                                                                                  ##              2017-01-06 RSB  Page numbers now agree with those on the
000014:                                                                                                  ##                              original harcopy, as opposed to the PDF page
000015:                                                                                                  ##                              numbers in 1701.pdf.
000016:                                                                                                  ##              2017-01-18 RSB  Cross-diff'd comment text (not whitespace)
000017:                                                                                                  ##                              vs the already-proofed corresponding Colossus
000018:                                                                                                  ##                              237 and Comanche 55 source-code files
000019:                                                                                                  ##                              and corrected errors found.
000020:                                                                                                  ##              2017-02-08 RSB  Added a note about a curiously-misprinted line.
000021:                                                                                                  ##              2021-05-30 ABS  SINSLOC -> SINESLOC
000022:                                                                                                  ##
000023:                                                                                                  ## The contents of the "Colossus249" files, in general, are transcribed
000024:                                                                                                  ## from a scanned copy of the program listing.  Notations on this
000025:                                                                                                  ## document read, in part:
000026:                                                                                                  ##
000027:                                                                                                  ##      Assemble revision 249 of AGC program Colossus by NASA
000028:                                                                                                  ##      2021111-041.  October 28, 1968.
000029:                                                                                                  ##
000030:                                                                                                  ##      This AGC program shall also be referred to as
000031:                                                                                                  ##                              Colossus 1A
000032:                                                                                                  ##
000033:                                                                                                  ##      Prepared by
000034:                                                                                                  ##                      Massachusetts Institute of Technology
000035:                                                                                                  ##                      75 Cambridge Parkway
000036:                                                                                                  ##                      Cambridge, Massachusetts
000037:                                                                                                  ##      under NASA contract NAS 9-4065.
000038:                                                                                                  ##
000039:                                                                                                  ## Refer directly to the online document mentioned above for further information.
000040:                                                                                                  ## Please report any errors (relative to the scanned pages) to info@sandroid.org.
000041:                                                                                                  ##
000042:                                                                                                  ## In some cases, where the source code for Luminary 131 overlaps that of
000043:                                                                                                  ## Colossus 249, this code is instead copied from the corresponding Luminary 131
000044:                                                                                                  ## source file, and then is proofed to incorporate any changes.
000045:


000047: 14,3405                                           BANK     14                                    #  SAME FBANK AS THE FINDCDUD SUB-PROGRAM
000048: 23,2000                                           SETLOC   POWFLITE
000049: 23,2000                                           BANK
000050:
000051: 23,3432     0142                                  EBANK=   DEXDEX
000052: 23,3432                                           COUNT*   $$/POWFL
000053:
000054:                                                                                                  #  CDUTRIG, CDUTRIG1, CDUTRIG2, AND CD*TR*GS ALL COMPUTE THE SINES AND
000055:                                                                                                  #  COSINES OF THREE 2'S COMPLEMENT ANGLES AND PLACE THE RESULT, DOUBLE
000056:                                                                                                  #  PRECISION, IN THE SAME ORDER AS THE INPUTS, AT SINCDU AND COSCDU.  AN
000057:                                                                                                  #  ADDITIONAL OUTPUT IS THE 1'S COMPLEMENT ANGLES AT CDUSPOT.  THESE
000058:                                                                                                  #  ROUTINES GO OUT OF THEIR WAY TO LEAVE THE MPAC AREA AS THEY FIND IT,
000059:                                                                                                  #  EXCEPT FOR THE GENERALLY UNIMPORTANT MPAC +2.  THEY DIFFER ONLY IN
000060:                                                                                                  #  WHERE THEY GET THE ANGLES, AND IN METHOD OF CALLING.
000061:
000062:                                                                                                  #  CDUTRIG (AND CDUTRIG1, WHICH CAN BE CALLED IN BASIC) COMPUTE THE
000063:                                                                                                  #  SINES AND COSINES FROM THE CURRENT CONTENTS OF THE CDU REGISTERS.
000064:                                                                                                  #  THE CONTENTS OF CDUTEMP, ETC., ARE NOT TOUCHED SO THAT THEY MAY
000065:                                                                                                  #  CONTINUE TO FORM A CONSISTENT SET WITH THE LATEST PIPA READINGS.
000066:
000067:                                                                                                  #  CDUTRIG1 IS LIKE CDUTRIG EXCEPT THAT IT CAN BE CALLED IN BASIC.
000068:
000069:                                                                                                  #  CD*TR*GS FINDS CDU VALUES IN CDUSPOT RATHER THAN IN CDUTEMP.  THIS
000070:                                                                                                  #  ALLOWS USERS TO MAKE TRANSFORMATIONS USING ARBITRARY ANGLES, OR REAL
000071:                                                                                                  #  ANGLES IN AN ORDER OTHER THAN X Y Z.  A CALL TO THIS ROUTINE IS
000072:                                                                                                  #  NECESSARY IN PREPARATION FOR A CALL TO AX*SR*T IN EITHER OF ITS TWO
000073:                                                                                                  #  MODES (SMNB OR NBSM).  SINCE AX*SR*T EXPECTS TO FIND THE SINES AND
000074:                                                                                                  #  COSINES IN THE ORDER Y Z X THE ANGLES MUST HAVE BEEN PLACED IN CDUSPOT
000075:                                                                                                  #  IN THIS ORDER.  CD*TR*GS NEED NOT BE REPEATED WHEN AX*SR*T IS CALLED
000076:                                                                                                  #  MORE THAN ONCE, PROVIDED THE ANGLES HAVE NOT CHANGED.  NOTE THAT SINCE
000077:                                                                                                  #  IT CLOBBERS BUF2 (IN THE SINE AND COSINE ROUTINES) CD*TR*GS CANNOT BE
000078:                                                                                                  #  CALLED USING BANKCALL.  SORRY.
000079:
000080:                                                                                                  #  CD*TR*G IS LIKE CD*TR*GS EXCEPT THAT IT CAN BE CALLED IN
000081:                                                                                                  #  INTERPRETIVE.
000082:
000083: 23,3432           77776        CDUTRIG            EXIT
000084: 23,3433           03442                           TC       CDUTRIGS
000085: 23,3434           06006                           TC       INTPRET
000086: 23,3435           77616                           RVQ
000087:
000088: 23,3436           77776        CD*TR*G            EXIT
000089: 23,3437           03450                           TC       CD*TR*GS
000090: 23,3440           06006                           TC       INTPRET
000091: 23,3441           77616                           RVQ
000092:
000093: 23,3442           30032        CDUTRIGS           CA       CDUX
000094: 23,3443           54772                           TS       CDUSPOT    +4
000095: 23,3444           30033                           CA       CDUY
000096: 23,3445           54766                           TS       CDUSPOT


000098: 23,3446           30034                           CA       CDUZ
000099: 23,3447           54770                           TS       CDUSPOT    +2
000100:
000101: 23,3450           00006        CD*TR*GS           EXTEND
000102: 23,3451           22142                           QXCH     TEM2
000103: 23,3452           34710                           CAF      FOUR
000104: 23,3453           76211        TR*GL**P           MASK     SIX                                   #  MAKE IT EVEN AND SMALLER
000105: 23,3454           54143                           TS       TEM3
000106: 23,3455           50143                           INDEX    TEM3
000107: 23,3456           30766                           CA       CDUSPOT
000108: 23,3457           52155                           DXCH     MPAC                                  #  STORING 2'S COMP ANGLE, LOADING MPAC
000109: 23,3460           52127                           DXCH     VBUF       +4                         #  STORING MPAC FOR LATER RESTORATION
000110: 23,3461           04652                           TC       USPRCADR
000111: 23,3462           45510                           CADR     CDULOGIC
000112: 23,3463           00006                           EXTEND
000113: 23,3464           30155                           DCA      MPAC
000114: 23,3465           50143                           INDEX    TEM3
000115: 23,3466           52767                           DXCH     CDUSPOT                               #  STORING 1'S COMPLEMENT ANGLE
000116: 23,3467           04652                           TC       USPRCADR
000117: 23,3470           01516                           CADR     COSINE
000118: 23,3471           52155                           DXCH     MPAC
000119: 23,3472           50143                           INDEX    TEM3
000120: 23,3473           52745                           DXCH     COSCDU                                #  STORING COSINE
000121: 23,3474           00006                           EXTEND
000122: 23,3475           50143                           INDEX    TEM3
000123: 23,3476           30767                           DCA      CDUSPOT                               #  LOADING 1'S COMPLEMENT ANGLE
000124: 23,3477           04652                           TC       USPRCADR
000125: 23,3500           01530                           CADR     SINE       +1                         #  SINE +1 EXPECTS ARGUMENT IN A AND L
000126: 23,3501           52127                           DXCH     VBUF       +4                         #  BRINGING UP PRIOR MPAC TO BE RESTORED
000127: 23,3502           52155                           DXCH     MPAC
000128: 23,3503           50143                           INDEX    TEM3
000129: 23,3504           52737                           DXCH     SINCDU
000130: 23,3505           10143                           CCS      TEM3
000131: 23,3506           13453                           TCF      TR*GL**P
000132: 23,3507           00142                           TC       TEM2


000134:                                                                                                  #  ****************************************************************************************************************
000135:                                                                                                  #  QUICTRIG, INTENDED FOR GUIDANCE CYCLE USE WHERE TIME IS CRITICAL, IS A MUCH FASTER VERSION OF CD*TR*GS.
000136:                                                                                                  #  QUICTRIG COMPUTES AND STORES THE SINES AND COSINES OF THE 2'S COMPLEMENT ANGLES AT CDUSPOT, CDUSPOT +2,
000137:                                                                                                  #  AND CDUSPOT +4.  UNLIKE CD*TR*GS, QUICTRIG DOES NOT LEAVE THE 1'S COMPLEMENT VERSIONS OF THE ANGLES IN
000138:                                                                                                  #  CDUSPOT.  QUICTRIG'S EXECUTION TIME IS 4.1 MS; THIS IS 10 TIMES AS FAST AS CD*TR*GS. QUICTRIG MAY BE
000139:
000140:                                                                                                  #  CALLED FROM INTERPRETIVE AS AN RTB OP-CODE, OR FROM BASIC VIA BANKCALL OR IBNKCALL.
000141:
000142: 23,3510           00004        QUICTRIG           INHINT                                         #  INHINT SINCE DAP USES THE SAME TEMPS
000143: 23,3511           00006                           EXTEND
000144: 23,3512           22061                           QXCH     ITEMP1
000145: 23,3513           34710                           CAF      FOUR
000146: 23,3514           76211                 +4        MASK     SIX
000147: 23,3515           54062                           TS       ITEMP2
000148: 23,3516           50062                           INDEX    ITEMP2
000149: 23,3517           30766                           CA       CDUSPOT
000150: 23,3520           04770                           TC       SPSIN
000151: 23,3521           00006                           EXTEND
000152: 23,3522           74675                           MP       BIT14                                 #  SCALE DOWN TO MATCH INTERPRETER OUTPUTS
000153: 23,3523           50062                           INDEX    ITEMP2
000154: 23,3524           52737                           DXCH     SINCDU
000155: 23,3525           50062                           INDEX    ITEMP2
000156: 23,3526           30766                           CA       CDUSPOT
000157: 23,3527           04767                           TC       SPCOS
000158: 23,3530           00006                           EXTEND
000159: 23,3531           74675                           MP       BIT14
000160: 23,3532           50062                           INDEX    ITEMP2
000161: 23,3533           52745                           DXCH     COSCDU
000162: 23,3534           10062                           CCS      ITEMP2
000163: 23,3535           13514                           TCF      QUICTRIG   +4
000164: 23,3536           30061                           CA       ITEMP1
000165: 23,3537           00003                           RELINT
000166: 23,3540           00000                           TC       A
000167:


000169:                                                                                                  # ****************************************************************************************************************
000170:                                                                                                  #  THESE INTERFACE ROUTINES MAKE IT POSSIBLE TO CALL AX*SR*T, ETC., IN
000171:                                                                                                  #  INTERPRETIVE.  LATER, WHERE POSSIBLE, THEY WILL BE ELIMINATED.
000172:
000173:                                                                                                  #  NBSM WILL BE THE FIRST TO GO.  IT SHOULD NOT BE USED.
000174:
000175: 23,3541           77620        NBSM               STQ
000176: 23,3542           00047                                    X2
000177: 23,3543           76740                           LXC,1    VLOAD*
000178: 23,3544           00050                                    S1                                    #  BASE ADDRESS OF THE CDU ANGLES IS IN S1
000179: 23,3545           00001                                    0,1
000180: 23,3546           24767                           STOVL    CDUSPOT
000181: 23,3547           00041                                    32D                                   #  VECTOR TO BE TRANSFORMED IS IN 32D
000182: 23,3550           77624                           CALL
000183: 23,3551           47572                                    TRG*NBSM
000184: 23,3552           34041                           STCALL   32D                                   #  SINCE THERE'S NO STGOTO
000185: 23,3553           00047                                    X2
000186:
000187:                                                                                                  #  THESE INTERFACE ROUTINES ARE PERMANENT.  ALL RESTORE USER'S EBANK
000188:                                                                                                  #  SETTING. ALL ARE STRICT INTERPRETIVE SUBROUTINES, CALLED USING "CALL",
000189:                                                                                                  #  RETURNING VIA QPRET.  ALL EXPECT AND RETURN THE VECTOR TO BE TRANSFOR-
000190:                                                                                                  #  MED INTERPRETER-STYLE IN MPAC


000197:
000198:                                                                                                  #  TRG*SMNB AND TRG*NBSM BOTH EXPECT TO SEE THE 2'S COMPLEMENT ANGLES
000199:                                                                                                  #  AT CDUSPOT (ORDER Y Z X, AT CDUSPOT, CDUSPOT +2, AND CDUSPOT +4; ODD
000200:                                                                                                  #  LOCATIONS NEED NOT BE ZEROED).  TRG*NBSM DOES THE NB TO SM TRANSFOR-
000201:                                                                                                  #  MATION; TRG*SMNB, VICE VERSA.
000202:
000203:                                                                                                  #  CDU*NBSM DOES ITS TRANSFORMATION USING THE PRESENT CONTENTS OF
000204:                                                                                                  #  THE CDU COUNTERS.  OTHERWISE IT IS LIKE TRG*NBSM.
000205:
000206:                                                                                                  #  CDU*SMNB IS THE COMPLEMENT OF CDU*NBSM.
000207:
000208: 23,3554           77776        CDU*SMNB           EXIT
000209: 23,3555           03442                           TC       CDUTRIGS
000210: 23,3556           13561                           TCF      C*MM*N1
000211:
000212: 23,3557           77776        TRG*SMNB           EXIT
000213: 23,3560           03450                           TC       CD*TR*GS
000214: 23,3561           07501        C*MM*N1            TC       MPACVBUF                              #  AX*SR*T EXPECTS VECTOR IN VBUF
000215: 23,3562           46214                           CS       THREE                                 #  SIGNAL FOR SM TO NB TRANSFORMATION
000216: 23,3563           03603        C*MM*N2            TC       AX*SR*T
000217: 23,3564           06006                           TC       INTPRET
000218: 23,3565           43575                           VLOAD    RVQ
000219: 23,3566           00123                                    VBUF
000220:
000221: 23,3567           77776        CDU*NBSM           EXIT
000222: 23,3570           03442                           TC       CDUTRIGS
000223:


000225:
000226: 23,3571           13574                           TCF      C*MM*N3
000227:
000228: 23,3572           77776        TRG*NBSM           EXIT
000229: 23,3573           03450                           TC       CD*TR*GS
000230: 23,3574           07501        C*MM*N3            TC       MPACVBUF                              #  FOR AX*SR*T
000231: 23,3575           36214                           CA       THREE                                 #  SIGNAL FOR NB TO SM TRANSFORMATION
000232: 23,3576           13563                           TCF      C*MM*N2
000233:
000234:                                                                                                  #  *NBSM* AND *SMNB* EXPECT TO SEE THE SINES AND COSINES (AT SINCDU
000235:                                                                                                  #  AND COSCDU) RATHER THAN THE ANGLES THEMSELVES.  OTHERWISE THEY ARE
000236:                                                                                                  #  LIKE TRG*NBSM AND TRG*SMNB.
000237:
000238:                                                                                                  #  NOTE THAT JUST AS CD*TR*GS NEED BE CALLED ONLY ONCE FOR EACH SERIES
000239:                                                                                                  #  OF TRANSFORMATIONS USING THE SAME ANGLES, SO TOO ONLY ONE OF TRG*NBSM
000240:                                                                                                  #  AND TRG*SMNB NEED BE CALLED FOR EACH SERIES.  FOR SUBSEQUENT TRANSFOR-
000241:                                                                                                  #  MATIONS USE *NBSM* AND *SMNB*.
000242:
000243: 23,3577           77776        *SMNB*             EXIT
000244: 23,3600           13561                           TCF      C*MM*N1
000245:
000246: 23,3601           77776        *NBSM*             EXIT
000247: 23,3602           13574                           TCF      C*MM*N3
000248:
000249:                                                                                                  #  AX*SR*T COMBINES THE OLD SMNB AND NBSM.  FOR THE NB TO SM
000250:                                                                                                  #  TRANSFORMATION, ENTER WITH +3 IN A.  FOR SM TO NB, ENTER WITH -3.
000251:                                                                                                  #  THE VECTOR TO BE TRANSFORMED ARRIVES, AND IS RETURNED, IN VBUF.
000252:                                                                                                  #  AX*SR*T EXPECTS TO FIND THE SINES AND COSINES OF THE ANGLES OF ROTATION
000253:                                                                                                  #  AT SINCDU AND COSCDU, IN THE ORDER Y Z X.  A CALL TO CD*TR*GS, WITH
000254:                                                                                                  #  THE 2'S COMPLEMENT ANGLES (ORDER Y Z X) AT CDUSPOT, WILL TAKE CARE OF
000255:                                                                                                  #  THIS.  HERE IS A SAMPLE CALLING SEQUENCE:-
000256:                                                                                                  #                TC      CDUTRIGS
000257:                                                                                                  #                CS      THREE           ("CA THREE" FOR NBSM)
000258:                                                                                                  #                TC      AX*SR*T
000259:                                                                                                  #  THE CALL TO CD*TR*GS NEED NOT BE REPEATED, WHEN AX*SR*T IS CALLED MORE
000260:                                                                                                  #  THAN ONCE, UNLESS THE ANGLES HAVE CHANGED.
000261:
000262:                                                                                                  #  AX*SR*T IS GUARANTEED SAFE ONLY FOR VECTORS OF MAGNITUDE LESS THAN
000263:                                                                                                  #  UNITY.  A LOOK AT THE CASE IN WHICH A VECTOR OF GREATER MAGNITUDE
000264:                                                                                                  #  HAPPENS TO LIE ALONG AN AXIS OF THE SYSTEM TO WHICH IT IS TO BE TRANS-
000265:                                                                                                  #  FORMED CONVINCES ONE THAT THIS IS A RESTRICTION WHICH MUST BE ACCEPTED.
000266:
000267: 23,3603           54142        AX*SR*T            TS       DEXDEX                                #  WHERE IT BECOMES THE INDEX OF INDEXES
000268: 23,3604           00006                           EXTEND
000269: 23,3605           22145                           QXCH     RTNSAVER
000270:
000271: 23,3606           10142        R*TL**P            CCS      DEXDEX                                #                +3 --> 0        -3 --> 2
000272: 23,3607           40142                           CS       DEXDEX                                #  THUS:         +2 --> 1        -2 --> 1
000273: 23,3610           66214                           AD       THREE                                 #                +1 --> 2        -1 --> 0


000275: 23,3611           00006                           EXTEND
000276: 23,3612           50000                           INDEX    A
000277: 23,3613           33672                           DCA      INDEXI
000278: 23,3614           52144                           DXCH     DEXI
000279:
000280: 23,3615           34712                           CA       ONE
000281: 23,3616           54130                           TS       BUF
000282: 23,3617           00006                           EXTEND
000283: 23,3620           50143                           INDEX    DEX1
000284: 23,3621           40123                           DCS      VBUF
000285: 23,3622           13624                           TCF      LOOP1                                 #  REALLY BE A SUBTRACT, AND VICE VERSA
000286:
000287: 23,3623           52131        LOOP2              DXCH     BUF                                   #  LOADING VECTOR COMPONENT, STORING INDEX
000288:
000289: 23,3624           52155        LOOP1              DXCH     MPAC
000290: 23,3625           33670                           CA       SINESLOC
000291: 23,3626           60143                           AD       DEX1
000292: 23,3627           54116                           TS       ADDRWD
000293:
000294: 23,3630           07056                           TC       DMPSUB                                #  MULTIPLY BY SIN(CDUANGLE)
000295: 23,3631           10142                           CCS      DEXDEX
000296: 23,3632           52155                           DXCH     MPAC                                  #  NBSM CASE
000297: 23,3633           13636                           TCF      +3
000298: 23,3634           00006                           EXTEND                                         #  SMNB CASE
000299: 23,3635           40155                           DCS      MPAC
000300: 23,3636           52134                           DXCH     TERM1TMP
000301:
000302: 23,3637           36211                           CA       SIX                                   #  SINCDU AND COSCDU (EACH 6 WORDS) MUST
000303: 23,3640           26116                           ADS      ADDRWD                                #        BE CONSECUTIVE AND IN THAT ORDER
000304:
000305: 23,3641           00006                           EXTEND
000306: 23,3642           50130                           INDEX    BUF
000307: 23,3643           50143                           INDEX    DEX1
000308: 23,3644           30123                           DCA      VBUF
000309: 23,3645           52155                           DXCH     MPAC
000310: 23,3646           07056                           TC       DMPSUB                                #  MULTIPLY BY COS(CDUANGLE)
000311: 23,3647           52155                           DXCH     MPAC
000312: 23,3650           20134                           DAS      TERM1TMP
000313: 23,3651           52134                           DXCH     TERM1TMP
000314: 23,3652           20001                           DDOUBL
000315: 23,3653           50130                           INDEX    BUF
000316: 23,3654           50143                           INDEX    DEX1
000317: 23,3655           52123                           DXCH     VBUF
000318: 23,3656           52131                           DXCH     BUF                                   #  LOADING INDEX, STORING VECTOR COMPONENT
000319: 23,3657           10000                           CCS      A                                     #  'CAUSE THAT'S WHERE THE INDEX NOW IS
000320: 23,3660           13623                           TCF      LOOP2
000321:
000322: 23,3661           00006                           EXTEND
000323: 23,3662           26142                           DIM      DEXDEX                                #  DECREMENT MAGNITUDE PRESERVING SIGN
000324:


000326: 23,3663           10142        TSTPOINT           CCS      DEXDEX                                #  ONLY THE BRANCHING FUNCTION IS USED
000327: 23,3664           13606                           TCF      R*TL**P
000328: 23,3665           00145                           TC       RTNSAVER
000329: 23,3666           13606                           TCF      R*TL**P
000330: 23,3667           00145                           TC       RTNSAVER
000331:
000332: 23,3670           00736        SINESLOC           ADRES    SINCDU                                #  FOR USE IN SETTING ADDRWD
000333:
000334: 23,3671           00004        INDEXI             DEC      4          B-14                       #  **********   DON'T   **********
000335: 23,3672           00002                           DEC      2          B-14                       #  **********   TOUCH   **********
000336: 23,3673           00000                           DEC      0          B-14                       #  **********   THESE   **********
000337: 23,3674           00004                           DEC      4          B-14                       #  ********** CONSTANTS **********
000338:
000339:                                                                                                  #  ****************************************************************************************************************


000341:                                                                                                  #  THIS SUBROUTINE COMPUTES INCREMENTAL CHANGES IN CDU(GIMBAL) ANGLES FROM INCREMENTAL CHANGES ABOUT SM AXES.  IT
000342:                                                                                                  #  REQUIRES SM INCREMENTS AS A DP VECTOR SCALED AT ONE REVOLUTION(DTHETASM,+2,+4).  SIN,COS(CDUY,Z,X) ARE IN
000343:                                                                                                  #  SINCDU,+2,+4 AND COSCDU,+2,+4 RESPECTIVELY, SCALED TO ONE HALF.  CDU INCREENTS ARE PLACED IN DCDU,+2,+4 SCALED TO
000344:                                                                                                  #  ONE REVOLUTION.
000345:
000346:                                                                                                  #        *  COS(IGA)SEC(MGA)             0               -SIN(IGA)SEC(MGA) *
000347:                                                                                                  #        *                                                                 *
000348:                                                                                                  #        * -COS(IGA)TAN(MGA)             1                SIN(IGA)TAN(MGA) *
000349:                                                                                                  #        *                                                                 *
000350:                                                                                                  #        *      SIN(IGA)                 0                    COS(IGA)     *
000351:
000352: 14,3405                                           BANK     14
000353: 23,2000                                           SETLOC   POWFLIT1
000354: 23,2000                                           BANK
000355:
000356: 23,3675           41345        SMCDURES           DLOAD    DMP
000357: 23,3676           03212                                    DTHETASM
000358: 23,3677           00745                                    COSCDUY
000359:
000360: 23,3700           41325                           PDDL     DMP
000361: 23,3701           03216                                    DTHETASM   +4
000362: 23,3702           00737                                    SINCDUY
000363:
000364: 23,3703           77621                           BDSU
000365: 23,3704           77671                           DDV
000366: 23,3705           00747                                    COSCDUZ
000367: 23,3706           03204                           STORE    DCDU
000368:
000369: 23,3707           72405                           DMP      SL1                                   #  SCALE
000370: 23,3710           00741                                    SINCDUZ
000371: 23,3711           77621                           BDSU
000372:
000373: 23,3712           03214                                    DTHETASM   +2
000374: 23,3713           17206                           STODL    DCDU       +2
000375: 23,3714           03212                                    DTHETASM
000376:
000377: 23,3715           65205                           DMP      PDDL
000378: 23,3716           00737                                    SINCDUY
000379: 23,3717           03216                                    DTHETASM   +4
000380:
000381: 23,3720           43205                           DMP      DAD
000382: 23,3721           00745                                    COSCDUY
000383: 23,3722           77752                           SL1
000384: 23,3723           03210                           STORE    DCDU       +4
000385: 23,3724           77616                           RVQ
000386:

End of include-file POWERED_FLIGHT_SUBROUTINES.agc.  Parent file is MAIN.agc


