
Source Code


000002:                                                                                                  #  Copyright:    Public domain.
000003:                                                                                                  #  Filename:     R30.agc
000004:                                                                                                  #  Purpose:      Part of the source code for Colossus, build 249.
000005:                                                                                                  #                It is part of the source code for the Command Module's (CM)
000006:                                                                                                  #                Apollo Guidance Computer (AGC), possibly for Apollo 8 and 9.
000007:                                                                                                  #  Assembler:    yaYUL
000008:                                                                                                  #  Reference:    pp. 507-517 of 1701.pdf.
000009:                                                                                                  #  Contact:      Ron Burkey <info@sandroid.org>.
000010:                                                                                                  #  Website:      www.ibiblio.org/apollo.
000011:                                                                                                  #  Mod history:  08/02/04 RSB.   Adapted from corresponding Luminary131 file.
000012:
000013:                                                                                                  #  The contents of the "Colossus249" files, in general, are transcribed
000014:                                                                                                  #  from a scanned document obtained from MIT's website,
000015:                                                                                                  #  http://hrst.mit.edu/hrs/apollo/public/archive/1701.pdf.  Notations on this
000016:                                                                                                  #  document read, in part:
000017:
000018:                                                                                                  #        Assemble revision 249 of AGC program Colossus by NASA
000019:                                                                                                  #        2021111-041.  October 28, 1968.
000020:
000021:                                                                                                  #        This AGC program shall also be referred to as
000022:                                                                                                  #                                Colossus 1A
000023:
000024:                                                                                                  #        Prepared by
000025:                                                                                                  #                        Massachusetts Institute of Technology
000026:                                                                                                  #                        75 Cambridge Parkway
000027:                                                                                                  #                        Cambridge, Massachusetts
000028:                                                                                                  #        under NASA contract NAS 9-4065.
000029:
000030:                                                                                                  #  Refer directly to the online document mentioned above for further information.
000031:                                                                                                  #  Please report any errors (relative to 1701.pdf) to info@sandroid.org.
000032:
000033:                                                                                                  #  In some cases, where the source code for Luminary 131 overlaps that of
000034:                                                                                                  #  Colossus 249, this code is instead copied from the corresponding Luminary 131
000035:                                                                                                  #  source file, and then is proofed to incorporate any changes.
000036:
000037:                                                                                                  #  Page 507
000038:                                                                                                  #  SUBROUTINE NAME:  V82CALL
000039:                                                                                                  #  MOD NO: 0                                     DATE: 16 FEB 67
000040:                                                                                                  #  MOD BY: R. R. BAIRNSFATHER                    LOG SECTION:  R30
000041:                                                                                                  #  MOD NO: 1     MOD BY:  R. R. BAIRNSFATHER     DATE: 11 APR 67         SR30.1 CHANGED TO ALLOW MONITOR OPERN
000042:                                                                                                  #  MOD NO: 2     MOD BY:  ALONSO                 DATE: 11 DEC 67         VB82 PROGRAM REWRITTEN
000043:                                                                                                  #  MOD NO: 3     MOD BY:  ALONSO                 DATE: 26 MAR 68         PROG MOD TO HANDLE DIF EARTH/MOON SCALE
000044:
000045:                                                                                                  #  NEW FUNCTIONAL DESCRIPTION:   CALLED BY VERB 82 ENTER.  PRIORITY 10.
000046:                                                                                                  #  USED THROUGHOUT.              CALCULATE AND DISPLAY ORBITAL PARAMETERS
000047:
000048:                                                                                                  #  1.    IF AVERAGE G IS OFF:
000049:                                                                                                  #                FLASH DISPLAY V04N06.  R2 INDICATES WHICH SHIP'S STATE VECTOR IS
000050:                                                                                                  #                        TO BE UPDATED.  INITIAL CHOICE IS THIS SHIP (R2-1).  ASTRONAUT
000051:                                                                                                  #                        CAN CHANGE TO OTHER SHIP BY V22EXE. WHERE X IS NOT EQ 1.
000052:                                                                                                  #                SELECTED STATE VECTOR UPDATED BY THISPREC (OTHPREC).
000053:                                                                                                  #                CALLS SR30.1 (WHICH CALLS TFFCONMU + TFFRP/RA) TO CALCULATE
000054:                                                                                                  #                        RPER (PERIGEE RADIUS), RAPO (APOGEE RADIUS), HPER (PERIGEE
000055:                                                                                                  #                        HEIGHT ABOVE LAUNCH PAD OR LAUNAR LANDING SITE), HARD (APOGEE
000056:                                                                                                  #                        HEIGHT AS ABOVE), TPER (TIME TO PERIGEE), TFF (TIME TO
000057:                                                                                                  #                        INTERSECT 300 KFT ABOVE PAD OR 36KFT ABOVE LANDING SITE).
000058:                                                                                                  #                FLASH MONITOR V16N44 (HAPO, HPER, TFF).  TFF IS -59MS59S IF IT WAS
000059:                                                                                                  #                        NOT COMPUTABLE, OTHERWISE IT INCREMENTS ONCE PER SECOND.
000060:                                                                                                  #                        ASTRONAUT HAS OPTION TO MONITOR TPER BY KING IN N 32 E.
000061:                                                                                                  #                        DISPLAY IS IN HMS, IS NEGATIVE (AS WAS TFF), AND INCREMENTS
000062:                                                                                                  #                        ONCE PER SECOND ONLY IF TFF DISPLAY WAS -59M59S.
000063:                                                                                                  #        2.      IF AVERAGE G IS ON:
000064:                                                                                                  #                        CALLS SR30.1 APPROX EVERY TWO SECS.  STATE VECTOR IS ALWAYS
000065:                                                                                                  #                                FOR THIS VEHICLE.  V82 DOES NOT DISTURB STATE VECTOR.  RESULTS
000066:                                                                                                  #                                OF SR30.1 ARE RAPO, RPER, HAPO, HPER, TPER, TFF.
000067:                                                                                                  #                        FLASH MONITOR V16N44 (HAPO, HPER, TFF).
000068:                                                                                                  #                        IF MODE IS P11, THEN CALL DELRSPL SO ASTRONAUT CAN MONITOR
000069:                                                                                                  #                                RESULTS BY N50E.  SPLASH COMPUTATION DONE ONCE FOR TWO SECS.
000070:                                                                                                  #        ADDENDUM:  HAPO AND HPER SHOULD BE CHANGED TO READ HAPOX AND HPERX IN THE
000071:                                                                                                  #                ABOVE REMARKS.
000072:
000073:                                                                                                  #  CALLING SEQUENCE: VERB 82 ENTER.
000074:
000075:                                                                                                  #  SUBROUTINES CALLED:   SR30.1, GOXDSPF
000076:                                                                                                  #                        MAYBE -- THISPREC, OTHPREC, LOADTIME, DELRSPL
000077:
000078:                                                                                                  #  NORMAL EXIT MODES:  TC ENDEXT
000079:
000080:                                                                                                  #  ALARMS:  NONE
000081:
000082:                                                                                                  #  OUTPUT:       HAPOX   (-29) M
000083:                                                                                                  #                HPERX   (-29) M
000084:                                                                                                  #                RAPO    (-29) M EARTH
000085:                                                                                                  #                        (-27) M MOON
000086:                                                                                                  #  Page 508
000087:                                                                                                  #                RPER    (-29) M EARTH
000088:                                                                                                  #                        (-27) M MOON
000089:                                                                                                  #                TFF     (-28) CS        CONTAINS NEGATIVE QUANTITY
000090:                                                                                                  #                -TPER   (-28) CS        CONTAINS NEGATIVE QUANTITY
000091:                                                                                                  #                RSP-RREC(-29) M         IF DELRSPL CALLED
000092:
000093:                                                                                                  #  ERASABLE INITIALIZATION REQUIRED:  STATE VECTOR.
000094:
000095:                                                                                                  #  DEBRIS:       QPRET, RONE, VONE, TFF/RTMU, HPERMIN, RPADTEM, V82EMFLG.
000096:                                                                                                  #                MAYBE:  TSTART82, V82FLAGS, TDEC1.
000097:
000098: 13,2176  E4,1751                                  EBANK=   HAPOX
000099: 31,2021                                           BANK     31
000100: 23,2000                                           SETLOC   R30LOC
000101: 23,2000                                           BANK
000102: 23,2332                                           COUNT*   $$/R30
000103:
000104: 23,2332           06006        V82CALL            TC       INTPRET
000105: 23,2333           52014                           BON      GOTO
000106: 23,2334           00716                                    AVEGFLAG
000107: 23,2335           46566                                    V82GON                                #  IF AVERAGE G ON
000108: 23,2336           46337                                    V82GOFF                               #  IF AVERAGE G OFF
000109:
000110: 23,2337           77776        V82GOFF            EXIT                                           #  ALLOW ASTRONAUT TO SELECT VEHICLE
000111: 23,2340           34711                           CAF      TWO                                   #  DESIRED FOR ORBITAL PARAMETERS
000112: 23,2341           55051                           TS       OPTIONX
000113: 23,2342           34712                           CAF      ONE
000114: 23,2343           55052                           TS       OPTIONX    +1
000115: 23,2344           32406                           CAF      OPTIONVN                              #  V 04 N 06
000116: 23,2345           04555                           TC       BANKCALL
000117: 23,2346           20465                           CADR     GOXDSPF
000118: 23,2347           05423                           TC       ENDEXT                                #  TERMINATE
000119: 23,2350           02352                           TC       +2                                    #  PROCEED
000120: 23,2351           02344                           TC       -5                                    #  DATA IN.  OPTION1+1 = 1 FOR THIS VEHICLE
000121:                                                                                                  #                UNEQ 1 FOR OTHER VEHICLE
000122: 23,2352           34707                           CAF      BIT4                                  #  80 MS
000123: 23,2353           05140                           TC       WAITLIST
000124: 23,2354  E4,1743                                  EBANK=   TFF
000125: 23,2354           02531 46064                     2CADR    TICKTEST
000126:
000127: 23,2356           00003                           RELINT
000128: 23,2357           32410        V82GOFLP           CAF      TFFBANK                               #  MAJOR RECYCLE LOOP ENTRY
000129: 23,2360           54003                           TS       EBANK
000130: 23,2361           34714                           CAF      ZERO
000131: 23,2362           55742                           TS       V82FLAGS                              #  ZERO FLAGS FOR TICKTEST, INHIBITS
000132:                                                                                                  #  DECREMENTING OF TFF AND -TPER.
000133: 23,2363           34756                           CAF      PRIO7
000134: 23,2364           05042                           TC       FINDVAC                               #  V82GOFF1 WILL EXECUTE STATE VECTOR
000135:                                                                                                  #  Page 509
000136: 23,2365  E4,1743                                  EBANK=   TFF                                   #  UPDATE AND ORBIT CALCULATIONS FOR
000137: 23,2365           02411 46064                     2CADR    V82GOFF1                              #  SELECTED VEHICLE ABOUT PROPER BODY.
000138:
000139: 23,2367           00003                           RELINT
000140: 23,2370           36214        V82STALL           CAF      THREE                                 #  STALL IN THIS LOOP AND WITHOLD V 16 N 44
000141: 23,2371           71742                           MASK     V82FLAGS                              #  UNTIL STATE VECTOR UPDATE SETS ONE OF
000142: 23,2372           10000                           CCS      A                                     #  OUR FLAG BITS.
000143: 23,2373           02400                           TC       FLAGGON                               #  EXIT FROM STALL LOOP.
000144: 23,2374           34734                           CAF      1SEC
000145: 23,2375           04555                           TC       BANKCALL
000146: 23,2376           01732                           CADR     DELAYJOB
000147: 23,2377           02370                           TC       V82STALL
000148:
000149: 23,2400           32407        FLAGGON            CAF      V16N44                                #  MONITOR HAPO,HPER,TFF.
000150: 23,2401           04555                           TC       BANKCALL
000151: 23,2402           20465                           CADR     GOXDSPF
000152: 23,2403           05514                           TC       B5OFF                                 #  TERM. THIS TELLS TICKTEST TO KILL ITSELF
000153: 23,2404           05514                           TC       B5OFF                                 #  PROCEED.  DITTO
000154: 23,2405           02357                           TC       V82GOFLP                              #  RECYCLE.  RECOMPUTE STATE VECT + DISPLAY
000155:
000156: 23,2406           01014        OPTIONVN           VN       0412
000157: 23,2407           04054        V16N44             VN       1644
000158: 23,2410           02343        TFFBANK            ECADR    TFF
000159:
000160: 23,2411           06006        V82GOFF1           TC       INTPRET
000161: 23,2412           77634                           RTB
000162: 23,2413           45505                                    LOADTIME
000163: 23,2414           00041                           STORE    TDEC1                                 #  TIME FOR STATE VECTOR UPDATE.
000164: 23,2415           02325                           STORE    TSTART82                              #  TIME FOR INTERNAL USE.
000165: 23,2416           77776                           EXIT
000166: 23,2417           41052                           CS       OPTIONX    +1                         #  1 FOR THIS VEHICLE, NOT 1 FOR OTHER.
000167: 23,2420           64712                           AD       ONE
000168: 23,2421           00006                           EXTEND
000169: 23,2422           12446                           BZF      THISSHIP
000170: 23,2423           06006        OTHSHIP            TC       INTPRET
000171: 23,2424           77624                           CALL                                           #  CALL STATE VECTOR UPDATE FOR OTHER SHIP.
000172: 23,2425           27036                                    OTHPREC
000173: 23,2426           77775        BOTHSHIP           VLOAD                                          #  MOVE RESULTS INTO TFFCONIC STORAGE AREAS
000174: 23,2427           00001                                    RATT                                  #  TO BE CALLED BY SR30.1.
000175: 23,2430           26327                           STOVL    RONE                                  #  RATT AT (-29)M FOR EARTH OR MOON.
000176: 23,2431           00007                                    VATT
000177: 23,2432           02335                           STORE    VONE                                  #  VATT AT (-7)M/CS FOR EARTH OR MOON
000178: 23,2433           77743                           DLOAD*
000179: 23,2434           71321                                    1/RTMUE,2                             #  X2 IS 0 FOR EARTH CENTERED STATE VEC
000180: 23,2435           00037                           STORE    TFF/RTMU                              #  X2 IS 2 FOR MOON
000181: 23,2436           77743                           DLOAD*                                         #  AS LEFT BY THISPREC OR OTHPREC.
000182: 23,2437           71315                                    MINPERE,2
000183: 23,2440           02321                           STORE    HPERMIN                               #  TFFRTMU, HPERMIN, AND RPADTEM ARE ALL
000184: 23,2441           46135                           SLOAD    BHIZ                                  #  EARTH/MOON PARAMETERS AS SET HERE.
000185:                                                                                                  #  Page 510
000186: 23,2442           00050                                    X2
000187: 23,2443           46463                                    EARTHPAD
000188: 23,2444           77650                           GOTO
000189: 23,2445           46467                                    MOONPAD
000190: 23,2446           06006        THISSHIP           TC       INTPRET
000191: 23,2447           77624                           CALL                                           #  CALL STATE VECTOR UPDATE FOR THIS SHIP.
000192: 23,2450           27022                                    THISPREC
000193: 23,2451           77650                           GOTO
000194: 23,2452           46426                                    BOTHSHIP
000195:
000196:                                                                                                  #  THE FOLLOWING CONSTANTS ARE PAIRWISE INDEXED.  DO NOT SEPARATE PAIRS.
000197:
000198: 23,2453           27533 07571  1/RTMUM            2DEC*    .45162595  E-4        B14*
000199: 23,2455           25004 06702  1/RTMUE            2DEC*    .50087529  E-5        B17*
000200:
000201: 23,2457           00001 11530  MINPERM            2DEC     10668      B-27                       #  35 KFT MIN PERIGEE HEIGHT FOR MOON(-29)M
000202: 23,2461           00002 31230  MINPERE            2DEC     91440      B-29                       #  300 KFT (-29)M FOR EARTH
000203:
000204: 23,2463           43145        EARTHPAD           DLOAD    CLRGO                                 #  PAD 37-B RADIUS.  SCALED AT (-29)M
000205: 23,2464           05311                                    RPAD
000206: 23,2465           04622                                    V82EMFLG                              #  INDICATE EARTH SCALING FOR SR30.1
000207: 23,2466           46473                                    BOTHPAD
000208:
000209: 23,2467           51575        MOONPAD            VLOAD    ABVAL                                 #  COMPUTE MOON PAD RADIUS FROM RLS VECTOR.
000210: 23,2470           02026                                    RLS                                   #  SCALED AT (-27)M
000211: 23,2471           77614                           SET
000212: 23,2472           04462                                    V82EMFLG                              #  INDICATE MOON SCALING FOR SR30.1
000213: 23,2473           36323        BOTHPAD            STCALL   RPADTEM
000214: 23,2474           46667                                    SR30.1                                #  CALCULATE ORBITAL PARAMETERS
000215: 23,2475           77776                           EXIT
000216: 23,2476           31011                           CA       MODREG                                #  ARE WE IN P00
000217: 23,2477           00006                           EXTEND
000218: 23,2500           12645                           BZF      CANDEL                                #  YES, DO DELRSPL
000219: 23,2501           06006        SPLRET1            TC       INTPRET
000220: 23,2502           45234                           RTB      DSU
000221: 23,2503           45505                                    LOADTIME
000222: 23,2504           02325                                    TSTART82                              #  PRESENT TIME -- TIME V82GOFF1 BEGAN
000223: 23,2505           02325                           STORE    TSTART82                              #                  SAVE IT
000224: 23,2506           53145                           DLOAD    BZE                                   #  SR30.1 SETS -TPER=0 IF HPER L/
000225: 23,2507           02346                                    -TPER                                 #  HPERMIN (300 OR 35) KFT.
000226: 23,2510           46521                                    TICKTFF                               #  (-TPER = 0)
000227: 23,2511           43345        TICKTPER           DLOAD    DAD                                   #  (-TPER NON ZERO) TFF WAS NOT COMPUTED.
000228: 23,2512           02346                                    -TPER                                 #  BUT WAS SET TO 59M59S.  DON'T DICK TFF, DO
000229: 23,2513           02325                                    TSTART82                              #  TICK -TPER.  DISPLAY BOTH.
000230: 23,2514           02346                           STORE    -TPER
000231: 23,2515           77776                           EXIT
000232:
000233:                                                                                                  #  Page 511
000234: 23,2516           34712                           CAF      BIT1
000235: 23,2517           55742                           TS       V82FLAGS                              #  INFORMS TICKTEST TO INCREMENT ONLY -TPER
000236: 23,2520           05112                           TC       ENDOFJOB
000237:
000238: 23,2521           43345        TICKTFF            DLOAD    DAD                                   #  (-TPER=0) TFF WAS COMPUTED.  TICK TFF.
000239: 23,2522           02344                                    TFF                                   #  DO NOT TICK -TPER.  DISPLAY TFF, BUT NOT
000240: 23,2523           02325                                    TSTART82                              #  -TPER
000241: 23,2524           02344                           STORE    TFF                                   #  TFF CORRECTED FOR TIME SINCE V82GOFF1
000242: 23,2525           77776                           EXIT                                           #  BEGAN.
000243: 23,2526           34711                           CAF      BIT2
000244: 23,2527           55742                           TS       V82FLAGS                              #  INFORMS TICKTEST TO INCREMENT ONLY TFF.
000245: 23,2530           05112                           TC       ENDOFJOB
000246:
000247: 23,2531           34706        TICKTEST           CAF      BIT5                                  #  THIS WAITLIST PROGRAM PERPETUATES ITSELF
000248: 23,2532           71044                           MASK     EXTVBACT                              #  ONCE A SEC UNTIL BIT 5 OF EXTVBACT =0.
000249: 23,2533           10000                           CCS      A
000250: 23,2534           02542                           TC       DOTICK
000251: 23,2535           37662                           CAF      PRIO25
000252: 23,2536           05027                           TC       NOVAC                                 #  TERMINATE V 82.  CAN'T CALL ENDEXT IN RUPT.
000253: 23,2537     1044                                  EBANK=   EXTVBACT
000254: 23,2537           05423 04062                     2CADR    ENDEXT
000255:
000256: 23,2541           05213                           TC       TASKOVER
000257: 23,2542           34734        DOTICK             CAF      1SEC                                  #  RE-REQUEST TICKTEST.
000258: 23,2543           05140                           TC       WAITLIST
000259: 23,2544  E4,1743                                  EBANK=   TFF
000260: 23,2544           02531 46064                     2CADR    TICKTEST
000261:
000262: 23,2546           36214                           CAF      THREE
000263: 23,2547           71742                           MASK     V82FLAGS
000264: 23,2550           50000                           INDEX    A
000265: 23,2551           02552                           TC       +1
000266: 23,2552           05213                           TC       TASKOVER                              #  IF NO FLAGBITS SET DONT' CHANGE TFF OR
000267:                                                                                                  #  -TPER, BUT CONTINUE LOOP.
000268: 23,2553           02561                           TC       TPERTICK                              #  ONLY BIT 1 SET.  INCR -TPER BY 1 SEC.
000269: 23,2554           34734        TFFTICK            CAF      1SEC                                  #  ONLY BIT 2 SET.  INCR TFF BY 1 SEC.
000270: 23,2555           54001                           TS       L
000271: 23,2556           34714                           CAF      ZERO
000272: 23,2557           21744                           DAS      TFF
000273: 23,2560           05213                           TC       TASKOVER
000274: 23,2561           34734        TPERTICK           CAF      1SEC
000275: 23,2562           54001                           TS       L
000276: 23,2563           34714                           CAF      ZERO
000277: 23,2564           21746                           DAS      -TPER
000278: 23,2565           05213                           TC       TASKOVER
000279:
000280:                                                                                                  #  Page 512
000281: 23,2566           77776        V82GON             EXIT                                           #  AVERAGE G ON.  USE CURRENT STATE VECTOR
000282:                                                                                                  #  FOR ORBITAL PARAMETER CALCULATIONS.
000283: 23,2567           34756                           CAF      PRIO7                                 #  LESS THAN LAMBERT
000284: 23,2570           05042                           TC       FINDVAC                               #  V82GON1 WILL PERFORM ORBIT CALCULATIONS
000285: 23,2571  E4,1743                                  EBANK=   TFF                                   #  ABOUT PROPER BODY APPROX ONCE PER SEC.
000286: 23,2571           02604 46064                     2CADR    V82GON1
000287:
000288: 23,2573           00003                           RELINT
000289: 23,2574           10067                           CCS      NEWJOB                                #  WITHOLD V16 N44 UNTIL FIRST ORBIT CALC
000290: 23,2575           05057                           TC       CHANG1                                #  IS DONE.  NOTE:  V82GON1 (PRIO7, FINDVAC
000291:                                                                                                  #  JOB) IS COMPLETED BEFORE V82GON (PRIO7,
000292:                                                                                                  #  NOVAC JOB).
000293: 23,2576           32407        V82REDSP           CAF      V16N44                                #  MONITOR HAPO, HPER, TFF
000294: 23,2577           04555                           TC       BANKCALL
000295: 23,2600           20465                           CADR     GOXDSPF
000296: 23,2601           05514                           TC       B5OFF                                 #  TERM THIS TELLS V82GON1 TO KILL ITSELF.
000297: 23,2602           05514                           TC       B5OFF                                 #  PROC DITTO.
000298: 23,2603           02576                           TC       V82REDSP                              #  RECYCLE
000299:
000300: 23,2604           06006        V82GON1            TC       INTPRET                               #  THIS EXEC PROGRAM PERPETUATES ITSELF
000301:                                                                                                  #  ONCE A SEC UNTIL BIT 5 OF EXTVBACT =0.
000302: 23,2605           52175                           VLOAD    GOTO                                  #  HOLDS OFF CCS NEWJOB BETWEEN RN AND
000303: 23,2606           01171                                    RN                                    #  VN FETCH SO RN, VN ARE FROM SAME
000304: 23,2607           46610                                    NEXTLINE                              #  STATE VECTOR UPDATE.
000305: 23,2610           26327        NEXTLINE           STOVL    RONE                                  #  RN AT (-29)M FOR EARTH OR MOON
000306: 23,2611           01177                                    VN
000307: 23,2612           02335                           STORE    VONE                                  #  VN AT (-7)M/CS FOR EARTH OR MOON
000308: 23,2613           52014                           BON      GOTO
000309: 23,2614           04303                                    MOONTHIS                              #  FLAG INDICATES BODY ABOUT WHICH ORBITAL
000310: 23,2615           46617                                    MOONGON                               #  CALCULATIONS ARE TO BE PERFORMED.
000311: 23,2616           46630                                    EARTHGON                              #  IF SET -- MOON, IF RESET --EARTH.
000312:
000313: 23,2617           71214        MOONGON            SET      DLOAD
000314: 23,2620           04462                                    V82EMFLG                              #  FLAG INDICATES BODY ABOUT WHICH ORBITAL
000315: 23,2621           06454                                    1/RTMUM                               #  LUNAR PARAMETERS LOADED HERE FOR SR30.1
000316: 23,2622           14037                           STODL    TFF/RTMU
000317: 23,2623           06460                                    MINPERM
000318: 23,2624           26321                           STOVL    HPERMIN
000319: 23,2625           02026                                    RLS                                   #  SCALED AT (-27)M
000320: 23,2626           52046                           ABVAL    GOTO
000321: 23,2627           46637                                    V82GON2
000322: 23,2630           71214        EARTHGON           CLEAR    DLOAD
000323: 23,2631           04662                                    V82EMFLG                              #  INDICATE EARTH SCALING FOR SR30.1
000324: 23,2632           06456                                    1/RTMUE                               #  EARTH PARAMETERS LOADED HERE FOR SR30.1
000325: 23,2633           14037                           STODL    TFF/RTMU
000326: 23,2634           06462                                    MINPERE
000327: 23,2635           16321                           STODL    HPERMIN
000328: 23,2636           05311                                    RPAD
000329: 23,2637           36323        V82GON2            STCALL   RPADTEM                               #  COMMON CODE FOR EARTH & MOON.
000330: 23,2640           46667                                    SR30.1
000331:                                                                                                  #  Page 513
000332: 23,2641           77776                           EXIT
000333: 23,2642           05253                           TC       CHECKMM
000334: 23,2643           00013                           DEC      11         B-14
000335: 23,2644           02657                           TC       V82GON3                               #  NOT IN MODE 11.
000336: 23,2645           06006        CANDEL             TC       INTPRET                               #  IN MODE 11 OR 00
000337: 23,2646           77624                           CALL
000338: 23,2647           27371                                    INTSTALL                              #  DELRSPL DOES INTWAKE
000339: 23,2650           45145                           DLOAD    CALL
000340: 23,2651           02344                                    TFF
000341: 23,2652           64017                                    DELRSPL                               #  RETURN IS TO NEXT LINE (SPLRET).
000342: 23,2653           77776        SPLRET             EXIT
000343:
000344: 23,2654           31011                           CA       MODREG
000345: 23,2655           00006                           EXTEND
000346: 23,2656           12501                           BZF      SPLRET1
000347: 23,2657           34706        V82GON3            CAF      BIT5
000348: 23,2660           71044                           MASK     EXTVBACT                              #  SEE IF ASTRONAUT HAS SIGNALLED TERMINATE
000349: 23,2661           00006                           EXTEND
000350: 23,2662           15423                           BZF      ENDEXT                                #  YES, TERMINATE VB 82 LOOP
000351: 23,2663           34734                           CAF      1SEC
000352: 23,2664           04555                           TC       BANKCALL                              #  WAIT ONE SECOND BEFORE REPEATING
000353: 23,2665           01732                           CADR     DELAYJOB                              #  ORBITAL PARAMETER COMPUTATION.
000354: 23,2666           02604                           TC       V82GON1
000355:
000356:                                                                                                  #  Page 514
000357:                                                                                                  #  SUBROUTINE NAME: SR30.1
000358:                                                                                                  #  MOD NO: 0                                                             DATE: 16 FEB 67
000359:                                                                                                  #  MOD BY: R. R. BAIRNSFATHER                                            LOG SECTION: R32
000360:                                                                                                  #  MOD NO: 1     MOD BY: R. R. BAIRNSFATHER      DATE: 11 APR 67         SR30.1 CHANGED TO ALLOW MONITOR OPERN
000361:                                                                                                  #  MOD NO: 2     MOD BY: R. R. BAIRNSFATHER      DATE: 14 APR 67         ADD OVFL CK FOR RAPO
000362:                                                                                                  #  MOD NO: 3     MOD BY ALONSO                   DATE: 11 DEC 67         SUBROUTINE REWRITTEN
000363:                                                                                                  #  MOD NO: 4     MOD BY ALONSO                   DATE: 26 MAR 68         PROG MOD TO HANDLE DIF EARTH/MOON SCALE
000364:                                                                                                  #  MOD NO: 5     MOD BY: R. R. BAIRNSFATHER      DATE: 6 AUG 68          OVFL CK FOR HAPO & HPER. VOIDS MOD #2.
000365:
000366:                                                                                                  #  NEW FUNCTIONAL DESCRIPTION:  ORBITAL PARAMETERS DISPLAY FOR NOUNS 32 AND 44.
000367:                                                                                                  #  SR30.1 CALLS TFFCONMU AND TFFRP/RA TO CALCULATE RPER (PERIGEE RADIUS),
000368:                                                                                                  #  RAPO (APOGEE RADIUS), HPER (PERIGEE HEIGHT ABOVE LAUNCH PAD OR LUNAR
000369:                                                                                                  #  LANDING SITE), HAPO (APOGEE HEIGHT AS ABOVE), TPER (TIME TO PERIGEE),
000370:                                                                                                  #  TFF (TIME TO INTERSECT 300 KFT ABOVE PAD OR 35KFT ABOVE LANDING SITE).
000371:                                                                                                  #  IF HPER IS GREATER THAN OR EQUAL TO HPERMIN, CALCULATES TPER AND STORES
000372:                                                                                                  #  NEGATIVE.  IN -TPER.  OTHERWISE STORES +0 IN -TPER.  WHENEVER TPER IS
000373:                                                                                                  #  CALCULATED, TFF IS NOT COMPUTABLE AND DEFAULTS TO -59MIN 59SEC.  IF HAPO
000374:                                                                                                  #  WOULD EXCEED 9999.9 NM, IT IS LIMITED TO THAT VALUE FOR DISPLAY.
000375:
000376:                                                                                                  #  ADDENDUM:     HAPO AND HPER SHOULD BE CHANGED TO READ HAPOX AND HPERX IN THE
000377:                                                                                                  #                ABOVE REMARKS.
000378:
000379:                                                                                                  #  CALLING SEQUENCE:     CALL
000380:                                                                                                  #                                SR30.1
000381:
000382:                                                                                                  #  SUBROUTINES CALLED:   TFFCONMU, TFFRP/RA, CALCTPER, CALCTFF
000383:
000384:                                                                                                  #  NORMAL EXIT MODE:     CALLING LINE +1 (STILL IN INTERPRETIVE MODE)
000385:
000386:                                                                                                  #  ALARMS:       NONE
000387:
000388:                                                                                                  #  OUTPUT:       RAPO    (-29) M EARTH   APOGEE RADIUS   EARTH CENTERED COORD.
000389:                                                                                                  #                        (-27) M MOON                    MOON CENTERED COORD.
000390:                                                                                                  #                RPER    (-29) M EARTH   PERIGEE RADIUS  EARTH CENTERED COORD.
000391:                                                                                                  #                        (-27) M MOON                    MOON CENTERED COORD.
000392:                                                                                                  #                HAPOX   (-29) M         APOGEE ALTITUDE ABOVE PAD OR LAND. SITE MAX VALUE LIMITED TO 9999.9 NM.
000393:                                                                                                  #                HPERX   (-29) M         PERIGEE ALT. ABOVE PAD OR LAND. SITE    MAX VALUE LIMITED TO 9999.9 NM.
000394:                                                                                                  #                TFF     (-28) CS        TIME TO 300KFT OR 35KFT ALTITUDE
000395:                                                                                                  #                -TPER   (-28) CS        TIME TO PERIGEE
000396:
000397:                                                                                                  #  ERASABLE INITIALIZATION REQUIRED --
000398:                                                                                                  #        TFF/RTMU        (+17) EARTH     RECIPROCAL OF PROPER GRAV CONSTANT FOR
000399:                                                                                                  #                        (+14) MOON      EARTH OR MOON = 1/SQRT(MU).
000400:                                                                                                  #        RONE            (-29) M         STATE VECTOR
000401:                                                                                                  #        VONE            (-7) M/CS       STATE VECTOR
000402:                                                                                                  #        RPADTEM         (-29) M EARTH   RADIUS OF LAUNCH PAD OR LUNAR LANDING
000403:                                                                                                  #                        (-27) M MOON    SITE.
000404:                                                                                                  #        HPERMIN         (-29) M EARTH   (300 OR 35) KFT MINIMUM PERIGEE ALTITUDE
000405:                                                                                                  #                        (-27) M MOON    ABOVE LAUNCH PAD OR LUNAR LANDING SITE.
000406:                                                                                                  #        V82EMFLG        (INT SW BIT)    RESET FOR EARTH, SET FOR MOON.
000407:
000408:                                                                                                  #  DEBRIS:       QPREG, PDL, S2
000409:
000410:                                                                                                  #  Page 515
000411: 23,2667                                           COUNT*   $$/SR30S
000412:
000413: 23,2667           44001        SR30.1             SETPD    STQ                                   #  INITIALIZE PUSHDOWN LIST.
000414: 23,2670           00001                                    0
000415: 23,2671           00051                                    S2
000416:                                                                                                  #  SR30.1 INPUT: RONE AT (-29)M EARTH/MOON
000417:                                                                                                  #                VONE AT (-7)M/CS
000418:                                                                                                  #  TFFCONMU, TFFRP/RA, CALCTPER, AND CALCTFF
000419:                                                                                                  #  CALLS REQUIRE:
000420:                                                                                                  #  EARTH CENTERED (NO RESCALING REQUIRED)
000421:                                                                                                  #        RONE SCALED TO B-29 M
000422:                                                                                                  #        VONE SCALED TO B-7 M/CS
000423:                                                                                                  #  MOON CENTERED (RESCALING REQUIRED)
000424:                                                                                                  #        RONE SCALED TO B-27 M
000425:                                                                                                  #        VONE SCALED TO B-5 M/CS
000426: 23,2672           77214                           BOFF     VLOAD
000427: 23,2673           04742                                    V82EMFLG                              #  OFF FOR EARTH, ON FOR MOON.
000428: 23,2674           46703                                    TFFCALLS
000429: 23,2675           02327                                    RONE
000430: 23,2676           77752                           VSL2
000431: 23,2677           26327                           STOVL    RONE
000432: 23,2700           02335                                    VONE
000433: 23,2701           77752                           VSL2
000434: 23,2702           02335                           STORE    VONE
000435: 23,2703           77624        TFFCALLS           CALL
000436: 23,2704           56751                                    TFFCONMU
000437: 23,2705           77624                           CALL                                           #  TFFRP/RA COMPUTES RAPO,RPER.
000438: 23,2706           57017                                    TFFRP/RA
000439:                                                                                                  #  RETURNS WITH RAPO IN D(MPAC).
000440: 23,2707           77625                           DSU
000441: 23,2710           02323                                    RPADTEM
000442: 23,2711           64414                           BOFF     SR2R                                  #  NEED HAPO AT (-29)M FOR DISPLAY.
000443:                                                                                                  #  IF MOON CENTERED, RESCALE FROM (-27)M.
000444:                                                                                                  #  IF EARTH CENTERED ALREADY AT (-29)M.
000445: 23,2712           04742                                    V82EMFLG
000446: 23,2713           46714                                    +1
000447: 23,2714           77624                           CALL                                           #  IF RAPO > MAXNM, SET RAPO =9999.9 NM.
000448: 23,2715           46754                                    MAXCHK                                #  OTHERWISE STORE (RAPO-RPADTEM) IN HAPO.
000449: 23,2716           16352        STORHAPO           STODL    HAPOX
000450: 23,2717           00017                                    RPER
000451: 23,2720           77625                           DSU
000452: 23,2721           02323                                    RPADTEM                               #  GIVES HPER AT (-29)M EARTH, (-27)M MOON.
000453: 23,2722           00161                           STORE    MPAC       +4                         #  SAVE THIS FOR COMPARISON TO HPERMIN.
000454: 23,2723           64414                           BOFF     SR2R                                  #  NEED HPER AT (-29)M FOR DISPLAY.
000455:                                                                                                  #  IF MOON CENTERED, RESCALE FROM (-27)M.
000456:                                                                                                  #  IF EARTH CENTERED ALREADY AT (-29)M.
000457: 23,2724           04742                                    V82EMFLG                              #  OFF FOR EARTH, ON FOR MOON.
000458: 23,2725           46726                                    +1
000459: 23,2726           77624                           CALL                                           #  IF HPER > MAXNM, SET HPER = 9999.9 NM.
000460: 23,2727           46754                                    MAXCHK
000461:                                                                                                  #  Page 516
000462: 23,2730           16354        STORHPER           STODL    HPERX                                 #  STORE (RPER - RPADTEM) INTO HPERX.
000463: 23,2731           00161                                    MPAC       +4
000464: 23,2732           51025                           DSU      BPL                                   #  HPERMIN AT (-29)M FOR EARTH, (-27)M MOON
000465: 23,2733           02321                                    HPERMIN                               #  IF HPER L/ HPERMIN (300 OR 35) KFT,
000466: 23,2734           46740                                    DOTPER                                #  THEN ZERO INTO -TPER.
000467: 23,2735           52145                           DLOAD    GOTO                                  #  OTHERWISE CALCULATE TPER.
000468: 23,2736           15332                                    HI6ZEROS
000469: 23,2737           46744                                    SKIPTPER
000470: 23,2740           45145        DOTPER             DLOAD    CALL
000471: 23,2741           00017                                    RPER
000472: 23,2742           57055                                    CALCTPER
000473: 23,2743           77676                           DCOMP                                          #  TPER IS PUT NEG INTO -TPER.
000474: 23,2744           16346        SKIPTPER           STODL    -TPER
000475: 23,2745           02321                                    HPERMIN                               #  HPERMIN AT (-29)M FOR EARTH, (-27)M MOON
000476: 23,2746           45015                           DAD      CALL
000477: 23,2747           02323                                    RPADTEM                               #  RPADTEM AT (-29)M FOR EARTH, (-27)M MOON
000478: 23,2750           57060                                    CALCTFF                               #  GIVES 59M59S FOR TFF IF HPER G/
000479: 23,2751           77676                           DCOMP                                          #  HPERMIN + RPADTEM.  (TPER WAS NON ZERO)
000480: 23,2752           36344                           STCALL   TFF                                   #  OTHERWISE COMPUTES TFF.       (GOTO)
000481: 23,2753           00051                                    S2
000482:
000483: 23,2754           51025        MAXCHK             DSU      BPL                                   #  IF C(MPAC) > 9999.9 NM. MPAC = 9999.9 NM.
000484: 23,2755           06764                                    MAXNM
000485: 23,2756           46761                                    +3                                    #  OTHERWISE C(MPAC) - B(MPAC).
000486: 23,2757           43415                           DAD      RVQ
000487: 23,2760           06764                                    MAXNM
000488: 23,2761           43545                 +3        DLOAD    RVQ                                   #  (USED BY P30 -- P37 ALSO)
000489: 23,2762           06764                                    MAXNM
000490:
000491: 23,2763           01065 05603  MAXNM              2OCT     0106505603
000492:
000493:                                                                                                  #  Page 517
000494:
000495:                                                                                                  #  There is no source code on this page --- RSB 2004
000496:
000497:
000498:
000499:

End of include-file R30.agc.  Parent file is MAIN.agc


