
Source Code


000002:                                                                                                  ## Copyright:   Public domain.
000003:                                                                                                  ## Filename:    R31.agc
000004:                                                                                                  ## Purpose:     Part of the source code for Colossus, build 249.
000005:                                                                                                  ##              It is part of the source code for the Command Module's (CM)
000006:                                                                                                  ##              Apollo Guidance Computer (AGC), for Apollo 9.
000007:                                                                                                  ## Assembler:   yaYUL
000008:                                                                                                  ## Reference:   pp. 496-501.
000009:                                                                                                  ## Contact:     Ron Burkey <info@sandroid.org>.
000010:                                                                                                  ## Website:     www.ibiblio.org/apollo.
000011:                                                                                                  ## Mod history: 08/11/04 RSB.   Began adapting from corresponding Luminary131
000012:                                                                                                  ##                              source file.
000013:                                                                                                  ##              2010-10-24 JL   Fixed indentation of last line (interpretive operand).
000014:                                                                                                  ##              2017-01-06 RSB  Page numbers now agree with those on the
000015:                                                                                                  ##                              original harcopy, as opposed to the PDF page
000016:                                                                                                  ##                              numbers in 1701.pdf.
000017:                                                                                                  ##              2017-01-18 RSB  Cross-diff'd comment text (not whitespace)
000018:                                                                                                  ##                              vs the already-proofed corresponding Colossus
000019:                                                                                                  ##                              237 and Comanche 55 source-code files
000020:                                                                                                  ##                              and corrected errors found.
000021:                                                                                                  ##
000022:                                                                                                  ## The contents of the "Colossus249" files, in general, are transcribed
000023:                                                                                                  ## from a scanned copy of the program listing.  Notations on this
000024:                                                                                                  ## document read, in part:
000025:                                                                                                  ##
000026:                                                                                                  ##      Assemble revision 249 of AGC program Colossus by NASA
000027:                                                                                                  ##      2021111-041.  October 28, 1968.
000028:                                                                                                  ##
000029:                                                                                                  ##      This AGC program shall also be referred to as
000030:                                                                                                  ##                              Colossus 1A
000031:                                                                                                  ##
000032:                                                                                                  ##      Prepared by
000033:                                                                                                  ##                      Massachusetts Institute of Technology
000034:                                                                                                  ##                      75 Cambridge Parkway
000035:                                                                                                  ##                      Cambridge, Massachusetts
000036:                                                                                                  ##      under NASA contract NAS 9-4065.
000037:                                                                                                  ##
000038:                                                                                                  ## Refer directly to the online document mentioned above for further information.
000039:                                                                                                  ## Please report any errors (relative to the scanned pages) to info@sandroid.org.
000040:                                                                                                  ##
000041:                                                                                                  ## In some cases, where the source code for Luminary 131 overlaps that of
000042:                                                                                                  ## Colossus 249, this code is instead copied from the corresponding Luminary 131
000043:                                                                                                  ## source file, and then is proofed to incorporate any changes.
000044:


000046: 34,2002                                           BANK     34
000047: 35,2000                                           SETLOC   R31
000048: 35,2000                                           BANK
000049:
000050: 35,3150                                           COUNT*   $$/R31
000051:
000052: 35,3150           34752        R31CALL            CAF      PRIO3
000053: 35,3151           05042                           TC       FINDVAC
000054: 35,3152  E4,1770                                  EBANK=   SUBEXIT
000055: 35,3152           03204 72064                     2CADR    V83CALL
000056:
000057: 35,3154           34734        DSPDELAY           CAF      1SEC
000058: 35,3155           04555                           TC       BANKCALL
000059: 35,3156           01732                           CADR     DELAYJOB
000060: 35,3157           31044                           CA       EXTVBACT
000061: 35,3160           74677                           MASK     BIT12
000062: 35,3161           00006                           EXTEND
000063: 35,3162           13154                           BZF      DSPDELAY
000064:
000065: 35,3163           30105        DISPN5X            CA       FLAGWRD9                              #  TEST R31FLAG (IN SUNDANCE R31FLAG WILL
000066: 35,3164           74707                           MASK     BIT4                                  #        ALWAYS BE SET AS R34 DOES NOT EXIST)
000067: 35,3165           00006                           EXTEND
000068: 35,3166           13171                           BZF      +3
000069: 35,3167           33310                           CAF      V16N54                                #  R31   USE NOUN 54
000070: 35,3170           03172                           TC       +2
000071: 35,3171           33311                           CAF      V16N53                                #  R34   USE NOUN 53
000072: 35,3172           04555                           TC       BANKCALL
000073: 35,3173           20465                           CADR     GOMARKF
000074: 35,3174           05514                           TC       B5OFF
000075: 35,3175           05514                           TC       B5OFF
000076: 35,3176           13163                           TCF      DISPN5X
000077:
000078: 35,3177           06006        V83                TC       INTPRET
000079: 35,3200           77624                           CALL
000080: 35,3201           73426                                    REDOEXTP
000081: 35,3202           77650                           GOTO
000082: 35,3203           73207                                    COMPDISP
000083: 35,3204           06006        V83CALL            TC       INTPRET
000084: 35,3205           77624                           CALL
000085: 35,3206           73312                                    STATEXTP                              #  EXTRAPOLATE STATE VECTORS
000086: 35,3207           52375        COMPDISP           VLOAD    VSU
000087: 35,3210           00001                                    RATT
000088: 35,3211           02327                                    RONE
000089: 35,3212           51406                           PUSH     ABVAL                                 #  RATT-RONE TO 0D       PD= 6
000090: 35,3213           02321                           STORE    RANGE                                 #  METERS B-29
000091: 35,3214           77301                           NORM     VLOAD
000092: 35,3215           00047                                    X1                                    #  RATT-RONE             PD= 0
000093: 35,3216           77762                           VSR1
000094: 35,3217           53457                           VSL*     UNIT


000096: 35,3220           20201                                    0,1
000097: 35,3221           52315                           PDVL     VSU                                   #  UNIT(LOS) TO 0D       PD= 6
000098: 35,3222           00007                                    VATT
000099: 35,3223           02335                                    VONE
000100: 35,3224           77641                           DOT                                            #  (VATT-VONE).UNIT(LOS) PD= 0
000101: 35,3225           77752                           SL1
000102: 35,3226           36323                           STCALL   RRATE                                 #  RANGE RATE M/CS B-7
000103: 35,3227           47432                                    CDUTRIG                               #  TO INITIALIZE FOR *NBSM*
000104: 35,3230           77624                           CALL
000105: 35,3231           62000                                    R34LOS                                #  NOTE.  PDL MUST = 0.
000106: 35,3232           53575        R34ANG             VLOAD    UNIT
000107: 35,3233           02327                                    RONE
000108: 35,3234           77715                           PDVL                                           #  UR TO 0D              PD= 6
000109: 35,3235           15330                                    THISAXIS                              #  UNITX FOR CM, UNITZ FOR LM
000110: 35,3236           77214                           BON      VLOAD                                 #  CHK R31FLAG.  ON=R31 THETA, OFF=R34 PHI
000111: 35,3237           04713                                    R31FLAG
000112: 35,3240           73242                                    +2                                    #  R31-THETA
000113: 35,3241           00015                                    12D
000114: 35,3242           77624                           CALL
000115: 35,3243           47601                                    *NBSM*
000116: 35,3244           41505                           VXM      PUSH                                  #  UXORZ TO 6D           PD=12D
000117: 35,3245           01736                                    REFSMMAT
000118: 35,3246           72431                           VPROJ    VSL2
000119: 35,3247           00001                                    0D
000120: 35,3250           53445                           BVSU     UNIT
000121: 35,3251           00007                                    6D
000122: 35,3252           47315                           PDVL     VXV                                   #  UP/2 TO 12D           PD=18D
000123: 35,3253           02327                                    RONE
000124: 35,3254           02335                                    VONE
000125: 35,3255           47256                           UNIT     VXV
000126: 35,3256           02327                                    RONE
000127: 35,3257           63241                           DOT      PDVL                                  #  SIGN TO 12D, UP/2 TO MPAC     PD=18D
000128: 35,3260           00015                                    12D
000129: 35,3261           50372                           VSL1     DOT                                   #  UP.UXORZ
000130: 35,3262           00007                                    6D
000131: 35,3263           72565                           SIGN     SL1
000132: 35,3264           00015                                    12D
000133: 35,3265           77726                           ACOS
000134: 35,3266           26325                           STOVL    RTHETA
000135: 35,3267           02327                                    RONE
000136: 35,3270           51041                           DOT      BPL
000137: 35,3271           00007                                    6D
000138: 35,3272           73277                                    +5
000139: 35,3273           44345                           DLOAD    BDSU                                  #  IF UXORZ.R NEG, RTHETA = 1 - RTHETA
000140: 35,3274           02325                                    RTHETA
000141: 35,3275           15340                                    DPPOSMAX
000142: 35,3276           02325                           STORE    RTHETA                                #  RTHETA BETWEEN 0 AND 1 REV.
000143: 35,3277           77776                           EXIT
000144: 35,3300           34706                           CAF      BIT5                                  #  HAVE WE BEEN ANSWERED
000145: 35,3301           71044                           MASK     EXTVBACT


000147: 35,3302           00006                           EXTEND
000148: 35,3303           15423                           BZF      ENDEXT                                #  YES, DIE
000149:
000150: 35,3304           41044                           CS       EXTVBACT
000151: 35,3305           74677                           MASK     BIT12
000152: 35,3306           27044                           ADS      EXTVBACT
000153:
000154: 35,3307           13177                           TCF      V83
000155: 35,3310           04066        V16N54             VN       1654
000156: 35,3311           04065        V16N53             VN       1653
000157:


000159:                                                                                                  #  THE STATEXTP SUBROUTINE DOES A PRECISION EXTRAPOLATION OF BOTH VEHICLES
000160:                                                                                                  #  STATE VECTORS TO PRESENT TIME AND SAVES THEM AS BASE VECTORS.
000161:                                                                                                  #  IF SERVICER IS OFF ---
000162:                                                                                                  #                THIS VEHICLES BASE VECTOR IS CONIC EXTRAPOLATED TO
000163:                                                                                                  #                PRESENT TIME AND SAVED AS RONE, VONE.
000164:                                                                                                  #                THE OTHER VEHICLES BASE VECTOR IS CONIC EXTRAPOLATED
000165:                                                                                                  #                TO THE SAME TIME, THE OUTPUT BEING LEFT IN RATT, VATT.
000166:                                                                                                  #  IF SERVICER IS ON ---
000167:                                                                                                  #                RONE, VONE ARE SET EQUAL TO RN, VN AND THE OTHER
000168:                                                                                                  #                VEHICLES STATE VECTOR IS PREC. EXTRAPOLATED TO PIPTIME.
000169:
000170: 35,3312           47020        STATEXTP           STQ      RTB
000171: 35,3313           00112                                    STATEXIT
000172: 35,3314           45505                                    LOADTIME
000173: 35,3315           34041                           STCALL   TDEC1
000174: 35,3316           27036                                    OTHPREC                               #  GET BASE VECTORS
000175: 35,3317           77775                           VLOAD
000176: 35,3320           00017                                    RATT1
000177: 35,3321           26225                           STOVL    BASEOTP                               #  OTHER POS.
000178: 35,3322           00025                                    VATT1
000179: 35,3323           16241                           STODL    BASEOTV                               #  OTHER VEL.
000180: 35,3324           00015                                    TAT
000181: 35,3325           02272                           STORE    BASETIME
000182: 35,3326           34041                           STCALL   TDEC1
000183: 35,3327           27022                                    THISPREC
000184: 35,3330           77775                           VLOAD
000185: 35,3331           00017                                    RATT1
000186: 35,3332           26255                           STOVL    BASETHP                               #  THIS POS.
000187: 35,3333           00025                                    VATT1
000188: 35,3334           02263                           STORE    BASETHV                               #  THIS VEL
000189: 35,3335           47014        HAVEBASE           BON      RTB
000190: 35,3336           03711                                    V37FLAG
000191: 35,3337           73413                                    GETRVN                                #  IF AVG ON ,GET RN ETC.
000192: 35,3340           45505                                    LOADTIME
000193: 35,3341           34041                           STCALL   TDEC1                                 #  BEGIN SET UP FOR CONIC EXTRAP. FOR THIS.
000194: 35,3342           27371                                    INTSTALL
000195: 35,3343           43175                           VLOAD    CLEAR
000196: 35,3344           02255                                    BASETHP
000197: 35,3345           00263                                    MOONFLAG
000198: 35,3346           25535                           STOVL    RCV
000199: 35,3347           02263                                    BASETHV
000200: 35,3350           15543                           STODL    VCV
000201: 35,3351           02272                                    BASETIME
000202: 35,3352           43014                           BOF      SET                                   #  GET APPROPRIATE MOONFLAG SETTING
000203: 35,3353           04343                                    MOONTHIS
000204: 35,3354           73356                                    +2
000205: 35,3355           00063                                    MOONFLAG
000206: 35,3356           77614                           SET
000207: 35,3357           01473                                    INTYPFLG                              #  CONIC EXTRAP.
000208: 35,3360           35517                           STCALL   TET
000209: 35,3361           27066                                    INTEGRVS                              #  INTEGRATION --- AT LAST---


000211: 35,3362           77775                           VLOAD
000212: 35,3363           00001                                    RATT
000213: 35,3364           26327                           STOVL    RONE
000214: 35,3365           00007                                    VATT
000215: 35,3366           36335                           STCALL   VONE                                  #  GET SET FOR CONIC EXTRAP., OTHER.
000216: 35,3367           27371                                    INTSTALL
000217: 35,3370           71214                           SET      DLOAD
000218: 35,3371           01473                                    INTYPFLG
000219: 35,3372           00015                                    TAT
000220: 35,3373           00041        OTHINT             STORE    TDEC1
000221: 35,3374           43175                           VLOAD    CLEAR
000222: 35,3375           02225                                    BASEOTP
000223: 35,3376           00263                                    MOONFLAG
000224: 35,3377           25535                           STOVL    RCV
000225: 35,3400           02241                                    BASEOTV
000226: 35,3401           15543                           STODL    VCV
000227: 35,3402           02272                                    BASETIME
000228: 35,3403           43014                           BOF      SET
000229: 35,3404           04343                                    MOONTHIS
000230: 35,3405           73407                                    +2
000231: 35,3406           00063                                    MOONFLAG
000232: 35,3407           35517                           STCALL   TET
000233: 35,3410           27066                                    INTEGRVS
000234: 35,3411           77650                           GOTO
000235: 35,3412           00112                                    STATEXIT                              #  THIS VEHICLES POS.,VEL. IN PUSHLIST.
000236:
000237: 35,3413           77775        GETRVN             VLOAD
000238: 35,3414           01171                                    RN
000239: 35,3415           26327                           STOVL    RONE
000240: 35,3416           01177                                    VN
000241: 35,3417           16335                           STODL    VONE
000242: 35,3420           01205                                    PIPTIME
000243: 35,3421           77624                           CALL
000244: 35,3422           27371                                    INTSTALL
000245: 35,3423           52014                           CLEAR    GOTO
000246: 35,3424           01673                                    INTYPFLG                              #  PREC EXTRAP FOR OTHER
000247: 35,3425           73373                                    OTHINT
000248:
000249: 35,3426           52020        REDOEXTP           STQ      GOTO
000250: 35,3427           00112                                    STATEXIT
000251: 35,3430           73335                                    HAVEBASE
000252: 31,2000                                           SETLOC   R34
000253: 31,2000                                           BANK
000254: 31,2000           77776        R34LOS             EXIT
000255: 31,2001           30036                           CA       CDUS
000256: 31,2002           50120                           INDEX    FIXLOC
000257: 31,2003           54011                           TS       9D
000258: 31,2004           30035                           CA       CDUT
000259: 31,2005           50120                           INDEX    FIXLOC
000260: 31,2006           54013                           TS       11D


000262: 31,2007           30120                           CA       FIXLOC
000263: 31,2010           66211                           AD       SIX
000264: 31,2011           40000                           COM
000265: 31,2012           50120                           INDEX    FIXLOC
000266: 31,2013           54046                           TS       X1
000267: 31,2014           06006                           TC       INTPRET
000268: 31,2015           77624                           CALL
000269: 31,2016           46000                                    SXTNB
000270: 31,2017           34015                           STCALL   12D
000271: 31,2020           73232                                    R34ANG
000272:

End of include-file R31.agc.  Parent file is MAIN.agc


