
Source Code


000002:                                                                                                  ## Copyright:   Public domain.
000003:                                                                                                  ## Filename:    RCS-CSM_DAP_EXECUTIVE_PROGRAMS.agc
000004:                                                                                                  ## Purpose:     Part of the source code for Colossus, build 249.
000005:                                                                                                  ##              It is part of the source code for the Command Module's (CM)
000006:                                                                                                  ##              Apollo Guidance Computer (AGC), for Apollo 9.
000007:                                                                                                  ## Assembler:   yaYUL
000008:                                                                                                  ## Reference:   Starts on p. 1008
000009:                                                                                                  ## Contact:     Ron Burkey <info@sandroid.org>.
000010:                                                                                                  ## Website:     www.ibiblio.org/apollo.
000011:                                                                                                  ## Mod history: 08/26/04 RSB.   Began transcribing.
000012:                                                                                                  ##              2017-01-06 RSB  Page numbers now agree with those on the
000013:                                                                                                  ##                              original harcopy, as opposed to the PDF page
000014:                                                                                                  ##                              numbers in 1701.pdf.
000015:                                                                                                  ##              2017-01-18 RSB  Cross-diff'd comment text (not whitespace)
000016:                                                                                                  ##                              vs the already-proofed corresponding Colossus
000017:                                                                                                  ##                              237 and Comanche 55 source-code files
000018:                                                                                                  ##                              but no errors found.
000019:                                                                                                  ##
000020:                                                                                                  ## The contents of the "Colossus249" files, in general, are transcribed
000021:                                                                                                  ## from a scanned copy of the program listing.  Notations on this
000022:                                                                                                  ## document read, in part:
000023:                                                                                                  ##
000024:                                                                                                  ##      Assemble revision 249 of AGC program Colossus by NASA
000025:                                                                                                  ##      2021111-041.  October 28, 1968.
000026:                                                                                                  ##
000027:                                                                                                  ##      This AGC program shall also be referred to as
000028:                                                                                                  ##                              Colossus 1A
000029:                                                                                                  ##
000030:                                                                                                  ##      Prepared by
000031:                                                                                                  ##                      Massachusetts Institute of Technology
000032:                                                                                                  ##                      75 Cambridge Parkway
000033:                                                                                                  ##                      Cambridge, Massachusetts
000034:                                                                                                  ##      under NASA contract NAS 9-4065.
000035:                                                                                                  ##
000036:                                                                                                  ## Refer directly to the online document mentioned above for further information.
000037:                                                                                                  ## Please report any errors (relative to the scanned pages) to info@sandroid.org.
000038:                                                                                                  ##
000039:                                                                                                  ## In some cases, where the source code for Luminary 131 overlaps that of
000040:                                                                                                  ## Colossus 249, this code is instead copied from the corresponding Luminary 131
000041:                                                                                                  ## source file, and then is proofed to incorporate any changes.
000042:


000044:                                                                                                  #  CALCULATION OF  AMGB, AMBG  ONCE EVERY SECOND
000045:
000046:                                                                                                  #        AMGB =  1       SIN(PSI)                0
000047:                                                                                                  #                0       COS(PSI)COS(PHI)        SIN(PHI)
000048:                                                                                                  #                0       -COS(PSI)SIN(PHI)       COS(PHI)
000049:
000050:                                                                                                  #        AMBG =  1       -TAN(PSI)COS(PHI)       TAN(PSI)SIN(PHI)
000051:                                                                                                  #                0       COS(PHI)/COS(PSI)       -SIN(PHI)/COS(PSI)
000052:                                                                                                  #                0       SIN(PHI)                COS(PHI)
000053:
000054:                                                                                                  #  WHERE PHI AND PSI ARE CDU ANGLES
000055:
000056: 20,3565                                           BANK     20
000057: 22,2000                                           SETLOC   DAPS8
000058: 22,2000                                           BANK
000059:
000060: 22,3444                                           COUNT*   $$/DAPEX
000061: 22,3444  E6,1510                                  EBANK=   KMPAC
000062: 22,3444           30102        AMBGUPDT           CA       FLAGWRD6                              #  CHECK FOR RCS AUTOPILOT
000063: 22,3445           00006                           EXTEND
000064: 22,3446           65112                           BZMF     ENDOFJOB                              #  BIT15 = 0, BIT14 = 1
000065: 22,3447           74675                           MASK     BIT14                                 #  IF NOT RCS, EXIT
000066: 22,3450           00006                           EXTEND
000067: 22,3451           15112                           BZF      ENDOFJOB                              #  TO PROTECT TVC DAP ON SWITCHOVER
000068:
000069: 22,3452           30034                           CA       CDUZ
000070: 22,3453           04770                           TC       SPSIN2
000071: 22,3454           55640                           TS       AMGB1                                 #  CALCULATE AMGB
000072: 22,3455           30034                           CA       CDUZ
000073: 22,3456           04767                           TC       SPCOS2
000074: 22,3457           55645                           TS       CAPSI                                 #  MUST CHECK FOR GIMBAL LOCK
000075: 22,3460           33504                           CAF      QUADANGL                              #  = 7.25  DEGREES JET QUAD ANGULAR OFFSET
000076: 22,3461           00006                           EXTEND
000077: 22,3462           20032                           MSU      CDUX
000078: 22,3463           40000                           COM                                            #  CDUX - 7.25 DEG
000079: 22,3464           04767                           TC       SPCOS1
000080: 22,3465           55644                           TS       AMGB8
000081: 22,3466           00006                           EXTEND
000082: 22,3467           71645                           MP       CAPSI
000083: 22,3470           55641                           TS       AMGB4
000084: 22,3471           33504                           CAF      QUADANGL
000085: 22,3472           00006                           EXTEND
000086: 22,3473           20032                           MSU      CDUX
000087: 22,3474           40000                           COM                                            #  CDUX - 7.25 DEG
000088: 22,3475           04770                           TC       SPSIN1
000089: 22,3476           55642                           TS       AMGB5
000090: 22,3477           00006                           EXTEND
000091: 22,3500           71645                           MP       CAPSI
000092: 22,3501           40000                           COM


000094: 22,3502           55643                           TS       AMGB7
000095: 22,3503           15112                           TCF      ENDOFJOB
000096: 22,3504           01224        QUADANGL           DEC      660        B-14                       #  = 7.25 DEGREES
000097:

End of include-file RCS-CSM_DAP_EXECUTIVE_PROGRAMS.agc.  Parent file is MAIN.agc


