
Source Code


000002:                                                                                                  ## Copyright:   Public domain.
000003:                                                                                                  ## Filename:    RCS-CSM_DAP_EXECUTIVE_PROGRAMS.agc
000004:                                                                                                  ## Purpose:     Part of the source code for Colossus, build 249.
000005:                                                                                                  ##              It is part of the source code for the Command Module's (CM)
000006:                                                                                                  ##              Apollo Guidance Computer (AGC), possibly for Apollo 8 and 9.
000007:                                                                                                  ## Assembler:   yaYUL
000008:                                                                                                  ## Reference:   Starts on p. 1012 of 1701.pdf.
000009:                                                                                                  ## Contact:     Ron Burkey <info@sandroid.org>.
000010:                                                                                                  ## Website:     www.ibiblio.org/apollo.
000011:                                                                                                  ## Mod history: 08/26/04 RSB.   Began transcribing.
000012:                                                                                                  ##
000013:                                                                                                  ## The contents of the "Colossus249" files, in general, are transcribed
000014:                                                                                                  ## from a scanned document obtained from MIT's website,
000015:                                                                                                  ## http://hrst.mit.edu/hrs/apollo/public/archive/1701.pdf.  Notations on this
000016:                                                                                                  ## document read, in part:
000017:                                                                                                  ##
000018:                                                                                                  ##      Assemble revision 249 of AGC program Colossus by NASA
000019:                                                                                                  ##      2021111-041.  October 28, 1968.
000020:                                                                                                  ##
000021:                                                                                                  ##      This AGC program shall also be referred to as
000022:                                                                                                  ##                              Colossus 1A
000023:                                                                                                  ##
000024:                                                                                                  ##      Prepared by
000025:                                                                                                  ##                      Massachusetts Institute of Technology
000026:                                                                                                  ##                      75 Cambridge Parkway
000027:                                                                                                  ##                      Cambridge, Massachusetts
000028:                                                                                                  ##      under NASA contract NAS 9-4065.
000029:                                                                                                  ##
000030:                                                                                                  ## Refer directly to the online document mentioned above for further information.
000031:                                                                                                  ## Please report any errors (relative to 1701.pdf) to info@sandroid.org.
000032:                                                                                                  ##
000033:                                                                                                  ## In some cases, where the source code for Luminary 131 overlaps that of
000034:                                                                                                  ## Colossus 249, this code is instead copied from the corresponding Luminary 131
000035:                                                                                                  ## source file, and then is proofed to incorporate any changes.
000036:


000038:                                                                                                  #  CALCULATION OF  AMGB, AMBG  ONCE EVERY SECOND
000039:
000040:                                                                                                  #        AMGB =  1       SIN(PSI)                0
000041:                                                                                                  #                0       COS(PSI)COS(PHI)        SIN(PHI)
000042:                                                                                                  #                0       -COS(PSI)SIN(PHI)       COS(PHI)
000043:
000044:                                                                                                  #        AMBG =  1       -TAN(PSI)COS(PHI)       TAN(PSI)SIN(PHI)
000045:                                                                                                  #                0       COS(PHI)/COS(PSI)       -SIN(PHI)/COS(PSI)
000046:                                                                                                  #                0       SIN(PHI)                COS(PHI)
000047:
000048:                                                                                                  #  WHERE PHI AND PSI ARE CDU ANGLES
000049:
000050: 20,3565                                           BANK     20
000051: 22,2000                                           SETLOC   DAPS8
000052: 22,2000                                           BANK
000053:
000054: 22,3444                                           COUNT*   $$/DAPEX
000055: 22,3444  E6,1510                                  EBANK=   KMPAC
000056: 22,3444           30102        AMBGUPDT           CA       FLAGWRD6                              #  CHECK FOR RCS AUTOPILOT
000057: 22,3445           00006                           EXTEND
000058: 22,3446           65112                           BZMF     ENDOFJOB                              #  BIT15 = 0, BIT14 = 1
000059: 22,3447           74675                           MASK     BIT14                                 #  IF NOT RCS, EXIT
000060: 22,3450           00006                           EXTEND
000061: 22,3451           15112                           BZF      ENDOFJOB                              #  TO PROTECT TVC DAP ON SWITCHOVER
000062:
000063: 22,3452           30034                           CA       CDUZ
000064: 22,3453           04770                           TC       SPSIN2
000065: 22,3454           55640                           TS       AMGB1                                 #  CALCULATE AMGB
000066: 22,3455           30034                           CA       CDUZ
000067: 22,3456           04767                           TC       SPCOS2
000068: 22,3457           55645                           TS       CAPSI                                 #  MUST CHECK FOR GIMBAL LOCK
000069: 22,3460           33504                           CAF      QUADANGL                              #  = 7.25  DEGREES JET QUAD ANGULAR OFFSET
000070: 22,3461           00006                           EXTEND
000071: 22,3462           20032                           MSU      CDUX
000072: 22,3463           40000                           COM                                            #  CDUX - 7.25 DEG
000073: 22,3464           04767                           TC       SPCOS1
000074: 22,3465           55644                           TS       AMGB8
000075: 22,3466           00006                           EXTEND
000076: 22,3467           71645                           MP       CAPSI
000077: 22,3470           55641                           TS       AMGB4
000078: 22,3471           33504                           CAF      QUADANGL
000079: 22,3472           00006                           EXTEND
000080: 22,3473           20032                           MSU      CDUX
000081: 22,3474           40000                           COM                                            #  CDUX - 7.25 DEG
000082: 22,3475           04770                           TC       SPSIN1
000083: 22,3476           55642                           TS       AMGB5
000084: 22,3477           00006                           EXTEND
000085: 22,3500           71645                           MP       CAPSI
000086: 22,3501           40000                           COM


000088: 22,3502           55643                           TS       AMGB7
000089: 22,3503           15112                           TCF      ENDOFJOB
000090: 22,3504           01224        QUADANGL           DEC      660        B-14                       #  = 7.25 DEGREES
000091:

End of include-file RCS-CSM_DAP_EXECUTIVE_PROGRAMS.agc.  Parent file is MAIN.agc


