
Source Code


000002:                                                                                                  ## Copyright:   Public domain.
000003:                                                                                                  ## Filename:    REENTRY_CONTROL.agc
000004:                                                                                                  ## Purpose:     Part of the source code for Colossus, build 249.
000005:                                                                                                  ##              It is part of the source code for the Command Module's (CM)
000006:                                                                                                  ##              Apollo Guidance Computer (AGC), for Apollo 9.
000007:                                                                                                  ## Assembler:   yaYUL
000008:                                                                                                  ## Reference:   pp. 798-835.
000009:                                                                                                  ## Contact:     Ron Burkey <info@sandroid.org>.
000010:                                                                                                  ## Website:     www.ibiblio.org/apollo.
000011:                                                                                                  ## Mod history: 08/21/04 RSB.   Began transcribing.
000012:                                                                                                  ##              2010-10-24 JL   Indentation fixes. Added missing # in comment.
000013:                                                                                                  ##              2017-01-06 RSB  Page numbers now agree with those on the
000014:                                                                                                  ##                              original harcopy, as opposed to the PDF page
000015:                                                                                                  ##                              numbers in 1701.pdf.
000016:                                                                                                  ##              2017-01-18 RSB  Cross-diff'd comment text (not whitespace)
000017:                                                                                                  ##                              vs the already-proofed corresponding Colossus
000018:                                                                                                  ##                              237 and Comanche 55 source-code files
000019:                                                                                                  ##                              and corrected errors found.
000020:                                                                                                  ##
000021:                                                                                                  ## The contents of the "Colossus249" files, in general, are transcribed
000022:                                                                                                  ## from a scanned copy of the program listing.  Notations on this
000023:                                                                                                  ## document read, in part:
000024:                                                                                                  ##
000025:                                                                                                  ##      Assemble revision 249 of AGC program Colossus by NASA
000026:                                                                                                  ##      2021111-041.  October 28, 1968.
000027:                                                                                                  ##
000028:                                                                                                  ##      This AGC program shall also be referred to as
000029:                                                                                                  ##                              Colossus 1A
000030:                                                                                                  ##
000031:                                                                                                  ##      Prepared by
000032:                                                                                                  ##                      Massachusetts Institute of Technology
000033:                                                                                                  ##                      75 Cambridge Parkway
000034:                                                                                                  ##                      Cambridge, Massachusetts
000035:                                                                                                  ##      under NASA contract NAS 9-4065.
000036:                                                                                                  ##
000037:                                                                                                  ## Refer directly to the online document mentioned above for further information.
000038:                                                                                                  ## Please report any errors (relative to the scanned pages) to info@sandroid.org.
000039:                                                                                                  ##
000040:                                                                                                  ## In some cases, where the source code for Luminary 131 overlaps that of
000041:                                                                                                  ## Colossus 249, this code is instead copied from the corresponding Luminary 131
000042:                                                                                                  ## source file, and then is proofed to incorporate any changes.
000043:


000045:                                                                                                  #  ENTRY INITIALIZATION ROUTINE
000046:                                                                                                  #   -----------------------------
000047:
000048: 25,2000                                           BANK     25
000049: 25,2000                                           SETLOC   REENTRY
000050: 25,2000                                           BANK
000051:
000052: 25,2000                                           COUNT*   $$/ENTRY
000053: 25,2000  E7,1451                                  EBANK=   RTINIT
000054:
000055: 25,2000     4753               EBENTRY            =        EBANK7
000056: 25,2000     4752               EBAOG              EQUALS   EBANK6
000057: 25,2000     4675               NTRYPRIO           EQUALS   PRIO20                                #  (SERVICER)
000058: 25,2000     0102               CM/FLAGS           EQUALS   STATE      +6
000059:
000060: 25,2000           77776        STARTENT           EXIT                                           #  MM = 63
000061:
000062:                                                                                                  #  COME HERE FROM CM/POSE.  RESTARTED IN CM/POSE.
000063: 25,2001           42113                           CS       ENTMASK                               #  INITIALIZE ALL SWITCHES TO ZERO
000064:                                                                                                  #  EXCEPT LATSW, ENTRYDSP AND GONEPAST.
000065:                                                                                                  #  GONEBY 112D BIT8 FLAG7, SELF INITIALIZING
000066: 25,2002           00004                           INHINT
000067: 25,2003           70102                           MASK     CM/FLAGS
000068:                                                                                                  #  ENTRYDSP = 92D B13
000069:                                                                                                  #  GONEPAST=95D B10,     RELVELSW=96D B9
000070:                                                                                                  #  EGSW = 97D B8
000071:                                                                                                  #  HIND=99D B6           INRLSW=100D B5
000072:                                                                                                  #  LATSW=101D B4         .05GSW=102D B3
000073:
000074: 25,2004           62114                           AD       ENTRYSW                               #  SET ENTRYDSP, LATSW, GONEPAST.
000075: 25,2005           54102                           TS       CM/FLAGS
000076:
000077: 25,2006           00003                           RELINT
000078:
000079: 25,2007           06006                           TC       INTPRET
000080:
000081: 25,2010           77735                           SLOAD
000082: 25,2011           03011                                    LODPAD
000083: 25,2012           03626                           STORE    LOD
000084:
000085: 25,2013           77735                           SLOAD
000086: 25,2014           03010                                    LADPAD
000087: 25,2015           03624                           STORE    LAD
000088:
000089: 25,2016           77605                           DMP                                            #  L/DCMINR = LAD COS(15)
000090: 25,2017           15320                                    COS15
000091: 25,2020           17630                           STODL    L/DCMINR
000092: 25,2021           15145                                    LATSLOPE
000093: 25,2022           70405                           DMP      SR1                                   #  KLAT = LAD/24
000094: 25,2023           03624                                    LAD


000096: 25,2024           17632                           STODL    KLAT
000097: 25,2025           15176                                    Q7F
000098: 25,2026           17175                           STODL    Q7                                    #  Q7 = Q7F
000099: 25,2027           17363                                    NEARONE                               #  1.0 -1BIT
000100: 25,2030           17614                           STODL    FACTOR
000101: 25,2031           03624                                    LAD
000102: 25,2032           57565                           SIGN     DCOMP
000103: 25,2033           03327                                    HEADSUP                               #  MAY BE NOISE FOR DISPLAY P61
000104: 25,2034           37634                           STCALL   L/D                                   #  L/D = - LAD SGN(HEADSUP)
000105:
000106: 25,2035           52063                                    STARTEN1                              #  RETURN VIA GOTOADDR
000107: 25,2036           47375                           VLOAD    VXV
000108: 25,2037           01177                                    VN                                    #  (-7) M/CS
000109: 25,2040           01760                                    UNITR                                 #  .5 UNIT               REF COORDS
000110: 25,2041           50256                           UNIT     DOT
000111: 25,2042           03474                                    RT                                    #  RT/2 TARGET VECTOR    REF COORDS
000112: 25,2043           03676                           STORE    LATANG                                #  LATANG = UNI.RT /4
000113: 25,2044           47076                           DCOMP    RTB
000114: 25,2045           45707                                    SIGNMPAC
000115: 25,2046           17644                           STODL    K2ROLL                                #  K2ROLL = -SGN(LATANG)
000116:
000117: 25,2047           03624                                    LAD
000118: 25,2050           43205                           DMP      DAD
000119: 25,2051           15200                                    Q21
000120: 25,2052           15202                                    Q22
000121: 25,2053           03712                           STORE    Q2                                    #  Q2 = -1152 + 500 LAD
000122:
000123: 25,2054           66331                           SSP      SSP
000124: 25,2055           03646                                    GOTOADDR                              #  SET SELECTOR FOR INITIAL PASS
000125: 25,2056           52260                                    INITROLL
000126: 25,2057           03325                                    POSEXIT
000127: 25,2060           52115                                    SCALEPOP                              #  SET CM/POSE TO CONTINUE AT SCALEPOP
000128:
000129: 25,2061           77634                           RTB
000130: 25,2062           53603                                    SERVNOUT                              #  OMIT INITIAL DISPLAY, SINCE 1ST GUESSBAD
000131:
000132:                                                                                                  #  CALCULATE THE INITIAL TARGET VECTOR: RTINIT, ALSO RTEAST, RTNORM AND RT.  ALL ARE .5 UNIT AND IN
000133:                                                                                                  #  REFERENCE COORDINATES.
000134:
000135: 25,2063           77220        STARTEN1           STQ      VLOAD
000136: 25,2064           03645                                    GOTOADDR
000137: 25,2065           03401                                    LAT(SPL)                              #  TARGET COORDINATES
000138: 25,2066           43014                           CLEAR    CLEAR                                 #  DO CALL USING PAD RADIUS.  WILL UNIT IT.
000139: 25,2067           00662                                    ERADFLAG                              #  ANYWAY.
000140: 25,2070           01663                                    LUNAFLAG
000141: 25,2071           15104                           STODL    LAT
000142: 25,2072           15332                                    3ZEROS
000143:
000144: 25,2073           15110                           STODL    LAT        +4                         #  SET ALT=0.
000145: 25,2074           01205                                    PIPTIME                               #  ESTABLISH RTINIT AT TIME OF PRESENT


000147:                                                                                                  #  RN AND VN.
000148: 25,2075           37524                           STCALL   TIME/RTO                              #  SAVE TIME BASE OF RTINIT.
000149: 25,2076           26373                                    LALOTORV                              #  C(MPAC) =TIME  (PIPTIME)
000150: 25,2077           77656                           UNIT                                           #  ANSWER IN ALPHAV ALSO
000151: 25,2100           17452                           STODL    RTINIT                                #  .5 UNIT TARGET                REF COORDS
000152: 25,2101           12112                                    500SEC                                #  NOMINAL ENTRY TIME FOR P63
000153:                                                                                                  #  TIME/RTO = PIPTIME, STILL.
000154: 25,2102           37606                           STCALL   DTEAROT                               #  INITIALIZE EARROT
000155: 25,2103           46215                                    EARROT1                               #  GET RT
000156: 25,2104           72441                           DOT      SL1
000157: 25,2105           01760                                    UNITR                                 #  RT/2 IN MPAC
000158: 25,2106           77726                           ACOS
000159: 25,2107           37702                           STCALL   THETAH                                #  RANGE ANGLE /360
000160: 25,2110           03645                                    GOTOADDR                              #  RETURN TO CALLER
000161:
000162: 25,2111           00003 01520  500SEC             2DEC     50000      B-28                       #  CS
000163: 25,2113           11774        ENTMASK            OCT      11774
000164: 25,2114           11010        ENTRYSW            OCT      11010                                 #  ENTRYDSP B13,  GONEPAST B10,  LATSW B4


000166:
000167: 25,2115           77624        SCALEPOP           CALL
000168: 25,2116           52125                                    TARGETNG
000169:
000170: 25,2117           77776                           EXIT
000171:
000172: 25,2120           05301        REFAZE10           TC       PHASCHNG
000173: 25,2121           10035                           OCT      10035                                 #  SERVICER 5.3 RESTART AT REFAZE10
000174:
000175: 25,2122           06006                           TC       INTPRET
000176:
000177:                                                                                                  #  JUMP TO PARTICULAR RE-ENTRY PHASE:
000178:                                                                                                  #                                SEQUENCE
000179: 25,2123           77650                           GOTO
000180: 25,2124           03645                                    GOTOADDR
000181:
000182:                                                                                                  #  GOTOADDR CONTAINS THE ADDRESS OF THE ROLL COMMAND EQUATIONS APPROPRIATE TO THE CURRENT PHASE OF
000183:                                                                                                  #  RE-ENTRY.  SEQUENCING IS AS FOLLOWS:
000184:
000185:                                                                                                  #  INITROLL      ADDRESS IS SET HERE INITIALLY.  HOLDS INITIAL ROLL ATTITUDE UNTIL KAT IS EXCEEDED.  THEN HOLDS NEW ROLL
000186:                                                                                                  #                ATTITUDE UNTIL  VRTHRESH  IS EXCEEDED.  THEN BRANCHES TO
000187:
000188:                                                                                                  #  HUNTEST       THIS SECTION CHECKS TO SEE IF THE PREDICTED RANGE AT NOMINAL   L/D FROM PRESENT CONDITIONS IS LESS
000189:                                                                                                  #                THAN THE DESIRED RANGE.
000190:                                                                                                  #                        IF NOT - A ROLL COMMAND IS GENERATED BY THE CONSTANT DRAG CONTROLLER.
000191:                                                                                                  #                        IF SO  - CONTROL AND GOTOADDR ARE SET TO UPCONTRL.
000192:                                                                                                  #                USUALLY NO ITERATION IS INVOLVED EXCEPT IF THE RANGE DESIRED IS TOO LONG ON THE FIRST PASS THROUGH
000193:                                                                                                  #                HUNTEST.
000194:
000195:                                                                                                  #  UPCONTRL      CONTROLS ROLL DURING THE SUPER-CIRCULAR PHASE.  UPCONTRL IS TERMINATED EITHER
000196:                                                                                                  #                        (A) WHEN THE DRAG (AS MEASURED BY THE PIPAS) FALLS BELOW Q7, OR
000197:                                                                                                  #                        (B) IF RDOT IS NEGATIVE AND REFERENCE VL EXCEEDS V.
000198:                                                                                                  #                IN CASE (A),  GOTOADDR  IS SET TO  KEP2  AND IN CASE (B), TO  PREDICT3  SKIPPING THE KEPLER PHASE OF
000199:                                                                                                  #                ENTRY.
000200:
000201:                                                                                                  #  KEP2          GOTOADDR IS SET HERE DURING THE KEPLER PHASE TO MONITOR DRAG.  THE SPACECRAFT IS INSTANTANEOUSLY
000202:                                                                                                  #                TRIMMED IN PITCH AND YAW TO THE COMPUTED RELATIVE VELOCITY.  THE LAST COMPUTED ROLL ANGLE IS MAINTAINED.
000203:                                                                                                  #                WHEN THE MEASURED DRAG EXCEEDS Q7 +0.5, GOTOADDR IS SET TO
000204:
000205:                                                                                                  #  PREDICT3      THIS CONTROLS THE FINAL SUB-ORBITAL PHASE. ROLL COMMANDS CEASE
000206:                                                                                                  #                WHEN  V  IS LESS THAN  VQUIT.  AN EXIT IS MADE TO
000207:
000208:                                                                                                  #  P67.1         THE LAST COMPUTED ROLL ANGLE IS MAINTAINED.  RATE DAMPING IS DONE IN PITCH AND YAW.  PRESENT LATITUDE
000209:                                                                                                  #                AND LONGITUDE ARE COMPUTED FOR DISPLAY.
000210:                                                                                                  #                ENTRY IS TERMINATED WHEN DISKY RESPONSE IS MADE TO TO THIS FINAL FLASHING DISPLAY.
000211:


000213:                                                                                                  #  PROCESS AVERAGE G OUTPUT...SCALE IT AND GET INPUT DATA
000214:
000215:                                                                                                  #  * START  TARGETING ...
000216:
000217: 25,2125  E7,1451                                  EBANK=   RTINIT
000218:
000219:                                                                                                  #  TARGETNG IS CALLED BY P61, FROM GROUP 4.
000220:                                                                                                  #  TARGETNG IS CALLED BY ENTRY, FROM GROUP 5.
000221:
000222:                                                                                                  #  ALL MM COME HERE.
000223: 25,2125           77214        TARGETNG           BOFF     VLOAD                                 #  ENTER WITH PROPER EB FROM CM/POSE(TEST)
000224: 25,2126           03346                                    RELVELSW                              #  RELVELSW = 96D BIT9
000225: 25,2127           52133                                    GETVEL                                #  WANT INERTIAL VEL.  GO GET IT.
000226: 25,2130           03526                                    -VREL                                 #  NEW V IS RELATIVE, CONTINUE
000227:
000228: 25,2131           52076                           VCOMP    GOTO                                  #  (VREL) = (V) + KWE UNITR*UNITW
000229: 25,2132           52136                                    GETUNITV   -1                         #  - VREL WAS LEFT BY CM/POSE
000230:
000231: 25,2133           74375        GETVEL             VLOAD    VXSC                                  #  INERTIAL V WANTED
000232: 25,2134           01177                                    VN                                    #  KVSCALE = (12800 / .3048) / 2VS
000233: 25,2135           15230                                    KVSCALE                               #  KVSCALE = .81491944
000234: 25,2136           03516                           STORE    VEL                                   #  V/2 VS
000235:
000236: 25,2137           44056        GETUNITV           UNIT     STQ
000237: 25,2140           03373                                    60GENRET
000238: 25,2141           17510                           STODL    UNITV
000239: 25,2142           00043                                    34D
000240: 25,2143           03622                           STORE    VSQUARE                               #  VSQ/4
000241:
000242: 25,2144           77625                           DSU                                            #  LEQ = VSQUARE - 1
000243: 25,2145           15322                                    FOURTH                                #  4 G-S FULL SCALE
000244: 25,2146           17654                           STODL    LEQ                                   #  LEQ/4
000245:
000246: 25,2147           00045                                    36D
000247: 25,2150           27674                           STOVL    V                                     #  V/2 VS = VEL/2 VS
000248:
000249: 25,2151           03516                                    VEL
000250: 25,2152           72441                           DOT      SL1                                   #  RDOT= V.UNITR
000251: 25,2153           01760                                    UNITR
000252: 25,2154           27700                           STOVL    RDOT                                  #  RDOT /2 VS
000253:
000254: 25,2155           01163                                    DELV                                  #  PIPA COUNTS IN PLATFORM COORDS.
000255: 25,2156           41246                           ABVAL    DMP
000256: 25,2157           15232                                    KASCALE
000257: 25,2160           53152                           SL1      BZE
000258: 25,2161           55132                                    SETMIND
000259: 25,2162           27640        DSTORE             STOVL    D                                     #  ACCELERATION USED TO APPROX DRAG
000260: 25,2163           03516                                    VEL
000261: 25,2164           53435                           VXV      UNIT                                  #  UNI = UNIT(V*R)


000263: 25,2165           01760                                    UNITR
000264: 25,2166           03502                           STORE    UNI                                   #  .5 UNI                REF COORDS.
000265:
000266: 25,2167           71214                           BOFF     DLOAD
000267: 25,2170           03346                                    RELVELSW
000268: 25,2171           55073                                    GETETA
000269: 25,2172           15332                                    3ZEROS
000270: 25,2173           43225        UPDATERT           DSU      DAD                                   #  PIPTIME-TIME/RTO =ELAPSED TIME SINCE
000271:                                                                                                  #  RTINIT WAS ESTABLISHED.
000272: 25,2174           03524                                    TIME/RTO
000273: 25,2175           01205                                    PIPTIME
000274: 25,2176           37606                           STCALL   DTEAROT                               #  GET PREDICTED TARGET VECTOR RT
000275:
000276: 25,2177           46225                                    EARROT2
000277: 25,2200           40241                           DOT      SETPD                                 #  SINCE (RT) UNIT VECT, THIS IS 1/4 MAX
000278: 25,2201           03502                                    UNI                                   #  LATANG = RT.UNI
000279: 25,2202           00001                                    0
000280: 25,2203           27676                           STOVL    LATANG                                #  LATANG = MAC LATANG / 4
000281:
000282: 25,2204           03474                                    RT
000283: 25,2205           77614                           CLEAR
000284: 25,2206           03667                                    GONEBY                                #  SHOW HAVE NOT GONE PAST TARGET.
000285: 25,2207           50235                           VXV      DOT                                   #  IF RT*UNITR.UNI NEG, GONEBY=1
000286: 25,2210           01760                                    UNITR                                 #  GONEPAST IS CONDITIONAL SW SET IN
000287: 25,2211           03502                                    UNI                                   #  FINAL PHASE.
000288: 25,2212           43044                           BPL      SET
000289: 25,2213           52215                                    +2
000290: 25,2214           03467                                    GONEBY                                #  SHOW HAVE GONE PAST TARGET.
000291:
000292: 25,2215           77775                           VLOAD
000293: 25,2216           03474                                    RT
000294: 25,2217           45241        GETANGLE           DOT      DSU                                   #  THETA = ARCCOS(RT.UNITR)
000295: 25,2220           01760                                    UNITR
000296: 25,2221           15162                                    NEAR1/4                               #  TO IMPROVE ACCURACY, CALC RANGE BY
000297: 25,2222           43244                           BPL      DAD                                   #  TINYTHET IF HIGH ORDER PART OF
000298: 25,2223           55135                                    TINYTHET                              #  ARCCOS ARGUMENT IS ZERO
000299: 25,2224           15162                                    NEAR1/4
000300: 25,2225           65552                           SL1      ACOS
000301: 25,2226           03702        THETDONE           STORE    THETAH                                #  THETAH/360
000302:                                                                                                  #  HI WORD, LO BIT =1.32 NM=360 60/16384
000303:
000304: 25,2227           57414                           BON      DCOMP
000305: 25,2230           03707                                    GONEBY                                #  =1 IF HAVE GONE PAST TARGET.
000306:                                                                                                  #  (SIGN MAY BECOME ERRATIC VERY NEAR
000307:                                                                                                  #  TARGET DUE TO LOSS OF PRECISION.)
000308: 25,2231           52232                                    +1
000309: 25,2232           17714                           STODL    RTGON67                               #  RANGE ERROR:  NEG IF WILL FALL SHORT.
000310:
000311: 25,2233           03640                                    D
000312: 25,2234           50025                           DSU      BMN


000314: 25,2235           15240                                    .05G
000315: 25,2236           52255                                    NO.05G
000316: 25,2237           77214                           SET      VLOAD
000317: 25,2240           03074                                    .05GSW
000318: 25,2241           03433                                    DELVREF
000319: 25,2242           50206                           PUSH     DOT
000320: 25,2243           03542                                    UXA/2
000321: 25,2244           63552                           SL1      DSQ
000322: 25,2245           47515                           PDVL     VSQ                                   #  EXCHANGE WITH PDL.
000323: 25,2246           56225                           DSU      DDV
000324: 25,2247           00001                                    0
000325: 25,2250           75400                           BOV      SQRT
000326: 25,2251           52253                                    NOLDCALC                              #  OVFL LAST CLEARED IN EARROT2 ABOVE.
000327: 25,2252           03727                           STORE    L/DCALC
000328:
000329: 25,2253           77650        NOLDCALC           GOTO
000330: 25,2254           03373                                    60GENRET
000331:
000332: 25,2255           52014        NO.05G             CLEAR    GOTO                                  #  THIS WAY FOR DAP. (MAY INTERRUPT)
000333: 25,2256           03274                                    .05GSW                                #  .05GSW = 102D B3
000334: 25,2257           52253                                    NOLDCALC                              #  KEEP SINGLE EXIT FOR TARGETNG
000335:


000337:                                                                                                  #  SUBROUTINES CALLED BY SCALEPOP (TARGETING):
000338:
000339: 26,3073                                           BANK     26
000340: 26,2000                                           SETLOC   REENTRY1
000341: 26,2000                                           BANK
000342:
000343: 26,3073                                           COUNT*   $$/ENTRY
000344:
000345: 26,3073           56345        GETETA             DLOAD    DDV                                   #  D = D +D(-RDOT/HS -2D/V)  DT/2
000346:                                                                                                  #  DT/2 = 2/2 =1
000347: 26,3074           03700                                    RDOT
000348: 26,3075           15314                                    -HSCALED
000349: 26,3076           41325                           PDDL     DMP
000350: 26,3077           03640                                    D
000351: 26,3100           15316                                    -KSCALE
000352: 26,3101           43271                           DDV      DAD
000353: 26,3102           03674                                    V
000354:                                                                                                  #  -RDOT/HS FROM PDL.
000355: 26,3103           43205                           DMP      DAD
000356: 26,3104           03640                                    D
000357: 26,3105           03640                                    D
000358: 26,3106           03640                           STORE    D
000359:
000360: 26,3107           71214                           BON      DLOAD                                 #  EGSW INDICATES FINAL PHASE.
000361: 26,3110           03307                                    EGSW
000362: 26,3111           55116                                    SUBETA
000363: 26,3112           03702                                    THETAH
000364: 26,3113           52005                           DMP      GOTO
000365: 26,3114           15234                                    KTETA                                 #  = 1000X2PI/(2)E14 163.84
000366: 26,3115           52173                                    UPDATERT
000367:
000368: 26,3116           45345        SUBETA             DLOAD    DSU                                   #  SWITCH FROM INERTIAL TO RELATIVE VEL.
000369: 26,3117           03674                                    V
000370: 26,3120           15322                                    VMIN
000371: 26,3121           43044                           BPL      SET
000372: 26,3122           55124                                    SUBETA2
000373: 26,3123           03066                                    RELVELSW
000374:
000375: 26,3124           41345        SUBETA2            DLOAD    DMP
000376:
000377: 26,3125           03702                                    THETAH
000378: 26,3126           15236                                    KT1                                   #  KT1 = KT
000379: 26,3127           52071                           DDV      GOTO
000380: 26,3130           03674                                    V                                     #  KT = RE(2 PI)/2 VS 16384 163.84/ 2 VSAT
000381: 26,3131           52173                                    UPDATERT
000382:
000383: 26,3132           52145        SETMIND            DLOAD    GOTO
000384: 26,3133           16326                                    1BITDP
000385: 26,3134           52162                                    DSTORE
000386:


000388: 26,3135           51425        TINYTHET           DSU      ABS                                   #  ENTER WITH X-.249
000389: 26,3136           16327                                    1BITDP     +1                         #  GET 1/4 - MPAC
000390: 26,3137           75461                           SL       SQRT                                  #  SCALE UP BEFORE SQRT
000391: 26,3140           20216                                    13D                                   #  HAS FACTOR FOR UP SCALING
000392: 26,3141           52005                           DMP      GOTO
000393: 26,3142           15246                                    KACOS
000394: 26,3143           52226                                    THETDONE
000395:


000397:                                                                                                  #  * START       INITIAL ROLL ...
000398:
000399: 25,2260                                           BANK     25
000400: 25,2000                                           SETLOC   REENTRY
000401: 25,2000                                           BANK
000402:
000403: 25,2260                                           COUNT*   $$/ENTRY
000404:
000405:                                                                                                  #  MM = 63, 64 ..
000406: 25,2260           43014        INITROLL           BON      BOFF                                  #  IF D- .05G NEG, GO TO LIMITL/D
000407: 25,2261           03312                                    INRLSW
000408: 25,2262           52354                                    INITRL1
000409: 25,2263           03354                                    .05GSW
000410: 25,2264           53520                                    LIMITL/D
000411:
000412:                                                                                                  #  MM = 64, NOW
000413:                                                                                                  #              3
000414:                                                                                                  #  KA = KA1 LEQ  + KA2
000415: 25,2265           63545                           DLOAD    DSQ
000416: 25,2266           03654                                    LEQ
000417: 25,2267           56205                           DMP      DDV
000418: 25,2270           03654                                    LEQ
000419: 25,2271           15304                                    1/KA1                                 #  = 25 /(64  1.8)
000420: 25,2272           47015                           DAD      RTB
000421: 25,2273           15306                                    KA2                                   #  = .2
000422: 25,2274           54432                                    P64                                   #  ROLLC         VI              RDOT
000423:                                                                                                  #  XXX.XX DEG    XXXXX. FPS      XXXXX. FPS
000424: 25,2275           03720                           STORE    KAT
000425:
000426: 25,2276           45345                           DLOAD    DSU                                   #  IF V-VFINAL1 NEG, GO TO FINAL PHASE.
000427: 25,2277           03674                                    V
000428: 25,2300           15302                                    VFINAL1
000429: 25,2301           51014                           CLEAR    BPL                                   #  (CAN'T CLEAR INRLSW AFTER HERE: RESTARTS)
000430: 25,2302           03265                                    GONEPAST                              #  GONEPAST WAS INITIALLY SET=1 TO FORCE
000431:                                                                                                  #  ROLLC TO REMAIN AS DEFINED BY HEADSUP
000432:                                                                                                  #  UNTIL START OF P64.  (UNTIL D > .05G)
000433: 25,2303           52310                                    D0EQ
000434: 25,2304           52131                           SSP      GOTO
000435: 25,2305           03646                                    GOTOADDR
000436: 25,2306           53311                                    KEP2                                  #  AND IDLE UNTIL D > 0.2G.  (NO P66 HERE)
000437: 25,2307           52343                                    INROLOUT                              #  GO TO LIMITL/D AFTER SETTING INRLSW.
000438:
000439: 25,2310           41345        D0EQ               DLOAD    DMP                                   #  D0 = KA3 LEQ + KA4
000440: 25,2311           03654                                    LEQ
000441: 25,2312           15310                                    KA3
000442: 25,2313           77615                           DAD
000443: 25,2314           15312                                    KA4
000444: 25,2315           03710                           STORE    D0                                    #  D0/805
000445: 25,2316           40065                           BDDV     BOV


000447: 25,2317           15266                                    C001                                  #  (-4/25 G) B-8
000448: 25,2320           52321                                    +1                                    #  CLEAR OVFIND, IF ON.
000449: 25,2321           17706                           STODL    C/D0                                  #  (-4/D0) B-8
000450: 25,2322           03624                                    LAD                                   #  IF V-VFINAL +K(RDOT/V)CUBED POS,L/D=-LAD
000451: 25,2323           17634                           STODL    L/D
000452: 25,2324           03700                                    RDOT
000453: 25,2325           41471                           DDV      PUSH
000454: 25,2326           03674                                    V
000455: 25,2327           41316                           DSQ      DMP
000456: 25,2330           45271                           DDV      DSU
000457: 25,2331           15276                                    1/K44
000458: 25,2332           15300                                    VFINAL
000459:                                                                                                  #                    3
000460:                                                                                                  #  V-VFINAL +(RDOT/V)  / K44             OVFL $
000461:
000462: 25,2333           40015                           DAD      BOV
000463: 25,2334           03674                                    V
000464: 25,2335           52343                                    INROLOUT                              #  GO TO LIMITL/D AFTER SETTING INRLSW.
000465: 25,2336           71240                           BMN      DLOAD
000466: 25,2337           52343                                    INROLOUT                              #  GO TO LIMITL/D AFTER SETTING INRLSW.
000467: 25,2340           03624                                    LAD
000468: 25,2341           77676                           DCOMP
000469: 25,2342           03634                           STORE    L/D
000470:
000471:                                                                                                  #  SET INRLSW AT END FOR RESTART PROTECTION
000472: 25,2343           77614        INROLOUT           BOFSET                                         #  END OF PRE .05G PATH OF INITROLL.
000473: 25,2344           03052                                    INRLSW                                #  SWITCH IS ZERO INITIALLY.
000474: 25,2345           53520                                    LIMITL/D                              #  (GO TO)
000475:
000476: 25,2346           45345        KATEST             DLOAD    DSU                                   #  IF KAT - D POS, GO TO CONSTD
000477: 25,2347           03720                                    KAT
000478: 25,2350           03640                                    D                                     #  IF POS, OUT WITH COMMAND VIA LIMITL/D
000479: 25,2351           52044                           BPL      GOTO
000480: 25,2352           53520                                    LIMITL/D
000481: 25,2353           53224                                    CONSTD
000482:
000483: 25,2354           43345        INITRL1            DLOAD    DAD                                   #  IF RDOT + VRCONT POS, GO TO HUNTEST
000484: 25,2355           03700                                    RDOT
000485: 25,2356           15260                                    VRCONT
000486: 25,2357           45040                           BMN      CALL                                  #  IF POSITIVE, FALL INTO HUNTEST.
000487: 25,2360           52346                                    KATEST
000488:
000489: 25,2361           53014                                    FOREHUNT                              #  INITIALIZE HUNTEST.
000490:


000492:                                                                                                  #  * START       HUNT TEST ..
000493:                                                                                                  #  MM = 64
000494: 25,2362           77731                           SSP                                            #  INITIALIZE HUNTEST ON FIRST PASS
000495: 25,2363           03646                                    GOTOADDR
000496: 25,2364           52365                                    HUNTEST                               #  MUST GO AFTER FOREHUNT FOR RESTARTS.
000497:
000498: 25,2365           77745        HUNTEST            DLOAD
000499: 25,2366           03640                                    D
000500: 25,2367           17664                           STODL    A1                                    #  A1/805 = A1/25G
000501:
000502: 25,2370           03624                                    LAD
000503: 25,2371           17647                           STODL    TEM1B
000504: 25,2372           03700                                    RDOT
000505: 25,2373           71240                           BMN      DLOAD                                 #  IF RDOT NEG,TEM1B=LAD, OTHERWISE = LEWD
000506: 25,2374           52400                                    A0CALC
000507: 25,2375           03725                                    LEWD
000508: 25,2376           17647                           STODL    TEM1B
000509:
000510: 25,2377           03700                                    RDOT
000511: 25,2400           43271        A0CALC             DDV      DAD                                   #  V1 = V + RDOT/TEM1B
000512: 25,2401           03647                                    TEM1B
000513: 25,2402           03674                                    V
000514: 25,2403           14326                           STODL    V1                                    #  V1/2 VS
000515:
000516: 25,2404           03700                                    RDOT
000517: 25,2405           56316                           DSQ      DDV                                   #  A0=(V1/V)SQ(D+RDOT SQ/(TEM1B 2 C1 HS)
000518: 25,2406           03647                                    TEM1B
000519: 25,2407           43271                           DDV      DAD
000520: 25,2410           15272                                    2C1HS
000521: 25,2411           03640                                    D
000522: 25,2412           41205                           DMP      DMP
000523: 25,2413           00326                                    V1
000524: 25,2414           00326                                    V1
000525: 25,2415           77671                           DDV
000526: 25,2416           03622                                    VSQUARE
000527: 25,2417           14330                           STODL    A0                                    #  A0/805 = A0/25G
000528:
000529: 25,2420           03700                                    RDOT
000530: 25,2421           71244                           BPL      DLOAD
000531: 25,2422           52425                                    V1LEAD
000532: 25,2423           00330                                    A0
000533: 25,2424           03664                           STORE    A1                                    #  A1/25G
000534:
000535: 25,2425           51145        V1LEAD             DLOAD    BPL                                   #  IF L/D NEG, V1=V1 - 1000
000536: 25,2426           03634                                    L/D
000537: 25,2427           52434                                    HUNTEST1
000538:
000539: 25,2430           45345                           DLOAD    DSU
000540: 25,2431           00326                                    V1


000542: 25,2432           15214                                    VQUIT
000543: 25,2433           00326                           STORE    V1
000544:
000545: 25,2434           41345        HUNTEST1           DLOAD    DMP                                   #  ALP = 2 C1 HS A0/LEWD V1 V1
000546: 25,2435           00330                                    A0
000547: 25,2436           15272                                    2C1HS
000548: 25,2437           40271                           DDV      SETPD
000549: 25,2440           00326                                    V1
000550: 25,2441           00001                                    0
000551: 25,2442           56271                           DDV      DDV
000552: 25,2443           00326                                    V1
000553: 25,2444           03725                                    LEWD
000554: 25,2445           03704                           STORE    ALP
000555:
000556: 25,2446           55221                           BDSU     BDDV                                  #  FACT1 = V1 / (1 - ALP)
000557: 25,2447           17363                                    BARELY1
000558: 25,2450           00326                                    V1
000559: 25,2451           17616                           STODL    FACT1                                 #  FACT1 / 2VS
000560:
000561: 25,2452           03704                                    ALP
000562: 25,2453           41225                           DSU      DMP                                   #  FACT2 = ALP(ALP - 1) / A0
000563: 25,2454           17363                                    BARELY1
000564: 25,2455           03704                                    ALP
000565: 25,2456           77671                           DDV
000566: 25,2457           00330                                    A0
000567: 25,2460           03620                           STORE    FACT2                                 #  FACT2 (25G)
000568:
000569: 25,2461           43205                           DMP      DAD
000570: 25,2462           03175                                    Q7                                    #  Q7 / 805 = Q7 / 25G
000571: 25,2463           03704                                    ALP                                   #  VL=FACT1 (1-SQRT(Q7 FACT2 +ALP) )
000572: 25,2464           44366                           SQRT     BDSU
000573: 25,2465           17363                                    BARELY1
000574: 25,2466           77605                           DMP
000575: 25,2467           03616                                    FACT1
000576: 25,2470           03767                           STORE    VL                                    #  VL / 2 VS
000577:
000578: 25,2471           41221                           BDSU     DMP                                   #  GAMMAL1 = LEWD (V1-VL)/VL
000579: 25,2472           00326                                    V1
000580: 25,2473           03725                                    LEWD
000581: 25,2474           77671                           DDV
000582: 25,2475           03767                                    VL
000583: 25,2476           14027                           STODL    GAMMAL1                               #  GAMMAL1 USED IN UPCONTROL
000584:
000585:                                                                                                  #  GAMMAL1 = PDL 22D.
000586: 25,2477           03767                                    VL
000587: 25,2500           50025                           DSU      BMN                                   #  IF VL-VLMIN NEG, GO TO PREFINAL
000588: 25,2501           15204                                    VLMIN
000589: 25,2502           53325                                    PREFINAL
000590:
000591: 25,2503           63545                           DLOAD    DSQ


000593: 25,2504           03767                                    VL
000594: 25,2505           17666                           STODL    VBARS                                 #  VBARS / 4 VS VS
000595:
000596: 25,2506           15330                                    HALVE                                 #  IF VSAT-VL NEG, GO TO CONSTD
000597: 25,2507           50025                           DSU      BMN
000598: 25,2510           03767                                    VL
000599: 25,2511           53220                                    BECONSTD                              #  SET MODE=HUNTEST, CONTINUE IN CONSTD
000600: 25,2512           17662                           STODL    DVL                                   #  DVL / 2VS
000601:
000602: 25,2513           15330                                    HALVE
000603: 25,2514           03672                           STORE    VS1                                   #  VS1 = VSAT
000604:
000605: 25,2515           50025                           DSU      BMN                                   #  IF V1 GREATER THAN VSAT, GO ON
000606: 25,2516           00326                                    V1
000607: 25,2517           52525                                    GETDHOOK
000608: 25,2520           77621                           BDSU
000609: 25,2521           03662                                    DVL
000610: 25,2522           17662                           STODL    DVL                                   #  DVL = DVL - (VSAT-V1) = V1 - VL
000611: 25,2523           00326                                    V1
000612: 25,2524           03672                           STORE    VS1                                   #  VS1 = V1, IN THIS CASE
000613:
000614: 25,2525           45145        GETDHOOK           DLOAD    CALL                                  #  DHOOK=((1-VS1/FACT1) SQ -ALP)/FACT2
000615: 25,2526           03672                                    VS1                                   #  VS1 / 2 VS
000616: 25,2527           52776                                    DHOOKYQ7                              #  GO CALC DHOOK
000617: 25,2530           03656                           STORE    DHOOK                                 #  DHOOK / 25G
000618:
000619: 25,2531           56261                           SR       DDV
000620: 25,2532           20607                                    6                                     #  CHOOK
000621: 25,2533           03175                                    Q7
000622: 25,2534           77625                           DSU
000623: 25,2535           15250                                    CHOOK                                 #  = .25/16 = (-6)
000624: 25,2536           03660                           STORE    AHOOKDV
000625:
000626: 25,2537           41215                           DAD      DMP                                   #  GAMMAL= GAMMAL1-CH1 DVL SQ(1+AHOOK DVL)
000627: 25,2540           17357                                    1/16TH
000628: 25,2541           15254                                    CH1
000629: 25,2542           41205                           DMP      DMP
000630: 25,2543           03662                                    DVL
000631: 25,2544           03662                                    DVL
000632: 25,2545           56271                           DDV      DDV
000633: 25,2546           03656                                    DHOOK
000634: 25,2547           03666                                    VBARS
000635: 25,2550           50021                           BDSU     BMN
000636: 25,2551           00027                                    GAMMAL1
000637: 25,2552           52743                                    NEGAMA
000638: 25,2553           03771        HUNTEST3           STORE    GAMMAL
000639:
000640: 25,2554           77625                           DSU                                            #  GAMMAL1=GAMMAL1 +Q19 (GAMMAL-GAMMAL1)
000641: 25,2555           00027                                    GAMMAL1
000642: 25,2556           43205                           DMP      DAD


000644: 25,2557           15330                                    Q19
000645: 25,2560           00027                                    GAMMAL1
000646: 25,2561           14027                           STODL    GAMMAL1
000647: 25,2562           03771                                    GAMMAL
000648:


000650:                                                                                                  #  *START        RANGE PREDICTION ...
000651:                                                                                                  #  C(MPAC) = GAMMAL
000652: 25,2563           60516        RANGER             DSQ      SR2                                   #  COSG = 1-GAMMAL SQ/2, TRUNCATED SERIES
000653: 25,2564           77621                           BDSU
000654: 25,2565           15330                                    HALVE
000655: 25,2566           17670                           STODL    COSG/2
000656: 25,2567           03666                                    VBARS                                 #  E=SQRT(1+VBARS........
000657:
000658: 25,2570           41225                           DSU      DMP
000659: 25,2571           15330                                    HALVE
000660: 25,2572           03666                                    VBARS
000661: 25,2573           41205                           DMP      DMP
000662: 25,2574           03670                                    COSG/2
000663: 25,2575           03670                                    COSG/2
000664: 25,2576           43312                           SL2      DAD
000665: 25,2577           17357                                    C1/16                                 #  C1/16 = 1/16
000666: 25,2600           65366                           SQRT     PDDL                                  #  E/4 INTO PDL
000667:
000668: 25,2601           03666                                    VBARS
000669: 25,2602           41205                           DMP      DMP                                   #  ASKEP/2 = ARCSIN(VBARS COSG SING/E)
000670: 25,2603           03670                                    COSG/2
000671: 25,2604           03771                                    GAMMAL
000672: 25,2605           67471                           DDV      ASIN
000673: 25,2606           41552                           SL1      PUSH                                  #  ASKEP TO PDL 0.
000674: 25,2607           17731                           STODL    ASKEP                                 #  BALLISTIC RANGE       ASKEP/2PI
000675:
000676:                                                                                                  #  FOR TM, STORE RANGE COMPONENTS OVERLAPPING (SP)
000677: 25,2610           03767                                    VL
000678: 25,2611           43205                           DMP      DAD                                   #  ASP1 = Q2 + Q3 VL
000679: 25,2612           15170                                    Q3
000680: 25,2613           03712                                    Q2
000681: 25,2614           03732                           STORE    ASP1                                  #  FINAL PHASE RANGE     ASP1/2 PI
000682:
000683: 25,2615           63525                           PDDL     DSQ                                   #  ASP1 TO PDL 2.
000684: 25,2616           00326                                    V1
000685:                                                                                                  #                    2
000686:                                                                                                  #  ASPUP= -C12 LOG(V1 Q7/VBARS A0)/GAMMAL1
000687: 25,2617           56205                           DMP      DDV
000688: 25,2620           03175                                    Q7
000689: 25,2621           03666                                    VBARS
000690: 25,2622           45071                           DDV      CALL
000691: 25,2623           00330                                    A0
000692: 25,2624           46155                                    LOG                                   #  RETURN WITH -LOG IN MPAC
000693:
000694: 25,2625           56205                           DMP      DDV
000695: 25,2626           15206                                    C12
000696: 25,2627           00027                                    GAMMAL1
000697: 25,2630           03733                           STORE    ASPUP                                 #  UP PHASE RANGE        ASPUP / 2 PI


000699: 25,2631           41325                           PDDL     DMP                                   #  ASPUP TO PDL 4.
000700: 25,2632           15256                                    KC3                                   #  KC3 = -4 VS VS / 2 PI 805 RE
000701:                                                                                                  #  ASPDWN = KC3 RDOT V / A0
000702: 25,2633           03700                                    RDOT
000703: 25,2634           56205                           DMP      DDV
000704: 25,2635           03674                                    V
000705: 25,2636           00330                                    A0
000706: 25,2637           41471                           DDV      PUSH                                  #  ASPDWN TO PDL 6.
000707: 25,2640           03624                                    LAD
000708: 25,2641           17734                           STODL    ASPDWN                                #  RANGE TO PULL OUT     ASPDWN /2 PI
000709:
000710: 25,2642           15174                                    Q6
000711: 25,2643           41225                           DSU      DMP                                   #  ASP3 = Q5(Q6-GAMMAL)
000712: 25,2644           03771                                    GAMMAL
000713: 25,2645           15172                                    Q5
000714: 25,2646           27735                           STOVL    ASP3                                  #  GAMMA CORRECTION      ASP3/2PI
000715:
000716: 25,2647           03731                                    ASKEP                                 #  GET HI-WD AND
000717: 25,2650           17126                           STODL    ASPS(TM)                              #  SAVE HI-WORD OF ASP'S FOR TM.
000718:
000719: 25,2651           03735                                    ASP3
000720: 25,2652           43215                           DAD      DAD
000721:                                                                                                  #  ASPDWN FROM PDL 6.
000722:                                                                                                  #  ASPUP FROM PDL 4.
000723: 25,2653           43215                           DAD      DAD
000724:                                                                                                  #  ASP1 FROM PDL 2.
000725:                                                                                                  #  ASKEP FROM PDL 0.
000726: 25,2654           41025                           DSU      BOVB                                  #  CLEAR OVFIND.
000727: 25,2655           03702                                    THETAH
000728: 25,2656           57343                                    TCDANZIG
000729: 25,2657           03610                           STORE    DIFF                                  #  DIFF = (ASP-THETAH) / 2 PI
000730:                                                                                                  #  ASP=ASKEP+ASP1+ASPUP+ASP3+ASPDWN = TOTAL RANGE
000731:
000732: 25,2660           45246                           ABS      DSU                                   #  IF ABS(THETAH-ASP) -25NM NEG, GO TO UPSY
000733: 25,2661           15222                                    25NM
000734: 25,2662           43040                           BMN      BON
000735: 25,2663           53025                                    GOTOUPSY
000736: 25,2664           03311                                    HIND
000737: 25,2665           52671                                    GETLEWD
000738:
000739: 25,2666           51145                           DLOAD    BPL
000740: 25,2667           03610                                    DIFF
000741: 25,2670           53213                                    DCONSTD                               #  EVENTUALLY SETS MODE = HUNTEST.
000742: 25,2671           41345        GETLEWD            DLOAD    DMP
000743:                                                                                                  #  DLEWD = DLEWD (DIFF/(DIFFOLD-DIFF))
000744: 25,2672           03642                                    DLEWD
000745: 25,2673           03610                                    DIFF
000746: 25,2674           45325                           PDDL     DSU
000747: 25,2675           03612                                    DIFFOLD
000748: 25,2676           03610                                    DIFF


000750: 25,2677           77665                           BDDV
000751: 25,2700           77626        LWDSTORE           STADR
000752: 25,2701           74135                           STORE    DLEWD
000753: 25,2702           50015                           DAD      BMN                                   #  IF LEWD+DLEWD NEG, DLEWD=-LEWD/2
000754: 25,2703           03725                                    LEWD
000755: 25,2704           52737                                    LEWDPTR
000756: 25,2705           77600                           BOV
000757: 25,2706           52733                                    LEWDOVFL
000758: 25,2707           03725                           STORE    LEWD
000759:
000760: 25,2710           77776        SIDETRAK           EXIT
000761:
000762: 25,2711           34753                           CA       EBENTRY
000763: 25,2712           54003                           TS       EBANK
000764:
000765: 25,2713           34763                           CA       PRIO16                                #  DROP GRP 5 RESTART PRIO TO 1 LESS THAN
000766: 25,2714           55064                           TS       PHSPRDT5                              #  GRP 4.
000767:
000768: 25,2715           05301                           TC       PHASCHNG
000769: 25,2716           00474                           OCT      00474                                 #  RESTART GRP 4 AT PRE-HUNT.
000770:                                                                                                  #  FORCE RESTART TO PICK UP IN GRP 4:
000771:                                                                                                  #  USE PRIO 17 FOR GRP 4 (< SERVICER PRIO)
000772: 25,2717           34763                           CA       PRIO16                                #  CONTINUE GRP 5 AT LOWER PRIO THAN EITHER
000773:                                                                                                  #  GRP 4 OR SERVICER.
000774: 25,2720           05103                           TC       PRIOCHNG
000775:
000776: 25,2721           33024                           CAF      ADENDEXT                              #  SIDETRACK NEXT PASS UNTIL THIS ONE DONE.
000777: 25,2722           55645                           TS       GOTOADDR                              #  ONLY AFTER RESTART IS LEFT AFTER DETOUR.
000778:
000779: 25,2723           06006                           TC       INTPRET
000780:
000781: 25,2724           43145                           DLOAD    SET
000782: 25,2725           03610                                    DIFF
000783: 25,2726           03071                                    HIND
000784: 25,2727           17612                           STODL    DIFFOLD                               #  DIFFOLD / 2 PI
000785:
000786: 25,2730           15176                                    Q7F
000787: 25,2731           37175                           STCALL   Q7                                    #  Q7 / 805 FPSS
000788: 25,2732           52365                                    HUNTEST                               #  (GO TO)
000789:
000790: 25,2733           77745        LEWDOVFL           DLOAD
000791: 25,2734           17363                                    NEARONE
000792: 25,2735           37725                           STCALL   LEWD
000793: 25,2736           53213                                    DCONSTD                               #  (GO TO)  ALSO WILL SET MODE = HUNTEST
000794:
000795: 25,2737           70545        LEWDPTR            DLOAD    SR1
000796: 25,2740           03725                                    LEWD
000797: 25,2741           52076                           DCOMP    GOTO
000798: 25,2742           52700                                    LWDSTORE
000799:


000801:                                                                                                  #  NEGAMA IS PART OF HUNTEST ...
000802:
000803: 25,2743           41205        NEGAMA             DMP      DMP                                   #  ENTER WITH GAMMAL IN MPAC
000804:
000805: 25,2744           03767                                    VL
000806: 25,2745           15146                                    1/3RD
000807: 25,2746           41325                           PDDL     DMP                                   #  PUSH GAMMAL VL/3
000808: 25,2747           03725                                    LEWD
000809: 25,2750           15146                                    1/3RD
000810: 25,2751           43325                           PDDL     DAD                                   #  PUSH LEWD/3
000811: 25,2752           03660                                    AHOOKDV
000812: 25,2753           15252                                    1/24TH
000813: 25,2754           41205                           DMP      DMP                                   #  DEL VL = (GAMMAL VL/3)/(LEWD/3-DVL
000814: 25,2755           03662                                    DVL                                   #  (2/3 + AHOOKDV)(CH1 GS/DHOOK VL))
000815: 25,2756           15254                                    CH1
000816: 25,2757           56271                           DDV      DDV
000817: 25,2760           03656                                    DHOOK
000818: 25,2761           03767                                    VL
000819: 25,2762           55221                           BDSU     BDDV
000820:                                                                                                  #  LEWD/3
000821:                                                                                                  #  GAMMAL VL /3
000822: 25,2763           77615                           DAD
000823: 25,2764           03767                                    VL
000824: 25,2765           37767                           STCALL   VL                                    #  VL/2 VS
000825:
000826: 25,2766           52776                                    DHOOKYQ7                              #  GO CALC Q7
000827:                                                                                                  #  Q7=((1-VL/FACT1)SQ - ALP)/FACT2
000828: 25,2767           17175                           STODL    Q7                                    #  Q7 / 25G
000829:
000830: 25,2770           03767                                    VL
000831: 25,2771           77716                           DSQ
000832: 25,2772           17666                           STODL    VBARS                                 #  VBARS / 4 VS VS
000833:
000834: 25,2773           15332                                    3ZEROS
000835: 25,2774           77650                           GOTO                                           #  SET GAMMAL = 0
000836: 25,2775           52553                                    HUNTEST3
000837:
000838: 25,2776           56342        DHOOKYQ7           SR1      DDV                                   #  SUBROUTINE TO CALC DHOOK OR Q7)
000839: 25,2777           03616                                    FACT1
000840: 25,3000           72421                           BDSU     SL1
000841: 25,3001           15330                                    HALVE
000842: 25,3002           45316                           DSQ      DSU
000843: 25,3003           03704                                    ALP
000844: 25,3004           43471                           DDV      RVQ
000845: 25,3005           03620                                    FACT2
000846:


000848:                                                                                                  #  COME TO PRE-HUNT WHEN RESTART OCCURS AFTER
000849:                                                                                                  #  HUNTEST IS SIDE-TRACKED AT SIDETRAK.
000850:                                                                                                  #  PICK UP IN GROUP 4.
000851:
000852: 25,3006           06006        PRE-HUNT           TC       INTPRET
000853: 25,3007           45014                           CLEAR    CALL
000854: 25,3010           03271                                    HIND                                  #  HIND  99D BIT 6 FLAG 6
000855: 25,3011           53014                                    FOREHUNT                              #  RE-INITIALIZE HUNTEST AFTER RE-START.
000856: 25,3012           77650                           GOTO
000857: 25,3013           52365                                    HUNTEST
000858: 25,3014           77745        FOREHUNT           DLOAD                                          #  INITIALIZE HUNTEST.
000859: 25,3015           15332                                    3ZEROS
000860: 25,3016           17612                           STODL    DIFFOLD
000861: 25,3017           15156                                    DLEWD0
000862: 25,3020           17642                           STODL    DLEWD
000863: 25,3021           15150                                    LEWD1
000864: 25,3022           03725                           STORE    LEWD
000865: 25,3023           77616                           RVQ
000866:
000867: 25,3024           53570        ADENDEXT           CADR     ENDEXIT
000868:


000870:                                                                                                  #  * START       UP CONTROL ...
000871:                                                                                                  #  MM = 65
000872: 25,3025           77634        GOTOUPSY           RTB                                            #  END OF HUNTEST
000873: 25,3026           54440                                    P65                                   #  HUNTEST USE OF GRP4 IS DISABLED BY P65
000874:                                                                                                  #  USE FOR DISPLAY.
000875:                                                                                                  #  SET MODE = UPCONTRL.
000876:                                                                                                  #  RETURN FROM P65 DIRECTLY TO UPCONTRL
000877:                                                                                                  #  VIA THE GOTOADDR AT REFAZE10.
000878:
000879: 25,3027           45345        UPCONTRL           DLOAD    DSU                                   #  IF D-140 POS, NOSWITCH =1
000880: 25,3030           03640                                    D                                     #  (SUPPRESS LATERAL SWITCH)
000881: 25,3031           15220                                    C21
000882: 25,3032           43040                           BMN      SET
000883: 25,3033           53035                                    +2
000884: 25,3034           03070                                    NOSWITCH
000885:
000886: 25,3035           45345                           DLOAD    DSU                                   #  IF V-V1 POS, GO TO DOWN CONTROL.
000887: 25,3036           03674                                    V
000888: 25,3037           00326                                    V1
000889: 25,3040           71244                           BPL      DLOAD
000890: 25,3041           53252                                    DOWNCNTL
000891: 25,3042           03640                                    D
000892: 25,3043           50025                           DSU      BMN                                   #  IF D- Q7 NEG, GO TO KEP
000893: 25,3044           03175                                    Q7
000894: 25,3045           53305                                    KEP
000895: 25,3046           51145                           DLOAD    BPL                                   #  IF RDOT NEG, DO VLTEST
000896: 25,3047           03700                                    RDOT
000897: 25,3050           53057                                    CONT1
000898:
000899: 25,3051           45345        VLTEST             DLOAD    DSU                                   #  IF V-VL-C18 NEG,EGSW=1,MODE=PREDICT3
000900: 25,3052           03674                                    V
000901: 25,3053           03767                                    VL
000902: 25,3054           50025                           DSU      BMN
000903: 25,3055           15164                                    C18
000904: 25,3056           53325                                    PREFINAL
000905:
000906: 25,3057           77745        CONT1              DLOAD                                          #  IF D-A0 POS, L/D = LAD, GO TO LIMITL/D
000907: 25,3060           03640                                    D
000908: 25,3061           50025                           DSU      BMN
000909: 25,3062           00330                                    A0
000910: 25,3063           53067                                    CONT3
000911: 25,3064           52145                           DLOAD    GOTO
000912: 25,3065           03624                                    LAD
000913: 25,3066           53517                                    STOREL/D
000914:
000915: 25,3067           41345        CONT3              DLOAD    DMP                                   #  VREF=FACT1(1-SQRT(FACT2 D + ALP))
000916: 25,3070           03640                                    D
000917: 25,3071           03620                                    FACT2


000919: 25,3072           75415                           DAD      SQRT
000920: 25,3073           03704                                    ALP
000921: 25,3074           41221                           BDSU     DMP
000922: 25,3075           17363                                    BARELY1
000923: 25,3076           03616                                    FACT1
000924: 25,3077           01160                           STORE    VREF                                  #  VREF / 2VS
000925:
000926: 25,3100           41221                           BDSU     DMP                                   #  RDOTREF = LEWD(V1-VREF)
000927: 25,3101           00326                                    V1
000928: 25,3102           03725                                    LEWD
000929: 25,3103           15156                           STODL    RDOTREF                               #  RDOTREF / 2VS
000930:
000931: 25,3104           03672                                    VS1
000932: 25,3105           50025                           DSU      BMN                                   #  IF VSAT-VREF NEG, GO TO CONTINU2
000933: 25,3106           01160                                    VREF
000934: 25,3107           53126                                    CONTINU2
000935:
000936: 25,3110           41406                           PUSH     PUSH                                  #  VS1-VREF  TO PDL TWICE
000937: 25,3111           56205                           DMP      DDV                                   #  RDHOOK=CH1(1+DV AHOOKDV/DVL) DV DV
000938: 25,3112           03660                                    AHOOKDV                               #        /DHOOK VREF
000939: 25,3113           03662                                    DVL                                   #  WHERE  DV = (VS1-VREF)
000940: 25,3114           41215                           DAD      DMP
000941: 25,3115           17357                                    1/16TH
000942: 25,3116           15254                                    CH1
000943: 25,3117           41205                           DMP      DMP
000944:                                                                                                  #  VS1-VREF  FROM PDL TWICE.
000945: 25,3120           77671                           DDV
000946: 25,3121           03656                                    DHOOK
000947: 25,3122           44271                           DDV      BDSU
000948: 25,3123           01160                                    VREF
000949: 25,3124           01156                                    RDOTREF                               #  C(RDOTREF)= LEWD (V1-VREF)
000950: 25,3125           01156                           STORE    RDOTREF                               #  RDOTREF = RDOTREF - RDHOOK
000951:
000952: 25,3126           45345        CONTINU2           DLOAD    DSU
000953: 25,3127           03640                                    D
000954: 25,3130           15312                                    Q7MIN
000955: 25,3131           50004                           BOVB     BMN
000956: 25,3132           57343                                    TCDANZIG                              #  CLEAR OVFL IND, IF ON.
000957: 25,3133           53144                                    UPCNTRL3
000958: 25,3134           45345                           DLOAD    DSU
000959: 25,3135           03664                                    A1
000960: 25,3136           03175                                    Q7
000961: 25,3137           45325                           PDDL     DSU
000962: 25,3140           03640                                    D
000963: 25,3141           03175                                    Q7
000964: 25,3142           45471                           DDV      STADR
000965: 25,3143           74163                           STORE    FACTOR                                #  FACTOR / 25G
000966:


000968:                                                                                                  #  SKIPPER
000969:                                                                                                  #  DELTA L/D=-((RDOT-RDOTREF)F1 KB1+V-VREF)F1 KB2
000970:                                                                                                  #        WHERE F1 = FACTOR
000971:
000972: 25,3144           77745        UPCNTRL3           DLOAD
000973: 25,3145           03700                                    RDOT
000974: 25,3146           41225                           DSU      DMP                                   #  L/D = LEWD
000975: 25,3147           01156                                    RDOTREF                               #  -((RDOT-RDOTREF)F1/KB1+V-VREF)F1/KB2
000976: 25,3150           03614                                    FACTOR
000977: 25,3151           43271                           DDV      DAD
000978: 25,3152           15210                                    1/KB1
000979: 25,3153           03674                                    V
000980: 25,3154           41225                           DSU      DMP
000981: 25,3155           01160                                    VREF
000982: 25,3156           03614                                    FACTOR
000983: 25,3157           41471                           DDV      PUSH
000984:
000985: 25,3160           15212                                    -1/KB2                                #  DELTA L/D INTO PDL
000986: 25,3161           51400                           BOV      ABS                                   #  NONLINEAR CIRCUIT FOR REDUCING HIGH GAIN
000987: 25,3162           53464                                    GOMAXL/D
000988: 25,3163           50025                           DSU      BMN
000989: 25,3164           15274                                    PT1/16
000990: 25,3165           53172                                    NEXT1
000991: 25,3166           43205                           DMP      DAD
000992: 25,3167           15152                                    POINT1
000993: 25,3170           15274                                    PT1/16
000994: 25,3171           41565                           SIGN     PUSH                                  #  ATTACH SIGN OF PUSH TO MPAC THEN PUSH
000995:
000996: 25,3172           42545        NEXT1              DLOAD    SL4
000997:                                                                                                  #  DELTA L/D FROM PDL.
000998:
000999: 25,3173           77615                           DAD
001000: 25,3174           03725                                    LEWD
001001: 25,3175           41400        NEGTESTS           BOV      PUSH                                  #  L/D TO PDL FOR USE IN NEGTESTS.
001002: 25,3176           53464                                    GOMAXL/D
001003: 25,3177           17634                           STODL    L/D
001004:                                                                                                  #  IF D-C20 POS, LATSW =0
001005:                                                                                                  #  AND IF L/D NEG, L/D = 0.
001006: 25,3200           03640                                    D
001007: 25,3201           50025                           DSU      BMN
001008: 25,3202           15216                                    C20
001009: 25,3203           53520                                    LIMITL/D
001010: 25,3204           71214                           CLEAR    DLOAD
001011: 25,3205           03273                                    LATSW                                 #  =21D.  ROLL OVER TOP, REGARDLESS.
001012:                                                                                                  #  L/D FROM PDL.
001013: 25,3206           71244                           BPL      DLOAD
001014: 25,3207           53520                                    LIMITL/D
001015: 25,3210           15332                                    3ZEROS
001016: 25,3211           37634                           STCALL   L/D
001017: 25,3212           53520                                    LIMITL/D                              #  (GO TO)
001018:


001020: 25,3213           77745        DCONSTD            DLOAD                                          #  TWO RANGER ENTRIES TO CONSTD HERE
001021: 25,3214           03610                                    DIFF
001022:                                                                                                  #  SAVE OLD VALUE OF DIFF FOR NEXT PASS.
001023: 25,3215           17612                           STODL    DIFFOLD                               #  DIFFOLD / 2 PI
001024:
001025: 25,3216           15176                                    Q7F
001026: 25,3217           03175                           STORE    Q7
001027:
001028: 25,3220           47131        BECONSTD           SSP      RTB                                   #  A HUNTEST ENTRY INTO CONSTD.
001029: 25,3221           03646                                    GOTOADDR                              #  RESET MODE TO HUNTEST
001030: 25,3222           52365                                    HUNTEST
001031: 25,3223           54505                                    KILLGRP4                              #  DEACTIVATE GRP4 FROM HUNTEST.
001032:
001033: 25,3224           77604        CONSTD             BOVB
001034: 25,3225           57343                                    TCDANZIG                              #  CLEAR OVF IND IF ON.
001035:
001036: 25,3226           41345                           DLOAD    DMP
001037: 25,3227           03654                                    LEQ
001038: 25,3230           03706                                    C/D0                                  #  C/D0 = -4/D0 B-8
001039: 25,3231           41325                           PDDL     DMP                                   #  LEQ C/D0 INTO PDL
001040: 25,3232           15262                                    2HS                                   #  2HS / 4 VS VS
001041: 25,3233           03710                                    D0
001042: 25,3234           43271                           DDV      DAD                                   #  RDOTREF = -2 HS D0/V
001043: 25,3235           03674                                    V
001044: 25,3236           03700                                    RDOT
001045: 25,3237           43205                           DMP      DAD
001046: 25,3240           15226                                    K2D                                   #  C/D0 LEQ + K2D(RDOT-RDOTREF) INTO PD
001047: 25,3241           77725                           PDDL
001048: 25,3242           03710                                    D0                                    #  D0 /805
001049:
001050: 25,3243           77621        CONSTD1            BDSU                                           #  ENTER WITH DREF IN MPAC
001051: 25,3244           03640                                    D
001052: 25,3245           43205                           DMP      DAD
001053: 25,3246           15224                                    K1D                                   #  K2D TERM FROM PUSH
001054: 25,3247           52061                           SL       GOTO
001055: 25,3250           20211                                    8D
001056: 25,3251           53175                                    NEGTESTS                              #  (GO TO)
001057: 25,3252           77604        DOWNCNTL           BOVB                                           #  INITIAL PART OF UPCONTROL.
001058: 25,3253           57343                                    TCDANZIG                              #  CLEAR OVFIND, IF ON.
001059:
001060: 25,3254           54345                           DLOAD    SR
001061: 25,3255           03624                                    LAD
001062: 25,3256           20611                                    8D
001063: 25,3257           45325                           PDDL     DSU                                   #  RDTR = LAD(V1-V)
001064: 25,3260           03674                                    V
001065: 25,3261           00326                                    V1
001066: 25,3262           43205                           DMP      DAD
001067: 25,3263           03624                                    LAD


001069: 25,3264           03700                                    RDOT
001070: 25,3265           43205                           DMP      DAD
001071: 25,3266           15226                                    K2D
001072:                                                                                                  #  PUSH UP LAD.
001073: 25,3267           45325                           PDDL     DSU                                   #  LAD + K2D(RDOT-RDTR) INTO PD
001074: 25,3270           00326                                    V1
001075: 25,3271           03674                                    V
001076: 25,3272           41316                           DSQ      DMP
001077: 25,3273           03624                                    LAD
001078: 25,3274           65271                           DDV      PDDL                                  #  (V1-V)SQ LAD/(2 C1 HS) INTO PD
001079: 25,3275           15272                                    2C1HS
001080: 25,3276           00326                                    V1
001081: 25,3277           56316                           DSQ      DDV
001082: 25,3300           03622                                    VSQUARE
001083: 25,3301           45265                           BDDV     DSU                                   #  DREF = (V/V1)SQ A0 - PD
001084: 25,3302           00330                                    A0
001085:                                                                                                  #  PUSH UP HERE
001086: 25,3303           77650                           GOTO                                           #  C(MPAC) = DREF
001087: 25,3304           53243                                    CONSTD1
001088:
001089:                                                                                                  #               2           2
001090:                                                                                                  #  DREF = (V/V1)  A0 -(V-V1)  LAD/2 C1 HS


001092:                                                                                                  #  * START       BALLISTIC PHASE ...
001093:                                                                                                  #  MM = 66       UPCONTRL ENTRY INTO KEP2.
001094: 25,3305           66234        KEP                RTB      SSP
001095: 25,3306           54473                                    P66                                   #  DISPLAY TRIM GIMBAL ANGLE VALUES.
001096: 25,3307           03646                                    GOTOADDR                              #  SET GOTOADDR TO KEPLER PHASE.
001097: 25,3310           53311                                    KEP2
001098:
001099:                                                                                                  #  KEP2 CAN ALSO BE STARTED UP DIRECTLY FROM INITROLL
001100:                                                                                                  #  IN P64.  PROGRAM WILL IDLE IN P64 UNTIL D EXCEEDS
001101:                                                                                                  #  .2 G BEFORE GOING ON TO P67.
001102:
001103: 25,3311           45345        KEP2               DLOAD    DSU                                   #  IF Q7F+KDMIN -D NEG, GO TO FINAL PHASE.
001104: 25,3312           15166                                    Q7FKDMIN                              #  (Q7F + KDMIN)/805
001105: 25,3313           03640                                    D
001106: 25,3314           72240                           BMN      TLOAD
001107: 25,3315           53325                                    PREFINAL
001108:                                                                                                  #  SET ROLLHOLD = ROLLC, IN CASE CMDAPMOD
001109: 25,3316           03316                                    ROLLC                                 #  = +1 EVER ENTERED.
001110: 25,3317           72214                           BON      TLOAD                                 #  IF D > .05G, KEEP PRESENT ROLL COMMAND.
001111: 25,3320           03314                                    .05GSW                                #  IF D < .05G, SET ROLL COMMAND = 0.
001112: 25,3321           53323                                    +2
001113: 25,3322           15332                                    3ZEROS                                #  SET ROLLC & ROLLHOLD =0.
001114: 25,3323           37316                 +2        STCALL   ROLLC                                 #  (SP ROLLHOLD FOLLOWS DP ROLLC)
001115: 25,3324           54402                                    P62.3                                 #  CALC DESIRED GIMBAL ANGLES AT PRESENT
001116:                                                                                                  #  RN, VN TO YIELD TRIM ATTITUDE.
001117:                                                                                                  #  AVAILABLE IN CPHI'S FOR N22.


001119:                                                                                                  #  START FINAL PHASE ..
001120:                                                                                                  #  MM = 67
001121: 25,3325           47131        PREFINAL           SSP      RTB
001122: 25,3326           03646                                    GOTOADDR                              #  RESTART PROTECT: RESET GOTOADDR IF CAME
001123: 25,3327           53325                                    PREFINAL                              #  FROM HUNTEST.
001124: 25,3330           54477                                    P67                                   #  DISABLES GRP4.  FINE IF FROM HUNTEST. BUT
001125:                                                                                                  #  MAY ALSO REMOVE RESTART PROTECTION OF
001126:                                                                                                  #  N69 (P65).
001127:                                                                                                  #  ROLLC         XRNGERR         DNRNGERR
001128:                                                                                                  #  XXX.XX DEG    XXXX.X NM       XXXX.X NM
001129:
001130: 25,3331           66214                           SET      SSP
001131: 25,3332           03067                                    EGSW
001132: 25,3333           03646                                    GOTOADDR
001133: 25,3334           53335                                    PREDICT3
001134: 25,3335           45345        PREDICT3           DLOAD    DSU                                   #  IF V-VQUIT NEG, STOP STEERING
001135: 25,3336           03674                                    V
001136: 25,3337           15214                                    VQUIT
001137: 25,3340           77440                           BMN      EXIT
001138: 25,3341           53605                                    STEEROFF
001139:
001140: 25,3342           34753                           CA       EBENTRY                               #  PRECAUTIONARY.
001141: 25,3343           54003                           TS       EBANK
001142:
001143: 25,3344           35656                           CA       TWELVE
001144: 25,3345           55771        BACK               TS       JJ
001145:
001146: 25,3346           41673                           CS       V
001147: 25,3347           51771                           INDEX    JJ
001148: 25,3350           63631                           AD       VREFER                                #  VREF - V, HIGHEST VREF AT END OF TABLE.
001149: 25,3351           10000                           CCS      A                                     #  IF VREF-V POS LOOP BACK
001150: 25,3352           11771                           CCS      JJ                                    #  DECREMENT JJ, JJ CANNOT BE ZERO
001151: 25,3353           13345                           TCF      BACK
001152: 25,3354           64712                           AD       ONE
001153: 25,3355           55646                           TS       TEM1B                                 #  V-VREF IN TEM1B (MUST BE POSITIVE NUM)
001154:
001155: 25,3356           51771                           INDEX    JJ
001156: 25,3357           43631                           CS       VREFER
001157: 25,3360           51771                           INDEX    JJ
001158: 25,3361           63632                           AD       VREFER     +1                         #  V(K+1) - V(K)                 (POS NUM)
001159: 25,3362           57646                           XCH      TEM1B
001160: 25,3363           22007                           ZL
001161: 25,3364           00006                           EXTEND
001162: 25,3365           11646                           DV       TEM1B
001163: 25,3366           55651                           TS       GRAD                                  #  GRAD = (V-VREF)/(VK+1 - VK)   (POS NUM
001164:
001165: 25,3367           34715                           CAF      FIVE
001166:


001168: 25,3370           55650        BACK2              TS       MM
001169: 25,3371           34720                           CAF      THIRTEEN
001170: 25,3372           27771                           ADS      JJ
001171: 25,3373           50000                           INDEX    A
001172: 25,3374           43631                           CS       VREFER
001173: 25,3375           51771                           INDEX    JJ
001174: 25,3376           63632                           AD       VREFER     +1                         #  X(K+1) - X(K)
001175: 25,3377           00006                           EXTEND
001176: 25,3400           71651                           MP       GRAD
001177: 25,3401           51771                           INDEX    JJ
001178: 25,3402           63631                           AD       VREFER
001179: 25,3403           51650                           INDEX    MM
001180: 25,3404           55652                           TS       FX                                    #  FX = AK + GRAD (AK+1 - AK)
001181: 25,3405           11650                           CCS      MM
001182: 25,3406           13370                           TCF      BACK2
001183: 25,3407           57653                           XCH      FX         +1                         #  ZERO FX +1 AND GET DREFR
001184: 25,3410           61637                           AD       D
001185: 25,3411           00006                           EXTEND
001186: 25,3412           71657                           MP       FX         +5                         #  F1
001187: 25,3413           52155                           DXCH     MPAC                                  #  MPAC = F1(D-DREF)
001188:
001189: 25,3414           00006                           EXTEND
001190: 25,3415           41700                           DCS      RDOT                                  #  FORM RDOTREF - RDOT
001191: 25,3416           20001                           DDOUBL
001192: 25,3417           20001                           DDOUBL
001193: 25,3420           20001                           DDOUBL                                         #  SCALE UP BY 8 FOR THIS PHASE.
001194: 25,3421           61655                           AD       FX         +3                         #  RDOTREF
001195: 25,3422           00006                           EXTEND
001196: 25,3423           71656                           MP       FX         +4                         #  F2
001197: 25,3424           61654                           AD       FX         +2                         #  RTOGO
001198: 25,3425           20155                           DAS      MPAC                                  #  ADD F2(DADV1-DADVR)
001199: 25,3426           30154                           CA       MPAC
001200: 25,3427           55770                           TS       PREDANG
001201:                                                                                                  #  L/D = LOD + (THETA- PREDANG)/ Y
001202: 25,3430           06006                           TC       INTPRET
001203:
001204: 25,3431           45242                           SR3      DSU
001205: 25,3432           03702                                    THETAH
001206: 25,3433           43014                           BON      BOFF
001207: 25,3434           03305                                    GONEPAST
001208: 25,3435           53462                                    GONEGLAD
001209: 25,3436           03747                                    GONEBY
001210: 25,3437           53445                                    HAVDNRNG
001211: 25,3440           43145                           DLOAD    SET                                   #  SET GONEPAST IF GONEBY SET & LATCH IN -
001212: 25,3441           13765                                    MAXRNG                                #  DISPLAY = 9999.9 IF GONEBY         PLACE
001213: 25,3442           03065                                    GONEPAST
001214: 25,3443           37716                           STCALL   DNRNGERR
001215: 25,3444           53462                                    GONEGLAD
001216:
001217: 25,3445           03716        HAVDNRNG           STORE    DNRNGERR                              #  = (PREDANG - THETA) /360


001219: 25,3446           77676                           DCOMP                                          #  FALL SHORT IF NEG, OVERSHOOT IF POS
001220: 25,3447           56204                           BOVB     DDV
001221: 25,3450           57343                                    TCDANZIG                              #  CLEAR OVFIND IF ON.
001222: 25,3451           03653                                    FX                                    #  FX= DRANGE/D L/D = Y
001223: 25,3452           40061                           SL       BOV
001224: 25,3453           20206                                    5
001225: 25,3454           53464                                    GOMAXL/D
001226: 25,3455           40015                           DAD      BOV
001227: 25,3456           03626                                    LOD
001228: 25,3457           53464                                    GOMAXL/D
001229: 25,3460           37634                           STCALL   L/D
001230: 25,3461           53470                                    GLIMITER                              #  (GO TO)
001231:
001232:                                                                                                  #  GONEGLAD AND GOPOSMAX ENTRY POINTS FOR GLIMITER ...
001233:
001234: 25,3462           77745        GONEGLAD           DLOAD                                          #  SET L/D = -LAD
001235: 25,3463           13463                                    GONEGLAD                              #  (ANY NEGATIVE NUMBER WILL DO)
001236:
001237: 25,3464           41234        GOMAXL/D           RTB      DMP                                   #  L/D = LAD SIGN(MPAC)
001238: 25,3465           45707                                    SIGNMPAC
001239: 25,3466           03624                                    LAD
001240: 25,3467           03634                           STORE    L/D                                   #  AND FALL INTO GLIMITER SECTION
001241:
001242: 25,3470           45345        GLIMITER           DLOAD    DSU                                   #  IF GMAX/2-D POS, GO TO LIMITL/D
001243: 25,3471           15160                                    GMAX/2
001244: 25,3472           03640                                    D
001245: 25,3473           43244                           BPL      DAD                                   #  IF GMAX  -D NEG, GO TO GOPOSLAD
001246: 25,3474           53520                                    LIMITL/D
001247: 25,3475           15160                                    GMAX/2
001248: 25,3476           41240                           BMN      DMP
001249: 25,3477           53515                                    GOPOSLAD
001250: 25,3500           15262                                    2HS
001251: 25,3501           41325                           PDDL     DMP                                   #  2HS(GMAX-D) INTO PD
001252: 25,3502           03654                                    LEQ
001253: 25,3503           15330                                    1/GMAX
001254: 25,3504           41215                           DAD      DMP
001255: 25,3505           03624                                    LAD
001256: 25,3506           56325                           PDDL     DDV                                   #  2HS(GMAX-D) (LEQ/GMAX+LAD) INTO PD
001257: 25,3507           15264                                    2HSGMXSQ
001258: 25,3510           03622                                    VSQUARE
001259: 25,3511           75415                           DAD      SQRT                                  #  XLIM = SQRT(PD+(2HSGMAX/V)SQ)
001260: 25,3512           51015                           DAD      BPL                                   #  IF RDOT+XLIM POS, GO TO LIMITL/D
001261: 25,3513           03700                                    RDOT
001262: 25,3514           53520                                    LIMITL/D
001263:
001264: 25,3515           77745        GOPOSLAD           DLOAD
001265: 25,3516           03624                                    LAD
001266: 25,3517           03634        STOREL/D           STORE    L/D
001267:


001269: 25,3520           77745        LIMITL/D           DLOAD
001270: 25,3521           03634                                    L/D
001271: 25,3522           17636                           STODL    L/D1
001272: 25,3523           03622                                    VSQUARE
001273:
001274: 25,3524           77614                           BON                                            #  NO LATERAL CONTROL IF PAST TARGET
001275: 25,3525           03305                                    GONEPAST
001276: 25,3526           53560                                    L355
001277: 25,3527           43205                           DMP      DAD                                   #  Y= KLAT VSQUARE + LATBIAS
001278: 25,3530           03632                                    KLAT
001279: 25,3531           15242                                    LATBIAS                               #  Y INTO PD
001280: 25,3532           51525        L350               PDDL     ABS                                   #  IF ABS(L/D)-L/DCMINR NEG, GO TO L353
001281: 25,3533           03634                                    L/D
001282: 25,3534           50025                           DSU      BMN
001283: 25,3535           03630                                    L/DCMINR
001284: 25,3536           53545                                    L353
001285: 25,3537           75345                           DLOAD    SIGN                                  #  IF K2ROLL LATANG NEG, GO TO L357
001286: 25,3540           03676                                    LATANG
001287: 25,3541           03644                                    K2ROLL
001288: 25,3542           71240                           BMN      DLOAD
001289: 25,3543           53624                                    L357
001290: 25,3544           41542                           SR1      PUSH                                  #  Y = Y/2
001291: 25,3545           75345        L353               DLOAD    SIGN                                  #  IF LATANG SIGN(K2ROLL)-Y POS, SWITCH
001292: 25,3546           03676                                    LATANG
001293: 25,3547           03644                                    K2ROLL
001294: 25,3550           77625                           DSU
001295: 25,3551           71240                           BMN      DLOAD
001296: 25,3552           53560                                    L355
001297: 25,3553           03644                                    K2ROLL
001298: 25,3554           57414                           BONCLR   DCOMP                                 #  IF NOSWITCH =1, K2ROLL= K2ROLL
001299: 25,3555           03210                                    NOSWITCH
001300: 25,3556           53560                                    L355
001301: 25,3557           03644                           STORE    K2ROLL                                #  K2ROLL = -K2ROLL
001302:
001303: 25,3560           56345        L355               DLOAD    DDV                                   #  ROLLC = ACOS( (L/D1) / LAD)
001304: 25,3561           03636                                    L/D1
001305: 25,3562           03624                                    LAD                                   #  MPAC SET TO +-1 IF OVERFLOW***
001306: 25,3563           65542                           SR1      ACOS
001307: 25,3564           43165                           SIGN     CLEAR
001308: 25,3565           03644                                    K2ROLL
001309: 25,3566           03270                                    NOSWITCH
001310: 25,3567           03316                           STORE    ROLLC
001311:
001312: 25,3570           77776        ENDEXIT            EXIT
001313:
001314: 25,3571           34676        OVERNOUT           CA       BIT13                                 #  ENTRYDSP =92D B13
001315: 25,3572           70102                           MASK     CM/FLAGS
001316: 25,3573           00006                           EXTEND
001317: 25,3574           13600                           BZF      NODISKY                               #  OMIT DISPLAY.


001319: 25,3575           31263                           CA       ENTRYVN                               #  ALL ENTRY DISPLAYS ARE DONE HERE.
001320: 25,3576           04555                           TC       BANKCALL
001321: 25,3577           20621                           CADR     REGODSPR                              #  NO ABORT IF DISKY IN USE
001322:
001323: 25,3600           00004        NODISKY            INHINT
001324: 25,3601           10067                           CCS      NEWJOB                                #  PROTECT READACCS GRP 5, IF SIDETRACKED.
001325: 25,3602           05057                           TC       CHANG1
001326: 25,3603           04574        SERVNOUT           TC       POSTJUMP                              #  ( COME HERE FROM P67.3 )
001327: 25,3604           77132                           CADR     SERVEXIT                              #  AND END AVERAGEG JOB VIA ENDOFJOB.
001328:


001330:                                                                                                  #  DISPLAY WHEN V IS LESS THAN VQUIT.
001331:
001332: 25,3605           77776        STEEROFF           EXIT
001333: 25,3606           34753                           CA       EBENTRY                               #  PRECAUTIONARY.
001334: 25,3607           54003                           TS       EBANK
001335:
001336: 25,3610           34763                           CA       PRIO16                                #  2 LESS THAN NTRYPRIO.
001337: 25,3611           05027                           TC       NOVAC
001338: 25,3612  E6,1661                                  EBANK=   AOG                                   #  ANY EB HERE
001339: 25,3612           02511 54066                     2CADR    P67.1                                 #  START UP REMAINDER OF P67
001340:
001341:                                                                                                  #  RTOGO         LAT             LONG
001342:                                                                                                  #  XXXX.X NM     XXX.XX DEG      XXX.XX DEG
001343:
001344: 25,3614           05261                           TC       2PHSCHNG                              #  INHINT/RELINT DONE.
001345: 25,3615           00414                           OCT      00414                                 #  4.41 RESTART FOR P67.1 DISPLAY JOB.
001346: 25,3616           10035                           OCT      10035                                 #  SERVICER 5.3 RESTART.
001347:
001348: 25,3617           33623                           CA       P67.2CAD                              #  HEREAFTER, DO LAT, LONG.
001349: 25,3620           55645                           TS       GOTOADDR
001350:
001351: 25,3621           06006                           TC       INTPRET
001352: 25,3622           77650                           GOTO
001353: 25,3623           54530        P67.2CAD                    P67.2                                 #  CONTINUE FOR LAT, LONG THIS TIME.
001354:
001355: 25,3624           75345        L357               DLOAD    SIGN                                  #  L/D = L/DCMINR SIGN(L/D)
001356: 25,3625           03630                                    L/DCMINR
001357: 25,3626           03634                                    L/D
001358: 25,3627           37636                           STCALL   L/D1
001359: 25,3630           53560                                    L355                                  #  (GO TO)
001360:


001362:                                                                                                  #  TABLE USED FOR SUB-ORBITAL REFERENCE TRAJECTORY CONTROL.
001363: 25,3631           00474        VREFER             DEC      .019288                               #  REFERENCE VELOCITY SCALED V/51532.3946
001364: 25,3632           01235                           DEC      .040809                               #  13 POINTS ARE STORED AS THE INDEPENDENT
001365: 25,3633           02337                           DEC      .076107                               #  VARIABLE AND THEN SIX 13 POINT FUNCTIONS
001366: 25,3634           03721                           DEC      .122156                               #  OF V ARE STORED CONSECUTIVELY
001367: 25,3635           05230                           DEC      .165546
001368: 25,3636           06213                           DEC      .196012
001369: 25,3637           10550                           DEC      .271945
001370: 25,3640           11717                           DEC      .309533
001371: 25,3641           13314                           DEC      .356222
001372: 25,3642           14736                           DEC      .404192
001373: 25,3643           16255                           DEC      .448067
001374: 25,3644           16457                           DEC      .456023
001375: 25,3645           25570                           DEC      .67918                                #  HIGHVELOCITY FOR SAFETY
001376:
001377: 25,3646           77526                           DEC      -.010337                              #  DRANGE/DA     SCALED DRDA/(2700/805)
001378: 25,3647           77360                           DEC      -.016550
001379: 25,3650           77106                           DEC      -.026935
001380: 25,3651           76516                           DEC      -.042039
001381: 25,3652           76071                           DEC      -.058974
001382: 25,3653           75570                           DEC      -.070721
001383: 25,3654           74661                           DEC      -.098538
001384: 25,3655           74436                           DEC      -.107482
001385: 25,3656           73212                           DEC      -.147762
001386: 25,3657           71640                           DEC      -.193289
001387: 25,3660           54557                           DEC      -.602557
001388: 25,3661           40000                           DEC      -.99999
001389: 25,3662           40000                           DEC      -.99999
001390:
001391: 25,3663           77635                           DEC      -.0478599  B-3                        #  -DRANGE/DRDOT
001392: 25,3664           77563                           DEC      -.0683663  B-3                        #  SCALED ((2VS/8 2700) DR/DRDOT)
001393: 25,3665           77354                           DEC      -.1343468  B-3
001394: 25,3666           76712                           DEC      -.2759846  B-3
001395: 25,3667           76066                           DEC      -.4731437  B-3
001396: 25,3670           75322                           DEC      -.6472087  B-3
001397: 25,3671           73237                           DEC      -1.171693  B-3
001398: 25,3672           72104                           DEC      -1.466382  B-3
001399: 25,3673           70301                           DEC      -1.905171  B-3
001400: 25,3674           65635                           DEC      -2.547990  B-3
001401: 25,3675           57311                           DEC      -4.151220  B-3
001402: 25,3676           50575                           DEC      -5.813617  B-3
001403: 25,3677           50575                           DEC      -5.813617  B-3
001404:


001406: 25,3700           74443                           DEC      -.0134001  B3                         #  RDOTREF       SCALED (8 RDT/2VS)
001407: 25,3701           74333                           DEC      -.013947   B3
001408: 25,3702           74433                           DEC      -.013462   B3
001409: 25,3703           74763                           DEC      -.011813   B3
001410: 25,3704           75432                           DEC      -.0095631  B3
001411: 25,3705           75735                           DEC      -.00806946 B3
001412: 25,3706           76200                           DEC      -.006828   B3
001413: 25,3707           75735                           DEC      -.00806946 B3
001414: 25,3710           75140                           DEC      -.0109791  B3
001415: 25,3711           74075                           DEC      -.0151498  B3
001416: 25,3712           73312                           DEC      -.0179817  B3
001417: 25,3713           73732                           DEC      -.0159061  B3
001418: 25,3714           73732                           DEC      -.0159061  B3
001419:
001420: 25,3715           00015                           DEC      .0008067                              #  RANGE TO GO SCALED RTOGO/2700
001421: 25,3716           00066                           DEC      .0032963                              #        8.9
001422: 25,3717           00206                           DEC      .0081852                              #        22.1
001423: 25,3720           00431                           DEC      .017148
001424: 25,3721           00712                           DEC      .027926
001425: 25,3722           01136                           DEC      .037
001426: 25,3723           02015                           DEC      .063298
001427: 25,3724           02374                           DEC      .077889
001428: 25,3725           03123                           DEC      .098815
001429: 25,3726           04051                           DEC      .127519
001430: 25,3727           05767                           DEC      .186963
001431: 25,3730           07476                           DEC      .238148
001432: 25,3731           11324                           DEC      .294185185
001433:
001434: 25,3732           76272                           DEC      -.051099                              #  -AREF/805
001435: 25,3733           75472                           DEC      -.074534
001436: 25,3734           74604                           DEC      -.101242
001437: 25,3735           74210                           DEC      -.116646
001438: 25,3736           74052                           DEC      -.122360
001439: 25,3737           73735                           DEC      -.127081
001440: 25,3740           73217                           DEC      -.147453
001441: 25,3741           73013                           DEC      -.155528
001442: 25,3742           73155                           DEC      -.149565
001443: 25,3743           74151                           DEC      -.118509
001444: 25,3744           76703                           DEC      -.034907
001445: 25,3745           77575                           DEC      -.007950
001446: 25,3746           77575                           DEC      -.007950
001447:


001449: 25,3747           00112                           DEC      .004491                               #  DRANGE/D L/D SCALED Y/2700
001450: 25,3750           00204                           DEC      .008081
001451: 25,3751           00407                           DEC      .016030
001452: 25,3752           01113                           DEC      .035815
001453: 25,3753           02161                           DEC      .069422
001454: 25,3754           03260                           DEC      .104519
001455: 25,3755           03717                           DEC      .122
001456: 25,3756           05411                           DEC      .172407
001457: 25,3757           10057                           DEC      .252852
001458: 25,3760           13476                           DEC      .363148
001459: 25,3761           20324                           DEC      .512963
001460: 25,3762           21677                           DEC      .558519
001461: 25,3763           21677                           DEC      .558519                               #  END OF STORED REFERENCE
001462:


001464:                                                                                                  #  REENTRY CONSTANTS.
001465:
001466:                                                                                                  #  DEFINED BY EQUALS
001467:
001468: 25,3764     4721               DEC15              =        LOW4
001469:                                                                                                  # GAMMAL1                =       22D
001470:
001471: 25,3764           16631 06755  MAXRNG             2OCT     1663106755                            #  DNRNGERR = 9999.9 IF GONEPAST=1
001472:
001473: 26,3144                                           BANK     26
001474: 26,2000                                           SETLOC   REENTRY1
001475: 26,2000                                           BANK
001476:
001477: 26,3144                                           COUNT*   $$/ENTRY
001478:
001479: 26,3144  27,3362               BARELY1            =        NEARONE                               #  COMMON TO BOTH DISK,DANCE.DEFND IN TFF
001480:                                                                                                  # 1BITDP                                 COMMON TO BOTH DISK AND DANCE. DEFND IN VECPOINT.
001481:
001482: 26,3144           02525        1/12TH             DEC      .083333                               #  DP 1/12 USES HI WORD IN 1/3 BELOW
001483: 26,3145           12525 12525  1/3RD              2DEC     .3333333333                            #  DP 1/3
001484:
001485: 26,3147  27,3356               1/16TH             =        DP2(-4)
001486:
001487:                                                                                                  #  BELOW:  VS = VSAT = 25766.1973 FT/SEC
001488:                                                                                                  #          RE = 21,202,900 FEET
001489:
001490: 26,3147           04631 23146  LEWD1              2DEC     .15
001491: 26,3151           03146 14632  POINT1             2DEC     .1
001492: 26,3153           06314 31463  POINT2             2DEC     .2                                    #  .2
001493: 26,3155           76314 71462  DLEWD0             2DEC     -.05                                  #  -.05
001494: 26,3157           05075 16051  GMAX/2             2DEC     .16                                   #  8 GS / 2
001495:
001496: 26,3161  26,3331               3ZEROS             EQUALS   HI6ZEROS
001497:
001498: 26,3161           07777 00000  NEAR1/4            2OCT     0777700000                            #  1/4 LESS 1 BIT IN UPPER PART.
001499: 26,3163           00236 36763  C18                2DEC     .0097026346                            #  500/2VS
001500: 26,3165           00204 11303  Q7FKDMIN           2DEC     .0080745342                            #  6.5/805  (Q7F +KDMIN) = 6 + .5)
001501:
001502: 26,3167  27,3356               C1/16              =        DP2(-4)
001503:
001504: 26,3167           05260 05572  Q3                 2DEC     .167003132                            #  .07 2VS/21600


001506: 26,3171           12343 21616  Q5                 2DEC     .326388889                            #  .3 23500/21600
001507: 26,3173           01073 31515  Q6                 2DEC     .0349                                 #  2 DEG, APPROX 820/23500
001508: 26,3175           00172 03571  Q7F                2DEC     .0074534161                            #  6/805  (VALUE OF Q7 IN FIXED MEM.)
001509: 26,3177  26,3327               Q19                =        HALVE                                 #  Q19 = .5
001510: 26,3177           00573 10230  Q21                2DEC     .0231481481                            #  500/21600
001511: 26,3201           76226 45761  Q22                2DEC     -.053333333                            #  -1152/21600
001512: 26,3203           13132 33062  VLMIN              2DEC     .34929485                             #  18000/2 VS
001513: 26,3205  26,3321               VMIN               =        FOURTH                                #  (VS/2) / 2VS
001514: 26,3205           00160 05104  C12                2DEC     .00684572901                            #  32 28500/(21202900 2 PI)
001515: 26,3207           11322 32265  1/KB1              2DEC     .29411765                             #  1 / 3.4
001516: 26,3211           75047 72454  -1/KB2             2DEC     -.0057074322 B4                         #  = - 1/(.0034 2 VS) EXP +4
001517: 26,3213           00475 35746  VQUIT              2DEC     .019405269                            #  1000 /2VS
001518: 26,3215           06751 27515  C20                2DEC     .21739130                             #  (175 FPSS) LIFT UP IF ABOVE C20
001519: 26,3217           05441 14412  C21                2DEC     .17391304                             #  140/805
001520: 26,3221           00022 36641  25NM               2DEC     .0011574074                            #  25/21600      (25 NAUT MILES)
001521: 26,3223           01003 06315  K1D                2DEC     .0314453125                            #  =C16 805/256 = .01 805/256
001522: 26,3225           71435 75516  K2D                2DEC     -.201298418                            #  -C17 2VS/256 = -.001 2VS/256
001523: 26,3227           32047 24367  KVSCALE            2DEC     .81491944                             #  12800/(2 VS .3048)
001524: 26,3231           37200 05636  KASCALE            2DEC     .97657358                             #  5.85 16384/(4 .3048 100 805)
001525: 26,3233           00046 13137  KTETA              2DEC*    .383495203 E2         B-14*           #  1000 2PI/16384(163.84)
001526: 26,3235           00017 30730  KT1                2DEC*    .157788327 E2         B-14*           #  RE(2PI)/2 VS(16384) 163.84
001527: 26,3237           00040 30447  .05G               2DEC     .002                                  #  .05/25
001528: 26,3241           00000 17565  LATBIAS            2DEC     .00003                                #  APPRX .5 NM/ 4(21600/2 PI)
001529: 26,3243           01727 20103  KWE                2DEC     .120056652 B-1
001530: 26,3245           00121 17460  KACOS              2DEC     .004973592                            #  1/32(2PI)
001531: 26,3247           00400 00000  CHOOK              2DEC     1          B-6                        #  .25/16


001533: 26,3251           01252 25253  1/24TH             2DEC     .0833333333 B-1
001534: 26,3253           24365 30244  CH1                2DEC     .32        B1                         #  16 CH1/25 = 16 (1) /25
001535: 26,3255           77152 51354  KC3                2DEC     -.0247622232                            #  -(4 VS VS/ 2 PI 805 RE)
001536: 26,3257           00336 21610  VRCONT             2DEC     .0135836886                            #  700/2 VSAT
001537:
001538: 26,3261  26,3327               HALVE              EQUALS   HIDPHALF
001539: 26,3261  26,3321               FOURTH             EQUALS   HIDP1/4
001540:
001541: 26,3261  26,3327               1/GMAX             EQUALS   HALVE                                 #  4/GMAX = 4 / 8
001542:
001543: 26,3261           00433 02775  2HS                2DEC     .0172786611                            #  2 28500 25 32.2/(4 VS VS)
001544: 26,3263           00000 20017  2HSGMXSQ           2DEC     .0000305717                            #  (2 28500 8 32.2/ 4 VS VS)SQ
001545: 26,3265           77765 70243  C001               2DEC     -.000625                              #  -(4/25)/256   LEQ/D0 CONST
001546: 26,3267           31463 06315  POINT8             2DEC     .8
001547: 26,3271           00541 33575  2C1HS              2DEC     .0215983264                            #  2 1.25 28500 805/(2 VS)SQ
001548: 26,3273           00146 14632  PT1/16             2DEC     .1         B-4
001549: 26,3275           00052 30013  1/K44              2DEC     .00260929464                            #  2 VS/19749550
001550: 26,3277           20411 03041  VFINAL             2DEC     .51618016                             #  26600/2 VS
001551: 26,3301           20610 10513  VFINAL1            2DEC     .523942273                            #  = 27000 / 2 VS
001552: 26,3303           11473 02355  1/KA1              2DEC     .30048077                             #  25/(1.3 64)
001553: 26,3305           00203 02234  KA2                2DEC     .008                                  #  .2/25
001554: 26,3307           16237 00146  KA3                2DEC     .44720497                             #  = 90 4/805
001555: 26,3311           01456 03450  KA4                2DEC     .049689441                            #  40/805
001556: 26,3313  26,3311               Q7MIN              =        KA4                                   #  = 40/805 = .049689441
001557: 26,3313           56232 72332  -HSCALED           2DEC     -.55305018                            #  -28500/2 VS
001558: 26,3315           77000 43741  -KSCALE            2DEC     -.0312424837                            #  -805/VS
001559: 26,3317           36702 21727  COS15              2DEC     .965
001560: 26,3321  26,3144               LATSLOPE           EQUALS   1/12TH
001561:
001562:                                                                                                  #  ... END OF RE-ENTRY CONSTANTS ...
001563:

End of include-file REENTRY_CONTROL.agc.  Parent file is MAIN.agc


