
Source Code


000002:                                                                                                  ## Copyright:   Public domain.
000003:                                                                                                  ## Filename:    RESTART_TABLES.agc
000004:                                                                                                  ## Purpose:     Part of the source code for Colossus, build 249.
000005:                                                                                                  ##              It is part of the source code for the Command Module's (CM)
000006:                                                                                                  ##              Apollo Guidance Computer (AGC), possibly for Apollo 8 and 9.
000007:                                                                                                  ## Assembler:   yaYUL
000008:                                                                                                  ## Reference:   pp. 207-217 of 1701.pdf.
000009:                                                                                                  ## Contact:     Ron Burkey <info@sandroid.org>.
000010:                                                                                                  ## Website:     www.ibiblio.org/apollo.
000011:                                                                                                  ## Mod history: 08/07/04 RSB.   Adapted from similar Luminary 131 file.
000012:                                                                                                  ##                              Oddly, the 2 pages of introductory comments
000013:                                                                                                  ##                              aren't present in Luminary.
000014:                                                                                                  ##              2010-10-25 JL   Fixed page number.
000015:                                                                                                  ##
000016:                                                                                                  ## The contents of the "Colossus249" files, in general, are transcribed
000017:                                                                                                  ## from a scanned document obtained from MIT's website,
000018:                                                                                                  ## http://hrst.mit.edu/hrs/apollo/public/archive/1701.pdf.  Notations on this
000019:                                                                                                  ## document read, in part:
000020:                                                                                                  ##
000021:                                                                                                  ##      Assemble revision 249 of AGC program Colossus by NASA
000022:                                                                                                  ##      2021111-041.  October 28, 1968.
000023:                                                                                                  ##
000024:                                                                                                  ##      This AGC program shall also be referred to as
000025:                                                                                                  ##                              Colossus 1A
000026:                                                                                                  ##
000027:                                                                                                  ##      Prepared by
000028:                                                                                                  ##                      Massachusetts Institute of Technology
000029:                                                                                                  ##                      75 Cambridge Parkway
000030:                                                                                                  ##                      Cambridge, Massachusetts
000031:                                                                                                  ##      under NASA contract NAS 9-4065.
000032:                                                                                                  ##
000033:                                                                                                  ## Refer directly to the online document mentioned above for further information.
000034:                                                                                                  ## Please report any errors (relative to 1701.pdf) to info@sandroid.org.
000035:                                                                                                  ##
000036:                                                                                                  ## In some cases, where the source code for Luminary 131 overlaps that of
000037:                                                                                                  ## Colossus 249, this code is instead copied from the corresponding Luminary 131
000038:                                                                                                  ## source file, and then is proofed to incorporate any changes.
000039:


000041:                                                                                                  #  RESTART TABLES
000042:                                                                                                  #  --------------
000043:
000044:                                                                                                  #  THERE ARE TWO FORMS OF RESTART TABLES FOR EACH GROUP.  THEY ARE KNOWN AS THE EVEN RESTART TABLES AND THE ODD
000045:                                                                                                  #  RESTART TABLES.  THE ODD TABLES HAVE ONLY ONE ENTRY OF THREE LOCATIONS WHILE THE EVEN TABLES HAVE TWO ENTRIES
000046:                                                                                                  #  EACH USING THREE LOCATIONS.  THE INFORMATION AS TO WHETHER IT IS A JOB, WAITLIST, OR A LONGCALL IS GIVEN BY THE
000047:                                                                                                  #  WAY THINGS ARE PUT IN TO THE TABLES.
000048:
000049:                                                                                                  #  A JOB HAS ITS PRIORITY STORED IN A PRDTTAB OF THE CORRECT PHASE SPOT -- A POSITIVE PRIORITY INDICATES A
000050:                                                                                                  #  FINDVAC JOB, A NEGATIVE PRIORITY A NOVAC.  THE 2CADR OF THE JOB IS STORED IN THE CADRTAB.
000051:                                                                                                  #  FOR EXAMPLE,
000052:
000053:                                                                                                  #                5.7SPOT         OCT     23000
000054:                                                                                                  #                                2CADR   SOMEJOB
000055:
000056:                                                                                                  #  A RESTART OF GROUP 5 WITH PHASE SEVEN WOULD THEN CAUSE SOMEJOB TO BE RESTARTED AS A FINDVAC WITH PRIORITY 23.
000057:
000058:                                                                                                  #                5.5SPOT         OCT     -2300
000059:                                                                                                  #                                2CADR   ANYJOB
000060:
000061:                                                                                                  #  HERE A RESTART OF GROUP 5 WITH PHASE 7 WOULD CAUSE ANYJOB TO BE RESTARTED AS A NOVAC WITH PRIORITY 23.
000062:                                                                                                  #  A LONGCALL HAS ITS GENADR OF ITS 2CDR STORED NEGATIVELY AND ITS BBCON STORED POSITIVELY.  IN ITS PRDTTAB IS
000063:                                                                                                  #  PLACED THE LOCATION OF A DP REGISTER THAT CONTAINS THE DELTA TIME THAT LONGCALL HAD BEEN ORIGINALLY STARTED
000064:                                                                                                  #  WITH.  EXAMPLE,
000065:
000066:                                                                                                  #                3.6SPOT         GENADR  DELTAT
000067:                                                                                                  #                                -GENADR LONGTASK
000068:                                                                                                  #                                BBCON   LONGTASK
000069:
000070:                                                                                                  #                                OCT     31000
000071:                                                                                                  #                                2CADR   JOBAGAIN
000072:
000073:                                                                                                  #  THIS WOULD START UP LONGTASK AT THE APPROPRIATE TIME, OR IMMEDIATELY IF THE TIME HAD ALREADY PASSED.  IT SHOULD
000074:                                                                                                  #  BE NOTED THAT IF DELTAT IS IN A SWITCHED E BANK, THIS INFORMATION SHOULDD BE IN THE BBCON OF THE 2CADR OF THE
000075:                                                                                                  #  TASK.  FROM ABOVE, WE SEE THAT THE SECOND PART O FTHIS PHASE WOULD BE STARTED AS A JOB WITH A PRIORITY OF 31.
000076:
000077:                                                                                                  #  WAITLIST CALLS ARE IDENTIFIED BY THE FCT THAT THEIR 2CADR IS STORED NEGATIVELY.  IF PRDTTAB OF THE PHASE SPOT
000078:                                                                                                  #  IS POSITIVE, THEN IT CONTAINS THE DELTA TIME, IF PRDTTAB IS NEGATIVE THEN IT IS THE -GENADR OF AN ERASABLE
000079:                                                                                                  #  IF THE TIME IS STORED INDIRECTLY, THE BBCON MUST CONTAIN THE NECESSARY E BANK INFORMATION IF APPLICABLE.  WITH
000080:                                                                                                  #  WAITLIST WE HAVE ONE FURTHER OPTION, IF -0 IS STORED IN PRDTTAB, IT WILL CAUSE AN IMMEDIATE RESTART OF THE
000081:                                                                                                  #  TASK.  EXAMPLES,
000082:
000083:                                                                                                  #                                OCT     77777           # THIS WILL CAUSE AN IMMEDIATE RESTART
000084:                                                                                                  #                                -2CADR  ATASK           # OF THE TASK "ATASK"
000085:
000086:                                                                                                  #                                DEC     200             # IF THE TIME OF THE 2 SECONDS SINCE DUMMY
000087:                                                                                                  #                                -2CADR  DUMMY           # WAS PUT ON THE WAITLIST IS UP, IT WILL BEGIN
000088:                                                                                                  #                                                        # IN 10 MS, OTHERWISE IT WILL BEGIN WHEN
000089:                                                                                                  #                                                        # IT NORMALLY WOULD HAVE BEGUN.


000091:                                                                                                  #                                -GENADR DTIME           # WHERE DTIME CONTAINS THE DELTA TIME
000092:                                                                                                  #                                -2CADR  TASKTASK        # OTHERWISE THIS IS AS ABOVE
000093:
000094:                                                                                                  #  ***** NOW THE TABLES THEMSELVES *****
000095:
000096: 01,2000                                           BANK     01
000097: 01,2000                                           SETLOC   RESTART
000098: 01,2000                                           BANK
000099:
000100: 01,2000                                           COUNT    01/RSTAB
000101:
000102: 01,2000                        PRDTTAB            EQUALS   12000                                 #  USED TO FIND THE PRIORITY OR DELTATIME
000103: 01,2000                        CADRTAB            EQUALS   12001                                 #  THIS AND THE NEXT RELATIVE LOC CONTAIN
000104:                                                                                                  #  RESTART 2CADR
000105:
000106: 01,2000           00063        SIZETAB            TC       1.2SPOT    -12006
000107: 01,2001           00010                           TC       1.3SPOT    -12004
000108: 01,2002           00063                           TC       2.2SPOT    -12006
000109: 01,2003           00024                           TC       2.3SPOT    -12004
000110: 01,2004           00063                           TC       3.2SPOT    -12006
000111: 01,2005           00043                           TC       3.3SPOT    -12004
000112: 01,2006           00063                           TC       4.2SPOT    -12006
000113: 01,2007           00107                           TC       4.3SPOT    -12004
000114: 01,2010           00242                           TC       5.2SPOT    -12006
000115: 01,2011           00260                           TC       5.3SPOT    -12004
000116: 01,2012           00336                           TC       6.2SPOT    -12006
000117: 01,2013           00346                           TC       6.3SPOT    -12004
000118: 01,2014  01,2071               1.2SPOT            EQUALS   3.2SPOT
000119:
000120:                                                                                                  #  ANY MORE GROUP 1.EVEN RESTART VALUES SHOULD GO HERE.
000121:
000122: 01,2014           00170        1.3SPOT            DEC      120        B-14                       #  THIS NUMBER MUST BE EQUAL C(JTAGTIME)
000123: 01,2015  E6,1661                                  EBANK=   AOG
000124: 01,2015           74550 45711                     -2CADR   SETJTAG
000125:
000126: 01,2017           10000        1.5SPOT            OCT      10000
000127: 01,2020  E6,1466                                  EBANK=   DAPDATR1
000128: 01,2020           02362 34066                     2CADR    REDO40.9
000129:
000130: 01,2022           10000        1.7SPOT            OCT      10000
000131: 01,2023  E6,1412                                  EBANK=   ESTROKER
000132: 01,2023           02074 56066                     2CADR    RELINUS
000133:
000134: 01,2025           10000        1.11SPOT           OCT      10000
000135: 01,2026  E6,1412                                  EBANK=   ESTROKER
000136: 01,2026           02273 76066                     2CADR    PIKUP20
000137:
000138:                                                                                                  #  ANY MORE GROUP 1.ODD RESTART VALUES SHOULD GO HERE.
000139:
000140: 01,2030  01,2071               2.2SPOT            EQUALS   1.2SPOT
000141:
000142:                                                                                                  #  ANY MORE GROUP 2.EVEN RESTART VALUES SHOULD GO HERE


000144:
000145: 01,2030           02605        2.3SPOT            GENADR   600SECS
000146: 01,2031           75216                           -GENADR  STATEINT
000147: 01,2032  E3,1554                                  EBANK=   RRECTCSM
000148: 01,2032           26063                           BBCON    STATEINT
000149:
000150: 01,2033           05000        2.5SPOT            OCT      05000
000151: 01,2034  E3,1554                                  EBANK=   RRECTCSM
000152: 01,2034           02570 26063                     2CADR    STATINT1
000153:
000154: 01,2036           10000        2.7SPOT            OCT      10000
000155: 01,2037  E7,1734                                  EBANK=   MRKBUF2
000156: 01,2037           02512 70067                     2CADR    R22
000157:
000158: 01,2041           14000        2.11SPOT           OCT      14000
000159: 01,2042  E5,1751                                  EBANK=   LANDMARK
000160: 01,2042           02173 62065                     2CADR    V94ENTER
000161:
000162: 01,2044           10000        2.13SPOT           OCT      10000
000163: 01,2045  E7,1734                                  EBANK=   MRKBUF2
000164: 01,2045           02377 56067                     2CADR    REDOR22
000165:
000166:                                                                                                  #  ANY MORE GROUP 2.ODD RESTART VALUES SHOULD GO HERE.
000167:
000168: 01,2047  01,2071               3.2SPOT            EQUALS   4.2SPOT
000169:
000170:                                                                                                  #  ANY MORE GROUP 3.EVEN RESTART VALUES SHOULD GO HERE
000171:
000172: 01,2047           20000        3.3SPOT            OCT      20000
000173: 01,2050  E7,1427                                  EBANK=   TGO
000174: 01,2050           02404 34067                     2CADR    S40.13
000175:
000176: 01,2052           00000        3.5SPOT            DEC      0          B-14
000177: 01,2053           00000                           DEC      0          B-14
000178: 01,2054           00000                           DEC      0          B-14
000179:
000180: 01,2055           22000        3.7SPOT            OCT      22000
000181: 01,2056  E3,1706                                  EBANK=   TEPHEM
000182: 01,2056           02127 70063                     2CADR    MATRXJOB
000183:
000184: 01,2060           22000        3.11SPOT           OCT      22000
000185: 01,2061  E3,1706                                  EBANK=   TEPHEM
000186: 01,2061           02247 70063                     2CADR    REP11
000187:
000188: 01,2063           22000        3.13SPOT           OCT      22000
000189: 01,2064  E3,1706                                  EBANK=   TEPHEM
000190: 01,2064           02026 70063                     2CADR    REP11A
000191:
000192: 01,2066           76347        3.15SPOT           -GENADR  TGO        +1
000193: 01,2067  E7,1427                                  EBANK=   TGO
000194: 01,2067           75071 27710                     -2CADR   ENGINOFF
000195:


000197:                                                                                                  #  ANY MORE GROUP 3.ODD RESTART VALUES SHOULD GO HERE
000198:
000199: 01,2071           77777        4.2SPOT            OCT      77777
000200: 01,2072  E7,1412                                  EBANK=   TIG
000201: 01,2072           75262 27710                     -2CADR   PRECHECK
000202:
000203: 01,2074           30000                           OCT      30000
000204: 01,2075  E7,1674                                  EBANK=   DELVIMU
000205: 01,2075           02461 50067                     2CADR    P47BODY
000206:
000207: 01,2077           77777        4.4SPOT            OCT      77777
000208: 01,2100  E7,1412                                  EBANK=   TIG
000209: 01,2100           75262 27710                     -2CADR   PRECHECK
000210:
000211: 01,2102           05664                           DEC      2996       B-14
000212: 01,2103  E6,1466                                  EBANK=   DAPDATR1
000213: 01,2103           75517 27711                     -2CADR   TTG/0
000214:
000215: 01,2105           77777        4.6SPOT            OCT      77777
000216: 01,2106  E7,1412                                  EBANK=   TIG
000217: 01,2106           75262 27710                     -2CADR   PRECHECK
000218:
000219: 01,2110           04700                           DEC      2496       B-14
000220: 01,2111  E7,1412                                  EBANK=   TIG
000221: 01,2111           75256 27710                     -2CADR   TIG-5
000222:
000223:                                                                                                  #  ANY MORE GROUP 4.EVEN RESTART VALUES SHOULD GO HERE
000224:
000225: 01,2113           00050        4.3SPOT            DEC      40         B-14
000226: 01,2114  E6,1425                                  EBANK=   PACTOFF
000227: 01,2114           75170 27711                     -2CADR   DOTVCON
000228:
000229: 01,2116           00240        4.5SPOT            DEC      160        B-14
000230: 01,2117  E6,1425                                  EBANK=   PACTOFF
000231: 01,2117           75142 27711                     -2CADR   DOSTRULL
000232:
000233: 01,2121           00764        4.7SPOT            DEC      500        B-14
000234: 01,2122  E6,1425                                  EBANK=   PACTOFF
000235: 01,2122           75240 27711                     -2CADR   TIG-0
000236:
000237: 01,2124           00372        4.11SPOT           DEC      250        B-14
000238: 01,2125  E6,1466                                  EBANK=   DAPDATR1
000239: 01,2125           74317 27711                     -2CADR   V97E40.6
000240:
000241: 01,2127           00310        4.13SPOT           DEC      200        B-14
000242: 01,2130  E7,1777                                  EBANK=   WHOCARES
000243: 01,2130           74352 27710                     -2CADR   R40ENABL
000244:
000245: 01,2132           16000        4.15SPOT           OCT      16000                                 #  PRELAUNCH OPTICAL VERIFICATION
000246: 01,2133  E5,1757                                  EBANK=   OGC


000248: 01,2133           02000 66065                     2CADR    COMPVER                               #  CALLS FOR OPTICS DATA AGAIN (STD LEADIN)
000249:
000250: 01,2135           16000        4.17SPOT           OCT      16000
000251: 01,2136  E5,1671                                  EBANK=   XSM
000252: 01,2136           03736 66065                     2CADR    AZMTHCG1
000253:
000254: 01,2140           01672        4.21SPOT           GENADR   P40TMP                                #  DELTA TIME USED IN SETTING UP
000255: 01,2141           75413                           -GENADR  TIGBLNK                               #  LONG CALL OF TIGBLNK BY P40,P41
000256: 01,2142  E7,1672                                  EBANK=   P40TMP
000257: 01,2142           50067                           BBCON    TIGBLNK
000258:
000259: 01,2143           12000        4.23SPOT           OCT      12000                                 #  PROTECT P40S/SV BY P40 P41
000260: 01,2144  E7,1412                                  EBANK=   TIG
000261: 01,2144           02113 50067                     2CADR    P40S/SV
000262:
000263: 01,2146           24000        4.25SPOT           OCT      24000
000264: 01,2147     0302                                  EBANK=   BESTI
000265: 01,2147           02000 32060                     2CADR    PROG52
000266:
000267: 01,2151           00372        4.27SPOT           DEC      250        B-14
000268: 01,2152  E6,1425                                  EBANK=   PACTOFF
000269: 01,2152           75055 27711                     -2CADR   DOTVCRCS
000270:
000271: 01,2154           13000        4.31SPOT           OCT      13000
000272: 01,2155  E5,1765                                  EBANK=   STAR
000273: 01,2155           02524 30065                     2CADR    R51        +1
000274:
000275: 01,2157           04064        4.33SPOT           DEC      2100       B-14                       #  PROTECT CONTINUING JOB TO START P63
000276: 01,2160  E6,1661                                  EBANK=   AOG
000277: 01,2160           75403 23711                     -2CADR   WAKEP62
000278:
000279: 01,2162           12000        4.35SPOT           OCT      12000
000280: 01,2163  E6,1466                                  EBANK=   DAPDATR1
000281: 01,2163           02155 50066                     2CADR    POSTBURN
000282:
000283: 01,2165           00764        4.37SPOT           DEC      500        B-14
000284: 01,2166  E7,1412                                  EBANK=   TIG
000285: 01,2166           75275 27710                     -2CADR   TIGAVEG
000286:
000287: 01,2170           17000        4.41SPOT           OCT      17000                                 #  PROTECT DISPLAY JOB IN P67
000288: 01,2171  E6,1661                                  EBANK=   AOG
000289: 01,2171           02511 54066                     2CADR    P67.1
000290:
000291: 01,2173           76003        4.43SPOT           -GENADR  S61DT                                 #  PROTECT TASK TO START PREREAD,ENTRY
000292: 01,2174  E6,1774                                  EBANK=   S61DT                                 #  S61.1C WILL CHANGE EBANK=EB7 FOR PREREAD
000293: 01,2174           75213 23711                     -2CADR   S61.1C
000294:
000295: 01,2176           13000        4.45SPOT           OCT      13000                                 #  PROTECT CONTINUING JOB S61.1
000296: 01,2177  E6,1661                                  EBANK=   AOG                                   #  (ENTRY IMU ALIGNMENT)


000298: 01,2177           02602 54066                     2CADR    S61.1A     -1
000299:
000300: 01,2201           17000        4.47SPOT           OCT      17000                                 #  PROTECT HUNTEST ITERATION
000301: 01,2202  E6,1661                                  EBANK=   AOG
000302: 01,2202           03006 52066                     2CADR    PRE-HUNT
000303:
000304: 01,2204           77777        4.51SPOT           OCT      77777                                 #  PROTECT FDAI ATTITUDE
000305: 01,2205  E6,1704                                  EBANK=   BODY3                                 #  ERROR DISPLAY IN P11
000306: 01,2205           75463 07711                     -2CADR   ATERTASK
000307:
000308: 01,2207           77777        4.53SPOT           DEC      -0         B-14
000309: 01,2210  E7,1777                                  EBANK=   END-E7                                #  EBANK7 FOR TIG
000310: 01,2210           74336 27710                     -2CADR   V97ETASK
000311:
000312: 01,2212           13000        4.55SPOT           OCT      13000                                 #  PROTECT P65 RESPONSIVE DISPLAY.
000313: 01,2213  E7,1451                                  EBANK=   RTINIT
000314: 01,2213           02456 54067                     2CADR    P65.1
000315:
000316: 01,2215           76105        4.57SPOT           -GENADR  P40TMP
000317: 01,2216  E7,1672                                  EBANK=   P40TMP
000318: 01,2216           75352 27710                     -2CADR   TIGON
000319:
000320: 01,2220           77777        4.61SPOT           OCT      77777
000321: 01,2221  E6,1425                                  EBANK=   PACTOFF
000322: 01,2221           75225 27711                     -2CADR   IGNITION
000323:
000324: 01,2223           77777        4.63SPOT           OCT      77777
000325: 01,2224  E6,1425                                  EBANK=   PACTOFF
000326: 01,2224           75063 27711                     -2CADR   DOSPSOFF
000327:
000328: 01,2226           00012        4.65SPOT           DEC      10         B-14
000329: 01,2227  E7,1412                                  EBANK=   TIG
000330: 01,2227           75256 27710                     -2CADR   TIG-5
000331:
000332: 01,2231           77777        4.67SPOT           DEC      -0         B-14
000333: 01,2232  E6,1474                                  EBANK=   CSMMASS
000334: 01,2232           74420 27711                     -2CADR   V97TTASK
000335:
000336: 01,2234           00372        4.71SPOT           DEC      250        B-14
000337: 01,2235  E6,1466                                  EBANK=   DAPDATR1                              #  (FOR RCSDAPON)
000338: 01,2235           74403 27711                     -2CADR   V97TRCS
000339:
000340: 01,2237           77777        4.73SPOT           DEC      -0         B-14
000341: 01,2240  E6,1444                                  EBANK=   V97VCNTR
000342: 01,2240           74366 27711                     -2CADR   V97PTASK
000343:
000344: 01,2242           77777        4.75SPOT           DEC      -0         B-14
000345: 01,2243  E6,1466                                  EBANK=   DAPDATR1
000346: 01,2243           74324 27711                     -2CADR   SPSOFF97
000347:


000349: 01,2245           77777        4.77SPOT           DEC      -0         B-14
000350: 01,2246  E6,1425                                  EBANK=   PACTOFF
000351: 01,2246           75240 27711                     -2CADR   TIG-0
000352:
000353:                                                                                                  #  ANY MORE GROUP 4.ODD RESTART VALUES SHOULD GO HERE
000354:
000355: 01,2250           32000        5.2SPOT            OCT      32000
000356: 01,2251  E7,1431                                  EBANK=   DVCNTR
000357: 01,2251           03141 76067                     2CADR    NORMLIZE
000358:
000359: 01,2253           00310                           DEC      200        B-14
000360: 01,2254  E6,1661                                  EBANK=   AOG
000361: 01,2254           74567 01711                     -2CADR   REREADAC
000362:
000363: 01,2256           20000        5.4SPOT            OCT      20000
000364: 01,2257  E7,1431                                  EBANK=   DVCNTR
000365: 01,2257           03007 76067                     2CADR    SERVICER
000366:
000367: 01,2261           00310                           DEC      200        B-14
000368: 01,2262  E6,1661                                  EBANK=   AOG
000369: 01,2262           74567 01711                     -2CADR   REREADAC
000370:
000371:                                                                                                  #  ANY MORE GROUP 5.EVEN RESTART VALUES SHOULD GO HERE
000372:
000373: 01,2264           00310        5.3SPOT            DEC      200        B-14
000374: 01,2265  E6,1661                                  EBANK=   AOG
000375: 01,2265           74567 01711                     -2CADR   REREADAC
000376:
000377: 01,2267           77777        5.5SPOT            OCT      77777
000378: 01,2270  E6,1661                                  EBANK=   AOG
000379: 01,2270           75123 01711                     -2CADR   REDO5.5
000380:
000381: 01,2272           20000        5.7SPOT            OCT      20000
000382: 01,2273  E5,1671                                  EBANK=   XSM
000383: 01,2273           02456 66065                     2CADR    RSTGTS1
000384:
000385: 01,2275           77777        5.11SPOT           OCT      77777
000386: 01,2276  E5,1671                                  EBANK=   XSM
000387: 01,2276           75174 11712                     -2CADR   ALLOOP1
000388:
000389: 01,2300           20000        5.13SPOT           OCT      20000
000390: 01,2301  E5,1671                                  EBANK=   XSM
000391: 01,2301           02527 66065                     2CADR    WTLISTNT
000392:
000393: 01,2303           20000        5.15SPOT           OCT      20000
000394: 01,2304  E5,1671                                  EBANK=   XSM
000395: 01,2304           03317 66065                     2CADR    RESTEST1
000396:
000397: 01,2306           20000        5.17SPOT           OCT      20000
000398: 01,2307  E5,1671                                  EBANK=   XSM


000400: 01,2307           05112 04065                     2CADR    GEOSTRT4
000401:
000402: 01,2311           20000        5.21SPOT           OCT      20000
000403: 01,2312  E5,1671                                  EBANK=   XSM
000404: 01,2312           02637 66065                     2CADR    ALFLT1
000405:
000406: 01,2314           77777        5.23SPOT           OCT      77777
000407: 01,2315  E5,1671                                  EBANK=   XSM
000408: 01,2315           75151 11712                     -2CADR   SPECSTS
000409:
000410: 01,2317           20000        5.25SPOT           OCT      20000
000411: 01,2320  E5,1671                                  EBANK=   XSM
000412: 01,2320           03330 66065                     2CADR    RESTEST3
000413:
000414: 01,2322           20000        5.27SPOT           OCT      20000
000415: 01,2323  E5,1671                                  EBANK=   XSM
000416: 01,2323           03276 66065                     2CADR    RESTAIER
000417:
000418: 01,2325           77777        5.31SPOT           OCT      77777
000419: 01,2326  E7,1431                                  EBANK=   DVCNTR
000420: 01,2326           75167 01710                     -2CADR   REDO5.31
000421:
000422: 01,2330           20000        5.33SPOT           OCT      20000
000423: 01,2331  E5,1671                                  EBANK=   XSM
000424: 01,2331           03353 66065                     2CADR    RESCHNG
000425:
000426: 01,2333           00000        5.35SPOT           DEC      0          B-14
000427: 01,2334           00000 00000                     2DEC     0          B-28
000428:
000429: 01,2336           77777        5.37SPOT           OCT      77777
000430: 01,2337  E6,1661                                  EBANK=   AOG
000431: 01,2337           75041 01711                     -2CADR   CHEKAVEG
000432:
000433: 01,2341           77777        5.41SPOT           OCT      77777                                 #  TO PROTECT PREREAD AT TIG-30A
000434: 01,2342  E7,1431                                  EBANK=   DVCNTR                                #        TIG-15 T-60
000435: 01,2342           75173 01710                     -2CADR   PREREAD
000436:
000437:                                                                                                  #  ANY MORE GROUP 5.ODD RESTART VALUES SHOULD GO HERE
000438:
000439: 01,2344           77777        6.2SPOT            OCT      77777                                 #  USED BY P40 AFTER GIMB DR TST TO REPOS'N
000440: 01,2345  E6,1476                                  EBANK=   AK
000441: 01,2345           75737 37711                     -2CADR   PRE40.6
000442:
000443: 01,2347           00144                           DEC      100        B-14
000444: 01,2350  E7,1660                                  EBANK=   TTOGO
000445: 01,2350           74605 27710                     -2CADR   CLOKTASK
000446:
000447:                                                                                                  #  ANY MORE 6.ODD RESTART VALUES SHOULD GO HERE


000449:
000450: 01,2352           00144        6.3SPOT            DEC      100        B-14
000451: 01,2353  E7,1412                                  EBANK=   TIG
000452: 01,2353           74605 27710                     -2CADR   CLOKTASK
000453:
000454: 01,2355           30000        6.5SPOT            OCT      30000                                 #  PROTECT INCREMENTING OF TIME2,TIME1 BY
000455: 01,2356  E3,1706                                  EBANK=   TEPHEM                                #  P27(UPDATE PROGRAM) VIA V70 OR V73
000456: 01,2356           03564 56063                     2CADR    TIMEDIDR
000457:
000458: 01,2360           00000        6.7SPOT            OCT      0
000459: 01,2361           00000                           OCT      0
000460: 01,2362           00000                           OCT      0
000461:
000462: 01,2363           76052        6.11SPOT           -GENADR  CM/GYMDT                              #  PROTECT TASK TO READ CDUS.
000463: 01,2364  E6,1725                                  EBANK=   CM/GYMDT                              #  FOR ENTRY DAP
000464: 01,2364           75323 45711                     -2CADR   READGYMB
000465:
000466: 01,2366           00000        6.13SPOT           DEC      0          B-14
000467: 01,2367           00000                           DEC      0          B-14
000468: 01,2370           00000                           DEC      0          B-14
000469:


000471:                                                                                                  #  PROGRAM DESCRIPTION: NEWPHASE                                         DATE:  11 NOV 1966
000472:                                                                                                  #  MOD: 1                                                                ASSEMBLY:  SUNBURST REV
000473:                                                                                                  #  MOD BY: COPPS                                                         LOG SECTION: PHASE TABLE MAINTENANCE
000474:
000475:                                                                                                  #  FUNCTIONAL DESCRIPTION:
000476:
000477:                                                                                                  #        NEWPHASE IS THE QUICK WAY TO MAKE A NON VARIABLE PHASE CHANGE.  IT INCLUDES THE OPTION OF SETTING
000478:                                                                                                  #        TBASE OF THE GROUP.  IF TBASE IS TO BE SET, -C(TIME1) IS STORED IN THE TBASE TABLE AS FOLLOWS:
000479:
000480:                                                                                                  #                (L-1)   TBASE0
000481:                                                                                                  #                (L)     TBASE1  (IF GROUP=1)
000482:                                                                                                  #                (L+1)
000483:                                                                                                  #                (L+2)   TBASE2  (IF GROUP=2)
000484:                                                                                                  #                -----
000485:                                                                                                  #                (L+6)   TBASE4  (IF GROUP=4)
000486:                                                                                                  #                (L+7)
000487:                                                                                                  #                (L+8)   TBASE5  (IF GROUP=5)
000488:
000489:                                                                                                  #        IN ANY CASE, THE NEGATIVE OF THE PHASE, FOLLOWED (IN THE NEXT REGISTER) BY THE PHASE, IS STORED IN THE
000490:                                                                                                  #        PHASE TABLE AS FOLLOWS:
000491:
000492:                                                                                                  #                (L)     -PHASE1 (IF GROUP=1)
000493:                                                                                                  #                (L+1)   PHASE1
000494:                                                                                                  #                (L+2)   -PHASE2 (IF GROUP=2)
000495:                                                                                                  #                -----
000496:                                                                                                  #                (L+7)   PHASE4
000497:                                                                                                  #                (L+8)   -PHASE5 (IF GROUP=5)
000498:                                                                                                  #                (L+9)   PHASE5
000499:
000500:                                                                                                  #  CALLING SEQUENCE:
000501:
000502:                                                                                                  #        EXAMPLE IS FOR PLACING A PHASE OF FIVE INTO GROUP THREE:
000503:
000504:                                                                                                  #        1)      IF TBASE IS NOT TO BE SET:
000505:                                                                                                  #                        L-1     CA      FIVE
000506:                                                                                                  #                        L       TC      NEWPHASE
000507:                                                                                                  #                        L+1     OCT     00003
000508:                                                                                                  #        3)      IF TBASE IS TO BE SET:
000509:                                                                                                  #                        L-1     CS      FIVE
000510:                                                                                                  #                        L       TC      NEWPHASE
000511:                                                                                                  #                        L+1     OCT     00003
000512:
000513:                                                                                                  #  SUBROUTINES CALLED:  NONE
000514:
000515:                                                                                                  #  NORMAL EXIT MODE:  AT L+2 OF CALLING SEQUENCE
000516:
000517:                                                                                                  #  ALARM OR ABORT EXITS:  NONE
000518:
000519:                                                                                                  #  OUTPUT:  PHASE TABLE AND TBASE TABLE UPDATED
000520:
000521:                                                                                                  #  ERASABLE INITIALIZATION REQ'D:  NONE


000523:                                                                                                  #  DEBRIS:  A,L,TEMPG
000524:
000525:                                                                                                  #  *** WARNING *** THIS PROGRAM IS TO BE PLACED IN FIXED-FIXED AND UNSWITCHED ERASABLE.
000526:
000527:    4114                                           BLOCK    02
000528:    4000                                           SETLOC   FFTAG1
000529:    4000                                           BANK
000530:
000531:    4114                                           COUNT*   $$/PHASE
000532:
000533:    4114           00004        NEWPHASE           INHINT
000534:
000535:    4115           54001                           TS       L                                     #  SAVE FOR FURTHER USE
000536:
000537:    4116           50002                           NDX      Q                                     #  OBTAIN THE GROUP NUMBER
000538:    4117           30000                           CA       0
000539:    4120           24002                           INCR     Q                                     #  OBTAIN THE RETURN ADDRESS
000540:    4121           60000                           DOUBLE                                         #  SAVE THE GROUP IN A FORM USED FOR
000541:    4122           54061                           TS       TEMPG                                 #  INDEXING
000542:
000543:    4123           10001                           CCS      L                                     #  SEE IF WE ARE TO SET TBASE
000544:    4124           14133                           TCF      +7                                    #  NO, THE DELTA T WAS POSITIVE
000545:    4125           14133                           TCF      +6
000546:
000547:    4126           24000        NUFAZ+10           INCR     A                                     #  SET TBASE AND STORE PHASE CORRECTLY
000548:    4127           54001                           TS       L
000549:
000550:    4130           40025                           CS       TIME1                                 #  SET TBASE
000551:    4131           50061                           NDX      TEMPG
000552:    4132           55051                           TS       TBASE1     -2
000553:
000554:    4133           40001                           CS       L                                     #  NOW PUT THE PHASE IN THE RIGHT TABLE LOC
000555:    4134           50061                           NDX      TEMPG
000556:    4135           52751                           DXCH     -PHASE1    -2
000557:
000558:    4136           00003                           RELINT
000559:    4137           00002                           TC       Q                                     #  NOW RETURN TO CALLER
000560:

End of include-file RESTART_TABLES.agc.  Parent file is MAIN.agc


