
Source Code


000002:                                                                                                  ## Copyright:   Public domain.
000003:                                                                                                  ## Filename:    RESTARTS_ROUTINE.agc
000004:                                                                                                  ## Purpose:     Part of the source code for Colossus, build 249.
000005:                                                                                                  ##              It is part of the source code for the Command Module's (CM)
000006:                                                                                                  ##              Apollo Guidance Computer (AGC), possibly for Apollo 8 and 9.
000007:                                                                                                  ## Assembler:   yaYUL
000008:                                                                                                  ## Reference:   Starts on p. 1404 of 1701.pdf.
000009:                                                                                                  ## Contact:     Ron Burkey <info@sandroid.org>.
000010:                                                                                                  ## Website:     www.ibiblio.org/apollo.
000011:                                                                                                  ## Mod history: 08/30/04 RSB.   Adapted from corresponding Luminary131 file.
000012:                                                                                                  ##              2010-10-24 JL   Added missing # in comment.
000013:                                                                                                  ##
000014:                                                                                                  ## The contents of the "Colossus249" files, in general, are transcribed
000015:                                                                                                  ## from a scanned document obtained from MIT's website,
000016:                                                                                                  ## http://hrst.mit.edu/hrs/apollo/public/archive/1701.pdf.  Notations on this
000017:                                                                                                  ## document read, in part:
000018:                                                                                                  ##
000019:                                                                                                  ##      Assemble revision 249 of AGC program Colossus by NASA
000020:                                                                                                  ##      2021111-041.  October 28, 1968.
000021:                                                                                                  ##
000022:                                                                                                  ##      This AGC program shall also be referred to as
000023:                                                                                                  ##                              Colossus 1A
000024:                                                                                                  ##
000025:                                                                                                  ##      Prepared by
000026:                                                                                                  ##                      Massachusetts Institute of Technology
000027:                                                                                                  ##                      75 Cambridge Parkway
000028:                                                                                                  ##                      Cambridge, Massachusetts
000029:                                                                                                  ##      under NASA contract NAS 9-4065.
000030:                                                                                                  ##
000031:                                                                                                  ## Refer directly to the online document mentioned above for further information.
000032:                                                                                                  ## Please report any errors (relative to 1701.pdf) to info@sandroid.org.
000033:                                                                                                  ##
000034:                                                                                                  ## In some cases, where the source code for Luminary 131 overlaps that of
000035:                                                                                                  ## Colossus 249, this code is instead copied from the corresponding Luminary 131
000036:                                                                                                  ## source file, and then is proofed to incorporate any changes.
000037:


000039: 01,3520                                           BANK     01
000040: 01,2000                                           SETLOC   RESTART
000041: 01,2000                                           BANK
000042:
000043: 01,3520  E3,1436                                  EBANK=   PHSNAME1                              #  GOPROG MUST SWITCH TO THIS EBANK
000044:
000045: 01,3520                                           COUNT    01/RSROU
000046:
000047: 01,3520           30161        RESTARTS           CA       MPAC       +5                         #  GET GROUP NUMBER -1
000048: 01,3521           60000                           DOUBLE                                         #  SAVE FOR INDEXING
000049: 01,3522           54155                           TS       TEMP2G
000050:
000051: 01,3523           33762                           CA       PHS2CADR                              #  SET UP EXIT IN CASE IT IS AN EVEN
000052: 01,3524           54157                           TS       TEMPSWCH                              #  TABLE PHASE
000053:
000054: 01,3525           33557                           CA       RTRNCADR                              #  TO SAVE TIME ASSUME IT WILL GET NEXT
000055: 01,3526           54707                           TS       GOLOC      +2                         #  GROUP AFTER THIS
000056:
000057: 01,3527           30154                           CA       TEMPPHS
000058: 01,3530           74744                           MASK     OCT1400
000059: 01,3531           10000                           CCS      A                                     #  IS IT A VARIABLE OR TABLE RESTART
000060: 01,3532           13543                           TCF      ITSAVAR                               #  IT'S A VARIABLE RESTART
000061:
000062: 01,3533           10154        GETPART2           CCS      TEMPPHS                               #  IS IT AN X.1 RESTART
000063: 01,3534           10000                           CCS      A
000064: 01,3535           13643                           TCF      ITSATBL                               #  NO, IT'S A TABLE RESTART
000065:
000066: 01,3536           34761                           CA       PRIO14                                #  IT IS AN X.1 RESTART, THEREFORE START
000067: 01,3537           05042                           TC       FINDVAC                               #  THE DISPLAY RESTART JOB
000068: 01,3540  E3,1400                                  EBANK=   LST1
000069: 01,3540           03165 20103                     2CADR    INITDSP
000070:
000071: 01,3542           03557                           TC       RTRNCADR                              #  FINISHED WITH THIS GROUP, GET NEXT ONE
000072:
000073: 01,3543           74744        ITSAVAR            MASK     OCT1400                               #  IS IT TYPE B ?
000074: 01,3544           10000                           CCS      A
000075: 01,3545           13614                           TCF      ITSLIKEB                              #  YES, IT IS TYPE B
000076:
000077: 01,3546           00006                           EXTEND                                         #  STORES THE JOB (OR TASK) 2CADR FOR EXIT
000078: 01,3547           50155                           NDX      TEMP2G
000079: 01,3550           31437                           DCA      PHSNAME1
000080: 01,3551           52706                           DXCH     GOLOC
000081:
000082: 01,3552           30154                           CA       TEMPPHS                               #  SEE IF THIS IS A JOB, TASK, OR A LONGCALL
000083: 01,3553           74716                           MASK     OCT7
000084: 01,3554           67715                           AD       MINUS2
000085: 01,3555           10000                           CCS      A
000086: 01,3556           13726                           TCF      ITSLNGCL                              #  IT'S A LONGCALL
000087:


000089: 01,3557           04570        RTRNCADR           TC       SWRETURN                              #  CAN'T GET HERE.
000090: 01,3560           13562                           TCF      ITSAWAIT
000091:
000092: 01,3561           13627                           TCF      ITSAJOB                               #  IT'S A JOB
000093:
000094: 01,3562           33766        ITSAWAIT           CA       WTLTCADR                              #  SET UP WAITLIST CALL
000095: 01,3563           54704                           TS       GOLOC      -1
000096:
000097: 01,3564           50155                           NDX      TEMP2G                                #  DIRECTLY STORED
000098: 01,3565           31054                           CA       PHSPRDT1
000099: 01,3566           10000        TIMETEST           CCS      A                                     #  IS IT AN IMMEDIATE RESTART
000100: 01,3567           24000                           INCR     A                                     #  NO.
000101: 01,3570           13573                           TCF      FINDTIME                              #  FIND OUT WHEN IT SHOULD BEGIN
000102:
000103: 01,3571           15367                           TCF      ITSINDIR                              #  STORED INDIRECTLY
000104:
000105: 01,3572           13612                           TCF      IMEDIATE                              #  IT WANTS AN IMMEDIATE RESTART
000106:
000107:                                                                                                  #  ***** THIS MUST BE IN FIXED FIXED *****
000108:
000109:    5367                                           BLOCK    02
000110:    4000                                           SETLOC   FFTAG2
000111:    4000                                           BANK
000112:
000113:    5367                                           COUNT    02/RSROU
000114:
000115:    5367           22706        ITSINDIR           LXCH     GOLOC      +1                         #  GET THE CORRECT E BANK IN CASE THIS IS
000116:    5370           22006                           LXCH     BB                                    #  SWITCHED ERASABLE
000117:
000118:    5371           50000                           NDX      A                                     #  GET THE TIME INDIRECTLY
000119:    5372           30001                           CA       1
000120:
000121:    5373           22006                           LXCH     BB                                    #  RESTORE THE BB AND GOLOC
000122:    5374           22706                           LXCH     GOLOC      +1
000123:
000124:    5375           13573                           TCF      FINDTIME                              #  FIND OUT WHEN IT SHOULD BEGIN
000125:
000126:                                                                                                  #  ***** YOU MAY RETURN TO SWITCHED FIXED *****
000127:
000128: 01,3573                                           BANK     01
000129: 01,2000                                           SETLOC   RESTART
000130: 01,2000                                           BANK
000131:
000132: 01,3573                                           COUNT    01/RSROU
000133:
000134: 01,3573           40000        FINDTIME           COM                                            #  MAKE NEGATIVE SINCE IT WILL BE SUBTRACTED
000135: 01,3574           54001                           TS       L                                     #  AND SAVE
000136: 01,3575           50155                           NDX      TEMP2G
000137: 01,3576           41053                           CS       TBASE1
000138: 01,3577           00006                           EXTEND


000140: 01,3600           60025                           SU       TIME1
000141: 01,3601           10000                           CCS      A
000142: 01,3602           40000                           COM
000143: 01,3603           67700                           AD       OCT37776
000144: 01,3604           64712                           AD       ONE
000145: 01,3605           60001                           AD       L
000146: 01,3606           10000                           CCS      A
000147: 01,3607           34714                           CA       ZERO
000148: 01,3610           13612                           TCF      +2
000149: 01,3611           13612                           TCF      +1
000150: 01,3612           64712        IMEDIATE           AD       ONE
000151: 01,3613           00704                           TC       GOLOC      -1
000152: 01,3614           33557        ITSLIKEB           CA       RTRNCADR                              #  TYPE B, SO STORE RETURN IN
000153: 01,3615           54157                           TS       TEMPSWCH                              #  TEMPSWCH IN CASE OF AN EVEN PHASE
000154:
000155: 01,3616           33763                           CA       PRT2CADR                              #  SET UP EXIT TO GET TABLE PART OF THIS
000156: 01,3617           54707                           TS       GOLOC      +2                         #  VARIABLE TYPE OF PHASE
000157:
000158: 01,3620           30154                           CA       TEMPPHS                               #  MAKE THE PHASE LOOK RIGHT FOR THE TABLE
000159: 01,3621           76043                           MASK     OCT177                                #  PART OF THIS VARIABLE PHASE
000160: 01,3622           54154                           TS       TEMPPHS
000161:
000162: 01,3623           00006                           EXTEND
000163: 01,3624           50155                           NDX      TEMP2G                                #  OBTAIN THE JOB'S 2CADR
000164: 01,3625           31437                           DCA      PHSNAME1
000165: 01,3626           52706                           DXCH     GOLOC
000166:
000167: 01,3627           50155        ITSAJOB            NDX      TEMP2G                                #  NOW ADD THE PRIORITY AND LET'S GO
000168: 01,3630           31054                           CA       PHSPRDT1
000169: 01,3631           54704        CHKNOVAC           TS       GOLOC      -1                         #  SAVE PRIO UNTIL WE SEE IF IT'S
000170: 01,3632           00006                           EXTEND                                         #  A FINDVAC OR A NOVAC
000171: 01,3633           63637                           BZMF     ITSNOVAC
000172:
000173: 01,3634           33765                           CAF      FVACCADR                              #  POSITIVE, SET UP FINDVAC CALL.
000174: 01,3635           56704                           XCH      GOLOC      -1                         #  PICK UP PRIO
000175: 01,3636           00704                           TC       GOLOC      -1                         #  AND GO
000176:
000177: 01,3637           33767        ITSNOVAC           CAF      NOVACADR                              #  NEGATIVE,
000178: 01,3640           56704                           XCH      GOLOC      -1                         #  SET UP NOVAC CALL,
000179: 01,3641           40000                           COM                                            #  CORRECT PRIO,
000180: 01,3642           00704                           TC       GOLOC      -1                         #  AND GO
000181:
000182: 01,3643           54020        ITSATBL            TS       CYR                                   #  FIND OUT IF THE PHASE IS ODD OR EVEN
000183: 01,3644           10020                           CCS      CYR
000184: 01,3645           13646                           TCF      +1                                    #  IT'S EVEN
000185: 01,3646           13744                           TCF      ITSEVEN
000186:
000187: 01,3647           33557                           CA       RTRNCADR                              #  IN CASE THIS IS THE SECOND PART OF A
000188: 01,3650           54707                           TS       GOLOC      +2                         #  TYPE B RESTART, WE NEED PROPER EXIT


000190: 01,3651           30154                           CA       TEMPPHS                               #  SET UP POINTER FOR FINDING OUR PLACE IN
000191: 01,3652           54021                           TS       SR                                    #  THE RESTART TABLES
000192: 01,3653           60021                           AD       SR
000193: 01,3654           50155                           NDX      TEMP2G
000194: 01,3655           62001                           AD       SIZETAB    +1
000195: 01,3656           54156                           TS       POINTER
000196:
000197: 01,3657           00006        CONTBL2            EXTEND                                         #  FIND OUT WHAT'S IN THE TABLE
000198: 01,3660           50156                           NDX      POINTER
000199: 01,3661           32002                           DCA      CADRTAB                               #  GET THE 2CADR
000200:
000201: 01,3662           22706                           LXCH     GOLOC      +1                         #  STORE THE BB INFORMATION
000202:
000203: 01,3663           10000                           CCS      A                                     #  IS IT A JOB OR IT IT TIMED
000204: 01,3664           24000                           INCR     A                                     #  POSITIVE, MUST BE A JOB
000205: 01,3665           13740                           TCF      ITSAJOB2
000206:
000207: 01,3666           24000                           INCR     A                                     #  MUST BE EITHER A WAITLIST OR LONGCALL
000208: 01,3667           54705                           TS       GOLOC                                 #  LET'S STORE THE CORRECT CADR
000209:
000210: 01,3670           33766                           CA       WTLTCADR                              #  SET UP OUR EXIT TO WAITLIST
000211: 01,3671           54704                           TS       GOLOC      -1
000212:
000213: 01,3672           30706                           CA       GOLOC      +1                         #  NOW FIND OUT IF IT IS A WAITLIST CALL
000214: 01,3673           74701                           MASK     BIT10                                 #  THIS SHOULD BE ONE IF WE HAVE -BB
000215: 01,3674           10000                           CCS      A                                     #  FOR THAT MATTER SO SHOULD BE BITS 9,8,7,
000216:                                                                                                  #  6,5, AND LAST BUT NOT LEAST (PERHAPS NOT
000217:                                                                                                  #  IN IMPORTANCE ANYWAY.  BUT 4
000218: 01,3675           13733                           TCF      ITSWTLST                              #  IT IS A WAITLIST CALL
000219:
000220: 01,3676           50156                           NDX      POINTER                               #  OBTAIN THE ORIGINAL DELTA T
000221: 01,3677           32000                           CA       PRDTTAB                               #  ADDRESS FOR THIS LONGCALL
000222:
000223: 01,3700           15376                           TCF      ITSLGCL1                              #  NOW GO GET THE DELTA TIME
000224:
000225:                                                                                                  #  ***** THIS MUST BE IN FIXED FIXED *****
000226:
000227:    5376                                           BLOCK    02
000228:    4000                                           SETLOC   FFTAG2
000229:    4000                                           BANK
000230:
000231:    5376                                           COUNT    02/RSROU
000232:
000233:    5376           22706        ITSLGCL1           LXCH     GOLOC      +1                         #  OBTAIN THE CORRECT E BANK
000234:    5377           22006                           LXCH     BB
000235:    5400           22706                           LXCH     GOLOC      +1                         #  AND PRESERVE OUR E AND F BANKS
000236:
000237:    5401           00006                           EXTEND                                         #  GET THE DELTA TIME
000238:    5402           50000                           NDX      A
000239:    5403           30001                           DCA      0


000241:    5404           22706                           LXCH     GOLOC      +1                         #  RESTORE OUR E AND F BANK
000242:    5405           22006                           LXCH     BB                                    #  RESTORE THE TASKS E AND F BANKS
000243:    5406           22706                           LXCH     GOLOC      +1                         #  AND PRESERVE OUR L
000244:    5407           13701                           TCF      ITSLGCL2                              #  NOT GET'S PROCESS THIS LONGCALL
000245:
000246:                                                                                                  #  ***** YOU MAY RETURN TO SWITCHED FIXED *****
000247:
000248: 01,3701                                           BANK     01
000249: 01,2000                                           SETLOC   RESTART
000250: 01,2000                                           BANK
000251:
000252: 01,3701                                           COUNT    01/RSROU
000253: 01,3701           53140        ITSLGCL2           DXCH     LONGTIME
000254:
000255: 01,3702           00006                           EXTEND                                         #  CALCULATE TIME LEFT
000256: 01,3703           40025                           DCS      TIME2
000257: 01,3704           21140                           DAS      LONGTIME
000258: 01,3705           00006                           EXTEND
000259: 01,3706           31136                           DCA      LONGBASE
000260: 01,3707           21140                           DAS      LONGTIME
000261:
000262: 01,3710           11137                           CCS      LONGTIME                              #  FIND OUT HOW THIS SHOULD BE RESTARTED
000263: 01,3711           13721                           TCF      LONGCLCL
000264: 01,3712           13714                           TCF      +2
000265: 01,3713           13607                           TCF      IMEDIATE   -3
000266: 01,3714           11140                           CCS      LONGTIME   +1
000267: 01,3715           13721                           TCF      LONGCLCL
000268: 01,3716           13717                           NOOP                                           #  CAN'T GET HERE ************
000269: 01,3717           13607                           TCF      IMEDIATE   -3
000270: 01,3720           13612                           TCF      IMEDIATE
000271:
000272: 01,3721           33764        LONGCLCL           CA       LGCLCADR                              #  WE WILL GO TO LONGCALL
000273: 01,3722           54704                           TS       GOLOC      -1
000274:
000275: 01,3723           00006                           EXTEND                                         #  PREPARE OUR ENTRY TO LONGCALL
000276: 01,3724           31140                           DCA      LONGTIME
000277: 01,3725           00704                           TC       GOLOC      -1
000278:
000279: 01,3726           33766        ITSLNGCL           CA       WTLTCADR                              #  ASSUME IT WILL GO TO WAITLIST
000280: 01,3727           54704                           TS       GOLOC      -1
000281:
000282: 01,3730           50155                           NDX      TEMP2G
000283: 01,3731           41054                           CS       PHSPRDT1                              #  GET THE DELTA T ADDRESS
000284:
000285: 01,3732           15376                           TCF      ITSLGCL1                              #  NOW GET THE DELTA TIME
000286:
000287: 01,3733           40706        ITSWTLST           CS       GOLOC      +1                         #  CORRECT THE BBCON INFORMATION
000288: 01,3734           54706                           TS       GOLOC      +1


000290: 01,3735           50156                           NDX      POINTER                               #  GET THE DT AND FIND OUT IF IT WAS STORED
000291: 01,3736           32000                           CA       PRDTTAB                               #  DIRECTOY OR INDIRECTLY
000292:
000293: 01,3737           13566                           TCF      TIMETEST                              #  FIND OUT HOW THE TIME IS STORED
000294:
000295: 01,3740           56705        ITSAJOB2           XCH      GOLOC                                 #  STORE THE CADR
000296:
000297: 01,3741           50156                           NDX      POINTER                               #  ADD THE PRIORITY AND LET'S GO
000298: 01,3742           32000                           CA       PRDTTAB
000299:
000300: 01,3743           13631                           TCF      CHKNOVAC
000301:
000302: 01,3744           30157        ITSEVEN            CA       TEMPSWCH                              #  SET FOR EITHER THE SECOND PART OF THE
000303: 01,3745           54707                           TS       GOLOC      +2                         #  TABLE, OR A RETURN FOR THE NEXT GROUP
000304:
000305: 01,3746           50155                           NDX      TEMP2G                                #  SET UP POINTER FOR OUR LOCATION WITHIN
000306: 01,3747           32000                           CA       SIZETAB                               #  THE TABLE
000307: 01,3750           60154                           AD       TEMPPHS                               #  THIS MAY LOOK BAD BUT LET'S SEE YOU DO
000308: 01,3751           60154                           AD       TEMPPHS                               #  BETTER IN TIME OR NUMBER OF LOCATIONS
000309: 01,3752           60154                           AD       TEMPPHS
000310: 01,3753           54156                           TS       POINTER
000311:
000312: 01,3754           13657                           TCF      CONTBL2                               #  NO PROCESS WHAT IS IN THE TABLE
000313:
000314: 01,3755           36214        PHSPART2           CA       THREE                                 #  SET THE POINTER FOR THE SECOND HALF OF
000315: 01,3756           26156                           ADS      POINTER                               #  THE TABLE
000316:
000317: 01,3757           33557                           CA       RTRNCADR                              #  THIS WILL BE OUR LAST TIME THROUGH THE
000318: 01,3760           54707                           TS       GOLOC      +2                         #  EVEN TABLE, SO AFTER IT GET THE NEXT
000319:                                                                                                  #  GROUP
000320: 01,3761           13657                           TCF      CONTBL2                               #  SO LET'S GET THE SECOND ENTRY IN THE TBL
000321:
000322: 01,3762     0154               TEMPPHS            EQUALS   MPAC
000323: 01,3762     0155               TEMP2G             EQUALS   MPAC       +1
000324: 01,3762     0156               POINTER            EQUALS   MPAC       +2
000325: 01,3762     0157               TEMPSWCH           EQUALS   MPAC       +3
000326: 01,3762     0705               GOLOC              EQUALS   VAC5       +20D
000327: 01,3762     7715               MINUS2             EQUALS   NEG2
000328: 01,3762     6043               OCT177             EQUALS   LOW7
000329:
000330: 01,3762           03755        PHS2CADR           GENADR   PHSPART2
000331: 01,3763           03533        PRT2CADR           GENADR   GETPART2
000332: 01,3764           05231        LGCLCADR           GENADR   LONGCALL
000333: 01,3765           05042        FVACCADR           GENADR   FINDVAC
000334: 01,3766           05140        WTLTCADR           GENADR   WAITLIST
000335: 01,3767           05027        NOVACADR           GENADR   NOVAC
000336:
000337:
000338:
000339:

End of include-file RESTARTS_ROUTINE.agc.  Parent file is MAIN.agc


