
Source Code


000002:                                                                                                  ## Copyright:   Public domain.
000003:                                                                                                  ## Filename:    RESTART_TABLES.agc
000004:                                                                                                  ## Purpose:     Part of the source code for Colossus, build 249.
000005:                                                                                                  ##              It is part of the source code for the Command Module's (CM)
000006:                                                                                                  ##              Apollo Guidance Computer (AGC), for Apollo 9.
000007:                                                                                                  ## Assembler:   yaYUL
000008:                                                                                                  ## Reference:   pp. 205-215.
000009:                                                                                                  ## Contact:     Ron Burkey <info@sandroid.org>.
000010:                                                                                                  ## Website:     www.ibiblio.org/apollo.
000011:                                                                                                  ## Mod history: 08/07/04 RSB.   Adapted from similar Luminary 131 file.
000012:                                                                                                  ##                              Oddly, the 2 pages of introductory comments
000013:                                                                                                  ##                              aren't present in Luminary.
000014:                                                                                                  ##              2010-10-25 JL   Fixed page number.
000015:                                                                                                  ##              2017-01-05 RSB  Page numbers now agree with those on the
000016:                                                                                                  ##                              original harcopy, as opposed to the PDF page
000017:                                                                                                  ##                              numbers in 1701.pdf.
000018:                                                                                                  ##              2017-01-18 RSB  Cross-diff'd comment text (not whitespace)
000019:                                                                                                  ##                              vs the already-proofed corresponding Colossus
000020:                                                                                                  ##                              237 and Comanche 55 source-code files
000021:                                                                                                  ##                              and corrected errors found.
000022:                                                                                                  ##              2017-02-08 RSB  Comment-text fixes identified while proofing Artemis 72.
000023:                                                                                                  ##
000024:                                                                                                  ## The contents of the "Colossus249" files, in general, are transcribed
000025:                                                                                                  ## from a scanned copy of the program listing.  Notations on this
000026:                                                                                                  ## document read, in part:
000027:                                                                                                  ##
000028:                                                                                                  ##      Assemble revision 249 of AGC program Colossus by NASA
000029:                                                                                                  ##      2021111-041.  October 28, 1968.
000030:                                                                                                  ##
000031:                                                                                                  ##      This AGC program shall also be referred to as
000032:                                                                                                  ##                              Colossus 1A
000033:                                                                                                  ##
000034:                                                                                                  ##      Prepared by
000035:                                                                                                  ##                      Massachusetts Institute of Technology
000036:                                                                                                  ##                      75 Cambridge Parkway
000037:                                                                                                  ##                      Cambridge, Massachusetts
000038:                                                                                                  ##      under NASA contract NAS 9-4065.
000039:                                                                                                  ##
000040:                                                                                                  ## Refer directly to the online document mentioned above for further information.
000041:                                                                                                  ## Please report any errors (relative to the scanned pages) to info@sandroid.org.
000042:                                                                                                  ##
000043:                                                                                                  ## In some cases, where the source code for Luminary 131 overlaps that of
000044:                                                                                                  ## Colossus 249, this code is instead copied from the corresponding Luminary 131
000045:                                                                                                  ## source file, and then is proofed to incorporate any changes.
000046:


000048:                                                                                                  #  RESTART TABLES
000049:                                                                                                  #  ------------------
000050:
000051:                                                                                                  #  THERE ARE TWO FORMS OF RESTART TABLES FOR EACH GROUP.  THEY ARE KNOWN AS THE EVEN RESTART TABLES AND THE ODD
000052:                                                                                                  #  RESTART TABLES.  THE ODD TABLES HAVE ONLY ONE ENTRY OF THREE LOCATIONS WHILE THE EVEN TABLES HAVE TWO ENTRIES
000053:                                                                                                  #  EACH USING THREE LOCATIONS.  THE INFORMATION AS TO WHETHER IT IS A JOB, WAITLIST, OR A LONGCALL IS GIVEN BY THE
000054:                                                                                                  #  WAY THINGS ARE PUT IN TO THE TABLES.
000055:
000056:                                                                                                  #  A JOB HAS ITS PRIORITY STORED IN PRDTTAB OF THE CORRECT PHASE SPOT - A POSITIVE PRIORITY INDICATES A
000057:                                                                                                  #  FINDVAC JOB, A NEGATIVE PRIORITY A NOVAC.  THE 2CADR OF THE JOB IS STORED IN THE CADRTAB.
000058:                                                                                                  #  FOR EXAMPLE,
000059:
000060:                                                                                                  #                5.7SPOT         OCT     23000
000061:                                                                                                  #                                2CADR   SOMEJOB
000062:
000063:                                                                                                  #  A RESTART OF GROUP 5 WITH PHASE SEVEN WOULD THEN CAUSE SOMEJOB TO BE RESTARTED AS A FINDVAC WITH PRIORITY 23.
000064:
000065:                                                                                                  #                5.5SPOT         OCT     -23000
000066:                                                                                                  #                                2CADR   ANYJOB
000067:
000068:                                                                                                  #  HERE A RESTART OF GROUP 5 WITH PHASE 7 WOULD CAUSE ANYJOB TO BE RESTARTED AS A NOVAC WITH PRIORITY 23.
000069:                                                                                                  #  A LONGCALL HAS ITS GENADR OF ITS 2CADR STORED NEGATIVELY AND ITS BBCON STORED POSITIVELY.  IN ITS PRDTTAB IS
000070:                                                                                                  #  PLACED THE LOCATION OF A DP REGISTER THAT CONTAINS THE DELTA TIME THAT LONGCALL HAD BEEN ORIGINALLY STARTED
000071:                                                                                                  #  WITH.  EXAMPLE,
000072:
000073:                                                                                                  #                3.6SPOT         GENADR  DELTAT
000074:                                                                                                  #                                -GENADR LONGTASK
000075:                                                                                                  #                                BBCON   LONGTASK
000076:
000077:                                                                                                  #                                OCT     31000
000078:                                                                                                  #                                2CADR   JOBAGAIN
000079:
000080:                                                                                                  #  THIS WOULD START UP LONGTASK AT THE APPROPRIATE TIME, OR IMMEDIATELY IF THE TIME HAD ALREADY PASSED.  IT SHOULD
000081:                                                                                                  #  BE NOTED THAT IF DELTAT IS IN A SWITCHED E BANK, THIS INFORMATOIN SHOULD BE IN THE BBCON OF THE 2CADR OF THE
000082:                                                                                                  #  TASK.  FROM ABOVE, WE SEE THAT THE SECOND PART O FTHIS PHASE WOULD BE STARTED AS A JOB WITH A PRIORITY OF 31.
000083:
000084:                                                                                                  #  WAITLIST CALLS ARE IDENTIFIED BY THE FACT THAT THEIR 2CADR IS STORED NEGATIVELY.  IF PRDTTAB OF THE PHASE SPOT
000085:                                                                                                  #  IS POSITIVE, THEN IT CONTAINS THE DELTA TIME, IF PRDTTAB IS NEGATIVE THEN IT IS THE -GENADR OF AN ERASABLE
000086:                                                                                                  #  LOCATION CONTAINING THE DELTA TIME, THAT IS, THE TIME IS STORED INDIRECTLY. IT SHOULD BE NOTED AS ABOVE, THAT
000087:                                                                                                  #  IF THE TIME IS STORED INDIRECTLY, THE BBCON MUST CONTAIN THE NECESSARY E BANK INFORMATION IF APPLICABLE.  WITH
000088:                                                                                                  #  WAITLIST WE HAVE ONE FURTHER OPTION, IF -0 IS STORED IN PRDTTAB, IT WILL CAUSE AN IMMEDIATE RESTART OF THE
000089:                                                                                                  #  TASK.  EXAMPLES,
000090:
000091:                                                                                                  #                                OCT     77777           THIS WILL CAUSE AN IMMEDIATE RESTART
000092:                                                                                                  #                                -2CADR  ATASK           OF THE TASK :ATASK:
000093:
000094:                                                                                                  #                                DEC     200             IF THE TIME OF THE 2 SECONDS SINCE DUMMY
000095:                                                                                                  #                                -2CADR  DUMMY           WAS PUT ON WAITLIST IS UP, IT WILL BEGIN
000096:                                                                                                  #                                                        IN 10 MS, OTHERWISE IT WILL BEGIN WHEN
000097:                                                                                                  #                                                        IT NORMALLY WOULD HAVE BEGUN.


000099:                                                                                                  #                                -GENADR DTIME           WHERE DTIME CONTAINS THE DELTA TIME
000100:                                                                                                  #                                -2CADR  TASKTASK        OTHERWISE THIS IS AS ABOVE
000101:
000102:                                                                                                  #  ***** NOW THE TABLES THEMSELVES *****
000103:
000104: 01,2000                                           BANK     01
000105: 01,2000                                           SETLOC   RESTART
000106: 01,2000                                           BANK
000107:
000108: 01,2000                                           COUNT    01/RSTAB
000109:
000110: 01,2000                        PRDTTAB            EQUALS   12000                                 #  USED TO FIND THE PRIORITY OR DELTATIME
000111: 01,2000                        CADRTAB            EQUALS   12001                                 #  THIS AND THE NEXT RELATIVE LOC CONTAIN
000112:                                                                                                  #  RESTART 2CADR
000113:
000114: 01,2000           00063        SIZETAB            TC       1.2SPOT    -12006
000115: 01,2001           00010                           TC       1.3SPOT    -12004
000116: 01,2002           00063                           TC       2.2SPOT    -12006
000117: 01,2003           00024                           TC       2.3SPOT    -12004
000118: 01,2004           00063                           TC       3.2SPOT    -12006
000119: 01,2005           00043                           TC       3.3SPOT    -12004
000120: 01,2006           00063                           TC       4.2SPOT    -12006
000121: 01,2007           00107                           TC       4.3SPOT    -12004
000122: 01,2010           00242                           TC       5.2SPOT    -12006
000123: 01,2011           00260                           TC       5.3SPOT    -12004
000124: 01,2012           00336                           TC       6.2SPOT    -12006
000125: 01,2013           00346                           TC       6.3SPOT    -12004
000126: 01,2014  01,2071               1.2SPOT            EQUALS   3.2SPOT
000127:
000128:                                                                                                  #  ANY MORE GROUP 1.EVEN RESTART VALUES SHOULD GO HERE
000129:
000130: 01,2014           00170        1.3SPOT            DEC      120        B-14                       #  THIS NUMBER MUST EQUAL C(JTAGTIME)
000131: 01,2015  E6,1661                                  EBANK=   AOG
000132: 01,2015           74550 45711                     -2CADR   SETJTAG
000133:
000134: 01,2017           10000        1.5SPOT            OCT      10000
000135: 01,2020  E6,1466                                  EBANK=   DAPDATR1
000136: 01,2020           02362 34066                     2CADR    REDO40.9
000137:
000138: 01,2022           10000        1.7SPOT            OCT      10000
000139: 01,2023  E6,1412                                  EBANK=   ESTROKER
000140: 01,2023           02074 56066                     2CADR    RELINUS
000141:
000142: 01,2025           10000        1.11SPOT           OCT      10000
000143: 01,2026  E6,1412                                  EBANK=   ESTROKER
000144: 01,2026           02273 76066                     2CADR    PIKUP20
000145:
000146:                                                                                                  #  ANY MORE GROUP 1.ODD RESTART VALUES SHOULD GO HERE
000147:
000148: 01,2030  01,2071               2.2SPOT            EQUALS   1.2SPOT
000149:
000150:                                                                                                  #  ANY MORE GROUP 2.EVEN RESTART VALUES SHOULD GO HERE


000152:
000153: 01,2030           02605        2.3SPOT            GENADR   600SECS
000154: 01,2031           75216                           -GENADR  STATEINT
000155: 01,2032  E3,1554                                  EBANK=   RRECTCSM
000156: 01,2032           26063                           BBCON    STATEINT
000157:
000158: 01,2033           05000        2.5SPOT            OCT      05000
000159: 01,2034  E3,1554                                  EBANK=   RRECTCSM
000160: 01,2034           02570 26063                     2CADR    STATINT1
000161:
000162: 01,2036           10000        2.7SPOT            OCT      10000
000163: 01,2037  E7,1734                                  EBANK=   MRKBUF2
000164: 01,2037           02512 70067                     2CADR    R22
000165:
000166: 01,2041           14000        2.11SPOT           OCT      14000
000167: 01,2042  E5,1751                                  EBANK=   LANDMARK
000168: 01,2042           02173 62065                     2CADR    V94ENTER
000169:
000170: 01,2044           10000        2.13SPOT           OCT      10000
000171: 01,2045  E7,1734                                  EBANK=   MRKBUF2
000172: 01,2045           02377 56067                     2CADR    REDOR22
000173:
000174:                                                                                                  #  ANY MORE GROUP 2.ODD RESTART VALUES SHOULD GO HERE
000175:
000176: 01,2047  01,2071               3.2SPOT            EQUALS   4.2SPOT
000177:
000178:                                                                                                  #  ANY MORE GROUP 3.EVEN RESTART VALUES SHOULD GO HERE
000179:
000180: 01,2047           20000        3.3SPOT            OCT      20000
000181: 01,2050  E7,1427                                  EBANK=   TGO
000182: 01,2050           02404 34067                     2CADR    S40.13
000183:
000184: 01,2052           00000        3.5SPOT            DEC      0          B-14
000185: 01,2053           00000                           DEC      0          B-14
000186: 01,2054           00000                           DEC      0          B-14
000187:
000188: 01,2055           22000        3.7SPOT            OCT      22000
000189: 01,2056  E3,1706                                  EBANK=   TEPHEM
000190: 01,2056           02127 70063                     2CADR    MATRXJOB
000191:
000192: 01,2060           22000        3.11SPOT           OCT      22000
000193: 01,2061  E3,1706                                  EBANK=   TEPHEM
000194: 01,2061           02247 70063                     2CADR    REP11
000195:
000196: 01,2063           22000        3.13SPOT           OCT      22000
000197: 01,2064  E3,1706                                  EBANK=   TEPHEM
000198: 01,2064           02026 70063                     2CADR    REP11A
000199:
000200: 01,2066           76347        3.15SPOT           -GENADR  TGO        +1
000201: 01,2067  E7,1427                                  EBANK=   TGO
000202: 01,2067           75071 27710                     -2CADR   ENGINOFF
000203:


000205:                                                                                                  #  ANY MORE GROUP 3.ODD RESTART VALUES SHOULD GO HERE
000206:
000207: 01,2071           77777        4.2SPOT            OCT      77777
000208: 01,2072  E7,1412                                  EBANK=   TIG
000209: 01,2072           75262 27710                     -2CADR   PRECHECK
000210:
000211: 01,2074           30000                           OCT      30000
000212: 01,2075  E7,1674                                  EBANK=   DELVIMU
000213: 01,2075           02461 50067                     2CADR    P47BODY
000214:
000215: 01,2077           77777        4.4SPOT            OCT      77777
000216: 01,2100  E7,1412                                  EBANK=   TIG
000217: 01,2100           75262 27710                     -2CADR   PRECHECK
000218:
000219: 01,2102           05664                           DEC      2996       B-14
000220: 01,2103  E6,1466                                  EBANK=   DAPDATR1
000221: 01,2103           75517 27711                     -2CADR   TTG/0
000222:
000223: 01,2105           77777        4.6SPOT            OCT      77777
000224: 01,2106  E7,1412                                  EBANK=   TIG
000225: 01,2106           75262 27710                     -2CADR   PRECHECK
000226:
000227: 01,2110           04700                           DEC      2496       B-14
000228: 01,2111  E7,1412                                  EBANK=   TIG
000229: 01,2111           75256 27710                     -2CADR   TIG-5
000230:
000231:                                                                                                  #  ANY MORE GROUP 4.EVEN RESTART VALUES SHOULD GO HERE
000232:
000233: 01,2113           00050        4.3SPOT            DEC      40         B-14
000234: 01,2114  E6,1425                                  EBANK=   PACTOFF
000235: 01,2114           75170 27711                     -2CADR   DOTVCON
000236:
000237: 01,2116           00240        4.5SPOT            DEC      160        B-14
000238: 01,2117  E6,1425                                  EBANK=   PACTOFF
000239: 01,2117           75142 27711                     -2CADR   DOSTRULL
000240:
000241: 01,2121           00764        4.7SPOT            DEC      500        B-14
000242: 01,2122  E6,1425                                  EBANK=   PACTOFF
000243: 01,2122           75240 27711                     -2CADR   TIG-0
000244:
000245: 01,2124           00372        4.11SPOT           DEC      250        B-14
000246: 01,2125  E6,1466                                  EBANK=   DAPDATR1
000247: 01,2125           74317 27711                     -2CADR   V97E40.6
000248:
000249: 01,2127           00310        4.13SPOT           DEC      200        B-14
000250: 01,2130  E7,1777                                  EBANK=   WHOCARES
000251: 01,2130           74352 27710                     -2CADR   R40ENABL
000252:
000253: 01,2132           16000        4.15SPOT           OCT      16000                                 #  PRELAUNCH OPTICAL VERIFICATION
000254: 01,2133  E5,1757                                  EBANK=   OGC


000256: 01,2133           02000 66065                     2CADR    COMPVER                               #  CALLS FOR OPTICS DATA AGAIN (STD LEADIN)
000257:
000258: 01,2135           16000        4.17SPOT           OCT      16000                                 #  PRELAUNCH AZIMUTH CHANGE
000259: 01,2136  E5,1671                                  EBANK=   XSM
000260: 01,2136           03736 66065                     2CADR    AZMTHCG1
000261:
000262: 01,2140           01672        4.21SPOT           GENADR   P40TMP                                #  DELTA TIME USED IN SETTING UP
000263: 01,2141           75413                           -GENADR  TIGBLNK                               #  LONG CALL OF TIGBLNK BY P40,P41
000264: 01,2142  E7,1672                                  EBANK=   P40TMP
000265: 01,2142           50067                           BBCON    TIGBLNK
000266:
000267: 01,2143           12000        4.23SPOT           OCT      12000                                 #  PROTECT P40S/SV BY P40 P41
000268: 01,2144  E7,1412                                  EBANK=   TIG
000269: 01,2144           02113 50067                     2CADR    P40S/SV
000270:
000271: 01,2146           24000        4.25SPOT           OCT      24000
000272: 01,2147     0302                                  EBANK=   BESTI
000273: 01,2147           02000 32060                     2CADR    PROG52
000274:
000275: 01,2151           00372        4.27SPOT           DEC      250        B-14
000276: 01,2152  E6,1425                                  EBANK=   PACTOFF
000277: 01,2152           75055 27711                     -2CADR   DOTVCRCS
000278:
000279: 01,2154           13000        4.31SPOT           OCT      13000
000280: 01,2155  E5,1765                                  EBANK=   STAR
000281: 01,2155           02524 30065                     2CADR    R51        +1
000282:
000283: 01,2157           04064        4.33SPOT           DEC      2100       B-14                       #  PROTECT CONTINUING JOB TO START P63
000284: 01,2160  E6,1661                                  EBANK=   AOG
000285: 01,2160           75403 23711                     -2CADR   WAKEP62
000286:
000287: 01,2162           12000        4.35SPOT           OCT      12000
000288: 01,2163  E6,1466                                  EBANK=   DAPDATR1
000289: 01,2163           02155 50066                     2CADR    POSTBURN
000290:
000291: 01,2165           00764        4.37SPOT           DEC      500        B-14
000292: 01,2166  E7,1412                                  EBANK=   TIG
000293: 01,2166           75275 27710                     -2CADR   TIGAVEG
000294:
000295: 01,2170           17000        4.41SPOT           OCT      17000                                 #  PROTECT DISPLAY JOB IN P67
000296: 01,2171  E6,1661                                  EBANK=   AOG
000297: 01,2171           02511 54066                     2CADR    P67.1
000298:
000299: 01,2173           76003        4.43SPOT           -GENADR  S61DT                                 #  PROTECT TASK TO START PREREAD,ENTRY
000300: 01,2174  E6,1774                                  EBANK=   S61DT                                 #  S61.1C WILL CHANGE EBANK=EB7 FOR PREREAD
000301: 01,2174           75213 23711                     -2CADR   S61.1C
000302:
000303: 01,2176           13000        4.45SPOT           OCT      13000                                 #  PROTECT CONTINUING JOB S61.1
000304: 01,2177  E6,1661                                  EBANK=   AOG                                   #  (ENTRY IMU ALIGNMENT)


000306: 01,2177           02602 54066                     2CADR    S61.1A     -1
000307:
000308: 01,2201           17000        4.47SPOT           OCT      17000                                 #  PROTECT HUNTEST ITERATION.
000309: 01,2202  E6,1661                                  EBANK=   AOG
000310: 01,2202           03006 52066                     2CADR    PRE-HUNT
000311:
000312: 01,2204           77777        4.51SPOT           OCT      77777                                 #  PROTECT FDAI ATTITUDE
000313: 01,2205  E6,1704                                  EBANK=   BODY3                                 #  ERROR DISPLAY IN P11
000314: 01,2205           75463 07711                     -2CADR   ATERTASK
000315:
000316: 01,2207           77777        4.53SPOT           DEC      -0         B-14
000317: 01,2210  E7,1777                                  EBANK=   END-E7                                #  EBANK7 FOR TIG
000318: 01,2210           74336 27710                     -2CADR   V97ETASK
000319:
000320: 01,2212           13000        4.55SPOT           OCT      13000                                 #  PROTECT P65 RESPONSIVE DISPLAY.
000321: 01,2213  E7,1451                                  EBANK=   RTINIT
000322: 01,2213           02456 54067                     2CADR    P65.1
000323:
000324: 01,2215           76105        4.57SPOT           -GENADR  P40TMP
000325: 01,2216  E7,1672                                  EBANK=   P40TMP
000326: 01,2216           75352 27710                     -2CADR   TIGON
000327:
000328: 01,2220           77777        4.61SPOT           OCT      77777
000329: 01,2221  E6,1425                                  EBANK=   PACTOFF
000330: 01,2221           75225 27711                     -2CADR   IGNITION
000331:
000332: 01,2223           77777        4.63SPOT           OCT      77777
000333: 01,2224  E6,1425                                  EBANK=   PACTOFF
000334: 01,2224           75063 27711                     -2CADR   DOSPSOFF
000335:
000336: 01,2226           00012        4.65SPOT           DEC      10         B-14
000337: 01,2227  E7,1412                                  EBANK=   TIG
000338: 01,2227           75256 27710                     -2CADR   TIG-5
000339:
000340: 01,2231           77777        4.67SPOT           DEC      -0         B-14
000341: 01,2232  E6,1474                                  EBANK=   CSMMASS
000342: 01,2232           74420 27711                     -2CADR   V97TTASK
000343:
000344: 01,2234           00372        4.71SPOT           DEC      250        B-14
000345: 01,2235  E6,1466                                  EBANK=   DAPDATR1                              #  (FOR RCSDAPON)
000346: 01,2235           74403 27711                     -2CADR   V97TRCS
000347:
000348: 01,2237           77777        4.73SPOT           DEC      -0         B-14
000349: 01,2240  E6,1444                                  EBANK=   V97VCNTR
000350: 01,2240           74366 27711                     -2CADR   V97PTASK
000351:
000352: 01,2242           77777        4.75SPOT           DEC      -0         B-14
000353: 01,2243  E6,1466                                  EBANK=   DAPDATR1
000354: 01,2243           74324 27711                     -2CADR   SPSOFF97
000355:


000357: 01,2245           77777        4.77SPOT           DEC      -0         B-14
000358: 01,2246  E6,1425                                  EBANK=   PACTOFF
000359: 01,2246           75240 27711                     -2CADR   TIG-0
000360:
000361:                                                                                                  #  ANY MORE GROUP 4.ODD RESTART VALUES SHOULD GO HERE
000362:
000363: 01,2250           32000        5.2SPOT            OCT      32000
000364: 01,2251  E7,1431                                  EBANK=   DVCNTR
000365: 01,2251           03141 76067                     2CADR    NORMLIZE
000366:
000367: 01,2253           00310                           DEC      200        B-14
000368: 01,2254  E6,1661                                  EBANK=   AOG
000369: 01,2254           74567 01711                     -2CADR   REREADAC
000370:
000371: 01,2256           20000        5.4SPOT            OCT      20000
000372: 01,2257  E7,1431                                  EBANK=   DVCNTR
000373: 01,2257           03007 76067                     2CADR    SERVICER
000374:
000375: 01,2261           00310                           DEC      200        B-14
000376: 01,2262  E6,1661                                  EBANK=   AOG
000377: 01,2262           74567 01711                     -2CADR   REREADAC
000378:
000379:                                                                                                  #  ANY MORE GROUP 5.EVEN RESTART VALUES SHOULD GO HERE
000380:
000381: 01,2264           00310        5.3SPOT            DEC      200        B-14
000382: 01,2265  E6,1661                                  EBANK=   AOG
000383: 01,2265           74567 01711                     -2CADR   REREADAC
000384:
000385: 01,2267           77777        5.5SPOT            OCT      77777
000386: 01,2270  E6,1661                                  EBANK=   AOG
000387: 01,2270           75123 01711                     -2CADR   REDO5.5
000388:
000389: 01,2272           20000        5.7SPOT            OCT      20000                                 #  USED BY PRELAUNCH
000390: 01,2273  E5,1671                                  EBANK=   XSM
000391: 01,2273           02456 66065                     2CADR    RSTGTS1
000392:
000393: 01,2275           77777        5.11SPOT           OCT      77777
000394: 01,2276  E5,1671                                  EBANK=   XSM
000395: 01,2276           75174 11712                     -2CADR   ALLOOP1
000396:
000397: 01,2300           20000        5.13SPOT           OCT      20000
000398: 01,2301  E5,1671                                  EBANK=   XSM
000399: 01,2301           02527 66065                     2CADR    WTLISTNT
000400:
000401: 01,2303           20000        5.15SPOT           OCT      20000
000402: 01,2304  E5,1671                                  EBANK=   XSM
000403: 01,2304           03317 66065                     2CADR    RESTEST1
000404:
000405: 01,2306           20000        5.17SPOT           OCT      20000
000406: 01,2307  E5,1671                                  EBANK=   XSM


000408: 01,2307           05112 04065                     2CADR    GEOSTRT4
000409:
000410: 01,2311           20000        5.21SPOT           OCT      20000
000411: 01,2312  E5,1671                                  EBANK=   XSM
000412: 01,2312           02637 66065                     2CADR    ALFLT1
000413:
000414: 01,2314           77777        5.23SPOT           OCT      77777
000415: 01,2315  E5,1671                                  EBANK=   XSM
000416: 01,2315           75151 11712                     -2CADR   SPECSTS
000417:
000418: 01,2317           20000        5.25SPOT           OCT      20000
000419: 01,2320  E5,1671                                  EBANK=   XSM
000420: 01,2320           03330 66065                     2CADR    RESTEST3
000421:
000422: 01,2322           20000        5.27SPOT           OCT      20000
000423: 01,2323  E5,1671                                  EBANK=   XSM
000424: 01,2323           03276 66065                     2CADR    RESTAIER
000425:
000426: 01,2325           77777        5.31SPOT           OCT      77777
000427: 01,2326  E7,1431                                  EBANK=   DVCNTR
000428: 01,2326           75167 01710                     -2CADR   REDO5.31
000429:
000430: 01,2330           20000        5.33SPOT           OCT      20000
000431: 01,2331  E5,1671                                  EBANK=   XSM
000432: 01,2331           03353 66065                     2CADR    RESCHNG
000433:
000434: 01,2333           00000        5.35SPOT           DEC      0          B-14
000435: 01,2334           00000 00000                     2DEC     0          B-28
000436:
000437: 01,2336           77777        5.37SPOT           OCT      77777
000438: 01,2337  E6,1661                                  EBANK=   AOG
000439: 01,2337           75041 01711                     -2CADR   CHEKAVEG
000440:
000441: 01,2341           77777        5.41SPOT           OCT      77777                                 #  TO PROTECT PREREAD AT TIG-30A
000442: 01,2342  E7,1431                                  EBANK=   DVCNTR                                #        TIG-15 T+60
000443: 01,2342           75173 01710                     -2CADR   PREREAD
000444:
000445:                                                                                                  #  ANY MORE GROUP 5.ODD RESTART VALUES SHOULD GO HERE
000446:
000447: 01,2344           77777        6.2SPOT            OCT      77777                                 #  USED BY P40 AFTER GIMB DR TST TO REPOS'N
000448: 01,2345  E6,1476                                  EBANK=   AK                                    #  ENGINE UNTIL TVCDAPON
000449: 01,2345           75737 37711                     -2CADR   PRE40.6
000450:
000451: 01,2347           00144                           DEC      100        B-14
000452: 01,2350  E7,1660                                  EBANK=   TTOGO
000453: 01,2350           74605 27710                     -2CADR   CLOKTASK
000454:
000455:                                                                                                  #  ANY MORE 6.ODD RESTART VALUES SHOULD GO HERE


000457:
000458: 01,2352           00144        6.3SPOT            DEC      100        B-14
000459: 01,2353  E7,1412                                  EBANK=   TIG
000460: 01,2353           74605 27710                     -2CADR   CLOKTASK
000461:
000462: 01,2355           30000        6.5SPOT            OCT      30000                                 #  PROTECT INCREMENTING OF TIME2,TIME1 BY
000463: 01,2356  E3,1706                                  EBANK=   TEPHEM                                #  P27NUPDATE PROGRAM)
000464: 01,2356           03564 56063                     2CADR    TIMEDIDR
000465:
000466: 01,2360           00000        6.7SPOT            OCT      0
000467: 01,2361           00000                           OCT      0
000468: 01,2362           00000                           OCT      0
000469:
000470: 01,2363           76052        6.11SPOT           -GENADR  CM/GYMDT                              #  PROTECT TASK TO READ CDUS.
000471: 01,2364  E6,1725                                  EBANK=   CM/GYMDT                              #  FOR ENTRY DAP
000472: 01,2364           75323 45711                     -2CADR   READGYMB
000473:
000474: 01,2366           00000        6.13SPOT           DEC      0          B-14
000475: 01,2367           00000                           DEC      0          B-14
000476: 01,2370           00000                           DEC      0          B-14
000477:


000479:                                                                                                  #  PROGRAM DESCRIPTION: NEWPHASE                                         DATE:  11 NOV 1966
000480:                                                                                                  #  MOD: 1                                                                ASSEMBLY:  SUNBURST REV
000481:                                                                                                  #  MOD BY: COPPS                                                         LOG SECTION: PHASE TABLE MAINTENANCE
000482:
000483:                                                                                                  #  FUNCTIONAL DESCRIPTION:
000484:
000485:                                                                                                  #        NEWPHASE IS THE QUICK WAY TO MAKE A NON VARIABLE PHASE CHANGE.  IT INCLUDES THE OPTION OF SETTING
000486:                                                                                                  #        TBASE OF THE GROUP.  IF TBASE IS TO BE SET, -C(TIME1) IS STORED IN THE TBASE TABLE AS FOLLOWS:
000487:
000488:                                                                                                  #                (L-1)   TBASE0
000489:                                                                                                  #                (L)     TBASE1  (IF GROUP=1)
000490:                                                                                                  #                (L+1)
000491:                                                                                                  #                (L+2)   TBASE2  (IF GROUP=2)
000492:                                                                                                  #                -----
000493:                                                                                                  #                (L+6)   TBASE4  (IF GROUP=4)
000494:                                                                                                  #                (L+7)
000495:                                                                                                  #                (L+8)   TBASE5  (IF GROUP=5)
000496:
000497:                                                                                                  #        IN ANY CASE, THE NEGATIVE OF THE PHASE, FOLLOWED (IN THE NEXT REGISTER) BY THE PHASE, IS STORED IN THE
000498:                                                                                                  #        PHASE TABLE AS FOLLOWS:
000499:
000500:                                                                                                  #                (L)     -PHASE1 (IF GROUP=1)
000501:                                                                                                  #                (L+1)   PHASE1
000502:                                                                                                  #                (L+2)   -PHASE2 (IF GROUP=2)
000503:                                                                                                  #                (L+3)   PHASE 2
000504:                                                                                                  #                -----
000505:                                                                                                  #                (L+7)   PHASE4
000506:                                                                                                  #                (L+8)   -PHASE5 (IF GROUP=5)
000507:                                                                                                  #                (L+9)   PHASE5
000508:
000509:                                                                                                  #  CALLING SEQUENCE:
000510:
000511:                                                                                                  #        EXAMPLE IS FOR PLACING A PHASE OF FIVE INTO GROUP THREE:
000512:
000513:                                                                                                  #        1)      IF TBASE IS NOT TO BE SET:
000514:                                                                                                  #                        L-1     CA      FIVE
000515:                                                                                                  #                        L       TC      NEWPHASE
000516:                                                                                                  #                        L+1     OCT     00003
000517:                                                                                                  #        2)      IF TBASE IS TO BE SET:
000518:                                                                                                  #                        L-1     CS      FIVE
000519:                                                                                                  #                        L       TC      NEWPHASE
000520:                                                                                                  #                        L+1     OCT     00003
000521:
000522:                                                                                                  #  SUBROUTINES CALLED:  NONE
000523:
000524:                                                                                                  #  NORMAL EXIT MODE:  AT L+2 OF CALLING SEQUENCE
000525:
000526:                                                                                                  #  ALARM OR ABORT EXITS:  NONE
000527:
000528:                                                                                                  #  OUTPUT:  PHASE TABLE AND TBASE TABLE UPDATED
000529:
000530:                                                                                                  #  ERASABLE INITIALIZATION REQ,D:  NONE


000532:                                                                                                  #  DEBRIS:  A,L,TEMPG
000533:
000534:                                                                                                  #  *** WARNING *** THIS PROGRAM IS TO BE PLACED IN FIXED-FIXED AND UNSWITCHED ERASABLE.
000535:
000536:    4114                                           BLOCK    02
000537:    4000                                           SETLOC   FFTAG1
000538:    4000                                           BANK
000539:
000540:    4114                                           COUNT*   $$/PHASE
000541:
000542:    4114           00004        NEWPHASE           INHINT
000543:
000544:    4115           54001                           TS       L                                     #  SAVE FOR FURTHER USE
000545:
000546:    4116           50002                           NDX      Q                                     #  OBTAIN THE GROUP NUMBER
000547:    4117           30000                           CA       0
000548:    4120           24002                           INCR     Q                                     #  OBTAIN THE RETURN ADDRESS
000549:    4121           60000                           DOUBLE                                         #  SAVE THE GROUP IN A FORM USED FOR
000550:    4122           54061                           TS       TEMPG                                 #  INDEXING
000551:
000552:    4123           10001                           CCS      L                                     #  SEE IF WE ARE TO SET TBASE
000553:    4124           14133                           TCF      +7                                    #  NO, THE DELTA T WAS POSITIVE
000554:    4125           14133                           TCF      +6
000555:
000556:    4126           24000        NUFAZ+10           INCR     A                                     #  SET TBASE AND STORE PHASE CORRECTLY
000557:    4127           54001                           TS       L
000558:
000559:    4130           40025                           CS       TIME1                                 #  SET TBASE
000560:    4131           50061                           NDX      TEMPG
000561:    4132           55051                           TS       TBASE1     -2
000562:
000563:    4133           40001                           CS       L                                     #  NOW PUT THE PHASE IN THE RIGHT TABLE LOC
000564:    4134           50061                           NDX      TEMPG
000565:    4135           52751                           DXCH     -PHASE1    -2
000566:
000567:    4136           00003                           RELINT
000568:    4137           00002                           TC       Q                                     #  NOW RETURN TO CALLER
000569:

End of include-file RESTART_TABLES.agc.  Parent file is MAIN.agc


