
Source Code
000001:                                                                                                 #  Copyright:     Public domain.
000002:                                                                                                 #  Filename:      RT8_OP_CODES.agc
000003:                                                                                                 #  Purpose:       Part of the source code for Colossus, build 249.
000004:                                                                                                 #                 It is part of the source code for the Command Module's (CM)
000005:                                                                                                 #                 Apollo Guidance Computer (AGC), possibly for Apollo 8 and 9.
000006:                                                                                                 #  Assembler:     yaYUL
000007:                                                                                                 #  Reference:     Starts on p. 1498 of 1701.pdf.
000008:                                                                                                 #  Contact:       Ron Burkey <info@sandroid.org>.
000009:                                                                                                 #  Website:       www.ibiblio.org/apollo.
000010:                                                                                                 #  Mod history:   08/30/04 RSB.   Adapted from corresponding Luminary131 file.
000011:
000012:                                                                                                 #  The contents of the "Colossus249" files, in general, are transcribed
000013:                                                                                                 #  from a scanned document obtained from MIT's website,
000014:                                                                                                 #  http://hrst.mit.edu/hrs/apollo/public/archive/1701.pdf.  Notations on this
000015:                                                                                                 #  document read, in part:
000016:
000017:                                                                                                 #         Assemble revision 249 of AGC program Colossus by NASA
000018:                                                                                                 #         2021111-041.  October 28, 1968.
000019:
000020:                                                                                                 #         This AGC program shall also be referred to as
000021:                                                                                                 #                                 Colossus 1A
000022:
000023:                                                                                                 #         Prepared by
000024:                                                                                                 #                         Massachussets Institute of Technology
000025:                                                                                                 #                         75 Cambridge Parkway
000026:                                                                                                 #                         Cambridge, Massachusetts
000027:                                                                                                 #         under NASA contract NAS 9-4065.
000028:
000029:                                                                                                 #  Refer directly to the online document mentioned above for further information.
000030:                                                                                                 #  Please report any errors (relative to 1701.pdf) to info@sandroid.org.
000031:
000032:                                                                                                 #  In some cases, where the source code for Luminary 131 overlaps that of
000033:                                                                                                 #  Colossus 249, this code is instead copied from the corresponding Luminary 131
000034:                                                                                                 #  source file, and then is proofed to incorporate any changes.
000035:
000036:                                                                                                 #  Page 1498
000037: 22,3505                                          BANK     22
000038: 22,2000                                          SETLOC   RTBCODES
000039: 22,2000                                          BANK
000040:
000041: 22,3505  E5,1713                                 EBANK=   XNB
000042: 22,3505                                          COUNT*   $$/RTB
000043:
000044:                                                                                                 #  LOAD TIME2, TIME1 INTO MPAC:
000045:
000046: 22,3505           00006        LOADTIME          EXTEND
000047: 22,3506           30025                          DCA      TIME2
000048: 22,3507           16024                          TCF      SLOAD2
000049:
000050:                                                                                                 #  CONVERT THE SINGLE PRECISION 2'S COMPLEMENT NUMBER ARRIVING IN MPAC (SCALED IN HALF-REVOLUTIONS) TO A
000051:                                                                                                 #  DP 1'S COMPLEMENT NUMBER SCALED IN REVOLUTIONS.
000052:
000053: 22,3510           10154        CDULOGIC          CCS      MPAC
000054: 22,3511           34714                          CAF      ZERO
000055: 22,3512           13515                          TCF      +3
000056: 22,3513           13514                          NOOP
000057: 22,3514           44675                          CS       HALF
000058:
000059: 22,3515           54155                          TS       MPAC       +1
000060: 22,3516           34714                          CAF      ZERO
000061: 22,3517           56154                          XCH      MPAC
000062: 22,3520           00006                          EXTEND
000063: 22,3521           74675                          MP       HALF
000064: 22,3522           20155                          DAS      MPAC
000065: 22,3523           16030                          TCF      DANZIG                                #  MODE IS ALREADY AT DOUBLE-PRECISION
000066:
000067:                                                                                                 #  READ THE PIPS INTO MPAC WITHOUT CHANGING THEM:
000068:
000069: 22,3524           00004        READPIPS          INHINT
000070: 22,3525           30037                          CA       PIPAX
000071: 22,3526           54154                          TS       MPAC
000072: 22,3527           30040                          CA       PIPAY
000073: 22,3530           54157                          TS       MPAC       +3
000074: 22,3531           30041                          CA       PIPAZ
000075: 22,3532           00003                          RELINT
000076: 22,3533           54161                          TS       MPAC       +5
000077:
000078: 22,3534           34714                          CAF      ZERO
000079: 22,3535           54155                          TS       MPAC       +1
000080: 22,3536           54160                          TS       MPAC       +4
000081: 22,3537           54162                          TS       MPAC       +6
000082:
000083: 22,3540           16470        VECMODE           TCF      VMODE
000084:
000085:                                                                                                 #  FORCE TP SIGN AGREEMENT IN MPAC:
000086:
000087: 22,3541           07226        SGNAGREE          TC       TPAGREE
000088:                                                                                                 #  Page 1499
000089: 22,3542           16030                          TCF      DANZIG
000090:
000091:                                                                                                 #  CONVERT THE DP 1'S COMPLEMENT ANGLE SCALED IN REVOLUTIONS TO A SINGLE PRECISION 2'S COMPLEMENT ANGLE
000092:                                                                                                 #  SCALED IN HALF-REVOLUTIONS.
000093:
000094: 22,3543           03573        1STO2S            TC       1TO2SUB
000095: 22,3544           34714                          CAF      ZERO
000096: 22,3545           54155                          TS       MPAC       +1
000097: 22,3546           16027                          TCF      NEWMODE
000098:
000099:                                                                                                 #  DO 1STO2S ON A VECTOR OF ANGLES:
000100:
000101: 22,3547           03573        V1STO2S           TC       1TO2SUB                               #  ANSWER ARRIVES IN A AND MPAC.
000102:
000103: 22,3550           52162                          DXCH     MPAC       +5
000104: 22,3551           52155                          DXCH     MPAC
000105: 22,3552           03573                          TC       1TO2SUB
000106: 22,3553           54156                          TS       MPAC       +2
000107:
000108: 22,3554           52160                          DXCH     MPAC       +3
000109: 22,3555           52155                          DXCH     MPAC
000110: 22,3556           03573                          TC       1TO2SUB
000111: 22,3557           54155                          TS       MPAC       +1
000112:
000113: 22,3560           30161                          CA       MPAC       +5
000114: 22,3561           54154                          TS       MPAC
000115:
000116: 22,3562           34712        TPMODE            CAF      ONE                                   #  MODE IS TP.
000117: 22,3563           16027                          TCF      NEWMODE
000118:
000119:                                                                                                 #  V1STO2S FOR 2 COMPONENT VECTOR. USED BY RR.
000120:
000121: 22,3564           03573        2V1STO2S          TC       1TO2SUB
000122: 22,3565           52160                          DXCH     MPAC       +3
000123: 22,3566           52155                          DXCH     MPAC
000124: 22,3567           03573                          TC       1TO2SUB
000125: 22,3570           54001                          TS       L
000126: 22,3571           30157                          CA       MPAC       +3
000127: 22,3572           16024                          TCF      SLOAD2
000128:
000129:                                                                                                 #  SUBROUTINE TO DO DOUBLING AND 1'S TO 2'S CONVERSION:
000130:
000131: 22,3573           52155        1TO2SUB           DXCH     MPAC                                  #  FINAL MPAC +1 UNSPECIFIED.
000132: 22,3574           20001                          DDOUBL
000133: 22,3575           10000                          CCS      A
000134: 22,3576           64712                          AD       ONE
000135: 22,3577           13601                          TCF      +2
000136: 22,3600           40000                          COM                                            #  THIS WAS REVERSE OF MSU.
000137:
000138: 22,3601           54154                          TS       MPAC                                  #  AND SKIP ON OVERFLOW.
000139:                                                                                                 #  Page 1500
000140: 22,3602           00002                          TC       Q
000141:
000142: 22,3603           50000                          INDEX    A                                     #  OVERFLOW UNCORRECT AND IN MSU.
000143: 22,3604           34673                          CAF      LIMITS
000144: 22,3605           26154                          ADS      MPAC
000145: 22,3606           00002                          TC       Q
000146:
000147:                                                                                                 #  Page 1501
000148:                                                                                                 #  SUBROUTINE TO INCREMENT CDUS
000149:
000150: 22,3607           33622        INCRCDUS          CAF      LOCTHETA
000151: 22,3610           54130                          TS       BUF                                   #  PLACE ADRES(THETA) IN BUF.
000152: 22,3611           30154                          CAE      MPAC                                  #  INCREMENT IN 1'S COMPL.
000153: 22,3612           03623                          TC       CDUINC
000154:
000155: 22,3613           24130                          INCR     BUF
000156: 22,3614           30157                          CAE      MPAC       +3
000157: 22,3615           03623                          TC       CDUINC
000158:
000159: 22,3616           24130                          INCR     BUF
000160: 22,3617           30161                          CAE      MPAC       +5
000161: 22,3620           03623                          TC       CDUINC
000162:
000163: 22,3621           13540                          TCF      VECMODE
000164:
000165: 22,3622           01155        LOCTHETA          ADRES    THETAD
000166:
000167:                                                                                                 #  THE FOLLOWING ROUTINE INCREMENTS IN 2'S COMPLEMENT THE REGISTER WHOSE ADDRESS IS IN BUF BY THE 1'S COMPL.
000168:                                                                                                 #  QUANTITY FOUND IN TEM2.  THIS MAY BE USED TO INCRMENT DESIRED IMU AND OPTICS CDU ANGLES OR ANY OTHER 2'S COMPL.
000169:                                                                                                 #  (+0 UNEQUAL TO -0) QUANTITY.  MAY BE CALLED BY BANKCALL/SWCALL.
000170:
000171: 22,3623           54142        CDUINC            TS       TEM2                                  #  1'S COMPL. QUANT. ARRIVES IN ACC.  STORE IT
000172: 22,3624           50130                          INDEX    BUF
000173: 22,3625           10000                          CCS      0                                     #  CHANGE 2'S COMPLE. ANGEL (IN BUF) INTO 1'S
000174: 22,3626           64712                          AD       ONE
000175: 22,3627           13633                          TCF      +4
000176: 22,3630           64712                          AD       ONE
000177: 22,3631           64712                          AD       ONE                                   #  OVEFLOW HERE IF 2'S COMPL. IS 180 DEG.
000178: 22,3632           40000                          COM
000179:
000180: 22,3633           60142                          AD       TEM2                                  #  SULT MOVES FROM 2ND TO 3D QUAD. (OR BACK)
000181: 22,3634           10000                          CCS      A                                     #  BACK TO 2'S COMPL.
000182: 22,3635           64712                          AD       ONE
000183: 22,3636           13640                          TCF      +2
000184: 22,3637           40000                          COM
000185: 22,3640           54142                          TS       TEM2                                  #  STORE 14-BIT QUANTITY WITH PRESENT SIGN
000186: 22,3641           13645                          TCF      +4
000187: 22,3642           50000                          INDEX    A                                     #  SIGN.
000188: 22,3643           34673                          CAF      LIMITS                                #  FIX IT, BY ADDING IN 37777 OR 40000
000189: 22,3644           60142                          AD       TEM2
000190:
000191: 22,3645           50130                          INDEX    BUF
000192: 22,3646           54000                          TS       0                                     #  STORE NEW ANGLE IN 2'S COMPLEMENT.
000193: 22,3647           00002                          TC       Q
000194:
000195:                                                                                                 #  Page 1502
000196:                                                                                                 #  RTB TO TORQUE GYROS, EXCEPT FOR THE CALL TO IMUSTALL.  ECADR OF COMMANDS ARRIVES IN X1.
000197:
000198: 22,3650           50120        PULSEIMU          INDEX    FIXLOC                                #  ADDRESS OF GYRO COMMANDS SHOULD BE IN X1
000199: 22,3651           30046                          CA       X1
000200: 22,3652           04555                          TC       BANKCALL
000201: 22,3653           17125                          CADR     IMUPULSE
000202: 22,3654           16030                          TCF      DANZIG
000203:
000204:                                                                                                 #  Page 1503
000205:                                                                                                 #  EACH ROUTINE TAKES A 3X3 MATRIX STORED IN DOUBLE PRECISION IN A FIXED AREA OF ERASABLE MEMORY AND REPLACES IT
000206:                                                                                                 #  WITH THE TRANSPOSE MATRIX.  TRANSP1 USES LOCATIONS XNB+0,+1 THROUGH XNB+16D,+17D AND TRANSP2 USES LOCATIONS
000207:                                                                                                 #  XNB1+0,+1 THROUGH XNB1+16D,+17D.  EACH MATRIX IS STORED BY ROWS.
000208:
000209: 22,3655           02713        XNBEB             ECADR    XNB
000210: 22,3656           02554        XNB1EB            ECADR    XNB1
000211:
000212: 22,3657  E5,1713                                 EBANK=   XNB
000213:
000214: 22,3657           33655        TRANSP1           CAF      XNBEB
000215: 22,3660           54003                          TS       EBANK
000216: 22,3661           53716                          DXCH     XNB        +2
000217: 22,3662           53722                          DXCH     XNB        +6
000218: 22,3663           53716                          DXCH     XNB        +2
000219:
000220: 22,3664           53720                          DXCH     XNB        +4
000221: 22,3665           53730                          DXCH     XNB        +12D
000222: 22,3666           53720                          DXCH     XNB        +4
000223:
000224: 22,3667           53726                          DXCH     XNB        +10D
000225: 22,3670           53732                          DXCH     XNB        +14D
000226: 22,3671           53726                          DXCH     XNB        +10D
000227: 22,3672           16030                          TCF      DANZIG
000228: 22,3673  E5,1554                                 EBANK=   XNB1
000229:
000230: 22,3673           33656        TRANSP2           CAF      XNB1EB
000231: 22,3674           54003                          TS       EBANK
000232: 22,3675           53557                          DXCH     XNB1       +2
000233: 22,3676           53563                          DXCH     XNB1       +6
000234: 22,3677           53557                          DXCH     XNB1       +2
000235:
000236: 22,3700           53561                          DXCH     XNB1       +4
000237: 22,3701           53571                          DXCH     XNB1       +12D
000238: 22,3702           53561                          DXCH     XNB1       +4
000239:
000240: 22,3703           53567                          DXCH     XNB1       +10D
000241: 22,3704           53573                          DXCH     XNB1       +14D
000242: 22,3705           53567                          DXCH     XNB1       +10D
000243: 22,3706           16030                          TCF      DANZIG
000244:
000245:                                                                                                 #  Page 1504
000246:                                                                                                 #  THE SUBROUTINE SIGNMPAC SETS C(MPAC, MPAC +1) TO SIGN(MPAC).
000247:                                                                                                 #  FOR THIS, ONLY THE CONTENTS OF MPAC ARE EXAMINED.  ALSO +0 YIELDS POSMAX AND -0 YIELDS NEGMAX.
000248:
000249:                                                                                                 #  ENTRY MAY BE BY EITHER OF THE FOLLOWING:
000250:                                                                                                 #         1.      LIMIT THE SIZE OF MPAC ON INTERPRETIVE OVERFLOW:
000251:                                                                                                 #                 ENTRY:          BOVB
000252:                                                                                                 #                                         SIGNMPAC
000253:                                                                                                 #         2.      GENERATE IN MPAC THE SIGNUM FUNCTION OF MPAC:
000254:                                                                                                 #                 ENTRY:          RTB
000255:                                                                                                 #                                         SIGNMPAC
000256:                                                                                                 #  IN EITHER CASE, RETURN IS TO TEH NEXT INTERPRETIVE INSTRUCTION IN THE CALLING SEQUENCE.
000257:
000258: 22,3707           00006        SIGNMPAC          EXTEND
000259: 22,3710           34672                          DCA      DPOSMAX
000260: 22,3711           52155                          DXCH     MPAC
000261: 22,3712           10000                          CCS      A
000262: 22,3713           34714        DPMODE            CAF      ZERO                                  #  SETS MPAC +2 TO ZERO IN THE PROCESS
000263: 22,3714           16026                          TCF      SLOAD2     +2
000264: 22,3715           13716                          TCF      +1
000265: 22,3716           00006                          EXTEND
000266: 22,3717           44672                          DCS      DPOSMAX
000267: 22,3720           16024                          TCF      SLOAD2
000268:
000269:                                                                                                 #  RTB OP CODE NORMUNIT IS LIKE INTERPRETIVE INSTRUCTION UNIT, EXCEPT THAT IT CAN BE DEPENDED ON NOT TO BLOW
000270:                                                                                                 #  UP WHEN THE VECTOR BEING UNITIZED IS VERY SAMLL -- IT WILL BLOW UP WHEN ALL COMPONENT ARE ZERO.  IF NORMUNIT
000271:                                                                                                 #  IS USED AND THE UPPER ORDER HALVES OF ALL COMPONENTS ARE ERO, THE MAGNITUDE RETURNS IN 36D WILL BE TOO LARGE
000272:                                                                                                 #  BY A FACTOR OF 2(13) AND THE SQURED MAGNITUDE RETURNED ATE 34D WILL BE TOO BIG BY A FACTOR OF 2(26).
000273:
000274: 22,3721           34712        NORMUNX1          CAF      ONE
000275: 22,3722           13724                          TCF      NORMUNIT   +1
000276: 22,3723           34714        NORMUNIT          CAF      ZERO
000277: 22,3724           60120                          AD       FIXLOC
000278: 22,3725           54156                          TS       MPAC       +2
000279: 22,3726           04555                          TC       BANKCALL                              #  GET SIGN AGREEMENT IN ALL COMPONENTS
000280: 22,3727           01010                          CADR     VECAGREE
000281: 22,3730           10154                          CCS      MPAC
000282: 22,3731           13765                          TCF      NOSHIFT
000283: 22,3732           13734                          TCF      +2
000284: 22,3733           13765                          TCF      NOSHIFT
000285: 22,3734           10157                          CCS      MPAC       +3
000286: 22,3735           13765                          TCF      NOSHIFT
000287: 22,3736           13740                          TCF      +2
000288: 22,3737           13765                          TCF      NOSHIFT
000289: 22,3740           10161                          CCS      MPAC       +5
000290: 22,3741           13765                          TCF      NOSHIFT
000291: 22,3742           13744                          TCF      +2
000292: 22,3743           13765                          TCF      NOSHIFT
000293:                                                                                                 #  Page 1505
000294: 22,3744           30155                          CA       MPAC       +1                         #  SHIFT ALL COMPONENTS LEFT 13
000295: 22,3745           00006                          EXTEND
000296: 22,3746           74675                          MP       BIT14
000297: 22,3747           20155                          DAS      MPAC                                  #  DAS GAINS A LITTLE ACCURACY
000298: 22,3750           30160                          CA       MPAC       +4
000299: 22,3751           00006                          EXTEND
000300: 22,3752           74675                          MP       BIT14
000301: 22,3753           20160                          DAS      MPAC       +3
000302: 22,3754           30162                          CA       MPAC       +6
000303: 22,3755           00006                          EXTEND
000304: 22,3756           74675                          MP       BIT14
000305: 22,3757           20162                          DAS      MPAC       +5
000306: 22,3760           34720                          CAF      THIRTEEN
000307: 22,3761           50156                          INDEX    MPAC       +2
000308: 22,3762           54045                          TS       37D
000309: 22,3763           04574        OFFTUNIT          TC       POSTJUMP
000310: 22,3764           01024                          CADR     UNIT       +1                         #  SKIP THE "TC VECAGREE" DONE AT UNIT
000311:
000312: 22,3765           34714        NOSHIFT           CAF      ZERO
000313: 22,3766           13761                          TCF      OFFTUNIT   -2
000314:
000315:                                                                                                 #  RTB VECSGNAG ... FORCES SIGN AGREEMENT OF VECTOR IN MPAC.
000316:
000317: 22,3767           04555        VECSGNAG          TC       BANKCALL
000318: 22,3770           01010                          CADR     VECAGREE
000319: 22,3771           06030                          TC       DANZIG
000320:
000321:                                                                                                 #  *** END OF SATRAP  .007 ***
000322:
000323:
000324:
000325:

End of include-file RT8_OP_CODES.agc.  Parent file is MAIN.agc


