
Source Code


000002:                                                                                                  ## Copyright:   Public domain.
000003:                                                                                                  ## Filename:    RTB_OP_CODES.agc
000004:                                                                                                  ## Purpose:     Part of the source code for Colossus, build 249.
000005:                                                                                                  ##              It is part of the source code for the Command Module's (CM)
000006:                                                                                                  ##              Apollo Guidance Computer (AGC), for Apollo 9.
000007:                                                                                                  ## Assembler:   yaYUL
000008:                                                                                                  ## Reference:   Starts on p. 1476
000009:                                                                                                  ## Contact:     Ron Burkey <info@sandroid.org>.
000010:                                                                                                  ## Website:     www.ibiblio.org/apollo.
000011:                                                                                                  ## Mod history: 08/30/04 RSB.   Adapted from corresponding Luminary131 file.
000012:                                                                                                  ##              2017-01-06 RSB  Page numbers now agree with those on the
000013:                                                                                                  ##                              original harcopy, as opposed to the PDF page
000014:                                                                                                  ##                              numbers in 1701.pdf.
000015:                                                                                                  ##              2017-01-18 RSB  Cross-diff'd comment text (not whitespace)
000016:                                                                                                  ##                              vs the already-proofed corresponding Colossus
000017:                                                                                                  ##                              237 and Comanche 55 source-code files
000018:                                                                                                  ##                              and corrected errors found.
000019:                                                                                                  ##
000020:                                                                                                  ## The contents of the "Colossus249" files, in general, are transcribed
000021:                                                                                                  ## from a scanned copy of the program listing.  Notations on this
000022:                                                                                                  ## document read, in part:
000023:                                                                                                  ##
000024:                                                                                                  ##      Assemble revision 249 of AGC program Colossus by NASA
000025:                                                                                                  ##      2021111-041.  October 28, 1968.
000026:                                                                                                  ##
000027:                                                                                                  ##      This AGC program shall also be referred to as
000028:                                                                                                  ##                              Colossus 1A
000029:                                                                                                  ##
000030:                                                                                                  ##      Prepared by
000031:                                                                                                  ##                      Massachusetts Institute of Technology
000032:                                                                                                  ##                      75 Cambridge Parkway
000033:                                                                                                  ##                      Cambridge, Massachusetts
000034:                                                                                                  ##      under NASA contract NAS 9-4065.
000035:                                                                                                  ##
000036:                                                                                                  ## Refer directly to the online document mentioned above for further information.
000037:                                                                                                  ## Please report any errors (relative to the scanned pages) to info@sandroid.org.
000038:                                                                                                  ##
000039:                                                                                                  ## In some cases, where the source code for Luminary 131 overlaps that of
000040:                                                                                                  ## Colossus 249, this code is instead copied from the corresponding Luminary 131
000041:                                                                                                  ## source file, and then is proofed to incorporate any changes.
000042:


000044: 22,3505                                           BANK     22
000045: 22,2000                                           SETLOC   RTBCODES
000046: 22,2000                                           BANK
000047:
000048: 22,3505  E5,1713                                  EBANK=   XNB
000049: 22,3505                                           COUNT*   $$/RTB
000050:
000051:                                                                                                  #  LOAD TIME2, TIME1 INTO MPAC:
000052:
000053: 22,3505           00006        LOADTIME           EXTEND
000054: 22,3506           30025                           DCA      TIME2
000055: 22,3507           16024                           TCF      SLOAD2
000056:
000057:                                                                                                  #  CONVERT THE SINGLE PRECISION 2'S COMPLEMENT NUMBER ARRIVING IN MPAC (SCALED IN HALF-REVOLUTIONS) TO A
000058:                                                                                                  #  DP 1'S COMPLEMENT NUMBER SCALED IN REVOLUTIONS.
000059:
000060: 22,3510           10154        CDULOGIC           CCS      MPAC
000061: 22,3511           34714                           CAF      ZERO
000062: 22,3512           13515                           TCF      +3
000063: 22,3513           13514                           NOOP
000064: 22,3514           44675                           CS       HALF
000065:
000066: 22,3515           54155                           TS       MPAC       +1
000067: 22,3516           34714                           CAF      ZERO
000068: 22,3517           56154                           XCH      MPAC
000069: 22,3520           00006                           EXTEND
000070: 22,3521           74675                           MP       HALF
000071: 22,3522           20155                           DAS      MPAC
000072: 22,3523           16030                           TCF      DANZIG                                #  MODE IS ALREADY AT DOUBLE-PRECISION
000073:
000074:                                                                                                  #  READ THE PIPS INTO MPAC WITHOUT CHANGING THEM:
000075:
000076: 22,3524           00004        READPIPS           INHINT
000077: 22,3525           30037                           CA       PIPAX
000078: 22,3526           54154                           TS       MPAC
000079: 22,3527           30040                           CA       PIPAY
000080: 22,3530           54157                           TS       MPAC       +3
000081: 22,3531           30041                           CA       PIPAZ
000082: 22,3532           00003                           RELINT
000083: 22,3533           54161                           TS       MPAC       +5
000084:
000085: 22,3534           34714                           CAF      ZERO
000086: 22,3535           54155                           TS       MPAC       +1
000087: 22,3536           54160                           TS       MPAC       +4
000088: 22,3537           54162                           TS       MPAC       +6
000089:
000090: 22,3540           16470        VECMODE            TCF      VMODE
000091:
000092:                                                                                                  #  FORCE TP SIGN AGREEMENT IN MPAC:
000093:
000094: 22,3541           07226        SGNAGREE           TC       TPAGREE


000096: 22,3542           16030                           TCF      DANZIG
000097:
000098:                                                                                                  #  CONVERT THE DP 1'S COMPLEMENT ANGLE SCALED IN REVOLUTIONS TO A SINGLE PRECISION 2'S COMPLEMENT ANGLE
000099:                                                                                                  #  SCALED IN HALF-REVOLUTIONS.
000100:
000101: 22,3543           03573        1STO2S             TC       1TO2SUB
000102: 22,3544           34714                           CAF      ZERO
000103: 22,3545           54155                           TS       MPAC       +1
000104: 22,3546           16027                           TCF      NEWMODE
000105:
000106:                                                                                                  #  DO 1STO2S ON A VECTOR OF ANGLES:
000107:
000108: 22,3547           03573        V1STO2S            TC       1TO2SUB                               #  ANSWER ARRIVES IN A AND MPAC.
000109:
000110: 22,3550           52162                           DXCH     MPAC       +5
000111: 22,3551           52155                           DXCH     MPAC
000112: 22,3552           03573                           TC       1TO2SUB
000113: 22,3553           54156                           TS       MPAC       +2
000114:
000115: 22,3554           52160                           DXCH     MPAC       +3
000116: 22,3555           52155                           DXCH     MPAC
000117: 22,3556           03573                           TC       1TO2SUB
000118: 22,3557           54155                           TS       MPAC       +1
000119:
000120: 22,3560           30161                           CA       MPAC       +5
000121: 22,3561           54154                           TS       MPAC
000122:
000123: 22,3562           34712        TPMODE             CAF      ONE                                   #  MODE IS TP.
000124: 22,3563           16027                           TCF      NEWMODE
000125:
000126:                                                                                                  #  V1STO2S FOR 2 COMPONENT VECTOR. USED BY RR.
000127:
000128: 22,3564           03573        2V1STO2S           TC       1TO2SUB
000129: 22,3565           52160                           DXCH     MPAC       +3
000130: 22,3566           52155                           DXCH     MPAC
000131: 22,3567           03573                           TC       1TO2SUB
000132: 22,3570           54001                           TS       L
000133: 22,3571           30157                           CA       MPAC       +3
000134: 22,3572           16024                           TCF      SLOAD2
000135:
000136:                                                                                                  #  SUBROUTINE TO DO DOUBLING AND 1'S TO 2'S CONVERSION:
000137:
000138: 22,3573           52155        1TO2SUB            DXCH     MPAC                                  #  FINAL MPAC +1 UNSPECIFIED.
000139: 22,3574           20001                           DDOUBL
000140: 22,3575           10000                           CCS      A
000141: 22,3576           64712                           AD       ONE
000142: 22,3577           13601                           TCF      +2
000143: 22,3600           40000                           COM                                            #  THIS WAS REVERSE OF MSU.
000144:
000145: 22,3601           54154                           TS       MPAC                                  #  AND SKIP ON OVERFLOW.


000147: 22,3602           00002                           TC       Q
000148:
000149: 22,3603           50000                           INDEX    A                                     #  OVERFLOW UNCORRECT AND IN MSU.
000150: 22,3604           34673                           CAF      LIMITS
000151: 22,3605           26154                           ADS      MPAC
000152: 22,3606           00002                           TC       Q
000153:


000155:                                                                                                  #  SUBROUTINE TO INCREMENT CDUS
000156:
000157: 22,3607           33622        INCRCDUS           CAF      LOCTHETA
000158: 22,3610           54130                           TS       BUF                                   #  PLACE ADRES(THETA) IN BUF.
000159: 22,3611           30154                           CAE      MPAC                                  #  INCREMENT IN 1S COMPL.
000160: 22,3612           03623                           TC       CDUINC
000161:
000162: 22,3613           24130                           INCR     BUF
000163: 22,3614           30157                           CAE      MPAC       +3
000164: 22,3615           03623                           TC       CDUINC
000165:
000166: 22,3616           24130                           INCR     BUF
000167: 22,3617           30161                           CAE      MPAC       +5
000168: 22,3620           03623                           TC       CDUINC
000169:
000170: 22,3621           13540                           TCF      VECMODE
000171:
000172: 22,3622           01155        LOCTHETA           ADRES    THETAD
000173:
000174:                                                                                                  #  THE FOLLOWING ROUTINE INCREMENTS IN 2S COMPLEMENT THE REGISTER WHOSE ADDRESS IS IN BUF BY THE 1S COMPL.
000175:                                                                                                  #  QUANTITY FOUND IN TEM2.  THIS MAY BE USED TO INCREMENT DESIRED IMU AND OPTICS CDU ANGLES OR ANY OTHER 2S COMPL.
000176:                                                                                                  #  (+0 UNEQUAL TO -0) QUANTITY.  MAY BE CALLED BY BANKCALL/SWCALL.
000177:
000178: 22,3623           54142        CDUINC             TS       TEM2                                  #  1S COMPL. QUANT. ARRIVES IN ACC.  STORE IT
000179: 22,3624           50130                           INDEX    BUF
000180: 22,3625           10000                           CCS      0                                     #  CHANGE 2S COMPL. ANGLE(IN BUF) INTO 1S
000181: 22,3626           64712                           AD       ONE
000182: 22,3627           13633                           TCF      +4
000183: 22,3630           64712                           AD       ONE
000184: 22,3631           64712                           AD       ONE                                   #  OVERFLOW HERE IF 2S COMPL. IS 180 DEG.
000185: 22,3632           40000                           COM
000186:
000187: 22,3633           60142                           AD       TEM2                                  #  SULT MOVES FROM 2ND TO 3D QUAD. (OR BACK)
000188: 22,3634           10000                           CCS      A                                     #  BACK TO 2S COMPL.
000189: 22,3635           64712                           AD       ONE
000190: 22,3636           13640                           TCF      +2
000191: 22,3637           40000                           COM
000192: 22,3640           54142                           TS       TEM2                                  #  STORE 14BIT QUANTITY WITH PRESENT SIGN
000193: 22,3641           13645                           TCF      +4
000194: 22,3642           50000                           INDEX    A                                     #  SIGN.
000195: 22,3643           34673                           CAF      LIMITS                                #  FIX IT, BY ADDING IN 37777 OR 40000
000196: 22,3644           60142                           AD       TEM2
000197:
000198: 22,3645           50130                           INDEX    BUF
000199: 22,3646           54000                           TS       0                                     #  STORE NEW ANGLE IN 2S COMPLEMENT.
000200: 22,3647           00002                           TC       Q
000201:


000203:                                                                                                  #  RTB TO TORQUE GYROS, EXCEPT FOR THE CALL TO IMUSTALL.  ECADR OF COMMANDS ARRIVES IN X1.
000204:
000205: 22,3650           50120        PULSEIMU           INDEX    FIXLOC                                #  ADDRESS OF GYRO COMMANDS SHOULD BE IN X1
000206: 22,3651           30046                           CA       X1
000207: 22,3652           04555                           TC       BANKCALL
000208: 22,3653           17125                           CADR     IMUPULSE
000209: 22,3654           16030                           TCF      DANZIG
000210:


000212:                                                                                                  #  EACH ROUTINE TAKES A 3X3 MATRIX STORED IN DOUBLE PRECISION IN A FIXED AREA OF ERASABLE MEMORY AND REPLACES IT
000213:                                                                                                  #  WITH THE TRANSPOSE MATRIX.  TRANSP1 USES LOCATIONS XNB+0,+1 THROUGH XNB+16D, 17D AND TRANSP2 USES LOCATIONS
000214:                                                                                                  #  XNB1+0,+1 THROUGH XNB1+16D, 17D.  EACH MATRIX IS STORED BY ROWS.
000215:
000216: 22,3655           02713        XNBEB              ECADR    XNB
000217: 22,3656           02554        XNB1EB             ECADR    XNB1
000218:
000219: 22,3657  E5,1713                                  EBANK=   XNB
000220:
000221: 22,3657           33655        TRANSP1            CAF      XNBEB
000222: 22,3660           54003                           TS       EBANK
000223: 22,3661           53716                           DXCH     XNB        +2
000224: 22,3662           53722                           DXCH     XNB        +6
000225: 22,3663           53716                           DXCH     XNB        +2
000226:
000227: 22,3664           53720                           DXCH     XNB        +4
000228: 22,3665           53730                           DXCH     XNB        +12D
000229: 22,3666           53720                           DXCH     XNB        +4
000230:
000231: 22,3667           53726                           DXCH     XNB        +10D
000232: 22,3670           53732                           DXCH     XNB        +14D
000233: 22,3671           53726                           DXCH     XNB        +10D
000234: 22,3672           16030                           TCF      DANZIG
000235: 22,3673  E5,1554                                  EBANK=   XNB1
000236:
000237: 22,3673           33656        TRANSP2            CAF      XNB1EB
000238: 22,3674           54003                           TS       EBANK
000239: 22,3675           53557                           DXCH     XNB1       +2
000240: 22,3676           53563                           DXCH     XNB1       +6
000241: 22,3677           53557                           DXCH     XNB1       +2
000242:
000243: 22,3700           53561                           DXCH     XNB1       +4
000244: 22,3701           53571                           DXCH     XNB1       +12D
000245: 22,3702           53561                           DXCH     XNB1       +4
000246:
000247: 22,3703           53567                           DXCH     XNB1       +10D
000248: 22,3704           53573                           DXCH     XNB1       +14D
000249: 22,3705           53567                           DXCH     XNB1       +10D
000250: 22,3706           16030                           TCF      DANZIG
000251:


000253:                                                                                                  #  THE SUBROUTINE SIGNMPAC SETS C(MPAC, MPAC +1) TO SIGN(MPAC).
000254:                                                                                                  #  FOR THIS, ONLY THE CONTENTS OF MPAC ARE EXAMINED.  ALSO +0 YIELDS POSMAX AND -0 YIELDS NEGMAX.
000255:
000256:                                                                                                  #  ENTRY MAY BE BY EITHER OF THE FOLLOWING:
000257:                                                                                                  #        1.      LIMIT THE SIZE OF MPAC ON INTERPRETIVE OVERFLOW:
000258:                                                                                                  #                ENTRY:          BOVB
000259:                                                                                                  #                                        SIGNMPAC
000260:                                                                                                  #        2.      GENERATE IN MPAC THE SIGNUM FUNCTION OF MPAC:
000261:                                                                                                  #                ENTRY:          RTB
000262:                                                                                                  #                                        SIGNMPAC
000263:                                                                                                  #  IN EITHER CASE, RETURN IS TO THE NEXT INTERPRETIVE INSTRUCTION IN THE CALLING SEQUENCE.
000264:
000265: 22,3707           00006        SIGNMPAC           EXTEND
000266: 22,3710           34672                           DCA      DPOSMAX
000267: 22,3711           52155                           DXCH     MPAC
000268: 22,3712           10000                           CCS      A
000269: 22,3713           34714        DPMODE             CAF      ZERO                                  #  SETS MPAC +2 TO ZERO IN THE PROCESS
000270: 22,3714           16026                           TCF      SLOAD2     +2
000271: 22,3715           13716                           TCF      +1
000272: 22,3716           00006                           EXTEND
000273: 22,3717           44672                           DCS      DPOSMAX
000274: 22,3720           16024                           TCF      SLOAD2
000275:
000276:                                                                                                  #  RTB OP CODE NORMUNIT IS LIKE INTERPRETIVE INSTRUCTION UNIT, EXCEPT THAT IT CAN BE DEPENDED ON NOT TO BLOW
000277:                                                                                                  #  UP WHEN THE VECTOR BEING UNITIZED IS VERY SMALL -- IT WILL BLOW UP WHEN ALL COMPONENTS ARE ZERO.  IF NORMUNIT
000278:                                                                                                  #  IS USED AND THE UPPER ORDER HALVES OF ALL COMPONENTS ARE ZERO, THE MAGNITUDE RETURNED IN 36D WILL BE TOO LARGE
000279:                                                                                                  #  BY A FACTOR OF 2(13) AND THE SQUARED MAGNITUDE RETURNED AT 34D WILL BE TOO BIG BY A FACTOR OF 2(26).
000280:
000281: 22,3721           34712        NORMUNX1           CAF      ONE
000282: 22,3722           13724                           TCF      NORMUNIT   +1
000283: 22,3723           34714        NORMUNIT           CAF      ZERO
000284: 22,3724           60120                           AD       FIXLOC
000285: 22,3725           54156                           TS       MPAC       +2
000286: 22,3726           04555                           TC       BANKCALL                              #  GET SIGN AGREEMENT IN ALL COMPONENTS
000287: 22,3727           01010                           CADR     VECAGREE
000288: 22,3730           10154                           CCS      MPAC
000289: 22,3731           13765                           TCF      NOSHIFT
000290: 22,3732           13734                           TCF      +2
000291: 22,3733           13765                           TCF      NOSHIFT
000292: 22,3734           10157                           CCS      MPAC       +3
000293: 22,3735           13765                           TCF      NOSHIFT
000294: 22,3736           13740                           TCF      +2
000295: 22,3737           13765                           TCF      NOSHIFT
000296: 22,3740           10161                           CCS      MPAC       +5
000297: 22,3741           13765                           TCF      NOSHIFT
000298: 22,3742           13744                           TCF      +2
000299: 22,3743           13765                           TCF      NOSHIFT


000301: 22,3744           30155                           CA       MPAC       +1                         #  SHIFT ALL COMPONENTS LEFT 13
000302: 22,3745           00006                           EXTEND
000303: 22,3746           74675                           MP       BIT14
000304: 22,3747           20155                           DAS      MPAC                                  #  DAS GAINS A LITTLE ACCURACY
000305: 22,3750           30160                           CA       MPAC       +4
000306: 22,3751           00006                           EXTEND
000307: 22,3752           74675                           MP       BIT14
000308: 22,3753           20160                           DAS      MPAC       +3
000309: 22,3754           30162                           CA       MPAC       +6
000310: 22,3755           00006                           EXTEND
000311: 22,3756           74675                           MP       BIT14
000312: 22,3757           20162                           DAS      MPAC       +5
000313: 22,3760           34720                           CAF      THIRTEEN
000314: 22,3761           50156                           INDEX    MPAC       +2
000315: 22,3762           54045                           TS       37D
000316: 22,3763           04574        OFFTUNIT           TC       POSTJUMP
000317: 22,3764           01024                           CADR     UNIT       +1                         #  SKIP THE "TC VECAGREE" DONE AT UNIT
000318:
000319: 22,3765           34714        NOSHIFT            CAF      ZERO
000320: 22,3766           13761                           TCF      OFFTUNIT   -2
000321:
000322:                                                                                                  #  RTB VECSGNAG ... FORCES SIGN AGREEMENT OF VECTOR IN MPAC.
000323:
000324: 22,3767           04555        VECSGNAG           TC       BANKCALL
000325: 22,3770           01010                           CADR     VECAGREE
000326: 22,3771           06030                           TC       DANZIG
000327:
000328:

End of include-file RTB_OP_CODES.agc.  Parent file is MAIN.agc


