
Source Code


000002:                                                                                                  ## Copyright:   Public domain.
000003:                                                                                                  ## Filename:    SERVICE_ROUTINES.agc
000004:                                                                                                  ## Purpose:     Part of the source code for Colossus, build 249.
000005:                                                                                                  ##              It is part of the source code for the Command Module's (CM)
000006:                                                                                                  ##              Apollo Guidance Computer (AGC), for Apollo 9.
000007:                                                                                                  ## Assembler:   yaYUL
000008:                                                                                                  ## Reference:   Starts on p. 1453
000009:                                                                                                  ## Contact:     Ron Burkey <info@sandroid.org>.
000010:                                                                                                  ## Website:     www.ibiblio.org/apollo.
000011:                                                                                                  ## Mod history: 08/30/04 RSB.   Adapted from corresponding Luminary131 file.
000012:                                                                                                  ##              2017-01-06 RSB  Page numbers now agree with those on the
000013:                                                                                                  ##                              original harcopy, as opposed to the PDF page
000014:                                                                                                  ##                              numbers in 1701.pdf.
000015:                                                                                                  ##              2017-01-18 RSB  Cross-diff'd comment text (not whitespace)
000016:                                                                                                  ##                              vs the already-proofed corresponding Colossus
000017:                                                                                                  ##                              237 and Comanche 55 source-code files
000018:                                                                                                  ##                              and corrected errors found.
000019:                                                                                                  ##
000020:                                                                                                  ## The contents of the "Colossus249" files, in general, are transcribed
000021:                                                                                                  ## from a scanned copy of the program listing.  Notations on this
000022:                                                                                                  ## document read, in part:
000023:                                                                                                  ##
000024:                                                                                                  ##      Assemble revision 249 of AGC program Colossus by NASA
000025:                                                                                                  ##      2021111-041.  October 28, 1968.
000026:                                                                                                  ##
000027:                                                                                                  ##      This AGC program shall also be referred to as
000028:                                                                                                  ##                              Colossus 1A
000029:                                                                                                  ##
000030:                                                                                                  ##      Prepared by
000031:                                                                                                  ##                      Massachusetts Institute of Technology
000032:                                                                                                  ##                      75 Cambridge Parkway
000033:                                                                                                  ##                      Cambridge, Massachusetts
000034:                                                                                                  ##      under NASA contract NAS 9-4065.
000035:                                                                                                  ##
000036:                                                                                                  ## Refer directly to the online document mentioned above for further information.
000037:                                                                                                  ## Please report any errors (relative to the scanned pages) to info@sandroid.org.
000038:                                                                                                  ##
000039:                                                                                                  ## In some cases, where the source code for Luminary 131 overlaps that of
000040:                                                                                                  ## Colossus 249, this code is instead copied from the corresponding Luminary 131
000041:                                                                                                  ## source file, and then is proofed to incorporate any changes.
000042:


000044:    7717                                           BLOCK    3
000045:    6000                                           SETLOC   FFTAG6
000046:    6000                                           BANK
000047:    7717                                           COUNT    03/FLAG
000048:
000049:    7717           54001        UPENT2             TS       L                                     #  WHICH FLAGWORD IS IT
000050:    7720           74716                           MASK     OCT7
000051:    7721           56001                           XCH      L                                     #  SAVE IN L FOR INDEXING
000052:
000053:    7722           75630                           MASK     OCT77770                              #  OBTAIN THE BIT INFORMATION
000054:    7723           00004                           INHINT                                         #  PREVENT INTERUPTS
000055:    7724           54061                           TS       ITEMP1                                #  STORE THE BIT INFORMATION TEMPORARIALY
000056:
000057:    7725           50001                           NDX      L
000058:    7726           40074                           CS       FLAGWRD0
000059:    7727           70061                           MASK     ITEMP1
000060:    7730           50001                           NDX      L
000061:    7731           26074                           ADS      FLAGWRD0
000062:    7732           00003                           RELINT                                         #  RELEASE INTERUPT INHIBIT
000063:
000064:    7733           24002                           INCR     Q                                     #  OBTAIN THE CORRECT RETURN ADDRESS
000065:    7734           00002                           TC       Q                                     #  RETURN
000066:
000067:    7735           54001        DOWNENT2           TS       L                                     #  WHICH FLAGWORD IS IT
000068:    7736           74716                           MASK     OCT7
000069:    7737           56001                           XCH      L                                     #  SAVE IN L FOR INDEXING
000070:
000071:    7740           75630                           MASK     OCT77770                              #  OBTAIN THE BIT INFORMATION
000072:    7741           40000                           COM                                            #  START TO PROCESS THE INFORMATION
000073:
000074:    7742           00004                           INHINT                                         #  PREVENT INTERUPTS
000075:    7743           50001                           NDX      L
000076:    7744           70074                           MASK     FLAGWRD0
000077:    7745           50001                           NDX      L
000078:    7746           54074                           TS       FLAGWRD0
000079:    7747           00003                           RELINT                                         #  RELEASE INTERUPT INHIBIT
000080:
000081:    7750           24002                           INCR     Q                                     #  OBTAIN THE CORRECT RETURN ADDRESS
000082:    7751           00002                           TC       Q                                     #  RETURN
000083:
000084:    7752     4716               OCT7               EQUALS   SEVEN
000085: 10,3671                                           BANK     10
000086:


000088:                                                                                                  #  UPFLAG AND DOWNFLAG ARE ENTIRELY GENERAL FLAG SETTING AND CLEARING SUBROUTINES.  USING THEM, WHETHER OR
000089:                                                                                                  #  NOT IN INTERRUPT, ONE MAY SET OR CLEAR ANY SINGLE, NAMED BIT IN ANY ERASABLE REGISTER, SUBJECT OF COURSE TO
000090:                                                                                                  #  EBANK SETTING.  A "NAMED" BIT, AS THE WORD IS USED HERE, IS ANY BIT WITH A NAME FORMALLY ASSIGNED BY THE YUL
000091:                                                                                                  #  ASSEMBLER.
000092:
000093:                                                                                                  #  AT PRESENT THE ONLY NAMED BITS ARE THOSE IN THE FLAGWORDS.  ASSEMBLER CHANGES WILL MAKE IT POSSIBLE TO
000094:                                                                                                  #  NAME ANY BIT IN ERASABLE MEMORY.
000095:
000096:                                                                                                  #  CALLING SEQUENCES ARE AS FOLLOWS:-
000097:                                                                                                  #                TC      UPFLAG                  TC      DOWNFLAG
000098:                                                                                                  #                ADRES   NAME OF FLAG            ADRES   NAME OF FLAG
000099:
000100:                                                                                                  #  RETURN IS TO THE LOCATION FOLLOWING THE "ADRES" ABOUT .58 MS AFTER THE "TC".
000101:                                                                                                  #  UPON RETURN A CONTAINS THE CURRENT FLAGWRD SETTING.
000102:
000103:    5435                                           BLOCK    02
000104:    4000                                           SETLOC   FFTAG1
000105:    4000                                           BANK
000106:    5435                                           COUNT*   $$/FLAG
000107:
000108:    5435           30002        UPFLAG             CA       Q
000109:    5436           05453                           TC       DEBIT
000110:    5437           40000                           COM                                            #  +(15 - BIT)
000111:    5440           00006                           EXTEND
000112:    5441           04001                           ROR      LCHAN                                 #  SET BIT
000113:    5442           50061        COMFLAG            INDEX    ITEMP1
000114:    5443           54074                           TS       FLAGWRD0
000115:    5444           22063                           LXCH     ITEMP3
000116:    5445           00003                           RELINT
000117:    5446           00001                           TC       L
000118:
000119:    5447           30002        DOWNFLAG           CA       Q
000120:    5450           05453                           TC       DEBIT
000121:    5451           70001                           MASK     L                                     #  RESET BIT
000122:    5452           15442                           TCF      COMFLAG
000123:
000124:    5453           64712        DEBIT              AD       ONE                                   #  GET DE BITS
000125:    5454           00004                           INHINT
000126:    5455           54063                           TS       ITEMP3
000127:    5456           34721                           CA       LOW4                                  #  DEC15
000128:    5457           54061                           TS       ITEMP1
000129:    5460           50063                           INDEX    ITEMP3
000130:    5461           27777                           CA       0          -1                         #  ADRES
000131:    5462           54001                           TS       L
000132:    5463           34714                           CA       ZERO


000134:    5464           00006                           EXTEND
000135:    5465           10061                           DV       ITEMP1                                #  A = FLAGWRD, L = (15 - BIT)
000136:    5466           52062                           DXCH     ITEMP1
000137:    5467           50061                           INDEX    ITEMP1
000138:    5470           30074                           CA       FLAGWRD0
000139:    5471           54001                           TS       L                                     #  CURRENT STATE
000140:    5472           50062                           INDEX    ITEMP2
000141:    5473           44674                           CS       BIT15                                 #  -(15 - BIT)
000142:    5474           00002                           TC       Q
000143:


000145:                                                                                                  #  DELAYJOB- A GENERAL ROUTINE TO DELAY A JOB A SPECIFIC AMOUNT OF TIME BEFORE PICKING UP AGAIN.
000146:
000147:                                                                                                  #  ENTRANCE REQUIREMENTS ...
000148:                                                                                                  #                CAF     DT              DELAY JOB FOR DT CENTISECS
000149:                                                                                                  #                TC      BANKCALL
000150:                                                                                                  #                CADR    DELAYJOB
000151:
000152: 06,3651                                           BANK     06
000153: 00,2000                                           SETLOC   DLAYJOB
000154: 00,2000                                           BANK
000155:
000156:                                                                                                  #  THIS MUST REMAIN IN BANK 0 *****************************************
000157:
000158: 00,3732                                           COUNT    00/DELAY
000159:
000160: 00,3732           00004        DELAYJOB           INHINT
000161: 00,3733           54002                           TS       Q                                     #  STORE DELAY DT IN Q FOR DLY -1 IN
000162: 00,3734           36214                           CAF      DELAYNUM                              #  WAITLIST
000163: 00,3735           54070        DELLOOP            TS       RUPTREG1
000164: 00,3736           50000                           INDEX    A
000165: 00,3737           31141                           CA       DELAYLOC                              #  IS THIS DELAYLOC AVAILABLE
000166: 00,3740           00006                           EXTEND
000167: 00,3741           13746                           BZF      OK2DELAY                              #  YES
000168:
000169: 00,3742           10070                           CCS      RUPTREG1                              #  NO, TRY NEXT DELAYLOC
000170: 00,3743           13735                           TCF      DELLOOP
000171:
000172: 00,3744           05604                           TC       BAILOUT                               #  NO AVAILABLE LOCS AVAILABLE.
000173: 00,3745           01104                           OCT      1104
000174:
000175: 00,3746           33766        OK2DELAY           CA       TCSLEEP                               #  SET WAITLIST IMMEDIATE RETURN
000176: 00,3747           54061                           TS       WAITEXIT
000177:
000178: 00,3750           30004                           CA       FBANK
000179: 00,3751           60070                           AD       RUPTREG1                              #  STORE BBANK FOR TASK CALL
000180: 00,3752           54001                           TS       L
000181:
000182: 00,3753           33767                           CAF      WAKECAD                               #  STORE CADR FOR TASK CALL
000183: 00,3754           15146                           TCF      DLY2       -1                         #  DLY IS IN WAITLIST ROUTINE
000184:
000185: 00,3755           04604        TCGETCAD           TC       MAKECADR                              #  GET CALLERS FCADR
000186:
000187: 00,3756           50070                           INDEX    RUPTREG1
000188: 00,3757           55141                           TS       DELAYLOC                              #  SAVE DELAY CADRS
000189:
000190: 00,3760           05070                           TC       JOBSLEEP
000191:
000192: 00,3761           34714        WAKER              CAF      ZERO
000193: 00,3762           50006                           INDEX    BBANK
000194: 00,3763           57141                           XCH      DELAYLOC                              #  MAKE DELAYLOC AVAILABLE


000196: 00,3764           05074                           TC       JOBWAKE
000197:
000198: 00,3765           05213                           TC       TASKOVER
000199:
000200: 00,3766           03753        TCSLEEP            GENADR   TCGETCAD   -2
000201: 00,3767           03761        WAKECAD            GENADR   WAKER
000202:


000204:                                                                                                  #  GENTRAN, A BLOCK TRANSFER ROUTINE.
000205:                                                                                                  #  WRITTEN BY D. EYLES
000206:                                                                                                  #  MOD 1 BY KERNAN                               UTILITYM REV 17 11/18/67
000207:                                                                                                  #  MOD 2 BY SCHULENBERG    (REMOVE RELINT)    SKIPPER REV 4 2/28/68
000208:
000209:                                                                                                  #  THIS ROUTINE IS USEFULL FOR TRANSFERING N CONSECUTIVE ERASABLE OR FIXED QUANTITIES TO SOME OTHER N
000210:                                                                                                  #  CONSECUTIVE ERASABLE LOCATIONS.  IF BOTH BLOCKS OF DATA ARE IN SWITCHABLE EBANKS, THEY MUST BE IN THE SAME ONE.
000211:
000212:                                                                                                  #  GENTRAN IS CALLABLE IN A JOB AS WELL AS A RUPT.  THE CALLING SEQUENCE IS:
000213:                                                                                                  #        I       CA      N-1             # OF QUANTITIES MINUS ONE.
000214:                                                                                                  #        I +1    TC      GENTRAN         IN FIXED-FIXED.
000215:                                                                                                  #        I +2    ADRES   L               STARTING ADRES OF DATA TO BE MOVED.
000216:                                                                                                  #        I +3    ADRES   M               STARTING ADRES OF DUPLICATION BLOCK.
000217:                                                                                                  #        I +4                            RETURNS HERE.
000218:
000219:                                                                                                  #  GENTRAN TAKES 25 MCT'S (300 MICROSECONDS) PER ITEM + 5 MCT'S (60 MICS) FOR ENTERING AND EXITING.
000220:                                                                                                  #  A, L AND ITEMP1 ARE NOT PRESERVED.
000221:
000222:    5475                                           BLOCK    02
000223:    4000                                           SETLOC   FFTAG4
000224:    4000                                           BANK
000225:
000226:    5475     0061                                  EBANK=   ITEMP1
000227:
000228:    5475                                           COUNT*   $$/TRAN
000229:
000230:    5475           00004        GENTRAN            INHINT
000231:    5476           54061                           TS       ITEMP1                                #  SAVE N-1.
000232:    5477           50002                           INDEX    Q                                     #  C(Q) = ADRES L.
000233:    5500           60000                           AD       0                                     #  ADRES (L + N - 1).
000234:    5501           50000                           INDEX    A
000235:    5502           30000                           CA       0                                     #  C(ABOVE).
000236:    5503           54001                           TS       L                                     #  SAVE DATA.
000237:    5504           30061                           CA       ITEMP1
000238:    5505           50002                           INDEX    Q
000239:    5506           60001                           AD       1                                     #  ADRES (M + N - 1).
000240:    5507           50000                           INDEX    A
000241:    5510           22000                           LXCH     0                                     #  STUFF IT.
000242:    5511           10061                           CCS      ITEMP1                                #  LOOP UNTIL N-1 = 0.
000243:    5512           15476                           TCF      GENTRAN    +1
000244:    5513           16710                           TCF      Q+2                                   #  RETURN TO CALLER.
000245:


000247:                                                                                                  #  B5OFF         ZERO BIT 5 OF EXTVBACT, WHICH IS SET BY TESTXACT.
000248:                                                                                                  #  MAY BE USED AS NEEDED BY ANY EXTENDED VERB WHICH HAS DONE TESTXACT
000249:
000250:    5514                                           COUNT*   $$/EXTVB
000251:
000252:    5514           44706        B5OFF              CS       BIT5
000253:    5515           71044                           MASK     EXTVBACT
000254:    5516           55044                           TS       EXTVBACT
000255:    5517           05112                           TC       ENDOFJOB
000256:


000258:                                                                                                  #  SUBROUTINES TO TURNOFF AND TURN ON TRACKER FAIL LIGHT.
000259:
000260:    5520           00004        TRFAILOF           INHINT
000261:    5521           47704                           CS       OCT40200                              #  TURN OFF TRACKER LIGHT
000262:    5522           71036                           MASK     DSPTAB     +11D
000263:    5523           64674                           AD       BIT15
000264:    5524           55036                           TS       DSPTAB     +11D
000265:    5525           41331                           CS       OPTMODES                              #  TO INSURE THAT OCDU FAIL WILL GO ON
000266:    5526           74704                           MASK     BIT7                                  #  AGAIN IF IT WAS ON IN ADDITION TO
000267:    5527           27331                           ADS      OPTMODES                              #  TRACKER FAIL.
000268:
000269:    5530           00003        REQ                RELINT
000270:    5531           00002                           TC       Q
000271:
000272:    5532           00004        TRFAILON           INHINT
000273:    5533           41036                           CS       DSPTAB     +11D                       #  TURN ON
000274:    5534           77704                           MASK     OCT40200
000275:    5535           27036                           ADS      DSPTAB     +11D
000276:    5536           15530                           TCF      REQ
000277:
000278:
000279:
000280:

End of include-file SERVICE_ROUTINES.agc.  Parent file is MAIN.agc


