
Source Code


000002:                                                                                                  #  Copyright:    Public domain.
000003:                                                                                                  #  Filename:     SERVICE_ROUTINES.agc
000004:                                                                                                  #  Purpose:      Part of the source code for Colossus, build 249.
000005:                                                                                                  #                It is part of the source code for the Command Module's (CM)
000006:                                                                                                  #                Apollo Guidance Computer (AGC), possibly for Apollo 8 and 9.
000007:                                                                                                  #  Assembler:    yaYUL
000008:                                                                                                  #  Reference:    Starts on p. 1475 of 1701.pdf.
000009:                                                                                                  #  Contact:      Ron Burkey <info@sandroid.org>.
000010:                                                                                                  #  Website:      www.ibiblio.org/apollo.
000011:                                                                                                  #  Mod history:  08/30/04 RSB.   Adapted from corresponding Luminary131 file.
000012:
000013:                                                                                                  #  The contents of the "Colossus249" files, in general, are transcribed
000014:                                                                                                  #  from a scanned document obtained from MIT's website,
000015:                                                                                                  #  http://hrst.mit.edu/hrs/apollo/public/archive/1701.pdf.  Notations on this
000016:                                                                                                  #  document read, in part:
000017:
000018:                                                                                                  #        Assemble revision 249 of AGC program Colossus by NASA
000019:                                                                                                  #        2021111-041.  October 28, 1968.
000020:
000021:                                                                                                  #        This AGC program shall also be referred to as
000022:                                                                                                  #                                Colossus 1A
000023:
000024:                                                                                                  #        Prepared by
000025:                                                                                                  #                        Massachusetts Institute of Technology
000026:                                                                                                  #                        75 Cambridge Parkway
000027:                                                                                                  #                        Cambridge, Massachusetts
000028:                                                                                                  #        under NASA contract NAS 9-4065.
000029:
000030:                                                                                                  #  Refer directly to the online document mentioned above for further information.
000031:                                                                                                  #  Please report any errors (relative to 1701.pdf) to info@sandroid.org.
000032:
000033:                                                                                                  #  In some cases, where the source code for Luminary 131 overlaps that of
000034:                                                                                                  #  Colossus 249, this code is instead copied from the corresponding Luminary 131
000035:                                                                                                  #  source file, and then is proofed to incorporate any changes.
000036:
000037:                                                                                                  #  Page 1475
000038:    7717                                           BLOCK    3
000039:    6000                                           SETLOC   FFTAG6
000040:    6000                                           BANK
000041:    7717                                           COUNT    03/FLAG
000042:
000043:    7717           54001        UPENT2             TS       L                                     #  WHICH FLAGWORD IS IT
000044:    7720           74716                           MASK     OCT7
000045:    7721           56001                           XCH      L                                     #  SAVE IN L FOR INDEXING
000046:
000047:    7722           75630                           MASK     OCT77770                              #  OBTAIN THE BIT INFORMATION
000048:    7723           00004                           INHINT                                         #  PREVENT INTERRUPTS
000049:    7724           54061                           TS       ITEMP1                                #  STORE THE BIT INFORMATION TEMPORARILY
000050:
000051:    7725           50001                           NDX      L
000052:    7726           40074                           CS       FLAGWRD0
000053:    7727           70061                           MASK     ITEMP1
000054:    7730           50001                           NDX      L
000055:    7731           26074                           ADS      FLAGWRD0
000056:    7732           00003                           RELINT                                         #  RELEASE INTERRUPT INHIBIT
000057:
000058:    7733           24002                           INCR     Q                                     #  OBTAIN THE CORRECT RETURN ADDRESS
000059:    7734           00002                           TC       Q                                     #  RETURN
000060:
000061:    7735           54001        DOWNENT2           TS       L                                     #  WHICH FLAGWORD IS IT
000062:    7736           74716                           MASK     OCT7
000063:    7737           56001                           XCH      L                                     #  SAVE IN L FOR INDEXING
000064:
000065:    7740           75630                           MASK     OCT77770                              #  OBTAIN THE BIT INFORMATION
000066:    7741           40000                           COM                                            #  START TO PROCESS THE INFORMATION
000067:
000068:    7742           00004                           INHINT                                         #  PREVENT INTERRUPTS
000069:    7743           50001                           NDX      L
000070:    7744           70074                           MASK     FLAGWRD0
000071:    7745           50001                           NDX      L
000072:    7746           54074                           TS       FLAGWRD0
000073:    7747           00003                           RELINT                                         #  RELEASE INTERRUPT INHIBIT
000074:
000075:    7750           24002                           INCR     Q                                     #  OBTAIN THE CORRECT RETURN ADDRESS
000076:    7751           00002                           TC       Q
000077:
000078:    7752     4716               OCT7               EQUALS   SEVEN
000079: 10,3671                                           BANK     10
000080:
000081:                                                                                                  #  Page 1476
000082:                                                                                                  #  UPFLAG AND DOWNFLAG ARE ENTIRELY GENERAL FLAG SETTING AND CLEARING SUBROUTINES.  USING THEM, WHETHER OR
000083:                                                                                                  #  NOT IN INTERRUPT, ONE MAY SET OR CLEAR ANY SINGLE, NAMED BIT IN ANY ERASABLE REGISTER, SUBJECT OF COURSE TO
000084:                                                                                                  #  EBANK SETTING.  A "NAMED" BIT, AS THE WORD IS USED HERE, IS ANY BIT WITH A NAME FORMALLY ASSIGNED BY THE YUL
000085:                                                                                                  #  ASSEMBLER.
000086:
000087:                                                                                                  #  AT PRESENT THE ONLY NAMED BITS ARE THOSE IN THE FLAGWORDS.  ASSEMBLER CHANGES WILL MAKE IT POSSIBLE TO
000088:                                                                                                  #  NAME ANY BIT IN ERASABLE MEMORY.
000089:
000090:                                                                                                  #  CALLING SEQUENCES ARE AS FOLLOWS --
000091:                                                                                                  #                TC      UPFLAG                  TC      DOWNFLAG
000092:                                                                                                  #                ADRES   NAME OF FLAG            ADRES   NAME OF FLAG
000093:
000094:                                                                                                  #  RETURN IS TO THE LOCATION FOLLOWING THE "ADRES" ABOUT .58 MS AFTER THE "TC".
000095:                                                                                                  #  UPON RETURN A CONTAINS THE CURRENT FLAGWRD SETTING.
000096:
000097:    5435                                           BLOCK    02
000098:    4000                                           SETLOC   FFTAG1
000099:    4000                                           BANK
000100:    5435                                           COUNT*   $$/FLAG
000101:
000102:    5435           30002        UPFLAG             CA       Q
000103:    5436           05453                           TC       DEBIT
000104:    5437           40000                           COM                                            #  +(15 - BIT)
000105:    5440           00006                           EXTEND
000106:    5441           04001                           ROR      LCHAN                                 #  SET BIT
000107:    5442           50061        COMFLAG            INDEX    ITEMP1
000108:    5443           54074                           TS       FLAGWRD0
000109:    5444           22063                           LXCH     ITEMP3
000110:    5445           00003                           RELINT
000111:    5446           00001                           TC       L
000112:
000113:    5447           30002        DOWNFLAG           CA       Q
000114:    5450           05453                           TC       DEBIT
000115:    5451           70001                           MASK     L                                     #  RESET BIT
000116:    5452           15442                           TCF      COMFLAG
000117:
000118:    5453           64712        DEBIT              AD       ONE                                   #  CET DE BITS
000119:    5454           00004                           INHINT
000120:    5455           54063                           TS       ITEMP3
000121:    5456           34721                           CA       LOW4                                  #  DEC15
000122:    5457           54061                           TS       ITEMP1
000123:    5460           50063                           INDEX    ITEMP3
000124:    5461           27777                           CA       0          -1                         #  ADRES
000125:    5462           54001                           TS       L
000126:    5463           34714                           CA       ZERO
000127:                                                                                                  #  Page 1477
000128:    5464           00006                           EXTEND
000129:    5465           10061                           DV       ITEMP1                                #  A = FLAGWRD, L = (15 - BIT)
000130:    5466           52062                           DXCH     ITEMP1
000131:    5467           50061                           INDEX    ITEMP1
000132:    5470           30074                           CA       FLAGWRD0
000133:    5471           54001                           TS       L                                     #  CURRENT STATE
000134:    5472           50062                           INDEX    ITEMP2
000135:    5473           44674                           CS       BIT15                                 #  -(15 - BIT)
000136:    5474           00002                           TC       Q
000137:
000138:                                                                                                  #  Page 1478
000139:                                                                                                  #  DELAYJOB -- A GENERAL ROUTINE TO DELAY A JOB A SPECIFIC AMOUNT OF TIME BEFORE PICKING UP AGAIN.
000140:
000141:                                                                                                  #  ENTRANCE REQUIREMENTS ...
000142:                                                                                                  #                CAF     DT              # DELAY JOB FOR DT CENTISECS
000143:                                                                                                  #                TC      BANKCALL
000144:                                                                                                  #                CADR    DELAYJOB
000145:
000146: 06,3651                                           BANK     06
000147: 00,2000                                           SETLOC   DLAYJOB
000148: 00,2000                                           BANK
000149:
000150:                                                                                                  #  THIS MUST REMAIN IN BANK 0 ****************************************
000151:
000152: 00,3732                                           COUNT    00/DELAY
000153:
000154: 00,3732           00004        DELAYJOB           INHINT
000155: 00,3733           54002                           TS       Q                                     #  STORE DELAY DT IN Q FOR DLY -1 IN
000156: 00,3734           36214                           CAF      DELAYNUM                              #  WAITLIST
000157: 00,3735           54070        DELLOOP            TS       RUPTREG1
000158: 00,3736           50000                           INDEX    A
000159: 00,3737           31141                           CA       DELAYLOC                              #  IS THIS DELAYLOC AVAILABLE
000160: 00,3740           00006                           EXTEND
000161: 00,3741           13746                           BZF      OK2DELAY                              #  YES
000162:
000163: 00,3742           10070                           CCS      RUPTREG1                              #  NO, TRY NEXT DELAYLOC
000164: 00,3743           13735                           TCF      DELLOOP
000165:
000166: 00,3744           05604                           TC       BAILOUT                               #  NO AVAILABLE LOCS.
000167: 00,3745           01104                           OCT      1104
000168:
000169: 00,3746           33766        OK2DELAY           CA       TCSLEEP                               #  SET WAITLIST IMMEDIATE RETURN
000170: 00,3747           54061                           TS       WAITEXIT
000171:
000172: 00,3750           30004                           CA       FBANK
000173: 00,3751           60070                           AD       RUPTREG1                              #  STORE BBANK FOR TASK CALL
000174: 00,3752           54001                           TS       L
000175:
000176: 00,3753           33767                           CAF      WAKECAD                               #  STORE CADR FOR TASK CALL
000177: 00,3754           15146                           TCF      DLY2       -1                         #  DLY IS IN WAITLIST ROUTINE
000178:
000179: 00,3755           04604        TCGETCAD           TC       MAKECADR                              #  GET CALLER'S FCADR
000180:
000181: 00,3756           50070                           INDEX    RUPTREG1
000182: 00,3757           55141                           TS       DELAYLOC                              #  SAVE DELAY CADRS
000183:
000184: 00,3760           05070                           TC       JOBSLEEP
000185:
000186: 00,3761           34714        WAKER              CAF      ZERO
000187: 00,3762           50006                           INDEX    BBANK
000188: 00,3763           57141                           XCH      DELAYLOC                              #  MAKE DELAYLOC AVAILABLE
000189:                                                                                                  #  Page 1479
000190: 00,3764           05074                           TC       JOBWAKE
000191:
000192: 00,3765           05213                           TC       TASKOVER
000193:
000194: 00,3766           03753        TCSLEEP            GENADR   TCGETCAD   -2
000195: 00,3767           03761        WAKECAD            GENADR   WAKER
000196:
000197:                                                                                                  #  Page 1480
000198:                                                                                                  #  GENTRAN, A BLOCK TRANSFER ROUTINE
000199:                                                                                                  #  WRITTEN BY D. EYLES
000200:                                                                                                  #  MOD 1 BY KERNAN                               UTILITYM REV 17 11/18/67
000201:                                                                                                  #  MOD 2 BY SCHULENBERG -- (REMOVE RELINT) -- SKIPPER REV 4 2/28/68
000202:
000203:                                                                                                  #  THIS ROUTINE IS USEFUL FOR TRANSFERRING N CONSECUTIVE ERASABLE OR FIXED QUANTITIES TO SOME OTHER N
000204:                                                                                                  #  CONSECUTIVE ERASABLE LOCATIONS.  IF BOTH BLOCKS OF DATA ARE IN SWITCHABLE EBANKS, THEY MUST BE IN THE SAME ONE.
000205:
000206:                                                                                                  #  GENTRAN IS CALLABLE IN A JOB AS WELL AS A RUPT.  THE CALLING SEQUENCE IS:
000207:                                                                                                  #        I       CA      N-1             # NUMBER OF QUANTITIES MINUS ONE.
000208:                                                                                                  #        I +1    TC      GENTRAN         # IN FIXED-FIXED.
000209:                                                                                                  #        I +2    ADRES   L               # STARTING ADRES OF DATA TO BE MOVED.
000210:                                                                                                  #        I +3    ADRES   M               # STARTING ADRES OF DUPLICATION BLOCK.
000211:                                                                                                  #        I +4                            # RETURNS HERE.
000212:
000213:                                                                                                  #  GENTRAN TAKES 25 MCT'S (300 MICROSECONDS) PER ITEM + 5 MCT'S (60 MICS) FOR ENTERING AND EXITING.
000214:                                                                                                  #  A, L, AND ITEMP1 ARE NOT PRESERVED.
000215:
000216:    5475                                           BLOCK    02
000217:    4000                                           SETLOC   FFTAG4
000218:    4000                                           BANK
000219:
000220:    5475     0061                                  EBANK=   ITEMP1
000221:
000222:    5475                                           COUNT*   $$/TRAN
000223:
000224:    5475           00004        GENTRAN            INHINT
000225:    5476           54061                           TS       ITEMP1                                #  SAVE N-1
000226:    5477           50002                           INDEX    Q                                     #  C(Q) = ADRES L.
000227:    5500           60000                           AD       0                                     #  ADRES (L + N - 1).
000228:    5501           50000                           INDEX    A
000229:    5502           30000                           CA       0                                     #  C(ABOVE).
000230:    5503           54001                           TS       L                                     #  SAVE DATA.
000231:    5504           30061                           CA       ITEMP1
000232:    5505           50002                           INDEX    Q
000233:    5506           60001                           AD       1                                     #  ADRES (M + N - 1).
000234:    5507           50000                           INDEX    A
000235:    5510           22000                           LXCH     0                                     #  STUFF IT.
000236:    5511           10061                           CCS      ITEMP1                                #  LOOP UNTIL N-1 = 0.
000237:    5512           15476                           TCF      GENTRAN    +1
000238:    5513           16710                           TCF      Q+2                                   #  RETURN TO CALLER.
000239:
000240:                                                                                                  #  Page 1481
000241:                                                                                                  #  B5OFF         ZERO BIT 5 OF EXTVBACK, WHICH IS SET BY TESTXACT.
000242:                                                                                                  #  MAY BE USED AS NEEDED BY ANY EXTENDED VERB WHICH HAS DONE TESTXACT
000243:
000244:    5514                                           COUNT*   $$/EXTVB
000245:
000246:    5514           44706        B5OFF              CS       BIT5
000247:    5515           71044                           MASK     EXTVBACT
000248:    5516           55044                           TS       EXTVBACT
000249:    5517           05112                           TC       ENDOFJOB
000250:
000251:                                                                                                  #  Page 1482
000252:                                                                                                  #  SUBROUTINES TO TURNOFF AND TURN ON TRACKER FAIL LIGHT.
000253:
000254:    5520           00004        TRFAILOF           INHINT
000255:    5521           47704                           CS       OCT40200                              #  TURN OFF TRACKER LIGHT
000256:    5522           71036                           MASK     DSPTAB     +11D
000257:    5523           64674                           AD       BIT15
000258:    5524           55036                           TS       DSPTAB     +11D
000259:    5525           41331                           CS       OPTMODES                              #  TO INSURE THAT OCDU FAIL WILL GO ON
000260:    5526           74704                           MASK     BIT7                                  #  AGAIN IF IT WAS ON IN ADDITION TO
000261:    5527           27331                           ADS      OPTMODES                              #  TRACKER FAIL.
000262:
000263:    5530           00003        REQ                RELINT
000264:    5531           00002                           TC       Q
000265:
000266:    5532           00004        TRFAILON           INHINT
000267:    5533           41036                           CS       DSPTAB     +11D                       #  TURN ON
000268:    5534           77704                           MASK     OCT40200
000269:    5535           27036                           ADS      DSPTAB     +11D
000270:    5536           15530                           TCF      REQ
000271:
000272:
000273:
000274:

End of include-file SERVICE_ROUTINES.agc.  Parent file is MAIN.agc


