
Source Code


000002:                                                                                                  #  Copyright:    Public domain.
000003:                                                                                                  #  Filename:     Template.agc
000004:                                                                                                  #  Purpose:      Part of the source code for Colossus, build 249.
000005:                                                                                                  #                It is part of the source code for the Command Module's (CM)
000006:                                                                                                  #                Apollo Guidance Computer (AGC), possibly for Apollo 8 and 9.
000007:                                                                                                  #  Assembler:    yaYUL
000008:                                                                                                  #  Reference:    pp. 777-794 of 1701.pdf.
000009:                                                                                                  #  Contact:      Ron Burkey <info@sandroid.org>.
000010:                                                                                                  #  Website:      www.ibiblio.org/apollo.
000011:                                                                                                  #  Mod history:  08/19/04 RSB.   Began transcribing.
000012:
000013:                                                                                                  #  The contents of the "Colossus249" files, in general, are transcribed
000014:                                                                                                  #  from a scanned document obtained from MIT's website,
000015:                                                                                                  #  http://hrst.mit.edu/hrs/apollo/public/archive/1701.pdf.  Notations on this
000016:                                                                                                  #  document read, in part:
000017:
000018:                                                                                                  #        Assemble revision 249 of AGC program Colossus by NASA
000019:                                                                                                  #        2021111-041.  October 28, 1968.
000020:
000021:                                                                                                  #        This AGC program shall also be referred to as
000022:                                                                                                  #                                Colossus 1A
000023:
000024:                                                                                                  #        Prepared by
000025:                                                                                                  #                        Massachusetts Institute of Technology
000026:                                                                                                  #                        75 Cambridge Parkway
000027:                                                                                                  #                        Cambridge, Massachusetts
000028:                                                                                                  #        under NASA contract NAS 9-4065.
000029:
000030:                                                                                                  #  Refer directly to the online document mentioned above for further information.
000031:                                                                                                  #  Please report any errors (relative to 1701.pdf) to info@sandroid.org.
000032:
000033:                                                                                                  #  In some cases, where the source code for Luminary 131 overlaps that of
000034:                                                                                                  #  Colossus 249, this code is instead copied from the corresponding Luminary 131
000035:                                                                                                  #  source file, and then is proofed to incorporate any changes.
000036:


000038:                                                                                                  #  SERVICER207
000039:
000040:                                                                                                  #  PROGRAM NAME: PREREAD, READACCS, SERVICER, AVERAGE G.
000041:                                                                                                  #  MOD NO. 00 BY M. HAMILTON     DEC. 12, 1966
000042:
000043:                                                                                                  #  FUNCTIONAL DESCRIPTION
000044:
000045:                                                                                                  #  THE ROUTINES DESCRIBED BELOW ARE USED TO CALCULATE VALUES OF RN, VN, AND GDT/2 DURING ACCELERATED FLIGHT.
000046:                                                                                                  #  THE SEVERAL ROUTINES COMPRISE A PACKAGE AND ARE NOT MEANT TO BE USED AS SEPARATE SUBROUTINES.
000047:
000048:                                                                                                  #  GENERAL REFERENCES TO SERVICER OR AVERAGE G ARE UNDERSTOOD TO REFER TO THE ENTIRE SET OF ROUTINES INCLUDING
000049:                                                                                                  #  RRADACCS, SERVICER, AVERAGE G, INTEREAD, SMOOTHER, AND ANY ADDITIONAL ROUTINES ATTACHED AT AVGEXIT (SEE BELOW).
000050:
000051:                                                                                                  #  PROGRAMS INITIATING SERVICER ARE REQUIRED TO MAKE A WAITLIST CALL FOR PREREAD (OR, IF LIFTOFF, FOR BIBIBIAS)
000052:                                                                                                  #  AT 2 SECONDS BEFORE THE FIRST AVERAGE G UPDATE IN ORDER TO INITIALIZE THE SEQUENCE, WHICH WILL RECUR EVERY
000053:                                                                                                  #  2 SECONDS FROM THAT TIME ON AS LONG AS AVEGFLAG REMAINS SET.
000054:
000055:                                                                                                  #  THE USE OF ERASABLE AVGEXIT ALLOWS VARIOUS ROUTINES TO BE PERFORMED AS PART OF THE NORMAL CYCLE (SEE
000056:                                                                                                  #  EXPLANATION OF AVGEXIT BELOW).
000057:
000058:                                                                                                  #  DESCRIPTIONS OF INDIVIDUAL ROUTINES FOLLOW.
000059:
000060:                                                                                                  #        PREREAD
000061:
000062:                                                                                                  #                PREVIOUSLY EXTRAPOLATED VALUES COPIED FROM RN1, VN1, AND PIPTIME1 INTO RN, VN, AND PIPTIME.
000063:                                                                                                  #                LASTBIAS JOB SCHEDULED.
000064:                                                                                                  #                PIPS READ AND CLEARED VIA PIPASR SUBROUTINE.
000065:                                                                                                  #                AVERAGE G FLAG SET ON.
000066:                                                                                                  #                DRIFT FLAG SET OFF.
000067:                                                                                                  #                V37 FLAG SET ON.
000068:                                                                                                  #                INITIALIZATION OF       1) THRUST MONITOR (DVMON) -- DVCNTR SET TO ONE.
000069:                                                                                                  #                                        2) TOTAL ACCUMULATED DELV VALUE (DVTOTAL) -- SET TO ZERO.
000070:                                                                                                  #                                        3) AXIS VECTOR (AXIS) -- SET TO (.5,0,0).
000071:                                                                                                  #                NORMLIZE JOB SCHEDULED.
000072:                                                                                                  #                READACCS TASH CALLED IN 2 SECONDS.
000073:
000074:                                                                                                  #        NORMLIZE
000075:
000076:                                                                                                  #                GDT/2 INITIALIZED VIA CALCGRAV ROUTINE.
000077:
000078:                                                                                                  #        READACCS
000079:
000080:                                                                                                  #                IF ONMON FLAG SET QUIKREAD ROUTINE IS PERFORMED BEFORE PIPASR ZEROS THE PIPA REGISTERS, AND THE 1/2 SEC
000081:                                                                                                  #                ONMONITOR LOOP IS INITIATED TO PROVIDE DOWNLINK INFORMATION DURING ENTRY.
000082:                                                                                                  #                PIPS READ AND CLEARED BY PIPASR SUBROUTINE.
000083:                                                                                                  #                IF CM/DSTBY IS ON, ENTRY VARIABLES INITIALIZED AND SETJTAG TASK CALLED.


000085:
000086:                                                                                                  #        SERVICER207
000087:
000088:                                                                                                  #                IF AVERAGEG FLAG ON     READACCS CALLED TO RECYCLE IN 2 SECONDS.
000089:                                                                                                  #                IF AVERAGEG FLAG OFF    AVERAGE G EXIT (AVGEXIT) SET TO 2CADR AVGEND FOR FINAL PASS.
000090:                                                                                                  #                SERVICER JOB SCHEDULED.
000091:                                                                                                  #                TEST CONNECTOR OUTBIT TURNED ON.
000092:
000093:                                                                                                  #        ONMNITOR
000094:
000095:                                                                                                  #                A SEQUENCE OF THESE PASSES THROUGH QUICREAD FOLLOWING A CALL TO READACCS WITH ONMONFLG SET AT 1/2
000096:                                                                                                  #                SEC INTERVALS.  INTERVALS ARE COUNTED OUT BY PIPCTR, INITIALIZED AT 3 BY READACCS.
000097:
000098:                                                                                                  #        QUIKREAD
000099:
000100:                                                                                                  #                READS CURRENT PIPS INTO X,Y,ZPIPBUF.  READS OLD X,Y,ZPIPBUF INTO X,Y,ZOLDBUF.  VALUES ARE SENT TO
000101:                                                                                                  #                DOWNLIST DURING ENTRY.
000102:
000103:                                                                                                  #        SERVICER
000104:
000105:                                                                                                  #                DELV VALUES CHECKED TO DETECT RUNAWAY PIP:
000106:
000107:                                                                                                  #                        IF BAD PIP      1) ALARM SENT.
000108:                                                                                                  #                                        2) COMPENSATION, DVTOTAL ACCUMULATION, AND DVMON BYPASSED.  CONTROL
000109:                                                                                                  #                                           TRANSFERRED TO AVERAGEG.
000110:
000111:                                                                                                  #                PIPS COMPENSATED VIA 1/PIPA SUBROUTINE.
000112:                                                                                                  #                DVTOTAL INCREMENTED BY ABSOLUTE VALUE OF DELV.
000113:                                                                                                  #                THRUST MONITOR (DVMON) PERFORMED UNLESS IDLE FLAG IS ON.
000114:                                                                                                  #                CONTROL TRANSFERRED TO AVERAGE Q.
000115:
000116:                                                                                                  #                DVMON
000117:
000118:                                                                                                  #                        THRESHOLD VALUD (PLACED IN DVTHRUSH BY USER) CHECKED AGAINST ABSOLUTE VALUE OF DELV TO CHECK
000119:                                                                                                  #                        THRUST LEVEL.
000120:
000121:                                                                                                  #                                IF THRUST       1) ULLAGE OFF ROUTINE PERFORMED.
000122:                                                                                                  #                                                2) STEERING FLAG TURNED ON AT FIRST DETECTION OF THRUST
000123:                                                                                                  #                                                3) CONTROL TRANSFERRED TO AVERAGE G.
000124:                                                                                                  #                                IF NO THRUST    1) ON FIRST PASS THROUGH MONITOR, CONTROL TRANSFERRED TO AVERAGE G.
000125:                                                                                                  #                                                2) ON SUBSEQUENT PASSES, CONTROL TRANSFERRED TO ENGINE FAIL ROUTINE IF THRUST
000126:                                                                                                  #                                                   HAS FAILED FOR 3 CONSECUTIVE PASSES.
000127:                                                                                                  #                ENGINE FAIL
000128:
000129:                                                                                                  #                        ENGFAIL1 TASK CALLED IN 2.5 SECONDS.  THIS WILL RETURN CONTROL TO TIG-5 SO THAT THE IGNITION
000130:                                                                                                  #                                SEQUENCE MAY BE REPEATED.
000131:                                                                                                  #                        ENGINOF3 PERFORMED.
000132:                                                                                                  #                        DAP SET UP FOR RCS.
000133:                                                                                                  #
000134:                                                                                                  #        AVERAGE G


000136:                                                                                                  #                RN1, VN1, GDT1/2 CALCULATED VIA CALCRVG ROUTINE BY UPDATING RN, VN WITH DELV AND AN AVERAGED VALUE
000137:                                                                                                  #                        OF GDT/2
000138:                                                                                                  #                RN1, VN1, GDT1/2, PIPTIME1 COPIED INTO RN, VN, GDT/2, PIPTIME FOR RESTART PROTECTION.
000139:                                                                                                  #                CONTROL TRANSFERRED TO ADDRESS SPECIFIED BY USER (OR BY READACCS FOR LAST PASS) IN AVEGEXIT.
000140:                                                                                                  #                LAST PASS (AVGEND)      1) FREE FALL GYRO COMPENSATION SET UP.
000141:                                                                                                  #                                        2) DRIFT FLAG TURNED ON.
000142:                                                                                                  #                                        3) STATE VECTOR TRANSFERRED VIA AVETOMID ROUTINE.
000143:                                                                                                  #                                        4) ONMONITOR FLAG RESET.
000144:                                                                                                  #                                        5) V37 FLAG RESET.
000145:                                                                                                  #                                        6) TEST CONNECTOR OUTBIT RESET.
000146:                                                                                                  #                                        7) CONTROL TRANSFERRED TO CANV37 TO CONTINUE MM CHANGE ROUTINE (R00).
000147:
000148:                                                                                                  #  CALLING SEQUENCE
000149:
000150:                                                                                                  #        PREREAD ENTERED DIRECTLY FROM TIG-30 VIA POSTJUMP.
000151:                                                                                                  #        READACCS CALLED AS WAITLIST TASK.
000152:
000153:                                                                                                  #  SUBROUTINES CALLED
000154:
000155:                                                                                                  #        UTILITY ROUTINES:  PHASCHNG FLAGUP FLAGDOWN NOVAC FINDVAC WAITLIST ALARM NEWPHASE 2PHSCHNG
000156:
000157:                                                                                                  #        OTHER:  PIPASR 1/PIPA CALCGRAV CALCRVG AVETOMID
000158:
000159:                                                                                                  #  NORMAL EXIT MODES
000160:
000161:                                                                                                  #        ENDOFJOB        TASKOVER        CANV37
000162:
000163:                                                                                                  #        AVGEXIT:        THIS IS A DOUBLE PRECISION ERASABLE LOCATION BY WHICH CONTROL IS TRANSFERRED AT THE END
000164:                                                                                                  #                                OF EACH CYCLE OF AVERAGE G.
000165:                                                                                                  #                        THE 2CADR OF A ROUTINE TO BE PERFORMED AT THAT TIME (E.G., STEERING EQUATIONS TO BE REPORTED
000166:                                                                                                  #                                AT 2 SECOND INTERVALS) MAY BE SET BY THE USER INTO AVGEXIT.
000167:                                                                                                  #                        ALL SUCH ROUTINES SHOULD RETURN TO SERVEXIT, WHICH IS THE NORMAL EXIT FROM AVERAGE G.
000168:
000169:                                                                                                  #        SERVEXIT:       DOES A PHASE CHANGE FOR RESTART PROTECTION AND GOES TO ENDOFJOB.
000170:                                                                                                  #                        THE 2CADR OF SERVEXIT IS SET INTO AVGEXIT BY THE USER F NO OTHER ROUTINE (SEE ABOVE).
000171:
000172:                                                                                                  #        AVGEND:         LAST PASS OF AVERAGE G EXITS HERE, BYPASSING SPECIAL ROUTINE (SEE ABOVE UNDER READACCS).
000173:                                                                                                  #                        FINAL EXIT IS TO CANV37.                                F AVERAGE G).
000174:
000175:                                                                                                  #  OUTPUT
000176:
000177:                                                                                                  #        DVTOTAL(2)      PIPTIME(2) XPIPBUF(2) YPIPBUF(2) ZPIPBUF(2)
000178:                                                                                                  #        RN(6)           REFERENCE COORD.        SCALED AT 2(+29) M/CS
000179:                                                                                                  #        VN(6)           REFERENCE COORD.        SCALED AT 2(+7) M/CS
000180:                                                                                                  #        GDT/2(6)        REFERENCE COORD.        SCALED AT 2(+7) M/CS
000181:                                                                                                  #        DELV(6)         STABLE MEMB. COORD.     SCALED AT 2(+14)*5.85*10(-4) M/CS (KPIP1 USED TO GET DV/2 AT 2(+7))


000183:                                                                                                  #        DELVREF(6)      REFERENCE COORD.        SCALED AT 2(+7) M/CS
000184:
000185:                                                                                                  #  INITIALIZATION
000186:
000187:                                                                                                  #        ONMONITOR FLAG SET BY ENTRY TO SHOW PIPBUF VALUES REQUIRED.
000188:                                                                                                  #        IDLE FLAG ON IF DVMON TO BE BYPASSED.
000189:                                                                                                  #        DVTHRUSH SET TO APPROPRIATE VALUE FOR DVMON.
000190:                                                                                                  #        AVGEXIT SET TO 2CADR OF ROUTINE, IF ANY, TO BE PERFORMED AFTER EACH CYCLE OF AVERAGE G.  IF NO ROUTINE
000191:                                                                                                  #                TO BE DONE, AVGEXIT SET TO SERVEXIT.
000192:                                                                                                  #        VALUES NEEDED
000193:                                                                                                  #                REFSMMAT
000194:                                                                                                  #                UNITW:  FULL UNIT VECTOR, IN REFERENCE COORD., OF EARTH'S ROTATIONAL VECTOR
000195:                                                                                                  #                RN1, VN1, PIPTIME1:  IN REFERENCE COORD., CONSISTENT WITH TIME OF EXECUTION OF PREREAD.
000196:
000197:                                                                                                  #  DEBRIS
000198:
000199:                                                                                                  #        CENTRALS        A, L, Q
000200:                                                                                                  #        OTHER           INTERNAL:  DVCNTR(1) PIPAGE(1) PIPCTR(1) AVGEXIT(2)
000201:                                                                                                  #                        EXTERNAL:  ITEMP1(1) ITEMP2(1) RUPTREG1(1) TEMX(1) TEMY(1) TEMZ(1)
000202:                                                                                                  #                        USEFUL DEBRIS
000203:                                                                                                  #                                RN1(0), VN1(0) GDT1/0 PIPTIME1(2?)
000204:                                                                                                  #                                        THESE LOCATIONS USED AS BUFFER STORAGE FOR NEWLY CALCULATED VALUES OF RN, VN, GDT/2,
000205:                                                                                                  #                                        AND PIPTIME DURING PERFORMANCE OF SERVICER ROUTINES.
000206:                                                                                                  #                                UNITR:  HALF UNIT VECTOR OF RN, REFERENCE COORD.
000207:                                                                                                  #                                RMAG SCALED AT 2(+58) IN 36D.
000208:                                                                                                  #                                RMAGSQ SCALED AT 2(+58) IN 34D.
000209:                                                                                                  #                                (RE/RMAG)SQ IN 32D
000210:
000211: 27,2633                                           BANK     27
000212: 37,2000                                           SETLOC   SERVICES
000213: 37,2000                                           BANK
000214:
000215: 37,2604  E7,1431                                  EBANK=   DVCNTR
000216:                                                                                                  #  ********************* PREREAD ***************************************
000217:
000218: 37,2604                                           COUNT    37/SERV
000219:
000220: 37,2604           34766        PREREAD            CAF      PRIO21                                #  CALLER MUST PROTECT PREREAD
000221: 37,2605           05027                           TC       NOVAC
000222: 37,2606  E3,1460                                  EBANK=   NBDX
000223: 37,2606           03636 14063                     2CADR    LASTBIAS                              #  DO LAST GYRO COMPENSATION IN FREE FALL
000224:
000225:                                                                                                  #  CALL-TO AND LASTBIAS ITSELF ARE NOT
000226:                                                                                                  #        PROTECTED. REREADAC SETS 1/PIPADT
000227:                                                                                                  #        TO 2.0 SECS IN CASE LASTBIAS LOST.
000228:                                                                                                  #        (REDUNDANT IF LASTBIAS IS AOK.)


000230: 37,2610           02625        REDO5.31           TC       PREREAD1
000231:
000232: 37,2611           37667                           CAF      PRIO32
000233: 37,2612           05042                           TC       FINDVAC                               #  SET UP NORMLIZE JOB REQUIRED PRIOR TO
000234: 37,2613  E7,1431                                  EBANK=   DVCNTR                                #  FIRST AVERAGE G PASS
000235: 37,2613           03141 76067                     2CADR    NORMLIZE
000236:
000237: 37,2615           34735                           CAF      2SECS
000238: 37,2616           05140                           TC       WAITLIST
000239: 37,2617  E6,1661                                  EBANK=   AOG
000240: 37,2617           02647 76066                     2CADR    READACCS
000241:
000242: 37,2621           44711                           CS       TWO
000243: 37,2622           04114                           TC       NEWPHASE
000244: 37,2623           00005                           OCT      5
000245:
000246: 37,2624           15213                           TCF      TASKOVER
000247: 37,2625           00006        PREREAD1           EXTEND
000248: 37,2626           22070                           QXCH     RUPTREG1
000249:
000250: 37,2627           03157                           TC       PIPASR                                #  CLEAR + READ PIPS LAST TIME IN FREE FALL
000251:
000252: 37,2630           34712                           CAF      ONE                                   #  SET UP PIPAGE FOR REREADAC IN CASE A
000253: 37,2631           55230                           TS       PIPAGE                                #        RESTART OCCURS BEFORE READACCS
000254:
000255: 37,2632           40075                           CS       FLAGWRD1                              #  SET AVEG FLAG
000256: 37,2633           74712                           MASK     BIT1
000257: 37,2634           26075                           ADS      FLAGWRD1
000258:
000259: 37,2635           34672                           CA       POSMAX
000260: 37,2636           70076                           MASK     FLAGWRD2
000261: 37,2637           54076                           TS       FLAGWRD2                              #  KNOCK DOWN DRIFT FLAG
000262:
000263: 37,2640           40103                           CS       FLAGWRD7                              #  SET V37 FLAG
000264: 37,2641           74705                           MASK     BIT6
000265: 37,2642           26103                           ADS      FLAGWRD7
000266:
000267: 37,2643           34714                           CAF      ZERO
000268: 37,2644           55425                           TS       DVTOTAL                               #  CLEAR DVTOTAL
000269: 37,2645           55426                           TS       DVTOTAL    +1
000270:
000271: 37,2646           00070                           TC       RUPTREG1
000272:


000274:                                                                                                  #  ********************* READACCS ***************************************
000275:
000276: 37,2647  E6,1661                                  EBANK=   AOG
000277: 37,2647           03157        READACCS           TC       PIPASR
000278:
000279: 37,2650           34715        PIPSDONE           CAF      FIVE
000280: 37,2651           54001                           TS       L
000281: 37,2652           40000                           COM
000282: 37,2653           52763                           DXCH     -PHASE5
000283:
000284: 37,2654           34712        REDO5.5            CAF      ONE                                   #  SHOW PIPS HAVE BEEN READ
000285: 37,2655           55230                           TS       PIPAGE
000286:
000287: 37,2656           34711                           CA       TWO                                   #  SET PIPCTR FOR ONMINTOR
000288: 37,2657           55227                           TS       PIPCTR                                #  AFTER ABOVE PHASCHNG
000289:
000290: 37,2660           40102                           CS       CM/FLAGS
000291: 37,2661           74711                           MASK     BIT2                                  #  CM/DSTBY
000292: 37,2662           10000                           CCS      A
000293: 37,2663           02736                           TC       CHEKAVEG
000294:
000295: 37,2664           41246                           CS       PIPTIME1   +1
000296: 37,2665           55065                           TS       TBASE6                                #  FOR RESTARTS
000297: 37,2666           00006                           EXTEND                                         #  CONTINUE FOR ENTRY DAP
000298: 37,2667           31662                           DCA      AOG
000299: 37,2670           53670                           DXCH     AOG/PIP
000300: 37,2671           31663                           CA       AMG
000301: 37,2672           57671                           XCH      AMG/PIP
000302: 37,2673           00006                           EXTEND
000303: 37,2674           31665                           DCA      ROLL/180
000304: 37,2675           53673                           DXCH     ROLL/PIP
000305: 37,2676           31666                           CA       BETA/180
000306: 37,2677           57674                           XCH      BETA/PIP
000307: 37,2700           30102                           CA       CM/FLAGS
000308: 37,2701           74677                           MASK     BIT12                                 #  CM/DAPARM 93D BIT12
000309: 37,2702           00006                           EXTEND                                         #  DURING ENTRY, WHEN RCS DAP IS INACTIVE,
000310: 37,2703           12721                           BZF      NOSAVPIP                              #  SAVE PIPAS EACH 0.5 SEC FOR TM.
000311:
000312: 37,2704           32771                           CA       0.5SEC
000313: 37,2705           05140                           TC       WAITLIST
000314: 37,2706  E6,1533                                  EBANK=   XPIPBUF
000315: 37,2706           02772 76066                     2CADR    QUIKREAD
000316:
000317:                                                                                                  #  NO NEED TO RESTART PROTECT THIS.
000318: 37,2710           31162                           CA       DELVX                                 #  SAVE PIPAS AS READ (BUT NOT COMPENSATED)
000319: 37,2711           57533                           XCH      XPIPBUF
000320: 37,2712           55536                           TS       XOLDBUF
000321:
000322: 37,2713           31164                           CA       DELVY
000323: 37,2714           57534                           XCH      YPIPBUF
000324: 37,2715           55537                           TS       YOLDBUF


000326: 37,2716           31166                           CA       DELVZ
000327: 37,2717           57535                           XCH      ZPIPBUF
000328: 37,2720           55540                           TS       ZOLDBUF
000329:
000330: 37,2721           34715        NOSAVPIP           CA       FIVE
000331: 37,2722           55725                           TS       CM/GYMDT
000332:
000333: 37,2723           33136                           CA       JTAGTIME                              #  ACTIVATE CM/RCS AFTER PIPUP TO GO
000334:                                                                                                  #  IN JTAGTIME +5 CS.
000335: 37,2724           05140                           TC       WAITLIST
000336: 37,2725  E6,1661                                  EBANK=   AOG
000337: 37,2725           03227 32066                     2CADR    SETJTAG
000338:
000339: 37,2727           46214                           CS       THREE                                 #  1.3SPOT FOR SETJTAG
000340: 37,2730           04114                           TC       NEWPHASE
000341: 37,2731           00001                           OCT      1
000342:
000343: 37,2732           34362                           CAF      OCT37
000344: 37,2733           54001                           TS       L
000345: 37,2734           40000                           COM
000346: 37,2735           52763                           DXCH     -PHASE5
000347:
000348: 37,2736           40075        CHEKAVEG           CS       FLAGWRD1
000349: 37,2737           74712                           MASK     BIT1
000350: 37,2740           10000                           CCS      A                                     #  IF AVEG FLAG DOWN SET FINAL EXIT AVEG
000351: 37,2741           02761                           TC       AVEGOUT
000352:
000353: 37,2742           34735                           CAF      2SECS
000354: 37,2743           05140                           TC       WAITLIST
000355: 37,2744  E6,1661                                  EBANK=   AOG
000356: 37,2744           02647 76066                     2CADR    READACCS
000357:
000358: 37,2746           34675        MAKESERV           CAF      PRIO20                                #  ESTABLISH SERVICER ROUTINE
000359: 37,2747           05042                           TC       FINDVAC
000360: 37,2750  E7,1431                                  EBANK=   DVCNTR
000361: 37,2750           03007 76067                     2CADR    SERVICER
000362:
000363: 37,2752           44710                           CS       FOUR                                  #  RESTART SERVICER AND READACCS
000364: 37,2753           04114                           TC       NEWPHASE
000365: 37,2754           00005                           OCT      5
000366:
000367: 37,2755           34702                           CAF      BIT9
000368: 37,2756           00006                           EXTEND
000369: 37,2757           05011                           WOR      DSALMOUT                              #  TURN TEST CONNECTOR OUTBIT ON
000370:
000371: 37,2760           15213                           TCF      TASKOVER                              #  END PREVIOUS READACCS WAITLIST TASK
000372:


000374: 37,2761           00006        AVEGOUT            EXTEND
000375: 37,2762           32766                           DCA      AVOUTCAD
000376: 37,2763           53223                           DXCH     AVGEXIT
000377: 37,2764           12746                           TCF      MAKESERV
000378:
000379: 37,2765  E7,1431                                  EBANK=   DVCNTR
000380: 37,2765           03070 76067  AVOUTCAD           2CADR    AVGEND
000381:


000383:                                                                                                  #  ROUTINE NAME: ONMNITOR
000384:                                                                                                  #  MOD 04 BY BAIRNSFATHER 30 APR 1968    REDO ONMNITOR TO SAVE PIPS EACH 0.5 SEC FOR TM,ENTRY.
000385:                                                                                                  #  MOD 03 BY FISHER DECEMBER 1967
000386:                                                                                                  #  MOD 02 BY RYE SEPT 1967
000387:                                                                                                  #  MOD 01 BY KOSMALA 23 MAR 1967
000388:                                                                                                  #  MOD 00 BY KOSMALA 27 FEB 1967
000389:
000390:                                                                                                  #  FUNCTIONAL DESCRIPTION
000391:
000392:                                                                                                  #        THE PURPOSE OF ONMONITOR IS TO PROVIDE 1/2 SEC. READING OF PIPAS FOR DOWNLIST DURING ENTRY.
000393:                                                                                                  #        X,Y,XPIPBUF CONTAIN PRESET VALUES X,Y,ZOLDBUF CONTAIN VALUES FROM PREVIOUS READING.
000394:
000395:                                                                                                  #  CALLING SEQUENCE
000396:
000397:                                                                                                  #        CALL AS WAITLIST TASK. TERMINATES ITSELF IN TASKOVER
000398:
000399:                                                                                                  #  INITIALIZATION
000400:
000401:                                                                                                  #        PIPCTR = 2 (FOR DT = 0.5 SEC)
000402:                                                                                                  #        X,Y,ZPIPBUF SET TO PREVIOUS PIPAX,Y,Z
000403:
000404:                                                                                                  #  OUTPUT
000405:
000406:                                                                                                  #        X,Y,ZPIPBUF, X,Y,ZOLDBUF
000407:
000408:                                                                                                  #  DEBRIS
000409:
000410:                                                                                                  #        X,Y,ZPIPBUF CONTAIN LAST PIPAX,Y,Z VALUES
000411:                                                                                                  #                X,Y,ZOLDBUF CONTAIN LAST-BUT-ONE PIPAX,Y,Z VALUES
000412:                                                                                                  #        RUPTREG1
000413:                                                                                                  #        PIPCTR
000414:
000415: 37,2767           55227        ONMNITOR           TS       PIPCTR
000416:
000417: 37,2770           05156                           TC       FIXDELAY                              #  WAIT
000418: 37,2771           00062        0.5SEC             DEC      50         B-14
000419:
000420: 37,2772           34711        QUIKREAD           CAF      TWO
000421: 37,2773           54070                           TS       RUPTREG1
000422: 37,2774           50000                           INDEX    A
000423: 37,2775           30037                           CA       PIPAX                                 #  SAVE ACTUAL PIPAS FOR TM.
000424: 37,2776           50070                           INDEX    RUPTREG1
000425: 37,2777           57533                           XCH      XPIPBUF                               #  UPDATE X,Y,ZPIPBUF
000426: 37,3000           50070                           INDEX    RUPTREG1
000427: 37,3001           55536                           TS       XOLDBUF                               #  AND X,Y,ZOLDBUF
000428: 37,3002           10070        CHKCTR             CCS      RUPTREG1
000429: 37,3003           12773                           TCF      QUIKREAD   +1                         #  LOOP AGAIN
000430: 37,3004           11227                           CCS      PIPCTR
000431: 37,3005           12767                           TCF      ONMNITOR
000432: 37,3006           05213                           TC       TASKOVER
000433:


000435:                                                                                                  #  ********************* SERVICER ***************************************
000436:
000437: 37,3007  E7,1431                                  EBANK=   DVCNTR
000438:
000439: 37,3007           34711        SERVICER           CAF      TWO
000440: 37,3010           00004                           INHINT
000441: 37,3011           54070        PIPCHECK           TS       RUPTREG1
000442:
000443: 37,3012           60000                           DOUBLE
000444: 37,3013           50000                           INDEX    A
000445: 37,3014           11162                           CCS      DELVX
000446: 37,3015           03017                           TC       +2
000447: 37,3016           03025                           TC       PIPLOOP
000448:
000449: 37,3017           63135                           AD       -MAXDELV                              #  DO PIPA-SATURATION TEST BEFORE
000450: 37,3020           00006                           EXTEND
000451: 37,3021           63025                           BZMF     PIPLOOP                               #  COMPENSATION.
000452:
000453: 37,3022           05537                           TC       ALARM
000454: 37,3023           00205                           OCT      00205                                 #  SATURATED-PIPA ALARM   ***CHANGE LATER
000455: 37,3024           03046                           TC       AVERAGEG
000456:
000457: 37,3025           10070        PIPLOOP            CCS      RUPTREG1
000458: 37,3026           13011                           TCF      PIPCHECK
000459:
000460: 37,3027           05301                           TC       PHASCHNG                              #  RESTART REREADAC + SERVICER
000461: 37,3030           16035                           OCT      16035
000462: 37,3031           20000                           OCT      20000
000463: 37,3032  E7,1431                                  EBANK=   DVCNTR
000464: 37,3032           03036 76067                     2CADR    DVTOTUP
000465:
000466: 37,3034           04555                           TC       BANKCALL                              #  PIPA COMPENSATION CALL
000467: 37,3035           15262                           CADR     1/PIPA
000468:
000469: 37,3036           06006        DVTOTUP            TC       INTPRET
000470: 37,3037           51575                           VLOAD    ABVAL                                 #  GET ABS VALUE OF DELV
000471: 37,3040           01163                                    DELV
000472: 37,3041           77405                           DMP      EXIT
000473: 37,3042           37354                                    KPIP1                                 #  SCALE AT 2(+7)
000474:
000475: 37,3043           00006                           EXTEND
000476: 37,3044           30155                           DCA      MPAC
000477: 37,3045           21426                           DAS      DVTOTAL                               #  ACCUMULATE DVTOTAL
000478: 37,3046           05301        AVERAGEG           TC       PHASCHNG
000479: 37,3047           10035                           OCT      10035
000480:
000481: 37,3050           06006                           TC       INTPRET
000482: 37,3051           77624                           CALL


000484: 37,3052           77323                                    CALCRVG
000485: 37,3053           77776                           EXIT
000486:
000487: 37,3054           05301                           TC       PHASCHNG
000488: 37,3055           10035                           OCT      10035
000489:
000490: 37,3056           34113                           CAF      OCT31                                 #  COPY RN1,VN1,GOT102,GOBL1/2,PIPTIME1
000491: 37,3057           05475                           TC       GENTRAN                               #  INTO RN, VN, GDT/12, GOBL/2,PIPTIME
000492: 37,3060           01231                           ADRES    RN1
000493: 37,3061           01170                           ADRES    RN
000494: 37,3062           00003                           RELINT                                         #  GENTRAN DOES AN INHINT
000495: 37,3063           05301                           TC       PHASCHNG
000496: 37,3064           10035                           OCT      10035
000497:
000498: 37,3065           00006                           EXTEND
000499: 37,3066           31223                           DCA      AVGEXIT
000500: 37,3067           52006                           DXCH     Z                                     #  AVERAGEG EXIT
000501:
000502: 37,3070           31205        AVGEND             CA       PIPTIME    +1                         #  FINAL AVERAGE G EXIT
000503: 37,3071           55074                           TS       OLDBT1                                #  SET UP FREE FALL GYRO COMPENSATION
000504:
000505: 37,3072           05435                           TC       UPFLAG                                #  SET DRIFTFLG
000506: 37,3073           00036                           ADRES    DRIFTFLG                              #  BIT 15 FLAG 2
000507: 37,3074           05261                           TC       2PHSCHNG
000508: 37,3075           00005                           OCT      5                                     #  GROUP 5 OFF
000509: 37,3076           05022                           OCT      05022                                 #  GROUP 2 ON FOR AVETOMID
000510: 37,3077           20000                           OCT      20000
000511:
000512: 37,3100           06006                           TC       INTPRET
000513: 37,3101           77624                           CALL
000514: 37,3102           27472                                    AVETOMID                              #  CONVERT STATE VECTOR TO REFERENCE SCALE.
000515: 37,3103           77776                           EXIT
000516:
000517: 37,3104           34714                           CAF      ZERO                                  #  ZERO MARK COUNTERS.
000518: 37,3105           55125                           TS       VHFCNT
000519: 37,3106           55126                           TS       TRKMKCNT
000520:
000521: 37,3107           04555                           TC       BANKCALL
000522: 37,3110           17112                           CADR     PIPFREE
000523:
000524: 37,3111           44702                           CS       BIT9
000525: 37,3112           55734                           TS       MRKBUF2                               #  INVALIDATE MARK BUFFER
000526: 37,3113           00006                           EXTEND
000527: 37,3114           03011                           WAND     DSALMOUT
000528:
000529: 37,3115           05447                           TC       DOWNFLAG
000530: 37,3116           00147                           ADRES    CM/DSTBY
000531:
000532: 37,3117           05447                           TC       DOWNFLAG
000533: 37,3120           00162                           ADRES    V37FLAG
000534:


000536: 37,3121           34704                           CAF      BIT7                                  #  RESTORE GROUP 1 + 2 IF P20 IS RUNNING.
000537: 37,3122           70074                           MASK     FLAGWRD0
000538: 37,3123           00006                           EXTEND
000539: 37,3124           13130                           BZF      +4
000540:
000541: 37,3125           05261                           TC       2PHSCHNG
000542: 37,3126           00111                           OCT      111                                   #  1.11SPOT
000543: 37,3127           00132                           OCT      132                                   #  2.13SPOT
000544:
000545: 37,3130           04574                           TC       POSTJUMP
000546: 37,3131           10123                           CADR     CANV37
000547:
000548: 37,3132           05301        SERVEXIT           TC       PHASCHNG
000549: 37,3133           00035                           OCT      00035                                 #  A, 5.3 = REREADAC     (ONLY)
000550:
000551: 37,3134           15112                           TCF      ENDOFJOB
000552:
000553: 37,3135     4717               DVTHRUSH           EQUALS   ELEVEN                                #  15 PERCENT OF 2SEC PIPA ACCUMULATION,
000554:                                                                                                  #        FOR 503-FULL CSM/LEM....DELV SC.AT
000555:                                                                                                  #        5.85 CM/SEC.
000556:
000557: 37,3135           63401        -MAXDELV           DEC      -6398      B-14                       #  3200 PPS FOR 2 SEC CCS TAKES 1
000558: 37,3136           00170        JTAGTIME           DEC      120        B-14                       #  = 1 SEC + T CDU, T CDU = .1 SEC
000559:
000560: 37,3137           00372        2.5SEC             DEC      250        B-14
000561: 37,3140           00044        MDOTFAIL           DEC      144.0      B-16                       #  5 SEC MASS LOSS AT 28.8 KG/SEC
000562:                                                                                                  #  SHOULD BE 2-4 SECS FOR NO START
000563:                                                                                                  #            6-8 SECS FOR FAILURE
000564:


000566:                                                                                                  #  NORMLIZE PERFORMS THE INITIALIZATION REQUIRED PRIOR TO THE FIRST ENTRY TO AVERAGEG, AND SCALES RN SO THAT IT
000567:                                                                                                  #  HAS 1 LEADING BINARY ZERO.  IN MOST MISSIONS, RN WILL BE SCALED AT 2(+29), BUT IN THE 206 MISSION, RN WILL BE
000568:                                                                                                  #  SCALED AT 2(+24) M.
000569:
000570: 37,3141           34720        NORMLIZE           CAF      THIRTEEN                              #  SET UP TO COPY 14 REGS: RN1,VN1,PIPTIME1
000571: 37,3142           05475                           TC       GENTRAN                               #  INTO RN,VN,PIPTIME
000572: 37,3143           01231                           ADRES    RN1                                   #  FROM HERE
000573: 37,3144           01170                           ADRES    RN                                    #  TO HERE
000574:
000575: 37,3145           00003                           RELINT
000576: 37,3146           06006                           TC       INTPRET
000577: 37,3147           45175                           VLOAD    CALL                                  #  LOAD RN FOR CALCGRAV
000578: 37,3150           01171                                    RN
000579: 37,3151           77256                                    CALCGRAV                              #  INITIALIZE UNITR RMAG GDT1
000580:
000581: 37,3152           25207                           STOVL    GDT/2
000582: 37,3153           01256                                    GOBL1/2
000583: 37,3154           01215                           STORE    GOBL/2
000584: 37,3155           77776                           EXIT
000585: 37,3156           15112                           TCF      ENDOFJOB
000586:


000588:                                                                                                  #  *****  PIPA READER *****
000589:                                                                                                  #  MOD NO. 00 BY D. LICKLY DEC. 9 1966
000590:
000591:                                                                                                  #  FUNCTIONAL DESCRIPTION
000592:
000593:                                                                                                  #  SUBROUTINE TO READ PIPA COUNTERS, TRYING TO BE VERY CAREFUL SO THAT IT WILL BE RESTARTABLE.
000594:                                                                                                  #  PIPA READINGS ARE STORED IN THE VECTOR DELV.  THE HIGH ORDER PART OF EACH COMPONENT CONTAINS THE PIPA READING,
000595:                                                                                                  #  RESTARTS BEGIN AT REREADAC.
000596:
000597:                                                                                                  #  AT THE END OF THE PIPA READER THE CDUS ARE READ AND STORED AS A
000598:                                                                                                  #  VECTOR IN CDUTEMP.  THE HIGH ORDER PART OF EACH COMPONENT CONTAINS
000599:                                                                                                  #  THE CDU READING IN 2'S COMP IN THE ORDER CDUX,Y,Z.  THE THRUST
000600:                                                                                                  #  VECTOR ESTIMATOR IN FINDCDUD REQUIRES THE CDUS BE READ AT PIPTIME.
000601:
000602:                                                                                                  #  CALLING SEQUENCE AND EXIT
000603:
000604:                                                                                                  #        CALL VIA TC, ISWCALL, ETC.
000605:
000606:                                                                                                  #        EXIT IS VIA Q.
000607:
000608:                                                                                                  #  INPUT
000609:
000610:                                                                                                  #        INPUT IS THROUGH THE COUNTERS PIPAX, PIPAY, PIPAZ, AND TIME2.
000611:
000612:                                                                                                  #  OUTPUT
000613:
000614:                                                                                                  #        HIGH ORDER COMPONENTS OF THE VECTOR DELV CONTAIN THE PIPA READINGS.
000615:
000616:                                                                                                  #        PIPTIME CONTAINS TIME OF PIPA READING.
000617:
000618:                                                                                                  #  DEBRIS
000619:
000620:                                                                                                  #        LOW ORDER COMPONENTS OF THE VECTOR DELV CONTAIN THE PIPA READINGS.
000621:                                                                                                  #        TEMX    TEMY    TEMZ    PIPAGE
000622:
000623: 37,3157           00006        PIPASR             EXTEND
000624: 37,3160           30025                           DCA      TIME2
000625: 37,3161           53246                           DXCH     PIPTIME1                              #  CURRENT TIME  POSITIVE VALUE
000626: 37,3162           44714                           CS       ZERO                                  #  INITIALIZAE THESE AT NEG ZERO.
000627: 37,3163           55224                           TS       TEMX
000628: 37,3164           55225                           TS       TEMY
000629: 37,3165           55226                           TS       TEMZ


000631: 37,3166           34714                           CA       ZERO
000632: 37,3167           55166                           TS       DELVZ                                 #  OTHER DELVS OK INCLUDING LOW ORDER
000633: 37,3170           55164                           TS       DELVY
000634:
000635: 37,3171           55163                           TS       DELVX      +1                         #  LOW ORDER DELV'S ARE ZEROED FOR TM:  THIS
000636: 37,3172           55165                           TS       DELVY      +1                         #  IF DNLNK=D LOW ORDER DELVS ARE NZ, THEY
000637: 37,3173           55167                           TS       DELVZ      +1                         #  CONTAIN PROPER COMPENSATION.  IF=0, THEN
000638:                                                                                                  #  THE TM VALUES ARE BEFORE COMPENSATION.
000639:
000640: 37,3174           55230                           TS       PIPAGE                                #  SHOW PIPA READING IN PROGRESS
000641:
000642: 37,3175           00006        REPIP1             EXTEND
000643: 37,3176           40040                           DCS      PIPAX                                 #  X AND Y PIPS READ
000644: 37,3177           53225                           DXCH     TEMX
000645: 37,3200           52040                           DXCH     PIPAX                                 #  PIPAS SET TO NEG ZERO AS READ.
000646: 37,3201           55162                           TS       DELVX
000647: 37,3202           23164                           LXCH     DELVY
000648:
000649: 37,3203           40041        REPIP3             CS       PIPAZ                                 #  REPEAT PROCESS FOR Z PIP
000650: 37,3204           57226                           XCH      TEMZ
000651: 37,3205           56041                           XCH      PIPAZ
000652: 37,3206           55166        DODELVZ            TS       DELVZ
000653:
000654: 37,3207           00002                           TC       Q
000655: 37,3210  E6,1661                                  EBANK=   AOG
000656:
000657: 37,3210           10763        REREADAC           CCS      PHASE5                                #  LAST PASS CHECK
000658: 37,3211           13213                           TCF      +2
000659: 37,3212           15213                           TCF      TASKOVER
000660:
000661: 37,3213           37665                           CAF      PRIO31                                #  RESTART MAY HAVE WIPED OUT LASTBIAS, AN
000662: 37,3214           55074                           TS       1/PIPADT                              #        UNPROTECTED NOVAC FROM PREREAD,
000663:                                                                                                  #        WHICH SET(S) UP 1/PIPADT (THUSLY)
000664:                                                                                                  #        FOR NON-COASTING COMPENSATION....BE
000665:                                                                                                  #        SURE 1/PIPADT IS AOK.  (PRIO31 IS
000666:                                                                                                  #        2.0SEC SC.AT B+8(CS)
000667:
000668: 37,3215           11230                           CCS      PIPAGE
000669: 37,3216           12647                           TCF      READACCS                              #  PIP READING NOT STARTED.  GO TO BEGINNING
000670:
000671: 37,3217           33255                           CAF      DONEADR                               #  SET UP RETURN FROM PIPASR
000672: 37,3220           54002                           TS       Q
000673:
000674: 37,3221           11166                           CCS      DELVZ
000675: 37,3222           00002                           TC       Q                                     #  Z DONE, GO DO CDUS
000676: 37,3223           13226                           TCF      +3                                    #  Z NOT DONE, CHECK Y.
000677: 37,3224           00002                           TC       Q
000678: 37,3225           00002                           TC       Q


000680: 37,3226           22007                           ZL
000681: 37,3227           11164                           CCS      DELVY
000682: 37,3230           13233                           TCF      +3
000683: 37,3231           13242                           TCF      CHKTEMX                               #  Y NOT DONE, CHECK X.
000684: 37,3232           13233                           TCF      +1
000685: 37,3233           22041                           LXCH     PIPAZ                                 #  Y DONE, ZERO Z PIP.
000686:
000687: 37,3234           11226                           CCS      TEMZ
000688: 37,3235           41226                           CS       TEMZ                                  #  TEMZ NOT = -0, CONTAINS -PIPAZ VALUE.
000689: 37,3236           13206                           TCF      DODELVZ
000690: 37,3237           13235                           TCF      -2
000691: 37,3240           23166                           LXCH     DELVZ                                 #  TEMZ = -0, L HAS ZPIP VALUE.
000692: 37,3241           00002                           TC       Q
000693:
000694: 37,3242           11224        CHKTEMX            CCS      TEMX                                  #  HAS THIS CHANGED
000695: 37,3243           41224                           CS       TEMX                                  #  YES
000696: 37,3244           13247                           TCF      +3                                    #  YES
000697: 37,3245           13243                           TCF      -2                                    #  YES
000698: 37,3246           13175                           TCF      REPIP1                                #  NO
000699: 37,3247           55162                           TS       DELVX
000700:
000701: 37,3250           41225                           CS       TEMY
000702: 37,3251           55164                           TS       DELVY
000703:
000704: 37,3252           44714                           CS       ZERO                                  #  ZERO X AND Y PIPS
000705: 37,3253           52040                           DXCH     PIPAX                                 #  L STILL ZERO FROM ABOVE
000706:
000707: 37,3254           13203                           TCF      REPIP3
000708:
000709: 37,3255           02650        DONEADR            GENADR   PIPSDONE
000710:


000712:                                                                                                  # *********************************************************************************************
000713:
000714:                                                                                                  #  ROUTINE CALCRVG INTEGRATES THE EQUATIONS OF MOTION BY AVERAGING THE THRUST AND GRAVITATIONAL
000715:                                                                                                  #  ACCELERATIONS OVER A TIME INTERVAL OF 2 SECONDS.
000716:
000717:                                                                                                  #  FOR THE EARTH-CENTERED GRAVITATIONAL FIELD, THE PERTURBATION DUE TO OBLATENESS IS COMPUTED TO THE FIRST
000718:                                                                                                  #  HARMONIC COEFFICIENT J.
000719:
000720:                                                                                                  #  ROUTINE CALCRVG REQUIRES...
000721:                                                                                                  #        1) THRUST ACCELERATION INCREMENTS IN DELV SCALED SAME AS PIPAX,Y,Z IN STABLE MEMBER COORDS.
000722:                                                                                                  #        2) VN SCALED 2(+7) M/CS IN REFERENCE COORDS.
000723:                                                                                                  #        3) RN SCALED AT 2(+29) METERS IN REFERENCE COORDS.
000724:                                                                                                  #        4) UNITW THE EARTH'S UNIT ROTATIONAL VECTOR (SCALED AS A FULL UNIT VECTOR) IN REFERENCE COORDS.
000725:
000726:                                                                                                  #  IT LEAVES RN1 UPDATED (SCALED AT 2(+29)M, VN1 (SCALED AT 2(+7)M/CS), AND GDT1/2 (SCALED AT 2(+7)M/CS). ALSO HALF
000727:                                                                                                  #  UNIT VECTOR UNITR, RMAG IN 36D SCALED AT 2(+29)M, R MAG SQ. IN 34D SCALED AT 2(+58) M SQ.
000728:
000729: 37,3256           41456        CALCGRAV           UNIT     PUSH                                  #  ENTER WITH RN IN MPAC
000730: 37,3257           01760                           STORE    UNITR
000731: 37,3260           67340                           LXC,1    SLOAD
000732: 37,3261           03746                                    RTX2
000733: 37,3262           00047                                    X1
000734: 37,3263           77240                           BMN      VLOAD
000735: 37,3264           77312                                    ITISMOON
000736: 37,3265           41441                           DOT      PUSH
000737: 37,3266           01714                                    UNITW
000738: 37,3267           44316                           DSQ      BDSU
000739: 37,3270           37364                                    DP1/20
000740: 37,3271           56325                           PDDL     DDV
000741: 37,3272           37366                                    RESQ
000742: 37,3273           00043                                    34D                                   #  (RN)SQ
000743: 37,3274           00041                           STORE    32D                                   #  TEMP FOR (RE/RN)SQ
000744: 37,3275           41205                           DMP      DMP
000745: 37,3276           37370                                    20J
000746: 37,3277           65361                           VXSC     PDDL
000747: 37,3300           01760                                    UNITR
000748: 37,3301           41205                           DMP      DMP
000749: 37,3302           37372                                    2J
000750: 37,3303           00041                                    32D
000751: 37,3304           53361                           VXSC     VAD
000752: 37,3305           01714                                    UNITW
000753: 37,3306           77626                           STADR
000754: 37,3307           76521                           STORE    GOBL1/2
000755: 37,3310           41455                           VAD      PUSH
000756: 37,3311           01760                                    UNITR
000757: 37,3312           60345        ITISMOON           DLOAD    NORM
000758: 37,3313           00043                                    34D
000759: 37,3314           00050                                    X2
000760: 37,3315           53663                           BDDV*    SLR*


000762: 37,3316           37356                                    -MUDT(E),1
000763: 37,3317           56623                                    0          -21D,2
000764: 37,3320           45561                           VXSC     STADR
000765: 37,3321           76527                           STORE    GDT1/2                                #  SCALED AT 2(+7) M/CS
000766: 37,3322           77616                           RVQ
000767:
000768: 37,3323           74375        CALCRVG            VLOAD    VXSC
000769: 37,3324           01163                                    DELV
000770: 37,3325           37354                                    KPIP1
000771: 37,3326           76505                           VXM      VSL1
000772: 37,3327           01736                                    REFSMMAT
000773: 37,3330           03433                           STORE    DELVREF                               #  DELV IN REF COORDS AT 2(+7)
000774: 37,3331           41562                           VSR1     PUSH
000775: 37,3332           41455                           VAD      PUSH                                  #  (DV-OLDGDT)/2 TO PD SCALED AT 2(+7)M/CS
000776: 37,3333           01207                                    GDT/2
000777: 37,3334           74255                           VAD      VXSC
000778: 37,3335           01177                                    VN
000779: 37,3336           37362                                    2SEC(22)
000780: 37,3337           44055                           VAD      STQ
000781: 37,3340           01171                                    RN
000782: 37,3341           00037                                    31D
000783: 37,3342           35232                           STCALL   RN1                                   #  TEMP STORAGE OF RN SCALED 2(+29)M
000784: 37,3343           77256                                    CALCGRAV
000785:
000786: 37,3344           53255                           VAD      VAD
000787: 37,3345           77655                           VAD
000788: 37,3346           01177                                    VN
000789: 37,3347           35240                           STCALL   VN1                                   #  TEMP STORAGE OF VN SCALED 2(+7) M/CS.
000790: 37,3350           00037                                    31D
000791:
000792: 37,3351           03215 27057  KPIP               2DEC     .1024                                 #  SCALES DELV TO 2(+4)
000793: 37,3353           02312 32537  KPIP1              2DEC     0.074880                              #  207 DELV SCALING.  1 PULSE = 5.85 CM/SEC.
000794: 37,3355           61377 55754  -MUDT(E)           2DEC*    -7.9720645 E+12       B-44*
000795: 37,3357           77644 65556  -MUDT(M)           2DEC*    -9.805556  E+10       B-44*
000796: 37,3361           00000 31000  2SEC(22)           2DEC     200        B-22
000797: 37,3363           01463 06315  DP1/20             2DEC     0.05
000798: 37,3365           00001 05000  RESQ               2DEC*    40.6809913 E12        B-59*
000799: 37,3367           02047 36332  20J                2DEC*    3.24692010 E-2        B1*
000800: 37,3371           00152 14511  2J                 2DEC*    3.24692010 E-3        B1*
000801:

End of include-file SERVICER207.agc.  Parent file is MAIN.agc


