
Source Code
000001:                                                                                                 #  Copyright:     Public domain.
000002:                                                                                                 #  Filename:      Template.agc
000003:                                                                                                 #  Purpose:       Part of the source code for Colossus, build 249.
000004:                                                                                                 #                 It is part of the source code for the Command Module's (CM)
000005:                                                                                                 #                 Apollo Guidance Computer (AGC), possibly for Apollo 8 and 9.
000006:                                                                                                 #  Assembler:     yaYUL
000007:                                                                                                 #  Reference:     pp. 777-794 of 1701.pdf.
000008:                                                                                                 #  Contact:       Ron Burkey <info@sandroid.org>.
000009:                                                                                                 #  Website:       www.ibiblio.org/apollo.
000010:                                                                                                 #  Mod history:   08/19/04 RSB.   Began transcribing.
000011:
000012:                                                                                                 #  The contents of the "Colossus249" files, in general, are transcribed
000013:                                                                                                 #  from a scanned document obtained from MIT's website,
000014:                                                                                                 #  http://hrst.mit.edu/hrs/apollo/public/archive/1701.pdf.  Notations on this
000015:                                                                                                 #  document read, in part:
000016:
000017:                                                                                                 #         Assemble revision 249 of AGC program Colossus by NASA
000018:                                                                                                 #         2021111-041.  October 28, 1968.
000019:
000020:                                                                                                 #         This AGC program shall also be referred to as
000021:                                                                                                 #                                 Colossus 1A
000022:
000023:                                                                                                 #         Prepared by
000024:                                                                                                 #                         Massachussets Institute of Technology
000025:                                                                                                 #                         75 Cambridge Parkway
000026:                                                                                                 #                         Cambridge, Massachusetts
000027:                                                                                                 #         under NASA contract NAS 9-4065.
000028:
000029:                                                                                                 #  Refer directly to the online document mentioned above for further information.
000030:                                                                                                 #  Please report any errors (relative to 1701.pdf) to info@sandroid.org.
000031:
000032:                                                                                                 #  In some cases, where the source code for Luminary 131 overlaps that of
000033:                                                                                                 #  Colossus 249, this code is instead copied from the corresponding Luminary 131
000034:                                                                                                 #  source file, and then is proofed to incorporate any changes.
000035:
000036:                                                                                                 #  Page 777
000037:                                                                                                 #  SERVICER207
000038:
000039:                                                                                                 #  PROGRAM NAME:  PREREAD, READACCS, SERVICER, AVERAGE G.
000040:                                                                                                 #  MOD NO. 00 BY M. HAMILTON      DEC. 12, 1966
000041:
000042:                                                                                                 #  FUNCTIONAL DESCRIPTION
000043:
000044:                                                                                                 #  THE ROUTINES DESCRIBED BELOW ARE USED TO CALCULATE VALUES OF RN, VN, AND GDT/2 DURING ACCELERATED FLIGHT.
000045:                                                                                                 #  THE SEVERAL ROUTINES COMPRISE A PACKAGE AND ARE NOT MEANT TO BE USED AS SEPARATE SUBROUTINES.
000046:
000047:                                                                                                 #  GENERAL REFERENCES TO SERVICER OR AVERAGE G ARE UNDERSTOOD TO REFER TO THE ENTIRE SET OF ROUTINES INCLUDING
000048:                                                                                                 #  RRADACCS, SERVICER, AVERAGE G, INTEREAD, SMOOTHER, AND ANY ADDITIONAL ROUTINES ATTACHED AT AVGEXIT (SEE BELOW).
000049:
000050:                                                                                                 #  PROGRAMS INITIATING SERVICER ARE REQUIRED TO MAKE A WAITLIST CALL FOR PREREAD (OR, IF LIFTOFF, FOR BIBIBIAS)
000051:                                                                                                 #  AT 2 SECONDS BEFORE THE FIRST AVERAGE G UPDATE IN ORDER TO INITIALIZE THE SEQUENCE, WHICH WILL RECUR EVERY
000052:                                                                                                 #  2 SECONDS FROM THAT TIME ON AS LONG AS AVEGFLAG REMAINS SET.
000053:
000054:                                                                                                 #  THE USE OF ERASABLE AVGEXIT ALLOWS VARIOUS ROUTINES TO BE PERFORMED AS PART OF THE NORMAL CYCLE (SEE
000055:                                                                                                 #  EXPLANATION OF AVGEXIT BELOW).
000056:
000057:                                                                                                 #  DESCRIPTIONS OF INDIVIDUAL ROUTINES FOLLOW.
000058:
000059:                                                                                                 #         PREREAD
000060:
000061:                                                                                                 #                 PREVIOUSLY EXTRAPOLATED VALUES COPIED FROM RN1, VN1, AND PIPTIME1 INTO RN, VN, AND PIPTIME.
000062:                                                                                                 #                 LASTBIAS JOB SCHEDULED.
000063:                                                                                                 #                 PIPS READ AND CLEARED VIA PIPASR SUBROUTINE.
000064:                                                                                                 #                 AVERAGE G FLAG SET ON.
000065:                                                                                                 #                 DRIFT FLAG SET OFF.
000066:                                                                                                 #                 V37 FLAG SET ON.
000067:                                                                                                 #                 INITIALIZATION OF       1) THRUST MONITOR (DVMON) -- DVCNTR SET TO ONE.
000068:                                                                                                 #                                         2) TOTAL ACCUMULATED DELV VALUE (DVTOTAL) -- SET TO ZERO.
000069:                                                                                                 #                                         3) AXIS VECTOR (AXIS) -- SET TO (.5,0,0).
000070:                                                                                                 #                 NORMLIZE JOB SCHEDULED.
000071:                                                                                                 #                 READACCS TASH CALLED IN 2 SECONDS.
000072:
000073:                                                                                                 #         NORMLIZE
000074:
000075:                                                                                                 #                 GDT/2 INITIALIZED VIA CALCGRAV ROUTINE.
000076:
000077:                                                                                                 #         READACCS
000078:
000079:                                                                                                 #                 IF ONMON FLAG SET QUIKREAD ROUTINE IS PERFORMED BEFORE PIPASR ZEROS THE PIPA REGISTERS, AND THE 1/2 SEC
000080:                                                                                                 #                 ONMONITOR LOOP IS INITIATED TO PROVIDE DOWNLINK INFORMATION DURING ENTRY.
000081:                                                                                                 #                 PIPS READ AND CLEARED BY PIPASR SUBROUTINE.
000082:                                                                                                 #                 IF CM/DSTBY IS ON, ENTRY VARIABLES INITIALIZED AND SETJTAG TASK CALLED.
000083:                                                                                                 #  Page 778
000084:
000085:                                                                                                 #         SERVICER207
000086:
000087:                                                                                                 #                 IF AVERAGEG FLAG ON     READACCS CALLED TO RECYCLE IN 2 SECONDS.
000088:                                                                                                 #                 IF AVERAGEG FLAG OFF    AVERAGE G EXIT (AVGEXIT) SET TO 2CADR AVGEND FOR FINAL PASS.
000089:                                                                                                 #                 SERVICER JOB SCHEDULED.
000090:                                                                                                 #                 TEST CONNECTOR OUTBIT TURNED ON.
000091:
000092:                                                                                                 #         ONMNITOR
000093:
000094:                                                                                                 #                 A SEQUENCE OF THESE PASSES THROUGH QUICREAD FOLLOWING A CALL TO READACCS WITH ONMONFLG SET AT 1/2
000095:                                                                                                 #                 SEC INTERVALS.  INTERVALS ARE COUNTED OUT BY PIPCTR, INITIALIZED AT 3 BY READACCS.
000096:
000097:                                                                                                 #         QUIKREAD
000098:
000099:                                                                                                 #                 READS CURRENT PIPS INTO X,Y,ZPIPBUF.  READS OLD X,Y,ZPIPBUF INTO X,Y,ZOLDBUF.  VALUES ARE SENT TO
000100:                                                                                                 #                 DOWNLIST DURING ENTRY.
000101:
000102:                                                                                                 #         SERVICER
000103:
000104:                                                                                                 #                 DELV VALUES CHECKED TO DETECT RUNAWAY PIP:
000105:
000106:                                                                                                 #                         IF BAD PIP      1) ALARM SENT.
000107:                                                                                                 #                                         2) COMPENSATION, DVTOTAL ACCUMULATION, AND DVMON BYPASSED.  CONTROL
000108:                                                                                                 #                                            TRANSFERRED TO AVERAGEG.
000109:
000110:                                                                                                 #                 PIPS COMPENSATED VIA 1/PIPA SUBROUTINE.
000111:                                                                                                 #                 DVTOTAL INCREMENTED BY ABSOLUTE VALUE OF DELV.
000112:                                                                                                 #                 THRUST MONITOR (DVMON) PERFORMED UNLESS IDLE FLAG IS ON.
000113:                                                                                                 #                 CONTROL TRANSFERRED TO AVERAGE Q.
000114:
000115:                                                                                                 #                 DVMON
000116:
000117:                                                                                                 #                         THRESHOLD VALUD (PLACED IN DVTHRUSH BY USER) CHECKED AGAINST ABSOLUTE VALUE OF DELV TO CHECK
000118:                                                                                                 #                         THRUST LEVEL.
000119:
000120:                                                                                                 #                                 IF THRUST       1) ULLAGE OFF ROUTINE PERFORMED.
000121:                                                                                                 #                                                 2) STEERING FLAG TURNED ON AT FIRST DETECTION OF THRUST
000122:                                                                                                 #                                                 3) CONTROL TRANSFERRED TO AVERAGE G.
000123:                                                                                                 #                                 IF NO THRUST    1) ON FIRST PASS THROUGH MONITOR, CONTROL TRANSFERRED TO AVERAGE G.
000124:                                                                                                 #                                                 2) ON SUBSEQUENT PASSES, CONTROL TRANSFERRED TO ENGINE FAIL ROUTINE IF THRUST
000125:                                                                                                 #                                                    HAS FAILED FOR 3 CONSECUTIVE PASSES.
000126:                                                                                                 #                 ENGINE FAIL
000127:
000128:                                                                                                 #                         ENGFAIL1 TASK CALLED IN 2.5 SECONDS.  THIS WILL RETURN CONTROL TO TIG-5 SO THAT THE IGNITION
000129:                                                                                                 #                                 SEQUENCE MAY BE REPEATED.
000130:                                                                                                 #                         ENGINOF3 PERFORMED.
000131:                                                                                                 #                         DAP SET UP FOR RCS.
000132:                                                                                                 #
000133:                                                                                                 #         AVERAGE G
000134:                                                                                                 #  Page 779
000135:                                                                                                 #                 RN1, VN1, GDT1/2 CALCULATED VIA CALCRVG ROUTINE BY UPDATING RN, VN WITH DELV AND AN AVERAGED VALUE
000136:                                                                                                 #                         OF GDT/2
000137:                                                                                                 #                 RN1, VN1, GDT1/2, PIPTIME1 COPIED INTO RN, VN, GDT/2, PIPTIME FOR RESTART PROTECTION.
000138:                                                                                                 #                 CONTROL TRANSFERRED TO ADDRESS SPECIFIED BY USER (OR BY READACCS FOR LAST PASS) IN AVEGEXIT.
000139:                                                                                                 #                 LAST PASS (AVGEND)      1) FREE FALL GYRO COMPENSATION SET UP.
000140:                                                                                                 #                                         2) DRIFT FLAG TURNED ON.
000141:                                                                                                 #                                         3) STATE VECTOR TRANSFERRED VIA AVETOMID ROUTINE.
000142:                                                                                                 #                                         4) ONMONITOR FLAG RESET.
000143:                                                                                                 #                                         5) V37 FLAG RESET.
000144:                                                                                                 #                                         6) TEST CONNECTOR OUTBIT RESET.
000145:                                                                                                 #                                         7) CONTROL TRANSFERRED TO CANV37 TO CONTINUE MM CHANGE ROUTINE (R00).
000146:
000147:                                                                                                 #  CALLING SEQUENCE
000148:
000149:                                                                                                 #         PREREAD ENTERED DIRECTLY FROM TIG-30 VIA POSTJUMP.
000150:                                                                                                 #         READACCS CALLED AS WAITLIST TASK.
000151:
000152:                                                                                                 #  SUBROUTINES CALLED
000153:
000154:                                                                                                 #         UTILITY ROUTINES:  PHASCHNG FLAGUP FLAGDOWN NOVAC FINDVAC WAITLIST ALARM NEWPHASE 2PHSCHNG
000155:
000156:                                                                                                 #         OTHER:  PIPASR 1/PIPA CALCGRAV CALCRVG AVETOMID
000157:
000158:                                                                                                 #  NORMAL EXIT MODES
000159:
000160:                                                                                                 #         ENDOFJOB        TASKOVER        CANV37
000161:
000162:                                                                                                 #         AVGEXIT:        THIS IS A DOUBLE PRECISION ERASABLE LOCATION BY WHICH CONTROL IS TRANSFERRED AT THE END
000163:                                                                                                 #                                 OF EACH CYCLE OF AVERAGE G.
000164:                                                                                                 #                         THE 2CADR OF A ROUTINE TO BE PERFORMED AT THAT TIME (E.G., STEERING EQUATIONS TO BE REPORTED
000165:                                                                                                 #                                 AT 2 SECOND INTERVALS) MAY BE SET BY THE USER INTO AVGEXIT.
000166:                                                                                                 #                         ALL SUCH ROUTINES SHOULD RETURN TO SERVEXIT, WHICH IS THE NORMAL EXIT FROM AVERAGE G.
000167:
000168:                                                                                                 #         SERVEXIT:       DOES A PHASE CHANGE FOR RESTART PROTECTION AND GOES TO ENDOFJOB.
000169:                                                                                                 #                         THE 2CADR OF SERVEXIT IS SET INTO AVGEXIT BY THE USER F NO OTHER ROUTINE (SEE ABOVE).
000170:
000171:                                                                                                 #         AVGEND:         LAST PASS OF AVERAGE G EXITS HERE, BYPASSING SPECIAL ROUTINE (SEE ABOVE UNDER READACCS).
000172:                                                                                                 #                         FINAL EXIT IS TO CANV37.                                F AVERAGE G).
000173:
000174:                                                                                                 #  OUTPUT
000175:
000176:                                                                                                 #         DVTOTAL(2)      PIPTIME(2) XPIPBUF(2) YPIPBUF(2) ZPIPBUF(2)
000177:                                                                                                 #         RN(6)           REFERENCE COORD.        SCALED AT 2(+29) M/CS
000178:                                                                                                 #         VN(6)           REFERENCE COORD.        SCALED AT 2(+7) M/CS
000179:                                                                                                 #         GDT/2(6)        REFERENCE COORD.        SCALED AT 2(+7) M/CS
000180:                                                                                                 #         DELV(6)         STABLE MEMB. COORD.     SCALED AT 2(+14)*5.85*10(-4) M/CS (KPIP1 USED TO GET DV/2 AT 2(+7))
000181:                                                                                                 #  Page 780
000182:                                                                                                 #         DELVREF(6)      REFERENCE COORD.        SCALED AT 2(+7) M/CS
000183:
000184:                                                                                                 #  INITIALIZATION
000185:
000186:                                                                                                 #         ONMONITOR FLAG SET BY ENTRY TO SHOW PIPBUF VALUES REQUIRED.
000187:                                                                                                 #         IDLE FLAG ON IF DVMON TO BE BYPASSED.
000188:                                                                                                 #         DVTHRUSH SET TO APPROPRIATE VALUE FOR DVMON.
000189:                                                                                                 #         AVGEXIT SET TO 2CADR OF ROUTINE, IF ANY, TO BE PERFORMED AFTER EACH CYCLE OF AVERAGE G.  IF NO ROUTINE
000190:                                                                                                 #                 TO BE DONE, AVGEXIT SET TO SERVEXIT.
000191:                                                                                                 #         VALUES NEEDED
000192:                                                                                                 #                 REFSMMAT
000193:                                                                                                 #                 UNITW:  FULL UNIT VECTOR, IN REFERENCE COORD., OF EARTH'S ROTATIONAL VECTOR
000194:                                                                                                 #                 RN1, VN1, PIPTIME1:  IN REFERENCE COORD., CONSISTENT WITH TIME OF EXECUTION OF PREREAD.
000195:
000196:                                                                                                 #  DEBRIS
000197:
000198:                                                                                                 #         CENTRALS        A, L, Q
000199:                                                                                                 #         OTHER           INTERNAL:  DVCNTR(1) PIPAGE(1) PIPCTR(1) AVGEXIT(2)
000200:                                                                                                 #                         EXTERNAL:  ITEMP1(1) ITEMP2(1) RUPTREG1(1) TEMX(1) TEMY(1) TEMZ(1)
000201:                                                                                                 #                         USEFUL DEBRIS
000202:                                                                                                 #                                 RN1(0), VN1(0) GDT1/0 PIPTIME1(2?)
000203:                                                                                                 #                                         THESE LOCATIONS USED AS BUFFER STORAGE FOR NEWLY CALCULATED VALUES OF RN, VN, GDT/2,
000204:                                                                                                 #                                         AND PIPTIME DURING PERFORMANCE OF SERVICER ROUTINES.
000205:                                                                                                 #                                 UNITR:  HALF UNIT VECTOR OF RN, REFERENCE COORD.
000206:                                                                                                 #                                 RMAG SCALED AT 2(+58) IN 36D.
000207:                                                                                                 #                                 RMAGSQ SCALED AT 2(+58) IN 34D.
000208:                                                                                                 #                                 (RE/RMAG)SQ IN 32D
000209:
000210: 27,2633                                          BANK     27
000211: 37,2000                                          SETLOC   SERVICES
000212: 37,2000                                          BANK
000213:
000214: 37,2604  E7,1431                                 EBANK=   DVCNTR
000215:                                                                                                 #  ********************* PREREAD ***************************************
000216:
000217: 37,2604                                          COUNT    37/SERV
000218:
000219: 37,2604           34766        PREREAD           CAF      PRIO21                                #  CALLER MUST PROTECT PREREAD
000220: 37,2605           05027                          TC       NOVAC
000221: 37,2606  E3,1460                                 EBANK=   NBDX
000222: 37,2606           03636 14063                    2CADR    LASTBIAS                              #  DO LAST GYRO COMPENSATION IN FREE FALL
000223:
000224:                                                                                                 #  CALL-TO AND LASTBIAS ITSELF ARE NOT
000225:                                                                                                 #         PROTECTED. REREADAC SETS 1/PIPADT
000226:                                                                                                 #         TO 2.0 SECS IN CASE LASTBIAS LOST.
000227:                                                                                                 #         (REDUNDANT IF LASTBIAS IS AOK.)
000228:                                                                                                 #  Page 781
000229: 37,2610           02625        REDO5.31          TC       PREREAD1
000230:
000231: 37,2611           37667                          CAF      PRIO32
000232: 37,2612           05042                          TC       FINDVAC                               #  SET UP NORMLIZE JOB REQUIRED PRIOR TO
000233: 37,2613  E7,1431                                 EBANK=   DVCNTR                                #  FIRST AVERAGE G PASS
000234: 37,2613           03141 76067                    2CADR    NORMLIZE
000235:
000236: 37,2615           34735                          CAF      2SECS
000237: 37,2616           05140                          TC       WAITLIST
000238: 37,2617  E6,1661                                 EBANK=   AOG
000239: 37,2617           02647 76066                    2CADR    READACCS
000240:
000241: 37,2621           44711                          CS       TWO
000242: 37,2622           04114                          TC       NEWPHASE
000243: 37,2623           00005                          OCT      5
000244:
000245: 37,2624           15213                          TCF      TASKOVER
000246: 37,2625           00006        PREREAD1          EXTEND
000247: 37,2626           22070                          QXCH     RUPTREG1
000248:
000249: 37,2627           03157                          TC       PIPASR                                #  CLEAR + READ PIPS LAST TIME IN FREE FALL
000250:
000251: 37,2630           34712                          CAF      ONE                                   #  SET UP PIPAGE FOR REREADAC IN CASE A
000252: 37,2631           55230                          TS       PIPAGE                                #         RESTART OCCURS BEFORE READACCS
000253:
000254: 37,2632           40075                          CS       FLAGWRD1                              #  SET AVEG FLAG
000255: 37,2633           74712                          MASK     BIT1
000256: 37,2634           26075                          ADS      FLAGWRD1
000257:
000258: 37,2635           34672                          CA       POSMAX
000259: 37,2636           70076                          MASK     FLAGWRD2
000260: 37,2637           54076                          TS       FLAGWRD2                              #  KNOCK DOWN DRIFT FLAG
000261:
000262: 37,2640           40103                          CS       FLAGWRD7                              #  SET V37 FLAG
000263: 37,2641           74705                          MASK     BIT6
000264: 37,2642           26103                          ADS      FLAGWRD7
000265:
000266: 37,2643           34714                          CAF      ZERO
000267: 37,2644           55425                          TS       DVTOTAL                               #  CLEAR DVTOTAL
000268: 37,2645           55426                          TS       DVTOTAL    +1
000269:
000270: 37,2646           00070                          TC       RUPTREG1
000271:
000272:                                                                                                 #  Page 782
000273:                                                                                                 #  ********************* READACCS ***************************************
000274:
000275: 37,2647  E6,1661                                 EBANK=   AOG
000276: 37,2647           03157        READACCS          TC       PIPASR
000277:
000278: 37,2650           34715        PIPSDONE          CAF      FIVE
000279: 37,2651           54001                          TS       L
000280: 37,2652           40000                          COM
000281: 37,2653           52763                          DXCH     -PHASE5
000282:
000283: 37,2654           34712        REDO5.5           CAF      ONE                                   #  SHOW PIPS HAVE BEEN READ
000284: 37,2655           55230                          TS       PIPAGE
000285:
000286: 37,2656           34711                          CA       TWO                                   #  SET PIPCTR FOR ONMINTOR
000287: 37,2657           55227                          TS       PIPCTR                                #  AFTER ABOVE PHASCHNG
000288:
000289: 37,2660           40102                          CS       CM/FLAGS
000290: 37,2661           74711                          MASK     BIT2                                  #  CM/DSTBY
000291: 37,2662           10000                          CCS      A
000292: 37,2663           02736                          TC       CHEKAVEG
000293:
000294: 37,2664           41246                          CS       PIPTIME1   +1
000295: 37,2665           55065                          TS       TBASE6                                #  FOR RESTARTS
000296: 37,2666           00006                          EXTEND                                         #  CONTINUE FOR ENTRY DAP
000297: 37,2667           31662                          DCA      AOG
000298: 37,2670           53670                          DXCH     AOG/PIP
000299: 37,2671           31663                          CA       AMG
000300: 37,2672           57671                          XCH      AMG/PIP
000301: 37,2673           00006                          EXTEND
000302: 37,2674           31665                          DCA      ROLL/180
000303: 37,2675           53673                          DXCH     ROLL/PIP
000304: 37,2676           31666                          CA       BETA/180
000305: 37,2677           57674                          XCH      BETA/PIP
000306: 37,2700           30102                          CA       CM/FLAGS
000307: 37,2701           74677                          MASK     BIT12                                 #  CM/DAPARM 93D BIT12
000308: 37,2702           00006                          EXTEND                                         #  DURING ENTRY, WHEN RCS DAP IS INACTIVE,
000309: 37,2703           12721                          BZF      NOSAVPIP                              #  SAVE PIPAS EACH 0.5 SEC FOR TM.
000310:
000311: 37,2704           32771                          CA       0.5SEC
000312: 37,2705           05140                          TC       WAITLIST
000313: 37,2706  E6,1533                                 EBANK=   XPIPBUF
000314: 37,2706           02772 76066                    2CADR    QUIKREAD
000315:
000316:                                                                                                 #  NO NEED TO RESTART PROTECT THIS.
000317: 37,2710           31162                          CA       DELVX                                 #  SAVE PIPAS AS READ (BUT NOT COMPENSATED)
000318: 37,2711           57533                          XCH      XPIPBUF
000319: 37,2712           55536                          TS       XOLDBUF
000320:
000321: 37,2713           31164                          CA       DELVY
000322: 37,2714           57534                          XCH      YPIPBUF
000323: 37,2715           55537                          TS       YOLDBUF
000324:                                                                                                 #  Page 783
000325: 37,2716           31166                          CA       DELVZ
000326: 37,2717           57535                          XCH      ZPIPBUF
000327: 37,2720           55540                          TS       ZOLDBUF
000328:
000329: 37,2721           34715        NOSAVPIP          CA       FIVE
000330: 37,2722           55725                          TS       CM/GYMDT
000331:
000332: 37,2723           33136                          CA       JTAGTIME                              #  ACTIVATE CM/RCS AFTER PIPUP TO GO
000333:                                                                                                 #  IN JTAGTIME +5 CS.
000334: 37,2724           05140                          TC       WAITLIST
000335: 37,2725  E6,1661                                 EBANK=   AOG
000336: 37,2725           03227 32066                    2CADR    SETJTAG
000337:
000338: 37,2727           46214                          CS       THREE                                 #  1.3SPOT FOR SETJTAG
000339: 37,2730           04114                          TC       NEWPHASE
000340: 37,2731           00001                          OCT      1
000341:
000342: 37,2732           34362                          CAF      OCT37
000343: 37,2733           54001                          TS       L
000344: 37,2734           40000                          COM
000345: 37,2735           52763                          DXCH     -PHASE5
000346:
000347: 37,2736           40075        CHEKAVEG          CS       FLAGWRD1
000348: 37,2737           74712                          MASK     BIT1
000349: 37,2740           10000                          CCS      A                                     #  IF AVEG FLAG DOWN SET FINAL EXIT AVEG
000350: 37,2741           02761                          TC       AVEGOUT
000351:
000352: 37,2742           34735                          CAF      2SECS
000353: 37,2743           05140                          TC       WAITLIST
000354: 37,2744  E6,1661                                 EBANK=   AOG
000355: 37,2744           02647 76066                    2CADR    READACCS
000356:
000357: 37,2746           34675        MAKESERV          CAF      PRIO20                                #  ESTABLISH SERVICER ROUTINE
000358: 37,2747           05042                          TC       FINDVAC
000359: 37,2750  E7,1431                                 EBANK=   DVCNTR
000360: 37,2750           03007 76067                    2CADR    SERVICER
000361:
000362: 37,2752           44710                          CS       FOUR                                  #  RESTART SERVICER AND READACCS
000363: 37,2753           04114                          TC       NEWPHASE
000364: 37,2754           00005                          OCT      5
000365:
000366: 37,2755           34702                          CAF      BIT9
000367: 37,2756           00006                          EXTEND
000368: 37,2757           05011                          WOR      DSALMOUT                              #  TURN TEST CONNECTOR OUTBIT ON
000369:
000370: 37,2760           15213                          TCF      TASKOVER                              #  END PREVIOUS READACCS WAITLIST TASK
000371:
000372:                                                                                                 #  Page 784
000373: 37,2761           00006        AVEGOUT           EXTEND
000374: 37,2762           32766                          DCA      AVOUTCAD
000375: 37,2763           53223                          DXCH     AVGEXIT
000376: 37,2764           12746                          TCF      MAKESERV
000377:
000378: 37,2765  E7,1431                                 EBANK=   DVCNTR
000379: 37,2765           03070 76067  AVOUTCAD          2CADR    AVGEND
000380:
000381:                                                                                                 #  Page 785
000382:                                                                                                 #  ROUTINE NAME:  ONMNITOR
000383:                                                                                                 #  MOD 04 BY BAIRNSFATHER 30 APR 1968     REDO ONMNITOR TO SAVE PIPS EACH 0.5 SEC FOR TM,ENTRY.
000384:                                                                                                 #  MOD 03 BY FISHER DECEMBER 1967
000385:                                                                                                 #  MOD 02 BY RYE SEPT 1967
000386:                                                                                                 #  MOD 01 BY KOSMALA 23 MAR 1967
000387:                                                                                                 #  MOD 00 BY KOSMALA 27 FEB 1967
000388:
000389:                                                                                                 #  FUNCTIONAL DESCRIPTION
000390:
000391:                                                                                                 #         THE PURPOSE OF ONMONITOR IS TO PROVIDE 1/2 SEC. READING OF PIPAS FOR DOWNLIST DURING ENTRY.
000392:                                                                                                 #         X,Y,XPIPBUF CONTAIN PRESET VALUES X,Y,ZOLDBUF CONTAIN VALUES FROM PREVIOUS READING.
000393:
000394:                                                                                                 #  CALLING SEQUENCE
000395:
000396:                                                                                                 #         CALL AS WAITLIST TASK. TERMINATES ITSELF IN TASKOVER
000397:
000398:                                                                                                 #  INITIALIZATION
000399:
000400:                                                                                                 #         PIPCTR = 2 (FOR DT = 0.5 SEC)
000401:                                                                                                 #         X,Y,ZPIPBUF SET TO PREVIOUS PIPAX,Y,Z
000402:
000403:                                                                                                 #  OUTPUT
000404:
000405:                                                                                                 #         X,Y,ZPIPBUF, X,Y,ZOLDBUF
000406:
000407:                                                                                                 #  DEBRIS
000408:
000409:                                                                                                 #         X,Y,ZPIPBUF CONTAIN LAST PIPAX,Y,Z VALUES
000410:                                                                                                 #                 X,Y,ZOLDBUF CONTAIN LAST-BUT-ONE PIPAX,Y,Z VALUES
000411:                                                                                                 #         RUPTREG1
000412:                                                                                                 #         PIPCTR
000413:
000414: 37,2767           55227        ONMNITOR          TS       PIPCTR
000415:
000416: 37,2770           05156                          TC       FIXDELAY                              #  WAIT
000417: 37,2771           00062        0.5SEC            DEC      50         B-14
000418:
000419: 37,2772           34711        QUIKREAD          CAF      TWO
000420: 37,2773           54070                          TS       RUPTREG1
000421: 37,2774           50000                          INDEX    A
000422: 37,2775           30037                          CA       PIPAX                                 #  SAVE ACTUAL PIPAS FOR TM.
000423: 37,2776           50070                          INDEX    RUPTREG1
000424: 37,2777           57533                          XCH      XPIPBUF                               #  UPDATE X,Y,ZPIPBUF
000425: 37,3000           50070                          INDEX    RUPTREG1
000426: 37,3001           55536                          TS       XOLDBUF                               #  AND X,Y,ZOLDBUF
000427: 37,3002           10070        CHKCTR            CCS      RUPTREG1
000428: 37,3003           12773                          TCF      QUIKREAD   +1                         #  LOOP AGAIN
000429: 37,3004           11227                          CCS      PIPCTR
000430: 37,3005           12767                          TCF      ONMNITOR
000431: 37,3006           05213                          TC       TASKOVER
000432:
000433:                                                                                                 #  Page 786
000434:                                                                                                 #  ********************* SERVICER ***************************************
000435:
000436: 37,3007  E7,1431                                 EBANK=   DVCNTR
000437:
000438: 37,3007           34711        SERVICER          CAF      TWO
000439: 37,3010           00004                          INHINT
000440: 37,3011           54070        PIPCHECK          TS       RUPTREG1
000441:
000442: 37,3012           60000                          DOUBLE
000443: 37,3013           50000                          INDEX    A
000444: 37,3014           11162                          CCS      DELVX
000445: 37,3015           03017                          TC       +2
000446: 37,3016           03025                          TC       PIPLOOP
000447:
000448: 37,3017           63135                          AD       -MAXDELV                              #  DO PIPA-SATURATION TEST BEFORE
000449: 37,3020           00006                          EXTEND
000450: 37,3021           63025                          BZMF     PIPLOOP                               #  COMPENSATION.
000451:
000452: 37,3022           05537                          TC       ALARM
000453: 37,3023           00205                          OCT      00205                                 #  SATURATED-PIPA ALARM   ***CHANGE LATER
000454: 37,3024           03046                          TC       AVERAGEG
000455:
000456: 37,3025           10070        PIPLOOP           CCS      RUPTREG1
000457: 37,3026           13011                          TCF      PIPCHECK
000458:
000459: 37,3027           05301                          TC       PHASCHNG                              #  RESTART REREADAC + SERVICER
000460: 37,3030           16035                          OCT      16035
000461: 37,3031           20000                          OCT      20000
000462: 37,3032  E7,1431                                 EBANK=   DVCNTR
000463: 37,3032           03036 76067                    2CADR    DVTOTUP
000464:
000465: 37,3034           04555                          TC       BANKCALL                              #  PIPA COMPENSATION CALL
000466: 37,3035           15262                          CADR     1/PIPA
000467:
000468: 37,3036           06006        DVTOTUP           TC       INTPRET
000469: 37,3037           51575                          VLOAD    ABVAL                                 #  GET ABS VALUE OF DELV
000470: 37,3040           01163                                   DELV
000471: 37,3041           77405                          DMP      EXIT
000472: 37,3042           37354                                   KPIP1                                 #  SCALE AT 2(+7)
000473:
000474: 37,3043           00006                          EXTEND
000475: 37,3044           30155                          DCA      MPAC
000476: 37,3045           21426                          DAS      DVTOTAL                               #  ACCUMULATE DVTOTAL
000477: 37,3046           05301        AVERAGEG          TC       PHASCHNG
000478: 37,3047           10035                          OCT      10035
000479:
000480: 37,3050           06006                          TC       INTPRET
000481: 37,3051           77624                          CALL
000482:                                                                                                 #  Page 787
000483: 37,3052           77323                                   CALCRVG
000484: 37,3053           77776                          EXIT
000485:
000486: 37,3054           05301                          TC       PHASCHNG
000487: 37,3055           10035                          OCT      10035
000488:
000489: 37,3056           34113                          CAF      OCT31                                 #  COPY RN1,VN1,GOT102,GOBL1/2,PIPTIME1
000490: 37,3057           05475                          TC       GENTRAN                               #  INTO RN, VN, GDT/12, GOBL/2,PIPTIME
000491: 37,3060           01231                          ADRES    RN1
000492: 37,3061           01170                          ADRES    RN
000493: 37,3062           00003                          RELINT                                         #  GENTRAN DOES AN INHINT
000494: 37,3063           05301                          TC       PHASCHNG
000495: 37,3064           10035                          OCT      10035
000496:
000497: 37,3065           00006                          EXTEND
000498: 37,3066           31223                          DCA      AVGEXIT
000499: 37,3067           52006                          DXCH     Z                                     #  AVERAGEG EXIT
000500:
000501: 37,3070           31205        AVGEND            CA       PIPTIME    +1                         #  FINAL AVERAGE G EXIT
000502: 37,3071           55074                          TS       OLDBT1                                #  SET UP FREE FALL GYRO COMPENSATION
000503:
000504: 37,3072           05435                          TC       UPFLAG                                #  SET DRIFTFLG
000505: 37,3073           00036                          ADRES    DRIFTFLG                              #  BIT 15 FLAG 2
000506: 37,3074           05261                          TC       2PHSCHNG
000507: 37,3075           00005                          OCT      5                                     #  GROUP 5 OFF
000508: 37,3076           05022                          OCT      05022                                 #  GROUP 2 ON FOR AVETOMID
000509: 37,3077           20000                          OCT      20000
000510:
000511: 37,3100           06006                          TC       INTPRET
000512: 37,3101           77624                          CALL
000513: 37,3102           27472                                   AVETOMID                              #  CONVERT STATE VECTOR TO REFERENCE SCALE.
000514: 37,3103           77776                          EXIT
000515:
000516: 37,3104           34714                          CAF      ZERO                                  #  ZERO MARK COUNTERS.
000517: 37,3105           55125                          TS       VHFCNT
000518: 37,3106           55126                          TS       TRKMKCNT
000519:
000520: 37,3107           04555                          TC       BANKCALL
000521: 37,3110           17112                          CADR     PIPFREE
000522:
000523: 37,3111           44702                          CS       BIT9
000524: 37,3112           55734                          TS       MRKBUF2                               #  INVALIDATE MARK BUFFER
000525: 37,3113           00006                          EXTEND
000526: 37,3114           03011                          WAND     DSALMOUT
000527:
000528: 37,3115           05447                          TC       DOWNFLAG
000529: 37,3116           00147                          ADRES    CM/DSTBY
000530:
000531: 37,3117           05447                          TC       DOWNFLAG
000532: 37,3120           00162                          ADRES    V37FLAG
000533:
000534:                                                                                                 #  Page 788
000535: 37,3121           34704                          CAF      BIT7                                  #  RESTORE GROUP 1 + 2 IF P20 IS RUNNING.
000536: 37,3122           70074                          MASK     FLAGWRD0
000537: 37,3123           00006                          EXTEND
000538: 37,3124           13130                          BZF      +4
000539:
000540: 37,3125           05261                          TC       2PHSCHNG
000541: 37,3126           00111                          OCT      111                                   #  1.11SPOT
000542: 37,3127           00132                          OCT      132                                   #  2.13SPOT
000543:
000544: 37,3130           04574                          TC       POSTJUMP
000545: 37,3131           10123                          CADR     CANV37
000546:
000547: 37,3132           05301        SERVEXIT          TC       PHASCHNG
000548: 37,3133           00035                          OCT      00035                                 #  A, 5.3 = REREADAC      (ONLY)
000549:
000550: 37,3134           15112                          TCF      ENDOFJOB
000551:
000552: 37,3135     4717               DVTHRUSH          EQUALS   ELEVEN                                #  15 PERCENT OF 2SEC PIPA ACCUMULATION,
000553:                                                                                                 #         FOR 503-FULL CSM/LEM....DELV SC.AT
000554:                                                                                                 #         5.85 CM/SEC.
000555:
000556: 37,3135           63401        -MAXDELV          DEC      -6398      B-14                       #  3200 PPS FOR 2 SEC CCS TAKES 1
000557: 37,3136           00170        JTAGTIME          DEC      120        B-14                       #  = 1 SEC + T CDU, T CDU = .1 SEC
000558:
000559: 37,3137           00372        2.5SEC            DEC      250        B-14
000560: 37,3140           00044        MDOTFAIL          DEC      144.0      B-16                       #  5 SEC MASS LOSS AT 28.8 KG/SEC
000561:                                                                                                 #  SHOULD BE 2-4 SECS FOR NO START
000562:                                                                                                 #             6-8 SECS FOR FAILURE
000563:
000564:                                                                                                 #  Page 789
000565:                                                                                                 #  NORMLIZE PERFORMS THE INITIALIZATION REQUIRED PRIOR TO THE FIRST ENTRY TO AVERAGEG, AND SCALES RN SO THAT IT
000566:                                                                                                 #  HAS 1 LEADING BINARY ZERO.  IN MOST MISSIONS, RN WILL BE SCALED AT 2(+29), BUT IN THE 206 MISSION, RN WILL BE
000567:                                                                                                 #  SCALED AT 2(+24) M.
000568:
000569: 37,3141           34720        NORMLIZE          CAF      THIRTEEN                              #  SET UP TO COPY 14 REGS: RN1,VN1,PIPTIME1
000570: 37,3142           05475                          TC       GENTRAN                               #  INTO RN,VN,PIPTIME
000571: 37,3143           01231                          ADRES    RN1                                   #  FROM HERE
000572: 37,3144           01170                          ADRES    RN                                    #  TO HERE
000573:
000574: 37,3145           00003                          RELINT
000575: 37,3146           06006                          TC       INTPRET
000576: 37,3147           45175                          VLOAD    CALL                                  #  LOAD RN FOR CALCGRAV
000577: 37,3150           01171                                   RN
000578: 37,3151           77256                                   CALCGRAV                              #  INITIALIZE UNITR RMAG GDT1
000579:
000580: 37,3152           25207                          STOVL    GDT/2
000581: 37,3153           01256                                   GOBL1/2
000582: 37,3154           01215                          STORE    GOBL/2
000583: 37,3155           77776                          EXIT
000584: 37,3156           15112                          TCF      ENDOFJOB
000585:
000586:                                                                                                 #  Page 790
000587:                                                                                                 #  *****  PIPA READER *****
000588:                                                                                                 #  MOD NO. 00 BY D. LICKLY DEC. 9 1966
000589:
000590:                                                                                                 #  FUNCTIONAL DESCRIPTION
000591:
000592:                                                                                                 #  SUBROUTINE TO READ PIPA COUNTERS, TRYING TO BE VERY CAREFUL SO THAT IT WILL BE RESTARTABLE.
000593:                                                                                                 #  PIPA READINGS ARE STORED IN THE VECTOR DELV.  THE HIGH ORDER PART OF EACH COMPONENT CONTAINS THE PIPA READING,
000594:                                                                                                 #  RESTARTS BEGIN AT REREADAC.
000595:
000596:                                                                                                 #  AT THE END OF THE PIPA READER THE CDUS ARE READ AND STORED AS A
000597:                                                                                                 #  VECTOR IN CDUTEMP.  THE HIGH ORDER PART OF EACH COMPONENT CONTAINS
000598:                                                                                                 #  THE CDU READING IN 2'S COMP IN THE ORDER CDUX,Y,Z.  THE THRUST
000599:                                                                                                 #  VECTOR ESTIMATOR IN FINDCDUD REQUIRES THE CDUS BE READ AT PIPTIME.
000600:
000601:                                                                                                 #  CALLING SEQUENCE AND EXIT
000602:
000603:                                                                                                 #         CALL VIA TC, ISWCALL, ETC.
000604:
000605:                                                                                                 #         EXIT IS VIA Q.
000606:
000607:                                                                                                 #  INPUT
000608:
000609:                                                                                                 #         INPUT IS THROUGH THE COUNTERS PIPAX, PIPAY, PIPAZ, AND TIME2.
000610:
000611:                                                                                                 #  OUTPUT
000612:
000613:                                                                                                 #         HIGH ORDER COMPONENTS OF THE VECTOR DELV CONTAIN THE PIPA READINGS.
000614:
000615:                                                                                                 #         PIPTIME CONTAINS TIME OF PIPA READING.
000616:
000617:                                                                                                 #  DEBRIS
000618:
000619:                                                                                                 #         LOW ORDER COMPONENTS OF THE VECTOR DELV CONTAIN THE PIPA READINGS.
000620:                                                                                                 #         TEMX    TEMY    TEMZ    PIPAGE
000621:
000622: 37,3157           00006        PIPASR            EXTEND
000623: 37,3160           30025                          DCA      TIME2
000624: 37,3161           53246                          DXCH     PIPTIME1                              #  CURRENT TIME   POSITIVE VALUE
000625: 37,3162           44714                          CS       ZERO                                  #  INITIALIZAE THESE AT NEG ZERO.
000626: 37,3163           55224                          TS       TEMX
000627: 37,3164           55225                          TS       TEMY
000628: 37,3165           55226                          TS       TEMZ
000629:                                                                                                 #  Page 791
000630: 37,3166           34714                          CA       ZERO
000631: 37,3167           55166                          TS       DELVZ                                 #  OTHER DELVS OK INCLUDING LOW ORDER
000632: 37,3170           55164                          TS       DELVY
000633:
000634: 37,3171           55163                          TS       DELVX      +1                         #  LOW ORDER DELV'S ARE ZEROED FOR TM:  THIS
000635: 37,3172           55165                          TS       DELVY      +1                         #  IF DNLNK=D LOW ORDER DELVS ARE NZ, THEY
000636: 37,3173           55167                          TS       DELVZ      +1                         #  CONTAIN PROPER COMPENSATION.  IF=0, THEN
000637:                                                                                                 #  THE TM VALUES ARE BEFORE COMPENSATION.
000638:
000639: 37,3174           55230                          TS       PIPAGE                                #  SHOW PIPA READING IN PROGRESS
000640:
000641: 37,3175           00006        REPIP1            EXTEND
000642: 37,3176           40040                          DCS      PIPAX                                 #  X AND Y PIPS READ
000643: 37,3177           53225                          DXCH     TEMX
000644: 37,3200           52040                          DXCH     PIPAX                                 #  PIPAS SET TO NEG ZERO AS READ.
000645: 37,3201           55162                          TS       DELVX
000646: 37,3202           23164                          LXCH     DELVY
000647:
000648: 37,3203           40041        REPIP3            CS       PIPAZ                                 #  REPEAT PROCESS FOR Z PIP
000649: 37,3204           57226                          XCH      TEMZ
000650: 37,3205           56041                          XCH      PIPAZ
000651: 37,3206           55166        DODELVZ           TS       DELVZ
000652:
000653: 37,3207           00002                          TC       Q
000654: 37,3210  E6,1661                                 EBANK=   AOG
000655:
000656: 37,3210           10763        REREADAC          CCS      PHASE5                                #  LAST PASS CHECK
000657: 37,3211           13213                          TCF      +2
000658: 37,3212           15213                          TCF      TASKOVER
000659:
000660: 37,3213           37665                          CAF      PRIO31                                #  RESTART MAY HAVE WIPED OUT LASTBIAS, AN
000661: 37,3214           55074                          TS       1/PIPADT                              #         UNPROTECTED NOVAC FROM PREREAD,
000662:                                                                                                 #         WHICH SET(S) UP 1/PIPADT (THUSLY)
000663:                                                                                                 #         FOR NON-COASTING COMPENSATION....BE
000664:                                                                                                 #         SURE 1/PIPADT IS AOK.  (PRIO31 IS
000665:                                                                                                 #         2.0SEC SC.AT B+8(CS)
000666:
000667: 37,3215           11230                          CCS      PIPAGE
000668: 37,3216           12647                          TCF      READACCS                              #  PIP READING NOT STARTED.  GO TO BEGINNING
000669:
000670: 37,3217           33255                          CAF      DONEADR                               #  SET UP RETURN FROM PIPASR
000671: 37,3220           54002                          TS       Q
000672:
000673: 37,3221           11166                          CCS      DELVZ
000674: 37,3222           00002                          TC       Q                                     #  Z DONE, GO DO CDUS
000675: 37,3223           13226                          TCF      +3                                    #  Z NOT DONE, CHECK Y.
000676: 37,3224           00002                          TC       Q
000677: 37,3225           00002                          TC       Q
000678:                                                                                                 #  Page 792
000679: 37,3226           22007                          ZL
000680: 37,3227           11164                          CCS      DELVY
000681: 37,3230           13233                          TCF      +3
000682: 37,3231           13242                          TCF      CHKTEMX                               #  Y NOT DONE, CHECK X.
000683: 37,3232           13233                          TCF      +1
000684: 37,3233           22041                          LXCH     PIPAZ                                 #  Y DONE, ZERO Z PIP.
000685:
000686: 37,3234           11226                          CCS      TEMZ
000687: 37,3235           41226                          CS       TEMZ                                  #  TEMZ NOT = -0, CONTAINS -PIPAZ VALUE.
000688: 37,3236           13206                          TCF      DODELVZ
000689: 37,3237           13235                          TCF      -2
000690: 37,3240           23166                          LXCH     DELVZ                                 #  TEMZ = -0, L HAS ZPIP VALUE.
000691: 37,3241           00002                          TC       Q
000692:
000693: 37,3242           11224        CHKTEMX           CCS      TEMX                                  #  HAS THIS CHANGED
000694: 37,3243           41224                          CS       TEMX                                  #  YES
000695: 37,3244           13247                          TCF      +3                                    #  YES
000696: 37,3245           13243                          TCF      -2                                    #  YES
000697: 37,3246           13175                          TCF      REPIP1                                #  NO
000698: 37,3247           55162                          TS       DELVX
000699:
000700: 37,3250           41225                          CS       TEMY
000701: 37,3251           55164                          TS       DELVY
000702:
000703: 37,3252           44714                          CS       ZERO                                  #  ZERO X AND Y PIPS
000704: 37,3253           52040                          DXCH     PIPAX                                 #  L STILL ZERO FROM ABOVE
000705:
000706: 37,3254           13203                          TCF      REPIP3
000707:
000708: 37,3255           02650        DONEADR           GENADR   PIPSDONE
000709:
000710:                                                                                                 #  Page 793
000711:                                                                                                 # *********************************************************************************************
000712:
000713:                                                                                                 #  ROUTINE CALCRVG INTEGRATES THE EQUATIONS OF MOTION BY AVERAGING THE THRUST AND GRAVITATIONAL
000714:                                                                                                 #  ACCELERATIONS OVER A TIME INTERVAL OF 2 SECONDS.
000715:
000716:                                                                                                 #  FOR THE EARTH-CENTERED GRAVITATIONAL FIELD, THE PERTURBATION DUE TO OBLATENESS IS COMPUTED TO THE FIRST
000717:                                                                                                 #  HARMONIC COEFFICIENT J.
000718:
000719:                                                                                                 #  ROUTINE CALCRVG REQUIRES...
000720:                                                                                                 #         1) THRUST ACCELERATION INCREMENTS IN DELV SCALED SAME AS PIPAX,Y,Z IN STABLE MEMBER COORDS.
000721:                                                                                                 #         2) VN SCALED 2(+7) M/CS IN REFERENCE COORDS.
000722:                                                                                                 #         3) RN SCALED AT 2(+29) METERS IN REFERENCE COORDS.
000723:                                                                                                 #         4) UNITW THE EARTH'S UNIT ROTATIONAL VECTOR (SCALED AS A FULL UNIT VECTOR) IN REFERENCE COORDS.
000724:
000725:                                                                                                 #  IT LEAVES RN1 UPDATED (SCALED AT 2(+29)M, VN1 (SCALED AT 2(+7)M/CS), AND GDT1/2 (SCALED AT 2(+7)M/CS). ALSO HALF
000726:                                                                                                 #  UNIT VECTOR UNITR, RMAG IN 36D SCALED AT 2(+29)M, R MAG SQ. IN 34D SCALED AT 2(+58) M SQ.
000727:
000728: 37,3256           41456        CALCGRAV          UNIT     PUSH                                  #  ENTER WITH RN IN MPAC
000729: 37,3257           01760                          STORE    UNITR
000730: 37,3260           67340                          LXC,1    SLOAD
000731: 37,3261           03746                                   RTX2
000732: 37,3262           00047                                   X1
000733: 37,3263           77240                          BMN      VLOAD
000734: 37,3264           77312                                   ITISMOON
000735: 37,3265           41441                          DOT      PUSH
000736: 37,3266           01714                                   UNITW
000737: 37,3267           44316                          DSQ      BDSU
000738: 37,3270           37364                                   DP1/20
000739: 37,3271           56325                          PDDL     DDV
000740: 37,3272           37366                                   RESQ
000741: 37,3273           00043                                   34D                                   #  (RN)SQ
000742: 37,3274           00041                          STORE    32D                                   #  TEMP FOR (RE/RN)SQ
000743: 37,3275           41205                          DMP      DMP
000744: 37,3276           37370                                   20J
000745: 37,3277           65361                          VXSC     PDDL
000746: 37,3300           01760                                   UNITR
000747: 37,3301           41205                          DMP      DMP
000748: 37,3302           37372                                   2J
000749: 37,3303           00041                                   32D
000750: 37,3304           53361                          VXSC     VAD
000751: 37,3305           01714                                   UNITW
000752: 37,3306           77626                          STADR
000753: 37,3307           76521                          STORE    GOBL1/2
000754: 37,3310           41455                          VAD      PUSH
000755: 37,3311           01760                                   UNITR
000756: 37,3312           60345        ITISMOON          DLOAD    NORM
000757: 37,3313           00043                                   34D
000758: 37,3314           00050                                   X2
000759: 37,3315           53663                          BDDV*    SLR*
000760:                                                                                                 #  Page 794
000761: 37,3316           37356                                   -MUDT(E),1
000762: 37,3317           56623                                   0          -21D,2
000763: 37,3320           45561                          VXSC     STADR
000764: 37,3321           76527                          STORE    GDT1/2                                #  SCALED AT 2(+7) M/CS
000765: 37,3322           77616                          RVQ
000766:
000767: 37,3323           74375        CALCRVG           VLOAD    VXSC
000768: 37,3324           01163                                   DELV
000769: 37,3325           37354                                   KPIP1
000770: 37,3326           76505                          VXM      VSL1
000771: 37,3327           01736                                   REFSMMAT
000772: 37,3330           03433                          STORE    DELVREF                               #  DELV IN REF COORDS AT 2(+7)
000773: 37,3331           41562                          VSR1     PUSH
000774: 37,3332           41455                          VAD      PUSH                                  #  (DV-OLDGDT)/2 TO PD SCALED AT 2(+7)M/CS
000775: 37,3333           01207                                   GDT/2
000776: 37,3334           74255                          VAD      VXSC
000777: 37,3335           01177                                   VN
000778: 37,3336           37362                                   2SEC(22)
000779: 37,3337           44055                          VAD      STQ
000780: 37,3340           01171                                   RN
000781: 37,3341           00037                                   31D
000782: 37,3342           35232                          STCALL   RN1                                   #  TEMP STORAGE OF RN SCALED 2(+29)M
000783: 37,3343           77256                                   CALCGRAV
000784:
000785: 37,3344           53255                          VAD      VAD
000786: 37,3345           77655                          VAD
000787: 37,3346           01177                                   VN
000788: 37,3347           35240                          STCALL   VN1                                   #  TEMP STORAGE OF VN SCALED 2(+7) M/CS.
000789: 37,3350           00037                                   31D
000790:
000791: 37,3351           03215 27057  KPIP              2DEC     .1024                                 #  SCALES DELV TO 2(+4)
000792: 37,3353           02312 32537  KPIP1             2DEC     0.074880                              #  207 DELV SCALING.  1 PULSE = 5.85 CM/SEC.
000793: 37,3355           61377 55754  -MUDT(E)          2DEC*    -7.9720645 E+12       B-44*
000794: 37,3357           77644 65556  -MUDT(M)          2DEC*    -9.805556  E+10       B-44*
000795: 37,3361           00000 31000  2SEC(22)          2DEC     200        B-22
000796: 37,3363           01463 06315  DP1/20            2DEC     0.05
000797: 37,3365           00001 05000  RESQ              2DEC*    40.6809913 E12        B-59*
000798: 37,3367           02047 36332  20J               2DEC*    3.24692010 E-2        B1*
000799: 37,3371           00152 14511  2J                2DEC*    3.24692010 E-3        B1*
000800:

End of include-file SERVICER207.agc.  Parent file is MAIN.agc


