
Source Code
000001:                                                                                                 #  Copyright:     Public domain.
000002:                                                                                                 #  Filename:      SERVICE_ROUTINES.agc
000003:                                                                                                 #  Purpose:       Part of the source code for Colossus, build 249.
000004:                                                                                                 #                 It is part of the source code for the Command Module's (CM)
000005:                                                                                                 #                 Apollo Guidance Computer (AGC), possibly for Apollo 8 and 9.
000006:                                                                                                 #  Assembler:     yaYUL
000007:                                                                                                 #  Reference:     Starts on p. 1475 of 1701.pdf.
000008:                                                                                                 #  Contact:       Ron Burkey <info@sandroid.org>.
000009:                                                                                                 #  Website:       www.ibiblio.org/apollo.
000010:                                                                                                 #  Mod history:   08/30/04 RSB.   Adapted from corresponding Luminary131 file.
000011:
000012:                                                                                                 #  The contents of the "Colossus249" files, in general, are transcribed
000013:                                                                                                 #  from a scanned document obtained from MIT's website,
000014:                                                                                                 #  http://hrst.mit.edu/hrs/apollo/public/archive/1701.pdf.  Notations on this
000015:                                                                                                 #  document read, in part:
000016:
000017:                                                                                                 #         Assemble revision 249 of AGC program Colossus by NASA
000018:                                                                                                 #         2021111-041.  October 28, 1968.
000019:
000020:                                                                                                 #         This AGC program shall also be referred to as
000021:                                                                                                 #                                 Colossus 1A
000022:
000023:                                                                                                 #         Prepared by
000024:                                                                                                 #                         Massachussets Institute of Technology
000025:                                                                                                 #                         75 Cambridge Parkway
000026:                                                                                                 #                         Cambridge, Massachusetts
000027:                                                                                                 #         under NASA contract NAS 9-4065.
000028:
000029:                                                                                                 #  Refer directly to the online document mentioned above for further information.
000030:                                                                                                 #  Please report any errors (relative to 1701.pdf) to info@sandroid.org.
000031:
000032:                                                                                                 #  In some cases, where the source code for Luminary 131 overlaps that of
000033:                                                                                                 #  Colossus 249, this code is instead copied from the corresponding Luminary 131
000034:                                                                                                 #  source file, and then is proofed to incorporate any changes.
000035:
000036:                                                                                                 #  Page 1475
000037:    7717                                          BLOCK    3
000038:    6000                                          SETLOC   FFTAG6
000039:    6000                                          BANK
000040:    7717                                          COUNT    03/FLAG
000041:
000042:    7717           54001        UPENT2            TS       L                                     #  WHICH FLAGWORD IS IT
000043:    7720           74716                          MASK     OCT7
000044:    7721           56001                          XCH      L                                     #  SAVE IN L FOR INDEXING
000045:
000046:    7722           75630                          MASK     OCT77770                              #  OBTAIN THE BIT INFORMATION
000047:    7723           00004                          INHINT                                         #  PREVENT INTERRUPTS
000048:    7724           54061                          TS       ITEMP1                                #  STORE THE BIT INFORMATION TEMPORARILY
000049:
000050:    7725           50001                          NDX      L
000051:    7726           40074                          CS       FLAGWRD0
000052:    7727           70061                          MASK     ITEMP1
000053:    7730           50001                          NDX      L
000054:    7731           26074                          ADS      FLAGWRD0
000055:    7732           00003                          RELINT                                         #  RELEASE INTERRUPT INHIBIT
000056:
000057:    7733           24002                          INCR     Q                                     #  OBTAIN THE CORRECT RETURN ADDRESS
000058:    7734           00002                          TC       Q                                     #  RETURN
000059:
000060:    7735           54001        DOWNENT2          TS       L                                     #  WHICH FLAGWORD IS IT
000061:    7736           74716                          MASK     OCT7
000062:    7737           56001                          XCH      L                                     #  SAVE IN L FOR INDEXING
000063:
000064:    7740           75630                          MASK     OCT77770                              #  OBTAIN THE BIT INFORMATION
000065:    7741           40000                          COM                                            #  START TO PROCESS THE INFORMATION
000066:
000067:    7742           00004                          INHINT                                         #  PREVENT INTERRUPTS
000068:    7743           50001                          NDX      L
000069:    7744           70074                          MASK     FLAGWRD0
000070:    7745           50001                          NDX      L
000071:    7746           54074                          TS       FLAGWRD0
000072:    7747           00003                          RELINT                                         #  RELEASE INTERRUPT INHIBIT
000073:
000074:    7750           24002                          INCR     Q                                     #  OBTAIN THE CORRECT RETURN ADDRESS
000075:    7751           00002                          TC       Q
000076:
000077:    7752     4716               OCT7              EQUALS   SEVEN
000078: 10,3671                                          BANK     10
000079:
000080:                                                                                                 #  Page 1476
000081:                                                                                                 #  UPFLAG AND DOWNFLAG ARE ENTIRELY GENERAL FLAG SETTING AND CLEARING SUBROUTINES.  USING THEM, WHETHER OR
000082:                                                                                                 #  NOT IN INTERRUPT, ONE MAY SET OR CLEAR ANY SINGLE, NAMED BIT IN ANY ERASABLE REGISTER, SUBJECT OF COURSE TO
000083:                                                                                                 #  EBANK SETTING.  A "NAMED" BIT, AS THE WORD IS USED HERE, IS ANY BIT WITH A NAME FORMALLY ASSIGNED BY THE YUL
000084:                                                                                                 #  ASSEMBLER.
000085:
000086:                                                                                                 #  AT PRESENT THE ONLY NAMED BITS ARE THOSE IN THE FLAGWORDS.  ASSEMBLER CHANGES WILL MAKE IT POSSIBLE TO
000087:                                                                                                 #  NAME ANY BIT IN ERASABLE MEMORY.
000088:
000089:                                                                                                 #  CALLING SEQUENCES ARE AS FOLLOWS --
000090:                                                                                                 #                 TC      UPFLAG                  TC      DOWNFLAG
000091:                                                                                                 #                 ADRES   NAME OF FLAG            ADRES   NAME OF FLAG
000092:
000093:                                                                                                 #  RETURN IS TO THE LOCATION FOLLOWING THE "ADRES" ABOUT .58 MS AFTER THE "TC".
000094:                                                                                                 #  UPON RETURN A CONTAINS THE CURRENT FLAGWRD SETTING.
000095:
000096:    5435                                          BLOCK    02
000097:    4000                                          SETLOC   FFTAG1
000098:    4000                                          BANK
000099:    5435                                          COUNT*   $$/FLAG
000100:
000101:    5435           30002        UPFLAG            CA       Q
000102:    5436           05453                          TC       DEBIT
000103:    5437           40000                          COM                                            #  +(15 - BIT)
000104:    5440           00006                          EXTEND
000105:    5441           04001                          ROR      LCHAN                                 #  SET BIT
000106:    5442           50061        COMFLAG           INDEX    ITEMP1
000107:    5443           54074                          TS       FLAGWRD0
000108:    5444           22063                          LXCH     ITEMP3
000109:    5445           00003                          RELINT
000110:    5446           00001                          TC       L
000111:
000112:    5447           30002        DOWNFLAG          CA       Q
000113:    5450           05453                          TC       DEBIT
000114:    5451           70001                          MASK     L                                     #  RESET BIT
000115:    5452           15442                          TCF      COMFLAG
000116:
000117:    5453           64712        DEBIT             AD       ONE                                   #  CET DE BITS
000118:    5454           00004                          INHINT
000119:    5455           54063                          TS       ITEMP3
000120:    5456           34721                          CA       LOW4                                  #  DEC15
000121:    5457           54061                          TS       ITEMP1
000122:    5460           50063                          INDEX    ITEMP3
000123:    5461           27777                          CA       0          -1                         #  ADRES
000124:    5462           54001                          TS       L
000125:    5463           34714                          CA       ZERO
000126:                                                                                                 #  Page 1477
000127:    5464           00006                          EXTEND
000128:    5465           10061                          DV       ITEMP1                                #  A = FLAGWRD, L = (15 - BIT)
000129:    5466           52062                          DXCH     ITEMP1
000130:    5467           50061                          INDEX    ITEMP1
000131:    5470           30074                          CA       FLAGWRD0
000132:    5471           54001                          TS       L                                     #  CURRENT STATE
000133:    5472           50062                          INDEX    ITEMP2
000134:    5473           44674                          CS       BIT15                                 #  -(15 - BIT)
000135:    5474           00002                          TC       Q
000136:
000137:                                                                                                 #  Page 1478
000138:                                                                                                 #  DELAYJOB -- A GENERAL ROUTINE TO DELAY A JOB A SPECIFIC AMOUNT OF TIME BEFORE PICKING UP AGAIN.
000139:
000140:                                                                                                 #  ENTRANCE REQUIREMENTS ...
000141:                                                                                                 #                 CAF     DT              # DELAY JOB FOR DT CENTISECS
000142:                                                                                                 #                 TC      BANKCALL
000143:                                                                                                 #                 CADR    DELAYJOB
000144:
000145: 06,3651                                          BANK     06
000146: 00,2000                                          SETLOC   DLAYJOB
000147: 00,2000                                          BANK
000148:
000149:                                                                                                 #  THIS MUST REMAIN IN BANK 0 ****************************************
000150:
000151: 00,3732                                          COUNT    00/DELAY
000152:
000153: 00,3732           00004        DELAYJOB          INHINT
000154: 00,3733           54002                          TS       Q                                     #  STORE DELAY DT IN Q FOR DLY -1 IN
000155: 00,3734           36214                          CAF      DELAYNUM                              #  WAITLIST
000156: 00,3735           54070        DELLOOP           TS       RUPTREG1
000157: 00,3736           50000                          INDEX    A
000158: 00,3737           31141                          CA       DELAYLOC                              #  IS THIS DELAYLOC AVAILABLE
000159: 00,3740           00006                          EXTEND
000160: 00,3741           13746                          BZF      OK2DELAY                              #  YES
000161:
000162: 00,3742           10070                          CCS      RUPTREG1                              #  NO, TRY NEXT DELAYLOC
000163: 00,3743           13735                          TCF      DELLOOP
000164:
000165: 00,3744           05604                          TC       BAILOUT                               #  NO AVAILABLE LOCS.
000166: 00,3745           01104                          OCT      1104
000167:
000168: 00,3746           33766        OK2DELAY          CA       TCSLEEP                               #  SET WAITLIST IMMEDIATE RETURN
000169: 00,3747           54061                          TS       WAITEXIT
000170:
000171: 00,3750           30004                          CA       FBANK
000172: 00,3751           60070                          AD       RUPTREG1                              #  STORE BBANK FOR TASK CALL
000173: 00,3752           54001                          TS       L
000174:
000175: 00,3753           33767                          CAF      WAKECAD                               #  STORE CADR FOR TASK CALL
000176: 00,3754           15146                          TCF      DLY2       -1                         #  DLY IS IN WAITLIST ROUTINE
000177:
000178: 00,3755           04604        TCGETCAD          TC       MAKECADR                              #  GET CALLER'S FCADR
000179:
000180: 00,3756           50070                          INDEX    RUPTREG1
000181: 00,3757           55141                          TS       DELAYLOC                              #  SAVE DELAY CADRS
000182:
000183: 00,3760           05070                          TC       JOBSLEEP
000184:
000185: 00,3761           34714        WAKER             CAF      ZERO
000186: 00,3762           50006                          INDEX    BBANK
000187: 00,3763           57141                          XCH      DELAYLOC                              #  MAKE DELAYLOC AVAILABLE
000188:                                                                                                 #  Page 1479
000189: 00,3764           05074                          TC       JOBWAKE
000190:
000191: 00,3765           05213                          TC       TASKOVER
000192:
000193: 00,3766           03753        TCSLEEP           GENADR   TCGETCAD   -2
000194: 00,3767           03761        WAKECAD           GENADR   WAKER
000195:
000196:                                                                                                 #  Page 1480
000197:                                                                                                 #  GENTRAN, A BLOCK TRANSFER ROUTINE
000198:                                                                                                 #  WRITTEN BY D. EYLES
000199:                                                                                                 #  MOD 1 BY KERNAN                                UTILITYM REV 17 11/18/67
000200:                                                                                                 #  MOD 2 BY SCHULENBERG -- (REMOVE RELINT) -- SKIPPER REV 4 2/28/68
000201:
000202:                                                                                                 #  THIS ROUTINE IS USEFUL FOR TRANSFERRING N CONSECUTIVE ERASABLE OR FIXED QUANTITIES TO SOME OTHER N
000203:                                                                                                 #  CONSECUTIVE ERASABLE LOCATIONS.  IF BOTH BLOCKS OF DATA ARE IN SWITCHABLE EBANKS, THEY MUST BE IN THE SAME ONE.
000204:
000205:                                                                                                 #  GENTRAN IS CALLABLE IN A JOB AS WELL AS A RUPT.  THE CALLING SEQUENCE IS:
000206:                                                                                                 #         I       CA      N-1             # NUMBER OF QUANTITIES MINUS ONE.
000207:                                                                                                 #         I +1    TC      GENTRAN         # IN FIXED-FIXED.
000208:                                                                                                 #         I +2    ADRES   L               # STARTING ADRES OF DATA TO BE MOVED.
000209:                                                                                                 #         I +3    ADRES   M               # STARTING ADRES OF DUPLICATION BLOCK.
000210:                                                                                                 #         I +4                            # RETURNS HERE.
000211:
000212:                                                                                                 #  GENTRAN TAKES 25 MCT'S (300 MICROSECONDS) PER ITEM + 5 MCT'S (60 MICS) FOR ENTERING AND EXITING.
000213:                                                                                                 #  A, L, AND ITEMP1 ARE NOT PRESERVED.
000214:
000215:    5475                                          BLOCK    02
000216:    4000                                          SETLOC   FFTAG4
000217:    4000                                          BANK
000218:
000219:    5475     0061                                 EBANK=   ITEMP1
000220:
000221:    5475                                          COUNT*   $$/TRAN
000222:
000223:    5475           00004        GENTRAN           INHINT
000224:    5476           54061                          TS       ITEMP1                                #  SAVE N-1
000225:    5477           50002                          INDEX    Q                                     #  C(Q) = ADRES L.
000226:    5500           60000                          AD       0                                     #  ADRES (L + N - 1).
000227:    5501           50000                          INDEX    A
000228:    5502           30000                          CA       0                                     #  C(ABOVE).
000229:    5503           54001                          TS       L                                     #  SAVE DATA.
000230:    5504           30061                          CA       ITEMP1
000231:    5505           50002                          INDEX    Q
000232:    5506           60001                          AD       1                                     #  ADRES (M + N - 1).
000233:    5507           50000                          INDEX    A
000234:    5510           22000                          LXCH     0                                     #  STUFF IT.
000235:    5511           10061                          CCS      ITEMP1                                #  LOOP UNTIL N-1 = 0.
000236:    5512           15476                          TCF      GENTRAN    +1
000237:    5513           16710                          TCF      Q+2                                   #  RETURN TO CALLER.
000238:
000239:                                                                                                 #  Page 1481
000240:                                                                                                 #  B5OFF          ZERO BIT 5 OF EXTVBACK, WHICH IS SET BY TESTXACT.
000241:                                                                                                 #  MAY BE USED AS NEEDED BY ANY EXTENDED VERB WHICH HAS DONE TESTXACT
000242:
000243:    5514                                          COUNT*   $$/EXTVB
000244:
000245:    5514           44706        B5OFF             CS       BIT5
000246:    5515           71044                          MASK     EXTVBACT
000247:    5516           55044                          TS       EXTVBACT
000248:    5517           05112                          TC       ENDOFJOB
000249:
000250:                                                                                                 #  Page 1482
000251:                                                                                                 #  SUBROUTINES TO TURNOFF AND TURN ON TRACKER FAIL LIGHT.
000252:
000253:    5520           00004        TRFAILOF          INHINT
000254:    5521           47704                          CS       OCT40200                              #  TURN OFF TRACKER LIGHT
000255:    5522           71036                          MASK     DSPTAB     +11D
000256:    5523           64674                          AD       BIT15
000257:    5524           55036                          TS       DSPTAB     +11D
000258:    5525           41331                          CS       OPTMODES                              #  TO INSURE THAT OCDU FAIL WILL GO ON
000259:    5526           74704                          MASK     BIT7                                  #  AGAIN IF IT WAS ON IN ADDITION TO
000260:    5527           27331                          ADS      OPTMODES                              #  TRACKER FAIL.
000261:
000262:    5530           00003        REQ               RELINT
000263:    5531           00002                          TC       Q
000264:
000265:    5532           00004        TRFAILON          INHINT
000266:    5533           41036                          CS       DSPTAB     +11D                       #  TURN ON
000267:    5534           77704                          MASK     OCT40200
000268:    5535           27036                          ADS      DSPTAB     +11D
000269:    5536           15530                          TCF      REQ
000270:
000271:
000272:
000273:

End of include-file SERVICE_ROUTINES.agc.  Parent file is MAIN.agc


