
Source Code


000002:                                                                                                  ## Copyright:   Public domain.
000003:                                                                                                  ## Filename:    SINGLE_PRECISION_SUBROUTINES.agc
000004:                                                                                                  ## Purpose:     Part of the source code for Colossus, build 249.
000005:                                                                                                  ##              It is part of the source code for the Command Module's (CM)
000006:                                                                                                  ##              Apollo Guidance Computer (AGC), for Apollo 9.
000007:                                                                                                  ## Assembler:   yaYUL
000008:                                                                                                  ## Reference:   p. 1177
000009:                                                                                                  ## Contact:     Ron Burkey <info@sandroid.org>.
000010:                                                                                                  ## Website:     www.ibiblio.org/apollo.
000011:                                                                                                  ## Mod history: 08/29/04 RSB.   Adapted from corresponding Luminary131 file.
000012:                                                                                                  ##              2017-01-06 RSB  Page numbers now agree with those on the
000013:                                                                                                  ##                              original harcopy, as opposed to the PDF page
000014:                                                                                                  ##                              numbers in 1701.pdf.
000015:                                                                                                  ##              2017-01-18 RSB  Cross-diff'd comment text (not whitespace)
000016:                                                                                                  ##                              vs the already-proofed corresponding Colossus
000017:                                                                                                  ##                              237 and Comanche 55 source-code files
000018:                                                                                                  ##                              and corrected errors found.
000019:                                                                                                  ##
000020:                                                                                                  ## The contents of the "Colossus249" files, in general, are transcribed
000021:                                                                                                  ## from a scanned copy of the program listing.  Notations on this
000022:                                                                                                  ## document read, in part:
000023:                                                                                                  ##
000024:                                                                                                  ##      Assemble revision 249 of AGC program Colossus by NASA
000025:                                                                                                  ##      2021111-041.  October 28, 1968.
000026:                                                                                                  ##
000027:                                                                                                  ##      This AGC program shall also be referred to as
000028:                                                                                                  ##                              Colossus 1A
000029:                                                                                                  ##
000030:                                                                                                  ##      Prepared by
000031:                                                                                                  ##                      Massachusetts Institute of Technology
000032:                                                                                                  ##                      75 Cambridge Parkway
000033:                                                                                                  ##                      Cambridge, Massachusetts
000034:                                                                                                  ##      under NASA contract NAS 9-4065.
000035:                                                                                                  ##
000036:                                                                                                  ## Refer directly to the online document mentioned above for further information.
000037:                                                                                                  ## Please report any errors (relative to the scanned pages) to info@sandroid.org.
000038:                                                                                                  ##
000039:                                                                                                  ## In some cases, where the source code for Luminary 131 overlaps that of
000040:                                                                                                  ## Colossus 249, this code is instead copied from the corresponding Luminary 131
000041:                                                                                                  ## source file, and then is proofed to incorporate any changes.
000042:


000044:    4767                                           BLOCK    02
000045:
000046:                                                                                                  #  SINGLE PRECISION SINE AND COSINE
000047:
000048:    4767                                           COUNT    02/INTER
000049:
000050:    4767           64675        SPCOS              AD       HALF                                  #  ARGUMENTS SCALED AT PI
000051:    4770           55075        SPSIN              TS       TEMK
000052:    4771           14773                           TCF      SPT
000053:    4772           41075                           CS       TEMK
000054:    4773           60000        SPT                DOUBLE
000055:    4774           55075                           TS       TEMK
000056:    4775           15006                           TCF      POLLEY
000057:    4776           57075                           XCH      TEMK
000058:    4777           51075                           INDEX    TEMK
000059:    5000           64673                           AD       LIMITS
000060:    5001           40000                           COM
000061:    5002           61075                           AD       TEMK
000062:    5003           55075                           TS       TEMK
000063:    5004           15006                           TCF      POLLEY
000064:    5005           15024                           TCF      ARG90
000065:    5006           00006        POLLEY             EXTEND
000066:    5007           71075                           MP       TEMK
000067:    5010           55076                           TS       SQ
000068:    5011           00006                           EXTEND
000069:    5012           74742                           MP       C5/2
000070:    5013           67706                           AD       C3/2
000071:    5014           00006                           EXTEND
000072:    5015           71076                           MP       SQ
000073:    5016           67666                           AD       C1/2
000074:    5017           00006                           EXTEND
000075:    5020           71075                           MP       TEMK
000076:    5021           20001                           DDOUBL
000077:    5022           55075                           TS       TEMK
000078:    5023           00002                           TC       Q
000079:    5024           50000        ARG90              INDEX    A
000080:    5025           44673                           CS       LIMITS
000081:    5026           00002                           TC       Q                                     #  RESULT SCALED AT 1
000082:
000083:                                                                                                  #  SPROOT WAS DELETED IN REV 51 OF MASTER. ASS. CONT. HAS CARDS.
000084:
000085:
000086:
000087:

End of include-file SINGLE_PRECISION_SUBROUTINES.agc.  Parent file is MAIN.agc


