
Source Code
000001:                                                                                                 #  Copyright:     Public domain.
000002:                                                                                                 #  Filename:      SINGLE_PRECISION_SUBROUTINES.agc
000003:                                                                                                 #  Purpose:       Part of the source code for Colossus, build 249.
000004:                                                                                                 #                 It is part of the source code for the Command Module's (CM)
000005:                                                                                                 #                 Apollo Guidance Computer (AGC), possibly for Apollo 8 and 9.
000006:                                                                                                 #  Assembler:     yaYUL
000007:                                                                                                 #  Reference:     p. 1189 of 1701.pdf.
000008:                                                                                                 #  Contact:       Ron Burkey <info@sandroid.org>.
000009:                                                                                                 #  Website:       www.ibiblio.org/apollo.
000010:                                                                                                 #  Mod history:   08/29/04 RSB.   Adapted from corresponding Luminary131 file.
000011:
000012:                                                                                                 #  The contents of the "Colossus249" files, in general, are transcribed
000013:                                                                                                 #  from a scanned document obtained from MIT's website,
000014:                                                                                                 #  http://hrst.mit.edu/hrs/apollo/public/archive/1701.pdf.  Notations on this
000015:                                                                                                 #  document read, in part:
000016:
000017:                                                                                                 #         Assemble revision 249 of AGC program Colossus by NASA
000018:                                                                                                 #         2021111-041.  October 28, 1968.
000019:
000020:                                                                                                 #         This AGC program shall also be referred to as
000021:                                                                                                 #                                 Colossus 1A
000022:
000023:                                                                                                 #         Prepared by
000024:                                                                                                 #                         Massachussets Institute of Technology
000025:                                                                                                 #                         75 Cambridge Parkway
000026:                                                                                                 #                         Cambridge, Massachusetts
000027:                                                                                                 #         under NASA contract NAS 9-4065.
000028:
000029:                                                                                                 #  Refer directly to the online document mentioned above for further information.
000030:                                                                                                 #  Please report any errors (relative to 1701.pdf) to info@sandroid.org.
000031:
000032:                                                                                                 #  In some cases, where the source code for Luminary 131 overlaps that of
000033:                                                                                                 #  Colossus 249, this code is instead copied from the corresponding Luminary 131
000034:                                                                                                 #  source file, and then is proofed to incorporate any changes.
000035:
000036:                                                                                                 #  Page 1189
000037:    4767                                          BLOCK    02
000038:
000039:                                                                                                 #  SINGLE PRECISION SINE AND COSINE
000040:
000041:    4767                                          COUNT    02/INTER
000042:
000043:    4767           64675        SPCOS             AD       HALF                                  #  ARGUMENTS SCALED AT PI
000044:    4770           55075        SPSIN             TS       TEMK
000045:    4771           14773                          TCF      SPT
000046:    4772           41075                          CS       TEMK
000047:    4773           60000        SPT               DOUBLE
000048:    4774           55075                          TS       TEMK
000049:    4775           15006                          TCF      POLLEY
000050:    4776           57075                          XCH      TEMK
000051:    4777           51075                          INDEX    TEMK
000052:    5000           64673                          AD       LIMITS
000053:    5001           40000                          COM
000054:    5002           61075                          AD       TEMK
000055:    5003           55075                          TS       TEMK
000056:    5004           15006                          TCF      POLLEY
000057:    5005           15024                          TCF      ARG90
000058:    5006           00006        POLLEY            EXTEND
000059:    5007           71075                          MP       TEMK
000060:    5010           55076                          TS       SQ
000061:    5011           00006                          EXTEND
000062:    5012           74742                          MP       C5/2
000063:    5013           67706                          AD       C3/2
000064:    5014           00006                          EXTEND
000065:    5015           71076                          MP       SQ
000066:    5016           67666                          AD       C1/2
000067:    5017           00006                          EXTEND
000068:    5020           71075                          MP       TEMK
000069:    5021           20001                          DDOUBL
000070:    5022           55075                          TS       TEMK
000071:    5023           00002                          TC       Q
000072:    5024           50000        ARG90             INDEX    A
000073:    5025           44673                          CS       LIMITS
000074:    5026           00002                          TC       Q                                     #  RESULT SCALED AT 1.
000075:
000076:                                                                                                 #  SPROOT WAS DELETED IN REV 51 OF MASTER. ASS. CONT. HAS CARDS.
000077:
000078:
000079:
000080:

End of include-file SINGLE_PRECISION_SUBROUTINES.agc.  Parent file is MAIN.agc


