
Source Code


000002:                                                                                                  #  Copyright:    Public domain.
000003:                                                                                                  #  Filename:     SINGLE_PRECISION_SUBROUTINES.agc
000004:                                                                                                  #  Purpose:      Part of the source code for Colossus, build 249.
000005:                                                                                                  #                It is part of the source code for the Command Module's (CM)
000006:                                                                                                  #                Apollo Guidance Computer (AGC), possibly for Apollo 8 and 9.
000007:                                                                                                  #  Assembler:    yaYUL
000008:                                                                                                  #  Reference:    p. 1189 of 1701.pdf.
000009:                                                                                                  #  Contact:      Ron Burkey <info@sandroid.org>.
000010:                                                                                                  #  Website:      www.ibiblio.org/apollo.
000011:                                                                                                  #  Mod history:  08/29/04 RSB.   Adapted from corresponding Luminary131 file.
000012:
000013:                                                                                                  #  The contents of the "Colossus249" files, in general, are transcribed
000014:                                                                                                  #  from a scanned document obtained from MIT's website,
000015:                                                                                                  #  http://hrst.mit.edu/hrs/apollo/public/archive/1701.pdf.  Notations on this
000016:                                                                                                  #  document read, in part:
000017:
000018:                                                                                                  #        Assemble revision 249 of AGC program Colossus by NASA
000019:                                                                                                  #        2021111-041.  October 28, 1968.
000020:
000021:                                                                                                  #        This AGC program shall also be referred to as
000022:                                                                                                  #                                Colossus 1A
000023:
000024:                                                                                                  #        Prepared by
000025:                                                                                                  #                        Massachusetts Institute of Technology
000026:                                                                                                  #                        75 Cambridge Parkway
000027:                                                                                                  #                        Cambridge, Massachusetts
000028:                                                                                                  #        under NASA contract NAS 9-4065.
000029:
000030:                                                                                                  #  Refer directly to the online document mentioned above for further information.
000031:                                                                                                  #  Please report any errors (relative to 1701.pdf) to info@sandroid.org.
000032:
000033:                                                                                                  #  In some cases, where the source code for Luminary 131 overlaps that of
000034:                                                                                                  #  Colossus 249, this code is instead copied from the corresponding Luminary 131
000035:                                                                                                  #  source file, and then is proofed to incorporate any changes.
000036:
000037:                                                                                                  #  Page 1189
000038:    4767                                           BLOCK    02
000039:
000040:                                                                                                  #  SINGLE PRECISION SINE AND COSINE
000041:
000042:    4767                                           COUNT    02/INTER
000043:
000044:    4767           64675        SPCOS              AD       HALF                                  #  ARGUMENTS SCALED AT PI
000045:    4770           55075        SPSIN              TS       TEMK
000046:    4771           14773                           TCF      SPT
000047:    4772           41075                           CS       TEMK
000048:    4773           60000        SPT                DOUBLE
000049:    4774           55075                           TS       TEMK
000050:    4775           15006                           TCF      POLLEY
000051:    4776           57075                           XCH      TEMK
000052:    4777           51075                           INDEX    TEMK
000053:    5000           64673                           AD       LIMITS
000054:    5001           40000                           COM
000055:    5002           61075                           AD       TEMK
000056:    5003           55075                           TS       TEMK
000057:    5004           15006                           TCF      POLLEY
000058:    5005           15024                           TCF      ARG90
000059:    5006           00006        POLLEY             EXTEND
000060:    5007           71075                           MP       TEMK
000061:    5010           55076                           TS       SQ
000062:    5011           00006                           EXTEND
000063:    5012           74742                           MP       C5/2
000064:    5013           67706                           AD       C3/2
000065:    5014           00006                           EXTEND
000066:    5015           71076                           MP       SQ
000067:    5016           67666                           AD       C1/2
000068:    5017           00006                           EXTEND
000069:    5020           71075                           MP       TEMK
000070:    5021           20001                           DDOUBL
000071:    5022           55075                           TS       TEMK
000072:    5023           00002                           TC       Q
000073:    5024           50000        ARG90              INDEX    A
000074:    5025           44673                           CS       LIMITS
000075:    5026           00002                           TC       Q                                     #  RESULT SCALED AT 1.
000076:
000077:                                                                                                  #  SPROOT WAS DELETED IN REV 51 OF MASTER. ASS. CONT. HAS CARDS.
000078:
000079:
000080:
000081:

End of include-file SINGLE_PRECISION_SUBROUTINES.agc.  Parent file is MAIN.agc


