
Source Code
000001:                                                                                                 #  Copyright:     Public domain.
000002:                                                                                                 #  Filename:      STABLE_ORBIT.agc
000003:                                                                                                 #  Purpose:       Part of the source code for Colossus, build 249.
000004:                                                                                                 #                 It is part of the source code for the Command Module's (CM)
000005:                                                                                                 #                 Apollo Guidance Computer (AGC), possibly for Apollo 8 and 9.
000006:                                                                                                 #  Assembler:     yaYUL
000007:                                                                                                 #  Reference:     pp. 518-527 of 1701.pdf.
000008:                                                                                                 #  Contact:       Ron Burkey <info@sandroid.org>.
000009:                                                                                                 #  Website:       www.ibiblio.org/apollo.
000010:                                                                                                 #  Mod history:   08/12/04 RSB.   Began transcribing.
000011:
000012:                                                                                                 #  The contents of the "Colossus249" files, in general, are transcribed
000013:                                                                                                 #  from a scanned document obtained from MIT's website,
000014:                                                                                                 #  http://hrst.mit.edu/hrs/apollo/public/archive/1701.pdf.  Notations on this
000015:                                                                                                 #  document read, in part:
000016:
000017:                                                                                                 #         Assemble revision 249 of AGC program Colossus by NASA
000018:                                                                                                 #         2021111-041.  October 28, 1968.
000019:
000020:                                                                                                 #         This AGC program shall also be referred to as
000021:                                                                                                 #                                 Colossus 1A
000022:
000023:                                                                                                 #         Prepared by
000024:                                                                                                 #                         Massachussets Institute of Technology
000025:                                                                                                 #                         75 Cambridge Parkway
000026:                                                                                                 #                         Cambridge, Massachusetts
000027:                                                                                                 #         under NASA contract NAS 9-4065.
000028:
000029:                                                                                                 #  Refer directly to the online document mentioned above for further information.
000030:                                                                                                 #  Please report any errors (relative to 1701.pdf) to info@sandroid.org.
000031:
000032:                                                                                                 #  In some cases, where the source code for Luminary 131 overlaps that of
000033:                                                                                                 #  Colossus 249, this code is instead copied from the corresponding Luminary 131
000034:                                                                                                 #  source file, and then is proofed to incorporate any changes.
000035:
000036:                                                                                                 #  Page 518
000037:                                                                                                 #  STABLE ORBIT RENDEZVOUS PROGRAMS (P38 AND P78)
000038:
000039:                                                                                                 #  MOD NO -1              LOG SECTION -- STABLE ORBIT -- P38-P39
000040:                                                                                                 #  MOD BY RUDNICKI.S      DATE 26JAN68
000041:
000042:                                                                                                 #  FUNCTIONAL DESCRIPTION
000043:
000044:                                                                                                 #         P38 AND P78 CALCULATE THE REQUIRED DELTA V AND OTHER INITIAL
000045:                                                                                                 #         CONDITIONS REQUIRED BY TEH AGC TO (1) PUT THE ACTIVE VEHICLE
000046:                                                                                                 #         ON A TRANSFER TRAJECTORY THAT INTERCEPTS THE PASSIVE VEHICLE
000047:                                                                                                 #         ORBIT A GIVEN DISTANCE, DELTA R, EITHER AHEAD OF OR BEHIND THE
000048:                                                                                                 #         PASSIVE VEHICLE AND (2) ACTUALLY PLACE THE ACTIVE VEHICLE IN THE
000049:                                                                                                 #         PASSIVE VEHICLE ORBIT WITH A DELTA R SEPARATION BETWEEN THE TWO
000050:                                                                                                 #         VEHICLES
000051:
000052:                                                                                                 #  CALLING SEQUENCE
000053:
000054:                                                                                                 #         ASTRONAUT REQUEST THRU DSKY
000055:
000056:                                                                                                 #         V37E38E         IF THIS VEHICLE IS ACTIVE VEHICLE
000057:                                                                                                 #         V37E78E         IF OTHER VEHICLE IS ACTIVE VEHICLE
000058:
000059:                                                                                                 #  INPUT
000060:
000061:                                                                                                 #         (1)     SOI MANEUVER
000062:
000063:                                                                                                 #                 (A)  TIG        TIME OF SOI MANEUVER
000064:                                                                                                 #                 (B)  CENTANG    ORBITAL CENTRAL ANGLE OF THE PASSIVE VEHICLE
000065:                                                                                                 #                                 DURING THE TRANSFER FROM TIG TO TIME OF INTERCEPT
000066:                                                                                                 #                 (C)  DELTAR     THE DESIRED SEPARATION OF THE TWO VEHICLES
000067:                                                                                                 #                                 SPECIFIED AS A DISTANCE ALONG THE PASSIVE VEHICLE
000068:                                                                                                 #                                 ORBIT
000069:                                                                                                 #                 (D)  OPTION     EQUALS 1 FOR SOI
000070:
000071:                                                                                                 #         (2)     SOR MANEUVER
000072:
000073:                                                                                                 #                 (A)  TIG        TIME OF SOR MANEUVER
000074:                                                                                                 #                 (B)  CENTANG    AN OPTIONAL RESPECIFICATION OF 1 (B) ABOVE
000075:                                                                                                 #                 (C)  OPTION     EQUALS -2 FOR SOR
000076:                                                                                                 #                 (D)  DELTTIME   THE TIME REQUIRED TO TRAVERSE DELTA R WHEN
000077:                                                                                                 #                                 TRAVELING AT A VELOCITY EQUAL TO THE HORIZONTAL
000078:                                                                                                 #                                 VELOCITY OF THE PASSIVE VEHICLE -- SAVED FROM
000079:                                                                                                 #                                 SOI PHASE
000080:                                                                                                 #                 (E)  TINT       TIME OF INTERCEPT (SOI) -- SAVED FROM SOI PHASE
000081:
000082:                                                                                                 #  OUTPUT
000083:
000084:                                                                                                 #         (1)  TRKMKCNT   NUMBER OF MARKS
000085:                                                                                                 #         (2)  TTOGO      TIME TO GO
000086:                                                                                                 #         (3)  +MGA       MIDDLE GIMBAL ANGLE
000087:                                                                                                 #  Page 519
000088:                                                                                                 #         (4)  DSPTEM1    TIME OF INTERCEPT OF PASSIVE VEHICLE ORBIT
000089:                                                                                                 #                         (FOR SOI ONLY)
000090:                                                                                                 #         (5)  POSTTPI    PERIGEE ALTITUDE OF ACTIVE VEHICLE ORBIT AFTER
000091:                                                                                                 #                         THE SOI (SOR) MANEUVER
000092:                                                                                                 #         (6)  DELVTPI    MAGNITUDE OF DELTA V AT SOI (SOR) TIME
000093:                                                                                                 #         (7)  DELVTPF    MAGNITUDE OF DELTA V AT INTERCEPT TIME
000094:                                                                                                 #         (8)  DELTA      VELOCITY AT SOI (AND SOR) -- LOCAL VERTICAL
000095:                                                                                                 #                         CORDINATES
000096:
000097:                                                                                                 #  SUBROUTINE USED
000098:
000099:                                                                                                 #         AVFLAGA
000100:                                                                                                 #         AVFLAGP
000101:                                                                                                 #         VNDSPLY
000102:                                                                                                 #         BANKCALL
000103:                                                                                                 #         GOFLASHR
000104:                                                                                                 #         GOTOP00H
000105:                                                                                                 #         BLANKET
000106:                                                                                                 #         ENDOFJOB
000107:                                                                                                 #         PREC/TT
000108:                                                                                                 #         SELECTMU
000109:                                                                                                 #         INTRPVP
000110:                                                                                                 #         MAINRTNE
000111:
000112: 04,3103                                          BANK     04
000113: 04,2000                                          SETLOC   STBLEORB
000114: 04,2000                                          BANK
000115:
000116: 04,3103  E4,1770                                 EBANK=   SUBEXIT
000117: 04,3103                                          COUNT*   $$/P3879
000118:
000119: 04,3103           04555        P38               TC       BANKCALL
000120: 04,3104           73726                          CADR     AVFLAGA                               #  THIS VEHICLE ACTIVE
000121: 04,3105           03110                          TC       +3
000122: 04,3106           04555        P78               TC       BANKCALL
000123: 04,3107           73741                          CADR     AVFLAGP                               #  OTHER VEHICLE ACTIVE
000124: 04,3110           04555                          TC       BANKCALL
000125: 04,3111           73746                          CADR     P20FLGON                              #  SET UPDATFLG, TRACKFLG
000126: 04,3112           33440                          CAF      V06N33SR                              #  DISPLAY TIG
000127: 04,3113           03427                          TC       VNDSPLY
000128: 04,3114           33441                          CAF      V06N55SR                              #  DISPLAY CENTANG
000129: 04,3115           04555                          TCR      BANKCALL
000130: 04,3116           20763                          CADR     GOFLASHR
000131: 04,3117           14106                          TCF      GOTOP00H                              #  TERMINATE
000132: 04,3120           13125                          TCF      +5                                    #  PROCEED
000133: 04,3121           13114                          TCF      -5                                    #  RECYCLE
000134: 04,3122           36214                          CAF      THREE                                 #  IMMEDIATE RETURN -- BLANK R1, R2
000135: 04,3123           05415                          TCR      BLANKET
000136: 04,3124           15112                          TCF      ENDOFJOB
000137: 04,3125           34715                          CAF      FIVE
000138:                                                                                                 #  Page 520
000139: 04,3126           55131                          TS       OPTION1
000140: 04,3127           34712                          CAF      ONE
000141: 04,3130           55132                          TS       OPTION2                               #  OPTION CODE IS SET TO 1
000142: 04,3131           33442                          CAF      V04N06SR                              #  DISPLAY OPTION CODE -1 = SOI, 2 = SOR
000143: 04,3132           04555                          TCR      BANKCALL
000144: 04,3133           20763                          CADR     GOFLASHR
000145: 04,3134           14106                          TCF      GOTOP00H                              #  TERMINATE
000146: 04,3135           13142                          TCF      +5                                    #  PROCEED
000147: 04,3136           13131                          TCF      -5                                    #  RECYCLE
000148: 04,3137           34710                          CAF      BIT3                                  #  IMMEDIATE RETURN -- BLANK R3
000149: 04,3140           05415                          TCR      BLANKET
000150: 04,3141           15112                          TCF      ENDOFJOB
000151: 04,3142           06006                          TC       INTPRET
000152: 04,3143           70535                          SLOAD    SR1
000153: 04,3144           01133                                   OPTION2
000154: 04,3145           71230                          BHIZ     DLOAD
000155: 04,3146           11154                                   OPTN1
000156: 04,3147           03656                                   TINT
000157: 04,3150           02611                          STORE    TINTSOI                               #  STORE FOR SOR PHASE
000158: 04,3151           77614                          CLRGO
000159: 04,3152           01230                                   OPTNSW                                #  OPTNSW
000160:                                                                                                 #  Page 521
000161: 04,3153           11203                                   JUNCTN1
000162: 04,3154           43014        OPTN1             SET      CLEAR                                 #  SOI
000163: 04,3155           01070                                   OPTNSW
000164: 04,3156           00670                                   UPDATFLG
000165: 04,3157           77624                          CALL
000166: 04,3160           11362                                   PREC/TT
000167: 04,3161           43214                          SET      DAD
000168: 04,3162           00470                                   UPDATFLG
000169: 04,3163           03413                                   TIG
000170: 04,3164           03656                          STORE    TINT                                  #  TI = TIG + TF
000171: 04,3165           01046                          STORE    DSPTEM1                               #  FOR DISPLAY
000172: 04,3166           77776                          EXIT
000173: 04,3167           33443                          CAF      V06N57SR                              #  DISPLAY DELTA R
000174: 04,3170           04555                          TCR      BANKCALL
000175: 04,3171           20763                          CADR     GOFLASHR
000176: 04,3172           14106                          TCF      GOTOP00H                              #  TERMINATE
000177: 04,3173           13200                          TCF      +5                                    #  PROCEED
000178: 04,3174           13167                          TCF      -5                                    #  RECYCLE
000179: 04,3175           36211                          CAF      SIX                                   #  IMMEDIATE RETURN -- BLANK R2, R3
000180: 04,3176           05415                          TCR      BLANKET
000181: 04,3177           15112                          TCF      ENDOFJOB
000182: 04,3200           33444                          CAF      V06N34SR                              #  DISPLAY TIME OF INTERCEPT
000183: 04,3201           03427                          TC       VNDSPLY
000184: 04,3202           06006                          TC       INTPRET
000185: 04,3203           45014        JUNCTN1           CLEAR    CALL
000186: 04,3204           04266                                   P39/79SW
000187: 04,3205           10716                                   SELECTMU                              #  SELECT MU, CLEAR FINALFLG, GO TO VN1645
000188: 04,3206           77624        RECYCLE           CALL
000189: 04,3207           11362                                   PREC/TT
000190:                                                                                                 #  Page 522
000191:                                                                                                 #  This page of 1701.pdf is blank --- RSB 2004
000192:
000193:                                                                                                 #  Page 523
000194: 04,3210           71214                          BOFF     DLOAD
000195: 04,3211           01350                                   OPTNSW
000196: 04,3212           11232                                   OPTN2
000197: 04,3213           03656                                   TINT
000198: 04,3214           34041                          STCALL   TDEC1                                 #  PRECISION UPDATE PASSIVE VEHICLE TO
000199: 04,3215           11413                                   INTRPVP                               #  INTERCEPT TIME
000200: 04,3216           53575                          VLOAD    UNIT
000201: 04,3217           00001                                   RATT                                  #  RP/(RP)
000202: 04,3220           47315                          PDVL     VXV
000203: 04,3221           00007                                   VATT
000204: 04,3222           60246                          ABVAL    NORM                                  #  (VP X RP/(RP))
000205: 04,3223           00047                                   X1
000206: 04,3224           56325                          PDDL     DDV
000207: 04,3225           02611                                   DELTAR
000208: 04,3226           77657                          SL*                                            #  DELTA R / (VP X RP/RP)
000209: 04,3227           20172                                   0          -7,1
000210: 04,3230           36613                          STCALL   DELTTIME                              #  DELTA T = (RP) DELTA R / (VP X RP)
000211: 04,3231           11236                                   JUNCTN2
000212: 04,3232           43345        OPTN2             DLOAD    DAD
000213: 04,3233           02611                                   TINTSOI
000214: 04,3234           00037                                   T
000215: 04,3235           03656                          STORE    TINT                                  #  TI = TI + TF
000216: 04,3236           45345        JUNCTN2           DLOAD    DSU
000217: 04,3237           03656                                   TINT
000218: 04,3240           02613                                   DELTTIME
000219: 04,3241           02615                          STORE    TARGTIME                              #  TT = TI - DELTA T
000220:
000221:                                                                                                 #  .... MAINRTNE ....
000222:
000223:                                                                                                 #  SUBROUTINES USED:
000224:
000225:                                                                                                 #         S3435.25
000226:                                                                                                 #         PERIAPO1
000227:                                                                                                 #         SHIFTR1
000228:                                                                                                 #         VNDSPLY
000229:                                                                                                 #         BANKCALL
000230:                                                                                                 #         GOFLASH
000231:                                                                                                 #         GOTOP00H
000232:                                                                                                 #         VN1645
000233:
000234: 04,3242           34041        MAINRTNE          STCALL   TDEC1                                 #  PRECISION UPDATE PASSIVE VEHICLE TO
000235: 04,3243           11413                                   INTRPVP                               #         TARGET TIME
000236: 04,3244           77745                          DLOAD
000237: 04,3245           03413                                   TIG
000238: 04,3246           03503                          STORE    INTIME
000239: 04,3247           77331                          SSP      VLOAD
000240: 04,3250           02371                                   SUBEXIT
000241: 04,3251           11255                                   TEST3979
000242: 04,3252           00001                                   RATT
000243: 04,3253           77624                          CALL
000244: 04,3254           72547                                   S3435.25
000245: 04,3255           43014        TEST3979          BOFF     BON
000246:
000247:                                                                                                 #  Page 524
000248: 04,3256           04346                                   P39/79SW
000249: 04,3257           11266                                   MAINRTN1
000250: 04,3260           01311                                   FINALFLG
000251: 04,3261           11264                                   P39P79
000252: 04,3262           77614                          SET
000253: 04,3263           00470                                   UPDATFLG
000254: 04,3264           77776        P39P79            EXIT
000255: 04,3265           03313                          TC       DSPLY81                               #  FOR P39 AND P79
000256: 04,3266           51575        MAINRTN1          VLOAD    ABVAL
000257: 04,3267           03646                                   DELVEET3
000258: 04,3270           26635                          STOVL    DELVTPI                               #  DELTA V
000259: 04,3271           03640                                   VPASS4
000260: 04,3272           51451                          VSU      ABVAL
000261: 04,3273           03620                                   VTPRIME
000262: 04,3274           26637                          STOVL    DELVTPF                               #  DELTA V (FINAL) = V-T - VT
000263: 04,3275           03540                                   RACT3
000264: 04,3276           45115                          PDVL     CALL
000265: 04,3277           03612                                   VIPRIME
000266: 04,3300           45312                                   PERIAPO1                              #  GET PERIGEE ALTITUDE
000267: 04,3301           77624                          CALL
000268: 04,3302           45422                                   SHIFTR1
000269: 04,3303           02641                          STORE    POSTTPI
000270: 04,3304           43014                          BON      SET
000271: 04,3305           01311                                   FINALFLG
000272: 04,3306           11310                                   DSPLY58
000273: 04,3307           00470                                   UPDATFLG
000274: 04,3310           77776        DSPLY58           EXIT
000275: 04,3311           33445                          CAF      V06N58SR                              #  DISPLAY HP, DELTA V, DELTA V (FINAL)
000276: 04,3312           03427                          TC       VNDSPLY
000277: 04,3313           33446        DSPLY81           CAF      V06N81SR                              #  DISPLAY DELTA V (LV)
000278: 04,3314           03427                          TC       VNDSPLY
000279: 04,3315           06006                          TC       INTPRET
000280: 04,3316           77214                          CLEAR    VLOAD
000281: 04,3317           01267                                   XDELVFLG
000282: 04,3320           03646                                   DELVEET3
000283: 04,3321           37646                          STCALL   DELVSIN
000284: 04,3322           73005                                   VN1645                                #  DISPLAY TRKMKCNT, TTOGO, +MGA
000285: 04,3323           52014                          BON      GOTO
000286: 04,3324           04306                                   P39/79SW
000287: 04,3325           11347                                   P39/P79B
000288: 04,3326           11206                                   RECYCLE
000289:
000290:                                                                                                 #  STABLE ORBIT MIDCOURSE PROGRAM (P39 AND P79)
000291:
000292:                                                                                                 #  MOD NO -1              LOG SECTION -- STABLE ORBIT -- P38-P39
000293:                                                                                                 #  MOD BY RUDNICKI, S     DATE 25JAN68
000294:
000295:                                                                                                 #  FUNCTIONAL DESCRIPTION
000296:
000297:                                                                                                 #         P39 AND P79 CALCULATE THE REQUIRED DELTA V AND OTHER INITIAL
000298:                                                                                                 #         CONDITIONS REQUIRED BY TEH AGC TO MAKE A MIDCOURSE CORRECTION
000299:                                                                                                 #  Page 525
000300:                                                                                                 #         MANEUVER AFTER COMPLETING THE SOI MANEUVER BUT BEFORE MAKING
000301:                                                                                                 #         THE SOR MANEUVER.
000302:
000303:                                                                                                 #  CALLING SEQUENCE
000304:
000305:                                                                                                 #         ASTRONAUT REQUEST THRU DSKY
000306:
000307:                                                                                                 #         V37E39E         IF THIS VEHICLE IS ACTIVE VEHICLE
000308:                                                                                                 #         V37E79E         IF OTHER VEHICLE IS ACTIVE VEHICLE
000309:
000310:                                                                                                 #  INPUT
000311:
000312:                                                                                                 #         (1)  TPASS4     TIME OF INTERCEPT -- SAVED FROM P38/P78
000313:                                                                                                 #         (2)  TARGTIME   TIME THAT PASSIVE VEHICLE IS AT INTERCEPT POINT --
000314:                                                                                                 #                         SAED FROM P38/P78
000315:
000316:                                                                                                 #  OUTPUT
000317:
000318:                                                                                                 #         (1)  TRKMKCNT   NUMBER OF MARKS.
000319:                                                                                                 #         (2)  TTOGO      TIME TO GO
000320:                                                                                                 #         (3)  +MGA       MIDDLE GIMBAL ANGLE
000321:                                                                                                 #         (4)  DELVLVC    DELTA VELOCITY AT MID -- LOCAL VERTICAL COORDINATES
000322:
000323:                                                                                                 #  SUBROUTINES USED
000324:
000325:                                                                                                 #         AVFLAGA
000326:                                                                                                 #         AVFLAGP
000327:                                                                                                 #         LOADTIME
000328:                                                                                                 #         SELECTMU
000329:                                                                                                 #         PRECSET
000330:                                                                                                 #         S34/35.1
000331:                                                                                                 #         MAINRTNE
000332:
000333: 04,3327           04555        P39               TC       BANKCALL
000334: 04,3330           73726                          CADR     AVFLAGA                               #  THIS VEHICLE ACTIVE
000335: 04,3331           00006                          EXTEND
000336: 04,3332           31422                          DCA      ATIGINC
000337: 04,3333           03340                          TC       P39/P79A
000338: 04,3334           04555        P79               TC       BANKCALL
000339: 04,3335           73741                          CADR     AVFLAGP                               #  OTHER VEHICLE ACTIVE
000340: 04,3336           00006                          EXTEND
000341: 04,3337           31424                          DCA      PTIGINC
000342: 04,3340           53764        P39/P79A          DXCH     KT                                    #  TIME TO PREPARE FOR BURN
000343: 04,3341           04555                          TC       BANKCALL
000344: 04,3342           73746                          CADR     P20FLGON                              #  SET UPDATFLG, TRACKFLG
000345: 04,3343           06006                          TC       INTPRET
000346: 04,3344           45014                          SET      CALL
000347: 04,3345           04066                                   P39/79SW
000348: 04,3346           10716                                   SELECTMU                              #  SELECT MU, CLEAR FINALFLG, GO TO VN1645
000349: 04,3347           43234        P39/P79B          RTB      DAD
000350:                                                                                                 #  Page 526
000351: 04,3350           45505                                   LOADTIME
000352: 04,3351           02364                                   KT
000353: 04,3352           03413                          STORE    TIG                                   #  TIG = T (PRESENT) + PREPARATION TIME
000354: 04,3353           34041                          STCALL   TDEC1                                 #  PRECISION UPDATE ACTIVE AND PASSIVE
000355: 04,3354           45354                                   PRECSET                               #         VEHICLES TO TIG
000356: 04,3355           77624                          CALL
000357: 04,3356           72522                                   S34/35.1                              #  GET UNIT NORMAL
000358: 04,3357           52145                          DLOAD    GOTO
000359: 04,3360           02615                                   TARGTIME
000360: 04,3361           11242                                   MAINRTNE                              #  CALCULATE DELTA V AND DELTA V (LV)
000361:
000362:                                                                                                 #  .... PREC/TT ....
000363:
000364:                                                                                                 #  SUBROUTINES USED
000365:
000366:                                                                                                 #         PRECSET
000367:                                                                                                 #         TIMETHET
000368:                                                                                                 #         S34/35.1
000369:
000370: 04,3362           71220        PREC/TT           STQ      DLOAD
000371: 04,3363           02367                                   RTRN
000372: 04,3364           03413                                   TIG
000373: 04,3365           34041                          STCALL   TDEC1                                 #  PRECISION UPDATE ACTIVE AND PASSIVE
000374: 04,3366           45354                                   PRECSET                               #         VEHICLES TO TIG
000375: 04,3367           53775                          VLOAD    VSR*
000376: 04,3370           03554                                   RPASS3
000377: 04,3371           57176                                   0,2
000378: 04,3372           16657                          STODL    RVEC
000379: 04,3373           03754                                   CENTANG
000380: 04,3374           71406                          PUSH     COS
000381: 04,3375           16734                          STODL    CSTH
000382: 04,3376           43156                          SIN      SET
000383: 04,3377           03466                                   RVSW
000384: 04,3400           26732                          STOVL    SNTH
000385:
000386: 04,3401           03562                                   VPASS3
000387: 04,3402           77657                          VSR*
000388: 04,3403           57176                                   0,2
000389: 04,3404           36746                          STCALL   VVEC                                  #  GET TRANSFER TIME BASED ON CENTANG OF
000390: 04,3405           24737                                   TIMETHET                              #         PASSIVE VEHICLE
000391: 04,3406           77624                          CALL
000392: 04,3407           72522                                   S34/35.1                              #  GET UNIT NORMAL
000393: 04,3410           52145                          DLOAD    GOTO
000394: 04,3411           00037                                   T
000395: 04,3412           02367                                   RTRN
000396:
000397:                                                                                                 #  .... INTRPVP ....
000398:
000399:                                                                                                 #  SUBROUTINES USED
000400:
000401:                                                                                                 #         CSMPREC
000402:                                                                                                 #         LEMPREC
000403:
000404: 04,3413           43020        INTRPVP           STQ      BOFF                                  #  PRECISION UPDATE PASSIVE VEHICLE TO
000405: 04,3414           02367                                   RTRN                                  #         TDEC1
000406:                                                                                                 #  Page 527
000407: 04,3415           01352                                   AVFLAG
000408: 04,3416           11423                                   OTHERV
000409: 04,3417           77624                          CALL
000410: 04,3420           27022                                   CSMPREC
000411: 04,3421           77650                          GOTO
000412: 04,3422           02367                                   RTRN
000413: 04,3423           77624        OTHERV            CALL
000414: 04,3424           27036                                   LEMPREC
000415: 04,3425           77650                          GOTO
000416: 04,3426           02367                                   RTRN
000417:
000418:                                                                                                 #  .... VNDSPLY ....
000419:
000420:                                                                                                 #  SUBROUTINES USED
000421:
000422:                                                                                                 #         BANKCALL
000423:                                                                                                 #         GOFLASH
000424:                                                                                                 #         GOTOP00H
000425:
000426: 04,3427           00006        VNDSPLY           EXTEND                                         #  FLASH DISPLAY
000427: 04,3430           23767                          QXCH     RTRN
000428: 04,3431           55765                          TS       VERBNOUN
000429: 04,3432           31765                          CA       VERBNOUN
000430: 04,3433           04555                          TCR      BANKCALL
000431: 04,3434           20624                          CADR     GOFLASH
000432: 04,3435           14106                          TCF      GOTOP00H                              #  TERMINATE
000433: 04,3436           01767                          TC       RTRN                                  #  PROCEED
000434: 04,3437           13432                          TCF      -5                                    #  RECYCLE
000435: 04,3440           01441        V06N33SR          VN       0633
000436: 04,3441           01467        V06N55SR          VN       0655
000437: 04,3442           01006        V04N06SR          VN       0406
000438: 04,3443           01471        V06N57SR          VN       0657
000439: 04,3444           01442        V06N34SR          VN       0634
000440: 04,3445           01472        V06N58SR          VN       0658
000441: 04,3446           01521        V06N81SR          VN       0681
000442:
000443:                                                                                                 #  *** END OF SMOOCH  .007 ***
000444:
000445:
000446:

End of include-file STABLE_ORBIT.agc.  Parent file is MAIN.agc


