
Source Code


000002:                                                                                                  ## Copyright:   Public domain.
000003:                                                                                                  ## Filename:    STABLE_ORBIT_-_P38-P39.agc
000004:                                                                                                  ## Purpose:     Part of the source code for Colossus, build 249.
000005:                                                                                                  ##              It is part of the source code for the Command Module's (CM)
000006:                                                                                                  ##              Apollo Guidance Computer (AGC), for Apollo 9.
000007:                                                                                                  ## Assembler:   yaYUL
000008:                                                                                                  ## Reference:   pp. 516-523.
000009:                                                                                                  ## Contact:     Ron Burkey <info@sandroid.org>.
000010:                                                                                                  ## Website:     www.ibiblio.org/apollo.
000011:                                                                                                  ## Mod history: 08/12/04 RSB.   Began transcribing.
000012:                                                                                                  ##              2017-01-06 RSB  Page numbers now agree with those on the
000013:                                                                                                  ##                              original harcopy, as opposed to the PDF page
000014:                                                                                                  ##                              numbers in 1701.pdf.
000015:                                                                                                  ##              2017-01-19 RSB  Renamed from STABLE_ORBIT.agc to agree with
000016:                                                                                                  ##                              the actual name from the log section, and with
000017:                                                                                                  ##                              the naming in Colossus 237.
000018:                                                                                                  ##              2017-01-19 RSB  A few comment-text typos were corrected.
000019:                                                                                                  ##              2017-01-20 RSB  Cross-diff'd comment text (not whitespace)
000020:                                                                                                  ##                              vs the already-proofed corresponding Colossus
000021:                                                                                                  ##                              237 and Comanche 55 source-code files
000022:                                                                                                  ##                              and corrected errors found.
000023:                                                                                                  ##
000024:                                                                                                  ## The contents of the "Colossus249" files, in general, are transcribed
000025:                                                                                                  ## from a scanned copy of the program listing.  Notations on this
000026:                                                                                                  ## document read, in part:
000027:                                                                                                  ##
000028:                                                                                                  ##      Assemble revision 249 of AGC program Colossus by NASA
000029:                                                                                                  ##      2021111-041.  October 28, 1968.
000030:                                                                                                  ##
000031:                                                                                                  ##      This AGC program shall also be referred to as
000032:                                                                                                  ##                              Colossus 1A
000033:                                                                                                  ##
000034:                                                                                                  ##      Prepared by
000035:                                                                                                  ##                      Massachusetts Institute of Technology
000036:                                                                                                  ##                      75 Cambridge Parkway
000037:                                                                                                  ##                      Cambridge, Massachusetts
000038:                                                                                                  ##      under NASA contract NAS 9-4065.
000039:                                                                                                  ##
000040:                                                                                                  ## Refer directly to the online document mentioned above for further information.
000041:                                                                                                  ## Please report any errors (relative to the scanned pages) to info@sandroid.org.
000042:                                                                                                  ##
000043:                                                                                                  ## In some cases, where the source code for Luminary 131 overlaps that of
000044:                                                                                                  ## Colossus 249, this code is instead copied from the corresponding Luminary 131
000045:                                                                                                  ## source file, and then is proofed to incorporate any changes.
000046:


000048:                                                                                                  #  STABLE ORBIT RENDEZVOUS PROGRAMS (P38 AND P78)
000049:
000050:                                                                                                  #  MOD NO -1             LOG SECTION - STABLE ORBIT - P38-P39
000051:                                                                                                  #  MOD BY RUDNICKI.S     DATE 25JAN68
000052:
000053:                                                                                                  #  FUNCTIONAL DESCRIPTION
000054:
000055:                                                                                                  #        P38 AND P78 CALCULATE THE REQUIRED DELTA V AND OTHER INITIAL
000056:                                                                                                  #        CONDITIONS REQUIRED BY THE AGC TO (1) PUT THE ACTIVE VEHICLE
000057:                                                                                                  #        ON A TRANSFER TRAJECTORY THAT INTERCEPTS THE PASSIVE VEHICLE
000058:                                                                                                  #        ORBIT A GIVEN DISTANCE, DELTA R, EITHER AHEAD OF OR BEHIND THE
000059:                                                                                                  #        PASSIVE VEHICLE AND (2) ACTUALLY PLACE THE ACTIVE VEHICLE IN THE
000060:                                                                                                  #        PASSIVE VEHICLE ORBIT WITH A DELTA R SEPARATION BETWEEN THE TWO
000061:                                                                                                  #        VEHICLES
000062:
000063:                                                                                                  #  CALLING SEQUENCE
000064:
000065:                                                                                                  #        ASTRONAUT REQUEST THRU DSKY
000066:
000067:                                                                                                  #        V37E38E         IF THIS VEHICLE IS ACTIVE VEHICLE
000068:                                                                                                  #        V37E78E         IF OTHER VEHICLE IS ACTIVE VEHICLE
000069:
000070:                                                                                                  #  INPUT
000071:
000072:                                                                                                  #        (1)     SOI MANEUVER
000073:
000074:                                                                                                  #                (A)  TIG        TIME OF SOI MANEUVER
000075:                                                                                                  #                (B)  CENTANG    ORBITAL CENTRAL ANGLE OF THE PASSIVE VEHICLE
000076:                                                                                                  #                                DURING TRANSFER FROM TIG TO TIME OF INTERCEPT
000077:                                                                                                  #                (C)  DELTAR     THE DESIRED SEPARATION OF THE TWO VEHICLES
000078:                                                                                                  #                                SPECIFIED AS A DISTANCE ALONG THE PASSIVE VEHICLE
000079:                                                                                                  #                                ORBIT
000080:                                                                                                  #                (D)  OPTION     EQUALS 1 FOR SOI
000081:
000082:                                                                                                  #        (2)     SOR MANEUVER
000083:
000084:                                                                                                  #                (A)  TIG        TIME OF SOR MANEUVER
000085:                                                                                                  #                (B)  CENTANG    AN OPTIONAL RESPECIFICATION OF 1 (B) ABOVE
000086:                                                                                                  #                (C)  OPTION     EQUALS 2 FOR SOR
000087:                                                                                                  #                (D)  DELTTIME   THE TIME REQUIRED TO TRAVERSE DELTA R WHEN
000088:                                                                                                  #                                TRAVELING AT A VELOCITY EQUAL TO THE HORIZONTAL
000089:                                                                                                  #                                VELOCITY OF THE PASSIVE VEHICLE - SAVED FROM
000090:                                                                                                  #                                SOI PHASE
000091:                                                                                                  #                (E)  TINT       TIME OF INTERCEPT (SOI) - SAVED FROM SOI PHASE
000092:
000093:                                                                                                  #  OUTPUT
000094:
000095:                                                                                                  #        (1)  TRKMKCNT   NUMBER OF MARKS
000096:                                                                                                  #        (2)  TTOGO      TIME TO GO
000097:                                                                                                  #        (3)  +MGA       MIDDLE GIMBAL ANGLE


000099:                                                                                                  #        (4)  DSPTEM1    TIME OF INTERCEPT OF PASSIVE VEHICLE ORBIT
000100:                                                                                                  #                        (FOR SOI ONLY)
000101:                                                                                                  #        (5)  POSTTPI    PERIGEE ALTITUDE OF ACTIVE VEHICLE ORBIT AFTER
000102:                                                                                                  #                        THE SOI (SOR) MANEUVER
000103:                                                                                                  #        (6)  DELVTPI    MAGNITUDE OF DELTA V AT SOI (SOR) TIME
000104:                                                                                                  #        (7)  DELVTPF    MAGNITUDE OF DELTA V AT INTERCEPT TIME
000105:                                                                                                  #        (8)  DELVLVC    DELTA VELOCITY AT SOI (AND SOR) - LOCAL VERTICAL
000106:                                                                                                  #                        COORDINATES
000107:
000108:                                                                                                  #  SUBROUTINES USED
000109:
000110:                                                                                                  #        AVFLAGA
000111:                                                                                                  #        AVFLAGP
000112:                                                                                                  #        VNDSPLY
000113:                                                                                                  #        BANKCALL
000114:                                                                                                  #        GOFLASHR
000115:                                                                                                  #        GOTOPOOH
000116:                                                                                                  #        BLANKET
000117:                                                                                                  #        ENDOFJOB
000118:                                                                                                  #        PREC/TT
000119:                                                                                                  #        SELECTMU
000120:                                                                                                  #        INTRPVP
000121:                                                                                                  #        MAINRTNE
000122:
000123: 04,3103                                           BANK     04
000124: 04,2000                                           SETLOC   STBLEORB
000125: 04,2000                                           BANK
000126:
000127: 04,3103  E4,1770                                  EBANK=   SUBEXIT
000128: 04,3103                                           COUNT*   $$/P3879
000129:
000130: 04,3103           04555        P38                TC       BANKCALL
000131: 04,3104           73726                           CADR     AVFLAGA                               #  THIS VEHICLE ACTIVE
000132: 04,3105           03110                           TC       +3
000133: 04,3106           04555        P78                TC       BANKCALL
000134: 04,3107           73741                           CADR     AVFLAGP                               #  OTHER VEHICLE ACTIVE
000135: 04,3110           04555                           TC       BANKCALL
000136: 04,3111           73746                           CADR     P20FLGON                              #  SET UPDATFLG, TRACKFLG
000137: 04,3112           33440                           CAF      V06N33SR                              #  DISPLAY TIG
000138: 04,3113           03427                           TC       VNDSPLY
000139: 04,3114           33441                           CAF      V06N55SR                              #  DISPLAY CENTANG
000140: 04,3115           04555                           TCR      BANKCALL
000141: 04,3116           20763                           CADR     GOFLASHR
000142: 04,3117           14106                           TCF      GOTOPOOH                              #  TERMINATE
000143: 04,3120           13125                           TCF      +5                                    #  PROCEED
000144: 04,3121           13114                           TCF      -5                                    #  RECYCLE
000145: 04,3122           36214                           CAF      THREE                                 #  IMMEDIATE RETURN - BLANK R1, R2
000146: 04,3123           05415                           TCR      BLANKET
000147: 04,3124           15112                           TCF      ENDOFJOB
000148: 04,3125           34715                           CAF      FIVE


000150: 04,3126           55131                           TS       OPTION1
000151: 04,3127           34712                           CAF      ONE
000152: 04,3130           55132                           TS       OPTION2                               #  OPTION CODE IS SET TO 1
000153: 04,3131           33442                           CAF      V04N06SR                              #  DISPLAY OPTION CODE -1 = SOI, 2 = SOR
000154: 04,3132           04555                           TCR      BANKCALL
000155: 04,3133           20763                           CADR     GOFLASHR
000156: 04,3134           14106                           TCF      GOTOPOOH                              #  TERMINATE
000157: 04,3135           13142                           TCF      +5                                    #  PROCEED
000158: 04,3136           13131                           TCF      -5                                    #  RECYCLE
000159: 04,3137           34710                           CAF      BIT3                                  #  IMMEDIATE RETURN - BLANK R3
000160: 04,3140           05415                           TCR      BLANKET
000161: 04,3141           15112                           TCF      ENDOFJOB
000162: 04,3142           06006                           TC       INTPRET
000163: 04,3143           70535                           SLOAD    SR1
000164: 04,3144           01133                                    OPTION2
000165: 04,3145           71230                           BHIZ     DLOAD
000166: 04,3146           11154                                    OPTN1
000167: 04,3147           03656                                    TINT
000168: 04,3150           02611                           STORE    TINTSOI                               #  STORE FOR SOR PHASE
000169: 04,3151           77614                           CLRGO
000170: 04,3152           01230                                    OPTNSW                                #  OPTNSW
000171:
000172: 04,3153           11203                                    JUNCTN1
000173: 04,3154           43014        OPTN1              SET      CLEAR                                 #  SOI
000174: 04,3155           01070                                    OPTNSW
000175: 04,3156           00670                                    UPDATFLG
000176: 04,3157           77624                           CALL
000177: 04,3160           11362                                    PREC/TT
000178: 04,3161           43214                           SET      DAD
000179: 04,3162           00470                                    UPDATFLG
000180: 04,3163           03413                                    TIG
000181: 04,3164           03656                           STORE    TINT                                  #  TI = TIG + TF
000182: 04,3165           01046                           STORE    DSPTEM1                               #  FOR DISPLAY
000183: 04,3166           77776                           EXIT
000184: 04,3167           33443                           CAF      V06N57SR                              #  DISPLAY DELTA R
000185: 04,3170           04555                           TCR      BANKCALL
000186: 04,3171           20763                           CADR     GOFLASHR
000187: 04,3172           14106                           TCF      GOTOPOOH                              #  TERMINATE
000188: 04,3173           13200                           TCF      +5                                    #  PROCEED
000189: 04,3174           13167                           TCF      -5                                    #  RECYCLE
000190: 04,3175           36211                           CAF      SIX                                   #  IMMEDIATE RETURN - BLANK R2, R3
000191: 04,3176           05415                           TCR      BLANKET
000192: 04,3177           15112                           TCF      ENDOFJOB
000193: 04,3200           33444                           CAF      V06N34SR                              #  DISPLAY TIME OF INTERCEPT
000194: 04,3201           03427                           TC       VNDSPLY
000195: 04,3202           06006                           TC       INTPRET
000196: 04,3203           45014        JUNCTN1            CLEAR    CALL
000197: 04,3204           04266                                    P39/79SW
000198: 04,3205           10716                                    SELECTMU                              #  SELECT MU, CLEAR FINALFLG, GO TO VN1645
000199: 04,3206           77624        RECYCLE            CALL
000200: 04,3207           11362                                    PREC/TT


000202: 04,3210           71214                           BOFF     DLOAD
000203: 04,3211           01350                                    OPTNSW
000204: 04,3212           11232                                    OPTN2
000205: 04,3213           03656                                    TINT
000206: 04,3214           34041                           STCALL   TDEC1                                 #  PRECISION UPDATE PASSIVE VEHICLE TO
000207: 04,3215           11413                                    INTRPVP                               #  INTERCEPT TIME
000208: 04,3216           53575                           VLOAD    UNIT
000209: 04,3217           00001                                    RATT                                  #  RP/(RP)
000210: 04,3220           47315                           PDVL     VXV
000211: 04,3221           00007                                    VATT
000212: 04,3222           60246                           ABVAL    NORM                                  #  (VP X RP/(RP))
000213: 04,3223           00047                                    X1
000214: 04,3224           56325                           PDDL     DDV
000215: 04,3225           02611                                    DELTAR
000216: 04,3226           77657                           SL*                                            #  DELTA R / (VP X RP/RP)
000217: 04,3227           20172                                    0          -7,1
000218: 04,3230           36613                           STCALL   DELTTIME                              #  DELTA T = (RP) DELTA R / (VP X RP)
000219: 04,3231           11236                                    JUNCTN2
000220: 04,3232           43345        OPTN2              DLOAD    DAD
000221: 04,3233           02611                                    TINTSOI
000222: 04,3234           00037                                    T
000223: 04,3235           03656                           STORE    TINT                                  #  TI = TI + TF
000224: 04,3236           45345        JUNCTN2            DLOAD    DSU
000225: 04,3237           03656                                    TINT
000226: 04,3240           02613                                    DELTTIME
000227: 04,3241           02615                           STORE    TARGTIME                              #  TT = TI - DELTA T
000228:
000229:                                                                                                  #  .... MAINRTNE ....
000230:
000231:                                                                                                  #  SUBROUTINES USED
000232:
000233:                                                                                                  #        S3435.25
000234:                                                                                                  #        PERIAPO1
000235:                                                                                                  #        SHIFTR1
000236:                                                                                                  #        VNDSPLY
000237:                                                                                                  #        BANKCALL
000238:                                                                                                  #        GOFLASH
000239:                                                                                                  #        GOTOPOOH
000240:                                                                                                  #        VN1645
000241:
000242: 04,3242           34041        MAINRTNE           STCALL   TDEC1                                 #  PRECISION UPDATE PASSIVE VEHICLE TO
000243: 04,3243           11413                                    INTRPVP                               #        TARGET TIME
000244: 04,3244           77745                           DLOAD
000245: 04,3245           03413                                    TIG
000246: 04,3246           03503                           STORE    INTIME
000247: 04,3247           77331                           SSP      VLOAD
000248: 04,3250           02371                                    SUBEXIT
000249: 04,3251           11255                                    TEST3979
000250: 04,3252           00001                                    RATT
000251: 04,3253           77624                           CALL
000252: 04,3254           72547                                    S3435.25
000253: 04,3255           43014        TEST3979           BOFF     BON
000254:


000256: 04,3256           04346                                    P39/79SW
000257: 04,3257           11266                                    MAINRTN1
000258: 04,3260           01311                                    FINALFLG
000259: 04,3261           11264                                    P39P79
000260: 04,3262           77614                           SET
000261: 04,3263           00470                                    UPDATFLG
000262: 04,3264           77776        P39P79             EXIT
000263: 04,3265           03313                           TC       DSPLY81                               #  FOR P39 AND P79
000264: 04,3266           51575        MAINRTN1           VLOAD    ABVAL
000265: 04,3267           03646                                    DELVEET3
000266: 04,3270           26635                           STOVL    DELVTPI                               #  DELTA V
000267: 04,3271           03640                                    VPASS4
000268: 04,3272           51451                           VSU      ABVAL
000269: 04,3273           03620                                    VTPRIME
000270: 04,3274           26637                           STOVL    DELVTPF                               #  DELTA V (FINAL) = V'T - VT
000271: 04,3275           03540                                    RACT3
000272: 04,3276           45115                           PDVL     CALL
000273: 04,3277           03612                                    VIPRIME
000274: 04,3300           45312                                    PERIAPO1                              #  GET PERIGEE ALTITUDE
000275: 04,3301           77624                           CALL
000276: 04,3302           45422                                    SHIFTR1
000277: 04,3303           02641                           STORE    POSTTPI
000278: 04,3304           43014                           BON      SET
000279: 04,3305           01311                                    FINALFLG
000280: 04,3306           11310                                    DSPLY58
000281: 04,3307           00470                                    UPDATFLG
000282: 04,3310           77776        DSPLY58            EXIT
000283: 04,3311           33445                           CAF      V06N58SR                              #  DISPLAY HP, DELTA V, DELTA V (FINAL)
000284: 04,3312           03427                           TC       VNDSPLY
000285: 04,3313           33446        DSPLY81            CAF      V06N81SR                              #  DISPLAY DELTA V (LV)
000286: 04,3314           03427                           TC       VNDSPLY
000287: 04,3315           06006                           TC       INTPRET
000288: 04,3316           77214                           CLEAR    VLOAD
000289: 04,3317           01267                                    XDELVFLG
000290: 04,3320           03646                                    DELVEET3
000291: 04,3321           37646                           STCALL   DELVSIN
000292: 04,3322           73005                                    VN1645                                #  DISPLAY TRKMKCNT, TTOGO, +MGA
000293: 04,3323           52014                           BON      GOTO
000294: 04,3324           04306                                    P39/79SW
000295: 04,3325           11347                                    P39/P79B
000296: 04,3326           11206                                    RECYCLE
000297:
000298:                                                                                                  #  STABLE ORBIT MIDCOURSE PROGRAM (P39 AND P79)
000299:
000300:                                                                                                  #  MOD NO -1             LOG SECTION - STABLE ORBIT - P38-P39
000301:                                                                                                  #  MOD BY RUDNICKI.S     DATE 25JAN68
000302:
000303:                                                                                                  #  FUNCTIONAL DESCRIPTION
000304:
000305:                                                                                                  #        P39 AND P79 CALCULATE THE REQUIRED DELTA V AND OTHER INITIAL
000306:                                                                                                  #        CONDITIONS REQUIRED BY THE AGC TO MAKE A MIDCOURSE CORRECTION


000308:                                                                                                  #        MANEUVER AFTER COMPLETING THE SOI MANEUVER BUT BEFORE MAKING
000309:                                                                                                  #        THE SOR MANEUVER
000310:
000311:                                                                                                  #  CALLING SEQUENCE
000312:
000313:                                                                                                  #        ASTRONAUT REQUEST THRU DSKY
000314:
000315:                                                                                                  #        V37E39E         IF THIS VEHICLE IS ACTIVE VEHICLE
000316:                                                                                                  #        V37E79E         IF OTHER VEHICLE IS ACTIVE VEHICLE
000317:
000318:                                                                                                  #  INPUT
000319:
000320:                                                                                                  #        (1)  TPASS4     TIME OF INTERCEPT - SAVED FROM P38/P78
000321:                                                                                                  #        (2)  TARGTIME   TIME THAT PASSIVE VEHICLE IS AT INTERCEPT POINT -
000322:                                                                                                  #                        SAVED FROM P38/P78
000323:
000324:                                                                                                  #  OUTPUT
000325:
000326:                                                                                                  #        (1)  TRKMKCNT   NUMBER OF MARKS
000327:                                                                                                  #        (2)  TTOGO      TIME TO GO
000328:                                                                                                  #        (3)  +MGA       MIDDLE GIMBAL ANGLE
000329:                                                                                                  #        (4)  DELVLVC    DELTA VELOCITY AT MID - LOCAL VERTICAL COORDINATES
000330:
000331:                                                                                                  #  SUBROUTINES USED
000332:
000333:                                                                                                  #        AVFLAGA
000334:                                                                                                  #        AVFLAGP
000335:                                                                                                  #        LOADTIME
000336:                                                                                                  #        SELECTMU
000337:                                                                                                  #        PRECSET
000338:                                                                                                  #        S34/35.1
000339:                                                                                                  #        MAINRTNE
000340:
000341: 04,3327           04555        P39                TC       BANKCALL
000342: 04,3330           73726                           CADR     AVFLAGA                               #  THIS VEHICLE ACTIVE
000343: 04,3331           00006                           EXTEND
000344: 04,3332           31422                           DCA      ATIGINC
000345: 04,3333           03340                           TC       P39/P79A
000346: 04,3334           04555        P79                TC       BANKCALL
000347: 04,3335           73741                           CADR     AVFLAGP                               #  OTHER VEHICLE ACTIVE
000348: 04,3336           00006                           EXTEND
000349: 04,3337           31424                           DCA      PTIGINC
000350: 04,3340           53764        P39/P79A           DXCH     KT                                    #  TIME TO PREPARE FOR BURN
000351: 04,3341           04555                           TC       BANKCALL
000352: 04,3342           73746                           CADR     P20FLGON                              #  SET UPDATFLG, TRACKFLG
000353: 04,3343           06006                           TC       INTPRET
000354: 04,3344           45014                           SET      CALL
000355: 04,3345           04066                                    P39/79SW
000356: 04,3346           10716                                    SELECTMU                              #  SELECT MU, CLEAR FINALFLG, GO TO VN1645
000357: 04,3347           43234        P39/P79B           RTB      DAD


000359: 04,3350           45505                                    LOADTIME
000360: 04,3351           02364                                    KT
000361: 04,3352           03413                           STORE    TIG                                   #  TIG = T (PRESENT) + PREPARATION TIME
000362: 04,3353           34041                           STCALL   TDEC1                                 #  PRECISION UPDATE ACTIVE AND PASSIVE
000363: 04,3354           45354                                    PRECSET                               #        VEHICLES TO TIG
000364: 04,3355           77624                           CALL
000365: 04,3356           72522                                    S34/35.1                              #  GET UNIT NORMAL
000366: 04,3357           52145                           DLOAD    GOTO
000367: 04,3360           02615                                    TARGTIME
000368: 04,3361           11242                                    MAINRTNE                              #  CALCULATE DELTA V AND DELTA V (LV)
000369:
000370:                                                                                                  #  .... PREC/TT ....
000371:
000372:                                                                                                  #  SUBROUTINES USED
000373:
000374:                                                                                                  #        PRECSET
000375:                                                                                                  #        TIMETHET
000376:                                                                                                  #        S34/35.1
000377:
000378: 04,3362           71220        PREC/TT            STQ      DLOAD
000379: 04,3363           02367                                    RTRN
000380: 04,3364           03413                                    TIG
000381: 04,3365           34041                           STCALL   TDEC1                                 #  PRECISION UPDATE ACTIVE AND PASSIVE
000382: 04,3366           45354                                    PRECSET                               #        VEHICLES TO TIG
000383: 04,3367           53775                           VLOAD    VSR*
000384: 04,3370           03554                                    RPASS3
000385: 04,3371           57176                                    0,2
000386: 04,3372           16657                           STODL    RVEC
000387: 04,3373           03754                                    CENTANG
000388: 04,3374           71406                           PUSH     COS
000389: 04,3375           16734                           STODL    CSTH
000390: 04,3376           43156                           SIN      SET
000391: 04,3377           03466                                    RVSW
000392: 04,3400           26732                           STOVL    SNTH
000393:
000394: 04,3401           03562                                    VPASS3
000395: 04,3402           77657                           VSR*
000396: 04,3403           57176                                    0,2
000397: 04,3404           36746                           STCALL   VVEC                                  #  GET TRANSFER TIME BASED ON CENTANG OF
000398: 04,3405           24737                                    TIMETHET                              #        PASSIVE VEHICLE
000399: 04,3406           77624                           CALL
000400: 04,3407           72522                                    S34/35.1                              #  GET UNIT NORMAL
000401: 04,3410           52145                           DLOAD    GOTO
000402: 04,3411           00037                                    T
000403: 04,3412           02367                                    RTRN
000404:
000405:                                                                                                  #  .... INTRPVP ....
000406:
000407:                                                                                                  #  SUBROUTINES USED
000408:
000409:                                                                                                  #        CSMPREC
000410:                                                                                                  #        LEMPREC
000411:
000412: 04,3413           43020        INTRPVP            STQ      BOFF                                  #  PRECISION UPDATE PASSIVE VEHICLE TO
000413: 04,3414           02367                                    RTRN                                  #        TDEC1


000415: 04,3415           01352                                    AVFLAG
000416: 04,3416           11423                                    OTHERV
000417: 04,3417           77624                           CALL
000418: 04,3420           27022                                    CSMPREC
000419: 04,3421           77650                           GOTO
000420: 04,3422           02367                                    RTRN
000421: 04,3423           77624        OTHERV             CALL
000422: 04,3424           27036                                    LEMPREC
000423: 04,3425           77650                           GOTO
000424: 04,3426           02367                                    RTRN
000425:
000426:                                                                                                  #  .... VNDSPLY ....
000427:
000428:                                                                                                  #  SUBROUTINES USED
000429:
000430:                                                                                                  #        BANKCALL
000431:                                                                                                  #        GOFLASH
000432:                                                                                                  #        GOTOPOOH
000433:
000434: 04,3427           00006        VNDSPLY            EXTEND                                         #  FLASH DISPLAY
000435: 04,3430           23767                           QXCH     RTRN
000436: 04,3431           55765                           TS       VERBNOUN
000437: 04,3432           31765                           CA       VERBNOUN
000438: 04,3433           04555                           TCR      BANKCALL
000439: 04,3434           20624                           CADR     GOFLASH
000440: 04,3435           14106                           TCF      GOTOPOOH                              #  TERMINATE
000441: 04,3436           01767                           TC       RTRN                                  #  PROCEED
000442: 04,3437           13432                           TCF      -5                                    #  RECYCLE
000443: 04,3440           01441        V06N33SR           VN       0633
000444: 04,3441           01467        V06N55SR           VN       0655
000445: 04,3442           01006        V04N06SR           VN       0406
000446: 04,3443           01471        V06N57SR           VN       0657
000447: 04,3444           01442        V06N34SR           VN       0634
000448: 04,3445           01472        V06N58SR           VN       0658
000449: 04,3446           01521        V06N81SR           VN       0681
000450:
000451:

End of include-file STABLE_ORBIT_-_P38-P39.agc.  Parent file is MAIN.agc


