
Source Code


000002:                                                                                                  ## Copyright:   Public domain.
000003:                                                                                                  ## Filename:    STABLE_ORBIT.agc
000004:                                                                                                  ## Purpose:     Part of the source code for Colossus, build 249.
000005:                                                                                                  ##              It is part of the source code for the Command Module's (CM)
000006:                                                                                                  ##              Apollo Guidance Computer (AGC), possibly for Apollo 8 and 9.
000007:                                                                                                  ## Assembler:   yaYUL
000008:                                                                                                  ## Reference:   pp. 518-527 of 1701.pdf.
000009:                                                                                                  ## Contact:     Ron Burkey <info@sandroid.org>.
000010:                                                                                                  ## Website:     www.ibiblio.org/apollo.
000011:                                                                                                  ## Mod history: 08/12/04 RSB.   Began transcribing.
000012:                                                                                                  ##
000013:                                                                                                  ## The contents of the "Colossus249" files, in general, are transcribed
000014:                                                                                                  ## from a scanned document obtained from MIT's website,
000015:                                                                                                  ## http://hrst.mit.edu/hrs/apollo/public/archive/1701.pdf.  Notations on this
000016:                                                                                                  ## document read, in part:
000017:                                                                                                  ##
000018:                                                                                                  ##      Assemble revision 249 of AGC program Colossus by NASA
000019:                                                                                                  ##      2021111-041.  October 28, 1968.
000020:                                                                                                  ##
000021:                                                                                                  ##      This AGC program shall also be referred to as
000022:                                                                                                  ##                              Colossus 1A
000023:                                                                                                  ##
000024:                                                                                                  ##      Prepared by
000025:                                                                                                  ##                      Massachusetts Institute of Technology
000026:                                                                                                  ##                      75 Cambridge Parkway
000027:                                                                                                  ##                      Cambridge, Massachusetts
000028:                                                                                                  ##      under NASA contract NAS 9-4065.
000029:                                                                                                  ##
000030:                                                                                                  ## Refer directly to the online document mentioned above for further information.
000031:                                                                                                  ## Please report any errors (relative to 1701.pdf) to info@sandroid.org.
000032:                                                                                                  ##
000033:                                                                                                  ## In some cases, where the source code for Luminary 131 overlaps that of
000034:                                                                                                  ## Colossus 249, this code is instead copied from the corresponding Luminary 131
000035:                                                                                                  ## source file, and then is proofed to incorporate any changes.
000036:


000038:                                                                                                  #  STABLE ORBIT RENDEZVOUS PROGRAMS (P38 AND P78)
000039:
000040:                                                                                                  #  MOD NO -1             LOG SECTION -- STABLE ORBIT -- P38-P39
000041:                                                                                                  #  MOD BY RUDNICKI.S     DATE 26JAN68
000042:
000043:                                                                                                  #  FUNCTIONAL DESCRIPTION
000044:
000045:                                                                                                  #        P38 AND P78 CALCULATE THE REQUIRED DELTA V AND OTHER INITIAL
000046:                                                                                                  #        CONDITIONS REQUIRED BY TEH AGC TO (1) PUT THE ACTIVE VEHICLE
000047:                                                                                                  #        ON A TRANSFER TRAJECTORY THAT INTERCEPTS THE PASSIVE VEHICLE
000048:                                                                                                  #        ORBIT A GIVEN DISTANCE, DELTA R, EITHER AHEAD OF OR BEHIND THE
000049:                                                                                                  #        PASSIVE VEHICLE AND (2) ACTUALLY PLACE THE ACTIVE VEHICLE IN THE
000050:                                                                                                  #        PASSIVE VEHICLE ORBIT WITH A DELTA R SEPARATION BETWEEN THE TWO
000051:                                                                                                  #        VEHICLES
000052:
000053:                                                                                                  #  CALLING SEQUENCE
000054:
000055:                                                                                                  #        ASTRONAUT REQUEST THRU DSKY
000056:
000057:                                                                                                  #        V37E38E         IF THIS VEHICLE IS ACTIVE VEHICLE
000058:                                                                                                  #        V37E78E         IF OTHER VEHICLE IS ACTIVE VEHICLE
000059:
000060:                                                                                                  #  INPUT
000061:
000062:                                                                                                  #        (1)     SOI MANEUVER
000063:
000064:                                                                                                  #                (A)  TIG        TIME OF SOI MANEUVER
000065:                                                                                                  #                (B)  CENTANG    ORBITAL CENTRAL ANGLE OF THE PASSIVE VEHICLE
000066:                                                                                                  #                                DURING THE TRANSFER FROM TIG TO TIME OF INTERCEPT
000067:                                                                                                  #                (C)  DELTAR     THE DESIRED SEPARATION OF THE TWO VEHICLES
000068:                                                                                                  #                                SPECIFIED AS A DISTANCE ALONG THE PASSIVE VEHICLE
000069:                                                                                                  #                                ORBIT
000070:                                                                                                  #                (D)  OPTION     EQUALS 1 FOR SOI
000071:
000072:                                                                                                  #        (2)     SOR MANEUVER
000073:
000074:                                                                                                  #                (A)  TIG        TIME OF SOR MANEUVER
000075:                                                                                                  #                (B)  CENTANG    AN OPTIONAL RESPECIFICATION OF 1 (B) ABOVE
000076:                                                                                                  #                (C)  OPTION     EQUALS -2 FOR SOR
000077:                                                                                                  #                (D)  DELTTIME   THE TIME REQUIRED TO TRAVERSE DELTA R WHEN
000078:                                                                                                  #                                TRAVELING AT A VELOCITY EQUAL TO THE HORIZONTAL
000079:                                                                                                  #                                VELOCITY OF THE PASSIVE VEHICLE -- SAVED FROM
000080:                                                                                                  #                                SOI PHASE
000081:                                                                                                  #                (E)  TINT       TIME OF INTERCEPT (SOI) -- SAVED FROM SOI PHASE
000082:
000083:                                                                                                  #  OUTPUT
000084:
000085:                                                                                                  #        (1)  TRKMKCNT   NUMBER OF MARKS
000086:                                                                                                  #        (2)  TTOGO      TIME TO GO
000087:                                                                                                  #        (3)  +MGA       MIDDLE GIMBAL ANGLE


000089:                                                                                                  #        (4)  DSPTEM1    TIME OF INTERCEPT OF PASSIVE VEHICLE ORBIT
000090:                                                                                                  #                        (FOR SOI ONLY)
000091:                                                                                                  #        (5)  POSTTPI    PERIGEE ALTITUDE OF ACTIVE VEHICLE ORBIT AFTER
000092:                                                                                                  #                        THE SOI (SOR) MANEUVER
000093:                                                                                                  #        (6)  DELVTPI    MAGNITUDE OF DELTA V AT SOI (SOR) TIME
000094:                                                                                                  #        (7)  DELVTPF    MAGNITUDE OF DELTA V AT INTERCEPT TIME
000095:                                                                                                  #        (8)  DELTA      VELOCITY AT SOI (AND SOR) -- LOCAL VERTICAL
000096:                                                                                                  #                        CORDINATES
000097:
000098:                                                                                                  #  SUBROUTINE USED
000099:
000100:                                                                                                  #        AVFLAGA
000101:                                                                                                  #        AVFLAGP
000102:                                                                                                  #        VNDSPLY
000103:                                                                                                  #        BANKCALL
000104:                                                                                                  #        GOFLASHR
000105:                                                                                                  #        GOTOP00H
000106:                                                                                                  #        BLANKET
000107:                                                                                                  #        ENDOFJOB
000108:                                                                                                  #        PREC/TT
000109:                                                                                                  #        SELECTMU
000110:                                                                                                  #        INTRPVP
000111:                                                                                                  #        MAINRTNE
000112:
000113: 04,3103                                           BANK     04
000114: 04,2000                                           SETLOC   STBLEORB
000115: 04,2000                                           BANK
000116:
000117: 04,3103  E4,1770                                  EBANK=   SUBEXIT
000118: 04,3103                                           COUNT*   $$/P3879
000119:
000120: 04,3103           04555        P38                TC       BANKCALL
000121: 04,3104           73726                           CADR     AVFLAGA                               #  THIS VEHICLE ACTIVE
000122: 04,3105           03110                           TC       +3
000123: 04,3106           04555        P78                TC       BANKCALL
000124: 04,3107           73741                           CADR     AVFLAGP                               #  OTHER VEHICLE ACTIVE
000125: 04,3110           04555                           TC       BANKCALL
000126: 04,3111           73746                           CADR     P20FLGON                              #  SET UPDATFLG, TRACKFLG
000127: 04,3112           33440                           CAF      V06N33SR                              #  DISPLAY TIG
000128: 04,3113           03427                           TC       VNDSPLY
000129: 04,3114           33441                           CAF      V06N55SR                              #  DISPLAY CENTANG
000130: 04,3115           04555                           TCR      BANKCALL
000131: 04,3116           20763                           CADR     GOFLASHR
000132: 04,3117           14106                           TCF      GOTOP00H                              #  TERMINATE
000133: 04,3120           13125                           TCF      +5                                    #  PROCEED
000134: 04,3121           13114                           TCF      -5                                    #  RECYCLE
000135: 04,3122           36214                           CAF      THREE                                 #  IMMEDIATE RETURN -- BLANK R1, R2
000136: 04,3123           05415                           TCR      BLANKET
000137: 04,3124           15112                           TCF      ENDOFJOB
000138: 04,3125           34715                           CAF      FIVE


000140: 04,3126           55131                           TS       OPTION1
000141: 04,3127           34712                           CAF      ONE
000142: 04,3130           55132                           TS       OPTION2                               #  OPTION CODE IS SET TO 1
000143: 04,3131           33442                           CAF      V04N06SR                              #  DISPLAY OPTION CODE -1 = SOI, 2 = SOR
000144: 04,3132           04555                           TCR      BANKCALL
000145: 04,3133           20763                           CADR     GOFLASHR
000146: 04,3134           14106                           TCF      GOTOP00H                              #  TERMINATE
000147: 04,3135           13142                           TCF      +5                                    #  PROCEED
000148: 04,3136           13131                           TCF      -5                                    #  RECYCLE
000149: 04,3137           34710                           CAF      BIT3                                  #  IMMEDIATE RETURN -- BLANK R3
000150: 04,3140           05415                           TCR      BLANKET
000151: 04,3141           15112                           TCF      ENDOFJOB
000152: 04,3142           06006                           TC       INTPRET
000153: 04,3143           70535                           SLOAD    SR1
000154: 04,3144           01133                                    OPTION2
000155: 04,3145           71230                           BHIZ     DLOAD
000156: 04,3146           11154                                    OPTN1
000157: 04,3147           03656                                    TINT
000158: 04,3150           02611                           STORE    TINTSOI                               #  STORE FOR SOR PHASE
000159: 04,3151           77614                           CLRGO
000160: 04,3152           01230                                    OPTNSW                                #  OPTNSW


000162: 04,3153           11203                                    JUNCTN1
000163: 04,3154           43014        OPTN1              SET      CLEAR                                 #  SOI
000164: 04,3155           01070                                    OPTNSW
000165: 04,3156           00670                                    UPDATFLG
000166: 04,3157           77624                           CALL
000167: 04,3160           11362                                    PREC/TT
000168: 04,3161           43214                           SET      DAD
000169: 04,3162           00470                                    UPDATFLG
000170: 04,3163           03413                                    TIG
000171: 04,3164           03656                           STORE    TINT                                  #  TI = TIG + TF
000172: 04,3165           01046                           STORE    DSPTEM1                               #  FOR DISPLAY
000173: 04,3166           77776                           EXIT
000174: 04,3167           33443                           CAF      V06N57SR                              #  DISPLAY DELTA R
000175: 04,3170           04555                           TCR      BANKCALL
000176: 04,3171           20763                           CADR     GOFLASHR
000177: 04,3172           14106                           TCF      GOTOP00H                              #  TERMINATE
000178: 04,3173           13200                           TCF      +5                                    #  PROCEED
000179: 04,3174           13167                           TCF      -5                                    #  RECYCLE
000180: 04,3175           36211                           CAF      SIX                                   #  IMMEDIATE RETURN -- BLANK R2, R3
000181: 04,3176           05415                           TCR      BLANKET
000182: 04,3177           15112                           TCF      ENDOFJOB
000183: 04,3200           33444                           CAF      V06N34SR                              #  DISPLAY TIME OF INTERCEPT
000184: 04,3201           03427                           TC       VNDSPLY
000185: 04,3202           06006                           TC       INTPRET
000186: 04,3203           45014        JUNCTN1            CLEAR    CALL
000187: 04,3204           04266                                    P39/79SW
000188: 04,3205           10716                                    SELECTMU                              #  SELECT MU, CLEAR FINALFLG, GO TO VN1645
000189: 04,3206           77624        RECYCLE            CALL
000190: 04,3207           11362                                    PREC/TT


000192:                                                                                                  #  This page of 1701.pdf is blank --- RSB 2004
000193:


000195: 04,3210           71214                           BOFF     DLOAD
000196: 04,3211           01350                                    OPTNSW
000197: 04,3212           11232                                    OPTN2
000198: 04,3213           03656                                    TINT
000199: 04,3214           34041                           STCALL   TDEC1                                 #  PRECISION UPDATE PASSIVE VEHICLE TO
000200: 04,3215           11413                                    INTRPVP                               #  INTERCEPT TIME
000201: 04,3216           53575                           VLOAD    UNIT
000202: 04,3217           00001                                    RATT                                  #  RP/(RP)
000203: 04,3220           47315                           PDVL     VXV
000204: 04,3221           00007                                    VATT
000205: 04,3222           60246                           ABVAL    NORM                                  #  (VP X RP/(RP))
000206: 04,3223           00047                                    X1
000207: 04,3224           56325                           PDDL     DDV
000208: 04,3225           02611                                    DELTAR
000209: 04,3226           77657                           SL*                                            #  DELTA R / (VP X RP/RP)
000210: 04,3227           20172                                    0          -7,1
000211: 04,3230           36613                           STCALL   DELTTIME                              #  DELTA T = (RP) DELTA R / (VP X RP)
000212: 04,3231           11236                                    JUNCTN2
000213: 04,3232           43345        OPTN2              DLOAD    DAD
000214: 04,3233           02611                                    TINTSOI
000215: 04,3234           00037                                    T
000216: 04,3235           03656                           STORE    TINT                                  #  TI = TI + TF
000217: 04,3236           45345        JUNCTN2            DLOAD    DSU
000218: 04,3237           03656                                    TINT
000219: 04,3240           02613                                    DELTTIME
000220: 04,3241           02615                           STORE    TARGTIME                              #  TT = TI - DELTA T
000221:
000222:                                                                                                  #  .... MAINRTNE ....
000223:
000224:                                                                                                  #  SUBROUTINES USED:
000225:
000226:                                                                                                  #        S3435.25
000227:                                                                                                  #        PERIAPO1
000228:                                                                                                  #        SHIFTR1
000229:                                                                                                  #        VNDSPLY
000230:                                                                                                  #        BANKCALL
000231:                                                                                                  #        GOFLASH
000232:                                                                                                  #        GOTOP00H
000233:                                                                                                  #        VN1645
000234:
000235: 04,3242           34041        MAINRTNE           STCALL   TDEC1                                 #  PRECISION UPDATE PASSIVE VEHICLE TO
000236: 04,3243           11413                                    INTRPVP                               #        TARGET TIME
000237: 04,3244           77745                           DLOAD
000238: 04,3245           03413                                    TIG
000239: 04,3246           03503                           STORE    INTIME
000240: 04,3247           77331                           SSP      VLOAD
000241: 04,3250           02371                                    SUBEXIT
000242: 04,3251           11255                                    TEST3979
000243: 04,3252           00001                                    RATT
000244: 04,3253           77624                           CALL
000245: 04,3254           72547                                    S3435.25
000246: 04,3255           43014        TEST3979           BOFF     BON
000247:


000249: 04,3256           04346                                    P39/79SW
000250: 04,3257           11266                                    MAINRTN1
000251: 04,3260           01311                                    FINALFLG
000252: 04,3261           11264                                    P39P79
000253: 04,3262           77614                           SET
000254: 04,3263           00470                                    UPDATFLG
000255: 04,3264           77776        P39P79             EXIT
000256: 04,3265           03313                           TC       DSPLY81                               #  FOR P39 AND P79
000257: 04,3266           51575        MAINRTN1           VLOAD    ABVAL
000258: 04,3267           03646                                    DELVEET3
000259: 04,3270           26635                           STOVL    DELVTPI                               #  DELTA V
000260: 04,3271           03640                                    VPASS4
000261: 04,3272           51451                           VSU      ABVAL
000262: 04,3273           03620                                    VTPRIME
000263: 04,3274           26637                           STOVL    DELVTPF                               #  DELTA V (FINAL) = V-T - VT
000264: 04,3275           03540                                    RACT3
000265: 04,3276           45115                           PDVL     CALL
000266: 04,3277           03612                                    VIPRIME
000267: 04,3300           45312                                    PERIAPO1                              #  GET PERIGEE ALTITUDE
000268: 04,3301           77624                           CALL
000269: 04,3302           45422                                    SHIFTR1
000270: 04,3303           02641                           STORE    POSTTPI
000271: 04,3304           43014                           BON      SET
000272: 04,3305           01311                                    FINALFLG
000273: 04,3306           11310                                    DSPLY58
000274: 04,3307           00470                                    UPDATFLG
000275: 04,3310           77776        DSPLY58            EXIT
000276: 04,3311           33445                           CAF      V06N58SR                              #  DISPLAY HP, DELTA V, DELTA V (FINAL)
000277: 04,3312           03427                           TC       VNDSPLY
000278: 04,3313           33446        DSPLY81            CAF      V06N81SR                              #  DISPLAY DELTA V (LV)
000279: 04,3314           03427                           TC       VNDSPLY
000280: 04,3315           06006                           TC       INTPRET
000281: 04,3316           77214                           CLEAR    VLOAD
000282: 04,3317           01267                                    XDELVFLG
000283: 04,3320           03646                                    DELVEET3
000284: 04,3321           37646                           STCALL   DELVSIN
000285: 04,3322           73005                                    VN1645                                #  DISPLAY TRKMKCNT, TTOGO, +MGA
000286: 04,3323           52014                           BON      GOTO
000287: 04,3324           04306                                    P39/79SW
000288: 04,3325           11347                                    P39/P79B
000289: 04,3326           11206                                    RECYCLE
000290:
000291:                                                                                                  #  STABLE ORBIT MIDCOURSE PROGRAM (P39 AND P79)
000292:
000293:                                                                                                  #  MOD NO -1             LOG SECTION -- STABLE ORBIT -- P38-P39
000294:                                                                                                  #  MOD BY RUDNICKI, S    DATE 25JAN68
000295:
000296:                                                                                                  #  FUNCTIONAL DESCRIPTION
000297:
000298:                                                                                                  #        P39 AND P79 CALCULATE THE REQUIRED DELTA V AND OTHER INITIAL
000299:                                                                                                  #        CONDITIONS REQUIRED BY TEH AGC TO MAKE A MIDCOURSE CORRECTION


000301:                                                                                                  #        MANEUVER AFTER COMPLETING THE SOI MANEUVER BUT BEFORE MAKING
000302:                                                                                                  #        THE SOR MANEUVER.
000303:
000304:                                                                                                  #  CALLING SEQUENCE
000305:
000306:                                                                                                  #        ASTRONAUT REQUEST THRU DSKY
000307:
000308:                                                                                                  #        V37E39E         IF THIS VEHICLE IS ACTIVE VEHICLE
000309:                                                                                                  #        V37E79E         IF OTHER VEHICLE IS ACTIVE VEHICLE
000310:
000311:                                                                                                  #  INPUT
000312:
000313:                                                                                                  #        (1)  TPASS4     TIME OF INTERCEPT -- SAVED FROM P38/P78
000314:                                                                                                  #        (2)  TARGTIME   TIME THAT PASSIVE VEHICLE IS AT INTERCEPT POINT --
000315:                                                                                                  #                        SAED FROM P38/P78
000316:
000317:                                                                                                  #  OUTPUT
000318:
000319:                                                                                                  #        (1)  TRKMKCNT   NUMBER OF MARKS.
000320:                                                                                                  #        (2)  TTOGO      TIME TO GO
000321:                                                                                                  #        (3)  +MGA       MIDDLE GIMBAL ANGLE
000322:                                                                                                  #        (4)  DELVLVC    DELTA VELOCITY AT MID -- LOCAL VERTICAL COORDINATES
000323:
000324:                                                                                                  #  SUBROUTINES USED
000325:
000326:                                                                                                  #        AVFLAGA
000327:                                                                                                  #        AVFLAGP
000328:                                                                                                  #        LOADTIME
000329:                                                                                                  #        SELECTMU
000330:                                                                                                  #        PRECSET
000331:                                                                                                  #        S34/35.1
000332:                                                                                                  #        MAINRTNE
000333:
000334: 04,3327           04555        P39                TC       BANKCALL
000335: 04,3330           73726                           CADR     AVFLAGA                               #  THIS VEHICLE ACTIVE
000336: 04,3331           00006                           EXTEND
000337: 04,3332           31422                           DCA      ATIGINC
000338: 04,3333           03340                           TC       P39/P79A
000339: 04,3334           04555        P79                TC       BANKCALL
000340: 04,3335           73741                           CADR     AVFLAGP                               #  OTHER VEHICLE ACTIVE
000341: 04,3336           00006                           EXTEND
000342: 04,3337           31424                           DCA      PTIGINC
000343: 04,3340           53764        P39/P79A           DXCH     KT                                    #  TIME TO PREPARE FOR BURN
000344: 04,3341           04555                           TC       BANKCALL
000345: 04,3342           73746                           CADR     P20FLGON                              #  SET UPDATFLG, TRACKFLG
000346: 04,3343           06006                           TC       INTPRET
000347: 04,3344           45014                           SET      CALL
000348: 04,3345           04066                                    P39/79SW
000349: 04,3346           10716                                    SELECTMU                              #  SELECT MU, CLEAR FINALFLG, GO TO VN1645
000350: 04,3347           43234        P39/P79B           RTB      DAD


000352: 04,3350           45505                                    LOADTIME
000353: 04,3351           02364                                    KT
000354: 04,3352           03413                           STORE    TIG                                   #  TIG = T (PRESENT) + PREPARATION TIME
000355: 04,3353           34041                           STCALL   TDEC1                                 #  PRECISION UPDATE ACTIVE AND PASSIVE
000356: 04,3354           45354                                    PRECSET                               #        VEHICLES TO TIG
000357: 04,3355           77624                           CALL
000358: 04,3356           72522                                    S34/35.1                              #  GET UNIT NORMAL
000359: 04,3357           52145                           DLOAD    GOTO
000360: 04,3360           02615                                    TARGTIME
000361: 04,3361           11242                                    MAINRTNE                              #  CALCULATE DELTA V AND DELTA V (LV)
000362:
000363:                                                                                                  #  .... PREC/TT ....
000364:
000365:                                                                                                  #  SUBROUTINES USED
000366:
000367:                                                                                                  #        PRECSET
000368:                                                                                                  #        TIMETHET
000369:                                                                                                  #        S34/35.1
000370:
000371: 04,3362           71220        PREC/TT            STQ      DLOAD
000372: 04,3363           02367                                    RTRN
000373: 04,3364           03413                                    TIG
000374: 04,3365           34041                           STCALL   TDEC1                                 #  PRECISION UPDATE ACTIVE AND PASSIVE
000375: 04,3366           45354                                    PRECSET                               #        VEHICLES TO TIG
000376: 04,3367           53775                           VLOAD    VSR*
000377: 04,3370           03554                                    RPASS3
000378: 04,3371           57176                                    0,2
000379: 04,3372           16657                           STODL    RVEC
000380: 04,3373           03754                                    CENTANG
000381: 04,3374           71406                           PUSH     COS
000382: 04,3375           16734                           STODL    CSTH
000383: 04,3376           43156                           SIN      SET
000384: 04,3377           03466                                    RVSW
000385: 04,3400           26732                           STOVL    SNTH
000386:
000387: 04,3401           03562                                    VPASS3
000388: 04,3402           77657                           VSR*
000389: 04,3403           57176                                    0,2
000390: 04,3404           36746                           STCALL   VVEC                                  #  GET TRANSFER TIME BASED ON CENTANG OF
000391: 04,3405           24737                                    TIMETHET                              #        PASSIVE VEHICLE
000392: 04,3406           77624                           CALL
000393: 04,3407           72522                                    S34/35.1                              #  GET UNIT NORMAL
000394: 04,3410           52145                           DLOAD    GOTO
000395: 04,3411           00037                                    T
000396: 04,3412           02367                                    RTRN
000397:
000398:                                                                                                  #  .... INTRPVP ....
000399:
000400:                                                                                                  #  SUBROUTINES USED
000401:
000402:                                                                                                  #        CSMPREC
000403:                                                                                                  #        LEMPREC
000404:
000405: 04,3413           43020        INTRPVP            STQ      BOFF                                  #  PRECISION UPDATE PASSIVE VEHICLE TO
000406: 04,3414           02367                                    RTRN                                  #        TDEC1


000408: 04,3415           01352                                    AVFLAG
000409: 04,3416           11423                                    OTHERV
000410: 04,3417           77624                           CALL
000411: 04,3420           27022                                    CSMPREC
000412: 04,3421           77650                           GOTO
000413: 04,3422           02367                                    RTRN
000414: 04,3423           77624        OTHERV             CALL
000415: 04,3424           27036                                    LEMPREC
000416: 04,3425           77650                           GOTO
000417: 04,3426           02367                                    RTRN
000418:
000419:                                                                                                  #  .... VNDSPLY ....
000420:
000421:                                                                                                  #  SUBROUTINES USED
000422:
000423:                                                                                                  #        BANKCALL
000424:                                                                                                  #        GOFLASH
000425:                                                                                                  #        GOTOP00H
000426:
000427: 04,3427           00006        VNDSPLY            EXTEND                                         #  FLASH DISPLAY
000428: 04,3430           23767                           QXCH     RTRN
000429: 04,3431           55765                           TS       VERBNOUN
000430: 04,3432           31765                           CA       VERBNOUN
000431: 04,3433           04555                           TCR      BANKCALL
000432: 04,3434           20624                           CADR     GOFLASH
000433: 04,3435           14106                           TCF      GOTOP00H                              #  TERMINATE
000434: 04,3436           01767                           TC       RTRN                                  #  PROCEED
000435: 04,3437           13432                           TCF      -5                                    #  RECYCLE
000436: 04,3440           01441        V06N33SR           VN       0633
000437: 04,3441           01467        V06N55SR           VN       0655
000438: 04,3442           01006        V04N06SR           VN       0406
000439: 04,3443           01471        V06N57SR           VN       0657
000440: 04,3444           01442        V06N34SR           VN       0634
000441: 04,3445           01472        V06N58SR           VN       0658
000442: 04,3446           01521        V06N81SR           VN       0681
000443:
000444:                                                                                                  #  *** END OF SMOOCH  .007 ***
000445:
000446:
000447:

End of include-file STABLE_ORBIT.agc.  Parent file is MAIN.agc


