
Source Code


000002:                                                                                                  ## Copyright:   Public domain.
000003:                                                                                                  ## Filename:    SXTMARK.agc
000004:                                                                                                  ## Purpose:     Part of the source code for Colossus, build 249.
000005:                                                                                                  ##              It is part of the source code for the Command Module's (CM)
000006:                                                                                                  ##              Apollo Guidance Computer (AGC), for Apollo 9.
000007:                                                                                                  ## Assembler:   yaYUL
000008:                                                                                                  ## Reference:   pp. 216-229.
000009:                                                                                                  ## Contact:     Ron Burkey <info@sandroid.org>.
000010:                                                                                                  ## Website:     www.ibiblio.org/apollo.
000011:                                                                                                  ## Mod history: 08/07/04 RSB.   Began data entry.
000012:                                                                                                  ##              2010-10-24 JL   Pseudo-label indentation fixes.
000013:                                                                                                  ##              2017-01-05 RSB  Page numbers now agree with those on the
000014:                                                                                                  ##                              original harcopy, as opposed to the PDF page
000015:                                                                                                  ##                              numbers in 1701.pdf.
000016:                                                                                                  ##              2017-01-20 RSB  Cross-diff'd comment text (not whitespace)
000017:                                                                                                  ##                              vs the already-proofed corresponding Colossus
000018:                                                                                                  ##                              237 and Comanche 55 source-code files
000019:                                                                                                  ##                              and corrected errors found.
000020:                                                                                                  ##              2021-05-30 ABS  20/SXTMK -> 10/SXTMK
000021:                                                                                                  ##
000022:                                                                                                  ## The contents of the "Colossus249" files, in general, are transcribed
000023:                                                                                                  ## from a scanned copy of the program listing.  Notations on this
000024:                                                                                                  ## document read, in part:
000025:                                                                                                  ##
000026:                                                                                                  ##      Assemble revision 249 of AGC program Colossus by NASA
000027:                                                                                                  ##      2021111-041.  October 28, 1968.
000028:                                                                                                  ##
000029:                                                                                                  ##      This AGC program shall also be referred to as
000030:                                                                                                  ##                              Colossus 1A
000031:                                                                                                  ##
000032:                                                                                                  ##      Prepared by
000033:                                                                                                  ##                      Massachusetts Institute of Technology
000034:                                                                                                  ##                      75 Cambridge Parkway
000035:                                                                                                  ##                      Cambridge, Massachusetts
000036:                                                                                                  ##      under NASA contract NAS 9-4065.
000037:                                                                                                  ##
000038:                                                                                                  ## Refer directly to the online document mentioned above for further information.
000039:                                                                                                  ## Please report any errors (relative to the scanned pages) to info@sandroid.org.
000040:                                                                                                  ##
000041:                                                                                                  ## In some cases, where the source code for Luminary 131 overlaps that of
000042:                                                                                                  ## Colossus 249, this code is instead copied from the corresponding Luminary 131
000043:                                                                                                  ## source file, and then is proofed to incorporate any changes.
000044:


000046:                                                                                                  #  PROGRAM NAME - SXTMARK                                        DATE - 5 APRIL 1967
000047:                                                                                                  #  PROGRAM MODIFIED BY 258/278 PROGRAMMERS                       LOG SECTION SXTMARK
000048:                                                                                                  #  MOD BY - R. MELANSON TO ADD DOCUMENTATION                     ASSEMBLY SUNDISK REV. 116
000049:                                                                                                  #
000050:                                                                                                  #  FUNCTIONAL DESCRIPTION-
000051:
000052:                                                                                                  #        SXTMARK IS CALLED FROM INTERNAL ROUTINES WHICH MAY REQUIRE STAR OR LANDMARK MARKINGS BY THE ASTRONAUT.  IF
000053:                                                                                                  #        THE MARK SYSTEM IS NOT IN USE, SXTMARK RESERVES A VAC AREA FOR MARKING AND REQUESTS EXECUTIONOF THE MKVB51
000054:                                                                                                  #        ROUTINE VIA THE EXECUTIVE JOB PRIORITY LIST.  R21 USES THIS ROUTINE TO DETERMINE IF THE MARK SYSTEM CAN BE
000055:                                                                                                  #        USED.  IF YES, SXTMARK RETURNS TO R21 TO PERFORM ITS OWN MARK REQUESTS VIA THE V51 FLASH.
000056:
000057:                                                                                                  #  CALLING SEQUENCE-
000058:
000059:                                                                                                  #        CAF     (NO. MARK REQUESTS IN BITS 1-3 OF A)
000060:                                                                                                  #        TC      BANKCALL
000061:                                                                                                  #        CADR    SXTMARK
000062:
000063:                                                                                                  #  NORMAL EXIT MODE-
000064:
000065:                                                                                                  #        SWRETURN
000066:
000067:                                                                                                  #  ALARM OR ABORT EXIT MODE-
000068:
000069:                                                                                                  #        ABORT
000070:
000071:                                                                                                  #  OUTPUT-
000072:
000073:                                                                                                  #        1)      MARKSTAT CONTAINS MARK VALUE (BITS 14-12) AND VAC AREA ADDRESS
000074:                                                                                                  #        2)      QPRET = VAC AREA POINTER VALUE
000075:                                                                                                  #        3)      1ST WORD OF RESERVED VAC AREA SET TO +0
000076:                                                                                                  #        4)      PRIO32 PLACED IN A REGISTER
000077:
000078:                                                                                                  #  ERASABLE INITIALIZATION-
000079:
000080:                                                                                                  #        1)      BITS 1-3 OF A = NO. MARKS REQUESTED
000081:                                                                                                  #        2)      BITS 2,3 OF EXTVBACT = 0
000082:                                                                                                  #        3)      A VAC AREA MUST BE AVAILABLE (WORD 1 = ADDRESS OF VAC AREA)
000083:
000084:                                                                                                  #  DEBRIS-
000085:
000086:                                                                                                  #        A,Q,L,RUPTREG1,MARKSTAT,QPRET,BIT2 OF EXTVBACT
000087:
000088: 13,2036                                           BANK     13
000089: 07,2000                                           SETLOC   SXTMARKE
000090: 07,2000                                           BANK
000091:
000092: 07,2002  E7,1725                                  EBANK=   MRKBUF1
000093: 07,2002                                           COUNT    07/SXTMK
000094:
000095: 07,2002           00004        SXTMARK            INHINT
000096: 07,2003           54070                           TS       RUPTREG1                              #  NUMBER OF MARKS WANTED
000097:
000098: 07,2004           36211                           CAF      SIX                                   #  BIT2 = MARKING SYSTEM IN USE
000099: 07,2005           71044                           MASK     EXTVBACT                              #  BIT3 = EXTENDED VERB IN PROGRESS
000100: 07,2006           10000                           CCS      A
000101: 07,2007           02013                           TC       MKABORT                               #  SET THEREFORE ABORT


000103: 07,2010           34711                           CAF      BIT2                                  #  NOT SET
000104: 07,2011           27044                           ADS      EXTVBACT                              #  SET IT, RESET IN ENDMARK
000105: 07,2012           02015                           TC       MARKOK                                #  YES, FIND VAC AREA
000106:
000107: 07,2013           05604        MKABORT            TC       BAILOUT
000108: 07,2014           01211                           OCT      01211
000109: 07,2015           10400        MARKOK             CCS      VAC1USE                               #  FIND VAC AREA
000110: 07,2016           02031                           TC       MKVACFND
000111: 07,2017           10454                           CCS      VAC2USE
000112: 07,2020           02031                           TC       MKVACFND
000113: 07,2021           10530                           CCS      VAC3USE
000114: 07,2022           02031                           TC       MKVACFND
000115: 07,2023           10604                           CCS      VAC4USE
000116: 07,2024           02031                           TC       MKVACFND
000117: 07,2025           10660                           CCS      VAC5USE
000118: 07,2026           02031                           TC       MKVACFND
000119: 07,2027           05604                           TC       BAILOUT
000120: 07,2030           01207                           OCT      01207
000121:
000122: 07,2031           64711        MKVACFND           AD       TWO                                   #  ADDRESS OF VAC AREA
000123: 07,2032           55330                           TS       MARKSTAT
000124: 07,2033           50000                           INDEX    A
000125: 07,2034           54052                           TS       QPRET                                 #  STORE NEXT AVAILABLE MARK SLOT
000126:
000127: 07,2035           34714                           CAF      ZERO                                  #  SHOW VAC AREA OCCUPIED
000128: 07,2036           51330                           INDEX    MARKSTAT
000129: 07,2037           53777                           TS       0          -1
000130:
000131: 07,2040           05253                           TC       CHECKMM                               #  BACKUP MARK ROUTINE USES SXTMARK
000132: 07,2041           00065                           MM       53         B-14
000133: 07,2042           12044                           TCF      +2
000134: 07,2043           14570                           TCF      SWRETURN
000135: 07,2044           05253                           TC       CHECKMM
000136: 07,2045           00066                           MM       54         B-14
000137: 07,2046           12050                           TCF      +2
000138: 07,2047           14570                           TCF      SWRETURN
000139: 07,2050           34677                           CAF      BIT12                                 #  DESIRED NUMBER OF MARKS IN 12-14
000140: 07,2051           00006                           EXTEND
000141: 07,2052           70070                           MP       RUPTREG1
000142: 07,2053           56001                           XCH      L
000143: 07,2054           27330                           ADS      MARKSTAT
000144:
000145: 07,2055           37667                           CAF      PRIO32                                #  ENTER MARK JOB
000146: 07,2056           05027                           TC       NOVAC
000147: 07,2057     1330                                  EBANK=   MARKSTAT
000148: 07,2057           02346 16062                     2CADR    MKVB51
000149:
000150: 07,2061           00003                           RELINT
000151: 07,2062           14570                           TCF      SWRETURN                              #  SAME AS MODEEXIT
000152:


000154:                                                                                                  #  PROGRAM NAME - MKRELEAS                                       DATE - 5 APRIL 1967
000155:                                                                                                  #  PROGRAM MODIFIED BY 258/278 PROGRAMMERS                       LOG SECTION SXTMARK
000156:                                                                                                  #  MOD BY - R. MELANSON TO ADD DOCUMENTATION                     ASSEMBLY SUNDISK REV. 116
000157:
000158:                                                                                                  #  FUNCTIONAL DESCRIPTION-
000159:
000160:                                                                                                  #        MKRELEAS IS EXECUTED BY INTERNAL ROUTINES TO RELEASE THE MARK SYSTEM TO MAKE IT AVAILABLE TO OTHER INTERNAL
000161:                                                                                                  #        SYSTEM ROUTINES.  IT ALSO CLEARS THE COARSE OPTICS FLAG BIT AND DISABLES THE OPTICS ERROR COUNTER.
000162:
000163:                                                                                                  #  CALLING SEQUENCE-
000164:
000165:                                                                                                  #        TC      BANKCALL
000166:                                                                                                  #        CADR    MKRELEAS
000167:
000168:                                                                                                  #  NORMAL EXIT MODE-
000169:
000170:                                                                                                  #        SWRETURN
000171:
000172:                                                                                                  #  ALARM OR ABORT EXIT MODE - NONE
000173:
000174:                                                                                                  #  OUTPUT-
000175:
000176:                                                                                                  #        1)      BIT9 OPTMODES SET TO 0
000177:                                                                                                  #        2)      OPTIND SET TO -1
000178:                                                                                                  #        3)      1ST WORD OF VAC AREA SET TO VAC ADDRESS TO SIGNIFY AVAILABILITY.
000179:                                                                                                  #        4)      MARKSTAT CLEARED
000180:                                                                                                  #        5)      BIT2 CHANNEL 12 SET TO 0
000181:
000182:                                                                                                  #  ERASABLE INITIALIZATION-  NONE
000183:
000184:                                                                                                  #  DEBRIS-
000185:
000186:                                                                                                  #        A,MARKSTAT,BIT9 OPTMODES,OPTIND,BIT2 CHANNEL 12
000187:
000188: 07,2063           34714        MKRELEAS           CAF      ZERO                                  #  SHOW MARK SYSTEM NOW AVAILABLE
000189: 07,2064           57330                           XCH      MARKSTAT
000190: 07,2065           10000                           CCS      A
000191: 07,2066           50000                           INDEX    A
000192: 07,2067           54000                           TS       0
000193: 07,2070           00004        MKRLEES            INHINT
000194: 07,2071           44702                           CS       BIT9                                  #  COARSE OPTICS RETURN FLAG.
000195: 07,2072           71331                           MASK     OPTMODES
000196: 07,2073           55331                           TS       OPTMODES
000197:
000198: 07,2074           37716                           CA       NEGONE
000199: 07,2075           55303                           TS       OPTIND                                #  KILL COARS OPTICS
000200:
000201: 07,2076           44711                           CS       BIT2                                  #  DISABLE OPTICS ERROR COUNTER
000202: 07,2077           00006                           EXTEND
000203: 07,2100           03012                           WAND     CHAN12
000204:
000205: 07,2101           00003                           RELINT
000206: 07,2102           04570                           TC       SWRETURN


000208:                                                                                                  #  PROGRAM NAME - MARKRUPT                                       DATE - 5 APRIL 1967
000209:                                                                                                  #  PROGRAM MODIFIED BY 258/278 PROGRAMMERS                       LOG SECTION SXTMARK
000210:                                                                                                  #  MOD BY - R. MELANSON TO ADD DOCUMENTATION                     ASSEMBLY SUNDISK REV. 116
000211:
000212:                                                                                                  #  FUNCTIONAL DESCRIPTION-
000213:
000214:                                                                                                  #        MARKRUPT STORES CDUS,OPTICS AND TIME AND TRANSFERS CONTROL TO THE MARKIT,MARK REJECT OR KEYCOM ROUTINES IF
000215:                                                                                                  #        BITS IN CHANNEL 16 ARE SET AS REQUIRED.
000216:
000217:                                                                                                  #  CALLING SEQUENCE-
000218:
000219:                                                                                                  #        ROUTINE ENTERED VIA KEYRUPT2 WHEN MARK,MARK REJECT OR DSKY KEYS DEPRESSED BY THE OPERATOR.
000220:
000221:                                                                                                  #  NORMAL EXIT MODE-
000222:
000223:                                                                                                  #        MARKIT, MKREJECT OR POSTJUMP ROUTINES (MARK, MARK REJECT OR DSKY CODE)
000224:
000225:                                                                                                  #  ALARM OR ABORT EXIT MODE-
000226:
000227:                                                                                                  #        ALARM AND RESUME
000228:
000229:                                                                                                  #  OUTPUT-
000230:
000231:                                                                                                  #        RUPTSTOR+5 = CDUT, RUPTSTOR+3 = CDUS, RUPTSTOR+2 = CDUY,
000232:                                                                                                  #        RUPTREG3 = CDUZ, RUPTSTOR+6 = CDUX, RUPTSTOR+1 AND SAMPTIME+1 = TIME1,
000233:                                                                                                  #        RUPTSTOR AND SAMPTIME = TIME2
000234:
000235:                                                                                                  #  ERASABLE INITIALIZATION-
000236:
000237:                                                                                                  #        CDUT,CDUS,CDUY,CDUZ,CDUX,TIME2,TIME1,CHANNEL 16 BITS 6,7 OR 1-5
000238:
000239:                                                                                                  #  DEBRIS-
000240:
000241:                                                                                                  #        A,QRUPT,RUPTREG3,SAMPTIME,SAMPTIME+1,RUPTSTOR TO RUPTSTOR+6 EXCEPT RUPTSTOR+4 (LOCATION 67)
000242:
000243: 07,2103           54016        MARKRUPT           TS       BANKRUPT                              #  STORE CDUS AND OPTICS NOW
000244: 07,2104           30035                           CA       CDUT
000245: 07,2105           54362                           TS       MKCDUT
000246: 07,2106           30036                           CA       CDUS
000247: 07,2107           54360                           TS       MKCDUS
000248: 07,2110           30033                           CA       CDUY
000249: 07,2111           54357                           TS       MKCDUY
000250: 07,2112           30034                           CA       CDUZ
000251: 07,2113           54361                           TS       MKCDUZ
000252: 07,2114           30032                           CA       CDUX
000253: 07,2115           54363                           TS       MKCDUX
000254: 07,2116           00006                           EXTEND
000255: 07,2117           30025                           DCA      TIME2                                 #  GET TIME
000256: 07,2120           52356                           DXCH     MKT2T1
000257: 07,2121           00006                           EXTEND
000258: 07,2122           30356                           DCA      MKT2T1
000259: 07,2123           52014                           DXCH     SAMPTIME                              #  RUPT TIME FOR NOUN 65.
000260:
000261: 07,2124           56002                           XCH      Q
000262: 07,2125           54012                           TS       QRUPT
000263:
000264: 07,2126           34705                           CAF      BIT6                                  #  SEE IF MARK OR MKREJECT


000266: 07,2127           00006                           EXTEND
000267: 07,2130           02016                           RAND     NAVKEYIN
000268: 07,2131           10000                           CCS      A
000269: 07,2132           02427                           TC       MARKIT                                #  ITS A MARK
000270:
000271: 07,2133           34704                           CAF      BIT7                                  #  NOT A MARK, SEE IF MKREJECT
000272: 07,2134           00006                           EXTEND
000273: 07,2135           02016                           RAND     NAVKEYIN
000274: 07,2136           10000                           CCS      A
000275: 07,2137           02300                           TC       MKREJECT                              #  ITS A MARK REJECT
000276:
000277: 07,2140           34362        KEYCALL            CAF      OCT37                                 #  NOT MARK OR MKREJECT, SEE IF KEYCODE
000278: 07,2141           00006                           EXTEND
000279: 07,2142           02016                           RAND     NAVKEYIN
000280: 07,2143           00006                           EXTEND
000281: 07,2144           12147                           BZF      +3                                    #  IF NO INBITS
000282: 07,2145           04574                           TC       POSTJUMP
000283: 07,2146           17622                           CADR     KEYCOM                                #  IT,S A KEY CODE, NOT A MARK.
000284:
000285: 07,2147           05537                 +3        TC       ALARM                                 #  ALARM IF NO INBITS
000286: 07,2150           00113                           OCT      113
000287: 07,2151           05222                           TC       RESUME
000288:


000290:                                                                                                  #  PROGRAM NAME - MARKCONT                               DATE - 19 SEPT 1967
000291:                                                                                                  #  PROGRAM MODIFIED BY 258/278 PROGRAMMERS               LOG SECTION SXTMARK
000292:                                                                                                  #  MOD BY - R. MELANSON TO ADD DOCUMENTATION             ASSEMBLY SUNDISK REV. 116
000293:
000294:                                                                                                  #  FUNCTIONAL DESCRIPTION-
000295:
000296:                                                                                                  #        MARKCONT IS USED TO PERFORM A SPECIAL MARK FUNCTION FOR R21, TO EXECUTE A SPECIAL DISPLAY OF OPTICS AND TIME OR
000297:                                                                                                  #        TO PERFORM A MARK OF A STAR OR LAND SIGHTING BASED UPON FLASHING V-N.
000298:
000299:                                                                                                  #  CALLING SEQUENCE-
000300:
000301:                                                                                                  #        FROM MARKDIF
000302:
000303:                                                                                                  #  NORMAL EXIT MODE-
000304:
000305:                                                                                                  #        TASKOVER
000306:
000307:                                                                                                  #  ALARM OR ABORT EXIT MODE-
000308:
000309:                                                                                                  #        ALARM AND TASKOVER
000310:
000311:                                                                                                  #  OUTPUT-
000312:
000313:                                                                                                  #        1)      FOR R21-
000314:                                                                                                  #                EBANK=EBANK7
000315:                                                                                                  #                MRKBUF1 TO MRKBUF1+6 = TIME2,TIME1,CDUY,OPTICX,CDUZ,OPTICSY,CDUX OF CURRENT R21 MARK FUNCTION.
000316:                                                                                                  #                MRKBUF2 TO MRKBUF2+6 CONTAINS PREVIOUS R21 MARK VALUES.
000317:                                                                                                  #        2)      FOR SPECIAL DISPLAY JOB-
000318:                                                                                                  #                RUPTREG1 AND MRKBUF1 = CDUS,RUPTREG2 AND MRKBUF1+1 = CDUT.
000319:                                                                                                  #                RUPTREG3 AND MRKBUF1 +2 = TIME2,RUPTREG4 AND MRKBUF1+3 = TIME1
000320:                                                                                                  #        3)      FOR NORMAL MARKING-
000321:                                                                                                  #                DECREMENT BITS14-12 OF MARKSTAT BY 1,
000322:                                                                                                  #                BIT10 MARKSTAT SET TO 1, INCREMENT QPRET BY 7,
000323:                                                                                                  #                STORE TIME2,TIME1,CDUY,CDUS,CDUZ,CDUT AND CDUX IN VAC+1 TO VAC+7
000324:
000325:                                                                                                  #  ERASABLE INITIALIZATION-
000326:
000327:                                                                                                  #        1)      FOR R21-
000328:                                                                                                  #                BIT14 OF STATE+2 =1, MRKBUF1 TO MRKBUF1+6, ITEMP1, RUPTREG3,
000329:                                                                                                  #                RUPTSTOR TO RUPTSTOR+6 EXCEPT RUPTSTOR+4
000330:                                                                                                  #        2)      FOR SPECIAL DISPLAY JOB-
000331:                                                                                                  #                BIT14 OF STATE+2 =0, MARKSTAT =+0, RUPTREG1,RUPTREG2,RUPTREG3
000332:                                                                                                  #                RUPTREG4,RUPTSTOR,RUPTSTOR+1,RUPTSTOR+3,RUPTSTOR+5,
000333:                                                                                                  #                BIT12 OF STATE+5 (V59 FLAG), MRKBUF1 THRU MRKBUF1+3
000334:                                                                                                  #        3)      FOR NORMAL MARKING-
000335:                                                                                                  #                BIT14 OF STATE+2 =0, MARKSTAT =VAC ADDRESS, A REG, ITEMP1, RUPTREG3,
000336:                                                                                                  #                RUPTSTOR TO RUPTSTOR+6 EXCEPT RUPTSTOR+4
000337:
000338:                                                                                                  #  DEBRIS-
000339:
000340:                                                                                                  #        1)      FOR R21-
000341:                                                                                                  #                A, ITEMP1, MRKBUF1, MRKBUF2
000342:                                                                                                  #        2)      FOR SPECIAL DISPLAY JOB-
000343:                                                                                                  #                A,RUPTREG1,RUPTREG2,RUPTREG3,RUPTREG4,MPAC TO MPAC+3
000344:                                                                                                  #        3)      FOR NORMAL MARKING-
000345:                                                                                                  #                A,MARKSTAT,ITEMP1,QPRET,VAC+1 TO VAC+7 OF VAC AREA IN USE
000346:


000348: 07,2152           34675        MARKCONT           CAF      BIT14
000349: 07,2153           70076                           MASK     STATE      +2                         #  R21 MARK (SPECIAL MARKING FOR R21)
000350: 07,2154           00006                           EXTEND
000351: 07,2155           12167                           BZF      MARKET                                #  NOT SET THEREFORE REGULAR MARKING
000352: 07,2156           36211        MARKIT1            CAF      SIX                                   #  SPECIAL FOR R21
000353: 07,2157           05475                           TC       GENTRAN                               #  TRANSFER MRKBUF1 TO MRKBUF2
000354: 07,2160           01725                           ADRES    MRKBUF1
000355: 07,2161           01734                           ADRES    MRKBUF2
000356:
000357: 07,2162           36211                           CAF      SIX                                   #  TRANSFER CURRENT MARK DATA TO MARKBUF1
000358: 07,2163           05475                           TC       GENTRAN
000359: 07,2164           00355                           ADRES    MKT2T1
000360: 07,2165           01725                           ADRES    MRKBUF1
000361:
000362: 07,2166           15213                           TCF      TASKOVER
000363:
000364: 07,2167           11330        MARKET             CCS      MARKSTAT                              #  SEE IF MARKS CALLED FOR
000365: 07,2170           02224                           TC       MARK2                                 #  COLLECT MARKS
000366:
000367: 07,2171           34711                           CAF      TWO                                   #  IS MARKING SYSTEM IN USE (BIT2)
000368: 07,2172           71044                           MASK     EXTVBACT
000369: 07,2173           00006                           EXTEND
000370: 07,2174           12216                           BZF      MARKET3                               #  MARKING NOT CALLED FOR
000371: 07,2175           34677                           CAF      BIT12
000372: 07,2176           70101                           MASK     STATE      +5                         #  V59FLAG
000373: 07,2177           00006                           EXTEND
000374: 07,2200           12216                           BZF      MARKET3                               #  IF V59FLAG NOT SET-MARK UNCALLED FOR
000375: 07,2201           34754                           CAF      PRIO5                                 #  CALIBRATION MARK (SET) FOR P23
000376: 07,2202           05027                           TC       NOVAC                                 #  SPECIAL DISPLAY JOB
000377: 07,2203  E7,1725                                  EBANK=   MRKBUF1
000378: 07,2203           02405 76067                     2CADR    MARKDISP
000379:
000380: 07,2205           36211                           CAF      SIX
000381: 07,2206           05475                           TC       GENTRAN                               #  TRANSFER MARK DATA TO MARKDOWN
000382: 07,2207           00355                           ADRES    MKT2T1
000383: 07,2210           01674                           ADRES    MARKDOWN
000384: 07,2211           36211                           CAF      SIX
000385: 07,2212           05475                           TC       GENTRAN                               #  TRANSFER MARK DATA TO MRKBUF1 FOR
000386: 07,2213           00355                           ADRES    MKT2T1                                #  SPECIAL DISPLAY OF SHAFT AND TRUNNION
000387: 07,2214           01725                           ADRES    MRKBUF1                               #  IF V59 ACTING
000388: 07,2215           15213                           TCF      TASKOVER
000389: 07,2216           05537        MARKET3            TC       ALARM
000390: 07,2217           00122                           OCT      122                                   #  MARKING NOT CALLED FOR
000391: 07,2220           15213                           TCF      TASKOVER
000392: 07,2221           05537        114ALM             TC       ALARM                                 #  MARK NOT WANTED
000393: 07,2222           00114                           OCT      114
000394: 07,2223           15213                           TCF      TASKOVER
000395:


000397:                                                                                                  #  STORE MARK DATA IN MKVAC AND INCREMENT POINTER
000398:
000399: 07,2224           67711        MARK2              AD       74K                                   #  SEE IF MARKS WANTED-REDUCE MARKS WANTED
000400: 07,2225           00006                           EXTEND
000401: 07,2226           62221                           BZMF     114ALM                                #  MARK NOT WANTED-ALARM
000402: 07,2227           55330                           TS       MARKSTAT
000403: 07,2230           40000                           COM
000404: 07,2231           74701                           MASK     BIT10                                 #  SET BIT10 TO ENABLE REJECT
000405: 07,2232           27330                           ADS      MARKSTAT
000406:
000407: 07,2233           74741                           MASK     LOW9
000408: 07,2234           54061                           TS       ITEMP1
000409: 07,2235           50000                           INDEX    A
000410: 07,2236           56052                           XCH      QPRET                                 #  PICK UP MARK SLOT-POINTER
000411: 07,2237           54062                           TS       ITEMP2                                #  SAVE CURRENT POINTER
000412: 07,2240           64716                           AD       SEVEN                                 #  INCREMENT POINTER
000413: 07,2241           50061                           INDEX    ITEMP1
000414: 07,2242           54052                           TS       QPRET                                 #  STORE ADVANCED POINTER
000415:
000416: 07,2243           00006        VACSTOR            EXTEND
000417: 07,2244           30356                           DCA      MKT2T1
000418: 07,2245           50062                           INDEX    ITEMP2
000419: 07,2246           52001                           DXCH     0
000420: 07,2247           30357                           CA       MKCDUY
000421: 07,2250           50062                           INDEX    ITEMP2
000422: 07,2251           54002                           TS       2
000423: 07,2252           30360                           CA       MKCDUS
000424: 07,2253           50062                           INDEX    ITEMP2
000425: 07,2254           54003                           TS       3
000426: 07,2255           30361                           CA       MKCDUZ
000427: 07,2256           50062                           INDEX    ITEMP2
000428: 07,2257           54004                           TS       4
000429: 07,2260           30362                           CA       MKCDUT
000430: 07,2261           50062                           INDEX    ITEMP2
000431: 07,2262           54005                           TS       5
000432: 07,2263           30363                           CA       MKCDUX
000433: 07,2264           50062                           INDEX    ITEMP2
000434: 07,2265           54006                           TS       6
000435:
000436: 07,2266           37671                           CAF      PRIO34                                #  IF ALL MARKS MADE FLASH VB50
000437: 07,2267           71330                           MASK     MARKSTAT
000438: 07,2270           00006                           EXTEND
000439: 07,2271           12273                           BZF      +2
000440: 07,2272           15213                           TCF      TASKOVER
000441: 07,2273           37667                           CAF      PRIO32
000442: 07,2274           05027                           TC       NOVAC
000443: 07,2275     1330                                  EBANK=   MARKSTAT
000444: 07,2275           02421 16062                     2CADR    MKVB50
000445:
000446: 07,2277           15213                           TCF      TASKOVER
000447:


000449:                                                                                                  #  PROGRAM NAME - MKREJECT                                       DATE - 5 APRIL 1967
000450:                                                                                                  #  PROGRAM MODIFIED BY 258/278 PROGRAMMERS                       LOG SECTION SXTMARK
000451:                                                                                                  #  MOD BY - R. MELANSON TO ADD DOCUMENTATION                     ASSEMBLY SUNDISK REV. 116
000452:
000453:                                                                                                  #  FUNCTIONAL DESCRIPTION-
000454:
000455:                                                                                                  #        ROUTINE ALLOWS OPERATOR TO REJECT MARK MADE PRIOR TO ACCEPTANCE AND ALLOWS A NEW MARK TO BE MADE BY ASTRONAUT
000456:
000457:                                                                                                  #  CALLING SEQUENCE-
000458:
000459:                                                                                                  #        FROM MARKRUPT IF BIT7 OF CHANNEL 16 IS 1.
000460:
000461:                                                                                                  #  NORMAL EXIT MODE-
000462:
000463:                                                                                                  #        RESUME
000464:
000465:                                                                                                  #  ALARM OR ABORT EXIT MODE-
000466:
000467:                                                                                                  #        ALARM AND RESUME
000468:
000469:                                                                                                  #  OUTPUT-
000470:
000471:                                                                                                  #        1)      FOR R21-
000472:                                                                                                  #                MRKBUF1 SET TO -1
000473:                                                                                                  #        2)      FOR NORMAL MARKING-
000474:                                                                                                  #                BIT10 MARKSTAT =0, INCREMENT NO. MARKS BY 1, DECREMENT QPRET BY 7
000475:
000476:                                                                                                  #  ERASABLE INITIALIZATION-
000477:
000478:                                                                                                  #        1)      FOR R21-
000479:                                                                                                  #                BIT14 OF STATE+2 SET TO 1
000480:                                                                                                  #        2)      FOR NORMAL MARKING-
000481:                                                                                                  #                BIT14 OF STATE+2 SET TO 0, MARKSTAT,QPRET
000482:
000483:                                                                                                  #  DEBRIS-
000484:
000485:                                                                                                  #        1)      FOR R21-
000486:                                                                                                  #                A,MARKSTAT,EBANK
000487:                                                                                                  #        2)      FOR NORMAL MARKING-
000488:                                                                                                  #                A,MARKSTAT,ITEMP1,QPRET
000489:
000490: 07,2300           34675        MKREJECT           CAF      BIT14
000491: 07,2301           70076                           MASK     STATE      +2                         #  R21 MARK (SPECIAL MARKING FOR R21)
000492: 07,2302           00006                           EXTEND
000493: 07,2303           12307                           BZF      MRKREJCT                              #  NOT SET THEREFORE REGULAR REJECT
000494: 07,2304           37716                           CA       NEGONE                                #  -1 (FOR R22)
000495: 07,2305           55725                           TS       MRKBUF1                               #  -0 IN TIME IS FLAG TO R22 SIGNIFYING A
000496: 07,2306           05222                           TC       RESUME                                #  REJECTED MARK
000497: 07,2307           11330        MRKREJCT           CCS      MARKSTAT                              #  SEE IF MARKS BEING ACCEPTED
000498: 07,2310           02314                           TC       REJECT2
000499: 07,2311           05537                           TC       ALARM                                 #  MARKS NOT BEING ACCEPTED
000500: 07,2312           00112                           OCT      112
000501: 07,2313           05222                           TC       RESUME
000502:
000503: 07,2314           44701        REJECT2            CS       BIT10                                 #  SEE IF MARK HAD BEEN MADE SINCE LAST
000504: 07,2315           71330                           MASK     MARKSTAT                              #  REJECT, AND SET BIT10 TO ZERO TO
000505: 07,2316           57330                           XCH      MARKSTAT                              #  SHOW MARK REJECT


000507: 07,2317           74701                           MASK     BIT10
000508: 07,2320           10000                           CCS      A
000509: 07,2321           02325                           TC       REJECT3
000510:
000511: 07,2322           05537                           TC       ALARM                                 #  DONT ACCEPT TWO REJECTS TOGETHER
000512: 07,2323           00110                           OCT      110
000513: 07,2324           05222                           TC       RESUME
000514:
000515: 07,2325           34741        REJECT3            CAF      LOW9                                  #  DECREMENT POINTER TO REJECT MARK
000516: 07,2326           71330                           MASK     MARKSTAT
000517: 07,2327           54061                           TS       ITEMP1
000518: 07,2330           44716                           CS       SEVEN
000519: 07,2331           50061                           INDEX    ITEMP1
000520: 07,2332           26052                           ADS      QPRET                                 #  NEW POINTER
000521:
000522: 07,2333           34677                           CAF      BIT12                                 #  INCREMENT MARKS WANTED AND IF FIELD
000523: 07,2334           61330                           AD       MARKSTAT                              #  IS NOW NON-ZERO, CHANGE TO VB51 TO
000524: 07,2335           57330                           XCH      MARKSTAT                              #  INDICATE MORE MARKS WANTED
000525: 07,2336           77671                           MASK     PRIO34                                #  INDICATE MORE MARKS WANTED
000526: 07,2337           10000                           CCS      A
000527: 07,2340           05222                           TC       RESUME
000528: 07,2341           37667                           CAF      PRIO32
000529: 07,2342           05027                           TC       NOVAC
000530: 07,2343     1330                                  EBANK=   MARKSTAT
000531: 07,2343           02346 16062                     2CADR    MKVB51
000532:
000533: 07,2345           05222                           TC       RESUME
000534:


000536:                                                                                                  #  PROGRAM DESCRIPTION MKVB51 AND MKVB50
000537:
000538:                                                                                                  #  AUTHOR-       BARNERT         DATE-2-15-67            MOD-0
000539:                                                                                                  #  PURPOSE       FLASH V51N70,V51N43, OR V51 TO REQUEST MARKING,
000540:                                                                                                  #                AND V50N25 R1=16 TO REQUEST TERMINATE MARKING
000541:
000542:                                                                                                  #  CALLING SEQUENCE      AS JOB WITHIN SXTMARK
000543:
000544:                                                                                                  #  EXIT TO ENDMARK UPON RECEIPT OF V33, V34 CAUSES GOTOPOOH, ENTER
000545:                                                                                                  #        RECYCLES THE DISPLAY
000546:
000547:                                                                                                  #  NOTE- SXTMARK AUTOMATICALLY CHANGES FROM CALLING MKVB51 TO MKVB50 WHEN
000548:                                                                                                  #        SUFFICIENT MARKS HAVE BEEN MADE, AND THE REVERSE WHEN A MARK
000549:                                                                                                  #        REJECT REDUCES THE NUMBER MADE BELOW THAT REQUIRED
000550:
000551:                                                                                                  #  SUBROUTINES CALLED-  BANKCALL, GOMARK2, GOODEND, ENDMARK, WAITLIST
000552:
000553:                                                                                                  #  ALARM OR ABORT MODES -  NONE
000554:
000555:                                                                                                  #  ERASABLE USED-VERBREG, MARKSTAT, QPRET, DSPTEM1
000556:
000557:                                                                                                  #  OUTPUT MARKSTAT = VAC ADDRESS
000558:
000559:                                                                                                  #  QPRET = NO. MARKS
000560:
000561: 07,2346           04555        MKVB51             TC       BANKCALL                              #  CLEAR DISPLAY FOR MARK VERB
000562: 07,2347           20464                           CADR     KLEENEX
000563: 07,2350           32426                           CAF      VB51                                  #  DISPLAY MARK VB51
000564: 07,2351           04555                           TC       BANKCALL
000565: 07,2352           20476                           CADR     GOMARK4
000566: 07,2353           12356                           TCF      TERMSXT                               #  VB34-TERMINATE
000567: 07,2354           12367                           TCF      ENTANSWR                              #  V33-PROCEED-MARKING DONE
000568: 07,2355           12415                           TCF      MKVB5X                                #  ENTER-RECYCLE TO INITIAL MARK DISPLAY
000569:
000570: 07,2356           05425        TERMSXT            TC       CLEARMRK                              #  CLEAR MARK ACTIVITY.
000571:
000572: 07,2357           05253                           TC       CHECKMM
000573: 07,2360           00003                           MM       03         B-14
000574: 07,2361           12363                           TCF      +2
000575: 07,2362           02365                           TC       TERMP03
000576: 07,2363           04574                           TC       POSTJUMP
000577: 07,2364           30176                           CADR     TERM52
000578:
000579: 07,2365           05435        TERMP03            TC       UPFLAG
000580: 07,2366           00032                           ADRES    TRM03FLG
000581: 07,2367           34741        ENTANSWR           CAF      LOW9                                  #  PUT VAC ADR IN MARKSTAT AND NO. OF
000582: 07,2370           71330                           MASK     MARKSTAT                              #  MARKS MADE IN QPRET BEFORE LEAVING
000583: 07,2371           55330                           TS       MARKSTAT                              #  SXTMARK
000584: 07,2372           40000                           COM
000585: 07,2373           51330                           INDEX    MARKSTAT
000586: 07,2374           60052                           AD       QPRET


000588: 07,2375           00006                           EXTEND
000589: 07,2376           62402                           BZMF     JAMIT                                 #  NO MARKS MADE, SHOW IT IN QPRET, R53
000590: 07,2377           00006                           EXTEND                                         #        WILL PICK IT UP AND RECYCLE
000591: 07,2400           74677                           MP       BIT12                                 #  THIS PUTS NUMBER MARKS-1 IN A
000592: 07,2401           64712                           AD       ONE
000593: 07,2402           51330        JAMIT              INDEX    MARKSTAT                              #  STORE NO OF MARKS MADE
000594: 07,2403           54052                           TS       QPRET
000595: 07,2404           00004                           INHINT                                         #  SERVICE OPTSTALL INTERFACE WITH
000596: 07,2405           34715                           CAF      FIVE
000597: 07,2406           05140                           TC       WAITLIST
000598: 07,2407     1330                                  EBANK=   MARKSTAT
000599: 07,2407           02412 16062                     2CADR    ENDMARKS
000600:
000601: 07,2411           05423                           TC       ENDMARK                               #  KNOCKS DOWN MARKING FLAG + DOES ENDOFJOB
000602:
000603: 07,2412           34712        ENDMARKS           CAF      ONE
000604: 07,2413           04633                           TC       IBNKCALL
000605: 07,2414           17467                           CADR     GOODEND
000606: 07,2415           37671        MKVB5X             CAF      PRIO34
000607: 07,2416           71330                           MASK     MARKSTAT                              #  RE-DISPLAY VB51 IF MORE MARKS WANTED
000608: 07,2417           10000                           CCS      A                                     #  AND VB50 IF ALL IN
000609: 07,2420           12346                           TCF      MKVB51
000610: 07,2421           34333        MKVB50             CAF      R1D1                                  #  OCT 16
000611: 07,2422           55045                           TS       DSPTEM1
000612: 07,2423           32425                           CAF      V50N25
000613: 07,2424           12351                           TCF      MKVB51     +3
000614:
000615: 07,2425           14431        V50N25             VN       5025
000616: 07,2426           14600        VB51               VN       5100
000617: 07,2427     4362               OCT37              =        LOW5
000618:
000619:                                                                                                  #  PROGRAM NAME - MARKIT                         DATE- 19 SEPT 1967
000620:
000621:                                                                                                  #  CALLING SEQUENCE
000622:
000623:                                                                                                  #        FROM MARKRUPT IF CHAN 16 BIT 6 = 1
000624:
000625:                                                                                                  #  EXIT
000626:
000627:                                                                                                  #        RESUME
000628:
000629:                                                                                                  #  INPUT
000630:
000631:                                                                                                  #        CDUCHKWD.  ALSO ALL INITIALIZATION FOR MARKCONT
000632:
000633:                                                                                                  #  OUTPUT
000634:
000635:                                                                                                  #        MKT2T1,MKCDUX,MKCDUY,MKCDUZ,MKCDUS,MKCDUT
000636:
000637:                                                                                                  #  ALARM EXIT
000638:
000639:                                                                                                  #        NONE
000640:
000641: 07,2427           11341        MARKIT             CCS      CDUCHKWD
000642: 07,2430           12433                           TCF      +3                                    #  DELAY OF CDUCHKWD CS IF PNZ


000644: 07,2431           12433                           TCF      +2
000645: 07,2432           34714                           CAF      ZERO
000646: 07,2433           64712                           AD       ONE                                   #  10 MS IF NO CHECK
000647: 07,2434           05140                           TC       WAITLIST
000648: 07,2435  E7,1725                                  EBANK=   MRKBUF1
000649: 07,2435           02203 20067                     2CADR    MARKDIF
000650:
000651: 07,2437           15222                           TCF      RESUME
000652:
000653: 10,2000                                           SETLOC   SXTMARK1
000654: 10,2000                                           BANK
000655:
000656: 10,2203                                           COUNT    10/SXTMK
000657:
000658:                                                                                                  #  PROGRAM NAME - MARKDIF                        DATE-  19 SEPT 1967
000659:
000660:                                                                                                  #  CALLING SEQUENCE
000661:
000662:                                                                                                  #        WAITLIST FROM MARKIT
000663:
000664:                                                                                                  #  EXIT
000665:
000666:                                                                                                  #        TASKOVER OT IBNKCALL TO MARKCONT
000667:
000668:                                                                                                  #  INPUT
000669:
000670:                                                                                                  #        OUTPUT FROM MARKIT, INPUT TO MARKCONT, CDUCHKWD
000671:
000672:                                                                                                  #  OUTPUT
000673:
000674:                                                                                                  #        RUPTSTOR - RUPTSTOR+3, RUPTREG3, RUPTSTOR+5 - RUPTSTOR+6
000675:
000676:                                                                                                  #  ALARM EXIT
000677:
000678:                                                                                                  #        ALARM AND TASKOVER
000679:
000680: 10,2203           31341        MARKDIF            CA       CDUCHKWD                              #  IF DELAY CHECK IS ZERO OR NEG, ACP MARK
000681: 10,2204           00006                           EXTEND
000682: 10,2205           62216                           BZMF     MKACPT
000683: 10,2206           44712                           CS       BIT1
000684: 10,2207           54354                           TS       MKNDX                                 #  SET INDEX -1
000685: 10,2210           30363                           CA       MKCDUX
000686: 10,2211           02220                           TC       DIFCHK                                #  SEE IF VEHICLE RATE TO MUCH AT MARK
000687: 10,2212           30357                           CA       MKCDUY
000688: 10,2213           02220                           TC       DIFCHK
000689: 10,2214           30361                           CA       MKCDUZ
000690: 10,2215           02220                           TC       DIFCHK
000691:
000692: 10,2216           04633        MKACPT             TC       IBNKCALL
000693: 10,2217           16152                           CADR     MARKCONT                              #  MARK DATA OK, WHAT DO WE DO WITH IT
000694:
000695: 10,2220           24354        DIFCHK             INCR     MKNDX                                 #  INCREMENT INDEX
000696:
000697: 10,2221           00006                           EXTEND
000698: 10,2222           50354                           INDEX    MKNDX


000700: 10,2223           20032                           MSU      CDUX                                  #  GET MARK(ICDU) - CURRENT(ICDU)
000701: 10,2224           10000                           CCS      A
000702: 10,2225           12231                           TCF      +4
000703: 10,2226           00002                           TC       Q
000704: 10,2227           12231                           TCF      +2
000705: 10,2230           00002                           TC       Q
000706: 10,2231           67715                           AD       NEG2                                  #  SEE IF DIFFERENCE GREATER THAN 3 BITS
000707: 10,2232           00006                           EXTEND
000708: 10,2233           62230                           BZMF     -3                                    #  NOT GREATER
000709:
000710: 10,2234           05537                           TC       ALARM                                 #  COUPLED WITH PROGRAM ALARM
000711: 10,2235           00121                           OCT      00121
000712:
000713: 10,2236           15213                           TCF      TASKOVER                              #  DO NOT ACCEPT
000714:

End of include-file SXTMARK.agc.  Parent file is MAIN.agc


