
Source Code
000001:                                                                                                 #  Copyright:     Public domain.
000002:                                                                                                 #  Filename:      SXTMARK.agc
000003:                                                                                                 #  Purpose:       Part of the source code for Colossus, build 249.
000004:                                                                                                 #                 It is part of the source code for the Command Module's (CM)
000005:                                                                                                 #                 Apollo Guidance Computer (AGC), possibly for Apollo 8 and 9.
000006:                                                                                                 #  Assembler:     yaYUL
000007:                                                                                                 #  Reference:     pp. 218-231 of 1701.pdf.
000008:                                                                                                 #  Contact:       Ron Burkey <info@sandroid.org>.
000009:                                                                                                 #  Website:       www.ibiblio.org/apollo.
000010:                                                                                                 #  Mod history:   08/07/04 RSB.   Began data entry.
000011:
000012:                                                                                                 #  The contents of the "Colossus249" files, in general, are transcribed
000013:                                                                                                 #  from a scanned document obtained from MIT's website,
000014:                                                                                                 #  http://hrst.mit.edu/hrs/apollo/public/archive/1701.pdf.  Notations on this
000015:                                                                                                 #  document read, in part:
000016:
000017:                                                                                                 #         Assemble revision 249 of AGC program Colossus by NASA
000018:                                                                                                 #         2021111-041.  October 28, 1968.
000019:
000020:                                                                                                 #         This AGC program shall also be referred to as
000021:                                                                                                 #                                 Colossus 1A
000022:
000023:                                                                                                 #         Prepared by
000024:                                                                                                 #                         Massachussets Institute of Technology
000025:                                                                                                 #                         75 Cambridge Parkway
000026:                                                                                                 #                         Cambridge, Massachusetts
000027:                                                                                                 #         under NASA contract NAS 9-4065.
000028:
000029:                                                                                                 #  Refer directly to the online document mentioned above for further information.
000030:                                                                                                 #  Please report any errors (relative to 1701.pdf) to info@sandroid.org.
000031:
000032:                                                                                                 #  In some cases, where the source code for Luminary 131 overlaps that of
000033:                                                                                                 #  Colossus 249, this code is instead copied from the corresponding Luminary 131
000034:                                                                                                 #  source file, and then is proofed to incorporate any changes.
000035:
000036:                                                                                                 #  Page 218
000037:                                                                                                 #  PROGRAM NAME:  SXTMARK                                 DATE:  5 APRIL 1967
000038:                                                                                                 #  PROGRAM MODIFIED BY 256/278 PROGRAMMERS                        LOG SECTION SXTMARK
000039:                                                                                                 #  MOD BY: R. MELANSON TO ADD DOCUMENTATION                       ASSEMBLY SUNDISK REV. 116
000040:                                                                                                 #
000041:                                                                                                 #  FUNCTIONAL DESCRIPTION:
000042:
000043:                                                                                                 #         SXTMARK IS CALLED FROM INTERNAL ROUTINES WHICH MAY REQUIRE STAR OR LANDMARK MARKINGS BY THE ASTRONAUT.  IF
000044:                                                                                                 #         THE MARK SYSTEM IS NOT IN USE, SXTMARK RESERVES A VAC AREA FOR MARKING AND REQUESTS EXECUTIONOF THE MKVB51
000045:                                                                                                 #         ROUTINE VIA THE EXECUTIVE JOB PRIORITY LIST.  R21 USES THIS ROUTINE TO DETERMINE IF THE MARK SYSTEM CAN BE
000046:                                                                                                 #         USED.  IF YES, SXTMARK RETURNS TO R21 TO PERFORM ITS OWN MARK REQUESTS VIA THE V51 FLASH.
000047:
000048:                                                                                                 #  CALLING SEQUENCE:
000049:
000050:                                                                                                 #         CAF     (NO. MARK REQUESTS IN BITS 1-3 OF A)
000051:                                                                                                 #         TC      BANKCALL
000052:                                                                                                 #         CADR    SXTMARK
000053:
000054:                                                                                                 #  NORMAL EXIT MODE:
000055:
000056:                                                                                                 #         SWRETURN
000057:
000058:                                                                                                 #  ALARM OR ABORT EXIT MODE:
000059:
000060:                                                                                                 #         ABORT
000061:
000062:                                                                                                 #  OUTPUT:
000063:
000064:                                                                                                 #         1)      MARKSTAT CONTAINS MARK VALUE (BITS 14-12) AND VAC AREA ADDRESS
000065:                                                                                                 #         2)      QPRET = VAC AREA POINTER VALUE
000066:                                                                                                 #         3)      1ST WORD OF RESERVED VAC AREA SET TO +0
000067:                                                                                                 #         4)      PRIO32 PLACED IN A REGISTER
000068:
000069:                                                                                                 #  ERASABLE INITIALIZATION:
000070:
000071:                                                                                                 #         1)      BITS 1-3 OF A = NO. MARKS REQUESTED
000072:                                                                                                 #         2)      BITS 2,3 OF EXTVBACT = 0
000073:                                                                                                 #         3)      A VAC AREA MUST BE AVAILABLE (WORD 1 = ADDRESS OF VAC AREA)
000074:
000075:                                                                                                 #  DEBRIS:
000076:
000077:                                                                                                 #         A,Q,L,RUPTREG1,MARKSTAT,QPRET,BIT2 OF EXTVBACT
000078:
000079: 13,2036                                          BANK     13
000080: 07,2000                                          SETLOC   SXTMARKE
000081: 07,2000                                          BANK
000082:
000083: 07,2002  E7,1725                                 EBANK=   MRKBUF1
000084: 07,2002                                          COUNT    07/SXTMK
000085:
000086: 07,2002           00004        SXTMARK           INHINT
000087: 07,2003           54070                          TS       RUPTREG1                              #  NUMBER OF MARKS WANTED
000088:
000089: 07,2004           36211                          CAF      SIX                                   #  BIT2 = MARKING SYSTEM IN USE
000090: 07,2005           71044                          MASK     EXTVBACT                              #  BIT3 = EXTENDED VERB IN PROGRESS
000091: 07,2006           10000                          CCS      A
000092: 07,2007           02013                          TC       MKABORT
000093:                                                                                                 #  Page 219
000094: 07,2010           34711                          CAF      BIT2                                  #  NOT SET
000095: 07,2011           27044                          ADS      EXTVBACT                              #  SET IT, RESET IN ENDMARK
000096: 07,2012           02015                          TC       MARKOK                                #  YES, FIND VAC AREA
000097:
000098: 07,2013           05604        MKABORT           TC       BAILOUT
000099: 07,2014           01211                          OCT      01211
000100: 07,2015           10400        MARKOK            CCS      VAC1USE                               #  FIND VAC AREA
000101: 07,2016           02031                          TC       MKVACFND
000102: 07,2017           10454                          CCS      VAC2USE
000103: 07,2020           02031                          TC       MKVACFND
000104: 07,2021           10530                          CCS      VAC3USE
000105: 07,2022           02031                          TC       MKVACFND
000106: 07,2023           10604                          CCS      VAC4USE
000107: 07,2024           02031                          TC       MKVACFND
000108: 07,2025           10660                          CCS      VAC5USE
000109: 07,2026           02031                          TC       MKVACFND
000110: 07,2027           05604                          TC       BAILOUT
000111: 07,2030           01207                          OCT      01207
000112:
000113: 07,2031           64711        MKVACFND          AD       TWO                                   #  ADDRESS OF VAC AREA
000114: 07,2032           55330                          TS       MARKSTAT
000115: 07,2033           50000                          INDEX    A
000116: 07,2034           54052                          TS       QPRET                                 #  STORE NEXT AVAILABLE MARK SLOT
000117:
000118: 07,2035           34714                          CAF      ZERO                                  #  STORE VAC AREA OCCUPIED
000119: 07,2036           51330                          INDEX    MARKSTAT
000120: 07,2037           53777                          TS       0          -1
000121:
000122: 07,2040           05253                          TC       CHECKMM                               #  BACKUP MARK ROUTINE USES SXTMARK
000123: 07,2041           00065                          MM       53         B-14
000124: 07,2042           12044                          TCF      +2
000125: 07,2043           14570                          TCF      SWRETURN
000126: 07,2044           05253                          TC       CHECKMM
000127: 07,2045           00066                          MM       54         B-14
000128: 07,2046           12050                          TCF      +2
000129: 07,2047           14570                          TCF      SWRETURN
000130: 07,2050           34677                          CAF      BIT12                                 #  DESIRED NUMBER OF MARKS IN 12-14
000131: 07,2051           00006                          EXTEND
000132: 07,2052           70070                          MP       RUPTREG1
000133: 07,2053           56001                          XCH      L
000134: 07,2054           27330                          ADS      MARKSTAT
000135:
000136: 07,2055           37667                          CAF      PRIO32                                #  ENTER MARK JOB
000137: 07,2056           05027                          TC       NOVAC
000138: 07,2057     1330                                 EBANK=   MARKSTAT
000139: 07,2057           02346 16062                    2CADR    MKVB51
000140:
000141: 07,2061           00003                          RELINT
000142: 07,2062           14570                          TCF      SWRETURN                              #  SAME AS MODEEXIT
000143:
000144:                                                                                                 #  Page 220
000145:                                                                                                 #  PROGRAM NAME:  MKRELEAS                                        DATE:  5 APRIL 1967
000146:                                                                                                 #  PROGRAM MODIFIED BY 256/278 PROGRAMMERS                        LOG SECTION SXTMARK
000147:                                                                                                 #  MOD BY:  R. MELANSON TO ADD DOCUMENTATION                      ASSEMBLY SUNDISK REV. 116
000148:
000149:                                                                                                 #  FUNCTIONAL DESCRIPTION:
000150:
000151:                                                                                                 #         MKRELEAS IS EXECUTED BY INTERNAL ROUTINES TO RELEASE THE MARK SYSTEM TO MAKE IT AVAILABLE TO OTHER INTERNAL
000152:                                                                                                 #         SYSTEM ROUTINES.  IT ALSO CLEARS THE COARSE OPTICS FLAG BIT AND DISABLES THE OPTICS ERROR COUNTER.
000153:
000154:                                                                                                 #  CALLING SEQUENCE:
000155:
000156:                                                                                                 #         TC      BANKCALL
000157:                                                                                                 #         CADR    MKRELEAS
000158:
000159:                                                                                                 #  NORMAL EXIT MODE:
000160:
000161:                                                                                                 #         SWRETURN
000162:
000163:                                                                                                 #  ALARM OR EXIT MODE:  NONE
000164:
000165:                                                                                                 #  OUTPUT:
000166:
000167:                                                                                                 #         1)      BIT9 OPTMODES SET TO 0
000168:                                                                                                 #         2)      OPTIND SET TO -1
000169:                                                                                                 #         3)      1ST WORD OF VAC AREA SET TO VAC ADDRESS TO SIGNIFY AVAILABILITY
000170:                                                                                                 #         4)      MARKSTAT CLEARED
000171:                                                                                                 #         5)      BIT2 CHANNEL 12 SET TO 0
000172:
000173:                                                                                                 #  ERASABLE INITIALIZATION:  NONE
000174:
000175:                                                                                                 #  DEBRIS:
000176:
000177:                                                                                                 #         A,MARKSTAT,BIT9,OPTMODES OPTIND,BIT2 CHANNEL 12
000178:
000179: 07,2063           34714        MKRELEAS          CAF      ZERO                                  #  SHOW MARK SYSTEM NOW AVAILABLE
000180: 07,2064           57330                          XCH      MARKSTAT
000181: 07,2065           10000                          CCS      A
000182: 07,2066           50000                          INDEX    A
000183: 07,2067           54000                          TS       0
000184: 07,2070           00004        MKRLEES           INHINT
000185: 07,2071           44702                          CS       BIT9                                  #  COARSE OPTICS RETURN FLAG.
000186: 07,2072           71331                          MASK     OPTMODES
000187: 07,2073           55331                          TS       OPTMODES
000188:
000189: 07,2074           37716                          CA       NEGONE
000190: 07,2075           55303                          TS       OPTIND                                #  KILL COARSE OPTICS
000191:
000192: 07,2076           44711                          CS       BIT2                                  #  DISABLE OPTICS ERROR COUNTER
000193: 07,2077           00006                          EXTEND
000194: 07,2100           03012                          WAND     CHAN12
000195:
000196: 07,2101           00003                          RELINT
000197: 07,2102           04570                          TC       SWRETURN
000198:                                                                                                 #  Page 221
000199:                                                                                                 #  PROGRAM NAME:  MARKRUPT                                        DATE:  5 APRIL 1967
000200:                                                                                                 #  PROGRAM MODIFIED BY 256/278 PROGRAMMERS                        LOG SECTION SXTMARK
000201:                                                                                                 #  MOD BY:  R. MELANSON TO ADD DOCUMENTATION                      ASSEMBLY SUNDISK REV. 116
000202:
000203:                                                                                                 #  FUNCTIONAL DESCRIPTION:
000204:
000205:                                                                                                 #         MARKRUPT STORES CDUS,OPTICS AND TIME AND TRANSFERS CONTROL TO THE MARKIT,MARK REJECT OR KEYCOM ROUTINES IF
000206:                                                                                                 #         BITS IN CHANNEL 16 ARE SET AS REQUIRED.
000207:
000208:                                                                                                 #  CALLING SEQUENCE:
000209:
000210:                                                                                                 #         ROUTINE ENTERED VIA KEYRUPT2 WHEN MARK,MARK REJECT OR DSKY KEYS DEPRESSED BY THE OPERATOR.
000211:
000212:                                                                                                 #  NORMAL EXIT MODE:
000213:
000214:                                                                                                 #         MARKIT, MKREJECT, OR POSTJUMP ROUTINES (MARK, MARK REJECT, OR DSKY CODE)
000215:
000216:                                                                                                 #  ALARM OR ABORT EXIT MODE:
000217:
000218:                                                                                                 #         ALARM AND RESUME
000219:
000220:                                                                                                 #  OUTPUT:
000221:
000222:                                                                                                 #         RUPTSTOR+5 = CDUT, RUPTSTOR+3 = CDUS, RUPTSTOR+2 = CDUY,
000223:                                                                                                 #         RUPTREG3 = CDUZ, RUPTSTOR+6 = CDUX, RUPTSTOR+1 AND SAMPTIME+1 = TIME1,
000224:                                                                                                 #         RUPTSTOR AND SAMPTIME = TIME2
000225:
000226:                                                                                                 #  ERASABLE INITIALIZATION:
000227:
000228:                                                                                                 #         CDUT,CDUS,CDUY,CDUZ,CDUX,TIME2,TIME1,CHANNEL 16 BITS 6,7 OR 1-5.
000229:
000230:                                                                                                 #  DEBRIS:
000231:
000232:                                                                                                 #         A,QRUPT,RUPTREG3,SAMPTIME,SAMPTIME+1,RUPTSTOR TO RUPTSTOR+6 EXCEPT RUPTSTOR+4 (LOCATION 67)
000233:
000234: 07,2103           54016        MARKRUPT          TS       BANKRUPT                              #  STORE CDUS AND OPTICS NOW
000235: 07,2104           30035                          CA       CDUT
000236: 07,2105           54362                          TS       MKCDUT
000237: 07,2106           30036                          CA       CDUS
000238: 07,2107           54360                          TS       MKCDUS
000239: 07,2110           30033                          CA       CDUY
000240: 07,2111           54357                          TS       MKCDUY
000241: 07,2112           30034                          CA       CDUZ
000242: 07,2113           54361                          TS       MKCDUZ
000243: 07,2114           30032                          CA       CDUX
000244: 07,2115           54363                          TS       MKCDUX
000245: 07,2116           00006                          EXTEND
000246: 07,2117           30025                          DCA      TIME2                                 #  GET TIME
000247: 07,2120           52356                          DXCH     MKT2T1
000248: 07,2121           00006                          EXTEND
000249: 07,2122           30356                          DCA      MKT2T1
000250: 07,2123           52014                          DXCH     SAMPTIME                              #  RUPT TIME FOR NOUN 65.
000251:
000252: 07,2124           56002                          XCH      Q
000253: 07,2125           54012                          TS       QRUPT
000254:
000255: 07,2126           34705                          CAF      BIT6                                  #  SEE IF MARK OR MKREJECT
000256:                                                                                                 #  Page 222
000257: 07,2127           00006                          EXTEND
000258: 07,2130           02016                          RAND     NAVKEYIN
000259: 07,2131           10000                          CCS      A
000260: 07,2132           02427                          TC       MARKIT                                #  IT'S A MARK
000261:
000262: 07,2133           34704                          CAF      BIT7                                  #  NOT A MARK, SEE IF MKREJECT
000263: 07,2134           00006                          EXTEND
000264: 07,2135           02016                          RAND     NAVKEYIN
000265: 07,2136           10000                          CCS      A
000266: 07,2137           02300                          TC       MKREJECT                              #  IT'S A MARK REJECT
000267:
000268: 07,2140           34362        KEYCALL           CAF      OCT37                                 #  NOT MARK OR MKREJECT, SEE IF KEYCODE
000269: 07,2141           00006                          EXTEND
000270: 07,2142           02016                          RAND     NAVKEYIN
000271: 07,2143           00006                          EXTEND
000272: 07,2144           12147                          BZF      +3                                    #  IF NO INBITS
000273: 07,2145           04574                          TC       POSTJUMP
000274: 07,2146           17622                          CADR     KEYCOM                                #  IT'S A KEY CODE, NOT A MARK.
000275:
000276: 07,2147           05537                 +3       TC       ALARM                                 #  ALARM IF NO INBITS
000277: 07,2150           00113                          OCT      113
000278: 07,2151           05222                          TC       RESUME
000279:
000280:                                                                                                 #  Page 223
000281:                                                                                                 #  PROGRAM NAME:  MARKCONT                                DATE:  19 SEPT 1967
000282:                                                                                                 #  PROGRAM MODIFIED BY 258/278 PROGRAMMERS                LOG SECTION SXTMARK
000283:                                                                                                 #  MOD BY:  R. MELANSON TO ADD DOCUMENTATION              ASSEMBLY SUNDISK REV. 116
000284:
000285:                                                                                                 #  FUNCTIONAL DESCRIPTION:
000286:
000287:                                                                                                 #         MARKCONT IS USED TO PERFORM A SPECIAL MARK FUNCTION FOR R21, TO EXECUTE A SPECIAL DISPLAY OF OPTICS AND TIME OR
000288:                                                                                                 #         TO PERFORM A MARK OF THE STAR OR LAND SIGHTING BASED UPON FLASHING V-N.
000289:
000290:                                                                                                 #  CALLING SEQUENCE:
000291:
000292:                                                                                                 #         FROM MARKDIF
000293:
000294:                                                                                                 #  NORMAL EXIT MODE:
000295:
000296:                                                                                                 #         TASKOVER
000297:
000298:                                                                                                 #  ALARM OR ABORT EXIT MODE:
000299:
000300:                                                                                                 #         ALARM AND TASKOVER
000301:
000302:                                                                                                 #  OUTPUT:
000303:
000304:                                                                                                 #         1)      FOR R21:
000305:                                                                                                 #                 EBANK=EBANK7
000306:                                                                                                 #                 MRKBUF1 TO MRKBUF1+6 = TIME2,TIME1,CDUY,OPTICX,CDUZ,OPTICSY,CDUX OF CURRENT R21 MARK FUNCTION
000307:                                                                                                 #                 MRKBUF2 TO MRKBUF2+6 CONTAINS PREVIOUS R21 MARK VALUES.
000308:                                                                                                 #         2)      FOR SPECIAL DISPLAY JOB:
000309:                                                                                                 #                 RUPTREG1 AND MRKBUF1 = CDUS,RUPTREG2, AND MRKBUF1+1 = CDU5.
000310:                                                                                                 #                 RUPTREG3 AND MRKBUF1+2 = TIME2,RUPTREG4, AND MRKBUF1+3 = TIME1.
000311:                                                                                                 #         3)      FOR NORMAL MARKING:
000312:                                                                                                 #                 DECREMENT BITS14-12 OF MARKSTAT BY 1,
000313:                                                                                                 #                 BIT10 MARKSTAT SET TO 1, INCREMENT QPRET BY 7,
000314:                                                                                                 #                 STORE TIME2,TIME1,CDUY,CDUS,CDUZ,CDUT, AND CDUX IN VAC+1 TO VAC+7.
000315:
000316:                                                                                                 #  ERASABLE INITIALIZATION:
000317:
000318:                                                                                                 #         1)      FOR R21:
000319:                                                                                                 #                 BIT14 OF STATE+2 =1, MRKBUF1 TO MRKBUF1+6, ITEMP1, RUPTREG3,
000320:                                                                                                 #                 RUPTSTOR TO RUPTSTOR+6 EXCEPT RUPTSTOR+4.
000321:                                                                                                 #         2)      FOR SPECIAL DISPLAY JOB:
000322:                                                                                                 #                 BIT14 OF STATE+2 =0, MARKSTAT =+0, RUPTREG1,RUPTREG2,RUPTREG3
000323:                                                                                                 #                 RUPTREG4,RUPTSTOR,RUPTSTOR+1,RUPTSTOR+3,RUPTSTOR+5,
000324:                                                                                                 #                 BIT12 OF STATE+5 (V59 FLAG), MRKBUF1 THRU MRKBUF1+3
000325:                                                                                                 #         3)      FOR NORMAL MARKING:
000326:                                                                                                 #                 BIT14 OF STATE+2 =0, MARKSTATE =VAC ADDRESS, A REG, ITEMP1, RUPTREG3,
000327:                                                                                                 #                 RUPTSTOR TO RUPTSTOR+6 EXCEPT RUPTSTOR+4.
000328:
000329:                                                                                                 #  DEBRIS:
000330:
000331:                                                                                                 #         1)      FOR R21:
000332:                                                                                                 #                 A, ITEMP1, MRKBUF1, MRKBUF2
000333:                                                                                                 #         2)      FOR SPECIAL DISPLAY JOB:
000334:                                                                                                 #                 A,RUPTREG1,RUPTREG2,RUPTREG3,RUPTREG4,MPAC TO MPAC+3.
000335:                                                                                                 #         3)      FOR NORMAL MARKING:
000336:                                                                                                 #                 A,MARKSTAT,ITEMP1,QPRET,VAC+1 TO VAC+7 OF VAC AREA IN USE.
000337:
000338:                                                                                                 #  Page 224
000339: 07,2152           34675        MARKCONT          CAF      BIT14
000340: 07,2153           70076                          MASK     STATE      +2                         #  R21 MARK (SPECIAL MARKING FOR R21)
000341: 07,2154           00006                          EXTEND
000342: 07,2155           12167                          BZF      MARKET                                #  NOT SET THEREFORE REGULAR MARKING
000343: 07,2156           36211        MARKIT1           CAF      SIX                                   #  SPECIAL FOR R21
000344: 07,2157           05475                          TC       GENTRAN                               #  TRANSFER MRKBUF1 TO MRKBUF2
000345: 07,2160           01725                          ADRES    MRKBUF1
000346: 07,2161           01734                          ADRES    MRKBUF2
000347:
000348: 07,2162           36211                          CAF      SIX                                   #  TRANSFER CURRENT MARK DATE TO MARKBUF1
000349: 07,2163           05475                          TC       GENTRAN
000350: 07,2164           00355                          ADRES    MKT2T1
000351: 07,2165           01725                          ADRES    MRKBUF1
000352:
000353: 07,2166           15213                          TCF      TASKOVER
000354:
000355: 07,2167           11330        MARKET            CCS      MARKSTAT                              #  SEE IF MARKS CALLED FOR
000356: 07,2170           02224                          TC       MARK2                                 #  COLLECT MARKS
000357:
000358: 07,2171           34711                          CAF      TWO                                   #  IS MARKING SYSTEM IN USE (BIT2)
000359: 07,2172           71044                          MASK     EXTVBACT
000360: 07,2173           00006                          EXTEND
000361: 07,2174           12216                          BZF      MARKET3                               #  MARKING NOT CALLED FOR
000362: 07,2175           34677                          CAF      BIT12
000363: 07,2176           70101                          MASK     STATE      +5                         #  V59FLAG
000364: 07,2177           00006                          EXTEND
000365: 07,2200           12216                          BZF      MARKET3                               #  IF V59FLAG NOT SET-MARK UNCALLED FOR
000366: 07,2201           34754                          CAF      PRIO5                                 #  CALIBRATION MARK (SET) FOR P23
000367: 07,2202           05027                          TC       NOVAC                                 #  SPECIAL DISPLAY JOB
000368: 07,2203  E7,1725                                 EBANK=   MRKBUF1
000369: 07,2203           02405 76067                    2CADR    MARKDISP
000370:
000371: 07,2205           36211                          CAF      SIX
000372: 07,2206           05475                          TC       GENTRAN                               #  TRANSFER MARK DATE TO MARKDOWN
000373: 07,2207           00355                          ADRES    MKT2T1
000374: 07,2210           01674                          ADRES    MARKDOWN
000375: 07,2211           36211                          CAF      SIX
000376: 07,2212           05475                          TC       GENTRAN                               #  TRANSFER MARK DATA TO MRKBUF1 FOR
000377: 07,2213           00355                          ADRES    MKT2T1                                #  SPECIAL DISPLAY OF SHAFT AND TRUNNION
000378: 07,2214           01725                          ADRES    MRKBUF1                               #  IF V59 ACTING
000379: 07,2215           15213                          TCF      TASKOVER
000380: 07,2216           05537        MARKET3           TC       ALARM
000381: 07,2217           00122                          OCT      122                                   #  MARKING NOT CALLED FOR
000382: 07,2220           15213                          TCF      TASKOVER
000383: 07,2221           05537        114ALM            TC       ALARM                                 #  MARK NOT WANTED
000384: 07,2222           00114                          OCT      114
000385: 07,2223           15213                          TCF      TASKOVER
000386:
000387:                                                                                                 #  Page 225
000388:                                                                                                 #  STORE MARK DATA IN MKVAC AND INCREMENT POINTER
000389:
000390: 07,2224           67711        MARK2             AD       74K                                   #  SEE IF MARKS WANTED-REDUCE MARKS WANTED
000391: 07,2225           00006                          EXTEND
000392: 07,2226           62221                          BZMF     114ALM                                #  MARK NOT WANTED-ALARM
000393: 07,2227           55330                          TS       MARKSTAT
000394: 07,2230           40000                          COM
000395: 07,2231           74701                          MASK     BIT10                                 #  SET BIT10 TO ENABLE REJECT
000396: 07,2232           27330                          ADS      MARKSTAT
000397:
000398: 07,2233           74741                          MASK     LOW9
000399: 07,2234           54061                          TS       ITEMP1
000400: 07,2235           50000                          INDEX    A
000401: 07,2236           56052                          XCH      QPRET                                 #  PICK UP MARK SLOT-POINTER
000402: 07,2237           54062                          TS       ITEMP2                                #  SAVE CURRENT POINTER
000403: 07,2240           64716                          AD       SEVEN                                 #  INCREMENT POINTER
000404: 07,2241           50061                          INDEX    ITEMP1
000405: 07,2242           54052                          TS       QPRET                                 #  STORE ADVANCED POINTER
000406:
000407: 07,2243           00006        VACSTOR           EXTEND
000408: 07,2244           30356                          DCA      MKT2T1
000409: 07,2245           50062                          INDEX    ITEMP2
000410: 07,2246           52001                          DXCH     0
000411: 07,2247           30357                          CA       MKCDUY
000412: 07,2250           50062                          INDEX    ITEMP2
000413: 07,2251           54002                          TS       2
000414: 07,2252           30360                          CA       MKCDUS
000415: 07,2253           50062                          INDEX    ITEMP2
000416: 07,2254           54003                          TS       3
000417: 07,2255           30361                          CA       MKCDUZ
000418: 07,2256           50062                          INDEX    ITEMP2
000419: 07,2257           54004                          TS       4
000420: 07,2260           30362                          CA       MKCDUT
000421: 07,2261           50062                          INDEX    ITEMP2
000422: 07,2262           54005                          TS       5
000423: 07,2263           30363                          CA       MKCDUX
000424: 07,2264           50062                          INDEX    ITEMP2
000425: 07,2265           54006                          TS       6
000426:
000427: 07,2266           37671                          CAF      PRIO34                                #  IF ALL MARKS MADE FLASH VB50
000428: 07,2267           71330                          MASK     MARKSTAT
000429: 07,2270           00006                          EXTEND
000430: 07,2271           12273                          BZF      +2
000431: 07,2272           15213                          TCF      TASKOVER
000432: 07,2273           37667                          CAF      PRIO32
000433: 07,2274           05027                          TC       NOVAC
000434: 07,2275     1330                                 EBANK=   MARKSTAT
000435: 07,2275           02421 16062                    2CADR    MKVB50
000436:
000437: 07,2277           15213                          TCF      TASKOVER
000438:
000439:                                                                                                 #  Page 226
000440:                                                                                                 #  PROGRAM NAME:  MKREJECT                                        DATE:  5 APRIL 1967
000441:                                                                                                 #  PROGRAM MODIFIED BY 258/276 PROGRAMMERS                        LOG SECTION SXTMARK
000442:                                                                                                 #  MOD BY:  R. MELANSON TO ADD DOCUMENTATION                      ASSEMBLY SUNDISK REV. 116
000443:
000444:                                                                                                 #  FUNCTIONAL DESCRIPTION:
000445:
000446:                                                                                                 #         ROUTINE ALLOWS OPEATOR TO REJECT MARK MADE PRIOR TO ACCEPTANCE AND ALLOWS A NEW MARK TO BE MADE BY ASTRONAUT.
000447:
000448:                                                                                                 #  CALLING SEQUENCE:
000449:
000450:                                                                                                 #         FROM MARKRUPT IF BIT7 OF CHANNEL 16 IS 1.
000451:
000452:                                                                                                 #  NORMAL EXIT MODE:
000453:
000454:                                                                                                 #         RESUME
000455:
000456:                                                                                                 #  ALARM OR ABORT EXIT MODE:
000457:
000458:                                                                                                 #         ALARM AND RESUME
000459:
000460:                                                                                                 #  OUTPUT:
000461:
000462:                                                                                                 #         1)      FOR R21:
000463:                                                                                                 #                 MRKRUP1 SET TO -1
000464:                                                                                                 #         2)      FOR NORMAL MARKING:
000465:                                                                                                 #                 BIT10 MARKSTAT =0, INCREMENT NO. MARKS BY 1, DECREMENT QPRET BY 7
000466:
000467:                                                                                                 #  ERASABLE INITIALIZATION:
000468:
000469:                                                                                                 #         1)      FOR R21:
000470:                                                                                                 #                 BIT14 OF STATE+2 SET TO 1
000471:                                                                                                 #         2)      FOR NORMAL MARKING:
000472:                                                                                                 #                 BIT14 OF STATE+2 SET TO 0, MARKSTAT,QPRET
000473:
000474:                                                                                                 #  DEBRIS:
000475:
000476:                                                                                                 #         1)      FOR R21:
000477:                                                                                                 #                 A,MARKSTAT,EBANK
000478:                                                                                                 #         2)      FOR NORMAL MARKING:
000479:                                                                                                 #                 A,MARKSTAT,ITEMP1,QPRET
000480:
000481: 07,2300           34675        MKREJECT          CAF      BIT14
000482: 07,2301           70076                          MASK     STATE      +2                         #  R21 MARK (SPECIAL MARKING FOR R21)
000483: 07,2302           00006                          EXTEND
000484: 07,2303           12307                          BZF      MRKREJCT                              #  NOT SET THEREFORE REGULAR REJECT
000485: 07,2304           37716                          CA       NEGONE                                #  -1 (FOR R22)
000486: 07,2305           55725                          TS       MRKBUF1                               #  -0 IN TIME IS FLAG TO R22 SIGNIFYING A
000487: 07,2306           05222                          TC       RESUME                                #  REJECTED MARK
000488: 07,2307           11330        MRKREJCT          CCS      MARKSTAT                              #  SEE IF MARKS BEING ACCEPTED
000489: 07,2310           02314                          TC       REJECT2
000490: 07,2311           05537                          TC       ALARM                                 #  MARKS NOT BEING ACCEPTED
000491: 07,2312           00112                          OCT      112
000492: 07,2313           05222                          TC       RESUME
000493:
000494: 07,2314           44701        REJECT2           CS       BIT10                                 #  SEE IF MARK HAD BEEN MADE SINCE LAST
000495: 07,2315           71330                          MASK     MARKSTAT                              #  REJECT, AND SET BIT10 TO ZERO TO
000496: 07,2316           57330                          XCH      MARKSTAT                              #  SHOW MARK REJECT
000497:                                                                                                 #  Page 227
000498: 07,2317           74701                          MASK     BIT10
000499: 07,2320           10000                          CCS      A
000500: 07,2321           02325                          TC       REJECT3
000501:
000502: 07,2322           05537                          TC       ALARM                                 #  DON'T ACCEPT TWO REJECTS TOGETHER
000503: 07,2323           00110                          OCT      110
000504: 07,2324           05222                          TC       RESUME
000505:
000506: 07,2325           34741        REJECT3           CAF      LOW9                                  #  DECREMENT POINTER TO REJECT MARK
000507: 07,2326           71330                          MASK     MARKSTAT
000508: 07,2327           54061                          TS       ITEMP1
000509: 07,2330           44716                          CS       SEVEN
000510: 07,2331           50061                          INDEX    ITEMP1
000511: 07,2332           26052                          ADS      QPRET                                 #  NEW POINTER
000512:
000513: 07,2333           34677                          CAF      BIT12                                 #  INCREMENT MARKS WANTED AND IF FIELD
000514: 07,2334           61330                          AD       MARKSTAT                              #  IS NOW NON-ZERO, CHANGE TO VB51 TO
000515: 07,2335           57330                          XCH      MARKSTAT                              #  INDICATE MORE MARKS WANTED
000516: 07,2336           77671                          MASK     PRIO34                                #  INDICATE MORE MARKS WANTED
000517: 07,2337           10000                          CCS      A
000518: 07,2340           05222                          TC       RESUME
000519: 07,2341           37667                          CAF      PRIO32
000520: 07,2342           05027                          TC       NOVAC
000521: 07,2343     1330                                 EBANK=   MARKSTAT
000522: 07,2343           02346 16062                    2CADR    MKVB51
000523:
000524: 07,2345           05222                          TC       RESUME
000525:
000526:                                                                                                 #  Page 228
000527:                                                                                                 #  PROGRAM DESCRIPTON MKVB51 AND MKVB50
000528:
000529:                                                                                                 #  AUTHOR:        BARNERT         DATE: 2-15-67           MOD: 0
000530:                                                                                                 #  PURPOSE:       FLASH V51N70,V51N43, OR V51 TO REQUEST MARKING,
000531:                                                                                                 #                 AND V50N25 R1=10 TO REQUEST TERMINATE MARKING.
000532:
000533:                                                                                                 #  CALLING SEQUENCE:      AS JOB WITHIN SXTMARK
000534:
000535:                                                                                                 #  EXIT TO ENDMARK UPON RECEIPT OF V33, V34 CAUSES GOTOP00H, ENTER
000536:                                                                                                 #         RECYCLES THE DISPLAY
000537:
000538:                                                                                                 #  NOTE:  SXTMARK AUTOMATICALLY CHANGES FROM CALLING MKVB51 TO MKVB50 WHEN
000539:                                                                                                 #         SUFFICIENT MARKS HAVE BEEN MADE, AND THE REVERSE WHEN A MARK
000540:                                                                                                 #         REJECT REDUCES THE NUMBER MADE BELOW THAT REQUIRED
000541:
000542:                                                                                                 #  SUBROUTINES CALLED:  BANKCALL, GOMARK2, GOODEND, ENDMARK, WAITLIST
000543:
000544:                                                                                                 #  ALARM OR ABORT MODES:  NONE
000545:
000546:                                                                                                 #  ERASABLE USED:  VERBREG, MARKSTAT, QPRET, DSPTEM1
000547:
000548:                                                                                                 #  OUTPUT MARKSTAT = VAC ADDRESS
000549:
000550:                                                                                                 #  QPRET = NO. MARKS
000551:
000552: 07,2346           04555        MKVB51            TC       BANKCALL                              #  CLEAR DISPLAY FOR MARK VERB
000553: 07,2347           20464                          CADR     KLEENEX
000554: 07,2350           32426                          CAF      VB51                                  #  DISPLAY MARK VB51
000555: 07,2351           04555                          TC       BANKCALL
000556: 07,2352           20476                          CADR     GOMARK4
000557: 07,2353           12356                          TCF      TERMSXT                               #  VB34-TERMINATE
000558: 07,2354           12367                          TCF      ENTANSWR                              #  V33-PROCEED-MARKING DONE
000559: 07,2355           12415                          TCF      MKVB5X                                #  ENTER-RECYCLE TO INITIAL MARK DISPLAY
000560:
000561: 07,2356           05425        TERMSXT           TC       CLEARMRK                              #  CLEAR MARK ACTIVITY.
000562:
000563: 07,2357           05253                          TC       CHECKMM
000564: 07,2360           00003                          MM       03         B-14
000565: 07,2361           12363                          TCF      +2
000566: 07,2362           02365                          TC       TERMP03
000567: 07,2363           04574                          TC       POSTJUMP
000568: 07,2364           30176                          CADR     TERM52
000569:
000570: 07,2365           05435        TERMP03           TC       UPFLAG
000571: 07,2366           00032                          ADRES    TRM03FLG
000572: 07,2367           34741        ENTANSWR          CAF      LOW9                                  #  PUT VAC ADR IN MARKSTAT AND NO. OF
000573: 07,2370           71330                          MASK     MARKSTAT                              #  MARKS MADE IN QPRET BEFORE LEAVING
000574: 07,2371           55330                          TS       MARKSTAT                              #  SXTMARK
000575: 07,2372           40000                          COM
000576: 07,2373           51330                          INDEX    MARKSTAT
000577: 07,2374           60052                          AD       QPRET
000578:                                                                                                 #  Page 229
000579: 07,2375           00006                          EXTEND
000580: 07,2376           62402                          BZMF     JAMIT                                 #  NO MARKS MADE, SHOW IT IN QPRET, R53
000581: 07,2377           00006                          EXTEND                                         #         WILL PICK IT UP AND RECYCLE
000582: 07,2400           74677                          MP       BIT12                                 #  THIS PUTS NUMBER MARKS-1 IN A
000583: 07,2401           64712                          AD       ONE
000584: 07,2402           51330        JAMIT             INDEX    MARKSTAT                              #  STORE NO OF MARKS MADE
000585: 07,2403           54052                          TS       QPRET
000586: 07,2404           00004                          INHINT                                         #  SERVICE OPTSTALL INTERFACE IWTH
000587: 07,2405           34715                          CAF      FIVE
000588: 07,2406           05140                          TC       WAITLIST
000589: 07,2407     1330                                 EBANK=   MARKSTAT
000590: 07,2407           02412 16062                    2CADR    ENDMARKS
000591:
000592: 07,2411           05423                          TC       ENDMARK                               #  KNOCKS DOWN MARKING FLAG + DOES ENDOFJOB
000593:
000594: 07,2412           34712        ENDMARKS          CAF      ONE
000595: 07,2413           04633                          TC       IBNKCALL
000596: 07,2414           17467                          CADR     GOODEND
000597: 07,2415           37671        MKVB5X            CAF      PRIO34
000598: 07,2416           71330                          MASK     MARKSTAT                              #  RE-DISPLAY VB51 IF MORE MARKS WANTED
000599: 07,2417           10000                          CCS      A                                     #  AND VB50 IF ALL IN
000600: 07,2420           12346                          TCF      MKVB51
000601: 07,2421           34333        MKVB50            CAF      R1D1                                  #  OCT 16
000602: 07,2422           55045                          TS       DSPTEM1
000603: 07,2423           32425                          CAF      V50N25
000604: 07,2424           12351                          TCF      MKVB51     +3
000605:
000606: 07,2425           14431        V50N25            VN       5025
000607: 07,2426           14600        VB51              VN       5100
000608: 07,2427     4362               OCT37             =        LOW5
000609:
000610:                                                                                                 #  PROGRAM NAME:  MARKIT                          DATE: 19 SEPT 1967
000611:
000612:                                                                                                 #  CALLING SEQUENCE:
000613:
000614:                                                                                                 #         FROM MARKRUPT IF CHAN 16 BIT 6 = 1
000615:
000616:                                                                                                 #  EXIT
000617:
000618:                                                                                                 #         RESUME
000619:
000620:                                                                                                 #  INPUT
000621:
000622:                                                                                                 #         CDUCHKWD.  ALSO ALL INITIALIZATION FOR MARKCONT
000623:
000624:                                                                                                 #  OUTPUT
000625:
000626:                                                                                                 #         MKT2T1,MKCDUX,MKCDUY,MKCDUZ,MKCDUS,MKCDUT
000627:
000628:                                                                                                 #  ALARM EXIT
000629:
000630:                                                                                                 #         NONE
000631:
000632: 07,2427           11341        MARKIT            CCS      CDUCHKWD
000633: 07,2430           12433                          TCF      +3                                    #  DELAY OF CDUCHKWD CS IF PNZ
000634:                                                                                                 #  Page 230
000635: 07,2431           12433                          TCF      +2
000636: 07,2432           34714                          CAF      ZERO
000637: 07,2433           64712                          AD       ONE                                   #  10 MS IF NO CHECK
000638: 07,2434           05140                          TC       WAITLIST
000639: 07,2435  E7,1725                                 EBANK=   MRKBUF1
000640: 07,2435           02203 20067                    2CADR    MARKDIF
000641:
000642: 07,2437           15222                          TCF      RESUME
000643:
000644: 10,2000                                          SETLOC   SXTMARK1
000645: 10,2000                                          BANK
000646:
000647: 10,2203                                          COUNT    20/SXTMK
000648:
000649:                                                                                                 #  PROGRAM NAME:  MARKDIF
000650:
000651:                                                                                                 #  CALLING SEQUENCE
000652:
000653:                                                                                                 #         WAITLIST FROM MARKIT
000654:
000655:                                                                                                 #  EXIT
000656:
000657:                                                                                                 #         TASKOVER TO IBNKCALL TO MARKCONT
000658:
000659:                                                                                                 #  INPUT
000660:
000661:                                                                                                 #         OUTPUT FROM MARKIT, INPUT TO MARKCONT, CDUCHKWD
000662:
000663:                                                                                                 #  OUTPUT
000664:
000665:                                                                                                 #         RUPTSTOR - RUPTSTOR+3, RUPTREG3, RUPTSTOR+5 - RUPTSTOR+6
000666:
000667:                                                                                                 #  ALARM EXIT
000668:
000669:                                                                                                 #         ALARM AND TASKOVER
000670:
000671: 10,2203           31341        MARKDIF           CA       CDUCHKWD                              #  IF DELAY CHECK IS ZERO OR NEG, ACP MARK
000672: 10,2204           00006                          EXTEND
000673: 10,2205           62216                          BZMF     MKACPT
000674: 10,2206           44712                          CS       BIT1
000675: 10,2207           54354                          TS       MKNDX                                 #  SET INDEX -1
000676: 10,2210           30363                          CA       MKCDUX
000677: 10,2211           02220                          TC       DIFCHK                                #  SEE IF VEHICLE RATE TO MUCH AT MARK
000678: 10,2212           30357                          CA       MKCDUY
000679: 10,2213           02220                          TC       DIFCHK
000680: 10,2214           30361                          CA       MKCDUZ
000681: 10,2215           02220                          TC       DIFCHK
000682:
000683: 10,2216           04633        MKACPT            TC       IBNKCALL
000684: 10,2217           16152                          CADR     MARKCONT                              #  MARK DATA OK, WHAT DO WE DO WITH IT
000685:
000686: 10,2220           24354        DIFCHK            INCR     MKNDX                                 #  INCREMENT INDEX
000687:
000688: 10,2221           00006                          EXTEND
000689: 10,2222           50354                          INDEX    MKNDX
000690:                                                                                                 #  Page 231
000691: 10,2223           20032                          MSU      CDUX                                  #  GET MARK(ICDU) - CURRENT(ICDU)
000692: 10,2224           10000                          CCS      A
000693: 10,2225           12231                          TCF      +4
000694: 10,2226           00002                          TC       Q
000695: 10,2227           12231                          TCF      +2
000696: 10,2230           00002                          TC       Q
000697: 10,2231           67715                          AD       NEG2                                  #  SEE IF DIFFERENCE GREATER THAN 3 BITS
000698: 10,2232           00006                          EXTEND
000699: 10,2233           62230                          BZMF     -3                                    #  NOT GREATER
000700:
000701: 10,2234           05537                          TC       ALARM                                 #  COUPLED WITH PROGRAM ALARM
000702: 10,2235           00121                          OCT      00121
000703:
000704: 10,2236           15213                          TCF      TASKOVER                              #  DO NOT ACCEPT
000705:

End of include-file SXTMARK.agc.  Parent file is MAIN.agc


