
Source Code


000002:                                                                                                  ## Copyright:   Public domain.
000003:                                                                                                  ## Filename:    SXTMARK.agc
000004:                                                                                                  ## Purpose:     Part of the source code for Colossus, build 249.
000005:                                                                                                  ##              It is part of the source code for the Command Module's (CM)
000006:                                                                                                  ##              Apollo Guidance Computer (AGC), for Apollo 9.
000007:                                                                                                  ## Assembler:   yaYUL
000008:                                                                                                  ## Reference:   pp. 216-229.
000009:                                                                                                  ## Contact:     Ron Burkey <info@sandroid.org>.
000010:                                                                                                  ## Website:     www.ibiblio.org/apollo.
000011:                                                                                                  ## Mod history: 08/07/04 RSB.   Began data entry.
000012:                                                                                                  ##              2010-10-24 JL   Pseudo-label indentation fixes.
000013:                                                                                                  ##              2017-01-05 RSB  Page numbers now agree with those on the
000014:                                                                                                  ##                              original harcopy, as opposed to the PDF page
000015:                                                                                                  ##                              numbers in 1701.pdf.
000016:                                                                                                  ##              2017-01-20 RSB  Cross-diff'd comment text (not whitespace)
000017:                                                                                                  ##                              vs the already-proofed corresponding Colossus
000018:                                                                                                  ##                              237 and Comanche 55 source-code files
000019:                                                                                                  ##                              and corrected errors found.
000020:                                                                                                  ##
000021:                                                                                                  ## The contents of the "Colossus249" files, in general, are transcribed
000022:                                                                                                  ## from a scanned copy of the program listing.  Notations on this
000023:                                                                                                  ## document read, in part:
000024:                                                                                                  ##
000025:                                                                                                  ##      Assemble revision 249 of AGC program Colossus by NASA
000026:                                                                                                  ##      2021111-041.  October 28, 1968.
000027:                                                                                                  ##
000028:                                                                                                  ##      This AGC program shall also be referred to as
000029:                                                                                                  ##                              Colossus 1A
000030:                                                                                                  ##
000031:                                                                                                  ##      Prepared by
000032:                                                                                                  ##                      Massachusetts Institute of Technology
000033:                                                                                                  ##                      75 Cambridge Parkway
000034:                                                                                                  ##                      Cambridge, Massachusetts
000035:                                                                                                  ##      under NASA contract NAS 9-4065.
000036:                                                                                                  ##
000037:                                                                                                  ## Refer directly to the online document mentioned above for further information.
000038:                                                                                                  ## Please report any errors (relative to the scanned pages) to info@sandroid.org.
000039:                                                                                                  ##
000040:                                                                                                  ## In some cases, where the source code for Luminary 131 overlaps that of
000041:                                                                                                  ## Colossus 249, this code is instead copied from the corresponding Luminary 131
000042:                                                                                                  ## source file, and then is proofed to incorporate any changes.
000043:


000045:                                                                                                  #  PROGRAM NAME - SXTMARK                                        DATE - 5 APRIL 1967
000046:                                                                                                  #  PROGRAM MODIFIED BY 258/278 PROGRAMMERS                       LOG SECTION SXTMARK
000047:                                                                                                  #  MOD BY - R. MELANSON TO ADD DOCUMENTATION                     ASSEMBLY SUNDISK REV. 116
000048:                                                                                                  #
000049:                                                                                                  #  FUNCTIONAL DESCRIPTION-
000050:
000051:                                                                                                  #        SXTMARK IS CALLED FROM INTERNAL ROUTINES WHICH MAY REQUIRE STAR OR LANDMARK MARKINGS BY THE ASTRONAUT.  IF
000052:                                                                                                  #        THE MARK SYSTEM IS NOT IN USE, SXTMARK RESERVES A VAC AREA FOR MARKING AND REQUESTS EXECUTIONOF THE MKVB51
000053:                                                                                                  #        ROUTINE VIA THE EXECUTIVE JOB PRIORITY LIST.  R21 USES THIS ROUTINE TO DETERMINE IF THE MARK SYSTEM CAN BE
000054:                                                                                                  #        USED.  IF YES, SXTMARK RETURNS TO R21 TO PERFORM ITS OWN MARK REQUESTS VIA THE V51 FLASH.
000055:
000056:                                                                                                  #  CALLING SEQUENCE-
000057:
000058:                                                                                                  #        CAF     (NO. MARK REQUESTS IN BITS 1-3 OF A)
000059:                                                                                                  #        TC      BANKCALL
000060:                                                                                                  #        CADR    SXTMARK
000061:
000062:                                                                                                  #  NORMAL EXIT MODE-
000063:
000064:                                                                                                  #        SWRETURN
000065:
000066:                                                                                                  #  ALARM OR ABORT EXIT MODE-
000067:
000068:                                                                                                  #        ABORT
000069:
000070:                                                                                                  #  OUTPUT-
000071:
000072:                                                                                                  #        1)      MARKSTAT CONTAINS MARK VALUE (BITS 14-12) AND VAC AREA ADDRESS
000073:                                                                                                  #        2)      QPRET = VAC AREA POINTER VALUE
000074:                                                                                                  #        3)      1ST WORD OF RESERVED VAC AREA SET TO +0
000075:                                                                                                  #        4)      PRIO32 PLACED IN A REGISTER
000076:
000077:                                                                                                  #  ERASABLE INITIALIZATION-
000078:
000079:                                                                                                  #        1)      BITS 1-3 OF A = NO. MARKS REQUESTED
000080:                                                                                                  #        2)      BITS 2,3 OF EXTVBACT = 0
000081:                                                                                                  #        3)      A VAC AREA MUST BE AVAILABLE (WORD 1 = ADDRESS OF VAC AREA)
000082:
000083:                                                                                                  #  DEBRIS-
000084:
000085:                                                                                                  #        A,Q,L,RUPTREG1,MARKSTAT,QPRET,BIT2 OF EXTVBACT
000086:
000087: 13,2036                                           BANK     13
000088: 07,2000                                           SETLOC   SXTMARKE
000089: 07,2000                                           BANK
000090:
000091: 07,2002  E7,1725                                  EBANK=   MRKBUF1
000092: 07,2002                                           COUNT    07/SXTMK
000093:
000094: 07,2002           00004        SXTMARK            INHINT
000095: 07,2003           54070                           TS       RUPTREG1                              #  NUMBER OF MARKS WANTED
000096:
000097: 07,2004           36211                           CAF      SIX                                   #  BIT2 = MARKING SYSTEM IN USE
000098: 07,2005           71044                           MASK     EXTVBACT                              #  BIT3 = EXTENDED VERB IN PROGRESS
000099: 07,2006           10000                           CCS      A
000100: 07,2007           02013                           TC       MKABORT                               #  SET THEREFORE ABORT


000102: 07,2010           34711                           CAF      BIT2                                  #  NOT SET
000103: 07,2011           27044                           ADS      EXTVBACT                              #  SET IT, RESET IN ENDMARK
000104: 07,2012           02015                           TC       MARKOK                                #  YES, FIND VAC AREA
000105:
000106: 07,2013           05604        MKABORT            TC       BAILOUT
000107: 07,2014           01211                           OCT      01211
000108: 07,2015           10400        MARKOK             CCS      VAC1USE                               #  FIND VAC AREA
000109: 07,2016           02031                           TC       MKVACFND
000110: 07,2017           10454                           CCS      VAC2USE
000111: 07,2020           02031                           TC       MKVACFND
000112: 07,2021           10530                           CCS      VAC3USE
000113: 07,2022           02031                           TC       MKVACFND
000114: 07,2023           10604                           CCS      VAC4USE
000115: 07,2024           02031                           TC       MKVACFND
000116: 07,2025           10660                           CCS      VAC5USE
000117: 07,2026           02031                           TC       MKVACFND
000118: 07,2027           05604                           TC       BAILOUT
000119: 07,2030           01207                           OCT      01207
000120:
000121: 07,2031           64711        MKVACFND           AD       TWO                                   #  ADDRESS OF VAC AREA
000122: 07,2032           55330                           TS       MARKSTAT
000123: 07,2033           50000                           INDEX    A
000124: 07,2034           54052                           TS       QPRET                                 #  STORE NEXT AVAILABLE MARK SLOT
000125:
000126: 07,2035           34714                           CAF      ZERO                                  #  SHOW VAC AREA OCCUPIED
000127: 07,2036           51330                           INDEX    MARKSTAT
000128: 07,2037           53777                           TS       0          -1
000129:
000130: 07,2040           05253                           TC       CHECKMM                               #  BACKUP MARK ROUTINE USES SXTMARK
000131: 07,2041           00065                           MM       53         B-14
000132: 07,2042           12044                           TCF      +2
000133: 07,2043           14570                           TCF      SWRETURN
000134: 07,2044           05253                           TC       CHECKMM
000135: 07,2045           00066                           MM       54         B-14
000136: 07,2046           12050                           TCF      +2
000137: 07,2047           14570                           TCF      SWRETURN
000138: 07,2050           34677                           CAF      BIT12                                 #  DESIRED NUMBER OF MARKS IN 12-14
000139: 07,2051           00006                           EXTEND
000140: 07,2052           70070                           MP       RUPTREG1
000141: 07,2053           56001                           XCH      L
000142: 07,2054           27330                           ADS      MARKSTAT
000143:
000144: 07,2055           37667                           CAF      PRIO32                                #  ENTER MARK JOB
000145: 07,2056           05027                           TC       NOVAC
000146: 07,2057     1330                                  EBANK=   MARKSTAT
000147: 07,2057           02346 16062                     2CADR    MKVB51
000148:
000149: 07,2061           00003                           RELINT
000150: 07,2062           14570                           TCF      SWRETURN                              #  SAME AS MODEEXIT
000151:


000153:                                                                                                  #  PROGRAM NAME - MKRELEAS                                       DATE - 5 APRIL 1967
000154:                                                                                                  #  PROGRAM MODIFIED BY 258/278 PROGRAMMERS                       LOG SECTION SXTMARK
000155:                                                                                                  #  MOD BY - R. MELANSON TO ADD DOCUMENTATION                     ASSEMBLY SUNDISK REV. 116
000156:
000157:                                                                                                  #  FUNCTIONAL DESCRIPTION-
000158:
000159:                                                                                                  #        MKRELEAS IS EXECUTED BY INTERNAL ROUTINES TO RELEASE THE MARK SYSTEM TO MAKE IT AVAILABLE TO OTHER INTERNAL
000160:                                                                                                  #        SYSTEM ROUTINES.  IT ALSO CLEARS THE COARSE OPTICS FLAG BIT AND DISABLES THE OPTICS ERROR COUNTER.
000161:
000162:                                                                                                  #  CALLING SEQUENCE-
000163:
000164:                                                                                                  #        TC      BANKCALL
000165:                                                                                                  #        CADR    MKRELEAS
000166:
000167:                                                                                                  #  NORMAL EXIT MODE-
000168:
000169:                                                                                                  #        SWRETURN
000170:
000171:                                                                                                  #  ALARM OR ABORT EXIT MODE - NONE
000172:
000173:                                                                                                  #  OUTPUT-
000174:
000175:                                                                                                  #        1)      BIT9 OPTMODES SET TO 0
000176:                                                                                                  #        2)      OPTIND SET TO -1
000177:                                                                                                  #        3)      1ST WORD OF VAC AREA SET TO VAC ADDRESS TO SIGNIFY AVAILABILITY.
000178:                                                                                                  #        4)      MARKSTAT CLEARED
000179:                                                                                                  #        5)      BIT2 CHANNEL 12 SET TO 0
000180:
000181:                                                                                                  #  ERASABLE INITIALIZATION-  NONE
000182:
000183:                                                                                                  #  DEBRIS-
000184:
000185:                                                                                                  #        A,MARKSTAT,BIT9 OPTMODES,OPTIND,BIT2 CHANNEL 12
000186:
000187: 07,2063           34714        MKRELEAS           CAF      ZERO                                  #  SHOW MARK SYSTEM NOW AVAILABLE
000188: 07,2064           57330                           XCH      MARKSTAT
000189: 07,2065           10000                           CCS      A
000190: 07,2066           50000                           INDEX    A
000191: 07,2067           54000                           TS       0
000192: 07,2070           00004        MKRLEES            INHINT
000193: 07,2071           44702                           CS       BIT9                                  #  COARSE OPTICS RETURN FLAG.
000194: 07,2072           71331                           MASK     OPTMODES
000195: 07,2073           55331                           TS       OPTMODES
000196:
000197: 07,2074           37716                           CA       NEGONE
000198: 07,2075           55303                           TS       OPTIND                                #  KILL COARS OPTICS
000199:
000200: 07,2076           44711                           CS       BIT2                                  #  DISABLE OPTICS ERROR COUNTER
000201: 07,2077           00006                           EXTEND
000202: 07,2100           03012                           WAND     CHAN12
000203:
000204: 07,2101           00003                           RELINT
000205: 07,2102           04570                           TC       SWRETURN


000207:                                                                                                  #  PROGRAM NAME - MARKRUPT                                       DATE - 5 APRIL 1967
000208:                                                                                                  #  PROGRAM MODIFIED BY 258/278 PROGRAMMERS                       LOG SECTION SXTMARK
000209:                                                                                                  #  MOD BY - R. MELANSON TO ADD DOCUMENTATION                     ASSEMBLY SUNDISK REV. 116
000210:
000211:                                                                                                  #  FUNCTIONAL DESCRIPTION-
000212:
000213:                                                                                                  #        MARKRUPT STORES CDUS,OPTICS AND TIME AND TRANSFERS CONTROL TO THE MARKIT,MARK REJECT OR KEYCOM ROUTINES IF
000214:                                                                                                  #        BITS IN CHANNEL 16 ARE SET AS REQUIRED.
000215:
000216:                                                                                                  #  CALLING SEQUENCE-
000217:
000218:                                                                                                  #        ROUTINE ENTERED VIA KEYRUPT2 WHEN MARK,MARK REJECT OR DSKY KEYS DEPRESSED BY THE OPERATOR.
000219:
000220:                                                                                                  #  NORMAL EXIT MODE-
000221:
000222:                                                                                                  #        MARKIT, MKREJECT OR POSTJUMP ROUTINES (MARK, MARK REJECT OR DSKY CODE)
000223:
000224:                                                                                                  #  ALARM OR ABORT EXIT MODE-
000225:
000226:                                                                                                  #        ALARM AND RESUME
000227:
000228:                                                                                                  #  OUTPUT-
000229:
000230:                                                                                                  #        RUPTSTOR+5 = CDUT, RUPTSTOR+3 = CDUS, RUPTSTOR+2 = CDUY,
000231:                                                                                                  #        RUPTREG3 = CDUZ, RUPTSTOR+6 = CDUX, RUPTSTOR+1 AND SAMPTIME+1 = TIME1,
000232:                                                                                                  #        RUPTSTOR AND SAMPTIME = TIME2
000233:
000234:                                                                                                  #  ERASABLE INITIALIZATION-
000235:
000236:                                                                                                  #        CDUT,CDUS,CDUY,CDUZ,CDUX,TIME2,TIME1,CHANNEL 16 BITS 6,7 OR 1-5
000237:
000238:                                                                                                  #  DEBRIS-
000239:
000240:                                                                                                  #        A,QRUPT,RUPTREG3,SAMPTIME,SAMPTIME+1,RUPTSTOR TO RUPTSTOR+6 EXCEPT RUPTSTOR+4 (LOCATION 67)
000241:
000242: 07,2103           54016        MARKRUPT           TS       BANKRUPT                              #  STORE CDUS AND OPTICS NOW
000243: 07,2104           30035                           CA       CDUT
000244: 07,2105           54362                           TS       MKCDUT
000245: 07,2106           30036                           CA       CDUS
000246: 07,2107           54360                           TS       MKCDUS
000247: 07,2110           30033                           CA       CDUY
000248: 07,2111           54357                           TS       MKCDUY
000249: 07,2112           30034                           CA       CDUZ
000250: 07,2113           54361                           TS       MKCDUZ
000251: 07,2114           30032                           CA       CDUX
000252: 07,2115           54363                           TS       MKCDUX
000253: 07,2116           00006                           EXTEND
000254: 07,2117           30025                           DCA      TIME2                                 #  GET TIME
000255: 07,2120           52356                           DXCH     MKT2T1
000256: 07,2121           00006                           EXTEND
000257: 07,2122           30356                           DCA      MKT2T1
000258: 07,2123           52014                           DXCH     SAMPTIME                              #  RUPT TIME FOR NOUN 65.
000259:
000260: 07,2124           56002                           XCH      Q
000261: 07,2125           54012                           TS       QRUPT
000262:
000263: 07,2126           34705                           CAF      BIT6                                  #  SEE IF MARK OR MKREJECT


000265: 07,2127           00006                           EXTEND
000266: 07,2130           02016                           RAND     NAVKEYIN
000267: 07,2131           10000                           CCS      A
000268: 07,2132           02427                           TC       MARKIT                                #  ITS A MARK
000269:
000270: 07,2133           34704                           CAF      BIT7                                  #  NOT A MARK, SEE IF MKREJECT
000271: 07,2134           00006                           EXTEND
000272: 07,2135           02016                           RAND     NAVKEYIN
000273: 07,2136           10000                           CCS      A
000274: 07,2137           02300                           TC       MKREJECT                              #  ITS A MARK REJECT
000275:
000276: 07,2140           34362        KEYCALL            CAF      OCT37                                 #  NOT MARK OR MKREJECT, SEE IF KEYCODE
000277: 07,2141           00006                           EXTEND
000278: 07,2142           02016                           RAND     NAVKEYIN
000279: 07,2143           00006                           EXTEND
000280: 07,2144           12147                           BZF      +3                                    #  IF NO INBITS
000281: 07,2145           04574                           TC       POSTJUMP
000282: 07,2146           17622                           CADR     KEYCOM                                #  IT,S A KEY CODE, NOT A MARK.
000283:
000284: 07,2147           05537                 +3        TC       ALARM                                 #  ALARM IF NO INBITS
000285: 07,2150           00113                           OCT      113
000286: 07,2151           05222                           TC       RESUME
000287:


000289:                                                                                                  #  PROGRAM NAME - MARKCONT                               DATE - 19 SEPT 1967
000290:                                                                                                  #  PROGRAM MODIFIED BY 258/278 PROGRAMMERS               LOG SECTION SXTMARK
000291:                                                                                                  #  MOD BY - R. MELANSON TO ADD DOCUMENTATION             ASSEMBLY SUNDISK REV. 116
000292:
000293:                                                                                                  #  FUNCTIONAL DESCRIPTION-
000294:
000295:                                                                                                  #        MARKCONT IS USED TO PERFORM A SPECIAL MARK FUNCTION FOR R21, TO EXECUTE A SPECIAL DISPLAY OF OPTICS AND TIME OR
000296:                                                                                                  #        TO PERFORM A MARK OF A STAR OR LAND SIGHTING BASED UPON FLASHING V-N.
000297:
000298:                                                                                                  #  CALLING SEQUENCE-
000299:
000300:                                                                                                  #        FROM MARKDIF
000301:
000302:                                                                                                  #  NORMAL EXIT MODE-
000303:
000304:                                                                                                  #        TASKOVER
000305:
000306:                                                                                                  #  ALARM OR ABORT EXIT MODE-
000307:
000308:                                                                                                  #        ALARM AND TASKOVER
000309:
000310:                                                                                                  #  OUTPUT-
000311:
000312:                                                                                                  #        1)      FOR R21-
000313:                                                                                                  #                EBANK=EBANK7
000314:                                                                                                  #                MRKBUF1 TO MRKBUF1+6 = TIME2,TIME1,CDUY,OPTICX,CDUZ,OPTICSY,CDUX OF CURRENT R21 MARK FUNCTION.
000315:                                                                                                  #                MRKBUF2 TO MRKBUF2+6 CONTAINS PREVIOUS R21 MARK VALUES.
000316:                                                                                                  #        2)      FOR SPECIAL DISPLAY JOB-
000317:                                                                                                  #                RUPTREG1 AND MRKBUF1 = CDUS,RUPTREG2 AND MRKBUF1+1 = CDUT.
000318:                                                                                                  #                RUPTREG3 AND MRKBUF1 +2 = TIME2,RUPTREG4 AND MRKBUF1+3 = TIME1
000319:                                                                                                  #        3)      FOR NORMAL MARKING-
000320:                                                                                                  #                DECREMENT BITS14-12 OF MARKSTAT BY 1,
000321:                                                                                                  #                BIT10 MARKSTAT SET TO 1, INCREMENT QPRET BY 7,
000322:                                                                                                  #                STORE TIME2,TIME1,CDUY,CDUS,CDUZ,CDUT AND CDUX IN VAC+1 TO VAC+7
000323:
000324:                                                                                                  #  ERASABLE INITIALIZATION-
000325:
000326:                                                                                                  #        1)      FOR R21-
000327:                                                                                                  #                BIT14 OF STATE+2 =1, MRKBUF1 TO MRKBUF1+6, ITEMP1, RUPTREG3,
000328:                                                                                                  #                RUPTSTOR TO RUPTSTOR+6 EXCEPT RUPTSTOR+4
000329:                                                                                                  #        2)      FOR SPECIAL DISPLAY JOB-
000330:                                                                                                  #                BIT14 OF STATE+2 =0, MARKSTAT =+0, RUPTREG1,RUPTREG2,RUPTREG3
000331:                                                                                                  #                RUPTREG4,RUPTSTOR,RUPTSTOR+1,RUPTSTOR+3,RUPTSTOR+5,
000332:                                                                                                  #                BIT12 OF STATE+5 (V59 FLAG), MRKBUF1 THRU MRKBUF1+3
000333:                                                                                                  #        3)      FOR NORMAL MARKING-
000334:                                                                                                  #                BIT14 OF STATE+2 =0, MARKSTAT =VAC ADDRESS, A REG, ITEMP1, RUPTREG3,
000335:                                                                                                  #                RUPTSTOR TO RUPTSTOR+6 EXCEPT RUPTSTOR+4
000336:
000337:                                                                                                  #  DEBRIS-
000338:
000339:                                                                                                  #        1)      FOR R21-
000340:                                                                                                  #                A, ITEMP1, MRKBUF1, MRKBUF2
000341:                                                                                                  #        2)      FOR SPECIAL DISPLAY JOB-
000342:                                                                                                  #                A,RUPTREG1,RUPTREG2,RUPTREG3,RUPTREG4,MPAC TO MPAC+3
000343:                                                                                                  #        3)      FOR NORMAL MARKING-
000344:                                                                                                  #                A,MARKSTAT,ITEMP1,QPRET,VAC+1 TO VAC+7 OF VAC AREA IN USE
000345:


000347: 07,2152           34675        MARKCONT           CAF      BIT14
000348: 07,2153           70076                           MASK     STATE      +2                         #  R21 MARK (SPECIAL MARKING FOR R21)
000349: 07,2154           00006                           EXTEND
000350: 07,2155           12167                           BZF      MARKET                                #  NOT SET THEREFORE REGULAR MARKING
000351: 07,2156           36211        MARKIT1            CAF      SIX                                   #  SPECIAL FOR R21
000352: 07,2157           05475                           TC       GENTRAN                               #  TRANSFER MRKBUF1 TO MRKBUF2
000353: 07,2160           01725                           ADRES    MRKBUF1
000354: 07,2161           01734                           ADRES    MRKBUF2
000355:
000356: 07,2162           36211                           CAF      SIX                                   #  TRANSFER CURRENT MARK DATA TO MARKBUF1
000357: 07,2163           05475                           TC       GENTRAN
000358: 07,2164           00355                           ADRES    MKT2T1
000359: 07,2165           01725                           ADRES    MRKBUF1
000360:
000361: 07,2166           15213                           TCF      TASKOVER
000362:
000363: 07,2167           11330        MARKET             CCS      MARKSTAT                              #  SEE IF MARKS CALLED FOR
000364: 07,2170           02224                           TC       MARK2                                 #  COLLECT MARKS
000365:
000366: 07,2171           34711                           CAF      TWO                                   #  IS MARKING SYSTEM IN USE (BIT2)
000367: 07,2172           71044                           MASK     EXTVBACT
000368: 07,2173           00006                           EXTEND
000369: 07,2174           12216                           BZF      MARKET3                               #  MARKING NOT CALLED FOR
000370: 07,2175           34677                           CAF      BIT12
000371: 07,2176           70101                           MASK     STATE      +5                         #  V59FLAG
000372: 07,2177           00006                           EXTEND
000373: 07,2200           12216                           BZF      MARKET3                               #  IF V59FLAG NOT SET-MARK UNCALLED FOR
000374: 07,2201           34754                           CAF      PRIO5                                 #  CALIBRATION MARK (SET) FOR P23
000375: 07,2202           05027                           TC       NOVAC                                 #  SPECIAL DISPLAY JOB
000376: 07,2203  E7,1725                                  EBANK=   MRKBUF1
000377: 07,2203           02405 76067                     2CADR    MARKDISP
000378:
000379: 07,2205           36211                           CAF      SIX
000380: 07,2206           05475                           TC       GENTRAN                               #  TRANSFER MARK DATA TO MARKDOWN
000381: 07,2207           00355                           ADRES    MKT2T1
000382: 07,2210           01674                           ADRES    MARKDOWN
000383: 07,2211           36211                           CAF      SIX
000384: 07,2212           05475                           TC       GENTRAN                               #  TRANSFER MARK DATA TO MRKBUF1 FOR
000385: 07,2213           00355                           ADRES    MKT2T1                                #  SPECIAL DISPLAY OF SHAFT AND TRUNNION
000386: 07,2214           01725                           ADRES    MRKBUF1                               #  IF V59 ACTING
000387: 07,2215           15213                           TCF      TASKOVER
000388: 07,2216           05537        MARKET3            TC       ALARM
000389: 07,2217           00122                           OCT      122                                   #  MARKING NOT CALLED FOR
000390: 07,2220           15213                           TCF      TASKOVER
000391: 07,2221           05537        114ALM             TC       ALARM                                 #  MARK NOT WANTED
000392: 07,2222           00114                           OCT      114
000393: 07,2223           15213                           TCF      TASKOVER
000394:


000396:                                                                                                  #  STORE MARK DATA IN MKVAC AND INCREMENT POINTER
000397:
000398: 07,2224           67711        MARK2              AD       74K                                   #  SEE IF MARKS WANTED-REDUCE MARKS WANTED
000399: 07,2225           00006                           EXTEND
000400: 07,2226           62221                           BZMF     114ALM                                #  MARK NOT WANTED-ALARM
000401: 07,2227           55330                           TS       MARKSTAT
000402: 07,2230           40000                           COM
000403: 07,2231           74701                           MASK     BIT10                                 #  SET BIT10 TO ENABLE REJECT
000404: 07,2232           27330                           ADS      MARKSTAT
000405:
000406: 07,2233           74741                           MASK     LOW9
000407: 07,2234           54061                           TS       ITEMP1
000408: 07,2235           50000                           INDEX    A
000409: 07,2236           56052                           XCH      QPRET                                 #  PICK UP MARK SLOT-POINTER
000410: 07,2237           54062                           TS       ITEMP2                                #  SAVE CURRENT POINTER
000411: 07,2240           64716                           AD       SEVEN                                 #  INCREMENT POINTER
000412: 07,2241           50061                           INDEX    ITEMP1
000413: 07,2242           54052                           TS       QPRET                                 #  STORE ADVANCED POINTER
000414:
000415: 07,2243           00006        VACSTOR            EXTEND
000416: 07,2244           30356                           DCA      MKT2T1
000417: 07,2245           50062                           INDEX    ITEMP2
000418: 07,2246           52001                           DXCH     0
000419: 07,2247           30357                           CA       MKCDUY
000420: 07,2250           50062                           INDEX    ITEMP2
000421: 07,2251           54002                           TS       2
000422: 07,2252           30360                           CA       MKCDUS
000423: 07,2253           50062                           INDEX    ITEMP2
000424: 07,2254           54003                           TS       3
000425: 07,2255           30361                           CA       MKCDUZ
000426: 07,2256           50062                           INDEX    ITEMP2
000427: 07,2257           54004                           TS       4
000428: 07,2260           30362                           CA       MKCDUT
000429: 07,2261           50062                           INDEX    ITEMP2
000430: 07,2262           54005                           TS       5
000431: 07,2263           30363                           CA       MKCDUX
000432: 07,2264           50062                           INDEX    ITEMP2
000433: 07,2265           54006                           TS       6
000434:
000435: 07,2266           37671                           CAF      PRIO34                                #  IF ALL MARKS MADE FLASH VB50
000436: 07,2267           71330                           MASK     MARKSTAT
000437: 07,2270           00006                           EXTEND
000438: 07,2271           12273                           BZF      +2
000439: 07,2272           15213                           TCF      TASKOVER
000440: 07,2273           37667                           CAF      PRIO32
000441: 07,2274           05027                           TC       NOVAC
000442: 07,2275     1330                                  EBANK=   MARKSTAT
000443: 07,2275           02421 16062                     2CADR    MKVB50
000444:
000445: 07,2277           15213                           TCF      TASKOVER
000446:


000448:                                                                                                  #  PROGRAM NAME - MKREJECT                                       DATE - 5 APRIL 1967
000449:                                                                                                  #  PROGRAM MODIFIED BY 258/278 PROGRAMMERS                       LOG SECTION SXTMARK
000450:                                                                                                  #  MOD BY - R. MELANSON TO ADD DOCUMENTATION                     ASSEMBLY SUNDISK REV. 116
000451:
000452:                                                                                                  #  FUNCTIONAL DESCRIPTION-
000453:
000454:                                                                                                  #        ROUTINE ALLOWS OPERATOR TO REJECT MARK MADE PRIOR TO ACCEPTANCE AND ALLOWS A NEW MARK TO BE MADE BY ASTRONAUT
000455:
000456:                                                                                                  #  CALLING SEQUENCE-
000457:
000458:                                                                                                  #        FROM MARKRUPT IF BIT7 OF CHANNEL 16 IS 1.
000459:
000460:                                                                                                  #  NORMAL EXIT MODE-
000461:
000462:                                                                                                  #        RESUME
000463:
000464:                                                                                                  #  ALARM OR ABORT EXIT MODE-
000465:
000466:                                                                                                  #        ALARM AND RESUME
000467:
000468:                                                                                                  #  OUTPUT-
000469:
000470:                                                                                                  #        1)      FOR R21-
000471:                                                                                                  #                MRKBUF1 SET TO -1
000472:                                                                                                  #        2)      FOR NORMAL MARKING-
000473:                                                                                                  #                BIT10 MARKSTAT =0, INCREMENT NO. MARKS BY 1, DECREMENT QPRET BY 7
000474:
000475:                                                                                                  #  ERASABLE INITIALIZATION-
000476:
000477:                                                                                                  #        1)      FOR R21-
000478:                                                                                                  #                BIT14 OF STATE+2 SET TO 1
000479:                                                                                                  #        2)      FOR NORMAL MARKING-
000480:                                                                                                  #                BIT14 OF STATE+2 SET TO 0, MARKSTAT,QPRET
000481:
000482:                                                                                                  #  DEBRIS-
000483:
000484:                                                                                                  #        1)      FOR R21-
000485:                                                                                                  #                A,MARKSTAT,EBANK
000486:                                                                                                  #        2)      FOR NORMAL MARKING-
000487:                                                                                                  #                A,MARKSTAT,ITEMP1,QPRET
000488:
000489: 07,2300           34675        MKREJECT           CAF      BIT14
000490: 07,2301           70076                           MASK     STATE      +2                         #  R21 MARK (SPECIAL MARKING FOR R21)
000491: 07,2302           00006                           EXTEND
000492: 07,2303           12307                           BZF      MRKREJCT                              #  NOT SET THEREFORE REGULAR REJECT
000493: 07,2304           37716                           CA       NEGONE                                #  -1 (FOR R22)
000494: 07,2305           55725                           TS       MRKBUF1                               #  -0 IN TIME IS FLAG TO R22 SIGNIFYING A
000495: 07,2306           05222                           TC       RESUME                                #  REJECTED MARK
000496: 07,2307           11330        MRKREJCT           CCS      MARKSTAT                              #  SEE IF MARKS BEING ACCEPTED
000497: 07,2310           02314                           TC       REJECT2
000498: 07,2311           05537                           TC       ALARM                                 #  MARKS NOT BEING ACCEPTED
000499: 07,2312           00112                           OCT      112
000500: 07,2313           05222                           TC       RESUME
000501:
000502: 07,2314           44701        REJECT2            CS       BIT10                                 #  SEE IF MARK HAD BEEN MADE SINCE LAST
000503: 07,2315           71330                           MASK     MARKSTAT                              #  REJECT, AND SET BIT10 TO ZERO TO
000504: 07,2316           57330                           XCH      MARKSTAT                              #  SHOW MARK REJECT


000506: 07,2317           74701                           MASK     BIT10
000507: 07,2320           10000                           CCS      A
000508: 07,2321           02325                           TC       REJECT3
000509:
000510: 07,2322           05537                           TC       ALARM                                 #  DONT ACCEPT TWO REJECTS TOGETHER
000511: 07,2323           00110                           OCT      110
000512: 07,2324           05222                           TC       RESUME
000513:
000514: 07,2325           34741        REJECT3            CAF      LOW9                                  #  DECREMENT POINTER TO REJECT MARK
000515: 07,2326           71330                           MASK     MARKSTAT
000516: 07,2327           54061                           TS       ITEMP1
000517: 07,2330           44716                           CS       SEVEN
000518: 07,2331           50061                           INDEX    ITEMP1
000519: 07,2332           26052                           ADS      QPRET                                 #  NEW POINTER
000520:
000521: 07,2333           34677                           CAF      BIT12                                 #  INCREMENT MARKS WANTED AND IF FIELD
000522: 07,2334           61330                           AD       MARKSTAT                              #  IS NOW NON-ZERO, CHANGE TO VB51 TO
000523: 07,2335           57330                           XCH      MARKSTAT                              #  INDICATE MORE MARKS WANTED
000524: 07,2336           77671                           MASK     PRIO34                                #  INDICATE MORE MARKS WANTED
000525: 07,2337           10000                           CCS      A
000526: 07,2340           05222                           TC       RESUME
000527: 07,2341           37667                           CAF      PRIO32
000528: 07,2342           05027                           TC       NOVAC
000529: 07,2343     1330                                  EBANK=   MARKSTAT
000530: 07,2343           02346 16062                     2CADR    MKVB51
000531:
000532: 07,2345           05222                           TC       RESUME
000533:


000535:                                                                                                  #  PROGRAM DESCRIPTION MKVB51 AND MKVB50
000536:
000537:                                                                                                  #  AUTHOR-       BARNERT         DATE-2-15-67            MOD-0
000538:                                                                                                  #  PURPOSE       FLASH V51N70,V51N43, OR V51 TO REQUEST MARKING,
000539:                                                                                                  #                AND V50N25 R1=16 TO REQUEST TERMINATE MARKING
000540:
000541:                                                                                                  #  CALLING SEQUENCE      AS JOB WITHIN SXTMARK
000542:
000543:                                                                                                  #  EXIT TO ENDMARK UPON RECEIPT OF V33, V34 CAUSES GOTOPOOH, ENTER
000544:                                                                                                  #        RECYCLES THE DISPLAY
000545:
000546:                                                                                                  #  NOTE- SXTMARK AUTOMATICALLY CHANGES FROM CALLING MKVB51 TO MKVB50 WHEN
000547:                                                                                                  #        SUFFICIENT MARKS HAVE BEEN MADE, AND THE REVERSE WHEN A MARK
000548:                                                                                                  #        REJECT REDUCES THE NUMBER MADE BELOW THAT REQUIRED
000549:
000550:                                                                                                  #  SUBROUTINES CALLED-  BANKCALL, GOMARK2, GOODEND, ENDMARK, WAITLIST
000551:
000552:                                                                                                  #  ALARM OR ABORT MODES -  NONE
000553:
000554:                                                                                                  #  ERASABLE USED-VERBREG, MARKSTAT, QPRET, DSPTEM1
000555:
000556:                                                                                                  #  OUTPUT MARKSTAT = VAC ADDRESS
000557:
000558:                                                                                                  #  QPRET = NO. MARKS
000559:
000560: 07,2346           04555        MKVB51             TC       BANKCALL                              #  CLEAR DISPLAY FOR MARK VERB
000561: 07,2347           20464                           CADR     KLEENEX
000562: 07,2350           32426                           CAF      VB51                                  #  DISPLAY MARK VB51
000563: 07,2351           04555                           TC       BANKCALL
000564: 07,2352           20476                           CADR     GOMARK4
000565: 07,2353           12356                           TCF      TERMSXT                               #  VB34-TERMINATE
000566: 07,2354           12367                           TCF      ENTANSWR                              #  V33-PROCEED-MARKING DONE
000567: 07,2355           12415                           TCF      MKVB5X                                #  ENTER-RECYCLE TO INITIAL MARK DISPLAY
000568:
000569: 07,2356           05425        TERMSXT            TC       CLEARMRK                              #  CLEAR MARK ACTIVITY.
000570:
000571: 07,2357           05253                           TC       CHECKMM
000572: 07,2360           00003                           MM       03         B-14
000573: 07,2361           12363                           TCF      +2
000574: 07,2362           02365                           TC       TERMP03
000575: 07,2363           04574                           TC       POSTJUMP
000576: 07,2364           30176                           CADR     TERM52
000577:
000578: 07,2365           05435        TERMP03            TC       UPFLAG
000579: 07,2366           00032                           ADRES    TRM03FLG
000580: 07,2367           34741        ENTANSWR           CAF      LOW9                                  #  PUT VAC ADR IN MARKSTAT AND NO. OF
000581: 07,2370           71330                           MASK     MARKSTAT                              #  MARKS MADE IN QPRET BEFORE LEAVING
000582: 07,2371           55330                           TS       MARKSTAT                              #  SXTMARK
000583: 07,2372           40000                           COM
000584: 07,2373           51330                           INDEX    MARKSTAT
000585: 07,2374           60052                           AD       QPRET


000587: 07,2375           00006                           EXTEND
000588: 07,2376           62402                           BZMF     JAMIT                                 #  NO MARKS MADE, SHOW IT IN QPRET, R53
000589: 07,2377           00006                           EXTEND                                         #        WILL PICK IT UP AND RECYCLE
000590: 07,2400           74677                           MP       BIT12                                 #  THIS PUTS NUMBER MARKS-1 IN A
000591: 07,2401           64712                           AD       ONE
000592: 07,2402           51330        JAMIT              INDEX    MARKSTAT                              #  STORE NO OF MARKS MADE
000593: 07,2403           54052                           TS       QPRET
000594: 07,2404           00004                           INHINT                                         #  SERVICE OPTSTALL INTERFACE WITH
000595: 07,2405           34715                           CAF      FIVE
000596: 07,2406           05140                           TC       WAITLIST
000597: 07,2407     1330                                  EBANK=   MARKSTAT
000598: 07,2407           02412 16062                     2CADR    ENDMARKS
000599:
000600: 07,2411           05423                           TC       ENDMARK                               #  KNOCKS DOWN MARKING FLAG + DOES ENDOFJOB
000601:
000602: 07,2412           34712        ENDMARKS           CAF      ONE
000603: 07,2413           04633                           TC       IBNKCALL
000604: 07,2414           17467                           CADR     GOODEND
000605: 07,2415           37671        MKVB5X             CAF      PRIO34
000606: 07,2416           71330                           MASK     MARKSTAT                              #  RE-DISPLAY VB51 IF MORE MARKS WANTED
000607: 07,2417           10000                           CCS      A                                     #  AND VB50 IF ALL IN
000608: 07,2420           12346                           TCF      MKVB51
000609: 07,2421           34333        MKVB50             CAF      R1D1                                  #  OCT 16
000610: 07,2422           55045                           TS       DSPTEM1
000611: 07,2423           32425                           CAF      V50N25
000612: 07,2424           12351                           TCF      MKVB51     +3
000613:
000614: 07,2425           14431        V50N25             VN       5025
000615: 07,2426           14600        VB51               VN       5100
000616: 07,2427     4362               OCT37              =        LOW5
000617:
000618:                                                                                                  #  PROGRAM NAME - MARKIT                         DATE- 19 SEPT 1967
000619:
000620:                                                                                                  #  CALLING SEQUENCE
000621:
000622:                                                                                                  #        FROM MARKRUPT IF CHAN 16 BIT 6 = 1
000623:
000624:                                                                                                  #  EXIT
000625:
000626:                                                                                                  #        RESUME
000627:
000628:                                                                                                  #  INPUT
000629:
000630:                                                                                                  #        CDUCHKWD.  ALSO ALL INITIALIZATION FOR MARKCONT
000631:
000632:                                                                                                  #  OUTPUT
000633:
000634:                                                                                                  #        MKT2T1,MKCDUX,MKCDUY,MKCDUZ,MKCDUS,MKCDUT
000635:
000636:                                                                                                  #  ALARM EXIT
000637:
000638:                                                                                                  #        NONE
000639:
000640: 07,2427           11341        MARKIT             CCS      CDUCHKWD
000641: 07,2430           12433                           TCF      +3                                    #  DELAY OF CDUCHKWD CS IF PNZ


000643: 07,2431           12433                           TCF      +2
000644: 07,2432           34714                           CAF      ZERO
000645: 07,2433           64712                           AD       ONE                                   #  10 MS IF NO CHECK
000646: 07,2434           05140                           TC       WAITLIST
000647: 07,2435  E7,1725                                  EBANK=   MRKBUF1
000648: 07,2435           02203 20067                     2CADR    MARKDIF
000649:
000650: 07,2437           15222                           TCF      RESUME
000651:
000652: 10,2000                                           SETLOC   SXTMARK1
000653: 10,2000                                           BANK
000654:
000655: 10,2203                                           COUNT    20/SXTMK
000656:
000657:                                                                                                  #  PROGRAM NAME - MARKDIF                        DATE-  19 SEPT 1967
000658:
000659:                                                                                                  #  CALLING SEQUENCE
000660:
000661:                                                                                                  #        WAITLIST FROM MARKIT
000662:
000663:                                                                                                  #  EXIT
000664:
000665:                                                                                                  #        TASKOVER OT IBNKCALL TO MARKCONT
000666:
000667:                                                                                                  #  INPUT
000668:
000669:                                                                                                  #        OUTPUT FROM MARKIT, INPUT TO MARKCONT, CDUCHKWD
000670:
000671:                                                                                                  #  OUTPUT
000672:
000673:                                                                                                  #        RUPTSTOR - RUPTSTOR+3, RUPTREG3, RUPTSTOR+5 - RUPTSTOR+6
000674:
000675:                                                                                                  #  ALARM EXIT
000676:
000677:                                                                                                  #        ALARM AND TASKOVER
000678:
000679: 10,2203           31341        MARKDIF            CA       CDUCHKWD                              #  IF DELAY CHECK IS ZERO OR NEG, ACP MARK
000680: 10,2204           00006                           EXTEND
000681: 10,2205           62216                           BZMF     MKACPT
000682: 10,2206           44712                           CS       BIT1
000683: 10,2207           54354                           TS       MKNDX                                 #  SET INDEX -1
000684: 10,2210           30363                           CA       MKCDUX
000685: 10,2211           02220                           TC       DIFCHK                                #  SEE IF VEHICLE RATE TO MUCH AT MARK
000686: 10,2212           30357                           CA       MKCDUY
000687: 10,2213           02220                           TC       DIFCHK
000688: 10,2214           30361                           CA       MKCDUZ
000689: 10,2215           02220                           TC       DIFCHK
000690:
000691: 10,2216           04633        MKACPT             TC       IBNKCALL
000692: 10,2217           16152                           CADR     MARKCONT                              #  MARK DATA OK, WHAT DO WE DO WITH IT
000693:
000694: 10,2220           24354        DIFCHK             INCR     MKNDX                                 #  INCREMENT INDEX
000695:
000696: 10,2221           00006                           EXTEND
000697: 10,2222           50354                           INDEX    MKNDX


000699: 10,2223           20032                           MSU      CDUX                                  #  GET MARK(ICDU) - CURRENT(ICDU)
000700: 10,2224           10000                           CCS      A
000701: 10,2225           12231                           TCF      +4
000702: 10,2226           00002                           TC       Q
000703: 10,2227           12231                           TCF      +2
000704: 10,2230           00002                           TC       Q
000705: 10,2231           67715                           AD       NEG2                                  #  SEE IF DIFFERENCE GREATER THAN 3 BITS
000706: 10,2232           00006                           EXTEND
000707: 10,2233           62230                           BZMF     -3                                    #  NOT GREATER
000708:
000709: 10,2234           05537                           TC       ALARM                                 #  COUPLED WITH PROGRAM ALARM
000710: 10,2235           00121                           OCT      00121
000711:
000712: 10,2236           15213                           TCF      TASKOVER                              #  DO NOT ACCEPT
000713:

End of include-file SXTMARK.agc.  Parent file is MAIN.agc


