
Source Code
000001:                                                                                                 #  Copyright:     Public domain.
000002:                                                                                                 #  Filename:      SYSTEM_TEST_STANDARD_LEAD_INS.agc
000003:                                                                                                 #  Purpose:       Part of the source code for Colossus, build 249.
000004:                                                                                                 #                 It is part of the source code for the Command Module's (CM)
000005:                                                                                                 #                 Apollo Guidance Computer (AGC), possibly for Apollo 8 and 9.
000006:                                                                                                 #  Assembler:     yaYUL
000007:                                                                                                 #  Reference:     pp. 415-417 of 1701.pdf.
000008:                                                                                                 #  Contact:       Ron Burkey <info@sandroid.org>.
000009:                                                                                                 #  Website:       www.ibiblio.org/apollo.
000010:                                                                                                 #  Mod history:   08/07/04 RSB.   Adapted from similar Luminary 131 file.
000011:
000012:                                                                                                 #  The contents of the "Colossus249" files, in general, are transcribed
000013:                                                                                                 #  from a scanned document obtained from MIT's website,
000014:                                                                                                 #  http://hrst.mit.edu/hrs/apollo/public/archive/1701.pdf.  Notations on this
000015:                                                                                                 #  document read, in part:
000016:
000017:                                                                                                 #         Assemble revision 249 of AGC program Colossus by NASA
000018:                                                                                                 #         2021111-041.  October 28, 1968.
000019:
000020:                                                                                                 #         This AGC program shall also be referred to as
000021:                                                                                                 #                                 Colossus 1A
000022:
000023:                                                                                                 #         Prepared by
000024:                                                                                                 #                         Massachussets Institute of Technology
000025:                                                                                                 #                         75 Cambridge Parkway
000026:                                                                                                 #                         Cambridge, Massachusetts
000027:                                                                                                 #         under NASA contract NAS 9-4065.
000028:
000029:                                                                                                 #  Refer directly to the online document mentioned above for further information.
000030:                                                                                                 #  Please report any errors (relative to 1701.pdf) to info@sandroid.org.
000031:
000032:                                                                                                 #  In some cases, where the source code for Luminary 131 overlaps that of
000033:                                                                                                 #  Colossus 249, this code is instead copied from the corresponding Luminary 131
000034:                                                                                                 #  source file, and then is proofed to incorporate any changes.
000035:
000036:                                                                                                 #  Page 415
000037: 22,3310  E5,1671                                 EBANK=   XSM
000038:
000039: 33,2000                                          BANK     33
000040: 04,2000                                          SETLOC   E/PROG
000041: 04,2000                                          BANK
000042:
000043: 04,2557                                          COUNT*   $$/P07
000044:
000045:                                                                                                 #  SPECIAL PROGRAMS TO EASE THE PANGS OF ERASABLE MEMORY PROGRAMS.
000046:
000047:                                                                                                 #  E/BKCALL       FOR DOING BANKCALLS FROM AND RETURNING TO ERASABLE.
000048:
000049:                                                                                                 #  THIS ROUTINE IS CALLABLE FROM ERASABLE OR FIXED.  LIKE BANKCALL, HOWEVER, SWITCHING BETWEEN S3 AND S4
000050:                                                                                                 #  IS NOT POSSIBLE.
000051:
000052:                                                                                                 #  THE CALLING SEQUENCE IS
000053:
000054:                                                                                                 #         TC      BANKCALL
000055:                                                                                                 #         CADR    E/BKCALL
000056:                                                                                                 #         CADR    ROUTINE         # WHERE TO WANT TO GO IN FIXED.
000057:                                                                                                 #         RETURN HERE FROM DISPLAY TERMINATE, BAD STALL OR TC Q.
000058:                                                                                                 #         RETURN HERE FROM DISPLAY PROCEED OR GOOD RETURN FROM STALL.
000059:                                                                                                 #         RETURN HERE FROM DISPLAY ENTER OR RECYCLE.
000060:
000061:                                                                                                 #  THIS ROUTINE REQUIRES TWO ERASABLES (EBUF2, +1) IN UNSWITCHED WHICH ARE UNSHARED BY INTERRUPTS AND
000062:                                                                                                 #  OTHER EMEMORY PROGRAMS.
000063:
000064:                                                                                                 #  A + L ARE PRESERVED THROUGH BANKCALL AND E/BKCALL.
000065:
000066: 04,2557           52134        E/BKCALL          DXCH     BUF2                                  #  SAVE A,L AND GET DP RETURN
000067: 04,2560           52365                          DXCH     EBUF2                                 #  SAVE DP RETURN.
000068: 04,2561           24364                          INCR     EBUF2                                 #  RETURN +1 BECAUSE DOUBLE CADR.
000069: 04,2562           30006                          CA       BBANK
000070: 04,2563           74747                          MASK     LOW10                                 #  GET CURRENT EBANK.  (SBANK SOMEDAY)
000071: 04,2564           26365                          ADS      EBUF2      +1                         #  FORM BBCON.  (WAS FBANK)
000072: 04,2565           50364                          NDX      EBUF2
000073: 04,2566           27777                          CA       0          -1                         #  GET CADR OF ROUTINE.
000074: 04,2567           04561                          TC       SWCALL                                #  GO TO ROUTINE, SETTING Q TO SWRETURN
000075:                                                                                                 #  AND RESTORING A + L.
000076: 04,2570           02574                          TC       +4                                    #  TX Q, V34, OR BADD STALL RETURN.
000077: 04,2571           02573                          TC       +2                                    #  PROCEED OR GOOD STALL RETURN.
000078: 04,2572           24364                          INCR     EBUF2                                 #  ENTER OR RECYCLE RETURN
000079: 04,2573           24364                          INCR     EBUF2
000080: 04,2574           52365        E/SWITCH          DXCH     EBUF2
000081: 04,2575           52006                          DTCB
000082:
000083:                                                                                                 #  Page 416
000084:                                                                                                 #  E/CALL FOR CALLING A FIXED MEMORY INTERPRETIVE SUBROUTINE FROM ERASABLE AND RETURNING TO ERASABLE.
000085:
000086:                                                                                                 #  THE CALLING SEQUENCE IS...
000087:
000088:                                                                                                 #         RTB
000089:                                                                                                 #                 E/CALL
000090:                                                                                                 #         CADR    ROUTINE                 # THE INTERPRETIVE SUBROUTINE YOU WANT
000091:                                                                                                 #                                         # RETURNS HERE IN INTERPRETIVE.
000092:
000093: 04,2576           22164        E/CALL            LXCH     LOC                                   #  ADRES -1 OF CADR.
000094: 04,2577           50001                          INDEX    L
000095: 04,2600           30001                          CA       L                                     #  CADR IN A.
000096: 04,2601           24001                          INCR     L
000097: 04,2602           24001                          INCR     L                                     #  RETURN ADRES IN L.
000098: 04,2603           52365                          DXCH     EBUF2                                 #  STORE CADR AND RETURN
000099: 04,2604           06006                          TC       INTPRET
000100: 04,2605           77624                          CALL
000101: 04,2606           00364                                   EBUF2                                 #  INDIRECTLY EXECUTE ROUTING.  IT MUST
000102: 04,2607           77776                          EXIT                                           #  LEAVE VIA RVQ OR EQUIVALENT.
000103: 04,2610           22365                          LXCH     EBUF2      +1                         #  PICK UP RETURN.
000104: 04,2611           16010                          TCF      INTPRET    +2                         #  SET LOC AND RETURN TO CALLER.
000105:
000106:                                                                                                 #  Page 417
000107:                                                                                                 #  E/JOBWAK       FOR WAKING UP ERASABLE MEMORY JOBS.
000108:
000109:                                                                                                 #  THIS ROUTINE MUST BE CALLED IN INTERRUPT OR WITH INTERRUPTS INHIBITED.
000110:
000111:                                                                                                 #  THE CALLING SEQUENCE IS
000112:
000113:                                                                                                 #         INHINT
000114:                                                                                                 #         ...
000115:                                                                                                 #         CA      WAKEADR         # ADDRESS OF SLEEPING JOB
000116:                                                                                                 #         TC      IBNKCALL
000117:                                                                                                 #         CADR    E/JOBWAK
000118:                                                                                                 #         ...                     # RETURNS HERE
000119:                                                                                                 #         RELINT                  # IF YOU DID AND INHINT
000120:
000121: 33,2000                                          BANK     33
000122: 04,2000                                          SETLOC   E/PROG
000123: 04,2000                                          BANK
000124:
000125: 04,2612                                          COUNT*   $$/P07
000126:
000127: 04,2612           05074        E/JOBWAK          TC       JOBWAKE                               #  ARRIVE WITH ADRES IN A (?garbled)
000128: 04,2613           44700                          CS       BIT11
000129: 04,2614           50064                          NDX      LOCCTR
000130: 04,2615           26164                          ADS      LOC                                   #  KNOCK FIXED MEMORY BIT OUT OF ADRES.
000131: 04,2616           00072                          TC       RUPTREG3                              #  RETURN
000132:
000133:                                                                                                 #  THESE PROGRAMS ARE PROVIDED TO ALLOW OVERLAY OF BANKS 30 THRU 33 OF THE 205 VERSIONS OF SYSTEM TESTS AND
000134:                                                                                                 #  PRELAUNCH ALIGN.  THE INTENT IS TO ALLOW THE STG AND HYBRID LABS TO RUN ALL THE TESTS WITH COLOSSUS.
000135:
000136: 33,2000                                          BANK     33
000137: 33,2000                                          SETLOC   TESTLEAD
000138: 33,2000                                          BANK
000139:
000140: 33,2000                                          COUNT    33/COMST
000141:
000142: 33,2000  E5,1425                                 EBANK=   QPLACE
000143:
000144: 33,2000           03425        COMPVER           TC       GCOMPVER                              #  MUST BE 33,2000.
000145:
000146: 33,2001           03132        GTSCPSS1          TC       GTSCPSS                               #  MUST BE AT 33,2001
000147:
000148: 33,2002           05243        REDO              TC       NEWMODEX                              #  DISPLAY MM 07.
000149: 33,2003           00007                          MM       07         B-14                       #  FALL INTO IMUTEST
000150:

End of include-file SYSTEM_TEST_STANDARD_LEAD_INS.agc.  Parent file is MAIN.agc


