
Source Code


000002:                                                                                                  #  Copyright:    Public domain.
000003:                                                                                                  #  Filename:     SYSTEM_TEST_STANDARD_LEAD_INS.agc
000004:                                                                                                  #  Purpose:      Part of the source code for Colossus, build 249.
000005:                                                                                                  #                It is part of the source code for the Command Module's (CM)
000006:                                                                                                  #                Apollo Guidance Computer (AGC), possibly for Apollo 8 and 9.
000007:                                                                                                  #  Assembler:    yaYUL
000008:                                                                                                  #  Reference:    pp. 415-417 of 1701.pdf.
000009:                                                                                                  #  Contact:      Ron Burkey <info@sandroid.org>.
000010:                                                                                                  #  Website:      www.ibiblio.org/apollo.
000011:                                                                                                  #  Mod history:  08/07/04 RSB.   Adapted from similar Luminary 131 file.
000012:
000013:                                                                                                  #  The contents of the "Colossus249" files, in general, are transcribed
000014:                                                                                                  #  from a scanned document obtained from MIT's website,
000015:                                                                                                  #  http://hrst.mit.edu/hrs/apollo/public/archive/1701.pdf.  Notations on this
000016:                                                                                                  #  document read, in part:
000017:
000018:                                                                                                  #        Assemble revision 249 of AGC program Colossus by NASA
000019:                                                                                                  #        2021111-041.  October 28, 1968.
000020:
000021:                                                                                                  #        This AGC program shall also be referred to as
000022:                                                                                                  #                                Colossus 1A
000023:
000024:                                                                                                  #        Prepared by
000025:                                                                                                  #                        Massachusetts Institute of Technology
000026:                                                                                                  #                        75 Cambridge Parkway
000027:                                                                                                  #                        Cambridge, Massachusetts
000028:                                                                                                  #        under NASA contract NAS 9-4065.
000029:
000030:                                                                                                  #  Refer directly to the online document mentioned above for further information.
000031:                                                                                                  #  Please report any errors (relative to 1701.pdf) to info@sandroid.org.
000032:
000033:                                                                                                  #  In some cases, where the source code for Luminary 131 overlaps that of
000034:                                                                                                  #  Colossus 249, this code is instead copied from the corresponding Luminary 131
000035:                                                                                                  #  source file, and then is proofed to incorporate any changes.
000036:
000037:                                                                                                  #  Page 415
000038: 22,3310  0002671                                  EBANK=   XSM
000039:
000040: 33,2000                                           BANK     33
000041: 04,2000                                           SETLOC   E/PROG
000042: 04,2000                                           BANK
000043:
000044: 04,2557                                           COUNT*   $$/P07
000045:
000046:                                                                                                  #  SPECIAL PROGRAMS TO EASE THE PANGS OF ERASABLE MEMORY PROGRAMS.
000047:
000048:                                                                                                  #  E/BKCALL      FOR DOING BANKCALLS FROM AND RETURNING TO ERASABLE.
000049:
000050:                                                                                                  #  THIS ROUTINE IS CALLABLE FROM ERASABLE OR FIXED.  LIKE BANKCALL, HOWEVER, SWITCHING BETWEEN S3 AND S4
000051:                                                                                                  #  IS NOT POSSIBLE.
000052:
000053:                                                                                                  #  THE CALLING SEQUENCE IS
000054:
000055:                                                                                                  #        TC      BANKCALL
000056:                                                                                                  #        CADR    E/BKCALL
000057:                                                                                                  #        CADR    ROUTINE         # WHERE TO WANT TO GO IN FIXED.
000058:                                                                                                  #        RETURN HERE FROM DISPLAY TERMINATE, BAD STALL OR TC Q.
000059:                                                                                                  #        RETURN HERE FROM DISPLAY PROCEED OR GOOD RETURN FROM STALL.
000060:                                                                                                  #        RETURN HERE FROM DISPLAY ENTER OR RECYCLE.
000061:
000062:                                                                                                  #  THIS ROUTINE REQUIRES TWO ERASABLES (EBUF2, +1) IN UNSWITCHED WHICH ARE UNSHARED BY INTERRUPTS AND
000063:                                                                                                  #  OTHER EMEMORY PROGRAMS.
000064:
000065:                                                                                                  #  A + L ARE PRESERVED THROUGH BANKCALL AND E/BKCALL.
000066:
000067: 04,2557           52134        E/BKCALL           DXCH     BUF2                                  #  SAVE A,L AND GET DP RETURN
000068: 04,2560           52365                           DXCH     EBUF2                                 #  SAVE DP RETURN.
000069: 04,2561           24364                           INCR     EBUF2                                 #  RETURN +1 BECAUSE DOUBLE CADR.
000070: 04,2562           30006                           CA       BBANK
000071: 04,2563           74747                           MASK     LOW10                                 #  GET CURRENT EBANK.  (SBANK SOMEDAY)
000072: 04,2564           26365                           ADS      EBUF2      +1                         #  FORM BBCON.  (WAS FBANK)
000073: 04,2565           50364                           NDX      EBUF2
000074: 04,2566           27777                           CA       0          -1                         #  GET CADR OF ROUTINE.
000075: 04,2567           04561                           TC       SWCALL                                #  GO TO ROUTINE, SETTING Q TO SWRETURN
000076:                                                                                                  #  AND RESTORING A + L.
000077: 04,2570           02574                           TC       +4                                    #  TX Q, V34, OR BADD STALL RETURN.
000078: 04,2571           02573                           TC       +2                                    #  PROCEED OR GOOD STALL RETURN.
000079: 04,2572           24364                           INCR     EBUF2                                 #  ENTER OR RECYCLE RETURN
000080: 04,2573           24364                           INCR     EBUF2
000081: 04,2574           52365        E/SWITCH           DXCH     EBUF2
000082: 04,2575           52006                           DTCB
000083:
000084:                                                                                                  #  Page 416
000085:                                                                                                  #  E/CALL        FOR CALLING A FIXED MEMORY INTERPRETIVE SUBROUTINE FROM ERASABLE AND RETURNING TO ERASABLE.
000086:
000087:                                                                                                  #  THE CALLING SEQUENCE IS...
000088:
000089:                                                                                                  #        RTB
000090:                                                                                                  #                E/CALL
000091:                                                                                                  #        CADR    ROUTINE                 # THE INTERPRETIVE SUBROUTINE YOU WANT
000092:                                                                                                  #                                        # RETURNS HERE IN INTERPRETIVE.
000093:
000094: 04,2576           22164        E/CALL             LXCH     LOC                                   #  ADRES -1 OF CADR.
000095: 04,2577           50001                           INDEX    L
000096: 04,2600           30001                           CA       L                                     #  CADR IN A.
000097: 04,2601           24001                           INCR     L
000098: 04,2602           24001                           INCR     L                                     #  RETURN ADRES IN L.
000099: 04,2603           52365                           DXCH     EBUF2                                 #  STORE CADR AND RETURN
000100: 04,2604           06006                           TC       INTPRET
000101: 04,2605           77624                           CALL
000102: 04,2606           00364                                    EBUF2                                 #  INDIRECTLY EXECUTE ROUTING.  IT MUST
000103: 04,2607           77776                           EXIT                                           #  LEAVE VIA RVQ OR EQUIVALENT.
000104: 04,2610           22365                           LXCH     EBUF2      +1                         #  PICK UP RETURN.
000105: 04,2611           16010                           TCF      INTPRET    +2                         #  SET LOC AND RETURN TO CALLER.
000106:
000107:                                                                                                  #  Page 417
000108:                                                                                                  #  E/JOBWAK      FOR WAKING UP ERASABLE MEMORY JOBS.
000109:
000110:                                                                                                  #  THIS ROUTINE MUST BE CALLED IN INTERRUPT OR WITH INTERRUPTS INHIBITED.
000111:
000112:                                                                                                  #  THE CALLING SEQUENCE IS
000113:
000114:                                                                                                  #        INHINT
000115:                                                                                                  #        ...
000116:                                                                                                  #        CA      WAKEADR         # ADDRESS OF SLEEPING JOB
000117:                                                                                                  #        TC      IBNKCALL
000118:                                                                                                  #        CADR    E/JOBWAK
000119:                                                                                                  #        ...                     # RETURNS HERE
000120:                                                                                                  #        RELINT                  # IF YOU DID AND INHINT
000121:
000122: 33,2000                                           BANK     33
000123: 04,2000                                           SETLOC   E/PROG
000124: 04,2000                                           BANK
000125:
000126: 04,2612                                           COUNT*   $$/P07
000127:
000128: 04,2612           05074        E/JOBWAK           TC       JOBWAKE                               #  ARRIVE WITH ADRES IN A (?garbled)
000129: 04,2613           44700                           CS       BIT11
000130: 04,2614           50064                           NDX      LOCCTR
000131: 04,2615           26164                           ADS      LOC                                   #  KNOCK FIXED MEMORY BIT OUT OF ADRES.
000132: 04,2616           00072                           TC       RUPTREG3                              #  RETURN
000133:
000134:                                                                                                  #  THESE PROGRAMS ARE PROVIDED TO ALLOW OVERLAY OF BANKS 30 THRU 33 OF THE 205 VERSIONS OF SYSTEM TESTS AND
000135:                                                                                                  #  PRELAUNCH ALIGN.  THE INTENT IS TO ALLOW THE STG AND HYBRID LABS TO RUN ALL THE TESTS WITH COLOSSUS.
000136:
000137: 33,2000                                           BANK     33
000138: 33,2000                                           SETLOC   TESTLEAD
000139: 33,2000                                           BANK
000140:
000141: 33,2000                                           COUNT    33/COMST
000142:
000143: 33,2000  E5,1425                                  EBANK=   QPLACE
000144:
000145: 33,2000           03425        COMPVER            TC       GCOMPVER                              #  MUST BE 33,2000.
000146:
000147: 33,2001           03132        GTSCPSS1           TC       GTSCPSS                               #  MUST BE AT 33,2001
000148:
000149: 33,2002           05243        REDO               TC       NEWMODEX                              #  DISPLAY MM 07.
000150: 33,2003           00007                           MM       07         B-14                       #  FALL INTO IMUTEST
000151:

End of include-file SYSTEM_TEST_STANDARD_LEAD_INS.agc.  Parent file is MAIN.agc


