
Source Code


000002:                                                                                                  ## Copyright:   Public domain.
000003:                                                                                                  ## Filename:    SYSTEM_TEST_STANDARD_LEAD_INS.agc
000004:                                                                                                  ## Purpose:     Part of the source code for Colossus, build 249.
000005:                                                                                                  ##              It is part of the source code for the Command Module's (CM)
000006:                                                                                                  ##              Apollo Guidance Computer (AGC), for Apollo 9.
000007:                                                                                                  ## Assembler:   yaYUL
000008:                                                                                                  ## Reference:   pp. 413-415.
000009:                                                                                                  ## Contact:     Ron Burkey <info@sandroid.org>.
000010:                                                                                                  ## Website:     www.ibiblio.org/apollo.
000011:                                                                                                  ## Mod history: 08/07/04 RSB.   Adapted from similar Luminary 131 file.
000012:                                                                                                  ##              2017-01-06 RSB  Page numbers now agree with those on the
000013:                                                                                                  ##                              original harcopy, as opposed to the PDF page
000014:                                                                                                  ##                              numbers in 1701.pdf.
000015:                                                                                                  ##              2017-01-20 RSB  Cross-diff'd comment text (not whitespace)
000016:                                                                                                  ##                              vs the already-proofed corresponding Colossus
000017:                                                                                                  ##                              237 and Comanche 55 source-code files
000018:                                                                                                  ##                              and corrected errors found.
000019:                                                                                                  ##
000020:                                                                                                  ## The contents of the "Colossus249" files, in general, are transcribed
000021:                                                                                                  ## from a scanned copy of the program listing.  Notations on this
000022:                                                                                                  ## document read, in part:
000023:                                                                                                  ##
000024:                                                                                                  ##      Assemble revision 249 of AGC program Colossus by NASA
000025:                                                                                                  ##      2021111-041.  October 28, 1968.
000026:                                                                                                  ##
000027:                                                                                                  ##      This AGC program shall also be referred to as
000028:                                                                                                  ##                              Colossus 1A
000029:                                                                                                  ##
000030:                                                                                                  ##      Prepared by
000031:                                                                                                  ##                      Massachusetts Institute of Technology
000032:                                                                                                  ##                      75 Cambridge Parkway
000033:                                                                                                  ##                      Cambridge, Massachusetts
000034:                                                                                                  ##      under NASA contract NAS 9-4065.
000035:                                                                                                  ##
000036:                                                                                                  ## Refer directly to the online document mentioned above for further information.
000037:                                                                                                  ## Please report any errors (relative to the scanned pages) to info@sandroid.org.
000038:                                                                                                  ##
000039:                                                                                                  ## In some cases, where the source code for Luminary 131 overlaps that of
000040:                                                                                                  ## Colossus 249, this code is instead copied from the corresponding Luminary 131
000041:                                                                                                  ## source file, and then is proofed to incorporate any changes.
000042:


000044: 22,3310  E5,1671                                  EBANK=   XSM
000045:
000046: 33,2000                                           BANK     33
000047: 04,2000                                           SETLOC   E/PROG
000048: 04,2000                                           BANK
000049:
000050: 04,2557                                           COUNT*   $$/P07
000051:
000052:                                                                                                  #  SPECIAL PROGRAMS TO EASE THE PANGS OF ERASABLE MEMORY PROGRAMS.
000053:
000054:                                                                                                  #  E/BKCALL      FOR DOING BANKCALLS FROM AND RETURNING TO ERASABLE.
000055:
000056:                                                                                                  #  THIS ROUTINE IS CALLABLE FROM ERASABLE OR FIXED.  LIKE BANKCALL, HOWEVER, SWITCHING BETWEEN S3 AND S4
000057:                                                                                                  #  IS NOT POSSIBLE.
000058:
000059:                                                                                                  #  THE CALLING SEQUENCE IS:
000060:
000061:                                                                                                  #        TC      BANKCALL
000062:                                                                                                  #        CADR    E/BKCALL
000063:                                                                                                  #        CADR    ROUTINE         WHERE YOU WANT TO GO IN FIXED.
000064:                                                                                                  #        RETURN HERE FROM DISPLAY TERMINATE, BAD STALL OR TC Q.
000065:                                                                                                  #        RETURN HERE FROM DISPLAY PROCEED OR GOOD RETURN FROM STALL.
000066:                                                                                                  #        RETURN HERE FROM DISPLAY ENTER OR RECYCLE.
000067:
000068:                                                                                                  #  THIS ROUTINE REQUIRES TWO ERASABLES (EBUF2, +1) IN UNSWITCHED WHICH ARE UNSHARED BY INTERRUPTS AND
000069:                                                                                                  #  OTHER EMEMORY PROGRAMS.
000070:
000071:                                                                                                  #  A + L ARE PRESERVED THROUGH BANKCALL AND E/BKCALL.
000072:
000073: 04,2557           52134        E/BKCALL           DXCH     BUF2                                  #  SAVE A,L AND GET DP RETURN.
000074: 04,2560           52365                           DXCH     EBUF2                                 #  SAVE DP RETURN.
000075: 04,2561           24364                           INCR     EBUF2                                 #  RETURN +1 BECAUSE DOUBLE CADR.
000076: 04,2562           30006                           CA       BBANK
000077: 04,2563           74747                           MASK     LOW10                                 #  GET CURRENT EBANK.  (SBANK SOMEDAY)
000078: 04,2564           26365                           ADS      EBUF2      +1                         #  FORM BBCON.  (WAS FBANK)
000079: 04,2565           50364                           NDX      EBUF2
000080: 04,2566           27777                           CA       0          -1                         #  GET CADR OF ROUTINE.
000081: 04,2567           04561                           TC       SWCALL                                #  GO TO ROUTINE, SETTING Q TO SWRETURN
000082:                                                                                                  #  AND RESTORING A + L.
000083: 04,2570           02574                           TC       +4                                    #  TX Q, V34, OR BAD STALL RETURN.
000084: 04,2571           02573                           TC       +2                                    #  PROCEED OR GOOD STALL RETURN.
000085: 04,2572           24364                           INCR     EBUF2                                 #  ENTER OR RECYCLE RETURN.
000086: 04,2573           24364                           INCR     EBUF2
000087: 04,2574           52365        E/SWITCH           DXCH     EBUF2
000088: 04,2575           52006                           DTCB
000089:


000091:                                                                                                  #  E/CALL        FOR CALLING A FIXED MEMORY INTERPRETIVE SUBROUTINE FROM ERASABLE AND RETURNING TO ERASABLE.
000092:
000093:                                                                                                  #  THE CALLING SEQUENCE IS...
000094:
000095:                                                                                                  #        RTB
000096:                                                                                                  #                E/CALL
000097:                                                                                                  #        CADR    ROUTINE                 THE INTERPRETIVE SUBROUTINE YOU WANT.
000098:                                                                                                  #                                        RETURNS HERE IN INTERPRETIVE.
000099:
000100: 04,2576           22164        E/CALL             LXCH     LOC                                   #  ADRES -1 OF CADR.
000101: 04,2577           50001                           INDEX    L
000102: 04,2600           30001                           CA       L                                     #  CADR IN A.
000103: 04,2601           24001                           INCR     L
000104: 04,2602           24001                           INCR     L                                     #  RETURN ADRES IN L.
000105: 04,2603           52365                           DXCH     EBUF2                                 #  STORE CADR AND RETURN.
000106: 04,2604           06006                           TC       INTPRET
000107: 04,2605           77624                           CALL
000108: 04,2606           00364                                    EBUF2                                 #  INDIRECTLY EXECUTE ROUTINE.  IT MUST
000109: 04,2607           77776                           EXIT                                           #  LEAVE VIA RVQ OR EQUIVALENT.
000110: 04,2610           22365                           LXCH     EBUF2      +1                         #  PICK UP RETURN.
000111: 04,2611           16010                           TCF      INTPRET    +2                         #  SET LOC AND RETURB TO CALLER
000112:


000114:                                                                                                  #  E/JOBWAK      FOR WAKING UP ERASABLE MEMORY JOBS.
000115:
000116:                                                                                                  #  THIS ROUTINE MUST BE CALLED IN INTERRUPT OR WITH INTERRUPTS INHIBITED.
000117:
000118:                                                                                                  #  THE CALLING SEQUENCE IS:
000119:
000120:                                                                                                  #        INHINT
000121:                                                                                                  #        .
000122:                                                                                                  #        .
000123:                                                                                                  #        CA      WAKEADR         ADDRESS OF SLEEPING JOB
000124:                                                                                                  #        TC      IBNKCALL
000125:                                                                                                  #        CADR    E/JOBWAK
000126:                                                                                                  #        .                       RETURNS HERE
000127:                                                                                                  #        .
000128:                                                                                                  #        .
000129:                                                                                                  #        RELINT                  IF YOU DID AN INHINT.
000130:
000131: 33,2000                                           BANK     33
000132: 04,2000                                           SETLOC   E/PROG
000133: 04,2000                                           BANK
000134:
000135: 04,2612                                           COUNT*   $$/P07
000136:
000137: 04,2612           05074        E/JOBWAK           TC       JOBWAKE                               #  ARRIVE IWTH ADRES IN A.
000138: 04,2613           44700                           CS       BIT11
000139: 04,2614           50064                           NDX      LOCCTR
000140: 04,2615           26164                           ADS      LOC                                   #  KNOCK FIXED MEMORY BIT OUT OF ADRES.
000141: 04,2616           00072                           TC       RUPTREG3                              #  RETURN
000142:
000143:                                                                                                  #  THESE PROGRAMS ARE PROVIDED TO ALLOW OVERLAY OF BANKS 30 THRU 33 OF THE 205 VERSIONS OF SYSTEM TESTS AND
000144:                                                                                                  #  PRELAUNCH ALIGN.  THE INTENT IS TO ALLOW THE STG AND HYBRID LABS TO RUN ALL THE TESTS WITH COLOSSUS.
000145:
000146: 33,2000                                           BANK     33
000147: 33,2000                                           SETLOC   TESTLEAD
000148: 33,2000                                           BANK
000149:
000150: 33,2000                                           COUNT    33/COMST
000151:
000152: 33,2000  E5,1425                                  EBANK=   QPLACE
000153:
000154: 33,2000           03425        COMPVER            TC       GCOMPVER                              #  MUST BE 33,2000.
000155:
000156: 33,2001           03132        GTSCPSS1           TC       GTSCPSS                               #  MUST BE AT 33,2001
000157:
000158: 33,2002           05243        REDO               TC       NEWMODEX                              #  DISPLAY MM 07.
000159: 33,2003           00007                           MM       07         B-14                       #  FALL INTO IMUTEST
000160:

End of include-file SYSTEM_TEST_STANDARD_LEAD_INS.agc.  Parent file is MAIN.agc


