
Source Code


000002:                                                                                                  ## Copyright:   Public domain.
000003:                                                                                                  ## Filename:    T4RUPT_PROGRAM.agc
000004:                                                                                                  ## Purpose:     Part of the source code for Colossus, build 249.
000005:                                                                                                  ##              It is part of the source code for the Command Module's (CM)
000006:                                                                                                  ##              Apollo Guidance Computer (AGC), for Apollo 9.
000007:                                                                                                  ## Assembler:   yaYUL
000008:                                                                                                  ## Reference:   pp. 129-165
000009:                                                                                                  ## Contact:     Ron Burkey <info@sandroid.org>.
000010:                                                                                                  ## Website:     www.ibiblio.org/apollo.
000011:                                                                                                  ## Mod history: 08/06/04 RSB.   Adapted from similar Luminary 131 file.
000012:                                                                                                  ##              2010-08-29 JL   Fixed indentation.
000013:                                                                                                  ##              2010-10-24 JL   Indentation fixes.
000014:                                                                                                  ##              2017-01-05 RSB  Page numbers now agree with those on the
000015:                                                                                                  ##                              original harcopy, as opposed to the PDF page
000016:                                                                                                  ##                              numbers in 1701.pdf.
000017:                                                                                                  ##              2017-01-20 RSB  Cross-diff'd comment text (not whitespace)
000018:                                                                                                  ##                              vs the already-proofed corresponding Colossus
000019:                                                                                                  ##                              237 and Comanche 55 source-code files
000020:                                                                                                  ##                              and corrected errors found.
000021:                                                                                                  ##              2017-01-26 RSB  Back-ported comment-text fixes found while
000022:                                                                                                  ##                              proofing corresponding Luminary 69 file.
000023:                                                                                                  ##              2017-01-28 RSB  WTIH -> WITH.
000024:                                                                                                  ##              2017-02-08 RSB  Comment-text fixes identified while proofing Artemis 72.
000025:                                                                                                  ##              2017-03-03 RSB  Fixed comment-text errors identified while proofing
000026:                                                                                                  ##                              Luminary 116.
000027:                                                                                                  ##
000028:                                                                                                  ## The contents of the "Colossus249" files, in general, are transcribed
000029:                                                                                                  ## from a scanned copy of the program listing.  Notations on this
000030:                                                                                                  ## document read, in part:
000031:                                                                                                  ##
000032:                                                                                                  ##      Assemble revision 249 of AGC program Colossus by NASA
000033:                                                                                                  ##      2021111-041.  October 28, 1968.
000034:                                                                                                  ##
000035:                                                                                                  ##      This AGC program shall also be referred to as
000036:                                                                                                  ##                              Colossus 1A
000037:                                                                                                  ##
000038:                                                                                                  ##      Prepared by
000039:                                                                                                  ##                      Massachusetts Institute of Technology
000040:                                                                                                  ##                      75 Cambridge Parkway
000041:                                                                                                  ##                      Cambridge, Massachusetts
000042:                                                                                                  ##      under NASA contract NAS 9-4065.
000043:                                                                                                  ##
000044:                                                                                                  ## Refer directly to the online document mentioned above for further information.
000045:                                                                                                  ## Please report any errors (relative to the scanned pages) to info@sandroid.org.
000046:                                                                                                  ##
000047:                                                                                                  ## In some cases, where the source code for Luminary 131 overlaps that of
000048:                                                                                                  ## Colossus 249, this code is instead copied from the corresponding Luminary 131
000049:                                                                                                  ## source file, and then is proofed to incorporate any changes.
000050:


000052: 12,2000                                           BANK     12
000053: 06,2000                                           SETLOC   T4RUP
000054: 06,2000                                           BANK
000055:
000056: 06,2000                                           COUNT    06/T4RPT
000057:
000058: 06,2000           54016        T4RUPT             TS       BANKRUPT
000059: 06,2001           00006                           EXTEND
000060: 06,2002           22012                           QXCH     QRUPT
000061:
000062: 06,2003           11302                           CCS      DSRUPTSW                              #  GOES 7(-1)0 AROUND AND AROUND
000063: 06,2004           12010                           TCF      NORMT4     +1
000064: 06,2005           12007                           TCF      NORMT4
000065:
000066: 06,2006           12136                           TCF      QUIKDSP
000067:
000068: 06,2007           34716        NORMT4             CAF      SEVEN
000069: 06,2010           54070                           TS       RUPTREG1
000070: 06,2011           55302                           TS       DSRUPTSW
000071:
000072: 06,2012                                           COUNT    02/T4RPT
000073:
000074: 06,2012     7711               74K                =        HIGH4
000075:
000076:                                                                                                  #  RELTAB IS A PACKED TABLE. RELAYWORD CODE IN UPPER 4 BITS, RELAY CODE
000077:                                                                                                  #  IN LOWER 5 BITS.
000078:
000079:    4072                                           BLOCK    02
000080:    4000                                           SETLOC   FFTAG12
000081:    4000                                           BANK
000082:
000083:    4072           04025        RELTAB             OCT      04025
000084:    4073           10003                           OCT      10003
000085:    4074           14031                           OCT      14031
000086:    4075           20033                           OCT      20033
000087:    4076           24017                           OCT      24017
000088:    4077           30036                           OCT      30036
000089:    4100           34034                           OCT      34034
000090:    4101           40023                           OCT      40023
000091:    4102           44035                           OCT      44035
000092:    4103           50037                           OCT      50037
000093:    4104           54000                           OCT      54000
000094:    4105           60000        RELTAB11           OCT      60000
000095:


000097:                                                                                                  #  SWITCHED-BANK PORTION.
000098:
000099: 12,2000                                           BANK     12
000100: 06,2000                                           SETLOC   T4RUP
000101: 06,2000                                           BANK
000102:
000103: 06,2012                                           COUNT    06/T4RPT
000104:
000105: 06,2012           11036        CDRVE              CCS      DSPTAB     +11D
000106: 06,2013           02063                           TC       DSPOUT
000107: 06,2014           02063                           TC       DSPOUT
000108:
000109: 06,2015           57036                           XCH      DSPTAB     +11D
000110: 06,2016           74372                           MASK     LOW11
000111: 06,2017           55036                           TS       DSPTAB     +11D
000112: 06,2020           64105                           AD       RELTAB11
000113: 06,2021           00006                           EXTEND
000114: 06,2022           01010                           WRITE    OUT0
000115: 06,2023           02071                           TC       HANG20
000116:


000118:                                                                                                  #  DSPOUT PROGRAM. PUTS OUT DISPLAYS.
000119:
000120: 06,2024           55016        DSPOUTSB           TS       NOUT
000121: 06,2025           44714                           CS       ZERO
000122: 06,2026           54073                           TS       DSRUPTEM                              #  SET TO -0 FOR 1ST PASS THRU DSPTAB
000123: 06,2027           56776                           XCH      DSPCNT
000124: 06,2030           64713                           AD       NEG0                                  #  TO PREVENT +0
000125: 06,2031           54776                           TS       DSPCNT
000126: 06,2032           50776        DSPSCAN            INDEX    DSPCNT
000127: 06,2033           11023                           CCS      DSPTAB
000128: 06,2034           10776                           CCS      DSPCNT                                #  IF DSPTAB ENTRY +, SKIP
000129: 06,2035           12030                           TCF      DSPSCAN    -2                         #  IF DSPCNT +, AGAIN
000130: 06,2036           12047                           TCF      DSPLAY                                #  IF DSPTAB ENTRY -, DISPLAY
000131: 06,2037           00012        TABLNTH            OCT      12                                    #  DEC 10  LENGTH OF DSPTAB
000132: 06,2040           10073                           CCS      DSRUPTEM                              #  IF DSRUPTEM=+0, 2ND PASS THRU DSPTAB
000133: 06,2041           37764        120MRUPT           DEC      16372      B-14                       #  (DSPCNT = 0).  +0 INTO NOUT.
000134: 06,2042           55016                           TS       NOUT
000135: 06,2043           00002                           TC       Q
000136: 06,2044           54073                           TS       DSRUPTEM                              #  IF DSRUPTEM=-0, 1ST PASS THRU DSPTAB
000137: 06,2045           32037                           CAF      TABLNTH                               #  (DSPCNT=0).+0 INTO DSRUPTEM. PASS AGAIN
000138: 06,2046           12031                           TCF      DSPSCAN    -1
000139:
000140: 06,2047           64712        DSPLAY             AD       ONE
000141: 06,2050           50776                           INDEX    DSPCNT
000142: 06,2051           55023                           TS       DSPTAB                                #  REPLACE POSITIVELY
000143: 06,2052           74372                           MASK     LOW11                                 #  REMOVE BITS 12 TO 15
000144: 06,2053           54073                           TS       DSRUPTEM
000145: 06,2054           34364                           CAF      HI5
000146: 06,2055           50776                           INDEX    DSPCNT
000147: 06,2056           74072                           MASK     RELTAB                                #  PICK UP BITS 12 TO 15 OF RELTAB ENTRY
000148: 06,2057           60073                           AD       DSRUPTEM
000149: 06,2060           00006                           EXTEND
000150: 06,2061           01010                           WRITE    OUT0                                  #  WRITE CHANNEL 10
000151:
000152: 06,2062           16706                           TCF      Q+1                                   #  *** NORMAL RETURN SKIPS ONE
000153:
000154: 06,2063           10101        DSPOUT             CCS      FLAGWRD5                              #  DONT DISPLAY UNLESS DSKY FLAG ON
000155: 06,2064           34714                           CAF      ZERO
000156: 06,2065           12132                           TCF      NODSPOUT
000157: 06,2066           11016                           CCS      NOUT
000158: 06,2067           02024                           TC       DSPOUTSB
000159: 06,2070           12132                           TCF      NODSPOUT                              #  NO DISPLAY REQUESTS
000160:
000161: 06,2071           42173        HANG20             CS       11,14,9
000162: 06,2072           27302                           ADS      DSRUPTSW
000163:
000164: 06,2073           37700                           CAF      20MRUPT
000165:
000166: 06,2074           54027        SETTIME4           TS       TIME4
000167:


000169:                                                                                                  #  THE STATUS OF THE PROCEED PUSHBUTTON IS MONITORED EVERY 120 MILLISECONDS VIA THE CHANNEL 32 BIT 14 INBIT.
000170:                                                                                                  #  THE STATE OF THIS INBIT IS COMPARED WITH ITS STATE DURING THE PREVIOUS T4RUPT AND IS PROCESSED AS FOLLOWS.
000171:                                                                                                  #        IF PREV ON AND NOW ON   - BYPASS
000172:                                                                                                  #        IF PREV ON AND NOW OFF  - UPDATE IMODES33
000173:                                                                                                  #        IF PREV OFF AND NOW ON  - UPDATE IMODES33 AND PROCESS VIA PINBALL
000174:                                                                                                  #        IF PREV OFF AND NOW OFF - BYPASS
000175:                                                                                                  #  THE LOGIC EMPLOYED REQUIRES ONLY 9 MCT (APPROX. 108 MICROSECONDS) OF COMPUTER TIME WHEN NO CHANGES OCCUR.
000176:
000177: 06,2075           31321        PROCEEDE           CA       IMODES33                              #  MONITIOR FOR PROCEED BUTTON
000178: 06,2076           00006                           EXTEND
000179: 06,2077           06032                           RXOR     CHAN32                                #  CHECK IF BIT 14 DIFFERENT
000180: 06,2100           74675                           MASK     BIT14
000181: 06,2101           00006                           EXTEND
000182: 06,2102           12116                           BZF      T4JUMP                                #  NO CHANGE
000183:
000184: 06,2103           23321                           LXCH     IMODES33
000185: 06,2104           00006                           EXTEND
000186: 06,2105           06001                           RXOR     LCHAN
000187: 06,2106           55321                           TS       IMODES33                              #  UPDATE IMODES33
000188: 06,2107           74675                           MASK     BIT14
000189: 06,2110           10000                           CCS      A
000190: 06,2111           12116                           TCF      T4JUMP                                #  WAS ON - NOW OFF
000191:
000192: 06,2112           34371                           CAF      CHRPRIO                               #  WAS OFF - NOW ON
000193: 06,2113           05027                           TC       NOVAC
000194: 06,2114     0777                                  EBANK=   DSPCOUNT
000195: 06,2114           03353 60101                     2CADR    PROCKEY
000196:


000198:                                                                                                  #  JUMP TO APPROPRIATE ONCE-PER SECOND (.96 SEC ACTUALLY) ACTIVITY
000199:
000200: 06,2116           50070        T4JUMP             INDEX    RUPTREG1
000201: 06,2117           12120                           TCF      +1
000202:
000203: 06,2120           12130                           TCF      OPTTEST
000204: 06,2121           12765                           TCF      OPTMON
000205: 06,2122           12174                           TCF      IMUMON
000206: 06,2123           15222                           TCF      RESUME
000207: 06,2124           12130                           TCF      OPTTEST
000208: 06,2125           12765                           TCF      OPTMON
000209: 06,2126           12174                           TCF      IMUMON
000210: 06,2127           15222                           TCF      RESUME
000211:
000212: 06,2130           04633        OPTTEST            TC       IBNKCALL
000213: 06,2131           20000                           CADR     OPTDRIVE
000214:
000215: 06,2132     7700               20MRUPT            =        OCT37776                              #  (DEC 16382)
000216:
000217: 06,2132           00006        NODSPOUT           EXTEND                                         #  TURN OFF RELAYS
000218: 06,2133           01010                           WRITE    OUT0
000219:
000220: 06,2134           32041                           CAF      120MRUPT                              # SET FOR NEXT CDRVE
000221: 06,2135           12074                           TCF      SETTIME4
000222:
000223: 06,2136           34675        QUIKDSP            CAF      BIT14
000224: 06,2137           71302                           MASK     DSRUPTSW
000225: 06,2140           00006                           EXTEND
000226: 06,2141           12167                           BZF      QUIKOFF                               #  WROTE LAST TIME, NOW TURN OFF RELAYS.
000227:
000228: 06,2142           11016                           CCS      NOUT
000229: 06,2143           02024                           TC       DSPOUTSB
000230: 06,2144           12154                           TCF      NODSPY                                #  NOUT=0 OR BAD RETURN FROM DSPOUTSB
000231: 06,2145           44675                           CS       BIT14                                 #  GOOD RETURN (WE DISPLAYED SOMETHING)
000232: 06,2146           27302        QUIKRUPT           ADS      DSRUPTSW
000233:
000234: 06,2147           37700                           CAF      20MRUPT
000235: 06,2150           54027                           TS       TIME4
000236:
000237: 06,2151           34702                           CAF      BIT9
000238: 06,2152           27302                           ADS      DSRUPTSW
000239:
000240: 06,2153           05222                           TC       RESUME
000241:
000242: 06,2154           00006        NODSPY             EXTEND
000243: 06,2155           01010                           WRITE    OUT0
000244:
000245: 06,2156           37700        SYNCT4             CAF      20MRUPT
000246: 06,2157           26027                           ADS      TIME4
000247:
000248: 06,2160           34702                           CAF      BIT9


000250: 06,2161           27302                           ADS      DSRUPTSW
000251: 06,2162           11302                           CCS      DSRUPTSW
000252: 06,2163           05222                           TC       RESUME
000253: 06,2164           37737        OCT37737           OCT      37737
000254: 06,2165           02156                           TC       SYNCT4
000255: 06,2166           05222                           TC       RESUME
000256:
000257: 06,2167           00006        QUIKOFF            EXTEND
000258: 06,2170           01010                           WRITE    OUT0
000259: 06,2171           34675                           CAF      BIT14                                 #  RESET DSRUPTSW TO SEND DISPLAY NEXT PASS
000260: 06,2172           12146                           TCF      QUIKRUPT
000261:
000262: 06,2173           22400        11,14,9            OCT      22400
000263:


000265:                                                                                                  #  PROGRAM NAME:  IMUMON
000266:
000267:                                                                                                  #  FUNCTIONAL DESCRIPTION:  THIS PROGRAM IS ENTERED EVERY 480 MS.  IT DETECTS CHANGES OF THE IMU STATUS BITS IN
000268:                                                                                                  #  CHANNEL 30 AND CALLS THE APPROPRIATE SUBROUTINES.  THE BITS PROCESSED AND THEIR RELEVANT SUBROUTINES ARE:
000269:
000270:                                                                                                  #        FUNCTION                BIT     SUBROUTINE CALLED
000271:                                                                                                  #        --------                ---     -----------------
000272:                                                                                                  #        TEMP IN LIMITS           15     TLIM
000273:                                                                                                  #        ISS TURN-ON REQUEST      14     ITURNON
000274:                                                                                                  #        IMU FAIL                 13     IMUFAIL (SETISSW)
000275:                                                                                                  #        IMU CDU FAIL             12     ICDUFAIL (SETISSW)
000276:                                                                                                  #        IMU CAGE                 11     IMUCAGE
000277:                                                                                                  #        IMU OPERATE               9     IMUOP
000278:
000279:                                                                                                  #  THE LAST SAMPLED STATE OF THESE BITS IS LEFT IN IMODES30.  ALSO, EACH SUBROUTINE CALLED FINDS THE NEW
000280:                                                                                                  #  VALUE OF THE BIT IN A, WITH Q SET TO THE PROPER RETURN LOCATION, NXTIFAIL.
000281:
000282:                                                                                                  #  CALLING SEQUENCE:  T4RUPT EVERY 480 MILLISECONDS.
000283:
000284:                                                                                                  #  JOBS OR TASKS INITIATED:  NONE.
000285:
000286:                                                                                                  #  SUBROUTINES CALLED:  TLIM, ITURNON, SETISSW, IMUCAGE, IMUOP.
000287:
000288:                                                                                                  #  ERASABLE INITIALIZATION:
000289:                                                                                                  #        FRESH START OR RESTART WITH NO GROUPS ACTIVE:  C(IMODES30) = OCT 37411.
000290:                                                                                                  #        RESTART WITH ACTIVE GROUPS:     C(IMODES30) = (B(IMODES30)AND(OCT 00035)) PLUS OCT 37400.
000291:                                                                                                  #                                        THIS LEAVES IMU FAIL BITS INTACT.
000292:
000293:                                                                                                  #  ALARMS:  NONE.
000294:
000295:                                                                                                  #  EXIT:  TNONTEST.
000296:
000297:                                                                                                  #  OUTPUT:  UPDATED IMODES30 WITH CHANGES PROCESSED BY APPROPRIATE SUBROUTINE.
000298:
000299: 06,2174           31320        IMUMON             CA       IMODES30                              #  SEE IF THERE HAS BEEN A CHANGE IN THE
000300: 06,2175           00006                           EXTEND                                         #  RELEVANT BITS OF CHAN 30.
000301: 06,2176           06030                           RXOR     CHAN30                                #  CHECK IF BITS 9,11-15 CHANGED
000302: 06,2177           72743                           MASK     30RDMSK
000303: 06,2200           00006                           EXTEND
000304: 06,2201           12231                           BZF      TNONTEST                              #  NO CHANGE IN STATUS.
000305:
000306: 06,2202           54070                           TS       RUPTREG1                              #  SAVE BITS WHICH HAVE CHANGED.
000307: 06,2203           23320                           LXCH     IMODES30                              #  UPDATE IMODES30.
000308: 06,2204           00006                           EXTEND
000309: 06,2205           06001                           RXOR     LCHAN
000310: 06,2206           55320                           TS       IMODES30
000311:
000312: 06,2207           44712                           CS       ONE
000313: 06,2210           56070                           XCH      RUPTREG1
000314: 06,2211           00006                           EXTEND


000316: 06,2212           62507                           BZMF     TLIM                                  #  CHANGE IN IMU TEMP.
000317: 06,2213           12215                           TCF      NXTIFBIT                              #  BEGIN BIT SCAN.
000318:
000319: 06,2214           64712                 -1        AD       ONE                                   #  (RE-ENTERS HERE FROM NXTIFAIL.)
000320: 06,2215           24070        NXTIFBIT           INCR     RUPTREG1                              #  ADVANCE BIT POSITION NUMBER.
000321: 06,2216           60000                 +1        DOUBLE
000322: 06,2217           54000                           TS       A                                     #  SKIP IF OVERFLOW.
000323: 06,2220           12215                           TCF      NXTIFBIT                              #  LOOK FOR BIT.
000324:
000325: 06,2221           56071                           XCH      RUPTREG2                              #  SAVE OVERFLOW-CORRECTED DATA.
000326: 06,2222           50070                           INDEX    RUPTREG1                              #  SELECT NEW VALUE OF THIS BIT.
000327: 06,2223           34675                           CAF      BIT14
000328: 06,2224           71320                           MASK     IMODES30
000329: 06,2225           50070                           INDEX    RUPTREG1
000330: 06,2226           02737                           TC       IFAILJMP
000331:
000332: 06,2227           10071        NXTIFAIL           CCS      RUPTREG2                              #  PROCESS ANY ADDITIONAL CHANGES.
000333: 06,2230           12214                           TCF      NXTIFBIT   -1
000334:


000336:                                                                                                  #  PROGRAM NAME:  TNONTEST.
000337:
000338:                                                                                                  #  FUNCTIONAL DESCRIPTION:  THIS PROGRAM HONORS REQUESTS FOR ISS INITIALIZATION.  ISS TURN-ON (CHANNEL 30 BIT 14)
000339:                                                                                                  #  AND ISS OPERATE (CHANNEL 30 BIT 9) REQUESTS ARE TREATED AS A PAIR AND PROCESSING TAKES PLACE .480 SECONDS
000340:                                                                                                  #  AFTER EITHER ONE APPEARS.  THIS INITIALIZATION TAKES ON ONE OF THE FOLLOWING THREE FORMS:
000341:
000342:                                                                                                  #        1) ISS TURN-ON:  IN THIS SITUATION THE COMPUTER IS OPERATING WHEN THE ISS IS TURNED ON.  NOMINALLY,
000343:                                                                                                  #        BOTH ISS TURN-ON AND ISS OPERATE APPEAR.  THE PLATFORM IS CAGED FOR 90 SECONDS AND THE ICDU'S ZEROED
000344:                                                                                                  #        SO THAT AT THE END OF THE PROCESS THE GIMBAL LOCK MONITOR WILL FUNCTION PROPERLY.
000345:
000346:                                                                                                  #        2) ICDU INITIALIZATION:  IN THIS CASE THE COMPUTER WAS PROBABLY TURNED ON WITH THE ISS IN OPERATE OR
000347:                                                                                                  #        A FRESH START WAS DONE WITH THE ISS IN OPERATE.  IN THIS CASE ONLY ISS OPERATE IS ON.  THE ICDU'S ARE
000348:                                                                                                  #        ZEROED SO THE GIMBAL LOCK MONITOR WILL FUNCTION.  AN EXCEPTION IS IF THE ISS IS IN GIMBAL LOCK AFTER
000349:                                                                                                  #        A RESTART, THE ICDU'S WILL NOT BE ZEROED.
000350:
000351:                                                                                                  #        3) RESTART WITH RESTARTABLE PROGRAM USING THE IMU:  IN THIS CASE, NO INITIALIZATION TAKES PLACE SINCE
000352:                                                                                                  #        IT IS ASSUMED THAT THE USING PROGRAM DID THE INITIALIZATION AND THEREFORE T4RUPT SHOULD NOT INTERFERE.
000353:
000354:                                                                                                  #  IMODES30 BIT 7 IS SET = 1 BY THE FIRST BIT (CHANNEL 30 BIT 14 OR 9) WHICH ARRIVES.  FOLLOWING THIS. TNONTEST IS
000355:                                                                                                  #  ENTERED, FINDS BIT 7 = 1 BUT BIT 8 = 0, SO IT SETS BIT 8 = 1 AND EXITS.  THE NEXT TIME IT FINDS BIT 8 = 1 AND
000356:                                                                                                  #  PROCEEDS, SETTING BITS 8 AND 7 = 0.  AT PROCTNON, IF ISS TURN-ON REQUEST IS PRESENT, THE ISS IS CAGED (ZERO +
000357:                                                                                                  #  COARSE).  IF ISS OPERATE IS NOT PRESENT PROGRAM ALARM 00213 IS ISSUED.  AT THE END OF A 90 SECOND CAGE, BIT 2
000358:                                                                                                  #  OF IMODES30 IS TESTED.  IF IT IS = 1, ISS TURN-ON WAS NOT PRESENT FOR THE ENTIRE 90 SECONDS.  IN THAT CASE, IF
000359:                                                                                                  #  THE ISS TURN-ON REQUEST IS PRESENT THE 90 SECOND WAIT IS REPEATED, OTHERWISE NO ACTION OCCURS UNLESS A PROGRAM
000360:                                                                                                  #  WAS WAITING FOR THE INITIALIZATION IN WHICH CASE THE PROGRAM IS GIVEN AN IMUSTALL ERROR RETURN.  IF THE DELAY
000361:                                                                                                  #  WENT PROPERLY, THE ISS DELAY OUTBIT IS SENT AND THE ICDU'S ZEROED.  A TASK IS INITIATED TO REMOVE THE PIPA FAIL
000362:                                                                                                  #  INHIBIT BIT IN 10.24 SECONDS.  IF A MISSION PROGRAM WAS WAITING IT IS INFORMED VIA ENDIMU.
000363:
000364:                                                                                                  #  AT PROCTNON, IF ONLY ISS OPERATE IS PRESENT (OPONLY), THE CDU'S ARE ZEROED UNLESS THE PLATFORM IS IN COARSE
000365:                                                                                                  #  ALIGN (= GIMBAL LOCK HERE) OR A MISSION PROGRAM IS USING THE IMU (IMUSEFLG = 1).
000366:
000367:                                                                                                  #  CALLING SEQUENCE:  T4RUPT EVERY 480 MILLISECONDS AFTER IMUMON.
000368:
000369:                                                                                                  #  JOBS OR TASKS INITIATED:  1) ENDTNON, 90 SECONDS AFTER CAGING STARTED.  2) ISSUP, 4 SECONDS AFTER CAGING DONE.
000370:                                                                                                  #        3) PFAILOK, 10.24 SECONDS AFTER INITIALIZATION COMPLETED.  4) UNZ2, 320 MILLISECONDS AFTER ZEROING
000371:                                                                                                  #        STARTED.
000372:
000373:                                                                                                  #  SUBROUTINES CALLED: CAGESUB, CAGESUB2, ZEROICDU, ENDIMU, IMUBAD, NOATTOFF, SETISSW, VARDELAY.
000374:
000375:                                                                                                  #  ERASABLE INITIALIZATION:  SEE IMUMON.
000376:
000377:                                                                                                  #  ALARMS:  PROGRAM ALARM 00213 IF ISS TURN-ON REQUESTED WITHOUT ISS OPERATE.
000378:
000379:                                                                                                  #  EXIT:  ENDTNON EXITS TO C33TEST.  TASKS HAVING TO DO WITH INITIALIZATION EXIT AS FOLLOWS:  MISSION PROGRAM
000380:                                                                                                  #  WAITING AND INITIALIZATION COMPLETE, EXIT TO ENDIMU, MISSION PROGRAM WAITING AND INITIALIZATION FAILED, EXIT TO
000381:                                                                                                  #  IMUBAD, IMU NOT IN USE, EXIT TO TASKOVER.
000382:
000383:                                                                                                  #  OUTPUT:  ISS INITIALIZED.
000384:
000385: 06,2231           41320        TNONTEST           CS       IMODES30                              #  AFTER PROCESSING ALL CHANGES, SEE IF IT


000387: 06,2232           74704                           MASK     BIT7                                  #  IS TIME TO ACT ON A TURN-ON SEQUENCE.
000388: 06,2233           10000                           CCS      A
000389: 06,2234           12367                           TCF      C33TEST                               #  NO - EXAMINE CHANNEL 33.
000390:
000391: 06,2235           34703                           CAF      BIT8                                  #  SEE IF FIRST SAMPLE OR SECOND.
000392: 06,2236           71320                           MASK     IMODES30
000393: 06,2237           10000                           CCS      A
000394: 06,2240           12244                           TCF      PROCTNON                              #  REACT AFTER SECOND SAMPLE.
000395:
000396: 06,2241           34703                           CAF      BIT8                                  #  IF FIRST SAMPLE, SET BIT TO REACT NEXT
000397: 06,2242           27320                           ADS      IMODES30                              #  TIME.
000398: 06,2243           12367                           TCF      C33TEST
000399:
000400:                                                                                                  #  PROCESS IMU TURN-ON REQUESTS AFTER WAITING 1 SAMPLE FOR ALL SIGNALS TO ARRIVE.
000401:
000402: 06,2244           42757        PROCTNON           CS       BITS7&8
000403: 06,2245           71320                           MASK     IMODES30
000404: 06,2246           55320                           TS       IMODES30
000405: 06,2247           74675                           MASK     BIT14                                 #  SEE IF TURN-ON REQUEST.
000406: 06,2250           10000                           CCS      A
000407: 06,2251           12342                           TCF      OPONLY                                #  OPERATE ON ONLY.
000408:
000409: 06,2252           41320                           CS       IMODES30                              #  IF TURN-ON REQUEST, WE SHOULD HAVE IMU
000410: 06,2253           74702                           MASK     BIT9                                  #  OPERATE.
000411: 06,2254           10000                           CCS      A
000412: 06,2255           12260                           TCF      +3
000413:
000414: 06,2256           05537                           TC       ALARM                                 #  ALARM IF NOT.
000415: 06,2257           00213                           OCT      213
000416:
000417: 06,2260           02717                 +3        TC       CAGESUB
000418: 06,2261           32764                           CAF      90SECS
000419: 06,2262           05140                           TC       WAITLIST
000420: 06,2263  E3,1474                                  EBANK=   CDUIND
000421: 06,2263           02270 14063                     2CADR    ENDTNON
000422:
000423: 06,2265           12367                           TCF      C33TEST
000424:
000425: 06,2266           32764        RETNON             CAF      90SECS
000426: 06,2267           05161                           TC       VARDELAY
000427:
000428: 06,2270           44711        ENDTNON            CS       BIT2                                  #  RESET TURN-ON REQUEST FAIL BIT.
000429: 06,2271           71320                           MASK     IMODES30
000430: 06,2272           57320                           XCH      IMODES30
000431: 06,2273           74711                           MASK     BIT2                                  #  IF IT WAS OFF, SEND ISS DELAY COMPLETE.
000432: 06,2274           00006                           EXTEND
000433: 06,2275           12310                           BZF      ENDTNON2


000435: 06,2276           34675                           CAF      BIT14                                 #  IF IT WAS ON AND TURN-ON REQUEST NOW
000436: 06,2277           71320                           MASK     IMODES30                              #  PRESENT, RE-ENTER 90 SEC DELAY IN WL.
000437: 06,2300           00006                           EXTEND
000438: 06,2301           12266                           BZF      RETNON
000439:
000440: 06,2302           40074                           CS       STATE                                 #  IF IT IS NOT ON NOW, SEE IF A PROG WAS
000441: 06,2303           74703                           MASK     IMUSEFLG                              #  WAITING.
000442: 06,2304           10000                           CCS      A
000443: 06,2305           15213                           TCF      TASKOVER
000444: 06,2306           04574                           TC       POSTJUMP
000445: 06,2307           17441                           CADR     IMUBAD                                #  UNSUCCESSFUL TURN-ON.
000446:
000447: 06,2310           34674        ENDTNON2           CAF      BIT15                                 #  SEND ISS DELAY COMPLETE.
000448: 06,2311           00006                           EXTEND
000449: 06,2312           05012                           WOR      CHAN12                                #  TURN OFF ISS DELAY COUNTER
000450: 06,2313           04633                           TC       IBNKCALL                              #  TURN OFF NO ATT LAMP.
000451: 06,2314           17070                           CADR     NOATTOFF
000452:
000453: 06,2315           05410        UNZ2               TC       ZEROICDU
000454:
000455: 06,2316           44722                           CS       BITS4&5                               #  REMOVE ZERO AND COARSE.
000456: 06,2317           00006                           EXTEND
000457: 06,2320           03012                           WAND     CHAN12
000458:
000459: 06,2321           34700                           CAF      BIT11                                 #  WAIT 10 SECS FOR CTRS TO FIND GIMBALS
000460: 06,2322           05161                           TC       VARDELAY
000461:
000462: 06,2323           42754        ISSUP              CS       OCT54                                 #  REMOVE CAGING, IMU FAIL INHIBIT, AND
000463: 06,2324           71320                           MASK     IMODES30                              #  ICDUFAIL INHIBIT FLAGS.
000464: 06,2325           55320                           TS       IMODES30
000465:
000466: 06,2326           44705                           CS       BIT6                                  #  ENABLE DAP
000467: 06,2327           71321                           MASK     IMODES33
000468: 06,2330           55321                           TS       IMODES33
000469:
000470: 06,2331           02665                           TC       SETISSW                               #  ISS WARNING MIGHT HAVE BEEN INHIBITED.
000471:
000472: 06,2332           44674                           CS       BIT15                                 #  REMOVE IMU DELAY COMPLETE DISCRETE.
000473: 06,2333           00006                           EXTEND
000474: 06,2334           03012                           WAND     CHAN12
000475:
000476: 06,2335           34740                           CAF      4SECS                                 #  DONT ENABLE PROG ALARM ON PIP FAIL FOR
000477: 06,2336           05140                           TC       WAITLIST                              #  ANOTHER 4 SECS.
000478: 06,2337  E3,1474                                  EBANK=   CDUIND
000479: 06,2337           03056 16063                     2CADR    PFAILOK
000480:
000481: 06,2341           15213                           TCF      TASKOVER
000482:
000483: 06,2342           34707        OPONLY             CAF      BIT4


000485: 06,2343           00006                           EXTEND                                         #  IF OPERATE ON ONLY AND WE ARE IN COARSE
000486: 06,2344           02012                           RAND     CHAN12                                #  ALIGN, DONT ZERO THE CDUS BECAUSE WE
000487: 06,2345           10000                           CCS      A                                     #  MIGHT BE IN GIMBAL LOCK. USE V41N20 TO
000488: 06,2346           12367                           TCF      C33TEST                               #  RECOVER.
000489:
000490: 06,2347           34703                           CAF      IMUSEFLG                              #  OTHERWISE, ZERO THE COUNTERS
000491: 06,2350           70074                           MASK     STATE                                 #  UNLESS SOMEONE IS USING THE IMU.
000492: 06,2351           10000                           CCS      A
000493: 06,2352           12367                           TCF      C33TEST
000494:
000495: 06,2353           02730                           TC       CAGESUB2                              #  SET TURNON FLAGS.
000496:
000497: 06,2354           04633        ISSZERO            TC       IBNKCALL                              #  TURN OFF NO ATT LAMP
000498: 06,2355           17070                           CADR     NOATTOFF                              #      IMU CAGE OFF ENTRY
000499:
000500: 06,2356           34706                           CAF      BIT5                                  #  ISS CDU ZERO
000501: 06,2357           00006                           EXTEND
000502: 06,2360           05012                           WOR      CHAN12
000503:
000504: 06,2361           05410                           TC       ZEROICDU
000505: 06,2362           34705                           CAF      BIT6                                  #  WAIT 300 MS FOR AGS TO RECEIVE SIGNAL.
000506: 06,2363           05140                           TC       WAITLIST
000507: 06,2364     1331                                  EBANK=   OPTMODES
000508: 06,2364           02315 14062                     2CADR    UNZ2
000509:
000510: 06,2366           12367                           TCF      C33TEST
000511:


000513:                                                                                                  #  PROGRAM NAME:  C33TEST
000514:
000515:                                                                                                  #  FUNCTIONAL DESCRIPTION:  THIS PROGRAM MONITORS THREE FLIP-FLOP INBITS OF CHANNEL 33 AND CALLS THE APPROPRIATE
000516:                                                                                                  #  SUBROUTINE TO PROCESS A CHANGE.  IT IS ANALOGOUS TO IMUMON, WHICH MONITORS CHANNEL 30, EXCEPT THAT IT READS
000517:                                                                                                  #  CHANNEL 33 WITH A WAND INSTRUCTION BECAUSE A 'WRITE' PULSE IS REQUIRED TO RESET THE FLIP-FLOPS.  THE BITS
000518:                                                                                                  #  PROCESSED AND THE SUBROUTINES CALLED ARE:
000519:                                                                                                  #        BIT     FUNCTION                SUBROUTINE
000520:                                                                                                  #        ---     --------                ----------
000521:                                                                                                  #         13     PIPA FAIL               PIPFAIL
000522:                                                                                                  #         12     DOWNLINK TOO FAST       DNTMFAST
000523:                                                                                                  #         11     UPLINK TOO FAST         UPTMFAST
000524:
000525:                                                                                                  #  UPON ENTRY TO THE SUBROUTINE, THE NEW BIT STATE IS IN A.
000526:
000527:                                                                                                  #  CALLING SEQUENCE:  EVERY 480 MILLISECONDS AFTER TNONTEST.
000528:
000529:                                                                                                  #  JOBS OR TASKS INITIATED:  NONE.
000530:
000531:                                                                                                  #  SUBROUTINES CALLED:  PIPFAIL, DNTMFAST AND UPTMFAST ON BIT CHANGES.
000532:
000533:                                                                                                  #  ERASABLE INITIALIZATION:  C(IMODES33) = OCT 16000 ON A FRESH START OR RESTART, THEREFORE, THESE ALARMS WILL
000534:                                                                                                  #  REAPPEAR IF THE CONDITIONS PERSIST.
000535:
000536:                                                                                                  #  ALARMS:  NONE.
000537:
000538:                                                                                                  #  EXIT:  GLOCKMON.
000539:
000540:                                                                                                  #  OUTPUT:  UPDATED BITS 13, 12 AND 11 OF IMODES33 WITH CHANGES PROCESSED.
000541:
000542: 06,2367           31321        C33TEST            CA       IMODES33                              #  SEE IF RELEVANT CHAN33 BITS HAVE
000543: 06,2370           74763                           MASK     33RDMSK
000544: 06,2371           54001                           TS       L                                     #  CHANGED.
000545: 06,2372           34763                           CAF      33RDMSK
000546: 06,2373           00006                           EXTEND
000547: 06,2374           03033                           WAND     CHAN33                                #  RESETS FLIP-FLOP INPUTS.
000548: 06,2375           00006                           EXTEND
000549: 06,2376           06001                           RXOR     LCHAN
000550: 06,2377           00006                           EXTEND
000551: 06,2400           12427                           BZF      GLOCKMON                              #  ON NO CHANGE.
000552:
000553: 06,2401           54070                           TS       RUPTREG1                              #  SAVE BITS WHICH HAVE CHANGED.
000554: 06,2402           23321                           LXCH     IMODES33
000555: 06,2403           00006                           EXTEND
000556: 06,2404           06001                           RXOR     LCHAN
000557: 06,2405           55321                           TS       IMODES33                              #  UPDATED IMODES33.
000558:
000559: 06,2406           34714                           CAF      ZERO
000560: 06,2407           56070                           XCH      RUPTREG1
000561: 06,2410           60000                           DOUBLE


000563: 06,2411           12414                           TCF      NXTIBT     +1                         #  SCAN FOR BIT CHANGES.
000564:
000565: 06,2412           64712                 -1        AD       ONE
000566: 06,2413           24070        NXTIBT             INCR     RUPTREG1
000567: 06,2414           60000                 +1        DOUBLE
000568: 06,2415           54000                           TS       A                                     #  (CODING IDENTICAL TO CHAN 30).
000569: 06,2416           12413                           TCF      NXTIBT
000570:
000571: 06,2417           56071                           XCH      RUPTREG2
000572: 06,2420           50070                           INDEX    RUPTREG1                              #  GET NEW VALUE OF BIT WHICH CHANGED.
000573: 06,2421           34676                           CAF      BIT13
000574: 06,2422           71321                           MASK     IMODES33
000575: 06,2423           50070                           INDEX    RUPTREG1
000576: 06,2424           02745                           TC       C33JMP
000577:
000578: 06,2425           10071        NXTFL33            CCS      RUPTREG2                              #  PROCESS POSSIBLE ADDITIONAL CHANGES.
000579: 06,2426           12412                           TCF      NXTIBT     -1
000580:


000582:                                                                                                  #  PROGRAM NAME:  GLOCKMON
000583:
000584:                                                                                                  #  FUNCTIONAL DESCRIPTION:  THIS PROGRAM MONITORS THE CDUZ COUNTER TO DETERMINE WHETHER THE ISS IS IN GIMBAL LOCK
000585:                                                                                                  #  AND TAKES ACTION IF IT IS.  THREE REGIONS OF MIDDLE GIMBAL ANGLE (MGA) ARE USED:
000586:
000587:                                                                                                  #        1) ABS(MGA) LESS THAN OR EQUAL TO 70 DEGREES - NORMAL MODE.
000588:                                                                                                  #        2) ABS(MGA) GREATER THAN 70 DEGREES AND LESS THAN OR EQUAL TO 85 DEGREES - GIMBAL LOCK LAMP TURNED ON.
000589:                                                                                                  #        3) ABS(MGA) GREATER THAN 85 DEGREES - ISS PUT IN COARSE ALIGN AND NO ATT LAMP TURNED ON.
000590:
000591:                                                                                                  #  CALLING SEQUENCE:  EVERY 480 MILLISECONDS AFTER C33TEST.
000592:
000593:                                                                                                  #  JOBS OR TASKS INITIATED:  NONE.
000594:
000595:                                                                                                  #  SUBROUTINES CALLED:   1) SETCOARS WHEN ABS(MGA) GREATER THAN 85 DEGREES AND ISS NOT IN COARSE ALIGN.
000596:                                                                                                  #                        2) LAMPTEST BEFORE TURNING OFF GIMBAL LOCK LAMP.
000597:
000598:                                                                                                  #  ERASABLE INITIALIZATION:
000599:                                                                                                  #                1) FRESH START OR RESTART WITH NO GROUPS ACTIVE:  C(CDUZ) = 0, IMODES30 BIT 6 = 0, IMODES33 BIT 1 = 0.
000600:                                                                                                  #                2) RESTART WITH GROUPS ACTIVE:  SAME AS FRESH START EXCEPT C(CDUZ) NOT CHANGED SO GIMBAL MONITOR
000601:                                                                                                  #                                                PROCEEDS AS BEFORE.
000602:
000603:                                                                                                  #  ALARMS:       1) MGA REGION (2) CAUSES GIMBAL LOCK LAMP TO BE LIT.
000604:                                                                                                  #                2) MGA REGION (3) CAUSES THE ISS TO BE PUT IN COARSE ALIGN AND THE NO ATT LAMP TO BE LIT IF EITHER NOT
000605:                                                                                                  #                   SO ALREADY.
000606:
000607: 06,2427           10034        GLOCKMON           CCS      CDUZ
000608: 06,2430           12434                           TCF      GLOCKCHK                              #  SEE IF MAGNITUDE OF MGA IS GREATER THAN
000609: 06,2431           12460                           TCF      SETGLOCK                              #  70 DEGREES.
000610: 06,2432           12434                           TCF      GLOCKCHK
000611: 06,2433           12460                           TCF      SETGLOCK
000612:
000613: 06,2434           62505        GLOCKCHK           AD       -70DEGS
000614: 06,2435           00006                           EXTEND
000615: 06,2436           62457                           BZMF     SETGLOCK   -1                         #  NO LOCK.
000616:
000617: 06,2437           62506                           AD       -15DEGS                               #  SEE IF ABS(MGA) GREATER THAN 85 DEGS.
000618: 06,2440           00006                           EXTEND
000619: 06,2441           62455                           BZMF     NOGIMRUN
000620:
000621: 06,2442           34707                           CAF      BIT4                                  #  IF SO, SYSTEM SHOULD BE IN COARSE ALIGN
000622: 06,2443           00006                           EXTEND                                         #  TO PREVENT GIMBAL RUN-AWAY.
000623: 06,2444           02012                           RAND     CHAN12
000624: 06,2445           10000                           CCS      A
000625: 06,2446           12455                           TCF      NOGIMRUN
000626:
000627: 06,2447           04633                           TC       IBNKCALL                              #  GO INTO COARSE ALIGN.
000628: 06,2450           16746                           CADR     SETCOARS
000629:
000630: 06,2451           36211                           CAF      SIX                                   #  ENABLE ISS ERROR COUNTERS IN 60 MS
000631: 06,2452           05140                           TC       WAITLIST


000633: 06,2453  E3,1474                                  EBANK=   CDUIND
000634: 06,2453           02742 16063                     2CADR    CA+ECE
000635:
000636: 06,2455           34705        NOGIMRUN           CAF      BIT6                                  #  TURN ON GIMBAL LOCK LAMP.
000637: 06,2456           12460                           TCF      SETGLOCK
000638:
000639: 06,2457           34714                 -1        CAF      ZERO
000640: 06,2460           61036        SETGLOCK           AD       DSPTAB     +11D                       #  SEE IF PRESENT STATE OF GIMBAL LOCK LAMP
000641: 06,2461           74705                           MASK     BIT6                                  #  AGREES WITH DESIRED STATE BY HALF ADDING
000642: 06,2462           00006                           EXTEND                                         #  THE TWO.
000643: 06,2463           15222                           BZF      GLOCKOK                               #  OK AS IS.
000644:
000645: 06,2464           71036                           MASK     DSPTAB     +11D                       #  IF OFF, DONT TURN ON IF IMU BEING CAGED.
000646: 06,2465           10000                           CCS      A
000647: 06,2466           12502                           TCF      GLAMPTST                              #  TURN OFF UNLESS LAMP TEST IN PROGRESS.
000648:
000649: 06,2467           34705                           CAF      BIT6
000650: 06,2470           71320                           MASK     IMODES30
000651: 06,2471           10000                           CCS      A
000652: 06,2472           15222                           TCF      GLOCKOK
000653:
000654: 06,2473           41036        GLINVERT           CS       DSPTAB     +11D                       #  INVERT GIMBAL LOCK LAMP.
000655: 06,2474           74705                           MASK     BIT6
000656: 06,2475           64674                           AD       BIT15                                 #  TO INDICATE CHANGE IN DSPTAB +11D.
000657: 06,2476           57036                           XCH      DSPTAB     +11D
000658: 06,2477           72164                           MASK     OCT37737
000659: 06,2500           27036                           ADS      DSPTAB     +11D
000660: 06,2501           15222                           TCF      GLOCKOK
000661:
000662: 06,2502           02750        GLAMPTST           TC       LAMPTEST                              #  TURN OFF UNLESS LAMP TEST IN PROGRESS.
000663: 06,2503           15222                           TCF      GLOCKOK
000664: 06,2504           12473                           TCF      GLINVERT
000665:
000666: 06,2505           63434        -70DEGS            DEC      -.38888                               #  -70 DEGREES SCALED IN HALF-REVOLUTIONS.
000667: 06,2506           75252        -15DEGS            DEC      -.08333
000668:


000670:                                                                                                  #  PROGRAM NAME:  TLIM.
000671:
000672:                                                                                                  #  FUNCTIONAL DESCRIPTION:  THIS PROGRAM MAINTAINS THE TEMP LAMP (BIT 4 OF CHANNEL 11) ON THE DSKY TO AGREE WITH
000673:                                                                                                  #  THE TEMP SIGNAL FROM THE ISS (BIT 15 OF CHANNEL 30).  HOWEVER, THE LIGHT WILL NOT BE TURNED OFF IF A LAMP TEST
000674:                                                                                                  #  IS IN PROGRESS.
000675:
000676:                                                                                                  #  CALLING SEQUENCE:  CALLED BY IMUMON ON A CHANGE OF BIT 15 OF CHANNEL 30.
000677:
000678:                                                                                                  #  JOBS OR TASKS INITIATED:  NONE.
000679:
000680:                                                                                                  #  SUBROUTINES CALLED:  LAMPTEST.
000681:
000682:                                                                                                  #  ERASABLE INITIALIZATION:  FRESH START AND RESTART TURN THE TEMP LAMP OFF.
000683:
000684:                                                                                                  #  ALARMS:  TEMP LAMP TURNED ON WHEN IMU TEMP GOES OUT OF LIMITS.
000685:
000686:                                                                                                  #  EXIT:  NXTIFAIL.
000687:
000688:                                                                                                  #  OUTPUT:  SERVICE OF TEMP LAMP.                  IN A, EXCEPT FOR TLIM.
000689:
000690: 06,2507           74672        TLIM               MASK     POSMAX                                #  REMOVE BIT FROM WORD OF CHANGES AND SET
000691: 06,2510           54071                           TS       RUPTREG2                              #  DSKY TEMP LAMP ACCORDINGLY.
000692:
000693: 06,2511           11320                           CCS      IMODES30
000694: 06,2512           12520                           TCF      TEMPOK
000695: 06,2513           12520                           TCF      TEMPOK
000696:
000697: 06,2514           34707                           CAF      BIT4                                  #  TURN ON LAMP.
000698: 06,2515           00006                           EXTEND
000699: 06,2516           05011                           WOR      DSALMOUT
000700: 06,2517           12227                           TCF      NXTIFAIL
000701:
000702: 06,2520           02750        TEMPOK             TC       LAMPTEST                              #  IF TEMP NOW OK, DONT TURN OFF LAMP IF
000703: 06,2521           12227                           TCF      NXTIFAIL                              #  LAMP TEST IN PROGRESS.
000704:
000705: 06,2522           44707                           CS       BIT4
000706: 06,2523           00006                           EXTEND
000707: 06,2524           03011                           WAND     DSALMOUT                              #  TURN OFF TEMP CAUTION
000708: 06,2525           12227                           TCF      NXTIFAIL
000709:


000711:                                                                                                  #  PROGRAM NAME:  ITURNON.
000712:
000713:                                                                                                  #  FUNCTIONAL DESCRIPTION:  THIS PROGRAM IS CALLED BY IMUMON WHEN A CHANGE OF BIT 14 OF CHANNEL 30 (ISS TURN-ON
000714:                                                                                                  #  REQUEST) IS DETECTED.  UPON ENTRY, ITURNON CHECKS IF A TURN-ON DELAY SEQUENCE HAS FAILED, AND IF SO, IT EXITS.
000715:                                                                                                  #  IF NOT, IT CHECKS WHETHER THE TURN-ON REQUEST CHANGE IS TO ON OR OFF.  IF ON, IT SETS BIT 7 OF IMODES30 TO 1 SO
000716:                                                                                                  #  THAT TNONTEST WILL INITIATE THE ISS INITIALIZATION SEQUENCE.  IF OFF, THE TURN-ON DELAY SIGNAL, CHANNEL 12 BIT
000717:                                                                                                  #  15, IS CHECKED AND IF IT IS ON, ITURNON EXITS.  IF THE DELAY SIGNAL IS OFF, PROGRAM ALARM 00207 IS ISSUED, BIT 2
000718:                                                                                                  #  OF IMODES30 IS SET TO 1 AND THE PROGRAM EXITS.
000719:
000720:                                                                                                  #  THE SETTING OF BIT 2 OF IMODES30 (ISS DELAY SEQUENCE FAIL) INHIBITS THIS ROUTINE AND IMUOP FROM
000721:                                                                                                  #  PROCESSING ANY CHANGES.  THIS BIT WILL BE RESET BY THE ENDTNON ROUTINE WHEN THE CURRENT 90 SECOND DELAY PERIOD
000722:                                                                                                  #  ENDS.
000723:
000724:                                                                                                  #  CALLING SEQUENCE:  FROM IMUMOM WHEN ISS TURN-ON REQUEST CHANGES STATE.
000725:
000726:                                                                                                  #  JOBS OR TASKS INITIATED:  NONE.
000727:
000728:                                                                                                  #  SUBROUTINES CALLED:  ALARM, IF THE ISS TURN-ON REQUEST IS NOT PRESENT FOR 90 SECONDS.
000729:
000730:                                                                                                  #  ERASABLE INITIALIZATION:  FRESH START AND RESTART SET BIT 15 OF CHANNEL 12 AND BITS 2 AND 7 OF IMODES30 TO 0,
000731:                                                                                                  #  AND BIT 14 OF IMODES30 TO 1.
000732:
000733:                                                                                                  #  ALARMS: PROGRAM ALARM 00207 IS ISSUED IF THE ISS TURN-ON REQUEST SIGNAL IS NOT PRESENT FOR 90 SECONDS.
000734:
000735:                                                                                                  #  EXIT:  NXTIFAIL.
000736:
000737:                                                                                                  #  OUTPUT:  BIT 7 OF IMODES30 TO START ISS INITIALIZATION, OR BIT 2 OF IMODES30 AND PROGRAM ALARM 00207 TO INDICATE
000738:                                                                                                  #  A FAILED TURN-ON SEQUENCE.
000739:
000740: 06,2526           34711        ITURNON            CAF      BIT2                                  #  IF DELAY REQUEST HAS GONE OFF
000741: 06,2527           71320                           MASK     IMODES30                              #  PREMATURELY, DO NOT PROCESS ANY CHANGES
000742: 06,2530           10000                           CCS      A                                     #  UNTIL THE CURRENT 90 SEC WAIT EXPIRES.
000743: 06,2531           12227                           TCF      NXTIFAIL
000744:
000745: 06,2532           34675                           CAF      BIT14                                 #  SEE IF JUST ON OR OFF.
000746: 06,2533           71320                           MASK     IMODES30
000747: 06,2534           00006                           EXTEND
000748: 06,2535           12551                           BZF      ITURNON2                              #  IF JUST ON.
000749:
000750: 06,2536           34674                           CAF      BIT15
000751: 06,2537           00006                           EXTEND                                         #  SEE IF DELAY PRESENT DISCRETE HAS BEEN
000752: 06,2540           02012                           RAND     CHAN12                                #  SENT.  IF SO, ACTION COMPLETE.
000753: 06,2541           00006                           EXTEND
000754: 06,2542           12544                           BZF      +2
000755: 06,2543           12227                           TCF      NXTIFAIL
000756:
000757: 06,2544           34711                           CAF      BIT2                                  #  IF NOT, SET BIT TO INDICATE REQUEST NOT
000758: 06,2545           27320                           ADS      IMODES30                              #  PRESENT FOR FULL DURATION.
000759: 06,2546           05537                           TC       ALARM
000760: 06,2547           00207                           OCT      207
000761: 06,2550           12227                           TCF      NXTIFAIL
000762:


000764: 06,2551           41320        ITURNON2           CS       IMODES30                              #  SET BIT7 TO INDICATE WAIT OF 1 SAMPLE
000765: 06,2552           74704                           MASK     BIT7
000766: 06,2553           27320                           ADS      IMODES30
000767: 06,2554           12227                           TCF      NXTIFAIL
000768:


000770:                                                                                                  #  PROGRAM NAME:  IMUCAGE.
000771:
000772:                                                                                                  #  FUNCTIONAL DESCRIPTION:  THIS PROGRAM PROCESSES CHANGES OF THE IMUCAGE INBIT, CHANNEL 30 BIT 11.  IF THE BIT
000773:                                                                                                  #  CHANGES TO 0 (CAGE BUTTON PRESSED), THE ISS IS CAGED (ICDU ZERO + COARSE ALIGN + NO ATT LAMP) UNTIL THE
000774:                                                                                                  #  ASTRONAUT SELECTS ANOTHER PROGRAM TO ALIGN THE ISS.  ANY PULSE TRAINS TO THE ICDU'S AND GYRO'S ARE TERMINATED,
000775:                                                                                                  #  THE ASSOCIATED OUTCOUNTERS ARE ZEROED AND THE GYRO'S ARE DE-SELECTED.  NO ACTION OCCURS WHEN THE BUTTON IS
000776:                                                                                                  #  RELEASED (INBIT CHANGES TO 1).
000777:
000778:                                                                                                  #  CALLING SEQUENCE:  BY IMUMON WHEN IMU CAGE BIT CHANGES.
000779:
000780:                                                                                                  #  JOBS OR TASKS INITIATED:  NONE.
000781:
000782:                                                                                                  #  SUBROUTINES CALLED:  CAGESUB.
000783:
000784:                                                                                                  #  ERASABLE INITIALIZATION:  FRESH START AND RESTART SET BIT 11 OF IMODES30 TO 1.
000785:
000786:                                                                                                  #  ALARMS: NONE.
000787:
000788:                                                                                                  #  EXIT:  NXTIFAIL.
000789:
000790:                                                                                                  #  OUTPUT:  ISS CAGED, COUNTERS ZEROED, PULSE TRAINS TERMINATED AND NO ATT LAMP LIT.
000791:
000792: 06,2555           10000        IMUCAGE            CCS      A                                     #  NO ACTION IF GOING OFF.
000793: 06,2556           12354                           TCF      ISSZERO
000794: 06,2557           42762                           CS       OCT77000                              #  TERMINATE ICDU, OPTICS, GYRO PULSE TRAINS
000795: 06,2560           00006                           EXTEND
000796: 06,2561           03014                           WAND     CHAN14
000797:
000798: 06,2562           42756                           CS       OCT272                                #  KNOCK DOWN TVC ENABLE, IMU ERROR COUNTER
000799: 06,2563           00006                           EXTEND                                         #    ENABLE, ZERO ICDU, COARSE ALIGN
000800: 06,2564           03012                           WAND     CHAN12                                #    ENABLE, OPTICS ERR CNTR ENABLE
000801:
000802: 06,2565           44676                           CS       BIT13                                 #  TURN OFF ENGINE
000803: 06,2566           00006                           EXTEND
000804: 06,2567           03011                           WAND     DSALMOUT
000805:
000806: 06,2570           02725                           TC       CAGESUB1
000807:
000808: 06,2571           04633                           TC       IBNKCALL                              #  KNOCK DOWN TRACK, REFSMMAT, DRIFT FLAGS
000809: 06,2572           16777                           CADR     RNDREFDR
000810:
000811: 06,2573           44714                           CS       ZERO                                  #  ZERO COMMAND OUT-COUNTERS
000812: 06,2574           54050                           TS       CDUXCMD
000813: 06,2575           54051                           TS       CDUYCMD
000814: 06,2576           54052                           TS       CDUZCMD
000815: 06,2577           54047                           TS       GYROCMD
000816:
000817: 06,2600           42761                           CS       OCT740                                #  HAVING WAITED AT LEAST 27 MCT FROM
000818: 06,2601           00006                           EXTEND                                         #  GYRO PULSE TRAIN TERMINATION, WE CAN
000819: 06,2602           03014                           WAND     CHAN14                                #  DE-SELECT THE GYROS.


000821: 06,2603           12227                           TCF      NXTIFAIL
000822:


000824:                                                                                                  #  PROGRAM NAME:  IMUOP.
000825:
000826:                                                                                                  #  FUNCTIONAL DESCRIPTION:  THIS PROGRAM PROCESSES CHANGES IN THE ISS OPERATE DISCRETE, BIT 9 OF CHANNEL 30.
000827:                                                                                                  #  IF THE INBIT CHANGES TO 0, INDICATING ISS ON, IMUOP GENERALLY SETS BIT 7 OF IMODES30 TO 1 TO REQUEST ISS
000828:                                                                                                  #  INITIALIZATION VIA TNONTEST.  AN EXCEPTION IS DURING A FAILED ISS DELAY DURING WHICH BIT 2 OF IMODES30 IS SET
000829:                                                                                                  #  TO 1 AND NO FURTHER INITIALIZATION IS REQUIRED.  WHEN THE INBIT CHANGES TO 1, INDICATING ISS OFF, IMUSEFLG IS
000830:                                                                                                  #  TESTED TO SEE IF ANY PROGRAM WAS USING THE ISS.  IF SO, PROGRAM ALARM 00214 IS ISSUED.
000831:
000832:                                                                                                  #  CALLING SEQUENCE:  BY IMUMON WHEN BIT 9 OF CHANNEL 30 CHANGES.
000833:
000834:                                                                                                  #  JOBS OR TASKS INITIATED:  NONE.
000835:
000836:                                                                                                  #  SUBROUTINES CALLED:  ALARM, IF ISS IS TURNED OFF WHILE IN USE.
000837:
000838:                                                                                                  #  ERASABLE INITIALIZATION:  ON FRESH START AND RESTART, BIT 9 OF IMODES30 IS SET TO 1 EXCEPT WHEN THE GIMBAL LOCK
000839:                                                                                                  #  LAMP IS ON, IN WHICH CASE IT IS SET TO 0.  THIS PREVENTS ICDU ZERO BY TNONTEST WITH THE ISS IN GIMBAL LOCK.
000840:
000841:                                                                                                  #  ALARMS:  PROGRAM ALARM 00214 IF THE ISS IS TURNED OFF WHILE IN USE.
000842:
000843:                                                                                                  #  EXIT:  NXTIFAIL.
000844:
000845:                                                                                                  #  OUTPUT:  ISS INITIALIZATION REQUEST (IMODES30 BIT 7) OR PROGRAM ALARM 00214.
000846:
000847: 06,2604           00006        IMUOP              EXTEND                                         #  IF OPERATE JUST ON, WAIT 1 SAMPLE.
000848: 06,2605           12625                           BZF      IMUOP2
000849:
000850: 06,2606           41321                           CS       IMODES33                              #  DISABLE DAP
000851: 06,2607           74705                           MASK     BIT6
000852: 06,2610           27321                           ADS      IMODES33
000853:
000854: 06,2611           04633                           TC       IBNKCALL                              #  KNOCK DOWN TRACK, REFSMMAT, DRIFT FLAGS
000855: 06,2612           16777                           CADR     RNDREFDR
000856:
000857: 06,2613           42757                           CS       BITS7&8                               #  KNOCK DOWN RENDEVOUS, IMUUSE FLAGS
000858: 06,2614           70074                           MASK     STATE
000859: 06,2615           56074                           XCH      STATE                                 #  IF GOING OFF, ALARM IF PROG USING IMU
000860: 06,2616           40000                           COM
000861: 06,2617           74703                           MASK     IMUSEFLG
000862: 06,2620           10000                           CCS      A
000863: 06,2621           12227                           TCF      NXTIFAIL
000864:
000865: 06,2622           05537                           TC       ALARM
000866: 06,2623           00214                           OCT      214
000867: 06,2624           12227                           TCF      NXTIFAIL
000868:
000869: 06,2625           34711        IMUOP2             CAF      BIT2                                  #  SEE IF FAILED ISS TURN-ON SEQ IN PROG.
000870: 06,2626           71320                           MASK     IMODES30
000871: 06,2627           10000                           CCS      A
000872: 06,2630           12227                           TCF      NXTIFAIL                              #  IF SO, DONT PROCESS UNTIL PRESENT 90
000873: 06,2631           12551                           TCF      ITURNON2                              #  SECONDS EXPIRES.
000874:


000876:                                                                                                  #  PROGRAM NAME:  PIPFAIL
000877:
000878:                                                                                                  #  FUNCTIONAL DESCRIPTION:  THIS PROGRAM PROCESSES CHANGES OF BIT 13 OF CHANNEL 33, PIPA FAIL.  IT SETS BIT 10 OF
000879:                                                                                                  #  IMODES30 TO AGREE.  IT CALLS SETISSW IN CASE A PIPA FAIL NECESSITATES AN ISS WARNING.  IF NOT, I.E., IMODES30
000880:                                                                                                  #  BIT 1 = 1, AND A PIPA FAIL IS PRESENT AND THE ISS IS NOT BEING INITIALIZED, PROGRAM ALARM 00212 IS ISSUED.
000881:
000882:                                                                                                  #  CALLING SEQUENCE:  BY C33TEST ON CHANGES OF CHANNEL 33 BIT 13.
000883:
000884:                                                                                                  #  JOBS OR TASKS INITIATED:  NONE.
000885:
000886:                                                                                                  #  SUBROUTINES CALLED:  1) SETISSW, AND 2) ALARM (SEE FUNCTIONAL DESCRIPTION).
000887:
000888:                                                                                                  #  ERASABLE INITIALIZATION:  SEE IMUMON FOR INITIALIZATION OF IMODES30.  THE RELAVANT BITS ARE 5, 7, 8, 9, AND 10.
000889:
000890:                                                                                                  #  ALARMS:  PROGRAM ALARM 00212 IF PIPA FAIL IS PRESENT BUT NEITHER ISS WARNING IS TO BE ISSUED NOR THE ISS IS
000891:                                                                                                  #  BEING INITIALIZED.
000892:
000893:                                                                                                  #  EXIT:  NXTFL33.
000894:
000895:                                                                                                  #  OUTPUT:  PROGRAM ALARM 00212 AND ISS WARNING MAINTENANCE.
000896:
000897: 06,2632           10000        PIPFAIL            CCS      A                                     #  SET BIT10 IN IMODES30 SO ALL ISS WARNING
000898: 06,2633           34701                           CAF      BIT10                                 #  INFO IS IN ONE REGISTER.
000899: 06,2634           57320                           XCH      IMODES30
000900: 06,2635           72763                           MASK     -BIT10
000901: 06,2636           27320                           ADS      IMODES30
000902:
000903: 06,2637           02665                           TC       SETISSW
000904:
000905: 06,2640           41320                           CS       IMODES30                              #  IF PIP FAIL DOESNT LIGHT ISS WARNING, DO
000906: 06,2641           74712                           MASK     BIT1                                  #  A PROGRAM ALARM IF IMU OPERATING BUT NOT
000907: 06,2642           10000                           CCS      A                                     #  CAGED OR BEING TURNED ON.
000908: 06,2643           12425                           TCF      NXTFL33
000909:
000910: 06,2644           31320                           CA       IMODES30
000911: 06,2645           72760                           MASK     OCT1720
000912: 06,2646           10000                           CCS      A
000913: 06,2647           12425                           TCF      NXTFL33                               #  ABOVE CONDITION NOT MET.
000914:
000915: 06,2650           05537                           TC       ALARM
000916: 06,2651           00212                           OCT      212
000917: 06,2652           12425                           TCF      NXTFL33
000918:


000920:                                                                                                  #  PROGRAM NAMES:  DNTMFAST, UPTMFAST
000921:
000922:                                                                                                  #  FUNCTIONAL DESCRIPTION:  THESE PROGRAMS PROCESS CHANGES OF BITS 12 AND 11 OF CHANNEL 33.  IF A BIT CHANGES TO A
000923:                                                                                                  #  0, A PROGRAM ALARM IS ISSUED.  THE ALARMS ARE:
000924:
000925:                                                                                                  #        BIT     ALARM   CAUSE
000926:                                                                                                  #        ---     -----   -----
000927:                                                                                                  #         12     01105   DOWNLINK TOO FAST
000928:                                                                                                  #         11     01106   UPLINK TOO FAST
000929:
000930:                                                                                                  #  CALLING SEQUENCE:  BY C33TEST ON A BIT CHANGE.
000931:
000932:                                                                                                  #  SUBROUTINES CALLED:  ALARM, IF A BIT CHANGES TO A 0.
000933:
000934:                                                                                                  #  ERASABLE INITIALIZATION:  FRESH START OR RESTART, BITS 12 AND 11 OF IMODES33 ARE SET TO 1.
000935:
000936:                                                                                                  #  ALARMS:  SEE FUNCTIONAL DESCRIPTION.
000937:
000938:                                                                                                  #  EXIT:  NXTFL33.
000939:
000940:                                                                                                  #  OUTPUT:  PROGRAM ALARM ON A BIT CHANGE TO 0.
000941:
000942: 06,2653           10000        DNTMFAST           CCS      A                                     #  DO PROG ALARM IF TM TOO FAST.
000943: 06,2654           12425                           TCF      NXTFL33
000944:
000945: 06,2655           05537                           TC       ALARM
000946: 06,2656           01105                           OCT      1105
000947: 06,2657           12425                           TCF      NXTFL33
000948:
000949: 06,2660           10000        UPTMFAST           CCS      A                                     #  SAME AS DNLINK TOO FAST WITH DIFFERENT
000950: 06,2661           12425                           TCF      NXTFL33                               #  ALARM CODE.
000951:
000952: 06,2662           05537                           TC       ALARM
000953: 06,2663           01106                           OCT      1106
000954: 06,2664           12425                           TCF      NXTFL33
000955:


000957:                                                                                                  #  PROGRAM NAME:  SETISSW
000958:
000959:                                                                                                  #  FUNCTIONAL DESCRIPTION:  THIS PROGRAM TURNS THE ISS WARNING LAMP ON AND OFF (CHANNEL 11 BIT 1 = 1 FOR ON,
000960:                                                                                                  #  0 FOR OFF) DEPENDING ON THE STATUS OF IMODES30 BITS 13 (IMU FAIL) AND 4 (INHIBIT IMU FAIL), 12 (ICDU FAIL) AND
000961:                                                                                                  #  3 (INHIBIT ICDU FAIL), AND 10 (PIPA FAIL) AND 1 (INHIBIT PIPA FAIL).  THE LAMP IS LEFT ON IF A LAMP TEST IS IN
000962:                                                                                                  #  PROGRESS.
000963:
000964:                                                                                                  #  CALLING SEQUENCE:  CALLED BY IMUMON ON CHANGES TO IMU FAIL AND ICDU FAIL.  CALLED BY IFAILOK AND PFAILOK UPON
000965:                                                                                                  #  REMOVAL OF THE FAIL INHIBITS.  CALLED BY PIPFAIL WHEN THE PIPA FAIL DISCRETE CHANGES.  IT IS CALLED BY PIPUSE
000966:                                                                                                  #  SINCE THE PIPA FAIL PROGRAM ALARM MAY NECESSITATE AN ISS WARNING, AND LIKEWISE BY PIPFREE WHEN THE ALARM DEPARTS
000967:                                                                                                  #  AND IT IS CALLED BY IMUZERO3 AND ISSUP AFTER THE FAIL INHIBITS HAVE BEEN REMOVED.
000968:
000969:                                                                                                  #  JOBS OR TASKS INITIATED:  NONE.
000970:
000971:                                                                                                  #  SUBROUTINES CALLED:  NONE.
000972:
000973:                                                                                                  #  ERASABLE INITIALIZATION:
000974:
000975:                                                                                                  #        1) IMODES30 - SEE IMUMON.
000976:                                                                                                  #        2) IMODES33 BIT 1 = 0 (LAMP TEST NOT IN PROGRESS).
000977:
000978:                                                                                                  #  ALARMS:  ISS WARNING.
000979:
000980:                                                                                                  #  EXIT: VIA Q.
000981:
000982:                                                                                                  #  OUTPUT: ISS WARNING LAMP SET PROPERLY.
000983:
000984: 06,2665           34720        SETISSW            CAF      OCT15                                 #  SET ISS WARNING USING THE FAIL BITS IN
000985: 06,2666           71320                           MASK     IMODES30                              #  BITS 13, 12, AND 10 OF IMODES30 AND THE
000986: 06,2667           00006                           EXTEND                                         #  FAILURE INHIBIT BITS IN POSITIONS
000987: 06,2670           74701                           MP       BIT10                                 #  4, 3, AND 1.
000988: 06,2671           31320                           CA       IMODES30
000989: 06,2672           00006                           EXTEND
000990: 06,2673           04001                           ROR      LCHAN                                 #  0 INDICATES FAILURE.
000991: 06,2674           40000                           COM
000992: 06,2675           74762                           MASK     OCT15000
000993: 06,2676           10000                           CCS      A
000994: 06,2677           12710                           TCF      ISSWON                                #  FAILURE.
000995:
000996: 06,2700           34712        ISSWOFF            CAF      BIT1                                  #  DONT TURN OFF ISS WARNING IF LAMP TEST
000997: 06,2701           71321                           MASK     IMODES33                              #  IN PROGRESS.
000998: 06,2702           10000                           CCS      A
000999: 06,2703           00002                           TC       Q
001000:
001001: 06,2704           44712                           CS       BIT1
001002: 06,2705           00006                           EXTEND
001003: 06,2706           03011                           WAND     DSALMOUT                              #  TURN OFF ISS WARNING
001004: 06,2707           00002                           TC       Q
001005:
001006: 06,2710           00006        ISSWON             EXTEND


001008: 06,2711           22066                           QXCH     ITEMP6
001009: 06,2712           05651                           TC       VARALARM                              #  TELL EVERYONE WHAT CAUSED THE ISS WARNING
001010: 06,2713           34712                           CAF      BIT1
001011: 06,2714           00006                           EXTEND
001012: 06,2715           05011                           WOR      DSALMOUT                              #  TURN ON ISS WARNING
001013: 06,2716           00066                           TC       ITEMP6
001014:
001015: 06,2717           47703        CAGESUB            CS       BIT15+6                               #  SET OUTBITS + INTERNAL FLAGS FOR
001016: 06,2720           00006                           EXTEND                                         #  SYSTEM TURN-ON OR CAGE.  DISABLE THE
001017: 06,2721           03012                           WAND     CHAN12                                #  ERROR COUNTER AND REMOVE IMU DELAY COMP.
001018: 06,2722           34722                           CAF      BITS4&5                               #  SEND ZERO AND COARSE.
001019: 06,2723           00006                           EXTEND
001020: 06,2724           05012                           WOR      CHAN12
001021:
001022: 06,2725           41036        CAGESUB1           CS       DSPTAB     +11D                       #  TURN ON NO ATT LAMP
001023: 06,2726           72753                           MASK     OC40010
001024: 06,2727           27036                           ADS      DSPTAB     +11D
001025:
001026: 06,2730           41320        CAGESUB2           CS       IMODES30                              #  SET FLAGS TO INDICATE CAGING OR TURN-ON
001027: 06,2731           72755                           MASK     OCT75                                 #  AND INHIBIT ALL ISS WARNING INFO
001028: 06,2732           27320                           ADS      IMODES30
001029:
001030: 06,2733           41321                           CS       IMODES33                              #  DISABLE DAP AUTO AND HOLD MODES
001031: 06,2734           74705                           MASK     BIT6
001032: 06,2735           27321                           ADS      IMODES33
001033:
001034: 06,2736           00002                           TC       Q
001035:
001036: 06,2737  06,2665               IMUFAIL            EQUALS   SETISSW
001037: 06,2737  06,2665               ICDUFAIL           EQUALS   SETISSW
001038:


001040:                                                                                                  #  JUMP TABLES AND CONSTANTS.
001041:
001042: 06,2737           12526        IFAILJMP           TCF      ITURNON                               #  CHANNEL 30 DISPATCH.
001043: 06,2740           12665                           TCF      IMUFAIL
001044: 06,2741           12665                           TCF      ICDUFAIL
001045: 06,2742           12555                           TCF      IMUCAGE
001046: 06,2743           76400        30RDMSK            OCT      76400                                 #  (BIT 10 NOT SAMPLED HERE).
001047: 06,2744           12604                           TCF      IMUOP
001048:
001049: 06,2745           12632        C33JMP             TCF      PIPFAIL                               #  CHANNEL 33 DISPATCH.
001050: 06,2746           12653                           TCF      DNTMFAST
001051: 06,2747           12660                           TCF      UPTMFAST
001052:
001053:                                                                                                  #  SUBROUTINE TO SKIP IF LAMP TEST NOT IN PROGRESS.
001054:
001055: 06,2750           41321        LAMPTEST           CS       IMODES33                              #  BIT 1 OF IMODES33 = 1 IF LAMP TEST IN
001056: 06,2751           74712                           MASK     BIT1                                  #  PROGRESS.
001057: 06,2752           13065                           TCF      ZOPFIN3
001058:
001059: 06,2753     4763               33RDMSK            EQUALS   PRIO16
001060: 06,2753           40010        OC40010            OCT      40010
001061: 06,2754           00054        OCT54              OCT      54
001062: 06,2755           00075        OCT75              OCT      75
001063: 06,2756           00272        OCT272             OCT      00272
001064: 06,2757           00300        BITS7&8            OCT      300
001065: 06,2760           01720        OCT1720            OCT      1720
001066: 06,2761           00740        OCT740             OCT      00740
001067: 06,2762     4762               OCT15000           EQUALS   PRIO15
001068: 06,2762           77000        OCT77000           OCT      77000
001069: 06,2763           76777        -BIT10             OCT      -1000
001070:
001071: 06,2764           21450        90SECS             DEC      9000       B-14
001072: 06,2765     5656               120MS              =        OCT14                                 #  (DEC12)
001073: 06,2765     5222               GLOCKOK            EQUALS   RESUME
001074:


001076:                                                                                                  #  OPTICS MONITORING AND ZERO ROUTINES
001077: 06,2765           31331        OPTMON             CA       OPTMODES                              #  MONITOR OPTICS INBITS IN CHAN 30 AND 33
001078: 06,2766           00006                           EXTEND
001079: 06,2767           06030                           RXOR     CHAN30                                #  LOOK FOR OCDU FAIL BIT CHANGE
001080: 06,2770           74704                           MASK     BIT7
001081: 06,2771           54070                           TS       RUPTREG1                              #  STORE CHANGE BIT
001082: 06,2772           10000                           CCS      A
001083: 06,2773           03224                           TC       OCDUFTST                              #  PROCESS OCDUFAIL BIT CHANGE
001084:
001085: 06,2774           11303        33OPTMON           CCS      OPTIND                                #  BYPASS IF TVC TAKEOVER
001086: 06,2775           13001                           TCF      +4
001087: 06,2776           13001                           TCF      +3
001088: 06,2777           13001                           TCF      +2
001089: 06,3000           15222                           TCF      RESUME
001090:
001091: 06,3001           31331                           CA       OPTMODES                              #  LOOK FOR OPTICS MODE SWITCH CHANGE
001092: 06,3002           00006                           EXTEND
001093: 06,3003           06033                           RXOR     CHAN33
001094: 06,3004           74722                           MASK     OCTHIRTY
001095: 06,3005           26070                           ADS      RUPTREG1                              #  STORE INBIT CHANGES
001096: 06,3006           23331                           LXCH     OPTMODES
001097: 06,3007           00006                           EXTEND
001098: 06,3010           06001                           RXOR     LCHAN
001099: 06,3011           55331                           TS       OPTMODES                              #  UPDATE OPTMODES TO SHOW BIT CHANGES
001100:
001101: 06,3012           40000                           COM                                            #  SAMPLE CURRENT SWITCH SETTING
001102: 06,3013           74722                           MASK     OCTHIRTY
001103: 06,3014           00006                           EXTEND
001104: 06,3015           13022                           BZF      SETSAMP                               #  MANUAL-SET ZERO IN SWSAMPLE
001105:
001106: 06,3016           74706                           MASK     BIT5                                  #  SEE IF CSC
001107: 06,3017           10000                           CCS      A
001108: 06,3020           03022                           TC       +2                                    #  CSC-SET SWSAMPLE POS
001109: 06,3021           37716                           CAF      NEGONE                                #  ZOPTICS-SET SWSAMPLE (-1)
001110: 06,3022           55314        SETSAMP            TS       SWSAMPLE                              #  CURRENT OPTICS SWITCH SETTING
001111:
001112: 06,3023           11315        PROCESSW           CCS      DESOPMOD                              #  BRANCH ON PREVIOUS SETTING
001113: 06,3024           03125                           TC       CSCDES                                #  CSC
001114: 06,3025           03077                           TC       MANUDES                               #  MANUAL
001115: 06,3026           03027                           TC       ZOPTDES                               #  ZERO OPTICS


001117: 06,3027           11314        ZOPTDES            CCS      SWSAMPLE                              #  IS SWITCH STILL AT ZOPTICS
001118: 06,3030           03047                           TC       ZTOCSC                                #  NOW AT CSC
001119: 06,3031           03037                           TC       ZTOMAN                                #  MANUAL
001120: 06,3032           03057                           TC       ZOPFINI                               #  ZOPTICS-SEE IF ZOPT PROCESSING
001121: 06,3033           03154                           TC       SETDESMD                              #  ZOPT NOT PROCESSING-NO ACTION
001122:
001123: 06,3034           11317                           CCS      ZOPTCNT                               #  ZOPT PROCESSING-CHECK COUNTER
001124: 06,3035           03153                           TC       SETCNT                                #  32 SAMPLE NOT FINISHED-SET COUNTER
001125: 06,3036           03157                           TC       SETZOEND                              #  32 SAMPLE WAIT COMPLETED-SET UP ZOP END
001126:
001127: 06,3037           03057        ZTOMAN             TC       ZOPFINI                               #  ZOP TO MANUAL-IS ZOPT DONE
001128: 06,3040           03154                           TC       SETDESMD                              #  YES-NORMAL EXIT
001129:
001130: 06,3041           05537        ZOPALARM           TC       ALARM                                 #  ALARM-SWITCHED ALTERED WHILE ZOPTICS
001131: 06,3042           00116                           OCT      00116
001132: 06,3043           34717                           CAF      OCT13                                 #  PROCESSING-SET RETURN OPTION
001133: 06,3044           55316                           TS       WTOPTION
001134:
001135: 06,3045           03070                           TC       CANZOPT                               #  CANCEL ZOPT
001136:
001137: 06,3046           03154                           TC       SETDESMD
001138:
001139: 06,3047           03057        ZTOCSC             TC       ZOPFINI                               #  SEE IF ZOPT PROCESSING
001140: 06,3050           03115                           TC       MANTOCSC   +3                         #  NO-CHECK RETURN TO COARS OPT
001141: 06,3051           05537                           TC       ALARM                                 #  ZOPT PROCESSING-ALARM
001142: 06,3052           00116                           OCT      00116
001143: 06,3053           03070                           TC       CANZOPT                               #  CANCEL ZOPT
001144: 06,3054           03112                           TC       MANTOCSC                              #  ZERO CNT-LOOK FOR COARS OPT RETURN
001145:
001146: 06,3055           34702        COARSLOK           CAF      BIT9                                  #  IF COARS OPT SINCE FSTART GO TO L+2
001147: 06,3056           13064                           TCF      ZOPFIN2                               #  IF NOT GO TO L+1
001148: 06,3057           34712        ZOPFINI            CAF      BIT1                                  #  SEE IF END ZOPT TASK WORKING
001149: 06,3060           71331                           MASK     OPTMODES
001150: 06,3061           10000                           CCS      A
001151: 06,3062           05222                           TC       RESUME                                #  ZOPT TASK WORKING-WAIT ONE SAMPLE PERIOD
001152:
001153: 06,3063           34710                           CAF      BIT3                                  #  TEST IF ZOPTICS PROCESSING
001154: 06,3064           71331        ZOPFIN2            MASK     OPTMODES                              #  RETURNS TO L+1 PROCESSING AND
001155: 06,3065           10000        ZOPFIN3            CCS      A
001156: 06,3066           24002                           INCR     Q                                     #  L+2 IF NOT
001157: 06,3067           00002                           TC       Q
001158:
001159: 06,3070           46211        CANZOPT            CS       SIX                                   #  CANCEL ZERO OPTICS
001160: 06,3071           71331                           MASK     OPTMODES                              #  ZERO ZOPT PROCESSING BIT-ENABLE OCDUFAIL
001161: 06,3072           55331                           TS       OPTMODES
001162: 06,3073           44712                           CS       BIT1                                  #  MAKE SURE ZERO OCDU IS OFF
001163: 06,3074           00006                           EXTEND
001164: 06,3075           03012                           WAND     CHAN12
001165: 06,3076           00002                           TC       Q
001166:


001168: 06,3077           11314        MANUDES            CCS      SWSAMPLE                              #  SEE IF SWITCH STILL IN MANUAL MODE
001169: 06,3100           03112                           TC       MANTOCSC                              #  NOW AT CSC
001170: 06,3101           03107                           TC       MANTOMAN                              #  STILL MANUAL
001171: 06,3102           11316                           CCS      WTOPTION                              #  ZOPTICS-LOOK AT ZOPTICS RETURN OPTION
001172: 06,3103           03105                           TC       +2                                    #  5 SEC RETURN GOOD-CONTINUE ZOPTICS
001173: 06,3104           03151                           TC       OPTZERO                               #  ZOPTICS MUST START ANEW
001174:
001175: 06,3105           03216                           TC       INITZOPT                              #  SHOW ZERO OPTICS PROCESSING
001176: 06,3106           03154                           TC       SETDESMD                              #  NORMAL EXIT
001177:
001178: 06,3107           11316        MANTOMAN           CCS      WTOPTION                              #  DECREMENT RETURN OPTION TIME
001179: 06,3110           55316                           TS       WTOPTION
001180: 06,3111           03154                           TC       SETDESMD
001181:
001182: 06,3112           34714        MANTOCSC           CAF      ZERO                                  #  CANCEL ZOPT RETURN OPTION IF SET
001183: 06,3113           55316                           TS       WTOPTION
001184: 06,3114           55317                           TS       ZOPTCNT
001185:
001186: 06,3115           03055                           TC       COARSLOK                              #  CHECK FOR COARS OPT RETURN
001187: 06,3116           03154                           TC       SETDESMD                              #  NO COARS TASK-NO ACTION
001188:
001189: 06,3117           34712                           CAF      ONE                                   #  SET COARS OPT WORKING
001190: 06,3120           55303                           TS       OPTIND
001191: 06,3121           34711                           CAF      BIT2                                  #  ENABLE OPTICS CDU ERROR CNTS
001192: 06,3122           00006                           EXTEND
001193: 06,3123           05012                           WOR      CHAN12
001194:
001195: 06,3124           03154                           TC       SETDESMD
001196:
001197: 06,3125           11314        CSCDES             CCS      SWSAMPLE                              #  SEE IF SWITCH STILL AT CSC
001198: 06,3126           03154                           TC       SETDESMD                              #  STILL AT CSC
001199: 06,3127           03133                           TC       CSCTOMAN                              #  MANUAL
001200: 06,3130           34705        CSCTOZOP           CAF      OCT40                                 #  ZOPTICS-INITIALIZE FOR ZOPT
001201: 06,3131           55317                           TS       ZOPTCNT
001202: 06,3132           03216                           TC       INITZOPT
001203:
001204: 06,3133           11303        CSCTOMAN           CCS      OPTIND                                #  SEE IF COARS WORKING
001205: 06,3134           03140                           TC       CANCOARS                              #  COARS WORKING-SWITCH NOT CSC-KILL COARS
001206: 06,3135           03140                           TC       CANCOARS
001207: 06,3136           03137                           TC       +1                                    #  NO COARS-NORMAL EXIT
001208: 06,3137           03154                           TC       SETDESMD


001210: 06,3140           37716        CANCOARS           CA       NEGONE
001211: 06,3141           55303                           TS       OPTIND                                #  SET OPTIND (-1) TO SHOW NOT WORKING
001212: 06,3142           44711                           CS       BIT2                                  #  DISABLE OCDU ERR CNTS
001213: 06,3143           00006                           EXTEND
001214: 06,3144           03012                           WAND     CHAN12
001215: 06,3145           41331                           CS       OPTMODES                              #  SET RETURN-TO-COARS BIT
001216: 06,3146           74702                           MASK     BIT9
001217: 06,3147           27331                           ADS      OPTMODES
001218:
001219: 06,3150           03154                           TC       SETDESMD
001220: 06,3151           03216        OPTZERO            TC       INITZOPT                              #  INITIALIZE ZERO OPTICS
001221:
001222: 06,3152           34705                           CA       OCT40                                 #  SET UP 32 SAMPLE WAIT
001223: 06,3153           55317        SETCNT             TS       ZOPTCNT
001224: 06,3154           31314        SETDESMD           CA       SWSAMPLE                              #  SET CURRENT SWITCH INDICATION-RESUME
001225: 06,3155           55315                           TS       DESOPMOD
001226: 06,3156           05222                           TC       RESUME
001227:
001228: 06,3157           34712        SETZOEND           CAF      BIT1                                  #  SEND ZERO OPTICS CDU
001229: 06,3160           00006                           EXTEND
001230: 06,3161           05012                           WOR      CHAN12
001231: 06,3162           34112                           CA       200MS                                 #  HOLD ZERO CDU FOR 200 MS
001232: 06,3163           05140                           TC       WAITLIST
001233: 06,3164     1331                                  EBANK=   OPTMODES
001234: 06,3164           03172 14062                     2CADR    ENDZOPT
001235:
001236: 06,3166           41331                           CS       OPTMODES                              #  SHOW ZOPTICS TASK WORKING
001237: 06,3167           74712                           MASK     BIT1
001238: 06,3170           27331                           ADS      OPTMODES
001239:
001240: 06,3171           03154                           TC       SETDESMD
001241:
001242: 06,3172           03210        ENDZOPT            TC       ZEROPCDU                              #  ZERO OCDU COUNTERS
001243: 06,3173           44712                           CS       BIT1                                  #  TURN OFF ZERO OCDU
001244: 06,3174           00006                           EXTEND
001245: 06,3175           03012                           WAND     CHAN12
001246: 06,3176           34112                           CAF      200MS                                 #  DELAY 200MS FOR CDUS TO RESYNCHRONIZE
001247: 06,3177           05161                           TC       VARDELAY
001248:
001249: 06,3200           41331                           CS       OPTMODES                              #  SHOW ZOPTICS SINCE LAST FRESH START
001250: 06,3201           74701                           MASK     BIT10                                 #        OR RESTART
001251: 06,3202           27331                           ADS      OPTMODES
001252:
001253: 06,3203           44716                           CS       SEVEN                                 #  ENABLE OCDUFAIL-SHOW OPTICS COMPLETE
001254: 06,3204           71331                           MASK     OPTMODES
001255: 06,3205           55331                           TS       OPTMODES
001256:
001257: 06,3206           03224                           TC       OCDUFTST                              #  CHECK OCDU FAIL BIT AFTER ENABLE


001259: 06,3207           05213                           TC       TASKOVER
001260:
001261: 06,3210           34714        ZEROPCDU           CAF      ZERO
001262: 06,3211           54036                           TS       CDUS                                  #  ZERO IN CDUS, -20 IN CDUT
001263: 06,3212           55307                           TS       ZONE                                  #  INITIALIZE SHAFT MONITOR ZONE
001264: 06,3213           43261                           CS       20DEGS
001265: 06,3214           54035                           TS       CDUT
001266: 06,3215           00002                           TC       Q
001267:
001268: 06,3216           34714        INITZOPT           CAF      ZERO                                  #  INITIALIZE ZOPTICS-INHIBIT OCDUFAIL
001269: 06,3217           55316                           TS       WTOPTION                              #  AND SHOW OPTICS PROCESSING
001270: 06,3220           41331                           CS       OPTMODES                              #  SET ZERO OPTICS PROCESSING
001271: 06,3221           76211                           MASK     SIX                                   #        OPTICS CDU FAIL INHIBITED
001272: 06,3222           27331                           ADS      OPTMODES
001273: 06,3223           00002                           TC       Q
001274:


001276: 06,3224           34704        OCDUFTST           CAF      BIT7                                  #  SEE IF OCDUFAIL ON OR OFF
001277: 06,3225           00006                           EXTEND
001278: 06,3226           02030                           RAND     CHAN30
001279: 06,3227           10000                           CCS      A
001280: 06,3230           13252                           TCF      OPFAILOF                              #  OCDUFAIL LIGHT OFF
001281:
001282: 06,3231           34711                           CAF      BIT2                                  #  OCDUFAIL LIGHT ON UNLESS INHIBITED
001283: 06,3232           71331                           MASK     OPTMODES
001284: 06,3233           10000                           CCS      A
001285: 06,3234           00002                           TC       Q                                     #  OCDUFAIL INHIBITED
001286:
001287: 06,3235           34703        OPFAILON           CAF      BIT8                                  #  ON BIT
001288: 06,3236           61036                           AD       DSPTAB     +11D
001289: 06,3237           74703                           MASK     BIT8
001290: 06,3240           00006        SETOFF             EXTEND
001291: 06,3241           16711                           BZF      TCQ                                   #  NO CHANGE
001292:
001293: 06,3242           54001                           TS       L
001294: 06,3243           31036                           CA       DSPTAB     +11D
001295: 06,3244           00006                           EXTEND
001296: 06,3245           06001                           RXOR     LCHAN
001297: 06,3246           74672                           MASK     POSMAX
001298: 06,3247           64674                           AD       BIT15                                 #  SHOW ACTION WANTED
001299: 06,3250           55036                           TS       DSPTAB     +11D
001300: 06,3251           00002                           TC       Q
001301:
001302: 06,3252           34712        OPFAILOF           CAF      BIT1                                  #  DONT TURN OFF IF LAMP TEST
001303: 06,3253           71321                           MASK     IMODES33
001304: 06,3254           10000                           CCS      A
001305: 06,3255           00002                           TC       Q                                     #  LAMP TEST IN PROGRESS
001306:
001307: 06,3256           34703                           CAF      BIT8                                  #  TURN OFF OCDUFAIL LIGHT
001308: 06,3257           71036                           MASK     DSPTAB     +11D
001309: 06,3260           13240                           TCF      SETOFF
001310:
001311: 06,3261     4717               OCT13              =        ELEVEN
001312: 06,3261     4722               OCTHIRTY           EQUALS   BITS4&5
001313: 06,3261           16037        20DEGS             DEC      7199       B-14
001314: 06,3262     4705               OCT40              EQUALS   BIT6
001315: 06,3262     4112               200MS              EQUALS   OCT24
001316:


001318:                                                                                                  #  OPTICS CDU DRIVING PROGRAM
001319:
001320: 10,2000                                           BANK     10
001321: 10,2000                                           SETLOC   OPTDRV
001322: 10,2000                                           BANK
001323: 10,2000                                           COUNT*   $$/SXT
001324:
001325:                                                                                                  #  SHAFT STOP MONITOR-ZONE UPDATE
001326: 10,2000           30036        OPTDRIVE           CA       CDUS                                  #  GRAB OPTIC SHAFT CDU
001327: 10,2001           54001                           TS       L
001328: 10,2002           10000                           CCS      A                                     #  GET ABS(CDUS)
001329: 10,2003           67707                           AD       13,14,15
001330: 10,2004           12006                           TCF      +2                                    #  ABS(CDUS) - 45 DEG
001331: 10,2005           12003                           TCF      -2
001332: 10,2006           00006                           EXTEND
001333: 10,2007           62016                           BZMF     OZONE                                 #  LESS THAN 45 DEG-SET ZONE 0
001334: 10,2010           31307                           CA       ZONE                                  #  IF ZONE ZERO, CHANGE TO + OR - OTHERWISE
001335: 10,2011           00006                           EXTEND                                         #  DONT MESS WITH ZONE
001336: 10,2012           12014                           BZF      +2
001337: 10,2013           12020                           TCF      CONTDRVE                              #  JUST CONTINUE
001338: 10,2014           56001                           XCH      L                                     #  GREATER THAN 45 DEG-SET ZONE TO SIGN CDU
001339: 10,2015           12017                           TCF      OZONE      +1
001340: 10,2016           34714        OZONE              CAF      ZERO                                  #  ABS(CDUS) LESS THEN 90 DEG-ZONE ZERO
001341: 10,2017           55307                           TS       ZONE
001342: 10,2020                                           COUNT*   $$/T4RUPT
001343: 10,2020           11303        CONTDRVE           CCS      OPTIND
001344: 10,2021           02025                           TC       +4                                    #  WORK COARS OPTICS
001345: 10,2022           02025                           TC       +3                                    #  WORK COARS OPTICS
001346: 10,2023           05222                           TC       RESUME                                #  NO OPT
001347: 10,2024           05222                           TC       RESUME                                #  NO OPT
001348:
001349: 10,2025           31314                           CA       SWSAMPLE                              #  SEE IF SWITCH AT CMC
001350: 10,2026           00006                           EXTEND
001351: 10,2027           65222                           BZMF     RESUME                                #  ZERO (-1)     MANUAL (+0)
001352:
001353: 10,2030           34701                           CAF      BIT10                                 #  SEE IF OCDUS ZEROED SINCE LAST FSTART
001354: 10,2031           71331                           MASK     OPTMODES
001355: 10,2032           10000                           CCS      A
001356: 10,2033           02036                           TC       +3
001357: 10,2034           05537                           TC       ALARM                                 #  OPTICS NOT ZEROED
001358: 10,2035           00120                           OCT      00120
001359:
001360: 10,2036           34711                           CA       BIT2                                  #  SEE IF ERR CNTS ENABLED
001361: 10,2037           00006                           EXTEND
001362: 10,2040           02012                           RAND     CHAN12
001363: 10,2041           00006                           EXTEND
001364: 10,2042           12175                           BZF      SETBIT                                #  CNTS NOT ENABLED-DO IT AND RESUME
001365:
001366: 10,2043           34712                           CAF      ONE                                   #  INITIALIZE OPTIND


001368: 10,2044           55303        OPT2               TS       OPTIND
001369: 10,2045           00006                           EXTEND
001370: 10,2046           12132                           BZF      TRUNCMD                               #  CHECK TRUNION COMMAND
001371:
001372: 10,2047           51303        GETOPCMD           INDEX    OPTIND
001373: 10,2050           31160                           CA       DESOPTT                               #  PICK UP DESIRED OPT ANGLE
001374: 10,2051           00006                           EXTEND
001375: 10,2052           51303                           INDEX    OPTIND
001376: 10,2053           20035                           MSU      CDUT                                  #  GET DIFFERENCE
001377: 10,2054           00006                           EXTEND
001378: 10,2055           74676                           MP       BIT13
001379: 10,2056           56001                           XCH      L
001380: 10,2057           60000                           DOUBLE
001381: 10,2060           54061                           TS       ITEMP1
001382: 10,2061           12063                           TCF      +2                                    #  NO OVFL
001383:
001384: 10,2062           26001                           ADS      L                                     #  WITH OVFL
001385: 10,2063           51303        STORCMD            INDEX    OPTIND
001386: 10,2064           23305                           LXCH     COMMANDO                              #  STORE COMMAND
001387: 10,2065           11303                           CCS      OPTIND
001388: 10,2066           12044                           TCF      OPT2                                  #  GET NEXT COMMAND
001389:
001390: 10,2067           54061                           TS       ITEMP1                                #  INITIALIZE SEND INDICATOR TO ZERO
001391: 10,2070                                           COUNT*   $$/SXT
001392:
001393:                                                                                                  #  SHAFT STOP AVOIDANCE
001394:
001395: 10,2070           10036                           CCS      CDUS                                  #  IF CDUS GREATER THAN + OR - 90 DEG CHECK
001396: 10,2071           64673                           AD       NEG1/2                                #  FOR POSSIBLE STOP PROBLEM
001397: 10,2072           12074                           TCF      +2
001398: 10,2073           12071                           TCF      -2
001399: 10,2074           00006                           EXTEND
001400: 10,2075           62122                           BZMF     CMDSETUP                              #  CDUS LESS THAN 90 DEG, NO PROBLEMS
001401:
001402: 10,2076           31307                           CA       ZONE
001403: 10,2077           00006                           EXTEND
001404: 10,2100           12122                           BZF      CMDSETUP                              #  ZONE=3, NORMAL COMMAND
001405: 10,2101           74674                           MASK     BIT15                                 #  GRAB SIGN OF ZONE
001406: 10,2102           54001                           TS       L
001407: 10,2103           31306                           CA       COMMANDO   +1
001408: 10,2104           74674                           MASK     BIT15                                 #  GRAB SIGN OF SHAFT COMMAND
001409: 10,2105           00006                           EXTEND
001410: 10,2106           06001                           RXOR     LCHAN
001411: 10,2107           10000                           CCS      A
001412: 10,2110           12122                           TCF      CMDSETUP                              #  SIGN ZONE NOT EQUAL TO SIGN COMMAND
001413: 10,2111           11161                           CCS      DESOPTS                               #  SEE IF DESOPTS BETWEEN -90 AND +90
001414: 10,2112           64673                           AD       NEG1/2
001415: 10,2113           12115                           TCF      +2                                    #  ABS(DESOPTS) - 90 DEG
001416: 10,2114           12112                           TCF      -2
001417: 10,2115           00006                           EXTEND


001419: 10,2116           62120                           BZMF     +2                                    #  DESOPTS IN FIRST OR FOURTH QUAD
001420: 10,2117           12122                           TCF      CMDSETUP
001421: 10,2120           41306                           CS       COMMANDO   +1                         #  REVERSE REGULAR COMMAND
001422: 10,2121           55306                           TS       COMMANDO   +1
001423:
001424: 10,2122                                           COUNT*   $$/T4RPT
001425:
001426: 10,2122           34712        CMDSETUP           CAF      ONE                                   #  SET OPTIND
001427: 10,2123           55303                           TS       OPTIND
001428: 10,2124           50000                           INDEX    A
001429: 10,2125           11305                           CCS      COMMANDO                              #  GET SIGN OF COMMAND
001430: 10,2126           02144                           TC       POSOPCMD
001431: 10,2127           02151                           TC       NEXTOPT    +1                         #  ZERO COMMAND-SKIP SEND INDICATOR
001432: 10,2130           02161                           TC       NEGOPCMD
001433: 10,2131           02151                           TC       NEXTOPT    +1                         #  ZERO COMMAND
001434:
001435: 10,2132           40035        TRUNCMD            CS       CDUT                                  #  IF COMMAND GREATER THAN 45 DEG-COMMAND
001436: 10,2133           61160                           AD       DESOPTT                               #  45 DEG
001437: 10,2134           54002                           TS       Q
001438: 10,2135           02047                           TC       GETOPCMD                              #  LESS THAN 45 DEG-NORMAL OPERATION
001439:
001440: 10,2136           10000                           CCS      A                                     #  GREATER THAN 45 DEG-USE OPSMAX WITH
001441: 10,2137           34672                           CA       POSMAX                                #  CORRECT SIGN
001442: 10,2140           02142                           TC       +2
001443: 10,2141           44672                           CS       POSMAX
001444: 10,2142           54001                           TS       L
001445: 10,2143           02063                           TC       STORCMD
001446: 10,2144           62202        POSOPCMD           AD       MAXPLS1
001447: 10,2145           00006                           EXTEND
001448: 10,2146           62166                           BZMF     DELOPCMD                              #  COMMAND LESS THAN MAX PULSE
001449: 10,2147           42201                           CS       MAXPLS                                #  GREATER THAN MAX PULSE-USE MAX PULSE
001450:
001451: 10,2150           24061        NEXTOPT            INCR     ITEMP1                                #  SET SEND INDICATOR
001452: 10,2151           64713                           AD       NEG0                                  #  MAKE SURE ZERO COMMAND IS -ZERO
001453: 10,2152           51303                           INDEX    OPTIND
001454: 10,2153           54053                           TS       CDUTCMD                               #  STORE PULSE IN SEND REG
001455:
001456: 10,2154           11303                           CCS      OPTIND
001457: 10,2155           02123                           TC       CMDSETUP   +1                         #  GET NEXT OPT
001458:
001459: 10,2156           10061                           CCS      ITEMP1                                #  ARE ANY PULSES TO GO
001460: 10,2157           12171                           TCF      SENDOCMD                              #  YES-SEND EM
001461: 10,2160           05222                           TC       RESUME                                #  NO
001462:
001463: 10,2161           62202        NEGOPCMD           AD       MAXPLS1
001464: 10,2162           00006                           EXTEND
001465: 10,2163           62166                           BZMF     DELOPCMD                              #  LESS THAN MAX PULSE
001466: 10,2164           32201                           CA       MAXPLS                                #  MAX PULSES
001467: 10,2165           12150                           TCF      NEXTOPT


001469: 10,2166           51303        DELOPCMD           INDEX    OPTIND
001470: 10,2167           57305                           XCH      COMMANDO                              #  SET UP SMALL COMMAND
001471: 10,2170           12150                           TCF      NEXTOPT
001472:
001473: 10,2171           34755        SENDOCMD           CAF      11,12                                 #  SEND OCDU DRIVE COMMANDS
001474: 10,2172           00006                           EXTEND
001475: 10,2173           05014                           WOR      CHAN14
001476: 10,2174           05222                           TC       RESUME
001477:
001478: 10,2175           34711        SETBIT             CAF      BIT2                                  #  ENABLE OCDU ERR CNTS
001479: 10,2176           00006                           EXTEND
001480: 10,2177           05012                           WOR      CHAN12
001481: 10,2200           05222                           TC       RESUME                                #  START COARS NEXT TIME AROUND
001482:
001483: 10,2201           77532        MAXPLS             DEC      -165       B-14                       #  WAS -80
001484: 10,2202           77533        MAXPLS1            DEC      -164       B-14                       #  WAS -79
001485: 10,2203     4755               11,12              EQUALS   PRIO6
001486:

End of include-file T4RUPT_PROGRAM.agc.  Parent file is MAIN.agc


