
Source Code


000002:                                                                                                  ## Copyright:   Public domain.
000003:                                                                                                  ## Filename:    TAGS_FOR_RELATIVE_SETLOC.agc
000004:                                                                                                  ## Purpose:     Part of the source code for Colossus, build 249.
000005:                                                                                                  ##              It is part of the source code for the Command Module's (CM)
000006:                                                                                                  ##              Apollo Guidance Computer (AGC), for Apollo 9.
000007:                                                                                                  ## Assembler:   yaYUL
000008:                                                                                                  ## Reference:   pp. 25-33 of 1701.pdf.
000009:                                                                                                  ## Contact:     Ron Burkey <info@sandroid.org>.
000010:                                                                                                  ## Website:     www.ibiblio.org/apollo.
000011:                                                                                                  ## Mod history: 08/02/04 RSB    Adapted from similar Luminary 131 file.
000012:                                                                                                  ##              05/06/09 RSB    Made a few comment corrections I noticed
000013:                                                                                                  ##                              were needed when adapting for Comanche 055.
000014:                                                                                                  ##              2017-01-05 RSB  Page numbers now agree with those on the
000015:                                                                                                  ##                              original harcopy, as opposed to the PDF page
000016:                                                                                                  ##                              numbers in 1701.pdf.
000017:                                                                                                  ##              2017-01-20 RSB  Cross-diff'd comment text (not whitespace)
000018:                                                                                                  ##                              vs the already-proofed corresponding Colossus
000019:                                                                                                  ##                              237 and Comanche 55 source-code files
000020:                                                                                                  ##                              and corrected errors found.
000021:                                                                                                  ##
000022:                                                                                                  ## The contents of the "Colossus249" files, in general, are transcribed
000023:                                                                                                  ## from a scanned copy of the program listing.  Notations on this
000024:                                                                                                  ## document read, in part:
000025:                                                                                                  ##
000026:                                                                                                  ##      Assemble revision 249 of AGC program Colossus by NASA
000027:                                                                                                  ##      2021111-041.  October 28, 1968.
000028:                                                                                                  ##
000029:                                                                                                  ##      This AGC program shall also be referred to as
000030:                                                                                                  ##                              Colossus 1A
000031:                                                                                                  ##
000032:                                                                                                  ##      Prepared by
000033:                                                                                                  ##                      Massachusetts Institute of Technology
000034:                                                                                                  ##                      75 Cambridge Parkway
000035:                                                                                                  ##                      Cambridge, Massachusetts
000036:                                                                                                  ##      under NASA contract NAS 9-4065.
000037:                                                                                                  ##
000038:                                                                                                  ## Refer directly to the online document mentioned above for further information.
000039:                                                                                                  ## Please report any errors (relative to the scanned pages) to info@sandroid.org.
000040:                                                                                                  ##
000041:                                                                                                  ## In some cases, where the source code for Luminary 131 overlaps that of
000042:                                                                                                  ## Colossus 249, this code is instead copied from the corresponding Luminary 131
000043:                                                                                                  ## source file, and then is proofed to incorporate any changes.
000044:


000046: ???????                        FIXED              MEMORY   120000     -          167777
000047: ???????                                           COUNT    BANKSUM
000048:
000049:                                                                                                  #  MODULE 1 CONTAINS BANKS 0 THROUGH 5
000050:
000051:    4000                                           BLOCK    02
000052:    4000                        FFTAG1             EQUALS
000053:    4000                        FFTAG2             EQUALS
000054:    4000                        FFTAG3             EQUALS
000055:    4000                        FFTAG4             EQUALS
000056:    4000                        FFTAG7             EQUALS
000057:    4000                        FFTAG8             EQUALS
000058:    4000                        FFTAG9             EQUALS
000059:    4000                        FFTAG10            EQUALS
000060:    4000                        FFTAG12            EQUALS
000061:    4000                                           BNKSUM   02
000062:
000063:    6000                                           BLOCK    03
000064:    6000                        FFTAG5             EQUALS
000065:    6000                        FFTAG6             EQUALS
000066:    6000                                           BNKSUM   03
000067:
000068: 00,2000                                           BANK     00
000069: 00,2000                        DLAYJOB            EQUALS
000070: 00,2000                                           BNKSUM   00
000071:
000072: 01,2000                                           BANK     01
000073: 01,2000                        RESTART            EQUALS
000074: 01,2000                                           BNKSUM   01
000075:
000076: 04,2000                                           BANK     04
000077: 04,2000                        VERB37             EQUALS
000078: 04,2000                        CONICS1            EQUALS
000079: 04,2000                        PINBALL4           EQUALS
000080: 04,2000                        R36LM              EQUALS
000081: 04,2000                        INTPRET2           EQUALS
000082: 04,2000                        IMUCAL1            EQUALS
000083: 04,2000                        STBLEORB           EQUALS
000084: 04,2000                        E/PROG             EQUALS
000085: 04,2000                        MIDDGIM            EQUALS
000086:
000087: 04,2000                                           BNKSUM   04
000088:


000090:
000091: 05,2000                                           BANK     05
000092: 05,2000                        FRANDRES           EQUALS
000093: 05,2000                        DOWNTELM           EQUALS
000094: 05,2000                        DAPMASS            EQUALS
000095: 05,2000                                           BNKSUM   05
000096:
000097:                                                                                                  #  MODULE 2 CONTAINS BANKS 6 THROUGH 13
000098:
000099: 06,2000                                           BANK     06
000100: 06,2000                        IMUCOMP            EQUALS
000101: 06,2000                        T4RUP              EQUALS
000102: 06,2000                        IMUCAL2            EQUALS
000103: 06,2000                                           BNKSUM   06
000104:
000105: 07,2000                                           BANK     07
000106: 07,2000                        SXTMARKE           EQUALS
000107: 07,2000                        R02                EQUALS
000108: 07,2000                        MODESW             EQUALS
000109: 07,2000                        XANG               EQUALS
000110: 07,2000                        KEYRUPT            EQUALS
000111: 07,2000                                           BNKSUM   07
000112:
000113: 10,2000                                           BANK     10
000114: 10,2000                        DISPLAYS           EQUALS
000115: 10,2000                        PHASETAB           EQUALS
000116: 10,2000                        COMGEOM2           EQUALS
000117: 10,2000                        SXTMARK1           EQUALS
000118: 10,2000                        P60S4              EQUALS
000119: 10,2000                        OPTDRV             EQUALS
000120: 10,2000                                           BNKSUM   10
000121:
000122: 11,2000                                           BANK     11
000123: 11,2000                        ORBITAL            EQUALS
000124: 11,2000                        ORBITAL1           EQUALS                                         #  CONSTANTS
000125: 11,2000                        INTVEL             EQUALS
000126: 11,2000                        S52/2              EQUALS
000127: 11,2000                                           BNKSUM   11
000128:
000129: 12,2000                                           BANK     12
000130: 12,2000                        CONICS             EQUALS


000132: 12,2000                                           BNKSUM   12
000133:
000134: 13,2000                                           BANK     13
000135: 13,2000                        P76LOC             EQUALS
000136: 13,2000                        LATLONG            EQUALS
000137: 13,2000                        INTINIT            EQUALS
000138: 13,2000                        SR52/1             EQUALS
000139: 13,2000                        ORBITAL2           EQUALS
000140: 13,2000                                           BNKSUM   13
000141:                                                                                                  #  SPACER
000142:
000143:                                                                                                  #  MODULE 3 CONTAINS BANKS 14 THROUGH 21
000144:
000145: 14,2000                                           BANK     14
000146: 14,2000                        STARTAB            EQUALS
000147: 14,2000                        RT53               EQUALS
000148: 14,2000                        P50S1              EQUALS
000149: 14,2000                                           BNKSUM   14
000150:
000151: 15,2000                                           BANK     15
000152: 15,2000                        P50S               EQUALS
000153: 15,2000                        ETRYDAP            EQUALS
000154: 15,2000                        S52/3              EQUALS
000155: 15,2000                                           BNKSUM   15
000156:
000157: 16,2000                                           BANK     16
000158: 16,2000                        P40S1              EQUALS
000159: 16,2000                        DAPROLL            EQUALS
000160: 16,2000                        P50S2              EQUALS
000161: 16,2000                                           BNKSUM   16
000162:
000163: 17,2000                                           BANK     17
000164: 17,2000                        DAPS4              EQUALS
000165: 17,2000                        DAPS5              EQUALS
000166: 17,2000                        DAPS7              EQUALS
000167: 17,2000                                           BNKSUM   17
000168:
000169: 20,2000                                           BANK     20


000171: 20,2000                        DAPS6              EQUALS
000172: 20,2000                        DAPS1              EQUALS
000173: 20,2000                        DAPS2              EQUALS
000174: 20,2000                                           BNKSUM   20
000175:
000176: 21,2000                                           BANK     21
000177: 21,2000                        DAPS3              EQUALS
000178: 21,2000                        MYSUBS             EQUALS
000179: 21,2000                                           BNKSUM   21
000180:
000181:                                                                                                  #  MODULE 4 CONTAINS BANKS 22 THROUGH 27
000182:
000183: 22,2000                                           BANK     22
000184: 22,2000                        RTBCODES           EQUALS
000185: 22,2000                        RTBCODE1           EQUALS
000186: 22,2000                        DAPS8              EQUALS
000187: 22,2000                        APOPERI            EQUALS
000188: 22,2000                        P40S5              EQUALS
000189: 22,2000                        KALCMON2           EQUALS
000190: 22,2000                        KALCMON1           EQUALS
000191: 22,2000                                           BNKSUM   22
000192:
000193: 23,2000                                           BANK     23
000194: 23,2000                        P20S2              EQUALS
000195: 23,2000                        INFLIGHT           EQUALS
000196: 23,2000                        COMGEOM1           EQUALS
000197: 23,2000                        POWFLITE           EQUALS
000198: 23,2000                        POWFLIT1           EQUALS
000199: 23,2000                        RENDGUID           EQUALS
000200: 23,2000                        POWFLIT2           EQUALS
000201: 23,2000                        R30LOC             EQUALS
000202: 23,2000                        P11FOUR            EQUALS
000203: 23,2000                        P12A               EQUALS
000204: 23,2000                        NORMLIZ            EQUALS
000205: 23,2000                        ASENT7             EQUALS
000206: 23,2000                        RODTRAP            EQUALS
000207: 23,2000                                           BNKSUM   23
000208:
000209: 24,2000                                           BANK     24
000210: 24,2000                        LOADDAP            EQUALS
000211: 24,2000                        P40S               EQUALS
000212: 24,2000                                           BNKSUM   24
000213:
000214: 25,2000                                           BANK     25


000216: 25,2000                        REENTRY            EQUALS
000217: 25,2000                                           BNKSUM   25
000218:
000219: 26,2000                                           BANK     26
000220: 26,2000                        INTPRET1           EQUALS
000221: 26,2000                        REENTRY1           EQUALS
000222: 26,2000                        P60S               EQUALS
000223: 26,2000                        P60S1              EQUALS
000224: 26,2000                        P60S2              EQUALS
000225: 26,2000                        P60S3              EQUALS
000226: 26,2000                        PLANTIN            EQUALS                                         #  LUNAR ROT
000227: 26,2000                        EPHEM              EQUALS
000228: 26,2000                        P05P06             EQUALS
000229: 26,2000                        26P50S             EQUALS
000230: 26,2000                                           BNKSUM   26
000231:
000232: 27,2000                                           BANK     27
000233: 27,2000                        TOF-FF             EQUALS
000234: 27,2000                        TOF-FF1            EQUALS
000235: 27,2000                        MANUVER            EQUALS
000236: 27,2000                        MANUVER1           EQUALS
000237: 27,2000                        VECPT              EQUALS
000238: 27,2000                        UPDATE1            EQUALS
000239: 27,2000                        UPDATE2            EQUALS
000240: 27,2000                        R22S1              EQUALS
000241: 27,2000                        P60S5              EQUALS
000242: 27,2000                        RTE2               EQUALS
000243: 27,2000                                           BNKSUM   27
000244:
000245:                                                                                                  #  MODULE 5 CONTAINS BANKS 30 THROUGH 35
000246:
000247: 30,2000                                           BANK     30
000248: 30,2000                        IMUSUPER           EQUALS
000249: 30,2000                        LOWSUPER           EQUALS
000250: 30,2000                        FCSTART            EQUALS                                         #  STANDARD LOCATION FOR THIS.  (FOR EXTVB)
000251: 30,2000                        LOPC               EQUALS
000252: 30,2000                        P20S1              EQUALS
000253: 30,2000                        P20S6              EQUALS
000254: 30,2000                        P40S3              EQUALS
000255: 30,2000                        R35A               EQUALS
000256: 30,2000                                           BNKSUM   30
000257:


000259: 31,2000                                           BANK     31
000260: 31,2000                        R35                EQUALS
000261: 31,2000                        RT23               EQUALS
000262: 31,2000                        P30S1A             EQUALS
000263: 31,2000                        R34                EQUALS
000264: 31,2000                                           BNKSUM   31
000265:
000266: 32,2000                                           BANK     32
000267: 32,2000                        MSGSCAN1           EQUALS
000268: 32,2000                        RTE                EQUALS
000269: 32,2000                        DELRSPL1           EQUALS
000270: 32,2000                        IMUCAL3            EQUALS
000271: 32,2000                                           BNKSUM   32
000272:
000273: 33,2000                                           BANK     33
000274: 33,2000                        TESTLEAD           EQUALS
000275: 33,2000                        IMUCAL             EQUALS
000276: 33,2000                                           BNKSUM   33
000277:
000278: 34,2000                                           BANK     34
000279: 34,2000                        P11ONE             EQUALS
000280: 34,2000                        P20S3              EQUALS
000281: 34,2000                        P20S4              EQUALS
000282: 34,2000                        RTECON             EQUALS
000283: 34,2000                                           BNKSUM   34
000284:
000285: 35,2000                                           BANK     35
000286: 35,2000                        RTECON1            EQUALS
000287: 35,2000                        CSI/CDH            EQUALS
000288: 35,2000                        P30S1              EQUALS
000289: 35,2000                        P30S               EQUALS
000290: 35,2000                        R31                EQUALS
000291: 35,2000                        P17S1              EQUALS
000292: 35,2000                                           BNKSUM   35
000293:
000294:                                                                                                  #  MODULE 6 CONTAINS BANKS 36 THROUGH 43
000295:
000296: 36,2000                                           BANK     36
000297: 36,2000                        MEASINC            EQUALS
000298: 36,2000                        MEASINC1           EQUALS


000300: 36,2000                        P17S               EQUALS
000301: 36,2000                        RTE1               EQUALS
000302: 36,2000                                           BNKSUM   36
000303:
000304: 37,2000                                           BANK     37
000305: 37,2000                        P20S               EQUALS
000306: 37,2000                        BODYATT            EQUALS
000307: 37,2000                        RENDEZ             EQUALS
000308: 37,2000                        SERVICES           EQUALS
000309: 37,2000                        P11TWO             EQUALS
000310: 37,2000                                           BNKSUM   37
000311:
000312: 40,2000                                           BANK     40
000313: 40,2000                        PINSUPER           EQUALS
000314: 40,2000                        SELFSUPR           EQUALS
000315: 40,2000                        PINBALL1           EQUALS
000316: 40,2000                                           BNKSUM   40
000317:
000318: 41,2000                                           BANK     41
000319: 41,2000                        PINBALL2           EQUALS
000320: 41,2000                                           BNKSUM   41
000321:
000322: 42,2000                                           BANK     42
000323: 42,2000                        SBAND              EQUALS
000324: 42,2000                        PINBALL3           EQUALS
000325: 42,2000                        EXTVBS             EQUALS
000326: 42,2000                                           BNKSUM   42
000327:
000328: 43,2000                                           BANK     43
000329: 43,2000                        SELFCHEC           EQUALS
000330: 43,2000                        EXTVERBS           EQUALS
000331: 43,2000                                           BNKSUM   43
000332:
000333: 43,2000  26,3331               HI6ZEROS           EQUALS   ZEROVECS                              #  ZERO VECTOR ALWAYS IN HIGH MEMORY
000334: 43,2000  04,3455               LO6ZEROS           EQUALS   ZEROVEC                               #  ZERO VECTOR ALWAYS IN LOW MEMORY
000335: 43,2000  26,3327               HIDPHALF           EQUALS   UNITX
000336: 43,2000  04,3453               LODPHALF           EQUALS   XUNIT
000337: 43,2000  26,3321               HIDP1/4            EQUALS   DP1/4TH


000339: 43,2000  04,3501               LODP1/4            EQUALS   D1/4                                  #  2DEC .25
000340: 43,2000  26,3327               HIUNITX            EQUALS   UNITX
000341: 43,2000  26,3325               HIUNITY            EQUALS   UNITY
000342: 43,2000  26,3323               HIUNITZ            EQUALS   UNITZ
000343: 43,2000  04,3453               LOUNITX            EQUALS   XUNIT                                 #  2DEC .5
000344: 43,2000  04,3451               LOUNITY            EQUALS   YUNIT                                 #  2DEC 0
000345: 43,2000  04,3447               LOUNITZ            EQUALS   ZUNIT                                 #  2DEC 0
000346: 43,2000  11,3706               3/4LOWDP           EQUALS   3/4                                   #  2DEC 3.0 B-2
000347:
000348: 43,2000  30,2000                                  SBANK=   LOWSUPER
000349:
000350:                                                                                                  #  ROPE SPECIFIC ASSIGNS OBVIATING NEED TO CHECK COMPUTER FLAG IN DETVRUZVING INTEGRATION AREA ENTRIES
000351:
000352: 43,2000  13,3036               OTHPREC            EQUALS   LEMPREC
000353: 43,2000  13,2711               ATOPOTH            EQUALS   ATOPLEM
000354: 43,2000  13,2636               ATOPTHIS           EQUALS   ATOPCSM
000355: 43,2000  0000173               MOONTHIS           EQUALS   CMOONFLG
000356: 43,2000  0000174               MOONOTH            EQUALS   LMOONFLG
000357: 43,2000  13,2651               MOVATHIS           EQUALS   MOVEACSM
000358: 43,2000  35,3204               STATEST            EQUALS   V83CALL                               #  * TEMPORARY
000359: 43,2000  13,3022               THISPREC           EQUALS   CSMPREC
000360: 43,2000  26,3327               THISAXIS           =        UNITX
000361: 43,2000     4747               ERASID             EQUALS   LOW10                                 #  DOWNLINK ERASABLE DUMP ID
000362: 43,2000     6214               DELAYNUM           EQUALS   THREE
000363:
000364:                                                                                                  # ****************************************************************************************************************
000365:
000366:                                                                                                  #  THE FOLLOWING ECADRS ARE DEFINED TO FACILITATE EBANK SWITCHING.  THEY ALSO MAKE IT EASIER FOR
000367:                                                                                                  #  ERASABLE CONTROL TO REARRANGE ERASABLE MEMORY WITHOUT DISRUPTING THE PROGRAMS WHICH SET EBANKS.
000368:                                                                                                  #  PRIOR TO ROPE RELEASE FIXED MEMORY CAN BE SAVED BY SETTING EACH EBXXXX =EBANKX (X=4,5,6,7).  EBANKX OF COURSE
000369:                                                                                                  #  WILL BE THE BANK WHERE THE ERASABLES REFERENCED IN EBXXXX WILL BE STORED.
000370:
000371: 07,2000                                           BANK     7
000372: 07,2000  E7,1674                                  EBANK=   MARKDOWN
000373: 07,2000           03674        EBMARKDO           ECADR    MARKDOWN
000374: 07,2001  E7,1725                                  EBANK=   MRKBUF1
000375: 07,2001           03725        EBMRKBUF           ECADR    MRKBUF1
000376:
000377: 24,2000                                           BANK     24
000378: 24,2000  E7,1431                                  EBANK=   DVCNTR
000379: 24,2000           03431        EBDVCNTR           ECADR    DVCNTR
000380: 24,2001  E7,1672                                  EBANK=   P40TMP
000381: 24,2001           03672        EBP40TMP           ECADR    P40TMP
000382:
000383: 34,2000                                           BANK     34
000384: 34,2000  E7,1431                                  EBANK=   DVCNTR
000385: 34,2000           03431        EBDVCNT            ECADR    DVCNTR
000386: 34,2001  E5,1426                                  EBANK=   QPLACES
000387: 34,2001           02426        EBQPLACE           ECADR    QPLACES
000388:
000389: 37,2000                                           BANK     37
000390: 37,2000     1231                                  EBANK=   RN1


000392: 37,2000           01231        EBRN1              ECADR    RN1
000393:
000394:                                                                                                  # ****************************************************************************************************************
000395:

End of include-file TAGS_FOR_RELATIVE_SETLOC_AND_BLANK_BANK_CARDS.agc.  Parent file is MAIN.agc


