
Source Code
000001:                                                                                                 #  Copyright:     Public domain.
000002:                                                                                                 #  Filename:      TAGS_FOR_RELATIVE_SETLOC.agc
000003:                                                                                                 #  Purpose:       Part of the source code for Colossus, build 249.
000004:                                                                                                 #                 It is part of the source code for the Command Module's (CM)
000005:                                                                                                 #                 Apollo Guidance Computer (AGC), possibly for Apollo 8 and 9.
000006:                                                                                                 #  Assembler:     yaYUL
000007:                                                                                                 #  Reference:     pp. 27-36 of 1701.pdf.
000008:                                                                                                 #  Contact:       Ron Burkey <info@sandroid.org>.
000009:                                                                                                 #  Website:       www.ibiblio.org/apollo.
000010:                                                                                                 #  Mod history:   08/02/04 RSB    Adapted from similar Luminary 131 file.
000011:                                                                                                 #                 05/06/09 RSB    Made a few comment corrections I noticed
000012:                                                                                                 #                                 were needed when adapting for Comanche 055.
000013:
000014:                                                                                                 #  The contents of the "Colossus249" files, in general, are transcribed
000015:                                                                                                 #  from a scanned document obtained from MIT's website,
000016:                                                                                                 #  http://hrst.mit.edu/hrs/apollo/public/archive/1701.pdf.  Notations on this
000017:                                                                                                 #  document read, in part:
000018:
000019:                                                                                                 #         Assemble revision 249 of AGC program Colossus by NASA
000020:                                                                                                 #         2021111-041.  October 28, 1968.
000021:
000022:                                                                                                 #         This AGC program shall also be referred to as
000023:                                                                                                 #                                 Colossus 1A
000024:
000025:                                                                                                 #         Prepared by
000026:                                                                                                 #                         Massachussets Institute of Technology
000027:                                                                                                 #                         75 Cambridge Parkway
000028:                                                                                                 #                         Cambridge, Massachusetts
000029:                                                                                                 #         under NASA contract NAS 9-4065.
000030:
000031:                                                                                                 #  Refer directly to the online document mentioned above for further information.
000032:                                                                                                 #  Please report any errors (relative to 1701.pdf) to info@sandroid.org.
000033:
000034:                                                                                                 #  In some cases, where the source code for Luminary 131 overlaps that of
000035:                                                                                                 #  Colossus 249, this code is instead copied from the corresponding Luminary 131
000036:                                                                                                 #  source file, and then is proofed to incorporate any changes.
000037:
000038:                                                                                                 #  Page 27
000039:                                                                                                 #  TAGS FOR RELATIVE SETLOC AND BLANK BANK CARDS
000040:
000041: ???????                        FIXED             MEMORY   120000     -          167777
000042: ???????                                          COUNT    BANKSUM
000043:
000044:                                                                                                 #  MODULE 1 CONTAINS BANKS 0 THROUGH 5
000045:
000046:    4000                                          BLOCK    02
000047:    4000                        FFTAG1            EQUALS
000048:    4000                        FFTAG2            EQUALS
000049:    4000                        FFTAG3            EQUALS
000050:    4000                        FFTAG4            EQUALS
000051:    4000                        FFTAG7            EQUALS
000052:    4000                        FFTAG8            EQUALS
000053:    4000                        FFTAG9            EQUALS
000054:    4000                        FFTAG10           EQUALS
000055:    4000                        FFTAG12           EQUALS
000056:    4000                                          BNKSUM   02
000057:
000058:    6000                                          BLOCK    03
000059:    6000                        FFTAG5            EQUALS
000060:    6000                        FFTAG6            EQUALS
000061:    6000                                          BNKSUM   03
000062:
000063: 00,2000                                          BANK     00
000064: 00,2000                        DLAYJOB           EQUALS
000065: 00,2000                                          BNKSUM   00
000066:
000067: 01,2000                                          BANK     01
000068: 01,2000                        RESTART           EQUALS
000069: 01,2000                                          BNKSUM   01
000070:
000071: 04,2000                                          BANK     04
000072: 04,2000                        VERB37            EQUALS
000073: 04,2000                        CONICS1           EQUALS
000074: 04,2000                        PINBALL4          EQUALS
000075: 04,2000                        R36LM             EQUALS
000076: 04,2000                        INTPRET2          EQUALS
000077: 04,2000                        IMUCAL1           EQUALS
000078: 04,2000                        STBLEORB          EQUALS
000079: 04,2000                        E/PROG            EQUALS
000080: 04,2000                        MIDDGIM           EQUALS
000081:
000082: 04,2000                                          BNKSUM   04
000083:
000084:                                                                                                 #  Page 28
000085:
000086: 05,2000                                          BANK     05
000087: 05,2000                        FRANDRES          EQUALS
000088: 05,2000                        DOWNTELM          EQUALS
000089: 05,2000                        DAPMASS           EQUALS
000090: 05,2000                                          BNKSUM   05
000091:
000092:                                                                                                 #  MODULE 2 CONTAINS BANKS 6 THROUGH 13
000093:
000094: 06,2000                                          BANK     06
000095: 06,2000                        IMUCOMP           EQUALS
000096: 06,2000                        T4RUP             EQUALS
000097: 06,2000                        IMUCAL2           EQUALS
000098: 06,2000                                          BNKSUM   06
000099:
000100: 07,2000                                          BANK     07
000101: 07,2000                        SXTMARKE          EQUALS
000102: 07,2000                        R02               EQUALS
000103: 07,2000                        MODESW            EQUALS
000104: 07,2000                        XANG              EQUALS
000105: 07,2000                        KEYRUPT           EQUALS
000106: 07,2000                                          BNKSUM   07
000107:
000108: 10,2000                                          BANK     10
000109: 10,2000                        DISPLAYS          EQUALS
000110: 10,2000                        PHASETAB          EQUALS
000111: 10,2000                        COMGEOM2          EQUALS
000112: 10,2000                        SXTMARK1          EQUALS
000113: 10,2000                        P60S4             EQUALS
000114: 10,2000                        OPTDRV            EQUALS
000115: 10,2000                                          BNKSUM   10
000116:
000117: 11,2000                                          BANK     11
000118: 11,2000                        ORBITAL           EQUALS
000119: 11,2000                        ORBITAL1          EQUALS                                         #  CONSTANTS
000120: 11,2000                        INTVEL            EQUALS
000121: 11,2000                        S52/2             EQUALS
000122: 11,2000                                          BNKSUM   11
000123:
000124: 12,2000                                          BANK     12
000125: 12,2000                        CONICS            EQUALS
000126:                                                                                                 #  Page 29
000127: 12,2000                                          BNKSUM   12
000128:
000129: 13,2000                                          BANK     13
000130: 13,2000                        P76LOC            EQUALS
000131: 13,2000                        LATLONG           EQUALS
000132: 13,2000                        INTINIT           EQUALS
000133: 13,2000                        SR52/1            EQUALS
000134: 13,2000                        ORBITAL2          EQUALS
000135: 13,2000                                          BNKSUM   13
000136:
000137:                                                                                                 #  MODULE 3 CONTAINS BANKS 14 THROUGH 21
000138:
000139: 14,2000                                          BANK     14
000140: 14,2000                        STARTAB           EQUALS
000141: 14,2000                        RT53              EQUALS
000142: 14,2000                        P50S1             EQUALS
000143: 14,2000                                          BNKSUM   14
000144:
000145: 15,2000                                          BANK     15
000146: 15,2000                        P50S              EQUALS
000147: 15,2000                        ETRYDAP           EQUALS
000148: 15,2000                        S52/3             EQUALS
000149: 15,2000                                          BNKSUM   15
000150:
000151: 16,2000                                          BANK     16
000152: 16,2000                        P40S1             EQUALS
000153: 16,2000                        DAPROLL           EQUALS
000154: 16,2000                        P50S2             EQUALS
000155: 16,2000                                          BNKSUM   16
000156:
000157: 17,2000                                          BANK     17
000158: 17,2000                        DAPS4             EQUALS
000159: 17,2000                        DAPS5             EQUALS
000160: 17,2000                        DAPS7             EQUALS
000161: 17,2000                                          BNKSUM   17
000162:
000163: 20,2000                                          BANK     20
000164:                                                                                                 #  Page 30
000165: 20,2000                        DAPS6             EQUALS
000166: 20,2000                        DAPS1             EQUALS
000167: 20,2000                        DAPS2             EQUALS
000168: 20,2000                                          BNKSUM   20
000169:
000170: 21,2000                                          BANK     21
000171: 21,2000                        DAPS3             EQUALS
000172: 21,2000                        MYSUBS            EQUALS
000173: 21,2000                                          BNKSUM   21
000174:
000175:                                                                                                 #  MODULE 4 CONTAINS BANKS 22 THROUGH 27
000176:
000177: 22,2000                                          BANK     22
000178: 22,2000                        RTBCODES          EQUALS
000179: 22,2000                        RTBCODE1          EQUALS
000180: 22,2000                        DAPS8             EQUALS
000181: 22,2000                        APOPERI           EQUALS
000182: 22,2000                        P40S5             EQUALS
000183: 22,2000                        KALCMON2          EQUALS
000184: 22,2000                        KALCMON1          EQUALS
000185: 22,2000                                          BNKSUM   22
000186:
000187: 23,2000                                          BANK     23
000188: 23,2000                        P20S2             EQUALS
000189: 23,2000                        INFLIGHT          EQUALS
000190: 23,2000                        COMGEOM1          EQUALS
000191: 23,2000                        POWFLITE          EQUALS
000192: 23,2000                        POWFLIT1          EQUALS
000193: 23,2000                        RENDGUID          EQUALS
000194: 23,2000                        POWFLIT2          EQUALS
000195: 23,2000                        R30LOC            EQUALS
000196: 23,2000                        P11FOUR           EQUALS
000197: 23,2000                        P12A              EQUALS
000198: 23,2000                        NORMLIZ           EQUALS
000199: 23,2000                        ASENT7            EQUALS
000200: 23,2000                        RODTRAP           EQUALS
000201: 23,2000                                          BNKSUM   23
000202:
000203: 24,2000                                          BANK     24
000204: 24,2000                        LOADDAP           EQUALS
000205: 24,2000                        P40S              EQUALS
000206: 24,2000                                          BNKSUM   24
000207:
000208: 25,2000                                          BANK     25
000209:                                                                                                 #  Page 31
000210: 25,2000                        REENTRY           EQUALS
000211: 25,2000                                          BNKSUM   25
000212:
000213: 26,2000                                          BANK     26
000214: 26,2000                        INTPRET1          EQUALS
000215: 26,2000                        REENTRY1          EQUALS
000216: 26,2000                        P60S              EQUALS
000217: 26,2000                        P60S1             EQUALS
000218: 26,2000                        P60S2             EQUALS
000219: 26,2000                        P60S3             EQUALS
000220: 26,2000                        PLANTIN           EQUALS
000221: 26,2000                        EPHEM             EQUALS
000222: 26,2000                        P05P06            EQUALS
000223: 26,2000                        26P50S            EQUALS
000224: 26,2000                                          BNKSUM   26
000225:
000226: 27,2000                                          BANK     27
000227: 27,2000                        TOF-FF            EQUALS
000228: 27,2000                        TOF-FF1           EQUALS
000229: 27,2000                        MANUVER           EQUALS
000230: 27,2000                        MANUVER1          EQUALS
000231: 27,2000                        VECPT             EQUALS
000232: 27,2000                        UPDATE1           EQUALS
000233: 27,2000                        UPDATE2           EQUALS
000234: 27,2000                        R22S1             EQUALS
000235: 27,2000                        P60S5             EQUALS
000236: 27,2000                        RTE2              EQUALS
000237: 27,2000                                          BNKSUM   27
000238:
000239:                                                                                                 #  MODULE 5 CONTAINS BANKS 30 THROUGH 35
000240:
000241: 30,2000                                          BANK     30
000242: 30,2000                        IMUSUPER          EQUALS
000243: 30,2000                        LOWSUPER          EQUALS
000244: 30,2000                        FCSTART           EQUALS                                         #  STANDARD LOCATION FOR THIS
000245: 30,2000                        LOPC              EQUALS
000246: 30,2000                        P20S1             EQUALS
000247: 30,2000                        P20S6             EQUALS
000248: 30,2000                        P40S3             EQUALS
000249: 30,2000                        R35A              EQUALS
000250: 30,2000                                          BNKSUM   30
000251:
000252:                                                                                                 #  Page 32
000253: 31,2000                                          BANK     31
000254: 31,2000                        R35               EQUALS
000255: 31,2000                        RT23              EQUALS
000256: 31,2000                        P30S1A            EQUALS
000257: 31,2000                        R34               EQUALS
000258: 31,2000                                          BNKSUM   31
000259:
000260: 32,2000                                          BANK     32
000261: 32,2000                        MSGSCAN1          EQUALS
000262: 32,2000                        RTE               EQUALS
000263: 32,2000                        DELRSPL1          EQUALS
000264: 32,2000                        IMUCAL3           EQUALS
000265: 32,2000                                          BNKSUM   32
000266:
000267: 33,2000                                          BANK     33
000268: 33,2000                        TESTLEAD          EQUALS
000269: 33,2000                        IMUCAL            EQUALS
000270: 33,2000                                          BNKSUM   33
000271:
000272: 34,2000                                          BANK     34
000273: 34,2000                        P11ONE            EQUALS
000274: 34,2000                        P20S3             EQUALS
000275: 34,2000                        P20S4             EQUALS
000276: 34,2000                        RTECON            EQUALS
000277: 34,2000                                          BNKSUM   34
000278:
000279: 35,2000                                          BANK     35
000280: 35,2000                        RTECON1           EQUALS
000281: 35,2000                        CSI/CDH           EQUALS
000282: 35,2000                        P30S1             EQUALS
000283: 35,2000                        P30S              EQUALS
000284: 35,2000                        R31               EQUALS
000285: 35,2000                        P17S1             EQUALS
000286: 35,2000                                          BNKSUM   35
000287:
000288:                                                                                                 #  MODULE 6 CONTAINS BANKS 36 THROUGH 43
000289:
000290: 36,2000                                          BANK     36
000291: 36,2000                        MEASINC           EQUALS
000292: 36,2000                        MEASINC1          EQUALS
000293:                                                                                                 #  Page 33
000294: 36,2000                        P17S              EQUALS
000295: 36,2000                        RTE1              EQUALS
000296: 36,2000                                          BNKSUM   36
000297:
000298: 37,2000                                          BANK     37
000299: 37,2000                        P20S              EQUALS
000300: 37,2000                        BODYATT           EQUALS
000301: 37,2000                        RENDEZ            EQUALS
000302: 37,2000                        SERVICES          EQUALS
000303: 37,2000                        P11TWO            EQUALS
000304: 37,2000                                          BNKSUM   37
000305:
000306: 40,2000                                          BANK     40
000307: 40,2000                        PINSUPER          EQUALS
000308: 40,2000                        SELFSUPR          EQUALS
000309: 40,2000                        PINBALL1          EQUALS
000310: 40,2000                                          BNKSUM   40
000311:
000312: 41,2000                                          BANK     41
000313: 41,2000                        PINBALL2          EQUALS
000314: 41,2000                                          BNKSUM   41
000315:
000316: 42,2000                                          BANK     42
000317: 42,2000                        SBAND             EQUALS
000318: 42,2000                        PINBALL3          EQUALS
000319: 42,2000                        EXTVBS            EQUALS
000320: 42,2000                                          BNKSUM   42
000321:
000322: 43,2000                                          BANK     43
000323: 43,2000                        SELFCHEC          EQUALS
000324: 43,2000                        EXTVERBS          EQUALS
000325: 43,2000                                          BNKSUM   43
000326:
000327: 43,2000  26,3331               HI6ZEROS          EQUALS   ZEROVECS                              #  ZERO VECTOR ALWAYS IN HIGH MEMORY
000328: 43,2000  04,3455               LO6ZEROS          EQUALS   ZEROVEC                               #  ZERO VECTOR ALWAYS IN LOW MEMORY
000329: 43,2000  26,3327               HIDPHALF          EQUALS   UNITX
000330: 43,2000  04,3453               LODPHALF          EQUALS   XUNIT
000331: 43,2000  26,3321               HIDP1/4           EQUALS   DP1/4TH
000332:                                                                                                 #  Page 34
000333: 43,2000  04,3501               LODP1/4           EQUALS   D1/4                                  #  2DEC .25
000334: 43,2000  26,3327               HIUNITX           EQUALS   UNITX
000335: 43,2000  26,3325               HIUNITY           EQUALS   UNITY
000336: 43,2000  26,3323               HIUNITZ           EQUALS   UNITZ
000337: 43,2000  04,3453               LOUNITX           EQUALS   XUNIT                                 #  2DEC .5
000338: 43,2000  04,3451               LOUNITY           EQUALS   YUNIT                                 #  2DEC 0
000339: 43,2000  04,3447               LOUNITZ           EQUALS   ZUNIT                                 #  2DEC 0
000340: 43,2000  11,3706               3/4LOWDP          EQUALS   3/4                                   #  2DEC 3.0 B-2
000341:
000342: 43,2000  30,2000                                 SBANK=   LOWSUPER
000343:
000344:                                                                                                 #  ROPE-SPECIFIC ASSIGNS OBVIATING NEED TO CHECK COMPUTER FLAG IN DETERMINING(?) INTEGRATION AREA ENTRIES.
000345:
000346: 43,2000  13,3036               OTHPREC           EQUALS   LEMPREC
000347: 43,2000  13,2711               ATOPOTH           EQUALS   ATOPLEM
000348: 43,2000  13,2636               ATOPTHIS          EQUALS   ATOPCSM
000349: 43,2000  0000173               MOONTHIS          EQUALS   CMOONFLG
000350: 43,2000  0000174               MOONOTH           EQUALS   LMOONFLG
000351: 43,2000  13,2651               MOVATHIS          EQUALS   MOVEACSM
000352: 43,2000  35,3204               STATEST           EQUALS   V83CALL                               #  * TEMPORARY
000353: 43,2000  13,3022               THISPREC          EQUALS   CSMPREC
000354: 43,2000  26,3327               THISAXIS          =        UNITX
000355: 43,2000     4747               ERASID            EQUALS   LOW10                                 #  DOWNLINK ERASABLE DUMP ID
000356: 43,2000     6214               DELAYNUM          EQUALS   THREE
000357:
000358:                                                                                                 # ********************************************************************************************************
000359:
000360:                                                                                                 #  THE FOLLOWING ECADRS ARE DEFINED TO FACILITATE EBANK SWITCHING.  THEY ALSO MAKE IT EASIER FOR
000361:                                                                                                 #  ERASABLE CONTROL TO REARRANGE ERASABLE MEMORY WITHOUT DISRUPTING THE PROGRAMS WHICH SET EBANKS.
000362:                                                                                                 #  PRIOR TO ROP RELEASE FIXED MEMORY CAN BE SAVED BY SETTING EACH EBXXXX =EBANKX (X=4,5,6,7).  EBANKX OF COURSE
000363:                                                                                                 #  WILL BE THE BANK WHERE THE ERASABLES REFERENCED IN EBXXXX WILL BE STORED.
000364:
000365: 07,2000                                          BANK     7
000366: 07,2000  E7,1674                                 EBANK=   MARKDOWN
000367: 07,2000           03674        EBMARKDO          ECADR    MARKDOWN
000368: 07,2001  E7,1725                                 EBANK=   MRKBUF1
000369: 07,2001           03725        EBMRKBUF          ECADR    MRKBUF1
000370:
000371: 24,2000                                          BANK     24
000372: 24,2000  E7,1431                                 EBANK=   DVCNTR
000373: 24,2000           03431        EBDVCNTR          ECADR    DVCNTR
000374: 24,2001  E7,1672                                 EBANK=   P40TMP
000375: 24,2001           03672        EBP40TMP          ECADR    P40TMP
000376:
000377: 34,2000                                          BANK     34
000378: 34,2000  E7,1431                                 EBANK=   DVCNTR
000379: 34,2000           03431        EBDVCNT           ECADR    DVCNTR
000380: 34,2001  E5,1426                                 EBANK=   QPLACES
000381: 34,2001           02426        EBQPLACE          ECADR    QPLACES
000382:
000383: 37,2000                                          BANK     37
000384: 37,2000     1231                                 EBANK=   RN1
000385:                                                                                                 #  Page 35
000386: 37,2000           01231        EBRN1             ECADR    RN1
000387:
000388:                                                                                                 # ******************************************************************************************************
000389:
000390:                                                                                                 #  Page 36
000391:
000392:                                                                                                 #  *** END OF MAIN PROGRAM ***
000393:

End of include-file TAGS_FOR_RELATIVE_SETLOC.agc.  Parent file is MAIN.agc


