
Source Code


000002:                                                                                                  #  Copyright:    Public domain.
000003:                                                                                                  #  Filename:     TAGS_FOR_RELATIVE_SETLOC.agc
000004:                                                                                                  #  Purpose:      Part of the source code for Colossus, build 249.
000005:                                                                                                  #                It is part of the source code for the Command Module's (CM)
000006:                                                                                                  #                Apollo Guidance Computer (AGC), possibly for Apollo 8 and 9.
000007:                                                                                                  #  Assembler:    yaYUL
000008:                                                                                                  #  Reference:    pp. 27-36 of 1701.pdf.
000009:                                                                                                  #  Contact:      Ron Burkey <info@sandroid.org>.
000010:                                                                                                  #  Website:      www.ibiblio.org/apollo.
000011:                                                                                                  #  Mod history:  08/02/04 RSB    Adapted from similar Luminary 131 file.
000012:                                                                                                  #                05/06/09 RSB    Made a few comment corrections I noticed
000013:                                                                                                  #                                were needed when adapting for Comanche 055.
000014:
000015:                                                                                                  #  The contents of the "Colossus249" files, in general, are transcribed
000016:                                                                                                  #  from a scanned document obtained from MIT's website,
000017:                                                                                                  #  http://hrst.mit.edu/hrs/apollo/public/archive/1701.pdf.  Notations on this
000018:                                                                                                  #  document read, in part:
000019:
000020:                                                                                                  #        Assemble revision 249 of AGC program Colossus by NASA
000021:                                                                                                  #        2021111-041.  October 28, 1968.
000022:
000023:                                                                                                  #        This AGC program shall also be referred to as
000024:                                                                                                  #                                Colossus 1A
000025:
000026:                                                                                                  #        Prepared by
000027:                                                                                                  #                        Massachusetts Institute of Technology
000028:                                                                                                  #                        75 Cambridge Parkway
000029:                                                                                                  #                        Cambridge, Massachusetts
000030:                                                                                                  #        under NASA contract NAS 9-4065.
000031:
000032:                                                                                                  #  Refer directly to the online document mentioned above for further information.
000033:                                                                                                  #  Please report any errors (relative to 1701.pdf) to info@sandroid.org.
000034:
000035:                                                                                                  #  In some cases, where the source code for Luminary 131 overlaps that of
000036:                                                                                                  #  Colossus 249, this code is instead copied from the corresponding Luminary 131
000037:                                                                                                  #  source file, and then is proofed to incorporate any changes.
000038:
000039:                                                                                                  #  Page 27
000040:                                                                                                  #  TAGS FOR RELATIVE SETLOC AND BLANK BANK CARDS
000041:
000042: ???????                        FIXED              MEMORY   120000     -          167777
000043: ???????                                           COUNT    BANKSUM
000044:
000045:                                                                                                  #  MODULE 1 CONTAINS BANKS 0 THROUGH 5
000046:
000047:    4000                                           BLOCK    02
000048:    4000                        FFTAG1             EQUALS
000049:    4000                        FFTAG2             EQUALS
000050:    4000                        FFTAG3             EQUALS
000051:    4000                        FFTAG4             EQUALS
000052:    4000                        FFTAG7             EQUALS
000053:    4000                        FFTAG8             EQUALS
000054:    4000                        FFTAG9             EQUALS
000055:    4000                        FFTAG10            EQUALS
000056:    4000                        FFTAG12            EQUALS
000057:    4000                                           BNKSUM   02
000058:
000059:    6000                                           BLOCK    03
000060:    6000                        FFTAG5             EQUALS
000061:    6000                        FFTAG6             EQUALS
000062:    6000                                           BNKSUM   03
000063:
000064: 00,2000                                           BANK     00
000065: 00,2000                        DLAYJOB            EQUALS
000066: 00,2000                                           BNKSUM   00
000067:
000068: 01,2000                                           BANK     01
000069: 01,2000                        RESTART            EQUALS
000070: 01,2000                                           BNKSUM   01
000071:
000072: 04,2000                                           BANK     04
000073: 04,2000                        VERB37             EQUALS
000074: 04,2000                        CONICS1            EQUALS
000075: 04,2000                        PINBALL4           EQUALS
000076: 04,2000                        R36LM              EQUALS
000077: 04,2000                        INTPRET2           EQUALS
000078: 04,2000                        IMUCAL1            EQUALS
000079: 04,2000                        STBLEORB           EQUALS
000080: 04,2000                        E/PROG             EQUALS
000081: 04,2000                        MIDDGIM            EQUALS
000082:
000083: 04,2000                                           BNKSUM   04
000084:
000085:                                                                                                  #  Page 28
000086:
000087: 05,2000                                           BANK     05
000088: 05,2000                        FRANDRES           EQUALS
000089: 05,2000                        DOWNTELM           EQUALS
000090: 05,2000                        DAPMASS            EQUALS
000091: 05,2000                                           BNKSUM   05
000092:
000093:                                                                                                  #  MODULE 2 CONTAINS BANKS 6 THROUGH 13
000094:
000095: 06,2000                                           BANK     06
000096: 06,2000                        IMUCOMP            EQUALS
000097: 06,2000                        T4RUP              EQUALS
000098: 06,2000                        IMUCAL2            EQUALS
000099: 06,2000                                           BNKSUM   06
000100:
000101: 07,2000                                           BANK     07
000102: 07,2000                        SXTMARKE           EQUALS
000103: 07,2000                        R02                EQUALS
000104: 07,2000                        MODESW             EQUALS
000105: 07,2000                        XANG               EQUALS
000106: 07,2000                        KEYRUPT            EQUALS
000107: 07,2000                                           BNKSUM   07
000108:
000109: 10,2000                                           BANK     10
000110: 10,2000                        DISPLAYS           EQUALS
000111: 10,2000                        PHASETAB           EQUALS
000112: 10,2000                        COMGEOM2           EQUALS
000113: 10,2000                        SXTMARK1           EQUALS
000114: 10,2000                        P60S4              EQUALS
000115: 10,2000                        OPTDRV             EQUALS
000116: 10,2000                                           BNKSUM   10
000117:
000118: 11,2000                                           BANK     11
000119: 11,2000                        ORBITAL            EQUALS
000120: 11,2000                        ORBITAL1           EQUALS                                         #  CONSTANTS
000121: 11,2000                        INTVEL             EQUALS
000122: 11,2000                        S52/2              EQUALS
000123: 11,2000                                           BNKSUM   11
000124:
000125: 12,2000                                           BANK     12
000126: 12,2000                        CONICS             EQUALS
000127:                                                                                                  #  Page 29
000128: 12,2000                                           BNKSUM   12
000129:
000130: 13,2000                                           BANK     13
000131: 13,2000                        P76LOC             EQUALS
000132: 13,2000                        LATLONG            EQUALS
000133: 13,2000                        INTINIT            EQUALS
000134: 13,2000                        SR52/1             EQUALS
000135: 13,2000                        ORBITAL2           EQUALS
000136: 13,2000                                           BNKSUM   13
000137:
000138:                                                                                                  #  MODULE 3 CONTAINS BANKS 14 THROUGH 21
000139:
000140: 14,2000                                           BANK     14
000141: 14,2000                        STARTAB            EQUALS
000142: 14,2000                        RT53               EQUALS
000143: 14,2000                        P50S1              EQUALS
000144: 14,2000                                           BNKSUM   14
000145:
000146: 15,2000                                           BANK     15
000147: 15,2000                        P50S               EQUALS
000148: 15,2000                        ETRYDAP            EQUALS
000149: 15,2000                        S52/3              EQUALS
000150: 15,2000                                           BNKSUM   15
000151:
000152: 16,2000                                           BANK     16
000153: 16,2000                        P40S1              EQUALS
000154: 16,2000                        DAPROLL            EQUALS
000155: 16,2000                        P50S2              EQUALS
000156: 16,2000                                           BNKSUM   16
000157:
000158: 17,2000                                           BANK     17
000159: 17,2000                        DAPS4              EQUALS
000160: 17,2000                        DAPS5              EQUALS
000161: 17,2000                        DAPS7              EQUALS
000162: 17,2000                                           BNKSUM   17
000163:
000164: 20,2000                                           BANK     20
000165:                                                                                                  #  Page 30
000166: 20,2000                        DAPS6              EQUALS
000167: 20,2000                        DAPS1              EQUALS
000168: 20,2000                        DAPS2              EQUALS
000169: 20,2000                                           BNKSUM   20
000170:
000171: 21,2000                                           BANK     21
000172: 21,2000                        DAPS3              EQUALS
000173: 21,2000                        MYSUBS             EQUALS
000174: 21,2000                                           BNKSUM   21
000175:
000176:                                                                                                  #  MODULE 4 CONTAINS BANKS 22 THROUGH 27
000177:
000178: 22,2000                                           BANK     22
000179: 22,2000                        RTBCODES           EQUALS
000180: 22,2000                        RTBCODE1           EQUALS
000181: 22,2000                        DAPS8              EQUALS
000182: 22,2000                        APOPERI            EQUALS
000183: 22,2000                        P40S5              EQUALS
000184: 22,2000                        KALCMON2           EQUALS
000185: 22,2000                        KALCMON1           EQUALS
000186: 22,2000                                           BNKSUM   22
000187:
000188: 23,2000                                           BANK     23
000189: 23,2000                        P20S2              EQUALS
000190: 23,2000                        INFLIGHT           EQUALS
000191: 23,2000                        COMGEOM1           EQUALS
000192: 23,2000                        POWFLITE           EQUALS
000193: 23,2000                        POWFLIT1           EQUALS
000194: 23,2000                        RENDGUID           EQUALS
000195: 23,2000                        POWFLIT2           EQUALS
000196: 23,2000                        R30LOC             EQUALS
000197: 23,2000                        P11FOUR            EQUALS
000198: 23,2000                        P12A               EQUALS
000199: 23,2000                        NORMLIZ            EQUALS
000200: 23,2000                        ASENT7             EQUALS
000201: 23,2000                        RODTRAP            EQUALS
000202: 23,2000                                           BNKSUM   23
000203:
000204: 24,2000                                           BANK     24
000205: 24,2000                        LOADDAP            EQUALS
000206: 24,2000                        P40S               EQUALS
000207: 24,2000                                           BNKSUM   24
000208:
000209: 25,2000                                           BANK     25
000210:                                                                                                  #  Page 31
000211: 25,2000                        REENTRY            EQUALS
000212: 25,2000                                           BNKSUM   25
000213:
000214: 26,2000                                           BANK     26
000215: 26,2000                        INTPRET1           EQUALS
000216: 26,2000                        REENTRY1           EQUALS
000217: 26,2000                        P60S               EQUALS
000218: 26,2000                        P60S1              EQUALS
000219: 26,2000                        P60S2              EQUALS
000220: 26,2000                        P60S3              EQUALS
000221: 26,2000                        PLANTIN            EQUALS
000222: 26,2000                        EPHEM              EQUALS
000223: 26,2000                        P05P06             EQUALS
000224: 26,2000                        26P50S             EQUALS
000225: 26,2000                                           BNKSUM   26
000226:
000227: 27,2000                                           BANK     27
000228: 27,2000                        TOF-FF             EQUALS
000229: 27,2000                        TOF-FF1            EQUALS
000230: 27,2000                        MANUVER            EQUALS
000231: 27,2000                        MANUVER1           EQUALS
000232: 27,2000                        VECPT              EQUALS
000233: 27,2000                        UPDATE1            EQUALS
000234: 27,2000                        UPDATE2            EQUALS
000235: 27,2000                        R22S1              EQUALS
000236: 27,2000                        P60S5              EQUALS
000237: 27,2000                        RTE2               EQUALS
000238: 27,2000                                           BNKSUM   27
000239:
000240:                                                                                                  #  MODULE 5 CONTAINS BANKS 30 THROUGH 35
000241:
000242: 30,2000                                           BANK     30
000243: 30,2000                        IMUSUPER           EQUALS
000244: 30,2000                        LOWSUPER           EQUALS
000245: 30,2000                        FCSTART            EQUALS                                         #  STANDARD LOCATION FOR THIS
000246: 30,2000                        LOPC               EQUALS
000247: 30,2000                        P20S1              EQUALS
000248: 30,2000                        P20S6              EQUALS
000249: 30,2000                        P40S3              EQUALS
000250: 30,2000                        R35A               EQUALS
000251: 30,2000                                           BNKSUM   30
000252:
000253:                                                                                                  #  Page 32
000254: 31,2000                                           BANK     31
000255: 31,2000                        R35                EQUALS
000256: 31,2000                        RT23               EQUALS
000257: 31,2000                        P30S1A             EQUALS
000258: 31,2000                        R34                EQUALS
000259: 31,2000                                           BNKSUM   31
000260:
000261: 32,2000                                           BANK     32
000262: 32,2000                        MSGSCAN1           EQUALS
000263: 32,2000                        RTE                EQUALS
000264: 32,2000                        DELRSPL1           EQUALS
000265: 32,2000                        IMUCAL3            EQUALS
000266: 32,2000                                           BNKSUM   32
000267:
000268: 33,2000                                           BANK     33
000269: 33,2000                        TESTLEAD           EQUALS
000270: 33,2000                        IMUCAL             EQUALS
000271: 33,2000                                           BNKSUM   33
000272:
000273: 34,2000                                           BANK     34
000274: 34,2000                        P11ONE             EQUALS
000275: 34,2000                        P20S3              EQUALS
000276: 34,2000                        P20S4              EQUALS
000277: 34,2000                        RTECON             EQUALS
000278: 34,2000                                           BNKSUM   34
000279:
000280: 35,2000                                           BANK     35
000281: 35,2000                        RTECON1            EQUALS
000282: 35,2000                        CSI/CDH            EQUALS
000283: 35,2000                        P30S1              EQUALS
000284: 35,2000                        P30S               EQUALS
000285: 35,2000                        R31                EQUALS
000286: 35,2000                        P17S1              EQUALS
000287: 35,2000                                           BNKSUM   35
000288:
000289:                                                                                                  #  MODULE 6 CONTAINS BANKS 36 THROUGH 43
000290:
000291: 36,2000                                           BANK     36
000292: 36,2000                        MEASINC            EQUALS
000293: 36,2000                        MEASINC1           EQUALS
000294:                                                                                                  #  Page 33
000295: 36,2000                        P17S               EQUALS
000296: 36,2000                        RTE1               EQUALS
000297: 36,2000                                           BNKSUM   36
000298:
000299: 37,2000                                           BANK     37
000300: 37,2000                        P20S               EQUALS
000301: 37,2000                        BODYATT            EQUALS
000302: 37,2000                        RENDEZ             EQUALS
000303: 37,2000                        SERVICES           EQUALS
000304: 37,2000                        P11TWO             EQUALS
000305: 37,2000                                           BNKSUM   37
000306:
000307: 40,2000                                           BANK     40
000308: 40,2000                        PINSUPER           EQUALS
000309: 40,2000                        SELFSUPR           EQUALS
000310: 40,2000                        PINBALL1           EQUALS
000311: 40,2000                                           BNKSUM   40
000312:
000313: 41,2000                                           BANK     41
000314: 41,2000                        PINBALL2           EQUALS
000315: 41,2000                                           BNKSUM   41
000316:
000317: 42,2000                                           BANK     42
000318: 42,2000                        SBAND              EQUALS
000319: 42,2000                        PINBALL3           EQUALS
000320: 42,2000                        EXTVBS             EQUALS
000321: 42,2000                                           BNKSUM   42
000322:
000323: 43,2000                                           BANK     43
000324: 43,2000                        SELFCHEC           EQUALS
000325: 43,2000                        EXTVERBS           EQUALS
000326: 43,2000                                           BNKSUM   43
000327:
000328: 43,2000  26,3331               HI6ZEROS           EQUALS   ZEROVECS                              #  ZERO VECTOR ALWAYS IN HIGH MEMORY
000329: 43,2000  04,3455               LO6ZEROS           EQUALS   ZEROVEC                               #  ZERO VECTOR ALWAYS IN LOW MEMORY
000330: 43,2000  26,3327               HIDPHALF           EQUALS   UNITX
000331: 43,2000  04,3453               LODPHALF           EQUALS   XUNIT
000332: 43,2000  26,3321               HIDP1/4            EQUALS   DP1/4TH
000333:                                                                                                  #  Page 34
000334: 43,2000  04,3501               LODP1/4            EQUALS   D1/4                                  #  2DEC .25
000335: 43,2000  26,3327               HIUNITX            EQUALS   UNITX
000336: 43,2000  26,3325               HIUNITY            EQUALS   UNITY
000337: 43,2000  26,3323               HIUNITZ            EQUALS   UNITZ
000338: 43,2000  04,3453               LOUNITX            EQUALS   XUNIT                                 #  2DEC .5
000339: 43,2000  04,3451               LOUNITY            EQUALS   YUNIT                                 #  2DEC 0
000340: 43,2000  04,3447               LOUNITZ            EQUALS   ZUNIT                                 #  2DEC 0
000341: 43,2000  11,3706               3/4LOWDP           EQUALS   3/4                                   #  2DEC 3.0 B-2
000342:
000343: 43,2000  30,2000                                  SBANK=   LOWSUPER
000344:
000345:                                                                                                  #  ROPE-SPECIFIC ASSIGNS OBVIATING NEED TO CHECK COMPUTER FLAG IN DETERMINING(?) INTEGRATION AREA ENTRIES.
000346:
000347: 43,2000  13,3036               OTHPREC            EQUALS   LEMPREC
000348: 43,2000  13,2711               ATOPOTH            EQUALS   ATOPLEM
000349: 43,2000  13,2636               ATOPTHIS           EQUALS   ATOPCSM
000350: 43,2000  0000173               MOONTHIS           EQUALS   CMOONFLG
000351: 43,2000  0000174               MOONOTH            EQUALS   LMOONFLG
000352: 43,2000  13,2651               MOVATHIS           EQUALS   MOVEACSM
000353: 43,2000  35,3204               STATEST            EQUALS   V83CALL                               #  * TEMPORARY
000354: 43,2000  13,3022               THISPREC           EQUALS   CSMPREC
000355: 43,2000  26,3327               THISAXIS           =        UNITX
000356: 43,2000     4747               ERASID             EQUALS   LOW10                                 #  DOWNLINK ERASABLE DUMP ID
000357: 43,2000     6214               DELAYNUM           EQUALS   THREE
000358:
000359:                                                                                                  # ********************************************************************************************************
000360:
000361:                                                                                                  #  THE FOLLOWING ECADRS ARE DEFINED TO FACILITATE EBANK SWITCHING.  THEY ALSO MAKE IT EASIER FOR
000362:                                                                                                  #  ERASABLE CONTROL TO REARRANGE ERASABLE MEMORY WITHOUT DISRUPTING THE PROGRAMS WHICH SET EBANKS.
000363:                                                                                                  #  PRIOR TO ROP RELEASE FIXED MEMORY CAN BE SAVED BY SETTING EACH EBXXXX =EBANKX (X=4,5,6,7).  EBANKX OF COURSE
000364:                                                                                                  #  WILL BE THE BANK WHERE THE ERASABLES REFERENCED IN EBXXXX WILL BE STORED.
000365:
000366: 07,2000                                           BANK     7
000367: 07,2000  E7,1674                                  EBANK=   MARKDOWN
000368: 07,2000           03674        EBMARKDO           ECADR    MARKDOWN
000369: 07,2001  E7,1725                                  EBANK=   MRKBUF1
000370: 07,2001           03725        EBMRKBUF           ECADR    MRKBUF1
000371:
000372: 24,2000                                           BANK     24
000373: 24,2000  E7,1431                                  EBANK=   DVCNTR
000374: 24,2000           03431        EBDVCNTR           ECADR    DVCNTR
000375: 24,2001  E7,1672                                  EBANK=   P40TMP
000376: 24,2001           03672        EBP40TMP           ECADR    P40TMP
000377:
000378: 34,2000                                           BANK     34
000379: 34,2000  E7,1431                                  EBANK=   DVCNTR
000380: 34,2000           03431        EBDVCNT            ECADR    DVCNTR
000381: 34,2001  E5,1426                                  EBANK=   QPLACES
000382: 34,2001           02426        EBQPLACE           ECADR    QPLACES
000383:
000384: 37,2000                                           BANK     37
000385: 37,2000     1231                                  EBANK=   RN1
000386:                                                                                                  #  Page 35
000387: 37,2000           01231        EBRN1              ECADR    RN1
000388:
000389:                                                                                                  # ******************************************************************************************************
000390:
000391:                                                                                                  #  Page 36
000392:
000393:                                                                                                  #  *** END OF MAIN PROGRAM ***
000394:

End of include-file TAGS_FOR_RELATIVE_SETLOC.agc.  Parent file is MAIN.agc


